{
	"calculateUtils_flat.sol": {
		"CalculateUtils": {
			"abi": [
				{
					"inputs": [
						{
							"internalType": "string",
							"name": "",
							"type": "string"
						}
					],
					"name": "ParameterException",
					"type": "error"
				},
				{
					"inputs": [
						{
							"internalType": "uint256",
							"name": "_bounty",
							"type": "uint256"
						},
						{
							"internalType": "uint256",
							"name": "_deduct",
							"type": "uint256"
						}
					],
					"name": "getDeductMoney",
					"outputs": [
						{
							"internalType": "uint256",
							"name": "",
							"type": "uint256"
						}
					],
					"stateMutability": "pure",
					"type": "function"
				},
				{
					"inputs": [
						{
							"internalType": "uint256",
							"name": "_transNumber",
							"type": "uint256"
						}
					],
					"name": "getMatNumber",
					"outputs": [
						{
							"internalType": "uint256",
							"name": "",
							"type": "uint256"
						}
					],
					"stateMutability": "pure",
					"type": "function"
				},
				{
					"inputs": [
						{
							"internalType": "uint256",
							"name": "_ratio",
							"type": "uint256"
						},
						{
							"internalType": "uint256",
							"name": "_bounty",
							"type": "uint256"
						}
					],
					"name": "getPunish",
					"outputs": [
						{
							"internalType": "uint256",
							"name": "",
							"type": "uint256"
						}
					],
					"stateMutability": "pure",
					"type": "function"
				},
				{
					"inputs": [
						{
							"internalType": "uint256",
							"name": "_bounts",
							"type": "uint256"
						}
					],
					"name": "punishRatio",
					"outputs": [
						{
							"internalType": "uint256",
							"name": "",
							"type": "uint256"
						}
					],
					"stateMutability": "pure",
					"type": "function"
				}
			],
			"devdoc": {
				"kind": "dev",
				"methods": {},
				"version": 1
			},
			"evm": {
				"assembly": "    /* \"calculateUtils_flat.sol\":6893:9432  library CalculateUtils {... */\n  dataSize(sub_0)\n  dataOffset(sub_0)\n  0x0b\n  dup3\n  dup3\n  dup3\n  codecopy\n  dup1\n  mload\n  0x00\n  byte\n  0x73\n  eq\n  tag_1\n  jumpi\n  mstore(0x00, shl(0xe0, 0x4e487b71))\n  mstore(0x04, 0x00)\n  revert(0x00, 0x24)\ntag_1:\n  mstore(0x00, address)\n  0x73\n  dup2\n  mstore8\n  dup3\n  dup2\n  return\nstop\n\nsub_0: assembly {\n        /* \"calculateUtils_flat.sol\":6893:9432  library CalculateUtils {... */\n      eq(address, deployTimeAddress())\n      mstore(0x40, 0x80)\n      jumpi(tag_1, lt(calldatasize, 0x04))\n      shr(0xe0, calldataload(0x00))\n      dup1\n      0x4f6ca3ce\n      eq\n      tag_2\n      jumpi\n      dup1\n      0x8f861ba7\n      eq\n      tag_3\n      jumpi\n      dup1\n      0x9ce5c4bf\n      eq\n      tag_4\n      jumpi\n      dup1\n      0xf2e60202\n      eq\n      tag_5\n      jumpi\n    tag_1:\n      0x00\n      dup1\n      revert\n        /* \"calculateUtils_flat.sol\":7045:7744  function punishRatio(uint256 _bounts) public pure returns(uint256) {... */\n    tag_2:\n      tag_6\n      tag_7\n      calldatasize\n      0x04\n      tag_8\n      jump\t// in\n    tag_7:\n      tag_9\n      jump\t// in\n    tag_6:\n      mload(0x40)\n        /* \"#utility.yul\":353:378   */\n      swap1\n      dup2\n      mstore\n        /* \"#utility.yul\":341:343   */\n      0x20\n        /* \"#utility.yul\":326:344   */\n      add\n        /* \"calculateUtils_flat.sol\":7045:7744  function punishRatio(uint256 _bounts) public pure returns(uint256) {... */\n      mload(0x40)\n      dup1\n      swap2\n      sub\n      swap1\n      return\n        /* \"calculateUtils_flat.sol\":9285:9425  function getDeductMoney(uint256 _bounty,uint256 _deduct) public pure returns(uint256) {... */\n    tag_3:\n      tag_6\n      tag_13\n      calldatasize\n      0x04\n      tag_14\n      jump\t// in\n    tag_13:\n      tag_15\n      jump\t// in\n        /* \"calculateUtils_flat.sol\":9120:9252  function getPunish(uint256 _ratio,uint256 _bounty) public pure returns(uint256) {... */\n    tag_4:\n      tag_6\n      tag_18\n      calldatasize\n      0x04\n      tag_14\n      jump\t// in\n    tag_18:\n      tag_19\n      jump\t// in\n        /* \"calculateUtils_flat.sol\":8024:8295  function getMatNumber(uint256 _transNumber)external pure returns(uint256 ){... */\n    tag_5:\n      tag_6\n      tag_22\n      calldatasize\n      0x04\n      tag_8\n      jump\t// in\n    tag_22:\n      tag_23\n      jump\t// in\n        /* \"calculateUtils_flat.sol\":7045:7744  function punishRatio(uint256 _bounts) public pure returns(uint256) {... */\n    tag_9:\n        /* \"calculateUtils_flat.sol\":7103:7110  uint256 */\n      0x00\n        /* \"calculateUtils_flat.sol\":7122:7135  uint256 ratio */\n      dup1\n        /* \"calculateUtils_flat.sol\":6946:6949  273 */\n      0x0111\n        /* \"calculateUtils_flat.sol\":7149:7156  _bounts */\n      dup4\n        /* \"calculateUtils_flat.sol\":7149:7162  _bounts <RATE */\n      lt\n        /* \"calculateUtils_flat.sol\":7145:7716  if (_bounts <RATE) {... */\n      iszero\n      tag_26\n      jumpi\n      pop\n        /* \"calculateUtils_flat.sol\":7186:7187  1 */\n      0x01\n        /* \"calculateUtils_flat.sol\":7145:7716  if (_bounts <RATE) {... */\n      jump(tag_52)\n    tag_26:\n        /* \"calculateUtils_flat.sol\":6946:6949  273 */\n      0x0111\n        /* \"calculateUtils_flat.sol\":7206:7213  _bounts */\n      dup4\n        /* \"calculateUtils_flat.sol\":7206:7219  _bounts>=RATE */\n      lt\n      iszero\n        /* \"calculateUtils_flat.sol\":7206:7237  _bounts>=RATE&&_bounts<RATE*1e1 */\n      dup1\n      iszero\n      tag_28\n      jumpi\n      pop\n        /* \"calculateUtils_flat.sol\":7229:7237  RATE*1e1 */\n      tag_29\n        /* \"calculateUtils_flat.sol\":6946:6949  273 */\n      0x0111\n        /* \"calculateUtils_flat.sol\":7234:7237  1e1 */\n      0x0a\n        /* \"calculateUtils_flat.sol\":7229:7237  RATE*1e1 */\n      tag_30\n      jump\t// in\n    tag_29:\n        /* \"calculateUtils_flat.sol\":7221:7228  _bounts */\n      dup4\n        /* \"calculateUtils_flat.sol\":7221:7237  _bounts<RATE*1e1 */\n      lt\n        /* \"calculateUtils_flat.sol\":7206:7237  _bounts>=RATE&&_bounts<RATE*1e1 */\n    tag_28:\n        /* \"calculateUtils_flat.sol\":7203:7716  if(_bounts>=RATE&&_bounts<RATE*1e1) {... */\n      iszero\n      tag_31\n      jumpi\n      pop\n        /* \"calculateUtils_flat.sol\":7261:7264  1e1 */\n      0x0a\n        /* \"calculateUtils_flat.sol\":7203:7716  if(_bounts>=RATE&&_bounts<RATE*1e1) {... */\n      jump(tag_52)\n    tag_31:\n        /* \"calculateUtils_flat.sol\":7293:7301  RATE*1e1 */\n      tag_33\n        /* \"calculateUtils_flat.sol\":6946:6949  273 */\n      0x0111\n        /* \"calculateUtils_flat.sol\":7298:7301  1e1 */\n      0x0a\n        /* \"calculateUtils_flat.sol\":7293:7301  RATE*1e1 */\n      tag_30\n      jump\t// in\n    tag_33:\n        /* \"calculateUtils_flat.sol\":7283:7290  _bounts */\n      dup4\n        /* \"calculateUtils_flat.sol\":7283:7301  _bounts >=RATE*1e1 */\n      lt\n      iszero\n        /* \"calculateUtils_flat.sol\":7283:7322  _bounts >=RATE*1e1 && _bounts <RATE*1e2 */\n      dup1\n      iszero\n      tag_34\n      jumpi\n      pop\n        /* \"calculateUtils_flat.sol\":7314:7322  RATE*1e2 */\n      tag_35\n        /* \"calculateUtils_flat.sol\":6946:6949  273 */\n      0x0111\n        /* \"calculateUtils_flat.sol\":7319:7322  1e2 */\n      0x64\n        /* \"calculateUtils_flat.sol\":7314:7322  RATE*1e2 */\n      tag_30\n      jump\t// in\n    tag_35:\n        /* \"calculateUtils_flat.sol\":7305:7312  _bounts */\n      dup4\n        /* \"calculateUtils_flat.sol\":7305:7322  _bounts <RATE*1e2 */\n      lt\n        /* \"calculateUtils_flat.sol\":7283:7322  _bounts >=RATE*1e1 && _bounts <RATE*1e2 */\n    tag_34:\n        /* \"calculateUtils_flat.sol\":7280:7716  if(_bounts >=RATE*1e1 && _bounts <RATE*1e2){... */\n      iszero\n      tag_36\n      jumpi\n      pop\n        /* \"calculateUtils_flat.sol\":7345:7348  1e2 */\n      0x64\n        /* \"calculateUtils_flat.sol\":7280:7716  if(_bounts >=RATE*1e1 && _bounts <RATE*1e2){... */\n      jump(tag_52)\n    tag_36:\n        /* \"calculateUtils_flat.sol\":7377:7385  RATE*1e2 */\n      tag_38\n        /* \"calculateUtils_flat.sol\":6946:6949  273 */\n      0x0111\n        /* \"calculateUtils_flat.sol\":7382:7385  1e2 */\n      0x64\n        /* \"calculateUtils_flat.sol\":7377:7385  RATE*1e2 */\n      tag_30\n      jump\t// in\n    tag_38:\n        /* \"calculateUtils_flat.sol\":7367:7374  _bounts */\n      dup4\n        /* \"calculateUtils_flat.sol\":7367:7385  _bounts >=RATE*1e2 */\n      lt\n      iszero\n        /* \"calculateUtils_flat.sol\":7367:7407  _bounts >=RATE*1e2 && _bounts < RATE*1e3 */\n      dup1\n      iszero\n      tag_39\n      jumpi\n      pop\n        /* \"calculateUtils_flat.sol\":7399:7407  RATE*1e3 */\n      tag_40\n        /* \"calculateUtils_flat.sol\":6946:6949  273 */\n      0x0111\n        /* \"calculateUtils_flat.sol\":7404:7407  1e3 */\n      0x03e8\n        /* \"calculateUtils_flat.sol\":7399:7407  RATE*1e3 */\n      tag_30\n      jump\t// in\n    tag_40:\n        /* \"calculateUtils_flat.sol\":7389:7396  _bounts */\n      dup4\n        /* \"calculateUtils_flat.sol\":7389:7407  _bounts < RATE*1e3 */\n      lt\n        /* \"calculateUtils_flat.sol\":7367:7407  _bounts >=RATE*1e2 && _bounts < RATE*1e3 */\n    tag_39:\n        /* \"calculateUtils_flat.sol\":7364:7716  if(_bounts >=RATE*1e2 && _bounts < RATE*1e3) {... */\n      iszero\n      tag_41\n      jumpi\n      pop\n        /* \"calculateUtils_flat.sol\":7431:7434  1e3 */\n      0x03e8\n        /* \"calculateUtils_flat.sol\":7364:7716  if(_bounts >=RATE*1e2 && _bounts < RATE*1e3) {... */\n      jump(tag_52)\n    tag_41:\n        /* \"calculateUtils_flat.sol\":7462:7470  RATE*1e3 */\n      tag_43\n        /* \"calculateUtils_flat.sol\":6946:6949  273 */\n      0x0111\n        /* \"calculateUtils_flat.sol\":7467:7470  1e3 */\n      0x03e8\n        /* \"calculateUtils_flat.sol\":7462:7470  RATE*1e3 */\n      tag_30\n      jump\t// in\n    tag_43:\n        /* \"calculateUtils_flat.sol\":7453:7460  _bounts */\n      dup4\n        /* \"calculateUtils_flat.sol\":7453:7470  _bounts>=RATE*1e3 */\n      lt\n      iszero\n        /* \"calculateUtils_flat.sol\":7453:7492  _bounts>=RATE*1e3 && _bounts <=RATE*1e4 */\n      dup1\n      iszero\n      tag_44\n      jumpi\n      pop\n        /* \"calculateUtils_flat.sol\":7484:7492  RATE*1e4 */\n      tag_45\n        /* \"calculateUtils_flat.sol\":6946:6949  273 */\n      0x0111\n        /* \"calculateUtils_flat.sol\":7489:7492  1e4 */\n      0x2710\n        /* \"calculateUtils_flat.sol\":7484:7492  RATE*1e4 */\n      tag_30\n      jump\t// in\n    tag_45:\n        /* \"calculateUtils_flat.sol\":7474:7481  _bounts */\n      dup4\n        /* \"calculateUtils_flat.sol\":7474:7492  _bounts <=RATE*1e4 */\n      gt\n      iszero\n        /* \"calculateUtils_flat.sol\":7453:7492  _bounts>=RATE*1e3 && _bounts <=RATE*1e4 */\n    tag_44:\n        /* \"calculateUtils_flat.sol\":7450:7716  if(_bounts>=RATE*1e3 && _bounts <=RATE*1e4) {... */\n      iszero\n      tag_46\n      jumpi\n      pop\n        /* \"calculateUtils_flat.sol\":7516:7519  1e4 */\n      0x2710\n        /* \"calculateUtils_flat.sol\":7450:7716  if(_bounts>=RATE*1e3 && _bounts <=RATE*1e4) {... */\n      jump(tag_52)\n    tag_46:\n        /* \"calculateUtils_flat.sol\":7547:7555  RATE*1e4 */\n      tag_48\n        /* \"calculateUtils_flat.sol\":6946:6949  273 */\n      0x0111\n        /* \"calculateUtils_flat.sol\":7552:7555  1e4 */\n      0x2710\n        /* \"calculateUtils_flat.sol\":7547:7555  RATE*1e4 */\n      tag_30\n      jump\t// in\n    tag_48:\n        /* \"calculateUtils_flat.sol\":7538:7545  _bounts */\n      dup4\n        /* \"calculateUtils_flat.sol\":7538:7555  _bounts>=RATE*1e4 */\n      lt\n      iszero\n        /* \"calculateUtils_flat.sol\":7538:7577  _bounts>=RATE*1e4 && _bounts <=RATE*1e5 */\n      dup1\n      iszero\n      tag_49\n      jumpi\n      pop\n        /* \"calculateUtils_flat.sol\":7569:7577  RATE*1e5 */\n      tag_50\n        /* \"calculateUtils_flat.sol\":6946:6949  273 */\n      0x0111\n        /* \"calculateUtils_flat.sol\":7574:7577  1e5 */\n      0x0186a0\n        /* \"calculateUtils_flat.sol\":7569:7577  RATE*1e5 */\n      tag_30\n      jump\t// in\n    tag_50:\n        /* \"calculateUtils_flat.sol\":7559:7566  _bounts */\n      dup4\n        /* \"calculateUtils_flat.sol\":7559:7577  _bounts <=RATE*1e5 */\n      gt\n      iszero\n        /* \"calculateUtils_flat.sol\":7538:7577  _bounts>=RATE*1e4 && _bounts <=RATE*1e5 */\n    tag_49:\n        /* \"calculateUtils_flat.sol\":7535:7716  if(_bounts>=RATE*1e4 && _bounts <=RATE*1e5) {... */\n      iszero\n      tag_51\n      jumpi\n      pop\n        /* \"calculateUtils_flat.sol\":7601:7604  1e5 */\n      0x0186a0\n        /* \"calculateUtils_flat.sol\":7535:7716  if(_bounts>=RATE*1e4 && _bounts <=RATE*1e5) {... */\n      jump(tag_52)\n    tag_51:\n        /* \"calculateUtils_flat.sol\":7640:7705  ParameterException(\"Unable to calculate,Please submit a request\") */\n      mload(0x40)\n      shl(0xe2, 0x347626dd)\n      dup2\n      mstore\n        /* \"#utility.yul\":1114:1116   */\n      0x20\n        /* \"calculateUtils_flat.sol\":7640:7705  ParameterException(\"Unable to calculate,Please submit a request\") */\n      0x04\n      dup3\n      add\n        /* \"#utility.yul\":1096:1117   */\n      mstore\n        /* \"#utility.yul\":1153:1155   */\n      0x2b\n        /* \"#utility.yul\":1133:1151   */\n      0x24\n      dup3\n      add\n        /* \"#utility.yul\":1126:1156   */\n      mstore\n        /* \"#utility.yul\":1192:1226   */\n      0x556e61626c6520746f2063616c63756c6174652c506c65617365207375626d69\n        /* \"#utility.yul\":1172:1190   */\n      0x44\n      dup3\n      add\n        /* \"#utility.yul\":1165:1227   */\n      mstore\n      shl(0xaa, 0x1d0818481c995c5d595cdd)\n        /* \"#utility.yul\":1243:1261   */\n      0x64\n      dup3\n      add\n        /* \"#utility.yul\":1236:1277   */\n      mstore\n        /* \"#utility.yul\":1294:1313   */\n      0x84\n      add\n        /* \"calculateUtils_flat.sol\":7640:7705  ParameterException(\"Unable to calculate,Please submit a request\") */\n      mload(0x40)\n      dup1\n      swap2\n      sub\n      swap1\n      revert\n        /* \"calculateUtils_flat.sol\":7535:7716  if(_bounts>=RATE*1e4 && _bounts <=RATE*1e5) {... */\n    tag_52:\n        /* \"calculateUtils_flat.sol\":7732:7737  ratio */\n      swap3\n        /* \"calculateUtils_flat.sol\":7045:7744  function punishRatio(uint256 _bounts) public pure returns(uint256) {... */\n      swap2\n      pop\n      pop\n      jump\t// out\n        /* \"calculateUtils_flat.sol\":9285:9425  function getDeductMoney(uint256 _bounty,uint256 _deduct) public pure returns(uint256) {... */\n    tag_15:\n        /* \"calculateUtils_flat.sol\":9362:9369  uint256 */\n      0x00\n        /* \"calculateUtils_flat.sol\":9388:9418  getPercentage(_bounty,_deduct) */\n      tag_56\n        /* \"calculateUtils_flat.sol\":9402:9409  _bounty */\n      dup4\n        /* \"calculateUtils_flat.sol\":9410:9417  _deduct */\n      dup4\n        /* \"calculateUtils_flat.sol\":9388:9401  getPercentage */\n      tag_57\n        /* \"calculateUtils_flat.sol\":9388:9418  getPercentage(_bounty,_deduct) */\n      jump\t// in\n    tag_56:\n        /* \"calculateUtils_flat.sol\":9381:9418  return getPercentage(_bounty,_deduct) */\n      swap4\n        /* \"calculateUtils_flat.sol\":9285:9425  function getDeductMoney(uint256 _bounty,uint256 _deduct) public pure returns(uint256) {... */\n      swap3\n      pop\n      pop\n      pop\n      jump\t// out\n        /* \"calculateUtils_flat.sol\":9120:9252  function getPunish(uint256 _ratio,uint256 _bounty) public pure returns(uint256) {... */\n    tag_19:\n        /* \"calculateUtils_flat.sol\":9191:9198  uint256 */\n      0x00\n        /* \"calculateUtils_flat.sol\":9217:9245  SafeMath.div(_bounty,_ratio) */\n      tag_56\n        /* \"calculateUtils_flat.sol\":9230:9237  _bounty */\n      dup3\n        /* \"calculateUtils_flat.sol\":9238:9244  _ratio */\n      dup5\n        /* \"calculateUtils_flat.sol\":9217:9229  SafeMath.div */\n      tag_60\n        /* \"calculateUtils_flat.sol\":9217:9245  SafeMath.div(_bounty,_ratio) */\n      jump\t// in\n        /* \"calculateUtils_flat.sol\":8024:8295  function getMatNumber(uint256 _transNumber)external pure returns(uint256 ){... */\n    tag_23:\n        /* \"calculateUtils_flat.sol\":8089:8096  uint256 */\n      0x00\n        /* \"calculateUtils_flat.sol\":8108:8121  uint256 _maxV */\n      dup1\n        /* \"calculateUtils_flat.sol\":6979:6980  3 */\n      0x03\n        /* \"calculateUtils_flat.sol\":8134:8146  _transNumber */\n      dup4\n        /* \"calculateUtils_flat.sol\":8134:8152  _transNumber<=VF_N */\n      gt\n        /* \"calculateUtils_flat.sol\":8131:8267  if(_transNumber<=VF_N){... */\n      tag_62\n      jumpi\n      pop\n        /* \"calculateUtils_flat.sol\":8180:8181  1 */\n      0x01\n        /* \"calculateUtils_flat.sol\":8131:8267  if(_transNumber<=VF_N){... */\n      jump(tag_52)\n    tag_62:\n        /* \"calculateUtils_flat.sol\":8224:8256  SafeMath.div(_transNumber, VF_N) */\n      tag_56\n        /* \"calculateUtils_flat.sol\":8237:8249  _transNumber */\n      dup4\n        /* \"calculateUtils_flat.sol\":6979:6980  3 */\n      0x03\n        /* \"calculateUtils_flat.sol\":8224:8236  SafeMath.div */\n      tag_60\n        /* \"calculateUtils_flat.sol\":8224:8256  SafeMath.div(_transNumber, VF_N) */\n      jump\t// in\n        /* \"calculateUtils_flat.sol\":8932:9096  function getPercentage(uint256 _number, uint256 _ratio) pure internal returns(uint256 returnNumber) {... */\n    tag_57:\n        /* \"calculateUtils_flat.sol\":9010:9030  uint256 returnNumber */\n      0x00\n        /* \"calculateUtils_flat.sol\":9086:9089  100 */\n      0x64\n        /* \"calculateUtils_flat.sol\":9057:9085  SafeMath.mul(_number,_ratio) */\n      tag_66\n        /* \"calculateUtils_flat.sol\":9070:9077  _number */\n      dup5\n        /* \"calculateUtils_flat.sol\":9078:9084  _ratio */\n      dup5\n        /* \"calculateUtils_flat.sol\":9057:9069  SafeMath.mul */\n      tag_67\n        /* \"calculateUtils_flat.sol\":9057:9085  SafeMath.mul(_number,_ratio) */\n      jump\t// in\n    tag_66:\n        /* \"calculateUtils_flat.sol\":9057:9089  SafeMath.mul(_number,_ratio)/100 */\n      tag_56\n      swap2\n      swap1\n      tag_69\n      jump\t// in\n        /* \"calculateUtils_flat.sol\":3864:3960  function div(uint256 a, uint256 b) internal pure returns (uint256) {... */\n    tag_60:\n        /* \"calculateUtils_flat.sol\":3922:3929  uint256 */\n      0x00\n        /* \"calculateUtils_flat.sol\":3948:3953  a / b */\n      tag_56\n        /* \"calculateUtils_flat.sol\":3952:3953  b */\n      dup3\n        /* \"calculateUtils_flat.sol\":3948:3949  a */\n      dup5\n        /* \"calculateUtils_flat.sol\":3948:3953  a / b */\n      tag_69\n      jump\t// in\n        /* \"calculateUtils_flat.sol\":3479:3575  function mul(uint256 a, uint256 b) internal pure returns (uint256) {... */\n    tag_67:\n        /* \"calculateUtils_flat.sol\":3537:3544  uint256 */\n      0x00\n        /* \"calculateUtils_flat.sol\":3563:3568  a * b */\n      tag_56\n        /* \"calculateUtils_flat.sol\":3567:3568  b */\n      dup3\n        /* \"calculateUtils_flat.sol\":3563:3564  a */\n      dup5\n        /* \"calculateUtils_flat.sol\":3563:3568  a * b */\n      tag_30\n      jump\t// in\n        /* \"#utility.yul\":14:194   */\n    tag_8:\n        /* \"#utility.yul\":73:79   */\n      0x00\n        /* \"#utility.yul\":126:128   */\n      0x20\n        /* \"#utility.yul\":114:123   */\n      dup3\n        /* \"#utility.yul\":105:112   */\n      dup5\n        /* \"#utility.yul\":101:124   */\n      sub\n        /* \"#utility.yul\":97:129   */\n      slt\n        /* \"#utility.yul\":94:146   */\n      iszero\n      tag_76\n      jumpi\n        /* \"#utility.yul\":142:143   */\n      0x00\n        /* \"#utility.yul\":139:140   */\n      dup1\n        /* \"#utility.yul\":132:144   */\n      revert\n        /* \"#utility.yul\":94:146   */\n    tag_76:\n      pop\n        /* \"#utility.yul\":165:188   */\n      calldataload\n      swap2\n        /* \"#utility.yul\":14:194   */\n      swap1\n      pop\n      jump\t// out\n        /* \"#utility.yul\":389:637   */\n    tag_14:\n        /* \"#utility.yul\":457:463   */\n      0x00\n        /* \"#utility.yul\":465:471   */\n      dup1\n        /* \"#utility.yul\":518:520   */\n      0x40\n        /* \"#utility.yul\":506:515   */\n      dup4\n        /* \"#utility.yul\":497:504   */\n      dup6\n        /* \"#utility.yul\":493:516   */\n      sub\n        /* \"#utility.yul\":489:521   */\n      slt\n        /* \"#utility.yul\":486:538   */\n      iszero\n      tag_79\n      jumpi\n        /* \"#utility.yul\":534:535   */\n      0x00\n        /* \"#utility.yul\":531:532   */\n      dup1\n        /* \"#utility.yul\":524:536   */\n      revert\n        /* \"#utility.yul\":486:538   */\n    tag_79:\n      pop\n      pop\n        /* \"#utility.yul\":557:580   */\n      dup1\n      calldataload\n      swap3\n        /* \"#utility.yul\":627:629   */\n      0x20\n        /* \"#utility.yul\":612:630   */\n      swap1\n      swap2\n      add\n        /* \"#utility.yul\":599:631   */\n      calldataload\n      swap2\n      pop\n        /* \"#utility.yul\":389:637   */\n      jump\t// out\n        /* \"#utility.yul\":642:907   */\n    tag_30:\n        /* \"#utility.yul\":715:724   */\n      dup1\n      dup3\n      mul\n        /* \"#utility.yul\":746:755   */\n      dup2\n      iszero\n        /* \"#utility.yul\":763:778   */\n      dup3\n      dup3\n      div\n        /* \"#utility.yul\":757:779   */\n      dup5\n      eq\n        /* \"#utility.yul\":743:780   */\n      or\n        /* \"#utility.yul\":733:901   */\n      tag_52\n      jumpi\n        /* \"#utility.yul\":823:833   */\n      0x4e487b71\n        /* \"#utility.yul\":818:821   */\n      0xe0\n        /* \"#utility.yul\":814:834   */\n      shl\n        /* \"#utility.yul\":811:812   */\n      0x00\n        /* \"#utility.yul\":804:835   */\n      mstore\n        /* \"#utility.yul\":858:862   */\n      0x11\n        /* \"#utility.yul\":855:856   */\n      0x04\n        /* \"#utility.yul\":848:863   */\n      mstore\n        /* \"#utility.yul\":886:890   */\n      0x24\n        /* \"#utility.yul\":883:884   */\n      0x00\n        /* \"#utility.yul\":876:891   */\n      revert\n        /* \"#utility.yul\":1324:1541   */\n    tag_69:\n        /* \"#utility.yul\":1364:1365   */\n      0x00\n        /* \"#utility.yul\":1390:1391   */\n      dup3\n        /* \"#utility.yul\":1380:1512   */\n      tag_84\n      jumpi\n        /* \"#utility.yul\":1434:1444   */\n      0x4e487b71\n        /* \"#utility.yul\":1429:1432   */\n      0xe0\n        /* \"#utility.yul\":1425:1445   */\n      shl\n        /* \"#utility.yul\":1422:1423   */\n      0x00\n        /* \"#utility.yul\":1415:1446   */\n      mstore\n        /* \"#utility.yul\":1469:1473   */\n      0x12\n        /* \"#utility.yul\":1466:1467   */\n      0x04\n        /* \"#utility.yul\":1459:1474   */\n      mstore\n        /* \"#utility.yul\":1497:1501   */\n      0x24\n        /* \"#utility.yul\":1494:1495   */\n      0x00\n        /* \"#utility.yul\":1487:1502   */\n      revert\n        /* \"#utility.yul\":1380:1512   */\n    tag_84:\n      pop\n        /* \"#utility.yul\":1526:1535   */\n      div\n      swap1\n        /* \"#utility.yul\":1324:1541   */\n      jump\t// out\n\n    auxdata: 0xa26469706673582212201df7d1cc57f5f22e67019fe033b26418f9c5ee2cc3c3440434ab1841559cfe4864736f6c63430008110033\n}\n",
				"bytecode": {
					"linkReferences": {},
					"object": "61036061003a600b82828239805160001a60731461002d57634e487b7160e01b600052600060045260246000fd5b30600052607381538281f3fe73000000000000000000000000000000000000000030146080604052600436106100565760003560e01c80634f6ca3ce1461005b5780638f861ba7146100805780639ce5c4bf14610093578063f2e60202146100a6575b600080fd5b61006e6100693660046102a8565b6100b9565b60405190815260200160405180910390f35b61006e61008e3660046102c1565b61023b565b61006e6100a13660046102c1565b61024e565b61006e6100b43660046102a8565b61025a565b6000806101118310156100ce57506001610235565b61011183101580156100eb57506100e8610111600a6102e3565b83105b156100f85750600a610235565b610105610111600a6102e3565b831015801561011f575061011c61011160646102e3565b83105b1561012c57506064610235565b61013961011160646102e3565b831015801561015457506101516101116103e86102e3565b83105b1561016257506103e8610235565b6101706101116103e86102e3565b831015801561018c57506101886101116127106102e3565b8311155b1561019a5750612710610235565b6101a86101116127106102e3565b83101580156101c557506101c1610111620186a06102e3565b8311155b156101d45750620186a0610235565b60405163347626dd60e21b815260206004820152602b60248201527f556e61626c6520746f2063616c63756c6174652c506c65617365207375626d6960448201526a1d0818481c995c5d595cdd60aa1b606482015260840160405180910390fd5b92915050565b60006102478383610278565b9392505050565b60006102478284610290565b6000806003831161026d57506001610235565b610247836003610290565b60006064610286848461029c565b6102479190610308565b60006102478284610308565b600061024782846102e3565b6000602082840312156102ba57600080fd5b5035919050565b600080604083850312156102d457600080fd5b50508035926020909101359150565b808202811582820484141761023557634e487b7160e01b600052601160045260246000fd5b60008261032557634e487b7160e01b600052601260045260246000fd5b50049056fea26469706673582212201df7d1cc57f5f22e67019fe033b26418f9c5ee2cc3c3440434ab1841559cfe4864736f6c63430008110033",
					"opcodes": "PUSH2 0x360 PUSH2 0x3A PUSH1 0xB DUP3 DUP3 DUP3 CODECOPY DUP1 MLOAD PUSH1 0x0 BYTE PUSH1 0x73 EQ PUSH2 0x2D JUMPI PUSH4 0x4E487B71 PUSH1 0xE0 SHL PUSH1 0x0 MSTORE PUSH1 0x0 PUSH1 0x4 MSTORE PUSH1 0x24 PUSH1 0x0 REVERT JUMPDEST ADDRESS PUSH1 0x0 MSTORE PUSH1 0x73 DUP2 MSTORE8 DUP3 DUP2 RETURN INVALID PUSH20 0x0 ADDRESS EQ PUSH1 0x80 PUSH1 0x40 MSTORE PUSH1 0x4 CALLDATASIZE LT PUSH2 0x56 JUMPI PUSH1 0x0 CALLDATALOAD PUSH1 0xE0 SHR DUP1 PUSH4 0x4F6CA3CE EQ PUSH2 0x5B JUMPI DUP1 PUSH4 0x8F861BA7 EQ PUSH2 0x80 JUMPI DUP1 PUSH4 0x9CE5C4BF EQ PUSH2 0x93 JUMPI DUP1 PUSH4 0xF2E60202 EQ PUSH2 0xA6 JUMPI JUMPDEST PUSH1 0x0 DUP1 REVERT JUMPDEST PUSH2 0x6E PUSH2 0x69 CALLDATASIZE PUSH1 0x4 PUSH2 0x2A8 JUMP JUMPDEST PUSH2 0xB9 JUMP JUMPDEST PUSH1 0x40 MLOAD SWAP1 DUP2 MSTORE PUSH1 0x20 ADD PUSH1 0x40 MLOAD DUP1 SWAP2 SUB SWAP1 RETURN JUMPDEST PUSH2 0x6E PUSH2 0x8E CALLDATASIZE PUSH1 0x4 PUSH2 0x2C1 JUMP JUMPDEST PUSH2 0x23B JUMP JUMPDEST PUSH2 0x6E PUSH2 0xA1 CALLDATASIZE PUSH1 0x4 PUSH2 0x2C1 JUMP JUMPDEST PUSH2 0x24E JUMP JUMPDEST PUSH2 0x6E PUSH2 0xB4 CALLDATASIZE PUSH1 0x4 PUSH2 0x2A8 JUMP JUMPDEST PUSH2 0x25A JUMP JUMPDEST PUSH1 0x0 DUP1 PUSH2 0x111 DUP4 LT ISZERO PUSH2 0xCE JUMPI POP PUSH1 0x1 PUSH2 0x235 JUMP JUMPDEST PUSH2 0x111 DUP4 LT ISZERO DUP1 ISZERO PUSH2 0xEB JUMPI POP PUSH2 0xE8 PUSH2 0x111 PUSH1 0xA PUSH2 0x2E3 JUMP JUMPDEST DUP4 LT JUMPDEST ISZERO PUSH2 0xF8 JUMPI POP PUSH1 0xA PUSH2 0x235 JUMP JUMPDEST PUSH2 0x105 PUSH2 0x111 PUSH1 0xA PUSH2 0x2E3 JUMP JUMPDEST DUP4 LT ISZERO DUP1 ISZERO PUSH2 0x11F JUMPI POP PUSH2 0x11C PUSH2 0x111 PUSH1 0x64 PUSH2 0x2E3 JUMP JUMPDEST DUP4 LT JUMPDEST ISZERO PUSH2 0x12C JUMPI POP PUSH1 0x64 PUSH2 0x235 JUMP JUMPDEST PUSH2 0x139 PUSH2 0x111 PUSH1 0x64 PUSH2 0x2E3 JUMP JUMPDEST DUP4 LT ISZERO DUP1 ISZERO PUSH2 0x154 JUMPI POP PUSH2 0x151 PUSH2 0x111 PUSH2 0x3E8 PUSH2 0x2E3 JUMP JUMPDEST DUP4 LT JUMPDEST ISZERO PUSH2 0x162 JUMPI POP PUSH2 0x3E8 PUSH2 0x235 JUMP JUMPDEST PUSH2 0x170 PUSH2 0x111 PUSH2 0x3E8 PUSH2 0x2E3 JUMP JUMPDEST DUP4 LT ISZERO DUP1 ISZERO PUSH2 0x18C JUMPI POP PUSH2 0x188 PUSH2 0x111 PUSH2 0x2710 PUSH2 0x2E3 JUMP JUMPDEST DUP4 GT ISZERO JUMPDEST ISZERO PUSH2 0x19A JUMPI POP PUSH2 0x2710 PUSH2 0x235 JUMP JUMPDEST PUSH2 0x1A8 PUSH2 0x111 PUSH2 0x2710 PUSH2 0x2E3 JUMP JUMPDEST DUP4 LT ISZERO DUP1 ISZERO PUSH2 0x1C5 JUMPI POP PUSH2 0x1C1 PUSH2 0x111 PUSH3 0x186A0 PUSH2 0x2E3 JUMP JUMPDEST DUP4 GT ISZERO JUMPDEST ISZERO PUSH2 0x1D4 JUMPI POP PUSH3 0x186A0 PUSH2 0x235 JUMP JUMPDEST PUSH1 0x40 MLOAD PUSH4 0x347626DD PUSH1 0xE2 SHL DUP2 MSTORE PUSH1 0x20 PUSH1 0x4 DUP3 ADD MSTORE PUSH1 0x2B PUSH1 0x24 DUP3 ADD MSTORE PUSH32 0x556E61626C6520746F2063616C63756C6174652C506C65617365207375626D69 PUSH1 0x44 DUP3 ADD MSTORE PUSH11 0x1D0818481C995C5D595CDD PUSH1 0xAA SHL PUSH1 0x64 DUP3 ADD MSTORE PUSH1 0x84 ADD PUSH1 0x40 MLOAD DUP1 SWAP2 SUB SWAP1 REVERT JUMPDEST SWAP3 SWAP2 POP POP JUMP JUMPDEST PUSH1 0x0 PUSH2 0x247 DUP4 DUP4 PUSH2 0x278 JUMP JUMPDEST SWAP4 SWAP3 POP POP POP JUMP JUMPDEST PUSH1 0x0 PUSH2 0x247 DUP3 DUP5 PUSH2 0x290 JUMP JUMPDEST PUSH1 0x0 DUP1 PUSH1 0x3 DUP4 GT PUSH2 0x26D JUMPI POP PUSH1 0x1 PUSH2 0x235 JUMP JUMPDEST PUSH2 0x247 DUP4 PUSH1 0x3 PUSH2 0x290 JUMP JUMPDEST PUSH1 0x0 PUSH1 0x64 PUSH2 0x286 DUP5 DUP5 PUSH2 0x29C JUMP JUMPDEST PUSH2 0x247 SWAP2 SWAP1 PUSH2 0x308 JUMP JUMPDEST PUSH1 0x0 PUSH2 0x247 DUP3 DUP5 PUSH2 0x308 JUMP JUMPDEST PUSH1 0x0 PUSH2 0x247 DUP3 DUP5 PUSH2 0x2E3 JUMP JUMPDEST PUSH1 0x0 PUSH1 0x20 DUP3 DUP5 SUB SLT ISZERO PUSH2 0x2BA JUMPI PUSH1 0x0 DUP1 REVERT JUMPDEST POP CALLDATALOAD SWAP2 SWAP1 POP JUMP JUMPDEST PUSH1 0x0 DUP1 PUSH1 0x40 DUP4 DUP6 SUB SLT ISZERO PUSH2 0x2D4 JUMPI PUSH1 0x0 DUP1 REVERT JUMPDEST POP POP DUP1 CALLDATALOAD SWAP3 PUSH1 0x20 SWAP1 SWAP2 ADD CALLDATALOAD SWAP2 POP JUMP JUMPDEST DUP1 DUP3 MUL DUP2 ISZERO DUP3 DUP3 DIV DUP5 EQ OR PUSH2 0x235 JUMPI PUSH4 0x4E487B71 PUSH1 0xE0 SHL PUSH1 0x0 MSTORE PUSH1 0x11 PUSH1 0x4 MSTORE PUSH1 0x24 PUSH1 0x0 REVERT JUMPDEST PUSH1 0x0 DUP3 PUSH2 0x325 JUMPI PUSH4 0x4E487B71 PUSH1 0xE0 SHL PUSH1 0x0 MSTORE PUSH1 0x12 PUSH1 0x4 MSTORE PUSH1 0x24 PUSH1 0x0 REVERT JUMPDEST POP DIV SWAP1 JUMP INVALID LOG2 PUSH5 0x6970667358 0x22 SLT KECCAK256 SAR 0xF7 0xD1 0xCC JUMPI CREATE2 CALLCODE 0x2E PUSH8 0x19FE033B26418F9 0xC5 0xEE 0x2C 0xC3 0xC3 DIFFICULTY DIV CALLVALUE 0xAB XOR COINBASE SSTORE SWAP13 INVALID BASEFEE PUSH5 0x736F6C6343 STOP ADDMOD GT STOP CALLER "
				},
				"gasEstimates": {
					"creation": {
						"codeDepositCost": "172800",
						"executionCost": "248",
						"totalCost": "173048"
					},
					"external": {
						"getDeductMoney(uint256,uint256)": "infinite",
						"getMatNumber(uint256)": "infinite",
						"getPunish(uint256,uint256)": "infinite",
						"punishRatio(uint256)": "infinite"
					},
					"internal": {
						"getPercentage(uint256,uint256)": "infinite",
						"getTaskTrans(uint256)": "infinite",
						"getTaskTransEnd(uint256)": "infinite",
						"getTaskTransFirst(uint256)": "infinite",
						"getTaskVf(uint256)": "infinite"
					}
				},
				"methodIdentifiers": {
					"getDeductMoney(uint256,uint256)": "8f861ba7",
					"getMatNumber(uint256)": "f2e60202",
					"getPunish(uint256,uint256)": "9ce5c4bf",
					"punishRatio(uint256)": "4f6ca3ce"
				}
			},
			"storageLayout": {
				"storage": [],
				"types": null
			},
			"userdoc": {
				"kind": "user",
				"methods": {},
				"version": 1
			}
		}
	}
}