{
	"AmphiTrans.sol": {
		"AmphiTrans": {
			"abi": [
				{
					"inputs": [
						{
							"internalType": "string",
							"name": "",
							"type": "string"
						}
					],
					"name": "AccessError",
					"type": "error"
				},
				{
					"anonymous": false,
					"inputs": [
						{
							"indexed": true,
							"internalType": "address",
							"name": "previousOwner",
							"type": "address"
						},
						{
							"indexed": true,
							"internalType": "address",
							"name": "newOwner",
							"type": "address"
						}
					],
					"name": "OwnershipTransferred",
					"type": "event"
				},
				{
					"inputs": [],
					"name": "addCount",
					"outputs": [],
					"stateMutability": "nonpayable",
					"type": "function"
				},
				{
					"inputs": [
						{
							"internalType": "address",
							"name": "_tasker",
							"type": "address"
						},
						{
							"internalType": "uint256",
							"name": "_money",
							"type": "uint256"
						}
					],
					"name": "addPay",
					"outputs": [],
					"stateMutability": "nonpayable",
					"type": "function"
				},
				{
					"inputs": [
						{
							"components": [
								{
									"internalType": "uint256",
									"name": "releaseTime",
									"type": "uint256"
								},
								{
									"internalType": "string",
									"name": "introduce",
									"type": "string"
								},
								{
									"internalType": "string",
									"name": "need",
									"type": "string"
								},
								{
									"internalType": "uint256",
									"name": "deadline",
									"type": "uint256"
								},
								{
									"internalType": "uint256",
									"name": "sourceLanguage",
									"type": "uint256"
								},
								{
									"internalType": "uint256",
									"name": "goalLanguage",
									"type": "uint256"
								},
								{
									"internalType": "uint256[]",
									"name": "preferList",
									"type": "uint256[]"
								},
								{
									"internalType": "uint256",
									"name": "translationType",
									"type": "uint256"
								},
								{
									"internalType": "uint256",
									"name": "workLoad",
									"type": "uint256"
								},
								{
									"internalType": "bool",
									"name": "isNonDisclosure",
									"type": "bool"
								},
								{
									"internalType": "bool",
									"name": "isCustomize",
									"type": "bool"
								},
								{
									"internalType": "uint256",
									"name": "bounty",
									"type": "uint256"
								},
								{
									"components": [
										{
											"components": [
												{
													"internalType": "string",
													"name": "name",
													"type": "string"
												},
												{
													"internalType": "uint256",
													"name": "size",
													"type": "uint256"
												},
												{
													"internalType": "uint256",
													"name": "videoLength",
													"type": "uint256"
												},
												{
													"internalType": "uint256",
													"name": "Page",
													"type": "uint256"
												},
												{
													"internalType": "uint256",
													"name": "words",
													"type": "uint256"
												},
												{
													"internalType": "uint256",
													"name": "fileType",
													"type": "uint256"
												},
												{
													"internalType": "string",
													"name": "path",
													"type": "string"
												}
											],
											"internalType": "struct LibProject.FileInfo",
											"name": "file",
											"type": "tuple"
										},
										{
											"internalType": "uint256",
											"name": "bounty",
											"type": "uint256"
										},
										{
											"internalType": "string",
											"name": "info",
											"type": "string"
										},
										{
											"internalType": "enum LibProject.FileState",
											"name": "state",
											"type": "uint8"
										},
										{
											"internalType": "uint256",
											"name": "lastUpload",
											"type": "uint256"
										}
									],
									"internalType": "struct LibProject.TaskInfo[]",
									"name": "tasks",
									"type": "tuple[]"
								}
							],
							"internalType": "struct LibProject.ProParm",
							"name": "_t",
							"type": "tuple"
						},
						{
							"internalType": "address",
							"name": "_buyer",
							"type": "address"
						}
					],
					"name": "addProject",
					"outputs": [
						{
							"internalType": "uint256",
							"name": "",
							"type": "uint256"
						}
					],
					"stateMutability": "nonpayable",
					"type": "function"
				},
				{
					"inputs": [
						{
							"internalType": "uint256",
							"name": "_index",
							"type": "uint256"
						},
						{
							"internalType": "uint256",
							"name": "_number",
							"type": "uint256"
						}
					],
					"name": "addTransNumber",
					"outputs": [],
					"stateMutability": "nonpayable",
					"type": "function"
				},
				{
					"inputs": [
						{
							"internalType": "uint256",
							"name": "_index",
							"type": "uint256"
						},
						{
							"internalType": "address",
							"name": "_address",
							"type": "address"
						},
						{
							"internalType": "uint256",
							"name": "_number",
							"type": "uint256"
						}
					],
					"name": "addTransWaitNumber",
					"outputs": [],
					"stateMutability": "nonpayable",
					"type": "function"
				},
				{
					"inputs": [
						{
							"internalType": "uint256",
							"name": "_index",
							"type": "uint256"
						},
						{
							"internalType": "address",
							"name": "_address",
							"type": "address"
						}
					],
					"name": "addTranslators",
					"outputs": [],
					"stateMutability": "nonpayable",
					"type": "function"
				},
				{
					"inputs": [
						{
							"internalType": "uint256",
							"name": "_index",
							"type": "uint256"
						},
						{
							"internalType": "address",
							"name": "_address",
							"type": "address"
						}
					],
					"name": "addVf",
					"outputs": [],
					"stateMutability": "nonpayable",
					"type": "function"
				},
				{
					"inputs": [
						{
							"internalType": "uint256",
							"name": "_index",
							"type": "uint256"
						},
						{
							"internalType": "uint256",
							"name": "_number",
							"type": "uint256"
						}
					],
					"name": "addVfNumber",
					"outputs": [],
					"stateMutability": "nonpayable",
					"type": "function"
				},
				{
					"inputs": [
						{
							"internalType": "uint256",
							"name": "_index",
							"type": "uint256"
						},
						{
							"internalType": "address",
							"name": "_address",
							"type": "address"
						},
						{
							"internalType": "uint256",
							"name": "_number",
							"type": "uint256"
						}
					],
					"name": "addVfWaitNumber",
					"outputs": [],
					"stateMutability": "nonpayable",
					"type": "function"
				},
				{
					"inputs": [
						{
							"internalType": "uint256",
							"name": "_index",
							"type": "uint256"
						},
						{
							"internalType": "uint256",
							"name": "_fileIndex",
							"type": "uint256"
						},
						{
							"internalType": "enum LibProject.FileState",
							"name": "_state",
							"type": "uint8"
						}
					],
					"name": "changeFileState",
					"outputs": [],
					"stateMutability": "nonpayable",
					"type": "function"
				},
				{
					"inputs": [
						{
							"internalType": "uint256",
							"name": "_index",
							"type": "uint256"
						},
						{
							"internalType": "enum LibProject.ProjectState",
							"name": "_state",
							"type": "uint8"
						}
					],
					"name": "changeProjectState",
					"outputs": [],
					"stateMutability": "nonpayable",
					"type": "function"
				},
				{
					"inputs": [
						{
							"internalType": "uint256",
							"name": "_index",
							"type": "uint256"
						},
						{
							"internalType": "address",
							"name": "_taskerIndex",
							"type": "address"
						},
						{
							"internalType": "uint256",
							"name": "_fileIndex",
							"type": "uint256"
						},
						{
							"internalType": "enum LibProject.TaskerState",
							"name": "_state",
							"type": "uint8"
						}
					],
					"name": "changeTaskTransState",
					"outputs": [],
					"stateMutability": "nonpayable",
					"type": "function"
				},
				{
					"inputs": [
						{
							"internalType": "uint256",
							"name": "_index",
							"type": "uint256"
						},
						{
							"internalType": "address",
							"name": "_taskerIndex",
							"type": "address"
						},
						{
							"internalType": "uint256",
							"name": "_fileIndex",
							"type": "uint256"
						},
						{
							"internalType": "enum LibProject.TaskerState",
							"name": "_state",
							"type": "uint8"
						}
					],
					"name": "changeTaskVfState",
					"outputs": [],
					"stateMutability": "nonpayable",
					"type": "function"
				},
				{
					"inputs": [
						{
							"internalType": "uint256",
							"name": "_index",
							"type": "uint256"
						},
						{
							"internalType": "bool",
							"name": "_bool",
							"type": "bool"
						}
					],
					"name": "changeTransActive",
					"outputs": [],
					"stateMutability": "nonpayable",
					"type": "function"
				},
				{
					"inputs": [
						{
							"internalType": "uint256",
							"name": "_index",
							"type": "uint256"
						},
						{
							"internalType": "bool",
							"name": "_bool",
							"type": "bool"
						}
					],
					"name": "changeVerActive",
					"outputs": [],
					"stateMutability": "nonpayable",
					"type": "function"
				},
				{
					"inputs": [
						{
							"internalType": "uint256",
							"name": "_index",
							"type": "uint256"
						},
						{
							"internalType": "address",
							"name": "_address",
							"type": "address"
						}
					],
					"name": "decutTransWaitNumber",
					"outputs": [],
					"stateMutability": "nonpayable",
					"type": "function"
				},
				{
					"inputs": [
						{
							"internalType": "uint256",
							"name": "_index",
							"type": "uint256"
						},
						{
							"internalType": "address",
							"name": "_address",
							"type": "address"
						}
					],
					"name": "decutVfWaitNumber",
					"outputs": [],
					"stateMutability": "nonpayable",
					"type": "function"
				},
				{
					"inputs": [
						{
							"internalType": "address",
							"name": "_tasker",
							"type": "address"
						},
						{
							"internalType": "uint256",
							"name": "_money",
							"type": "uint256"
						}
					],
					"name": "deductPay",
					"outputs": [],
					"stateMutability": "nonpayable",
					"type": "function"
				},
				{
					"inputs": [
						{
							"internalType": "uint256",
							"name": "_index",
							"type": "uint256"
						},
						{
							"internalType": "address",
							"name": "_taskerIndex",
							"type": "address"
						}
					],
					"name": "getAcceptTransNumber",
					"outputs": [
						{
							"internalType": "uint256",
							"name": "",
							"type": "uint256"
						}
					],
					"stateMutability": "view",
					"type": "function"
				},
				{
					"inputs": [
						{
							"internalType": "uint256",
							"name": "_index",
							"type": "uint256"
						},
						{
							"internalType": "address",
							"name": "_taskerIndex",
							"type": "address"
						}
					],
					"name": "getAcceptVfNumber",
					"outputs": [
						{
							"internalType": "uint256",
							"name": "",
							"type": "uint256"
						}
					],
					"stateMutability": "view",
					"type": "function"
				},
				{
					"inputs": [
						{
							"internalType": "uint256",
							"name": "_index",
							"type": "uint256"
						}
					],
					"name": "getBuyer",
					"outputs": [
						{
							"internalType": "address",
							"name": "",
							"type": "address"
						}
					],
					"stateMutability": "view",
					"type": "function"
				},
				{
					"inputs": [],
					"name": "getCount",
					"outputs": [
						{
							"internalType": "uint256",
							"name": "",
							"type": "uint256"
						}
					],
					"stateMutability": "view",
					"type": "function"
				},
				{
					"inputs": [
						{
							"internalType": "uint256",
							"name": "_index",
							"type": "uint256"
						},
						{
							"internalType": "uint256",
							"name": "_fileIndex",
							"type": "uint256"
						}
					],
					"name": "getFileBounty",
					"outputs": [
						{
							"internalType": "uint256",
							"name": "",
							"type": "uint256"
						}
					],
					"stateMutability": "view",
					"type": "function"
				},
				{
					"inputs": [
						{
							"internalType": "uint256",
							"name": "_index",
							"type": "uint256"
						},
						{
							"internalType": "uint256",
							"name": "_fileIndex",
							"type": "uint256"
						}
					],
					"name": "getFileState",
					"outputs": [
						{
							"internalType": "enum LibProject.FileState",
							"name": "",
							"type": "uint8"
						}
					],
					"stateMutability": "view",
					"type": "function"
				},
				{
					"inputs": [
						{
							"internalType": "uint256",
							"name": "_index",
							"type": "uint256"
						}
					],
					"name": "getFiles",
					"outputs": [
						{
							"components": [
								{
									"components": [
										{
											"internalType": "string",
											"name": "name",
											"type": "string"
										},
										{
											"internalType": "uint256",
											"name": "size",
											"type": "uint256"
										},
										{
											"internalType": "uint256",
											"name": "videoLength",
											"type": "uint256"
										},
										{
											"internalType": "uint256",
											"name": "Page",
											"type": "uint256"
										},
										{
											"internalType": "uint256",
											"name": "words",
											"type": "uint256"
										},
										{
											"internalType": "uint256",
											"name": "fileType",
											"type": "uint256"
										},
										{
											"internalType": "string",
											"name": "path",
											"type": "string"
										}
									],
									"internalType": "struct LibProject.FileInfo",
									"name": "file",
									"type": "tuple"
								},
								{
									"internalType": "uint256",
									"name": "bounty",
									"type": "uint256"
								},
								{
									"internalType": "string",
									"name": "info",
									"type": "string"
								},
								{
									"internalType": "enum LibProject.FileState",
									"name": "state",
									"type": "uint8"
								},
								{
									"internalType": "uint256",
									"name": "lastUpload",
									"type": "uint256"
								}
							],
							"internalType": "struct LibProject.TaskInfo[]",
							"name": "",
							"type": "tuple[]"
						}
					],
					"stateMutability": "view",
					"type": "function"
				},
				{
					"inputs": [
						{
							"internalType": "address",
							"name": "_tasker",
							"type": "address"
						}
					],
					"name": "getPay",
					"outputs": [
						{
							"internalType": "uint256",
							"name": "",
							"type": "uint256"
						}
					],
					"stateMutability": "view",
					"type": "function"
				},
				{
					"inputs": [
						{
							"internalType": "uint256",
							"name": "_index",
							"type": "uint256"
						}
					],
					"name": "getProjectOne",
					"outputs": [
						{
							"components": [
								{
									"internalType": "address",
									"name": "buyer",
									"type": "address"
								},
								{
									"internalType": "uint256",
									"name": "releaseTime",
									"type": "uint256"
								},
								{
									"internalType": "string",
									"name": "introduce",
									"type": "string"
								},
								{
									"internalType": "string",
									"name": "need",
									"type": "string"
								},
								{
									"internalType": "uint256",
									"name": "deadline",
									"type": "uint256"
								},
								{
									"internalType": "uint256",
									"name": "sourceLanguage",
									"type": "uint256"
								},
								{
									"internalType": "uint256",
									"name": "goalLanguage",
									"type": "uint256"
								},
								{
									"internalType": "uint256[]",
									"name": "preferList",
									"type": "uint256[]"
								},
								{
									"internalType": "uint256",
									"name": "translationType",
									"type": "uint256"
								},
								{
									"internalType": "uint256",
									"name": "workLoad",
									"type": "uint256"
								},
								{
									"internalType": "bool",
									"name": "isNonDisclosure",
									"type": "bool"
								},
								{
									"internalType": "bool",
									"name": "isCustomize",
									"type": "bool"
								},
								{
									"internalType": "uint256",
									"name": "bounty",
									"type": "uint256"
								},
								{
									"components": [
										{
											"components": [
												{
													"internalType": "string",
													"name": "name",
													"type": "string"
												},
												{
													"internalType": "uint256",
													"name": "size",
													"type": "uint256"
												},
												{
													"internalType": "uint256",
													"name": "videoLength",
													"type": "uint256"
												},
												{
													"internalType": "uint256",
													"name": "Page",
													"type": "uint256"
												},
												{
													"internalType": "uint256",
													"name": "words",
													"type": "uint256"
												},
												{
													"internalType": "uint256",
													"name": "fileType",
													"type": "uint256"
												},
												{
													"internalType": "string",
													"name": "path",
													"type": "string"
												}
											],
											"internalType": "struct LibProject.FileInfo",
											"name": "file",
											"type": "tuple"
										},
										{
											"internalType": "uint256",
											"name": "bounty",
											"type": "uint256"
										},
										{
											"internalType": "string",
											"name": "info",
											"type": "string"
										},
										{
											"internalType": "enum LibProject.FileState",
											"name": "state",
											"type": "uint8"
										},
										{
											"internalType": "uint256",
											"name": "lastUpload",
											"type": "uint256"
										}
									],
									"internalType": "struct LibProject.TaskInfo[]",
									"name": "tasks",
									"type": "tuple[]"
								},
								{
									"internalType": "address[]",
									"name": "translators",
									"type": "address[]"
								},
								{
									"internalType": "address[]",
									"name": "verifiers",
									"type": "address[]"
								},
								{
									"internalType": "uint256",
									"name": "maxT",
									"type": "uint256"
								},
								{
									"internalType": "uint256",
									"name": "maxV",
									"type": "uint256"
								},
								{
									"internalType": "uint256",
									"name": "numberT",
									"type": "uint256"
								},
								{
									"internalType": "uint256",
									"name": "numberV",
									"type": "uint256"
								},
								{
									"internalType": "bool",
									"name": "isTransActive",
									"type": "bool"
								},
								{
									"internalType": "bool",
									"name": "isVerActive",
									"type": "bool"
								},
								{
									"internalType": "enum LibProject.ProjectState",
									"name": "state",
									"type": "uint8"
								}
							],
							"internalType": "struct LibProject.TranslationPro",
							"name": "",
							"type": "tuple"
						}
					],
					"stateMutability": "view",
					"type": "function"
				},
				{
					"inputs": [
						{
							"internalType": "uint256",
							"name": "_index",
							"type": "uint256"
						}
					],
					"name": "getTaskBounty",
					"outputs": [
						{
							"internalType": "uint256",
							"name": "",
							"type": "uint256"
						}
					],
					"stateMutability": "view",
					"type": "function"
				},
				{
					"inputs": [
						{
							"internalType": "uint256",
							"name": "_index",
							"type": "uint256"
						}
					],
					"name": "getTaskState",
					"outputs": [
						{
							"internalType": "enum LibProject.ProjectState",
							"name": "",
							"type": "uint8"
						}
					],
					"stateMutability": "view",
					"type": "function"
				},
				{
					"inputs": [
						{
							"internalType": "uint256",
							"name": "_index",
							"type": "uint256"
						}
					],
					"name": "getTaskStateTrans",
					"outputs": [
						{
							"internalType": "bool",
							"name": "",
							"type": "bool"
						}
					],
					"stateMutability": "view",
					"type": "function"
				},
				{
					"inputs": [
						{
							"internalType": "uint256",
							"name": "_index",
							"type": "uint256"
						}
					],
					"name": "getTaskStateVf",
					"outputs": [
						{
							"internalType": "bool",
							"name": "",
							"type": "bool"
						}
					],
					"stateMutability": "view",
					"type": "function"
				},
				{
					"inputs": [
						{
							"internalType": "uint256",
							"name": "_index",
							"type": "uint256"
						}
					],
					"name": "getTransNumber",
					"outputs": [
						{
							"internalType": "uint256",
							"name": "",
							"type": "uint256"
						}
					],
					"stateMutability": "view",
					"type": "function"
				},
				{
					"inputs": [
						{
							"internalType": "uint256",
							"name": "_index",
							"type": "uint256"
						},
						{
							"internalType": "address",
							"name": "_address",
							"type": "address"
						}
					],
					"name": "getTransTaskInfo",
					"outputs": [
						{
							"components": [
								{
									"internalType": "address",
									"name": "taskerAddress",
									"type": "address"
								},
								{
									"internalType": "uint256[]",
									"name": "taskIndex",
									"type": "uint256[]"
								},
								{
									"components": [
										{
											"internalType": "enum LibProject.TaskerState",
											"name": "state",
											"type": "uint8"
										},
										{
											"internalType": "string",
											"name": "file",
											"type": "string"
										},
										{
											"internalType": "bool",
											"name": "isUsed",
											"type": "bool"
										}
									],
									"internalType": "struct LibProject.FileIndexInfo[]",
									"name": "taskerinfo",
									"type": "tuple[]"
								}
							],
							"internalType": "struct LibProject.ReturnTasker",
							"name": "",
							"type": "tuple"
						}
					],
					"stateMutability": "view",
					"type": "function"
				},
				{
					"inputs": [
						{
							"internalType": "uint256",
							"name": "_index",
							"type": "uint256"
						},
						{
							"internalType": "address",
							"name": "_taskerIndex",
							"type": "address"
						}
					],
					"name": "getTransWaitNumber",
					"outputs": [
						{
							"internalType": "uint256",
							"name": "",
							"type": "uint256"
						}
					],
					"stateMutability": "view",
					"type": "function"
				},
				{
					"inputs": [
						{
							"internalType": "uint256",
							"name": "_index",
							"type": "uint256"
						}
					],
					"name": "getTranslationType",
					"outputs": [
						{
							"internalType": "uint256",
							"name": "",
							"type": "uint256"
						}
					],
					"stateMutability": "view",
					"type": "function"
				},
				{
					"inputs": [
						{
							"internalType": "uint256",
							"name": "_index",
							"type": "uint256"
						}
					],
					"name": "getTranslatorsList",
					"outputs": [
						{
							"internalType": "address[]",
							"name": "",
							"type": "address[]"
						}
					],
					"stateMutability": "view",
					"type": "function"
				},
				{
					"inputs": [
						{
							"internalType": "uint256",
							"name": "_index",
							"type": "uint256"
						}
					],
					"name": "getVfList",
					"outputs": [
						{
							"internalType": "address[]",
							"name": "",
							"type": "address[]"
						}
					],
					"stateMutability": "view",
					"type": "function"
				},
				{
					"inputs": [
						{
							"internalType": "uint256",
							"name": "_index",
							"type": "uint256"
						}
					],
					"name": "getVfNumber",
					"outputs": [
						{
							"internalType": "uint256",
							"name": "",
							"type": "uint256"
						}
					],
					"stateMutability": "view",
					"type": "function"
				},
				{
					"inputs": [
						{
							"internalType": "uint256",
							"name": "_index",
							"type": "uint256"
						},
						{
							"internalType": "address",
							"name": "_address",
							"type": "address"
						}
					],
					"name": "getVfTaskInfo",
					"outputs": [
						{
							"components": [
								{
									"internalType": "address",
									"name": "taskerAddress",
									"type": "address"
								},
								{
									"internalType": "uint256[]",
									"name": "taskIndex",
									"type": "uint256[]"
								},
								{
									"components": [
										{
											"internalType": "enum LibProject.TaskerState",
											"name": "state",
											"type": "uint8"
										},
										{
											"internalType": "string",
											"name": "file",
											"type": "string"
										},
										{
											"internalType": "bool",
											"name": "isUsed",
											"type": "bool"
										}
									],
									"internalType": "struct LibProject.FileIndexInfo[]",
									"name": "taskerinfo",
									"type": "tuple[]"
								}
							],
							"internalType": "struct LibProject.ReturnTasker",
							"name": "",
							"type": "tuple"
						}
					],
					"stateMutability": "view",
					"type": "function"
				},
				{
					"inputs": [
						{
							"internalType": "uint256",
							"name": "_index",
							"type": "uint256"
						},
						{
							"internalType": "address",
							"name": "_taskerIndex",
							"type": "address"
						}
					],
					"name": "getVfWaitNumber",
					"outputs": [
						{
							"internalType": "uint256",
							"name": "",
							"type": "uint256"
						}
					],
					"stateMutability": "view",
					"type": "function"
				},
				{
					"inputs": [
						{
							"internalType": "address",
							"name": "_address",
							"type": "address"
						},
						{
							"internalType": "uint256",
							"name": "_index",
							"type": "uint256"
						},
						{
							"internalType": "uint256",
							"name": "_fileIndex",
							"type": "uint256"
						}
					],
					"name": "isAccept",
					"outputs": [
						{
							"internalType": "bool",
							"name": "",
							"type": "bool"
						}
					],
					"stateMutability": "view",
					"type": "function"
				},
				{
					"inputs": [
						{
							"internalType": "uint256",
							"name": "_index",
							"type": "uint256"
						}
					],
					"name": "isCustomizeState",
					"outputs": [
						{
							"internalType": "bool",
							"name": "",
							"type": "bool"
						}
					],
					"stateMutability": "view",
					"type": "function"
				},
				{
					"inputs": [
						{
							"internalType": "uint256",
							"name": "_index",
							"type": "uint256"
						},
						{
							"internalType": "bool",
							"name": "_isTrans",
							"type": "bool"
						}
					],
					"name": "isFull",
					"outputs": [
						{
							"internalType": "bool",
							"name": "",
							"type": "bool"
						}
					],
					"stateMutability": "view",
					"type": "function"
				},
				{
					"inputs": [
						{
							"internalType": "uint256",
							"name": "_index",
							"type": "uint256"
						},
						{
							"internalType": "uint256",
							"name": "_fileIndex",
							"type": "uint256"
						},
						{
							"internalType": "address",
							"name": "_address",
							"type": "address"
						}
					],
					"name": "isUsedToTrans",
					"outputs": [],
					"stateMutability": "nonpayable",
					"type": "function"
				},
				{
					"inputs": [
						{
							"internalType": "uint256",
							"name": "_index",
							"type": "uint256"
						},
						{
							"internalType": "uint256",
							"name": "_fileIndex",
							"type": "uint256"
						},
						{
							"internalType": "address",
							"name": "_address",
							"type": "address"
						}
					],
					"name": "isUsedToVf",
					"outputs": [],
					"stateMutability": "nonpayable",
					"type": "function"
				},
				{
					"inputs": [
						{
							"internalType": "uint256",
							"name": "_index",
							"type": "uint256"
						},
						{
							"internalType": "address",
							"name": "_taskerIndex",
							"type": "address"
						},
						{
							"internalType": "bool",
							"name": "_isTrans",
							"type": "bool"
						}
					],
					"name": "overTimeTasker",
					"outputs": [
						{
							"internalType": "uint256[]",
							"name": "",
							"type": "uint256[]"
						},
						{
							"internalType": "uint256",
							"name": "",
							"type": "uint256"
						}
					],
					"stateMutability": "view",
					"type": "function"
				},
				{
					"inputs": [],
					"name": "owner",
					"outputs": [
						{
							"internalType": "address",
							"name": "",
							"type": "address"
						}
					],
					"stateMutability": "view",
					"type": "function"
				},
				{
					"inputs": [
						{
							"internalType": "uint256",
							"name": "_index",
							"type": "uint256"
						},
						{
							"internalType": "address",
							"name": "_taskerIndex",
							"type": "address"
						},
						{
							"internalType": "uint256",
							"name": "_fileIndex",
							"type": "uint256"
						}
					],
					"name": "pushTaskTransIndex",
					"outputs": [],
					"stateMutability": "nonpayable",
					"type": "function"
				},
				{
					"inputs": [
						{
							"internalType": "uint256",
							"name": "_index",
							"type": "uint256"
						},
						{
							"internalType": "address",
							"name": "_taskerIndex",
							"type": "address"
						},
						{
							"internalType": "uint256",
							"name": "_fileIndex",
							"type": "uint256"
						}
					],
					"name": "pushTaskVfIndex",
					"outputs": [],
					"stateMutability": "nonpayable",
					"type": "function"
				},
				{
					"inputs": [],
					"name": "renounceOwnership",
					"outputs": [],
					"stateMutability": "nonpayable",
					"type": "function"
				},
				{
					"inputs": [
						{
							"internalType": "address",
							"name": "_address",
							"type": "address"
						}
					],
					"name": "setAccessAddress",
					"outputs": [],
					"stateMutability": "nonpayable",
					"type": "function"
				},
				{
					"inputs": [
						{
							"internalType": "uint256",
							"name": "_index",
							"type": "uint256"
						},
						{
							"internalType": "address",
							"name": "_taskerIndex",
							"type": "address"
						},
						{
							"internalType": "uint256",
							"name": "_fileIndex",
							"type": "uint256"
						},
						{
							"internalType": "string",
							"name": "_file",
							"type": "string"
						}
					],
					"name": "submitFileByTrans",
					"outputs": [
						{
							"internalType": "uint256",
							"name": "",
							"type": "uint256"
						}
					],
					"stateMutability": "nonpayable",
					"type": "function"
				},
				{
					"inputs": [
						{
							"internalType": "uint256",
							"name": "_index",
							"type": "uint256"
						},
						{
							"internalType": "address",
							"name": "_taskerIndex",
							"type": "address"
						},
						{
							"internalType": "uint256",
							"name": "_fileIndex",
							"type": "uint256"
						},
						{
							"internalType": "string",
							"name": "_file",
							"type": "string"
						}
					],
					"name": "submitFileByVf",
					"outputs": [
						{
							"internalType": "uint256",
							"name": "",
							"type": "uint256"
						}
					],
					"stateMutability": "nonpayable",
					"type": "function"
				},
				{
					"inputs": [
						{
							"internalType": "address",
							"name": "newOwner",
							"type": "address"
						}
					],
					"name": "transferOwnership",
					"outputs": [],
					"stateMutability": "nonpayable",
					"type": "function"
				},
				{
					"inputs": [
						{
							"internalType": "uint256",
							"name": "_index",
							"type": "uint256"
						},
						{
							"components": [
								{
									"internalType": "uint256",
									"name": "releaseTime",
									"type": "uint256"
								},
								{
									"internalType": "string",
									"name": "introduce",
									"type": "string"
								},
								{
									"internalType": "string",
									"name": "need",
									"type": "string"
								},
								{
									"internalType": "uint256",
									"name": "deadline",
									"type": "uint256"
								},
								{
									"internalType": "uint256",
									"name": "sourceLanguage",
									"type": "uint256"
								},
								{
									"internalType": "uint256",
									"name": "goalLanguage",
									"type": "uint256"
								},
								{
									"internalType": "uint256[]",
									"name": "preferList",
									"type": "uint256[]"
								},
								{
									"internalType": "uint256",
									"name": "translationType",
									"type": "uint256"
								},
								{
									"internalType": "uint256",
									"name": "workLoad",
									"type": "uint256"
								},
								{
									"internalType": "bool",
									"name": "isNonDisclosure",
									"type": "bool"
								},
								{
									"internalType": "bool",
									"name": "isCustomize",
									"type": "bool"
								},
								{
									"internalType": "uint256",
									"name": "bounty",
									"type": "uint256"
								},
								{
									"components": [
										{
											"components": [
												{
													"internalType": "string",
													"name": "name",
													"type": "string"
												},
												{
													"internalType": "uint256",
													"name": "size",
													"type": "uint256"
												},
												{
													"internalType": "uint256",
													"name": "videoLength",
													"type": "uint256"
												},
												{
													"internalType": "uint256",
													"name": "Page",
													"type": "uint256"
												},
												{
													"internalType": "uint256",
													"name": "words",
													"type": "uint256"
												},
												{
													"internalType": "uint256",
													"name": "fileType",
													"type": "uint256"
												},
												{
													"internalType": "string",
													"name": "path",
													"type": "string"
												}
											],
											"internalType": "struct LibProject.FileInfo",
											"name": "file",
											"type": "tuple"
										},
										{
											"internalType": "uint256",
											"name": "bounty",
											"type": "uint256"
										},
										{
											"internalType": "string",
											"name": "info",
											"type": "string"
										},
										{
											"internalType": "enum LibProject.FileState",
											"name": "state",
											"type": "uint8"
										},
										{
											"internalType": "uint256",
											"name": "lastUpload",
											"type": "uint256"
										}
									],
									"internalType": "struct LibProject.TaskInfo[]",
									"name": "tasks",
									"type": "tuple[]"
								}
							],
							"internalType": "struct LibProject.ProParm",
							"name": "_t",
							"type": "tuple"
						}
					],
					"name": "updateProject",
					"outputs": [],
					"stateMutability": "nonpayable",
					"type": "function"
				}
			],
			"devdoc": {
				"kind": "dev",
				"methods": {
					"owner()": {
						"details": "Returns the address of the current owner."
					},
					"renounceOwnership()": {
						"details": "Leaves the contract without owner. It will not be possible to call `onlyOwner` functions anymore. Can only be called by the current owner. NOTE: Renouncing ownership will leave the contract without an owner, thereby removing any functionality that is only available to the owner."
					},
					"transferOwnership(address)": {
						"details": "Transfers ownership of the contract to a new account (`newOwner`). Can only be called by the current owner."
					}
				},
				"version": 1
			},
			"evm": {
				"assembly": "    /* \"AmphiTrans.sol\":182:16396  contract AmphiTrans is Ownable{\r... */\n  mstore(0x40, 0x80)\n  callvalue\n  dup1\n  iszero\n  tag_1\n  jumpi\n  0x00\n  dup1\n  revert\ntag_1:\n  pop\n    /* \"contracts/access/Ownable.sol\":936:968  _transferOwnership(_msgSender()) */\n  tag_4\n    /* \"contracts/utils/Context.sol\":719:729  msg.sender */\n  caller\n    /* \"contracts/access/Ownable.sol\":936:954  _transferOwnership */\n  tag_7\n    /* \"contracts/access/Ownable.sol\":936:968  _transferOwnership(_msgSender()) */\n  jump\t// in\ntag_4:\n    /* \"AmphiTrans.sol\":182:16396  contract AmphiTrans is Ownable{\r... */\n  jump(tag_8)\n    /* \"contracts/access/Ownable.sol\":2433:2620  function _transferOwnership(address newOwner) internal virtual {... */\ntag_7:\n    /* \"contracts/access/Ownable.sol\":2506:2522  address oldOwner */\n  0x00\n    /* \"contracts/access/Ownable.sol\":2525:2531  _owner */\n  dup1\n  sload\n  sub(shl(0xa0, 0x01), 0x01)\n    /* \"contracts/access/Ownable.sol\":2541:2558  _owner = newOwner */\n  dup4\n  dup2\n  and\n  not(sub(shl(0xa0, 0x01), 0x01))\n  dup4\n  and\n  dup2\n  or\n  dup5\n  sstore\n    /* \"contracts/access/Ownable.sol\":2573:2613  OwnershipTransferred(oldOwner, newOwner) */\n  mload(0x40)\n    /* \"contracts/access/Ownable.sol\":2525:2531  _owner */\n  swap2\n  swap1\n  swap3\n  and\n  swap3\n  dup4\n  swap2\n    /* \"contracts/access/Ownable.sol\":2573:2613  OwnershipTransferred(oldOwner, newOwner) */\n  0x8be0079c531659141344cd1fd0a4f28419497f9722a3daafe3b4186f6b6457e0\n  swap2\n    /* \"contracts/access/Ownable.sol\":2506:2522  address oldOwner */\n  swap1\n    /* \"contracts/access/Ownable.sol\":2573:2613  OwnershipTransferred(oldOwner, newOwner) */\n  log3\n    /* \"contracts/access/Ownable.sol\":2496:2620  {... */\n  pop\n    /* \"contracts/access/Ownable.sol\":2433:2620  function _transferOwnership(address newOwner) internal virtual {... */\n  pop\n  jump\t// out\n    /* \"AmphiTrans.sol\":182:16396  contract AmphiTrans is Ownable{\r... */\ntag_8:\n  dataSize(sub_0)\n  dup1\n  dataOffset(sub_0)\n  0x00\n  codecopy\n  0x00\n  return\nstop\n\nsub_0: assembly {\n        /* \"AmphiTrans.sol\":182:16396  contract AmphiTrans is Ownable{\r... */\n      mstore(0x40, 0x80)\n      callvalue\n      dup1\n      iszero\n      tag_1\n      jumpi\n      0x00\n      dup1\n      revert\n    tag_1:\n      pop\n      jumpi(tag_2, lt(calldatasize, 0x04))\n      shr(0xe0, calldataload(0x00))\n      dup1\n      0x7c34eb85\n      gt\n      tag_58\n      jumpi\n      dup1\n      0xa87d942c\n      gt\n      tag_59\n      jumpi\n      dup1\n      0xd2fed69c\n      gt\n      tag_60\n      jumpi\n      dup1\n      0xf2fde38b\n      gt\n      tag_61\n      jumpi\n      dup1\n      0xf2fde38b\n      eq\n      tag_54\n      jumpi\n      dup1\n      0xf8626ebb\n      eq\n      tag_55\n      jumpi\n      dup1\n      0xfbe24700\n      eq\n      tag_56\n      jumpi\n      dup1\n      0xffcce776\n      eq\n      tag_57\n      jumpi\n      0x00\n      dup1\n      revert\n    tag_61:\n      dup1\n      0xd2fed69c\n      eq\n      tag_51\n      jumpi\n      dup1\n      0xd3d7bc3b\n      eq\n      tag_52\n      jumpi\n      dup1\n      0xe1ca7ca7\n      eq\n      tag_53\n      jumpi\n      0x00\n      dup1\n      revert\n    tag_60:\n      dup1\n      0xb647eec3\n      gt\n      tag_62\n      jumpi\n      dup1\n      0xb647eec3\n      eq\n      tag_47\n      jumpi\n      dup1\n      0xc061bb82\n      eq\n      tag_48\n      jumpi\n      dup1\n      0xc16da060\n      eq\n      tag_49\n      jumpi\n      dup1\n      0xce098054\n      eq\n      tag_50\n      jumpi\n      0x00\n      dup1\n      revert\n    tag_62:\n      dup1\n      0xa87d942c\n      eq\n      tag_44\n      jumpi\n      dup1\n      0xad5f7ab0\n      eq\n      tag_45\n      jumpi\n      dup1\n      0xad607c72\n      eq\n      tag_46\n      jumpi\n      0x00\n      dup1\n      revert\n    tag_59:\n      dup1\n      0x8da5cb5b\n      gt\n      tag_63\n      jumpi\n      dup1\n      0x992d60f3\n      gt\n      tag_64\n      jumpi\n      dup1\n      0x992d60f3\n      eq\n      tag_40\n      jumpi\n      dup1\n      0xa1e047f3\n      eq\n      tag_41\n      jumpi\n      dup1\n      0xa6089639\n      eq\n      tag_42\n      jumpi\n      dup1\n      0xa74deb9b\n      eq\n      tag_43\n      jumpi\n      0x00\n      dup1\n      revert\n    tag_64:\n      dup1\n      0x8da5cb5b\n      eq\n      tag_37\n      jumpi\n      dup1\n      0x9722f099\n      eq\n      tag_38\n      jumpi\n      dup1\n      0x983a12a8\n      eq\n      tag_39\n      jumpi\n      0x00\n      dup1\n      revert\n    tag_63:\n      dup1\n      0x869a7365\n      gt\n      tag_65\n      jumpi\n      dup1\n      0x869a7365\n      eq\n      tag_33\n      jumpi\n      dup1\n      0x87af5d79\n      eq\n      tag_34\n      jumpi\n      dup1\n      0x8a9a9ff3\n      eq\n      tag_35\n      jumpi\n      dup1\n      0x8b3f3a6f\n      eq\n      tag_36\n      jumpi\n      0x00\n      dup1\n      revert\n    tag_65:\n      dup1\n      0x7c34eb85\n      eq\n      tag_30\n      jumpi\n      dup1\n      0x7c35beb7\n      eq\n      tag_31\n      jumpi\n      dup1\n      0x7d88dadf\n      eq\n      tag_32\n      jumpi\n      0x00\n      dup1\n      revert\n    tag_58:\n      dup1\n      0x4c7360ce\n      gt\n      tag_66\n      jumpi\n      dup1\n      0x6c431904\n      gt\n      tag_67\n      jumpi\n      dup1\n      0x6e973982\n      gt\n      tag_68\n      jumpi\n      dup1\n      0x6e973982\n      eq\n      tag_26\n      jumpi\n      dup1\n      0x715018a6\n      eq\n      tag_27\n      jumpi\n      dup1\n      0x790485f9\n      eq\n      tag_28\n      jumpi\n      dup1\n      0x7b3f4717\n      eq\n      tag_29\n      jumpi\n      0x00\n      dup1\n      revert\n    tag_68:\n      dup1\n      0x6c431904\n      eq\n      tag_23\n      jumpi\n      dup1\n      0x6cefce6e\n      eq\n      tag_24\n      jumpi\n      dup1\n      0x6d8d1daf\n      eq\n      tag_25\n      jumpi\n      0x00\n      dup1\n      revert\n    tag_67:\n      dup1\n      0x591b0e27\n      gt\n      tag_69\n      jumpi\n      dup1\n      0x591b0e27\n      eq\n      tag_19\n      jumpi\n      dup1\n      0x5bf608b8\n      eq\n      tag_20\n      jumpi\n      dup1\n      0x5fed5eb2\n      eq\n      tag_21\n      jumpi\n      dup1\n      0x63e3ccad\n      eq\n      tag_22\n      jumpi\n      0x00\n      dup1\n      revert\n    tag_69:\n      dup1\n      0x4c7360ce\n      eq\n      tag_16\n      jumpi\n      dup1\n      0x546677aa\n      eq\n      tag_17\n      jumpi\n      dup1\n      0x57840da6\n      eq\n      tag_18\n      jumpi\n      0x00\n      dup1\n      revert\n    tag_66:\n      dup1\n      0x1af5fa16\n      gt\n      tag_70\n      jumpi\n      dup1\n      0x25e78e70\n      gt\n      tag_71\n      jumpi\n      dup1\n      0x25e78e70\n      eq\n      tag_12\n      jumpi\n      dup1\n      0x271ff03f\n      eq\n      tag_13\n      jumpi\n      dup1\n      0x31d396ce\n      eq\n      tag_14\n      jumpi\n      dup1\n      0x33e68dcd\n      eq\n      tag_15\n      jumpi\n      0x00\n      dup1\n      revert\n    tag_71:\n      dup1\n      0x1af5fa16\n      eq\n      tag_9\n      jumpi\n      dup1\n      0x1fa2bf4c\n      eq\n      tag_10\n      jumpi\n      dup1\n      0x21d90a27\n      eq\n      tag_11\n      jumpi\n      0x00\n      dup1\n      revert\n    tag_70:\n      dup1\n      0x05c3f9c9\n      eq\n      tag_3\n      jumpi\n      dup1\n      0x12506f4d\n      eq\n      tag_4\n      jumpi\n      dup1\n      0x172372c2\n      eq\n      tag_5\n      jumpi\n      dup1\n      0x17e925d7\n      eq\n      tag_6\n      jumpi\n      dup1\n      0x193620e7\n      eq\n      tag_7\n      jumpi\n      dup1\n      0x19f17088\n      eq\n      tag_8\n      jumpi\n    tag_2:\n      0x00\n      dup1\n      revert\n        /* \"AmphiTrans.sol\":15999:16393  function submitFileByVf(\r... */\n    tag_3:\n      tag_72\n      tag_73\n      calldatasize\n      0x04\n      tag_74\n      jump\t// in\n    tag_73:\n      tag_75\n      jump\t// in\n    tag_72:\n      mload(0x40)\n        /* \"#utility.yul\":22783:22808   */\n      swap1\n      dup2\n      mstore\n        /* \"#utility.yul\":22771:22773   */\n      0x20\n        /* \"#utility.yul\":22756:22774   */\n      add\n        /* \"AmphiTrans.sol\":15999:16393  function submitFileByVf(\r... */\n    tag_76:\n      mload(0x40)\n      dup1\n      swap2\n      sub\n      swap1\n      return\n        /* \"AmphiTrans.sol\":2301:2466  function getFiles(uint256 _index)\r... */\n    tag_4:\n      tag_78\n      tag_79\n      calldatasize\n      0x04\n      tag_80\n      jump\t// in\n    tag_79:\n      tag_81\n      jump\t// in\n    tag_78:\n      mload(0x40)\n      tag_76\n      swap2\n      swap1\n      tag_83\n      jump\t// in\n        /* \"AmphiTrans.sol\":1141:1252  function addPay(address _tasker, uint256 _money) external isAccess{\r... */\n    tag_5:\n      tag_84\n      tag_85\n      calldatasize\n      0x04\n      tag_86\n      jump\t// in\n    tag_85:\n      tag_87\n      jump\t// in\n    tag_84:\n      stop\n        /* \"AmphiTrans.sol\":10459:10682  function changeProjectState(uint256 _index, LibProject.ProjectState _state)\r... */\n    tag_6:\n      tag_84\n      tag_89\n      calldatasize\n      0x04\n      tag_90\n      jump\t// in\n    tag_89:\n      tag_91\n      jump\t// in\n        /* \"AmphiTrans.sol\":2823:3027  function getAcceptTransNumber(uint256 _index, address _taskerIndex)\r... */\n    tag_7:\n      tag_72\n      tag_93\n      calldatasize\n      0x04\n      tag_94\n      jump\t// in\n    tag_93:\n      tag_95\n      jump\t// in\n        /* \"AmphiTrans.sol\":9640:10107  function changeTaskTransState(\r... */\n    tag_8:\n      tag_84\n      tag_98\n      calldatasize\n      0x04\n      tag_99\n      jump\t// in\n    tag_98:\n      tag_100\n      jump\t// in\n        /* \"AmphiTrans.sol\":14347:15508  function updateProject(uint256 _index, LibProject.ProParm memory _t)\r... */\n    tag_9:\n      tag_84\n      tag_102\n      calldatasize\n      0x04\n      tag_103\n      jump\t// in\n    tag_102:\n      tag_104\n      jump\t// in\n        /* \"AmphiTrans.sol\":10141:10425  function changeFileState(\r... */\n    tag_10:\n      tag_84\n      tag_106\n      calldatasize\n      0x04\n      tag_107\n      jump\t// in\n    tag_106:\n      tag_108\n      jump\t// in\n        /* \"AmphiTrans.sol\":3239:3397  function getTransWaitNumber(uint256 _index,address _taskerIndex) public view returns(uint256) {\r... */\n    tag_11:\n      tag_72\n      tag_110\n      calldatasize\n      0x04\n      tag_94\n      jump\t// in\n    tag_110:\n        /* \"AmphiTrans.sol\":3324:3331  uint256 */\n      0x00\n        /* \"AmphiTrans.sol\":3351:3368  transInfo[_index] */\n      swap2\n      dup3\n      mstore\n        /* \"AmphiTrans.sol\":3351:3360  transInfo */\n      0x03\n        /* \"AmphiTrans.sol\":3351:3368  transInfo[_index] */\n      0x20\n      swap1\n      dup2\n      mstore\n      0x40\n      dup1\n      dup5\n      keccak256\n      sub(shl(0xa0, 0x01), 0x01)\n        /* \"AmphiTrans.sol\":3351:3382  transInfo[_index][_taskerIndex] */\n      swap4\n      swap1\n      swap4\n      and\n      dup5\n      mstore\n      swap2\n      swap1\n      mstore\n      swap1\n      keccak256\n        /* \"AmphiTrans.sol\":3351:3389  transInfo[_index][_taskerIndex].number */\n      0x01\n      add\n      sload\n      swap1\n        /* \"AmphiTrans.sol\":3239:3397  function getTransWaitNumber(uint256 _index,address _taskerIndex) public view returns(uint256) {\r... */\n      jump\n        /* \"AmphiTrans.sol\":7326:7496  function getProjectOne(uint256 _index)\r... */\n    tag_12:\n      tag_113\n      tag_114\n      calldatasize\n      0x04\n      tag_80\n      jump\t// in\n    tag_114:\n      tag_115\n      jump\t// in\n    tag_113:\n      mload(0x40)\n      tag_76\n      swap2\n      swap1\n      tag_117\n      jump\t// in\n        /* \"AmphiTrans.sol\":11523:11736  function pushTaskTransIndex(\r... */\n    tag_13:\n      tag_84\n      tag_119\n      calldatasize\n      0x04\n      tag_120\n      jump\t// in\n    tag_119:\n      tag_121\n      jump\t// in\n        /* \"AmphiTrans.sol\":11988:12124  function addTranslators(uint256 _index, address _address) public isAccess {\r... */\n    tag_14:\n      tag_84\n      tag_123\n      calldatasize\n      0x04\n      tag_94\n      jump\t// in\n    tag_123:\n      tag_124\n      jump\t// in\n        /* \"AmphiTrans.sol\":15516:15991  function submitFileByTrans(\r... */\n    tag_15:\n      tag_72\n      tag_126\n      calldatasize\n      0x04\n      tag_74\n      jump\t// in\n    tag_126:\n      tag_127\n      jump\t// in\n        /* \"AmphiTrans.sol\":9092:9240  function addVfWaitNumber(uint256 _index,address _address,uint256 _number) public isAccess{\r... */\n    tag_16:\n      tag_84\n      tag_130\n      calldatasize\n      0x04\n      tag_120\n      jump\t// in\n    tag_130:\n      tag_131\n      jump\t// in\n        /* \"AmphiTrans.sol\":6030:6151  function getTaskStateVf(uint256 _index) public view returns (bool) {\r... */\n    tag_17:\n      tag_132\n      tag_133\n      calldatasize\n      0x04\n      tag_80\n      jump\t// in\n    tag_133:\n        /* \"AmphiTrans.sol\":6091:6095  bool */\n      0x00\n        /* \"AmphiTrans.sol\":6115:6131  taskList[_index] */\n      swap1\n      dup2\n      mstore\n        /* \"AmphiTrans.sol\":6115:6123  taskList */\n      0x01\n        /* \"AmphiTrans.sol\":6115:6131  taskList[_index] */\n      0x20\n      mstore\n      0x40\n      swap1\n      keccak256\n        /* \"AmphiTrans.sol\":6115:6143  taskList[_index].isVerActive */\n      0x13\n      add\n      sload\n      0x0100\n      swap1\n      div\n      0xff\n      and\n      swap1\n        /* \"AmphiTrans.sol\":6030:6151  function getTaskStateVf(uint256 _index) public view returns (bool) {\r... */\n      jump\n    tag_132:\n      mload(0x40)\n        /* \"#utility.yul\":16234:16248   */\n      swap1\n      iszero\n        /* \"#utility.yul\":16227:16249   */\n      iszero\n        /* \"#utility.yul\":16209:16250   */\n      dup2\n      mstore\n        /* \"#utility.yul\":16197:16199   */\n      0x20\n        /* \"#utility.yul\":16182:16200   */\n      add\n        /* \"AmphiTrans.sol\":6030:6151  function getTaskStateVf(uint256 _index) public view returns (bool) {\r... */\n      tag_76\n        /* \"#utility.yul\":16069:16256   */\n      jump\n        /* \"AmphiTrans.sol\":1260:1374  function deductPay(address _tasker, uint256 _money) external isAccess{\r... */\n    tag_18:\n      tag_84\n      tag_138\n      calldatasize\n      0x04\n      tag_86\n      jump\t// in\n    tag_138:\n      tag_139\n      jump\t// in\n        /* \"AmphiTrans.sol\":4087:4219  function getTranslationType(uint256 _index) public view returns(uint256) {\r... */\n    tag_19:\n      tag_72\n      tag_141\n      calldatasize\n      0x04\n      tag_80\n      jump\t// in\n    tag_141:\n        /* \"AmphiTrans.sol\":4151:4158  uint256 */\n      0x00\n        /* \"AmphiTrans.sol\":4179:4195  taskList[_index] */\n      swap1\n      dup2\n      mstore\n        /* \"AmphiTrans.sol\":4179:4187  taskList */\n      0x01\n        /* \"AmphiTrans.sol\":4179:4195  taskList[_index] */\n      0x20\n      mstore\n      0x40\n      swap1\n      keccak256\n        /* \"AmphiTrans.sol\":4179:4211  taskList[_index].translationType */\n      0x08\n      add\n      sload\n      swap1\n        /* \"AmphiTrans.sol\":4087:4219  function getTranslationType(uint256 _index) public view returns(uint256) {\r... */\n      jump\n        /* \"AmphiTrans.sol\":5531:5643  function getBuyer(uint256 _index) public view returns (address) {\r... */\n    tag_20:\n      tag_144\n      tag_145\n      calldatasize\n      0x04\n      tag_80\n      jump\t// in\n    tag_145:\n        /* \"AmphiTrans.sol\":5586:5593  address */\n      0x00\n        /* \"AmphiTrans.sol\":5613:5629  taskList[_index] */\n      swap1\n      dup2\n      mstore\n        /* \"AmphiTrans.sol\":5613:5621  taskList */\n      0x01\n        /* \"AmphiTrans.sol\":5613:5629  taskList[_index] */\n      0x20\n      mstore\n      0x40\n      swap1\n      keccak256\n        /* \"AmphiTrans.sol\":5613:5635  taskList[_index].buyer */\n      sload\n      sub(shl(0xa0, 0x01), 0x01)\n      and\n      swap1\n        /* \"AmphiTrans.sol\":5531:5643  function getBuyer(uint256 _index) public view returns (address) {\r... */\n      jump\n    tag_144:\n      mload(0x40)\n      sub(shl(0xa0, 0x01), 0x01)\n        /* \"#utility.yul\":15096:15128   */\n      swap1\n      swap2\n      and\n        /* \"#utility.yul\":15078:15129   */\n      dup2\n      mstore\n        /* \"#utility.yul\":15066:15068   */\n      0x20\n        /* \"#utility.yul\":15051:15069   */\n      add\n        /* \"AmphiTrans.sol\":5531:5643  function getBuyer(uint256 _index) public view returns (address) {\r... */\n      tag_76\n        /* \"#utility.yul\":14932:15135   */\n      jump\n        /* \"AmphiTrans.sol\":6334:7318  function getTransTaskInfo(uint256 _index, address _address)\r... */\n    tag_21:\n      tag_149\n      tag_150\n      calldatasize\n      0x04\n      tag_94\n      jump\t// in\n    tag_150:\n      tag_151\n      jump\t// in\n    tag_149:\n      mload(0x40)\n      tag_76\n      swap2\n      swap1\n      tag_153\n      jump\t// in\n        /* \"AmphiTrans.sol\":10725:10918  function changeTransActive(uint256 _index, bool _bool) public isAccess {\r... */\n    tag_22:\n      tag_84\n      tag_155\n      calldatasize\n      0x04\n      tag_156\n      jump\t// in\n    tag_155:\n      tag_157\n      jump\t// in\n        /* \"AmphiTrans.sol\":9379:9632  function changeTaskVfState(\r... */\n    tag_23:\n      tag_84\n      tag_159\n      calldatasize\n      0x04\n      tag_99\n      jump\t// in\n    tag_159:\n      tag_160\n      jump\t// in\n        /* \"AmphiTrans.sol\":964:1027  function addCount() external isAccess{\r... */\n    tag_24:\n      tag_84\n      tag_162\n      jump\t// in\n        /* \"AmphiTrans.sol\":12437:12599  function isUsedToVf(uint256 _index, uint256 _fileIndex,address _address) public isAccess{\r... */\n    tag_25:\n      tag_84\n      tag_164\n      calldatasize\n      0x04\n      tag_165\n      jump\t// in\n    tag_164:\n      tag_166\n      jump\t// in\n        /* \"AmphiTrans.sol\":8669:8787  function getTaskBounty(uint256 _index) public view returns (uint256) {\r... */\n    tag_26:\n      tag_72\n      tag_168\n      calldatasize\n      0x04\n      tag_80\n      jump\t// in\n    tag_168:\n        /* \"AmphiTrans.sol\":8729:8736  uint256 */\n      0x00\n        /* \"AmphiTrans.sol\":8756:8772  taskList[_index] */\n      swap1\n      dup2\n      mstore\n        /* \"AmphiTrans.sol\":8756:8764  taskList */\n      0x01\n        /* \"AmphiTrans.sol\":8756:8772  taskList[_index] */\n      0x20\n      mstore\n      0x40\n      swap1\n      keccak256\n        /* \"AmphiTrans.sol\":8756:8779  taskList[_index].bounty */\n      0x0b\n      add\n      sload\n      swap1\n        /* \"AmphiTrans.sol\":8669:8787  function getTaskBounty(uint256 _index) public view returns (uint256) {\r... */\n      jump\n        /* \"contracts/access/Ownable.sol\":1831:1932  function renounceOwnership() public virtual onlyOwner {... */\n    tag_27:\n      tag_84\n      tag_172\n      jump\t// in\n        /* \"AmphiTrans.sol\":3035:3233  function getAcceptVfNumber(uint256 _index, address _taskerIndex)\r... */\n    tag_28:\n      tag_72\n      tag_174\n      calldatasize\n      0x04\n      tag_94\n      jump\t// in\n    tag_174:\n        /* \"AmphiTrans.sol\":3148:3155  uint256 */\n      0x00\n        /* \"AmphiTrans.sol\":3180:3194  vfInfo[_index] */\n      swap2\n      dup3\n      mstore\n        /* \"AmphiTrans.sol\":3180:3186  vfInfo */\n      0x04\n        /* \"AmphiTrans.sol\":3180:3194  vfInfo[_index] */\n      0x20\n      swap1\n      dup2\n      mstore\n      0x40\n      dup1\n      dup5\n      keccak256\n      sub(shl(0xa0, 0x01), 0x01)\n        /* \"AmphiTrans.sol\":3180:3208  vfInfo[_index][_taskerIndex] */\n      swap4\n      swap1\n      swap4\n      and\n      dup5\n      mstore\n      swap2\n      swap1\n      mstore\n      swap1\n      keccak256\n        /* \"AmphiTrans.sol\":3180:3225  vfInfo[_index][_taskerIndex].taskIndex.length */\n      sload\n      swap1\n        /* \"AmphiTrans.sol\":3035:3233  function getAcceptVfNumber(uint256 _index, address _taskerIndex)\r... */\n      jump\n        /* \"AmphiTrans.sol\":9246:9373  function decutVfWaitNumber(uint256 _index,address _address) public isAccess{\r... */\n    tag_29:\n      tag_84\n      tag_178\n      calldatasize\n      0x04\n      tag_94\n      jump\t// in\n    tag_178:\n      tag_179\n      jump\t// in\n        /* \"AmphiTrans.sol\":4422:4545  function isCustomizeState(uint256 _index) public view returns (bool) {\r... */\n    tag_30:\n      tag_132\n      tag_181\n      calldatasize\n      0x04\n      tag_80\n      jump\t// in\n    tag_181:\n        /* \"AmphiTrans.sol\":4485:4489  bool */\n      0x00\n        /* \"AmphiTrans.sol\":4509:4525  taskList[_index] */\n      swap1\n      dup2\n      mstore\n        /* \"AmphiTrans.sol\":4509:4517  taskList */\n      0x01\n        /* \"AmphiTrans.sol\":4509:4525  taskList[_index] */\n      0x20\n      mstore\n      0x40\n      swap1\n      keccak256\n        /* \"AmphiTrans.sol\":4509:4537  taskList[_index].isCustomize */\n      0x0a\n      add\n      sload\n      0x0100\n      swap1\n      div\n      0xff\n      and\n      swap1\n        /* \"AmphiTrans.sol\":4422:4545  function isCustomizeState(uint256 _index) public view returns (bool) {\r... */\n      jump\n        /* \"AmphiTrans.sol\":7545:8465  function getVfTaskInfo(uint256 _index, address _address)\r... */\n    tag_31:\n      tag_149\n      tag_185\n      calldatasize\n      0x04\n      tag_94\n      jump\t// in\n    tag_185:\n      tag_186\n      jump\t// in\n        /* \"AmphiTrans.sol\":3403:3684  function isAccept(address _address,uint256 _index,uint256 _fileIndex) public view returns(bool) {\r... */\n    tag_32:\n      tag_132\n      tag_189\n      calldatasize\n      0x04\n      tag_190\n      jump\t// in\n    tag_189:\n      tag_191\n      jump\t// in\n        /* \"AmphiTrans.sol\":3690:3842  function getVfWaitNumber(uint256 _index,address _taskerIndex) public view returns(uint256) {\r... */\n    tag_33:\n      tag_72\n      tag_194\n      calldatasize\n      0x04\n      tag_94\n      jump\t// in\n    tag_194:\n        /* \"AmphiTrans.sol\":3772:3779  uint256 */\n      0x00\n        /* \"AmphiTrans.sol\":3799:3813  vfInfo[_index] */\n      swap2\n      dup3\n      mstore\n        /* \"AmphiTrans.sol\":3799:3805  vfInfo */\n      0x04\n        /* \"AmphiTrans.sol\":3799:3813  vfInfo[_index] */\n      0x20\n      swap1\n      dup2\n      mstore\n      0x40\n      dup1\n      dup5\n      keccak256\n      sub(shl(0xa0, 0x01), 0x01)\n        /* \"AmphiTrans.sol\":3799:3827  vfInfo[_index][_taskerIndex] */\n      swap4\n      swap1\n      swap4\n      and\n      dup5\n      mstore\n      swap2\n      swap1\n      mstore\n      swap1\n      keccak256\n        /* \"AmphiTrans.sol\":3799:3834  vfInfo[_index][_taskerIndex].number */\n      0x01\n      add\n      sload\n      swap1\n        /* \"AmphiTrans.sol\":3690:3842  function getVfWaitNumber(uint256 _index,address _taskerIndex) public view returns(uint256) {\r... */\n      jump\n        /* \"AmphiTrans.sol\":11346:11467  function addVfNumber(uint256 _index,uint256 _number) public isAccess {\r... */\n    tag_34:\n      tag_84\n      tag_198\n      calldatasize\n      0x04\n      tag_199\n      jump\t// in\n    tag_198:\n      tag_200\n      jump\t// in\n        /* \"AmphiTrans.sol\":2015:2293  function isFull(uint256 _index, bool _isTrans) public view returns (bool) {\r... */\n    tag_35:\n      tag_132\n      tag_202\n      calldatasize\n      0x04\n      tag_156\n      jump\t// in\n    tag_202:\n      tag_203\n      jump\t// in\n        /* \"AmphiTrans.sol\":4600:5523  function overTimeTasker(\r... */\n    tag_36:\n      tag_205\n      tag_206\n      calldatasize\n      0x04\n      tag_207\n      jump\t// in\n    tag_206:\n      tag_208\n      jump\t// in\n    tag_205:\n      mload(0x40)\n      tag_76\n      swap3\n      swap2\n      swap1\n      tag_210\n      jump\t// in\n        /* \"contracts/access/Ownable.sol\":1201:1286  function owner() public view virtual returns (address) {... */\n    tag_37:\n        /* \"contracts/access/Ownable.sol\":1247:1254  address */\n      0x00\n        /* \"contracts/access/Ownable.sol\":1273:1279  _owner */\n      sload\n      sub(shl(0xa0, 0x01), 0x01)\n      and\n        /* \"contracts/access/Ownable.sol\":1201:1286  function owner() public view virtual returns (address) {... */\n      jump(tag_144)\n        /* \"AmphiTrans.sol\":6159:6285  function getTaskStateTrans(uint256 _index) public view returns (bool) {\r... */\n    tag_38:\n      tag_132\n      tag_215\n      calldatasize\n      0x04\n      tag_80\n      jump\t// in\n    tag_215:\n        /* \"AmphiTrans.sol\":6223:6227  bool */\n      0x00\n        /* \"AmphiTrans.sol\":6247:6263  taskList[_index] */\n      swap1\n      dup2\n      mstore\n        /* \"AmphiTrans.sol\":6247:6255  taskList */\n      0x01\n        /* \"AmphiTrans.sol\":6247:6263  taskList[_index] */\n      0x20\n      mstore\n      0x40\n      swap1\n      keccak256\n        /* \"AmphiTrans.sol\":6247:6277  taskList[_index].isTransActive */\n      0x13\n      add\n      sload\n      0xff\n      and\n      swap1\n        /* \"AmphiTrans.sol\":6159:6285  function getTaskStateTrans(uint256 _index) public view returns (bool) {\r... */\n      jump\n        /* \"AmphiTrans.sol\":3877:4046  function getTranslatorsList(uint256 _index)\r... */\n    tag_39:\n      tag_218\n      tag_219\n      calldatasize\n      0x04\n      tag_80\n      jump\t// in\n    tag_219:\n      tag_220\n      jump\t// in\n    tag_218:\n      mload(0x40)\n      tag_76\n      swap2\n      swap1\n      tag_222\n      jump\t// in\n        /* \"AmphiTrans.sol\":12132:12257  function addVf(uint256 _index, address _address) public isAccess {\r... */\n    tag_40:\n      tag_84\n      tag_224\n      calldatasize\n      0x04\n      tag_94\n      jump\t// in\n    tag_224:\n      tag_225\n      jump\t// in\n        /* \"AmphiTrans.sol\":11744:11951  function pushTaskVfIndex(\r... */\n    tag_41:\n      tag_84\n      tag_227\n      calldatasize\n      0x04\n      tag_120\n      jump\t// in\n    tag_227:\n      tag_228\n      jump\t// in\n        /* \"AmphiTrans.sol\":8793:8947  function addTransWaitNumber(uint256 _index,address _address,uint256 _number) public isAccess{\r... */\n    tag_42:\n      tag_84\n      tag_230\n      calldatasize\n      0x04\n      tag_120\n      jump\t// in\n    tag_230:\n      tag_231\n      jump\t// in\n        /* \"AmphiTrans.sol\":12607:14339  function addProject(LibProject.ProParm memory _t, address _buyer)\r... */\n    tag_43:\n      tag_72\n      tag_233\n      calldatasize\n      0x04\n      tag_234\n      jump\t// in\n    tag_233:\n      tag_235\n      jump\t// in\n        /* \"AmphiTrans.sol\":1035:1118  function getCount() external view returns (uint256) {\r... */\n    tag_44:\n        /* \"AmphiTrans.sol\":1105:1110  count */\n      sload(0x05)\n        /* \"AmphiTrans.sol\":1035:1118  function getCount() external view returns (uint256) {\r... */\n      jump(tag_72)\n        /* \"AmphiTrans.sol\":842:945  function setAccessAddress(address _address) public onlyOwner{\r... */\n    tag_45:\n      tag_84\n      tag_241\n      calldatasize\n      0x04\n      tag_242\n      jump\t// in\n    tag_241:\n      tag_243\n      jump\t// in\n        /* \"AmphiTrans.sol\":5823:6022  function getFileState(uint256 _index, uint256 _fileIndex)\r... */\n    tag_46:\n      tag_244\n      tag_245\n      calldatasize\n      0x04\n      tag_199\n      jump\t// in\n    tag_245:\n      tag_246\n      jump\t// in\n    tag_244:\n      mload(0x40)\n      tag_76\n      swap2\n      swap1\n      tag_248\n      jump\t// in\n        /* \"AmphiTrans.sol\":4256:4382  function getVfList(uint256 _index) public view returns (address[] memory) {\r... */\n    tag_47:\n      tag_218\n      tag_250\n      calldatasize\n      0x04\n      tag_80\n      jump\t// in\n    tag_250:\n      tag_251\n      jump\t// in\n        /* \"AmphiTrans.sol\":10961:11148  function changeVerActive(uint256 _index, bool _bool) public isAccess {\r... */\n    tag_48:\n      tag_84\n      tag_254\n      calldatasize\n      0x04\n      tag_156\n      jump\t// in\n    tag_254:\n      tag_255\n      jump\t// in\n        /* \"AmphiTrans.sol\":8953:9086  function decutTransWaitNumber(uint256 _index,address _address) public isAccess{\r... */\n    tag_49:\n      tag_84\n      tag_257\n      calldatasize\n      0x04\n      tag_94\n      jump\t// in\n    tag_257:\n      tag_258\n      jump\t// in\n        /* \"AmphiTrans.sol\":12263:12431  function isUsedToTrans(uint256 _index, uint256 _fileIndex,address _address) public isAccess{\r... */\n    tag_50:\n      tag_84\n      tag_260\n      calldatasize\n      0x04\n      tag_165\n      jump\t// in\n    tag_260:\n      tag_261\n      jump\t// in\n        /* \"AmphiTrans.sol\":2506:2637  function getTransNumber(uint256 _index) public view returns (uint256) {\r... */\n    tag_51:\n      tag_72\n      tag_263\n      calldatasize\n      0x04\n      tag_80\n      jump\t// in\n    tag_263:\n        /* \"AmphiTrans.sol\":2567:2574  uint256 */\n      0x00\n        /* \"AmphiTrans.sol\":2594:2610  taskList[_index] */\n      swap1\n      dup2\n      mstore\n        /* \"AmphiTrans.sol\":2594:2602  taskList */\n      0x01\n        /* \"AmphiTrans.sol\":2594:2610  taskList[_index] */\n      0x20\n      mstore\n      0x40\n      swap1\n      keccak256\n        /* \"AmphiTrans.sol\":2594:2622  taskList[_index].translators */\n      0x0d\n      add\n        /* \"AmphiTrans.sol\":2594:2629  taskList[_index].translators.length */\n      sload\n      swap1\n        /* \"AmphiTrans.sol\":2506:2637  function getTransNumber(uint256 _index) public view returns (uint256) {\r... */\n      jump\n        /* \"AmphiTrans.sol\":1844:1951  function getPay(address _tasker) external view returns (uint256) {\r... */\n    tag_52:\n      tag_72\n      tag_267\n      calldatasize\n      0x04\n      tag_242\n      jump\t// in\n    tag_267:\n      sub(shl(0xa0, 0x01), 0x01)\n        /* \"AmphiTrans.sol\":1927:1943  payList[_tasker] */\n      and\n        /* \"AmphiTrans.sol\":1900:1907  uint256 */\n      0x00\n        /* \"AmphiTrans.sol\":1927:1943  payList[_tasker] */\n      swap1\n      dup2\n      mstore\n        /* \"AmphiTrans.sol\":1927:1934  payList */\n      0x02\n        /* \"AmphiTrans.sol\":1927:1943  payList[_tasker] */\n      0x20\n      mstore\n      0x40\n      swap1\n      keccak256\n      sload\n      swap1\n        /* \"AmphiTrans.sol\":1844:1951  function getPay(address _tasker) external view returns (uint256) {\r... */\n      jump\n        /* \"AmphiTrans.sol\":8473:8661  function getFileBounty(uint256 _index, uint256 _fileIndex)\r... */\n    tag_53:\n      tag_72\n      tag_271\n      calldatasize\n      0x04\n      tag_199\n      jump\t// in\n    tag_271:\n      tag_272\n      jump\t// in\n        /* \"contracts/access/Ownable.sol\":2081:2279  function transferOwnership(address newOwner) public virtual onlyOwner {... */\n    tag_54:\n      tag_84\n      tag_275\n      calldatasize\n      0x04\n      tag_242\n      jump\t// in\n    tag_275:\n      tag_276\n      jump\t// in\n        /* \"AmphiTrans.sol\":2645:2771  function getVfNumber(uint256 _index) public view returns (uint256) {\r... */\n    tag_55:\n      tag_72\n      tag_278\n      calldatasize\n      0x04\n      tag_80\n      jump\t// in\n    tag_278:\n        /* \"AmphiTrans.sol\":2703:2710  uint256 */\n      0x00\n        /* \"AmphiTrans.sol\":2730:2746  taskList[_index] */\n      swap1\n      dup2\n      mstore\n        /* \"AmphiTrans.sol\":2730:2738  taskList */\n      0x01\n        /* \"AmphiTrans.sol\":2730:2746  taskList[_index] */\n      0x20\n      mstore\n      0x40\n      swap1\n      keccak256\n        /* \"AmphiTrans.sol\":2730:2756  taskList[_index].verifiers */\n      0x0e\n      add\n        /* \"AmphiTrans.sol\":2730:2763  taskList[_index].verifiers.length */\n      sload\n      swap1\n        /* \"AmphiTrans.sol\":2645:2771  function getVfNumber(uint256 _index) public view returns (uint256) {\r... */\n      jump\n        /* \"AmphiTrans.sol\":11185:11309  function addTransNumber(uint256 _index,uint256 _number) public isAccess {\r... */\n    tag_56:\n      tag_84\n      tag_282\n      calldatasize\n      0x04\n      tag_199\n      jump\t// in\n    tag_282:\n      tag_283\n      jump\t// in\n        /* \"AmphiTrans.sol\":5651:5815  function getTaskState(uint256 _index)\r... */\n    tag_57:\n      tag_284\n      tag_285\n      calldatasize\n      0x04\n      tag_80\n      jump\t// in\n    tag_285:\n        /* \"AmphiTrans.sol\":5737:5760  LibProject.ProjectState */\n      0x00\n        /* \"AmphiTrans.sol\":5785:5801  taskList[_index] */\n      swap1\n      dup2\n      mstore\n        /* \"AmphiTrans.sol\":5785:5793  taskList */\n      0x01\n        /* \"AmphiTrans.sol\":5785:5801  taskList[_index] */\n      0x20\n      mstore\n      0x40\n      swap1\n      keccak256\n        /* \"AmphiTrans.sol\":5785:5807  taskList[_index].state */\n      0x13\n      add\n      sload\n      0x010000\n      swap1\n      div\n      0xff\n      and\n      swap1\n        /* \"AmphiTrans.sol\":5651:5815  function getTaskState(uint256 _index)\r... */\n      jump\n    tag_284:\n      mload(0x40)\n      tag_76\n      swap2\n      swap1\n      tag_288\n      jump\t// in\n        /* \"AmphiTrans.sol\":15999:16393  function submitFileByVf(\r... */\n    tag_75:\n        /* \"AmphiTrans.sol\":731:744  accessAddress */\n      sload(0x06)\n        /* \"AmphiTrans.sol\":16169:16176  uint256 */\n      0x00\n      swap1\n      sub(shl(0xa0, 0x01), 0x01)\n        /* \"AmphiTrans.sol\":731:744  accessAddress */\n      and\n        /* \"AmphiTrans.sol\":717:727  msg.sender */\n      caller\n        /* \"AmphiTrans.sol\":717:744  msg.sender != accessAddress */\n      eq\n        /* \"AmphiTrans.sol\":714:817  if(msg.sender != accessAddress) {\r... */\n      tag_290\n      jumpi\n        /* \"AmphiTrans.sol\":769:805  AccessError(\"Error Access Address!\") */\n      mload(0x40)\n      shl(0xe4, 0x048e2d49)\n      dup2\n      mstore\n      0x04\n      add\n      tag_291\n      swap1\n      tag_292\n      jump\t// in\n    tag_291:\n      mload(0x40)\n      dup1\n      swap2\n      sub\n      swap1\n      revert\n        /* \"AmphiTrans.sol\":714:817  if(msg.sender != accessAddress) {\r... */\n    tag_290:\n        /* \"AmphiTrans.sol\":16188:16201  uint256 _time */\n      0x00\n        /* \"AmphiTrans.sol\":16230:16246  taskList[_index] */\n      dup6\n      dup2\n      mstore\n        /* \"AmphiTrans.sol\":16230:16238  taskList */\n      0x01\n        /* \"AmphiTrans.sol\":16230:16246  taskList[_index] */\n      0x20\n      mstore\n      0x40\n      swap1\n      keccak256\n        /* \"AmphiTrans.sol\":16230:16252  taskList[_index].tasks */\n      0x0c\n      add\n        /* \"AmphiTrans.sol\":16230:16264  taskList[_index].tasks[_fileIndex] */\n      dup1\n      sload\n        /* \"AmphiTrans.sol\":16204:16219  block.timestamp */\n      timestamp\n      swap2\n      dup3\n      swap2\n        /* \"AmphiTrans.sol\":16253:16263  _fileIndex */\n      dup7\n      swap1\n        /* \"AmphiTrans.sol\":16230:16264  taskList[_index].tasks[_fileIndex] */\n      dup2\n      lt\n      tag_295\n      jumpi\n      tag_295\n      tag_296\n      jump\t// in\n    tag_295:\n      0x00\n      swap2\n      dup3\n      mstore\n      0x20\n      dup1\n      dup4\n      keccak256\n        /* \"AmphiTrans.sol\":16230:16275  taskList[_index].tasks[_fileIndex].lastUpload */\n      0x0a\n        /* \"AmphiTrans.sol\":16230:16264  taskList[_index].tasks[_fileIndex] */\n      0x0b\n      swap1\n      swap4\n      mul\n      add\n        /* \"AmphiTrans.sol\":16230:16275  taskList[_index].tasks[_fileIndex].lastUpload */\n      swap2\n      swap1\n      swap2\n      add\n        /* \"AmphiTrans.sol\":16230:16293  taskList[_index].tasks[_fileIndex].lastUpload = block.timestamp */\n      swap3\n      swap1\n      swap3\n      sstore\n        /* \"AmphiTrans.sol\":16304:16318  vfInfo[_index] */\n      dup8\n      dup2\n      mstore\n        /* \"AmphiTrans.sol\":16304:16310  vfInfo */\n      0x04\n        /* \"AmphiTrans.sol\":16304:16318  vfInfo[_index] */\n      dup3\n      mstore\n      0x40\n      dup1\n      dup3\n      keccak256\n      sub(shl(0xa0, 0x01), 0x01)\n        /* \"AmphiTrans.sol\":16304:16332  vfInfo[_index][_taskerIndex] */\n      dup10\n      and\n      dup4\n      mstore\n      dup4\n      mstore\n      dup1\n      dup3\n      keccak256\n        /* \"AmphiTrans.sol\":16304:16349  vfInfo[_index][_taskerIndex].info[_fileIndex] */\n      dup8\n      dup4\n      mstore\n        /* \"AmphiTrans.sol\":16304:16337  vfInfo[_index][_taskerIndex].info */\n      0x02\n      add\n        /* \"AmphiTrans.sol\":16304:16349  vfInfo[_index][_taskerIndex].info[_fileIndex] */\n      dup4\n      mstore\n      swap1\n      keccak256\n        /* \"AmphiTrans.sol\":16304:16362  vfInfo[_index][_taskerIndex].info[_fileIndex].file = _file */\n      dup5\n      mload\n      tag_298\n      swap3\n        /* \"AmphiTrans.sol\":16304:16354  vfInfo[_index][_taskerIndex].info[_fileIndex].file */\n      0x01\n      swap1\n      swap3\n      add\n      swap2\n        /* \"AmphiTrans.sol\":16304:16362  vfInfo[_index][_taskerIndex].info[_fileIndex].file = _file */\n      dup7\n      add\n      swap1\n      tag_299\n      jump\t// in\n    tag_298:\n      pop\n        /* \"AmphiTrans.sol\":16380:16385  _time */\n      swap6\n        /* \"AmphiTrans.sol\":15999:16393  function submitFileByVf(\r... */\n      swap5\n      pop\n      pop\n      pop\n      pop\n      pop\n      jump\t// out\n        /* \"AmphiTrans.sol\":2301:2466  function getFiles(uint256 _index)\r... */\n    tag_81:\n        /* \"AmphiTrans.sol\":2383:2411  LibProject.TaskInfo[] memory */\n      0x60\n        /* \"AmphiTrans.sol\":2436:2444  taskList */\n      0x01\n        /* \"AmphiTrans.sol\":2436:2452  taskList[_index] */\n      0x00\n        /* \"AmphiTrans.sol\":2445:2451  _index */\n      dup4\n        /* \"AmphiTrans.sol\":2436:2452  taskList[_index] */\n      dup2\n      mstore\n      0x20\n      add\n      swap1\n      dup2\n      mstore\n      0x20\n      add\n      0x00\n      keccak256\n        /* \"AmphiTrans.sol\":2436:2458  taskList[_index].tasks */\n      0x0c\n      add\n        /* \"AmphiTrans.sol\":2429:2458  return taskList[_index].tasks */\n      dup1\n      sload\n      dup1\n      0x20\n      mul\n      0x20\n      add\n      mload(0x40)\n      swap1\n      dup2\n      add\n      0x40\n      mstore\n      dup1\n      swap3\n      swap2\n      swap1\n      dup2\n      dup2\n      mstore\n      0x20\n      add\n      0x00\n      swap1\n    tag_301:\n      dup3\n      dup3\n      lt\n      iszero\n      tag_302\n      jumpi\n      0x00\n      dup5\n      dup2\n      mstore\n      0x20\n      swap1\n      keccak256\n      0x40\n      dup1\n      mload\n      0x0180\n      dup2\n      add\n      swap1\n      swap2\n      mstore\n      0x0b\n      dup5\n      mul\n      swap1\n      swap2\n      add\n      dup1\n      sload\n      dup3\n      swap1\n      0xa0\n      dup3\n      add\n      swap1\n      dup4\n      swap1\n      dup3\n      swap1\n      dup3\n      swap1\n      tag_304\n      swap1\n      tag_305\n      jump\t// in\n    tag_304:\n      dup1\n      0x1f\n      add\n      0x20\n      dup1\n      swap2\n      div\n      mul\n      0x20\n      add\n      mload(0x40)\n      swap1\n      dup2\n      add\n      0x40\n      mstore\n      dup1\n      swap3\n      swap2\n      swap1\n      dup2\n      dup2\n      mstore\n      0x20\n      add\n      dup3\n      dup1\n      sload\n      tag_306\n      swap1\n      tag_305\n      jump\t// in\n    tag_306:\n      dup1\n      iszero\n      tag_307\n      jumpi\n      dup1\n      0x1f\n      lt\n      tag_308\n      jumpi\n      0x0100\n      dup1\n      dup4\n      sload\n      div\n      mul\n      dup4\n      mstore\n      swap2\n      0x20\n      add\n      swap2\n      jump(tag_307)\n    tag_308:\n      dup3\n      add\n      swap2\n      swap1\n      0x00\n      mstore\n      keccak256(0x00, 0x20)\n      swap1\n    tag_309:\n      dup2\n      sload\n      dup2\n      mstore\n      swap1\n      0x01\n      add\n      swap1\n      0x20\n      add\n      dup1\n      dup4\n      gt\n      tag_309\n      jumpi\n      dup3\n      swap1\n      sub\n      0x1f\n      and\n      dup3\n      add\n      swap2\n    tag_307:\n      pop\n      pop\n      pop\n      pop\n      pop\n      dup2\n      mstore\n      0x20\n      add\n      0x01\n      dup3\n      add\n      sload\n      dup2\n      mstore\n      0x20\n      add\n      0x02\n      dup3\n      add\n      sload\n      dup2\n      mstore\n      0x20\n      add\n      0x03\n      dup3\n      add\n      sload\n      dup2\n      mstore\n      0x20\n      add\n      0x04\n      dup3\n      add\n      sload\n      dup2\n      mstore\n      0x20\n      add\n      0x05\n      dup3\n      add\n      sload\n      dup2\n      mstore\n      0x20\n      add\n      0x06\n      dup3\n      add\n      dup1\n      sload\n      tag_310\n      swap1\n      tag_305\n      jump\t// in\n    tag_310:\n      dup1\n      0x1f\n      add\n      0x20\n      dup1\n      swap2\n      div\n      mul\n      0x20\n      add\n      mload(0x40)\n      swap1\n      dup2\n      add\n      0x40\n      mstore\n      dup1\n      swap3\n      swap2\n      swap1\n      dup2\n      dup2\n      mstore\n      0x20\n      add\n      dup3\n      dup1\n      sload\n      tag_311\n      swap1\n      tag_305\n      jump\t// in\n    tag_311:\n      dup1\n      iszero\n      tag_312\n      jumpi\n      dup1\n      0x1f\n      lt\n      tag_313\n      jumpi\n      0x0100\n      dup1\n      dup4\n      sload\n      div\n      mul\n      dup4\n      mstore\n      swap2\n      0x20\n      add\n      swap2\n      jump(tag_312)\n    tag_313:\n      dup3\n      add\n      swap2\n      swap1\n      0x00\n      mstore\n      keccak256(0x00, 0x20)\n      swap1\n    tag_314:\n      dup2\n      sload\n      dup2\n      mstore\n      swap1\n      0x01\n      add\n      swap1\n      0x20\n      add\n      dup1\n      dup4\n      gt\n      tag_314\n      jumpi\n      dup3\n      swap1\n      sub\n      0x1f\n      and\n      dup3\n      add\n      swap2\n    tag_312:\n      pop\n      pop\n      pop\n      pop\n      pop\n      dup2\n      mstore\n      pop\n      pop\n      dup2\n      mstore\n      0x20\n      add\n      0x07\n      dup3\n      add\n      sload\n      dup2\n      mstore\n      0x20\n      add\n      0x08\n      dup3\n      add\n      dup1\n      sload\n      tag_315\n      swap1\n      tag_305\n      jump\t// in\n    tag_315:\n      dup1\n      0x1f\n      add\n      0x20\n      dup1\n      swap2\n      div\n      mul\n      0x20\n      add\n      mload(0x40)\n      swap1\n      dup2\n      add\n      0x40\n      mstore\n      dup1\n      swap3\n      swap2\n      swap1\n      dup2\n      dup2\n      mstore\n      0x20\n      add\n      dup3\n      dup1\n      sload\n      tag_316\n      swap1\n      tag_305\n      jump\t// in\n    tag_316:\n      dup1\n      iszero\n      tag_317\n      jumpi\n      dup1\n      0x1f\n      lt\n      tag_318\n      jumpi\n      0x0100\n      dup1\n      dup4\n      sload\n      div\n      mul\n      dup4\n      mstore\n      swap2\n      0x20\n      add\n      swap2\n      jump(tag_317)\n    tag_318:\n      dup3\n      add\n      swap2\n      swap1\n      0x00\n      mstore\n      keccak256(0x00, 0x20)\n      swap1\n    tag_319:\n      dup2\n      sload\n      dup2\n      mstore\n      swap1\n      0x01\n      add\n      swap1\n      0x20\n      add\n      dup1\n      dup4\n      gt\n      tag_319\n      jumpi\n      dup3\n      swap1\n      sub\n      0x1f\n      and\n      dup3\n      add\n      swap2\n    tag_317:\n      pop\n      pop\n      pop\n      swap2\n      dup4\n      mstore\n      pop\n      pop\n      0x09\n      dup3\n      add\n      sload\n      0x20\n      swap1\n      swap2\n      add\n      swap1\n      0xff\n      and\n      0x0b\n      dup2\n      gt\n      iszero\n      tag_321\n      jumpi\n      tag_321\n      tag_322\n      jump\t// in\n    tag_321:\n      0x0b\n      dup2\n      gt\n      iszero\n      tag_324\n      jumpi\n      tag_324\n      tag_322\n      jump\t// in\n    tag_324:\n      dup2\n      mstore\n      0x20\n      add\n      0x0a\n      dup3\n      add\n      sload\n      dup2\n      mstore\n      pop\n      pop\n      dup2\n      mstore\n      0x20\n      add\n      swap1\n      0x01\n      add\n      swap1\n      jump(tag_301)\n    tag_302:\n      pop\n      pop\n      pop\n      pop\n      swap1\n      pop\n        /* \"AmphiTrans.sol\":2301:2466  function getFiles(uint256 _index)\r... */\n      swap2\n      swap1\n      pop\n      jump\t// out\n        /* \"AmphiTrans.sol\":1141:1252  function addPay(address _tasker, uint256 _money) external isAccess{\r... */\n    tag_87:\n        /* \"AmphiTrans.sol\":731:744  accessAddress */\n      and(sub(shl(0xa0, 0x01), 0x01), sload(0x06))\n        /* \"AmphiTrans.sol\":717:727  msg.sender */\n      caller\n        /* \"AmphiTrans.sol\":717:744  msg.sender != accessAddress */\n      eq\n        /* \"AmphiTrans.sol\":714:817  if(msg.sender != accessAddress) {\r... */\n      tag_326\n      jumpi\n        /* \"AmphiTrans.sol\":769:805  AccessError(\"Error Access Address!\") */\n      mload(0x40)\n      shl(0xe4, 0x048e2d49)\n      dup2\n      mstore\n      0x04\n      add\n      tag_291\n      swap1\n      tag_292\n      jump\t// in\n        /* \"AmphiTrans.sol\":714:817  if(msg.sender != accessAddress) {\r... */\n    tag_326:\n      sub(shl(0xa0, 0x01), 0x01)\n        /* \"AmphiTrans.sol\":1218:1234  payList[_tasker] */\n      dup3\n      and\n      0x00\n      swap1\n      dup2\n      mstore\n        /* \"AmphiTrans.sol\":1218:1225  payList */\n      0x02\n        /* \"AmphiTrans.sol\":1218:1234  payList[_tasker] */\n      0x20\n      mstore\n      0x40\n      dup2\n      keccak256\n        /* \"AmphiTrans.sol\":1218:1244  payList[_tasker] += _money */\n      dup1\n      sload\n        /* \"AmphiTrans.sol\":1238:1244  _money */\n      dup4\n      swap3\n        /* \"AmphiTrans.sol\":1218:1234  payList[_tasker] */\n      swap1\n        /* \"AmphiTrans.sol\":1218:1244  payList[_tasker] += _money */\n      tag_329\n      swap1\n        /* \"AmphiTrans.sol\":1238:1244  _money */\n      dup5\n      swap1\n        /* \"AmphiTrans.sol\":1218:1244  payList[_tasker] += _money */\n      tag_330\n      jump\t// in\n    tag_329:\n      swap1\n      swap2\n      sstore\n      pop\n      pop\n      pop\n      pop\n        /* \"AmphiTrans.sol\":1141:1252  function addPay(address _tasker, uint256 _money) external isAccess{\r... */\n      jump\t// out\n        /* \"AmphiTrans.sol\":10459:10682  function changeProjectState(uint256 _index, LibProject.ProjectState _state)\r... */\n    tag_91:\n        /* \"AmphiTrans.sol\":731:744  accessAddress */\n      and(sub(shl(0xa0, 0x01), 0x01), sload(0x06))\n        /* \"AmphiTrans.sol\":717:727  msg.sender */\n      caller\n        /* \"AmphiTrans.sol\":717:744  msg.sender != accessAddress */\n      eq\n        /* \"AmphiTrans.sol\":714:817  if(msg.sender != accessAddress) {\r... */\n      tag_332\n      jumpi\n        /* \"AmphiTrans.sol\":769:805  AccessError(\"Error Access Address!\") */\n      mload(0x40)\n      shl(0xe4, 0x048e2d49)\n      dup2\n      mstore\n      0x04\n      add\n      tag_291\n      swap1\n      tag_292\n      jump\t// in\n        /* \"AmphiTrans.sol\":714:817  if(msg.sender != accessAddress) {\r... */\n    tag_332:\n        /* \"AmphiTrans.sol\":10576:10592  taskList[_index] */\n      0x00\n      dup3\n      dup2\n      mstore\n        /* \"AmphiTrans.sol\":10576:10584  taskList */\n      0x01\n        /* \"AmphiTrans.sol\":10576:10592  taskList[_index] */\n      0x20\n      mstore\n      0x40\n      swap1\n      keccak256\n        /* \"AmphiTrans.sol\":10576:10598  taskList[_index].state */\n      0x13\n      add\n        /* \"AmphiTrans.sol\":10576:10607  taskList[_index].state = _state */\n      dup1\n      sload\n        /* \"AmphiTrans.sol\":10601:10607  _state */\n      dup3\n      swap2\n        /* \"AmphiTrans.sol\":10576:10598  taskList[_index].state */\n      swap1\n      not(0xff0000)\n        /* \"AmphiTrans.sol\":10576:10607  taskList[_index].state = _state */\n      and\n      0x010000\n        /* \"AmphiTrans.sol\":10601:10607  _state */\n      dup4\n        /* \"AmphiTrans.sol\":10576:10607  taskList[_index].state = _state */\n      0x07\n      dup2\n      gt\n      iszero\n      tag_336\n      jumpi\n      tag_336\n      tag_322\n      jump\t// in\n    tag_336:\n      mul\n      or\n      swap1\n      sstore\n      pop\n        /* \"AmphiTrans.sol\":10459:10682  function changeProjectState(uint256 _index, LibProject.ProjectState _state)\r... */\n      pop\n      pop\n      jump\t// out\n        /* \"AmphiTrans.sol\":2823:3027  function getAcceptTransNumber(uint256 _index, address _taskerIndex)\r... */\n    tag_95:\n        /* \"AmphiTrans.sol\":2939:2946  uint256 */\n      0x00\n        /* \"AmphiTrans.sol\":2971:2988  transInfo[_index] */\n      dup3\n      dup2\n      mstore\n        /* \"AmphiTrans.sol\":2971:2980  transInfo */\n      0x03\n        /* \"AmphiTrans.sol\":2971:2988  transInfo[_index] */\n      0x20\n      swap1\n      dup2\n      mstore\n      0x40\n      dup1\n      dup4\n      keccak256\n      sub(shl(0xa0, 0x01), 0x01)\n        /* \"AmphiTrans.sol\":2971:3002  transInfo[_index][_taskerIndex] */\n      dup6\n      and\n      dup5\n      mstore\n      swap1\n      swap2\n      mstore\n      swap1\n      keccak256\n        /* \"AmphiTrans.sol\":2971:3019  transInfo[_index][_taskerIndex].taskIndex.length */\n      sload\n        /* \"AmphiTrans.sol\":2823:3027  function getAcceptTransNumber(uint256 _index, address _taskerIndex)\r... */\n    tag_337:\n      swap3\n      swap2\n      pop\n      pop\n      jump\t// out\n        /* \"AmphiTrans.sol\":9640:10107  function changeTaskTransState(\r... */\n    tag_100:\n        /* \"AmphiTrans.sol\":731:744  accessAddress */\n      and(sub(shl(0xa0, 0x01), 0x01), sload(0x06))\n        /* \"AmphiTrans.sol\":717:727  msg.sender */\n      caller\n        /* \"AmphiTrans.sol\":717:744  msg.sender != accessAddress */\n      eq\n        /* \"AmphiTrans.sol\":714:817  if(msg.sender != accessAddress) {\r... */\n      tag_339\n      jumpi\n        /* \"AmphiTrans.sol\":769:805  AccessError(\"Error Access Address!\") */\n      mload(0x40)\n      shl(0xe4, 0x048e2d49)\n      dup2\n      mstore\n      0x04\n      add\n      tag_291\n      swap1\n      tag_292\n      jump\t// in\n        /* \"AmphiTrans.sol\":714:817  if(msg.sender != accessAddress) {\r... */\n    tag_339:\n        /* \"AmphiTrans.sol\":9828:9845  transInfo[_index] */\n      0x00\n      dup5\n      dup2\n      mstore\n        /* \"AmphiTrans.sol\":9828:9837  transInfo */\n      0x03\n        /* \"AmphiTrans.sol\":9828:9845  transInfo[_index] */\n      0x20\n      swap1\n      dup2\n      mstore\n      0x40\n      dup1\n      dup4\n      keccak256\n      sub(shl(0xa0, 0x01), 0x01)\n        /* \"AmphiTrans.sol\":9828:9859  transInfo[_index][_taskerIndex] */\n      dup8\n      and\n      dup5\n      mstore\n      dup3\n      mstore\n      dup1\n      dup4\n      keccak256\n        /* \"AmphiTrans.sol\":9828:9876  transInfo[_index][_taskerIndex].info[_fileIndex] */\n      dup6\n      dup5\n      mstore\n        /* \"AmphiTrans.sol\":9828:9864  transInfo[_index][_taskerIndex].info */\n      0x02\n      add\n        /* \"AmphiTrans.sol\":9828:9876  transInfo[_index][_taskerIndex].info[_fileIndex] */\n      swap1\n      swap2\n      mstore\n      swap1\n      keccak256\n        /* \"AmphiTrans.sol\":9828:9891  transInfo[_index][_taskerIndex].info[_fileIndex].state = _state */\n      dup1\n      sload\n        /* \"AmphiTrans.sol\":9885:9891  _state */\n      dup3\n      swap2\n        /* \"AmphiTrans.sol\":9828:9876  transInfo[_index][_taskerIndex].info[_fileIndex] */\n      swap1\n      not(0xff)\n        /* \"AmphiTrans.sol\":9828:9891  transInfo[_index][_taskerIndex].info[_fileIndex].state = _state */\n      and\n      0x01\n        /* \"AmphiTrans.sol\":9885:9891  _state */\n      dup4\n        /* \"AmphiTrans.sol\":9828:9891  transInfo[_index][_taskerIndex].info[_fileIndex].state = _state */\n      0x04\n      dup2\n      gt\n      iszero\n      tag_343\n      jumpi\n      tag_343\n      tag_322\n      jump\t// in\n    tag_343:\n      mul\n      or\n      swap1\n      sstore\n      pop\n        /* \"AmphiTrans.sol\":9640:10107  function changeTaskTransState(\r... */\n      pop\n      pop\n      pop\n      pop\n      jump\t// out\n        /* \"AmphiTrans.sol\":14347:15508  function updateProject(uint256 _index, LibProject.ProParm memory _t)\r... */\n    tag_104:\n        /* \"AmphiTrans.sol\":731:744  accessAddress */\n      and(sub(shl(0xa0, 0x01), 0x01), sload(0x06))\n        /* \"AmphiTrans.sol\":717:727  msg.sender */\n      caller\n        /* \"AmphiTrans.sol\":717:744  msg.sender != accessAddress */\n      eq\n        /* \"AmphiTrans.sol\":714:817  if(msg.sender != accessAddress) {\r... */\n      tag_345\n      jumpi\n        /* \"AmphiTrans.sol\":769:805  AccessError(\"Error Access Address!\") */\n      mload(0x40)\n      shl(0xe4, 0x048e2d49)\n      dup2\n      mstore\n      0x04\n      add\n      tag_291\n      swap1\n      tag_292\n      jump\t// in\n        /* \"AmphiTrans.sol\":714:817  if(msg.sender != accessAddress) {\r... */\n    tag_345:\n        /* \"AmphiTrans.sol\":14457:14495  LibProject.TranslationPro storage _pro */\n      0x00\n        /* \"AmphiTrans.sol\":14498:14514  taskList[_index] */\n      dup3\n      dup2\n      mstore\n        /* \"AmphiTrans.sol\":14498:14506  taskList */\n      0x01\n        /* \"AmphiTrans.sol\":14498:14514  taskList[_index] */\n      0x20\n      dup2\n      dup2\n      mstore\n      0x40\n      swap1\n      swap3\n      keccak256\n        /* \"AmphiTrans.sol\":14544:14558  _t.releaseTime */\n      dup4\n      mload\n        /* \"AmphiTrans.sol\":14525:14541  _pro.releaseTime */\n      swap2\n      dup2\n      add\n        /* \"AmphiTrans.sol\":14525:14558  _pro.releaseTime = _t.releaseTime */\n      swap2\n      swap1\n      swap2\n      sstore\n        /* \"AmphiTrans.sol\":14586:14598  _t.introduce */\n      dup3\n      dup3\n      add\n      mload\n        /* \"AmphiTrans.sol\":14569:14598  _pro.introduce = _t.introduce */\n      dup1\n      mload\n        /* \"AmphiTrans.sol\":14498:14514  taskList[_index] */\n      swap2\n      swap3\n        /* \"AmphiTrans.sol\":14569:14598  _pro.introduce = _t.introduce */\n      tag_348\n      swap3\n        /* \"AmphiTrans.sol\":14569:14583  _pro.introduce */\n      0x02\n      dup6\n      add\n      swap3\n        /* \"AmphiTrans.sol\":14569:14598  _pro.introduce = _t.introduce */\n      swap1\n      swap2\n      add\n      swap1\n      tag_299\n      jump\t// in\n    tag_348:\n      pop\n        /* \"AmphiTrans.sol\":14621:14628  _t.need */\n      0x40\n      dup3\n      add\n      mload\n        /* \"AmphiTrans.sol\":14609:14628  _pro.need = _t.need */\n      dup1\n      mload\n      tag_349\n      swap2\n        /* \"AmphiTrans.sol\":14609:14618  _pro.need */\n      0x03\n      dup5\n      add\n      swap2\n        /* \"AmphiTrans.sol\":14609:14628  _pro.need = _t.need */\n      0x20\n      swap1\n      swap2\n      add\n      swap1\n      tag_299\n      jump\t// in\n    tag_349:\n      pop\n        /* \"AmphiTrans.sol\":14655:14666  _t.deadline */\n      0x60\n      dup3\n      add\n      mload\n        /* \"AmphiTrans.sol\":14639:14652  _pro.deadline */\n      0x04\n      dup3\n      add\n        /* \"AmphiTrans.sol\":14639:14666  _pro.deadline = _t.deadline */\n      sstore\n        /* \"AmphiTrans.sol\":14699:14716  _t.sourceLanguage */\n      0x80\n      dup3\n      add\n      mload\n        /* \"AmphiTrans.sol\":14677:14696  _pro.sourceLanguage */\n      0x05\n      dup3\n      add\n        /* \"AmphiTrans.sol\":14677:14716  _pro.sourceLanguage = _t.sourceLanguage */\n      sstore\n        /* \"AmphiTrans.sol\":14747:14762  _t.goalLanguage */\n      0xa0\n      dup3\n      add\n      mload\n        /* \"AmphiTrans.sol\":14727:14744  _pro.goalLanguage */\n      0x06\n      dup3\n      add\n        /* \"AmphiTrans.sol\":14727:14762  _pro.goalLanguage = _t.goalLanguage */\n      sstore\n        /* \"AmphiTrans.sol\":14791:14804  _t.preferList */\n      0xc0\n      dup3\n      add\n      mload\n        /* \"AmphiTrans.sol\":14773:14804  _pro.preferList = _t.preferList */\n      dup1\n      mload\n      tag_350\n      swap2\n        /* \"AmphiTrans.sol\":14773:14788  _pro.preferList */\n      0x07\n      dup5\n      add\n      swap2\n        /* \"AmphiTrans.sol\":14773:14804  _pro.preferList = _t.preferList */\n      0x20\n      swap1\n      swap2\n      add\n      swap1\n      tag_351\n      jump\t// in\n    tag_350:\n      pop\n        /* \"AmphiTrans.sol\":14838:14856  _t.translationType */\n      0xe0\n      dup3\n      add\n      mload\n        /* \"AmphiTrans.sol\":14815:14835  _pro.translationType */\n      0x08\n      dup3\n      add\n        /* \"AmphiTrans.sol\":14815:14856  _pro.translationType = _t.translationType */\n      sstore\n        /* \"AmphiTrans.sol\":14883:14894  _t.workLoad */\n      0x0100\n      dup1\n      dup4\n      add\n      mload\n        /* \"AmphiTrans.sol\":14867:14880  _pro.workLoad */\n      0x09\n      dup4\n      add\n        /* \"AmphiTrans.sol\":14867:14894  _pro.workLoad = _t.workLoad */\n      sstore\n        /* \"AmphiTrans.sol\":14919:14928  _t.bounty */\n      0x0160\n      dup4\n      add\n      mload\n        /* \"AmphiTrans.sol\":14905:14916  _pro.bounty */\n      0x0b\n      dup4\n      add\n        /* \"AmphiTrans.sol\":14905:14928  _pro.bounty = _t.bounty */\n      sstore\n        /* \"AmphiTrans.sol\":14962:14980  _t.isNonDisclosure */\n      0x0120\n      dup4\n      add\n      mload\n        /* \"AmphiTrans.sol\":14939:14959  _pro.isNonDisclosure */\n      0x0a\n      dup4\n      add\n        /* \"AmphiTrans.sol\":14939:14980  _pro.isNonDisclosure = _t.isNonDisclosure */\n      dup1\n      sload\n        /* \"AmphiTrans.sol\":15010:15024  _t.isCustomize */\n      0x0140\n      dup7\n      add\n      mload\n        /* \"AmphiTrans.sol\":14991:15024  _pro.isCustomize = _t.isCustomize */\n      iszero\n      dup1\n      iszero\n      swap1\n      swap5\n      mul\n      not(0xff00)\n        /* \"AmphiTrans.sol\":14939:14980  _pro.isNonDisclosure = _t.isNonDisclosure */\n      swap4\n      iszero\n      iszero\n        /* \"AmphiTrans.sol\":14991:15024  _pro.isCustomize = _t.isCustomize */\n      swap4\n      swap1\n      swap4\n      and\n      not(0xffff)\n      swap1\n      swap2\n      and\n      or\n      swap2\n      swap1\n      swap2\n      or\n      swap1\n      sstore\n        /* \"AmphiTrans.sol\":15095:15285  if (_t.isCustomize) {\r... */\n      tag_352\n      jumpi\n        /* \"AmphiTrans.sol\":15142:15150  _t.tasks */\n      0x0180\n      dup3\n      add\n      mload\n        /* \"AmphiTrans.sol\":15142:15157  _t.tasks.length */\n      mload\n        /* \"AmphiTrans.sol\":15130:15139  _pro.maxT */\n      0x0f\n      dup3\n      add\n        /* \"AmphiTrans.sol\":15130:15157  _pro.maxT = _t.tasks.length */\n      sstore\n        /* \"AmphiTrans.sol\":15095:15285  if (_t.isCustomize) {\r... */\n      jump(tag_353)\n    tag_352:\n        /* \"AmphiTrans.sol\":15244:15245  1 */\n      0x01\n        /* \"AmphiTrans.sol\":15232:15241  _pro.maxT */\n      0x0f\n      dup3\n      add\n        /* \"AmphiTrans.sol\":15232:15245  _pro.maxT = 1 */\n      sstore\n        /* \"AmphiTrans.sol\":15095:15285  if (_t.isCustomize) {\r... */\n    tag_353:\n        /* \"AmphiTrans.sol\":15295:15313  _pro.isTransActive */\n      0x13\n      dup2\n      add\n        /* \"AmphiTrans.sol\":15295:15320  _pro.isTransActive = true */\n      dup1\n      sload\n      not(0xff)\n      and\n        /* \"AmphiTrans.sol\":15316:15320  true */\n      0x01\n        /* \"AmphiTrans.sol\":15295:15320  _pro.isTransActive = true */\n      or\n      swap1\n      sstore\n        /* \"AmphiTrans.sol\":15295:15313  _pro.isTransActive */\n      0x00\n        /* \"AmphiTrans.sol\":15391:15492  for (uint256 i = 0; i < _t.tasks.length; i++) {\r... */\n    tag_354:\n        /* \"AmphiTrans.sol\":15415:15417  _t */\n      dup3\n        /* \"AmphiTrans.sol\":15415:15423  _t.tasks */\n      0x0180\n      add\n      mload\n        /* \"AmphiTrans.sol\":15415:15430  _t.tasks.length */\n      mload\n        /* \"AmphiTrans.sol\":15411:15412  i */\n      dup2\n        /* \"AmphiTrans.sol\":15411:15430  i < _t.tasks.length */\n      lt\n        /* \"AmphiTrans.sol\":15391:15492  for (uint256 i = 0; i < _t.tasks.length; i++) {\r... */\n      iszero\n      tag_355\n      jumpi\n        /* \"AmphiTrans.sol\":15452:15456  _pro */\n      dup2\n        /* \"AmphiTrans.sol\":15452:15462  _pro.tasks */\n      0x0c\n      add\n        /* \"AmphiTrans.sol\":15468:15470  _t */\n      dup4\n        /* \"AmphiTrans.sol\":15468:15476  _t.tasks */\n      0x0180\n      add\n      mload\n        /* \"AmphiTrans.sol\":15477:15478  i */\n      dup3\n        /* \"AmphiTrans.sol\":15468:15479  _t.tasks[i] */\n      dup2\n      mload\n      dup2\n      lt\n      tag_358\n      jumpi\n      tag_358\n      tag_296\n      jump\t// in\n    tag_358:\n      0x20\n      swap1\n      dup2\n      mul\n      swap2\n      swap1\n      swap2\n      add\n      dup2\n      add\n      mload\n        /* \"AmphiTrans.sol\":15452:15480  _pro.tasks.push(_t.tasks[i]) */\n      dup3\n      sload\n      0x01\n      dup2\n      add\n      dup5\n      sstore\n      0x00\n      swap4\n      dup5\n      mstore\n      swap3\n      dup3\n      swap1\n      keccak256\n      dup2\n      mload\n      dup1\n      mload\n      dup1\n      mload\n        /* \"AmphiTrans.sol\":15468:15479  _t.tasks[i] */\n      swap4\n      swap6\n        /* \"AmphiTrans.sol\":15452:15480  _pro.tasks.push(_t.tasks[i]) */\n      0x0b\n      mul\n      swap1\n      swap3\n      add\n      swap4\n      swap1\n      swap3\n      dup5\n      swap3\n      tag_360\n      swap3\n      dup5\n      swap3\n      swap2\n      add\n      swap1\n      tag_299\n      jump\t// in\n    tag_360:\n      pop\n      0x20\n      dup3\n      dup2\n      add\n      mload\n      0x01\n      dup4\n      add\n      sstore\n      0x40\n      dup4\n      add\n      mload\n      0x02\n      dup4\n      add\n      sstore\n      0x60\n      dup4\n      add\n      mload\n      0x03\n      dup4\n      add\n      sstore\n      0x80\n      dup4\n      add\n      mload\n      0x04\n      dup4\n      add\n      sstore\n      0xa0\n      dup4\n      add\n      mload\n      0x05\n      dup4\n      add\n      sstore\n      0xc0\n      dup4\n      add\n      mload\n      dup1\n      mload\n      tag_361\n      swap3\n      0x06\n      dup6\n      add\n      swap3\n      add\n      swap1\n      tag_299\n      jump\t// in\n    tag_361:\n      pop\n      pop\n      pop\n      0x20\n      dup3\n      dup2\n      add\n      mload\n      0x07\n      dup4\n      add\n      sstore\n      0x40\n      dup4\n      add\n      mload\n      dup1\n      mload\n      tag_362\n      swap3\n      0x08\n      dup6\n      add\n      swap3\n      add\n      swap1\n      tag_299\n      jump\t// in\n    tag_362:\n      pop\n      0x60\n      dup3\n      add\n      mload\n      0x09\n      dup3\n      add\n      dup1\n      sload\n      not(0xff)\n      and\n      0x01\n      dup4\n      0x0b\n      dup2\n      gt\n      iszero\n      tag_364\n      jumpi\n      tag_364\n      tag_322\n      jump\t// in\n    tag_364:\n      mul\n      or\n      swap1\n      sstore\n      pop\n      0x80\n      dup3\n      add\n      mload\n      dup2\n      0x0a\n      add\n      sstore\n      pop\n      pop\n        /* \"AmphiTrans.sol\":15432:15435  i++ */\n      dup1\n      dup1\n      tag_365\n      swap1\n      tag_366\n      jump\t// in\n    tag_365:\n      swap2\n      pop\n      pop\n        /* \"AmphiTrans.sol\":15391:15492  for (uint256 i = 0; i < _t.tasks.length; i++) {\r... */\n      jump(tag_354)\n    tag_355:\n      pop\n        /* \"AmphiTrans.sol\":14446:15508  {\r... */\n      pop\n        /* \"AmphiTrans.sol\":14347:15508  function updateProject(uint256 _index, LibProject.ProParm memory _t)\r... */\n      pop\n      pop\n      jump\t// out\n        /* \"AmphiTrans.sol\":10141:10425  function changeFileState(\r... */\n    tag_108:\n        /* \"AmphiTrans.sol\":731:744  accessAddress */\n      and(sub(shl(0xa0, 0x01), 0x01), sload(0x06))\n        /* \"AmphiTrans.sol\":717:727  msg.sender */\n      caller\n        /* \"AmphiTrans.sol\":717:744  msg.sender != accessAddress */\n      eq\n        /* \"AmphiTrans.sol\":714:817  if(msg.sender != accessAddress) {\r... */\n      tag_368\n      jumpi\n        /* \"AmphiTrans.sol\":769:805  AccessError(\"Error Access Address!\") */\n      mload(0x40)\n      shl(0xe4, 0x048e2d49)\n      dup2\n      mstore\n      0x04\n      add\n      tag_291\n      swap1\n      tag_292\n      jump\t// in\n        /* \"AmphiTrans.sol\":714:817  if(msg.sender != accessAddress) {\r... */\n    tag_368:\n        /* \"AmphiTrans.sol\":10292:10308  taskList[_index] */\n      0x00\n      dup4\n      dup2\n      mstore\n        /* \"AmphiTrans.sol\":10292:10300  taskList */\n      0x01\n        /* \"AmphiTrans.sol\":10292:10308  taskList[_index] */\n      0x20\n      mstore\n      0x40\n      swap1\n      keccak256\n        /* \"AmphiTrans.sol\":10292:10314  taskList[_index].tasks */\n      0x0c\n      add\n        /* \"AmphiTrans.sol\":10292:10326  taskList[_index].tasks[_fileIndex] */\n      dup1\n      sload\n        /* \"AmphiTrans.sol\":10335:10341  _state */\n      dup3\n      swap2\n        /* \"AmphiTrans.sol\":10292:10314  taskList[_index].tasks */\n      swap1\n        /* \"AmphiTrans.sol\":10315:10325  _fileIndex */\n      dup5\n      swap1\n        /* \"AmphiTrans.sol\":10292:10326  taskList[_index].tasks[_fileIndex] */\n      dup2\n      lt\n      tag_372\n      jumpi\n      tag_372\n      tag_296\n      jump\t// in\n    tag_372:\n      swap1\n      0x00\n      mstore\n      keccak256(0x00, 0x20)\n      swap1\n      0x0b\n      mul\n      add\n        /* \"AmphiTrans.sol\":10292:10332  taskList[_index].tasks[_fileIndex].state */\n      0x09\n      add\n      0x00\n        /* \"AmphiTrans.sol\":10292:10341  taskList[_index].tasks[_fileIndex].state = _state */\n      0x0100\n      exp\n      dup2\n      sload\n      dup2\n      0xff\n      mul\n      not\n      and\n      swap1\n      dup4\n      0x0b\n      dup2\n      gt\n      iszero\n      tag_375\n      jumpi\n      tag_375\n      tag_322\n      jump\t// in\n    tag_375:\n      mul\n      or\n      swap1\n      sstore\n      pop\n        /* \"AmphiTrans.sol\":10141:10425  function changeFileState(\r... */\n      pop\n      pop\n      pop\n      jump\t// out\n        /* \"AmphiTrans.sol\":7326:7496  function getProjectOne(uint256 _index)\r... */\n    tag_115:\n        /* \"AmphiTrans.sol\":7415:7447  LibProject.TranslationPro memory */\n      tag_377\n      tag_378\n      jump\t// in\n    tag_377:\n        /* \"AmphiTrans.sol\":7472:7488  taskList[_index] */\n      0x00\n      dup3\n      dup2\n      mstore\n        /* \"AmphiTrans.sol\":7472:7480  taskList */\n      0x01\n        /* \"AmphiTrans.sol\":7472:7488  taskList[_index] */\n      0x20\n      dup2\n      dup2\n      mstore\n      0x40\n      swap3\n      dup4\n      swap1\n      keccak256\n        /* \"AmphiTrans.sol\":7465:7488  return taskList[_index] */\n      dup4\n      mload\n      0x02e0\n      dup2\n      add\n      dup6\n      mstore\n      dup2\n      sload\n      sub(shl(0xa0, 0x01), 0x01)\n      and\n      dup2\n      mstore\n      swap3\n      dup2\n      add\n      sload\n      swap2\n      dup4\n      add\n      swap2\n      swap1\n      swap2\n      mstore\n      0x02\n      dup2\n      add\n      dup1\n      sload\n      swap3\n      swap4\n        /* \"AmphiTrans.sol\":7472:7488  taskList[_index] */\n      swap2\n      swap3\n        /* \"AmphiTrans.sol\":7465:7488  return taskList[_index] */\n      swap2\n      dup5\n      add\n      swap2\n      tag_380\n      swap1\n      tag_305\n      jump\t// in\n    tag_380:\n      dup1\n      0x1f\n      add\n      0x20\n      dup1\n      swap2\n      div\n      mul\n      0x20\n      add\n      mload(0x40)\n      swap1\n      dup2\n      add\n      0x40\n      mstore\n      dup1\n      swap3\n      swap2\n      swap1\n      dup2\n      dup2\n      mstore\n      0x20\n      add\n      dup3\n      dup1\n      sload\n      tag_381\n      swap1\n      tag_305\n      jump\t// in\n    tag_381:\n      dup1\n      iszero\n      tag_382\n      jumpi\n      dup1\n      0x1f\n      lt\n      tag_383\n      jumpi\n      0x0100\n      dup1\n      dup4\n      sload\n      div\n      mul\n      dup4\n      mstore\n      swap2\n      0x20\n      add\n      swap2\n      jump(tag_382)\n    tag_383:\n      dup3\n      add\n      swap2\n      swap1\n      0x00\n      mstore\n      keccak256(0x00, 0x20)\n      swap1\n    tag_384:\n      dup2\n      sload\n      dup2\n      mstore\n      swap1\n      0x01\n      add\n      swap1\n      0x20\n      add\n      dup1\n      dup4\n      gt\n      tag_384\n      jumpi\n      dup3\n      swap1\n      sub\n      0x1f\n      and\n      dup3\n      add\n      swap2\n    tag_382:\n      pop\n      pop\n      pop\n      pop\n      pop\n      dup2\n      mstore\n      0x20\n      add\n      0x03\n      dup3\n      add\n      dup1\n      sload\n      tag_385\n      swap1\n      tag_305\n      jump\t// in\n    tag_385:\n      dup1\n      0x1f\n      add\n      0x20\n      dup1\n      swap2\n      div\n      mul\n      0x20\n      add\n      mload(0x40)\n      swap1\n      dup2\n      add\n      0x40\n      mstore\n      dup1\n      swap3\n      swap2\n      swap1\n      dup2\n      dup2\n      mstore\n      0x20\n      add\n      dup3\n      dup1\n      sload\n      tag_386\n      swap1\n      tag_305\n      jump\t// in\n    tag_386:\n      dup1\n      iszero\n      tag_387\n      jumpi\n      dup1\n      0x1f\n      lt\n      tag_388\n      jumpi\n      0x0100\n      dup1\n      dup4\n      sload\n      div\n      mul\n      dup4\n      mstore\n      swap2\n      0x20\n      add\n      swap2\n      jump(tag_387)\n    tag_388:\n      dup3\n      add\n      swap2\n      swap1\n      0x00\n      mstore\n      keccak256(0x00, 0x20)\n      swap1\n    tag_389:\n      dup2\n      sload\n      dup2\n      mstore\n      swap1\n      0x01\n      add\n      swap1\n      0x20\n      add\n      dup1\n      dup4\n      gt\n      tag_389\n      jumpi\n      dup3\n      swap1\n      sub\n      0x1f\n      and\n      dup3\n      add\n      swap2\n    tag_387:\n      pop\n      pop\n      pop\n      pop\n      pop\n      dup2\n      mstore\n      0x20\n      add\n      0x04\n      dup3\n      add\n      sload\n      dup2\n      mstore\n      0x20\n      add\n      0x05\n      dup3\n      add\n      sload\n      dup2\n      mstore\n      0x20\n      add\n      0x06\n      dup3\n      add\n      sload\n      dup2\n      mstore\n      0x20\n      add\n      0x07\n      dup3\n      add\n      dup1\n      sload\n      dup1\n      0x20\n      mul\n      0x20\n      add\n      mload(0x40)\n      swap1\n      dup2\n      add\n      0x40\n      mstore\n      dup1\n      swap3\n      swap2\n      swap1\n      dup2\n      dup2\n      mstore\n      0x20\n      add\n      dup3\n      dup1\n      sload\n      dup1\n      iszero\n      tag_390\n      jumpi\n      0x20\n      mul\n      dup3\n      add\n      swap2\n      swap1\n      0x00\n      mstore\n      keccak256(0x00, 0x20)\n      swap1\n    tag_391:\n      dup2\n      sload\n      dup2\n      mstore\n      0x20\n      add\n      swap1\n      0x01\n      add\n      swap1\n      dup1\n      dup4\n      gt\n      tag_391\n      jumpi\n    tag_390:\n      pop\n      pop\n      pop\n      swap2\n      dup4\n      mstore\n      pop\n      pop\n      0x08\n      dup3\n      add\n      sload\n      0x20\n      dup1\n      dup4\n      add\n      swap2\n      swap1\n      swap2\n      mstore\n      0x09\n      dup4\n      add\n      sload\n      0x40\n      dup1\n      dup5\n      add\n      swap2\n      swap1\n      swap2\n      mstore\n      0x0a\n      dup5\n      add\n      sload\n      0xff\n      dup1\n      dup3\n      and\n      iszero\n      iszero\n      0x60\n      dup7\n      add\n      mstore\n      0x0100\n      swap1\n      swap2\n      div\n      and\n      iszero\n      iszero\n      0x80\n      dup5\n      add\n      mstore\n      0x0b\n      dup5\n      add\n      sload\n      0xa0\n      dup5\n      add\n      mstore\n      0x0c\n      dup5\n      add\n      dup1\n      sload\n      dup3\n      mload\n      dup2\n      dup6\n      mul\n      dup2\n      add\n      dup6\n      add\n      swap1\n      swap4\n      mstore\n      dup1\n      dup4\n      mstore\n      0xc0\n      swap1\n      swap5\n      add\n      swap4\n      swap2\n      swap3\n      swap1\n      swap2\n      swap1\n      0x00\n      swap1\n      dup5\n      add\n    tag_392:\n      dup3\n      dup3\n      lt\n      iszero\n      tag_393\n      jumpi\n      0x00\n      dup5\n      dup2\n      mstore\n      0x20\n      swap1\n      keccak256\n      0x40\n      dup1\n      mload\n      0x0180\n      dup2\n      add\n      swap1\n      swap2\n      mstore\n      0x0b\n      dup5\n      mul\n      swap1\n      swap2\n      add\n      dup1\n      sload\n      dup3\n      swap1\n      0xa0\n      dup3\n      add\n      swap1\n      dup4\n      swap1\n      dup3\n      swap1\n      dup3\n      swap1\n      tag_395\n      swap1\n      tag_305\n      jump\t// in\n    tag_395:\n      dup1\n      0x1f\n      add\n      0x20\n      dup1\n      swap2\n      div\n      mul\n      0x20\n      add\n      mload(0x40)\n      swap1\n      dup2\n      add\n      0x40\n      mstore\n      dup1\n      swap3\n      swap2\n      swap1\n      dup2\n      dup2\n      mstore\n      0x20\n      add\n      dup3\n      dup1\n      sload\n      tag_396\n      swap1\n      tag_305\n      jump\t// in\n    tag_396:\n      dup1\n      iszero\n      tag_397\n      jumpi\n      dup1\n      0x1f\n      lt\n      tag_398\n      jumpi\n      0x0100\n      dup1\n      dup4\n      sload\n      div\n      mul\n      dup4\n      mstore\n      swap2\n      0x20\n      add\n      swap2\n      jump(tag_397)\n    tag_398:\n      dup3\n      add\n      swap2\n      swap1\n      0x00\n      mstore\n      keccak256(0x00, 0x20)\n      swap1\n    tag_399:\n      dup2\n      sload\n      dup2\n      mstore\n      swap1\n      0x01\n      add\n      swap1\n      0x20\n      add\n      dup1\n      dup4\n      gt\n      tag_399\n      jumpi\n      dup3\n      swap1\n      sub\n      0x1f\n      and\n      dup3\n      add\n      swap2\n    tag_397:\n      pop\n      pop\n      pop\n      pop\n      pop\n      dup2\n      mstore\n      0x20\n      add\n      0x01\n      dup3\n      add\n      sload\n      dup2\n      mstore\n      0x20\n      add\n      0x02\n      dup3\n      add\n      sload\n      dup2\n      mstore\n      0x20\n      add\n      0x03\n      dup3\n      add\n      sload\n      dup2\n      mstore\n      0x20\n      add\n      0x04\n      dup3\n      add\n      sload\n      dup2\n      mstore\n      0x20\n      add\n      0x05\n      dup3\n      add\n      sload\n      dup2\n      mstore\n      0x20\n      add\n      0x06\n      dup3\n      add\n      dup1\n      sload\n      tag_400\n      swap1\n      tag_305\n      jump\t// in\n    tag_400:\n      dup1\n      0x1f\n      add\n      0x20\n      dup1\n      swap2\n      div\n      mul\n      0x20\n      add\n      mload(0x40)\n      swap1\n      dup2\n      add\n      0x40\n      mstore\n      dup1\n      swap3\n      swap2\n      swap1\n      dup2\n      dup2\n      mstore\n      0x20\n      add\n      dup3\n      dup1\n      sload\n      tag_401\n      swap1\n      tag_305\n      jump\t// in\n    tag_401:\n      dup1\n      iszero\n      tag_402\n      jumpi\n      dup1\n      0x1f\n      lt\n      tag_403\n      jumpi\n      0x0100\n      dup1\n      dup4\n      sload\n      div\n      mul\n      dup4\n      mstore\n      swap2\n      0x20\n      add\n      swap2\n      jump(tag_402)\n    tag_403:\n      dup3\n      add\n      swap2\n      swap1\n      0x00\n      mstore\n      keccak256(0x00, 0x20)\n      swap1\n    tag_404:\n      dup2\n      sload\n      dup2\n      mstore\n      swap1\n      0x01\n      add\n      swap1\n      0x20\n      add\n      dup1\n      dup4\n      gt\n      tag_404\n      jumpi\n      dup3\n      swap1\n      sub\n      0x1f\n      and\n      dup3\n      add\n      swap2\n    tag_402:\n      pop\n      pop\n      pop\n      pop\n      pop\n      dup2\n      mstore\n      pop\n      pop\n      dup2\n      mstore\n      0x20\n      add\n      0x07\n      dup3\n      add\n      sload\n      dup2\n      mstore\n      0x20\n      add\n      0x08\n      dup3\n      add\n      dup1\n      sload\n      tag_405\n      swap1\n      tag_305\n      jump\t// in\n    tag_405:\n      dup1\n      0x1f\n      add\n      0x20\n      dup1\n      swap2\n      div\n      mul\n      0x20\n      add\n      mload(0x40)\n      swap1\n      dup2\n      add\n      0x40\n      mstore\n      dup1\n      swap3\n      swap2\n      swap1\n      dup2\n      dup2\n      mstore\n      0x20\n      add\n      dup3\n      dup1\n      sload\n      tag_406\n      swap1\n      tag_305\n      jump\t// in\n    tag_406:\n      dup1\n      iszero\n      tag_407\n      jumpi\n      dup1\n      0x1f\n      lt\n      tag_408\n      jumpi\n      0x0100\n      dup1\n      dup4\n      sload\n      div\n      mul\n      dup4\n      mstore\n      swap2\n      0x20\n      add\n      swap2\n      jump(tag_407)\n    tag_408:\n      dup3\n      add\n      swap2\n      swap1\n      0x00\n      mstore\n      keccak256(0x00, 0x20)\n      swap1\n    tag_409:\n      dup2\n      sload\n      dup2\n      mstore\n      swap1\n      0x01\n      add\n      swap1\n      0x20\n      add\n      dup1\n      dup4\n      gt\n      tag_409\n      jumpi\n      dup3\n      swap1\n      sub\n      0x1f\n      and\n      dup3\n      add\n      swap2\n    tag_407:\n      pop\n      pop\n      pop\n      swap2\n      dup4\n      mstore\n      pop\n      pop\n      0x09\n      dup3\n      add\n      sload\n      0x20\n      swap1\n      swap2\n      add\n      swap1\n      0xff\n      and\n      0x0b\n      dup2\n      gt\n      iszero\n      tag_411\n      jumpi\n      tag_411\n      tag_322\n      jump\t// in\n    tag_411:\n      0x0b\n      dup2\n      gt\n      iszero\n      tag_413\n      jumpi\n      tag_413\n      tag_322\n      jump\t// in\n    tag_413:\n      dup2\n      mstore\n      0x20\n      add\n      0x0a\n      dup3\n      add\n      sload\n      dup2\n      mstore\n      pop\n      pop\n      dup2\n      mstore\n      0x20\n      add\n      swap1\n      0x01\n      add\n      swap1\n      jump(tag_392)\n    tag_393:\n      pop\n      pop\n      pop\n      pop\n      dup2\n      mstore\n      0x20\n      add\n      0x0d\n      dup3\n      add\n      dup1\n      sload\n      dup1\n      0x20\n      mul\n      0x20\n      add\n      mload(0x40)\n      swap1\n      dup2\n      add\n      0x40\n      mstore\n      dup1\n      swap3\n      swap2\n      swap1\n      dup2\n      dup2\n      mstore\n      0x20\n      add\n      dup3\n      dup1\n      sload\n      dup1\n      iszero\n      tag_414\n      jumpi\n      0x20\n      mul\n      dup3\n      add\n      swap2\n      swap1\n      0x00\n      mstore\n      keccak256(0x00, 0x20)\n      swap1\n    tag_415:\n      dup2\n      sload\n      sub(shl(0xa0, 0x01), 0x01)\n      and\n      dup2\n      mstore\n      0x01\n      swap1\n      swap2\n      add\n      swap1\n      0x20\n      add\n      dup1\n      dup4\n      gt\n      tag_415\n      jumpi\n    tag_414:\n      pop\n      pop\n      pop\n      pop\n      pop\n      dup2\n      mstore\n      0x20\n      add\n      0x0e\n      dup3\n      add\n      dup1\n      sload\n      dup1\n      0x20\n      mul\n      0x20\n      add\n      mload(0x40)\n      swap1\n      dup2\n      add\n      0x40\n      mstore\n      dup1\n      swap3\n      swap2\n      swap1\n      dup2\n      dup2\n      mstore\n      0x20\n      add\n      dup3\n      dup1\n      sload\n      dup1\n      iszero\n      tag_416\n      jumpi\n      0x20\n      mul\n      dup3\n      add\n      swap2\n      swap1\n      0x00\n      mstore\n      keccak256(0x00, 0x20)\n      swap1\n    tag_417:\n      dup2\n      sload\n      sub(shl(0xa0, 0x01), 0x01)\n      and\n      dup2\n      mstore\n      0x01\n      swap1\n      swap2\n      add\n      swap1\n      0x20\n      add\n      dup1\n      dup4\n      gt\n      tag_417\n      jumpi\n    tag_416:\n      pop\n      pop\n      pop\n      swap2\n      dup4\n      mstore\n      pop\n      pop\n      0x0f\n      dup3\n      add\n      sload\n      0x20\n      dup3\n      add\n      mstore\n      0x10\n      dup3\n      add\n      sload\n      0x40\n      dup3\n      add\n      mstore\n      0x11\n      dup3\n      add\n      sload\n      0x60\n      dup3\n      add\n      mstore\n      0x12\n      dup3\n      add\n      sload\n      0x80\n      dup3\n      add\n      mstore\n      0x13\n      dup3\n      add\n      sload\n      0xff\n      dup1\n      dup3\n      and\n      iszero\n      iszero\n      0xa0\n      dup5\n      add\n      mstore\n      0x0100\n      dup3\n      div\n      dup2\n      and\n      iszero\n      iszero\n      0xc0\n      dup5\n      add\n      mstore\n      0xe0\n      swap1\n      swap3\n      add\n      swap2\n      0x010000\n      swap1\n      swap2\n      div\n      and\n      0x07\n      dup2\n      gt\n      iszero\n      tag_419\n      jumpi\n      tag_419\n      tag_322\n      jump\t// in\n    tag_419:\n      0x07\n      dup2\n      gt\n      iszero\n      tag_421\n      jumpi\n      tag_421\n      tag_322\n      jump\t// in\n    tag_421:\n      swap1\n      mstore\n      pop\n      swap3\n        /* \"AmphiTrans.sol\":7326:7496  function getProjectOne(uint256 _index)\r... */\n      swap2\n      pop\n      pop\n      jump\t// out\n        /* \"AmphiTrans.sol\":11523:11736  function pushTaskTransIndex(\r... */\n    tag_121:\n        /* \"AmphiTrans.sol\":731:744  accessAddress */\n      and(sub(shl(0xa0, 0x01), 0x01), sload(0x06))\n        /* \"AmphiTrans.sol\":717:727  msg.sender */\n      caller\n        /* \"AmphiTrans.sol\":717:744  msg.sender != accessAddress */\n      eq\n        /* \"AmphiTrans.sol\":714:817  if(msg.sender != accessAddress) {\r... */\n      tag_423\n      jumpi\n        /* \"AmphiTrans.sol\":769:805  AccessError(\"Error Access Address!\") */\n      mload(0x40)\n      shl(0xe4, 0x048e2d49)\n      dup2\n      mstore\n      0x04\n      add\n      tag_291\n      swap1\n      tag_292\n      jump\t// in\n        /* \"AmphiTrans.sol\":714:817  if(msg.sender != accessAddress) {\r... */\n    tag_423:\n        /* \"AmphiTrans.sol\":11670:11687  transInfo[_index] */\n      0x00\n      swap3\n      dup4\n      mstore\n        /* \"AmphiTrans.sol\":11670:11679  transInfo */\n      0x03\n        /* \"AmphiTrans.sol\":11670:11687  transInfo[_index] */\n      0x20\n      swap1\n      dup2\n      mstore\n      0x40\n      dup1\n      dup6\n      keccak256\n      sub(shl(0xa0, 0x01), 0x01)\n        /* \"AmphiTrans.sol\":11670:11701  transInfo[_index][_taskerIndex] */\n      swap1\n      swap5\n      and\n      dup6\n      mstore\n      swap3\n      dup2\n      mstore\n      swap2\n      dup4\n      keccak256\n        /* \"AmphiTrans.sol\":11670:11728  transInfo[_index][_taskerIndex].taskIndex.push(_fileIndex) */\n      dup1\n      sload\n      0x01\n      dup2\n      add\n      dup3\n      sstore\n      swap1\n      dup5\n      mstore\n      swap2\n      swap1\n      swap3\n      keccak256\n      add\n      sstore\n        /* \"AmphiTrans.sol\":11523:11736  function pushTaskTransIndex(\r... */\n      jump\t// out\n        /* \"AmphiTrans.sol\":11988:12124  function addTranslators(uint256 _index, address _address) public isAccess {\r... */\n    tag_124:\n        /* \"AmphiTrans.sol\":731:744  accessAddress */\n      and(sub(shl(0xa0, 0x01), 0x01), sload(0x06))\n        /* \"AmphiTrans.sol\":717:727  msg.sender */\n      caller\n        /* \"AmphiTrans.sol\":717:744  msg.sender != accessAddress */\n      eq\n        /* \"AmphiTrans.sol\":714:817  if(msg.sender != accessAddress) {\r... */\n      tag_428\n      jumpi\n        /* \"AmphiTrans.sol\":769:805  AccessError(\"Error Access Address!\") */\n      mload(0x40)\n      shl(0xe4, 0x048e2d49)\n      dup2\n      mstore\n      0x04\n      add\n      tag_291\n      swap1\n      tag_292\n      jump\t// in\n        /* \"AmphiTrans.sol\":714:817  if(msg.sender != accessAddress) {\r... */\n    tag_428:\n        /* \"AmphiTrans.sol\":12073:12089  taskList[_index] */\n      0x00\n      swap2\n      dup3\n      mstore\n        /* \"AmphiTrans.sol\":12073:12081  taskList */\n      0x01\n        /* \"AmphiTrans.sol\":12073:12089  taskList[_index] */\n      0x20\n      dup2\n      dup2\n      mstore\n      0x40\n      dup5\n      keccak256\n        /* \"AmphiTrans.sol\":12073:12101  taskList[_index].translators */\n      0x0d\n      add\n        /* \"AmphiTrans.sol\":12073:12116  taskList[_index].translators.push(_address) */\n      dup1\n      sload\n      swap3\n      dup4\n      add\n      dup2\n      sstore\n      dup5\n      mstore\n      swap1\n      swap3\n      keccak256\n      swap1\n      swap2\n      add\n      dup1\n      sload\n      not(sub(shl(0xa0, 0x01), 0x01))\n      and\n      sub(shl(0xa0, 0x01), 0x01)\n      swap1\n      swap3\n      and\n      swap2\n      swap1\n      swap2\n      or\n      swap1\n      sstore\n        /* \"AmphiTrans.sol\":11988:12124  function addTranslators(uint256 _index, address _address) public isAccess {\r... */\n      jump\t// out\n        /* \"AmphiTrans.sol\":15516:15991  function submitFileByTrans(\r... */\n    tag_127:\n        /* \"AmphiTrans.sol\":731:744  accessAddress */\n      sload(0x06)\n        /* \"AmphiTrans.sol\":15689:15696  uint256 */\n      0x00\n      swap1\n      sub(shl(0xa0, 0x01), 0x01)\n        /* \"AmphiTrans.sol\":731:744  accessAddress */\n      and\n        /* \"AmphiTrans.sol\":717:727  msg.sender */\n      caller\n        /* \"AmphiTrans.sol\":717:744  msg.sender != accessAddress */\n      eq\n        /* \"AmphiTrans.sol\":714:817  if(msg.sender != accessAddress) {\r... */\n      tag_433\n      jumpi\n        /* \"AmphiTrans.sol\":769:805  AccessError(\"Error Access Address!\") */\n      mload(0x40)\n      shl(0xe4, 0x048e2d49)\n      dup2\n      mstore\n      0x04\n      add\n      tag_291\n      swap1\n      tag_292\n      jump\t// in\n        /* \"AmphiTrans.sol\":714:817  if(msg.sender != accessAddress) {\r... */\n    tag_433:\n        /* \"AmphiTrans.sol\":15708:15721  uint256 _time */\n      0x00\n        /* \"AmphiTrans.sol\":15750:15766  taskList[_index] */\n      dup6\n      dup2\n      mstore\n        /* \"AmphiTrans.sol\":15750:15758  taskList */\n      0x01\n        /* \"AmphiTrans.sol\":15750:15766  taskList[_index] */\n      0x20\n      mstore\n      0x40\n      swap1\n      keccak256\n        /* \"AmphiTrans.sol\":15750:15772  taskList[_index].tasks */\n      0x0c\n      add\n        /* \"AmphiTrans.sol\":15750:15784  taskList[_index].tasks[_fileIndex] */\n      dup1\n      sload\n        /* \"AmphiTrans.sol\":15724:15739  block.timestamp */\n      timestamp\n      swap2\n      dup3\n      swap2\n        /* \"AmphiTrans.sol\":15773:15783  _fileIndex */\n      dup7\n      swap1\n        /* \"AmphiTrans.sol\":15750:15784  taskList[_index].tasks[_fileIndex] */\n      dup2\n      lt\n      tag_437\n      jumpi\n      tag_437\n      tag_296\n      jump\t// in\n    tag_437:\n      0x00\n      swap2\n      dup3\n      mstore\n      0x20\n      dup1\n      dup4\n      keccak256\n        /* \"AmphiTrans.sol\":15750:15795  taskList[_index].tasks[_fileIndex].lastUpload */\n      0x0a\n        /* \"AmphiTrans.sol\":15750:15784  taskList[_index].tasks[_fileIndex] */\n      0x0b\n      swap1\n      swap4\n      mul\n      add\n        /* \"AmphiTrans.sol\":15750:15795  taskList[_index].tasks[_fileIndex].lastUpload */\n      swap2\n      swap1\n      swap2\n      add\n        /* \"AmphiTrans.sol\":15750:15803  taskList[_index].tasks[_fileIndex].lastUpload = _time */\n      swap3\n      swap1\n      swap3\n      sstore\n        /* \"AmphiTrans.sol\":15814:15831  transInfo[_index] */\n      dup8\n      dup2\n      mstore\n        /* \"AmphiTrans.sol\":15814:15823  transInfo */\n      0x03\n        /* \"AmphiTrans.sol\":15814:15831  transInfo[_index] */\n      dup3\n      mstore\n      0x40\n      dup1\n      dup3\n      keccak256\n      sub(shl(0xa0, 0x01), 0x01)\n        /* \"AmphiTrans.sol\":15814:15845  transInfo[_index][_taskerIndex] */\n      dup10\n      and\n      dup4\n      mstore\n      dup4\n      mstore\n      dup1\n      dup3\n      keccak256\n        /* \"AmphiTrans.sol\":15814:15862  transInfo[_index][_taskerIndex].info[_fileIndex] */\n      dup8\n      dup4\n      mstore\n        /* \"AmphiTrans.sol\":15814:15850  transInfo[_index][_taskerIndex].info */\n      0x02\n      add\n        /* \"AmphiTrans.sol\":15814:15862  transInfo[_index][_taskerIndex].info[_fileIndex] */\n      dup4\n      mstore\n      swap1\n      keccak256\n        /* \"AmphiTrans.sol\":15814:15875  transInfo[_index][_taskerIndex].info[_fileIndex].file = _file */\n      dup5\n      mload\n      tag_298\n      swap3\n        /* \"AmphiTrans.sol\":15814:15867  transInfo[_index][_taskerIndex].info[_fileIndex].file */\n      0x01\n      swap1\n      swap3\n      add\n      swap2\n        /* \"AmphiTrans.sol\":15814:15875  transInfo[_index][_taskerIndex].info[_fileIndex].file = _file */\n      dup7\n      add\n      swap1\n      tag_299\n      jump\t// in\n        /* \"AmphiTrans.sol\":9092:9240  function addVfWaitNumber(uint256 _index,address _address,uint256 _number) public isAccess{\r... */\n    tag_131:\n        /* \"AmphiTrans.sol\":731:744  accessAddress */\n      and(sub(shl(0xa0, 0x01), 0x01), sload(0x06))\n        /* \"AmphiTrans.sol\":717:727  msg.sender */\n      caller\n        /* \"AmphiTrans.sol\":717:744  msg.sender != accessAddress */\n      eq\n        /* \"AmphiTrans.sol\":714:817  if(msg.sender != accessAddress) {\r... */\n      tag_441\n      jumpi\n        /* \"AmphiTrans.sol\":769:805  AccessError(\"Error Access Address!\") */\n      mload(0x40)\n      shl(0xe4, 0x048e2d49)\n      dup2\n      mstore\n      0x04\n      add\n      tag_291\n      swap1\n      tag_292\n      jump\t// in\n        /* \"AmphiTrans.sol\":714:817  if(msg.sender != accessAddress) {\r... */\n    tag_441:\n        /* \"AmphiTrans.sol\":9192:9206  vfInfo[_index] */\n      0x00\n      dup4\n      dup2\n      mstore\n        /* \"AmphiTrans.sol\":9192:9198  vfInfo */\n      0x04\n        /* \"AmphiTrans.sol\":9192:9206  vfInfo[_index] */\n      0x20\n      swap1\n      dup2\n      mstore\n      0x40\n      dup1\n      dup4\n      keccak256\n      sub(shl(0xa0, 0x01), 0x01)\n        /* \"AmphiTrans.sol\":9192:9216  vfInfo[_index][_address] */\n      dup7\n      and\n      dup5\n      mstore\n      swap1\n      swap2\n      mstore\n      dup2\n      keccak256\n        /* \"AmphiTrans.sol\":9192:9223  vfInfo[_index][_address].number */\n      0x01\n      add\n        /* \"AmphiTrans.sol\":9192:9232  vfInfo[_index][_address].number+=_number */\n      dup1\n      sload\n        /* \"AmphiTrans.sol\":9225:9232  _number */\n      dup4\n      swap3\n        /* \"AmphiTrans.sol\":9192:9206  vfInfo[_index] */\n      swap1\n        /* \"AmphiTrans.sol\":9192:9232  vfInfo[_index][_address].number+=_number */\n      tag_444\n      swap1\n        /* \"AmphiTrans.sol\":9225:9232  _number */\n      dup5\n      swap1\n        /* \"AmphiTrans.sol\":9192:9232  vfInfo[_index][_address].number+=_number */\n      tag_330\n      jump\t// in\n    tag_444:\n      swap1\n      swap2\n      sstore\n      pop\n      pop\n      pop\n      pop\n      pop\n        /* \"AmphiTrans.sol\":9092:9240  function addVfWaitNumber(uint256 _index,address _address,uint256 _number) public isAccess{\r... */\n      jump\t// out\n        /* \"AmphiTrans.sol\":1260:1374  function deductPay(address _tasker, uint256 _money) external isAccess{\r... */\n    tag_139:\n        /* \"AmphiTrans.sol\":731:744  accessAddress */\n      and(sub(shl(0xa0, 0x01), 0x01), sload(0x06))\n        /* \"AmphiTrans.sol\":717:727  msg.sender */\n      caller\n        /* \"AmphiTrans.sol\":717:744  msg.sender != accessAddress */\n      eq\n        /* \"AmphiTrans.sol\":714:817  if(msg.sender != accessAddress) {\r... */\n      tag_447\n      jumpi\n        /* \"AmphiTrans.sol\":769:805  AccessError(\"Error Access Address!\") */\n      mload(0x40)\n      shl(0xe4, 0x048e2d49)\n      dup2\n      mstore\n      0x04\n      add\n      tag_291\n      swap1\n      tag_292\n      jump\t// in\n        /* \"AmphiTrans.sol\":714:817  if(msg.sender != accessAddress) {\r... */\n    tag_447:\n      sub(shl(0xa0, 0x01), 0x01)\n        /* \"AmphiTrans.sol\":1340:1356  payList[_tasker] */\n      dup3\n      and\n      0x00\n      swap1\n      dup2\n      mstore\n        /* \"AmphiTrans.sol\":1340:1347  payList */\n      0x02\n        /* \"AmphiTrans.sol\":1340:1356  payList[_tasker] */\n      0x20\n      mstore\n      0x40\n      dup2\n      keccak256\n        /* \"AmphiTrans.sol\":1340:1366  payList[_tasker] -= _money */\n      dup1\n      sload\n        /* \"AmphiTrans.sol\":1360:1366  _money */\n      dup4\n      swap3\n        /* \"AmphiTrans.sol\":1340:1356  payList[_tasker] */\n      swap1\n        /* \"AmphiTrans.sol\":1340:1366  payList[_tasker] -= _money */\n      tag_329\n      swap1\n        /* \"AmphiTrans.sol\":1360:1366  _money */\n      dup5\n      swap1\n        /* \"AmphiTrans.sol\":1340:1366  payList[_tasker] -= _money */\n      tag_451\n      jump\t// in\n        /* \"AmphiTrans.sol\":6334:7318  function getTransTaskInfo(uint256 _index, address _address)\r... */\n    tag_151:\n        /* \"AmphiTrans.sol\":6442:6472  LibProject.ReturnTasker memory */\n      tag_454\n      tag_455\n      jump\t// in\n    tag_454:\n        /* \"AmphiTrans.sol\":6490:6532  LibProject.ReturnTasker memory _taskerInfo */\n      tag_457\n      tag_455\n      jump\t// in\n    tag_457:\n      sub(shl(0xa0, 0x01), 0x01)\n        /* \"AmphiTrans.sol\":6543:6579  _taskerInfo.taskerAddress = _address */\n      dup4\n      and\n      dup1\n      dup3\n      mstore\n        /* \"AmphiTrans.sol\":6543:6568  _taskerInfo.taskerAddress */\n      0x00\n        /* \"AmphiTrans.sol\":6614:6631  transInfo[_index] */\n      dup6\n      dup2\n      mstore\n        /* \"AmphiTrans.sol\":6614:6623  transInfo */\n      0x03\n        /* \"AmphiTrans.sol\":6614:6631  transInfo[_index] */\n      0x20\n      swap1\n      dup2\n      mstore\n      0x40\n      dup1\n      dup4\n      keccak256\n        /* \"AmphiTrans.sol\":6614:6641  transInfo[_index][_address] */\n      swap4\n      dup4\n      mstore\n      swap3\n      dup2\n      mstore\n      swap1\n      dup3\n      swap1\n      keccak256\n        /* \"AmphiTrans.sol\":6590:6651  _taskerInfo.taskIndex = transInfo[_index][_address].taskIndex */\n      dup1\n      sload\n      dup4\n      mload\n      dup2\n      dup5\n      mul\n      dup2\n      add\n      dup5\n      add\n      swap1\n      swap5\n      mstore\n      dup1\n      dup5\n      mstore\n        /* \"AmphiTrans.sol\":6614:6641  transInfo[_index][_address] */\n      swap1\n      swap2\n        /* \"AmphiTrans.sol\":6590:6651  _taskerInfo.taskIndex = transInfo[_index][_address].taskIndex */\n      dup4\n      add\n        /* \"AmphiTrans.sol\":6614:6641  transInfo[_index][_address] */\n      dup3\n        /* \"AmphiTrans.sol\":6590:6651  _taskerInfo.taskIndex = transInfo[_index][_address].taskIndex */\n      dup3\n      dup1\n      iszero\n      tag_458\n      jumpi\n      0x20\n      mul\n      dup3\n      add\n      swap2\n      swap1\n      0x00\n      mstore\n      keccak256(0x00, 0x20)\n      swap1\n    tag_459:\n      dup2\n      sload\n      dup2\n      mstore\n      0x20\n      add\n      swap1\n      0x01\n      add\n      swap1\n      dup1\n      dup4\n      gt\n      tag_459\n      jumpi\n    tag_458:\n      pop\n      pop\n      pop\n      pop\n        /* \"AmphiTrans.sol\":6590:6611  _taskerInfo.taskIndex */\n      0x20\n      dup4\n      add\n        /* \"AmphiTrans.sol\":6590:6651  _taskerInfo.taskIndex = transInfo[_index][_address].taskIndex */\n      dup3\n      swap1\n      mstore\n      pop\n        /* \"AmphiTrans.sol\":6775:6803  _taskerInfo.taskIndex.length */\n      mload\n        /* \"AmphiTrans.sol\":6662:6723  LibProject.FileIndexInfo[]\r... */\n      0x00\n      swap1\n      sub(shl(0x40, 0x01), 0x01)\n        /* \"AmphiTrans.sol\":6726:6818  new LibProject.FileIndexInfo[](\r... */\n      dup2\n      gt\n      iszero\n      tag_461\n      jumpi\n      tag_461\n      tag_462\n      jump\t// in\n    tag_461:\n      mload(0x40)\n      swap1\n      dup1\n      dup3\n      mstore\n      dup1\n      0x20\n      mul\n      0x20\n      add\n      dup3\n      add\n      0x40\n      mstore\n      dup1\n      iszero\n      tag_463\n      jumpi\n      dup2\n      0x20\n      add\n    tag_464:\n      tag_465\n      0x40\n      dup1\n      mload\n      0x60\n      dup2\n      add\n      swap1\n      swap2\n      mstore\n      dup1\n      0x00\n      dup2\n      mstore\n      0x60\n      0x20\n      dup3\n      add\n      mstore\n      0x00\n      0x40\n      swap1\n      swap2\n      add\n      mstore\n      swap1\n      jump\n    tag_465:\n      dup2\n      mstore\n      0x20\n      add\n      swap1\n      0x01\n      swap1\n      sub\n      swap1\n      dup2\n      tag_464\n      jumpi\n      swap1\n      pop\n    tag_463:\n      pop\n        /* \"AmphiTrans.sol\":6662:6818  LibProject.FileIndexInfo[]\r... */\n      swap1\n      pop\n        /* \"AmphiTrans.sol\":6886:6895  uint256 q */\n      0x00\n        /* \"AmphiTrans.sol\":6881:7232  for (uint256 q = 0; q < _taskerInfo.taskIndex.length; q++) {\r... */\n    tag_467:\n        /* \"AmphiTrans.sol\":6905:6916  _taskerInfo */\n      dup3\n        /* \"AmphiTrans.sol\":6905:6926  _taskerInfo.taskIndex */\n      0x20\n      add\n      mload\n        /* \"AmphiTrans.sol\":6905:6933  _taskerInfo.taskIndex.length */\n      mload\n        /* \"AmphiTrans.sol\":6901:6902  q */\n      dup2\n        /* \"AmphiTrans.sol\":6901:6933  q < _taskerInfo.taskIndex.length */\n      lt\n        /* \"AmphiTrans.sol\":6881:7232  for (uint256 q = 0; q < _taskerInfo.taskIndex.length; q++) {\r... */\n      iszero\n      tag_468\n      jumpi\n        /* \"AmphiTrans.sol\":6981:6998  transInfo[_index] */\n      0x00\n      dup7\n      dup2\n      mstore\n        /* \"AmphiTrans.sol\":6981:6990  transInfo */\n      0x03\n        /* \"AmphiTrans.sol\":6981:6998  transInfo[_index] */\n      0x20\n      swap1\n      dup2\n      mstore\n      0x40\n      dup1\n      dup4\n      keccak256\n      sub(shl(0xa0, 0x01), 0x01)\n        /* \"AmphiTrans.sol\":6981:7008  transInfo[_index][_address] */\n      dup10\n      and\n      dup5\n      mstore\n      dup3\n      mstore\n      dup3\n      keccak256\n        /* \"AmphiTrans.sol\":7032:7053  _taskerInfo.taskIndex */\n      swap1\n      dup6\n      add\n      mload\n        /* \"AmphiTrans.sol\":7032:7056  _taskerInfo.taskIndex[q] */\n      dup1\n      mload\n        /* \"AmphiTrans.sol\":6981:7031  transInfo[_index][_address]\r... */\n      0x02\n      swap1\n      swap3\n      add\n      swap3\n        /* \"AmphiTrans.sol\":6981:6998  transInfo[_index] */\n      swap2\n        /* \"AmphiTrans.sol\":7054:7055  q */\n      dup5\n      swap1\n        /* \"AmphiTrans.sol\":7032:7056  _taskerInfo.taskIndex[q] */\n      dup2\n      lt\n      tag_471\n      jumpi\n      tag_471\n      tag_296\n      jump\t// in\n    tag_471:\n      0x20\n      mul\n      0x20\n      add\n      add\n      mload\n        /* \"AmphiTrans.sol\":6981:7057  transInfo[_index][_address]\r... */\n      dup2\n      mstore\n      0x20\n      add\n      swap1\n      dup2\n      mstore\n      0x20\n      add\n      0x00\n      keccak256\n        /* \"AmphiTrans.sol\":6981:7081  transInfo[_index][_address]\r... */\n      0x00\n      add\n      0x00\n      swap1\n      sload\n      swap1\n      0x0100\n      exp\n      swap1\n      div\n      0xff\n      and\n        /* \"AmphiTrans.sol\":6955:6969  _fileIndexInfo */\n      dup3\n        /* \"AmphiTrans.sol\":6970:6971  q */\n      dup3\n        /* \"AmphiTrans.sol\":6955:6972  _fileIndexInfo[q] */\n      dup2\n      mload\n      dup2\n      lt\n      tag_473\n      jumpi\n      tag_473\n      tag_296\n      jump\t// in\n    tag_473:\n      0x20\n      mul\n      0x20\n      add\n      add\n      mload\n        /* \"AmphiTrans.sol\":6955:6978  _fileIndexInfo[q].state */\n      0x00\n      add\n        /* \"AmphiTrans.sol\":6955:7081  _fileIndexInfo[q].state = transInfo[_index][_address]\r... */\n      swap1\n      0x04\n      dup2\n      gt\n      iszero\n      tag_475\n      jumpi\n      tag_475\n      tag_322\n      jump\t// in\n    tag_475:\n      swap1\n      dup2\n      0x04\n      dup2\n      gt\n      iszero\n      tag_477\n      jumpi\n      tag_477\n      tag_322\n      jump\t// in\n    tag_477:\n      swap1\n      mstore\n      pop\n        /* \"AmphiTrans.sol\":7121:7138  transInfo[_index] */\n      0x00\n      dup7\n      dup2\n      mstore\n        /* \"AmphiTrans.sol\":7121:7130  transInfo */\n      0x03\n        /* \"AmphiTrans.sol\":7121:7138  transInfo[_index] */\n      0x20\n      swap1\n      dup2\n      mstore\n      0x40\n      dup1\n      dup4\n      keccak256\n      sub(shl(0xa0, 0x01), 0x01)\n        /* \"AmphiTrans.sol\":7121:7148  transInfo[_index][_address] */\n      dup10\n      and\n      dup5\n      mstore\n      dup3\n      mstore\n      dup3\n      keccak256\n        /* \"AmphiTrans.sol\":7172:7193  _taskerInfo.taskIndex */\n      swap1\n      dup6\n      add\n      mload\n        /* \"AmphiTrans.sol\":7172:7196  _taskerInfo.taskIndex[q] */\n      dup1\n      mload\n        /* \"AmphiTrans.sol\":7121:7171  transInfo[_index][_address]\r... */\n      0x02\n      swap1\n      swap3\n      add\n      swap3\n        /* \"AmphiTrans.sol\":7121:7138  transInfo[_index] */\n      swap2\n        /* \"AmphiTrans.sol\":7194:7195  q */\n      dup5\n      swap1\n        /* \"AmphiTrans.sol\":7172:7196  _taskerInfo.taskIndex[q] */\n      dup2\n      lt\n      tag_479\n      jumpi\n      tag_479\n      tag_296\n      jump\t// in\n    tag_479:\n      0x20\n      mul\n      0x20\n      add\n      add\n      mload\n        /* \"AmphiTrans.sol\":7121:7197  transInfo[_index][_address]\r... */\n      dup2\n      mstore\n      0x20\n      add\n      swap1\n      dup2\n      mstore\n      0x20\n      add\n      0x00\n      keccak256\n        /* \"AmphiTrans.sol\":7121:7220  transInfo[_index][_address]\r... */\n      0x01\n      add\n        /* \"AmphiTrans.sol\":7096:7220  _fileIndexInfo[q].file = transInfo[_index][_address]\r... */\n      dup1\n      sload\n      tag_480\n      swap1\n      tag_305\n      jump\t// in\n    tag_480:\n      dup1\n      0x1f\n      add\n      0x20\n      dup1\n      swap2\n      div\n      mul\n      0x20\n      add\n      mload(0x40)\n      swap1\n      dup2\n      add\n      0x40\n      mstore\n      dup1\n      swap3\n      swap2\n      swap1\n      dup2\n      dup2\n      mstore\n      0x20\n      add\n      dup3\n      dup1\n      sload\n      tag_481\n      swap1\n      tag_305\n      jump\t// in\n    tag_481:\n      dup1\n      iszero\n      tag_482\n      jumpi\n      dup1\n      0x1f\n      lt\n      tag_483\n      jumpi\n      0x0100\n      dup1\n      dup4\n      sload\n      div\n      mul\n      dup4\n      mstore\n      swap2\n      0x20\n      add\n      swap2\n      jump(tag_482)\n    tag_483:\n      dup3\n      add\n      swap2\n      swap1\n      0x00\n      mstore\n      keccak256(0x00, 0x20)\n      swap1\n    tag_484:\n      dup2\n      sload\n      dup2\n      mstore\n      swap1\n      0x01\n      add\n      swap1\n      0x20\n      add\n      dup1\n      dup4\n      gt\n      tag_484\n      jumpi\n      dup3\n      swap1\n      sub\n      0x1f\n      and\n      dup3\n      add\n      swap2\n    tag_482:\n      pop\n      pop\n      pop\n      pop\n      pop\n        /* \"AmphiTrans.sol\":7096:7110  _fileIndexInfo */\n      dup3\n        /* \"AmphiTrans.sol\":7111:7112  q */\n      dup3\n        /* \"AmphiTrans.sol\":7096:7113  _fileIndexInfo[q] */\n      dup2\n      mload\n      dup2\n      lt\n      tag_486\n      jumpi\n      tag_486\n      tag_296\n      jump\t// in\n    tag_486:\n      0x20\n      mul\n      0x20\n      add\n      add\n      mload\n        /* \"AmphiTrans.sol\":7096:7118  _fileIndexInfo[q].file */\n      0x20\n      add\n        /* \"AmphiTrans.sol\":7096:7220  _fileIndexInfo[q].file = transInfo[_index][_address]\r... */\n      dup2\n      swap1\n      mstore\n      pop\n        /* \"AmphiTrans.sol\":6935:6938  q++ */\n      dup1\n      dup1\n      tag_487\n      swap1\n      tag_366\n      jump\t// in\n    tag_487:\n      swap2\n      pop\n      pop\n        /* \"AmphiTrans.sol\":6881:7232  for (uint256 q = 0; q < _taskerInfo.taskIndex.length; q++) {\r... */\n      jump(tag_467)\n    tag_468:\n      pop\n        /* \"AmphiTrans.sol\":7242:7264  _taskerInfo.taskerinfo */\n      0x40\n      dup3\n      add\n        /* \"AmphiTrans.sol\":7242:7281  _taskerInfo.taskerinfo = _fileIndexInfo */\n      mstore\n        /* \"AmphiTrans.sol\":7242:7264  _taskerInfo.taskerinfo */\n      swap4\n        /* \"AmphiTrans.sol\":6334:7318  function getTransTaskInfo(uint256 _index, address _address)\r... */\n      swap3\n      pop\n      pop\n      pop\n      jump\t// out\n        /* \"AmphiTrans.sol\":10725:10918  function changeTransActive(uint256 _index, bool _bool) public isAccess {\r... */\n    tag_157:\n        /* \"AmphiTrans.sol\":731:744  accessAddress */\n      and(sub(shl(0xa0, 0x01), 0x01), sload(0x06))\n        /* \"AmphiTrans.sol\":717:727  msg.sender */\n      caller\n        /* \"AmphiTrans.sol\":717:744  msg.sender != accessAddress */\n      eq\n        /* \"AmphiTrans.sol\":714:817  if(msg.sender != accessAddress) {\r... */\n      tag_489\n      jumpi\n        /* \"AmphiTrans.sol\":769:805  AccessError(\"Error Access Address!\") */\n      mload(0x40)\n      shl(0xe4, 0x048e2d49)\n      dup2\n      mstore\n      0x04\n      add\n      tag_291\n      swap1\n      tag_292\n      jump\t// in\n        /* \"AmphiTrans.sol\":714:817  if(msg.sender != accessAddress) {\r... */\n    tag_489:\n        /* \"AmphiTrans.sol\":10807:10823  taskList[_index] */\n      0x00\n      swap2\n      dup3\n      mstore\n        /* \"AmphiTrans.sol\":10807:10815  taskList */\n      0x01\n        /* \"AmphiTrans.sol\":10807:10823  taskList[_index] */\n      0x20\n      mstore\n      0x40\n      swap1\n      swap2\n      keccak256\n        /* \"AmphiTrans.sol\":10807:10837  taskList[_index].isTransActive */\n      0x13\n      add\n        /* \"AmphiTrans.sol\":10807:10845  taskList[_index].isTransActive = _bool */\n      dup1\n      sload\n      not(0xff)\n      and\n      swap2\n      iszero\n      iszero\n      swap2\n      swap1\n      swap2\n      or\n      swap1\n      sstore\n        /* \"AmphiTrans.sol\":10725:10918  function changeTransActive(uint256 _index, bool _bool) public isAccess {\r... */\n      jump\t// out\n        /* \"AmphiTrans.sol\":9379:9632  function changeTaskVfState(\r... */\n    tag_160:\n        /* \"AmphiTrans.sol\":731:744  accessAddress */\n      and(sub(shl(0xa0, 0x01), 0x01), sload(0x06))\n        /* \"AmphiTrans.sol\":717:727  msg.sender */\n      caller\n        /* \"AmphiTrans.sol\":717:744  msg.sender != accessAddress */\n      eq\n        /* \"AmphiTrans.sol\":714:817  if(msg.sender != accessAddress) {\r... */\n      tag_493\n      jumpi\n        /* \"AmphiTrans.sol\":769:805  AccessError(\"Error Access Address!\") */\n      mload(0x40)\n      shl(0xe4, 0x048e2d49)\n      dup2\n      mstore\n      0x04\n      add\n      tag_291\n      swap1\n      tag_292\n      jump\t// in\n        /* \"AmphiTrans.sol\":714:817  if(msg.sender != accessAddress) {\r... */\n    tag_493:\n        /* \"AmphiTrans.sol\":9564:9578  vfInfo[_index] */\n      0x00\n      dup5\n      dup2\n      mstore\n        /* \"AmphiTrans.sol\":9564:9570  vfInfo */\n      0x04\n        /* \"AmphiTrans.sol\":9564:9578  vfInfo[_index] */\n      0x20\n      dup2\n      dup2\n      mstore\n      0x40\n      dup1\n      dup5\n      keccak256\n      sub(shl(0xa0, 0x01), 0x01)\n        /* \"AmphiTrans.sol\":9564:9592  vfInfo[_index][_taskerIndex] */\n      dup9\n      and\n      dup6\n      mstore\n      dup3\n      mstore\n      dup1\n      dup5\n      keccak256\n        /* \"AmphiTrans.sol\":9564:9609  vfInfo[_index][_taskerIndex].info[_fileIndex] */\n      dup7\n      dup6\n      mstore\n        /* \"AmphiTrans.sol\":9564:9597  vfInfo[_index][_taskerIndex].info */\n      0x02\n      add\n        /* \"AmphiTrans.sol\":9564:9609  vfInfo[_index][_taskerIndex].info[_fileIndex] */\n      swap1\n      swap2\n      mstore\n      swap1\n      swap2\n      keccak256\n        /* \"AmphiTrans.sol\":9564:9624  vfInfo[_index][_taskerIndex].info[_fileIndex].state = _state */\n      dup1\n      sload\n        /* \"AmphiTrans.sol\":9618:9624  _state */\n      dup4\n      swap3\n      not(0xff)\n        /* \"AmphiTrans.sol\":9564:9624  vfInfo[_index][_taskerIndex].info[_fileIndex].state = _state */\n      swap1\n      swap2\n      and\n      swap1\n      0x01\n      swap1\n        /* \"AmphiTrans.sol\":9618:9624  _state */\n      dup5\n      swap1\n        /* \"AmphiTrans.sol\":9564:9624  vfInfo[_index][_taskerIndex].info[_fileIndex].state = _state */\n      dup2\n      gt\n      iszero\n      tag_343\n      jumpi\n      tag_343\n      tag_322\n      jump\t// in\n        /* \"AmphiTrans.sol\":964:1027  function addCount() external isAccess{\r... */\n    tag_162:\n        /* \"AmphiTrans.sol\":731:744  accessAddress */\n      and(sub(shl(0xa0, 0x01), 0x01), sload(0x06))\n        /* \"AmphiTrans.sol\":717:727  msg.sender */\n      caller\n        /* \"AmphiTrans.sol\":717:744  msg.sender != accessAddress */\n      eq\n        /* \"AmphiTrans.sol\":714:817  if(msg.sender != accessAddress) {\r... */\n      tag_499\n      jumpi\n        /* \"AmphiTrans.sol\":769:805  AccessError(\"Error Access Address!\") */\n      mload(0x40)\n      shl(0xe4, 0x048e2d49)\n      dup2\n      mstore\n      0x04\n      add\n      tag_291\n      swap1\n      tag_292\n      jump\t// in\n        /* \"AmphiTrans.sol\":714:817  if(msg.sender != accessAddress) {\r... */\n    tag_499:\n        /* \"AmphiTrans.sol\":1014:1019  count */\n      0x05\n      0x00\n        /* \"AmphiTrans.sol\":1012:1019  ++count */\n      dup2\n      sload\n      tag_502\n      swap1\n      tag_366\n      jump\t// in\n    tag_502:\n      swap1\n      swap2\n      sstore\n      pop\n        /* \"AmphiTrans.sol\":964:1027  function addCount() external isAccess{\r... */\n      jump\t// out\n        /* \"AmphiTrans.sol\":12437:12599  function isUsedToVf(uint256 _index, uint256 _fileIndex,address _address) public isAccess{\r... */\n    tag_166:\n        /* \"AmphiTrans.sol\":731:744  accessAddress */\n      and(sub(shl(0xa0, 0x01), 0x01), sload(0x06))\n        /* \"AmphiTrans.sol\":717:727  msg.sender */\n      caller\n        /* \"AmphiTrans.sol\":717:744  msg.sender != accessAddress */\n      eq\n        /* \"AmphiTrans.sol\":714:817  if(msg.sender != accessAddress) {\r... */\n      tag_504\n      jumpi\n        /* \"AmphiTrans.sol\":769:805  AccessError(\"Error Access Address!\") */\n      mload(0x40)\n      shl(0xe4, 0x048e2d49)\n      dup2\n      mstore\n      0x04\n      add\n      tag_291\n      swap1\n      tag_292\n      jump\t// in\n        /* \"AmphiTrans.sol\":714:817  if(msg.sender != accessAddress) {\r... */\n    tag_504:\n        /* \"AmphiTrans.sol\":12536:12550  vfInfo[_index] */\n      0x00\n      swap3\n      dup4\n      mstore\n        /* \"AmphiTrans.sol\":12536:12542  vfInfo */\n      0x04\n        /* \"AmphiTrans.sol\":12536:12550  vfInfo[_index] */\n      0x20\n      swap1\n      dup2\n      mstore\n      0x40\n      dup1\n      dup6\n      keccak256\n      sub(shl(0xa0, 0x01), 0x01)\n        /* \"AmphiTrans.sol\":12536:12560  vfInfo[_index][_address] */\n      swap1\n      swap4\n      and\n      dup6\n      mstore\n      swap2\n      dup2\n      mstore\n      dup2\n      dup5\n      keccak256\n        /* \"AmphiTrans.sol\":12536:12577  vfInfo[_index][_address].info[_fileIndex] */\n      swap3\n      dup5\n      mstore\n        /* \"AmphiTrans.sol\":12536:12565  vfInfo[_index][_address].info */\n      0x02\n      swap3\n      dup4\n      add\n        /* \"AmphiTrans.sol\":12536:12577  vfInfo[_index][_address].info[_fileIndex] */\n      swap1\n      mstore\n      swap1\n      swap2\n      keccak256\n        /* \"AmphiTrans.sol\":12536:12584  vfInfo[_index][_address].info[_fileIndex].isUsed */\n      add\n        /* \"AmphiTrans.sol\":12536:12591  vfInfo[_index][_address].info[_fileIndex].isUsed = true */\n      dup1\n      sload\n      not(0xff)\n      and\n        /* \"AmphiTrans.sol\":12587:12591  true */\n      0x01\n        /* \"AmphiTrans.sol\":12536:12591  vfInfo[_index][_address].info[_fileIndex].isUsed = true */\n      or\n      swap1\n      sstore\n        /* \"AmphiTrans.sol\":12437:12599  function isUsedToVf(uint256 _index, uint256 _fileIndex,address _address) public isAccess{\r... */\n      jump\t// out\n        /* \"contracts/access/Ownable.sol\":1831:1932  function renounceOwnership() public virtual onlyOwner {... */\n    tag_172:\n        /* \"contracts/access/Ownable.sol\":1094:1107  _checkOwner() */\n      tag_509\n        /* \"contracts/access/Ownable.sol\":1094:1105  _checkOwner */\n      tag_510\n        /* \"contracts/access/Ownable.sol\":1094:1107  _checkOwner() */\n      jump\t// in\n    tag_509:\n        /* \"contracts/access/Ownable.sol\":1895:1925  _transferOwnership(address(0)) */\n      tag_512\n        /* \"contracts/access/Ownable.sol\":1922:1923  0 */\n      0x00\n        /* \"contracts/access/Ownable.sol\":1895:1913  _transferOwnership */\n      tag_513\n        /* \"contracts/access/Ownable.sol\":1895:1925  _transferOwnership(address(0)) */\n      jump\t// in\n    tag_512:\n        /* \"contracts/access/Ownable.sol\":1831:1932  function renounceOwnership() public virtual onlyOwner {... */\n      jump\t// out\n        /* \"AmphiTrans.sol\":9246:9373  function decutVfWaitNumber(uint256 _index,address _address) public isAccess{\r... */\n    tag_179:\n        /* \"AmphiTrans.sol\":731:744  accessAddress */\n      and(sub(shl(0xa0, 0x01), 0x01), sload(0x06))\n        /* \"AmphiTrans.sol\":717:727  msg.sender */\n      caller\n        /* \"AmphiTrans.sol\":717:744  msg.sender != accessAddress */\n      eq\n        /* \"AmphiTrans.sol\":714:817  if(msg.sender != accessAddress) {\r... */\n      tag_516\n      jumpi\n        /* \"AmphiTrans.sol\":769:805  AccessError(\"Error Access Address!\") */\n      mload(0x40)\n      shl(0xe4, 0x048e2d49)\n      dup2\n      mstore\n      0x04\n      add\n      tag_291\n      swap1\n      tag_292\n      jump\t// in\n        /* \"AmphiTrans.sol\":714:817  if(msg.sender != accessAddress) {\r... */\n    tag_516:\n        /* \"AmphiTrans.sol\":9332:9346  vfInfo[_index] */\n      0x00\n      dup3\n      dup2\n      mstore\n        /* \"AmphiTrans.sol\":9332:9338  vfInfo */\n      0x04\n        /* \"AmphiTrans.sol\":9332:9346  vfInfo[_index] */\n      0x20\n      swap1\n      dup2\n      mstore\n      0x40\n      dup1\n      dup4\n      keccak256\n      sub(shl(0xa0, 0x01), 0x01)\n        /* \"AmphiTrans.sol\":9332:9356  vfInfo[_index][_address] */\n      dup6\n      and\n      dup5\n      mstore\n      swap1\n      swap2\n      mstore\n      dup2\n      keccak256\n        /* \"AmphiTrans.sol\":9332:9363  vfInfo[_index][_address].number */\n      0x01\n      add\n        /* \"AmphiTrans.sol\":9332:9365  vfInfo[_index][_address].number-- */\n      dup1\n      sload\n      swap2\n      tag_519\n      dup4\n      tag_520\n      jump\t// in\n    tag_519:\n      swap2\n      swap1\n      pop\n      sstore\n      pop\n        /* \"AmphiTrans.sol\":9246:9373  function decutVfWaitNumber(uint256 _index,address _address) public isAccess{\r... */\n      pop\n      pop\n      jump\t// out\n        /* \"AmphiTrans.sol\":7545:8465  function getVfTaskInfo(uint256 _index, address _address)\r... */\n    tag_186:\n        /* \"AmphiTrans.sol\":7650:7680  LibProject.ReturnTasker memory */\n      tag_522\n      tag_455\n      jump\t// in\n    tag_522:\n        /* \"AmphiTrans.sol\":7698:7740  LibProject.ReturnTasker memory _taskerInfo */\n      tag_524\n      tag_455\n      jump\t// in\n    tag_524:\n      sub(shl(0xa0, 0x01), 0x01)\n        /* \"AmphiTrans.sol\":7751:7787  _taskerInfo.taskerAddress = _address */\n      dup4\n      and\n      dup1\n      dup3\n      mstore\n        /* \"AmphiTrans.sol\":7751:7776  _taskerInfo.taskerAddress */\n      0x00\n        /* \"AmphiTrans.sol\":7822:7836  vfInfo[_index] */\n      dup6\n      dup2\n      mstore\n        /* \"AmphiTrans.sol\":7822:7828  vfInfo */\n      0x04\n        /* \"AmphiTrans.sol\":7822:7836  vfInfo[_index] */\n      0x20\n      swap1\n      dup2\n      mstore\n      0x40\n      dup1\n      dup4\n      keccak256\n        /* \"AmphiTrans.sol\":7822:7846  vfInfo[_index][_address] */\n      swap4\n      dup4\n      mstore\n      swap3\n      dup2\n      mstore\n      swap1\n      dup3\n      swap1\n      keccak256\n        /* \"AmphiTrans.sol\":7798:7856  _taskerInfo.taskIndex = vfInfo[_index][_address].taskIndex */\n      dup1\n      sload\n      dup4\n      mload\n      dup2\n      dup5\n      mul\n      dup2\n      add\n      dup5\n      add\n      swap1\n      swap5\n      mstore\n      dup1\n      dup5\n      mstore\n        /* \"AmphiTrans.sol\":7822:7846  vfInfo[_index][_address] */\n      swap1\n      swap2\n        /* \"AmphiTrans.sol\":7798:7856  _taskerInfo.taskIndex = vfInfo[_index][_address].taskIndex */\n      dup4\n      add\n        /* \"AmphiTrans.sol\":7822:7846  vfInfo[_index][_address] */\n      dup3\n        /* \"AmphiTrans.sol\":7798:7856  _taskerInfo.taskIndex = vfInfo[_index][_address].taskIndex */\n      dup3\n      dup1\n      iszero\n      tag_525\n      jumpi\n      0x20\n      mul\n      dup3\n      add\n      swap2\n      swap1\n      0x00\n      mstore\n      keccak256(0x00, 0x20)\n      swap1\n    tag_526:\n      dup2\n      sload\n      dup2\n      mstore\n      0x20\n      add\n      swap1\n      0x01\n      add\n      swap1\n      dup1\n      dup4\n      gt\n      tag_526\n      jumpi\n    tag_525:\n      pop\n      pop\n      pop\n      pop\n        /* \"AmphiTrans.sol\":7798:7819  _taskerInfo.taskIndex */\n      0x20\n      dup4\n      add\n        /* \"AmphiTrans.sol\":7798:7856  _taskerInfo.taskIndex = vfInfo[_index][_address].taskIndex */\n      dup3\n      swap1\n      mstore\n      pop\n        /* \"AmphiTrans.sol\":7980:8008  _taskerInfo.taskIndex.length */\n      mload\n        /* \"AmphiTrans.sol\":7867:7928  LibProject.FileIndexInfo[]\r... */\n      0x00\n      swap1\n      sub(shl(0x40, 0x01), 0x01)\n        /* \"AmphiTrans.sol\":7931:8023  new LibProject.FileIndexInfo[](\r... */\n      dup2\n      gt\n      iszero\n      tag_528\n      jumpi\n      tag_528\n      tag_462\n      jump\t// in\n    tag_528:\n      mload(0x40)\n      swap1\n      dup1\n      dup3\n      mstore\n      dup1\n      0x20\n      mul\n      0x20\n      add\n      dup3\n      add\n      0x40\n      mstore\n      dup1\n      iszero\n      tag_529\n      jumpi\n      dup2\n      0x20\n      add\n    tag_530:\n      tag_531\n      0x40\n      dup1\n      mload\n      0x60\n      dup2\n      add\n      swap1\n      swap2\n      mstore\n      dup1\n      0x00\n      dup2\n      mstore\n      0x60\n      0x20\n      dup3\n      add\n      mstore\n      0x00\n      0x40\n      swap1\n      swap2\n      add\n      mstore\n      swap1\n      jump\n    tag_531:\n      dup2\n      mstore\n      0x20\n      add\n      swap1\n      0x01\n      swap1\n      sub\n      swap1\n      dup2\n      tag_530\n      jumpi\n      swap1\n      pop\n    tag_529:\n      pop\n        /* \"AmphiTrans.sol\":7867:8023  LibProject.FileIndexInfo[]\r... */\n      swap1\n      pop\n        /* \"AmphiTrans.sol\":8039:8048  uint256 q */\n      0x00\n        /* \"AmphiTrans.sol\":8034:8379  for (uint256 q = 0; q < _taskerInfo.taskIndex.length; q++) {\r... */\n    tag_532:\n        /* \"AmphiTrans.sol\":8058:8069  _taskerInfo */\n      dup3\n        /* \"AmphiTrans.sol\":8058:8079  _taskerInfo.taskIndex */\n      0x20\n      add\n      mload\n        /* \"AmphiTrans.sol\":8058:8086  _taskerInfo.taskIndex.length */\n      mload\n        /* \"AmphiTrans.sol\":8054:8055  q */\n      dup2\n        /* \"AmphiTrans.sol\":8054:8086  q < _taskerInfo.taskIndex.length */\n      lt\n        /* \"AmphiTrans.sol\":8034:8379  for (uint256 q = 0; q < _taskerInfo.taskIndex.length; q++) {\r... */\n      iszero\n      tag_468\n      jumpi\n        /* \"AmphiTrans.sol\":8134:8148  vfInfo[_index] */\n      0x00\n      dup7\n      dup2\n      mstore\n        /* \"AmphiTrans.sol\":8134:8140  vfInfo */\n      0x04\n        /* \"AmphiTrans.sol\":8134:8148  vfInfo[_index] */\n      0x20\n      swap1\n      dup2\n      mstore\n      0x40\n      dup1\n      dup4\n      keccak256\n      sub(shl(0xa0, 0x01), 0x01)\n        /* \"AmphiTrans.sol\":8134:8158  vfInfo[_index][_address] */\n      dup10\n      and\n      dup5\n      mstore\n      dup3\n      mstore\n      dup3\n      keccak256\n        /* \"AmphiTrans.sol\":8182:8203  _taskerInfo.taskIndex */\n      swap1\n      dup6\n      add\n      mload\n        /* \"AmphiTrans.sol\":8182:8206  _taskerInfo.taskIndex[q] */\n      dup1\n      mload\n        /* \"AmphiTrans.sol\":8134:8181  vfInfo[_index][_address]\r... */\n      0x02\n      swap1\n      swap3\n      add\n      swap3\n        /* \"AmphiTrans.sol\":8134:8148  vfInfo[_index] */\n      swap2\n        /* \"AmphiTrans.sol\":8204:8205  q */\n      dup5\n      swap1\n        /* \"AmphiTrans.sol\":8182:8206  _taskerInfo.taskIndex[q] */\n      dup2\n      lt\n      tag_536\n      jumpi\n      tag_536\n      tag_296\n      jump\t// in\n    tag_536:\n      0x20\n      mul\n      0x20\n      add\n      add\n      mload\n        /* \"AmphiTrans.sol\":8134:8207  vfInfo[_index][_address]\r... */\n      dup2\n      mstore\n      0x20\n      add\n      swap1\n      dup2\n      mstore\n      0x20\n      add\n      0x00\n      keccak256\n        /* \"AmphiTrans.sol\":8134:8231  vfInfo[_index][_address]\r... */\n      0x00\n      add\n      0x00\n      swap1\n      sload\n      swap1\n      0x0100\n      exp\n      swap1\n      div\n      0xff\n      and\n        /* \"AmphiTrans.sol\":8108:8122  _fileIndexInfo */\n      dup3\n        /* \"AmphiTrans.sol\":8123:8124  q */\n      dup3\n        /* \"AmphiTrans.sol\":8108:8125  _fileIndexInfo[q] */\n      dup2\n      mload\n      dup2\n      lt\n      tag_538\n      jumpi\n      tag_538\n      tag_296\n      jump\t// in\n    tag_538:\n      0x20\n      mul\n      0x20\n      add\n      add\n      mload\n        /* \"AmphiTrans.sol\":8108:8131  _fileIndexInfo[q].state */\n      0x00\n      add\n        /* \"AmphiTrans.sol\":8108:8231  _fileIndexInfo[q].state = vfInfo[_index][_address]\r... */\n      swap1\n      0x04\n      dup2\n      gt\n      iszero\n      tag_540\n      jumpi\n      tag_540\n      tag_322\n      jump\t// in\n    tag_540:\n      swap1\n      dup2\n      0x04\n      dup2\n      gt\n      iszero\n      tag_542\n      jumpi\n      tag_542\n      tag_322\n      jump\t// in\n    tag_542:\n      swap1\n      mstore\n      pop\n        /* \"AmphiTrans.sol\":8271:8285  vfInfo[_index] */\n      0x00\n      dup7\n      dup2\n      mstore\n        /* \"AmphiTrans.sol\":8271:8277  vfInfo */\n      0x04\n        /* \"AmphiTrans.sol\":8271:8285  vfInfo[_index] */\n      0x20\n      swap1\n      dup2\n      mstore\n      0x40\n      dup1\n      dup4\n      keccak256\n      sub(shl(0xa0, 0x01), 0x01)\n        /* \"AmphiTrans.sol\":8271:8295  vfInfo[_index][_address] */\n      dup10\n      and\n      dup5\n      mstore\n      dup3\n      mstore\n      dup3\n      keccak256\n        /* \"AmphiTrans.sol\":8319:8340  _taskerInfo.taskIndex */\n      swap1\n      dup6\n      add\n      mload\n        /* \"AmphiTrans.sol\":8319:8343  _taskerInfo.taskIndex[q] */\n      dup1\n      mload\n        /* \"AmphiTrans.sol\":8271:8318  vfInfo[_index][_address]\r... */\n      0x02\n      swap1\n      swap3\n      add\n      swap3\n        /* \"AmphiTrans.sol\":8271:8285  vfInfo[_index] */\n      swap2\n        /* \"AmphiTrans.sol\":8341:8342  q */\n      dup5\n      swap1\n        /* \"AmphiTrans.sol\":8319:8343  _taskerInfo.taskIndex[q] */\n      dup2\n      lt\n      tag_544\n      jumpi\n      tag_544\n      tag_296\n      jump\t// in\n    tag_544:\n      0x20\n      mul\n      0x20\n      add\n      add\n      mload\n        /* \"AmphiTrans.sol\":8271:8344  vfInfo[_index][_address]\r... */\n      dup2\n      mstore\n      0x20\n      add\n      swap1\n      dup2\n      mstore\n      0x20\n      add\n      0x00\n      keccak256\n        /* \"AmphiTrans.sol\":8271:8367  vfInfo[_index][_address]\r... */\n      0x01\n      add\n        /* \"AmphiTrans.sol\":8246:8367  _fileIndexInfo[q].file = vfInfo[_index][_address]\r... */\n      dup1\n      sload\n      tag_545\n      swap1\n      tag_305\n      jump\t// in\n    tag_545:\n      dup1\n      0x1f\n      add\n      0x20\n      dup1\n      swap2\n      div\n      mul\n      0x20\n      add\n      mload(0x40)\n      swap1\n      dup2\n      add\n      0x40\n      mstore\n      dup1\n      swap3\n      swap2\n      swap1\n      dup2\n      dup2\n      mstore\n      0x20\n      add\n      dup3\n      dup1\n      sload\n      tag_546\n      swap1\n      tag_305\n      jump\t// in\n    tag_546:\n      dup1\n      iszero\n      tag_547\n      jumpi\n      dup1\n      0x1f\n      lt\n      tag_548\n      jumpi\n      0x0100\n      dup1\n      dup4\n      sload\n      div\n      mul\n      dup4\n      mstore\n      swap2\n      0x20\n      add\n      swap2\n      jump(tag_547)\n    tag_548:\n      dup3\n      add\n      swap2\n      swap1\n      0x00\n      mstore\n      keccak256(0x00, 0x20)\n      swap1\n    tag_549:\n      dup2\n      sload\n      dup2\n      mstore\n      swap1\n      0x01\n      add\n      swap1\n      0x20\n      add\n      dup1\n      dup4\n      gt\n      tag_549\n      jumpi\n      dup3\n      swap1\n      sub\n      0x1f\n      and\n      dup3\n      add\n      swap2\n    tag_547:\n      pop\n      pop\n      pop\n      pop\n      pop\n        /* \"AmphiTrans.sol\":8246:8260  _fileIndexInfo */\n      dup3\n        /* \"AmphiTrans.sol\":8261:8262  q */\n      dup3\n        /* \"AmphiTrans.sol\":8246:8263  _fileIndexInfo[q] */\n      dup2\n      mload\n      dup2\n      lt\n      tag_551\n      jumpi\n      tag_551\n      tag_296\n      jump\t// in\n    tag_551:\n      0x20\n      mul\n      0x20\n      add\n      add\n      mload\n        /* \"AmphiTrans.sol\":8246:8268  _fileIndexInfo[q].file */\n      0x20\n      add\n        /* \"AmphiTrans.sol\":8246:8367  _fileIndexInfo[q].file = vfInfo[_index][_address]\r... */\n      dup2\n      swap1\n      mstore\n      pop\n        /* \"AmphiTrans.sol\":8088:8091  q++ */\n      dup1\n      dup1\n      tag_552\n      swap1\n      tag_366\n      jump\t// in\n    tag_552:\n      swap2\n      pop\n      pop\n        /* \"AmphiTrans.sol\":8034:8379  for (uint256 q = 0; q < _taskerInfo.taskIndex.length; q++) {\r... */\n      jump(tag_532)\n        /* \"AmphiTrans.sol\":3403:3684  function isAccept(address _address,uint256 _index,uint256 _fileIndex) public view returns(bool) {\r... */\n    tag_191:\n        /* \"AmphiTrans.sol\":3493:3497  bool */\n      0x00\n        /* \"AmphiTrans.sol\":3513:3530  transInfo[_index] */\n      dup3\n      dup2\n      mstore\n        /* \"AmphiTrans.sol\":3513:3522  transInfo */\n      0x03\n        /* \"AmphiTrans.sol\":3513:3530  transInfo[_index] */\n      0x20\n      swap1\n      dup2\n      mstore\n      0x40\n      dup1\n      dup4\n      keccak256\n      sub(shl(0xa0, 0x01), 0x01)\n        /* \"AmphiTrans.sol\":3513:3540  transInfo[_index][_address] */\n      dup8\n      and\n      dup5\n      mstore\n      dup3\n      mstore\n      dup1\n      dup4\n      keccak256\n        /* \"AmphiTrans.sol\":3513:3557  transInfo[_index][_address].info[_fileIndex] */\n      dup5\n      dup5\n      mstore\n        /* \"AmphiTrans.sol\":3513:3545  transInfo[_index][_address].info */\n      0x02\n      swap1\n      dup2\n      add\n        /* \"AmphiTrans.sol\":3513:3557  transInfo[_index][_address].info[_fileIndex] */\n      swap1\n      swap3\n      mstore\n      dup3\n      keccak256\n        /* \"AmphiTrans.sol\":3513:3564  transInfo[_index][_address].info[_fileIndex].isUsed */\n      add\n      sload\n      0xff\n      and\n      dup1\n        /* \"AmphiTrans.sol\":3513:3615  transInfo[_index][_address].info[_fileIndex].isUsed|| vfInfo[_index][_address].info[_fileIndex].isUsed */\n      tag_554\n      jumpi\n      pop\n        /* \"AmphiTrans.sol\":3567:3581  vfInfo[_index] */\n      0x00\n      dup4\n      dup2\n      mstore\n        /* \"AmphiTrans.sol\":3567:3573  vfInfo */\n      0x04\n        /* \"AmphiTrans.sol\":3567:3581  vfInfo[_index] */\n      0x20\n      swap1\n      dup2\n      mstore\n      0x40\n      dup1\n      dup4\n      keccak256\n      sub(shl(0xa0, 0x01), 0x01)\n        /* \"AmphiTrans.sol\":3567:3591  vfInfo[_index][_address] */\n      dup9\n      and\n      dup5\n      mstore\n      dup3\n      mstore\n      dup1\n      dup4\n      keccak256\n        /* \"AmphiTrans.sol\":3567:3608  vfInfo[_index][_address].info[_fileIndex] */\n      dup6\n      dup5\n      mstore\n        /* \"AmphiTrans.sol\":3567:3596  vfInfo[_index][_address].info */\n      0x02\n      swap1\n      dup2\n      add\n        /* \"AmphiTrans.sol\":3567:3608  vfInfo[_index][_address].info[_fileIndex] */\n      swap1\n      swap3\n      mstore\n      swap1\n      swap2\n      keccak256\n        /* \"AmphiTrans.sol\":3567:3615  vfInfo[_index][_address].info[_fileIndex].isUsed */\n      add\n      sload\n      0xff\n      and\n        /* \"AmphiTrans.sol\":3513:3615  transInfo[_index][_address].info[_fileIndex].isUsed|| vfInfo[_index][_address].info[_fileIndex].isUsed */\n    tag_554:\n        /* \"AmphiTrans.sol\":3510:3654  if(transInfo[_index][_address].info[_fileIndex].isUsed|| vfInfo[_index][_address].info[_fileIndex].isUsed){\r... */\n      iszero\n      tag_555\n      jumpi\n      pop\n        /* \"AmphiTrans.sol\":3638:3642  true */\n      0x01\n        /* \"AmphiTrans.sol\":3631:3642  return true */\n      jump(tag_553)\n        /* \"AmphiTrans.sol\":3510:3654  if(transInfo[_index][_address].info[_fileIndex].isUsed|| vfInfo[_index][_address].info[_fileIndex].isUsed){\r... */\n    tag_555:\n      pop\n        /* \"AmphiTrans.sol\":3671:3676  false */\n      0x00\n        /* \"AmphiTrans.sol\":3403:3684  function isAccept(address _address,uint256 _index,uint256 _fileIndex) public view returns(bool) {\r... */\n    tag_553:\n      swap4\n      swap3\n      pop\n      pop\n      pop\n      jump\t// out\n        /* \"AmphiTrans.sol\":11346:11467  function addVfNumber(uint256 _index,uint256 _number) public isAccess {\r... */\n    tag_200:\n        /* \"AmphiTrans.sol\":731:744  accessAddress */\n      and(sub(shl(0xa0, 0x01), 0x01), sload(0x06))\n        /* \"AmphiTrans.sol\":717:727  msg.sender */\n      caller\n        /* \"AmphiTrans.sol\":717:744  msg.sender != accessAddress */\n      eq\n        /* \"AmphiTrans.sol\":714:817  if(msg.sender != accessAddress) {\r... */\n      tag_558\n      jumpi\n        /* \"AmphiTrans.sol\":769:805  AccessError(\"Error Access Address!\") */\n      mload(0x40)\n      shl(0xe4, 0x048e2d49)\n      dup2\n      mstore\n      0x04\n      add\n      tag_291\n      swap1\n      tag_292\n      jump\t// in\n        /* \"AmphiTrans.sol\":714:817  if(msg.sender != accessAddress) {\r... */\n    tag_558:\n        /* \"AmphiTrans.sol\":11426:11442  taskList[_index] */\n      0x00\n      dup3\n      dup2\n      mstore\n        /* \"AmphiTrans.sol\":11426:11434  taskList */\n      0x01\n        /* \"AmphiTrans.sol\":11426:11442  taskList[_index] */\n      0x20\n      mstore\n      0x40\n      dup2\n      keccak256\n        /* \"AmphiTrans.sol\":11426:11450  taskList[_index].numberV */\n      0x12\n      add\n        /* \"AmphiTrans.sol\":11426:11459  taskList[_index].numberV+=_number */\n      dup1\n      sload\n        /* \"AmphiTrans.sol\":11452:11459  _number */\n      dup4\n      swap3\n        /* \"AmphiTrans.sol\":11426:11442  taskList[_index] */\n      swap1\n        /* \"AmphiTrans.sol\":11426:11459  taskList[_index].numberV+=_number */\n      tag_329\n      swap1\n        /* \"AmphiTrans.sol\":11452:11459  _number */\n      dup5\n      swap1\n        /* \"AmphiTrans.sol\":11426:11459  taskList[_index].numberV+=_number */\n      tag_330\n      jump\t// in\n        /* \"AmphiTrans.sol\":2015:2293  function isFull(uint256 _index, bool _isTrans) public view returns (bool) {\r... */\n    tag_203:\n        /* \"AmphiTrans.sol\":2083:2087  bool */\n      0x00\n        /* \"AmphiTrans.sol\":2104:2112  _isTrans */\n      dup2\n        /* \"AmphiTrans.sol\":2100:2286  if (_isTrans) {\r... */\n      iszero\n      tag_563\n      jumpi\n      pop\n        /* \"AmphiTrans.sol\":2161:2177  taskList[_index] */\n      0x00\n      dup3\n      dup2\n      mstore\n        /* \"AmphiTrans.sol\":2161:2169  taskList */\n      0x01\n        /* \"AmphiTrans.sol\":2161:2177  taskList[_index] */\n      0x20\n      mstore\n      0x40\n      swap1\n      keccak256\n        /* \"AmphiTrans.sol\":2161:2185  taskList[_index].numberT */\n      0x11\n      dup2\n      add\n      sload\n        /* \"AmphiTrans.sol\":2136:2157  taskList[_index].maxT */\n      0x0f\n      swap1\n      swap2\n      add\n      sload\n        /* \"AmphiTrans.sol\":2136:2185  taskList[_index].maxT <= taskList[_index].numberT */\n      gt\n      iszero\n        /* \"AmphiTrans.sol\":2129:2185  return taskList[_index].maxT <= taskList[_index].numberT */\n      jump(tag_337)\n        /* \"AmphiTrans.sol\":2100:2286  if (_isTrans) {\r... */\n    tag_563:\n      pop\n        /* \"AmphiTrans.sol\":2250:2266  taskList[_index] */\n      0x00\n      dup3\n      dup2\n      mstore\n        /* \"AmphiTrans.sol\":2250:2258  taskList */\n      0x01\n        /* \"AmphiTrans.sol\":2250:2266  taskList[_index] */\n      0x20\n      mstore\n      0x40\n      swap1\n      keccak256\n        /* \"AmphiTrans.sol\":2250:2274  taskList[_index].numberV */\n      0x12\n      dup2\n      add\n      sload\n        /* \"AmphiTrans.sol\":2225:2246  taskList[_index].maxV */\n      0x10\n      swap1\n      swap2\n      add\n      sload\n        /* \"AmphiTrans.sol\":2225:2274  taskList[_index].maxV <= taskList[_index].numberV */\n      gt\n      iszero\n        /* \"AmphiTrans.sol\":2218:2274  return taskList[_index].maxV <= taskList[_index].numberV */\n      jump(tag_337)\n        /* \"AmphiTrans.sol\":4600:5523  function overTimeTasker(\r... */\n    tag_208:\n        /* \"AmphiTrans.sol\":4732:4748  uint256[] memory */\n      0x60\n        /* \"AmphiTrans.sol\":4750:4757  uint256 */\n      0x00\n        /* \"AmphiTrans.sol\":4770:4798  uint256[] memory _filesIndex */\n      0x60\n        /* \"AmphiTrans.sol\":4809:4831  uint256[] memory _list */\n      dup1\n        /* \"AmphiTrans.sol\":4842:4855  uint256 money */\n      0x00\n        /* \"AmphiTrans.sol\":4866:4875  uint256 q */\n      dup1\n        /* \"AmphiTrans.sol\":4890:4898  _isTrans */\n      dup7\n        /* \"AmphiTrans.sol\":4886:5067  if (_isTrans) {\r... */\n      iszero\n      tag_566\n      jumpi\n        /* \"AmphiTrans.sol\":4929:4946  transInfo[_index] */\n      0x00\n      dup10\n      dup2\n      mstore\n        /* \"AmphiTrans.sol\":4929:4938  transInfo */\n      0x03\n        /* \"AmphiTrans.sol\":4929:4946  transInfo[_index] */\n      0x20\n      swap1\n      dup2\n      mstore\n      0x40\n      dup1\n      dup4\n      keccak256\n      sub(shl(0xa0, 0x01), 0x01)\n        /* \"AmphiTrans.sol\":4929:4960  transInfo[_index][_taskerIndex] */\n      dup13\n      and\n      dup5\n      mstore\n      dup3\n      mstore\n      swap2\n      dup3\n      swap1\n      keccak256\n        /* \"AmphiTrans.sol\":4915:4970  _filesIndex = transInfo[_index][_taskerIndex].taskIndex */\n      dup1\n      sload\n      dup4\n      mload\n      dup2\n      dup5\n      mul\n      dup2\n      add\n      dup5\n      add\n      swap1\n      swap5\n      mstore\n      dup1\n      dup5\n      mstore\n        /* \"AmphiTrans.sol\":4929:4960  transInfo[_index][_taskerIndex] */\n      swap1\n      swap2\n        /* \"AmphiTrans.sol\":4915:4970  _filesIndex = transInfo[_index][_taskerIndex].taskIndex */\n      dup4\n      add\n        /* \"AmphiTrans.sol\":4929:4960  transInfo[_index][_taskerIndex] */\n      dup3\n        /* \"AmphiTrans.sol\":4915:4970  _filesIndex = transInfo[_index][_taskerIndex].taskIndex */\n      dup3\n      dup1\n      iszero\n      tag_567\n      jumpi\n      0x20\n      mul\n      dup3\n      add\n      swap2\n      swap1\n      0x00\n      mstore\n      keccak256(0x00, 0x20)\n      swap1\n    tag_568:\n      dup2\n      sload\n      dup2\n      mstore\n      0x20\n      add\n      swap1\n      0x01\n      add\n      swap1\n      dup1\n      dup4\n      gt\n      tag_568\n      jumpi\n    tag_567:\n      pop\n      pop\n      pop\n      pop\n      pop\n      swap4\n      pop\n        /* \"AmphiTrans.sol\":4886:5067  if (_isTrans) {\r... */\n      jump(tag_569)\n    tag_566:\n        /* \"AmphiTrans.sol\":5017:5031  vfInfo[_index] */\n      0x00\n      dup10\n      dup2\n      mstore\n        /* \"AmphiTrans.sol\":5017:5023  vfInfo */\n      0x04\n        /* \"AmphiTrans.sol\":5017:5031  vfInfo[_index] */\n      0x20\n      swap1\n      dup2\n      mstore\n      0x40\n      dup1\n      dup4\n      keccak256\n      sub(shl(0xa0, 0x01), 0x01)\n        /* \"AmphiTrans.sol\":5017:5045  vfInfo[_index][_taskerIndex] */\n      dup13\n      and\n      dup5\n      mstore\n      dup3\n      mstore\n      swap2\n      dup3\n      swap1\n      keccak256\n        /* \"AmphiTrans.sol\":5003:5055  _filesIndex = vfInfo[_index][_taskerIndex].taskIndex */\n      dup1\n      sload\n      dup4\n      mload\n      dup2\n      dup5\n      mul\n      dup2\n      add\n      dup5\n      add\n      swap1\n      swap5\n      mstore\n      dup1\n      dup5\n      mstore\n        /* \"AmphiTrans.sol\":5017:5045  vfInfo[_index][_taskerIndex] */\n      swap1\n      swap2\n        /* \"AmphiTrans.sol\":5003:5055  _filesIndex = vfInfo[_index][_taskerIndex].taskIndex */\n      dup4\n      add\n        /* \"AmphiTrans.sol\":5017:5045  vfInfo[_index][_taskerIndex] */\n      dup3\n        /* \"AmphiTrans.sol\":5003:5055  _filesIndex = vfInfo[_index][_taskerIndex].taskIndex */\n      dup3\n      dup1\n      iszero\n      tag_570\n      jumpi\n      0x20\n      mul\n      dup3\n      add\n      swap2\n      swap1\n      0x00\n      mstore\n      keccak256(0x00, 0x20)\n      swap1\n    tag_571:\n      dup2\n      sload\n      dup2\n      mstore\n      0x20\n      add\n      swap1\n      0x01\n      add\n      swap1\n      dup1\n      dup4\n      gt\n      tag_571\n      jumpi\n    tag_570:\n      pop\n      pop\n      pop\n      pop\n      pop\n      swap4\n      pop\n        /* \"AmphiTrans.sol\":4886:5067  if (_isTrans) {\r... */\n    tag_569:\n        /* \"AmphiTrans.sol\":5077:5114  LibProject.FileIndexInfo memory _info */\n      tag_572\n      0x40\n      dup1\n      mload\n      0x60\n      dup2\n      add\n      swap1\n      swap2\n      mstore\n      dup1\n      0x00\n      dup2\n      mstore\n      0x60\n      0x20\n      dup3\n      add\n      mstore\n      0x00\n      0x40\n      swap1\n      swap2\n      add\n      mstore\n      swap1\n      jump\n    tag_572:\n        /* \"AmphiTrans.sol\":5130:5139  uint256 i */\n      0x00\n        /* \"AmphiTrans.sol\":5125:5484  for (uint256 i = 0; i < _filesIndex.length; i++) {\r... */\n    tag_573:\n        /* \"AmphiTrans.sol\":5149:5160  _filesIndex */\n      dup6\n        /* \"AmphiTrans.sol\":5149:5167  _filesIndex.length */\n      mload\n        /* \"AmphiTrans.sol\":5145:5146  i */\n      dup2\n        /* \"AmphiTrans.sol\":5145:5167  i < _filesIndex.length */\n      lt\n        /* \"AmphiTrans.sol\":5125:5484  for (uint256 i = 0; i < _filesIndex.length; i++) {\r... */\n      iszero\n      tag_574\n      jumpi\n        /* \"AmphiTrans.sol\":5197:5214  transInfo[_index] */\n      0x00\n      dup12\n      dup2\n      mstore\n        /* \"AmphiTrans.sol\":5197:5206  transInfo */\n      0x03\n        /* \"AmphiTrans.sol\":5197:5214  transInfo[_index] */\n      0x20\n      swap1\n      dup2\n      mstore\n      0x40\n      dup1\n      dup4\n      keccak256\n      sub(shl(0xa0, 0x01), 0x01)\n        /* \"AmphiTrans.sol\":5197:5228  transInfo[_index][_taskerIndex] */\n      dup15\n      and\n      dup5\n      mstore\n      swap1\n      swap2\n      mstore\n      dup2\n      keccak256\n        /* \"AmphiTrans.sol\":5234:5248  _filesIndex[i] */\n      dup8\n      mload\n        /* \"AmphiTrans.sol\":5197:5233  transInfo[_index][_taskerIndex].info */\n      0x02\n      swap1\n      swap2\n      add\n      swap2\n        /* \"AmphiTrans.sol\":5197:5214  transInfo[_index] */\n      swap1\n        /* \"AmphiTrans.sol\":5234:5245  _filesIndex */\n      dup9\n      swap1\n        /* \"AmphiTrans.sol\":5246:5247  i */\n      dup5\n      swap1\n        /* \"AmphiTrans.sol\":5234:5248  _filesIndex[i] */\n      dup2\n      lt\n      tag_577\n      jumpi\n      tag_577\n      tag_296\n      jump\t// in\n    tag_577:\n      0x20\n      mul\n      0x20\n      add\n      add\n      mload\n        /* \"AmphiTrans.sol\":5197:5249  transInfo[_index][_taskerIndex].info[_filesIndex[i]] */\n      dup2\n      mstore\n      0x20\n      add\n      swap1\n      dup2\n      mstore\n      0x20\n      add\n      0x00\n      keccak256\n        /* \"AmphiTrans.sol\":5189:5249  _info = transInfo[_index][_taskerIndex].info[_filesIndex[i]] */\n      mload(0x40)\n      dup1\n      0x60\n      add\n      0x40\n      mstore\n      swap1\n      dup2\n      0x00\n      dup3\n      add\n      0x00\n      swap1\n      sload\n      swap1\n      0x0100\n      exp\n      swap1\n      div\n      0xff\n      and\n      0x04\n      dup2\n      gt\n      iszero\n      tag_579\n      jumpi\n      tag_579\n      tag_322\n      jump\t// in\n    tag_579:\n      0x04\n      dup2\n      gt\n      iszero\n      tag_581\n      jumpi\n      tag_581\n      tag_322\n      jump\t// in\n    tag_581:\n      dup2\n      mstore\n      0x20\n      add\n      0x01\n      dup3\n      add\n      dup1\n      sload\n      tag_582\n      swap1\n      tag_305\n      jump\t// in\n    tag_582:\n      dup1\n      0x1f\n      add\n      0x20\n      dup1\n      swap2\n      div\n      mul\n      0x20\n      add\n      mload(0x40)\n      swap1\n      dup2\n      add\n      0x40\n      mstore\n      dup1\n      swap3\n      swap2\n      swap1\n      dup2\n      dup2\n      mstore\n      0x20\n      add\n      dup3\n      dup1\n      sload\n      tag_583\n      swap1\n      tag_305\n      jump\t// in\n    tag_583:\n      dup1\n      iszero\n      tag_584\n      jumpi\n      dup1\n      0x1f\n      lt\n      tag_585\n      jumpi\n      0x0100\n      dup1\n      dup4\n      sload\n      div\n      mul\n      dup4\n      mstore\n      swap2\n      0x20\n      add\n      swap2\n      jump(tag_584)\n    tag_585:\n      dup3\n      add\n      swap2\n      swap1\n      0x00\n      mstore\n      keccak256(0x00, 0x20)\n      swap1\n    tag_586:\n      dup2\n      sload\n      dup2\n      mstore\n      swap1\n      0x01\n      add\n      swap1\n      0x20\n      add\n      dup1\n      dup4\n      gt\n      tag_586\n      jumpi\n      dup3\n      swap1\n      sub\n      0x1f\n      and\n      dup3\n      add\n      swap2\n    tag_584:\n      pop\n      pop\n      pop\n      swap2\n      dup4\n      mstore\n      pop\n      pop\n      0x02\n      swap2\n      swap1\n      swap2\n      add\n      sload\n      0xff\n      and\n      iszero\n      iszero\n      0x20\n      swap1\n      swap2\n      add\n      mstore\n      swap2\n      pop\n      0x00\n        /* \"AmphiTrans.sol\":5268:5279  _info.state */\n      dup3\n      mload\n        /* \"AmphiTrans.sol\":5268:5316  _info.state == LibProject.TaskerState.Processing */\n      0x04\n      dup2\n      gt\n      iszero\n      tag_590\n      jumpi\n      tag_590\n      tag_322\n      jump\t// in\n    tag_590:\n      eq\n        /* \"AmphiTrans.sol\":5264:5473  if (_info.state == LibProject.TaskerState.Processing) {\r... */\n      iszero\n      tag_591\n      jumpi\n        /* \"AmphiTrans.sol\":5348:5359  _filesIndex */\n      dup6\n        /* \"AmphiTrans.sol\":5360:5361  i */\n      dup2\n        /* \"AmphiTrans.sol\":5348:5362  _filesIndex[i] */\n      dup2\n      mload\n      dup2\n      lt\n      tag_593\n      jumpi\n      tag_593\n      tag_296\n      jump\t// in\n    tag_593:\n      0x20\n      mul\n      0x20\n      add\n      add\n      mload\n        /* \"AmphiTrans.sol\":5337:5342  _list */\n      dup6\n        /* \"AmphiTrans.sol\":5343:5344  q */\n      dup5\n        /* \"AmphiTrans.sol\":5337:5345  _list[q] */\n      dup2\n      mload\n      dup2\n      lt\n      tag_595\n      jumpi\n      tag_595\n      tag_296\n      jump\t// in\n    tag_595:\n      0x20\n      swap1\n      dup2\n      mul\n      swap2\n      swap1\n      swap2\n      add\n      add\n        /* \"AmphiTrans.sol\":5337:5362  _list[q] = _filesIndex[i] */\n      mstore\n        /* \"AmphiTrans.sol\":5381:5384  q++ */\n      dup3\n      tag_596\n      dup2\n      tag_366\n      jump\t// in\n    tag_596:\n      swap4\n      pop\n      pop\n        /* \"AmphiTrans.sol\":5412:5420  taskList */\n      0x01\n        /* \"AmphiTrans.sol\":5412:5428  taskList[_index] */\n      0x00\n        /* \"AmphiTrans.sol\":5421:5427  _index */\n      dup13\n        /* \"AmphiTrans.sol\":5412:5428  taskList[_index] */\n      dup2\n      mstore\n      0x20\n      add\n      swap1\n      dup2\n      mstore\n      0x20\n      add\n      0x00\n      keccak256\n        /* \"AmphiTrans.sol\":5412:5434  taskList[_index].tasks */\n      0x0c\n      add\n        /* \"AmphiTrans.sol\":5435:5446  _filesIndex */\n      dup7\n        /* \"AmphiTrans.sol\":5447:5448  i */\n      dup3\n        /* \"AmphiTrans.sol\":5435:5449  _filesIndex[i] */\n      dup2\n      mload\n      dup2\n      lt\n      tag_598\n      jumpi\n      tag_598\n      tag_296\n      jump\t// in\n    tag_598:\n      0x20\n      mul\n      0x20\n      add\n      add\n      mload\n        /* \"AmphiTrans.sol\":5412:5450  taskList[_index].tasks[_filesIndex[i]] */\n      dup2\n      sload\n      dup2\n      lt\n      tag_600\n      jumpi\n      tag_600\n      tag_296\n      jump\t// in\n    tag_600:\n      swap1\n      0x00\n      mstore\n      keccak256(0x00, 0x20)\n      swap1\n      0x0b\n      mul\n      add\n        /* \"AmphiTrans.sol\":5412:5457  taskList[_index].tasks[_filesIndex[i]].bounty */\n      0x07\n      add\n      sload\n        /* \"AmphiTrans.sol\":5403:5457  money += taskList[_index].tasks[_filesIndex[i]].bounty */\n      dup5\n      tag_602\n      swap2\n      swap1\n      tag_330\n      jump\t// in\n    tag_602:\n      swap4\n      pop\n        /* \"AmphiTrans.sol\":5264:5473  if (_info.state == LibProject.TaskerState.Processing) {\r... */\n    tag_591:\n        /* \"AmphiTrans.sol\":5169:5172  i++ */\n      dup1\n      tag_603\n      dup2\n      tag_366\n      jump\t// in\n    tag_603:\n      swap2\n      pop\n      pop\n        /* \"AmphiTrans.sol\":5125:5484  for (uint256 i = 0; i < _filesIndex.length; i++) {\r... */\n      jump(tag_573)\n    tag_574:\n      pop\n        /* \"AmphiTrans.sol\":5502:5507  _list */\n      swap3\n      swap10\n        /* \"AmphiTrans.sol\":5509:5514  money */\n      swap2\n      swap9\n      pop\n        /* \"AmphiTrans.sol\":4600:5523  function overTimeTasker(\r... */\n      swap1\n      swap7\n      pop\n      pop\n      pop\n      pop\n      pop\n      pop\n      pop\n      jump\t// out\n        /* \"AmphiTrans.sol\":3877:4046  function getTranslatorsList(uint256 _index)\r... */\n    tag_220:\n        /* \"AmphiTrans.sol\":4010:4026  taskList[_index] */\n      0x00\n      dup2\n      dup2\n      mstore\n        /* \"AmphiTrans.sol\":4010:4018  taskList */\n      0x01\n        /* \"AmphiTrans.sol\":4010:4026  taskList[_index] */\n      0x20\n      swap1\n      dup2\n      mstore\n      0x40\n      swap2\n      dup3\n      swap1\n      keccak256\n        /* \"AmphiTrans.sol\":4010:4038  taskList[_index].translators */\n      0x0d\n      add\n        /* \"AmphiTrans.sol\":4003:4038  return taskList[_index].translators */\n      dup1\n      sload\n      dup4\n      mload\n      dup2\n      dup5\n      mul\n      dup2\n      add\n      dup5\n      add\n      swap1\n      swap5\n      mstore\n      dup1\n      dup5\n      mstore\n        /* \"AmphiTrans.sol\":3969:3985  address[] memory */\n      0x60\n      swap4\n        /* \"AmphiTrans.sol\":4003:4038  return taskList[_index].translators */\n      swap3\n      dup4\n      add\n        /* \"AmphiTrans.sol\":4010:4038  taskList[_index].translators */\n      dup3\n        /* \"AmphiTrans.sol\":4003:4038  return taskList[_index].translators */\n      dup3\n      dup1\n      iszero\n      tag_607\n      jumpi\n      0x20\n      mul\n      dup3\n      add\n      swap2\n      swap1\n      0x00\n      mstore\n      keccak256(0x00, 0x20)\n      swap1\n    tag_608:\n      dup2\n      sload\n      sub(shl(0xa0, 0x01), 0x01)\n      and\n      dup2\n      mstore\n      0x01\n      swap1\n      swap2\n      add\n      swap1\n      0x20\n      add\n      dup1\n      dup4\n      gt\n      tag_608\n      jumpi\n    tag_607:\n      pop\n      pop\n      pop\n      pop\n      pop\n      swap1\n      pop\n        /* \"AmphiTrans.sol\":3877:4046  function getTranslatorsList(uint256 _index)\r... */\n      swap2\n      swap1\n      pop\n      jump\t// out\n        /* \"AmphiTrans.sol\":12132:12257  function addVf(uint256 _index, address _address) public isAccess {\r... */\n    tag_225:\n        /* \"AmphiTrans.sol\":731:744  accessAddress */\n      and(sub(shl(0xa0, 0x01), 0x01), sload(0x06))\n        /* \"AmphiTrans.sol\":717:727  msg.sender */\n      caller\n        /* \"AmphiTrans.sol\":717:744  msg.sender != accessAddress */\n      eq\n        /* \"AmphiTrans.sol\":714:817  if(msg.sender != accessAddress) {\r... */\n      tag_610\n      jumpi\n        /* \"AmphiTrans.sol\":769:805  AccessError(\"Error Access Address!\") */\n      mload(0x40)\n      shl(0xe4, 0x048e2d49)\n      dup2\n      mstore\n      0x04\n      add\n      tag_291\n      swap1\n      tag_292\n      jump\t// in\n        /* \"AmphiTrans.sol\":714:817  if(msg.sender != accessAddress) {\r... */\n    tag_610:\n        /* \"AmphiTrans.sol\":12208:12224  taskList[_index] */\n      0x00\n      swap2\n      dup3\n      mstore\n        /* \"AmphiTrans.sol\":12208:12216  taskList */\n      0x01\n        /* \"AmphiTrans.sol\":12208:12224  taskList[_index] */\n      0x20\n      dup2\n      dup2\n      mstore\n      0x40\n      dup5\n      keccak256\n        /* \"AmphiTrans.sol\":12208:12234  taskList[_index].verifiers */\n      0x0e\n      add\n        /* \"AmphiTrans.sol\":12208:12249  taskList[_index].verifiers.push(_address) */\n      dup1\n      sload\n      swap3\n      dup4\n      add\n      dup2\n      sstore\n      dup5\n      mstore\n      swap1\n      swap3\n      keccak256\n      swap1\n      swap2\n      add\n      dup1\n      sload\n      not(sub(shl(0xa0, 0x01), 0x01))\n      and\n      sub(shl(0xa0, 0x01), 0x01)\n      swap1\n      swap3\n      and\n      swap2\n      swap1\n      swap2\n      or\n      swap1\n      sstore\n        /* \"AmphiTrans.sol\":12132:12257  function addVf(uint256 _index, address _address) public isAccess {\r... */\n      jump\t// out\n        /* \"AmphiTrans.sol\":11744:11951  function pushTaskVfIndex(\r... */\n    tag_228:\n        /* \"AmphiTrans.sol\":731:744  accessAddress */\n      and(sub(shl(0xa0, 0x01), 0x01), sload(0x06))\n        /* \"AmphiTrans.sol\":717:727  msg.sender */\n      caller\n        /* \"AmphiTrans.sol\":717:744  msg.sender != accessAddress */\n      eq\n        /* \"AmphiTrans.sol\":714:817  if(msg.sender != accessAddress) {\r... */\n      tag_615\n      jumpi\n        /* \"AmphiTrans.sol\":769:805  AccessError(\"Error Access Address!\") */\n      mload(0x40)\n      shl(0xe4, 0x048e2d49)\n      dup2\n      mstore\n      0x04\n      add\n      tag_291\n      swap1\n      tag_292\n      jump\t// in\n        /* \"AmphiTrans.sol\":714:817  if(msg.sender != accessAddress) {\r... */\n    tag_615:\n        /* \"AmphiTrans.sol\":11888:11902  vfInfo[_index] */\n      0x00\n      swap3\n      dup4\n      mstore\n        /* \"AmphiTrans.sol\":11888:11894  vfInfo */\n      0x04\n        /* \"AmphiTrans.sol\":11888:11902  vfInfo[_index] */\n      0x20\n      swap1\n      dup2\n      mstore\n      0x40\n      dup1\n      dup6\n      keccak256\n      sub(shl(0xa0, 0x01), 0x01)\n        /* \"AmphiTrans.sol\":11888:11916  vfInfo[_index][_taskerIndex] */\n      swap1\n      swap5\n      and\n      dup6\n      mstore\n      swap3\n      dup2\n      mstore\n      swap2\n      dup4\n      keccak256\n        /* \"AmphiTrans.sol\":11888:11943  vfInfo[_index][_taskerIndex].taskIndex.push(_fileIndex) */\n      dup1\n      sload\n      0x01\n      dup2\n      add\n      dup3\n      sstore\n      swap1\n      dup5\n      mstore\n      swap2\n      swap1\n      swap3\n      keccak256\n      add\n      sstore\n        /* \"AmphiTrans.sol\":11744:11951  function pushTaskVfIndex(\r... */\n      jump\t// out\n        /* \"AmphiTrans.sol\":8793:8947  function addTransWaitNumber(uint256 _index,address _address,uint256 _number) public isAccess{\r... */\n    tag_231:\n        /* \"AmphiTrans.sol\":731:744  accessAddress */\n      and(sub(shl(0xa0, 0x01), 0x01), sload(0x06))\n        /* \"AmphiTrans.sol\":717:727  msg.sender */\n      caller\n        /* \"AmphiTrans.sol\":717:744  msg.sender != accessAddress */\n      eq\n        /* \"AmphiTrans.sol\":714:817  if(msg.sender != accessAddress) {\r... */\n      tag_620\n      jumpi\n        /* \"AmphiTrans.sol\":769:805  AccessError(\"Error Access Address!\") */\n      mload(0x40)\n      shl(0xe4, 0x048e2d49)\n      dup2\n      mstore\n      0x04\n      add\n      tag_291\n      swap1\n      tag_292\n      jump\t// in\n        /* \"AmphiTrans.sol\":714:817  if(msg.sender != accessAddress) {\r... */\n    tag_620:\n        /* \"AmphiTrans.sol\":8896:8913  transInfo[_index] */\n      0x00\n      dup4\n      dup2\n      mstore\n        /* \"AmphiTrans.sol\":8896:8905  transInfo */\n      0x03\n        /* \"AmphiTrans.sol\":8896:8913  transInfo[_index] */\n      0x20\n      swap1\n      dup2\n      mstore\n      0x40\n      dup1\n      dup4\n      keccak256\n      sub(shl(0xa0, 0x01), 0x01)\n        /* \"AmphiTrans.sol\":8896:8923  transInfo[_index][_address] */\n      dup7\n      and\n      dup5\n      mstore\n      swap1\n      swap2\n      mstore\n      dup2\n      keccak256\n        /* \"AmphiTrans.sol\":8896:8930  transInfo[_index][_address].number */\n      0x01\n      add\n        /* \"AmphiTrans.sol\":8896:8939  transInfo[_index][_address].number+=_number */\n      dup1\n      sload\n        /* \"AmphiTrans.sol\":8932:8939  _number */\n      dup4\n      swap3\n        /* \"AmphiTrans.sol\":8896:8913  transInfo[_index] */\n      swap1\n        /* \"AmphiTrans.sol\":8896:8939  transInfo[_index][_address].number+=_number */\n      tag_444\n      swap1\n        /* \"AmphiTrans.sol\":8932:8939  _number */\n      dup5\n      swap1\n        /* \"AmphiTrans.sol\":8896:8939  transInfo[_index][_address].number+=_number */\n      tag_330\n      jump\t// in\n        /* \"AmphiTrans.sol\":12607:14339  function addProject(LibProject.ProParm memory _t, address _buyer)\r... */\n    tag_235:\n        /* \"AmphiTrans.sol\":731:744  accessAddress */\n      sload(0x06)\n        /* \"AmphiTrans.sol\":12716:12723  uint256 */\n      0x00\n      swap1\n      sub(shl(0xa0, 0x01), 0x01)\n        /* \"AmphiTrans.sol\":731:744  accessAddress */\n      and\n        /* \"AmphiTrans.sol\":717:727  msg.sender */\n      caller\n        /* \"AmphiTrans.sol\":717:744  msg.sender != accessAddress */\n      eq\n        /* \"AmphiTrans.sol\":714:817  if(msg.sender != accessAddress) {\r... */\n      tag_625\n      jumpi\n        /* \"AmphiTrans.sol\":769:805  AccessError(\"Error Access Address!\") */\n      mload(0x40)\n      shl(0xe4, 0x048e2d49)\n      dup2\n      mstore\n      0x04\n      add\n      tag_291\n      swap1\n      tag_292\n      jump\t// in\n        /* \"AmphiTrans.sol\":714:817  if(msg.sender != accessAddress) {\r... */\n    tag_625:\n        /* \"AmphiTrans.sol\":12741:12746  count */\n      0x05\n        /* \"AmphiTrans.sol\":12741:12748  count++ */\n      dup1\n      sload\n      swap1\n        /* \"AmphiTrans.sol\":12741:12746  count */\n      0x00\n        /* \"AmphiTrans.sol\":12741:12748  count++ */\n      tag_628\n      dup4\n      tag_366\n      jump\t// in\n    tag_628:\n      swap1\n      swap2\n      sstore\n      pop\n      pop\n        /* \"AmphiTrans.sol\":12853:12858  count */\n      sload(0x05)\n        /* \"AmphiTrans.sol\":12803:12841  LibProject.TranslationPro storage _pro */\n      0x00\n        /* \"AmphiTrans.sol\":12844:12859  taskList[count] */\n      swap1\n      dup2\n      mstore\n        /* \"AmphiTrans.sol\":12844:12852  taskList */\n      0x01\n        /* \"AmphiTrans.sol\":12844:12859  taskList[count] */\n      0x20\n      dup2\n      dup2\n      mstore\n      0x40\n      swap1\n      swap3\n      keccak256\n        /* \"AmphiTrans.sol\":12870:12889  _pro.buyer = _buyer */\n      dup1\n      sload\n      not(sub(shl(0xa0, 0x01), 0x01))\n      and\n      sub(shl(0xa0, 0x01), 0x01)\n      dup7\n      and\n      or\n      dup2\n      sstore\n        /* \"AmphiTrans.sol\":12919:12933  _t.releaseTime */\n      dup6\n      mload\n        /* \"AmphiTrans.sol\":12900:12916  _pro.releaseTime */\n      swap2\n      dup2\n      add\n        /* \"AmphiTrans.sol\":12900:12933  _pro.releaseTime = _t.releaseTime */\n      swap2\n      swap1\n      swap2\n      sstore\n        /* \"AmphiTrans.sol\":12961:12973  _t.introduce */\n      dup5\n      dup3\n      add\n      mload\n        /* \"AmphiTrans.sol\":12944:12973  _pro.introduce = _t.introduce */\n      dup1\n      mload\n        /* \"AmphiTrans.sol\":12844:12859  taskList[count] */\n      swap2\n      swap3\n        /* \"AmphiTrans.sol\":12944:12973  _pro.introduce = _t.introduce */\n      tag_629\n      swap3\n        /* \"AmphiTrans.sol\":12944:12958  _pro.introduce */\n      0x02\n      dup6\n      add\n      swap3\n        /* \"AmphiTrans.sol\":12944:12973  _pro.introduce = _t.introduce */\n      swap1\n      swap2\n      add\n      swap1\n      tag_299\n      jump\t// in\n    tag_629:\n      pop\n        /* \"AmphiTrans.sol\":12996:13003  _t.need */\n      0x40\n      dup5\n      add\n      mload\n        /* \"AmphiTrans.sol\":12984:13003  _pro.need = _t.need */\n      dup1\n      mload\n      tag_630\n      swap2\n        /* \"AmphiTrans.sol\":12984:12993  _pro.need */\n      0x03\n      dup5\n      add\n      swap2\n        /* \"AmphiTrans.sol\":12984:13003  _pro.need = _t.need */\n      0x20\n      swap1\n      swap2\n      add\n      swap1\n      tag_299\n      jump\t// in\n    tag_630:\n      pop\n        /* \"AmphiTrans.sol\":13030:13041  _t.deadline */\n      0x60\n      dup5\n      add\n      mload\n        /* \"AmphiTrans.sol\":13014:13027  _pro.deadline */\n      0x04\n      dup3\n      add\n        /* \"AmphiTrans.sol\":13014:13041  _pro.deadline = _t.deadline */\n      sstore\n        /* \"AmphiTrans.sol\":13074:13091  _t.sourceLanguage */\n      0x80\n      dup5\n      add\n      mload\n        /* \"AmphiTrans.sol\":13052:13071  _pro.sourceLanguage */\n      0x05\n      dup3\n      add\n        /* \"AmphiTrans.sol\":13052:13091  _pro.sourceLanguage = _t.sourceLanguage */\n      sstore\n        /* \"AmphiTrans.sol\":13122:13137  _t.goalLanguage */\n      0xa0\n      dup5\n      add\n      mload\n        /* \"AmphiTrans.sol\":13102:13119  _pro.goalLanguage */\n      0x06\n      dup3\n      add\n        /* \"AmphiTrans.sol\":13102:13137  _pro.goalLanguage = _t.goalLanguage */\n      sstore\n        /* \"AmphiTrans.sol\":13166:13179  _t.preferList */\n      0xc0\n      dup5\n      add\n      mload\n        /* \"AmphiTrans.sol\":13148:13179  _pro.preferList = _t.preferList */\n      dup1\n      mload\n      tag_631\n      swap2\n        /* \"AmphiTrans.sol\":13148:13163  _pro.preferList */\n      0x07\n      dup5\n      add\n      swap2\n        /* \"AmphiTrans.sol\":13148:13179  _pro.preferList = _t.preferList */\n      0x20\n      swap1\n      swap2\n      add\n      swap1\n      tag_351\n      jump\t// in\n    tag_631:\n      pop\n        /* \"AmphiTrans.sol\":13213:13231  _t.translationType */\n      0xe0\n      dup5\n      add\n      mload\n        /* \"AmphiTrans.sol\":13190:13210  _pro.translationType */\n      0x08\n      dup3\n      add\n        /* \"AmphiTrans.sol\":13190:13231  _pro.translationType = _t.translationType */\n      sstore\n        /* \"AmphiTrans.sol\":13258:13269  _t.workLoad */\n      0x0100\n      dup1\n      dup6\n      add\n      mload\n        /* \"AmphiTrans.sol\":13242:13255  _pro.workLoad */\n      0x09\n      dup4\n      add\n        /* \"AmphiTrans.sol\":13242:13269  _pro.workLoad = _t.workLoad */\n      sstore\n        /* \"AmphiTrans.sol\":13294:13303  _t.bounty */\n      0x0160\n      dup6\n      add\n      mload\n        /* \"AmphiTrans.sol\":13280:13291  _pro.bounty */\n      0x0b\n      dup4\n      add\n        /* \"AmphiTrans.sol\":13280:13303  _pro.bounty = _t.bounty */\n      sstore\n        /* \"AmphiTrans.sol\":13337:13355  _t.isNonDisclosure */\n      0x0120\n      dup6\n      add\n      mload\n        /* \"AmphiTrans.sol\":13314:13334  _pro.isNonDisclosure */\n      0x0a\n      dup4\n      add\n        /* \"AmphiTrans.sol\":13314:13355  _pro.isNonDisclosure = _t.isNonDisclosure */\n      dup1\n      sload\n        /* \"AmphiTrans.sol\":13385:13399  _t.isCustomize */\n      0x0140\n      dup9\n      add\n      mload\n        /* \"AmphiTrans.sol\":13366:13399  _pro.isCustomize = _t.isCustomize */\n      iszero\n      dup1\n      iszero\n      swap1\n      swap5\n      mul\n      not(0xff00)\n        /* \"AmphiTrans.sol\":13314:13355  _pro.isNonDisclosure = _t.isNonDisclosure */\n      swap4\n      iszero\n      iszero\n        /* \"AmphiTrans.sol\":13366:13399  _pro.isCustomize = _t.isCustomize */\n      swap4\n      swap1\n      swap4\n      and\n      not(0xffff)\n      swap1\n      swap2\n      and\n      or\n      swap2\n      swap1\n      swap2\n      or\n      swap1\n      sstore\n        /* \"AmphiTrans.sol\":13410:14092  if (_t.isCustomize) {\r... */\n      tag_632\n      jumpi\n        /* \"AmphiTrans.sol\":13449:13451  _t */\n      dup4\n        /* \"AmphiTrans.sol\":13449:13467  _t.translationType */\n      0xe0\n      add\n      mload\n        /* \"AmphiTrans.sol\":13472:13473  1 */\n      0x01\n        /* \"AmphiTrans.sol\":13449:13473  _t.translationType  == 1 */\n      eq\n        /* \"AmphiTrans.sol\":13449:13501  _t.translationType  == 1 || _t.translationType  == 5 */\n      dup1\n      tag_633\n      jumpi\n      pop\n        /* \"AmphiTrans.sol\":13477:13479  _t */\n      dup4\n        /* \"AmphiTrans.sol\":13477:13495  _t.translationType */\n      0xe0\n      add\n      mload\n        /* \"AmphiTrans.sol\":13500:13501  5 */\n      0x05\n        /* \"AmphiTrans.sol\":13477:13501  _t.translationType  == 5 */\n      eq\n        /* \"AmphiTrans.sol\":13449:13501  _t.translationType  == 1 || _t.translationType  == 5 */\n    tag_633:\n        /* \"AmphiTrans.sol\":13445:13768  if (_t.translationType  == 1 || _t.translationType  == 5) {\r... */\n      iszero\n      tag_634\n      jumpi\n        /* \"AmphiTrans.sol\":13518:13536  _pro.isTransActive */\n      0x13\n      dup2\n      add\n        /* \"AmphiTrans.sol\":13518:13544  _pro.isTransActive = false */\n      dup1\n      sload\n      not(0xff)\n      and\n      swap1\n      sstore\n        /* \"AmphiTrans.sol\":13539:13544  false */\n      0x00\n        /* \"AmphiTrans.sol\":13559:13568  _pro.maxT */\n      0x0f\n      dup3\n      add\n        /* \"AmphiTrans.sol\":13559:13572  _pro.maxT = 0 */\n      sstore\n        /* \"AmphiTrans.sol\":13599:13607  _t.tasks */\n      0x0180\n      dup5\n      add\n      mload\n        /* \"AmphiTrans.sol\":13599:13614  _t.tasks.length */\n      mload\n        /* \"AmphiTrans.sol\":13587:13596  _pro.maxV */\n      0x10\n      dup3\n      add\n        /* \"AmphiTrans.sol\":13587:13614  _pro.maxV = _t.tasks.length */\n      sstore\n        /* \"AmphiTrans.sol\":13410:14092  if (_t.isCustomize) {\r... */\n      jump(tag_639)\n        /* \"AmphiTrans.sol\":13445:13768  if (_t.translationType  == 1 || _t.translationType  == 5) {\r... */\n    tag_634:\n        /* \"AmphiTrans.sol\":13658:13666  _t.tasks */\n      0x0180\n      dup5\n      add\n      mload\n        /* \"AmphiTrans.sol\":13658:13673  _t.tasks.length */\n      mload\n        /* \"AmphiTrans.sol\":13646:13655  _pro.maxT */\n      0x0f\n      dup3\n      add\n        /* \"AmphiTrans.sol\":13646:13673  _pro.maxT = _t.tasks.length */\n      dup2\n      swap1\n      sstore\n        /* \"AmphiTrans.sol\":13688:13697  _pro.maxV */\n      0x10\n      dup3\n      add\n        /* \"AmphiTrans.sol\":13688:13715  _pro.maxV = _t.tasks.length */\n      sstore\n        /* \"AmphiTrans.sol\":13731:13749  _pro.isTransActive */\n      0x13\n      dup2\n      add\n        /* \"AmphiTrans.sol\":13731:13756  _pro.isTransActive = true */\n      dup1\n      sload\n      not(0xff)\n      and\n        /* \"AmphiTrans.sol\":13752:13756  true */\n      0x01\n        /* \"AmphiTrans.sol\":13731:13756  _pro.isTransActive = true */\n      or\n      swap1\n      sstore\n        /* \"AmphiTrans.sol\":13410:14092  if (_t.isCustomize) {\r... */\n      jump(tag_639)\n    tag_632:\n        /* \"AmphiTrans.sol\":13804:13806  _t */\n      dup4\n        /* \"AmphiTrans.sol\":13804:13822  _t.translationType */\n      0xe0\n      add\n      mload\n        /* \"AmphiTrans.sol\":13827:13828  1 */\n      0x01\n        /* \"AmphiTrans.sol\":13804:13828  _t.translationType  == 1 */\n      eq\n        /* \"AmphiTrans.sol\":13804:13856  _t.translationType  == 1 || _t.translationType  == 5 */\n      dup1\n      tag_637\n      jumpi\n      pop\n        /* \"AmphiTrans.sol\":13832:13834  _t */\n      dup4\n        /* \"AmphiTrans.sol\":13832:13850  _t.translationType */\n      0xe0\n      add\n      mload\n        /* \"AmphiTrans.sol\":13855:13856  5 */\n      0x05\n        /* \"AmphiTrans.sol\":13832:13856  _t.translationType  == 5 */\n      eq\n        /* \"AmphiTrans.sol\":13804:13856  _t.translationType  == 1 || _t.translationType  == 5 */\n    tag_637:\n        /* \"AmphiTrans.sol\":13800:14081  if (_t.translationType  == 1 || _t.translationType  == 5) {\r... */\n      iszero\n      tag_638\n      jumpi\n        /* \"AmphiTrans.sol\":13885:13886  0 */\n      0x00\n        /* \"AmphiTrans.sol\":13873:13882  _pro.maxT */\n      0x0f\n      dup3\n      add\n        /* \"AmphiTrans.sol\":13873:13886  _pro.maxT = 0 */\n      sstore\n        /* \"AmphiTrans.sol\":13913:13914  1 */\n      0x01\n        /* \"AmphiTrans.sol\":13901:13910  _pro.maxV */\n      0x10\n      dup3\n      add\n        /* \"AmphiTrans.sol\":13901:13914  _pro.maxV = 1 */\n      sstore\n        /* \"AmphiTrans.sol\":13929:13947  _pro.isTransActive */\n      0x13\n      dup2\n      add\n        /* \"AmphiTrans.sol\":13929:13955  _pro.isTransActive = false */\n      dup1\n      sload\n      not(0xff)\n      and\n      swap1\n      sstore\n        /* \"AmphiTrans.sol\":13800:14081  if (_t.translationType  == 1 || _t.translationType  == 5) {\r... */\n      jump(tag_639)\n    tag_638:\n        /* \"AmphiTrans.sol\":13999:14000  1 */\n      0x01\n        /* \"AmphiTrans.sol\":13987:13996  _pro.maxT */\n      0x0f\n      dup3\n      add\n        /* \"AmphiTrans.sol\":13987:14000  _pro.maxT = 1 */\n      dup2\n      swap1\n      sstore\n        /* \"AmphiTrans.sol\":14015:14024  _pro.maxV */\n      0x10\n      dup3\n      add\n        /* \"AmphiTrans.sol\":14015:14028  _pro.maxV = 1 */\n      dup2\n      swap1\n      sstore\n        /* \"AmphiTrans.sol\":14044:14062  _pro.isTransActive */\n      0x13\n      dup3\n      add\n        /* \"AmphiTrans.sol\":14044:14069  _pro.isTransActive = true */\n      dup1\n      sload\n      not(0xff)\n      and\n      swap1\n      swap2\n      or\n      swap1\n      sstore\n        /* \"AmphiTrans.sol\":13800:14081  if (_t.translationType  == 1 || _t.translationType  == 5) {\r... */\n    tag_639:\n        /* \"AmphiTrans.sol\":14102:14118  _pro.isVerActive */\n      0x13\n      dup2\n      add\n        /* \"AmphiTrans.sol\":14102:14125  _pro.isVerActive = true */\n      dup1\n      sload\n      not(0xff00)\n      and\n      0x0100\n      or\n      swap1\n      sstore\n      0x00\n        /* \"AmphiTrans.sol\":14136:14300  for (uint256 i = 0; i < _t.tasks.length; i++) {\r... */\n    tag_640:\n        /* \"AmphiTrans.sol\":14160:14162  _t */\n      dup5\n        /* \"AmphiTrans.sol\":14160:14168  _t.tasks */\n      0x0180\n      add\n      mload\n        /* \"AmphiTrans.sol\":14160:14175  _t.tasks.length */\n      mload\n        /* \"AmphiTrans.sol\":14156:14157  i */\n      dup2\n        /* \"AmphiTrans.sol\":14156:14175  i < _t.tasks.length */\n      lt\n        /* \"AmphiTrans.sol\":14136:14300  for (uint256 i = 0; i < _t.tasks.length; i++) {\r... */\n      iszero\n      tag_641\n      jumpi\n        /* \"AmphiTrans.sol\":14217:14245  LibProject.FileState.Waiting */\n      0x00\n        /* \"AmphiTrans.sol\":14197:14199  _t */\n      dup6\n        /* \"AmphiTrans.sol\":14197:14205  _t.tasks */\n      0x0180\n      add\n      mload\n        /* \"AmphiTrans.sol\":14206:14207  i */\n      dup3\n        /* \"AmphiTrans.sol\":14197:14208  _t.tasks[i] */\n      dup2\n      mload\n      dup2\n      lt\n      tag_644\n      jumpi\n      tag_644\n      tag_296\n      jump\t// in\n    tag_644:\n      0x20\n      mul\n      0x20\n      add\n      add\n      mload\n        /* \"AmphiTrans.sol\":14197:14214  _t.tasks[i].state */\n      0x60\n      add\n        /* \"AmphiTrans.sol\":14197:14245  _t.tasks[i].state = LibProject.FileState.Waiting */\n      swap1\n      0x0b\n      dup2\n      gt\n      iszero\n      tag_646\n      jumpi\n      tag_646\n      tag_322\n      jump\t// in\n    tag_646:\n      swap1\n      dup2\n      0x0b\n      dup2\n      gt\n      iszero\n      tag_648\n      jumpi\n      tag_648\n      tag_322\n      jump\t// in\n    tag_648:\n      dup2\n      mstore\n      pop\n      pop\n        /* \"AmphiTrans.sol\":14260:14264  _pro */\n      dup2\n        /* \"AmphiTrans.sol\":14260:14270  _pro.tasks */\n      0x0c\n      add\n        /* \"AmphiTrans.sol\":14276:14278  _t */\n      dup6\n        /* \"AmphiTrans.sol\":14276:14284  _t.tasks */\n      0x0180\n      add\n      mload\n        /* \"AmphiTrans.sol\":14285:14286  i */\n      dup3\n        /* \"AmphiTrans.sol\":14276:14287  _t.tasks[i] */\n      dup2\n      mload\n      dup2\n      lt\n      tag_650\n      jumpi\n      tag_650\n      tag_296\n      jump\t// in\n    tag_650:\n      0x20\n      swap1\n      dup2\n      mul\n      swap2\n      swap1\n      swap2\n      add\n      dup2\n      add\n      mload\n        /* \"AmphiTrans.sol\":14260:14288  _pro.tasks.push(_t.tasks[i]) */\n      dup3\n      sload\n      0x01\n      dup2\n      add\n      dup5\n      sstore\n      0x00\n      swap4\n      dup5\n      mstore\n      swap3\n      dup3\n      swap1\n      keccak256\n      dup2\n      mload\n      dup1\n      mload\n      dup1\n      mload\n        /* \"AmphiTrans.sol\":14276:14287  _t.tasks[i] */\n      swap4\n      swap6\n        /* \"AmphiTrans.sol\":14260:14288  _pro.tasks.push(_t.tasks[i]) */\n      0x0b\n      mul\n      swap1\n      swap3\n      add\n      swap4\n      swap1\n      swap3\n      dup5\n      swap3\n      tag_652\n      swap3\n      dup5\n      swap3\n      swap2\n      add\n      swap1\n      tag_299\n      jump\t// in\n    tag_652:\n      pop\n      0x20\n      dup3\n      dup2\n      add\n      mload\n      0x01\n      dup4\n      add\n      sstore\n      0x40\n      dup4\n      add\n      mload\n      0x02\n      dup4\n      add\n      sstore\n      0x60\n      dup4\n      add\n      mload\n      0x03\n      dup4\n      add\n      sstore\n      0x80\n      dup4\n      add\n      mload\n      0x04\n      dup4\n      add\n      sstore\n      0xa0\n      dup4\n      add\n      mload\n      0x05\n      dup4\n      add\n      sstore\n      0xc0\n      dup4\n      add\n      mload\n      dup1\n      mload\n      tag_653\n      swap3\n      0x06\n      dup6\n      add\n      swap3\n      add\n      swap1\n      tag_299\n      jump\t// in\n    tag_653:\n      pop\n      pop\n      pop\n      0x20\n      dup3\n      dup2\n      add\n      mload\n      0x07\n      dup4\n      add\n      sstore\n      0x40\n      dup4\n      add\n      mload\n      dup1\n      mload\n      tag_654\n      swap3\n      0x08\n      dup6\n      add\n      swap3\n      add\n      swap1\n      tag_299\n      jump\t// in\n    tag_654:\n      pop\n      0x60\n      dup3\n      add\n      mload\n      0x09\n      dup3\n      add\n      dup1\n      sload\n      not(0xff)\n      and\n      0x01\n      dup4\n      0x0b\n      dup2\n      gt\n      iszero\n      tag_656\n      jumpi\n      tag_656\n      tag_322\n      jump\t// in\n    tag_656:\n      mul\n      or\n      swap1\n      sstore\n      pop\n      0x80\n      dup3\n      add\n      mload\n      dup2\n      0x0a\n      add\n      sstore\n      pop\n      pop\n        /* \"AmphiTrans.sol\":14177:14180  i++ */\n      dup1\n      dup1\n      tag_657\n      swap1\n      tag_366\n      jump\t// in\n    tag_657:\n      swap2\n      pop\n      pop\n        /* \"AmphiTrans.sol\":14136:14300  for (uint256 i = 0; i < _t.tasks.length; i++) {\r... */\n      jump(tag_640)\n    tag_641:\n      pop\n      pop\n        /* \"AmphiTrans.sol\":14326:14331  count */\n      sload(0x05)\n      swap4\n        /* \"AmphiTrans.sol\":12607:14339  function addProject(LibProject.ProParm memory _t, address _buyer)\r... */\n      swap3\n      pop\n      pop\n      pop\n      jump\t// out\n        /* \"AmphiTrans.sol\":842:945  function setAccessAddress(address _address) public onlyOwner{\r... */\n    tag_243:\n        /* \"contracts/access/Ownable.sol\":1094:1107  _checkOwner() */\n      tag_660\n        /* \"contracts/access/Ownable.sol\":1094:1105  _checkOwner */\n      tag_510\n        /* \"contracts/access/Ownable.sol\":1094:1107  _checkOwner() */\n      jump\t// in\n    tag_660:\n        /* \"AmphiTrans.sol\":913:926  accessAddress */\n      0x06\n        /* \"AmphiTrans.sol\":913:937  accessAddress = _address */\n      dup1\n      sload\n      not(sub(shl(0xa0, 0x01), 0x01))\n      and\n      sub(shl(0xa0, 0x01), 0x01)\n      swap3\n      swap1\n      swap3\n      and\n      swap2\n      swap1\n      swap2\n      or\n      swap1\n      sstore\n        /* \"AmphiTrans.sol\":842:945  function setAccessAddress(address _address) public onlyOwner{\r... */\n      jump\t// out\n        /* \"AmphiTrans.sol\":5823:6022  function getFileState(uint256 _index, uint256 _fileIndex)\r... */\n    tag_246:\n        /* \"AmphiTrans.sol\":5929:5949  LibProject.FileState */\n      0x00\n        /* \"AmphiTrans.sol\":5974:5990  taskList[_index] */\n      dup3\n      dup2\n      mstore\n        /* \"AmphiTrans.sol\":5974:5982  taskList */\n      0x01\n        /* \"AmphiTrans.sol\":5974:5990  taskList[_index] */\n      0x20\n      mstore\n      0x40\n      dup2\n      keccak256\n        /* \"AmphiTrans.sol\":5974:5996  taskList[_index].tasks */\n      0x0c\n      add\n        /* \"AmphiTrans.sol\":5974:6008  taskList[_index].tasks[_fileIndex] */\n      dup1\n      sload\n        /* \"AmphiTrans.sol\":5997:6007  _fileIndex */\n      dup4\n      swap1\n        /* \"AmphiTrans.sol\":5974:6008  taskList[_index].tasks[_fileIndex] */\n      dup2\n      lt\n      tag_664\n      jumpi\n      tag_664\n      tag_296\n      jump\t// in\n    tag_664:\n      0x00\n      swap2\n      dup3\n      mstore\n      0x20\n      swap1\n      swap2\n      keccak256\n      0x0b\n      swap1\n      swap2\n      mul\n      add\n        /* \"AmphiTrans.sol\":5974:6014  taskList[_index].tasks[_fileIndex].state */\n      0x09\n      add\n      sload\n      0xff\n      and\n      swap4\n        /* \"AmphiTrans.sol\":5823:6022  function getFileState(uint256 _index, uint256 _fileIndex)\r... */\n      swap3\n      pop\n      pop\n      pop\n      jump\t// out\n        /* \"AmphiTrans.sol\":4256:4382  function getVfList(uint256 _index) public view returns (address[] memory) {\r... */\n    tag_251:\n        /* \"AmphiTrans.sol\":4348:4364  taskList[_index] */\n      0x00\n      dup2\n      dup2\n      mstore\n        /* \"AmphiTrans.sol\":4348:4356  taskList */\n      0x01\n        /* \"AmphiTrans.sol\":4348:4364  taskList[_index] */\n      0x20\n      swap1\n      dup2\n      mstore\n      0x40\n      swap2\n      dup3\n      swap1\n      keccak256\n        /* \"AmphiTrans.sol\":4348:4374  taskList[_index].verifiers */\n      0x0e\n      add\n        /* \"AmphiTrans.sol\":4341:4374  return taskList[_index].verifiers */\n      dup1\n      sload\n      dup4\n      mload\n      dup2\n      dup5\n      mul\n      dup2\n      add\n      dup5\n      add\n      swap1\n      swap5\n      mstore\n      dup1\n      dup5\n      mstore\n        /* \"AmphiTrans.sol\":4312:4328  address[] memory */\n      0x60\n      swap4\n        /* \"AmphiTrans.sol\":4341:4374  return taskList[_index].verifiers */\n      swap3\n      dup4\n      add\n        /* \"AmphiTrans.sol\":4348:4374  taskList[_index].verifiers */\n      dup3\n        /* \"AmphiTrans.sol\":4341:4374  return taskList[_index].verifiers */\n      dup3\n      dup1\n      iszero\n      tag_607\n      jumpi\n      0x20\n      mul\n      dup3\n      add\n      swap2\n      swap1\n      0x00\n      mstore\n      keccak256(0x00, 0x20)\n      swap1\n      dup2\n      sload\n      sub(shl(0xa0, 0x01), 0x01)\n      and\n      dup2\n      mstore\n      0x01\n      swap1\n      swap2\n      add\n      swap1\n      0x20\n      add\n      dup1\n      dup4\n      gt\n      tag_608\n      jumpi\n      pop\n      pop\n      pop\n      pop\n      pop\n      swap1\n      pop\n        /* \"AmphiTrans.sol\":4256:4382  function getVfList(uint256 _index) public view returns (address[] memory) {\r... */\n      swap2\n      swap1\n      pop\n      jump\t// out\n        /* \"AmphiTrans.sol\":10961:11148  function changeVerActive(uint256 _index, bool _bool) public isAccess {\r... */\n    tag_255:\n        /* \"AmphiTrans.sol\":731:744  accessAddress */\n      and(sub(shl(0xa0, 0x01), 0x01), sload(0x06))\n        /* \"AmphiTrans.sol\":717:727  msg.sender */\n      caller\n        /* \"AmphiTrans.sol\":717:744  msg.sender != accessAddress */\n      eq\n        /* \"AmphiTrans.sol\":714:817  if(msg.sender != accessAddress) {\r... */\n      tag_670\n      jumpi\n        /* \"AmphiTrans.sol\":769:805  AccessError(\"Error Access Address!\") */\n      mload(0x40)\n      shl(0xe4, 0x048e2d49)\n      dup2\n      mstore\n      0x04\n      add\n      tag_291\n      swap1\n      tag_292\n      jump\t// in\n        /* \"AmphiTrans.sol\":714:817  if(msg.sender != accessAddress) {\r... */\n    tag_670:\n        /* \"AmphiTrans.sol\":11041:11057  taskList[_index] */\n      0x00\n      swap2\n      dup3\n      mstore\n        /* \"AmphiTrans.sol\":11041:11049  taskList */\n      0x01\n        /* \"AmphiTrans.sol\":11041:11057  taskList[_index] */\n      0x20\n      mstore\n      0x40\n      swap1\n      swap2\n      keccak256\n        /* \"AmphiTrans.sol\":11041:11069  taskList[_index].isVerActive */\n      0x13\n      add\n        /* \"AmphiTrans.sol\":11041:11077  taskList[_index].isVerActive = _bool */\n      dup1\n      sload\n      swap2\n      iszero\n      iszero\n      0x0100\n      mul\n      not(0xff00)\n      swap1\n      swap3\n      and\n      swap2\n      swap1\n      swap2\n      or\n      swap1\n      sstore\n        /* \"AmphiTrans.sol\":10961:11148  function changeVerActive(uint256 _index, bool _bool) public isAccess {\r... */\n      jump\t// out\n        /* \"AmphiTrans.sol\":8953:9086  function decutTransWaitNumber(uint256 _index,address _address) public isAccess{\r... */\n    tag_258:\n        /* \"AmphiTrans.sol\":731:744  accessAddress */\n      and(sub(shl(0xa0, 0x01), 0x01), sload(0x06))\n        /* \"AmphiTrans.sol\":717:727  msg.sender */\n      caller\n        /* \"AmphiTrans.sol\":717:744  msg.sender != accessAddress */\n      eq\n        /* \"AmphiTrans.sol\":714:817  if(msg.sender != accessAddress) {\r... */\n      tag_674\n      jumpi\n        /* \"AmphiTrans.sol\":769:805  AccessError(\"Error Access Address!\") */\n      mload(0x40)\n      shl(0xe4, 0x048e2d49)\n      dup2\n      mstore\n      0x04\n      add\n      tag_291\n      swap1\n      tag_292\n      jump\t// in\n        /* \"AmphiTrans.sol\":714:817  if(msg.sender != accessAddress) {\r... */\n    tag_674:\n        /* \"AmphiTrans.sol\":9042:9059  transInfo[_index] */\n      0x00\n      dup3\n      dup2\n      mstore\n        /* \"AmphiTrans.sol\":9042:9051  transInfo */\n      0x03\n        /* \"AmphiTrans.sol\":9042:9059  transInfo[_index] */\n      0x20\n      swap1\n      dup2\n      mstore\n      0x40\n      dup1\n      dup4\n      keccak256\n      sub(shl(0xa0, 0x01), 0x01)\n        /* \"AmphiTrans.sol\":9042:9069  transInfo[_index][_address] */\n      dup6\n      and\n      dup5\n      mstore\n      swap1\n      swap2\n      mstore\n      dup2\n      keccak256\n        /* \"AmphiTrans.sol\":9042:9076  transInfo[_index][_address].number */\n      0x01\n      add\n        /* \"AmphiTrans.sol\":9042:9078  transInfo[_index][_address].number-- */\n      dup1\n      sload\n      swap2\n      tag_519\n      dup4\n      tag_520\n      jump\t// in\n        /* \"AmphiTrans.sol\":12263:12431  function isUsedToTrans(uint256 _index, uint256 _fileIndex,address _address) public isAccess{\r... */\n    tag_261:\n        /* \"AmphiTrans.sol\":731:744  accessAddress */\n      and(sub(shl(0xa0, 0x01), 0x01), sload(0x06))\n        /* \"AmphiTrans.sol\":717:727  msg.sender */\n      caller\n        /* \"AmphiTrans.sol\":717:744  msg.sender != accessAddress */\n      eq\n        /* \"AmphiTrans.sol\":714:817  if(msg.sender != accessAddress) {\r... */\n      tag_679\n      jumpi\n        /* \"AmphiTrans.sol\":769:805  AccessError(\"Error Access Address!\") */\n      mload(0x40)\n      shl(0xe4, 0x048e2d49)\n      dup2\n      mstore\n      0x04\n      add\n      tag_291\n      swap1\n      tag_292\n      jump\t// in\n        /* \"AmphiTrans.sol\":714:817  if(msg.sender != accessAddress) {\r... */\n    tag_679:\n        /* \"AmphiTrans.sol\":12365:12382  transInfo[_index] */\n      0x00\n      swap3\n      dup4\n      mstore\n        /* \"AmphiTrans.sol\":12365:12374  transInfo */\n      0x03\n        /* \"AmphiTrans.sol\":12365:12382  transInfo[_index] */\n      0x20\n      swap1\n      dup2\n      mstore\n      0x40\n      dup1\n      dup6\n      keccak256\n      sub(shl(0xa0, 0x01), 0x01)\n        /* \"AmphiTrans.sol\":12365:12392  transInfo[_index][_address] */\n      swap1\n      swap4\n      and\n      dup6\n      mstore\n      swap2\n      dup2\n      mstore\n      dup2\n      dup5\n      keccak256\n        /* \"AmphiTrans.sol\":12365:12409  transInfo[_index][_address].info[_fileIndex] */\n      swap3\n      dup5\n      mstore\n        /* \"AmphiTrans.sol\":12365:12397  transInfo[_index][_address].info */\n      0x02\n      swap3\n      dup4\n      add\n        /* \"AmphiTrans.sol\":12365:12409  transInfo[_index][_address].info[_fileIndex] */\n      swap1\n      mstore\n      swap1\n      swap2\n      keccak256\n        /* \"AmphiTrans.sol\":12365:12416  transInfo[_index][_address].info[_fileIndex].isUsed */\n      add\n        /* \"AmphiTrans.sol\":12365:12423  transInfo[_index][_address].info[_fileIndex].isUsed = true */\n      dup1\n      sload\n      not(0xff)\n      and\n        /* \"AmphiTrans.sol\":12419:12423  true */\n      0x01\n        /* \"AmphiTrans.sol\":12365:12423  transInfo[_index][_address].info[_fileIndex].isUsed = true */\n      or\n      swap1\n      sstore\n        /* \"AmphiTrans.sol\":12263:12431  function isUsedToTrans(uint256 _index, uint256 _fileIndex,address _address) public isAccess{\r... */\n      jump\t// out\n        /* \"AmphiTrans.sol\":8473:8661  function getFileBounty(uint256 _index, uint256 _fileIndex)\r... */\n    tag_272:\n        /* \"AmphiTrans.sol\":8580:8587  uint256 */\n      0x00\n        /* \"AmphiTrans.sol\":8612:8628  taskList[_index] */\n      dup3\n      dup2\n      mstore\n        /* \"AmphiTrans.sol\":8612:8620  taskList */\n      0x01\n        /* \"AmphiTrans.sol\":8612:8628  taskList[_index] */\n      0x20\n      mstore\n      0x40\n      dup2\n      keccak256\n        /* \"AmphiTrans.sol\":8612:8634  taskList[_index].tasks */\n      0x0c\n      add\n        /* \"AmphiTrans.sol\":8612:8646  taskList[_index].tasks[_fileIndex] */\n      dup1\n      sload\n        /* \"AmphiTrans.sol\":8635:8645  _fileIndex */\n      dup4\n      swap1\n        /* \"AmphiTrans.sol\":8612:8646  taskList[_index].tasks[_fileIndex] */\n      dup2\n      lt\n      tag_686\n      jumpi\n      tag_686\n      tag_296\n      jump\t// in\n    tag_686:\n      swap1\n      0x00\n      mstore\n      keccak256(0x00, 0x20)\n      swap1\n      0x0b\n      mul\n      add\n        /* \"AmphiTrans.sol\":8612:8653  taskList[_index].tasks[_fileIndex].bounty */\n      0x07\n      add\n      sload\n        /* \"AmphiTrans.sol\":8605:8653  return taskList[_index].tasks[_fileIndex].bounty */\n      swap1\n      pop\n        /* \"AmphiTrans.sol\":8473:8661  function getFileBounty(uint256 _index, uint256 _fileIndex)\r... */\n      swap3\n      swap2\n      pop\n      pop\n      jump\t// out\n        /* \"contracts/access/Ownable.sol\":2081:2279  function transferOwnership(address newOwner) public virtual onlyOwner {... */\n    tag_276:\n        /* \"contracts/access/Ownable.sol\":1094:1107  _checkOwner() */\n      tag_689\n        /* \"contracts/access/Ownable.sol\":1094:1105  _checkOwner */\n      tag_510\n        /* \"contracts/access/Ownable.sol\":1094:1107  _checkOwner() */\n      jump\t// in\n    tag_689:\n      sub(shl(0xa0, 0x01), 0x01)\n        /* \"contracts/access/Ownable.sol\":2169:2191  newOwner != address(0) */\n      dup2\n      and\n        /* \"contracts/access/Ownable.sol\":2161:2234  require(newOwner != address(0), \"Ownable: new owner is the zero address\") */\n      tag_691\n      jumpi\n      mload(0x40)\n      shl(0xe5, 0x461bcd)\n      dup2\n      mstore\n        /* \"#utility.yul\":16895:16897   */\n      0x20\n        /* \"contracts/access/Ownable.sol\":2161:2234  require(newOwner != address(0), \"Ownable: new owner is the zero address\") */\n      0x04\n      dup3\n      add\n        /* \"#utility.yul\":16877:16898   */\n      mstore\n        /* \"#utility.yul\":16934:16936   */\n      0x26\n        /* \"#utility.yul\":16914:16932   */\n      0x24\n      dup3\n      add\n        /* \"#utility.yul\":16907:16937   */\n      mstore\n        /* \"#utility.yul\":16973:17007   */\n      0x4f776e61626c653a206e6577206f776e657220697320746865207a65726f2061\n        /* \"#utility.yul\":16953:16971   */\n      0x44\n      dup3\n      add\n        /* \"#utility.yul\":16946:17008   */\n      mstore\n      shl(0xd0, 0x646472657373)\n        /* \"#utility.yul\":17024:17042   */\n      0x64\n      dup3\n      add\n        /* \"#utility.yul\":17017:17053   */\n      mstore\n        /* \"#utility.yul\":17070:17089   */\n      0x84\n      add\n        /* \"contracts/access/Ownable.sol\":2161:2234  require(newOwner != address(0), \"Ownable: new owner is the zero address\") */\n      tag_291\n        /* \"#utility.yul\":16693:17095   */\n      jump\n        /* \"contracts/access/Ownable.sol\":2161:2234  require(newOwner != address(0), \"Ownable: new owner is the zero address\") */\n    tag_691:\n        /* \"contracts/access/Ownable.sol\":2244:2272  _transferOwnership(newOwner) */\n      tag_694\n        /* \"contracts/access/Ownable.sol\":2263:2271  newOwner */\n      dup2\n        /* \"contracts/access/Ownable.sol\":2244:2262  _transferOwnership */\n      tag_513\n        /* \"contracts/access/Ownable.sol\":2244:2272  _transferOwnership(newOwner) */\n      jump\t// in\n    tag_694:\n        /* \"contracts/access/Ownable.sol\":2081:2279  function transferOwnership(address newOwner) public virtual onlyOwner {... */\n      pop\n      jump\t// out\n        /* \"AmphiTrans.sol\":11185:11309  function addTransNumber(uint256 _index,uint256 _number) public isAccess {\r... */\n    tag_283:\n        /* \"AmphiTrans.sol\":731:744  accessAddress */\n      and(sub(shl(0xa0, 0x01), 0x01), sload(0x06))\n        /* \"AmphiTrans.sol\":717:727  msg.sender */\n      caller\n        /* \"AmphiTrans.sol\":717:744  msg.sender != accessAddress */\n      eq\n        /* \"AmphiTrans.sol\":714:817  if(msg.sender != accessAddress) {\r... */\n      tag_697\n      jumpi\n        /* \"AmphiTrans.sol\":769:805  AccessError(\"Error Access Address!\") */\n      mload(0x40)\n      shl(0xe4, 0x048e2d49)\n      dup2\n      mstore\n      0x04\n      add\n      tag_291\n      swap1\n      tag_292\n      jump\t// in\n        /* \"AmphiTrans.sol\":714:817  if(msg.sender != accessAddress) {\r... */\n    tag_697:\n        /* \"AmphiTrans.sol\":11268:11284  taskList[_index] */\n      0x00\n      dup3\n      dup2\n      mstore\n        /* \"AmphiTrans.sol\":11268:11276  taskList */\n      0x01\n        /* \"AmphiTrans.sol\":11268:11284  taskList[_index] */\n      0x20\n      mstore\n      0x40\n      dup2\n      keccak256\n        /* \"AmphiTrans.sol\":11268:11292  taskList[_index].numberT */\n      0x11\n      add\n        /* \"AmphiTrans.sol\":11268:11301  taskList[_index].numberT+=_number */\n      dup1\n      sload\n        /* \"AmphiTrans.sol\":11294:11301  _number */\n      dup4\n      swap3\n        /* \"AmphiTrans.sol\":11268:11284  taskList[_index] */\n      swap1\n        /* \"AmphiTrans.sol\":11268:11301  taskList[_index].numberT+=_number */\n      tag_329\n      swap1\n        /* \"AmphiTrans.sol\":11294:11301  _number */\n      dup5\n      swap1\n        /* \"AmphiTrans.sol\":11268:11301  taskList[_index].numberT+=_number */\n      tag_330\n      jump\t// in\n        /* \"contracts/access/Ownable.sol\":1359:1489  function _checkOwner() internal view virtual {... */\n    tag_510:\n        /* \"contracts/access/Ownable.sol\":1247:1254  address */\n      0x00\n        /* \"contracts/access/Ownable.sol\":1273:1279  _owner */\n      sload\n      sub(shl(0xa0, 0x01), 0x01)\n      and\n        /* \"contracts/utils/Context.sol\":719:729  msg.sender */\n      caller\n        /* \"contracts/access/Ownable.sol\":1422:1445  owner() == _msgSender() */\n      eq\n        /* \"contracts/access/Ownable.sol\":1414:1482  require(owner() == _msgSender(), \"Ownable: caller is not the owner\") */\n      tag_512\n      jumpi\n      mload(0x40)\n      shl(0xe5, 0x461bcd)\n      dup2\n      mstore\n        /* \"#utility.yul\":17302:17304   */\n      0x20\n        /* \"contracts/access/Ownable.sol\":1414:1482  require(owner() == _msgSender(), \"Ownable: caller is not the owner\") */\n      0x04\n      dup3\n      add\n        /* \"#utility.yul\":17284:17305   */\n      dup2\n      swap1\n      mstore\n        /* \"#utility.yul\":17321:17339   */\n      0x24\n      dup3\n      add\n        /* \"#utility.yul\":17314:17344   */\n      mstore\n        /* \"#utility.yul\":17380:17414   */\n      0x4f776e61626c653a2063616c6c6572206973206e6f7420746865206f776e6572\n        /* \"#utility.yul\":17360:17378   */\n      0x44\n      dup3\n      add\n        /* \"#utility.yul\":17353:17415   */\n      mstore\n        /* \"#utility.yul\":17432:17450   */\n      0x64\n      add\n        /* \"contracts/access/Ownable.sol\":1414:1482  require(owner() == _msgSender(), \"Ownable: caller is not the owner\") */\n      tag_291\n        /* \"#utility.yul\":17100:17456   */\n      jump\n        /* \"contracts/access/Ownable.sol\":2433:2620  function _transferOwnership(address newOwner) internal virtual {... */\n    tag_513:\n        /* \"contracts/access/Ownable.sol\":2506:2522  address oldOwner */\n      0x00\n        /* \"contracts/access/Ownable.sol\":2525:2531  _owner */\n      dup1\n      sload\n      sub(shl(0xa0, 0x01), 0x01)\n        /* \"contracts/access/Ownable.sol\":2541:2558  _owner = newOwner */\n      dup4\n      dup2\n      and\n      not(sub(shl(0xa0, 0x01), 0x01))\n      dup4\n      and\n      dup2\n      or\n      dup5\n      sstore\n        /* \"contracts/access/Ownable.sol\":2573:2613  OwnershipTransferred(oldOwner, newOwner) */\n      mload(0x40)\n        /* \"contracts/access/Ownable.sol\":2525:2531  _owner */\n      swap2\n      swap1\n      swap3\n      and\n      swap3\n      dup4\n      swap2\n        /* \"contracts/access/Ownable.sol\":2573:2613  OwnershipTransferred(oldOwner, newOwner) */\n      0x8be0079c531659141344cd1fd0a4f28419497f9722a3daafe3b4186f6b6457e0\n      swap2\n        /* \"contracts/access/Ownable.sol\":2506:2522  address oldOwner */\n      swap1\n        /* \"contracts/access/Ownable.sol\":2573:2613  OwnershipTransferred(oldOwner, newOwner) */\n      log3\n        /* \"contracts/access/Ownable.sol\":2496:2620  {... */\n      pop\n        /* \"contracts/access/Ownable.sol\":2433:2620  function _transferOwnership(address newOwner) internal virtual {... */\n      pop\n      jump\t// out\n    tag_299:\n      dup3\n      dup1\n      sload\n      tag_711\n      swap1\n      tag_305\n      jump\t// in\n    tag_711:\n      swap1\n      0x00\n      mstore\n      keccak256(0x00, 0x20)\n      swap1\n      0x1f\n      add\n      0x20\n      swap1\n      div\n      dup2\n      add\n      swap3\n      dup3\n      tag_713\n      jumpi\n      0x00\n      dup6\n      sstore\n      jump(tag_716)\n    tag_713:\n      dup3\n      0x1f\n      lt\n      tag_714\n      jumpi\n      dup1\n      mload\n      not(0xff)\n      and\n      dup4\n      dup1\n      add\n      or\n      dup6\n      sstore\n      jump(tag_716)\n    tag_714:\n      dup3\n      dup1\n      add\n      0x01\n      add\n      dup6\n      sstore\n      dup3\n      iszero\n      tag_716\n      jumpi\n      swap2\n      dup3\n      add\n    tag_715:\n      dup3\n      dup2\n      gt\n      iszero\n      tag_716\n      jumpi\n      dup3\n      mload\n      dup3\n      sstore\n      swap2\n      0x20\n      add\n      swap2\n      swap1\n      0x01\n      add\n      swap1\n      jump(tag_715)\n    tag_716:\n      pop\n      tag_717\n      swap3\n      swap2\n      pop\n      tag_718\n      jump\t// in\n    tag_717:\n      pop\n      swap1\n      jump\t// out\n    tag_351:\n      dup3\n      dup1\n      sload\n      dup3\n      dup3\n      sstore\n      swap1\n      0x00\n      mstore\n      keccak256(0x00, 0x20)\n      swap1\n      dup2\n      add\n      swap3\n      dup3\n      iszero\n      tag_716\n      jumpi\n      swap2\n      0x20\n      mul\n      dup3\n      add\n      dup3\n      dup2\n      gt\n      iszero\n      tag_716\n      jumpi\n      dup3\n      mload\n      dup3\n      sstore\n      swap2\n      0x20\n      add\n      swap2\n      swap1\n      0x01\n      add\n      swap1\n      jump(tag_715)\n    tag_378:\n      mload(0x40)\n      dup1\n      0x02e0\n      add\n      0x40\n      mstore\n      dup1\n      and(sub(shl(0xa0, 0x01), 0x01), 0x00)\n      dup2\n      mstore\n      0x20\n      add\n      0x00\n      dup2\n      mstore\n      0x20\n      add\n      0x60\n      dup2\n      mstore\n      0x20\n      add\n      0x60\n      dup2\n      mstore\n      0x20\n      add\n      0x00\n      dup2\n      mstore\n      0x20\n      add\n      0x00\n      dup2\n      mstore\n      0x20\n      add\n      0x00\n      dup2\n      mstore\n      0x20\n      add\n      0x60\n      dup2\n      mstore\n      0x20\n      add\n      0x00\n      dup2\n      mstore\n      0x20\n      add\n      0x00\n      dup2\n      mstore\n      0x20\n      add\n      iszero(iszero(0x00))\n      dup2\n      mstore\n      0x20\n      add\n      iszero(iszero(0x00))\n      dup2\n      mstore\n      0x20\n      add\n      0x00\n      dup2\n      mstore\n      0x20\n      add\n      0x60\n      dup2\n      mstore\n      0x20\n      add\n      0x60\n      dup2\n      mstore\n      0x20\n      add\n      0x60\n      dup2\n      mstore\n      0x20\n      add\n      0x00\n      dup2\n      mstore\n      0x20\n      add\n      0x00\n      dup2\n      mstore\n      0x20\n      add\n      0x00\n      dup2\n      mstore\n      0x20\n      add\n      0x00\n      dup2\n      mstore\n      0x20\n      add\n      iszero(iszero(0x00))\n      dup2\n      mstore\n      0x20\n      add\n      iszero(iszero(0x00))\n      dup2\n      mstore\n      0x20\n      add\n      0x00\n      0x07\n      dup2\n      gt\n      iszero\n      tag_724\n      jumpi\n      tag_724\n      tag_322\n      jump\t// in\n    tag_724:\n      swap1\n      mstore\n      swap1\n      jump\t// out\n    tag_455:\n      mload(0x40)\n      dup1\n      0x60\n      add\n      0x40\n      mstore\n      dup1\n      and(sub(shl(0xa0, 0x01), 0x01), 0x00)\n      dup2\n      mstore\n      0x20\n      add\n      0x60\n      dup2\n      mstore\n      0x20\n      add\n      0x60\n      dup2\n      mstore\n      pop\n      swap1\n      jump\t// out\n    tag_718:\n    tag_727:\n      dup1\n      dup3\n      gt\n      iszero\n      tag_717\n      jumpi\n      0x00\n      dup2\n      sstore\n      0x01\n      add\n      jump(tag_727)\n        /* \"#utility.yul\":14:187   */\n    tag_730:\n        /* \"#utility.yul\":82:102   */\n      dup1\n      calldataload\n      sub(shl(0xa0, 0x01), 0x01)\n        /* \"#utility.yul\":131:162   */\n      dup2\n      and\n        /* \"#utility.yul\":121:163   */\n      dup2\n      eq\n        /* \"#utility.yul\":111:181   */\n      tag_732\n      jumpi\n        /* \"#utility.yul\":177:178   */\n      0x00\n        /* \"#utility.yul\":174:175   */\n      dup1\n        /* \"#utility.yul\":167:179   */\n      revert\n        /* \"#utility.yul\":111:181   */\n    tag_732:\n        /* \"#utility.yul\":14:187   */\n      swap2\n      swap1\n      pop\n      jump\t// out\n        /* \"#utility.yul\":192:2588   */\n    tag_733:\n        /* \"#utility.yul\":254:259   */\n      0x00\n        /* \"#utility.yul\":307:310   */\n      dup3\n        /* \"#utility.yul\":300:304   */\n      0x1f\n        /* \"#utility.yul\":292:298   */\n      dup4\n        /* \"#utility.yul\":288:305   */\n      add\n        /* \"#utility.yul\":284:311   */\n      slt\n        /* \"#utility.yul\":274:329   */\n      tag_735\n      jumpi\n        /* \"#utility.yul\":325:326   */\n      0x00\n        /* \"#utility.yul\":322:323   */\n      dup1\n        /* \"#utility.yul\":315:327   */\n      revert\n        /* \"#utility.yul\":274:329   */\n    tag_735:\n        /* \"#utility.yul\":348:352   */\n      0x20\n        /* \"#utility.yul\":372:458   */\n      tag_736\n        /* \"#utility.yul\":388:457   */\n      tag_737\n        /* \"#utility.yul\":449:455   */\n      dup5\n        /* \"#utility.yul\":436:456   */\n      calldataload\n        /* \"#utility.yul\":388:457   */\n      tag_738\n      jump\t// in\n    tag_737:\n        /* \"#utility.yul\":372:458   */\n      tag_739\n      jump\t// in\n    tag_736:\n        /* \"#utility.yul\":480:483   */\n      dup1\n        /* \"#utility.yul\":517:523   */\n      dup5\n        /* \"#utility.yul\":504:524   */\n      calldataload\n        /* \"#utility.yul\":499:502   */\n      dup3\n        /* \"#utility.yul\":492:525   */\n      mstore\n        /* \"#utility.yul\":550:552   */\n      dup3\n        /* \"#utility.yul\":545:548   */\n      dup3\n        /* \"#utility.yul\":541:553   */\n      add\n        /* \"#utility.yul\":534:553   */\n      swap2\n      pop\n        /* \"#utility.yul\":585:587   */\n      dup3\n        /* \"#utility.yul\":577:583   */\n      dup6\n        /* \"#utility.yul\":573:588   */\n      add\n        /* \"#utility.yul\":655:658   */\n      dup7\n        /* \"#utility.yul\":650:652   */\n      dup5\n        /* \"#utility.yul\":639:645   */\n      dup8\n        /* \"#utility.yul\":626:646   */\n      calldataload\n        /* \"#utility.yul\":623:624   */\n      0x05\n        /* \"#utility.yul\":619:647   */\n      shl\n        /* \"#utility.yul\":611:617   */\n      dup9\n        /* \"#utility.yul\":607:648   */\n      add\n        /* \"#utility.yul\":603:653   */\n      add\n        /* \"#utility.yul\":600:659   */\n      gt\n        /* \"#utility.yul\":597:676   */\n      iszero\n      tag_740\n      jumpi\n        /* \"#utility.yul\":672:673   */\n      0x00\n        /* \"#utility.yul\":669:670   */\n      dup1\n        /* \"#utility.yul\":662:674   */\n      revert\n        /* \"#utility.yul\":597:676   */\n    tag_740:\n        /* \"#utility.yul\":694:695   */\n      0x00\n        /* \"#utility.yul\":704:2559   */\n    tag_741:\n        /* \"#utility.yul\":731:737   */\n      dup7\n        /* \"#utility.yul\":718:738   */\n      calldataload\n        /* \"#utility.yul\":715:716   */\n      dup2\n        /* \"#utility.yul\":712:739   */\n      lt\n        /* \"#utility.yul\":704:2559   */\n      iszero\n      tag_743\n      jumpi\n      sub(shl(0x40, 0x01), 0x01)\n        /* \"#utility.yul\":847:849   */\n      dup1\n        /* \"#utility.yul\":841:844   */\n      dup4\n        /* \"#utility.yul\":828:845   */\n      calldataload\n        /* \"#utility.yul\":825:850   */\n      gt\n        /* \"#utility.yul\":822:867   */\n      iszero\n      tag_744\n      jumpi\n        /* \"#utility.yul\":863:864   */\n      0x00\n        /* \"#utility.yul\":860:861   */\n      dup1\n        /* \"#utility.yul\":853:865   */\n      revert\n        /* \"#utility.yul\":822:867   */\n    tag_744:\n        /* \"#utility.yul\":902:919   */\n      dup3\n      calldataload\n        /* \"#utility.yul\":890:920   */\n      dup9\n      add\n      not(0x1f)\n        /* \"#utility.yul\":993:997   */\n      0xa0\n        /* \"#utility.yul\":974:986   */\n      dup3\n      dup13\n      sub\n        /* \"#utility.yul\":970:991   */\n      dup3\n      add\n        /* \"#utility.yul\":966:998   */\n      slt\n        /* \"#utility.yul\":963:1015   */\n      iszero\n      tag_745\n      jumpi\n        /* \"#utility.yul\":1011:1012   */\n      0x00\n        /* \"#utility.yul\":1008:1009   */\n      dup1\n        /* \"#utility.yul\":1001:1013   */\n      revert\n        /* \"#utility.yul\":963:1015   */\n    tag_745:\n        /* \"#utility.yul\":1041:1063   */\n      tag_746\n      tag_747\n      jump\t// in\n    tag_746:\n        /* \"#utility.yul\":1113:1115   */\n      dup9\n        /* \"#utility.yul\":1109:1111   */\n      dup4\n        /* \"#utility.yul\":1105:1116   */\n      add\n        /* \"#utility.yul\":1092:1117   */\n      calldataload\n        /* \"#utility.yul\":1146:1148   */\n      dup5\n        /* \"#utility.yul\":1136:1144   */\n      dup2\n        /* \"#utility.yul\":1133:1149   */\n      gt\n        /* \"#utility.yul\":1130:1166   */\n      iszero\n      tag_748\n      jumpi\n        /* \"#utility.yul\":1162:1163   */\n      0x00\n        /* \"#utility.yul\":1159:1160   */\n      dup1\n        /* \"#utility.yul\":1152:1164   */\n      revert\n        /* \"#utility.yul\":1130:1166   */\n    tag_748:\n        /* \"#utility.yul\":1189:1206   */\n      dup4\n      add\n        /* \"#utility.yul\":1249:1253   */\n      0xe0\n        /* \"#utility.yul\":1230:1242   */\n      dup2\n      dup15\n      sub\n        /* \"#utility.yul\":1226:1247   */\n      dup5\n      add\n        /* \"#utility.yul\":1222:1254   */\n      slt\n        /* \"#utility.yul\":1219:1271   */\n      iszero\n      tag_749\n      jumpi\n        /* \"#utility.yul\":1267:1268   */\n      0x00\n        /* \"#utility.yul\":1264:1265   */\n      dup1\n        /* \"#utility.yul\":1257:1269   */\n      revert\n        /* \"#utility.yul\":1219:1271   */\n    tag_749:\n        /* \"#utility.yul\":1299:1321   */\n      tag_750\n      tag_751\n      jump\t// in\n    tag_750:\n        /* \"#utility.yul\":1284:1321   */\n      swap3\n      pop\n        /* \"#utility.yul\":1371:1373   */\n      dup10\n        /* \"#utility.yul\":1367:1369   */\n      dup2\n        /* \"#utility.yul\":1363:1374   */\n      add\n        /* \"#utility.yul\":1350:1375   */\n      calldataload\n        /* \"#utility.yul\":1404:1406   */\n      dup6\n        /* \"#utility.yul\":1394:1402   */\n      dup2\n        /* \"#utility.yul\":1391:1407   */\n      gt\n        /* \"#utility.yul\":1388:1424   */\n      iszero\n      tag_752\n      jumpi\n        /* \"#utility.yul\":1420:1421   */\n      0x00\n        /* \"#utility.yul\":1417:1418   */\n      dup1\n        /* \"#utility.yul\":1410:1422   */\n      revert\n        /* \"#utility.yul\":1388:1424   */\n    tag_752:\n        /* \"#utility.yul\":1453:1503   */\n      tag_753\n        /* \"#utility.yul\":1499:1502   */\n      dup15\n        /* \"#utility.yul\":1494:1496   */\n      dup13\n        /* \"#utility.yul\":1483:1491   */\n      dup4\n        /* \"#utility.yul\":1479:1481   */\n      dup6\n        /* \"#utility.yul\":1475:1492   */\n      add\n        /* \"#utility.yul\":1471:1497   */\n      add\n        /* \"#utility.yul\":1453:1503   */\n      tag_754\n      jump\t// in\n    tag_753:\n        /* \"#utility.yul\":1444:1451   */\n      dup5\n        /* \"#utility.yul\":1437:1504   */\n      mstore\n      pop\n        /* \"#utility.yul\":1563:1565   */\n      0x40\n        /* \"#utility.yul\":1559:1561   */\n      dup2\n        /* \"#utility.yul\":1555:1566   */\n      add\n        /* \"#utility.yul\":1542:1567   */\n      calldataload\n        /* \"#utility.yul\":1537:1539   */\n      dup11\n        /* \"#utility.yul\":1528:1535   */\n      dup5\n        /* \"#utility.yul\":1524:1540   */\n      add\n        /* \"#utility.yul\":1517:1568   */\n      mstore\n        /* \"#utility.yul\":1627:1629   */\n      0x60\n        /* \"#utility.yul\":1623:1625   */\n      dup2\n        /* \"#utility.yul\":1619:1630   */\n      add\n        /* \"#utility.yul\":1606:1631   */\n      calldataload\n        /* \"#utility.yul\":1601:1603   */\n      0x40\n        /* \"#utility.yul\":1592:1599   */\n      dup5\n        /* \"#utility.yul\":1588:1604   */\n      add\n        /* \"#utility.yul\":1581:1632   */\n      mstore\n        /* \"#utility.yul\":1691:1694   */\n      0x80\n        /* \"#utility.yul\":1687:1689   */\n      dup2\n        /* \"#utility.yul\":1683:1695   */\n      add\n        /* \"#utility.yul\":1670:1696   */\n      calldataload\n        /* \"#utility.yul\":1665:1667   */\n      0x60\n        /* \"#utility.yul\":1656:1663   */\n      dup5\n        /* \"#utility.yul\":1652:1668   */\n      add\n        /* \"#utility.yul\":1645:1697   */\n      mstore\n        /* \"#utility.yul\":1757:1761   */\n      0xa0\n        /* \"#utility.yul\":1753:1755   */\n      dup2\n        /* \"#utility.yul\":1749:1762   */\n      add\n        /* \"#utility.yul\":1736:1763   */\n      calldataload\n        /* \"#utility.yul\":1730:1733   */\n      0x80\n        /* \"#utility.yul\":1721:1728   */\n      dup5\n        /* \"#utility.yul\":1717:1734   */\n      add\n        /* \"#utility.yul\":1710:1764   */\n      mstore\n        /* \"#utility.yul\":1825:1828   */\n      0xc0\n        /* \"#utility.yul\":1821:1823   */\n      dup2\n        /* \"#utility.yul\":1817:1829   */\n      add\n        /* \"#utility.yul\":1804:1830   */\n      calldataload\n        /* \"#utility.yul\":1797:1801   */\n      0xa0\n        /* \"#utility.yul\":1788:1795   */\n      dup5\n        /* \"#utility.yul\":1784:1802   */\n      add\n        /* \"#utility.yul\":1777:1831   */\n      mstore\n        /* \"#utility.yul\":1881:1885   */\n      0xe0\n        /* \"#utility.yul\":1877:1879   */\n      dup2\n        /* \"#utility.yul\":1873:1886   */\n      add\n        /* \"#utility.yul\":1860:1887   */\n      calldataload\n        /* \"#utility.yul\":1916:1918   */\n      dup6\n        /* \"#utility.yul\":1906:1914   */\n      dup2\n        /* \"#utility.yul\":1903:1919   */\n      gt\n        /* \"#utility.yul\":1900:1936   */\n      iszero\n      tag_755\n      jumpi\n        /* \"#utility.yul\":1932:1933   */\n      0x00\n        /* \"#utility.yul\":1929:1930   */\n      dup1\n        /* \"#utility.yul\":1922:1934   */\n      revert\n        /* \"#utility.yul\":1900:1936   */\n    tag_755:\n        /* \"#utility.yul\":1975:2025   */\n      tag_756\n        /* \"#utility.yul\":2021:2024   */\n      dup15\n        /* \"#utility.yul\":2016:2018   */\n      dup13\n        /* \"#utility.yul\":2005:2013   */\n      dup4\n        /* \"#utility.yul\":2001:2003   */\n      dup6\n        /* \"#utility.yul\":1997:2014   */\n      add\n        /* \"#utility.yul\":1993:2019   */\n      add\n        /* \"#utility.yul\":1975:2025   */\n      tag_754\n      jump\t// in\n    tag_756:\n        /* \"#utility.yul\":1969:1972   */\n      0xc0\n        /* \"#utility.yul\":1956:1973   */\n      dup6\n      add\n        /* \"#utility.yul\":1949:2026   */\n      mstore\n      pop\n      pop\n        /* \"#utility.yul\":2039:2061   */\n      swap1\n      dup2\n      mstore\n        /* \"#utility.yul\":2118:2120   */\n      0x40\n        /* \"#utility.yul\":2110:2121   */\n      dup3\n      add\n        /* \"#utility.yul\":2097:2122   */\n      calldataload\n        /* \"#utility.yul\":2081:2095   */\n      dup9\n      dup3\n      add\n        /* \"#utility.yul\":2074:2123   */\n      mstore\n        /* \"#utility.yul\":2173:2175   */\n      0x60\n        /* \"#utility.yul\":2165:2176   */\n      dup3\n      add\n        /* \"#utility.yul\":2152:2177   */\n      calldataload\n      swap1\n        /* \"#utility.yul\":2193:2209   */\n      dup4\n      dup3\n      gt\n        /* \"#utility.yul\":2190:2226   */\n      iszero\n      tag_757\n      jumpi\n        /* \"#utility.yul\":2222:2223   */\n      0x00\n        /* \"#utility.yul\":2219:2220   */\n      dup1\n        /* \"#utility.yul\":2212:2224   */\n      revert\n        /* \"#utility.yul\":2190:2226   */\n    tag_757:\n        /* \"#utility.yul\":2262:2312   */\n      tag_758\n        /* \"#utility.yul\":2308:2311   */\n      dup13\n        /* \"#utility.yul\":2303:2305   */\n      dup11\n        /* \"#utility.yul\":2292:2300   */\n      dup5\n        /* \"#utility.yul\":2288:2290   */\n      dup7\n        /* \"#utility.yul\":2284:2301   */\n      add\n        /* \"#utility.yul\":2280:2306   */\n      add\n        /* \"#utility.yul\":2262:2312   */\n      tag_754\n      jump\t// in\n    tag_758:\n        /* \"#utility.yul\":2257:2259   */\n      0x40\n        /* \"#utility.yul\":2250:2255   */\n      dup3\n        /* \"#utility.yul\":2246:2260   */\n      add\n        /* \"#utility.yul\":2239:2313   */\n      mstore\n        /* \"#utility.yul\":2349:2388   */\n      tag_759\n        /* \"#utility.yul\":2383:2386   */\n      0x80\n        /* \"#utility.yul\":2379:2381   */\n      dup5\n        /* \"#utility.yul\":2375:2387   */\n      add\n        /* \"#utility.yul\":2349:2388   */\n      tag_760\n      jump\t// in\n    tag_759:\n        /* \"#utility.yul\":2344:2346   */\n      0x60\n        /* \"#utility.yul\":2333:2347   */\n      dup3\n      add\n        /* \"#utility.yul\":2326:2389   */\n      mstore\n        /* \"#utility.yul\":2447:2451   */\n      0xa0\n        /* \"#utility.yul\":2439:2452   */\n      swap3\n      swap1\n      swap3\n      add\n        /* \"#utility.yul\":2426:2453   */\n      calldataload\n        /* \"#utility.yul\":2420:2423   */\n      0x80\n        /* \"#utility.yul\":2409:2424   */\n      dup4\n      add\n        /* \"#utility.yul\":2402:2454   */\n      mstore\n      pop\n        /* \"#utility.yul\":2467:2485   */\n      dup6\n      mstore\n      pop\n        /* \"#utility.yul\":2505:2517   */\n      swap3\n      dup5\n      add\n      swap3\n        /* \"#utility.yul\":2537:2549   */\n      swap1\n      dup5\n      add\n      swap1\n        /* \"#utility.yul\":754:755   */\n      0x01\n        /* \"#utility.yul\":747:756   */\n      add\n        /* \"#utility.yul\":704:2559   */\n      jump(tag_741)\n    tag_743:\n      pop\n        /* \"#utility.yul\":2577:2582   */\n      swap1\n      swap7\n        /* \"#utility.yul\":192:2588   */\n      swap6\n      pop\n      pop\n      pop\n      pop\n      pop\n      pop\n      jump\t// out\n        /* \"#utility.yul\":2593:3274   */\n    tag_761:\n        /* \"#utility.yul\":2647:2652   */\n      0x00\n        /* \"#utility.yul\":2700:2703   */\n      dup3\n        /* \"#utility.yul\":2693:2697   */\n      0x1f\n        /* \"#utility.yul\":2685:2691   */\n      dup4\n        /* \"#utility.yul\":2681:2698   */\n      add\n        /* \"#utility.yul\":2677:2704   */\n      slt\n        /* \"#utility.yul\":2667:2722   */\n      tag_763\n      jumpi\n        /* \"#utility.yul\":2718:2719   */\n      0x00\n        /* \"#utility.yul\":2715:2716   */\n      dup1\n        /* \"#utility.yul\":2708:2720   */\n      revert\n        /* \"#utility.yul\":2667:2722   */\n    tag_763:\n        /* \"#utility.yul\":2754:2760   */\n      dup2\n        /* \"#utility.yul\":2741:2761   */\n      calldataload\n        /* \"#utility.yul\":2780:2784   */\n      0x20\n        /* \"#utility.yul\":2804:2872   */\n      tag_764\n        /* \"#utility.yul\":2820:2871   */\n      tag_737\n        /* \"#utility.yul\":2868:2870   */\n      dup4\n        /* \"#utility.yul\":2820:2871   */\n      tag_738\n      jump\t// in\n        /* \"#utility.yul\":2804:2872   */\n    tag_764:\n        /* \"#utility.yul\":2894:2897   */\n      dup1\n        /* \"#utility.yul\":2918:2920   */\n      dup4\n        /* \"#utility.yul\":2913:2916   */\n      dup3\n        /* \"#utility.yul\":2906:2921   */\n      mstore\n        /* \"#utility.yul\":2946:2948   */\n      dup3\n        /* \"#utility.yul\":2941:2944   */\n      dup3\n        /* \"#utility.yul\":2937:2949   */\n      add\n        /* \"#utility.yul\":2930:2949   */\n      swap2\n      pop\n        /* \"#utility.yul\":2981:2983   */\n      dup3\n        /* \"#utility.yul\":2973:2979   */\n      dup7\n        /* \"#utility.yul\":2969:2984   */\n      add\n        /* \"#utility.yul\":3033:3036   */\n      dup8\n        /* \"#utility.yul\":3028:3030   */\n      dup5\n        /* \"#utility.yul\":3022:3024   */\n      dup7\n        /* \"#utility.yul\":3019:3020   */\n      0x05\n        /* \"#utility.yul\":3015:3025   */\n      shl\n        /* \"#utility.yul\":3007:3013   */\n      dup10\n        /* \"#utility.yul\":3003:3026   */\n      add\n        /* \"#utility.yul\":2999:3031   */\n      add\n        /* \"#utility.yul\":2996:3037   */\n      gt\n        /* \"#utility.yul\":2993:3054   */\n      iszero\n      tag_766\n      jumpi\n        /* \"#utility.yul\":3050:3051   */\n      0x00\n        /* \"#utility.yul\":3047:3048   */\n      dup1\n        /* \"#utility.yul\":3040:3052   */\n      revert\n        /* \"#utility.yul\":2993:3054   */\n    tag_766:\n        /* \"#utility.yul\":3072:3073   */\n      0x00\n        /* \"#utility.yul\":3082:3245   */\n    tag_767:\n        /* \"#utility.yul\":3096:3098   */\n      dup6\n        /* \"#utility.yul\":3093:3094   */\n      dup2\n        /* \"#utility.yul\":3090:3099   */\n      lt\n        /* \"#utility.yul\":3082:3245   */\n      iszero\n      tag_769\n      jumpi\n        /* \"#utility.yul\":3153:3170   */\n      dup2\n      calldataload\n        /* \"#utility.yul\":3141:3171   */\n      dup5\n      mstore\n        /* \"#utility.yul\":3191:3203   */\n      swap3\n      dup5\n      add\n      swap3\n        /* \"#utility.yul\":3223:3235   */\n      swap1\n      dup5\n      add\n      swap1\n        /* \"#utility.yul\":3114:3115   */\n      0x01\n        /* \"#utility.yul\":3107:3116   */\n      add\n        /* \"#utility.yul\":3082:3245   */\n      jump(tag_767)\n    tag_769:\n      pop\n        /* \"#utility.yul\":3263:3268   */\n      swap1\n      swap8\n        /* \"#utility.yul\":2593:3274   */\n      swap7\n      pop\n      pop\n      pop\n      pop\n      pop\n      pop\n      pop\n      jump\t// out\n        /* \"#utility.yul\":3279:3439   */\n    tag_770:\n        /* \"#utility.yul\":3344:3364   */\n      dup1\n      calldataload\n        /* \"#utility.yul\":3400:3413   */\n      dup1\n      iszero\n        /* \"#utility.yul\":3393:3414   */\n      iszero\n        /* \"#utility.yul\":3383:3415   */\n      dup2\n      eq\n        /* \"#utility.yul\":3373:3433   */\n      tag_732\n      jumpi\n        /* \"#utility.yul\":3429:3430   */\n      0x00\n        /* \"#utility.yul\":3426:3427   */\n      dup1\n        /* \"#utility.yul\":3419:3431   */\n      revert\n        /* \"#utility.yul\":3444:3595   */\n    tag_760:\n        /* \"#utility.yul\":3519:3539   */\n      dup1\n      calldataload\n        /* \"#utility.yul\":3568:3570   */\n      0x0c\n        /* \"#utility.yul\":3558:3571   */\n      dup2\n      lt\n        /* \"#utility.yul\":3548:3589   */\n      tag_732\n      jumpi\n        /* \"#utility.yul\":3585:3586   */\n      0x00\n        /* \"#utility.yul\":3582:3583   */\n      dup1\n        /* \"#utility.yul\":3575:3587   */\n      revert\n        /* \"#utility.yul\":3600:4131   */\n    tag_754:\n        /* \"#utility.yul\":3643:3648   */\n      0x00\n        /* \"#utility.yul\":3696:3699   */\n      dup3\n        /* \"#utility.yul\":3689:3693   */\n      0x1f\n        /* \"#utility.yul\":3681:3687   */\n      dup4\n        /* \"#utility.yul\":3677:3694   */\n      add\n        /* \"#utility.yul\":3673:3700   */\n      slt\n        /* \"#utility.yul\":3663:3718   */\n      tag_776\n      jumpi\n        /* \"#utility.yul\":3714:3715   */\n      0x00\n        /* \"#utility.yul\":3711:3712   */\n      dup1\n        /* \"#utility.yul\":3704:3716   */\n      revert\n        /* \"#utility.yul\":3663:3718   */\n    tag_776:\n        /* \"#utility.yul\":3750:3756   */\n      dup2\n        /* \"#utility.yul\":3737:3757   */\n      calldataload\n      sub(shl(0x40, 0x01), 0x01)\n        /* \"#utility.yul\":3772:3774   */\n      dup2\n        /* \"#utility.yul\":3769:3795   */\n      gt\n        /* \"#utility.yul\":3766:3818   */\n      iszero\n      tag_778\n      jumpi\n        /* \"#utility.yul\":3798:3816   */\n      tag_778\n      tag_462\n      jump\t// in\n    tag_778:\n        /* \"#utility.yul\":3842:3897   */\n      tag_779\n        /* \"#utility.yul\":3885:3887   */\n      0x1f\n        /* \"#utility.yul\":3866:3879   */\n      dup3\n      add\n      not(0x1f)\n        /* \"#utility.yul\":3862:3889   */\n      and\n        /* \"#utility.yul\":3891:3895   */\n      0x20\n        /* \"#utility.yul\":3858:3896   */\n      add\n        /* \"#utility.yul\":3842:3897   */\n      tag_739\n      jump\t// in\n    tag_779:\n        /* \"#utility.yul\":3922:3924   */\n      dup2\n        /* \"#utility.yul\":3913:3920   */\n      dup2\n        /* \"#utility.yul\":3906:3925   */\n      mstore\n        /* \"#utility.yul\":3968:3971   */\n      dup5\n        /* \"#utility.yul\":3961:3965   */\n      0x20\n        /* \"#utility.yul\":3956:3958   */\n      dup4\n        /* \"#utility.yul\":3948:3954   */\n      dup7\n        /* \"#utility.yul\":3944:3959   */\n      add\n        /* \"#utility.yul\":3940:3966   */\n      add\n        /* \"#utility.yul\":3937:3972   */\n      gt\n        /* \"#utility.yul\":3934:3989   */\n      iszero\n      tag_780\n      jumpi\n        /* \"#utility.yul\":3985:3986   */\n      0x00\n        /* \"#utility.yul\":3982:3983   */\n      dup1\n        /* \"#utility.yul\":3975:3987   */\n      revert\n        /* \"#utility.yul\":3934:3989   */\n    tag_780:\n        /* \"#utility.yul\":4050:4052   */\n      dup2\n        /* \"#utility.yul\":4043:4047   */\n      0x20\n        /* \"#utility.yul\":4035:4041   */\n      dup6\n        /* \"#utility.yul\":4031:4048   */\n      add\n        /* \"#utility.yul\":4024:4028   */\n      0x20\n        /* \"#utility.yul\":4015:4022   */\n      dup4\n        /* \"#utility.yul\":4011:4029   */\n      add\n        /* \"#utility.yul\":3998:4053   */\n      calldatacopy\n        /* \"#utility.yul\":4098:4099   */\n      0x00\n        /* \"#utility.yul\":4073:4089   */\n      swap2\n      dup2\n      add\n        /* \"#utility.yul\":4091:4095   */\n      0x20\n        /* \"#utility.yul\":4069:4096   */\n      add\n        /* \"#utility.yul\":4062:4100   */\n      swap2\n      swap1\n      swap2\n      mstore\n        /* \"#utility.yul\":4077:4084   */\n      swap4\n        /* \"#utility.yul\":3600:4131   */\n      swap3\n      pop\n      pop\n      pop\n      jump\t// out\n        /* \"#utility.yul\":4136:5792   */\n    tag_781:\n        /* \"#utility.yul\":4190:4195   */\n      0x00\n        /* \"#utility.yul\":4238:4244   */\n      0x01a0\n        /* \"#utility.yul\":4226:4235   */\n      dup3\n        /* \"#utility.yul\":4221:4224   */\n      dup5\n        /* \"#utility.yul\":4217:4236   */\n      sub\n        /* \"#utility.yul\":4213:4245   */\n      slt\n        /* \"#utility.yul\":4210:4262   */\n      iszero\n      tag_783\n      jumpi\n        /* \"#utility.yul\":4258:4259   */\n      0x00\n        /* \"#utility.yul\":4255:4256   */\n      dup1\n        /* \"#utility.yul\":4248:4260   */\n      revert\n        /* \"#utility.yul\":4210:4262   */\n    tag_783:\n        /* \"#utility.yul\":4280:4302   */\n      tag_784\n      tag_785\n      jump\t// in\n    tag_784:\n        /* \"#utility.yul\":4271:4302   */\n      swap1\n      pop\n        /* \"#utility.yul\":4338:4347   */\n      dup2\n        /* \"#utility.yul\":4325:4348   */\n      calldataload\n        /* \"#utility.yul\":4318:4323   */\n      dup2\n        /* \"#utility.yul\":4311:4349   */\n      mstore\n        /* \"#utility.yul\":4400:4402   */\n      0x20\n        /* \"#utility.yul\":4389:4398   */\n      dup3\n        /* \"#utility.yul\":4385:4403   */\n      add\n        /* \"#utility.yul\":4372:4404   */\n      calldataload\n      sub(shl(0x40, 0x01), 0x01)\n        /* \"#utility.yul\":4464:4466   */\n      dup1\n        /* \"#utility.yul\":4456:4462   */\n      dup3\n        /* \"#utility.yul\":4453:4467   */\n      gt\n        /* \"#utility.yul\":4450:4484   */\n      iszero\n      tag_786\n      jumpi\n        /* \"#utility.yul\":4480:4481   */\n      0x00\n        /* \"#utility.yul\":4477:4478   */\n      dup1\n        /* \"#utility.yul\":4470:4482   */\n      revert\n        /* \"#utility.yul\":4450:4484   */\n    tag_786:\n        /* \"#utility.yul\":4516:4562   */\n      tag_787\n        /* \"#utility.yul\":4558:4561   */\n      dup6\n        /* \"#utility.yul\":4549:4555   */\n      dup4\n        /* \"#utility.yul\":4538:4547   */\n      dup7\n        /* \"#utility.yul\":4534:4556   */\n      add\n        /* \"#utility.yul\":4516:4562   */\n      tag_754\n      jump\t// in\n    tag_787:\n        /* \"#utility.yul\":4511:4513   */\n      0x20\n        /* \"#utility.yul\":4504:4509   */\n      dup5\n        /* \"#utility.yul\":4500:4514   */\n      add\n        /* \"#utility.yul\":4493:4563   */\n      mstore\n        /* \"#utility.yul\":4616:4618   */\n      0x40\n        /* \"#utility.yul\":4605:4614   */\n      dup5\n        /* \"#utility.yul\":4601:4619   */\n      add\n        /* \"#utility.yul\":4588:4620   */\n      calldataload\n        /* \"#utility.yul\":4572:4620   */\n      swap2\n      pop\n        /* \"#utility.yul\":4645:4647   */\n      dup1\n        /* \"#utility.yul\":4635:4643   */\n      dup3\n        /* \"#utility.yul\":4632:4648   */\n      gt\n        /* \"#utility.yul\":4629:4665   */\n      iszero\n      tag_788\n      jumpi\n        /* \"#utility.yul\":4661:4662   */\n      0x00\n        /* \"#utility.yul\":4658:4659   */\n      dup1\n        /* \"#utility.yul\":4651:4663   */\n      revert\n        /* \"#utility.yul\":4629:4665   */\n    tag_788:\n        /* \"#utility.yul\":4697:4745   */\n      tag_789\n        /* \"#utility.yul\":4741:4744   */\n      dup6\n        /* \"#utility.yul\":4730:4738   */\n      dup4\n        /* \"#utility.yul\":4719:4728   */\n      dup7\n        /* \"#utility.yul\":4715:4739   */\n      add\n        /* \"#utility.yul\":4697:4745   */\n      tag_754\n      jump\t// in\n    tag_789:\n        /* \"#utility.yul\":4692:4694   */\n      0x40\n        /* \"#utility.yul\":4685:4690   */\n      dup5\n        /* \"#utility.yul\":4681:4695   */\n      add\n        /* \"#utility.yul\":4674:4746   */\n      mstore\n        /* \"#utility.yul\":4806:4808   */\n      0x60\n        /* \"#utility.yul\":4795:4804   */\n      dup5\n        /* \"#utility.yul\":4791:4809   */\n      add\n        /* \"#utility.yul\":4778:4810   */\n      calldataload\n        /* \"#utility.yul\":4773:4775   */\n      0x60\n        /* \"#utility.yul\":4766:4771   */\n      dup5\n        /* \"#utility.yul\":4762:4776   */\n      add\n        /* \"#utility.yul\":4755:4811   */\n      mstore\n        /* \"#utility.yul\":4872:4875   */\n      0x80\n        /* \"#utility.yul\":4861:4870   */\n      dup5\n        /* \"#utility.yul\":4857:4876   */\n      add\n        /* \"#utility.yul\":4844:4877   */\n      calldataload\n        /* \"#utility.yul\":4838:4841   */\n      0x80\n        /* \"#utility.yul\":4831:4836   */\n      dup5\n        /* \"#utility.yul\":4827:4842   */\n      add\n        /* \"#utility.yul\":4820:4878   */\n      mstore\n        /* \"#utility.yul\":4939:4942   */\n      0xa0\n        /* \"#utility.yul\":4928:4937   */\n      dup5\n        /* \"#utility.yul\":4924:4943   */\n      add\n        /* \"#utility.yul\":4911:4944   */\n      calldataload\n        /* \"#utility.yul\":4905:4908   */\n      0xa0\n        /* \"#utility.yul\":4898:4903   */\n      dup5\n        /* \"#utility.yul\":4894:4909   */\n      add\n        /* \"#utility.yul\":4887:4945   */\n      mstore\n        /* \"#utility.yul\":4998:5001   */\n      0xc0\n        /* \"#utility.yul\":4987:4996   */\n      dup5\n        /* \"#utility.yul\":4983:5002   */\n      add\n        /* \"#utility.yul\":4970:5003   */\n      calldataload\n        /* \"#utility.yul\":4954:5003   */\n      swap2\n      pop\n        /* \"#utility.yul\":5028:5030   */\n      dup1\n        /* \"#utility.yul\":5018:5026   */\n      dup3\n        /* \"#utility.yul\":5015:5031   */\n      gt\n        /* \"#utility.yul\":5012:5048   */\n      iszero\n      tag_790\n      jumpi\n        /* \"#utility.yul\":5044:5045   */\n      0x00\n        /* \"#utility.yul\":5041:5042   */\n      dup1\n        /* \"#utility.yul\":5034:5046   */\n      revert\n        /* \"#utility.yul\":5012:5048   */\n    tag_790:\n        /* \"#utility.yul\":5081:5140   */\n      tag_791\n        /* \"#utility.yul\":5136:5139   */\n      dup6\n        /* \"#utility.yul\":5125:5133   */\n      dup4\n        /* \"#utility.yul\":5114:5123   */\n      dup7\n        /* \"#utility.yul\":5110:5134   */\n      add\n        /* \"#utility.yul\":5081:5140   */\n      tag_761\n      jump\t// in\n    tag_791:\n        /* \"#utility.yul\":5075:5078   */\n      0xc0\n        /* \"#utility.yul\":5064:5079   */\n      dup5\n      add\n        /* \"#utility.yul\":5057:5141   */\n      mstore\n        /* \"#utility.yul\":5202:5205   */\n      0xe0\n        /* \"#utility.yul\":5187:5206   */\n      dup5\n      dup2\n      add\n        /* \"#utility.yul\":5174:5207   */\n      calldataload\n        /* \"#utility.yul\":5157:5172   */\n      swap1\n      dup5\n      add\n        /* \"#utility.yul\":5150:5208   */\n      mstore\n        /* \"#utility.yul\":5227:5230   */\n      0x0100\n        /* \"#utility.yul\":5275:5293   */\n      dup1\n      dup6\n      add\n        /* \"#utility.yul\":5262:5294   */\n      calldataload\n        /* \"#utility.yul\":5246:5260   */\n      swap1\n      dup5\n      add\n        /* \"#utility.yul\":5239:5295   */\n      mstore\n        /* \"#utility.yul\":5314:5317   */\n      0x0120\n      swap2\n      pop\n        /* \"#utility.yul\":5349:5384   */\n      tag_792\n        /* \"#utility.yul\":5365:5383   */\n      dup3\n      dup6\n      add\n        /* \"#utility.yul\":5349:5384   */\n      tag_770\n      jump\t// in\n    tag_792:\n        /* \"#utility.yul\":5344:5346   */\n      dup3\n        /* \"#utility.yul\":5337:5342   */\n      dup5\n        /* \"#utility.yul\":5333:5347   */\n      add\n        /* \"#utility.yul\":5326:5385   */\n      mstore\n        /* \"#utility.yul\":5404:5407   */\n      0x0140\n        /* \"#utility.yul\":5394:5407   */\n      swap2\n      pop\n        /* \"#utility.yul\":5439:5474   */\n      tag_793\n        /* \"#utility.yul\":5470:5472   */\n      dup3\n        /* \"#utility.yul\":5459:5468   */\n      dup6\n        /* \"#utility.yul\":5455:5473   */\n      add\n        /* \"#utility.yul\":5439:5474   */\n      tag_770\n      jump\t// in\n    tag_793:\n        /* \"#utility.yul\":5434:5436   */\n      dup3\n        /* \"#utility.yul\":5427:5432   */\n      dup5\n        /* \"#utility.yul\":5423:5437   */\n      add\n        /* \"#utility.yul\":5416:5475   */\n      mstore\n        /* \"#utility.yul\":5494:5497   */\n      0x0160\n        /* \"#utility.yul\":5484:5497   */\n      swap2\n      pop\n        /* \"#utility.yul\":5557:5559   */\n      dup2\n        /* \"#utility.yul\":5546:5555   */\n      dup5\n        /* \"#utility.yul\":5542:5560   */\n      add\n        /* \"#utility.yul\":5529:5561   */\n      calldataload\n        /* \"#utility.yul\":5524:5526   */\n      dup3\n        /* \"#utility.yul\":5517:5522   */\n      dup5\n        /* \"#utility.yul\":5513:5527   */\n      add\n        /* \"#utility.yul\":5506:5562   */\n      mstore\n        /* \"#utility.yul\":5581:5584   */\n      0x0180\n        /* \"#utility.yul\":5571:5584   */\n      swap2\n      pop\n        /* \"#utility.yul\":5637:5639   */\n      dup2\n        /* \"#utility.yul\":5626:5635   */\n      dup5\n        /* \"#utility.yul\":5622:5640   */\n      add\n        /* \"#utility.yul\":5609:5641   */\n      calldataload\n        /* \"#utility.yul\":5666:5668   */\n      dup2\n        /* \"#utility.yul\":5656:5664   */\n      dup2\n        /* \"#utility.yul\":5653:5669   */\n      gt\n        /* \"#utility.yul\":5650:5686   */\n      iszero\n      tag_794\n      jumpi\n        /* \"#utility.yul\":5682:5683   */\n      0x00\n        /* \"#utility.yul\":5679:5680   */\n      dup1\n        /* \"#utility.yul\":5672:5684   */\n      revert\n        /* \"#utility.yul\":5650:5686   */\n    tag_794:\n        /* \"#utility.yul\":5718:5785   */\n      tag_795\n        /* \"#utility.yul\":5781:5784   */\n      dup7\n        /* \"#utility.yul\":5770:5778   */\n      dup3\n        /* \"#utility.yul\":5759:5768   */\n      dup8\n        /* \"#utility.yul\":5755:5779   */\n      add\n        /* \"#utility.yul\":5718:5785   */\n      tag_733\n      jump\t// in\n    tag_795:\n        /* \"#utility.yul\":5713:5715   */\n      dup4\n        /* \"#utility.yul\":5706:5711   */\n      dup6\n        /* \"#utility.yul\":5702:5716   */\n      add\n        /* \"#utility.yul\":5695:5786   */\n      mstore\n      pop\n      pop\n      pop\n        /* \"#utility.yul\":4136:5792   */\n      swap3\n      swap2\n      pop\n      pop\n      jump\t// out\n        /* \"#utility.yul\":5797:5983   */\n    tag_242:\n        /* \"#utility.yul\":5856:5862   */\n      0x00\n        /* \"#utility.yul\":5909:5911   */\n      0x20\n        /* \"#utility.yul\":5897:5906   */\n      dup3\n        /* \"#utility.yul\":5888:5895   */\n      dup5\n        /* \"#utility.yul\":5884:5907   */\n      sub\n        /* \"#utility.yul\":5880:5912   */\n      slt\n        /* \"#utility.yul\":5877:5929   */\n      iszero\n      tag_797\n      jumpi\n        /* \"#utility.yul\":5925:5926   */\n      0x00\n        /* \"#utility.yul\":5922:5923   */\n      dup1\n        /* \"#utility.yul\":5915:5927   */\n      revert\n        /* \"#utility.yul\":5877:5929   */\n    tag_797:\n        /* \"#utility.yul\":5948:5977   */\n      tag_553\n        /* \"#utility.yul\":5967:5976   */\n      dup3\n        /* \"#utility.yul\":5948:5977   */\n      tag_730\n      jump\t// in\n        /* \"#utility.yul\":5988:6242   */\n    tag_86:\n        /* \"#utility.yul\":6056:6062   */\n      0x00\n        /* \"#utility.yul\":6064:6070   */\n      dup1\n        /* \"#utility.yul\":6117:6119   */\n      0x40\n        /* \"#utility.yul\":6105:6114   */\n      dup4\n        /* \"#utility.yul\":6096:6103   */\n      dup6\n        /* \"#utility.yul\":6092:6115   */\n      sub\n        /* \"#utility.yul\":6088:6120   */\n      slt\n        /* \"#utility.yul\":6085:6137   */\n      iszero\n      tag_800\n      jumpi\n        /* \"#utility.yul\":6133:6134   */\n      0x00\n        /* \"#utility.yul\":6130:6131   */\n      dup1\n        /* \"#utility.yul\":6123:6135   */\n      revert\n        /* \"#utility.yul\":6085:6137   */\n    tag_800:\n        /* \"#utility.yul\":6156:6185   */\n      tag_801\n        /* \"#utility.yul\":6175:6184   */\n      dup4\n        /* \"#utility.yul\":6156:6185   */\n      tag_730\n      jump\t// in\n    tag_801:\n        /* \"#utility.yul\":6146:6185   */\n      swap5\n        /* \"#utility.yul\":6232:6234   */\n      0x20\n        /* \"#utility.yul\":6217:6235   */\n      swap4\n      swap1\n      swap4\n      add\n        /* \"#utility.yul\":6204:6236   */\n      calldataload\n      swap4\n      pop\n      pop\n      pop\n        /* \"#utility.yul\":5988:6242   */\n      jump\t// out\n        /* \"#utility.yul\":6247:6569   */\n    tag_190:\n        /* \"#utility.yul\":6324:6330   */\n      0x00\n        /* \"#utility.yul\":6332:6338   */\n      dup1\n        /* \"#utility.yul\":6340:6346   */\n      0x00\n        /* \"#utility.yul\":6393:6395   */\n      0x60\n        /* \"#utility.yul\":6381:6390   */\n      dup5\n        /* \"#utility.yul\":6372:6379   */\n      dup7\n        /* \"#utility.yul\":6368:6391   */\n      sub\n        /* \"#utility.yul\":6364:6396   */\n      slt\n        /* \"#utility.yul\":6361:6413   */\n      iszero\n      tag_803\n      jumpi\n        /* \"#utility.yul\":6409:6410   */\n      0x00\n        /* \"#utility.yul\":6406:6407   */\n      dup1\n        /* \"#utility.yul\":6399:6411   */\n      revert\n        /* \"#utility.yul\":6361:6413   */\n    tag_803:\n        /* \"#utility.yul\":6432:6461   */\n      tag_804\n        /* \"#utility.yul\":6451:6460   */\n      dup5\n        /* \"#utility.yul\":6432:6461   */\n      tag_730\n      jump\t// in\n    tag_804:\n        /* \"#utility.yul\":6422:6461   */\n      swap6\n        /* \"#utility.yul\":6508:6510   */\n      0x20\n        /* \"#utility.yul\":6493:6511   */\n      dup6\n      add\n        /* \"#utility.yul\":6480:6512   */\n      calldataload\n      swap6\n      pop\n        /* \"#utility.yul\":6559:6561   */\n      0x40\n        /* \"#utility.yul\":6544:6562   */\n      swap1\n      swap5\n      add\n        /* \"#utility.yul\":6531:6563   */\n      calldataload\n      swap4\n        /* \"#utility.yul\":6247:6569   */\n      swap3\n      pop\n      pop\n      pop\n      jump\t// out\n        /* \"#utility.yul\":6574:6993   */\n    tag_234:\n        /* \"#utility.yul\":6667:6673   */\n      0x00\n        /* \"#utility.yul\":6675:6681   */\n      dup1\n        /* \"#utility.yul\":6728:6730   */\n      0x40\n        /* \"#utility.yul\":6716:6725   */\n      dup4\n        /* \"#utility.yul\":6707:6714   */\n      dup6\n        /* \"#utility.yul\":6703:6726   */\n      sub\n        /* \"#utility.yul\":6699:6731   */\n      slt\n        /* \"#utility.yul\":6696:6748   */\n      iszero\n      tag_806\n      jumpi\n        /* \"#utility.yul\":6744:6745   */\n      0x00\n        /* \"#utility.yul\":6741:6742   */\n      dup1\n        /* \"#utility.yul\":6734:6746   */\n      revert\n        /* \"#utility.yul\":6696:6748   */\n    tag_806:\n        /* \"#utility.yul\":6784:6793   */\n      dup3\n        /* \"#utility.yul\":6771:6794   */\n      calldataload\n      sub(shl(0x40, 0x01), 0x01)\n        /* \"#utility.yul\":6809:6815   */\n      dup2\n        /* \"#utility.yul\":6806:6836   */\n      gt\n        /* \"#utility.yul\":6803:6853   */\n      iszero\n      tag_807\n      jumpi\n        /* \"#utility.yul\":6849:6850   */\n      0x00\n        /* \"#utility.yul\":6846:6847   */\n      dup1\n        /* \"#utility.yul\":6839:6851   */\n      revert\n        /* \"#utility.yul\":6803:6853   */\n    tag_807:\n        /* \"#utility.yul\":6872:6930   */\n      tag_808\n        /* \"#utility.yul\":6922:6929   */\n      dup6\n        /* \"#utility.yul\":6913:6919   */\n      dup3\n        /* \"#utility.yul\":6902:6911   */\n      dup7\n        /* \"#utility.yul\":6898:6920   */\n      add\n        /* \"#utility.yul\":6872:6930   */\n      tag_781\n      jump\t// in\n    tag_808:\n        /* \"#utility.yul\":6862:6930   */\n      swap3\n      pop\n      pop\n        /* \"#utility.yul\":6949:6987   */\n      tag_809\n        /* \"#utility.yul\":6983:6985   */\n      0x20\n        /* \"#utility.yul\":6972:6981   */\n      dup5\n        /* \"#utility.yul\":6968:6986   */\n      add\n        /* \"#utility.yul\":6949:6987   */\n      tag_730\n      jump\t// in\n    tag_809:\n        /* \"#utility.yul\":6939:6987   */\n      swap1\n      pop\n        /* \"#utility.yul\":6574:6993   */\n      swap3\n      pop\n      swap3\n      swap1\n      pop\n      jump\t// out\n        /* \"#utility.yul\":6998:7178   */\n    tag_80:\n        /* \"#utility.yul\":7057:7063   */\n      0x00\n        /* \"#utility.yul\":7110:7112   */\n      0x20\n        /* \"#utility.yul\":7098:7107   */\n      dup3\n        /* \"#utility.yul\":7089:7096   */\n      dup5\n        /* \"#utility.yul\":7085:7108   */\n      sub\n        /* \"#utility.yul\":7081:7113   */\n      slt\n        /* \"#utility.yul\":7078:7130   */\n      iszero\n      tag_811\n      jumpi\n        /* \"#utility.yul\":7126:7127   */\n      0x00\n        /* \"#utility.yul\":7123:7124   */\n      dup1\n        /* \"#utility.yul\":7116:7128   */\n      revert\n        /* \"#utility.yul\":7078:7130   */\n    tag_811:\n      pop\n        /* \"#utility.yul\":7149:7172   */\n      calldataload\n      swap2\n        /* \"#utility.yul\":6998:7178   */\n      swap1\n      pop\n      jump\t// out\n        /* \"#utility.yul\":7183:7437   */\n    tag_94:\n        /* \"#utility.yul\":7251:7257   */\n      0x00\n        /* \"#utility.yul\":7259:7265   */\n      dup1\n        /* \"#utility.yul\":7312:7314   */\n      0x40\n        /* \"#utility.yul\":7300:7309   */\n      dup4\n        /* \"#utility.yul\":7291:7298   */\n      dup6\n        /* \"#utility.yul\":7287:7310   */\n      sub\n        /* \"#utility.yul\":7283:7315   */\n      slt\n        /* \"#utility.yul\":7280:7332   */\n      iszero\n      tag_813\n      jumpi\n        /* \"#utility.yul\":7328:7329   */\n      0x00\n        /* \"#utility.yul\":7325:7326   */\n      dup1\n        /* \"#utility.yul\":7318:7330   */\n      revert\n        /* \"#utility.yul\":7280:7332   */\n    tag_813:\n        /* \"#utility.yul\":7364:7373   */\n      dup3\n        /* \"#utility.yul\":7351:7374   */\n      calldataload\n        /* \"#utility.yul\":7341:7374   */\n      swap2\n      pop\n        /* \"#utility.yul\":7393:7431   */\n      tag_809\n        /* \"#utility.yul\":7427:7429   */\n      0x20\n        /* \"#utility.yul\":7416:7425   */\n      dup5\n        /* \"#utility.yul\":7412:7430   */\n      add\n        /* \"#utility.yul\":7393:7431   */\n      tag_730\n      jump\t// in\n        /* \"#utility.yul\":7442:7764   */\n    tag_207:\n        /* \"#utility.yul\":7516:7522   */\n      0x00\n        /* \"#utility.yul\":7524:7530   */\n      dup1\n        /* \"#utility.yul\":7532:7538   */\n      0x00\n        /* \"#utility.yul\":7585:7587   */\n      0x60\n        /* \"#utility.yul\":7573:7582   */\n      dup5\n        /* \"#utility.yul\":7564:7571   */\n      dup7\n        /* \"#utility.yul\":7560:7583   */\n      sub\n        /* \"#utility.yul\":7556:7588   */\n      slt\n        /* \"#utility.yul\":7553:7605   */\n      iszero\n      tag_816\n      jumpi\n        /* \"#utility.yul\":7601:7602   */\n      0x00\n        /* \"#utility.yul\":7598:7599   */\n      dup1\n        /* \"#utility.yul\":7591:7603   */\n      revert\n        /* \"#utility.yul\":7553:7605   */\n    tag_816:\n        /* \"#utility.yul\":7637:7646   */\n      dup4\n        /* \"#utility.yul\":7624:7647   */\n      calldataload\n        /* \"#utility.yul\":7614:7647   */\n      swap3\n      pop\n        /* \"#utility.yul\":7666:7704   */\n      tag_817\n        /* \"#utility.yul\":7700:7702   */\n      0x20\n        /* \"#utility.yul\":7689:7698   */\n      dup6\n        /* \"#utility.yul\":7685:7703   */\n      add\n        /* \"#utility.yul\":7666:7704   */\n      tag_730\n      jump\t// in\n    tag_817:\n        /* \"#utility.yul\":7656:7704   */\n      swap2\n      pop\n        /* \"#utility.yul\":7723:7758   */\n      tag_818\n        /* \"#utility.yul\":7754:7756   */\n      0x40\n        /* \"#utility.yul\":7743:7752   */\n      dup6\n        /* \"#utility.yul\":7739:7757   */\n      add\n        /* \"#utility.yul\":7723:7758   */\n      tag_770\n      jump\t// in\n    tag_818:\n        /* \"#utility.yul\":7713:7758   */\n      swap1\n      pop\n        /* \"#utility.yul\":7442:7764   */\n      swap3\n      pop\n      swap3\n      pop\n      swap3\n      jump\t// out\n        /* \"#utility.yul\":7769:8091   */\n    tag_120:\n        /* \"#utility.yul\":7846:7852   */\n      0x00\n        /* \"#utility.yul\":7854:7860   */\n      dup1\n        /* \"#utility.yul\":7862:7868   */\n      0x00\n        /* \"#utility.yul\":7915:7917   */\n      0x60\n        /* \"#utility.yul\":7903:7912   */\n      dup5\n        /* \"#utility.yul\":7894:7901   */\n      dup7\n        /* \"#utility.yul\":7890:7913   */\n      sub\n        /* \"#utility.yul\":7886:7918   */\n      slt\n        /* \"#utility.yul\":7883:7935   */\n      iszero\n      tag_820\n      jumpi\n        /* \"#utility.yul\":7931:7932   */\n      0x00\n        /* \"#utility.yul\":7928:7929   */\n      dup1\n        /* \"#utility.yul\":7921:7933   */\n      revert\n        /* \"#utility.yul\":7883:7935   */\n    tag_820:\n        /* \"#utility.yul\":7967:7976   */\n      dup4\n        /* \"#utility.yul\":7954:7977   */\n      calldataload\n        /* \"#utility.yul\":7944:7977   */\n      swap3\n      pop\n        /* \"#utility.yul\":7996:8034   */\n      tag_821\n        /* \"#utility.yul\":8030:8032   */\n      0x20\n        /* \"#utility.yul\":8019:8028   */\n      dup6\n        /* \"#utility.yul\":8015:8033   */\n      add\n        /* \"#utility.yul\":7996:8034   */\n      tag_730\n      jump\t// in\n    tag_821:\n        /* \"#utility.yul\":7986:8034   */\n      swap2\n      pop\n        /* \"#utility.yul\":8081:8083   */\n      0x40\n        /* \"#utility.yul\":8070:8079   */\n      dup5\n        /* \"#utility.yul\":8066:8084   */\n      add\n        /* \"#utility.yul\":8053:8085   */\n      calldataload\n        /* \"#utility.yul\":8043:8085   */\n      swap1\n      pop\n        /* \"#utility.yul\":7769:8091   */\n      swap3\n      pop\n      swap3\n      pop\n      swap3\n      jump\t// out\n        /* \"#utility.yul\":8096:8579   */\n    tag_99:\n        /* \"#utility.yul\":8198:8204   */\n      0x00\n        /* \"#utility.yul\":8206:8212   */\n      dup1\n        /* \"#utility.yul\":8214:8220   */\n      0x00\n        /* \"#utility.yul\":8222:8228   */\n      dup1\n        /* \"#utility.yul\":8275:8278   */\n      0x80\n        /* \"#utility.yul\":8263:8272   */\n      dup6\n        /* \"#utility.yul\":8254:8261   */\n      dup8\n        /* \"#utility.yul\":8250:8273   */\n      sub\n        /* \"#utility.yul\":8246:8279   */\n      slt\n        /* \"#utility.yul\":8243:8296   */\n      iszero\n      tag_823\n      jumpi\n        /* \"#utility.yul\":8292:8293   */\n      0x00\n        /* \"#utility.yul\":8289:8290   */\n      dup1\n        /* \"#utility.yul\":8282:8294   */\n      revert\n        /* \"#utility.yul\":8243:8296   */\n    tag_823:\n        /* \"#utility.yul\":8328:8337   */\n      dup5\n        /* \"#utility.yul\":8315:8338   */\n      calldataload\n        /* \"#utility.yul\":8305:8338   */\n      swap4\n      pop\n        /* \"#utility.yul\":8357:8395   */\n      tag_824\n        /* \"#utility.yul\":8391:8393   */\n      0x20\n        /* \"#utility.yul\":8380:8389   */\n      dup7\n        /* \"#utility.yul\":8376:8394   */\n      add\n        /* \"#utility.yul\":8357:8395   */\n      tag_730\n      jump\t// in\n    tag_824:\n        /* \"#utility.yul\":8347:8395   */\n      swap3\n      pop\n        /* \"#utility.yul\":8442:8444   */\n      0x40\n        /* \"#utility.yul\":8431:8440   */\n      dup6\n        /* \"#utility.yul\":8427:8445   */\n      add\n        /* \"#utility.yul\":8414:8446   */\n      calldataload\n        /* \"#utility.yul\":8404:8446   */\n      swap2\n      pop\n        /* \"#utility.yul\":8496:8498   */\n      0x60\n        /* \"#utility.yul\":8485:8494   */\n      dup6\n        /* \"#utility.yul\":8481:8499   */\n      add\n        /* \"#utility.yul\":8468:8500   */\n      calldataload\n        /* \"#utility.yul\":8529:8530   */\n      0x05\n        /* \"#utility.yul\":8522:8527   */\n      dup2\n        /* \"#utility.yul\":8519:8531   */\n      lt\n        /* \"#utility.yul\":8509:8549   */\n      tag_825\n      jumpi\n        /* \"#utility.yul\":8545:8546   */\n      0x00\n        /* \"#utility.yul\":8542:8543   */\n      dup1\n        /* \"#utility.yul\":8535:8547   */\n      revert\n        /* \"#utility.yul\":8509:8549   */\n    tag_825:\n        /* \"#utility.yul\":8096:8579   */\n      swap4\n      swap7\n      swap3\n      swap6\n      pop\n      swap1\n      swap4\n      pop\n      pop\n      jump\t// out\n        /* \"#utility.yul\":8584:9117   */\n    tag_74:\n        /* \"#utility.yul\":8680:8686   */\n      0x00\n        /* \"#utility.yul\":8688:8694   */\n      dup1\n        /* \"#utility.yul\":8696:8702   */\n      0x00\n        /* \"#utility.yul\":8704:8710   */\n      dup1\n        /* \"#utility.yul\":8757:8760   */\n      0x80\n        /* \"#utility.yul\":8745:8754   */\n      dup6\n        /* \"#utility.yul\":8736:8743   */\n      dup8\n        /* \"#utility.yul\":8732:8755   */\n      sub\n        /* \"#utility.yul\":8728:8761   */\n      slt\n        /* \"#utility.yul\":8725:8778   */\n      iszero\n      tag_827\n      jumpi\n        /* \"#utility.yul\":8774:8775   */\n      0x00\n        /* \"#utility.yul\":8771:8772   */\n      dup1\n        /* \"#utility.yul\":8764:8776   */\n      revert\n        /* \"#utility.yul\":8725:8778   */\n    tag_827:\n        /* \"#utility.yul\":8810:8819   */\n      dup5\n        /* \"#utility.yul\":8797:8820   */\n      calldataload\n        /* \"#utility.yul\":8787:8820   */\n      swap4\n      pop\n        /* \"#utility.yul\":8839:8877   */\n      tag_828\n        /* \"#utility.yul\":8873:8875   */\n      0x20\n        /* \"#utility.yul\":8862:8871   */\n      dup7\n        /* \"#utility.yul\":8858:8876   */\n      add\n        /* \"#utility.yul\":8839:8877   */\n      tag_730\n      jump\t// in\n    tag_828:\n        /* \"#utility.yul\":8829:8877   */\n      swap3\n      pop\n        /* \"#utility.yul\":8924:8926   */\n      0x40\n        /* \"#utility.yul\":8913:8922   */\n      dup6\n        /* \"#utility.yul\":8909:8927   */\n      add\n        /* \"#utility.yul\":8896:8928   */\n      calldataload\n        /* \"#utility.yul\":8886:8928   */\n      swap2\n      pop\n        /* \"#utility.yul\":8979:8981   */\n      0x60\n        /* \"#utility.yul\":8968:8977   */\n      dup6\n        /* \"#utility.yul\":8964:8982   */\n      add\n        /* \"#utility.yul\":8951:8983   */\n      calldataload\n      sub(shl(0x40, 0x01), 0x01)\n        /* \"#utility.yul\":8998:9004   */\n      dup2\n        /* \"#utility.yul\":8995:9025   */\n      gt\n        /* \"#utility.yul\":8992:9042   */\n      iszero\n      tag_829\n      jumpi\n        /* \"#utility.yul\":9038:9039   */\n      0x00\n        /* \"#utility.yul\":9035:9036   */\n      dup1\n        /* \"#utility.yul\":9028:9040   */\n      revert\n        /* \"#utility.yul\":8992:9042   */\n    tag_829:\n        /* \"#utility.yul\":9061:9111   */\n      tag_830\n        /* \"#utility.yul\":9103:9110   */\n      dup8\n        /* \"#utility.yul\":9094:9100   */\n      dup3\n        /* \"#utility.yul\":9083:9092   */\n      dup9\n        /* \"#utility.yul\":9079:9101   */\n      add\n        /* \"#utility.yul\":9061:9111   */\n      tag_754\n      jump\t// in\n    tag_830:\n        /* \"#utility.yul\":9051:9111   */\n      swap2\n      pop\n      pop\n        /* \"#utility.yul\":8584:9117   */\n      swap3\n      swap6\n      swap2\n      swap5\n      pop\n      swap3\n      pop\n      jump\t// out\n        /* \"#utility.yul\":9122:9370   */\n    tag_156:\n        /* \"#utility.yul\":9187:9193   */\n      0x00\n        /* \"#utility.yul\":9195:9201   */\n      dup1\n        /* \"#utility.yul\":9248:9250   */\n      0x40\n        /* \"#utility.yul\":9236:9245   */\n      dup4\n        /* \"#utility.yul\":9227:9234   */\n      dup6\n        /* \"#utility.yul\":9223:9246   */\n      sub\n        /* \"#utility.yul\":9219:9251   */\n      slt\n        /* \"#utility.yul\":9216:9268   */\n      iszero\n      tag_832\n      jumpi\n        /* \"#utility.yul\":9264:9265   */\n      0x00\n        /* \"#utility.yul\":9261:9262   */\n      dup1\n        /* \"#utility.yul\":9254:9266   */\n      revert\n        /* \"#utility.yul\":9216:9268   */\n    tag_832:\n        /* \"#utility.yul\":9300:9309   */\n      dup3\n        /* \"#utility.yul\":9287:9310   */\n      calldataload\n        /* \"#utility.yul\":9277:9310   */\n      swap2\n      pop\n        /* \"#utility.yul\":9329:9364   */\n      tag_809\n        /* \"#utility.yul\":9360:9362   */\n      0x20\n        /* \"#utility.yul\":9349:9358   */\n      dup5\n        /* \"#utility.yul\":9345:9363   */\n      add\n        /* \"#utility.yul\":9329:9364   */\n      tag_770\n      jump\t// in\n        /* \"#utility.yul\":9375:9716   */\n    tag_90:\n        /* \"#utility.yul\":9460:9466   */\n      0x00\n        /* \"#utility.yul\":9468:9474   */\n      dup1\n        /* \"#utility.yul\":9521:9523   */\n      0x40\n        /* \"#utility.yul\":9509:9518   */\n      dup4\n        /* \"#utility.yul\":9500:9507   */\n      dup6\n        /* \"#utility.yul\":9496:9519   */\n      sub\n        /* \"#utility.yul\":9492:9524   */\n      slt\n        /* \"#utility.yul\":9489:9541   */\n      iszero\n      tag_835\n      jumpi\n        /* \"#utility.yul\":9537:9538   */\n      0x00\n        /* \"#utility.yul\":9534:9535   */\n      dup1\n        /* \"#utility.yul\":9527:9539   */\n      revert\n        /* \"#utility.yul\":9489:9541   */\n    tag_835:\n        /* \"#utility.yul\":9573:9582   */\n      dup3\n        /* \"#utility.yul\":9560:9583   */\n      calldataload\n        /* \"#utility.yul\":9550:9583   */\n      swap2\n      pop\n        /* \"#utility.yul\":9633:9635   */\n      0x20\n        /* \"#utility.yul\":9622:9631   */\n      dup4\n        /* \"#utility.yul\":9618:9636   */\n      add\n        /* \"#utility.yul\":9605:9637   */\n      calldataload\n        /* \"#utility.yul\":9666:9667   */\n      0x08\n        /* \"#utility.yul\":9659:9664   */\n      dup2\n        /* \"#utility.yul\":9656:9668   */\n      lt\n        /* \"#utility.yul\":9646:9686   */\n      tag_836\n      jumpi\n        /* \"#utility.yul\":9682:9683   */\n      0x00\n        /* \"#utility.yul\":9679:9680   */\n      dup1\n        /* \"#utility.yul\":9672:9684   */\n      revert\n        /* \"#utility.yul\":9646:9686   */\n    tag_836:\n        /* \"#utility.yul\":9705:9710   */\n      dup1\n        /* \"#utility.yul\":9695:9710   */\n      swap2\n      pop\n      pop\n        /* \"#utility.yul\":9375:9716   */\n      swap3\n      pop\n      swap3\n      swap1\n      pop\n      jump\t// out\n        /* \"#utility.yul\":9721:10134   */\n    tag_103:\n        /* \"#utility.yul\":9814:9820   */\n      0x00\n        /* \"#utility.yul\":9822:9828   */\n      dup1\n        /* \"#utility.yul\":9875:9877   */\n      0x40\n        /* \"#utility.yul\":9863:9872   */\n      dup4\n        /* \"#utility.yul\":9854:9861   */\n      dup6\n        /* \"#utility.yul\":9850:9873   */\n      sub\n        /* \"#utility.yul\":9846:9878   */\n      slt\n        /* \"#utility.yul\":9843:9895   */\n      iszero\n      tag_838\n      jumpi\n        /* \"#utility.yul\":9891:9892   */\n      0x00\n        /* \"#utility.yul\":9888:9889   */\n      dup1\n        /* \"#utility.yul\":9881:9893   */\n      revert\n        /* \"#utility.yul\":9843:9895   */\n    tag_838:\n        /* \"#utility.yul\":9927:9936   */\n      dup3\n        /* \"#utility.yul\":9914:9937   */\n      calldataload\n        /* \"#utility.yul\":9904:9937   */\n      swap2\n      pop\n        /* \"#utility.yul\":9988:9990   */\n      0x20\n        /* \"#utility.yul\":9977:9986   */\n      dup4\n        /* \"#utility.yul\":9973:9991   */\n      add\n        /* \"#utility.yul\":9960:9992   */\n      calldataload\n      sub(shl(0x40, 0x01), 0x01)\n        /* \"#utility.yul\":10007:10013   */\n      dup2\n        /* \"#utility.yul\":10004:10034   */\n      gt\n        /* \"#utility.yul\":10001:10051   */\n      iszero\n      tag_839\n      jumpi\n        /* \"#utility.yul\":10047:10048   */\n      0x00\n        /* \"#utility.yul\":10044:10045   */\n      dup1\n        /* \"#utility.yul\":10037:10049   */\n      revert\n        /* \"#utility.yul\":10001:10051   */\n    tag_839:\n        /* \"#utility.yul\":10070:10128   */\n      tag_840\n        /* \"#utility.yul\":10120:10127   */\n      dup6\n        /* \"#utility.yul\":10111:10117   */\n      dup3\n        /* \"#utility.yul\":10100:10109   */\n      dup7\n        /* \"#utility.yul\":10096:10118   */\n      add\n        /* \"#utility.yul\":10070:10128   */\n      tag_781\n      jump\t// in\n    tag_840:\n        /* \"#utility.yul\":10060:10128   */\n      swap2\n      pop\n      pop\n        /* \"#utility.yul\":9721:10134   */\n      swap3\n      pop\n      swap3\n      swap1\n      pop\n      jump\t// out\n        /* \"#utility.yul\":10139:10387   */\n    tag_199:\n        /* \"#utility.yul\":10207:10213   */\n      0x00\n        /* \"#utility.yul\":10215:10221   */\n      dup1\n        /* \"#utility.yul\":10268:10270   */\n      0x40\n        /* \"#utility.yul\":10256:10265   */\n      dup4\n        /* \"#utility.yul\":10247:10254   */\n      dup6\n        /* \"#utility.yul\":10243:10266   */\n      sub\n        /* \"#utility.yul\":10239:10271   */\n      slt\n        /* \"#utility.yul\":10236:10288   */\n      iszero\n      tag_842\n      jumpi\n        /* \"#utility.yul\":10284:10285   */\n      0x00\n        /* \"#utility.yul\":10281:10282   */\n      dup1\n        /* \"#utility.yul\":10274:10286   */\n      revert\n        /* \"#utility.yul\":10236:10288   */\n    tag_842:\n      pop\n      pop\n        /* \"#utility.yul\":10307:10330   */\n      dup1\n      calldataload\n      swap3\n        /* \"#utility.yul\":10377:10379   */\n      0x20\n        /* \"#utility.yul\":10362:10380   */\n      swap1\n      swap2\n      add\n        /* \"#utility.yul\":10349:10381   */\n      calldataload\n      swap2\n      pop\n        /* \"#utility.yul\":10139:10387   */\n      jump\t// out\n        /* \"#utility.yul\":10392:10714   */\n    tag_165:\n        /* \"#utility.yul\":10469:10475   */\n      0x00\n        /* \"#utility.yul\":10477:10483   */\n      dup1\n        /* \"#utility.yul\":10485:10491   */\n      0x00\n        /* \"#utility.yul\":10538:10540   */\n      0x60\n        /* \"#utility.yul\":10526:10535   */\n      dup5\n        /* \"#utility.yul\":10517:10524   */\n      dup7\n        /* \"#utility.yul\":10513:10536   */\n      sub\n        /* \"#utility.yul\":10509:10541   */\n      slt\n        /* \"#utility.yul\":10506:10558   */\n      iszero\n      tag_844\n      jumpi\n        /* \"#utility.yul\":10554:10555   */\n      0x00\n        /* \"#utility.yul\":10551:10552   */\n      dup1\n        /* \"#utility.yul\":10544:10556   */\n      revert\n        /* \"#utility.yul\":10506:10558   */\n    tag_844:\n        /* \"#utility.yul\":10590:10599   */\n      dup4\n        /* \"#utility.yul\":10577:10600   */\n      calldataload\n        /* \"#utility.yul\":10567:10600   */\n      swap3\n      pop\n        /* \"#utility.yul\":10647:10649   */\n      0x20\n        /* \"#utility.yul\":10636:10645   */\n      dup5\n        /* \"#utility.yul\":10632:10650   */\n      add\n        /* \"#utility.yul\":10619:10651   */\n      calldataload\n        /* \"#utility.yul\":10609:10651   */\n      swap2\n      pop\n        /* \"#utility.yul\":10670:10708   */\n      tag_818\n        /* \"#utility.yul\":10704:10706   */\n      0x40\n        /* \"#utility.yul\":10693:10702   */\n      dup6\n        /* \"#utility.yul\":10689:10707   */\n      add\n        /* \"#utility.yul\":10670:10708   */\n      tag_730\n      jump\t// in\n        /* \"#utility.yul\":10719:11062   */\n    tag_107:\n        /* \"#utility.yul\":10810:10816   */\n      0x00\n        /* \"#utility.yul\":10818:10824   */\n      dup1\n        /* \"#utility.yul\":10826:10832   */\n      0x00\n        /* \"#utility.yul\":10879:10881   */\n      0x60\n        /* \"#utility.yul\":10867:10876   */\n      dup5\n        /* \"#utility.yul\":10858:10865   */\n      dup7\n        /* \"#utility.yul\":10854:10877   */\n      sub\n        /* \"#utility.yul\":10850:10882   */\n      slt\n        /* \"#utility.yul\":10847:10899   */\n      iszero\n      tag_847\n      jumpi\n        /* \"#utility.yul\":10895:10896   */\n      0x00\n        /* \"#utility.yul\":10892:10893   */\n      dup1\n        /* \"#utility.yul\":10885:10897   */\n      revert\n        /* \"#utility.yul\":10847:10899   */\n    tag_847:\n        /* \"#utility.yul\":10931:10940   */\n      dup4\n        /* \"#utility.yul\":10918:10941   */\n      calldataload\n        /* \"#utility.yul\":10908:10941   */\n      swap3\n      pop\n        /* \"#utility.yul\":10988:10990   */\n      0x20\n        /* \"#utility.yul\":10977:10986   */\n      dup5\n        /* \"#utility.yul\":10973:10991   */\n      add\n        /* \"#utility.yul\":10960:10992   */\n      calldataload\n        /* \"#utility.yul\":10950:10992   */\n      swap2\n      pop\n        /* \"#utility.yul\":11011:11056   */\n      tag_818\n        /* \"#utility.yul\":11052:11054   */\n      0x40\n        /* \"#utility.yul\":11041:11050   */\n      dup6\n        /* \"#utility.yul\":11037:11055   */\n      add\n        /* \"#utility.yul\":11011:11056   */\n      tag_760\n      jump\t// in\n        /* \"#utility.yul\":11176:11637   */\n    tag_851:\n        /* \"#utility.yul\":11229:11232   */\n      0x00\n        /* \"#utility.yul\":11267:11272   */\n      dup2\n        /* \"#utility.yul\":11261:11273   */\n      mload\n        /* \"#utility.yul\":11294:11300   */\n      dup1\n        /* \"#utility.yul\":11289:11292   */\n      dup5\n        /* \"#utility.yul\":11282:11301   */\n      mstore\n        /* \"#utility.yul\":11320:11324   */\n      0x20\n        /* \"#utility.yul\":11349:11351   */\n      dup1\n        /* \"#utility.yul\":11344:11347   */\n      dup6\n        /* \"#utility.yul\":11340:11352   */\n      add\n        /* \"#utility.yul\":11333:11352   */\n      swap5\n      pop\n        /* \"#utility.yul\":11386:11388   */\n      dup1\n        /* \"#utility.yul\":11379:11384   */\n      dup5\n        /* \"#utility.yul\":11375:11389   */\n      add\n        /* \"#utility.yul\":11407:11408   */\n      0x00\n        /* \"#utility.yul\":11417:11612   */\n    tag_853:\n        /* \"#utility.yul\":11431:11437   */\n      dup4\n        /* \"#utility.yul\":11428:11429   */\n      dup2\n        /* \"#utility.yul\":11425:11438   */\n      lt\n        /* \"#utility.yul\":11417:11612   */\n      iszero\n      tag_855\n      jumpi\n        /* \"#utility.yul\":11496:11509   */\n      dup2\n      mload\n      sub(shl(0xa0, 0x01), 0x01)\n        /* \"#utility.yul\":11492:11531   */\n      and\n        /* \"#utility.yul\":11480:11532   */\n      dup8\n      mstore\n        /* \"#utility.yul\":11552:11564   */\n      swap6\n      dup3\n      add\n      swap6\n        /* \"#utility.yul\":11587:11602   */\n      swap1\n      dup3\n      add\n      swap1\n        /* \"#utility.yul\":11528:11529   */\n      0x01\n        /* \"#utility.yul\":11446:11455   */\n      add\n        /* \"#utility.yul\":11417:11612   */\n      jump(tag_853)\n    tag_855:\n      pop\n        /* \"#utility.yul\":11628:11631   */\n      swap5\n      swap6\n        /* \"#utility.yul\":11176:11637   */\n      swap5\n      pop\n      pop\n      pop\n      pop\n      pop\n      jump\t// out\n        /* \"#utility.yul\":11642:13620   */\n    tag_856:\n        /* \"#utility.yul\":11703:11706   */\n      0x00\n        /* \"#utility.yul\":11741:11746   */\n      dup2\n        /* \"#utility.yul\":11735:11747   */\n      mload\n        /* \"#utility.yul\":11768:11774   */\n      dup1\n        /* \"#utility.yul\":11763:11766   */\n      dup5\n        /* \"#utility.yul\":11756:11775   */\n      mstore\n        /* \"#utility.yul\":11794:11798   */\n      0x20\n        /* \"#utility.yul\":11835:11837   */\n      dup1\n        /* \"#utility.yul\":11830:11833   */\n      dup6\n        /* \"#utility.yul\":11826:11838   */\n      add\n        /* \"#utility.yul\":11860:11871   */\n      dup1\n        /* \"#utility.yul\":11887:11898   */\n      dup2\n        /* \"#utility.yul\":11880:11898   */\n      swap7\n      pop\n        /* \"#utility.yul\":11937:11943   */\n      dup4\n        /* \"#utility.yul\":11934:11935   */\n      0x05\n        /* \"#utility.yul\":11930:11944   */\n      shl\n        /* \"#utility.yul\":11923:11928   */\n      dup2\n        /* \"#utility.yul\":11919:11945   */\n      add\n        /* \"#utility.yul\":11907:11945   */\n      swap2\n      pop\n        /* \"#utility.yul\":11979:11981   */\n      dup3\n        /* \"#utility.yul\":11972:11977   */\n      dup7\n        /* \"#utility.yul\":11968:11982   */\n      add\n        /* \"#utility.yul\":12000:12001   */\n      0x00\n        /* \"#utility.yul\":12010:13594   */\n    tag_858:\n        /* \"#utility.yul\":12024:12030   */\n      dup6\n        /* \"#utility.yul\":12021:12022   */\n      dup2\n        /* \"#utility.yul\":12018:12031   */\n      lt\n        /* \"#utility.yul\":12010:13594   */\n      iszero\n      tag_860\n      jumpi\n        /* \"#utility.yul\":12095:12100   */\n      dup3\n        /* \"#utility.yul\":12089:12093   */\n      dup5\n        /* \"#utility.yul\":12085:12101   */\n      sub\n        /* \"#utility.yul\":12080:12083   */\n      dup10\n        /* \"#utility.yul\":12073:12102   */\n      mstore\n        /* \"#utility.yul\":12131:12137   */\n      dup2\n        /* \"#utility.yul\":12125:12138   */\n      mload\n        /* \"#utility.yul\":12161:12165   */\n      0xa0\n        /* \"#utility.yul\":12204:12206   */\n      dup2\n        /* \"#utility.yul\":12198:12207   */\n      mload\n        /* \"#utility.yul\":12233:12235   */\n      dup2\n        /* \"#utility.yul\":12227:12231   */\n      dup8\n        /* \"#utility.yul\":12220:12236   */\n      mstore\n        /* \"#utility.yul\":12277:12289   */\n      dup1\n        /* \"#utility.yul\":12271:12290   */\n      mload\n        /* \"#utility.yul\":12313:12317   */\n      0xe0\n        /* \"#utility.yul\":12352:12354   */\n      dup1\n        /* \"#utility.yul\":12347:12349   */\n      dup5\n        /* \"#utility.yul\":12341:12345   */\n      dup11\n        /* \"#utility.yul\":12337:12350   */\n      add\n        /* \"#utility.yul\":12330:12355   */\n      mstore\n        /* \"#utility.yul\":12382:12431   */\n      tag_861\n        /* \"#utility.yul\":12426:12429   */\n      0x0180\n        /* \"#utility.yul\":12420:12424   */\n      dup11\n        /* \"#utility.yul\":12416:12430   */\n      add\n        /* \"#utility.yul\":12400:12414   */\n      dup4\n        /* \"#utility.yul\":12382:12431   */\n      tag_862\n      jump\t// in\n    tag_861:\n        /* \"#utility.yul\":12368:12431   */\n      swap2\n      pop\n        /* \"#utility.yul\":12478:12480   */\n      dup10\n        /* \"#utility.yul\":12464:12476   */\n      dup4\n        /* \"#utility.yul\":12460:12481   */\n      add\n        /* \"#utility.yul\":12454:12482   */\n      mload\n        /* \"#utility.yul\":12505:12508   */\n      0xc0\n        /* \"#utility.yul\":12543:12545   */\n      dup2\n        /* \"#utility.yul\":12538:12540   */\n      dup2\n        /* \"#utility.yul\":12532:12536   */\n      dup13\n        /* \"#utility.yul\":12528:12541   */\n      add\n        /* \"#utility.yul\":12521:12546   */\n      mstore\n        /* \"#utility.yul\":12569:12573   */\n      0x40\n        /* \"#utility.yul\":12559:12573   */\n      swap2\n      pop\n        /* \"#utility.yul\":12632:12634   */\n      dup2\n        /* \"#utility.yul\":12618:12630   */\n      dup6\n        /* \"#utility.yul\":12614:12635   */\n      add\n        /* \"#utility.yul\":12608:12636   */\n      mload\n        /* \"#utility.yul\":12603:12605   */\n      dup4\n        /* \"#utility.yul\":12597:12601   */\n      dup13\n        /* \"#utility.yul\":12593:12606   */\n      add\n        /* \"#utility.yul\":12586:12637   */\n      mstore\n        /* \"#utility.yul\":12660:12664   */\n      0x60\n        /* \"#utility.yul\":12650:12664   */\n      swap3\n      pop\n        /* \"#utility.yul\":12724:12726   */\n      dup3\n        /* \"#utility.yul\":12710:12722   */\n      dup6\n        /* \"#utility.yul\":12706:12727   */\n      add\n        /* \"#utility.yul\":12700:12728   */\n      mload\n        /* \"#utility.yul\":12694:12697   */\n      0x0100\n        /* \"#utility.yul\":12688:12692   */\n      dup13\n        /* \"#utility.yul\":12684:12698   */\n      add\n        /* \"#utility.yul\":12677:12729   */\n      mstore\n        /* \"#utility.yul\":12752:12756   */\n      0x80\n        /* \"#utility.yul\":12816:12818   */\n      dup1\n        /* \"#utility.yul\":12802:12814   */\n      dup7\n        /* \"#utility.yul\":12798:12819   */\n      add\n        /* \"#utility.yul\":12792:12820   */\n      mload\n        /* \"#utility.yul\":12786:12789   */\n      0x0120\n        /* \"#utility.yul\":12780:12784   */\n      dup14\n        /* \"#utility.yul\":12776:12790   */\n      add\n        /* \"#utility.yul\":12769:12821   */\n      mstore\n        /* \"#utility.yul\":12881:12883   */\n      dup7\n        /* \"#utility.yul\":12867:12879   */\n      dup7\n        /* \"#utility.yul\":12863:12884   */\n      add\n        /* \"#utility.yul\":12857:12885   */\n      mload\n        /* \"#utility.yul\":12851:12854   */\n      0x0140\n        /* \"#utility.yul\":12845:12849   */\n      dup14\n        /* \"#utility.yul\":12841:12855   */\n      add\n        /* \"#utility.yul\":12834:12886   */\n      mstore\n        /* \"#utility.yul\":12945:12947   */\n      dup2\n        /* \"#utility.yul\":12931:12943   */\n      dup7\n        /* \"#utility.yul\":12927:12948   */\n      add\n        /* \"#utility.yul\":12921:12949   */\n      mload\n        /* \"#utility.yul\":12899:12949   */\n      swap7\n      pop\n        /* \"#utility.yul\":13012:13015   */\n      0x9f\n        /* \"#utility.yul\":13008:13016   */\n      not\n        /* \"#utility.yul\":13001:13005   */\n      dup13\n        /* \"#utility.yul\":12993:12999   */\n      dup7\n        /* \"#utility.yul\":12989:13006   */\n      sub\n        /* \"#utility.yul\":12985:13017   */\n      add\n        /* \"#utility.yul\":12979:12982   */\n      0x0160\n        /* \"#utility.yul\":12973:12977   */\n      dup14\n        /* \"#utility.yul\":12969:12983   */\n      add\n        /* \"#utility.yul\":12962:13018   */\n      mstore\n        /* \"#utility.yul\":13044:13085   */\n      tag_863\n        /* \"#utility.yul\":13078:13084   */\n      dup6\n        /* \"#utility.yul\":13062:13076   */\n      dup9\n        /* \"#utility.yul\":13044:13085   */\n      tag_862\n      jump\t// in\n    tag_863:\n        /* \"#utility.yul\":13031:13085   */\n      swap7\n      pop\n        /* \"#utility.yul\":13134:13136   */\n      dup13\n        /* \"#utility.yul\":13130:13132   */\n      dup9\n        /* \"#utility.yul\":13126:13137   */\n      add\n        /* \"#utility.yul\":13120:13138   */\n      mload\n        /* \"#utility.yul\":13115:13117   */\n      dup14\n        /* \"#utility.yul\":13109:13113   */\n      dup14\n        /* \"#utility.yul\":13105:13118   */\n      add\n        /* \"#utility.yul\":13098:13139   */\n      mstore\n        /* \"#utility.yul\":13188:13190   */\n      dup3\n        /* \"#utility.yul\":13184:13186   */\n      dup9\n        /* \"#utility.yul\":13180:13191   */\n      add\n        /* \"#utility.yul\":13174:13192   */\n      mload\n        /* \"#utility.yul\":13152:13192   */\n      swap6\n      pop\n        /* \"#utility.yul\":13238:13242   */\n      dup12\n        /* \"#utility.yul\":13231:13236   */\n      dup8\n        /* \"#utility.yul\":13227:13243   */\n      sub\n        /* \"#utility.yul\":13222:13224   */\n      dup4\n        /* \"#utility.yul\":13216:13220   */\n      dup14\n        /* \"#utility.yul\":13212:13225   */\n      add\n        /* \"#utility.yul\":13205:13244   */\n      mstore\n        /* \"#utility.yul\":13271:13311   */\n      tag_864\n        /* \"#utility.yul\":13305:13310   */\n      dup8\n        /* \"#utility.yul\":13289:13303   */\n      dup8\n        /* \"#utility.yul\":13271:13311   */\n      tag_862\n      jump\t// in\n    tag_864:\n        /* \"#utility.yul\":13257:13311   */\n      swap7\n      pop\n        /* \"#utility.yul\":13360:13362   */\n      dup4\n        /* \"#utility.yul\":13356:13358   */\n      dup9\n        /* \"#utility.yul\":13352:13363   */\n      add\n        /* \"#utility.yul\":13346:13364   */\n      mload\n        /* \"#utility.yul\":13324:13364   */\n      swap6\n      pop\n        /* \"#utility.yul\":13377:13433   */\n      tag_865\n        /* \"#utility.yul\":13429:13431   */\n      dup5\n        /* \"#utility.yul\":13423:13427   */\n      dup14\n        /* \"#utility.yul\":13419:13432   */\n      add\n        /* \"#utility.yul\":13403:13417   */\n      dup8\n        /* \"#utility.yul\":13377:13433   */\n      tag_866\n      jump\t// in\n    tag_865:\n        /* \"#utility.yul\":13474:13485   */\n      swap7\n      dup8\n      add\n        /* \"#utility.yul\":13468:13486   */\n      mload\n        /* \"#utility.yul\":13453:13466   */\n      swap11\n      swap1\n      swap7\n      add\n        /* \"#utility.yul\":13446:13487   */\n      swap10\n      swap1\n      swap10\n      mstore\n      pop\n      pop\n      pop\n        /* \"#utility.yul\":13572:13584   */\n      swap10\n      dup7\n      add\n      swap10\n        /* \"#utility.yul\":13508:13514   */\n      swap5\n      pop\n      pop\n        /* \"#utility.yul\":13537:13552   */\n      swap1\n      dup5\n      add\n      swap1\n        /* \"#utility.yul\":12046:12047   */\n      0x01\n        /* \"#utility.yul\":12039:12048   */\n      add\n        /* \"#utility.yul\":12010:13594   */\n      jump(tag_858)\n    tag_860:\n      pop\n        /* \"#utility.yul\":13610:13614   */\n      swap2\n      swap8\n        /* \"#utility.yul\":11642:13620   */\n      swap7\n      pop\n      pop\n      pop\n      pop\n      pop\n      pop\n      pop\n      jump\t// out\n        /* \"#utility.yul\":13625:14060   */\n    tag_867:\n        /* \"#utility.yul\":13678:13681   */\n      0x00\n        /* \"#utility.yul\":13716:13721   */\n      dup2\n        /* \"#utility.yul\":13710:13722   */\n      mload\n        /* \"#utility.yul\":13743:13749   */\n      dup1\n        /* \"#utility.yul\":13738:13741   */\n      dup5\n        /* \"#utility.yul\":13731:13750   */\n      mstore\n        /* \"#utility.yul\":13769:13773   */\n      0x20\n        /* \"#utility.yul\":13798:13800   */\n      dup1\n        /* \"#utility.yul\":13793:13796   */\n      dup6\n        /* \"#utility.yul\":13789:13801   */\n      add\n        /* \"#utility.yul\":13782:13801   */\n      swap5\n      pop\n        /* \"#utility.yul\":13835:13837   */\n      dup1\n        /* \"#utility.yul\":13828:13833   */\n      dup5\n        /* \"#utility.yul\":13824:13838   */\n      add\n        /* \"#utility.yul\":13856:13857   */\n      0x00\n        /* \"#utility.yul\":13866:14035   */\n    tag_869:\n        /* \"#utility.yul\":13880:13886   */\n      dup4\n        /* \"#utility.yul\":13877:13878   */\n      dup2\n        /* \"#utility.yul\":13874:13887   */\n      lt\n        /* \"#utility.yul\":13866:14035   */\n      iszero\n      tag_855\n      jumpi\n        /* \"#utility.yul\":13941:13954   */\n      dup2\n      mload\n        /* \"#utility.yul\":13929:13955   */\n      dup8\n      mstore\n        /* \"#utility.yul\":13975:13987   */\n      swap6\n      dup3\n      add\n      swap6\n        /* \"#utility.yul\":14010:14025   */\n      swap1\n      dup3\n      add\n      swap1\n        /* \"#utility.yul\":13902:13903   */\n      0x01\n        /* \"#utility.yul\":13895:13904   */\n      add\n        /* \"#utility.yul\":13866:14035   */\n      jump(tag_869)\n        /* \"#utility.yul\":14161:14302   */\n    tag_866:\n        /* \"#utility.yul\":14242:14244   */\n      0x0c\n        /* \"#utility.yul\":14235:14240   */\n      dup2\n        /* \"#utility.yul\":14232:14245   */\n      lt\n        /* \"#utility.yul\":14222:14269   */\n      tag_876\n      jumpi\n        /* \"#utility.yul\":14249:14267   */\n      tag_876\n      tag_322\n      jump\t// in\n    tag_876:\n        /* \"#utility.yul\":14278:14296   */\n      swap1\n      mstore\n        /* \"#utility.yul\":14161:14302   */\n      jump\t// out\n        /* \"#utility.yul\":14307:14450   */\n    tag_877:\n        /* \"#utility.yul\":14391:14392   */\n      0x08\n        /* \"#utility.yul\":14384:14389   */\n      dup2\n        /* \"#utility.yul\":14381:14393   */\n      lt\n        /* \"#utility.yul\":14371:14417   */\n      tag_876\n      jumpi\n        /* \"#utility.yul\":14397:14415   */\n      tag_876\n      tag_322\n      jump\t// in\n        /* \"#utility.yul\":14455:14927   */\n    tag_862:\n        /* \"#utility.yul\":14497:14500   */\n      0x00\n        /* \"#utility.yul\":14535:14540   */\n      dup2\n        /* \"#utility.yul\":14529:14541   */\n      mload\n        /* \"#utility.yul\":14562:14568   */\n      dup1\n        /* \"#utility.yul\":14557:14560   */\n      dup5\n        /* \"#utility.yul\":14550:14569   */\n      mstore\n        /* \"#utility.yul\":14587:14588   */\n      0x00\n        /* \"#utility.yul\":14597:14759   */\n    tag_882:\n        /* \"#utility.yul\":14611:14617   */\n      dup2\n        /* \"#utility.yul\":14608:14609   */\n      dup2\n        /* \"#utility.yul\":14605:14618   */\n      lt\n        /* \"#utility.yul\":14597:14759   */\n      iszero\n      tag_884\n      jumpi\n        /* \"#utility.yul\":14673:14677   */\n      0x20\n        /* \"#utility.yul\":14729:14742   */\n      dup2\n      dup6\n      add\n        /* \"#utility.yul\":14725:14747   */\n      dup2\n      add\n        /* \"#utility.yul\":14719:14748   */\n      mload\n        /* \"#utility.yul\":14701:14712   */\n      dup7\n      dup4\n      add\n        /* \"#utility.yul\":14697:14717   */\n      dup3\n      add\n        /* \"#utility.yul\":14690:14749   */\n      mstore\n        /* \"#utility.yul\":14626:14638   */\n      add\n        /* \"#utility.yul\":14597:14759   */\n      jump(tag_882)\n    tag_884:\n        /* \"#utility.yul\":14777:14783   */\n      dup2\n        /* \"#utility.yul\":14774:14775   */\n      dup2\n        /* \"#utility.yul\":14771:14784   */\n      gt\n        /* \"#utility.yul\":14768:14855   */\n      iszero\n      tag_885\n      jumpi\n        /* \"#utility.yul\":14843:14844   */\n      0x00\n        /* \"#utility.yul\":14836:14840   */\n      0x20\n        /* \"#utility.yul\":14827:14833   */\n      dup4\n        /* \"#utility.yul\":14822:14825   */\n      dup8\n        /* \"#utility.yul\":14818:14834   */\n      add\n        /* \"#utility.yul\":14814:14841   */\n      add\n        /* \"#utility.yul\":14807:14845   */\n      mstore\n        /* \"#utility.yul\":14768:14855   */\n    tag_885:\n      pop\n        /* \"#utility.yul\":14909:14911   */\n      0x1f\n        /* \"#utility.yul\":14888:14903   */\n      add\n      not(0x1f)\n        /* \"#utility.yul\":14884:14913   */\n      and\n        /* \"#utility.yul\":14875:14914   */\n      swap3\n      swap1\n      swap3\n      add\n        /* \"#utility.yul\":14916:14920   */\n      0x20\n        /* \"#utility.yul\":14871:14921   */\n      add\n      swap3\n        /* \"#utility.yul\":14455:14927   */\n      swap2\n      pop\n      pop\n      jump\t// out\n        /* \"#utility.yul\":15140:15401   */\n    tag_222:\n        /* \"#utility.yul\":15319:15321   */\n      0x20\n        /* \"#utility.yul\":15308:15317   */\n      dup2\n        /* \"#utility.yul\":15301:15322   */\n      mstore\n        /* \"#utility.yul\":15282:15286   */\n      0x00\n        /* \"#utility.yul\":15339:15395   */\n      tag_553\n        /* \"#utility.yul\":15391:15393   */\n      0x20\n        /* \"#utility.yul\":15380:15389   */\n      dup4\n        /* \"#utility.yul\":15376:15394   */\n      add\n        /* \"#utility.yul\":15368:15374   */\n      dup5\n        /* \"#utility.yul\":15339:15395   */\n      tag_851\n      jump\t// in\n        /* \"#utility.yul\":15406:15727   */\n    tag_83:\n        /* \"#utility.yul\":15637:15639   */\n      0x20\n        /* \"#utility.yul\":15626:15635   */\n      dup2\n        /* \"#utility.yul\":15619:15640   */\n      mstore\n        /* \"#utility.yul\":15600:15604   */\n      0x00\n        /* \"#utility.yul\":15657:15721   */\n      tag_553\n        /* \"#utility.yul\":15717:15719   */\n      0x20\n        /* \"#utility.yul\":15706:15715   */\n      dup4\n        /* \"#utility.yul\":15702:15720   */\n      add\n        /* \"#utility.yul\":15694:15700   */\n      dup5\n        /* \"#utility.yul\":15657:15721   */\n      tag_856\n      jump\t// in\n        /* \"#utility.yul\":15732:16064   */\n    tag_210:\n        /* \"#utility.yul\":15939:15941   */\n      0x40\n        /* \"#utility.yul\":15928:15937   */\n      dup2\n        /* \"#utility.yul\":15921:15942   */\n      mstore\n        /* \"#utility.yul\":15902:15906   */\n      0x00\n        /* \"#utility.yul\":15959:16015   */\n      tag_892\n        /* \"#utility.yul\":16011:16013   */\n      0x40\n        /* \"#utility.yul\":16000:16009   */\n      dup4\n        /* \"#utility.yul\":15996:16014   */\n      add\n        /* \"#utility.yul\":15988:15994   */\n      dup6\n        /* \"#utility.yul\":15959:16015   */\n      tag_867\n      jump\t// in\n    tag_892:\n        /* \"#utility.yul\":15951:16015   */\n      swap1\n      pop\n        /* \"#utility.yul\":16051:16057   */\n      dup3\n        /* \"#utility.yul\":16046:16048   */\n      0x20\n        /* \"#utility.yul\":16035:16044   */\n      dup4\n        /* \"#utility.yul\":16031:16049   */\n      add\n        /* \"#utility.yul\":16024:16058   */\n      mstore\n        /* \"#utility.yul\":15732:16064   */\n      swap4\n      swap3\n      pop\n      pop\n      pop\n      jump\t// out\n        /* \"#utility.yul\":16261:16469   */\n    tag_248:\n        /* \"#utility.yul\":16407:16409   */\n      0x20\n        /* \"#utility.yul\":16392:16410   */\n      dup2\n      add\n        /* \"#utility.yul\":16419:16463   */\n      tag_337\n        /* \"#utility.yul\":16396:16405   */\n      dup3\n        /* \"#utility.yul\":16445:16451   */\n      dup5\n        /* \"#utility.yul\":16419:16463   */\n      tag_866\n      jump\t// in\n        /* \"#utility.yul\":16474:16688   */\n    tag_288:\n        /* \"#utility.yul\":16623:16625   */\n      0x20\n        /* \"#utility.yul\":16608:16626   */\n      dup2\n      add\n        /* \"#utility.yul\":16635:16682   */\n      tag_337\n        /* \"#utility.yul\":16612:16621   */\n      dup3\n        /* \"#utility.yul\":16664:16670   */\n      dup5\n        /* \"#utility.yul\":16635:16682   */\n      tag_877\n      jump\t// in\n        /* \"#utility.yul\":17461:17806   */\n    tag_292:\n        /* \"#utility.yul\":17663:17665   */\n      0x20\n        /* \"#utility.yul\":17645:17666   */\n      dup1\n      dup3\n      mstore\n        /* \"#utility.yul\":17702:17704   */\n      0x15\n        /* \"#utility.yul\":17682:17700   */\n      swap1\n      dup3\n      add\n        /* \"#utility.yul\":17675:17705   */\n      mstore\n      shl(0x58, 0x4572726f7220416363657373204164647265737321)\n        /* \"#utility.yul\":17736:17738   */\n      0x40\n        /* \"#utility.yul\":17721:17739   */\n      dup3\n      add\n        /* \"#utility.yul\":17714:17765   */\n      mstore\n        /* \"#utility.yul\":17797:17799   */\n      0x60\n        /* \"#utility.yul\":17782:17800   */\n      add\n      swap1\n        /* \"#utility.yul\":17461:17806   */\n      jump\t// out\n        /* \"#utility.yul\":17811:19393   */\n    tag_153:\n        /* \"#utility.yul\":17963:17967   */\n      0x00\n        /* \"#utility.yul\":17992:17994   */\n      0x20\n        /* \"#utility.yul\":18021:18023   */\n      dup1\n        /* \"#utility.yul\":18010:18019   */\n      dup4\n        /* \"#utility.yul\":18003:18024   */\n      mstore\n        /* \"#utility.yul\":18096:18097   */\n      0x01\n        /* \"#utility.yul\":18092:18093   */\n      dup1\n        /* \"#utility.yul\":18087:18090   */\n      0xa0\n        /* \"#utility.yul\":18083:18094   */\n      shl\n        /* \"#utility.yul\":18079:18098   */\n      sub\n        /* \"#utility.yul\":18070:18076   */\n      dup5\n        /* \"#utility.yul\":18064:18077   */\n      mload\n        /* \"#utility.yul\":18060:18099   */\n      and\n        /* \"#utility.yul\":18055:18057   */\n      dup2\n        /* \"#utility.yul\":18044:18053   */\n      dup5\n        /* \"#utility.yul\":18040:18058   */\n      add\n        /* \"#utility.yul\":18033:18100   */\n      mstore\n        /* \"#utility.yul\":18147:18149   */\n      dup1\n        /* \"#utility.yul\":18139:18145   */\n      dup5\n        /* \"#utility.yul\":18135:18150   */\n      add\n        /* \"#utility.yul\":18129:18151   */\n      mload\n        /* \"#utility.yul\":18170:18174   */\n      0x60\n        /* \"#utility.yul\":18193:18195   */\n      0x40\n        /* \"#utility.yul\":18231:18233   */\n      dup2\n        /* \"#utility.yul\":18226:18228   */\n      dup2\n        /* \"#utility.yul\":18215:18224   */\n      dup8\n        /* \"#utility.yul\":18211:18229   */\n      add\n        /* \"#utility.yul\":18204:18234   */\n      mstore\n        /* \"#utility.yul\":18257:18320   */\n      tag_902\n        /* \"#utility.yul\":18315:18318   */\n      0x80\n        /* \"#utility.yul\":18304:18313   */\n      dup8\n        /* \"#utility.yul\":18300:18319   */\n      add\n        /* \"#utility.yul\":18286:18298   */\n      dup5\n        /* \"#utility.yul\":18257:18320   */\n      tag_867\n      jump\t// in\n    tag_902:\n        /* \"#utility.yul\":18357:18372   */\n      dup2\n      dup9\n      add\n        /* \"#utility.yul\":18351:18373   */\n      mload\n      not(0x1f)\n        /* \"#utility.yul\":18439:18461   */\n      dup9\n      dup4\n      sub\n        /* \"#utility.yul\":18435:18466   */\n      dup2\n      add\n        /* \"#utility.yul\":18415:18433   */\n      dup6\n      dup11\n      add\n        /* \"#utility.yul\":18408:18467   */\n      mstore\n        /* \"#utility.yul\":18516:18537   */\n      dup2\n      mload\n        /* \"#utility.yul\":18546:18568   */\n      dup1\n      dup5\n      mstore\n        /* \"#utility.yul\":18439:18461   */\n      swap3\n      swap6\n      pop\n        /* \"#utility.yul\":18702:18725   */\n      swap1\n      dup7\n      add\n      swap2\n        /* \"#utility.yul\":18584:18599   */\n      dup7\n      dup7\n      add\n      swap1\n        /* \"#utility.yul\":18618:18619   */\n      0x05\n        /* \"#utility.yul\":18658:18673   */\n      dup2\n      dup2\n      shl\n        /* \"#utility.yul\":18646:18674   */\n      dup9\n      add\n        /* \"#utility.yul\":18642:18679   */\n      dup10\n      add\n        /* \"#utility.yul\":18743:18744   */\n      0x00\n        /* \"#utility.yul\":18753:19364   */\n    tag_903:\n        /* \"#utility.yul\":18767:18773   */\n      dup4\n        /* \"#utility.yul\":18764:18765   */\n      dup2\n        /* \"#utility.yul\":18761:18774   */\n      lt\n        /* \"#utility.yul\":18753:19364   */\n      iszero\n      tag_905\n      jumpi\n        /* \"#utility.yul\":18853:18855   */\n      dup6\n        /* \"#utility.yul\":18844:18850   */\n      dup11\n        /* \"#utility.yul\":18836:18842   */\n      dup4\n        /* \"#utility.yul\":18832:18851   */\n      sub\n        /* \"#utility.yul\":18828:18856   */\n      add\n        /* \"#utility.yul\":18823:18826   */\n      dup6\n        /* \"#utility.yul\":18816:18857   */\n      mstore\n        /* \"#utility.yul\":18886:18892   */\n      dup7\n        /* \"#utility.yul\":18880:18893   */\n      mload\n        /* \"#utility.yul\":18922:18924   */\n      dup1\n        /* \"#utility.yul\":18916:18925   */\n      mload\n        /* \"#utility.yul\":18955:18957   */\n      dup5\n        /* \"#utility.yul\":18951:18953   */\n      dup2\n        /* \"#utility.yul\":18948:18958   */\n      lt\n        /* \"#utility.yul\":18938:18982   */\n      tag_907\n      jumpi\n        /* \"#utility.yul\":18962:18980   */\n      tag_907\n      tag_322\n      jump\t// in\n    tag_907:\n        /* \"#utility.yul\":18995:19013   */\n      dup4\n      mstore\n        /* \"#utility.yul\":19054:19065   */\n      dup1\n      dup13\n      add\n        /* \"#utility.yul\":19048:19066   */\n      mload\n        /* \"#utility.yul\":19086:19101   */\n      dup13\n      dup5\n      add\n        /* \"#utility.yul\":19079:19106   */\n      dup12\n      swap1\n      mstore\n        /* \"#utility.yul\":19133:19183   */\n      tag_908\n        /* \"#utility.yul\":19167:19182   */\n      dup12\n      dup6\n      add\n        /* \"#utility.yul\":19048:19066   */\n      dup3\n        /* \"#utility.yul\":19133:19183   */\n      tag_862\n      jump\t// in\n    tag_908:\n        /* \"#utility.yul\":19240:19251   */\n      swap2\n      dup11\n      add\n        /* \"#utility.yul\":19234:19252   */\n      mload\n        /* \"#utility.yul\":19227:19253   */\n      iszero\n        /* \"#utility.yul\":19220:19254   */\n      iszero\n        /* \"#utility.yul\":19203:19218   */\n      swap4\n      dup11\n      add\n        /* \"#utility.yul\":19196:19255   */\n      swap4\n      swap1\n      swap4\n      mstore\n        /* \"#utility.yul\":19307:19322   */\n      swap7\n      dup12\n      add\n      swap7\n        /* \"#utility.yul\":19342:19354   */\n      swap5\n      dup12\n      add\n      swap5\n        /* \"#utility.yul\":19119:19183   */\n      swap2\n      pop\n        /* \"#utility.yul\":18789:18790   */\n      0x01\n        /* \"#utility.yul\":18782:18791   */\n      add\n        /* \"#utility.yul\":18753:19364   */\n      jump(tag_903)\n    tag_905:\n      pop\n        /* \"#utility.yul\":19381:19387   */\n      swap13\n        /* \"#utility.yul\":17811:19393   */\n      swap12\n      pop\n      pop\n      pop\n      pop\n      pop\n      pop\n      pop\n      pop\n      pop\n      pop\n      pop\n      pop\n      jump\t// out\n        /* \"#utility.yul\":19398:22632   */\n    tag_117:\n        /* \"#utility.yul\":19591:19593   */\n      0x20\n        /* \"#utility.yul\":19580:19589   */\n      dup2\n        /* \"#utility.yul\":19573:19594   */\n      mstore\n        /* \"#utility.yul\":19603:19656   */\n      tag_910\n        /* \"#utility.yul\":19652:19654   */\n      0x20\n        /* \"#utility.yul\":19641:19650   */\n      dup3\n        /* \"#utility.yul\":19637:19655   */\n      add\n        /* \"#utility.yul\":19628:19634   */\n      dup4\n        /* \"#utility.yul\":19622:19635   */\n      mload\n      sub(shl(0xa0, 0x01), 0x01)\n        /* \"#utility.yul\":11133:11164   */\n      and\n        /* \"#utility.yul\":11121:11165   */\n      swap1\n      mstore\n        /* \"#utility.yul\":11067:11171   */\n      jump\n        /* \"#utility.yul\":19603:19656   */\n    tag_910:\n        /* \"#utility.yul\":19710:19712   */\n      0x20\n        /* \"#utility.yul\":19702:19708   */\n      dup3\n        /* \"#utility.yul\":19698:19713   */\n      add\n        /* \"#utility.yul\":19692:19714   */\n      mload\n        /* \"#utility.yul\":19687:19689   */\n      0x40\n        /* \"#utility.yul\":19676:19685   */\n      dup3\n        /* \"#utility.yul\":19672:19690   */\n      add\n        /* \"#utility.yul\":19665:19715   */\n      mstore\n        /* \"#utility.yul\":19554:19558   */\n      0x00\n        /* \"#utility.yul\":19762:19764   */\n      0x40\n        /* \"#utility.yul\":19754:19760   */\n      dup4\n        /* \"#utility.yul\":19750:19765   */\n      add\n        /* \"#utility.yul\":19744:19766   */\n      mload\n        /* \"#utility.yul\":19785:19791   */\n      0x02e0\n        /* \"#utility.yul\":19827:19829   */\n      dup1\n        /* \"#utility.yul\":19822:19824   */\n      0x60\n        /* \"#utility.yul\":19811:19820   */\n      dup6\n        /* \"#utility.yul\":19807:19825   */\n      add\n        /* \"#utility.yul\":19800:19830   */\n      mstore\n        /* \"#utility.yul\":19853:19905   */\n      tag_911\n        /* \"#utility.yul\":19900:19903   */\n      0x0300\n        /* \"#utility.yul\":19889:19898   */\n      dup6\n        /* \"#utility.yul\":19885:19904   */\n      add\n        /* \"#utility.yul\":19871:19883   */\n      dup4\n        /* \"#utility.yul\":19853:19905   */\n      tag_862\n      jump\t// in\n    tag_911:\n        /* \"#utility.yul\":19839:19905   */\n      swap2\n      pop\n        /* \"#utility.yul\":19954:19956   */\n      0x60\n        /* \"#utility.yul\":19946:19952   */\n      dup6\n        /* \"#utility.yul\":19942:19957   */\n      add\n        /* \"#utility.yul\":19936:19958   */\n      mload\n        /* \"#utility.yul\":19981:19983   */\n      0x1f\n        /* \"#utility.yul\":19977:19984   */\n      not\n        /* \"#utility.yul\":20049:20051   */\n      dup1\n        /* \"#utility.yul\":20037:20046   */\n      dup7\n        /* \"#utility.yul\":20029:20035   */\n      dup6\n        /* \"#utility.yul\":20025:20047   */\n      sub\n        /* \"#utility.yul\":20021:20052   */\n      add\n        /* \"#utility.yul\":20015:20018   */\n      0x80\n        /* \"#utility.yul\":20004:20013   */\n      dup8\n        /* \"#utility.yul\":20000:20019   */\n      add\n        /* \"#utility.yul\":19993:20053   */\n      mstore\n        /* \"#utility.yul\":20076:20117   */\n      tag_912\n        /* \"#utility.yul\":20110:20116   */\n      dup5\n        /* \"#utility.yul\":20094:20108   */\n      dup4\n        /* \"#utility.yul\":20076:20117   */\n      tag_862\n      jump\t// in\n    tag_912:\n        /* \"#utility.yul\":20062:20117   */\n      swap4\n      pop\n        /* \"#utility.yul\":20172:20175   */\n      0x80\n        /* \"#utility.yul\":20164:20170   */\n      dup8\n        /* \"#utility.yul\":20160:20176   */\n      add\n        /* \"#utility.yul\":20154:20177   */\n      mload\n        /* \"#utility.yul\":20148:20151   */\n      0xa0\n        /* \"#utility.yul\":20137:20146   */\n      dup8\n        /* \"#utility.yul\":20133:20152   */\n      add\n        /* \"#utility.yul\":20126:20178   */\n      mstore\n        /* \"#utility.yul\":20233:20236   */\n      0xa0\n        /* \"#utility.yul\":20225:20231   */\n      dup8\n        /* \"#utility.yul\":20221:20237   */\n      add\n        /* \"#utility.yul\":20215:20238   */\n      mload\n        /* \"#utility.yul\":20209:20212   */\n      0xc0\n        /* \"#utility.yul\":20198:20207   */\n      dup8\n        /* \"#utility.yul\":20194:20213   */\n      add\n        /* \"#utility.yul\":20187:20239   */\n      mstore\n        /* \"#utility.yul\":20294:20297   */\n      0xc0\n        /* \"#utility.yul\":20286:20292   */\n      dup8\n        /* \"#utility.yul\":20282:20298   */\n      add\n        /* \"#utility.yul\":20276:20299   */\n      mload\n        /* \"#utility.yul\":20270:20273   */\n      0xe0\n        /* \"#utility.yul\":20259:20268   */\n      dup8\n        /* \"#utility.yul\":20255:20274   */\n      add\n        /* \"#utility.yul\":20248:20300   */\n      mstore\n        /* \"#utility.yul\":20349:20352   */\n      0xe0\n        /* \"#utility.yul\":20341:20347   */\n      dup8\n        /* \"#utility.yul\":20337:20353   */\n      add\n        /* \"#utility.yul\":20331:20354   */\n      mload\n        /* \"#utility.yul\":20309:20354   */\n      swap2\n      pop\n        /* \"#utility.yul\":20373:20376   */\n      0x0100\n        /* \"#utility.yul\":20440:20442   */\n      dup2\n        /* \"#utility.yul\":20428:20437   */\n      dup8\n        /* \"#utility.yul\":20420:20426   */\n      dup7\n        /* \"#utility.yul\":20416:20438   */\n      sub\n        /* \"#utility.yul\":20412:20443   */\n      add\n        /* \"#utility.yul\":20407:20409   */\n      dup2\n        /* \"#utility.yul\":20396:20405   */\n      dup9\n        /* \"#utility.yul\":20392:20410   */\n      add\n        /* \"#utility.yul\":20385:20444   */\n      mstore\n        /* \"#utility.yul\":20467:20519   */\n      tag_913\n        /* \"#utility.yul\":20512:20518   */\n      dup6\n        /* \"#utility.yul\":20496:20510   */\n      dup5\n        /* \"#utility.yul\":20467:20519   */\n      tag_867\n      jump\t// in\n    tag_913:\n        /* \"#utility.yul\":20544:20559   */\n      swap1\n      dup9\n      add\n        /* \"#utility.yul\":20538:20560   */\n      mload\n        /* \"#utility.yul\":20579:20582   */\n      0x0120\n        /* \"#utility.yul\":20598:20616   */\n      dup9\n      dup2\n      add\n        /* \"#utility.yul\":20591:20621   */\n      swap2\n      swap1\n      swap2\n      mstore\n        /* \"#utility.yul\":20646:20661   */\n      dup9\n      add\n        /* \"#utility.yul\":20640:20662   */\n      mload\n        /* \"#utility.yul\":20681:20684   */\n      0x0140\n        /* \"#utility.yul\":20700:20718   */\n      dup1\n      dup10\n      add\n        /* \"#utility.yul\":20693:20723   */\n      swap2\n      swap1\n      swap2\n      mstore\n        /* \"#utility.yul\":20760:20775   */\n      dup9\n      add\n        /* \"#utility.yul\":20754:20776   */\n      mload\n        /* \"#utility.yul\":20453:20519   */\n      swap1\n      swap5\n      pop\n        /* \"#utility.yul\":20754:20776   */\n      swap2\n      pop\n        /* \"#utility.yul\":20795:20798   */\n      0x0160\n        /* \"#utility.yul\":20807:20858   */\n      tag_914\n        /* \"#utility.yul\":20839:20857   */\n      dup2\n      dup9\n      add\n        /* \"#utility.yul\":20754:20776   */\n      dup5\n        /* \"#utility.yul\":14135:14148   */\n      iszero\n        /* \"#utility.yul\":14128:14149   */\n      iszero\n        /* \"#utility.yul\":14116:14150   */\n      swap1\n      mstore\n        /* \"#utility.yul\":14065:14156   */\n      jump\n        /* \"#utility.yul\":20807:20858   */\n    tag_914:\n        /* \"#utility.yul\":20895:20910   */\n      dup8\n      add\n        /* \"#utility.yul\":20889:20911   */\n      mload\n      swap2\n      pop\n        /* \"#utility.yul\":20930:20933   */\n      0x0180\n        /* \"#utility.yul\":20942:20993   */\n      tag_915\n        /* \"#utility.yul\":20974:20992   */\n      dup8\n      dup3\n      add\n        /* \"#utility.yul\":20889:20911   */\n      dup5\n        /* \"#utility.yul\":14135:14148   */\n      iszero\n        /* \"#utility.yul\":14128:14149   */\n      iszero\n        /* \"#utility.yul\":14116:14150   */\n      swap1\n      mstore\n        /* \"#utility.yul\":14065:14156   */\n      jump\n        /* \"#utility.yul\":20942:20993   */\n    tag_915:\n        /* \"#utility.yul\":21031:21033   */\n      dup1\n        /* \"#utility.yul\":21023:21029   */\n      dup9\n        /* \"#utility.yul\":21019:21034   */\n      add\n        /* \"#utility.yul\":21013:21035   */\n      mload\n        /* \"#utility.yul\":21002:21035   */\n      swap3\n      pop\n      pop\n        /* \"#utility.yul\":21055:21058   */\n      0x01a0\n        /* \"#utility.yul\":21095:21098   */\n      dup3\n        /* \"#utility.yul\":21089:21092   */\n      dup2\n        /* \"#utility.yul\":21078:21087   */\n      dup9\n        /* \"#utility.yul\":21074:21093   */\n      add\n        /* \"#utility.yul\":21067:21099   */\n      mstore\n        /* \"#utility.yul\":21148:21151   */\n      dup1\n        /* \"#utility.yul\":21140:21146   */\n      dup9\n        /* \"#utility.yul\":21136:21152   */\n      add\n        /* \"#utility.yul\":21130:21153   */\n      mload\n        /* \"#utility.yul\":21108:21153   */\n      swap3\n      pop\n      pop\n        /* \"#utility.yul\":21173:21176   */\n      0x01c0\n        /* \"#utility.yul\":21241:21243   */\n      dup2\n        /* \"#utility.yul\":21229:21238   */\n      dup8\n        /* \"#utility.yul\":21221:21227   */\n      dup7\n        /* \"#utility.yul\":21217:21239   */\n      sub\n        /* \"#utility.yul\":21213:21244   */\n      add\n        /* \"#utility.yul\":21207:21210   */\n      dup2\n        /* \"#utility.yul\":21196:21205   */\n      dup9\n        /* \"#utility.yul\":21192:21211   */\n      add\n        /* \"#utility.yul\":21185:21245   */\n      mstore\n        /* \"#utility.yul\":21268:21328   */\n      tag_916\n        /* \"#utility.yul\":21321:21327   */\n      dup6\n        /* \"#utility.yul\":21305:21319   */\n      dup5\n        /* \"#utility.yul\":21268:21328   */\n      tag_856\n      jump\t// in\n    tag_916:\n        /* \"#utility.yul\":21254:21328   */\n      swap5\n      pop\n        /* \"#utility.yul\":21377:21380   */\n      dup1\n        /* \"#utility.yul\":21369:21375   */\n      dup9\n        /* \"#utility.yul\":21365:21381   */\n      add\n        /* \"#utility.yul\":21359:21382   */\n      mload\n        /* \"#utility.yul\":21337:21382   */\n      swap3\n      pop\n      pop\n        /* \"#utility.yul\":21402:21405   */\n      0x01e0\n        /* \"#utility.yul\":21470:21472   */\n      dup2\n        /* \"#utility.yul\":21458:21467   */\n      dup8\n        /* \"#utility.yul\":21450:21456   */\n      dup7\n        /* \"#utility.yul\":21446:21468   */\n      sub\n        /* \"#utility.yul\":21442:21473   */\n      add\n        /* \"#utility.yul\":21436:21439   */\n      dup2\n        /* \"#utility.yul\":21425:21434   */\n      dup9\n        /* \"#utility.yul\":21421:21440   */\n      add\n        /* \"#utility.yul\":21414:21474   */\n      mstore\n        /* \"#utility.yul\":21497:21549   */\n      tag_917\n        /* \"#utility.yul\":21542:21548   */\n      dup6\n        /* \"#utility.yul\":21526:21540   */\n      dup5\n        /* \"#utility.yul\":21497:21549   */\n      tag_851\n      jump\t// in\n    tag_917:\n        /* \"#utility.yul\":21483:21549   */\n      swap5\n      pop\n        /* \"#utility.yul\":21598:21601   */\n      dup1\n        /* \"#utility.yul\":21590:21596   */\n      dup9\n        /* \"#utility.yul\":21586:21602   */\n      add\n        /* \"#utility.yul\":21580:21603   */\n      mload\n        /* \"#utility.yul\":21558:21603   */\n      swap3\n      pop\n      pop\n        /* \"#utility.yul\":21623:21626   */\n      0x0200\n        /* \"#utility.yul\":21691:21693   */\n      dup2\n        /* \"#utility.yul\":21679:21688   */\n      dup8\n        /* \"#utility.yul\":21671:21677   */\n      dup7\n        /* \"#utility.yul\":21667:21689   */\n      sub\n        /* \"#utility.yul\":21663:21694   */\n      add\n        /* \"#utility.yul\":21657:21660   */\n      dup2\n        /* \"#utility.yul\":21646:21655   */\n      dup9\n        /* \"#utility.yul\":21642:21661   */\n      add\n        /* \"#utility.yul\":21635:21695   */\n      mstore\n        /* \"#utility.yul\":21718:21770   */\n      tag_918\n        /* \"#utility.yul\":21763:21769   */\n      dup6\n        /* \"#utility.yul\":21747:21761   */\n      dup5\n        /* \"#utility.yul\":21718:21770   */\n      tag_851\n      jump\t// in\n    tag_918:\n        /* \"#utility.yul\":21796:21812   */\n      swap1\n      dup9\n      add\n        /* \"#utility.yul\":21790:21813   */\n      mload\n        /* \"#utility.yul\":21833:21836   */\n      0x0220\n        /* \"#utility.yul\":21852:21871   */\n      dup9\n      dup2\n      add\n        /* \"#utility.yul\":21845:21877   */\n      swap2\n      swap1\n      swap2\n      mstore\n        /* \"#utility.yul\":21903:21919   */\n      dup9\n      add\n        /* \"#utility.yul\":21897:21920   */\n      mload\n        /* \"#utility.yul\":21940:21943   */\n      0x0240\n        /* \"#utility.yul\":21959:21978   */\n      dup1\n      dup10\n      add\n        /* \"#utility.yul\":21952:21984   */\n      swap2\n      swap1\n      swap2\n      mstore\n        /* \"#utility.yul\":22010:22026   */\n      dup9\n      add\n        /* \"#utility.yul\":22004:22027   */\n      mload\n        /* \"#utility.yul\":22047:22050   */\n      0x0260\n        /* \"#utility.yul\":22066:22085   */\n      dup1\n      dup10\n      add\n        /* \"#utility.yul\":22059:22091   */\n      swap2\n      swap1\n      swap2\n      mstore\n        /* \"#utility.yul\":22117:22133   */\n      dup9\n      add\n        /* \"#utility.yul\":22111:22134   */\n      mload\n        /* \"#utility.yul\":22154:22157   */\n      0x0280\n        /* \"#utility.yul\":22173:22192   */\n      dup1\n      dup10\n      add\n        /* \"#utility.yul\":22166:22198   */\n      swap2\n      swap1\n      swap2\n      mstore\n        /* \"#utility.yul\":22235:22251   */\n      dup9\n      add\n        /* \"#utility.yul\":22229:22252   */\n      mload\n        /* \"#utility.yul\":21704:21770   */\n      swap1\n      swap5\n      pop\n        /* \"#utility.yul\":22229:22252   */\n      swap2\n      pop\n        /* \"#utility.yul\":22272:22275   */\n      0x02a0\n      swap1\n      pop\n        /* \"#utility.yul\":22284:22336   */\n      tag_919\n        /* \"#utility.yul\":22316:22335   */\n      dup2\n      dup8\n      add\n        /* \"#utility.yul\":22229:22252   */\n      dup4\n        /* \"#utility.yul\":14135:14148   */\n      iszero\n        /* \"#utility.yul\":14128:14149   */\n      iszero\n        /* \"#utility.yul\":14116:14150   */\n      swap1\n      mstore\n        /* \"#utility.yul\":14065:14156   */\n      jump\n        /* \"#utility.yul\":22284:22336   */\n    tag_919:\n        /* \"#utility.yul\":22373:22389   */\n      dup7\n      add\n        /* \"#utility.yul\":22367:22390   */\n      mload\n      swap1\n      pop\n        /* \"#utility.yul\":22410:22413   */\n      0x02c0\n        /* \"#utility.yul\":22422:22474   */\n      tag_920\n        /* \"#utility.yul\":22454:22473   */\n      dup7\n      dup3\n      add\n        /* \"#utility.yul\":22367:22390   */\n      dup4\n        /* \"#utility.yul\":14135:14148   */\n      iszero\n        /* \"#utility.yul\":14128:14149   */\n      iszero\n        /* \"#utility.yul\":14116:14150   */\n      swap1\n      mstore\n        /* \"#utility.yul\":14065:14156   */\n      jump\n        /* \"#utility.yul\":22422:22474   */\n    tag_920:\n        /* \"#utility.yul\":22512:22528   */\n      dup7\n      add\n        /* \"#utility.yul\":22506:22529   */\n      mload\n      swap1\n      pop\n        /* \"#utility.yul\":22538:22603   */\n      tag_921\n        /* \"#utility.yul\":22584:22602   */\n      dup6\n      dup4\n      add\n        /* \"#utility.yul\":22506:22529   */\n      dup3\n        /* \"#utility.yul\":22538:22603   */\n      tag_877\n      jump\t// in\n    tag_921:\n      pop\n        /* \"#utility.yul\":22620:22626   */\n      swap1\n      swap5\n        /* \"#utility.yul\":19398:22632   */\n      swap4\n      pop\n      pop\n      pop\n      pop\n      jump\t// out\n        /* \"#utility.yul\":22819:23072   */\n    tag_747:\n        /* \"#utility.yul\":22891:22893   */\n      0x40\n        /* \"#utility.yul\":22885:22894   */\n      mload\n        /* \"#utility.yul\":22933:22937   */\n      0xa0\n        /* \"#utility.yul\":22921:22938   */\n      dup2\n      add\n      sub(shl(0x40, 0x01), 0x01)\n        /* \"#utility.yul\":22953:22987   */\n      dup2\n      gt\n        /* \"#utility.yul\":22989:23011   */\n      dup3\n      dup3\n      lt\n        /* \"#utility.yul\":22950:23012   */\n      or\n        /* \"#utility.yul\":22947:23035   */\n      iszero\n      tag_925\n      jumpi\n        /* \"#utility.yul\":23015:23033   */\n      tag_925\n      tag_462\n      jump\t// in\n    tag_925:\n        /* \"#utility.yul\":23051:23053   */\n      0x40\n        /* \"#utility.yul\":23044:23066   */\n      mstore\n        /* \"#utility.yul\":22819:23072   */\n      swap1\n      jump\t// out\n        /* \"#utility.yul\":23077:23330   */\n    tag_751:\n        /* \"#utility.yul\":23149:23151   */\n      0x40\n        /* \"#utility.yul\":23143:23152   */\n      mload\n        /* \"#utility.yul\":23191:23195   */\n      0xe0\n        /* \"#utility.yul\":23179:23196   */\n      dup2\n      add\n      sub(shl(0x40, 0x01), 0x01)\n        /* \"#utility.yul\":23211:23245   */\n      dup2\n      gt\n        /* \"#utility.yul\":23247:23269   */\n      dup3\n      dup3\n      lt\n        /* \"#utility.yul\":23208:23270   */\n      or\n        /* \"#utility.yul\":23205:23293   */\n      iszero\n      tag_925\n      jumpi\n        /* \"#utility.yul\":23273:23291   */\n      tag_925\n      tag_462\n      jump\t// in\n        /* \"#utility.yul\":23335:23590   */\n    tag_785:\n        /* \"#utility.yul\":23407:23409   */\n      0x40\n        /* \"#utility.yul\":23401:23410   */\n      mload\n        /* \"#utility.yul\":23449:23455   */\n      0x01a0\n        /* \"#utility.yul\":23437:23456   */\n      dup2\n      add\n      sub(shl(0x40, 0x01), 0x01)\n        /* \"#utility.yul\":23471:23505   */\n      dup2\n      gt\n        /* \"#utility.yul\":23507:23529   */\n      dup3\n      dup3\n      lt\n        /* \"#utility.yul\":23468:23530   */\n      or\n        /* \"#utility.yul\":23465:23553   */\n      iszero\n      tag_925\n      jumpi\n        /* \"#utility.yul\":23533:23551   */\n      tag_925\n      tag_462\n      jump\t// in\n        /* \"#utility.yul\":23595:23870   */\n    tag_739:\n        /* \"#utility.yul\":23666:23668   */\n      0x40\n        /* \"#utility.yul\":23660:23669   */\n      mload\n        /* \"#utility.yul\":23731:23733   */\n      0x1f\n        /* \"#utility.yul\":23712:23725   */\n      dup3\n      add\n      not(0x1f)\n        /* \"#utility.yul\":23708:23735   */\n      and\n        /* \"#utility.yul\":23696:23736   */\n      dup2\n      add\n      sub(shl(0x40, 0x01), 0x01)\n        /* \"#utility.yul\":23751:23785   */\n      dup2\n      gt\n        /* \"#utility.yul\":23787:23809   */\n      dup3\n      dup3\n      lt\n        /* \"#utility.yul\":23748:23810   */\n      or\n        /* \"#utility.yul\":23745:23833   */\n      iszero\n      tag_934\n      jumpi\n        /* \"#utility.yul\":23813:23831   */\n      tag_934\n      tag_462\n      jump\t// in\n    tag_934:\n        /* \"#utility.yul\":23849:23851   */\n      0x40\n        /* \"#utility.yul\":23842:23864   */\n      mstore\n        /* \"#utility.yul\":23595:23870   */\n      swap2\n      swap1\n      pop\n      jump\t// out\n        /* \"#utility.yul\":23875:24066   */\n    tag_738:\n        /* \"#utility.yul\":23943:23947   */\n      0x00\n      sub(shl(0x40, 0x01), 0x01)\n        /* \"#utility.yul\":23968:23974   */\n      dup3\n        /* \"#utility.yul\":23965:23995   */\n      gt\n        /* \"#utility.yul\":23962:24018   */\n      iszero\n      tag_937\n      jumpi\n        /* \"#utility.yul\":23998:24016   */\n      tag_937\n      tag_462\n      jump\t// in\n    tag_937:\n      pop\n        /* \"#utility.yul\":24043:24044   */\n      0x05\n        /* \"#utility.yul\":24039:24053   */\n      shl\n        /* \"#utility.yul\":24055:24059   */\n      0x20\n        /* \"#utility.yul\":24035:24060   */\n      add\n      swap1\n        /* \"#utility.yul\":23875:24066   */\n      jump\t// out\n        /* \"#utility.yul\":24071:24199   */\n    tag_330:\n        /* \"#utility.yul\":24111:24114   */\n      0x00\n        /* \"#utility.yul\":24142:24143   */\n      dup3\n        /* \"#utility.yul\":24138:24144   */\n      not\n        /* \"#utility.yul\":24135:24136   */\n      dup3\n        /* \"#utility.yul\":24132:24145   */\n      gt\n        /* \"#utility.yul\":24129:24168   */\n      iszero\n      tag_940\n      jumpi\n        /* \"#utility.yul\":24148:24166   */\n      tag_940\n      tag_941\n      jump\t// in\n    tag_940:\n      pop\n        /* \"#utility.yul\":24184:24193   */\n      add\n      swap1\n        /* \"#utility.yul\":24071:24199   */\n      jump\t// out\n        /* \"#utility.yul\":24204:24329   */\n    tag_451:\n        /* \"#utility.yul\":24244:24248   */\n      0x00\n        /* \"#utility.yul\":24272:24273   */\n      dup3\n        /* \"#utility.yul\":24269:24270   */\n      dup3\n        /* \"#utility.yul\":24266:24274   */\n      lt\n        /* \"#utility.yul\":24263:24297   */\n      iszero\n      tag_944\n      jumpi\n        /* \"#utility.yul\":24277:24295   */\n      tag_944\n      tag_941\n      jump\t// in\n    tag_944:\n      pop\n        /* \"#utility.yul\":24314:24323   */\n      sub\n      swap1\n        /* \"#utility.yul\":24204:24329   */\n      jump\t// out\n        /* \"#utility.yul\":24334:24470   */\n    tag_520:\n        /* \"#utility.yul\":24373:24376   */\n      0x00\n        /* \"#utility.yul\":24401:24406   */\n      dup2\n        /* \"#utility.yul\":24391:24430   */\n      tag_947\n      jumpi\n        /* \"#utility.yul\":24410:24428   */\n      tag_947\n      tag_941\n      jump\t// in\n    tag_947:\n      pop\n      not(0x00)\n        /* \"#utility.yul\":24446:24464   */\n      add\n      swap1\n        /* \"#utility.yul\":24334:24470   */\n      jump\t// out\n        /* \"#utility.yul\":24475:24855   */\n    tag_305:\n        /* \"#utility.yul\":24554:24555   */\n      0x01\n        /* \"#utility.yul\":24550:24562   */\n      dup2\n      dup2\n      shr\n      swap1\n        /* \"#utility.yul\":24597:24609   */\n      dup3\n      and\n      dup1\n        /* \"#utility.yul\":24618:24679   */\n      tag_949\n      jumpi\n        /* \"#utility.yul\":24672:24676   */\n      0x7f\n        /* \"#utility.yul\":24664:24670   */\n      dup3\n        /* \"#utility.yul\":24660:24677   */\n      and\n        /* \"#utility.yul\":24650:24677   */\n      swap2\n      pop\n        /* \"#utility.yul\":24618:24679   */\n    tag_949:\n        /* \"#utility.yul\":24725:24727   */\n      0x20\n        /* \"#utility.yul\":24717:24723   */\n      dup3\n        /* \"#utility.yul\":24714:24728   */\n      lt\n        /* \"#utility.yul\":24694:24712   */\n      dup2\n        /* \"#utility.yul\":24691:24729   */\n      eq\n        /* \"#utility.yul\":24688:24849   */\n      iszero\n      tag_950\n      jumpi\n        /* \"#utility.yul\":24771:24781   */\n      0x4e487b71\n        /* \"#utility.yul\":24766:24769   */\n      0xe0\n        /* \"#utility.yul\":24762:24782   */\n      shl\n        /* \"#utility.yul\":24759:24760   */\n      0x00\n        /* \"#utility.yul\":24752:24783   */\n      mstore\n        /* \"#utility.yul\":24806:24810   */\n      0x22\n        /* \"#utility.yul\":24803:24804   */\n      0x04\n        /* \"#utility.yul\":24796:24811   */\n      mstore\n        /* \"#utility.yul\":24834:24838   */\n      0x24\n        /* \"#utility.yul\":24831:24832   */\n      0x00\n        /* \"#utility.yul\":24824:24839   */\n      revert\n        /* \"#utility.yul\":24688:24849   */\n    tag_950:\n      pop\n        /* \"#utility.yul\":24475:24855   */\n      swap2\n      swap1\n      pop\n      jump\t// out\n        /* \"#utility.yul\":24860:24995   */\n    tag_366:\n        /* \"#utility.yul\":24899:24902   */\n      0x00\n      not(0x00)\n        /* \"#utility.yul\":24920:24937   */\n      dup3\n      eq\n        /* \"#utility.yul\":24917:24960   */\n      iszero\n      tag_953\n      jumpi\n        /* \"#utility.yul\":24940:24958   */\n      tag_953\n      tag_941\n      jump\t// in\n    tag_953:\n      pop\n        /* \"#utility.yul\":24987:24988   */\n      0x01\n        /* \"#utility.yul\":24976:24989   */\n      add\n      swap1\n        /* \"#utility.yul\":24860:24995   */\n      jump\t// out\n        /* \"#utility.yul\":25000:25127   */\n    tag_941:\n        /* \"#utility.yul\":25061:25071   */\n      0x4e487b71\n        /* \"#utility.yul\":25056:25059   */\n      0xe0\n        /* \"#utility.yul\":25052:25072   */\n      shl\n        /* \"#utility.yul\":25049:25050   */\n      0x00\n        /* \"#utility.yul\":25042:25073   */\n      mstore\n        /* \"#utility.yul\":25092:25096   */\n      0x11\n        /* \"#utility.yul\":25089:25090   */\n      0x04\n        /* \"#utility.yul\":25082:25097   */\n      mstore\n        /* \"#utility.yul\":25116:25120   */\n      0x24\n        /* \"#utility.yul\":25113:25114   */\n      0x00\n        /* \"#utility.yul\":25106:25121   */\n      revert\n        /* \"#utility.yul\":25132:25259   */\n    tag_322:\n        /* \"#utility.yul\":25193:25203   */\n      0x4e487b71\n        /* \"#utility.yul\":25188:25191   */\n      0xe0\n        /* \"#utility.yul\":25184:25204   */\n      shl\n        /* \"#utility.yul\":25181:25182   */\n      0x00\n        /* \"#utility.yul\":25174:25205   */\n      mstore\n        /* \"#utility.yul\":25224:25228   */\n      0x21\n        /* \"#utility.yul\":25221:25222   */\n      0x04\n        /* \"#utility.yul\":25214:25229   */\n      mstore\n        /* \"#utility.yul\":25248:25252   */\n      0x24\n        /* \"#utility.yul\":25245:25246   */\n      0x00\n        /* \"#utility.yul\":25238:25253   */\n      revert\n        /* \"#utility.yul\":25264:25391   */\n    tag_296:\n        /* \"#utility.yul\":25325:25335   */\n      0x4e487b71\n        /* \"#utility.yul\":25320:25323   */\n      0xe0\n        /* \"#utility.yul\":25316:25336   */\n      shl\n        /* \"#utility.yul\":25313:25314   */\n      0x00\n        /* \"#utility.yul\":25306:25337   */\n      mstore\n        /* \"#utility.yul\":25356:25360   */\n      0x32\n        /* \"#utility.yul\":25353:25354   */\n      0x04\n        /* \"#utility.yul\":25346:25361   */\n      mstore\n        /* \"#utility.yul\":25380:25384   */\n      0x24\n        /* \"#utility.yul\":25377:25378   */\n      0x00\n        /* \"#utility.yul\":25370:25385   */\n      revert\n        /* \"#utility.yul\":25396:25523   */\n    tag_462:\n        /* \"#utility.yul\":25457:25467   */\n      0x4e487b71\n        /* \"#utility.yul\":25452:25455   */\n      0xe0\n        /* \"#utility.yul\":25448:25468   */\n      shl\n        /* \"#utility.yul\":25445:25446   */\n      0x00\n        /* \"#utility.yul\":25438:25469   */\n      mstore\n        /* \"#utility.yul\":25488:25492   */\n      0x41\n        /* \"#utility.yul\":25485:25486   */\n      0x04\n        /* \"#utility.yul\":25478:25493   */\n      mstore\n        /* \"#utility.yul\":25512:25516   */\n      0x24\n        /* \"#utility.yul\":25509:25510   */\n      0x00\n        /* \"#utility.yul\":25502:25517   */\n      revert\n\n    auxdata: 0xa2646970667358221220d1e319aa47f750e32469fe9aaa92a7c1a5b4c3313770bfa10e4474278cd31a0164736f6c63430008070033\n}\n",
				"bytecode": {
					"linkReferences": {},
					"object": "60806040523480156200001157600080fd5b506200001d3362000023565b62000073565b600080546001600160a01b038381166001600160a01b0319831681178455604051919092169283917f8be0079c531659141344cd1fd0a4f28419497f9722a3daafe3b4186f6b6457e09190a35050565b613dab80620000836000396000f3fe608060405234801561001057600080fd5b506004361061035d5760003560e01c80637c34eb85116101d3578063a87d942c11610104578063d2fed69c116100a2578063f2fde38b1161007c578063f2fde38b146108a2578063f8626ebb146108b5578063fbe24700146108d8578063ffcce776146108eb57600080fd5b8063d2fed69c14610843578063d3d7bc3b14610866578063e1ca7ca71461088f57600080fd5b8063b647eec3116100de578063b647eec3146107f7578063c061bb821461080a578063c16da0601461081d578063ce0980541461083057600080fd5b8063a87d942c146107bc578063ad5f7ab0146107c4578063ad607c72146107d757600080fd5b80638da5cb5b11610171578063992d60f31161014b578063992d60f314610770578063a1e047f314610783578063a608963914610796578063a74deb9b146107a957600080fd5b80638da5cb5b146107195780639722f0991461072a578063983a12a81461075057600080fd5b8063869a7365116101ad578063869a73651461069957806387af5d79146106d25780638a9a9ff3146106e55780638b3f3a6f146106f857600080fd5b80637c34eb85146106485780637c35beb7146106735780637d88dadf1461068657600080fd5b80634c7360ce116102ad5780636c4319041161024b5780636e973982116102255780636e973982146105d4578063715018a6146105f7578063790485f9146105ff5780637b3f47171461063557600080fd5b80636c431904146105a65780636cefce6e146105b95780636d8d1daf146105c157600080fd5b8063591b0e2711610287578063591b0e271461050f5780635bf608b8146105325780635fed5eb21461057357806363e3ccad1461059357600080fd5b80634c7360ce146104ae578063546677aa146104c157806357840da6146104fc57600080fd5b80631af5fa161161031a57806325e78e70116102f457806325e78e7014610455578063271ff03f1461047557806331d396ce1461048857806333e68dcd1461049b57600080fd5b80631af5fa16146103f65780631fa2bf4c1461040957806321d90a271461041c57600080fd5b806305c3f9c91461036257806312506f4d14610388578063172372c2146103a857806317e925d7146103bd578063193620e7146103d057806319f17088146103e3575b600080fd5b610375610370366004613536565b610924565b6040519081526020015b60405180910390f35b61039b61039636600461343d565b6109e1565b60405161037f91906138ae565b6103bb6103b6366004613393565b610c92565b005b6103bb6103cb3660046135b9565b610cee565b6103756103de366004613456565b610d54565b6103bb6103f13660046134ea565b610d7e565b6103bb6104043660046135ed565b610dfe565b6103bb610417366004613681565b61105a565b61037561042a366004613456565b60009182526003602090815260408084206001600160a01b0393909316845291905290206001015490565b61046861046336600461343d565b6110e7565b60405161037f91906139f3565b6103bb6104833660046134b5565b6116e6565b6103bb610496366004613456565b611748565b6103756104a9366004613536565b6117b4565b6103bb6104bc3660046134b5565b61185e565b6104ec6104cf36600461343d565b600090815260016020526040902060130154610100900460ff1690565b604051901515815260200161037f565b6103bb61050a366004613393565b6118c8565b61037561051d36600461343d565b60009081526001602052604090206008015490565b61055b61054036600461343d565b6000908152600160205260409020546001600160a01b031690565b6040516001600160a01b03909116815260200161037f565b610586610581366004613456565b61191b565b60405161037f919061392e565b6103bb6105a1366004613596565b611bf0565b6103bb6105b43660046134ea565b611c3e565b6103bb611cb6565b6103bb6105cf366004613655565b611cf6565b6103756105e236600461343d565b6000908152600160205260409020600b015490565b6103bb611d60565b61037561060d366004613456565b60009182526004602090815260408084206001600160a01b0393909316845291905290205490565b6103bb610643366004613456565b611d74565b6104ec61065636600461343d565b6000908152600160205260409020600a0154610100900460ff1690565b610586610681366004613456565b611dd9565b6104ec6106943660046133bd565b6120a1565b6103756106a7366004613456565b60009182526004602090815260408084206001600160a01b0393909316845291905290206001015490565b6103bb6106e0366004613633565b612129565b6104ec6106f3366004613596565b612175565b61070b610706366004613479565b6121bf565b60405161037f9291906138c1565b6000546001600160a01b031661055b565b6104ec61073836600461343d565b60009081526001602052604090206013015460ff1690565b61076361075e36600461343d565b6124fc565b60405161037f919061389b565b6103bb61077e366004613456565b61256b565b6103bb6107913660046134b5565b6125d7565b6103bb6107a43660046134b5565b612639565b6103756107b73660046133f0565b612699565b600554610375565b6103bb6107d2366004613378565b612a27565b6107ea6107e5366004613633565b612a51565b60405161037f91906138e3565b61076361080536600461343d565b612a92565b6103bb610818366004613596565b612aff565b6103bb61082b366004613456565b612b54565b6103bb61083e366004613655565b612bb0565b61037561085136600461343d565b6000908152600160205260409020600d015490565b610375610874366004613378565b6001600160a01b031660009081526002602052604090205490565b61037561089d366004613633565b612c1a565b6103bb6108b0366004613378565b612c57565b6103756108c336600461343d565b6000908152600160205260409020600e015490565b6103bb6108e6366004613633565b612cd0565b6109176108f936600461343d565b60009081526001602052604090206013015462010000900460ff1690565b60405161037f91906138f1565b6006546000906001600160a01b0316331461095b5760405163048e2d4960e41b8152600401610952906138ff565b60405180910390fd5b6000858152600160205260409020600c018054429182918690811061098257610982613d49565b60009182526020808320600a600b9093020191909101929092558781526004825260408082206001600160a01b038916835283528082208783526002018352902084516109d792600190920191860190612dc6565b5095945050505050565b606060016000838152602001908152602001600020600c01805480602002602001604051908101604052809291908181526020016000905b82821015610c8757600084815260209020604080516101808101909152600b84029091018054829060a0820190839082908290610a5590613cc7565b80601f0160208091040260200160405190810160405280929190818152602001828054610a8190613cc7565b8015610ace5780601f10610aa357610100808354040283529160200191610ace565b820191906000526020600020905b815481529060010190602001808311610ab157829003601f168201915b505050505081526020016001820154815260200160028201548152602001600382015481526020016004820154815260200160058201548152602001600682018054610b1990613cc7565b80601f0160208091040260200160405190810160405280929190818152602001828054610b4590613cc7565b8015610b925780601f10610b6757610100808354040283529160200191610b92565b820191906000526020600020905b815481529060010190602001808311610b7557829003601f168201915b505050505081525050815260200160078201548152602001600882018054610bb990613cc7565b80601f0160208091040260200160405190810160405280929190818152602001828054610be590613cc7565b8015610c325780601f10610c0757610100808354040283529160200191610c32565b820191906000526020600020905b815481529060010190602001808311610c1557829003601f168201915b5050509183525050600982015460209091019060ff16600b811115610c5957610c59613d33565b600b811115610c6a57610c6a613d33565b8152602001600a8201548152505081526020019060010190610a19565b505050509050919050565b6006546001600160a01b03163314610cbd5760405163048e2d4960e41b8152600401610952906138ff565b6001600160a01b03821660009081526002602052604081208054839290610ce5908490613c81565b90915550505050565b6006546001600160a01b03163314610d195760405163048e2d4960e41b8152600401610952906138ff565b6000828152600160205260409020601301805482919062ff0000191662010000836007811115610d4b57610d4b613d33565b02179055505050565b60008281526003602090815260408083206001600160a01b03851684529091529020545b92915050565b6006546001600160a01b03163314610da95760405163048e2d4960e41b8152600401610952906138ff565b60008481526003602090815260408083206001600160a01b038716845282528083208584526002019091529020805482919060ff19166001836004811115610df357610df3613d33565b021790555050505050565b6006546001600160a01b03163314610e295760405163048e2d4960e41b8152600401610952906138ff565b60008281526001602081815260409092208351918101919091558282015180519192610e5d92600285019290910190612dc6565b5060408201518051610e79916003840191602090910190612dc6565b50606082015160048201556080820151600582015560a0820151600682015560c08201518051610eb3916007840191602090910190612e4a565b5060e08201516008820155610100808301516009830155610160830151600b830155610120830151600a8301805461014086015115801590940261ff00199315159390931661ffff1990911617919091179055610f1b5761018082015151600f820155610f23565b6001600f8201555b60138101805460ff1916600117905560005b826101800151518110156110545781600c018361018001518281518110610f5e57610f5e613d49565b60209081029190910181015182546001810184556000938452928290208151805180519395600b029092019390928492610f9c928492910190612dc6565b50602082810151600183015560408301516002830155606083015160038301556080830151600483015560a0830151600583015560c08301518051610fe79260068501920190612dc6565b50505060208281015160078301556040830151805161100c9260088501920190612dc6565b50606082015160098201805460ff1916600183600b81111561103057611030613d33565b0217905550608082015181600a01555050808061104c90613d02565b915050610f35565b50505050565b6006546001600160a01b031633146110855760405163048e2d4960e41b8152600401610952906138ff565b6000838152600160205260409020600c018054829190849081106110ab576110ab613d49565b90600052602060002090600b020160090160006101000a81548160ff0219169083600b8111156110dd576110dd613d33565b0217905550505050565b6110ef612e84565b60008281526001602081815260409283902083516102e08101855281546001600160a01b031681529281015491830191909152600281018054929391929184019161113990613cc7565b80601f016020809104026020016040519081016040528092919081815260200182805461116590613cc7565b80156111b25780601f10611187576101008083540402835291602001916111b2565b820191906000526020600020905b81548152906001019060200180831161119557829003601f168201915b505050505081526020016003820180546111cb90613cc7565b80601f01602080910402602001604051908101604052809291908181526020018280546111f790613cc7565b80156112445780601f1061121957610100808354040283529160200191611244565b820191906000526020600020905b81548152906001019060200180831161122757829003601f168201915b50505050508152602001600482015481526020016005820154815260200160068201548152602001600782018054806020026020016040519081016040528092919081815260200182805480156112ba57602002820191906000526020600020905b8154815260200190600101908083116112a6575b505050918352505060088201546020808301919091526009830154604080840191909152600a84015460ff808216151560608601526101009091041615156080840152600b84015460a0840152600c8401805482518185028101850190935280835260c090940193919290919060009084015b8282101561159b57600084815260209020604080516101808101909152600b84029091018054829060a082019083908290829061136990613cc7565b80601f016020809104026020016040519081016040528092919081815260200182805461139590613cc7565b80156113e25780601f106113b7576101008083540402835291602001916113e2565b820191906000526020600020905b8154815290600101906020018083116113c557829003601f168201915b50505050508152602001600182015481526020016002820154815260200160038201548152602001600482015481526020016005820154815260200160068201805461142d90613cc7565b80601f016020809104026020016040519081016040528092919081815260200182805461145990613cc7565b80156114a65780601f1061147b576101008083540402835291602001916114a6565b820191906000526020600020905b81548152906001019060200180831161148957829003601f168201915b5050505050815250508152602001600782015481526020016008820180546114cd90613cc7565b80601f01602080910402602001604051908101604052809291908181526020018280546114f990613cc7565b80156115465780601f1061151b57610100808354040283529160200191611546565b820191906000526020600020905b81548152906001019060200180831161152957829003601f168201915b5050509183525050600982015460209091019060ff16600b81111561156d5761156d613d33565b600b81111561157e5761157e613d33565b8152602001600a820154815250508152602001906001019061132d565b505050508152602001600d82018054806020026020016040519081016040528092919081815260200182805480156115fc57602002820191906000526020600020905b81546001600160a01b031681526001909101906020018083116115de575b50505050508152602001600e820180548060200260200160405190810160405280929190818152602001828054801561165e57602002820191906000526020600020905b81546001600160a01b03168152600190910190602001808311611640575b5050509183525050600f8201546020820152601082015460408201526011820154606082015260128201546080820152601382015460ff808216151560a084015261010082048116151560c084015260e090920191620100009091041660078111156116cc576116cc613d33565b60078111156116dd576116dd613d33565b90525092915050565b6006546001600160a01b031633146117115760405163048e2d4960e41b8152600401610952906138ff565b60009283526003602090815260408085206001600160a01b0390941685529281529183208054600181018255908452919092200155565b6006546001600160a01b031633146117735760405163048e2d4960e41b8152600401610952906138ff565b60009182526001602081815260408420600d0180549283018155845290922090910180546001600160a01b0319166001600160a01b03909216919091179055565b6006546000906001600160a01b031633146117e25760405163048e2d4960e41b8152600401610952906138ff565b6000858152600160205260409020600c018054429182918690811061180957611809613d49565b60009182526020808320600a600b9093020191909101929092558781526003825260408082206001600160a01b038916835283528082208783526002018352902084516109d792600190920191860190612dc6565b6006546001600160a01b031633146118895760405163048e2d4960e41b8152600401610952906138ff565b60008381526004602090815260408083206001600160a01b0386168452909152812060010180548392906118be908490613c81565b9091555050505050565b6006546001600160a01b031633146118f35760405163048e2d4960e41b8152600401610952906138ff565b6001600160a01b03821660009081526002602052604081208054839290610ce5908490613c99565b611923612f53565b61192b612f53565b6001600160a01b0383168082526000858152600360209081526040808320938352928152908290208054835181840281018401909452808452909183018282801561199557602002820191906000526020600020905b815481526020019060010190808311611981575b505050506020830182905250516000906001600160401b038111156119bc576119bc613d5f565b604051908082528060200260200182016040528015611a1257816020015b6119ff6040805160608101909152806000815260606020820152600060409091015290565b8152602001906001900390816119da5790505b50905060005b826020015151811015611be35760008681526003602090815260408083206001600160a01b0389168452825282209085015180516002909201929184908110611a6357611a63613d49565b6020026020010151815260200190815260200160002060000160009054906101000a900460ff16828281518110611a9c57611a9c613d49565b6020026020010151600001906004811115611ab957611ab9613d33565b90816004811115611acc57611acc613d33565b90525060008681526003602090815260408083206001600160a01b0389168452825282209085015180516002909201929184908110611b0d57611b0d613d49565b602002602001015181526020019081526020016000206001018054611b3190613cc7565b80601f0160208091040260200160405190810160405280929190818152602001828054611b5d90613cc7565b8015611baa5780601f10611b7f57610100808354040283529160200191611baa565b820191906000526020600020905b815481529060010190602001808311611b8d57829003601f168201915b5050505050828281518110611bc157611bc1613d49565b6020026020010151602001819052508080611bdb90613d02565b915050611a18565b5060408201529392505050565b6006546001600160a01b03163314611c1b5760405163048e2d4960e41b8152600401610952906138ff565b600091825260016020526040909120601301805460ff1916911515919091179055565b6006546001600160a01b03163314611c695760405163048e2d4960e41b8152600401610952906138ff565b60008481526004602081815260408084206001600160a01b038816855282528084208685526002019091529091208054839260ff19909116906001908490811115610df357610df3613d33565b6006546001600160a01b03163314611ce15760405163048e2d4960e41b8152600401610952906138ff565b600560008154611cf090613d02565b90915550565b6006546001600160a01b03163314611d215760405163048e2d4960e41b8152600401610952906138ff565b60009283526004602090815260408085206001600160a01b0390931685529181528184209284526002928301905290912001805460ff19166001179055565b611d68612d1c565b611d726000612d76565b565b6006546001600160a01b03163314611d9f5760405163048e2d4960e41b8152600401610952906138ff565b60008281526004602090815260408083206001600160a01b03851684529091528120600101805491611dd083613cb0565b91905055505050565b611de1612f53565b611de9612f53565b6001600160a01b03831680825260008581526004602090815260408083209383529281529082902080548351818402810184019094528084529091830182828015611e5357602002820191906000526020600020905b815481526020019060010190808311611e3f575b505050506020830182905250516000906001600160401b03811115611e7a57611e7a613d5f565b604051908082528060200260200182016040528015611ed057816020015b611ebd6040805160608101909152806000815260606020820152600060409091015290565b815260200190600190039081611e985790505b50905060005b826020015151811015611be35760008681526004602090815260408083206001600160a01b0389168452825282209085015180516002909201929184908110611f2157611f21613d49565b6020026020010151815260200190815260200160002060000160009054906101000a900460ff16828281518110611f5a57611f5a613d49565b6020026020010151600001906004811115611f7757611f77613d33565b90816004811115611f8a57611f8a613d33565b90525060008681526004602090815260408083206001600160a01b0389168452825282209085015180516002909201929184908110611fcb57611fcb613d49565b602002602001015181526020019081526020016000206001018054611fef90613cc7565b80601f016020809104026020016040519081016040528092919081815260200182805461201b90613cc7565b80156120685780601f1061203d57610100808354040283529160200191612068565b820191906000526020600020905b81548152906001019060200180831161204b57829003601f168201915b505050505082828151811061207f5761207f613d49565b602002602001015160200181905250808061209990613d02565b915050611ed6565b60008281526003602090815260408083206001600160a01b0387168452825280832084845260029081019092528220015460ff1680612111575060008381526004602090815260408083206001600160a01b038816845282528083208584526002908101909252909120015460ff165b1561211e57506001612122565b5060005b9392505050565b6006546001600160a01b031633146121545760405163048e2d4960e41b8152600401610952906138ff565b60008281526001602052604081206012018054839290610ce5908490613c81565b6000811561219e575060008281526001602052604090206011810154600f909101541115610d78565b50600082815260016020526040902060128101546010909101541115610d78565b6060600060608060008086156122405760008981526003602090815260408083206001600160a01b038c1684528252918290208054835181840281018401909452808452909183018282801561223457602002820191906000526020600020905b815481526020019060010190808311612220575b505050505093506122ad565b60008981526004602090815260408083206001600160a01b038c168452825291829020805483518184028101840190945280845290918301828280156122a557602002820191906000526020600020905b815481526020019060010190808311612291575b505050505093505b6122d26040805160608101909152806000815260606020820152600060409091015290565b60005b85518110156124eb5760008b81526003602090815260408083206001600160a01b038e168452909152812087516002909101919088908490811061231b5761231b613d49565b602002602001015181526020019081526020016000206040518060600160405290816000820160009054906101000a900460ff16600481111561236057612360613d33565b600481111561237157612371613d33565b815260200160018201805461238590613cc7565b80601f01602080910402602001604051908101604052809291908181526020018280546123b190613cc7565b80156123fe5780601f106123d3576101008083540402835291602001916123fe565b820191906000526020600020905b8154815290600101906020018083116123e157829003601f168201915b50505091835250506002919091015460ff161515602090910152915060008251600481111561242f5761242f613d33565b14156124d95785818151811061244757612447613d49565b602002602001015185848151811061246157612461613d49565b60209081029190910101528261247681613d02565b935050600160008c8152602001908152602001600020600c018682815181106124a1576124a1613d49565b6020026020010151815481106124b9576124b9613d49565b90600052602060002090600b020160070154846124d69190613c81565b93505b806124e381613d02565b9150506122d5565b509299919850909650505050505050565b600081815260016020908152604091829020600d0180548351818402810184019094528084526060939283018282801561255f57602002820191906000526020600020905b81546001600160a01b03168152600190910190602001808311612541575b50505050509050919050565b6006546001600160a01b031633146125965760405163048e2d4960e41b8152600401610952906138ff565b60009182526001602081815260408420600e0180549283018155845290922090910180546001600160a01b0319166001600160a01b03909216919091179055565b6006546001600160a01b031633146126025760405163048e2d4960e41b8152600401610952906138ff565b60009283526004602090815260408085206001600160a01b0390941685529281529183208054600181018255908452919092200155565b6006546001600160a01b031633146126645760405163048e2d4960e41b8152600401610952906138ff565b60008381526003602090815260408083206001600160a01b0386168452909152812060010180548392906118be908490613c81565b6006546000906001600160a01b031633146126c75760405163048e2d4960e41b8152600401610952906138ff565b600580549060006126d783613d02565b9091555050600554600090815260016020818152604090922080546001600160a01b0319166001600160a01b038616178155855191810191909155848201518051919261272c92600285019290910190612dc6565b5060408401518051612748916003840191602090910190612dc6565b50606084015160048201556080840151600582015560a0840151600682015560c08401518051612782916007840191602090910190612e4a565b5060e08401516008820155610100808501516009830155610160850151600b830155610120850151600a8301805461014088015115801590940261ff00199315159390931661ffff1990911617919091179055612840578360e00151600114806127f057508360e001516005145b156128195760138101805460ff191690556000600f82015561018084015151601082015561289b565b61018084015151600f8201819055601082015560138101805460ff1916600117905561289b565b8360e001516001148061285757508360e001516005145b1561287b576000600f8201556001601082015560138101805460ff1916905561289b565b6001600f82018190556010820181905560138201805460ff191690911790555b60138101805461ff00191661010017905560005b84610180015151811015612a1b57600085610180015182815181106128d6576128d6613d49565b602002602001015160600190600b8111156128f3576128f3613d33565b9081600b81111561290657612906613d33565b8152505081600c01856101800151828151811061292557612925613d49565b60209081029190910181015182546001810184556000938452928290208151805180519395600b029092019390928492612963928492910190612dc6565b50602082810151600183015560408301516002830155606083015160038301556080830151600483015560a0830151600583015560c083015180516129ae9260068501920190612dc6565b5050506020828101516007830155604083015180516129d39260088501920190612dc6565b50606082015160098201805460ff1916600183600b8111156129f7576129f7613d33565b0217905550608082015181600a015550508080612a1390613d02565b9150506128af565b50506005549392505050565b612a2f612d1c565b600680546001600160a01b0319166001600160a01b0392909216919091179055565b6000828152600160205260408120600c01805483908110612a7457612a74613d49565b60009182526020909120600b909102016009015460ff169392505050565b600081815260016020908152604091829020600e0180548351818402810184019094528084526060939283018282801561255f576020028201919060005260206000209081546001600160a01b031681526001909101906020018083116125415750505050509050919050565b6006546001600160a01b03163314612b2a5760405163048e2d4960e41b8152600401610952906138ff565b60009182526001602052604090912060130180549115156101000261ff0019909216919091179055565b6006546001600160a01b03163314612b7f5760405163048e2d4960e41b8152600401610952906138ff565b60008281526003602090815260408083206001600160a01b03851684529091528120600101805491611dd083613cb0565b6006546001600160a01b03163314612bdb5760405163048e2d4960e41b8152600401610952906138ff565b60009283526003602090815260408085206001600160a01b0390931685529181528184209284526002928301905290912001805460ff19166001179055565b6000828152600160205260408120600c01805483908110612c3d57612c3d613d49565b90600052602060002090600b020160070154905092915050565b612c5f612d1c565b6001600160a01b038116612cc45760405162461bcd60e51b815260206004820152602660248201527f4f776e61626c653a206e6577206f776e657220697320746865207a65726f206160448201526564647265737360d01b6064820152608401610952565b612ccd81612d76565b50565b6006546001600160a01b03163314612cfb5760405163048e2d4960e41b8152600401610952906138ff565b60008281526001602052604081206011018054839290610ce5908490613c81565b6000546001600160a01b03163314611d725760405162461bcd60e51b815260206004820181905260248201527f4f776e61626c653a2063616c6c6572206973206e6f7420746865206f776e65726044820152606401610952565b600080546001600160a01b038381166001600160a01b0319831681178455604051919092169283917f8be0079c531659141344cd1fd0a4f28419497f9722a3daafe3b4186f6b6457e09190a35050565b828054612dd290613cc7565b90600052602060002090601f016020900481019282612df45760008555612e3a565b82601f10612e0d57805160ff1916838001178555612e3a565b82800160010185558215612e3a579182015b82811115612e3a578251825591602001919060010190612e1f565b50612e46929150612f7d565b5090565b828054828255906000526020600020908101928215612e3a5791602002820182811115612e3a578251825591602001919060010190612e1f565b604051806102e0016040528060006001600160a01b03168152602001600081526020016060815260200160608152602001600081526020016000815260200160008152602001606081526020016000815260200160008152602001600015158152602001600015158152602001600081526020016060815260200160608152602001606081526020016000815260200160008152602001600081526020016000815260200160001515815260200160001515815260200160006007811115612f4e57612f4e613d33565b905290565b604051806060016040528060006001600160a01b0316815260200160608152602001606081525090565b5b80821115612e465760008155600101612f7e565b80356001600160a01b0381168114612fa957600080fd5b919050565b600082601f830112612fbf57600080fd5b6020612fd3612fce8435613c5e565b613c2e565b808435825282820191508285018684873560051b8801011115612ff557600080fd5b60005b8635811015613144576001600160401b03808335111561301757600080fd5b82358801601f1960a0828c038201121561303057600080fd5b613038613bc1565b888301358481111561304957600080fd5b830160e0818e038401121561305d57600080fd5b613065613be9565b9250898101358581111561307857600080fd5b6130868e8c838501016131dc565b84525060408101358a840152606081013560408401526080810135606084015260a0810135608084015260c081013560a084015260e0810135858111156130cc57600080fd5b6130da8e8c838501016131dc565b60c085015250509081526040820135888201526060820135908382111561310057600080fd5b61310e8c8a848601016131dc565b604082015261311f608084016131cd565b606082015260a092909201356080830152508552509284019290840190600101612ff8565b50909695505050505050565b600082601f83011261316157600080fd5b81356020613171612fce83613c5e565b80838252828201915082860187848660051b890101111561319157600080fd5b60005b858110156131b057813584529284019290840190600101613194565b5090979650505050505050565b80358015158114612fa957600080fd5b8035600c8110612fa957600080fd5b600082601f8301126131ed57600080fd5b81356001600160401b0381111561320657613206613d5f565b613219601f8201601f1916602001613c2e565b81815284602083860101111561322e57600080fd5b816020850160208301376000918101602001919091529392505050565b60006101a0828403121561325e57600080fd5b613266613c0b565b90508135815260208201356001600160401b038082111561328657600080fd5b613292858386016131dc565b602084015260408401359150808211156132ab57600080fd5b6132b7858386016131dc565b6040840152606084013560608401526080840135608084015260a084013560a084015260c08401359150808211156132ee57600080fd5b6132fa85838601613150565b60c084015260e08481013590840152610100808501359084015261012091506133248285016131bd565b8284015261014091506133388285016131bd565b82840152610160915081840135828401526101809150818401358181111561335f57600080fd5b61336b86828701612fae565b8385015250505092915050565b60006020828403121561338a57600080fd5b61212282612f92565b600080604083850312156133a657600080fd5b6133af83612f92565b946020939093013593505050565b6000806000606084860312156133d257600080fd5b6133db84612f92565b95602085013595506040909401359392505050565b6000806040838503121561340357600080fd5b82356001600160401b0381111561341957600080fd5b6134258582860161324b565b92505061343460208401612f92565b90509250929050565b60006020828403121561344f57600080fd5b5035919050565b6000806040838503121561346957600080fd5b8235915061343460208401612f92565b60008060006060848603121561348e57600080fd5b8335925061349e60208501612f92565b91506134ac604085016131bd565b90509250925092565b6000806000606084860312156134ca57600080fd5b833592506134da60208501612f92565b9150604084013590509250925092565b6000806000806080858703121561350057600080fd5b8435935061351060208601612f92565b92506040850135915060608501356005811061352b57600080fd5b939692955090935050565b6000806000806080858703121561354c57600080fd5b8435935061355c60208601612f92565b92506040850135915060608501356001600160401b0381111561357e57600080fd5b61358a878288016131dc565b91505092959194509250565b600080604083850312156135a957600080fd5b82359150613434602084016131bd565b600080604083850312156135cc57600080fd5b823591506020830135600881106135e257600080fd5b809150509250929050565b6000806040838503121561360057600080fd5b8235915060208301356001600160401b0381111561361d57600080fd5b6136298582860161324b565b9150509250929050565b6000806040838503121561364657600080fd5b50508035926020909101359150565b60008060006060848603121561366a57600080fd5b83359250602084013591506134ac60408501612f92565b60008060006060848603121561369657600080fd5b83359250602084013591506134ac604085016131cd565b600081518084526020808501945080840160005b838110156136e65781516001600160a01b0316875295820195908201906001016136c1565b509495945050505050565b600081518084526020808501808196508360051b8101915082860160005b858110156137ed578284038952815160a08151818752805160e080848a015261373c6101808a018361384e565b91508983015160c081818c01526040915081850151838c015260609250828501516101008c01526080808601516101208d0152868601516101408d0152818601519650609f198c8603016101608d0152613796858861384e565b96508c8801518d8d01528288015195508b8703838d01526137b7878761384e565b96508388015195506137cb848d018761382a565b968701519a90960199909952505050998601999450509084019060010161370f565b5091979650505050505050565b600081518084526020808501945080840160005b838110156136e65781518752958201959082019060010161380e565b600c811061383a5761383a613d33565b9052565b6008811061383a5761383a613d33565b6000815180845260005b8181101561387457602081850181015186830182015201613858565b81811115613886576000602083870101525b50601f01601f19169290920160200192915050565b60208152600061212260208301846136ad565b60208152600061212260208301846136f1565b6040815260006138d460408301856137fa565b90508260208301529392505050565b60208101610d78828461382a565b60208101610d78828461383e565b6020808252601590820152744572726f722041636365737320416464726573732160581b604082015260600190565b6000602080835260018060a01b03845116818401528084015160606040818187015261395d60808701846137fa565b81880151601f198883038101858a015281518084529295509086019186860190600581811b8801890160005b838110156139e257858a8303018552865180518481106139ab576139ab613d33565b8352808c01518c84018b90526139c38b85018261384e565b918a01511515938a0193909352968b0196948b01949150600101613989565b509c9b505050505050505050505050565b60208152613a0d6020820183516001600160a01b03169052565b60208201516040820152600060408301516102e0806060850152613a3561030085018361384e565b91506060850151601f1980868503016080870152613a53848361384e565b9350608087015160a087015260a087015160c087015260c087015160e087015260e08701519150610100818786030181880152613a9085846137fa565b9088015161012088810191909152880151610140808901919091528801519094509150610160613ac38188018415159052565b8701519150610180613ad88782018415159052565b808801519250506101a08281880152808801519250506101c0818786030181880152613b0485846136f1565b9450808801519250506101e0818786030181880152613b2385846136ad565b945080880151925050610200818786030181880152613b4285846136ad565b908801516102208881019190915288015161024080890191909152880151610260808901919091528801516102808089019190915288015190945091506102a09050613b918187018315159052565b86015190506102c0613ba68682018315159052565b8601519050613bb78583018261383e565b5090949350505050565b60405160a081016001600160401b0381118282101715613be357613be3613d5f565b60405290565b60405160e081016001600160401b0381118282101715613be357613be3613d5f565b6040516101a081016001600160401b0381118282101715613be357613be3613d5f565b604051601f8201601f191681016001600160401b0381118282101715613c5657613c56613d5f565b604052919050565b60006001600160401b03821115613c7757613c77613d5f565b5060051b60200190565b60008219821115613c9457613c94613d1d565b500190565b600082821015613cab57613cab613d1d565b500390565b600081613cbf57613cbf613d1d565b506000190190565b600181811c90821680613cdb57607f821691505b60208210811415613cfc57634e487b7160e01b600052602260045260246000fd5b50919050565b6000600019821415613d1657613d16613d1d565b5060010190565b634e487b7160e01b600052601160045260246000fd5b634e487b7160e01b600052602160045260246000fd5b634e487b7160e01b600052603260045260246000fd5b634e487b7160e01b600052604160045260246000fdfea2646970667358221220d1e319aa47f750e32469fe9aaa92a7c1a5b4c3313770bfa10e4474278cd31a0164736f6c63430008070033",
					"opcodes": "PUSH1 0x80 PUSH1 0x40 MSTORE CALLVALUE DUP1 ISZERO PUSH3 0x11 JUMPI PUSH1 0x0 DUP1 REVERT JUMPDEST POP PUSH3 0x1D CALLER PUSH3 0x23 JUMP JUMPDEST PUSH3 0x73 JUMP JUMPDEST PUSH1 0x0 DUP1 SLOAD PUSH1 0x1 PUSH1 0x1 PUSH1 0xA0 SHL SUB DUP4 DUP2 AND PUSH1 0x1 PUSH1 0x1 PUSH1 0xA0 SHL SUB NOT DUP4 AND DUP2 OR DUP5 SSTORE PUSH1 0x40 MLOAD SWAP2 SWAP1 SWAP3 AND SWAP3 DUP4 SWAP2 PUSH32 0x8BE0079C531659141344CD1FD0A4F28419497F9722A3DAAFE3B4186F6B6457E0 SWAP2 SWAP1 LOG3 POP POP JUMP JUMPDEST PUSH2 0x3DAB DUP1 PUSH3 0x83 PUSH1 0x0 CODECOPY PUSH1 0x0 RETURN INVALID PUSH1 0x80 PUSH1 0x40 MSTORE CALLVALUE DUP1 ISZERO PUSH2 0x10 JUMPI PUSH1 0x0 DUP1 REVERT JUMPDEST POP PUSH1 0x4 CALLDATASIZE LT PUSH2 0x35D JUMPI PUSH1 0x0 CALLDATALOAD PUSH1 0xE0 SHR DUP1 PUSH4 0x7C34EB85 GT PUSH2 0x1D3 JUMPI DUP1 PUSH4 0xA87D942C GT PUSH2 0x104 JUMPI DUP1 PUSH4 0xD2FED69C GT PUSH2 0xA2 JUMPI DUP1 PUSH4 0xF2FDE38B GT PUSH2 0x7C JUMPI DUP1 PUSH4 0xF2FDE38B EQ PUSH2 0x8A2 JUMPI DUP1 PUSH4 0xF8626EBB EQ PUSH2 0x8B5 JUMPI DUP1 PUSH4 0xFBE24700 EQ PUSH2 0x8D8 JUMPI DUP1 PUSH4 0xFFCCE776 EQ PUSH2 0x8EB JUMPI PUSH1 0x0 DUP1 REVERT JUMPDEST DUP1 PUSH4 0xD2FED69C EQ PUSH2 0x843 JUMPI DUP1 PUSH4 0xD3D7BC3B EQ PUSH2 0x866 JUMPI DUP1 PUSH4 0xE1CA7CA7 EQ PUSH2 0x88F JUMPI PUSH1 0x0 DUP1 REVERT JUMPDEST DUP1 PUSH4 0xB647EEC3 GT PUSH2 0xDE JUMPI DUP1 PUSH4 0xB647EEC3 EQ PUSH2 0x7F7 JUMPI DUP1 PUSH4 0xC061BB82 EQ PUSH2 0x80A JUMPI DUP1 PUSH4 0xC16DA060 EQ PUSH2 0x81D JUMPI DUP1 PUSH4 0xCE098054 EQ PUSH2 0x830 JUMPI PUSH1 0x0 DUP1 REVERT JUMPDEST DUP1 PUSH4 0xA87D942C EQ PUSH2 0x7BC JUMPI DUP1 PUSH4 0xAD5F7AB0 EQ PUSH2 0x7C4 JUMPI DUP1 PUSH4 0xAD607C72 EQ PUSH2 0x7D7 JUMPI PUSH1 0x0 DUP1 REVERT JUMPDEST DUP1 PUSH4 0x8DA5CB5B GT PUSH2 0x171 JUMPI DUP1 PUSH4 0x992D60F3 GT PUSH2 0x14B JUMPI DUP1 PUSH4 0x992D60F3 EQ PUSH2 0x770 JUMPI DUP1 PUSH4 0xA1E047F3 EQ PUSH2 0x783 JUMPI DUP1 PUSH4 0xA6089639 EQ PUSH2 0x796 JUMPI DUP1 PUSH4 0xA74DEB9B EQ PUSH2 0x7A9 JUMPI PUSH1 0x0 DUP1 REVERT JUMPDEST DUP1 PUSH4 0x8DA5CB5B EQ PUSH2 0x719 JUMPI DUP1 PUSH4 0x9722F099 EQ PUSH2 0x72A JUMPI DUP1 PUSH4 0x983A12A8 EQ PUSH2 0x750 JUMPI PUSH1 0x0 DUP1 REVERT JUMPDEST DUP1 PUSH4 0x869A7365 GT PUSH2 0x1AD JUMPI DUP1 PUSH4 0x869A7365 EQ PUSH2 0x699 JUMPI DUP1 PUSH4 0x87AF5D79 EQ PUSH2 0x6D2 JUMPI DUP1 PUSH4 0x8A9A9FF3 EQ PUSH2 0x6E5 JUMPI DUP1 PUSH4 0x8B3F3A6F EQ PUSH2 0x6F8 JUMPI PUSH1 0x0 DUP1 REVERT JUMPDEST DUP1 PUSH4 0x7C34EB85 EQ PUSH2 0x648 JUMPI DUP1 PUSH4 0x7C35BEB7 EQ PUSH2 0x673 JUMPI DUP1 PUSH4 0x7D88DADF EQ PUSH2 0x686 JUMPI PUSH1 0x0 DUP1 REVERT JUMPDEST DUP1 PUSH4 0x4C7360CE GT PUSH2 0x2AD JUMPI DUP1 PUSH4 0x6C431904 GT PUSH2 0x24B JUMPI DUP1 PUSH4 0x6E973982 GT PUSH2 0x225 JUMPI DUP1 PUSH4 0x6E973982 EQ PUSH2 0x5D4 JUMPI DUP1 PUSH4 0x715018A6 EQ PUSH2 0x5F7 JUMPI DUP1 PUSH4 0x790485F9 EQ PUSH2 0x5FF JUMPI DUP1 PUSH4 0x7B3F4717 EQ PUSH2 0x635 JUMPI PUSH1 0x0 DUP1 REVERT JUMPDEST DUP1 PUSH4 0x6C431904 EQ PUSH2 0x5A6 JUMPI DUP1 PUSH4 0x6CEFCE6E EQ PUSH2 0x5B9 JUMPI DUP1 PUSH4 0x6D8D1DAF EQ PUSH2 0x5C1 JUMPI PUSH1 0x0 DUP1 REVERT JUMPDEST DUP1 PUSH4 0x591B0E27 GT PUSH2 0x287 JUMPI DUP1 PUSH4 0x591B0E27 EQ PUSH2 0x50F JUMPI DUP1 PUSH4 0x5BF608B8 EQ PUSH2 0x532 JUMPI DUP1 PUSH4 0x5FED5EB2 EQ PUSH2 0x573 JUMPI DUP1 PUSH4 0x63E3CCAD EQ PUSH2 0x593 JUMPI PUSH1 0x0 DUP1 REVERT JUMPDEST DUP1 PUSH4 0x4C7360CE EQ PUSH2 0x4AE JUMPI DUP1 PUSH4 0x546677AA EQ PUSH2 0x4C1 JUMPI DUP1 PUSH4 0x57840DA6 EQ PUSH2 0x4FC JUMPI PUSH1 0x0 DUP1 REVERT JUMPDEST DUP1 PUSH4 0x1AF5FA16 GT PUSH2 0x31A JUMPI DUP1 PUSH4 0x25E78E70 GT PUSH2 0x2F4 JUMPI DUP1 PUSH4 0x25E78E70 EQ PUSH2 0x455 JUMPI DUP1 PUSH4 0x271FF03F EQ PUSH2 0x475 JUMPI DUP1 PUSH4 0x31D396CE EQ PUSH2 0x488 JUMPI DUP1 PUSH4 0x33E68DCD EQ PUSH2 0x49B JUMPI PUSH1 0x0 DUP1 REVERT JUMPDEST DUP1 PUSH4 0x1AF5FA16 EQ PUSH2 0x3F6 JUMPI DUP1 PUSH4 0x1FA2BF4C EQ PUSH2 0x409 JUMPI DUP1 PUSH4 0x21D90A27 EQ PUSH2 0x41C JUMPI PUSH1 0x0 DUP1 REVERT JUMPDEST DUP1 PUSH4 0x5C3F9C9 EQ PUSH2 0x362 JUMPI DUP1 PUSH4 0x12506F4D EQ PUSH2 0x388 JUMPI DUP1 PUSH4 0x172372C2 EQ PUSH2 0x3A8 JUMPI DUP1 PUSH4 0x17E925D7 EQ PUSH2 0x3BD JUMPI DUP1 PUSH4 0x193620E7 EQ PUSH2 0x3D0 JUMPI DUP1 PUSH4 0x19F17088 EQ PUSH2 0x3E3 JUMPI JUMPDEST PUSH1 0x0 DUP1 REVERT JUMPDEST PUSH2 0x375 PUSH2 0x370 CALLDATASIZE PUSH1 0x4 PUSH2 0x3536 JUMP JUMPDEST PUSH2 0x924 JUMP JUMPDEST PUSH1 0x40 MLOAD SWAP1 DUP2 MSTORE PUSH1 0x20 ADD JUMPDEST PUSH1 0x40 MLOAD DUP1 SWAP2 SUB SWAP1 RETURN JUMPDEST PUSH2 0x39B PUSH2 0x396 CALLDATASIZE PUSH1 0x4 PUSH2 0x343D JUMP JUMPDEST PUSH2 0x9E1 JUMP JUMPDEST PUSH1 0x40 MLOAD PUSH2 0x37F SWAP2 SWAP1 PUSH2 0x38AE JUMP JUMPDEST PUSH2 0x3BB PUSH2 0x3B6 CALLDATASIZE PUSH1 0x4 PUSH2 0x3393 JUMP JUMPDEST PUSH2 0xC92 JUMP JUMPDEST STOP JUMPDEST PUSH2 0x3BB PUSH2 0x3CB CALLDATASIZE PUSH1 0x4 PUSH2 0x35B9 JUMP JUMPDEST PUSH2 0xCEE JUMP JUMPDEST PUSH2 0x375 PUSH2 0x3DE CALLDATASIZE PUSH1 0x4 PUSH2 0x3456 JUMP JUMPDEST PUSH2 0xD54 JUMP JUMPDEST PUSH2 0x3BB PUSH2 0x3F1 CALLDATASIZE PUSH1 0x4 PUSH2 0x34EA JUMP JUMPDEST PUSH2 0xD7E JUMP JUMPDEST PUSH2 0x3BB PUSH2 0x404 CALLDATASIZE PUSH1 0x4 PUSH2 0x35ED JUMP JUMPDEST PUSH2 0xDFE JUMP JUMPDEST PUSH2 0x3BB PUSH2 0x417 CALLDATASIZE PUSH1 0x4 PUSH2 0x3681 JUMP JUMPDEST PUSH2 0x105A JUMP JUMPDEST PUSH2 0x375 PUSH2 0x42A CALLDATASIZE PUSH1 0x4 PUSH2 0x3456 JUMP JUMPDEST PUSH1 0x0 SWAP2 DUP3 MSTORE PUSH1 0x3 PUSH1 0x20 SWAP1 DUP2 MSTORE PUSH1 0x40 DUP1 DUP5 KECCAK256 PUSH1 0x1 PUSH1 0x1 PUSH1 0xA0 SHL SUB SWAP4 SWAP1 SWAP4 AND DUP5 MSTORE SWAP2 SWAP1 MSTORE SWAP1 KECCAK256 PUSH1 0x1 ADD SLOAD SWAP1 JUMP JUMPDEST PUSH2 0x468 PUSH2 0x463 CALLDATASIZE PUSH1 0x4 PUSH2 0x343D JUMP JUMPDEST PUSH2 0x10E7 JUMP JUMPDEST PUSH1 0x40 MLOAD PUSH2 0x37F SWAP2 SWAP1 PUSH2 0x39F3 JUMP JUMPDEST PUSH2 0x3BB PUSH2 0x483 CALLDATASIZE PUSH1 0x4 PUSH2 0x34B5 JUMP JUMPDEST PUSH2 0x16E6 JUMP JUMPDEST PUSH2 0x3BB PUSH2 0x496 CALLDATASIZE PUSH1 0x4 PUSH2 0x3456 JUMP JUMPDEST PUSH2 0x1748 JUMP JUMPDEST PUSH2 0x375 PUSH2 0x4A9 CALLDATASIZE PUSH1 0x4 PUSH2 0x3536 JUMP JUMPDEST PUSH2 0x17B4 JUMP JUMPDEST PUSH2 0x3BB PUSH2 0x4BC CALLDATASIZE PUSH1 0x4 PUSH2 0x34B5 JUMP JUMPDEST PUSH2 0x185E JUMP JUMPDEST PUSH2 0x4EC PUSH2 0x4CF CALLDATASIZE PUSH1 0x4 PUSH2 0x343D JUMP JUMPDEST PUSH1 0x0 SWAP1 DUP2 MSTORE PUSH1 0x1 PUSH1 0x20 MSTORE PUSH1 0x40 SWAP1 KECCAK256 PUSH1 0x13 ADD SLOAD PUSH2 0x100 SWAP1 DIV PUSH1 0xFF AND SWAP1 JUMP JUMPDEST PUSH1 0x40 MLOAD SWAP1 ISZERO ISZERO DUP2 MSTORE PUSH1 0x20 ADD PUSH2 0x37F JUMP JUMPDEST PUSH2 0x3BB PUSH2 0x50A CALLDATASIZE PUSH1 0x4 PUSH2 0x3393 JUMP JUMPDEST PUSH2 0x18C8 JUMP JUMPDEST PUSH2 0x375 PUSH2 0x51D CALLDATASIZE PUSH1 0x4 PUSH2 0x343D JUMP JUMPDEST PUSH1 0x0 SWAP1 DUP2 MSTORE PUSH1 0x1 PUSH1 0x20 MSTORE PUSH1 0x40 SWAP1 KECCAK256 PUSH1 0x8 ADD SLOAD SWAP1 JUMP JUMPDEST PUSH2 0x55B PUSH2 0x540 CALLDATASIZE PUSH1 0x4 PUSH2 0x343D JUMP JUMPDEST PUSH1 0x0 SWAP1 DUP2 MSTORE PUSH1 0x1 PUSH1 0x20 MSTORE PUSH1 0x40 SWAP1 KECCAK256 SLOAD PUSH1 0x1 PUSH1 0x1 PUSH1 0xA0 SHL SUB AND SWAP1 JUMP JUMPDEST PUSH1 0x40 MLOAD PUSH1 0x1 PUSH1 0x1 PUSH1 0xA0 SHL SUB SWAP1 SWAP2 AND DUP2 MSTORE PUSH1 0x20 ADD PUSH2 0x37F JUMP JUMPDEST PUSH2 0x586 PUSH2 0x581 CALLDATASIZE PUSH1 0x4 PUSH2 0x3456 JUMP JUMPDEST PUSH2 0x191B JUMP JUMPDEST PUSH1 0x40 MLOAD PUSH2 0x37F SWAP2 SWAP1 PUSH2 0x392E JUMP JUMPDEST PUSH2 0x3BB PUSH2 0x5A1 CALLDATASIZE PUSH1 0x4 PUSH2 0x3596 JUMP JUMPDEST PUSH2 0x1BF0 JUMP JUMPDEST PUSH2 0x3BB PUSH2 0x5B4 CALLDATASIZE PUSH1 0x4 PUSH2 0x34EA JUMP JUMPDEST PUSH2 0x1C3E JUMP JUMPDEST PUSH2 0x3BB PUSH2 0x1CB6 JUMP JUMPDEST PUSH2 0x3BB PUSH2 0x5CF CALLDATASIZE PUSH1 0x4 PUSH2 0x3655 JUMP JUMPDEST PUSH2 0x1CF6 JUMP JUMPDEST PUSH2 0x375 PUSH2 0x5E2 CALLDATASIZE PUSH1 0x4 PUSH2 0x343D JUMP JUMPDEST PUSH1 0x0 SWAP1 DUP2 MSTORE PUSH1 0x1 PUSH1 0x20 MSTORE PUSH1 0x40 SWAP1 KECCAK256 PUSH1 0xB ADD SLOAD SWAP1 JUMP JUMPDEST PUSH2 0x3BB PUSH2 0x1D60 JUMP JUMPDEST PUSH2 0x375 PUSH2 0x60D CALLDATASIZE PUSH1 0x4 PUSH2 0x3456 JUMP JUMPDEST PUSH1 0x0 SWAP2 DUP3 MSTORE PUSH1 0x4 PUSH1 0x20 SWAP1 DUP2 MSTORE PUSH1 0x40 DUP1 DUP5 KECCAK256 PUSH1 0x1 PUSH1 0x1 PUSH1 0xA0 SHL SUB SWAP4 SWAP1 SWAP4 AND DUP5 MSTORE SWAP2 SWAP1 MSTORE SWAP1 KECCAK256 SLOAD SWAP1 JUMP JUMPDEST PUSH2 0x3BB PUSH2 0x643 CALLDATASIZE PUSH1 0x4 PUSH2 0x3456 JUMP JUMPDEST PUSH2 0x1D74 JUMP JUMPDEST PUSH2 0x4EC PUSH2 0x656 CALLDATASIZE PUSH1 0x4 PUSH2 0x343D JUMP JUMPDEST PUSH1 0x0 SWAP1 DUP2 MSTORE PUSH1 0x1 PUSH1 0x20 MSTORE PUSH1 0x40 SWAP1 KECCAK256 PUSH1 0xA ADD SLOAD PUSH2 0x100 SWAP1 DIV PUSH1 0xFF AND SWAP1 JUMP JUMPDEST PUSH2 0x586 PUSH2 0x681 CALLDATASIZE PUSH1 0x4 PUSH2 0x3456 JUMP JUMPDEST PUSH2 0x1DD9 JUMP JUMPDEST PUSH2 0x4EC PUSH2 0x694 CALLDATASIZE PUSH1 0x4 PUSH2 0x33BD JUMP JUMPDEST PUSH2 0x20A1 JUMP JUMPDEST PUSH2 0x375 PUSH2 0x6A7 CALLDATASIZE PUSH1 0x4 PUSH2 0x3456 JUMP JUMPDEST PUSH1 0x0 SWAP2 DUP3 MSTORE PUSH1 0x4 PUSH1 0x20 SWAP1 DUP2 MSTORE PUSH1 0x40 DUP1 DUP5 KECCAK256 PUSH1 0x1 PUSH1 0x1 PUSH1 0xA0 SHL SUB SWAP4 SWAP1 SWAP4 AND DUP5 MSTORE SWAP2 SWAP1 MSTORE SWAP1 KECCAK256 PUSH1 0x1 ADD SLOAD SWAP1 JUMP JUMPDEST PUSH2 0x3BB PUSH2 0x6E0 CALLDATASIZE PUSH1 0x4 PUSH2 0x3633 JUMP JUMPDEST PUSH2 0x2129 JUMP JUMPDEST PUSH2 0x4EC PUSH2 0x6F3 CALLDATASIZE PUSH1 0x4 PUSH2 0x3596 JUMP JUMPDEST PUSH2 0x2175 JUMP JUMPDEST PUSH2 0x70B PUSH2 0x706 CALLDATASIZE PUSH1 0x4 PUSH2 0x3479 JUMP JUMPDEST PUSH2 0x21BF JUMP JUMPDEST PUSH1 0x40 MLOAD PUSH2 0x37F SWAP3 SWAP2 SWAP1 PUSH2 0x38C1 JUMP JUMPDEST PUSH1 0x0 SLOAD PUSH1 0x1 PUSH1 0x1 PUSH1 0xA0 SHL SUB AND PUSH2 0x55B JUMP JUMPDEST PUSH2 0x4EC PUSH2 0x738 CALLDATASIZE PUSH1 0x4 PUSH2 0x343D JUMP JUMPDEST PUSH1 0x0 SWAP1 DUP2 MSTORE PUSH1 0x1 PUSH1 0x20 MSTORE PUSH1 0x40 SWAP1 KECCAK256 PUSH1 0x13 ADD SLOAD PUSH1 0xFF AND SWAP1 JUMP JUMPDEST PUSH2 0x763 PUSH2 0x75E CALLDATASIZE PUSH1 0x4 PUSH2 0x343D JUMP JUMPDEST PUSH2 0x24FC JUMP JUMPDEST PUSH1 0x40 MLOAD PUSH2 0x37F SWAP2 SWAP1 PUSH2 0x389B JUMP JUMPDEST PUSH2 0x3BB PUSH2 0x77E CALLDATASIZE PUSH1 0x4 PUSH2 0x3456 JUMP JUMPDEST PUSH2 0x256B JUMP JUMPDEST PUSH2 0x3BB PUSH2 0x791 CALLDATASIZE PUSH1 0x4 PUSH2 0x34B5 JUMP JUMPDEST PUSH2 0x25D7 JUMP JUMPDEST PUSH2 0x3BB PUSH2 0x7A4 CALLDATASIZE PUSH1 0x4 PUSH2 0x34B5 JUMP JUMPDEST PUSH2 0x2639 JUMP JUMPDEST PUSH2 0x375 PUSH2 0x7B7 CALLDATASIZE PUSH1 0x4 PUSH2 0x33F0 JUMP JUMPDEST PUSH2 0x2699 JUMP JUMPDEST PUSH1 0x5 SLOAD PUSH2 0x375 JUMP JUMPDEST PUSH2 0x3BB PUSH2 0x7D2 CALLDATASIZE PUSH1 0x4 PUSH2 0x3378 JUMP JUMPDEST PUSH2 0x2A27 JUMP JUMPDEST PUSH2 0x7EA PUSH2 0x7E5 CALLDATASIZE PUSH1 0x4 PUSH2 0x3633 JUMP JUMPDEST PUSH2 0x2A51 JUMP JUMPDEST PUSH1 0x40 MLOAD PUSH2 0x37F SWAP2 SWAP1 PUSH2 0x38E3 JUMP JUMPDEST PUSH2 0x763 PUSH2 0x805 CALLDATASIZE PUSH1 0x4 PUSH2 0x343D JUMP JUMPDEST PUSH2 0x2A92 JUMP JUMPDEST PUSH2 0x3BB PUSH2 0x818 CALLDATASIZE PUSH1 0x4 PUSH2 0x3596 JUMP JUMPDEST PUSH2 0x2AFF JUMP JUMPDEST PUSH2 0x3BB PUSH2 0x82B CALLDATASIZE PUSH1 0x4 PUSH2 0x3456 JUMP JUMPDEST PUSH2 0x2B54 JUMP JUMPDEST PUSH2 0x3BB PUSH2 0x83E CALLDATASIZE PUSH1 0x4 PUSH2 0x3655 JUMP JUMPDEST PUSH2 0x2BB0 JUMP JUMPDEST PUSH2 0x375 PUSH2 0x851 CALLDATASIZE PUSH1 0x4 PUSH2 0x343D JUMP JUMPDEST PUSH1 0x0 SWAP1 DUP2 MSTORE PUSH1 0x1 PUSH1 0x20 MSTORE PUSH1 0x40 SWAP1 KECCAK256 PUSH1 0xD ADD SLOAD SWAP1 JUMP JUMPDEST PUSH2 0x375 PUSH2 0x874 CALLDATASIZE PUSH1 0x4 PUSH2 0x3378 JUMP JUMPDEST PUSH1 0x1 PUSH1 0x1 PUSH1 0xA0 SHL SUB AND PUSH1 0x0 SWAP1 DUP2 MSTORE PUSH1 0x2 PUSH1 0x20 MSTORE PUSH1 0x40 SWAP1 KECCAK256 SLOAD SWAP1 JUMP JUMPDEST PUSH2 0x375 PUSH2 0x89D CALLDATASIZE PUSH1 0x4 PUSH2 0x3633 JUMP JUMPDEST PUSH2 0x2C1A JUMP JUMPDEST PUSH2 0x3BB PUSH2 0x8B0 CALLDATASIZE PUSH1 0x4 PUSH2 0x3378 JUMP JUMPDEST PUSH2 0x2C57 JUMP JUMPDEST PUSH2 0x375 PUSH2 0x8C3 CALLDATASIZE PUSH1 0x4 PUSH2 0x343D JUMP JUMPDEST PUSH1 0x0 SWAP1 DUP2 MSTORE PUSH1 0x1 PUSH1 0x20 MSTORE PUSH1 0x40 SWAP1 KECCAK256 PUSH1 0xE ADD SLOAD SWAP1 JUMP JUMPDEST PUSH2 0x3BB PUSH2 0x8E6 CALLDATASIZE PUSH1 0x4 PUSH2 0x3633 JUMP JUMPDEST PUSH2 0x2CD0 JUMP JUMPDEST PUSH2 0x917 PUSH2 0x8F9 CALLDATASIZE PUSH1 0x4 PUSH2 0x343D JUMP JUMPDEST PUSH1 0x0 SWAP1 DUP2 MSTORE PUSH1 0x1 PUSH1 0x20 MSTORE PUSH1 0x40 SWAP1 KECCAK256 PUSH1 0x13 ADD SLOAD PUSH3 0x10000 SWAP1 DIV PUSH1 0xFF AND SWAP1 JUMP JUMPDEST PUSH1 0x40 MLOAD PUSH2 0x37F SWAP2 SWAP1 PUSH2 0x38F1 JUMP JUMPDEST PUSH1 0x6 SLOAD PUSH1 0x0 SWAP1 PUSH1 0x1 PUSH1 0x1 PUSH1 0xA0 SHL SUB AND CALLER EQ PUSH2 0x95B JUMPI PUSH1 0x40 MLOAD PUSH4 0x48E2D49 PUSH1 0xE4 SHL DUP2 MSTORE PUSH1 0x4 ADD PUSH2 0x952 SWAP1 PUSH2 0x38FF JUMP JUMPDEST PUSH1 0x40 MLOAD DUP1 SWAP2 SUB SWAP1 REVERT JUMPDEST PUSH1 0x0 DUP6 DUP2 MSTORE PUSH1 0x1 PUSH1 0x20 MSTORE PUSH1 0x40 SWAP1 KECCAK256 PUSH1 0xC ADD DUP1 SLOAD TIMESTAMP SWAP2 DUP3 SWAP2 DUP7 SWAP1 DUP2 LT PUSH2 0x982 JUMPI PUSH2 0x982 PUSH2 0x3D49 JUMP JUMPDEST PUSH1 0x0 SWAP2 DUP3 MSTORE PUSH1 0x20 DUP1 DUP4 KECCAK256 PUSH1 0xA PUSH1 0xB SWAP1 SWAP4 MUL ADD SWAP2 SWAP1 SWAP2 ADD SWAP3 SWAP1 SWAP3 SSTORE DUP8 DUP2 MSTORE PUSH1 0x4 DUP3 MSTORE PUSH1 0x40 DUP1 DUP3 KECCAK256 PUSH1 0x1 PUSH1 0x1 PUSH1 0xA0 SHL SUB DUP10 AND DUP4 MSTORE DUP4 MSTORE DUP1 DUP3 KECCAK256 DUP8 DUP4 MSTORE PUSH1 0x2 ADD DUP4 MSTORE SWAP1 KECCAK256 DUP5 MLOAD PUSH2 0x9D7 SWAP3 PUSH1 0x1 SWAP1 SWAP3 ADD SWAP2 DUP7 ADD SWAP1 PUSH2 0x2DC6 JUMP JUMPDEST POP SWAP6 SWAP5 POP POP POP POP POP JUMP JUMPDEST PUSH1 0x60 PUSH1 0x1 PUSH1 0x0 DUP4 DUP2 MSTORE PUSH1 0x20 ADD SWAP1 DUP2 MSTORE PUSH1 0x20 ADD PUSH1 0x0 KECCAK256 PUSH1 0xC ADD DUP1 SLOAD DUP1 PUSH1 0x20 MUL PUSH1 0x20 ADD PUSH1 0x40 MLOAD SWAP1 DUP2 ADD PUSH1 0x40 MSTORE DUP1 SWAP3 SWAP2 SWAP1 DUP2 DUP2 MSTORE PUSH1 0x20 ADD PUSH1 0x0 SWAP1 JUMPDEST DUP3 DUP3 LT ISZERO PUSH2 0xC87 JUMPI PUSH1 0x0 DUP5 DUP2 MSTORE PUSH1 0x20 SWAP1 KECCAK256 PUSH1 0x40 DUP1 MLOAD PUSH2 0x180 DUP2 ADD SWAP1 SWAP2 MSTORE PUSH1 0xB DUP5 MUL SWAP1 SWAP2 ADD DUP1 SLOAD DUP3 SWAP1 PUSH1 0xA0 DUP3 ADD SWAP1 DUP4 SWAP1 DUP3 SWAP1 DUP3 SWAP1 PUSH2 0xA55 SWAP1 PUSH2 0x3CC7 JUMP JUMPDEST DUP1 PUSH1 0x1F ADD PUSH1 0x20 DUP1 SWAP2 DIV MUL PUSH1 0x20 ADD PUSH1 0x40 MLOAD SWAP1 DUP2 ADD PUSH1 0x40 MSTORE DUP1 SWAP3 SWAP2 SWAP1 DUP2 DUP2 MSTORE PUSH1 0x20 ADD DUP3 DUP1 SLOAD PUSH2 0xA81 SWAP1 PUSH2 0x3CC7 JUMP JUMPDEST DUP1 ISZERO PUSH2 0xACE JUMPI DUP1 PUSH1 0x1F LT PUSH2 0xAA3 JUMPI PUSH2 0x100 DUP1 DUP4 SLOAD DIV MUL DUP4 MSTORE SWAP2 PUSH1 0x20 ADD SWAP2 PUSH2 0xACE JUMP JUMPDEST DUP3 ADD SWAP2 SWAP1 PUSH1 0x0 MSTORE PUSH1 0x20 PUSH1 0x0 KECCAK256 SWAP1 JUMPDEST DUP2 SLOAD DUP2 MSTORE SWAP1 PUSH1 0x1 ADD SWAP1 PUSH1 0x20 ADD DUP1 DUP4 GT PUSH2 0xAB1 JUMPI DUP3 SWAP1 SUB PUSH1 0x1F AND DUP3 ADD SWAP2 JUMPDEST POP POP POP POP POP DUP2 MSTORE PUSH1 0x20 ADD PUSH1 0x1 DUP3 ADD SLOAD DUP2 MSTORE PUSH1 0x20 ADD PUSH1 0x2 DUP3 ADD SLOAD DUP2 MSTORE PUSH1 0x20 ADD PUSH1 0x3 DUP3 ADD SLOAD DUP2 MSTORE PUSH1 0x20 ADD PUSH1 0x4 DUP3 ADD SLOAD DUP2 MSTORE PUSH1 0x20 ADD PUSH1 0x5 DUP3 ADD SLOAD DUP2 MSTORE PUSH1 0x20 ADD PUSH1 0x6 DUP3 ADD DUP1 SLOAD PUSH2 0xB19 SWAP1 PUSH2 0x3CC7 JUMP JUMPDEST DUP1 PUSH1 0x1F ADD PUSH1 0x20 DUP1 SWAP2 DIV MUL PUSH1 0x20 ADD PUSH1 0x40 MLOAD SWAP1 DUP2 ADD PUSH1 0x40 MSTORE DUP1 SWAP3 SWAP2 SWAP1 DUP2 DUP2 MSTORE PUSH1 0x20 ADD DUP3 DUP1 SLOAD PUSH2 0xB45 SWAP1 PUSH2 0x3CC7 JUMP JUMPDEST DUP1 ISZERO PUSH2 0xB92 JUMPI DUP1 PUSH1 0x1F LT PUSH2 0xB67 JUMPI PUSH2 0x100 DUP1 DUP4 SLOAD DIV MUL DUP4 MSTORE SWAP2 PUSH1 0x20 ADD SWAP2 PUSH2 0xB92 JUMP JUMPDEST DUP3 ADD SWAP2 SWAP1 PUSH1 0x0 MSTORE PUSH1 0x20 PUSH1 0x0 KECCAK256 SWAP1 JUMPDEST DUP2 SLOAD DUP2 MSTORE SWAP1 PUSH1 0x1 ADD SWAP1 PUSH1 0x20 ADD DUP1 DUP4 GT PUSH2 0xB75 JUMPI DUP3 SWAP1 SUB PUSH1 0x1F AND DUP3 ADD SWAP2 JUMPDEST POP POP POP POP POP DUP2 MSTORE POP POP DUP2 MSTORE PUSH1 0x20 ADD PUSH1 0x7 DUP3 ADD SLOAD DUP2 MSTORE PUSH1 0x20 ADD PUSH1 0x8 DUP3 ADD DUP1 SLOAD PUSH2 0xBB9 SWAP1 PUSH2 0x3CC7 JUMP JUMPDEST DUP1 PUSH1 0x1F ADD PUSH1 0x20 DUP1 SWAP2 DIV MUL PUSH1 0x20 ADD PUSH1 0x40 MLOAD SWAP1 DUP2 ADD PUSH1 0x40 MSTORE DUP1 SWAP3 SWAP2 SWAP1 DUP2 DUP2 MSTORE PUSH1 0x20 ADD DUP3 DUP1 SLOAD PUSH2 0xBE5 SWAP1 PUSH2 0x3CC7 JUMP JUMPDEST DUP1 ISZERO PUSH2 0xC32 JUMPI DUP1 PUSH1 0x1F LT PUSH2 0xC07 JUMPI PUSH2 0x100 DUP1 DUP4 SLOAD DIV MUL DUP4 MSTORE SWAP2 PUSH1 0x20 ADD SWAP2 PUSH2 0xC32 JUMP JUMPDEST DUP3 ADD SWAP2 SWAP1 PUSH1 0x0 MSTORE PUSH1 0x20 PUSH1 0x0 KECCAK256 SWAP1 JUMPDEST DUP2 SLOAD DUP2 MSTORE SWAP1 PUSH1 0x1 ADD SWAP1 PUSH1 0x20 ADD DUP1 DUP4 GT PUSH2 0xC15 JUMPI DUP3 SWAP1 SUB PUSH1 0x1F AND DUP3 ADD SWAP2 JUMPDEST POP POP POP SWAP2 DUP4 MSTORE POP POP PUSH1 0x9 DUP3 ADD SLOAD PUSH1 0x20 SWAP1 SWAP2 ADD SWAP1 PUSH1 0xFF AND PUSH1 0xB DUP2 GT ISZERO PUSH2 0xC59 JUMPI PUSH2 0xC59 PUSH2 0x3D33 JUMP JUMPDEST PUSH1 0xB DUP2 GT ISZERO PUSH2 0xC6A JUMPI PUSH2 0xC6A PUSH2 0x3D33 JUMP JUMPDEST DUP2 MSTORE PUSH1 0x20 ADD PUSH1 0xA DUP3 ADD SLOAD DUP2 MSTORE POP POP DUP2 MSTORE PUSH1 0x20 ADD SWAP1 PUSH1 0x1 ADD SWAP1 PUSH2 0xA19 JUMP JUMPDEST POP POP POP POP SWAP1 POP SWAP2 SWAP1 POP JUMP JUMPDEST PUSH1 0x6 SLOAD PUSH1 0x1 PUSH1 0x1 PUSH1 0xA0 SHL SUB AND CALLER EQ PUSH2 0xCBD JUMPI PUSH1 0x40 MLOAD PUSH4 0x48E2D49 PUSH1 0xE4 SHL DUP2 MSTORE PUSH1 0x4 ADD PUSH2 0x952 SWAP1 PUSH2 0x38FF JUMP JUMPDEST PUSH1 0x1 PUSH1 0x1 PUSH1 0xA0 SHL SUB DUP3 AND PUSH1 0x0 SWAP1 DUP2 MSTORE PUSH1 0x2 PUSH1 0x20 MSTORE PUSH1 0x40 DUP2 KECCAK256 DUP1 SLOAD DUP4 SWAP3 SWAP1 PUSH2 0xCE5 SWAP1 DUP5 SWAP1 PUSH2 0x3C81 JUMP JUMPDEST SWAP1 SWAP2 SSTORE POP POP POP POP JUMP JUMPDEST PUSH1 0x6 SLOAD PUSH1 0x1 PUSH1 0x1 PUSH1 0xA0 SHL SUB AND CALLER EQ PUSH2 0xD19 JUMPI PUSH1 0x40 MLOAD PUSH4 0x48E2D49 PUSH1 0xE4 SHL DUP2 MSTORE PUSH1 0x4 ADD PUSH2 0x952 SWAP1 PUSH2 0x38FF JUMP JUMPDEST PUSH1 0x0 DUP3 DUP2 MSTORE PUSH1 0x1 PUSH1 0x20 MSTORE PUSH1 0x40 SWAP1 KECCAK256 PUSH1 0x13 ADD DUP1 SLOAD DUP3 SWAP2 SWAP1 PUSH3 0xFF0000 NOT AND PUSH3 0x10000 DUP4 PUSH1 0x7 DUP2 GT ISZERO PUSH2 0xD4B JUMPI PUSH2 0xD4B PUSH2 0x3D33 JUMP JUMPDEST MUL OR SWAP1 SSTORE POP POP POP JUMP JUMPDEST PUSH1 0x0 DUP3 DUP2 MSTORE PUSH1 0x3 PUSH1 0x20 SWAP1 DUP2 MSTORE PUSH1 0x40 DUP1 DUP4 KECCAK256 PUSH1 0x1 PUSH1 0x1 PUSH1 0xA0 SHL SUB DUP6 AND DUP5 MSTORE SWAP1 SWAP2 MSTORE SWAP1 KECCAK256 SLOAD JUMPDEST SWAP3 SWAP2 POP POP JUMP JUMPDEST PUSH1 0x6 SLOAD PUSH1 0x1 PUSH1 0x1 PUSH1 0xA0 SHL SUB AND CALLER EQ PUSH2 0xDA9 JUMPI PUSH1 0x40 MLOAD PUSH4 0x48E2D49 PUSH1 0xE4 SHL DUP2 MSTORE PUSH1 0x4 ADD PUSH2 0x952 SWAP1 PUSH2 0x38FF JUMP JUMPDEST PUSH1 0x0 DUP5 DUP2 MSTORE PUSH1 0x3 PUSH1 0x20 SWAP1 DUP2 MSTORE PUSH1 0x40 DUP1 DUP4 KECCAK256 PUSH1 0x1 PUSH1 0x1 PUSH1 0xA0 SHL SUB DUP8 AND DUP5 MSTORE DUP3 MSTORE DUP1 DUP4 KECCAK256 DUP6 DUP5 MSTORE PUSH1 0x2 ADD SWAP1 SWAP2 MSTORE SWAP1 KECCAK256 DUP1 SLOAD DUP3 SWAP2 SWAP1 PUSH1 0xFF NOT AND PUSH1 0x1 DUP4 PUSH1 0x4 DUP2 GT ISZERO PUSH2 0xDF3 JUMPI PUSH2 0xDF3 PUSH2 0x3D33 JUMP JUMPDEST MUL OR SWAP1 SSTORE POP POP POP POP POP JUMP JUMPDEST PUSH1 0x6 SLOAD PUSH1 0x1 PUSH1 0x1 PUSH1 0xA0 SHL SUB AND CALLER EQ PUSH2 0xE29 JUMPI PUSH1 0x40 MLOAD PUSH4 0x48E2D49 PUSH1 0xE4 SHL DUP2 MSTORE PUSH1 0x4 ADD PUSH2 0x952 SWAP1 PUSH2 0x38FF JUMP JUMPDEST PUSH1 0x0 DUP3 DUP2 MSTORE PUSH1 0x1 PUSH1 0x20 DUP2 DUP2 MSTORE PUSH1 0x40 SWAP1 SWAP3 KECCAK256 DUP4 MLOAD SWAP2 DUP2 ADD SWAP2 SWAP1 SWAP2 SSTORE DUP3 DUP3 ADD MLOAD DUP1 MLOAD SWAP2 SWAP3 PUSH2 0xE5D SWAP3 PUSH1 0x2 DUP6 ADD SWAP3 SWAP1 SWAP2 ADD SWAP1 PUSH2 0x2DC6 JUMP JUMPDEST POP PUSH1 0x40 DUP3 ADD MLOAD DUP1 MLOAD PUSH2 0xE79 SWAP2 PUSH1 0x3 DUP5 ADD SWAP2 PUSH1 0x20 SWAP1 SWAP2 ADD SWAP1 PUSH2 0x2DC6 JUMP JUMPDEST POP PUSH1 0x60 DUP3 ADD MLOAD PUSH1 0x4 DUP3 ADD SSTORE PUSH1 0x80 DUP3 ADD MLOAD PUSH1 0x5 DUP3 ADD SSTORE PUSH1 0xA0 DUP3 ADD MLOAD PUSH1 0x6 DUP3 ADD SSTORE PUSH1 0xC0 DUP3 ADD MLOAD DUP1 MLOAD PUSH2 0xEB3 SWAP2 PUSH1 0x7 DUP5 ADD SWAP2 PUSH1 0x20 SWAP1 SWAP2 ADD SWAP1 PUSH2 0x2E4A JUMP JUMPDEST POP PUSH1 0xE0 DUP3 ADD MLOAD PUSH1 0x8 DUP3 ADD SSTORE PUSH2 0x100 DUP1 DUP4 ADD MLOAD PUSH1 0x9 DUP4 ADD SSTORE PUSH2 0x160 DUP4 ADD MLOAD PUSH1 0xB DUP4 ADD SSTORE PUSH2 0x120 DUP4 ADD MLOAD PUSH1 0xA DUP4 ADD DUP1 SLOAD PUSH2 0x140 DUP7 ADD MLOAD ISZERO DUP1 ISZERO SWAP1 SWAP5 MUL PUSH2 0xFF00 NOT SWAP4 ISZERO ISZERO SWAP4 SWAP1 SWAP4 AND PUSH2 0xFFFF NOT SWAP1 SWAP2 AND OR SWAP2 SWAP1 SWAP2 OR SWAP1 SSTORE PUSH2 0xF1B JUMPI PUSH2 0x180 DUP3 ADD MLOAD MLOAD PUSH1 0xF DUP3 ADD SSTORE PUSH2 0xF23 JUMP JUMPDEST PUSH1 0x1 PUSH1 0xF DUP3 ADD SSTORE JUMPDEST PUSH1 0x13 DUP2 ADD DUP1 SLOAD PUSH1 0xFF NOT AND PUSH1 0x1 OR SWAP1 SSTORE PUSH1 0x0 JUMPDEST DUP3 PUSH2 0x180 ADD MLOAD MLOAD DUP2 LT ISZERO PUSH2 0x1054 JUMPI DUP2 PUSH1 0xC ADD DUP4 PUSH2 0x180 ADD MLOAD DUP3 DUP2 MLOAD DUP2 LT PUSH2 0xF5E JUMPI PUSH2 0xF5E PUSH2 0x3D49 JUMP JUMPDEST PUSH1 0x20 SWAP1 DUP2 MUL SWAP2 SWAP1 SWAP2 ADD DUP2 ADD MLOAD DUP3 SLOAD PUSH1 0x1 DUP2 ADD DUP5 SSTORE PUSH1 0x0 SWAP4 DUP5 MSTORE SWAP3 DUP3 SWAP1 KECCAK256 DUP2 MLOAD DUP1 MLOAD DUP1 MLOAD SWAP4 SWAP6 PUSH1 0xB MUL SWAP1 SWAP3 ADD SWAP4 SWAP1 SWAP3 DUP5 SWAP3 PUSH2 0xF9C SWAP3 DUP5 SWAP3 SWAP2 ADD SWAP1 PUSH2 0x2DC6 JUMP JUMPDEST POP PUSH1 0x20 DUP3 DUP2 ADD MLOAD PUSH1 0x1 DUP4 ADD SSTORE PUSH1 0x40 DUP4 ADD MLOAD PUSH1 0x2 DUP4 ADD SSTORE PUSH1 0x60 DUP4 ADD MLOAD PUSH1 0x3 DUP4 ADD SSTORE PUSH1 0x80 DUP4 ADD MLOAD PUSH1 0x4 DUP4 ADD SSTORE PUSH1 0xA0 DUP4 ADD MLOAD PUSH1 0x5 DUP4 ADD SSTORE PUSH1 0xC0 DUP4 ADD MLOAD DUP1 MLOAD PUSH2 0xFE7 SWAP3 PUSH1 0x6 DUP6 ADD SWAP3 ADD SWAP1 PUSH2 0x2DC6 JUMP JUMPDEST POP POP POP PUSH1 0x20 DUP3 DUP2 ADD MLOAD PUSH1 0x7 DUP4 ADD SSTORE PUSH1 0x40 DUP4 ADD MLOAD DUP1 MLOAD PUSH2 0x100C SWAP3 PUSH1 0x8 DUP6 ADD SWAP3 ADD SWAP1 PUSH2 0x2DC6 JUMP JUMPDEST POP PUSH1 0x60 DUP3 ADD MLOAD PUSH1 0x9 DUP3 ADD DUP1 SLOAD PUSH1 0xFF NOT AND PUSH1 0x1 DUP4 PUSH1 0xB DUP2 GT ISZERO PUSH2 0x1030 JUMPI PUSH2 0x1030 PUSH2 0x3D33 JUMP JUMPDEST MUL OR SWAP1 SSTORE POP PUSH1 0x80 DUP3 ADD MLOAD DUP2 PUSH1 0xA ADD SSTORE POP POP DUP1 DUP1 PUSH2 0x104C SWAP1 PUSH2 0x3D02 JUMP JUMPDEST SWAP2 POP POP PUSH2 0xF35 JUMP JUMPDEST POP POP POP POP JUMP JUMPDEST PUSH1 0x6 SLOAD PUSH1 0x1 PUSH1 0x1 PUSH1 0xA0 SHL SUB AND CALLER EQ PUSH2 0x1085 JUMPI PUSH1 0x40 MLOAD PUSH4 0x48E2D49 PUSH1 0xE4 SHL DUP2 MSTORE PUSH1 0x4 ADD PUSH2 0x952 SWAP1 PUSH2 0x38FF JUMP JUMPDEST PUSH1 0x0 DUP4 DUP2 MSTORE PUSH1 0x1 PUSH1 0x20 MSTORE PUSH1 0x40 SWAP1 KECCAK256 PUSH1 0xC ADD DUP1 SLOAD DUP3 SWAP2 SWAP1 DUP5 SWAP1 DUP2 LT PUSH2 0x10AB JUMPI PUSH2 0x10AB PUSH2 0x3D49 JUMP JUMPDEST SWAP1 PUSH1 0x0 MSTORE PUSH1 0x20 PUSH1 0x0 KECCAK256 SWAP1 PUSH1 0xB MUL ADD PUSH1 0x9 ADD PUSH1 0x0 PUSH2 0x100 EXP DUP2 SLOAD DUP2 PUSH1 0xFF MUL NOT AND SWAP1 DUP4 PUSH1 0xB DUP2 GT ISZERO PUSH2 0x10DD JUMPI PUSH2 0x10DD PUSH2 0x3D33 JUMP JUMPDEST MUL OR SWAP1 SSTORE POP POP POP POP JUMP JUMPDEST PUSH2 0x10EF PUSH2 0x2E84 JUMP JUMPDEST PUSH1 0x0 DUP3 DUP2 MSTORE PUSH1 0x1 PUSH1 0x20 DUP2 DUP2 MSTORE PUSH1 0x40 SWAP3 DUP4 SWAP1 KECCAK256 DUP4 MLOAD PUSH2 0x2E0 DUP2 ADD DUP6 MSTORE DUP2 SLOAD PUSH1 0x1 PUSH1 0x1 PUSH1 0xA0 SHL SUB AND DUP2 MSTORE SWAP3 DUP2 ADD SLOAD SWAP2 DUP4 ADD SWAP2 SWAP1 SWAP2 MSTORE PUSH1 0x2 DUP2 ADD DUP1 SLOAD SWAP3 SWAP4 SWAP2 SWAP3 SWAP2 DUP5 ADD SWAP2 PUSH2 0x1139 SWAP1 PUSH2 0x3CC7 JUMP JUMPDEST DUP1 PUSH1 0x1F ADD PUSH1 0x20 DUP1 SWAP2 DIV MUL PUSH1 0x20 ADD PUSH1 0x40 MLOAD SWAP1 DUP2 ADD PUSH1 0x40 MSTORE DUP1 SWAP3 SWAP2 SWAP1 DUP2 DUP2 MSTORE PUSH1 0x20 ADD DUP3 DUP1 SLOAD PUSH2 0x1165 SWAP1 PUSH2 0x3CC7 JUMP JUMPDEST DUP1 ISZERO PUSH2 0x11B2 JUMPI DUP1 PUSH1 0x1F LT PUSH2 0x1187 JUMPI PUSH2 0x100 DUP1 DUP4 SLOAD DIV MUL DUP4 MSTORE SWAP2 PUSH1 0x20 ADD SWAP2 PUSH2 0x11B2 JUMP JUMPDEST DUP3 ADD SWAP2 SWAP1 PUSH1 0x0 MSTORE PUSH1 0x20 PUSH1 0x0 KECCAK256 SWAP1 JUMPDEST DUP2 SLOAD DUP2 MSTORE SWAP1 PUSH1 0x1 ADD SWAP1 PUSH1 0x20 ADD DUP1 DUP4 GT PUSH2 0x1195 JUMPI DUP3 SWAP1 SUB PUSH1 0x1F AND DUP3 ADD SWAP2 JUMPDEST POP POP POP POP POP DUP2 MSTORE PUSH1 0x20 ADD PUSH1 0x3 DUP3 ADD DUP1 SLOAD PUSH2 0x11CB SWAP1 PUSH2 0x3CC7 JUMP JUMPDEST DUP1 PUSH1 0x1F ADD PUSH1 0x20 DUP1 SWAP2 DIV MUL PUSH1 0x20 ADD PUSH1 0x40 MLOAD SWAP1 DUP2 ADD PUSH1 0x40 MSTORE DUP1 SWAP3 SWAP2 SWAP1 DUP2 DUP2 MSTORE PUSH1 0x20 ADD DUP3 DUP1 SLOAD PUSH2 0x11F7 SWAP1 PUSH2 0x3CC7 JUMP JUMPDEST DUP1 ISZERO PUSH2 0x1244 JUMPI DUP1 PUSH1 0x1F LT PUSH2 0x1219 JUMPI PUSH2 0x100 DUP1 DUP4 SLOAD DIV MUL DUP4 MSTORE SWAP2 PUSH1 0x20 ADD SWAP2 PUSH2 0x1244 JUMP JUMPDEST DUP3 ADD SWAP2 SWAP1 PUSH1 0x0 MSTORE PUSH1 0x20 PUSH1 0x0 KECCAK256 SWAP1 JUMPDEST DUP2 SLOAD DUP2 MSTORE SWAP1 PUSH1 0x1 ADD SWAP1 PUSH1 0x20 ADD DUP1 DUP4 GT PUSH2 0x1227 JUMPI DUP3 SWAP1 SUB PUSH1 0x1F AND DUP3 ADD SWAP2 JUMPDEST POP POP POP POP POP DUP2 MSTORE PUSH1 0x20 ADD PUSH1 0x4 DUP3 ADD SLOAD DUP2 MSTORE PUSH1 0x20 ADD PUSH1 0x5 DUP3 ADD SLOAD DUP2 MSTORE PUSH1 0x20 ADD PUSH1 0x6 DUP3 ADD SLOAD DUP2 MSTORE PUSH1 0x20 ADD PUSH1 0x7 DUP3 ADD DUP1 SLOAD DUP1 PUSH1 0x20 MUL PUSH1 0x20 ADD PUSH1 0x40 MLOAD SWAP1 DUP2 ADD PUSH1 0x40 MSTORE DUP1 SWAP3 SWAP2 SWAP1 DUP2 DUP2 MSTORE PUSH1 0x20 ADD DUP3 DUP1 SLOAD DUP1 ISZERO PUSH2 0x12BA JUMPI PUSH1 0x20 MUL DUP3 ADD SWAP2 SWAP1 PUSH1 0x0 MSTORE PUSH1 0x20 PUSH1 0x0 KECCAK256 SWAP1 JUMPDEST DUP2 SLOAD DUP2 MSTORE PUSH1 0x20 ADD SWAP1 PUSH1 0x1 ADD SWAP1 DUP1 DUP4 GT PUSH2 0x12A6 JUMPI JUMPDEST POP POP POP SWAP2 DUP4 MSTORE POP POP PUSH1 0x8 DUP3 ADD SLOAD PUSH1 0x20 DUP1 DUP4 ADD SWAP2 SWAP1 SWAP2 MSTORE PUSH1 0x9 DUP4 ADD SLOAD PUSH1 0x40 DUP1 DUP5 ADD SWAP2 SWAP1 SWAP2 MSTORE PUSH1 0xA DUP5 ADD SLOAD PUSH1 0xFF DUP1 DUP3 AND ISZERO ISZERO PUSH1 0x60 DUP7 ADD MSTORE PUSH2 0x100 SWAP1 SWAP2 DIV AND ISZERO ISZERO PUSH1 0x80 DUP5 ADD MSTORE PUSH1 0xB DUP5 ADD SLOAD PUSH1 0xA0 DUP5 ADD MSTORE PUSH1 0xC DUP5 ADD DUP1 SLOAD DUP3 MLOAD DUP2 DUP6 MUL DUP2 ADD DUP6 ADD SWAP1 SWAP4 MSTORE DUP1 DUP4 MSTORE PUSH1 0xC0 SWAP1 SWAP5 ADD SWAP4 SWAP2 SWAP3 SWAP1 SWAP2 SWAP1 PUSH1 0x0 SWAP1 DUP5 ADD JUMPDEST DUP3 DUP3 LT ISZERO PUSH2 0x159B JUMPI PUSH1 0x0 DUP5 DUP2 MSTORE PUSH1 0x20 SWAP1 KECCAK256 PUSH1 0x40 DUP1 MLOAD PUSH2 0x180 DUP2 ADD SWAP1 SWAP2 MSTORE PUSH1 0xB DUP5 MUL SWAP1 SWAP2 ADD DUP1 SLOAD DUP3 SWAP1 PUSH1 0xA0 DUP3 ADD SWAP1 DUP4 SWAP1 DUP3 SWAP1 DUP3 SWAP1 PUSH2 0x1369 SWAP1 PUSH2 0x3CC7 JUMP JUMPDEST DUP1 PUSH1 0x1F ADD PUSH1 0x20 DUP1 SWAP2 DIV MUL PUSH1 0x20 ADD PUSH1 0x40 MLOAD SWAP1 DUP2 ADD PUSH1 0x40 MSTORE DUP1 SWAP3 SWAP2 SWAP1 DUP2 DUP2 MSTORE PUSH1 0x20 ADD DUP3 DUP1 SLOAD PUSH2 0x1395 SWAP1 PUSH2 0x3CC7 JUMP JUMPDEST DUP1 ISZERO PUSH2 0x13E2 JUMPI DUP1 PUSH1 0x1F LT PUSH2 0x13B7 JUMPI PUSH2 0x100 DUP1 DUP4 SLOAD DIV MUL DUP4 MSTORE SWAP2 PUSH1 0x20 ADD SWAP2 PUSH2 0x13E2 JUMP JUMPDEST DUP3 ADD SWAP2 SWAP1 PUSH1 0x0 MSTORE PUSH1 0x20 PUSH1 0x0 KECCAK256 SWAP1 JUMPDEST DUP2 SLOAD DUP2 MSTORE SWAP1 PUSH1 0x1 ADD SWAP1 PUSH1 0x20 ADD DUP1 DUP4 GT PUSH2 0x13C5 JUMPI DUP3 SWAP1 SUB PUSH1 0x1F AND DUP3 ADD SWAP2 JUMPDEST POP POP POP POP POP DUP2 MSTORE PUSH1 0x20 ADD PUSH1 0x1 DUP3 ADD SLOAD DUP2 MSTORE PUSH1 0x20 ADD PUSH1 0x2 DUP3 ADD SLOAD DUP2 MSTORE PUSH1 0x20 ADD PUSH1 0x3 DUP3 ADD SLOAD DUP2 MSTORE PUSH1 0x20 ADD PUSH1 0x4 DUP3 ADD SLOAD DUP2 MSTORE PUSH1 0x20 ADD PUSH1 0x5 DUP3 ADD SLOAD DUP2 MSTORE PUSH1 0x20 ADD PUSH1 0x6 DUP3 ADD DUP1 SLOAD PUSH2 0x142D SWAP1 PUSH2 0x3CC7 JUMP JUMPDEST DUP1 PUSH1 0x1F ADD PUSH1 0x20 DUP1 SWAP2 DIV MUL PUSH1 0x20 ADD PUSH1 0x40 MLOAD SWAP1 DUP2 ADD PUSH1 0x40 MSTORE DUP1 SWAP3 SWAP2 SWAP1 DUP2 DUP2 MSTORE PUSH1 0x20 ADD DUP3 DUP1 SLOAD PUSH2 0x1459 SWAP1 PUSH2 0x3CC7 JUMP JUMPDEST DUP1 ISZERO PUSH2 0x14A6 JUMPI DUP1 PUSH1 0x1F LT PUSH2 0x147B JUMPI PUSH2 0x100 DUP1 DUP4 SLOAD DIV MUL DUP4 MSTORE SWAP2 PUSH1 0x20 ADD SWAP2 PUSH2 0x14A6 JUMP JUMPDEST DUP3 ADD SWAP2 SWAP1 PUSH1 0x0 MSTORE PUSH1 0x20 PUSH1 0x0 KECCAK256 SWAP1 JUMPDEST DUP2 SLOAD DUP2 MSTORE SWAP1 PUSH1 0x1 ADD SWAP1 PUSH1 0x20 ADD DUP1 DUP4 GT PUSH2 0x1489 JUMPI DUP3 SWAP1 SUB PUSH1 0x1F AND DUP3 ADD SWAP2 JUMPDEST POP POP POP POP POP DUP2 MSTORE POP POP DUP2 MSTORE PUSH1 0x20 ADD PUSH1 0x7 DUP3 ADD SLOAD DUP2 MSTORE PUSH1 0x20 ADD PUSH1 0x8 DUP3 ADD DUP1 SLOAD PUSH2 0x14CD SWAP1 PUSH2 0x3CC7 JUMP JUMPDEST DUP1 PUSH1 0x1F ADD PUSH1 0x20 DUP1 SWAP2 DIV MUL PUSH1 0x20 ADD PUSH1 0x40 MLOAD SWAP1 DUP2 ADD PUSH1 0x40 MSTORE DUP1 SWAP3 SWAP2 SWAP1 DUP2 DUP2 MSTORE PUSH1 0x20 ADD DUP3 DUP1 SLOAD PUSH2 0x14F9 SWAP1 PUSH2 0x3CC7 JUMP JUMPDEST DUP1 ISZERO PUSH2 0x1546 JUMPI DUP1 PUSH1 0x1F LT PUSH2 0x151B JUMPI PUSH2 0x100 DUP1 DUP4 SLOAD DIV MUL DUP4 MSTORE SWAP2 PUSH1 0x20 ADD SWAP2 PUSH2 0x1546 JUMP JUMPDEST DUP3 ADD SWAP2 SWAP1 PUSH1 0x0 MSTORE PUSH1 0x20 PUSH1 0x0 KECCAK256 SWAP1 JUMPDEST DUP2 SLOAD DUP2 MSTORE SWAP1 PUSH1 0x1 ADD SWAP1 PUSH1 0x20 ADD DUP1 DUP4 GT PUSH2 0x1529 JUMPI DUP3 SWAP1 SUB PUSH1 0x1F AND DUP3 ADD SWAP2 JUMPDEST POP POP POP SWAP2 DUP4 MSTORE POP POP PUSH1 0x9 DUP3 ADD SLOAD PUSH1 0x20 SWAP1 SWAP2 ADD SWAP1 PUSH1 0xFF AND PUSH1 0xB DUP2 GT ISZERO PUSH2 0x156D JUMPI PUSH2 0x156D PUSH2 0x3D33 JUMP JUMPDEST PUSH1 0xB DUP2 GT ISZERO PUSH2 0x157E JUMPI PUSH2 0x157E PUSH2 0x3D33 JUMP JUMPDEST DUP2 MSTORE PUSH1 0x20 ADD PUSH1 0xA DUP3 ADD SLOAD DUP2 MSTORE POP POP DUP2 MSTORE PUSH1 0x20 ADD SWAP1 PUSH1 0x1 ADD SWAP1 PUSH2 0x132D JUMP JUMPDEST POP POP POP POP DUP2 MSTORE PUSH1 0x20 ADD PUSH1 0xD DUP3 ADD DUP1 SLOAD DUP1 PUSH1 0x20 MUL PUSH1 0x20 ADD PUSH1 0x40 MLOAD SWAP1 DUP2 ADD PUSH1 0x40 MSTORE DUP1 SWAP3 SWAP2 SWAP1 DUP2 DUP2 MSTORE PUSH1 0x20 ADD DUP3 DUP1 SLOAD DUP1 ISZERO PUSH2 0x15FC JUMPI PUSH1 0x20 MUL DUP3 ADD SWAP2 SWAP1 PUSH1 0x0 MSTORE PUSH1 0x20 PUSH1 0x0 KECCAK256 SWAP1 JUMPDEST DUP2 SLOAD PUSH1 0x1 PUSH1 0x1 PUSH1 0xA0 SHL SUB AND DUP2 MSTORE PUSH1 0x1 SWAP1 SWAP2 ADD SWAP1 PUSH1 0x20 ADD DUP1 DUP4 GT PUSH2 0x15DE JUMPI JUMPDEST POP POP POP POP POP DUP2 MSTORE PUSH1 0x20 ADD PUSH1 0xE DUP3 ADD DUP1 SLOAD DUP1 PUSH1 0x20 MUL PUSH1 0x20 ADD PUSH1 0x40 MLOAD SWAP1 DUP2 ADD PUSH1 0x40 MSTORE DUP1 SWAP3 SWAP2 SWAP1 DUP2 DUP2 MSTORE PUSH1 0x20 ADD DUP3 DUP1 SLOAD DUP1 ISZERO PUSH2 0x165E JUMPI PUSH1 0x20 MUL DUP3 ADD SWAP2 SWAP1 PUSH1 0x0 MSTORE PUSH1 0x20 PUSH1 0x0 KECCAK256 SWAP1 JUMPDEST DUP2 SLOAD PUSH1 0x1 PUSH1 0x1 PUSH1 0xA0 SHL SUB AND DUP2 MSTORE PUSH1 0x1 SWAP1 SWAP2 ADD SWAP1 PUSH1 0x20 ADD DUP1 DUP4 GT PUSH2 0x1640 JUMPI JUMPDEST POP POP POP SWAP2 DUP4 MSTORE POP POP PUSH1 0xF DUP3 ADD SLOAD PUSH1 0x20 DUP3 ADD MSTORE PUSH1 0x10 DUP3 ADD SLOAD PUSH1 0x40 DUP3 ADD MSTORE PUSH1 0x11 DUP3 ADD SLOAD PUSH1 0x60 DUP3 ADD MSTORE PUSH1 0x12 DUP3 ADD SLOAD PUSH1 0x80 DUP3 ADD MSTORE PUSH1 0x13 DUP3 ADD SLOAD PUSH1 0xFF DUP1 DUP3 AND ISZERO ISZERO PUSH1 0xA0 DUP5 ADD MSTORE PUSH2 0x100 DUP3 DIV DUP2 AND ISZERO ISZERO PUSH1 0xC0 DUP5 ADD MSTORE PUSH1 0xE0 SWAP1 SWAP3 ADD SWAP2 PUSH3 0x10000 SWAP1 SWAP2 DIV AND PUSH1 0x7 DUP2 GT ISZERO PUSH2 0x16CC JUMPI PUSH2 0x16CC PUSH2 0x3D33 JUMP JUMPDEST PUSH1 0x7 DUP2 GT ISZERO PUSH2 0x16DD JUMPI PUSH2 0x16DD PUSH2 0x3D33 JUMP JUMPDEST SWAP1 MSTORE POP SWAP3 SWAP2 POP POP JUMP JUMPDEST PUSH1 0x6 SLOAD PUSH1 0x1 PUSH1 0x1 PUSH1 0xA0 SHL SUB AND CALLER EQ PUSH2 0x1711 JUMPI PUSH1 0x40 MLOAD PUSH4 0x48E2D49 PUSH1 0xE4 SHL DUP2 MSTORE PUSH1 0x4 ADD PUSH2 0x952 SWAP1 PUSH2 0x38FF JUMP JUMPDEST PUSH1 0x0 SWAP3 DUP4 MSTORE PUSH1 0x3 PUSH1 0x20 SWAP1 DUP2 MSTORE PUSH1 0x40 DUP1 DUP6 KECCAK256 PUSH1 0x1 PUSH1 0x1 PUSH1 0xA0 SHL SUB SWAP1 SWAP5 AND DUP6 MSTORE SWAP3 DUP2 MSTORE SWAP2 DUP4 KECCAK256 DUP1 SLOAD PUSH1 0x1 DUP2 ADD DUP3 SSTORE SWAP1 DUP5 MSTORE SWAP2 SWAP1 SWAP3 KECCAK256 ADD SSTORE JUMP JUMPDEST PUSH1 0x6 SLOAD PUSH1 0x1 PUSH1 0x1 PUSH1 0xA0 SHL SUB AND CALLER EQ PUSH2 0x1773 JUMPI PUSH1 0x40 MLOAD PUSH4 0x48E2D49 PUSH1 0xE4 SHL DUP2 MSTORE PUSH1 0x4 ADD PUSH2 0x952 SWAP1 PUSH2 0x38FF JUMP JUMPDEST PUSH1 0x0 SWAP2 DUP3 MSTORE PUSH1 0x1 PUSH1 0x20 DUP2 DUP2 MSTORE PUSH1 0x40 DUP5 KECCAK256 PUSH1 0xD ADD DUP1 SLOAD SWAP3 DUP4 ADD DUP2 SSTORE DUP5 MSTORE SWAP1 SWAP3 KECCAK256 SWAP1 SWAP2 ADD DUP1 SLOAD PUSH1 0x1 PUSH1 0x1 PUSH1 0xA0 SHL SUB NOT AND PUSH1 0x1 PUSH1 0x1 PUSH1 0xA0 SHL SUB SWAP1 SWAP3 AND SWAP2 SWAP1 SWAP2 OR SWAP1 SSTORE JUMP JUMPDEST PUSH1 0x6 SLOAD PUSH1 0x0 SWAP1 PUSH1 0x1 PUSH1 0x1 PUSH1 0xA0 SHL SUB AND CALLER EQ PUSH2 0x17E2 JUMPI PUSH1 0x40 MLOAD PUSH4 0x48E2D49 PUSH1 0xE4 SHL DUP2 MSTORE PUSH1 0x4 ADD PUSH2 0x952 SWAP1 PUSH2 0x38FF JUMP JUMPDEST PUSH1 0x0 DUP6 DUP2 MSTORE PUSH1 0x1 PUSH1 0x20 MSTORE PUSH1 0x40 SWAP1 KECCAK256 PUSH1 0xC ADD DUP1 SLOAD TIMESTAMP SWAP2 DUP3 SWAP2 DUP7 SWAP1 DUP2 LT PUSH2 0x1809 JUMPI PUSH2 0x1809 PUSH2 0x3D49 JUMP JUMPDEST PUSH1 0x0 SWAP2 DUP3 MSTORE PUSH1 0x20 DUP1 DUP4 KECCAK256 PUSH1 0xA PUSH1 0xB SWAP1 SWAP4 MUL ADD SWAP2 SWAP1 SWAP2 ADD SWAP3 SWAP1 SWAP3 SSTORE DUP8 DUP2 MSTORE PUSH1 0x3 DUP3 MSTORE PUSH1 0x40 DUP1 DUP3 KECCAK256 PUSH1 0x1 PUSH1 0x1 PUSH1 0xA0 SHL SUB DUP10 AND DUP4 MSTORE DUP4 MSTORE DUP1 DUP3 KECCAK256 DUP8 DUP4 MSTORE PUSH1 0x2 ADD DUP4 MSTORE SWAP1 KECCAK256 DUP5 MLOAD PUSH2 0x9D7 SWAP3 PUSH1 0x1 SWAP1 SWAP3 ADD SWAP2 DUP7 ADD SWAP1 PUSH2 0x2DC6 JUMP JUMPDEST PUSH1 0x6 SLOAD PUSH1 0x1 PUSH1 0x1 PUSH1 0xA0 SHL SUB AND CALLER EQ PUSH2 0x1889 JUMPI PUSH1 0x40 MLOAD PUSH4 0x48E2D49 PUSH1 0xE4 SHL DUP2 MSTORE PUSH1 0x4 ADD PUSH2 0x952 SWAP1 PUSH2 0x38FF JUMP JUMPDEST PUSH1 0x0 DUP4 DUP2 MSTORE PUSH1 0x4 PUSH1 0x20 SWAP1 DUP2 MSTORE PUSH1 0x40 DUP1 DUP4 KECCAK256 PUSH1 0x1 PUSH1 0x1 PUSH1 0xA0 SHL SUB DUP7 AND DUP5 MSTORE SWAP1 SWAP2 MSTORE DUP2 KECCAK256 PUSH1 0x1 ADD DUP1 SLOAD DUP4 SWAP3 SWAP1 PUSH2 0x18BE SWAP1 DUP5 SWAP1 PUSH2 0x3C81 JUMP JUMPDEST SWAP1 SWAP2 SSTORE POP POP POP POP POP JUMP JUMPDEST PUSH1 0x6 SLOAD PUSH1 0x1 PUSH1 0x1 PUSH1 0xA0 SHL SUB AND CALLER EQ PUSH2 0x18F3 JUMPI PUSH1 0x40 MLOAD PUSH4 0x48E2D49 PUSH1 0xE4 SHL DUP2 MSTORE PUSH1 0x4 ADD PUSH2 0x952 SWAP1 PUSH2 0x38FF JUMP JUMPDEST PUSH1 0x1 PUSH1 0x1 PUSH1 0xA0 SHL SUB DUP3 AND PUSH1 0x0 SWAP1 DUP2 MSTORE PUSH1 0x2 PUSH1 0x20 MSTORE PUSH1 0x40 DUP2 KECCAK256 DUP1 SLOAD DUP4 SWAP3 SWAP1 PUSH2 0xCE5 SWAP1 DUP5 SWAP1 PUSH2 0x3C99 JUMP JUMPDEST PUSH2 0x1923 PUSH2 0x2F53 JUMP JUMPDEST PUSH2 0x192B PUSH2 0x2F53 JUMP JUMPDEST PUSH1 0x1 PUSH1 0x1 PUSH1 0xA0 SHL SUB DUP4 AND DUP1 DUP3 MSTORE PUSH1 0x0 DUP6 DUP2 MSTORE PUSH1 0x3 PUSH1 0x20 SWAP1 DUP2 MSTORE PUSH1 0x40 DUP1 DUP4 KECCAK256 SWAP4 DUP4 MSTORE SWAP3 DUP2 MSTORE SWAP1 DUP3 SWAP1 KECCAK256 DUP1 SLOAD DUP4 MLOAD DUP2 DUP5 MUL DUP2 ADD DUP5 ADD SWAP1 SWAP5 MSTORE DUP1 DUP5 MSTORE SWAP1 SWAP2 DUP4 ADD DUP3 DUP3 DUP1 ISZERO PUSH2 0x1995 JUMPI PUSH1 0x20 MUL DUP3 ADD SWAP2 SWAP1 PUSH1 0x0 MSTORE PUSH1 0x20 PUSH1 0x0 KECCAK256 SWAP1 JUMPDEST DUP2 SLOAD DUP2 MSTORE PUSH1 0x20 ADD SWAP1 PUSH1 0x1 ADD SWAP1 DUP1 DUP4 GT PUSH2 0x1981 JUMPI JUMPDEST POP POP POP POP PUSH1 0x20 DUP4 ADD DUP3 SWAP1 MSTORE POP MLOAD PUSH1 0x0 SWAP1 PUSH1 0x1 PUSH1 0x1 PUSH1 0x40 SHL SUB DUP2 GT ISZERO PUSH2 0x19BC JUMPI PUSH2 0x19BC PUSH2 0x3D5F JUMP JUMPDEST PUSH1 0x40 MLOAD SWAP1 DUP1 DUP3 MSTORE DUP1 PUSH1 0x20 MUL PUSH1 0x20 ADD DUP3 ADD PUSH1 0x40 MSTORE DUP1 ISZERO PUSH2 0x1A12 JUMPI DUP2 PUSH1 0x20 ADD JUMPDEST PUSH2 0x19FF PUSH1 0x40 DUP1 MLOAD PUSH1 0x60 DUP2 ADD SWAP1 SWAP2 MSTORE DUP1 PUSH1 0x0 DUP2 MSTORE PUSH1 0x60 PUSH1 0x20 DUP3 ADD MSTORE PUSH1 0x0 PUSH1 0x40 SWAP1 SWAP2 ADD MSTORE SWAP1 JUMP JUMPDEST DUP2 MSTORE PUSH1 0x20 ADD SWAP1 PUSH1 0x1 SWAP1 SUB SWAP1 DUP2 PUSH2 0x19DA JUMPI SWAP1 POP JUMPDEST POP SWAP1 POP PUSH1 0x0 JUMPDEST DUP3 PUSH1 0x20 ADD MLOAD MLOAD DUP2 LT ISZERO PUSH2 0x1BE3 JUMPI PUSH1 0x0 DUP7 DUP2 MSTORE PUSH1 0x3 PUSH1 0x20 SWAP1 DUP2 MSTORE PUSH1 0x40 DUP1 DUP4 KECCAK256 PUSH1 0x1 PUSH1 0x1 PUSH1 0xA0 SHL SUB DUP10 AND DUP5 MSTORE DUP3 MSTORE DUP3 KECCAK256 SWAP1 DUP6 ADD MLOAD DUP1 MLOAD PUSH1 0x2 SWAP1 SWAP3 ADD SWAP3 SWAP2 DUP5 SWAP1 DUP2 LT PUSH2 0x1A63 JUMPI PUSH2 0x1A63 PUSH2 0x3D49 JUMP JUMPDEST PUSH1 0x20 MUL PUSH1 0x20 ADD ADD MLOAD DUP2 MSTORE PUSH1 0x20 ADD SWAP1 DUP2 MSTORE PUSH1 0x20 ADD PUSH1 0x0 KECCAK256 PUSH1 0x0 ADD PUSH1 0x0 SWAP1 SLOAD SWAP1 PUSH2 0x100 EXP SWAP1 DIV PUSH1 0xFF AND DUP3 DUP3 DUP2 MLOAD DUP2 LT PUSH2 0x1A9C JUMPI PUSH2 0x1A9C PUSH2 0x3D49 JUMP JUMPDEST PUSH1 0x20 MUL PUSH1 0x20 ADD ADD MLOAD PUSH1 0x0 ADD SWAP1 PUSH1 0x4 DUP2 GT ISZERO PUSH2 0x1AB9 JUMPI PUSH2 0x1AB9 PUSH2 0x3D33 JUMP JUMPDEST SWAP1 DUP2 PUSH1 0x4 DUP2 GT ISZERO PUSH2 0x1ACC JUMPI PUSH2 0x1ACC PUSH2 0x3D33 JUMP JUMPDEST SWAP1 MSTORE POP PUSH1 0x0 DUP7 DUP2 MSTORE PUSH1 0x3 PUSH1 0x20 SWAP1 DUP2 MSTORE PUSH1 0x40 DUP1 DUP4 KECCAK256 PUSH1 0x1 PUSH1 0x1 PUSH1 0xA0 SHL SUB DUP10 AND DUP5 MSTORE DUP3 MSTORE DUP3 KECCAK256 SWAP1 DUP6 ADD MLOAD DUP1 MLOAD PUSH1 0x2 SWAP1 SWAP3 ADD SWAP3 SWAP2 DUP5 SWAP1 DUP2 LT PUSH2 0x1B0D JUMPI PUSH2 0x1B0D PUSH2 0x3D49 JUMP JUMPDEST PUSH1 0x20 MUL PUSH1 0x20 ADD ADD MLOAD DUP2 MSTORE PUSH1 0x20 ADD SWAP1 DUP2 MSTORE PUSH1 0x20 ADD PUSH1 0x0 KECCAK256 PUSH1 0x1 ADD DUP1 SLOAD PUSH2 0x1B31 SWAP1 PUSH2 0x3CC7 JUMP JUMPDEST DUP1 PUSH1 0x1F ADD PUSH1 0x20 DUP1 SWAP2 DIV MUL PUSH1 0x20 ADD PUSH1 0x40 MLOAD SWAP1 DUP2 ADD PUSH1 0x40 MSTORE DUP1 SWAP3 SWAP2 SWAP1 DUP2 DUP2 MSTORE PUSH1 0x20 ADD DUP3 DUP1 SLOAD PUSH2 0x1B5D SWAP1 PUSH2 0x3CC7 JUMP JUMPDEST DUP1 ISZERO PUSH2 0x1BAA JUMPI DUP1 PUSH1 0x1F LT PUSH2 0x1B7F JUMPI PUSH2 0x100 DUP1 DUP4 SLOAD DIV MUL DUP4 MSTORE SWAP2 PUSH1 0x20 ADD SWAP2 PUSH2 0x1BAA JUMP JUMPDEST DUP3 ADD SWAP2 SWAP1 PUSH1 0x0 MSTORE PUSH1 0x20 PUSH1 0x0 KECCAK256 SWAP1 JUMPDEST DUP2 SLOAD DUP2 MSTORE SWAP1 PUSH1 0x1 ADD SWAP1 PUSH1 0x20 ADD DUP1 DUP4 GT PUSH2 0x1B8D JUMPI DUP3 SWAP1 SUB PUSH1 0x1F AND DUP3 ADD SWAP2 JUMPDEST POP POP POP POP POP DUP3 DUP3 DUP2 MLOAD DUP2 LT PUSH2 0x1BC1 JUMPI PUSH2 0x1BC1 PUSH2 0x3D49 JUMP JUMPDEST PUSH1 0x20 MUL PUSH1 0x20 ADD ADD MLOAD PUSH1 0x20 ADD DUP2 SWAP1 MSTORE POP DUP1 DUP1 PUSH2 0x1BDB SWAP1 PUSH2 0x3D02 JUMP JUMPDEST SWAP2 POP POP PUSH2 0x1A18 JUMP JUMPDEST POP PUSH1 0x40 DUP3 ADD MSTORE SWAP4 SWAP3 POP POP POP JUMP JUMPDEST PUSH1 0x6 SLOAD PUSH1 0x1 PUSH1 0x1 PUSH1 0xA0 SHL SUB AND CALLER EQ PUSH2 0x1C1B JUMPI PUSH1 0x40 MLOAD PUSH4 0x48E2D49 PUSH1 0xE4 SHL DUP2 MSTORE PUSH1 0x4 ADD PUSH2 0x952 SWAP1 PUSH2 0x38FF JUMP JUMPDEST PUSH1 0x0 SWAP2 DUP3 MSTORE PUSH1 0x1 PUSH1 0x20 MSTORE PUSH1 0x40 SWAP1 SWAP2 KECCAK256 PUSH1 0x13 ADD DUP1 SLOAD PUSH1 0xFF NOT AND SWAP2 ISZERO ISZERO SWAP2 SWAP1 SWAP2 OR SWAP1 SSTORE JUMP JUMPDEST PUSH1 0x6 SLOAD PUSH1 0x1 PUSH1 0x1 PUSH1 0xA0 SHL SUB AND CALLER EQ PUSH2 0x1C69 JUMPI PUSH1 0x40 MLOAD PUSH4 0x48E2D49 PUSH1 0xE4 SHL DUP2 MSTORE PUSH1 0x4 ADD PUSH2 0x952 SWAP1 PUSH2 0x38FF JUMP JUMPDEST PUSH1 0x0 DUP5 DUP2 MSTORE PUSH1 0x4 PUSH1 0x20 DUP2 DUP2 MSTORE PUSH1 0x40 DUP1 DUP5 KECCAK256 PUSH1 0x1 PUSH1 0x1 PUSH1 0xA0 SHL SUB DUP9 AND DUP6 MSTORE DUP3 MSTORE DUP1 DUP5 KECCAK256 DUP7 DUP6 MSTORE PUSH1 0x2 ADD SWAP1 SWAP2 MSTORE SWAP1 SWAP2 KECCAK256 DUP1 SLOAD DUP4 SWAP3 PUSH1 0xFF NOT SWAP1 SWAP2 AND SWAP1 PUSH1 0x1 SWAP1 DUP5 SWAP1 DUP2 GT ISZERO PUSH2 0xDF3 JUMPI PUSH2 0xDF3 PUSH2 0x3D33 JUMP JUMPDEST PUSH1 0x6 SLOAD PUSH1 0x1 PUSH1 0x1 PUSH1 0xA0 SHL SUB AND CALLER EQ PUSH2 0x1CE1 JUMPI PUSH1 0x40 MLOAD PUSH4 0x48E2D49 PUSH1 0xE4 SHL DUP2 MSTORE PUSH1 0x4 ADD PUSH2 0x952 SWAP1 PUSH2 0x38FF JUMP JUMPDEST PUSH1 0x5 PUSH1 0x0 DUP2 SLOAD PUSH2 0x1CF0 SWAP1 PUSH2 0x3D02 JUMP JUMPDEST SWAP1 SWAP2 SSTORE POP JUMP JUMPDEST PUSH1 0x6 SLOAD PUSH1 0x1 PUSH1 0x1 PUSH1 0xA0 SHL SUB AND CALLER EQ PUSH2 0x1D21 JUMPI PUSH1 0x40 MLOAD PUSH4 0x48E2D49 PUSH1 0xE4 SHL DUP2 MSTORE PUSH1 0x4 ADD PUSH2 0x952 SWAP1 PUSH2 0x38FF JUMP JUMPDEST PUSH1 0x0 SWAP3 DUP4 MSTORE PUSH1 0x4 PUSH1 0x20 SWAP1 DUP2 MSTORE PUSH1 0x40 DUP1 DUP6 KECCAK256 PUSH1 0x1 PUSH1 0x1 PUSH1 0xA0 SHL SUB SWAP1 SWAP4 AND DUP6 MSTORE SWAP2 DUP2 MSTORE DUP2 DUP5 KECCAK256 SWAP3 DUP5 MSTORE PUSH1 0x2 SWAP3 DUP4 ADD SWAP1 MSTORE SWAP1 SWAP2 KECCAK256 ADD DUP1 SLOAD PUSH1 0xFF NOT AND PUSH1 0x1 OR SWAP1 SSTORE JUMP JUMPDEST PUSH2 0x1D68 PUSH2 0x2D1C JUMP JUMPDEST PUSH2 0x1D72 PUSH1 0x0 PUSH2 0x2D76 JUMP JUMPDEST JUMP JUMPDEST PUSH1 0x6 SLOAD PUSH1 0x1 PUSH1 0x1 PUSH1 0xA0 SHL SUB AND CALLER EQ PUSH2 0x1D9F JUMPI PUSH1 0x40 MLOAD PUSH4 0x48E2D49 PUSH1 0xE4 SHL DUP2 MSTORE PUSH1 0x4 ADD PUSH2 0x952 SWAP1 PUSH2 0x38FF JUMP JUMPDEST PUSH1 0x0 DUP3 DUP2 MSTORE PUSH1 0x4 PUSH1 0x20 SWAP1 DUP2 MSTORE PUSH1 0x40 DUP1 DUP4 KECCAK256 PUSH1 0x1 PUSH1 0x1 PUSH1 0xA0 SHL SUB DUP6 AND DUP5 MSTORE SWAP1 SWAP2 MSTORE DUP2 KECCAK256 PUSH1 0x1 ADD DUP1 SLOAD SWAP2 PUSH2 0x1DD0 DUP4 PUSH2 0x3CB0 JUMP JUMPDEST SWAP2 SWAP1 POP SSTORE POP POP POP JUMP JUMPDEST PUSH2 0x1DE1 PUSH2 0x2F53 JUMP JUMPDEST PUSH2 0x1DE9 PUSH2 0x2F53 JUMP JUMPDEST PUSH1 0x1 PUSH1 0x1 PUSH1 0xA0 SHL SUB DUP4 AND DUP1 DUP3 MSTORE PUSH1 0x0 DUP6 DUP2 MSTORE PUSH1 0x4 PUSH1 0x20 SWAP1 DUP2 MSTORE PUSH1 0x40 DUP1 DUP4 KECCAK256 SWAP4 DUP4 MSTORE SWAP3 DUP2 MSTORE SWAP1 DUP3 SWAP1 KECCAK256 DUP1 SLOAD DUP4 MLOAD DUP2 DUP5 MUL DUP2 ADD DUP5 ADD SWAP1 SWAP5 MSTORE DUP1 DUP5 MSTORE SWAP1 SWAP2 DUP4 ADD DUP3 DUP3 DUP1 ISZERO PUSH2 0x1E53 JUMPI PUSH1 0x20 MUL DUP3 ADD SWAP2 SWAP1 PUSH1 0x0 MSTORE PUSH1 0x20 PUSH1 0x0 KECCAK256 SWAP1 JUMPDEST DUP2 SLOAD DUP2 MSTORE PUSH1 0x20 ADD SWAP1 PUSH1 0x1 ADD SWAP1 DUP1 DUP4 GT PUSH2 0x1E3F JUMPI JUMPDEST POP POP POP POP PUSH1 0x20 DUP4 ADD DUP3 SWAP1 MSTORE POP MLOAD PUSH1 0x0 SWAP1 PUSH1 0x1 PUSH1 0x1 PUSH1 0x40 SHL SUB DUP2 GT ISZERO PUSH2 0x1E7A JUMPI PUSH2 0x1E7A PUSH2 0x3D5F JUMP JUMPDEST PUSH1 0x40 MLOAD SWAP1 DUP1 DUP3 MSTORE DUP1 PUSH1 0x20 MUL PUSH1 0x20 ADD DUP3 ADD PUSH1 0x40 MSTORE DUP1 ISZERO PUSH2 0x1ED0 JUMPI DUP2 PUSH1 0x20 ADD JUMPDEST PUSH2 0x1EBD PUSH1 0x40 DUP1 MLOAD PUSH1 0x60 DUP2 ADD SWAP1 SWAP2 MSTORE DUP1 PUSH1 0x0 DUP2 MSTORE PUSH1 0x60 PUSH1 0x20 DUP3 ADD MSTORE PUSH1 0x0 PUSH1 0x40 SWAP1 SWAP2 ADD MSTORE SWAP1 JUMP JUMPDEST DUP2 MSTORE PUSH1 0x20 ADD SWAP1 PUSH1 0x1 SWAP1 SUB SWAP1 DUP2 PUSH2 0x1E98 JUMPI SWAP1 POP JUMPDEST POP SWAP1 POP PUSH1 0x0 JUMPDEST DUP3 PUSH1 0x20 ADD MLOAD MLOAD DUP2 LT ISZERO PUSH2 0x1BE3 JUMPI PUSH1 0x0 DUP7 DUP2 MSTORE PUSH1 0x4 PUSH1 0x20 SWAP1 DUP2 MSTORE PUSH1 0x40 DUP1 DUP4 KECCAK256 PUSH1 0x1 PUSH1 0x1 PUSH1 0xA0 SHL SUB DUP10 AND DUP5 MSTORE DUP3 MSTORE DUP3 KECCAK256 SWAP1 DUP6 ADD MLOAD DUP1 MLOAD PUSH1 0x2 SWAP1 SWAP3 ADD SWAP3 SWAP2 DUP5 SWAP1 DUP2 LT PUSH2 0x1F21 JUMPI PUSH2 0x1F21 PUSH2 0x3D49 JUMP JUMPDEST PUSH1 0x20 MUL PUSH1 0x20 ADD ADD MLOAD DUP2 MSTORE PUSH1 0x20 ADD SWAP1 DUP2 MSTORE PUSH1 0x20 ADD PUSH1 0x0 KECCAK256 PUSH1 0x0 ADD PUSH1 0x0 SWAP1 SLOAD SWAP1 PUSH2 0x100 EXP SWAP1 DIV PUSH1 0xFF AND DUP3 DUP3 DUP2 MLOAD DUP2 LT PUSH2 0x1F5A JUMPI PUSH2 0x1F5A PUSH2 0x3D49 JUMP JUMPDEST PUSH1 0x20 MUL PUSH1 0x20 ADD ADD MLOAD PUSH1 0x0 ADD SWAP1 PUSH1 0x4 DUP2 GT ISZERO PUSH2 0x1F77 JUMPI PUSH2 0x1F77 PUSH2 0x3D33 JUMP JUMPDEST SWAP1 DUP2 PUSH1 0x4 DUP2 GT ISZERO PUSH2 0x1F8A JUMPI PUSH2 0x1F8A PUSH2 0x3D33 JUMP JUMPDEST SWAP1 MSTORE POP PUSH1 0x0 DUP7 DUP2 MSTORE PUSH1 0x4 PUSH1 0x20 SWAP1 DUP2 MSTORE PUSH1 0x40 DUP1 DUP4 KECCAK256 PUSH1 0x1 PUSH1 0x1 PUSH1 0xA0 SHL SUB DUP10 AND DUP5 MSTORE DUP3 MSTORE DUP3 KECCAK256 SWAP1 DUP6 ADD MLOAD DUP1 MLOAD PUSH1 0x2 SWAP1 SWAP3 ADD SWAP3 SWAP2 DUP5 SWAP1 DUP2 LT PUSH2 0x1FCB JUMPI PUSH2 0x1FCB PUSH2 0x3D49 JUMP JUMPDEST PUSH1 0x20 MUL PUSH1 0x20 ADD ADD MLOAD DUP2 MSTORE PUSH1 0x20 ADD SWAP1 DUP2 MSTORE PUSH1 0x20 ADD PUSH1 0x0 KECCAK256 PUSH1 0x1 ADD DUP1 SLOAD PUSH2 0x1FEF SWAP1 PUSH2 0x3CC7 JUMP JUMPDEST DUP1 PUSH1 0x1F ADD PUSH1 0x20 DUP1 SWAP2 DIV MUL PUSH1 0x20 ADD PUSH1 0x40 MLOAD SWAP1 DUP2 ADD PUSH1 0x40 MSTORE DUP1 SWAP3 SWAP2 SWAP1 DUP2 DUP2 MSTORE PUSH1 0x20 ADD DUP3 DUP1 SLOAD PUSH2 0x201B SWAP1 PUSH2 0x3CC7 JUMP JUMPDEST DUP1 ISZERO PUSH2 0x2068 JUMPI DUP1 PUSH1 0x1F LT PUSH2 0x203D JUMPI PUSH2 0x100 DUP1 DUP4 SLOAD DIV MUL DUP4 MSTORE SWAP2 PUSH1 0x20 ADD SWAP2 PUSH2 0x2068 JUMP JUMPDEST DUP3 ADD SWAP2 SWAP1 PUSH1 0x0 MSTORE PUSH1 0x20 PUSH1 0x0 KECCAK256 SWAP1 JUMPDEST DUP2 SLOAD DUP2 MSTORE SWAP1 PUSH1 0x1 ADD SWAP1 PUSH1 0x20 ADD DUP1 DUP4 GT PUSH2 0x204B JUMPI DUP3 SWAP1 SUB PUSH1 0x1F AND DUP3 ADD SWAP2 JUMPDEST POP POP POP POP POP DUP3 DUP3 DUP2 MLOAD DUP2 LT PUSH2 0x207F JUMPI PUSH2 0x207F PUSH2 0x3D49 JUMP JUMPDEST PUSH1 0x20 MUL PUSH1 0x20 ADD ADD MLOAD PUSH1 0x20 ADD DUP2 SWAP1 MSTORE POP DUP1 DUP1 PUSH2 0x2099 SWAP1 PUSH2 0x3D02 JUMP JUMPDEST SWAP2 POP POP PUSH2 0x1ED6 JUMP JUMPDEST PUSH1 0x0 DUP3 DUP2 MSTORE PUSH1 0x3 PUSH1 0x20 SWAP1 DUP2 MSTORE PUSH1 0x40 DUP1 DUP4 KECCAK256 PUSH1 0x1 PUSH1 0x1 PUSH1 0xA0 SHL SUB DUP8 AND DUP5 MSTORE DUP3 MSTORE DUP1 DUP4 KECCAK256 DUP5 DUP5 MSTORE PUSH1 0x2 SWAP1 DUP2 ADD SWAP1 SWAP3 MSTORE DUP3 KECCAK256 ADD SLOAD PUSH1 0xFF AND DUP1 PUSH2 0x2111 JUMPI POP PUSH1 0x0 DUP4 DUP2 MSTORE PUSH1 0x4 PUSH1 0x20 SWAP1 DUP2 MSTORE PUSH1 0x40 DUP1 DUP4 KECCAK256 PUSH1 0x1 PUSH1 0x1 PUSH1 0xA0 SHL SUB DUP9 AND DUP5 MSTORE DUP3 MSTORE DUP1 DUP4 KECCAK256 DUP6 DUP5 MSTORE PUSH1 0x2 SWAP1 DUP2 ADD SWAP1 SWAP3 MSTORE SWAP1 SWAP2 KECCAK256 ADD SLOAD PUSH1 0xFF AND JUMPDEST ISZERO PUSH2 0x211E JUMPI POP PUSH1 0x1 PUSH2 0x2122 JUMP JUMPDEST POP PUSH1 0x0 JUMPDEST SWAP4 SWAP3 POP POP POP JUMP JUMPDEST PUSH1 0x6 SLOAD PUSH1 0x1 PUSH1 0x1 PUSH1 0xA0 SHL SUB AND CALLER EQ PUSH2 0x2154 JUMPI PUSH1 0x40 MLOAD PUSH4 0x48E2D49 PUSH1 0xE4 SHL DUP2 MSTORE PUSH1 0x4 ADD PUSH2 0x952 SWAP1 PUSH2 0x38FF JUMP JUMPDEST PUSH1 0x0 DUP3 DUP2 MSTORE PUSH1 0x1 PUSH1 0x20 MSTORE PUSH1 0x40 DUP2 KECCAK256 PUSH1 0x12 ADD DUP1 SLOAD DUP4 SWAP3 SWAP1 PUSH2 0xCE5 SWAP1 DUP5 SWAP1 PUSH2 0x3C81 JUMP JUMPDEST PUSH1 0x0 DUP2 ISZERO PUSH2 0x219E JUMPI POP PUSH1 0x0 DUP3 DUP2 MSTORE PUSH1 0x1 PUSH1 0x20 MSTORE PUSH1 0x40 SWAP1 KECCAK256 PUSH1 0x11 DUP2 ADD SLOAD PUSH1 0xF SWAP1 SWAP2 ADD SLOAD GT ISZERO PUSH2 0xD78 JUMP JUMPDEST POP PUSH1 0x0 DUP3 DUP2 MSTORE PUSH1 0x1 PUSH1 0x20 MSTORE PUSH1 0x40 SWAP1 KECCAK256 PUSH1 0x12 DUP2 ADD SLOAD PUSH1 0x10 SWAP1 SWAP2 ADD SLOAD GT ISZERO PUSH2 0xD78 JUMP JUMPDEST PUSH1 0x60 PUSH1 0x0 PUSH1 0x60 DUP1 PUSH1 0x0 DUP1 DUP7 ISZERO PUSH2 0x2240 JUMPI PUSH1 0x0 DUP10 DUP2 MSTORE PUSH1 0x3 PUSH1 0x20 SWAP1 DUP2 MSTORE PUSH1 0x40 DUP1 DUP4 KECCAK256 PUSH1 0x1 PUSH1 0x1 PUSH1 0xA0 SHL SUB DUP13 AND DUP5 MSTORE DUP3 MSTORE SWAP2 DUP3 SWAP1 KECCAK256 DUP1 SLOAD DUP4 MLOAD DUP2 DUP5 MUL DUP2 ADD DUP5 ADD SWAP1 SWAP5 MSTORE DUP1 DUP5 MSTORE SWAP1 SWAP2 DUP4 ADD DUP3 DUP3 DUP1 ISZERO PUSH2 0x2234 JUMPI PUSH1 0x20 MUL DUP3 ADD SWAP2 SWAP1 PUSH1 0x0 MSTORE PUSH1 0x20 PUSH1 0x0 KECCAK256 SWAP1 JUMPDEST DUP2 SLOAD DUP2 MSTORE PUSH1 0x20 ADD SWAP1 PUSH1 0x1 ADD SWAP1 DUP1 DUP4 GT PUSH2 0x2220 JUMPI JUMPDEST POP POP POP POP POP SWAP4 POP PUSH2 0x22AD JUMP JUMPDEST PUSH1 0x0 DUP10 DUP2 MSTORE PUSH1 0x4 PUSH1 0x20 SWAP1 DUP2 MSTORE PUSH1 0x40 DUP1 DUP4 KECCAK256 PUSH1 0x1 PUSH1 0x1 PUSH1 0xA0 SHL SUB DUP13 AND DUP5 MSTORE DUP3 MSTORE SWAP2 DUP3 SWAP1 KECCAK256 DUP1 SLOAD DUP4 MLOAD DUP2 DUP5 MUL DUP2 ADD DUP5 ADD SWAP1 SWAP5 MSTORE DUP1 DUP5 MSTORE SWAP1 SWAP2 DUP4 ADD DUP3 DUP3 DUP1 ISZERO PUSH2 0x22A5 JUMPI PUSH1 0x20 MUL DUP3 ADD SWAP2 SWAP1 PUSH1 0x0 MSTORE PUSH1 0x20 PUSH1 0x0 KECCAK256 SWAP1 JUMPDEST DUP2 SLOAD DUP2 MSTORE PUSH1 0x20 ADD SWAP1 PUSH1 0x1 ADD SWAP1 DUP1 DUP4 GT PUSH2 0x2291 JUMPI JUMPDEST POP POP POP POP POP SWAP4 POP JUMPDEST PUSH2 0x22D2 PUSH1 0x40 DUP1 MLOAD PUSH1 0x60 DUP2 ADD SWAP1 SWAP2 MSTORE DUP1 PUSH1 0x0 DUP2 MSTORE PUSH1 0x60 PUSH1 0x20 DUP3 ADD MSTORE PUSH1 0x0 PUSH1 0x40 SWAP1 SWAP2 ADD MSTORE SWAP1 JUMP JUMPDEST PUSH1 0x0 JUMPDEST DUP6 MLOAD DUP2 LT ISZERO PUSH2 0x24EB JUMPI PUSH1 0x0 DUP12 DUP2 MSTORE PUSH1 0x3 PUSH1 0x20 SWAP1 DUP2 MSTORE PUSH1 0x40 DUP1 DUP4 KECCAK256 PUSH1 0x1 PUSH1 0x1 PUSH1 0xA0 SHL SUB DUP15 AND DUP5 MSTORE SWAP1 SWAP2 MSTORE DUP2 KECCAK256 DUP8 MLOAD PUSH1 0x2 SWAP1 SWAP2 ADD SWAP2 SWAP1 DUP9 SWAP1 DUP5 SWAP1 DUP2 LT PUSH2 0x231B JUMPI PUSH2 0x231B PUSH2 0x3D49 JUMP JUMPDEST PUSH1 0x20 MUL PUSH1 0x20 ADD ADD MLOAD DUP2 MSTORE PUSH1 0x20 ADD SWAP1 DUP2 MSTORE PUSH1 0x20 ADD PUSH1 0x0 KECCAK256 PUSH1 0x40 MLOAD DUP1 PUSH1 0x60 ADD PUSH1 0x40 MSTORE SWAP1 DUP2 PUSH1 0x0 DUP3 ADD PUSH1 0x0 SWAP1 SLOAD SWAP1 PUSH2 0x100 EXP SWAP1 DIV PUSH1 0xFF AND PUSH1 0x4 DUP2 GT ISZERO PUSH2 0x2360 JUMPI PUSH2 0x2360 PUSH2 0x3D33 JUMP JUMPDEST PUSH1 0x4 DUP2 GT ISZERO PUSH2 0x2371 JUMPI PUSH2 0x2371 PUSH2 0x3D33 JUMP JUMPDEST DUP2 MSTORE PUSH1 0x20 ADD PUSH1 0x1 DUP3 ADD DUP1 SLOAD PUSH2 0x2385 SWAP1 PUSH2 0x3CC7 JUMP JUMPDEST DUP1 PUSH1 0x1F ADD PUSH1 0x20 DUP1 SWAP2 DIV MUL PUSH1 0x20 ADD PUSH1 0x40 MLOAD SWAP1 DUP2 ADD PUSH1 0x40 MSTORE DUP1 SWAP3 SWAP2 SWAP1 DUP2 DUP2 MSTORE PUSH1 0x20 ADD DUP3 DUP1 SLOAD PUSH2 0x23B1 SWAP1 PUSH2 0x3CC7 JUMP JUMPDEST DUP1 ISZERO PUSH2 0x23FE JUMPI DUP1 PUSH1 0x1F LT PUSH2 0x23D3 JUMPI PUSH2 0x100 DUP1 DUP4 SLOAD DIV MUL DUP4 MSTORE SWAP2 PUSH1 0x20 ADD SWAP2 PUSH2 0x23FE JUMP JUMPDEST DUP3 ADD SWAP2 SWAP1 PUSH1 0x0 MSTORE PUSH1 0x20 PUSH1 0x0 KECCAK256 SWAP1 JUMPDEST DUP2 SLOAD DUP2 MSTORE SWAP1 PUSH1 0x1 ADD SWAP1 PUSH1 0x20 ADD DUP1 DUP4 GT PUSH2 0x23E1 JUMPI DUP3 SWAP1 SUB PUSH1 0x1F AND DUP3 ADD SWAP2 JUMPDEST POP POP POP SWAP2 DUP4 MSTORE POP POP PUSH1 0x2 SWAP2 SWAP1 SWAP2 ADD SLOAD PUSH1 0xFF AND ISZERO ISZERO PUSH1 0x20 SWAP1 SWAP2 ADD MSTORE SWAP2 POP PUSH1 0x0 DUP3 MLOAD PUSH1 0x4 DUP2 GT ISZERO PUSH2 0x242F JUMPI PUSH2 0x242F PUSH2 0x3D33 JUMP JUMPDEST EQ ISZERO PUSH2 0x24D9 JUMPI DUP6 DUP2 DUP2 MLOAD DUP2 LT PUSH2 0x2447 JUMPI PUSH2 0x2447 PUSH2 0x3D49 JUMP JUMPDEST PUSH1 0x20 MUL PUSH1 0x20 ADD ADD MLOAD DUP6 DUP5 DUP2 MLOAD DUP2 LT PUSH2 0x2461 JUMPI PUSH2 0x2461 PUSH2 0x3D49 JUMP JUMPDEST PUSH1 0x20 SWAP1 DUP2 MUL SWAP2 SWAP1 SWAP2 ADD ADD MSTORE DUP3 PUSH2 0x2476 DUP2 PUSH2 0x3D02 JUMP JUMPDEST SWAP4 POP POP PUSH1 0x1 PUSH1 0x0 DUP13 DUP2 MSTORE PUSH1 0x20 ADD SWAP1 DUP2 MSTORE PUSH1 0x20 ADD PUSH1 0x0 KECCAK256 PUSH1 0xC ADD DUP7 DUP3 DUP2 MLOAD DUP2 LT PUSH2 0x24A1 JUMPI PUSH2 0x24A1 PUSH2 0x3D49 JUMP JUMPDEST PUSH1 0x20 MUL PUSH1 0x20 ADD ADD MLOAD DUP2 SLOAD DUP2 LT PUSH2 0x24B9 JUMPI PUSH2 0x24B9 PUSH2 0x3D49 JUMP JUMPDEST SWAP1 PUSH1 0x0 MSTORE PUSH1 0x20 PUSH1 0x0 KECCAK256 SWAP1 PUSH1 0xB MUL ADD PUSH1 0x7 ADD SLOAD DUP5 PUSH2 0x24D6 SWAP2 SWAP1 PUSH2 0x3C81 JUMP JUMPDEST SWAP4 POP JUMPDEST DUP1 PUSH2 0x24E3 DUP2 PUSH2 0x3D02 JUMP JUMPDEST SWAP2 POP POP PUSH2 0x22D5 JUMP JUMPDEST POP SWAP3 SWAP10 SWAP2 SWAP9 POP SWAP1 SWAP7 POP POP POP POP POP POP POP JUMP JUMPDEST PUSH1 0x0 DUP2 DUP2 MSTORE PUSH1 0x1 PUSH1 0x20 SWAP1 DUP2 MSTORE PUSH1 0x40 SWAP2 DUP3 SWAP1 KECCAK256 PUSH1 0xD ADD DUP1 SLOAD DUP4 MLOAD DUP2 DUP5 MUL DUP2 ADD DUP5 ADD SWAP1 SWAP5 MSTORE DUP1 DUP5 MSTORE PUSH1 0x60 SWAP4 SWAP3 DUP4 ADD DUP3 DUP3 DUP1 ISZERO PUSH2 0x255F JUMPI PUSH1 0x20 MUL DUP3 ADD SWAP2 SWAP1 PUSH1 0x0 MSTORE PUSH1 0x20 PUSH1 0x0 KECCAK256 SWAP1 JUMPDEST DUP2 SLOAD PUSH1 0x1 PUSH1 0x1 PUSH1 0xA0 SHL SUB AND DUP2 MSTORE PUSH1 0x1 SWAP1 SWAP2 ADD SWAP1 PUSH1 0x20 ADD DUP1 DUP4 GT PUSH2 0x2541 JUMPI JUMPDEST POP POP POP POP POP SWAP1 POP SWAP2 SWAP1 POP JUMP JUMPDEST PUSH1 0x6 SLOAD PUSH1 0x1 PUSH1 0x1 PUSH1 0xA0 SHL SUB AND CALLER EQ PUSH2 0x2596 JUMPI PUSH1 0x40 MLOAD PUSH4 0x48E2D49 PUSH1 0xE4 SHL DUP2 MSTORE PUSH1 0x4 ADD PUSH2 0x952 SWAP1 PUSH2 0x38FF JUMP JUMPDEST PUSH1 0x0 SWAP2 DUP3 MSTORE PUSH1 0x1 PUSH1 0x20 DUP2 DUP2 MSTORE PUSH1 0x40 DUP5 KECCAK256 PUSH1 0xE ADD DUP1 SLOAD SWAP3 DUP4 ADD DUP2 SSTORE DUP5 MSTORE SWAP1 SWAP3 KECCAK256 SWAP1 SWAP2 ADD DUP1 SLOAD PUSH1 0x1 PUSH1 0x1 PUSH1 0xA0 SHL SUB NOT AND PUSH1 0x1 PUSH1 0x1 PUSH1 0xA0 SHL SUB SWAP1 SWAP3 AND SWAP2 SWAP1 SWAP2 OR SWAP1 SSTORE JUMP JUMPDEST PUSH1 0x6 SLOAD PUSH1 0x1 PUSH1 0x1 PUSH1 0xA0 SHL SUB AND CALLER EQ PUSH2 0x2602 JUMPI PUSH1 0x40 MLOAD PUSH4 0x48E2D49 PUSH1 0xE4 SHL DUP2 MSTORE PUSH1 0x4 ADD PUSH2 0x952 SWAP1 PUSH2 0x38FF JUMP JUMPDEST PUSH1 0x0 SWAP3 DUP4 MSTORE PUSH1 0x4 PUSH1 0x20 SWAP1 DUP2 MSTORE PUSH1 0x40 DUP1 DUP6 KECCAK256 PUSH1 0x1 PUSH1 0x1 PUSH1 0xA0 SHL SUB SWAP1 SWAP5 AND DUP6 MSTORE SWAP3 DUP2 MSTORE SWAP2 DUP4 KECCAK256 DUP1 SLOAD PUSH1 0x1 DUP2 ADD DUP3 SSTORE SWAP1 DUP5 MSTORE SWAP2 SWAP1 SWAP3 KECCAK256 ADD SSTORE JUMP JUMPDEST PUSH1 0x6 SLOAD PUSH1 0x1 PUSH1 0x1 PUSH1 0xA0 SHL SUB AND CALLER EQ PUSH2 0x2664 JUMPI PUSH1 0x40 MLOAD PUSH4 0x48E2D49 PUSH1 0xE4 SHL DUP2 MSTORE PUSH1 0x4 ADD PUSH2 0x952 SWAP1 PUSH2 0x38FF JUMP JUMPDEST PUSH1 0x0 DUP4 DUP2 MSTORE PUSH1 0x3 PUSH1 0x20 SWAP1 DUP2 MSTORE PUSH1 0x40 DUP1 DUP4 KECCAK256 PUSH1 0x1 PUSH1 0x1 PUSH1 0xA0 SHL SUB DUP7 AND DUP5 MSTORE SWAP1 SWAP2 MSTORE DUP2 KECCAK256 PUSH1 0x1 ADD DUP1 SLOAD DUP4 SWAP3 SWAP1 PUSH2 0x18BE SWAP1 DUP5 SWAP1 PUSH2 0x3C81 JUMP JUMPDEST PUSH1 0x6 SLOAD PUSH1 0x0 SWAP1 PUSH1 0x1 PUSH1 0x1 PUSH1 0xA0 SHL SUB AND CALLER EQ PUSH2 0x26C7 JUMPI PUSH1 0x40 MLOAD PUSH4 0x48E2D49 PUSH1 0xE4 SHL DUP2 MSTORE PUSH1 0x4 ADD PUSH2 0x952 SWAP1 PUSH2 0x38FF JUMP JUMPDEST PUSH1 0x5 DUP1 SLOAD SWAP1 PUSH1 0x0 PUSH2 0x26D7 DUP4 PUSH2 0x3D02 JUMP JUMPDEST SWAP1 SWAP2 SSTORE POP POP PUSH1 0x5 SLOAD PUSH1 0x0 SWAP1 DUP2 MSTORE PUSH1 0x1 PUSH1 0x20 DUP2 DUP2 MSTORE PUSH1 0x40 SWAP1 SWAP3 KECCAK256 DUP1 SLOAD PUSH1 0x1 PUSH1 0x1 PUSH1 0xA0 SHL SUB NOT AND PUSH1 0x1 PUSH1 0x1 PUSH1 0xA0 SHL SUB DUP7 AND OR DUP2 SSTORE DUP6 MLOAD SWAP2 DUP2 ADD SWAP2 SWAP1 SWAP2 SSTORE DUP5 DUP3 ADD MLOAD DUP1 MLOAD SWAP2 SWAP3 PUSH2 0x272C SWAP3 PUSH1 0x2 DUP6 ADD SWAP3 SWAP1 SWAP2 ADD SWAP1 PUSH2 0x2DC6 JUMP JUMPDEST POP PUSH1 0x40 DUP5 ADD MLOAD DUP1 MLOAD PUSH2 0x2748 SWAP2 PUSH1 0x3 DUP5 ADD SWAP2 PUSH1 0x20 SWAP1 SWAP2 ADD SWAP1 PUSH2 0x2DC6 JUMP JUMPDEST POP PUSH1 0x60 DUP5 ADD MLOAD PUSH1 0x4 DUP3 ADD SSTORE PUSH1 0x80 DUP5 ADD MLOAD PUSH1 0x5 DUP3 ADD SSTORE PUSH1 0xA0 DUP5 ADD MLOAD PUSH1 0x6 DUP3 ADD SSTORE PUSH1 0xC0 DUP5 ADD MLOAD DUP1 MLOAD PUSH2 0x2782 SWAP2 PUSH1 0x7 DUP5 ADD SWAP2 PUSH1 0x20 SWAP1 SWAP2 ADD SWAP1 PUSH2 0x2E4A JUMP JUMPDEST POP PUSH1 0xE0 DUP5 ADD MLOAD PUSH1 0x8 DUP3 ADD SSTORE PUSH2 0x100 DUP1 DUP6 ADD MLOAD PUSH1 0x9 DUP4 ADD SSTORE PUSH2 0x160 DUP6 ADD MLOAD PUSH1 0xB DUP4 ADD SSTORE PUSH2 0x120 DUP6 ADD MLOAD PUSH1 0xA DUP4 ADD DUP1 SLOAD PUSH2 0x140 DUP9 ADD MLOAD ISZERO DUP1 ISZERO SWAP1 SWAP5 MUL PUSH2 0xFF00 NOT SWAP4 ISZERO ISZERO SWAP4 SWAP1 SWAP4 AND PUSH2 0xFFFF NOT SWAP1 SWAP2 AND OR SWAP2 SWAP1 SWAP2 OR SWAP1 SSTORE PUSH2 0x2840 JUMPI DUP4 PUSH1 0xE0 ADD MLOAD PUSH1 0x1 EQ DUP1 PUSH2 0x27F0 JUMPI POP DUP4 PUSH1 0xE0 ADD MLOAD PUSH1 0x5 EQ JUMPDEST ISZERO PUSH2 0x2819 JUMPI PUSH1 0x13 DUP2 ADD DUP1 SLOAD PUSH1 0xFF NOT AND SWAP1 SSTORE PUSH1 0x0 PUSH1 0xF DUP3 ADD SSTORE PUSH2 0x180 DUP5 ADD MLOAD MLOAD PUSH1 0x10 DUP3 ADD SSTORE PUSH2 0x289B JUMP JUMPDEST PUSH2 0x180 DUP5 ADD MLOAD MLOAD PUSH1 0xF DUP3 ADD DUP2 SWAP1 SSTORE PUSH1 0x10 DUP3 ADD SSTORE PUSH1 0x13 DUP2 ADD DUP1 SLOAD PUSH1 0xFF NOT AND PUSH1 0x1 OR SWAP1 SSTORE PUSH2 0x289B JUMP JUMPDEST DUP4 PUSH1 0xE0 ADD MLOAD PUSH1 0x1 EQ DUP1 PUSH2 0x2857 JUMPI POP DUP4 PUSH1 0xE0 ADD MLOAD PUSH1 0x5 EQ JUMPDEST ISZERO PUSH2 0x287B JUMPI PUSH1 0x0 PUSH1 0xF DUP3 ADD SSTORE PUSH1 0x1 PUSH1 0x10 DUP3 ADD SSTORE PUSH1 0x13 DUP2 ADD DUP1 SLOAD PUSH1 0xFF NOT AND SWAP1 SSTORE PUSH2 0x289B JUMP JUMPDEST PUSH1 0x1 PUSH1 0xF DUP3 ADD DUP2 SWAP1 SSTORE PUSH1 0x10 DUP3 ADD DUP2 SWAP1 SSTORE PUSH1 0x13 DUP3 ADD DUP1 SLOAD PUSH1 0xFF NOT AND SWAP1 SWAP2 OR SWAP1 SSTORE JUMPDEST PUSH1 0x13 DUP2 ADD DUP1 SLOAD PUSH2 0xFF00 NOT AND PUSH2 0x100 OR SWAP1 SSTORE PUSH1 0x0 JUMPDEST DUP5 PUSH2 0x180 ADD MLOAD MLOAD DUP2 LT ISZERO PUSH2 0x2A1B JUMPI PUSH1 0x0 DUP6 PUSH2 0x180 ADD MLOAD DUP3 DUP2 MLOAD DUP2 LT PUSH2 0x28D6 JUMPI PUSH2 0x28D6 PUSH2 0x3D49 JUMP JUMPDEST PUSH1 0x20 MUL PUSH1 0x20 ADD ADD MLOAD PUSH1 0x60 ADD SWAP1 PUSH1 0xB DUP2 GT ISZERO PUSH2 0x28F3 JUMPI PUSH2 0x28F3 PUSH2 0x3D33 JUMP JUMPDEST SWAP1 DUP2 PUSH1 0xB DUP2 GT ISZERO PUSH2 0x2906 JUMPI PUSH2 0x2906 PUSH2 0x3D33 JUMP JUMPDEST DUP2 MSTORE POP POP DUP2 PUSH1 0xC ADD DUP6 PUSH2 0x180 ADD MLOAD DUP3 DUP2 MLOAD DUP2 LT PUSH2 0x2925 JUMPI PUSH2 0x2925 PUSH2 0x3D49 JUMP JUMPDEST PUSH1 0x20 SWAP1 DUP2 MUL SWAP2 SWAP1 SWAP2 ADD DUP2 ADD MLOAD DUP3 SLOAD PUSH1 0x1 DUP2 ADD DUP5 SSTORE PUSH1 0x0 SWAP4 DUP5 MSTORE SWAP3 DUP3 SWAP1 KECCAK256 DUP2 MLOAD DUP1 MLOAD DUP1 MLOAD SWAP4 SWAP6 PUSH1 0xB MUL SWAP1 SWAP3 ADD SWAP4 SWAP1 SWAP3 DUP5 SWAP3 PUSH2 0x2963 SWAP3 DUP5 SWAP3 SWAP2 ADD SWAP1 PUSH2 0x2DC6 JUMP JUMPDEST POP PUSH1 0x20 DUP3 DUP2 ADD MLOAD PUSH1 0x1 DUP4 ADD SSTORE PUSH1 0x40 DUP4 ADD MLOAD PUSH1 0x2 DUP4 ADD SSTORE PUSH1 0x60 DUP4 ADD MLOAD PUSH1 0x3 DUP4 ADD SSTORE PUSH1 0x80 DUP4 ADD MLOAD PUSH1 0x4 DUP4 ADD SSTORE PUSH1 0xA0 DUP4 ADD MLOAD PUSH1 0x5 DUP4 ADD SSTORE PUSH1 0xC0 DUP4 ADD MLOAD DUP1 MLOAD PUSH2 0x29AE SWAP3 PUSH1 0x6 DUP6 ADD SWAP3 ADD SWAP1 PUSH2 0x2DC6 JUMP JUMPDEST POP POP POP PUSH1 0x20 DUP3 DUP2 ADD MLOAD PUSH1 0x7 DUP4 ADD SSTORE PUSH1 0x40 DUP4 ADD MLOAD DUP1 MLOAD PUSH2 0x29D3 SWAP3 PUSH1 0x8 DUP6 ADD SWAP3 ADD SWAP1 PUSH2 0x2DC6 JUMP JUMPDEST POP PUSH1 0x60 DUP3 ADD MLOAD PUSH1 0x9 DUP3 ADD DUP1 SLOAD PUSH1 0xFF NOT AND PUSH1 0x1 DUP4 PUSH1 0xB DUP2 GT ISZERO PUSH2 0x29F7 JUMPI PUSH2 0x29F7 PUSH2 0x3D33 JUMP JUMPDEST MUL OR SWAP1 SSTORE POP PUSH1 0x80 DUP3 ADD MLOAD DUP2 PUSH1 0xA ADD SSTORE POP POP DUP1 DUP1 PUSH2 0x2A13 SWAP1 PUSH2 0x3D02 JUMP JUMPDEST SWAP2 POP POP PUSH2 0x28AF JUMP JUMPDEST POP POP PUSH1 0x5 SLOAD SWAP4 SWAP3 POP POP POP JUMP JUMPDEST PUSH2 0x2A2F PUSH2 0x2D1C JUMP JUMPDEST PUSH1 0x6 DUP1 SLOAD PUSH1 0x1 PUSH1 0x1 PUSH1 0xA0 SHL SUB NOT AND PUSH1 0x1 PUSH1 0x1 PUSH1 0xA0 SHL SUB SWAP3 SWAP1 SWAP3 AND SWAP2 SWAP1 SWAP2 OR SWAP1 SSTORE JUMP JUMPDEST PUSH1 0x0 DUP3 DUP2 MSTORE PUSH1 0x1 PUSH1 0x20 MSTORE PUSH1 0x40 DUP2 KECCAK256 PUSH1 0xC ADD DUP1 SLOAD DUP4 SWAP1 DUP2 LT PUSH2 0x2A74 JUMPI PUSH2 0x2A74 PUSH2 0x3D49 JUMP JUMPDEST PUSH1 0x0 SWAP2 DUP3 MSTORE PUSH1 0x20 SWAP1 SWAP2 KECCAK256 PUSH1 0xB SWAP1 SWAP2 MUL ADD PUSH1 0x9 ADD SLOAD PUSH1 0xFF AND SWAP4 SWAP3 POP POP POP JUMP JUMPDEST PUSH1 0x0 DUP2 DUP2 MSTORE PUSH1 0x1 PUSH1 0x20 SWAP1 DUP2 MSTORE PUSH1 0x40 SWAP2 DUP3 SWAP1 KECCAK256 PUSH1 0xE ADD DUP1 SLOAD DUP4 MLOAD DUP2 DUP5 MUL DUP2 ADD DUP5 ADD SWAP1 SWAP5 MSTORE DUP1 DUP5 MSTORE PUSH1 0x60 SWAP4 SWAP3 DUP4 ADD DUP3 DUP3 DUP1 ISZERO PUSH2 0x255F JUMPI PUSH1 0x20 MUL DUP3 ADD SWAP2 SWAP1 PUSH1 0x0 MSTORE PUSH1 0x20 PUSH1 0x0 KECCAK256 SWAP1 DUP2 SLOAD PUSH1 0x1 PUSH1 0x1 PUSH1 0xA0 SHL SUB AND DUP2 MSTORE PUSH1 0x1 SWAP1 SWAP2 ADD SWAP1 PUSH1 0x20 ADD DUP1 DUP4 GT PUSH2 0x2541 JUMPI POP POP POP POP POP SWAP1 POP SWAP2 SWAP1 POP JUMP JUMPDEST PUSH1 0x6 SLOAD PUSH1 0x1 PUSH1 0x1 PUSH1 0xA0 SHL SUB AND CALLER EQ PUSH2 0x2B2A JUMPI PUSH1 0x40 MLOAD PUSH4 0x48E2D49 PUSH1 0xE4 SHL DUP2 MSTORE PUSH1 0x4 ADD PUSH2 0x952 SWAP1 PUSH2 0x38FF JUMP JUMPDEST PUSH1 0x0 SWAP2 DUP3 MSTORE PUSH1 0x1 PUSH1 0x20 MSTORE PUSH1 0x40 SWAP1 SWAP2 KECCAK256 PUSH1 0x13 ADD DUP1 SLOAD SWAP2 ISZERO ISZERO PUSH2 0x100 MUL PUSH2 0xFF00 NOT SWAP1 SWAP3 AND SWAP2 SWAP1 SWAP2 OR SWAP1 SSTORE JUMP JUMPDEST PUSH1 0x6 SLOAD PUSH1 0x1 PUSH1 0x1 PUSH1 0xA0 SHL SUB AND CALLER EQ PUSH2 0x2B7F JUMPI PUSH1 0x40 MLOAD PUSH4 0x48E2D49 PUSH1 0xE4 SHL DUP2 MSTORE PUSH1 0x4 ADD PUSH2 0x952 SWAP1 PUSH2 0x38FF JUMP JUMPDEST PUSH1 0x0 DUP3 DUP2 MSTORE PUSH1 0x3 PUSH1 0x20 SWAP1 DUP2 MSTORE PUSH1 0x40 DUP1 DUP4 KECCAK256 PUSH1 0x1 PUSH1 0x1 PUSH1 0xA0 SHL SUB DUP6 AND DUP5 MSTORE SWAP1 SWAP2 MSTORE DUP2 KECCAK256 PUSH1 0x1 ADD DUP1 SLOAD SWAP2 PUSH2 0x1DD0 DUP4 PUSH2 0x3CB0 JUMP JUMPDEST PUSH1 0x6 SLOAD PUSH1 0x1 PUSH1 0x1 PUSH1 0xA0 SHL SUB AND CALLER EQ PUSH2 0x2BDB JUMPI PUSH1 0x40 MLOAD PUSH4 0x48E2D49 PUSH1 0xE4 SHL DUP2 MSTORE PUSH1 0x4 ADD PUSH2 0x952 SWAP1 PUSH2 0x38FF JUMP JUMPDEST PUSH1 0x0 SWAP3 DUP4 MSTORE PUSH1 0x3 PUSH1 0x20 SWAP1 DUP2 MSTORE PUSH1 0x40 DUP1 DUP6 KECCAK256 PUSH1 0x1 PUSH1 0x1 PUSH1 0xA0 SHL SUB SWAP1 SWAP4 AND DUP6 MSTORE SWAP2 DUP2 MSTORE DUP2 DUP5 KECCAK256 SWAP3 DUP5 MSTORE PUSH1 0x2 SWAP3 DUP4 ADD SWAP1 MSTORE SWAP1 SWAP2 KECCAK256 ADD DUP1 SLOAD PUSH1 0xFF NOT AND PUSH1 0x1 OR SWAP1 SSTORE JUMP JUMPDEST PUSH1 0x0 DUP3 DUP2 MSTORE PUSH1 0x1 PUSH1 0x20 MSTORE PUSH1 0x40 DUP2 KECCAK256 PUSH1 0xC ADD DUP1 SLOAD DUP4 SWAP1 DUP2 LT PUSH2 0x2C3D JUMPI PUSH2 0x2C3D PUSH2 0x3D49 JUMP JUMPDEST SWAP1 PUSH1 0x0 MSTORE PUSH1 0x20 PUSH1 0x0 KECCAK256 SWAP1 PUSH1 0xB MUL ADD PUSH1 0x7 ADD SLOAD SWAP1 POP SWAP3 SWAP2 POP POP JUMP JUMPDEST PUSH2 0x2C5F PUSH2 0x2D1C JUMP JUMPDEST PUSH1 0x1 PUSH1 0x1 PUSH1 0xA0 SHL SUB DUP2 AND PUSH2 0x2CC4 JUMPI PUSH1 0x40 MLOAD PUSH3 0x461BCD PUSH1 0xE5 SHL DUP2 MSTORE PUSH1 0x20 PUSH1 0x4 DUP3 ADD MSTORE PUSH1 0x26 PUSH1 0x24 DUP3 ADD MSTORE PUSH32 0x4F776E61626C653A206E6577206F776E657220697320746865207A65726F2061 PUSH1 0x44 DUP3 ADD MSTORE PUSH6 0x646472657373 PUSH1 0xD0 SHL PUSH1 0x64 DUP3 ADD MSTORE PUSH1 0x84 ADD PUSH2 0x952 JUMP JUMPDEST PUSH2 0x2CCD DUP2 PUSH2 0x2D76 JUMP JUMPDEST POP JUMP JUMPDEST PUSH1 0x6 SLOAD PUSH1 0x1 PUSH1 0x1 PUSH1 0xA0 SHL SUB AND CALLER EQ PUSH2 0x2CFB JUMPI PUSH1 0x40 MLOAD PUSH4 0x48E2D49 PUSH1 0xE4 SHL DUP2 MSTORE PUSH1 0x4 ADD PUSH2 0x952 SWAP1 PUSH2 0x38FF JUMP JUMPDEST PUSH1 0x0 DUP3 DUP2 MSTORE PUSH1 0x1 PUSH1 0x20 MSTORE PUSH1 0x40 DUP2 KECCAK256 PUSH1 0x11 ADD DUP1 SLOAD DUP4 SWAP3 SWAP1 PUSH2 0xCE5 SWAP1 DUP5 SWAP1 PUSH2 0x3C81 JUMP JUMPDEST PUSH1 0x0 SLOAD PUSH1 0x1 PUSH1 0x1 PUSH1 0xA0 SHL SUB AND CALLER EQ PUSH2 0x1D72 JUMPI PUSH1 0x40 MLOAD PUSH3 0x461BCD PUSH1 0xE5 SHL DUP2 MSTORE PUSH1 0x20 PUSH1 0x4 DUP3 ADD DUP2 SWAP1 MSTORE PUSH1 0x24 DUP3 ADD MSTORE PUSH32 0x4F776E61626C653A2063616C6C6572206973206E6F7420746865206F776E6572 PUSH1 0x44 DUP3 ADD MSTORE PUSH1 0x64 ADD PUSH2 0x952 JUMP JUMPDEST PUSH1 0x0 DUP1 SLOAD PUSH1 0x1 PUSH1 0x1 PUSH1 0xA0 SHL SUB DUP4 DUP2 AND PUSH1 0x1 PUSH1 0x1 PUSH1 0xA0 SHL SUB NOT DUP4 AND DUP2 OR DUP5 SSTORE PUSH1 0x40 MLOAD SWAP2 SWAP1 SWAP3 AND SWAP3 DUP4 SWAP2 PUSH32 0x8BE0079C531659141344CD1FD0A4F28419497F9722A3DAAFE3B4186F6B6457E0 SWAP2 SWAP1 LOG3 POP POP JUMP JUMPDEST DUP3 DUP1 SLOAD PUSH2 0x2DD2 SWAP1 PUSH2 0x3CC7 JUMP JUMPDEST SWAP1 PUSH1 0x0 MSTORE PUSH1 0x20 PUSH1 0x0 KECCAK256 SWAP1 PUSH1 0x1F ADD PUSH1 0x20 SWAP1 DIV DUP2 ADD SWAP3 DUP3 PUSH2 0x2DF4 JUMPI PUSH1 0x0 DUP6 SSTORE PUSH2 0x2E3A JUMP JUMPDEST DUP3 PUSH1 0x1F LT PUSH2 0x2E0D JUMPI DUP1 MLOAD PUSH1 0xFF NOT AND DUP4 DUP1 ADD OR DUP6 SSTORE PUSH2 0x2E3A JUMP JUMPDEST DUP3 DUP1 ADD PUSH1 0x1 ADD DUP6 SSTORE DUP3 ISZERO PUSH2 0x2E3A JUMPI SWAP2 DUP3 ADD JUMPDEST DUP3 DUP2 GT ISZERO PUSH2 0x2E3A JUMPI DUP3 MLOAD DUP3 SSTORE SWAP2 PUSH1 0x20 ADD SWAP2 SWAP1 PUSH1 0x1 ADD SWAP1 PUSH2 0x2E1F JUMP JUMPDEST POP PUSH2 0x2E46 SWAP3 SWAP2 POP PUSH2 0x2F7D JUMP JUMPDEST POP SWAP1 JUMP JUMPDEST DUP3 DUP1 SLOAD DUP3 DUP3 SSTORE SWAP1 PUSH1 0x0 MSTORE PUSH1 0x20 PUSH1 0x0 KECCAK256 SWAP1 DUP2 ADD SWAP3 DUP3 ISZERO PUSH2 0x2E3A JUMPI SWAP2 PUSH1 0x20 MUL DUP3 ADD DUP3 DUP2 GT ISZERO PUSH2 0x2E3A JUMPI DUP3 MLOAD DUP3 SSTORE SWAP2 PUSH1 0x20 ADD SWAP2 SWAP1 PUSH1 0x1 ADD SWAP1 PUSH2 0x2E1F JUMP JUMPDEST PUSH1 0x40 MLOAD DUP1 PUSH2 0x2E0 ADD PUSH1 0x40 MSTORE DUP1 PUSH1 0x0 PUSH1 0x1 PUSH1 0x1 PUSH1 0xA0 SHL SUB AND DUP2 MSTORE PUSH1 0x20 ADD PUSH1 0x0 DUP2 MSTORE PUSH1 0x20 ADD PUSH1 0x60 DUP2 MSTORE PUSH1 0x20 ADD PUSH1 0x60 DUP2 MSTORE PUSH1 0x20 ADD PUSH1 0x0 DUP2 MSTORE PUSH1 0x20 ADD PUSH1 0x0 DUP2 MSTORE PUSH1 0x20 ADD PUSH1 0x0 DUP2 MSTORE PUSH1 0x20 ADD PUSH1 0x60 DUP2 MSTORE PUSH1 0x20 ADD PUSH1 0x0 DUP2 MSTORE PUSH1 0x20 ADD PUSH1 0x0 DUP2 MSTORE PUSH1 0x20 ADD PUSH1 0x0 ISZERO ISZERO DUP2 MSTORE PUSH1 0x20 ADD PUSH1 0x0 ISZERO ISZERO DUP2 MSTORE PUSH1 0x20 ADD PUSH1 0x0 DUP2 MSTORE PUSH1 0x20 ADD PUSH1 0x60 DUP2 MSTORE PUSH1 0x20 ADD PUSH1 0x60 DUP2 MSTORE PUSH1 0x20 ADD PUSH1 0x60 DUP2 MSTORE PUSH1 0x20 ADD PUSH1 0x0 DUP2 MSTORE PUSH1 0x20 ADD PUSH1 0x0 DUP2 MSTORE PUSH1 0x20 ADD PUSH1 0x0 DUP2 MSTORE PUSH1 0x20 ADD PUSH1 0x0 DUP2 MSTORE PUSH1 0x20 ADD PUSH1 0x0 ISZERO ISZERO DUP2 MSTORE PUSH1 0x20 ADD PUSH1 0x0 ISZERO ISZERO DUP2 MSTORE PUSH1 0x20 ADD PUSH1 0x0 PUSH1 0x7 DUP2 GT ISZERO PUSH2 0x2F4E JUMPI PUSH2 0x2F4E PUSH2 0x3D33 JUMP JUMPDEST SWAP1 MSTORE SWAP1 JUMP JUMPDEST PUSH1 0x40 MLOAD DUP1 PUSH1 0x60 ADD PUSH1 0x40 MSTORE DUP1 PUSH1 0x0 PUSH1 0x1 PUSH1 0x1 PUSH1 0xA0 SHL SUB AND DUP2 MSTORE PUSH1 0x20 ADD PUSH1 0x60 DUP2 MSTORE PUSH1 0x20 ADD PUSH1 0x60 DUP2 MSTORE POP SWAP1 JUMP JUMPDEST JUMPDEST DUP1 DUP3 GT ISZERO PUSH2 0x2E46 JUMPI PUSH1 0x0 DUP2 SSTORE PUSH1 0x1 ADD PUSH2 0x2F7E JUMP JUMPDEST DUP1 CALLDATALOAD PUSH1 0x1 PUSH1 0x1 PUSH1 0xA0 SHL SUB DUP2 AND DUP2 EQ PUSH2 0x2FA9 JUMPI PUSH1 0x0 DUP1 REVERT JUMPDEST SWAP2 SWAP1 POP JUMP JUMPDEST PUSH1 0x0 DUP3 PUSH1 0x1F DUP4 ADD SLT PUSH2 0x2FBF JUMPI PUSH1 0x0 DUP1 REVERT JUMPDEST PUSH1 0x20 PUSH2 0x2FD3 PUSH2 0x2FCE DUP5 CALLDATALOAD PUSH2 0x3C5E JUMP JUMPDEST PUSH2 0x3C2E JUMP JUMPDEST DUP1 DUP5 CALLDATALOAD DUP3 MSTORE DUP3 DUP3 ADD SWAP2 POP DUP3 DUP6 ADD DUP7 DUP5 DUP8 CALLDATALOAD PUSH1 0x5 SHL DUP9 ADD ADD GT ISZERO PUSH2 0x2FF5 JUMPI PUSH1 0x0 DUP1 REVERT JUMPDEST PUSH1 0x0 JUMPDEST DUP7 CALLDATALOAD DUP2 LT ISZERO PUSH2 0x3144 JUMPI PUSH1 0x1 PUSH1 0x1 PUSH1 0x40 SHL SUB DUP1 DUP4 CALLDATALOAD GT ISZERO PUSH2 0x3017 JUMPI PUSH1 0x0 DUP1 REVERT JUMPDEST DUP3 CALLDATALOAD DUP9 ADD PUSH1 0x1F NOT PUSH1 0xA0 DUP3 DUP13 SUB DUP3 ADD SLT ISZERO PUSH2 0x3030 JUMPI PUSH1 0x0 DUP1 REVERT JUMPDEST PUSH2 0x3038 PUSH2 0x3BC1 JUMP JUMPDEST DUP9 DUP4 ADD CALLDATALOAD DUP5 DUP2 GT ISZERO PUSH2 0x3049 JUMPI PUSH1 0x0 DUP1 REVERT JUMPDEST DUP4 ADD PUSH1 0xE0 DUP2 DUP15 SUB DUP5 ADD SLT ISZERO PUSH2 0x305D JUMPI PUSH1 0x0 DUP1 REVERT JUMPDEST PUSH2 0x3065 PUSH2 0x3BE9 JUMP JUMPDEST SWAP3 POP DUP10 DUP2 ADD CALLDATALOAD DUP6 DUP2 GT ISZERO PUSH2 0x3078 JUMPI PUSH1 0x0 DUP1 REVERT JUMPDEST PUSH2 0x3086 DUP15 DUP13 DUP4 DUP6 ADD ADD PUSH2 0x31DC JUMP JUMPDEST DUP5 MSTORE POP PUSH1 0x40 DUP2 ADD CALLDATALOAD DUP11 DUP5 ADD MSTORE PUSH1 0x60 DUP2 ADD CALLDATALOAD PUSH1 0x40 DUP5 ADD MSTORE PUSH1 0x80 DUP2 ADD CALLDATALOAD PUSH1 0x60 DUP5 ADD MSTORE PUSH1 0xA0 DUP2 ADD CALLDATALOAD PUSH1 0x80 DUP5 ADD MSTORE PUSH1 0xC0 DUP2 ADD CALLDATALOAD PUSH1 0xA0 DUP5 ADD MSTORE PUSH1 0xE0 DUP2 ADD CALLDATALOAD DUP6 DUP2 GT ISZERO PUSH2 0x30CC JUMPI PUSH1 0x0 DUP1 REVERT JUMPDEST PUSH2 0x30DA DUP15 DUP13 DUP4 DUP6 ADD ADD PUSH2 0x31DC JUMP JUMPDEST PUSH1 0xC0 DUP6 ADD MSTORE POP POP SWAP1 DUP2 MSTORE PUSH1 0x40 DUP3 ADD CALLDATALOAD DUP9 DUP3 ADD MSTORE PUSH1 0x60 DUP3 ADD CALLDATALOAD SWAP1 DUP4 DUP3 GT ISZERO PUSH2 0x3100 JUMPI PUSH1 0x0 DUP1 REVERT JUMPDEST PUSH2 0x310E DUP13 DUP11 DUP5 DUP7 ADD ADD PUSH2 0x31DC JUMP JUMPDEST PUSH1 0x40 DUP3 ADD MSTORE PUSH2 0x311F PUSH1 0x80 DUP5 ADD PUSH2 0x31CD JUMP JUMPDEST PUSH1 0x60 DUP3 ADD MSTORE PUSH1 0xA0 SWAP3 SWAP1 SWAP3 ADD CALLDATALOAD PUSH1 0x80 DUP4 ADD MSTORE POP DUP6 MSTORE POP SWAP3 DUP5 ADD SWAP3 SWAP1 DUP5 ADD SWAP1 PUSH1 0x1 ADD PUSH2 0x2FF8 JUMP JUMPDEST POP SWAP1 SWAP7 SWAP6 POP POP POP POP POP POP JUMP JUMPDEST PUSH1 0x0 DUP3 PUSH1 0x1F DUP4 ADD SLT PUSH2 0x3161 JUMPI PUSH1 0x0 DUP1 REVERT JUMPDEST DUP2 CALLDATALOAD PUSH1 0x20 PUSH2 0x3171 PUSH2 0x2FCE DUP4 PUSH2 0x3C5E JUMP JUMPDEST DUP1 DUP4 DUP3 MSTORE DUP3 DUP3 ADD SWAP2 POP DUP3 DUP7 ADD DUP8 DUP5 DUP7 PUSH1 0x5 SHL DUP10 ADD ADD GT ISZERO PUSH2 0x3191 JUMPI PUSH1 0x0 DUP1 REVERT JUMPDEST PUSH1 0x0 JUMPDEST DUP6 DUP2 LT ISZERO PUSH2 0x31B0 JUMPI DUP2 CALLDATALOAD DUP5 MSTORE SWAP3 DUP5 ADD SWAP3 SWAP1 DUP5 ADD SWAP1 PUSH1 0x1 ADD PUSH2 0x3194 JUMP JUMPDEST POP SWAP1 SWAP8 SWAP7 POP POP POP POP POP POP POP JUMP JUMPDEST DUP1 CALLDATALOAD DUP1 ISZERO ISZERO DUP2 EQ PUSH2 0x2FA9 JUMPI PUSH1 0x0 DUP1 REVERT JUMPDEST DUP1 CALLDATALOAD PUSH1 0xC DUP2 LT PUSH2 0x2FA9 JUMPI PUSH1 0x0 DUP1 REVERT JUMPDEST PUSH1 0x0 DUP3 PUSH1 0x1F DUP4 ADD SLT PUSH2 0x31ED JUMPI PUSH1 0x0 DUP1 REVERT JUMPDEST DUP2 CALLDATALOAD PUSH1 0x1 PUSH1 0x1 PUSH1 0x40 SHL SUB DUP2 GT ISZERO PUSH2 0x3206 JUMPI PUSH2 0x3206 PUSH2 0x3D5F JUMP JUMPDEST PUSH2 0x3219 PUSH1 0x1F DUP3 ADD PUSH1 0x1F NOT AND PUSH1 0x20 ADD PUSH2 0x3C2E JUMP JUMPDEST DUP2 DUP2 MSTORE DUP5 PUSH1 0x20 DUP4 DUP7 ADD ADD GT ISZERO PUSH2 0x322E JUMPI PUSH1 0x0 DUP1 REVERT JUMPDEST DUP2 PUSH1 0x20 DUP6 ADD PUSH1 0x20 DUP4 ADD CALLDATACOPY PUSH1 0x0 SWAP2 DUP2 ADD PUSH1 0x20 ADD SWAP2 SWAP1 SWAP2 MSTORE SWAP4 SWAP3 POP POP POP JUMP JUMPDEST PUSH1 0x0 PUSH2 0x1A0 DUP3 DUP5 SUB SLT ISZERO PUSH2 0x325E JUMPI PUSH1 0x0 DUP1 REVERT JUMPDEST PUSH2 0x3266 PUSH2 0x3C0B JUMP JUMPDEST SWAP1 POP DUP2 CALLDATALOAD DUP2 MSTORE PUSH1 0x20 DUP3 ADD CALLDATALOAD PUSH1 0x1 PUSH1 0x1 PUSH1 0x40 SHL SUB DUP1 DUP3 GT ISZERO PUSH2 0x3286 JUMPI PUSH1 0x0 DUP1 REVERT JUMPDEST PUSH2 0x3292 DUP6 DUP4 DUP7 ADD PUSH2 0x31DC JUMP JUMPDEST PUSH1 0x20 DUP5 ADD MSTORE PUSH1 0x40 DUP5 ADD CALLDATALOAD SWAP2 POP DUP1 DUP3 GT ISZERO PUSH2 0x32AB JUMPI PUSH1 0x0 DUP1 REVERT JUMPDEST PUSH2 0x32B7 DUP6 DUP4 DUP7 ADD PUSH2 0x31DC JUMP JUMPDEST PUSH1 0x40 DUP5 ADD MSTORE PUSH1 0x60 DUP5 ADD CALLDATALOAD PUSH1 0x60 DUP5 ADD MSTORE PUSH1 0x80 DUP5 ADD CALLDATALOAD PUSH1 0x80 DUP5 ADD MSTORE PUSH1 0xA0 DUP5 ADD CALLDATALOAD PUSH1 0xA0 DUP5 ADD MSTORE PUSH1 0xC0 DUP5 ADD CALLDATALOAD SWAP2 POP DUP1 DUP3 GT ISZERO PUSH2 0x32EE JUMPI PUSH1 0x0 DUP1 REVERT JUMPDEST PUSH2 0x32FA DUP6 DUP4 DUP7 ADD PUSH2 0x3150 JUMP JUMPDEST PUSH1 0xC0 DUP5 ADD MSTORE PUSH1 0xE0 DUP5 DUP2 ADD CALLDATALOAD SWAP1 DUP5 ADD MSTORE PUSH2 0x100 DUP1 DUP6 ADD CALLDATALOAD SWAP1 DUP5 ADD MSTORE PUSH2 0x120 SWAP2 POP PUSH2 0x3324 DUP3 DUP6 ADD PUSH2 0x31BD JUMP JUMPDEST DUP3 DUP5 ADD MSTORE PUSH2 0x140 SWAP2 POP PUSH2 0x3338 DUP3 DUP6 ADD PUSH2 0x31BD JUMP JUMPDEST DUP3 DUP5 ADD MSTORE PUSH2 0x160 SWAP2 POP DUP2 DUP5 ADD CALLDATALOAD DUP3 DUP5 ADD MSTORE PUSH2 0x180 SWAP2 POP DUP2 DUP5 ADD CALLDATALOAD DUP2 DUP2 GT ISZERO PUSH2 0x335F JUMPI PUSH1 0x0 DUP1 REVERT JUMPDEST PUSH2 0x336B DUP7 DUP3 DUP8 ADD PUSH2 0x2FAE JUMP JUMPDEST DUP4 DUP6 ADD MSTORE POP POP POP SWAP3 SWAP2 POP POP JUMP JUMPDEST PUSH1 0x0 PUSH1 0x20 DUP3 DUP5 SUB SLT ISZERO PUSH2 0x338A JUMPI PUSH1 0x0 DUP1 REVERT JUMPDEST PUSH2 0x2122 DUP3 PUSH2 0x2F92 JUMP JUMPDEST PUSH1 0x0 DUP1 PUSH1 0x40 DUP4 DUP6 SUB SLT ISZERO PUSH2 0x33A6 JUMPI PUSH1 0x0 DUP1 REVERT JUMPDEST PUSH2 0x33AF DUP4 PUSH2 0x2F92 JUMP JUMPDEST SWAP5 PUSH1 0x20 SWAP4 SWAP1 SWAP4 ADD CALLDATALOAD SWAP4 POP POP POP JUMP JUMPDEST PUSH1 0x0 DUP1 PUSH1 0x0 PUSH1 0x60 DUP5 DUP7 SUB SLT ISZERO PUSH2 0x33D2 JUMPI PUSH1 0x0 DUP1 REVERT JUMPDEST PUSH2 0x33DB DUP5 PUSH2 0x2F92 JUMP JUMPDEST SWAP6 PUSH1 0x20 DUP6 ADD CALLDATALOAD SWAP6 POP PUSH1 0x40 SWAP1 SWAP5 ADD CALLDATALOAD SWAP4 SWAP3 POP POP POP JUMP JUMPDEST PUSH1 0x0 DUP1 PUSH1 0x40 DUP4 DUP6 SUB SLT ISZERO PUSH2 0x3403 JUMPI PUSH1 0x0 DUP1 REVERT JUMPDEST DUP3 CALLDATALOAD PUSH1 0x1 PUSH1 0x1 PUSH1 0x40 SHL SUB DUP2 GT ISZERO PUSH2 0x3419 JUMPI PUSH1 0x0 DUP1 REVERT JUMPDEST PUSH2 0x3425 DUP6 DUP3 DUP7 ADD PUSH2 0x324B JUMP JUMPDEST SWAP3 POP POP PUSH2 0x3434 PUSH1 0x20 DUP5 ADD PUSH2 0x2F92 JUMP JUMPDEST SWAP1 POP SWAP3 POP SWAP3 SWAP1 POP JUMP JUMPDEST PUSH1 0x0 PUSH1 0x20 DUP3 DUP5 SUB SLT ISZERO PUSH2 0x344F JUMPI PUSH1 0x0 DUP1 REVERT JUMPDEST POP CALLDATALOAD SWAP2 SWAP1 POP JUMP JUMPDEST PUSH1 0x0 DUP1 PUSH1 0x40 DUP4 DUP6 SUB SLT ISZERO PUSH2 0x3469 JUMPI PUSH1 0x0 DUP1 REVERT JUMPDEST DUP3 CALLDATALOAD SWAP2 POP PUSH2 0x3434 PUSH1 0x20 DUP5 ADD PUSH2 0x2F92 JUMP JUMPDEST PUSH1 0x0 DUP1 PUSH1 0x0 PUSH1 0x60 DUP5 DUP7 SUB SLT ISZERO PUSH2 0x348E JUMPI PUSH1 0x0 DUP1 REVERT JUMPDEST DUP4 CALLDATALOAD SWAP3 POP PUSH2 0x349E PUSH1 0x20 DUP6 ADD PUSH2 0x2F92 JUMP JUMPDEST SWAP2 POP PUSH2 0x34AC PUSH1 0x40 DUP6 ADD PUSH2 0x31BD JUMP JUMPDEST SWAP1 POP SWAP3 POP SWAP3 POP SWAP3 JUMP JUMPDEST PUSH1 0x0 DUP1 PUSH1 0x0 PUSH1 0x60 DUP5 DUP7 SUB SLT ISZERO PUSH2 0x34CA JUMPI PUSH1 0x0 DUP1 REVERT JUMPDEST DUP4 CALLDATALOAD SWAP3 POP PUSH2 0x34DA PUSH1 0x20 DUP6 ADD PUSH2 0x2F92 JUMP JUMPDEST SWAP2 POP PUSH1 0x40 DUP5 ADD CALLDATALOAD SWAP1 POP SWAP3 POP SWAP3 POP SWAP3 JUMP JUMPDEST PUSH1 0x0 DUP1 PUSH1 0x0 DUP1 PUSH1 0x80 DUP6 DUP8 SUB SLT ISZERO PUSH2 0x3500 JUMPI PUSH1 0x0 DUP1 REVERT JUMPDEST DUP5 CALLDATALOAD SWAP4 POP PUSH2 0x3510 PUSH1 0x20 DUP7 ADD PUSH2 0x2F92 JUMP JUMPDEST SWAP3 POP PUSH1 0x40 DUP6 ADD CALLDATALOAD SWAP2 POP PUSH1 0x60 DUP6 ADD CALLDATALOAD PUSH1 0x5 DUP2 LT PUSH2 0x352B JUMPI PUSH1 0x0 DUP1 REVERT JUMPDEST SWAP4 SWAP7 SWAP3 SWAP6 POP SWAP1 SWAP4 POP POP JUMP JUMPDEST PUSH1 0x0 DUP1 PUSH1 0x0 DUP1 PUSH1 0x80 DUP6 DUP8 SUB SLT ISZERO PUSH2 0x354C JUMPI PUSH1 0x0 DUP1 REVERT JUMPDEST DUP5 CALLDATALOAD SWAP4 POP PUSH2 0x355C PUSH1 0x20 DUP7 ADD PUSH2 0x2F92 JUMP JUMPDEST SWAP3 POP PUSH1 0x40 DUP6 ADD CALLDATALOAD SWAP2 POP PUSH1 0x60 DUP6 ADD CALLDATALOAD PUSH1 0x1 PUSH1 0x1 PUSH1 0x40 SHL SUB DUP2 GT ISZERO PUSH2 0x357E JUMPI PUSH1 0x0 DUP1 REVERT JUMPDEST PUSH2 0x358A DUP8 DUP3 DUP9 ADD PUSH2 0x31DC JUMP JUMPDEST SWAP2 POP POP SWAP3 SWAP6 SWAP2 SWAP5 POP SWAP3 POP JUMP JUMPDEST PUSH1 0x0 DUP1 PUSH1 0x40 DUP4 DUP6 SUB SLT ISZERO PUSH2 0x35A9 JUMPI PUSH1 0x0 DUP1 REVERT JUMPDEST DUP3 CALLDATALOAD SWAP2 POP PUSH2 0x3434 PUSH1 0x20 DUP5 ADD PUSH2 0x31BD JUMP JUMPDEST PUSH1 0x0 DUP1 PUSH1 0x40 DUP4 DUP6 SUB SLT ISZERO PUSH2 0x35CC JUMPI PUSH1 0x0 DUP1 REVERT JUMPDEST DUP3 CALLDATALOAD SWAP2 POP PUSH1 0x20 DUP4 ADD CALLDATALOAD PUSH1 0x8 DUP2 LT PUSH2 0x35E2 JUMPI PUSH1 0x0 DUP1 REVERT JUMPDEST DUP1 SWAP2 POP POP SWAP3 POP SWAP3 SWAP1 POP JUMP JUMPDEST PUSH1 0x0 DUP1 PUSH1 0x40 DUP4 DUP6 SUB SLT ISZERO PUSH2 0x3600 JUMPI PUSH1 0x0 DUP1 REVERT JUMPDEST DUP3 CALLDATALOAD SWAP2 POP PUSH1 0x20 DUP4 ADD CALLDATALOAD PUSH1 0x1 PUSH1 0x1 PUSH1 0x40 SHL SUB DUP2 GT ISZERO PUSH2 0x361D JUMPI PUSH1 0x0 DUP1 REVERT JUMPDEST PUSH2 0x3629 DUP6 DUP3 DUP7 ADD PUSH2 0x324B JUMP JUMPDEST SWAP2 POP POP SWAP3 POP SWAP3 SWAP1 POP JUMP JUMPDEST PUSH1 0x0 DUP1 PUSH1 0x40 DUP4 DUP6 SUB SLT ISZERO PUSH2 0x3646 JUMPI PUSH1 0x0 DUP1 REVERT JUMPDEST POP POP DUP1 CALLDATALOAD SWAP3 PUSH1 0x20 SWAP1 SWAP2 ADD CALLDATALOAD SWAP2 POP JUMP JUMPDEST PUSH1 0x0 DUP1 PUSH1 0x0 PUSH1 0x60 DUP5 DUP7 SUB SLT ISZERO PUSH2 0x366A JUMPI PUSH1 0x0 DUP1 REVERT JUMPDEST DUP4 CALLDATALOAD SWAP3 POP PUSH1 0x20 DUP5 ADD CALLDATALOAD SWAP2 POP PUSH2 0x34AC PUSH1 0x40 DUP6 ADD PUSH2 0x2F92 JUMP JUMPDEST PUSH1 0x0 DUP1 PUSH1 0x0 PUSH1 0x60 DUP5 DUP7 SUB SLT ISZERO PUSH2 0x3696 JUMPI PUSH1 0x0 DUP1 REVERT JUMPDEST DUP4 CALLDATALOAD SWAP3 POP PUSH1 0x20 DUP5 ADD CALLDATALOAD SWAP2 POP PUSH2 0x34AC PUSH1 0x40 DUP6 ADD PUSH2 0x31CD JUMP JUMPDEST PUSH1 0x0 DUP2 MLOAD DUP1 DUP5 MSTORE PUSH1 0x20 DUP1 DUP6 ADD SWAP5 POP DUP1 DUP5 ADD PUSH1 0x0 JUMPDEST DUP4 DUP2 LT ISZERO PUSH2 0x36E6 JUMPI DUP2 MLOAD PUSH1 0x1 PUSH1 0x1 PUSH1 0xA0 SHL SUB AND DUP8 MSTORE SWAP6 DUP3 ADD SWAP6 SWAP1 DUP3 ADD SWAP1 PUSH1 0x1 ADD PUSH2 0x36C1 JUMP JUMPDEST POP SWAP5 SWAP6 SWAP5 POP POP POP POP POP JUMP JUMPDEST PUSH1 0x0 DUP2 MLOAD DUP1 DUP5 MSTORE PUSH1 0x20 DUP1 DUP6 ADD DUP1 DUP2 SWAP7 POP DUP4 PUSH1 0x5 SHL DUP2 ADD SWAP2 POP DUP3 DUP7 ADD PUSH1 0x0 JUMPDEST DUP6 DUP2 LT ISZERO PUSH2 0x37ED JUMPI DUP3 DUP5 SUB DUP10 MSTORE DUP2 MLOAD PUSH1 0xA0 DUP2 MLOAD DUP2 DUP8 MSTORE DUP1 MLOAD PUSH1 0xE0 DUP1 DUP5 DUP11 ADD MSTORE PUSH2 0x373C PUSH2 0x180 DUP11 ADD DUP4 PUSH2 0x384E JUMP JUMPDEST SWAP2 POP DUP10 DUP4 ADD MLOAD PUSH1 0xC0 DUP2 DUP2 DUP13 ADD MSTORE PUSH1 0x40 SWAP2 POP DUP2 DUP6 ADD MLOAD DUP4 DUP13 ADD MSTORE PUSH1 0x60 SWAP3 POP DUP3 DUP6 ADD MLOAD PUSH2 0x100 DUP13 ADD MSTORE PUSH1 0x80 DUP1 DUP7 ADD MLOAD PUSH2 0x120 DUP14 ADD MSTORE DUP7 DUP7 ADD MLOAD PUSH2 0x140 DUP14 ADD MSTORE DUP2 DUP7 ADD MLOAD SWAP7 POP PUSH1 0x9F NOT DUP13 DUP7 SUB ADD PUSH2 0x160 DUP14 ADD MSTORE PUSH2 0x3796 DUP6 DUP9 PUSH2 0x384E JUMP JUMPDEST SWAP7 POP DUP13 DUP9 ADD MLOAD DUP14 DUP14 ADD MSTORE DUP3 DUP9 ADD MLOAD SWAP6 POP DUP12 DUP8 SUB DUP4 DUP14 ADD MSTORE PUSH2 0x37B7 DUP8 DUP8 PUSH2 0x384E JUMP JUMPDEST SWAP7 POP DUP4 DUP9 ADD MLOAD SWAP6 POP PUSH2 0x37CB DUP5 DUP14 ADD DUP8 PUSH2 0x382A JUMP JUMPDEST SWAP7 DUP8 ADD MLOAD SWAP11 SWAP1 SWAP7 ADD SWAP10 SWAP1 SWAP10 MSTORE POP POP POP SWAP10 DUP7 ADD SWAP10 SWAP5 POP POP SWAP1 DUP5 ADD SWAP1 PUSH1 0x1 ADD PUSH2 0x370F JUMP JUMPDEST POP SWAP2 SWAP8 SWAP7 POP POP POP POP POP POP POP JUMP JUMPDEST PUSH1 0x0 DUP2 MLOAD DUP1 DUP5 MSTORE PUSH1 0x20 DUP1 DUP6 ADD SWAP5 POP DUP1 DUP5 ADD PUSH1 0x0 JUMPDEST DUP4 DUP2 LT ISZERO PUSH2 0x36E6 JUMPI DUP2 MLOAD DUP8 MSTORE SWAP6 DUP3 ADD SWAP6 SWAP1 DUP3 ADD SWAP1 PUSH1 0x1 ADD PUSH2 0x380E JUMP JUMPDEST PUSH1 0xC DUP2 LT PUSH2 0x383A JUMPI PUSH2 0x383A PUSH2 0x3D33 JUMP JUMPDEST SWAP1 MSTORE JUMP JUMPDEST PUSH1 0x8 DUP2 LT PUSH2 0x383A JUMPI PUSH2 0x383A PUSH2 0x3D33 JUMP JUMPDEST PUSH1 0x0 DUP2 MLOAD DUP1 DUP5 MSTORE PUSH1 0x0 JUMPDEST DUP2 DUP2 LT ISZERO PUSH2 0x3874 JUMPI PUSH1 0x20 DUP2 DUP6 ADD DUP2 ADD MLOAD DUP7 DUP4 ADD DUP3 ADD MSTORE ADD PUSH2 0x3858 JUMP JUMPDEST DUP2 DUP2 GT ISZERO PUSH2 0x3886 JUMPI PUSH1 0x0 PUSH1 0x20 DUP4 DUP8 ADD ADD MSTORE JUMPDEST POP PUSH1 0x1F ADD PUSH1 0x1F NOT AND SWAP3 SWAP1 SWAP3 ADD PUSH1 0x20 ADD SWAP3 SWAP2 POP POP JUMP JUMPDEST PUSH1 0x20 DUP2 MSTORE PUSH1 0x0 PUSH2 0x2122 PUSH1 0x20 DUP4 ADD DUP5 PUSH2 0x36AD JUMP JUMPDEST PUSH1 0x20 DUP2 MSTORE PUSH1 0x0 PUSH2 0x2122 PUSH1 0x20 DUP4 ADD DUP5 PUSH2 0x36F1 JUMP JUMPDEST PUSH1 0x40 DUP2 MSTORE PUSH1 0x0 PUSH2 0x38D4 PUSH1 0x40 DUP4 ADD DUP6 PUSH2 0x37FA JUMP JUMPDEST SWAP1 POP DUP3 PUSH1 0x20 DUP4 ADD MSTORE SWAP4 SWAP3 POP POP POP JUMP JUMPDEST PUSH1 0x20 DUP2 ADD PUSH2 0xD78 DUP3 DUP5 PUSH2 0x382A JUMP JUMPDEST PUSH1 0x20 DUP2 ADD PUSH2 0xD78 DUP3 DUP5 PUSH2 0x383E JUMP JUMPDEST PUSH1 0x20 DUP1 DUP3 MSTORE PUSH1 0x15 SWAP1 DUP3 ADD MSTORE PUSH21 0x4572726F7220416363657373204164647265737321 PUSH1 0x58 SHL PUSH1 0x40 DUP3 ADD MSTORE PUSH1 0x60 ADD SWAP1 JUMP JUMPDEST PUSH1 0x0 PUSH1 0x20 DUP1 DUP4 MSTORE PUSH1 0x1 DUP1 PUSH1 0xA0 SHL SUB DUP5 MLOAD AND DUP2 DUP5 ADD MSTORE DUP1 DUP5 ADD MLOAD PUSH1 0x60 PUSH1 0x40 DUP2 DUP2 DUP8 ADD MSTORE PUSH2 0x395D PUSH1 0x80 DUP8 ADD DUP5 PUSH2 0x37FA JUMP JUMPDEST DUP2 DUP9 ADD MLOAD PUSH1 0x1F NOT DUP9 DUP4 SUB DUP2 ADD DUP6 DUP11 ADD MSTORE DUP2 MLOAD DUP1 DUP5 MSTORE SWAP3 SWAP6 POP SWAP1 DUP7 ADD SWAP2 DUP7 DUP7 ADD SWAP1 PUSH1 0x5 DUP2 DUP2 SHL DUP9 ADD DUP10 ADD PUSH1 0x0 JUMPDEST DUP4 DUP2 LT ISZERO PUSH2 0x39E2 JUMPI DUP6 DUP11 DUP4 SUB ADD DUP6 MSTORE DUP7 MLOAD DUP1 MLOAD DUP5 DUP2 LT PUSH2 0x39AB JUMPI PUSH2 0x39AB PUSH2 0x3D33 JUMP JUMPDEST DUP4 MSTORE DUP1 DUP13 ADD MLOAD DUP13 DUP5 ADD DUP12 SWAP1 MSTORE PUSH2 0x39C3 DUP12 DUP6 ADD DUP3 PUSH2 0x384E JUMP JUMPDEST SWAP2 DUP11 ADD MLOAD ISZERO ISZERO SWAP4 DUP11 ADD SWAP4 SWAP1 SWAP4 MSTORE SWAP7 DUP12 ADD SWAP7 SWAP5 DUP12 ADD SWAP5 SWAP2 POP PUSH1 0x1 ADD PUSH2 0x3989 JUMP JUMPDEST POP SWAP13 SWAP12 POP POP POP POP POP POP POP POP POP POP POP POP JUMP JUMPDEST PUSH1 0x20 DUP2 MSTORE PUSH2 0x3A0D PUSH1 0x20 DUP3 ADD DUP4 MLOAD PUSH1 0x1 PUSH1 0x1 PUSH1 0xA0 SHL SUB AND SWAP1 MSTORE JUMP JUMPDEST PUSH1 0x20 DUP3 ADD MLOAD PUSH1 0x40 DUP3 ADD MSTORE PUSH1 0x0 PUSH1 0x40 DUP4 ADD MLOAD PUSH2 0x2E0 DUP1 PUSH1 0x60 DUP6 ADD MSTORE PUSH2 0x3A35 PUSH2 0x300 DUP6 ADD DUP4 PUSH2 0x384E JUMP JUMPDEST SWAP2 POP PUSH1 0x60 DUP6 ADD MLOAD PUSH1 0x1F NOT DUP1 DUP7 DUP6 SUB ADD PUSH1 0x80 DUP8 ADD MSTORE PUSH2 0x3A53 DUP5 DUP4 PUSH2 0x384E JUMP JUMPDEST SWAP4 POP PUSH1 0x80 DUP8 ADD MLOAD PUSH1 0xA0 DUP8 ADD MSTORE PUSH1 0xA0 DUP8 ADD MLOAD PUSH1 0xC0 DUP8 ADD MSTORE PUSH1 0xC0 DUP8 ADD MLOAD PUSH1 0xE0 DUP8 ADD MSTORE PUSH1 0xE0 DUP8 ADD MLOAD SWAP2 POP PUSH2 0x100 DUP2 DUP8 DUP7 SUB ADD DUP2 DUP9 ADD MSTORE PUSH2 0x3A90 DUP6 DUP5 PUSH2 0x37FA JUMP JUMPDEST SWAP1 DUP9 ADD MLOAD PUSH2 0x120 DUP9 DUP2 ADD SWAP2 SWAP1 SWAP2 MSTORE DUP9 ADD MLOAD PUSH2 0x140 DUP1 DUP10 ADD SWAP2 SWAP1 SWAP2 MSTORE DUP9 ADD MLOAD SWAP1 SWAP5 POP SWAP2 POP PUSH2 0x160 PUSH2 0x3AC3 DUP2 DUP9 ADD DUP5 ISZERO ISZERO SWAP1 MSTORE JUMP JUMPDEST DUP8 ADD MLOAD SWAP2 POP PUSH2 0x180 PUSH2 0x3AD8 DUP8 DUP3 ADD DUP5 ISZERO ISZERO SWAP1 MSTORE JUMP JUMPDEST DUP1 DUP9 ADD MLOAD SWAP3 POP POP PUSH2 0x1A0 DUP3 DUP2 DUP9 ADD MSTORE DUP1 DUP9 ADD MLOAD SWAP3 POP POP PUSH2 0x1C0 DUP2 DUP8 DUP7 SUB ADD DUP2 DUP9 ADD MSTORE PUSH2 0x3B04 DUP6 DUP5 PUSH2 0x36F1 JUMP JUMPDEST SWAP5 POP DUP1 DUP9 ADD MLOAD SWAP3 POP POP PUSH2 0x1E0 DUP2 DUP8 DUP7 SUB ADD DUP2 DUP9 ADD MSTORE PUSH2 0x3B23 DUP6 DUP5 PUSH2 0x36AD JUMP JUMPDEST SWAP5 POP DUP1 DUP9 ADD MLOAD SWAP3 POP POP PUSH2 0x200 DUP2 DUP8 DUP7 SUB ADD DUP2 DUP9 ADD MSTORE PUSH2 0x3B42 DUP6 DUP5 PUSH2 0x36AD JUMP JUMPDEST SWAP1 DUP9 ADD MLOAD PUSH2 0x220 DUP9 DUP2 ADD SWAP2 SWAP1 SWAP2 MSTORE DUP9 ADD MLOAD PUSH2 0x240 DUP1 DUP10 ADD SWAP2 SWAP1 SWAP2 MSTORE DUP9 ADD MLOAD PUSH2 0x260 DUP1 DUP10 ADD SWAP2 SWAP1 SWAP2 MSTORE DUP9 ADD MLOAD PUSH2 0x280 DUP1 DUP10 ADD SWAP2 SWAP1 SWAP2 MSTORE DUP9 ADD MLOAD SWAP1 SWAP5 POP SWAP2 POP PUSH2 0x2A0 SWAP1 POP PUSH2 0x3B91 DUP2 DUP8 ADD DUP4 ISZERO ISZERO SWAP1 MSTORE JUMP JUMPDEST DUP7 ADD MLOAD SWAP1 POP PUSH2 0x2C0 PUSH2 0x3BA6 DUP7 DUP3 ADD DUP4 ISZERO ISZERO SWAP1 MSTORE JUMP JUMPDEST DUP7 ADD MLOAD SWAP1 POP PUSH2 0x3BB7 DUP6 DUP4 ADD DUP3 PUSH2 0x383E JUMP JUMPDEST POP SWAP1 SWAP5 SWAP4 POP POP POP POP JUMP JUMPDEST PUSH1 0x40 MLOAD PUSH1 0xA0 DUP2 ADD PUSH1 0x1 PUSH1 0x1 PUSH1 0x40 SHL SUB DUP2 GT DUP3 DUP3 LT OR ISZERO PUSH2 0x3BE3 JUMPI PUSH2 0x3BE3 PUSH2 0x3D5F JUMP JUMPDEST PUSH1 0x40 MSTORE SWAP1 JUMP JUMPDEST PUSH1 0x40 MLOAD PUSH1 0xE0 DUP2 ADD PUSH1 0x1 PUSH1 0x1 PUSH1 0x40 SHL SUB DUP2 GT DUP3 DUP3 LT OR ISZERO PUSH2 0x3BE3 JUMPI PUSH2 0x3BE3 PUSH2 0x3D5F JUMP JUMPDEST PUSH1 0x40 MLOAD PUSH2 0x1A0 DUP2 ADD PUSH1 0x1 PUSH1 0x1 PUSH1 0x40 SHL SUB DUP2 GT DUP3 DUP3 LT OR ISZERO PUSH2 0x3BE3 JUMPI PUSH2 0x3BE3 PUSH2 0x3D5F JUMP JUMPDEST PUSH1 0x40 MLOAD PUSH1 0x1F DUP3 ADD PUSH1 0x1F NOT AND DUP2 ADD PUSH1 0x1 PUSH1 0x1 PUSH1 0x40 SHL SUB DUP2 GT DUP3 DUP3 LT OR ISZERO PUSH2 0x3C56 JUMPI PUSH2 0x3C56 PUSH2 0x3D5F JUMP JUMPDEST PUSH1 0x40 MSTORE SWAP2 SWAP1 POP JUMP JUMPDEST PUSH1 0x0 PUSH1 0x1 PUSH1 0x1 PUSH1 0x40 SHL SUB DUP3 GT ISZERO PUSH2 0x3C77 JUMPI PUSH2 0x3C77 PUSH2 0x3D5F JUMP JUMPDEST POP PUSH1 0x5 SHL PUSH1 0x20 ADD SWAP1 JUMP JUMPDEST PUSH1 0x0 DUP3 NOT DUP3 GT ISZERO PUSH2 0x3C94 JUMPI PUSH2 0x3C94 PUSH2 0x3D1D JUMP JUMPDEST POP ADD SWAP1 JUMP JUMPDEST PUSH1 0x0 DUP3 DUP3 LT ISZERO PUSH2 0x3CAB JUMPI PUSH2 0x3CAB PUSH2 0x3D1D JUMP JUMPDEST POP SUB SWAP1 JUMP JUMPDEST PUSH1 0x0 DUP2 PUSH2 0x3CBF JUMPI PUSH2 0x3CBF PUSH2 0x3D1D JUMP JUMPDEST POP PUSH1 0x0 NOT ADD SWAP1 JUMP JUMPDEST PUSH1 0x1 DUP2 DUP2 SHR SWAP1 DUP3 AND DUP1 PUSH2 0x3CDB JUMPI PUSH1 0x7F DUP3 AND SWAP2 POP JUMPDEST PUSH1 0x20 DUP3 LT DUP2 EQ ISZERO PUSH2 0x3CFC JUMPI PUSH4 0x4E487B71 PUSH1 0xE0 SHL PUSH1 0x0 MSTORE PUSH1 0x22 PUSH1 0x4 MSTORE PUSH1 0x24 PUSH1 0x0 REVERT JUMPDEST POP SWAP2 SWAP1 POP JUMP JUMPDEST PUSH1 0x0 PUSH1 0x0 NOT DUP3 EQ ISZERO PUSH2 0x3D16 JUMPI PUSH2 0x3D16 PUSH2 0x3D1D JUMP JUMPDEST POP PUSH1 0x1 ADD SWAP1 JUMP JUMPDEST PUSH4 0x4E487B71 PUSH1 0xE0 SHL PUSH1 0x0 MSTORE PUSH1 0x11 PUSH1 0x4 MSTORE PUSH1 0x24 PUSH1 0x0 REVERT JUMPDEST PUSH4 0x4E487B71 PUSH1 0xE0 SHL PUSH1 0x0 MSTORE PUSH1 0x21 PUSH1 0x4 MSTORE PUSH1 0x24 PUSH1 0x0 REVERT JUMPDEST PUSH4 0x4E487B71 PUSH1 0xE0 SHL PUSH1 0x0 MSTORE PUSH1 0x32 PUSH1 0x4 MSTORE PUSH1 0x24 PUSH1 0x0 REVERT JUMPDEST PUSH4 0x4E487B71 PUSH1 0xE0 SHL PUSH1 0x0 MSTORE PUSH1 0x41 PUSH1 0x4 MSTORE PUSH1 0x24 PUSH1 0x0 REVERT INVALID LOG2 PUSH5 0x6970667358 0x22 SLT KECCAK256 0xD1 0xE3 NOT 0xAA SELFBALANCE 0xF7 POP 0xE3 0x24 PUSH10 0xFE9AAA92A7C1A5B4C331 CALLDATACOPY PUSH17 0xBFA10E4474278CD31A0164736F6C634300 ADDMOD SMOD STOP CALLER "
				},
				"gasEstimates": {
					"creation": {
						"codeDepositCost": "3157400",
						"executionCost": "29332",
						"totalCost": "3186732"
					},
					"external": {
						"addCount()": "26661",
						"addPay(address,uint256)": "26943",
						"addProject((uint256,string,string,uint256,uint256,uint256,uint256[],uint256,uint256,bool,bool,uint256,((string,uint256,uint256,uint256,uint256,uint256,string),uint256,string,uint8,uint256)[]),address)": "infinite",
						"addTransNumber(uint256,uint256)": "26868",
						"addTransWaitNumber(uint256,address,uint256)": "27065",
						"addTranslators(uint256,address)": "51196",
						"addVf(uint256,address)": "51151",
						"addVfNumber(uint256,uint256)": "26848",
						"addVfWaitNumber(uint256,address,uint256)": "27023",
						"changeFileState(uint256,uint256,uint8)": "29132",
						"changeProjectState(uint256,uint8)": "26878",
						"changeTaskTransState(uint256,address,uint256,uint8)": "27196",
						"changeTaskVfState(uint256,address,uint256,uint8)": "27119",
						"changeTransActive(uint256,bool)": "26904",
						"changeVerActive(uint256,bool)": "26873",
						"decutTransWaitNumber(uint256,address)": "27025",
						"decutVfWaitNumber(uint256,address)": "27047",
						"deductPay(address,uint256)": "26962",
						"getAcceptTransNumber(uint256,address)": "2779",
						"getAcceptVfNumber(uint256,address)": "2741",
						"getBuyer(uint256)": "2567",
						"getCount()": "2349",
						"getFileBounty(uint256,uint256)": "4791",
						"getFileState(uint256,uint256)": "4896",
						"getFiles(uint256)": "infinite",
						"getPay(address)": "2615",
						"getProjectOne(uint256)": "infinite",
						"getTaskBounty(uint256)": "2500",
						"getTaskState(uint256)": "2674",
						"getTaskStateTrans(uint256)": "2546",
						"getTaskStateVf(uint256)": "2558",
						"getTransNumber(uint256)": "2500",
						"getTransTaskInfo(uint256,address)": "infinite",
						"getTransWaitNumber(uint256,address)": "2749",
						"getTranslationType(uint256)": "2501",
						"getTranslatorsList(uint256)": "infinite",
						"getVfList(uint256)": "infinite",
						"getVfNumber(uint256)": "2521",
						"getVfTaskInfo(uint256,address)": "infinite",
						"getVfWaitNumber(uint256,address)": "2704",
						"isAccept(address,uint256,uint256)": "5272",
						"isCustomizeState(uint256)": "2536",
						"isFull(uint256,bool)": "4834",
						"isUsedToTrans(uint256,uint256,address)": "27085",
						"isUsedToVf(uint256,uint256,address)": "27064",
						"overTimeTasker(uint256,address,bool)": "infinite",
						"owner()": "2399",
						"pushTaskTransIndex(uint256,address,uint256)": "49115",
						"pushTaskVfIndex(uint256,address,uint256)": "49114",
						"renounceOwnership()": "infinite",
						"setAccessAddress(address)": "26825",
						"submitFileByTrans(uint256,address,uint256,string)": "infinite",
						"submitFileByVf(uint256,address,uint256,string)": "infinite",
						"transferOwnership(address)": "28399",
						"updateProject(uint256,(uint256,string,string,uint256,uint256,uint256,uint256[],uint256,uint256,bool,bool,uint256,((string,uint256,uint256,uint256,uint256,uint256,string),uint256,string,uint8,uint256)[]))": "infinite"
					}
				},
				"methodIdentifiers": {
					"addCount()": "6cefce6e",
					"addPay(address,uint256)": "172372c2",
					"addProject((uint256,string,string,uint256,uint256,uint256,uint256[],uint256,uint256,bool,bool,uint256,((string,uint256,uint256,uint256,uint256,uint256,string),uint256,string,uint8,uint256)[]),address)": "a74deb9b",
					"addTransNumber(uint256,uint256)": "fbe24700",
					"addTransWaitNumber(uint256,address,uint256)": "a6089639",
					"addTranslators(uint256,address)": "31d396ce",
					"addVf(uint256,address)": "992d60f3",
					"addVfNumber(uint256,uint256)": "87af5d79",
					"addVfWaitNumber(uint256,address,uint256)": "4c7360ce",
					"changeFileState(uint256,uint256,uint8)": "1fa2bf4c",
					"changeProjectState(uint256,uint8)": "17e925d7",
					"changeTaskTransState(uint256,address,uint256,uint8)": "19f17088",
					"changeTaskVfState(uint256,address,uint256,uint8)": "6c431904",
					"changeTransActive(uint256,bool)": "63e3ccad",
					"changeVerActive(uint256,bool)": "c061bb82",
					"decutTransWaitNumber(uint256,address)": "c16da060",
					"decutVfWaitNumber(uint256,address)": "7b3f4717",
					"deductPay(address,uint256)": "57840da6",
					"getAcceptTransNumber(uint256,address)": "193620e7",
					"getAcceptVfNumber(uint256,address)": "790485f9",
					"getBuyer(uint256)": "5bf608b8",
					"getCount()": "a87d942c",
					"getFileBounty(uint256,uint256)": "e1ca7ca7",
					"getFileState(uint256,uint256)": "ad607c72",
					"getFiles(uint256)": "12506f4d",
					"getPay(address)": "d3d7bc3b",
					"getProjectOne(uint256)": "25e78e70",
					"getTaskBounty(uint256)": "6e973982",
					"getTaskState(uint256)": "ffcce776",
					"getTaskStateTrans(uint256)": "9722f099",
					"getTaskStateVf(uint256)": "546677aa",
					"getTransNumber(uint256)": "d2fed69c",
					"getTransTaskInfo(uint256,address)": "5fed5eb2",
					"getTransWaitNumber(uint256,address)": "21d90a27",
					"getTranslationType(uint256)": "591b0e27",
					"getTranslatorsList(uint256)": "983a12a8",
					"getVfList(uint256)": "b647eec3",
					"getVfNumber(uint256)": "f8626ebb",
					"getVfTaskInfo(uint256,address)": "7c35beb7",
					"getVfWaitNumber(uint256,address)": "869a7365",
					"isAccept(address,uint256,uint256)": "7d88dadf",
					"isCustomizeState(uint256)": "7c34eb85",
					"isFull(uint256,bool)": "8a9a9ff3",
					"isUsedToTrans(uint256,uint256,address)": "ce098054",
					"isUsedToVf(uint256,uint256,address)": "6d8d1daf",
					"overTimeTasker(uint256,address,bool)": "8b3f3a6f",
					"owner()": "8da5cb5b",
					"pushTaskTransIndex(uint256,address,uint256)": "271ff03f",
					"pushTaskVfIndex(uint256,address,uint256)": "a1e047f3",
					"renounceOwnership()": "715018a6",
					"setAccessAddress(address)": "ad5f7ab0",
					"submitFileByTrans(uint256,address,uint256,string)": "33e68dcd",
					"submitFileByVf(uint256,address,uint256,string)": "05c3f9c9",
					"transferOwnership(address)": "f2fde38b",
					"updateProject(uint256,(uint256,string,string,uint256,uint256,uint256,uint256[],uint256,uint256,bool,bool,uint256,((string,uint256,uint256,uint256,uint256,uint256,string),uint256,string,uint8,uint256)[]))": "1af5fa16"
				}
			},
			"storageLayout": {
				"storage": [
					{
						"astId": 1907,
						"contract": "AmphiTrans.sol:AmphiTrans",
						"label": "_owner",
						"offset": 0,
						"slot": "0",
						"type": "t_address"
					},
					{
						"astId": 15,
						"contract": "AmphiTrans.sol:AmphiTrans",
						"label": "taskList",
						"offset": 0,
						"slot": "1",
						"type": "t_mapping(t_uint256,t_struct(TranslationPro)1856_storage)"
					},
					{
						"astId": 19,
						"contract": "AmphiTrans.sol:AmphiTrans",
						"label": "payList",
						"offset": 0,
						"slot": "2",
						"type": "t_mapping(t_address,t_uint256)"
					},
					{
						"astId": 26,
						"contract": "AmphiTrans.sol:AmphiTrans",
						"label": "transInfo",
						"offset": 0,
						"slot": "3",
						"type": "t_mapping(t_uint256,t_mapping(t_address,t_struct(Tasker)1765_storage))"
					},
					{
						"astId": 33,
						"contract": "AmphiTrans.sol:AmphiTrans",
						"label": "vfInfo",
						"offset": 0,
						"slot": "4",
						"type": "t_mapping(t_uint256,t_mapping(t_address,t_struct(Tasker)1765_storage))"
					},
					{
						"astId": 35,
						"contract": "AmphiTrans.sol:AmphiTrans",
						"label": "count",
						"offset": 0,
						"slot": "5",
						"type": "t_uint256"
					},
					{
						"astId": 37,
						"contract": "AmphiTrans.sol:AmphiTrans",
						"label": "accessAddress",
						"offset": 0,
						"slot": "6",
						"type": "t_address"
					}
				],
				"types": {
					"t_address": {
						"encoding": "inplace",
						"label": "address",
						"numberOfBytes": "20"
					},
					"t_array(t_address)dyn_storage": {
						"base": "t_address",
						"encoding": "dynamic_array",
						"label": "address[]",
						"numberOfBytes": "32"
					},
					"t_array(t_struct(TaskInfo)1778_storage)dyn_storage": {
						"base": "t_struct(TaskInfo)1778_storage",
						"encoding": "dynamic_array",
						"label": "struct LibProject.TaskInfo[]",
						"numberOfBytes": "32"
					},
					"t_array(t_uint256)dyn_storage": {
						"base": "t_uint256",
						"encoding": "dynamic_array",
						"label": "uint256[]",
						"numberOfBytes": "32"
					},
					"t_bool": {
						"encoding": "inplace",
						"label": "bool",
						"numberOfBytes": "1"
					},
					"t_enum(FileState)1739": {
						"encoding": "inplace",
						"label": "enum LibProject.FileState",
						"numberOfBytes": "1"
					},
					"t_enum(ProjectState)1720": {
						"encoding": "inplace",
						"label": "enum LibProject.ProjectState",
						"numberOfBytes": "1"
					},
					"t_enum(TaskerState)1726": {
						"encoding": "inplace",
						"label": "enum LibProject.TaskerState",
						"numberOfBytes": "1"
					},
					"t_mapping(t_address,t_struct(Tasker)1765_storage)": {
						"encoding": "mapping",
						"key": "t_address",
						"label": "mapping(address => struct LibProject.Tasker)",
						"numberOfBytes": "32",
						"value": "t_struct(Tasker)1765_storage"
					},
					"t_mapping(t_address,t_uint256)": {
						"encoding": "mapping",
						"key": "t_address",
						"label": "mapping(address => uint256)",
						"numberOfBytes": "32",
						"value": "t_uint256"
					},
					"t_mapping(t_uint256,t_mapping(t_address,t_struct(Tasker)1765_storage))": {
						"encoding": "mapping",
						"key": "t_uint256",
						"label": "mapping(uint256 => mapping(address => struct LibProject.Tasker))",
						"numberOfBytes": "32",
						"value": "t_mapping(t_address,t_struct(Tasker)1765_storage)"
					},
					"t_mapping(t_uint256,t_struct(FileIndexInfo)1786_storage)": {
						"encoding": "mapping",
						"key": "t_uint256",
						"label": "mapping(uint256 => struct LibProject.FileIndexInfo)",
						"numberOfBytes": "32",
						"value": "t_struct(FileIndexInfo)1786_storage"
					},
					"t_mapping(t_uint256,t_struct(TranslationPro)1856_storage)": {
						"encoding": "mapping",
						"key": "t_uint256",
						"label": "mapping(uint256 => struct LibProject.TranslationPro)",
						"numberOfBytes": "32",
						"value": "t_struct(TranslationPro)1856_storage"
					},
					"t_string_storage": {
						"encoding": "bytes",
						"label": "string",
						"numberOfBytes": "32"
					},
					"t_struct(FileIndexInfo)1786_storage": {
						"encoding": "inplace",
						"label": "struct LibProject.FileIndexInfo",
						"members": [
							{
								"astId": 1781,
								"contract": "AmphiTrans.sol:AmphiTrans",
								"label": "state",
								"offset": 0,
								"slot": "0",
								"type": "t_enum(TaskerState)1726"
							},
							{
								"astId": 1783,
								"contract": "AmphiTrans.sol:AmphiTrans",
								"label": "file",
								"offset": 0,
								"slot": "1",
								"type": "t_string_storage"
							},
							{
								"astId": 1785,
								"contract": "AmphiTrans.sol:AmphiTrans",
								"label": "isUsed",
								"offset": 0,
								"slot": "2",
								"type": "t_bool"
							}
						],
						"numberOfBytes": "96"
					},
					"t_struct(FileInfo)1754_storage": {
						"encoding": "inplace",
						"label": "struct LibProject.FileInfo",
						"members": [
							{
								"astId": 1741,
								"contract": "AmphiTrans.sol:AmphiTrans",
								"label": "name",
								"offset": 0,
								"slot": "0",
								"type": "t_string_storage"
							},
							{
								"astId": 1743,
								"contract": "AmphiTrans.sol:AmphiTrans",
								"label": "size",
								"offset": 0,
								"slot": "1",
								"type": "t_uint256"
							},
							{
								"astId": 1745,
								"contract": "AmphiTrans.sol:AmphiTrans",
								"label": "videoLength",
								"offset": 0,
								"slot": "2",
								"type": "t_uint256"
							},
							{
								"astId": 1747,
								"contract": "AmphiTrans.sol:AmphiTrans",
								"label": "Page",
								"offset": 0,
								"slot": "3",
								"type": "t_uint256"
							},
							{
								"astId": 1749,
								"contract": "AmphiTrans.sol:AmphiTrans",
								"label": "words",
								"offset": 0,
								"slot": "4",
								"type": "t_uint256"
							},
							{
								"astId": 1751,
								"contract": "AmphiTrans.sol:AmphiTrans",
								"label": "fileType",
								"offset": 0,
								"slot": "5",
								"type": "t_uint256"
							},
							{
								"astId": 1753,
								"contract": "AmphiTrans.sol:AmphiTrans",
								"label": "path",
								"offset": 0,
								"slot": "6",
								"type": "t_string_storage"
							}
						],
						"numberOfBytes": "224"
					},
					"t_struct(TaskInfo)1778_storage": {
						"encoding": "inplace",
						"label": "struct LibProject.TaskInfo",
						"members": [
							{
								"astId": 1768,
								"contract": "AmphiTrans.sol:AmphiTrans",
								"label": "file",
								"offset": 0,
								"slot": "0",
								"type": "t_struct(FileInfo)1754_storage"
							},
							{
								"astId": 1770,
								"contract": "AmphiTrans.sol:AmphiTrans",
								"label": "bounty",
								"offset": 0,
								"slot": "7",
								"type": "t_uint256"
							},
							{
								"astId": 1772,
								"contract": "AmphiTrans.sol:AmphiTrans",
								"label": "info",
								"offset": 0,
								"slot": "8",
								"type": "t_string_storage"
							},
							{
								"astId": 1775,
								"contract": "AmphiTrans.sol:AmphiTrans",
								"label": "state",
								"offset": 0,
								"slot": "9",
								"type": "t_enum(FileState)1739"
							},
							{
								"astId": 1777,
								"contract": "AmphiTrans.sol:AmphiTrans",
								"label": "lastUpload",
								"offset": 0,
								"slot": "10",
								"type": "t_uint256"
							}
						],
						"numberOfBytes": "352"
					},
					"t_struct(Tasker)1765_storage": {
						"encoding": "inplace",
						"label": "struct LibProject.Tasker",
						"members": [
							{
								"astId": 1757,
								"contract": "AmphiTrans.sol:AmphiTrans",
								"label": "taskIndex",
								"offset": 0,
								"slot": "0",
								"type": "t_array(t_uint256)dyn_storage"
							},
							{
								"astId": 1759,
								"contract": "AmphiTrans.sol:AmphiTrans",
								"label": "number",
								"offset": 0,
								"slot": "1",
								"type": "t_uint256"
							},
							{
								"astId": 1764,
								"contract": "AmphiTrans.sol:AmphiTrans",
								"label": "info",
								"offset": 0,
								"slot": "2",
								"type": "t_mapping(t_uint256,t_struct(FileIndexInfo)1786_storage)"
							}
						],
						"numberOfBytes": "96"
					},
					"t_struct(TranslationPro)1856_storage": {
						"encoding": "inplace",
						"label": "struct LibProject.TranslationPro",
						"members": [
							{
								"astId": 1805,
								"contract": "AmphiTrans.sol:AmphiTrans",
								"label": "buyer",
								"offset": 0,
								"slot": "0",
								"type": "t_address"
							},
							{
								"astId": 1807,
								"contract": "AmphiTrans.sol:AmphiTrans",
								"label": "releaseTime",
								"offset": 0,
								"slot": "1",
								"type": "t_uint256"
							},
							{
								"astId": 1809,
								"contract": "AmphiTrans.sol:AmphiTrans",
								"label": "introduce",
								"offset": 0,
								"slot": "2",
								"type": "t_string_storage"
							},
							{
								"astId": 1811,
								"contract": "AmphiTrans.sol:AmphiTrans",
								"label": "need",
								"offset": 0,
								"slot": "3",
								"type": "t_string_storage"
							},
							{
								"astId": 1813,
								"contract": "AmphiTrans.sol:AmphiTrans",
								"label": "deadline",
								"offset": 0,
								"slot": "4",
								"type": "t_uint256"
							},
							{
								"astId": 1815,
								"contract": "AmphiTrans.sol:AmphiTrans",
								"label": "sourceLanguage",
								"offset": 0,
								"slot": "5",
								"type": "t_uint256"
							},
							{
								"astId": 1817,
								"contract": "AmphiTrans.sol:AmphiTrans",
								"label": "goalLanguage",
								"offset": 0,
								"slot": "6",
								"type": "t_uint256"
							},
							{
								"astId": 1820,
								"contract": "AmphiTrans.sol:AmphiTrans",
								"label": "preferList",
								"offset": 0,
								"slot": "7",
								"type": "t_array(t_uint256)dyn_storage"
							},
							{
								"astId": 1822,
								"contract": "AmphiTrans.sol:AmphiTrans",
								"label": "translationType",
								"offset": 0,
								"slot": "8",
								"type": "t_uint256"
							},
							{
								"astId": 1824,
								"contract": "AmphiTrans.sol:AmphiTrans",
								"label": "workLoad",
								"offset": 0,
								"slot": "9",
								"type": "t_uint256"
							},
							{
								"astId": 1826,
								"contract": "AmphiTrans.sol:AmphiTrans",
								"label": "isNonDisclosure",
								"offset": 0,
								"slot": "10",
								"type": "t_bool"
							},
							{
								"astId": 1828,
								"contract": "AmphiTrans.sol:AmphiTrans",
								"label": "isCustomize",
								"offset": 1,
								"slot": "10",
								"type": "t_bool"
							},
							{
								"astId": 1830,
								"contract": "AmphiTrans.sol:AmphiTrans",
								"label": "bounty",
								"offset": 0,
								"slot": "11",
								"type": "t_uint256"
							},
							{
								"astId": 1834,
								"contract": "AmphiTrans.sol:AmphiTrans",
								"label": "tasks",
								"offset": 0,
								"slot": "12",
								"type": "t_array(t_struct(TaskInfo)1778_storage)dyn_storage"
							},
							{
								"astId": 1837,
								"contract": "AmphiTrans.sol:AmphiTrans",
								"label": "translators",
								"offset": 0,
								"slot": "13",
								"type": "t_array(t_address)dyn_storage"
							},
							{
								"astId": 1840,
								"contract": "AmphiTrans.sol:AmphiTrans",
								"label": "verifiers",
								"offset": 0,
								"slot": "14",
								"type": "t_array(t_address)dyn_storage"
							},
							{
								"astId": 1842,
								"contract": "AmphiTrans.sol:AmphiTrans",
								"label": "maxT",
								"offset": 0,
								"slot": "15",
								"type": "t_uint256"
							},
							{
								"astId": 1844,
								"contract": "AmphiTrans.sol:AmphiTrans",
								"label": "maxV",
								"offset": 0,
								"slot": "16",
								"type": "t_uint256"
							},
							{
								"astId": 1846,
								"contract": "AmphiTrans.sol:AmphiTrans",
								"label": "numberT",
								"offset": 0,
								"slot": "17",
								"type": "t_uint256"
							},
							{
								"astId": 1848,
								"contract": "AmphiTrans.sol:AmphiTrans",
								"label": "numberV",
								"offset": 0,
								"slot": "18",
								"type": "t_uint256"
							},
							{
								"astId": 1850,
								"contract": "AmphiTrans.sol:AmphiTrans",
								"label": "isTransActive",
								"offset": 0,
								"slot": "19",
								"type": "t_bool"
							},
							{
								"astId": 1852,
								"contract": "AmphiTrans.sol:AmphiTrans",
								"label": "isVerActive",
								"offset": 1,
								"slot": "19",
								"type": "t_bool"
							},
							{
								"astId": 1855,
								"contract": "AmphiTrans.sol:AmphiTrans",
								"label": "state",
								"offset": 2,
								"slot": "19",
								"type": "t_enum(ProjectState)1720"
							}
						],
						"numberOfBytes": "640"
					},
					"t_uint256": {
						"encoding": "inplace",
						"label": "uint256",
						"numberOfBytes": "32"
					}
				}
			},
			"userdoc": {
				"kind": "user",
				"methods": {},
				"version": 1
			}
		}
	}
}