{
	"TransferService.sol": {
		"TransferService": {
			"abi": [
				{
					"inputs": [],
					"stateMutability": "nonpayable",
					"type": "constructor"
				},
				{
					"anonymous": false,
					"inputs": [
						{
							"indexed": true,
							"internalType": "address",
							"name": "previousOwner",
							"type": "address"
						},
						{
							"indexed": true,
							"internalType": "address",
							"name": "newOwner",
							"type": "address"
						}
					],
					"name": "OwnershipTransferred",
					"type": "event"
				},
				{
					"anonymous": false,
					"inputs": [
						{
							"indexed": false,
							"internalType": "address",
							"name": "from",
							"type": "address"
						},
						{
							"indexed": false,
							"internalType": "address",
							"name": "to",
							"type": "address"
						},
						{
							"indexed": false,
							"internalType": "uint256",
							"name": "money",
							"type": "uint256"
						}
					],
					"name": "payEv",
					"type": "event"
				},
				{
					"stateMutability": "payable",
					"type": "fallback"
				},
				{
					"inputs": [],
					"name": "getBalanceOfContract",
					"outputs": [
						{
							"internalType": "uint256",
							"name": "",
							"type": "uint256"
						}
					],
					"stateMutability": "view",
					"type": "function"
				},
				{
					"inputs": [],
					"name": "owner",
					"outputs": [
						{
							"internalType": "address",
							"name": "",
							"type": "address"
						}
					],
					"stateMutability": "view",
					"type": "function"
				},
				{
					"inputs": [],
					"name": "renounceOwnership",
					"outputs": [],
					"stateMutability": "nonpayable",
					"type": "function"
				},
				{
					"inputs": [],
					"name": "transderToContract",
					"outputs": [],
					"stateMutability": "payable",
					"type": "function"
				},
				{
					"inputs": [
						{
							"internalType": "address",
							"name": "newOwner",
							"type": "address"
						}
					],
					"name": "transferOwnership",
					"outputs": [],
					"stateMutability": "nonpayable",
					"type": "function"
				},
				{
					"stateMutability": "payable",
					"type": "receive"
				}
			],
			"devdoc": {
				"kind": "dev",
				"methods": {
					"owner()": {
						"details": "Returns the address of the current owner."
					},
					"renounceOwnership()": {
						"details": "Leaves the contract without owner. It will not be possible to call `onlyOwner` functions anymore. Can only be called by the current owner. NOTE: Renouncing ownership will leave the contract without an owner, thereby removing any functionality that is only available to the owner."
					},
					"transferOwnership(address)": {
						"details": "Transfers ownership of the contract to a new account (`newOwner`). Can only be called by the current owner."
					}
				},
				"version": 1
			},
			"evm": {
				"assembly": "    /* \"TransferService.sol\":102:2351  contract TransferService is Ownable{\r... */\n  mstore(0x40, 0x80)\n    /* \"TransferService.sol\":258:317  constructor() {\r... */\n  callvalue\n  dup1\n  iszero\n  tag_1\n  jumpi\n  0x00\n  dup1\n  revert\ntag_1:\n  pop\n    /* \"contracts/access/Ownable.sol\":936:968  _transferOwnership(_msgSender()) */\n  tag_5\n    /* \"contracts/utils/Context.sol\":719:729  msg.sender */\n  caller\n    /* \"contracts/access/Ownable.sol\":936:954  _transferOwnership */\n  tag_8\n    /* \"contracts/access/Ownable.sol\":936:968  _transferOwnership(_msgSender()) */\n  jump\t// in\ntag_5:\n    /* \"TransferService.sol\":283:296  amphi_address */\n  0x01\n    /* \"TransferService.sol\":283:309  amphi_address = msg.sender */\n  dup1\n  sload\n  not(sub(shl(0xa0, 0x01), 0x01))\n  and\n    /* \"TransferService.sol\":299:309  msg.sender */\n  caller\n    /* \"TransferService.sol\":283:309  amphi_address = msg.sender */\n  or\n  swap1\n  sstore\n    /* \"TransferService.sol\":102:2351  contract TransferService is Ownable{\r... */\n  jump(tag_10)\n    /* \"contracts/access/Ownable.sol\":2433:2620  function _transferOwnership(address newOwner) internal virtual {... */\ntag_8:\n    /* \"contracts/access/Ownable.sol\":2506:2522  address oldOwner */\n  0x00\n    /* \"contracts/access/Ownable.sol\":2525:2531  _owner */\n  dup1\n  sload\n  sub(shl(0xa0, 0x01), 0x01)\n    /* \"contracts/access/Ownable.sol\":2541:2558  _owner = newOwner */\n  dup4\n  dup2\n  and\n  not(sub(shl(0xa0, 0x01), 0x01))\n  dup4\n  and\n  dup2\n  or\n  dup5\n  sstore\n    /* \"contracts/access/Ownable.sol\":2573:2613  OwnershipTransferred(oldOwner, newOwner) */\n  mload(0x40)\n    /* \"contracts/access/Ownable.sol\":2525:2531  _owner */\n  swap2\n  swap1\n  swap3\n  and\n  swap3\n  dup4\n  swap2\n    /* \"contracts/access/Ownable.sol\":2573:2613  OwnershipTransferred(oldOwner, newOwner) */\n  0x8be0079c531659141344cd1fd0a4f28419497f9722a3daafe3b4186f6b6457e0\n  swap2\n    /* \"contracts/access/Ownable.sol\":2506:2522  address oldOwner */\n  swap1\n    /* \"contracts/access/Ownable.sol\":2573:2613  OwnershipTransferred(oldOwner, newOwner) */\n  log3\n    /* \"contracts/access/Ownable.sol\":2496:2620  {... */\n  pop\n    /* \"contracts/access/Ownable.sol\":2433:2620  function _transferOwnership(address newOwner) internal virtual {... */\n  pop\n  jump\t// out\n    /* \"TransferService.sol\":102:2351  contract TransferService is Ownable{\r... */\ntag_10:\n  dataSize(sub_0)\n  dup1\n  dataOffset(sub_0)\n  0x00\n  codecopy\n  0x00\n  return\nstop\n\nsub_0: assembly {\n        /* \"TransferService.sol\":102:2351  contract TransferService is Ownable{\r... */\n      mstore(0x40, 0x80)\n      jumpi(tag_1, lt(calldatasize, 0x04))\n      shr(0xe0, calldataload(0x00))\n      dup1\n      0x715018a6\n      gt\n      tag_8\n      jumpi\n      dup1\n      0x715018a6\n      eq\n      tag_5\n      jumpi\n      dup1\n      0x8da5cb5b\n      eq\n      tag_6\n      jumpi\n      dup1\n      0xf2fde38b\n      eq\n      tag_7\n      jumpi\n      stop\n    tag_8:\n      dup1\n      0x22968885\n      eq\n      tag_3\n      jumpi\n      dup1\n      0x460968dd\n      eq\n      tag_4\n      jumpi\n      stop\n    tag_1:\n      jumpi(tag_2, calldatasize)\n      stop\n    tag_2:\n      stop\n        /* \"TransferService.sol\":821:930  function getBalanceOfContract() public view returns (uint256) {\r... */\n    tag_3:\n      callvalue\n      dup1\n      iszero\n      tag_13\n      jumpi\n      0x00\n      dup1\n      revert\n    tag_13:\n      pop\n      mload(0x40)\n        /* \"TransferService.sol\":901:922  address(this).balance */\n      selfbalance\n        /* \"#utility.yul\":2426:2451   */\n      dup2\n      mstore\n        /* \"#utility.yul\":2414:2416   */\n      0x20\n        /* \"#utility.yul\":2399:2417   */\n      add\n        /* \"TransferService.sol\":821:930  function getBalanceOfContract() public view returns (uint256) {\r... */\n    tag_16:\n      mload(0x40)\n      dup1\n      swap2\n      sub\n      swap1\n      return\n        /* \"TransferService.sol\":498:780  function transderToContract() public payable {\r... */\n    tag_4:\n      tag_2\n      tag_19\n      jump\t// in\n        /* \"contracts/access/Ownable.sol\":1831:1932  function renounceOwnership() public virtual onlyOwner {... */\n    tag_5:\n      callvalue\n      dup1\n      iszero\n      tag_20\n      jumpi\n      0x00\n      dup1\n      revert\n    tag_20:\n      pop\n      tag_2\n      tag_22\n      jump\t// in\n        /* \"contracts/access/Ownable.sol\":1201:1286  function owner() public view virtual returns (address) {... */\n    tag_6:\n      callvalue\n      dup1\n      iszero\n      tag_23\n      jumpi\n      0x00\n      dup1\n      revert\n    tag_23:\n      pop\n        /* \"contracts/access/Ownable.sol\":1247:1254  address */\n      0x00\n        /* \"contracts/access/Ownable.sol\":1273:1279  _owner */\n      sload\n        /* \"contracts/access/Ownable.sol\":1201:1286  function owner() public view virtual returns (address) {... */\n      mload(0x40)\n      sub(shl(0xa0, 0x01), 0x01)\n        /* \"contracts/access/Ownable.sol\":1273:1279  _owner */\n      swap1\n      swap2\n      and\n        /* \"#utility.yul\":684:758   */\n      dup2\n      mstore\n        /* \"#utility.yul\":672:674   */\n      0x20\n        /* \"#utility.yul\":657:675   */\n      add\n        /* \"contracts/access/Ownable.sol\":1201:1286  function owner() public view virtual returns (address) {... */\n      tag_16\n        /* \"#utility.yul\":538:764   */\n      jump\n        /* \"contracts/access/Ownable.sol\":2081:2279  function transferOwnership(address newOwner) public virtual onlyOwner {... */\n    tag_7:\n      callvalue\n      dup1\n      iszero\n      tag_28\n      jumpi\n      0x00\n      dup1\n      revert\n    tag_28:\n      pop\n      tag_2\n      tag_30\n      calldatasize\n      0x04\n      tag_31\n      jump\t// in\n    tag_30:\n      tag_32\n      jump\t// in\n        /* \"TransferService.sol\":498:780  function transderToContract() public payable {\r... */\n    tag_19:\n        /* \"TransferService.sol\":570:619  payable(address(this)).call{value: msg.value}(\"\") */\n      mload(0x40)\n        /* \"TransferService.sol\":555:564  bool sent */\n      0x00\n      swap1\n        /* \"TransferService.sol\":586:590  this */\n      address\n      swap1\n        /* \"TransferService.sol\":605:614  msg.value */\n      callvalue\n      swap1\n        /* \"TransferService.sol\":555:564  bool sent */\n      dup4\n        /* \"TransferService.sol\":570:619  payable(address(this)).call{value: msg.value}(\"\") */\n      dup2\n        /* \"TransferService.sol\":555:564  bool sent */\n      dup2\n        /* \"TransferService.sol\":570:619  payable(address(this)).call{value: msg.value}(\"\") */\n      dup2\n        /* \"TransferService.sol\":605:614  msg.value */\n      dup6\n        /* \"TransferService.sol\":586:590  this */\n      dup8\n        /* \"TransferService.sol\":570:619  payable(address(this)).call{value: msg.value}(\"\") */\n      gas\n      call\n      swap3\n      pop\n      pop\n      pop\n      returndatasize\n      dup1\n      0x00\n      dup2\n      eq\n      tag_39\n      jumpi\n      mload(0x40)\n      swap2\n      pop\n      and(add(returndatasize, 0x3f), not(0x1f))\n      dup3\n      add\n      0x40\n      mstore\n      returndatasize\n      dup3\n      mstore\n      returndatasize\n      0x00\n      0x20\n      dup5\n      add\n      returndatacopy\n      jump(tag_38)\n    tag_39:\n      0x60\n      swap2\n      pop\n    tag_38:\n      pop\n        /* \"TransferService.sol\":554:619  (bool sent, ) = payable(address(this)).call{value: msg.value}(\"\") */\n      pop\n      swap1\n      pop\n        /* \"TransferService.sol\":638:642  sent */\n      dup1\n        /* \"TransferService.sol\":630:658  require(sent, \"Call failed\") */\n      tag_40\n      jumpi\n      mload(0x40)\n      shl(0xe5, 0x461bcd)\n      dup2\n      mstore\n        /* \"#utility.yul\":1374:1376   */\n      0x20\n        /* \"TransferService.sol\":630:658  require(sent, \"Call failed\") */\n      0x04\n      dup3\n      add\n        /* \"#utility.yul\":1356:1377   */\n      mstore\n        /* \"#utility.yul\":1413:1415   */\n      0x0b\n        /* \"#utility.yul\":1393:1411   */\n      0x24\n      dup3\n      add\n        /* \"#utility.yul\":1386:1416   */\n      mstore\n        /* \"#utility.yul\":1452:1465   */\n      0x43616c6c206661696c6564000000000000000000000000000000000000000000\n        /* \"#utility.yul\":1432:1450   */\n      0x44\n      dup3\n      add\n        /* \"#utility.yul\":1425:1466   */\n      mstore\n        /* \"#utility.yul\":1483:1501   */\n      0x64\n      add\n        /* \"TransferService.sol\":630:658  require(sent, \"Call failed\") */\n    tag_41:\n      mload(0x40)\n      dup1\n      swap2\n      sub\n      swap1\n      revert\n    tag_40:\n        /* \"TransferService.sol\":674:717  payEv(msg.sender, address(this), msg.value) */\n      0x40\n      dup1\n      mload\n        /* \"TransferService.sol\":680:690  msg.sender */\n      caller\n        /* \"#utility.yul\":1032:1066   */\n      dup2\n      mstore\n        /* \"TransferService.sol\":700:704  this */\n      address\n        /* \"#utility.yul\":1097:1099   */\n      0x20\n        /* \"#utility.yul\":1082:1100   */\n      dup3\n      add\n        /* \"#utility.yul\":1075:1118   */\n      mstore\n        /* \"TransferService.sol\":707:716  msg.value */\n      callvalue\n        /* \"#utility.yul\":1134:1152   */\n      dup2\n      dup4\n      add\n        /* \"#utility.yul\":1127:1161   */\n      mstore\n        /* \"TransferService.sol\":674:717  payEv(msg.sender, address(this), msg.value) */\n      swap1\n      mload\n      0xb37bd6f3ccfce130859d4569dc432409f423a7928e73eb5c5049a94e40f0c648\n      swap2\n      dup2\n      swap1\n      sub\n        /* \"#utility.yul\":959:961   */\n      0x60\n        /* \"TransferService.sol\":674:717  payEv(msg.sender, address(this), msg.value) */\n      add\n      swap1\n      log1\n        /* \"TransferService.sol\":543:780  {\r... */\n      pop\n        /* \"TransferService.sol\":498:780  function transderToContract() public payable {\r... */\n      jump\t// out\n        /* \"contracts/access/Ownable.sol\":1831:1932  function renounceOwnership() public virtual onlyOwner {... */\n    tag_22:\n        /* \"contracts/access/Ownable.sol\":1094:1107  _checkOwner() */\n      tag_46\n        /* \"contracts/access/Ownable.sol\":1094:1105  _checkOwner */\n      tag_47\n        /* \"contracts/access/Ownable.sol\":1094:1107  _checkOwner() */\n      jump\t// in\n    tag_46:\n        /* \"contracts/access/Ownable.sol\":1895:1925  _transferOwnership(address(0)) */\n      tag_49\n        /* \"contracts/access/Ownable.sol\":1922:1923  0 */\n      0x00\n        /* \"contracts/access/Ownable.sol\":1895:1913  _transferOwnership */\n      tag_50\n        /* \"contracts/access/Ownable.sol\":1895:1925  _transferOwnership(address(0)) */\n      jump\t// in\n    tag_49:\n        /* \"contracts/access/Ownable.sol\":1831:1932  function renounceOwnership() public virtual onlyOwner {... */\n      jump\t// out\n        /* \"contracts/access/Ownable.sol\":2081:2279  function transferOwnership(address newOwner) public virtual onlyOwner {... */\n    tag_32:\n        /* \"contracts/access/Ownable.sol\":1094:1107  _checkOwner() */\n      tag_53\n        /* \"contracts/access/Ownable.sol\":1094:1105  _checkOwner */\n      tag_47\n        /* \"contracts/access/Ownable.sol\":1094:1107  _checkOwner() */\n      jump\t// in\n    tag_53:\n      sub(shl(0xa0, 0x01), 0x01)\n        /* \"contracts/access/Ownable.sol\":2169:2191  newOwner != address(0) */\n      dup2\n      and\n        /* \"contracts/access/Ownable.sol\":2161:2234  require(newOwner != address(0), \"Ownable: new owner is the zero address\") */\n      tag_55\n      jumpi\n      mload(0x40)\n      shl(0xe5, 0x461bcd)\n      dup2\n      mstore\n        /* \"#utility.yul\":1714:1716   */\n      0x20\n        /* \"contracts/access/Ownable.sol\":2161:2234  require(newOwner != address(0), \"Ownable: new owner is the zero address\") */\n      0x04\n      dup3\n      add\n        /* \"#utility.yul\":1696:1717   */\n      mstore\n        /* \"#utility.yul\":1753:1755   */\n      0x26\n        /* \"#utility.yul\":1733:1751   */\n      0x24\n      dup3\n      add\n        /* \"#utility.yul\":1726:1756   */\n      mstore\n        /* \"#utility.yul\":1792:1826   */\n      0x4f776e61626c653a206e6577206f776e657220697320746865207a65726f2061\n        /* \"#utility.yul\":1772:1790   */\n      0x44\n      dup3\n      add\n        /* \"#utility.yul\":1765:1827   */\n      mstore\n        /* \"#utility.yul\":1863:1871   */\n      0x6464726573730000000000000000000000000000000000000000000000000000\n        /* \"#utility.yul\":1843:1861   */\n      0x64\n      dup3\n      add\n        /* \"#utility.yul\":1836:1872   */\n      mstore\n        /* \"#utility.yul\":1889:1908   */\n      0x84\n      add\n        /* \"contracts/access/Ownable.sol\":2161:2234  require(newOwner != address(0), \"Ownable: new owner is the zero address\") */\n      tag_41\n        /* \"#utility.yul\":1512:1914   */\n      jump\n        /* \"contracts/access/Ownable.sol\":2161:2234  require(newOwner != address(0), \"Ownable: new owner is the zero address\") */\n    tag_55:\n        /* \"contracts/access/Ownable.sol\":2244:2272  _transferOwnership(newOwner) */\n      tag_58\n        /* \"contracts/access/Ownable.sol\":2263:2271  newOwner */\n      dup2\n        /* \"contracts/access/Ownable.sol\":2244:2262  _transferOwnership */\n      tag_50\n        /* \"contracts/access/Ownable.sol\":2244:2272  _transferOwnership(newOwner) */\n      jump\t// in\n    tag_58:\n        /* \"contracts/access/Ownable.sol\":2081:2279  function transferOwnership(address newOwner) public virtual onlyOwner {... */\n      pop\n      jump\t// out\n        /* \"contracts/access/Ownable.sol\":1359:1489  function _checkOwner() internal view virtual {... */\n    tag_47:\n        /* \"contracts/access/Ownable.sol\":1247:1254  address */\n      0x00\n        /* \"contracts/access/Ownable.sol\":1273:1279  _owner */\n      sload\n      sub(shl(0xa0, 0x01), 0x01)\n      and\n        /* \"contracts/utils/Context.sol\":719:729  msg.sender */\n      caller\n        /* \"contracts/access/Ownable.sol\":1422:1445  owner() == _msgSender() */\n      eq\n        /* \"contracts/access/Ownable.sol\":1414:1482  require(owner() == _msgSender(), \"Ownable: caller is not the owner\") */\n      tag_49\n      jumpi\n      mload(0x40)\n      shl(0xe5, 0x461bcd)\n      dup2\n      mstore\n        /* \"#utility.yul\":2121:2123   */\n      0x20\n        /* \"contracts/access/Ownable.sol\":1414:1482  require(owner() == _msgSender(), \"Ownable: caller is not the owner\") */\n      0x04\n      dup3\n      add\n        /* \"#utility.yul\":2103:2124   */\n      dup2\n      swap1\n      mstore\n        /* \"#utility.yul\":2140:2158   */\n      0x24\n      dup3\n      add\n        /* \"#utility.yul\":2133:2163   */\n      mstore\n        /* \"#utility.yul\":2199:2233   */\n      0x4f776e61626c653a2063616c6c6572206973206e6f7420746865206f776e6572\n        /* \"#utility.yul\":2179:2197   */\n      0x44\n      dup3\n      add\n        /* \"#utility.yul\":2172:2234   */\n      mstore\n        /* \"#utility.yul\":2251:2269   */\n      0x64\n      add\n        /* \"contracts/access/Ownable.sol\":1414:1482  require(owner() == _msgSender(), \"Ownable: caller is not the owner\") */\n      tag_41\n        /* \"#utility.yul\":1919:2275   */\n      jump\n        /* \"contracts/access/Ownable.sol\":2433:2620  function _transferOwnership(address newOwner) internal virtual {... */\n    tag_50:\n        /* \"contracts/access/Ownable.sol\":2506:2522  address oldOwner */\n      0x00\n        /* \"contracts/access/Ownable.sol\":2525:2531  _owner */\n      dup1\n      sload\n      sub(shl(0xa0, 0x01), 0x01)\n        /* \"contracts/access/Ownable.sol\":2541:2558  _owner = newOwner */\n      dup4\n      dup2\n      and\n      0xffffffffffffffffffffffff0000000000000000000000000000000000000000\n      dup4\n      and\n      dup2\n      or\n      dup5\n      sstore\n        /* \"contracts/access/Ownable.sol\":2573:2613  OwnershipTransferred(oldOwner, newOwner) */\n      mload(0x40)\n        /* \"contracts/access/Ownable.sol\":2525:2531  _owner */\n      swap2\n      swap1\n      swap3\n      and\n      swap3\n      dup4\n      swap2\n        /* \"contracts/access/Ownable.sol\":2573:2613  OwnershipTransferred(oldOwner, newOwner) */\n      0x8be0079c531659141344cd1fd0a4f28419497f9722a3daafe3b4186f6b6457e0\n      swap2\n        /* \"contracts/access/Ownable.sol\":2506:2522  address oldOwner */\n      swap1\n        /* \"contracts/access/Ownable.sol\":2573:2613  OwnershipTransferred(oldOwner, newOwner) */\n      log3\n        /* \"contracts/access/Ownable.sol\":2496:2620  {... */\n      pop\n        /* \"contracts/access/Ownable.sol\":2433:2620  function _transferOwnership(address newOwner) internal virtual {... */\n      pop\n      jump\t// out\n        /* \"#utility.yul\":14:323   */\n    tag_31:\n        /* \"#utility.yul\":73:79   */\n      0x00\n        /* \"#utility.yul\":126:128   */\n      0x20\n        /* \"#utility.yul\":114:123   */\n      dup3\n        /* \"#utility.yul\":105:112   */\n      dup5\n        /* \"#utility.yul\":101:124   */\n      sub\n        /* \"#utility.yul\":97:129   */\n      slt\n        /* \"#utility.yul\":94:146   */\n      iszero\n      tag_70\n      jumpi\n        /* \"#utility.yul\":142:143   */\n      0x00\n        /* \"#utility.yul\":139:140   */\n      dup1\n        /* \"#utility.yul\":132:144   */\n      revert\n        /* \"#utility.yul\":94:146   */\n    tag_70:\n        /* \"#utility.yul\":181:190   */\n      dup2\n        /* \"#utility.yul\":168:191   */\n      calldataload\n      sub(shl(0xa0, 0x01), 0x01)\n        /* \"#utility.yul\":224:229   */\n      dup2\n        /* \"#utility.yul\":220:274   */\n      and\n        /* \"#utility.yul\":213:218   */\n      dup2\n        /* \"#utility.yul\":210:275   */\n      eq\n        /* \"#utility.yul\":200:293   */\n      tag_71\n      jumpi\n        /* \"#utility.yul\":289:290   */\n      0x00\n        /* \"#utility.yul\":286:287   */\n      dup1\n        /* \"#utility.yul\":279:291   */\n      revert\n        /* \"#utility.yul\":200:293   */\n    tag_71:\n        /* \"#utility.yul\":312:317   */\n      swap4\n        /* \"#utility.yul\":14:323   */\n      swap3\n      pop\n      pop\n      pop\n      jump\t// out\n\n    auxdata: 0xa2646970667358221220f386af78a189a2a722a7e91de1e55cd68d744aa0a4bb9d564029de5d1487c93e64736f6c63430008070033\n}\n",
				"bytecode": {
					"linkReferences": {},
					"object": "608060405234801561001057600080fd5b5061001a33610031565b600180546001600160a01b03191633179055610081565b600080546001600160a01b038381166001600160a01b0319831681178455604051919092169283917f8be0079c531659141344cd1fd0a4f28419497f9722a3daafe3b4186f6b6457e09190a35050565b610390806100906000396000f3fe6080604052600436106100585760003560e01c8063715018a611610040578063715018a6146100895780638da5cb5b1461009e578063f2fde38b146100c657005b80632296888514610061578063460968dd1461008157005b3661005f57005b005b34801561006d57600080fd5b506040514781526020015b60405180910390f35b61005f6100e6565b34801561009557600080fd5b5061005f6101c4565b3480156100aa57600080fd5b506000546040516001600160a01b039091168152602001610078565b3480156100d257600080fd5b5061005f6100e136600461032a565b6101d8565b604051600090309034908381818185875af1925050503d8060008114610128576040519150601f19603f3d011682016040523d82523d6000602084013e61012d565b606091505b50509050806101835760405162461bcd60e51b815260206004820152600b60248201527f43616c6c206661696c656400000000000000000000000000000000000000000060448201526064015b60405180910390fd5b60408051338152306020820152348183015290517fb37bd6f3ccfce130859d4569dc432409f423a7928e73eb5c5049a94e40f0c6489181900360600190a150565b6101cc610268565b6101d660006102c2565b565b6101e0610268565b6001600160a01b03811661025c5760405162461bcd60e51b815260206004820152602660248201527f4f776e61626c653a206e6577206f776e657220697320746865207a65726f206160448201527f6464726573730000000000000000000000000000000000000000000000000000606482015260840161017a565b610265816102c2565b50565b6000546001600160a01b031633146101d65760405162461bcd60e51b815260206004820181905260248201527f4f776e61626c653a2063616c6c6572206973206e6f7420746865206f776e6572604482015260640161017a565b600080546001600160a01b038381167fffffffffffffffffffffffff0000000000000000000000000000000000000000831681178455604051919092169283917f8be0079c531659141344cd1fd0a4f28419497f9722a3daafe3b4186f6b6457e09190a35050565b60006020828403121561033c57600080fd5b81356001600160a01b038116811461035357600080fd5b939250505056fea2646970667358221220f386af78a189a2a722a7e91de1e55cd68d744aa0a4bb9d564029de5d1487c93e64736f6c63430008070033",
					"opcodes": "PUSH1 0x80 PUSH1 0x40 MSTORE CALLVALUE DUP1 ISZERO PUSH2 0x10 JUMPI PUSH1 0x0 DUP1 REVERT JUMPDEST POP PUSH2 0x1A CALLER PUSH2 0x31 JUMP JUMPDEST PUSH1 0x1 DUP1 SLOAD PUSH1 0x1 PUSH1 0x1 PUSH1 0xA0 SHL SUB NOT AND CALLER OR SWAP1 SSTORE PUSH2 0x81 JUMP JUMPDEST PUSH1 0x0 DUP1 SLOAD PUSH1 0x1 PUSH1 0x1 PUSH1 0xA0 SHL SUB DUP4 DUP2 AND PUSH1 0x1 PUSH1 0x1 PUSH1 0xA0 SHL SUB NOT DUP4 AND DUP2 OR DUP5 SSTORE PUSH1 0x40 MLOAD SWAP2 SWAP1 SWAP3 AND SWAP3 DUP4 SWAP2 PUSH32 0x8BE0079C531659141344CD1FD0A4F28419497F9722A3DAAFE3B4186F6B6457E0 SWAP2 SWAP1 LOG3 POP POP JUMP JUMPDEST PUSH2 0x390 DUP1 PUSH2 0x90 PUSH1 0x0 CODECOPY PUSH1 0x0 RETURN INVALID PUSH1 0x80 PUSH1 0x40 MSTORE PUSH1 0x4 CALLDATASIZE LT PUSH2 0x58 JUMPI PUSH1 0x0 CALLDATALOAD PUSH1 0xE0 SHR DUP1 PUSH4 0x715018A6 GT PUSH2 0x40 JUMPI DUP1 PUSH4 0x715018A6 EQ PUSH2 0x89 JUMPI DUP1 PUSH4 0x8DA5CB5B EQ PUSH2 0x9E JUMPI DUP1 PUSH4 0xF2FDE38B EQ PUSH2 0xC6 JUMPI STOP JUMPDEST DUP1 PUSH4 0x22968885 EQ PUSH2 0x61 JUMPI DUP1 PUSH4 0x460968DD EQ PUSH2 0x81 JUMPI STOP JUMPDEST CALLDATASIZE PUSH2 0x5F JUMPI STOP JUMPDEST STOP JUMPDEST CALLVALUE DUP1 ISZERO PUSH2 0x6D JUMPI PUSH1 0x0 DUP1 REVERT JUMPDEST POP PUSH1 0x40 MLOAD SELFBALANCE DUP2 MSTORE PUSH1 0x20 ADD JUMPDEST PUSH1 0x40 MLOAD DUP1 SWAP2 SUB SWAP1 RETURN JUMPDEST PUSH2 0x5F PUSH2 0xE6 JUMP JUMPDEST CALLVALUE DUP1 ISZERO PUSH2 0x95 JUMPI PUSH1 0x0 DUP1 REVERT JUMPDEST POP PUSH2 0x5F PUSH2 0x1C4 JUMP JUMPDEST CALLVALUE DUP1 ISZERO PUSH2 0xAA JUMPI PUSH1 0x0 DUP1 REVERT JUMPDEST POP PUSH1 0x0 SLOAD PUSH1 0x40 MLOAD PUSH1 0x1 PUSH1 0x1 PUSH1 0xA0 SHL SUB SWAP1 SWAP2 AND DUP2 MSTORE PUSH1 0x20 ADD PUSH2 0x78 JUMP JUMPDEST CALLVALUE DUP1 ISZERO PUSH2 0xD2 JUMPI PUSH1 0x0 DUP1 REVERT JUMPDEST POP PUSH2 0x5F PUSH2 0xE1 CALLDATASIZE PUSH1 0x4 PUSH2 0x32A JUMP JUMPDEST PUSH2 0x1D8 JUMP JUMPDEST PUSH1 0x40 MLOAD PUSH1 0x0 SWAP1 ADDRESS SWAP1 CALLVALUE SWAP1 DUP4 DUP2 DUP2 DUP2 DUP6 DUP8 GAS CALL SWAP3 POP POP POP RETURNDATASIZE DUP1 PUSH1 0x0 DUP2 EQ PUSH2 0x128 JUMPI PUSH1 0x40 MLOAD SWAP2 POP PUSH1 0x1F NOT PUSH1 0x3F RETURNDATASIZE ADD AND DUP3 ADD PUSH1 0x40 MSTORE RETURNDATASIZE DUP3 MSTORE RETURNDATASIZE PUSH1 0x0 PUSH1 0x20 DUP5 ADD RETURNDATACOPY PUSH2 0x12D JUMP JUMPDEST PUSH1 0x60 SWAP2 POP JUMPDEST POP POP SWAP1 POP DUP1 PUSH2 0x183 JUMPI PUSH1 0x40 MLOAD PUSH3 0x461BCD PUSH1 0xE5 SHL DUP2 MSTORE PUSH1 0x20 PUSH1 0x4 DUP3 ADD MSTORE PUSH1 0xB PUSH1 0x24 DUP3 ADD MSTORE PUSH32 0x43616C6C206661696C6564000000000000000000000000000000000000000000 PUSH1 0x44 DUP3 ADD MSTORE PUSH1 0x64 ADD JUMPDEST PUSH1 0x40 MLOAD DUP1 SWAP2 SUB SWAP1 REVERT JUMPDEST PUSH1 0x40 DUP1 MLOAD CALLER DUP2 MSTORE ADDRESS PUSH1 0x20 DUP3 ADD MSTORE CALLVALUE DUP2 DUP4 ADD MSTORE SWAP1 MLOAD PUSH32 0xB37BD6F3CCFCE130859D4569DC432409F423A7928E73EB5C5049A94E40F0C648 SWAP2 DUP2 SWAP1 SUB PUSH1 0x60 ADD SWAP1 LOG1 POP JUMP JUMPDEST PUSH2 0x1CC PUSH2 0x268 JUMP JUMPDEST PUSH2 0x1D6 PUSH1 0x0 PUSH2 0x2C2 JUMP JUMPDEST JUMP JUMPDEST PUSH2 0x1E0 PUSH2 0x268 JUMP JUMPDEST PUSH1 0x1 PUSH1 0x1 PUSH1 0xA0 SHL SUB DUP2 AND PUSH2 0x25C JUMPI PUSH1 0x40 MLOAD PUSH3 0x461BCD PUSH1 0xE5 SHL DUP2 MSTORE PUSH1 0x20 PUSH1 0x4 DUP3 ADD MSTORE PUSH1 0x26 PUSH1 0x24 DUP3 ADD MSTORE PUSH32 0x4F776E61626C653A206E6577206F776E657220697320746865207A65726F2061 PUSH1 0x44 DUP3 ADD MSTORE PUSH32 0x6464726573730000000000000000000000000000000000000000000000000000 PUSH1 0x64 DUP3 ADD MSTORE PUSH1 0x84 ADD PUSH2 0x17A JUMP JUMPDEST PUSH2 0x265 DUP2 PUSH2 0x2C2 JUMP JUMPDEST POP JUMP JUMPDEST PUSH1 0x0 SLOAD PUSH1 0x1 PUSH1 0x1 PUSH1 0xA0 SHL SUB AND CALLER EQ PUSH2 0x1D6 JUMPI PUSH1 0x40 MLOAD PUSH3 0x461BCD PUSH1 0xE5 SHL DUP2 MSTORE PUSH1 0x20 PUSH1 0x4 DUP3 ADD DUP2 SWAP1 MSTORE PUSH1 0x24 DUP3 ADD MSTORE PUSH32 0x4F776E61626C653A2063616C6C6572206973206E6F7420746865206F776E6572 PUSH1 0x44 DUP3 ADD MSTORE PUSH1 0x64 ADD PUSH2 0x17A JUMP JUMPDEST PUSH1 0x0 DUP1 SLOAD PUSH1 0x1 PUSH1 0x1 PUSH1 0xA0 SHL SUB DUP4 DUP2 AND PUSH32 0xFFFFFFFFFFFFFFFFFFFFFFFF0000000000000000000000000000000000000000 DUP4 AND DUP2 OR DUP5 SSTORE PUSH1 0x40 MLOAD SWAP2 SWAP1 SWAP3 AND SWAP3 DUP4 SWAP2 PUSH32 0x8BE0079C531659141344CD1FD0A4F28419497F9722A3DAAFE3B4186F6B6457E0 SWAP2 SWAP1 LOG3 POP POP JUMP JUMPDEST PUSH1 0x0 PUSH1 0x20 DUP3 DUP5 SUB SLT ISZERO PUSH2 0x33C JUMPI PUSH1 0x0 DUP1 REVERT JUMPDEST DUP2 CALLDATALOAD PUSH1 0x1 PUSH1 0x1 PUSH1 0xA0 SHL SUB DUP2 AND DUP2 EQ PUSH2 0x353 JUMPI PUSH1 0x0 DUP1 REVERT JUMPDEST SWAP4 SWAP3 POP POP POP JUMP INVALID LOG2 PUSH5 0x6970667358 0x22 SLT KECCAK256 RETURN DUP7 0xAF PUSH25 0xA189A2A722A7E91DE1E55CD68D744AA0A4BB9D564029DE5D14 DUP8 0xC9 RETURNDATACOPY PUSH5 0x736F6C6343 STOP ADDMOD SMOD STOP CALLER "
				},
				"gasEstimates": {
					"creation": {
						"codeDepositCost": "182400",
						"executionCost": "50302",
						"totalCost": "232702"
					},
					"external": {
						"": "118",
						"getBalanceOfContract()": "169",
						"owner()": "2323",
						"renounceOwnership()": "infinite",
						"transderToContract()": "infinite",
						"transferOwnership(address)": "28327"
					},
					"internal": {
						"_withdraw(uint256)": "infinite",
						"_withdrawAll()": "infinite",
						"pay(address,uint256)": "infinite",
						"toTaskerBounty(address,uint256)": "infinite"
					}
				},
				"methodIdentifiers": {
					"getBalanceOfContract()": "22968885",
					"owner()": "8da5cb5b",
					"renounceOwnership()": "715018a6",
					"transderToContract()": "460968dd",
					"transferOwnership(address)": "f2fde38b"
				}
			},
			"storageLayout": {
				"storage": [
					{
						"astId": 268,
						"contract": "TransferService.sol:TransferService",
						"label": "_owner",
						"offset": 0,
						"slot": "0",
						"type": "t_address"
					},
					{
						"astId": 6,
						"contract": "TransferService.sol:TransferService",
						"label": "amphi_address",
						"offset": 0,
						"slot": "1",
						"type": "t_address"
					},
					{
						"astId": 16,
						"contract": "TransferService.sol:TransferService",
						"label": "locked",
						"offset": 20,
						"slot": "1",
						"type": "t_bool"
					}
				],
				"types": {
					"t_address": {
						"encoding": "inplace",
						"label": "address",
						"numberOfBytes": "20"
					},
					"t_bool": {
						"encoding": "inplace",
						"label": "bool",
						"numberOfBytes": "1"
					}
				}
			},
			"userdoc": {
				"kind": "user",
				"methods": {},
				"version": 1
			}
		}
	}
}