{
	"CalculateUtils.sol": {
		"CalculateUtils": {
			"abi": [
				{
					"inputs": [
						{
							"internalType": "string",
							"name": "",
							"type": "string"
						}
					],
					"name": "ParameterException",
					"type": "error"
				},
				{
					"anonymous": false,
					"inputs": [
						{
							"indexed": true,
							"internalType": "address",
							"name": "previousOwner",
							"type": "address"
						},
						{
							"indexed": true,
							"internalType": "address",
							"name": "newOwner",
							"type": "address"
						}
					],
					"name": "OwnershipTransferred",
					"type": "event"
				},
				{
					"inputs": [
						{
							"internalType": "uint256",
							"name": "_bounty",
							"type": "uint256"
						},
						{
							"internalType": "uint256",
							"name": "_deduct",
							"type": "uint256"
						}
					],
					"name": "getDeductMoney",
					"outputs": [
						{
							"internalType": "uint256",
							"name": "",
							"type": "uint256"
						}
					],
					"stateMutability": "pure",
					"type": "function"
				},
				{
					"inputs": [
						{
							"internalType": "uint256",
							"name": "_transNumber",
							"type": "uint256"
						}
					],
					"name": "getMatNumber",
					"outputs": [
						{
							"internalType": "uint256",
							"name": "",
							"type": "uint256"
						}
					],
					"stateMutability": "view",
					"type": "function"
				},
				{
					"inputs": [
						{
							"internalType": "uint256",
							"name": "_number",
							"type": "uint256"
						},
						{
							"internalType": "uint256",
							"name": "_ratio",
							"type": "uint256"
						}
					],
					"name": "getPercentage",
					"outputs": [
						{
							"internalType": "uint256",
							"name": "returnNumber",
							"type": "uint256"
						}
					],
					"stateMutability": "pure",
					"type": "function"
				},
				{
					"inputs": [
						{
							"internalType": "uint256",
							"name": "_ratio",
							"type": "uint256"
						},
						{
							"internalType": "uint256",
							"name": "_bounty",
							"type": "uint256"
						}
					],
					"name": "getPunish",
					"outputs": [
						{
							"internalType": "uint256",
							"name": "",
							"type": "uint256"
						}
					],
					"stateMutability": "pure",
					"type": "function"
				},
				{
					"inputs": [
						{
							"internalType": "uint256",
							"name": "_bounty",
							"type": "uint256"
						}
					],
					"name": "getTaskTrans",
					"outputs": [
						{
							"internalType": "uint256",
							"name": "_money",
							"type": "uint256"
						}
					],
					"stateMutability": "pure",
					"type": "function"
				},
				{
					"inputs": [
						{
							"internalType": "uint256",
							"name": "_bounty",
							"type": "uint256"
						}
					],
					"name": "getTaskTransEnd",
					"outputs": [
						{
							"internalType": "uint256",
							"name": "_money",
							"type": "uint256"
						}
					],
					"stateMutability": "pure",
					"type": "function"
				},
				{
					"inputs": [
						{
							"internalType": "uint256",
							"name": "_bounty",
							"type": "uint256"
						}
					],
					"name": "getTaskTransFirst",
					"outputs": [
						{
							"internalType": "uint256",
							"name": "_money",
							"type": "uint256"
						}
					],
					"stateMutability": "pure",
					"type": "function"
				},
				{
					"inputs": [
						{
							"internalType": "uint256",
							"name": "_bounty",
							"type": "uint256"
						}
					],
					"name": "getTaskVf",
					"outputs": [
						{
							"internalType": "uint256",
							"name": "_money",
							"type": "uint256"
						}
					],
					"stateMutability": "pure",
					"type": "function"
				},
				{
					"inputs": [],
					"name": "owner",
					"outputs": [
						{
							"internalType": "address",
							"name": "",
							"type": "address"
						}
					],
					"stateMutability": "view",
					"type": "function"
				},
				{
					"inputs": [
						{
							"internalType": "uint256",
							"name": "_bounts",
							"type": "uint256"
						}
					],
					"name": "punishRatio",
					"outputs": [
						{
							"internalType": "uint256",
							"name": "",
							"type": "uint256"
						}
					],
					"stateMutability": "view",
					"type": "function"
				},
				{
					"inputs": [],
					"name": "renounceOwnership",
					"outputs": [],
					"stateMutability": "nonpayable",
					"type": "function"
				},
				{
					"inputs": [
						{
							"internalType": "uint256",
							"name": "_rate",
							"type": "uint256"
						}
					],
					"name": "setRate",
					"outputs": [],
					"stateMutability": "nonpayable",
					"type": "function"
				},
				{
					"inputs": [
						{
							"internalType": "uint256",
							"name": "_vfN",
							"type": "uint256"
						}
					],
					"name": "setvfN",
					"outputs": [],
					"stateMutability": "nonpayable",
					"type": "function"
				},
				{
					"inputs": [
						{
							"internalType": "address",
							"name": "newOwner",
							"type": "address"
						}
					],
					"name": "transferOwnership",
					"outputs": [],
					"stateMutability": "nonpayable",
					"type": "function"
				}
			],
			"devdoc": {
				"kind": "dev",
				"methods": {
					"owner()": {
						"details": "Returns the address of the current owner."
					},
					"renounceOwnership()": {
						"details": "Leaves the contract without owner. It will not be possible to call `onlyOwner` functions anymore. Can only be called by the current owner. NOTE: Renouncing ownership will leave the contract without an owner, thereby removing any functionality that is only available to the owner."
					},
					"transferOwnership(address)": {
						"details": "Transfers ownership of the contract to a new account (`newOwner`). Can only be called by the current owner."
					}
				},
				"version": 1
			},
			"evm": {
				"assembly": "    /* \"CalculateUtils.sol\":184:3074  contract CalculateUtils is Ownable {... */\n  mstore(0x40, 0x80)\n    /* \"CalculateUtils.sol\":249:252  273 */\n  0x0111\n    /* \"CalculateUtils.sol\":226:252  uint256 private rate = 273 */\n  0x01\n  sstore\n    /* \"CalculateUtils.sol\":282:283  3 */\n  0x03\n    /* \"CalculateUtils.sol\":259:283  uint256 private vf_n = 3 */\n  0x02\n  sstore\n    /* \"CalculateUtils.sol\":184:3074  contract CalculateUtils is Ownable {... */\n  callvalue\n  dup1\n  iszero\n  tag_1\n  jumpi\n  0x00\n  dup1\n  revert\ntag_1:\n  pop\n    /* \"contracts/access/Ownable.sol\":936:968  _transferOwnership(_msgSender()) */\n  tag_4\n    /* \"contracts/utils/Context.sol\":719:729  msg.sender */\n  caller\n    /* \"contracts/access/Ownable.sol\":936:954  _transferOwnership */\n  tag_7\n    /* \"contracts/access/Ownable.sol\":936:968  _transferOwnership(_msgSender()) */\n  jump\t// in\ntag_4:\n    /* \"CalculateUtils.sol\":184:3074  contract CalculateUtils is Ownable {... */\n  jump(tag_8)\n    /* \"contracts/access/Ownable.sol\":2433:2620  function _transferOwnership(address newOwner) internal virtual {... */\ntag_7:\n    /* \"contracts/access/Ownable.sol\":2506:2522  address oldOwner */\n  0x00\n    /* \"contracts/access/Ownable.sol\":2525:2531  _owner */\n  dup1\n  sload\n  sub(shl(0xa0, 0x01), 0x01)\n    /* \"contracts/access/Ownable.sol\":2541:2558  _owner = newOwner */\n  dup4\n  dup2\n  and\n  not(sub(shl(0xa0, 0x01), 0x01))\n  dup4\n  and\n  dup2\n  or\n  dup5\n  sstore\n    /* \"contracts/access/Ownable.sol\":2573:2613  OwnershipTransferred(oldOwner, newOwner) */\n  mload(0x40)\n    /* \"contracts/access/Ownable.sol\":2525:2531  _owner */\n  swap2\n  swap1\n  swap3\n  and\n  swap3\n  dup4\n  swap2\n    /* \"contracts/access/Ownable.sol\":2573:2613  OwnershipTransferred(oldOwner, newOwner) */\n  0x8be0079c531659141344cd1fd0a4f28419497f9722a3daafe3b4186f6b6457e0\n  swap2\n    /* \"contracts/access/Ownable.sol\":2506:2522  address oldOwner */\n  swap1\n    /* \"contracts/access/Ownable.sol\":2573:2613  OwnershipTransferred(oldOwner, newOwner) */\n  log3\n    /* \"contracts/access/Ownable.sol\":2496:2620  {... */\n  pop\n    /* \"contracts/access/Ownable.sol\":2433:2620  function _transferOwnership(address newOwner) internal virtual {... */\n  pop\n  jump\t// out\n    /* \"CalculateUtils.sol\":184:3074  contract CalculateUtils is Ownable {... */\ntag_8:\n  dataSize(sub_0)\n  dup1\n  dataOffset(sub_0)\n  0x00\n  codecopy\n  0x00\n  return\nstop\n\nsub_0: assembly {\n        /* \"CalculateUtils.sol\":184:3074  contract CalculateUtils is Ownable {... */\n      mstore(0x40, 0x80)\n      callvalue\n      dup1\n      iszero\n      tag_1\n      jumpi\n      0x00\n      dup1\n      revert\n    tag_1:\n      pop\n      jumpi(tag_2, lt(calldatasize, 0x04))\n      shr(0xe0, calldataload(0x00))\n      dup1\n      0x8f861ba7\n      gt\n      tag_17\n      jumpi\n      dup1\n      0xa730941d\n      gt\n      tag_18\n      jumpi\n      dup1\n      0xa730941d\n      eq\n      tag_13\n      jumpi\n      dup1\n      0xf2e60202\n      eq\n      tag_14\n      jumpi\n      dup1\n      0xf2fde38b\n      eq\n      tag_15\n      jumpi\n      dup1\n      0xf74f3655\n      eq\n      tag_16\n      jumpi\n      0x00\n      dup1\n      revert\n    tag_18:\n      dup1\n      0x8f861ba7\n      eq\n      tag_10\n      jumpi\n      dup1\n      0x9ce5c4bf\n      eq\n      tag_11\n      jumpi\n      dup1\n      0xa3cb7c55\n      eq\n      tag_12\n      jumpi\n      0x00\n      dup1\n      revert\n    tag_17:\n      dup1\n      0x5c830098\n      gt\n      tag_19\n      jumpi\n      dup1\n      0x5c830098\n      eq\n      tag_6\n      jumpi\n      dup1\n      0x6873e8d2\n      eq\n      tag_7\n      jumpi\n      dup1\n      0x715018a6\n      eq\n      tag_8\n      jumpi\n      dup1\n      0x8da5cb5b\n      eq\n      tag_9\n      jumpi\n      0x00\n      dup1\n      revert\n    tag_19:\n      dup1\n      0x31bfb377\n      eq\n      tag_3\n      jumpi\n      dup1\n      0x34fcf437\n      eq\n      tag_4\n      jumpi\n      dup1\n      0x4f6ca3ce\n      eq\n      tag_5\n      jumpi\n    tag_2:\n      0x00\n      dup1\n      revert\n        /* \"CalculateUtils.sol\":1342:1419  function setvfN(uint256 _vfN) public onlyOwner {... */\n    tag_3:\n      tag_20\n      tag_21\n      calldatasize\n      0x04\n      tag_22\n      jump\t// in\n    tag_21:\n      tag_23\n      jump\t// in\n    tag_20:\n      stop\n        /* \"CalculateUtils.sol\":1179:1259  function setRate(uint256 _rate) public onlyOwner {... */\n    tag_4:\n      tag_20\n      tag_25\n      calldatasize\n      0x04\n      tag_22\n      jump\t// in\n    tag_25:\n      tag_26\n      jump\t// in\n        /* \"CalculateUtils.sol\":354:1151  function punishRatio(uint256 _bounts) public view returns (uint256) {... */\n    tag_5:\n      tag_27\n      tag_28\n      calldatasize\n      0x04\n      tag_22\n      jump\t// in\n    tag_28:\n      tag_29\n      jump\t// in\n    tag_27:\n      mload(0x40)\n        /* \"#utility.yul\":345:370   */\n      swap1\n      dup2\n      mstore\n        /* \"#utility.yul\":333:335   */\n      0x20\n        /* \"#utility.yul\":318:336   */\n      add\n        /* \"CalculateUtils.sol\":354:1151  function punishRatio(uint256 _bounts) public view returns (uint256) {... */\n    tag_30:\n      mload(0x40)\n      dup1\n      swap2\n      sub\n      swap1\n      return\n        /* \"CalculateUtils.sol\":2299:2426  function getTaskVf(uint256 _bounty) public pure returns (uint256 _money) {... */\n    tag_6:\n      tag_27\n      tag_33\n      calldatasize\n      0x04\n      tag_22\n      jump\t// in\n    tag_33:\n      tag_34\n      jump\t// in\n        /* \"CalculateUtils.sol\":1745:1907  function getTaskTrans(uint256 _bounty)... */\n    tag_7:\n      tag_27\n      tag_37\n      calldatasize\n      0x04\n      tag_22\n      jump\t// in\n    tag_37:\n      tag_38\n      jump\t// in\n        /* \"contracts/access/Ownable.sol\":1831:1932  function renounceOwnership() public virtual onlyOwner {... */\n    tag_8:\n      tag_20\n      tag_41\n      jump\t// in\n        /* \"contracts/access/Ownable.sol\":1201:1286  function owner() public view virtual returns (address) {... */\n    tag_9:\n        /* \"contracts/access/Ownable.sol\":1247:1254  address */\n      0x00\n        /* \"contracts/access/Ownable.sol\":1273:1279  _owner */\n      sload\n        /* \"contracts/access/Ownable.sol\":1201:1286  function owner() public view virtual returns (address) {... */\n      mload(0x40)\n        /* \"contracts/access/Ownable.sol\":1273:1279  _owner */\n      0xffffffffffffffffffffffffffffffffffffffff\n      swap1\n      swap2\n      and\n        /* \"#utility.yul\":527:601   */\n      dup2\n      mstore\n        /* \"#utility.yul\":515:517   */\n      0x20\n        /* \"#utility.yul\":500:518   */\n      add\n        /* \"contracts/access/Ownable.sol\":1201:1286  function owner() public view virtual returns (address) {... */\n      tag_30\n        /* \"#utility.yul\":381:607   */\n      jump\n        /* \"CalculateUtils.sol\":2894:3071  function getDeductMoney(uint256 _bounty, uint256 _deduct)... */\n    tag_10:\n      tag_27\n      tag_47\n      calldatasize\n      0x04\n      tag_48\n      jump\t// in\n    tag_47:\n      tag_49\n      jump\t// in\n        /* \"CalculateUtils.sol\":2688:2857  function getPunish(uint256 _ratio, uint256 _bounty)... */\n    tag_11:\n      tag_27\n      tag_52\n      calldatasize\n      0x04\n      tag_48\n      jump\t// in\n    tag_52:\n      tag_53\n      jump\t// in\n        /* \"CalculateUtils.sol\":1915:2080  function getTaskTransEnd(uint256 _bounty)... */\n    tag_12:\n      tag_27\n      tag_56\n      calldatasize\n      0x04\n      tag_22\n      jump\t// in\n    tag_56:\n      tag_57\n      jump\t// in\n        /* \"CalculateUtils.sol\":2088:2255  function getTaskTransFirst(uint256 _bounty)... */\n    tag_13:\n      tag_27\n      tag_60\n      calldatasize\n      0x04\n      tag_22\n      jump\t// in\n    tag_60:\n      tag_61\n      jump\t// in\n        /* \"CalculateUtils.sol\":1427:1701  function getMatNumber(uint256 _transNumber) public view returns (uint256) {... */\n    tag_14:\n      tag_27\n      tag_64\n      calldatasize\n      0x04\n      tag_22\n      jump\t// in\n    tag_64:\n      tag_65\n      jump\t// in\n        /* \"contracts/access/Ownable.sol\":2081:2279  function transferOwnership(address newOwner) public virtual onlyOwner {... */\n    tag_15:\n      tag_20\n      tag_68\n      calldatasize\n      0x04\n      tag_69\n      jump\t// in\n    tag_68:\n      tag_70\n      jump\t// in\n        /* \"CalculateUtils.sol\":2460:2660  function getPercentage(uint256 _number, uint256 _ratio)... */\n    tag_16:\n      tag_27\n      tag_72\n      calldatasize\n      0x04\n      tag_48\n      jump\t// in\n    tag_72:\n      tag_73\n      jump\t// in\n        /* \"CalculateUtils.sol\":1342:1419  function setvfN(uint256 _vfN) public onlyOwner {... */\n    tag_23:\n        /* \"contracts/access/Ownable.sol\":1094:1107  _checkOwner() */\n      tag_76\n        /* \"contracts/access/Ownable.sol\":1094:1105  _checkOwner */\n      tag_77\n        /* \"contracts/access/Ownable.sol\":1094:1107  _checkOwner() */\n      jump\t// in\n    tag_76:\n        /* \"CalculateUtils.sol\":1400:1404  vf_n */\n      0x02\n        /* \"CalculateUtils.sol\":1400:1411  vf_n = _vfN */\n      sstore\n        /* \"CalculateUtils.sol\":1342:1419  function setvfN(uint256 _vfN) public onlyOwner {... */\n      jump\t// out\n        /* \"CalculateUtils.sol\":1179:1259  function setRate(uint256 _rate) public onlyOwner {... */\n    tag_26:\n        /* \"contracts/access/Ownable.sol\":1094:1107  _checkOwner() */\n      tag_80\n        /* \"contracts/access/Ownable.sol\":1094:1105  _checkOwner */\n      tag_77\n        /* \"contracts/access/Ownable.sol\":1094:1107  _checkOwner() */\n      jump\t// in\n    tag_80:\n        /* \"CalculateUtils.sol\":1239:1243  rate */\n      0x01\n        /* \"CalculateUtils.sol\":1239:1251  rate = _rate */\n      sstore\n        /* \"CalculateUtils.sol\":1179:1259  function setRate(uint256 _rate) public onlyOwner {... */\n      jump\t// out\n        /* \"CalculateUtils.sol\":354:1151  function punishRatio(uint256 _bounts) public view returns (uint256) {... */\n    tag_29:\n        /* \"CalculateUtils.sol\":413:420  uint256 */\n      0x00\n        /* \"CalculateUtils.sol\":433:446  uint256 ratio */\n      dup1\n        /* \"CalculateUtils.sol\":471:475  rate */\n      sload(0x01)\n        /* \"CalculateUtils.sol\":461:468  _bounts */\n      dup4\n        /* \"CalculateUtils.sol\":461:475  _bounts < rate */\n      lt\n        /* \"CalculateUtils.sol\":457:1121  if (_bounts < rate) {... */\n      iszero\n      tag_83\n      jumpi\n      pop\n        /* \"CalculateUtils.sol\":500:501  1 */\n      0x01\n        /* \"CalculateUtils.sol\":457:1121  if (_bounts < rate) {... */\n      jump(tag_109)\n    tag_83:\n        /* \"CalculateUtils.sol\":534:538  rate */\n      sload(0x01)\n        /* \"CalculateUtils.sol\":523:530  _bounts */\n      dup4\n        /* \"CalculateUtils.sol\":523:538  _bounts >= rate */\n      lt\n      iszero\n        /* \"CalculateUtils.sol\":523:562  _bounts >= rate && _bounts < rate * 1e1 */\n      dup1\n      iszero\n      tag_85\n      jumpi\n      pop\n        /* \"CalculateUtils.sol\":552:556  rate */\n      sload(0x01)\n        /* \"CalculateUtils.sol\":552:562  rate * 1e1 */\n      tag_86\n      swap1\n        /* \"CalculateUtils.sol\":559:562  1e1 */\n      0x0a\n        /* \"CalculateUtils.sol\":552:562  rate * 1e1 */\n      tag_87\n      jump\t// in\n    tag_86:\n        /* \"CalculateUtils.sol\":542:549  _bounts */\n      dup4\n        /* \"CalculateUtils.sol\":542:562  _bounts < rate * 1e1 */\n      lt\n        /* \"CalculateUtils.sol\":523:562  _bounts >= rate && _bounts < rate * 1e1 */\n    tag_85:\n        /* \"CalculateUtils.sol\":519:1121  if (_bounts >= rate && _bounts < rate * 1e1) {... */\n      iszero\n      tag_88\n      jumpi\n      pop\n        /* \"CalculateUtils.sol\":587:590  1e1 */\n      0x0a\n        /* \"CalculateUtils.sol\":519:1121  if (_bounts >= rate && _bounts < rate * 1e1) {... */\n      jump(tag_109)\n    tag_88:\n        /* \"CalculateUtils.sol\":623:627  rate */\n      sload(0x01)\n        /* \"CalculateUtils.sol\":623:633  rate * 1e1 */\n      tag_90\n      swap1\n        /* \"CalculateUtils.sol\":630:633  1e1 */\n      0x0a\n        /* \"CalculateUtils.sol\":623:633  rate * 1e1 */\n      tag_87\n      jump\t// in\n    tag_90:\n        /* \"CalculateUtils.sol\":612:619  _bounts */\n      dup4\n        /* \"CalculateUtils.sol\":612:633  _bounts >= rate * 1e1 */\n      lt\n      iszero\n        /* \"CalculateUtils.sol\":612:657  _bounts >= rate * 1e1 && _bounts < rate * 1e2 */\n      dup1\n      iszero\n      tag_91\n      jumpi\n      pop\n        /* \"CalculateUtils.sol\":647:651  rate */\n      sload(0x01)\n        /* \"CalculateUtils.sol\":647:657  rate * 1e2 */\n      tag_92\n      swap1\n        /* \"CalculateUtils.sol\":654:657  1e2 */\n      0x64\n        /* \"CalculateUtils.sol\":647:657  rate * 1e2 */\n      tag_87\n      jump\t// in\n    tag_92:\n        /* \"CalculateUtils.sol\":637:644  _bounts */\n      dup4\n        /* \"CalculateUtils.sol\":637:657  _bounts < rate * 1e2 */\n      lt\n        /* \"CalculateUtils.sol\":612:657  _bounts >= rate * 1e1 && _bounts < rate * 1e2 */\n    tag_91:\n        /* \"CalculateUtils.sol\":608:1121  if (_bounts >= rate * 1e1 && _bounts < rate * 1e2) {... */\n      iszero\n      tag_93\n      jumpi\n      pop\n        /* \"CalculateUtils.sol\":682:685  1e2 */\n      0x64\n        /* \"CalculateUtils.sol\":608:1121  if (_bounts >= rate * 1e1 && _bounts < rate * 1e2) {... */\n      jump(tag_109)\n    tag_93:\n        /* \"CalculateUtils.sol\":718:722  rate */\n      sload(0x01)\n        /* \"CalculateUtils.sol\":718:728  rate * 1e2 */\n      tag_95\n      swap1\n        /* \"CalculateUtils.sol\":725:728  1e2 */\n      0x64\n        /* \"CalculateUtils.sol\":718:728  rate * 1e2 */\n      tag_87\n      jump\t// in\n    tag_95:\n        /* \"CalculateUtils.sol\":707:714  _bounts */\n      dup4\n        /* \"CalculateUtils.sol\":707:728  _bounts >= rate * 1e2 */\n      lt\n      iszero\n        /* \"CalculateUtils.sol\":707:752  _bounts >= rate * 1e2 && _bounts < rate * 1e3 */\n      dup1\n      iszero\n      tag_96\n      jumpi\n      pop\n        /* \"CalculateUtils.sol\":742:746  rate */\n      sload(0x01)\n        /* \"CalculateUtils.sol\":742:752  rate * 1e3 */\n      tag_97\n      swap1\n        /* \"CalculateUtils.sol\":749:752  1e3 */\n      0x03e8\n        /* \"CalculateUtils.sol\":742:752  rate * 1e3 */\n      tag_87\n      jump\t// in\n    tag_97:\n        /* \"CalculateUtils.sol\":732:739  _bounts */\n      dup4\n        /* \"CalculateUtils.sol\":732:752  _bounts < rate * 1e3 */\n      lt\n        /* \"CalculateUtils.sol\":707:752  _bounts >= rate * 1e2 && _bounts < rate * 1e3 */\n    tag_96:\n        /* \"CalculateUtils.sol\":703:1121  if (_bounts >= rate * 1e2 && _bounts < rate * 1e3) {... */\n      iszero\n      tag_98\n      jumpi\n      pop\n        /* \"CalculateUtils.sol\":777:780  1e3 */\n      0x03e8\n        /* \"CalculateUtils.sol\":703:1121  if (_bounts >= rate * 1e2 && _bounts < rate * 1e3) {... */\n      jump(tag_109)\n    tag_98:\n        /* \"CalculateUtils.sol\":813:817  rate */\n      sload(0x01)\n        /* \"CalculateUtils.sol\":813:823  rate * 1e3 */\n      tag_100\n      swap1\n        /* \"CalculateUtils.sol\":820:823  1e3 */\n      0x03e8\n        /* \"CalculateUtils.sol\":813:823  rate * 1e3 */\n      tag_87\n      jump\t// in\n    tag_100:\n        /* \"CalculateUtils.sol\":802:809  _bounts */\n      dup4\n        /* \"CalculateUtils.sol\":802:823  _bounts >= rate * 1e3 */\n      lt\n      iszero\n        /* \"CalculateUtils.sol\":802:848  _bounts >= rate * 1e3 && _bounts <= rate * 1e4 */\n      dup1\n      iszero\n      tag_101\n      jumpi\n      pop\n        /* \"CalculateUtils.sol\":838:842  rate */\n      sload(0x01)\n        /* \"CalculateUtils.sol\":838:848  rate * 1e4 */\n      tag_102\n      swap1\n        /* \"CalculateUtils.sol\":845:848  1e4 */\n      0x2710\n        /* \"CalculateUtils.sol\":838:848  rate * 1e4 */\n      tag_87\n      jump\t// in\n    tag_102:\n        /* \"CalculateUtils.sol\":827:834  _bounts */\n      dup4\n        /* \"CalculateUtils.sol\":827:848  _bounts <= rate * 1e4 */\n      gt\n      iszero\n        /* \"CalculateUtils.sol\":802:848  _bounts >= rate * 1e3 && _bounts <= rate * 1e4 */\n    tag_101:\n        /* \"CalculateUtils.sol\":798:1121  if (_bounts >= rate * 1e3 && _bounts <= rate * 1e4) {... */\n      iszero\n      tag_103\n      jumpi\n      pop\n        /* \"CalculateUtils.sol\":873:876  1e4 */\n      0x2710\n        /* \"CalculateUtils.sol\":798:1121  if (_bounts >= rate * 1e3 && _bounts <= rate * 1e4) {... */\n      jump(tag_109)\n    tag_103:\n        /* \"CalculateUtils.sol\":909:913  rate */\n      sload(0x01)\n        /* \"CalculateUtils.sol\":909:919  rate * 1e4 */\n      tag_105\n      swap1\n        /* \"CalculateUtils.sol\":916:919  1e4 */\n      0x2710\n        /* \"CalculateUtils.sol\":909:919  rate * 1e4 */\n      tag_87\n      jump\t// in\n    tag_105:\n        /* \"CalculateUtils.sol\":898:905  _bounts */\n      dup4\n        /* \"CalculateUtils.sol\":898:919  _bounts >= rate * 1e4 */\n      lt\n      iszero\n        /* \"CalculateUtils.sol\":898:944  _bounts >= rate * 1e4 && _bounts <= rate * 1e5 */\n      dup1\n      iszero\n      tag_106\n      jumpi\n      pop\n        /* \"CalculateUtils.sol\":934:938  rate */\n      sload(0x01)\n        /* \"CalculateUtils.sol\":934:944  rate * 1e5 */\n      tag_107\n      swap1\n        /* \"CalculateUtils.sol\":941:944  1e5 */\n      0x0186a0\n        /* \"CalculateUtils.sol\":934:944  rate * 1e5 */\n      tag_87\n      jump\t// in\n    tag_107:\n        /* \"CalculateUtils.sol\":923:930  _bounts */\n      dup4\n        /* \"CalculateUtils.sol\":923:944  _bounts <= rate * 1e5 */\n      gt\n      iszero\n        /* \"CalculateUtils.sol\":898:944  _bounts >= rate * 1e4 && _bounts <= rate * 1e5 */\n    tag_106:\n        /* \"CalculateUtils.sol\":894:1121  if (_bounts >= rate * 1e4 && _bounts <= rate * 1e5) {... */\n      iszero\n      tag_108\n      jumpi\n      pop\n        /* \"CalculateUtils.sol\":969:972  1e5 */\n      0x0186a0\n        /* \"CalculateUtils.sol\":894:1121  if (_bounts >= rate * 1e4 && _bounts <= rate * 1e5) {... */\n      jump(tag_109)\n    tag_108:\n        /* \"CalculateUtils.sol\":1012:1109  ParameterException(... */\n      mload(0x40)\n      0xd1d89b7400000000000000000000000000000000000000000000000000000000\n      dup2\n      mstore\n        /* \"#utility.yul\":1708:1710   */\n      0x20\n        /* \"CalculateUtils.sol\":1012:1109  ParameterException(... */\n      0x04\n      dup3\n      add\n        /* \"#utility.yul\":1690:1711   */\n      mstore\n        /* \"#utility.yul\":1747:1749   */\n      0x2b\n        /* \"#utility.yul\":1727:1745   */\n      0x24\n      dup3\n      add\n        /* \"#utility.yul\":1720:1750   */\n      mstore\n        /* \"#utility.yul\":1786:1820   */\n      0x556e61626c6520746f2063616c63756c6174652c506c65617365207375626d69\n        /* \"#utility.yul\":1766:1784   */\n      0x44\n      dup3\n      add\n        /* \"#utility.yul\":1759:1821   */\n      mstore\n        /* \"#utility.yul\":1857:1870   */\n      0x7420612072657175657374000000000000000000000000000000000000000000\n        /* \"#utility.yul\":1837:1855   */\n      0x64\n      dup3\n      add\n        /* \"#utility.yul\":1830:1871   */\n      mstore\n        /* \"#utility.yul\":1888:1907   */\n      0x84\n      add\n        /* \"CalculateUtils.sol\":1012:1109  ParameterException(... */\n    tag_110:\n      mload(0x40)\n      dup1\n      swap2\n      sub\n      swap1\n      revert\n        /* \"CalculateUtils.sol\":894:1121  if (_bounts >= rate * 1e4 && _bounts <= rate * 1e5) {... */\n    tag_109:\n        /* \"CalculateUtils.sol\":1138:1143  ratio */\n      swap3\n        /* \"CalculateUtils.sol\":354:1151  function punishRatio(uint256 _bounts) public view returns (uint256) {... */\n      swap2\n      pop\n      pop\n      jump\t// out\n        /* \"CalculateUtils.sol\":2299:2426  function getTaskVf(uint256 _bounty) public pure returns (uint256 _money) {... */\n    tag_34:\n        /* \"CalculateUtils.sol\":2356:2370  uint256 _money */\n      0x00\n        /* \"CalculateUtils.sol\":2392:2418  getPercentage(_bounty, 36) */\n      tag_109\n        /* \"CalculateUtils.sol\":2406:2413  _bounty */\n      dup3\n        /* \"CalculateUtils.sol\":2415:2417  36 */\n      0x24\n        /* \"CalculateUtils.sol\":2392:2405  getPercentage */\n      tag_73\n        /* \"CalculateUtils.sol\":2392:2418  getPercentage(_bounty, 36) */\n      jump\t// in\n        /* \"CalculateUtils.sol\":1745:1907  function getTaskTrans(uint256 _bounty)... */\n    tag_38:\n        /* \"CalculateUtils.sol\":1832:1846  uint256 _money */\n      0x00\n        /* \"CalculateUtils.sol\":1873:1899  getPercentage(_bounty, 54) */\n      tag_109\n        /* \"CalculateUtils.sol\":1887:1894  _bounty */\n      dup3\n        /* \"CalculateUtils.sol\":1896:1898  54 */\n      0x36\n        /* \"CalculateUtils.sol\":1873:1886  getPercentage */\n      tag_73\n        /* \"CalculateUtils.sol\":1873:1899  getPercentage(_bounty, 54) */\n      jump\t// in\n        /* \"contracts/access/Ownable.sol\":1831:1932  function renounceOwnership() public virtual onlyOwner {... */\n    tag_41:\n        /* \"contracts/access/Ownable.sol\":1094:1107  _checkOwner() */\n      tag_117\n        /* \"contracts/access/Ownable.sol\":1094:1105  _checkOwner */\n      tag_77\n        /* \"contracts/access/Ownable.sol\":1094:1107  _checkOwner() */\n      jump\t// in\n    tag_117:\n        /* \"contracts/access/Ownable.sol\":1895:1925  _transferOwnership(address(0)) */\n      tag_119\n        /* \"contracts/access/Ownable.sol\":1922:1923  0 */\n      0x00\n        /* \"contracts/access/Ownable.sol\":1895:1913  _transferOwnership */\n      tag_120\n        /* \"contracts/access/Ownable.sol\":1895:1925  _transferOwnership(address(0)) */\n      jump\t// in\n    tag_119:\n        /* \"contracts/access/Ownable.sol\":1831:1932  function renounceOwnership() public virtual onlyOwner {... */\n      jump\t// out\n        /* \"CalculateUtils.sol\":2894:3071  function getDeductMoney(uint256 _bounty, uint256 _deduct)... */\n    tag_49:\n        /* \"CalculateUtils.sol\":3000:3007  uint256 */\n      0x00\n        /* \"CalculateUtils.sol\":3032:3063  getPercentage(_bounty, _deduct) */\n      tag_123\n        /* \"CalculateUtils.sol\":3046:3053  _bounty */\n      dup4\n        /* \"CalculateUtils.sol\":3055:3062  _deduct */\n      dup4\n        /* \"CalculateUtils.sol\":3032:3045  getPercentage */\n      tag_73\n        /* \"CalculateUtils.sol\":3032:3063  getPercentage(_bounty, _deduct) */\n      jump\t// in\n    tag_123:\n        /* \"CalculateUtils.sol\":3025:3063  return getPercentage(_bounty, _deduct) */\n      swap4\n        /* \"CalculateUtils.sol\":2894:3071  function getDeductMoney(uint256 _bounty, uint256 _deduct)... */\n      swap3\n      pop\n      pop\n      pop\n      jump\t// out\n        /* \"CalculateUtils.sol\":2688:2857  function getPunish(uint256 _ratio, uint256 _bounty)... */\n    tag_53:\n        /* \"CalculateUtils.sol\":2788:2795  uint256 */\n      0x00\n        /* \"CalculateUtils.sol\":2820:2849  SafeMath.div(_bounty, _ratio) */\n      tag_123\n        /* \"CalculateUtils.sol\":2833:2840  _bounty */\n      dup3\n        /* \"CalculateUtils.sol\":2842:2848  _ratio */\n      dup5\n        /* \"CalculateUtils.sol\":2820:2832  SafeMath.div */\n      tag_126\n        /* \"CalculateUtils.sol\":2820:2849  SafeMath.div(_bounty, _ratio) */\n      jump\t// in\n        /* \"CalculateUtils.sol\":1915:2080  function getTaskTransEnd(uint256 _bounty)... */\n    tag_57:\n        /* \"CalculateUtils.sol\":2005:2019  uint256 _money */\n      0x00\n        /* \"CalculateUtils.sol\":2046:2072  getPercentage(_bounty, 24) */\n      tag_109\n        /* \"CalculateUtils.sol\":2060:2067  _bounty */\n      dup3\n        /* \"CalculateUtils.sol\":2069:2071  24 */\n      0x18\n        /* \"CalculateUtils.sol\":2046:2059  getPercentage */\n      tag_73\n        /* \"CalculateUtils.sol\":2046:2072  getPercentage(_bounty, 24) */\n      jump\t// in\n        /* \"CalculateUtils.sol\":2088:2255  function getTaskTransFirst(uint256 _bounty)... */\n    tag_61:\n        /* \"CalculateUtils.sol\":2180:2194  uint256 _money */\n      0x00\n        /* \"CalculateUtils.sol\":2221:2247  getPercentage(_bounty, 30) */\n      tag_109\n        /* \"CalculateUtils.sol\":2235:2242  _bounty */\n      dup3\n        /* \"CalculateUtils.sol\":2244:2246  30 */\n      0x1e\n        /* \"CalculateUtils.sol\":2221:2234  getPercentage */\n      tag_73\n        /* \"CalculateUtils.sol\":2221:2247  getPercentage(_bounty, 30) */\n      jump\t// in\n        /* \"CalculateUtils.sol\":1427:1701  function getMatNumber(uint256 _transNumber) public view returns (uint256) {... */\n    tag_65:\n        /* \"CalculateUtils.sol\":1492:1499  uint256 */\n      0x00\n        /* \"CalculateUtils.sol\":1512:1525  uint256 _maxV */\n      dup1\n        /* \"CalculateUtils.sol\":1556:1560  vf_n */\n      sload(0x02)\n        /* \"CalculateUtils.sol\":1540:1552  _transNumber */\n      dup4\n        /* \"CalculateUtils.sol\":1540:1560  _transNumber <= vf_n */\n      gt\n        /* \"CalculateUtils.sol\":1536:1671  if (_transNumber <= vf_n) {... */\n      tag_132\n      jumpi\n      pop\n        /* \"CalculateUtils.sol\":1585:1586  1 */\n      0x01\n        /* \"CalculateUtils.sol\":1536:1671  if (_transNumber <= vf_n) {... */\n      jump(tag_109)\n    tag_132:\n        /* \"CalculateUtils.sol\":1627:1659  SafeMath.div(_transNumber, vf_n) */\n      tag_123\n        /* \"CalculateUtils.sol\":1640:1652  _transNumber */\n      dup4\n        /* \"CalculateUtils.sol\":1654:1658  vf_n */\n      sload(0x02)\n        /* \"CalculateUtils.sol\":1627:1639  SafeMath.div */\n      tag_126\n        /* \"CalculateUtils.sol\":1627:1659  SafeMath.div(_transNumber, vf_n) */\n      jump\t// in\n        /* \"contracts/access/Ownable.sol\":2081:2279  function transferOwnership(address newOwner) public virtual onlyOwner {... */\n    tag_70:\n        /* \"contracts/access/Ownable.sol\":1094:1107  _checkOwner() */\n      tag_136\n        /* \"contracts/access/Ownable.sol\":1094:1105  _checkOwner */\n      tag_77\n        /* \"contracts/access/Ownable.sol\":1094:1107  _checkOwner() */\n      jump\t// in\n    tag_136:\n        /* \"contracts/access/Ownable.sol\":2169:2191  newOwner != address(0) */\n      0xffffffffffffffffffffffffffffffffffffffff\n      dup2\n      and\n        /* \"contracts/access/Ownable.sol\":2161:2234  require(newOwner != address(0), \"Ownable: new owner is the zero address\") */\n      tag_138\n      jumpi\n      mload(0x40)\n      0x08c379a000000000000000000000000000000000000000000000000000000000\n      dup2\n      mstore\n        /* \"#utility.yul\":2120:2122   */\n      0x20\n        /* \"contracts/access/Ownable.sol\":2161:2234  require(newOwner != address(0), \"Ownable: new owner is the zero address\") */\n      0x04\n      dup3\n      add\n        /* \"#utility.yul\":2102:2123   */\n      mstore\n        /* \"#utility.yul\":2159:2161   */\n      0x26\n        /* \"#utility.yul\":2139:2157   */\n      0x24\n      dup3\n      add\n        /* \"#utility.yul\":2132:2162   */\n      mstore\n        /* \"#utility.yul\":2198:2232   */\n      0x4f776e61626c653a206e6577206f776e657220697320746865207a65726f2061\n        /* \"#utility.yul\":2178:2196   */\n      0x44\n      dup3\n      add\n        /* \"#utility.yul\":2171:2233   */\n      mstore\n        /* \"#utility.yul\":2269:2277   */\n      0x6464726573730000000000000000000000000000000000000000000000000000\n        /* \"#utility.yul\":2249:2267   */\n      0x64\n      dup3\n      add\n        /* \"#utility.yul\":2242:2278   */\n      mstore\n        /* \"#utility.yul\":2295:2314   */\n      0x84\n      add\n        /* \"contracts/access/Ownable.sol\":2161:2234  require(newOwner != address(0), \"Ownable: new owner is the zero address\") */\n      tag_110\n        /* \"#utility.yul\":1918:2320   */\n      jump\n        /* \"contracts/access/Ownable.sol\":2161:2234  require(newOwner != address(0), \"Ownable: new owner is the zero address\") */\n    tag_138:\n        /* \"contracts/access/Ownable.sol\":2244:2272  _transferOwnership(newOwner) */\n      tag_141\n        /* \"contracts/access/Ownable.sol\":2263:2271  newOwner */\n      dup2\n        /* \"contracts/access/Ownable.sol\":2244:2262  _transferOwnership */\n      tag_120\n        /* \"contracts/access/Ownable.sol\":2244:2272  _transferOwnership(newOwner) */\n      jump\t// in\n    tag_141:\n        /* \"contracts/access/Ownable.sol\":2081:2279  function transferOwnership(address newOwner) public virtual onlyOwner {... */\n      pop\n      jump\t// out\n        /* \"CalculateUtils.sol\":2460:2660  function getPercentage(uint256 _number, uint256 _ratio)... */\n    tag_73:\n        /* \"CalculateUtils.sol\":2564:2584  uint256 returnNumber */\n      0x00\n        /* \"CalculateUtils.sol\":2649:2652  100 */\n      0x64\n        /* \"CalculateUtils.sol\":2617:2646  SafeMath.mul(_number, _ratio) */\n      tag_143\n        /* \"CalculateUtils.sol\":2630:2637  _number */\n      dup5\n        /* \"CalculateUtils.sol\":2639:2645  _ratio */\n      dup5\n        /* \"CalculateUtils.sol\":2617:2629  SafeMath.mul */\n      tag_144\n        /* \"CalculateUtils.sol\":2617:2646  SafeMath.mul(_number, _ratio) */\n      jump\t// in\n    tag_143:\n        /* \"CalculateUtils.sol\":2617:2652  SafeMath.mul(_number, _ratio) / 100 */\n      tag_123\n      swap2\n      swap1\n      tag_146\n      jump\t// in\n        /* \"contracts/access/Ownable.sol\":1359:1489  function _checkOwner() internal view virtual {... */\n    tag_77:\n        /* \"contracts/access/Ownable.sol\":1247:1254  address */\n      0x00\n        /* \"contracts/access/Ownable.sol\":1273:1279  _owner */\n      sload\n        /* \"contracts/access/Ownable.sol\":1422:1445  owner() == _msgSender() */\n      0xffffffffffffffffffffffffffffffffffffffff\n        /* \"contracts/access/Ownable.sol\":1273:1279  _owner */\n      and\n        /* \"contracts/utils/Context.sol\":719:729  msg.sender */\n      caller\n        /* \"contracts/access/Ownable.sol\":1422:1445  owner() == _msgSender() */\n      eq\n        /* \"contracts/access/Ownable.sol\":1414:1482  require(owner() == _msgSender(), \"Ownable: caller is not the owner\") */\n      tag_119\n      jumpi\n      mload(0x40)\n      0x08c379a000000000000000000000000000000000000000000000000000000000\n      dup2\n      mstore\n        /* \"#utility.yul\":2806:2808   */\n      0x20\n        /* \"contracts/access/Ownable.sol\":1414:1482  require(owner() == _msgSender(), \"Ownable: caller is not the owner\") */\n      0x04\n      dup3\n      add\n        /* \"#utility.yul\":2788:2809   */\n      dup2\n      swap1\n      mstore\n        /* \"#utility.yul\":2825:2843   */\n      0x24\n      dup3\n      add\n        /* \"#utility.yul\":2818:2848   */\n      mstore\n        /* \"#utility.yul\":2884:2918   */\n      0x4f776e61626c653a2063616c6c6572206973206e6f7420746865206f776e6572\n        /* \"#utility.yul\":2864:2882   */\n      0x44\n      dup3\n      add\n        /* \"#utility.yul\":2857:2919   */\n      mstore\n        /* \"#utility.yul\":2936:2954   */\n      0x64\n      add\n        /* \"contracts/access/Ownable.sol\":1414:1482  require(owner() == _msgSender(), \"Ownable: caller is not the owner\") */\n      tag_110\n        /* \"#utility.yul\":2604:2960   */\n      jump\n        /* \"contracts/access/Ownable.sol\":2433:2620  function _transferOwnership(address newOwner) internal virtual {... */\n    tag_120:\n        /* \"contracts/access/Ownable.sol\":2506:2522  address oldOwner */\n      0x00\n        /* \"contracts/access/Ownable.sol\":2525:2531  _owner */\n      dup1\n      sload\n      0xffffffffffffffffffffffffffffffffffffffff\n        /* \"contracts/access/Ownable.sol\":2541:2558  _owner = newOwner */\n      dup4\n      dup2\n      and\n      0xffffffffffffffffffffffff0000000000000000000000000000000000000000\n      dup4\n      and\n      dup2\n      or\n      dup5\n      sstore\n        /* \"contracts/access/Ownable.sol\":2573:2613  OwnershipTransferred(oldOwner, newOwner) */\n      mload(0x40)\n        /* \"contracts/access/Ownable.sol\":2525:2531  _owner */\n      swap2\n      swap1\n      swap3\n      and\n      swap3\n      dup4\n      swap2\n        /* \"contracts/access/Ownable.sol\":2573:2613  OwnershipTransferred(oldOwner, newOwner) */\n      0x8be0079c531659141344cd1fd0a4f28419497f9722a3daafe3b4186f6b6457e0\n      swap2\n        /* \"contracts/access/Ownable.sol\":2506:2522  address oldOwner */\n      swap1\n        /* \"contracts/access/Ownable.sol\":2573:2613  OwnershipTransferred(oldOwner, newOwner) */\n      log3\n        /* \"contracts/access/Ownable.sol\":2496:2620  {... */\n      pop\n        /* \"contracts/access/Ownable.sol\":2433:2620  function _transferOwnership(address newOwner) internal virtual {... */\n      pop\n      jump\t// out\n        /* \"contracts/utils/math/SafeMath.sol\":3850:3946  function div(uint256 a, uint256 b) internal pure returns (uint256) {... */\n    tag_126:\n        /* \"contracts/utils/math/SafeMath.sol\":3908:3915  uint256 */\n      0x00\n        /* \"contracts/utils/math/SafeMath.sol\":3934:3939  a / b */\n      tag_123\n        /* \"contracts/utils/math/SafeMath.sol\":3938:3939  b */\n      dup3\n        /* \"contracts/utils/math/SafeMath.sol\":3934:3935  a */\n      dup5\n        /* \"contracts/utils/math/SafeMath.sol\":3934:3939  a / b */\n      tag_146\n      jump\t// in\n        /* \"contracts/utils/math/SafeMath.sol\":3465:3561  function mul(uint256 a, uint256 b) internal pure returns (uint256) {... */\n    tag_144:\n        /* \"contracts/utils/math/SafeMath.sol\":3523:3530  uint256 */\n      0x00\n        /* \"contracts/utils/math/SafeMath.sol\":3549:3554  a * b */\n      tag_123\n        /* \"contracts/utils/math/SafeMath.sol\":3553:3554  b */\n      dup3\n        /* \"contracts/utils/math/SafeMath.sol\":3549:3550  a */\n      dup5\n        /* \"contracts/utils/math/SafeMath.sol\":3549:3554  a * b */\n      tag_87\n      jump\t// in\n        /* \"#utility.yul\":14:194   */\n    tag_22:\n        /* \"#utility.yul\":73:79   */\n      0x00\n        /* \"#utility.yul\":126:128   */\n      0x20\n        /* \"#utility.yul\":114:123   */\n      dup3\n        /* \"#utility.yul\":105:112   */\n      dup5\n        /* \"#utility.yul\":101:124   */\n      sub\n        /* \"#utility.yul\":97:129   */\n      slt\n        /* \"#utility.yul\":94:146   */\n      iszero\n      tag_162\n      jumpi\n        /* \"#utility.yul\":142:143   */\n      0x00\n        /* \"#utility.yul\":139:140   */\n      dup1\n        /* \"#utility.yul\":132:144   */\n      revert\n        /* \"#utility.yul\":94:146   */\n    tag_162:\n      pop\n        /* \"#utility.yul\":165:188   */\n      calldataload\n      swap2\n        /* \"#utility.yul\":14:194   */\n      swap1\n      pop\n      jump\t// out\n        /* \"#utility.yul\":612:860   */\n    tag_48:\n        /* \"#utility.yul\":680:686   */\n      0x00\n        /* \"#utility.yul\":688:694   */\n      dup1\n        /* \"#utility.yul\":741:743   */\n      0x40\n        /* \"#utility.yul\":729:738   */\n      dup4\n        /* \"#utility.yul\":720:727   */\n      dup6\n        /* \"#utility.yul\":716:739   */\n      sub\n        /* \"#utility.yul\":712:744   */\n      slt\n        /* \"#utility.yul\":709:761   */\n      iszero\n      tag_166\n      jumpi\n        /* \"#utility.yul\":757:758   */\n      0x00\n        /* \"#utility.yul\":754:755   */\n      dup1\n        /* \"#utility.yul\":747:759   */\n      revert\n        /* \"#utility.yul\":709:761   */\n    tag_166:\n      pop\n      pop\n        /* \"#utility.yul\":780:803   */\n      dup1\n      calldataload\n      swap3\n        /* \"#utility.yul\":850:852   */\n      0x20\n        /* \"#utility.yul\":835:853   */\n      swap1\n      swap2\n      add\n        /* \"#utility.yul\":822:854   */\n      calldataload\n      swap2\n      pop\n        /* \"#utility.yul\":612:860   */\n      jump\t// out\n        /* \"#utility.yul\":865:1174   */\n    tag_69:\n        /* \"#utility.yul\":924:930   */\n      0x00\n        /* \"#utility.yul\":977:979   */\n      0x20\n        /* \"#utility.yul\":965:974   */\n      dup3\n        /* \"#utility.yul\":956:963   */\n      dup5\n        /* \"#utility.yul\":952:975   */\n      sub\n        /* \"#utility.yul\":948:980   */\n      slt\n        /* \"#utility.yul\":945:997   */\n      iszero\n      tag_168\n      jumpi\n        /* \"#utility.yul\":993:994   */\n      0x00\n        /* \"#utility.yul\":990:991   */\n      dup1\n        /* \"#utility.yul\":983:995   */\n      revert\n        /* \"#utility.yul\":945:997   */\n    tag_168:\n        /* \"#utility.yul\":1032:1041   */\n      dup2\n        /* \"#utility.yul\":1019:1042   */\n      calldataload\n        /* \"#utility.yul\":1082:1124   */\n      0xffffffffffffffffffffffffffffffffffffffff\n        /* \"#utility.yul\":1075:1080   */\n      dup2\n        /* \"#utility.yul\":1071:1125   */\n      and\n        /* \"#utility.yul\":1064:1069   */\n      dup2\n        /* \"#utility.yul\":1061:1126   */\n      eq\n        /* \"#utility.yul\":1051:1144   */\n      tag_123\n      jumpi\n        /* \"#utility.yul\":1140:1141   */\n      0x00\n        /* \"#utility.yul\":1137:1138   */\n      dup1\n        /* \"#utility.yul\":1130:1142   */\n      revert\n        /* \"#utility.yul\":1179:1501   */\n    tag_87:\n        /* \"#utility.yul\":1252:1261   */\n      dup1\n      dup3\n      mul\n        /* \"#utility.yul\":1283:1292   */\n      dup2\n      iszero\n        /* \"#utility.yul\":1300:1315   */\n      dup3\n      dup3\n      div\n        /* \"#utility.yul\":1294:1316   */\n      dup5\n      eq\n        /* \"#utility.yul\":1280:1317   */\n      or\n        /* \"#utility.yul\":1270:1495   */\n      tag_109\n      jumpi\n        /* \"#utility.yul\":1351:1428   */\n      0x4e487b7100000000000000000000000000000000000000000000000000000000\n        /* \"#utility.yul\":1348:1349   */\n      0x00\n        /* \"#utility.yul\":1341:1429   */\n      mstore\n        /* \"#utility.yul\":1452:1456   */\n      0x11\n        /* \"#utility.yul\":1449:1450   */\n      0x04\n        /* \"#utility.yul\":1442:1457   */\n      mstore\n        /* \"#utility.yul\":1480:1484   */\n      0x24\n        /* \"#utility.yul\":1477:1478   */\n      0x00\n        /* \"#utility.yul\":1470:1485   */\n      revert\n        /* \"#utility.yul\":2325:2599   */\n    tag_146:\n        /* \"#utility.yul\":2365:2366   */\n      0x00\n        /* \"#utility.yul\":2391:2392   */\n      dup3\n        /* \"#utility.yul\":2381:2570   */\n      tag_175\n      jumpi\n        /* \"#utility.yul\":2426:2503   */\n      0x4e487b7100000000000000000000000000000000000000000000000000000000\n        /* \"#utility.yul\":2423:2424   */\n      0x00\n        /* \"#utility.yul\":2416:2504   */\n      mstore\n        /* \"#utility.yul\":2527:2531   */\n      0x12\n        /* \"#utility.yul\":2524:2525   */\n      0x04\n        /* \"#utility.yul\":2517:2532   */\n      mstore\n        /* \"#utility.yul\":2555:2559   */\n      0x24\n        /* \"#utility.yul\":2552:2553   */\n      0x00\n        /* \"#utility.yul\":2545:2560   */\n      revert\n        /* \"#utility.yul\":2381:2570   */\n    tag_175:\n      pop\n        /* \"#utility.yul\":2584:2593   */\n      div\n      swap1\n        /* \"#utility.yul\":2325:2599   */\n      jump\t// out\n\n    auxdata: 0xa2646970667358221220d5aecd0758cbd3b51168c62c2b33a1c66afa7eb7276b14ade62234c5d2cb7e3264736f6c63430008110033\n}\n",
				"bytecode": {
					"linkReferences": {},
					"object": "6080604052610111600155600360025534801561001b57600080fd5b506100253361002a565b61007a565b600080546001600160a01b038381166001600160a01b0319831681178455604051919092169283917f8be0079c531659141344cd1fd0a4f28419497f9722a3daafe3b4186f6b6457e09190a35050565b61076d806100896000396000f3fe608060405234801561001057600080fd5b50600436106100ea5760003560e01c80638f861ba71161008c578063a730941d11610066578063a730941d146101cc578063f2e60202146101df578063f2fde38b146101f2578063f74f36551461020557600080fd5b80638f861ba7146101935780639ce5c4bf146101a6578063a3cb7c55146101b957600080fd5b80635c830098116100c85780635c8300981461013d5780636873e8d214610150578063715018a6146101635780638da5cb5b1461016b57600080fd5b806331bfb377146100ef57806334fcf437146101045780634f6ca3ce14610117575b600080fd5b6101026100fd36600461064d565b610218565b005b61010261011236600461064d565b610225565b61012a61012536600461064d565b610232565b6040519081526020015b60405180910390f35b61012a61014b36600461064d565b6103e9565b61012a61015e36600461064d565b6103f6565b610102610403565b60005460405173ffffffffffffffffffffffffffffffffffffffff9091168152602001610134565b61012a6101a1366004610666565b610417565b61012a6101b4366004610666565b61042a565b61012a6101c736600461064d565b610436565b61012a6101da36600461064d565b610443565b61012a6101ed36600461064d565b610450565b610102610200366004610688565b610470565b61012a610213366004610666565b610527565b61022061053f565b600255565b61022d61053f565b600155565b600080600154831015610247575060016103e3565b6001548310158015610265575060015461026290600a6106be565b83105b156102725750600a6103e3565b60015461028090600a6106be565b831015801561029b57506001546102989060646106be565b83105b156102a8575060646103e3565b6001546102b69060646106be565b83101580156102d257506001546102cf906103e86106be565b83105b156102e057506103e86103e3565b6001546102ef906103e86106be565b831015801561030c5750600154610308906127106106be565b8311155b1561031a57506127106103e3565b600154610329906127106106be565b8310158015610347575060015461034390620186a06106be565b8311155b156103565750620186a06103e3565b6040517fd1d89b7400000000000000000000000000000000000000000000000000000000815260206004820152602b60248201527f556e61626c6520746f2063616c63756c6174652c506c65617365207375626d6960448201527f742061207265717565737400000000000000000000000000000000000000000060648201526084015b60405180910390fd5b92915050565b60006103e3826024610527565b60006103e3826036610527565b61040b61053f565b61041560006105c0565b565b60006104238383610527565b9392505050565b60006104238284610635565b60006103e3826018610527565b60006103e382601e610527565b6000806002548311610464575060016103e3565b61042383600254610635565b61047861053f565b73ffffffffffffffffffffffffffffffffffffffff811661051b576040517f08c379a000000000000000000000000000000000000000000000000000000000815260206004820152602660248201527f4f776e61626c653a206e6577206f776e657220697320746865207a65726f206160448201527f646472657373000000000000000000000000000000000000000000000000000060648201526084016103da565b610524816105c0565b50565b600060646105358484610641565b61042391906106fc565b60005473ffffffffffffffffffffffffffffffffffffffff163314610415576040517f08c379a000000000000000000000000000000000000000000000000000000000815260206004820181905260248201527f4f776e61626c653a2063616c6c6572206973206e6f7420746865206f776e657260448201526064016103da565b6000805473ffffffffffffffffffffffffffffffffffffffff8381167fffffffffffffffffffffffff0000000000000000000000000000000000000000831681178455604051919092169283917f8be0079c531659141344cd1fd0a4f28419497f9722a3daafe3b4186f6b6457e09190a35050565b600061042382846106fc565b600061042382846106be565b60006020828403121561065f57600080fd5b5035919050565b6000806040838503121561067957600080fd5b50508035926020909101359150565b60006020828403121561069a57600080fd5b813573ffffffffffffffffffffffffffffffffffffffff8116811461042357600080fd5b80820281158282048414176103e3577f4e487b7100000000000000000000000000000000000000000000000000000000600052601160045260246000fd5b600082610732577f4e487b7100000000000000000000000000000000000000000000000000000000600052601260045260246000fd5b50049056fea2646970667358221220d5aecd0758cbd3b51168c62c2b33a1c66afa7eb7276b14ade62234c5d2cb7e3264736f6c63430008110033",
					"opcodes": "PUSH1 0x80 PUSH1 0x40 MSTORE PUSH2 0x111 PUSH1 0x1 SSTORE PUSH1 0x3 PUSH1 0x2 SSTORE CALLVALUE DUP1 ISZERO PUSH2 0x1B JUMPI PUSH1 0x0 DUP1 REVERT JUMPDEST POP PUSH2 0x25 CALLER PUSH2 0x2A JUMP JUMPDEST PUSH2 0x7A JUMP JUMPDEST PUSH1 0x0 DUP1 SLOAD PUSH1 0x1 PUSH1 0x1 PUSH1 0xA0 SHL SUB DUP4 DUP2 AND PUSH1 0x1 PUSH1 0x1 PUSH1 0xA0 SHL SUB NOT DUP4 AND DUP2 OR DUP5 SSTORE PUSH1 0x40 MLOAD SWAP2 SWAP1 SWAP3 AND SWAP3 DUP4 SWAP2 PUSH32 0x8BE0079C531659141344CD1FD0A4F28419497F9722A3DAAFE3B4186F6B6457E0 SWAP2 SWAP1 LOG3 POP POP JUMP JUMPDEST PUSH2 0x76D DUP1 PUSH2 0x89 PUSH1 0x0 CODECOPY PUSH1 0x0 RETURN INVALID PUSH1 0x80 PUSH1 0x40 MSTORE CALLVALUE DUP1 ISZERO PUSH2 0x10 JUMPI PUSH1 0x0 DUP1 REVERT JUMPDEST POP PUSH1 0x4 CALLDATASIZE LT PUSH2 0xEA JUMPI PUSH1 0x0 CALLDATALOAD PUSH1 0xE0 SHR DUP1 PUSH4 0x8F861BA7 GT PUSH2 0x8C JUMPI DUP1 PUSH4 0xA730941D GT PUSH2 0x66 JUMPI DUP1 PUSH4 0xA730941D EQ PUSH2 0x1CC JUMPI DUP1 PUSH4 0xF2E60202 EQ PUSH2 0x1DF JUMPI DUP1 PUSH4 0xF2FDE38B EQ PUSH2 0x1F2 JUMPI DUP1 PUSH4 0xF74F3655 EQ PUSH2 0x205 JUMPI PUSH1 0x0 DUP1 REVERT JUMPDEST DUP1 PUSH4 0x8F861BA7 EQ PUSH2 0x193 JUMPI DUP1 PUSH4 0x9CE5C4BF EQ PUSH2 0x1A6 JUMPI DUP1 PUSH4 0xA3CB7C55 EQ PUSH2 0x1B9 JUMPI PUSH1 0x0 DUP1 REVERT JUMPDEST DUP1 PUSH4 0x5C830098 GT PUSH2 0xC8 JUMPI DUP1 PUSH4 0x5C830098 EQ PUSH2 0x13D JUMPI DUP1 PUSH4 0x6873E8D2 EQ PUSH2 0x150 JUMPI DUP1 PUSH4 0x715018A6 EQ PUSH2 0x163 JUMPI DUP1 PUSH4 0x8DA5CB5B EQ PUSH2 0x16B JUMPI PUSH1 0x0 DUP1 REVERT JUMPDEST DUP1 PUSH4 0x31BFB377 EQ PUSH2 0xEF JUMPI DUP1 PUSH4 0x34FCF437 EQ PUSH2 0x104 JUMPI DUP1 PUSH4 0x4F6CA3CE EQ PUSH2 0x117 JUMPI JUMPDEST PUSH1 0x0 DUP1 REVERT JUMPDEST PUSH2 0x102 PUSH2 0xFD CALLDATASIZE PUSH1 0x4 PUSH2 0x64D JUMP JUMPDEST PUSH2 0x218 JUMP JUMPDEST STOP JUMPDEST PUSH2 0x102 PUSH2 0x112 CALLDATASIZE PUSH1 0x4 PUSH2 0x64D JUMP JUMPDEST PUSH2 0x225 JUMP JUMPDEST PUSH2 0x12A PUSH2 0x125 CALLDATASIZE PUSH1 0x4 PUSH2 0x64D JUMP JUMPDEST PUSH2 0x232 JUMP JUMPDEST PUSH1 0x40 MLOAD SWAP1 DUP2 MSTORE PUSH1 0x20 ADD JUMPDEST PUSH1 0x40 MLOAD DUP1 SWAP2 SUB SWAP1 RETURN JUMPDEST PUSH2 0x12A PUSH2 0x14B CALLDATASIZE PUSH1 0x4 PUSH2 0x64D JUMP JUMPDEST PUSH2 0x3E9 JUMP JUMPDEST PUSH2 0x12A PUSH2 0x15E CALLDATASIZE PUSH1 0x4 PUSH2 0x64D JUMP JUMPDEST PUSH2 0x3F6 JUMP JUMPDEST PUSH2 0x102 PUSH2 0x403 JUMP JUMPDEST PUSH1 0x0 SLOAD PUSH1 0x40 MLOAD PUSH20 0xFFFFFFFFFFFFFFFFFFFFFFFFFFFFFFFFFFFFFFFF SWAP1 SWAP2 AND DUP2 MSTORE PUSH1 0x20 ADD PUSH2 0x134 JUMP JUMPDEST PUSH2 0x12A PUSH2 0x1A1 CALLDATASIZE PUSH1 0x4 PUSH2 0x666 JUMP JUMPDEST PUSH2 0x417 JUMP JUMPDEST PUSH2 0x12A PUSH2 0x1B4 CALLDATASIZE PUSH1 0x4 PUSH2 0x666 JUMP JUMPDEST PUSH2 0x42A JUMP JUMPDEST PUSH2 0x12A PUSH2 0x1C7 CALLDATASIZE PUSH1 0x4 PUSH2 0x64D JUMP JUMPDEST PUSH2 0x436 JUMP JUMPDEST PUSH2 0x12A PUSH2 0x1DA CALLDATASIZE PUSH1 0x4 PUSH2 0x64D JUMP JUMPDEST PUSH2 0x443 JUMP JUMPDEST PUSH2 0x12A PUSH2 0x1ED CALLDATASIZE PUSH1 0x4 PUSH2 0x64D JUMP JUMPDEST PUSH2 0x450 JUMP JUMPDEST PUSH2 0x102 PUSH2 0x200 CALLDATASIZE PUSH1 0x4 PUSH2 0x688 JUMP JUMPDEST PUSH2 0x470 JUMP JUMPDEST PUSH2 0x12A PUSH2 0x213 CALLDATASIZE PUSH1 0x4 PUSH2 0x666 JUMP JUMPDEST PUSH2 0x527 JUMP JUMPDEST PUSH2 0x220 PUSH2 0x53F JUMP JUMPDEST PUSH1 0x2 SSTORE JUMP JUMPDEST PUSH2 0x22D PUSH2 0x53F JUMP JUMPDEST PUSH1 0x1 SSTORE JUMP JUMPDEST PUSH1 0x0 DUP1 PUSH1 0x1 SLOAD DUP4 LT ISZERO PUSH2 0x247 JUMPI POP PUSH1 0x1 PUSH2 0x3E3 JUMP JUMPDEST PUSH1 0x1 SLOAD DUP4 LT ISZERO DUP1 ISZERO PUSH2 0x265 JUMPI POP PUSH1 0x1 SLOAD PUSH2 0x262 SWAP1 PUSH1 0xA PUSH2 0x6BE JUMP JUMPDEST DUP4 LT JUMPDEST ISZERO PUSH2 0x272 JUMPI POP PUSH1 0xA PUSH2 0x3E3 JUMP JUMPDEST PUSH1 0x1 SLOAD PUSH2 0x280 SWAP1 PUSH1 0xA PUSH2 0x6BE JUMP JUMPDEST DUP4 LT ISZERO DUP1 ISZERO PUSH2 0x29B JUMPI POP PUSH1 0x1 SLOAD PUSH2 0x298 SWAP1 PUSH1 0x64 PUSH2 0x6BE JUMP JUMPDEST DUP4 LT JUMPDEST ISZERO PUSH2 0x2A8 JUMPI POP PUSH1 0x64 PUSH2 0x3E3 JUMP JUMPDEST PUSH1 0x1 SLOAD PUSH2 0x2B6 SWAP1 PUSH1 0x64 PUSH2 0x6BE JUMP JUMPDEST DUP4 LT ISZERO DUP1 ISZERO PUSH2 0x2D2 JUMPI POP PUSH1 0x1 SLOAD PUSH2 0x2CF SWAP1 PUSH2 0x3E8 PUSH2 0x6BE JUMP JUMPDEST DUP4 LT JUMPDEST ISZERO PUSH2 0x2E0 JUMPI POP PUSH2 0x3E8 PUSH2 0x3E3 JUMP JUMPDEST PUSH1 0x1 SLOAD PUSH2 0x2EF SWAP1 PUSH2 0x3E8 PUSH2 0x6BE JUMP JUMPDEST DUP4 LT ISZERO DUP1 ISZERO PUSH2 0x30C JUMPI POP PUSH1 0x1 SLOAD PUSH2 0x308 SWAP1 PUSH2 0x2710 PUSH2 0x6BE JUMP JUMPDEST DUP4 GT ISZERO JUMPDEST ISZERO PUSH2 0x31A JUMPI POP PUSH2 0x2710 PUSH2 0x3E3 JUMP JUMPDEST PUSH1 0x1 SLOAD PUSH2 0x329 SWAP1 PUSH2 0x2710 PUSH2 0x6BE JUMP JUMPDEST DUP4 LT ISZERO DUP1 ISZERO PUSH2 0x347 JUMPI POP PUSH1 0x1 SLOAD PUSH2 0x343 SWAP1 PUSH3 0x186A0 PUSH2 0x6BE JUMP JUMPDEST DUP4 GT ISZERO JUMPDEST ISZERO PUSH2 0x356 JUMPI POP PUSH3 0x186A0 PUSH2 0x3E3 JUMP JUMPDEST PUSH1 0x40 MLOAD PUSH32 0xD1D89B7400000000000000000000000000000000000000000000000000000000 DUP2 MSTORE PUSH1 0x20 PUSH1 0x4 DUP3 ADD MSTORE PUSH1 0x2B PUSH1 0x24 DUP3 ADD MSTORE PUSH32 0x556E61626C6520746F2063616C63756C6174652C506C65617365207375626D69 PUSH1 0x44 DUP3 ADD MSTORE PUSH32 0x7420612072657175657374000000000000000000000000000000000000000000 PUSH1 0x64 DUP3 ADD MSTORE PUSH1 0x84 ADD JUMPDEST PUSH1 0x40 MLOAD DUP1 SWAP2 SUB SWAP1 REVERT JUMPDEST SWAP3 SWAP2 POP POP JUMP JUMPDEST PUSH1 0x0 PUSH2 0x3E3 DUP3 PUSH1 0x24 PUSH2 0x527 JUMP JUMPDEST PUSH1 0x0 PUSH2 0x3E3 DUP3 PUSH1 0x36 PUSH2 0x527 JUMP JUMPDEST PUSH2 0x40B PUSH2 0x53F JUMP JUMPDEST PUSH2 0x415 PUSH1 0x0 PUSH2 0x5C0 JUMP JUMPDEST JUMP JUMPDEST PUSH1 0x0 PUSH2 0x423 DUP4 DUP4 PUSH2 0x527 JUMP JUMPDEST SWAP4 SWAP3 POP POP POP JUMP JUMPDEST PUSH1 0x0 PUSH2 0x423 DUP3 DUP5 PUSH2 0x635 JUMP JUMPDEST PUSH1 0x0 PUSH2 0x3E3 DUP3 PUSH1 0x18 PUSH2 0x527 JUMP JUMPDEST PUSH1 0x0 PUSH2 0x3E3 DUP3 PUSH1 0x1E PUSH2 0x527 JUMP JUMPDEST PUSH1 0x0 DUP1 PUSH1 0x2 SLOAD DUP4 GT PUSH2 0x464 JUMPI POP PUSH1 0x1 PUSH2 0x3E3 JUMP JUMPDEST PUSH2 0x423 DUP4 PUSH1 0x2 SLOAD PUSH2 0x635 JUMP JUMPDEST PUSH2 0x478 PUSH2 0x53F JUMP JUMPDEST PUSH20 0xFFFFFFFFFFFFFFFFFFFFFFFFFFFFFFFFFFFFFFFF DUP2 AND PUSH2 0x51B JUMPI PUSH1 0x40 MLOAD PUSH32 0x8C379A000000000000000000000000000000000000000000000000000000000 DUP2 MSTORE PUSH1 0x20 PUSH1 0x4 DUP3 ADD MSTORE PUSH1 0x26 PUSH1 0x24 DUP3 ADD MSTORE PUSH32 0x4F776E61626C653A206E6577206F776E657220697320746865207A65726F2061 PUSH1 0x44 DUP3 ADD MSTORE PUSH32 0x6464726573730000000000000000000000000000000000000000000000000000 PUSH1 0x64 DUP3 ADD MSTORE PUSH1 0x84 ADD PUSH2 0x3DA JUMP JUMPDEST PUSH2 0x524 DUP2 PUSH2 0x5C0 JUMP JUMPDEST POP JUMP JUMPDEST PUSH1 0x0 PUSH1 0x64 PUSH2 0x535 DUP5 DUP5 PUSH2 0x641 JUMP JUMPDEST PUSH2 0x423 SWAP2 SWAP1 PUSH2 0x6FC JUMP JUMPDEST PUSH1 0x0 SLOAD PUSH20 0xFFFFFFFFFFFFFFFFFFFFFFFFFFFFFFFFFFFFFFFF AND CALLER EQ PUSH2 0x415 JUMPI PUSH1 0x40 MLOAD PUSH32 0x8C379A000000000000000000000000000000000000000000000000000000000 DUP2 MSTORE PUSH1 0x20 PUSH1 0x4 DUP3 ADD DUP2 SWAP1 MSTORE PUSH1 0x24 DUP3 ADD MSTORE PUSH32 0x4F776E61626C653A2063616C6C6572206973206E6F7420746865206F776E6572 PUSH1 0x44 DUP3 ADD MSTORE PUSH1 0x64 ADD PUSH2 0x3DA JUMP JUMPDEST PUSH1 0x0 DUP1 SLOAD PUSH20 0xFFFFFFFFFFFFFFFFFFFFFFFFFFFFFFFFFFFFFFFF DUP4 DUP2 AND PUSH32 0xFFFFFFFFFFFFFFFFFFFFFFFF0000000000000000000000000000000000000000 DUP4 AND DUP2 OR DUP5 SSTORE PUSH1 0x40 MLOAD SWAP2 SWAP1 SWAP3 AND SWAP3 DUP4 SWAP2 PUSH32 0x8BE0079C531659141344CD1FD0A4F28419497F9722A3DAAFE3B4186F6B6457E0 SWAP2 SWAP1 LOG3 POP POP JUMP JUMPDEST PUSH1 0x0 PUSH2 0x423 DUP3 DUP5 PUSH2 0x6FC JUMP JUMPDEST PUSH1 0x0 PUSH2 0x423 DUP3 DUP5 PUSH2 0x6BE JUMP JUMPDEST PUSH1 0x0 PUSH1 0x20 DUP3 DUP5 SUB SLT ISZERO PUSH2 0x65F JUMPI PUSH1 0x0 DUP1 REVERT JUMPDEST POP CALLDATALOAD SWAP2 SWAP1 POP JUMP JUMPDEST PUSH1 0x0 DUP1 PUSH1 0x40 DUP4 DUP6 SUB SLT ISZERO PUSH2 0x679 JUMPI PUSH1 0x0 DUP1 REVERT JUMPDEST POP POP DUP1 CALLDATALOAD SWAP3 PUSH1 0x20 SWAP1 SWAP2 ADD CALLDATALOAD SWAP2 POP JUMP JUMPDEST PUSH1 0x0 PUSH1 0x20 DUP3 DUP5 SUB SLT ISZERO PUSH2 0x69A JUMPI PUSH1 0x0 DUP1 REVERT JUMPDEST DUP2 CALLDATALOAD PUSH20 0xFFFFFFFFFFFFFFFFFFFFFFFFFFFFFFFFFFFFFFFF DUP2 AND DUP2 EQ PUSH2 0x423 JUMPI PUSH1 0x0 DUP1 REVERT JUMPDEST DUP1 DUP3 MUL DUP2 ISZERO DUP3 DUP3 DIV DUP5 EQ OR PUSH2 0x3E3 JUMPI PUSH32 0x4E487B7100000000000000000000000000000000000000000000000000000000 PUSH1 0x0 MSTORE PUSH1 0x11 PUSH1 0x4 MSTORE PUSH1 0x24 PUSH1 0x0 REVERT JUMPDEST PUSH1 0x0 DUP3 PUSH2 0x732 JUMPI PUSH32 0x4E487B7100000000000000000000000000000000000000000000000000000000 PUSH1 0x0 MSTORE PUSH1 0x12 PUSH1 0x4 MSTORE PUSH1 0x24 PUSH1 0x0 REVERT JUMPDEST POP DIV SWAP1 JUMP INVALID LOG2 PUSH5 0x6970667358 0x22 SLT KECCAK256 0xD5 0xAE 0xCD SMOD PC 0xCB 0xD3 0xB5 GT PUSH9 0xC62C2B33A1C66AFA7E 0xB7 0x27 PUSH12 0x14ADE62234C5D2CB7E326473 PUSH16 0x6C634300081100330000000000000000 "
				},
				"gasEstimates": {
					"creation": {
						"codeDepositCost": "380200",
						"executionCost": "70471",
						"totalCost": "450671"
					},
					"external": {
						"getDeductMoney(uint256,uint256)": "infinite",
						"getMatNumber(uint256)": "infinite",
						"getPercentage(uint256,uint256)": "infinite",
						"getPunish(uint256,uint256)": "infinite",
						"getTaskTrans(uint256)": "infinite",
						"getTaskTransEnd(uint256)": "infinite",
						"getTaskTransFirst(uint256)": "infinite",
						"getTaskVf(uint256)": "infinite",
						"owner()": "2378",
						"punishRatio(uint256)": "infinite",
						"renounceOwnership()": "infinite",
						"setRate(uint256)": "24522",
						"setvfN(uint256)": "24500",
						"transferOwnership(address)": "28301"
					}
				},
				"methodIdentifiers": {
					"getDeductMoney(uint256,uint256)": "8f861ba7",
					"getMatNumber(uint256)": "f2e60202",
					"getPercentage(uint256,uint256)": "f74f3655",
					"getPunish(uint256,uint256)": "9ce5c4bf",
					"getTaskTrans(uint256)": "6873e8d2",
					"getTaskTransEnd(uint256)": "a3cb7c55",
					"getTaskTransFirst(uint256)": "a730941d",
					"getTaskVf(uint256)": "5c830098",
					"owner()": "8da5cb5b",
					"punishRatio(uint256)": "4f6ca3ce",
					"renounceOwnership()": "715018a6",
					"setRate(uint256)": "34fcf437",
					"setvfN(uint256)": "31bfb377",
					"transferOwnership(address)": "f2fde38b"
				}
			},
			"storageLayout": {
				"storage": [
					{
						"astId": 300,
						"contract": "CalculateUtils.sol:CalculateUtils",
						"label": "_owner",
						"offset": 0,
						"slot": "0",
						"type": "t_address"
					},
					{
						"astId": 12,
						"contract": "CalculateUtils.sol:CalculateUtils",
						"label": "rate",
						"offset": 0,
						"slot": "1",
						"type": "t_uint256"
					},
					{
						"astId": 15,
						"contract": "CalculateUtils.sol:CalculateUtils",
						"label": "vf_n",
						"offset": 0,
						"slot": "2",
						"type": "t_uint256"
					}
				],
				"types": {
					"t_address": {
						"encoding": "inplace",
						"label": "address",
						"numberOfBytes": "20"
					},
					"t_uint256": {
						"encoding": "inplace",
						"label": "uint256",
						"numberOfBytes": "32"
					}
				}
			},
			"userdoc": {
				"kind": "user",
				"methods": {},
				"version": 1
			}
		}
	}
}