{
	"AmphiTrans.sol": {
		"AmphiTrans": {
			"abi": [
				{
					"inputs": [
						{
							"internalType": "string",
							"name": "",
							"type": "string"
						}
					],
					"name": "AccessError",
					"type": "error"
				},
				{
					"anonymous": false,
					"inputs": [
						{
							"indexed": true,
							"internalType": "address",
							"name": "previousOwner",
							"type": "address"
						},
						{
							"indexed": true,
							"internalType": "address",
							"name": "newOwner",
							"type": "address"
						}
					],
					"name": "OwnershipTransferred",
					"type": "event"
				},
				{
					"inputs": [],
					"name": "addCount",
					"outputs": [],
					"stateMutability": "nonpayable",
					"type": "function"
				},
				{
					"inputs": [
						{
							"internalType": "address",
							"name": "_tasker",
							"type": "address"
						},
						{
							"internalType": "uint256",
							"name": "_money",
							"type": "uint256"
						}
					],
					"name": "addPay",
					"outputs": [],
					"stateMutability": "nonpayable",
					"type": "function"
				},
				{
					"inputs": [
						{
							"components": [
								{
									"internalType": "uint256",
									"name": "releaseTime",
									"type": "uint256"
								},
								{
									"internalType": "string",
									"name": "introduce",
									"type": "string"
								},
								{
									"internalType": "string",
									"name": "need",
									"type": "string"
								},
								{
									"internalType": "uint256",
									"name": "deadline",
									"type": "uint256"
								},
								{
									"internalType": "uint256",
									"name": "sourceLanguage",
									"type": "uint256"
								},
								{
									"internalType": "uint256",
									"name": "goalLanguage",
									"type": "uint256"
								},
								{
									"internalType": "uint256[]",
									"name": "preferList",
									"type": "uint256[]"
								},
								{
									"internalType": "uint256",
									"name": "translationType",
									"type": "uint256"
								},
								{
									"internalType": "uint256",
									"name": "workLoad",
									"type": "uint256"
								},
								{
									"internalType": "bool",
									"name": "isNonDisclosure",
									"type": "bool"
								},
								{
									"internalType": "bool",
									"name": "isCustomize",
									"type": "bool"
								},
								{
									"internalType": "uint256",
									"name": "bounty",
									"type": "uint256"
								},
								{
									"components": [
										{
											"components": [
												{
													"internalType": "string",
													"name": "name",
													"type": "string"
												},
												{
													"internalType": "uint256",
													"name": "size",
													"type": "uint256"
												},
												{
													"internalType": "uint256",
													"name": "videoLength",
													"type": "uint256"
												},
												{
													"internalType": "uint256",
													"name": "Page",
													"type": "uint256"
												},
												{
													"internalType": "uint256",
													"name": "words",
													"type": "uint256"
												},
												{
													"internalType": "uint256",
													"name": "fileType",
													"type": "uint256"
												},
												{
													"internalType": "string",
													"name": "path",
													"type": "string"
												}
											],
											"internalType": "struct LibProject.FileInfo",
											"name": "file",
											"type": "tuple"
										},
										{
											"internalType": "uint256",
											"name": "bounty",
											"type": "uint256"
										},
										{
											"internalType": "string",
											"name": "info",
											"type": "string"
										},
										{
											"internalType": "enum LibProject.FileState",
											"name": "state",
											"type": "uint8"
										},
										{
											"internalType": "uint256",
											"name": "lastUpload",
											"type": "uint256"
										}
									],
									"internalType": "struct LibProject.TaskInfo[]",
									"name": "tasks",
									"type": "tuple[]"
								}
							],
							"internalType": "struct LibProject.ProParm",
							"name": "_t",
							"type": "tuple"
						},
						{
							"internalType": "address",
							"name": "_buyer",
							"type": "address"
						}
					],
					"name": "addProject",
					"outputs": [
						{
							"internalType": "uint256",
							"name": "",
							"type": "uint256"
						}
					],
					"stateMutability": "nonpayable",
					"type": "function"
				},
				{
					"inputs": [
						{
							"internalType": "uint256",
							"name": "_index",
							"type": "uint256"
						}
					],
					"name": "addTransNumber",
					"outputs": [],
					"stateMutability": "nonpayable",
					"type": "function"
				},
				{
					"inputs": [
						{
							"internalType": "uint256",
							"name": "_index",
							"type": "uint256"
						},
						{
							"internalType": "address",
							"name": "_address",
							"type": "address"
						}
					],
					"name": "addTransWaitNumber",
					"outputs": [],
					"stateMutability": "nonpayable",
					"type": "function"
				},
				{
					"inputs": [
						{
							"internalType": "uint256",
							"name": "_index",
							"type": "uint256"
						},
						{
							"internalType": "address",
							"name": "_address",
							"type": "address"
						}
					],
					"name": "addTranslators",
					"outputs": [],
					"stateMutability": "nonpayable",
					"type": "function"
				},
				{
					"inputs": [
						{
							"internalType": "uint256",
							"name": "_index",
							"type": "uint256"
						},
						{
							"internalType": "address",
							"name": "_address",
							"type": "address"
						}
					],
					"name": "addVf",
					"outputs": [],
					"stateMutability": "nonpayable",
					"type": "function"
				},
				{
					"inputs": [
						{
							"internalType": "uint256",
							"name": "_index",
							"type": "uint256"
						}
					],
					"name": "addVfNumber",
					"outputs": [],
					"stateMutability": "nonpayable",
					"type": "function"
				},
				{
					"inputs": [
						{
							"internalType": "uint256",
							"name": "_index",
							"type": "uint256"
						},
						{
							"internalType": "address",
							"name": "_address",
							"type": "address"
						}
					],
					"name": "addVfWaitNumber",
					"outputs": [],
					"stateMutability": "nonpayable",
					"type": "function"
				},
				{
					"inputs": [
						{
							"internalType": "uint256",
							"name": "_index",
							"type": "uint256"
						},
						{
							"internalType": "uint256",
							"name": "_fileIndex",
							"type": "uint256"
						},
						{
							"internalType": "enum LibProject.FileState",
							"name": "_state",
							"type": "uint8"
						}
					],
					"name": "changeFileState",
					"outputs": [],
					"stateMutability": "nonpayable",
					"type": "function"
				},
				{
					"inputs": [
						{
							"internalType": "uint256",
							"name": "_index",
							"type": "uint256"
						},
						{
							"internalType": "enum LibProject.ProjectState",
							"name": "_state",
							"type": "uint8"
						}
					],
					"name": "changeProjectState",
					"outputs": [],
					"stateMutability": "nonpayable",
					"type": "function"
				},
				{
					"inputs": [
						{
							"internalType": "uint256",
							"name": "_index",
							"type": "uint256"
						},
						{
							"internalType": "address",
							"name": "_taskerIndex",
							"type": "address"
						},
						{
							"internalType": "uint256",
							"name": "_fileIndex",
							"type": "uint256"
						},
						{
							"internalType": "enum LibProject.TaskerState",
							"name": "_state",
							"type": "uint8"
						}
					],
					"name": "changeTaskTransState",
					"outputs": [],
					"stateMutability": "nonpayable",
					"type": "function"
				},
				{
					"inputs": [
						{
							"internalType": "uint256",
							"name": "_index",
							"type": "uint256"
						},
						{
							"internalType": "address",
							"name": "_taskerIndex",
							"type": "address"
						},
						{
							"internalType": "uint256",
							"name": "_fileIndex",
							"type": "uint256"
						},
						{
							"internalType": "enum LibProject.TaskerState",
							"name": "_state",
							"type": "uint8"
						}
					],
					"name": "changeTaskVfState",
					"outputs": [],
					"stateMutability": "nonpayable",
					"type": "function"
				},
				{
					"inputs": [
						{
							"internalType": "uint256",
							"name": "_index",
							"type": "uint256"
						},
						{
							"internalType": "bool",
							"name": "_bool",
							"type": "bool"
						}
					],
					"name": "changeTransActive",
					"outputs": [],
					"stateMutability": "nonpayable",
					"type": "function"
				},
				{
					"inputs": [
						{
							"internalType": "uint256",
							"name": "_index",
							"type": "uint256"
						},
						{
							"internalType": "bool",
							"name": "_bool",
							"type": "bool"
						}
					],
					"name": "changeVerActive",
					"outputs": [],
					"stateMutability": "nonpayable",
					"type": "function"
				},
				{
					"inputs": [
						{
							"internalType": "uint256",
							"name": "_index",
							"type": "uint256"
						},
						{
							"internalType": "address",
							"name": "_address",
							"type": "address"
						}
					],
					"name": "decutTransWaitNumber",
					"outputs": [],
					"stateMutability": "nonpayable",
					"type": "function"
				},
				{
					"inputs": [
						{
							"internalType": "uint256",
							"name": "_index",
							"type": "uint256"
						},
						{
							"internalType": "address",
							"name": "_address",
							"type": "address"
						}
					],
					"name": "decutVfWaitNumber",
					"outputs": [],
					"stateMutability": "nonpayable",
					"type": "function"
				},
				{
					"inputs": [
						{
							"internalType": "address",
							"name": "_tasker",
							"type": "address"
						},
						{
							"internalType": "uint256",
							"name": "_money",
							"type": "uint256"
						}
					],
					"name": "deductPay",
					"outputs": [],
					"stateMutability": "nonpayable",
					"type": "function"
				},
				{
					"inputs": [
						{
							"internalType": "uint256",
							"name": "_index",
							"type": "uint256"
						},
						{
							"internalType": "address",
							"name": "_taskerIndex",
							"type": "address"
						}
					],
					"name": "getAcceptTransNumber",
					"outputs": [
						{
							"internalType": "uint256",
							"name": "",
							"type": "uint256"
						}
					],
					"stateMutability": "view",
					"type": "function"
				},
				{
					"inputs": [
						{
							"internalType": "uint256",
							"name": "_index",
							"type": "uint256"
						},
						{
							"internalType": "address",
							"name": "_taskerIndex",
							"type": "address"
						}
					],
					"name": "getAcceptVfNumber",
					"outputs": [
						{
							"internalType": "uint256",
							"name": "",
							"type": "uint256"
						}
					],
					"stateMutability": "view",
					"type": "function"
				},
				{
					"inputs": [
						{
							"internalType": "uint256",
							"name": "_index",
							"type": "uint256"
						}
					],
					"name": "getBuyer",
					"outputs": [
						{
							"internalType": "address",
							"name": "",
							"type": "address"
						}
					],
					"stateMutability": "view",
					"type": "function"
				},
				{
					"inputs": [],
					"name": "getCount",
					"outputs": [
						{
							"internalType": "uint256",
							"name": "",
							"type": "uint256"
						}
					],
					"stateMutability": "view",
					"type": "function"
				},
				{
					"inputs": [
						{
							"internalType": "uint256",
							"name": "_index",
							"type": "uint256"
						},
						{
							"internalType": "uint256",
							"name": "_fileIndex",
							"type": "uint256"
						}
					],
					"name": "getFileBounty",
					"outputs": [
						{
							"internalType": "uint256",
							"name": "",
							"type": "uint256"
						}
					],
					"stateMutability": "view",
					"type": "function"
				},
				{
					"inputs": [
						{
							"internalType": "uint256",
							"name": "_index",
							"type": "uint256"
						},
						{
							"internalType": "uint256",
							"name": "_fileIndex",
							"type": "uint256"
						}
					],
					"name": "getFileState",
					"outputs": [
						{
							"internalType": "enum LibProject.FileState",
							"name": "",
							"type": "uint8"
						}
					],
					"stateMutability": "view",
					"type": "function"
				},
				{
					"inputs": [
						{
							"internalType": "uint256",
							"name": "_index",
							"type": "uint256"
						}
					],
					"name": "getFiles",
					"outputs": [
						{
							"components": [
								{
									"components": [
										{
											"internalType": "string",
											"name": "name",
											"type": "string"
										},
										{
											"internalType": "uint256",
											"name": "size",
											"type": "uint256"
										},
										{
											"internalType": "uint256",
											"name": "videoLength",
											"type": "uint256"
										},
										{
											"internalType": "uint256",
											"name": "Page",
											"type": "uint256"
										},
										{
											"internalType": "uint256",
											"name": "words",
											"type": "uint256"
										},
										{
											"internalType": "uint256",
											"name": "fileType",
											"type": "uint256"
										},
										{
											"internalType": "string",
											"name": "path",
											"type": "string"
										}
									],
									"internalType": "struct LibProject.FileInfo",
									"name": "file",
									"type": "tuple"
								},
								{
									"internalType": "uint256",
									"name": "bounty",
									"type": "uint256"
								},
								{
									"internalType": "string",
									"name": "info",
									"type": "string"
								},
								{
									"internalType": "enum LibProject.FileState",
									"name": "state",
									"type": "uint8"
								},
								{
									"internalType": "uint256",
									"name": "lastUpload",
									"type": "uint256"
								}
							],
							"internalType": "struct LibProject.TaskInfo[]",
							"name": "",
							"type": "tuple[]"
						}
					],
					"stateMutability": "view",
					"type": "function"
				},
				{
					"inputs": [
						{
							"internalType": "address",
							"name": "_tasker",
							"type": "address"
						}
					],
					"name": "getPay",
					"outputs": [
						{
							"internalType": "uint256",
							"name": "",
							"type": "uint256"
						}
					],
					"stateMutability": "view",
					"type": "function"
				},
				{
					"inputs": [
						{
							"internalType": "uint256",
							"name": "_index",
							"type": "uint256"
						}
					],
					"name": "getProjectOne",
					"outputs": [
						{
							"components": [
								{
									"internalType": "address",
									"name": "buyer",
									"type": "address"
								},
								{
									"internalType": "uint256",
									"name": "releaseTime",
									"type": "uint256"
								},
								{
									"internalType": "string",
									"name": "introduce",
									"type": "string"
								},
								{
									"internalType": "string",
									"name": "need",
									"type": "string"
								},
								{
									"internalType": "uint256",
									"name": "deadline",
									"type": "uint256"
								},
								{
									"internalType": "uint256",
									"name": "sourceLanguage",
									"type": "uint256"
								},
								{
									"internalType": "uint256",
									"name": "goalLanguage",
									"type": "uint256"
								},
								{
									"internalType": "uint256[]",
									"name": "preferList",
									"type": "uint256[]"
								},
								{
									"internalType": "uint256",
									"name": "translationType",
									"type": "uint256"
								},
								{
									"internalType": "uint256",
									"name": "workLoad",
									"type": "uint256"
								},
								{
									"internalType": "bool",
									"name": "isNonDisclosure",
									"type": "bool"
								},
								{
									"internalType": "bool",
									"name": "isCustomize",
									"type": "bool"
								},
								{
									"internalType": "uint256",
									"name": "bounty",
									"type": "uint256"
								},
								{
									"components": [
										{
											"components": [
												{
													"internalType": "string",
													"name": "name",
													"type": "string"
												},
												{
													"internalType": "uint256",
													"name": "size",
													"type": "uint256"
												},
												{
													"internalType": "uint256",
													"name": "videoLength",
													"type": "uint256"
												},
												{
													"internalType": "uint256",
													"name": "Page",
													"type": "uint256"
												},
												{
													"internalType": "uint256",
													"name": "words",
													"type": "uint256"
												},
												{
													"internalType": "uint256",
													"name": "fileType",
													"type": "uint256"
												},
												{
													"internalType": "string",
													"name": "path",
													"type": "string"
												}
											],
											"internalType": "struct LibProject.FileInfo",
											"name": "file",
											"type": "tuple"
										},
										{
											"internalType": "uint256",
											"name": "bounty",
											"type": "uint256"
										},
										{
											"internalType": "string",
											"name": "info",
											"type": "string"
										},
										{
											"internalType": "enum LibProject.FileState",
											"name": "state",
											"type": "uint8"
										},
										{
											"internalType": "uint256",
											"name": "lastUpload",
											"type": "uint256"
										}
									],
									"internalType": "struct LibProject.TaskInfo[]",
									"name": "tasks",
									"type": "tuple[]"
								},
								{
									"internalType": "address[]",
									"name": "translators",
									"type": "address[]"
								},
								{
									"internalType": "address[]",
									"name": "verifiers",
									"type": "address[]"
								},
								{
									"internalType": "uint256",
									"name": "maxT",
									"type": "uint256"
								},
								{
									"internalType": "uint256",
									"name": "maxV",
									"type": "uint256"
								},
								{
									"internalType": "uint256",
									"name": "numberT",
									"type": "uint256"
								},
								{
									"internalType": "uint256",
									"name": "numberV",
									"type": "uint256"
								},
								{
									"internalType": "bool",
									"name": "isTransActive",
									"type": "bool"
								},
								{
									"internalType": "bool",
									"name": "isVerActive",
									"type": "bool"
								},
								{
									"internalType": "enum LibProject.ProjectState",
									"name": "state",
									"type": "uint8"
								}
							],
							"internalType": "struct LibProject.TranslationPro",
							"name": "",
							"type": "tuple"
						}
					],
					"stateMutability": "view",
					"type": "function"
				},
				{
					"inputs": [
						{
							"internalType": "uint256",
							"name": "_index",
							"type": "uint256"
						}
					],
					"name": "getTaskBounty",
					"outputs": [
						{
							"internalType": "uint256",
							"name": "",
							"type": "uint256"
						}
					],
					"stateMutability": "view",
					"type": "function"
				},
				{
					"inputs": [
						{
							"internalType": "uint256",
							"name": "_index",
							"type": "uint256"
						}
					],
					"name": "getTaskState",
					"outputs": [
						{
							"internalType": "enum LibProject.ProjectState",
							"name": "",
							"type": "uint8"
						}
					],
					"stateMutability": "view",
					"type": "function"
				},
				{
					"inputs": [
						{
							"internalType": "uint256",
							"name": "_index",
							"type": "uint256"
						}
					],
					"name": "getTaskStateTrans",
					"outputs": [
						{
							"internalType": "bool",
							"name": "",
							"type": "bool"
						}
					],
					"stateMutability": "view",
					"type": "function"
				},
				{
					"inputs": [
						{
							"internalType": "uint256",
							"name": "_index",
							"type": "uint256"
						}
					],
					"name": "getTaskStateVf",
					"outputs": [
						{
							"internalType": "bool",
							"name": "",
							"type": "bool"
						}
					],
					"stateMutability": "view",
					"type": "function"
				},
				{
					"inputs": [
						{
							"internalType": "uint256",
							"name": "_index",
							"type": "uint256"
						}
					],
					"name": "getTransNumber",
					"outputs": [
						{
							"internalType": "uint256",
							"name": "",
							"type": "uint256"
						}
					],
					"stateMutability": "view",
					"type": "function"
				},
				{
					"inputs": [
						{
							"internalType": "uint256",
							"name": "_index",
							"type": "uint256"
						},
						{
							"internalType": "address",
							"name": "_address",
							"type": "address"
						}
					],
					"name": "getTransTaskInfo",
					"outputs": [
						{
							"components": [
								{
									"internalType": "address",
									"name": "taskerAddress",
									"type": "address"
								},
								{
									"internalType": "uint256[]",
									"name": "taskIndex",
									"type": "uint256[]"
								},
								{
									"components": [
										{
											"internalType": "enum LibProject.TaskerState",
											"name": "state",
											"type": "uint8"
										},
										{
											"internalType": "string",
											"name": "file",
											"type": "string"
										},
										{
											"internalType": "bool",
											"name": "isUsed",
											"type": "bool"
										}
									],
									"internalType": "struct LibProject.FileIndexInfo[]",
									"name": "taskerinfo",
									"type": "tuple[]"
								}
							],
							"internalType": "struct LibProject.ReturnTasker",
							"name": "",
							"type": "tuple"
						}
					],
					"stateMutability": "view",
					"type": "function"
				},
				{
					"inputs": [
						{
							"internalType": "uint256",
							"name": "_index",
							"type": "uint256"
						},
						{
							"internalType": "address",
							"name": "_taskerIndex",
							"type": "address"
						}
					],
					"name": "getTransWaitNumber",
					"outputs": [
						{
							"internalType": "uint256",
							"name": "",
							"type": "uint256"
						}
					],
					"stateMutability": "view",
					"type": "function"
				},
				{
					"inputs": [
						{
							"internalType": "uint256",
							"name": "_index",
							"type": "uint256"
						}
					],
					"name": "getTranslatorsList",
					"outputs": [
						{
							"internalType": "address[]",
							"name": "",
							"type": "address[]"
						}
					],
					"stateMutability": "view",
					"type": "function"
				},
				{
					"inputs": [
						{
							"internalType": "uint256",
							"name": "_index",
							"type": "uint256"
						}
					],
					"name": "getVfList",
					"outputs": [
						{
							"internalType": "address[]",
							"name": "",
							"type": "address[]"
						}
					],
					"stateMutability": "view",
					"type": "function"
				},
				{
					"inputs": [
						{
							"internalType": "uint256",
							"name": "_index",
							"type": "uint256"
						}
					],
					"name": "getVfNumber",
					"outputs": [
						{
							"internalType": "uint256",
							"name": "",
							"type": "uint256"
						}
					],
					"stateMutability": "view",
					"type": "function"
				},
				{
					"inputs": [
						{
							"internalType": "uint256",
							"name": "_index",
							"type": "uint256"
						},
						{
							"internalType": "address",
							"name": "_address",
							"type": "address"
						}
					],
					"name": "getVfTaskInfo",
					"outputs": [
						{
							"components": [
								{
									"internalType": "address",
									"name": "taskerAddress",
									"type": "address"
								},
								{
									"internalType": "uint256[]",
									"name": "taskIndex",
									"type": "uint256[]"
								},
								{
									"components": [
										{
											"internalType": "enum LibProject.TaskerState",
											"name": "state",
											"type": "uint8"
										},
										{
											"internalType": "string",
											"name": "file",
											"type": "string"
										},
										{
											"internalType": "bool",
											"name": "isUsed",
											"type": "bool"
										}
									],
									"internalType": "struct LibProject.FileIndexInfo[]",
									"name": "taskerinfo",
									"type": "tuple[]"
								}
							],
							"internalType": "struct LibProject.ReturnTasker",
							"name": "",
							"type": "tuple"
						}
					],
					"stateMutability": "view",
					"type": "function"
				},
				{
					"inputs": [
						{
							"internalType": "uint256",
							"name": "_index",
							"type": "uint256"
						},
						{
							"internalType": "address",
							"name": "_taskerIndex",
							"type": "address"
						}
					],
					"name": "getVfWaitNumber",
					"outputs": [
						{
							"internalType": "uint256",
							"name": "",
							"type": "uint256"
						}
					],
					"stateMutability": "view",
					"type": "function"
				},
				{
					"inputs": [
						{
							"internalType": "address",
							"name": "_address",
							"type": "address"
						},
						{
							"internalType": "uint256",
							"name": "_index",
							"type": "uint256"
						},
						{
							"internalType": "uint256",
							"name": "_fileIndex",
							"type": "uint256"
						}
					],
					"name": "isAccept",
					"outputs": [
						{
							"internalType": "bool",
							"name": "",
							"type": "bool"
						}
					],
					"stateMutability": "view",
					"type": "function"
				},
				{
					"inputs": [
						{
							"internalType": "uint256",
							"name": "_index",
							"type": "uint256"
						}
					],
					"name": "isCustomizeState",
					"outputs": [
						{
							"internalType": "bool",
							"name": "",
							"type": "bool"
						}
					],
					"stateMutability": "view",
					"type": "function"
				},
				{
					"inputs": [
						{
							"internalType": "uint256",
							"name": "_index",
							"type": "uint256"
						},
						{
							"internalType": "bool",
							"name": "_isTrans",
							"type": "bool"
						}
					],
					"name": "isFull",
					"outputs": [
						{
							"internalType": "bool",
							"name": "",
							"type": "bool"
						}
					],
					"stateMutability": "view",
					"type": "function"
				},
				{
					"inputs": [
						{
							"internalType": "uint256",
							"name": "_index",
							"type": "uint256"
						},
						{
							"internalType": "uint256",
							"name": "_fileIndex",
							"type": "uint256"
						},
						{
							"internalType": "address",
							"name": "_address",
							"type": "address"
						}
					],
					"name": "isUsedToTrans",
					"outputs": [],
					"stateMutability": "nonpayable",
					"type": "function"
				},
				{
					"inputs": [
						{
							"internalType": "uint256",
							"name": "_index",
							"type": "uint256"
						},
						{
							"internalType": "uint256",
							"name": "_fileIndex",
							"type": "uint256"
						},
						{
							"internalType": "address",
							"name": "_address",
							"type": "address"
						}
					],
					"name": "isUsedToVf",
					"outputs": [],
					"stateMutability": "nonpayable",
					"type": "function"
				},
				{
					"inputs": [
						{
							"internalType": "uint256",
							"name": "_index",
							"type": "uint256"
						},
						{
							"internalType": "address",
							"name": "_taskerIndex",
							"type": "address"
						},
						{
							"internalType": "bool",
							"name": "_isTrans",
							"type": "bool"
						}
					],
					"name": "overTimeTasker",
					"outputs": [
						{
							"internalType": "uint256[]",
							"name": "",
							"type": "uint256[]"
						},
						{
							"internalType": "uint256",
							"name": "",
							"type": "uint256"
						}
					],
					"stateMutability": "view",
					"type": "function"
				},
				{
					"inputs": [],
					"name": "owner",
					"outputs": [
						{
							"internalType": "address",
							"name": "",
							"type": "address"
						}
					],
					"stateMutability": "view",
					"type": "function"
				},
				{
					"inputs": [
						{
							"internalType": "uint256",
							"name": "_index",
							"type": "uint256"
						},
						{
							"internalType": "address",
							"name": "_taskerIndex",
							"type": "address"
						},
						{
							"internalType": "uint256",
							"name": "_fileIndex",
							"type": "uint256"
						}
					],
					"name": "pushTaskTransIndex",
					"outputs": [],
					"stateMutability": "nonpayable",
					"type": "function"
				},
				{
					"inputs": [
						{
							"internalType": "uint256",
							"name": "_index",
							"type": "uint256"
						},
						{
							"internalType": "address",
							"name": "_taskerIndex",
							"type": "address"
						},
						{
							"internalType": "uint256",
							"name": "_fileIndex",
							"type": "uint256"
						}
					],
					"name": "pushTaskVfIndex",
					"outputs": [],
					"stateMutability": "nonpayable",
					"type": "function"
				},
				{
					"inputs": [],
					"name": "renounceOwnership",
					"outputs": [],
					"stateMutability": "nonpayable",
					"type": "function"
				},
				{
					"inputs": [
						{
							"internalType": "address",
							"name": "_address",
							"type": "address"
						}
					],
					"name": "setAccessAddress",
					"outputs": [],
					"stateMutability": "nonpayable",
					"type": "function"
				},
				{
					"inputs": [
						{
							"internalType": "uint256",
							"name": "_index",
							"type": "uint256"
						},
						{
							"internalType": "address",
							"name": "_taskerIndex",
							"type": "address"
						},
						{
							"internalType": "uint256",
							"name": "_fileIndex",
							"type": "uint256"
						},
						{
							"internalType": "string",
							"name": "_file",
							"type": "string"
						}
					],
					"name": "submitFileByTrans",
					"outputs": [
						{
							"internalType": "uint256",
							"name": "",
							"type": "uint256"
						}
					],
					"stateMutability": "nonpayable",
					"type": "function"
				},
				{
					"inputs": [
						{
							"internalType": "uint256",
							"name": "_index",
							"type": "uint256"
						},
						{
							"internalType": "address",
							"name": "_taskerIndex",
							"type": "address"
						},
						{
							"internalType": "uint256",
							"name": "_fileIndex",
							"type": "uint256"
						},
						{
							"internalType": "string",
							"name": "_file",
							"type": "string"
						}
					],
					"name": "submitFileByVf",
					"outputs": [
						{
							"internalType": "uint256",
							"name": "",
							"type": "uint256"
						}
					],
					"stateMutability": "nonpayable",
					"type": "function"
				},
				{
					"inputs": [
						{
							"internalType": "address",
							"name": "newOwner",
							"type": "address"
						}
					],
					"name": "transferOwnership",
					"outputs": [],
					"stateMutability": "nonpayable",
					"type": "function"
				},
				{
					"inputs": [
						{
							"internalType": "uint256",
							"name": "_index",
							"type": "uint256"
						},
						{
							"components": [
								{
									"internalType": "uint256",
									"name": "releaseTime",
									"type": "uint256"
								},
								{
									"internalType": "string",
									"name": "introduce",
									"type": "string"
								},
								{
									"internalType": "string",
									"name": "need",
									"type": "string"
								},
								{
									"internalType": "uint256",
									"name": "deadline",
									"type": "uint256"
								},
								{
									"internalType": "uint256",
									"name": "sourceLanguage",
									"type": "uint256"
								},
								{
									"internalType": "uint256",
									"name": "goalLanguage",
									"type": "uint256"
								},
								{
									"internalType": "uint256[]",
									"name": "preferList",
									"type": "uint256[]"
								},
								{
									"internalType": "uint256",
									"name": "translationType",
									"type": "uint256"
								},
								{
									"internalType": "uint256",
									"name": "workLoad",
									"type": "uint256"
								},
								{
									"internalType": "bool",
									"name": "isNonDisclosure",
									"type": "bool"
								},
								{
									"internalType": "bool",
									"name": "isCustomize",
									"type": "bool"
								},
								{
									"internalType": "uint256",
									"name": "bounty",
									"type": "uint256"
								},
								{
									"components": [
										{
											"components": [
												{
													"internalType": "string",
													"name": "name",
													"type": "string"
												},
												{
													"internalType": "uint256",
													"name": "size",
													"type": "uint256"
												},
												{
													"internalType": "uint256",
													"name": "videoLength",
													"type": "uint256"
												},
												{
													"internalType": "uint256",
													"name": "Page",
													"type": "uint256"
												},
												{
													"internalType": "uint256",
													"name": "words",
													"type": "uint256"
												},
												{
													"internalType": "uint256",
													"name": "fileType",
													"type": "uint256"
												},
												{
													"internalType": "string",
													"name": "path",
													"type": "string"
												}
											],
											"internalType": "struct LibProject.FileInfo",
											"name": "file",
											"type": "tuple"
										},
										{
											"internalType": "uint256",
											"name": "bounty",
											"type": "uint256"
										},
										{
											"internalType": "string",
											"name": "info",
											"type": "string"
										},
										{
											"internalType": "enum LibProject.FileState",
											"name": "state",
											"type": "uint8"
										},
										{
											"internalType": "uint256",
											"name": "lastUpload",
											"type": "uint256"
										}
									],
									"internalType": "struct LibProject.TaskInfo[]",
									"name": "tasks",
									"type": "tuple[]"
								}
							],
							"internalType": "struct LibProject.ProParm",
							"name": "_t",
							"type": "tuple"
						}
					],
					"name": "updateProject",
					"outputs": [],
					"stateMutability": "nonpayable",
					"type": "function"
				}
			],
			"devdoc": {
				"kind": "dev",
				"methods": {
					"owner()": {
						"details": "Returns the address of the current owner."
					},
					"renounceOwnership()": {
						"details": "Leaves the contract without owner. It will not be possible to call `onlyOwner` functions anymore. Can only be called by the current owner. NOTE: Renouncing ownership will leave the contract without an owner, thereby removing any functionality that is only available to the owner."
					},
					"transferOwnership(address)": {
						"details": "Transfers ownership of the contract to a new account (`newOwner`). Can only be called by the current owner."
					}
				},
				"version": 1
			},
			"evm": {
				"assembly": "    /* \"AmphiTrans.sol\":182:15183  contract AmphiTrans is Ownable{\r... */\n  mstore(0x40, 0x80)\n  callvalue\n  dup1\n  iszero\n  tag_1\n  jumpi\n  0x00\n  dup1\n  revert\ntag_1:\n  pop\n    /* \"contracts/access/Ownable.sol\":936:968  _transferOwnership(_msgSender()) */\n  tag_4\n    /* \"contracts/utils/Context.sol\":719:729  msg.sender */\n  caller\n    /* \"contracts/access/Ownable.sol\":936:954  _transferOwnership */\n  tag_7\n    /* \"contracts/access/Ownable.sol\":936:968  _transferOwnership(_msgSender()) */\n  jump\t// in\ntag_4:\n    /* \"AmphiTrans.sol\":182:15183  contract AmphiTrans is Ownable{\r... */\n  jump(tag_8)\n    /* \"contracts/access/Ownable.sol\":2433:2620  function _transferOwnership(address newOwner) internal virtual {... */\ntag_7:\n    /* \"contracts/access/Ownable.sol\":2506:2522  address oldOwner */\n  0x00\n    /* \"contracts/access/Ownable.sol\":2525:2531  _owner */\n  dup1\n  sload\n  sub(shl(0xa0, 0x01), 0x01)\n    /* \"contracts/access/Ownable.sol\":2541:2558  _owner = newOwner */\n  dup4\n  dup2\n  and\n  not(sub(shl(0xa0, 0x01), 0x01))\n  dup4\n  and\n  dup2\n  or\n  dup5\n  sstore\n    /* \"contracts/access/Ownable.sol\":2573:2613  OwnershipTransferred(oldOwner, newOwner) */\n  mload(0x40)\n    /* \"contracts/access/Ownable.sol\":2525:2531  _owner */\n  swap2\n  swap1\n  swap3\n  and\n  swap3\n  dup4\n  swap2\n    /* \"contracts/access/Ownable.sol\":2573:2613  OwnershipTransferred(oldOwner, newOwner) */\n  0x8be0079c531659141344cd1fd0a4f28419497f9722a3daafe3b4186f6b6457e0\n  swap2\n    /* \"contracts/access/Ownable.sol\":2506:2522  address oldOwner */\n  swap1\n    /* \"contracts/access/Ownable.sol\":2573:2613  OwnershipTransferred(oldOwner, newOwner) */\n  log3\n    /* \"contracts/access/Ownable.sol\":2496:2620  {... */\n  pop\n    /* \"contracts/access/Ownable.sol\":2433:2620  function _transferOwnership(address newOwner) internal virtual {... */\n  pop\n  jump\t// out\n    /* \"AmphiTrans.sol\":182:15183  contract AmphiTrans is Ownable{\r... */\ntag_8:\n  dataSize(sub_0)\n  dup1\n  dataOffset(sub_0)\n  0x00\n  codecopy\n  0x00\n  return\nstop\n\nsub_0: assembly {\n        /* \"AmphiTrans.sol\":182:15183  contract AmphiTrans is Ownable{\r... */\n      mstore(0x40, 0x80)\n      callvalue\n      dup1\n      iszero\n      tag_1\n      jumpi\n      0x00\n      dup1\n      revert\n    tag_1:\n      pop\n      jumpi(tag_2, lt(calldatasize, 0x04))\n      shr(0xe0, calldataload(0x00))\n      dup1\n      0x7c34eb85\n      gt\n      tag_57\n      jumpi\n      dup1\n      0xa87d942c\n      gt\n      tag_58\n      jumpi\n      dup1\n      0xce098054\n      gt\n      tag_59\n      jumpi\n      dup1\n      0xe1ca7ca7\n      gt\n      tag_60\n      jumpi\n      dup1\n      0xe1ca7ca7\n      eq\n      tag_53\n      jumpi\n      dup1\n      0xf2fde38b\n      eq\n      tag_54\n      jumpi\n      dup1\n      0xf8626ebb\n      eq\n      tag_55\n      jumpi\n      dup1\n      0xffcce776\n      eq\n      tag_56\n      jumpi\n      0x00\n      dup1\n      revert\n    tag_60:\n      dup1\n      0xce098054\n      eq\n      tag_50\n      jumpi\n      dup1\n      0xd2fed69c\n      eq\n      tag_51\n      jumpi\n      dup1\n      0xd3d7bc3b\n      eq\n      tag_52\n      jumpi\n      0x00\n      dup1\n      revert\n    tag_59:\n      dup1\n      0xb647eec3\n      gt\n      tag_61\n      jumpi\n      dup1\n      0xb647eec3\n      eq\n      tag_46\n      jumpi\n      dup1\n      0xc061bb82\n      eq\n      tag_47\n      jumpi\n      dup1\n      0xc16da060\n      eq\n      tag_48\n      jumpi\n      dup1\n      0xca74a589\n      eq\n      tag_49\n      jumpi\n      0x00\n      dup1\n      revert\n    tag_61:\n      dup1\n      0xa87d942c\n      eq\n      tag_43\n      jumpi\n      dup1\n      0xad5f7ab0\n      eq\n      tag_44\n      jumpi\n      dup1\n      0xad607c72\n      eq\n      tag_45\n      jumpi\n      0x00\n      dup1\n      revert\n    tag_58:\n      dup1\n      0x8da5cb5b\n      gt\n      tag_62\n      jumpi\n      dup1\n      0x983a12a8\n      gt\n      tag_63\n      jumpi\n      dup1\n      0x983a12a8\n      eq\n      tag_39\n      jumpi\n      dup1\n      0x992d60f3\n      eq\n      tag_40\n      jumpi\n      dup1\n      0xa1e047f3\n      eq\n      tag_41\n      jumpi\n      dup1\n      0xa74deb9b\n      eq\n      tag_42\n      jumpi\n      0x00\n      dup1\n      revert\n    tag_63:\n      dup1\n      0x8da5cb5b\n      eq\n      tag_36\n      jumpi\n      dup1\n      0x90f4d674\n      eq\n      tag_37\n      jumpi\n      dup1\n      0x9722f099\n      eq\n      tag_38\n      jumpi\n      0x00\n      dup1\n      revert\n    tag_62:\n      dup1\n      0x869a7365\n      gt\n      tag_64\n      jumpi\n      dup1\n      0x869a7365\n      eq\n      tag_33\n      jumpi\n      dup1\n      0x8a9a9ff3\n      eq\n      tag_34\n      jumpi\n      dup1\n      0x8b3f3a6f\n      eq\n      tag_35\n      jumpi\n      0x00\n      dup1\n      revert\n    tag_64:\n      dup1\n      0x7c34eb85\n      eq\n      tag_30\n      jumpi\n      dup1\n      0x7c35beb7\n      eq\n      tag_31\n      jumpi\n      dup1\n      0x7d88dadf\n      eq\n      tag_32\n      jumpi\n      0x00\n      dup1\n      revert\n    tag_57:\n      dup1\n      0x33e68dcd\n      gt\n      tag_65\n      jumpi\n      dup1\n      0x6c431904\n      gt\n      tag_66\n      jumpi\n      dup1\n      0x6e973982\n      gt\n      tag_67\n      jumpi\n      dup1\n      0x6e973982\n      eq\n      tag_26\n      jumpi\n      dup1\n      0x715018a6\n      eq\n      tag_27\n      jumpi\n      dup1\n      0x790485f9\n      eq\n      tag_28\n      jumpi\n      dup1\n      0x7b3f4717\n      eq\n      tag_29\n      jumpi\n      0x00\n      dup1\n      revert\n    tag_67:\n      dup1\n      0x6c431904\n      eq\n      tag_23\n      jumpi\n      dup1\n      0x6cefce6e\n      eq\n      tag_24\n      jumpi\n      dup1\n      0x6d8d1daf\n      eq\n      tag_25\n      jumpi\n      0x00\n      dup1\n      revert\n    tag_66:\n      dup1\n      0x57840da6\n      gt\n      tag_68\n      jumpi\n      dup1\n      0x57840da6\n      eq\n      tag_19\n      jumpi\n      dup1\n      0x5bf608b8\n      eq\n      tag_20\n      jumpi\n      dup1\n      0x5fed5eb2\n      eq\n      tag_21\n      jumpi\n      dup1\n      0x63e3ccad\n      eq\n      tag_22\n      jumpi\n      0x00\n      dup1\n      revert\n    tag_68:\n      dup1\n      0x33e68dcd\n      eq\n      tag_16\n      jumpi\n      dup1\n      0x429edaa2\n      eq\n      tag_17\n      jumpi\n      dup1\n      0x546677aa\n      eq\n      tag_18\n      jumpi\n      0x00\n      dup1\n      revert\n    tag_65:\n      dup1\n      0x19f17088\n      gt\n      tag_69\n      jumpi\n      dup1\n      0x21d90a27\n      gt\n      tag_70\n      jumpi\n      dup1\n      0x21d90a27\n      eq\n      tag_12\n      jumpi\n      dup1\n      0x25e78e70\n      eq\n      tag_13\n      jumpi\n      dup1\n      0x271ff03f\n      eq\n      tag_14\n      jumpi\n      dup1\n      0x31d396ce\n      eq\n      tag_15\n      jumpi\n      0x00\n      dup1\n      revert\n    tag_70:\n      dup1\n      0x19f17088\n      eq\n      tag_9\n      jumpi\n      dup1\n      0x1af5fa16\n      eq\n      tag_10\n      jumpi\n      dup1\n      0x1fa2bf4c\n      eq\n      tag_11\n      jumpi\n      0x00\n      dup1\n      revert\n    tag_69:\n      dup1\n      0x172372c2\n      gt\n      tag_71\n      jumpi\n      dup1\n      0x172372c2\n      eq\n      tag_6\n      jumpi\n      dup1\n      0x17e925d7\n      eq\n      tag_7\n      jumpi\n      dup1\n      0x193620e7\n      eq\n      tag_8\n      jumpi\n      0x00\n      dup1\n      revert\n    tag_71:\n      dup1\n      0x03f95ed1\n      eq\n      tag_3\n      jumpi\n      dup1\n      0x05c3f9c9\n      eq\n      tag_4\n      jumpi\n      dup1\n      0x12506f4d\n      eq\n      tag_5\n      jumpi\n    tag_2:\n      0x00\n      dup1\n      revert\n        /* \"AmphiTrans.sol\":8344:8469  function addVfWaitNumber(uint256 _index,address _address) public isAccess{\r... */\n    tag_3:\n      tag_72\n      tag_73\n      calldatasize\n      0x04\n      tag_74\n      jump\t// in\n    tag_73:\n      tag_75\n      jump\t// in\n    tag_72:\n      stop\n        /* \"AmphiTrans.sol\":14786:15180  function submitFileByVf(\r... */\n    tag_4:\n      tag_76\n      tag_77\n      calldatasize\n      0x04\n      tag_78\n      jump\t// in\n    tag_77:\n      tag_79\n      jump\t// in\n    tag_76:\n      mload(0x40)\n        /* \"#utility.yul\":23251:23276   */\n      swap1\n      dup2\n      mstore\n        /* \"#utility.yul\":23239:23241   */\n      0x20\n        /* \"#utility.yul\":23224:23242   */\n      add\n        /* \"AmphiTrans.sol\":14786:15180  function submitFileByVf(\r... */\n    tag_80:\n      mload(0x40)\n      dup1\n      swap2\n      sub\n      swap1\n      return\n        /* \"AmphiTrans.sol\":1749:1914  function getFiles(uint256 _index)\r... */\n    tag_5:\n      tag_82\n      tag_83\n      calldatasize\n      0x04\n      tag_84\n      jump\t// in\n    tag_83:\n      tag_85\n      jump\t// in\n    tag_82:\n      mload(0x40)\n      tag_80\n      swap2\n      swap1\n      tag_87\n      jump\t// in\n        /* \"AmphiTrans.sol\":1051:1162  function addPay(address _tasker, uint256 _money) external isAccess{\r... */\n    tag_6:\n      tag_72\n      tag_89\n      calldatasize\n      0x04\n      tag_90\n      jump\t// in\n    tag_89:\n      tag_91\n      jump\t// in\n        /* \"AmphiTrans.sol\":9688:9911  function changeProjectState(uint256 _index, LibProject.ProjectState _state)\r... */\n    tag_7:\n      tag_72\n      tag_93\n      calldatasize\n      0x04\n      tag_94\n      jump\t// in\n    tag_93:\n      tag_95\n      jump\t// in\n        /* \"AmphiTrans.sol\":2271:2475  function getAcceptTransNumber(uint256 _index, address _taskerIndex)\r... */\n    tag_8:\n      tag_76\n      tag_97\n      calldatasize\n      0x04\n      tag_74\n      jump\t// in\n    tag_97:\n      tag_98\n      jump\t// in\n        /* \"AmphiTrans.sol\":8869:9336  function changeTaskTransState(\r... */\n    tag_9:\n      tag_72\n      tag_101\n      calldatasize\n      0x04\n      tag_102\n      jump\t// in\n    tag_101:\n      tag_103\n      jump\t// in\n        /* \"AmphiTrans.sol\":13134:14295  function updateProject(uint256 _index, LibProject.ProParm memory _t)\r... */\n    tag_10:\n      tag_72\n      tag_105\n      calldatasize\n      0x04\n      tag_106\n      jump\t// in\n    tag_105:\n      tag_107\n      jump\t// in\n        /* \"AmphiTrans.sol\":9370:9654  function changeFileState(\r... */\n    tag_11:\n      tag_72\n      tag_109\n      calldatasize\n      0x04\n      tag_110\n      jump\t// in\n    tag_109:\n      tag_111\n      jump\t// in\n        /* \"AmphiTrans.sol\":2687:2845  function getTransWaitNumber(uint256 _index,address _taskerIndex) public view returns(uint256) {\r... */\n    tag_12:\n      tag_76\n      tag_113\n      calldatasize\n      0x04\n      tag_74\n      jump\t// in\n    tag_113:\n        /* \"AmphiTrans.sol\":2772:2779  uint256 */\n      0x00\n        /* \"AmphiTrans.sol\":2799:2816  transInfo[_index] */\n      swap2\n      dup3\n      mstore\n        /* \"AmphiTrans.sol\":2799:2808  transInfo */\n      0x03\n        /* \"AmphiTrans.sol\":2799:2816  transInfo[_index] */\n      0x20\n      swap1\n      dup2\n      mstore\n      0x40\n      dup1\n      dup5\n      keccak256\n      sub(shl(0xa0, 0x01), 0x01)\n        /* \"AmphiTrans.sol\":2799:2830  transInfo[_index][_taskerIndex] */\n      swap4\n      swap1\n      swap4\n      and\n      dup5\n      mstore\n      swap2\n      swap1\n      mstore\n      swap1\n      keccak256\n        /* \"AmphiTrans.sol\":2799:2837  transInfo[_index][_taskerIndex].number */\n      0x01\n      add\n      sload\n      swap1\n        /* \"AmphiTrans.sol\":2687:2845  function getTransWaitNumber(uint256 _index,address _taskerIndex) public view returns(uint256) {\r... */\n      jump\n        /* \"AmphiTrans.sol\":6601:6771  function getProjectOne(uint256 _index)\r... */\n    tag_13:\n      tag_116\n      tag_117\n      calldatasize\n      0x04\n      tag_84\n      jump\t// in\n    tag_117:\n      tag_118\n      jump\t// in\n    tag_116:\n      mload(0x40)\n      tag_80\n      swap2\n      swap1\n      tag_120\n      jump\t// in\n        /* \"AmphiTrans.sol\":10706:10919  function pushTaskTransIndex(\r... */\n    tag_14:\n      tag_72\n      tag_122\n      calldatasize\n      0x04\n      tag_123\n      jump\t// in\n    tag_122:\n      tag_124\n      jump\t// in\n        /* \"AmphiTrans.sol\":11171:11307  function addTranslators(uint256 _index, address _address) public isAccess {\r... */\n    tag_15:\n      tag_72\n      tag_126\n      calldatasize\n      0x04\n      tag_74\n      jump\t// in\n    tag_126:\n      tag_127\n      jump\t// in\n        /* \"AmphiTrans.sol\":14303:14778  function submitFileByTrans(\r... */\n    tag_16:\n      tag_76\n      tag_129\n      calldatasize\n      0x04\n      tag_78\n      jump\t// in\n    tag_129:\n      tag_130\n      jump\t// in\n        /* \"AmphiTrans.sol\":10414:10515  function addTransNumber(uint256 _index) public isAccess {\r... */\n    tag_17:\n      tag_72\n      tag_133\n      calldatasize\n      0x04\n      tag_84\n      jump\t// in\n    tag_133:\n      tag_134\n      jump\t// in\n        /* \"AmphiTrans.sol\":5305:5426  function getTaskStateVf(uint256 _index) public view returns (bool) {\r... */\n    tag_18:\n      tag_135\n      tag_136\n      calldatasize\n      0x04\n      tag_84\n      jump\t// in\n    tag_136:\n        /* \"AmphiTrans.sol\":5366:5370  bool */\n      0x00\n        /* \"AmphiTrans.sol\":5390:5406  taskList[_index] */\n      swap1\n      dup2\n      mstore\n        /* \"AmphiTrans.sol\":5390:5398  taskList */\n      0x01\n        /* \"AmphiTrans.sol\":5390:5406  taskList[_index] */\n      0x20\n      mstore\n      0x40\n      swap1\n      keccak256\n        /* \"AmphiTrans.sol\":5390:5418  taskList[_index].isVerActive */\n      0x13\n      add\n      sload\n      0x0100\n      swap1\n      div\n      0xff\n      and\n      swap1\n        /* \"AmphiTrans.sol\":5305:5426  function getTaskStateVf(uint256 _index) public view returns (bool) {\r... */\n      jump\n    tag_135:\n      mload(0x40)\n        /* \"#utility.yul\":16561:16575   */\n      swap1\n      iszero\n        /* \"#utility.yul\":16554:16576   */\n      iszero\n        /* \"#utility.yul\":16536:16577   */\n      dup2\n      mstore\n        /* \"#utility.yul\":16524:16526   */\n      0x20\n        /* \"#utility.yul\":16509:16527   */\n      add\n        /* \"AmphiTrans.sol\":5305:5426  function getTaskStateVf(uint256 _index) public view returns (bool) {\r... */\n      tag_80\n        /* \"#utility.yul\":16396:16583   */\n      jump\n        /* \"AmphiTrans.sol\":1170:1284  function deductPay(address _tasker, uint256 _money) external isAccess{\r... */\n    tag_19:\n      tag_72\n      tag_141\n      calldatasize\n      0x04\n      tag_90\n      jump\t// in\n    tag_141:\n      tag_142\n      jump\t// in\n        /* \"AmphiTrans.sol\":4806:4918  function getBuyer(uint256 _index) public view returns (address) {\r... */\n    tag_20:\n      tag_143\n      tag_144\n      calldatasize\n      0x04\n      tag_84\n      jump\t// in\n    tag_144:\n        /* \"AmphiTrans.sol\":4861:4868  address */\n      0x00\n        /* \"AmphiTrans.sol\":4888:4904  taskList[_index] */\n      swap1\n      dup2\n      mstore\n        /* \"AmphiTrans.sol\":4888:4896  taskList */\n      0x01\n        /* \"AmphiTrans.sol\":4888:4904  taskList[_index] */\n      0x20\n      mstore\n      0x40\n      swap1\n      keccak256\n        /* \"AmphiTrans.sol\":4888:4910  taskList[_index].buyer */\n      sload\n      sub(shl(0xa0, 0x01), 0x01)\n      and\n      swap1\n        /* \"AmphiTrans.sol\":4806:4918  function getBuyer(uint256 _index) public view returns (address) {\r... */\n      jump\n    tag_143:\n      mload(0x40)\n      sub(shl(0xa0, 0x01), 0x01)\n        /* \"#utility.yul\":15400:15455   */\n      swap1\n      swap2\n      and\n        /* \"#utility.yul\":15382:15456   */\n      dup2\n      mstore\n        /* \"#utility.yul\":15370:15372   */\n      0x20\n        /* \"#utility.yul\":15355:15373   */\n      add\n        /* \"AmphiTrans.sol\":4806:4918  function getBuyer(uint256 _index) public view returns (address) {\r... */\n      tag_80\n        /* \"#utility.yul\":15236:15462   */\n      jump\n        /* \"AmphiTrans.sol\":5609:6593  function getTransTaskInfo(uint256 _index, address _address)\r... */\n    tag_21:\n      tag_148\n      tag_149\n      calldatasize\n      0x04\n      tag_74\n      jump\t// in\n    tag_149:\n      tag_150\n      jump\t// in\n    tag_148:\n      mload(0x40)\n      tag_80\n      swap2\n      swap1\n      tag_152\n      jump\t// in\n        /* \"AmphiTrans.sol\":9954:10147  function changeTransActive(uint256 _index, bool _bool) public isAccess {\r... */\n    tag_22:\n      tag_72\n      tag_154\n      calldatasize\n      0x04\n      tag_155\n      jump\t// in\n    tag_154:\n      tag_156\n      jump\t// in\n        /* \"AmphiTrans.sol\":8608:8861  function changeTaskVfState(\r... */\n    tag_23:\n      tag_72\n      tag_158\n      calldatasize\n      0x04\n      tag_102\n      jump\t// in\n    tag_158:\n      tag_159\n      jump\t// in\n        /* \"AmphiTrans.sol\":874:937  function addCount() external isAccess{\r... */\n    tag_24:\n      tag_72\n      tag_161\n      jump\t// in\n        /* \"AmphiTrans.sol\":11620:11782  function isUsedToVf(uint256 _index, uint256 _fileIndex,address _address) public isAccess{\r... */\n    tag_25:\n      tag_72\n      tag_163\n      calldatasize\n      0x04\n      tag_164\n      jump\t// in\n    tag_163:\n      tag_165\n      jump\t// in\n        /* \"AmphiTrans.sol\":7944:8062  function getTaskBounty(uint256 _index) public view returns (uint256) {\r... */\n    tag_26:\n      tag_76\n      tag_167\n      calldatasize\n      0x04\n      tag_84\n      jump\t// in\n    tag_167:\n        /* \"AmphiTrans.sol\":8004:8011  uint256 */\n      0x00\n        /* \"AmphiTrans.sol\":8031:8047  taskList[_index] */\n      swap1\n      dup2\n      mstore\n        /* \"AmphiTrans.sol\":8031:8039  taskList */\n      0x01\n        /* \"AmphiTrans.sol\":8031:8047  taskList[_index] */\n      0x20\n      mstore\n      0x40\n      swap1\n      keccak256\n        /* \"AmphiTrans.sol\":8031:8054  taskList[_index].bounty */\n      0x0b\n      add\n      sload\n      swap1\n        /* \"AmphiTrans.sol\":7944:8062  function getTaskBounty(uint256 _index) public view returns (uint256) {\r... */\n      jump\n        /* \"contracts/access/Ownable.sol\":1831:1932  function renounceOwnership() public virtual onlyOwner {... */\n    tag_27:\n      tag_72\n      tag_171\n      jump\t// in\n        /* \"AmphiTrans.sol\":2483:2681  function getAcceptVfNumber(uint256 _index, address _taskerIndex)\r... */\n    tag_28:\n      tag_76\n      tag_173\n      calldatasize\n      0x04\n      tag_74\n      jump\t// in\n    tag_173:\n        /* \"AmphiTrans.sol\":2596:2603  uint256 */\n      0x00\n        /* \"AmphiTrans.sol\":2628:2642  vfInfo[_index] */\n      swap2\n      dup3\n      mstore\n        /* \"AmphiTrans.sol\":2628:2634  vfInfo */\n      0x04\n        /* \"AmphiTrans.sol\":2628:2642  vfInfo[_index] */\n      0x20\n      swap1\n      dup2\n      mstore\n      0x40\n      dup1\n      dup5\n      keccak256\n      sub(shl(0xa0, 0x01), 0x01)\n        /* \"AmphiTrans.sol\":2628:2656  vfInfo[_index][_taskerIndex] */\n      swap4\n      swap1\n      swap4\n      and\n      dup5\n      mstore\n      swap2\n      swap1\n      mstore\n      swap1\n      keccak256\n        /* \"AmphiTrans.sol\":2628:2673  vfInfo[_index][_taskerIndex].taskIndex.length */\n      sload\n      swap1\n        /* \"AmphiTrans.sol\":2483:2681  function getAcceptVfNumber(uint256 _index, address _taskerIndex)\r... */\n      jump\n        /* \"AmphiTrans.sol\":8475:8602  function decutVfWaitNumber(uint256 _index,address _address) public isAccess{\r... */\n    tag_29:\n      tag_72\n      tag_177\n      calldatasize\n      0x04\n      tag_74\n      jump\t// in\n    tag_177:\n      tag_178\n      jump\t// in\n        /* \"AmphiTrans.sol\":3697:3820  function isCustomizeState(uint256 _index) public view returns (bool) {\r... */\n    tag_30:\n      tag_135\n      tag_180\n      calldatasize\n      0x04\n      tag_84\n      jump\t// in\n    tag_180:\n        /* \"AmphiTrans.sol\":3760:3764  bool */\n      0x00\n        /* \"AmphiTrans.sol\":3784:3800  taskList[_index] */\n      swap1\n      dup2\n      mstore\n        /* \"AmphiTrans.sol\":3784:3792  taskList */\n      0x01\n        /* \"AmphiTrans.sol\":3784:3800  taskList[_index] */\n      0x20\n      mstore\n      0x40\n      swap1\n      keccak256\n        /* \"AmphiTrans.sol\":3784:3812  taskList[_index].isCustomize */\n      0x0a\n      add\n      sload\n      0x0100\n      swap1\n      div\n      0xff\n      and\n      swap1\n        /* \"AmphiTrans.sol\":3697:3820  function isCustomizeState(uint256 _index) public view returns (bool) {\r... */\n      jump\n        /* \"AmphiTrans.sol\":6820:7740  function getVfTaskInfo(uint256 _index, address _address)\r... */\n    tag_31:\n      tag_148\n      tag_184\n      calldatasize\n      0x04\n      tag_74\n      jump\t// in\n    tag_184:\n      tag_185\n      jump\t// in\n        /* \"AmphiTrans.sol\":2851:3132  function isAccept(address _address,uint256 _index,uint256 _fileIndex) public view returns(bool) {\r... */\n    tag_32:\n      tag_135\n      tag_188\n      calldatasize\n      0x04\n      tag_189\n      jump\t// in\n    tag_188:\n      tag_190\n      jump\t// in\n        /* \"AmphiTrans.sol\":3138:3290  function getVfWaitNumber(uint256 _index,address _taskerIndex) public view returns(uint256) {\r... */\n    tag_33:\n      tag_76\n      tag_193\n      calldatasize\n      0x04\n      tag_74\n      jump\t// in\n    tag_193:\n        /* \"AmphiTrans.sol\":3220:3227  uint256 */\n      0x00\n        /* \"AmphiTrans.sol\":3247:3261  vfInfo[_index] */\n      swap2\n      dup3\n      mstore\n        /* \"AmphiTrans.sol\":3247:3253  vfInfo */\n      0x04\n        /* \"AmphiTrans.sol\":3247:3261  vfInfo[_index] */\n      0x20\n      swap1\n      dup2\n      mstore\n      0x40\n      dup1\n      dup5\n      keccak256\n      sub(shl(0xa0, 0x01), 0x01)\n        /* \"AmphiTrans.sol\":3247:3275  vfInfo[_index][_taskerIndex] */\n      swap4\n      swap1\n      swap4\n      and\n      dup5\n      mstore\n      swap2\n      swap1\n      mstore\n      swap1\n      keccak256\n        /* \"AmphiTrans.sol\":3247:3282  vfInfo[_index][_taskerIndex].number */\n      0x01\n      add\n      sload\n      swap1\n        /* \"AmphiTrans.sol\":3138:3290  function getVfWaitNumber(uint256 _index,address _taskerIndex) public view returns(uint256) {\r... */\n      jump\n        /* \"AmphiTrans.sol\":1463:1741  function isFull(uint256 _index, bool _isTrans) public view returns (bool) {\r... */\n    tag_34:\n      tag_135\n      tag_197\n      calldatasize\n      0x04\n      tag_155\n      jump\t// in\n    tag_197:\n      tag_198\n      jump\t// in\n        /* \"AmphiTrans.sol\":3875:4798  function overTimeTasker(\r... */\n    tag_35:\n      tag_200\n      tag_201\n      calldatasize\n      0x04\n      tag_202\n      jump\t// in\n    tag_201:\n      tag_203\n      jump\t// in\n    tag_200:\n      mload(0x40)\n      tag_80\n      swap3\n      swap2\n      swap1\n      tag_205\n      jump\t// in\n        /* \"contracts/access/Ownable.sol\":1201:1286  function owner() public view virtual returns (address) {... */\n    tag_36:\n        /* \"contracts/access/Ownable.sol\":1247:1254  address */\n      0x00\n        /* \"contracts/access/Ownable.sol\":1273:1279  _owner */\n      sload\n      sub(shl(0xa0, 0x01), 0x01)\n      and\n        /* \"contracts/access/Ownable.sol\":1201:1286  function owner() public view virtual returns (address) {... */\n      jump(tag_143)\n        /* \"AmphiTrans.sol\":8068:8199  function addTransWaitNumber(uint256 _index,address _address) public isAccess{\r... */\n    tag_37:\n      tag_72\n      tag_210\n      calldatasize\n      0x04\n      tag_74\n      jump\t// in\n    tag_210:\n      tag_211\n      jump\t// in\n        /* \"AmphiTrans.sol\":5434:5560  function getTaskStateTrans(uint256 _index) public view returns (bool) {\r... */\n    tag_38:\n      tag_135\n      tag_213\n      calldatasize\n      0x04\n      tag_84\n      jump\t// in\n    tag_213:\n        /* \"AmphiTrans.sol\":5498:5502  bool */\n      0x00\n        /* \"AmphiTrans.sol\":5522:5538  taskList[_index] */\n      swap1\n      dup2\n      mstore\n        /* \"AmphiTrans.sol\":5522:5530  taskList */\n      0x01\n        /* \"AmphiTrans.sol\":5522:5538  taskList[_index] */\n      0x20\n      mstore\n      0x40\n      swap1\n      keccak256\n        /* \"AmphiTrans.sol\":5522:5552  taskList[_index].isTransActive */\n      0x13\n      add\n      sload\n      0xff\n      and\n      swap1\n        /* \"AmphiTrans.sol\":5434:5560  function getTaskStateTrans(uint256 _index) public view returns (bool) {\r... */\n      jump\n        /* \"AmphiTrans.sol\":3325:3494  function getTranslatorsList(uint256 _index)\r... */\n    tag_39:\n      tag_216\n      tag_217\n      calldatasize\n      0x04\n      tag_84\n      jump\t// in\n    tag_217:\n      tag_218\n      jump\t// in\n    tag_216:\n      mload(0x40)\n      tag_80\n      swap2\n      swap1\n      tag_220\n      jump\t// in\n        /* \"AmphiTrans.sol\":11315:11440  function addVf(uint256 _index, address _address) public isAccess {\r... */\n    tag_40:\n      tag_72\n      tag_222\n      calldatasize\n      0x04\n      tag_74\n      jump\t// in\n    tag_222:\n      tag_223\n      jump\t// in\n        /* \"AmphiTrans.sol\":10927:11134  function pushTaskVfIndex(\r... */\n    tag_41:\n      tag_72\n      tag_225\n      calldatasize\n      0x04\n      tag_123\n      jump\t// in\n    tag_225:\n      tag_226\n      jump\t// in\n        /* \"AmphiTrans.sol\":11790:13126  function addProject(LibProject.ProParm memory _t, address _buyer)\r... */\n    tag_42:\n      tag_76\n      tag_228\n      calldatasize\n      0x04\n      tag_229\n      jump\t// in\n    tag_228:\n      tag_230\n      jump\t// in\n        /* \"AmphiTrans.sol\":945:1028  function getCount() external view returns (uint256) {\r... */\n    tag_43:\n        /* \"AmphiTrans.sol\":1015:1020  count */\n      sload(0x05)\n        /* \"AmphiTrans.sol\":945:1028  function getCount() external view returns (uint256) {\r... */\n      jump(tag_76)\n        /* \"AmphiTrans.sol\":752:855  function setAccessAddress(address _address) public onlyOwner{\r... */\n    tag_44:\n      tag_72\n      tag_236\n      calldatasize\n      0x04\n      tag_237\n      jump\t// in\n    tag_236:\n      tag_238\n      jump\t// in\n        /* \"AmphiTrans.sol\":5098:5297  function getFileState(uint256 _index, uint256 _fileIndex)\r... */\n    tag_45:\n      tag_239\n      tag_240\n      calldatasize\n      0x04\n      tag_241\n      jump\t// in\n    tag_240:\n      tag_242\n      jump\t// in\n    tag_239:\n      mload(0x40)\n      tag_80\n      swap2\n      swap1\n      tag_244\n      jump\t// in\n        /* \"AmphiTrans.sol\":3531:3657  function getVfList(uint256 _index) public view returns (address[] memory) {\r... */\n    tag_46:\n      tag_216\n      tag_246\n      calldatasize\n      0x04\n      tag_84\n      jump\t// in\n    tag_246:\n      tag_247\n      jump\t// in\n        /* \"AmphiTrans.sol\":10190:10377  function changeVerActive(uint256 _index, bool _bool) public isAccess {\r... */\n    tag_47:\n      tag_72\n      tag_250\n      calldatasize\n      0x04\n      tag_155\n      jump\t// in\n    tag_250:\n      tag_251\n      jump\t// in\n        /* \"AmphiTrans.sol\":8205:8338  function decutTransWaitNumber(uint256 _index,address _address) public isAccess{\r... */\n    tag_48:\n      tag_72\n      tag_253\n      calldatasize\n      0x04\n      tag_74\n      jump\t// in\n    tag_253:\n      tag_254\n      jump\t// in\n        /* \"AmphiTrans.sol\":10552:10650  function addVfNumber(uint256 _index) public isAccess {\r... */\n    tag_49:\n      tag_72\n      tag_256\n      calldatasize\n      0x04\n      tag_84\n      jump\t// in\n    tag_256:\n      tag_257\n      jump\t// in\n        /* \"AmphiTrans.sol\":11446:11614  function isUsedToTrans(uint256 _index, uint256 _fileIndex,address _address) public isAccess{\r... */\n    tag_50:\n      tag_72\n      tag_259\n      calldatasize\n      0x04\n      tag_164\n      jump\t// in\n    tag_259:\n      tag_260\n      jump\t// in\n        /* \"AmphiTrans.sol\":1954:2085  function getTransNumber(uint256 _index) public view returns (uint256) {\r... */\n    tag_51:\n      tag_76\n      tag_262\n      calldatasize\n      0x04\n      tag_84\n      jump\t// in\n    tag_262:\n        /* \"AmphiTrans.sol\":2015:2022  uint256 */\n      0x00\n        /* \"AmphiTrans.sol\":2042:2058  taskList[_index] */\n      swap1\n      dup2\n      mstore\n        /* \"AmphiTrans.sol\":2042:2050  taskList */\n      0x01\n        /* \"AmphiTrans.sol\":2042:2058  taskList[_index] */\n      0x20\n      mstore\n      0x40\n      swap1\n      keccak256\n        /* \"AmphiTrans.sol\":2042:2070  taskList[_index].translators */\n      0x0d\n      add\n        /* \"AmphiTrans.sol\":2042:2077  taskList[_index].translators.length */\n      sload\n      swap1\n        /* \"AmphiTrans.sol\":1954:2085  function getTransNumber(uint256 _index) public view returns (uint256) {\r... */\n      jump\n        /* \"AmphiTrans.sol\":1292:1399  function getPay(address _tasker) external view returns (uint256) {\r... */\n    tag_52:\n      tag_76\n      tag_266\n      calldatasize\n      0x04\n      tag_237\n      jump\t// in\n    tag_266:\n      sub(shl(0xa0, 0x01), 0x01)\n        /* \"AmphiTrans.sol\":1375:1391  payList[_tasker] */\n      and\n        /* \"AmphiTrans.sol\":1348:1355  uint256 */\n      0x00\n        /* \"AmphiTrans.sol\":1375:1391  payList[_tasker] */\n      swap1\n      dup2\n      mstore\n        /* \"AmphiTrans.sol\":1375:1382  payList */\n      0x02\n        /* \"AmphiTrans.sol\":1375:1391  payList[_tasker] */\n      0x20\n      mstore\n      0x40\n      swap1\n      keccak256\n      sload\n      swap1\n        /* \"AmphiTrans.sol\":1292:1399  function getPay(address _tasker) external view returns (uint256) {\r... */\n      jump\n        /* \"AmphiTrans.sol\":7748:7936  function getFileBounty(uint256 _index, uint256 _fileIndex)\r... */\n    tag_53:\n      tag_76\n      tag_270\n      calldatasize\n      0x04\n      tag_241\n      jump\t// in\n    tag_270:\n      tag_271\n      jump\t// in\n        /* \"contracts/access/Ownable.sol\":2081:2279  function transferOwnership(address newOwner) public virtual onlyOwner {... */\n    tag_54:\n      tag_72\n      tag_274\n      calldatasize\n      0x04\n      tag_237\n      jump\t// in\n    tag_274:\n      tag_275\n      jump\t// in\n        /* \"AmphiTrans.sol\":2093:2219  function getVfNumber(uint256 _index) public view returns (uint256) {\r... */\n    tag_55:\n      tag_76\n      tag_277\n      calldatasize\n      0x04\n      tag_84\n      jump\t// in\n    tag_277:\n        /* \"AmphiTrans.sol\":2151:2158  uint256 */\n      0x00\n        /* \"AmphiTrans.sol\":2178:2194  taskList[_index] */\n      swap1\n      dup2\n      mstore\n        /* \"AmphiTrans.sol\":2178:2186  taskList */\n      0x01\n        /* \"AmphiTrans.sol\":2178:2194  taskList[_index] */\n      0x20\n      mstore\n      0x40\n      swap1\n      keccak256\n        /* \"AmphiTrans.sol\":2178:2204  taskList[_index].verifiers */\n      0x0e\n      add\n        /* \"AmphiTrans.sol\":2178:2211  taskList[_index].verifiers.length */\n      sload\n      swap1\n        /* \"AmphiTrans.sol\":2093:2219  function getVfNumber(uint256 _index) public view returns (uint256) {\r... */\n      jump\n        /* \"AmphiTrans.sol\":4926:5090  function getTaskState(uint256 _index)\r... */\n    tag_56:\n      tag_280\n      tag_281\n      calldatasize\n      0x04\n      tag_84\n      jump\t// in\n    tag_281:\n        /* \"AmphiTrans.sol\":5012:5035  LibProject.ProjectState */\n      0x00\n        /* \"AmphiTrans.sol\":5060:5076  taskList[_index] */\n      swap1\n      dup2\n      mstore\n        /* \"AmphiTrans.sol\":5060:5068  taskList */\n      0x01\n        /* \"AmphiTrans.sol\":5060:5076  taskList[_index] */\n      0x20\n      mstore\n      0x40\n      swap1\n      keccak256\n        /* \"AmphiTrans.sol\":5060:5082  taskList[_index].state */\n      0x13\n      add\n      sload\n      0x010000\n      swap1\n      div\n      0xff\n      and\n      swap1\n        /* \"AmphiTrans.sol\":4926:5090  function getTaskState(uint256 _index)\r... */\n      jump\n    tag_280:\n      mload(0x40)\n      tag_80\n      swap2\n      swap1\n      tag_284\n      jump\t// in\n        /* \"AmphiTrans.sol\":8344:8469  function addVfWaitNumber(uint256 _index,address _address) public isAccess{\r... */\n    tag_75:\n        /* \"AmphiTrans.sol\":641:654  accessAddress */\n      and(sub(shl(0xa0, 0x01), 0x01), sload(0x06))\n        /* \"AmphiTrans.sol\":627:637  msg.sender */\n      caller\n        /* \"AmphiTrans.sol\":627:654  msg.sender != accessAddress */\n      eq\n        /* \"AmphiTrans.sol\":624:727  if(msg.sender != accessAddress) {\r... */\n      tag_286\n      jumpi\n        /* \"AmphiTrans.sol\":679:715  AccessError(\"Error Access Address!\") */\n      mload(0x40)\n      shl(0xe4, 0x048e2d49)\n      dup2\n      mstore\n        /* \"#utility.yul\":17990:17992   */\n      0x20\n        /* \"AmphiTrans.sol\":679:715  AccessError(\"Error Access Address!\") */\n      0x04\n      dup3\n      add\n        /* \"#utility.yul\":17972:17993   */\n      mstore\n        /* \"#utility.yul\":18029:18031   */\n      0x15\n        /* \"#utility.yul\":18009:18027   */\n      0x24\n      dup3\n      add\n        /* \"#utility.yul\":18002:18032   */\n      mstore\n      shl(0x58, 0x4572726f7220416363657373204164647265737321)\n        /* \"#utility.yul\":18048:18066   */\n      0x44\n      dup3\n      add\n        /* \"#utility.yul\":18041:18092   */\n      mstore\n        /* \"#utility.yul\":18109:18127   */\n      0x64\n      add\n        /* \"AmphiTrans.sol\":679:715  AccessError(\"Error Access Address!\") */\n    tag_287:\n      mload(0x40)\n      dup1\n      swap2\n      sub\n      swap1\n      revert\n        /* \"AmphiTrans.sol\":624:727  if(msg.sender != accessAddress) {\r... */\n    tag_286:\n        /* \"AmphiTrans.sol\":8428:8442  vfInfo[_index] */\n      0x00\n      dup3\n      dup2\n      mstore\n        /* \"AmphiTrans.sol\":8428:8434  vfInfo */\n      0x04\n        /* \"AmphiTrans.sol\":8428:8442  vfInfo[_index] */\n      0x20\n      swap1\n      dup2\n      mstore\n      0x40\n      dup1\n      dup4\n      keccak256\n      sub(shl(0xa0, 0x01), 0x01)\n        /* \"AmphiTrans.sol\":8428:8452  vfInfo[_index][_address] */\n      dup6\n      and\n      dup5\n      mstore\n      swap1\n      swap2\n      mstore\n      dup2\n      keccak256\n        /* \"AmphiTrans.sol\":8428:8459  vfInfo[_index][_address].number */\n      0x01\n      add\n        /* \"AmphiTrans.sol\":8428:8461  vfInfo[_index][_address].number++ */\n      dup1\n      sload\n      swap2\n      tag_290\n      dup4\n      tag_291\n      jump\t// in\n    tag_290:\n      swap2\n      swap1\n      pop\n      sstore\n      pop\n        /* \"AmphiTrans.sol\":8344:8469  function addVfWaitNumber(uint256 _index,address _address) public isAccess{\r... */\n      pop\n      pop\n      jump\t// out\n        /* \"AmphiTrans.sol\":14786:15180  function submitFileByVf(\r... */\n    tag_79:\n        /* \"AmphiTrans.sol\":641:654  accessAddress */\n      sload(0x06)\n        /* \"AmphiTrans.sol\":14956:14963  uint256 */\n      0x00\n      swap1\n      sub(shl(0xa0, 0x01), 0x01)\n        /* \"AmphiTrans.sol\":641:654  accessAddress */\n      and\n        /* \"AmphiTrans.sol\":627:637  msg.sender */\n      caller\n        /* \"AmphiTrans.sol\":627:654  msg.sender != accessAddress */\n      eq\n        /* \"AmphiTrans.sol\":624:727  if(msg.sender != accessAddress) {\r... */\n      tag_293\n      jumpi\n        /* \"AmphiTrans.sol\":679:715  AccessError(\"Error Access Address!\") */\n      mload(0x40)\n      shl(0xe4, 0x048e2d49)\n      dup2\n      mstore\n        /* \"#utility.yul\":17990:17992   */\n      0x20\n        /* \"AmphiTrans.sol\":679:715  AccessError(\"Error Access Address!\") */\n      0x04\n      dup3\n      add\n        /* \"#utility.yul\":17972:17993   */\n      mstore\n        /* \"#utility.yul\":18029:18031   */\n      0x15\n        /* \"#utility.yul\":18009:18027   */\n      0x24\n      dup3\n      add\n        /* \"#utility.yul\":18002:18032   */\n      mstore\n      shl(0x58, 0x4572726f7220416363657373204164647265737321)\n        /* \"#utility.yul\":18048:18066   */\n      0x44\n      dup3\n      add\n        /* \"#utility.yul\":18041:18092   */\n      mstore\n        /* \"#utility.yul\":18109:18127   */\n      0x64\n      add\n        /* \"AmphiTrans.sol\":679:715  AccessError(\"Error Access Address!\") */\n      tag_287\n        /* \"#utility.yul\":17788:18133   */\n      jump\n        /* \"AmphiTrans.sol\":624:727  if(msg.sender != accessAddress) {\r... */\n    tag_293:\n        /* \"AmphiTrans.sol\":14975:14988  uint256 _time */\n      0x00\n        /* \"AmphiTrans.sol\":15017:15033  taskList[_index] */\n      dup6\n      dup2\n      mstore\n        /* \"AmphiTrans.sol\":15017:15025  taskList */\n      0x01\n        /* \"AmphiTrans.sol\":15017:15033  taskList[_index] */\n      0x20\n      mstore\n      0x40\n      swap1\n      keccak256\n        /* \"AmphiTrans.sol\":15017:15039  taskList[_index].tasks */\n      0x0c\n      add\n        /* \"AmphiTrans.sol\":15017:15051  taskList[_index].tasks[_fileIndex] */\n      dup1\n      sload\n        /* \"AmphiTrans.sol\":14991:15006  block.timestamp */\n      timestamp\n      swap2\n      dup3\n      swap2\n        /* \"AmphiTrans.sol\":15040:15050  _fileIndex */\n      dup7\n      swap1\n        /* \"AmphiTrans.sol\":15017:15051  taskList[_index].tasks[_fileIndex] */\n      dup2\n      lt\n      tag_297\n      jumpi\n      tag_297\n      tag_298\n      jump\t// in\n    tag_297:\n      0x00\n      swap2\n      dup3\n      mstore\n      0x20\n      dup1\n      dup4\n      keccak256\n        /* \"AmphiTrans.sol\":15017:15062  taskList[_index].tasks[_fileIndex].lastUpload */\n      0x0a\n        /* \"AmphiTrans.sol\":15017:15051  taskList[_index].tasks[_fileIndex] */\n      0x0b\n      swap1\n      swap4\n      mul\n      add\n        /* \"AmphiTrans.sol\":15017:15062  taskList[_index].tasks[_fileIndex].lastUpload */\n      swap2\n      swap1\n      swap2\n      add\n        /* \"AmphiTrans.sol\":15017:15080  taskList[_index].tasks[_fileIndex].lastUpload = block.timestamp */\n      swap3\n      swap1\n      swap3\n      sstore\n        /* \"AmphiTrans.sol\":15091:15105  vfInfo[_index] */\n      dup8\n      dup2\n      mstore\n        /* \"AmphiTrans.sol\":15091:15097  vfInfo */\n      0x04\n        /* \"AmphiTrans.sol\":15091:15105  vfInfo[_index] */\n      dup3\n      mstore\n      0x40\n      dup1\n      dup3\n      keccak256\n      sub(shl(0xa0, 0x01), 0x01)\n        /* \"AmphiTrans.sol\":15091:15119  vfInfo[_index][_taskerIndex] */\n      dup10\n      and\n      dup4\n      mstore\n      dup4\n      mstore\n      dup1\n      dup3\n      keccak256\n        /* \"AmphiTrans.sol\":15091:15136  vfInfo[_index][_taskerIndex].info[_fileIndex] */\n      dup8\n      dup4\n      mstore\n        /* \"AmphiTrans.sol\":15091:15124  vfInfo[_index][_taskerIndex].info */\n      0x02\n      add\n        /* \"AmphiTrans.sol\":15091:15136  vfInfo[_index][_taskerIndex].info[_fileIndex] */\n      dup4\n      mstore\n      swap1\n      keccak256\n        /* \"AmphiTrans.sol\":15091:15149  vfInfo[_index][_taskerIndex].info[_fileIndex].file = _file */\n      dup5\n      mload\n      tag_300\n      swap3\n        /* \"AmphiTrans.sol\":15091:15141  vfInfo[_index][_taskerIndex].info[_fileIndex].file */\n      0x01\n      swap1\n      swap3\n      add\n      swap2\n        /* \"AmphiTrans.sol\":15091:15149  vfInfo[_index][_taskerIndex].info[_fileIndex].file = _file */\n      dup7\n      add\n      swap1\n      tag_301\n      jump\t// in\n    tag_300:\n      pop\n        /* \"AmphiTrans.sol\":15167:15172  _time */\n      swap6\n        /* \"AmphiTrans.sol\":14786:15180  function submitFileByVf(\r... */\n      swap5\n      pop\n      pop\n      pop\n      pop\n      pop\n      jump\t// out\n        /* \"AmphiTrans.sol\":1749:1914  function getFiles(uint256 _index)\r... */\n    tag_85:\n        /* \"AmphiTrans.sol\":1831:1859  LibProject.TaskInfo[] memory */\n      0x60\n        /* \"AmphiTrans.sol\":1884:1892  taskList */\n      0x01\n        /* \"AmphiTrans.sol\":1884:1900  taskList[_index] */\n      0x00\n        /* \"AmphiTrans.sol\":1893:1899  _index */\n      dup4\n        /* \"AmphiTrans.sol\":1884:1900  taskList[_index] */\n      dup2\n      mstore\n      0x20\n      add\n      swap1\n      dup2\n      mstore\n      0x20\n      add\n      0x00\n      keccak256\n        /* \"AmphiTrans.sol\":1884:1906  taskList[_index].tasks */\n      0x0c\n      add\n        /* \"AmphiTrans.sol\":1877:1906  return taskList[_index].tasks */\n      dup1\n      sload\n      dup1\n      0x20\n      mul\n      0x20\n      add\n      mload(0x40)\n      swap1\n      dup2\n      add\n      0x40\n      mstore\n      dup1\n      swap3\n      swap2\n      swap1\n      dup2\n      dup2\n      mstore\n      0x20\n      add\n      0x00\n      swap1\n    tag_303:\n      dup3\n      dup3\n      lt\n      iszero\n      tag_304\n      jumpi\n      0x00\n      dup5\n      dup2\n      mstore\n      0x20\n      swap1\n      keccak256\n      0x40\n      dup1\n      mload\n      0x0180\n      dup2\n      add\n      swap1\n      swap2\n      mstore\n      0x0b\n      dup5\n      mul\n      swap1\n      swap2\n      add\n      dup1\n      sload\n      dup3\n      swap1\n      0xa0\n      dup3\n      add\n      swap1\n      dup4\n      swap1\n      dup3\n      swap1\n      dup3\n      swap1\n      tag_306\n      swap1\n      tag_307\n      jump\t// in\n    tag_306:\n      dup1\n      0x1f\n      add\n      0x20\n      dup1\n      swap2\n      div\n      mul\n      0x20\n      add\n      mload(0x40)\n      swap1\n      dup2\n      add\n      0x40\n      mstore\n      dup1\n      swap3\n      swap2\n      swap1\n      dup2\n      dup2\n      mstore\n      0x20\n      add\n      dup3\n      dup1\n      sload\n      tag_308\n      swap1\n      tag_307\n      jump\t// in\n    tag_308:\n      dup1\n      iszero\n      tag_309\n      jumpi\n      dup1\n      0x1f\n      lt\n      tag_310\n      jumpi\n      0x0100\n      dup1\n      dup4\n      sload\n      div\n      mul\n      dup4\n      mstore\n      swap2\n      0x20\n      add\n      swap2\n      jump(tag_309)\n    tag_310:\n      dup3\n      add\n      swap2\n      swap1\n      0x00\n      mstore\n      keccak256(0x00, 0x20)\n      swap1\n    tag_311:\n      dup2\n      sload\n      dup2\n      mstore\n      swap1\n      0x01\n      add\n      swap1\n      0x20\n      add\n      dup1\n      dup4\n      gt\n      tag_311\n      jumpi\n      dup3\n      swap1\n      sub\n      0x1f\n      and\n      dup3\n      add\n      swap2\n    tag_309:\n      pop\n      pop\n      pop\n      pop\n      pop\n      dup2\n      mstore\n      0x20\n      add\n      0x01\n      dup3\n      add\n      sload\n      dup2\n      mstore\n      0x20\n      add\n      0x02\n      dup3\n      add\n      sload\n      dup2\n      mstore\n      0x20\n      add\n      0x03\n      dup3\n      add\n      sload\n      dup2\n      mstore\n      0x20\n      add\n      0x04\n      dup3\n      add\n      sload\n      dup2\n      mstore\n      0x20\n      add\n      0x05\n      dup3\n      add\n      sload\n      dup2\n      mstore\n      0x20\n      add\n      0x06\n      dup3\n      add\n      dup1\n      sload\n      tag_312\n      swap1\n      tag_307\n      jump\t// in\n    tag_312:\n      dup1\n      0x1f\n      add\n      0x20\n      dup1\n      swap2\n      div\n      mul\n      0x20\n      add\n      mload(0x40)\n      swap1\n      dup2\n      add\n      0x40\n      mstore\n      dup1\n      swap3\n      swap2\n      swap1\n      dup2\n      dup2\n      mstore\n      0x20\n      add\n      dup3\n      dup1\n      sload\n      tag_313\n      swap1\n      tag_307\n      jump\t// in\n    tag_313:\n      dup1\n      iszero\n      tag_314\n      jumpi\n      dup1\n      0x1f\n      lt\n      tag_315\n      jumpi\n      0x0100\n      dup1\n      dup4\n      sload\n      div\n      mul\n      dup4\n      mstore\n      swap2\n      0x20\n      add\n      swap2\n      jump(tag_314)\n    tag_315:\n      dup3\n      add\n      swap2\n      swap1\n      0x00\n      mstore\n      keccak256(0x00, 0x20)\n      swap1\n    tag_316:\n      dup2\n      sload\n      dup2\n      mstore\n      swap1\n      0x01\n      add\n      swap1\n      0x20\n      add\n      dup1\n      dup4\n      gt\n      tag_316\n      jumpi\n      dup3\n      swap1\n      sub\n      0x1f\n      and\n      dup3\n      add\n      swap2\n    tag_314:\n      pop\n      pop\n      pop\n      pop\n      pop\n      dup2\n      mstore\n      pop\n      pop\n      dup2\n      mstore\n      0x20\n      add\n      0x07\n      dup3\n      add\n      sload\n      dup2\n      mstore\n      0x20\n      add\n      0x08\n      dup3\n      add\n      dup1\n      sload\n      tag_317\n      swap1\n      tag_307\n      jump\t// in\n    tag_317:\n      dup1\n      0x1f\n      add\n      0x20\n      dup1\n      swap2\n      div\n      mul\n      0x20\n      add\n      mload(0x40)\n      swap1\n      dup2\n      add\n      0x40\n      mstore\n      dup1\n      swap3\n      swap2\n      swap1\n      dup2\n      dup2\n      mstore\n      0x20\n      add\n      dup3\n      dup1\n      sload\n      tag_318\n      swap1\n      tag_307\n      jump\t// in\n    tag_318:\n      dup1\n      iszero\n      tag_319\n      jumpi\n      dup1\n      0x1f\n      lt\n      tag_320\n      jumpi\n      0x0100\n      dup1\n      dup4\n      sload\n      div\n      mul\n      dup4\n      mstore\n      swap2\n      0x20\n      add\n      swap2\n      jump(tag_319)\n    tag_320:\n      dup3\n      add\n      swap2\n      swap1\n      0x00\n      mstore\n      keccak256(0x00, 0x20)\n      swap1\n    tag_321:\n      dup2\n      sload\n      dup2\n      mstore\n      swap1\n      0x01\n      add\n      swap1\n      0x20\n      add\n      dup1\n      dup4\n      gt\n      tag_321\n      jumpi\n      dup3\n      swap1\n      sub\n      0x1f\n      and\n      dup3\n      add\n      swap2\n    tag_319:\n      pop\n      pop\n      pop\n      swap2\n      dup4\n      mstore\n      pop\n      pop\n      0x09\n      dup3\n      add\n      sload\n      0x20\n      swap1\n      swap2\n      add\n      swap1\n      0xff\n      and\n      0x0b\n      dup2\n      gt\n      iszero\n      tag_323\n      jumpi\n      tag_323\n      tag_324\n      jump\t// in\n    tag_323:\n      0x0b\n      dup2\n      gt\n      iszero\n      tag_326\n      jumpi\n      tag_326\n      tag_324\n      jump\t// in\n    tag_326:\n      dup2\n      mstore\n      0x20\n      add\n      0x0a\n      dup3\n      add\n      sload\n      dup2\n      mstore\n      pop\n      pop\n      dup2\n      mstore\n      0x20\n      add\n      swap1\n      0x01\n      add\n      swap1\n      jump(tag_303)\n    tag_304:\n      pop\n      pop\n      pop\n      pop\n      swap1\n      pop\n        /* \"AmphiTrans.sol\":1749:1914  function getFiles(uint256 _index)\r... */\n      swap2\n      swap1\n      pop\n      jump\t// out\n        /* \"AmphiTrans.sol\":1051:1162  function addPay(address _tasker, uint256 _money) external isAccess{\r... */\n    tag_91:\n        /* \"AmphiTrans.sol\":641:654  accessAddress */\n      and(sub(shl(0xa0, 0x01), 0x01), sload(0x06))\n        /* \"AmphiTrans.sol\":627:637  msg.sender */\n      caller\n        /* \"AmphiTrans.sol\":627:654  msg.sender != accessAddress */\n      eq\n        /* \"AmphiTrans.sol\":624:727  if(msg.sender != accessAddress) {\r... */\n      tag_328\n      jumpi\n        /* \"AmphiTrans.sol\":679:715  AccessError(\"Error Access Address!\") */\n      mload(0x40)\n      shl(0xe4, 0x048e2d49)\n      dup2\n      mstore\n        /* \"#utility.yul\":17990:17992   */\n      0x20\n        /* \"AmphiTrans.sol\":679:715  AccessError(\"Error Access Address!\") */\n      0x04\n      dup3\n      add\n        /* \"#utility.yul\":17972:17993   */\n      mstore\n        /* \"#utility.yul\":18029:18031   */\n      0x15\n        /* \"#utility.yul\":18009:18027   */\n      0x24\n      dup3\n      add\n        /* \"#utility.yul\":18002:18032   */\n      mstore\n      shl(0x58, 0x4572726f7220416363657373204164647265737321)\n        /* \"#utility.yul\":18048:18066   */\n      0x44\n      dup3\n      add\n        /* \"#utility.yul\":18041:18092   */\n      mstore\n        /* \"#utility.yul\":18109:18127   */\n      0x64\n      add\n        /* \"AmphiTrans.sol\":679:715  AccessError(\"Error Access Address!\") */\n      tag_287\n        /* \"#utility.yul\":17788:18133   */\n      jump\n        /* \"AmphiTrans.sol\":624:727  if(msg.sender != accessAddress) {\r... */\n    tag_328:\n      sub(shl(0xa0, 0x01), 0x01)\n        /* \"AmphiTrans.sol\":1128:1144  payList[_tasker] */\n      dup3\n      and\n      0x00\n      swap1\n      dup2\n      mstore\n        /* \"AmphiTrans.sol\":1128:1135  payList */\n      0x02\n        /* \"AmphiTrans.sol\":1128:1144  payList[_tasker] */\n      0x20\n      mstore\n      0x40\n      dup2\n      keccak256\n        /* \"AmphiTrans.sol\":1128:1154  payList[_tasker] += _money */\n      dup1\n      sload\n        /* \"AmphiTrans.sol\":1148:1154  _money */\n      dup4\n      swap3\n        /* \"AmphiTrans.sol\":1128:1144  payList[_tasker] */\n      swap1\n        /* \"AmphiTrans.sol\":1128:1154  payList[_tasker] += _money */\n      tag_331\n      swap1\n        /* \"AmphiTrans.sol\":1148:1154  _money */\n      dup5\n      swap1\n        /* \"AmphiTrans.sol\":1128:1154  payList[_tasker] += _money */\n      tag_332\n      jump\t// in\n    tag_331:\n      swap1\n      swap2\n      sstore\n      pop\n      pop\n      pop\n      pop\n        /* \"AmphiTrans.sol\":1051:1162  function addPay(address _tasker, uint256 _money) external isAccess{\r... */\n      jump\t// out\n        /* \"AmphiTrans.sol\":9688:9911  function changeProjectState(uint256 _index, LibProject.ProjectState _state)\r... */\n    tag_95:\n        /* \"AmphiTrans.sol\":641:654  accessAddress */\n      and(sub(shl(0xa0, 0x01), 0x01), sload(0x06))\n        /* \"AmphiTrans.sol\":627:637  msg.sender */\n      caller\n        /* \"AmphiTrans.sol\":627:654  msg.sender != accessAddress */\n      eq\n        /* \"AmphiTrans.sol\":624:727  if(msg.sender != accessAddress) {\r... */\n      tag_334\n      jumpi\n        /* \"AmphiTrans.sol\":679:715  AccessError(\"Error Access Address!\") */\n      mload(0x40)\n      shl(0xe4, 0x048e2d49)\n      dup2\n      mstore\n        /* \"#utility.yul\":17990:17992   */\n      0x20\n        /* \"AmphiTrans.sol\":679:715  AccessError(\"Error Access Address!\") */\n      0x04\n      dup3\n      add\n        /* \"#utility.yul\":17972:17993   */\n      mstore\n        /* \"#utility.yul\":18029:18031   */\n      0x15\n        /* \"#utility.yul\":18009:18027   */\n      0x24\n      dup3\n      add\n        /* \"#utility.yul\":18002:18032   */\n      mstore\n      shl(0x58, 0x4572726f7220416363657373204164647265737321)\n        /* \"#utility.yul\":18048:18066   */\n      0x44\n      dup3\n      add\n        /* \"#utility.yul\":18041:18092   */\n      mstore\n        /* \"#utility.yul\":18109:18127   */\n      0x64\n      add\n        /* \"AmphiTrans.sol\":679:715  AccessError(\"Error Access Address!\") */\n      tag_287\n        /* \"#utility.yul\":17788:18133   */\n      jump\n        /* \"AmphiTrans.sol\":624:727  if(msg.sender != accessAddress) {\r... */\n    tag_334:\n        /* \"AmphiTrans.sol\":9805:9821  taskList[_index] */\n      0x00\n      dup3\n      dup2\n      mstore\n        /* \"AmphiTrans.sol\":9805:9813  taskList */\n      0x01\n        /* \"AmphiTrans.sol\":9805:9821  taskList[_index] */\n      0x20\n      mstore\n      0x40\n      swap1\n      keccak256\n        /* \"AmphiTrans.sol\":9805:9827  taskList[_index].state */\n      0x13\n      add\n        /* \"AmphiTrans.sol\":9805:9836  taskList[_index].state = _state */\n      dup1\n      sload\n        /* \"AmphiTrans.sol\":9830:9836  _state */\n      dup3\n      swap2\n        /* \"AmphiTrans.sol\":9805:9827  taskList[_index].state */\n      swap1\n        /* \"AmphiTrans.sol\":9805:9836  taskList[_index].state = _state */\n      0xffffffffffffffffffffffffffffffffffffffffffffffffffffffffff00ffff\n      and\n      0x010000\n        /* \"AmphiTrans.sol\":9830:9836  _state */\n      dup4\n        /* \"AmphiTrans.sol\":9805:9836  taskList[_index].state = _state */\n      0x07\n      dup2\n      gt\n      iszero\n      tag_338\n      jumpi\n      tag_338\n      tag_324\n      jump\t// in\n    tag_338:\n      mul\n      or\n      swap1\n      sstore\n      pop\n        /* \"AmphiTrans.sol\":9688:9911  function changeProjectState(uint256 _index, LibProject.ProjectState _state)\r... */\n      pop\n      pop\n      jump\t// out\n        /* \"AmphiTrans.sol\":2271:2475  function getAcceptTransNumber(uint256 _index, address _taskerIndex)\r... */\n    tag_98:\n        /* \"AmphiTrans.sol\":2387:2394  uint256 */\n      0x00\n        /* \"AmphiTrans.sol\":2419:2436  transInfo[_index] */\n      dup3\n      dup2\n      mstore\n        /* \"AmphiTrans.sol\":2419:2428  transInfo */\n      0x03\n        /* \"AmphiTrans.sol\":2419:2436  transInfo[_index] */\n      0x20\n      swap1\n      dup2\n      mstore\n      0x40\n      dup1\n      dup4\n      keccak256\n      sub(shl(0xa0, 0x01), 0x01)\n        /* \"AmphiTrans.sol\":2419:2450  transInfo[_index][_taskerIndex] */\n      dup6\n      and\n      dup5\n      mstore\n      swap1\n      swap2\n      mstore\n      swap1\n      keccak256\n        /* \"AmphiTrans.sol\":2419:2467  transInfo[_index][_taskerIndex].taskIndex.length */\n      sload\n        /* \"AmphiTrans.sol\":2271:2475  function getAcceptTransNumber(uint256 _index, address _taskerIndex)\r... */\n    tag_339:\n      swap3\n      swap2\n      pop\n      pop\n      jump\t// out\n        /* \"AmphiTrans.sol\":8869:9336  function changeTaskTransState(\r... */\n    tag_103:\n        /* \"AmphiTrans.sol\":641:654  accessAddress */\n      and(sub(shl(0xa0, 0x01), 0x01), sload(0x06))\n        /* \"AmphiTrans.sol\":627:637  msg.sender */\n      caller\n        /* \"AmphiTrans.sol\":627:654  msg.sender != accessAddress */\n      eq\n        /* \"AmphiTrans.sol\":624:727  if(msg.sender != accessAddress) {\r... */\n      tag_341\n      jumpi\n        /* \"AmphiTrans.sol\":679:715  AccessError(\"Error Access Address!\") */\n      mload(0x40)\n      shl(0xe4, 0x048e2d49)\n      dup2\n      mstore\n        /* \"#utility.yul\":17990:17992   */\n      0x20\n        /* \"AmphiTrans.sol\":679:715  AccessError(\"Error Access Address!\") */\n      0x04\n      dup3\n      add\n        /* \"#utility.yul\":17972:17993   */\n      mstore\n        /* \"#utility.yul\":18029:18031   */\n      0x15\n        /* \"#utility.yul\":18009:18027   */\n      0x24\n      dup3\n      add\n        /* \"#utility.yul\":18002:18032   */\n      mstore\n      shl(0x58, 0x4572726f7220416363657373204164647265737321)\n        /* \"#utility.yul\":18048:18066   */\n      0x44\n      dup3\n      add\n        /* \"#utility.yul\":18041:18092   */\n      mstore\n        /* \"#utility.yul\":18109:18127   */\n      0x64\n      add\n        /* \"AmphiTrans.sol\":679:715  AccessError(\"Error Access Address!\") */\n      tag_287\n        /* \"#utility.yul\":17788:18133   */\n      jump\n        /* \"AmphiTrans.sol\":624:727  if(msg.sender != accessAddress) {\r... */\n    tag_341:\n        /* \"AmphiTrans.sol\":9057:9074  transInfo[_index] */\n      0x00\n      dup5\n      dup2\n      mstore\n        /* \"AmphiTrans.sol\":9057:9066  transInfo */\n      0x03\n        /* \"AmphiTrans.sol\":9057:9074  transInfo[_index] */\n      0x20\n      swap1\n      dup2\n      mstore\n      0x40\n      dup1\n      dup4\n      keccak256\n      sub(shl(0xa0, 0x01), 0x01)\n        /* \"AmphiTrans.sol\":9057:9088  transInfo[_index][_taskerIndex] */\n      dup8\n      and\n      dup5\n      mstore\n      dup3\n      mstore\n      dup1\n      dup4\n      keccak256\n        /* \"AmphiTrans.sol\":9057:9105  transInfo[_index][_taskerIndex].info[_fileIndex] */\n      dup6\n      dup5\n      mstore\n        /* \"AmphiTrans.sol\":9057:9093  transInfo[_index][_taskerIndex].info */\n      0x02\n      add\n        /* \"AmphiTrans.sol\":9057:9105  transInfo[_index][_taskerIndex].info[_fileIndex] */\n      swap1\n      swap2\n      mstore\n      swap1\n      keccak256\n        /* \"AmphiTrans.sol\":9057:9120  transInfo[_index][_taskerIndex].info[_fileIndex].state = _state */\n      dup1\n      sload\n        /* \"AmphiTrans.sol\":9114:9120  _state */\n      dup3\n      swap2\n        /* \"AmphiTrans.sol\":9057:9105  transInfo[_index][_taskerIndex].info[_fileIndex] */\n      swap1\n      not(0xff)\n        /* \"AmphiTrans.sol\":9057:9120  transInfo[_index][_taskerIndex].info[_fileIndex].state = _state */\n      and\n      0x01\n        /* \"AmphiTrans.sol\":9114:9120  _state */\n      dup4\n        /* \"AmphiTrans.sol\":9057:9120  transInfo[_index][_taskerIndex].info[_fileIndex].state = _state */\n      0x04\n      dup2\n      gt\n      iszero\n      tag_345\n      jumpi\n      tag_345\n      tag_324\n      jump\t// in\n    tag_345:\n      mul\n      or\n      swap1\n      sstore\n      pop\n        /* \"AmphiTrans.sol\":8869:9336  function changeTaskTransState(\r... */\n      pop\n      pop\n      pop\n      pop\n      jump\t// out\n        /* \"AmphiTrans.sol\":13134:14295  function updateProject(uint256 _index, LibProject.ProParm memory _t)\r... */\n    tag_107:\n        /* \"AmphiTrans.sol\":641:654  accessAddress */\n      and(sub(shl(0xa0, 0x01), 0x01), sload(0x06))\n        /* \"AmphiTrans.sol\":627:637  msg.sender */\n      caller\n        /* \"AmphiTrans.sol\":627:654  msg.sender != accessAddress */\n      eq\n        /* \"AmphiTrans.sol\":624:727  if(msg.sender != accessAddress) {\r... */\n      tag_347\n      jumpi\n        /* \"AmphiTrans.sol\":679:715  AccessError(\"Error Access Address!\") */\n      mload(0x40)\n      shl(0xe4, 0x048e2d49)\n      dup2\n      mstore\n        /* \"#utility.yul\":17990:17992   */\n      0x20\n        /* \"AmphiTrans.sol\":679:715  AccessError(\"Error Access Address!\") */\n      0x04\n      dup3\n      add\n        /* \"#utility.yul\":17972:17993   */\n      mstore\n        /* \"#utility.yul\":18029:18031   */\n      0x15\n        /* \"#utility.yul\":18009:18027   */\n      0x24\n      dup3\n      add\n        /* \"#utility.yul\":18002:18032   */\n      mstore\n      shl(0x58, 0x4572726f7220416363657373204164647265737321)\n        /* \"#utility.yul\":18048:18066   */\n      0x44\n      dup3\n      add\n        /* \"#utility.yul\":18041:18092   */\n      mstore\n        /* \"#utility.yul\":18109:18127   */\n      0x64\n      add\n        /* \"AmphiTrans.sol\":679:715  AccessError(\"Error Access Address!\") */\n      tag_287\n        /* \"#utility.yul\":17788:18133   */\n      jump\n        /* \"AmphiTrans.sol\":624:727  if(msg.sender != accessAddress) {\r... */\n    tag_347:\n        /* \"AmphiTrans.sol\":13244:13282  LibProject.TranslationPro storage _pro */\n      0x00\n        /* \"AmphiTrans.sol\":13285:13301  taskList[_index] */\n      dup3\n      dup2\n      mstore\n        /* \"AmphiTrans.sol\":13285:13293  taskList */\n      0x01\n        /* \"AmphiTrans.sol\":13285:13301  taskList[_index] */\n      0x20\n      dup2\n      dup2\n      mstore\n      0x40\n      swap1\n      swap3\n      keccak256\n        /* \"AmphiTrans.sol\":13331:13345  _t.releaseTime */\n      dup4\n      mload\n        /* \"AmphiTrans.sol\":13312:13328  _pro.releaseTime */\n      swap2\n      dup2\n      add\n        /* \"AmphiTrans.sol\":13312:13345  _pro.releaseTime = _t.releaseTime */\n      swap2\n      swap1\n      swap2\n      sstore\n        /* \"AmphiTrans.sol\":13373:13385  _t.introduce */\n      dup3\n      dup3\n      add\n      mload\n        /* \"AmphiTrans.sol\":13356:13385  _pro.introduce = _t.introduce */\n      dup1\n      mload\n        /* \"AmphiTrans.sol\":13285:13301  taskList[_index] */\n      swap2\n      swap3\n        /* \"AmphiTrans.sol\":13356:13385  _pro.introduce = _t.introduce */\n      tag_350\n      swap3\n        /* \"AmphiTrans.sol\":13356:13370  _pro.introduce */\n      0x02\n      dup6\n      add\n      swap3\n        /* \"AmphiTrans.sol\":13356:13385  _pro.introduce = _t.introduce */\n      swap1\n      swap2\n      add\n      swap1\n      tag_301\n      jump\t// in\n    tag_350:\n      pop\n        /* \"AmphiTrans.sol\":13408:13415  _t.need */\n      0x40\n      dup3\n      add\n      mload\n        /* \"AmphiTrans.sol\":13396:13415  _pro.need = _t.need */\n      dup1\n      mload\n      tag_351\n      swap2\n        /* \"AmphiTrans.sol\":13396:13405  _pro.need */\n      0x03\n      dup5\n      add\n      swap2\n        /* \"AmphiTrans.sol\":13396:13415  _pro.need = _t.need */\n      0x20\n      swap1\n      swap2\n      add\n      swap1\n      tag_301\n      jump\t// in\n    tag_351:\n      pop\n        /* \"AmphiTrans.sol\":13442:13453  _t.deadline */\n      0x60\n      dup3\n      add\n      mload\n        /* \"AmphiTrans.sol\":13426:13439  _pro.deadline */\n      0x04\n      dup3\n      add\n        /* \"AmphiTrans.sol\":13426:13453  _pro.deadline = _t.deadline */\n      sstore\n        /* \"AmphiTrans.sol\":13486:13503  _t.sourceLanguage */\n      0x80\n      dup3\n      add\n      mload\n        /* \"AmphiTrans.sol\":13464:13483  _pro.sourceLanguage */\n      0x05\n      dup3\n      add\n        /* \"AmphiTrans.sol\":13464:13503  _pro.sourceLanguage = _t.sourceLanguage */\n      sstore\n        /* \"AmphiTrans.sol\":13534:13549  _t.goalLanguage */\n      0xa0\n      dup3\n      add\n      mload\n        /* \"AmphiTrans.sol\":13514:13531  _pro.goalLanguage */\n      0x06\n      dup3\n      add\n        /* \"AmphiTrans.sol\":13514:13549  _pro.goalLanguage = _t.goalLanguage */\n      sstore\n        /* \"AmphiTrans.sol\":13578:13591  _t.preferList */\n      0xc0\n      dup3\n      add\n      mload\n        /* \"AmphiTrans.sol\":13560:13591  _pro.preferList = _t.preferList */\n      dup1\n      mload\n      tag_352\n      swap2\n        /* \"AmphiTrans.sol\":13560:13575  _pro.preferList */\n      0x07\n      dup5\n      add\n      swap2\n        /* \"AmphiTrans.sol\":13560:13591  _pro.preferList = _t.preferList */\n      0x20\n      swap1\n      swap2\n      add\n      swap1\n      tag_353\n      jump\t// in\n    tag_352:\n      pop\n        /* \"AmphiTrans.sol\":13625:13643  _t.translationType */\n      0xe0\n      dup3\n      add\n      mload\n        /* \"AmphiTrans.sol\":13602:13622  _pro.translationType */\n      0x08\n      dup3\n      add\n        /* \"AmphiTrans.sol\":13602:13643  _pro.translationType = _t.translationType */\n      sstore\n        /* \"AmphiTrans.sol\":13670:13681  _t.workLoad */\n      0x0100\n      dup1\n      dup4\n      add\n      mload\n        /* \"AmphiTrans.sol\":13654:13667  _pro.workLoad */\n      0x09\n      dup4\n      add\n        /* \"AmphiTrans.sol\":13654:13681  _pro.workLoad = _t.workLoad */\n      sstore\n        /* \"AmphiTrans.sol\":13706:13715  _t.bounty */\n      0x0160\n      dup4\n      add\n      mload\n        /* \"AmphiTrans.sol\":13692:13703  _pro.bounty */\n      0x0b\n      dup4\n      add\n        /* \"AmphiTrans.sol\":13692:13715  _pro.bounty = _t.bounty */\n      sstore\n        /* \"AmphiTrans.sol\":13749:13767  _t.isNonDisclosure */\n      0x0120\n      dup4\n      add\n      mload\n        /* \"AmphiTrans.sol\":13726:13746  _pro.isNonDisclosure */\n      0x0a\n      dup4\n      add\n        /* \"AmphiTrans.sol\":13726:13767  _pro.isNonDisclosure = _t.isNonDisclosure */\n      dup1\n      sload\n        /* \"AmphiTrans.sol\":13797:13811  _t.isCustomize */\n      0x0140\n      dup7\n      add\n      mload\n        /* \"AmphiTrans.sol\":13778:13811  _pro.isCustomize = _t.isCustomize */\n      iszero\n      dup1\n      iszero\n      swap1\n      swap5\n      mul\n      not(0xff00)\n        /* \"AmphiTrans.sol\":13726:13767  _pro.isNonDisclosure = _t.isNonDisclosure */\n      swap4\n      iszero\n      iszero\n        /* \"AmphiTrans.sol\":13778:13811  _pro.isCustomize = _t.isCustomize */\n      swap4\n      swap1\n      swap4\n      and\n      not(0xffff)\n      swap1\n      swap2\n      and\n      or\n      swap2\n      swap1\n      swap2\n      or\n      swap1\n      sstore\n        /* \"AmphiTrans.sol\":13882:14072  if (_t.isCustomize) {\r... */\n      tag_354\n      jumpi\n        /* \"AmphiTrans.sol\":13929:13937  _t.tasks */\n      0x0180\n      dup3\n      add\n      mload\n        /* \"AmphiTrans.sol\":13929:13944  _t.tasks.length */\n      mload\n        /* \"AmphiTrans.sol\":13917:13926  _pro.maxT */\n      0x0f\n      dup3\n      add\n        /* \"AmphiTrans.sol\":13917:13944  _pro.maxT = _t.tasks.length */\n      sstore\n        /* \"AmphiTrans.sol\":13882:14072  if (_t.isCustomize) {\r... */\n      jump(tag_355)\n    tag_354:\n        /* \"AmphiTrans.sol\":14031:14032  1 */\n      0x01\n        /* \"AmphiTrans.sol\":14019:14028  _pro.maxT */\n      0x0f\n      dup3\n      add\n        /* \"AmphiTrans.sol\":14019:14032  _pro.maxT = 1 */\n      sstore\n        /* \"AmphiTrans.sol\":13882:14072  if (_t.isCustomize) {\r... */\n    tag_355:\n        /* \"AmphiTrans.sol\":14082:14100  _pro.isTransActive */\n      0x13\n      dup2\n      add\n        /* \"AmphiTrans.sol\":14082:14107  _pro.isTransActive = true */\n      dup1\n      sload\n      not(0xff)\n      and\n        /* \"AmphiTrans.sol\":14103:14107  true */\n      0x01\n        /* \"AmphiTrans.sol\":14082:14107  _pro.isTransActive = true */\n      or\n      swap1\n      sstore\n        /* \"AmphiTrans.sol\":14082:14100  _pro.isTransActive */\n      0x00\n        /* \"AmphiTrans.sol\":14178:14279  for (uint256 i = 0; i < _t.tasks.length; i++) {\r... */\n    tag_356:\n        /* \"AmphiTrans.sol\":14202:14204  _t */\n      dup3\n        /* \"AmphiTrans.sol\":14202:14210  _t.tasks */\n      0x0180\n      add\n      mload\n        /* \"AmphiTrans.sol\":14202:14217  _t.tasks.length */\n      mload\n        /* \"AmphiTrans.sol\":14198:14199  i */\n      dup2\n        /* \"AmphiTrans.sol\":14198:14217  i < _t.tasks.length */\n      lt\n        /* \"AmphiTrans.sol\":14178:14279  for (uint256 i = 0; i < _t.tasks.length; i++) {\r... */\n      iszero\n      tag_357\n      jumpi\n        /* \"AmphiTrans.sol\":14239:14243  _pro */\n      dup2\n        /* \"AmphiTrans.sol\":14239:14249  _pro.tasks */\n      0x0c\n      add\n        /* \"AmphiTrans.sol\":14255:14257  _t */\n      dup4\n        /* \"AmphiTrans.sol\":14255:14263  _t.tasks */\n      0x0180\n      add\n      mload\n        /* \"AmphiTrans.sol\":14264:14265  i */\n      dup3\n        /* \"AmphiTrans.sol\":14255:14266  _t.tasks[i] */\n      dup2\n      mload\n      dup2\n      lt\n      tag_360\n      jumpi\n      tag_360\n      tag_298\n      jump\t// in\n    tag_360:\n      0x20\n      swap1\n      dup2\n      mul\n      swap2\n      swap1\n      swap2\n      add\n      dup2\n      add\n      mload\n        /* \"AmphiTrans.sol\":14239:14267  _pro.tasks.push(_t.tasks[i]) */\n      dup3\n      sload\n      0x01\n      dup2\n      add\n      dup5\n      sstore\n      0x00\n      swap4\n      dup5\n      mstore\n      swap3\n      dup3\n      swap1\n      keccak256\n      dup2\n      mload\n      dup1\n      mload\n      dup1\n      mload\n        /* \"AmphiTrans.sol\":14255:14266  _t.tasks[i] */\n      swap4\n      swap6\n        /* \"AmphiTrans.sol\":14239:14267  _pro.tasks.push(_t.tasks[i]) */\n      0x0b\n      mul\n      swap1\n      swap3\n      add\n      swap4\n      swap1\n      swap3\n      dup5\n      swap3\n      tag_362\n      swap3\n      dup5\n      swap3\n      swap2\n      add\n      swap1\n      tag_301\n      jump\t// in\n    tag_362:\n      pop\n      0x20\n      dup3\n      dup2\n      add\n      mload\n      0x01\n      dup4\n      add\n      sstore\n      0x40\n      dup4\n      add\n      mload\n      0x02\n      dup4\n      add\n      sstore\n      0x60\n      dup4\n      add\n      mload\n      0x03\n      dup4\n      add\n      sstore\n      0x80\n      dup4\n      add\n      mload\n      0x04\n      dup4\n      add\n      sstore\n      0xa0\n      dup4\n      add\n      mload\n      0x05\n      dup4\n      add\n      sstore\n      0xc0\n      dup4\n      add\n      mload\n      dup1\n      mload\n      tag_363\n      swap3\n      0x06\n      dup6\n      add\n      swap3\n      add\n      swap1\n      tag_301\n      jump\t// in\n    tag_363:\n      pop\n      pop\n      pop\n      0x20\n      dup3\n      dup2\n      add\n      mload\n      0x07\n      dup4\n      add\n      sstore\n      0x40\n      dup4\n      add\n      mload\n      dup1\n      mload\n      tag_364\n      swap3\n      0x08\n      dup6\n      add\n      swap3\n      add\n      swap1\n      tag_301\n      jump\t// in\n    tag_364:\n      pop\n      0x60\n      dup3\n      add\n      mload\n      0x09\n      dup3\n      add\n      dup1\n      sload\n      not(0xff)\n      and\n      0x01\n      dup4\n      0x0b\n      dup2\n      gt\n      iszero\n      tag_366\n      jumpi\n      tag_366\n      tag_324\n      jump\t// in\n    tag_366:\n      mul\n      or\n      swap1\n      sstore\n      pop\n      0x80\n      dup3\n      add\n      mload\n      dup2\n      0x0a\n      add\n      sstore\n      pop\n      pop\n        /* \"AmphiTrans.sol\":14219:14222  i++ */\n      dup1\n      dup1\n      tag_367\n      swap1\n      tag_291\n      jump\t// in\n    tag_367:\n      swap2\n      pop\n      pop\n        /* \"AmphiTrans.sol\":14178:14279  for (uint256 i = 0; i < _t.tasks.length; i++) {\r... */\n      jump(tag_356)\n    tag_357:\n      pop\n        /* \"AmphiTrans.sol\":13233:14295  {\r... */\n      pop\n        /* \"AmphiTrans.sol\":13134:14295  function updateProject(uint256 _index, LibProject.ProParm memory _t)\r... */\n      pop\n      pop\n      jump\t// out\n        /* \"AmphiTrans.sol\":9370:9654  function changeFileState(\r... */\n    tag_111:\n        /* \"AmphiTrans.sol\":641:654  accessAddress */\n      and(sub(shl(0xa0, 0x01), 0x01), sload(0x06))\n        /* \"AmphiTrans.sol\":627:637  msg.sender */\n      caller\n        /* \"AmphiTrans.sol\":627:654  msg.sender != accessAddress */\n      eq\n        /* \"AmphiTrans.sol\":624:727  if(msg.sender != accessAddress) {\r... */\n      tag_369\n      jumpi\n        /* \"AmphiTrans.sol\":679:715  AccessError(\"Error Access Address!\") */\n      mload(0x40)\n      shl(0xe4, 0x048e2d49)\n      dup2\n      mstore\n        /* \"#utility.yul\":17990:17992   */\n      0x20\n        /* \"AmphiTrans.sol\":679:715  AccessError(\"Error Access Address!\") */\n      0x04\n      dup3\n      add\n        /* \"#utility.yul\":17972:17993   */\n      mstore\n        /* \"#utility.yul\":18029:18031   */\n      0x15\n        /* \"#utility.yul\":18009:18027   */\n      0x24\n      dup3\n      add\n        /* \"#utility.yul\":18002:18032   */\n      mstore\n      shl(0x58, 0x4572726f7220416363657373204164647265737321)\n        /* \"#utility.yul\":18048:18066   */\n      0x44\n      dup3\n      add\n        /* \"#utility.yul\":18041:18092   */\n      mstore\n        /* \"#utility.yul\":18109:18127   */\n      0x64\n      add\n        /* \"AmphiTrans.sol\":679:715  AccessError(\"Error Access Address!\") */\n      tag_287\n        /* \"#utility.yul\":17788:18133   */\n      jump\n        /* \"AmphiTrans.sol\":624:727  if(msg.sender != accessAddress) {\r... */\n    tag_369:\n        /* \"AmphiTrans.sol\":9521:9537  taskList[_index] */\n      0x00\n      dup4\n      dup2\n      mstore\n        /* \"AmphiTrans.sol\":9521:9529  taskList */\n      0x01\n        /* \"AmphiTrans.sol\":9521:9537  taskList[_index] */\n      0x20\n      mstore\n      0x40\n      swap1\n      keccak256\n        /* \"AmphiTrans.sol\":9521:9543  taskList[_index].tasks */\n      0x0c\n      add\n        /* \"AmphiTrans.sol\":9521:9555  taskList[_index].tasks[_fileIndex] */\n      dup1\n      sload\n        /* \"AmphiTrans.sol\":9564:9570  _state */\n      dup3\n      swap2\n        /* \"AmphiTrans.sol\":9521:9543  taskList[_index].tasks */\n      swap1\n        /* \"AmphiTrans.sol\":9544:9554  _fileIndex */\n      dup5\n      swap1\n        /* \"AmphiTrans.sol\":9521:9555  taskList[_index].tasks[_fileIndex] */\n      dup2\n      lt\n      tag_373\n      jumpi\n      tag_373\n      tag_298\n      jump\t// in\n    tag_373:\n      swap1\n      0x00\n      mstore\n      keccak256(0x00, 0x20)\n      swap1\n      0x0b\n      mul\n      add\n        /* \"AmphiTrans.sol\":9521:9561  taskList[_index].tasks[_fileIndex].state */\n      0x09\n      add\n      0x00\n        /* \"AmphiTrans.sol\":9521:9570  taskList[_index].tasks[_fileIndex].state = _state */\n      0x0100\n      exp\n      dup2\n      sload\n      dup2\n      0xff\n      mul\n      not\n      and\n      swap1\n      dup4\n      0x0b\n      dup2\n      gt\n      iszero\n      tag_376\n      jumpi\n      tag_376\n      tag_324\n      jump\t// in\n    tag_376:\n      mul\n      or\n      swap1\n      sstore\n      pop\n        /* \"AmphiTrans.sol\":9370:9654  function changeFileState(\r... */\n      pop\n      pop\n      pop\n      jump\t// out\n        /* \"AmphiTrans.sol\":6601:6771  function getProjectOne(uint256 _index)\r... */\n    tag_118:\n        /* \"AmphiTrans.sol\":6690:6722  LibProject.TranslationPro memory */\n      tag_378\n      tag_379\n      jump\t// in\n    tag_378:\n        /* \"AmphiTrans.sol\":6747:6763  taskList[_index] */\n      0x00\n      dup3\n      dup2\n      mstore\n        /* \"AmphiTrans.sol\":6747:6755  taskList */\n      0x01\n        /* \"AmphiTrans.sol\":6747:6763  taskList[_index] */\n      0x20\n      dup2\n      dup2\n      mstore\n      0x40\n      swap3\n      dup4\n      swap1\n      keccak256\n        /* \"AmphiTrans.sol\":6740:6763  return taskList[_index] */\n      dup4\n      mload\n      0x02e0\n      dup2\n      add\n      dup6\n      mstore\n      dup2\n      sload\n      sub(shl(0xa0, 0x01), 0x01)\n      and\n      dup2\n      mstore\n      swap3\n      dup2\n      add\n      sload\n      swap2\n      dup4\n      add\n      swap2\n      swap1\n      swap2\n      mstore\n      0x02\n      dup2\n      add\n      dup1\n      sload\n      swap3\n      swap4\n        /* \"AmphiTrans.sol\":6747:6763  taskList[_index] */\n      swap2\n      swap3\n        /* \"AmphiTrans.sol\":6740:6763  return taskList[_index] */\n      swap2\n      dup5\n      add\n      swap2\n      tag_381\n      swap1\n      tag_307\n      jump\t// in\n    tag_381:\n      dup1\n      0x1f\n      add\n      0x20\n      dup1\n      swap2\n      div\n      mul\n      0x20\n      add\n      mload(0x40)\n      swap1\n      dup2\n      add\n      0x40\n      mstore\n      dup1\n      swap3\n      swap2\n      swap1\n      dup2\n      dup2\n      mstore\n      0x20\n      add\n      dup3\n      dup1\n      sload\n      tag_382\n      swap1\n      tag_307\n      jump\t// in\n    tag_382:\n      dup1\n      iszero\n      tag_383\n      jumpi\n      dup1\n      0x1f\n      lt\n      tag_384\n      jumpi\n      0x0100\n      dup1\n      dup4\n      sload\n      div\n      mul\n      dup4\n      mstore\n      swap2\n      0x20\n      add\n      swap2\n      jump(tag_383)\n    tag_384:\n      dup3\n      add\n      swap2\n      swap1\n      0x00\n      mstore\n      keccak256(0x00, 0x20)\n      swap1\n    tag_385:\n      dup2\n      sload\n      dup2\n      mstore\n      swap1\n      0x01\n      add\n      swap1\n      0x20\n      add\n      dup1\n      dup4\n      gt\n      tag_385\n      jumpi\n      dup3\n      swap1\n      sub\n      0x1f\n      and\n      dup3\n      add\n      swap2\n    tag_383:\n      pop\n      pop\n      pop\n      pop\n      pop\n      dup2\n      mstore\n      0x20\n      add\n      0x03\n      dup3\n      add\n      dup1\n      sload\n      tag_386\n      swap1\n      tag_307\n      jump\t// in\n    tag_386:\n      dup1\n      0x1f\n      add\n      0x20\n      dup1\n      swap2\n      div\n      mul\n      0x20\n      add\n      mload(0x40)\n      swap1\n      dup2\n      add\n      0x40\n      mstore\n      dup1\n      swap3\n      swap2\n      swap1\n      dup2\n      dup2\n      mstore\n      0x20\n      add\n      dup3\n      dup1\n      sload\n      tag_387\n      swap1\n      tag_307\n      jump\t// in\n    tag_387:\n      dup1\n      iszero\n      tag_388\n      jumpi\n      dup1\n      0x1f\n      lt\n      tag_389\n      jumpi\n      0x0100\n      dup1\n      dup4\n      sload\n      div\n      mul\n      dup4\n      mstore\n      swap2\n      0x20\n      add\n      swap2\n      jump(tag_388)\n    tag_389:\n      dup3\n      add\n      swap2\n      swap1\n      0x00\n      mstore\n      keccak256(0x00, 0x20)\n      swap1\n    tag_390:\n      dup2\n      sload\n      dup2\n      mstore\n      swap1\n      0x01\n      add\n      swap1\n      0x20\n      add\n      dup1\n      dup4\n      gt\n      tag_390\n      jumpi\n      dup3\n      swap1\n      sub\n      0x1f\n      and\n      dup3\n      add\n      swap2\n    tag_388:\n      pop\n      pop\n      pop\n      pop\n      pop\n      dup2\n      mstore\n      0x20\n      add\n      0x04\n      dup3\n      add\n      sload\n      dup2\n      mstore\n      0x20\n      add\n      0x05\n      dup3\n      add\n      sload\n      dup2\n      mstore\n      0x20\n      add\n      0x06\n      dup3\n      add\n      sload\n      dup2\n      mstore\n      0x20\n      add\n      0x07\n      dup3\n      add\n      dup1\n      sload\n      dup1\n      0x20\n      mul\n      0x20\n      add\n      mload(0x40)\n      swap1\n      dup2\n      add\n      0x40\n      mstore\n      dup1\n      swap3\n      swap2\n      swap1\n      dup2\n      dup2\n      mstore\n      0x20\n      add\n      dup3\n      dup1\n      sload\n      dup1\n      iszero\n      tag_391\n      jumpi\n      0x20\n      mul\n      dup3\n      add\n      swap2\n      swap1\n      0x00\n      mstore\n      keccak256(0x00, 0x20)\n      swap1\n    tag_392:\n      dup2\n      sload\n      dup2\n      mstore\n      0x20\n      add\n      swap1\n      0x01\n      add\n      swap1\n      dup1\n      dup4\n      gt\n      tag_392\n      jumpi\n    tag_391:\n      pop\n      pop\n      pop\n      swap2\n      dup4\n      mstore\n      pop\n      pop\n      0x08\n      dup3\n      add\n      sload\n      0x20\n      dup1\n      dup4\n      add\n      swap2\n      swap1\n      swap2\n      mstore\n      0x09\n      dup4\n      add\n      sload\n      0x40\n      dup1\n      dup5\n      add\n      swap2\n      swap1\n      swap2\n      mstore\n      0x0a\n      dup5\n      add\n      sload\n      0xff\n      dup1\n      dup3\n      and\n      iszero\n      iszero\n      0x60\n      dup7\n      add\n      mstore\n      0x0100\n      swap1\n      swap2\n      div\n      and\n      iszero\n      iszero\n      0x80\n      dup5\n      add\n      mstore\n      0x0b\n      dup5\n      add\n      sload\n      0xa0\n      dup5\n      add\n      mstore\n      0x0c\n      dup5\n      add\n      dup1\n      sload\n      dup3\n      mload\n      dup2\n      dup6\n      mul\n      dup2\n      add\n      dup6\n      add\n      swap1\n      swap4\n      mstore\n      dup1\n      dup4\n      mstore\n      0xc0\n      swap1\n      swap5\n      add\n      swap4\n      swap2\n      swap3\n      swap1\n      swap2\n      swap1\n      0x00\n      swap1\n      dup5\n      add\n    tag_393:\n      dup3\n      dup3\n      lt\n      iszero\n      tag_394\n      jumpi\n      0x00\n      dup5\n      dup2\n      mstore\n      0x20\n      swap1\n      keccak256\n      0x40\n      dup1\n      mload\n      0x0180\n      dup2\n      add\n      swap1\n      swap2\n      mstore\n      0x0b\n      dup5\n      mul\n      swap1\n      swap2\n      add\n      dup1\n      sload\n      dup3\n      swap1\n      0xa0\n      dup3\n      add\n      swap1\n      dup4\n      swap1\n      dup3\n      swap1\n      dup3\n      swap1\n      tag_396\n      swap1\n      tag_307\n      jump\t// in\n    tag_396:\n      dup1\n      0x1f\n      add\n      0x20\n      dup1\n      swap2\n      div\n      mul\n      0x20\n      add\n      mload(0x40)\n      swap1\n      dup2\n      add\n      0x40\n      mstore\n      dup1\n      swap3\n      swap2\n      swap1\n      dup2\n      dup2\n      mstore\n      0x20\n      add\n      dup3\n      dup1\n      sload\n      tag_397\n      swap1\n      tag_307\n      jump\t// in\n    tag_397:\n      dup1\n      iszero\n      tag_398\n      jumpi\n      dup1\n      0x1f\n      lt\n      tag_399\n      jumpi\n      0x0100\n      dup1\n      dup4\n      sload\n      div\n      mul\n      dup4\n      mstore\n      swap2\n      0x20\n      add\n      swap2\n      jump(tag_398)\n    tag_399:\n      dup3\n      add\n      swap2\n      swap1\n      0x00\n      mstore\n      keccak256(0x00, 0x20)\n      swap1\n    tag_400:\n      dup2\n      sload\n      dup2\n      mstore\n      swap1\n      0x01\n      add\n      swap1\n      0x20\n      add\n      dup1\n      dup4\n      gt\n      tag_400\n      jumpi\n      dup3\n      swap1\n      sub\n      0x1f\n      and\n      dup3\n      add\n      swap2\n    tag_398:\n      pop\n      pop\n      pop\n      pop\n      pop\n      dup2\n      mstore\n      0x20\n      add\n      0x01\n      dup3\n      add\n      sload\n      dup2\n      mstore\n      0x20\n      add\n      0x02\n      dup3\n      add\n      sload\n      dup2\n      mstore\n      0x20\n      add\n      0x03\n      dup3\n      add\n      sload\n      dup2\n      mstore\n      0x20\n      add\n      0x04\n      dup3\n      add\n      sload\n      dup2\n      mstore\n      0x20\n      add\n      0x05\n      dup3\n      add\n      sload\n      dup2\n      mstore\n      0x20\n      add\n      0x06\n      dup3\n      add\n      dup1\n      sload\n      tag_401\n      swap1\n      tag_307\n      jump\t// in\n    tag_401:\n      dup1\n      0x1f\n      add\n      0x20\n      dup1\n      swap2\n      div\n      mul\n      0x20\n      add\n      mload(0x40)\n      swap1\n      dup2\n      add\n      0x40\n      mstore\n      dup1\n      swap3\n      swap2\n      swap1\n      dup2\n      dup2\n      mstore\n      0x20\n      add\n      dup3\n      dup1\n      sload\n      tag_402\n      swap1\n      tag_307\n      jump\t// in\n    tag_402:\n      dup1\n      iszero\n      tag_403\n      jumpi\n      dup1\n      0x1f\n      lt\n      tag_404\n      jumpi\n      0x0100\n      dup1\n      dup4\n      sload\n      div\n      mul\n      dup4\n      mstore\n      swap2\n      0x20\n      add\n      swap2\n      jump(tag_403)\n    tag_404:\n      dup3\n      add\n      swap2\n      swap1\n      0x00\n      mstore\n      keccak256(0x00, 0x20)\n      swap1\n    tag_405:\n      dup2\n      sload\n      dup2\n      mstore\n      swap1\n      0x01\n      add\n      swap1\n      0x20\n      add\n      dup1\n      dup4\n      gt\n      tag_405\n      jumpi\n      dup3\n      swap1\n      sub\n      0x1f\n      and\n      dup3\n      add\n      swap2\n    tag_403:\n      pop\n      pop\n      pop\n      pop\n      pop\n      dup2\n      mstore\n      pop\n      pop\n      dup2\n      mstore\n      0x20\n      add\n      0x07\n      dup3\n      add\n      sload\n      dup2\n      mstore\n      0x20\n      add\n      0x08\n      dup3\n      add\n      dup1\n      sload\n      tag_406\n      swap1\n      tag_307\n      jump\t// in\n    tag_406:\n      dup1\n      0x1f\n      add\n      0x20\n      dup1\n      swap2\n      div\n      mul\n      0x20\n      add\n      mload(0x40)\n      swap1\n      dup2\n      add\n      0x40\n      mstore\n      dup1\n      swap3\n      swap2\n      swap1\n      dup2\n      dup2\n      mstore\n      0x20\n      add\n      dup3\n      dup1\n      sload\n      tag_407\n      swap1\n      tag_307\n      jump\t// in\n    tag_407:\n      dup1\n      iszero\n      tag_408\n      jumpi\n      dup1\n      0x1f\n      lt\n      tag_409\n      jumpi\n      0x0100\n      dup1\n      dup4\n      sload\n      div\n      mul\n      dup4\n      mstore\n      swap2\n      0x20\n      add\n      swap2\n      jump(tag_408)\n    tag_409:\n      dup3\n      add\n      swap2\n      swap1\n      0x00\n      mstore\n      keccak256(0x00, 0x20)\n      swap1\n    tag_410:\n      dup2\n      sload\n      dup2\n      mstore\n      swap1\n      0x01\n      add\n      swap1\n      0x20\n      add\n      dup1\n      dup4\n      gt\n      tag_410\n      jumpi\n      dup3\n      swap1\n      sub\n      0x1f\n      and\n      dup3\n      add\n      swap2\n    tag_408:\n      pop\n      pop\n      pop\n      swap2\n      dup4\n      mstore\n      pop\n      pop\n      0x09\n      dup3\n      add\n      sload\n      0x20\n      swap1\n      swap2\n      add\n      swap1\n      0xff\n      and\n      0x0b\n      dup2\n      gt\n      iszero\n      tag_412\n      jumpi\n      tag_412\n      tag_324\n      jump\t// in\n    tag_412:\n      0x0b\n      dup2\n      gt\n      iszero\n      tag_414\n      jumpi\n      tag_414\n      tag_324\n      jump\t// in\n    tag_414:\n      dup2\n      mstore\n      0x20\n      add\n      0x0a\n      dup3\n      add\n      sload\n      dup2\n      mstore\n      pop\n      pop\n      dup2\n      mstore\n      0x20\n      add\n      swap1\n      0x01\n      add\n      swap1\n      jump(tag_393)\n    tag_394:\n      pop\n      pop\n      pop\n      pop\n      dup2\n      mstore\n      0x20\n      add\n      0x0d\n      dup3\n      add\n      dup1\n      sload\n      dup1\n      0x20\n      mul\n      0x20\n      add\n      mload(0x40)\n      swap1\n      dup2\n      add\n      0x40\n      mstore\n      dup1\n      swap3\n      swap2\n      swap1\n      dup2\n      dup2\n      mstore\n      0x20\n      add\n      dup3\n      dup1\n      sload\n      dup1\n      iszero\n      tag_415\n      jumpi\n      0x20\n      mul\n      dup3\n      add\n      swap2\n      swap1\n      0x00\n      mstore\n      keccak256(0x00, 0x20)\n      swap1\n    tag_416:\n      dup2\n      sload\n      sub(shl(0xa0, 0x01), 0x01)\n      and\n      dup2\n      mstore\n      0x01\n      swap1\n      swap2\n      add\n      swap1\n      0x20\n      add\n      dup1\n      dup4\n      gt\n      tag_416\n      jumpi\n    tag_415:\n      pop\n      pop\n      pop\n      pop\n      pop\n      dup2\n      mstore\n      0x20\n      add\n      0x0e\n      dup3\n      add\n      dup1\n      sload\n      dup1\n      0x20\n      mul\n      0x20\n      add\n      mload(0x40)\n      swap1\n      dup2\n      add\n      0x40\n      mstore\n      dup1\n      swap3\n      swap2\n      swap1\n      dup2\n      dup2\n      mstore\n      0x20\n      add\n      dup3\n      dup1\n      sload\n      dup1\n      iszero\n      tag_417\n      jumpi\n      0x20\n      mul\n      dup3\n      add\n      swap2\n      swap1\n      0x00\n      mstore\n      keccak256(0x00, 0x20)\n      swap1\n    tag_418:\n      dup2\n      sload\n      sub(shl(0xa0, 0x01), 0x01)\n      and\n      dup2\n      mstore\n      0x01\n      swap1\n      swap2\n      add\n      swap1\n      0x20\n      add\n      dup1\n      dup4\n      gt\n      tag_418\n      jumpi\n    tag_417:\n      pop\n      pop\n      pop\n      swap2\n      dup4\n      mstore\n      pop\n      pop\n      0x0f\n      dup3\n      add\n      sload\n      0x20\n      dup3\n      add\n      mstore\n      0x10\n      dup3\n      add\n      sload\n      0x40\n      dup3\n      add\n      mstore\n      0x11\n      dup3\n      add\n      sload\n      0x60\n      dup3\n      add\n      mstore\n      0x12\n      dup3\n      add\n      sload\n      0x80\n      dup3\n      add\n      mstore\n      0x13\n      dup3\n      add\n      sload\n      0xff\n      dup1\n      dup3\n      and\n      iszero\n      iszero\n      0xa0\n      dup5\n      add\n      mstore\n      0x0100\n      dup3\n      div\n      dup2\n      and\n      iszero\n      iszero\n      0xc0\n      dup5\n      add\n      mstore\n      0xe0\n      swap1\n      swap3\n      add\n      swap2\n      0x010000\n      swap1\n      swap2\n      div\n      and\n      0x07\n      dup2\n      gt\n      iszero\n      tag_420\n      jumpi\n      tag_420\n      tag_324\n      jump\t// in\n    tag_420:\n      0x07\n      dup2\n      gt\n      iszero\n      tag_422\n      jumpi\n      tag_422\n      tag_324\n      jump\t// in\n    tag_422:\n      swap1\n      mstore\n      pop\n      swap3\n        /* \"AmphiTrans.sol\":6601:6771  function getProjectOne(uint256 _index)\r... */\n      swap2\n      pop\n      pop\n      jump\t// out\n        /* \"AmphiTrans.sol\":10706:10919  function pushTaskTransIndex(\r... */\n    tag_124:\n        /* \"AmphiTrans.sol\":641:654  accessAddress */\n      and(sub(shl(0xa0, 0x01), 0x01), sload(0x06))\n        /* \"AmphiTrans.sol\":627:637  msg.sender */\n      caller\n        /* \"AmphiTrans.sol\":627:654  msg.sender != accessAddress */\n      eq\n        /* \"AmphiTrans.sol\":624:727  if(msg.sender != accessAddress) {\r... */\n      tag_424\n      jumpi\n        /* \"AmphiTrans.sol\":679:715  AccessError(\"Error Access Address!\") */\n      mload(0x40)\n      shl(0xe4, 0x048e2d49)\n      dup2\n      mstore\n        /* \"#utility.yul\":17990:17992   */\n      0x20\n        /* \"AmphiTrans.sol\":679:715  AccessError(\"Error Access Address!\") */\n      0x04\n      dup3\n      add\n        /* \"#utility.yul\":17972:17993   */\n      mstore\n        /* \"#utility.yul\":18029:18031   */\n      0x15\n        /* \"#utility.yul\":18009:18027   */\n      0x24\n      dup3\n      add\n        /* \"#utility.yul\":18002:18032   */\n      mstore\n      shl(0x58, 0x4572726f7220416363657373204164647265737321)\n        /* \"#utility.yul\":18048:18066   */\n      0x44\n      dup3\n      add\n        /* \"#utility.yul\":18041:18092   */\n      mstore\n        /* \"#utility.yul\":18109:18127   */\n      0x64\n      add\n        /* \"AmphiTrans.sol\":679:715  AccessError(\"Error Access Address!\") */\n      tag_287\n        /* \"#utility.yul\":17788:18133   */\n      jump\n        /* \"AmphiTrans.sol\":624:727  if(msg.sender != accessAddress) {\r... */\n    tag_424:\n        /* \"AmphiTrans.sol\":10853:10870  transInfo[_index] */\n      0x00\n      swap3\n      dup4\n      mstore\n        /* \"AmphiTrans.sol\":10853:10862  transInfo */\n      0x03\n        /* \"AmphiTrans.sol\":10853:10870  transInfo[_index] */\n      0x20\n      swap1\n      dup2\n      mstore\n      0x40\n      dup1\n      dup6\n      keccak256\n      sub(shl(0xa0, 0x01), 0x01)\n        /* \"AmphiTrans.sol\":10853:10884  transInfo[_index][_taskerIndex] */\n      swap1\n      swap5\n      and\n      dup6\n      mstore\n      swap3\n      dup2\n      mstore\n      swap2\n      dup4\n      keccak256\n        /* \"AmphiTrans.sol\":10853:10911  transInfo[_index][_taskerIndex].taskIndex.push(_fileIndex) */\n      dup1\n      sload\n      0x01\n      dup2\n      add\n      dup3\n      sstore\n      swap1\n      dup5\n      mstore\n      swap2\n      swap1\n      swap3\n      keccak256\n      add\n      sstore\n        /* \"AmphiTrans.sol\":10706:10919  function pushTaskTransIndex(\r... */\n      jump\t// out\n        /* \"AmphiTrans.sol\":11171:11307  function addTranslators(uint256 _index, address _address) public isAccess {\r... */\n    tag_127:\n        /* \"AmphiTrans.sol\":641:654  accessAddress */\n      and(sub(shl(0xa0, 0x01), 0x01), sload(0x06))\n        /* \"AmphiTrans.sol\":627:637  msg.sender */\n      caller\n        /* \"AmphiTrans.sol\":627:654  msg.sender != accessAddress */\n      eq\n        /* \"AmphiTrans.sol\":624:727  if(msg.sender != accessAddress) {\r... */\n      tag_429\n      jumpi\n        /* \"AmphiTrans.sol\":679:715  AccessError(\"Error Access Address!\") */\n      mload(0x40)\n      shl(0xe4, 0x048e2d49)\n      dup2\n      mstore\n        /* \"#utility.yul\":17990:17992   */\n      0x20\n        /* \"AmphiTrans.sol\":679:715  AccessError(\"Error Access Address!\") */\n      0x04\n      dup3\n      add\n        /* \"#utility.yul\":17972:17993   */\n      mstore\n        /* \"#utility.yul\":18029:18031   */\n      0x15\n        /* \"#utility.yul\":18009:18027   */\n      0x24\n      dup3\n      add\n        /* \"#utility.yul\":18002:18032   */\n      mstore\n      shl(0x58, 0x4572726f7220416363657373204164647265737321)\n        /* \"#utility.yul\":18048:18066   */\n      0x44\n      dup3\n      add\n        /* \"#utility.yul\":18041:18092   */\n      mstore\n        /* \"#utility.yul\":18109:18127   */\n      0x64\n      add\n        /* \"AmphiTrans.sol\":679:715  AccessError(\"Error Access Address!\") */\n      tag_287\n        /* \"#utility.yul\":17788:18133   */\n      jump\n        /* \"AmphiTrans.sol\":624:727  if(msg.sender != accessAddress) {\r... */\n    tag_429:\n        /* \"AmphiTrans.sol\":11256:11272  taskList[_index] */\n      0x00\n      swap2\n      dup3\n      mstore\n        /* \"AmphiTrans.sol\":11256:11264  taskList */\n      0x01\n        /* \"AmphiTrans.sol\":11256:11272  taskList[_index] */\n      0x20\n      dup2\n      dup2\n      mstore\n      0x40\n      dup5\n      keccak256\n        /* \"AmphiTrans.sol\":11256:11284  taskList[_index].translators */\n      0x0d\n      add\n        /* \"AmphiTrans.sol\":11256:11299  taskList[_index].translators.push(_address) */\n      dup1\n      sload\n      swap3\n      dup4\n      add\n      dup2\n      sstore\n      dup5\n      mstore\n      swap1\n      swap3\n      keccak256\n      swap1\n      swap2\n      add\n      dup1\n      sload\n      not(0xffffffffffffffffffffffffffffffffffffffff)\n      and\n      sub(shl(0xa0, 0x01), 0x01)\n      swap1\n      swap3\n      and\n      swap2\n      swap1\n      swap2\n      or\n      swap1\n      sstore\n        /* \"AmphiTrans.sol\":11171:11307  function addTranslators(uint256 _index, address _address) public isAccess {\r... */\n      jump\t// out\n        /* \"AmphiTrans.sol\":14303:14778  function submitFileByTrans(\r... */\n    tag_130:\n        /* \"AmphiTrans.sol\":641:654  accessAddress */\n      sload(0x06)\n        /* \"AmphiTrans.sol\":14476:14483  uint256 */\n      0x00\n      swap1\n      sub(shl(0xa0, 0x01), 0x01)\n        /* \"AmphiTrans.sol\":641:654  accessAddress */\n      and\n        /* \"AmphiTrans.sol\":627:637  msg.sender */\n      caller\n        /* \"AmphiTrans.sol\":627:654  msg.sender != accessAddress */\n      eq\n        /* \"AmphiTrans.sol\":624:727  if(msg.sender != accessAddress) {\r... */\n      tag_434\n      jumpi\n        /* \"AmphiTrans.sol\":679:715  AccessError(\"Error Access Address!\") */\n      mload(0x40)\n      shl(0xe4, 0x048e2d49)\n      dup2\n      mstore\n        /* \"#utility.yul\":17990:17992   */\n      0x20\n        /* \"AmphiTrans.sol\":679:715  AccessError(\"Error Access Address!\") */\n      0x04\n      dup3\n      add\n        /* \"#utility.yul\":17972:17993   */\n      mstore\n        /* \"#utility.yul\":18029:18031   */\n      0x15\n        /* \"#utility.yul\":18009:18027   */\n      0x24\n      dup3\n      add\n        /* \"#utility.yul\":18002:18032   */\n      mstore\n      shl(0x58, 0x4572726f7220416363657373204164647265737321)\n        /* \"#utility.yul\":18048:18066   */\n      0x44\n      dup3\n      add\n        /* \"#utility.yul\":18041:18092   */\n      mstore\n        /* \"#utility.yul\":18109:18127   */\n      0x64\n      add\n        /* \"AmphiTrans.sol\":679:715  AccessError(\"Error Access Address!\") */\n      tag_287\n        /* \"#utility.yul\":17788:18133   */\n      jump\n        /* \"AmphiTrans.sol\":624:727  if(msg.sender != accessAddress) {\r... */\n    tag_434:\n        /* \"AmphiTrans.sol\":14495:14508  uint256 _time */\n      0x00\n        /* \"AmphiTrans.sol\":14537:14553  taskList[_index] */\n      dup6\n      dup2\n      mstore\n        /* \"AmphiTrans.sol\":14537:14545  taskList */\n      0x01\n        /* \"AmphiTrans.sol\":14537:14553  taskList[_index] */\n      0x20\n      mstore\n      0x40\n      swap1\n      keccak256\n        /* \"AmphiTrans.sol\":14537:14559  taskList[_index].tasks */\n      0x0c\n      add\n        /* \"AmphiTrans.sol\":14537:14571  taskList[_index].tasks[_fileIndex] */\n      dup1\n      sload\n        /* \"AmphiTrans.sol\":14511:14526  block.timestamp */\n      timestamp\n      swap2\n      dup3\n      swap2\n        /* \"AmphiTrans.sol\":14560:14570  _fileIndex */\n      dup7\n      swap1\n        /* \"AmphiTrans.sol\":14537:14571  taskList[_index].tasks[_fileIndex] */\n      dup2\n      lt\n      tag_438\n      jumpi\n      tag_438\n      tag_298\n      jump\t// in\n    tag_438:\n      0x00\n      swap2\n      dup3\n      mstore\n      0x20\n      dup1\n      dup4\n      keccak256\n        /* \"AmphiTrans.sol\":14537:14582  taskList[_index].tasks[_fileIndex].lastUpload */\n      0x0a\n        /* \"AmphiTrans.sol\":14537:14571  taskList[_index].tasks[_fileIndex] */\n      0x0b\n      swap1\n      swap4\n      mul\n      add\n        /* \"AmphiTrans.sol\":14537:14582  taskList[_index].tasks[_fileIndex].lastUpload */\n      swap2\n      swap1\n      swap2\n      add\n        /* \"AmphiTrans.sol\":14537:14590  taskList[_index].tasks[_fileIndex].lastUpload = _time */\n      swap3\n      swap1\n      swap3\n      sstore\n        /* \"AmphiTrans.sol\":14601:14618  transInfo[_index] */\n      dup8\n      dup2\n      mstore\n        /* \"AmphiTrans.sol\":14601:14610  transInfo */\n      0x03\n        /* \"AmphiTrans.sol\":14601:14618  transInfo[_index] */\n      dup3\n      mstore\n      0x40\n      dup1\n      dup3\n      keccak256\n      sub(shl(0xa0, 0x01), 0x01)\n        /* \"AmphiTrans.sol\":14601:14632  transInfo[_index][_taskerIndex] */\n      dup10\n      and\n      dup4\n      mstore\n      dup4\n      mstore\n      dup1\n      dup3\n      keccak256\n        /* \"AmphiTrans.sol\":14601:14649  transInfo[_index][_taskerIndex].info[_fileIndex] */\n      dup8\n      dup4\n      mstore\n        /* \"AmphiTrans.sol\":14601:14637  transInfo[_index][_taskerIndex].info */\n      0x02\n      add\n        /* \"AmphiTrans.sol\":14601:14649  transInfo[_index][_taskerIndex].info[_fileIndex] */\n      dup4\n      mstore\n      swap1\n      keccak256\n        /* \"AmphiTrans.sol\":14601:14662  transInfo[_index][_taskerIndex].info[_fileIndex].file = _file */\n      dup5\n      mload\n      tag_300\n      swap3\n        /* \"AmphiTrans.sol\":14601:14654  transInfo[_index][_taskerIndex].info[_fileIndex].file */\n      0x01\n      swap1\n      swap3\n      add\n      swap2\n        /* \"AmphiTrans.sol\":14601:14662  transInfo[_index][_taskerIndex].info[_fileIndex].file = _file */\n      dup7\n      add\n      swap1\n      tag_301\n      jump\t// in\n        /* \"AmphiTrans.sol\":10414:10515  function addTransNumber(uint256 _index) public isAccess {\r... */\n    tag_134:\n        /* \"AmphiTrans.sol\":641:654  accessAddress */\n      and(sub(shl(0xa0, 0x01), 0x01), sload(0x06))\n        /* \"AmphiTrans.sol\":627:637  msg.sender */\n      caller\n        /* \"AmphiTrans.sol\":627:654  msg.sender != accessAddress */\n      eq\n        /* \"AmphiTrans.sol\":624:727  if(msg.sender != accessAddress) {\r... */\n      tag_442\n      jumpi\n        /* \"AmphiTrans.sol\":679:715  AccessError(\"Error Access Address!\") */\n      mload(0x40)\n      shl(0xe4, 0x048e2d49)\n      dup2\n      mstore\n        /* \"#utility.yul\":17990:17992   */\n      0x20\n        /* \"AmphiTrans.sol\":679:715  AccessError(\"Error Access Address!\") */\n      0x04\n      dup3\n      add\n        /* \"#utility.yul\":17972:17993   */\n      mstore\n        /* \"#utility.yul\":18029:18031   */\n      0x15\n        /* \"#utility.yul\":18009:18027   */\n      0x24\n      dup3\n      add\n        /* \"#utility.yul\":18002:18032   */\n      mstore\n      shl(0x58, 0x4572726f7220416363657373204164647265737321)\n        /* \"#utility.yul\":18048:18066   */\n      0x44\n      dup3\n      add\n        /* \"#utility.yul\":18041:18092   */\n      mstore\n        /* \"#utility.yul\":18109:18127   */\n      0x64\n      add\n        /* \"AmphiTrans.sol\":679:715  AccessError(\"Error Access Address!\") */\n      tag_287\n        /* \"#utility.yul\":17788:18133   */\n      jump\n        /* \"AmphiTrans.sol\":624:727  if(msg.sender != accessAddress) {\r... */\n    tag_442:\n        /* \"AmphiTrans.sol\":10481:10497  taskList[_index] */\n      0x00\n      dup2\n      dup2\n      mstore\n        /* \"AmphiTrans.sol\":10481:10489  taskList */\n      0x01\n        /* \"AmphiTrans.sol\":10481:10497  taskList[_index] */\n      0x20\n      mstore\n      0x40\n      dup2\n      keccak256\n        /* \"AmphiTrans.sol\":10481:10505  taskList[_index].numberT */\n      0x11\n      add\n        /* \"AmphiTrans.sol\":10481:10507  taskList[_index].numberT++ */\n      dup1\n      sload\n      swap2\n      tag_445\n      dup4\n      tag_291\n      jump\t// in\n    tag_445:\n      swap2\n      swap1\n      pop\n      sstore\n      pop\n        /* \"AmphiTrans.sol\":10414:10515  function addTransNumber(uint256 _index) public isAccess {\r... */\n      pop\n      jump\t// out\n        /* \"AmphiTrans.sol\":1170:1284  function deductPay(address _tasker, uint256 _money) external isAccess{\r... */\n    tag_142:\n        /* \"AmphiTrans.sol\":641:654  accessAddress */\n      and(sub(shl(0xa0, 0x01), 0x01), sload(0x06))\n        /* \"AmphiTrans.sol\":627:637  msg.sender */\n      caller\n        /* \"AmphiTrans.sol\":627:654  msg.sender != accessAddress */\n      eq\n        /* \"AmphiTrans.sol\":624:727  if(msg.sender != accessAddress) {\r... */\n      tag_448\n      jumpi\n        /* \"AmphiTrans.sol\":679:715  AccessError(\"Error Access Address!\") */\n      mload(0x40)\n      shl(0xe4, 0x048e2d49)\n      dup2\n      mstore\n        /* \"#utility.yul\":17990:17992   */\n      0x20\n        /* \"AmphiTrans.sol\":679:715  AccessError(\"Error Access Address!\") */\n      0x04\n      dup3\n      add\n        /* \"#utility.yul\":17972:17993   */\n      mstore\n        /* \"#utility.yul\":18029:18031   */\n      0x15\n        /* \"#utility.yul\":18009:18027   */\n      0x24\n      dup3\n      add\n        /* \"#utility.yul\":18002:18032   */\n      mstore\n      shl(0x58, 0x4572726f7220416363657373204164647265737321)\n        /* \"#utility.yul\":18048:18066   */\n      0x44\n      dup3\n      add\n        /* \"#utility.yul\":18041:18092   */\n      mstore\n        /* \"#utility.yul\":18109:18127   */\n      0x64\n      add\n        /* \"AmphiTrans.sol\":679:715  AccessError(\"Error Access Address!\") */\n      tag_287\n        /* \"#utility.yul\":17788:18133   */\n      jump\n        /* \"AmphiTrans.sol\":624:727  if(msg.sender != accessAddress) {\r... */\n    tag_448:\n      sub(shl(0xa0, 0x01), 0x01)\n        /* \"AmphiTrans.sol\":1250:1266  payList[_tasker] */\n      dup3\n      and\n      0x00\n      swap1\n      dup2\n      mstore\n        /* \"AmphiTrans.sol\":1250:1257  payList */\n      0x02\n        /* \"AmphiTrans.sol\":1250:1266  payList[_tasker] */\n      0x20\n      mstore\n      0x40\n      dup2\n      keccak256\n        /* \"AmphiTrans.sol\":1250:1276  payList[_tasker] -= _money */\n      dup1\n      sload\n        /* \"AmphiTrans.sol\":1270:1276  _money */\n      dup4\n      swap3\n        /* \"AmphiTrans.sol\":1250:1266  payList[_tasker] */\n      swap1\n        /* \"AmphiTrans.sol\":1250:1276  payList[_tasker] -= _money */\n      tag_331\n      swap1\n        /* \"AmphiTrans.sol\":1270:1276  _money */\n      dup5\n      swap1\n        /* \"AmphiTrans.sol\":1250:1276  payList[_tasker] -= _money */\n      tag_452\n      jump\t// in\n        /* \"AmphiTrans.sol\":5609:6593  function getTransTaskInfo(uint256 _index, address _address)\r... */\n    tag_150:\n        /* \"AmphiTrans.sol\":5717:5747  LibProject.ReturnTasker memory */\n      tag_454\n      mload(0x40)\n      dup1\n      0x60\n      add\n      0x40\n      mstore\n      dup1\n      and(sub(shl(0xa0, 0x01), 0x01), 0x00)\n      dup2\n      mstore\n      0x20\n      add\n      0x60\n      dup2\n      mstore\n      0x20\n      add\n      0x60\n      dup2\n      mstore\n      pop\n      swap1\n      jump\n    tag_454:\n        /* \"AmphiTrans.sol\":5765:5807  LibProject.ReturnTasker memory _taskerInfo */\n      tag_457\n      mload(0x40)\n      dup1\n      0x60\n      add\n      0x40\n      mstore\n      dup1\n      and(sub(shl(0xa0, 0x01), 0x01), 0x00)\n      dup2\n      mstore\n      0x20\n      add\n      0x60\n      dup2\n      mstore\n      0x20\n      add\n      0x60\n      dup2\n      mstore\n      pop\n      swap1\n      jump\n    tag_457:\n      sub(shl(0xa0, 0x01), 0x01)\n        /* \"AmphiTrans.sol\":5818:5854  _taskerInfo.taskerAddress = _address */\n      dup4\n      and\n      dup1\n      dup3\n      mstore\n        /* \"AmphiTrans.sol\":5818:5843  _taskerInfo.taskerAddress */\n      0x00\n        /* \"AmphiTrans.sol\":5889:5906  transInfo[_index] */\n      dup6\n      dup2\n      mstore\n        /* \"AmphiTrans.sol\":5889:5898  transInfo */\n      0x03\n        /* \"AmphiTrans.sol\":5889:5906  transInfo[_index] */\n      0x20\n      swap1\n      dup2\n      mstore\n      0x40\n      dup1\n      dup4\n      keccak256\n        /* \"AmphiTrans.sol\":5889:5916  transInfo[_index][_address] */\n      swap4\n      dup4\n      mstore\n      swap3\n      dup2\n      mstore\n      swap1\n      dup3\n      swap1\n      keccak256\n        /* \"AmphiTrans.sol\":5865:5926  _taskerInfo.taskIndex = transInfo[_index][_address].taskIndex */\n      dup1\n      sload\n      dup4\n      mload\n      dup2\n      dup5\n      mul\n      dup2\n      add\n      dup5\n      add\n      swap1\n      swap5\n      mstore\n      dup1\n      dup5\n      mstore\n        /* \"AmphiTrans.sol\":5889:5916  transInfo[_index][_address] */\n      swap1\n      swap2\n        /* \"AmphiTrans.sol\":5865:5926  _taskerInfo.taskIndex = transInfo[_index][_address].taskIndex */\n      dup4\n      add\n        /* \"AmphiTrans.sol\":5889:5916  transInfo[_index][_address] */\n      dup3\n        /* \"AmphiTrans.sol\":5865:5926  _taskerInfo.taskIndex = transInfo[_index][_address].taskIndex */\n      dup3\n      dup1\n      iszero\n      tag_458\n      jumpi\n      0x20\n      mul\n      dup3\n      add\n      swap2\n      swap1\n      0x00\n      mstore\n      keccak256(0x00, 0x20)\n      swap1\n    tag_459:\n      dup2\n      sload\n      dup2\n      mstore\n      0x20\n      add\n      swap1\n      0x01\n      add\n      swap1\n      dup1\n      dup4\n      gt\n      tag_459\n      jumpi\n    tag_458:\n      pop\n      pop\n      pop\n      pop\n        /* \"AmphiTrans.sol\":5865:5886  _taskerInfo.taskIndex */\n      0x20\n      dup4\n      add\n        /* \"AmphiTrans.sol\":5865:5926  _taskerInfo.taskIndex = transInfo[_index][_address].taskIndex */\n      dup3\n      swap1\n      mstore\n      pop\n        /* \"AmphiTrans.sol\":6050:6078  _taskerInfo.taskIndex.length */\n      mload\n        /* \"AmphiTrans.sol\":5937:5998  LibProject.FileIndexInfo[]\r... */\n      0x00\n      swap1\n        /* \"AmphiTrans.sol\":6001:6093  new LibProject.FileIndexInfo[](\r... */\n      0xffffffffffffffff\n      dup2\n      gt\n      iszero\n      tag_461\n      jumpi\n      tag_461\n      tag_462\n      jump\t// in\n    tag_461:\n      mload(0x40)\n      swap1\n      dup1\n      dup3\n      mstore\n      dup1\n      0x20\n      mul\n      0x20\n      add\n      dup3\n      add\n      0x40\n      mstore\n      dup1\n      iszero\n      tag_463\n      jumpi\n      dup2\n      0x20\n      add\n    tag_464:\n      tag_465\n      0x40\n      dup1\n      mload\n      0x60\n      dup2\n      add\n      swap1\n      swap2\n      mstore\n      dup1\n      0x00\n      dup2\n      mstore\n      0x60\n      0x20\n      dup3\n      add\n      mstore\n      0x00\n      0x40\n      swap1\n      swap2\n      add\n      mstore\n      swap1\n      jump\n    tag_465:\n      dup2\n      mstore\n      0x20\n      add\n      swap1\n      0x01\n      swap1\n      sub\n      swap1\n      dup2\n      tag_464\n      jumpi\n      swap1\n      pop\n    tag_463:\n      pop\n        /* \"AmphiTrans.sol\":5937:6093  LibProject.FileIndexInfo[]\r... */\n      swap1\n      pop\n        /* \"AmphiTrans.sol\":6161:6170  uint256 q */\n      0x00\n        /* \"AmphiTrans.sol\":6156:6507  for (uint256 q = 0; q < _taskerInfo.taskIndex.length; q++) {\r... */\n    tag_467:\n        /* \"AmphiTrans.sol\":6180:6191  _taskerInfo */\n      dup3\n        /* \"AmphiTrans.sol\":6180:6201  _taskerInfo.taskIndex */\n      0x20\n      add\n      mload\n        /* \"AmphiTrans.sol\":6180:6208  _taskerInfo.taskIndex.length */\n      mload\n        /* \"AmphiTrans.sol\":6176:6177  q */\n      dup2\n        /* \"AmphiTrans.sol\":6176:6208  q < _taskerInfo.taskIndex.length */\n      lt\n        /* \"AmphiTrans.sol\":6156:6507  for (uint256 q = 0; q < _taskerInfo.taskIndex.length; q++) {\r... */\n      iszero\n      tag_468\n      jumpi\n        /* \"AmphiTrans.sol\":6256:6273  transInfo[_index] */\n      0x00\n      dup7\n      dup2\n      mstore\n        /* \"AmphiTrans.sol\":6256:6265  transInfo */\n      0x03\n        /* \"AmphiTrans.sol\":6256:6273  transInfo[_index] */\n      0x20\n      swap1\n      dup2\n      mstore\n      0x40\n      dup1\n      dup4\n      keccak256\n      sub(shl(0xa0, 0x01), 0x01)\n        /* \"AmphiTrans.sol\":6256:6283  transInfo[_index][_address] */\n      dup10\n      and\n      dup5\n      mstore\n      dup3\n      mstore\n      dup3\n      keccak256\n        /* \"AmphiTrans.sol\":6307:6328  _taskerInfo.taskIndex */\n      swap1\n      dup6\n      add\n      mload\n        /* \"AmphiTrans.sol\":6307:6331  _taskerInfo.taskIndex[q] */\n      dup1\n      mload\n        /* \"AmphiTrans.sol\":6256:6306  transInfo[_index][_address]\r... */\n      0x02\n      swap1\n      swap3\n      add\n      swap3\n        /* \"AmphiTrans.sol\":6256:6273  transInfo[_index] */\n      swap2\n        /* \"AmphiTrans.sol\":6329:6330  q */\n      dup5\n      swap1\n        /* \"AmphiTrans.sol\":6307:6331  _taskerInfo.taskIndex[q] */\n      dup2\n      lt\n      tag_471\n      jumpi\n      tag_471\n      tag_298\n      jump\t// in\n    tag_471:\n      0x20\n      mul\n      0x20\n      add\n      add\n      mload\n        /* \"AmphiTrans.sol\":6256:6332  transInfo[_index][_address]\r... */\n      dup2\n      mstore\n      0x20\n      add\n      swap1\n      dup2\n      mstore\n      0x20\n      add\n      0x00\n      keccak256\n        /* \"AmphiTrans.sol\":6256:6356  transInfo[_index][_address]\r... */\n      0x00\n      add\n      0x00\n      swap1\n      sload\n      swap1\n      0x0100\n      exp\n      swap1\n      div\n      0xff\n      and\n        /* \"AmphiTrans.sol\":6230:6244  _fileIndexInfo */\n      dup3\n        /* \"AmphiTrans.sol\":6245:6246  q */\n      dup3\n        /* \"AmphiTrans.sol\":6230:6247  _fileIndexInfo[q] */\n      dup2\n      mload\n      dup2\n      lt\n      tag_473\n      jumpi\n      tag_473\n      tag_298\n      jump\t// in\n    tag_473:\n      0x20\n      mul\n      0x20\n      add\n      add\n      mload\n        /* \"AmphiTrans.sol\":6230:6253  _fileIndexInfo[q].state */\n      0x00\n      add\n        /* \"AmphiTrans.sol\":6230:6356  _fileIndexInfo[q].state = transInfo[_index][_address]\r... */\n      swap1\n      0x04\n      dup2\n      gt\n      iszero\n      tag_475\n      jumpi\n      tag_475\n      tag_324\n      jump\t// in\n    tag_475:\n      swap1\n      dup2\n      0x04\n      dup2\n      gt\n      iszero\n      tag_477\n      jumpi\n      tag_477\n      tag_324\n      jump\t// in\n    tag_477:\n      swap1\n      mstore\n      pop\n        /* \"AmphiTrans.sol\":6396:6413  transInfo[_index] */\n      0x00\n      dup7\n      dup2\n      mstore\n        /* \"AmphiTrans.sol\":6396:6405  transInfo */\n      0x03\n        /* \"AmphiTrans.sol\":6396:6413  transInfo[_index] */\n      0x20\n      swap1\n      dup2\n      mstore\n      0x40\n      dup1\n      dup4\n      keccak256\n      sub(shl(0xa0, 0x01), 0x01)\n        /* \"AmphiTrans.sol\":6396:6423  transInfo[_index][_address] */\n      dup10\n      and\n      dup5\n      mstore\n      dup3\n      mstore\n      dup3\n      keccak256\n        /* \"AmphiTrans.sol\":6447:6468  _taskerInfo.taskIndex */\n      swap1\n      dup6\n      add\n      mload\n        /* \"AmphiTrans.sol\":6447:6471  _taskerInfo.taskIndex[q] */\n      dup1\n      mload\n        /* \"AmphiTrans.sol\":6396:6446  transInfo[_index][_address]\r... */\n      0x02\n      swap1\n      swap3\n      add\n      swap3\n        /* \"AmphiTrans.sol\":6396:6413  transInfo[_index] */\n      swap2\n        /* \"AmphiTrans.sol\":6469:6470  q */\n      dup5\n      swap1\n        /* \"AmphiTrans.sol\":6447:6471  _taskerInfo.taskIndex[q] */\n      dup2\n      lt\n      tag_479\n      jumpi\n      tag_479\n      tag_298\n      jump\t// in\n    tag_479:\n      0x20\n      mul\n      0x20\n      add\n      add\n      mload\n        /* \"AmphiTrans.sol\":6396:6472  transInfo[_index][_address]\r... */\n      dup2\n      mstore\n      0x20\n      add\n      swap1\n      dup2\n      mstore\n      0x20\n      add\n      0x00\n      keccak256\n        /* \"AmphiTrans.sol\":6396:6495  transInfo[_index][_address]\r... */\n      0x01\n      add\n        /* \"AmphiTrans.sol\":6371:6495  _fileIndexInfo[q].file = transInfo[_index][_address]\r... */\n      dup1\n      sload\n      tag_480\n      swap1\n      tag_307\n      jump\t// in\n    tag_480:\n      dup1\n      0x1f\n      add\n      0x20\n      dup1\n      swap2\n      div\n      mul\n      0x20\n      add\n      mload(0x40)\n      swap1\n      dup2\n      add\n      0x40\n      mstore\n      dup1\n      swap3\n      swap2\n      swap1\n      dup2\n      dup2\n      mstore\n      0x20\n      add\n      dup3\n      dup1\n      sload\n      tag_481\n      swap1\n      tag_307\n      jump\t// in\n    tag_481:\n      dup1\n      iszero\n      tag_482\n      jumpi\n      dup1\n      0x1f\n      lt\n      tag_483\n      jumpi\n      0x0100\n      dup1\n      dup4\n      sload\n      div\n      mul\n      dup4\n      mstore\n      swap2\n      0x20\n      add\n      swap2\n      jump(tag_482)\n    tag_483:\n      dup3\n      add\n      swap2\n      swap1\n      0x00\n      mstore\n      keccak256(0x00, 0x20)\n      swap1\n    tag_484:\n      dup2\n      sload\n      dup2\n      mstore\n      swap1\n      0x01\n      add\n      swap1\n      0x20\n      add\n      dup1\n      dup4\n      gt\n      tag_484\n      jumpi\n      dup3\n      swap1\n      sub\n      0x1f\n      and\n      dup3\n      add\n      swap2\n    tag_482:\n      pop\n      pop\n      pop\n      pop\n      pop\n        /* \"AmphiTrans.sol\":6371:6385  _fileIndexInfo */\n      dup3\n        /* \"AmphiTrans.sol\":6386:6387  q */\n      dup3\n        /* \"AmphiTrans.sol\":6371:6388  _fileIndexInfo[q] */\n      dup2\n      mload\n      dup2\n      lt\n      tag_486\n      jumpi\n      tag_486\n      tag_298\n      jump\t// in\n    tag_486:\n      0x20\n      mul\n      0x20\n      add\n      add\n      mload\n        /* \"AmphiTrans.sol\":6371:6393  _fileIndexInfo[q].file */\n      0x20\n      add\n        /* \"AmphiTrans.sol\":6371:6495  _fileIndexInfo[q].file = transInfo[_index][_address]\r... */\n      dup2\n      swap1\n      mstore\n      pop\n        /* \"AmphiTrans.sol\":6210:6213  q++ */\n      dup1\n      dup1\n      tag_487\n      swap1\n      tag_291\n      jump\t// in\n    tag_487:\n      swap2\n      pop\n      pop\n        /* \"AmphiTrans.sol\":6156:6507  for (uint256 q = 0; q < _taskerInfo.taskIndex.length; q++) {\r... */\n      jump(tag_467)\n    tag_468:\n      pop\n        /* \"AmphiTrans.sol\":6517:6539  _taskerInfo.taskerinfo */\n      0x40\n      dup3\n      add\n        /* \"AmphiTrans.sol\":6517:6556  _taskerInfo.taskerinfo = _fileIndexInfo */\n      mstore\n        /* \"AmphiTrans.sol\":6517:6539  _taskerInfo.taskerinfo */\n      swap4\n        /* \"AmphiTrans.sol\":5609:6593  function getTransTaskInfo(uint256 _index, address _address)\r... */\n      swap3\n      pop\n      pop\n      pop\n      jump\t// out\n        /* \"AmphiTrans.sol\":9954:10147  function changeTransActive(uint256 _index, bool _bool) public isAccess {\r... */\n    tag_156:\n        /* \"AmphiTrans.sol\":641:654  accessAddress */\n      and(sub(shl(0xa0, 0x01), 0x01), sload(0x06))\n        /* \"AmphiTrans.sol\":627:637  msg.sender */\n      caller\n        /* \"AmphiTrans.sol\":627:654  msg.sender != accessAddress */\n      eq\n        /* \"AmphiTrans.sol\":624:727  if(msg.sender != accessAddress) {\r... */\n      tag_489\n      jumpi\n        /* \"AmphiTrans.sol\":679:715  AccessError(\"Error Access Address!\") */\n      mload(0x40)\n      shl(0xe4, 0x048e2d49)\n      dup2\n      mstore\n        /* \"#utility.yul\":17990:17992   */\n      0x20\n        /* \"AmphiTrans.sol\":679:715  AccessError(\"Error Access Address!\") */\n      0x04\n      dup3\n      add\n        /* \"#utility.yul\":17972:17993   */\n      mstore\n        /* \"#utility.yul\":18029:18031   */\n      0x15\n        /* \"#utility.yul\":18009:18027   */\n      0x24\n      dup3\n      add\n        /* \"#utility.yul\":18002:18032   */\n      mstore\n      shl(0x58, 0x4572726f7220416363657373204164647265737321)\n        /* \"#utility.yul\":18048:18066   */\n      0x44\n      dup3\n      add\n        /* \"#utility.yul\":18041:18092   */\n      mstore\n        /* \"#utility.yul\":18109:18127   */\n      0x64\n      add\n        /* \"AmphiTrans.sol\":679:715  AccessError(\"Error Access Address!\") */\n      tag_287\n        /* \"#utility.yul\":17788:18133   */\n      jump\n        /* \"AmphiTrans.sol\":624:727  if(msg.sender != accessAddress) {\r... */\n    tag_489:\n        /* \"AmphiTrans.sol\":10036:10052  taskList[_index] */\n      0x00\n      swap2\n      dup3\n      mstore\n        /* \"AmphiTrans.sol\":10036:10044  taskList */\n      0x01\n        /* \"AmphiTrans.sol\":10036:10052  taskList[_index] */\n      0x20\n      mstore\n      0x40\n      swap1\n      swap2\n      keccak256\n        /* \"AmphiTrans.sol\":10036:10066  taskList[_index].isTransActive */\n      0x13\n      add\n        /* \"AmphiTrans.sol\":10036:10074  taskList[_index].isTransActive = _bool */\n      dup1\n      sload\n      not(0xff)\n      and\n      swap2\n      iszero\n      iszero\n      swap2\n      swap1\n      swap2\n      or\n      swap1\n      sstore\n        /* \"AmphiTrans.sol\":9954:10147  function changeTransActive(uint256 _index, bool _bool) public isAccess {\r... */\n      jump\t// out\n        /* \"AmphiTrans.sol\":8608:8861  function changeTaskVfState(\r... */\n    tag_159:\n        /* \"AmphiTrans.sol\":641:654  accessAddress */\n      and(sub(shl(0xa0, 0x01), 0x01), sload(0x06))\n        /* \"AmphiTrans.sol\":627:637  msg.sender */\n      caller\n        /* \"AmphiTrans.sol\":627:654  msg.sender != accessAddress */\n      eq\n        /* \"AmphiTrans.sol\":624:727  if(msg.sender != accessAddress) {\r... */\n      tag_493\n      jumpi\n        /* \"AmphiTrans.sol\":679:715  AccessError(\"Error Access Address!\") */\n      mload(0x40)\n      shl(0xe4, 0x048e2d49)\n      dup2\n      mstore\n        /* \"#utility.yul\":17990:17992   */\n      0x20\n        /* \"AmphiTrans.sol\":679:715  AccessError(\"Error Access Address!\") */\n      0x04\n      dup3\n      add\n        /* \"#utility.yul\":17972:17993   */\n      mstore\n        /* \"#utility.yul\":18029:18031   */\n      0x15\n        /* \"#utility.yul\":18009:18027   */\n      0x24\n      dup3\n      add\n        /* \"#utility.yul\":18002:18032   */\n      mstore\n      shl(0x58, 0x4572726f7220416363657373204164647265737321)\n        /* \"#utility.yul\":18048:18066   */\n      0x44\n      dup3\n      add\n        /* \"#utility.yul\":18041:18092   */\n      mstore\n        /* \"#utility.yul\":18109:18127   */\n      0x64\n      add\n        /* \"AmphiTrans.sol\":679:715  AccessError(\"Error Access Address!\") */\n      tag_287\n        /* \"#utility.yul\":17788:18133   */\n      jump\n        /* \"AmphiTrans.sol\":624:727  if(msg.sender != accessAddress) {\r... */\n    tag_493:\n        /* \"AmphiTrans.sol\":8793:8807  vfInfo[_index] */\n      0x00\n      dup5\n      dup2\n      mstore\n        /* \"AmphiTrans.sol\":8793:8799  vfInfo */\n      0x04\n        /* \"AmphiTrans.sol\":8793:8807  vfInfo[_index] */\n      0x20\n      dup2\n      dup2\n      mstore\n      0x40\n      dup1\n      dup5\n      keccak256\n      sub(shl(0xa0, 0x01), 0x01)\n        /* \"AmphiTrans.sol\":8793:8821  vfInfo[_index][_taskerIndex] */\n      dup9\n      and\n      dup6\n      mstore\n      dup3\n      mstore\n      dup1\n      dup5\n      keccak256\n        /* \"AmphiTrans.sol\":8793:8838  vfInfo[_index][_taskerIndex].info[_fileIndex] */\n      dup7\n      dup6\n      mstore\n        /* \"AmphiTrans.sol\":8793:8826  vfInfo[_index][_taskerIndex].info */\n      0x02\n      add\n        /* \"AmphiTrans.sol\":8793:8838  vfInfo[_index][_taskerIndex].info[_fileIndex] */\n      swap1\n      swap2\n      mstore\n      swap1\n      swap2\n      keccak256\n        /* \"AmphiTrans.sol\":8793:8853  vfInfo[_index][_taskerIndex].info[_fileIndex].state = _state */\n      dup1\n      sload\n        /* \"AmphiTrans.sol\":8847:8853  _state */\n      dup4\n      swap3\n      not(0xff)\n        /* \"AmphiTrans.sol\":8793:8853  vfInfo[_index][_taskerIndex].info[_fileIndex].state = _state */\n      swap1\n      swap2\n      and\n      swap1\n      0x01\n      swap1\n        /* \"AmphiTrans.sol\":8847:8853  _state */\n      dup5\n      swap1\n        /* \"AmphiTrans.sol\":8793:8853  vfInfo[_index][_taskerIndex].info[_fileIndex].state = _state */\n      dup2\n      gt\n      iszero\n      tag_345\n      jumpi\n      tag_345\n      tag_324\n      jump\t// in\n        /* \"AmphiTrans.sol\":874:937  function addCount() external isAccess{\r... */\n    tag_161:\n        /* \"AmphiTrans.sol\":641:654  accessAddress */\n      and(sub(shl(0xa0, 0x01), 0x01), sload(0x06))\n        /* \"AmphiTrans.sol\":627:637  msg.sender */\n      caller\n        /* \"AmphiTrans.sol\":627:654  msg.sender != accessAddress */\n      eq\n        /* \"AmphiTrans.sol\":624:727  if(msg.sender != accessAddress) {\r... */\n      tag_499\n      jumpi\n        /* \"AmphiTrans.sol\":679:715  AccessError(\"Error Access Address!\") */\n      mload(0x40)\n      shl(0xe4, 0x048e2d49)\n      dup2\n      mstore\n        /* \"#utility.yul\":17990:17992   */\n      0x20\n        /* \"AmphiTrans.sol\":679:715  AccessError(\"Error Access Address!\") */\n      0x04\n      dup3\n      add\n        /* \"#utility.yul\":17972:17993   */\n      mstore\n        /* \"#utility.yul\":18029:18031   */\n      0x15\n        /* \"#utility.yul\":18009:18027   */\n      0x24\n      dup3\n      add\n        /* \"#utility.yul\":18002:18032   */\n      mstore\n      shl(0x58, 0x4572726f7220416363657373204164647265737321)\n        /* \"#utility.yul\":18048:18066   */\n      0x44\n      dup3\n      add\n        /* \"#utility.yul\":18041:18092   */\n      mstore\n        /* \"#utility.yul\":18109:18127   */\n      0x64\n      add\n        /* \"AmphiTrans.sol\":679:715  AccessError(\"Error Access Address!\") */\n      tag_287\n        /* \"#utility.yul\":17788:18133   */\n      jump\n        /* \"AmphiTrans.sol\":624:727  if(msg.sender != accessAddress) {\r... */\n    tag_499:\n        /* \"AmphiTrans.sol\":924:929  count */\n      0x05\n      0x00\n        /* \"AmphiTrans.sol\":922:929  ++count */\n      dup2\n      sload\n      tag_502\n      swap1\n      tag_291\n      jump\t// in\n    tag_502:\n      swap1\n      swap2\n      sstore\n      pop\n        /* \"AmphiTrans.sol\":874:937  function addCount() external isAccess{\r... */\n      jump\t// out\n        /* \"AmphiTrans.sol\":11620:11782  function isUsedToVf(uint256 _index, uint256 _fileIndex,address _address) public isAccess{\r... */\n    tag_165:\n        /* \"AmphiTrans.sol\":641:654  accessAddress */\n      and(sub(shl(0xa0, 0x01), 0x01), sload(0x06))\n        /* \"AmphiTrans.sol\":627:637  msg.sender */\n      caller\n        /* \"AmphiTrans.sol\":627:654  msg.sender != accessAddress */\n      eq\n        /* \"AmphiTrans.sol\":624:727  if(msg.sender != accessAddress) {\r... */\n      tag_504\n      jumpi\n        /* \"AmphiTrans.sol\":679:715  AccessError(\"Error Access Address!\") */\n      mload(0x40)\n      shl(0xe4, 0x048e2d49)\n      dup2\n      mstore\n        /* \"#utility.yul\":17990:17992   */\n      0x20\n        /* \"AmphiTrans.sol\":679:715  AccessError(\"Error Access Address!\") */\n      0x04\n      dup3\n      add\n        /* \"#utility.yul\":17972:17993   */\n      mstore\n        /* \"#utility.yul\":18029:18031   */\n      0x15\n        /* \"#utility.yul\":18009:18027   */\n      0x24\n      dup3\n      add\n        /* \"#utility.yul\":18002:18032   */\n      mstore\n      shl(0x58, 0x4572726f7220416363657373204164647265737321)\n        /* \"#utility.yul\":18048:18066   */\n      0x44\n      dup3\n      add\n        /* \"#utility.yul\":18041:18092   */\n      mstore\n        /* \"#utility.yul\":18109:18127   */\n      0x64\n      add\n        /* \"AmphiTrans.sol\":679:715  AccessError(\"Error Access Address!\") */\n      tag_287\n        /* \"#utility.yul\":17788:18133   */\n      jump\n        /* \"AmphiTrans.sol\":624:727  if(msg.sender != accessAddress) {\r... */\n    tag_504:\n        /* \"AmphiTrans.sol\":11719:11733  vfInfo[_index] */\n      0x00\n      swap3\n      dup4\n      mstore\n        /* \"AmphiTrans.sol\":11719:11725  vfInfo */\n      0x04\n        /* \"AmphiTrans.sol\":11719:11733  vfInfo[_index] */\n      0x20\n      swap1\n      dup2\n      mstore\n      0x40\n      dup1\n      dup6\n      keccak256\n      sub(shl(0xa0, 0x01), 0x01)\n        /* \"AmphiTrans.sol\":11719:11743  vfInfo[_index][_address] */\n      swap1\n      swap4\n      and\n      dup6\n      mstore\n      swap2\n      dup2\n      mstore\n      dup2\n      dup5\n      keccak256\n        /* \"AmphiTrans.sol\":11719:11760  vfInfo[_index][_address].info[_fileIndex] */\n      swap3\n      dup5\n      mstore\n        /* \"AmphiTrans.sol\":11719:11748  vfInfo[_index][_address].info */\n      0x02\n      swap3\n      dup4\n      add\n        /* \"AmphiTrans.sol\":11719:11760  vfInfo[_index][_address].info[_fileIndex] */\n      swap1\n      mstore\n      swap1\n      swap2\n      keccak256\n        /* \"AmphiTrans.sol\":11719:11767  vfInfo[_index][_address].info[_fileIndex].isUsed */\n      add\n        /* \"AmphiTrans.sol\":11719:11774  vfInfo[_index][_address].info[_fileIndex].isUsed = true */\n      dup1\n      sload\n      not(0xff)\n      and\n        /* \"AmphiTrans.sol\":11770:11774  true */\n      0x01\n        /* \"AmphiTrans.sol\":11719:11774  vfInfo[_index][_address].info[_fileIndex].isUsed = true */\n      or\n      swap1\n      sstore\n        /* \"AmphiTrans.sol\":11620:11782  function isUsedToVf(uint256 _index, uint256 _fileIndex,address _address) public isAccess{\r... */\n      jump\t// out\n        /* \"contracts/access/Ownable.sol\":1831:1932  function renounceOwnership() public virtual onlyOwner {... */\n    tag_171:\n        /* \"contracts/access/Ownable.sol\":1094:1107  _checkOwner() */\n      tag_509\n        /* \"contracts/access/Ownable.sol\":1094:1105  _checkOwner */\n      tag_510\n        /* \"contracts/access/Ownable.sol\":1094:1107  _checkOwner() */\n      jump\t// in\n    tag_509:\n        /* \"contracts/access/Ownable.sol\":1895:1925  _transferOwnership(address(0)) */\n      tag_512\n        /* \"contracts/access/Ownable.sol\":1922:1923  0 */\n      0x00\n        /* \"contracts/access/Ownable.sol\":1895:1913  _transferOwnership */\n      tag_513\n        /* \"contracts/access/Ownable.sol\":1895:1925  _transferOwnership(address(0)) */\n      jump\t// in\n    tag_512:\n        /* \"contracts/access/Ownable.sol\":1831:1932  function renounceOwnership() public virtual onlyOwner {... */\n      jump\t// out\n        /* \"AmphiTrans.sol\":8475:8602  function decutVfWaitNumber(uint256 _index,address _address) public isAccess{\r... */\n    tag_178:\n        /* \"AmphiTrans.sol\":641:654  accessAddress */\n      and(sub(shl(0xa0, 0x01), 0x01), sload(0x06))\n        /* \"AmphiTrans.sol\":627:637  msg.sender */\n      caller\n        /* \"AmphiTrans.sol\":627:654  msg.sender != accessAddress */\n      eq\n        /* \"AmphiTrans.sol\":624:727  if(msg.sender != accessAddress) {\r... */\n      tag_516\n      jumpi\n        /* \"AmphiTrans.sol\":679:715  AccessError(\"Error Access Address!\") */\n      mload(0x40)\n      shl(0xe4, 0x048e2d49)\n      dup2\n      mstore\n        /* \"#utility.yul\":17990:17992   */\n      0x20\n        /* \"AmphiTrans.sol\":679:715  AccessError(\"Error Access Address!\") */\n      0x04\n      dup3\n      add\n        /* \"#utility.yul\":17972:17993   */\n      mstore\n        /* \"#utility.yul\":18029:18031   */\n      0x15\n        /* \"#utility.yul\":18009:18027   */\n      0x24\n      dup3\n      add\n        /* \"#utility.yul\":18002:18032   */\n      mstore\n      shl(0x58, 0x4572726f7220416363657373204164647265737321)\n        /* \"#utility.yul\":18048:18066   */\n      0x44\n      dup3\n      add\n        /* \"#utility.yul\":18041:18092   */\n      mstore\n        /* \"#utility.yul\":18109:18127   */\n      0x64\n      add\n        /* \"AmphiTrans.sol\":679:715  AccessError(\"Error Access Address!\") */\n      tag_287\n        /* \"#utility.yul\":17788:18133   */\n      jump\n        /* \"AmphiTrans.sol\":624:727  if(msg.sender != accessAddress) {\r... */\n    tag_516:\n        /* \"AmphiTrans.sol\":8561:8575  vfInfo[_index] */\n      0x00\n      dup3\n      dup2\n      mstore\n        /* \"AmphiTrans.sol\":8561:8567  vfInfo */\n      0x04\n        /* \"AmphiTrans.sol\":8561:8575  vfInfo[_index] */\n      0x20\n      swap1\n      dup2\n      mstore\n      0x40\n      dup1\n      dup4\n      keccak256\n      sub(shl(0xa0, 0x01), 0x01)\n        /* \"AmphiTrans.sol\":8561:8585  vfInfo[_index][_address] */\n      dup6\n      and\n      dup5\n      mstore\n      swap1\n      swap2\n      mstore\n      dup2\n      keccak256\n        /* \"AmphiTrans.sol\":8561:8592  vfInfo[_index][_address].number */\n      0x01\n      add\n        /* \"AmphiTrans.sol\":8561:8594  vfInfo[_index][_address].number-- */\n      dup1\n      sload\n      swap2\n      tag_290\n      dup4\n      tag_520\n      jump\t// in\n        /* \"AmphiTrans.sol\":6820:7740  function getVfTaskInfo(uint256 _index, address _address)\r... */\n    tag_185:\n        /* \"AmphiTrans.sol\":6925:6955  LibProject.ReturnTasker memory */\n      tag_522\n      mload(0x40)\n      dup1\n      0x60\n      add\n      0x40\n      mstore\n      dup1\n      and(sub(shl(0xa0, 0x01), 0x01), 0x00)\n      dup2\n      mstore\n      0x20\n      add\n      0x60\n      dup2\n      mstore\n      0x20\n      add\n      0x60\n      dup2\n      mstore\n      pop\n      swap1\n      jump\n    tag_522:\n        /* \"AmphiTrans.sol\":6973:7015  LibProject.ReturnTasker memory _taskerInfo */\n      tag_524\n      mload(0x40)\n      dup1\n      0x60\n      add\n      0x40\n      mstore\n      dup1\n      and(sub(shl(0xa0, 0x01), 0x01), 0x00)\n      dup2\n      mstore\n      0x20\n      add\n      0x60\n      dup2\n      mstore\n      0x20\n      add\n      0x60\n      dup2\n      mstore\n      pop\n      swap1\n      jump\n    tag_524:\n      sub(shl(0xa0, 0x01), 0x01)\n        /* \"AmphiTrans.sol\":7026:7062  _taskerInfo.taskerAddress = _address */\n      dup4\n      and\n      dup1\n      dup3\n      mstore\n        /* \"AmphiTrans.sol\":7026:7051  _taskerInfo.taskerAddress */\n      0x00\n        /* \"AmphiTrans.sol\":7097:7111  vfInfo[_index] */\n      dup6\n      dup2\n      mstore\n        /* \"AmphiTrans.sol\":7097:7103  vfInfo */\n      0x04\n        /* \"AmphiTrans.sol\":7097:7111  vfInfo[_index] */\n      0x20\n      swap1\n      dup2\n      mstore\n      0x40\n      dup1\n      dup4\n      keccak256\n        /* \"AmphiTrans.sol\":7097:7121  vfInfo[_index][_address] */\n      swap4\n      dup4\n      mstore\n      swap3\n      dup2\n      mstore\n      swap1\n      dup3\n      swap1\n      keccak256\n        /* \"AmphiTrans.sol\":7073:7131  _taskerInfo.taskIndex = vfInfo[_index][_address].taskIndex */\n      dup1\n      sload\n      dup4\n      mload\n      dup2\n      dup5\n      mul\n      dup2\n      add\n      dup5\n      add\n      swap1\n      swap5\n      mstore\n      dup1\n      dup5\n      mstore\n        /* \"AmphiTrans.sol\":7097:7121  vfInfo[_index][_address] */\n      swap1\n      swap2\n        /* \"AmphiTrans.sol\":7073:7131  _taskerInfo.taskIndex = vfInfo[_index][_address].taskIndex */\n      dup4\n      add\n        /* \"AmphiTrans.sol\":7097:7121  vfInfo[_index][_address] */\n      dup3\n        /* \"AmphiTrans.sol\":7073:7131  _taskerInfo.taskIndex = vfInfo[_index][_address].taskIndex */\n      dup3\n      dup1\n      iszero\n      tag_525\n      jumpi\n      0x20\n      mul\n      dup3\n      add\n      swap2\n      swap1\n      0x00\n      mstore\n      keccak256(0x00, 0x20)\n      swap1\n    tag_526:\n      dup2\n      sload\n      dup2\n      mstore\n      0x20\n      add\n      swap1\n      0x01\n      add\n      swap1\n      dup1\n      dup4\n      gt\n      tag_526\n      jumpi\n    tag_525:\n      pop\n      pop\n      pop\n      pop\n        /* \"AmphiTrans.sol\":7073:7094  _taskerInfo.taskIndex */\n      0x20\n      dup4\n      add\n        /* \"AmphiTrans.sol\":7073:7131  _taskerInfo.taskIndex = vfInfo[_index][_address].taskIndex */\n      dup3\n      swap1\n      mstore\n      pop\n        /* \"AmphiTrans.sol\":7255:7283  _taskerInfo.taskIndex.length */\n      mload\n        /* \"AmphiTrans.sol\":7142:7203  LibProject.FileIndexInfo[]\r... */\n      0x00\n      swap1\n        /* \"AmphiTrans.sol\":7206:7298  new LibProject.FileIndexInfo[](\r... */\n      0xffffffffffffffff\n      dup2\n      gt\n      iszero\n      tag_528\n      jumpi\n      tag_528\n      tag_462\n      jump\t// in\n    tag_528:\n      mload(0x40)\n      swap1\n      dup1\n      dup3\n      mstore\n      dup1\n      0x20\n      mul\n      0x20\n      add\n      dup3\n      add\n      0x40\n      mstore\n      dup1\n      iszero\n      tag_529\n      jumpi\n      dup2\n      0x20\n      add\n    tag_530:\n      tag_531\n      0x40\n      dup1\n      mload\n      0x60\n      dup2\n      add\n      swap1\n      swap2\n      mstore\n      dup1\n      0x00\n      dup2\n      mstore\n      0x60\n      0x20\n      dup3\n      add\n      mstore\n      0x00\n      0x40\n      swap1\n      swap2\n      add\n      mstore\n      swap1\n      jump\n    tag_531:\n      dup2\n      mstore\n      0x20\n      add\n      swap1\n      0x01\n      swap1\n      sub\n      swap1\n      dup2\n      tag_530\n      jumpi\n      swap1\n      pop\n    tag_529:\n      pop\n        /* \"AmphiTrans.sol\":7142:7298  LibProject.FileIndexInfo[]\r... */\n      swap1\n      pop\n        /* \"AmphiTrans.sol\":7314:7323  uint256 q */\n      0x00\n        /* \"AmphiTrans.sol\":7309:7654  for (uint256 q = 0; q < _taskerInfo.taskIndex.length; q++) {\r... */\n    tag_532:\n        /* \"AmphiTrans.sol\":7333:7344  _taskerInfo */\n      dup3\n        /* \"AmphiTrans.sol\":7333:7354  _taskerInfo.taskIndex */\n      0x20\n      add\n      mload\n        /* \"AmphiTrans.sol\":7333:7361  _taskerInfo.taskIndex.length */\n      mload\n        /* \"AmphiTrans.sol\":7329:7330  q */\n      dup2\n        /* \"AmphiTrans.sol\":7329:7361  q < _taskerInfo.taskIndex.length */\n      lt\n        /* \"AmphiTrans.sol\":7309:7654  for (uint256 q = 0; q < _taskerInfo.taskIndex.length; q++) {\r... */\n      iszero\n      tag_468\n      jumpi\n        /* \"AmphiTrans.sol\":7409:7423  vfInfo[_index] */\n      0x00\n      dup7\n      dup2\n      mstore\n        /* \"AmphiTrans.sol\":7409:7415  vfInfo */\n      0x04\n        /* \"AmphiTrans.sol\":7409:7423  vfInfo[_index] */\n      0x20\n      swap1\n      dup2\n      mstore\n      0x40\n      dup1\n      dup4\n      keccak256\n      sub(shl(0xa0, 0x01), 0x01)\n        /* \"AmphiTrans.sol\":7409:7433  vfInfo[_index][_address] */\n      dup10\n      and\n      dup5\n      mstore\n      dup3\n      mstore\n      dup3\n      keccak256\n        /* \"AmphiTrans.sol\":7457:7478  _taskerInfo.taskIndex */\n      swap1\n      dup6\n      add\n      mload\n        /* \"AmphiTrans.sol\":7457:7481  _taskerInfo.taskIndex[q] */\n      dup1\n      mload\n        /* \"AmphiTrans.sol\":7409:7456  vfInfo[_index][_address]\r... */\n      0x02\n      swap1\n      swap3\n      add\n      swap3\n        /* \"AmphiTrans.sol\":7409:7423  vfInfo[_index] */\n      swap2\n        /* \"AmphiTrans.sol\":7479:7480  q */\n      dup5\n      swap1\n        /* \"AmphiTrans.sol\":7457:7481  _taskerInfo.taskIndex[q] */\n      dup2\n      lt\n      tag_536\n      jumpi\n      tag_536\n      tag_298\n      jump\t// in\n    tag_536:\n      0x20\n      mul\n      0x20\n      add\n      add\n      mload\n        /* \"AmphiTrans.sol\":7409:7482  vfInfo[_index][_address]\r... */\n      dup2\n      mstore\n      0x20\n      add\n      swap1\n      dup2\n      mstore\n      0x20\n      add\n      0x00\n      keccak256\n        /* \"AmphiTrans.sol\":7409:7506  vfInfo[_index][_address]\r... */\n      0x00\n      add\n      0x00\n      swap1\n      sload\n      swap1\n      0x0100\n      exp\n      swap1\n      div\n      0xff\n      and\n        /* \"AmphiTrans.sol\":7383:7397  _fileIndexInfo */\n      dup3\n        /* \"AmphiTrans.sol\":7398:7399  q */\n      dup3\n        /* \"AmphiTrans.sol\":7383:7400  _fileIndexInfo[q] */\n      dup2\n      mload\n      dup2\n      lt\n      tag_538\n      jumpi\n      tag_538\n      tag_298\n      jump\t// in\n    tag_538:\n      0x20\n      mul\n      0x20\n      add\n      add\n      mload\n        /* \"AmphiTrans.sol\":7383:7406  _fileIndexInfo[q].state */\n      0x00\n      add\n        /* \"AmphiTrans.sol\":7383:7506  _fileIndexInfo[q].state = vfInfo[_index][_address]\r... */\n      swap1\n      0x04\n      dup2\n      gt\n      iszero\n      tag_540\n      jumpi\n      tag_540\n      tag_324\n      jump\t// in\n    tag_540:\n      swap1\n      dup2\n      0x04\n      dup2\n      gt\n      iszero\n      tag_542\n      jumpi\n      tag_542\n      tag_324\n      jump\t// in\n    tag_542:\n      swap1\n      mstore\n      pop\n        /* \"AmphiTrans.sol\":7546:7560  vfInfo[_index] */\n      0x00\n      dup7\n      dup2\n      mstore\n        /* \"AmphiTrans.sol\":7546:7552  vfInfo */\n      0x04\n        /* \"AmphiTrans.sol\":7546:7560  vfInfo[_index] */\n      0x20\n      swap1\n      dup2\n      mstore\n      0x40\n      dup1\n      dup4\n      keccak256\n      sub(shl(0xa0, 0x01), 0x01)\n        /* \"AmphiTrans.sol\":7546:7570  vfInfo[_index][_address] */\n      dup10\n      and\n      dup5\n      mstore\n      dup3\n      mstore\n      dup3\n      keccak256\n        /* \"AmphiTrans.sol\":7594:7615  _taskerInfo.taskIndex */\n      swap1\n      dup6\n      add\n      mload\n        /* \"AmphiTrans.sol\":7594:7618  _taskerInfo.taskIndex[q] */\n      dup1\n      mload\n        /* \"AmphiTrans.sol\":7546:7593  vfInfo[_index][_address]\r... */\n      0x02\n      swap1\n      swap3\n      add\n      swap3\n        /* \"AmphiTrans.sol\":7546:7560  vfInfo[_index] */\n      swap2\n        /* \"AmphiTrans.sol\":7616:7617  q */\n      dup5\n      swap1\n        /* \"AmphiTrans.sol\":7594:7618  _taskerInfo.taskIndex[q] */\n      dup2\n      lt\n      tag_544\n      jumpi\n      tag_544\n      tag_298\n      jump\t// in\n    tag_544:\n      0x20\n      mul\n      0x20\n      add\n      add\n      mload\n        /* \"AmphiTrans.sol\":7546:7619  vfInfo[_index][_address]\r... */\n      dup2\n      mstore\n      0x20\n      add\n      swap1\n      dup2\n      mstore\n      0x20\n      add\n      0x00\n      keccak256\n        /* \"AmphiTrans.sol\":7546:7642  vfInfo[_index][_address]\r... */\n      0x01\n      add\n        /* \"AmphiTrans.sol\":7521:7642  _fileIndexInfo[q].file = vfInfo[_index][_address]\r... */\n      dup1\n      sload\n      tag_545\n      swap1\n      tag_307\n      jump\t// in\n    tag_545:\n      dup1\n      0x1f\n      add\n      0x20\n      dup1\n      swap2\n      div\n      mul\n      0x20\n      add\n      mload(0x40)\n      swap1\n      dup2\n      add\n      0x40\n      mstore\n      dup1\n      swap3\n      swap2\n      swap1\n      dup2\n      dup2\n      mstore\n      0x20\n      add\n      dup3\n      dup1\n      sload\n      tag_546\n      swap1\n      tag_307\n      jump\t// in\n    tag_546:\n      dup1\n      iszero\n      tag_547\n      jumpi\n      dup1\n      0x1f\n      lt\n      tag_548\n      jumpi\n      0x0100\n      dup1\n      dup4\n      sload\n      div\n      mul\n      dup4\n      mstore\n      swap2\n      0x20\n      add\n      swap2\n      jump(tag_547)\n    tag_548:\n      dup3\n      add\n      swap2\n      swap1\n      0x00\n      mstore\n      keccak256(0x00, 0x20)\n      swap1\n    tag_549:\n      dup2\n      sload\n      dup2\n      mstore\n      swap1\n      0x01\n      add\n      swap1\n      0x20\n      add\n      dup1\n      dup4\n      gt\n      tag_549\n      jumpi\n      dup3\n      swap1\n      sub\n      0x1f\n      and\n      dup3\n      add\n      swap2\n    tag_547:\n      pop\n      pop\n      pop\n      pop\n      pop\n        /* \"AmphiTrans.sol\":7521:7535  _fileIndexInfo */\n      dup3\n        /* \"AmphiTrans.sol\":7536:7537  q */\n      dup3\n        /* \"AmphiTrans.sol\":7521:7538  _fileIndexInfo[q] */\n      dup2\n      mload\n      dup2\n      lt\n      tag_551\n      jumpi\n      tag_551\n      tag_298\n      jump\t// in\n    tag_551:\n      0x20\n      mul\n      0x20\n      add\n      add\n      mload\n        /* \"AmphiTrans.sol\":7521:7543  _fileIndexInfo[q].file */\n      0x20\n      add\n        /* \"AmphiTrans.sol\":7521:7642  _fileIndexInfo[q].file = vfInfo[_index][_address]\r... */\n      dup2\n      swap1\n      mstore\n      pop\n        /* \"AmphiTrans.sol\":7363:7366  q++ */\n      dup1\n      dup1\n      tag_552\n      swap1\n      tag_291\n      jump\t// in\n    tag_552:\n      swap2\n      pop\n      pop\n        /* \"AmphiTrans.sol\":7309:7654  for (uint256 q = 0; q < _taskerInfo.taskIndex.length; q++) {\r... */\n      jump(tag_532)\n        /* \"AmphiTrans.sol\":2851:3132  function isAccept(address _address,uint256 _index,uint256 _fileIndex) public view returns(bool) {\r... */\n    tag_190:\n        /* \"AmphiTrans.sol\":2941:2945  bool */\n      0x00\n        /* \"AmphiTrans.sol\":2961:2978  transInfo[_index] */\n      dup3\n      dup2\n      mstore\n        /* \"AmphiTrans.sol\":2961:2970  transInfo */\n      0x03\n        /* \"AmphiTrans.sol\":2961:2978  transInfo[_index] */\n      0x20\n      swap1\n      dup2\n      mstore\n      0x40\n      dup1\n      dup4\n      keccak256\n      sub(shl(0xa0, 0x01), 0x01)\n        /* \"AmphiTrans.sol\":2961:2988  transInfo[_index][_address] */\n      dup8\n      and\n      dup5\n      mstore\n      dup3\n      mstore\n      dup1\n      dup4\n      keccak256\n        /* \"AmphiTrans.sol\":2961:3005  transInfo[_index][_address].info[_fileIndex] */\n      dup5\n      dup5\n      mstore\n        /* \"AmphiTrans.sol\":2961:2993  transInfo[_index][_address].info */\n      0x02\n      swap1\n      dup2\n      add\n        /* \"AmphiTrans.sol\":2961:3005  transInfo[_index][_address].info[_fileIndex] */\n      swap1\n      swap3\n      mstore\n      dup3\n      keccak256\n        /* \"AmphiTrans.sol\":2961:3012  transInfo[_index][_address].info[_fileIndex].isUsed */\n      add\n      sload\n      0xff\n      and\n      dup1\n        /* \"AmphiTrans.sol\":2961:3063  transInfo[_index][_address].info[_fileIndex].isUsed|| vfInfo[_index][_address].info[_fileIndex].isUsed */\n      tag_554\n      jumpi\n      pop\n        /* \"AmphiTrans.sol\":3015:3029  vfInfo[_index] */\n      0x00\n      dup4\n      dup2\n      mstore\n        /* \"AmphiTrans.sol\":3015:3021  vfInfo */\n      0x04\n        /* \"AmphiTrans.sol\":3015:3029  vfInfo[_index] */\n      0x20\n      swap1\n      dup2\n      mstore\n      0x40\n      dup1\n      dup4\n      keccak256\n      sub(shl(0xa0, 0x01), 0x01)\n        /* \"AmphiTrans.sol\":3015:3039  vfInfo[_index][_address] */\n      dup9\n      and\n      dup5\n      mstore\n      dup3\n      mstore\n      dup1\n      dup4\n      keccak256\n        /* \"AmphiTrans.sol\":3015:3056  vfInfo[_index][_address].info[_fileIndex] */\n      dup6\n      dup5\n      mstore\n        /* \"AmphiTrans.sol\":3015:3044  vfInfo[_index][_address].info */\n      0x02\n      swap1\n      dup2\n      add\n        /* \"AmphiTrans.sol\":3015:3056  vfInfo[_index][_address].info[_fileIndex] */\n      swap1\n      swap3\n      mstore\n      swap1\n      swap2\n      keccak256\n        /* \"AmphiTrans.sol\":3015:3063  vfInfo[_index][_address].info[_fileIndex].isUsed */\n      add\n      sload\n      0xff\n      and\n        /* \"AmphiTrans.sol\":2961:3063  transInfo[_index][_address].info[_fileIndex].isUsed|| vfInfo[_index][_address].info[_fileIndex].isUsed */\n    tag_554:\n        /* \"AmphiTrans.sol\":2958:3102  if(transInfo[_index][_address].info[_fileIndex].isUsed|| vfInfo[_index][_address].info[_fileIndex].isUsed){\r... */\n      iszero\n      tag_555\n      jumpi\n      pop\n        /* \"AmphiTrans.sol\":3086:3090  true */\n      0x01\n        /* \"AmphiTrans.sol\":3079:3090  return true */\n      jump(tag_553)\n        /* \"AmphiTrans.sol\":2958:3102  if(transInfo[_index][_address].info[_fileIndex].isUsed|| vfInfo[_index][_address].info[_fileIndex].isUsed){\r... */\n    tag_555:\n      pop\n        /* \"AmphiTrans.sol\":3119:3124  false */\n      0x00\n        /* \"AmphiTrans.sol\":2851:3132  function isAccept(address _address,uint256 _index,uint256 _fileIndex) public view returns(bool) {\r... */\n    tag_553:\n      swap4\n      swap3\n      pop\n      pop\n      pop\n      jump\t// out\n        /* \"AmphiTrans.sol\":1463:1741  function isFull(uint256 _index, bool _isTrans) public view returns (bool) {\r... */\n    tag_198:\n        /* \"AmphiTrans.sol\":1531:1535  bool */\n      0x00\n        /* \"AmphiTrans.sol\":1552:1560  _isTrans */\n      dup2\n        /* \"AmphiTrans.sol\":1548:1734  if (_isTrans) {\r... */\n      iszero\n      tag_558\n      jumpi\n      pop\n        /* \"AmphiTrans.sol\":1609:1625  taskList[_index] */\n      0x00\n      dup3\n      dup2\n      mstore\n        /* \"AmphiTrans.sol\":1609:1617  taskList */\n      0x01\n        /* \"AmphiTrans.sol\":1609:1625  taskList[_index] */\n      0x20\n      mstore\n      0x40\n      swap1\n      keccak256\n        /* \"AmphiTrans.sol\":1609:1633  taskList[_index].numberT */\n      0x11\n      dup2\n      add\n      sload\n        /* \"AmphiTrans.sol\":1584:1605  taskList[_index].maxT */\n      0x0f\n      swap1\n      swap2\n      add\n      sload\n        /* \"AmphiTrans.sol\":1584:1633  taskList[_index].maxT <= taskList[_index].numberT */\n      gt\n      iszero\n        /* \"AmphiTrans.sol\":1577:1633  return taskList[_index].maxT <= taskList[_index].numberT */\n      jump(tag_339)\n        /* \"AmphiTrans.sol\":1548:1734  if (_isTrans) {\r... */\n    tag_558:\n      pop\n        /* \"AmphiTrans.sol\":1698:1714  taskList[_index] */\n      0x00\n      dup3\n      dup2\n      mstore\n        /* \"AmphiTrans.sol\":1698:1706  taskList */\n      0x01\n        /* \"AmphiTrans.sol\":1698:1714  taskList[_index] */\n      0x20\n      mstore\n      0x40\n      swap1\n      keccak256\n        /* \"AmphiTrans.sol\":1698:1722  taskList[_index].numberV */\n      0x12\n      dup2\n      add\n      sload\n        /* \"AmphiTrans.sol\":1673:1694  taskList[_index].maxV */\n      0x10\n      swap1\n      swap2\n      add\n      sload\n        /* \"AmphiTrans.sol\":1673:1722  taskList[_index].maxV <= taskList[_index].numberV */\n      gt\n      iszero\n        /* \"AmphiTrans.sol\":1666:1722  return taskList[_index].maxV <= taskList[_index].numberV */\n      jump(tag_339)\n        /* \"AmphiTrans.sol\":3875:4798  function overTimeTasker(\r... */\n    tag_203:\n        /* \"AmphiTrans.sol\":4007:4023  uint256[] memory */\n      0x60\n        /* \"AmphiTrans.sol\":4025:4032  uint256 */\n      0x00\n        /* \"AmphiTrans.sol\":4045:4073  uint256[] memory _filesIndex */\n      0x60\n        /* \"AmphiTrans.sol\":4084:4106  uint256[] memory _list */\n      dup1\n        /* \"AmphiTrans.sol\":4117:4130  uint256 money */\n      0x00\n        /* \"AmphiTrans.sol\":4141:4150  uint256 q */\n      dup1\n        /* \"AmphiTrans.sol\":4165:4173  _isTrans */\n      dup7\n        /* \"AmphiTrans.sol\":4161:4342  if (_isTrans) {\r... */\n      iszero\n      tag_561\n      jumpi\n        /* \"AmphiTrans.sol\":4204:4221  transInfo[_index] */\n      0x00\n      dup10\n      dup2\n      mstore\n        /* \"AmphiTrans.sol\":4204:4213  transInfo */\n      0x03\n        /* \"AmphiTrans.sol\":4204:4221  transInfo[_index] */\n      0x20\n      swap1\n      dup2\n      mstore\n      0x40\n      dup1\n      dup4\n      keccak256\n      sub(shl(0xa0, 0x01), 0x01)\n        /* \"AmphiTrans.sol\":4204:4235  transInfo[_index][_taskerIndex] */\n      dup13\n      and\n      dup5\n      mstore\n      dup3\n      mstore\n      swap2\n      dup3\n      swap1\n      keccak256\n        /* \"AmphiTrans.sol\":4190:4245  _filesIndex = transInfo[_index][_taskerIndex].taskIndex */\n      dup1\n      sload\n      dup4\n      mload\n      dup2\n      dup5\n      mul\n      dup2\n      add\n      dup5\n      add\n      swap1\n      swap5\n      mstore\n      dup1\n      dup5\n      mstore\n        /* \"AmphiTrans.sol\":4204:4235  transInfo[_index][_taskerIndex] */\n      swap1\n      swap2\n        /* \"AmphiTrans.sol\":4190:4245  _filesIndex = transInfo[_index][_taskerIndex].taskIndex */\n      dup4\n      add\n        /* \"AmphiTrans.sol\":4204:4235  transInfo[_index][_taskerIndex] */\n      dup3\n        /* \"AmphiTrans.sol\":4190:4245  _filesIndex = transInfo[_index][_taskerIndex].taskIndex */\n      dup3\n      dup1\n      iszero\n      tag_562\n      jumpi\n      0x20\n      mul\n      dup3\n      add\n      swap2\n      swap1\n      0x00\n      mstore\n      keccak256(0x00, 0x20)\n      swap1\n    tag_563:\n      dup2\n      sload\n      dup2\n      mstore\n      0x20\n      add\n      swap1\n      0x01\n      add\n      swap1\n      dup1\n      dup4\n      gt\n      tag_563\n      jumpi\n    tag_562:\n      pop\n      pop\n      pop\n      pop\n      pop\n      swap4\n      pop\n        /* \"AmphiTrans.sol\":4161:4342  if (_isTrans) {\r... */\n      jump(tag_564)\n    tag_561:\n        /* \"AmphiTrans.sol\":4292:4306  vfInfo[_index] */\n      0x00\n      dup10\n      dup2\n      mstore\n        /* \"AmphiTrans.sol\":4292:4298  vfInfo */\n      0x04\n        /* \"AmphiTrans.sol\":4292:4306  vfInfo[_index] */\n      0x20\n      swap1\n      dup2\n      mstore\n      0x40\n      dup1\n      dup4\n      keccak256\n      sub(shl(0xa0, 0x01), 0x01)\n        /* \"AmphiTrans.sol\":4292:4320  vfInfo[_index][_taskerIndex] */\n      dup13\n      and\n      dup5\n      mstore\n      dup3\n      mstore\n      swap2\n      dup3\n      swap1\n      keccak256\n        /* \"AmphiTrans.sol\":4278:4330  _filesIndex = vfInfo[_index][_taskerIndex].taskIndex */\n      dup1\n      sload\n      dup4\n      mload\n      dup2\n      dup5\n      mul\n      dup2\n      add\n      dup5\n      add\n      swap1\n      swap5\n      mstore\n      dup1\n      dup5\n      mstore\n        /* \"AmphiTrans.sol\":4292:4320  vfInfo[_index][_taskerIndex] */\n      swap1\n      swap2\n        /* \"AmphiTrans.sol\":4278:4330  _filesIndex = vfInfo[_index][_taskerIndex].taskIndex */\n      dup4\n      add\n        /* \"AmphiTrans.sol\":4292:4320  vfInfo[_index][_taskerIndex] */\n      dup3\n        /* \"AmphiTrans.sol\":4278:4330  _filesIndex = vfInfo[_index][_taskerIndex].taskIndex */\n      dup3\n      dup1\n      iszero\n      tag_565\n      jumpi\n      0x20\n      mul\n      dup3\n      add\n      swap2\n      swap1\n      0x00\n      mstore\n      keccak256(0x00, 0x20)\n      swap1\n    tag_566:\n      dup2\n      sload\n      dup2\n      mstore\n      0x20\n      add\n      swap1\n      0x01\n      add\n      swap1\n      dup1\n      dup4\n      gt\n      tag_566\n      jumpi\n    tag_565:\n      pop\n      pop\n      pop\n      pop\n      pop\n      swap4\n      pop\n        /* \"AmphiTrans.sol\":4161:4342  if (_isTrans) {\r... */\n    tag_564:\n        /* \"AmphiTrans.sol\":4352:4389  LibProject.FileIndexInfo memory _info */\n      tag_567\n      0x40\n      dup1\n      mload\n      0x60\n      dup2\n      add\n      swap1\n      swap2\n      mstore\n      dup1\n      0x00\n      dup2\n      mstore\n      0x60\n      0x20\n      dup3\n      add\n      mstore\n      0x00\n      0x40\n      swap1\n      swap2\n      add\n      mstore\n      swap1\n      jump\n    tag_567:\n        /* \"AmphiTrans.sol\":4405:4414  uint256 i */\n      0x00\n        /* \"AmphiTrans.sol\":4400:4759  for (uint256 i = 0; i < _filesIndex.length; i++) {\r... */\n    tag_568:\n        /* \"AmphiTrans.sol\":4424:4435  _filesIndex */\n      dup6\n        /* \"AmphiTrans.sol\":4424:4442  _filesIndex.length */\n      mload\n        /* \"AmphiTrans.sol\":4420:4421  i */\n      dup2\n        /* \"AmphiTrans.sol\":4420:4442  i < _filesIndex.length */\n      lt\n        /* \"AmphiTrans.sol\":4400:4759  for (uint256 i = 0; i < _filesIndex.length; i++) {\r... */\n      iszero\n      tag_569\n      jumpi\n        /* \"AmphiTrans.sol\":4472:4489  transInfo[_index] */\n      0x00\n      dup12\n      dup2\n      mstore\n        /* \"AmphiTrans.sol\":4472:4481  transInfo */\n      0x03\n        /* \"AmphiTrans.sol\":4472:4489  transInfo[_index] */\n      0x20\n      swap1\n      dup2\n      mstore\n      0x40\n      dup1\n      dup4\n      keccak256\n      sub(shl(0xa0, 0x01), 0x01)\n        /* \"AmphiTrans.sol\":4472:4503  transInfo[_index][_taskerIndex] */\n      dup15\n      and\n      dup5\n      mstore\n      swap1\n      swap2\n      mstore\n      dup2\n      keccak256\n        /* \"AmphiTrans.sol\":4509:4523  _filesIndex[i] */\n      dup8\n      mload\n        /* \"AmphiTrans.sol\":4472:4508  transInfo[_index][_taskerIndex].info */\n      0x02\n      swap1\n      swap2\n      add\n      swap2\n        /* \"AmphiTrans.sol\":4472:4489  transInfo[_index] */\n      swap1\n        /* \"AmphiTrans.sol\":4509:4520  _filesIndex */\n      dup9\n      swap1\n        /* \"AmphiTrans.sol\":4521:4522  i */\n      dup5\n      swap1\n        /* \"AmphiTrans.sol\":4509:4523  _filesIndex[i] */\n      dup2\n      lt\n      tag_572\n      jumpi\n      tag_572\n      tag_298\n      jump\t// in\n    tag_572:\n      0x20\n      mul\n      0x20\n      add\n      add\n      mload\n        /* \"AmphiTrans.sol\":4472:4524  transInfo[_index][_taskerIndex].info[_filesIndex[i]] */\n      dup2\n      mstore\n      0x20\n      add\n      swap1\n      dup2\n      mstore\n      0x20\n      add\n      0x00\n      keccak256\n        /* \"AmphiTrans.sol\":4464:4524  _info = transInfo[_index][_taskerIndex].info[_filesIndex[i]] */\n      mload(0x40)\n      dup1\n      0x60\n      add\n      0x40\n      mstore\n      swap1\n      dup2\n      0x00\n      dup3\n      add\n      0x00\n      swap1\n      sload\n      swap1\n      0x0100\n      exp\n      swap1\n      div\n      0xff\n      and\n      0x04\n      dup2\n      gt\n      iszero\n      tag_574\n      jumpi\n      tag_574\n      tag_324\n      jump\t// in\n    tag_574:\n      0x04\n      dup2\n      gt\n      iszero\n      tag_576\n      jumpi\n      tag_576\n      tag_324\n      jump\t// in\n    tag_576:\n      dup2\n      mstore\n      0x20\n      add\n      0x01\n      dup3\n      add\n      dup1\n      sload\n      tag_577\n      swap1\n      tag_307\n      jump\t// in\n    tag_577:\n      dup1\n      0x1f\n      add\n      0x20\n      dup1\n      swap2\n      div\n      mul\n      0x20\n      add\n      mload(0x40)\n      swap1\n      dup2\n      add\n      0x40\n      mstore\n      dup1\n      swap3\n      swap2\n      swap1\n      dup2\n      dup2\n      mstore\n      0x20\n      add\n      dup3\n      dup1\n      sload\n      tag_578\n      swap1\n      tag_307\n      jump\t// in\n    tag_578:\n      dup1\n      iszero\n      tag_579\n      jumpi\n      dup1\n      0x1f\n      lt\n      tag_580\n      jumpi\n      0x0100\n      dup1\n      dup4\n      sload\n      div\n      mul\n      dup4\n      mstore\n      swap2\n      0x20\n      add\n      swap2\n      jump(tag_579)\n    tag_580:\n      dup3\n      add\n      swap2\n      swap1\n      0x00\n      mstore\n      keccak256(0x00, 0x20)\n      swap1\n    tag_581:\n      dup2\n      sload\n      dup2\n      mstore\n      swap1\n      0x01\n      add\n      swap1\n      0x20\n      add\n      dup1\n      dup4\n      gt\n      tag_581\n      jumpi\n      dup3\n      swap1\n      sub\n      0x1f\n      and\n      dup3\n      add\n      swap2\n    tag_579:\n      pop\n      pop\n      pop\n      swap2\n      dup4\n      mstore\n      pop\n      pop\n      0x02\n      swap2\n      swap1\n      swap2\n      add\n      sload\n      0xff\n      and\n      iszero\n      iszero\n      0x20\n      swap1\n      swap2\n      add\n      mstore\n      swap2\n      pop\n      0x00\n        /* \"AmphiTrans.sol\":4543:4554  _info.state */\n      dup3\n      mload\n        /* \"AmphiTrans.sol\":4543:4591  _info.state == LibProject.TaskerState.Processing */\n      0x04\n      dup2\n      gt\n      iszero\n      tag_585\n      jumpi\n      tag_585\n      tag_324\n      jump\t// in\n    tag_585:\n      eq\n        /* \"AmphiTrans.sol\":4539:4748  if (_info.state == LibProject.TaskerState.Processing) {\r... */\n      iszero\n      tag_586\n      jumpi\n        /* \"AmphiTrans.sol\":4623:4634  _filesIndex */\n      dup6\n        /* \"AmphiTrans.sol\":4635:4636  i */\n      dup2\n        /* \"AmphiTrans.sol\":4623:4637  _filesIndex[i] */\n      dup2\n      mload\n      dup2\n      lt\n      tag_588\n      jumpi\n      tag_588\n      tag_298\n      jump\t// in\n    tag_588:\n      0x20\n      mul\n      0x20\n      add\n      add\n      mload\n        /* \"AmphiTrans.sol\":4612:4617  _list */\n      dup6\n        /* \"AmphiTrans.sol\":4618:4619  q */\n      dup5\n        /* \"AmphiTrans.sol\":4612:4620  _list[q] */\n      dup2\n      mload\n      dup2\n      lt\n      tag_590\n      jumpi\n      tag_590\n      tag_298\n      jump\t// in\n    tag_590:\n      0x20\n      swap1\n      dup2\n      mul\n      swap2\n      swap1\n      swap2\n      add\n      add\n        /* \"AmphiTrans.sol\":4612:4637  _list[q] = _filesIndex[i] */\n      mstore\n        /* \"AmphiTrans.sol\":4656:4659  q++ */\n      dup3\n      tag_591\n      dup2\n      tag_291\n      jump\t// in\n    tag_591:\n      swap4\n      pop\n      pop\n        /* \"AmphiTrans.sol\":4687:4695  taskList */\n      0x01\n        /* \"AmphiTrans.sol\":4687:4703  taskList[_index] */\n      0x00\n        /* \"AmphiTrans.sol\":4696:4702  _index */\n      dup13\n        /* \"AmphiTrans.sol\":4687:4703  taskList[_index] */\n      dup2\n      mstore\n      0x20\n      add\n      swap1\n      dup2\n      mstore\n      0x20\n      add\n      0x00\n      keccak256\n        /* \"AmphiTrans.sol\":4687:4709  taskList[_index].tasks */\n      0x0c\n      add\n        /* \"AmphiTrans.sol\":4710:4721  _filesIndex */\n      dup7\n        /* \"AmphiTrans.sol\":4722:4723  i */\n      dup3\n        /* \"AmphiTrans.sol\":4710:4724  _filesIndex[i] */\n      dup2\n      mload\n      dup2\n      lt\n      tag_593\n      jumpi\n      tag_593\n      tag_298\n      jump\t// in\n    tag_593:\n      0x20\n      mul\n      0x20\n      add\n      add\n      mload\n        /* \"AmphiTrans.sol\":4687:4725  taskList[_index].tasks[_filesIndex[i]] */\n      dup2\n      sload\n      dup2\n      lt\n      tag_595\n      jumpi\n      tag_595\n      tag_298\n      jump\t// in\n    tag_595:\n      swap1\n      0x00\n      mstore\n      keccak256(0x00, 0x20)\n      swap1\n      0x0b\n      mul\n      add\n        /* \"AmphiTrans.sol\":4687:4732  taskList[_index].tasks[_filesIndex[i]].bounty */\n      0x07\n      add\n      sload\n        /* \"AmphiTrans.sol\":4678:4732  money += taskList[_index].tasks[_filesIndex[i]].bounty */\n      dup5\n      tag_597\n      swap2\n      swap1\n      tag_332\n      jump\t// in\n    tag_597:\n      swap4\n      pop\n        /* \"AmphiTrans.sol\":4539:4748  if (_info.state == LibProject.TaskerState.Processing) {\r... */\n    tag_586:\n        /* \"AmphiTrans.sol\":4444:4447  i++ */\n      dup1\n      tag_598\n      dup2\n      tag_291\n      jump\t// in\n    tag_598:\n      swap2\n      pop\n      pop\n        /* \"AmphiTrans.sol\":4400:4759  for (uint256 i = 0; i < _filesIndex.length; i++) {\r... */\n      jump(tag_568)\n    tag_569:\n      pop\n        /* \"AmphiTrans.sol\":4777:4782  _list */\n      swap3\n      swap10\n        /* \"AmphiTrans.sol\":4784:4789  money */\n      swap2\n      swap9\n      pop\n        /* \"AmphiTrans.sol\":3875:4798  function overTimeTasker(\r... */\n      swap1\n      swap7\n      pop\n      pop\n      pop\n      pop\n      pop\n      pop\n      pop\n      jump\t// out\n        /* \"AmphiTrans.sol\":8068:8199  function addTransWaitNumber(uint256 _index,address _address) public isAccess{\r... */\n    tag_211:\n        /* \"AmphiTrans.sol\":641:654  accessAddress */\n      and(sub(shl(0xa0, 0x01), 0x01), sload(0x06))\n        /* \"AmphiTrans.sol\":627:637  msg.sender */\n      caller\n        /* \"AmphiTrans.sol\":627:654  msg.sender != accessAddress */\n      eq\n        /* \"AmphiTrans.sol\":624:727  if(msg.sender != accessAddress) {\r... */\n      tag_601\n      jumpi\n        /* \"AmphiTrans.sol\":679:715  AccessError(\"Error Access Address!\") */\n      mload(0x40)\n      shl(0xe4, 0x048e2d49)\n      dup2\n      mstore\n        /* \"#utility.yul\":17990:17992   */\n      0x20\n        /* \"AmphiTrans.sol\":679:715  AccessError(\"Error Access Address!\") */\n      0x04\n      dup3\n      add\n        /* \"#utility.yul\":17972:17993   */\n      mstore\n        /* \"#utility.yul\":18029:18031   */\n      0x15\n        /* \"#utility.yul\":18009:18027   */\n      0x24\n      dup3\n      add\n        /* \"#utility.yul\":18002:18032   */\n      mstore\n      shl(0x58, 0x4572726f7220416363657373204164647265737321)\n        /* \"#utility.yul\":18048:18066   */\n      0x44\n      dup3\n      add\n        /* \"#utility.yul\":18041:18092   */\n      mstore\n        /* \"#utility.yul\":18109:18127   */\n      0x64\n      add\n        /* \"AmphiTrans.sol\":679:715  AccessError(\"Error Access Address!\") */\n      tag_287\n        /* \"#utility.yul\":17788:18133   */\n      jump\n        /* \"AmphiTrans.sol\":624:727  if(msg.sender != accessAddress) {\r... */\n    tag_601:\n        /* \"AmphiTrans.sol\":8155:8172  transInfo[_index] */\n      0x00\n      dup3\n      dup2\n      mstore\n        /* \"AmphiTrans.sol\":8155:8164  transInfo */\n      0x03\n        /* \"AmphiTrans.sol\":8155:8172  transInfo[_index] */\n      0x20\n      swap1\n      dup2\n      mstore\n      0x40\n      dup1\n      dup4\n      keccak256\n      sub(shl(0xa0, 0x01), 0x01)\n        /* \"AmphiTrans.sol\":8155:8182  transInfo[_index][_address] */\n      dup6\n      and\n      dup5\n      mstore\n      swap1\n      swap2\n      mstore\n      dup2\n      keccak256\n        /* \"AmphiTrans.sol\":8155:8189  transInfo[_index][_address].number */\n      0x01\n      add\n        /* \"AmphiTrans.sol\":8155:8191  transInfo[_index][_address].number++ */\n      dup1\n      sload\n      swap2\n      tag_290\n      dup4\n      tag_291\n      jump\t// in\n        /* \"AmphiTrans.sol\":3325:3494  function getTranslatorsList(uint256 _index)\r... */\n    tag_218:\n        /* \"AmphiTrans.sol\":3458:3474  taskList[_index] */\n      0x00\n      dup2\n      dup2\n      mstore\n        /* \"AmphiTrans.sol\":3458:3466  taskList */\n      0x01\n        /* \"AmphiTrans.sol\":3458:3474  taskList[_index] */\n      0x20\n      swap1\n      dup2\n      mstore\n      0x40\n      swap2\n      dup3\n      swap1\n      keccak256\n        /* \"AmphiTrans.sol\":3458:3486  taskList[_index].translators */\n      0x0d\n      add\n        /* \"AmphiTrans.sol\":3451:3486  return taskList[_index].translators */\n      dup1\n      sload\n      dup4\n      mload\n      dup2\n      dup5\n      mul\n      dup2\n      add\n      dup5\n      add\n      swap1\n      swap5\n      mstore\n      dup1\n      dup5\n      mstore\n        /* \"AmphiTrans.sol\":3417:3433  address[] memory */\n      0x60\n      swap4\n        /* \"AmphiTrans.sol\":3451:3486  return taskList[_index].translators */\n      swap3\n      dup4\n      add\n        /* \"AmphiTrans.sol\":3458:3486  taskList[_index].translators */\n      dup3\n        /* \"AmphiTrans.sol\":3451:3486  return taskList[_index].translators */\n      dup3\n      dup1\n      iszero\n      tag_607\n      jumpi\n      0x20\n      mul\n      dup3\n      add\n      swap2\n      swap1\n      0x00\n      mstore\n      keccak256(0x00, 0x20)\n      swap1\n    tag_608:\n      dup2\n      sload\n      sub(shl(0xa0, 0x01), 0x01)\n      and\n      dup2\n      mstore\n      0x01\n      swap1\n      swap2\n      add\n      swap1\n      0x20\n      add\n      dup1\n      dup4\n      gt\n      tag_608\n      jumpi\n    tag_607:\n      pop\n      pop\n      pop\n      pop\n      pop\n      swap1\n      pop\n        /* \"AmphiTrans.sol\":3325:3494  function getTranslatorsList(uint256 _index)\r... */\n      swap2\n      swap1\n      pop\n      jump\t// out\n        /* \"AmphiTrans.sol\":11315:11440  function addVf(uint256 _index, address _address) public isAccess {\r... */\n    tag_223:\n        /* \"AmphiTrans.sol\":641:654  accessAddress */\n      and(sub(shl(0xa0, 0x01), 0x01), sload(0x06))\n        /* \"AmphiTrans.sol\":627:637  msg.sender */\n      caller\n        /* \"AmphiTrans.sol\":627:654  msg.sender != accessAddress */\n      eq\n        /* \"AmphiTrans.sol\":624:727  if(msg.sender != accessAddress) {\r... */\n      tag_610\n      jumpi\n        /* \"AmphiTrans.sol\":679:715  AccessError(\"Error Access Address!\") */\n      mload(0x40)\n      shl(0xe4, 0x048e2d49)\n      dup2\n      mstore\n        /* \"#utility.yul\":17990:17992   */\n      0x20\n        /* \"AmphiTrans.sol\":679:715  AccessError(\"Error Access Address!\") */\n      0x04\n      dup3\n      add\n        /* \"#utility.yul\":17972:17993   */\n      mstore\n        /* \"#utility.yul\":18029:18031   */\n      0x15\n        /* \"#utility.yul\":18009:18027   */\n      0x24\n      dup3\n      add\n        /* \"#utility.yul\":18002:18032   */\n      mstore\n      shl(0x58, 0x4572726f7220416363657373204164647265737321)\n        /* \"#utility.yul\":18048:18066   */\n      0x44\n      dup3\n      add\n        /* \"#utility.yul\":18041:18092   */\n      mstore\n        /* \"#utility.yul\":18109:18127   */\n      0x64\n      add\n        /* \"AmphiTrans.sol\":679:715  AccessError(\"Error Access Address!\") */\n      tag_287\n        /* \"#utility.yul\":17788:18133   */\n      jump\n        /* \"AmphiTrans.sol\":624:727  if(msg.sender != accessAddress) {\r... */\n    tag_610:\n        /* \"AmphiTrans.sol\":11391:11407  taskList[_index] */\n      0x00\n      swap2\n      dup3\n      mstore\n        /* \"AmphiTrans.sol\":11391:11399  taskList */\n      0x01\n        /* \"AmphiTrans.sol\":11391:11407  taskList[_index] */\n      0x20\n      dup2\n      dup2\n      mstore\n      0x40\n      dup5\n      keccak256\n        /* \"AmphiTrans.sol\":11391:11417  taskList[_index].verifiers */\n      0x0e\n      add\n        /* \"AmphiTrans.sol\":11391:11432  taskList[_index].verifiers.push(_address) */\n      dup1\n      sload\n      swap3\n      dup4\n      add\n      dup2\n      sstore\n      dup5\n      mstore\n      swap1\n      swap3\n      keccak256\n      swap1\n      swap2\n      add\n      dup1\n      sload\n      not(0xffffffffffffffffffffffffffffffffffffffff)\n      and\n      sub(shl(0xa0, 0x01), 0x01)\n      swap1\n      swap3\n      and\n      swap2\n      swap1\n      swap2\n      or\n      swap1\n      sstore\n        /* \"AmphiTrans.sol\":11315:11440  function addVf(uint256 _index, address _address) public isAccess {\r... */\n      jump\t// out\n        /* \"AmphiTrans.sol\":10927:11134  function pushTaskVfIndex(\r... */\n    tag_226:\n        /* \"AmphiTrans.sol\":641:654  accessAddress */\n      and(sub(shl(0xa0, 0x01), 0x01), sload(0x06))\n        /* \"AmphiTrans.sol\":627:637  msg.sender */\n      caller\n        /* \"AmphiTrans.sol\":627:654  msg.sender != accessAddress */\n      eq\n        /* \"AmphiTrans.sol\":624:727  if(msg.sender != accessAddress) {\r... */\n      tag_615\n      jumpi\n        /* \"AmphiTrans.sol\":679:715  AccessError(\"Error Access Address!\") */\n      mload(0x40)\n      shl(0xe4, 0x048e2d49)\n      dup2\n      mstore\n        /* \"#utility.yul\":17990:17992   */\n      0x20\n        /* \"AmphiTrans.sol\":679:715  AccessError(\"Error Access Address!\") */\n      0x04\n      dup3\n      add\n        /* \"#utility.yul\":17972:17993   */\n      mstore\n        /* \"#utility.yul\":18029:18031   */\n      0x15\n        /* \"#utility.yul\":18009:18027   */\n      0x24\n      dup3\n      add\n        /* \"#utility.yul\":18002:18032   */\n      mstore\n      shl(0x58, 0x4572726f7220416363657373204164647265737321)\n        /* \"#utility.yul\":18048:18066   */\n      0x44\n      dup3\n      add\n        /* \"#utility.yul\":18041:18092   */\n      mstore\n        /* \"#utility.yul\":18109:18127   */\n      0x64\n      add\n        /* \"AmphiTrans.sol\":679:715  AccessError(\"Error Access Address!\") */\n      tag_287\n        /* \"#utility.yul\":17788:18133   */\n      jump\n        /* \"AmphiTrans.sol\":624:727  if(msg.sender != accessAddress) {\r... */\n    tag_615:\n        /* \"AmphiTrans.sol\":11071:11085  vfInfo[_index] */\n      0x00\n      swap3\n      dup4\n      mstore\n        /* \"AmphiTrans.sol\":11071:11077  vfInfo */\n      0x04\n        /* \"AmphiTrans.sol\":11071:11085  vfInfo[_index] */\n      0x20\n      swap1\n      dup2\n      mstore\n      0x40\n      dup1\n      dup6\n      keccak256\n      sub(shl(0xa0, 0x01), 0x01)\n        /* \"AmphiTrans.sol\":11071:11099  vfInfo[_index][_taskerIndex] */\n      swap1\n      swap5\n      and\n      dup6\n      mstore\n      swap3\n      dup2\n      mstore\n      swap2\n      dup4\n      keccak256\n        /* \"AmphiTrans.sol\":11071:11126  vfInfo[_index][_taskerIndex].taskIndex.push(_fileIndex) */\n      dup1\n      sload\n      0x01\n      dup2\n      add\n      dup3\n      sstore\n      swap1\n      dup5\n      mstore\n      swap2\n      swap1\n      swap3\n      keccak256\n      add\n      sstore\n        /* \"AmphiTrans.sol\":10927:11134  function pushTaskVfIndex(\r... */\n      jump\t// out\n        /* \"AmphiTrans.sol\":11790:13126  function addProject(LibProject.ProParm memory _t, address _buyer)\r... */\n    tag_230:\n        /* \"AmphiTrans.sol\":641:654  accessAddress */\n      sload(0x06)\n        /* \"AmphiTrans.sol\":11899:11906  uint256 */\n      0x00\n      swap1\n      sub(shl(0xa0, 0x01), 0x01)\n        /* \"AmphiTrans.sol\":641:654  accessAddress */\n      and\n        /* \"AmphiTrans.sol\":627:637  msg.sender */\n      caller\n        /* \"AmphiTrans.sol\":627:654  msg.sender != accessAddress */\n      eq\n        /* \"AmphiTrans.sol\":624:727  if(msg.sender != accessAddress) {\r... */\n      tag_620\n      jumpi\n        /* \"AmphiTrans.sol\":679:715  AccessError(\"Error Access Address!\") */\n      mload(0x40)\n      shl(0xe4, 0x048e2d49)\n      dup2\n      mstore\n        /* \"#utility.yul\":17990:17992   */\n      0x20\n        /* \"AmphiTrans.sol\":679:715  AccessError(\"Error Access Address!\") */\n      0x04\n      dup3\n      add\n        /* \"#utility.yul\":17972:17993   */\n      mstore\n        /* \"#utility.yul\":18029:18031   */\n      0x15\n        /* \"#utility.yul\":18009:18027   */\n      0x24\n      dup3\n      add\n        /* \"#utility.yul\":18002:18032   */\n      mstore\n      shl(0x58, 0x4572726f7220416363657373204164647265737321)\n        /* \"#utility.yul\":18048:18066   */\n      0x44\n      dup3\n      add\n        /* \"#utility.yul\":18041:18092   */\n      mstore\n        /* \"#utility.yul\":18109:18127   */\n      0x64\n      add\n        /* \"AmphiTrans.sol\":679:715  AccessError(\"Error Access Address!\") */\n      tag_287\n        /* \"#utility.yul\":17788:18133   */\n      jump\n        /* \"AmphiTrans.sol\":624:727  if(msg.sender != accessAddress) {\r... */\n    tag_620:\n        /* \"AmphiTrans.sol\":11924:11929  count */\n      0x05\n        /* \"AmphiTrans.sol\":11924:11931  count++ */\n      dup1\n      sload\n      swap1\n        /* \"AmphiTrans.sol\":11924:11929  count */\n      0x00\n        /* \"AmphiTrans.sol\":11924:11931  count++ */\n      tag_623\n      dup4\n      tag_291\n      jump\t// in\n    tag_623:\n      swap1\n      swap2\n      sstore\n      pop\n      pop\n        /* \"AmphiTrans.sol\":12036:12041  count */\n      sload(0x05)\n        /* \"AmphiTrans.sol\":11986:12024  LibProject.TranslationPro storage _pro */\n      0x00\n        /* \"AmphiTrans.sol\":12027:12042  taskList[count] */\n      swap1\n      dup2\n      mstore\n        /* \"AmphiTrans.sol\":12027:12035  taskList */\n      0x01\n        /* \"AmphiTrans.sol\":12027:12042  taskList[count] */\n      0x20\n      dup2\n      dup2\n      mstore\n      0x40\n      swap1\n      swap3\n      keccak256\n        /* \"AmphiTrans.sol\":12053:12072  _pro.buyer = _buyer */\n      dup1\n      sload\n      not(0xffffffffffffffffffffffffffffffffffffffff)\n      and\n      sub(shl(0xa0, 0x01), 0x01)\n      dup7\n      and\n      or\n      dup2\n      sstore\n        /* \"AmphiTrans.sol\":12102:12116  _t.releaseTime */\n      dup6\n      mload\n        /* \"AmphiTrans.sol\":12083:12099  _pro.releaseTime */\n      swap2\n      dup2\n      add\n        /* \"AmphiTrans.sol\":12083:12116  _pro.releaseTime = _t.releaseTime */\n      swap2\n      swap1\n      swap2\n      sstore\n        /* \"AmphiTrans.sol\":12144:12156  _t.introduce */\n      dup5\n      dup3\n      add\n      mload\n        /* \"AmphiTrans.sol\":12127:12156  _pro.introduce = _t.introduce */\n      dup1\n      mload\n        /* \"AmphiTrans.sol\":12027:12042  taskList[count] */\n      swap2\n      swap3\n        /* \"AmphiTrans.sol\":12127:12156  _pro.introduce = _t.introduce */\n      tag_624\n      swap3\n        /* \"AmphiTrans.sol\":12127:12141  _pro.introduce */\n      0x02\n      dup6\n      add\n      swap3\n        /* \"AmphiTrans.sol\":12127:12156  _pro.introduce = _t.introduce */\n      swap1\n      swap2\n      add\n      swap1\n      tag_301\n      jump\t// in\n    tag_624:\n      pop\n        /* \"AmphiTrans.sol\":12179:12186  _t.need */\n      0x40\n      dup5\n      add\n      mload\n        /* \"AmphiTrans.sol\":12167:12186  _pro.need = _t.need */\n      dup1\n      mload\n      tag_625\n      swap2\n        /* \"AmphiTrans.sol\":12167:12176  _pro.need */\n      0x03\n      dup5\n      add\n      swap2\n        /* \"AmphiTrans.sol\":12167:12186  _pro.need = _t.need */\n      0x20\n      swap1\n      swap2\n      add\n      swap1\n      tag_301\n      jump\t// in\n    tag_625:\n      pop\n        /* \"AmphiTrans.sol\":12213:12224  _t.deadline */\n      0x60\n      dup5\n      add\n      mload\n        /* \"AmphiTrans.sol\":12197:12210  _pro.deadline */\n      0x04\n      dup3\n      add\n        /* \"AmphiTrans.sol\":12197:12224  _pro.deadline = _t.deadline */\n      sstore\n        /* \"AmphiTrans.sol\":12257:12274  _t.sourceLanguage */\n      0x80\n      dup5\n      add\n      mload\n        /* \"AmphiTrans.sol\":12235:12254  _pro.sourceLanguage */\n      0x05\n      dup3\n      add\n        /* \"AmphiTrans.sol\":12235:12274  _pro.sourceLanguage = _t.sourceLanguage */\n      sstore\n        /* \"AmphiTrans.sol\":12305:12320  _t.goalLanguage */\n      0xa0\n      dup5\n      add\n      mload\n        /* \"AmphiTrans.sol\":12285:12302  _pro.goalLanguage */\n      0x06\n      dup3\n      add\n        /* \"AmphiTrans.sol\":12285:12320  _pro.goalLanguage = _t.goalLanguage */\n      sstore\n        /* \"AmphiTrans.sol\":12349:12362  _t.preferList */\n      0xc0\n      dup5\n      add\n      mload\n        /* \"AmphiTrans.sol\":12331:12362  _pro.preferList = _t.preferList */\n      dup1\n      mload\n      tag_626\n      swap2\n        /* \"AmphiTrans.sol\":12331:12346  _pro.preferList */\n      0x07\n      dup5\n      add\n      swap2\n        /* \"AmphiTrans.sol\":12331:12362  _pro.preferList = _t.preferList */\n      0x20\n      swap1\n      swap2\n      add\n      swap1\n      tag_353\n      jump\t// in\n    tag_626:\n      pop\n        /* \"AmphiTrans.sol\":12396:12414  _t.translationType */\n      0xe0\n      dup5\n      add\n      mload\n        /* \"AmphiTrans.sol\":12373:12393  _pro.translationType */\n      0x08\n      dup3\n      add\n        /* \"AmphiTrans.sol\":12373:12414  _pro.translationType = _t.translationType */\n      sstore\n        /* \"AmphiTrans.sol\":12441:12452  _t.workLoad */\n      0x0100\n      dup1\n      dup6\n      add\n      mload\n        /* \"AmphiTrans.sol\":12425:12438  _pro.workLoad */\n      0x09\n      dup4\n      add\n        /* \"AmphiTrans.sol\":12425:12452  _pro.workLoad = _t.workLoad */\n      sstore\n        /* \"AmphiTrans.sol\":12477:12486  _t.bounty */\n      0x0160\n      dup6\n      add\n      mload\n        /* \"AmphiTrans.sol\":12463:12474  _pro.bounty */\n      0x0b\n      dup4\n      add\n        /* \"AmphiTrans.sol\":12463:12486  _pro.bounty = _t.bounty */\n      sstore\n        /* \"AmphiTrans.sol\":12520:12538  _t.isNonDisclosure */\n      0x0120\n      dup6\n      add\n      mload\n        /* \"AmphiTrans.sol\":12497:12517  _pro.isNonDisclosure */\n      0x0a\n      dup4\n      add\n        /* \"AmphiTrans.sol\":12497:12538  _pro.isNonDisclosure = _t.isNonDisclosure */\n      dup1\n      sload\n        /* \"AmphiTrans.sol\":12568:12582  _t.isCustomize */\n      0x0140\n      dup9\n      add\n      mload\n        /* \"AmphiTrans.sol\":12549:12582  _pro.isCustomize = _t.isCustomize */\n      iszero\n      dup1\n      iszero\n      swap1\n      swap5\n      mul\n      not(0xff00)\n        /* \"AmphiTrans.sol\":12497:12538  _pro.isNonDisclosure = _t.isNonDisclosure */\n      swap4\n      iszero\n      iszero\n        /* \"AmphiTrans.sol\":12549:12582  _pro.isCustomize = _t.isCustomize */\n      swap4\n      swap1\n      swap4\n      and\n      not(0xffff)\n      swap1\n      swap2\n      and\n      or\n      swap2\n      swap1\n      swap2\n      or\n      swap1\n      sstore\n        /* \"AmphiTrans.sol\":12593:12783  if (_t.isCustomize) {\r... */\n      tag_627\n      jumpi\n        /* \"AmphiTrans.sol\":12640:12648  _t.tasks */\n      0x0180\n      dup5\n      add\n      mload\n        /* \"AmphiTrans.sol\":12640:12655  _t.tasks.length */\n      mload\n        /* \"AmphiTrans.sol\":12628:12637  _pro.maxT */\n      0x0f\n      dup3\n      add\n        /* \"AmphiTrans.sol\":12628:12655  _pro.maxT = _t.tasks.length */\n      dup2\n      swap1\n      sstore\n        /* \"AmphiTrans.sol\":12670:12679  _pro.maxV */\n      0x10\n      dup3\n      add\n        /* \"AmphiTrans.sol\":12670:12697  _pro.maxV = _t.tasks.length */\n      sstore\n        /* \"AmphiTrans.sol\":12593:12783  if (_t.isCustomize) {\r... */\n      jump(tag_628)\n    tag_627:\n        /* \"AmphiTrans.sol\":12742:12743  1 */\n      0x01\n        /* \"AmphiTrans.sol\":12730:12739  _pro.maxT */\n      0x0f\n      dup3\n      add\n        /* \"AmphiTrans.sol\":12730:12743  _pro.maxT = 1 */\n      dup2\n      swap1\n      sstore\n        /* \"AmphiTrans.sol\":12758:12767  _pro.maxV */\n      0x10\n      dup3\n      add\n        /* \"AmphiTrans.sol\":12758:12771  _pro.maxV = 1 */\n      sstore\n        /* \"AmphiTrans.sol\":12593:12783  if (_t.isCustomize) {\r... */\n    tag_628:\n        /* \"AmphiTrans.sol\":12853:12871  _pro.isTransActive */\n      0x13\n      dup2\n      add\n        /* \"AmphiTrans.sol\":12853:12878  _pro.isTransActive = true */\n      dup1\n      sload\n      not(0xffff)\n        /* \"AmphiTrans.sol\":12889:12912  _pro.isVerActive = true */\n      and\n      0x0101\n      or\n      swap1\n      sstore\n      0x00\n        /* \"AmphiTrans.sol\":12923:13087  for (uint256 i = 0; i < _t.tasks.length; i++) {\r... */\n    tag_629:\n        /* \"AmphiTrans.sol\":12947:12949  _t */\n      dup5\n        /* \"AmphiTrans.sol\":12947:12955  _t.tasks */\n      0x0180\n      add\n      mload\n        /* \"AmphiTrans.sol\":12947:12962  _t.tasks.length */\n      mload\n        /* \"AmphiTrans.sol\":12943:12944  i */\n      dup2\n        /* \"AmphiTrans.sol\":12943:12962  i < _t.tasks.length */\n      lt\n        /* \"AmphiTrans.sol\":12923:13087  for (uint256 i = 0; i < _t.tasks.length; i++) {\r... */\n      iszero\n      tag_630\n      jumpi\n        /* \"AmphiTrans.sol\":13004:13032  LibProject.FileState.Waiting */\n      0x00\n        /* \"AmphiTrans.sol\":12984:12986  _t */\n      dup6\n        /* \"AmphiTrans.sol\":12984:12992  _t.tasks */\n      0x0180\n      add\n      mload\n        /* \"AmphiTrans.sol\":12993:12994  i */\n      dup3\n        /* \"AmphiTrans.sol\":12984:12995  _t.tasks[i] */\n      dup2\n      mload\n      dup2\n      lt\n      tag_633\n      jumpi\n      tag_633\n      tag_298\n      jump\t// in\n    tag_633:\n      0x20\n      mul\n      0x20\n      add\n      add\n      mload\n        /* \"AmphiTrans.sol\":12984:13001  _t.tasks[i].state */\n      0x60\n      add\n        /* \"AmphiTrans.sol\":12984:13032  _t.tasks[i].state = LibProject.FileState.Waiting */\n      swap1\n      0x0b\n      dup2\n      gt\n      iszero\n      tag_635\n      jumpi\n      tag_635\n      tag_324\n      jump\t// in\n    tag_635:\n      swap1\n      dup2\n      0x0b\n      dup2\n      gt\n      iszero\n      tag_637\n      jumpi\n      tag_637\n      tag_324\n      jump\t// in\n    tag_637:\n      dup2\n      mstore\n      pop\n      pop\n        /* \"AmphiTrans.sol\":13047:13051  _pro */\n      dup2\n        /* \"AmphiTrans.sol\":13047:13057  _pro.tasks */\n      0x0c\n      add\n        /* \"AmphiTrans.sol\":13063:13065  _t */\n      dup6\n        /* \"AmphiTrans.sol\":13063:13071  _t.tasks */\n      0x0180\n      add\n      mload\n        /* \"AmphiTrans.sol\":13072:13073  i */\n      dup3\n        /* \"AmphiTrans.sol\":13063:13074  _t.tasks[i] */\n      dup2\n      mload\n      dup2\n      lt\n      tag_639\n      jumpi\n      tag_639\n      tag_298\n      jump\t// in\n    tag_639:\n      0x20\n      swap1\n      dup2\n      mul\n      swap2\n      swap1\n      swap2\n      add\n      dup2\n      add\n      mload\n        /* \"AmphiTrans.sol\":13047:13075  _pro.tasks.push(_t.tasks[i]) */\n      dup3\n      sload\n      0x01\n      dup2\n      add\n      dup5\n      sstore\n      0x00\n      swap4\n      dup5\n      mstore\n      swap3\n      dup3\n      swap1\n      keccak256\n      dup2\n      mload\n      dup1\n      mload\n      dup1\n      mload\n        /* \"AmphiTrans.sol\":13063:13074  _t.tasks[i] */\n      swap4\n      swap6\n        /* \"AmphiTrans.sol\":13047:13075  _pro.tasks.push(_t.tasks[i]) */\n      0x0b\n      mul\n      swap1\n      swap3\n      add\n      swap4\n      swap1\n      swap3\n      dup5\n      swap3\n      tag_641\n      swap3\n      dup5\n      swap3\n      swap2\n      add\n      swap1\n      tag_301\n      jump\t// in\n    tag_641:\n      pop\n      0x20\n      dup3\n      dup2\n      add\n      mload\n      0x01\n      dup4\n      add\n      sstore\n      0x40\n      dup4\n      add\n      mload\n      0x02\n      dup4\n      add\n      sstore\n      0x60\n      dup4\n      add\n      mload\n      0x03\n      dup4\n      add\n      sstore\n      0x80\n      dup4\n      add\n      mload\n      0x04\n      dup4\n      add\n      sstore\n      0xa0\n      dup4\n      add\n      mload\n      0x05\n      dup4\n      add\n      sstore\n      0xc0\n      dup4\n      add\n      mload\n      dup1\n      mload\n      tag_642\n      swap3\n      0x06\n      dup6\n      add\n      swap3\n      add\n      swap1\n      tag_301\n      jump\t// in\n    tag_642:\n      pop\n      pop\n      pop\n      0x20\n      dup3\n      dup2\n      add\n      mload\n      0x07\n      dup4\n      add\n      sstore\n      0x40\n      dup4\n      add\n      mload\n      dup1\n      mload\n      tag_643\n      swap3\n      0x08\n      dup6\n      add\n      swap3\n      add\n      swap1\n      tag_301\n      jump\t// in\n    tag_643:\n      pop\n      0x60\n      dup3\n      add\n      mload\n      0x09\n      dup3\n      add\n      dup1\n      sload\n      not(0xff)\n      and\n      0x01\n      dup4\n      0x0b\n      dup2\n      gt\n      iszero\n      tag_645\n      jumpi\n      tag_645\n      tag_324\n      jump\t// in\n    tag_645:\n      mul\n      or\n      swap1\n      sstore\n      pop\n      0x80\n      dup3\n      add\n      mload\n      dup2\n      0x0a\n      add\n      sstore\n      pop\n      pop\n        /* \"AmphiTrans.sol\":12964:12967  i++ */\n      dup1\n      dup1\n      tag_646\n      swap1\n      tag_291\n      jump\t// in\n    tag_646:\n      swap2\n      pop\n      pop\n        /* \"AmphiTrans.sol\":12923:13087  for (uint256 i = 0; i < _t.tasks.length; i++) {\r... */\n      jump(tag_629)\n    tag_630:\n      pop\n      pop\n        /* \"AmphiTrans.sol\":13113:13118  count */\n      sload(0x05)\n      swap4\n        /* \"AmphiTrans.sol\":11790:13126  function addProject(LibProject.ProParm memory _t, address _buyer)\r... */\n      swap3\n      pop\n      pop\n      pop\n      jump\t// out\n        /* \"AmphiTrans.sol\":752:855  function setAccessAddress(address _address) public onlyOwner{\r... */\n    tag_238:\n        /* \"contracts/access/Ownable.sol\":1094:1107  _checkOwner() */\n      tag_649\n        /* \"contracts/access/Ownable.sol\":1094:1105  _checkOwner */\n      tag_510\n        /* \"contracts/access/Ownable.sol\":1094:1107  _checkOwner() */\n      jump\t// in\n    tag_649:\n        /* \"AmphiTrans.sol\":823:836  accessAddress */\n      0x06\n        /* \"AmphiTrans.sol\":823:847  accessAddress = _address */\n      dup1\n      sload\n      not(0xffffffffffffffffffffffffffffffffffffffff)\n      and\n      sub(shl(0xa0, 0x01), 0x01)\n      swap3\n      swap1\n      swap3\n      and\n      swap2\n      swap1\n      swap2\n      or\n      swap1\n      sstore\n        /* \"AmphiTrans.sol\":752:855  function setAccessAddress(address _address) public onlyOwner{\r... */\n      jump\t// out\n        /* \"AmphiTrans.sol\":5098:5297  function getFileState(uint256 _index, uint256 _fileIndex)\r... */\n    tag_242:\n        /* \"AmphiTrans.sol\":5204:5224  LibProject.FileState */\n      0x00\n        /* \"AmphiTrans.sol\":5249:5265  taskList[_index] */\n      dup3\n      dup2\n      mstore\n        /* \"AmphiTrans.sol\":5249:5257  taskList */\n      0x01\n        /* \"AmphiTrans.sol\":5249:5265  taskList[_index] */\n      0x20\n      mstore\n      0x40\n      dup2\n      keccak256\n        /* \"AmphiTrans.sol\":5249:5271  taskList[_index].tasks */\n      0x0c\n      add\n        /* \"AmphiTrans.sol\":5249:5283  taskList[_index].tasks[_fileIndex] */\n      dup1\n      sload\n        /* \"AmphiTrans.sol\":5272:5282  _fileIndex */\n      dup4\n      swap1\n        /* \"AmphiTrans.sol\":5249:5283  taskList[_index].tasks[_fileIndex] */\n      dup2\n      lt\n      tag_653\n      jumpi\n      tag_653\n      tag_298\n      jump\t// in\n    tag_653:\n      0x00\n      swap2\n      dup3\n      mstore\n      0x20\n      swap1\n      swap2\n      keccak256\n      0x0b\n      swap1\n      swap2\n      mul\n      add\n        /* \"AmphiTrans.sol\":5249:5289  taskList[_index].tasks[_fileIndex].state */\n      0x09\n      add\n      sload\n      0xff\n      and\n      swap4\n        /* \"AmphiTrans.sol\":5098:5297  function getFileState(uint256 _index, uint256 _fileIndex)\r... */\n      swap3\n      pop\n      pop\n      pop\n      jump\t// out\n        /* \"AmphiTrans.sol\":3531:3657  function getVfList(uint256 _index) public view returns (address[] memory) {\r... */\n    tag_247:\n        /* \"AmphiTrans.sol\":3623:3639  taskList[_index] */\n      0x00\n      dup2\n      dup2\n      mstore\n        /* \"AmphiTrans.sol\":3623:3631  taskList */\n      0x01\n        /* \"AmphiTrans.sol\":3623:3639  taskList[_index] */\n      0x20\n      swap1\n      dup2\n      mstore\n      0x40\n      swap2\n      dup3\n      swap1\n      keccak256\n        /* \"AmphiTrans.sol\":3623:3649  taskList[_index].verifiers */\n      0x0e\n      add\n        /* \"AmphiTrans.sol\":3616:3649  return taskList[_index].verifiers */\n      dup1\n      sload\n      dup4\n      mload\n      dup2\n      dup5\n      mul\n      dup2\n      add\n      dup5\n      add\n      swap1\n      swap5\n      mstore\n      dup1\n      dup5\n      mstore\n        /* \"AmphiTrans.sol\":3587:3603  address[] memory */\n      0x60\n      swap4\n        /* \"AmphiTrans.sol\":3616:3649  return taskList[_index].verifiers */\n      swap3\n      dup4\n      add\n        /* \"AmphiTrans.sol\":3623:3649  taskList[_index].verifiers */\n      dup3\n        /* \"AmphiTrans.sol\":3616:3649  return taskList[_index].verifiers */\n      dup3\n      dup1\n      iszero\n      tag_607\n      jumpi\n      0x20\n      mul\n      dup3\n      add\n      swap2\n      swap1\n      0x00\n      mstore\n      keccak256(0x00, 0x20)\n      swap1\n      dup2\n      sload\n      sub(shl(0xa0, 0x01), 0x01)\n      and\n      dup2\n      mstore\n      0x01\n      swap1\n      swap2\n      add\n      swap1\n      0x20\n      add\n      dup1\n      dup4\n      gt\n      tag_608\n      jumpi\n      pop\n      pop\n      pop\n      pop\n      pop\n      swap1\n      pop\n        /* \"AmphiTrans.sol\":3531:3657  function getVfList(uint256 _index) public view returns (address[] memory) {\r... */\n      swap2\n      swap1\n      pop\n      jump\t// out\n        /* \"AmphiTrans.sol\":10190:10377  function changeVerActive(uint256 _index, bool _bool) public isAccess {\r... */\n    tag_251:\n        /* \"AmphiTrans.sol\":641:654  accessAddress */\n      and(sub(shl(0xa0, 0x01), 0x01), sload(0x06))\n        /* \"AmphiTrans.sol\":627:637  msg.sender */\n      caller\n        /* \"AmphiTrans.sol\":627:654  msg.sender != accessAddress */\n      eq\n        /* \"AmphiTrans.sol\":624:727  if(msg.sender != accessAddress) {\r... */\n      tag_659\n      jumpi\n        /* \"AmphiTrans.sol\":679:715  AccessError(\"Error Access Address!\") */\n      mload(0x40)\n      shl(0xe4, 0x048e2d49)\n      dup2\n      mstore\n        /* \"#utility.yul\":17990:17992   */\n      0x20\n        /* \"AmphiTrans.sol\":679:715  AccessError(\"Error Access Address!\") */\n      0x04\n      dup3\n      add\n        /* \"#utility.yul\":17972:17993   */\n      mstore\n        /* \"#utility.yul\":18029:18031   */\n      0x15\n        /* \"#utility.yul\":18009:18027   */\n      0x24\n      dup3\n      add\n        /* \"#utility.yul\":18002:18032   */\n      mstore\n      shl(0x58, 0x4572726f7220416363657373204164647265737321)\n        /* \"#utility.yul\":18048:18066   */\n      0x44\n      dup3\n      add\n        /* \"#utility.yul\":18041:18092   */\n      mstore\n        /* \"#utility.yul\":18109:18127   */\n      0x64\n      add\n        /* \"AmphiTrans.sol\":679:715  AccessError(\"Error Access Address!\") */\n      tag_287\n        /* \"#utility.yul\":17788:18133   */\n      jump\n        /* \"AmphiTrans.sol\":624:727  if(msg.sender != accessAddress) {\r... */\n    tag_659:\n        /* \"AmphiTrans.sol\":10270:10286  taskList[_index] */\n      0x00\n      swap2\n      dup3\n      mstore\n        /* \"AmphiTrans.sol\":10270:10278  taskList */\n      0x01\n        /* \"AmphiTrans.sol\":10270:10286  taskList[_index] */\n      0x20\n      mstore\n      0x40\n      swap1\n      swap2\n      keccak256\n        /* \"AmphiTrans.sol\":10270:10298  taskList[_index].isVerActive */\n      0x13\n      add\n        /* \"AmphiTrans.sol\":10270:10306  taskList[_index].isVerActive = _bool */\n      dup1\n      sload\n      swap2\n      iszero\n      iszero\n      0x0100\n      mul\n      not(0xff00)\n      swap1\n      swap3\n      and\n      swap2\n      swap1\n      swap2\n      or\n      swap1\n      sstore\n        /* \"AmphiTrans.sol\":10190:10377  function changeVerActive(uint256 _index, bool _bool) public isAccess {\r... */\n      jump\t// out\n        /* \"AmphiTrans.sol\":8205:8338  function decutTransWaitNumber(uint256 _index,address _address) public isAccess{\r... */\n    tag_254:\n        /* \"AmphiTrans.sol\":641:654  accessAddress */\n      and(sub(shl(0xa0, 0x01), 0x01), sload(0x06))\n        /* \"AmphiTrans.sol\":627:637  msg.sender */\n      caller\n        /* \"AmphiTrans.sol\":627:654  msg.sender != accessAddress */\n      eq\n        /* \"AmphiTrans.sol\":624:727  if(msg.sender != accessAddress) {\r... */\n      tag_663\n      jumpi\n        /* \"AmphiTrans.sol\":679:715  AccessError(\"Error Access Address!\") */\n      mload(0x40)\n      shl(0xe4, 0x048e2d49)\n      dup2\n      mstore\n        /* \"#utility.yul\":17990:17992   */\n      0x20\n        /* \"AmphiTrans.sol\":679:715  AccessError(\"Error Access Address!\") */\n      0x04\n      dup3\n      add\n        /* \"#utility.yul\":17972:17993   */\n      mstore\n        /* \"#utility.yul\":18029:18031   */\n      0x15\n        /* \"#utility.yul\":18009:18027   */\n      0x24\n      dup3\n      add\n        /* \"#utility.yul\":18002:18032   */\n      mstore\n      shl(0x58, 0x4572726f7220416363657373204164647265737321)\n        /* \"#utility.yul\":18048:18066   */\n      0x44\n      dup3\n      add\n        /* \"#utility.yul\":18041:18092   */\n      mstore\n        /* \"#utility.yul\":18109:18127   */\n      0x64\n      add\n        /* \"AmphiTrans.sol\":679:715  AccessError(\"Error Access Address!\") */\n      tag_287\n        /* \"#utility.yul\":17788:18133   */\n      jump\n        /* \"AmphiTrans.sol\":624:727  if(msg.sender != accessAddress) {\r... */\n    tag_663:\n        /* \"AmphiTrans.sol\":8294:8311  transInfo[_index] */\n      0x00\n      dup3\n      dup2\n      mstore\n        /* \"AmphiTrans.sol\":8294:8303  transInfo */\n      0x03\n        /* \"AmphiTrans.sol\":8294:8311  transInfo[_index] */\n      0x20\n      swap1\n      dup2\n      mstore\n      0x40\n      dup1\n      dup4\n      keccak256\n      sub(shl(0xa0, 0x01), 0x01)\n        /* \"AmphiTrans.sol\":8294:8321  transInfo[_index][_address] */\n      dup6\n      and\n      dup5\n      mstore\n      swap1\n      swap2\n      mstore\n      dup2\n      keccak256\n        /* \"AmphiTrans.sol\":8294:8328  transInfo[_index][_address].number */\n      0x01\n      add\n        /* \"AmphiTrans.sol\":8294:8330  transInfo[_index][_address].number-- */\n      dup1\n      sload\n      swap2\n      tag_290\n      dup4\n      tag_520\n      jump\t// in\n        /* \"AmphiTrans.sol\":10552:10650  function addVfNumber(uint256 _index) public isAccess {\r... */\n    tag_257:\n        /* \"AmphiTrans.sol\":641:654  accessAddress */\n      and(sub(shl(0xa0, 0x01), 0x01), sload(0x06))\n        /* \"AmphiTrans.sol\":627:637  msg.sender */\n      caller\n        /* \"AmphiTrans.sol\":627:654  msg.sender != accessAddress */\n      eq\n        /* \"AmphiTrans.sol\":624:727  if(msg.sender != accessAddress) {\r... */\n      tag_668\n      jumpi\n        /* \"AmphiTrans.sol\":679:715  AccessError(\"Error Access Address!\") */\n      mload(0x40)\n      shl(0xe4, 0x048e2d49)\n      dup2\n      mstore\n        /* \"#utility.yul\":17990:17992   */\n      0x20\n        /* \"AmphiTrans.sol\":679:715  AccessError(\"Error Access Address!\") */\n      0x04\n      dup3\n      add\n        /* \"#utility.yul\":17972:17993   */\n      mstore\n        /* \"#utility.yul\":18029:18031   */\n      0x15\n        /* \"#utility.yul\":18009:18027   */\n      0x24\n      dup3\n      add\n        /* \"#utility.yul\":18002:18032   */\n      mstore\n      shl(0x58, 0x4572726f7220416363657373204164647265737321)\n        /* \"#utility.yul\":18048:18066   */\n      0x44\n      dup3\n      add\n        /* \"#utility.yul\":18041:18092   */\n      mstore\n        /* \"#utility.yul\":18109:18127   */\n      0x64\n      add\n        /* \"AmphiTrans.sol\":679:715  AccessError(\"Error Access Address!\") */\n      tag_287\n        /* \"#utility.yul\":17788:18133   */\n      jump\n        /* \"AmphiTrans.sol\":624:727  if(msg.sender != accessAddress) {\r... */\n    tag_668:\n        /* \"AmphiTrans.sol\":10616:10632  taskList[_index] */\n      0x00\n      dup2\n      dup2\n      mstore\n        /* \"AmphiTrans.sol\":10616:10624  taskList */\n      0x01\n        /* \"AmphiTrans.sol\":10616:10632  taskList[_index] */\n      0x20\n      mstore\n      0x40\n      dup2\n      keccak256\n        /* \"AmphiTrans.sol\":10616:10640  taskList[_index].numberV */\n      0x12\n      add\n        /* \"AmphiTrans.sol\":10616:10642  taskList[_index].numberV++ */\n      dup1\n      sload\n      swap2\n      tag_445\n      dup4\n      tag_291\n      jump\t// in\n        /* \"AmphiTrans.sol\":11446:11614  function isUsedToTrans(uint256 _index, uint256 _fileIndex,address _address) public isAccess{\r... */\n    tag_260:\n        /* \"AmphiTrans.sol\":641:654  accessAddress */\n      and(sub(shl(0xa0, 0x01), 0x01), sload(0x06))\n        /* \"AmphiTrans.sol\":627:637  msg.sender */\n      caller\n        /* \"AmphiTrans.sol\":627:654  msg.sender != accessAddress */\n      eq\n        /* \"AmphiTrans.sol\":624:727  if(msg.sender != accessAddress) {\r... */\n      tag_673\n      jumpi\n        /* \"AmphiTrans.sol\":679:715  AccessError(\"Error Access Address!\") */\n      mload(0x40)\n      shl(0xe4, 0x048e2d49)\n      dup2\n      mstore\n        /* \"#utility.yul\":17990:17992   */\n      0x20\n        /* \"AmphiTrans.sol\":679:715  AccessError(\"Error Access Address!\") */\n      0x04\n      dup3\n      add\n        /* \"#utility.yul\":17972:17993   */\n      mstore\n        /* \"#utility.yul\":18029:18031   */\n      0x15\n        /* \"#utility.yul\":18009:18027   */\n      0x24\n      dup3\n      add\n        /* \"#utility.yul\":18002:18032   */\n      mstore\n      shl(0x58, 0x4572726f7220416363657373204164647265737321)\n        /* \"#utility.yul\":18048:18066   */\n      0x44\n      dup3\n      add\n        /* \"#utility.yul\":18041:18092   */\n      mstore\n        /* \"#utility.yul\":18109:18127   */\n      0x64\n      add\n        /* \"AmphiTrans.sol\":679:715  AccessError(\"Error Access Address!\") */\n      tag_287\n        /* \"#utility.yul\":17788:18133   */\n      jump\n        /* \"AmphiTrans.sol\":624:727  if(msg.sender != accessAddress) {\r... */\n    tag_673:\n        /* \"AmphiTrans.sol\":11548:11565  transInfo[_index] */\n      0x00\n      swap3\n      dup4\n      mstore\n        /* \"AmphiTrans.sol\":11548:11557  transInfo */\n      0x03\n        /* \"AmphiTrans.sol\":11548:11565  transInfo[_index] */\n      0x20\n      swap1\n      dup2\n      mstore\n      0x40\n      dup1\n      dup6\n      keccak256\n      sub(shl(0xa0, 0x01), 0x01)\n        /* \"AmphiTrans.sol\":11548:11575  transInfo[_index][_address] */\n      swap1\n      swap4\n      and\n      dup6\n      mstore\n      swap2\n      dup2\n      mstore\n      dup2\n      dup5\n      keccak256\n        /* \"AmphiTrans.sol\":11548:11592  transInfo[_index][_address].info[_fileIndex] */\n      swap3\n      dup5\n      mstore\n        /* \"AmphiTrans.sol\":11548:11580  transInfo[_index][_address].info */\n      0x02\n      swap3\n      dup4\n      add\n        /* \"AmphiTrans.sol\":11548:11592  transInfo[_index][_address].info[_fileIndex] */\n      swap1\n      mstore\n      swap1\n      swap2\n      keccak256\n        /* \"AmphiTrans.sol\":11548:11599  transInfo[_index][_address].info[_fileIndex].isUsed */\n      add\n        /* \"AmphiTrans.sol\":11548:11606  transInfo[_index][_address].info[_fileIndex].isUsed = true */\n      dup1\n      sload\n      not(0xff)\n      and\n        /* \"AmphiTrans.sol\":11602:11606  true */\n      0x01\n        /* \"AmphiTrans.sol\":11548:11606  transInfo[_index][_address].info[_fileIndex].isUsed = true */\n      or\n      swap1\n      sstore\n        /* \"AmphiTrans.sol\":11446:11614  function isUsedToTrans(uint256 _index, uint256 _fileIndex,address _address) public isAccess{\r... */\n      jump\t// out\n        /* \"AmphiTrans.sol\":7748:7936  function getFileBounty(uint256 _index, uint256 _fileIndex)\r... */\n    tag_271:\n        /* \"AmphiTrans.sol\":7855:7862  uint256 */\n      0x00\n        /* \"AmphiTrans.sol\":7887:7903  taskList[_index] */\n      dup3\n      dup2\n      mstore\n        /* \"AmphiTrans.sol\":7887:7895  taskList */\n      0x01\n        /* \"AmphiTrans.sol\":7887:7903  taskList[_index] */\n      0x20\n      mstore\n      0x40\n      dup2\n      keccak256\n        /* \"AmphiTrans.sol\":7887:7909  taskList[_index].tasks */\n      0x0c\n      add\n        /* \"AmphiTrans.sol\":7887:7921  taskList[_index].tasks[_fileIndex] */\n      dup1\n      sload\n        /* \"AmphiTrans.sol\":7910:7920  _fileIndex */\n      dup4\n      swap1\n        /* \"AmphiTrans.sol\":7887:7921  taskList[_index].tasks[_fileIndex] */\n      dup2\n      lt\n      tag_680\n      jumpi\n      tag_680\n      tag_298\n      jump\t// in\n    tag_680:\n      swap1\n      0x00\n      mstore\n      keccak256(0x00, 0x20)\n      swap1\n      0x0b\n      mul\n      add\n        /* \"AmphiTrans.sol\":7887:7928  taskList[_index].tasks[_fileIndex].bounty */\n      0x07\n      add\n      sload\n        /* \"AmphiTrans.sol\":7880:7928  return taskList[_index].tasks[_fileIndex].bounty */\n      swap1\n      pop\n        /* \"AmphiTrans.sol\":7748:7936  function getFileBounty(uint256 _index, uint256 _fileIndex)\r... */\n      swap3\n      swap2\n      pop\n      pop\n      jump\t// out\n        /* \"contracts/access/Ownable.sol\":2081:2279  function transferOwnership(address newOwner) public virtual onlyOwner {... */\n    tag_275:\n        /* \"contracts/access/Ownable.sol\":1094:1107  _checkOwner() */\n      tag_683\n        /* \"contracts/access/Ownable.sol\":1094:1105  _checkOwner */\n      tag_510\n        /* \"contracts/access/Ownable.sol\":1094:1107  _checkOwner() */\n      jump\t// in\n    tag_683:\n      sub(shl(0xa0, 0x01), 0x01)\n        /* \"contracts/access/Ownable.sol\":2169:2191  newOwner != address(0) */\n      dup2\n      and\n        /* \"contracts/access/Ownable.sol\":2161:2234  require(newOwner != address(0), \"Ownable: new owner is the zero address\") */\n      tag_685\n      jumpi\n      mload(0x40)\n      0x08c379a000000000000000000000000000000000000000000000000000000000\n      dup2\n      mstore\n        /* \"#utility.yul\":17222:17224   */\n      0x20\n        /* \"contracts/access/Ownable.sol\":2161:2234  require(newOwner != address(0), \"Ownable: new owner is the zero address\") */\n      0x04\n      dup3\n      add\n        /* \"#utility.yul\":17204:17225   */\n      mstore\n        /* \"#utility.yul\":17261:17263   */\n      0x26\n        /* \"#utility.yul\":17241:17259   */\n      0x24\n      dup3\n      add\n        /* \"#utility.yul\":17234:17264   */\n      mstore\n        /* \"#utility.yul\":17300:17334   */\n      0x4f776e61626c653a206e6577206f776e657220697320746865207a65726f2061\n        /* \"#utility.yul\":17280:17298   */\n      0x44\n      dup3\n      add\n        /* \"#utility.yul\":17273:17335   */\n      mstore\n        /* \"#utility.yul\":17371:17379   */\n      0x6464726573730000000000000000000000000000000000000000000000000000\n        /* \"#utility.yul\":17351:17369   */\n      0x64\n      dup3\n      add\n        /* \"#utility.yul\":17344:17380   */\n      mstore\n        /* \"#utility.yul\":17397:17416   */\n      0x84\n      add\n        /* \"contracts/access/Ownable.sol\":2161:2234  require(newOwner != address(0), \"Ownable: new owner is the zero address\") */\n      tag_287\n        /* \"#utility.yul\":17020:17422   */\n      jump\n        /* \"contracts/access/Ownable.sol\":2161:2234  require(newOwner != address(0), \"Ownable: new owner is the zero address\") */\n    tag_685:\n        /* \"contracts/access/Ownable.sol\":2244:2272  _transferOwnership(newOwner) */\n      tag_688\n        /* \"contracts/access/Ownable.sol\":2263:2271  newOwner */\n      dup2\n        /* \"contracts/access/Ownable.sol\":2244:2262  _transferOwnership */\n      tag_513\n        /* \"contracts/access/Ownable.sol\":2244:2272  _transferOwnership(newOwner) */\n      jump\t// in\n    tag_688:\n        /* \"contracts/access/Ownable.sol\":2081:2279  function transferOwnership(address newOwner) public virtual onlyOwner {... */\n      pop\n      jump\t// out\n        /* \"contracts/access/Ownable.sol\":1359:1489  function _checkOwner() internal view virtual {... */\n    tag_510:\n        /* \"contracts/access/Ownable.sol\":1247:1254  address */\n      0x00\n        /* \"contracts/access/Ownable.sol\":1273:1279  _owner */\n      sload\n      sub(shl(0xa0, 0x01), 0x01)\n      and\n        /* \"contracts/utils/Context.sol\":719:729  msg.sender */\n      caller\n        /* \"contracts/access/Ownable.sol\":1422:1445  owner() == _msgSender() */\n      eq\n        /* \"contracts/access/Ownable.sol\":1414:1482  require(owner() == _msgSender(), \"Ownable: caller is not the owner\") */\n      tag_512\n      jumpi\n      mload(0x40)\n      0x08c379a000000000000000000000000000000000000000000000000000000000\n      dup2\n      mstore\n        /* \"#utility.yul\":17629:17631   */\n      0x20\n        /* \"contracts/access/Ownable.sol\":1414:1482  require(owner() == _msgSender(), \"Ownable: caller is not the owner\") */\n      0x04\n      dup3\n      add\n        /* \"#utility.yul\":17611:17632   */\n      dup2\n      swap1\n      mstore\n        /* \"#utility.yul\":17648:17666   */\n      0x24\n      dup3\n      add\n        /* \"#utility.yul\":17641:17671   */\n      mstore\n        /* \"#utility.yul\":17707:17741   */\n      0x4f776e61626c653a2063616c6c6572206973206e6f7420746865206f776e6572\n        /* \"#utility.yul\":17687:17705   */\n      0x44\n      dup3\n      add\n        /* \"#utility.yul\":17680:17742   */\n      mstore\n        /* \"#utility.yul\":17759:17777   */\n      0x64\n      add\n        /* \"contracts/access/Ownable.sol\":1414:1482  require(owner() == _msgSender(), \"Ownable: caller is not the owner\") */\n      tag_287\n        /* \"#utility.yul\":17427:17783   */\n      jump\n        /* \"contracts/access/Ownable.sol\":2433:2620  function _transferOwnership(address newOwner) internal virtual {... */\n    tag_513:\n        /* \"contracts/access/Ownable.sol\":2506:2522  address oldOwner */\n      0x00\n        /* \"contracts/access/Ownable.sol\":2525:2531  _owner */\n      dup1\n      sload\n      sub(shl(0xa0, 0x01), 0x01)\n        /* \"contracts/access/Ownable.sol\":2541:2558  _owner = newOwner */\n      dup4\n      dup2\n      and\n      not(0xffffffffffffffffffffffffffffffffffffffff)\n      dup4\n      and\n      dup2\n      or\n      dup5\n      sstore\n        /* \"contracts/access/Ownable.sol\":2573:2613  OwnershipTransferred(oldOwner, newOwner) */\n      mload(0x40)\n        /* \"contracts/access/Ownable.sol\":2525:2531  _owner */\n      swap2\n      swap1\n      swap3\n      and\n      swap3\n      dup4\n      swap2\n        /* \"contracts/access/Ownable.sol\":2573:2613  OwnershipTransferred(oldOwner, newOwner) */\n      0x8be0079c531659141344cd1fd0a4f28419497f9722a3daafe3b4186f6b6457e0\n      swap2\n        /* \"contracts/access/Ownable.sol\":2506:2522  address oldOwner */\n      swap1\n        /* \"contracts/access/Ownable.sol\":2573:2613  OwnershipTransferred(oldOwner, newOwner) */\n      log3\n        /* \"contracts/access/Ownable.sol\":2496:2620  {... */\n      pop\n        /* \"contracts/access/Ownable.sol\":2433:2620  function _transferOwnership(address newOwner) internal virtual {... */\n      pop\n      jump\t// out\n    tag_301:\n      dup3\n      dup1\n      sload\n      tag_700\n      swap1\n      tag_307\n      jump\t// in\n    tag_700:\n      swap1\n      0x00\n      mstore\n      keccak256(0x00, 0x20)\n      swap1\n      0x1f\n      add\n      0x20\n      swap1\n      div\n      dup2\n      add\n      swap3\n      dup3\n      tag_702\n      jumpi\n      0x00\n      dup6\n      sstore\n      jump(tag_705)\n    tag_702:\n      dup3\n      0x1f\n      lt\n      tag_703\n      jumpi\n      dup1\n      mload\n      not(0xff)\n      and\n      dup4\n      dup1\n      add\n      or\n      dup6\n      sstore\n      jump(tag_705)\n    tag_703:\n      dup3\n      dup1\n      add\n      0x01\n      add\n      dup6\n      sstore\n      dup3\n      iszero\n      tag_705\n      jumpi\n      swap2\n      dup3\n      add\n    tag_704:\n      dup3\n      dup2\n      gt\n      iszero\n      tag_705\n      jumpi\n      dup3\n      mload\n      dup3\n      sstore\n      swap2\n      0x20\n      add\n      swap2\n      swap1\n      0x01\n      add\n      swap1\n      jump(tag_704)\n    tag_705:\n      pop\n      tag_706\n      swap3\n      swap2\n      pop\n      tag_707\n      jump\t// in\n    tag_706:\n      pop\n      swap1\n      jump\t// out\n    tag_353:\n      dup3\n      dup1\n      sload\n      dup3\n      dup3\n      sstore\n      swap1\n      0x00\n      mstore\n      keccak256(0x00, 0x20)\n      swap1\n      dup2\n      add\n      swap3\n      dup3\n      iszero\n      tag_705\n      jumpi\n      swap2\n      0x20\n      mul\n      dup3\n      add\n      dup3\n      dup2\n      gt\n      iszero\n      tag_705\n      jumpi\n      dup3\n      mload\n      dup3\n      sstore\n      swap2\n      0x20\n      add\n      swap2\n      swap1\n      0x01\n      add\n      swap1\n      jump(tag_704)\n    tag_379:\n      mload(0x40)\n      dup1\n      0x02e0\n      add\n      0x40\n      mstore\n      dup1\n      and(sub(shl(0xa0, 0x01), 0x01), 0x00)\n      dup2\n      mstore\n      0x20\n      add\n      0x00\n      dup2\n      mstore\n      0x20\n      add\n      0x60\n      dup2\n      mstore\n      0x20\n      add\n      0x60\n      dup2\n      mstore\n      0x20\n      add\n      0x00\n      dup2\n      mstore\n      0x20\n      add\n      0x00\n      dup2\n      mstore\n      0x20\n      add\n      0x00\n      dup2\n      mstore\n      0x20\n      add\n      0x60\n      dup2\n      mstore\n      0x20\n      add\n      0x00\n      dup2\n      mstore\n      0x20\n      add\n      0x00\n      dup2\n      mstore\n      0x20\n      add\n      iszero(iszero(0x00))\n      dup2\n      mstore\n      0x20\n      add\n      iszero(iszero(0x00))\n      dup2\n      mstore\n      0x20\n      add\n      0x00\n      dup2\n      mstore\n      0x20\n      add\n      0x60\n      dup2\n      mstore\n      0x20\n      add\n      0x60\n      dup2\n      mstore\n      0x20\n      add\n      0x60\n      dup2\n      mstore\n      0x20\n      add\n      0x00\n      dup2\n      mstore\n      0x20\n      add\n      0x00\n      dup2\n      mstore\n      0x20\n      add\n      0x00\n      dup2\n      mstore\n      0x20\n      add\n      0x00\n      dup2\n      mstore\n      0x20\n      add\n      iszero(iszero(0x00))\n      dup2\n      mstore\n      0x20\n      add\n      iszero(iszero(0x00))\n      dup2\n      mstore\n      0x20\n      add\n      0x00\n      0x07\n      dup2\n      gt\n      iszero\n      tag_713\n      jumpi\n      tag_713\n      tag_324\n      jump\t// in\n    tag_713:\n      swap1\n      mstore\n      swap1\n      jump\t// out\n    tag_707:\n    tag_716:\n      dup1\n      dup3\n      gt\n      iszero\n      tag_706\n      jumpi\n      0x00\n      dup2\n      sstore\n      0x01\n      add\n      jump(tag_716)\n        /* \"#utility.yul\":14:210   */\n    tag_719:\n        /* \"#utility.yul\":82:102   */\n      dup1\n      calldataload\n      sub(shl(0xa0, 0x01), 0x01)\n        /* \"#utility.yul\":131:185   */\n      dup2\n      and\n        /* \"#utility.yul\":121:186   */\n      dup2\n      eq\n        /* \"#utility.yul\":111:204   */\n      tag_721\n      jumpi\n        /* \"#utility.yul\":200:201   */\n      0x00\n        /* \"#utility.yul\":197:198   */\n      dup1\n        /* \"#utility.yul\":190:202   */\n      revert\n        /* \"#utility.yul\":111:204   */\n    tag_721:\n        /* \"#utility.yul\":14:210   */\n      swap2\n      swap1\n      pop\n      jump\t// out\n        /* \"#utility.yul\":215:2670   */\n    tag_722:\n        /* \"#utility.yul\":277:282   */\n      0x00\n        /* \"#utility.yul\":330:333   */\n      dup3\n        /* \"#utility.yul\":323:327   */\n      0x1f\n        /* \"#utility.yul\":315:321   */\n      dup4\n        /* \"#utility.yul\":311:328   */\n      add\n        /* \"#utility.yul\":307:334   */\n      slt\n        /* \"#utility.yul\":297:352   */\n      tag_724\n      jumpi\n        /* \"#utility.yul\":348:349   */\n      0x00\n        /* \"#utility.yul\":345:346   */\n      dup1\n        /* \"#utility.yul\":338:350   */\n      revert\n        /* \"#utility.yul\":297:352   */\n    tag_724:\n        /* \"#utility.yul\":371:375   */\n      0x20\n        /* \"#utility.yul\":395:481   */\n      tag_725\n        /* \"#utility.yul\":411:480   */\n      tag_726\n        /* \"#utility.yul\":472:478   */\n      dup5\n        /* \"#utility.yul\":459:479   */\n      calldataload\n        /* \"#utility.yul\":411:480   */\n      tag_727\n      jump\t// in\n    tag_726:\n        /* \"#utility.yul\":395:481   */\n      tag_728\n      jump\t// in\n    tag_725:\n        /* \"#utility.yul\":503:506   */\n      dup1\n        /* \"#utility.yul\":540:546   */\n      dup5\n        /* \"#utility.yul\":527:547   */\n      calldataload\n        /* \"#utility.yul\":522:525   */\n      dup3\n        /* \"#utility.yul\":515:548   */\n      mstore\n        /* \"#utility.yul\":573:575   */\n      dup3\n        /* \"#utility.yul\":568:571   */\n      dup3\n        /* \"#utility.yul\":564:576   */\n      add\n        /* \"#utility.yul\":557:576   */\n      swap2\n      pop\n        /* \"#utility.yul\":608:610   */\n      dup3\n        /* \"#utility.yul\":600:606   */\n      dup6\n        /* \"#utility.yul\":596:611   */\n      add\n        /* \"#utility.yul\":678:681   */\n      dup7\n        /* \"#utility.yul\":673:675   */\n      dup5\n        /* \"#utility.yul\":662:668   */\n      dup8\n        /* \"#utility.yul\":649:669   */\n      calldataload\n        /* \"#utility.yul\":646:647   */\n      0x05\n        /* \"#utility.yul\":642:670   */\n      shl\n        /* \"#utility.yul\":634:640   */\n      dup9\n        /* \"#utility.yul\":630:671   */\n      add\n        /* \"#utility.yul\":626:676   */\n      add\n        /* \"#utility.yul\":623:682   */\n      gt\n        /* \"#utility.yul\":620:699   */\n      iszero\n      tag_729\n      jumpi\n        /* \"#utility.yul\":695:696   */\n      0x00\n        /* \"#utility.yul\":692:693   */\n      dup1\n        /* \"#utility.yul\":685:697   */\n      revert\n        /* \"#utility.yul\":620:699   */\n    tag_729:\n        /* \"#utility.yul\":717:718   */\n      0x00\n        /* \"#utility.yul\":727:2641   */\n    tag_730:\n        /* \"#utility.yul\":754:760   */\n      dup7\n        /* \"#utility.yul\":741:761   */\n      calldataload\n        /* \"#utility.yul\":738:739   */\n      dup2\n        /* \"#utility.yul\":735:762   */\n      lt\n        /* \"#utility.yul\":727:2641   */\n      iszero\n      tag_732\n      jumpi\n        /* \"#utility.yul\":814:832   */\n      0xffffffffffffffff\n        /* \"#utility.yul\":870:872   */\n      dup1\n        /* \"#utility.yul\":864:867   */\n      dup4\n        /* \"#utility.yul\":851:868   */\n      calldataload\n        /* \"#utility.yul\":848:873   */\n      gt\n        /* \"#utility.yul\":845:890   */\n      iszero\n      tag_733\n      jumpi\n        /* \"#utility.yul\":886:887   */\n      0x00\n        /* \"#utility.yul\":883:884   */\n      dup1\n        /* \"#utility.yul\":876:888   */\n      revert\n        /* \"#utility.yul\":845:890   */\n    tag_733:\n        /* \"#utility.yul\":938:941   */\n      dup3\n        /* \"#utility.yul\":925:942   */\n      calldataload\n        /* \"#utility.yul\":917:923   */\n      dup9\n        /* \"#utility.yul\":913:943   */\n      add\n      not(0x1f)\n        /* \"#utility.yul\":1075:1079   */\n      0xa0\n        /* \"#utility.yul\":1070:1072   */\n      dup2\n        /* \"#utility.yul\":1065:1067   */\n      dup4\n        /* \"#utility.yul\":1060:1063   */\n      dup14\n        /* \"#utility.yul\":1056:1068   */\n      sub\n        /* \"#utility.yul\":1052:1073   */\n      add\n        /* \"#utility.yul\":1048:1080   */\n      slt\n        /* \"#utility.yul\":1045:1097   */\n      iszero\n      tag_734\n      jumpi\n        /* \"#utility.yul\":1093:1094   */\n      0x00\n        /* \"#utility.yul\":1090:1091   */\n      dup1\n        /* \"#utility.yul\":1083:1095   */\n      revert\n        /* \"#utility.yul\":1045:1097   */\n    tag_734:\n        /* \"#utility.yul\":1123:1145   */\n      tag_735\n      tag_736\n      jump\t// in\n    tag_735:\n        /* \"#utility.yul\":1195:1197   */\n      dup9\n        /* \"#utility.yul\":1191:1193   */\n      dup4\n        /* \"#utility.yul\":1187:1198   */\n      add\n        /* \"#utility.yul\":1174:1199   */\n      calldataload\n        /* \"#utility.yul\":1228:1230   */\n      dup5\n        /* \"#utility.yul\":1218:1226   */\n      dup2\n        /* \"#utility.yul\":1215:1231   */\n      gt\n        /* \"#utility.yul\":1212:1248   */\n      iszero\n      tag_737\n      jumpi\n        /* \"#utility.yul\":1244:1245   */\n      0x00\n        /* \"#utility.yul\":1241:1242   */\n      dup1\n        /* \"#utility.yul\":1234:1246   */\n      revert\n        /* \"#utility.yul\":1212:1248   */\n    tag_737:\n        /* \"#utility.yul\":1271:1288   */\n      dup4\n      add\n        /* \"#utility.yul\":1331:1335   */\n      0xe0\n        /* \"#utility.yul\":1312:1324   */\n      dup2\n      dup15\n      sub\n        /* \"#utility.yul\":1308:1329   */\n      dup5\n      add\n        /* \"#utility.yul\":1304:1336   */\n      slt\n        /* \"#utility.yul\":1301:1353   */\n      iszero\n      tag_738\n      jumpi\n        /* \"#utility.yul\":1349:1350   */\n      0x00\n        /* \"#utility.yul\":1346:1347   */\n      dup1\n        /* \"#utility.yul\":1339:1351   */\n      revert\n        /* \"#utility.yul\":1301:1353   */\n    tag_738:\n        /* \"#utility.yul\":1381:1403   */\n      tag_739\n      tag_740\n      jump\t// in\n    tag_739:\n        /* \"#utility.yul\":1366:1403   */\n      swap3\n      pop\n        /* \"#utility.yul\":1453:1455   */\n      dup10\n        /* \"#utility.yul\":1449:1451   */\n      dup2\n        /* \"#utility.yul\":1445:1456   */\n      add\n        /* \"#utility.yul\":1432:1457   */\n      calldataload\n        /* \"#utility.yul\":1486:1488   */\n      dup6\n        /* \"#utility.yul\":1476:1484   */\n      dup2\n        /* \"#utility.yul\":1473:1489   */\n      gt\n        /* \"#utility.yul\":1470:1506   */\n      iszero\n      tag_741\n      jumpi\n        /* \"#utility.yul\":1502:1503   */\n      0x00\n        /* \"#utility.yul\":1499:1500   */\n      dup1\n        /* \"#utility.yul\":1492:1504   */\n      revert\n        /* \"#utility.yul\":1470:1506   */\n    tag_741:\n        /* \"#utility.yul\":1535:1585   */\n      tag_742\n        /* \"#utility.yul\":1581:1584   */\n      dup15\n        /* \"#utility.yul\":1576:1578   */\n      dup13\n        /* \"#utility.yul\":1565:1573   */\n      dup4\n        /* \"#utility.yul\":1561:1563   */\n      dup6\n        /* \"#utility.yul\":1557:1574   */\n      add\n        /* \"#utility.yul\":1553:1579   */\n      add\n        /* \"#utility.yul\":1535:1585   */\n      tag_743\n      jump\t// in\n    tag_742:\n        /* \"#utility.yul\":1526:1533   */\n      dup5\n        /* \"#utility.yul\":1519:1586   */\n      mstore\n      pop\n        /* \"#utility.yul\":1645:1647   */\n      0x40\n        /* \"#utility.yul\":1641:1643   */\n      dup2\n        /* \"#utility.yul\":1637:1648   */\n      add\n        /* \"#utility.yul\":1624:1649   */\n      calldataload\n        /* \"#utility.yul\":1619:1621   */\n      dup11\n        /* \"#utility.yul\":1610:1617   */\n      dup5\n        /* \"#utility.yul\":1606:1622   */\n      add\n        /* \"#utility.yul\":1599:1650   */\n      mstore\n        /* \"#utility.yul\":1709:1711   */\n      0x60\n        /* \"#utility.yul\":1705:1707   */\n      dup2\n        /* \"#utility.yul\":1701:1712   */\n      add\n        /* \"#utility.yul\":1688:1713   */\n      calldataload\n        /* \"#utility.yul\":1683:1685   */\n      0x40\n        /* \"#utility.yul\":1674:1681   */\n      dup5\n        /* \"#utility.yul\":1670:1686   */\n      add\n        /* \"#utility.yul\":1663:1714   */\n      mstore\n        /* \"#utility.yul\":1773:1776   */\n      0x80\n        /* \"#utility.yul\":1769:1771   */\n      dup2\n        /* \"#utility.yul\":1765:1777   */\n      add\n        /* \"#utility.yul\":1752:1778   */\n      calldataload\n        /* \"#utility.yul\":1747:1749   */\n      0x60\n        /* \"#utility.yul\":1738:1745   */\n      dup5\n        /* \"#utility.yul\":1734:1750   */\n      add\n        /* \"#utility.yul\":1727:1779   */\n      mstore\n        /* \"#utility.yul\":1839:1843   */\n      0xa0\n        /* \"#utility.yul\":1835:1837   */\n      dup2\n        /* \"#utility.yul\":1831:1844   */\n      add\n        /* \"#utility.yul\":1818:1845   */\n      calldataload\n        /* \"#utility.yul\":1812:1815   */\n      0x80\n        /* \"#utility.yul\":1803:1810   */\n      dup5\n        /* \"#utility.yul\":1799:1816   */\n      add\n        /* \"#utility.yul\":1792:1846   */\n      mstore\n        /* \"#utility.yul\":1907:1910   */\n      0xc0\n        /* \"#utility.yul\":1903:1905   */\n      dup2\n        /* \"#utility.yul\":1899:1911   */\n      add\n        /* \"#utility.yul\":1886:1912   */\n      calldataload\n        /* \"#utility.yul\":1879:1883   */\n      0xa0\n        /* \"#utility.yul\":1870:1877   */\n      dup5\n        /* \"#utility.yul\":1866:1884   */\n      add\n        /* \"#utility.yul\":1859:1913   */\n      mstore\n        /* \"#utility.yul\":1963:1967   */\n      0xe0\n        /* \"#utility.yul\":1959:1961   */\n      dup2\n        /* \"#utility.yul\":1955:1968   */\n      add\n        /* \"#utility.yul\":1942:1969   */\n      calldataload\n        /* \"#utility.yul\":1998:2000   */\n      dup6\n        /* \"#utility.yul\":1988:1996   */\n      dup2\n        /* \"#utility.yul\":1985:2001   */\n      gt\n        /* \"#utility.yul\":1982:2018   */\n      iszero\n      tag_744\n      jumpi\n        /* \"#utility.yul\":2014:2015   */\n      0x00\n        /* \"#utility.yul\":2011:2012   */\n      dup1\n        /* \"#utility.yul\":2004:2016   */\n      revert\n        /* \"#utility.yul\":1982:2018   */\n    tag_744:\n        /* \"#utility.yul\":2057:2107   */\n      tag_745\n        /* \"#utility.yul\":2103:2106   */\n      dup15\n        /* \"#utility.yul\":2098:2100   */\n      dup13\n        /* \"#utility.yul\":2087:2095   */\n      dup4\n        /* \"#utility.yul\":2083:2085   */\n      dup6\n        /* \"#utility.yul\":2079:2096   */\n      add\n        /* \"#utility.yul\":2075:2101   */\n      add\n        /* \"#utility.yul\":2057:2107   */\n      tag_743\n      jump\t// in\n    tag_745:\n        /* \"#utility.yul\":2051:2054   */\n      0xc0\n        /* \"#utility.yul\":2038:2055   */\n      dup6\n      add\n        /* \"#utility.yul\":2031:2108   */\n      mstore\n      pop\n      pop\n        /* \"#utility.yul\":2121:2143   */\n      swap1\n      dup2\n      mstore\n        /* \"#utility.yul\":2200:2202   */\n      0x40\n        /* \"#utility.yul\":2192:2203   */\n      dup3\n      add\n        /* \"#utility.yul\":2179:2204   */\n      calldataload\n        /* \"#utility.yul\":2163:2177   */\n      dup9\n      dup3\n      add\n        /* \"#utility.yul\":2156:2205   */\n      mstore\n        /* \"#utility.yul\":2255:2257   */\n      0x60\n        /* \"#utility.yul\":2247:2258   */\n      dup3\n      add\n        /* \"#utility.yul\":2234:2259   */\n      calldataload\n      swap1\n        /* \"#utility.yul\":2275:2291   */\n      dup4\n      dup3\n      gt\n        /* \"#utility.yul\":2272:2308   */\n      iszero\n      tag_746\n      jumpi\n        /* \"#utility.yul\":2304:2305   */\n      0x00\n        /* \"#utility.yul\":2301:2302   */\n      dup1\n        /* \"#utility.yul\":2294:2306   */\n      revert\n        /* \"#utility.yul\":2272:2308   */\n    tag_746:\n        /* \"#utility.yul\":2344:2394   */\n      tag_747\n        /* \"#utility.yul\":2390:2393   */\n      dup13\n        /* \"#utility.yul\":2385:2387   */\n      dup11\n        /* \"#utility.yul\":2374:2382   */\n      dup5\n        /* \"#utility.yul\":2370:2372   */\n      dup7\n        /* \"#utility.yul\":2366:2383   */\n      add\n        /* \"#utility.yul\":2362:2388   */\n      add\n        /* \"#utility.yul\":2344:2394   */\n      tag_743\n      jump\t// in\n    tag_747:\n        /* \"#utility.yul\":2339:2341   */\n      0x40\n        /* \"#utility.yul\":2332:2337   */\n      dup3\n        /* \"#utility.yul\":2328:2342   */\n      add\n        /* \"#utility.yul\":2321:2395   */\n      mstore\n        /* \"#utility.yul\":2431:2470   */\n      tag_748\n        /* \"#utility.yul\":2465:2468   */\n      0x80\n        /* \"#utility.yul\":2461:2463   */\n      dup5\n        /* \"#utility.yul\":2457:2469   */\n      add\n        /* \"#utility.yul\":2431:2470   */\n      tag_749\n      jump\t// in\n    tag_748:\n        /* \"#utility.yul\":2426:2428   */\n      0x60\n        /* \"#utility.yul\":2415:2429   */\n      dup3\n      add\n        /* \"#utility.yul\":2408:2471   */\n      mstore\n        /* \"#utility.yul\":2529:2533   */\n      0xa0\n        /* \"#utility.yul\":2521:2534   */\n      swap3\n      swap1\n      swap3\n      add\n        /* \"#utility.yul\":2508:2535   */\n      calldataload\n        /* \"#utility.yul\":2502:2505   */\n      0x80\n        /* \"#utility.yul\":2491:2506   */\n      dup4\n      add\n        /* \"#utility.yul\":2484:2536   */\n      mstore\n      pop\n        /* \"#utility.yul\":2549:2567   */\n      dup6\n      mstore\n      pop\n        /* \"#utility.yul\":2587:2599   */\n      swap3\n      dup5\n      add\n      swap3\n        /* \"#utility.yul\":2619:2631   */\n      swap1\n      dup5\n      add\n      swap1\n        /* \"#utility.yul\":777:778   */\n      0x01\n        /* \"#utility.yul\":770:779   */\n      add\n        /* \"#utility.yul\":727:2641   */\n      jump(tag_730)\n    tag_732:\n      pop\n        /* \"#utility.yul\":2659:2664   */\n      swap1\n      swap7\n        /* \"#utility.yul\":215:2670   */\n      swap6\n      pop\n      pop\n      pop\n      pop\n      pop\n      pop\n      jump\t// out\n        /* \"#utility.yul\":2675:3356   */\n    tag_750:\n        /* \"#utility.yul\":2729:2734   */\n      0x00\n        /* \"#utility.yul\":2782:2785   */\n      dup3\n        /* \"#utility.yul\":2775:2779   */\n      0x1f\n        /* \"#utility.yul\":2767:2773   */\n      dup4\n        /* \"#utility.yul\":2763:2780   */\n      add\n        /* \"#utility.yul\":2759:2786   */\n      slt\n        /* \"#utility.yul\":2749:2804   */\n      tag_752\n      jumpi\n        /* \"#utility.yul\":2800:2801   */\n      0x00\n        /* \"#utility.yul\":2797:2798   */\n      dup1\n        /* \"#utility.yul\":2790:2802   */\n      revert\n        /* \"#utility.yul\":2749:2804   */\n    tag_752:\n        /* \"#utility.yul\":2836:2842   */\n      dup2\n        /* \"#utility.yul\":2823:2843   */\n      calldataload\n        /* \"#utility.yul\":2862:2866   */\n      0x20\n        /* \"#utility.yul\":2886:2954   */\n      tag_753\n        /* \"#utility.yul\":2902:2953   */\n      tag_726\n        /* \"#utility.yul\":2950:2952   */\n      dup4\n        /* \"#utility.yul\":2902:2953   */\n      tag_727\n      jump\t// in\n        /* \"#utility.yul\":2886:2954   */\n    tag_753:\n        /* \"#utility.yul\":2976:2979   */\n      dup1\n        /* \"#utility.yul\":3000:3002   */\n      dup4\n        /* \"#utility.yul\":2995:2998   */\n      dup3\n        /* \"#utility.yul\":2988:3003   */\n      mstore\n        /* \"#utility.yul\":3028:3030   */\n      dup3\n        /* \"#utility.yul\":3023:3026   */\n      dup3\n        /* \"#utility.yul\":3019:3031   */\n      add\n        /* \"#utility.yul\":3012:3031   */\n      swap2\n      pop\n        /* \"#utility.yul\":3063:3065   */\n      dup3\n        /* \"#utility.yul\":3055:3061   */\n      dup7\n        /* \"#utility.yul\":3051:3066   */\n      add\n        /* \"#utility.yul\":3115:3118   */\n      dup8\n        /* \"#utility.yul\":3110:3112   */\n      dup5\n        /* \"#utility.yul\":3104:3106   */\n      dup7\n        /* \"#utility.yul\":3101:3102   */\n      0x05\n        /* \"#utility.yul\":3097:3107   */\n      shl\n        /* \"#utility.yul\":3089:3095   */\n      dup10\n        /* \"#utility.yul\":3085:3108   */\n      add\n        /* \"#utility.yul\":3081:3113   */\n      add\n        /* \"#utility.yul\":3078:3119   */\n      gt\n        /* \"#utility.yul\":3075:3136   */\n      iszero\n      tag_755\n      jumpi\n        /* \"#utility.yul\":3132:3133   */\n      0x00\n        /* \"#utility.yul\":3129:3130   */\n      dup1\n        /* \"#utility.yul\":3122:3134   */\n      revert\n        /* \"#utility.yul\":3075:3136   */\n    tag_755:\n        /* \"#utility.yul\":3154:3155   */\n      0x00\n        /* \"#utility.yul\":3164:3327   */\n    tag_756:\n        /* \"#utility.yul\":3178:3180   */\n      dup6\n        /* \"#utility.yul\":3175:3176   */\n      dup2\n        /* \"#utility.yul\":3172:3181   */\n      lt\n        /* \"#utility.yul\":3164:3327   */\n      iszero\n      tag_758\n      jumpi\n        /* \"#utility.yul\":3235:3252   */\n      dup2\n      calldataload\n        /* \"#utility.yul\":3223:3253   */\n      dup5\n      mstore\n        /* \"#utility.yul\":3273:3285   */\n      swap3\n      dup5\n      add\n      swap3\n        /* \"#utility.yul\":3305:3317   */\n      swap1\n      dup5\n      add\n      swap1\n        /* \"#utility.yul\":3196:3197   */\n      0x01\n        /* \"#utility.yul\":3189:3198   */\n      add\n        /* \"#utility.yul\":3164:3327   */\n      jump(tag_756)\n    tag_758:\n      pop\n        /* \"#utility.yul\":3345:3350   */\n      swap1\n      swap8\n        /* \"#utility.yul\":2675:3356   */\n      swap7\n      pop\n      pop\n      pop\n      pop\n      pop\n      pop\n      pop\n      jump\t// out\n        /* \"#utility.yul\":3361:3521   */\n    tag_759:\n        /* \"#utility.yul\":3426:3446   */\n      dup1\n      calldataload\n        /* \"#utility.yul\":3482:3495   */\n      dup1\n      iszero\n        /* \"#utility.yul\":3475:3496   */\n      iszero\n        /* \"#utility.yul\":3465:3497   */\n      dup2\n      eq\n        /* \"#utility.yul\":3455:3515   */\n      tag_721\n      jumpi\n        /* \"#utility.yul\":3511:3512   */\n      0x00\n        /* \"#utility.yul\":3508:3509   */\n      dup1\n        /* \"#utility.yul\":3501:3513   */\n      revert\n        /* \"#utility.yul\":3526:3677   */\n    tag_749:\n        /* \"#utility.yul\":3601:3621   */\n      dup1\n      calldataload\n        /* \"#utility.yul\":3650:3652   */\n      0x0c\n        /* \"#utility.yul\":3640:3653   */\n      dup2\n      lt\n        /* \"#utility.yul\":3630:3671   */\n      tag_721\n      jumpi\n        /* \"#utility.yul\":3667:3668   */\n      0x00\n        /* \"#utility.yul\":3664:3665   */\n      dup1\n        /* \"#utility.yul\":3657:3669   */\n      revert\n        /* \"#utility.yul\":3682:4272   */\n    tag_743:\n        /* \"#utility.yul\":3725:3730   */\n      0x00\n        /* \"#utility.yul\":3778:3781   */\n      dup3\n        /* \"#utility.yul\":3771:3775   */\n      0x1f\n        /* \"#utility.yul\":3763:3769   */\n      dup4\n        /* \"#utility.yul\":3759:3776   */\n      add\n        /* \"#utility.yul\":3755:3782   */\n      slt\n        /* \"#utility.yul\":3745:3800   */\n      tag_765\n      jumpi\n        /* \"#utility.yul\":3796:3797   */\n      0x00\n        /* \"#utility.yul\":3793:3794   */\n      dup1\n        /* \"#utility.yul\":3786:3798   */\n      revert\n        /* \"#utility.yul\":3745:3800   */\n    tag_765:\n        /* \"#utility.yul\":3832:3838   */\n      dup2\n        /* \"#utility.yul\":3819:3839   */\n      calldataload\n        /* \"#utility.yul\":3858:3876   */\n      0xffffffffffffffff\n        /* \"#utility.yul\":3854:3856   */\n      dup2\n        /* \"#utility.yul\":3851:3877   */\n      gt\n        /* \"#utility.yul\":3848:3900   */\n      iszero\n      tag_767\n      jumpi\n        /* \"#utility.yul\":3880:3898   */\n      tag_767\n      tag_462\n      jump\t// in\n    tag_767:\n        /* \"#utility.yul\":3924:4038   */\n      tag_768\n        /* \"#utility.yul\":4032:4036   */\n      0x20\n      not(0x1f)\n        /* \"#utility.yul\":3956:3960   */\n      0x1f\n        /* \"#utility.yul\":3952:3954   */\n      dup5\n        /* \"#utility.yul\":3948:3961   */\n      add\n        /* \"#utility.yul\":3944:4030   */\n      and\n        /* \"#utility.yul\":3940:4037   */\n      add\n        /* \"#utility.yul\":3924:4038   */\n      tag_728\n      jump\t// in\n    tag_768:\n        /* \"#utility.yul\":4063:4065   */\n      dup2\n        /* \"#utility.yul\":4054:4061   */\n      dup2\n        /* \"#utility.yul\":4047:4066   */\n      mstore\n        /* \"#utility.yul\":4109:4112   */\n      dup5\n        /* \"#utility.yul\":4102:4106   */\n      0x20\n        /* \"#utility.yul\":4097:4099   */\n      dup4\n        /* \"#utility.yul\":4089:4095   */\n      dup7\n        /* \"#utility.yul\":4085:4100   */\n      add\n        /* \"#utility.yul\":4081:4107   */\n      add\n        /* \"#utility.yul\":4078:4113   */\n      gt\n        /* \"#utility.yul\":4075:4130   */\n      iszero\n      tag_769\n      jumpi\n        /* \"#utility.yul\":4126:4127   */\n      0x00\n        /* \"#utility.yul\":4123:4124   */\n      dup1\n        /* \"#utility.yul\":4116:4128   */\n      revert\n        /* \"#utility.yul\":4075:4130   */\n    tag_769:\n        /* \"#utility.yul\":4191:4193   */\n      dup2\n        /* \"#utility.yul\":4184:4188   */\n      0x20\n        /* \"#utility.yul\":4176:4182   */\n      dup6\n        /* \"#utility.yul\":4172:4189   */\n      add\n        /* \"#utility.yul\":4165:4169   */\n      0x20\n        /* \"#utility.yul\":4156:4163   */\n      dup4\n        /* \"#utility.yul\":4152:4170   */\n      add\n        /* \"#utility.yul\":4139:4194   */\n      calldatacopy\n        /* \"#utility.yul\":4239:4240   */\n      0x00\n        /* \"#utility.yul\":4214:4230   */\n      swap2\n      dup2\n      add\n        /* \"#utility.yul\":4232:4236   */\n      0x20\n        /* \"#utility.yul\":4210:4237   */\n      add\n        /* \"#utility.yul\":4203:4241   */\n      swap2\n      swap1\n      swap2\n      mstore\n        /* \"#utility.yul\":4218:4225   */\n      swap4\n        /* \"#utility.yul\":3682:4272   */\n      swap3\n      pop\n      pop\n      pop\n      jump\t// out\n        /* \"#utility.yul\":4277:5933   */\n    tag_770:\n        /* \"#utility.yul\":4331:4336   */\n      0x00\n        /* \"#utility.yul\":4379:4385   */\n      0x01a0\n        /* \"#utility.yul\":4367:4376   */\n      dup3\n        /* \"#utility.yul\":4362:4365   */\n      dup5\n        /* \"#utility.yul\":4358:4377   */\n      sub\n        /* \"#utility.yul\":4354:4386   */\n      slt\n        /* \"#utility.yul\":4351:4403   */\n      iszero\n      tag_772\n      jumpi\n        /* \"#utility.yul\":4399:4400   */\n      0x00\n        /* \"#utility.yul\":4396:4397   */\n      dup1\n        /* \"#utility.yul\":4389:4401   */\n      revert\n        /* \"#utility.yul\":4351:4403   */\n    tag_772:\n        /* \"#utility.yul\":4421:4443   */\n      tag_773\n      tag_774\n      jump\t// in\n    tag_773:\n        /* \"#utility.yul\":4412:4443   */\n      swap1\n      pop\n        /* \"#utility.yul\":4479:4488   */\n      dup2\n        /* \"#utility.yul\":4466:4489   */\n      calldataload\n        /* \"#utility.yul\":4459:4464   */\n      dup2\n        /* \"#utility.yul\":4452:4490   */\n      mstore\n        /* \"#utility.yul\":4541:4543   */\n      0x20\n        /* \"#utility.yul\":4530:4539   */\n      dup3\n        /* \"#utility.yul\":4526:4544   */\n      add\n        /* \"#utility.yul\":4513:4545   */\n      calldataload\n        /* \"#utility.yul\":4564:4582   */\n      0xffffffffffffffff\n        /* \"#utility.yul\":4605:4607   */\n      dup1\n        /* \"#utility.yul\":4597:4603   */\n      dup3\n        /* \"#utility.yul\":4594:4608   */\n      gt\n        /* \"#utility.yul\":4591:4625   */\n      iszero\n      tag_775\n      jumpi\n        /* \"#utility.yul\":4621:4622   */\n      0x00\n        /* \"#utility.yul\":4618:4619   */\n      dup1\n        /* \"#utility.yul\":4611:4623   */\n      revert\n        /* \"#utility.yul\":4591:4625   */\n    tag_775:\n        /* \"#utility.yul\":4657:4703   */\n      tag_776\n        /* \"#utility.yul\":4699:4702   */\n      dup6\n        /* \"#utility.yul\":4690:4696   */\n      dup4\n        /* \"#utility.yul\":4679:4688   */\n      dup7\n        /* \"#utility.yul\":4675:4697   */\n      add\n        /* \"#utility.yul\":4657:4703   */\n      tag_743\n      jump\t// in\n    tag_776:\n        /* \"#utility.yul\":4652:4654   */\n      0x20\n        /* \"#utility.yul\":4645:4650   */\n      dup5\n        /* \"#utility.yul\":4641:4655   */\n      add\n        /* \"#utility.yul\":4634:4704   */\n      mstore\n        /* \"#utility.yul\":4757:4759   */\n      0x40\n        /* \"#utility.yul\":4746:4755   */\n      dup5\n        /* \"#utility.yul\":4742:4760   */\n      add\n        /* \"#utility.yul\":4729:4761   */\n      calldataload\n        /* \"#utility.yul\":4713:4761   */\n      swap2\n      pop\n        /* \"#utility.yul\":4786:4788   */\n      dup1\n        /* \"#utility.yul\":4776:4784   */\n      dup3\n        /* \"#utility.yul\":4773:4789   */\n      gt\n        /* \"#utility.yul\":4770:4806   */\n      iszero\n      tag_777\n      jumpi\n        /* \"#utility.yul\":4802:4803   */\n      0x00\n        /* \"#utility.yul\":4799:4800   */\n      dup1\n        /* \"#utility.yul\":4792:4804   */\n      revert\n        /* \"#utility.yul\":4770:4806   */\n    tag_777:\n        /* \"#utility.yul\":4838:4886   */\n      tag_778\n        /* \"#utility.yul\":4882:4885   */\n      dup6\n        /* \"#utility.yul\":4871:4879   */\n      dup4\n        /* \"#utility.yul\":4860:4869   */\n      dup7\n        /* \"#utility.yul\":4856:4880   */\n      add\n        /* \"#utility.yul\":4838:4886   */\n      tag_743\n      jump\t// in\n    tag_778:\n        /* \"#utility.yul\":4833:4835   */\n      0x40\n        /* \"#utility.yul\":4826:4831   */\n      dup5\n        /* \"#utility.yul\":4822:4836   */\n      add\n        /* \"#utility.yul\":4815:4887   */\n      mstore\n        /* \"#utility.yul\":4947:4949   */\n      0x60\n        /* \"#utility.yul\":4936:4945   */\n      dup5\n        /* \"#utility.yul\":4932:4950   */\n      add\n        /* \"#utility.yul\":4919:4951   */\n      calldataload\n        /* \"#utility.yul\":4914:4916   */\n      0x60\n        /* \"#utility.yul\":4907:4912   */\n      dup5\n        /* \"#utility.yul\":4903:4917   */\n      add\n        /* \"#utility.yul\":4896:4952   */\n      mstore\n        /* \"#utility.yul\":5013:5016   */\n      0x80\n        /* \"#utility.yul\":5002:5011   */\n      dup5\n        /* \"#utility.yul\":4998:5017   */\n      add\n        /* \"#utility.yul\":4985:5018   */\n      calldataload\n        /* \"#utility.yul\":4979:4982   */\n      0x80\n        /* \"#utility.yul\":4972:4977   */\n      dup5\n        /* \"#utility.yul\":4968:4983   */\n      add\n        /* \"#utility.yul\":4961:5019   */\n      mstore\n        /* \"#utility.yul\":5080:5083   */\n      0xa0\n        /* \"#utility.yul\":5069:5078   */\n      dup5\n        /* \"#utility.yul\":5065:5084   */\n      add\n        /* \"#utility.yul\":5052:5085   */\n      calldataload\n        /* \"#utility.yul\":5046:5049   */\n      0xa0\n        /* \"#utility.yul\":5039:5044   */\n      dup5\n        /* \"#utility.yul\":5035:5050   */\n      add\n        /* \"#utility.yul\":5028:5086   */\n      mstore\n        /* \"#utility.yul\":5139:5142   */\n      0xc0\n        /* \"#utility.yul\":5128:5137   */\n      dup5\n        /* \"#utility.yul\":5124:5143   */\n      add\n        /* \"#utility.yul\":5111:5144   */\n      calldataload\n        /* \"#utility.yul\":5095:5144   */\n      swap2\n      pop\n        /* \"#utility.yul\":5169:5171   */\n      dup1\n        /* \"#utility.yul\":5159:5167   */\n      dup3\n        /* \"#utility.yul\":5156:5172   */\n      gt\n        /* \"#utility.yul\":5153:5189   */\n      iszero\n      tag_779\n      jumpi\n        /* \"#utility.yul\":5185:5186   */\n      0x00\n        /* \"#utility.yul\":5182:5183   */\n      dup1\n        /* \"#utility.yul\":5175:5187   */\n      revert\n        /* \"#utility.yul\":5153:5189   */\n    tag_779:\n        /* \"#utility.yul\":5222:5281   */\n      tag_780\n        /* \"#utility.yul\":5277:5280   */\n      dup6\n        /* \"#utility.yul\":5266:5274   */\n      dup4\n        /* \"#utility.yul\":5255:5264   */\n      dup7\n        /* \"#utility.yul\":5251:5275   */\n      add\n        /* \"#utility.yul\":5222:5281   */\n      tag_750\n      jump\t// in\n    tag_780:\n        /* \"#utility.yul\":5216:5219   */\n      0xc0\n        /* \"#utility.yul\":5205:5220   */\n      dup5\n      add\n        /* \"#utility.yul\":5198:5282   */\n      mstore\n        /* \"#utility.yul\":5343:5346   */\n      0xe0\n        /* \"#utility.yul\":5328:5347   */\n      dup5\n      dup2\n      add\n        /* \"#utility.yul\":5315:5348   */\n      calldataload\n        /* \"#utility.yul\":5298:5313   */\n      swap1\n      dup5\n      add\n        /* \"#utility.yul\":5291:5349   */\n      mstore\n        /* \"#utility.yul\":5368:5371   */\n      0x0100\n        /* \"#utility.yul\":5416:5434   */\n      dup1\n      dup6\n      add\n        /* \"#utility.yul\":5403:5435   */\n      calldataload\n        /* \"#utility.yul\":5387:5401   */\n      swap1\n      dup5\n      add\n        /* \"#utility.yul\":5380:5436   */\n      mstore\n        /* \"#utility.yul\":5455:5458   */\n      0x0120\n      swap2\n      pop\n        /* \"#utility.yul\":5490:5525   */\n      tag_781\n        /* \"#utility.yul\":5506:5524   */\n      dup3\n      dup6\n      add\n        /* \"#utility.yul\":5490:5525   */\n      tag_759\n      jump\t// in\n    tag_781:\n        /* \"#utility.yul\":5485:5487   */\n      dup3\n        /* \"#utility.yul\":5478:5483   */\n      dup5\n        /* \"#utility.yul\":5474:5488   */\n      add\n        /* \"#utility.yul\":5467:5526   */\n      mstore\n        /* \"#utility.yul\":5545:5548   */\n      0x0140\n        /* \"#utility.yul\":5535:5548   */\n      swap2\n      pop\n        /* \"#utility.yul\":5580:5615   */\n      tag_782\n        /* \"#utility.yul\":5611:5613   */\n      dup3\n        /* \"#utility.yul\":5600:5609   */\n      dup6\n        /* \"#utility.yul\":5596:5614   */\n      add\n        /* \"#utility.yul\":5580:5615   */\n      tag_759\n      jump\t// in\n    tag_782:\n        /* \"#utility.yul\":5575:5577   */\n      dup3\n        /* \"#utility.yul\":5568:5573   */\n      dup5\n        /* \"#utility.yul\":5564:5578   */\n      add\n        /* \"#utility.yul\":5557:5616   */\n      mstore\n        /* \"#utility.yul\":5635:5638   */\n      0x0160\n        /* \"#utility.yul\":5625:5638   */\n      swap2\n      pop\n        /* \"#utility.yul\":5698:5700   */\n      dup2\n        /* \"#utility.yul\":5687:5696   */\n      dup5\n        /* \"#utility.yul\":5683:5701   */\n      add\n        /* \"#utility.yul\":5670:5702   */\n      calldataload\n        /* \"#utility.yul\":5665:5667   */\n      dup3\n        /* \"#utility.yul\":5658:5663   */\n      dup5\n        /* \"#utility.yul\":5654:5668   */\n      add\n        /* \"#utility.yul\":5647:5703   */\n      mstore\n        /* \"#utility.yul\":5722:5725   */\n      0x0180\n        /* \"#utility.yul\":5712:5725   */\n      swap2\n      pop\n        /* \"#utility.yul\":5778:5780   */\n      dup2\n        /* \"#utility.yul\":5767:5776   */\n      dup5\n        /* \"#utility.yul\":5763:5781   */\n      add\n        /* \"#utility.yul\":5750:5782   */\n      calldataload\n        /* \"#utility.yul\":5807:5809   */\n      dup2\n        /* \"#utility.yul\":5797:5805   */\n      dup2\n        /* \"#utility.yul\":5794:5810   */\n      gt\n        /* \"#utility.yul\":5791:5827   */\n      iszero\n      tag_783\n      jumpi\n        /* \"#utility.yul\":5823:5824   */\n      0x00\n        /* \"#utility.yul\":5820:5821   */\n      dup1\n        /* \"#utility.yul\":5813:5825   */\n      revert\n        /* \"#utility.yul\":5791:5827   */\n    tag_783:\n        /* \"#utility.yul\":5859:5926   */\n      tag_784\n        /* \"#utility.yul\":5922:5925   */\n      dup7\n        /* \"#utility.yul\":5911:5919   */\n      dup3\n        /* \"#utility.yul\":5900:5909   */\n      dup8\n        /* \"#utility.yul\":5896:5920   */\n      add\n        /* \"#utility.yul\":5859:5926   */\n      tag_722\n      jump\t// in\n    tag_784:\n        /* \"#utility.yul\":5854:5856   */\n      dup4\n        /* \"#utility.yul\":5847:5852   */\n      dup6\n        /* \"#utility.yul\":5843:5857   */\n      add\n        /* \"#utility.yul\":5836:5927   */\n      mstore\n      pop\n      pop\n      pop\n        /* \"#utility.yul\":4277:5933   */\n      swap3\n      swap2\n      pop\n      pop\n      jump\t// out\n        /* \"#utility.yul\":5938:6124   */\n    tag_237:\n        /* \"#utility.yul\":5997:6003   */\n      0x00\n        /* \"#utility.yul\":6050:6052   */\n      0x20\n        /* \"#utility.yul\":6038:6047   */\n      dup3\n        /* \"#utility.yul\":6029:6036   */\n      dup5\n        /* \"#utility.yul\":6025:6048   */\n      sub\n        /* \"#utility.yul\":6021:6053   */\n      slt\n        /* \"#utility.yul\":6018:6070   */\n      iszero\n      tag_786\n      jumpi\n        /* \"#utility.yul\":6066:6067   */\n      0x00\n        /* \"#utility.yul\":6063:6064   */\n      dup1\n        /* \"#utility.yul\":6056:6068   */\n      revert\n        /* \"#utility.yul\":6018:6070   */\n    tag_786:\n        /* \"#utility.yul\":6089:6118   */\n      tag_553\n        /* \"#utility.yul\":6108:6117   */\n      dup3\n        /* \"#utility.yul\":6089:6118   */\n      tag_719\n      jump\t// in\n        /* \"#utility.yul\":6129:6383   */\n    tag_90:\n        /* \"#utility.yul\":6197:6203   */\n      0x00\n        /* \"#utility.yul\":6205:6211   */\n      dup1\n        /* \"#utility.yul\":6258:6260   */\n      0x40\n        /* \"#utility.yul\":6246:6255   */\n      dup4\n        /* \"#utility.yul\":6237:6244   */\n      dup6\n        /* \"#utility.yul\":6233:6256   */\n      sub\n        /* \"#utility.yul\":6229:6261   */\n      slt\n        /* \"#utility.yul\":6226:6278   */\n      iszero\n      tag_789\n      jumpi\n        /* \"#utility.yul\":6274:6275   */\n      0x00\n        /* \"#utility.yul\":6271:6272   */\n      dup1\n        /* \"#utility.yul\":6264:6276   */\n      revert\n        /* \"#utility.yul\":6226:6278   */\n    tag_789:\n        /* \"#utility.yul\":6297:6326   */\n      tag_790\n        /* \"#utility.yul\":6316:6325   */\n      dup4\n        /* \"#utility.yul\":6297:6326   */\n      tag_719\n      jump\t// in\n    tag_790:\n        /* \"#utility.yul\":6287:6326   */\n      swap5\n        /* \"#utility.yul\":6373:6375   */\n      0x20\n        /* \"#utility.yul\":6358:6376   */\n      swap4\n      swap1\n      swap4\n      add\n        /* \"#utility.yul\":6345:6377   */\n      calldataload\n      swap4\n      pop\n      pop\n      pop\n        /* \"#utility.yul\":6129:6383   */\n      jump\t// out\n        /* \"#utility.yul\":6388:6710   */\n    tag_189:\n        /* \"#utility.yul\":6465:6471   */\n      0x00\n        /* \"#utility.yul\":6473:6479   */\n      dup1\n        /* \"#utility.yul\":6481:6487   */\n      0x00\n        /* \"#utility.yul\":6534:6536   */\n      0x60\n        /* \"#utility.yul\":6522:6531   */\n      dup5\n        /* \"#utility.yul\":6513:6520   */\n      dup7\n        /* \"#utility.yul\":6509:6532   */\n      sub\n        /* \"#utility.yul\":6505:6537   */\n      slt\n        /* \"#utility.yul\":6502:6554   */\n      iszero\n      tag_792\n      jumpi\n        /* \"#utility.yul\":6550:6551   */\n      0x00\n        /* \"#utility.yul\":6547:6548   */\n      dup1\n        /* \"#utility.yul\":6540:6552   */\n      revert\n        /* \"#utility.yul\":6502:6554   */\n    tag_792:\n        /* \"#utility.yul\":6573:6602   */\n      tag_793\n        /* \"#utility.yul\":6592:6601   */\n      dup5\n        /* \"#utility.yul\":6573:6602   */\n      tag_719\n      jump\t// in\n    tag_793:\n        /* \"#utility.yul\":6563:6602   */\n      swap6\n        /* \"#utility.yul\":6649:6651   */\n      0x20\n        /* \"#utility.yul\":6634:6652   */\n      dup6\n      add\n        /* \"#utility.yul\":6621:6653   */\n      calldataload\n      swap6\n      pop\n        /* \"#utility.yul\":6700:6702   */\n      0x40\n        /* \"#utility.yul\":6685:6703   */\n      swap1\n      swap5\n      add\n        /* \"#utility.yul\":6672:6704   */\n      calldataload\n      swap4\n        /* \"#utility.yul\":6388:6710   */\n      swap3\n      pop\n      pop\n      pop\n      jump\t// out\n        /* \"#utility.yul\":6715:7134   */\n    tag_229:\n        /* \"#utility.yul\":6808:6814   */\n      0x00\n        /* \"#utility.yul\":6816:6822   */\n      dup1\n        /* \"#utility.yul\":6869:6871   */\n      0x40\n        /* \"#utility.yul\":6857:6866   */\n      dup4\n        /* \"#utility.yul\":6848:6855   */\n      dup6\n        /* \"#utility.yul\":6844:6867   */\n      sub\n        /* \"#utility.yul\":6840:6872   */\n      slt\n        /* \"#utility.yul\":6837:6889   */\n      iszero\n      tag_795\n      jumpi\n        /* \"#utility.yul\":6885:6886   */\n      0x00\n        /* \"#utility.yul\":6882:6883   */\n      dup1\n        /* \"#utility.yul\":6875:6887   */\n      revert\n        /* \"#utility.yul\":6837:6889   */\n    tag_795:\n        /* \"#utility.yul\":6925:6934   */\n      dup3\n        /* \"#utility.yul\":6912:6935   */\n      calldataload\n        /* \"#utility.yul\":6958:6976   */\n      0xffffffffffffffff\n        /* \"#utility.yul\":6950:6956   */\n      dup2\n        /* \"#utility.yul\":6947:6977   */\n      gt\n        /* \"#utility.yul\":6944:6994   */\n      iszero\n      tag_796\n      jumpi\n        /* \"#utility.yul\":6990:6991   */\n      0x00\n        /* \"#utility.yul\":6987:6988   */\n      dup1\n        /* \"#utility.yul\":6980:6992   */\n      revert\n        /* \"#utility.yul\":6944:6994   */\n    tag_796:\n        /* \"#utility.yul\":7013:7071   */\n      tag_797\n        /* \"#utility.yul\":7063:7070   */\n      dup6\n        /* \"#utility.yul\":7054:7060   */\n      dup3\n        /* \"#utility.yul\":7043:7052   */\n      dup7\n        /* \"#utility.yul\":7039:7061   */\n      add\n        /* \"#utility.yul\":7013:7071   */\n      tag_770\n      jump\t// in\n    tag_797:\n        /* \"#utility.yul\":7003:7071   */\n      swap3\n      pop\n      pop\n        /* \"#utility.yul\":7090:7128   */\n      tag_798\n        /* \"#utility.yul\":7124:7126   */\n      0x20\n        /* \"#utility.yul\":7113:7122   */\n      dup5\n        /* \"#utility.yul\":7109:7127   */\n      add\n        /* \"#utility.yul\":7090:7128   */\n      tag_719\n      jump\t// in\n    tag_798:\n        /* \"#utility.yul\":7080:7128   */\n      swap1\n      pop\n        /* \"#utility.yul\":6715:7134   */\n      swap3\n      pop\n      swap3\n      swap1\n      pop\n      jump\t// out\n        /* \"#utility.yul\":7139:7319   */\n    tag_84:\n        /* \"#utility.yul\":7198:7204   */\n      0x00\n        /* \"#utility.yul\":7251:7253   */\n      0x20\n        /* \"#utility.yul\":7239:7248   */\n      dup3\n        /* \"#utility.yul\":7230:7237   */\n      dup5\n        /* \"#utility.yul\":7226:7249   */\n      sub\n        /* \"#utility.yul\":7222:7254   */\n      slt\n        /* \"#utility.yul\":7219:7271   */\n      iszero\n      tag_800\n      jumpi\n        /* \"#utility.yul\":7267:7268   */\n      0x00\n        /* \"#utility.yul\":7264:7265   */\n      dup1\n        /* \"#utility.yul\":7257:7269   */\n      revert\n        /* \"#utility.yul\":7219:7271   */\n    tag_800:\n      pop\n        /* \"#utility.yul\":7290:7313   */\n      calldataload\n      swap2\n        /* \"#utility.yul\":7139:7319   */\n      swap1\n      pop\n      jump\t// out\n        /* \"#utility.yul\":7324:7578   */\n    tag_74:\n        /* \"#utility.yul\":7392:7398   */\n      0x00\n        /* \"#utility.yul\":7400:7406   */\n      dup1\n        /* \"#utility.yul\":7453:7455   */\n      0x40\n        /* \"#utility.yul\":7441:7450   */\n      dup4\n        /* \"#utility.yul\":7432:7439   */\n      dup6\n        /* \"#utility.yul\":7428:7451   */\n      sub\n        /* \"#utility.yul\":7424:7456   */\n      slt\n        /* \"#utility.yul\":7421:7473   */\n      iszero\n      tag_802\n      jumpi\n        /* \"#utility.yul\":7469:7470   */\n      0x00\n        /* \"#utility.yul\":7466:7467   */\n      dup1\n        /* \"#utility.yul\":7459:7471   */\n      revert\n        /* \"#utility.yul\":7421:7473   */\n    tag_802:\n        /* \"#utility.yul\":7505:7514   */\n      dup3\n        /* \"#utility.yul\":7492:7515   */\n      calldataload\n        /* \"#utility.yul\":7482:7515   */\n      swap2\n      pop\n        /* \"#utility.yul\":7534:7572   */\n      tag_798\n        /* \"#utility.yul\":7568:7570   */\n      0x20\n        /* \"#utility.yul\":7557:7566   */\n      dup5\n        /* \"#utility.yul\":7553:7571   */\n      add\n        /* \"#utility.yul\":7534:7572   */\n      tag_719\n      jump\t// in\n        /* \"#utility.yul\":7583:7905   */\n    tag_202:\n        /* \"#utility.yul\":7657:7663   */\n      0x00\n        /* \"#utility.yul\":7665:7671   */\n      dup1\n        /* \"#utility.yul\":7673:7679   */\n      0x00\n        /* \"#utility.yul\":7726:7728   */\n      0x60\n        /* \"#utility.yul\":7714:7723   */\n      dup5\n        /* \"#utility.yul\":7705:7712   */\n      dup7\n        /* \"#utility.yul\":7701:7724   */\n      sub\n        /* \"#utility.yul\":7697:7729   */\n      slt\n        /* \"#utility.yul\":7694:7746   */\n      iszero\n      tag_805\n      jumpi\n        /* \"#utility.yul\":7742:7743   */\n      0x00\n        /* \"#utility.yul\":7739:7740   */\n      dup1\n        /* \"#utility.yul\":7732:7744   */\n      revert\n        /* \"#utility.yul\":7694:7746   */\n    tag_805:\n        /* \"#utility.yul\":7778:7787   */\n      dup4\n        /* \"#utility.yul\":7765:7788   */\n      calldataload\n        /* \"#utility.yul\":7755:7788   */\n      swap3\n      pop\n        /* \"#utility.yul\":7807:7845   */\n      tag_806\n        /* \"#utility.yul\":7841:7843   */\n      0x20\n        /* \"#utility.yul\":7830:7839   */\n      dup6\n        /* \"#utility.yul\":7826:7844   */\n      add\n        /* \"#utility.yul\":7807:7845   */\n      tag_719\n      jump\t// in\n    tag_806:\n        /* \"#utility.yul\":7797:7845   */\n      swap2\n      pop\n        /* \"#utility.yul\":7864:7899   */\n      tag_807\n        /* \"#utility.yul\":7895:7897   */\n      0x40\n        /* \"#utility.yul\":7884:7893   */\n      dup6\n        /* \"#utility.yul\":7880:7898   */\n      add\n        /* \"#utility.yul\":7864:7899   */\n      tag_759\n      jump\t// in\n    tag_807:\n        /* \"#utility.yul\":7854:7899   */\n      swap1\n      pop\n        /* \"#utility.yul\":7583:7905   */\n      swap3\n      pop\n      swap3\n      pop\n      swap3\n      jump\t// out\n        /* \"#utility.yul\":7910:8232   */\n    tag_123:\n        /* \"#utility.yul\":7987:7993   */\n      0x00\n        /* \"#utility.yul\":7995:8001   */\n      dup1\n        /* \"#utility.yul\":8003:8009   */\n      0x00\n        /* \"#utility.yul\":8056:8058   */\n      0x60\n        /* \"#utility.yul\":8044:8053   */\n      dup5\n        /* \"#utility.yul\":8035:8042   */\n      dup7\n        /* \"#utility.yul\":8031:8054   */\n      sub\n        /* \"#utility.yul\":8027:8059   */\n      slt\n        /* \"#utility.yul\":8024:8076   */\n      iszero\n      tag_809\n      jumpi\n        /* \"#utility.yul\":8072:8073   */\n      0x00\n        /* \"#utility.yul\":8069:8070   */\n      dup1\n        /* \"#utility.yul\":8062:8074   */\n      revert\n        /* \"#utility.yul\":8024:8076   */\n    tag_809:\n        /* \"#utility.yul\":8108:8117   */\n      dup4\n        /* \"#utility.yul\":8095:8118   */\n      calldataload\n        /* \"#utility.yul\":8085:8118   */\n      swap3\n      pop\n        /* \"#utility.yul\":8137:8175   */\n      tag_810\n        /* \"#utility.yul\":8171:8173   */\n      0x20\n        /* \"#utility.yul\":8160:8169   */\n      dup6\n        /* \"#utility.yul\":8156:8174   */\n      add\n        /* \"#utility.yul\":8137:8175   */\n      tag_719\n      jump\t// in\n    tag_810:\n        /* \"#utility.yul\":8127:8175   */\n      swap2\n      pop\n        /* \"#utility.yul\":8222:8224   */\n      0x40\n        /* \"#utility.yul\":8211:8220   */\n      dup5\n        /* \"#utility.yul\":8207:8225   */\n      add\n        /* \"#utility.yul\":8194:8226   */\n      calldataload\n        /* \"#utility.yul\":8184:8226   */\n      swap1\n      pop\n        /* \"#utility.yul\":7910:8232   */\n      swap3\n      pop\n      swap3\n      pop\n      swap3\n      jump\t// out\n        /* \"#utility.yul\":8237:8720   */\n    tag_102:\n        /* \"#utility.yul\":8339:8345   */\n      0x00\n        /* \"#utility.yul\":8347:8353   */\n      dup1\n        /* \"#utility.yul\":8355:8361   */\n      0x00\n        /* \"#utility.yul\":8363:8369   */\n      dup1\n        /* \"#utility.yul\":8416:8419   */\n      0x80\n        /* \"#utility.yul\":8404:8413   */\n      dup6\n        /* \"#utility.yul\":8395:8402   */\n      dup8\n        /* \"#utility.yul\":8391:8414   */\n      sub\n        /* \"#utility.yul\":8387:8420   */\n      slt\n        /* \"#utility.yul\":8384:8437   */\n      iszero\n      tag_812\n      jumpi\n        /* \"#utility.yul\":8433:8434   */\n      0x00\n        /* \"#utility.yul\":8430:8431   */\n      dup1\n        /* \"#utility.yul\":8423:8435   */\n      revert\n        /* \"#utility.yul\":8384:8437   */\n    tag_812:\n        /* \"#utility.yul\":8469:8478   */\n      dup5\n        /* \"#utility.yul\":8456:8479   */\n      calldataload\n        /* \"#utility.yul\":8446:8479   */\n      swap4\n      pop\n        /* \"#utility.yul\":8498:8536   */\n      tag_813\n        /* \"#utility.yul\":8532:8534   */\n      0x20\n        /* \"#utility.yul\":8521:8530   */\n      dup7\n        /* \"#utility.yul\":8517:8535   */\n      add\n        /* \"#utility.yul\":8498:8536   */\n      tag_719\n      jump\t// in\n    tag_813:\n        /* \"#utility.yul\":8488:8536   */\n      swap3\n      pop\n        /* \"#utility.yul\":8583:8585   */\n      0x40\n        /* \"#utility.yul\":8572:8581   */\n      dup6\n        /* \"#utility.yul\":8568:8586   */\n      add\n        /* \"#utility.yul\":8555:8587   */\n      calldataload\n        /* \"#utility.yul\":8545:8587   */\n      swap2\n      pop\n        /* \"#utility.yul\":8637:8639   */\n      0x60\n        /* \"#utility.yul\":8626:8635   */\n      dup6\n        /* \"#utility.yul\":8622:8640   */\n      add\n        /* \"#utility.yul\":8609:8641   */\n      calldataload\n        /* \"#utility.yul\":8670:8671   */\n      0x05\n        /* \"#utility.yul\":8663:8668   */\n      dup2\n        /* \"#utility.yul\":8660:8672   */\n      lt\n        /* \"#utility.yul\":8650:8690   */\n      tag_814\n      jumpi\n        /* \"#utility.yul\":8686:8687   */\n      0x00\n        /* \"#utility.yul\":8683:8684   */\n      dup1\n        /* \"#utility.yul\":8676:8688   */\n      revert\n        /* \"#utility.yul\":8650:8690   */\n    tag_814:\n        /* \"#utility.yul\":8237:8720   */\n      swap4\n      swap7\n      swap3\n      swap6\n      pop\n      swap1\n      swap4\n      pop\n      pop\n      jump\t// out\n        /* \"#utility.yul\":8725:9258   */\n    tag_78:\n        /* \"#utility.yul\":8821:8827   */\n      0x00\n        /* \"#utility.yul\":8829:8835   */\n      dup1\n        /* \"#utility.yul\":8837:8843   */\n      0x00\n        /* \"#utility.yul\":8845:8851   */\n      dup1\n        /* \"#utility.yul\":8898:8901   */\n      0x80\n        /* \"#utility.yul\":8886:8895   */\n      dup6\n        /* \"#utility.yul\":8877:8884   */\n      dup8\n        /* \"#utility.yul\":8873:8896   */\n      sub\n        /* \"#utility.yul\":8869:8902   */\n      slt\n        /* \"#utility.yul\":8866:8919   */\n      iszero\n      tag_816\n      jumpi\n        /* \"#utility.yul\":8915:8916   */\n      0x00\n        /* \"#utility.yul\":8912:8913   */\n      dup1\n        /* \"#utility.yul\":8905:8917   */\n      revert\n        /* \"#utility.yul\":8866:8919   */\n    tag_816:\n        /* \"#utility.yul\":8951:8960   */\n      dup5\n        /* \"#utility.yul\":8938:8961   */\n      calldataload\n        /* \"#utility.yul\":8928:8961   */\n      swap4\n      pop\n        /* \"#utility.yul\":8980:9018   */\n      tag_817\n        /* \"#utility.yul\":9014:9016   */\n      0x20\n        /* \"#utility.yul\":9003:9012   */\n      dup7\n        /* \"#utility.yul\":8999:9017   */\n      add\n        /* \"#utility.yul\":8980:9018   */\n      tag_719\n      jump\t// in\n    tag_817:\n        /* \"#utility.yul\":8970:9018   */\n      swap3\n      pop\n        /* \"#utility.yul\":9065:9067   */\n      0x40\n        /* \"#utility.yul\":9054:9063   */\n      dup6\n        /* \"#utility.yul\":9050:9068   */\n      add\n        /* \"#utility.yul\":9037:9069   */\n      calldataload\n        /* \"#utility.yul\":9027:9069   */\n      swap2\n      pop\n        /* \"#utility.yul\":9120:9122   */\n      0x60\n        /* \"#utility.yul\":9109:9118   */\n      dup6\n        /* \"#utility.yul\":9105:9123   */\n      add\n        /* \"#utility.yul\":9092:9124   */\n      calldataload\n        /* \"#utility.yul\":9147:9165   */\n      0xffffffffffffffff\n        /* \"#utility.yul\":9139:9145   */\n      dup2\n        /* \"#utility.yul\":9136:9166   */\n      gt\n        /* \"#utility.yul\":9133:9183   */\n      iszero\n      tag_818\n      jumpi\n        /* \"#utility.yul\":9179:9180   */\n      0x00\n        /* \"#utility.yul\":9176:9177   */\n      dup1\n        /* \"#utility.yul\":9169:9181   */\n      revert\n        /* \"#utility.yul\":9133:9183   */\n    tag_818:\n        /* \"#utility.yul\":9202:9252   */\n      tag_819\n        /* \"#utility.yul\":9244:9251   */\n      dup8\n        /* \"#utility.yul\":9235:9241   */\n      dup3\n        /* \"#utility.yul\":9224:9233   */\n      dup9\n        /* \"#utility.yul\":9220:9242   */\n      add\n        /* \"#utility.yul\":9202:9252   */\n      tag_743\n      jump\t// in\n    tag_819:\n        /* \"#utility.yul\":9192:9252   */\n      swap2\n      pop\n      pop\n        /* \"#utility.yul\":8725:9258   */\n      swap3\n      swap6\n      swap2\n      swap5\n      pop\n      swap3\n      pop\n      jump\t// out\n        /* \"#utility.yul\":9263:9511   */\n    tag_155:\n        /* \"#utility.yul\":9328:9334   */\n      0x00\n        /* \"#utility.yul\":9336:9342   */\n      dup1\n        /* \"#utility.yul\":9389:9391   */\n      0x40\n        /* \"#utility.yul\":9377:9386   */\n      dup4\n        /* \"#utility.yul\":9368:9375   */\n      dup6\n        /* \"#utility.yul\":9364:9387   */\n      sub\n        /* \"#utility.yul\":9360:9392   */\n      slt\n        /* \"#utility.yul\":9357:9409   */\n      iszero\n      tag_821\n      jumpi\n        /* \"#utility.yul\":9405:9406   */\n      0x00\n        /* \"#utility.yul\":9402:9403   */\n      dup1\n        /* \"#utility.yul\":9395:9407   */\n      revert\n        /* \"#utility.yul\":9357:9409   */\n    tag_821:\n        /* \"#utility.yul\":9441:9450   */\n      dup3\n        /* \"#utility.yul\":9428:9451   */\n      calldataload\n        /* \"#utility.yul\":9418:9451   */\n      swap2\n      pop\n        /* \"#utility.yul\":9470:9505   */\n      tag_798\n        /* \"#utility.yul\":9501:9503   */\n      0x20\n        /* \"#utility.yul\":9490:9499   */\n      dup5\n        /* \"#utility.yul\":9486:9504   */\n      add\n        /* \"#utility.yul\":9470:9505   */\n      tag_759\n      jump\t// in\n        /* \"#utility.yul\":9516:9857   */\n    tag_94:\n        /* \"#utility.yul\":9601:9607   */\n      0x00\n        /* \"#utility.yul\":9609:9615   */\n      dup1\n        /* \"#utility.yul\":9662:9664   */\n      0x40\n        /* \"#utility.yul\":9650:9659   */\n      dup4\n        /* \"#utility.yul\":9641:9648   */\n      dup6\n        /* \"#utility.yul\":9637:9660   */\n      sub\n        /* \"#utility.yul\":9633:9665   */\n      slt\n        /* \"#utility.yul\":9630:9682   */\n      iszero\n      tag_824\n      jumpi\n        /* \"#utility.yul\":9678:9679   */\n      0x00\n        /* \"#utility.yul\":9675:9676   */\n      dup1\n        /* \"#utility.yul\":9668:9680   */\n      revert\n        /* \"#utility.yul\":9630:9682   */\n    tag_824:\n        /* \"#utility.yul\":9714:9723   */\n      dup3\n        /* \"#utility.yul\":9701:9724   */\n      calldataload\n        /* \"#utility.yul\":9691:9724   */\n      swap2\n      pop\n        /* \"#utility.yul\":9774:9776   */\n      0x20\n        /* \"#utility.yul\":9763:9772   */\n      dup4\n        /* \"#utility.yul\":9759:9777   */\n      add\n        /* \"#utility.yul\":9746:9778   */\n      calldataload\n        /* \"#utility.yul\":9807:9808   */\n      0x08\n        /* \"#utility.yul\":9800:9805   */\n      dup2\n        /* \"#utility.yul\":9797:9809   */\n      lt\n        /* \"#utility.yul\":9787:9827   */\n      tag_825\n      jumpi\n        /* \"#utility.yul\":9823:9824   */\n      0x00\n        /* \"#utility.yul\":9820:9821   */\n      dup1\n        /* \"#utility.yul\":9813:9825   */\n      revert\n        /* \"#utility.yul\":9787:9827   */\n    tag_825:\n        /* \"#utility.yul\":9846:9851   */\n      dup1\n        /* \"#utility.yul\":9836:9851   */\n      swap2\n      pop\n      pop\n        /* \"#utility.yul\":9516:9857   */\n      swap3\n      pop\n      swap3\n      swap1\n      pop\n      jump\t// out\n        /* \"#utility.yul\":9862:10275   */\n    tag_106:\n        /* \"#utility.yul\":9955:9961   */\n      0x00\n        /* \"#utility.yul\":9963:9969   */\n      dup1\n        /* \"#utility.yul\":10016:10018   */\n      0x40\n        /* \"#utility.yul\":10004:10013   */\n      dup4\n        /* \"#utility.yul\":9995:10002   */\n      dup6\n        /* \"#utility.yul\":9991:10014   */\n      sub\n        /* \"#utility.yul\":9987:10019   */\n      slt\n        /* \"#utility.yul\":9984:10036   */\n      iszero\n      tag_827\n      jumpi\n        /* \"#utility.yul\":10032:10033   */\n      0x00\n        /* \"#utility.yul\":10029:10030   */\n      dup1\n        /* \"#utility.yul\":10022:10034   */\n      revert\n        /* \"#utility.yul\":9984:10036   */\n    tag_827:\n        /* \"#utility.yul\":10068:10077   */\n      dup3\n        /* \"#utility.yul\":10055:10078   */\n      calldataload\n        /* \"#utility.yul\":10045:10078   */\n      swap2\n      pop\n        /* \"#utility.yul\":10129:10131   */\n      0x20\n        /* \"#utility.yul\":10118:10127   */\n      dup4\n        /* \"#utility.yul\":10114:10132   */\n      add\n        /* \"#utility.yul\":10101:10133   */\n      calldataload\n        /* \"#utility.yul\":10156:10174   */\n      0xffffffffffffffff\n        /* \"#utility.yul\":10148:10154   */\n      dup2\n        /* \"#utility.yul\":10145:10175   */\n      gt\n        /* \"#utility.yul\":10142:10192   */\n      iszero\n      tag_828\n      jumpi\n        /* \"#utility.yul\":10188:10189   */\n      0x00\n        /* \"#utility.yul\":10185:10186   */\n      dup1\n        /* \"#utility.yul\":10178:10190   */\n      revert\n        /* \"#utility.yul\":10142:10192   */\n    tag_828:\n        /* \"#utility.yul\":10211:10269   */\n      tag_829\n        /* \"#utility.yul\":10261:10268   */\n      dup6\n        /* \"#utility.yul\":10252:10258   */\n      dup3\n        /* \"#utility.yul\":10241:10250   */\n      dup7\n        /* \"#utility.yul\":10237:10259   */\n      add\n        /* \"#utility.yul\":10211:10269   */\n      tag_770\n      jump\t// in\n    tag_829:\n        /* \"#utility.yul\":10201:10269   */\n      swap2\n      pop\n      pop\n        /* \"#utility.yul\":9862:10275   */\n      swap3\n      pop\n      swap3\n      swap1\n      pop\n      jump\t// out\n        /* \"#utility.yul\":10280:10528   */\n    tag_241:\n        /* \"#utility.yul\":10348:10354   */\n      0x00\n        /* \"#utility.yul\":10356:10362   */\n      dup1\n        /* \"#utility.yul\":10409:10411   */\n      0x40\n        /* \"#utility.yul\":10397:10406   */\n      dup4\n        /* \"#utility.yul\":10388:10395   */\n      dup6\n        /* \"#utility.yul\":10384:10407   */\n      sub\n        /* \"#utility.yul\":10380:10412   */\n      slt\n        /* \"#utility.yul\":10377:10429   */\n      iszero\n      tag_831\n      jumpi\n        /* \"#utility.yul\":10425:10426   */\n      0x00\n        /* \"#utility.yul\":10422:10423   */\n      dup1\n        /* \"#utility.yul\":10415:10427   */\n      revert\n        /* \"#utility.yul\":10377:10429   */\n    tag_831:\n      pop\n      pop\n        /* \"#utility.yul\":10448:10471   */\n      dup1\n      calldataload\n      swap3\n        /* \"#utility.yul\":10518:10520   */\n      0x20\n        /* \"#utility.yul\":10503:10521   */\n      swap1\n      swap2\n      add\n        /* \"#utility.yul\":10490:10522   */\n      calldataload\n      swap2\n      pop\n        /* \"#utility.yul\":10280:10528   */\n      jump\t// out\n        /* \"#utility.yul\":10533:10855   */\n    tag_164:\n        /* \"#utility.yul\":10610:10616   */\n      0x00\n        /* \"#utility.yul\":10618:10624   */\n      dup1\n        /* \"#utility.yul\":10626:10632   */\n      0x00\n        /* \"#utility.yul\":10679:10681   */\n      0x60\n        /* \"#utility.yul\":10667:10676   */\n      dup5\n        /* \"#utility.yul\":10658:10665   */\n      dup7\n        /* \"#utility.yul\":10654:10677   */\n      sub\n        /* \"#utility.yul\":10650:10682   */\n      slt\n        /* \"#utility.yul\":10647:10699   */\n      iszero\n      tag_833\n      jumpi\n        /* \"#utility.yul\":10695:10696   */\n      0x00\n        /* \"#utility.yul\":10692:10693   */\n      dup1\n        /* \"#utility.yul\":10685:10697   */\n      revert\n        /* \"#utility.yul\":10647:10699   */\n    tag_833:\n        /* \"#utility.yul\":10731:10740   */\n      dup4\n        /* \"#utility.yul\":10718:10741   */\n      calldataload\n        /* \"#utility.yul\":10708:10741   */\n      swap3\n      pop\n        /* \"#utility.yul\":10788:10790   */\n      0x20\n        /* \"#utility.yul\":10777:10786   */\n      dup5\n        /* \"#utility.yul\":10773:10791   */\n      add\n        /* \"#utility.yul\":10760:10792   */\n      calldataload\n        /* \"#utility.yul\":10750:10792   */\n      swap2\n      pop\n        /* \"#utility.yul\":10811:10849   */\n      tag_807\n        /* \"#utility.yul\":10845:10847   */\n      0x40\n        /* \"#utility.yul\":10834:10843   */\n      dup6\n        /* \"#utility.yul\":10830:10848   */\n      add\n        /* \"#utility.yul\":10811:10849   */\n      tag_719\n      jump\t// in\n        /* \"#utility.yul\":10860:11203   */\n    tag_110:\n        /* \"#utility.yul\":10951:10957   */\n      0x00\n        /* \"#utility.yul\":10959:10965   */\n      dup1\n        /* \"#utility.yul\":10967:10973   */\n      0x00\n        /* \"#utility.yul\":11020:11022   */\n      0x60\n        /* \"#utility.yul\":11008:11017   */\n      dup5\n        /* \"#utility.yul\":10999:11006   */\n      dup7\n        /* \"#utility.yul\":10995:11018   */\n      sub\n        /* \"#utility.yul\":10991:11023   */\n      slt\n        /* \"#utility.yul\":10988:11040   */\n      iszero\n      tag_836\n      jumpi\n        /* \"#utility.yul\":11036:11037   */\n      0x00\n        /* \"#utility.yul\":11033:11034   */\n      dup1\n        /* \"#utility.yul\":11026:11038   */\n      revert\n        /* \"#utility.yul\":10988:11040   */\n    tag_836:\n        /* \"#utility.yul\":11072:11081   */\n      dup4\n        /* \"#utility.yul\":11059:11082   */\n      calldataload\n        /* \"#utility.yul\":11049:11082   */\n      swap3\n      pop\n        /* \"#utility.yul\":11129:11131   */\n      0x20\n        /* \"#utility.yul\":11118:11127   */\n      dup5\n        /* \"#utility.yul\":11114:11132   */\n      add\n        /* \"#utility.yul\":11101:11133   */\n      calldataload\n        /* \"#utility.yul\":11091:11133   */\n      swap2\n      pop\n        /* \"#utility.yul\":11152:11197   */\n      tag_807\n        /* \"#utility.yul\":11193:11195   */\n      0x40\n        /* \"#utility.yul\":11182:11191   */\n      dup6\n        /* \"#utility.yul\":11178:11196   */\n      add\n        /* \"#utility.yul\":11152:11197   */\n      tag_749\n      jump\t// in\n        /* \"#utility.yul\":11340:11824   */\n    tag_840:\n        /* \"#utility.yul\":11393:11396   */\n      0x00\n        /* \"#utility.yul\":11431:11436   */\n      dup2\n        /* \"#utility.yul\":11425:11437   */\n      mload\n        /* \"#utility.yul\":11458:11464   */\n      dup1\n        /* \"#utility.yul\":11453:11456   */\n      dup5\n        /* \"#utility.yul\":11446:11465   */\n      mstore\n        /* \"#utility.yul\":11484:11488   */\n      0x20\n        /* \"#utility.yul\":11513:11515   */\n      dup1\n        /* \"#utility.yul\":11508:11511   */\n      dup6\n        /* \"#utility.yul\":11504:11516   */\n      add\n        /* \"#utility.yul\":11497:11516   */\n      swap5\n      pop\n        /* \"#utility.yul\":11550:11552   */\n      dup1\n        /* \"#utility.yul\":11543:11548   */\n      dup5\n        /* \"#utility.yul\":11539:11553   */\n      add\n        /* \"#utility.yul\":11571:11572   */\n      0x00\n        /* \"#utility.yul\":11581:11799   */\n    tag_842:\n        /* \"#utility.yul\":11595:11601   */\n      dup4\n        /* \"#utility.yul\":11592:11593   */\n      dup2\n        /* \"#utility.yul\":11589:11602   */\n      lt\n        /* \"#utility.yul\":11581:11799   */\n      iszero\n      tag_844\n      jumpi\n        /* \"#utility.yul\":11660:11673   */\n      dup2\n      mload\n      sub(shl(0xa0, 0x01), 0x01)\n        /* \"#utility.yul\":11656:11718   */\n      and\n        /* \"#utility.yul\":11644:11719   */\n      dup8\n      mstore\n        /* \"#utility.yul\":11739:11751   */\n      swap6\n      dup3\n      add\n      swap6\n        /* \"#utility.yul\":11774:11789   */\n      swap1\n      dup3\n      add\n      swap1\n        /* \"#utility.yul\":11617:11618   */\n      0x01\n        /* \"#utility.yul\":11610:11619   */\n      add\n        /* \"#utility.yul\":11581:11799   */\n      jump(tag_842)\n    tag_844:\n      pop\n        /* \"#utility.yul\":11815:11818   */\n      swap5\n      swap6\n        /* \"#utility.yul\":11340:11824   */\n      swap5\n      pop\n      pop\n      pop\n      pop\n      pop\n      jump\t// out\n        /* \"#utility.yul\":11829:13865   */\n    tag_845:\n        /* \"#utility.yul\":11890:11893   */\n      0x00\n        /* \"#utility.yul\":11928:11933   */\n      dup2\n        /* \"#utility.yul\":11922:11934   */\n      mload\n        /* \"#utility.yul\":11955:11961   */\n      dup1\n        /* \"#utility.yul\":11950:11953   */\n      dup5\n        /* \"#utility.yul\":11943:11962   */\n      mstore\n        /* \"#utility.yul\":11981:11985   */\n      0x20\n        /* \"#utility.yul\":12022:12024   */\n      dup1\n        /* \"#utility.yul\":12017:12020   */\n      dup6\n        /* \"#utility.yul\":12013:12025   */\n      add\n        /* \"#utility.yul\":12047:12058   */\n      dup1\n        /* \"#utility.yul\":12074:12085   */\n      dup2\n        /* \"#utility.yul\":12067:12085   */\n      swap7\n      pop\n        /* \"#utility.yul\":12124:12130   */\n      dup4\n        /* \"#utility.yul\":12121:12122   */\n      0x05\n        /* \"#utility.yul\":12117:12131   */\n      shl\n        /* \"#utility.yul\":12110:12115   */\n      dup2\n        /* \"#utility.yul\":12106:12132   */\n      add\n        /* \"#utility.yul\":12094:12132   */\n      swap2\n      pop\n        /* \"#utility.yul\":12166:12168   */\n      dup3\n        /* \"#utility.yul\":12159:12164   */\n      dup7\n        /* \"#utility.yul\":12155:12169   */\n      add\n        /* \"#utility.yul\":12187:12188   */\n      0x00\n        /* \"#utility.yul\":12197:13839   */\n    tag_847:\n        /* \"#utility.yul\":12211:12217   */\n      dup6\n        /* \"#utility.yul\":12208:12209   */\n      dup2\n        /* \"#utility.yul\":12205:12218   */\n      lt\n        /* \"#utility.yul\":12197:13839   */\n      iszero\n      tag_849\n      jumpi\n        /* \"#utility.yul\":12282:12287   */\n      dup3\n        /* \"#utility.yul\":12276:12280   */\n      dup5\n        /* \"#utility.yul\":12272:12288   */\n      sub\n        /* \"#utility.yul\":12267:12270   */\n      dup10\n        /* \"#utility.yul\":12260:12289   */\n      mstore\n        /* \"#utility.yul\":12318:12324   */\n      dup2\n        /* \"#utility.yul\":12312:12325   */\n      mload\n        /* \"#utility.yul\":12348:12352   */\n      0xa0\n        /* \"#utility.yul\":12391:12393   */\n      dup2\n        /* \"#utility.yul\":12385:12394   */\n      mload\n        /* \"#utility.yul\":12420:12422   */\n      dup2\n        /* \"#utility.yul\":12414:12418   */\n      dup8\n        /* \"#utility.yul\":12407:12423   */\n      mstore\n        /* \"#utility.yul\":12464:12476   */\n      dup1\n        /* \"#utility.yul\":12458:12477   */\n      mload\n        /* \"#utility.yul\":12500:12504   */\n      0xe0\n        /* \"#utility.yul\":12539:12541   */\n      dup1\n        /* \"#utility.yul\":12534:12536   */\n      dup5\n        /* \"#utility.yul\":12528:12532   */\n      dup11\n        /* \"#utility.yul\":12524:12537   */\n      add\n        /* \"#utility.yul\":12517:12542   */\n      mstore\n        /* \"#utility.yul\":12569:12618   */\n      tag_850\n        /* \"#utility.yul\":12613:12616   */\n      0x0180\n        /* \"#utility.yul\":12607:12611   */\n      dup11\n        /* \"#utility.yul\":12603:12617   */\n      add\n        /* \"#utility.yul\":12587:12601   */\n      dup4\n        /* \"#utility.yul\":12569:12618   */\n      tag_851\n      jump\t// in\n    tag_850:\n        /* \"#utility.yul\":12555:12618   */\n      swap2\n      pop\n        /* \"#utility.yul\":12665:12667   */\n      dup10\n        /* \"#utility.yul\":12651:12663   */\n      dup4\n        /* \"#utility.yul\":12647:12668   */\n      add\n        /* \"#utility.yul\":12641:12669   */\n      mload\n        /* \"#utility.yul\":12692:12695   */\n      0xc0\n        /* \"#utility.yul\":12730:12732   */\n      dup2\n        /* \"#utility.yul\":12725:12727   */\n      dup2\n        /* \"#utility.yul\":12719:12723   */\n      dup13\n        /* \"#utility.yul\":12715:12728   */\n      add\n        /* \"#utility.yul\":12708:12733   */\n      mstore\n        /* \"#utility.yul\":12756:12760   */\n      0x40\n        /* \"#utility.yul\":12746:12760   */\n      swap2\n      pop\n        /* \"#utility.yul\":12819:12821   */\n      dup2\n        /* \"#utility.yul\":12805:12817   */\n      dup6\n        /* \"#utility.yul\":12801:12822   */\n      add\n        /* \"#utility.yul\":12795:12823   */\n      mload\n        /* \"#utility.yul\":12790:12792   */\n      dup4\n        /* \"#utility.yul\":12784:12788   */\n      dup13\n        /* \"#utility.yul\":12780:12793   */\n      add\n        /* \"#utility.yul\":12773:12824   */\n      mstore\n        /* \"#utility.yul\":12847:12851   */\n      0x60\n        /* \"#utility.yul\":12837:12851   */\n      swap3\n      pop\n        /* \"#utility.yul\":12911:12913   */\n      dup3\n        /* \"#utility.yul\":12897:12909   */\n      dup6\n        /* \"#utility.yul\":12893:12914   */\n      add\n        /* \"#utility.yul\":12887:12915   */\n      mload\n        /* \"#utility.yul\":12881:12884   */\n      0x0100\n        /* \"#utility.yul\":12875:12879   */\n      dup13\n        /* \"#utility.yul\":12871:12885   */\n      add\n        /* \"#utility.yul\":12864:12916   */\n      mstore\n        /* \"#utility.yul\":12939:12943   */\n      0x80\n        /* \"#utility.yul\":13003:13005   */\n      dup1\n        /* \"#utility.yul\":12989:13001   */\n      dup7\n        /* \"#utility.yul\":12985:13006   */\n      add\n        /* \"#utility.yul\":12979:13007   */\n      mload\n        /* \"#utility.yul\":12973:12976   */\n      0x0120\n        /* \"#utility.yul\":12967:12971   */\n      dup14\n        /* \"#utility.yul\":12963:12977   */\n      add\n        /* \"#utility.yul\":12956:13008   */\n      mstore\n        /* \"#utility.yul\":13068:13070   */\n      dup7\n        /* \"#utility.yul\":13054:13066   */\n      dup7\n        /* \"#utility.yul\":13050:13071   */\n      add\n        /* \"#utility.yul\":13044:13072   */\n      mload\n        /* \"#utility.yul\":13038:13041   */\n      0x0140\n        /* \"#utility.yul\":13032:13036   */\n      dup14\n        /* \"#utility.yul\":13028:13042   */\n      add\n        /* \"#utility.yul\":13021:13073   */\n      mstore\n        /* \"#utility.yul\":13132:13134   */\n      dup2\n        /* \"#utility.yul\":13118:13130   */\n      dup7\n        /* \"#utility.yul\":13114:13135   */\n      add\n        /* \"#utility.yul\":13108:13136   */\n      mload\n        /* \"#utility.yul\":13086:13136   */\n      swap7\n      pop\n        /* \"#utility.yul\":13195:13261   */\n      0xffffffffffffffffffffffffffffffffffffffffffffffffffffffffffffff60\n        /* \"#utility.yul\":13188:13192   */\n      dup13\n        /* \"#utility.yul\":13180:13186   */\n      dup7\n        /* \"#utility.yul\":13176:13193   */\n      sub\n        /* \"#utility.yul\":13172:13262   */\n      add\n        /* \"#utility.yul\":13166:13169   */\n      0x0160\n        /* \"#utility.yul\":13160:13164   */\n      dup14\n        /* \"#utility.yul\":13156:13170   */\n      add\n        /* \"#utility.yul\":13149:13263   */\n      mstore\n        /* \"#utility.yul\":13289:13330   */\n      tag_852\n        /* \"#utility.yul\":13323:13329   */\n      dup6\n        /* \"#utility.yul\":13307:13321   */\n      dup9\n        /* \"#utility.yul\":13289:13330   */\n      tag_851\n      jump\t// in\n    tag_852:\n        /* \"#utility.yul\":13276:13330   */\n      swap7\n      pop\n        /* \"#utility.yul\":13379:13381   */\n      dup13\n        /* \"#utility.yul\":13375:13377   */\n      dup9\n        /* \"#utility.yul\":13371:13382   */\n      add\n        /* \"#utility.yul\":13365:13383   */\n      mload\n        /* \"#utility.yul\":13360:13362   */\n      dup14\n        /* \"#utility.yul\":13354:13358   */\n      dup14\n        /* \"#utility.yul\":13350:13363   */\n      add\n        /* \"#utility.yul\":13343:13384   */\n      mstore\n        /* \"#utility.yul\":13433:13435   */\n      dup3\n        /* \"#utility.yul\":13429:13431   */\n      dup9\n        /* \"#utility.yul\":13425:13436   */\n      add\n        /* \"#utility.yul\":13419:13437   */\n      mload\n        /* \"#utility.yul\":13397:13437   */\n      swap6\n      pop\n        /* \"#utility.yul\":13483:13487   */\n      dup12\n        /* \"#utility.yul\":13476:13481   */\n      dup8\n        /* \"#utility.yul\":13472:13488   */\n      sub\n        /* \"#utility.yul\":13467:13469   */\n      dup4\n        /* \"#utility.yul\":13461:13465   */\n      dup14\n        /* \"#utility.yul\":13457:13470   */\n      add\n        /* \"#utility.yul\":13450:13489   */\n      mstore\n        /* \"#utility.yul\":13516:13556   */\n      tag_853\n        /* \"#utility.yul\":13550:13555   */\n      dup8\n        /* \"#utility.yul\":13534:13548   */\n      dup8\n        /* \"#utility.yul\":13516:13556   */\n      tag_851\n      jump\t// in\n    tag_853:\n        /* \"#utility.yul\":13502:13556   */\n      swap7\n      pop\n        /* \"#utility.yul\":13605:13607   */\n      dup4\n        /* \"#utility.yul\":13601:13603   */\n      dup9\n        /* \"#utility.yul\":13597:13608   */\n      add\n        /* \"#utility.yul\":13591:13609   */\n      mload\n        /* \"#utility.yul\":13569:13609   */\n      swap6\n      pop\n        /* \"#utility.yul\":13622:13678   */\n      tag_854\n        /* \"#utility.yul\":13674:13676   */\n      dup5\n        /* \"#utility.yul\":13668:13672   */\n      dup14\n        /* \"#utility.yul\":13664:13677   */\n      add\n        /* \"#utility.yul\":13648:13662   */\n      dup8\n        /* \"#utility.yul\":13622:13678   */\n      tag_855\n      jump\t// in\n    tag_854:\n        /* \"#utility.yul\":13719:13730   */\n      swap7\n      dup8\n      add\n        /* \"#utility.yul\":13713:13731   */\n      mload\n        /* \"#utility.yul\":13698:13711   */\n      swap11\n      swap1\n      swap7\n      add\n        /* \"#utility.yul\":13691:13732   */\n      swap10\n      swap1\n      swap10\n      mstore\n      pop\n      pop\n      pop\n        /* \"#utility.yul\":13817:13829   */\n      swap10\n      dup7\n      add\n      swap10\n        /* \"#utility.yul\":13753:13759   */\n      swap5\n      pop\n      pop\n        /* \"#utility.yul\":13782:13797   */\n      swap1\n      dup5\n      add\n      swap1\n        /* \"#utility.yul\":12233:12234   */\n      0x01\n        /* \"#utility.yul\":12226:12235   */\n      add\n        /* \"#utility.yul\":12197:13839   */\n      jump(tag_847)\n    tag_849:\n      pop\n        /* \"#utility.yul\":13855:13859   */\n      swap2\n      swap8\n        /* \"#utility.yul\":11829:13865   */\n      swap7\n      pop\n      pop\n      pop\n      pop\n      pop\n      pop\n      pop\n      jump\t// out\n        /* \"#utility.yul\":13870:14305   */\n    tag_856:\n        /* \"#utility.yul\":13923:13926   */\n      0x00\n        /* \"#utility.yul\":13961:13966   */\n      dup2\n        /* \"#utility.yul\":13955:13967   */\n      mload\n        /* \"#utility.yul\":13988:13994   */\n      dup1\n        /* \"#utility.yul\":13983:13986   */\n      dup5\n        /* \"#utility.yul\":13976:13995   */\n      mstore\n        /* \"#utility.yul\":14014:14018   */\n      0x20\n        /* \"#utility.yul\":14043:14045   */\n      dup1\n        /* \"#utility.yul\":14038:14041   */\n      dup6\n        /* \"#utility.yul\":14034:14046   */\n      add\n        /* \"#utility.yul\":14027:14046   */\n      swap5\n      pop\n        /* \"#utility.yul\":14080:14082   */\n      dup1\n        /* \"#utility.yul\":14073:14078   */\n      dup5\n        /* \"#utility.yul\":14069:14083   */\n      add\n        /* \"#utility.yul\":14101:14102   */\n      0x00\n        /* \"#utility.yul\":14111:14280   */\n    tag_858:\n        /* \"#utility.yul\":14125:14131   */\n      dup4\n        /* \"#utility.yul\":14122:14123   */\n      dup2\n        /* \"#utility.yul\":14119:14132   */\n      lt\n        /* \"#utility.yul\":14111:14280   */\n      iszero\n      tag_844\n      jumpi\n        /* \"#utility.yul\":14186:14199   */\n      dup2\n      mload\n        /* \"#utility.yul\":14174:14200   */\n      dup8\n      mstore\n        /* \"#utility.yul\":14220:14232   */\n      swap6\n      dup3\n      add\n      swap6\n        /* \"#utility.yul\":14255:14270   */\n      swap1\n      dup3\n      add\n      swap1\n        /* \"#utility.yul\":14147:14148   */\n      0x01\n        /* \"#utility.yul\":14140:14149   */\n      add\n        /* \"#utility.yul\":14111:14280   */\n      jump(tag_858)\n        /* \"#utility.yul\":14406:14547   */\n    tag_855:\n        /* \"#utility.yul\":14487:14489   */\n      0x0c\n        /* \"#utility.yul\":14480:14485   */\n      dup2\n        /* \"#utility.yul\":14477:14490   */\n      lt\n        /* \"#utility.yul\":14467:14514   */\n      tag_865\n      jumpi\n        /* \"#utility.yul\":14494:14512   */\n      tag_865\n      tag_324\n      jump\t// in\n    tag_865:\n        /* \"#utility.yul\":14523:14541   */\n      swap1\n      mstore\n        /* \"#utility.yul\":14406:14547   */\n      jump\t// out\n        /* \"#utility.yul\":14552:14695   */\n    tag_866:\n        /* \"#utility.yul\":14636:14637   */\n      0x08\n        /* \"#utility.yul\":14629:14634   */\n      dup2\n        /* \"#utility.yul\":14626:14638   */\n      lt\n        /* \"#utility.yul\":14616:14662   */\n      tag_865\n      jumpi\n        /* \"#utility.yul\":14642:14660   */\n      tag_865\n      tag_324\n      jump\t// in\n        /* \"#utility.yul\":14700:15231   */\n    tag_851:\n        /* \"#utility.yul\":14742:14745   */\n      0x00\n        /* \"#utility.yul\":14780:14785   */\n      dup2\n        /* \"#utility.yul\":14774:14786   */\n      mload\n        /* \"#utility.yul\":14807:14813   */\n      dup1\n        /* \"#utility.yul\":14802:14805   */\n      dup5\n        /* \"#utility.yul\":14795:14814   */\n      mstore\n        /* \"#utility.yul\":14832:14833   */\n      0x00\n        /* \"#utility.yul\":14842:15004   */\n    tag_871:\n        /* \"#utility.yul\":14856:14862   */\n      dup2\n        /* \"#utility.yul\":14853:14854   */\n      dup2\n        /* \"#utility.yul\":14850:14863   */\n      lt\n        /* \"#utility.yul\":14842:15004   */\n      iszero\n      tag_873\n      jumpi\n        /* \"#utility.yul\":14918:14922   */\n      0x20\n        /* \"#utility.yul\":14974:14987   */\n      dup2\n      dup6\n      add\n        /* \"#utility.yul\":14970:14992   */\n      dup2\n      add\n        /* \"#utility.yul\":14964:14993   */\n      mload\n        /* \"#utility.yul\":14946:14957   */\n      dup7\n      dup4\n      add\n        /* \"#utility.yul\":14942:14962   */\n      dup3\n      add\n        /* \"#utility.yul\":14935:14994   */\n      mstore\n        /* \"#utility.yul\":14871:14883   */\n      add\n        /* \"#utility.yul\":14842:15004   */\n      jump(tag_871)\n    tag_873:\n        /* \"#utility.yul\":15022:15028   */\n      dup2\n        /* \"#utility.yul\":15019:15020   */\n      dup2\n        /* \"#utility.yul\":15016:15029   */\n      gt\n        /* \"#utility.yul\":15013:15100   */\n      iszero\n      tag_874\n      jumpi\n        /* \"#utility.yul\":15088:15089   */\n      0x00\n        /* \"#utility.yul\":15081:15085   */\n      0x20\n        /* \"#utility.yul\":15072:15078   */\n      dup4\n        /* \"#utility.yul\":15067:15070   */\n      dup8\n        /* \"#utility.yul\":15063:15079   */\n      add\n        /* \"#utility.yul\":15059:15086   */\n      add\n        /* \"#utility.yul\":15052:15090   */\n      mstore\n        /* \"#utility.yul\":15013:15100   */\n    tag_874:\n      pop\n        /* \"#utility.yul\":15145:15147   */\n      0x1f\n        /* \"#utility.yul\":15133:15148   */\n      add\n      not(0x1f)\n        /* \"#utility.yul\":15129:15217   */\n      and\n        /* \"#utility.yul\":15120:15218   */\n      swap3\n      swap1\n      swap3\n      add\n        /* \"#utility.yul\":15220:15224   */\n      0x20\n        /* \"#utility.yul\":15116:15225   */\n      add\n      swap3\n        /* \"#utility.yul\":14700:15231   */\n      swap2\n      pop\n      pop\n      jump\t// out\n        /* \"#utility.yul\":15467:15728   */\n    tag_220:\n        /* \"#utility.yul\":15646:15648   */\n      0x20\n        /* \"#utility.yul\":15635:15644   */\n      dup2\n        /* \"#utility.yul\":15628:15649   */\n      mstore\n        /* \"#utility.yul\":15609:15613   */\n      0x00\n        /* \"#utility.yul\":15666:15722   */\n      tag_553\n        /* \"#utility.yul\":15718:15720   */\n      0x20\n        /* \"#utility.yul\":15707:15716   */\n      dup4\n        /* \"#utility.yul\":15703:15721   */\n      add\n        /* \"#utility.yul\":15695:15701   */\n      dup5\n        /* \"#utility.yul\":15666:15722   */\n      tag_840\n      jump\t// in\n        /* \"#utility.yul\":15733:16054   */\n    tag_87:\n        /* \"#utility.yul\":15964:15966   */\n      0x20\n        /* \"#utility.yul\":15953:15962   */\n      dup2\n        /* \"#utility.yul\":15946:15967   */\n      mstore\n        /* \"#utility.yul\":15927:15931   */\n      0x00\n        /* \"#utility.yul\":15984:16048   */\n      tag_553\n        /* \"#utility.yul\":16044:16046   */\n      0x20\n        /* \"#utility.yul\":16033:16042   */\n      dup4\n        /* \"#utility.yul\":16029:16047   */\n      add\n        /* \"#utility.yul\":16021:16027   */\n      dup5\n        /* \"#utility.yul\":15984:16048   */\n      tag_845\n      jump\t// in\n        /* \"#utility.yul\":16059:16391   */\n    tag_205:\n        /* \"#utility.yul\":16266:16268   */\n      0x40\n        /* \"#utility.yul\":16255:16264   */\n      dup2\n        /* \"#utility.yul\":16248:16269   */\n      mstore\n        /* \"#utility.yul\":16229:16233   */\n      0x00\n        /* \"#utility.yul\":16286:16342   */\n      tag_881\n        /* \"#utility.yul\":16338:16340   */\n      0x40\n        /* \"#utility.yul\":16327:16336   */\n      dup4\n        /* \"#utility.yul\":16323:16341   */\n      add\n        /* \"#utility.yul\":16315:16321   */\n      dup6\n        /* \"#utility.yul\":16286:16342   */\n      tag_856\n      jump\t// in\n    tag_881:\n        /* \"#utility.yul\":16278:16342   */\n      swap1\n      pop\n        /* \"#utility.yul\":16378:16384   */\n      dup3\n        /* \"#utility.yul\":16373:16375   */\n      0x20\n        /* \"#utility.yul\":16362:16371   */\n      dup4\n        /* \"#utility.yul\":16358:16376   */\n      add\n        /* \"#utility.yul\":16351:16385   */\n      mstore\n        /* \"#utility.yul\":16059:16391   */\n      swap4\n      swap3\n      pop\n      pop\n      pop\n      jump\t// out\n        /* \"#utility.yul\":16588:16796   */\n    tag_244:\n        /* \"#utility.yul\":16734:16736   */\n      0x20\n        /* \"#utility.yul\":16719:16737   */\n      dup2\n      add\n        /* \"#utility.yul\":16746:16790   */\n      tag_339\n        /* \"#utility.yul\":16723:16732   */\n      dup3\n        /* \"#utility.yul\":16772:16778   */\n      dup5\n        /* \"#utility.yul\":16746:16790   */\n      tag_855\n      jump\t// in\n        /* \"#utility.yul\":16801:17015   */\n    tag_284:\n        /* \"#utility.yul\":16950:16952   */\n      0x20\n        /* \"#utility.yul\":16935:16953   */\n      dup2\n      add\n        /* \"#utility.yul\":16962:17009   */\n      tag_339\n        /* \"#utility.yul\":16939:16948   */\n      dup3\n        /* \"#utility.yul\":16991:16997   */\n      dup5\n        /* \"#utility.yul\":16962:17009   */\n      tag_866\n      jump\t// in\n        /* \"#utility.yul\":18138:19802   */\n    tag_152:\n        /* \"#utility.yul\":18290:18294   */\n      0x00\n        /* \"#utility.yul\":18319:18321   */\n      0x20\n        /* \"#utility.yul\":18348:18350   */\n      dup1\n        /* \"#utility.yul\":18337:18346   */\n      dup4\n        /* \"#utility.yul\":18330:18351   */\n      mstore\n      sub(shl(0xa0, 0x01), 0x01)\n        /* \"#utility.yul\":18397:18403   */\n      dup5\n        /* \"#utility.yul\":18391:18404   */\n      mload\n        /* \"#utility.yul\":18387:18449   */\n      and\n        /* \"#utility.yul\":18382:18384   */\n      dup2\n        /* \"#utility.yul\":18371:18380   */\n      dup5\n        /* \"#utility.yul\":18367:18385   */\n      add\n        /* \"#utility.yul\":18360:18450   */\n      mstore\n        /* \"#utility.yul\":18497:18499   */\n      dup1\n        /* \"#utility.yul\":18489:18495   */\n      dup5\n        /* \"#utility.yul\":18485:18500   */\n      add\n        /* \"#utility.yul\":18479:18501   */\n      mload\n        /* \"#utility.yul\":18520:18524   */\n      0x60\n        /* \"#utility.yul\":18543:18545   */\n      0x40\n        /* \"#utility.yul\":18581:18583   */\n      dup2\n        /* \"#utility.yul\":18576:18578   */\n      dup2\n        /* \"#utility.yul\":18565:18574   */\n      dup8\n        /* \"#utility.yul\":18561:18579   */\n      add\n        /* \"#utility.yul\":18554:18584   */\n      mstore\n        /* \"#utility.yul\":18607:18670   */\n      tag_891\n        /* \"#utility.yul\":18665:18668   */\n      0x80\n        /* \"#utility.yul\":18654:18663   */\n      dup8\n        /* \"#utility.yul\":18650:18669   */\n      add\n        /* \"#utility.yul\":18636:18648   */\n      dup5\n        /* \"#utility.yul\":18607:18670   */\n      tag_856\n      jump\t// in\n    tag_891:\n        /* \"#utility.yul\":18707:18722   */\n      dup2\n      dup9\n      add\n        /* \"#utility.yul\":18701:18723   */\n      mload\n      not(0x1f)\n        /* \"#utility.yul\":18848:18870   */\n      dup9\n      dup4\n      sub\n        /* \"#utility.yul\":18844:18875   */\n      dup2\n      add\n        /* \"#utility.yul\":18824:18842   */\n      dup6\n      dup11\n      add\n        /* \"#utility.yul\":18817:18876   */\n      mstore\n        /* \"#utility.yul\":18925:18946   */\n      dup2\n      mload\n        /* \"#utility.yul\":18955:18977   */\n      dup1\n      dup5\n      mstore\n        /* \"#utility.yul\":18848:18870   */\n      swap3\n      swap6\n      pop\n        /* \"#utility.yul\":19111:19134   */\n      swap1\n      dup7\n      add\n      swap2\n        /* \"#utility.yul\":18993:19008   */\n      dup7\n      dup7\n      add\n      swap1\n        /* \"#utility.yul\":19027:19028   */\n      0x05\n        /* \"#utility.yul\":19067:19082   */\n      dup2\n      dup2\n      shl\n        /* \"#utility.yul\":19055:19083   */\n      dup9\n      add\n        /* \"#utility.yul\":19051:19088   */\n      dup10\n      add\n        /* \"#utility.yul\":19152:19153   */\n      0x00\n        /* \"#utility.yul\":19162:19773   */\n    tag_892:\n        /* \"#utility.yul\":19176:19182   */\n      dup4\n        /* \"#utility.yul\":19173:19174   */\n      dup2\n        /* \"#utility.yul\":19170:19183   */\n      lt\n        /* \"#utility.yul\":19162:19773   */\n      iszero\n      tag_894\n      jumpi\n        /* \"#utility.yul\":19262:19264   */\n      dup6\n        /* \"#utility.yul\":19253:19259   */\n      dup11\n        /* \"#utility.yul\":19245:19251   */\n      dup4\n        /* \"#utility.yul\":19241:19260   */\n      sub\n        /* \"#utility.yul\":19237:19265   */\n      add\n        /* \"#utility.yul\":19232:19235   */\n      dup6\n        /* \"#utility.yul\":19225:19266   */\n      mstore\n        /* \"#utility.yul\":19295:19301   */\n      dup7\n        /* \"#utility.yul\":19289:19302   */\n      mload\n        /* \"#utility.yul\":19331:19333   */\n      dup1\n        /* \"#utility.yul\":19325:19334   */\n      mload\n        /* \"#utility.yul\":19364:19366   */\n      dup5\n        /* \"#utility.yul\":19360:19362   */\n      dup2\n        /* \"#utility.yul\":19357:19367   */\n      lt\n        /* \"#utility.yul\":19347:19391   */\n      tag_896\n      jumpi\n        /* \"#utility.yul\":19371:19389   */\n      tag_896\n      tag_324\n      jump\t// in\n    tag_896:\n        /* \"#utility.yul\":19404:19422   */\n      dup4\n      mstore\n        /* \"#utility.yul\":19463:19474   */\n      dup1\n      dup13\n      add\n        /* \"#utility.yul\":19457:19475   */\n      mload\n        /* \"#utility.yul\":19495:19510   */\n      dup13\n      dup5\n      add\n        /* \"#utility.yul\":19488:19515   */\n      dup12\n      swap1\n      mstore\n        /* \"#utility.yul\":19542:19592   */\n      tag_897\n        /* \"#utility.yul\":19576:19591   */\n      dup12\n      dup6\n      add\n        /* \"#utility.yul\":19457:19475   */\n      dup3\n        /* \"#utility.yul\":19542:19592   */\n      tag_851\n      jump\t// in\n    tag_897:\n        /* \"#utility.yul\":19649:19660   */\n      swap2\n      dup11\n      add\n        /* \"#utility.yul\":19643:19661   */\n      mload\n        /* \"#utility.yul\":19636:19662   */\n      iszero\n        /* \"#utility.yul\":19629:19663   */\n      iszero\n        /* \"#utility.yul\":19612:19627   */\n      swap4\n      dup11\n      add\n        /* \"#utility.yul\":19605:19664   */\n      swap4\n      swap1\n      swap4\n      mstore\n        /* \"#utility.yul\":19716:19731   */\n      swap7\n      dup12\n      add\n      swap7\n        /* \"#utility.yul\":19751:19763   */\n      swap5\n      dup12\n      add\n      swap5\n        /* \"#utility.yul\":19528:19592   */\n      swap2\n      pop\n        /* \"#utility.yul\":19198:19199   */\n      0x01\n        /* \"#utility.yul\":19191:19200   */\n      add\n        /* \"#utility.yul\":19162:19773   */\n      jump(tag_892)\n    tag_894:\n      pop\n        /* \"#utility.yul\":19790:19796   */\n      swap13\n        /* \"#utility.yul\":18138:19802   */\n      swap12\n      pop\n      pop\n      pop\n      pop\n      pop\n      pop\n      pop\n      pop\n      pop\n      pop\n      pop\n      pop\n      jump\t// out\n        /* \"#utility.yul\":19807:23100   */\n    tag_120:\n        /* \"#utility.yul\":20000:20002   */\n      0x20\n        /* \"#utility.yul\":19989:19998   */\n      dup2\n        /* \"#utility.yul\":19982:20003   */\n      mstore\n        /* \"#utility.yul\":20012:20065   */\n      tag_899\n        /* \"#utility.yul\":20061:20063   */\n      0x20\n        /* \"#utility.yul\":20050:20059   */\n      dup3\n        /* \"#utility.yul\":20046:20064   */\n      add\n        /* \"#utility.yul\":20037:20043   */\n      dup4\n        /* \"#utility.yul\":20031:20044   */\n      mload\n      sub(shl(0xa0, 0x01), 0x01)\n        /* \"#utility.yul\":11274:11328   */\n      and\n        /* \"#utility.yul\":11262:11329   */\n      swap1\n      mstore\n        /* \"#utility.yul\":11208:11335   */\n      jump\n        /* \"#utility.yul\":20012:20065   */\n    tag_899:\n        /* \"#utility.yul\":20119:20121   */\n      0x20\n        /* \"#utility.yul\":20111:20117   */\n      dup3\n        /* \"#utility.yul\":20107:20122   */\n      add\n        /* \"#utility.yul\":20101:20123   */\n      mload\n        /* \"#utility.yul\":20096:20098   */\n      0x40\n        /* \"#utility.yul\":20085:20094   */\n      dup3\n        /* \"#utility.yul\":20081:20099   */\n      add\n        /* \"#utility.yul\":20074:20124   */\n      mstore\n        /* \"#utility.yul\":19963:19967   */\n      0x00\n        /* \"#utility.yul\":20171:20173   */\n      0x40\n        /* \"#utility.yul\":20163:20169   */\n      dup4\n        /* \"#utility.yul\":20159:20174   */\n      add\n        /* \"#utility.yul\":20153:20175   */\n      mload\n        /* \"#utility.yul\":20194:20200   */\n      0x02e0\n        /* \"#utility.yul\":20236:20238   */\n      dup1\n        /* \"#utility.yul\":20231:20233   */\n      0x60\n        /* \"#utility.yul\":20220:20229   */\n      dup6\n        /* \"#utility.yul\":20216:20234   */\n      add\n        /* \"#utility.yul\":20209:20239   */\n      mstore\n        /* \"#utility.yul\":20262:20314   */\n      tag_900\n        /* \"#utility.yul\":20309:20312   */\n      0x0300\n        /* \"#utility.yul\":20298:20307   */\n      dup6\n        /* \"#utility.yul\":20294:20313   */\n      add\n        /* \"#utility.yul\":20280:20292   */\n      dup4\n        /* \"#utility.yul\":20262:20314   */\n      tag_851\n      jump\t// in\n    tag_900:\n        /* \"#utility.yul\":20248:20314   */\n      swap2\n      pop\n        /* \"#utility.yul\":20363:20365   */\n      0x60\n        /* \"#utility.yul\":20355:20361   */\n      dup6\n        /* \"#utility.yul\":20351:20366   */\n      add\n        /* \"#utility.yul\":20345:20367   */\n      mload\n      not(0x1f)\n        /* \"#utility.yul\":20517:20519   */\n      dup1\n        /* \"#utility.yul\":20505:20514   */\n      dup7\n        /* \"#utility.yul\":20497:20503   */\n      dup6\n        /* \"#utility.yul\":20493:20515   */\n      sub\n        /* \"#utility.yul\":20489:20520   */\n      add\n        /* \"#utility.yul\":20483:20486   */\n      0x80\n        /* \"#utility.yul\":20472:20481   */\n      dup8\n        /* \"#utility.yul\":20468:20487   */\n      add\n        /* \"#utility.yul\":20461:20521   */\n      mstore\n        /* \"#utility.yul\":20544:20585   */\n      tag_901\n        /* \"#utility.yul\":20578:20584   */\n      dup5\n        /* \"#utility.yul\":20562:20576   */\n      dup4\n        /* \"#utility.yul\":20544:20585   */\n      tag_851\n      jump\t// in\n    tag_901:\n        /* \"#utility.yul\":20530:20585   */\n      swap4\n      pop\n        /* \"#utility.yul\":20640:20643   */\n      0x80\n        /* \"#utility.yul\":20632:20638   */\n      dup8\n        /* \"#utility.yul\":20628:20644   */\n      add\n        /* \"#utility.yul\":20622:20645   */\n      mload\n        /* \"#utility.yul\":20616:20619   */\n      0xa0\n        /* \"#utility.yul\":20605:20614   */\n      dup8\n        /* \"#utility.yul\":20601:20620   */\n      add\n        /* \"#utility.yul\":20594:20646   */\n      mstore\n        /* \"#utility.yul\":20701:20704   */\n      0xa0\n        /* \"#utility.yul\":20693:20699   */\n      dup8\n        /* \"#utility.yul\":20689:20705   */\n      add\n        /* \"#utility.yul\":20683:20706   */\n      mload\n        /* \"#utility.yul\":20677:20680   */\n      0xc0\n        /* \"#utility.yul\":20666:20675   */\n      dup8\n        /* \"#utility.yul\":20662:20681   */\n      add\n        /* \"#utility.yul\":20655:20707   */\n      mstore\n        /* \"#utility.yul\":20762:20765   */\n      0xc0\n        /* \"#utility.yul\":20754:20760   */\n      dup8\n        /* \"#utility.yul\":20750:20766   */\n      add\n        /* \"#utility.yul\":20744:20767   */\n      mload\n        /* \"#utility.yul\":20738:20741   */\n      0xe0\n        /* \"#utility.yul\":20727:20736   */\n      dup8\n        /* \"#utility.yul\":20723:20742   */\n      add\n        /* \"#utility.yul\":20716:20768   */\n      mstore\n        /* \"#utility.yul\":20817:20820   */\n      0xe0\n        /* \"#utility.yul\":20809:20815   */\n      dup8\n        /* \"#utility.yul\":20805:20821   */\n      add\n        /* \"#utility.yul\":20799:20822   */\n      mload\n        /* \"#utility.yul\":20777:20822   */\n      swap2\n      pop\n        /* \"#utility.yul\":20841:20844   */\n      0x0100\n        /* \"#utility.yul\":20908:20910   */\n      dup2\n        /* \"#utility.yul\":20896:20905   */\n      dup8\n        /* \"#utility.yul\":20888:20894   */\n      dup7\n        /* \"#utility.yul\":20884:20906   */\n      sub\n        /* \"#utility.yul\":20880:20911   */\n      add\n        /* \"#utility.yul\":20875:20877   */\n      dup2\n        /* \"#utility.yul\":20864:20873   */\n      dup9\n        /* \"#utility.yul\":20860:20878   */\n      add\n        /* \"#utility.yul\":20853:20912   */\n      mstore\n        /* \"#utility.yul\":20935:20987   */\n      tag_902\n        /* \"#utility.yul\":20980:20986   */\n      dup6\n        /* \"#utility.yul\":20964:20978   */\n      dup5\n        /* \"#utility.yul\":20935:20987   */\n      tag_856\n      jump\t// in\n    tag_902:\n        /* \"#utility.yul\":21012:21027   */\n      swap1\n      dup9\n      add\n        /* \"#utility.yul\":21006:21028   */\n      mload\n        /* \"#utility.yul\":21047:21050   */\n      0x0120\n        /* \"#utility.yul\":21066:21084   */\n      dup9\n      dup2\n      add\n        /* \"#utility.yul\":21059:21089   */\n      swap2\n      swap1\n      swap2\n      mstore\n        /* \"#utility.yul\":21114:21129   */\n      dup9\n      add\n        /* \"#utility.yul\":21108:21130   */\n      mload\n        /* \"#utility.yul\":21149:21152   */\n      0x0140\n        /* \"#utility.yul\":21168:21186   */\n      dup1\n      dup10\n      add\n        /* \"#utility.yul\":21161:21191   */\n      swap2\n      swap1\n      swap2\n      mstore\n        /* \"#utility.yul\":21228:21243   */\n      dup9\n      add\n        /* \"#utility.yul\":21222:21244   */\n      mload\n        /* \"#utility.yul\":20921:20987   */\n      swap1\n      swap5\n      pop\n        /* \"#utility.yul\":21222:21244   */\n      swap2\n      pop\n        /* \"#utility.yul\":21263:21266   */\n      0x0160\n        /* \"#utility.yul\":21275:21326   */\n      tag_903\n        /* \"#utility.yul\":21307:21325   */\n      dup2\n      dup9\n      add\n        /* \"#utility.yul\":21222:21244   */\n      dup5\n        /* \"#utility.yul\":14380:14393   */\n      iszero\n        /* \"#utility.yul\":14373:14394   */\n      iszero\n        /* \"#utility.yul\":14361:14395   */\n      swap1\n      mstore\n        /* \"#utility.yul\":14310:14401   */\n      jump\n        /* \"#utility.yul\":21275:21326   */\n    tag_903:\n        /* \"#utility.yul\":21363:21378   */\n      dup8\n      add\n        /* \"#utility.yul\":21357:21379   */\n      mload\n      swap2\n      pop\n        /* \"#utility.yul\":21398:21401   */\n      0x0180\n        /* \"#utility.yul\":21410:21461   */\n      tag_904\n        /* \"#utility.yul\":21442:21460   */\n      dup8\n      dup3\n      add\n        /* \"#utility.yul\":21357:21379   */\n      dup5\n        /* \"#utility.yul\":14380:14393   */\n      iszero\n        /* \"#utility.yul\":14373:14394   */\n      iszero\n        /* \"#utility.yul\":14361:14395   */\n      swap1\n      mstore\n        /* \"#utility.yul\":14310:14401   */\n      jump\n        /* \"#utility.yul\":21410:21461   */\n    tag_904:\n        /* \"#utility.yul\":21499:21501   */\n      dup1\n        /* \"#utility.yul\":21491:21497   */\n      dup9\n        /* \"#utility.yul\":21487:21502   */\n      add\n        /* \"#utility.yul\":21481:21503   */\n      mload\n        /* \"#utility.yul\":21470:21503   */\n      swap3\n      pop\n      pop\n        /* \"#utility.yul\":21523:21526   */\n      0x01a0\n        /* \"#utility.yul\":21563:21566   */\n      dup3\n        /* \"#utility.yul\":21557:21560   */\n      dup2\n        /* \"#utility.yul\":21546:21555   */\n      dup9\n        /* \"#utility.yul\":21542:21561   */\n      add\n        /* \"#utility.yul\":21535:21567   */\n      mstore\n        /* \"#utility.yul\":21616:21619   */\n      dup1\n        /* \"#utility.yul\":21608:21614   */\n      dup9\n        /* \"#utility.yul\":21604:21620   */\n      add\n        /* \"#utility.yul\":21598:21621   */\n      mload\n        /* \"#utility.yul\":21576:21621   */\n      swap3\n      pop\n      pop\n        /* \"#utility.yul\":21641:21644   */\n      0x01c0\n        /* \"#utility.yul\":21709:21711   */\n      dup2\n        /* \"#utility.yul\":21697:21706   */\n      dup8\n        /* \"#utility.yul\":21689:21695   */\n      dup7\n        /* \"#utility.yul\":21685:21707   */\n      sub\n        /* \"#utility.yul\":21681:21712   */\n      add\n        /* \"#utility.yul\":21675:21678   */\n      dup2\n        /* \"#utility.yul\":21664:21673   */\n      dup9\n        /* \"#utility.yul\":21660:21679   */\n      add\n        /* \"#utility.yul\":21653:21713   */\n      mstore\n        /* \"#utility.yul\":21736:21796   */\n      tag_905\n        /* \"#utility.yul\":21789:21795   */\n      dup6\n        /* \"#utility.yul\":21773:21787   */\n      dup5\n        /* \"#utility.yul\":21736:21796   */\n      tag_845\n      jump\t// in\n    tag_905:\n        /* \"#utility.yul\":21722:21796   */\n      swap5\n      pop\n        /* \"#utility.yul\":21845:21848   */\n      dup1\n        /* \"#utility.yul\":21837:21843   */\n      dup9\n        /* \"#utility.yul\":21833:21849   */\n      add\n        /* \"#utility.yul\":21827:21850   */\n      mload\n        /* \"#utility.yul\":21805:21850   */\n      swap3\n      pop\n      pop\n        /* \"#utility.yul\":21870:21873   */\n      0x01e0\n        /* \"#utility.yul\":21938:21940   */\n      dup2\n        /* \"#utility.yul\":21926:21935   */\n      dup8\n        /* \"#utility.yul\":21918:21924   */\n      dup7\n        /* \"#utility.yul\":21914:21936   */\n      sub\n        /* \"#utility.yul\":21910:21941   */\n      add\n        /* \"#utility.yul\":21904:21907   */\n      dup2\n        /* \"#utility.yul\":21893:21902   */\n      dup9\n        /* \"#utility.yul\":21889:21908   */\n      add\n        /* \"#utility.yul\":21882:21942   */\n      mstore\n        /* \"#utility.yul\":21965:22017   */\n      tag_906\n        /* \"#utility.yul\":22010:22016   */\n      dup6\n        /* \"#utility.yul\":21994:22008   */\n      dup5\n        /* \"#utility.yul\":21965:22017   */\n      tag_840\n      jump\t// in\n    tag_906:\n        /* \"#utility.yul\":21951:22017   */\n      swap5\n      pop\n        /* \"#utility.yul\":22066:22069   */\n      dup1\n        /* \"#utility.yul\":22058:22064   */\n      dup9\n        /* \"#utility.yul\":22054:22070   */\n      add\n        /* \"#utility.yul\":22048:22071   */\n      mload\n        /* \"#utility.yul\":22026:22071   */\n      swap3\n      pop\n      pop\n        /* \"#utility.yul\":22091:22094   */\n      0x0200\n        /* \"#utility.yul\":22159:22161   */\n      dup2\n        /* \"#utility.yul\":22147:22156   */\n      dup8\n        /* \"#utility.yul\":22139:22145   */\n      dup7\n        /* \"#utility.yul\":22135:22157   */\n      sub\n        /* \"#utility.yul\":22131:22162   */\n      add\n        /* \"#utility.yul\":22125:22128   */\n      dup2\n        /* \"#utility.yul\":22114:22123   */\n      dup9\n        /* \"#utility.yul\":22110:22129   */\n      add\n        /* \"#utility.yul\":22103:22163   */\n      mstore\n        /* \"#utility.yul\":22186:22238   */\n      tag_907\n        /* \"#utility.yul\":22231:22237   */\n      dup6\n        /* \"#utility.yul\":22215:22229   */\n      dup5\n        /* \"#utility.yul\":22186:22238   */\n      tag_840\n      jump\t// in\n    tag_907:\n        /* \"#utility.yul\":22264:22280   */\n      swap1\n      dup9\n      add\n        /* \"#utility.yul\":22258:22281   */\n      mload\n        /* \"#utility.yul\":22301:22304   */\n      0x0220\n        /* \"#utility.yul\":22320:22339   */\n      dup9\n      dup2\n      add\n        /* \"#utility.yul\":22313:22345   */\n      swap2\n      swap1\n      swap2\n      mstore\n        /* \"#utility.yul\":22371:22387   */\n      dup9\n      add\n        /* \"#utility.yul\":22365:22388   */\n      mload\n        /* \"#utility.yul\":22408:22411   */\n      0x0240\n        /* \"#utility.yul\":22427:22446   */\n      dup1\n      dup10\n      add\n        /* \"#utility.yul\":22420:22452   */\n      swap2\n      swap1\n      swap2\n      mstore\n        /* \"#utility.yul\":22478:22494   */\n      dup9\n      add\n        /* \"#utility.yul\":22472:22495   */\n      mload\n        /* \"#utility.yul\":22515:22518   */\n      0x0260\n        /* \"#utility.yul\":22534:22553   */\n      dup1\n      dup10\n      add\n        /* \"#utility.yul\":22527:22559   */\n      swap2\n      swap1\n      swap2\n      mstore\n        /* \"#utility.yul\":22585:22601   */\n      dup9\n      add\n        /* \"#utility.yul\":22579:22602   */\n      mload\n        /* \"#utility.yul\":22622:22625   */\n      0x0280\n        /* \"#utility.yul\":22641:22660   */\n      dup1\n      dup10\n      add\n        /* \"#utility.yul\":22634:22666   */\n      swap2\n      swap1\n      swap2\n      mstore\n        /* \"#utility.yul\":22703:22719   */\n      dup9\n      add\n        /* \"#utility.yul\":22697:22720   */\n      mload\n        /* \"#utility.yul\":22172:22238   */\n      swap1\n      swap5\n      pop\n        /* \"#utility.yul\":22697:22720   */\n      swap2\n      pop\n        /* \"#utility.yul\":22740:22743   */\n      0x02a0\n      swap1\n      pop\n        /* \"#utility.yul\":22752:22804   */\n      tag_908\n        /* \"#utility.yul\":22784:22803   */\n      dup2\n      dup8\n      add\n        /* \"#utility.yul\":22697:22720   */\n      dup4\n        /* \"#utility.yul\":14380:14393   */\n      iszero\n        /* \"#utility.yul\":14373:14394   */\n      iszero\n        /* \"#utility.yul\":14361:14395   */\n      swap1\n      mstore\n        /* \"#utility.yul\":14310:14401   */\n      jump\n        /* \"#utility.yul\":22752:22804   */\n    tag_908:\n        /* \"#utility.yul\":22841:22857   */\n      dup7\n      add\n        /* \"#utility.yul\":22835:22858   */\n      mload\n      swap1\n      pop\n        /* \"#utility.yul\":22878:22881   */\n      0x02c0\n        /* \"#utility.yul\":22890:22942   */\n      tag_909\n        /* \"#utility.yul\":22922:22941   */\n      dup7\n      dup3\n      add\n        /* \"#utility.yul\":22835:22858   */\n      dup4\n        /* \"#utility.yul\":14380:14393   */\n      iszero\n        /* \"#utility.yul\":14373:14394   */\n      iszero\n        /* \"#utility.yul\":14361:14395   */\n      swap1\n      mstore\n        /* \"#utility.yul\":14310:14401   */\n      jump\n        /* \"#utility.yul\":22890:22942   */\n    tag_909:\n        /* \"#utility.yul\":22980:22996   */\n      dup7\n      add\n        /* \"#utility.yul\":22974:22997   */\n      mload\n      swap1\n      pop\n        /* \"#utility.yul\":23006:23071   */\n      tag_910\n        /* \"#utility.yul\":23052:23070   */\n      dup6\n      dup4\n      add\n        /* \"#utility.yul\":22974:22997   */\n      dup3\n        /* \"#utility.yul\":23006:23071   */\n      tag_866\n      jump\t// in\n    tag_910:\n      pop\n        /* \"#utility.yul\":23088:23094   */\n      swap1\n      swap5\n        /* \"#utility.yul\":19807:23100   */\n      swap4\n      pop\n      pop\n      pop\n      pop\n      jump\t// out\n        /* \"#utility.yul\":23287:23540   */\n    tag_736:\n        /* \"#utility.yul\":23359:23361   */\n      0x40\n        /* \"#utility.yul\":23353:23362   */\n      mload\n        /* \"#utility.yul\":23401:23405   */\n      0xa0\n        /* \"#utility.yul\":23389:23406   */\n      dup2\n      add\n        /* \"#utility.yul\":23436:23454   */\n      0xffffffffffffffff\n        /* \"#utility.yul\":23421:23455   */\n      dup2\n      gt\n        /* \"#utility.yul\":23457:23479   */\n      dup3\n      dup3\n      lt\n        /* \"#utility.yul\":23418:23480   */\n      or\n        /* \"#utility.yul\":23415:23503   */\n      iszero\n      tag_914\n      jumpi\n        /* \"#utility.yul\":23483:23501   */\n      tag_914\n      tag_462\n      jump\t// in\n    tag_914:\n        /* \"#utility.yul\":23519:23521   */\n      0x40\n        /* \"#utility.yul\":23512:23534   */\n      mstore\n        /* \"#utility.yul\":23287:23540   */\n      swap1\n      jump\t// out\n        /* \"#utility.yul\":23545:23798   */\n    tag_740:\n        /* \"#utility.yul\":23617:23619   */\n      0x40\n        /* \"#utility.yul\":23611:23620   */\n      mload\n        /* \"#utility.yul\":23659:23663   */\n      0xe0\n        /* \"#utility.yul\":23647:23664   */\n      dup2\n      add\n        /* \"#utility.yul\":23694:23712   */\n      0xffffffffffffffff\n        /* \"#utility.yul\":23679:23713   */\n      dup2\n      gt\n        /* \"#utility.yul\":23715:23737   */\n      dup3\n      dup3\n      lt\n        /* \"#utility.yul\":23676:23738   */\n      or\n        /* \"#utility.yul\":23673:23761   */\n      iszero\n      tag_914\n      jumpi\n        /* \"#utility.yul\":23741:23759   */\n      tag_914\n      tag_462\n      jump\t// in\n        /* \"#utility.yul\":23803:24058   */\n    tag_774:\n        /* \"#utility.yul\":23875:23877   */\n      0x40\n        /* \"#utility.yul\":23869:23878   */\n      mload\n        /* \"#utility.yul\":23917:23923   */\n      0x01a0\n        /* \"#utility.yul\":23905:23924   */\n      dup2\n      add\n        /* \"#utility.yul\":23954:23972   */\n      0xffffffffffffffff\n        /* \"#utility.yul\":23939:23973   */\n      dup2\n      gt\n        /* \"#utility.yul\":23975:23997   */\n      dup3\n      dup3\n      lt\n        /* \"#utility.yul\":23936:23998   */\n      or\n        /* \"#utility.yul\":23933:24021   */\n      iszero\n      tag_914\n      jumpi\n        /* \"#utility.yul\":24001:24019   */\n      tag_914\n      tag_462\n      jump\t// in\n        /* \"#utility.yul\":24063:24397   */\n    tag_728:\n        /* \"#utility.yul\":24134:24136   */\n      0x40\n        /* \"#utility.yul\":24128:24137   */\n      mload\n        /* \"#utility.yul\":24190:24192   */\n      0x1f\n        /* \"#utility.yul\":24180:24193   */\n      dup3\n      add\n      not(0x1f)\n        /* \"#utility.yul\":24176:24262   */\n      and\n        /* \"#utility.yul\":24164:24263   */\n      dup2\n      add\n        /* \"#utility.yul\":24293:24311   */\n      0xffffffffffffffff\n        /* \"#utility.yul\":24278:24312   */\n      dup2\n      gt\n        /* \"#utility.yul\":24314:24336   */\n      dup3\n      dup3\n      lt\n        /* \"#utility.yul\":24275:24337   */\n      or\n        /* \"#utility.yul\":24272:24360   */\n      iszero\n      tag_923\n      jumpi\n        /* \"#utility.yul\":24340:24358   */\n      tag_923\n      tag_462\n      jump\t// in\n    tag_923:\n        /* \"#utility.yul\":24376:24378   */\n      0x40\n        /* \"#utility.yul\":24369:24391   */\n      mstore\n        /* \"#utility.yul\":24063:24397   */\n      swap2\n      swap1\n      pop\n      jump\t// out\n        /* \"#utility.yul\":24402:24593   */\n    tag_727:\n        /* \"#utility.yul\":24470:24474   */\n      0x00\n        /* \"#utility.yul\":24503:24521   */\n      0xffffffffffffffff\n        /* \"#utility.yul\":24495:24501   */\n      dup3\n        /* \"#utility.yul\":24492:24522   */\n      gt\n        /* \"#utility.yul\":24489:24545   */\n      iszero\n      tag_926\n      jumpi\n        /* \"#utility.yul\":24525:24543   */\n      tag_926\n      tag_462\n      jump\t// in\n    tag_926:\n      pop\n        /* \"#utility.yul\":24570:24571   */\n      0x05\n        /* \"#utility.yul\":24566:24580   */\n      shl\n        /* \"#utility.yul\":24582:24586   */\n      0x20\n        /* \"#utility.yul\":24562:24587   */\n      add\n      swap1\n        /* \"#utility.yul\":24402:24593   */\n      jump\t// out\n        /* \"#utility.yul\":24598:24726   */\n    tag_332:\n        /* \"#utility.yul\":24638:24641   */\n      0x00\n        /* \"#utility.yul\":24669:24670   */\n      dup3\n        /* \"#utility.yul\":24665:24671   */\n      not\n        /* \"#utility.yul\":24662:24663   */\n      dup3\n        /* \"#utility.yul\":24659:24672   */\n      gt\n        /* \"#utility.yul\":24656:24695   */\n      iszero\n      tag_929\n      jumpi\n        /* \"#utility.yul\":24675:24693   */\n      tag_929\n      tag_930\n      jump\t// in\n    tag_929:\n      pop\n        /* \"#utility.yul\":24711:24720   */\n      add\n      swap1\n        /* \"#utility.yul\":24598:24726   */\n      jump\t// out\n        /* \"#utility.yul\":24731:24856   */\n    tag_452:\n        /* \"#utility.yul\":24771:24775   */\n      0x00\n        /* \"#utility.yul\":24799:24800   */\n      dup3\n        /* \"#utility.yul\":24796:24797   */\n      dup3\n        /* \"#utility.yul\":24793:24801   */\n      lt\n        /* \"#utility.yul\":24790:24824   */\n      iszero\n      tag_933\n      jumpi\n        /* \"#utility.yul\":24804:24822   */\n      tag_933\n      tag_930\n      jump\t// in\n    tag_933:\n      pop\n        /* \"#utility.yul\":24841:24850   */\n      sub\n      swap1\n        /* \"#utility.yul\":24731:24856   */\n      jump\t// out\n        /* \"#utility.yul\":24861:25057   */\n    tag_520:\n        /* \"#utility.yul\":24900:24903   */\n      0x00\n        /* \"#utility.yul\":24928:24933   */\n      dup2\n        /* \"#utility.yul\":24918:24957   */\n      tag_936\n      jumpi\n        /* \"#utility.yul\":24937:24955   */\n      tag_936\n      tag_930\n      jump\t// in\n    tag_936:\n      pop\n      not(0x00)\n        /* \"#utility.yul\":24973:25051   */\n      add\n      swap1\n        /* \"#utility.yul\":24861:25057   */\n      jump\t// out\n        /* \"#utility.yul\":25062:25499   */\n    tag_307:\n        /* \"#utility.yul\":25141:25142   */\n      0x01\n        /* \"#utility.yul\":25137:25149   */\n      dup2\n      dup2\n      shr\n      swap1\n        /* \"#utility.yul\":25184:25196   */\n      dup3\n      and\n      dup1\n        /* \"#utility.yul\":25205:25266   */\n      tag_938\n      jumpi\n        /* \"#utility.yul\":25259:25263   */\n      0x7f\n        /* \"#utility.yul\":25251:25257   */\n      dup3\n        /* \"#utility.yul\":25247:25264   */\n      and\n        /* \"#utility.yul\":25237:25264   */\n      swap2\n      pop\n        /* \"#utility.yul\":25205:25266   */\n    tag_938:\n        /* \"#utility.yul\":25312:25314   */\n      0x20\n        /* \"#utility.yul\":25304:25310   */\n      dup3\n        /* \"#utility.yul\":25301:25315   */\n      lt\n        /* \"#utility.yul\":25281:25299   */\n      dup2\n        /* \"#utility.yul\":25278:25316   */\n      eq\n        /* \"#utility.yul\":25275:25493   */\n      iszero\n      tag_939\n      jumpi\n      shl(0xe0, 0x4e487b71)\n        /* \"#utility.yul\":25346:25347   */\n      0x00\n        /* \"#utility.yul\":25339:25427   */\n      mstore\n        /* \"#utility.yul\":25450:25454   */\n      0x22\n        /* \"#utility.yul\":25447:25448   */\n      0x04\n        /* \"#utility.yul\":25440:25455   */\n      mstore\n        /* \"#utility.yul\":25478:25482   */\n      0x24\n        /* \"#utility.yul\":25475:25476   */\n      0x00\n        /* \"#utility.yul\":25468:25483   */\n      revert\n        /* \"#utility.yul\":25275:25493   */\n    tag_939:\n      pop\n        /* \"#utility.yul\":25062:25499   */\n      swap2\n      swap1\n      pop\n      jump\t// out\n        /* \"#utility.yul\":25504:25699   */\n    tag_291:\n        /* \"#utility.yul\":25543:25546   */\n      0x00\n      not(0x00)\n        /* \"#utility.yul\":25567:25572   */\n      dup3\n        /* \"#utility.yul\":25564:25641   */\n      eq\n        /* \"#utility.yul\":25561:25664   */\n      iszero\n      tag_942\n      jumpi\n        /* \"#utility.yul\":25644:25662   */\n      tag_942\n      tag_930\n      jump\t// in\n    tag_942:\n      pop\n        /* \"#utility.yul\":25691:25692   */\n      0x01\n        /* \"#utility.yul\":25680:25693   */\n      add\n      swap1\n        /* \"#utility.yul\":25504:25699   */\n      jump\t// out\n        /* \"#utility.yul\":25704:25888   */\n    tag_930:\n      shl(0xe0, 0x4e487b71)\n        /* \"#utility.yul\":25753:25754   */\n      0x00\n        /* \"#utility.yul\":25746:25834   */\n      mstore\n        /* \"#utility.yul\":25853:25857   */\n      0x11\n        /* \"#utility.yul\":25850:25851   */\n      0x04\n        /* \"#utility.yul\":25843:25858   */\n      mstore\n        /* \"#utility.yul\":25877:25881   */\n      0x24\n        /* \"#utility.yul\":25874:25875   */\n      0x00\n        /* \"#utility.yul\":25867:25882   */\n      revert\n        /* \"#utility.yul\":25893:26077   */\n    tag_324:\n      shl(0xe0, 0x4e487b71)\n        /* \"#utility.yul\":25942:25943   */\n      0x00\n        /* \"#utility.yul\":25935:26023   */\n      mstore\n        /* \"#utility.yul\":26042:26046   */\n      0x21\n        /* \"#utility.yul\":26039:26040   */\n      0x04\n        /* \"#utility.yul\":26032:26047   */\n      mstore\n        /* \"#utility.yul\":26066:26070   */\n      0x24\n        /* \"#utility.yul\":26063:26064   */\n      0x00\n        /* \"#utility.yul\":26056:26071   */\n      revert\n        /* \"#utility.yul\":26082:26266   */\n    tag_298:\n      shl(0xe0, 0x4e487b71)\n        /* \"#utility.yul\":26131:26132   */\n      0x00\n        /* \"#utility.yul\":26124:26212   */\n      mstore\n        /* \"#utility.yul\":26231:26235   */\n      0x32\n        /* \"#utility.yul\":26228:26229   */\n      0x04\n        /* \"#utility.yul\":26221:26236   */\n      mstore\n        /* \"#utility.yul\":26255:26259   */\n      0x24\n        /* \"#utility.yul\":26252:26253   */\n      0x00\n        /* \"#utility.yul\":26245:26260   */\n      revert\n        /* \"#utility.yul\":26271:26455   */\n    tag_462:\n      shl(0xe0, 0x4e487b71)\n        /* \"#utility.yul\":26320:26321   */\n      0x00\n        /* \"#utility.yul\":26313:26401   */\n      mstore\n        /* \"#utility.yul\":26420:26424   */\n      0x41\n        /* \"#utility.yul\":26417:26418   */\n      0x04\n        /* \"#utility.yul\":26410:26425   */\n      mstore\n        /* \"#utility.yul\":26444:26448   */\n      0x24\n        /* \"#utility.yul\":26441:26442   */\n      0x00\n        /* \"#utility.yul\":26434:26449   */\n      revert\n\n    auxdata: 0xa26469706673582212204e11d3f5e743e01d3337dbc0ddc14e26c4ee7eab71da26217be194662954ecde64736f6c63430008070033\n}\n",
				"bytecode": {
					"linkReferences": {},
					"object": "60806040523480156200001157600080fd5b506200001d3362000023565b62000073565b600080546001600160a01b038381166001600160a01b0319831681178455604051919092169283917f8be0079c531659141344cd1fd0a4f28419497f9722a3daafe3b4186f6b6457e09190a35050565b6141d380620000836000396000f3fe608060405234801561001057600080fd5b50600436106103625760003560e01c80637c34eb85116101c8578063a87d942c11610104578063ce098054116100a2578063e1ca7ca71161007c578063e1ca7ca714610884578063f2fde38b14610897578063f8626ebb146108aa578063ffcce776146108cd57600080fd5b8063ce09805414610825578063d2fed69c14610838578063d3d7bc3b1461085b57600080fd5b8063b647eec3116100de578063b647eec3146107d9578063c061bb82146107ec578063c16da060146107ff578063ca74a5891461081257600080fd5b8063a87d942c1461079e578063ad5f7ab0146107a6578063ad607c72146107b957600080fd5b80638da5cb5b11610171578063983a12a81161014b578063983a12a814610745578063992d60f314610765578063a1e047f314610778578063a74deb9b1461078b57600080fd5b80638da5cb5b146106fb57806390f4d6741461070c5780639722f0991461071f57600080fd5b8063869a7365116101a2578063869a73651461068e5780638a9a9ff3146106c75780638b3f3a6f146106da57600080fd5b80637c34eb851461063d5780637c35beb7146106685780637d88dadf1461067b57600080fd5b806333e68dcd116102a25780636c431904116102405780636e9739821161021a5780636e973982146105c9578063715018a6146105ec578063790485f9146105f45780637b3f47171461062a57600080fd5b80636c4319041461059b5780636cefce6e146105ae5780636d8d1daf146105b657600080fd5b806357840da61161027c57806357840da6146105145780635bf608b8146105275780635fed5eb21461056857806363e3ccad1461058857600080fd5b806333e68dcd146104b3578063429edaa2146104c6578063546677aa146104d957600080fd5b806319f170881161030f57806321d90a27116102e957806321d90a271461043457806325e78e701461046d578063271ff03f1461048d57806331d396ce146104a057600080fd5b806319f17088146103fb5780631af5fa161461040e5780631fa2bf4c1461042157600080fd5b8063172372c211610340578063172372c2146103c257806317e925d7146103d5578063193620e7146103e857600080fd5b806303f95ed11461036757806305c3f9c91461037c57806312506f4d146103a2575b600080fd5b61037a610375366004613887565b610906565b005b61038f61038a366004613967565b610998565b6040519081526020015b60405180910390f35b6103b56103b036600461386e565b610a74565b6040516103999190613cff565b61037a6103d03660046137c3565b610d25565b61037a6103e33660046139eb565b610da9565b61038f6103f6366004613887565b610e53565b61037a61040936600461391b565b610e7d565b61037a61041c366004613a1f565b610f25565b61037a61042f366004613ab4565b6111a9565b61038f610442366004613887565b60009182526003602090815260408084206001600160a01b0393909316845291905290206001015490565b61048061047b36600461386e565b61125e565b6040516103999190613e16565b61037a61049b3660046138e6565b61185d565b61037a6104ae366004613887565b6118e7565b61038f6104c1366004613967565b611988565b61037a6104d436600461386e565b611a5a565b6105046104e736600461386e565b600090815260016020526040902060130154610100900460ff1690565b6040519015158152602001610399565b61037a6105223660046137c3565b611ad2565b61055061053536600461386e565b6000908152600160205260409020546001600160a01b031690565b6040516001600160a01b039091168152602001610399565b61057b610576366004613887565b611b4d565b6040516103999190613d50565b61037a6105963660046139c8565b611e6d565b61037a6105a936600461391b565b611ee3565b61037a611f83565b61037a6105c4366004613a88565b611feb565b61038f6105d736600461386e565b6000908152600160205260409020600b015490565b61037a61207d565b61038f610602366004613887565b60009182526004602090815260408084206001600160a01b0393909316845291905290205490565b61037a610638366004613887565b612091565b61050461064b36600461386e565b6000908152600160205260409020600a0154610100900460ff1690565b61057b610676366004613887565b612115565b6105046106893660046137ed565b612428565b61038f61069c366004613887565b60009182526004602090815260408084206001600160a01b0393909316845291905290206001015490565b6105046106d53660046139c8565b6124b0565b6106ed6106e83660046138aa565b6124fa565b604051610399929190613d12565b6000546001600160a01b0316610550565b61037a61071a366004613887565b612837565b61050461072d36600461386e565b60009081526001602052604090206013015460ff1690565b61075861075336600461386e565b6128bb565b6040516103999190613cec565b61037a610773366004613887565b61292a565b61037a6107863660046138e6565b6129cb565b61038f610799366004613820565b612a55565b60055461038f565b61037a6107b43660046137a8565b612d7d565b6107cc6107c7366004613a66565b612db4565b6040516103999190613d34565b6107586107e736600461386e565b612df5565b61037a6107fa3660046139c8565b612e62565b61037a61080d366004613887565b612edf565b61037a61082036600461386e565b612f63565b61037a610833366004613a88565b612fd3565b61038f61084636600461386e565b6000908152600160205260409020600d015490565b61038f6108693660046137a8565b6001600160a01b031660009081526002602052604090205490565b61038f610892366004613a66565b613065565b61037a6108a53660046137a8565b6130a2565b61038f6108b836600461386e565b6000908152600160205260409020600e015490565b6108f96108db36600461386e565b60009081526001602052604090206013015462010000900460ff1690565b6040516103999190613d42565b6006546001600160a01b0316331461095e5760405163048e2d4960e41b81526020600482015260156024820152744572726f722041636365737320416464726573732160581b60448201526064015b60405180910390fd5b60008281526004602090815260408083206001600160a01b0385168452909152812060010180549161098f8361412a565b91905055505050565b6006546000906001600160a01b031633146109ee5760405163048e2d4960e41b81526020600482015260156024820152744572726f722041636365737320416464726573732160581b6044820152606401610955565b6000858152600160205260409020600c0180544291829186908110610a1557610a15614171565b60009182526020808320600a600b9093020191909101929092558781526004825260408082206001600160a01b03891683528352808220878352600201835290208451610a6a9260019092019186019061321d565b5095945050505050565b606060016000838152602001908152602001600020600c01805480602002602001604051908101604052809291908181526020016000905b82821015610d1a57600084815260209020604080516101808101909152600b84029091018054829060a0820190839082908290610ae8906140ef565b80601f0160208091040260200160405190810160405280929190818152602001828054610b14906140ef565b8015610b615780601f10610b3657610100808354040283529160200191610b61565b820191906000526020600020905b815481529060010190602001808311610b4457829003601f168201915b505050505081526020016001820154815260200160028201548152602001600382015481526020016004820154815260200160058201548152602001600682018054610bac906140ef565b80601f0160208091040260200160405190810160405280929190818152602001828054610bd8906140ef565b8015610c255780601f10610bfa57610100808354040283529160200191610c25565b820191906000526020600020905b815481529060010190602001808311610c0857829003601f168201915b505050505081525050815260200160078201548152602001600882018054610c4c906140ef565b80601f0160208091040260200160405190810160405280929190818152602001828054610c78906140ef565b8015610cc55780601f10610c9a57610100808354040283529160200191610cc5565b820191906000526020600020905b815481529060010190602001808311610ca857829003601f168201915b5050509183525050600982015460209091019060ff16600b811115610cec57610cec61415b565b600b811115610cfd57610cfd61415b565b8152602001600a8201548152505081526020019060010190610aac565b505050509050919050565b6006546001600160a01b03163314610d785760405163048e2d4960e41b81526020600482015260156024820152744572726f722041636365737320416464726573732160581b6044820152606401610955565b6001600160a01b03821660009081526002602052604081208054839290610da09084906140a9565b90915550505050565b6006546001600160a01b03163314610dfc5760405163048e2d4960e41b81526020600482015260156024820152744572726f722041636365737320416464726573732160581b6044820152606401610955565b600082815260016020526040902060130180548291907fffffffffffffffffffffffffffffffffffffffffffffffffffffffffff00ffff1662010000836007811115610e4a57610e4a61415b565b02179055505050565b60008281526003602090815260408083206001600160a01b03851684529091529020545b92915050565b6006546001600160a01b03163314610ed05760405163048e2d4960e41b81526020600482015260156024820152744572726f722041636365737320416464726573732160581b6044820152606401610955565b60008481526003602090815260408083206001600160a01b038716845282528083208584526002019091529020805482919060ff19166001836004811115610f1a57610f1a61415b565b021790555050505050565b6006546001600160a01b03163314610f785760405163048e2d4960e41b81526020600482015260156024820152744572726f722041636365737320416464726573732160581b6044820152606401610955565b60008281526001602081815260409092208351918101919091558282015180519192610fac9260028501929091019061321d565b5060408201518051610fc891600384019160209091019061321d565b50606082015160048201556080820151600582015560a0820151600682015560c082015180516110029160078401916020909101906132a1565b5060e08201516008820155610100808301516009830155610160830151600b830155610120830151600a8301805461014086015115801590940261ff00199315159390931661ffff199091161791909117905561106a5761018082015151600f820155611072565b6001600f8201555b60138101805460ff1916600117905560005b826101800151518110156111a35781600c0183610180015182815181106110ad576110ad614171565b60209081029190910181015182546001810184556000938452928290208151805180519395600b0290920193909284926110eb92849291019061321d565b50602082810151600183015560408301516002830155606083015160038301556080830151600483015560a0830151600583015560c08301518051611136926006850192019061321d565b50505060208281015160078301556040830151805161115b926008850192019061321d565b50606082015160098201805460ff1916600183600b81111561117f5761117f61415b565b0217905550608082015181600a01555050808061119b9061412a565b915050611084565b50505050565b6006546001600160a01b031633146111fc5760405163048e2d4960e41b81526020600482015260156024820152744572726f722041636365737320416464726573732160581b6044820152606401610955565b6000838152600160205260409020600c0180548291908490811061122257611222614171565b90600052602060002090600b020160090160006101000a81548160ff0219169083600b8111156112545761125461415b565b0217905550505050565b6112666132db565b60008281526001602081815260409283902083516102e08101855281546001600160a01b03168152928101549183019190915260028101805492939192918401916112b0906140ef565b80601f01602080910402602001604051908101604052809291908181526020018280546112dc906140ef565b80156113295780601f106112fe57610100808354040283529160200191611329565b820191906000526020600020905b81548152906001019060200180831161130c57829003601f168201915b50505050508152602001600382018054611342906140ef565b80601f016020809104026020016040519081016040528092919081815260200182805461136e906140ef565b80156113bb5780601f10611390576101008083540402835291602001916113bb565b820191906000526020600020905b81548152906001019060200180831161139e57829003601f168201915b505050505081526020016004820154815260200160058201548152602001600682015481526020016007820180548060200260200160405190810160405280929190818152602001828054801561143157602002820191906000526020600020905b81548152602001906001019080831161141d575b505050918352505060088201546020808301919091526009830154604080840191909152600a84015460ff808216151560608601526101009091041615156080840152600b84015460a0840152600c8401805482518185028101850190935280835260c090940193919290919060009084015b8282101561171257600084815260209020604080516101808101909152600b84029091018054829060a08201908390829082906114e0906140ef565b80601f016020809104026020016040519081016040528092919081815260200182805461150c906140ef565b80156115595780601f1061152e57610100808354040283529160200191611559565b820191906000526020600020905b81548152906001019060200180831161153c57829003601f168201915b5050505050815260200160018201548152602001600282015481526020016003820154815260200160048201548152602001600582015481526020016006820180546115a4906140ef565b80601f01602080910402602001604051908101604052809291908181526020018280546115d0906140ef565b801561161d5780601f106115f25761010080835404028352916020019161161d565b820191906000526020600020905b81548152906001019060200180831161160057829003601f168201915b505050505081525050815260200160078201548152602001600882018054611644906140ef565b80601f0160208091040260200160405190810160405280929190818152602001828054611670906140ef565b80156116bd5780601f10611692576101008083540402835291602001916116bd565b820191906000526020600020905b8154815290600101906020018083116116a057829003601f168201915b5050509183525050600982015460209091019060ff16600b8111156116e4576116e461415b565b600b8111156116f5576116f561415b565b8152602001600a82015481525050815260200190600101906114a4565b505050508152602001600d820180548060200260200160405190810160405280929190818152602001828054801561177357602002820191906000526020600020905b81546001600160a01b03168152600190910190602001808311611755575b50505050508152602001600e82018054806020026020016040519081016040528092919081815260200182805480156117d557602002820191906000526020600020905b81546001600160a01b031681526001909101906020018083116117b7575b5050509183525050600f8201546020820152601082015460408201526011820154606082015260128201546080820152601382015460ff808216151560a084015261010082048116151560c084015260e090920191620100009091041660078111156118435761184361415b565b60078111156118545761185461415b565b90525092915050565b6006546001600160a01b031633146118b05760405163048e2d4960e41b81526020600482015260156024820152744572726f722041636365737320416464726573732160581b6044820152606401610955565b60009283526003602090815260408085206001600160a01b0390941685529281529183208054600181018255908452919092200155565b6006546001600160a01b0316331461193a5760405163048e2d4960e41b81526020600482015260156024820152744572726f722041636365737320416464726573732160581b6044820152606401610955565b60009182526001602081815260408420600d01805492830181558452909220909101805473ffffffffffffffffffffffffffffffffffffffff19166001600160a01b03909216919091179055565b6006546000906001600160a01b031633146119de5760405163048e2d4960e41b81526020600482015260156024820152744572726f722041636365737320416464726573732160581b6044820152606401610955565b6000858152600160205260409020600c0180544291829186908110611a0557611a05614171565b60009182526020808320600a600b9093020191909101929092558781526003825260408082206001600160a01b03891683528352808220878352600201835290208451610a6a9260019092019186019061321d565b6006546001600160a01b03163314611aad5760405163048e2d4960e41b81526020600482015260156024820152744572726f722041636365737320416464726573732160581b6044820152606401610955565b6000818152600160205260408120601101805491611aca8361412a565b919050555050565b6006546001600160a01b03163314611b255760405163048e2d4960e41b81526020600482015260156024820152744572726f722041636365737320416464726573732160581b6044820152606401610955565b6001600160a01b03821660009081526002602052604081208054839290610da09084906140c1565b611b7a604051806060016040528060006001600160a01b0316815260200160608152602001606081525090565b611ba7604051806060016040528060006001600160a01b0316815260200160608152602001606081525090565b6001600160a01b03831680825260008581526003602090815260408083209383529281529082902080548351818402810184019094528084529091830182828015611c1157602002820191906000526020600020905b815481526020019060010190808311611bfd575b5050505060208301829052505160009067ffffffffffffffff811115611c3957611c39614187565b604051908082528060200260200182016040528015611c8f57816020015b611c7c6040805160608101909152806000815260606020820152600060409091015290565b815260200190600190039081611c575790505b50905060005b826020015151811015611e605760008681526003602090815260408083206001600160a01b0389168452825282209085015180516002909201929184908110611ce057611ce0614171565b6020026020010151815260200190815260200160002060000160009054906101000a900460ff16828281518110611d1957611d19614171565b6020026020010151600001906004811115611d3657611d3661415b565b90816004811115611d4957611d4961415b565b90525060008681526003602090815260408083206001600160a01b0389168452825282209085015180516002909201929184908110611d8a57611d8a614171565b602002602001015181526020019081526020016000206001018054611dae906140ef565b80601f0160208091040260200160405190810160405280929190818152602001828054611dda906140ef565b8015611e275780601f10611dfc57610100808354040283529160200191611e27565b820191906000526020600020905b815481529060010190602001808311611e0a57829003601f168201915b5050505050828281518110611e3e57611e3e614171565b6020026020010151602001819052508080611e589061412a565b915050611c95565b5060408201529392505050565b6006546001600160a01b03163314611ec05760405163048e2d4960e41b81526020600482015260156024820152744572726f722041636365737320416464726573732160581b6044820152606401610955565b600091825260016020526040909120601301805460ff1916911515919091179055565b6006546001600160a01b03163314611f365760405163048e2d4960e41b81526020600482015260156024820152744572726f722041636365737320416464726573732160581b6044820152606401610955565b60008481526004602081815260408084206001600160a01b038816855282528084208685526002019091529091208054839260ff19909116906001908490811115610f1a57610f1a61415b565b6006546001600160a01b03163314611fd65760405163048e2d4960e41b81526020600482015260156024820152744572726f722041636365737320416464726573732160581b6044820152606401610955565b600560008154611fe59061412a565b90915550565b6006546001600160a01b0316331461203e5760405163048e2d4960e41b81526020600482015260156024820152744572726f722041636365737320416464726573732160581b6044820152606401610955565b60009283526004602090815260408085206001600160a01b0390931685529181528184209284526002928301905290912001805460ff19166001179055565b61208561314c565b61208f60006131c0565b565b6006546001600160a01b031633146120e45760405163048e2d4960e41b81526020600482015260156024820152744572726f722041636365737320416464726573732160581b6044820152606401610955565b60008281526004602090815260408083206001600160a01b0385168452909152812060010180549161098f836140d8565b612142604051806060016040528060006001600160a01b0316815260200160608152602001606081525090565b61216f604051806060016040528060006001600160a01b0316815260200160608152602001606081525090565b6001600160a01b038316808252600085815260046020908152604080832093835292815290829020805483518184028101840190945280845290918301828280156121d957602002820191906000526020600020905b8154815260200190600101908083116121c5575b5050505060208301829052505160009067ffffffffffffffff81111561220157612201614187565b60405190808252806020026020018201604052801561225757816020015b6122446040805160608101909152806000815260606020820152600060409091015290565b81526020019060019003908161221f5790505b50905060005b826020015151811015611e605760008681526004602090815260408083206001600160a01b03891684528252822090850151805160029092019291849081106122a8576122a8614171565b6020026020010151815260200190815260200160002060000160009054906101000a900460ff168282815181106122e1576122e1614171565b60200260200101516000019060048111156122fe576122fe61415b565b908160048111156123115761231161415b565b90525060008681526004602090815260408083206001600160a01b038916845282528220908501518051600290920192918490811061235257612352614171565b602002602001015181526020019081526020016000206001018054612376906140ef565b80601f01602080910402602001604051908101604052809291908181526020018280546123a2906140ef565b80156123ef5780601f106123c4576101008083540402835291602001916123ef565b820191906000526020600020905b8154815290600101906020018083116123d257829003601f168201915b505050505082828151811061240657612406614171565b60200260200101516020018190525080806124209061412a565b91505061225d565b60008281526003602090815260408083206001600160a01b0387168452825280832084845260029081019092528220015460ff1680612498575060008381526004602090815260408083206001600160a01b038816845282528083208584526002908101909252909120015460ff165b156124a5575060016124a9565b5060005b9392505050565b600081156124d9575060008281526001602052604090206011810154600f909101541115610e77565b50600082815260016020526040902060128101546010909101541115610e77565b60606000606080600080861561257b5760008981526003602090815260408083206001600160a01b038c1684528252918290208054835181840281018401909452808452909183018282801561256f57602002820191906000526020600020905b81548152602001906001019080831161255b575b505050505093506125e8565b60008981526004602090815260408083206001600160a01b038c168452825291829020805483518184028101840190945280845290918301828280156125e057602002820191906000526020600020905b8154815260200190600101908083116125cc575b505050505093505b61260d6040805160608101909152806000815260606020820152600060409091015290565b60005b85518110156128265760008b81526003602090815260408083206001600160a01b038e168452909152812087516002909101919088908490811061265657612656614171565b602002602001015181526020019081526020016000206040518060600160405290816000820160009054906101000a900460ff16600481111561269b5761269b61415b565b60048111156126ac576126ac61415b565b81526020016001820180546126c0906140ef565b80601f01602080910402602001604051908101604052809291908181526020018280546126ec906140ef565b80156127395780601f1061270e57610100808354040283529160200191612739565b820191906000526020600020905b81548152906001019060200180831161271c57829003601f168201915b50505091835250506002919091015460ff161515602090910152915060008251600481111561276a5761276a61415b565b14156128145785818151811061278257612782614171565b602002602001015185848151811061279c5761279c614171565b6020908102919091010152826127b18161412a565b935050600160008c8152602001908152602001600020600c018682815181106127dc576127dc614171565b6020026020010151815481106127f4576127f4614171565b90600052602060002090600b0201600701548461281191906140a9565b93505b8061281e8161412a565b915050612610565b509299919850909650505050505050565b6006546001600160a01b0316331461288a5760405163048e2d4960e41b81526020600482015260156024820152744572726f722041636365737320416464726573732160581b6044820152606401610955565b60008281526003602090815260408083206001600160a01b0385168452909152812060010180549161098f8361412a565b600081815260016020908152604091829020600d0180548351818402810184019094528084526060939283018282801561291e57602002820191906000526020600020905b81546001600160a01b03168152600190910190602001808311612900575b50505050509050919050565b6006546001600160a01b0316331461297d5760405163048e2d4960e41b81526020600482015260156024820152744572726f722041636365737320416464726573732160581b6044820152606401610955565b60009182526001602081815260408420600e01805492830181558452909220909101805473ffffffffffffffffffffffffffffffffffffffff19166001600160a01b03909216919091179055565b6006546001600160a01b03163314612a1e5760405163048e2d4960e41b81526020600482015260156024820152744572726f722041636365737320416464726573732160581b6044820152606401610955565b60009283526004602090815260408085206001600160a01b0390941685529281529183208054600181018255908452919092200155565b6006546000906001600160a01b03163314612aab5760405163048e2d4960e41b81526020600482015260156024820152744572726f722041636365737320416464726573732160581b6044820152606401610955565b60058054906000612abb8361412a565b90915550506005546000908152600160208181526040909220805473ffffffffffffffffffffffffffffffffffffffff19166001600160a01b0386161781558551918101919091558482015180519192612b1d9260028501929091019061321d565b5060408401518051612b3991600384019160209091019061321d565b50606084015160048201556080840151600582015560a0840151600682015560c08401518051612b739160078401916020909101906132a1565b5060e08401516008820155610100808501516009830155610160850151600b830155610120850151600a8301805461014088015115801590940261ff00199315159390931661ffff1990911617919091179055612be25761018084015151600f82018190556010820155612bf1565b6001600f820181905560108201555b60138101805461ffff191661010117905560005b84610180015151811015612d715760008561018001518281518110612c2c57612c2c614171565b602002602001015160600190600b811115612c4957612c4961415b565b9081600b811115612c5c57612c5c61415b565b8152505081600c018561018001518281518110612c7b57612c7b614171565b60209081029190910181015182546001810184556000938452928290208151805180519395600b029092019390928492612cb992849291019061321d565b50602082810151600183015560408301516002830155606083015160038301556080830151600483015560a0830151600583015560c08301518051612d04926006850192019061321d565b505050602082810151600783015560408301518051612d29926008850192019061321d565b50606082015160098201805460ff1916600183600b811115612d4d57612d4d61415b565b0217905550608082015181600a015550508080612d699061412a565b915050612c05565b50506005549392505050565b612d8561314c565b6006805473ffffffffffffffffffffffffffffffffffffffff19166001600160a01b0392909216919091179055565b6000828152600160205260408120600c01805483908110612dd757612dd7614171565b60009182526020909120600b909102016009015460ff169392505050565b600081815260016020908152604091829020600e0180548351818402810184019094528084526060939283018282801561291e576020028201919060005260206000209081546001600160a01b031681526001909101906020018083116129005750505050509050919050565b6006546001600160a01b03163314612eb55760405163048e2d4960e41b81526020600482015260156024820152744572726f722041636365737320416464726573732160581b6044820152606401610955565b60009182526001602052604090912060130180549115156101000261ff0019909216919091179055565b6006546001600160a01b03163314612f325760405163048e2d4960e41b81526020600482015260156024820152744572726f722041636365737320416464726573732160581b6044820152606401610955565b60008281526003602090815260408083206001600160a01b0385168452909152812060010180549161098f836140d8565b6006546001600160a01b03163314612fb65760405163048e2d4960e41b81526020600482015260156024820152744572726f722041636365737320416464726573732160581b6044820152606401610955565b6000818152600160205260408120601201805491611aca8361412a565b6006546001600160a01b031633146130265760405163048e2d4960e41b81526020600482015260156024820152744572726f722041636365737320416464726573732160581b6044820152606401610955565b60009283526003602090815260408085206001600160a01b0390931685529181528184209284526002928301905290912001805460ff19166001179055565b6000828152600160205260408120600c0180548390811061308857613088614171565b90600052602060002090600b020160070154905092915050565b6130aa61314c565b6001600160a01b038116613140576040517f08c379a000000000000000000000000000000000000000000000000000000000815260206004820152602660248201527f4f776e61626c653a206e6577206f776e657220697320746865207a65726f206160448201527f64647265737300000000000000000000000000000000000000000000000000006064820152608401610955565b613149816131c0565b50565b6000546001600160a01b0316331461208f576040517f08c379a000000000000000000000000000000000000000000000000000000000815260206004820181905260248201527f4f776e61626c653a2063616c6c6572206973206e6f7420746865206f776e65726044820152606401610955565b600080546001600160a01b0383811673ffffffffffffffffffffffffffffffffffffffff19831681178455604051919092169283917f8be0079c531659141344cd1fd0a4f28419497f9722a3daafe3b4186f6b6457e09190a35050565b828054613229906140ef565b90600052602060002090601f01602090048101928261324b5760008555613291565b82601f1061326457805160ff1916838001178555613291565b82800160010185558215613291579182015b82811115613291578251825591602001919060010190613276565b5061329d9291506133aa565b5090565b8280548282559060005260206000209081019282156132915791602002820182811115613291578251825591602001919060010190613276565b604051806102e0016040528060006001600160a01b031681526020016000815260200160608152602001606081526020016000815260200160008152602001600081526020016060815260200160008152602001600081526020016000151581526020016000151581526020016000815260200160608152602001606081526020016060815260200160008152602001600081526020016000815260200160008152602001600015158152602001600015158152602001600060078111156133a5576133a561415b565b905290565b5b8082111561329d57600081556001016133ab565b80356001600160a01b03811681146133d657600080fd5b919050565b600082601f8301126133ec57600080fd5b60206134006133fb8435614085565b614054565b808435825282820191508285018684873560051b880101111561342257600080fd5b60005b86358110156135725767ffffffffffffffff808335111561344557600080fd5b82358801601f1960a081838d0301121561345e57600080fd5b613466613fe4565b888301358481111561347757600080fd5b830160e0818e038401121561348b57600080fd5b61349361400d565b925089810135858111156134a657600080fd5b6134b48e8c8385010161360a565b84525060408101358a840152606081013560408401526080810135606084015260a0810135608084015260c081013560a084015260e0810135858111156134fa57600080fd5b6135088e8c8385010161360a565b60c085015250509081526040820135888201526060820135908382111561352e57600080fd5b61353c8c8a8486010161360a565b604082015261354d608084016135fb565b606082015260a092909201356080830152508552509284019290840190600101613425565b50909695505050505050565b600082601f83011261358f57600080fd5b8135602061359f6133fb83614085565b80838252828201915082860187848660051b89010111156135bf57600080fd5b60005b858110156135de578135845292840192908401906001016135c2565b5090979650505050505050565b803580151581146133d657600080fd5b8035600c81106133d657600080fd5b600082601f83011261361b57600080fd5b813567ffffffffffffffff81111561363557613635614187565b6136486020601f19601f84011601614054565b81815284602083860101111561365d57600080fd5b816020850160208301376000918101602001919091529392505050565b60006101a0828403121561368d57600080fd5b613695614030565b905081358152602082013567ffffffffffffffff808211156136b657600080fd5b6136c28583860161360a565b602084015260408401359150808211156136db57600080fd5b6136e78583860161360a565b6040840152606084013560608401526080840135608084015260a084013560a084015260c084013591508082111561371e57600080fd5b61372a8583860161357e565b60c084015260e08481013590840152610100808501359084015261012091506137548285016135eb565b8284015261014091506137688285016135eb565b82840152610160915081840135828401526101809150818401358181111561378f57600080fd5b61379b868287016133db565b8385015250505092915050565b6000602082840312156137ba57600080fd5b6124a9826133bf565b600080604083850312156137d657600080fd5b6137df836133bf565b946020939093013593505050565b60008060006060848603121561380257600080fd5b61380b846133bf565b95602085013595506040909401359392505050565b6000806040838503121561383357600080fd5b823567ffffffffffffffff81111561384a57600080fd5b6138568582860161367a565b925050613865602084016133bf565b90509250929050565b60006020828403121561388057600080fd5b5035919050565b6000806040838503121561389a57600080fd5b82359150613865602084016133bf565b6000806000606084860312156138bf57600080fd5b833592506138cf602085016133bf565b91506138dd604085016135eb565b90509250925092565b6000806000606084860312156138fb57600080fd5b8335925061390b602085016133bf565b9150604084013590509250925092565b6000806000806080858703121561393157600080fd5b84359350613941602086016133bf565b92506040850135915060608501356005811061395c57600080fd5b939692955090935050565b6000806000806080858703121561397d57600080fd5b8435935061398d602086016133bf565b925060408501359150606085013567ffffffffffffffff8111156139b057600080fd5b6139bc8782880161360a565b91505092959194509250565b600080604083850312156139db57600080fd5b82359150613865602084016135eb565b600080604083850312156139fe57600080fd5b82359150602083013560088110613a1457600080fd5b809150509250929050565b60008060408385031215613a3257600080fd5b82359150602083013567ffffffffffffffff811115613a5057600080fd5b613a5c8582860161367a565b9150509250929050565b60008060408385031215613a7957600080fd5b50508035926020909101359150565b600080600060608486031215613a9d57600080fd5b83359250602084013591506138dd604085016133bf565b600080600060608486031215613ac957600080fd5b83359250602084013591506138dd604085016135fb565b600081518084526020808501945080840160005b83811015613b195781516001600160a01b031687529582019590820190600101613af4565b509495945050505050565b600081518084526020808501808196508360051b8101915082860160005b85811015613c3e578284038952815160a08151818752805160e080848a0152613b6f6101808a0183613c9f565b91508983015160c081818c01526040915081850151838c015260609250828501516101008c01526080808601516101208d0152868601516101408d01528186015196507fffffffffffffffffffffffffffffffffffffffffffffffffffffffffffffff608c8603016101608d0152613be78588613c9f565b96508c8801518d8d01528288015195508b8703838d0152613c088787613c9f565b9650838801519550613c1c848d0187613c7b565b968701519a909601999099525050509986019994505090840190600101613b42565b5091979650505050505050565b600081518084526020808501945080840160005b83811015613b1957815187529582019590820190600101613c5f565b600c8110613c8b57613c8b61415b565b9052565b60088110613c8b57613c8b61415b565b6000815180845260005b81811015613cc557602081850181015186830182015201613ca9565b81811115613cd7576000602083870101525b50601f01601f19169290920160200192915050565b6020815260006124a96020830184613ae0565b6020815260006124a96020830184613b24565b604081526000613d256040830185613c4b565b90508260208301529392505050565b60208101610e778284613c7b565b60208101610e778284613c8f565b600060208083526001600160a01b038451168184015280840151606060408181870152613d806080870184613c4b565b81880151601f198883038101858a015281518084529295509086019186860190600581811b8801890160005b83811015613e0557858a830301855286518051848110613dce57613dce61415b565b8352808c01518c84018b9052613de68b850182613c9f565b918a01511515938a0193909352968b0196948b01949150600101613dac565b509c9b505050505050505050505050565b60208152613e306020820183516001600160a01b03169052565b60208201516040820152600060408301516102e0806060850152613e58610300850183613c9f565b91506060850151601f1980868503016080870152613e768483613c9f565b9350608087015160a087015260a087015160c087015260c087015160e087015260e08701519150610100818786030181880152613eb38584613c4b565b9088015161012088810191909152880151610140808901919091528801519094509150610160613ee68188018415159052565b8701519150610180613efb8782018415159052565b808801519250506101a08281880152808801519250506101c0818786030181880152613f278584613b24565b9450808801519250506101e0818786030181880152613f468584613ae0565b945080880151925050610200818786030181880152613f658584613ae0565b908801516102208881019190915288015161024080890191909152880151610260808901919091528801516102808089019190915288015190945091506102a09050613fb48187018315159052565b86015190506102c0613fc98682018315159052565b8601519050613fda85830182613c8f565b5090949350505050565b60405160a0810167ffffffffffffffff8111828210171561400757614007614187565b60405290565b60405160e0810167ffffffffffffffff8111828210171561400757614007614187565b6040516101a0810167ffffffffffffffff8111828210171561400757614007614187565b604051601f8201601f1916810167ffffffffffffffff8111828210171561407d5761407d614187565b604052919050565b600067ffffffffffffffff82111561409f5761409f614187565b5060051b60200190565b600082198211156140bc576140bc614145565b500190565b6000828210156140d3576140d3614145565b500390565b6000816140e7576140e7614145565b506000190190565b600181811c9082168061410357607f821691505b6020821081141561412457634e487b7160e01b600052602260045260246000fd5b50919050565b600060001982141561413e5761413e614145565b5060010190565b634e487b7160e01b600052601160045260246000fd5b634e487b7160e01b600052602160045260246000fd5b634e487b7160e01b600052603260045260246000fd5b634e487b7160e01b600052604160045260246000fdfea26469706673582212204e11d3f5e743e01d3337dbc0ddc14e26c4ee7eab71da26217be194662954ecde64736f6c63430008070033",
					"opcodes": "PUSH1 0x80 PUSH1 0x40 MSTORE CALLVALUE DUP1 ISZERO PUSH3 0x11 JUMPI PUSH1 0x0 DUP1 REVERT JUMPDEST POP PUSH3 0x1D CALLER PUSH3 0x23 JUMP JUMPDEST PUSH3 0x73 JUMP JUMPDEST PUSH1 0x0 DUP1 SLOAD PUSH1 0x1 PUSH1 0x1 PUSH1 0xA0 SHL SUB DUP4 DUP2 AND PUSH1 0x1 PUSH1 0x1 PUSH1 0xA0 SHL SUB NOT DUP4 AND DUP2 OR DUP5 SSTORE PUSH1 0x40 MLOAD SWAP2 SWAP1 SWAP3 AND SWAP3 DUP4 SWAP2 PUSH32 0x8BE0079C531659141344CD1FD0A4F28419497F9722A3DAAFE3B4186F6B6457E0 SWAP2 SWAP1 LOG3 POP POP JUMP JUMPDEST PUSH2 0x41D3 DUP1 PUSH3 0x83 PUSH1 0x0 CODECOPY PUSH1 0x0 RETURN INVALID PUSH1 0x80 PUSH1 0x40 MSTORE CALLVALUE DUP1 ISZERO PUSH2 0x10 JUMPI PUSH1 0x0 DUP1 REVERT JUMPDEST POP PUSH1 0x4 CALLDATASIZE LT PUSH2 0x362 JUMPI PUSH1 0x0 CALLDATALOAD PUSH1 0xE0 SHR DUP1 PUSH4 0x7C34EB85 GT PUSH2 0x1C8 JUMPI DUP1 PUSH4 0xA87D942C GT PUSH2 0x104 JUMPI DUP1 PUSH4 0xCE098054 GT PUSH2 0xA2 JUMPI DUP1 PUSH4 0xE1CA7CA7 GT PUSH2 0x7C JUMPI DUP1 PUSH4 0xE1CA7CA7 EQ PUSH2 0x884 JUMPI DUP1 PUSH4 0xF2FDE38B EQ PUSH2 0x897 JUMPI DUP1 PUSH4 0xF8626EBB EQ PUSH2 0x8AA JUMPI DUP1 PUSH4 0xFFCCE776 EQ PUSH2 0x8CD JUMPI PUSH1 0x0 DUP1 REVERT JUMPDEST DUP1 PUSH4 0xCE098054 EQ PUSH2 0x825 JUMPI DUP1 PUSH4 0xD2FED69C EQ PUSH2 0x838 JUMPI DUP1 PUSH4 0xD3D7BC3B EQ PUSH2 0x85B JUMPI PUSH1 0x0 DUP1 REVERT JUMPDEST DUP1 PUSH4 0xB647EEC3 GT PUSH2 0xDE JUMPI DUP1 PUSH4 0xB647EEC3 EQ PUSH2 0x7D9 JUMPI DUP1 PUSH4 0xC061BB82 EQ PUSH2 0x7EC JUMPI DUP1 PUSH4 0xC16DA060 EQ PUSH2 0x7FF JUMPI DUP1 PUSH4 0xCA74A589 EQ PUSH2 0x812 JUMPI PUSH1 0x0 DUP1 REVERT JUMPDEST DUP1 PUSH4 0xA87D942C EQ PUSH2 0x79E JUMPI DUP1 PUSH4 0xAD5F7AB0 EQ PUSH2 0x7A6 JUMPI DUP1 PUSH4 0xAD607C72 EQ PUSH2 0x7B9 JUMPI PUSH1 0x0 DUP1 REVERT JUMPDEST DUP1 PUSH4 0x8DA5CB5B GT PUSH2 0x171 JUMPI DUP1 PUSH4 0x983A12A8 GT PUSH2 0x14B JUMPI DUP1 PUSH4 0x983A12A8 EQ PUSH2 0x745 JUMPI DUP1 PUSH4 0x992D60F3 EQ PUSH2 0x765 JUMPI DUP1 PUSH4 0xA1E047F3 EQ PUSH2 0x778 JUMPI DUP1 PUSH4 0xA74DEB9B EQ PUSH2 0x78B JUMPI PUSH1 0x0 DUP1 REVERT JUMPDEST DUP1 PUSH4 0x8DA5CB5B EQ PUSH2 0x6FB JUMPI DUP1 PUSH4 0x90F4D674 EQ PUSH2 0x70C JUMPI DUP1 PUSH4 0x9722F099 EQ PUSH2 0x71F JUMPI PUSH1 0x0 DUP1 REVERT JUMPDEST DUP1 PUSH4 0x869A7365 GT PUSH2 0x1A2 JUMPI DUP1 PUSH4 0x869A7365 EQ PUSH2 0x68E JUMPI DUP1 PUSH4 0x8A9A9FF3 EQ PUSH2 0x6C7 JUMPI DUP1 PUSH4 0x8B3F3A6F EQ PUSH2 0x6DA JUMPI PUSH1 0x0 DUP1 REVERT JUMPDEST DUP1 PUSH4 0x7C34EB85 EQ PUSH2 0x63D JUMPI DUP1 PUSH4 0x7C35BEB7 EQ PUSH2 0x668 JUMPI DUP1 PUSH4 0x7D88DADF EQ PUSH2 0x67B JUMPI PUSH1 0x0 DUP1 REVERT JUMPDEST DUP1 PUSH4 0x33E68DCD GT PUSH2 0x2A2 JUMPI DUP1 PUSH4 0x6C431904 GT PUSH2 0x240 JUMPI DUP1 PUSH4 0x6E973982 GT PUSH2 0x21A JUMPI DUP1 PUSH4 0x6E973982 EQ PUSH2 0x5C9 JUMPI DUP1 PUSH4 0x715018A6 EQ PUSH2 0x5EC JUMPI DUP1 PUSH4 0x790485F9 EQ PUSH2 0x5F4 JUMPI DUP1 PUSH4 0x7B3F4717 EQ PUSH2 0x62A JUMPI PUSH1 0x0 DUP1 REVERT JUMPDEST DUP1 PUSH4 0x6C431904 EQ PUSH2 0x59B JUMPI DUP1 PUSH4 0x6CEFCE6E EQ PUSH2 0x5AE JUMPI DUP1 PUSH4 0x6D8D1DAF EQ PUSH2 0x5B6 JUMPI PUSH1 0x0 DUP1 REVERT JUMPDEST DUP1 PUSH4 0x57840DA6 GT PUSH2 0x27C JUMPI DUP1 PUSH4 0x57840DA6 EQ PUSH2 0x514 JUMPI DUP1 PUSH4 0x5BF608B8 EQ PUSH2 0x527 JUMPI DUP1 PUSH4 0x5FED5EB2 EQ PUSH2 0x568 JUMPI DUP1 PUSH4 0x63E3CCAD EQ PUSH2 0x588 JUMPI PUSH1 0x0 DUP1 REVERT JUMPDEST DUP1 PUSH4 0x33E68DCD EQ PUSH2 0x4B3 JUMPI DUP1 PUSH4 0x429EDAA2 EQ PUSH2 0x4C6 JUMPI DUP1 PUSH4 0x546677AA EQ PUSH2 0x4D9 JUMPI PUSH1 0x0 DUP1 REVERT JUMPDEST DUP1 PUSH4 0x19F17088 GT PUSH2 0x30F JUMPI DUP1 PUSH4 0x21D90A27 GT PUSH2 0x2E9 JUMPI DUP1 PUSH4 0x21D90A27 EQ PUSH2 0x434 JUMPI DUP1 PUSH4 0x25E78E70 EQ PUSH2 0x46D JUMPI DUP1 PUSH4 0x271FF03F EQ PUSH2 0x48D JUMPI DUP1 PUSH4 0x31D396CE EQ PUSH2 0x4A0 JUMPI PUSH1 0x0 DUP1 REVERT JUMPDEST DUP1 PUSH4 0x19F17088 EQ PUSH2 0x3FB JUMPI DUP1 PUSH4 0x1AF5FA16 EQ PUSH2 0x40E JUMPI DUP1 PUSH4 0x1FA2BF4C EQ PUSH2 0x421 JUMPI PUSH1 0x0 DUP1 REVERT JUMPDEST DUP1 PUSH4 0x172372C2 GT PUSH2 0x340 JUMPI DUP1 PUSH4 0x172372C2 EQ PUSH2 0x3C2 JUMPI DUP1 PUSH4 0x17E925D7 EQ PUSH2 0x3D5 JUMPI DUP1 PUSH4 0x193620E7 EQ PUSH2 0x3E8 JUMPI PUSH1 0x0 DUP1 REVERT JUMPDEST DUP1 PUSH4 0x3F95ED1 EQ PUSH2 0x367 JUMPI DUP1 PUSH4 0x5C3F9C9 EQ PUSH2 0x37C JUMPI DUP1 PUSH4 0x12506F4D EQ PUSH2 0x3A2 JUMPI JUMPDEST PUSH1 0x0 DUP1 REVERT JUMPDEST PUSH2 0x37A PUSH2 0x375 CALLDATASIZE PUSH1 0x4 PUSH2 0x3887 JUMP JUMPDEST PUSH2 0x906 JUMP JUMPDEST STOP JUMPDEST PUSH2 0x38F PUSH2 0x38A CALLDATASIZE PUSH1 0x4 PUSH2 0x3967 JUMP JUMPDEST PUSH2 0x998 JUMP JUMPDEST PUSH1 0x40 MLOAD SWAP1 DUP2 MSTORE PUSH1 0x20 ADD JUMPDEST PUSH1 0x40 MLOAD DUP1 SWAP2 SUB SWAP1 RETURN JUMPDEST PUSH2 0x3B5 PUSH2 0x3B0 CALLDATASIZE PUSH1 0x4 PUSH2 0x386E JUMP JUMPDEST PUSH2 0xA74 JUMP JUMPDEST PUSH1 0x40 MLOAD PUSH2 0x399 SWAP2 SWAP1 PUSH2 0x3CFF JUMP JUMPDEST PUSH2 0x37A PUSH2 0x3D0 CALLDATASIZE PUSH1 0x4 PUSH2 0x37C3 JUMP JUMPDEST PUSH2 0xD25 JUMP JUMPDEST PUSH2 0x37A PUSH2 0x3E3 CALLDATASIZE PUSH1 0x4 PUSH2 0x39EB JUMP JUMPDEST PUSH2 0xDA9 JUMP JUMPDEST PUSH2 0x38F PUSH2 0x3F6 CALLDATASIZE PUSH1 0x4 PUSH2 0x3887 JUMP JUMPDEST PUSH2 0xE53 JUMP JUMPDEST PUSH2 0x37A PUSH2 0x409 CALLDATASIZE PUSH1 0x4 PUSH2 0x391B JUMP JUMPDEST PUSH2 0xE7D JUMP JUMPDEST PUSH2 0x37A PUSH2 0x41C CALLDATASIZE PUSH1 0x4 PUSH2 0x3A1F JUMP JUMPDEST PUSH2 0xF25 JUMP JUMPDEST PUSH2 0x37A PUSH2 0x42F CALLDATASIZE PUSH1 0x4 PUSH2 0x3AB4 JUMP JUMPDEST PUSH2 0x11A9 JUMP JUMPDEST PUSH2 0x38F PUSH2 0x442 CALLDATASIZE PUSH1 0x4 PUSH2 0x3887 JUMP JUMPDEST PUSH1 0x0 SWAP2 DUP3 MSTORE PUSH1 0x3 PUSH1 0x20 SWAP1 DUP2 MSTORE PUSH1 0x40 DUP1 DUP5 KECCAK256 PUSH1 0x1 PUSH1 0x1 PUSH1 0xA0 SHL SUB SWAP4 SWAP1 SWAP4 AND DUP5 MSTORE SWAP2 SWAP1 MSTORE SWAP1 KECCAK256 PUSH1 0x1 ADD SLOAD SWAP1 JUMP JUMPDEST PUSH2 0x480 PUSH2 0x47B CALLDATASIZE PUSH1 0x4 PUSH2 0x386E JUMP JUMPDEST PUSH2 0x125E JUMP JUMPDEST PUSH1 0x40 MLOAD PUSH2 0x399 SWAP2 SWAP1 PUSH2 0x3E16 JUMP JUMPDEST PUSH2 0x37A PUSH2 0x49B CALLDATASIZE PUSH1 0x4 PUSH2 0x38E6 JUMP JUMPDEST PUSH2 0x185D JUMP JUMPDEST PUSH2 0x37A PUSH2 0x4AE CALLDATASIZE PUSH1 0x4 PUSH2 0x3887 JUMP JUMPDEST PUSH2 0x18E7 JUMP JUMPDEST PUSH2 0x38F PUSH2 0x4C1 CALLDATASIZE PUSH1 0x4 PUSH2 0x3967 JUMP JUMPDEST PUSH2 0x1988 JUMP JUMPDEST PUSH2 0x37A PUSH2 0x4D4 CALLDATASIZE PUSH1 0x4 PUSH2 0x386E JUMP JUMPDEST PUSH2 0x1A5A JUMP JUMPDEST PUSH2 0x504 PUSH2 0x4E7 CALLDATASIZE PUSH1 0x4 PUSH2 0x386E JUMP JUMPDEST PUSH1 0x0 SWAP1 DUP2 MSTORE PUSH1 0x1 PUSH1 0x20 MSTORE PUSH1 0x40 SWAP1 KECCAK256 PUSH1 0x13 ADD SLOAD PUSH2 0x100 SWAP1 DIV PUSH1 0xFF AND SWAP1 JUMP JUMPDEST PUSH1 0x40 MLOAD SWAP1 ISZERO ISZERO DUP2 MSTORE PUSH1 0x20 ADD PUSH2 0x399 JUMP JUMPDEST PUSH2 0x37A PUSH2 0x522 CALLDATASIZE PUSH1 0x4 PUSH2 0x37C3 JUMP JUMPDEST PUSH2 0x1AD2 JUMP JUMPDEST PUSH2 0x550 PUSH2 0x535 CALLDATASIZE PUSH1 0x4 PUSH2 0x386E JUMP JUMPDEST PUSH1 0x0 SWAP1 DUP2 MSTORE PUSH1 0x1 PUSH1 0x20 MSTORE PUSH1 0x40 SWAP1 KECCAK256 SLOAD PUSH1 0x1 PUSH1 0x1 PUSH1 0xA0 SHL SUB AND SWAP1 JUMP JUMPDEST PUSH1 0x40 MLOAD PUSH1 0x1 PUSH1 0x1 PUSH1 0xA0 SHL SUB SWAP1 SWAP2 AND DUP2 MSTORE PUSH1 0x20 ADD PUSH2 0x399 JUMP JUMPDEST PUSH2 0x57B PUSH2 0x576 CALLDATASIZE PUSH1 0x4 PUSH2 0x3887 JUMP JUMPDEST PUSH2 0x1B4D JUMP JUMPDEST PUSH1 0x40 MLOAD PUSH2 0x399 SWAP2 SWAP1 PUSH2 0x3D50 JUMP JUMPDEST PUSH2 0x37A PUSH2 0x596 CALLDATASIZE PUSH1 0x4 PUSH2 0x39C8 JUMP JUMPDEST PUSH2 0x1E6D JUMP JUMPDEST PUSH2 0x37A PUSH2 0x5A9 CALLDATASIZE PUSH1 0x4 PUSH2 0x391B JUMP JUMPDEST PUSH2 0x1EE3 JUMP JUMPDEST PUSH2 0x37A PUSH2 0x1F83 JUMP JUMPDEST PUSH2 0x37A PUSH2 0x5C4 CALLDATASIZE PUSH1 0x4 PUSH2 0x3A88 JUMP JUMPDEST PUSH2 0x1FEB JUMP JUMPDEST PUSH2 0x38F PUSH2 0x5D7 CALLDATASIZE PUSH1 0x4 PUSH2 0x386E JUMP JUMPDEST PUSH1 0x0 SWAP1 DUP2 MSTORE PUSH1 0x1 PUSH1 0x20 MSTORE PUSH1 0x40 SWAP1 KECCAK256 PUSH1 0xB ADD SLOAD SWAP1 JUMP JUMPDEST PUSH2 0x37A PUSH2 0x207D JUMP JUMPDEST PUSH2 0x38F PUSH2 0x602 CALLDATASIZE PUSH1 0x4 PUSH2 0x3887 JUMP JUMPDEST PUSH1 0x0 SWAP2 DUP3 MSTORE PUSH1 0x4 PUSH1 0x20 SWAP1 DUP2 MSTORE PUSH1 0x40 DUP1 DUP5 KECCAK256 PUSH1 0x1 PUSH1 0x1 PUSH1 0xA0 SHL SUB SWAP4 SWAP1 SWAP4 AND DUP5 MSTORE SWAP2 SWAP1 MSTORE SWAP1 KECCAK256 SLOAD SWAP1 JUMP JUMPDEST PUSH2 0x37A PUSH2 0x638 CALLDATASIZE PUSH1 0x4 PUSH2 0x3887 JUMP JUMPDEST PUSH2 0x2091 JUMP JUMPDEST PUSH2 0x504 PUSH2 0x64B CALLDATASIZE PUSH1 0x4 PUSH2 0x386E JUMP JUMPDEST PUSH1 0x0 SWAP1 DUP2 MSTORE PUSH1 0x1 PUSH1 0x20 MSTORE PUSH1 0x40 SWAP1 KECCAK256 PUSH1 0xA ADD SLOAD PUSH2 0x100 SWAP1 DIV PUSH1 0xFF AND SWAP1 JUMP JUMPDEST PUSH2 0x57B PUSH2 0x676 CALLDATASIZE PUSH1 0x4 PUSH2 0x3887 JUMP JUMPDEST PUSH2 0x2115 JUMP JUMPDEST PUSH2 0x504 PUSH2 0x689 CALLDATASIZE PUSH1 0x4 PUSH2 0x37ED JUMP JUMPDEST PUSH2 0x2428 JUMP JUMPDEST PUSH2 0x38F PUSH2 0x69C CALLDATASIZE PUSH1 0x4 PUSH2 0x3887 JUMP JUMPDEST PUSH1 0x0 SWAP2 DUP3 MSTORE PUSH1 0x4 PUSH1 0x20 SWAP1 DUP2 MSTORE PUSH1 0x40 DUP1 DUP5 KECCAK256 PUSH1 0x1 PUSH1 0x1 PUSH1 0xA0 SHL SUB SWAP4 SWAP1 SWAP4 AND DUP5 MSTORE SWAP2 SWAP1 MSTORE SWAP1 KECCAK256 PUSH1 0x1 ADD SLOAD SWAP1 JUMP JUMPDEST PUSH2 0x504 PUSH2 0x6D5 CALLDATASIZE PUSH1 0x4 PUSH2 0x39C8 JUMP JUMPDEST PUSH2 0x24B0 JUMP JUMPDEST PUSH2 0x6ED PUSH2 0x6E8 CALLDATASIZE PUSH1 0x4 PUSH2 0x38AA JUMP JUMPDEST PUSH2 0x24FA JUMP JUMPDEST PUSH1 0x40 MLOAD PUSH2 0x399 SWAP3 SWAP2 SWAP1 PUSH2 0x3D12 JUMP JUMPDEST PUSH1 0x0 SLOAD PUSH1 0x1 PUSH1 0x1 PUSH1 0xA0 SHL SUB AND PUSH2 0x550 JUMP JUMPDEST PUSH2 0x37A PUSH2 0x71A CALLDATASIZE PUSH1 0x4 PUSH2 0x3887 JUMP JUMPDEST PUSH2 0x2837 JUMP JUMPDEST PUSH2 0x504 PUSH2 0x72D CALLDATASIZE PUSH1 0x4 PUSH2 0x386E JUMP JUMPDEST PUSH1 0x0 SWAP1 DUP2 MSTORE PUSH1 0x1 PUSH1 0x20 MSTORE PUSH1 0x40 SWAP1 KECCAK256 PUSH1 0x13 ADD SLOAD PUSH1 0xFF AND SWAP1 JUMP JUMPDEST PUSH2 0x758 PUSH2 0x753 CALLDATASIZE PUSH1 0x4 PUSH2 0x386E JUMP JUMPDEST PUSH2 0x28BB JUMP JUMPDEST PUSH1 0x40 MLOAD PUSH2 0x399 SWAP2 SWAP1 PUSH2 0x3CEC JUMP JUMPDEST PUSH2 0x37A PUSH2 0x773 CALLDATASIZE PUSH1 0x4 PUSH2 0x3887 JUMP JUMPDEST PUSH2 0x292A JUMP JUMPDEST PUSH2 0x37A PUSH2 0x786 CALLDATASIZE PUSH1 0x4 PUSH2 0x38E6 JUMP JUMPDEST PUSH2 0x29CB JUMP JUMPDEST PUSH2 0x38F PUSH2 0x799 CALLDATASIZE PUSH1 0x4 PUSH2 0x3820 JUMP JUMPDEST PUSH2 0x2A55 JUMP JUMPDEST PUSH1 0x5 SLOAD PUSH2 0x38F JUMP JUMPDEST PUSH2 0x37A PUSH2 0x7B4 CALLDATASIZE PUSH1 0x4 PUSH2 0x37A8 JUMP JUMPDEST PUSH2 0x2D7D JUMP JUMPDEST PUSH2 0x7CC PUSH2 0x7C7 CALLDATASIZE PUSH1 0x4 PUSH2 0x3A66 JUMP JUMPDEST PUSH2 0x2DB4 JUMP JUMPDEST PUSH1 0x40 MLOAD PUSH2 0x399 SWAP2 SWAP1 PUSH2 0x3D34 JUMP JUMPDEST PUSH2 0x758 PUSH2 0x7E7 CALLDATASIZE PUSH1 0x4 PUSH2 0x386E JUMP JUMPDEST PUSH2 0x2DF5 JUMP JUMPDEST PUSH2 0x37A PUSH2 0x7FA CALLDATASIZE PUSH1 0x4 PUSH2 0x39C8 JUMP JUMPDEST PUSH2 0x2E62 JUMP JUMPDEST PUSH2 0x37A PUSH2 0x80D CALLDATASIZE PUSH1 0x4 PUSH2 0x3887 JUMP JUMPDEST PUSH2 0x2EDF JUMP JUMPDEST PUSH2 0x37A PUSH2 0x820 CALLDATASIZE PUSH1 0x4 PUSH2 0x386E JUMP JUMPDEST PUSH2 0x2F63 JUMP JUMPDEST PUSH2 0x37A PUSH2 0x833 CALLDATASIZE PUSH1 0x4 PUSH2 0x3A88 JUMP JUMPDEST PUSH2 0x2FD3 JUMP JUMPDEST PUSH2 0x38F PUSH2 0x846 CALLDATASIZE PUSH1 0x4 PUSH2 0x386E JUMP JUMPDEST PUSH1 0x0 SWAP1 DUP2 MSTORE PUSH1 0x1 PUSH1 0x20 MSTORE PUSH1 0x40 SWAP1 KECCAK256 PUSH1 0xD ADD SLOAD SWAP1 JUMP JUMPDEST PUSH2 0x38F PUSH2 0x869 CALLDATASIZE PUSH1 0x4 PUSH2 0x37A8 JUMP JUMPDEST PUSH1 0x1 PUSH1 0x1 PUSH1 0xA0 SHL SUB AND PUSH1 0x0 SWAP1 DUP2 MSTORE PUSH1 0x2 PUSH1 0x20 MSTORE PUSH1 0x40 SWAP1 KECCAK256 SLOAD SWAP1 JUMP JUMPDEST PUSH2 0x38F PUSH2 0x892 CALLDATASIZE PUSH1 0x4 PUSH2 0x3A66 JUMP JUMPDEST PUSH2 0x3065 JUMP JUMPDEST PUSH2 0x37A PUSH2 0x8A5 CALLDATASIZE PUSH1 0x4 PUSH2 0x37A8 JUMP JUMPDEST PUSH2 0x30A2 JUMP JUMPDEST PUSH2 0x38F PUSH2 0x8B8 CALLDATASIZE PUSH1 0x4 PUSH2 0x386E JUMP JUMPDEST PUSH1 0x0 SWAP1 DUP2 MSTORE PUSH1 0x1 PUSH1 0x20 MSTORE PUSH1 0x40 SWAP1 KECCAK256 PUSH1 0xE ADD SLOAD SWAP1 JUMP JUMPDEST PUSH2 0x8F9 PUSH2 0x8DB CALLDATASIZE PUSH1 0x4 PUSH2 0x386E JUMP JUMPDEST PUSH1 0x0 SWAP1 DUP2 MSTORE PUSH1 0x1 PUSH1 0x20 MSTORE PUSH1 0x40 SWAP1 KECCAK256 PUSH1 0x13 ADD SLOAD PUSH3 0x10000 SWAP1 DIV PUSH1 0xFF AND SWAP1 JUMP JUMPDEST PUSH1 0x40 MLOAD PUSH2 0x399 SWAP2 SWAP1 PUSH2 0x3D42 JUMP JUMPDEST PUSH1 0x6 SLOAD PUSH1 0x1 PUSH1 0x1 PUSH1 0xA0 SHL SUB AND CALLER EQ PUSH2 0x95E JUMPI PUSH1 0x40 MLOAD PUSH4 0x48E2D49 PUSH1 0xE4 SHL DUP2 MSTORE PUSH1 0x20 PUSH1 0x4 DUP3 ADD MSTORE PUSH1 0x15 PUSH1 0x24 DUP3 ADD MSTORE PUSH21 0x4572726F7220416363657373204164647265737321 PUSH1 0x58 SHL PUSH1 0x44 DUP3 ADD MSTORE PUSH1 0x64 ADD JUMPDEST PUSH1 0x40 MLOAD DUP1 SWAP2 SUB SWAP1 REVERT JUMPDEST PUSH1 0x0 DUP3 DUP2 MSTORE PUSH1 0x4 PUSH1 0x20 SWAP1 DUP2 MSTORE PUSH1 0x40 DUP1 DUP4 KECCAK256 PUSH1 0x1 PUSH1 0x1 PUSH1 0xA0 SHL SUB DUP6 AND DUP5 MSTORE SWAP1 SWAP2 MSTORE DUP2 KECCAK256 PUSH1 0x1 ADD DUP1 SLOAD SWAP2 PUSH2 0x98F DUP4 PUSH2 0x412A JUMP JUMPDEST SWAP2 SWAP1 POP SSTORE POP POP POP JUMP JUMPDEST PUSH1 0x6 SLOAD PUSH1 0x0 SWAP1 PUSH1 0x1 PUSH1 0x1 PUSH1 0xA0 SHL SUB AND CALLER EQ PUSH2 0x9EE JUMPI PUSH1 0x40 MLOAD PUSH4 0x48E2D49 PUSH1 0xE4 SHL DUP2 MSTORE PUSH1 0x20 PUSH1 0x4 DUP3 ADD MSTORE PUSH1 0x15 PUSH1 0x24 DUP3 ADD MSTORE PUSH21 0x4572726F7220416363657373204164647265737321 PUSH1 0x58 SHL PUSH1 0x44 DUP3 ADD MSTORE PUSH1 0x64 ADD PUSH2 0x955 JUMP JUMPDEST PUSH1 0x0 DUP6 DUP2 MSTORE PUSH1 0x1 PUSH1 0x20 MSTORE PUSH1 0x40 SWAP1 KECCAK256 PUSH1 0xC ADD DUP1 SLOAD TIMESTAMP SWAP2 DUP3 SWAP2 DUP7 SWAP1 DUP2 LT PUSH2 0xA15 JUMPI PUSH2 0xA15 PUSH2 0x4171 JUMP JUMPDEST PUSH1 0x0 SWAP2 DUP3 MSTORE PUSH1 0x20 DUP1 DUP4 KECCAK256 PUSH1 0xA PUSH1 0xB SWAP1 SWAP4 MUL ADD SWAP2 SWAP1 SWAP2 ADD SWAP3 SWAP1 SWAP3 SSTORE DUP8 DUP2 MSTORE PUSH1 0x4 DUP3 MSTORE PUSH1 0x40 DUP1 DUP3 KECCAK256 PUSH1 0x1 PUSH1 0x1 PUSH1 0xA0 SHL SUB DUP10 AND DUP4 MSTORE DUP4 MSTORE DUP1 DUP3 KECCAK256 DUP8 DUP4 MSTORE PUSH1 0x2 ADD DUP4 MSTORE SWAP1 KECCAK256 DUP5 MLOAD PUSH2 0xA6A SWAP3 PUSH1 0x1 SWAP1 SWAP3 ADD SWAP2 DUP7 ADD SWAP1 PUSH2 0x321D JUMP JUMPDEST POP SWAP6 SWAP5 POP POP POP POP POP JUMP JUMPDEST PUSH1 0x60 PUSH1 0x1 PUSH1 0x0 DUP4 DUP2 MSTORE PUSH1 0x20 ADD SWAP1 DUP2 MSTORE PUSH1 0x20 ADD PUSH1 0x0 KECCAK256 PUSH1 0xC ADD DUP1 SLOAD DUP1 PUSH1 0x20 MUL PUSH1 0x20 ADD PUSH1 0x40 MLOAD SWAP1 DUP2 ADD PUSH1 0x40 MSTORE DUP1 SWAP3 SWAP2 SWAP1 DUP2 DUP2 MSTORE PUSH1 0x20 ADD PUSH1 0x0 SWAP1 JUMPDEST DUP3 DUP3 LT ISZERO PUSH2 0xD1A JUMPI PUSH1 0x0 DUP5 DUP2 MSTORE PUSH1 0x20 SWAP1 KECCAK256 PUSH1 0x40 DUP1 MLOAD PUSH2 0x180 DUP2 ADD SWAP1 SWAP2 MSTORE PUSH1 0xB DUP5 MUL SWAP1 SWAP2 ADD DUP1 SLOAD DUP3 SWAP1 PUSH1 0xA0 DUP3 ADD SWAP1 DUP4 SWAP1 DUP3 SWAP1 DUP3 SWAP1 PUSH2 0xAE8 SWAP1 PUSH2 0x40EF JUMP JUMPDEST DUP1 PUSH1 0x1F ADD PUSH1 0x20 DUP1 SWAP2 DIV MUL PUSH1 0x20 ADD PUSH1 0x40 MLOAD SWAP1 DUP2 ADD PUSH1 0x40 MSTORE DUP1 SWAP3 SWAP2 SWAP1 DUP2 DUP2 MSTORE PUSH1 0x20 ADD DUP3 DUP1 SLOAD PUSH2 0xB14 SWAP1 PUSH2 0x40EF JUMP JUMPDEST DUP1 ISZERO PUSH2 0xB61 JUMPI DUP1 PUSH1 0x1F LT PUSH2 0xB36 JUMPI PUSH2 0x100 DUP1 DUP4 SLOAD DIV MUL DUP4 MSTORE SWAP2 PUSH1 0x20 ADD SWAP2 PUSH2 0xB61 JUMP JUMPDEST DUP3 ADD SWAP2 SWAP1 PUSH1 0x0 MSTORE PUSH1 0x20 PUSH1 0x0 KECCAK256 SWAP1 JUMPDEST DUP2 SLOAD DUP2 MSTORE SWAP1 PUSH1 0x1 ADD SWAP1 PUSH1 0x20 ADD DUP1 DUP4 GT PUSH2 0xB44 JUMPI DUP3 SWAP1 SUB PUSH1 0x1F AND DUP3 ADD SWAP2 JUMPDEST POP POP POP POP POP DUP2 MSTORE PUSH1 0x20 ADD PUSH1 0x1 DUP3 ADD SLOAD DUP2 MSTORE PUSH1 0x20 ADD PUSH1 0x2 DUP3 ADD SLOAD DUP2 MSTORE PUSH1 0x20 ADD PUSH1 0x3 DUP3 ADD SLOAD DUP2 MSTORE PUSH1 0x20 ADD PUSH1 0x4 DUP3 ADD SLOAD DUP2 MSTORE PUSH1 0x20 ADD PUSH1 0x5 DUP3 ADD SLOAD DUP2 MSTORE PUSH1 0x20 ADD PUSH1 0x6 DUP3 ADD DUP1 SLOAD PUSH2 0xBAC SWAP1 PUSH2 0x40EF JUMP JUMPDEST DUP1 PUSH1 0x1F ADD PUSH1 0x20 DUP1 SWAP2 DIV MUL PUSH1 0x20 ADD PUSH1 0x40 MLOAD SWAP1 DUP2 ADD PUSH1 0x40 MSTORE DUP1 SWAP3 SWAP2 SWAP1 DUP2 DUP2 MSTORE PUSH1 0x20 ADD DUP3 DUP1 SLOAD PUSH2 0xBD8 SWAP1 PUSH2 0x40EF JUMP JUMPDEST DUP1 ISZERO PUSH2 0xC25 JUMPI DUP1 PUSH1 0x1F LT PUSH2 0xBFA JUMPI PUSH2 0x100 DUP1 DUP4 SLOAD DIV MUL DUP4 MSTORE SWAP2 PUSH1 0x20 ADD SWAP2 PUSH2 0xC25 JUMP JUMPDEST DUP3 ADD SWAP2 SWAP1 PUSH1 0x0 MSTORE PUSH1 0x20 PUSH1 0x0 KECCAK256 SWAP1 JUMPDEST DUP2 SLOAD DUP2 MSTORE SWAP1 PUSH1 0x1 ADD SWAP1 PUSH1 0x20 ADD DUP1 DUP4 GT PUSH2 0xC08 JUMPI DUP3 SWAP1 SUB PUSH1 0x1F AND DUP3 ADD SWAP2 JUMPDEST POP POP POP POP POP DUP2 MSTORE POP POP DUP2 MSTORE PUSH1 0x20 ADD PUSH1 0x7 DUP3 ADD SLOAD DUP2 MSTORE PUSH1 0x20 ADD PUSH1 0x8 DUP3 ADD DUP1 SLOAD PUSH2 0xC4C SWAP1 PUSH2 0x40EF JUMP JUMPDEST DUP1 PUSH1 0x1F ADD PUSH1 0x20 DUP1 SWAP2 DIV MUL PUSH1 0x20 ADD PUSH1 0x40 MLOAD SWAP1 DUP2 ADD PUSH1 0x40 MSTORE DUP1 SWAP3 SWAP2 SWAP1 DUP2 DUP2 MSTORE PUSH1 0x20 ADD DUP3 DUP1 SLOAD PUSH2 0xC78 SWAP1 PUSH2 0x40EF JUMP JUMPDEST DUP1 ISZERO PUSH2 0xCC5 JUMPI DUP1 PUSH1 0x1F LT PUSH2 0xC9A JUMPI PUSH2 0x100 DUP1 DUP4 SLOAD DIV MUL DUP4 MSTORE SWAP2 PUSH1 0x20 ADD SWAP2 PUSH2 0xCC5 JUMP JUMPDEST DUP3 ADD SWAP2 SWAP1 PUSH1 0x0 MSTORE PUSH1 0x20 PUSH1 0x0 KECCAK256 SWAP1 JUMPDEST DUP2 SLOAD DUP2 MSTORE SWAP1 PUSH1 0x1 ADD SWAP1 PUSH1 0x20 ADD DUP1 DUP4 GT PUSH2 0xCA8 JUMPI DUP3 SWAP1 SUB PUSH1 0x1F AND DUP3 ADD SWAP2 JUMPDEST POP POP POP SWAP2 DUP4 MSTORE POP POP PUSH1 0x9 DUP3 ADD SLOAD PUSH1 0x20 SWAP1 SWAP2 ADD SWAP1 PUSH1 0xFF AND PUSH1 0xB DUP2 GT ISZERO PUSH2 0xCEC JUMPI PUSH2 0xCEC PUSH2 0x415B JUMP JUMPDEST PUSH1 0xB DUP2 GT ISZERO PUSH2 0xCFD JUMPI PUSH2 0xCFD PUSH2 0x415B JUMP JUMPDEST DUP2 MSTORE PUSH1 0x20 ADD PUSH1 0xA DUP3 ADD SLOAD DUP2 MSTORE POP POP DUP2 MSTORE PUSH1 0x20 ADD SWAP1 PUSH1 0x1 ADD SWAP1 PUSH2 0xAAC JUMP JUMPDEST POP POP POP POP SWAP1 POP SWAP2 SWAP1 POP JUMP JUMPDEST PUSH1 0x6 SLOAD PUSH1 0x1 PUSH1 0x1 PUSH1 0xA0 SHL SUB AND CALLER EQ PUSH2 0xD78 JUMPI PUSH1 0x40 MLOAD PUSH4 0x48E2D49 PUSH1 0xE4 SHL DUP2 MSTORE PUSH1 0x20 PUSH1 0x4 DUP3 ADD MSTORE PUSH1 0x15 PUSH1 0x24 DUP3 ADD MSTORE PUSH21 0x4572726F7220416363657373204164647265737321 PUSH1 0x58 SHL PUSH1 0x44 DUP3 ADD MSTORE PUSH1 0x64 ADD PUSH2 0x955 JUMP JUMPDEST PUSH1 0x1 PUSH1 0x1 PUSH1 0xA0 SHL SUB DUP3 AND PUSH1 0x0 SWAP1 DUP2 MSTORE PUSH1 0x2 PUSH1 0x20 MSTORE PUSH1 0x40 DUP2 KECCAK256 DUP1 SLOAD DUP4 SWAP3 SWAP1 PUSH2 0xDA0 SWAP1 DUP5 SWAP1 PUSH2 0x40A9 JUMP JUMPDEST SWAP1 SWAP2 SSTORE POP POP POP POP JUMP JUMPDEST PUSH1 0x6 SLOAD PUSH1 0x1 PUSH1 0x1 PUSH1 0xA0 SHL SUB AND CALLER EQ PUSH2 0xDFC JUMPI PUSH1 0x40 MLOAD PUSH4 0x48E2D49 PUSH1 0xE4 SHL DUP2 MSTORE PUSH1 0x20 PUSH1 0x4 DUP3 ADD MSTORE PUSH1 0x15 PUSH1 0x24 DUP3 ADD MSTORE PUSH21 0x4572726F7220416363657373204164647265737321 PUSH1 0x58 SHL PUSH1 0x44 DUP3 ADD MSTORE PUSH1 0x64 ADD PUSH2 0x955 JUMP JUMPDEST PUSH1 0x0 DUP3 DUP2 MSTORE PUSH1 0x1 PUSH1 0x20 MSTORE PUSH1 0x40 SWAP1 KECCAK256 PUSH1 0x13 ADD DUP1 SLOAD DUP3 SWAP2 SWAP1 PUSH32 0xFFFFFFFFFFFFFFFFFFFFFFFFFFFFFFFFFFFFFFFFFFFFFFFFFFFFFFFFFF00FFFF AND PUSH3 0x10000 DUP4 PUSH1 0x7 DUP2 GT ISZERO PUSH2 0xE4A JUMPI PUSH2 0xE4A PUSH2 0x415B JUMP JUMPDEST MUL OR SWAP1 SSTORE POP POP POP JUMP JUMPDEST PUSH1 0x0 DUP3 DUP2 MSTORE PUSH1 0x3 PUSH1 0x20 SWAP1 DUP2 MSTORE PUSH1 0x40 DUP1 DUP4 KECCAK256 PUSH1 0x1 PUSH1 0x1 PUSH1 0xA0 SHL SUB DUP6 AND DUP5 MSTORE SWAP1 SWAP2 MSTORE SWAP1 KECCAK256 SLOAD JUMPDEST SWAP3 SWAP2 POP POP JUMP JUMPDEST PUSH1 0x6 SLOAD PUSH1 0x1 PUSH1 0x1 PUSH1 0xA0 SHL SUB AND CALLER EQ PUSH2 0xED0 JUMPI PUSH1 0x40 MLOAD PUSH4 0x48E2D49 PUSH1 0xE4 SHL DUP2 MSTORE PUSH1 0x20 PUSH1 0x4 DUP3 ADD MSTORE PUSH1 0x15 PUSH1 0x24 DUP3 ADD MSTORE PUSH21 0x4572726F7220416363657373204164647265737321 PUSH1 0x58 SHL PUSH1 0x44 DUP3 ADD MSTORE PUSH1 0x64 ADD PUSH2 0x955 JUMP JUMPDEST PUSH1 0x0 DUP5 DUP2 MSTORE PUSH1 0x3 PUSH1 0x20 SWAP1 DUP2 MSTORE PUSH1 0x40 DUP1 DUP4 KECCAK256 PUSH1 0x1 PUSH1 0x1 PUSH1 0xA0 SHL SUB DUP8 AND DUP5 MSTORE DUP3 MSTORE DUP1 DUP4 KECCAK256 DUP6 DUP5 MSTORE PUSH1 0x2 ADD SWAP1 SWAP2 MSTORE SWAP1 KECCAK256 DUP1 SLOAD DUP3 SWAP2 SWAP1 PUSH1 0xFF NOT AND PUSH1 0x1 DUP4 PUSH1 0x4 DUP2 GT ISZERO PUSH2 0xF1A JUMPI PUSH2 0xF1A PUSH2 0x415B JUMP JUMPDEST MUL OR SWAP1 SSTORE POP POP POP POP POP JUMP JUMPDEST PUSH1 0x6 SLOAD PUSH1 0x1 PUSH1 0x1 PUSH1 0xA0 SHL SUB AND CALLER EQ PUSH2 0xF78 JUMPI PUSH1 0x40 MLOAD PUSH4 0x48E2D49 PUSH1 0xE4 SHL DUP2 MSTORE PUSH1 0x20 PUSH1 0x4 DUP3 ADD MSTORE PUSH1 0x15 PUSH1 0x24 DUP3 ADD MSTORE PUSH21 0x4572726F7220416363657373204164647265737321 PUSH1 0x58 SHL PUSH1 0x44 DUP3 ADD MSTORE PUSH1 0x64 ADD PUSH2 0x955 JUMP JUMPDEST PUSH1 0x0 DUP3 DUP2 MSTORE PUSH1 0x1 PUSH1 0x20 DUP2 DUP2 MSTORE PUSH1 0x40 SWAP1 SWAP3 KECCAK256 DUP4 MLOAD SWAP2 DUP2 ADD SWAP2 SWAP1 SWAP2 SSTORE DUP3 DUP3 ADD MLOAD DUP1 MLOAD SWAP2 SWAP3 PUSH2 0xFAC SWAP3 PUSH1 0x2 DUP6 ADD SWAP3 SWAP1 SWAP2 ADD SWAP1 PUSH2 0x321D JUMP JUMPDEST POP PUSH1 0x40 DUP3 ADD MLOAD DUP1 MLOAD PUSH2 0xFC8 SWAP2 PUSH1 0x3 DUP5 ADD SWAP2 PUSH1 0x20 SWAP1 SWAP2 ADD SWAP1 PUSH2 0x321D JUMP JUMPDEST POP PUSH1 0x60 DUP3 ADD MLOAD PUSH1 0x4 DUP3 ADD SSTORE PUSH1 0x80 DUP3 ADD MLOAD PUSH1 0x5 DUP3 ADD SSTORE PUSH1 0xA0 DUP3 ADD MLOAD PUSH1 0x6 DUP3 ADD SSTORE PUSH1 0xC0 DUP3 ADD MLOAD DUP1 MLOAD PUSH2 0x1002 SWAP2 PUSH1 0x7 DUP5 ADD SWAP2 PUSH1 0x20 SWAP1 SWAP2 ADD SWAP1 PUSH2 0x32A1 JUMP JUMPDEST POP PUSH1 0xE0 DUP3 ADD MLOAD PUSH1 0x8 DUP3 ADD SSTORE PUSH2 0x100 DUP1 DUP4 ADD MLOAD PUSH1 0x9 DUP4 ADD SSTORE PUSH2 0x160 DUP4 ADD MLOAD PUSH1 0xB DUP4 ADD SSTORE PUSH2 0x120 DUP4 ADD MLOAD PUSH1 0xA DUP4 ADD DUP1 SLOAD PUSH2 0x140 DUP7 ADD MLOAD ISZERO DUP1 ISZERO SWAP1 SWAP5 MUL PUSH2 0xFF00 NOT SWAP4 ISZERO ISZERO SWAP4 SWAP1 SWAP4 AND PUSH2 0xFFFF NOT SWAP1 SWAP2 AND OR SWAP2 SWAP1 SWAP2 OR SWAP1 SSTORE PUSH2 0x106A JUMPI PUSH2 0x180 DUP3 ADD MLOAD MLOAD PUSH1 0xF DUP3 ADD SSTORE PUSH2 0x1072 JUMP JUMPDEST PUSH1 0x1 PUSH1 0xF DUP3 ADD SSTORE JUMPDEST PUSH1 0x13 DUP2 ADD DUP1 SLOAD PUSH1 0xFF NOT AND PUSH1 0x1 OR SWAP1 SSTORE PUSH1 0x0 JUMPDEST DUP3 PUSH2 0x180 ADD MLOAD MLOAD DUP2 LT ISZERO PUSH2 0x11A3 JUMPI DUP2 PUSH1 0xC ADD DUP4 PUSH2 0x180 ADD MLOAD DUP3 DUP2 MLOAD DUP2 LT PUSH2 0x10AD JUMPI PUSH2 0x10AD PUSH2 0x4171 JUMP JUMPDEST PUSH1 0x20 SWAP1 DUP2 MUL SWAP2 SWAP1 SWAP2 ADD DUP2 ADD MLOAD DUP3 SLOAD PUSH1 0x1 DUP2 ADD DUP5 SSTORE PUSH1 0x0 SWAP4 DUP5 MSTORE SWAP3 DUP3 SWAP1 KECCAK256 DUP2 MLOAD DUP1 MLOAD DUP1 MLOAD SWAP4 SWAP6 PUSH1 0xB MUL SWAP1 SWAP3 ADD SWAP4 SWAP1 SWAP3 DUP5 SWAP3 PUSH2 0x10EB SWAP3 DUP5 SWAP3 SWAP2 ADD SWAP1 PUSH2 0x321D JUMP JUMPDEST POP PUSH1 0x20 DUP3 DUP2 ADD MLOAD PUSH1 0x1 DUP4 ADD SSTORE PUSH1 0x40 DUP4 ADD MLOAD PUSH1 0x2 DUP4 ADD SSTORE PUSH1 0x60 DUP4 ADD MLOAD PUSH1 0x3 DUP4 ADD SSTORE PUSH1 0x80 DUP4 ADD MLOAD PUSH1 0x4 DUP4 ADD SSTORE PUSH1 0xA0 DUP4 ADD MLOAD PUSH1 0x5 DUP4 ADD SSTORE PUSH1 0xC0 DUP4 ADD MLOAD DUP1 MLOAD PUSH2 0x1136 SWAP3 PUSH1 0x6 DUP6 ADD SWAP3 ADD SWAP1 PUSH2 0x321D JUMP JUMPDEST POP POP POP PUSH1 0x20 DUP3 DUP2 ADD MLOAD PUSH1 0x7 DUP4 ADD SSTORE PUSH1 0x40 DUP4 ADD MLOAD DUP1 MLOAD PUSH2 0x115B SWAP3 PUSH1 0x8 DUP6 ADD SWAP3 ADD SWAP1 PUSH2 0x321D JUMP JUMPDEST POP PUSH1 0x60 DUP3 ADD MLOAD PUSH1 0x9 DUP3 ADD DUP1 SLOAD PUSH1 0xFF NOT AND PUSH1 0x1 DUP4 PUSH1 0xB DUP2 GT ISZERO PUSH2 0x117F JUMPI PUSH2 0x117F PUSH2 0x415B JUMP JUMPDEST MUL OR SWAP1 SSTORE POP PUSH1 0x80 DUP3 ADD MLOAD DUP2 PUSH1 0xA ADD SSTORE POP POP DUP1 DUP1 PUSH2 0x119B SWAP1 PUSH2 0x412A JUMP JUMPDEST SWAP2 POP POP PUSH2 0x1084 JUMP JUMPDEST POP POP POP POP JUMP JUMPDEST PUSH1 0x6 SLOAD PUSH1 0x1 PUSH1 0x1 PUSH1 0xA0 SHL SUB AND CALLER EQ PUSH2 0x11FC JUMPI PUSH1 0x40 MLOAD PUSH4 0x48E2D49 PUSH1 0xE4 SHL DUP2 MSTORE PUSH1 0x20 PUSH1 0x4 DUP3 ADD MSTORE PUSH1 0x15 PUSH1 0x24 DUP3 ADD MSTORE PUSH21 0x4572726F7220416363657373204164647265737321 PUSH1 0x58 SHL PUSH1 0x44 DUP3 ADD MSTORE PUSH1 0x64 ADD PUSH2 0x955 JUMP JUMPDEST PUSH1 0x0 DUP4 DUP2 MSTORE PUSH1 0x1 PUSH1 0x20 MSTORE PUSH1 0x40 SWAP1 KECCAK256 PUSH1 0xC ADD DUP1 SLOAD DUP3 SWAP2 SWAP1 DUP5 SWAP1 DUP2 LT PUSH2 0x1222 JUMPI PUSH2 0x1222 PUSH2 0x4171 JUMP JUMPDEST SWAP1 PUSH1 0x0 MSTORE PUSH1 0x20 PUSH1 0x0 KECCAK256 SWAP1 PUSH1 0xB MUL ADD PUSH1 0x9 ADD PUSH1 0x0 PUSH2 0x100 EXP DUP2 SLOAD DUP2 PUSH1 0xFF MUL NOT AND SWAP1 DUP4 PUSH1 0xB DUP2 GT ISZERO PUSH2 0x1254 JUMPI PUSH2 0x1254 PUSH2 0x415B JUMP JUMPDEST MUL OR SWAP1 SSTORE POP POP POP POP JUMP JUMPDEST PUSH2 0x1266 PUSH2 0x32DB JUMP JUMPDEST PUSH1 0x0 DUP3 DUP2 MSTORE PUSH1 0x1 PUSH1 0x20 DUP2 DUP2 MSTORE PUSH1 0x40 SWAP3 DUP4 SWAP1 KECCAK256 DUP4 MLOAD PUSH2 0x2E0 DUP2 ADD DUP6 MSTORE DUP2 SLOAD PUSH1 0x1 PUSH1 0x1 PUSH1 0xA0 SHL SUB AND DUP2 MSTORE SWAP3 DUP2 ADD SLOAD SWAP2 DUP4 ADD SWAP2 SWAP1 SWAP2 MSTORE PUSH1 0x2 DUP2 ADD DUP1 SLOAD SWAP3 SWAP4 SWAP2 SWAP3 SWAP2 DUP5 ADD SWAP2 PUSH2 0x12B0 SWAP1 PUSH2 0x40EF JUMP JUMPDEST DUP1 PUSH1 0x1F ADD PUSH1 0x20 DUP1 SWAP2 DIV MUL PUSH1 0x20 ADD PUSH1 0x40 MLOAD SWAP1 DUP2 ADD PUSH1 0x40 MSTORE DUP1 SWAP3 SWAP2 SWAP1 DUP2 DUP2 MSTORE PUSH1 0x20 ADD DUP3 DUP1 SLOAD PUSH2 0x12DC SWAP1 PUSH2 0x40EF JUMP JUMPDEST DUP1 ISZERO PUSH2 0x1329 JUMPI DUP1 PUSH1 0x1F LT PUSH2 0x12FE JUMPI PUSH2 0x100 DUP1 DUP4 SLOAD DIV MUL DUP4 MSTORE SWAP2 PUSH1 0x20 ADD SWAP2 PUSH2 0x1329 JUMP JUMPDEST DUP3 ADD SWAP2 SWAP1 PUSH1 0x0 MSTORE PUSH1 0x20 PUSH1 0x0 KECCAK256 SWAP1 JUMPDEST DUP2 SLOAD DUP2 MSTORE SWAP1 PUSH1 0x1 ADD SWAP1 PUSH1 0x20 ADD DUP1 DUP4 GT PUSH2 0x130C JUMPI DUP3 SWAP1 SUB PUSH1 0x1F AND DUP3 ADD SWAP2 JUMPDEST POP POP POP POP POP DUP2 MSTORE PUSH1 0x20 ADD PUSH1 0x3 DUP3 ADD DUP1 SLOAD PUSH2 0x1342 SWAP1 PUSH2 0x40EF JUMP JUMPDEST DUP1 PUSH1 0x1F ADD PUSH1 0x20 DUP1 SWAP2 DIV MUL PUSH1 0x20 ADD PUSH1 0x40 MLOAD SWAP1 DUP2 ADD PUSH1 0x40 MSTORE DUP1 SWAP3 SWAP2 SWAP1 DUP2 DUP2 MSTORE PUSH1 0x20 ADD DUP3 DUP1 SLOAD PUSH2 0x136E SWAP1 PUSH2 0x40EF JUMP JUMPDEST DUP1 ISZERO PUSH2 0x13BB JUMPI DUP1 PUSH1 0x1F LT PUSH2 0x1390 JUMPI PUSH2 0x100 DUP1 DUP4 SLOAD DIV MUL DUP4 MSTORE SWAP2 PUSH1 0x20 ADD SWAP2 PUSH2 0x13BB JUMP JUMPDEST DUP3 ADD SWAP2 SWAP1 PUSH1 0x0 MSTORE PUSH1 0x20 PUSH1 0x0 KECCAK256 SWAP1 JUMPDEST DUP2 SLOAD DUP2 MSTORE SWAP1 PUSH1 0x1 ADD SWAP1 PUSH1 0x20 ADD DUP1 DUP4 GT PUSH2 0x139E JUMPI DUP3 SWAP1 SUB PUSH1 0x1F AND DUP3 ADD SWAP2 JUMPDEST POP POP POP POP POP DUP2 MSTORE PUSH1 0x20 ADD PUSH1 0x4 DUP3 ADD SLOAD DUP2 MSTORE PUSH1 0x20 ADD PUSH1 0x5 DUP3 ADD SLOAD DUP2 MSTORE PUSH1 0x20 ADD PUSH1 0x6 DUP3 ADD SLOAD DUP2 MSTORE PUSH1 0x20 ADD PUSH1 0x7 DUP3 ADD DUP1 SLOAD DUP1 PUSH1 0x20 MUL PUSH1 0x20 ADD PUSH1 0x40 MLOAD SWAP1 DUP2 ADD PUSH1 0x40 MSTORE DUP1 SWAP3 SWAP2 SWAP1 DUP2 DUP2 MSTORE PUSH1 0x20 ADD DUP3 DUP1 SLOAD DUP1 ISZERO PUSH2 0x1431 JUMPI PUSH1 0x20 MUL DUP3 ADD SWAP2 SWAP1 PUSH1 0x0 MSTORE PUSH1 0x20 PUSH1 0x0 KECCAK256 SWAP1 JUMPDEST DUP2 SLOAD DUP2 MSTORE PUSH1 0x20 ADD SWAP1 PUSH1 0x1 ADD SWAP1 DUP1 DUP4 GT PUSH2 0x141D JUMPI JUMPDEST POP POP POP SWAP2 DUP4 MSTORE POP POP PUSH1 0x8 DUP3 ADD SLOAD PUSH1 0x20 DUP1 DUP4 ADD SWAP2 SWAP1 SWAP2 MSTORE PUSH1 0x9 DUP4 ADD SLOAD PUSH1 0x40 DUP1 DUP5 ADD SWAP2 SWAP1 SWAP2 MSTORE PUSH1 0xA DUP5 ADD SLOAD PUSH1 0xFF DUP1 DUP3 AND ISZERO ISZERO PUSH1 0x60 DUP7 ADD MSTORE PUSH2 0x100 SWAP1 SWAP2 DIV AND ISZERO ISZERO PUSH1 0x80 DUP5 ADD MSTORE PUSH1 0xB DUP5 ADD SLOAD PUSH1 0xA0 DUP5 ADD MSTORE PUSH1 0xC DUP5 ADD DUP1 SLOAD DUP3 MLOAD DUP2 DUP6 MUL DUP2 ADD DUP6 ADD SWAP1 SWAP4 MSTORE DUP1 DUP4 MSTORE PUSH1 0xC0 SWAP1 SWAP5 ADD SWAP4 SWAP2 SWAP3 SWAP1 SWAP2 SWAP1 PUSH1 0x0 SWAP1 DUP5 ADD JUMPDEST DUP3 DUP3 LT ISZERO PUSH2 0x1712 JUMPI PUSH1 0x0 DUP5 DUP2 MSTORE PUSH1 0x20 SWAP1 KECCAK256 PUSH1 0x40 DUP1 MLOAD PUSH2 0x180 DUP2 ADD SWAP1 SWAP2 MSTORE PUSH1 0xB DUP5 MUL SWAP1 SWAP2 ADD DUP1 SLOAD DUP3 SWAP1 PUSH1 0xA0 DUP3 ADD SWAP1 DUP4 SWAP1 DUP3 SWAP1 DUP3 SWAP1 PUSH2 0x14E0 SWAP1 PUSH2 0x40EF JUMP JUMPDEST DUP1 PUSH1 0x1F ADD PUSH1 0x20 DUP1 SWAP2 DIV MUL PUSH1 0x20 ADD PUSH1 0x40 MLOAD SWAP1 DUP2 ADD PUSH1 0x40 MSTORE DUP1 SWAP3 SWAP2 SWAP1 DUP2 DUP2 MSTORE PUSH1 0x20 ADD DUP3 DUP1 SLOAD PUSH2 0x150C SWAP1 PUSH2 0x40EF JUMP JUMPDEST DUP1 ISZERO PUSH2 0x1559 JUMPI DUP1 PUSH1 0x1F LT PUSH2 0x152E JUMPI PUSH2 0x100 DUP1 DUP4 SLOAD DIV MUL DUP4 MSTORE SWAP2 PUSH1 0x20 ADD SWAP2 PUSH2 0x1559 JUMP JUMPDEST DUP3 ADD SWAP2 SWAP1 PUSH1 0x0 MSTORE PUSH1 0x20 PUSH1 0x0 KECCAK256 SWAP1 JUMPDEST DUP2 SLOAD DUP2 MSTORE SWAP1 PUSH1 0x1 ADD SWAP1 PUSH1 0x20 ADD DUP1 DUP4 GT PUSH2 0x153C JUMPI DUP3 SWAP1 SUB PUSH1 0x1F AND DUP3 ADD SWAP2 JUMPDEST POP POP POP POP POP DUP2 MSTORE PUSH1 0x20 ADD PUSH1 0x1 DUP3 ADD SLOAD DUP2 MSTORE PUSH1 0x20 ADD PUSH1 0x2 DUP3 ADD SLOAD DUP2 MSTORE PUSH1 0x20 ADD PUSH1 0x3 DUP3 ADD SLOAD DUP2 MSTORE PUSH1 0x20 ADD PUSH1 0x4 DUP3 ADD SLOAD DUP2 MSTORE PUSH1 0x20 ADD PUSH1 0x5 DUP3 ADD SLOAD DUP2 MSTORE PUSH1 0x20 ADD PUSH1 0x6 DUP3 ADD DUP1 SLOAD PUSH2 0x15A4 SWAP1 PUSH2 0x40EF JUMP JUMPDEST DUP1 PUSH1 0x1F ADD PUSH1 0x20 DUP1 SWAP2 DIV MUL PUSH1 0x20 ADD PUSH1 0x40 MLOAD SWAP1 DUP2 ADD PUSH1 0x40 MSTORE DUP1 SWAP3 SWAP2 SWAP1 DUP2 DUP2 MSTORE PUSH1 0x20 ADD DUP3 DUP1 SLOAD PUSH2 0x15D0 SWAP1 PUSH2 0x40EF JUMP JUMPDEST DUP1 ISZERO PUSH2 0x161D JUMPI DUP1 PUSH1 0x1F LT PUSH2 0x15F2 JUMPI PUSH2 0x100 DUP1 DUP4 SLOAD DIV MUL DUP4 MSTORE SWAP2 PUSH1 0x20 ADD SWAP2 PUSH2 0x161D JUMP JUMPDEST DUP3 ADD SWAP2 SWAP1 PUSH1 0x0 MSTORE PUSH1 0x20 PUSH1 0x0 KECCAK256 SWAP1 JUMPDEST DUP2 SLOAD DUP2 MSTORE SWAP1 PUSH1 0x1 ADD SWAP1 PUSH1 0x20 ADD DUP1 DUP4 GT PUSH2 0x1600 JUMPI DUP3 SWAP1 SUB PUSH1 0x1F AND DUP3 ADD SWAP2 JUMPDEST POP POP POP POP POP DUP2 MSTORE POP POP DUP2 MSTORE PUSH1 0x20 ADD PUSH1 0x7 DUP3 ADD SLOAD DUP2 MSTORE PUSH1 0x20 ADD PUSH1 0x8 DUP3 ADD DUP1 SLOAD PUSH2 0x1644 SWAP1 PUSH2 0x40EF JUMP JUMPDEST DUP1 PUSH1 0x1F ADD PUSH1 0x20 DUP1 SWAP2 DIV MUL PUSH1 0x20 ADD PUSH1 0x40 MLOAD SWAP1 DUP2 ADD PUSH1 0x40 MSTORE DUP1 SWAP3 SWAP2 SWAP1 DUP2 DUP2 MSTORE PUSH1 0x20 ADD DUP3 DUP1 SLOAD PUSH2 0x1670 SWAP1 PUSH2 0x40EF JUMP JUMPDEST DUP1 ISZERO PUSH2 0x16BD JUMPI DUP1 PUSH1 0x1F LT PUSH2 0x1692 JUMPI PUSH2 0x100 DUP1 DUP4 SLOAD DIV MUL DUP4 MSTORE SWAP2 PUSH1 0x20 ADD SWAP2 PUSH2 0x16BD JUMP JUMPDEST DUP3 ADD SWAP2 SWAP1 PUSH1 0x0 MSTORE PUSH1 0x20 PUSH1 0x0 KECCAK256 SWAP1 JUMPDEST DUP2 SLOAD DUP2 MSTORE SWAP1 PUSH1 0x1 ADD SWAP1 PUSH1 0x20 ADD DUP1 DUP4 GT PUSH2 0x16A0 JUMPI DUP3 SWAP1 SUB PUSH1 0x1F AND DUP3 ADD SWAP2 JUMPDEST POP POP POP SWAP2 DUP4 MSTORE POP POP PUSH1 0x9 DUP3 ADD SLOAD PUSH1 0x20 SWAP1 SWAP2 ADD SWAP1 PUSH1 0xFF AND PUSH1 0xB DUP2 GT ISZERO PUSH2 0x16E4 JUMPI PUSH2 0x16E4 PUSH2 0x415B JUMP JUMPDEST PUSH1 0xB DUP2 GT ISZERO PUSH2 0x16F5 JUMPI PUSH2 0x16F5 PUSH2 0x415B JUMP JUMPDEST DUP2 MSTORE PUSH1 0x20 ADD PUSH1 0xA DUP3 ADD SLOAD DUP2 MSTORE POP POP DUP2 MSTORE PUSH1 0x20 ADD SWAP1 PUSH1 0x1 ADD SWAP1 PUSH2 0x14A4 JUMP JUMPDEST POP POP POP POP DUP2 MSTORE PUSH1 0x20 ADD PUSH1 0xD DUP3 ADD DUP1 SLOAD DUP1 PUSH1 0x20 MUL PUSH1 0x20 ADD PUSH1 0x40 MLOAD SWAP1 DUP2 ADD PUSH1 0x40 MSTORE DUP1 SWAP3 SWAP2 SWAP1 DUP2 DUP2 MSTORE PUSH1 0x20 ADD DUP3 DUP1 SLOAD DUP1 ISZERO PUSH2 0x1773 JUMPI PUSH1 0x20 MUL DUP3 ADD SWAP2 SWAP1 PUSH1 0x0 MSTORE PUSH1 0x20 PUSH1 0x0 KECCAK256 SWAP1 JUMPDEST DUP2 SLOAD PUSH1 0x1 PUSH1 0x1 PUSH1 0xA0 SHL SUB AND DUP2 MSTORE PUSH1 0x1 SWAP1 SWAP2 ADD SWAP1 PUSH1 0x20 ADD DUP1 DUP4 GT PUSH2 0x1755 JUMPI JUMPDEST POP POP POP POP POP DUP2 MSTORE PUSH1 0x20 ADD PUSH1 0xE DUP3 ADD DUP1 SLOAD DUP1 PUSH1 0x20 MUL PUSH1 0x20 ADD PUSH1 0x40 MLOAD SWAP1 DUP2 ADD PUSH1 0x40 MSTORE DUP1 SWAP3 SWAP2 SWAP1 DUP2 DUP2 MSTORE PUSH1 0x20 ADD DUP3 DUP1 SLOAD DUP1 ISZERO PUSH2 0x17D5 JUMPI PUSH1 0x20 MUL DUP3 ADD SWAP2 SWAP1 PUSH1 0x0 MSTORE PUSH1 0x20 PUSH1 0x0 KECCAK256 SWAP1 JUMPDEST DUP2 SLOAD PUSH1 0x1 PUSH1 0x1 PUSH1 0xA0 SHL SUB AND DUP2 MSTORE PUSH1 0x1 SWAP1 SWAP2 ADD SWAP1 PUSH1 0x20 ADD DUP1 DUP4 GT PUSH2 0x17B7 JUMPI JUMPDEST POP POP POP SWAP2 DUP4 MSTORE POP POP PUSH1 0xF DUP3 ADD SLOAD PUSH1 0x20 DUP3 ADD MSTORE PUSH1 0x10 DUP3 ADD SLOAD PUSH1 0x40 DUP3 ADD MSTORE PUSH1 0x11 DUP3 ADD SLOAD PUSH1 0x60 DUP3 ADD MSTORE PUSH1 0x12 DUP3 ADD SLOAD PUSH1 0x80 DUP3 ADD MSTORE PUSH1 0x13 DUP3 ADD SLOAD PUSH1 0xFF DUP1 DUP3 AND ISZERO ISZERO PUSH1 0xA0 DUP5 ADD MSTORE PUSH2 0x100 DUP3 DIV DUP2 AND ISZERO ISZERO PUSH1 0xC0 DUP5 ADD MSTORE PUSH1 0xE0 SWAP1 SWAP3 ADD SWAP2 PUSH3 0x10000 SWAP1 SWAP2 DIV AND PUSH1 0x7 DUP2 GT ISZERO PUSH2 0x1843 JUMPI PUSH2 0x1843 PUSH2 0x415B JUMP JUMPDEST PUSH1 0x7 DUP2 GT ISZERO PUSH2 0x1854 JUMPI PUSH2 0x1854 PUSH2 0x415B JUMP JUMPDEST SWAP1 MSTORE POP SWAP3 SWAP2 POP POP JUMP JUMPDEST PUSH1 0x6 SLOAD PUSH1 0x1 PUSH1 0x1 PUSH1 0xA0 SHL SUB AND CALLER EQ PUSH2 0x18B0 JUMPI PUSH1 0x40 MLOAD PUSH4 0x48E2D49 PUSH1 0xE4 SHL DUP2 MSTORE PUSH1 0x20 PUSH1 0x4 DUP3 ADD MSTORE PUSH1 0x15 PUSH1 0x24 DUP3 ADD MSTORE PUSH21 0x4572726F7220416363657373204164647265737321 PUSH1 0x58 SHL PUSH1 0x44 DUP3 ADD MSTORE PUSH1 0x64 ADD PUSH2 0x955 JUMP JUMPDEST PUSH1 0x0 SWAP3 DUP4 MSTORE PUSH1 0x3 PUSH1 0x20 SWAP1 DUP2 MSTORE PUSH1 0x40 DUP1 DUP6 KECCAK256 PUSH1 0x1 PUSH1 0x1 PUSH1 0xA0 SHL SUB SWAP1 SWAP5 AND DUP6 MSTORE SWAP3 DUP2 MSTORE SWAP2 DUP4 KECCAK256 DUP1 SLOAD PUSH1 0x1 DUP2 ADD DUP3 SSTORE SWAP1 DUP5 MSTORE SWAP2 SWAP1 SWAP3 KECCAK256 ADD SSTORE JUMP JUMPDEST PUSH1 0x6 SLOAD PUSH1 0x1 PUSH1 0x1 PUSH1 0xA0 SHL SUB AND CALLER EQ PUSH2 0x193A JUMPI PUSH1 0x40 MLOAD PUSH4 0x48E2D49 PUSH1 0xE4 SHL DUP2 MSTORE PUSH1 0x20 PUSH1 0x4 DUP3 ADD MSTORE PUSH1 0x15 PUSH1 0x24 DUP3 ADD MSTORE PUSH21 0x4572726F7220416363657373204164647265737321 PUSH1 0x58 SHL PUSH1 0x44 DUP3 ADD MSTORE PUSH1 0x64 ADD PUSH2 0x955 JUMP JUMPDEST PUSH1 0x0 SWAP2 DUP3 MSTORE PUSH1 0x1 PUSH1 0x20 DUP2 DUP2 MSTORE PUSH1 0x40 DUP5 KECCAK256 PUSH1 0xD ADD DUP1 SLOAD SWAP3 DUP4 ADD DUP2 SSTORE DUP5 MSTORE SWAP1 SWAP3 KECCAK256 SWAP1 SWAP2 ADD DUP1 SLOAD PUSH20 0xFFFFFFFFFFFFFFFFFFFFFFFFFFFFFFFFFFFFFFFF NOT AND PUSH1 0x1 PUSH1 0x1 PUSH1 0xA0 SHL SUB SWAP1 SWAP3 AND SWAP2 SWAP1 SWAP2 OR SWAP1 SSTORE JUMP JUMPDEST PUSH1 0x6 SLOAD PUSH1 0x0 SWAP1 PUSH1 0x1 PUSH1 0x1 PUSH1 0xA0 SHL SUB AND CALLER EQ PUSH2 0x19DE JUMPI PUSH1 0x40 MLOAD PUSH4 0x48E2D49 PUSH1 0xE4 SHL DUP2 MSTORE PUSH1 0x20 PUSH1 0x4 DUP3 ADD MSTORE PUSH1 0x15 PUSH1 0x24 DUP3 ADD MSTORE PUSH21 0x4572726F7220416363657373204164647265737321 PUSH1 0x58 SHL PUSH1 0x44 DUP3 ADD MSTORE PUSH1 0x64 ADD PUSH2 0x955 JUMP JUMPDEST PUSH1 0x0 DUP6 DUP2 MSTORE PUSH1 0x1 PUSH1 0x20 MSTORE PUSH1 0x40 SWAP1 KECCAK256 PUSH1 0xC ADD DUP1 SLOAD TIMESTAMP SWAP2 DUP3 SWAP2 DUP7 SWAP1 DUP2 LT PUSH2 0x1A05 JUMPI PUSH2 0x1A05 PUSH2 0x4171 JUMP JUMPDEST PUSH1 0x0 SWAP2 DUP3 MSTORE PUSH1 0x20 DUP1 DUP4 KECCAK256 PUSH1 0xA PUSH1 0xB SWAP1 SWAP4 MUL ADD SWAP2 SWAP1 SWAP2 ADD SWAP3 SWAP1 SWAP3 SSTORE DUP8 DUP2 MSTORE PUSH1 0x3 DUP3 MSTORE PUSH1 0x40 DUP1 DUP3 KECCAK256 PUSH1 0x1 PUSH1 0x1 PUSH1 0xA0 SHL SUB DUP10 AND DUP4 MSTORE DUP4 MSTORE DUP1 DUP3 KECCAK256 DUP8 DUP4 MSTORE PUSH1 0x2 ADD DUP4 MSTORE SWAP1 KECCAK256 DUP5 MLOAD PUSH2 0xA6A SWAP3 PUSH1 0x1 SWAP1 SWAP3 ADD SWAP2 DUP7 ADD SWAP1 PUSH2 0x321D JUMP JUMPDEST PUSH1 0x6 SLOAD PUSH1 0x1 PUSH1 0x1 PUSH1 0xA0 SHL SUB AND CALLER EQ PUSH2 0x1AAD JUMPI PUSH1 0x40 MLOAD PUSH4 0x48E2D49 PUSH1 0xE4 SHL DUP2 MSTORE PUSH1 0x20 PUSH1 0x4 DUP3 ADD MSTORE PUSH1 0x15 PUSH1 0x24 DUP3 ADD MSTORE PUSH21 0x4572726F7220416363657373204164647265737321 PUSH1 0x58 SHL PUSH1 0x44 DUP3 ADD MSTORE PUSH1 0x64 ADD PUSH2 0x955 JUMP JUMPDEST PUSH1 0x0 DUP2 DUP2 MSTORE PUSH1 0x1 PUSH1 0x20 MSTORE PUSH1 0x40 DUP2 KECCAK256 PUSH1 0x11 ADD DUP1 SLOAD SWAP2 PUSH2 0x1ACA DUP4 PUSH2 0x412A JUMP JUMPDEST SWAP2 SWAP1 POP SSTORE POP POP JUMP JUMPDEST PUSH1 0x6 SLOAD PUSH1 0x1 PUSH1 0x1 PUSH1 0xA0 SHL SUB AND CALLER EQ PUSH2 0x1B25 JUMPI PUSH1 0x40 MLOAD PUSH4 0x48E2D49 PUSH1 0xE4 SHL DUP2 MSTORE PUSH1 0x20 PUSH1 0x4 DUP3 ADD MSTORE PUSH1 0x15 PUSH1 0x24 DUP3 ADD MSTORE PUSH21 0x4572726F7220416363657373204164647265737321 PUSH1 0x58 SHL PUSH1 0x44 DUP3 ADD MSTORE PUSH1 0x64 ADD PUSH2 0x955 JUMP JUMPDEST PUSH1 0x1 PUSH1 0x1 PUSH1 0xA0 SHL SUB DUP3 AND PUSH1 0x0 SWAP1 DUP2 MSTORE PUSH1 0x2 PUSH1 0x20 MSTORE PUSH1 0x40 DUP2 KECCAK256 DUP1 SLOAD DUP4 SWAP3 SWAP1 PUSH2 0xDA0 SWAP1 DUP5 SWAP1 PUSH2 0x40C1 JUMP JUMPDEST PUSH2 0x1B7A PUSH1 0x40 MLOAD DUP1 PUSH1 0x60 ADD PUSH1 0x40 MSTORE DUP1 PUSH1 0x0 PUSH1 0x1 PUSH1 0x1 PUSH1 0xA0 SHL SUB AND DUP2 MSTORE PUSH1 0x20 ADD PUSH1 0x60 DUP2 MSTORE PUSH1 0x20 ADD PUSH1 0x60 DUP2 MSTORE POP SWAP1 JUMP JUMPDEST PUSH2 0x1BA7 PUSH1 0x40 MLOAD DUP1 PUSH1 0x60 ADD PUSH1 0x40 MSTORE DUP1 PUSH1 0x0 PUSH1 0x1 PUSH1 0x1 PUSH1 0xA0 SHL SUB AND DUP2 MSTORE PUSH1 0x20 ADD PUSH1 0x60 DUP2 MSTORE PUSH1 0x20 ADD PUSH1 0x60 DUP2 MSTORE POP SWAP1 JUMP JUMPDEST PUSH1 0x1 PUSH1 0x1 PUSH1 0xA0 SHL SUB DUP4 AND DUP1 DUP3 MSTORE PUSH1 0x0 DUP6 DUP2 MSTORE PUSH1 0x3 PUSH1 0x20 SWAP1 DUP2 MSTORE PUSH1 0x40 DUP1 DUP4 KECCAK256 SWAP4 DUP4 MSTORE SWAP3 DUP2 MSTORE SWAP1 DUP3 SWAP1 KECCAK256 DUP1 SLOAD DUP4 MLOAD DUP2 DUP5 MUL DUP2 ADD DUP5 ADD SWAP1 SWAP5 MSTORE DUP1 DUP5 MSTORE SWAP1 SWAP2 DUP4 ADD DUP3 DUP3 DUP1 ISZERO PUSH2 0x1C11 JUMPI PUSH1 0x20 MUL DUP3 ADD SWAP2 SWAP1 PUSH1 0x0 MSTORE PUSH1 0x20 PUSH1 0x0 KECCAK256 SWAP1 JUMPDEST DUP2 SLOAD DUP2 MSTORE PUSH1 0x20 ADD SWAP1 PUSH1 0x1 ADD SWAP1 DUP1 DUP4 GT PUSH2 0x1BFD JUMPI JUMPDEST POP POP POP POP PUSH1 0x20 DUP4 ADD DUP3 SWAP1 MSTORE POP MLOAD PUSH1 0x0 SWAP1 PUSH8 0xFFFFFFFFFFFFFFFF DUP2 GT ISZERO PUSH2 0x1C39 JUMPI PUSH2 0x1C39 PUSH2 0x4187 JUMP JUMPDEST PUSH1 0x40 MLOAD SWAP1 DUP1 DUP3 MSTORE DUP1 PUSH1 0x20 MUL PUSH1 0x20 ADD DUP3 ADD PUSH1 0x40 MSTORE DUP1 ISZERO PUSH2 0x1C8F JUMPI DUP2 PUSH1 0x20 ADD JUMPDEST PUSH2 0x1C7C PUSH1 0x40 DUP1 MLOAD PUSH1 0x60 DUP2 ADD SWAP1 SWAP2 MSTORE DUP1 PUSH1 0x0 DUP2 MSTORE PUSH1 0x60 PUSH1 0x20 DUP3 ADD MSTORE PUSH1 0x0 PUSH1 0x40 SWAP1 SWAP2 ADD MSTORE SWAP1 JUMP JUMPDEST DUP2 MSTORE PUSH1 0x20 ADD SWAP1 PUSH1 0x1 SWAP1 SUB SWAP1 DUP2 PUSH2 0x1C57 JUMPI SWAP1 POP JUMPDEST POP SWAP1 POP PUSH1 0x0 JUMPDEST DUP3 PUSH1 0x20 ADD MLOAD MLOAD DUP2 LT ISZERO PUSH2 0x1E60 JUMPI PUSH1 0x0 DUP7 DUP2 MSTORE PUSH1 0x3 PUSH1 0x20 SWAP1 DUP2 MSTORE PUSH1 0x40 DUP1 DUP4 KECCAK256 PUSH1 0x1 PUSH1 0x1 PUSH1 0xA0 SHL SUB DUP10 AND DUP5 MSTORE DUP3 MSTORE DUP3 KECCAK256 SWAP1 DUP6 ADD MLOAD DUP1 MLOAD PUSH1 0x2 SWAP1 SWAP3 ADD SWAP3 SWAP2 DUP5 SWAP1 DUP2 LT PUSH2 0x1CE0 JUMPI PUSH2 0x1CE0 PUSH2 0x4171 JUMP JUMPDEST PUSH1 0x20 MUL PUSH1 0x20 ADD ADD MLOAD DUP2 MSTORE PUSH1 0x20 ADD SWAP1 DUP2 MSTORE PUSH1 0x20 ADD PUSH1 0x0 KECCAK256 PUSH1 0x0 ADD PUSH1 0x0 SWAP1 SLOAD SWAP1 PUSH2 0x100 EXP SWAP1 DIV PUSH1 0xFF AND DUP3 DUP3 DUP2 MLOAD DUP2 LT PUSH2 0x1D19 JUMPI PUSH2 0x1D19 PUSH2 0x4171 JUMP JUMPDEST PUSH1 0x20 MUL PUSH1 0x20 ADD ADD MLOAD PUSH1 0x0 ADD SWAP1 PUSH1 0x4 DUP2 GT ISZERO PUSH2 0x1D36 JUMPI PUSH2 0x1D36 PUSH2 0x415B JUMP JUMPDEST SWAP1 DUP2 PUSH1 0x4 DUP2 GT ISZERO PUSH2 0x1D49 JUMPI PUSH2 0x1D49 PUSH2 0x415B JUMP JUMPDEST SWAP1 MSTORE POP PUSH1 0x0 DUP7 DUP2 MSTORE PUSH1 0x3 PUSH1 0x20 SWAP1 DUP2 MSTORE PUSH1 0x40 DUP1 DUP4 KECCAK256 PUSH1 0x1 PUSH1 0x1 PUSH1 0xA0 SHL SUB DUP10 AND DUP5 MSTORE DUP3 MSTORE DUP3 KECCAK256 SWAP1 DUP6 ADD MLOAD DUP1 MLOAD PUSH1 0x2 SWAP1 SWAP3 ADD SWAP3 SWAP2 DUP5 SWAP1 DUP2 LT PUSH2 0x1D8A JUMPI PUSH2 0x1D8A PUSH2 0x4171 JUMP JUMPDEST PUSH1 0x20 MUL PUSH1 0x20 ADD ADD MLOAD DUP2 MSTORE PUSH1 0x20 ADD SWAP1 DUP2 MSTORE PUSH1 0x20 ADD PUSH1 0x0 KECCAK256 PUSH1 0x1 ADD DUP1 SLOAD PUSH2 0x1DAE SWAP1 PUSH2 0x40EF JUMP JUMPDEST DUP1 PUSH1 0x1F ADD PUSH1 0x20 DUP1 SWAP2 DIV MUL PUSH1 0x20 ADD PUSH1 0x40 MLOAD SWAP1 DUP2 ADD PUSH1 0x40 MSTORE DUP1 SWAP3 SWAP2 SWAP1 DUP2 DUP2 MSTORE PUSH1 0x20 ADD DUP3 DUP1 SLOAD PUSH2 0x1DDA SWAP1 PUSH2 0x40EF JUMP JUMPDEST DUP1 ISZERO PUSH2 0x1E27 JUMPI DUP1 PUSH1 0x1F LT PUSH2 0x1DFC JUMPI PUSH2 0x100 DUP1 DUP4 SLOAD DIV MUL DUP4 MSTORE SWAP2 PUSH1 0x20 ADD SWAP2 PUSH2 0x1E27 JUMP JUMPDEST DUP3 ADD SWAP2 SWAP1 PUSH1 0x0 MSTORE PUSH1 0x20 PUSH1 0x0 KECCAK256 SWAP1 JUMPDEST DUP2 SLOAD DUP2 MSTORE SWAP1 PUSH1 0x1 ADD SWAP1 PUSH1 0x20 ADD DUP1 DUP4 GT PUSH2 0x1E0A JUMPI DUP3 SWAP1 SUB PUSH1 0x1F AND DUP3 ADD SWAP2 JUMPDEST POP POP POP POP POP DUP3 DUP3 DUP2 MLOAD DUP2 LT PUSH2 0x1E3E JUMPI PUSH2 0x1E3E PUSH2 0x4171 JUMP JUMPDEST PUSH1 0x20 MUL PUSH1 0x20 ADD ADD MLOAD PUSH1 0x20 ADD DUP2 SWAP1 MSTORE POP DUP1 DUP1 PUSH2 0x1E58 SWAP1 PUSH2 0x412A JUMP JUMPDEST SWAP2 POP POP PUSH2 0x1C95 JUMP JUMPDEST POP PUSH1 0x40 DUP3 ADD MSTORE SWAP4 SWAP3 POP POP POP JUMP JUMPDEST PUSH1 0x6 SLOAD PUSH1 0x1 PUSH1 0x1 PUSH1 0xA0 SHL SUB AND CALLER EQ PUSH2 0x1EC0 JUMPI PUSH1 0x40 MLOAD PUSH4 0x48E2D49 PUSH1 0xE4 SHL DUP2 MSTORE PUSH1 0x20 PUSH1 0x4 DUP3 ADD MSTORE PUSH1 0x15 PUSH1 0x24 DUP3 ADD MSTORE PUSH21 0x4572726F7220416363657373204164647265737321 PUSH1 0x58 SHL PUSH1 0x44 DUP3 ADD MSTORE PUSH1 0x64 ADD PUSH2 0x955 JUMP JUMPDEST PUSH1 0x0 SWAP2 DUP3 MSTORE PUSH1 0x1 PUSH1 0x20 MSTORE PUSH1 0x40 SWAP1 SWAP2 KECCAK256 PUSH1 0x13 ADD DUP1 SLOAD PUSH1 0xFF NOT AND SWAP2 ISZERO ISZERO SWAP2 SWAP1 SWAP2 OR SWAP1 SSTORE JUMP JUMPDEST PUSH1 0x6 SLOAD PUSH1 0x1 PUSH1 0x1 PUSH1 0xA0 SHL SUB AND CALLER EQ PUSH2 0x1F36 JUMPI PUSH1 0x40 MLOAD PUSH4 0x48E2D49 PUSH1 0xE4 SHL DUP2 MSTORE PUSH1 0x20 PUSH1 0x4 DUP3 ADD MSTORE PUSH1 0x15 PUSH1 0x24 DUP3 ADD MSTORE PUSH21 0x4572726F7220416363657373204164647265737321 PUSH1 0x58 SHL PUSH1 0x44 DUP3 ADD MSTORE PUSH1 0x64 ADD PUSH2 0x955 JUMP JUMPDEST PUSH1 0x0 DUP5 DUP2 MSTORE PUSH1 0x4 PUSH1 0x20 DUP2 DUP2 MSTORE PUSH1 0x40 DUP1 DUP5 KECCAK256 PUSH1 0x1 PUSH1 0x1 PUSH1 0xA0 SHL SUB DUP9 AND DUP6 MSTORE DUP3 MSTORE DUP1 DUP5 KECCAK256 DUP7 DUP6 MSTORE PUSH1 0x2 ADD SWAP1 SWAP2 MSTORE SWAP1 SWAP2 KECCAK256 DUP1 SLOAD DUP4 SWAP3 PUSH1 0xFF NOT SWAP1 SWAP2 AND SWAP1 PUSH1 0x1 SWAP1 DUP5 SWAP1 DUP2 GT ISZERO PUSH2 0xF1A JUMPI PUSH2 0xF1A PUSH2 0x415B JUMP JUMPDEST PUSH1 0x6 SLOAD PUSH1 0x1 PUSH1 0x1 PUSH1 0xA0 SHL SUB AND CALLER EQ PUSH2 0x1FD6 JUMPI PUSH1 0x40 MLOAD PUSH4 0x48E2D49 PUSH1 0xE4 SHL DUP2 MSTORE PUSH1 0x20 PUSH1 0x4 DUP3 ADD MSTORE PUSH1 0x15 PUSH1 0x24 DUP3 ADD MSTORE PUSH21 0x4572726F7220416363657373204164647265737321 PUSH1 0x58 SHL PUSH1 0x44 DUP3 ADD MSTORE PUSH1 0x64 ADD PUSH2 0x955 JUMP JUMPDEST PUSH1 0x5 PUSH1 0x0 DUP2 SLOAD PUSH2 0x1FE5 SWAP1 PUSH2 0x412A JUMP JUMPDEST SWAP1 SWAP2 SSTORE POP JUMP JUMPDEST PUSH1 0x6 SLOAD PUSH1 0x1 PUSH1 0x1 PUSH1 0xA0 SHL SUB AND CALLER EQ PUSH2 0x203E JUMPI PUSH1 0x40 MLOAD PUSH4 0x48E2D49 PUSH1 0xE4 SHL DUP2 MSTORE PUSH1 0x20 PUSH1 0x4 DUP3 ADD MSTORE PUSH1 0x15 PUSH1 0x24 DUP3 ADD MSTORE PUSH21 0x4572726F7220416363657373204164647265737321 PUSH1 0x58 SHL PUSH1 0x44 DUP3 ADD MSTORE PUSH1 0x64 ADD PUSH2 0x955 JUMP JUMPDEST PUSH1 0x0 SWAP3 DUP4 MSTORE PUSH1 0x4 PUSH1 0x20 SWAP1 DUP2 MSTORE PUSH1 0x40 DUP1 DUP6 KECCAK256 PUSH1 0x1 PUSH1 0x1 PUSH1 0xA0 SHL SUB SWAP1 SWAP4 AND DUP6 MSTORE SWAP2 DUP2 MSTORE DUP2 DUP5 KECCAK256 SWAP3 DUP5 MSTORE PUSH1 0x2 SWAP3 DUP4 ADD SWAP1 MSTORE SWAP1 SWAP2 KECCAK256 ADD DUP1 SLOAD PUSH1 0xFF NOT AND PUSH1 0x1 OR SWAP1 SSTORE JUMP JUMPDEST PUSH2 0x2085 PUSH2 0x314C JUMP JUMPDEST PUSH2 0x208F PUSH1 0x0 PUSH2 0x31C0 JUMP JUMPDEST JUMP JUMPDEST PUSH1 0x6 SLOAD PUSH1 0x1 PUSH1 0x1 PUSH1 0xA0 SHL SUB AND CALLER EQ PUSH2 0x20E4 JUMPI PUSH1 0x40 MLOAD PUSH4 0x48E2D49 PUSH1 0xE4 SHL DUP2 MSTORE PUSH1 0x20 PUSH1 0x4 DUP3 ADD MSTORE PUSH1 0x15 PUSH1 0x24 DUP3 ADD MSTORE PUSH21 0x4572726F7220416363657373204164647265737321 PUSH1 0x58 SHL PUSH1 0x44 DUP3 ADD MSTORE PUSH1 0x64 ADD PUSH2 0x955 JUMP JUMPDEST PUSH1 0x0 DUP3 DUP2 MSTORE PUSH1 0x4 PUSH1 0x20 SWAP1 DUP2 MSTORE PUSH1 0x40 DUP1 DUP4 KECCAK256 PUSH1 0x1 PUSH1 0x1 PUSH1 0xA0 SHL SUB DUP6 AND DUP5 MSTORE SWAP1 SWAP2 MSTORE DUP2 KECCAK256 PUSH1 0x1 ADD DUP1 SLOAD SWAP2 PUSH2 0x98F DUP4 PUSH2 0x40D8 JUMP JUMPDEST PUSH2 0x2142 PUSH1 0x40 MLOAD DUP1 PUSH1 0x60 ADD PUSH1 0x40 MSTORE DUP1 PUSH1 0x0 PUSH1 0x1 PUSH1 0x1 PUSH1 0xA0 SHL SUB AND DUP2 MSTORE PUSH1 0x20 ADD PUSH1 0x60 DUP2 MSTORE PUSH1 0x20 ADD PUSH1 0x60 DUP2 MSTORE POP SWAP1 JUMP JUMPDEST PUSH2 0x216F PUSH1 0x40 MLOAD DUP1 PUSH1 0x60 ADD PUSH1 0x40 MSTORE DUP1 PUSH1 0x0 PUSH1 0x1 PUSH1 0x1 PUSH1 0xA0 SHL SUB AND DUP2 MSTORE PUSH1 0x20 ADD PUSH1 0x60 DUP2 MSTORE PUSH1 0x20 ADD PUSH1 0x60 DUP2 MSTORE POP SWAP1 JUMP JUMPDEST PUSH1 0x1 PUSH1 0x1 PUSH1 0xA0 SHL SUB DUP4 AND DUP1 DUP3 MSTORE PUSH1 0x0 DUP6 DUP2 MSTORE PUSH1 0x4 PUSH1 0x20 SWAP1 DUP2 MSTORE PUSH1 0x40 DUP1 DUP4 KECCAK256 SWAP4 DUP4 MSTORE SWAP3 DUP2 MSTORE SWAP1 DUP3 SWAP1 KECCAK256 DUP1 SLOAD DUP4 MLOAD DUP2 DUP5 MUL DUP2 ADD DUP5 ADD SWAP1 SWAP5 MSTORE DUP1 DUP5 MSTORE SWAP1 SWAP2 DUP4 ADD DUP3 DUP3 DUP1 ISZERO PUSH2 0x21D9 JUMPI PUSH1 0x20 MUL DUP3 ADD SWAP2 SWAP1 PUSH1 0x0 MSTORE PUSH1 0x20 PUSH1 0x0 KECCAK256 SWAP1 JUMPDEST DUP2 SLOAD DUP2 MSTORE PUSH1 0x20 ADD SWAP1 PUSH1 0x1 ADD SWAP1 DUP1 DUP4 GT PUSH2 0x21C5 JUMPI JUMPDEST POP POP POP POP PUSH1 0x20 DUP4 ADD DUP3 SWAP1 MSTORE POP MLOAD PUSH1 0x0 SWAP1 PUSH8 0xFFFFFFFFFFFFFFFF DUP2 GT ISZERO PUSH2 0x2201 JUMPI PUSH2 0x2201 PUSH2 0x4187 JUMP JUMPDEST PUSH1 0x40 MLOAD SWAP1 DUP1 DUP3 MSTORE DUP1 PUSH1 0x20 MUL PUSH1 0x20 ADD DUP3 ADD PUSH1 0x40 MSTORE DUP1 ISZERO PUSH2 0x2257 JUMPI DUP2 PUSH1 0x20 ADD JUMPDEST PUSH2 0x2244 PUSH1 0x40 DUP1 MLOAD PUSH1 0x60 DUP2 ADD SWAP1 SWAP2 MSTORE DUP1 PUSH1 0x0 DUP2 MSTORE PUSH1 0x60 PUSH1 0x20 DUP3 ADD MSTORE PUSH1 0x0 PUSH1 0x40 SWAP1 SWAP2 ADD MSTORE SWAP1 JUMP JUMPDEST DUP2 MSTORE PUSH1 0x20 ADD SWAP1 PUSH1 0x1 SWAP1 SUB SWAP1 DUP2 PUSH2 0x221F JUMPI SWAP1 POP JUMPDEST POP SWAP1 POP PUSH1 0x0 JUMPDEST DUP3 PUSH1 0x20 ADD MLOAD MLOAD DUP2 LT ISZERO PUSH2 0x1E60 JUMPI PUSH1 0x0 DUP7 DUP2 MSTORE PUSH1 0x4 PUSH1 0x20 SWAP1 DUP2 MSTORE PUSH1 0x40 DUP1 DUP4 KECCAK256 PUSH1 0x1 PUSH1 0x1 PUSH1 0xA0 SHL SUB DUP10 AND DUP5 MSTORE DUP3 MSTORE DUP3 KECCAK256 SWAP1 DUP6 ADD MLOAD DUP1 MLOAD PUSH1 0x2 SWAP1 SWAP3 ADD SWAP3 SWAP2 DUP5 SWAP1 DUP2 LT PUSH2 0x22A8 JUMPI PUSH2 0x22A8 PUSH2 0x4171 JUMP JUMPDEST PUSH1 0x20 MUL PUSH1 0x20 ADD ADD MLOAD DUP2 MSTORE PUSH1 0x20 ADD SWAP1 DUP2 MSTORE PUSH1 0x20 ADD PUSH1 0x0 KECCAK256 PUSH1 0x0 ADD PUSH1 0x0 SWAP1 SLOAD SWAP1 PUSH2 0x100 EXP SWAP1 DIV PUSH1 0xFF AND DUP3 DUP3 DUP2 MLOAD DUP2 LT PUSH2 0x22E1 JUMPI PUSH2 0x22E1 PUSH2 0x4171 JUMP JUMPDEST PUSH1 0x20 MUL PUSH1 0x20 ADD ADD MLOAD PUSH1 0x0 ADD SWAP1 PUSH1 0x4 DUP2 GT ISZERO PUSH2 0x22FE JUMPI PUSH2 0x22FE PUSH2 0x415B JUMP JUMPDEST SWAP1 DUP2 PUSH1 0x4 DUP2 GT ISZERO PUSH2 0x2311 JUMPI PUSH2 0x2311 PUSH2 0x415B JUMP JUMPDEST SWAP1 MSTORE POP PUSH1 0x0 DUP7 DUP2 MSTORE PUSH1 0x4 PUSH1 0x20 SWAP1 DUP2 MSTORE PUSH1 0x40 DUP1 DUP4 KECCAK256 PUSH1 0x1 PUSH1 0x1 PUSH1 0xA0 SHL SUB DUP10 AND DUP5 MSTORE DUP3 MSTORE DUP3 KECCAK256 SWAP1 DUP6 ADD MLOAD DUP1 MLOAD PUSH1 0x2 SWAP1 SWAP3 ADD SWAP3 SWAP2 DUP5 SWAP1 DUP2 LT PUSH2 0x2352 JUMPI PUSH2 0x2352 PUSH2 0x4171 JUMP JUMPDEST PUSH1 0x20 MUL PUSH1 0x20 ADD ADD MLOAD DUP2 MSTORE PUSH1 0x20 ADD SWAP1 DUP2 MSTORE PUSH1 0x20 ADD PUSH1 0x0 KECCAK256 PUSH1 0x1 ADD DUP1 SLOAD PUSH2 0x2376 SWAP1 PUSH2 0x40EF JUMP JUMPDEST DUP1 PUSH1 0x1F ADD PUSH1 0x20 DUP1 SWAP2 DIV MUL PUSH1 0x20 ADD PUSH1 0x40 MLOAD SWAP1 DUP2 ADD PUSH1 0x40 MSTORE DUP1 SWAP3 SWAP2 SWAP1 DUP2 DUP2 MSTORE PUSH1 0x20 ADD DUP3 DUP1 SLOAD PUSH2 0x23A2 SWAP1 PUSH2 0x40EF JUMP JUMPDEST DUP1 ISZERO PUSH2 0x23EF JUMPI DUP1 PUSH1 0x1F LT PUSH2 0x23C4 JUMPI PUSH2 0x100 DUP1 DUP4 SLOAD DIV MUL DUP4 MSTORE SWAP2 PUSH1 0x20 ADD SWAP2 PUSH2 0x23EF JUMP JUMPDEST DUP3 ADD SWAP2 SWAP1 PUSH1 0x0 MSTORE PUSH1 0x20 PUSH1 0x0 KECCAK256 SWAP1 JUMPDEST DUP2 SLOAD DUP2 MSTORE SWAP1 PUSH1 0x1 ADD SWAP1 PUSH1 0x20 ADD DUP1 DUP4 GT PUSH2 0x23D2 JUMPI DUP3 SWAP1 SUB PUSH1 0x1F AND DUP3 ADD SWAP2 JUMPDEST POP POP POP POP POP DUP3 DUP3 DUP2 MLOAD DUP2 LT PUSH2 0x2406 JUMPI PUSH2 0x2406 PUSH2 0x4171 JUMP JUMPDEST PUSH1 0x20 MUL PUSH1 0x20 ADD ADD MLOAD PUSH1 0x20 ADD DUP2 SWAP1 MSTORE POP DUP1 DUP1 PUSH2 0x2420 SWAP1 PUSH2 0x412A JUMP JUMPDEST SWAP2 POP POP PUSH2 0x225D JUMP JUMPDEST PUSH1 0x0 DUP3 DUP2 MSTORE PUSH1 0x3 PUSH1 0x20 SWAP1 DUP2 MSTORE PUSH1 0x40 DUP1 DUP4 KECCAK256 PUSH1 0x1 PUSH1 0x1 PUSH1 0xA0 SHL SUB DUP8 AND DUP5 MSTORE DUP3 MSTORE DUP1 DUP4 KECCAK256 DUP5 DUP5 MSTORE PUSH1 0x2 SWAP1 DUP2 ADD SWAP1 SWAP3 MSTORE DUP3 KECCAK256 ADD SLOAD PUSH1 0xFF AND DUP1 PUSH2 0x2498 JUMPI POP PUSH1 0x0 DUP4 DUP2 MSTORE PUSH1 0x4 PUSH1 0x20 SWAP1 DUP2 MSTORE PUSH1 0x40 DUP1 DUP4 KECCAK256 PUSH1 0x1 PUSH1 0x1 PUSH1 0xA0 SHL SUB DUP9 AND DUP5 MSTORE DUP3 MSTORE DUP1 DUP4 KECCAK256 DUP6 DUP5 MSTORE PUSH1 0x2 SWAP1 DUP2 ADD SWAP1 SWAP3 MSTORE SWAP1 SWAP2 KECCAK256 ADD SLOAD PUSH1 0xFF AND JUMPDEST ISZERO PUSH2 0x24A5 JUMPI POP PUSH1 0x1 PUSH2 0x24A9 JUMP JUMPDEST POP PUSH1 0x0 JUMPDEST SWAP4 SWAP3 POP POP POP JUMP JUMPDEST PUSH1 0x0 DUP2 ISZERO PUSH2 0x24D9 JUMPI POP PUSH1 0x0 DUP3 DUP2 MSTORE PUSH1 0x1 PUSH1 0x20 MSTORE PUSH1 0x40 SWAP1 KECCAK256 PUSH1 0x11 DUP2 ADD SLOAD PUSH1 0xF SWAP1 SWAP2 ADD SLOAD GT ISZERO PUSH2 0xE77 JUMP JUMPDEST POP PUSH1 0x0 DUP3 DUP2 MSTORE PUSH1 0x1 PUSH1 0x20 MSTORE PUSH1 0x40 SWAP1 KECCAK256 PUSH1 0x12 DUP2 ADD SLOAD PUSH1 0x10 SWAP1 SWAP2 ADD SLOAD GT ISZERO PUSH2 0xE77 JUMP JUMPDEST PUSH1 0x60 PUSH1 0x0 PUSH1 0x60 DUP1 PUSH1 0x0 DUP1 DUP7 ISZERO PUSH2 0x257B JUMPI PUSH1 0x0 DUP10 DUP2 MSTORE PUSH1 0x3 PUSH1 0x20 SWAP1 DUP2 MSTORE PUSH1 0x40 DUP1 DUP4 KECCAK256 PUSH1 0x1 PUSH1 0x1 PUSH1 0xA0 SHL SUB DUP13 AND DUP5 MSTORE DUP3 MSTORE SWAP2 DUP3 SWAP1 KECCAK256 DUP1 SLOAD DUP4 MLOAD DUP2 DUP5 MUL DUP2 ADD DUP5 ADD SWAP1 SWAP5 MSTORE DUP1 DUP5 MSTORE SWAP1 SWAP2 DUP4 ADD DUP3 DUP3 DUP1 ISZERO PUSH2 0x256F JUMPI PUSH1 0x20 MUL DUP3 ADD SWAP2 SWAP1 PUSH1 0x0 MSTORE PUSH1 0x20 PUSH1 0x0 KECCAK256 SWAP1 JUMPDEST DUP2 SLOAD DUP2 MSTORE PUSH1 0x20 ADD SWAP1 PUSH1 0x1 ADD SWAP1 DUP1 DUP4 GT PUSH2 0x255B JUMPI JUMPDEST POP POP POP POP POP SWAP4 POP PUSH2 0x25E8 JUMP JUMPDEST PUSH1 0x0 DUP10 DUP2 MSTORE PUSH1 0x4 PUSH1 0x20 SWAP1 DUP2 MSTORE PUSH1 0x40 DUP1 DUP4 KECCAK256 PUSH1 0x1 PUSH1 0x1 PUSH1 0xA0 SHL SUB DUP13 AND DUP5 MSTORE DUP3 MSTORE SWAP2 DUP3 SWAP1 KECCAK256 DUP1 SLOAD DUP4 MLOAD DUP2 DUP5 MUL DUP2 ADD DUP5 ADD SWAP1 SWAP5 MSTORE DUP1 DUP5 MSTORE SWAP1 SWAP2 DUP4 ADD DUP3 DUP3 DUP1 ISZERO PUSH2 0x25E0 JUMPI PUSH1 0x20 MUL DUP3 ADD SWAP2 SWAP1 PUSH1 0x0 MSTORE PUSH1 0x20 PUSH1 0x0 KECCAK256 SWAP1 JUMPDEST DUP2 SLOAD DUP2 MSTORE PUSH1 0x20 ADD SWAP1 PUSH1 0x1 ADD SWAP1 DUP1 DUP4 GT PUSH2 0x25CC JUMPI JUMPDEST POP POP POP POP POP SWAP4 POP JUMPDEST PUSH2 0x260D PUSH1 0x40 DUP1 MLOAD PUSH1 0x60 DUP2 ADD SWAP1 SWAP2 MSTORE DUP1 PUSH1 0x0 DUP2 MSTORE PUSH1 0x60 PUSH1 0x20 DUP3 ADD MSTORE PUSH1 0x0 PUSH1 0x40 SWAP1 SWAP2 ADD MSTORE SWAP1 JUMP JUMPDEST PUSH1 0x0 JUMPDEST DUP6 MLOAD DUP2 LT ISZERO PUSH2 0x2826 JUMPI PUSH1 0x0 DUP12 DUP2 MSTORE PUSH1 0x3 PUSH1 0x20 SWAP1 DUP2 MSTORE PUSH1 0x40 DUP1 DUP4 KECCAK256 PUSH1 0x1 PUSH1 0x1 PUSH1 0xA0 SHL SUB DUP15 AND DUP5 MSTORE SWAP1 SWAP2 MSTORE DUP2 KECCAK256 DUP8 MLOAD PUSH1 0x2 SWAP1 SWAP2 ADD SWAP2 SWAP1 DUP9 SWAP1 DUP5 SWAP1 DUP2 LT PUSH2 0x2656 JUMPI PUSH2 0x2656 PUSH2 0x4171 JUMP JUMPDEST PUSH1 0x20 MUL PUSH1 0x20 ADD ADD MLOAD DUP2 MSTORE PUSH1 0x20 ADD SWAP1 DUP2 MSTORE PUSH1 0x20 ADD PUSH1 0x0 KECCAK256 PUSH1 0x40 MLOAD DUP1 PUSH1 0x60 ADD PUSH1 0x40 MSTORE SWAP1 DUP2 PUSH1 0x0 DUP3 ADD PUSH1 0x0 SWAP1 SLOAD SWAP1 PUSH2 0x100 EXP SWAP1 DIV PUSH1 0xFF AND PUSH1 0x4 DUP2 GT ISZERO PUSH2 0x269B JUMPI PUSH2 0x269B PUSH2 0x415B JUMP JUMPDEST PUSH1 0x4 DUP2 GT ISZERO PUSH2 0x26AC JUMPI PUSH2 0x26AC PUSH2 0x415B JUMP JUMPDEST DUP2 MSTORE PUSH1 0x20 ADD PUSH1 0x1 DUP3 ADD DUP1 SLOAD PUSH2 0x26C0 SWAP1 PUSH2 0x40EF JUMP JUMPDEST DUP1 PUSH1 0x1F ADD PUSH1 0x20 DUP1 SWAP2 DIV MUL PUSH1 0x20 ADD PUSH1 0x40 MLOAD SWAP1 DUP2 ADD PUSH1 0x40 MSTORE DUP1 SWAP3 SWAP2 SWAP1 DUP2 DUP2 MSTORE PUSH1 0x20 ADD DUP3 DUP1 SLOAD PUSH2 0x26EC SWAP1 PUSH2 0x40EF JUMP JUMPDEST DUP1 ISZERO PUSH2 0x2739 JUMPI DUP1 PUSH1 0x1F LT PUSH2 0x270E JUMPI PUSH2 0x100 DUP1 DUP4 SLOAD DIV MUL DUP4 MSTORE SWAP2 PUSH1 0x20 ADD SWAP2 PUSH2 0x2739 JUMP JUMPDEST DUP3 ADD SWAP2 SWAP1 PUSH1 0x0 MSTORE PUSH1 0x20 PUSH1 0x0 KECCAK256 SWAP1 JUMPDEST DUP2 SLOAD DUP2 MSTORE SWAP1 PUSH1 0x1 ADD SWAP1 PUSH1 0x20 ADD DUP1 DUP4 GT PUSH2 0x271C JUMPI DUP3 SWAP1 SUB PUSH1 0x1F AND DUP3 ADD SWAP2 JUMPDEST POP POP POP SWAP2 DUP4 MSTORE POP POP PUSH1 0x2 SWAP2 SWAP1 SWAP2 ADD SLOAD PUSH1 0xFF AND ISZERO ISZERO PUSH1 0x20 SWAP1 SWAP2 ADD MSTORE SWAP2 POP PUSH1 0x0 DUP3 MLOAD PUSH1 0x4 DUP2 GT ISZERO PUSH2 0x276A JUMPI PUSH2 0x276A PUSH2 0x415B JUMP JUMPDEST EQ ISZERO PUSH2 0x2814 JUMPI DUP6 DUP2 DUP2 MLOAD DUP2 LT PUSH2 0x2782 JUMPI PUSH2 0x2782 PUSH2 0x4171 JUMP JUMPDEST PUSH1 0x20 MUL PUSH1 0x20 ADD ADD MLOAD DUP6 DUP5 DUP2 MLOAD DUP2 LT PUSH2 0x279C JUMPI PUSH2 0x279C PUSH2 0x4171 JUMP JUMPDEST PUSH1 0x20 SWAP1 DUP2 MUL SWAP2 SWAP1 SWAP2 ADD ADD MSTORE DUP3 PUSH2 0x27B1 DUP2 PUSH2 0x412A JUMP JUMPDEST SWAP4 POP POP PUSH1 0x1 PUSH1 0x0 DUP13 DUP2 MSTORE PUSH1 0x20 ADD SWAP1 DUP2 MSTORE PUSH1 0x20 ADD PUSH1 0x0 KECCAK256 PUSH1 0xC ADD DUP7 DUP3 DUP2 MLOAD DUP2 LT PUSH2 0x27DC JUMPI PUSH2 0x27DC PUSH2 0x4171 JUMP JUMPDEST PUSH1 0x20 MUL PUSH1 0x20 ADD ADD MLOAD DUP2 SLOAD DUP2 LT PUSH2 0x27F4 JUMPI PUSH2 0x27F4 PUSH2 0x4171 JUMP JUMPDEST SWAP1 PUSH1 0x0 MSTORE PUSH1 0x20 PUSH1 0x0 KECCAK256 SWAP1 PUSH1 0xB MUL ADD PUSH1 0x7 ADD SLOAD DUP5 PUSH2 0x2811 SWAP2 SWAP1 PUSH2 0x40A9 JUMP JUMPDEST SWAP4 POP JUMPDEST DUP1 PUSH2 0x281E DUP2 PUSH2 0x412A JUMP JUMPDEST SWAP2 POP POP PUSH2 0x2610 JUMP JUMPDEST POP SWAP3 SWAP10 SWAP2 SWAP9 POP SWAP1 SWAP7 POP POP POP POP POP POP POP JUMP JUMPDEST PUSH1 0x6 SLOAD PUSH1 0x1 PUSH1 0x1 PUSH1 0xA0 SHL SUB AND CALLER EQ PUSH2 0x288A JUMPI PUSH1 0x40 MLOAD PUSH4 0x48E2D49 PUSH1 0xE4 SHL DUP2 MSTORE PUSH1 0x20 PUSH1 0x4 DUP3 ADD MSTORE PUSH1 0x15 PUSH1 0x24 DUP3 ADD MSTORE PUSH21 0x4572726F7220416363657373204164647265737321 PUSH1 0x58 SHL PUSH1 0x44 DUP3 ADD MSTORE PUSH1 0x64 ADD PUSH2 0x955 JUMP JUMPDEST PUSH1 0x0 DUP3 DUP2 MSTORE PUSH1 0x3 PUSH1 0x20 SWAP1 DUP2 MSTORE PUSH1 0x40 DUP1 DUP4 KECCAK256 PUSH1 0x1 PUSH1 0x1 PUSH1 0xA0 SHL SUB DUP6 AND DUP5 MSTORE SWAP1 SWAP2 MSTORE DUP2 KECCAK256 PUSH1 0x1 ADD DUP1 SLOAD SWAP2 PUSH2 0x98F DUP4 PUSH2 0x412A JUMP JUMPDEST PUSH1 0x0 DUP2 DUP2 MSTORE PUSH1 0x1 PUSH1 0x20 SWAP1 DUP2 MSTORE PUSH1 0x40 SWAP2 DUP3 SWAP1 KECCAK256 PUSH1 0xD ADD DUP1 SLOAD DUP4 MLOAD DUP2 DUP5 MUL DUP2 ADD DUP5 ADD SWAP1 SWAP5 MSTORE DUP1 DUP5 MSTORE PUSH1 0x60 SWAP4 SWAP3 DUP4 ADD DUP3 DUP3 DUP1 ISZERO PUSH2 0x291E JUMPI PUSH1 0x20 MUL DUP3 ADD SWAP2 SWAP1 PUSH1 0x0 MSTORE PUSH1 0x20 PUSH1 0x0 KECCAK256 SWAP1 JUMPDEST DUP2 SLOAD PUSH1 0x1 PUSH1 0x1 PUSH1 0xA0 SHL SUB AND DUP2 MSTORE PUSH1 0x1 SWAP1 SWAP2 ADD SWAP1 PUSH1 0x20 ADD DUP1 DUP4 GT PUSH2 0x2900 JUMPI JUMPDEST POP POP POP POP POP SWAP1 POP SWAP2 SWAP1 POP JUMP JUMPDEST PUSH1 0x6 SLOAD PUSH1 0x1 PUSH1 0x1 PUSH1 0xA0 SHL SUB AND CALLER EQ PUSH2 0x297D JUMPI PUSH1 0x40 MLOAD PUSH4 0x48E2D49 PUSH1 0xE4 SHL DUP2 MSTORE PUSH1 0x20 PUSH1 0x4 DUP3 ADD MSTORE PUSH1 0x15 PUSH1 0x24 DUP3 ADD MSTORE PUSH21 0x4572726F7220416363657373204164647265737321 PUSH1 0x58 SHL PUSH1 0x44 DUP3 ADD MSTORE PUSH1 0x64 ADD PUSH2 0x955 JUMP JUMPDEST PUSH1 0x0 SWAP2 DUP3 MSTORE PUSH1 0x1 PUSH1 0x20 DUP2 DUP2 MSTORE PUSH1 0x40 DUP5 KECCAK256 PUSH1 0xE ADD DUP1 SLOAD SWAP3 DUP4 ADD DUP2 SSTORE DUP5 MSTORE SWAP1 SWAP3 KECCAK256 SWAP1 SWAP2 ADD DUP1 SLOAD PUSH20 0xFFFFFFFFFFFFFFFFFFFFFFFFFFFFFFFFFFFFFFFF NOT AND PUSH1 0x1 PUSH1 0x1 PUSH1 0xA0 SHL SUB SWAP1 SWAP3 AND SWAP2 SWAP1 SWAP2 OR SWAP1 SSTORE JUMP JUMPDEST PUSH1 0x6 SLOAD PUSH1 0x1 PUSH1 0x1 PUSH1 0xA0 SHL SUB AND CALLER EQ PUSH2 0x2A1E JUMPI PUSH1 0x40 MLOAD PUSH4 0x48E2D49 PUSH1 0xE4 SHL DUP2 MSTORE PUSH1 0x20 PUSH1 0x4 DUP3 ADD MSTORE PUSH1 0x15 PUSH1 0x24 DUP3 ADD MSTORE PUSH21 0x4572726F7220416363657373204164647265737321 PUSH1 0x58 SHL PUSH1 0x44 DUP3 ADD MSTORE PUSH1 0x64 ADD PUSH2 0x955 JUMP JUMPDEST PUSH1 0x0 SWAP3 DUP4 MSTORE PUSH1 0x4 PUSH1 0x20 SWAP1 DUP2 MSTORE PUSH1 0x40 DUP1 DUP6 KECCAK256 PUSH1 0x1 PUSH1 0x1 PUSH1 0xA0 SHL SUB SWAP1 SWAP5 AND DUP6 MSTORE SWAP3 DUP2 MSTORE SWAP2 DUP4 KECCAK256 DUP1 SLOAD PUSH1 0x1 DUP2 ADD DUP3 SSTORE SWAP1 DUP5 MSTORE SWAP2 SWAP1 SWAP3 KECCAK256 ADD SSTORE JUMP JUMPDEST PUSH1 0x6 SLOAD PUSH1 0x0 SWAP1 PUSH1 0x1 PUSH1 0x1 PUSH1 0xA0 SHL SUB AND CALLER EQ PUSH2 0x2AAB JUMPI PUSH1 0x40 MLOAD PUSH4 0x48E2D49 PUSH1 0xE4 SHL DUP2 MSTORE PUSH1 0x20 PUSH1 0x4 DUP3 ADD MSTORE PUSH1 0x15 PUSH1 0x24 DUP3 ADD MSTORE PUSH21 0x4572726F7220416363657373204164647265737321 PUSH1 0x58 SHL PUSH1 0x44 DUP3 ADD MSTORE PUSH1 0x64 ADD PUSH2 0x955 JUMP JUMPDEST PUSH1 0x5 DUP1 SLOAD SWAP1 PUSH1 0x0 PUSH2 0x2ABB DUP4 PUSH2 0x412A JUMP JUMPDEST SWAP1 SWAP2 SSTORE POP POP PUSH1 0x5 SLOAD PUSH1 0x0 SWAP1 DUP2 MSTORE PUSH1 0x1 PUSH1 0x20 DUP2 DUP2 MSTORE PUSH1 0x40 SWAP1 SWAP3 KECCAK256 DUP1 SLOAD PUSH20 0xFFFFFFFFFFFFFFFFFFFFFFFFFFFFFFFFFFFFFFFF NOT AND PUSH1 0x1 PUSH1 0x1 PUSH1 0xA0 SHL SUB DUP7 AND OR DUP2 SSTORE DUP6 MLOAD SWAP2 DUP2 ADD SWAP2 SWAP1 SWAP2 SSTORE DUP5 DUP3 ADD MLOAD DUP1 MLOAD SWAP2 SWAP3 PUSH2 0x2B1D SWAP3 PUSH1 0x2 DUP6 ADD SWAP3 SWAP1 SWAP2 ADD SWAP1 PUSH2 0x321D JUMP JUMPDEST POP PUSH1 0x40 DUP5 ADD MLOAD DUP1 MLOAD PUSH2 0x2B39 SWAP2 PUSH1 0x3 DUP5 ADD SWAP2 PUSH1 0x20 SWAP1 SWAP2 ADD SWAP1 PUSH2 0x321D JUMP JUMPDEST POP PUSH1 0x60 DUP5 ADD MLOAD PUSH1 0x4 DUP3 ADD SSTORE PUSH1 0x80 DUP5 ADD MLOAD PUSH1 0x5 DUP3 ADD SSTORE PUSH1 0xA0 DUP5 ADD MLOAD PUSH1 0x6 DUP3 ADD SSTORE PUSH1 0xC0 DUP5 ADD MLOAD DUP1 MLOAD PUSH2 0x2B73 SWAP2 PUSH1 0x7 DUP5 ADD SWAP2 PUSH1 0x20 SWAP1 SWAP2 ADD SWAP1 PUSH2 0x32A1 JUMP JUMPDEST POP PUSH1 0xE0 DUP5 ADD MLOAD PUSH1 0x8 DUP3 ADD SSTORE PUSH2 0x100 DUP1 DUP6 ADD MLOAD PUSH1 0x9 DUP4 ADD SSTORE PUSH2 0x160 DUP6 ADD MLOAD PUSH1 0xB DUP4 ADD SSTORE PUSH2 0x120 DUP6 ADD MLOAD PUSH1 0xA DUP4 ADD DUP1 SLOAD PUSH2 0x140 DUP9 ADD MLOAD ISZERO DUP1 ISZERO SWAP1 SWAP5 MUL PUSH2 0xFF00 NOT SWAP4 ISZERO ISZERO SWAP4 SWAP1 SWAP4 AND PUSH2 0xFFFF NOT SWAP1 SWAP2 AND OR SWAP2 SWAP1 SWAP2 OR SWAP1 SSTORE PUSH2 0x2BE2 JUMPI PUSH2 0x180 DUP5 ADD MLOAD MLOAD PUSH1 0xF DUP3 ADD DUP2 SWAP1 SSTORE PUSH1 0x10 DUP3 ADD SSTORE PUSH2 0x2BF1 JUMP JUMPDEST PUSH1 0x1 PUSH1 0xF DUP3 ADD DUP2 SWAP1 SSTORE PUSH1 0x10 DUP3 ADD SSTORE JUMPDEST PUSH1 0x13 DUP2 ADD DUP1 SLOAD PUSH2 0xFFFF NOT AND PUSH2 0x101 OR SWAP1 SSTORE PUSH1 0x0 JUMPDEST DUP5 PUSH2 0x180 ADD MLOAD MLOAD DUP2 LT ISZERO PUSH2 0x2D71 JUMPI PUSH1 0x0 DUP6 PUSH2 0x180 ADD MLOAD DUP3 DUP2 MLOAD DUP2 LT PUSH2 0x2C2C JUMPI PUSH2 0x2C2C PUSH2 0x4171 JUMP JUMPDEST PUSH1 0x20 MUL PUSH1 0x20 ADD ADD MLOAD PUSH1 0x60 ADD SWAP1 PUSH1 0xB DUP2 GT ISZERO PUSH2 0x2C49 JUMPI PUSH2 0x2C49 PUSH2 0x415B JUMP JUMPDEST SWAP1 DUP2 PUSH1 0xB DUP2 GT ISZERO PUSH2 0x2C5C JUMPI PUSH2 0x2C5C PUSH2 0x415B JUMP JUMPDEST DUP2 MSTORE POP POP DUP2 PUSH1 0xC ADD DUP6 PUSH2 0x180 ADD MLOAD DUP3 DUP2 MLOAD DUP2 LT PUSH2 0x2C7B JUMPI PUSH2 0x2C7B PUSH2 0x4171 JUMP JUMPDEST PUSH1 0x20 SWAP1 DUP2 MUL SWAP2 SWAP1 SWAP2 ADD DUP2 ADD MLOAD DUP3 SLOAD PUSH1 0x1 DUP2 ADD DUP5 SSTORE PUSH1 0x0 SWAP4 DUP5 MSTORE SWAP3 DUP3 SWAP1 KECCAK256 DUP2 MLOAD DUP1 MLOAD DUP1 MLOAD SWAP4 SWAP6 PUSH1 0xB MUL SWAP1 SWAP3 ADD SWAP4 SWAP1 SWAP3 DUP5 SWAP3 PUSH2 0x2CB9 SWAP3 DUP5 SWAP3 SWAP2 ADD SWAP1 PUSH2 0x321D JUMP JUMPDEST POP PUSH1 0x20 DUP3 DUP2 ADD MLOAD PUSH1 0x1 DUP4 ADD SSTORE PUSH1 0x40 DUP4 ADD MLOAD PUSH1 0x2 DUP4 ADD SSTORE PUSH1 0x60 DUP4 ADD MLOAD PUSH1 0x3 DUP4 ADD SSTORE PUSH1 0x80 DUP4 ADD MLOAD PUSH1 0x4 DUP4 ADD SSTORE PUSH1 0xA0 DUP4 ADD MLOAD PUSH1 0x5 DUP4 ADD SSTORE PUSH1 0xC0 DUP4 ADD MLOAD DUP1 MLOAD PUSH2 0x2D04 SWAP3 PUSH1 0x6 DUP6 ADD SWAP3 ADD SWAP1 PUSH2 0x321D JUMP JUMPDEST POP POP POP PUSH1 0x20 DUP3 DUP2 ADD MLOAD PUSH1 0x7 DUP4 ADD SSTORE PUSH1 0x40 DUP4 ADD MLOAD DUP1 MLOAD PUSH2 0x2D29 SWAP3 PUSH1 0x8 DUP6 ADD SWAP3 ADD SWAP1 PUSH2 0x321D JUMP JUMPDEST POP PUSH1 0x60 DUP3 ADD MLOAD PUSH1 0x9 DUP3 ADD DUP1 SLOAD PUSH1 0xFF NOT AND PUSH1 0x1 DUP4 PUSH1 0xB DUP2 GT ISZERO PUSH2 0x2D4D JUMPI PUSH2 0x2D4D PUSH2 0x415B JUMP JUMPDEST MUL OR SWAP1 SSTORE POP PUSH1 0x80 DUP3 ADD MLOAD DUP2 PUSH1 0xA ADD SSTORE POP POP DUP1 DUP1 PUSH2 0x2D69 SWAP1 PUSH2 0x412A JUMP JUMPDEST SWAP2 POP POP PUSH2 0x2C05 JUMP JUMPDEST POP POP PUSH1 0x5 SLOAD SWAP4 SWAP3 POP POP POP JUMP JUMPDEST PUSH2 0x2D85 PUSH2 0x314C JUMP JUMPDEST PUSH1 0x6 DUP1 SLOAD PUSH20 0xFFFFFFFFFFFFFFFFFFFFFFFFFFFFFFFFFFFFFFFF NOT AND PUSH1 0x1 PUSH1 0x1 PUSH1 0xA0 SHL SUB SWAP3 SWAP1 SWAP3 AND SWAP2 SWAP1 SWAP2 OR SWAP1 SSTORE JUMP JUMPDEST PUSH1 0x0 DUP3 DUP2 MSTORE PUSH1 0x1 PUSH1 0x20 MSTORE PUSH1 0x40 DUP2 KECCAK256 PUSH1 0xC ADD DUP1 SLOAD DUP4 SWAP1 DUP2 LT PUSH2 0x2DD7 JUMPI PUSH2 0x2DD7 PUSH2 0x4171 JUMP JUMPDEST PUSH1 0x0 SWAP2 DUP3 MSTORE PUSH1 0x20 SWAP1 SWAP2 KECCAK256 PUSH1 0xB SWAP1 SWAP2 MUL ADD PUSH1 0x9 ADD SLOAD PUSH1 0xFF AND SWAP4 SWAP3 POP POP POP JUMP JUMPDEST PUSH1 0x0 DUP2 DUP2 MSTORE PUSH1 0x1 PUSH1 0x20 SWAP1 DUP2 MSTORE PUSH1 0x40 SWAP2 DUP3 SWAP1 KECCAK256 PUSH1 0xE ADD DUP1 SLOAD DUP4 MLOAD DUP2 DUP5 MUL DUP2 ADD DUP5 ADD SWAP1 SWAP5 MSTORE DUP1 DUP5 MSTORE PUSH1 0x60 SWAP4 SWAP3 DUP4 ADD DUP3 DUP3 DUP1 ISZERO PUSH2 0x291E JUMPI PUSH1 0x20 MUL DUP3 ADD SWAP2 SWAP1 PUSH1 0x0 MSTORE PUSH1 0x20 PUSH1 0x0 KECCAK256 SWAP1 DUP2 SLOAD PUSH1 0x1 PUSH1 0x1 PUSH1 0xA0 SHL SUB AND DUP2 MSTORE PUSH1 0x1 SWAP1 SWAP2 ADD SWAP1 PUSH1 0x20 ADD DUP1 DUP4 GT PUSH2 0x2900 JUMPI POP POP POP POP POP SWAP1 POP SWAP2 SWAP1 POP JUMP JUMPDEST PUSH1 0x6 SLOAD PUSH1 0x1 PUSH1 0x1 PUSH1 0xA0 SHL SUB AND CALLER EQ PUSH2 0x2EB5 JUMPI PUSH1 0x40 MLOAD PUSH4 0x48E2D49 PUSH1 0xE4 SHL DUP2 MSTORE PUSH1 0x20 PUSH1 0x4 DUP3 ADD MSTORE PUSH1 0x15 PUSH1 0x24 DUP3 ADD MSTORE PUSH21 0x4572726F7220416363657373204164647265737321 PUSH1 0x58 SHL PUSH1 0x44 DUP3 ADD MSTORE PUSH1 0x64 ADD PUSH2 0x955 JUMP JUMPDEST PUSH1 0x0 SWAP2 DUP3 MSTORE PUSH1 0x1 PUSH1 0x20 MSTORE PUSH1 0x40 SWAP1 SWAP2 KECCAK256 PUSH1 0x13 ADD DUP1 SLOAD SWAP2 ISZERO ISZERO PUSH2 0x100 MUL PUSH2 0xFF00 NOT SWAP1 SWAP3 AND SWAP2 SWAP1 SWAP2 OR SWAP1 SSTORE JUMP JUMPDEST PUSH1 0x6 SLOAD PUSH1 0x1 PUSH1 0x1 PUSH1 0xA0 SHL SUB AND CALLER EQ PUSH2 0x2F32 JUMPI PUSH1 0x40 MLOAD PUSH4 0x48E2D49 PUSH1 0xE4 SHL DUP2 MSTORE PUSH1 0x20 PUSH1 0x4 DUP3 ADD MSTORE PUSH1 0x15 PUSH1 0x24 DUP3 ADD MSTORE PUSH21 0x4572726F7220416363657373204164647265737321 PUSH1 0x58 SHL PUSH1 0x44 DUP3 ADD MSTORE PUSH1 0x64 ADD PUSH2 0x955 JUMP JUMPDEST PUSH1 0x0 DUP3 DUP2 MSTORE PUSH1 0x3 PUSH1 0x20 SWAP1 DUP2 MSTORE PUSH1 0x40 DUP1 DUP4 KECCAK256 PUSH1 0x1 PUSH1 0x1 PUSH1 0xA0 SHL SUB DUP6 AND DUP5 MSTORE SWAP1 SWAP2 MSTORE DUP2 KECCAK256 PUSH1 0x1 ADD DUP1 SLOAD SWAP2 PUSH2 0x98F DUP4 PUSH2 0x40D8 JUMP JUMPDEST PUSH1 0x6 SLOAD PUSH1 0x1 PUSH1 0x1 PUSH1 0xA0 SHL SUB AND CALLER EQ PUSH2 0x2FB6 JUMPI PUSH1 0x40 MLOAD PUSH4 0x48E2D49 PUSH1 0xE4 SHL DUP2 MSTORE PUSH1 0x20 PUSH1 0x4 DUP3 ADD MSTORE PUSH1 0x15 PUSH1 0x24 DUP3 ADD MSTORE PUSH21 0x4572726F7220416363657373204164647265737321 PUSH1 0x58 SHL PUSH1 0x44 DUP3 ADD MSTORE PUSH1 0x64 ADD PUSH2 0x955 JUMP JUMPDEST PUSH1 0x0 DUP2 DUP2 MSTORE PUSH1 0x1 PUSH1 0x20 MSTORE PUSH1 0x40 DUP2 KECCAK256 PUSH1 0x12 ADD DUP1 SLOAD SWAP2 PUSH2 0x1ACA DUP4 PUSH2 0x412A JUMP JUMPDEST PUSH1 0x6 SLOAD PUSH1 0x1 PUSH1 0x1 PUSH1 0xA0 SHL SUB AND CALLER EQ PUSH2 0x3026 JUMPI PUSH1 0x40 MLOAD PUSH4 0x48E2D49 PUSH1 0xE4 SHL DUP2 MSTORE PUSH1 0x20 PUSH1 0x4 DUP3 ADD MSTORE PUSH1 0x15 PUSH1 0x24 DUP3 ADD MSTORE PUSH21 0x4572726F7220416363657373204164647265737321 PUSH1 0x58 SHL PUSH1 0x44 DUP3 ADD MSTORE PUSH1 0x64 ADD PUSH2 0x955 JUMP JUMPDEST PUSH1 0x0 SWAP3 DUP4 MSTORE PUSH1 0x3 PUSH1 0x20 SWAP1 DUP2 MSTORE PUSH1 0x40 DUP1 DUP6 KECCAK256 PUSH1 0x1 PUSH1 0x1 PUSH1 0xA0 SHL SUB SWAP1 SWAP4 AND DUP6 MSTORE SWAP2 DUP2 MSTORE DUP2 DUP5 KECCAK256 SWAP3 DUP5 MSTORE PUSH1 0x2 SWAP3 DUP4 ADD SWAP1 MSTORE SWAP1 SWAP2 KECCAK256 ADD DUP1 SLOAD PUSH1 0xFF NOT AND PUSH1 0x1 OR SWAP1 SSTORE JUMP JUMPDEST PUSH1 0x0 DUP3 DUP2 MSTORE PUSH1 0x1 PUSH1 0x20 MSTORE PUSH1 0x40 DUP2 KECCAK256 PUSH1 0xC ADD DUP1 SLOAD DUP4 SWAP1 DUP2 LT PUSH2 0x3088 JUMPI PUSH2 0x3088 PUSH2 0x4171 JUMP JUMPDEST SWAP1 PUSH1 0x0 MSTORE PUSH1 0x20 PUSH1 0x0 KECCAK256 SWAP1 PUSH1 0xB MUL ADD PUSH1 0x7 ADD SLOAD SWAP1 POP SWAP3 SWAP2 POP POP JUMP JUMPDEST PUSH2 0x30AA PUSH2 0x314C JUMP JUMPDEST PUSH1 0x1 PUSH1 0x1 PUSH1 0xA0 SHL SUB DUP2 AND PUSH2 0x3140 JUMPI PUSH1 0x40 MLOAD PUSH32 0x8C379A000000000000000000000000000000000000000000000000000000000 DUP2 MSTORE PUSH1 0x20 PUSH1 0x4 DUP3 ADD MSTORE PUSH1 0x26 PUSH1 0x24 DUP3 ADD MSTORE PUSH32 0x4F776E61626C653A206E6577206F776E657220697320746865207A65726F2061 PUSH1 0x44 DUP3 ADD MSTORE PUSH32 0x6464726573730000000000000000000000000000000000000000000000000000 PUSH1 0x64 DUP3 ADD MSTORE PUSH1 0x84 ADD PUSH2 0x955 JUMP JUMPDEST PUSH2 0x3149 DUP2 PUSH2 0x31C0 JUMP JUMPDEST POP JUMP JUMPDEST PUSH1 0x0 SLOAD PUSH1 0x1 PUSH1 0x1 PUSH1 0xA0 SHL SUB AND CALLER EQ PUSH2 0x208F JUMPI PUSH1 0x40 MLOAD PUSH32 0x8C379A000000000000000000000000000000000000000000000000000000000 DUP2 MSTORE PUSH1 0x20 PUSH1 0x4 DUP3 ADD DUP2 SWAP1 MSTORE PUSH1 0x24 DUP3 ADD MSTORE PUSH32 0x4F776E61626C653A2063616C6C6572206973206E6F7420746865206F776E6572 PUSH1 0x44 DUP3 ADD MSTORE PUSH1 0x64 ADD PUSH2 0x955 JUMP JUMPDEST PUSH1 0x0 DUP1 SLOAD PUSH1 0x1 PUSH1 0x1 PUSH1 0xA0 SHL SUB DUP4 DUP2 AND PUSH20 0xFFFFFFFFFFFFFFFFFFFFFFFFFFFFFFFFFFFFFFFF NOT DUP4 AND DUP2 OR DUP5 SSTORE PUSH1 0x40 MLOAD SWAP2 SWAP1 SWAP3 AND SWAP3 DUP4 SWAP2 PUSH32 0x8BE0079C531659141344CD1FD0A4F28419497F9722A3DAAFE3B4186F6B6457E0 SWAP2 SWAP1 LOG3 POP POP JUMP JUMPDEST DUP3 DUP1 SLOAD PUSH2 0x3229 SWAP1 PUSH2 0x40EF JUMP JUMPDEST SWAP1 PUSH1 0x0 MSTORE PUSH1 0x20 PUSH1 0x0 KECCAK256 SWAP1 PUSH1 0x1F ADD PUSH1 0x20 SWAP1 DIV DUP2 ADD SWAP3 DUP3 PUSH2 0x324B JUMPI PUSH1 0x0 DUP6 SSTORE PUSH2 0x3291 JUMP JUMPDEST DUP3 PUSH1 0x1F LT PUSH2 0x3264 JUMPI DUP1 MLOAD PUSH1 0xFF NOT AND DUP4 DUP1 ADD OR DUP6 SSTORE PUSH2 0x3291 JUMP JUMPDEST DUP3 DUP1 ADD PUSH1 0x1 ADD DUP6 SSTORE DUP3 ISZERO PUSH2 0x3291 JUMPI SWAP2 DUP3 ADD JUMPDEST DUP3 DUP2 GT ISZERO PUSH2 0x3291 JUMPI DUP3 MLOAD DUP3 SSTORE SWAP2 PUSH1 0x20 ADD SWAP2 SWAP1 PUSH1 0x1 ADD SWAP1 PUSH2 0x3276 JUMP JUMPDEST POP PUSH2 0x329D SWAP3 SWAP2 POP PUSH2 0x33AA JUMP JUMPDEST POP SWAP1 JUMP JUMPDEST DUP3 DUP1 SLOAD DUP3 DUP3 SSTORE SWAP1 PUSH1 0x0 MSTORE PUSH1 0x20 PUSH1 0x0 KECCAK256 SWAP1 DUP2 ADD SWAP3 DUP3 ISZERO PUSH2 0x3291 JUMPI SWAP2 PUSH1 0x20 MUL DUP3 ADD DUP3 DUP2 GT ISZERO PUSH2 0x3291 JUMPI DUP3 MLOAD DUP3 SSTORE SWAP2 PUSH1 0x20 ADD SWAP2 SWAP1 PUSH1 0x1 ADD SWAP1 PUSH2 0x3276 JUMP JUMPDEST PUSH1 0x40 MLOAD DUP1 PUSH2 0x2E0 ADD PUSH1 0x40 MSTORE DUP1 PUSH1 0x0 PUSH1 0x1 PUSH1 0x1 PUSH1 0xA0 SHL SUB AND DUP2 MSTORE PUSH1 0x20 ADD PUSH1 0x0 DUP2 MSTORE PUSH1 0x20 ADD PUSH1 0x60 DUP2 MSTORE PUSH1 0x20 ADD PUSH1 0x60 DUP2 MSTORE PUSH1 0x20 ADD PUSH1 0x0 DUP2 MSTORE PUSH1 0x20 ADD PUSH1 0x0 DUP2 MSTORE PUSH1 0x20 ADD PUSH1 0x0 DUP2 MSTORE PUSH1 0x20 ADD PUSH1 0x60 DUP2 MSTORE PUSH1 0x20 ADD PUSH1 0x0 DUP2 MSTORE PUSH1 0x20 ADD PUSH1 0x0 DUP2 MSTORE PUSH1 0x20 ADD PUSH1 0x0 ISZERO ISZERO DUP2 MSTORE PUSH1 0x20 ADD PUSH1 0x0 ISZERO ISZERO DUP2 MSTORE PUSH1 0x20 ADD PUSH1 0x0 DUP2 MSTORE PUSH1 0x20 ADD PUSH1 0x60 DUP2 MSTORE PUSH1 0x20 ADD PUSH1 0x60 DUP2 MSTORE PUSH1 0x20 ADD PUSH1 0x60 DUP2 MSTORE PUSH1 0x20 ADD PUSH1 0x0 DUP2 MSTORE PUSH1 0x20 ADD PUSH1 0x0 DUP2 MSTORE PUSH1 0x20 ADD PUSH1 0x0 DUP2 MSTORE PUSH1 0x20 ADD PUSH1 0x0 DUP2 MSTORE PUSH1 0x20 ADD PUSH1 0x0 ISZERO ISZERO DUP2 MSTORE PUSH1 0x20 ADD PUSH1 0x0 ISZERO ISZERO DUP2 MSTORE PUSH1 0x20 ADD PUSH1 0x0 PUSH1 0x7 DUP2 GT ISZERO PUSH2 0x33A5 JUMPI PUSH2 0x33A5 PUSH2 0x415B JUMP JUMPDEST SWAP1 MSTORE SWAP1 JUMP JUMPDEST JUMPDEST DUP1 DUP3 GT ISZERO PUSH2 0x329D JUMPI PUSH1 0x0 DUP2 SSTORE PUSH1 0x1 ADD PUSH2 0x33AB JUMP JUMPDEST DUP1 CALLDATALOAD PUSH1 0x1 PUSH1 0x1 PUSH1 0xA0 SHL SUB DUP2 AND DUP2 EQ PUSH2 0x33D6 JUMPI PUSH1 0x0 DUP1 REVERT JUMPDEST SWAP2 SWAP1 POP JUMP JUMPDEST PUSH1 0x0 DUP3 PUSH1 0x1F DUP4 ADD SLT PUSH2 0x33EC JUMPI PUSH1 0x0 DUP1 REVERT JUMPDEST PUSH1 0x20 PUSH2 0x3400 PUSH2 0x33FB DUP5 CALLDATALOAD PUSH2 0x4085 JUMP JUMPDEST PUSH2 0x4054 JUMP JUMPDEST DUP1 DUP5 CALLDATALOAD DUP3 MSTORE DUP3 DUP3 ADD SWAP2 POP DUP3 DUP6 ADD DUP7 DUP5 DUP8 CALLDATALOAD PUSH1 0x5 SHL DUP9 ADD ADD GT ISZERO PUSH2 0x3422 JUMPI PUSH1 0x0 DUP1 REVERT JUMPDEST PUSH1 0x0 JUMPDEST DUP7 CALLDATALOAD DUP2 LT ISZERO PUSH2 0x3572 JUMPI PUSH8 0xFFFFFFFFFFFFFFFF DUP1 DUP4 CALLDATALOAD GT ISZERO PUSH2 0x3445 JUMPI PUSH1 0x0 DUP1 REVERT JUMPDEST DUP3 CALLDATALOAD DUP9 ADD PUSH1 0x1F NOT PUSH1 0xA0 DUP2 DUP4 DUP14 SUB ADD SLT ISZERO PUSH2 0x345E JUMPI PUSH1 0x0 DUP1 REVERT JUMPDEST PUSH2 0x3466 PUSH2 0x3FE4 JUMP JUMPDEST DUP9 DUP4 ADD CALLDATALOAD DUP5 DUP2 GT ISZERO PUSH2 0x3477 JUMPI PUSH1 0x0 DUP1 REVERT JUMPDEST DUP4 ADD PUSH1 0xE0 DUP2 DUP15 SUB DUP5 ADD SLT ISZERO PUSH2 0x348B JUMPI PUSH1 0x0 DUP1 REVERT JUMPDEST PUSH2 0x3493 PUSH2 0x400D JUMP JUMPDEST SWAP3 POP DUP10 DUP2 ADD CALLDATALOAD DUP6 DUP2 GT ISZERO PUSH2 0x34A6 JUMPI PUSH1 0x0 DUP1 REVERT JUMPDEST PUSH2 0x34B4 DUP15 DUP13 DUP4 DUP6 ADD ADD PUSH2 0x360A JUMP JUMPDEST DUP5 MSTORE POP PUSH1 0x40 DUP2 ADD CALLDATALOAD DUP11 DUP5 ADD MSTORE PUSH1 0x60 DUP2 ADD CALLDATALOAD PUSH1 0x40 DUP5 ADD MSTORE PUSH1 0x80 DUP2 ADD CALLDATALOAD PUSH1 0x60 DUP5 ADD MSTORE PUSH1 0xA0 DUP2 ADD CALLDATALOAD PUSH1 0x80 DUP5 ADD MSTORE PUSH1 0xC0 DUP2 ADD CALLDATALOAD PUSH1 0xA0 DUP5 ADD MSTORE PUSH1 0xE0 DUP2 ADD CALLDATALOAD DUP6 DUP2 GT ISZERO PUSH2 0x34FA JUMPI PUSH1 0x0 DUP1 REVERT JUMPDEST PUSH2 0x3508 DUP15 DUP13 DUP4 DUP6 ADD ADD PUSH2 0x360A JUMP JUMPDEST PUSH1 0xC0 DUP6 ADD MSTORE POP POP SWAP1 DUP2 MSTORE PUSH1 0x40 DUP3 ADD CALLDATALOAD DUP9 DUP3 ADD MSTORE PUSH1 0x60 DUP3 ADD CALLDATALOAD SWAP1 DUP4 DUP3 GT ISZERO PUSH2 0x352E JUMPI PUSH1 0x0 DUP1 REVERT JUMPDEST PUSH2 0x353C DUP13 DUP11 DUP5 DUP7 ADD ADD PUSH2 0x360A JUMP JUMPDEST PUSH1 0x40 DUP3 ADD MSTORE PUSH2 0x354D PUSH1 0x80 DUP5 ADD PUSH2 0x35FB JUMP JUMPDEST PUSH1 0x60 DUP3 ADD MSTORE PUSH1 0xA0 SWAP3 SWAP1 SWAP3 ADD CALLDATALOAD PUSH1 0x80 DUP4 ADD MSTORE POP DUP6 MSTORE POP SWAP3 DUP5 ADD SWAP3 SWAP1 DUP5 ADD SWAP1 PUSH1 0x1 ADD PUSH2 0x3425 JUMP JUMPDEST POP SWAP1 SWAP7 SWAP6 POP POP POP POP POP POP JUMP JUMPDEST PUSH1 0x0 DUP3 PUSH1 0x1F DUP4 ADD SLT PUSH2 0x358F JUMPI PUSH1 0x0 DUP1 REVERT JUMPDEST DUP2 CALLDATALOAD PUSH1 0x20 PUSH2 0x359F PUSH2 0x33FB DUP4 PUSH2 0x4085 JUMP JUMPDEST DUP1 DUP4 DUP3 MSTORE DUP3 DUP3 ADD SWAP2 POP DUP3 DUP7 ADD DUP8 DUP5 DUP7 PUSH1 0x5 SHL DUP10 ADD ADD GT ISZERO PUSH2 0x35BF JUMPI PUSH1 0x0 DUP1 REVERT JUMPDEST PUSH1 0x0 JUMPDEST DUP6 DUP2 LT ISZERO PUSH2 0x35DE JUMPI DUP2 CALLDATALOAD DUP5 MSTORE SWAP3 DUP5 ADD SWAP3 SWAP1 DUP5 ADD SWAP1 PUSH1 0x1 ADD PUSH2 0x35C2 JUMP JUMPDEST POP SWAP1 SWAP8 SWAP7 POP POP POP POP POP POP POP JUMP JUMPDEST DUP1 CALLDATALOAD DUP1 ISZERO ISZERO DUP2 EQ PUSH2 0x33D6 JUMPI PUSH1 0x0 DUP1 REVERT JUMPDEST DUP1 CALLDATALOAD PUSH1 0xC DUP2 LT PUSH2 0x33D6 JUMPI PUSH1 0x0 DUP1 REVERT JUMPDEST PUSH1 0x0 DUP3 PUSH1 0x1F DUP4 ADD SLT PUSH2 0x361B JUMPI PUSH1 0x0 DUP1 REVERT JUMPDEST DUP2 CALLDATALOAD PUSH8 0xFFFFFFFFFFFFFFFF DUP2 GT ISZERO PUSH2 0x3635 JUMPI PUSH2 0x3635 PUSH2 0x4187 JUMP JUMPDEST PUSH2 0x3648 PUSH1 0x20 PUSH1 0x1F NOT PUSH1 0x1F DUP5 ADD AND ADD PUSH2 0x4054 JUMP JUMPDEST DUP2 DUP2 MSTORE DUP5 PUSH1 0x20 DUP4 DUP7 ADD ADD GT ISZERO PUSH2 0x365D JUMPI PUSH1 0x0 DUP1 REVERT JUMPDEST DUP2 PUSH1 0x20 DUP6 ADD PUSH1 0x20 DUP4 ADD CALLDATACOPY PUSH1 0x0 SWAP2 DUP2 ADD PUSH1 0x20 ADD SWAP2 SWAP1 SWAP2 MSTORE SWAP4 SWAP3 POP POP POP JUMP JUMPDEST PUSH1 0x0 PUSH2 0x1A0 DUP3 DUP5 SUB SLT ISZERO PUSH2 0x368D JUMPI PUSH1 0x0 DUP1 REVERT JUMPDEST PUSH2 0x3695 PUSH2 0x4030 JUMP JUMPDEST SWAP1 POP DUP2 CALLDATALOAD DUP2 MSTORE PUSH1 0x20 DUP3 ADD CALLDATALOAD PUSH8 0xFFFFFFFFFFFFFFFF DUP1 DUP3 GT ISZERO PUSH2 0x36B6 JUMPI PUSH1 0x0 DUP1 REVERT JUMPDEST PUSH2 0x36C2 DUP6 DUP4 DUP7 ADD PUSH2 0x360A JUMP JUMPDEST PUSH1 0x20 DUP5 ADD MSTORE PUSH1 0x40 DUP5 ADD CALLDATALOAD SWAP2 POP DUP1 DUP3 GT ISZERO PUSH2 0x36DB JUMPI PUSH1 0x0 DUP1 REVERT JUMPDEST PUSH2 0x36E7 DUP6 DUP4 DUP7 ADD PUSH2 0x360A JUMP JUMPDEST PUSH1 0x40 DUP5 ADD MSTORE PUSH1 0x60 DUP5 ADD CALLDATALOAD PUSH1 0x60 DUP5 ADD MSTORE PUSH1 0x80 DUP5 ADD CALLDATALOAD PUSH1 0x80 DUP5 ADD MSTORE PUSH1 0xA0 DUP5 ADD CALLDATALOAD PUSH1 0xA0 DUP5 ADD MSTORE PUSH1 0xC0 DUP5 ADD CALLDATALOAD SWAP2 POP DUP1 DUP3 GT ISZERO PUSH2 0x371E JUMPI PUSH1 0x0 DUP1 REVERT JUMPDEST PUSH2 0x372A DUP6 DUP4 DUP7 ADD PUSH2 0x357E JUMP JUMPDEST PUSH1 0xC0 DUP5 ADD MSTORE PUSH1 0xE0 DUP5 DUP2 ADD CALLDATALOAD SWAP1 DUP5 ADD MSTORE PUSH2 0x100 DUP1 DUP6 ADD CALLDATALOAD SWAP1 DUP5 ADD MSTORE PUSH2 0x120 SWAP2 POP PUSH2 0x3754 DUP3 DUP6 ADD PUSH2 0x35EB JUMP JUMPDEST DUP3 DUP5 ADD MSTORE PUSH2 0x140 SWAP2 POP PUSH2 0x3768 DUP3 DUP6 ADD PUSH2 0x35EB JUMP JUMPDEST DUP3 DUP5 ADD MSTORE PUSH2 0x160 SWAP2 POP DUP2 DUP5 ADD CALLDATALOAD DUP3 DUP5 ADD MSTORE PUSH2 0x180 SWAP2 POP DUP2 DUP5 ADD CALLDATALOAD DUP2 DUP2 GT ISZERO PUSH2 0x378F JUMPI PUSH1 0x0 DUP1 REVERT JUMPDEST PUSH2 0x379B DUP7 DUP3 DUP8 ADD PUSH2 0x33DB JUMP JUMPDEST DUP4 DUP6 ADD MSTORE POP POP POP SWAP3 SWAP2 POP POP JUMP JUMPDEST PUSH1 0x0 PUSH1 0x20 DUP3 DUP5 SUB SLT ISZERO PUSH2 0x37BA JUMPI PUSH1 0x0 DUP1 REVERT JUMPDEST PUSH2 0x24A9 DUP3 PUSH2 0x33BF JUMP JUMPDEST PUSH1 0x0 DUP1 PUSH1 0x40 DUP4 DUP6 SUB SLT ISZERO PUSH2 0x37D6 JUMPI PUSH1 0x0 DUP1 REVERT JUMPDEST PUSH2 0x37DF DUP4 PUSH2 0x33BF JUMP JUMPDEST SWAP5 PUSH1 0x20 SWAP4 SWAP1 SWAP4 ADD CALLDATALOAD SWAP4 POP POP POP JUMP JUMPDEST PUSH1 0x0 DUP1 PUSH1 0x0 PUSH1 0x60 DUP5 DUP7 SUB SLT ISZERO PUSH2 0x3802 JUMPI PUSH1 0x0 DUP1 REVERT JUMPDEST PUSH2 0x380B DUP5 PUSH2 0x33BF JUMP JUMPDEST SWAP6 PUSH1 0x20 DUP6 ADD CALLDATALOAD SWAP6 POP PUSH1 0x40 SWAP1 SWAP5 ADD CALLDATALOAD SWAP4 SWAP3 POP POP POP JUMP JUMPDEST PUSH1 0x0 DUP1 PUSH1 0x40 DUP4 DUP6 SUB SLT ISZERO PUSH2 0x3833 JUMPI PUSH1 0x0 DUP1 REVERT JUMPDEST DUP3 CALLDATALOAD PUSH8 0xFFFFFFFFFFFFFFFF DUP2 GT ISZERO PUSH2 0x384A JUMPI PUSH1 0x0 DUP1 REVERT JUMPDEST PUSH2 0x3856 DUP6 DUP3 DUP7 ADD PUSH2 0x367A JUMP JUMPDEST SWAP3 POP POP PUSH2 0x3865 PUSH1 0x20 DUP5 ADD PUSH2 0x33BF JUMP JUMPDEST SWAP1 POP SWAP3 POP SWAP3 SWAP1 POP JUMP JUMPDEST PUSH1 0x0 PUSH1 0x20 DUP3 DUP5 SUB SLT ISZERO PUSH2 0x3880 JUMPI PUSH1 0x0 DUP1 REVERT JUMPDEST POP CALLDATALOAD SWAP2 SWAP1 POP JUMP JUMPDEST PUSH1 0x0 DUP1 PUSH1 0x40 DUP4 DUP6 SUB SLT ISZERO PUSH2 0x389A JUMPI PUSH1 0x0 DUP1 REVERT JUMPDEST DUP3 CALLDATALOAD SWAP2 POP PUSH2 0x3865 PUSH1 0x20 DUP5 ADD PUSH2 0x33BF JUMP JUMPDEST PUSH1 0x0 DUP1 PUSH1 0x0 PUSH1 0x60 DUP5 DUP7 SUB SLT ISZERO PUSH2 0x38BF JUMPI PUSH1 0x0 DUP1 REVERT JUMPDEST DUP4 CALLDATALOAD SWAP3 POP PUSH2 0x38CF PUSH1 0x20 DUP6 ADD PUSH2 0x33BF JUMP JUMPDEST SWAP2 POP PUSH2 0x38DD PUSH1 0x40 DUP6 ADD PUSH2 0x35EB JUMP JUMPDEST SWAP1 POP SWAP3 POP SWAP3 POP SWAP3 JUMP JUMPDEST PUSH1 0x0 DUP1 PUSH1 0x0 PUSH1 0x60 DUP5 DUP7 SUB SLT ISZERO PUSH2 0x38FB JUMPI PUSH1 0x0 DUP1 REVERT JUMPDEST DUP4 CALLDATALOAD SWAP3 POP PUSH2 0x390B PUSH1 0x20 DUP6 ADD PUSH2 0x33BF JUMP JUMPDEST SWAP2 POP PUSH1 0x40 DUP5 ADD CALLDATALOAD SWAP1 POP SWAP3 POP SWAP3 POP SWAP3 JUMP JUMPDEST PUSH1 0x0 DUP1 PUSH1 0x0 DUP1 PUSH1 0x80 DUP6 DUP8 SUB SLT ISZERO PUSH2 0x3931 JUMPI PUSH1 0x0 DUP1 REVERT JUMPDEST DUP5 CALLDATALOAD SWAP4 POP PUSH2 0x3941 PUSH1 0x20 DUP7 ADD PUSH2 0x33BF JUMP JUMPDEST SWAP3 POP PUSH1 0x40 DUP6 ADD CALLDATALOAD SWAP2 POP PUSH1 0x60 DUP6 ADD CALLDATALOAD PUSH1 0x5 DUP2 LT PUSH2 0x395C JUMPI PUSH1 0x0 DUP1 REVERT JUMPDEST SWAP4 SWAP7 SWAP3 SWAP6 POP SWAP1 SWAP4 POP POP JUMP JUMPDEST PUSH1 0x0 DUP1 PUSH1 0x0 DUP1 PUSH1 0x80 DUP6 DUP8 SUB SLT ISZERO PUSH2 0x397D JUMPI PUSH1 0x0 DUP1 REVERT JUMPDEST DUP5 CALLDATALOAD SWAP4 POP PUSH2 0x398D PUSH1 0x20 DUP7 ADD PUSH2 0x33BF JUMP JUMPDEST SWAP3 POP PUSH1 0x40 DUP6 ADD CALLDATALOAD SWAP2 POP PUSH1 0x60 DUP6 ADD CALLDATALOAD PUSH8 0xFFFFFFFFFFFFFFFF DUP2 GT ISZERO PUSH2 0x39B0 JUMPI PUSH1 0x0 DUP1 REVERT JUMPDEST PUSH2 0x39BC DUP8 DUP3 DUP9 ADD PUSH2 0x360A JUMP JUMPDEST SWAP2 POP POP SWAP3 SWAP6 SWAP2 SWAP5 POP SWAP3 POP JUMP JUMPDEST PUSH1 0x0 DUP1 PUSH1 0x40 DUP4 DUP6 SUB SLT ISZERO PUSH2 0x39DB JUMPI PUSH1 0x0 DUP1 REVERT JUMPDEST DUP3 CALLDATALOAD SWAP2 POP PUSH2 0x3865 PUSH1 0x20 DUP5 ADD PUSH2 0x35EB JUMP JUMPDEST PUSH1 0x0 DUP1 PUSH1 0x40 DUP4 DUP6 SUB SLT ISZERO PUSH2 0x39FE JUMPI PUSH1 0x0 DUP1 REVERT JUMPDEST DUP3 CALLDATALOAD SWAP2 POP PUSH1 0x20 DUP4 ADD CALLDATALOAD PUSH1 0x8 DUP2 LT PUSH2 0x3A14 JUMPI PUSH1 0x0 DUP1 REVERT JUMPDEST DUP1 SWAP2 POP POP SWAP3 POP SWAP3 SWAP1 POP JUMP JUMPDEST PUSH1 0x0 DUP1 PUSH1 0x40 DUP4 DUP6 SUB SLT ISZERO PUSH2 0x3A32 JUMPI PUSH1 0x0 DUP1 REVERT JUMPDEST DUP3 CALLDATALOAD SWAP2 POP PUSH1 0x20 DUP4 ADD CALLDATALOAD PUSH8 0xFFFFFFFFFFFFFFFF DUP2 GT ISZERO PUSH2 0x3A50 JUMPI PUSH1 0x0 DUP1 REVERT JUMPDEST PUSH2 0x3A5C DUP6 DUP3 DUP7 ADD PUSH2 0x367A JUMP JUMPDEST SWAP2 POP POP SWAP3 POP SWAP3 SWAP1 POP JUMP JUMPDEST PUSH1 0x0 DUP1 PUSH1 0x40 DUP4 DUP6 SUB SLT ISZERO PUSH2 0x3A79 JUMPI PUSH1 0x0 DUP1 REVERT JUMPDEST POP POP DUP1 CALLDATALOAD SWAP3 PUSH1 0x20 SWAP1 SWAP2 ADD CALLDATALOAD SWAP2 POP JUMP JUMPDEST PUSH1 0x0 DUP1 PUSH1 0x0 PUSH1 0x60 DUP5 DUP7 SUB SLT ISZERO PUSH2 0x3A9D JUMPI PUSH1 0x0 DUP1 REVERT JUMPDEST DUP4 CALLDATALOAD SWAP3 POP PUSH1 0x20 DUP5 ADD CALLDATALOAD SWAP2 POP PUSH2 0x38DD PUSH1 0x40 DUP6 ADD PUSH2 0x33BF JUMP JUMPDEST PUSH1 0x0 DUP1 PUSH1 0x0 PUSH1 0x60 DUP5 DUP7 SUB SLT ISZERO PUSH2 0x3AC9 JUMPI PUSH1 0x0 DUP1 REVERT JUMPDEST DUP4 CALLDATALOAD SWAP3 POP PUSH1 0x20 DUP5 ADD CALLDATALOAD SWAP2 POP PUSH2 0x38DD PUSH1 0x40 DUP6 ADD PUSH2 0x35FB JUMP JUMPDEST PUSH1 0x0 DUP2 MLOAD DUP1 DUP5 MSTORE PUSH1 0x20 DUP1 DUP6 ADD SWAP5 POP DUP1 DUP5 ADD PUSH1 0x0 JUMPDEST DUP4 DUP2 LT ISZERO PUSH2 0x3B19 JUMPI DUP2 MLOAD PUSH1 0x1 PUSH1 0x1 PUSH1 0xA0 SHL SUB AND DUP8 MSTORE SWAP6 DUP3 ADD SWAP6 SWAP1 DUP3 ADD SWAP1 PUSH1 0x1 ADD PUSH2 0x3AF4 JUMP JUMPDEST POP SWAP5 SWAP6 SWAP5 POP POP POP POP POP JUMP JUMPDEST PUSH1 0x0 DUP2 MLOAD DUP1 DUP5 MSTORE PUSH1 0x20 DUP1 DUP6 ADD DUP1 DUP2 SWAP7 POP DUP4 PUSH1 0x5 SHL DUP2 ADD SWAP2 POP DUP3 DUP7 ADD PUSH1 0x0 JUMPDEST DUP6 DUP2 LT ISZERO PUSH2 0x3C3E JUMPI DUP3 DUP5 SUB DUP10 MSTORE DUP2 MLOAD PUSH1 0xA0 DUP2 MLOAD DUP2 DUP8 MSTORE DUP1 MLOAD PUSH1 0xE0 DUP1 DUP5 DUP11 ADD MSTORE PUSH2 0x3B6F PUSH2 0x180 DUP11 ADD DUP4 PUSH2 0x3C9F JUMP JUMPDEST SWAP2 POP DUP10 DUP4 ADD MLOAD PUSH1 0xC0 DUP2 DUP2 DUP13 ADD MSTORE PUSH1 0x40 SWAP2 POP DUP2 DUP6 ADD MLOAD DUP4 DUP13 ADD MSTORE PUSH1 0x60 SWAP3 POP DUP3 DUP6 ADD MLOAD PUSH2 0x100 DUP13 ADD MSTORE PUSH1 0x80 DUP1 DUP7 ADD MLOAD PUSH2 0x120 DUP14 ADD MSTORE DUP7 DUP7 ADD MLOAD PUSH2 0x140 DUP14 ADD MSTORE DUP2 DUP7 ADD MLOAD SWAP7 POP PUSH32 0xFFFFFFFFFFFFFFFFFFFFFFFFFFFFFFFFFFFFFFFFFFFFFFFFFFFFFFFFFFFFFF60 DUP13 DUP7 SUB ADD PUSH2 0x160 DUP14 ADD MSTORE PUSH2 0x3BE7 DUP6 DUP9 PUSH2 0x3C9F JUMP JUMPDEST SWAP7 POP DUP13 DUP9 ADD MLOAD DUP14 DUP14 ADD MSTORE DUP3 DUP9 ADD MLOAD SWAP6 POP DUP12 DUP8 SUB DUP4 DUP14 ADD MSTORE PUSH2 0x3C08 DUP8 DUP8 PUSH2 0x3C9F JUMP JUMPDEST SWAP7 POP DUP4 DUP9 ADD MLOAD SWAP6 POP PUSH2 0x3C1C DUP5 DUP14 ADD DUP8 PUSH2 0x3C7B JUMP JUMPDEST SWAP7 DUP8 ADD MLOAD SWAP11 SWAP1 SWAP7 ADD SWAP10 SWAP1 SWAP10 MSTORE POP POP POP SWAP10 DUP7 ADD SWAP10 SWAP5 POP POP SWAP1 DUP5 ADD SWAP1 PUSH1 0x1 ADD PUSH2 0x3B42 JUMP JUMPDEST POP SWAP2 SWAP8 SWAP7 POP POP POP POP POP POP POP JUMP JUMPDEST PUSH1 0x0 DUP2 MLOAD DUP1 DUP5 MSTORE PUSH1 0x20 DUP1 DUP6 ADD SWAP5 POP DUP1 DUP5 ADD PUSH1 0x0 JUMPDEST DUP4 DUP2 LT ISZERO PUSH2 0x3B19 JUMPI DUP2 MLOAD DUP8 MSTORE SWAP6 DUP3 ADD SWAP6 SWAP1 DUP3 ADD SWAP1 PUSH1 0x1 ADD PUSH2 0x3C5F JUMP JUMPDEST PUSH1 0xC DUP2 LT PUSH2 0x3C8B JUMPI PUSH2 0x3C8B PUSH2 0x415B JUMP JUMPDEST SWAP1 MSTORE JUMP JUMPDEST PUSH1 0x8 DUP2 LT PUSH2 0x3C8B JUMPI PUSH2 0x3C8B PUSH2 0x415B JUMP JUMPDEST PUSH1 0x0 DUP2 MLOAD DUP1 DUP5 MSTORE PUSH1 0x0 JUMPDEST DUP2 DUP2 LT ISZERO PUSH2 0x3CC5 JUMPI PUSH1 0x20 DUP2 DUP6 ADD DUP2 ADD MLOAD DUP7 DUP4 ADD DUP3 ADD MSTORE ADD PUSH2 0x3CA9 JUMP JUMPDEST DUP2 DUP2 GT ISZERO PUSH2 0x3CD7 JUMPI PUSH1 0x0 PUSH1 0x20 DUP4 DUP8 ADD ADD MSTORE JUMPDEST POP PUSH1 0x1F ADD PUSH1 0x1F NOT AND SWAP3 SWAP1 SWAP3 ADD PUSH1 0x20 ADD SWAP3 SWAP2 POP POP JUMP JUMPDEST PUSH1 0x20 DUP2 MSTORE PUSH1 0x0 PUSH2 0x24A9 PUSH1 0x20 DUP4 ADD DUP5 PUSH2 0x3AE0 JUMP JUMPDEST PUSH1 0x20 DUP2 MSTORE PUSH1 0x0 PUSH2 0x24A9 PUSH1 0x20 DUP4 ADD DUP5 PUSH2 0x3B24 JUMP JUMPDEST PUSH1 0x40 DUP2 MSTORE PUSH1 0x0 PUSH2 0x3D25 PUSH1 0x40 DUP4 ADD DUP6 PUSH2 0x3C4B JUMP JUMPDEST SWAP1 POP DUP3 PUSH1 0x20 DUP4 ADD MSTORE SWAP4 SWAP3 POP POP POP JUMP JUMPDEST PUSH1 0x20 DUP2 ADD PUSH2 0xE77 DUP3 DUP5 PUSH2 0x3C7B JUMP JUMPDEST PUSH1 0x20 DUP2 ADD PUSH2 0xE77 DUP3 DUP5 PUSH2 0x3C8F JUMP JUMPDEST PUSH1 0x0 PUSH1 0x20 DUP1 DUP4 MSTORE PUSH1 0x1 PUSH1 0x1 PUSH1 0xA0 SHL SUB DUP5 MLOAD AND DUP2 DUP5 ADD MSTORE DUP1 DUP5 ADD MLOAD PUSH1 0x60 PUSH1 0x40 DUP2 DUP2 DUP8 ADD MSTORE PUSH2 0x3D80 PUSH1 0x80 DUP8 ADD DUP5 PUSH2 0x3C4B JUMP JUMPDEST DUP2 DUP9 ADD MLOAD PUSH1 0x1F NOT DUP9 DUP4 SUB DUP2 ADD DUP6 DUP11 ADD MSTORE DUP2 MLOAD DUP1 DUP5 MSTORE SWAP3 SWAP6 POP SWAP1 DUP7 ADD SWAP2 DUP7 DUP7 ADD SWAP1 PUSH1 0x5 DUP2 DUP2 SHL DUP9 ADD DUP10 ADD PUSH1 0x0 JUMPDEST DUP4 DUP2 LT ISZERO PUSH2 0x3E05 JUMPI DUP6 DUP11 DUP4 SUB ADD DUP6 MSTORE DUP7 MLOAD DUP1 MLOAD DUP5 DUP2 LT PUSH2 0x3DCE JUMPI PUSH2 0x3DCE PUSH2 0x415B JUMP JUMPDEST DUP4 MSTORE DUP1 DUP13 ADD MLOAD DUP13 DUP5 ADD DUP12 SWAP1 MSTORE PUSH2 0x3DE6 DUP12 DUP6 ADD DUP3 PUSH2 0x3C9F JUMP JUMPDEST SWAP2 DUP11 ADD MLOAD ISZERO ISZERO SWAP4 DUP11 ADD SWAP4 SWAP1 SWAP4 MSTORE SWAP7 DUP12 ADD SWAP7 SWAP5 DUP12 ADD SWAP5 SWAP2 POP PUSH1 0x1 ADD PUSH2 0x3DAC JUMP JUMPDEST POP SWAP13 SWAP12 POP POP POP POP POP POP POP POP POP POP POP POP JUMP JUMPDEST PUSH1 0x20 DUP2 MSTORE PUSH2 0x3E30 PUSH1 0x20 DUP3 ADD DUP4 MLOAD PUSH1 0x1 PUSH1 0x1 PUSH1 0xA0 SHL SUB AND SWAP1 MSTORE JUMP JUMPDEST PUSH1 0x20 DUP3 ADD MLOAD PUSH1 0x40 DUP3 ADD MSTORE PUSH1 0x0 PUSH1 0x40 DUP4 ADD MLOAD PUSH2 0x2E0 DUP1 PUSH1 0x60 DUP6 ADD MSTORE PUSH2 0x3E58 PUSH2 0x300 DUP6 ADD DUP4 PUSH2 0x3C9F JUMP JUMPDEST SWAP2 POP PUSH1 0x60 DUP6 ADD MLOAD PUSH1 0x1F NOT DUP1 DUP7 DUP6 SUB ADD PUSH1 0x80 DUP8 ADD MSTORE PUSH2 0x3E76 DUP5 DUP4 PUSH2 0x3C9F JUMP JUMPDEST SWAP4 POP PUSH1 0x80 DUP8 ADD MLOAD PUSH1 0xA0 DUP8 ADD MSTORE PUSH1 0xA0 DUP8 ADD MLOAD PUSH1 0xC0 DUP8 ADD MSTORE PUSH1 0xC0 DUP8 ADD MLOAD PUSH1 0xE0 DUP8 ADD MSTORE PUSH1 0xE0 DUP8 ADD MLOAD SWAP2 POP PUSH2 0x100 DUP2 DUP8 DUP7 SUB ADD DUP2 DUP9 ADD MSTORE PUSH2 0x3EB3 DUP6 DUP5 PUSH2 0x3C4B JUMP JUMPDEST SWAP1 DUP9 ADD MLOAD PUSH2 0x120 DUP9 DUP2 ADD SWAP2 SWAP1 SWAP2 MSTORE DUP9 ADD MLOAD PUSH2 0x140 DUP1 DUP10 ADD SWAP2 SWAP1 SWAP2 MSTORE DUP9 ADD MLOAD SWAP1 SWAP5 POP SWAP2 POP PUSH2 0x160 PUSH2 0x3EE6 DUP2 DUP9 ADD DUP5 ISZERO ISZERO SWAP1 MSTORE JUMP JUMPDEST DUP8 ADD MLOAD SWAP2 POP PUSH2 0x180 PUSH2 0x3EFB DUP8 DUP3 ADD DUP5 ISZERO ISZERO SWAP1 MSTORE JUMP JUMPDEST DUP1 DUP9 ADD MLOAD SWAP3 POP POP PUSH2 0x1A0 DUP3 DUP2 DUP9 ADD MSTORE DUP1 DUP9 ADD MLOAD SWAP3 POP POP PUSH2 0x1C0 DUP2 DUP8 DUP7 SUB ADD DUP2 DUP9 ADD MSTORE PUSH2 0x3F27 DUP6 DUP5 PUSH2 0x3B24 JUMP JUMPDEST SWAP5 POP DUP1 DUP9 ADD MLOAD SWAP3 POP POP PUSH2 0x1E0 DUP2 DUP8 DUP7 SUB ADD DUP2 DUP9 ADD MSTORE PUSH2 0x3F46 DUP6 DUP5 PUSH2 0x3AE0 JUMP JUMPDEST SWAP5 POP DUP1 DUP9 ADD MLOAD SWAP3 POP POP PUSH2 0x200 DUP2 DUP8 DUP7 SUB ADD DUP2 DUP9 ADD MSTORE PUSH2 0x3F65 DUP6 DUP5 PUSH2 0x3AE0 JUMP JUMPDEST SWAP1 DUP9 ADD MLOAD PUSH2 0x220 DUP9 DUP2 ADD SWAP2 SWAP1 SWAP2 MSTORE DUP9 ADD MLOAD PUSH2 0x240 DUP1 DUP10 ADD SWAP2 SWAP1 SWAP2 MSTORE DUP9 ADD MLOAD PUSH2 0x260 DUP1 DUP10 ADD SWAP2 SWAP1 SWAP2 MSTORE DUP9 ADD MLOAD PUSH2 0x280 DUP1 DUP10 ADD SWAP2 SWAP1 SWAP2 MSTORE DUP9 ADD MLOAD SWAP1 SWAP5 POP SWAP2 POP PUSH2 0x2A0 SWAP1 POP PUSH2 0x3FB4 DUP2 DUP8 ADD DUP4 ISZERO ISZERO SWAP1 MSTORE JUMP JUMPDEST DUP7 ADD MLOAD SWAP1 POP PUSH2 0x2C0 PUSH2 0x3FC9 DUP7 DUP3 ADD DUP4 ISZERO ISZERO SWAP1 MSTORE JUMP JUMPDEST DUP7 ADD MLOAD SWAP1 POP PUSH2 0x3FDA DUP6 DUP4 ADD DUP3 PUSH2 0x3C8F JUMP JUMPDEST POP SWAP1 SWAP5 SWAP4 POP POP POP POP JUMP JUMPDEST PUSH1 0x40 MLOAD PUSH1 0xA0 DUP2 ADD PUSH8 0xFFFFFFFFFFFFFFFF DUP2 GT DUP3 DUP3 LT OR ISZERO PUSH2 0x4007 JUMPI PUSH2 0x4007 PUSH2 0x4187 JUMP JUMPDEST PUSH1 0x40 MSTORE SWAP1 JUMP JUMPDEST PUSH1 0x40 MLOAD PUSH1 0xE0 DUP2 ADD PUSH8 0xFFFFFFFFFFFFFFFF DUP2 GT DUP3 DUP3 LT OR ISZERO PUSH2 0x4007 JUMPI PUSH2 0x4007 PUSH2 0x4187 JUMP JUMPDEST PUSH1 0x40 MLOAD PUSH2 0x1A0 DUP2 ADD PUSH8 0xFFFFFFFFFFFFFFFF DUP2 GT DUP3 DUP3 LT OR ISZERO PUSH2 0x4007 JUMPI PUSH2 0x4007 PUSH2 0x4187 JUMP JUMPDEST PUSH1 0x40 MLOAD PUSH1 0x1F DUP3 ADD PUSH1 0x1F NOT AND DUP2 ADD PUSH8 0xFFFFFFFFFFFFFFFF DUP2 GT DUP3 DUP3 LT OR ISZERO PUSH2 0x407D JUMPI PUSH2 0x407D PUSH2 0x4187 JUMP JUMPDEST PUSH1 0x40 MSTORE SWAP2 SWAP1 POP JUMP JUMPDEST PUSH1 0x0 PUSH8 0xFFFFFFFFFFFFFFFF DUP3 GT ISZERO PUSH2 0x409F JUMPI PUSH2 0x409F PUSH2 0x4187 JUMP JUMPDEST POP PUSH1 0x5 SHL PUSH1 0x20 ADD SWAP1 JUMP JUMPDEST PUSH1 0x0 DUP3 NOT DUP3 GT ISZERO PUSH2 0x40BC JUMPI PUSH2 0x40BC PUSH2 0x4145 JUMP JUMPDEST POP ADD SWAP1 JUMP JUMPDEST PUSH1 0x0 DUP3 DUP3 LT ISZERO PUSH2 0x40D3 JUMPI PUSH2 0x40D3 PUSH2 0x4145 JUMP JUMPDEST POP SUB SWAP1 JUMP JUMPDEST PUSH1 0x0 DUP2 PUSH2 0x40E7 JUMPI PUSH2 0x40E7 PUSH2 0x4145 JUMP JUMPDEST POP PUSH1 0x0 NOT ADD SWAP1 JUMP JUMPDEST PUSH1 0x1 DUP2 DUP2 SHR SWAP1 DUP3 AND DUP1 PUSH2 0x4103 JUMPI PUSH1 0x7F DUP3 AND SWAP2 POP JUMPDEST PUSH1 0x20 DUP3 LT DUP2 EQ ISZERO PUSH2 0x4124 JUMPI PUSH4 0x4E487B71 PUSH1 0xE0 SHL PUSH1 0x0 MSTORE PUSH1 0x22 PUSH1 0x4 MSTORE PUSH1 0x24 PUSH1 0x0 REVERT JUMPDEST POP SWAP2 SWAP1 POP JUMP JUMPDEST PUSH1 0x0 PUSH1 0x0 NOT DUP3 EQ ISZERO PUSH2 0x413E JUMPI PUSH2 0x413E PUSH2 0x4145 JUMP JUMPDEST POP PUSH1 0x1 ADD SWAP1 JUMP JUMPDEST PUSH4 0x4E487B71 PUSH1 0xE0 SHL PUSH1 0x0 MSTORE PUSH1 0x11 PUSH1 0x4 MSTORE PUSH1 0x24 PUSH1 0x0 REVERT JUMPDEST PUSH4 0x4E487B71 PUSH1 0xE0 SHL PUSH1 0x0 MSTORE PUSH1 0x21 PUSH1 0x4 MSTORE PUSH1 0x24 PUSH1 0x0 REVERT JUMPDEST PUSH4 0x4E487B71 PUSH1 0xE0 SHL PUSH1 0x0 MSTORE PUSH1 0x32 PUSH1 0x4 MSTORE PUSH1 0x24 PUSH1 0x0 REVERT JUMPDEST PUSH4 0x4E487B71 PUSH1 0xE0 SHL PUSH1 0x0 MSTORE PUSH1 0x41 PUSH1 0x4 MSTORE PUSH1 0x24 PUSH1 0x0 REVERT INVALID LOG2 PUSH5 0x6970667358 0x22 SLT KECCAK256 0x4E GT 0xD3 CREATE2 0xE7 NUMBER 0xE0 SAR CALLER CALLDATACOPY 0xDB 0xC0 0xDD 0xC1 0x4E 0x26 0xC4 0xEE PUSH31 0xAB71DA26217BE194662954ECDE64736F6C6343000807003300000000000000 "
				},
				"gasEstimates": {
					"creation": {
						"codeDepositCost": "3370200",
						"executionCost": "29596",
						"totalCost": "3399796"
					},
					"external": {
						"addCount()": "26661",
						"addPay(address,uint256)": "26921",
						"addProject((uint256,string,string,uint256,uint256,uint256,uint256[],uint256,uint256,bool,bool,uint256,((string,uint256,uint256,uint256,uint256,uint256,string),uint256,string,uint8,uint256)[]),address)": "infinite",
						"addTransNumber(uint256)": "26815",
						"addTransWaitNumber(uint256,address)": "27013",
						"addTranslators(uint256,address)": "51206",
						"addVf(uint256,address)": "51161",
						"addVfNumber(uint256)": "26857",
						"addVfWaitNumber(uint256,address)": "26993",
						"changeFileState(uint256,uint256,uint8)": "29154",
						"changeProjectState(uint256,uint8)": "26853",
						"changeTaskTransState(uint256,address,uint256,uint8)": "27108",
						"changeTaskVfState(uint256,address,uint256,uint8)": "27119",
						"changeTransActive(uint256,bool)": "26904",
						"changeVerActive(uint256,bool)": "26873",
						"decutTransWaitNumber(uint256,address)": "27025",
						"decutVfWaitNumber(uint256,address)": "27047",
						"deductPay(address,uint256)": "26917",
						"getAcceptTransNumber(uint256,address)": "2757",
						"getAcceptVfNumber(uint256,address)": "2741",
						"getBuyer(uint256)": "2567",
						"getCount()": "2349",
						"getFileBounty(uint256,uint256)": "4746",
						"getFileState(uint256,uint256)": "4896",
						"getFiles(uint256)": "infinite",
						"getPay(address)": "2637",
						"getProjectOne(uint256)": "infinite",
						"getTaskBounty(uint256)": "2500",
						"getTaskState(uint256)": "2674",
						"getTaskStateTrans(uint256)": "2568",
						"getTaskStateVf(uint256)": "2580",
						"getTransNumber(uint256)": "2522",
						"getTransTaskInfo(uint256,address)": "infinite",
						"getTransWaitNumber(uint256,address)": "2704",
						"getTranslatorsList(uint256)": "infinite",
						"getVfList(uint256)": "infinite",
						"getVfNumber(uint256)": "2543",
						"getVfTaskInfo(uint256,address)": "infinite",
						"getVfWaitNumber(uint256,address)": "2704",
						"isAccept(address,uint256,uint256)": "5272",
						"isCustomizeState(uint256)": "2536",
						"isFull(uint256,bool)": "4812",
						"isUsedToTrans(uint256,uint256,address)": "27019",
						"isUsedToVf(uint256,uint256,address)": "27064",
						"overTimeTasker(uint256,address,bool)": "infinite",
						"owner()": "2399",
						"pushTaskTransIndex(uint256,address,uint256)": "49137",
						"pushTaskVfIndex(uint256,address,uint256)": "49136",
						"renounceOwnership()": "infinite",
						"setAccessAddress(address)": "26813",
						"submitFileByTrans(uint256,address,uint256,string)": "infinite",
						"submitFileByVf(uint256,address,uint256,string)": "infinite",
						"transferOwnership(address)": "28409",
						"updateProject(uint256,(uint256,string,string,uint256,uint256,uint256,uint256[],uint256,uint256,bool,bool,uint256,((string,uint256,uint256,uint256,uint256,uint256,string),uint256,string,uint8,uint256)[]))": "infinite"
					}
				},
				"methodIdentifiers": {
					"addCount()": "6cefce6e",
					"addPay(address,uint256)": "172372c2",
					"addProject((uint256,string,string,uint256,uint256,uint256,uint256[],uint256,uint256,bool,bool,uint256,((string,uint256,uint256,uint256,uint256,uint256,string),uint256,string,uint8,uint256)[]),address)": "a74deb9b",
					"addTransNumber(uint256)": "429edaa2",
					"addTransWaitNumber(uint256,address)": "90f4d674",
					"addTranslators(uint256,address)": "31d396ce",
					"addVf(uint256,address)": "992d60f3",
					"addVfNumber(uint256)": "ca74a589",
					"addVfWaitNumber(uint256,address)": "03f95ed1",
					"changeFileState(uint256,uint256,uint8)": "1fa2bf4c",
					"changeProjectState(uint256,uint8)": "17e925d7",
					"changeTaskTransState(uint256,address,uint256,uint8)": "19f17088",
					"changeTaskVfState(uint256,address,uint256,uint8)": "6c431904",
					"changeTransActive(uint256,bool)": "63e3ccad",
					"changeVerActive(uint256,bool)": "c061bb82",
					"decutTransWaitNumber(uint256,address)": "c16da060",
					"decutVfWaitNumber(uint256,address)": "7b3f4717",
					"deductPay(address,uint256)": "57840da6",
					"getAcceptTransNumber(uint256,address)": "193620e7",
					"getAcceptVfNumber(uint256,address)": "790485f9",
					"getBuyer(uint256)": "5bf608b8",
					"getCount()": "a87d942c",
					"getFileBounty(uint256,uint256)": "e1ca7ca7",
					"getFileState(uint256,uint256)": "ad607c72",
					"getFiles(uint256)": "12506f4d",
					"getPay(address)": "d3d7bc3b",
					"getProjectOne(uint256)": "25e78e70",
					"getTaskBounty(uint256)": "6e973982",
					"getTaskState(uint256)": "ffcce776",
					"getTaskStateTrans(uint256)": "9722f099",
					"getTaskStateVf(uint256)": "546677aa",
					"getTransNumber(uint256)": "d2fed69c",
					"getTransTaskInfo(uint256,address)": "5fed5eb2",
					"getTransWaitNumber(uint256,address)": "21d90a27",
					"getTranslatorsList(uint256)": "983a12a8",
					"getVfList(uint256)": "b647eec3",
					"getVfNumber(uint256)": "f8626ebb",
					"getVfTaskInfo(uint256,address)": "7c35beb7",
					"getVfWaitNumber(uint256,address)": "869a7365",
					"isAccept(address,uint256,uint256)": "7d88dadf",
					"isCustomizeState(uint256)": "7c34eb85",
					"isFull(uint256,bool)": "8a9a9ff3",
					"isUsedToTrans(uint256,uint256,address)": "ce098054",
					"isUsedToVf(uint256,uint256,address)": "6d8d1daf",
					"overTimeTasker(uint256,address,bool)": "8b3f3a6f",
					"owner()": "8da5cb5b",
					"pushTaskTransIndex(uint256,address,uint256)": "271ff03f",
					"pushTaskVfIndex(uint256,address,uint256)": "a1e047f3",
					"renounceOwnership()": "715018a6",
					"setAccessAddress(address)": "ad5f7ab0",
					"submitFileByTrans(uint256,address,uint256,string)": "33e68dcd",
					"submitFileByVf(uint256,address,uint256,string)": "05c3f9c9",
					"transferOwnership(address)": "f2fde38b",
					"updateProject(uint256,(uint256,string,string,uint256,uint256,uint256,uint256[],uint256,uint256,bool,bool,uint256,((string,uint256,uint256,uint256,uint256,uint256,string),uint256,string,uint8,uint256)[]))": "1af5fa16"
				}
			},
			"storageLayout": {
				"storage": [
					{
						"astId": 1807,
						"contract": "AmphiTrans.sol:AmphiTrans",
						"label": "_owner",
						"offset": 0,
						"slot": "0",
						"type": "t_address"
					},
					{
						"astId": 15,
						"contract": "AmphiTrans.sol:AmphiTrans",
						"label": "taskList",
						"offset": 0,
						"slot": "1",
						"type": "t_mapping(t_uint256,t_struct(TranslationPro)1756_storage)"
					},
					{
						"astId": 19,
						"contract": "AmphiTrans.sol:AmphiTrans",
						"label": "payList",
						"offset": 0,
						"slot": "2",
						"type": "t_mapping(t_address,t_uint256)"
					},
					{
						"astId": 26,
						"contract": "AmphiTrans.sol:AmphiTrans",
						"label": "transInfo",
						"offset": 0,
						"slot": "3",
						"type": "t_mapping(t_uint256,t_mapping(t_address,t_struct(Tasker)1672_storage))"
					},
					{
						"astId": 33,
						"contract": "AmphiTrans.sol:AmphiTrans",
						"label": "vfInfo",
						"offset": 0,
						"slot": "4",
						"type": "t_mapping(t_uint256,t_mapping(t_address,t_struct(Tasker)1672_storage))"
					},
					{
						"astId": 35,
						"contract": "AmphiTrans.sol:AmphiTrans",
						"label": "count",
						"offset": 0,
						"slot": "5",
						"type": "t_uint256"
					},
					{
						"astId": 37,
						"contract": "AmphiTrans.sol:AmphiTrans",
						"label": "accessAddress",
						"offset": 0,
						"slot": "6",
						"type": "t_address"
					}
				],
				"types": {
					"t_address": {
						"encoding": "inplace",
						"label": "address",
						"numberOfBytes": "20"
					},
					"t_array(t_address)dyn_storage": {
						"base": "t_address",
						"encoding": "dynamic_array",
						"label": "address[]",
						"numberOfBytes": "32"
					},
					"t_array(t_struct(TaskInfo)1685_storage)dyn_storage": {
						"base": "t_struct(TaskInfo)1685_storage",
						"encoding": "dynamic_array",
						"label": "struct LibProject.TaskInfo[]",
						"numberOfBytes": "32"
					},
					"t_array(t_uint256)dyn_storage": {
						"base": "t_uint256",
						"encoding": "dynamic_array",
						"label": "uint256[]",
						"numberOfBytes": "32"
					},
					"t_bool": {
						"encoding": "inplace",
						"label": "bool",
						"numberOfBytes": "1"
					},
					"t_enum(FileState)1646": {
						"encoding": "inplace",
						"label": "enum LibProject.FileState",
						"numberOfBytes": "1"
					},
					"t_enum(ProjectState)1627": {
						"encoding": "inplace",
						"label": "enum LibProject.ProjectState",
						"numberOfBytes": "1"
					},
					"t_enum(TaskerState)1633": {
						"encoding": "inplace",
						"label": "enum LibProject.TaskerState",
						"numberOfBytes": "1"
					},
					"t_mapping(t_address,t_struct(Tasker)1672_storage)": {
						"encoding": "mapping",
						"key": "t_address",
						"label": "mapping(address => struct LibProject.Tasker)",
						"numberOfBytes": "32",
						"value": "t_struct(Tasker)1672_storage"
					},
					"t_mapping(t_address,t_uint256)": {
						"encoding": "mapping",
						"key": "t_address",
						"label": "mapping(address => uint256)",
						"numberOfBytes": "32",
						"value": "t_uint256"
					},
					"t_mapping(t_uint256,t_mapping(t_address,t_struct(Tasker)1672_storage))": {
						"encoding": "mapping",
						"key": "t_uint256",
						"label": "mapping(uint256 => mapping(address => struct LibProject.Tasker))",
						"numberOfBytes": "32",
						"value": "t_mapping(t_address,t_struct(Tasker)1672_storage)"
					},
					"t_mapping(t_uint256,t_struct(FileIndexInfo)1693_storage)": {
						"encoding": "mapping",
						"key": "t_uint256",
						"label": "mapping(uint256 => struct LibProject.FileIndexInfo)",
						"numberOfBytes": "32",
						"value": "t_struct(FileIndexInfo)1693_storage"
					},
					"t_mapping(t_uint256,t_struct(TranslationPro)1756_storage)": {
						"encoding": "mapping",
						"key": "t_uint256",
						"label": "mapping(uint256 => struct LibProject.TranslationPro)",
						"numberOfBytes": "32",
						"value": "t_struct(TranslationPro)1756_storage"
					},
					"t_string_storage": {
						"encoding": "bytes",
						"label": "string",
						"numberOfBytes": "32"
					},
					"t_struct(FileIndexInfo)1693_storage": {
						"encoding": "inplace",
						"label": "struct LibProject.FileIndexInfo",
						"members": [
							{
								"astId": 1688,
								"contract": "AmphiTrans.sol:AmphiTrans",
								"label": "state",
								"offset": 0,
								"slot": "0",
								"type": "t_enum(TaskerState)1633"
							},
							{
								"astId": 1690,
								"contract": "AmphiTrans.sol:AmphiTrans",
								"label": "file",
								"offset": 0,
								"slot": "1",
								"type": "t_string_storage"
							},
							{
								"astId": 1692,
								"contract": "AmphiTrans.sol:AmphiTrans",
								"label": "isUsed",
								"offset": 0,
								"slot": "2",
								"type": "t_bool"
							}
						],
						"numberOfBytes": "96"
					},
					"t_struct(FileInfo)1661_storage": {
						"encoding": "inplace",
						"label": "struct LibProject.FileInfo",
						"members": [
							{
								"astId": 1648,
								"contract": "AmphiTrans.sol:AmphiTrans",
								"label": "name",
								"offset": 0,
								"slot": "0",
								"type": "t_string_storage"
							},
							{
								"astId": 1650,
								"contract": "AmphiTrans.sol:AmphiTrans",
								"label": "size",
								"offset": 0,
								"slot": "1",
								"type": "t_uint256"
							},
							{
								"astId": 1652,
								"contract": "AmphiTrans.sol:AmphiTrans",
								"label": "videoLength",
								"offset": 0,
								"slot": "2",
								"type": "t_uint256"
							},
							{
								"astId": 1654,
								"contract": "AmphiTrans.sol:AmphiTrans",
								"label": "Page",
								"offset": 0,
								"slot": "3",
								"type": "t_uint256"
							},
							{
								"astId": 1656,
								"contract": "AmphiTrans.sol:AmphiTrans",
								"label": "words",
								"offset": 0,
								"slot": "4",
								"type": "t_uint256"
							},
							{
								"astId": 1658,
								"contract": "AmphiTrans.sol:AmphiTrans",
								"label": "fileType",
								"offset": 0,
								"slot": "5",
								"type": "t_uint256"
							},
							{
								"astId": 1660,
								"contract": "AmphiTrans.sol:AmphiTrans",
								"label": "path",
								"offset": 0,
								"slot": "6",
								"type": "t_string_storage"
							}
						],
						"numberOfBytes": "224"
					},
					"t_struct(TaskInfo)1685_storage": {
						"encoding": "inplace",
						"label": "struct LibProject.TaskInfo",
						"members": [
							{
								"astId": 1675,
								"contract": "AmphiTrans.sol:AmphiTrans",
								"label": "file",
								"offset": 0,
								"slot": "0",
								"type": "t_struct(FileInfo)1661_storage"
							},
							{
								"astId": 1677,
								"contract": "AmphiTrans.sol:AmphiTrans",
								"label": "bounty",
								"offset": 0,
								"slot": "7",
								"type": "t_uint256"
							},
							{
								"astId": 1679,
								"contract": "AmphiTrans.sol:AmphiTrans",
								"label": "info",
								"offset": 0,
								"slot": "8",
								"type": "t_string_storage"
							},
							{
								"astId": 1682,
								"contract": "AmphiTrans.sol:AmphiTrans",
								"label": "state",
								"offset": 0,
								"slot": "9",
								"type": "t_enum(FileState)1646"
							},
							{
								"astId": 1684,
								"contract": "AmphiTrans.sol:AmphiTrans",
								"label": "lastUpload",
								"offset": 0,
								"slot": "10",
								"type": "t_uint256"
							}
						],
						"numberOfBytes": "352"
					},
					"t_struct(Tasker)1672_storage": {
						"encoding": "inplace",
						"label": "struct LibProject.Tasker",
						"members": [
							{
								"astId": 1664,
								"contract": "AmphiTrans.sol:AmphiTrans",
								"label": "taskIndex",
								"offset": 0,
								"slot": "0",
								"type": "t_array(t_uint256)dyn_storage"
							},
							{
								"astId": 1666,
								"contract": "AmphiTrans.sol:AmphiTrans",
								"label": "number",
								"offset": 0,
								"slot": "1",
								"type": "t_uint256"
							},
							{
								"astId": 1671,
								"contract": "AmphiTrans.sol:AmphiTrans",
								"label": "info",
								"offset": 0,
								"slot": "2",
								"type": "t_mapping(t_uint256,t_struct(FileIndexInfo)1693_storage)"
							}
						],
						"numberOfBytes": "96"
					},
					"t_struct(TranslationPro)1756_storage": {
						"encoding": "inplace",
						"label": "struct LibProject.TranslationPro",
						"members": [
							{
								"astId": 1705,
								"contract": "AmphiTrans.sol:AmphiTrans",
								"label": "buyer",
								"offset": 0,
								"slot": "0",
								"type": "t_address"
							},
							{
								"astId": 1707,
								"contract": "AmphiTrans.sol:AmphiTrans",
								"label": "releaseTime",
								"offset": 0,
								"slot": "1",
								"type": "t_uint256"
							},
							{
								"astId": 1709,
								"contract": "AmphiTrans.sol:AmphiTrans",
								"label": "introduce",
								"offset": 0,
								"slot": "2",
								"type": "t_string_storage"
							},
							{
								"astId": 1711,
								"contract": "AmphiTrans.sol:AmphiTrans",
								"label": "need",
								"offset": 0,
								"slot": "3",
								"type": "t_string_storage"
							},
							{
								"astId": 1713,
								"contract": "AmphiTrans.sol:AmphiTrans",
								"label": "deadline",
								"offset": 0,
								"slot": "4",
								"type": "t_uint256"
							},
							{
								"astId": 1715,
								"contract": "AmphiTrans.sol:AmphiTrans",
								"label": "sourceLanguage",
								"offset": 0,
								"slot": "5",
								"type": "t_uint256"
							},
							{
								"astId": 1717,
								"contract": "AmphiTrans.sol:AmphiTrans",
								"label": "goalLanguage",
								"offset": 0,
								"slot": "6",
								"type": "t_uint256"
							},
							{
								"astId": 1720,
								"contract": "AmphiTrans.sol:AmphiTrans",
								"label": "preferList",
								"offset": 0,
								"slot": "7",
								"type": "t_array(t_uint256)dyn_storage"
							},
							{
								"astId": 1722,
								"contract": "AmphiTrans.sol:AmphiTrans",
								"label": "translationType",
								"offset": 0,
								"slot": "8",
								"type": "t_uint256"
							},
							{
								"astId": 1724,
								"contract": "AmphiTrans.sol:AmphiTrans",
								"label": "workLoad",
								"offset": 0,
								"slot": "9",
								"type": "t_uint256"
							},
							{
								"astId": 1726,
								"contract": "AmphiTrans.sol:AmphiTrans",
								"label": "isNonDisclosure",
								"offset": 0,
								"slot": "10",
								"type": "t_bool"
							},
							{
								"astId": 1728,
								"contract": "AmphiTrans.sol:AmphiTrans",
								"label": "isCustomize",
								"offset": 1,
								"slot": "10",
								"type": "t_bool"
							},
							{
								"astId": 1730,
								"contract": "AmphiTrans.sol:AmphiTrans",
								"label": "bounty",
								"offset": 0,
								"slot": "11",
								"type": "t_uint256"
							},
							{
								"astId": 1734,
								"contract": "AmphiTrans.sol:AmphiTrans",
								"label": "tasks",
								"offset": 0,
								"slot": "12",
								"type": "t_array(t_struct(TaskInfo)1685_storage)dyn_storage"
							},
							{
								"astId": 1737,
								"contract": "AmphiTrans.sol:AmphiTrans",
								"label": "translators",
								"offset": 0,
								"slot": "13",
								"type": "t_array(t_address)dyn_storage"
							},
							{
								"astId": 1740,
								"contract": "AmphiTrans.sol:AmphiTrans",
								"label": "verifiers",
								"offset": 0,
								"slot": "14",
								"type": "t_array(t_address)dyn_storage"
							},
							{
								"astId": 1742,
								"contract": "AmphiTrans.sol:AmphiTrans",
								"label": "maxT",
								"offset": 0,
								"slot": "15",
								"type": "t_uint256"
							},
							{
								"astId": 1744,
								"contract": "AmphiTrans.sol:AmphiTrans",
								"label": "maxV",
								"offset": 0,
								"slot": "16",
								"type": "t_uint256"
							},
							{
								"astId": 1746,
								"contract": "AmphiTrans.sol:AmphiTrans",
								"label": "numberT",
								"offset": 0,
								"slot": "17",
								"type": "t_uint256"
							},
							{
								"astId": 1748,
								"contract": "AmphiTrans.sol:AmphiTrans",
								"label": "numberV",
								"offset": 0,
								"slot": "18",
								"type": "t_uint256"
							},
							{
								"astId": 1750,
								"contract": "AmphiTrans.sol:AmphiTrans",
								"label": "isTransActive",
								"offset": 0,
								"slot": "19",
								"type": "t_bool"
							},
							{
								"astId": 1752,
								"contract": "AmphiTrans.sol:AmphiTrans",
								"label": "isVerActive",
								"offset": 1,
								"slot": "19",
								"type": "t_bool"
							},
							{
								"astId": 1755,
								"contract": "AmphiTrans.sol:AmphiTrans",
								"label": "state",
								"offset": 2,
								"slot": "19",
								"type": "t_enum(ProjectState)1627"
							}
						],
						"numberOfBytes": "640"
					},
					"t_uint256": {
						"encoding": "inplace",
						"label": "uint256",
						"numberOfBytes": "32"
					}
				}
			},
			"userdoc": {
				"kind": "user",
				"methods": {},
				"version": 1
			}
		}
	}
}