{
	"test.sol": {
		"test": {
			"abi": [
				{
					"inputs": [],
					"name": "aaa",
					"outputs": [
						{
							"internalType": "bool",
							"name": "",
							"type": "bool"
						}
					],
					"stateMutability": "pure",
					"type": "function"
				},
				{
					"inputs": [],
					"name": "ttt",
					"outputs": [
						{
							"internalType": "bool",
							"name": "",
							"type": "bool"
						}
					],
					"stateMutability": "pure",
					"type": "function"
				}
			],
			"devdoc": {
				"kind": "dev",
				"methods": {},
				"version": 1
			},
			"evm": {
				"assembly": "    /* \"test.sol\":100:269  contract test {\r... */\n  mstore(0x40, 0x80)\n  callvalue\n  dup1\n  iszero\n  tag_1\n  jumpi\n  0x00\n  dup1\n  revert\ntag_1:\n  pop\n  dataSize(sub_0)\n  dup1\n  dataOffset(sub_0)\n  0x00\n  codecopy\n  0x00\n  return\nstop\n\nsub_0: assembly {\n        /* \"test.sol\":100:269  contract test {\r... */\n      mstore(0x40, 0x80)\n      callvalue\n      dup1\n      iszero\n      tag_1\n      jumpi\n      0x00\n      dup1\n      revert\n    tag_1:\n      pop\n      jumpi(tag_2, lt(calldatasize, 0x04))\n      shr(0xe0, calldataload(0x00))\n      dup1\n      0x937c0d0a\n      eq\n      tag_3\n      jumpi\n      dup1\n      0xd59809c5\n      eq\n      tag_4\n      jumpi\n    tag_2:\n      0x00\n      dup1\n      revert\n        /* \"test.sol\":197:266  function aaa()public pure returns(bool){\r... */\n    tag_3:\n      tag_5\n      tag_6\n      jump\t// in\n    tag_5:\n      mload(0x40)\n      tag_7\n      swap2\n      swap1\n      tag_8\n      jump\t// in\n    tag_7:\n      mload(0x40)\n      dup1\n      swap2\n      sub\n      swap1\n      return\n        /* \"test.sol\":121:190  function ttt()public pure returns(bool){\r... */\n    tag_4:\n      tag_9\n      tag_10\n      jump\t// in\n    tag_9:\n      mload(0x40)\n      tag_11\n      swap2\n      swap1\n      tag_8\n      jump\t// in\n    tag_11:\n      mload(0x40)\n      dup1\n      swap2\n      sub\n      swap1\n      return\n        /* \"test.sol\":197:266  function aaa()public pure returns(bool){\r... */\n    tag_6:\n        /* \"test.sol\":231:235  bool */\n      0x00\n        /* \"test.sol\":257:258  3 */\n      0x03\n        /* \"test.sol\":254:255  3 */\n      dup1\n        /* \"test.sol\":254:258  3==3 */\n      eq\n        /* \"test.sol\":247:258  return 3==3 */\n      swap1\n      pop\n        /* \"test.sol\":197:266  function aaa()public pure returns(bool){\r... */\n      swap1\n      jump\t// out\n        /* \"test.sol\":121:190  function ttt()public pure returns(bool){\r... */\n    tag_10:\n        /* \"test.sol\":155:159  bool */\n      0x00\n        /* \"test.sol\":181:182  3 */\n      0x03\n        /* \"test.sol\":178:179  2 */\n      0x02\n        /* \"test.sol\":178:182  2==3 */\n      eq\n        /* \"test.sol\":171:182  return 2==3 */\n      swap1\n      pop\n        /* \"test.sol\":121:190  function ttt()public pure returns(bool){\r... */\n      swap1\n      jump\t// out\n        /* \"#utility.yul\":7:116   */\n    tag_15:\n        /* \"#utility.yul\":88:109   */\n      tag_17\n        /* \"#utility.yul\":103:108   */\n      dup2\n        /* \"#utility.yul\":88:109   */\n      tag_18\n      jump\t// in\n    tag_17:\n        /* \"#utility.yul\":83:86   */\n      dup3\n        /* \"#utility.yul\":76:110   */\n      mstore\n        /* \"#utility.yul\":66:116   */\n      pop\n      pop\n      jump\t// out\n        /* \"#utility.yul\":122:332   */\n    tag_8:\n        /* \"#utility.yul\":209:213   */\n      0x00\n        /* \"#utility.yul\":247:249   */\n      0x20\n        /* \"#utility.yul\":236:245   */\n      dup3\n        /* \"#utility.yul\":232:250   */\n      add\n        /* \"#utility.yul\":224:250   */\n      swap1\n      pop\n        /* \"#utility.yul\":260:325   */\n      tag_20\n        /* \"#utility.yul\":322:323   */\n      0x00\n        /* \"#utility.yul\":311:320   */\n      dup4\n        /* \"#utility.yul\":307:324   */\n      add\n        /* \"#utility.yul\":298:304   */\n      dup5\n        /* \"#utility.yul\":260:325   */\n      tag_15\n      jump\t// in\n    tag_20:\n        /* \"#utility.yul\":214:332   */\n      swap3\n      swap2\n      pop\n      pop\n      jump\t// out\n        /* \"#utility.yul\":338:428   */\n    tag_18:\n        /* \"#utility.yul\":372:379   */\n      0x00\n        /* \"#utility.yul\":415:420   */\n      dup2\n        /* \"#utility.yul\":408:421   */\n      iszero\n        /* \"#utility.yul\":401:422   */\n      iszero\n        /* \"#utility.yul\":390:422   */\n      swap1\n      pop\n        /* \"#utility.yul\":380:428   */\n      swap2\n      swap1\n      pop\n      jump\t// out\n\n    auxdata: 0xa26469706673582212208b91c7b3d0b27d7e5d1d698e2011c96b325b6d49f1634a0c25218fa0f57e79e864736f6c63430008060033\n}\n",
				"bytecode": {
					"linkReferences": {},
					"object": "608060405234801561001057600080fd5b5060ea8061001f6000396000f3fe6080604052348015600f57600080fd5b506004361060325760003560e01c8063937c0d0a146037578063d59809c5146051575b600080fd5b603d606b565b60405160489190608f565b60405180910390f35b60576076565b60405160629190608f565b60405180910390f35b600060038014905090565b60006003600214905090565b60898160a8565b82525050565b600060208201905060a260008301846082565b92915050565b6000811515905091905056fea26469706673582212208b91c7b3d0b27d7e5d1d698e2011c96b325b6d49f1634a0c25218fa0f57e79e864736f6c63430008060033",
					"opcodes": "PUSH1 0x80 PUSH1 0x40 MSTORE CALLVALUE DUP1 ISZERO PUSH2 0x10 JUMPI PUSH1 0x0 DUP1 REVERT JUMPDEST POP PUSH1 0xEA DUP1 PUSH2 0x1F PUSH1 0x0 CODECOPY PUSH1 0x0 RETURN INVALID PUSH1 0x80 PUSH1 0x40 MSTORE CALLVALUE DUP1 ISZERO PUSH1 0xF JUMPI PUSH1 0x0 DUP1 REVERT JUMPDEST POP PUSH1 0x4 CALLDATASIZE LT PUSH1 0x32 JUMPI PUSH1 0x0 CALLDATALOAD PUSH1 0xE0 SHR DUP1 PUSH4 0x937C0D0A EQ PUSH1 0x37 JUMPI DUP1 PUSH4 0xD59809C5 EQ PUSH1 0x51 JUMPI JUMPDEST PUSH1 0x0 DUP1 REVERT JUMPDEST PUSH1 0x3D PUSH1 0x6B JUMP JUMPDEST PUSH1 0x40 MLOAD PUSH1 0x48 SWAP2 SWAP1 PUSH1 0x8F JUMP JUMPDEST PUSH1 0x40 MLOAD DUP1 SWAP2 SUB SWAP1 RETURN JUMPDEST PUSH1 0x57 PUSH1 0x76 JUMP JUMPDEST PUSH1 0x40 MLOAD PUSH1 0x62 SWAP2 SWAP1 PUSH1 0x8F JUMP JUMPDEST PUSH1 0x40 MLOAD DUP1 SWAP2 SUB SWAP1 RETURN JUMPDEST PUSH1 0x0 PUSH1 0x3 DUP1 EQ SWAP1 POP SWAP1 JUMP JUMPDEST PUSH1 0x0 PUSH1 0x3 PUSH1 0x2 EQ SWAP1 POP SWAP1 JUMP JUMPDEST PUSH1 0x89 DUP2 PUSH1 0xA8 JUMP JUMPDEST DUP3 MSTORE POP POP JUMP JUMPDEST PUSH1 0x0 PUSH1 0x20 DUP3 ADD SWAP1 POP PUSH1 0xA2 PUSH1 0x0 DUP4 ADD DUP5 PUSH1 0x82 JUMP JUMPDEST SWAP3 SWAP2 POP POP JUMP JUMPDEST PUSH1 0x0 DUP2 ISZERO ISZERO SWAP1 POP SWAP2 SWAP1 POP JUMP INVALID LOG2 PUSH5 0x6970667358 0x22 SLT KECCAK256 DUP12 SWAP2 0xC7 0xB3 0xD0 0xB2 PUSH30 0x7E5D1D698E2011C96B325B6D49F1634A0C25218FA0F57E79E864736F6C63 NUMBER STOP ADDMOD MOD STOP CALLER "
				},
				"gasEstimates": {
					"creation": {
						"codeDepositCost": "46800",
						"executionCost": "99",
						"totalCost": "46899"
					},
					"external": {
						"aaa()": "327",
						"ttt()": "349"
					}
				},
				"methodIdentifiers": {
					"aaa()": "937c0d0a",
					"ttt()": "d59809c5"
				}
			},
			"storageLayout": {
				"storage": [],
				"types": null
			},
			"userdoc": {
				"kind": "user",
				"methods": {},
				"version": 1
			}
		}
	}
}