{
	"CalculateUtils.sol": {
		"CalculateUtils": {
			"abi": [
				{
					"inputs": [
						{
							"internalType": "string",
							"name": "",
							"type": "string"
						}
					],
					"name": "ParameterException",
					"type": "error"
				},
				{
					"anonymous": false,
					"inputs": [
						{
							"indexed": true,
							"internalType": "address",
							"name": "previousOwner",
							"type": "address"
						},
						{
							"indexed": true,
							"internalType": "address",
							"name": "newOwner",
							"type": "address"
						}
					],
					"name": "OwnershipTransferred",
					"type": "event"
				},
				{
					"inputs": [
						{
							"internalType": "uint256",
							"name": "_bounty",
							"type": "uint256"
						},
						{
							"internalType": "uint256",
							"name": "_deduct",
							"type": "uint256"
						}
					],
					"name": "getDeductMoney",
					"outputs": [
						{
							"internalType": "uint256",
							"name": "",
							"type": "uint256"
						}
					],
					"stateMutability": "pure",
					"type": "function"
				},
				{
					"inputs": [
						{
							"internalType": "uint256",
							"name": "_transNumber",
							"type": "uint256"
						}
					],
					"name": "getMatNumber",
					"outputs": [
						{
							"internalType": "uint256",
							"name": "",
							"type": "uint256"
						}
					],
					"stateMutability": "view",
					"type": "function"
				},
				{
					"inputs": [
						{
							"internalType": "uint256",
							"name": "_number",
							"type": "uint256"
						},
						{
							"internalType": "uint256",
							"name": "_ratio",
							"type": "uint256"
						}
					],
					"name": "getPercentage",
					"outputs": [
						{
							"internalType": "uint256",
							"name": "returnNumber",
							"type": "uint256"
						}
					],
					"stateMutability": "pure",
					"type": "function"
				},
				{
					"inputs": [
						{
							"internalType": "uint256",
							"name": "_ratio",
							"type": "uint256"
						},
						{
							"internalType": "uint256",
							"name": "_bounty",
							"type": "uint256"
						}
					],
					"name": "getPunish",
					"outputs": [
						{
							"internalType": "uint256",
							"name": "",
							"type": "uint256"
						}
					],
					"stateMutability": "pure",
					"type": "function"
				},
				{
					"inputs": [
						{
							"internalType": "uint256",
							"name": "_bounty",
							"type": "uint256"
						}
					],
					"name": "getTaskTrans",
					"outputs": [
						{
							"internalType": "uint256",
							"name": "_money",
							"type": "uint256"
						}
					],
					"stateMutability": "pure",
					"type": "function"
				},
				{
					"inputs": [
						{
							"internalType": "uint256",
							"name": "_bounty",
							"type": "uint256"
						}
					],
					"name": "getTaskTransEnd",
					"outputs": [
						{
							"internalType": "uint256",
							"name": "_money",
							"type": "uint256"
						}
					],
					"stateMutability": "pure",
					"type": "function"
				},
				{
					"inputs": [
						{
							"internalType": "uint256",
							"name": "_bounty",
							"type": "uint256"
						}
					],
					"name": "getTaskTransFirst",
					"outputs": [
						{
							"internalType": "uint256",
							"name": "_money",
							"type": "uint256"
						}
					],
					"stateMutability": "pure",
					"type": "function"
				},
				{
					"inputs": [
						{
							"internalType": "uint256",
							"name": "_bounty",
							"type": "uint256"
						}
					],
					"name": "getTaskVf",
					"outputs": [
						{
							"internalType": "uint256",
							"name": "_money",
							"type": "uint256"
						}
					],
					"stateMutability": "pure",
					"type": "function"
				},
				{
					"inputs": [],
					"name": "owner",
					"outputs": [
						{
							"internalType": "address",
							"name": "",
							"type": "address"
						}
					],
					"stateMutability": "view",
					"type": "function"
				},
				{
					"inputs": [
						{
							"internalType": "uint256",
							"name": "_bounts",
							"type": "uint256"
						}
					],
					"name": "punishRatio",
					"outputs": [
						{
							"internalType": "uint256",
							"name": "",
							"type": "uint256"
						}
					],
					"stateMutability": "view",
					"type": "function"
				},
				{
					"inputs": [],
					"name": "renounceOwnership",
					"outputs": [],
					"stateMutability": "nonpayable",
					"type": "function"
				},
				{
					"inputs": [
						{
							"internalType": "uint256",
							"name": "_rate",
							"type": "uint256"
						}
					],
					"name": "setRate",
					"outputs": [],
					"stateMutability": "nonpayable",
					"type": "function"
				},
				{
					"inputs": [
						{
							"internalType": "uint256",
							"name": "_vfN",
							"type": "uint256"
						}
					],
					"name": "setvfN",
					"outputs": [],
					"stateMutability": "nonpayable",
					"type": "function"
				},
				{
					"inputs": [
						{
							"internalType": "address",
							"name": "newOwner",
							"type": "address"
						}
					],
					"name": "transferOwnership",
					"outputs": [],
					"stateMutability": "nonpayable",
					"type": "function"
				}
			],
			"devdoc": {
				"kind": "dev",
				"methods": {
					"owner()": {
						"details": "Returns the address of the current owner."
					},
					"renounceOwnership()": {
						"details": "Leaves the contract without owner. It will not be possible to call `onlyOwner` functions anymore. Can only be called by the current owner. NOTE: Renouncing ownership will leave the contract without an owner, thereby removing any functionality that is only available to the owner."
					},
					"transferOwnership(address)": {
						"details": "Transfers ownership of the contract to a new account (`newOwner`). Can only be called by the current owner."
					}
				},
				"version": 1
			},
			"evm": {
				"assembly": "    /* \"CalculateUtils.sol\":184:3074  contract CalculateUtils is Ownable {\r... */\n  mstore(0x40, 0x80)\n    /* \"CalculateUtils.sol\":249:252  273 */\n  0x0111\n    /* \"CalculateUtils.sol\":226:252  uint256 private rate = 273 */\n  0x01\n  sstore\n    /* \"CalculateUtils.sol\":282:283  3 */\n  0x03\n    /* \"CalculateUtils.sol\":259:283  uint256 private vf_n = 3 */\n  0x02\n  sstore\n    /* \"CalculateUtils.sol\":184:3074  contract CalculateUtils is Ownable {\r... */\n  callvalue\n  dup1\n  iszero\n  tag_1\n  jumpi\n  0x00\n  dup1\n  revert\ntag_1:\n  pop\n    /* \"contracts/access/Ownable.sol\":936:968  _transferOwnership(_msgSender()) */\n  tag_4\n    /* \"contracts/access/Ownable.sol\":955:967  _msgSender() */\n  tag_5\n    /* \"contracts/access/Ownable.sol\":955:965  _msgSender */\n  shl(0x20, tag_6)\n    /* \"contracts/access/Ownable.sol\":955:967  _msgSender() */\n  0x20\n  shr\n  jump\t// in\ntag_5:\n    /* \"contracts/access/Ownable.sol\":936:954  _transferOwnership */\n  shl(0x20, tag_7)\n    /* \"contracts/access/Ownable.sol\":936:968  _transferOwnership(_msgSender()) */\n  0x20\n  shr\n  jump\t// in\ntag_4:\n    /* \"CalculateUtils.sol\":184:3074  contract CalculateUtils is Ownable {\r... */\n  jump(tag_8)\n    /* \"contracts/utils/Context.sol\":640:736  function _msgSender() internal view virtual returns (address) {... */\ntag_6:\n    /* \"contracts/utils/Context.sol\":693:700  address */\n  0x00\n    /* \"contracts/utils/Context.sol\":719:729  msg.sender */\n  caller\n    /* \"contracts/utils/Context.sol\":712:729  return msg.sender */\n  swap1\n  pop\n    /* \"contracts/utils/Context.sol\":640:736  function _msgSender() internal view virtual returns (address) {... */\n  swap1\n  jump\t// out\n    /* \"contracts/access/Ownable.sol\":2433:2620  function _transferOwnership(address newOwner) internal virtual {... */\ntag_7:\n    /* \"contracts/access/Ownable.sol\":2506:2522  address oldOwner */\n  0x00\n    /* \"contracts/access/Ownable.sol\":2525:2531  _owner */\n  dup1\n  0x00\n  swap1\n  sload\n  swap1\n  0x0100\n  exp\n  swap1\n  div\n  0xffffffffffffffffffffffffffffffffffffffff\n  and\n    /* \"contracts/access/Ownable.sol\":2506:2531  address oldOwner = _owner */\n  swap1\n  pop\n    /* \"contracts/access/Ownable.sol\":2550:2558  newOwner */\n  dup2\n    /* \"contracts/access/Ownable.sol\":2541:2547  _owner */\n  0x00\n  dup1\n    /* \"contracts/access/Ownable.sol\":2541:2558  _owner = newOwner */\n  0x0100\n  exp\n  dup2\n  sload\n  dup2\n  0xffffffffffffffffffffffffffffffffffffffff\n  mul\n  not\n  and\n  swap1\n  dup4\n  0xffffffffffffffffffffffffffffffffffffffff\n  and\n  mul\n  or\n  swap1\n  sstore\n  pop\n    /* \"contracts/access/Ownable.sol\":2604:2612  newOwner */\n  dup2\n    /* \"contracts/access/Ownable.sol\":2573:2613  OwnershipTransferred(oldOwner, newOwner) */\n  0xffffffffffffffffffffffffffffffffffffffff\n  and\n    /* \"contracts/access/Ownable.sol\":2594:2602  oldOwner */\n  dup2\n    /* \"contracts/access/Ownable.sol\":2573:2613  OwnershipTransferred(oldOwner, newOwner) */\n  0xffffffffffffffffffffffffffffffffffffffff\n  and\n  0x8be0079c531659141344cd1fd0a4f28419497f9722a3daafe3b4186f6b6457e0\n  mload(0x40)\n  mload(0x40)\n  dup1\n  swap2\n  sub\n  swap1\n  log3\n    /* \"contracts/access/Ownable.sol\":2496:2620  {... */\n  pop\n    /* \"contracts/access/Ownable.sol\":2433:2620  function _transferOwnership(address newOwner) internal virtual {... */\n  pop\n  jump\t// out\n    /* \"CalculateUtils.sol\":184:3074  contract CalculateUtils is Ownable {\r... */\ntag_8:\n  dataSize(sub_0)\n  dup1\n  dataOffset(sub_0)\n  0x00\n  codecopy\n  0x00\n  return\nstop\n\nsub_0: assembly {\n        /* \"CalculateUtils.sol\":184:3074  contract CalculateUtils is Ownable {\r... */\n      mstore(0x40, 0x80)\n      callvalue\n      dup1\n      iszero\n      tag_1\n      jumpi\n      0x00\n      dup1\n      revert\n    tag_1:\n      pop\n      jumpi(tag_2, lt(calldatasize, 0x04))\n      shr(0xe0, calldataload(0x00))\n      dup1\n      0x8f861ba7\n      gt\n      tag_17\n      jumpi\n      dup1\n      0xa730941d\n      gt\n      tag_18\n      jumpi\n      dup1\n      0xa730941d\n      eq\n      tag_13\n      jumpi\n      dup1\n      0xf2e60202\n      eq\n      tag_14\n      jumpi\n      dup1\n      0xf2fde38b\n      eq\n      tag_15\n      jumpi\n      dup1\n      0xf74f3655\n      eq\n      tag_16\n      jumpi\n      jump(tag_2)\n    tag_18:\n      dup1\n      0x8f861ba7\n      eq\n      tag_10\n      jumpi\n      dup1\n      0x9ce5c4bf\n      eq\n      tag_11\n      jumpi\n      dup1\n      0xa3cb7c55\n      eq\n      tag_12\n      jumpi\n      jump(tag_2)\n    tag_17:\n      dup1\n      0x5c830098\n      gt\n      tag_19\n      jumpi\n      dup1\n      0x5c830098\n      eq\n      tag_6\n      jumpi\n      dup1\n      0x6873e8d2\n      eq\n      tag_7\n      jumpi\n      dup1\n      0x715018a6\n      eq\n      tag_8\n      jumpi\n      dup1\n      0x8da5cb5b\n      eq\n      tag_9\n      jumpi\n      jump(tag_2)\n    tag_19:\n      dup1\n      0x31bfb377\n      eq\n      tag_3\n      jumpi\n      dup1\n      0x34fcf437\n      eq\n      tag_4\n      jumpi\n      dup1\n      0x4f6ca3ce\n      eq\n      tag_5\n      jumpi\n    tag_2:\n      0x00\n      dup1\n      revert\n        /* \"CalculateUtils.sol\":1342:1419  function setvfN(uint256 _vfN) public onlyOwner {\r... */\n    tag_3:\n      tag_20\n      0x04\n      dup1\n      calldatasize\n      sub\n      dup2\n      add\n      swap1\n      tag_21\n      swap2\n      swap1\n      tag_22\n      jump\t// in\n    tag_21:\n      tag_23\n      jump\t// in\n    tag_20:\n      stop\n        /* \"CalculateUtils.sol\":1179:1259  function setRate(uint256 _rate) public onlyOwner {\r... */\n    tag_4:\n      tag_24\n      0x04\n      dup1\n      calldatasize\n      sub\n      dup2\n      add\n      swap1\n      tag_25\n      swap2\n      swap1\n      tag_22\n      jump\t// in\n    tag_25:\n      tag_26\n      jump\t// in\n    tag_24:\n      stop\n        /* \"CalculateUtils.sol\":354:1151  function punishRatio(uint256 _bounts) public view returns (uint256) {\r... */\n    tag_5:\n      tag_27\n      0x04\n      dup1\n      calldatasize\n      sub\n      dup2\n      add\n      swap1\n      tag_28\n      swap2\n      swap1\n      tag_22\n      jump\t// in\n    tag_28:\n      tag_29\n      jump\t// in\n    tag_27:\n      mload(0x40)\n      tag_30\n      swap2\n      swap1\n      tag_31\n      jump\t// in\n    tag_30:\n      mload(0x40)\n      dup1\n      swap2\n      sub\n      swap1\n      return\n        /* \"CalculateUtils.sol\":2299:2426  function getTaskVf(uint256 _bounty) public pure returns (uint256 _money) {\r... */\n    tag_6:\n      tag_32\n      0x04\n      dup1\n      calldatasize\n      sub\n      dup2\n      add\n      swap1\n      tag_33\n      swap2\n      swap1\n      tag_22\n      jump\t// in\n    tag_33:\n      tag_34\n      jump\t// in\n    tag_32:\n      mload(0x40)\n      tag_35\n      swap2\n      swap1\n      tag_31\n      jump\t// in\n    tag_35:\n      mload(0x40)\n      dup1\n      swap2\n      sub\n      swap1\n      return\n        /* \"CalculateUtils.sol\":1745:1907  function getTaskTrans(uint256 _bounty)\r... */\n    tag_7:\n      tag_36\n      0x04\n      dup1\n      calldatasize\n      sub\n      dup2\n      add\n      swap1\n      tag_37\n      swap2\n      swap1\n      tag_22\n      jump\t// in\n    tag_37:\n      tag_38\n      jump\t// in\n    tag_36:\n      mload(0x40)\n      tag_39\n      swap2\n      swap1\n      tag_31\n      jump\t// in\n    tag_39:\n      mload(0x40)\n      dup1\n      swap2\n      sub\n      swap1\n      return\n        /* \"contracts/access/Ownable.sol\":1831:1932  function renounceOwnership() public virtual onlyOwner {... */\n    tag_8:\n      tag_40\n      tag_41\n      jump\t// in\n    tag_40:\n      stop\n        /* \"contracts/access/Ownable.sol\":1201:1286  function owner() public view virtual returns (address) {... */\n    tag_9:\n      tag_42\n      tag_43\n      jump\t// in\n    tag_42:\n      mload(0x40)\n      tag_44\n      swap2\n      swap1\n      tag_45\n      jump\t// in\n    tag_44:\n      mload(0x40)\n      dup1\n      swap2\n      sub\n      swap1\n      return\n        /* \"CalculateUtils.sol\":2894:3071  function getDeductMoney(uint256 _bounty, uint256 _deduct)\r... */\n    tag_10:\n      tag_46\n      0x04\n      dup1\n      calldatasize\n      sub\n      dup2\n      add\n      swap1\n      tag_47\n      swap2\n      swap1\n      tag_48\n      jump\t// in\n    tag_47:\n      tag_49\n      jump\t// in\n    tag_46:\n      mload(0x40)\n      tag_50\n      swap2\n      swap1\n      tag_31\n      jump\t// in\n    tag_50:\n      mload(0x40)\n      dup1\n      swap2\n      sub\n      swap1\n      return\n        /* \"CalculateUtils.sol\":2688:2857  function getPunish(uint256 _ratio, uint256 _bounty)\r... */\n    tag_11:\n      tag_51\n      0x04\n      dup1\n      calldatasize\n      sub\n      dup2\n      add\n      swap1\n      tag_52\n      swap2\n      swap1\n      tag_48\n      jump\t// in\n    tag_52:\n      tag_53\n      jump\t// in\n    tag_51:\n      mload(0x40)\n      tag_54\n      swap2\n      swap1\n      tag_31\n      jump\t// in\n    tag_54:\n      mload(0x40)\n      dup1\n      swap2\n      sub\n      swap1\n      return\n        /* \"CalculateUtils.sol\":1915:2080  function getTaskTransEnd(uint256 _bounty)\r... */\n    tag_12:\n      tag_55\n      0x04\n      dup1\n      calldatasize\n      sub\n      dup2\n      add\n      swap1\n      tag_56\n      swap2\n      swap1\n      tag_22\n      jump\t// in\n    tag_56:\n      tag_57\n      jump\t// in\n    tag_55:\n      mload(0x40)\n      tag_58\n      swap2\n      swap1\n      tag_31\n      jump\t// in\n    tag_58:\n      mload(0x40)\n      dup1\n      swap2\n      sub\n      swap1\n      return\n        /* \"CalculateUtils.sol\":2088:2255  function getTaskTransFirst(uint256 _bounty)\r... */\n    tag_13:\n      tag_59\n      0x04\n      dup1\n      calldatasize\n      sub\n      dup2\n      add\n      swap1\n      tag_60\n      swap2\n      swap1\n      tag_22\n      jump\t// in\n    tag_60:\n      tag_61\n      jump\t// in\n    tag_59:\n      mload(0x40)\n      tag_62\n      swap2\n      swap1\n      tag_31\n      jump\t// in\n    tag_62:\n      mload(0x40)\n      dup1\n      swap2\n      sub\n      swap1\n      return\n        /* \"CalculateUtils.sol\":1427:1701  function getMatNumber(uint256 _transNumber) public view returns (uint256) {\r... */\n    tag_14:\n      tag_63\n      0x04\n      dup1\n      calldatasize\n      sub\n      dup2\n      add\n      swap1\n      tag_64\n      swap2\n      swap1\n      tag_22\n      jump\t// in\n    tag_64:\n      tag_65\n      jump\t// in\n    tag_63:\n      mload(0x40)\n      tag_66\n      swap2\n      swap1\n      tag_31\n      jump\t// in\n    tag_66:\n      mload(0x40)\n      dup1\n      swap2\n      sub\n      swap1\n      return\n        /* \"contracts/access/Ownable.sol\":2081:2279  function transferOwnership(address newOwner) public virtual onlyOwner {... */\n    tag_15:\n      tag_67\n      0x04\n      dup1\n      calldatasize\n      sub\n      dup2\n      add\n      swap1\n      tag_68\n      swap2\n      swap1\n      tag_69\n      jump\t// in\n    tag_68:\n      tag_70\n      jump\t// in\n    tag_67:\n      stop\n        /* \"CalculateUtils.sol\":2460:2660  function getPercentage(uint256 _number, uint256 _ratio)\r... */\n    tag_16:\n      tag_71\n      0x04\n      dup1\n      calldatasize\n      sub\n      dup2\n      add\n      swap1\n      tag_72\n      swap2\n      swap1\n      tag_48\n      jump\t// in\n    tag_72:\n      tag_73\n      jump\t// in\n    tag_71:\n      mload(0x40)\n      tag_74\n      swap2\n      swap1\n      tag_31\n      jump\t// in\n    tag_74:\n      mload(0x40)\n      dup1\n      swap2\n      sub\n      swap1\n      return\n        /* \"CalculateUtils.sol\":1342:1419  function setvfN(uint256 _vfN) public onlyOwner {\r... */\n    tag_23:\n        /* \"contracts/access/Ownable.sol\":1094:1107  _checkOwner() */\n      tag_76\n        /* \"contracts/access/Ownable.sol\":1094:1105  _checkOwner */\n      tag_77\n        /* \"contracts/access/Ownable.sol\":1094:1107  _checkOwner() */\n      jump\t// in\n    tag_76:\n        /* \"CalculateUtils.sol\":1407:1411  _vfN */\n      dup1\n        /* \"CalculateUtils.sol\":1400:1404  vf_n */\n      0x02\n        /* \"CalculateUtils.sol\":1400:1411  vf_n = _vfN */\n      dup2\n      swap1\n      sstore\n      pop\n        /* \"CalculateUtils.sol\":1342:1419  function setvfN(uint256 _vfN) public onlyOwner {\r... */\n      pop\n      jump\t// out\n        /* \"CalculateUtils.sol\":1179:1259  function setRate(uint256 _rate) public onlyOwner {\r... */\n    tag_26:\n        /* \"contracts/access/Ownable.sol\":1094:1107  _checkOwner() */\n      tag_80\n        /* \"contracts/access/Ownable.sol\":1094:1105  _checkOwner */\n      tag_77\n        /* \"contracts/access/Ownable.sol\":1094:1107  _checkOwner() */\n      jump\t// in\n    tag_80:\n        /* \"CalculateUtils.sol\":1246:1251  _rate */\n      dup1\n        /* \"CalculateUtils.sol\":1239:1243  rate */\n      0x01\n        /* \"CalculateUtils.sol\":1239:1251  rate = _rate */\n      dup2\n      swap1\n      sstore\n      pop\n        /* \"CalculateUtils.sol\":1179:1259  function setRate(uint256 _rate) public onlyOwner {\r... */\n      pop\n      jump\t// out\n        /* \"CalculateUtils.sol\":354:1151  function punishRatio(uint256 _bounts) public view returns (uint256) {\r... */\n    tag_29:\n        /* \"CalculateUtils.sol\":413:420  uint256 */\n      0x00\n        /* \"CalculateUtils.sol\":433:446  uint256 ratio */\n      dup1\n        /* \"CalculateUtils.sol\":471:475  rate */\n      sload(0x01)\n        /* \"CalculateUtils.sol\":461:468  _bounts */\n      dup4\n        /* \"CalculateUtils.sol\":461:475  _bounts < rate */\n      lt\n        /* \"CalculateUtils.sol\":457:1121  if (_bounts < rate) {\r... */\n      iszero\n      tag_83\n      jumpi\n        /* \"CalculateUtils.sol\":500:501  1 */\n      0x01\n        /* \"CalculateUtils.sol\":492:501  ratio = 1 */\n      swap1\n      pop\n        /* \"CalculateUtils.sol\":457:1121  if (_bounts < rate) {\r... */\n      jump(tag_84)\n    tag_83:\n        /* \"CalculateUtils.sol\":534:538  rate */\n      sload(0x01)\n        /* \"CalculateUtils.sol\":523:530  _bounts */\n      dup4\n        /* \"CalculateUtils.sol\":523:538  _bounts >= rate */\n      lt\n      iszero\n        /* \"CalculateUtils.sol\":523:562  _bounts >= rate && _bounts < rate * 1e1 */\n      dup1\n      iszero\n      tag_85\n      jumpi\n      pop\n        /* \"CalculateUtils.sol\":559:562  1e1 */\n      0x0a\n        /* \"CalculateUtils.sol\":552:556  rate */\n      sload(0x01)\n        /* \"CalculateUtils.sol\":552:562  rate * 1e1 */\n      tag_86\n      swap2\n      swap1\n      tag_87\n      jump\t// in\n    tag_86:\n        /* \"CalculateUtils.sol\":542:549  _bounts */\n      dup4\n        /* \"CalculateUtils.sol\":542:562  _bounts < rate * 1e1 */\n      lt\n        /* \"CalculateUtils.sol\":523:562  _bounts >= rate && _bounts < rate * 1e1 */\n    tag_85:\n        /* \"CalculateUtils.sol\":519:1121  if (_bounts >= rate && _bounts < rate * 1e1) {\r... */\n      iszero\n      tag_88\n      jumpi\n        /* \"CalculateUtils.sol\":587:590  1e1 */\n      0x0a\n        /* \"CalculateUtils.sol\":579:590  ratio = 1e1 */\n      swap1\n      pop\n        /* \"CalculateUtils.sol\":519:1121  if (_bounts >= rate && _bounts < rate * 1e1) {\r... */\n      jump(tag_89)\n    tag_88:\n        /* \"CalculateUtils.sol\":630:633  1e1 */\n      0x0a\n        /* \"CalculateUtils.sol\":623:627  rate */\n      sload(0x01)\n        /* \"CalculateUtils.sol\":623:633  rate * 1e1 */\n      tag_90\n      swap2\n      swap1\n      tag_87\n      jump\t// in\n    tag_90:\n        /* \"CalculateUtils.sol\":612:619  _bounts */\n      dup4\n        /* \"CalculateUtils.sol\":612:633  _bounts >= rate * 1e1 */\n      lt\n      iszero\n        /* \"CalculateUtils.sol\":612:657  _bounts >= rate * 1e1 && _bounts < rate * 1e2 */\n      dup1\n      iszero\n      tag_91\n      jumpi\n      pop\n        /* \"CalculateUtils.sol\":654:657  1e2 */\n      0x64\n        /* \"CalculateUtils.sol\":647:651  rate */\n      sload(0x01)\n        /* \"CalculateUtils.sol\":647:657  rate * 1e2 */\n      tag_92\n      swap2\n      swap1\n      tag_87\n      jump\t// in\n    tag_92:\n        /* \"CalculateUtils.sol\":637:644  _bounts */\n      dup4\n        /* \"CalculateUtils.sol\":637:657  _bounts < rate * 1e2 */\n      lt\n        /* \"CalculateUtils.sol\":612:657  _bounts >= rate * 1e1 && _bounts < rate * 1e2 */\n    tag_91:\n        /* \"CalculateUtils.sol\":608:1121  if (_bounts >= rate * 1e1 && _bounts < rate * 1e2) {\r... */\n      iszero\n      tag_93\n      jumpi\n        /* \"CalculateUtils.sol\":682:685  1e2 */\n      0x64\n        /* \"CalculateUtils.sol\":674:685  ratio = 1e2 */\n      swap1\n      pop\n        /* \"CalculateUtils.sol\":608:1121  if (_bounts >= rate * 1e1 && _bounts < rate * 1e2) {\r... */\n      jump(tag_94)\n    tag_93:\n        /* \"CalculateUtils.sol\":725:728  1e2 */\n      0x64\n        /* \"CalculateUtils.sol\":718:722  rate */\n      sload(0x01)\n        /* \"CalculateUtils.sol\":718:728  rate * 1e2 */\n      tag_95\n      swap2\n      swap1\n      tag_87\n      jump\t// in\n    tag_95:\n        /* \"CalculateUtils.sol\":707:714  _bounts */\n      dup4\n        /* \"CalculateUtils.sol\":707:728  _bounts >= rate * 1e2 */\n      lt\n      iszero\n        /* \"CalculateUtils.sol\":707:752  _bounts >= rate * 1e2 && _bounts < rate * 1e3 */\n      dup1\n      iszero\n      tag_96\n      jumpi\n      pop\n        /* \"CalculateUtils.sol\":749:752  1e3 */\n      0x03e8\n        /* \"CalculateUtils.sol\":742:746  rate */\n      sload(0x01)\n        /* \"CalculateUtils.sol\":742:752  rate * 1e3 */\n      tag_97\n      swap2\n      swap1\n      tag_87\n      jump\t// in\n    tag_97:\n        /* \"CalculateUtils.sol\":732:739  _bounts */\n      dup4\n        /* \"CalculateUtils.sol\":732:752  _bounts < rate * 1e3 */\n      lt\n        /* \"CalculateUtils.sol\":707:752  _bounts >= rate * 1e2 && _bounts < rate * 1e3 */\n    tag_96:\n        /* \"CalculateUtils.sol\":703:1121  if (_bounts >= rate * 1e2 && _bounts < rate * 1e3) {\r... */\n      iszero\n      tag_98\n      jumpi\n        /* \"CalculateUtils.sol\":777:780  1e3 */\n      0x03e8\n        /* \"CalculateUtils.sol\":769:780  ratio = 1e3 */\n      swap1\n      pop\n        /* \"CalculateUtils.sol\":703:1121  if (_bounts >= rate * 1e2 && _bounts < rate * 1e3) {\r... */\n      jump(tag_99)\n    tag_98:\n        /* \"CalculateUtils.sol\":820:823  1e3 */\n      0x03e8\n        /* \"CalculateUtils.sol\":813:817  rate */\n      sload(0x01)\n        /* \"CalculateUtils.sol\":813:823  rate * 1e3 */\n      tag_100\n      swap2\n      swap1\n      tag_87\n      jump\t// in\n    tag_100:\n        /* \"CalculateUtils.sol\":802:809  _bounts */\n      dup4\n        /* \"CalculateUtils.sol\":802:823  _bounts >= rate * 1e3 */\n      lt\n      iszero\n        /* \"CalculateUtils.sol\":802:848  _bounts >= rate * 1e3 && _bounts <= rate * 1e4 */\n      dup1\n      iszero\n      tag_101\n      jumpi\n      pop\n        /* \"CalculateUtils.sol\":845:848  1e4 */\n      0x2710\n        /* \"CalculateUtils.sol\":838:842  rate */\n      sload(0x01)\n        /* \"CalculateUtils.sol\":838:848  rate * 1e4 */\n      tag_102\n      swap2\n      swap1\n      tag_87\n      jump\t// in\n    tag_102:\n        /* \"CalculateUtils.sol\":827:834  _bounts */\n      dup4\n        /* \"CalculateUtils.sol\":827:848  _bounts <= rate * 1e4 */\n      gt\n      iszero\n        /* \"CalculateUtils.sol\":802:848  _bounts >= rate * 1e3 && _bounts <= rate * 1e4 */\n    tag_101:\n        /* \"CalculateUtils.sol\":798:1121  if (_bounts >= rate * 1e3 && _bounts <= rate * 1e4) {\r... */\n      iszero\n      tag_103\n      jumpi\n        /* \"CalculateUtils.sol\":873:876  1e4 */\n      0x2710\n        /* \"CalculateUtils.sol\":865:876  ratio = 1e4 */\n      swap1\n      pop\n        /* \"CalculateUtils.sol\":798:1121  if (_bounts >= rate * 1e3 && _bounts <= rate * 1e4) {\r... */\n      jump(tag_104)\n    tag_103:\n        /* \"CalculateUtils.sol\":916:919  1e4 */\n      0x2710\n        /* \"CalculateUtils.sol\":909:913  rate */\n      sload(0x01)\n        /* \"CalculateUtils.sol\":909:919  rate * 1e4 */\n      tag_105\n      swap2\n      swap1\n      tag_87\n      jump\t// in\n    tag_105:\n        /* \"CalculateUtils.sol\":898:905  _bounts */\n      dup4\n        /* \"CalculateUtils.sol\":898:919  _bounts >= rate * 1e4 */\n      lt\n      iszero\n        /* \"CalculateUtils.sol\":898:944  _bounts >= rate * 1e4 && _bounts <= rate * 1e5 */\n      dup1\n      iszero\n      tag_106\n      jumpi\n      pop\n        /* \"CalculateUtils.sol\":941:944  1e5 */\n      0x0186a0\n        /* \"CalculateUtils.sol\":934:938  rate */\n      sload(0x01)\n        /* \"CalculateUtils.sol\":934:944  rate * 1e5 */\n      tag_107\n      swap2\n      swap1\n      tag_87\n      jump\t// in\n    tag_107:\n        /* \"CalculateUtils.sol\":923:930  _bounts */\n      dup4\n        /* \"CalculateUtils.sol\":923:944  _bounts <= rate * 1e5 */\n      gt\n      iszero\n        /* \"CalculateUtils.sol\":898:944  _bounts >= rate * 1e4 && _bounts <= rate * 1e5 */\n    tag_106:\n        /* \"CalculateUtils.sol\":894:1121  if (_bounts >= rate * 1e4 && _bounts <= rate * 1e5) {\r... */\n      iszero\n      tag_108\n      jumpi\n        /* \"CalculateUtils.sol\":969:972  1e5 */\n      0x0186a0\n        /* \"CalculateUtils.sol\":961:972  ratio = 1e5 */\n      swap1\n      pop\n        /* \"CalculateUtils.sol\":894:1121  if (_bounts >= rate * 1e4 && _bounts <= rate * 1e5) {\r... */\n      jump(tag_109)\n    tag_108:\n        /* \"CalculateUtils.sol\":1012:1109  ParameterException(\r... */\n      mload(0x40)\n      0xd1d89b7400000000000000000000000000000000000000000000000000000000\n      dup2\n      mstore\n      0x04\n      add\n      tag_110\n      swap1\n      tag_111\n      jump\t// in\n    tag_110:\n      mload(0x40)\n      dup1\n      swap2\n      sub\n      swap1\n      revert\n        /* \"CalculateUtils.sol\":894:1121  if (_bounts >= rate * 1e4 && _bounts <= rate * 1e5) {\r... */\n    tag_109:\n        /* \"CalculateUtils.sol\":798:1121  if (_bounts >= rate * 1e3 && _bounts <= rate * 1e4) {\r... */\n    tag_104:\n        /* \"CalculateUtils.sol\":703:1121  if (_bounts >= rate * 1e2 && _bounts < rate * 1e3) {\r... */\n    tag_99:\n        /* \"CalculateUtils.sol\":608:1121  if (_bounts >= rate * 1e1 && _bounts < rate * 1e2) {\r... */\n    tag_94:\n        /* \"CalculateUtils.sol\":519:1121  if (_bounts >= rate && _bounts < rate * 1e1) {\r... */\n    tag_89:\n        /* \"CalculateUtils.sol\":457:1121  if (_bounts < rate) {\r... */\n    tag_84:\n        /* \"CalculateUtils.sol\":1138:1143  ratio */\n      dup1\n        /* \"CalculateUtils.sol\":1131:1143  return ratio */\n      swap2\n      pop\n      pop\n        /* \"CalculateUtils.sol\":354:1151  function punishRatio(uint256 _bounts) public view returns (uint256) {\r... */\n      swap2\n      swap1\n      pop\n      jump\t// out\n        /* \"CalculateUtils.sol\":2299:2426  function getTaskVf(uint256 _bounty) public pure returns (uint256 _money) {\r... */\n    tag_34:\n        /* \"CalculateUtils.sol\":2356:2370  uint256 _money */\n      0x00\n        /* \"CalculateUtils.sol\":2392:2418  getPercentage(_bounty, 36) */\n      tag_113\n        /* \"CalculateUtils.sol\":2406:2413  _bounty */\n      dup3\n        /* \"CalculateUtils.sol\":2415:2417  36 */\n      0x24\n        /* \"CalculateUtils.sol\":2392:2405  getPercentage */\n      tag_73\n        /* \"CalculateUtils.sol\":2392:2418  getPercentage(_bounty, 36) */\n      jump\t// in\n    tag_113:\n        /* \"CalculateUtils.sol\":2383:2418  _money = getPercentage(_bounty, 36) */\n      swap1\n      pop\n        /* \"CalculateUtils.sol\":2299:2426  function getTaskVf(uint256 _bounty) public pure returns (uint256 _money) {\r... */\n      swap2\n      swap1\n      pop\n      jump\t// out\n        /* \"CalculateUtils.sol\":1745:1907  function getTaskTrans(uint256 _bounty)\r... */\n    tag_38:\n        /* \"CalculateUtils.sol\":1832:1846  uint256 _money */\n      0x00\n        /* \"CalculateUtils.sol\":1873:1899  getPercentage(_bounty, 54) */\n      tag_115\n        /* \"CalculateUtils.sol\":1887:1894  _bounty */\n      dup3\n        /* \"CalculateUtils.sol\":1896:1898  54 */\n      0x36\n        /* \"CalculateUtils.sol\":1873:1886  getPercentage */\n      tag_73\n        /* \"CalculateUtils.sol\":1873:1899  getPercentage(_bounty, 54) */\n      jump\t// in\n    tag_115:\n        /* \"CalculateUtils.sol\":1864:1899  _money = getPercentage(_bounty, 54) */\n      swap1\n      pop\n        /* \"CalculateUtils.sol\":1745:1907  function getTaskTrans(uint256 _bounty)\r... */\n      swap2\n      swap1\n      pop\n      jump\t// out\n        /* \"contracts/access/Ownable.sol\":1831:1932  function renounceOwnership() public virtual onlyOwner {... */\n    tag_41:\n        /* \"contracts/access/Ownable.sol\":1094:1107  _checkOwner() */\n      tag_117\n        /* \"contracts/access/Ownable.sol\":1094:1105  _checkOwner */\n      tag_77\n        /* \"contracts/access/Ownable.sol\":1094:1107  _checkOwner() */\n      jump\t// in\n    tag_117:\n        /* \"contracts/access/Ownable.sol\":1895:1925  _transferOwnership(address(0)) */\n      tag_119\n        /* \"contracts/access/Ownable.sol\":1922:1923  0 */\n      0x00\n        /* \"contracts/access/Ownable.sol\":1895:1913  _transferOwnership */\n      tag_120\n        /* \"contracts/access/Ownable.sol\":1895:1925  _transferOwnership(address(0)) */\n      jump\t// in\n    tag_119:\n        /* \"contracts/access/Ownable.sol\":1831:1932  function renounceOwnership() public virtual onlyOwner {... */\n      jump\t// out\n        /* \"contracts/access/Ownable.sol\":1201:1286  function owner() public view virtual returns (address) {... */\n    tag_43:\n        /* \"contracts/access/Ownable.sol\":1247:1254  address */\n      0x00\n        /* \"contracts/access/Ownable.sol\":1273:1279  _owner */\n      dup1\n      0x00\n      swap1\n      sload\n      swap1\n      0x0100\n      exp\n      swap1\n      div\n      0xffffffffffffffffffffffffffffffffffffffff\n      and\n        /* \"contracts/access/Ownable.sol\":1266:1279  return _owner */\n      swap1\n      pop\n        /* \"contracts/access/Ownable.sol\":1201:1286  function owner() public view virtual returns (address) {... */\n      swap1\n      jump\t// out\n        /* \"CalculateUtils.sol\":2894:3071  function getDeductMoney(uint256 _bounty, uint256 _deduct)\r... */\n    tag_49:\n        /* \"CalculateUtils.sol\":3000:3007  uint256 */\n      0x00\n        /* \"CalculateUtils.sol\":3032:3063  getPercentage(_bounty, _deduct) */\n      tag_123\n        /* \"CalculateUtils.sol\":3046:3053  _bounty */\n      dup4\n        /* \"CalculateUtils.sol\":3055:3062  _deduct */\n      dup4\n        /* \"CalculateUtils.sol\":3032:3045  getPercentage */\n      tag_73\n        /* \"CalculateUtils.sol\":3032:3063  getPercentage(_bounty, _deduct) */\n      jump\t// in\n    tag_123:\n        /* \"CalculateUtils.sol\":3025:3063  return getPercentage(_bounty, _deduct) */\n      swap1\n      pop\n        /* \"CalculateUtils.sol\":2894:3071  function getDeductMoney(uint256 _bounty, uint256 _deduct)\r... */\n      swap3\n      swap2\n      pop\n      pop\n      jump\t// out\n        /* \"CalculateUtils.sol\":2688:2857  function getPunish(uint256 _ratio, uint256 _bounty)\r... */\n    tag_53:\n        /* \"CalculateUtils.sol\":2788:2795  uint256 */\n      0x00\n        /* \"CalculateUtils.sol\":2820:2849  SafeMath.div(_bounty, _ratio) */\n      tag_125\n        /* \"CalculateUtils.sol\":2833:2840  _bounty */\n      dup3\n        /* \"CalculateUtils.sol\":2842:2848  _ratio */\n      dup5\n        /* \"CalculateUtils.sol\":2820:2832  SafeMath.div */\n      tag_126\n        /* \"CalculateUtils.sol\":2820:2849  SafeMath.div(_bounty, _ratio) */\n      jump\t// in\n    tag_125:\n        /* \"CalculateUtils.sol\":2813:2849  return SafeMath.div(_bounty, _ratio) */\n      swap1\n      pop\n        /* \"CalculateUtils.sol\":2688:2857  function getPunish(uint256 _ratio, uint256 _bounty)\r... */\n      swap3\n      swap2\n      pop\n      pop\n      jump\t// out\n        /* \"CalculateUtils.sol\":1915:2080  function getTaskTransEnd(uint256 _bounty)\r... */\n    tag_57:\n        /* \"CalculateUtils.sol\":2005:2019  uint256 _money */\n      0x00\n        /* \"CalculateUtils.sol\":2046:2072  getPercentage(_bounty, 24) */\n      tag_128\n        /* \"CalculateUtils.sol\":2060:2067  _bounty */\n      dup3\n        /* \"CalculateUtils.sol\":2069:2071  24 */\n      0x18\n        /* \"CalculateUtils.sol\":2046:2059  getPercentage */\n      tag_73\n        /* \"CalculateUtils.sol\":2046:2072  getPercentage(_bounty, 24) */\n      jump\t// in\n    tag_128:\n        /* \"CalculateUtils.sol\":2037:2072  _money = getPercentage(_bounty, 24) */\n      swap1\n      pop\n        /* \"CalculateUtils.sol\":1915:2080  function getTaskTransEnd(uint256 _bounty)\r... */\n      swap2\n      swap1\n      pop\n      jump\t// out\n        /* \"CalculateUtils.sol\":2088:2255  function getTaskTransFirst(uint256 _bounty)\r... */\n    tag_61:\n        /* \"CalculateUtils.sol\":2180:2194  uint256 _money */\n      0x00\n        /* \"CalculateUtils.sol\":2221:2247  getPercentage(_bounty, 30) */\n      tag_130\n        /* \"CalculateUtils.sol\":2235:2242  _bounty */\n      dup3\n        /* \"CalculateUtils.sol\":2244:2246  30 */\n      0x1e\n        /* \"CalculateUtils.sol\":2221:2234  getPercentage */\n      tag_73\n        /* \"CalculateUtils.sol\":2221:2247  getPercentage(_bounty, 30) */\n      jump\t// in\n    tag_130:\n        /* \"CalculateUtils.sol\":2212:2247  _money = getPercentage(_bounty, 30) */\n      swap1\n      pop\n        /* \"CalculateUtils.sol\":2088:2255  function getTaskTransFirst(uint256 _bounty)\r... */\n      swap2\n      swap1\n      pop\n      jump\t// out\n        /* \"CalculateUtils.sol\":1427:1701  function getMatNumber(uint256 _transNumber) public view returns (uint256) {\r... */\n    tag_65:\n        /* \"CalculateUtils.sol\":1492:1499  uint256 */\n      0x00\n        /* \"CalculateUtils.sol\":1512:1525  uint256 _maxV */\n      dup1\n        /* \"CalculateUtils.sol\":1556:1560  vf_n */\n      sload(0x02)\n        /* \"CalculateUtils.sol\":1540:1552  _transNumber */\n      dup4\n        /* \"CalculateUtils.sol\":1540:1560  _transNumber <= vf_n */\n      gt\n        /* \"CalculateUtils.sol\":1536:1671  if (_transNumber <= vf_n) {\r... */\n      tag_132\n      jumpi\n        /* \"CalculateUtils.sol\":1585:1586  1 */\n      0x01\n        /* \"CalculateUtils.sol\":1577:1586  _maxV = 1 */\n      swap1\n      pop\n        /* \"CalculateUtils.sol\":1536:1671  if (_transNumber <= vf_n) {\r... */\n      jump(tag_133)\n    tag_132:\n        /* \"CalculateUtils.sol\":1627:1659  SafeMath.div(_transNumber, vf_n) */\n      tag_134\n        /* \"CalculateUtils.sol\":1640:1652  _transNumber */\n      dup4\n        /* \"CalculateUtils.sol\":1654:1658  vf_n */\n      sload(0x02)\n        /* \"CalculateUtils.sol\":1627:1639  SafeMath.div */\n      tag_126\n        /* \"CalculateUtils.sol\":1627:1659  SafeMath.div(_transNumber, vf_n) */\n      jump\t// in\n    tag_134:\n        /* \"CalculateUtils.sol\":1619:1659  _maxV = SafeMath.div(_transNumber, vf_n) */\n      swap1\n      pop\n        /* \"CalculateUtils.sol\":1536:1671  if (_transNumber <= vf_n) {\r... */\n    tag_133:\n        /* \"CalculateUtils.sol\":1688:1693  _maxV */\n      dup1\n        /* \"CalculateUtils.sol\":1681:1693  return _maxV */\n      swap2\n      pop\n      pop\n        /* \"CalculateUtils.sol\":1427:1701  function getMatNumber(uint256 _transNumber) public view returns (uint256) {\r... */\n      swap2\n      swap1\n      pop\n      jump\t// out\n        /* \"contracts/access/Ownable.sol\":2081:2279  function transferOwnership(address newOwner) public virtual onlyOwner {... */\n    tag_70:\n        /* \"contracts/access/Ownable.sol\":1094:1107  _checkOwner() */\n      tag_136\n        /* \"contracts/access/Ownable.sol\":1094:1105  _checkOwner */\n      tag_77\n        /* \"contracts/access/Ownable.sol\":1094:1107  _checkOwner() */\n      jump\t// in\n    tag_136:\n        /* \"contracts/access/Ownable.sol\":2189:2190  0 */\n      0x00\n        /* \"contracts/access/Ownable.sol\":2169:2191  newOwner != address(0) */\n      0xffffffffffffffffffffffffffffffffffffffff\n      and\n        /* \"contracts/access/Ownable.sol\":2169:2177  newOwner */\n      dup2\n        /* \"contracts/access/Ownable.sol\":2169:2191  newOwner != address(0) */\n      0xffffffffffffffffffffffffffffffffffffffff\n      and\n      eq\n      iszero\n        /* \"contracts/access/Ownable.sol\":2161:2234  require(newOwner != address(0), \"Ownable: new owner is the zero address\") */\n      tag_138\n      jumpi\n      mload(0x40)\n      0x08c379a000000000000000000000000000000000000000000000000000000000\n      dup2\n      mstore\n      0x04\n      add\n      tag_139\n      swap1\n      tag_140\n      jump\t// in\n    tag_139:\n      mload(0x40)\n      dup1\n      swap2\n      sub\n      swap1\n      revert\n    tag_138:\n        /* \"contracts/access/Ownable.sol\":2244:2272  _transferOwnership(newOwner) */\n      tag_141\n        /* \"contracts/access/Ownable.sol\":2263:2271  newOwner */\n      dup2\n        /* \"contracts/access/Ownable.sol\":2244:2262  _transferOwnership */\n      tag_120\n        /* \"contracts/access/Ownable.sol\":2244:2272  _transferOwnership(newOwner) */\n      jump\t// in\n    tag_141:\n        /* \"contracts/access/Ownable.sol\":2081:2279  function transferOwnership(address newOwner) public virtual onlyOwner {... */\n      pop\n      jump\t// out\n        /* \"CalculateUtils.sol\":2460:2660  function getPercentage(uint256 _number, uint256 _ratio)\r... */\n    tag_73:\n        /* \"CalculateUtils.sol\":2564:2584  uint256 returnNumber */\n      0x00\n        /* \"CalculateUtils.sol\":2649:2652  100 */\n      0x64\n        /* \"CalculateUtils.sol\":2617:2646  SafeMath.mul(_number, _ratio) */\n      tag_143\n        /* \"CalculateUtils.sol\":2630:2637  _number */\n      dup5\n        /* \"CalculateUtils.sol\":2639:2645  _ratio */\n      dup5\n        /* \"CalculateUtils.sol\":2617:2629  SafeMath.mul */\n      tag_144\n        /* \"CalculateUtils.sol\":2617:2646  SafeMath.mul(_number, _ratio) */\n      jump\t// in\n    tag_143:\n        /* \"CalculateUtils.sol\":2617:2652  SafeMath.mul(_number, _ratio) / 100 */\n      tag_145\n      swap2\n      swap1\n      tag_146\n      jump\t// in\n    tag_145:\n        /* \"CalculateUtils.sol\":2602:2652  returnNumber = SafeMath.mul(_number, _ratio) / 100 */\n      swap1\n      pop\n        /* \"CalculateUtils.sol\":2460:2660  function getPercentage(uint256 _number, uint256 _ratio)\r... */\n      swap3\n      swap2\n      pop\n      pop\n      jump\t// out\n        /* \"contracts/access/Ownable.sol\":1359:1489  function _checkOwner() internal view virtual {... */\n    tag_77:\n        /* \"contracts/access/Ownable.sol\":1433:1445  _msgSender() */\n      tag_148\n        /* \"contracts/access/Ownable.sol\":1433:1443  _msgSender */\n      tag_149\n        /* \"contracts/access/Ownable.sol\":1433:1445  _msgSender() */\n      jump\t// in\n    tag_148:\n        /* \"contracts/access/Ownable.sol\":1422:1445  owner() == _msgSender() */\n      0xffffffffffffffffffffffffffffffffffffffff\n      and\n        /* \"contracts/access/Ownable.sol\":1422:1429  owner() */\n      tag_150\n        /* \"contracts/access/Ownable.sol\":1422:1427  owner */\n      tag_43\n        /* \"contracts/access/Ownable.sol\":1422:1429  owner() */\n      jump\t// in\n    tag_150:\n        /* \"contracts/access/Ownable.sol\":1422:1445  owner() == _msgSender() */\n      0xffffffffffffffffffffffffffffffffffffffff\n      and\n      eq\n        /* \"contracts/access/Ownable.sol\":1414:1482  require(owner() == _msgSender(), \"Ownable: caller is not the owner\") */\n      tag_151\n      jumpi\n      mload(0x40)\n      0x08c379a000000000000000000000000000000000000000000000000000000000\n      dup2\n      mstore\n      0x04\n      add\n      tag_152\n      swap1\n      tag_153\n      jump\t// in\n    tag_152:\n      mload(0x40)\n      dup1\n      swap2\n      sub\n      swap1\n      revert\n    tag_151:\n        /* \"contracts/access/Ownable.sol\":1359:1489  function _checkOwner() internal view virtual {... */\n      jump\t// out\n        /* \"contracts/access/Ownable.sol\":2433:2620  function _transferOwnership(address newOwner) internal virtual {... */\n    tag_120:\n        /* \"contracts/access/Ownable.sol\":2506:2522  address oldOwner */\n      0x00\n        /* \"contracts/access/Ownable.sol\":2525:2531  _owner */\n      dup1\n      0x00\n      swap1\n      sload\n      swap1\n      0x0100\n      exp\n      swap1\n      div\n      0xffffffffffffffffffffffffffffffffffffffff\n      and\n        /* \"contracts/access/Ownable.sol\":2506:2531  address oldOwner = _owner */\n      swap1\n      pop\n        /* \"contracts/access/Ownable.sol\":2550:2558  newOwner */\n      dup2\n        /* \"contracts/access/Ownable.sol\":2541:2547  _owner */\n      0x00\n      dup1\n        /* \"contracts/access/Ownable.sol\":2541:2558  _owner = newOwner */\n      0x0100\n      exp\n      dup2\n      sload\n      dup2\n      0xffffffffffffffffffffffffffffffffffffffff\n      mul\n      not\n      and\n      swap1\n      dup4\n      0xffffffffffffffffffffffffffffffffffffffff\n      and\n      mul\n      or\n      swap1\n      sstore\n      pop\n        /* \"contracts/access/Ownable.sol\":2604:2612  newOwner */\n      dup2\n        /* \"contracts/access/Ownable.sol\":2573:2613  OwnershipTransferred(oldOwner, newOwner) */\n      0xffffffffffffffffffffffffffffffffffffffff\n      and\n        /* \"contracts/access/Ownable.sol\":2594:2602  oldOwner */\n      dup2\n        /* \"contracts/access/Ownable.sol\":2573:2613  OwnershipTransferred(oldOwner, newOwner) */\n      0xffffffffffffffffffffffffffffffffffffffff\n      and\n      0x8be0079c531659141344cd1fd0a4f28419497f9722a3daafe3b4186f6b6457e0\n      mload(0x40)\n      mload(0x40)\n      dup1\n      swap2\n      sub\n      swap1\n      log3\n        /* \"contracts/access/Ownable.sol\":2496:2620  {... */\n      pop\n        /* \"contracts/access/Ownable.sol\":2433:2620  function _transferOwnership(address newOwner) internal virtual {... */\n      pop\n      jump\t// out\n        /* \"contracts/utils/math/SafeMath.sol\":3850:3946  function div(uint256 a, uint256 b) internal pure returns (uint256) {... */\n    tag_126:\n        /* \"contracts/utils/math/SafeMath.sol\":3908:3915  uint256 */\n      0x00\n        /* \"contracts/utils/math/SafeMath.sol\":3938:3939  b */\n      dup2\n        /* \"contracts/utils/math/SafeMath.sol\":3934:3935  a */\n      dup4\n        /* \"contracts/utils/math/SafeMath.sol\":3934:3939  a / b */\n      tag_156\n      swap2\n      swap1\n      tag_146\n      jump\t// in\n    tag_156:\n        /* \"contracts/utils/math/SafeMath.sol\":3927:3939  return a / b */\n      swap1\n      pop\n        /* \"contracts/utils/math/SafeMath.sol\":3850:3946  function div(uint256 a, uint256 b) internal pure returns (uint256) {... */\n      swap3\n      swap2\n      pop\n      pop\n      jump\t// out\n        /* \"contracts/utils/math/SafeMath.sol\":3465:3561  function mul(uint256 a, uint256 b) internal pure returns (uint256) {... */\n    tag_144:\n        /* \"contracts/utils/math/SafeMath.sol\":3523:3530  uint256 */\n      0x00\n        /* \"contracts/utils/math/SafeMath.sol\":3553:3554  b */\n      dup2\n        /* \"contracts/utils/math/SafeMath.sol\":3549:3550  a */\n      dup4\n        /* \"contracts/utils/math/SafeMath.sol\":3549:3554  a * b */\n      tag_158\n      swap2\n      swap1\n      tag_87\n      jump\t// in\n    tag_158:\n        /* \"contracts/utils/math/SafeMath.sol\":3542:3554  return a * b */\n      swap1\n      pop\n        /* \"contracts/utils/math/SafeMath.sol\":3465:3561  function mul(uint256 a, uint256 b) internal pure returns (uint256) {... */\n      swap3\n      swap2\n      pop\n      pop\n      jump\t// out\n        /* \"contracts/utils/Context.sol\":640:736  function _msgSender() internal view virtual returns (address) {... */\n    tag_149:\n        /* \"contracts/utils/Context.sol\":693:700  address */\n      0x00\n        /* \"contracts/utils/Context.sol\":719:729  msg.sender */\n      caller\n        /* \"contracts/utils/Context.sol\":712:729  return msg.sender */\n      swap1\n      pop\n        /* \"contracts/utils/Context.sol\":640:736  function _msgSender() internal view virtual returns (address) {... */\n      swap1\n      jump\t// out\n        /* \"#utility.yul\":7:146   */\n    tag_161:\n        /* \"#utility.yul\":53:58   */\n      0x00\n        /* \"#utility.yul\":91:97   */\n      dup2\n        /* \"#utility.yul\":78:98   */\n      calldataload\n        /* \"#utility.yul\":69:98   */\n      swap1\n      pop\n        /* \"#utility.yul\":107:140   */\n      tag_163\n        /* \"#utility.yul\":134:139   */\n      dup2\n        /* \"#utility.yul\":107:140   */\n      tag_164\n      jump\t// in\n    tag_163:\n        /* \"#utility.yul\":7:146   */\n      swap3\n      swap2\n      pop\n      pop\n      jump\t// out\n        /* \"#utility.yul\":152:291   */\n    tag_165:\n        /* \"#utility.yul\":198:203   */\n      0x00\n        /* \"#utility.yul\":236:242   */\n      dup2\n        /* \"#utility.yul\":223:243   */\n      calldataload\n        /* \"#utility.yul\":214:243   */\n      swap1\n      pop\n        /* \"#utility.yul\":252:285   */\n      tag_167\n        /* \"#utility.yul\":279:284   */\n      dup2\n        /* \"#utility.yul\":252:285   */\n      tag_168\n      jump\t// in\n    tag_167:\n        /* \"#utility.yul\":152:291   */\n      swap3\n      swap2\n      pop\n      pop\n      jump\t// out\n        /* \"#utility.yul\":297:626   */\n    tag_69:\n        /* \"#utility.yul\":356:362   */\n      0x00\n        /* \"#utility.yul\":405:407   */\n      0x20\n        /* \"#utility.yul\":393:402   */\n      dup3\n        /* \"#utility.yul\":384:391   */\n      dup5\n        /* \"#utility.yul\":380:403   */\n      sub\n        /* \"#utility.yul\":376:408   */\n      slt\n        /* \"#utility.yul\":373:492   */\n      iszero\n      tag_170\n      jumpi\n        /* \"#utility.yul\":411:490   */\n      tag_171\n      tag_172\n      jump\t// in\n    tag_171:\n        /* \"#utility.yul\":373:492   */\n    tag_170:\n        /* \"#utility.yul\":531:532   */\n      0x00\n        /* \"#utility.yul\":556:609   */\n      tag_173\n        /* \"#utility.yul\":601:608   */\n      dup5\n        /* \"#utility.yul\":592:598   */\n      dup3\n        /* \"#utility.yul\":581:590   */\n      dup6\n        /* \"#utility.yul\":577:599   */\n      add\n        /* \"#utility.yul\":556:609   */\n      tag_161\n      jump\t// in\n    tag_173:\n        /* \"#utility.yul\":546:609   */\n      swap2\n      pop\n        /* \"#utility.yul\":502:619   */\n      pop\n        /* \"#utility.yul\":297:626   */\n      swap3\n      swap2\n      pop\n      pop\n      jump\t// out\n        /* \"#utility.yul\":632:961   */\n    tag_22:\n        /* \"#utility.yul\":691:697   */\n      0x00\n        /* \"#utility.yul\":740:742   */\n      0x20\n        /* \"#utility.yul\":728:737   */\n      dup3\n        /* \"#utility.yul\":719:726   */\n      dup5\n        /* \"#utility.yul\":715:738   */\n      sub\n        /* \"#utility.yul\":711:743   */\n      slt\n        /* \"#utility.yul\":708:827   */\n      iszero\n      tag_175\n      jumpi\n        /* \"#utility.yul\":746:825   */\n      tag_176\n      tag_172\n      jump\t// in\n    tag_176:\n        /* \"#utility.yul\":708:827   */\n    tag_175:\n        /* \"#utility.yul\":866:867   */\n      0x00\n        /* \"#utility.yul\":891:944   */\n      tag_177\n        /* \"#utility.yul\":936:943   */\n      dup5\n        /* \"#utility.yul\":927:933   */\n      dup3\n        /* \"#utility.yul\":916:925   */\n      dup6\n        /* \"#utility.yul\":912:934   */\n      add\n        /* \"#utility.yul\":891:944   */\n      tag_165\n      jump\t// in\n    tag_177:\n        /* \"#utility.yul\":881:944   */\n      swap2\n      pop\n        /* \"#utility.yul\":837:954   */\n      pop\n        /* \"#utility.yul\":632:961   */\n      swap3\n      swap2\n      pop\n      pop\n      jump\t// out\n        /* \"#utility.yul\":967:1441   */\n    tag_48:\n        /* \"#utility.yul\":1035:1041   */\n      0x00\n        /* \"#utility.yul\":1043:1049   */\n      dup1\n        /* \"#utility.yul\":1092:1094   */\n      0x40\n        /* \"#utility.yul\":1080:1089   */\n      dup4\n        /* \"#utility.yul\":1071:1078   */\n      dup6\n        /* \"#utility.yul\":1067:1090   */\n      sub\n        /* \"#utility.yul\":1063:1095   */\n      slt\n        /* \"#utility.yul\":1060:1179   */\n      iszero\n      tag_179\n      jumpi\n        /* \"#utility.yul\":1098:1177   */\n      tag_180\n      tag_172\n      jump\t// in\n    tag_180:\n        /* \"#utility.yul\":1060:1179   */\n    tag_179:\n        /* \"#utility.yul\":1218:1219   */\n      0x00\n        /* \"#utility.yul\":1243:1296   */\n      tag_181\n        /* \"#utility.yul\":1288:1295   */\n      dup6\n        /* \"#utility.yul\":1279:1285   */\n      dup3\n        /* \"#utility.yul\":1268:1277   */\n      dup7\n        /* \"#utility.yul\":1264:1286   */\n      add\n        /* \"#utility.yul\":1243:1296   */\n      tag_165\n      jump\t// in\n    tag_181:\n        /* \"#utility.yul\":1233:1296   */\n      swap3\n      pop\n        /* \"#utility.yul\":1189:1306   */\n      pop\n        /* \"#utility.yul\":1345:1347   */\n      0x20\n        /* \"#utility.yul\":1371:1424   */\n      tag_182\n        /* \"#utility.yul\":1416:1423   */\n      dup6\n        /* \"#utility.yul\":1407:1413   */\n      dup3\n        /* \"#utility.yul\":1396:1405   */\n      dup7\n        /* \"#utility.yul\":1392:1414   */\n      add\n        /* \"#utility.yul\":1371:1424   */\n      tag_165\n      jump\t// in\n    tag_182:\n        /* \"#utility.yul\":1361:1424   */\n      swap2\n      pop\n        /* \"#utility.yul\":1316:1434   */\n      pop\n        /* \"#utility.yul\":967:1441   */\n      swap3\n      pop\n      swap3\n      swap1\n      pop\n      jump\t// out\n        /* \"#utility.yul\":1447:1565   */\n    tag_183:\n        /* \"#utility.yul\":1534:1558   */\n      tag_185\n        /* \"#utility.yul\":1552:1557   */\n      dup2\n        /* \"#utility.yul\":1534:1558   */\n      tag_186\n      jump\t// in\n    tag_185:\n        /* \"#utility.yul\":1529:1532   */\n      dup3\n        /* \"#utility.yul\":1522:1559   */\n      mstore\n        /* \"#utility.yul\":1447:1565   */\n      pop\n      pop\n      jump\t// out\n        /* \"#utility.yul\":1571:1937   */\n    tag_187:\n        /* \"#utility.yul\":1713:1716   */\n      0x00\n        /* \"#utility.yul\":1734:1801   */\n      tag_189\n        /* \"#utility.yul\":1798:1800   */\n      0x26\n        /* \"#utility.yul\":1793:1796   */\n      dup4\n        /* \"#utility.yul\":1734:1801   */\n      tag_190\n      jump\t// in\n    tag_189:\n        /* \"#utility.yul\":1727:1801   */\n      swap2\n      pop\n        /* \"#utility.yul\":1810:1903   */\n      tag_191\n        /* \"#utility.yul\":1899:1902   */\n      dup3\n        /* \"#utility.yul\":1810:1903   */\n      tag_192\n      jump\t// in\n    tag_191:\n        /* \"#utility.yul\":1928:1930   */\n      0x40\n        /* \"#utility.yul\":1923:1926   */\n      dup3\n        /* \"#utility.yul\":1919:1931   */\n      add\n        /* \"#utility.yul\":1912:1931   */\n      swap1\n      pop\n        /* \"#utility.yul\":1571:1937   */\n      swap2\n      swap1\n      pop\n      jump\t// out\n        /* \"#utility.yul\":1943:2309   */\n    tag_193:\n        /* \"#utility.yul\":2085:2088   */\n      0x00\n        /* \"#utility.yul\":2106:2173   */\n      tag_195\n        /* \"#utility.yul\":2170:2172   */\n      0x20\n        /* \"#utility.yul\":2165:2168   */\n      dup4\n        /* \"#utility.yul\":2106:2173   */\n      tag_190\n      jump\t// in\n    tag_195:\n        /* \"#utility.yul\":2099:2173   */\n      swap2\n      pop\n        /* \"#utility.yul\":2182:2275   */\n      tag_196\n        /* \"#utility.yul\":2271:2274   */\n      dup3\n        /* \"#utility.yul\":2182:2275   */\n      tag_197\n      jump\t// in\n    tag_196:\n        /* \"#utility.yul\":2300:2302   */\n      0x20\n        /* \"#utility.yul\":2295:2298   */\n      dup3\n        /* \"#utility.yul\":2291:2303   */\n      add\n        /* \"#utility.yul\":2284:2303   */\n      swap1\n      pop\n        /* \"#utility.yul\":1943:2309   */\n      swap2\n      swap1\n      pop\n      jump\t// out\n        /* \"#utility.yul\":2315:2681   */\n    tag_198:\n        /* \"#utility.yul\":2457:2460   */\n      0x00\n        /* \"#utility.yul\":2478:2545   */\n      tag_200\n        /* \"#utility.yul\":2542:2544   */\n      0x2b\n        /* \"#utility.yul\":2537:2540   */\n      dup4\n        /* \"#utility.yul\":2478:2545   */\n      tag_190\n      jump\t// in\n    tag_200:\n        /* \"#utility.yul\":2471:2545   */\n      swap2\n      pop\n        /* \"#utility.yul\":2554:2647   */\n      tag_201\n        /* \"#utility.yul\":2643:2646   */\n      dup3\n        /* \"#utility.yul\":2554:2647   */\n      tag_202\n      jump\t// in\n    tag_201:\n        /* \"#utility.yul\":2672:2674   */\n      0x40\n        /* \"#utility.yul\":2667:2670   */\n      dup3\n        /* \"#utility.yul\":2663:2675   */\n      add\n        /* \"#utility.yul\":2656:2675   */\n      swap1\n      pop\n        /* \"#utility.yul\":2315:2681   */\n      swap2\n      swap1\n      pop\n      jump\t// out\n        /* \"#utility.yul\":2687:2805   */\n    tag_203:\n        /* \"#utility.yul\":2774:2798   */\n      tag_205\n        /* \"#utility.yul\":2792:2797   */\n      dup2\n        /* \"#utility.yul\":2774:2798   */\n      tag_206\n      jump\t// in\n    tag_205:\n        /* \"#utility.yul\":2769:2772   */\n      dup3\n        /* \"#utility.yul\":2762:2799   */\n      mstore\n        /* \"#utility.yul\":2687:2805   */\n      pop\n      pop\n      jump\t// out\n        /* \"#utility.yul\":2811:3033   */\n    tag_45:\n        /* \"#utility.yul\":2904:2908   */\n      0x00\n        /* \"#utility.yul\":2942:2944   */\n      0x20\n        /* \"#utility.yul\":2931:2940   */\n      dup3\n        /* \"#utility.yul\":2927:2945   */\n      add\n        /* \"#utility.yul\":2919:2945   */\n      swap1\n      pop\n        /* \"#utility.yul\":2955:3026   */\n      tag_208\n        /* \"#utility.yul\":3023:3024   */\n      0x00\n        /* \"#utility.yul\":3012:3021   */\n      dup4\n        /* \"#utility.yul\":3008:3025   */\n      add\n        /* \"#utility.yul\":2999:3005   */\n      dup5\n        /* \"#utility.yul\":2955:3026   */\n      tag_183\n      jump\t// in\n    tag_208:\n        /* \"#utility.yul\":2811:3033   */\n      swap3\n      swap2\n      pop\n      pop\n      jump\t// out\n        /* \"#utility.yul\":3039:3458   */\n    tag_140:\n        /* \"#utility.yul\":3205:3209   */\n      0x00\n        /* \"#utility.yul\":3243:3245   */\n      0x20\n        /* \"#utility.yul\":3232:3241   */\n      dup3\n        /* \"#utility.yul\":3228:3246   */\n      add\n        /* \"#utility.yul\":3220:3246   */\n      swap1\n      pop\n        /* \"#utility.yul\":3292:3301   */\n      dup2\n        /* \"#utility.yul\":3286:3290   */\n      dup2\n        /* \"#utility.yul\":3282:3302   */\n      sub\n        /* \"#utility.yul\":3278:3279   */\n      0x00\n        /* \"#utility.yul\":3267:3276   */\n      dup4\n        /* \"#utility.yul\":3263:3280   */\n      add\n        /* \"#utility.yul\":3256:3303   */\n      mstore\n        /* \"#utility.yul\":3320:3451   */\n      tag_210\n        /* \"#utility.yul\":3446:3450   */\n      dup2\n        /* \"#utility.yul\":3320:3451   */\n      tag_187\n      jump\t// in\n    tag_210:\n        /* \"#utility.yul\":3312:3451   */\n      swap1\n      pop\n        /* \"#utility.yul\":3039:3458   */\n      swap2\n      swap1\n      pop\n      jump\t// out\n        /* \"#utility.yul\":3464:3883   */\n    tag_153:\n        /* \"#utility.yul\":3630:3634   */\n      0x00\n        /* \"#utility.yul\":3668:3670   */\n      0x20\n        /* \"#utility.yul\":3657:3666   */\n      dup3\n        /* \"#utility.yul\":3653:3671   */\n      add\n        /* \"#utility.yul\":3645:3671   */\n      swap1\n      pop\n        /* \"#utility.yul\":3717:3726   */\n      dup2\n        /* \"#utility.yul\":3711:3715   */\n      dup2\n        /* \"#utility.yul\":3707:3727   */\n      sub\n        /* \"#utility.yul\":3703:3704   */\n      0x00\n        /* \"#utility.yul\":3692:3701   */\n      dup4\n        /* \"#utility.yul\":3688:3705   */\n      add\n        /* \"#utility.yul\":3681:3728   */\n      mstore\n        /* \"#utility.yul\":3745:3876   */\n      tag_212\n        /* \"#utility.yul\":3871:3875   */\n      dup2\n        /* \"#utility.yul\":3745:3876   */\n      tag_193\n      jump\t// in\n    tag_212:\n        /* \"#utility.yul\":3737:3876   */\n      swap1\n      pop\n        /* \"#utility.yul\":3464:3883   */\n      swap2\n      swap1\n      pop\n      jump\t// out\n        /* \"#utility.yul\":3889:4308   */\n    tag_111:\n        /* \"#utility.yul\":4055:4059   */\n      0x00\n        /* \"#utility.yul\":4093:4095   */\n      0x20\n        /* \"#utility.yul\":4082:4091   */\n      dup3\n        /* \"#utility.yul\":4078:4096   */\n      add\n        /* \"#utility.yul\":4070:4096   */\n      swap1\n      pop\n        /* \"#utility.yul\":4142:4151   */\n      dup2\n        /* \"#utility.yul\":4136:4140   */\n      dup2\n        /* \"#utility.yul\":4132:4152   */\n      sub\n        /* \"#utility.yul\":4128:4129   */\n      0x00\n        /* \"#utility.yul\":4117:4126   */\n      dup4\n        /* \"#utility.yul\":4113:4130   */\n      add\n        /* \"#utility.yul\":4106:4153   */\n      mstore\n        /* \"#utility.yul\":4170:4301   */\n      tag_214\n        /* \"#utility.yul\":4296:4300   */\n      dup2\n        /* \"#utility.yul\":4170:4301   */\n      tag_198\n      jump\t// in\n    tag_214:\n        /* \"#utility.yul\":4162:4301   */\n      swap1\n      pop\n        /* \"#utility.yul\":3889:4308   */\n      swap2\n      swap1\n      pop\n      jump\t// out\n        /* \"#utility.yul\":4314:4536   */\n    tag_31:\n        /* \"#utility.yul\":4407:4411   */\n      0x00\n        /* \"#utility.yul\":4445:4447   */\n      0x20\n        /* \"#utility.yul\":4434:4443   */\n      dup3\n        /* \"#utility.yul\":4430:4448   */\n      add\n        /* \"#utility.yul\":4422:4448   */\n      swap1\n      pop\n        /* \"#utility.yul\":4458:4529   */\n      tag_216\n        /* \"#utility.yul\":4526:4527   */\n      0x00\n        /* \"#utility.yul\":4515:4524   */\n      dup4\n        /* \"#utility.yul\":4511:4528   */\n      add\n        /* \"#utility.yul\":4502:4508   */\n      dup5\n        /* \"#utility.yul\":4458:4529   */\n      tag_203\n      jump\t// in\n    tag_216:\n        /* \"#utility.yul\":4314:4536   */\n      swap3\n      swap2\n      pop\n      pop\n      jump\t// out\n        /* \"#utility.yul\":4623:4792   */\n    tag_190:\n        /* \"#utility.yul\":4707:4718   */\n      0x00\n        /* \"#utility.yul\":4741:4747   */\n      dup3\n        /* \"#utility.yul\":4736:4739   */\n      dup3\n        /* \"#utility.yul\":4729:4748   */\n      mstore\n        /* \"#utility.yul\":4781:4785   */\n      0x20\n        /* \"#utility.yul\":4776:4779   */\n      dup3\n        /* \"#utility.yul\":4772:4786   */\n      add\n        /* \"#utility.yul\":4757:4786   */\n      swap1\n      pop\n        /* \"#utility.yul\":4623:4792   */\n      swap3\n      swap2\n      pop\n      pop\n      jump\t// out\n        /* \"#utility.yul\":4798:4983   */\n    tag_146:\n        /* \"#utility.yul\":4838:4839   */\n      0x00\n        /* \"#utility.yul\":4855:4875   */\n      tag_221\n        /* \"#utility.yul\":4873:4874   */\n      dup3\n        /* \"#utility.yul\":4855:4875   */\n      tag_206\n      jump\t// in\n    tag_221:\n        /* \"#utility.yul\":4850:4875   */\n      swap2\n      pop\n        /* \"#utility.yul\":4889:4909   */\n      tag_222\n        /* \"#utility.yul\":4907:4908   */\n      dup4\n        /* \"#utility.yul\":4889:4909   */\n      tag_206\n      jump\t// in\n    tag_222:\n        /* \"#utility.yul\":4884:4909   */\n      swap3\n      pop\n        /* \"#utility.yul\":4928:4929   */\n      dup3\n        /* \"#utility.yul\":4918:4953   */\n      tag_223\n      jumpi\n        /* \"#utility.yul\":4933:4951   */\n      tag_224\n      tag_225\n      jump\t// in\n    tag_224:\n        /* \"#utility.yul\":4918:4953   */\n    tag_223:\n        /* \"#utility.yul\":4975:4976   */\n      dup3\n        /* \"#utility.yul\":4972:4973   */\n      dup3\n        /* \"#utility.yul\":4968:4977   */\n      div\n        /* \"#utility.yul\":4963:4977   */\n      swap1\n      pop\n        /* \"#utility.yul\":4798:4983   */\n      swap3\n      swap2\n      pop\n      pop\n      jump\t// out\n        /* \"#utility.yul\":4989:5337   */\n    tag_87:\n        /* \"#utility.yul\":5029:5036   */\n      0x00\n        /* \"#utility.yul\":5052:5072   */\n      tag_227\n        /* \"#utility.yul\":5070:5071   */\n      dup3\n        /* \"#utility.yul\":5052:5072   */\n      tag_206\n      jump\t// in\n    tag_227:\n        /* \"#utility.yul\":5047:5072   */\n      swap2\n      pop\n        /* \"#utility.yul\":5086:5106   */\n      tag_228\n        /* \"#utility.yul\":5104:5105   */\n      dup4\n        /* \"#utility.yul\":5086:5106   */\n      tag_206\n      jump\t// in\n    tag_228:\n        /* \"#utility.yul\":5081:5106   */\n      swap3\n      pop\n        /* \"#utility.yul\":5274:5275   */\n      dup2\n        /* \"#utility.yul\":5206:5272   */\n      0xffffffffffffffffffffffffffffffffffffffffffffffffffffffffffffffff\n        /* \"#utility.yul\":5202:5276   */\n      div\n        /* \"#utility.yul\":5199:5200   */\n      dup4\n        /* \"#utility.yul\":5196:5277   */\n      gt\n        /* \"#utility.yul\":5191:5192   */\n      dup3\n        /* \"#utility.yul\":5184:5193   */\n      iszero\n        /* \"#utility.yul\":5177:5194   */\n      iszero\n        /* \"#utility.yul\":5173:5278   */\n      and\n        /* \"#utility.yul\":5170:5301   */\n      iszero\n      tag_229\n      jumpi\n        /* \"#utility.yul\":5281:5299   */\n      tag_230\n      tag_231\n      jump\t// in\n    tag_230:\n        /* \"#utility.yul\":5170:5301   */\n    tag_229:\n        /* \"#utility.yul\":5329:5330   */\n      dup3\n        /* \"#utility.yul\":5326:5327   */\n      dup3\n        /* \"#utility.yul\":5322:5331   */\n      mul\n        /* \"#utility.yul\":5311:5331   */\n      swap1\n      pop\n        /* \"#utility.yul\":4989:5337   */\n      swap3\n      swap2\n      pop\n      pop\n      jump\t// out\n        /* \"#utility.yul\":5343:5439   */\n    tag_186:\n        /* \"#utility.yul\":5380:5387   */\n      0x00\n        /* \"#utility.yul\":5409:5433   */\n      tag_233\n        /* \"#utility.yul\":5427:5432   */\n      dup3\n        /* \"#utility.yul\":5409:5433   */\n      tag_234\n      jump\t// in\n    tag_233:\n        /* \"#utility.yul\":5398:5433   */\n      swap1\n      pop\n        /* \"#utility.yul\":5343:5439   */\n      swap2\n      swap1\n      pop\n      jump\t// out\n        /* \"#utility.yul\":5445:5571   */\n    tag_234:\n        /* \"#utility.yul\":5482:5489   */\n      0x00\n        /* \"#utility.yul\":5522:5564   */\n      0xffffffffffffffffffffffffffffffffffffffff\n        /* \"#utility.yul\":5515:5520   */\n      dup3\n        /* \"#utility.yul\":5511:5565   */\n      and\n        /* \"#utility.yul\":5500:5565   */\n      swap1\n      pop\n        /* \"#utility.yul\":5445:5571   */\n      swap2\n      swap1\n      pop\n      jump\t// out\n        /* \"#utility.yul\":5577:5654   */\n    tag_206:\n        /* \"#utility.yul\":5614:5621   */\n      0x00\n        /* \"#utility.yul\":5643:5648   */\n      dup2\n        /* \"#utility.yul\":5632:5648   */\n      swap1\n      pop\n        /* \"#utility.yul\":5577:5654   */\n      swap2\n      swap1\n      pop\n      jump\t// out\n        /* \"#utility.yul\":5660:5840   */\n    tag_231:\n        /* \"#utility.yul\":5708:5785   */\n      0x4e487b7100000000000000000000000000000000000000000000000000000000\n        /* \"#utility.yul\":5705:5706   */\n      0x00\n        /* \"#utility.yul\":5698:5786   */\n      mstore\n        /* \"#utility.yul\":5805:5809   */\n      0x11\n        /* \"#utility.yul\":5802:5803   */\n      0x04\n        /* \"#utility.yul\":5795:5810   */\n      mstore\n        /* \"#utility.yul\":5829:5833   */\n      0x24\n        /* \"#utility.yul\":5826:5827   */\n      0x00\n        /* \"#utility.yul\":5819:5834   */\n      revert\n        /* \"#utility.yul\":5846:6026   */\n    tag_225:\n        /* \"#utility.yul\":5894:5971   */\n      0x4e487b7100000000000000000000000000000000000000000000000000000000\n        /* \"#utility.yul\":5891:5892   */\n      0x00\n        /* \"#utility.yul\":5884:5972   */\n      mstore\n        /* \"#utility.yul\":5991:5995   */\n      0x12\n        /* \"#utility.yul\":5988:5989   */\n      0x04\n        /* \"#utility.yul\":5981:5996   */\n      mstore\n        /* \"#utility.yul\":6015:6019   */\n      0x24\n        /* \"#utility.yul\":6012:6013   */\n      0x00\n        /* \"#utility.yul\":6005:6020   */\n      revert\n        /* \"#utility.yul\":6155:6272   */\n    tag_172:\n        /* \"#utility.yul\":6264:6265   */\n      0x00\n        /* \"#utility.yul\":6261:6262   */\n      dup1\n        /* \"#utility.yul\":6254:6266   */\n      revert\n        /* \"#utility.yul\":6278:6503   */\n    tag_192:\n        /* \"#utility.yul\":6418:6452   */\n      0x4f776e61626c653a206e6577206f776e657220697320746865207a65726f2061\n        /* \"#utility.yul\":6414:6415   */\n      0x00\n        /* \"#utility.yul\":6406:6412   */\n      dup3\n        /* \"#utility.yul\":6402:6416   */\n      add\n        /* \"#utility.yul\":6395:6453   */\n      mstore\n        /* \"#utility.yul\":6487:6495   */\n      0x6464726573730000000000000000000000000000000000000000000000000000\n        /* \"#utility.yul\":6482:6484   */\n      0x20\n        /* \"#utility.yul\":6474:6480   */\n      dup3\n        /* \"#utility.yul\":6470:6485   */\n      add\n        /* \"#utility.yul\":6463:6496   */\n      mstore\n        /* \"#utility.yul\":6278:6503   */\n      pop\n      jump\t// out\n        /* \"#utility.yul\":6509:6691   */\n    tag_197:\n        /* \"#utility.yul\":6649:6683   */\n      0x4f776e61626c653a2063616c6c6572206973206e6f7420746865206f776e6572\n        /* \"#utility.yul\":6645:6646   */\n      0x00\n        /* \"#utility.yul\":6637:6643   */\n      dup3\n        /* \"#utility.yul\":6633:6647   */\n      add\n        /* \"#utility.yul\":6626:6684   */\n      mstore\n        /* \"#utility.yul\":6509:6691   */\n      pop\n      jump\t// out\n        /* \"#utility.yul\":6697:6927   */\n    tag_202:\n        /* \"#utility.yul\":6837:6871   */\n      0x556e61626c6520746f2063616c63756c6174652c506c65617365207375626d69\n        /* \"#utility.yul\":6833:6834   */\n      0x00\n        /* \"#utility.yul\":6825:6831   */\n      dup3\n        /* \"#utility.yul\":6821:6835   */\n      add\n        /* \"#utility.yul\":6814:6872   */\n      mstore\n        /* \"#utility.yul\":6906:6919   */\n      0x7420612072657175657374000000000000000000000000000000000000000000\n        /* \"#utility.yul\":6901:6903   */\n      0x20\n        /* \"#utility.yul\":6893:6899   */\n      dup3\n        /* \"#utility.yul\":6889:6904   */\n      add\n        /* \"#utility.yul\":6882:6920   */\n      mstore\n        /* \"#utility.yul\":6697:6927   */\n      pop\n      jump\t// out\n        /* \"#utility.yul\":6933:7055   */\n    tag_164:\n        /* \"#utility.yul\":7006:7030   */\n      tag_246\n        /* \"#utility.yul\":7024:7029   */\n      dup2\n        /* \"#utility.yul\":7006:7030   */\n      tag_186\n      jump\t// in\n    tag_246:\n        /* \"#utility.yul\":6999:7004   */\n      dup2\n        /* \"#utility.yul\":6996:7031   */\n      eq\n        /* \"#utility.yul\":6986:7049   */\n      tag_247\n      jumpi\n        /* \"#utility.yul\":7045:7046   */\n      0x00\n        /* \"#utility.yul\":7042:7043   */\n      dup1\n        /* \"#utility.yul\":7035:7047   */\n      revert\n        /* \"#utility.yul\":6986:7049   */\n    tag_247:\n        /* \"#utility.yul\":6933:7055   */\n      pop\n      jump\t// out\n        /* \"#utility.yul\":7061:7183   */\n    tag_168:\n        /* \"#utility.yul\":7134:7158   */\n      tag_249\n        /* \"#utility.yul\":7152:7157   */\n      dup2\n        /* \"#utility.yul\":7134:7158   */\n      tag_206\n      jump\t// in\n    tag_249:\n        /* \"#utility.yul\":7127:7132   */\n      dup2\n        /* \"#utility.yul\":7124:7159   */\n      eq\n        /* \"#utility.yul\":7114:7177   */\n      tag_250\n      jumpi\n        /* \"#utility.yul\":7173:7174   */\n      0x00\n        /* \"#utility.yul\":7170:7171   */\n      dup1\n        /* \"#utility.yul\":7163:7175   */\n      revert\n        /* \"#utility.yul\":7114:7177   */\n    tag_250:\n        /* \"#utility.yul\":7061:7183   */\n      pop\n      jump\t// out\n\n    auxdata: 0xa2646970667358221220fc6d6b3e677c2afd34acd7f461fb64793e5653dc7752606acc15fce8338c8a6164736f6c63430008070033\n}\n",
				"bytecode": {
					"linkReferences": {},
					"object": "6080604052610111600155600360025534801561001b57600080fd5b5061003861002d61003d60201b60201c565b61004560201b60201c565b610109565b600033905090565b60008060009054906101000a900473ffffffffffffffffffffffffffffffffffffffff169050816000806101000a81548173ffffffffffffffffffffffffffffffffffffffff021916908373ffffffffffffffffffffffffffffffffffffffff1602179055508173ffffffffffffffffffffffffffffffffffffffff168173ffffffffffffffffffffffffffffffffffffffff167f8be0079c531659141344cd1fd0a4f28419497f9722a3daafe3b4186f6b6457e060405160405180910390a35050565b610bfe806101186000396000f3fe608060405234801561001057600080fd5b50600436106100ea5760003560e01c80638f861ba71161008c578063a730941d11610066578063a730941d1461026f578063f2e602021461029f578063f2fde38b146102cf578063f74f3655146102eb576100ea565b80638f861ba7146101df5780639ce5c4bf1461020f578063a3cb7c551461023f576100ea565b80635c830098116100c85780635c830098146101575780636873e8d214610187578063715018a6146101b75780638da5cb5b146101c1576100ea565b806331bfb377146100ef57806334fcf4371461010b5780634f6ca3ce14610127575b600080fd5b6101096004803603810190610104919061080e565b61031b565b005b6101256004803603810190610120919061080e565b61032d565b005b610141600480360381019061013c919061080e565b61033f565b60405161014e919061097d565b60405180910390f35b610171600480360381019061016c919061080e565b6104bb565b60405161017e919061097d565b60405180910390f35b6101a1600480360381019061019c919061080e565b6104cf565b6040516101ae919061097d565b60405180910390f35b6101bf6104e3565b005b6101c96104f7565b6040516101d69190610902565b60405180910390f35b6101f960048036038101906101f4919061083b565b610520565b604051610206919061097d565b60405180910390f35b6102296004803603810190610224919061083b565b610534565b604051610236919061097d565b60405180910390f35b6102596004803603810190610254919061080e565b610548565b604051610266919061097d565b60405180910390f35b6102896004803603810190610284919061080e565b61055c565b604051610296919061097d565b60405180910390f35b6102b960048036038101906102b4919061080e565b610570565b6040516102c6919061097d565b60405180910390f35b6102e960048036038101906102e491906107e1565b61059d565b005b6103056004803603810190610300919061083b565b610621565b604051610312919061097d565b60405180910390f35b610323610641565b8060028190555050565b610335610641565b8060018190555050565b60008060015483101561035557600190506104b2565b60015483101580156103745750600a60015461037191906109da565b83105b1561038257600a90506104b1565b600a60015461039191906109da565b83101580156103ad575060646001546103aa91906109da565b83105b156103bb57606490506104b0565b60646001546103ca91906109da565b83101580156103e757506103e86001546103e491906109da565b83105b156103f6576103e890506104af565b6103e860015461040691906109da565b8310158015610424575061271060015461042091906109da565b8311155b156104335761271090506104ae565b61271060015461044391906109da565b83101580156104625750620186a060015461045e91906109da565b8311155b1561047257620186a090506104ad565b6040517fd1d89b740000000000000000000000000000000000000000000000000000000081526004016104a49061095d565b60405180910390fd5b5b5b5b5b5b80915050919050565b60006104c8826024610621565b9050919050565b60006104dc826036610621565b9050919050565b6104eb610641565b6104f560006106bf565b565b60008060009054906101000a900473ffffffffffffffffffffffffffffffffffffffff16905090565b600061052c8383610621565b905092915050565b60006105408284610783565b905092915050565b6000610555826018610621565b9050919050565b600061056982601e610621565b9050919050565b60008060025483116105855760019050610594565b61059183600254610783565b90505b80915050919050565b6105a5610641565b600073ffffffffffffffffffffffffffffffffffffffff168173ffffffffffffffffffffffffffffffffffffffff161415610615576040517f08c379a000000000000000000000000000000000000000000000000000000000815260040161060c9061091d565b60405180910390fd5b61061e816106bf565b50565b6000606461062f8484610799565b61063991906109a9565b905092915050565b6106496107af565b73ffffffffffffffffffffffffffffffffffffffff166106676104f7565b73ffffffffffffffffffffffffffffffffffffffff16146106bd576040517f08c379a00000000000000000000000000000000000000000000000000000000081526004016106b49061093d565b60405180910390fd5b565b60008060009054906101000a900473ffffffffffffffffffffffffffffffffffffffff169050816000806101000a81548173ffffffffffffffffffffffffffffffffffffffff021916908373ffffffffffffffffffffffffffffffffffffffff1602179055508173ffffffffffffffffffffffffffffffffffffffff168173ffffffffffffffffffffffffffffffffffffffff167f8be0079c531659141344cd1fd0a4f28419497f9722a3daafe3b4186f6b6457e060405160405180910390a35050565b6000818361079191906109a9565b905092915050565b600081836107a791906109da565b905092915050565b600033905090565b6000813590506107c681610b9a565b92915050565b6000813590506107db81610bb1565b92915050565b6000602082840312156107f7576107f6610ace565b5b6000610805848285016107b7565b91505092915050565b60006020828403121561082457610823610ace565b5b6000610832848285016107cc565b91505092915050565b6000806040838503121561085257610851610ace565b5b6000610860858286016107cc565b9250506020610871858286016107cc565b9150509250929050565b61088481610a34565b82525050565b6000610897602683610998565b91506108a282610ad3565b604082019050919050565b60006108ba602083610998565b91506108c582610b22565b602082019050919050565b60006108dd602b83610998565b91506108e882610b4b565b604082019050919050565b6108fc81610a66565b82525050565b6000602082019050610917600083018461087b565b92915050565b600060208201905081810360008301526109368161088a565b9050919050565b60006020820190508181036000830152610956816108ad565b9050919050565b60006020820190508181036000830152610976816108d0565b9050919050565b600060208201905061099260008301846108f3565b92915050565b600082825260208201905092915050565b60006109b482610a66565b91506109bf83610a66565b9250826109cf576109ce610a9f565b5b828204905092915050565b60006109e582610a66565b91506109f083610a66565b9250817fffffffffffffffffffffffffffffffffffffffffffffffffffffffffffffffff0483118215151615610a2957610a28610a70565b5b828202905092915050565b6000610a3f82610a46565b9050919050565b600073ffffffffffffffffffffffffffffffffffffffff82169050919050565b6000819050919050565b7f4e487b7100000000000000000000000000000000000000000000000000000000600052601160045260246000fd5b7f4e487b7100000000000000000000000000000000000000000000000000000000600052601260045260246000fd5b600080fd5b7f4f776e61626c653a206e6577206f776e657220697320746865207a65726f206160008201527f6464726573730000000000000000000000000000000000000000000000000000602082015250565b7f4f776e61626c653a2063616c6c6572206973206e6f7420746865206f776e6572600082015250565b7f556e61626c6520746f2063616c63756c6174652c506c65617365207375626d6960008201527f7420612072657175657374000000000000000000000000000000000000000000602082015250565b610ba381610a34565b8114610bae57600080fd5b50565b610bba81610a66565b8114610bc557600080fd5b5056fea2646970667358221220fc6d6b3e677c2afd34acd7f461fb64793e5653dc7752606acc15fce8338c8a6164736f6c63430008070033",
					"opcodes": "PUSH1 0x80 PUSH1 0x40 MSTORE PUSH2 0x111 PUSH1 0x1 SSTORE PUSH1 0x3 PUSH1 0x2 SSTORE CALLVALUE DUP1 ISZERO PUSH2 0x1B JUMPI PUSH1 0x0 DUP1 REVERT JUMPDEST POP PUSH2 0x38 PUSH2 0x2D PUSH2 0x3D PUSH1 0x20 SHL PUSH1 0x20 SHR JUMP JUMPDEST PUSH2 0x45 PUSH1 0x20 SHL PUSH1 0x20 SHR JUMP JUMPDEST PUSH2 0x109 JUMP JUMPDEST PUSH1 0x0 CALLER SWAP1 POP SWAP1 JUMP JUMPDEST PUSH1 0x0 DUP1 PUSH1 0x0 SWAP1 SLOAD SWAP1 PUSH2 0x100 EXP SWAP1 DIV PUSH20 0xFFFFFFFFFFFFFFFFFFFFFFFFFFFFFFFFFFFFFFFF AND SWAP1 POP DUP2 PUSH1 0x0 DUP1 PUSH2 0x100 EXP DUP2 SLOAD DUP2 PUSH20 0xFFFFFFFFFFFFFFFFFFFFFFFFFFFFFFFFFFFFFFFF MUL NOT AND SWAP1 DUP4 PUSH20 0xFFFFFFFFFFFFFFFFFFFFFFFFFFFFFFFFFFFFFFFF AND MUL OR SWAP1 SSTORE POP DUP2 PUSH20 0xFFFFFFFFFFFFFFFFFFFFFFFFFFFFFFFFFFFFFFFF AND DUP2 PUSH20 0xFFFFFFFFFFFFFFFFFFFFFFFFFFFFFFFFFFFFFFFF AND PUSH32 0x8BE0079C531659141344CD1FD0A4F28419497F9722A3DAAFE3B4186F6B6457E0 PUSH1 0x40 MLOAD PUSH1 0x40 MLOAD DUP1 SWAP2 SUB SWAP1 LOG3 POP POP JUMP JUMPDEST PUSH2 0xBFE DUP1 PUSH2 0x118 PUSH1 0x0 CODECOPY PUSH1 0x0 RETURN INVALID PUSH1 0x80 PUSH1 0x40 MSTORE CALLVALUE DUP1 ISZERO PUSH2 0x10 JUMPI PUSH1 0x0 DUP1 REVERT JUMPDEST POP PUSH1 0x4 CALLDATASIZE LT PUSH2 0xEA JUMPI PUSH1 0x0 CALLDATALOAD PUSH1 0xE0 SHR DUP1 PUSH4 0x8F861BA7 GT PUSH2 0x8C JUMPI DUP1 PUSH4 0xA730941D GT PUSH2 0x66 JUMPI DUP1 PUSH4 0xA730941D EQ PUSH2 0x26F JUMPI DUP1 PUSH4 0xF2E60202 EQ PUSH2 0x29F JUMPI DUP1 PUSH4 0xF2FDE38B EQ PUSH2 0x2CF JUMPI DUP1 PUSH4 0xF74F3655 EQ PUSH2 0x2EB JUMPI PUSH2 0xEA JUMP JUMPDEST DUP1 PUSH4 0x8F861BA7 EQ PUSH2 0x1DF JUMPI DUP1 PUSH4 0x9CE5C4BF EQ PUSH2 0x20F JUMPI DUP1 PUSH4 0xA3CB7C55 EQ PUSH2 0x23F JUMPI PUSH2 0xEA JUMP JUMPDEST DUP1 PUSH4 0x5C830098 GT PUSH2 0xC8 JUMPI DUP1 PUSH4 0x5C830098 EQ PUSH2 0x157 JUMPI DUP1 PUSH4 0x6873E8D2 EQ PUSH2 0x187 JUMPI DUP1 PUSH4 0x715018A6 EQ PUSH2 0x1B7 JUMPI DUP1 PUSH4 0x8DA5CB5B EQ PUSH2 0x1C1 JUMPI PUSH2 0xEA JUMP JUMPDEST DUP1 PUSH4 0x31BFB377 EQ PUSH2 0xEF JUMPI DUP1 PUSH4 0x34FCF437 EQ PUSH2 0x10B JUMPI DUP1 PUSH4 0x4F6CA3CE EQ PUSH2 0x127 JUMPI JUMPDEST PUSH1 0x0 DUP1 REVERT JUMPDEST PUSH2 0x109 PUSH1 0x4 DUP1 CALLDATASIZE SUB DUP2 ADD SWAP1 PUSH2 0x104 SWAP2 SWAP1 PUSH2 0x80E JUMP JUMPDEST PUSH2 0x31B JUMP JUMPDEST STOP JUMPDEST PUSH2 0x125 PUSH1 0x4 DUP1 CALLDATASIZE SUB DUP2 ADD SWAP1 PUSH2 0x120 SWAP2 SWAP1 PUSH2 0x80E JUMP JUMPDEST PUSH2 0x32D JUMP JUMPDEST STOP JUMPDEST PUSH2 0x141 PUSH1 0x4 DUP1 CALLDATASIZE SUB DUP2 ADD SWAP1 PUSH2 0x13C SWAP2 SWAP1 PUSH2 0x80E JUMP JUMPDEST PUSH2 0x33F JUMP JUMPDEST PUSH1 0x40 MLOAD PUSH2 0x14E SWAP2 SWAP1 PUSH2 0x97D JUMP JUMPDEST PUSH1 0x40 MLOAD DUP1 SWAP2 SUB SWAP1 RETURN JUMPDEST PUSH2 0x171 PUSH1 0x4 DUP1 CALLDATASIZE SUB DUP2 ADD SWAP1 PUSH2 0x16C SWAP2 SWAP1 PUSH2 0x80E JUMP JUMPDEST PUSH2 0x4BB JUMP JUMPDEST PUSH1 0x40 MLOAD PUSH2 0x17E SWAP2 SWAP1 PUSH2 0x97D JUMP JUMPDEST PUSH1 0x40 MLOAD DUP1 SWAP2 SUB SWAP1 RETURN JUMPDEST PUSH2 0x1A1 PUSH1 0x4 DUP1 CALLDATASIZE SUB DUP2 ADD SWAP1 PUSH2 0x19C SWAP2 SWAP1 PUSH2 0x80E JUMP JUMPDEST PUSH2 0x4CF JUMP JUMPDEST PUSH1 0x40 MLOAD PUSH2 0x1AE SWAP2 SWAP1 PUSH2 0x97D JUMP JUMPDEST PUSH1 0x40 MLOAD DUP1 SWAP2 SUB SWAP1 RETURN JUMPDEST PUSH2 0x1BF PUSH2 0x4E3 JUMP JUMPDEST STOP JUMPDEST PUSH2 0x1C9 PUSH2 0x4F7 JUMP JUMPDEST PUSH1 0x40 MLOAD PUSH2 0x1D6 SWAP2 SWAP1 PUSH2 0x902 JUMP JUMPDEST PUSH1 0x40 MLOAD DUP1 SWAP2 SUB SWAP1 RETURN JUMPDEST PUSH2 0x1F9 PUSH1 0x4 DUP1 CALLDATASIZE SUB DUP2 ADD SWAP1 PUSH2 0x1F4 SWAP2 SWAP1 PUSH2 0x83B JUMP JUMPDEST PUSH2 0x520 JUMP JUMPDEST PUSH1 0x40 MLOAD PUSH2 0x206 SWAP2 SWAP1 PUSH2 0x97D JUMP JUMPDEST PUSH1 0x40 MLOAD DUP1 SWAP2 SUB SWAP1 RETURN JUMPDEST PUSH2 0x229 PUSH1 0x4 DUP1 CALLDATASIZE SUB DUP2 ADD SWAP1 PUSH2 0x224 SWAP2 SWAP1 PUSH2 0x83B JUMP JUMPDEST PUSH2 0x534 JUMP JUMPDEST PUSH1 0x40 MLOAD PUSH2 0x236 SWAP2 SWAP1 PUSH2 0x97D JUMP JUMPDEST PUSH1 0x40 MLOAD DUP1 SWAP2 SUB SWAP1 RETURN JUMPDEST PUSH2 0x259 PUSH1 0x4 DUP1 CALLDATASIZE SUB DUP2 ADD SWAP1 PUSH2 0x254 SWAP2 SWAP1 PUSH2 0x80E JUMP JUMPDEST PUSH2 0x548 JUMP JUMPDEST PUSH1 0x40 MLOAD PUSH2 0x266 SWAP2 SWAP1 PUSH2 0x97D JUMP JUMPDEST PUSH1 0x40 MLOAD DUP1 SWAP2 SUB SWAP1 RETURN JUMPDEST PUSH2 0x289 PUSH1 0x4 DUP1 CALLDATASIZE SUB DUP2 ADD SWAP1 PUSH2 0x284 SWAP2 SWAP1 PUSH2 0x80E JUMP JUMPDEST PUSH2 0x55C JUMP JUMPDEST PUSH1 0x40 MLOAD PUSH2 0x296 SWAP2 SWAP1 PUSH2 0x97D JUMP JUMPDEST PUSH1 0x40 MLOAD DUP1 SWAP2 SUB SWAP1 RETURN JUMPDEST PUSH2 0x2B9 PUSH1 0x4 DUP1 CALLDATASIZE SUB DUP2 ADD SWAP1 PUSH2 0x2B4 SWAP2 SWAP1 PUSH2 0x80E JUMP JUMPDEST PUSH2 0x570 JUMP JUMPDEST PUSH1 0x40 MLOAD PUSH2 0x2C6 SWAP2 SWAP1 PUSH2 0x97D JUMP JUMPDEST PUSH1 0x40 MLOAD DUP1 SWAP2 SUB SWAP1 RETURN JUMPDEST PUSH2 0x2E9 PUSH1 0x4 DUP1 CALLDATASIZE SUB DUP2 ADD SWAP1 PUSH2 0x2E4 SWAP2 SWAP1 PUSH2 0x7E1 JUMP JUMPDEST PUSH2 0x59D JUMP JUMPDEST STOP JUMPDEST PUSH2 0x305 PUSH1 0x4 DUP1 CALLDATASIZE SUB DUP2 ADD SWAP1 PUSH2 0x300 SWAP2 SWAP1 PUSH2 0x83B JUMP JUMPDEST PUSH2 0x621 JUMP JUMPDEST PUSH1 0x40 MLOAD PUSH2 0x312 SWAP2 SWAP1 PUSH2 0x97D JUMP JUMPDEST PUSH1 0x40 MLOAD DUP1 SWAP2 SUB SWAP1 RETURN JUMPDEST PUSH2 0x323 PUSH2 0x641 JUMP JUMPDEST DUP1 PUSH1 0x2 DUP2 SWAP1 SSTORE POP POP JUMP JUMPDEST PUSH2 0x335 PUSH2 0x641 JUMP JUMPDEST DUP1 PUSH1 0x1 DUP2 SWAP1 SSTORE POP POP JUMP JUMPDEST PUSH1 0x0 DUP1 PUSH1 0x1 SLOAD DUP4 LT ISZERO PUSH2 0x355 JUMPI PUSH1 0x1 SWAP1 POP PUSH2 0x4B2 JUMP JUMPDEST PUSH1 0x1 SLOAD DUP4 LT ISZERO DUP1 ISZERO PUSH2 0x374 JUMPI POP PUSH1 0xA PUSH1 0x1 SLOAD PUSH2 0x371 SWAP2 SWAP1 PUSH2 0x9DA JUMP JUMPDEST DUP4 LT JUMPDEST ISZERO PUSH2 0x382 JUMPI PUSH1 0xA SWAP1 POP PUSH2 0x4B1 JUMP JUMPDEST PUSH1 0xA PUSH1 0x1 SLOAD PUSH2 0x391 SWAP2 SWAP1 PUSH2 0x9DA JUMP JUMPDEST DUP4 LT ISZERO DUP1 ISZERO PUSH2 0x3AD JUMPI POP PUSH1 0x64 PUSH1 0x1 SLOAD PUSH2 0x3AA SWAP2 SWAP1 PUSH2 0x9DA JUMP JUMPDEST DUP4 LT JUMPDEST ISZERO PUSH2 0x3BB JUMPI PUSH1 0x64 SWAP1 POP PUSH2 0x4B0 JUMP JUMPDEST PUSH1 0x64 PUSH1 0x1 SLOAD PUSH2 0x3CA SWAP2 SWAP1 PUSH2 0x9DA JUMP JUMPDEST DUP4 LT ISZERO DUP1 ISZERO PUSH2 0x3E7 JUMPI POP PUSH2 0x3E8 PUSH1 0x1 SLOAD PUSH2 0x3E4 SWAP2 SWAP1 PUSH2 0x9DA JUMP JUMPDEST DUP4 LT JUMPDEST ISZERO PUSH2 0x3F6 JUMPI PUSH2 0x3E8 SWAP1 POP PUSH2 0x4AF JUMP JUMPDEST PUSH2 0x3E8 PUSH1 0x1 SLOAD PUSH2 0x406 SWAP2 SWAP1 PUSH2 0x9DA JUMP JUMPDEST DUP4 LT ISZERO DUP1 ISZERO PUSH2 0x424 JUMPI POP PUSH2 0x2710 PUSH1 0x1 SLOAD PUSH2 0x420 SWAP2 SWAP1 PUSH2 0x9DA JUMP JUMPDEST DUP4 GT ISZERO JUMPDEST ISZERO PUSH2 0x433 JUMPI PUSH2 0x2710 SWAP1 POP PUSH2 0x4AE JUMP JUMPDEST PUSH2 0x2710 PUSH1 0x1 SLOAD PUSH2 0x443 SWAP2 SWAP1 PUSH2 0x9DA JUMP JUMPDEST DUP4 LT ISZERO DUP1 ISZERO PUSH2 0x462 JUMPI POP PUSH3 0x186A0 PUSH1 0x1 SLOAD PUSH2 0x45E SWAP2 SWAP1 PUSH2 0x9DA JUMP JUMPDEST DUP4 GT ISZERO JUMPDEST ISZERO PUSH2 0x472 JUMPI PUSH3 0x186A0 SWAP1 POP PUSH2 0x4AD JUMP JUMPDEST PUSH1 0x40 MLOAD PUSH32 0xD1D89B7400000000000000000000000000000000000000000000000000000000 DUP2 MSTORE PUSH1 0x4 ADD PUSH2 0x4A4 SWAP1 PUSH2 0x95D JUMP JUMPDEST PUSH1 0x40 MLOAD DUP1 SWAP2 SUB SWAP1 REVERT JUMPDEST JUMPDEST JUMPDEST JUMPDEST JUMPDEST JUMPDEST DUP1 SWAP2 POP POP SWAP2 SWAP1 POP JUMP JUMPDEST PUSH1 0x0 PUSH2 0x4C8 DUP3 PUSH1 0x24 PUSH2 0x621 JUMP JUMPDEST SWAP1 POP SWAP2 SWAP1 POP JUMP JUMPDEST PUSH1 0x0 PUSH2 0x4DC DUP3 PUSH1 0x36 PUSH2 0x621 JUMP JUMPDEST SWAP1 POP SWAP2 SWAP1 POP JUMP JUMPDEST PUSH2 0x4EB PUSH2 0x641 JUMP JUMPDEST PUSH2 0x4F5 PUSH1 0x0 PUSH2 0x6BF JUMP JUMPDEST JUMP JUMPDEST PUSH1 0x0 DUP1 PUSH1 0x0 SWAP1 SLOAD SWAP1 PUSH2 0x100 EXP SWAP1 DIV PUSH20 0xFFFFFFFFFFFFFFFFFFFFFFFFFFFFFFFFFFFFFFFF AND SWAP1 POP SWAP1 JUMP JUMPDEST PUSH1 0x0 PUSH2 0x52C DUP4 DUP4 PUSH2 0x621 JUMP JUMPDEST SWAP1 POP SWAP3 SWAP2 POP POP JUMP JUMPDEST PUSH1 0x0 PUSH2 0x540 DUP3 DUP5 PUSH2 0x783 JUMP JUMPDEST SWAP1 POP SWAP3 SWAP2 POP POP JUMP JUMPDEST PUSH1 0x0 PUSH2 0x555 DUP3 PUSH1 0x18 PUSH2 0x621 JUMP JUMPDEST SWAP1 POP SWAP2 SWAP1 POP JUMP JUMPDEST PUSH1 0x0 PUSH2 0x569 DUP3 PUSH1 0x1E PUSH2 0x621 JUMP JUMPDEST SWAP1 POP SWAP2 SWAP1 POP JUMP JUMPDEST PUSH1 0x0 DUP1 PUSH1 0x2 SLOAD DUP4 GT PUSH2 0x585 JUMPI PUSH1 0x1 SWAP1 POP PUSH2 0x594 JUMP JUMPDEST PUSH2 0x591 DUP4 PUSH1 0x2 SLOAD PUSH2 0x783 JUMP JUMPDEST SWAP1 POP JUMPDEST DUP1 SWAP2 POP POP SWAP2 SWAP1 POP JUMP JUMPDEST PUSH2 0x5A5 PUSH2 0x641 JUMP JUMPDEST PUSH1 0x0 PUSH20 0xFFFFFFFFFFFFFFFFFFFFFFFFFFFFFFFFFFFFFFFF AND DUP2 PUSH20 0xFFFFFFFFFFFFFFFFFFFFFFFFFFFFFFFFFFFFFFFF AND EQ ISZERO PUSH2 0x615 JUMPI PUSH1 0x40 MLOAD PUSH32 0x8C379A000000000000000000000000000000000000000000000000000000000 DUP2 MSTORE PUSH1 0x4 ADD PUSH2 0x60C SWAP1 PUSH2 0x91D JUMP JUMPDEST PUSH1 0x40 MLOAD DUP1 SWAP2 SUB SWAP1 REVERT JUMPDEST PUSH2 0x61E DUP2 PUSH2 0x6BF JUMP JUMPDEST POP JUMP JUMPDEST PUSH1 0x0 PUSH1 0x64 PUSH2 0x62F DUP5 DUP5 PUSH2 0x799 JUMP JUMPDEST PUSH2 0x639 SWAP2 SWAP1 PUSH2 0x9A9 JUMP JUMPDEST SWAP1 POP SWAP3 SWAP2 POP POP JUMP JUMPDEST PUSH2 0x649 PUSH2 0x7AF JUMP JUMPDEST PUSH20 0xFFFFFFFFFFFFFFFFFFFFFFFFFFFFFFFFFFFFFFFF AND PUSH2 0x667 PUSH2 0x4F7 JUMP JUMPDEST PUSH20 0xFFFFFFFFFFFFFFFFFFFFFFFFFFFFFFFFFFFFFFFF AND EQ PUSH2 0x6BD JUMPI PUSH1 0x40 MLOAD PUSH32 0x8C379A000000000000000000000000000000000000000000000000000000000 DUP2 MSTORE PUSH1 0x4 ADD PUSH2 0x6B4 SWAP1 PUSH2 0x93D JUMP JUMPDEST PUSH1 0x40 MLOAD DUP1 SWAP2 SUB SWAP1 REVERT JUMPDEST JUMP JUMPDEST PUSH1 0x0 DUP1 PUSH1 0x0 SWAP1 SLOAD SWAP1 PUSH2 0x100 EXP SWAP1 DIV PUSH20 0xFFFFFFFFFFFFFFFFFFFFFFFFFFFFFFFFFFFFFFFF AND SWAP1 POP DUP2 PUSH1 0x0 DUP1 PUSH2 0x100 EXP DUP2 SLOAD DUP2 PUSH20 0xFFFFFFFFFFFFFFFFFFFFFFFFFFFFFFFFFFFFFFFF MUL NOT AND SWAP1 DUP4 PUSH20 0xFFFFFFFFFFFFFFFFFFFFFFFFFFFFFFFFFFFFFFFF AND MUL OR SWAP1 SSTORE POP DUP2 PUSH20 0xFFFFFFFFFFFFFFFFFFFFFFFFFFFFFFFFFFFFFFFF AND DUP2 PUSH20 0xFFFFFFFFFFFFFFFFFFFFFFFFFFFFFFFFFFFFFFFF AND PUSH32 0x8BE0079C531659141344CD1FD0A4F28419497F9722A3DAAFE3B4186F6B6457E0 PUSH1 0x40 MLOAD PUSH1 0x40 MLOAD DUP1 SWAP2 SUB SWAP1 LOG3 POP POP JUMP JUMPDEST PUSH1 0x0 DUP2 DUP4 PUSH2 0x791 SWAP2 SWAP1 PUSH2 0x9A9 JUMP JUMPDEST SWAP1 POP SWAP3 SWAP2 POP POP JUMP JUMPDEST PUSH1 0x0 DUP2 DUP4 PUSH2 0x7A7 SWAP2 SWAP1 PUSH2 0x9DA JUMP JUMPDEST SWAP1 POP SWAP3 SWAP2 POP POP JUMP JUMPDEST PUSH1 0x0 CALLER SWAP1 POP SWAP1 JUMP JUMPDEST PUSH1 0x0 DUP2 CALLDATALOAD SWAP1 POP PUSH2 0x7C6 DUP2 PUSH2 0xB9A JUMP JUMPDEST SWAP3 SWAP2 POP POP JUMP JUMPDEST PUSH1 0x0 DUP2 CALLDATALOAD SWAP1 POP PUSH2 0x7DB DUP2 PUSH2 0xBB1 JUMP JUMPDEST SWAP3 SWAP2 POP POP JUMP JUMPDEST PUSH1 0x0 PUSH1 0x20 DUP3 DUP5 SUB SLT ISZERO PUSH2 0x7F7 JUMPI PUSH2 0x7F6 PUSH2 0xACE JUMP JUMPDEST JUMPDEST PUSH1 0x0 PUSH2 0x805 DUP5 DUP3 DUP6 ADD PUSH2 0x7B7 JUMP JUMPDEST SWAP2 POP POP SWAP3 SWAP2 POP POP JUMP JUMPDEST PUSH1 0x0 PUSH1 0x20 DUP3 DUP5 SUB SLT ISZERO PUSH2 0x824 JUMPI PUSH2 0x823 PUSH2 0xACE JUMP JUMPDEST JUMPDEST PUSH1 0x0 PUSH2 0x832 DUP5 DUP3 DUP6 ADD PUSH2 0x7CC JUMP JUMPDEST SWAP2 POP POP SWAP3 SWAP2 POP POP JUMP JUMPDEST PUSH1 0x0 DUP1 PUSH1 0x40 DUP4 DUP6 SUB SLT ISZERO PUSH2 0x852 JUMPI PUSH2 0x851 PUSH2 0xACE JUMP JUMPDEST JUMPDEST PUSH1 0x0 PUSH2 0x860 DUP6 DUP3 DUP7 ADD PUSH2 0x7CC JUMP JUMPDEST SWAP3 POP POP PUSH1 0x20 PUSH2 0x871 DUP6 DUP3 DUP7 ADD PUSH2 0x7CC JUMP JUMPDEST SWAP2 POP POP SWAP3 POP SWAP3 SWAP1 POP JUMP JUMPDEST PUSH2 0x884 DUP2 PUSH2 0xA34 JUMP JUMPDEST DUP3 MSTORE POP POP JUMP JUMPDEST PUSH1 0x0 PUSH2 0x897 PUSH1 0x26 DUP4 PUSH2 0x998 JUMP JUMPDEST SWAP2 POP PUSH2 0x8A2 DUP3 PUSH2 0xAD3 JUMP JUMPDEST PUSH1 0x40 DUP3 ADD SWAP1 POP SWAP2 SWAP1 POP JUMP JUMPDEST PUSH1 0x0 PUSH2 0x8BA PUSH1 0x20 DUP4 PUSH2 0x998 JUMP JUMPDEST SWAP2 POP PUSH2 0x8C5 DUP3 PUSH2 0xB22 JUMP JUMPDEST PUSH1 0x20 DUP3 ADD SWAP1 POP SWAP2 SWAP1 POP JUMP JUMPDEST PUSH1 0x0 PUSH2 0x8DD PUSH1 0x2B DUP4 PUSH2 0x998 JUMP JUMPDEST SWAP2 POP PUSH2 0x8E8 DUP3 PUSH2 0xB4B JUMP JUMPDEST PUSH1 0x40 DUP3 ADD SWAP1 POP SWAP2 SWAP1 POP JUMP JUMPDEST PUSH2 0x8FC DUP2 PUSH2 0xA66 JUMP JUMPDEST DUP3 MSTORE POP POP JUMP JUMPDEST PUSH1 0x0 PUSH1 0x20 DUP3 ADD SWAP1 POP PUSH2 0x917 PUSH1 0x0 DUP4 ADD DUP5 PUSH2 0x87B JUMP JUMPDEST SWAP3 SWAP2 POP POP JUMP JUMPDEST PUSH1 0x0 PUSH1 0x20 DUP3 ADD SWAP1 POP DUP2 DUP2 SUB PUSH1 0x0 DUP4 ADD MSTORE PUSH2 0x936 DUP2 PUSH2 0x88A JUMP JUMPDEST SWAP1 POP SWAP2 SWAP1 POP JUMP JUMPDEST PUSH1 0x0 PUSH1 0x20 DUP3 ADD SWAP1 POP DUP2 DUP2 SUB PUSH1 0x0 DUP4 ADD MSTORE PUSH2 0x956 DUP2 PUSH2 0x8AD JUMP JUMPDEST SWAP1 POP SWAP2 SWAP1 POP JUMP JUMPDEST PUSH1 0x0 PUSH1 0x20 DUP3 ADD SWAP1 POP DUP2 DUP2 SUB PUSH1 0x0 DUP4 ADD MSTORE PUSH2 0x976 DUP2 PUSH2 0x8D0 JUMP JUMPDEST SWAP1 POP SWAP2 SWAP1 POP JUMP JUMPDEST PUSH1 0x0 PUSH1 0x20 DUP3 ADD SWAP1 POP PUSH2 0x992 PUSH1 0x0 DUP4 ADD DUP5 PUSH2 0x8F3 JUMP JUMPDEST SWAP3 SWAP2 POP POP JUMP JUMPDEST PUSH1 0x0 DUP3 DUP3 MSTORE PUSH1 0x20 DUP3 ADD SWAP1 POP SWAP3 SWAP2 POP POP JUMP JUMPDEST PUSH1 0x0 PUSH2 0x9B4 DUP3 PUSH2 0xA66 JUMP JUMPDEST SWAP2 POP PUSH2 0x9BF DUP4 PUSH2 0xA66 JUMP JUMPDEST SWAP3 POP DUP3 PUSH2 0x9CF JUMPI PUSH2 0x9CE PUSH2 0xA9F JUMP JUMPDEST JUMPDEST DUP3 DUP3 DIV SWAP1 POP SWAP3 SWAP2 POP POP JUMP JUMPDEST PUSH1 0x0 PUSH2 0x9E5 DUP3 PUSH2 0xA66 JUMP JUMPDEST SWAP2 POP PUSH2 0x9F0 DUP4 PUSH2 0xA66 JUMP JUMPDEST SWAP3 POP DUP2 PUSH32 0xFFFFFFFFFFFFFFFFFFFFFFFFFFFFFFFFFFFFFFFFFFFFFFFFFFFFFFFFFFFFFFFF DIV DUP4 GT DUP3 ISZERO ISZERO AND ISZERO PUSH2 0xA29 JUMPI PUSH2 0xA28 PUSH2 0xA70 JUMP JUMPDEST JUMPDEST DUP3 DUP3 MUL SWAP1 POP SWAP3 SWAP2 POP POP JUMP JUMPDEST PUSH1 0x0 PUSH2 0xA3F DUP3 PUSH2 0xA46 JUMP JUMPDEST SWAP1 POP SWAP2 SWAP1 POP JUMP JUMPDEST PUSH1 0x0 PUSH20 0xFFFFFFFFFFFFFFFFFFFFFFFFFFFFFFFFFFFFFFFF DUP3 AND SWAP1 POP SWAP2 SWAP1 POP JUMP JUMPDEST PUSH1 0x0 DUP2 SWAP1 POP SWAP2 SWAP1 POP JUMP JUMPDEST PUSH32 0x4E487B7100000000000000000000000000000000000000000000000000000000 PUSH1 0x0 MSTORE PUSH1 0x11 PUSH1 0x4 MSTORE PUSH1 0x24 PUSH1 0x0 REVERT JUMPDEST PUSH32 0x4E487B7100000000000000000000000000000000000000000000000000000000 PUSH1 0x0 MSTORE PUSH1 0x12 PUSH1 0x4 MSTORE PUSH1 0x24 PUSH1 0x0 REVERT JUMPDEST PUSH1 0x0 DUP1 REVERT JUMPDEST PUSH32 0x4F776E61626C653A206E6577206F776E657220697320746865207A65726F2061 PUSH1 0x0 DUP3 ADD MSTORE PUSH32 0x6464726573730000000000000000000000000000000000000000000000000000 PUSH1 0x20 DUP3 ADD MSTORE POP JUMP JUMPDEST PUSH32 0x4F776E61626C653A2063616C6C6572206973206E6F7420746865206F776E6572 PUSH1 0x0 DUP3 ADD MSTORE POP JUMP JUMPDEST PUSH32 0x556E61626C6520746F2063616C63756C6174652C506C65617365207375626D69 PUSH1 0x0 DUP3 ADD MSTORE PUSH32 0x7420612072657175657374000000000000000000000000000000000000000000 PUSH1 0x20 DUP3 ADD MSTORE POP JUMP JUMPDEST PUSH2 0xBA3 DUP2 PUSH2 0xA34 JUMP JUMPDEST DUP2 EQ PUSH2 0xBAE JUMPI PUSH1 0x0 DUP1 REVERT JUMPDEST POP JUMP JUMPDEST PUSH2 0xBBA DUP2 PUSH2 0xA66 JUMP JUMPDEST DUP2 EQ PUSH2 0xBC5 JUMPI PUSH1 0x0 DUP1 REVERT JUMPDEST POP JUMP INVALID LOG2 PUSH5 0x6970667358 0x22 SLT KECCAK256 0xFC PUSH14 0x6B3E677C2AFD34ACD7F461FB6479 RETURNDATACOPY JUMP MSTORE8 0xDC PUSH24 0x52606ACC15FCE8338C8A6164736F6C634300080700330000 "
				},
				"gasEstimates": {
					"creation": {
						"codeDepositCost": "614000",
						"executionCost": "infinite",
						"totalCost": "infinite"
					},
					"external": {
						"getDeductMoney(uint256,uint256)": "infinite",
						"getMatNumber(uint256)": "infinite",
						"getPercentage(uint256,uint256)": "infinite",
						"getPunish(uint256,uint256)": "infinite",
						"getTaskTrans(uint256)": "infinite",
						"getTaskTransEnd(uint256)": "infinite",
						"getTaskTransFirst(uint256)": "infinite",
						"getTaskVf(uint256)": "infinite",
						"owner()": "2611",
						"punishRatio(uint256)": "infinite",
						"renounceOwnership()": "30465",
						"setRate(uint256)": "24830",
						"setvfN(uint256)": "24808",
						"transferOwnership(address)": "30813"
					}
				},
				"methodIdentifiers": {
					"getDeductMoney(uint256,uint256)": "8f861ba7",
					"getMatNumber(uint256)": "f2e60202",
					"getPercentage(uint256,uint256)": "f74f3655",
					"getPunish(uint256,uint256)": "9ce5c4bf",
					"getTaskTrans(uint256)": "6873e8d2",
					"getTaskTransEnd(uint256)": "a3cb7c55",
					"getTaskTransFirst(uint256)": "a730941d",
					"getTaskVf(uint256)": "5c830098",
					"owner()": "8da5cb5b",
					"punishRatio(uint256)": "4f6ca3ce",
					"renounceOwnership()": "715018a6",
					"setRate(uint256)": "34fcf437",
					"setvfN(uint256)": "31bfb377",
					"transferOwnership(address)": "f2fde38b"
				}
			},
			"storageLayout": {
				"storage": [
					{
						"astId": 300,
						"contract": "CalculateUtils.sol:CalculateUtils",
						"label": "_owner",
						"offset": 0,
						"slot": "0",
						"type": "t_address"
					},
					{
						"astId": 12,
						"contract": "CalculateUtils.sol:CalculateUtils",
						"label": "rate",
						"offset": 0,
						"slot": "1",
						"type": "t_uint256"
					},
					{
						"astId": 15,
						"contract": "CalculateUtils.sol:CalculateUtils",
						"label": "vf_n",
						"offset": 0,
						"slot": "2",
						"type": "t_uint256"
					}
				],
				"types": {
					"t_address": {
						"encoding": "inplace",
						"label": "address",
						"numberOfBytes": "20"
					},
					"t_uint256": {
						"encoding": "inplace",
						"label": "uint256",
						"numberOfBytes": "32"
					}
				}
			},
			"userdoc": {
				"kind": "user",
				"methods": {},
				"version": 1
			}
		}
	}
}