{
	"AmphiTrans.sol": {
		"AmphiTrans": {
			"abi": [
				{
					"anonymous": false,
					"inputs": [
						{
							"indexed": false,
							"internalType": "uint256",
							"name": "taskIndex",
							"type": "uint256"
						},
						{
							"indexed": false,
							"internalType": "uint256",
							"name": "fileInfo",
							"type": "uint256"
						},
						{
							"indexed": false,
							"internalType": "enum LibProject.FileState",
							"name": "fileSate",
							"type": "uint8"
						},
						{
							"indexed": false,
							"internalType": "address",
							"name": "opSender",
							"type": "address"
						}
					],
					"name": "changeFileStateEv",
					"type": "event"
				},
				{
					"anonymous": false,
					"inputs": [
						{
							"indexed": false,
							"internalType": "uint256",
							"name": "taskIndex",
							"type": "uint256"
						},
						{
							"indexed": false,
							"internalType": "enum LibProject.ProjectState",
							"name": "taskState",
							"type": "uint8"
						},
						{
							"indexed": false,
							"internalType": "address",
							"name": "opSender",
							"type": "address"
						}
					],
					"name": "changeProjectStateEv",
					"type": "event"
				},
				{
					"anonymous": false,
					"inputs": [
						{
							"indexed": false,
							"internalType": "uint256",
							"name": "taskIndex",
							"type": "uint256"
						},
						{
							"indexed": false,
							"internalType": "address",
							"name": "tasker",
							"type": "address"
						},
						{
							"indexed": false,
							"internalType": "uint256",
							"name": "fileIndex",
							"type": "uint256"
						},
						{
							"indexed": false,
							"internalType": "enum LibProject.TaskerState",
							"name": "taskerState",
							"type": "uint8"
						},
						{
							"indexed": false,
							"internalType": "bool",
							"name": "isTrans",
							"type": "bool"
						},
						{
							"indexed": false,
							"internalType": "address",
							"name": "opSender",
							"type": "address"
						}
					],
					"name": "changeTaskerStateEv",
					"type": "event"
				},
				{
					"anonymous": false,
					"inputs": [
						{
							"indexed": false,
							"internalType": "uint256",
							"name": "taskIndex",
							"type": "uint256"
						},
						{
							"indexed": false,
							"internalType": "bool",
							"name": "transActive",
							"type": "bool"
						},
						{
							"indexed": false,
							"internalType": "address",
							"name": "opSender",
							"type": "address"
						}
					],
					"name": "changeTransActiveEv",
					"type": "event"
				},
				{
					"anonymous": false,
					"inputs": [
						{
							"indexed": false,
							"internalType": "uint256",
							"name": "taskIndex",
							"type": "uint256"
						},
						{
							"indexed": false,
							"internalType": "bool",
							"name": "verActive",
							"type": "bool"
						},
						{
							"indexed": false,
							"internalType": "address",
							"name": "opSender",
							"type": "address"
						}
					],
					"name": "changeVerActiveEv",
					"type": "event"
				},
				{
					"anonymous": false,
					"inputs": [
						{
							"indexed": false,
							"internalType": "uint256",
							"name": "index",
							"type": "uint256"
						},
						{
							"indexed": false,
							"internalType": "uint256",
							"name": "fileIndex",
							"type": "uint256"
						},
						{
							"indexed": false,
							"internalType": "uint256",
							"name": "uploadtime",
							"type": "uint256"
						},
						{
							"indexed": false,
							"internalType": "string",
							"name": "file",
							"type": "string"
						},
						{
							"indexed": false,
							"internalType": "address",
							"name": "sender",
							"type": "address"
						},
						{
							"indexed": false,
							"internalType": "bool",
							"name": "isTrans",
							"type": "bool"
						}
					],
					"name": "submitFileEv",
					"type": "event"
				},
				{
					"inputs": [],
					"name": "addCount",
					"outputs": [],
					"stateMutability": "nonpayable",
					"type": "function"
				},
				{
					"inputs": [
						{
							"internalType": "address",
							"name": "_tasker",
							"type": "address"
						},
						{
							"internalType": "uint256",
							"name": "_money",
							"type": "uint256"
						}
					],
					"name": "addPay",
					"outputs": [],
					"stateMutability": "nonpayable",
					"type": "function"
				},
				{
					"inputs": [
						{
							"components": [
								{
									"internalType": "uint256",
									"name": "releaseTime",
									"type": "uint256"
								},
								{
									"internalType": "string",
									"name": "introduce",
									"type": "string"
								},
								{
									"internalType": "string",
									"name": "need",
									"type": "string"
								},
								{
									"internalType": "uint256",
									"name": "deadline",
									"type": "uint256"
								},
								{
									"internalType": "uint256",
									"name": "sourceLanguage",
									"type": "uint256"
								},
								{
									"internalType": "uint256",
									"name": "goalLanguage",
									"type": "uint256"
								},
								{
									"internalType": "uint256[]",
									"name": "preferList",
									"type": "uint256[]"
								},
								{
									"internalType": "uint256",
									"name": "translationType",
									"type": "uint256"
								},
								{
									"internalType": "uint256",
									"name": "workLoad",
									"type": "uint256"
								},
								{
									"internalType": "bool",
									"name": "isNonDisclosure",
									"type": "bool"
								},
								{
									"internalType": "bool",
									"name": "isCustomize",
									"type": "bool"
								},
								{
									"internalType": "uint256",
									"name": "bounty",
									"type": "uint256"
								},
								{
									"components": [
										{
											"components": [
												{
													"internalType": "string",
													"name": "name",
													"type": "string"
												},
												{
													"internalType": "uint256",
													"name": "size",
													"type": "uint256"
												},
												{
													"internalType": "uint256",
													"name": "videoLength",
													"type": "uint256"
												},
												{
													"internalType": "uint256",
													"name": "Page",
													"type": "uint256"
												},
												{
													"internalType": "uint256",
													"name": "words",
													"type": "uint256"
												},
												{
													"internalType": "uint256",
													"name": "fileType",
													"type": "uint256"
												},
												{
													"internalType": "string",
													"name": "path",
													"type": "string"
												}
											],
											"internalType": "struct LibProject.FileInfo",
											"name": "file",
											"type": "tuple"
										},
										{
											"internalType": "uint256",
											"name": "bounty",
											"type": "uint256"
										},
										{
											"internalType": "string",
											"name": "info",
											"type": "string"
										},
										{
											"internalType": "enum LibProject.FileState",
											"name": "state",
											"type": "uint8"
										},
										{
											"internalType": "uint256",
											"name": "lastUpload",
											"type": "uint256"
										}
									],
									"internalType": "struct LibProject.TaskInfo[]",
									"name": "tasks",
									"type": "tuple[]"
								}
							],
							"internalType": "struct LibProject.ProParm",
							"name": "_t",
							"type": "tuple"
						}
					],
					"name": "addProject",
					"outputs": [
						{
							"internalType": "uint256",
							"name": "",
							"type": "uint256"
						}
					],
					"stateMutability": "nonpayable",
					"type": "function"
				},
				{
					"inputs": [
						{
							"internalType": "uint256",
							"name": "_index",
							"type": "uint256"
						}
					],
					"name": "addTransNumber",
					"outputs": [],
					"stateMutability": "nonpayable",
					"type": "function"
				},
				{
					"inputs": [
						{
							"internalType": "uint256",
							"name": "_index",
							"type": "uint256"
						},
						{
							"internalType": "address",
							"name": "_address",
							"type": "address"
						}
					],
					"name": "addTranslators",
					"outputs": [],
					"stateMutability": "nonpayable",
					"type": "function"
				},
				{
					"inputs": [
						{
							"internalType": "uint256",
							"name": "_index",
							"type": "uint256"
						},
						{
							"internalType": "address",
							"name": "_address",
							"type": "address"
						}
					],
					"name": "addVf",
					"outputs": [],
					"stateMutability": "nonpayable",
					"type": "function"
				},
				{
					"inputs": [
						{
							"internalType": "uint256",
							"name": "_index",
							"type": "uint256"
						}
					],
					"name": "addVfNumber",
					"outputs": [],
					"stateMutability": "nonpayable",
					"type": "function"
				},
				{
					"inputs": [
						{
							"internalType": "uint256",
							"name": "_index",
							"type": "uint256"
						},
						{
							"internalType": "uint256",
							"name": "_fileIndex",
							"type": "uint256"
						},
						{
							"internalType": "enum LibProject.FileState",
							"name": "_state",
							"type": "uint8"
						}
					],
					"name": "changeFileState",
					"outputs": [],
					"stateMutability": "nonpayable",
					"type": "function"
				},
				{
					"inputs": [
						{
							"internalType": "uint256",
							"name": "_index",
							"type": "uint256"
						},
						{
							"internalType": "enum LibProject.ProjectState",
							"name": "_state",
							"type": "uint8"
						}
					],
					"name": "changeProjectState",
					"outputs": [],
					"stateMutability": "nonpayable",
					"type": "function"
				},
				{
					"inputs": [
						{
							"internalType": "uint256",
							"name": "_index",
							"type": "uint256"
						},
						{
							"internalType": "address",
							"name": "_taskerIndex",
							"type": "address"
						},
						{
							"internalType": "uint256",
							"name": "_fileIndex",
							"type": "uint256"
						},
						{
							"internalType": "enum LibProject.TaskerState",
							"name": "_state",
							"type": "uint8"
						}
					],
					"name": "changeTaskTransState",
					"outputs": [],
					"stateMutability": "nonpayable",
					"type": "function"
				},
				{
					"inputs": [
						{
							"internalType": "uint256",
							"name": "_index",
							"type": "uint256"
						},
						{
							"internalType": "address",
							"name": "_taskerIndex",
							"type": "address"
						},
						{
							"internalType": "uint256",
							"name": "_fileIndex",
							"type": "uint256"
						},
						{
							"internalType": "enum LibProject.TaskerState",
							"name": "_state",
							"type": "uint8"
						}
					],
					"name": "changeTaskVfState",
					"outputs": [],
					"stateMutability": "nonpayable",
					"type": "function"
				},
				{
					"inputs": [
						{
							"internalType": "uint256",
							"name": "_index",
							"type": "uint256"
						},
						{
							"internalType": "bool",
							"name": "_bool",
							"type": "bool"
						}
					],
					"name": "changeTransActive",
					"outputs": [],
					"stateMutability": "nonpayable",
					"type": "function"
				},
				{
					"inputs": [
						{
							"internalType": "uint256",
							"name": "_index",
							"type": "uint256"
						},
						{
							"internalType": "bool",
							"name": "_bool",
							"type": "bool"
						}
					],
					"name": "changeVerActive",
					"outputs": [],
					"stateMutability": "nonpayable",
					"type": "function"
				},
				{
					"inputs": [
						{
							"internalType": "address",
							"name": "_tasker",
							"type": "address"
						},
						{
							"internalType": "uint256",
							"name": "_money",
							"type": "uint256"
						}
					],
					"name": "deductPay",
					"outputs": [],
					"stateMutability": "nonpayable",
					"type": "function"
				},
				{
					"inputs": [
						{
							"internalType": "uint256",
							"name": "_index",
							"type": "uint256"
						},
						{
							"internalType": "address",
							"name": "_taskerIndex",
							"type": "address"
						}
					],
					"name": "getAcceptTransNumber",
					"outputs": [
						{
							"internalType": "uint256",
							"name": "",
							"type": "uint256"
						}
					],
					"stateMutability": "view",
					"type": "function"
				},
				{
					"inputs": [
						{
							"internalType": "uint256",
							"name": "_index",
							"type": "uint256"
						},
						{
							"internalType": "address",
							"name": "_taskerIndex",
							"type": "address"
						}
					],
					"name": "getAcceptVfNumber",
					"outputs": [
						{
							"internalType": "uint256",
							"name": "",
							"type": "uint256"
						}
					],
					"stateMutability": "view",
					"type": "function"
				},
				{
					"inputs": [
						{
							"internalType": "uint256",
							"name": "_index",
							"type": "uint256"
						}
					],
					"name": "getBuyer",
					"outputs": [
						{
							"internalType": "address",
							"name": "",
							"type": "address"
						}
					],
					"stateMutability": "view",
					"type": "function"
				},
				{
					"inputs": [],
					"name": "getCount",
					"outputs": [
						{
							"internalType": "uint256",
							"name": "",
							"type": "uint256"
						}
					],
					"stateMutability": "view",
					"type": "function"
				},
				{
					"inputs": [
						{
							"internalType": "uint256",
							"name": "_index",
							"type": "uint256"
						},
						{
							"internalType": "uint256",
							"name": "_fileIndex",
							"type": "uint256"
						}
					],
					"name": "getFileBounty",
					"outputs": [
						{
							"internalType": "uint256",
							"name": "",
							"type": "uint256"
						}
					],
					"stateMutability": "view",
					"type": "function"
				},
				{
					"inputs": [
						{
							"internalType": "uint256",
							"name": "_index",
							"type": "uint256"
						},
						{
							"internalType": "uint256",
							"name": "_fileIndex",
							"type": "uint256"
						}
					],
					"name": "getFileState",
					"outputs": [
						{
							"internalType": "enum LibProject.FileState",
							"name": "",
							"type": "uint8"
						}
					],
					"stateMutability": "view",
					"type": "function"
				},
				{
					"inputs": [
						{
							"internalType": "uint256",
							"name": "_index",
							"type": "uint256"
						}
					],
					"name": "getFiles",
					"outputs": [
						{
							"components": [
								{
									"components": [
										{
											"internalType": "string",
											"name": "name",
											"type": "string"
										},
										{
											"internalType": "uint256",
											"name": "size",
											"type": "uint256"
										},
										{
											"internalType": "uint256",
											"name": "videoLength",
											"type": "uint256"
										},
										{
											"internalType": "uint256",
											"name": "Page",
											"type": "uint256"
										},
										{
											"internalType": "uint256",
											"name": "words",
											"type": "uint256"
										},
										{
											"internalType": "uint256",
											"name": "fileType",
											"type": "uint256"
										},
										{
											"internalType": "string",
											"name": "path",
											"type": "string"
										}
									],
									"internalType": "struct LibProject.FileInfo",
									"name": "file",
									"type": "tuple"
								},
								{
									"internalType": "uint256",
									"name": "bounty",
									"type": "uint256"
								},
								{
									"internalType": "string",
									"name": "info",
									"type": "string"
								},
								{
									"internalType": "enum LibProject.FileState",
									"name": "state",
									"type": "uint8"
								},
								{
									"internalType": "uint256",
									"name": "lastUpload",
									"type": "uint256"
								}
							],
							"internalType": "struct LibProject.TaskInfo[]",
							"name": "",
							"type": "tuple[]"
						}
					],
					"stateMutability": "view",
					"type": "function"
				},
				{
					"inputs": [
						{
							"internalType": "address",
							"name": "_tasker",
							"type": "address"
						}
					],
					"name": "getPay",
					"outputs": [
						{
							"internalType": "uint256",
							"name": "",
							"type": "uint256"
						}
					],
					"stateMutability": "view",
					"type": "function"
				},
				{
					"inputs": [
						{
							"internalType": "uint256",
							"name": "_index",
							"type": "uint256"
						}
					],
					"name": "getProjectOne",
					"outputs": [
						{
							"components": [
								{
									"internalType": "address",
									"name": "buyer",
									"type": "address"
								},
								{
									"internalType": "uint256",
									"name": "releaseTime",
									"type": "uint256"
								},
								{
									"internalType": "string",
									"name": "introduce",
									"type": "string"
								},
								{
									"internalType": "string",
									"name": "need",
									"type": "string"
								},
								{
									"internalType": "uint256",
									"name": "deadline",
									"type": "uint256"
								},
								{
									"internalType": "uint256",
									"name": "sourceLanguage",
									"type": "uint256"
								},
								{
									"internalType": "uint256",
									"name": "goalLanguage",
									"type": "uint256"
								},
								{
									"internalType": "uint256[]",
									"name": "preferList",
									"type": "uint256[]"
								},
								{
									"internalType": "uint256",
									"name": "translationType",
									"type": "uint256"
								},
								{
									"internalType": "uint256",
									"name": "workLoad",
									"type": "uint256"
								},
								{
									"internalType": "bool",
									"name": "isNonDisclosure",
									"type": "bool"
								},
								{
									"internalType": "bool",
									"name": "isCustomize",
									"type": "bool"
								},
								{
									"internalType": "uint256",
									"name": "bounty",
									"type": "uint256"
								},
								{
									"components": [
										{
											"components": [
												{
													"internalType": "string",
													"name": "name",
													"type": "string"
												},
												{
													"internalType": "uint256",
													"name": "size",
													"type": "uint256"
												},
												{
													"internalType": "uint256",
													"name": "videoLength",
													"type": "uint256"
												},
												{
													"internalType": "uint256",
													"name": "Page",
													"type": "uint256"
												},
												{
													"internalType": "uint256",
													"name": "words",
													"type": "uint256"
												},
												{
													"internalType": "uint256",
													"name": "fileType",
													"type": "uint256"
												},
												{
													"internalType": "string",
													"name": "path",
													"type": "string"
												}
											],
											"internalType": "struct LibProject.FileInfo",
											"name": "file",
											"type": "tuple"
										},
										{
											"internalType": "uint256",
											"name": "bounty",
											"type": "uint256"
										},
										{
											"internalType": "string",
											"name": "info",
											"type": "string"
										},
										{
											"internalType": "enum LibProject.FileState",
											"name": "state",
											"type": "uint8"
										},
										{
											"internalType": "uint256",
											"name": "lastUpload",
											"type": "uint256"
										}
									],
									"internalType": "struct LibProject.TaskInfo[]",
									"name": "tasks",
									"type": "tuple[]"
								},
								{
									"internalType": "address[]",
									"name": "translators",
									"type": "address[]"
								},
								{
									"internalType": "address[]",
									"name": "verifiers",
									"type": "address[]"
								},
								{
									"internalType": "uint256",
									"name": "maxT",
									"type": "uint256"
								},
								{
									"internalType": "uint256",
									"name": "maxV",
									"type": "uint256"
								},
								{
									"internalType": "uint256",
									"name": "numberT",
									"type": "uint256"
								},
								{
									"internalType": "uint256",
									"name": "numberV",
									"type": "uint256"
								},
								{
									"internalType": "bool",
									"name": "isTransActive",
									"type": "bool"
								},
								{
									"internalType": "bool",
									"name": "isVerActive",
									"type": "bool"
								},
								{
									"internalType": "enum LibProject.ProjectState",
									"name": "state",
									"type": "uint8"
								}
							],
							"internalType": "struct LibProject.TranslationPro",
							"name": "",
							"type": "tuple"
						}
					],
					"stateMutability": "view",
					"type": "function"
				},
				{
					"inputs": [
						{
							"internalType": "uint256",
							"name": "_index",
							"type": "uint256"
						}
					],
					"name": "getTaskBounty",
					"outputs": [
						{
							"internalType": "uint256",
							"name": "",
							"type": "uint256"
						}
					],
					"stateMutability": "view",
					"type": "function"
				},
				{
					"inputs": [
						{
							"internalType": "uint256",
							"name": "_index",
							"type": "uint256"
						}
					],
					"name": "getTaskState",
					"outputs": [
						{
							"internalType": "enum LibProject.ProjectState",
							"name": "",
							"type": "uint8"
						}
					],
					"stateMutability": "view",
					"type": "function"
				},
				{
					"inputs": [
						{
							"internalType": "uint256",
							"name": "_index",
							"type": "uint256"
						}
					],
					"name": "getTaskStateTrans",
					"outputs": [
						{
							"internalType": "bool",
							"name": "",
							"type": "bool"
						}
					],
					"stateMutability": "view",
					"type": "function"
				},
				{
					"inputs": [
						{
							"internalType": "uint256",
							"name": "_index",
							"type": "uint256"
						}
					],
					"name": "getTaskStateVf",
					"outputs": [
						{
							"internalType": "bool",
							"name": "",
							"type": "bool"
						}
					],
					"stateMutability": "view",
					"type": "function"
				},
				{
					"inputs": [
						{
							"internalType": "uint256",
							"name": "_index",
							"type": "uint256"
						}
					],
					"name": "getTransNumber",
					"outputs": [
						{
							"internalType": "uint256",
							"name": "",
							"type": "uint256"
						}
					],
					"stateMutability": "view",
					"type": "function"
				},
				{
					"inputs": [
						{
							"internalType": "uint256",
							"name": "_index",
							"type": "uint256"
						},
						{
							"internalType": "address",
							"name": "_address",
							"type": "address"
						}
					],
					"name": "getTransTaskInfo",
					"outputs": [
						{
							"components": [
								{
									"internalType": "address",
									"name": "taskerAddress",
									"type": "address"
								},
								{
									"internalType": "uint256[]",
									"name": "taskIndex",
									"type": "uint256[]"
								},
								{
									"components": [
										{
											"internalType": "enum LibProject.TaskerState",
											"name": "state",
											"type": "uint8"
										},
										{
											"internalType": "string",
											"name": "file",
											"type": "string"
										}
									],
									"internalType": "struct LibProject.FileIndexInfo[]",
									"name": "taskerinfo",
									"type": "tuple[]"
								}
							],
							"internalType": "struct LibProject.ReturnTasker",
							"name": "",
							"type": "tuple"
						}
					],
					"stateMutability": "view",
					"type": "function"
				},
				{
					"inputs": [
						{
							"internalType": "uint256",
							"name": "_index",
							"type": "uint256"
						}
					],
					"name": "getTranslatorsList",
					"outputs": [
						{
							"internalType": "address[]",
							"name": "",
							"type": "address[]"
						}
					],
					"stateMutability": "view",
					"type": "function"
				},
				{
					"inputs": [
						{
							"internalType": "uint256",
							"name": "_index",
							"type": "uint256"
						}
					],
					"name": "getVfList",
					"outputs": [
						{
							"internalType": "address[]",
							"name": "",
							"type": "address[]"
						}
					],
					"stateMutability": "view",
					"type": "function"
				},
				{
					"inputs": [
						{
							"internalType": "uint256",
							"name": "_index",
							"type": "uint256"
						}
					],
					"name": "getVfNumber",
					"outputs": [
						{
							"internalType": "uint256",
							"name": "",
							"type": "uint256"
						}
					],
					"stateMutability": "view",
					"type": "function"
				},
				{
					"inputs": [
						{
							"internalType": "uint256",
							"name": "_index",
							"type": "uint256"
						},
						{
							"internalType": "address",
							"name": "_address",
							"type": "address"
						}
					],
					"name": "getVfTaskInfo",
					"outputs": [
						{
							"components": [
								{
									"internalType": "address",
									"name": "taskerAddress",
									"type": "address"
								},
								{
									"internalType": "uint256[]",
									"name": "taskIndex",
									"type": "uint256[]"
								},
								{
									"components": [
										{
											"internalType": "enum LibProject.TaskerState",
											"name": "state",
											"type": "uint8"
										},
										{
											"internalType": "string",
											"name": "file",
											"type": "string"
										}
									],
									"internalType": "struct LibProject.FileIndexInfo[]",
									"name": "taskerinfo",
									"type": "tuple[]"
								}
							],
							"internalType": "struct LibProject.ReturnTasker",
							"name": "",
							"type": "tuple"
						}
					],
					"stateMutability": "view",
					"type": "function"
				},
				{
					"inputs": [
						{
							"internalType": "uint256",
							"name": "_index",
							"type": "uint256"
						}
					],
					"name": "isCustomizeState",
					"outputs": [
						{
							"internalType": "bool",
							"name": "",
							"type": "bool"
						}
					],
					"stateMutability": "view",
					"type": "function"
				},
				{
					"inputs": [
						{
							"internalType": "uint256",
							"name": "_index",
							"type": "uint256"
						},
						{
							"internalType": "bool",
							"name": "_isTrans",
							"type": "bool"
						}
					],
					"name": "isFull",
					"outputs": [
						{
							"internalType": "bool",
							"name": "",
							"type": "bool"
						}
					],
					"stateMutability": "view",
					"type": "function"
				},
				{
					"inputs": [
						{
							"internalType": "uint256",
							"name": "_index",
							"type": "uint256"
						},
						{
							"internalType": "address",
							"name": "_taskerIndex",
							"type": "address"
						},
						{
							"internalType": "bool",
							"name": "_isTrans",
							"type": "bool"
						}
					],
					"name": "overTimeTasker",
					"outputs": [
						{
							"internalType": "uint256[]",
							"name": "",
							"type": "uint256[]"
						},
						{
							"internalType": "uint256",
							"name": "",
							"type": "uint256"
						}
					],
					"stateMutability": "view",
					"type": "function"
				},
				{
					"inputs": [
						{
							"internalType": "uint256",
							"name": "_index",
							"type": "uint256"
						},
						{
							"internalType": "address",
							"name": "_taskerIndex",
							"type": "address"
						},
						{
							"internalType": "uint256",
							"name": "_fileIndex",
							"type": "uint256"
						}
					],
					"name": "pushTaskTransIndex",
					"outputs": [],
					"stateMutability": "nonpayable",
					"type": "function"
				},
				{
					"inputs": [
						{
							"internalType": "uint256",
							"name": "_index",
							"type": "uint256"
						},
						{
							"internalType": "address",
							"name": "_taskerIndex",
							"type": "address"
						},
						{
							"internalType": "uint256",
							"name": "_fileIndex",
							"type": "uint256"
						}
					],
					"name": "pushTaskVfIndex",
					"outputs": [],
					"stateMutability": "nonpayable",
					"type": "function"
				},
				{
					"inputs": [
						{
							"internalType": "uint256",
							"name": "_index",
							"type": "uint256"
						},
						{
							"internalType": "address",
							"name": "_taskerIndex",
							"type": "address"
						},
						{
							"internalType": "uint256",
							"name": "_fileIndex",
							"type": "uint256"
						},
						{
							"internalType": "string",
							"name": "_file",
							"type": "string"
						}
					],
					"name": "submitFileByTrans",
					"outputs": [],
					"stateMutability": "nonpayable",
					"type": "function"
				},
				{
					"inputs": [
						{
							"internalType": "uint256",
							"name": "_index",
							"type": "uint256"
						},
						{
							"internalType": "address",
							"name": "_taskerIndex",
							"type": "address"
						},
						{
							"internalType": "uint256",
							"name": "_fileIndex",
							"type": "uint256"
						},
						{
							"internalType": "string",
							"name": "_file",
							"type": "string"
						}
					],
					"name": "submitFileByVf",
					"outputs": [],
					"stateMutability": "nonpayable",
					"type": "function"
				},
				{
					"inputs": [
						{
							"internalType": "uint256",
							"name": "_index",
							"type": "uint256"
						},
						{
							"components": [
								{
									"internalType": "uint256",
									"name": "releaseTime",
									"type": "uint256"
								},
								{
									"internalType": "string",
									"name": "introduce",
									"type": "string"
								},
								{
									"internalType": "string",
									"name": "need",
									"type": "string"
								},
								{
									"internalType": "uint256",
									"name": "deadline",
									"type": "uint256"
								},
								{
									"internalType": "uint256",
									"name": "sourceLanguage",
									"type": "uint256"
								},
								{
									"internalType": "uint256",
									"name": "goalLanguage",
									"type": "uint256"
								},
								{
									"internalType": "uint256[]",
									"name": "preferList",
									"type": "uint256[]"
								},
								{
									"internalType": "uint256",
									"name": "translationType",
									"type": "uint256"
								},
								{
									"internalType": "uint256",
									"name": "workLoad",
									"type": "uint256"
								},
								{
									"internalType": "bool",
									"name": "isNonDisclosure",
									"type": "bool"
								},
								{
									"internalType": "bool",
									"name": "isCustomize",
									"type": "bool"
								},
								{
									"internalType": "uint256",
									"name": "bounty",
									"type": "uint256"
								},
								{
									"components": [
										{
											"components": [
												{
													"internalType": "string",
													"name": "name",
													"type": "string"
												},
												{
													"internalType": "uint256",
													"name": "size",
													"type": "uint256"
												},
												{
													"internalType": "uint256",
													"name": "videoLength",
													"type": "uint256"
												},
												{
													"internalType": "uint256",
													"name": "Page",
													"type": "uint256"
												},
												{
													"internalType": "uint256",
													"name": "words",
													"type": "uint256"
												},
												{
													"internalType": "uint256",
													"name": "fileType",
													"type": "uint256"
												},
												{
													"internalType": "string",
													"name": "path",
													"type": "string"
												}
											],
											"internalType": "struct LibProject.FileInfo",
											"name": "file",
											"type": "tuple"
										},
										{
											"internalType": "uint256",
											"name": "bounty",
											"type": "uint256"
										},
										{
											"internalType": "string",
											"name": "info",
											"type": "string"
										},
										{
											"internalType": "enum LibProject.FileState",
											"name": "state",
											"type": "uint8"
										},
										{
											"internalType": "uint256",
											"name": "lastUpload",
											"type": "uint256"
										}
									],
									"internalType": "struct LibProject.TaskInfo[]",
									"name": "tasks",
									"type": "tuple[]"
								}
							],
							"internalType": "struct LibProject.ProParm",
							"name": "_t",
							"type": "tuple"
						}
					],
					"name": "updateProject",
					"outputs": [],
					"stateMutability": "nonpayable",
					"type": "function"
				}
			],
			"devdoc": {
				"kind": "dev",
				"methods": {},
				"version": 1
			},
			"evm": {
				"assembly": "    /* \"AmphiTrans.sol\":116:14584  contract AmphiTrans {... */\n  mstore(0x40, 0x80)\n  callvalue\n  dup1\n  iszero\n  tag_1\n  jumpi\n  0x00\n  dup1\n  revert\ntag_1:\n  pop\n  dataSize(sub_0)\n  dup1\n  dataOffset(sub_0)\n  0x00\n  codecopy\n  0x00\n  return\nstop\n\nsub_0: assembly {\n        /* \"AmphiTrans.sol\":116:14584  contract AmphiTrans {... */\n      mstore(0x40, 0x80)\n      callvalue\n      dup1\n      iszero\n      tag_1\n      jumpi\n      0x00\n      dup1\n      revert\n    tag_1:\n      pop\n      jumpi(tag_2, lt(calldatasize, 0x04))\n      shr(0xe0, calldataload(0x00))\n      dup1\n      0x6e973982\n      gt\n      tag_44\n      jumpi\n      dup1\n      0xa1e047f3\n      gt\n      tag_45\n      jumpi\n      dup1\n      0xca74a589\n      gt\n      tag_46\n      jumpi\n      dup1\n      0xe1ca7ca7\n      gt\n      tag_47\n      jumpi\n      dup1\n      0xe1ca7ca7\n      eq\n      tag_41\n      jumpi\n      dup1\n      0xf8626ebb\n      eq\n      tag_42\n      jumpi\n      dup1\n      0xffcce776\n      eq\n      tag_43\n      jumpi\n      0x00\n      dup1\n      revert\n    tag_47:\n      dup1\n      0xca74a589\n      eq\n      tag_38\n      jumpi\n      dup1\n      0xd2fed69c\n      eq\n      tag_39\n      jumpi\n      dup1\n      0xd3d7bc3b\n      eq\n      tag_40\n      jumpi\n      0x00\n      dup1\n      revert\n    tag_46:\n      dup1\n      0xad607c72\n      gt\n      tag_48\n      jumpi\n      dup1\n      0xad607c72\n      eq\n      tag_35\n      jumpi\n      dup1\n      0xb647eec3\n      eq\n      tag_36\n      jumpi\n      dup1\n      0xc061bb82\n      eq\n      tag_37\n      jumpi\n      0x00\n      dup1\n      revert\n    tag_48:\n      dup1\n      0xa1e047f3\n      eq\n      tag_33\n      jumpi\n      dup1\n      0xa87d942c\n      eq\n      tag_34\n      jumpi\n      0x00\n      dup1\n      revert\n    tag_45:\n      dup1\n      0x8a9a9ff3\n      gt\n      tag_49\n      jumpi\n      dup1\n      0x9722f099\n      gt\n      tag_50\n      jumpi\n      dup1\n      0x9722f099\n      eq\n      tag_30\n      jumpi\n      dup1\n      0x983a12a8\n      eq\n      tag_31\n      jumpi\n      dup1\n      0x992d60f3\n      eq\n      tag_32\n      jumpi\n      0x00\n      dup1\n      revert\n    tag_50:\n      dup1\n      0x8a9a9ff3\n      eq\n      tag_28\n      jumpi\n      dup1\n      0x8b3f3a6f\n      eq\n      tag_29\n      jumpi\n      0x00\n      dup1\n      revert\n    tag_49:\n      dup1\n      0x790485f9\n      gt\n      tag_51\n      jumpi\n      dup1\n      0x790485f9\n      eq\n      tag_25\n      jumpi\n      dup1\n      0x7c34eb85\n      eq\n      tag_26\n      jumpi\n      dup1\n      0x7c35beb7\n      eq\n      tag_27\n      jumpi\n      0x00\n      dup1\n      revert\n    tag_51:\n      dup1\n      0x6e973982\n      eq\n      tag_23\n      jumpi\n      dup1\n      0x752458c5\n      eq\n      tag_24\n      jumpi\n      0x00\n      dup1\n      revert\n    tag_44:\n      dup1\n      0x31d396ce\n      gt\n      tag_52\n      jumpi\n      dup1\n      0x5bf608b8\n      gt\n      tag_53\n      jumpi\n      dup1\n      0x63e3ccad\n      gt\n      tag_54\n      jumpi\n      dup1\n      0x63e3ccad\n      eq\n      tag_20\n      jumpi\n      dup1\n      0x6c431904\n      eq\n      tag_21\n      jumpi\n      dup1\n      0x6cefce6e\n      eq\n      tag_22\n      jumpi\n      0x00\n      dup1\n      revert\n    tag_54:\n      dup1\n      0x5bf608b8\n      eq\n      tag_18\n      jumpi\n      dup1\n      0x5fed5eb2\n      eq\n      tag_19\n      jumpi\n      0x00\n      dup1\n      revert\n    tag_53:\n      dup1\n      0x429edaa2\n      gt\n      tag_55\n      jumpi\n      dup1\n      0x429edaa2\n      eq\n      tag_15\n      jumpi\n      dup1\n      0x546677aa\n      eq\n      tag_16\n      jumpi\n      dup1\n      0x57840da6\n      eq\n      tag_17\n      jumpi\n      0x00\n      dup1\n      revert\n    tag_55:\n      dup1\n      0x31d396ce\n      eq\n      tag_13\n      jumpi\n      dup1\n      0x33e68dcd\n      eq\n      tag_14\n      jumpi\n      0x00\n      dup1\n      revert\n    tag_52:\n      dup1\n      0x19f17088\n      gt\n      tag_56\n      jumpi\n      dup1\n      0x1fa2bf4c\n      gt\n      tag_57\n      jumpi\n      dup1\n      0x1fa2bf4c\n      eq\n      tag_10\n      jumpi\n      dup1\n      0x25e78e70\n      eq\n      tag_11\n      jumpi\n      dup1\n      0x271ff03f\n      eq\n      tag_12\n      jumpi\n      0x00\n      dup1\n      revert\n    tag_57:\n      dup1\n      0x19f17088\n      eq\n      tag_8\n      jumpi\n      dup1\n      0x1af5fa16\n      eq\n      tag_9\n      jumpi\n      0x00\n      dup1\n      revert\n    tag_56:\n      dup1\n      0x172372c2\n      gt\n      tag_58\n      jumpi\n      dup1\n      0x172372c2\n      eq\n      tag_5\n      jumpi\n      dup1\n      0x17e925d7\n      eq\n      tag_6\n      jumpi\n      dup1\n      0x193620e7\n      eq\n      tag_7\n      jumpi\n      0x00\n      dup1\n      revert\n    tag_58:\n      dup1\n      0x05c3f9c9\n      eq\n      tag_3\n      jumpi\n      dup1\n      0x12506f4d\n      eq\n      tag_4\n      jumpi\n    tag_2:\n      0x00\n      dup1\n      revert\n        /* \"AmphiTrans.sol\":14061:14581  function submitFileByVf(... */\n    tag_3:\n      tag_59\n      tag_60\n      calldatasize\n      0x04\n      tag_61\n      jump\t// in\n    tag_60:\n      tag_62\n      jump\t// in\n    tag_59:\n      stop\n        /* \"AmphiTrans.sol\":2537:2702  function getFiles(uint256 _index)... */\n    tag_4:\n      tag_63\n      tag_64\n      calldatasize\n      0x04\n      tag_65\n      jump\t// in\n    tag_64:\n      tag_66\n      jump\t// in\n    tag_63:\n      mload(0x40)\n      tag_67\n      swap2\n      swap1\n      tag_68\n      jump\t// in\n    tag_67:\n      mload(0x40)\n      dup1\n      swap2\n      sub\n      swap1\n      return\n        /* \"AmphiTrans.sol\":1855:1958  function addPay(address _tasker, uint256 _money) external {... */\n    tag_5:\n      tag_59\n      tag_70\n      calldatasize\n      0x04\n      tag_71\n      jump\t// in\n    tag_70:\n      tag_72\n      jump\t// in\n        /* \"AmphiTrans.sol\":9470:9683  function changeProjectState(uint256 _index, LibProject.ProjectState _state)... */\n    tag_6:\n      tag_59\n      tag_74\n      calldatasize\n      0x04\n      tag_75\n      jump\t// in\n    tag_74:\n      tag_76\n      jump\t// in\n        /* \"AmphiTrans.sol\":3059:3263  function getAcceptTransNumber(uint256 _index, address _taskerIndex)... */\n    tag_7:\n      tag_77\n      tag_78\n      calldatasize\n      0x04\n      tag_79\n      jump\t// in\n    tag_78:\n      tag_80\n      jump\t// in\n    tag_77:\n      mload(0x40)\n        /* \"#utility.yul\":6995:7020   */\n      swap1\n      dup2\n      mstore\n        /* \"#utility.yul\":6983:6985   */\n      0x20\n        /* \"#utility.yul\":6968:6986   */\n      add\n        /* \"AmphiTrans.sol\":3059:3263  function getAcceptTransNumber(uint256 _index, address _taskerIndex)... */\n      tag_67\n        /* \"#utility.yul\":6849:7026   */\n      jump\n        /* \"AmphiTrans.sol\":8691:9128  function changeTaskTransState(... */\n    tag_8:\n      tag_59\n      tag_84\n      calldatasize\n      0x04\n      tag_85\n      jump\t// in\n    tag_84:\n      tag_86\n      jump\t// in\n        /* \"AmphiTrans.sol\":12474:13619  function updateProject(uint256 _index, LibProject.ProParm memory _t)... */\n    tag_9:\n      tag_59\n      tag_88\n      calldatasize\n      0x04\n      tag_89\n      jump\t// in\n    tag_88:\n      tag_90\n      jump\t// in\n        /* \"AmphiTrans.sol\":9162:9436  function changeFileState(... */\n    tag_10:\n      tag_59\n      tag_92\n      calldatasize\n      0x04\n      tag_93\n      jump\t// in\n    tag_92:\n      tag_94\n      jump\t// in\n        /* \"AmphiTrans.sol\":6782:6952  function getProjectOne(uint256 _index)... */\n    tag_11:\n      tag_95\n      tag_96\n      calldatasize\n      0x04\n      tag_65\n      jump\t// in\n    tag_96:\n      tag_97\n      jump\t// in\n    tag_95:\n      mload(0x40)\n      tag_67\n      swap2\n      swap1\n      tag_99\n      jump\t// in\n        /* \"AmphiTrans.sol\":10444:10650  function pushTaskTransIndex(... */\n    tag_12:\n      tag_59\n      tag_101\n      calldatasize\n      0x04\n      tag_102\n      jump\t// in\n    tag_101:\n        /* \"AmphiTrans.sol\":10584:10601  transInfo[_index] */\n      0x00\n      swap3\n      dup4\n      mstore\n        /* \"AmphiTrans.sol\":10584:10593  transInfo */\n      0x02\n        /* \"AmphiTrans.sol\":10584:10601  transInfo[_index] */\n      0x20\n      swap1\n      dup2\n      mstore\n      0x40\n      dup1\n      dup6\n      keccak256\n      sub(shl(0xa0, 0x01), 0x01)\n        /* \"AmphiTrans.sol\":10584:10615  transInfo[_index][_taskerIndex] */\n      swap1\n      swap5\n      and\n      dup6\n      mstore\n      swap3\n      dup2\n      mstore\n      swap2\n      dup4\n      keccak256\n        /* \"AmphiTrans.sol\":10584:10642  transInfo[_index][_taskerIndex].taskIndex.push(_fileIndex) */\n      dup1\n      sload\n      0x01\n      dup2\n      add\n      dup3\n      sstore\n      swap1\n      dup5\n      mstore\n      swap2\n      swap1\n      swap3\n      keccak256\n      add\n      sstore\n        /* \"AmphiTrans.sol\":10444:10650  function pushTaskTransIndex(... */\n      jump\n        /* \"AmphiTrans.sol\":10895:11024  function addTranslators(uint256 _index, address _address) external {... */\n    tag_13:\n      tag_59\n      tag_105\n      calldatasize\n      0x04\n      tag_79\n      jump\t// in\n    tag_105:\n        /* \"AmphiTrans.sol\":10973:10981  taskList */\n      0x00\n        /* \"AmphiTrans.sol\":10973:10989  taskList[_index] */\n      swap2\n      dup3\n      mstore\n      0x20\n      dup3\n      dup2\n      mstore\n      0x40\n      dup4\n      keccak256\n        /* \"AmphiTrans.sol\":10973:11001  taskList[_index].translators */\n      0x0d\n      add\n        /* \"AmphiTrans.sol\":10973:11016  taskList[_index].translators.push(_address) */\n      dup1\n      sload\n      0x01\n      dup2\n      add\n      dup3\n      sstore\n      swap1\n      dup5\n      mstore\n      swap3\n      keccak256\n      swap1\n      swap2\n      add\n      dup1\n      sload\n      0xffffffffffffffffffffffff0000000000000000000000000000000000000000\n      and\n      sub(shl(0xa0, 0x01), 0x01)\n      swap1\n      swap3\n      and\n      swap2\n      swap1\n      swap2\n      or\n      swap1\n      sstore\n        /* \"AmphiTrans.sol\":10895:11024  function addTranslators(uint256 _index, address _address) external {... */\n      jump\n        /* \"AmphiTrans.sol\":13627:14053  function submitFileByTrans(... */\n    tag_14:\n      tag_59\n      tag_108\n      calldatasize\n      0x04\n      tag_61\n      jump\t// in\n    tag_108:\n      tag_109\n      jump\t// in\n        /* \"AmphiTrans.sol\":10166:10260  function addTransNumber(uint256 _index) external {... */\n    tag_15:\n      tag_59\n      tag_111\n      calldatasize\n      0x04\n      tag_65\n      jump\t// in\n    tag_111:\n      tag_112\n      jump\t// in\n        /* \"AmphiTrans.sol\":5486:5607  function getTaskStateVf(uint256 _index) public view returns (bool) {... */\n    tag_16:\n      tag_113\n      tag_114\n      calldatasize\n      0x04\n      tag_65\n      jump\t// in\n    tag_114:\n        /* \"AmphiTrans.sol\":5547:5551  bool */\n      0x00\n        /* \"AmphiTrans.sol\":5571:5587  taskList[_index] */\n      swap1\n      dup2\n      mstore\n      0x20\n      dup2\n      swap1\n      mstore\n      0x40\n      swap1\n      keccak256\n        /* \"AmphiTrans.sol\":5571:5599  taskList[_index].isVerActive */\n      0x13\n      add\n      sload\n      0x0100\n      swap1\n      div\n      0xff\n      and\n      swap1\n        /* \"AmphiTrans.sol\":5486:5607  function getTaskStateVf(uint256 _index) public view returns (bool) {... */\n      jump\n    tag_113:\n      mload(0x40)\n        /* \"#utility.yul\":20725:20739   */\n      swap1\n      iszero\n        /* \"#utility.yul\":20718:20740   */\n      iszero\n        /* \"#utility.yul\":20700:20741   */\n      dup2\n      mstore\n        /* \"#utility.yul\":20688:20690   */\n      0x20\n        /* \"#utility.yul\":20673:20691   */\n      add\n        /* \"AmphiTrans.sol\":5486:5607  function getTaskStateVf(uint256 _index) public view returns (bool) {... */\n      tag_67\n        /* \"#utility.yul\":20560:20747   */\n      jump\n        /* \"AmphiTrans.sol\":1966:2072  function deductPay(address _tasker, uint256 _money) external {... */\n    tag_17:\n      tag_59\n      tag_119\n      calldatasize\n      0x04\n      tag_71\n      jump\t// in\n    tag_119:\n      tag_120\n      jump\t// in\n        /* \"AmphiTrans.sol\":4987:5099  function getBuyer(uint256 _index) public view returns (address) {... */\n    tag_18:\n      tag_121\n      tag_122\n      calldatasize\n      0x04\n      tag_65\n      jump\t// in\n    tag_122:\n        /* \"AmphiTrans.sol\":5042:5049  address */\n      0x00\n        /* \"AmphiTrans.sol\":5069:5085  taskList[_index] */\n      swap1\n      dup2\n      mstore\n      0x20\n      dup2\n      swap1\n      mstore\n      0x40\n      swap1\n      keccak256\n        /* \"AmphiTrans.sol\":5069:5091  taskList[_index].buyer */\n      sload\n      sub(shl(0xa0, 0x01), 0x01)\n      and\n      swap1\n        /* \"AmphiTrans.sol\":4987:5099  function getBuyer(uint256 _index) public view returns (address) {... */\n      jump\n    tag_121:\n      mload(0x40)\n      sub(shl(0xa0, 0x01), 0x01)\n        /* \"#utility.yul\":20916:20971   */\n      swap1\n      swap2\n      and\n        /* \"#utility.yul\":20898:20972   */\n      dup2\n      mstore\n        /* \"#utility.yul\":20886:20888   */\n      0x20\n        /* \"#utility.yul\":20871:20889   */\n      add\n        /* \"AmphiTrans.sol\":4987:5099  function getBuyer(uint256 _index) public view returns (address) {... */\n      tag_67\n        /* \"#utility.yul\":20752:20978   */\n      jump\n        /* \"AmphiTrans.sol\":5790:6774  function getTransTaskInfo(uint256 _index, address _address)... */\n    tag_19:\n      tag_126\n      tag_127\n      calldatasize\n      0x04\n      tag_79\n      jump\t// in\n    tag_127:\n      tag_128\n      jump\t// in\n    tag_126:\n      mload(0x40)\n      tag_67\n      swap2\n      swap1\n      tag_130\n      jump\t// in\n        /* \"AmphiTrans.sol\":9726:9909  function changeTransActive(uint256 _index, bool _bool) external {... */\n    tag_20:\n      tag_59\n      tag_132\n      calldatasize\n      0x04\n      tag_133\n      jump\t// in\n    tag_132:\n      tag_134\n      jump\t// in\n        /* \"AmphiTrans.sol\":8251:8683  function changeTaskVfState(... */\n    tag_21:\n      tag_59\n      tag_136\n      calldatasize\n      0x04\n      tag_85\n      jump\t// in\n    tag_136:\n      tag_137\n      jump\t// in\n        /* \"AmphiTrans.sol\":1686:1741  function addCount() external {... */\n    tag_22:\n      tag_59\n      tag_139\n      jump\t// in\n        /* \"AmphiTrans.sol\":8125:8243  function getTaskBounty(uint256 _index) public view returns (uint256) {... */\n    tag_23:\n      tag_77\n      tag_141\n      calldatasize\n      0x04\n      tag_65\n      jump\t// in\n    tag_141:\n        /* \"AmphiTrans.sol\":8185:8192  uint256 */\n      0x00\n        /* \"AmphiTrans.sol\":8212:8228  taskList[_index] */\n      swap1\n      dup2\n      mstore\n      0x20\n      dup2\n      swap1\n      mstore\n      0x40\n      swap1\n      keccak256\n        /* \"AmphiTrans.sol\":8212:8235  taskList[_index].bounty */\n      0x0b\n      add\n      sload\n      swap1\n        /* \"AmphiTrans.sol\":8125:8243  function getTaskBounty(uint256 _index) public view returns (uint256) {... */\n      jump\n        /* \"AmphiTrans.sol\":11158:12466  function addProject(LibProject.ProParm memory _t)... */\n    tag_24:\n      tag_77\n      tag_145\n      calldatasize\n      0x04\n      tag_146\n      jump\t// in\n    tag_145:\n      tag_147\n      jump\t// in\n        /* \"AmphiTrans.sol\":3271:3469  function getAcceptVfNumber(uint256 _index, address _taskerIndex)... */\n    tag_25:\n      tag_77\n      tag_150\n      calldatasize\n      0x04\n      tag_79\n      jump\t// in\n    tag_150:\n        /* \"AmphiTrans.sol\":3384:3391  uint256 */\n      0x00\n        /* \"AmphiTrans.sol\":3416:3430  vfInfo[_index] */\n      swap2\n      dup3\n      mstore\n        /* \"AmphiTrans.sol\":3416:3422  vfInfo */\n      0x03\n        /* \"AmphiTrans.sol\":3416:3430  vfInfo[_index] */\n      0x20\n      swap1\n      dup2\n      mstore\n      0x40\n      dup1\n      dup5\n      keccak256\n      sub(shl(0xa0, 0x01), 0x01)\n        /* \"AmphiTrans.sol\":3416:3444  vfInfo[_index][_taskerIndex] */\n      swap4\n      swap1\n      swap4\n      and\n      dup5\n      mstore\n      swap2\n      swap1\n      mstore\n      swap1\n      keccak256\n        /* \"AmphiTrans.sol\":3416:3461  vfInfo[_index][_taskerIndex].taskIndex.length */\n      sload\n      swap1\n        /* \"AmphiTrans.sol\":3271:3469  function getAcceptVfNumber(uint256 _index, address _taskerIndex)... */\n      jump\n        /* \"AmphiTrans.sol\":3878:4001  function isCustomizeState(uint256 _index) public view returns (bool) {... */\n    tag_26:\n      tag_113\n      tag_154\n      calldatasize\n      0x04\n      tag_65\n      jump\t// in\n    tag_154:\n        /* \"AmphiTrans.sol\":3941:3945  bool */\n      0x00\n        /* \"AmphiTrans.sol\":3965:3981  taskList[_index] */\n      swap1\n      dup2\n      mstore\n      0x20\n      dup2\n      swap1\n      mstore\n      0x40\n      swap1\n      keccak256\n        /* \"AmphiTrans.sol\":3965:3993  taskList[_index].isCustomize */\n      0x0a\n      add\n      sload\n      0x0100\n      swap1\n      div\n      0xff\n      and\n      swap1\n        /* \"AmphiTrans.sol\":3878:4001  function isCustomizeState(uint256 _index) public view returns (bool) {... */\n      jump\n        /* \"AmphiTrans.sol\":7001:7921  function getVfTaskInfo(uint256 _index, address _address)... */\n    tag_27:\n      tag_126\n      tag_158\n      calldatasize\n      0x04\n      tag_79\n      jump\t// in\n    tag_158:\n      tag_159\n      jump\t// in\n        /* \"AmphiTrans.sol\":2251:2529  function isFull(uint256 _index, bool _isTrans) public view returns (bool) {... */\n    tag_28:\n      tag_113\n      tag_162\n      calldatasize\n      0x04\n      tag_133\n      jump\t// in\n    tag_162:\n      tag_163\n      jump\t// in\n        /* \"AmphiTrans.sol\":4056:4979  function overTimeTasker(... */\n    tag_29:\n      tag_165\n      tag_166\n      calldatasize\n      0x04\n      tag_167\n      jump\t// in\n    tag_166:\n      tag_168\n      jump\t// in\n    tag_165:\n      mload(0x40)\n      tag_67\n      swap3\n      swap2\n      swap1\n      tag_170\n      jump\t// in\n        /* \"AmphiTrans.sol\":5615:5741  function getTaskStateTrans(uint256 _index) public view returns (bool) {... */\n    tag_30:\n      tag_113\n      tag_172\n      calldatasize\n      0x04\n      tag_65\n      jump\t// in\n    tag_172:\n        /* \"AmphiTrans.sol\":5679:5683  bool */\n      0x00\n        /* \"AmphiTrans.sol\":5703:5719  taskList[_index] */\n      swap1\n      dup2\n      mstore\n      0x20\n      dup2\n      swap1\n      mstore\n      0x40\n      swap1\n      keccak256\n        /* \"AmphiTrans.sol\":5703:5733  taskList[_index].isTransActive */\n      0x13\n      add\n      sload\n      0xff\n      and\n      swap1\n        /* \"AmphiTrans.sol\":5615:5741  function getTaskStateTrans(uint256 _index) public view returns (bool) {... */\n      jump\n        /* \"AmphiTrans.sol\":3506:3675  function getTranslatorsList(uint256 _index)... */\n    tag_31:\n      tag_175\n      tag_176\n      calldatasize\n      0x04\n      tag_65\n      jump\t// in\n    tag_176:\n      tag_177\n      jump\t// in\n    tag_175:\n      mload(0x40)\n      tag_67\n      swap2\n      swap1\n      tag_179\n      jump\t// in\n        /* \"AmphiTrans.sol\":11032:11150  function addVf(uint256 _index, address _address) external {... */\n    tag_32:\n      tag_59\n      tag_181\n      calldatasize\n      0x04\n      tag_79\n      jump\t// in\n    tag_181:\n        /* \"AmphiTrans.sol\":11101:11109  taskList */\n      0x00\n        /* \"AmphiTrans.sol\":11101:11117  taskList[_index] */\n      swap2\n      dup3\n      mstore\n      0x20\n      dup3\n      dup2\n      mstore\n      0x40\n      dup4\n      keccak256\n        /* \"AmphiTrans.sol\":11101:11127  taskList[_index].verifiers */\n      0x0e\n      add\n        /* \"AmphiTrans.sol\":11101:11142  taskList[_index].verifiers.push(_address) */\n      dup1\n      sload\n      0x01\n      dup2\n      add\n      dup3\n      sstore\n      swap1\n      dup5\n      mstore\n      swap3\n      keccak256\n      swap1\n      swap2\n      add\n      dup1\n      sload\n      0xffffffffffffffffffffffff0000000000000000000000000000000000000000\n      and\n      sub(shl(0xa0, 0x01), 0x01)\n      swap1\n      swap3\n      and\n      swap2\n      swap1\n      swap2\n      or\n      swap1\n      sstore\n        /* \"AmphiTrans.sol\":11032:11150  function addVf(uint256 _index, address _address) external {... */\n      jump\n        /* \"AmphiTrans.sol\":10658:10858  function pushTaskVfIndex(... */\n    tag_33:\n      tag_59\n      tag_184\n      calldatasize\n      0x04\n      tag_102\n      jump\t// in\n    tag_184:\n        /* \"AmphiTrans.sol\":10795:10809  vfInfo[_index] */\n      0x00\n      swap3\n      dup4\n      mstore\n        /* \"AmphiTrans.sol\":10795:10801  vfInfo */\n      0x03\n        /* \"AmphiTrans.sol\":10795:10809  vfInfo[_index] */\n      0x20\n      swap1\n      dup2\n      mstore\n      0x40\n      dup1\n      dup6\n      keccak256\n      sub(shl(0xa0, 0x01), 0x01)\n        /* \"AmphiTrans.sol\":10795:10823  vfInfo[_index][_taskerIndex] */\n      swap1\n      swap5\n      and\n      dup6\n      mstore\n      swap3\n      dup2\n      mstore\n      swap2\n      dup4\n      keccak256\n        /* \"AmphiTrans.sol\":10795:10850  vfInfo[_index][_taskerIndex].taskIndex.push(_fileIndex) */\n      dup1\n      sload\n      0x01\n      dup2\n      add\n      dup3\n      sstore\n      swap1\n      dup5\n      mstore\n      swap2\n      swap1\n      swap3\n      keccak256\n      add\n      sstore\n        /* \"AmphiTrans.sol\":10658:10858  function pushTaskVfIndex(... */\n      jump\n        /* \"AmphiTrans.sol\":1749:1832  function getCount() external view returns (uint256) {... */\n    tag_34:\n        /* \"AmphiTrans.sol\":1819:1824  count */\n      sload(0x04)\n        /* \"AmphiTrans.sol\":1749:1832  function getCount() external view returns (uint256) {... */\n      jump(tag_77)\n        /* \"AmphiTrans.sol\":5279:5478  function getFileState(uint256 _index, uint256 _fileIndex)... */\n    tag_35:\n      tag_189\n      tag_190\n      calldatasize\n      0x04\n      tag_191\n      jump\t// in\n    tag_190:\n      tag_192\n      jump\t// in\n    tag_189:\n      mload(0x40)\n      tag_67\n      swap2\n      swap1\n      tag_194\n      jump\t// in\n        /* \"AmphiTrans.sol\":3712:3838  function getVfList(uint256 _index) public view returns (address[] memory) {... */\n    tag_36:\n      tag_175\n      tag_196\n      calldatasize\n      0x04\n      tag_65\n      jump\t// in\n    tag_196:\n      tag_197\n      jump\t// in\n        /* \"AmphiTrans.sol\":9952:10129  function changeVerActive(uint256 _index, bool _bool) external {... */\n    tag_37:\n      tag_59\n      tag_200\n      calldatasize\n      0x04\n      tag_133\n      jump\t// in\n    tag_200:\n      tag_201\n      jump\t// in\n        /* \"AmphiTrans.sol\":10297:10388  function addVfNumber(uint256 _index) external {... */\n    tag_38:\n      tag_59\n      tag_203\n      calldatasize\n      0x04\n      tag_65\n      jump\t// in\n    tag_203:\n      tag_204\n      jump\t// in\n        /* \"AmphiTrans.sol\":2742:2873  function getTransNumber(uint256 _index) public view returns (uint256) {... */\n    tag_39:\n      tag_77\n      tag_206\n      calldatasize\n      0x04\n      tag_65\n      jump\t// in\n    tag_206:\n        /* \"AmphiTrans.sol\":2803:2810  uint256 */\n      0x00\n        /* \"AmphiTrans.sol\":2830:2846  taskList[_index] */\n      swap1\n      dup2\n      mstore\n      0x20\n      dup2\n      swap1\n      mstore\n      0x40\n      swap1\n      keccak256\n        /* \"AmphiTrans.sol\":2830:2858  taskList[_index].translators */\n      0x0d\n      add\n        /* \"AmphiTrans.sol\":2830:2865  taskList[_index].translators.length */\n      sload\n      swap1\n        /* \"AmphiTrans.sol\":2742:2873  function getTransNumber(uint256 _index) public view returns (uint256) {... */\n      jump\n        /* \"AmphiTrans.sol\":2080:2187  function getPay(address _tasker) external view returns (uint256) {... */\n    tag_40:\n      tag_77\n      tag_210\n      calldatasize\n      0x04\n      tag_211\n      jump\t// in\n    tag_210:\n      sub(shl(0xa0, 0x01), 0x01)\n        /* \"AmphiTrans.sol\":2163:2179  payList[_tasker] */\n      and\n        /* \"AmphiTrans.sol\":2136:2143  uint256 */\n      0x00\n        /* \"AmphiTrans.sol\":2163:2179  payList[_tasker] */\n      swap1\n      dup2\n      mstore\n        /* \"AmphiTrans.sol\":2163:2170  payList */\n      0x01\n        /* \"AmphiTrans.sol\":2163:2179  payList[_tasker] */\n      0x20\n      mstore\n      0x40\n      swap1\n      keccak256\n      sload\n      swap1\n        /* \"AmphiTrans.sol\":2080:2187  function getPay(address _tasker) external view returns (uint256) {... */\n      jump\n        /* \"AmphiTrans.sol\":7929:8117  function getFileBounty(uint256 _index, uint256 _fileIndex)... */\n    tag_41:\n      tag_77\n      tag_215\n      calldatasize\n      0x04\n      tag_191\n      jump\t// in\n    tag_215:\n      tag_216\n      jump\t// in\n        /* \"AmphiTrans.sol\":2881:3007  function getVfNumber(uint256 _index) public view returns (uint256) {... */\n    tag_42:\n      tag_77\n      tag_219\n      calldatasize\n      0x04\n      tag_65\n      jump\t// in\n    tag_219:\n        /* \"AmphiTrans.sol\":2939:2946  uint256 */\n      0x00\n        /* \"AmphiTrans.sol\":2966:2982  taskList[_index] */\n      swap1\n      dup2\n      mstore\n      0x20\n      dup2\n      swap1\n      mstore\n      0x40\n      swap1\n      keccak256\n        /* \"AmphiTrans.sol\":2966:2992  taskList[_index].verifiers */\n      0x0e\n      add\n        /* \"AmphiTrans.sol\":2966:2999  taskList[_index].verifiers.length */\n      sload\n      swap1\n        /* \"AmphiTrans.sol\":2881:3007  function getVfNumber(uint256 _index) public view returns (uint256) {... */\n      jump\n        /* \"AmphiTrans.sol\":5107:5271  function getTaskState(uint256 _index)... */\n    tag_43:\n      tag_222\n      tag_223\n      calldatasize\n      0x04\n      tag_65\n      jump\t// in\n    tag_223:\n        /* \"AmphiTrans.sol\":5193:5216  LibProject.ProjectState */\n      0x00\n        /* \"AmphiTrans.sol\":5241:5257  taskList[_index] */\n      swap1\n      dup2\n      mstore\n      0x20\n      dup2\n      swap1\n      mstore\n      0x40\n      swap1\n      keccak256\n        /* \"AmphiTrans.sol\":5241:5263  taskList[_index].state */\n      0x13\n      add\n      sload\n      0x010000\n      swap1\n      div\n      0xff\n      and\n      swap1\n        /* \"AmphiTrans.sol\":5107:5271  function getTaskState(uint256 _index)... */\n      jump\n    tag_222:\n      mload(0x40)\n      tag_67\n      swap2\n      swap1\n      tag_226\n      jump\t// in\n        /* \"AmphiTrans.sol\":14061:14581  function submitFileByVf(... */\n    tag_62:\n        /* \"AmphiTrans.sol\":14227:14240  uint256 _time */\n      0x00\n        /* \"AmphiTrans.sol\":14269:14285  taskList[_index] */\n      dup5\n      dup2\n      mstore\n      0x20\n      dup2\n      swap1\n      mstore\n      0x40\n      swap1\n      keccak256\n        /* \"AmphiTrans.sol\":14269:14291  taskList[_index].tasks */\n      0x0c\n      add\n        /* \"AmphiTrans.sol\":14269:14303  taskList[_index].tasks[_fileIndex] */\n      dup1\n      sload\n        /* \"AmphiTrans.sol\":14243:14258  block.timestamp */\n      timestamp\n      swap2\n      dup3\n      swap2\n        /* \"AmphiTrans.sol\":14292:14302  _fileIndex */\n      dup6\n      swap1\n        /* \"AmphiTrans.sol\":14269:14303  taskList[_index].tasks[_fileIndex] */\n      dup2\n      lt\n      tag_229\n      jumpi\n      tag_229\n      tag_230\n      jump\t// in\n    tag_229:\n      0x00\n      swap2\n      dup3\n      mstore\n      0x20\n      dup1\n      dup4\n      keccak256\n        /* \"AmphiTrans.sol\":14269:14314  taskList[_index].tasks[_fileIndex].lastUpload */\n      0x0a\n        /* \"AmphiTrans.sol\":14269:14303  taskList[_index].tasks[_fileIndex] */\n      0x0b\n      swap1\n      swap4\n      mul\n      add\n        /* \"AmphiTrans.sol\":14269:14314  taskList[_index].tasks[_fileIndex].lastUpload */\n      swap2\n      swap1\n      swap2\n      add\n        /* \"AmphiTrans.sol\":14269:14332  taskList[_index].tasks[_fileIndex].lastUpload = block.timestamp */\n      swap3\n      swap1\n      swap3\n      sstore\n        /* \"AmphiTrans.sol\":14343:14357  vfInfo[_index] */\n      dup7\n      dup2\n      mstore\n        /* \"AmphiTrans.sol\":14343:14349  vfInfo */\n      0x03\n        /* \"AmphiTrans.sol\":14343:14357  vfInfo[_index] */\n      dup3\n      mstore\n      0x40\n      dup1\n      dup3\n      keccak256\n      sub(shl(0xa0, 0x01), 0x01)\n        /* \"AmphiTrans.sol\":14343:14371  vfInfo[_index][_taskerIndex] */\n      dup9\n      and\n      dup4\n      mstore\n      dup4\n      mstore\n      dup1\n      dup3\n      keccak256\n        /* \"AmphiTrans.sol\":14343:14388  vfInfo[_index][_taskerIndex].info[_fileIndex] */\n      dup7\n      dup4\n      mstore\n        /* \"AmphiTrans.sol\":14343:14376  vfInfo[_index][_taskerIndex].info */\n      0x01\n      swap1\n      dup2\n      add\n        /* \"AmphiTrans.sol\":14343:14388  vfInfo[_index][_taskerIndex].info[_fileIndex] */\n      swap1\n      swap4\n      mstore\n      swap1\n      keccak256\n        /* \"AmphiTrans.sol\":14343:14393  vfInfo[_index][_taskerIndex].info[_fileIndex].file */\n      add\n        /* \"AmphiTrans.sol\":14343:14401  vfInfo[_index][_taskerIndex].info[_fileIndex].file = _file */\n      tag_232\n        /* \"AmphiTrans.sol\":14396:14401  _file */\n      dup4\n        /* \"AmphiTrans.sol\":14343:14393  vfInfo[_index][_taskerIndex].info[_fileIndex].file */\n      dup3\n        /* \"AmphiTrans.sol\":14343:14401  vfInfo[_index][_taskerIndex].info[_fileIndex].file = _file */\n      tag_233\n      jump\t// in\n    tag_232:\n      pop\n        /* \"AmphiTrans.sol\":14417:14573  submitFileEv(... */\n      0x79d1efbc53e0b7b5b56c575cd2fd71b51f8d41409f12b1aba3471e6678906098\n        /* \"AmphiTrans.sol\":14444:14450  _index */\n      dup6\n        /* \"AmphiTrans.sol\":14465:14475  _fileIndex */\n      dup5\n        /* \"AmphiTrans.sol\":14490:14495  _time */\n      dup4\n        /* \"AmphiTrans.sol\":14510:14515  _file */\n      dup6\n        /* \"AmphiTrans.sol\":14530:14542  _taskerIndex */\n      dup9\n        /* \"AmphiTrans.sol\":14557:14562  false */\n      0x00\n        /* \"AmphiTrans.sol\":14417:14573  submitFileEv(... */\n      mload(0x40)\n      tag_234\n      swap7\n      swap6\n      swap5\n      swap4\n      swap3\n      swap2\n      swap1\n      tag_235\n      jump\t// in\n    tag_234:\n      mload(0x40)\n      dup1\n      swap2\n      sub\n      swap1\n      log1\n        /* \"AmphiTrans.sol\":14216:14581  {... */\n      pop\n        /* \"AmphiTrans.sol\":14061:14581  function submitFileByVf(... */\n      pop\n      pop\n      pop\n      pop\n      jump\t// out\n        /* \"AmphiTrans.sol\":2537:2702  function getFiles(uint256 _index)... */\n    tag_66:\n        /* \"AmphiTrans.sol\":2672:2680  taskList */\n      0x00\n        /* \"AmphiTrans.sol\":2672:2688  taskList[_index] */\n      dup2\n      dup2\n      mstore\n      0x20\n      dup2\n      dup2\n      mstore\n      0x40\n      dup1\n      dup4\n      keccak256\n        /* \"AmphiTrans.sol\":2672:2694  taskList[_index].tasks */\n      0x0c\n      add\n        /* \"AmphiTrans.sol\":2665:2694  return taskList[_index].tasks */\n      dup1\n      sload\n      dup3\n      mload\n      dup2\n      dup6\n      mul\n      dup2\n      add\n      dup6\n      add\n      swap1\n      swap4\n      mstore\n      dup1\n      dup4\n      mstore\n        /* \"AmphiTrans.sol\":2619:2647  LibProject.TaskInfo[] memory */\n      0x60\n      swap5\n        /* \"AmphiTrans.sol\":2665:2694  return taskList[_index].tasks */\n      swap3\n      swap4\n        /* \"AmphiTrans.sol\":2672:2694  taskList[_index].tasks */\n      swap2\n      swap3\n        /* \"AmphiTrans.sol\":2665:2694  return taskList[_index].tasks */\n      swap1\n      swap2\n      dup5\n      add\n    tag_237:\n      dup3\n      dup3\n      lt\n      iszero\n      tag_238\n      jumpi\n      0x00\n      dup5\n      dup2\n      mstore\n      0x20\n      swap1\n      keccak256\n      0x40\n      dup1\n      mload\n      0x0180\n      dup2\n      add\n      swap1\n      swap2\n      mstore\n      0x0b\n      dup5\n      mul\n      swap1\n      swap2\n      add\n      dup1\n      sload\n      dup3\n      swap1\n      0xa0\n      dup3\n      add\n      swap1\n      dup4\n      swap1\n      dup3\n      swap1\n      dup3\n      swap1\n      tag_240\n      swap1\n      tag_241\n      jump\t// in\n    tag_240:\n      dup1\n      0x1f\n      add\n      0x20\n      dup1\n      swap2\n      div\n      mul\n      0x20\n      add\n      mload(0x40)\n      swap1\n      dup2\n      add\n      0x40\n      mstore\n      dup1\n      swap3\n      swap2\n      swap1\n      dup2\n      dup2\n      mstore\n      0x20\n      add\n      dup3\n      dup1\n      sload\n      tag_242\n      swap1\n      tag_241\n      jump\t// in\n    tag_242:\n      dup1\n      iszero\n      tag_243\n      jumpi\n      dup1\n      0x1f\n      lt\n      tag_244\n      jumpi\n      0x0100\n      dup1\n      dup4\n      sload\n      div\n      mul\n      dup4\n      mstore\n      swap2\n      0x20\n      add\n      swap2\n      jump(tag_243)\n    tag_244:\n      dup3\n      add\n      swap2\n      swap1\n      0x00\n      mstore\n      keccak256(0x00, 0x20)\n      swap1\n    tag_245:\n      dup2\n      sload\n      dup2\n      mstore\n      swap1\n      0x01\n      add\n      swap1\n      0x20\n      add\n      dup1\n      dup4\n      gt\n      tag_245\n      jumpi\n      dup3\n      swap1\n      sub\n      0x1f\n      and\n      dup3\n      add\n      swap2\n    tag_243:\n      pop\n      pop\n      pop\n      pop\n      pop\n      dup2\n      mstore\n      0x20\n      add\n      0x01\n      dup3\n      add\n      sload\n      dup2\n      mstore\n      0x20\n      add\n      0x02\n      dup3\n      add\n      sload\n      dup2\n      mstore\n      0x20\n      add\n      0x03\n      dup3\n      add\n      sload\n      dup2\n      mstore\n      0x20\n      add\n      0x04\n      dup3\n      add\n      sload\n      dup2\n      mstore\n      0x20\n      add\n      0x05\n      dup3\n      add\n      sload\n      dup2\n      mstore\n      0x20\n      add\n      0x06\n      dup3\n      add\n      dup1\n      sload\n      tag_246\n      swap1\n      tag_241\n      jump\t// in\n    tag_246:\n      dup1\n      0x1f\n      add\n      0x20\n      dup1\n      swap2\n      div\n      mul\n      0x20\n      add\n      mload(0x40)\n      swap1\n      dup2\n      add\n      0x40\n      mstore\n      dup1\n      swap3\n      swap2\n      swap1\n      dup2\n      dup2\n      mstore\n      0x20\n      add\n      dup3\n      dup1\n      sload\n      tag_247\n      swap1\n      tag_241\n      jump\t// in\n    tag_247:\n      dup1\n      iszero\n      tag_248\n      jumpi\n      dup1\n      0x1f\n      lt\n      tag_249\n      jumpi\n      0x0100\n      dup1\n      dup4\n      sload\n      div\n      mul\n      dup4\n      mstore\n      swap2\n      0x20\n      add\n      swap2\n      jump(tag_248)\n    tag_249:\n      dup3\n      add\n      swap2\n      swap1\n      0x00\n      mstore\n      keccak256(0x00, 0x20)\n      swap1\n    tag_250:\n      dup2\n      sload\n      dup2\n      mstore\n      swap1\n      0x01\n      add\n      swap1\n      0x20\n      add\n      dup1\n      dup4\n      gt\n      tag_250\n      jumpi\n      dup3\n      swap1\n      sub\n      0x1f\n      and\n      dup3\n      add\n      swap2\n    tag_248:\n      pop\n      pop\n      pop\n      pop\n      pop\n      dup2\n      mstore\n      pop\n      pop\n      dup2\n      mstore\n      0x20\n      add\n      0x07\n      dup3\n      add\n      sload\n      dup2\n      mstore\n      0x20\n      add\n      0x08\n      dup3\n      add\n      dup1\n      sload\n      tag_251\n      swap1\n      tag_241\n      jump\t// in\n    tag_251:\n      dup1\n      0x1f\n      add\n      0x20\n      dup1\n      swap2\n      div\n      mul\n      0x20\n      add\n      mload(0x40)\n      swap1\n      dup2\n      add\n      0x40\n      mstore\n      dup1\n      swap3\n      swap2\n      swap1\n      dup2\n      dup2\n      mstore\n      0x20\n      add\n      dup3\n      dup1\n      sload\n      tag_252\n      swap1\n      tag_241\n      jump\t// in\n    tag_252:\n      dup1\n      iszero\n      tag_253\n      jumpi\n      dup1\n      0x1f\n      lt\n      tag_254\n      jumpi\n      0x0100\n      dup1\n      dup4\n      sload\n      div\n      mul\n      dup4\n      mstore\n      swap2\n      0x20\n      add\n      swap2\n      jump(tag_253)\n    tag_254:\n      dup3\n      add\n      swap2\n      swap1\n      0x00\n      mstore\n      keccak256(0x00, 0x20)\n      swap1\n    tag_255:\n      dup2\n      sload\n      dup2\n      mstore\n      swap1\n      0x01\n      add\n      swap1\n      0x20\n      add\n      dup1\n      dup4\n      gt\n      tag_255\n      jumpi\n      dup3\n      swap1\n      sub\n      0x1f\n      and\n      dup3\n      add\n      swap2\n    tag_253:\n      pop\n      pop\n      pop\n      swap2\n      dup4\n      mstore\n      pop\n      pop\n      0x09\n      dup3\n      add\n      sload\n      0x20\n      swap1\n      swap2\n      add\n      swap1\n      0xff\n      and\n      0x0b\n      dup2\n      gt\n      iszero\n      tag_257\n      jumpi\n      tag_257\n      tag_258\n      jump\t// in\n    tag_257:\n      0x0b\n      dup2\n      gt\n      iszero\n      tag_260\n      jumpi\n      tag_260\n      tag_258\n      jump\t// in\n    tag_260:\n      dup2\n      mstore\n      0x20\n      add\n      0x0a\n      dup3\n      add\n      sload\n      dup2\n      mstore\n      pop\n      pop\n      dup2\n      mstore\n      0x20\n      add\n      swap1\n      0x01\n      add\n      swap1\n      jump(tag_237)\n    tag_238:\n      pop\n      pop\n      pop\n      pop\n      swap1\n      pop\n        /* \"AmphiTrans.sol\":2537:2702  function getFiles(uint256 _index)... */\n      swap2\n      swap1\n      pop\n      jump\t// out\n        /* \"AmphiTrans.sol\":1855:1958  function addPay(address _tasker, uint256 _money) external {... */\n    tag_72:\n      sub(shl(0xa0, 0x01), 0x01)\n        /* \"AmphiTrans.sol\":1924:1940  payList[_tasker] */\n      dup3\n      and\n      0x00\n      swap1\n      dup2\n      mstore\n        /* \"AmphiTrans.sol\":1924:1931  payList */\n      0x01\n        /* \"AmphiTrans.sol\":1924:1940  payList[_tasker] */\n      0x20\n      mstore\n      0x40\n      dup2\n      keccak256\n        /* \"AmphiTrans.sol\":1924:1950  payList[_tasker] += _money */\n      dup1\n      sload\n        /* \"AmphiTrans.sol\":1944:1950  _money */\n      dup4\n      swap3\n        /* \"AmphiTrans.sol\":1924:1940  payList[_tasker] */\n      swap1\n        /* \"AmphiTrans.sol\":1924:1950  payList[_tasker] += _money */\n      tag_262\n      swap1\n        /* \"AmphiTrans.sol\":1944:1950  _money */\n      dup5\n      swap1\n        /* \"AmphiTrans.sol\":1924:1950  payList[_tasker] += _money */\n      tag_263\n      jump\t// in\n    tag_262:\n      swap1\n      swap2\n      sstore\n      pop\n      pop\n      pop\n      pop\n        /* \"AmphiTrans.sol\":1855:1958  function addPay(address _tasker, uint256 _money) external {... */\n      jump\t// out\n        /* \"AmphiTrans.sol\":9470:9683  function changeProjectState(uint256 _index, LibProject.ProjectState _state)... */\n    tag_76:\n        /* \"AmphiTrans.sol\":9580:9588  taskList */\n      0x00\n        /* \"AmphiTrans.sol\":9580:9596  taskList[_index] */\n      dup3\n      dup2\n      mstore\n      0x20\n      dup2\n      swap1\n      mstore\n      0x40\n      swap1\n      keccak256\n        /* \"AmphiTrans.sol\":9580:9602  taskList[_index].state */\n      0x13\n      add\n        /* \"AmphiTrans.sol\":9580:9611  taskList[_index].state = _state */\n      dup1\n      sload\n        /* \"AmphiTrans.sol\":9605:9611  _state */\n      dup3\n      swap2\n        /* \"AmphiTrans.sol\":9580:9602  taskList[_index].state */\n      swap1\n        /* \"AmphiTrans.sol\":9580:9611  taskList[_index].state = _state */\n      0xffffffffffffffffffffffffffffffffffffffffffffffffffffffffff00ffff\n      and\n      0x010000\n        /* \"AmphiTrans.sol\":9605:9611  _state */\n      dup4\n        /* \"AmphiTrans.sol\":9580:9611  taskList[_index].state = _state */\n      0x07\n      dup2\n      gt\n      iszero\n      tag_266\n      jumpi\n      tag_266\n      tag_258\n      jump\t// in\n    tag_266:\n      mul\n      or\n      swap1\n      sstore\n      pop\n        /* \"AmphiTrans.sol\":9627:9675  changeProjectStateEv(_index, _state, msg.sender) */\n      0xdea20a6d822b68d598b7ab4fd45418a7ca7b103f12d300bcc3b56a7b94d9ed33\n        /* \"AmphiTrans.sol\":9648:9654  _index */\n      dup3\n        /* \"AmphiTrans.sol\":9656:9662  _state */\n      dup3\n        /* \"AmphiTrans.sol\":9664:9674  msg.sender */\n      caller\n        /* \"AmphiTrans.sol\":9627:9675  changeProjectStateEv(_index, _state, msg.sender) */\n      mload(0x40)\n      tag_267\n      swap4\n      swap3\n      swap2\n      swap1\n      tag_268\n      jump\t// in\n    tag_267:\n      mload(0x40)\n      dup1\n      swap2\n      sub\n      swap1\n      log1\n        /* \"AmphiTrans.sol\":9470:9683  function changeProjectState(uint256 _index, LibProject.ProjectState _state)... */\n      pop\n      pop\n      jump\t// out\n        /* \"AmphiTrans.sol\":3059:3263  function getAcceptTransNumber(uint256 _index, address _taskerIndex)... */\n    tag_80:\n        /* \"AmphiTrans.sol\":3175:3182  uint256 */\n      0x00\n        /* \"AmphiTrans.sol\":3207:3224  transInfo[_index] */\n      dup3\n      dup2\n      mstore\n        /* \"AmphiTrans.sol\":3207:3216  transInfo */\n      0x02\n        /* \"AmphiTrans.sol\":3207:3224  transInfo[_index] */\n      0x20\n      swap1\n      dup2\n      mstore\n      0x40\n      dup1\n      dup4\n      keccak256\n      sub(shl(0xa0, 0x01), 0x01)\n        /* \"AmphiTrans.sol\":3207:3238  transInfo[_index][_taskerIndex] */\n      dup6\n      and\n      dup5\n      mstore\n      swap1\n      swap2\n      mstore\n      swap1\n      keccak256\n        /* \"AmphiTrans.sol\":3207:3255  transInfo[_index][_taskerIndex].taskIndex.length */\n      sload\n        /* \"AmphiTrans.sol\":3059:3263  function getAcceptTransNumber(uint256 _index, address _taskerIndex)... */\n    tag_269:\n      swap3\n      swap2\n      pop\n      pop\n      jump\t// out\n        /* \"AmphiTrans.sol\":8691:9128  function changeTaskTransState(... */\n    tag_86:\n        /* \"AmphiTrans.sol\":8873:8890  transInfo[_index] */\n      0x00\n      dup5\n      dup2\n      mstore\n        /* \"AmphiTrans.sol\":8873:8882  transInfo */\n      0x02\n        /* \"AmphiTrans.sol\":8873:8890  transInfo[_index] */\n      0x20\n      swap1\n      dup2\n      mstore\n      0x40\n      dup1\n      dup4\n      keccak256\n      sub(shl(0xa0, 0x01), 0x01)\n        /* \"AmphiTrans.sol\":8873:8904  transInfo[_index][_taskerIndex] */\n      dup8\n      and\n      dup5\n      mstore\n      dup3\n      mstore\n      dup1\n      dup4\n      keccak256\n        /* \"AmphiTrans.sol\":8873:8921  transInfo[_index][_taskerIndex].info[_fileIndex] */\n      dup6\n      dup5\n      mstore\n        /* \"AmphiTrans.sol\":8873:8909  transInfo[_index][_taskerIndex].info */\n      0x01\n      swap1\n      dup2\n      add\n        /* \"AmphiTrans.sol\":8873:8921  transInfo[_index][_taskerIndex].info[_fileIndex] */\n      swap1\n      swap3\n      mstore\n      swap1\n      swap2\n      keccak256\n        /* \"AmphiTrans.sol\":8873:8936  transInfo[_index][_taskerIndex].info[_fileIndex].state = _state */\n      dup1\n      sload\n        /* \"AmphiTrans.sol\":8930:8936  _state */\n      dup4\n      swap3\n      not(0xff)\n        /* \"AmphiTrans.sol\":8873:8936  transInfo[_index][_taskerIndex].info[_fileIndex].state = _state */\n      swap1\n      swap2\n      and\n      swap1\n        /* \"AmphiTrans.sol\":8930:8936  _state */\n      dup4\n        /* \"AmphiTrans.sol\":8873:8936  transInfo[_index][_taskerIndex].info[_fileIndex].state = _state */\n      0x04\n      dup2\n      gt\n      iszero\n      tag_272\n      jumpi\n      tag_272\n      tag_258\n      jump\t// in\n    tag_272:\n      mul\n      or\n      swap1\n      sstore\n      pop\n        /* \"AmphiTrans.sol\":8952:9120  changeTaskerStateEv(... */\n      0x4b906571b20f3dcdf826b53f3c66528e252b2eb87de3cb812f18e6859e119344\n        /* \"AmphiTrans.sol\":8986:8992  _index */\n      dup5\n        /* \"AmphiTrans.sol\":9007:9019  _taskerIndex */\n      dup5\n        /* \"AmphiTrans.sol\":9034:9044  _fileIndex */\n      dup5\n        /* \"AmphiTrans.sol\":9059:9065  _state */\n      dup5\n        /* \"AmphiTrans.sol\":9080:9084  true */\n      0x01\n        /* \"AmphiTrans.sol\":9099:9109  msg.sender */\n      caller\n        /* \"AmphiTrans.sol\":8952:9120  changeTaskerStateEv(... */\n      mload(0x40)\n      tag_273\n      swap7\n      swap6\n      swap5\n      swap4\n      swap3\n      swap2\n      swap1\n      tag_274\n      jump\t// in\n    tag_273:\n      mload(0x40)\n      dup1\n      swap2\n      sub\n      swap1\n      log1\n        /* \"AmphiTrans.sol\":8691:9128  function changeTaskTransState(... */\n      pop\n      pop\n      pop\n      pop\n      jump\t// out\n        /* \"AmphiTrans.sol\":12474:13619  function updateProject(uint256 _index, LibProject.ProParm memory _t)... */\n    tag_90:\n        /* \"AmphiTrans.sol\":12577:12615  LibProject.TranslationPro storage _pro */\n      0x00\n        /* \"AmphiTrans.sol\":12618:12634  taskList[_index] */\n      dup3\n      dup2\n      mstore\n      0x20\n      dup2\n      dup2\n      mstore\n      0x40\n      swap1\n      swap2\n      keccak256\n        /* \"AmphiTrans.sol\":12664:12678  _t.releaseTime */\n      dup3\n      mload\n        /* \"AmphiTrans.sol\":12645:12661  _pro.releaseTime */\n      0x01\n      dup3\n      add\n        /* \"AmphiTrans.sol\":12645:12678  _pro.releaseTime = _t.releaseTime */\n      sstore\n        /* \"AmphiTrans.sol\":12706:12718  _t.introduce */\n      swap1\n      dup3\n      add\n      mload\n        /* \"AmphiTrans.sol\":12689:12703  _pro.introduce */\n      0x02\n      dup3\n      add\n      swap1\n        /* \"AmphiTrans.sol\":12689:12718  _pro.introduce = _t.introduce */\n      tag_276\n      swap1\n        /* \"AmphiTrans.sol\":12689:12703  _pro.introduce */\n      dup3\n        /* \"AmphiTrans.sol\":12689:12718  _pro.introduce = _t.introduce */\n      tag_233\n      jump\t// in\n    tag_276:\n      pop\n        /* \"AmphiTrans.sol\":12741:12748  _t.need */\n      0x40\n      dup3\n      add\n      mload\n        /* \"AmphiTrans.sol\":12729:12738  _pro.need */\n      0x03\n      dup3\n      add\n      swap1\n        /* \"AmphiTrans.sol\":12729:12748  _pro.need = _t.need */\n      tag_277\n      swap1\n        /* \"AmphiTrans.sol\":12729:12738  _pro.need */\n      dup3\n        /* \"AmphiTrans.sol\":12729:12748  _pro.need = _t.need */\n      tag_233\n      jump\t// in\n    tag_277:\n      pop\n        /* \"AmphiTrans.sol\":12775:12786  _t.deadline */\n      0x60\n      dup3\n      add\n      mload\n        /* \"AmphiTrans.sol\":12759:12772  _pro.deadline */\n      0x04\n      dup3\n      add\n        /* \"AmphiTrans.sol\":12759:12786  _pro.deadline = _t.deadline */\n      sstore\n        /* \"AmphiTrans.sol\":12819:12836  _t.sourceLanguage */\n      0x80\n      dup3\n      add\n      mload\n        /* \"AmphiTrans.sol\":12797:12816  _pro.sourceLanguage */\n      0x05\n      dup3\n      add\n        /* \"AmphiTrans.sol\":12797:12836  _pro.sourceLanguage = _t.sourceLanguage */\n      sstore\n        /* \"AmphiTrans.sol\":12867:12882  _t.goalLanguage */\n      0xa0\n      dup3\n      add\n      mload\n        /* \"AmphiTrans.sol\":12847:12864  _pro.goalLanguage */\n      0x06\n      dup3\n      add\n        /* \"AmphiTrans.sol\":12847:12882  _pro.goalLanguage = _t.goalLanguage */\n      sstore\n        /* \"AmphiTrans.sol\":12911:12924  _t.preferList */\n      0xc0\n      dup3\n      add\n      mload\n        /* \"AmphiTrans.sol\":12893:12924  _pro.preferList = _t.preferList */\n      dup1\n      mload\n      tag_278\n      swap2\n        /* \"AmphiTrans.sol\":12893:12908  _pro.preferList */\n      0x07\n      dup5\n      add\n      swap2\n        /* \"AmphiTrans.sol\":12893:12924  _pro.preferList = _t.preferList */\n      0x20\n      swap1\n      swap2\n      add\n      swap1\n      tag_279\n      jump\t// in\n    tag_278:\n      pop\n        /* \"AmphiTrans.sol\":12958:12976  _t.translationType */\n      0xe0\n      dup3\n      add\n      mload\n        /* \"AmphiTrans.sol\":12935:12955  _pro.translationType */\n      0x08\n      dup3\n      add\n        /* \"AmphiTrans.sol\":12935:12976  _pro.translationType = _t.translationType */\n      sstore\n        /* \"AmphiTrans.sol\":13003:13014  _t.workLoad */\n      0x0100\n      dup1\n      dup4\n      add\n      mload\n        /* \"AmphiTrans.sol\":12987:13000  _pro.workLoad */\n      0x09\n      dup4\n      add\n        /* \"AmphiTrans.sol\":12987:13014  _pro.workLoad = _t.workLoad */\n      sstore\n        /* \"AmphiTrans.sol\":13039:13048  _t.bounty */\n      0x0160\n      dup4\n      add\n      mload\n        /* \"AmphiTrans.sol\":13025:13036  _pro.bounty */\n      0x0b\n      dup4\n      add\n        /* \"AmphiTrans.sol\":13025:13048  _pro.bounty = _t.bounty */\n      sstore\n        /* \"AmphiTrans.sol\":13082:13100  _t.isNonDisclosure */\n      0x0120\n      dup4\n      add\n      mload\n        /* \"AmphiTrans.sol\":13059:13079  _pro.isNonDisclosure */\n      0x0a\n      dup4\n      add\n        /* \"AmphiTrans.sol\":13059:13100  _pro.isNonDisclosure = _t.isNonDisclosure */\n      dup1\n      sload\n        /* \"AmphiTrans.sol\":13130:13144  _t.isCustomize */\n      0x0140\n      dup7\n      add\n      mload\n        /* \"AmphiTrans.sol\":13111:13144  _pro.isCustomize = _t.isCustomize */\n      iszero\n      dup1\n      iszero\n      swap1\n      swap5\n      mul\n      0xffffffffffffffffffffffffffffffffffffffffffffffffffffffffffff00ff\n        /* \"AmphiTrans.sol\":13059:13100  _pro.isNonDisclosure = _t.isNonDisclosure */\n      swap4\n      iszero\n      iszero\n        /* \"AmphiTrans.sol\":13111:13144  _pro.isCustomize = _t.isCustomize */\n      swap4\n      swap1\n      swap4\n      and\n      0xffffffffffffffffffffffffffffffffffffffffffffffffffffffffffff0000\n      swap1\n      swap2\n      and\n      or\n      swap2\n      swap1\n      swap2\n      or\n      swap1\n      sstore\n        /* \"AmphiTrans.sol\":13215:13405  if (_t.isCustomize) {... */\n      tag_280\n      jumpi\n        /* \"AmphiTrans.sol\":13262:13270  _t.tasks */\n      0x0180\n      dup3\n      add\n      mload\n        /* \"AmphiTrans.sol\":13262:13277  _t.tasks.length */\n      mload\n        /* \"AmphiTrans.sol\":13250:13259  _pro.maxT */\n      0x0f\n      dup3\n      add\n        /* \"AmphiTrans.sol\":13250:13277  _pro.maxT = _t.tasks.length */\n      sstore\n        /* \"AmphiTrans.sol\":13215:13405  if (_t.isCustomize) {... */\n      jump(tag_281)\n    tag_280:\n        /* \"AmphiTrans.sol\":13364:13365  1 */\n      0x01\n        /* \"AmphiTrans.sol\":13352:13361  _pro.maxT */\n      0x0f\n      dup3\n      add\n        /* \"AmphiTrans.sol\":13352:13365  _pro.maxT = 1 */\n      sstore\n        /* \"AmphiTrans.sol\":13215:13405  if (_t.isCustomize) {... */\n    tag_281:\n        /* \"AmphiTrans.sol\":13415:13433  _pro.isTransActive */\n      0x13\n      dup2\n      add\n        /* \"AmphiTrans.sol\":13415:13440  _pro.isTransActive = true */\n      dup1\n      sload\n      not(0xff)\n      and\n        /* \"AmphiTrans.sol\":13436:13440  true */\n      0x01\n        /* \"AmphiTrans.sol\":13415:13440  _pro.isTransActive = true */\n      or\n      swap1\n      sstore\n        /* \"AmphiTrans.sol\":13415:13433  _pro.isTransActive */\n      0x00\n        /* \"AmphiTrans.sol\":13511:13612  for (uint256 i = 0; i < _t.tasks.length; i++) {... */\n    tag_282:\n        /* \"AmphiTrans.sol\":13535:13537  _t */\n      dup3\n        /* \"AmphiTrans.sol\":13535:13543  _t.tasks */\n      0x0180\n      add\n      mload\n        /* \"AmphiTrans.sol\":13535:13550  _t.tasks.length */\n      mload\n        /* \"AmphiTrans.sol\":13531:13532  i */\n      dup2\n        /* \"AmphiTrans.sol\":13531:13550  i < _t.tasks.length */\n      lt\n        /* \"AmphiTrans.sol\":13511:13612  for (uint256 i = 0; i < _t.tasks.length; i++) {... */\n      iszero\n      tag_283\n      jumpi\n        /* \"AmphiTrans.sol\":13572:13576  _pro */\n      dup2\n        /* \"AmphiTrans.sol\":13572:13582  _pro.tasks */\n      0x0c\n      add\n        /* \"AmphiTrans.sol\":13588:13590  _t */\n      dup4\n        /* \"AmphiTrans.sol\":13588:13596  _t.tasks */\n      0x0180\n      add\n      mload\n        /* \"AmphiTrans.sol\":13597:13598  i */\n      dup3\n        /* \"AmphiTrans.sol\":13588:13599  _t.tasks[i] */\n      dup2\n      mload\n      dup2\n      lt\n      tag_286\n      jumpi\n      tag_286\n      tag_230\n      jump\t// in\n    tag_286:\n      0x20\n      swap1\n      dup2\n      mul\n      swap2\n      swap1\n      swap2\n      add\n      dup2\n      add\n      mload\n        /* \"AmphiTrans.sol\":13572:13600  _pro.tasks.push(_t.tasks[i]) */\n      dup3\n      sload\n      0x01\n      dup2\n      add\n      dup5\n      sstore\n      0x00\n      swap4\n      dup5\n      mstore\n      swap2\n      swap1\n      swap3\n      keccak256\n      dup3\n      mload\n      dup1\n      mload\n      0x0b\n      swap1\n      swap4\n      mul\n      swap1\n      swap2\n      add\n      swap2\n      dup3\n      swap1\n      dup2\n      swap1\n      tag_288\n      swap1\n      dup3\n      tag_233\n      jump\t// in\n    tag_288:\n      pop\n      0x20\n      dup3\n      add\n      mload\n      0x01\n      dup3\n      add\n      sstore\n      0x40\n      dup3\n      add\n      mload\n      0x02\n      dup3\n      add\n      sstore\n      0x60\n      dup3\n      add\n      mload\n      0x03\n      dup3\n      add\n      sstore\n      0x80\n      dup3\n      add\n      mload\n      0x04\n      dup3\n      add\n      sstore\n      0xa0\n      dup3\n      add\n      mload\n      0x05\n      dup3\n      add\n      sstore\n      0xc0\n      dup3\n      add\n      mload\n      0x06\n      dup3\n      add\n      swap1\n      tag_289\n      swap1\n      dup3\n      tag_233\n      jump\t// in\n    tag_289:\n      pop\n      pop\n      pop\n      0x20\n      dup3\n      add\n      mload\n      0x07\n      dup3\n      add\n      sstore\n      0x40\n      dup3\n      add\n      mload\n      0x08\n      dup3\n      add\n      swap1\n      tag_290\n      swap1\n      dup3\n      tag_233\n      jump\t// in\n    tag_290:\n      pop\n      0x60\n      dup3\n      add\n      mload\n      0x09\n      dup3\n      add\n      dup1\n      sload\n      not(0xff)\n      and\n      0x01\n      dup4\n      0x0b\n      dup2\n      gt\n      iszero\n      tag_292\n      jumpi\n      tag_292\n      tag_258\n      jump\t// in\n    tag_292:\n      mul\n      or\n      swap1\n      sstore\n      pop\n      0x80\n      dup3\n      add\n      mload\n      dup2\n      0x0a\n      add\n      sstore\n      pop\n      pop\n        /* \"AmphiTrans.sol\":13552:13555  i++ */\n      dup1\n      dup1\n      tag_293\n      swap1\n      tag_294\n      jump\t// in\n    tag_293:\n      swap2\n      pop\n      pop\n        /* \"AmphiTrans.sol\":13511:13612  for (uint256 i = 0; i < _t.tasks.length; i++) {... */\n      jump(tag_282)\n    tag_283:\n      pop\n        /* \"AmphiTrans.sol\":12566:13619  {... */\n      pop\n        /* \"AmphiTrans.sol\":12474:13619  function updateProject(uint256 _index, LibProject.ProParm memory _t)... */\n      pop\n      pop\n      jump\t// out\n        /* \"AmphiTrans.sol\":9162:9436  function changeFileState(... */\n    tag_94:\n        /* \"AmphiTrans.sol\":9349:9355  _state */\n      dup1\n        /* \"AmphiTrans.sol\":9306:9314  taskList */\n      0x00\n        /* \"AmphiTrans.sol\":9306:9322  taskList[_index] */\n      dup1\n        /* \"AmphiTrans.sol\":9315:9321  _index */\n      dup6\n        /* \"AmphiTrans.sol\":9306:9322  taskList[_index] */\n      dup2\n      mstore\n      0x20\n      add\n      swap1\n      dup2\n      mstore\n      0x20\n      add\n      0x00\n      keccak256\n        /* \"AmphiTrans.sol\":9306:9328  taskList[_index].tasks */\n      0x0c\n      add\n        /* \"AmphiTrans.sol\":9329:9339  _fileIndex */\n      dup4\n        /* \"AmphiTrans.sol\":9306:9340  taskList[_index].tasks[_fileIndex] */\n      dup2\n      sload\n      dup2\n      lt\n      tag_297\n      jumpi\n      tag_297\n      tag_230\n      jump\t// in\n    tag_297:\n      swap1\n      0x00\n      mstore\n      keccak256(0x00, 0x20)\n      swap1\n      0x0b\n      mul\n      add\n        /* \"AmphiTrans.sol\":9306:9346  taskList[_index].tasks[_fileIndex].state */\n      0x09\n      add\n      0x00\n        /* \"AmphiTrans.sol\":9306:9355  taskList[_index].tasks[_fileIndex].state = _state */\n      0x0100\n      exp\n      dup2\n      sload\n      dup2\n      0xff\n      mul\n      not\n      and\n      swap1\n      dup4\n      0x0b\n      dup2\n      gt\n      iszero\n      tag_300\n      jumpi\n      tag_300\n      tag_258\n      jump\t// in\n    tag_300:\n      mul\n      or\n      swap1\n      sstore\n      pop\n        /* \"AmphiTrans.sol\":9371:9428  changeFileStateEv(_index, _fileIndex, _state, msg.sender) */\n      0x188fff7234f3bb35c4f436313ec14267725515e4ca367843cd416621a72fb8a3\n        /* \"AmphiTrans.sol\":9389:9395  _index */\n      dup4\n        /* \"AmphiTrans.sol\":9397:9407  _fileIndex */\n      dup4\n        /* \"AmphiTrans.sol\":9409:9415  _state */\n      dup4\n        /* \"AmphiTrans.sol\":9417:9427  msg.sender */\n      caller\n        /* \"AmphiTrans.sol\":9371:9428  changeFileStateEv(_index, _fileIndex, _state, msg.sender) */\n      mload(0x40)\n      tag_301\n      swap5\n      swap4\n      swap3\n      swap2\n      swap1\n      tag_302\n      jump\t// in\n    tag_301:\n      mload(0x40)\n      dup1\n      swap2\n      sub\n      swap1\n      log1\n        /* \"AmphiTrans.sol\":9162:9436  function changeFileState(... */\n      pop\n      pop\n      pop\n      jump\t// out\n        /* \"AmphiTrans.sol\":6782:6952  function getProjectOne(uint256 _index)... */\n    tag_97:\n        /* \"AmphiTrans.sol\":6871:6903  LibProject.TranslationPro memory */\n      tag_303\n      tag_304\n      jump\t// in\n    tag_303:\n        /* \"AmphiTrans.sol\":6928:6936  taskList */\n      0x00\n        /* \"AmphiTrans.sol\":6928:6944  taskList[_index] */\n      dup3\n      dup2\n      mstore\n      0x20\n      dup2\n      dup2\n      mstore\n      0x40\n      swap2\n      dup3\n      swap1\n      keccak256\n        /* \"AmphiTrans.sol\":6921:6944  return taskList[_index] */\n      dup3\n      mload\n      0x02e0\n      dup2\n      add\n      dup5\n      mstore\n      dup2\n      sload\n      sub(shl(0xa0, 0x01), 0x01)\n      and\n      dup2\n      mstore\n      0x01\n      dup3\n      add\n      sload\n      swap3\n      dup2\n      add\n      swap3\n      swap1\n      swap3\n      mstore\n      0x02\n      dup2\n      add\n      dup1\n      sload\n      swap3\n      swap4\n        /* \"AmphiTrans.sol\":6928:6944  taskList[_index] */\n      swap2\n      swap3\n        /* \"AmphiTrans.sol\":6921:6944  return taskList[_index] */\n      swap2\n      dup5\n      add\n      swap2\n      tag_306\n      swap1\n      tag_241\n      jump\t// in\n    tag_306:\n      dup1\n      0x1f\n      add\n      0x20\n      dup1\n      swap2\n      div\n      mul\n      0x20\n      add\n      mload(0x40)\n      swap1\n      dup2\n      add\n      0x40\n      mstore\n      dup1\n      swap3\n      swap2\n      swap1\n      dup2\n      dup2\n      mstore\n      0x20\n      add\n      dup3\n      dup1\n      sload\n      tag_307\n      swap1\n      tag_241\n      jump\t// in\n    tag_307:\n      dup1\n      iszero\n      tag_308\n      jumpi\n      dup1\n      0x1f\n      lt\n      tag_309\n      jumpi\n      0x0100\n      dup1\n      dup4\n      sload\n      div\n      mul\n      dup4\n      mstore\n      swap2\n      0x20\n      add\n      swap2\n      jump(tag_308)\n    tag_309:\n      dup3\n      add\n      swap2\n      swap1\n      0x00\n      mstore\n      keccak256(0x00, 0x20)\n      swap1\n    tag_310:\n      dup2\n      sload\n      dup2\n      mstore\n      swap1\n      0x01\n      add\n      swap1\n      0x20\n      add\n      dup1\n      dup4\n      gt\n      tag_310\n      jumpi\n      dup3\n      swap1\n      sub\n      0x1f\n      and\n      dup3\n      add\n      swap2\n    tag_308:\n      pop\n      pop\n      pop\n      pop\n      pop\n      dup2\n      mstore\n      0x20\n      add\n      0x03\n      dup3\n      add\n      dup1\n      sload\n      tag_311\n      swap1\n      tag_241\n      jump\t// in\n    tag_311:\n      dup1\n      0x1f\n      add\n      0x20\n      dup1\n      swap2\n      div\n      mul\n      0x20\n      add\n      mload(0x40)\n      swap1\n      dup2\n      add\n      0x40\n      mstore\n      dup1\n      swap3\n      swap2\n      swap1\n      dup2\n      dup2\n      mstore\n      0x20\n      add\n      dup3\n      dup1\n      sload\n      tag_312\n      swap1\n      tag_241\n      jump\t// in\n    tag_312:\n      dup1\n      iszero\n      tag_313\n      jumpi\n      dup1\n      0x1f\n      lt\n      tag_314\n      jumpi\n      0x0100\n      dup1\n      dup4\n      sload\n      div\n      mul\n      dup4\n      mstore\n      swap2\n      0x20\n      add\n      swap2\n      jump(tag_313)\n    tag_314:\n      dup3\n      add\n      swap2\n      swap1\n      0x00\n      mstore\n      keccak256(0x00, 0x20)\n      swap1\n    tag_315:\n      dup2\n      sload\n      dup2\n      mstore\n      swap1\n      0x01\n      add\n      swap1\n      0x20\n      add\n      dup1\n      dup4\n      gt\n      tag_315\n      jumpi\n      dup3\n      swap1\n      sub\n      0x1f\n      and\n      dup3\n      add\n      swap2\n    tag_313:\n      pop\n      pop\n      pop\n      pop\n      pop\n      dup2\n      mstore\n      0x20\n      add\n      0x04\n      dup3\n      add\n      sload\n      dup2\n      mstore\n      0x20\n      add\n      0x05\n      dup3\n      add\n      sload\n      dup2\n      mstore\n      0x20\n      add\n      0x06\n      dup3\n      add\n      sload\n      dup2\n      mstore\n      0x20\n      add\n      0x07\n      dup3\n      add\n      dup1\n      sload\n      dup1\n      0x20\n      mul\n      0x20\n      add\n      mload(0x40)\n      swap1\n      dup2\n      add\n      0x40\n      mstore\n      dup1\n      swap3\n      swap2\n      swap1\n      dup2\n      dup2\n      mstore\n      0x20\n      add\n      dup3\n      dup1\n      sload\n      dup1\n      iszero\n      tag_316\n      jumpi\n      0x20\n      mul\n      dup3\n      add\n      swap2\n      swap1\n      0x00\n      mstore\n      keccak256(0x00, 0x20)\n      swap1\n    tag_317:\n      dup2\n      sload\n      dup2\n      mstore\n      0x20\n      add\n      swap1\n      0x01\n      add\n      swap1\n      dup1\n      dup4\n      gt\n      tag_317\n      jumpi\n    tag_316:\n      pop\n      pop\n      pop\n      swap2\n      dup4\n      mstore\n      pop\n      pop\n      0x08\n      dup3\n      add\n      sload\n      0x20\n      dup1\n      dup4\n      add\n      swap2\n      swap1\n      swap2\n      mstore\n      0x09\n      dup4\n      add\n      sload\n      0x40\n      dup1\n      dup5\n      add\n      swap2\n      swap1\n      swap2\n      mstore\n      0x0a\n      dup5\n      add\n      sload\n      0xff\n      dup1\n      dup3\n      and\n      iszero\n      iszero\n      0x60\n      dup7\n      add\n      mstore\n      0x0100\n      swap1\n      swap2\n      div\n      and\n      iszero\n      iszero\n      0x80\n      dup5\n      add\n      mstore\n      0x0b\n      dup5\n      add\n      sload\n      0xa0\n      dup5\n      add\n      mstore\n      0x0c\n      dup5\n      add\n      dup1\n      sload\n      dup3\n      mload\n      dup2\n      dup6\n      mul\n      dup2\n      add\n      dup6\n      add\n      swap1\n      swap4\n      mstore\n      dup1\n      dup4\n      mstore\n      0xc0\n      swap1\n      swap5\n      add\n      swap4\n      swap2\n      swap3\n      swap1\n      swap2\n      swap1\n      0x00\n      swap1\n      dup5\n      add\n    tag_318:\n      dup3\n      dup3\n      lt\n      iszero\n      tag_319\n      jumpi\n      0x00\n      dup5\n      dup2\n      mstore\n      0x20\n      swap1\n      keccak256\n      0x40\n      dup1\n      mload\n      0x0180\n      dup2\n      add\n      swap1\n      swap2\n      mstore\n      0x0b\n      dup5\n      mul\n      swap1\n      swap2\n      add\n      dup1\n      sload\n      dup3\n      swap1\n      0xa0\n      dup3\n      add\n      swap1\n      dup4\n      swap1\n      dup3\n      swap1\n      dup3\n      swap1\n      tag_321\n      swap1\n      tag_241\n      jump\t// in\n    tag_321:\n      dup1\n      0x1f\n      add\n      0x20\n      dup1\n      swap2\n      div\n      mul\n      0x20\n      add\n      mload(0x40)\n      swap1\n      dup2\n      add\n      0x40\n      mstore\n      dup1\n      swap3\n      swap2\n      swap1\n      dup2\n      dup2\n      mstore\n      0x20\n      add\n      dup3\n      dup1\n      sload\n      tag_322\n      swap1\n      tag_241\n      jump\t// in\n    tag_322:\n      dup1\n      iszero\n      tag_323\n      jumpi\n      dup1\n      0x1f\n      lt\n      tag_324\n      jumpi\n      0x0100\n      dup1\n      dup4\n      sload\n      div\n      mul\n      dup4\n      mstore\n      swap2\n      0x20\n      add\n      swap2\n      jump(tag_323)\n    tag_324:\n      dup3\n      add\n      swap2\n      swap1\n      0x00\n      mstore\n      keccak256(0x00, 0x20)\n      swap1\n    tag_325:\n      dup2\n      sload\n      dup2\n      mstore\n      swap1\n      0x01\n      add\n      swap1\n      0x20\n      add\n      dup1\n      dup4\n      gt\n      tag_325\n      jumpi\n      dup3\n      swap1\n      sub\n      0x1f\n      and\n      dup3\n      add\n      swap2\n    tag_323:\n      pop\n      pop\n      pop\n      pop\n      pop\n      dup2\n      mstore\n      0x20\n      add\n      0x01\n      dup3\n      add\n      sload\n      dup2\n      mstore\n      0x20\n      add\n      0x02\n      dup3\n      add\n      sload\n      dup2\n      mstore\n      0x20\n      add\n      0x03\n      dup3\n      add\n      sload\n      dup2\n      mstore\n      0x20\n      add\n      0x04\n      dup3\n      add\n      sload\n      dup2\n      mstore\n      0x20\n      add\n      0x05\n      dup3\n      add\n      sload\n      dup2\n      mstore\n      0x20\n      add\n      0x06\n      dup3\n      add\n      dup1\n      sload\n      tag_326\n      swap1\n      tag_241\n      jump\t// in\n    tag_326:\n      dup1\n      0x1f\n      add\n      0x20\n      dup1\n      swap2\n      div\n      mul\n      0x20\n      add\n      mload(0x40)\n      swap1\n      dup2\n      add\n      0x40\n      mstore\n      dup1\n      swap3\n      swap2\n      swap1\n      dup2\n      dup2\n      mstore\n      0x20\n      add\n      dup3\n      dup1\n      sload\n      tag_327\n      swap1\n      tag_241\n      jump\t// in\n    tag_327:\n      dup1\n      iszero\n      tag_328\n      jumpi\n      dup1\n      0x1f\n      lt\n      tag_329\n      jumpi\n      0x0100\n      dup1\n      dup4\n      sload\n      div\n      mul\n      dup4\n      mstore\n      swap2\n      0x20\n      add\n      swap2\n      jump(tag_328)\n    tag_329:\n      dup3\n      add\n      swap2\n      swap1\n      0x00\n      mstore\n      keccak256(0x00, 0x20)\n      swap1\n    tag_330:\n      dup2\n      sload\n      dup2\n      mstore\n      swap1\n      0x01\n      add\n      swap1\n      0x20\n      add\n      dup1\n      dup4\n      gt\n      tag_330\n      jumpi\n      dup3\n      swap1\n      sub\n      0x1f\n      and\n      dup3\n      add\n      swap2\n    tag_328:\n      pop\n      pop\n      pop\n      pop\n      pop\n      dup2\n      mstore\n      pop\n      pop\n      dup2\n      mstore\n      0x20\n      add\n      0x07\n      dup3\n      add\n      sload\n      dup2\n      mstore\n      0x20\n      add\n      0x08\n      dup3\n      add\n      dup1\n      sload\n      tag_331\n      swap1\n      tag_241\n      jump\t// in\n    tag_331:\n      dup1\n      0x1f\n      add\n      0x20\n      dup1\n      swap2\n      div\n      mul\n      0x20\n      add\n      mload(0x40)\n      swap1\n      dup2\n      add\n      0x40\n      mstore\n      dup1\n      swap3\n      swap2\n      swap1\n      dup2\n      dup2\n      mstore\n      0x20\n      add\n      dup3\n      dup1\n      sload\n      tag_332\n      swap1\n      tag_241\n      jump\t// in\n    tag_332:\n      dup1\n      iszero\n      tag_333\n      jumpi\n      dup1\n      0x1f\n      lt\n      tag_334\n      jumpi\n      0x0100\n      dup1\n      dup4\n      sload\n      div\n      mul\n      dup4\n      mstore\n      swap2\n      0x20\n      add\n      swap2\n      jump(tag_333)\n    tag_334:\n      dup3\n      add\n      swap2\n      swap1\n      0x00\n      mstore\n      keccak256(0x00, 0x20)\n      swap1\n    tag_335:\n      dup2\n      sload\n      dup2\n      mstore\n      swap1\n      0x01\n      add\n      swap1\n      0x20\n      add\n      dup1\n      dup4\n      gt\n      tag_335\n      jumpi\n      dup3\n      swap1\n      sub\n      0x1f\n      and\n      dup3\n      add\n      swap2\n    tag_333:\n      pop\n      pop\n      pop\n      swap2\n      dup4\n      mstore\n      pop\n      pop\n      0x09\n      dup3\n      add\n      sload\n      0x20\n      swap1\n      swap2\n      add\n      swap1\n      0xff\n      and\n      0x0b\n      dup2\n      gt\n      iszero\n      tag_337\n      jumpi\n      tag_337\n      tag_258\n      jump\t// in\n    tag_337:\n      0x0b\n      dup2\n      gt\n      iszero\n      tag_339\n      jumpi\n      tag_339\n      tag_258\n      jump\t// in\n    tag_339:\n      dup2\n      mstore\n      0x20\n      add\n      0x0a\n      dup3\n      add\n      sload\n      dup2\n      mstore\n      pop\n      pop\n      dup2\n      mstore\n      0x20\n      add\n      swap1\n      0x01\n      add\n      swap1\n      jump(tag_318)\n    tag_319:\n      pop\n      pop\n      pop\n      pop\n      dup2\n      mstore\n      0x20\n      add\n      0x0d\n      dup3\n      add\n      dup1\n      sload\n      dup1\n      0x20\n      mul\n      0x20\n      add\n      mload(0x40)\n      swap1\n      dup2\n      add\n      0x40\n      mstore\n      dup1\n      swap3\n      swap2\n      swap1\n      dup2\n      dup2\n      mstore\n      0x20\n      add\n      dup3\n      dup1\n      sload\n      dup1\n      iszero\n      tag_340\n      jumpi\n      0x20\n      mul\n      dup3\n      add\n      swap2\n      swap1\n      0x00\n      mstore\n      keccak256(0x00, 0x20)\n      swap1\n    tag_341:\n      dup2\n      sload\n      sub(shl(0xa0, 0x01), 0x01)\n      and\n      dup2\n      mstore\n      0x01\n      swap1\n      swap2\n      add\n      swap1\n      0x20\n      add\n      dup1\n      dup4\n      gt\n      tag_341\n      jumpi\n    tag_340:\n      pop\n      pop\n      pop\n      pop\n      pop\n      dup2\n      mstore\n      0x20\n      add\n      0x0e\n      dup3\n      add\n      dup1\n      sload\n      dup1\n      0x20\n      mul\n      0x20\n      add\n      mload(0x40)\n      swap1\n      dup2\n      add\n      0x40\n      mstore\n      dup1\n      swap3\n      swap2\n      swap1\n      dup2\n      dup2\n      mstore\n      0x20\n      add\n      dup3\n      dup1\n      sload\n      dup1\n      iszero\n      tag_342\n      jumpi\n      0x20\n      mul\n      dup3\n      add\n      swap2\n      swap1\n      0x00\n      mstore\n      keccak256(0x00, 0x20)\n      swap1\n    tag_343:\n      dup2\n      sload\n      sub(shl(0xa0, 0x01), 0x01)\n      and\n      dup2\n      mstore\n      0x01\n      swap1\n      swap2\n      add\n      swap1\n      0x20\n      add\n      dup1\n      dup4\n      gt\n      tag_343\n      jumpi\n    tag_342:\n      pop\n      pop\n      pop\n      swap2\n      dup4\n      mstore\n      pop\n      pop\n      0x0f\n      dup3\n      add\n      sload\n      0x20\n      dup3\n      add\n      mstore\n      0x10\n      dup3\n      add\n      sload\n      0x40\n      dup3\n      add\n      mstore\n      0x11\n      dup3\n      add\n      sload\n      0x60\n      dup3\n      add\n      mstore\n      0x12\n      dup3\n      add\n      sload\n      0x80\n      dup3\n      add\n      mstore\n      0x13\n      dup3\n      add\n      sload\n      0xff\n      dup1\n      dup3\n      and\n      iszero\n      iszero\n      0xa0\n      dup5\n      add\n      mstore\n      0x0100\n      dup3\n      div\n      dup2\n      and\n      iszero\n      iszero\n      0xc0\n      dup5\n      add\n      mstore\n      0xe0\n      swap1\n      swap3\n      add\n      swap2\n      0x010000\n      swap1\n      swap2\n      div\n      and\n      0x07\n      dup2\n      gt\n      iszero\n      tag_345\n      jumpi\n      tag_345\n      tag_258\n      jump\t// in\n    tag_345:\n      0x07\n      dup2\n      gt\n      iszero\n      tag_347\n      jumpi\n      tag_347\n      tag_258\n      jump\t// in\n    tag_347:\n      swap1\n      mstore\n      pop\n      swap3\n        /* \"AmphiTrans.sol\":6782:6952  function getProjectOne(uint256 _index)... */\n      swap2\n      pop\n      pop\n      jump\t// out\n        /* \"AmphiTrans.sol\":13627:14053  function submitFileByTrans(... */\n    tag_109:\n        /* \"AmphiTrans.sol\":13796:13809  uint256 _time */\n      0x00\n        /* \"AmphiTrans.sol\":13838:13854  taskList[_index] */\n      dup5\n      dup2\n      mstore\n      0x20\n      dup2\n      swap1\n      mstore\n      0x40\n      swap1\n      keccak256\n        /* \"AmphiTrans.sol\":13838:13860  taskList[_index].tasks */\n      0x0c\n      add\n        /* \"AmphiTrans.sol\":13838:13872  taskList[_index].tasks[_fileIndex] */\n      dup1\n      sload\n        /* \"AmphiTrans.sol\":13812:13827  block.timestamp */\n      timestamp\n      swap2\n      dup3\n      swap2\n        /* \"AmphiTrans.sol\":13861:13871  _fileIndex */\n      dup6\n      swap1\n        /* \"AmphiTrans.sol\":13838:13872  taskList[_index].tasks[_fileIndex] */\n      dup2\n      lt\n      tag_354\n      jumpi\n      tag_354\n      tag_230\n      jump\t// in\n    tag_354:\n      0x00\n      swap2\n      dup3\n      mstore\n      0x20\n      dup1\n      dup4\n      keccak256\n        /* \"AmphiTrans.sol\":13838:13883  taskList[_index].tasks[_fileIndex].lastUpload */\n      0x0a\n        /* \"AmphiTrans.sol\":13838:13872  taskList[_index].tasks[_fileIndex] */\n      0x0b\n      swap1\n      swap4\n      mul\n      add\n        /* \"AmphiTrans.sol\":13838:13883  taskList[_index].tasks[_fileIndex].lastUpload */\n      swap2\n      swap1\n      swap2\n      add\n        /* \"AmphiTrans.sol\":13838:13891  taskList[_index].tasks[_fileIndex].lastUpload = _time */\n      swap3\n      swap1\n      swap3\n      sstore\n        /* \"AmphiTrans.sol\":13902:13919  transInfo[_index] */\n      dup7\n      dup2\n      mstore\n        /* \"AmphiTrans.sol\":13902:13911  transInfo */\n      0x02\n        /* \"AmphiTrans.sol\":13902:13919  transInfo[_index] */\n      dup3\n      mstore\n      0x40\n      dup1\n      dup3\n      keccak256\n      sub(shl(0xa0, 0x01), 0x01)\n        /* \"AmphiTrans.sol\":13902:13933  transInfo[_index][_taskerIndex] */\n      dup9\n      and\n      dup4\n      mstore\n      dup4\n      mstore\n      dup1\n      dup3\n      keccak256\n        /* \"AmphiTrans.sol\":13902:13950  transInfo[_index][_taskerIndex].info[_fileIndex] */\n      dup7\n      dup4\n      mstore\n        /* \"AmphiTrans.sol\":13902:13938  transInfo[_index][_taskerIndex].info */\n      0x01\n      swap1\n      dup2\n      add\n        /* \"AmphiTrans.sol\":13902:13950  transInfo[_index][_taskerIndex].info[_fileIndex] */\n      swap1\n      swap4\n      mstore\n      swap1\n      keccak256\n        /* \"AmphiTrans.sol\":13902:13955  transInfo[_index][_taskerIndex].info[_fileIndex].file */\n      add\n        /* \"AmphiTrans.sol\":13902:13963  transInfo[_index][_taskerIndex].info[_fileIndex].file = _file */\n      tag_356\n        /* \"AmphiTrans.sol\":13958:13963  _file */\n      dup4\n        /* \"AmphiTrans.sol\":13902:13955  transInfo[_index][_taskerIndex].info[_fileIndex].file */\n      dup3\n        /* \"AmphiTrans.sol\":13902:13963  transInfo[_index][_taskerIndex].info[_fileIndex].file = _file */\n      tag_233\n      jump\t// in\n    tag_356:\n      pop\n        /* \"AmphiTrans.sol\":13979:14045  submitFileEv(_index, _fileIndex, _time, _file, _taskerIndex, true) */\n      0x79d1efbc53e0b7b5b56c575cd2fd71b51f8d41409f12b1aba3471e6678906098\n        /* \"AmphiTrans.sol\":13992:13998  _index */\n      dup6\n        /* \"AmphiTrans.sol\":14000:14010  _fileIndex */\n      dup5\n        /* \"AmphiTrans.sol\":14012:14017  _time */\n      dup4\n        /* \"AmphiTrans.sol\":14019:14024  _file */\n      dup6\n        /* \"AmphiTrans.sol\":14026:14038  _taskerIndex */\n      dup9\n        /* \"AmphiTrans.sol\":14040:14044  true */\n      0x01\n        /* \"AmphiTrans.sol\":13979:14045  submitFileEv(_index, _fileIndex, _time, _file, _taskerIndex, true) */\n      mload(0x40)\n      tag_234\n      swap7\n      swap6\n      swap5\n      swap4\n      swap3\n      swap2\n      swap1\n      tag_235\n      jump\t// in\n        /* \"AmphiTrans.sol\":10166:10260  function addTransNumber(uint256 _index) external {... */\n    tag_112:\n        /* \"AmphiTrans.sol\":10226:10234  taskList */\n      0x00\n        /* \"AmphiTrans.sol\":10226:10242  taskList[_index] */\n      dup2\n      dup2\n      mstore\n      0x20\n      dup2\n      swap1\n      mstore\n      0x40\n      dup2\n      keccak256\n        /* \"AmphiTrans.sol\":10226:10250  taskList[_index].numberT */\n      0x11\n      add\n        /* \"AmphiTrans.sol\":10226:10252  taskList[_index].numberT++ */\n      dup1\n      sload\n      swap2\n      tag_359\n      dup4\n      tag_294\n      jump\t// in\n    tag_359:\n      swap2\n      swap1\n      pop\n      sstore\n      pop\n        /* \"AmphiTrans.sol\":10166:10260  function addTransNumber(uint256 _index) external {... */\n      pop\n      jump\t// out\n        /* \"AmphiTrans.sol\":1966:2072  function deductPay(address _tasker, uint256 _money) external {... */\n    tag_120:\n      sub(shl(0xa0, 0x01), 0x01)\n        /* \"AmphiTrans.sol\":2038:2054  payList[_tasker] */\n      dup3\n      and\n      0x00\n      swap1\n      dup2\n      mstore\n        /* \"AmphiTrans.sol\":2038:2045  payList */\n      0x01\n        /* \"AmphiTrans.sol\":2038:2054  payList[_tasker] */\n      0x20\n      mstore\n      0x40\n      dup2\n      keccak256\n        /* \"AmphiTrans.sol\":2038:2064  payList[_tasker] -= _money */\n      dup1\n      sload\n        /* \"AmphiTrans.sol\":2058:2064  _money */\n      dup4\n      swap3\n        /* \"AmphiTrans.sol\":2038:2054  payList[_tasker] */\n      swap1\n        /* \"AmphiTrans.sol\":2038:2064  payList[_tasker] -= _money */\n      tag_262\n      swap1\n        /* \"AmphiTrans.sol\":2058:2064  _money */\n      dup5\n      swap1\n        /* \"AmphiTrans.sol\":2038:2064  payList[_tasker] -= _money */\n      tag_363\n      jump\t// in\n        /* \"AmphiTrans.sol\":5790:6774  function getTransTaskInfo(uint256 _index, address _address)... */\n    tag_128:\n        /* \"AmphiTrans.sol\":5898:5928  LibProject.ReturnTasker memory */\n      tag_365\n      mload(0x40)\n      dup1\n      0x60\n      add\n      0x40\n      mstore\n      dup1\n      and(sub(shl(0xa0, 0x01), 0x01), 0x00)\n      dup2\n      mstore\n      0x20\n      add\n      0x60\n      dup2\n      mstore\n      0x20\n      add\n      0x60\n      dup2\n      mstore\n      pop\n      swap1\n      jump\n    tag_365:\n        /* \"AmphiTrans.sol\":5946:5988  LibProject.ReturnTasker memory _taskerInfo */\n      tag_368\n      mload(0x40)\n      dup1\n      0x60\n      add\n      0x40\n      mstore\n      dup1\n      and(sub(shl(0xa0, 0x01), 0x01), 0x00)\n      dup2\n      mstore\n      0x20\n      add\n      0x60\n      dup2\n      mstore\n      0x20\n      add\n      0x60\n      dup2\n      mstore\n      pop\n      swap1\n      jump\n    tag_368:\n      sub(shl(0xa0, 0x01), 0x01)\n        /* \"AmphiTrans.sol\":5999:6035  _taskerInfo.taskerAddress = _address */\n      dup4\n      and\n      dup1\n      dup3\n      mstore\n        /* \"AmphiTrans.sol\":5999:6024  _taskerInfo.taskerAddress */\n      0x00\n        /* \"AmphiTrans.sol\":6070:6087  transInfo[_index] */\n      dup6\n      dup2\n      mstore\n        /* \"AmphiTrans.sol\":6070:6079  transInfo */\n      0x02\n        /* \"AmphiTrans.sol\":6070:6087  transInfo[_index] */\n      0x20\n      swap1\n      dup2\n      mstore\n      0x40\n      dup1\n      dup4\n      keccak256\n        /* \"AmphiTrans.sol\":6070:6097  transInfo[_index][_address] */\n      swap4\n      dup4\n      mstore\n      swap3\n      dup2\n      mstore\n      swap1\n      dup3\n      swap1\n      keccak256\n        /* \"AmphiTrans.sol\":6046:6107  _taskerInfo.taskIndex = transInfo[_index][_address].taskIndex */\n      dup1\n      sload\n      dup4\n      mload\n      dup2\n      dup5\n      mul\n      dup2\n      add\n      dup5\n      add\n      swap1\n      swap5\n      mstore\n      dup1\n      dup5\n      mstore\n        /* \"AmphiTrans.sol\":6070:6097  transInfo[_index][_address] */\n      swap1\n      swap2\n        /* \"AmphiTrans.sol\":6046:6107  _taskerInfo.taskIndex = transInfo[_index][_address].taskIndex */\n      dup4\n      add\n        /* \"AmphiTrans.sol\":6070:6097  transInfo[_index][_address] */\n      dup3\n        /* \"AmphiTrans.sol\":6046:6107  _taskerInfo.taskIndex = transInfo[_index][_address].taskIndex */\n      dup3\n      dup1\n      iszero\n      tag_369\n      jumpi\n      0x20\n      mul\n      dup3\n      add\n      swap2\n      swap1\n      0x00\n      mstore\n      keccak256(0x00, 0x20)\n      swap1\n    tag_370:\n      dup2\n      sload\n      dup2\n      mstore\n      0x20\n      add\n      swap1\n      0x01\n      add\n      swap1\n      dup1\n      dup4\n      gt\n      tag_370\n      jumpi\n    tag_369:\n      pop\n      pop\n      pop\n      pop\n        /* \"AmphiTrans.sol\":6046:6067  _taskerInfo.taskIndex */\n      0x20\n      dup4\n      add\n        /* \"AmphiTrans.sol\":6046:6107  _taskerInfo.taskIndex = transInfo[_index][_address].taskIndex */\n      dup3\n      swap1\n      mstore\n      pop\n        /* \"AmphiTrans.sol\":6231:6259  _taskerInfo.taskIndex.length */\n      mload\n        /* \"AmphiTrans.sol\":6118:6179  LibProject.FileIndexInfo[]... */\n      0x00\n      swap1\n        /* \"AmphiTrans.sol\":6182:6274  new LibProject.FileIndexInfo[](... */\n      0xffffffffffffffff\n      dup2\n      gt\n      iszero\n      tag_372\n      jumpi\n      tag_372\n      tag_373\n      jump\t// in\n    tag_372:\n      mload(0x40)\n      swap1\n      dup1\n      dup3\n      mstore\n      dup1\n      0x20\n      mul\n      0x20\n      add\n      dup3\n      add\n      0x40\n      mstore\n      dup1\n      iszero\n      tag_374\n      jumpi\n      dup2\n      0x20\n      add\n    tag_375:\n      0x40\n      dup1\n      mload\n      dup1\n      dup3\n      add\n      swap1\n      swap2\n      mstore\n      0x00\n      dup2\n      mstore\n      0x60\n      0x20\n      dup3\n      add\n      mstore\n      dup2\n      mstore\n      0x20\n      add\n      swap1\n      0x01\n      swap1\n      sub\n      swap1\n      dup2\n      tag_375\n      jumpi\n      swap1\n      pop\n    tag_374:\n      pop\n        /* \"AmphiTrans.sol\":6118:6274  LibProject.FileIndexInfo[]... */\n      swap1\n      pop\n        /* \"AmphiTrans.sol\":6342:6351  uint256 q */\n      0x00\n        /* \"AmphiTrans.sol\":6337:6688  for (uint256 q = 0; q < _taskerInfo.taskIndex.length; q++) {... */\n    tag_378:\n        /* \"AmphiTrans.sol\":6361:6372  _taskerInfo */\n      dup3\n        /* \"AmphiTrans.sol\":6361:6382  _taskerInfo.taskIndex */\n      0x20\n      add\n      mload\n        /* \"AmphiTrans.sol\":6361:6389  _taskerInfo.taskIndex.length */\n      mload\n        /* \"AmphiTrans.sol\":6357:6358  q */\n      dup2\n        /* \"AmphiTrans.sol\":6357:6389  q < _taskerInfo.taskIndex.length */\n      lt\n        /* \"AmphiTrans.sol\":6337:6688  for (uint256 q = 0; q < _taskerInfo.taskIndex.length; q++) {... */\n      iszero\n      tag_379\n      jumpi\n        /* \"AmphiTrans.sol\":6437:6454  transInfo[_index] */\n      0x00\n      dup7\n      dup2\n      mstore\n        /* \"AmphiTrans.sol\":6437:6446  transInfo */\n      0x02\n        /* \"AmphiTrans.sol\":6437:6454  transInfo[_index] */\n      0x20\n      swap1\n      dup2\n      mstore\n      0x40\n      dup1\n      dup4\n      keccak256\n      sub(shl(0xa0, 0x01), 0x01)\n        /* \"AmphiTrans.sol\":6437:6464  transInfo[_index][_address] */\n      dup10\n      and\n      dup5\n      mstore\n      dup3\n      mstore\n      dup3\n      keccak256\n        /* \"AmphiTrans.sol\":6488:6509  _taskerInfo.taskIndex */\n      swap1\n      dup6\n      add\n      mload\n        /* \"AmphiTrans.sol\":6488:6512  _taskerInfo.taskIndex[q] */\n      dup1\n      mload\n        /* \"AmphiTrans.sol\":6437:6487  transInfo[_index][_address]... */\n      0x01\n      swap1\n      swap3\n      add\n      swap3\n        /* \"AmphiTrans.sol\":6437:6454  transInfo[_index] */\n      swap2\n        /* \"AmphiTrans.sol\":6510:6511  q */\n      dup5\n      swap1\n        /* \"AmphiTrans.sol\":6488:6512  _taskerInfo.taskIndex[q] */\n      dup2\n      lt\n      tag_382\n      jumpi\n      tag_382\n      tag_230\n      jump\t// in\n    tag_382:\n      0x20\n      mul\n      0x20\n      add\n      add\n      mload\n        /* \"AmphiTrans.sol\":6437:6513  transInfo[_index][_address]... */\n      dup2\n      mstore\n      0x20\n      add\n      swap1\n      dup2\n      mstore\n      0x20\n      add\n      0x00\n      keccak256\n        /* \"AmphiTrans.sol\":6437:6537  transInfo[_index][_address]... */\n      0x00\n      add\n      0x00\n      swap1\n      sload\n      swap1\n      0x0100\n      exp\n      swap1\n      div\n      0xff\n      and\n        /* \"AmphiTrans.sol\":6411:6425  _fileIndexInfo */\n      dup3\n        /* \"AmphiTrans.sol\":6426:6427  q */\n      dup3\n        /* \"AmphiTrans.sol\":6411:6428  _fileIndexInfo[q] */\n      dup2\n      mload\n      dup2\n      lt\n      tag_384\n      jumpi\n      tag_384\n      tag_230\n      jump\t// in\n    tag_384:\n      0x20\n      mul\n      0x20\n      add\n      add\n      mload\n        /* \"AmphiTrans.sol\":6411:6434  _fileIndexInfo[q].state */\n      0x00\n      add\n        /* \"AmphiTrans.sol\":6411:6537  _fileIndexInfo[q].state = transInfo[_index][_address]... */\n      swap1\n      0x04\n      dup2\n      gt\n      iszero\n      tag_386\n      jumpi\n      tag_386\n      tag_258\n      jump\t// in\n    tag_386:\n      swap1\n      dup2\n      0x04\n      dup2\n      gt\n      iszero\n      tag_388\n      jumpi\n      tag_388\n      tag_258\n      jump\t// in\n    tag_388:\n      swap1\n      mstore\n      pop\n        /* \"AmphiTrans.sol\":6577:6594  transInfo[_index] */\n      0x00\n      dup7\n      dup2\n      mstore\n        /* \"AmphiTrans.sol\":6577:6586  transInfo */\n      0x02\n        /* \"AmphiTrans.sol\":6577:6594  transInfo[_index] */\n      0x20\n      swap1\n      dup2\n      mstore\n      0x40\n      dup1\n      dup4\n      keccak256\n      sub(shl(0xa0, 0x01), 0x01)\n        /* \"AmphiTrans.sol\":6577:6604  transInfo[_index][_address] */\n      dup10\n      and\n      dup5\n      mstore\n      dup3\n      mstore\n      dup3\n      keccak256\n        /* \"AmphiTrans.sol\":6628:6649  _taskerInfo.taskIndex */\n      swap1\n      dup6\n      add\n      mload\n        /* \"AmphiTrans.sol\":6628:6652  _taskerInfo.taskIndex[q] */\n      dup1\n      mload\n        /* \"AmphiTrans.sol\":6577:6627  transInfo[_index][_address]... */\n      0x01\n      swap1\n      swap3\n      add\n      swap3\n        /* \"AmphiTrans.sol\":6577:6594  transInfo[_index] */\n      swap2\n        /* \"AmphiTrans.sol\":6650:6651  q */\n      dup5\n      swap1\n        /* \"AmphiTrans.sol\":6628:6652  _taskerInfo.taskIndex[q] */\n      dup2\n      lt\n      tag_390\n      jumpi\n      tag_390\n      tag_230\n      jump\t// in\n    tag_390:\n      0x20\n      mul\n      0x20\n      add\n      add\n      mload\n        /* \"AmphiTrans.sol\":6577:6653  transInfo[_index][_address]... */\n      dup2\n      mstore\n      0x20\n      add\n      swap1\n      dup2\n      mstore\n      0x20\n      add\n      0x00\n      keccak256\n        /* \"AmphiTrans.sol\":6577:6676  transInfo[_index][_address]... */\n      0x01\n      add\n        /* \"AmphiTrans.sol\":6552:6676  _fileIndexInfo[q].file = transInfo[_index][_address]... */\n      dup1\n      sload\n      tag_391\n      swap1\n      tag_241\n      jump\t// in\n    tag_391:\n      dup1\n      0x1f\n      add\n      0x20\n      dup1\n      swap2\n      div\n      mul\n      0x20\n      add\n      mload(0x40)\n      swap1\n      dup2\n      add\n      0x40\n      mstore\n      dup1\n      swap3\n      swap2\n      swap1\n      dup2\n      dup2\n      mstore\n      0x20\n      add\n      dup3\n      dup1\n      sload\n      tag_392\n      swap1\n      tag_241\n      jump\t// in\n    tag_392:\n      dup1\n      iszero\n      tag_393\n      jumpi\n      dup1\n      0x1f\n      lt\n      tag_394\n      jumpi\n      0x0100\n      dup1\n      dup4\n      sload\n      div\n      mul\n      dup4\n      mstore\n      swap2\n      0x20\n      add\n      swap2\n      jump(tag_393)\n    tag_394:\n      dup3\n      add\n      swap2\n      swap1\n      0x00\n      mstore\n      keccak256(0x00, 0x20)\n      swap1\n    tag_395:\n      dup2\n      sload\n      dup2\n      mstore\n      swap1\n      0x01\n      add\n      swap1\n      0x20\n      add\n      dup1\n      dup4\n      gt\n      tag_395\n      jumpi\n      dup3\n      swap1\n      sub\n      0x1f\n      and\n      dup3\n      add\n      swap2\n    tag_393:\n      pop\n      pop\n      pop\n      pop\n      pop\n        /* \"AmphiTrans.sol\":6552:6566  _fileIndexInfo */\n      dup3\n        /* \"AmphiTrans.sol\":6567:6568  q */\n      dup3\n        /* \"AmphiTrans.sol\":6552:6569  _fileIndexInfo[q] */\n      dup2\n      mload\n      dup2\n      lt\n      tag_397\n      jumpi\n      tag_397\n      tag_230\n      jump\t// in\n    tag_397:\n      0x20\n      mul\n      0x20\n      add\n      add\n      mload\n        /* \"AmphiTrans.sol\":6552:6574  _fileIndexInfo[q].file */\n      0x20\n      add\n        /* \"AmphiTrans.sol\":6552:6676  _fileIndexInfo[q].file = transInfo[_index][_address]... */\n      dup2\n      swap1\n      mstore\n      pop\n        /* \"AmphiTrans.sol\":6391:6394  q++ */\n      dup1\n      dup1\n      tag_398\n      swap1\n      tag_294\n      jump\t// in\n    tag_398:\n      swap2\n      pop\n      pop\n        /* \"AmphiTrans.sol\":6337:6688  for (uint256 q = 0; q < _taskerInfo.taskIndex.length; q++) {... */\n      jump(tag_378)\n    tag_379:\n      pop\n        /* \"AmphiTrans.sol\":6698:6720  _taskerInfo.taskerinfo */\n      0x40\n      dup3\n      add\n        /* \"AmphiTrans.sol\":6698:6737  _taskerInfo.taskerinfo = _fileIndexInfo */\n      mstore\n        /* \"AmphiTrans.sol\":6698:6720  _taskerInfo.taskerinfo */\n      swap4\n        /* \"AmphiTrans.sol\":5790:6774  function getTransTaskInfo(uint256 _index, address _address)... */\n      swap3\n      pop\n      pop\n      pop\n      jump\t// out\n        /* \"AmphiTrans.sol\":9726:9909  function changeTransActive(uint256 _index, bool _bool) external {... */\n    tag_134:\n        /* \"AmphiTrans.sol\":9801:9809  taskList */\n      0x00\n        /* \"AmphiTrans.sol\":9801:9817  taskList[_index] */\n      dup3\n      dup2\n      mstore\n      0x20\n      dup2\n      dup2\n      mstore\n      0x40\n      swap2\n      dup3\n      swap1\n      keccak256\n        /* \"AmphiTrans.sol\":9801:9831  taskList[_index].isTransActive */\n      0x13\n      add\n        /* \"AmphiTrans.sol\":9801:9839  taskList[_index].isTransActive = _bool */\n      dup1\n      sload\n      not(0xff)\n      and\n      dup5\n      iszero\n      iszero\n      swap1\n      dup2\n      or\n      swap1\n      swap2\n      sstore\n        /* \"AmphiTrans.sol\":9855:9901  changeTransActiveEv(_index, _bool, msg.sender) */\n      dup3\n      mload\n        /* \"#utility.yul\":31057:31082   */\n      dup6\n      dup2\n      mstore\n        /* \"#utility.yul\":31098:31116   */\n      swap2\n      dup3\n      add\n        /* \"#utility.yul\":31091:31141   */\n      mstore\n        /* \"AmphiTrans.sol\":9890:9900  msg.sender */\n      caller\n        /* \"#utility.yul\":31157:31175   */\n      swap2\n      dup2\n      add\n        /* \"#utility.yul\":31150:31233   */\n      swap2\n      swap1\n      swap2\n      mstore\n        /* \"AmphiTrans.sol\":9855:9901  changeTransActiveEv(_index, _bool, msg.sender) */\n      0x6505631a30f6259a8bbf6422cdc3bd467ddc256b547dad05c5d84abc34abfa18\n      swap1\n        /* \"#utility.yul\":31045:31047   */\n      0x60\n        /* \"#utility.yul\":31030:31048   */\n      add\n        /* \"AmphiTrans.sol\":9855:9901  changeTransActiveEv(_index, _bool, msg.sender) */\n      tag_267\n        /* \"#utility.yul\":30861:31239   */\n      jump\n        /* \"AmphiTrans.sol\":8251:8683  function changeTaskVfState(... */\n    tag_137:\n        /* \"AmphiTrans.sol\":8430:8444  vfInfo[_index] */\n      0x00\n      dup5\n      dup2\n      mstore\n        /* \"AmphiTrans.sol\":8430:8436  vfInfo */\n      0x03\n        /* \"AmphiTrans.sol\":8430:8444  vfInfo[_index] */\n      0x20\n      swap1\n      dup2\n      mstore\n      0x40\n      dup1\n      dup4\n      keccak256\n      sub(shl(0xa0, 0x01), 0x01)\n        /* \"AmphiTrans.sol\":8430:8458  vfInfo[_index][_taskerIndex] */\n      dup8\n      and\n      dup5\n      mstore\n      dup3\n      mstore\n      dup1\n      dup4\n      keccak256\n        /* \"AmphiTrans.sol\":8430:8475  vfInfo[_index][_taskerIndex].info[_fileIndex] */\n      dup6\n      dup5\n      mstore\n        /* \"AmphiTrans.sol\":8430:8463  vfInfo[_index][_taskerIndex].info */\n      0x01\n      swap1\n      dup2\n      add\n        /* \"AmphiTrans.sol\":8430:8475  vfInfo[_index][_taskerIndex].info[_fileIndex] */\n      swap1\n      swap3\n      mstore\n      swap1\n      swap2\n      keccak256\n        /* \"AmphiTrans.sol\":8430:8490  vfInfo[_index][_taskerIndex].info[_fileIndex].state = _state */\n      dup1\n      sload\n        /* \"AmphiTrans.sol\":8484:8490  _state */\n      dup4\n      swap3\n      not(0xff)\n        /* \"AmphiTrans.sol\":8430:8490  vfInfo[_index][_taskerIndex].info[_fileIndex].state = _state */\n      swap1\n      swap2\n      and\n      swap1\n        /* \"AmphiTrans.sol\":8484:8490  _state */\n      dup4\n        /* \"AmphiTrans.sol\":8430:8490  vfInfo[_index][_taskerIndex].info[_fileIndex].state = _state */\n      0x04\n      dup2\n      gt\n      iszero\n      tag_404\n      jumpi\n      tag_404\n      tag_258\n      jump\t// in\n    tag_404:\n      mul\n      or\n      swap1\n      sstore\n      pop\n        /* \"AmphiTrans.sol\":8506:8675  changeTaskerStateEv(... */\n      0x4b906571b20f3dcdf826b53f3c66528e252b2eb87de3cb812f18e6859e119344\n        /* \"AmphiTrans.sol\":8540:8546  _index */\n      dup5\n        /* \"AmphiTrans.sol\":8561:8573  _taskerIndex */\n      dup5\n        /* \"AmphiTrans.sol\":8588:8598  _fileIndex */\n      dup5\n        /* \"AmphiTrans.sol\":8613:8619  _state */\n      dup5\n        /* \"AmphiTrans.sol\":8634:8639  false */\n      0x00\n        /* \"AmphiTrans.sol\":8654:8664  msg.sender */\n      caller\n        /* \"AmphiTrans.sol\":8506:8675  changeTaskerStateEv(... */\n      mload(0x40)\n      tag_273\n      swap7\n      swap6\n      swap5\n      swap4\n      swap3\n      swap2\n      swap1\n      tag_274\n      jump\t// in\n        /* \"AmphiTrans.sol\":1686:1741  function addCount() external {... */\n    tag_139:\n        /* \"AmphiTrans.sol\":1728:1733  count */\n      0x04\n      0x00\n        /* \"AmphiTrans.sol\":1726:1733  ++count */\n      dup2\n      sload\n      tag_407\n      swap1\n      tag_294\n      jump\t// in\n    tag_407:\n      swap1\n      swap2\n      sstore\n      pop\n        /* \"AmphiTrans.sol\":1686:1741  function addCount() external {... */\n      jump\t// out\n        /* \"AmphiTrans.sol\":11158:12466  function addProject(LibProject.ProParm memory _t)... */\n    tag_147:\n        /* \"AmphiTrans.sol\":11269:11274  count */\n      0x04\n        /* \"AmphiTrans.sol\":11269:11276  count++ */\n      dup1\n      sload\n        /* \"AmphiTrans.sol\":11244:11251  uint256 */\n      0x00\n      swap2\n      dup3\n        /* \"AmphiTrans.sol\":11269:11276  count++ */\n      tag_410\n      dup4\n      tag_294\n      jump\t// in\n    tag_410:\n      swap1\n      swap2\n      sstore\n      pop\n      pop\n        /* \"AmphiTrans.sol\":11381:11386  count */\n      sload(0x04)\n        /* \"AmphiTrans.sol\":11331:11369  LibProject.TranslationPro storage _pro */\n      0x00\n        /* \"AmphiTrans.sol\":11372:11387  taskList[count] */\n      swap1\n      dup2\n      mstore\n      0x20\n      dup2\n      dup2\n      mstore\n      0x40\n      swap1\n      swap2\n      keccak256\n        /* \"AmphiTrans.sol\":11398:11421  _pro.buyer = msg.sender */\n      dup1\n      sload\n      0xffffffffffffffffffffffff0000000000000000000000000000000000000000\n      and\n        /* \"AmphiTrans.sol\":11411:11421  msg.sender */\n      caller\n        /* \"AmphiTrans.sol\":11398:11421  _pro.buyer = msg.sender */\n      or\n      dup2\n      sstore\n        /* \"AmphiTrans.sol\":11451:11465  _t.releaseTime */\n      dup4\n      mload\n        /* \"AmphiTrans.sol\":11398:11421  _pro.buyer = msg.sender */\n      0x01\n        /* \"AmphiTrans.sol\":11432:11448  _pro.releaseTime */\n      dup3\n      add\n        /* \"AmphiTrans.sol\":11432:11465  _pro.releaseTime = _t.releaseTime */\n      sstore\n        /* \"AmphiTrans.sol\":11493:11505  _t.introduce */\n      swap1\n      dup4\n      add\n      mload\n        /* \"AmphiTrans.sol\":11476:11490  _pro.introduce */\n      0x02\n      dup3\n      add\n      swap1\n        /* \"AmphiTrans.sol\":11476:11505  _pro.introduce = _t.introduce */\n      tag_411\n      swap1\n        /* \"AmphiTrans.sol\":11476:11490  _pro.introduce */\n      dup3\n        /* \"AmphiTrans.sol\":11476:11505  _pro.introduce = _t.introduce */\n      tag_233\n      jump\t// in\n    tag_411:\n      pop\n        /* \"AmphiTrans.sol\":11528:11535  _t.need */\n      0x40\n      dup4\n      add\n      mload\n        /* \"AmphiTrans.sol\":11516:11525  _pro.need */\n      0x03\n      dup3\n      add\n      swap1\n        /* \"AmphiTrans.sol\":11516:11535  _pro.need = _t.need */\n      tag_412\n      swap1\n        /* \"AmphiTrans.sol\":11516:11525  _pro.need */\n      dup3\n        /* \"AmphiTrans.sol\":11516:11535  _pro.need = _t.need */\n      tag_233\n      jump\t// in\n    tag_412:\n      pop\n        /* \"AmphiTrans.sol\":11562:11573  _t.deadline */\n      0x60\n      dup4\n      add\n      mload\n        /* \"AmphiTrans.sol\":11546:11559  _pro.deadline */\n      0x04\n      dup3\n      add\n        /* \"AmphiTrans.sol\":11546:11573  _pro.deadline = _t.deadline */\n      sstore\n        /* \"AmphiTrans.sol\":11606:11623  _t.sourceLanguage */\n      0x80\n      dup4\n      add\n      mload\n        /* \"AmphiTrans.sol\":11584:11603  _pro.sourceLanguage */\n      0x05\n      dup3\n      add\n        /* \"AmphiTrans.sol\":11584:11623  _pro.sourceLanguage = _t.sourceLanguage */\n      sstore\n        /* \"AmphiTrans.sol\":11654:11669  _t.goalLanguage */\n      0xa0\n      dup4\n      add\n      mload\n        /* \"AmphiTrans.sol\":11634:11651  _pro.goalLanguage */\n      0x06\n      dup3\n      add\n        /* \"AmphiTrans.sol\":11634:11669  _pro.goalLanguage = _t.goalLanguage */\n      sstore\n        /* \"AmphiTrans.sol\":11698:11711  _t.preferList */\n      0xc0\n      dup4\n      add\n      mload\n        /* \"AmphiTrans.sol\":11680:11711  _pro.preferList = _t.preferList */\n      dup1\n      mload\n      tag_413\n      swap2\n        /* \"AmphiTrans.sol\":11680:11695  _pro.preferList */\n      0x07\n      dup5\n      add\n      swap2\n        /* \"AmphiTrans.sol\":11680:11711  _pro.preferList = _t.preferList */\n      0x20\n      swap1\n      swap2\n      add\n      swap1\n      tag_279\n      jump\t// in\n    tag_413:\n      pop\n        /* \"AmphiTrans.sol\":11745:11763  _t.translationType */\n      0xe0\n      dup4\n      add\n      mload\n        /* \"AmphiTrans.sol\":11722:11742  _pro.translationType */\n      0x08\n      dup3\n      add\n        /* \"AmphiTrans.sol\":11722:11763  _pro.translationType = _t.translationType */\n      sstore\n        /* \"AmphiTrans.sol\":11790:11801  _t.workLoad */\n      0x0100\n      dup1\n      dup5\n      add\n      mload\n        /* \"AmphiTrans.sol\":11774:11787  _pro.workLoad */\n      0x09\n      dup4\n      add\n        /* \"AmphiTrans.sol\":11774:11801  _pro.workLoad = _t.workLoad */\n      sstore\n        /* \"AmphiTrans.sol\":11826:11835  _t.bounty */\n      0x0160\n      dup5\n      add\n      mload\n        /* \"AmphiTrans.sol\":11812:11823  _pro.bounty */\n      0x0b\n      dup4\n      add\n        /* \"AmphiTrans.sol\":11812:11835  _pro.bounty = _t.bounty */\n      sstore\n        /* \"AmphiTrans.sol\":11869:11887  _t.isNonDisclosure */\n      0x0120\n      dup5\n      add\n      mload\n        /* \"AmphiTrans.sol\":11846:11866  _pro.isNonDisclosure */\n      0x0a\n      dup4\n      add\n        /* \"AmphiTrans.sol\":11846:11887  _pro.isNonDisclosure = _t.isNonDisclosure */\n      dup1\n      sload\n        /* \"AmphiTrans.sol\":11917:11931  _t.isCustomize */\n      0x0140\n      dup8\n      add\n      mload\n        /* \"AmphiTrans.sol\":11898:11931  _pro.isCustomize = _t.isCustomize */\n      iszero\n      dup1\n      iszero\n      swap1\n      swap5\n      mul\n      0xffffffffffffffffffffffffffffffffffffffffffffffffffffffffffff00ff\n        /* \"AmphiTrans.sol\":11846:11887  _pro.isNonDisclosure = _t.isNonDisclosure */\n      swap4\n      iszero\n      iszero\n        /* \"AmphiTrans.sol\":11898:11931  _pro.isCustomize = _t.isCustomize */\n      swap4\n      swap1\n      swap4\n      and\n      0xffffffffffffffffffffffffffffffffffffffffffffffffffffffffffff0000\n      swap1\n      swap2\n      and\n      or\n      swap2\n      swap1\n      swap2\n      or\n      swap1\n      sstore\n        /* \"AmphiTrans.sol\":11942:12132  if (_t.isCustomize) {... */\n      tag_414\n      jumpi\n        /* \"AmphiTrans.sol\":11989:11997  _t.tasks */\n      0x0180\n      dup4\n      add\n      mload\n        /* \"AmphiTrans.sol\":11989:12004  _t.tasks.length */\n      mload\n        /* \"AmphiTrans.sol\":11977:11986  _pro.maxT */\n      0x0f\n      dup3\n      add\n        /* \"AmphiTrans.sol\":11977:12004  _pro.maxT = _t.tasks.length */\n      dup2\n      swap1\n      sstore\n        /* \"AmphiTrans.sol\":12019:12028  _pro.maxV */\n      0x10\n      dup3\n      add\n        /* \"AmphiTrans.sol\":12019:12046  _pro.maxV = _t.tasks.length */\n      sstore\n        /* \"AmphiTrans.sol\":11942:12132  if (_t.isCustomize) {... */\n      jump(tag_415)\n    tag_414:\n        /* \"AmphiTrans.sol\":12091:12092  1 */\n      0x01\n        /* \"AmphiTrans.sol\":12079:12088  _pro.maxT */\n      0x0f\n      dup3\n      add\n        /* \"AmphiTrans.sol\":12079:12092  _pro.maxT = 1 */\n      dup2\n      swap1\n      sstore\n        /* \"AmphiTrans.sol\":12107:12116  _pro.maxV */\n      0x10\n      dup3\n      add\n        /* \"AmphiTrans.sol\":12107:12120  _pro.maxV = 1 */\n      sstore\n        /* \"AmphiTrans.sol\":11942:12132  if (_t.isCustomize) {... */\n    tag_415:\n        /* \"AmphiTrans.sol\":12202:12220  _pro.isTransActive */\n      0x13\n      dup2\n      add\n        /* \"AmphiTrans.sol\":12202:12227  _pro.isTransActive = true */\n      dup1\n      sload\n        /* \"AmphiTrans.sol\":12238:12261  _pro.isVerActive = true */\n      0xffffffffffffffffffffffffffffffffffffffffffffffffffffffffffff0000\n      and\n      0x0101\n      or\n      swap1\n      sstore\n      0x00\n        /* \"AmphiTrans.sol\":12272:12436  for (uint256 i = 0; i < _t.tasks.length; i++) {... */\n    tag_416:\n        /* \"AmphiTrans.sol\":12296:12298  _t */\n      dup4\n        /* \"AmphiTrans.sol\":12296:12304  _t.tasks */\n      0x0180\n      add\n      mload\n        /* \"AmphiTrans.sol\":12296:12311  _t.tasks.length */\n      mload\n        /* \"AmphiTrans.sol\":12292:12293  i */\n      dup2\n        /* \"AmphiTrans.sol\":12292:12311  i < _t.tasks.length */\n      lt\n        /* \"AmphiTrans.sol\":12272:12436  for (uint256 i = 0; i < _t.tasks.length; i++) {... */\n      iszero\n      tag_417\n      jumpi\n        /* \"AmphiTrans.sol\":12353:12381  LibProject.FileState.Waiting */\n      0x00\n        /* \"AmphiTrans.sol\":12333:12335  _t */\n      dup5\n        /* \"AmphiTrans.sol\":12333:12341  _t.tasks */\n      0x0180\n      add\n      mload\n        /* \"AmphiTrans.sol\":12342:12343  i */\n      dup3\n        /* \"AmphiTrans.sol\":12333:12344  _t.tasks[i] */\n      dup2\n      mload\n      dup2\n      lt\n      tag_420\n      jumpi\n      tag_420\n      tag_230\n      jump\t// in\n    tag_420:\n      0x20\n      mul\n      0x20\n      add\n      add\n      mload\n        /* \"AmphiTrans.sol\":12333:12350  _t.tasks[i].state */\n      0x60\n      add\n        /* \"AmphiTrans.sol\":12333:12381  _t.tasks[i].state = LibProject.FileState.Waiting */\n      swap1\n      0x0b\n      dup2\n      gt\n      iszero\n      tag_422\n      jumpi\n      tag_422\n      tag_258\n      jump\t// in\n    tag_422:\n      swap1\n      dup2\n      0x0b\n      dup2\n      gt\n      iszero\n      tag_424\n      jumpi\n      tag_424\n      tag_258\n      jump\t// in\n    tag_424:\n      dup2\n      mstore\n      pop\n      pop\n        /* \"AmphiTrans.sol\":12396:12400  _pro */\n      dup2\n        /* \"AmphiTrans.sol\":12396:12406  _pro.tasks */\n      0x0c\n      add\n        /* \"AmphiTrans.sol\":12412:12414  _t */\n      dup5\n        /* \"AmphiTrans.sol\":12412:12420  _t.tasks */\n      0x0180\n      add\n      mload\n        /* \"AmphiTrans.sol\":12421:12422  i */\n      dup3\n        /* \"AmphiTrans.sol\":12412:12423  _t.tasks[i] */\n      dup2\n      mload\n      dup2\n      lt\n      tag_426\n      jumpi\n      tag_426\n      tag_230\n      jump\t// in\n    tag_426:\n      0x20\n      swap1\n      dup2\n      mul\n      swap2\n      swap1\n      swap2\n      add\n      dup2\n      add\n      mload\n        /* \"AmphiTrans.sol\":12396:12424  _pro.tasks.push(_t.tasks[i]) */\n      dup3\n      sload\n      0x01\n      dup2\n      add\n      dup5\n      sstore\n      0x00\n      swap4\n      dup5\n      mstore\n      swap2\n      swap1\n      swap3\n      keccak256\n      dup3\n      mload\n      dup1\n      mload\n      0x0b\n      swap1\n      swap4\n      mul\n      swap1\n      swap2\n      add\n      swap2\n      dup3\n      swap1\n      dup2\n      swap1\n      tag_428\n      swap1\n      dup3\n      tag_233\n      jump\t// in\n    tag_428:\n      pop\n      0x20\n      dup3\n      add\n      mload\n      0x01\n      dup3\n      add\n      sstore\n      0x40\n      dup3\n      add\n      mload\n      0x02\n      dup3\n      add\n      sstore\n      0x60\n      dup3\n      add\n      mload\n      0x03\n      dup3\n      add\n      sstore\n      0x80\n      dup3\n      add\n      mload\n      0x04\n      dup3\n      add\n      sstore\n      0xa0\n      dup3\n      add\n      mload\n      0x05\n      dup3\n      add\n      sstore\n      0xc0\n      dup3\n      add\n      mload\n      0x06\n      dup3\n      add\n      swap1\n      tag_429\n      swap1\n      dup3\n      tag_233\n      jump\t// in\n    tag_429:\n      pop\n      pop\n      pop\n      0x20\n      dup3\n      add\n      mload\n      0x07\n      dup3\n      add\n      sstore\n      0x40\n      dup3\n      add\n      mload\n      0x08\n      dup3\n      add\n      swap1\n      tag_430\n      swap1\n      dup3\n      tag_233\n      jump\t// in\n    tag_430:\n      pop\n      0x60\n      dup3\n      add\n      mload\n      0x09\n      dup3\n      add\n      dup1\n      sload\n      not(0xff)\n      and\n      0x01\n      dup4\n      0x0b\n      dup2\n      gt\n      iszero\n      tag_432\n      jumpi\n      tag_432\n      tag_258\n      jump\t// in\n    tag_432:\n      mul\n      or\n      swap1\n      sstore\n      pop\n      0x80\n      dup3\n      add\n      mload\n      dup2\n      0x0a\n      add\n      sstore\n      pop\n      pop\n        /* \"AmphiTrans.sol\":12313:12316  i++ */\n      dup1\n      dup1\n      tag_433\n      swap1\n      tag_294\n      jump\t// in\n    tag_433:\n      swap2\n      pop\n      pop\n        /* \"AmphiTrans.sol\":12272:12436  for (uint256 i = 0; i < _t.tasks.length; i++) {... */\n      jump(tag_416)\n    tag_417:\n      pop\n      pop\n        /* \"AmphiTrans.sol\":12453:12458  count */\n      sload(0x04)\n      swap3\n        /* \"AmphiTrans.sol\":11158:12466  function addProject(LibProject.ProParm memory _t)... */\n      swap2\n      pop\n      pop\n      jump\t// out\n        /* \"AmphiTrans.sol\":7001:7921  function getVfTaskInfo(uint256 _index, address _address)... */\n    tag_159:\n        /* \"AmphiTrans.sol\":7106:7136  LibProject.ReturnTasker memory */\n      tag_436\n      mload(0x40)\n      dup1\n      0x60\n      add\n      0x40\n      mstore\n      dup1\n      and(sub(shl(0xa0, 0x01), 0x01), 0x00)\n      dup2\n      mstore\n      0x20\n      add\n      0x60\n      dup2\n      mstore\n      0x20\n      add\n      0x60\n      dup2\n      mstore\n      pop\n      swap1\n      jump\n    tag_436:\n        /* \"AmphiTrans.sol\":7154:7196  LibProject.ReturnTasker memory _taskerInfo */\n      tag_438\n      mload(0x40)\n      dup1\n      0x60\n      add\n      0x40\n      mstore\n      dup1\n      and(sub(shl(0xa0, 0x01), 0x01), 0x00)\n      dup2\n      mstore\n      0x20\n      add\n      0x60\n      dup2\n      mstore\n      0x20\n      add\n      0x60\n      dup2\n      mstore\n      pop\n      swap1\n      jump\n    tag_438:\n      sub(shl(0xa0, 0x01), 0x01)\n        /* \"AmphiTrans.sol\":7207:7243  _taskerInfo.taskerAddress = _address */\n      dup4\n      and\n      dup1\n      dup3\n      mstore\n        /* \"AmphiTrans.sol\":7207:7232  _taskerInfo.taskerAddress */\n      0x00\n        /* \"AmphiTrans.sol\":7278:7292  vfInfo[_index] */\n      dup6\n      dup2\n      mstore\n        /* \"AmphiTrans.sol\":7278:7284  vfInfo */\n      0x03\n        /* \"AmphiTrans.sol\":7278:7292  vfInfo[_index] */\n      0x20\n      swap1\n      dup2\n      mstore\n      0x40\n      dup1\n      dup4\n      keccak256\n        /* \"AmphiTrans.sol\":7278:7302  vfInfo[_index][_address] */\n      swap4\n      dup4\n      mstore\n      swap3\n      dup2\n      mstore\n      swap1\n      dup3\n      swap1\n      keccak256\n        /* \"AmphiTrans.sol\":7254:7312  _taskerInfo.taskIndex = vfInfo[_index][_address].taskIndex */\n      dup1\n      sload\n      dup4\n      mload\n      dup2\n      dup5\n      mul\n      dup2\n      add\n      dup5\n      add\n      swap1\n      swap5\n      mstore\n      dup1\n      dup5\n      mstore\n        /* \"AmphiTrans.sol\":7278:7302  vfInfo[_index][_address] */\n      swap1\n      swap2\n        /* \"AmphiTrans.sol\":7254:7312  _taskerInfo.taskIndex = vfInfo[_index][_address].taskIndex */\n      dup4\n      add\n        /* \"AmphiTrans.sol\":7278:7302  vfInfo[_index][_address] */\n      dup3\n        /* \"AmphiTrans.sol\":7254:7312  _taskerInfo.taskIndex = vfInfo[_index][_address].taskIndex */\n      dup3\n      dup1\n      iszero\n      tag_439\n      jumpi\n      0x20\n      mul\n      dup3\n      add\n      swap2\n      swap1\n      0x00\n      mstore\n      keccak256(0x00, 0x20)\n      swap1\n    tag_440:\n      dup2\n      sload\n      dup2\n      mstore\n      0x20\n      add\n      swap1\n      0x01\n      add\n      swap1\n      dup1\n      dup4\n      gt\n      tag_440\n      jumpi\n    tag_439:\n      pop\n      pop\n      pop\n      pop\n        /* \"AmphiTrans.sol\":7254:7275  _taskerInfo.taskIndex */\n      0x20\n      dup4\n      add\n        /* \"AmphiTrans.sol\":7254:7312  _taskerInfo.taskIndex = vfInfo[_index][_address].taskIndex */\n      dup3\n      swap1\n      mstore\n      pop\n        /* \"AmphiTrans.sol\":7436:7464  _taskerInfo.taskIndex.length */\n      mload\n        /* \"AmphiTrans.sol\":7323:7384  LibProject.FileIndexInfo[]... */\n      0x00\n      swap1\n        /* \"AmphiTrans.sol\":7387:7479  new LibProject.FileIndexInfo[](... */\n      0xffffffffffffffff\n      dup2\n      gt\n      iszero\n      tag_442\n      jumpi\n      tag_442\n      tag_373\n      jump\t// in\n    tag_442:\n      mload(0x40)\n      swap1\n      dup1\n      dup3\n      mstore\n      dup1\n      0x20\n      mul\n      0x20\n      add\n      dup3\n      add\n      0x40\n      mstore\n      dup1\n      iszero\n      tag_443\n      jumpi\n      dup2\n      0x20\n      add\n    tag_444:\n      0x40\n      dup1\n      mload\n      dup1\n      dup3\n      add\n      swap1\n      swap2\n      mstore\n      0x00\n      dup2\n      mstore\n      0x60\n      0x20\n      dup3\n      add\n      mstore\n      dup2\n      mstore\n      0x20\n      add\n      swap1\n      0x01\n      swap1\n      sub\n      swap1\n      dup2\n      tag_444\n      jumpi\n      swap1\n      pop\n    tag_443:\n      pop\n        /* \"AmphiTrans.sol\":7323:7479  LibProject.FileIndexInfo[]... */\n      swap1\n      pop\n        /* \"AmphiTrans.sol\":7495:7504  uint256 q */\n      0x00\n        /* \"AmphiTrans.sol\":7490:7835  for (uint256 q = 0; q < _taskerInfo.taskIndex.length; q++) {... */\n    tag_446:\n        /* \"AmphiTrans.sol\":7514:7525  _taskerInfo */\n      dup3\n        /* \"AmphiTrans.sol\":7514:7535  _taskerInfo.taskIndex */\n      0x20\n      add\n      mload\n        /* \"AmphiTrans.sol\":7514:7542  _taskerInfo.taskIndex.length */\n      mload\n        /* \"AmphiTrans.sol\":7510:7511  q */\n      dup2\n        /* \"AmphiTrans.sol\":7510:7542  q < _taskerInfo.taskIndex.length */\n      lt\n        /* \"AmphiTrans.sol\":7490:7835  for (uint256 q = 0; q < _taskerInfo.taskIndex.length; q++) {... */\n      iszero\n      tag_379\n      jumpi\n        /* \"AmphiTrans.sol\":7590:7604  vfInfo[_index] */\n      0x00\n      dup7\n      dup2\n      mstore\n        /* \"AmphiTrans.sol\":7590:7596  vfInfo */\n      0x03\n        /* \"AmphiTrans.sol\":7590:7604  vfInfo[_index] */\n      0x20\n      swap1\n      dup2\n      mstore\n      0x40\n      dup1\n      dup4\n      keccak256\n      sub(shl(0xa0, 0x01), 0x01)\n        /* \"AmphiTrans.sol\":7590:7614  vfInfo[_index][_address] */\n      dup10\n      and\n      dup5\n      mstore\n      dup3\n      mstore\n      dup3\n      keccak256\n        /* \"AmphiTrans.sol\":7638:7659  _taskerInfo.taskIndex */\n      swap1\n      dup6\n      add\n      mload\n        /* \"AmphiTrans.sol\":7638:7662  _taskerInfo.taskIndex[q] */\n      dup1\n      mload\n        /* \"AmphiTrans.sol\":7590:7637  vfInfo[_index][_address]... */\n      0x01\n      swap1\n      swap3\n      add\n      swap3\n        /* \"AmphiTrans.sol\":7590:7604  vfInfo[_index] */\n      swap2\n        /* \"AmphiTrans.sol\":7660:7661  q */\n      dup5\n      swap1\n        /* \"AmphiTrans.sol\":7638:7662  _taskerInfo.taskIndex[q] */\n      dup2\n      lt\n      tag_450\n      jumpi\n      tag_450\n      tag_230\n      jump\t// in\n    tag_450:\n      0x20\n      mul\n      0x20\n      add\n      add\n      mload\n        /* \"AmphiTrans.sol\":7590:7663  vfInfo[_index][_address]... */\n      dup2\n      mstore\n      0x20\n      add\n      swap1\n      dup2\n      mstore\n      0x20\n      add\n      0x00\n      keccak256\n        /* \"AmphiTrans.sol\":7590:7687  vfInfo[_index][_address]... */\n      0x00\n      add\n      0x00\n      swap1\n      sload\n      swap1\n      0x0100\n      exp\n      swap1\n      div\n      0xff\n      and\n        /* \"AmphiTrans.sol\":7564:7578  _fileIndexInfo */\n      dup3\n        /* \"AmphiTrans.sol\":7579:7580  q */\n      dup3\n        /* \"AmphiTrans.sol\":7564:7581  _fileIndexInfo[q] */\n      dup2\n      mload\n      dup2\n      lt\n      tag_452\n      jumpi\n      tag_452\n      tag_230\n      jump\t// in\n    tag_452:\n      0x20\n      mul\n      0x20\n      add\n      add\n      mload\n        /* \"AmphiTrans.sol\":7564:7587  _fileIndexInfo[q].state */\n      0x00\n      add\n        /* \"AmphiTrans.sol\":7564:7687  _fileIndexInfo[q].state = vfInfo[_index][_address]... */\n      swap1\n      0x04\n      dup2\n      gt\n      iszero\n      tag_454\n      jumpi\n      tag_454\n      tag_258\n      jump\t// in\n    tag_454:\n      swap1\n      dup2\n      0x04\n      dup2\n      gt\n      iszero\n      tag_456\n      jumpi\n      tag_456\n      tag_258\n      jump\t// in\n    tag_456:\n      swap1\n      mstore\n      pop\n        /* \"AmphiTrans.sol\":7727:7741  vfInfo[_index] */\n      0x00\n      dup7\n      dup2\n      mstore\n        /* \"AmphiTrans.sol\":7727:7733  vfInfo */\n      0x03\n        /* \"AmphiTrans.sol\":7727:7741  vfInfo[_index] */\n      0x20\n      swap1\n      dup2\n      mstore\n      0x40\n      dup1\n      dup4\n      keccak256\n      sub(shl(0xa0, 0x01), 0x01)\n        /* \"AmphiTrans.sol\":7727:7751  vfInfo[_index][_address] */\n      dup10\n      and\n      dup5\n      mstore\n      dup3\n      mstore\n      dup3\n      keccak256\n        /* \"AmphiTrans.sol\":7775:7796  _taskerInfo.taskIndex */\n      swap1\n      dup6\n      add\n      mload\n        /* \"AmphiTrans.sol\":7775:7799  _taskerInfo.taskIndex[q] */\n      dup1\n      mload\n        /* \"AmphiTrans.sol\":7727:7774  vfInfo[_index][_address]... */\n      0x01\n      swap1\n      swap3\n      add\n      swap3\n        /* \"AmphiTrans.sol\":7727:7741  vfInfo[_index] */\n      swap2\n        /* \"AmphiTrans.sol\":7797:7798  q */\n      dup5\n      swap1\n        /* \"AmphiTrans.sol\":7775:7799  _taskerInfo.taskIndex[q] */\n      dup2\n      lt\n      tag_458\n      jumpi\n      tag_458\n      tag_230\n      jump\t// in\n    tag_458:\n      0x20\n      mul\n      0x20\n      add\n      add\n      mload\n        /* \"AmphiTrans.sol\":7727:7800  vfInfo[_index][_address]... */\n      dup2\n      mstore\n      0x20\n      add\n      swap1\n      dup2\n      mstore\n      0x20\n      add\n      0x00\n      keccak256\n        /* \"AmphiTrans.sol\":7727:7823  vfInfo[_index][_address]... */\n      0x01\n      add\n        /* \"AmphiTrans.sol\":7702:7823  _fileIndexInfo[q].file = vfInfo[_index][_address]... */\n      dup1\n      sload\n      tag_459\n      swap1\n      tag_241\n      jump\t// in\n    tag_459:\n      dup1\n      0x1f\n      add\n      0x20\n      dup1\n      swap2\n      div\n      mul\n      0x20\n      add\n      mload(0x40)\n      swap1\n      dup2\n      add\n      0x40\n      mstore\n      dup1\n      swap3\n      swap2\n      swap1\n      dup2\n      dup2\n      mstore\n      0x20\n      add\n      dup3\n      dup1\n      sload\n      tag_460\n      swap1\n      tag_241\n      jump\t// in\n    tag_460:\n      dup1\n      iszero\n      tag_461\n      jumpi\n      dup1\n      0x1f\n      lt\n      tag_462\n      jumpi\n      0x0100\n      dup1\n      dup4\n      sload\n      div\n      mul\n      dup4\n      mstore\n      swap2\n      0x20\n      add\n      swap2\n      jump(tag_461)\n    tag_462:\n      dup3\n      add\n      swap2\n      swap1\n      0x00\n      mstore\n      keccak256(0x00, 0x20)\n      swap1\n    tag_463:\n      dup2\n      sload\n      dup2\n      mstore\n      swap1\n      0x01\n      add\n      swap1\n      0x20\n      add\n      dup1\n      dup4\n      gt\n      tag_463\n      jumpi\n      dup3\n      swap1\n      sub\n      0x1f\n      and\n      dup3\n      add\n      swap2\n    tag_461:\n      pop\n      pop\n      pop\n      pop\n      pop\n        /* \"AmphiTrans.sol\":7702:7716  _fileIndexInfo */\n      dup3\n        /* \"AmphiTrans.sol\":7717:7718  q */\n      dup3\n        /* \"AmphiTrans.sol\":7702:7719  _fileIndexInfo[q] */\n      dup2\n      mload\n      dup2\n      lt\n      tag_465\n      jumpi\n      tag_465\n      tag_230\n      jump\t// in\n    tag_465:\n      0x20\n      mul\n      0x20\n      add\n      add\n      mload\n        /* \"AmphiTrans.sol\":7702:7724  _fileIndexInfo[q].file */\n      0x20\n      add\n        /* \"AmphiTrans.sol\":7702:7823  _fileIndexInfo[q].file = vfInfo[_index][_address]... */\n      dup2\n      swap1\n      mstore\n      pop\n        /* \"AmphiTrans.sol\":7544:7547  q++ */\n      dup1\n      dup1\n      tag_466\n      swap1\n      tag_294\n      jump\t// in\n    tag_466:\n      swap2\n      pop\n      pop\n        /* \"AmphiTrans.sol\":7490:7835  for (uint256 q = 0; q < _taskerInfo.taskIndex.length; q++) {... */\n      jump(tag_446)\n        /* \"AmphiTrans.sol\":2251:2529  function isFull(uint256 _index, bool _isTrans) public view returns (bool) {... */\n    tag_163:\n        /* \"AmphiTrans.sol\":2319:2323  bool */\n      0x00\n        /* \"AmphiTrans.sol\":2340:2348  _isTrans */\n      dup2\n        /* \"AmphiTrans.sol\":2336:2522  if (_isTrans) {... */\n      iszero\n      tag_468\n      jumpi\n      pop\n        /* \"AmphiTrans.sol\":2397:2405  taskList */\n      0x00\n        /* \"AmphiTrans.sol\":2397:2413  taskList[_index] */\n      dup3\n      dup2\n      mstore\n      0x20\n      dup2\n      swap1\n      mstore\n      0x40\n      swap1\n      keccak256\n        /* \"AmphiTrans.sol\":2397:2421  taskList[_index].numberT */\n      0x11\n      dup2\n      add\n      sload\n        /* \"AmphiTrans.sol\":2372:2393  taskList[_index].maxT */\n      0x0f\n      swap1\n      swap2\n      add\n      sload\n        /* \"AmphiTrans.sol\":2372:2421  taskList[_index].maxT <= taskList[_index].numberT */\n      gt\n      iszero\n        /* \"AmphiTrans.sol\":2365:2421  return taskList[_index].maxT <= taskList[_index].numberT */\n      jump(tag_269)\n        /* \"AmphiTrans.sol\":2336:2522  if (_isTrans) {... */\n    tag_468:\n      pop\n        /* \"AmphiTrans.sol\":2486:2494  taskList */\n      0x00\n        /* \"AmphiTrans.sol\":2486:2502  taskList[_index] */\n      dup3\n      dup2\n      mstore\n      0x20\n      dup2\n      swap1\n      mstore\n      0x40\n      swap1\n      keccak256\n        /* \"AmphiTrans.sol\":2486:2510  taskList[_index].numberV */\n      0x12\n      dup2\n      add\n      sload\n        /* \"AmphiTrans.sol\":2461:2482  taskList[_index].maxV */\n      0x10\n      swap1\n      swap2\n      add\n      sload\n        /* \"AmphiTrans.sol\":2461:2510  taskList[_index].maxV <= taskList[_index].numberV */\n      gt\n      iszero\n        /* \"AmphiTrans.sol\":2454:2510  return taskList[_index].maxV <= taskList[_index].numberV */\n      jump(tag_269)\n        /* \"AmphiTrans.sol\":4056:4979  function overTimeTasker(... */\n    tag_168:\n        /* \"AmphiTrans.sol\":4188:4204  uint256[] memory */\n      0x60\n        /* \"AmphiTrans.sol\":4206:4213  uint256 */\n      0x00\n        /* \"AmphiTrans.sol\":4226:4254  uint256[] memory _filesIndex */\n      0x60\n        /* \"AmphiTrans.sol\":4265:4287  uint256[] memory _list */\n      dup1\n        /* \"AmphiTrans.sol\":4298:4311  uint256 money */\n      0x00\n        /* \"AmphiTrans.sol\":4322:4331  uint256 q */\n      dup1\n        /* \"AmphiTrans.sol\":4346:4354  _isTrans */\n      dup7\n        /* \"AmphiTrans.sol\":4342:4523  if (_isTrans) {... */\n      iszero\n      tag_471\n      jumpi\n        /* \"AmphiTrans.sol\":4385:4402  transInfo[_index] */\n      0x00\n      dup10\n      dup2\n      mstore\n        /* \"AmphiTrans.sol\":4385:4394  transInfo */\n      0x02\n        /* \"AmphiTrans.sol\":4385:4402  transInfo[_index] */\n      0x20\n      swap1\n      dup2\n      mstore\n      0x40\n      dup1\n      dup4\n      keccak256\n      sub(shl(0xa0, 0x01), 0x01)\n        /* \"AmphiTrans.sol\":4385:4416  transInfo[_index][_taskerIndex] */\n      dup13\n      and\n      dup5\n      mstore\n      dup3\n      mstore\n      swap2\n      dup3\n      swap1\n      keccak256\n        /* \"AmphiTrans.sol\":4371:4426  _filesIndex = transInfo[_index][_taskerIndex].taskIndex */\n      dup1\n      sload\n      dup4\n      mload\n      dup2\n      dup5\n      mul\n      dup2\n      add\n      dup5\n      add\n      swap1\n      swap5\n      mstore\n      dup1\n      dup5\n      mstore\n        /* \"AmphiTrans.sol\":4385:4416  transInfo[_index][_taskerIndex] */\n      swap1\n      swap2\n        /* \"AmphiTrans.sol\":4371:4426  _filesIndex = transInfo[_index][_taskerIndex].taskIndex */\n      dup4\n      add\n        /* \"AmphiTrans.sol\":4385:4416  transInfo[_index][_taskerIndex] */\n      dup3\n        /* \"AmphiTrans.sol\":4371:4426  _filesIndex = transInfo[_index][_taskerIndex].taskIndex */\n      dup3\n      dup1\n      iszero\n      tag_472\n      jumpi\n      0x20\n      mul\n      dup3\n      add\n      swap2\n      swap1\n      0x00\n      mstore\n      keccak256(0x00, 0x20)\n      swap1\n    tag_473:\n      dup2\n      sload\n      dup2\n      mstore\n      0x20\n      add\n      swap1\n      0x01\n      add\n      swap1\n      dup1\n      dup4\n      gt\n      tag_473\n      jumpi\n    tag_472:\n      pop\n      pop\n      pop\n      pop\n      pop\n      swap4\n      pop\n        /* \"AmphiTrans.sol\":4342:4523  if (_isTrans) {... */\n      jump(tag_474)\n    tag_471:\n        /* \"AmphiTrans.sol\":4473:4487  vfInfo[_index] */\n      0x00\n      dup10\n      dup2\n      mstore\n        /* \"AmphiTrans.sol\":4473:4479  vfInfo */\n      0x03\n        /* \"AmphiTrans.sol\":4473:4487  vfInfo[_index] */\n      0x20\n      swap1\n      dup2\n      mstore\n      0x40\n      dup1\n      dup4\n      keccak256\n      sub(shl(0xa0, 0x01), 0x01)\n        /* \"AmphiTrans.sol\":4473:4501  vfInfo[_index][_taskerIndex] */\n      dup13\n      and\n      dup5\n      mstore\n      dup3\n      mstore\n      swap2\n      dup3\n      swap1\n      keccak256\n        /* \"AmphiTrans.sol\":4459:4511  _filesIndex = vfInfo[_index][_taskerIndex].taskIndex */\n      dup1\n      sload\n      dup4\n      mload\n      dup2\n      dup5\n      mul\n      dup2\n      add\n      dup5\n      add\n      swap1\n      swap5\n      mstore\n      dup1\n      dup5\n      mstore\n        /* \"AmphiTrans.sol\":4473:4501  vfInfo[_index][_taskerIndex] */\n      swap1\n      swap2\n        /* \"AmphiTrans.sol\":4459:4511  _filesIndex = vfInfo[_index][_taskerIndex].taskIndex */\n      dup4\n      add\n        /* \"AmphiTrans.sol\":4473:4501  vfInfo[_index][_taskerIndex] */\n      dup3\n        /* \"AmphiTrans.sol\":4459:4511  _filesIndex = vfInfo[_index][_taskerIndex].taskIndex */\n      dup3\n      dup1\n      iszero\n      tag_475\n      jumpi\n      0x20\n      mul\n      dup3\n      add\n      swap2\n      swap1\n      0x00\n      mstore\n      keccak256(0x00, 0x20)\n      swap1\n    tag_476:\n      dup2\n      sload\n      dup2\n      mstore\n      0x20\n      add\n      swap1\n      0x01\n      add\n      swap1\n      dup1\n      dup4\n      gt\n      tag_476\n      jumpi\n    tag_475:\n      pop\n      pop\n      pop\n      pop\n      pop\n      swap4\n      pop\n        /* \"AmphiTrans.sol\":4342:4523  if (_isTrans) {... */\n    tag_474:\n      0x40\n      dup1\n      mload\n      dup1\n      dup3\n      add\n      swap1\n      swap2\n      mstore\n      0x00\n      dup2\n      mstore\n      0x60\n      0x20\n      dup3\n      add\n      mstore\n        /* \"AmphiTrans.sol\":4586:4595  uint256 i */\n      0x00\n        /* \"AmphiTrans.sol\":4581:4940  for (uint256 i = 0; i < _filesIndex.length; i++) {... */\n    tag_478:\n        /* \"AmphiTrans.sol\":4605:4616  _filesIndex */\n      dup6\n        /* \"AmphiTrans.sol\":4605:4623  _filesIndex.length */\n      mload\n        /* \"AmphiTrans.sol\":4601:4602  i */\n      dup2\n        /* \"AmphiTrans.sol\":4601:4623  i < _filesIndex.length */\n      lt\n        /* \"AmphiTrans.sol\":4581:4940  for (uint256 i = 0; i < _filesIndex.length; i++) {... */\n      iszero\n      tag_479\n      jumpi\n        /* \"AmphiTrans.sol\":4653:4670  transInfo[_index] */\n      0x00\n      dup12\n      dup2\n      mstore\n        /* \"AmphiTrans.sol\":4653:4662  transInfo */\n      0x02\n        /* \"AmphiTrans.sol\":4653:4670  transInfo[_index] */\n      0x20\n      swap1\n      dup2\n      mstore\n      0x40\n      dup1\n      dup4\n      keccak256\n      sub(shl(0xa0, 0x01), 0x01)\n        /* \"AmphiTrans.sol\":4653:4684  transInfo[_index][_taskerIndex] */\n      dup15\n      and\n      dup5\n      mstore\n      swap1\n      swap2\n      mstore\n      dup2\n      keccak256\n        /* \"AmphiTrans.sol\":4690:4704  _filesIndex[i] */\n      dup8\n      mload\n        /* \"AmphiTrans.sol\":4653:4689  transInfo[_index][_taskerIndex].info */\n      0x01\n      swap1\n      swap2\n      add\n      swap2\n        /* \"AmphiTrans.sol\":4653:4670  transInfo[_index] */\n      swap1\n        /* \"AmphiTrans.sol\":4690:4701  _filesIndex */\n      dup9\n      swap1\n        /* \"AmphiTrans.sol\":4702:4703  i */\n      dup5\n      swap1\n        /* \"AmphiTrans.sol\":4690:4704  _filesIndex[i] */\n      dup2\n      lt\n      tag_482\n      jumpi\n      tag_482\n      tag_230\n      jump\t// in\n    tag_482:\n      0x20\n      mul\n      0x20\n      add\n      add\n      mload\n        /* \"AmphiTrans.sol\":4653:4705  transInfo[_index][_taskerIndex].info[_filesIndex[i]] */\n      dup2\n      mstore\n      0x20\n      add\n      swap1\n      dup2\n      mstore\n      0x20\n      add\n      0x00\n      keccak256\n        /* \"AmphiTrans.sol\":4645:4705  _info = transInfo[_index][_taskerIndex].info[_filesIndex[i]] */\n      mload(0x40)\n      dup1\n      0x40\n      add\n      0x40\n      mstore\n      swap1\n      dup2\n      0x00\n      dup3\n      add\n      0x00\n      swap1\n      sload\n      swap1\n      0x0100\n      exp\n      swap1\n      div\n      0xff\n      and\n      0x04\n      dup2\n      gt\n      iszero\n      tag_484\n      jumpi\n      tag_484\n      tag_258\n      jump\t// in\n    tag_484:\n      0x04\n      dup2\n      gt\n      iszero\n      tag_486\n      jumpi\n      tag_486\n      tag_258\n      jump\t// in\n    tag_486:\n      dup2\n      mstore\n      0x20\n      add\n      0x01\n      dup3\n      add\n      dup1\n      sload\n      tag_487\n      swap1\n      tag_241\n      jump\t// in\n    tag_487:\n      dup1\n      0x1f\n      add\n      0x20\n      dup1\n      swap2\n      div\n      mul\n      0x20\n      add\n      mload(0x40)\n      swap1\n      dup2\n      add\n      0x40\n      mstore\n      dup1\n      swap3\n      swap2\n      swap1\n      dup2\n      dup2\n      mstore\n      0x20\n      add\n      dup3\n      dup1\n      sload\n      tag_488\n      swap1\n      tag_241\n      jump\t// in\n    tag_488:\n      dup1\n      iszero\n      tag_489\n      jumpi\n      dup1\n      0x1f\n      lt\n      tag_490\n      jumpi\n      0x0100\n      dup1\n      dup4\n      sload\n      div\n      mul\n      dup4\n      mstore\n      swap2\n      0x20\n      add\n      swap2\n      jump(tag_489)\n    tag_490:\n      dup3\n      add\n      swap2\n      swap1\n      0x00\n      mstore\n      keccak256(0x00, 0x20)\n      swap1\n    tag_491:\n      dup2\n      sload\n      dup2\n      mstore\n      swap1\n      0x01\n      add\n      swap1\n      0x20\n      add\n      dup1\n      dup4\n      gt\n      tag_491\n      jumpi\n      dup3\n      swap1\n      sub\n      0x1f\n      and\n      dup3\n      add\n      swap2\n    tag_489:\n      pop\n      pop\n      pop\n      pop\n      pop\n      dup2\n      mstore\n      pop\n      pop\n      swap2\n      pop\n        /* \"AmphiTrans.sol\":4739:4772  LibProject.TaskerState.Processing */\n      0x00\n        /* \"AmphiTrans.sol\":4724:4772  _info.state == LibProject.TaskerState.Processing */\n      0x04\n      dup2\n      gt\n      iszero\n      tag_493\n      jumpi\n      tag_493\n      tag_258\n      jump\t// in\n    tag_493:\n        /* \"AmphiTrans.sol\":4724:4735  _info.state */\n      dup3\n      mload\n        /* \"AmphiTrans.sol\":4724:4772  _info.state == LibProject.TaskerState.Processing */\n      0x04\n      dup2\n      gt\n      iszero\n      tag_495\n      jumpi\n      tag_495\n      tag_258\n      jump\t// in\n    tag_495:\n      sub\n        /* \"AmphiTrans.sol\":4720:4929  if (_info.state == LibProject.TaskerState.Processing) {... */\n      tag_496\n      jumpi\n        /* \"AmphiTrans.sol\":4804:4815  _filesIndex */\n      dup6\n        /* \"AmphiTrans.sol\":4816:4817  i */\n      dup2\n        /* \"AmphiTrans.sol\":4804:4818  _filesIndex[i] */\n      dup2\n      mload\n      dup2\n      lt\n      tag_498\n      jumpi\n      tag_498\n      tag_230\n      jump\t// in\n    tag_498:\n      0x20\n      mul\n      0x20\n      add\n      add\n      mload\n        /* \"AmphiTrans.sol\":4793:4798  _list */\n      dup6\n        /* \"AmphiTrans.sol\":4799:4800  q */\n      dup5\n        /* \"AmphiTrans.sol\":4793:4801  _list[q] */\n      dup2\n      mload\n      dup2\n      lt\n      tag_500\n      jumpi\n      tag_500\n      tag_230\n      jump\t// in\n    tag_500:\n      0x20\n      swap1\n      dup2\n      mul\n      swap2\n      swap1\n      swap2\n      add\n      add\n        /* \"AmphiTrans.sol\":4793:4818  _list[q] = _filesIndex[i] */\n      mstore\n        /* \"AmphiTrans.sol\":4837:4840  q++ */\n      dup3\n      tag_501\n      dup2\n      tag_294\n      jump\t// in\n    tag_501:\n      swap4\n      pop\n      pop\n        /* \"AmphiTrans.sol\":4868:4876  taskList */\n      0x00\n        /* \"AmphiTrans.sol\":4868:4884  taskList[_index] */\n      dup1\n        /* \"AmphiTrans.sol\":4877:4883  _index */\n      dup13\n        /* \"AmphiTrans.sol\":4868:4884  taskList[_index] */\n      dup2\n      mstore\n      0x20\n      add\n      swap1\n      dup2\n      mstore\n      0x20\n      add\n      0x00\n      keccak256\n        /* \"AmphiTrans.sol\":4868:4890  taskList[_index].tasks */\n      0x0c\n      add\n        /* \"AmphiTrans.sol\":4891:4902  _filesIndex */\n      dup7\n        /* \"AmphiTrans.sol\":4903:4904  i */\n      dup3\n        /* \"AmphiTrans.sol\":4891:4905  _filesIndex[i] */\n      dup2\n      mload\n      dup2\n      lt\n      tag_503\n      jumpi\n      tag_503\n      tag_230\n      jump\t// in\n    tag_503:\n      0x20\n      mul\n      0x20\n      add\n      add\n      mload\n        /* \"AmphiTrans.sol\":4868:4906  taskList[_index].tasks[_filesIndex[i]] */\n      dup2\n      sload\n      dup2\n      lt\n      tag_505\n      jumpi\n      tag_505\n      tag_230\n      jump\t// in\n    tag_505:\n      swap1\n      0x00\n      mstore\n      keccak256(0x00, 0x20)\n      swap1\n      0x0b\n      mul\n      add\n        /* \"AmphiTrans.sol\":4868:4913  taskList[_index].tasks[_filesIndex[i]].bounty */\n      0x07\n      add\n      sload\n        /* \"AmphiTrans.sol\":4859:4913  money += taskList[_index].tasks[_filesIndex[i]].bounty */\n      dup5\n      tag_507\n      swap2\n      swap1\n      tag_263\n      jump\t// in\n    tag_507:\n      swap4\n      pop\n        /* \"AmphiTrans.sol\":4720:4929  if (_info.state == LibProject.TaskerState.Processing) {... */\n    tag_496:\n        /* \"AmphiTrans.sol\":4625:4628  i++ */\n      dup1\n      tag_508\n      dup2\n      tag_294\n      jump\t// in\n    tag_508:\n      swap2\n      pop\n      pop\n        /* \"AmphiTrans.sol\":4581:4940  for (uint256 i = 0; i < _filesIndex.length; i++) {... */\n      jump(tag_478)\n    tag_479:\n      pop\n        /* \"AmphiTrans.sol\":4958:4963  _list */\n      swap3\n      swap10\n        /* \"AmphiTrans.sol\":4965:4970  money */\n      swap2\n      swap9\n      pop\n        /* \"AmphiTrans.sol\":4056:4979  function overTimeTasker(... */\n      swap1\n      swap7\n      pop\n      pop\n      pop\n      pop\n      pop\n      pop\n      pop\n      jump\t// out\n        /* \"AmphiTrans.sol\":3506:3675  function getTranslatorsList(uint256 _index)... */\n    tag_177:\n        /* \"AmphiTrans.sol\":3639:3647  taskList */\n      0x00\n        /* \"AmphiTrans.sol\":3639:3655  taskList[_index] */\n      dup2\n      dup2\n      mstore\n      0x20\n      dup2\n      dup2\n      mstore\n      0x40\n      swap2\n      dup3\n      swap1\n      keccak256\n        /* \"AmphiTrans.sol\":3639:3667  taskList[_index].translators */\n      0x0d\n      add\n        /* \"AmphiTrans.sol\":3632:3667  return taskList[_index].translators */\n      dup1\n      sload\n      dup4\n      mload\n      dup2\n      dup5\n      mul\n      dup2\n      add\n      dup5\n      add\n      swap1\n      swap5\n      mstore\n      dup1\n      dup5\n      mstore\n        /* \"AmphiTrans.sol\":3598:3614  address[] memory */\n      0x60\n      swap4\n        /* \"AmphiTrans.sol\":3632:3667  return taskList[_index].translators */\n      swap3\n      dup4\n      add\n        /* \"AmphiTrans.sol\":3639:3667  taskList[_index].translators */\n      dup3\n        /* \"AmphiTrans.sol\":3632:3667  return taskList[_index].translators */\n      dup3\n      dup1\n      iszero\n      tag_511\n      jumpi\n      0x20\n      mul\n      dup3\n      add\n      swap2\n      swap1\n      0x00\n      mstore\n      keccak256(0x00, 0x20)\n      swap1\n    tag_512:\n      dup2\n      sload\n      sub(shl(0xa0, 0x01), 0x01)\n      and\n      dup2\n      mstore\n      0x01\n      swap1\n      swap2\n      add\n      swap1\n      0x20\n      add\n      dup1\n      dup4\n      gt\n      tag_512\n      jumpi\n    tag_511:\n      pop\n      pop\n      pop\n      pop\n      pop\n      swap1\n      pop\n        /* \"AmphiTrans.sol\":3506:3675  function getTranslatorsList(uint256 _index)... */\n      swap2\n      swap1\n      pop\n      jump\t// out\n        /* \"AmphiTrans.sol\":5279:5478  function getFileState(uint256 _index, uint256 _fileIndex)... */\n    tag_192:\n        /* \"AmphiTrans.sol\":5385:5405  LibProject.FileState */\n      0x00\n        /* \"AmphiTrans.sol\":5430:5446  taskList[_index] */\n      dup3\n      dup2\n      mstore\n      0x20\n      dup2\n      swap1\n      mstore\n      0x40\n      dup2\n      keccak256\n        /* \"AmphiTrans.sol\":5430:5452  taskList[_index].tasks */\n      0x0c\n      add\n        /* \"AmphiTrans.sol\":5430:5464  taskList[_index].tasks[_fileIndex] */\n      dup1\n      sload\n        /* \"AmphiTrans.sol\":5453:5463  _fileIndex */\n      dup4\n      swap1\n        /* \"AmphiTrans.sol\":5430:5464  taskList[_index].tasks[_fileIndex] */\n      dup2\n      lt\n      tag_520\n      jumpi\n      tag_520\n      tag_230\n      jump\t// in\n    tag_520:\n      0x00\n      swap2\n      dup3\n      mstore\n      0x20\n      swap1\n      swap2\n      keccak256\n      0x0b\n      swap1\n      swap2\n      mul\n      add\n        /* \"AmphiTrans.sol\":5430:5470  taskList[_index].tasks[_fileIndex].state */\n      0x09\n      add\n      sload\n      0xff\n      and\n      swap4\n        /* \"AmphiTrans.sol\":5279:5478  function getFileState(uint256 _index, uint256 _fileIndex)... */\n      swap3\n      pop\n      pop\n      pop\n      jump\t// out\n        /* \"AmphiTrans.sol\":3712:3838  function getVfList(uint256 _index) public view returns (address[] memory) {... */\n    tag_197:\n        /* \"AmphiTrans.sol\":3804:3812  taskList */\n      0x00\n        /* \"AmphiTrans.sol\":3804:3820  taskList[_index] */\n      dup2\n      dup2\n      mstore\n      0x20\n      dup2\n      dup2\n      mstore\n      0x40\n      swap2\n      dup3\n      swap1\n      keccak256\n        /* \"AmphiTrans.sol\":3804:3830  taskList[_index].verifiers */\n      0x0e\n      add\n        /* \"AmphiTrans.sol\":3797:3830  return taskList[_index].verifiers */\n      dup1\n      sload\n      dup4\n      mload\n      dup2\n      dup5\n      mul\n      dup2\n      add\n      dup5\n      add\n      swap1\n      swap5\n      mstore\n      dup1\n      dup5\n      mstore\n        /* \"AmphiTrans.sol\":3768:3784  address[] memory */\n      0x60\n      swap4\n        /* \"AmphiTrans.sol\":3797:3830  return taskList[_index].verifiers */\n      swap3\n      dup4\n      add\n        /* \"AmphiTrans.sol\":3804:3830  taskList[_index].verifiers */\n      dup3\n        /* \"AmphiTrans.sol\":3797:3830  return taskList[_index].verifiers */\n      dup3\n      dup1\n      iszero\n      tag_511\n      jumpi\n      0x20\n      mul\n      dup3\n      add\n      swap2\n      swap1\n      0x00\n      mstore\n      keccak256(0x00, 0x20)\n      swap1\n      dup2\n      sload\n      sub(shl(0xa0, 0x01), 0x01)\n      and\n      dup2\n      mstore\n      0x01\n      swap1\n      swap2\n      add\n      swap1\n      0x20\n      add\n      dup1\n      dup4\n      gt\n      tag_512\n      jumpi\n      pop\n      pop\n      pop\n      pop\n      pop\n      swap1\n      pop\n        /* \"AmphiTrans.sol\":3712:3838  function getVfList(uint256 _index) public view returns (address[] memory) {... */\n      swap2\n      swap1\n      pop\n      jump\t// out\n        /* \"AmphiTrans.sol\":9952:10129  function changeVerActive(uint256 _index, bool _bool) external {... */\n    tag_201:\n        /* \"AmphiTrans.sol\":10025:10033  taskList */\n      0x00\n        /* \"AmphiTrans.sol\":10025:10041  taskList[_index] */\n      dup3\n      dup2\n      mstore\n      0x20\n      dup2\n      dup2\n      mstore\n      0x40\n      swap2\n      dup3\n      swap1\n      keccak256\n        /* \"AmphiTrans.sol\":10025:10053  taskList[_index].isVerActive */\n      0x13\n      add\n        /* \"AmphiTrans.sol\":10025:10061  taskList[_index].isVerActive = _bool */\n      dup1\n      sload\n      0xffffffffffffffffffffffffffffffffffffffffffffffffffffffffffff00ff\n      and\n      0x0100\n      dup6\n      iszero\n      iszero\n      swap1\n      dup2\n      mul\n      swap2\n      swap1\n      swap2\n      or\n      swap1\n      swap2\n      sstore\n        /* \"AmphiTrans.sol\":10077:10121  changeVerActiveEv(_index, _bool, msg.sender) */\n      dup3\n      mload\n        /* \"#utility.yul\":31057:31082   */\n      dup6\n      dup2\n      mstore\n        /* \"#utility.yul\":31098:31116   */\n      swap2\n      dup3\n      add\n        /* \"#utility.yul\":31091:31141   */\n      mstore\n        /* \"AmphiTrans.sol\":10110:10120  msg.sender */\n      caller\n        /* \"#utility.yul\":31157:31175   */\n      swap2\n      dup2\n      add\n        /* \"#utility.yul\":31150:31233   */\n      swap2\n      swap1\n      swap2\n      mstore\n        /* \"AmphiTrans.sol\":10077:10121  changeVerActiveEv(_index, _bool, msg.sender) */\n      0x7251b4359e8a59604ee5edc605cc5e422ed31ecb1cf2b1cb7ed855e8811dfb4c\n      swap1\n        /* \"#utility.yul\":31045:31047   */\n      0x60\n        /* \"#utility.yul\":31030:31048   */\n      add\n        /* \"AmphiTrans.sol\":10077:10121  changeVerActiveEv(_index, _bool, msg.sender) */\n      tag_267\n        /* \"#utility.yul\":30861:31239   */\n      jump\n        /* \"AmphiTrans.sol\":10297:10388  function addVfNumber(uint256 _index) external {... */\n    tag_204:\n        /* \"AmphiTrans.sol\":10354:10362  taskList */\n      0x00\n        /* \"AmphiTrans.sol\":10354:10370  taskList[_index] */\n      dup2\n      dup2\n      mstore\n      0x20\n      dup2\n      swap1\n      mstore\n      0x40\n      dup2\n      keccak256\n        /* \"AmphiTrans.sol\":10354:10378  taskList[_index].numberV */\n      0x12\n      add\n        /* \"AmphiTrans.sol\":10354:10380  taskList[_index].numberV++ */\n      dup1\n      sload\n      swap2\n      tag_359\n      dup4\n      tag_294\n      jump\t// in\n        /* \"AmphiTrans.sol\":7929:8117  function getFileBounty(uint256 _index, uint256 _fileIndex)... */\n    tag_216:\n        /* \"AmphiTrans.sol\":8036:8043  uint256 */\n      0x00\n        /* \"AmphiTrans.sol\":8068:8084  taskList[_index] */\n      dup3\n      dup2\n      mstore\n      0x20\n      dup2\n      swap1\n      mstore\n      0x40\n      dup2\n      keccak256\n        /* \"AmphiTrans.sol\":8068:8090  taskList[_index].tasks */\n      0x0c\n      add\n        /* \"AmphiTrans.sol\":8068:8102  taskList[_index].tasks[_fileIndex] */\n      dup1\n      sload\n        /* \"AmphiTrans.sol\":8091:8101  _fileIndex */\n      dup4\n      swap1\n        /* \"AmphiTrans.sol\":8068:8102  taskList[_index].tasks[_fileIndex] */\n      dup2\n      lt\n      tag_533\n      jumpi\n      tag_533\n      tag_230\n      jump\t// in\n    tag_533:\n      swap1\n      0x00\n      mstore\n      keccak256(0x00, 0x20)\n      swap1\n      0x0b\n      mul\n      add\n        /* \"AmphiTrans.sol\":8068:8109  taskList[_index].tasks[_fileIndex].bounty */\n      0x07\n      add\n      sload\n        /* \"AmphiTrans.sol\":8061:8109  return taskList[_index].tasks[_fileIndex].bounty */\n      swap1\n      pop\n        /* \"AmphiTrans.sol\":7929:8117  function getFileBounty(uint256 _index, uint256 _fileIndex)... */\n      swap3\n      swap2\n      pop\n      pop\n      jump\t// out\n    tag_279:\n      dup3\n      dup1\n      sload\n      dup3\n      dup3\n      sstore\n      swap1\n      0x00\n      mstore\n      keccak256(0x00, 0x20)\n      swap1\n      dup2\n      add\n      swap3\n      dup3\n      iszero\n      tag_539\n      jumpi\n      swap2\n      0x20\n      mul\n      dup3\n      add\n    tag_538:\n      dup3\n      dup2\n      gt\n      iszero\n      tag_539\n      jumpi\n      dup3\n      mload\n      dup3\n      sstore\n      swap2\n      0x20\n      add\n      swap2\n      swap1\n      0x01\n      add\n      swap1\n      jump(tag_538)\n    tag_539:\n      pop\n      tag_540\n      swap3\n      swap2\n      pop\n      tag_541\n      jump\t// in\n    tag_540:\n      pop\n      swap1\n      jump\t// out\n    tag_304:\n      mload(0x40)\n      dup1\n      0x02e0\n      add\n      0x40\n      mstore\n      dup1\n      and(sub(shl(0xa0, 0x01), 0x01), 0x00)\n      dup2\n      mstore\n      0x20\n      add\n      0x00\n      dup2\n      mstore\n      0x20\n      add\n      0x60\n      dup2\n      mstore\n      0x20\n      add\n      0x60\n      dup2\n      mstore\n      0x20\n      add\n      0x00\n      dup2\n      mstore\n      0x20\n      add\n      0x00\n      dup2\n      mstore\n      0x20\n      add\n      0x00\n      dup2\n      mstore\n      0x20\n      add\n      0x60\n      dup2\n      mstore\n      0x20\n      add\n      0x00\n      dup2\n      mstore\n      0x20\n      add\n      0x00\n      dup2\n      mstore\n      0x20\n      add\n      iszero(iszero(0x00))\n      dup2\n      mstore\n      0x20\n      add\n      iszero(iszero(0x00))\n      dup2\n      mstore\n      0x20\n      add\n      0x00\n      dup2\n      mstore\n      0x20\n      add\n      0x60\n      dup2\n      mstore\n      0x20\n      add\n      0x60\n      dup2\n      mstore\n      0x20\n      add\n      0x60\n      dup2\n      mstore\n      0x20\n      add\n      0x00\n      dup2\n      mstore\n      0x20\n      add\n      0x00\n      dup2\n      mstore\n      0x20\n      add\n      0x00\n      dup2\n      mstore\n      0x20\n      add\n      0x00\n      dup2\n      mstore\n      0x20\n      add\n      iszero(iszero(0x00))\n      dup2\n      mstore\n      0x20\n      add\n      iszero(iszero(0x00))\n      dup2\n      mstore\n      0x20\n      add\n      0x00\n      0x07\n      dup2\n      gt\n      iszero\n      tag_543\n      jumpi\n      tag_543\n      tag_258\n      jump\t// in\n    tag_543:\n      swap1\n      mstore\n      swap1\n      jump\t// out\n    tag_541:\n    tag_546:\n      dup1\n      dup3\n      gt\n      iszero\n      tag_540\n      jumpi\n      0x00\n      dup2\n      sstore\n      0x01\n      add\n      jump(tag_546)\n        /* \"#utility.yul\":14:210   */\n    tag_548:\n        /* \"#utility.yul\":82:102   */\n      dup1\n      calldataload\n      sub(shl(0xa0, 0x01), 0x01)\n        /* \"#utility.yul\":131:185   */\n      dup2\n      and\n        /* \"#utility.yul\":121:186   */\n      dup2\n      eq\n        /* \"#utility.yul\":111:204   */\n      tag_575\n      jumpi\n        /* \"#utility.yul\":200:201   */\n      0x00\n        /* \"#utility.yul\":197:198   */\n      dup1\n        /* \"#utility.yul\":190:202   */\n      revert\n        /* \"#utility.yul\":111:204   */\n    tag_575:\n        /* \"#utility.yul\":14:210   */\n      swap2\n      swap1\n      pop\n      jump\t// out\n        /* \"#utility.yul\":215:399   */\n    tag_373:\n        /* \"#utility.yul\":267:344   */\n      0x4e487b7100000000000000000000000000000000000000000000000000000000\n        /* \"#utility.yul\":264:265   */\n      0x00\n        /* \"#utility.yul\":257:345   */\n      mstore\n        /* \"#utility.yul\":364:368   */\n      0x41\n        /* \"#utility.yul\":361:362   */\n      0x04\n        /* \"#utility.yul\":354:369   */\n      mstore\n        /* \"#utility.yul\":388:392   */\n      0x24\n        /* \"#utility.yul\":385:386   */\n      0x00\n        /* \"#utility.yul\":378:393   */\n      revert\n        /* \"#utility.yul\":404:657   */\n    tag_549:\n        /* \"#utility.yul\":476:478   */\n      0x40\n        /* \"#utility.yul\":470:479   */\n      mload\n        /* \"#utility.yul\":518:522   */\n      0xa0\n        /* \"#utility.yul\":506:523   */\n      dup2\n      add\n        /* \"#utility.yul\":553:571   */\n      0xffffffffffffffff\n        /* \"#utility.yul\":538:572   */\n      dup2\n      gt\n        /* \"#utility.yul\":574:596   */\n      dup3\n      dup3\n      lt\n        /* \"#utility.yul\":535:597   */\n      or\n        /* \"#utility.yul\":532:620   */\n      iszero\n      tag_579\n      jumpi\n        /* \"#utility.yul\":600:618   */\n      tag_579\n      tag_373\n      jump\t// in\n    tag_579:\n        /* \"#utility.yul\":636:638   */\n      0x40\n        /* \"#utility.yul\":629:651   */\n      mstore\n        /* \"#utility.yul\":404:657   */\n      swap1\n      jump\t// out\n        /* \"#utility.yul\":662:915   */\n    tag_550:\n        /* \"#utility.yul\":734:736   */\n      0x40\n        /* \"#utility.yul\":728:737   */\n      mload\n        /* \"#utility.yul\":776:780   */\n      0xe0\n        /* \"#utility.yul\":764:781   */\n      dup2\n      add\n        /* \"#utility.yul\":811:829   */\n      0xffffffffffffffff\n        /* \"#utility.yul\":796:830   */\n      dup2\n      gt\n        /* \"#utility.yul\":832:854   */\n      dup3\n      dup3\n      lt\n        /* \"#utility.yul\":793:855   */\n      or\n        /* \"#utility.yul\":790:878   */\n      iszero\n      tag_579\n      jumpi\n        /* \"#utility.yul\":858:876   */\n      tag_579\n      tag_373\n      jump\t// in\n        /* \"#utility.yul\":920:1175   */\n    tag_551:\n        /* \"#utility.yul\":992:994   */\n      0x40\n        /* \"#utility.yul\":986:995   */\n      mload\n        /* \"#utility.yul\":1034:1040   */\n      0x01a0\n        /* \"#utility.yul\":1022:1041   */\n      dup2\n      add\n        /* \"#utility.yul\":1071:1089   */\n      0xffffffffffffffff\n        /* \"#utility.yul\":1056:1090   */\n      dup2\n      gt\n        /* \"#utility.yul\":1092:1114   */\n      dup3\n      dup3\n      lt\n        /* \"#utility.yul\":1053:1115   */\n      or\n        /* \"#utility.yul\":1050:1138   */\n      iszero\n      tag_579\n      jumpi\n        /* \"#utility.yul\":1118:1136   */\n      tag_579\n      tag_373\n      jump\t// in\n        /* \"#utility.yul\":1180:1514   */\n    tag_552:\n        /* \"#utility.yul\":1251:1253   */\n      0x40\n        /* \"#utility.yul\":1245:1254   */\n      mload\n        /* \"#utility.yul\":1307:1309   */\n      0x1f\n        /* \"#utility.yul\":1297:1310   */\n      dup3\n      add\n      not(0x1f)\n        /* \"#utility.yul\":1293:1379   */\n      and\n        /* \"#utility.yul\":1281:1380   */\n      dup2\n      add\n        /* \"#utility.yul\":1410:1428   */\n      0xffffffffffffffff\n        /* \"#utility.yul\":1395:1429   */\n      dup2\n      gt\n        /* \"#utility.yul\":1431:1453   */\n      dup3\n      dup3\n      lt\n        /* \"#utility.yul\":1392:1454   */\n      or\n        /* \"#utility.yul\":1389:1477   */\n      iszero\n      tag_588\n      jumpi\n        /* \"#utility.yul\":1457:1475   */\n      tag_588\n      tag_373\n      jump\t// in\n    tag_588:\n        /* \"#utility.yul\":1493:1495   */\n      0x40\n        /* \"#utility.yul\":1486:1508   */\n      mstore\n        /* \"#utility.yul\":1180:1514   */\n      swap2\n      swap1\n      pop\n      jump\t// out\n        /* \"#utility.yul\":1519:2109   */\n    tag_553:\n        /* \"#utility.yul\":1562:1567   */\n      0x00\n        /* \"#utility.yul\":1615:1618   */\n      dup3\n        /* \"#utility.yul\":1608:1612   */\n      0x1f\n        /* \"#utility.yul\":1600:1606   */\n      dup4\n        /* \"#utility.yul\":1596:1613   */\n      add\n        /* \"#utility.yul\":1592:1619   */\n      slt\n        /* \"#utility.yul\":1582:1637   */\n      tag_590\n      jumpi\n        /* \"#utility.yul\":1633:1634   */\n      0x00\n        /* \"#utility.yul\":1630:1631   */\n      dup1\n        /* \"#utility.yul\":1623:1635   */\n      revert\n        /* \"#utility.yul\":1582:1637   */\n    tag_590:\n        /* \"#utility.yul\":1669:1675   */\n      dup2\n        /* \"#utility.yul\":1656:1676   */\n      calldataload\n        /* \"#utility.yul\":1695:1713   */\n      0xffffffffffffffff\n        /* \"#utility.yul\":1691:1693   */\n      dup2\n        /* \"#utility.yul\":1688:1714   */\n      gt\n        /* \"#utility.yul\":1685:1737   */\n      iszero\n      tag_592\n      jumpi\n        /* \"#utility.yul\":1717:1735   */\n      tag_592\n      tag_373\n      jump\t// in\n    tag_592:\n        /* \"#utility.yul\":1761:1875   */\n      tag_593\n        /* \"#utility.yul\":1869:1873   */\n      0x20\n      not(0x1f)\n        /* \"#utility.yul\":1793:1797   */\n      0x1f\n        /* \"#utility.yul\":1789:1791   */\n      dup5\n        /* \"#utility.yul\":1785:1798   */\n      add\n        /* \"#utility.yul\":1781:1867   */\n      and\n        /* \"#utility.yul\":1777:1874   */\n      add\n        /* \"#utility.yul\":1761:1875   */\n      tag_552\n      jump\t// in\n    tag_593:\n        /* \"#utility.yul\":1900:1902   */\n      dup2\n        /* \"#utility.yul\":1891:1898   */\n      dup2\n        /* \"#utility.yul\":1884:1903   */\n      mstore\n        /* \"#utility.yul\":1946:1949   */\n      dup5\n        /* \"#utility.yul\":1939:1943   */\n      0x20\n        /* \"#utility.yul\":1934:1936   */\n      dup4\n        /* \"#utility.yul\":1926:1932   */\n      dup7\n        /* \"#utility.yul\":1922:1937   */\n      add\n        /* \"#utility.yul\":1918:1944   */\n      add\n        /* \"#utility.yul\":1915:1950   */\n      gt\n        /* \"#utility.yul\":1912:1967   */\n      iszero\n      tag_594\n      jumpi\n        /* \"#utility.yul\":1963:1964   */\n      0x00\n        /* \"#utility.yul\":1960:1961   */\n      dup1\n        /* \"#utility.yul\":1953:1965   */\n      revert\n        /* \"#utility.yul\":1912:1967   */\n    tag_594:\n        /* \"#utility.yul\":2028:2030   */\n      dup2\n        /* \"#utility.yul\":2021:2025   */\n      0x20\n        /* \"#utility.yul\":2013:2019   */\n      dup6\n        /* \"#utility.yul\":2009:2026   */\n      add\n        /* \"#utility.yul\":2002:2006   */\n      0x20\n        /* \"#utility.yul\":1993:2000   */\n      dup4\n        /* \"#utility.yul\":1989:2007   */\n      add\n        /* \"#utility.yul\":1976:2031   */\n      calldatacopy\n        /* \"#utility.yul\":2076:2077   */\n      0x00\n        /* \"#utility.yul\":2051:2067   */\n      swap2\n      dup2\n      add\n        /* \"#utility.yul\":2069:2073   */\n      0x20\n        /* \"#utility.yul\":2047:2074   */\n      add\n        /* \"#utility.yul\":2040:2078   */\n      swap2\n      swap1\n      swap2\n      mstore\n        /* \"#utility.yul\":2055:2062   */\n      swap4\n        /* \"#utility.yul\":1519:2109   */\n      swap3\n      pop\n      pop\n      pop\n      jump\t// out\n        /* \"#utility.yul\":2114:2647   */\n    tag_61:\n        /* \"#utility.yul\":2210:2216   */\n      0x00\n        /* \"#utility.yul\":2218:2224   */\n      dup1\n        /* \"#utility.yul\":2226:2232   */\n      0x00\n        /* \"#utility.yul\":2234:2240   */\n      dup1\n        /* \"#utility.yul\":2287:2290   */\n      0x80\n        /* \"#utility.yul\":2275:2284   */\n      dup6\n        /* \"#utility.yul\":2266:2273   */\n      dup8\n        /* \"#utility.yul\":2262:2285   */\n      sub\n        /* \"#utility.yul\":2258:2291   */\n      slt\n        /* \"#utility.yul\":2255:2308   */\n      iszero\n      tag_596\n      jumpi\n        /* \"#utility.yul\":2304:2305   */\n      0x00\n        /* \"#utility.yul\":2301:2302   */\n      dup1\n        /* \"#utility.yul\":2294:2306   */\n      revert\n        /* \"#utility.yul\":2255:2308   */\n    tag_596:\n        /* \"#utility.yul\":2340:2349   */\n      dup5\n        /* \"#utility.yul\":2327:2350   */\n      calldataload\n        /* \"#utility.yul\":2317:2350   */\n      swap4\n      pop\n        /* \"#utility.yul\":2369:2407   */\n      tag_597\n        /* \"#utility.yul\":2403:2405   */\n      0x20\n        /* \"#utility.yul\":2392:2401   */\n      dup7\n        /* \"#utility.yul\":2388:2406   */\n      add\n        /* \"#utility.yul\":2369:2407   */\n      tag_548\n      jump\t// in\n    tag_597:\n        /* \"#utility.yul\":2359:2407   */\n      swap3\n      pop\n        /* \"#utility.yul\":2454:2456   */\n      0x40\n        /* \"#utility.yul\":2443:2452   */\n      dup6\n        /* \"#utility.yul\":2439:2457   */\n      add\n        /* \"#utility.yul\":2426:2458   */\n      calldataload\n        /* \"#utility.yul\":2416:2458   */\n      swap2\n      pop\n        /* \"#utility.yul\":2509:2511   */\n      0x60\n        /* \"#utility.yul\":2498:2507   */\n      dup6\n        /* \"#utility.yul\":2494:2512   */\n      add\n        /* \"#utility.yul\":2481:2513   */\n      calldataload\n        /* \"#utility.yul\":2536:2554   */\n      0xffffffffffffffff\n        /* \"#utility.yul\":2528:2534   */\n      dup2\n        /* \"#utility.yul\":2525:2555   */\n      gt\n        /* \"#utility.yul\":2522:2572   */\n      iszero\n      tag_598\n      jumpi\n        /* \"#utility.yul\":2568:2569   */\n      0x00\n        /* \"#utility.yul\":2565:2566   */\n      dup1\n        /* \"#utility.yul\":2558:2570   */\n      revert\n        /* \"#utility.yul\":2522:2572   */\n    tag_598:\n        /* \"#utility.yul\":2591:2641   */\n      tag_599\n        /* \"#utility.yul\":2633:2640   */\n      dup8\n        /* \"#utility.yul\":2624:2630   */\n      dup3\n        /* \"#utility.yul\":2613:2622   */\n      dup9\n        /* \"#utility.yul\":2609:2631   */\n      add\n        /* \"#utility.yul\":2591:2641   */\n      tag_553\n      jump\t// in\n    tag_599:\n        /* \"#utility.yul\":2581:2641   */\n      swap2\n      pop\n      pop\n        /* \"#utility.yul\":2114:2647   */\n      swap3\n      swap6\n      swap2\n      swap5\n      pop\n      swap3\n      pop\n      jump\t// out\n        /* \"#utility.yul\":2652:2832   */\n    tag_65:\n        /* \"#utility.yul\":2711:2717   */\n      0x00\n        /* \"#utility.yul\":2764:2766   */\n      0x20\n        /* \"#utility.yul\":2752:2761   */\n      dup3\n        /* \"#utility.yul\":2743:2750   */\n      dup5\n        /* \"#utility.yul\":2739:2762   */\n      sub\n        /* \"#utility.yul\":2735:2767   */\n      slt\n        /* \"#utility.yul\":2732:2784   */\n      iszero\n      tag_601\n      jumpi\n        /* \"#utility.yul\":2780:2781   */\n      0x00\n        /* \"#utility.yul\":2777:2778   */\n      dup1\n        /* \"#utility.yul\":2770:2782   */\n      revert\n        /* \"#utility.yul\":2732:2784   */\n    tag_601:\n      pop\n        /* \"#utility.yul\":2803:2826   */\n      calldataload\n      swap2\n        /* \"#utility.yul\":2652:2832   */\n      swap1\n      pop\n      jump\t// out\n        /* \"#utility.yul\":2837:3319   */\n    tag_554:\n        /* \"#utility.yul\":2879:2882   */\n      0x00\n        /* \"#utility.yul\":2917:2922   */\n      dup2\n        /* \"#utility.yul\":2911:2923   */\n      mload\n        /* \"#utility.yul\":2944:2950   */\n      dup1\n        /* \"#utility.yul\":2939:2942   */\n      dup5\n        /* \"#utility.yul\":2932:2951   */\n      mstore\n        /* \"#utility.yul\":2969:2970   */\n      0x00\n        /* \"#utility.yul\":2979:3141   */\n    tag_603:\n        /* \"#utility.yul\":2993:2999   */\n      dup2\n        /* \"#utility.yul\":2990:2991   */\n      dup2\n        /* \"#utility.yul\":2987:3000   */\n      lt\n        /* \"#utility.yul\":2979:3141   */\n      iszero\n      tag_605\n      jumpi\n        /* \"#utility.yul\":3055:3059   */\n      0x20\n        /* \"#utility.yul\":3111:3124   */\n      dup2\n      dup6\n      add\n        /* \"#utility.yul\":3107:3129   */\n      dup2\n      add\n        /* \"#utility.yul\":3101:3130   */\n      mload\n        /* \"#utility.yul\":3083:3094   */\n      dup7\n      dup4\n      add\n        /* \"#utility.yul\":3079:3099   */\n      dup3\n      add\n        /* \"#utility.yul\":3072:3131   */\n      mstore\n        /* \"#utility.yul\":3008:3020   */\n      add\n        /* \"#utility.yul\":2979:3141   */\n      jump(tag_603)\n    tag_605:\n        /* \"#utility.yul\":2983:2986   */\n      pop\n        /* \"#utility.yul\":3186:3187   */\n      0x00\n        /* \"#utility.yul\":3179:3183   */\n      0x20\n        /* \"#utility.yul\":3170:3176   */\n      dup3\n        /* \"#utility.yul\":3165:3168   */\n      dup7\n        /* \"#utility.yul\":3161:3177   */\n      add\n        /* \"#utility.yul\":3157:3184   */\n      add\n        /* \"#utility.yul\":3150:3188   */\n      mstore\n        /* \"#utility.yul\":3308:3312   */\n      0x20\n      not(0x1f)\n        /* \"#utility.yul\":3233:3235   */\n      0x1f\n        /* \"#utility.yul\":3225:3231   */\n      dup4\n        /* \"#utility.yul\":3221:3236   */\n      add\n        /* \"#utility.yul\":3217:3305   */\n      and\n        /* \"#utility.yul\":3212:3215   */\n      dup6\n        /* \"#utility.yul\":3208:3306   */\n      add\n        /* \"#utility.yul\":3204:3313   */\n      add\n        /* \"#utility.yul\":3197:3313   */\n      swap2\n      pop\n      pop\n        /* \"#utility.yul\":2837:3319   */\n      swap3\n      swap2\n      pop\n      pop\n      jump\t// out\n        /* \"#utility.yul\":3324:3508   */\n    tag_258:\n        /* \"#utility.yul\":3376:3453   */\n      0x4e487b7100000000000000000000000000000000000000000000000000000000\n        /* \"#utility.yul\":3373:3374   */\n      0x00\n        /* \"#utility.yul\":3366:3454   */\n      mstore\n        /* \"#utility.yul\":3473:3477   */\n      0x21\n        /* \"#utility.yul\":3470:3471   */\n      0x04\n        /* \"#utility.yul\":3463:3478   */\n      mstore\n        /* \"#utility.yul\":3497:3501   */\n      0x24\n        /* \"#utility.yul\":3494:3495   */\n      0x00\n        /* \"#utility.yul\":3487:3502   */\n      revert\n        /* \"#utility.yul\":3513:3654   */\n    tag_555:\n        /* \"#utility.yul\":3594:3596   */\n      0x0c\n        /* \"#utility.yul\":3587:3592   */\n      dup2\n        /* \"#utility.yul\":3584:3597   */\n      lt\n        /* \"#utility.yul\":3574:3621   */\n      tag_609\n      jumpi\n        /* \"#utility.yul\":3601:3619   */\n      tag_609\n      tag_258\n      jump\t// in\n    tag_609:\n        /* \"#utility.yul\":3630:3648   */\n      swap1\n      mstore\n        /* \"#utility.yul\":3513:3654   */\n      jump\t// out\n        /* \"#utility.yul\":3659:5980   */\n    tag_68:\n        /* \"#utility.yul\":3853:3857   */\n      0x00\n        /* \"#utility.yul\":3882:3884   */\n      0x20\n        /* \"#utility.yul\":3922:3924   */\n      dup1\n        /* \"#utility.yul\":3911:3920   */\n      dup4\n        /* \"#utility.yul\":3907:3925   */\n      add\n        /* \"#utility.yul\":3952:3954   */\n      dup2\n        /* \"#utility.yul\":3941:3950   */\n      dup5\n        /* \"#utility.yul\":3934:3955   */\n      mstore\n        /* \"#utility.yul\":3975:3981   */\n      dup1\n        /* \"#utility.yul\":4010:4016   */\n      dup6\n        /* \"#utility.yul\":4004:4017   */\n      mload\n        /* \"#utility.yul\":4041:4047   */\n      dup1\n        /* \"#utility.yul\":4033:4039   */\n      dup4\n        /* \"#utility.yul\":4026:4048   */\n      mstore\n        /* \"#utility.yul\":4067:4069   */\n      0x40\n        /* \"#utility.yul\":4057:4069   */\n      swap3\n      pop\n        /* \"#utility.yul\":4100:4102   */\n      dup3\n        /* \"#utility.yul\":4089:4098   */\n      dup7\n        /* \"#utility.yul\":4085:4103   */\n      add\n        /* \"#utility.yul\":4078:4103   */\n      swap2\n      pop\n        /* \"#utility.yul\":4162:4164   */\n      dup3\n        /* \"#utility.yul\":4152:4158   */\n      dup2\n        /* \"#utility.yul\":4149:4150   */\n      0x05\n        /* \"#utility.yul\":4145:4159   */\n      shl\n        /* \"#utility.yul\":4134:4143   */\n      dup8\n        /* \"#utility.yul\":4130:4160   */\n      add\n        /* \"#utility.yul\":4126:4165   */\n      add\n        /* \"#utility.yul\":4200:4202   */\n      dup5\n        /* \"#utility.yul\":4192:4198   */\n      dup9\n        /* \"#utility.yul\":4188:4203   */\n      add\n        /* \"#utility.yul\":4221:4222   */\n      0x00\n        /* \"#utility.yul\":4231:5951   */\n    tag_611:\n        /* \"#utility.yul\":4245:4251   */\n      dup4\n        /* \"#utility.yul\":4242:4243   */\n      dup2\n        /* \"#utility.yul\":4239:4252   */\n      lt\n        /* \"#utility.yul\":4231:5951   */\n      iszero\n      tag_613\n      jumpi\n        /* \"#utility.yul\":4334:4400   */\n      0xffffffffffffffffffffffffffffffffffffffffffffffffffffffffffffffc0\n        /* \"#utility.yul\":4322:4331   */\n      dup10\n        /* \"#utility.yul\":4314:4320   */\n      dup5\n        /* \"#utility.yul\":4310:4332   */\n      sub\n        /* \"#utility.yul\":4306:4401   */\n      add\n        /* \"#utility.yul\":4301:4304   */\n      dup6\n        /* \"#utility.yul\":4294:4402   */\n      mstore\n        /* \"#utility.yul\":4431:4437   */\n      dup2\n        /* \"#utility.yul\":4425:4438   */\n      mload\n        /* \"#utility.yul\":4461:4465   */\n      0xa0\n        /* \"#utility.yul\":4504:4506   */\n      dup2\n        /* \"#utility.yul\":4498:4507   */\n      mload\n        /* \"#utility.yul\":4535:4537   */\n      dup2\n        /* \"#utility.yul\":4527:4533   */\n      dup7\n        /* \"#utility.yul\":4520:4538   */\n      mstore\n        /* \"#utility.yul\":4579:4591   */\n      dup1\n        /* \"#utility.yul\":4573:4592   */\n      mload\n        /* \"#utility.yul\":4615:4619   */\n      0xe0\n        /* \"#utility.yul\":4656:4658   */\n      dup1\n        /* \"#utility.yul\":4651:4653   */\n      dup5\n        /* \"#utility.yul\":4643:4649   */\n      dup10\n        /* \"#utility.yul\":4639:4654   */\n      add\n        /* \"#utility.yul\":4632:4659   */\n      mstore\n        /* \"#utility.yul\":4686:4737   */\n      tag_614\n        /* \"#utility.yul\":4732:4735   */\n      0x0180\n        /* \"#utility.yul\":4724:4730   */\n      dup10\n        /* \"#utility.yul\":4720:4736   */\n      add\n        /* \"#utility.yul\":4704:4718   */\n      dup4\n        /* \"#utility.yul\":4686:4737   */\n      tag_554\n      jump\t// in\n    tag_614:\n        /* \"#utility.yul\":4672:4737   */\n      swap2\n      pop\n        /* \"#utility.yul\":4784:4786   */\n      dup12\n        /* \"#utility.yul\":4770:4782   */\n      dup4\n        /* \"#utility.yul\":4766:4787   */\n      add\n        /* \"#utility.yul\":4760:4788   */\n      mload\n        /* \"#utility.yul\":4811:4814   */\n      0xc0\n        /* \"#utility.yul\":4851:4853   */\n      dup2\n        /* \"#utility.yul\":4846:4848   */\n      dup2\n        /* \"#utility.yul\":4838:4844   */\n      dup12\n        /* \"#utility.yul\":4834:4849   */\n      add\n        /* \"#utility.yul\":4827:4854   */\n      mstore\n        /* \"#utility.yul\":4915:4917   */\n      dup13\n        /* \"#utility.yul\":4901:4913   */\n      dup6\n        /* \"#utility.yul\":4897:4918   */\n      add\n        /* \"#utility.yul\":4891:4919   */\n      mload\n        /* \"#utility.yul\":4886:4888   */\n      dup4\n        /* \"#utility.yul\":4878:4884   */\n      dup12\n        /* \"#utility.yul\":4874:4889   */\n      add\n        /* \"#utility.yul\":4867:4920   */\n      mstore\n        /* \"#utility.yul\":4943:4947   */\n      0x60\n        /* \"#utility.yul\":4933:4947   */\n      swap3\n      pop\n        /* \"#utility.yul\":5009:5011   */\n      dup3\n        /* \"#utility.yul\":4995:5007   */\n      dup6\n        /* \"#utility.yul\":4991:5012   */\n      add\n        /* \"#utility.yul\":4985:5013   */\n      mload\n        /* \"#utility.yul\":4979:4982   */\n      0x0100\n        /* \"#utility.yul\":4971:4977   */\n      dup12\n        /* \"#utility.yul\":4967:4983   */\n      add\n        /* \"#utility.yul\":4960:5014   */\n      mstore\n        /* \"#utility.yul\":5037:5041   */\n      0x80\n        /* \"#utility.yul\":5027:5041   */\n      swap2\n      pop\n        /* \"#utility.yul\":5103:5105   */\n      dup2\n        /* \"#utility.yul\":5089:5101   */\n      dup6\n        /* \"#utility.yul\":5085:5106   */\n      add\n        /* \"#utility.yul\":5079:5107   */\n      mload\n        /* \"#utility.yul\":5073:5076   */\n      0x0120\n        /* \"#utility.yul\":5065:5071   */\n      dup12\n        /* \"#utility.yul\":5061:5077   */\n      add\n        /* \"#utility.yul\":5054:5108   */\n      mstore\n        /* \"#utility.yul\":5170:5172   */\n      dup6\n        /* \"#utility.yul\":5156:5168   */\n      dup6\n        /* \"#utility.yul\":5152:5173   */\n      add\n        /* \"#utility.yul\":5146:5174   */\n      mload\n        /* \"#utility.yul\":5140:5143   */\n      0x0140\n        /* \"#utility.yul\":5132:5138   */\n      dup12\n        /* \"#utility.yul\":5128:5144   */\n      add\n        /* \"#utility.yul\":5121:5175   */\n      mstore\n        /* \"#utility.yul\":5234:5236   */\n      dup1\n        /* \"#utility.yul\":5220:5232   */\n      dup6\n        /* \"#utility.yul\":5216:5237   */\n      add\n        /* \"#utility.yul\":5210:5238   */\n      mload\n        /* \"#utility.yul\":5188:5238   */\n      swap6\n      pop\n      pop\n        /* \"#utility.yul\":5301:5367   */\n      0xffffffffffffffffffffffffffffffffffffffffffffffffffffffffffffff60\n        /* \"#utility.yul\":5292:5298   */\n      dup10\n        /* \"#utility.yul\":5284:5290   */\n      dup5\n        /* \"#utility.yul\":5280:5299   */\n      sub\n        /* \"#utility.yul\":5276:5368   */\n      add\n        /* \"#utility.yul\":5270:5273   */\n      0x0160\n        /* \"#utility.yul\":5262:5268   */\n      dup11\n        /* \"#utility.yul\":5258:5274   */\n      add\n        /* \"#utility.yul\":5251:5369   */\n      mstore\n        /* \"#utility.yul\":5393:5434   */\n      tag_615\n        /* \"#utility.yul\":5427:5433   */\n      dup4\n        /* \"#utility.yul\":5411:5425   */\n      dup7\n        /* \"#utility.yul\":5393:5434   */\n      tag_554\n      jump\t// in\n    tag_615:\n        /* \"#utility.yul\":5382:5434   */\n      swap5\n      pop\n        /* \"#utility.yul\":5485:5487   */\n      dup13\n        /* \"#utility.yul\":5481:5483   */\n      dup7\n        /* \"#utility.yul\":5477:5488   */\n      add\n        /* \"#utility.yul\":5471:5489   */\n      mload\n        /* \"#utility.yul\":5466:5468   */\n      dup14\n        /* \"#utility.yul\":5458:5464   */\n      dup11\n        /* \"#utility.yul\":5454:5469   */\n      add\n        /* \"#utility.yul\":5447:5490   */\n      mstore\n        /* \"#utility.yul\":5539:5541   */\n      dup12\n        /* \"#utility.yul\":5535:5537   */\n      dup7\n        /* \"#utility.yul\":5531:5542   */\n      add\n        /* \"#utility.yul\":5525:5543   */\n      mload\n        /* \"#utility.yul\":5503:5543   */\n      swap4\n      pop\n        /* \"#utility.yul\":5589:5595   */\n      dup9\n        /* \"#utility.yul\":5584:5587   */\n      dup6\n        /* \"#utility.yul\":5580:5596   */\n      sub\n        /* \"#utility.yul\":5575:5577   */\n      dup13\n        /* \"#utility.yul\":5567:5573   */\n      dup11\n        /* \"#utility.yul\":5563:5578   */\n      add\n        /* \"#utility.yul\":5556:5597   */\n      mstore\n        /* \"#utility.yul\":5624:5662   */\n      tag_616\n        /* \"#utility.yul\":5658:5661   */\n      dup6\n        /* \"#utility.yul\":5642:5656   */\n      dup6\n        /* \"#utility.yul\":5624:5662   */\n      tag_554\n      jump\t// in\n    tag_616:\n        /* \"#utility.yul\":5610:5662   */\n      swap5\n      pop\n        /* \"#utility.yul\":5711:5713   */\n      dup2\n        /* \"#utility.yul\":5707:5709   */\n      dup7\n        /* \"#utility.yul\":5703:5714   */\n      add\n        /* \"#utility.yul\":5697:5715   */\n      mload\n        /* \"#utility.yul\":5675:5715   */\n      swap4\n      pop\n        /* \"#utility.yul\":5728:5786   */\n      tag_617\n        /* \"#utility.yul\":5782:5784   */\n      dup3\n        /* \"#utility.yul\":5774:5780   */\n      dup11\n        /* \"#utility.yul\":5770:5785   */\n      add\n        /* \"#utility.yul\":5754:5768   */\n      dup6\n        /* \"#utility.yul\":5728:5786   */\n      tag_555\n      jump\t// in\n    tag_617:\n        /* \"#utility.yul\":5829:5840   */\n      swap5\n      dup6\n      add\n        /* \"#utility.yul\":5823:5841   */\n      mload\n        /* \"#utility.yul\":5806:5821   */\n      swap8\n      swap1\n      swap5\n      add\n        /* \"#utility.yul\":5799:5842   */\n      swap7\n      swap1\n      swap7\n      mstore\n      pop\n        /* \"#utility.yul\":5929:5941   */\n      swap6\n      dup9\n      add\n      swap6\n        /* \"#utility.yul\":5865:5871   */\n      swap4\n      pop\n      pop\n        /* \"#utility.yul\":5894:5909   */\n      swap1\n      dup7\n      add\n      swap1\n        /* \"#utility.yul\":4267:4268   */\n      0x01\n        /* \"#utility.yul\":4260:4269   */\n      add\n        /* \"#utility.yul\":4231:5951   */\n      jump(tag_611)\n    tag_613:\n      pop\n        /* \"#utility.yul\":5968:5974   */\n      swap1\n      swap9\n        /* \"#utility.yul\":3659:5980   */\n      swap8\n      pop\n      pop\n      pop\n      pop\n      pop\n      pop\n      pop\n      pop\n      jump\t// out\n        /* \"#utility.yul\":5985:6239   */\n    tag_71:\n        /* \"#utility.yul\":6053:6059   */\n      0x00\n        /* \"#utility.yul\":6061:6067   */\n      dup1\n        /* \"#utility.yul\":6114:6116   */\n      0x40\n        /* \"#utility.yul\":6102:6111   */\n      dup4\n        /* \"#utility.yul\":6093:6100   */\n      dup6\n        /* \"#utility.yul\":6089:6112   */\n      sub\n        /* \"#utility.yul\":6085:6117   */\n      slt\n        /* \"#utility.yul\":6082:6134   */\n      iszero\n      tag_619\n      jumpi\n        /* \"#utility.yul\":6130:6131   */\n      0x00\n        /* \"#utility.yul\":6127:6128   */\n      dup1\n        /* \"#utility.yul\":6120:6132   */\n      revert\n        /* \"#utility.yul\":6082:6134   */\n    tag_619:\n        /* \"#utility.yul\":6153:6182   */\n      tag_620\n        /* \"#utility.yul\":6172:6181   */\n      dup4\n        /* \"#utility.yul\":6153:6182   */\n      tag_548\n      jump\t// in\n    tag_620:\n        /* \"#utility.yul\":6143:6182   */\n      swap5\n        /* \"#utility.yul\":6229:6231   */\n      0x20\n        /* \"#utility.yul\":6214:6232   */\n      swap4\n      swap1\n      swap4\n      add\n        /* \"#utility.yul\":6201:6233   */\n      calldataload\n      swap4\n      pop\n      pop\n      pop\n        /* \"#utility.yul\":5985:6239   */\n      jump\t// out\n        /* \"#utility.yul\":6244:6585   */\n    tag_75:\n        /* \"#utility.yul\":6329:6335   */\n      0x00\n        /* \"#utility.yul\":6337:6343   */\n      dup1\n        /* \"#utility.yul\":6390:6392   */\n      0x40\n        /* \"#utility.yul\":6378:6387   */\n      dup4\n        /* \"#utility.yul\":6369:6376   */\n      dup6\n        /* \"#utility.yul\":6365:6388   */\n      sub\n        /* \"#utility.yul\":6361:6393   */\n      slt\n        /* \"#utility.yul\":6358:6410   */\n      iszero\n      tag_622\n      jumpi\n        /* \"#utility.yul\":6406:6407   */\n      0x00\n        /* \"#utility.yul\":6403:6404   */\n      dup1\n        /* \"#utility.yul\":6396:6408   */\n      revert\n        /* \"#utility.yul\":6358:6410   */\n    tag_622:\n        /* \"#utility.yul\":6442:6451   */\n      dup3\n        /* \"#utility.yul\":6429:6452   */\n      calldataload\n        /* \"#utility.yul\":6419:6452   */\n      swap2\n      pop\n        /* \"#utility.yul\":6502:6504   */\n      0x20\n        /* \"#utility.yul\":6491:6500   */\n      dup4\n        /* \"#utility.yul\":6487:6505   */\n      add\n        /* \"#utility.yul\":6474:6506   */\n      calldataload\n        /* \"#utility.yul\":6535:6536   */\n      0x08\n        /* \"#utility.yul\":6528:6533   */\n      dup2\n        /* \"#utility.yul\":6525:6537   */\n      lt\n        /* \"#utility.yul\":6515:6555   */\n      tag_623\n      jumpi\n        /* \"#utility.yul\":6551:6552   */\n      0x00\n        /* \"#utility.yul\":6548:6549   */\n      dup1\n        /* \"#utility.yul\":6541:6553   */\n      revert\n        /* \"#utility.yul\":6515:6555   */\n    tag_623:\n        /* \"#utility.yul\":6574:6579   */\n      dup1\n        /* \"#utility.yul\":6564:6579   */\n      swap2\n      pop\n      pop\n        /* \"#utility.yul\":6244:6585   */\n      swap3\n      pop\n      swap3\n      swap1\n      pop\n      jump\t// out\n        /* \"#utility.yul\":6590:6844   */\n    tag_79:\n        /* \"#utility.yul\":6658:6664   */\n      0x00\n        /* \"#utility.yul\":6666:6672   */\n      dup1\n        /* \"#utility.yul\":6719:6721   */\n      0x40\n        /* \"#utility.yul\":6707:6716   */\n      dup4\n        /* \"#utility.yul\":6698:6705   */\n      dup6\n        /* \"#utility.yul\":6694:6717   */\n      sub\n        /* \"#utility.yul\":6690:6722   */\n      slt\n        /* \"#utility.yul\":6687:6739   */\n      iszero\n      tag_625\n      jumpi\n        /* \"#utility.yul\":6735:6736   */\n      0x00\n        /* \"#utility.yul\":6732:6733   */\n      dup1\n        /* \"#utility.yul\":6725:6737   */\n      revert\n        /* \"#utility.yul\":6687:6739   */\n    tag_625:\n        /* \"#utility.yul\":6771:6780   */\n      dup3\n        /* \"#utility.yul\":6758:6781   */\n      calldataload\n        /* \"#utility.yul\":6748:6781   */\n      swap2\n      pop\n        /* \"#utility.yul\":6800:6838   */\n      tag_626\n        /* \"#utility.yul\":6834:6836   */\n      0x20\n        /* \"#utility.yul\":6823:6832   */\n      dup5\n        /* \"#utility.yul\":6819:6837   */\n      add\n        /* \"#utility.yul\":6800:6838   */\n      tag_548\n      jump\t// in\n    tag_626:\n        /* \"#utility.yul\":6790:6838   */\n      swap1\n      pop\n        /* \"#utility.yul\":6590:6844   */\n      swap3\n      pop\n      swap3\n      swap1\n      pop\n      jump\t// out\n        /* \"#utility.yul\":7031:7514   */\n    tag_85:\n        /* \"#utility.yul\":7133:7139   */\n      0x00\n        /* \"#utility.yul\":7141:7147   */\n      dup1\n        /* \"#utility.yul\":7149:7155   */\n      0x00\n        /* \"#utility.yul\":7157:7163   */\n      dup1\n        /* \"#utility.yul\":7210:7213   */\n      0x80\n        /* \"#utility.yul\":7198:7207   */\n      dup6\n        /* \"#utility.yul\":7189:7196   */\n      dup8\n        /* \"#utility.yul\":7185:7208   */\n      sub\n        /* \"#utility.yul\":7181:7214   */\n      slt\n        /* \"#utility.yul\":7178:7231   */\n      iszero\n      tag_629\n      jumpi\n        /* \"#utility.yul\":7227:7228   */\n      0x00\n        /* \"#utility.yul\":7224:7225   */\n      dup1\n        /* \"#utility.yul\":7217:7229   */\n      revert\n        /* \"#utility.yul\":7178:7231   */\n    tag_629:\n        /* \"#utility.yul\":7263:7272   */\n      dup5\n        /* \"#utility.yul\":7250:7273   */\n      calldataload\n        /* \"#utility.yul\":7240:7273   */\n      swap4\n      pop\n        /* \"#utility.yul\":7292:7330   */\n      tag_630\n        /* \"#utility.yul\":7326:7328   */\n      0x20\n        /* \"#utility.yul\":7315:7324   */\n      dup7\n        /* \"#utility.yul\":7311:7329   */\n      add\n        /* \"#utility.yul\":7292:7330   */\n      tag_548\n      jump\t// in\n    tag_630:\n        /* \"#utility.yul\":7282:7330   */\n      swap3\n      pop\n        /* \"#utility.yul\":7377:7379   */\n      0x40\n        /* \"#utility.yul\":7366:7375   */\n      dup6\n        /* \"#utility.yul\":7362:7380   */\n      add\n        /* \"#utility.yul\":7349:7381   */\n      calldataload\n        /* \"#utility.yul\":7339:7381   */\n      swap2\n      pop\n        /* \"#utility.yul\":7431:7433   */\n      0x60\n        /* \"#utility.yul\":7420:7429   */\n      dup6\n        /* \"#utility.yul\":7416:7434   */\n      add\n        /* \"#utility.yul\":7403:7435   */\n      calldataload\n        /* \"#utility.yul\":7464:7465   */\n      0x05\n        /* \"#utility.yul\":7457:7462   */\n      dup2\n        /* \"#utility.yul\":7454:7466   */\n      lt\n        /* \"#utility.yul\":7444:7484   */\n      tag_631\n      jumpi\n        /* \"#utility.yul\":7480:7481   */\n      0x00\n        /* \"#utility.yul\":7477:7478   */\n      dup1\n        /* \"#utility.yul\":7470:7482   */\n      revert\n        /* \"#utility.yul\":7444:7484   */\n    tag_631:\n        /* \"#utility.yul\":7031:7514   */\n      swap4\n      swap7\n      swap3\n      swap6\n      pop\n      swap1\n      swap4\n      pop\n      pop\n      jump\t// out\n        /* \"#utility.yul\":7519:7702   */\n    tag_556:\n        /* \"#utility.yul\":7579:7583   */\n      0x00\n        /* \"#utility.yul\":7612:7630   */\n      0xffffffffffffffff\n        /* \"#utility.yul\":7604:7610   */\n      dup3\n        /* \"#utility.yul\":7601:7631   */\n      gt\n        /* \"#utility.yul\":7598:7654   */\n      iszero\n      tag_634\n      jumpi\n        /* \"#utility.yul\":7634:7652   */\n      tag_634\n      tag_373\n      jump\t// in\n    tag_634:\n      pop\n        /* \"#utility.yul\":7679:7680   */\n      0x05\n        /* \"#utility.yul\":7675:7689   */\n      shl\n        /* \"#utility.yul\":7691:7695   */\n      0x20\n        /* \"#utility.yul\":7671:7696   */\n      add\n      swap1\n        /* \"#utility.yul\":7519:7702   */\n      jump\t// out\n        /* \"#utility.yul\":7707:8369   */\n    tag_557:\n        /* \"#utility.yul\":7761:7766   */\n      0x00\n        /* \"#utility.yul\":7814:7817   */\n      dup3\n        /* \"#utility.yul\":7807:7811   */\n      0x1f\n        /* \"#utility.yul\":7799:7805   */\n      dup4\n        /* \"#utility.yul\":7795:7812   */\n      add\n        /* \"#utility.yul\":7791:7818   */\n      slt\n        /* \"#utility.yul\":7781:7836   */\n      tag_636\n      jumpi\n        /* \"#utility.yul\":7832:7833   */\n      0x00\n        /* \"#utility.yul\":7829:7830   */\n      dup1\n        /* \"#utility.yul\":7822:7834   */\n      revert\n        /* \"#utility.yul\":7781:7836   */\n    tag_636:\n        /* \"#utility.yul\":7868:7874   */\n      dup2\n        /* \"#utility.yul\":7855:7875   */\n      calldataload\n        /* \"#utility.yul\":7894:7898   */\n      0x20\n        /* \"#utility.yul\":7918:7978   */\n      tag_637\n        /* \"#utility.yul\":7934:7977   */\n      tag_638\n        /* \"#utility.yul\":7974:7976   */\n      dup4\n        /* \"#utility.yul\":7934:7977   */\n      tag_556\n      jump\t// in\n    tag_638:\n        /* \"#utility.yul\":7918:7978   */\n      tag_552\n      jump\t// in\n    tag_637:\n        /* \"#utility.yul\":8012:8027   */\n      dup3\n      dup2\n      mstore\n        /* \"#utility.yul\":8098:8099   */\n      0x05\n        /* \"#utility.yul\":8094:8104   */\n      swap3\n      swap1\n      swap3\n      shl\n        /* \"#utility.yul\":8082:8105   */\n      dup5\n      add\n        /* \"#utility.yul\":8078:8110   */\n      dup2\n      add\n      swap2\n        /* \"#utility.yul\":8043:8055   */\n      dup2\n      dup2\n      add\n      swap1\n        /* \"#utility.yul\":8122:8137   */\n      dup7\n      dup5\n      gt\n        /* \"#utility.yul\":8119:8154   */\n      iszero\n      tag_639\n      jumpi\n        /* \"#utility.yul\":8150:8151   */\n      0x00\n        /* \"#utility.yul\":8147:8148   */\n      dup1\n        /* \"#utility.yul\":8140:8152   */\n      revert\n        /* \"#utility.yul\":8119:8154   */\n    tag_639:\n        /* \"#utility.yul\":8186:8188   */\n      dup3\n        /* \"#utility.yul\":8178:8184   */\n      dup7\n        /* \"#utility.yul\":8174:8189   */\n      add\n        /* \"#utility.yul\":8198:8340   */\n    tag_640:\n        /* \"#utility.yul\":8214:8220   */\n      dup5\n        /* \"#utility.yul\":8209:8212   */\n      dup2\n        /* \"#utility.yul\":8206:8221   */\n      lt\n        /* \"#utility.yul\":8198:8340   */\n      iszero\n      tag_642\n      jumpi\n        /* \"#utility.yul\":8280:8297   */\n      dup1\n      calldataload\n        /* \"#utility.yul\":8268:8298   */\n      dup4\n      mstore\n        /* \"#utility.yul\":8318:8330   */\n      swap2\n      dup4\n      add\n      swap2\n        /* \"#utility.yul\":8231:8243   */\n      dup4\n      add\n        /* \"#utility.yul\":8198:8340   */\n      jump(tag_640)\n    tag_642:\n      pop\n        /* \"#utility.yul\":8358:8363   */\n      swap7\n        /* \"#utility.yul\":7707:8369   */\n      swap6\n      pop\n      pop\n      pop\n      pop\n      pop\n      pop\n      jump\t// out\n        /* \"#utility.yul\":8374:8534   */\n    tag_558:\n        /* \"#utility.yul\":8439:8459   */\n      dup1\n      calldataload\n        /* \"#utility.yul\":8495:8508   */\n      dup1\n      iszero\n        /* \"#utility.yul\":8488:8509   */\n      iszero\n        /* \"#utility.yul\":8478:8510   */\n      dup2\n      eq\n        /* \"#utility.yul\":8468:8528   */\n      tag_575\n      jumpi\n        /* \"#utility.yul\":8524:8525   */\n      0x00\n        /* \"#utility.yul\":8521:8522   */\n      dup1\n        /* \"#utility.yul\":8514:8526   */\n      revert\n        /* \"#utility.yul\":8539:8690   */\n    tag_559:\n        /* \"#utility.yul\":8614:8634   */\n      dup1\n      calldataload\n        /* \"#utility.yul\":8663:8665   */\n      0x0c\n        /* \"#utility.yul\":8653:8666   */\n      dup2\n      lt\n        /* \"#utility.yul\":8643:8684   */\n      tag_575\n      jumpi\n        /* \"#utility.yul\":8680:8681   */\n      0x00\n        /* \"#utility.yul\":8677:8678   */\n      dup1\n        /* \"#utility.yul\":8670:8682   */\n      revert\n        /* \"#utility.yul\":8695:11157   */\n    tag_560:\n        /* \"#utility.yul\":8757:8762   */\n      0x00\n        /* \"#utility.yul\":8810:8813   */\n      dup3\n        /* \"#utility.yul\":8803:8807   */\n      0x1f\n        /* \"#utility.yul\":8795:8801   */\n      dup4\n        /* \"#utility.yul\":8791:8808   */\n      add\n        /* \"#utility.yul\":8787:8814   */\n      slt\n        /* \"#utility.yul\":8777:8832   */\n      tag_648\n      jumpi\n        /* \"#utility.yul\":8828:8829   */\n      0x00\n        /* \"#utility.yul\":8825:8826   */\n      dup1\n        /* \"#utility.yul\":8818:8830   */\n      revert\n        /* \"#utility.yul\":8777:8832   */\n    tag_648:\n        /* \"#utility.yul\":8864:8870   */\n      dup2\n        /* \"#utility.yul\":8851:8871   */\n      calldataload\n        /* \"#utility.yul\":8890:8894   */\n      0x20\n        /* \"#utility.yul\":8914:8974   */\n      tag_649\n        /* \"#utility.yul\":8930:8973   */\n      tag_638\n        /* \"#utility.yul\":8970:8972   */\n      dup4\n        /* \"#utility.yul\":8930:8973   */\n      tag_556\n      jump\t// in\n        /* \"#utility.yul\":8914:8974   */\n    tag_649:\n        /* \"#utility.yul\":9008:9023   */\n      dup3\n      dup2\n      mstore\n        /* \"#utility.yul\":9094:9095   */\n      0x05\n        /* \"#utility.yul\":9090:9100   */\n      swap3\n      swap1\n      swap3\n      shl\n        /* \"#utility.yul\":9078:9101   */\n      dup5\n      add\n        /* \"#utility.yul\":9074:9106   */\n      dup2\n      add\n      swap2\n        /* \"#utility.yul\":9039:9051   */\n      dup2\n      dup2\n      add\n      swap1\n        /* \"#utility.yul\":9118:9133   */\n      dup7\n      dup5\n      gt\n        /* \"#utility.yul\":9115:9150   */\n      iszero\n      tag_651\n      jumpi\n        /* \"#utility.yul\":9146:9147   */\n      0x00\n        /* \"#utility.yul\":9143:9144   */\n      dup1\n        /* \"#utility.yul\":9136:9148   */\n      revert\n        /* \"#utility.yul\":9115:9150   */\n    tag_651:\n        /* \"#utility.yul\":9182:9184   */\n      dup3\n        /* \"#utility.yul\":9174:9180   */\n      dup7\n        /* \"#utility.yul\":9170:9185   */\n      add\n        /* \"#utility.yul\":9194:11128   */\n    tag_652:\n        /* \"#utility.yul\":9210:9216   */\n      dup5\n        /* \"#utility.yul\":9205:9208   */\n      dup2\n        /* \"#utility.yul\":9202:9217   */\n      lt\n        /* \"#utility.yul\":9194:11128   */\n      iszero\n      tag_642\n      jumpi\n        /* \"#utility.yul\":9296:9299   */\n      dup1\n        /* \"#utility.yul\":9283:9300   */\n      calldataload\n        /* \"#utility.yul\":9323:9341   */\n      0xffffffffffffffff\n        /* \"#utility.yul\":9373:9375   */\n      dup1\n        /* \"#utility.yul\":9360:9371   */\n      dup3\n        /* \"#utility.yul\":9357:9376   */\n      gt\n        /* \"#utility.yul\":9354:9393   */\n      iszero\n      tag_655\n      jumpi\n        /* \"#utility.yul\":9389:9390   */\n      0x00\n        /* \"#utility.yul\":9386:9387   */\n      dup1\n        /* \"#utility.yul\":9379:9391   */\n      revert\n        /* \"#utility.yul\":9354:9393   */\n    tag_655:\n        /* \"#utility.yul\":9416:9440   */\n      swap1\n      dup9\n      add\n      swap1\n      not(0x1f)\n        /* \"#utility.yul\":9572:9576   */\n      0xa0\n        /* \"#utility.yul\":9553:9565   */\n      dup4\n      dup13\n      sub\n        /* \"#utility.yul\":9549:9570   */\n      dup3\n      add\n        /* \"#utility.yul\":9545:9577   */\n      slt\n        /* \"#utility.yul\":9542:9594   */\n      iszero\n      tag_656\n      jumpi\n        /* \"#utility.yul\":9590:9591   */\n      0x00\n        /* \"#utility.yul\":9587:9588   */\n      dup1\n        /* \"#utility.yul\":9580:9592   */\n      revert\n        /* \"#utility.yul\":9542:9594   */\n    tag_656:\n        /* \"#utility.yul\":9620:9642   */\n      tag_657\n      tag_549\n      jump\t// in\n    tag_657:\n        /* \"#utility.yul\":9692:9694   */\n      dup8\n        /* \"#utility.yul\":9688:9690   */\n      dup5\n        /* \"#utility.yul\":9684:9695   */\n      add\n        /* \"#utility.yul\":9671:9696   */\n      calldataload\n        /* \"#utility.yul\":9725:9727   */\n      dup4\n        /* \"#utility.yul\":9715:9723   */\n      dup2\n        /* \"#utility.yul\":9712:9728   */\n      gt\n        /* \"#utility.yul\":9709:9745   */\n      iszero\n      tag_658\n      jumpi\n        /* \"#utility.yul\":9741:9742   */\n      0x00\n        /* \"#utility.yul\":9738:9739   */\n      dup1\n        /* \"#utility.yul\":9731:9743   */\n      revert\n        /* \"#utility.yul\":9709:9745   */\n    tag_658:\n        /* \"#utility.yul\":9768:9785   */\n      dup5\n      add\n        /* \"#utility.yul\":9828:9832   */\n      0xe0\n        /* \"#utility.yul\":9809:9821   */\n      dup2\n      dup15\n      sub\n        /* \"#utility.yul\":9805:9826   */\n      dup5\n      add\n        /* \"#utility.yul\":9801:9833   */\n      slt\n        /* \"#utility.yul\":9798:9850   */\n      iszero\n      tag_659\n      jumpi\n        /* \"#utility.yul\":9846:9847   */\n      0x00\n        /* \"#utility.yul\":9843:9844   */\n      dup1\n        /* \"#utility.yul\":9836:9848   */\n      revert\n        /* \"#utility.yul\":9798:9850   */\n    tag_659:\n        /* \"#utility.yul\":9878:9900   */\n      tag_660\n      tag_550\n      jump\t// in\n    tag_660:\n        /* \"#utility.yul\":9863:9900   */\n      swap3\n      pop\n        /* \"#utility.yul\":9950:9952   */\n      dup9\n        /* \"#utility.yul\":9946:9948   */\n      dup2\n        /* \"#utility.yul\":9942:9953   */\n      add\n        /* \"#utility.yul\":9929:9954   */\n      calldataload\n        /* \"#utility.yul\":9983:9985   */\n      dup5\n        /* \"#utility.yul\":9973:9981   */\n      dup2\n        /* \"#utility.yul\":9970:9986   */\n      gt\n        /* \"#utility.yul\":9967:10003   */\n      iszero\n      tag_661\n      jumpi\n        /* \"#utility.yul\":9999:10000   */\n      0x00\n        /* \"#utility.yul\":9996:9997   */\n      dup1\n        /* \"#utility.yul\":9989:10001   */\n      revert\n        /* \"#utility.yul\":9967:10003   */\n    tag_661:\n        /* \"#utility.yul\":10032:10082   */\n      tag_662\n        /* \"#utility.yul\":10078:10081   */\n      dup15\n        /* \"#utility.yul\":10073:10075   */\n      dup12\n        /* \"#utility.yul\":10062:10070   */\n      dup4\n        /* \"#utility.yul\":10058:10060   */\n      dup6\n        /* \"#utility.yul\":10054:10071   */\n      add\n        /* \"#utility.yul\":10050:10076   */\n      add\n        /* \"#utility.yul\":10032:10082   */\n      tag_553\n      jump\t// in\n    tag_662:\n        /* \"#utility.yul\":10023:10030   */\n      dup5\n        /* \"#utility.yul\":10016:10083   */\n      mstore\n      pop\n        /* \"#utility.yul\":10142:10144   */\n      0x40\n        /* \"#utility.yul\":10138:10140   */\n      dup2\n        /* \"#utility.yul\":10134:10145   */\n      add\n        /* \"#utility.yul\":10121:10146   */\n      calldataload\n        /* \"#utility.yul\":10116:10118   */\n      dup10\n        /* \"#utility.yul\":10107:10114   */\n      dup5\n        /* \"#utility.yul\":10103:10119   */\n      add\n        /* \"#utility.yul\":10096:10147   */\n      mstore\n        /* \"#utility.yul\":10206:10208   */\n      0x60\n        /* \"#utility.yul\":10202:10204   */\n      dup2\n        /* \"#utility.yul\":10198:10209   */\n      add\n        /* \"#utility.yul\":10185:10210   */\n      calldataload\n        /* \"#utility.yul\":10180:10182   */\n      0x40\n        /* \"#utility.yul\":10171:10178   */\n      dup5\n        /* \"#utility.yul\":10167:10183   */\n      add\n        /* \"#utility.yul\":10160:10211   */\n      mstore\n        /* \"#utility.yul\":10234:10237   */\n      0x80\n        /* \"#utility.yul\":10296:10298   */\n      dup1\n        /* \"#utility.yul\":10292:10294   */\n      dup3\n        /* \"#utility.yul\":10288:10299   */\n      add\n        /* \"#utility.yul\":10275:10300   */\n      calldataload\n        /* \"#utility.yul\":10270:10272   */\n      0x60\n        /* \"#utility.yul\":10261:10268   */\n      dup6\n        /* \"#utility.yul\":10257:10273   */\n      add\n        /* \"#utility.yul\":10250:10301   */\n      mstore\n        /* \"#utility.yul\":10360:10364   */\n      0xa0\n        /* \"#utility.yul\":10356:10358   */\n      dup3\n        /* \"#utility.yul\":10352:10365   */\n      add\n        /* \"#utility.yul\":10339:10366   */\n      calldataload\n        /* \"#utility.yul\":10334:10336   */\n      dup2\n        /* \"#utility.yul\":10325:10332   */\n      dup6\n        /* \"#utility.yul\":10321:10337   */\n      add\n        /* \"#utility.yul\":10314:10367   */\n      mstore\n        /* \"#utility.yul\":10428:10431   */\n      0xc0\n        /* \"#utility.yul\":10424:10426   */\n      dup3\n        /* \"#utility.yul\":10420:10432   */\n      add\n        /* \"#utility.yul\":10407:10433   */\n      calldataload\n        /* \"#utility.yul\":10400:10404   */\n      0xa0\n        /* \"#utility.yul\":10391:10398   */\n      dup6\n        /* \"#utility.yul\":10387:10405   */\n      add\n        /* \"#utility.yul\":10380:10434   */\n      mstore\n        /* \"#utility.yul\":10484:10488   */\n      0xe0\n        /* \"#utility.yul\":10480:10482   */\n      dup3\n        /* \"#utility.yul\":10476:10489   */\n      add\n        /* \"#utility.yul\":10463:10490   */\n      calldataload\n        /* \"#utility.yul\":10519:10521   */\n      dup6\n        /* \"#utility.yul\":10509:10517   */\n      dup2\n        /* \"#utility.yul\":10506:10522   */\n      gt\n        /* \"#utility.yul\":10503:10539   */\n      iszero\n      tag_663\n      jumpi\n        /* \"#utility.yul\":10535:10536   */\n      0x00\n        /* \"#utility.yul\":10532:10533   */\n      dup1\n        /* \"#utility.yul\":10525:10537   */\n      revert\n        /* \"#utility.yul\":10503:10539   */\n    tag_663:\n        /* \"#utility.yul\":10578:10628   */\n      tag_664\n        /* \"#utility.yul\":10624:10627   */\n      dup16\n        /* \"#utility.yul\":10619:10621   */\n      dup13\n        /* \"#utility.yul\":10608:10616   */\n      dup4\n        /* \"#utility.yul\":10604:10606   */\n      dup7\n        /* \"#utility.yul\":10600:10617   */\n      add\n        /* \"#utility.yul\":10596:10622   */\n      add\n        /* \"#utility.yul\":10578:10628   */\n      tag_553\n      jump\t// in\n    tag_664:\n        /* \"#utility.yul\":10572:10575   */\n      0xc0\n        /* \"#utility.yul\":10559:10576   */\n      dup7\n      add\n        /* \"#utility.yul\":10552:10629   */\n      mstore\n      pop\n        /* \"#utility.yul\":10642:10664   */\n      swap3\n      dup3\n      mstore\n        /* \"#utility.yul\":10721:10723   */\n      0x40\n        /* \"#utility.yul\":10713:10724   */\n      dup6\n      add\n        /* \"#utility.yul\":10700:10725   */\n      calldataload\n        /* \"#utility.yul\":10684:10698   */\n      dup10\n      dup4\n      add\n        /* \"#utility.yul\":10677:10726   */\n      mstore\n        /* \"#utility.yul\":10776:10778   */\n      0x60\n        /* \"#utility.yul\":10768:10779   */\n      dup6\n      add\n        /* \"#utility.yul\":10755:10780   */\n      calldataload\n      swap3\n        /* \"#utility.yul\":10796:10812   */\n      dup5\n      dup5\n      gt\n        /* \"#utility.yul\":10793:10829   */\n      iszero\n      tag_665\n      jumpi\n        /* \"#utility.yul\":10825:10826   */\n      0x00\n        /* \"#utility.yul\":10822:10823   */\n      dup1\n        /* \"#utility.yul\":10815:10827   */\n      revert\n        /* \"#utility.yul\":10793:10829   */\n    tag_665:\n        /* \"#utility.yul\":10865:10915   */\n      tag_666\n        /* \"#utility.yul\":10911:10914   */\n      dup15\n        /* \"#utility.yul\":10906:10908   */\n      dup12\n        /* \"#utility.yul\":10895:10903   */\n      dup7\n        /* \"#utility.yul\":10891:10893   */\n      dup10\n        /* \"#utility.yul\":10887:10904   */\n      add\n        /* \"#utility.yul\":10883:10909   */\n      add\n        /* \"#utility.yul\":10865:10915   */\n      tag_553\n      jump\t// in\n    tag_666:\n        /* \"#utility.yul\":10860:10862   */\n      0x40\n        /* \"#utility.yul\":10853:10858   */\n      dup5\n        /* \"#utility.yul\":10849:10863   */\n      add\n        /* \"#utility.yul\":10842:10916   */\n      mstore\n        /* \"#utility.yul\":10952:10990   */\n      tag_667\n        /* \"#utility.yul\":10986:10988   */\n      dup2\n        /* \"#utility.yul\":10982:10984   */\n      dup8\n        /* \"#utility.yul\":10978:10989   */\n      add\n        /* \"#utility.yul\":10952:10990   */\n      tag_559\n      jump\t// in\n    tag_667:\n        /* \"#utility.yul\":10947:10949   */\n      0x60\n        /* \"#utility.yul\":10936:10950   */\n      dup5\n      add\n        /* \"#utility.yul\":10929:10991   */\n      mstore\n        /* \"#utility.yul\":11048:11052   */\n      0xa0\n        /* \"#utility.yul\":11040:11053   */\n      swap6\n      swap1\n      swap6\n      add\n        /* \"#utility.yul\":11027:11054   */\n      calldataload\n        /* \"#utility.yul\":11011:11025   */\n      swap5\n      dup3\n      add\n        /* \"#utility.yul\":11004:11055   */\n      swap5\n      swap1\n      swap5\n      mstore\n        /* \"#utility.yul\":11068:11086   */\n      dup7\n      mstore\n      pop\n      pop\n      pop\n        /* \"#utility.yul\":11106:11118   */\n      swap2\n      dup4\n      add\n      swap2\n        /* \"#utility.yul\":9227:9239   */\n      dup4\n      add\n        /* \"#utility.yul\":9194:11128   */\n      jump(tag_652)\n        /* \"#utility.yul\":11162:12818   */\n    tag_561:\n        /* \"#utility.yul\":11216:11221   */\n      0x00\n        /* \"#utility.yul\":11264:11270   */\n      0x01a0\n        /* \"#utility.yul\":11252:11261   */\n      dup3\n        /* \"#utility.yul\":11247:11250   */\n      dup5\n        /* \"#utility.yul\":11243:11262   */\n      sub\n        /* \"#utility.yul\":11239:11271   */\n      slt\n        /* \"#utility.yul\":11236:11288   */\n      iszero\n      tag_669\n      jumpi\n        /* \"#utility.yul\":11284:11285   */\n      0x00\n        /* \"#utility.yul\":11281:11282   */\n      dup1\n        /* \"#utility.yul\":11274:11286   */\n      revert\n        /* \"#utility.yul\":11236:11288   */\n    tag_669:\n        /* \"#utility.yul\":11306:11328   */\n      tag_670\n      tag_551\n      jump\t// in\n    tag_670:\n        /* \"#utility.yul\":11297:11328   */\n      swap1\n      pop\n        /* \"#utility.yul\":11364:11373   */\n      dup2\n        /* \"#utility.yul\":11351:11374   */\n      calldataload\n        /* \"#utility.yul\":11344:11349   */\n      dup2\n        /* \"#utility.yul\":11337:11375   */\n      mstore\n        /* \"#utility.yul\":11426:11428   */\n      0x20\n        /* \"#utility.yul\":11415:11424   */\n      dup3\n        /* \"#utility.yul\":11411:11429   */\n      add\n        /* \"#utility.yul\":11398:11430   */\n      calldataload\n        /* \"#utility.yul\":11449:11467   */\n      0xffffffffffffffff\n        /* \"#utility.yul\":11490:11492   */\n      dup1\n        /* \"#utility.yul\":11482:11488   */\n      dup3\n        /* \"#utility.yul\":11479:11493   */\n      gt\n        /* \"#utility.yul\":11476:11510   */\n      iszero\n      tag_671\n      jumpi\n        /* \"#utility.yul\":11506:11507   */\n      0x00\n        /* \"#utility.yul\":11503:11504   */\n      dup1\n        /* \"#utility.yul\":11496:11508   */\n      revert\n        /* \"#utility.yul\":11476:11510   */\n    tag_671:\n        /* \"#utility.yul\":11542:11588   */\n      tag_672\n        /* \"#utility.yul\":11584:11587   */\n      dup6\n        /* \"#utility.yul\":11575:11581   */\n      dup4\n        /* \"#utility.yul\":11564:11573   */\n      dup7\n        /* \"#utility.yul\":11560:11582   */\n      add\n        /* \"#utility.yul\":11542:11588   */\n      tag_553\n      jump\t// in\n    tag_672:\n        /* \"#utility.yul\":11537:11539   */\n      0x20\n        /* \"#utility.yul\":11530:11535   */\n      dup5\n        /* \"#utility.yul\":11526:11540   */\n      add\n        /* \"#utility.yul\":11519:11589   */\n      mstore\n        /* \"#utility.yul\":11642:11644   */\n      0x40\n        /* \"#utility.yul\":11631:11640   */\n      dup5\n        /* \"#utility.yul\":11627:11645   */\n      add\n        /* \"#utility.yul\":11614:11646   */\n      calldataload\n        /* \"#utility.yul\":11598:11646   */\n      swap2\n      pop\n        /* \"#utility.yul\":11671:11673   */\n      dup1\n        /* \"#utility.yul\":11661:11669   */\n      dup3\n        /* \"#utility.yul\":11658:11674   */\n      gt\n        /* \"#utility.yul\":11655:11691   */\n      iszero\n      tag_673\n      jumpi\n        /* \"#utility.yul\":11687:11688   */\n      0x00\n        /* \"#utility.yul\":11684:11685   */\n      dup1\n        /* \"#utility.yul\":11677:11689   */\n      revert\n        /* \"#utility.yul\":11655:11691   */\n    tag_673:\n        /* \"#utility.yul\":11723:11771   */\n      tag_674\n        /* \"#utility.yul\":11767:11770   */\n      dup6\n        /* \"#utility.yul\":11756:11764   */\n      dup4\n        /* \"#utility.yul\":11745:11754   */\n      dup7\n        /* \"#utility.yul\":11741:11765   */\n      add\n        /* \"#utility.yul\":11723:11771   */\n      tag_553\n      jump\t// in\n    tag_674:\n        /* \"#utility.yul\":11718:11720   */\n      0x40\n        /* \"#utility.yul\":11711:11716   */\n      dup5\n        /* \"#utility.yul\":11707:11721   */\n      add\n        /* \"#utility.yul\":11700:11772   */\n      mstore\n        /* \"#utility.yul\":11832:11834   */\n      0x60\n        /* \"#utility.yul\":11821:11830   */\n      dup5\n        /* \"#utility.yul\":11817:11835   */\n      add\n        /* \"#utility.yul\":11804:11836   */\n      calldataload\n        /* \"#utility.yul\":11799:11801   */\n      0x60\n        /* \"#utility.yul\":11792:11797   */\n      dup5\n        /* \"#utility.yul\":11788:11802   */\n      add\n        /* \"#utility.yul\":11781:11837   */\n      mstore\n        /* \"#utility.yul\":11898:11901   */\n      0x80\n        /* \"#utility.yul\":11887:11896   */\n      dup5\n        /* \"#utility.yul\":11883:11902   */\n      add\n        /* \"#utility.yul\":11870:11903   */\n      calldataload\n        /* \"#utility.yul\":11864:11867   */\n      0x80\n        /* \"#utility.yul\":11857:11862   */\n      dup5\n        /* \"#utility.yul\":11853:11868   */\n      add\n        /* \"#utility.yul\":11846:11904   */\n      mstore\n        /* \"#utility.yul\":11965:11968   */\n      0xa0\n        /* \"#utility.yul\":11954:11963   */\n      dup5\n        /* \"#utility.yul\":11950:11969   */\n      add\n        /* \"#utility.yul\":11937:11970   */\n      calldataload\n        /* \"#utility.yul\":11931:11934   */\n      0xa0\n        /* \"#utility.yul\":11924:11929   */\n      dup5\n        /* \"#utility.yul\":11920:11935   */\n      add\n        /* \"#utility.yul\":11913:11971   */\n      mstore\n        /* \"#utility.yul\":12024:12027   */\n      0xc0\n        /* \"#utility.yul\":12013:12022   */\n      dup5\n        /* \"#utility.yul\":12009:12028   */\n      add\n        /* \"#utility.yul\":11996:12029   */\n      calldataload\n        /* \"#utility.yul\":11980:12029   */\n      swap2\n      pop\n        /* \"#utility.yul\":12054:12056   */\n      dup1\n        /* \"#utility.yul\":12044:12052   */\n      dup3\n        /* \"#utility.yul\":12041:12057   */\n      gt\n        /* \"#utility.yul\":12038:12074   */\n      iszero\n      tag_675\n      jumpi\n        /* \"#utility.yul\":12070:12071   */\n      0x00\n        /* \"#utility.yul\":12067:12068   */\n      dup1\n        /* \"#utility.yul\":12060:12072   */\n      revert\n        /* \"#utility.yul\":12038:12074   */\n    tag_675:\n        /* \"#utility.yul\":12107:12166   */\n      tag_676\n        /* \"#utility.yul\":12162:12165   */\n      dup6\n        /* \"#utility.yul\":12151:12159   */\n      dup4\n        /* \"#utility.yul\":12140:12149   */\n      dup7\n        /* \"#utility.yul\":12136:12160   */\n      add\n        /* \"#utility.yul\":12107:12166   */\n      tag_557\n      jump\t// in\n    tag_676:\n        /* \"#utility.yul\":12101:12104   */\n      0xc0\n        /* \"#utility.yul\":12090:12105   */\n      dup5\n      add\n        /* \"#utility.yul\":12083:12167   */\n      mstore\n        /* \"#utility.yul\":12228:12231   */\n      0xe0\n        /* \"#utility.yul\":12213:12232   */\n      dup5\n      dup2\n      add\n        /* \"#utility.yul\":12200:12233   */\n      calldataload\n        /* \"#utility.yul\":12183:12198   */\n      swap1\n      dup5\n      add\n        /* \"#utility.yul\":12176:12234   */\n      mstore\n        /* \"#utility.yul\":12253:12256   */\n      0x0100\n        /* \"#utility.yul\":12301:12319   */\n      dup1\n      dup6\n      add\n        /* \"#utility.yul\":12288:12320   */\n      calldataload\n        /* \"#utility.yul\":12272:12286   */\n      swap1\n      dup5\n      add\n        /* \"#utility.yul\":12265:12321   */\n      mstore\n        /* \"#utility.yul\":12340:12343   */\n      0x0120\n      swap2\n      pop\n        /* \"#utility.yul\":12375:12410   */\n      tag_677\n        /* \"#utility.yul\":12391:12409   */\n      dup3\n      dup6\n      add\n        /* \"#utility.yul\":12375:12410   */\n      tag_558\n      jump\t// in\n    tag_677:\n        /* \"#utility.yul\":12370:12372   */\n      dup3\n        /* \"#utility.yul\":12363:12368   */\n      dup5\n        /* \"#utility.yul\":12359:12373   */\n      add\n        /* \"#utility.yul\":12352:12411   */\n      mstore\n        /* \"#utility.yul\":12430:12433   */\n      0x0140\n        /* \"#utility.yul\":12420:12433   */\n      swap2\n      pop\n        /* \"#utility.yul\":12465:12500   */\n      tag_678\n        /* \"#utility.yul\":12496:12498   */\n      dup3\n        /* \"#utility.yul\":12485:12494   */\n      dup6\n        /* \"#utility.yul\":12481:12499   */\n      add\n        /* \"#utility.yul\":12465:12500   */\n      tag_558\n      jump\t// in\n    tag_678:\n        /* \"#utility.yul\":12460:12462   */\n      dup3\n        /* \"#utility.yul\":12453:12458   */\n      dup5\n        /* \"#utility.yul\":12449:12463   */\n      add\n        /* \"#utility.yul\":12442:12501   */\n      mstore\n        /* \"#utility.yul\":12520:12523   */\n      0x0160\n        /* \"#utility.yul\":12510:12523   */\n      swap2\n      pop\n        /* \"#utility.yul\":12583:12585   */\n      dup2\n        /* \"#utility.yul\":12572:12581   */\n      dup5\n        /* \"#utility.yul\":12568:12586   */\n      add\n        /* \"#utility.yul\":12555:12587   */\n      calldataload\n        /* \"#utility.yul\":12550:12552   */\n      dup3\n        /* \"#utility.yul\":12543:12548   */\n      dup5\n        /* \"#utility.yul\":12539:12553   */\n      add\n        /* \"#utility.yul\":12532:12588   */\n      mstore\n        /* \"#utility.yul\":12607:12610   */\n      0x0180\n        /* \"#utility.yul\":12597:12610   */\n      swap2\n      pop\n        /* \"#utility.yul\":12663:12665   */\n      dup2\n        /* \"#utility.yul\":12652:12661   */\n      dup5\n        /* \"#utility.yul\":12648:12666   */\n      add\n        /* \"#utility.yul\":12635:12667   */\n      calldataload\n        /* \"#utility.yul\":12692:12694   */\n      dup2\n        /* \"#utility.yul\":12682:12690   */\n      dup2\n        /* \"#utility.yul\":12679:12695   */\n      gt\n        /* \"#utility.yul\":12676:12712   */\n      iszero\n      tag_679\n      jumpi\n        /* \"#utility.yul\":12708:12709   */\n      0x00\n        /* \"#utility.yul\":12705:12706   */\n      dup1\n        /* \"#utility.yul\":12698:12710   */\n      revert\n        /* \"#utility.yul\":12676:12712   */\n    tag_679:\n        /* \"#utility.yul\":12744:12811   */\n      tag_680\n        /* \"#utility.yul\":12807:12810   */\n      dup7\n        /* \"#utility.yul\":12796:12804   */\n      dup3\n        /* \"#utility.yul\":12785:12794   */\n      dup8\n        /* \"#utility.yul\":12781:12805   */\n      add\n        /* \"#utility.yul\":12744:12811   */\n      tag_560\n      jump\t// in\n    tag_680:\n        /* \"#utility.yul\":12739:12741   */\n      dup4\n        /* \"#utility.yul\":12732:12737   */\n      dup6\n        /* \"#utility.yul\":12728:12742   */\n      add\n        /* \"#utility.yul\":12721:12812   */\n      mstore\n      pop\n      pop\n      pop\n        /* \"#utility.yul\":11162:12818   */\n      swap3\n      swap2\n      pop\n      pop\n      jump\t// out\n        /* \"#utility.yul\":12823:13236   */\n    tag_89:\n        /* \"#utility.yul\":12916:12922   */\n      0x00\n        /* \"#utility.yul\":12924:12930   */\n      dup1\n        /* \"#utility.yul\":12977:12979   */\n      0x40\n        /* \"#utility.yul\":12965:12974   */\n      dup4\n        /* \"#utility.yul\":12956:12963   */\n      dup6\n        /* \"#utility.yul\":12952:12975   */\n      sub\n        /* \"#utility.yul\":12948:12980   */\n      slt\n        /* \"#utility.yul\":12945:12997   */\n      iszero\n      tag_682\n      jumpi\n        /* \"#utility.yul\":12993:12994   */\n      0x00\n        /* \"#utility.yul\":12990:12991   */\n      dup1\n        /* \"#utility.yul\":12983:12995   */\n      revert\n        /* \"#utility.yul\":12945:12997   */\n    tag_682:\n        /* \"#utility.yul\":13029:13038   */\n      dup3\n        /* \"#utility.yul\":13016:13039   */\n      calldataload\n        /* \"#utility.yul\":13006:13039   */\n      swap2\n      pop\n        /* \"#utility.yul\":13090:13092   */\n      0x20\n        /* \"#utility.yul\":13079:13088   */\n      dup4\n        /* \"#utility.yul\":13075:13093   */\n      add\n        /* \"#utility.yul\":13062:13094   */\n      calldataload\n        /* \"#utility.yul\":13117:13135   */\n      0xffffffffffffffff\n        /* \"#utility.yul\":13109:13115   */\n      dup2\n        /* \"#utility.yul\":13106:13136   */\n      gt\n        /* \"#utility.yul\":13103:13153   */\n      iszero\n      tag_683\n      jumpi\n        /* \"#utility.yul\":13149:13150   */\n      0x00\n        /* \"#utility.yul\":13146:13147   */\n      dup1\n        /* \"#utility.yul\":13139:13151   */\n      revert\n        /* \"#utility.yul\":13103:13153   */\n    tag_683:\n        /* \"#utility.yul\":13172:13230   */\n      tag_684\n        /* \"#utility.yul\":13222:13229   */\n      dup6\n        /* \"#utility.yul\":13213:13219   */\n      dup3\n        /* \"#utility.yul\":13202:13211   */\n      dup7\n        /* \"#utility.yul\":13198:13220   */\n      add\n        /* \"#utility.yul\":13172:13230   */\n      tag_561\n      jump\t// in\n    tag_684:\n        /* \"#utility.yul\":13162:13230   */\n      swap2\n      pop\n      pop\n        /* \"#utility.yul\":12823:13236   */\n      swap3\n      pop\n      swap3\n      swap1\n      pop\n      jump\t// out\n        /* \"#utility.yul\":13241:13584   */\n    tag_93:\n        /* \"#utility.yul\":13332:13338   */\n      0x00\n        /* \"#utility.yul\":13340:13346   */\n      dup1\n        /* \"#utility.yul\":13348:13354   */\n      0x00\n        /* \"#utility.yul\":13401:13403   */\n      0x60\n        /* \"#utility.yul\":13389:13398   */\n      dup5\n        /* \"#utility.yul\":13380:13387   */\n      dup7\n        /* \"#utility.yul\":13376:13399   */\n      sub\n        /* \"#utility.yul\":13372:13404   */\n      slt\n        /* \"#utility.yul\":13369:13421   */\n      iszero\n      tag_686\n      jumpi\n        /* \"#utility.yul\":13417:13418   */\n      0x00\n        /* \"#utility.yul\":13414:13415   */\n      dup1\n        /* \"#utility.yul\":13407:13419   */\n      revert\n        /* \"#utility.yul\":13369:13421   */\n    tag_686:\n        /* \"#utility.yul\":13453:13462   */\n      dup4\n        /* \"#utility.yul\":13440:13463   */\n      calldataload\n        /* \"#utility.yul\":13430:13463   */\n      swap3\n      pop\n        /* \"#utility.yul\":13510:13512   */\n      0x20\n        /* \"#utility.yul\":13499:13508   */\n      dup5\n        /* \"#utility.yul\":13495:13513   */\n      add\n        /* \"#utility.yul\":13482:13514   */\n      calldataload\n        /* \"#utility.yul\":13472:13514   */\n      swap2\n      pop\n        /* \"#utility.yul\":13533:13578   */\n      tag_687\n        /* \"#utility.yul\":13574:13576   */\n      0x40\n        /* \"#utility.yul\":13563:13572   */\n      dup6\n        /* \"#utility.yul\":13559:13577   */\n      add\n        /* \"#utility.yul\":13533:13578   */\n      tag_559\n      jump\t// in\n    tag_687:\n        /* \"#utility.yul\":13523:13578   */\n      swap1\n      pop\n        /* \"#utility.yul\":13241:13584   */\n      swap3\n      pop\n      swap3\n      pop\n      swap3\n      jump\t// out\n        /* \"#utility.yul\":13721:14156   */\n    tag_563:\n        /* \"#utility.yul\":13774:13777   */\n      0x00\n        /* \"#utility.yul\":13812:13817   */\n      dup2\n        /* \"#utility.yul\":13806:13818   */\n      mload\n        /* \"#utility.yul\":13839:13845   */\n      dup1\n        /* \"#utility.yul\":13834:13837   */\n      dup5\n        /* \"#utility.yul\":13827:13846   */\n      mstore\n        /* \"#utility.yul\":13865:13869   */\n      0x20\n        /* \"#utility.yul\":13894:13896   */\n      dup1\n        /* \"#utility.yul\":13889:13892   */\n      dup6\n        /* \"#utility.yul\":13885:13897   */\n      add\n        /* \"#utility.yul\":13878:13897   */\n      swap5\n      pop\n        /* \"#utility.yul\":13931:13933   */\n      dup1\n        /* \"#utility.yul\":13924:13929   */\n      dup5\n        /* \"#utility.yul\":13920:13934   */\n      add\n        /* \"#utility.yul\":13952:13953   */\n      0x00\n        /* \"#utility.yul\":13962:14131   */\n    tag_690:\n        /* \"#utility.yul\":13976:13982   */\n      dup4\n        /* \"#utility.yul\":13973:13974   */\n      dup2\n        /* \"#utility.yul\":13970:13983   */\n      lt\n        /* \"#utility.yul\":13962:14131   */\n      iszero\n      tag_692\n      jumpi\n        /* \"#utility.yul\":14037:14050   */\n      dup2\n      mload\n        /* \"#utility.yul\":14025:14051   */\n      dup8\n      mstore\n        /* \"#utility.yul\":14071:14083   */\n      swap6\n      dup3\n      add\n      swap6\n        /* \"#utility.yul\":14106:14121   */\n      swap1\n      dup3\n      add\n      swap1\n        /* \"#utility.yul\":13998:13999   */\n      0x01\n        /* \"#utility.yul\":13991:14000   */\n      add\n        /* \"#utility.yul\":13962:14131   */\n      jump(tag_690)\n    tag_692:\n      pop\n        /* \"#utility.yul\":14147:14150   */\n      swap5\n      swap6\n        /* \"#utility.yul\":13721:14156   */\n      swap5\n      pop\n      pop\n      pop\n      pop\n      pop\n      jump\t// out\n        /* \"#utility.yul\":14257:16293   */\n    tag_565:\n        /* \"#utility.yul\":14318:14321   */\n      0x00\n        /* \"#utility.yul\":14356:14361   */\n      dup2\n        /* \"#utility.yul\":14350:14362   */\n      mload\n        /* \"#utility.yul\":14383:14389   */\n      dup1\n        /* \"#utility.yul\":14378:14381   */\n      dup5\n        /* \"#utility.yul\":14371:14390   */\n      mstore\n        /* \"#utility.yul\":14409:14413   */\n      0x20\n        /* \"#utility.yul\":14450:14452   */\n      dup1\n        /* \"#utility.yul\":14445:14448   */\n      dup6\n        /* \"#utility.yul\":14441:14453   */\n      add\n        /* \"#utility.yul\":14475:14486   */\n      dup1\n        /* \"#utility.yul\":14502:14513   */\n      dup2\n        /* \"#utility.yul\":14495:14513   */\n      swap7\n      pop\n        /* \"#utility.yul\":14552:14558   */\n      dup4\n        /* \"#utility.yul\":14549:14550   */\n      0x05\n        /* \"#utility.yul\":14545:14559   */\n      shl\n        /* \"#utility.yul\":14538:14543   */\n      dup2\n        /* \"#utility.yul\":14534:14560   */\n      add\n        /* \"#utility.yul\":14522:14560   */\n      swap2\n      pop\n        /* \"#utility.yul\":14594:14596   */\n      dup3\n        /* \"#utility.yul\":14587:14592   */\n      dup7\n        /* \"#utility.yul\":14583:14597   */\n      add\n        /* \"#utility.yul\":14615:14616   */\n      0x00\n        /* \"#utility.yul\":14625:16267   */\n    tag_695:\n        /* \"#utility.yul\":14639:14645   */\n      dup6\n        /* \"#utility.yul\":14636:14637   */\n      dup2\n        /* \"#utility.yul\":14633:14646   */\n      lt\n        /* \"#utility.yul\":14625:16267   */\n      iszero\n      tag_697\n      jumpi\n        /* \"#utility.yul\":14710:14715   */\n      dup3\n        /* \"#utility.yul\":14704:14708   */\n      dup5\n        /* \"#utility.yul\":14700:14716   */\n      sub\n        /* \"#utility.yul\":14695:14698   */\n      dup10\n        /* \"#utility.yul\":14688:14717   */\n      mstore\n        /* \"#utility.yul\":14746:14752   */\n      dup2\n        /* \"#utility.yul\":14740:14753   */\n      mload\n        /* \"#utility.yul\":14776:14780   */\n      0xa0\n        /* \"#utility.yul\":14819:14821   */\n      dup2\n        /* \"#utility.yul\":14813:14822   */\n      mload\n        /* \"#utility.yul\":14848:14850   */\n      dup2\n        /* \"#utility.yul\":14842:14846   */\n      dup8\n        /* \"#utility.yul\":14835:14851   */\n      mstore\n        /* \"#utility.yul\":14892:14904   */\n      dup1\n        /* \"#utility.yul\":14886:14905   */\n      mload\n        /* \"#utility.yul\":14928:14932   */\n      0xe0\n        /* \"#utility.yul\":14967:14969   */\n      dup1\n        /* \"#utility.yul\":14962:14964   */\n      dup5\n        /* \"#utility.yul\":14956:14960   */\n      dup11\n        /* \"#utility.yul\":14952:14965   */\n      add\n        /* \"#utility.yul\":14945:14970   */\n      mstore\n        /* \"#utility.yul\":14997:15046   */\n      tag_698\n        /* \"#utility.yul\":15041:15044   */\n      0x0180\n        /* \"#utility.yul\":15035:15039   */\n      dup11\n        /* \"#utility.yul\":15031:15045   */\n      add\n        /* \"#utility.yul\":15015:15029   */\n      dup4\n        /* \"#utility.yul\":14997:15046   */\n      tag_554\n      jump\t// in\n    tag_698:\n        /* \"#utility.yul\":14983:15046   */\n      swap2\n      pop\n        /* \"#utility.yul\":15093:15095   */\n      dup10\n        /* \"#utility.yul\":15079:15091   */\n      dup4\n        /* \"#utility.yul\":15075:15096   */\n      add\n        /* \"#utility.yul\":15069:15097   */\n      mload\n        /* \"#utility.yul\":15120:15123   */\n      0xc0\n        /* \"#utility.yul\":15158:15160   */\n      dup2\n        /* \"#utility.yul\":15153:15155   */\n      dup2\n        /* \"#utility.yul\":15147:15151   */\n      dup13\n        /* \"#utility.yul\":15143:15156   */\n      add\n        /* \"#utility.yul\":15136:15161   */\n      mstore\n        /* \"#utility.yul\":15184:15188   */\n      0x40\n        /* \"#utility.yul\":15174:15188   */\n      swap2\n      pop\n        /* \"#utility.yul\":15247:15249   */\n      dup2\n        /* \"#utility.yul\":15233:15245   */\n      dup6\n        /* \"#utility.yul\":15229:15250   */\n      add\n        /* \"#utility.yul\":15223:15251   */\n      mload\n        /* \"#utility.yul\":15218:15220   */\n      dup4\n        /* \"#utility.yul\":15212:15216   */\n      dup13\n        /* \"#utility.yul\":15208:15221   */\n      add\n        /* \"#utility.yul\":15201:15252   */\n      mstore\n        /* \"#utility.yul\":15275:15279   */\n      0x60\n        /* \"#utility.yul\":15265:15279   */\n      swap3\n      pop\n        /* \"#utility.yul\":15339:15341   */\n      dup3\n        /* \"#utility.yul\":15325:15337   */\n      dup6\n        /* \"#utility.yul\":15321:15342   */\n      add\n        /* \"#utility.yul\":15315:15343   */\n      mload\n        /* \"#utility.yul\":15309:15312   */\n      0x0100\n        /* \"#utility.yul\":15303:15307   */\n      dup13\n        /* \"#utility.yul\":15299:15313   */\n      add\n        /* \"#utility.yul\":15292:15344   */\n      mstore\n        /* \"#utility.yul\":15367:15371   */\n      0x80\n        /* \"#utility.yul\":15431:15433   */\n      dup1\n        /* \"#utility.yul\":15417:15429   */\n      dup7\n        /* \"#utility.yul\":15413:15434   */\n      add\n        /* \"#utility.yul\":15407:15435   */\n      mload\n        /* \"#utility.yul\":15401:15404   */\n      0x0120\n        /* \"#utility.yul\":15395:15399   */\n      dup14\n        /* \"#utility.yul\":15391:15405   */\n      add\n        /* \"#utility.yul\":15384:15436   */\n      mstore\n        /* \"#utility.yul\":15496:15498   */\n      dup7\n        /* \"#utility.yul\":15482:15494   */\n      dup7\n        /* \"#utility.yul\":15478:15499   */\n      add\n        /* \"#utility.yul\":15472:15500   */\n      mload\n        /* \"#utility.yul\":15466:15469   */\n      0x0140\n        /* \"#utility.yul\":15460:15464   */\n      dup14\n        /* \"#utility.yul\":15456:15470   */\n      add\n        /* \"#utility.yul\":15449:15501   */\n      mstore\n        /* \"#utility.yul\":15560:15562   */\n      dup2\n        /* \"#utility.yul\":15546:15558   */\n      dup7\n        /* \"#utility.yul\":15542:15563   */\n      add\n        /* \"#utility.yul\":15536:15564   */\n      mload\n        /* \"#utility.yul\":15514:15564   */\n      swap7\n      pop\n        /* \"#utility.yul\":15623:15689   */\n      0xffffffffffffffffffffffffffffffffffffffffffffffffffffffffffffff60\n        /* \"#utility.yul\":15616:15620   */\n      dup13\n        /* \"#utility.yul\":15608:15614   */\n      dup7\n        /* \"#utility.yul\":15604:15621   */\n      sub\n        /* \"#utility.yul\":15600:15690   */\n      add\n        /* \"#utility.yul\":15594:15597   */\n      0x0160\n        /* \"#utility.yul\":15588:15592   */\n      dup14\n        /* \"#utility.yul\":15584:15598   */\n      add\n        /* \"#utility.yul\":15577:15691   */\n      mstore\n        /* \"#utility.yul\":15717:15758   */\n      tag_699\n        /* \"#utility.yul\":15751:15757   */\n      dup6\n        /* \"#utility.yul\":15735:15749   */\n      dup9\n        /* \"#utility.yul\":15717:15758   */\n      tag_554\n      jump\t// in\n    tag_699:\n        /* \"#utility.yul\":15704:15758   */\n      swap7\n      pop\n        /* \"#utility.yul\":15807:15809   */\n      dup13\n        /* \"#utility.yul\":15803:15805   */\n      dup9\n        /* \"#utility.yul\":15799:15810   */\n      add\n        /* \"#utility.yul\":15793:15811   */\n      mload\n        /* \"#utility.yul\":15788:15790   */\n      dup14\n        /* \"#utility.yul\":15782:15786   */\n      dup14\n        /* \"#utility.yul\":15778:15791   */\n      add\n        /* \"#utility.yul\":15771:15812   */\n      mstore\n        /* \"#utility.yul\":15861:15863   */\n      dup3\n        /* \"#utility.yul\":15857:15859   */\n      dup9\n        /* \"#utility.yul\":15853:15864   */\n      add\n        /* \"#utility.yul\":15847:15865   */\n      mload\n        /* \"#utility.yul\":15825:15865   */\n      swap6\n      pop\n        /* \"#utility.yul\":15911:15915   */\n      dup12\n        /* \"#utility.yul\":15904:15909   */\n      dup8\n        /* \"#utility.yul\":15900:15916   */\n      sub\n        /* \"#utility.yul\":15895:15897   */\n      dup4\n        /* \"#utility.yul\":15889:15893   */\n      dup14\n        /* \"#utility.yul\":15885:15898   */\n      add\n        /* \"#utility.yul\":15878:15917   */\n      mstore\n        /* \"#utility.yul\":15944:15984   */\n      tag_700\n        /* \"#utility.yul\":15978:15983   */\n      dup8\n        /* \"#utility.yul\":15962:15976   */\n      dup8\n        /* \"#utility.yul\":15944:15984   */\n      tag_554\n      jump\t// in\n    tag_700:\n        /* \"#utility.yul\":15930:15984   */\n      swap7\n      pop\n        /* \"#utility.yul\":16033:16035   */\n      dup4\n        /* \"#utility.yul\":16029:16031   */\n      dup9\n        /* \"#utility.yul\":16025:16036   */\n      add\n        /* \"#utility.yul\":16019:16037   */\n      mload\n        /* \"#utility.yul\":15997:16037   */\n      swap6\n      pop\n        /* \"#utility.yul\":16050:16106   */\n      tag_701\n        /* \"#utility.yul\":16102:16104   */\n      dup5\n        /* \"#utility.yul\":16096:16100   */\n      dup14\n        /* \"#utility.yul\":16092:16105   */\n      add\n        /* \"#utility.yul\":16076:16090   */\n      dup8\n        /* \"#utility.yul\":16050:16106   */\n      tag_555\n      jump\t// in\n    tag_701:\n        /* \"#utility.yul\":16147:16158   */\n      swap7\n      dup8\n      add\n        /* \"#utility.yul\":16141:16159   */\n      mload\n        /* \"#utility.yul\":16126:16139   */\n      swap11\n      swap1\n      swap7\n      add\n        /* \"#utility.yul\":16119:16160   */\n      swap10\n      swap1\n      swap10\n      mstore\n      pop\n      pop\n      pop\n        /* \"#utility.yul\":16245:16257   */\n      swap10\n      dup7\n      add\n      swap10\n        /* \"#utility.yul\":16181:16187   */\n      swap5\n      pop\n      pop\n        /* \"#utility.yul\":16210:16225   */\n      swap1\n      dup5\n      add\n      swap1\n        /* \"#utility.yul\":14661:14662   */\n      0x01\n        /* \"#utility.yul\":14654:14663   */\n      add\n        /* \"#utility.yul\":14625:16267   */\n      jump(tag_695)\n    tag_697:\n      pop\n        /* \"#utility.yul\":16283:16287   */\n      swap2\n      swap8\n        /* \"#utility.yul\":14257:16293   */\n      swap7\n      pop\n      pop\n      pop\n      pop\n      pop\n      pop\n      pop\n      jump\t// out\n        /* \"#utility.yul\":16298:16782   */\n    tag_566:\n        /* \"#utility.yul\":16351:16354   */\n      0x00\n        /* \"#utility.yul\":16389:16394   */\n      dup2\n        /* \"#utility.yul\":16383:16395   */\n      mload\n        /* \"#utility.yul\":16416:16422   */\n      dup1\n        /* \"#utility.yul\":16411:16414   */\n      dup5\n        /* \"#utility.yul\":16404:16423   */\n      mstore\n        /* \"#utility.yul\":16442:16446   */\n      0x20\n        /* \"#utility.yul\":16471:16473   */\n      dup1\n        /* \"#utility.yul\":16466:16469   */\n      dup6\n        /* \"#utility.yul\":16462:16474   */\n      add\n        /* \"#utility.yul\":16455:16474   */\n      swap5\n      pop\n        /* \"#utility.yul\":16508:16510   */\n      dup1\n        /* \"#utility.yul\":16501:16506   */\n      dup5\n        /* \"#utility.yul\":16497:16511   */\n      add\n        /* \"#utility.yul\":16529:16530   */\n      0x00\n        /* \"#utility.yul\":16539:16757   */\n    tag_703:\n        /* \"#utility.yul\":16553:16559   */\n      dup4\n        /* \"#utility.yul\":16550:16551   */\n      dup2\n        /* \"#utility.yul\":16547:16560   */\n      lt\n        /* \"#utility.yul\":16539:16757   */\n      iszero\n      tag_692\n      jumpi\n        /* \"#utility.yul\":16618:16631   */\n      dup2\n      mload\n      sub(shl(0xa0, 0x01), 0x01)\n        /* \"#utility.yul\":16614:16676   */\n      and\n        /* \"#utility.yul\":16602:16677   */\n      dup8\n      mstore\n        /* \"#utility.yul\":16697:16709   */\n      swap6\n      dup3\n      add\n      swap6\n        /* \"#utility.yul\":16732:16747   */\n      swap1\n      dup3\n      add\n      swap1\n        /* \"#utility.yul\":16575:16576   */\n      0x01\n        /* \"#utility.yul\":16568:16577   */\n      add\n        /* \"#utility.yul\":16539:16757   */\n      jump(tag_703)\n        /* \"#utility.yul\":16787:16930   */\n    tag_567:\n        /* \"#utility.yul\":16871:16872   */\n      0x08\n        /* \"#utility.yul\":16864:16869   */\n      dup2\n        /* \"#utility.yul\":16861:16873   */\n      lt\n        /* \"#utility.yul\":16851:16897   */\n      tag_609\n      jumpi\n        /* \"#utility.yul\":16877:16895   */\n      tag_609\n      tag_258\n      jump\t// in\n        /* \"#utility.yul\":16935:20228   */\n    tag_99:\n        /* \"#utility.yul\":17128:17130   */\n      0x20\n        /* \"#utility.yul\":17117:17126   */\n      dup2\n        /* \"#utility.yul\":17110:17131   */\n      mstore\n        /* \"#utility.yul\":17140:17193   */\n      tag_710\n        /* \"#utility.yul\":17189:17191   */\n      0x20\n        /* \"#utility.yul\":17178:17187   */\n      dup3\n        /* \"#utility.yul\":17174:17192   */\n      add\n        /* \"#utility.yul\":17165:17171   */\n      dup4\n        /* \"#utility.yul\":17159:17172   */\n      mload\n      sub(shl(0xa0, 0x01), 0x01)\n        /* \"#utility.yul\":13655:13709   */\n      and\n        /* \"#utility.yul\":13643:13710   */\n      swap1\n      mstore\n        /* \"#utility.yul\":13589:13716   */\n      jump\n        /* \"#utility.yul\":17140:17193   */\n    tag_710:\n        /* \"#utility.yul\":17247:17249   */\n      0x20\n        /* \"#utility.yul\":17239:17245   */\n      dup3\n        /* \"#utility.yul\":17235:17250   */\n      add\n        /* \"#utility.yul\":17229:17251   */\n      mload\n        /* \"#utility.yul\":17224:17226   */\n      0x40\n        /* \"#utility.yul\":17213:17222   */\n      dup3\n        /* \"#utility.yul\":17209:17227   */\n      add\n        /* \"#utility.yul\":17202:17252   */\n      mstore\n        /* \"#utility.yul\":17091:17095   */\n      0x00\n        /* \"#utility.yul\":17299:17301   */\n      0x40\n        /* \"#utility.yul\":17291:17297   */\n      dup4\n        /* \"#utility.yul\":17287:17302   */\n      add\n        /* \"#utility.yul\":17281:17303   */\n      mload\n        /* \"#utility.yul\":17322:17328   */\n      0x02e0\n        /* \"#utility.yul\":17364:17366   */\n      dup1\n        /* \"#utility.yul\":17359:17361   */\n      0x60\n        /* \"#utility.yul\":17348:17357   */\n      dup6\n        /* \"#utility.yul\":17344:17362   */\n      add\n        /* \"#utility.yul\":17337:17367   */\n      mstore\n        /* \"#utility.yul\":17390:17442   */\n      tag_711\n        /* \"#utility.yul\":17437:17440   */\n      0x0300\n        /* \"#utility.yul\":17426:17435   */\n      dup6\n        /* \"#utility.yul\":17422:17441   */\n      add\n        /* \"#utility.yul\":17408:17420   */\n      dup4\n        /* \"#utility.yul\":17390:17442   */\n      tag_554\n      jump\t// in\n    tag_711:\n        /* \"#utility.yul\":17376:17442   */\n      swap2\n      pop\n        /* \"#utility.yul\":17491:17493   */\n      0x60\n        /* \"#utility.yul\":17483:17489   */\n      dup6\n        /* \"#utility.yul\":17479:17494   */\n      add\n        /* \"#utility.yul\":17473:17495   */\n      mload\n      not(0x1f)\n        /* \"#utility.yul\":17645:17647   */\n      dup1\n        /* \"#utility.yul\":17633:17642   */\n      dup7\n        /* \"#utility.yul\":17625:17631   */\n      dup6\n        /* \"#utility.yul\":17621:17643   */\n      sub\n        /* \"#utility.yul\":17617:17648   */\n      add\n        /* \"#utility.yul\":17611:17614   */\n      0x80\n        /* \"#utility.yul\":17600:17609   */\n      dup8\n        /* \"#utility.yul\":17596:17615   */\n      add\n        /* \"#utility.yul\":17589:17649   */\n      mstore\n        /* \"#utility.yul\":17672:17713   */\n      tag_712\n        /* \"#utility.yul\":17706:17712   */\n      dup5\n        /* \"#utility.yul\":17690:17704   */\n      dup4\n        /* \"#utility.yul\":17672:17713   */\n      tag_554\n      jump\t// in\n    tag_712:\n        /* \"#utility.yul\":17658:17713   */\n      swap4\n      pop\n        /* \"#utility.yul\":17768:17771   */\n      0x80\n        /* \"#utility.yul\":17760:17766   */\n      dup8\n        /* \"#utility.yul\":17756:17772   */\n      add\n        /* \"#utility.yul\":17750:17773   */\n      mload\n        /* \"#utility.yul\":17744:17747   */\n      0xa0\n        /* \"#utility.yul\":17733:17742   */\n      dup8\n        /* \"#utility.yul\":17729:17748   */\n      add\n        /* \"#utility.yul\":17722:17774   */\n      mstore\n        /* \"#utility.yul\":17829:17832   */\n      0xa0\n        /* \"#utility.yul\":17821:17827   */\n      dup8\n        /* \"#utility.yul\":17817:17833   */\n      add\n        /* \"#utility.yul\":17811:17834   */\n      mload\n        /* \"#utility.yul\":17805:17808   */\n      0xc0\n        /* \"#utility.yul\":17794:17803   */\n      dup8\n        /* \"#utility.yul\":17790:17809   */\n      add\n        /* \"#utility.yul\":17783:17835   */\n      mstore\n        /* \"#utility.yul\":17890:17893   */\n      0xc0\n        /* \"#utility.yul\":17882:17888   */\n      dup8\n        /* \"#utility.yul\":17878:17894   */\n      add\n        /* \"#utility.yul\":17872:17895   */\n      mload\n        /* \"#utility.yul\":17866:17869   */\n      0xe0\n        /* \"#utility.yul\":17855:17864   */\n      dup8\n        /* \"#utility.yul\":17851:17870   */\n      add\n        /* \"#utility.yul\":17844:17896   */\n      mstore\n        /* \"#utility.yul\":17945:17948   */\n      0xe0\n        /* \"#utility.yul\":17937:17943   */\n      dup8\n        /* \"#utility.yul\":17933:17949   */\n      add\n        /* \"#utility.yul\":17927:17950   */\n      mload\n        /* \"#utility.yul\":17905:17950   */\n      swap2\n      pop\n        /* \"#utility.yul\":17969:17972   */\n      0x0100\n        /* \"#utility.yul\":18036:18038   */\n      dup2\n        /* \"#utility.yul\":18024:18033   */\n      dup8\n        /* \"#utility.yul\":18016:18022   */\n      dup7\n        /* \"#utility.yul\":18012:18034   */\n      sub\n        /* \"#utility.yul\":18008:18039   */\n      add\n        /* \"#utility.yul\":18003:18005   */\n      dup2\n        /* \"#utility.yul\":17992:18001   */\n      dup9\n        /* \"#utility.yul\":17988:18006   */\n      add\n        /* \"#utility.yul\":17981:18040   */\n      mstore\n        /* \"#utility.yul\":18063:18115   */\n      tag_713\n        /* \"#utility.yul\":18108:18114   */\n      dup6\n        /* \"#utility.yul\":18092:18106   */\n      dup5\n        /* \"#utility.yul\":18063:18115   */\n      tag_563\n      jump\t// in\n    tag_713:\n        /* \"#utility.yul\":18140:18155   */\n      swap1\n      dup9\n      add\n        /* \"#utility.yul\":18134:18156   */\n      mload\n        /* \"#utility.yul\":18175:18178   */\n      0x0120\n        /* \"#utility.yul\":18194:18212   */\n      dup9\n      dup2\n      add\n        /* \"#utility.yul\":18187:18217   */\n      swap2\n      swap1\n      swap2\n      mstore\n        /* \"#utility.yul\":18242:18257   */\n      dup9\n      add\n        /* \"#utility.yul\":18236:18258   */\n      mload\n        /* \"#utility.yul\":18277:18280   */\n      0x0140\n        /* \"#utility.yul\":18296:18314   */\n      dup1\n      dup10\n      add\n        /* \"#utility.yul\":18289:18319   */\n      swap2\n      swap1\n      swap2\n      mstore\n        /* \"#utility.yul\":18356:18371   */\n      dup9\n      add\n        /* \"#utility.yul\":18350:18372   */\n      mload\n        /* \"#utility.yul\":18049:18115   */\n      swap1\n      swap5\n      pop\n        /* \"#utility.yul\":18350:18372   */\n      swap2\n      pop\n        /* \"#utility.yul\":18391:18394   */\n      0x0160\n        /* \"#utility.yul\":18403:18454   */\n      tag_714\n        /* \"#utility.yul\":18435:18453   */\n      dup2\n      dup9\n      add\n        /* \"#utility.yul\":18350:18372   */\n      dup5\n        /* \"#utility.yul\":14231:14244   */\n      iszero\n        /* \"#utility.yul\":14224:14245   */\n      iszero\n        /* \"#utility.yul\":14212:14246   */\n      swap1\n      mstore\n        /* \"#utility.yul\":14161:14252   */\n      jump\n        /* \"#utility.yul\":18403:18454   */\n    tag_714:\n        /* \"#utility.yul\":18491:18506   */\n      dup8\n      add\n        /* \"#utility.yul\":18485:18507   */\n      mload\n      swap2\n      pop\n        /* \"#utility.yul\":18526:18529   */\n      0x0180\n        /* \"#utility.yul\":18538:18589   */\n      tag_715\n        /* \"#utility.yul\":18570:18588   */\n      dup8\n      dup3\n      add\n        /* \"#utility.yul\":18485:18507   */\n      dup5\n        /* \"#utility.yul\":14231:14244   */\n      iszero\n        /* \"#utility.yul\":14224:14245   */\n      iszero\n        /* \"#utility.yul\":14212:14246   */\n      swap1\n      mstore\n        /* \"#utility.yul\":14161:14252   */\n      jump\n        /* \"#utility.yul\":18538:18589   */\n    tag_715:\n        /* \"#utility.yul\":18627:18629   */\n      dup1\n        /* \"#utility.yul\":18619:18625   */\n      dup9\n        /* \"#utility.yul\":18615:18630   */\n      add\n        /* \"#utility.yul\":18609:18631   */\n      mload\n        /* \"#utility.yul\":18598:18631   */\n      swap3\n      pop\n      pop\n        /* \"#utility.yul\":18651:18654   */\n      0x01a0\n        /* \"#utility.yul\":18691:18694   */\n      dup3\n        /* \"#utility.yul\":18685:18688   */\n      dup2\n        /* \"#utility.yul\":18674:18683   */\n      dup9\n        /* \"#utility.yul\":18670:18689   */\n      add\n        /* \"#utility.yul\":18663:18695   */\n      mstore\n        /* \"#utility.yul\":18744:18747   */\n      dup1\n        /* \"#utility.yul\":18736:18742   */\n      dup9\n        /* \"#utility.yul\":18732:18748   */\n      add\n        /* \"#utility.yul\":18726:18749   */\n      mload\n        /* \"#utility.yul\":18704:18749   */\n      swap3\n      pop\n      pop\n        /* \"#utility.yul\":18769:18772   */\n      0x01c0\n        /* \"#utility.yul\":18837:18839   */\n      dup2\n        /* \"#utility.yul\":18825:18834   */\n      dup8\n        /* \"#utility.yul\":18817:18823   */\n      dup7\n        /* \"#utility.yul\":18813:18835   */\n      sub\n        /* \"#utility.yul\":18809:18840   */\n      add\n        /* \"#utility.yul\":18803:18806   */\n      dup2\n        /* \"#utility.yul\":18792:18801   */\n      dup9\n        /* \"#utility.yul\":18788:18807   */\n      add\n        /* \"#utility.yul\":18781:18841   */\n      mstore\n        /* \"#utility.yul\":18864:18924   */\n      tag_716\n        /* \"#utility.yul\":18917:18923   */\n      dup6\n        /* \"#utility.yul\":18901:18915   */\n      dup5\n        /* \"#utility.yul\":18864:18924   */\n      tag_565\n      jump\t// in\n    tag_716:\n        /* \"#utility.yul\":18850:18924   */\n      swap5\n      pop\n        /* \"#utility.yul\":18973:18976   */\n      dup1\n        /* \"#utility.yul\":18965:18971   */\n      dup9\n        /* \"#utility.yul\":18961:18977   */\n      add\n        /* \"#utility.yul\":18955:18978   */\n      mload\n        /* \"#utility.yul\":18933:18978   */\n      swap3\n      pop\n      pop\n        /* \"#utility.yul\":18998:19001   */\n      0x01e0\n        /* \"#utility.yul\":19066:19068   */\n      dup2\n        /* \"#utility.yul\":19054:19063   */\n      dup8\n        /* \"#utility.yul\":19046:19052   */\n      dup7\n        /* \"#utility.yul\":19042:19064   */\n      sub\n        /* \"#utility.yul\":19038:19069   */\n      add\n        /* \"#utility.yul\":19032:19035   */\n      dup2\n        /* \"#utility.yul\":19021:19030   */\n      dup9\n        /* \"#utility.yul\":19017:19036   */\n      add\n        /* \"#utility.yul\":19010:19070   */\n      mstore\n        /* \"#utility.yul\":19093:19145   */\n      tag_717\n        /* \"#utility.yul\":19138:19144   */\n      dup6\n        /* \"#utility.yul\":19122:19136   */\n      dup5\n        /* \"#utility.yul\":19093:19145   */\n      tag_566\n      jump\t// in\n    tag_717:\n        /* \"#utility.yul\":19079:19145   */\n      swap5\n      pop\n        /* \"#utility.yul\":19194:19197   */\n      dup1\n        /* \"#utility.yul\":19186:19192   */\n      dup9\n        /* \"#utility.yul\":19182:19198   */\n      add\n        /* \"#utility.yul\":19176:19199   */\n      mload\n        /* \"#utility.yul\":19154:19199   */\n      swap3\n      pop\n      pop\n        /* \"#utility.yul\":19219:19222   */\n      0x0200\n        /* \"#utility.yul\":19287:19289   */\n      dup2\n        /* \"#utility.yul\":19275:19284   */\n      dup8\n        /* \"#utility.yul\":19267:19273   */\n      dup7\n        /* \"#utility.yul\":19263:19285   */\n      sub\n        /* \"#utility.yul\":19259:19290   */\n      add\n        /* \"#utility.yul\":19253:19256   */\n      dup2\n        /* \"#utility.yul\":19242:19251   */\n      dup9\n        /* \"#utility.yul\":19238:19257   */\n      add\n        /* \"#utility.yul\":19231:19291   */\n      mstore\n        /* \"#utility.yul\":19314:19366   */\n      tag_718\n        /* \"#utility.yul\":19359:19365   */\n      dup6\n        /* \"#utility.yul\":19343:19357   */\n      dup5\n        /* \"#utility.yul\":19314:19366   */\n      tag_566\n      jump\t// in\n    tag_718:\n        /* \"#utility.yul\":19392:19408   */\n      swap1\n      dup9\n      add\n        /* \"#utility.yul\":19386:19409   */\n      mload\n        /* \"#utility.yul\":19429:19432   */\n      0x0220\n        /* \"#utility.yul\":19448:19467   */\n      dup9\n      dup2\n      add\n        /* \"#utility.yul\":19441:19473   */\n      swap2\n      swap1\n      swap2\n      mstore\n        /* \"#utility.yul\":19499:19515   */\n      dup9\n      add\n        /* \"#utility.yul\":19493:19516   */\n      mload\n        /* \"#utility.yul\":19536:19539   */\n      0x0240\n        /* \"#utility.yul\":19555:19574   */\n      dup1\n      dup10\n      add\n        /* \"#utility.yul\":19548:19580   */\n      swap2\n      swap1\n      swap2\n      mstore\n        /* \"#utility.yul\":19606:19622   */\n      dup9\n      add\n        /* \"#utility.yul\":19600:19623   */\n      mload\n        /* \"#utility.yul\":19643:19646   */\n      0x0260\n        /* \"#utility.yul\":19662:19681   */\n      dup1\n      dup10\n      add\n        /* \"#utility.yul\":19655:19687   */\n      swap2\n      swap1\n      swap2\n      mstore\n        /* \"#utility.yul\":19713:19729   */\n      dup9\n      add\n        /* \"#utility.yul\":19707:19730   */\n      mload\n        /* \"#utility.yul\":19750:19753   */\n      0x0280\n        /* \"#utility.yul\":19769:19788   */\n      dup1\n      dup10\n      add\n        /* \"#utility.yul\":19762:19794   */\n      swap2\n      swap1\n      swap2\n      mstore\n        /* \"#utility.yul\":19831:19847   */\n      dup9\n      add\n        /* \"#utility.yul\":19825:19848   */\n      mload\n        /* \"#utility.yul\":19300:19366   */\n      swap1\n      swap5\n      pop\n        /* \"#utility.yul\":19825:19848   */\n      swap2\n      pop\n        /* \"#utility.yul\":19868:19871   */\n      0x02a0\n      swap1\n      pop\n        /* \"#utility.yul\":19880:19932   */\n      tag_719\n        /* \"#utility.yul\":19912:19931   */\n      dup2\n      dup8\n      add\n        /* \"#utility.yul\":19825:19848   */\n      dup4\n        /* \"#utility.yul\":14231:14244   */\n      iszero\n        /* \"#utility.yul\":14224:14245   */\n      iszero\n        /* \"#utility.yul\":14212:14246   */\n      swap1\n      mstore\n        /* \"#utility.yul\":14161:14252   */\n      jump\n        /* \"#utility.yul\":19880:19932   */\n    tag_719:\n        /* \"#utility.yul\":19969:19985   */\n      dup7\n      add\n        /* \"#utility.yul\":19963:19986   */\n      mload\n      swap1\n      pop\n        /* \"#utility.yul\":20006:20009   */\n      0x02c0\n        /* \"#utility.yul\":20018:20070   */\n      tag_720\n        /* \"#utility.yul\":20050:20069   */\n      dup7\n      dup3\n      add\n        /* \"#utility.yul\":19963:19986   */\n      dup4\n        /* \"#utility.yul\":14231:14244   */\n      iszero\n        /* \"#utility.yul\":14224:14245   */\n      iszero\n        /* \"#utility.yul\":14212:14246   */\n      swap1\n      mstore\n        /* \"#utility.yul\":14161:14252   */\n      jump\n        /* \"#utility.yul\":20018:20070   */\n    tag_720:\n        /* \"#utility.yul\":20108:20124   */\n      dup7\n      add\n        /* \"#utility.yul\":20102:20125   */\n      mload\n      swap1\n      pop\n        /* \"#utility.yul\":20134:20199   */\n      tag_721\n        /* \"#utility.yul\":20180:20198   */\n      dup6\n      dup4\n      add\n        /* \"#utility.yul\":20102:20125   */\n      dup3\n        /* \"#utility.yul\":20134:20199   */\n      tag_567\n      jump\t// in\n    tag_721:\n      pop\n        /* \"#utility.yul\":20216:20222   */\n      swap1\n      swap5\n        /* \"#utility.yul\":16935:20228   */\n      swap4\n      pop\n      pop\n      pop\n      pop\n      jump\t// out\n        /* \"#utility.yul\":20233:20555   */\n    tag_102:\n        /* \"#utility.yul\":20310:20316   */\n      0x00\n        /* \"#utility.yul\":20318:20324   */\n      dup1\n        /* \"#utility.yul\":20326:20332   */\n      0x00\n        /* \"#utility.yul\":20379:20381   */\n      0x60\n        /* \"#utility.yul\":20367:20376   */\n      dup5\n        /* \"#utility.yul\":20358:20365   */\n      dup7\n        /* \"#utility.yul\":20354:20377   */\n      sub\n        /* \"#utility.yul\":20350:20382   */\n      slt\n        /* \"#utility.yul\":20347:20399   */\n      iszero\n      tag_723\n      jumpi\n        /* \"#utility.yul\":20395:20396   */\n      0x00\n        /* \"#utility.yul\":20392:20393   */\n      dup1\n        /* \"#utility.yul\":20385:20397   */\n      revert\n        /* \"#utility.yul\":20347:20399   */\n    tag_723:\n        /* \"#utility.yul\":20431:20440   */\n      dup4\n        /* \"#utility.yul\":20418:20441   */\n      calldataload\n        /* \"#utility.yul\":20408:20441   */\n      swap3\n      pop\n        /* \"#utility.yul\":20460:20498   */\n      tag_724\n        /* \"#utility.yul\":20494:20496   */\n      0x20\n        /* \"#utility.yul\":20483:20492   */\n      dup6\n        /* \"#utility.yul\":20479:20497   */\n      add\n        /* \"#utility.yul\":20460:20498   */\n      tag_548\n      jump\t// in\n    tag_724:\n        /* \"#utility.yul\":20450:20498   */\n      swap2\n      pop\n        /* \"#utility.yul\":20545:20547   */\n      0x40\n        /* \"#utility.yul\":20534:20543   */\n      dup5\n        /* \"#utility.yul\":20530:20548   */\n      add\n        /* \"#utility.yul\":20517:20549   */\n      calldataload\n        /* \"#utility.yul\":20507:20549   */\n      swap1\n      pop\n        /* \"#utility.yul\":20233:20555   */\n      swap3\n      pop\n      swap3\n      pop\n      swap3\n      jump\t// out\n        /* \"#utility.yul\":20983:21125   */\n    tag_568:\n        /* \"#utility.yul\":21066:21067   */\n      0x05\n        /* \"#utility.yul\":21059:21064   */\n      dup2\n        /* \"#utility.yul\":21056:21068   */\n      lt\n        /* \"#utility.yul\":21046:21092   */\n      tag_609\n      jumpi\n        /* \"#utility.yul\":21072:21090   */\n      tag_609\n      tag_258\n      jump\t// in\n        /* \"#utility.yul\":21130:22588   */\n    tag_130:\n        /* \"#utility.yul\":21282:21286   */\n      0x00\n        /* \"#utility.yul\":21311:21313   */\n      0x20\n        /* \"#utility.yul\":21340:21342   */\n      dup1\n        /* \"#utility.yul\":21329:21338   */\n      dup4\n        /* \"#utility.yul\":21322:21343   */\n      mstore\n      sub(shl(0xa0, 0x01), 0x01)\n        /* \"#utility.yul\":21389:21395   */\n      dup5\n        /* \"#utility.yul\":21383:21396   */\n      mload\n        /* \"#utility.yul\":21379:21441   */\n      and\n        /* \"#utility.yul\":21374:21376   */\n      dup2\n        /* \"#utility.yul\":21363:21372   */\n      dup5\n        /* \"#utility.yul\":21359:21377   */\n      add\n        /* \"#utility.yul\":21352:21442   */\n      mstore\n        /* \"#utility.yul\":21489:21491   */\n      dup1\n        /* \"#utility.yul\":21481:21487   */\n      dup5\n        /* \"#utility.yul\":21477:21492   */\n      add\n        /* \"#utility.yul\":21471:21493   */\n      mload\n        /* \"#utility.yul\":21512:21514   */\n      0x40\n        /* \"#utility.yul\":21550:21554   */\n      0x60\n        /* \"#utility.yul\":21545:21547   */\n      dup2\n        /* \"#utility.yul\":21534:21543   */\n      dup7\n        /* \"#utility.yul\":21530:21548   */\n      add\n        /* \"#utility.yul\":21523:21555   */\n      mstore\n        /* \"#utility.yul\":21578:21641   */\n      tag_731\n        /* \"#utility.yul\":21636:21639   */\n      0x80\n        /* \"#utility.yul\":21625:21634   */\n      dup7\n        /* \"#utility.yul\":21621:21640   */\n      add\n        /* \"#utility.yul\":21607:21619   */\n      dup4\n        /* \"#utility.yul\":21578:21641   */\n      tag_563\n      jump\t// in\n    tag_731:\n        /* \"#utility.yul\":21564:21641   */\n      swap2\n      pop\n        /* \"#utility.yul\":21690:21692   */\n      dup1\n        /* \"#utility.yul\":21682:21688   */\n      dup7\n        /* \"#utility.yul\":21678:21693   */\n      add\n        /* \"#utility.yul\":21672:21694   */\n      mload\n      not(0x1f)\n        /* \"#utility.yul\":21845:21847   */\n      dup1\n        /* \"#utility.yul\":21833:21842   */\n      dup8\n        /* \"#utility.yul\":21825:21831   */\n      dup6\n        /* \"#utility.yul\":21821:21843   */\n      sub\n        /* \"#utility.yul\":21817:21848   */\n      add\n        /* \"#utility.yul\":21810:21814   */\n      0x60\n        /* \"#utility.yul\":21799:21808   */\n      dup9\n        /* \"#utility.yul\":21795:21815   */\n      add\n        /* \"#utility.yul\":21788:21849   */\n      mstore\n        /* \"#utility.yul\":21869:21875   */\n      dup4\n        /* \"#utility.yul\":21904:21918   */\n      dup3\n        /* \"#utility.yul\":21898:21919   */\n      mload\n        /* \"#utility.yul\":21943:21949   */\n      dup1\n        /* \"#utility.yul\":21935:21941   */\n      dup7\n        /* \"#utility.yul\":21928:21950   */\n      mstore\n        /* \"#utility.yul\":21978:21980   */\n      dup7\n        /* \"#utility.yul\":21970:21976   */\n      dup7\n        /* \"#utility.yul\":21966:21981   */\n      add\n        /* \"#utility.yul\":21959:21981   */\n      swap2\n      pop\n        /* \"#utility.yul\":22037:22039   */\n      dup7\n        /* \"#utility.yul\":22027:22033   */\n      dup2\n        /* \"#utility.yul\":22024:22025   */\n      0x05\n        /* \"#utility.yul\":22020:22034   */\n      shl\n        /* \"#utility.yul\":22012:22018   */\n      dup8\n        /* \"#utility.yul\":22008:22035   */\n      add\n        /* \"#utility.yul\":22004:22040   */\n      add\n        /* \"#utility.yul\":22083:22085   */\n      dup8\n        /* \"#utility.yul\":22067:22081   */\n      dup6\n        /* \"#utility.yul\":22063:22086   */\n      add\n        /* \"#utility.yul\":22049:22086   */\n      swap5\n      pop\n        /* \"#utility.yul\":22104:22105   */\n      0x00\n        /* \"#utility.yul\":22114:22559   */\n    tag_732:\n        /* \"#utility.yul\":22128:22134   */\n      dup3\n        /* \"#utility.yul\":22125:22126   */\n      dup2\n        /* \"#utility.yul\":22122:22135   */\n      lt\n        /* \"#utility.yul\":22114:22559   */\n      iszero\n      tag_734\n      jumpi\n        /* \"#utility.yul\":22214:22216   */\n      dup5\n        /* \"#utility.yul\":22205:22211   */\n      dup9\n        /* \"#utility.yul\":22197:22203   */\n      dup4\n        /* \"#utility.yul\":22193:22212   */\n      sub\n        /* \"#utility.yul\":22189:22217   */\n      add\n        /* \"#utility.yul\":22184:22187   */\n      dup5\n        /* \"#utility.yul\":22177:22218   */\n      mstore\n        /* \"#utility.yul\":22247:22253   */\n      dup6\n        /* \"#utility.yul\":22241:22254   */\n      mload\n        /* \"#utility.yul\":22267:22313   */\n      tag_735\n        /* \"#utility.yul\":22306:22312   */\n      dup4\n        /* \"#utility.yul\":22301:22303   */\n      dup3\n        /* \"#utility.yul\":22295:22304   */\n      mload\n        /* \"#utility.yul\":22267:22313   */\n      tag_568\n      jump\t// in\n    tag_735:\n        /* \"#utility.yul\":22354:22365   */\n      dup10\n      add\n        /* \"#utility.yul\":22348:22366   */\n      mload\n        /* \"#utility.yul\":22386:22401   */\n      dup3\n      dup11\n      add\n        /* \"#utility.yul\":22379:22406   */\n      dup9\n      swap1\n      mstore\n        /* \"#utility.yul\":22429:22479   */\n      tag_736\n        /* \"#utility.yul\":22463:22478   */\n      dup4\n      dup10\n      add\n        /* \"#utility.yul\":22348:22366   */\n      dup3\n        /* \"#utility.yul\":22429:22479   */\n      tag_554\n      jump\t// in\n    tag_736:\n        /* \"#utility.yul\":22502:22517   */\n      swap7\n      dup11\n      add\n      swap7\n        /* \"#utility.yul\":22537:22549   */\n      swap5\n      dup11\n      add\n      swap5\n        /* \"#utility.yul\":22419:22479   */\n      swap3\n      pop\n      pop\n        /* \"#utility.yul\":22150:22151   */\n      0x01\n        /* \"#utility.yul\":22143:22152   */\n      add\n        /* \"#utility.yul\":22114:22559   */\n      jump(tag_732)\n    tag_734:\n      pop\n        /* \"#utility.yul\":22576:22582   */\n      swap11\n        /* \"#utility.yul\":21130:22588   */\n      swap10\n      pop\n      pop\n      pop\n      pop\n      pop\n      pop\n      pop\n      pop\n      pop\n      pop\n      jump\t// out\n        /* \"#utility.yul\":22593:22841   */\n    tag_133:\n        /* \"#utility.yul\":22658:22664   */\n      0x00\n        /* \"#utility.yul\":22666:22672   */\n      dup1\n        /* \"#utility.yul\":22719:22721   */\n      0x40\n        /* \"#utility.yul\":22707:22716   */\n      dup4\n        /* \"#utility.yul\":22698:22705   */\n      dup6\n        /* \"#utility.yul\":22694:22717   */\n      sub\n        /* \"#utility.yul\":22690:22722   */\n      slt\n        /* \"#utility.yul\":22687:22739   */\n      iszero\n      tag_738\n      jumpi\n        /* \"#utility.yul\":22735:22736   */\n      0x00\n        /* \"#utility.yul\":22732:22733   */\n      dup1\n        /* \"#utility.yul\":22725:22737   */\n      revert\n        /* \"#utility.yul\":22687:22739   */\n    tag_738:\n        /* \"#utility.yul\":22771:22780   */\n      dup3\n        /* \"#utility.yul\":22758:22781   */\n      calldataload\n        /* \"#utility.yul\":22748:22781   */\n      swap2\n      pop\n        /* \"#utility.yul\":22800:22835   */\n      tag_626\n        /* \"#utility.yul\":22831:22833   */\n      0x20\n        /* \"#utility.yul\":22820:22829   */\n      dup5\n        /* \"#utility.yul\":22816:22834   */\n      add\n        /* \"#utility.yul\":22800:22835   */\n      tag_558\n      jump\t// in\n        /* \"#utility.yul\":22846:23191   */\n    tag_146:\n        /* \"#utility.yul\":22930:22936   */\n      0x00\n        /* \"#utility.yul\":22983:22985   */\n      0x20\n        /* \"#utility.yul\":22971:22980   */\n      dup3\n        /* \"#utility.yul\":22962:22969   */\n      dup5\n        /* \"#utility.yul\":22958:22981   */\n      sub\n        /* \"#utility.yul\":22954:22986   */\n      slt\n        /* \"#utility.yul\":22951:23003   */\n      iszero\n      tag_741\n      jumpi\n        /* \"#utility.yul\":22999:23000   */\n      0x00\n        /* \"#utility.yul\":22996:22997   */\n      dup1\n        /* \"#utility.yul\":22989:23001   */\n      revert\n        /* \"#utility.yul\":22951:23003   */\n    tag_741:\n        /* \"#utility.yul\":23039:23048   */\n      dup2\n        /* \"#utility.yul\":23026:23049   */\n      calldataload\n        /* \"#utility.yul\":23072:23090   */\n      0xffffffffffffffff\n        /* \"#utility.yul\":23064:23070   */\n      dup2\n        /* \"#utility.yul\":23061:23091   */\n      gt\n        /* \"#utility.yul\":23058:23108   */\n      iszero\n      tag_742\n      jumpi\n        /* \"#utility.yul\":23104:23105   */\n      0x00\n        /* \"#utility.yul\":23101:23102   */\n      dup1\n        /* \"#utility.yul\":23094:23106   */\n      revert\n        /* \"#utility.yul\":23058:23108   */\n    tag_742:\n        /* \"#utility.yul\":23127:23185   */\n      tag_743\n        /* \"#utility.yul\":23177:23184   */\n      dup5\n        /* \"#utility.yul\":23168:23174   */\n      dup3\n        /* \"#utility.yul\":23157:23166   */\n      dup6\n        /* \"#utility.yul\":23153:23175   */\n      add\n        /* \"#utility.yul\":23127:23185   */\n      tag_561\n      jump\t// in\n    tag_743:\n        /* \"#utility.yul\":23117:23185   */\n      swap5\n        /* \"#utility.yul\":22846:23191   */\n      swap4\n      pop\n      pop\n      pop\n      pop\n      jump\t// out\n        /* \"#utility.yul\":23196:23518   */\n    tag_167:\n        /* \"#utility.yul\":23270:23276   */\n      0x00\n        /* \"#utility.yul\":23278:23284   */\n      dup1\n        /* \"#utility.yul\":23286:23292   */\n      0x00\n        /* \"#utility.yul\":23339:23341   */\n      0x60\n        /* \"#utility.yul\":23327:23336   */\n      dup5\n        /* \"#utility.yul\":23318:23325   */\n      dup7\n        /* \"#utility.yul\":23314:23337   */\n      sub\n        /* \"#utility.yul\":23310:23342   */\n      slt\n        /* \"#utility.yul\":23307:23359   */\n      iszero\n      tag_745\n      jumpi\n        /* \"#utility.yul\":23355:23356   */\n      0x00\n        /* \"#utility.yul\":23352:23353   */\n      dup1\n        /* \"#utility.yul\":23345:23357   */\n      revert\n        /* \"#utility.yul\":23307:23359   */\n    tag_745:\n        /* \"#utility.yul\":23391:23400   */\n      dup4\n        /* \"#utility.yul\":23378:23401   */\n      calldataload\n        /* \"#utility.yul\":23368:23401   */\n      swap3\n      pop\n        /* \"#utility.yul\":23420:23458   */\n      tag_746\n        /* \"#utility.yul\":23454:23456   */\n      0x20\n        /* \"#utility.yul\":23443:23452   */\n      dup6\n        /* \"#utility.yul\":23439:23457   */\n      add\n        /* \"#utility.yul\":23420:23458   */\n      tag_548\n      jump\t// in\n    tag_746:\n        /* \"#utility.yul\":23410:23458   */\n      swap2\n      pop\n        /* \"#utility.yul\":23477:23512   */\n      tag_687\n        /* \"#utility.yul\":23508:23510   */\n      0x40\n        /* \"#utility.yul\":23497:23506   */\n      dup6\n        /* \"#utility.yul\":23493:23511   */\n      add\n        /* \"#utility.yul\":23477:23512   */\n      tag_558\n      jump\t// in\n        /* \"#utility.yul\":23523:23855   */\n    tag_170:\n        /* \"#utility.yul\":23730:23732   */\n      0x40\n        /* \"#utility.yul\":23719:23728   */\n      dup2\n        /* \"#utility.yul\":23712:23733   */\n      mstore\n        /* \"#utility.yul\":23693:23697   */\n      0x00\n        /* \"#utility.yul\":23750:23806   */\n      tag_749\n        /* \"#utility.yul\":23802:23804   */\n      0x40\n        /* \"#utility.yul\":23791:23800   */\n      dup4\n        /* \"#utility.yul\":23787:23805   */\n      add\n        /* \"#utility.yul\":23779:23785   */\n      dup6\n        /* \"#utility.yul\":23750:23806   */\n      tag_563\n      jump\t// in\n    tag_749:\n        /* \"#utility.yul\":23742:23806   */\n      swap1\n      pop\n        /* \"#utility.yul\":23842:23848   */\n      dup3\n        /* \"#utility.yul\":23837:23839   */\n      0x20\n        /* \"#utility.yul\":23826:23835   */\n      dup4\n        /* \"#utility.yul\":23822:23840   */\n      add\n        /* \"#utility.yul\":23815:23849   */\n      mstore\n        /* \"#utility.yul\":23523:23855   */\n      swap4\n      swap3\n      pop\n      pop\n      pop\n      jump\t// out\n        /* \"#utility.yul\":23860:24121   */\n    tag_179:\n        /* \"#utility.yul\":24039:24041   */\n      0x20\n        /* \"#utility.yul\":24028:24037   */\n      dup2\n        /* \"#utility.yul\":24021:24042   */\n      mstore\n        /* \"#utility.yul\":24002:24006   */\n      0x00\n        /* \"#utility.yul\":24059:24115   */\n      tag_751\n        /* \"#utility.yul\":24111:24113   */\n      0x20\n        /* \"#utility.yul\":24100:24109   */\n      dup4\n        /* \"#utility.yul\":24096:24114   */\n      add\n        /* \"#utility.yul\":24088:24094   */\n      dup5\n        /* \"#utility.yul\":24059:24115   */\n      tag_566\n      jump\t// in\n    tag_751:\n        /* \"#utility.yul\":24051:24115   */\n      swap4\n        /* \"#utility.yul\":23860:24121   */\n      swap3\n      pop\n      pop\n      pop\n      jump\t// out\n        /* \"#utility.yul\":24126:24374   */\n    tag_191:\n        /* \"#utility.yul\":24194:24200   */\n      0x00\n        /* \"#utility.yul\":24202:24208   */\n      dup1\n        /* \"#utility.yul\":24255:24257   */\n      0x40\n        /* \"#utility.yul\":24243:24252   */\n      dup4\n        /* \"#utility.yul\":24234:24241   */\n      dup6\n        /* \"#utility.yul\":24230:24253   */\n      sub\n        /* \"#utility.yul\":24226:24258   */\n      slt\n        /* \"#utility.yul\":24223:24275   */\n      iszero\n      tag_753\n      jumpi\n        /* \"#utility.yul\":24271:24272   */\n      0x00\n        /* \"#utility.yul\":24268:24269   */\n      dup1\n        /* \"#utility.yul\":24261:24273   */\n      revert\n        /* \"#utility.yul\":24223:24275   */\n    tag_753:\n      pop\n      pop\n        /* \"#utility.yul\":24294:24317   */\n      dup1\n      calldataload\n      swap3\n        /* \"#utility.yul\":24364:24366   */\n      0x20\n        /* \"#utility.yul\":24349:24367   */\n      swap1\n      swap2\n      add\n        /* \"#utility.yul\":24336:24368   */\n      calldataload\n      swap2\n      pop\n        /* \"#utility.yul\":24126:24374   */\n      jump\t// out\n        /* \"#utility.yul\":24379:24587   */\n    tag_194:\n        /* \"#utility.yul\":24525:24527   */\n      0x20\n        /* \"#utility.yul\":24510:24528   */\n      dup2\n      add\n        /* \"#utility.yul\":24537:24581   */\n      tag_269\n        /* \"#utility.yul\":24514:24523   */\n      dup3\n        /* \"#utility.yul\":24563:24569   */\n      dup5\n        /* \"#utility.yul\":24537:24581   */\n      tag_555\n      jump\t// in\n        /* \"#utility.yul\":24592:24778   */\n    tag_211:\n        /* \"#utility.yul\":24651:24657   */\n      0x00\n        /* \"#utility.yul\":24704:24706   */\n      0x20\n        /* \"#utility.yul\":24692:24701   */\n      dup3\n        /* \"#utility.yul\":24683:24690   */\n      dup5\n        /* \"#utility.yul\":24679:24702   */\n      sub\n        /* \"#utility.yul\":24675:24707   */\n      slt\n        /* \"#utility.yul\":24672:24724   */\n      iszero\n      tag_757\n      jumpi\n        /* \"#utility.yul\":24720:24721   */\n      0x00\n        /* \"#utility.yul\":24717:24718   */\n      dup1\n        /* \"#utility.yul\":24710:24722   */\n      revert\n        /* \"#utility.yul\":24672:24724   */\n    tag_757:\n        /* \"#utility.yul\":24743:24772   */\n      tag_751\n        /* \"#utility.yul\":24762:24771   */\n      dup3\n        /* \"#utility.yul\":24743:24772   */\n      tag_548\n      jump\t// in\n        /* \"#utility.yul\":24783:24997   */\n    tag_226:\n        /* \"#utility.yul\":24932:24934   */\n      0x20\n        /* \"#utility.yul\":24917:24935   */\n      dup2\n      add\n        /* \"#utility.yul\":24944:24991   */\n      tag_269\n        /* \"#utility.yul\":24921:24930   */\n      dup3\n        /* \"#utility.yul\":24973:24979   */\n      dup5\n        /* \"#utility.yul\":24944:24991   */\n      tag_567\n      jump\t// in\n        /* \"#utility.yul\":25002:25186   */\n    tag_230:\n        /* \"#utility.yul\":25054:25131   */\n      0x4e487b7100000000000000000000000000000000000000000000000000000000\n        /* \"#utility.yul\":25051:25052   */\n      0x00\n        /* \"#utility.yul\":25044:25132   */\n      mstore\n        /* \"#utility.yul\":25151:25155   */\n      0x32\n        /* \"#utility.yul\":25148:25149   */\n      0x04\n        /* \"#utility.yul\":25141:25156   */\n      mstore\n        /* \"#utility.yul\":25175:25179   */\n      0x24\n        /* \"#utility.yul\":25172:25173   */\n      0x00\n        /* \"#utility.yul\":25165:25180   */\n      revert\n        /* \"#utility.yul\":25191:25628   */\n    tag_241:\n        /* \"#utility.yul\":25270:25271   */\n      0x01\n        /* \"#utility.yul\":25266:25278   */\n      dup2\n      dup2\n      shr\n      swap1\n        /* \"#utility.yul\":25313:25325   */\n      dup3\n      and\n      dup1\n        /* \"#utility.yul\":25334:25395   */\n      tag_763\n      jumpi\n        /* \"#utility.yul\":25388:25392   */\n      0x7f\n        /* \"#utility.yul\":25380:25386   */\n      dup3\n        /* \"#utility.yul\":25376:25393   */\n      and\n        /* \"#utility.yul\":25366:25393   */\n      swap2\n      pop\n        /* \"#utility.yul\":25334:25395   */\n    tag_763:\n        /* \"#utility.yul\":25441:25443   */\n      0x20\n        /* \"#utility.yul\":25433:25439   */\n      dup3\n        /* \"#utility.yul\":25430:25444   */\n      lt\n        /* \"#utility.yul\":25410:25428   */\n      dup2\n        /* \"#utility.yul\":25407:25445   */\n      sub\n        /* \"#utility.yul\":25404:25622   */\n      tag_764\n      jumpi\n        /* \"#utility.yul\":25478:25555   */\n      0x4e487b7100000000000000000000000000000000000000000000000000000000\n        /* \"#utility.yul\":25475:25476   */\n      0x00\n        /* \"#utility.yul\":25468:25556   */\n      mstore\n        /* \"#utility.yul\":25579:25583   */\n      0x22\n        /* \"#utility.yul\":25576:25577   */\n      0x04\n        /* \"#utility.yul\":25569:25584   */\n      mstore\n        /* \"#utility.yul\":25607:25611   */\n      0x24\n        /* \"#utility.yul\":25604:25605   */\n      0x00\n        /* \"#utility.yul\":25597:25612   */\n      revert\n        /* \"#utility.yul\":25404:25622   */\n    tag_764:\n      pop\n        /* \"#utility.yul\":25191:25628   */\n      swap2\n      swap1\n      pop\n      jump\t// out\n        /* \"#utility.yul\":25759:26304   */\n    tag_570:\n        /* \"#utility.yul\":25861:25863   */\n      0x1f\n        /* \"#utility.yul\":25856:25859   */\n      dup3\n        /* \"#utility.yul\":25853:25864   */\n      gt\n        /* \"#utility.yul\":25850:26298   */\n      iszero\n      tag_767\n      jumpi\n        /* \"#utility.yul\":25897:25898   */\n      0x00\n        /* \"#utility.yul\":25922:25927   */\n      dup2\n        /* \"#utility.yul\":25918:25920   */\n      dup2\n        /* \"#utility.yul\":25911:25928   */\n      mstore\n        /* \"#utility.yul\":25967:25971   */\n      0x20\n        /* \"#utility.yul\":25963:25965   */\n      dup2\n        /* \"#utility.yul\":25953:25972   */\n      keccak256\n        /* \"#utility.yul\":26037:26039   */\n      0x1f\n        /* \"#utility.yul\":26025:26035   */\n      dup6\n        /* \"#utility.yul\":26021:26040   */\n      add\n        /* \"#utility.yul\":26018:26019   */\n      0x05\n        /* \"#utility.yul\":26014:26041   */\n      shr\n        /* \"#utility.yul\":26008:26012   */\n      dup2\n        /* \"#utility.yul\":26004:26042   */\n      add\n        /* \"#utility.yul\":26073:26077   */\n      0x20\n        /* \"#utility.yul\":26061:26071   */\n      dup7\n        /* \"#utility.yul\":26058:26078   */\n      lt\n        /* \"#utility.yul\":26055:26102   */\n      iszero\n      tag_768\n      jumpi\n      pop\n        /* \"#utility.yul\":26096:26100   */\n      dup1\n        /* \"#utility.yul\":26055:26102   */\n    tag_768:\n        /* \"#utility.yul\":26151:26153   */\n      0x1f\n        /* \"#utility.yul\":26146:26149   */\n      dup6\n        /* \"#utility.yul\":26142:26154   */\n      add\n        /* \"#utility.yul\":26139:26140   */\n      0x05\n        /* \"#utility.yul\":26135:26155   */\n      shr\n        /* \"#utility.yul\":26129:26133   */\n      dup3\n        /* \"#utility.yul\":26125:26156   */\n      add\n        /* \"#utility.yul\":26115:26156   */\n      swap2\n      pop\n        /* \"#utility.yul\":26206:26288   */\n    tag_769:\n        /* \"#utility.yul\":26224:26226   */\n      dup2\n        /* \"#utility.yul\":26217:26222   */\n      dup2\n        /* \"#utility.yul\":26214:26227   */\n      lt\n        /* \"#utility.yul\":26206:26288   */\n      iszero\n      tag_771\n      jumpi\n        /* \"#utility.yul\":26269:26286   */\n      dup3\n      dup2\n      sstore\n        /* \"#utility.yul\":26250:26251   */\n      0x01\n        /* \"#utility.yul\":26239:26252   */\n      add\n        /* \"#utility.yul\":26206:26288   */\n      jump(tag_769)\n    tag_771:\n        /* \"#utility.yul\":26210:26213   */\n      pop\n      pop\n      pop\n        /* \"#utility.yul\":25850:26298   */\n    tag_767:\n        /* \"#utility.yul\":25759:26304   */\n      pop\n      pop\n      pop\n      jump\t// out\n        /* \"#utility.yul\":26540:28011   */\n    tag_233:\n        /* \"#utility.yul\":26666:26669   */\n      dup2\n        /* \"#utility.yul\":26660:26670   */\n      mload\n        /* \"#utility.yul\":26693:26711   */\n      0xffffffffffffffff\n        /* \"#utility.yul\":26685:26691   */\n      dup2\n        /* \"#utility.yul\":26682:26712   */\n      gt\n        /* \"#utility.yul\":26679:26735   */\n      iszero\n      tag_775\n      jumpi\n        /* \"#utility.yul\":26715:26733   */\n      tag_775\n      tag_373\n      jump\t// in\n    tag_775:\n        /* \"#utility.yul\":26744:26841   */\n      tag_776\n        /* \"#utility.yul\":26834:26840   */\n      dup2\n        /* \"#utility.yul\":26794:26832   */\n      tag_777\n        /* \"#utility.yul\":26826:26830   */\n      dup5\n        /* \"#utility.yul\":26820:26831   */\n      sload\n        /* \"#utility.yul\":26794:26832   */\n      tag_241\n      jump\t// in\n    tag_777:\n        /* \"#utility.yul\":26788:26792   */\n      dup5\n        /* \"#utility.yul\":26744:26841   */\n      tag_570\n      jump\t// in\n    tag_776:\n        /* \"#utility.yul\":26896:26900   */\n      0x20\n      dup1\n        /* \"#utility.yul\":26960:26962   */\n      0x1f\n        /* \"#utility.yul\":26949:26963   */\n      dup4\n      gt\n        /* \"#utility.yul\":26977:26978   */\n      0x01\n        /* \"#utility.yul\":26972:27754   */\n      dup2\n      eq\n      tag_779\n      jumpi\n        /* \"#utility.yul\":27798:27799   */\n      0x00\n        /* \"#utility.yul\":27815:27821   */\n      dup5\n        /* \"#utility.yul\":27812:27901   */\n      iszero\n      tag_780\n      jumpi\n      pop\n        /* \"#utility.yul\":27867:27886   */\n      dup6\n      dup4\n      add\n        /* \"#utility.yul\":27861:27887   */\n      mload\n        /* \"#utility.yul\":27812:27901   */\n    tag_780:\n        /* \"#utility.yul\":26446:26512   */\n      0xffffffffffffffffffffffffffffffffffffffffffffffffffffffffffffffff\n        /* \"#utility.yul\":26437:26438   */\n      0x03\n        /* \"#utility.yul\":26433:26444   */\n      dup7\n      swap1\n      shl\n        /* \"#utility.yul\":26429:26513   */\n      shr\n        /* \"#utility.yul\":26425:26514   */\n      not\n        /* \"#utility.yul\":26415:26515   */\n      and\n        /* \"#utility.yul\":26521:26522   */\n      0x01\n        /* \"#utility.yul\":26517:26528   */\n      dup6\n      swap1\n      shl\n        /* \"#utility.yul\":26412:26529   */\n      or\n        /* \"#utility.yul\":27914:27995   */\n      dup6\n      sstore\n        /* \"#utility.yul\":26942:28005   */\n      jump(tag_771)\n        /* \"#utility.yul\":26972:27754   */\n    tag_779:\n        /* \"#utility.yul\":25706:25707   */\n      0x00\n        /* \"#utility.yul\":25699:25713   */\n      dup6\n      dup2\n      mstore\n        /* \"#utility.yul\":25743:25747   */\n      0x20\n        /* \"#utility.yul\":25730:25748   */\n      dup2\n      keccak256\n      not(0x1f)\n        /* \"#utility.yul\":27008:27087   */\n      dup7\n      and\n      swap2\n        /* \"#utility.yul\":27185:27421   */\n    tag_783:\n        /* \"#utility.yul\":27199:27206   */\n      dup3\n        /* \"#utility.yul\":27196:27197   */\n      dup2\n        /* \"#utility.yul\":27193:27207   */\n      lt\n        /* \"#utility.yul\":27185:27421   */\n      iszero\n      tag_785\n      jumpi\n        /* \"#utility.yul\":27288:27307   */\n      dup9\n      dup7\n      add\n        /* \"#utility.yul\":27282:27308   */\n      mload\n        /* \"#utility.yul\":27267:27309   */\n      dup3\n      sstore\n        /* \"#utility.yul\":27380:27407   */\n      swap5\n      dup5\n      add\n      swap5\n        /* \"#utility.yul\":27348:27349   */\n      0x01\n        /* \"#utility.yul\":27336:27350   */\n      swap1\n      swap2\n      add\n      swap1\n        /* \"#utility.yul\":27215:27234   */\n      dup5\n      add\n        /* \"#utility.yul\":27185:27421   */\n      jump(tag_783)\n    tag_785:\n        /* \"#utility.yul\":27189:27192   */\n      pop\n        /* \"#utility.yul\":27449:27455   */\n      dup6\n        /* \"#utility.yul\":27440:27447   */\n      dup3\n        /* \"#utility.yul\":27437:27456   */\n      lt\n        /* \"#utility.yul\":27434:27695   */\n      iszero\n      tag_786\n      jumpi\n        /* \"#utility.yul\":27510:27529   */\n      dup8\n      dup6\n      add\n        /* \"#utility.yul\":27504:27530   */\n      mload\n        /* \"#utility.yul\":27611:27677   */\n      0xffffffffffffffffffffffffffffffffffffffffffffffffffffffffffffffff\n        /* \"#utility.yul\":27593:27594   */\n      0x03\n        /* \"#utility.yul\":27589:27603   */\n      dup9\n      swap1\n      shl\n        /* \"#utility.yul\":27605:27608   */\n      0xf8\n        /* \"#utility.yul\":27585:27609   */\n      and\n        /* \"#utility.yul\":27581:27678   */\n      shr\n        /* \"#utility.yul\":27577:27679   */\n      not\n        /* \"#utility.yul\":27562:27680   */\n      and\n        /* \"#utility.yul\":27547:27681   */\n      dup2\n      sstore\n        /* \"#utility.yul\":27434:27695   */\n    tag_786:\n      pop\n      pop\n      pop\n      pop\n      pop\n        /* \"#utility.yul\":27741:27742   */\n      0x01\n        /* \"#utility.yul\":27725:27739   */\n      swap1\n      dup2\n      shl\n        /* \"#utility.yul\":27721:27743   */\n      add\n        /* \"#utility.yul\":27708:27744   */\n      swap1\n      sstore\n      pop\n        /* \"#utility.yul\":26540:28011   */\n      jump\t// out\n        /* \"#utility.yul\":28016:28654   */\n    tag_235:\n        /* \"#utility.yul\":28299:28305   */\n      dup7\n        /* \"#utility.yul\":28288:28297   */\n      dup2\n        /* \"#utility.yul\":28281:28306   */\n      mstore\n        /* \"#utility.yul\":28342:28348   */\n      dup6\n        /* \"#utility.yul\":28337:28339   */\n      0x20\n        /* \"#utility.yul\":28326:28335   */\n      dup3\n        /* \"#utility.yul\":28322:28340   */\n      add\n        /* \"#utility.yul\":28315:28349   */\n      mstore\n        /* \"#utility.yul\":28385:28391   */\n      dup5\n        /* \"#utility.yul\":28380:28382   */\n      0x40\n        /* \"#utility.yul\":28369:28378   */\n      dup3\n        /* \"#utility.yul\":28365:28383   */\n      add\n        /* \"#utility.yul\":28358:28392   */\n      mstore\n        /* \"#utility.yul\":28428:28431   */\n      0xc0\n        /* \"#utility.yul\":28423:28425   */\n      0x60\n        /* \"#utility.yul\":28412:28421   */\n      dup3\n        /* \"#utility.yul\":28408:28426   */\n      add\n        /* \"#utility.yul\":28401:28432   */\n      mstore\n        /* \"#utility.yul\":28262:28266   */\n      0x00\n        /* \"#utility.yul\":28449:28495   */\n      tag_788\n        /* \"#utility.yul\":28490:28493   */\n      0xc0\n        /* \"#utility.yul\":28479:28488   */\n      dup4\n        /* \"#utility.yul\":28475:28494   */\n      add\n        /* \"#utility.yul\":28467:28473   */\n      dup7\n        /* \"#utility.yul\":28449:28495   */\n      tag_554\n      jump\t// in\n    tag_788:\n      sub(shl(0xa0, 0x01), 0x01)\n        /* \"#utility.yul\":28532:28587   */\n      swap5\n      swap1\n      swap5\n      and\n        /* \"#utility.yul\":28526:28529   */\n      0x80\n        /* \"#utility.yul\":28511:28530   */\n      dup4\n      add\n        /* \"#utility.yul\":28504:28588   */\n      mstore\n      pop\n        /* \"#utility.yul\":28632:28646   */\n      swap1\n      iszero\n        /* \"#utility.yul\":28625:28647   */\n      iszero\n        /* \"#utility.yul\":28619:28622   */\n      0xa0\n        /* \"#utility.yul\":28604:28623   */\n      swap1\n      swap2\n      add\n        /* \"#utility.yul\":28597:28648   */\n      mstore\n        /* \"#utility.yul\":28441:28495   */\n      swap5\n        /* \"#utility.yul\":28016:28654   */\n      swap4\n      pop\n      pop\n      pop\n      pop\n      jump\t// out\n        /* \"#utility.yul\":28659:28843   */\n    tag_572:\n        /* \"#utility.yul\":28711:28788   */\n      0x4e487b7100000000000000000000000000000000000000000000000000000000\n        /* \"#utility.yul\":28708:28709   */\n      0x00\n        /* \"#utility.yul\":28701:28789   */\n      mstore\n        /* \"#utility.yul\":28808:28812   */\n      0x11\n        /* \"#utility.yul\":28805:28806   */\n      0x04\n        /* \"#utility.yul\":28798:28813   */\n      mstore\n        /* \"#utility.yul\":28832:28836   */\n      0x24\n        /* \"#utility.yul\":28829:28830   */\n      0x00\n        /* \"#utility.yul\":28822:28837   */\n      revert\n        /* \"#utility.yul\":28848:28973   */\n    tag_263:\n        /* \"#utility.yul\":28913:28922   */\n      dup1\n      dup3\n      add\n        /* \"#utility.yul\":28934:28944   */\n      dup1\n      dup3\n      gt\n        /* \"#utility.yul\":28931:28967   */\n      iszero\n      tag_269\n      jumpi\n        /* \"#utility.yul\":28947:28965   */\n      tag_269\n      tag_572\n      jump\t// in\n        /* \"#utility.yul\":28978:29383   */\n    tag_268:\n        /* \"#utility.yul\":29195:29220   */\n      dup4\n      dup2\n      mstore\n        /* \"#utility.yul\":29183:29185   */\n      0x60\n        /* \"#utility.yul\":29168:29186   */\n      dup2\n      add\n        /* \"#utility.yul\":29229:29285   */\n      tag_794\n        /* \"#utility.yul\":29281:29283   */\n      0x20\n        /* \"#utility.yul\":29266:29284   */\n      dup4\n      add\n        /* \"#utility.yul\":29258:29264   */\n      dup6\n        /* \"#utility.yul\":29229:29285   */\n      tag_567\n      jump\t// in\n    tag_794:\n      sub(shl(0xa0, 0x01), 0x01)\n        /* \"#utility.yul\":29325:29331   */\n      dup4\n        /* \"#utility.yul\":29321:29376   */\n      and\n        /* \"#utility.yul\":29316:29318   */\n      0x40\n        /* \"#utility.yul\":29305:29314   */\n      dup4\n        /* \"#utility.yul\":29301:29319   */\n      add\n        /* \"#utility.yul\":29294:29377   */\n      mstore\n        /* \"#utility.yul\":28978:29383   */\n      swap5\n      swap4\n      pop\n      pop\n      pop\n      pop\n      jump\t// out\n        /* \"#utility.yul\":29388:30047   */\n    tag_274:\n        /* \"#utility.yul\":29683:29708   */\n      dup7\n      dup2\n      mstore\n      sub(shl(0xa0, 0x01), 0x01)\n        /* \"#utility.yul\":29805:29820   */\n      dup7\n      dup2\n      and\n        /* \"#utility.yul\":29800:29802   */\n      0x20\n        /* \"#utility.yul\":29785:29803   */\n      dup4\n      add\n        /* \"#utility.yul\":29778:29821   */\n      mstore\n        /* \"#utility.yul\":29852:29854   */\n      0x40\n        /* \"#utility.yul\":29837:29855   */\n      dup3\n      add\n        /* \"#utility.yul\":29830:29864   */\n      dup7\n      swap1\n      mstore\n        /* \"#utility.yul\":29670:29673   */\n      0xc0\n        /* \"#utility.yul\":29655:29674   */\n      dup3\n      add\n      swap1\n        /* \"#utility.yul\":29873:29928   */\n      tag_796\n        /* \"#utility.yul\":29924:29926   */\n      0x60\n        /* \"#utility.yul\":29909:29927   */\n      dup5\n      add\n        /* \"#utility.yul\":29901:29907   */\n      dup8\n        /* \"#utility.yul\":29873:29928   */\n      tag_568\n      jump\t// in\n    tag_796:\n        /* \"#utility.yul\":29979:29985   */\n      dup5\n        /* \"#utility.yul\":29972:29986   */\n      iszero\n        /* \"#utility.yul\":29965:29987   */\n      iszero\n        /* \"#utility.yul\":29959:29962   */\n      0x80\n        /* \"#utility.yul\":29948:29957   */\n      dup5\n        /* \"#utility.yul\":29944:29963   */\n      add\n        /* \"#utility.yul\":29937:29988   */\n      mstore\n        /* \"#utility.yul\":30037:30039   */\n      dup1\n        /* \"#utility.yul\":30029:30035   */\n      dup5\n        /* \"#utility.yul\":30025:30040   */\n      and\n        /* \"#utility.yul\":30019:30022   */\n      0xa0\n        /* \"#utility.yul\":30008:30017   */\n      dup5\n        /* \"#utility.yul\":30004:30023   */\n      add\n        /* \"#utility.yul\":29997:30041   */\n      mstore\n      pop\n        /* \"#utility.yul\":29388:30047   */\n      swap8\n      swap7\n      pop\n      pop\n      pop\n      pop\n      pop\n      pop\n      pop\n      jump\t// out\n        /* \"#utility.yul\":30052:30247   */\n    tag_294:\n        /* \"#utility.yul\":30091:30094   */\n      0x00\n        /* \"#utility.yul\":30122:30188   */\n      0xffffffffffffffffffffffffffffffffffffffffffffffffffffffffffffffff\n        /* \"#utility.yul\":30115:30120   */\n      dup3\n        /* \"#utility.yul\":30112:30189   */\n      sub\n        /* \"#utility.yul\":30109:30212   */\n      tag_799\n      jumpi\n        /* \"#utility.yul\":30192:30210   */\n      tag_799\n      tag_572\n      jump\t// in\n    tag_799:\n      pop\n        /* \"#utility.yul\":30239:30240   */\n      0x01\n        /* \"#utility.yul\":30228:30241   */\n      add\n      swap1\n        /* \"#utility.yul\":30052:30247   */\n      jump\t// out\n        /* \"#utility.yul\":30252:30723   */\n    tag_302:\n        /* \"#utility.yul\":30495:30520   */\n      dup5\n      dup2\n      mstore\n        /* \"#utility.yul\":30551:30553   */\n      0x20\n        /* \"#utility.yul\":30536:30554   */\n      dup2\n      add\n        /* \"#utility.yul\":30529:30563   */\n      dup5\n      swap1\n      mstore\n        /* \"#utility.yul\":30482:30485   */\n      0x80\n        /* \"#utility.yul\":30467:30486   */\n      dup2\n      add\n        /* \"#utility.yul\":30572:30625   */\n      tag_801\n        /* \"#utility.yul\":30621:30623   */\n      0x40\n        /* \"#utility.yul\":30606:30624   */\n      dup4\n      add\n        /* \"#utility.yul\":30598:30604   */\n      dup6\n        /* \"#utility.yul\":30572:30625   */\n      tag_555\n      jump\t// in\n    tag_801:\n      sub(shl(0xa0, 0x01), 0x01)\n        /* \"#utility.yul\":30665:30671   */\n      dup4\n        /* \"#utility.yul\":30661:30716   */\n      and\n        /* \"#utility.yul\":30656:30658   */\n      0x60\n        /* \"#utility.yul\":30645:30654   */\n      dup4\n        /* \"#utility.yul\":30641:30659   */\n      add\n        /* \"#utility.yul\":30634:30717   */\n      mstore\n        /* \"#utility.yul\":30252:30723   */\n      swap6\n      swap5\n      pop\n      pop\n      pop\n      pop\n      pop\n      jump\t// out\n        /* \"#utility.yul\":30728:30856   */\n    tag_363:\n        /* \"#utility.yul\":30795:30804   */\n      dup2\n      dup2\n      sub\n        /* \"#utility.yul\":30816:30827   */\n      dup2\n      dup2\n      gt\n        /* \"#utility.yul\":30813:30850   */\n      iszero\n      tag_269\n      jumpi\n        /* \"#utility.yul\":30830:30848   */\n      tag_269\n      tag_572\n      jump\t// in\n\n    auxdata: 0xa26469706673582212203c3dbba4fc60ad8eebbc8ae7981f132c88bfbe9d73420a43591322c8e916f30564736f6c63430008110033\n}\n",
				"bytecode": {
					"linkReferences": {},
					"object": "608060405234801561001057600080fd5b50613958806100206000396000f3fe608060405234801561001057600080fd5b50600436106102d35760003560e01c80636e97398211610186578063a1e047f3116100e3578063ca74a58911610097578063e1ca7ca711610071578063e1ca7ca7146107e0578063f8626ebb146107f3578063ffcce7761461081657600080fd5b8063ca74a58914610781578063d2fed69c14610794578063d3d7bc3b146107b757600080fd5b8063ad607c72116100c8578063ad607c721461073b578063b647eec31461075b578063c061bb821461076e57600080fd5b8063a1e047f3146106ee578063a87d942c1461073357600080fd5b80638a9a9ff31161013a5780639722f0991161011f5780639722f09914610642578063983a12a814610668578063992d60f31461068857600080fd5b80638a9a9ff31461060e5780638b3f3a6f1461062157600080fd5b8063790485f91161016b578063790485f91461059a5780637c34eb85146105d05780637c35beb7146105fb57600080fd5b80636e97398214610564578063752458c51461058757600080fd5b806331d396ce116102345780635bf608b8116101e857806363e3ccad116101cd57806363e3ccad146105365780636c431904146105495780636cefce6e1461055c57600080fd5b80635bf608b8146104d55780635fed5eb21461051657600080fd5b8063429edaa211610219578063429edaa214610474578063546677aa1461048757806357840da6146104c257600080fd5b806331d396ce146103fb57806333e68dcd1461046157600080fd5b806319f170881161028b5780631fa2bf4c116102705780631fa2bf4c1461038357806325e78e7014610396578063271ff03f146103b657600080fd5b806319f170881461035d5780631af5fa161461037057600080fd5b8063172372c2116102bc578063172372c21461031657806317e925d714610329578063193620e71461033c57600080fd5b806305c3f9c9146102d857806312506f4d146102ed575b600080fd5b6102eb6102e6366004612936565b61084f565b005b6103006102fb366004612997565b61090f565b60405161030d9190612a39565b60405180910390f35b6102eb610324366004612b89565b610bb7565b6102eb610337366004612bb3565b610be8565b61034f61034a366004612be7565b610c7a565b60405190815260200161030d565b6102eb61036b366004612c13565b610ca4565b6102eb61037e366004612fc8565b610d3e565b6102eb61039136600461300f565b610f89565b6103a96103a4366004612997565b611029565b60405161030d91906131ef565b6102eb6103c43660046133bd565b60009283526002602090815260408085206001600160a01b0390941685529281529183208054600181018255908452919092200155565b6102eb610409366004612be7565b6000918252602082815260408320600d018054600181018255908452922090910180547fffffffffffffffffffffffff0000000000000000000000000000000000000000166001600160a01b03909216919091179055565b6102eb61046f366004612936565b611627565b6102eb610482366004612997565b6116d8565b6104b2610495366004612997565b600090815260208190526040902060130154610100900460ff1690565b604051901515815260200161030d565b6102eb6104d0366004612b89565b6116fd565b6104fe6104e3366004612997565b6000908152602081905260409020546001600160a01b031690565b6040516001600160a01b03909116815260200161030d565b610529610524366004612be7565b611725565b60405161030d9190613402565b6102eb6105443660046134b2565b611a35565b6102eb610557366004612c13565b611a92565b6102eb611b1e565b61034f610572366004612997565b6000908152602081905260409020600b015490565b61034f6105953660046134d5565b611b33565b61034f6105a8366004612be7565b60009182526003602090815260408084206001600160a01b0393909316845291905290205490565b6104b26105de366004612997565b6000908152602081905260409020600a0154610100900460ff1690565b610529610609366004612be7565b611e3e565b6104b261061c3660046134b2565b612141565b61063461062f366004613512565b61218b565b60405161030d929190613545565b6104b2610650366004612997565b60009081526020819052604090206013015460ff1690565b61067b610676366004612997565b6124b6565b60405161030d9190613567565b6102eb610696366004612be7565b6000918252602082815260408320600e018054600181018255908452922090910180547fffffffffffffffffffffffff0000000000000000000000000000000000000000166001600160a01b03909216919091179055565b6102eb6106fc3660046133bd565b60009283526003602090815260408085206001600160a01b0390941685529281529183208054600181018255908452919092200155565b60045461034f565b61074e610749366004613581565b612523565b60405161030d91906135a3565b61067b610769366004612997565b612564565b6102eb61077c3660046134b2565b6125cf565b6102eb61078f366004612997565b612651565b61034f6107a2366004612997565b6000908152602081905260409020600d015490565b61034f6107c53660046135b1565b6001600160a01b031660009081526001602052604090205490565b61034f6107ee366004613581565b61266e565b61034f610801366004612997565b6000908152602081905260409020600e015490565b610842610824366004612997565b60009081526020819052604090206013015462010000900460ff1690565b60405161030d91906135cc565b6000848152602081905260409020600c0180544291829185908110610876576108766135da565b60009182526020808320600a600b9093020191909101929092558681526003825260408082206001600160a01b0388168352835280822086835260019081019093529020016108c583826136ab565b507f79d1efbc53e0b7b5b56c575cd2fd71b51f8d41409f12b1aba3471e667890609885848385886000604051610900969594939291906137a7565b60405180910390a15050505050565b600081815260208181526040808320600c01805482518185028101850190935280835260609492939192909184015b82821015610bac57600084815260209020604080516101808101909152600b84029091018054829060a082019083908290829061097a90613609565b80601f01602080910402602001604051908101604052809291908181526020018280546109a690613609565b80156109f35780601f106109c8576101008083540402835291602001916109f3565b820191906000526020600020905b8154815290600101906020018083116109d657829003601f168201915b505050505081526020016001820154815260200160028201548152602001600382015481526020016004820154815260200160058201548152602001600682018054610a3e90613609565b80601f0160208091040260200160405190810160405280929190818152602001828054610a6a90613609565b8015610ab75780601f10610a8c57610100808354040283529160200191610ab7565b820191906000526020600020905b815481529060010190602001808311610a9a57829003601f168201915b505050505081525050815260200160078201548152602001600882018054610ade90613609565b80601f0160208091040260200160405190810160405280929190818152602001828054610b0a90613609565b8015610b575780601f10610b2c57610100808354040283529160200191610b57565b820191906000526020600020905b815481529060010190602001808311610b3a57829003601f168201915b5050509183525050600982015460209091019060ff16600b811115610b7e57610b7e6129f6565b600b811115610b8f57610b8f6129f6565b8152602001600a820154815250508152602001906001019061093e565b505050509050919050565b6001600160a01b03821660009081526001602052604081208054839290610bdf90849061381e565b90915550505050565b600082815260208190526040902060130180548291907fffffffffffffffffffffffffffffffffffffffffffffffffffffffffff00ffff1662010000836007811115610c3657610c366129f6565b02179055507fdea20a6d822b68d598b7ab4fd45418a7ca7b103f12d300bcc3b56a7b94d9ed33828233604051610c6e93929190613831565b60405180910390a15050565b60008281526002602090815260408083206001600160a01b03851684529091529020545b92915050565b60008481526002602090815260408083206001600160a01b0387168452825280832085845260019081019092529091208054839260ff1990911690836004811115610cf157610cf16129f6565b02179055507f4b906571b20f3dcdf826b53f3c66528e252b2eb87de3cb812f18e6859e11934484848484600133604051610d309695949392919061385c565b60405180910390a150505050565b60008281526020818152604090912082516001820155908201516002820190610d6790826136ab565b5060408201516003820190610d7c90826136ab565b50606082015160048201556080820151600582015560a0820151600682015560c08201518051610db69160078401916020909101906126ab565b5060e08201516008820155610100808301516009830155610160830151600b830155610120830151600a830180546101408601511580159094027fffffffffffffffffffffffffffffffffffffffffffffffffffffffffffff00ff931515939093167fffffffffffffffffffffffffffffffffffffffffffffffffffffffffffff000090911617919091179055610e585761018082015151600f820155610e60565b6001600f8201555b60138101805460ff1916600117905560005b82610180015151811015610f835781600c018361018001518281518110610e9b57610e9b6135da565b602090810291909101810151825460018101845560009384529190922082518051600b9093029091019182908190610ed390826136ab565b506020820151600182015560408201516002820155606082015160038201556080820151600482015560a0820151600582015560c08201516006820190610f1a90826136ab565b5050506020820151600782015560408201516008820190610f3b90826136ab565b50606082015160098201805460ff1916600183600b811115610f5f57610f5f6129f6565b0217905550608082015181600a015550508080610f7b906138a4565b915050610e72565b50505050565b80600080858152602001908152602001600020600c018381548110610fb057610fb06135da565b90600052602060002090600b020160090160006101000a81548160ff0219169083600b811115610fe257610fe26129f6565b02179055507f188fff7234f3bb35c4f436313ec14267725515e4ca367843cd416621a72fb8a38383833360405161101c94939291906138dc565b60405180910390a1505050565b6110316126f6565b6000828152602081815260409182902082516102e08101845281546001600160a01b03168152600182015492810192909252600281018054929391929184019161107a90613609565b80601f01602080910402602001604051908101604052809291908181526020018280546110a690613609565b80156110f35780601f106110c8576101008083540402835291602001916110f3565b820191906000526020600020905b8154815290600101906020018083116110d657829003601f168201915b5050505050815260200160038201805461110c90613609565b80601f016020809104026020016040519081016040528092919081815260200182805461113890613609565b80156111855780601f1061115a57610100808354040283529160200191611185565b820191906000526020600020905b81548152906001019060200180831161116857829003601f168201915b50505050508152602001600482015481526020016005820154815260200160068201548152602001600782018054806020026020016040519081016040528092919081815260200182805480156111fb57602002820191906000526020600020905b8154815260200190600101908083116111e7575b505050918352505060088201546020808301919091526009830154604080840191909152600a84015460ff808216151560608601526101009091041615156080840152600b84015460a0840152600c8401805482518185028101850190935280835260c090940193919290919060009084015b828210156114dc57600084815260209020604080516101808101909152600b84029091018054829060a08201908390829082906112aa90613609565b80601f01602080910402602001604051908101604052809291908181526020018280546112d690613609565b80156113235780601f106112f857610100808354040283529160200191611323565b820191906000526020600020905b81548152906001019060200180831161130657829003601f168201915b50505050508152602001600182015481526020016002820154815260200160038201548152602001600482015481526020016005820154815260200160068201805461136e90613609565b80601f016020809104026020016040519081016040528092919081815260200182805461139a90613609565b80156113e75780601f106113bc576101008083540402835291602001916113e7565b820191906000526020600020905b8154815290600101906020018083116113ca57829003601f168201915b50505050508152505081526020016007820154815260200160088201805461140e90613609565b80601f016020809104026020016040519081016040528092919081815260200182805461143a90613609565b80156114875780601f1061145c57610100808354040283529160200191611487565b820191906000526020600020905b81548152906001019060200180831161146a57829003601f168201915b5050509183525050600982015460209091019060ff16600b8111156114ae576114ae6129f6565b600b8111156114bf576114bf6129f6565b8152602001600a820154815250508152602001906001019061126e565b505050508152602001600d820180548060200260200160405190810160405280929190818152602001828054801561153d57602002820191906000526020600020905b81546001600160a01b0316815260019091019060200180831161151f575b50505050508152602001600e820180548060200260200160405190810160405280929190818152602001828054801561159f57602002820191906000526020600020905b81546001600160a01b03168152600190910190602001808311611581575b5050509183525050600f8201546020820152601082015460408201526011820154606082015260128201546080820152601382015460ff808216151560a084015261010082048116151560c084015260e0909201916201000090910416600781111561160d5761160d6129f6565b600781111561161e5761161e6129f6565b90525092915050565b6000848152602081905260409020600c018054429182918590811061164e5761164e6135da565b60009182526020808320600a600b9093020191909101929092558681526002825260408082206001600160a01b03881683528352808220868352600190810190935290200161169d83826136ab565b507f79d1efbc53e0b7b5b56c575cd2fd71b51f8d41409f12b1aba3471e667890609885848385886001604051610900969594939291906137a7565b60008181526020819052604081206011018054916116f5836138a4565b919050555050565b6001600160a01b03821660009081526001602052604081208054839290610bdf90849061390f565b611752604051806060016040528060006001600160a01b0316815260200160608152602001606081525090565b61177f604051806060016040528060006001600160a01b0316815260200160608152602001606081525090565b6001600160a01b038316808252600085815260026020908152604080832093835292815290829020805483518184028101840190945280845290918301828280156117e957602002820191906000526020600020905b8154815260200190600101908083116117d5575b5050505060208301829052505160009067ffffffffffffffff811115611811576118116127f6565b60405190808252806020026020018201604052801561185757816020015b60408051808201909152600081526060602082015281526020019060019003908161182f5790505b50905060005b826020015151811015611a285760008681526002602090815260408083206001600160a01b03891684528252822090850151805160019092019291849081106118a8576118a86135da565b6020026020010151815260200190815260200160002060000160009054906101000a900460ff168282815181106118e1576118e16135da565b60200260200101516000019060048111156118fe576118fe6129f6565b90816004811115611911576119116129f6565b90525060008681526002602090815260408083206001600160a01b0389168452825282209085015180516001909201929184908110611952576119526135da565b60200260200101518152602001908152602001600020600101805461197690613609565b80601f01602080910402602001604051908101604052809291908181526020018280546119a290613609565b80156119ef5780601f106119c4576101008083540402835291602001916119ef565b820191906000526020600020905b8154815290600101906020018083116119d257829003601f168201915b5050505050828281518110611a0657611a066135da565b6020026020010151602001819052508080611a20906138a4565b91505061185d565b5060408201529392505050565b60008281526020818152604091829020601301805460ff191684151590811790915582518581529182015233918101919091527f6505631a30f6259a8bbf6422cdc3bd467ddc256b547dad05c5d84abc34abfa1890606001610c6e565b60008481526003602090815260408083206001600160a01b0387168452825280832085845260019081019092529091208054839260ff1990911690836004811115611adf57611adf6129f6565b02179055507f4b906571b20f3dcdf826b53f3c66528e252b2eb87de3cb812f18e6859e11934484848484600033604051610d309695949392919061385c565b600460008154611b2d906138a4565b90915550565b6004805460009182611b44836138a4565b909155505060045460009081526020818152604090912080547fffffffffffffffffffffffff0000000000000000000000000000000000000000163317815583516001820155908301516002820190611b9d90826136ab565b5060408301516003820190611bb290826136ab565b50606083015160048201556080830151600582015560a0830151600682015560c08301518051611bec9160078401916020909101906126ab565b5060e08301516008820155610100808401516009830155610160840151600b830155610120840151600a830180546101408701511580159094027fffffffffffffffffffffffffffffffffffffffffffffffffffffffffffff00ff931515939093167fffffffffffffffffffffffffffffffffffffffffffffffffffffffffffff000090911617919091179055611c955761018083015151600f82018190556010820155611ca4565b6001600f820181905560108201555b6013810180547fffffffffffffffffffffffffffffffffffffffffffffffffffffffffffff00001661010117905560005b83610180015151811015611e335760008461018001518281518110611cfc57611cfc6135da565b602002602001015160600190600b811115611d1957611d196129f6565b9081600b811115611d2c57611d2c6129f6565b8152505081600c018461018001518281518110611d4b57611d4b6135da565b602090810291909101810151825460018101845560009384529190922082518051600b9093029091019182908190611d8390826136ab565b506020820151600182015560408201516002820155606082015160038201556080820151600482015560a0820151600582015560c08201516006820190611dca90826136ab565b5050506020820151600782015560408201516008820190611deb90826136ab565b50606082015160098201805460ff1916600183600b811115611e0f57611e0f6129f6565b0217905550608082015181600a015550508080611e2b906138a4565b915050611cd5565b505060045492915050565b611e6b604051806060016040528060006001600160a01b0316815260200160608152602001606081525090565b611e98604051806060016040528060006001600160a01b0316815260200160608152602001606081525090565b6001600160a01b03831680825260008581526003602090815260408083209383529281529082902080548351818402810184019094528084529091830182828015611f0257602002820191906000526020600020905b815481526020019060010190808311611eee575b5050505060208301829052505160009067ffffffffffffffff811115611f2a57611f2a6127f6565b604051908082528060200260200182016040528015611f7057816020015b604080518082019091526000815260606020820152815260200190600190039081611f485790505b50905060005b826020015151811015611a285760008681526003602090815260408083206001600160a01b0389168452825282209085015180516001909201929184908110611fc157611fc16135da565b6020026020010151815260200190815260200160002060000160009054906101000a900460ff16828281518110611ffa57611ffa6135da565b6020026020010151600001906004811115612017576120176129f6565b9081600481111561202a5761202a6129f6565b90525060008681526003602090815260408083206001600160a01b038916845282528220908501518051600190920192918490811061206b5761206b6135da565b60200260200101518152602001908152602001600020600101805461208f90613609565b80601f01602080910402602001604051908101604052809291908181526020018280546120bb90613609565b80156121085780601f106120dd57610100808354040283529160200191612108565b820191906000526020600020905b8154815290600101906020018083116120eb57829003601f168201915b505050505082828151811061211f5761211f6135da565b6020026020010151602001819052508080612139906138a4565b915050611f76565b6000811561216a575060008281526020819052604090206011810154600f909101541115610c9e565b50600082815260208190526040902060128101546010909101541115610c9e565b60606000606080600080861561220c5760008981526002602090815260408083206001600160a01b038c1684528252918290208054835181840281018401909452808452909183018282801561220057602002820191906000526020600020905b8154815260200190600101908083116121ec575b50505050509350612279565b60008981526003602090815260408083206001600160a01b038c1684528252918290208054835181840281018401909452808452909183018282801561227157602002820191906000526020600020905b81548152602001906001019080831161225d575b505050505093505b60408051808201909152600081526060602082015260005b85518110156124a55760008b81526002602090815260408083206001600160a01b038e16845290915281208751600190910191908890849081106122d7576122d76135da565b602002602001015181526020019081526020016000206040518060400160405290816000820160009054906101000a900460ff16600481111561231c5761231c6129f6565b600481111561232d5761232d6129f6565b815260200160018201805461234190613609565b80601f016020809104026020016040519081016040528092919081815260200182805461236d90613609565b80156123ba5780601f1061238f576101008083540402835291602001916123ba565b820191906000526020600020905b81548152906001019060200180831161239d57829003601f168201915b5050505050815250509150600060048111156123d8576123d86129f6565b825160048111156123eb576123eb6129f6565b0361249357858181518110612402576124026135da565b602002602001015185848151811061241c5761241c6135da565b602090810291909101015282612431816138a4565b9350506000808c8152602001908152602001600020600c0186828151811061245b5761245b6135da565b602002602001015181548110612473576124736135da565b90600052602060002090600b02016007015484612490919061381e565b93505b8061249d816138a4565b915050612291565b509299919850909650505050505050565b60008181526020818152604091829020600d0180548351818402810184019094528084526060939283018282801561251757602002820191906000526020600020905b81546001600160a01b031681526001909101906020018083116124f9575b50505050509050919050565b6000828152602081905260408120600c01805483908110612546576125466135da565b60009182526020909120600b909102016009015460ff169392505050565b60008181526020818152604091829020600e01805483518184028101840190945280845260609392830182828015612517576020028201919060005260206000209081546001600160a01b031681526001909101906020018083116124f95750505050509050919050565b6000828152602081815260409182902060130180547fffffffffffffffffffffffffffffffffffffffffffffffffffffffffffff00ff166101008515159081029190911790915582518581529182015233918101919091527f7251b4359e8a59604ee5edc605cc5e422ed31ecb1cf2b1cb7ed855e8811dfb4c90606001610c6e565b60008181526020819052604081206012018054916116f5836138a4565b6000828152602081905260408120600c01805483908110612691576126916135da565b90600052602060002090600b020160070154905092915050565b8280548282559060005260206000209081019282156126e6579160200282015b828111156126e65782518255916020019190600101906126cb565b506126f29291506127c5565b5090565b604051806102e0016040528060006001600160a01b031681526020016000815260200160608152602001606081526020016000815260200160008152602001600081526020016060815260200160008152602001600081526020016000151581526020016000151581526020016000815260200160608152602001606081526020016060815260200160008152602001600081526020016000815260200160008152602001600015158152602001600015158152602001600060078111156127c0576127c06129f6565b905290565b5b808211156126f257600081556001016127c6565b80356001600160a01b03811681146127f157600080fd5b919050565b7f4e487b7100000000000000000000000000000000000000000000000000000000600052604160045260246000fd5b60405160a0810167ffffffffffffffff81118282101715612848576128486127f6565b60405290565b60405160e0810167ffffffffffffffff81118282101715612848576128486127f6565b6040516101a0810167ffffffffffffffff81118282101715612848576128486127f6565b604051601f8201601f1916810167ffffffffffffffff811182821017156128be576128be6127f6565b604052919050565b600082601f8301126128d757600080fd5b813567ffffffffffffffff8111156128f1576128f16127f6565b6129046020601f19601f84011601612895565b81815284602083860101111561291957600080fd5b816020850160208301376000918101602001919091529392505050565b6000806000806080858703121561294c57600080fd5b8435935061295c602086016127da565b925060408501359150606085013567ffffffffffffffff81111561297f57600080fd5b61298b878288016128c6565b91505092959194509250565b6000602082840312156129a957600080fd5b5035919050565b6000815180845260005b818110156129d6576020818501810151868301820152016129ba565b506000602082860101526020601f19601f83011685010191505092915050565b7f4e487b7100000000000000000000000000000000000000000000000000000000600052602160045260246000fd5b600c8110612a3557612a356129f6565b9052565b60006020808301818452808551808352604092508286019150828160051b87010184880160005b83811015612b7b577fffffffffffffffffffffffffffffffffffffffffffffffffffffffffffffffc0898403018552815160a08151818652805160e08084890152612aaf6101808901836129b0565b91508b83015160c081818b01528c850151838b015260609250828501516101008b015260809150818501516101208b0152858501516101408b0152808501519550507fffffffffffffffffffffffffffffffffffffffffffffffffffffffffffffff60898403016101608a0152612b2683866129b0565b94508c8601518d8a01528b86015193508885038c8a0152612b4785856129b0565b9450818601519350612b5b828a0185612a25565b948501519790940196909652509588019593505090860190600101612a60565b509098975050505050505050565b60008060408385031215612b9c57600080fd5b612ba5836127da565b946020939093013593505050565b60008060408385031215612bc657600080fd5b82359150602083013560088110612bdc57600080fd5b809150509250929050565b60008060408385031215612bfa57600080fd5b82359150612c0a602084016127da565b90509250929050565b60008060008060808587031215612c2957600080fd5b84359350612c39602086016127da565b925060408501359150606085013560058110612c5457600080fd5b939692955090935050565b600067ffffffffffffffff821115612c7957612c796127f6565b5060051b60200190565b600082601f830112612c9457600080fd5b81356020612ca9612ca483612c5f565b612895565b82815260059290921b84018101918181019086841115612cc857600080fd5b8286015b84811015612ce35780358352918301918301612ccc565b509695505050505050565b803580151581146127f157600080fd5b8035600c81106127f157600080fd5b600082601f830112612d1e57600080fd5b81356020612d2e612ca483612c5f565b82815260059290921b84018101918181019086841115612d4d57600080fd5b8286015b84811015612ce357803567ffffffffffffffff80821115612d7157600080fd5b90880190601f1960a0838c0382011215612d8a57600080fd5b612d92612825565b8784013583811115612da357600080fd5b840160e0818e0384011215612db757600080fd5b612dbf61284e565b92508881013584811115612dd257600080fd5b612de08e8b838501016128c6565b84525060408101358984015260608101356040840152608080820135606085015260a08201358185015260c082013560a085015260e082013585811115612e2657600080fd5b612e348f8c838601016128c6565b60c08601525092825260408501358983015260608501359284841115612e5957600080fd5b612e678e8b868901016128c6565b6040840152612e77818701612cfe565b606084015260a09590950135948201949094528652505050918301918301612d51565b60006101a08284031215612ead57600080fd5b612eb5612871565b905081358152602082013567ffffffffffffffff80821115612ed657600080fd5b612ee2858386016128c6565b60208401526040840135915080821115612efb57600080fd5b612f07858386016128c6565b6040840152606084013560608401526080840135608084015260a084013560a084015260c0840135915080821115612f3e57600080fd5b612f4a85838601612c83565b60c084015260e0848101359084015261010080850135908401526101209150612f74828501612cee565b828401526101409150612f88828501612cee565b828401526101609150818401358284015261018091508184013581811115612faf57600080fd5b612fbb86828701612d0d565b8385015250505092915050565b60008060408385031215612fdb57600080fd5b82359150602083013567ffffffffffffffff811115612ff957600080fd5b61300585828601612e9a565b9150509250929050565b60008060006060848603121561302457600080fd5b833592506020840135915061303b60408501612cfe565b90509250925092565b600081518084526020808501945080840160005b8381101561307457815187529582019590820190600101613058565b509495945050505050565b600081518084526020808501808196508360051b8101915082860160005b85811015613199578284038952815160a08151818752805160e080848a01526130ca6101808a01836129b0565b91508983015160c081818c01526040915081850151838c015260609250828501516101008c01526080808601516101208d0152868601516101408d01528186015196507fffffffffffffffffffffffffffffffffffffffffffffffffffffffffffffff608c8603016101608d015261314285886129b0565b96508c8801518d8d01528288015195508b8703838d015261316387876129b0565b9650838801519550613177848d0187612a25565b968701519a90960199909952505050998601999450509084019060010161309d565b5091979650505050505050565b600081518084526020808501945080840160005b838110156130745781516001600160a01b0316875295820195908201906001016131ba565b60088110612a3557612a356129f6565b602081526132096020820183516001600160a01b03169052565b60208201516040820152600060408301516102e08060608501526132316103008501836129b0565b91506060850151601f198086850301608087015261324f84836129b0565b9350608087015160a087015260a087015160c087015260c087015160e087015260e0870151915061010081878603018188015261328c8584613044565b90880151610120888101919091528801516101408089019190915288015190945091506101606132bf8188018415159052565b87015191506101806132d48782018415159052565b808801519250506101a08281880152808801519250506101c0818786030181880152613300858461307f565b9450808801519250506101e081878603018188015261331f85846131a6565b94508088015192505061020081878603018188015261333e85846131a6565b908801516102208881019190915288015161024080890191909152880151610260808901919091528801516102808089019190915288015190945091506102a0905061338d8187018315159052565b86015190506102c06133a28682018315159052565b86015190506133b3858301826131df565b5090949350505050565b6000806000606084860312156133d257600080fd5b833592506133e2602085016127da565b9150604084013590509250925092565b60058110612a3557612a356129f6565b600060208083526001600160a01b03845116818401528084015160406060818601526134316080860183613044565b915080860151601f19808785030160608801528382518086528686019150868160051b870101878501945060005b828110156134a35784888303018452855161347b8382516133f2565b890151828a01889052613490838901826129b0565b968a0196948a019492505060010161345f565b509a9950505050505050505050565b600080604083850312156134c557600080fd5b82359150612c0a60208401612cee565b6000602082840312156134e757600080fd5b813567ffffffffffffffff8111156134fe57600080fd5b61350a84828501612e9a565b949350505050565b60008060006060848603121561352757600080fd5b83359250613537602085016127da565b915061303b60408501612cee565b6040815260006135586040830185613044565b90508260208301529392505050565b60208152600061357a60208301846131a6565b9392505050565b6000806040838503121561359457600080fd5b50508035926020909101359150565b60208101610c9e8284612a25565b6000602082840312156135c357600080fd5b61357a826127da565b60208101610c9e82846131df565b7f4e487b7100000000000000000000000000000000000000000000000000000000600052603260045260246000fd5b600181811c9082168061361d57607f821691505b602082108103613656577f4e487b7100000000000000000000000000000000000000000000000000000000600052602260045260246000fd5b50919050565b601f8211156136a657600081815260208120601f850160051c810160208610156136835750805b601f850160051c820191505b818110156136a25782815560010161368f565b5050505b505050565b815167ffffffffffffffff8111156136c5576136c56127f6565b6136d9816136d38454613609565b8461365c565b602080601f83116001811461372c57600084156136f65750858301515b7fffffffffffffffffffffffffffffffffffffffffffffffffffffffffffffffff600386901b1c1916600185901b1785556136a2565b600085815260208120601f198616915b8281101561375b5788860151825594840194600190910190840161373c565b508582101561379757878501517fffffffffffffffffffffffffffffffffffffffffffffffffffffffffffffffff600388901b60f8161c191681555b5050505050600190811b01905550565b86815285602082015284604082015260c0606082015260006137cc60c08301866129b0565b6001600160a01b039490941660808301525090151560a090910152949350505050565b7f4e487b7100000000000000000000000000000000000000000000000000000000600052601160045260246000fd5b80820180821115610c9e57610c9e6137ef565b8381526060810161384560208301856131df565b6001600160a01b0383166040830152949350505050565b8681526001600160a01b0386811660208301526040820186905260c082019061388860608401876133f2565b841515608084015280841660a084015250979650505050505050565b60007fffffffffffffffffffffffffffffffffffffffffffffffffffffffffffffffff82036138d5576138d56137ef565b5060010190565b84815260208101849052608081016138f76040830185612a25565b6001600160a01b038316606083015295945050505050565b81810381811115610c9e57610c9e6137ef56fea26469706673582212203c3dbba4fc60ad8eebbc8ae7981f132c88bfbe9d73420a43591322c8e916f30564736f6c63430008110033",
					"opcodes": "PUSH1 0x80 PUSH1 0x40 MSTORE CALLVALUE DUP1 ISZERO PUSH2 0x10 JUMPI PUSH1 0x0 DUP1 REVERT JUMPDEST POP PUSH2 0x3958 DUP1 PUSH2 0x20 PUSH1 0x0 CODECOPY PUSH1 0x0 RETURN INVALID PUSH1 0x80 PUSH1 0x40 MSTORE CALLVALUE DUP1 ISZERO PUSH2 0x10 JUMPI PUSH1 0x0 DUP1 REVERT JUMPDEST POP PUSH1 0x4 CALLDATASIZE LT PUSH2 0x2D3 JUMPI PUSH1 0x0 CALLDATALOAD PUSH1 0xE0 SHR DUP1 PUSH4 0x6E973982 GT PUSH2 0x186 JUMPI DUP1 PUSH4 0xA1E047F3 GT PUSH2 0xE3 JUMPI DUP1 PUSH4 0xCA74A589 GT PUSH2 0x97 JUMPI DUP1 PUSH4 0xE1CA7CA7 GT PUSH2 0x71 JUMPI DUP1 PUSH4 0xE1CA7CA7 EQ PUSH2 0x7E0 JUMPI DUP1 PUSH4 0xF8626EBB EQ PUSH2 0x7F3 JUMPI DUP1 PUSH4 0xFFCCE776 EQ PUSH2 0x816 JUMPI PUSH1 0x0 DUP1 REVERT JUMPDEST DUP1 PUSH4 0xCA74A589 EQ PUSH2 0x781 JUMPI DUP1 PUSH4 0xD2FED69C EQ PUSH2 0x794 JUMPI DUP1 PUSH4 0xD3D7BC3B EQ PUSH2 0x7B7 JUMPI PUSH1 0x0 DUP1 REVERT JUMPDEST DUP1 PUSH4 0xAD607C72 GT PUSH2 0xC8 JUMPI DUP1 PUSH4 0xAD607C72 EQ PUSH2 0x73B JUMPI DUP1 PUSH4 0xB647EEC3 EQ PUSH2 0x75B JUMPI DUP1 PUSH4 0xC061BB82 EQ PUSH2 0x76E JUMPI PUSH1 0x0 DUP1 REVERT JUMPDEST DUP1 PUSH4 0xA1E047F3 EQ PUSH2 0x6EE JUMPI DUP1 PUSH4 0xA87D942C EQ PUSH2 0x733 JUMPI PUSH1 0x0 DUP1 REVERT JUMPDEST DUP1 PUSH4 0x8A9A9FF3 GT PUSH2 0x13A JUMPI DUP1 PUSH4 0x9722F099 GT PUSH2 0x11F JUMPI DUP1 PUSH4 0x9722F099 EQ PUSH2 0x642 JUMPI DUP1 PUSH4 0x983A12A8 EQ PUSH2 0x668 JUMPI DUP1 PUSH4 0x992D60F3 EQ PUSH2 0x688 JUMPI PUSH1 0x0 DUP1 REVERT JUMPDEST DUP1 PUSH4 0x8A9A9FF3 EQ PUSH2 0x60E JUMPI DUP1 PUSH4 0x8B3F3A6F EQ PUSH2 0x621 JUMPI PUSH1 0x0 DUP1 REVERT JUMPDEST DUP1 PUSH4 0x790485F9 GT PUSH2 0x16B JUMPI DUP1 PUSH4 0x790485F9 EQ PUSH2 0x59A JUMPI DUP1 PUSH4 0x7C34EB85 EQ PUSH2 0x5D0 JUMPI DUP1 PUSH4 0x7C35BEB7 EQ PUSH2 0x5FB JUMPI PUSH1 0x0 DUP1 REVERT JUMPDEST DUP1 PUSH4 0x6E973982 EQ PUSH2 0x564 JUMPI DUP1 PUSH4 0x752458C5 EQ PUSH2 0x587 JUMPI PUSH1 0x0 DUP1 REVERT JUMPDEST DUP1 PUSH4 0x31D396CE GT PUSH2 0x234 JUMPI DUP1 PUSH4 0x5BF608B8 GT PUSH2 0x1E8 JUMPI DUP1 PUSH4 0x63E3CCAD GT PUSH2 0x1CD JUMPI DUP1 PUSH4 0x63E3CCAD EQ PUSH2 0x536 JUMPI DUP1 PUSH4 0x6C431904 EQ PUSH2 0x549 JUMPI DUP1 PUSH4 0x6CEFCE6E EQ PUSH2 0x55C JUMPI PUSH1 0x0 DUP1 REVERT JUMPDEST DUP1 PUSH4 0x5BF608B8 EQ PUSH2 0x4D5 JUMPI DUP1 PUSH4 0x5FED5EB2 EQ PUSH2 0x516 JUMPI PUSH1 0x0 DUP1 REVERT JUMPDEST DUP1 PUSH4 0x429EDAA2 GT PUSH2 0x219 JUMPI DUP1 PUSH4 0x429EDAA2 EQ PUSH2 0x474 JUMPI DUP1 PUSH4 0x546677AA EQ PUSH2 0x487 JUMPI DUP1 PUSH4 0x57840DA6 EQ PUSH2 0x4C2 JUMPI PUSH1 0x0 DUP1 REVERT JUMPDEST DUP1 PUSH4 0x31D396CE EQ PUSH2 0x3FB JUMPI DUP1 PUSH4 0x33E68DCD EQ PUSH2 0x461 JUMPI PUSH1 0x0 DUP1 REVERT JUMPDEST DUP1 PUSH4 0x19F17088 GT PUSH2 0x28B JUMPI DUP1 PUSH4 0x1FA2BF4C GT PUSH2 0x270 JUMPI DUP1 PUSH4 0x1FA2BF4C EQ PUSH2 0x383 JUMPI DUP1 PUSH4 0x25E78E70 EQ PUSH2 0x396 JUMPI DUP1 PUSH4 0x271FF03F EQ PUSH2 0x3B6 JUMPI PUSH1 0x0 DUP1 REVERT JUMPDEST DUP1 PUSH4 0x19F17088 EQ PUSH2 0x35D JUMPI DUP1 PUSH4 0x1AF5FA16 EQ PUSH2 0x370 JUMPI PUSH1 0x0 DUP1 REVERT JUMPDEST DUP1 PUSH4 0x172372C2 GT PUSH2 0x2BC JUMPI DUP1 PUSH4 0x172372C2 EQ PUSH2 0x316 JUMPI DUP1 PUSH4 0x17E925D7 EQ PUSH2 0x329 JUMPI DUP1 PUSH4 0x193620E7 EQ PUSH2 0x33C JUMPI PUSH1 0x0 DUP1 REVERT JUMPDEST DUP1 PUSH4 0x5C3F9C9 EQ PUSH2 0x2D8 JUMPI DUP1 PUSH4 0x12506F4D EQ PUSH2 0x2ED JUMPI JUMPDEST PUSH1 0x0 DUP1 REVERT JUMPDEST PUSH2 0x2EB PUSH2 0x2E6 CALLDATASIZE PUSH1 0x4 PUSH2 0x2936 JUMP JUMPDEST PUSH2 0x84F JUMP JUMPDEST STOP JUMPDEST PUSH2 0x300 PUSH2 0x2FB CALLDATASIZE PUSH1 0x4 PUSH2 0x2997 JUMP JUMPDEST PUSH2 0x90F JUMP JUMPDEST PUSH1 0x40 MLOAD PUSH2 0x30D SWAP2 SWAP1 PUSH2 0x2A39 JUMP JUMPDEST PUSH1 0x40 MLOAD DUP1 SWAP2 SUB SWAP1 RETURN JUMPDEST PUSH2 0x2EB PUSH2 0x324 CALLDATASIZE PUSH1 0x4 PUSH2 0x2B89 JUMP JUMPDEST PUSH2 0xBB7 JUMP JUMPDEST PUSH2 0x2EB PUSH2 0x337 CALLDATASIZE PUSH1 0x4 PUSH2 0x2BB3 JUMP JUMPDEST PUSH2 0xBE8 JUMP JUMPDEST PUSH2 0x34F PUSH2 0x34A CALLDATASIZE PUSH1 0x4 PUSH2 0x2BE7 JUMP JUMPDEST PUSH2 0xC7A JUMP JUMPDEST PUSH1 0x40 MLOAD SWAP1 DUP2 MSTORE PUSH1 0x20 ADD PUSH2 0x30D JUMP JUMPDEST PUSH2 0x2EB PUSH2 0x36B CALLDATASIZE PUSH1 0x4 PUSH2 0x2C13 JUMP JUMPDEST PUSH2 0xCA4 JUMP JUMPDEST PUSH2 0x2EB PUSH2 0x37E CALLDATASIZE PUSH1 0x4 PUSH2 0x2FC8 JUMP JUMPDEST PUSH2 0xD3E JUMP JUMPDEST PUSH2 0x2EB PUSH2 0x391 CALLDATASIZE PUSH1 0x4 PUSH2 0x300F JUMP JUMPDEST PUSH2 0xF89 JUMP JUMPDEST PUSH2 0x3A9 PUSH2 0x3A4 CALLDATASIZE PUSH1 0x4 PUSH2 0x2997 JUMP JUMPDEST PUSH2 0x1029 JUMP JUMPDEST PUSH1 0x40 MLOAD PUSH2 0x30D SWAP2 SWAP1 PUSH2 0x31EF JUMP JUMPDEST PUSH2 0x2EB PUSH2 0x3C4 CALLDATASIZE PUSH1 0x4 PUSH2 0x33BD JUMP JUMPDEST PUSH1 0x0 SWAP3 DUP4 MSTORE PUSH1 0x2 PUSH1 0x20 SWAP1 DUP2 MSTORE PUSH1 0x40 DUP1 DUP6 KECCAK256 PUSH1 0x1 PUSH1 0x1 PUSH1 0xA0 SHL SUB SWAP1 SWAP5 AND DUP6 MSTORE SWAP3 DUP2 MSTORE SWAP2 DUP4 KECCAK256 DUP1 SLOAD PUSH1 0x1 DUP2 ADD DUP3 SSTORE SWAP1 DUP5 MSTORE SWAP2 SWAP1 SWAP3 KECCAK256 ADD SSTORE JUMP JUMPDEST PUSH2 0x2EB PUSH2 0x409 CALLDATASIZE PUSH1 0x4 PUSH2 0x2BE7 JUMP JUMPDEST PUSH1 0x0 SWAP2 DUP3 MSTORE PUSH1 0x20 DUP3 DUP2 MSTORE PUSH1 0x40 DUP4 KECCAK256 PUSH1 0xD ADD DUP1 SLOAD PUSH1 0x1 DUP2 ADD DUP3 SSTORE SWAP1 DUP5 MSTORE SWAP3 KECCAK256 SWAP1 SWAP2 ADD DUP1 SLOAD PUSH32 0xFFFFFFFFFFFFFFFFFFFFFFFF0000000000000000000000000000000000000000 AND PUSH1 0x1 PUSH1 0x1 PUSH1 0xA0 SHL SUB SWAP1 SWAP3 AND SWAP2 SWAP1 SWAP2 OR SWAP1 SSTORE JUMP JUMPDEST PUSH2 0x2EB PUSH2 0x46F CALLDATASIZE PUSH1 0x4 PUSH2 0x2936 JUMP JUMPDEST PUSH2 0x1627 JUMP JUMPDEST PUSH2 0x2EB PUSH2 0x482 CALLDATASIZE PUSH1 0x4 PUSH2 0x2997 JUMP JUMPDEST PUSH2 0x16D8 JUMP JUMPDEST PUSH2 0x4B2 PUSH2 0x495 CALLDATASIZE PUSH1 0x4 PUSH2 0x2997 JUMP JUMPDEST PUSH1 0x0 SWAP1 DUP2 MSTORE PUSH1 0x20 DUP2 SWAP1 MSTORE PUSH1 0x40 SWAP1 KECCAK256 PUSH1 0x13 ADD SLOAD PUSH2 0x100 SWAP1 DIV PUSH1 0xFF AND SWAP1 JUMP JUMPDEST PUSH1 0x40 MLOAD SWAP1 ISZERO ISZERO DUP2 MSTORE PUSH1 0x20 ADD PUSH2 0x30D JUMP JUMPDEST PUSH2 0x2EB PUSH2 0x4D0 CALLDATASIZE PUSH1 0x4 PUSH2 0x2B89 JUMP JUMPDEST PUSH2 0x16FD JUMP JUMPDEST PUSH2 0x4FE PUSH2 0x4E3 CALLDATASIZE PUSH1 0x4 PUSH2 0x2997 JUMP JUMPDEST PUSH1 0x0 SWAP1 DUP2 MSTORE PUSH1 0x20 DUP2 SWAP1 MSTORE PUSH1 0x40 SWAP1 KECCAK256 SLOAD PUSH1 0x1 PUSH1 0x1 PUSH1 0xA0 SHL SUB AND SWAP1 JUMP JUMPDEST PUSH1 0x40 MLOAD PUSH1 0x1 PUSH1 0x1 PUSH1 0xA0 SHL SUB SWAP1 SWAP2 AND DUP2 MSTORE PUSH1 0x20 ADD PUSH2 0x30D JUMP JUMPDEST PUSH2 0x529 PUSH2 0x524 CALLDATASIZE PUSH1 0x4 PUSH2 0x2BE7 JUMP JUMPDEST PUSH2 0x1725 JUMP JUMPDEST PUSH1 0x40 MLOAD PUSH2 0x30D SWAP2 SWAP1 PUSH2 0x3402 JUMP JUMPDEST PUSH2 0x2EB PUSH2 0x544 CALLDATASIZE PUSH1 0x4 PUSH2 0x34B2 JUMP JUMPDEST PUSH2 0x1A35 JUMP JUMPDEST PUSH2 0x2EB PUSH2 0x557 CALLDATASIZE PUSH1 0x4 PUSH2 0x2C13 JUMP JUMPDEST PUSH2 0x1A92 JUMP JUMPDEST PUSH2 0x2EB PUSH2 0x1B1E JUMP JUMPDEST PUSH2 0x34F PUSH2 0x572 CALLDATASIZE PUSH1 0x4 PUSH2 0x2997 JUMP JUMPDEST PUSH1 0x0 SWAP1 DUP2 MSTORE PUSH1 0x20 DUP2 SWAP1 MSTORE PUSH1 0x40 SWAP1 KECCAK256 PUSH1 0xB ADD SLOAD SWAP1 JUMP JUMPDEST PUSH2 0x34F PUSH2 0x595 CALLDATASIZE PUSH1 0x4 PUSH2 0x34D5 JUMP JUMPDEST PUSH2 0x1B33 JUMP JUMPDEST PUSH2 0x34F PUSH2 0x5A8 CALLDATASIZE PUSH1 0x4 PUSH2 0x2BE7 JUMP JUMPDEST PUSH1 0x0 SWAP2 DUP3 MSTORE PUSH1 0x3 PUSH1 0x20 SWAP1 DUP2 MSTORE PUSH1 0x40 DUP1 DUP5 KECCAK256 PUSH1 0x1 PUSH1 0x1 PUSH1 0xA0 SHL SUB SWAP4 SWAP1 SWAP4 AND DUP5 MSTORE SWAP2 SWAP1 MSTORE SWAP1 KECCAK256 SLOAD SWAP1 JUMP JUMPDEST PUSH2 0x4B2 PUSH2 0x5DE CALLDATASIZE PUSH1 0x4 PUSH2 0x2997 JUMP JUMPDEST PUSH1 0x0 SWAP1 DUP2 MSTORE PUSH1 0x20 DUP2 SWAP1 MSTORE PUSH1 0x40 SWAP1 KECCAK256 PUSH1 0xA ADD SLOAD PUSH2 0x100 SWAP1 DIV PUSH1 0xFF AND SWAP1 JUMP JUMPDEST PUSH2 0x529 PUSH2 0x609 CALLDATASIZE PUSH1 0x4 PUSH2 0x2BE7 JUMP JUMPDEST PUSH2 0x1E3E JUMP JUMPDEST PUSH2 0x4B2 PUSH2 0x61C CALLDATASIZE PUSH1 0x4 PUSH2 0x34B2 JUMP JUMPDEST PUSH2 0x2141 JUMP JUMPDEST PUSH2 0x634 PUSH2 0x62F CALLDATASIZE PUSH1 0x4 PUSH2 0x3512 JUMP JUMPDEST PUSH2 0x218B JUMP JUMPDEST PUSH1 0x40 MLOAD PUSH2 0x30D SWAP3 SWAP2 SWAP1 PUSH2 0x3545 JUMP JUMPDEST PUSH2 0x4B2 PUSH2 0x650 CALLDATASIZE PUSH1 0x4 PUSH2 0x2997 JUMP JUMPDEST PUSH1 0x0 SWAP1 DUP2 MSTORE PUSH1 0x20 DUP2 SWAP1 MSTORE PUSH1 0x40 SWAP1 KECCAK256 PUSH1 0x13 ADD SLOAD PUSH1 0xFF AND SWAP1 JUMP JUMPDEST PUSH2 0x67B PUSH2 0x676 CALLDATASIZE PUSH1 0x4 PUSH2 0x2997 JUMP JUMPDEST PUSH2 0x24B6 JUMP JUMPDEST PUSH1 0x40 MLOAD PUSH2 0x30D SWAP2 SWAP1 PUSH2 0x3567 JUMP JUMPDEST PUSH2 0x2EB PUSH2 0x696 CALLDATASIZE PUSH1 0x4 PUSH2 0x2BE7 JUMP JUMPDEST PUSH1 0x0 SWAP2 DUP3 MSTORE PUSH1 0x20 DUP3 DUP2 MSTORE PUSH1 0x40 DUP4 KECCAK256 PUSH1 0xE ADD DUP1 SLOAD PUSH1 0x1 DUP2 ADD DUP3 SSTORE SWAP1 DUP5 MSTORE SWAP3 KECCAK256 SWAP1 SWAP2 ADD DUP1 SLOAD PUSH32 0xFFFFFFFFFFFFFFFFFFFFFFFF0000000000000000000000000000000000000000 AND PUSH1 0x1 PUSH1 0x1 PUSH1 0xA0 SHL SUB SWAP1 SWAP3 AND SWAP2 SWAP1 SWAP2 OR SWAP1 SSTORE JUMP JUMPDEST PUSH2 0x2EB PUSH2 0x6FC CALLDATASIZE PUSH1 0x4 PUSH2 0x33BD JUMP JUMPDEST PUSH1 0x0 SWAP3 DUP4 MSTORE PUSH1 0x3 PUSH1 0x20 SWAP1 DUP2 MSTORE PUSH1 0x40 DUP1 DUP6 KECCAK256 PUSH1 0x1 PUSH1 0x1 PUSH1 0xA0 SHL SUB SWAP1 SWAP5 AND DUP6 MSTORE SWAP3 DUP2 MSTORE SWAP2 DUP4 KECCAK256 DUP1 SLOAD PUSH1 0x1 DUP2 ADD DUP3 SSTORE SWAP1 DUP5 MSTORE SWAP2 SWAP1 SWAP3 KECCAK256 ADD SSTORE JUMP JUMPDEST PUSH1 0x4 SLOAD PUSH2 0x34F JUMP JUMPDEST PUSH2 0x74E PUSH2 0x749 CALLDATASIZE PUSH1 0x4 PUSH2 0x3581 JUMP JUMPDEST PUSH2 0x2523 JUMP JUMPDEST PUSH1 0x40 MLOAD PUSH2 0x30D SWAP2 SWAP1 PUSH2 0x35A3 JUMP JUMPDEST PUSH2 0x67B PUSH2 0x769 CALLDATASIZE PUSH1 0x4 PUSH2 0x2997 JUMP JUMPDEST PUSH2 0x2564 JUMP JUMPDEST PUSH2 0x2EB PUSH2 0x77C CALLDATASIZE PUSH1 0x4 PUSH2 0x34B2 JUMP JUMPDEST PUSH2 0x25CF JUMP JUMPDEST PUSH2 0x2EB PUSH2 0x78F CALLDATASIZE PUSH1 0x4 PUSH2 0x2997 JUMP JUMPDEST PUSH2 0x2651 JUMP JUMPDEST PUSH2 0x34F PUSH2 0x7A2 CALLDATASIZE PUSH1 0x4 PUSH2 0x2997 JUMP JUMPDEST PUSH1 0x0 SWAP1 DUP2 MSTORE PUSH1 0x20 DUP2 SWAP1 MSTORE PUSH1 0x40 SWAP1 KECCAK256 PUSH1 0xD ADD SLOAD SWAP1 JUMP JUMPDEST PUSH2 0x34F PUSH2 0x7C5 CALLDATASIZE PUSH1 0x4 PUSH2 0x35B1 JUMP JUMPDEST PUSH1 0x1 PUSH1 0x1 PUSH1 0xA0 SHL SUB AND PUSH1 0x0 SWAP1 DUP2 MSTORE PUSH1 0x1 PUSH1 0x20 MSTORE PUSH1 0x40 SWAP1 KECCAK256 SLOAD SWAP1 JUMP JUMPDEST PUSH2 0x34F PUSH2 0x7EE CALLDATASIZE PUSH1 0x4 PUSH2 0x3581 JUMP JUMPDEST PUSH2 0x266E JUMP JUMPDEST PUSH2 0x34F PUSH2 0x801 CALLDATASIZE PUSH1 0x4 PUSH2 0x2997 JUMP JUMPDEST PUSH1 0x0 SWAP1 DUP2 MSTORE PUSH1 0x20 DUP2 SWAP1 MSTORE PUSH1 0x40 SWAP1 KECCAK256 PUSH1 0xE ADD SLOAD SWAP1 JUMP JUMPDEST PUSH2 0x842 PUSH2 0x824 CALLDATASIZE PUSH1 0x4 PUSH2 0x2997 JUMP JUMPDEST PUSH1 0x0 SWAP1 DUP2 MSTORE PUSH1 0x20 DUP2 SWAP1 MSTORE PUSH1 0x40 SWAP1 KECCAK256 PUSH1 0x13 ADD SLOAD PUSH3 0x10000 SWAP1 DIV PUSH1 0xFF AND SWAP1 JUMP JUMPDEST PUSH1 0x40 MLOAD PUSH2 0x30D SWAP2 SWAP1 PUSH2 0x35CC JUMP JUMPDEST PUSH1 0x0 DUP5 DUP2 MSTORE PUSH1 0x20 DUP2 SWAP1 MSTORE PUSH1 0x40 SWAP1 KECCAK256 PUSH1 0xC ADD DUP1 SLOAD TIMESTAMP SWAP2 DUP3 SWAP2 DUP6 SWAP1 DUP2 LT PUSH2 0x876 JUMPI PUSH2 0x876 PUSH2 0x35DA JUMP JUMPDEST PUSH1 0x0 SWAP2 DUP3 MSTORE PUSH1 0x20 DUP1 DUP4 KECCAK256 PUSH1 0xA PUSH1 0xB SWAP1 SWAP4 MUL ADD SWAP2 SWAP1 SWAP2 ADD SWAP3 SWAP1 SWAP3 SSTORE DUP7 DUP2 MSTORE PUSH1 0x3 DUP3 MSTORE PUSH1 0x40 DUP1 DUP3 KECCAK256 PUSH1 0x1 PUSH1 0x1 PUSH1 0xA0 SHL SUB DUP9 AND DUP4 MSTORE DUP4 MSTORE DUP1 DUP3 KECCAK256 DUP7 DUP4 MSTORE PUSH1 0x1 SWAP1 DUP2 ADD SWAP1 SWAP4 MSTORE SWAP1 KECCAK256 ADD PUSH2 0x8C5 DUP4 DUP3 PUSH2 0x36AB JUMP JUMPDEST POP PUSH32 0x79D1EFBC53E0B7B5B56C575CD2FD71B51F8D41409F12B1ABA3471E6678906098 DUP6 DUP5 DUP4 DUP6 DUP9 PUSH1 0x0 PUSH1 0x40 MLOAD PUSH2 0x900 SWAP7 SWAP6 SWAP5 SWAP4 SWAP3 SWAP2 SWAP1 PUSH2 0x37A7 JUMP JUMPDEST PUSH1 0x40 MLOAD DUP1 SWAP2 SUB SWAP1 LOG1 POP POP POP POP POP JUMP JUMPDEST PUSH1 0x0 DUP2 DUP2 MSTORE PUSH1 0x20 DUP2 DUP2 MSTORE PUSH1 0x40 DUP1 DUP4 KECCAK256 PUSH1 0xC ADD DUP1 SLOAD DUP3 MLOAD DUP2 DUP6 MUL DUP2 ADD DUP6 ADD SWAP1 SWAP4 MSTORE DUP1 DUP4 MSTORE PUSH1 0x60 SWAP5 SWAP3 SWAP4 SWAP2 SWAP3 SWAP1 SWAP2 DUP5 ADD JUMPDEST DUP3 DUP3 LT ISZERO PUSH2 0xBAC JUMPI PUSH1 0x0 DUP5 DUP2 MSTORE PUSH1 0x20 SWAP1 KECCAK256 PUSH1 0x40 DUP1 MLOAD PUSH2 0x180 DUP2 ADD SWAP1 SWAP2 MSTORE PUSH1 0xB DUP5 MUL SWAP1 SWAP2 ADD DUP1 SLOAD DUP3 SWAP1 PUSH1 0xA0 DUP3 ADD SWAP1 DUP4 SWAP1 DUP3 SWAP1 DUP3 SWAP1 PUSH2 0x97A SWAP1 PUSH2 0x3609 JUMP JUMPDEST DUP1 PUSH1 0x1F ADD PUSH1 0x20 DUP1 SWAP2 DIV MUL PUSH1 0x20 ADD PUSH1 0x40 MLOAD SWAP1 DUP2 ADD PUSH1 0x40 MSTORE DUP1 SWAP3 SWAP2 SWAP1 DUP2 DUP2 MSTORE PUSH1 0x20 ADD DUP3 DUP1 SLOAD PUSH2 0x9A6 SWAP1 PUSH2 0x3609 JUMP JUMPDEST DUP1 ISZERO PUSH2 0x9F3 JUMPI DUP1 PUSH1 0x1F LT PUSH2 0x9C8 JUMPI PUSH2 0x100 DUP1 DUP4 SLOAD DIV MUL DUP4 MSTORE SWAP2 PUSH1 0x20 ADD SWAP2 PUSH2 0x9F3 JUMP JUMPDEST DUP3 ADD SWAP2 SWAP1 PUSH1 0x0 MSTORE PUSH1 0x20 PUSH1 0x0 KECCAK256 SWAP1 JUMPDEST DUP2 SLOAD DUP2 MSTORE SWAP1 PUSH1 0x1 ADD SWAP1 PUSH1 0x20 ADD DUP1 DUP4 GT PUSH2 0x9D6 JUMPI DUP3 SWAP1 SUB PUSH1 0x1F AND DUP3 ADD SWAP2 JUMPDEST POP POP POP POP POP DUP2 MSTORE PUSH1 0x20 ADD PUSH1 0x1 DUP3 ADD SLOAD DUP2 MSTORE PUSH1 0x20 ADD PUSH1 0x2 DUP3 ADD SLOAD DUP2 MSTORE PUSH1 0x20 ADD PUSH1 0x3 DUP3 ADD SLOAD DUP2 MSTORE PUSH1 0x20 ADD PUSH1 0x4 DUP3 ADD SLOAD DUP2 MSTORE PUSH1 0x20 ADD PUSH1 0x5 DUP3 ADD SLOAD DUP2 MSTORE PUSH1 0x20 ADD PUSH1 0x6 DUP3 ADD DUP1 SLOAD PUSH2 0xA3E SWAP1 PUSH2 0x3609 JUMP JUMPDEST DUP1 PUSH1 0x1F ADD PUSH1 0x20 DUP1 SWAP2 DIV MUL PUSH1 0x20 ADD PUSH1 0x40 MLOAD SWAP1 DUP2 ADD PUSH1 0x40 MSTORE DUP1 SWAP3 SWAP2 SWAP1 DUP2 DUP2 MSTORE PUSH1 0x20 ADD DUP3 DUP1 SLOAD PUSH2 0xA6A SWAP1 PUSH2 0x3609 JUMP JUMPDEST DUP1 ISZERO PUSH2 0xAB7 JUMPI DUP1 PUSH1 0x1F LT PUSH2 0xA8C JUMPI PUSH2 0x100 DUP1 DUP4 SLOAD DIV MUL DUP4 MSTORE SWAP2 PUSH1 0x20 ADD SWAP2 PUSH2 0xAB7 JUMP JUMPDEST DUP3 ADD SWAP2 SWAP1 PUSH1 0x0 MSTORE PUSH1 0x20 PUSH1 0x0 KECCAK256 SWAP1 JUMPDEST DUP2 SLOAD DUP2 MSTORE SWAP1 PUSH1 0x1 ADD SWAP1 PUSH1 0x20 ADD DUP1 DUP4 GT PUSH2 0xA9A JUMPI DUP3 SWAP1 SUB PUSH1 0x1F AND DUP3 ADD SWAP2 JUMPDEST POP POP POP POP POP DUP2 MSTORE POP POP DUP2 MSTORE PUSH1 0x20 ADD PUSH1 0x7 DUP3 ADD SLOAD DUP2 MSTORE PUSH1 0x20 ADD PUSH1 0x8 DUP3 ADD DUP1 SLOAD PUSH2 0xADE SWAP1 PUSH2 0x3609 JUMP JUMPDEST DUP1 PUSH1 0x1F ADD PUSH1 0x20 DUP1 SWAP2 DIV MUL PUSH1 0x20 ADD PUSH1 0x40 MLOAD SWAP1 DUP2 ADD PUSH1 0x40 MSTORE DUP1 SWAP3 SWAP2 SWAP1 DUP2 DUP2 MSTORE PUSH1 0x20 ADD DUP3 DUP1 SLOAD PUSH2 0xB0A SWAP1 PUSH2 0x3609 JUMP JUMPDEST DUP1 ISZERO PUSH2 0xB57 JUMPI DUP1 PUSH1 0x1F LT PUSH2 0xB2C JUMPI PUSH2 0x100 DUP1 DUP4 SLOAD DIV MUL DUP4 MSTORE SWAP2 PUSH1 0x20 ADD SWAP2 PUSH2 0xB57 JUMP JUMPDEST DUP3 ADD SWAP2 SWAP1 PUSH1 0x0 MSTORE PUSH1 0x20 PUSH1 0x0 KECCAK256 SWAP1 JUMPDEST DUP2 SLOAD DUP2 MSTORE SWAP1 PUSH1 0x1 ADD SWAP1 PUSH1 0x20 ADD DUP1 DUP4 GT PUSH2 0xB3A JUMPI DUP3 SWAP1 SUB PUSH1 0x1F AND DUP3 ADD SWAP2 JUMPDEST POP POP POP SWAP2 DUP4 MSTORE POP POP PUSH1 0x9 DUP3 ADD SLOAD PUSH1 0x20 SWAP1 SWAP2 ADD SWAP1 PUSH1 0xFF AND PUSH1 0xB DUP2 GT ISZERO PUSH2 0xB7E JUMPI PUSH2 0xB7E PUSH2 0x29F6 JUMP JUMPDEST PUSH1 0xB DUP2 GT ISZERO PUSH2 0xB8F JUMPI PUSH2 0xB8F PUSH2 0x29F6 JUMP JUMPDEST DUP2 MSTORE PUSH1 0x20 ADD PUSH1 0xA DUP3 ADD SLOAD DUP2 MSTORE POP POP DUP2 MSTORE PUSH1 0x20 ADD SWAP1 PUSH1 0x1 ADD SWAP1 PUSH2 0x93E JUMP JUMPDEST POP POP POP POP SWAP1 POP SWAP2 SWAP1 POP JUMP JUMPDEST PUSH1 0x1 PUSH1 0x1 PUSH1 0xA0 SHL SUB DUP3 AND PUSH1 0x0 SWAP1 DUP2 MSTORE PUSH1 0x1 PUSH1 0x20 MSTORE PUSH1 0x40 DUP2 KECCAK256 DUP1 SLOAD DUP4 SWAP3 SWAP1 PUSH2 0xBDF SWAP1 DUP5 SWAP1 PUSH2 0x381E JUMP JUMPDEST SWAP1 SWAP2 SSTORE POP POP POP POP JUMP JUMPDEST PUSH1 0x0 DUP3 DUP2 MSTORE PUSH1 0x20 DUP2 SWAP1 MSTORE PUSH1 0x40 SWAP1 KECCAK256 PUSH1 0x13 ADD DUP1 SLOAD DUP3 SWAP2 SWAP1 PUSH32 0xFFFFFFFFFFFFFFFFFFFFFFFFFFFFFFFFFFFFFFFFFFFFFFFFFFFFFFFFFF00FFFF AND PUSH3 0x10000 DUP4 PUSH1 0x7 DUP2 GT ISZERO PUSH2 0xC36 JUMPI PUSH2 0xC36 PUSH2 0x29F6 JUMP JUMPDEST MUL OR SWAP1 SSTORE POP PUSH32 0xDEA20A6D822B68D598B7AB4FD45418A7CA7B103F12D300BCC3B56A7B94D9ED33 DUP3 DUP3 CALLER PUSH1 0x40 MLOAD PUSH2 0xC6E SWAP4 SWAP3 SWAP2 SWAP1 PUSH2 0x3831 JUMP JUMPDEST PUSH1 0x40 MLOAD DUP1 SWAP2 SUB SWAP1 LOG1 POP POP JUMP JUMPDEST PUSH1 0x0 DUP3 DUP2 MSTORE PUSH1 0x2 PUSH1 0x20 SWAP1 DUP2 MSTORE PUSH1 0x40 DUP1 DUP4 KECCAK256 PUSH1 0x1 PUSH1 0x1 PUSH1 0xA0 SHL SUB DUP6 AND DUP5 MSTORE SWAP1 SWAP2 MSTORE SWAP1 KECCAK256 SLOAD JUMPDEST SWAP3 SWAP2 POP POP JUMP JUMPDEST PUSH1 0x0 DUP5 DUP2 MSTORE PUSH1 0x2 PUSH1 0x20 SWAP1 DUP2 MSTORE PUSH1 0x40 DUP1 DUP4 KECCAK256 PUSH1 0x1 PUSH1 0x1 PUSH1 0xA0 SHL SUB DUP8 AND DUP5 MSTORE DUP3 MSTORE DUP1 DUP4 KECCAK256 DUP6 DUP5 MSTORE PUSH1 0x1 SWAP1 DUP2 ADD SWAP1 SWAP3 MSTORE SWAP1 SWAP2 KECCAK256 DUP1 SLOAD DUP4 SWAP3 PUSH1 0xFF NOT SWAP1 SWAP2 AND SWAP1 DUP4 PUSH1 0x4 DUP2 GT ISZERO PUSH2 0xCF1 JUMPI PUSH2 0xCF1 PUSH2 0x29F6 JUMP JUMPDEST MUL OR SWAP1 SSTORE POP PUSH32 0x4B906571B20F3DCDF826B53F3C66528E252B2EB87DE3CB812F18E6859E119344 DUP5 DUP5 DUP5 DUP5 PUSH1 0x1 CALLER PUSH1 0x40 MLOAD PUSH2 0xD30 SWAP7 SWAP6 SWAP5 SWAP4 SWAP3 SWAP2 SWAP1 PUSH2 0x385C JUMP JUMPDEST PUSH1 0x40 MLOAD DUP1 SWAP2 SUB SWAP1 LOG1 POP POP POP POP JUMP JUMPDEST PUSH1 0x0 DUP3 DUP2 MSTORE PUSH1 0x20 DUP2 DUP2 MSTORE PUSH1 0x40 SWAP1 SWAP2 KECCAK256 DUP3 MLOAD PUSH1 0x1 DUP3 ADD SSTORE SWAP1 DUP3 ADD MLOAD PUSH1 0x2 DUP3 ADD SWAP1 PUSH2 0xD67 SWAP1 DUP3 PUSH2 0x36AB JUMP JUMPDEST POP PUSH1 0x40 DUP3 ADD MLOAD PUSH1 0x3 DUP3 ADD SWAP1 PUSH2 0xD7C SWAP1 DUP3 PUSH2 0x36AB JUMP JUMPDEST POP PUSH1 0x60 DUP3 ADD MLOAD PUSH1 0x4 DUP3 ADD SSTORE PUSH1 0x80 DUP3 ADD MLOAD PUSH1 0x5 DUP3 ADD SSTORE PUSH1 0xA0 DUP3 ADD MLOAD PUSH1 0x6 DUP3 ADD SSTORE PUSH1 0xC0 DUP3 ADD MLOAD DUP1 MLOAD PUSH2 0xDB6 SWAP2 PUSH1 0x7 DUP5 ADD SWAP2 PUSH1 0x20 SWAP1 SWAP2 ADD SWAP1 PUSH2 0x26AB JUMP JUMPDEST POP PUSH1 0xE0 DUP3 ADD MLOAD PUSH1 0x8 DUP3 ADD SSTORE PUSH2 0x100 DUP1 DUP4 ADD MLOAD PUSH1 0x9 DUP4 ADD SSTORE PUSH2 0x160 DUP4 ADD MLOAD PUSH1 0xB DUP4 ADD SSTORE PUSH2 0x120 DUP4 ADD MLOAD PUSH1 0xA DUP4 ADD DUP1 SLOAD PUSH2 0x140 DUP7 ADD MLOAD ISZERO DUP1 ISZERO SWAP1 SWAP5 MUL PUSH32 0xFFFFFFFFFFFFFFFFFFFFFFFFFFFFFFFFFFFFFFFFFFFFFFFFFFFFFFFFFFFF00FF SWAP4 ISZERO ISZERO SWAP4 SWAP1 SWAP4 AND PUSH32 0xFFFFFFFFFFFFFFFFFFFFFFFFFFFFFFFFFFFFFFFFFFFFFFFFFFFFFFFFFFFF0000 SWAP1 SWAP2 AND OR SWAP2 SWAP1 SWAP2 OR SWAP1 SSTORE PUSH2 0xE58 JUMPI PUSH2 0x180 DUP3 ADD MLOAD MLOAD PUSH1 0xF DUP3 ADD SSTORE PUSH2 0xE60 JUMP JUMPDEST PUSH1 0x1 PUSH1 0xF DUP3 ADD SSTORE JUMPDEST PUSH1 0x13 DUP2 ADD DUP1 SLOAD PUSH1 0xFF NOT AND PUSH1 0x1 OR SWAP1 SSTORE PUSH1 0x0 JUMPDEST DUP3 PUSH2 0x180 ADD MLOAD MLOAD DUP2 LT ISZERO PUSH2 0xF83 JUMPI DUP2 PUSH1 0xC ADD DUP4 PUSH2 0x180 ADD MLOAD DUP3 DUP2 MLOAD DUP2 LT PUSH2 0xE9B JUMPI PUSH2 0xE9B PUSH2 0x35DA JUMP JUMPDEST PUSH1 0x20 SWAP1 DUP2 MUL SWAP2 SWAP1 SWAP2 ADD DUP2 ADD MLOAD DUP3 SLOAD PUSH1 0x1 DUP2 ADD DUP5 SSTORE PUSH1 0x0 SWAP4 DUP5 MSTORE SWAP2 SWAP1 SWAP3 KECCAK256 DUP3 MLOAD DUP1 MLOAD PUSH1 0xB SWAP1 SWAP4 MUL SWAP1 SWAP2 ADD SWAP2 DUP3 SWAP1 DUP2 SWAP1 PUSH2 0xED3 SWAP1 DUP3 PUSH2 0x36AB JUMP JUMPDEST POP PUSH1 0x20 DUP3 ADD MLOAD PUSH1 0x1 DUP3 ADD SSTORE PUSH1 0x40 DUP3 ADD MLOAD PUSH1 0x2 DUP3 ADD SSTORE PUSH1 0x60 DUP3 ADD MLOAD PUSH1 0x3 DUP3 ADD SSTORE PUSH1 0x80 DUP3 ADD MLOAD PUSH1 0x4 DUP3 ADD SSTORE PUSH1 0xA0 DUP3 ADD MLOAD PUSH1 0x5 DUP3 ADD SSTORE PUSH1 0xC0 DUP3 ADD MLOAD PUSH1 0x6 DUP3 ADD SWAP1 PUSH2 0xF1A SWAP1 DUP3 PUSH2 0x36AB JUMP JUMPDEST POP POP POP PUSH1 0x20 DUP3 ADD MLOAD PUSH1 0x7 DUP3 ADD SSTORE PUSH1 0x40 DUP3 ADD MLOAD PUSH1 0x8 DUP3 ADD SWAP1 PUSH2 0xF3B SWAP1 DUP3 PUSH2 0x36AB JUMP JUMPDEST POP PUSH1 0x60 DUP3 ADD MLOAD PUSH1 0x9 DUP3 ADD DUP1 SLOAD PUSH1 0xFF NOT AND PUSH1 0x1 DUP4 PUSH1 0xB DUP2 GT ISZERO PUSH2 0xF5F JUMPI PUSH2 0xF5F PUSH2 0x29F6 JUMP JUMPDEST MUL OR SWAP1 SSTORE POP PUSH1 0x80 DUP3 ADD MLOAD DUP2 PUSH1 0xA ADD SSTORE POP POP DUP1 DUP1 PUSH2 0xF7B SWAP1 PUSH2 0x38A4 JUMP JUMPDEST SWAP2 POP POP PUSH2 0xE72 JUMP JUMPDEST POP POP POP POP JUMP JUMPDEST DUP1 PUSH1 0x0 DUP1 DUP6 DUP2 MSTORE PUSH1 0x20 ADD SWAP1 DUP2 MSTORE PUSH1 0x20 ADD PUSH1 0x0 KECCAK256 PUSH1 0xC ADD DUP4 DUP2 SLOAD DUP2 LT PUSH2 0xFB0 JUMPI PUSH2 0xFB0 PUSH2 0x35DA JUMP JUMPDEST SWAP1 PUSH1 0x0 MSTORE PUSH1 0x20 PUSH1 0x0 KECCAK256 SWAP1 PUSH1 0xB MUL ADD PUSH1 0x9 ADD PUSH1 0x0 PUSH2 0x100 EXP DUP2 SLOAD DUP2 PUSH1 0xFF MUL NOT AND SWAP1 DUP4 PUSH1 0xB DUP2 GT ISZERO PUSH2 0xFE2 JUMPI PUSH2 0xFE2 PUSH2 0x29F6 JUMP JUMPDEST MUL OR SWAP1 SSTORE POP PUSH32 0x188FFF7234F3BB35C4F436313EC14267725515E4CA367843CD416621A72FB8A3 DUP4 DUP4 DUP4 CALLER PUSH1 0x40 MLOAD PUSH2 0x101C SWAP5 SWAP4 SWAP3 SWAP2 SWAP1 PUSH2 0x38DC JUMP JUMPDEST PUSH1 0x40 MLOAD DUP1 SWAP2 SUB SWAP1 LOG1 POP POP POP JUMP JUMPDEST PUSH2 0x1031 PUSH2 0x26F6 JUMP JUMPDEST PUSH1 0x0 DUP3 DUP2 MSTORE PUSH1 0x20 DUP2 DUP2 MSTORE PUSH1 0x40 SWAP2 DUP3 SWAP1 KECCAK256 DUP3 MLOAD PUSH2 0x2E0 DUP2 ADD DUP5 MSTORE DUP2 SLOAD PUSH1 0x1 PUSH1 0x1 PUSH1 0xA0 SHL SUB AND DUP2 MSTORE PUSH1 0x1 DUP3 ADD SLOAD SWAP3 DUP2 ADD SWAP3 SWAP1 SWAP3 MSTORE PUSH1 0x2 DUP2 ADD DUP1 SLOAD SWAP3 SWAP4 SWAP2 SWAP3 SWAP2 DUP5 ADD SWAP2 PUSH2 0x107A SWAP1 PUSH2 0x3609 JUMP JUMPDEST DUP1 PUSH1 0x1F ADD PUSH1 0x20 DUP1 SWAP2 DIV MUL PUSH1 0x20 ADD PUSH1 0x40 MLOAD SWAP1 DUP2 ADD PUSH1 0x40 MSTORE DUP1 SWAP3 SWAP2 SWAP1 DUP2 DUP2 MSTORE PUSH1 0x20 ADD DUP3 DUP1 SLOAD PUSH2 0x10A6 SWAP1 PUSH2 0x3609 JUMP JUMPDEST DUP1 ISZERO PUSH2 0x10F3 JUMPI DUP1 PUSH1 0x1F LT PUSH2 0x10C8 JUMPI PUSH2 0x100 DUP1 DUP4 SLOAD DIV MUL DUP4 MSTORE SWAP2 PUSH1 0x20 ADD SWAP2 PUSH2 0x10F3 JUMP JUMPDEST DUP3 ADD SWAP2 SWAP1 PUSH1 0x0 MSTORE PUSH1 0x20 PUSH1 0x0 KECCAK256 SWAP1 JUMPDEST DUP2 SLOAD DUP2 MSTORE SWAP1 PUSH1 0x1 ADD SWAP1 PUSH1 0x20 ADD DUP1 DUP4 GT PUSH2 0x10D6 JUMPI DUP3 SWAP1 SUB PUSH1 0x1F AND DUP3 ADD SWAP2 JUMPDEST POP POP POP POP POP DUP2 MSTORE PUSH1 0x20 ADD PUSH1 0x3 DUP3 ADD DUP1 SLOAD PUSH2 0x110C SWAP1 PUSH2 0x3609 JUMP JUMPDEST DUP1 PUSH1 0x1F ADD PUSH1 0x20 DUP1 SWAP2 DIV MUL PUSH1 0x20 ADD PUSH1 0x40 MLOAD SWAP1 DUP2 ADD PUSH1 0x40 MSTORE DUP1 SWAP3 SWAP2 SWAP1 DUP2 DUP2 MSTORE PUSH1 0x20 ADD DUP3 DUP1 SLOAD PUSH2 0x1138 SWAP1 PUSH2 0x3609 JUMP JUMPDEST DUP1 ISZERO PUSH2 0x1185 JUMPI DUP1 PUSH1 0x1F LT PUSH2 0x115A JUMPI PUSH2 0x100 DUP1 DUP4 SLOAD DIV MUL DUP4 MSTORE SWAP2 PUSH1 0x20 ADD SWAP2 PUSH2 0x1185 JUMP JUMPDEST DUP3 ADD SWAP2 SWAP1 PUSH1 0x0 MSTORE PUSH1 0x20 PUSH1 0x0 KECCAK256 SWAP1 JUMPDEST DUP2 SLOAD DUP2 MSTORE SWAP1 PUSH1 0x1 ADD SWAP1 PUSH1 0x20 ADD DUP1 DUP4 GT PUSH2 0x1168 JUMPI DUP3 SWAP1 SUB PUSH1 0x1F AND DUP3 ADD SWAP2 JUMPDEST POP POP POP POP POP DUP2 MSTORE PUSH1 0x20 ADD PUSH1 0x4 DUP3 ADD SLOAD DUP2 MSTORE PUSH1 0x20 ADD PUSH1 0x5 DUP3 ADD SLOAD DUP2 MSTORE PUSH1 0x20 ADD PUSH1 0x6 DUP3 ADD SLOAD DUP2 MSTORE PUSH1 0x20 ADD PUSH1 0x7 DUP3 ADD DUP1 SLOAD DUP1 PUSH1 0x20 MUL PUSH1 0x20 ADD PUSH1 0x40 MLOAD SWAP1 DUP2 ADD PUSH1 0x40 MSTORE DUP1 SWAP3 SWAP2 SWAP1 DUP2 DUP2 MSTORE PUSH1 0x20 ADD DUP3 DUP1 SLOAD DUP1 ISZERO PUSH2 0x11FB JUMPI PUSH1 0x20 MUL DUP3 ADD SWAP2 SWAP1 PUSH1 0x0 MSTORE PUSH1 0x20 PUSH1 0x0 KECCAK256 SWAP1 JUMPDEST DUP2 SLOAD DUP2 MSTORE PUSH1 0x20 ADD SWAP1 PUSH1 0x1 ADD SWAP1 DUP1 DUP4 GT PUSH2 0x11E7 JUMPI JUMPDEST POP POP POP SWAP2 DUP4 MSTORE POP POP PUSH1 0x8 DUP3 ADD SLOAD PUSH1 0x20 DUP1 DUP4 ADD SWAP2 SWAP1 SWAP2 MSTORE PUSH1 0x9 DUP4 ADD SLOAD PUSH1 0x40 DUP1 DUP5 ADD SWAP2 SWAP1 SWAP2 MSTORE PUSH1 0xA DUP5 ADD SLOAD PUSH1 0xFF DUP1 DUP3 AND ISZERO ISZERO PUSH1 0x60 DUP7 ADD MSTORE PUSH2 0x100 SWAP1 SWAP2 DIV AND ISZERO ISZERO PUSH1 0x80 DUP5 ADD MSTORE PUSH1 0xB DUP5 ADD SLOAD PUSH1 0xA0 DUP5 ADD MSTORE PUSH1 0xC DUP5 ADD DUP1 SLOAD DUP3 MLOAD DUP2 DUP6 MUL DUP2 ADD DUP6 ADD SWAP1 SWAP4 MSTORE DUP1 DUP4 MSTORE PUSH1 0xC0 SWAP1 SWAP5 ADD SWAP4 SWAP2 SWAP3 SWAP1 SWAP2 SWAP1 PUSH1 0x0 SWAP1 DUP5 ADD JUMPDEST DUP3 DUP3 LT ISZERO PUSH2 0x14DC JUMPI PUSH1 0x0 DUP5 DUP2 MSTORE PUSH1 0x20 SWAP1 KECCAK256 PUSH1 0x40 DUP1 MLOAD PUSH2 0x180 DUP2 ADD SWAP1 SWAP2 MSTORE PUSH1 0xB DUP5 MUL SWAP1 SWAP2 ADD DUP1 SLOAD DUP3 SWAP1 PUSH1 0xA0 DUP3 ADD SWAP1 DUP4 SWAP1 DUP3 SWAP1 DUP3 SWAP1 PUSH2 0x12AA SWAP1 PUSH2 0x3609 JUMP JUMPDEST DUP1 PUSH1 0x1F ADD PUSH1 0x20 DUP1 SWAP2 DIV MUL PUSH1 0x20 ADD PUSH1 0x40 MLOAD SWAP1 DUP2 ADD PUSH1 0x40 MSTORE DUP1 SWAP3 SWAP2 SWAP1 DUP2 DUP2 MSTORE PUSH1 0x20 ADD DUP3 DUP1 SLOAD PUSH2 0x12D6 SWAP1 PUSH2 0x3609 JUMP JUMPDEST DUP1 ISZERO PUSH2 0x1323 JUMPI DUP1 PUSH1 0x1F LT PUSH2 0x12F8 JUMPI PUSH2 0x100 DUP1 DUP4 SLOAD DIV MUL DUP4 MSTORE SWAP2 PUSH1 0x20 ADD SWAP2 PUSH2 0x1323 JUMP JUMPDEST DUP3 ADD SWAP2 SWAP1 PUSH1 0x0 MSTORE PUSH1 0x20 PUSH1 0x0 KECCAK256 SWAP1 JUMPDEST DUP2 SLOAD DUP2 MSTORE SWAP1 PUSH1 0x1 ADD SWAP1 PUSH1 0x20 ADD DUP1 DUP4 GT PUSH2 0x1306 JUMPI DUP3 SWAP1 SUB PUSH1 0x1F AND DUP3 ADD SWAP2 JUMPDEST POP POP POP POP POP DUP2 MSTORE PUSH1 0x20 ADD PUSH1 0x1 DUP3 ADD SLOAD DUP2 MSTORE PUSH1 0x20 ADD PUSH1 0x2 DUP3 ADD SLOAD DUP2 MSTORE PUSH1 0x20 ADD PUSH1 0x3 DUP3 ADD SLOAD DUP2 MSTORE PUSH1 0x20 ADD PUSH1 0x4 DUP3 ADD SLOAD DUP2 MSTORE PUSH1 0x20 ADD PUSH1 0x5 DUP3 ADD SLOAD DUP2 MSTORE PUSH1 0x20 ADD PUSH1 0x6 DUP3 ADD DUP1 SLOAD PUSH2 0x136E SWAP1 PUSH2 0x3609 JUMP JUMPDEST DUP1 PUSH1 0x1F ADD PUSH1 0x20 DUP1 SWAP2 DIV MUL PUSH1 0x20 ADD PUSH1 0x40 MLOAD SWAP1 DUP2 ADD PUSH1 0x40 MSTORE DUP1 SWAP3 SWAP2 SWAP1 DUP2 DUP2 MSTORE PUSH1 0x20 ADD DUP3 DUP1 SLOAD PUSH2 0x139A SWAP1 PUSH2 0x3609 JUMP JUMPDEST DUP1 ISZERO PUSH2 0x13E7 JUMPI DUP1 PUSH1 0x1F LT PUSH2 0x13BC JUMPI PUSH2 0x100 DUP1 DUP4 SLOAD DIV MUL DUP4 MSTORE SWAP2 PUSH1 0x20 ADD SWAP2 PUSH2 0x13E7 JUMP JUMPDEST DUP3 ADD SWAP2 SWAP1 PUSH1 0x0 MSTORE PUSH1 0x20 PUSH1 0x0 KECCAK256 SWAP1 JUMPDEST DUP2 SLOAD DUP2 MSTORE SWAP1 PUSH1 0x1 ADD SWAP1 PUSH1 0x20 ADD DUP1 DUP4 GT PUSH2 0x13CA JUMPI DUP3 SWAP1 SUB PUSH1 0x1F AND DUP3 ADD SWAP2 JUMPDEST POP POP POP POP POP DUP2 MSTORE POP POP DUP2 MSTORE PUSH1 0x20 ADD PUSH1 0x7 DUP3 ADD SLOAD DUP2 MSTORE PUSH1 0x20 ADD PUSH1 0x8 DUP3 ADD DUP1 SLOAD PUSH2 0x140E SWAP1 PUSH2 0x3609 JUMP JUMPDEST DUP1 PUSH1 0x1F ADD PUSH1 0x20 DUP1 SWAP2 DIV MUL PUSH1 0x20 ADD PUSH1 0x40 MLOAD SWAP1 DUP2 ADD PUSH1 0x40 MSTORE DUP1 SWAP3 SWAP2 SWAP1 DUP2 DUP2 MSTORE PUSH1 0x20 ADD DUP3 DUP1 SLOAD PUSH2 0x143A SWAP1 PUSH2 0x3609 JUMP JUMPDEST DUP1 ISZERO PUSH2 0x1487 JUMPI DUP1 PUSH1 0x1F LT PUSH2 0x145C JUMPI PUSH2 0x100 DUP1 DUP4 SLOAD DIV MUL DUP4 MSTORE SWAP2 PUSH1 0x20 ADD SWAP2 PUSH2 0x1487 JUMP JUMPDEST DUP3 ADD SWAP2 SWAP1 PUSH1 0x0 MSTORE PUSH1 0x20 PUSH1 0x0 KECCAK256 SWAP1 JUMPDEST DUP2 SLOAD DUP2 MSTORE SWAP1 PUSH1 0x1 ADD SWAP1 PUSH1 0x20 ADD DUP1 DUP4 GT PUSH2 0x146A JUMPI DUP3 SWAP1 SUB PUSH1 0x1F AND DUP3 ADD SWAP2 JUMPDEST POP POP POP SWAP2 DUP4 MSTORE POP POP PUSH1 0x9 DUP3 ADD SLOAD PUSH1 0x20 SWAP1 SWAP2 ADD SWAP1 PUSH1 0xFF AND PUSH1 0xB DUP2 GT ISZERO PUSH2 0x14AE JUMPI PUSH2 0x14AE PUSH2 0x29F6 JUMP JUMPDEST PUSH1 0xB DUP2 GT ISZERO PUSH2 0x14BF JUMPI PUSH2 0x14BF PUSH2 0x29F6 JUMP JUMPDEST DUP2 MSTORE PUSH1 0x20 ADD PUSH1 0xA DUP3 ADD SLOAD DUP2 MSTORE POP POP DUP2 MSTORE PUSH1 0x20 ADD SWAP1 PUSH1 0x1 ADD SWAP1 PUSH2 0x126E JUMP JUMPDEST POP POP POP POP DUP2 MSTORE PUSH1 0x20 ADD PUSH1 0xD DUP3 ADD DUP1 SLOAD DUP1 PUSH1 0x20 MUL PUSH1 0x20 ADD PUSH1 0x40 MLOAD SWAP1 DUP2 ADD PUSH1 0x40 MSTORE DUP1 SWAP3 SWAP2 SWAP1 DUP2 DUP2 MSTORE PUSH1 0x20 ADD DUP3 DUP1 SLOAD DUP1 ISZERO PUSH2 0x153D JUMPI PUSH1 0x20 MUL DUP3 ADD SWAP2 SWAP1 PUSH1 0x0 MSTORE PUSH1 0x20 PUSH1 0x0 KECCAK256 SWAP1 JUMPDEST DUP2 SLOAD PUSH1 0x1 PUSH1 0x1 PUSH1 0xA0 SHL SUB AND DUP2 MSTORE PUSH1 0x1 SWAP1 SWAP2 ADD SWAP1 PUSH1 0x20 ADD DUP1 DUP4 GT PUSH2 0x151F JUMPI JUMPDEST POP POP POP POP POP DUP2 MSTORE PUSH1 0x20 ADD PUSH1 0xE DUP3 ADD DUP1 SLOAD DUP1 PUSH1 0x20 MUL PUSH1 0x20 ADD PUSH1 0x40 MLOAD SWAP1 DUP2 ADD PUSH1 0x40 MSTORE DUP1 SWAP3 SWAP2 SWAP1 DUP2 DUP2 MSTORE PUSH1 0x20 ADD DUP3 DUP1 SLOAD DUP1 ISZERO PUSH2 0x159F JUMPI PUSH1 0x20 MUL DUP3 ADD SWAP2 SWAP1 PUSH1 0x0 MSTORE PUSH1 0x20 PUSH1 0x0 KECCAK256 SWAP1 JUMPDEST DUP2 SLOAD PUSH1 0x1 PUSH1 0x1 PUSH1 0xA0 SHL SUB AND DUP2 MSTORE PUSH1 0x1 SWAP1 SWAP2 ADD SWAP1 PUSH1 0x20 ADD DUP1 DUP4 GT PUSH2 0x1581 JUMPI JUMPDEST POP POP POP SWAP2 DUP4 MSTORE POP POP PUSH1 0xF DUP3 ADD SLOAD PUSH1 0x20 DUP3 ADD MSTORE PUSH1 0x10 DUP3 ADD SLOAD PUSH1 0x40 DUP3 ADD MSTORE PUSH1 0x11 DUP3 ADD SLOAD PUSH1 0x60 DUP3 ADD MSTORE PUSH1 0x12 DUP3 ADD SLOAD PUSH1 0x80 DUP3 ADD MSTORE PUSH1 0x13 DUP3 ADD SLOAD PUSH1 0xFF DUP1 DUP3 AND ISZERO ISZERO PUSH1 0xA0 DUP5 ADD MSTORE PUSH2 0x100 DUP3 DIV DUP2 AND ISZERO ISZERO PUSH1 0xC0 DUP5 ADD MSTORE PUSH1 0xE0 SWAP1 SWAP3 ADD SWAP2 PUSH3 0x10000 SWAP1 SWAP2 DIV AND PUSH1 0x7 DUP2 GT ISZERO PUSH2 0x160D JUMPI PUSH2 0x160D PUSH2 0x29F6 JUMP JUMPDEST PUSH1 0x7 DUP2 GT ISZERO PUSH2 0x161E JUMPI PUSH2 0x161E PUSH2 0x29F6 JUMP JUMPDEST SWAP1 MSTORE POP SWAP3 SWAP2 POP POP JUMP JUMPDEST PUSH1 0x0 DUP5 DUP2 MSTORE PUSH1 0x20 DUP2 SWAP1 MSTORE PUSH1 0x40 SWAP1 KECCAK256 PUSH1 0xC ADD DUP1 SLOAD TIMESTAMP SWAP2 DUP3 SWAP2 DUP6 SWAP1 DUP2 LT PUSH2 0x164E JUMPI PUSH2 0x164E PUSH2 0x35DA JUMP JUMPDEST PUSH1 0x0 SWAP2 DUP3 MSTORE PUSH1 0x20 DUP1 DUP4 KECCAK256 PUSH1 0xA PUSH1 0xB SWAP1 SWAP4 MUL ADD SWAP2 SWAP1 SWAP2 ADD SWAP3 SWAP1 SWAP3 SSTORE DUP7 DUP2 MSTORE PUSH1 0x2 DUP3 MSTORE PUSH1 0x40 DUP1 DUP3 KECCAK256 PUSH1 0x1 PUSH1 0x1 PUSH1 0xA0 SHL SUB DUP9 AND DUP4 MSTORE DUP4 MSTORE DUP1 DUP3 KECCAK256 DUP7 DUP4 MSTORE PUSH1 0x1 SWAP1 DUP2 ADD SWAP1 SWAP4 MSTORE SWAP1 KECCAK256 ADD PUSH2 0x169D DUP4 DUP3 PUSH2 0x36AB JUMP JUMPDEST POP PUSH32 0x79D1EFBC53E0B7B5B56C575CD2FD71B51F8D41409F12B1ABA3471E6678906098 DUP6 DUP5 DUP4 DUP6 DUP9 PUSH1 0x1 PUSH1 0x40 MLOAD PUSH2 0x900 SWAP7 SWAP6 SWAP5 SWAP4 SWAP3 SWAP2 SWAP1 PUSH2 0x37A7 JUMP JUMPDEST PUSH1 0x0 DUP2 DUP2 MSTORE PUSH1 0x20 DUP2 SWAP1 MSTORE PUSH1 0x40 DUP2 KECCAK256 PUSH1 0x11 ADD DUP1 SLOAD SWAP2 PUSH2 0x16F5 DUP4 PUSH2 0x38A4 JUMP JUMPDEST SWAP2 SWAP1 POP SSTORE POP POP JUMP JUMPDEST PUSH1 0x1 PUSH1 0x1 PUSH1 0xA0 SHL SUB DUP3 AND PUSH1 0x0 SWAP1 DUP2 MSTORE PUSH1 0x1 PUSH1 0x20 MSTORE PUSH1 0x40 DUP2 KECCAK256 DUP1 SLOAD DUP4 SWAP3 SWAP1 PUSH2 0xBDF SWAP1 DUP5 SWAP1 PUSH2 0x390F JUMP JUMPDEST PUSH2 0x1752 PUSH1 0x40 MLOAD DUP1 PUSH1 0x60 ADD PUSH1 0x40 MSTORE DUP1 PUSH1 0x0 PUSH1 0x1 PUSH1 0x1 PUSH1 0xA0 SHL SUB AND DUP2 MSTORE PUSH1 0x20 ADD PUSH1 0x60 DUP2 MSTORE PUSH1 0x20 ADD PUSH1 0x60 DUP2 MSTORE POP SWAP1 JUMP JUMPDEST PUSH2 0x177F PUSH1 0x40 MLOAD DUP1 PUSH1 0x60 ADD PUSH1 0x40 MSTORE DUP1 PUSH1 0x0 PUSH1 0x1 PUSH1 0x1 PUSH1 0xA0 SHL SUB AND DUP2 MSTORE PUSH1 0x20 ADD PUSH1 0x60 DUP2 MSTORE PUSH1 0x20 ADD PUSH1 0x60 DUP2 MSTORE POP SWAP1 JUMP JUMPDEST PUSH1 0x1 PUSH1 0x1 PUSH1 0xA0 SHL SUB DUP4 AND DUP1 DUP3 MSTORE PUSH1 0x0 DUP6 DUP2 MSTORE PUSH1 0x2 PUSH1 0x20 SWAP1 DUP2 MSTORE PUSH1 0x40 DUP1 DUP4 KECCAK256 SWAP4 DUP4 MSTORE SWAP3 DUP2 MSTORE SWAP1 DUP3 SWAP1 KECCAK256 DUP1 SLOAD DUP4 MLOAD DUP2 DUP5 MUL DUP2 ADD DUP5 ADD SWAP1 SWAP5 MSTORE DUP1 DUP5 MSTORE SWAP1 SWAP2 DUP4 ADD DUP3 DUP3 DUP1 ISZERO PUSH2 0x17E9 JUMPI PUSH1 0x20 MUL DUP3 ADD SWAP2 SWAP1 PUSH1 0x0 MSTORE PUSH1 0x20 PUSH1 0x0 KECCAK256 SWAP1 JUMPDEST DUP2 SLOAD DUP2 MSTORE PUSH1 0x20 ADD SWAP1 PUSH1 0x1 ADD SWAP1 DUP1 DUP4 GT PUSH2 0x17D5 JUMPI JUMPDEST POP POP POP POP PUSH1 0x20 DUP4 ADD DUP3 SWAP1 MSTORE POP MLOAD PUSH1 0x0 SWAP1 PUSH8 0xFFFFFFFFFFFFFFFF DUP2 GT ISZERO PUSH2 0x1811 JUMPI PUSH2 0x1811 PUSH2 0x27F6 JUMP JUMPDEST PUSH1 0x40 MLOAD SWAP1 DUP1 DUP3 MSTORE DUP1 PUSH1 0x20 MUL PUSH1 0x20 ADD DUP3 ADD PUSH1 0x40 MSTORE DUP1 ISZERO PUSH2 0x1857 JUMPI DUP2 PUSH1 0x20 ADD JUMPDEST PUSH1 0x40 DUP1 MLOAD DUP1 DUP3 ADD SWAP1 SWAP2 MSTORE PUSH1 0x0 DUP2 MSTORE PUSH1 0x60 PUSH1 0x20 DUP3 ADD MSTORE DUP2 MSTORE PUSH1 0x20 ADD SWAP1 PUSH1 0x1 SWAP1 SUB SWAP1 DUP2 PUSH2 0x182F JUMPI SWAP1 POP JUMPDEST POP SWAP1 POP PUSH1 0x0 JUMPDEST DUP3 PUSH1 0x20 ADD MLOAD MLOAD DUP2 LT ISZERO PUSH2 0x1A28 JUMPI PUSH1 0x0 DUP7 DUP2 MSTORE PUSH1 0x2 PUSH1 0x20 SWAP1 DUP2 MSTORE PUSH1 0x40 DUP1 DUP4 KECCAK256 PUSH1 0x1 PUSH1 0x1 PUSH1 0xA0 SHL SUB DUP10 AND DUP5 MSTORE DUP3 MSTORE DUP3 KECCAK256 SWAP1 DUP6 ADD MLOAD DUP1 MLOAD PUSH1 0x1 SWAP1 SWAP3 ADD SWAP3 SWAP2 DUP5 SWAP1 DUP2 LT PUSH2 0x18A8 JUMPI PUSH2 0x18A8 PUSH2 0x35DA JUMP JUMPDEST PUSH1 0x20 MUL PUSH1 0x20 ADD ADD MLOAD DUP2 MSTORE PUSH1 0x20 ADD SWAP1 DUP2 MSTORE PUSH1 0x20 ADD PUSH1 0x0 KECCAK256 PUSH1 0x0 ADD PUSH1 0x0 SWAP1 SLOAD SWAP1 PUSH2 0x100 EXP SWAP1 DIV PUSH1 0xFF AND DUP3 DUP3 DUP2 MLOAD DUP2 LT PUSH2 0x18E1 JUMPI PUSH2 0x18E1 PUSH2 0x35DA JUMP JUMPDEST PUSH1 0x20 MUL PUSH1 0x20 ADD ADD MLOAD PUSH1 0x0 ADD SWAP1 PUSH1 0x4 DUP2 GT ISZERO PUSH2 0x18FE JUMPI PUSH2 0x18FE PUSH2 0x29F6 JUMP JUMPDEST SWAP1 DUP2 PUSH1 0x4 DUP2 GT ISZERO PUSH2 0x1911 JUMPI PUSH2 0x1911 PUSH2 0x29F6 JUMP JUMPDEST SWAP1 MSTORE POP PUSH1 0x0 DUP7 DUP2 MSTORE PUSH1 0x2 PUSH1 0x20 SWAP1 DUP2 MSTORE PUSH1 0x40 DUP1 DUP4 KECCAK256 PUSH1 0x1 PUSH1 0x1 PUSH1 0xA0 SHL SUB DUP10 AND DUP5 MSTORE DUP3 MSTORE DUP3 KECCAK256 SWAP1 DUP6 ADD MLOAD DUP1 MLOAD PUSH1 0x1 SWAP1 SWAP3 ADD SWAP3 SWAP2 DUP5 SWAP1 DUP2 LT PUSH2 0x1952 JUMPI PUSH2 0x1952 PUSH2 0x35DA JUMP JUMPDEST PUSH1 0x20 MUL PUSH1 0x20 ADD ADD MLOAD DUP2 MSTORE PUSH1 0x20 ADD SWAP1 DUP2 MSTORE PUSH1 0x20 ADD PUSH1 0x0 KECCAK256 PUSH1 0x1 ADD DUP1 SLOAD PUSH2 0x1976 SWAP1 PUSH2 0x3609 JUMP JUMPDEST DUP1 PUSH1 0x1F ADD PUSH1 0x20 DUP1 SWAP2 DIV MUL PUSH1 0x20 ADD PUSH1 0x40 MLOAD SWAP1 DUP2 ADD PUSH1 0x40 MSTORE DUP1 SWAP3 SWAP2 SWAP1 DUP2 DUP2 MSTORE PUSH1 0x20 ADD DUP3 DUP1 SLOAD PUSH2 0x19A2 SWAP1 PUSH2 0x3609 JUMP JUMPDEST DUP1 ISZERO PUSH2 0x19EF JUMPI DUP1 PUSH1 0x1F LT PUSH2 0x19C4 JUMPI PUSH2 0x100 DUP1 DUP4 SLOAD DIV MUL DUP4 MSTORE SWAP2 PUSH1 0x20 ADD SWAP2 PUSH2 0x19EF JUMP JUMPDEST DUP3 ADD SWAP2 SWAP1 PUSH1 0x0 MSTORE PUSH1 0x20 PUSH1 0x0 KECCAK256 SWAP1 JUMPDEST DUP2 SLOAD DUP2 MSTORE SWAP1 PUSH1 0x1 ADD SWAP1 PUSH1 0x20 ADD DUP1 DUP4 GT PUSH2 0x19D2 JUMPI DUP3 SWAP1 SUB PUSH1 0x1F AND DUP3 ADD SWAP2 JUMPDEST POP POP POP POP POP DUP3 DUP3 DUP2 MLOAD DUP2 LT PUSH2 0x1A06 JUMPI PUSH2 0x1A06 PUSH2 0x35DA JUMP JUMPDEST PUSH1 0x20 MUL PUSH1 0x20 ADD ADD MLOAD PUSH1 0x20 ADD DUP2 SWAP1 MSTORE POP DUP1 DUP1 PUSH2 0x1A20 SWAP1 PUSH2 0x38A4 JUMP JUMPDEST SWAP2 POP POP PUSH2 0x185D JUMP JUMPDEST POP PUSH1 0x40 DUP3 ADD MSTORE SWAP4 SWAP3 POP POP POP JUMP JUMPDEST PUSH1 0x0 DUP3 DUP2 MSTORE PUSH1 0x20 DUP2 DUP2 MSTORE PUSH1 0x40 SWAP2 DUP3 SWAP1 KECCAK256 PUSH1 0x13 ADD DUP1 SLOAD PUSH1 0xFF NOT AND DUP5 ISZERO ISZERO SWAP1 DUP2 OR SWAP1 SWAP2 SSTORE DUP3 MLOAD DUP6 DUP2 MSTORE SWAP2 DUP3 ADD MSTORE CALLER SWAP2 DUP2 ADD SWAP2 SWAP1 SWAP2 MSTORE PUSH32 0x6505631A30F6259A8BBF6422CDC3BD467DDC256B547DAD05C5D84ABC34ABFA18 SWAP1 PUSH1 0x60 ADD PUSH2 0xC6E JUMP JUMPDEST PUSH1 0x0 DUP5 DUP2 MSTORE PUSH1 0x3 PUSH1 0x20 SWAP1 DUP2 MSTORE PUSH1 0x40 DUP1 DUP4 KECCAK256 PUSH1 0x1 PUSH1 0x1 PUSH1 0xA0 SHL SUB DUP8 AND DUP5 MSTORE DUP3 MSTORE DUP1 DUP4 KECCAK256 DUP6 DUP5 MSTORE PUSH1 0x1 SWAP1 DUP2 ADD SWAP1 SWAP3 MSTORE SWAP1 SWAP2 KECCAK256 DUP1 SLOAD DUP4 SWAP3 PUSH1 0xFF NOT SWAP1 SWAP2 AND SWAP1 DUP4 PUSH1 0x4 DUP2 GT ISZERO PUSH2 0x1ADF JUMPI PUSH2 0x1ADF PUSH2 0x29F6 JUMP JUMPDEST MUL OR SWAP1 SSTORE POP PUSH32 0x4B906571B20F3DCDF826B53F3C66528E252B2EB87DE3CB812F18E6859E119344 DUP5 DUP5 DUP5 DUP5 PUSH1 0x0 CALLER PUSH1 0x40 MLOAD PUSH2 0xD30 SWAP7 SWAP6 SWAP5 SWAP4 SWAP3 SWAP2 SWAP1 PUSH2 0x385C JUMP JUMPDEST PUSH1 0x4 PUSH1 0x0 DUP2 SLOAD PUSH2 0x1B2D SWAP1 PUSH2 0x38A4 JUMP JUMPDEST SWAP1 SWAP2 SSTORE POP JUMP JUMPDEST PUSH1 0x4 DUP1 SLOAD PUSH1 0x0 SWAP2 DUP3 PUSH2 0x1B44 DUP4 PUSH2 0x38A4 JUMP JUMPDEST SWAP1 SWAP2 SSTORE POP POP PUSH1 0x4 SLOAD PUSH1 0x0 SWAP1 DUP2 MSTORE PUSH1 0x20 DUP2 DUP2 MSTORE PUSH1 0x40 SWAP1 SWAP2 KECCAK256 DUP1 SLOAD PUSH32 0xFFFFFFFFFFFFFFFFFFFFFFFF0000000000000000000000000000000000000000 AND CALLER OR DUP2 SSTORE DUP4 MLOAD PUSH1 0x1 DUP3 ADD SSTORE SWAP1 DUP4 ADD MLOAD PUSH1 0x2 DUP3 ADD SWAP1 PUSH2 0x1B9D SWAP1 DUP3 PUSH2 0x36AB JUMP JUMPDEST POP PUSH1 0x40 DUP4 ADD MLOAD PUSH1 0x3 DUP3 ADD SWAP1 PUSH2 0x1BB2 SWAP1 DUP3 PUSH2 0x36AB JUMP JUMPDEST POP PUSH1 0x60 DUP4 ADD MLOAD PUSH1 0x4 DUP3 ADD SSTORE PUSH1 0x80 DUP4 ADD MLOAD PUSH1 0x5 DUP3 ADD SSTORE PUSH1 0xA0 DUP4 ADD MLOAD PUSH1 0x6 DUP3 ADD SSTORE PUSH1 0xC0 DUP4 ADD MLOAD DUP1 MLOAD PUSH2 0x1BEC SWAP2 PUSH1 0x7 DUP5 ADD SWAP2 PUSH1 0x20 SWAP1 SWAP2 ADD SWAP1 PUSH2 0x26AB JUMP JUMPDEST POP PUSH1 0xE0 DUP4 ADD MLOAD PUSH1 0x8 DUP3 ADD SSTORE PUSH2 0x100 DUP1 DUP5 ADD MLOAD PUSH1 0x9 DUP4 ADD SSTORE PUSH2 0x160 DUP5 ADD MLOAD PUSH1 0xB DUP4 ADD SSTORE PUSH2 0x120 DUP5 ADD MLOAD PUSH1 0xA DUP4 ADD DUP1 SLOAD PUSH2 0x140 DUP8 ADD MLOAD ISZERO DUP1 ISZERO SWAP1 SWAP5 MUL PUSH32 0xFFFFFFFFFFFFFFFFFFFFFFFFFFFFFFFFFFFFFFFFFFFFFFFFFFFFFFFFFFFF00FF SWAP4 ISZERO ISZERO SWAP4 SWAP1 SWAP4 AND PUSH32 0xFFFFFFFFFFFFFFFFFFFFFFFFFFFFFFFFFFFFFFFFFFFFFFFFFFFFFFFFFFFF0000 SWAP1 SWAP2 AND OR SWAP2 SWAP1 SWAP2 OR SWAP1 SSTORE PUSH2 0x1C95 JUMPI PUSH2 0x180 DUP4 ADD MLOAD MLOAD PUSH1 0xF DUP3 ADD DUP2 SWAP1 SSTORE PUSH1 0x10 DUP3 ADD SSTORE PUSH2 0x1CA4 JUMP JUMPDEST PUSH1 0x1 PUSH1 0xF DUP3 ADD DUP2 SWAP1 SSTORE PUSH1 0x10 DUP3 ADD SSTORE JUMPDEST PUSH1 0x13 DUP2 ADD DUP1 SLOAD PUSH32 0xFFFFFFFFFFFFFFFFFFFFFFFFFFFFFFFFFFFFFFFFFFFFFFFFFFFFFFFFFFFF0000 AND PUSH2 0x101 OR SWAP1 SSTORE PUSH1 0x0 JUMPDEST DUP4 PUSH2 0x180 ADD MLOAD MLOAD DUP2 LT ISZERO PUSH2 0x1E33 JUMPI PUSH1 0x0 DUP5 PUSH2 0x180 ADD MLOAD DUP3 DUP2 MLOAD DUP2 LT PUSH2 0x1CFC JUMPI PUSH2 0x1CFC PUSH2 0x35DA JUMP JUMPDEST PUSH1 0x20 MUL PUSH1 0x20 ADD ADD MLOAD PUSH1 0x60 ADD SWAP1 PUSH1 0xB DUP2 GT ISZERO PUSH2 0x1D19 JUMPI PUSH2 0x1D19 PUSH2 0x29F6 JUMP JUMPDEST SWAP1 DUP2 PUSH1 0xB DUP2 GT ISZERO PUSH2 0x1D2C JUMPI PUSH2 0x1D2C PUSH2 0x29F6 JUMP JUMPDEST DUP2 MSTORE POP POP DUP2 PUSH1 0xC ADD DUP5 PUSH2 0x180 ADD MLOAD DUP3 DUP2 MLOAD DUP2 LT PUSH2 0x1D4B JUMPI PUSH2 0x1D4B PUSH2 0x35DA JUMP JUMPDEST PUSH1 0x20 SWAP1 DUP2 MUL SWAP2 SWAP1 SWAP2 ADD DUP2 ADD MLOAD DUP3 SLOAD PUSH1 0x1 DUP2 ADD DUP5 SSTORE PUSH1 0x0 SWAP4 DUP5 MSTORE SWAP2 SWAP1 SWAP3 KECCAK256 DUP3 MLOAD DUP1 MLOAD PUSH1 0xB SWAP1 SWAP4 MUL SWAP1 SWAP2 ADD SWAP2 DUP3 SWAP1 DUP2 SWAP1 PUSH2 0x1D83 SWAP1 DUP3 PUSH2 0x36AB JUMP JUMPDEST POP PUSH1 0x20 DUP3 ADD MLOAD PUSH1 0x1 DUP3 ADD SSTORE PUSH1 0x40 DUP3 ADD MLOAD PUSH1 0x2 DUP3 ADD SSTORE PUSH1 0x60 DUP3 ADD MLOAD PUSH1 0x3 DUP3 ADD SSTORE PUSH1 0x80 DUP3 ADD MLOAD PUSH1 0x4 DUP3 ADD SSTORE PUSH1 0xA0 DUP3 ADD MLOAD PUSH1 0x5 DUP3 ADD SSTORE PUSH1 0xC0 DUP3 ADD MLOAD PUSH1 0x6 DUP3 ADD SWAP1 PUSH2 0x1DCA SWAP1 DUP3 PUSH2 0x36AB JUMP JUMPDEST POP POP POP PUSH1 0x20 DUP3 ADD MLOAD PUSH1 0x7 DUP3 ADD SSTORE PUSH1 0x40 DUP3 ADD MLOAD PUSH1 0x8 DUP3 ADD SWAP1 PUSH2 0x1DEB SWAP1 DUP3 PUSH2 0x36AB JUMP JUMPDEST POP PUSH1 0x60 DUP3 ADD MLOAD PUSH1 0x9 DUP3 ADD DUP1 SLOAD PUSH1 0xFF NOT AND PUSH1 0x1 DUP4 PUSH1 0xB DUP2 GT ISZERO PUSH2 0x1E0F JUMPI PUSH2 0x1E0F PUSH2 0x29F6 JUMP JUMPDEST MUL OR SWAP1 SSTORE POP PUSH1 0x80 DUP3 ADD MLOAD DUP2 PUSH1 0xA ADD SSTORE POP POP DUP1 DUP1 PUSH2 0x1E2B SWAP1 PUSH2 0x38A4 JUMP JUMPDEST SWAP2 POP POP PUSH2 0x1CD5 JUMP JUMPDEST POP POP PUSH1 0x4 SLOAD SWAP3 SWAP2 POP POP JUMP JUMPDEST PUSH2 0x1E6B PUSH1 0x40 MLOAD DUP1 PUSH1 0x60 ADD PUSH1 0x40 MSTORE DUP1 PUSH1 0x0 PUSH1 0x1 PUSH1 0x1 PUSH1 0xA0 SHL SUB AND DUP2 MSTORE PUSH1 0x20 ADD PUSH1 0x60 DUP2 MSTORE PUSH1 0x20 ADD PUSH1 0x60 DUP2 MSTORE POP SWAP1 JUMP JUMPDEST PUSH2 0x1E98 PUSH1 0x40 MLOAD DUP1 PUSH1 0x60 ADD PUSH1 0x40 MSTORE DUP1 PUSH1 0x0 PUSH1 0x1 PUSH1 0x1 PUSH1 0xA0 SHL SUB AND DUP2 MSTORE PUSH1 0x20 ADD PUSH1 0x60 DUP2 MSTORE PUSH1 0x20 ADD PUSH1 0x60 DUP2 MSTORE POP SWAP1 JUMP JUMPDEST PUSH1 0x1 PUSH1 0x1 PUSH1 0xA0 SHL SUB DUP4 AND DUP1 DUP3 MSTORE PUSH1 0x0 DUP6 DUP2 MSTORE PUSH1 0x3 PUSH1 0x20 SWAP1 DUP2 MSTORE PUSH1 0x40 DUP1 DUP4 KECCAK256 SWAP4 DUP4 MSTORE SWAP3 DUP2 MSTORE SWAP1 DUP3 SWAP1 KECCAK256 DUP1 SLOAD DUP4 MLOAD DUP2 DUP5 MUL DUP2 ADD DUP5 ADD SWAP1 SWAP5 MSTORE DUP1 DUP5 MSTORE SWAP1 SWAP2 DUP4 ADD DUP3 DUP3 DUP1 ISZERO PUSH2 0x1F02 JUMPI PUSH1 0x20 MUL DUP3 ADD SWAP2 SWAP1 PUSH1 0x0 MSTORE PUSH1 0x20 PUSH1 0x0 KECCAK256 SWAP1 JUMPDEST DUP2 SLOAD DUP2 MSTORE PUSH1 0x20 ADD SWAP1 PUSH1 0x1 ADD SWAP1 DUP1 DUP4 GT PUSH2 0x1EEE JUMPI JUMPDEST POP POP POP POP PUSH1 0x20 DUP4 ADD DUP3 SWAP1 MSTORE POP MLOAD PUSH1 0x0 SWAP1 PUSH8 0xFFFFFFFFFFFFFFFF DUP2 GT ISZERO PUSH2 0x1F2A JUMPI PUSH2 0x1F2A PUSH2 0x27F6 JUMP JUMPDEST PUSH1 0x40 MLOAD SWAP1 DUP1 DUP3 MSTORE DUP1 PUSH1 0x20 MUL PUSH1 0x20 ADD DUP3 ADD PUSH1 0x40 MSTORE DUP1 ISZERO PUSH2 0x1F70 JUMPI DUP2 PUSH1 0x20 ADD JUMPDEST PUSH1 0x40 DUP1 MLOAD DUP1 DUP3 ADD SWAP1 SWAP2 MSTORE PUSH1 0x0 DUP2 MSTORE PUSH1 0x60 PUSH1 0x20 DUP3 ADD MSTORE DUP2 MSTORE PUSH1 0x20 ADD SWAP1 PUSH1 0x1 SWAP1 SUB SWAP1 DUP2 PUSH2 0x1F48 JUMPI SWAP1 POP JUMPDEST POP SWAP1 POP PUSH1 0x0 JUMPDEST DUP3 PUSH1 0x20 ADD MLOAD MLOAD DUP2 LT ISZERO PUSH2 0x1A28 JUMPI PUSH1 0x0 DUP7 DUP2 MSTORE PUSH1 0x3 PUSH1 0x20 SWAP1 DUP2 MSTORE PUSH1 0x40 DUP1 DUP4 KECCAK256 PUSH1 0x1 PUSH1 0x1 PUSH1 0xA0 SHL SUB DUP10 AND DUP5 MSTORE DUP3 MSTORE DUP3 KECCAK256 SWAP1 DUP6 ADD MLOAD DUP1 MLOAD PUSH1 0x1 SWAP1 SWAP3 ADD SWAP3 SWAP2 DUP5 SWAP1 DUP2 LT PUSH2 0x1FC1 JUMPI PUSH2 0x1FC1 PUSH2 0x35DA JUMP JUMPDEST PUSH1 0x20 MUL PUSH1 0x20 ADD ADD MLOAD DUP2 MSTORE PUSH1 0x20 ADD SWAP1 DUP2 MSTORE PUSH1 0x20 ADD PUSH1 0x0 KECCAK256 PUSH1 0x0 ADD PUSH1 0x0 SWAP1 SLOAD SWAP1 PUSH2 0x100 EXP SWAP1 DIV PUSH1 0xFF AND DUP3 DUP3 DUP2 MLOAD DUP2 LT PUSH2 0x1FFA JUMPI PUSH2 0x1FFA PUSH2 0x35DA JUMP JUMPDEST PUSH1 0x20 MUL PUSH1 0x20 ADD ADD MLOAD PUSH1 0x0 ADD SWAP1 PUSH1 0x4 DUP2 GT ISZERO PUSH2 0x2017 JUMPI PUSH2 0x2017 PUSH2 0x29F6 JUMP JUMPDEST SWAP1 DUP2 PUSH1 0x4 DUP2 GT ISZERO PUSH2 0x202A JUMPI PUSH2 0x202A PUSH2 0x29F6 JUMP JUMPDEST SWAP1 MSTORE POP PUSH1 0x0 DUP7 DUP2 MSTORE PUSH1 0x3 PUSH1 0x20 SWAP1 DUP2 MSTORE PUSH1 0x40 DUP1 DUP4 KECCAK256 PUSH1 0x1 PUSH1 0x1 PUSH1 0xA0 SHL SUB DUP10 AND DUP5 MSTORE DUP3 MSTORE DUP3 KECCAK256 SWAP1 DUP6 ADD MLOAD DUP1 MLOAD PUSH1 0x1 SWAP1 SWAP3 ADD SWAP3 SWAP2 DUP5 SWAP1 DUP2 LT PUSH2 0x206B JUMPI PUSH2 0x206B PUSH2 0x35DA JUMP JUMPDEST PUSH1 0x20 MUL PUSH1 0x20 ADD ADD MLOAD DUP2 MSTORE PUSH1 0x20 ADD SWAP1 DUP2 MSTORE PUSH1 0x20 ADD PUSH1 0x0 KECCAK256 PUSH1 0x1 ADD DUP1 SLOAD PUSH2 0x208F SWAP1 PUSH2 0x3609 JUMP JUMPDEST DUP1 PUSH1 0x1F ADD PUSH1 0x20 DUP1 SWAP2 DIV MUL PUSH1 0x20 ADD PUSH1 0x40 MLOAD SWAP1 DUP2 ADD PUSH1 0x40 MSTORE DUP1 SWAP3 SWAP2 SWAP1 DUP2 DUP2 MSTORE PUSH1 0x20 ADD DUP3 DUP1 SLOAD PUSH2 0x20BB SWAP1 PUSH2 0x3609 JUMP JUMPDEST DUP1 ISZERO PUSH2 0x2108 JUMPI DUP1 PUSH1 0x1F LT PUSH2 0x20DD JUMPI PUSH2 0x100 DUP1 DUP4 SLOAD DIV MUL DUP4 MSTORE SWAP2 PUSH1 0x20 ADD SWAP2 PUSH2 0x2108 JUMP JUMPDEST DUP3 ADD SWAP2 SWAP1 PUSH1 0x0 MSTORE PUSH1 0x20 PUSH1 0x0 KECCAK256 SWAP1 JUMPDEST DUP2 SLOAD DUP2 MSTORE SWAP1 PUSH1 0x1 ADD SWAP1 PUSH1 0x20 ADD DUP1 DUP4 GT PUSH2 0x20EB JUMPI DUP3 SWAP1 SUB PUSH1 0x1F AND DUP3 ADD SWAP2 JUMPDEST POP POP POP POP POP DUP3 DUP3 DUP2 MLOAD DUP2 LT PUSH2 0x211F JUMPI PUSH2 0x211F PUSH2 0x35DA JUMP JUMPDEST PUSH1 0x20 MUL PUSH1 0x20 ADD ADD MLOAD PUSH1 0x20 ADD DUP2 SWAP1 MSTORE POP DUP1 DUP1 PUSH2 0x2139 SWAP1 PUSH2 0x38A4 JUMP JUMPDEST SWAP2 POP POP PUSH2 0x1F76 JUMP JUMPDEST PUSH1 0x0 DUP2 ISZERO PUSH2 0x216A JUMPI POP PUSH1 0x0 DUP3 DUP2 MSTORE PUSH1 0x20 DUP2 SWAP1 MSTORE PUSH1 0x40 SWAP1 KECCAK256 PUSH1 0x11 DUP2 ADD SLOAD PUSH1 0xF SWAP1 SWAP2 ADD SLOAD GT ISZERO PUSH2 0xC9E JUMP JUMPDEST POP PUSH1 0x0 DUP3 DUP2 MSTORE PUSH1 0x20 DUP2 SWAP1 MSTORE PUSH1 0x40 SWAP1 KECCAK256 PUSH1 0x12 DUP2 ADD SLOAD PUSH1 0x10 SWAP1 SWAP2 ADD SLOAD GT ISZERO PUSH2 0xC9E JUMP JUMPDEST PUSH1 0x60 PUSH1 0x0 PUSH1 0x60 DUP1 PUSH1 0x0 DUP1 DUP7 ISZERO PUSH2 0x220C JUMPI PUSH1 0x0 DUP10 DUP2 MSTORE PUSH1 0x2 PUSH1 0x20 SWAP1 DUP2 MSTORE PUSH1 0x40 DUP1 DUP4 KECCAK256 PUSH1 0x1 PUSH1 0x1 PUSH1 0xA0 SHL SUB DUP13 AND DUP5 MSTORE DUP3 MSTORE SWAP2 DUP3 SWAP1 KECCAK256 DUP1 SLOAD DUP4 MLOAD DUP2 DUP5 MUL DUP2 ADD DUP5 ADD SWAP1 SWAP5 MSTORE DUP1 DUP5 MSTORE SWAP1 SWAP2 DUP4 ADD DUP3 DUP3 DUP1 ISZERO PUSH2 0x2200 JUMPI PUSH1 0x20 MUL DUP3 ADD SWAP2 SWAP1 PUSH1 0x0 MSTORE PUSH1 0x20 PUSH1 0x0 KECCAK256 SWAP1 JUMPDEST DUP2 SLOAD DUP2 MSTORE PUSH1 0x20 ADD SWAP1 PUSH1 0x1 ADD SWAP1 DUP1 DUP4 GT PUSH2 0x21EC JUMPI JUMPDEST POP POP POP POP POP SWAP4 POP PUSH2 0x2279 JUMP JUMPDEST PUSH1 0x0 DUP10 DUP2 MSTORE PUSH1 0x3 PUSH1 0x20 SWAP1 DUP2 MSTORE PUSH1 0x40 DUP1 DUP4 KECCAK256 PUSH1 0x1 PUSH1 0x1 PUSH1 0xA0 SHL SUB DUP13 AND DUP5 MSTORE DUP3 MSTORE SWAP2 DUP3 SWAP1 KECCAK256 DUP1 SLOAD DUP4 MLOAD DUP2 DUP5 MUL DUP2 ADD DUP5 ADD SWAP1 SWAP5 MSTORE DUP1 DUP5 MSTORE SWAP1 SWAP2 DUP4 ADD DUP3 DUP3 DUP1 ISZERO PUSH2 0x2271 JUMPI PUSH1 0x20 MUL DUP3 ADD SWAP2 SWAP1 PUSH1 0x0 MSTORE PUSH1 0x20 PUSH1 0x0 KECCAK256 SWAP1 JUMPDEST DUP2 SLOAD DUP2 MSTORE PUSH1 0x20 ADD SWAP1 PUSH1 0x1 ADD SWAP1 DUP1 DUP4 GT PUSH2 0x225D JUMPI JUMPDEST POP POP POP POP POP SWAP4 POP JUMPDEST PUSH1 0x40 DUP1 MLOAD DUP1 DUP3 ADD SWAP1 SWAP2 MSTORE PUSH1 0x0 DUP2 MSTORE PUSH1 0x60 PUSH1 0x20 DUP3 ADD MSTORE PUSH1 0x0 JUMPDEST DUP6 MLOAD DUP2 LT ISZERO PUSH2 0x24A5 JUMPI PUSH1 0x0 DUP12 DUP2 MSTORE PUSH1 0x2 PUSH1 0x20 SWAP1 DUP2 MSTORE PUSH1 0x40 DUP1 DUP4 KECCAK256 PUSH1 0x1 PUSH1 0x1 PUSH1 0xA0 SHL SUB DUP15 AND DUP5 MSTORE SWAP1 SWAP2 MSTORE DUP2 KECCAK256 DUP8 MLOAD PUSH1 0x1 SWAP1 SWAP2 ADD SWAP2 SWAP1 DUP9 SWAP1 DUP5 SWAP1 DUP2 LT PUSH2 0x22D7 JUMPI PUSH2 0x22D7 PUSH2 0x35DA JUMP JUMPDEST PUSH1 0x20 MUL PUSH1 0x20 ADD ADD MLOAD DUP2 MSTORE PUSH1 0x20 ADD SWAP1 DUP2 MSTORE PUSH1 0x20 ADD PUSH1 0x0 KECCAK256 PUSH1 0x40 MLOAD DUP1 PUSH1 0x40 ADD PUSH1 0x40 MSTORE SWAP1 DUP2 PUSH1 0x0 DUP3 ADD PUSH1 0x0 SWAP1 SLOAD SWAP1 PUSH2 0x100 EXP SWAP1 DIV PUSH1 0xFF AND PUSH1 0x4 DUP2 GT ISZERO PUSH2 0x231C JUMPI PUSH2 0x231C PUSH2 0x29F6 JUMP JUMPDEST PUSH1 0x4 DUP2 GT ISZERO PUSH2 0x232D JUMPI PUSH2 0x232D PUSH2 0x29F6 JUMP JUMPDEST DUP2 MSTORE PUSH1 0x20 ADD PUSH1 0x1 DUP3 ADD DUP1 SLOAD PUSH2 0x2341 SWAP1 PUSH2 0x3609 JUMP JUMPDEST DUP1 PUSH1 0x1F ADD PUSH1 0x20 DUP1 SWAP2 DIV MUL PUSH1 0x20 ADD PUSH1 0x40 MLOAD SWAP1 DUP2 ADD PUSH1 0x40 MSTORE DUP1 SWAP3 SWAP2 SWAP1 DUP2 DUP2 MSTORE PUSH1 0x20 ADD DUP3 DUP1 SLOAD PUSH2 0x236D SWAP1 PUSH2 0x3609 JUMP JUMPDEST DUP1 ISZERO PUSH2 0x23BA JUMPI DUP1 PUSH1 0x1F LT PUSH2 0x238F JUMPI PUSH2 0x100 DUP1 DUP4 SLOAD DIV MUL DUP4 MSTORE SWAP2 PUSH1 0x20 ADD SWAP2 PUSH2 0x23BA JUMP JUMPDEST DUP3 ADD SWAP2 SWAP1 PUSH1 0x0 MSTORE PUSH1 0x20 PUSH1 0x0 KECCAK256 SWAP1 JUMPDEST DUP2 SLOAD DUP2 MSTORE SWAP1 PUSH1 0x1 ADD SWAP1 PUSH1 0x20 ADD DUP1 DUP4 GT PUSH2 0x239D JUMPI DUP3 SWAP1 SUB PUSH1 0x1F AND DUP3 ADD SWAP2 JUMPDEST POP POP POP POP POP DUP2 MSTORE POP POP SWAP2 POP PUSH1 0x0 PUSH1 0x4 DUP2 GT ISZERO PUSH2 0x23D8 JUMPI PUSH2 0x23D8 PUSH2 0x29F6 JUMP JUMPDEST DUP3 MLOAD PUSH1 0x4 DUP2 GT ISZERO PUSH2 0x23EB JUMPI PUSH2 0x23EB PUSH2 0x29F6 JUMP JUMPDEST SUB PUSH2 0x2493 JUMPI DUP6 DUP2 DUP2 MLOAD DUP2 LT PUSH2 0x2402 JUMPI PUSH2 0x2402 PUSH2 0x35DA JUMP JUMPDEST PUSH1 0x20 MUL PUSH1 0x20 ADD ADD MLOAD DUP6 DUP5 DUP2 MLOAD DUP2 LT PUSH2 0x241C JUMPI PUSH2 0x241C PUSH2 0x35DA JUMP JUMPDEST PUSH1 0x20 SWAP1 DUP2 MUL SWAP2 SWAP1 SWAP2 ADD ADD MSTORE DUP3 PUSH2 0x2431 DUP2 PUSH2 0x38A4 JUMP JUMPDEST SWAP4 POP POP PUSH1 0x0 DUP1 DUP13 DUP2 MSTORE PUSH1 0x20 ADD SWAP1 DUP2 MSTORE PUSH1 0x20 ADD PUSH1 0x0 KECCAK256 PUSH1 0xC ADD DUP7 DUP3 DUP2 MLOAD DUP2 LT PUSH2 0x245B JUMPI PUSH2 0x245B PUSH2 0x35DA JUMP JUMPDEST PUSH1 0x20 MUL PUSH1 0x20 ADD ADD MLOAD DUP2 SLOAD DUP2 LT PUSH2 0x2473 JUMPI PUSH2 0x2473 PUSH2 0x35DA JUMP JUMPDEST SWAP1 PUSH1 0x0 MSTORE PUSH1 0x20 PUSH1 0x0 KECCAK256 SWAP1 PUSH1 0xB MUL ADD PUSH1 0x7 ADD SLOAD DUP5 PUSH2 0x2490 SWAP2 SWAP1 PUSH2 0x381E JUMP JUMPDEST SWAP4 POP JUMPDEST DUP1 PUSH2 0x249D DUP2 PUSH2 0x38A4 JUMP JUMPDEST SWAP2 POP POP PUSH2 0x2291 JUMP JUMPDEST POP SWAP3 SWAP10 SWAP2 SWAP9 POP SWAP1 SWAP7 POP POP POP POP POP POP POP JUMP JUMPDEST PUSH1 0x0 DUP2 DUP2 MSTORE PUSH1 0x20 DUP2 DUP2 MSTORE PUSH1 0x40 SWAP2 DUP3 SWAP1 KECCAK256 PUSH1 0xD ADD DUP1 SLOAD DUP4 MLOAD DUP2 DUP5 MUL DUP2 ADD DUP5 ADD SWAP1 SWAP5 MSTORE DUP1 DUP5 MSTORE PUSH1 0x60 SWAP4 SWAP3 DUP4 ADD DUP3 DUP3 DUP1 ISZERO PUSH2 0x2517 JUMPI PUSH1 0x20 MUL DUP3 ADD SWAP2 SWAP1 PUSH1 0x0 MSTORE PUSH1 0x20 PUSH1 0x0 KECCAK256 SWAP1 JUMPDEST DUP2 SLOAD PUSH1 0x1 PUSH1 0x1 PUSH1 0xA0 SHL SUB AND DUP2 MSTORE PUSH1 0x1 SWAP1 SWAP2 ADD SWAP1 PUSH1 0x20 ADD DUP1 DUP4 GT PUSH2 0x24F9 JUMPI JUMPDEST POP POP POP POP POP SWAP1 POP SWAP2 SWAP1 POP JUMP JUMPDEST PUSH1 0x0 DUP3 DUP2 MSTORE PUSH1 0x20 DUP2 SWAP1 MSTORE PUSH1 0x40 DUP2 KECCAK256 PUSH1 0xC ADD DUP1 SLOAD DUP4 SWAP1 DUP2 LT PUSH2 0x2546 JUMPI PUSH2 0x2546 PUSH2 0x35DA JUMP JUMPDEST PUSH1 0x0 SWAP2 DUP3 MSTORE PUSH1 0x20 SWAP1 SWAP2 KECCAK256 PUSH1 0xB SWAP1 SWAP2 MUL ADD PUSH1 0x9 ADD SLOAD PUSH1 0xFF AND SWAP4 SWAP3 POP POP POP JUMP JUMPDEST PUSH1 0x0 DUP2 DUP2 MSTORE PUSH1 0x20 DUP2 DUP2 MSTORE PUSH1 0x40 SWAP2 DUP3 SWAP1 KECCAK256 PUSH1 0xE ADD DUP1 SLOAD DUP4 MLOAD DUP2 DUP5 MUL DUP2 ADD DUP5 ADD SWAP1 SWAP5 MSTORE DUP1 DUP5 MSTORE PUSH1 0x60 SWAP4 SWAP3 DUP4 ADD DUP3 DUP3 DUP1 ISZERO PUSH2 0x2517 JUMPI PUSH1 0x20 MUL DUP3 ADD SWAP2 SWAP1 PUSH1 0x0 MSTORE PUSH1 0x20 PUSH1 0x0 KECCAK256 SWAP1 DUP2 SLOAD PUSH1 0x1 PUSH1 0x1 PUSH1 0xA0 SHL SUB AND DUP2 MSTORE PUSH1 0x1 SWAP1 SWAP2 ADD SWAP1 PUSH1 0x20 ADD DUP1 DUP4 GT PUSH2 0x24F9 JUMPI POP POP POP POP POP SWAP1 POP SWAP2 SWAP1 POP JUMP JUMPDEST PUSH1 0x0 DUP3 DUP2 MSTORE PUSH1 0x20 DUP2 DUP2 MSTORE PUSH1 0x40 SWAP2 DUP3 SWAP1 KECCAK256 PUSH1 0x13 ADD DUP1 SLOAD PUSH32 0xFFFFFFFFFFFFFFFFFFFFFFFFFFFFFFFFFFFFFFFFFFFFFFFFFFFFFFFFFFFF00FF AND PUSH2 0x100 DUP6 ISZERO ISZERO SWAP1 DUP2 MUL SWAP2 SWAP1 SWAP2 OR SWAP1 SWAP2 SSTORE DUP3 MLOAD DUP6 DUP2 MSTORE SWAP2 DUP3 ADD MSTORE CALLER SWAP2 DUP2 ADD SWAP2 SWAP1 SWAP2 MSTORE PUSH32 0x7251B4359E8A59604EE5EDC605CC5E422ED31ECB1CF2B1CB7ED855E8811DFB4C SWAP1 PUSH1 0x60 ADD PUSH2 0xC6E JUMP JUMPDEST PUSH1 0x0 DUP2 DUP2 MSTORE PUSH1 0x20 DUP2 SWAP1 MSTORE PUSH1 0x40 DUP2 KECCAK256 PUSH1 0x12 ADD DUP1 SLOAD SWAP2 PUSH2 0x16F5 DUP4 PUSH2 0x38A4 JUMP JUMPDEST PUSH1 0x0 DUP3 DUP2 MSTORE PUSH1 0x20 DUP2 SWAP1 MSTORE PUSH1 0x40 DUP2 KECCAK256 PUSH1 0xC ADD DUP1 SLOAD DUP4 SWAP1 DUP2 LT PUSH2 0x2691 JUMPI PUSH2 0x2691 PUSH2 0x35DA JUMP JUMPDEST SWAP1 PUSH1 0x0 MSTORE PUSH1 0x20 PUSH1 0x0 KECCAK256 SWAP1 PUSH1 0xB MUL ADD PUSH1 0x7 ADD SLOAD SWAP1 POP SWAP3 SWAP2 POP POP JUMP JUMPDEST DUP3 DUP1 SLOAD DUP3 DUP3 SSTORE SWAP1 PUSH1 0x0 MSTORE PUSH1 0x20 PUSH1 0x0 KECCAK256 SWAP1 DUP2 ADD SWAP3 DUP3 ISZERO PUSH2 0x26E6 JUMPI SWAP2 PUSH1 0x20 MUL DUP3 ADD JUMPDEST DUP3 DUP2 GT ISZERO PUSH2 0x26E6 JUMPI DUP3 MLOAD DUP3 SSTORE SWAP2 PUSH1 0x20 ADD SWAP2 SWAP1 PUSH1 0x1 ADD SWAP1 PUSH2 0x26CB JUMP JUMPDEST POP PUSH2 0x26F2 SWAP3 SWAP2 POP PUSH2 0x27C5 JUMP JUMPDEST POP SWAP1 JUMP JUMPDEST PUSH1 0x40 MLOAD DUP1 PUSH2 0x2E0 ADD PUSH1 0x40 MSTORE DUP1 PUSH1 0x0 PUSH1 0x1 PUSH1 0x1 PUSH1 0xA0 SHL SUB AND DUP2 MSTORE PUSH1 0x20 ADD PUSH1 0x0 DUP2 MSTORE PUSH1 0x20 ADD PUSH1 0x60 DUP2 MSTORE PUSH1 0x20 ADD PUSH1 0x60 DUP2 MSTORE PUSH1 0x20 ADD PUSH1 0x0 DUP2 MSTORE PUSH1 0x20 ADD PUSH1 0x0 DUP2 MSTORE PUSH1 0x20 ADD PUSH1 0x0 DUP2 MSTORE PUSH1 0x20 ADD PUSH1 0x60 DUP2 MSTORE PUSH1 0x20 ADD PUSH1 0x0 DUP2 MSTORE PUSH1 0x20 ADD PUSH1 0x0 DUP2 MSTORE PUSH1 0x20 ADD PUSH1 0x0 ISZERO ISZERO DUP2 MSTORE PUSH1 0x20 ADD PUSH1 0x0 ISZERO ISZERO DUP2 MSTORE PUSH1 0x20 ADD PUSH1 0x0 DUP2 MSTORE PUSH1 0x20 ADD PUSH1 0x60 DUP2 MSTORE PUSH1 0x20 ADD PUSH1 0x60 DUP2 MSTORE PUSH1 0x20 ADD PUSH1 0x60 DUP2 MSTORE PUSH1 0x20 ADD PUSH1 0x0 DUP2 MSTORE PUSH1 0x20 ADD PUSH1 0x0 DUP2 MSTORE PUSH1 0x20 ADD PUSH1 0x0 DUP2 MSTORE PUSH1 0x20 ADD PUSH1 0x0 DUP2 MSTORE PUSH1 0x20 ADD PUSH1 0x0 ISZERO ISZERO DUP2 MSTORE PUSH1 0x20 ADD PUSH1 0x0 ISZERO ISZERO DUP2 MSTORE PUSH1 0x20 ADD PUSH1 0x0 PUSH1 0x7 DUP2 GT ISZERO PUSH2 0x27C0 JUMPI PUSH2 0x27C0 PUSH2 0x29F6 JUMP JUMPDEST SWAP1 MSTORE SWAP1 JUMP JUMPDEST JUMPDEST DUP1 DUP3 GT ISZERO PUSH2 0x26F2 JUMPI PUSH1 0x0 DUP2 SSTORE PUSH1 0x1 ADD PUSH2 0x27C6 JUMP JUMPDEST DUP1 CALLDATALOAD PUSH1 0x1 PUSH1 0x1 PUSH1 0xA0 SHL SUB DUP2 AND DUP2 EQ PUSH2 0x27F1 JUMPI PUSH1 0x0 DUP1 REVERT JUMPDEST SWAP2 SWAP1 POP JUMP JUMPDEST PUSH32 0x4E487B7100000000000000000000000000000000000000000000000000000000 PUSH1 0x0 MSTORE PUSH1 0x41 PUSH1 0x4 MSTORE PUSH1 0x24 PUSH1 0x0 REVERT JUMPDEST PUSH1 0x40 MLOAD PUSH1 0xA0 DUP2 ADD PUSH8 0xFFFFFFFFFFFFFFFF DUP2 GT DUP3 DUP3 LT OR ISZERO PUSH2 0x2848 JUMPI PUSH2 0x2848 PUSH2 0x27F6 JUMP JUMPDEST PUSH1 0x40 MSTORE SWAP1 JUMP JUMPDEST PUSH1 0x40 MLOAD PUSH1 0xE0 DUP2 ADD PUSH8 0xFFFFFFFFFFFFFFFF DUP2 GT DUP3 DUP3 LT OR ISZERO PUSH2 0x2848 JUMPI PUSH2 0x2848 PUSH2 0x27F6 JUMP JUMPDEST PUSH1 0x40 MLOAD PUSH2 0x1A0 DUP2 ADD PUSH8 0xFFFFFFFFFFFFFFFF DUP2 GT DUP3 DUP3 LT OR ISZERO PUSH2 0x2848 JUMPI PUSH2 0x2848 PUSH2 0x27F6 JUMP JUMPDEST PUSH1 0x40 MLOAD PUSH1 0x1F DUP3 ADD PUSH1 0x1F NOT AND DUP2 ADD PUSH8 0xFFFFFFFFFFFFFFFF DUP2 GT DUP3 DUP3 LT OR ISZERO PUSH2 0x28BE JUMPI PUSH2 0x28BE PUSH2 0x27F6 JUMP JUMPDEST PUSH1 0x40 MSTORE SWAP2 SWAP1 POP JUMP JUMPDEST PUSH1 0x0 DUP3 PUSH1 0x1F DUP4 ADD SLT PUSH2 0x28D7 JUMPI PUSH1 0x0 DUP1 REVERT JUMPDEST DUP2 CALLDATALOAD PUSH8 0xFFFFFFFFFFFFFFFF DUP2 GT ISZERO PUSH2 0x28F1 JUMPI PUSH2 0x28F1 PUSH2 0x27F6 JUMP JUMPDEST PUSH2 0x2904 PUSH1 0x20 PUSH1 0x1F NOT PUSH1 0x1F DUP5 ADD AND ADD PUSH2 0x2895 JUMP JUMPDEST DUP2 DUP2 MSTORE DUP5 PUSH1 0x20 DUP4 DUP7 ADD ADD GT ISZERO PUSH2 0x2919 JUMPI PUSH1 0x0 DUP1 REVERT JUMPDEST DUP2 PUSH1 0x20 DUP6 ADD PUSH1 0x20 DUP4 ADD CALLDATACOPY PUSH1 0x0 SWAP2 DUP2 ADD PUSH1 0x20 ADD SWAP2 SWAP1 SWAP2 MSTORE SWAP4 SWAP3 POP POP POP JUMP JUMPDEST PUSH1 0x0 DUP1 PUSH1 0x0 DUP1 PUSH1 0x80 DUP6 DUP8 SUB SLT ISZERO PUSH2 0x294C JUMPI PUSH1 0x0 DUP1 REVERT JUMPDEST DUP5 CALLDATALOAD SWAP4 POP PUSH2 0x295C PUSH1 0x20 DUP7 ADD PUSH2 0x27DA JUMP JUMPDEST SWAP3 POP PUSH1 0x40 DUP6 ADD CALLDATALOAD SWAP2 POP PUSH1 0x60 DUP6 ADD CALLDATALOAD PUSH8 0xFFFFFFFFFFFFFFFF DUP2 GT ISZERO PUSH2 0x297F JUMPI PUSH1 0x0 DUP1 REVERT JUMPDEST PUSH2 0x298B DUP8 DUP3 DUP9 ADD PUSH2 0x28C6 JUMP JUMPDEST SWAP2 POP POP SWAP3 SWAP6 SWAP2 SWAP5 POP SWAP3 POP JUMP JUMPDEST PUSH1 0x0 PUSH1 0x20 DUP3 DUP5 SUB SLT ISZERO PUSH2 0x29A9 JUMPI PUSH1 0x0 DUP1 REVERT JUMPDEST POP CALLDATALOAD SWAP2 SWAP1 POP JUMP JUMPDEST PUSH1 0x0 DUP2 MLOAD DUP1 DUP5 MSTORE PUSH1 0x0 JUMPDEST DUP2 DUP2 LT ISZERO PUSH2 0x29D6 JUMPI PUSH1 0x20 DUP2 DUP6 ADD DUP2 ADD MLOAD DUP7 DUP4 ADD DUP3 ADD MSTORE ADD PUSH2 0x29BA JUMP JUMPDEST POP PUSH1 0x0 PUSH1 0x20 DUP3 DUP7 ADD ADD MSTORE PUSH1 0x20 PUSH1 0x1F NOT PUSH1 0x1F DUP4 ADD AND DUP6 ADD ADD SWAP2 POP POP SWAP3 SWAP2 POP POP JUMP JUMPDEST PUSH32 0x4E487B7100000000000000000000000000000000000000000000000000000000 PUSH1 0x0 MSTORE PUSH1 0x21 PUSH1 0x4 MSTORE PUSH1 0x24 PUSH1 0x0 REVERT JUMPDEST PUSH1 0xC DUP2 LT PUSH2 0x2A35 JUMPI PUSH2 0x2A35 PUSH2 0x29F6 JUMP JUMPDEST SWAP1 MSTORE JUMP JUMPDEST PUSH1 0x0 PUSH1 0x20 DUP1 DUP4 ADD DUP2 DUP5 MSTORE DUP1 DUP6 MLOAD DUP1 DUP4 MSTORE PUSH1 0x40 SWAP3 POP DUP3 DUP7 ADD SWAP2 POP DUP3 DUP2 PUSH1 0x5 SHL DUP8 ADD ADD DUP5 DUP9 ADD PUSH1 0x0 JUMPDEST DUP4 DUP2 LT ISZERO PUSH2 0x2B7B JUMPI PUSH32 0xFFFFFFFFFFFFFFFFFFFFFFFFFFFFFFFFFFFFFFFFFFFFFFFFFFFFFFFFFFFFFFC0 DUP10 DUP5 SUB ADD DUP6 MSTORE DUP2 MLOAD PUSH1 0xA0 DUP2 MLOAD DUP2 DUP7 MSTORE DUP1 MLOAD PUSH1 0xE0 DUP1 DUP5 DUP10 ADD MSTORE PUSH2 0x2AAF PUSH2 0x180 DUP10 ADD DUP4 PUSH2 0x29B0 JUMP JUMPDEST SWAP2 POP DUP12 DUP4 ADD MLOAD PUSH1 0xC0 DUP2 DUP2 DUP12 ADD MSTORE DUP13 DUP6 ADD MLOAD DUP4 DUP12 ADD MSTORE PUSH1 0x60 SWAP3 POP DUP3 DUP6 ADD MLOAD PUSH2 0x100 DUP12 ADD MSTORE PUSH1 0x80 SWAP2 POP DUP2 DUP6 ADD MLOAD PUSH2 0x120 DUP12 ADD MSTORE DUP6 DUP6 ADD MLOAD PUSH2 0x140 DUP12 ADD MSTORE DUP1 DUP6 ADD MLOAD SWAP6 POP POP PUSH32 0xFFFFFFFFFFFFFFFFFFFFFFFFFFFFFFFFFFFFFFFFFFFFFFFFFFFFFFFFFFFFFF60 DUP10 DUP5 SUB ADD PUSH2 0x160 DUP11 ADD MSTORE PUSH2 0x2B26 DUP4 DUP7 PUSH2 0x29B0 JUMP JUMPDEST SWAP5 POP DUP13 DUP7 ADD MLOAD DUP14 DUP11 ADD MSTORE DUP12 DUP7 ADD MLOAD SWAP4 POP DUP9 DUP6 SUB DUP13 DUP11 ADD MSTORE PUSH2 0x2B47 DUP6 DUP6 PUSH2 0x29B0 JUMP JUMPDEST SWAP5 POP DUP2 DUP7 ADD MLOAD SWAP4 POP PUSH2 0x2B5B DUP3 DUP11 ADD DUP6 PUSH2 0x2A25 JUMP JUMPDEST SWAP5 DUP6 ADD MLOAD SWAP8 SWAP1 SWAP5 ADD SWAP7 SWAP1 SWAP7 MSTORE POP SWAP6 DUP9 ADD SWAP6 SWAP4 POP POP SWAP1 DUP7 ADD SWAP1 PUSH1 0x1 ADD PUSH2 0x2A60 JUMP JUMPDEST POP SWAP1 SWAP9 SWAP8 POP POP POP POP POP POP POP POP JUMP JUMPDEST PUSH1 0x0 DUP1 PUSH1 0x40 DUP4 DUP6 SUB SLT ISZERO PUSH2 0x2B9C JUMPI PUSH1 0x0 DUP1 REVERT JUMPDEST PUSH2 0x2BA5 DUP4 PUSH2 0x27DA JUMP JUMPDEST SWAP5 PUSH1 0x20 SWAP4 SWAP1 SWAP4 ADD CALLDATALOAD SWAP4 POP POP POP JUMP JUMPDEST PUSH1 0x0 DUP1 PUSH1 0x40 DUP4 DUP6 SUB SLT ISZERO PUSH2 0x2BC6 JUMPI PUSH1 0x0 DUP1 REVERT JUMPDEST DUP3 CALLDATALOAD SWAP2 POP PUSH1 0x20 DUP4 ADD CALLDATALOAD PUSH1 0x8 DUP2 LT PUSH2 0x2BDC JUMPI PUSH1 0x0 DUP1 REVERT JUMPDEST DUP1 SWAP2 POP POP SWAP3 POP SWAP3 SWAP1 POP JUMP JUMPDEST PUSH1 0x0 DUP1 PUSH1 0x40 DUP4 DUP6 SUB SLT ISZERO PUSH2 0x2BFA JUMPI PUSH1 0x0 DUP1 REVERT JUMPDEST DUP3 CALLDATALOAD SWAP2 POP PUSH2 0x2C0A PUSH1 0x20 DUP5 ADD PUSH2 0x27DA JUMP JUMPDEST SWAP1 POP SWAP3 POP SWAP3 SWAP1 POP JUMP JUMPDEST PUSH1 0x0 DUP1 PUSH1 0x0 DUP1 PUSH1 0x80 DUP6 DUP8 SUB SLT ISZERO PUSH2 0x2C29 JUMPI PUSH1 0x0 DUP1 REVERT JUMPDEST DUP5 CALLDATALOAD SWAP4 POP PUSH2 0x2C39 PUSH1 0x20 DUP7 ADD PUSH2 0x27DA JUMP JUMPDEST SWAP3 POP PUSH1 0x40 DUP6 ADD CALLDATALOAD SWAP2 POP PUSH1 0x60 DUP6 ADD CALLDATALOAD PUSH1 0x5 DUP2 LT PUSH2 0x2C54 JUMPI PUSH1 0x0 DUP1 REVERT JUMPDEST SWAP4 SWAP7 SWAP3 SWAP6 POP SWAP1 SWAP4 POP POP JUMP JUMPDEST PUSH1 0x0 PUSH8 0xFFFFFFFFFFFFFFFF DUP3 GT ISZERO PUSH2 0x2C79 JUMPI PUSH2 0x2C79 PUSH2 0x27F6 JUMP JUMPDEST POP PUSH1 0x5 SHL PUSH1 0x20 ADD SWAP1 JUMP JUMPDEST PUSH1 0x0 DUP3 PUSH1 0x1F DUP4 ADD SLT PUSH2 0x2C94 JUMPI PUSH1 0x0 DUP1 REVERT JUMPDEST DUP2 CALLDATALOAD PUSH1 0x20 PUSH2 0x2CA9 PUSH2 0x2CA4 DUP4 PUSH2 0x2C5F JUMP JUMPDEST PUSH2 0x2895 JUMP JUMPDEST DUP3 DUP2 MSTORE PUSH1 0x5 SWAP3 SWAP1 SWAP3 SHL DUP5 ADD DUP2 ADD SWAP2 DUP2 DUP2 ADD SWAP1 DUP7 DUP5 GT ISZERO PUSH2 0x2CC8 JUMPI PUSH1 0x0 DUP1 REVERT JUMPDEST DUP3 DUP7 ADD JUMPDEST DUP5 DUP2 LT ISZERO PUSH2 0x2CE3 JUMPI DUP1 CALLDATALOAD DUP4 MSTORE SWAP2 DUP4 ADD SWAP2 DUP4 ADD PUSH2 0x2CCC JUMP JUMPDEST POP SWAP7 SWAP6 POP POP POP POP POP POP JUMP JUMPDEST DUP1 CALLDATALOAD DUP1 ISZERO ISZERO DUP2 EQ PUSH2 0x27F1 JUMPI PUSH1 0x0 DUP1 REVERT JUMPDEST DUP1 CALLDATALOAD PUSH1 0xC DUP2 LT PUSH2 0x27F1 JUMPI PUSH1 0x0 DUP1 REVERT JUMPDEST PUSH1 0x0 DUP3 PUSH1 0x1F DUP4 ADD SLT PUSH2 0x2D1E JUMPI PUSH1 0x0 DUP1 REVERT JUMPDEST DUP2 CALLDATALOAD PUSH1 0x20 PUSH2 0x2D2E PUSH2 0x2CA4 DUP4 PUSH2 0x2C5F JUMP JUMPDEST DUP3 DUP2 MSTORE PUSH1 0x5 SWAP3 SWAP1 SWAP3 SHL DUP5 ADD DUP2 ADD SWAP2 DUP2 DUP2 ADD SWAP1 DUP7 DUP5 GT ISZERO PUSH2 0x2D4D JUMPI PUSH1 0x0 DUP1 REVERT JUMPDEST DUP3 DUP7 ADD JUMPDEST DUP5 DUP2 LT ISZERO PUSH2 0x2CE3 JUMPI DUP1 CALLDATALOAD PUSH8 0xFFFFFFFFFFFFFFFF DUP1 DUP3 GT ISZERO PUSH2 0x2D71 JUMPI PUSH1 0x0 DUP1 REVERT JUMPDEST SWAP1 DUP9 ADD SWAP1 PUSH1 0x1F NOT PUSH1 0xA0 DUP4 DUP13 SUB DUP3 ADD SLT ISZERO PUSH2 0x2D8A JUMPI PUSH1 0x0 DUP1 REVERT JUMPDEST PUSH2 0x2D92 PUSH2 0x2825 JUMP JUMPDEST DUP8 DUP5 ADD CALLDATALOAD DUP4 DUP2 GT ISZERO PUSH2 0x2DA3 JUMPI PUSH1 0x0 DUP1 REVERT JUMPDEST DUP5 ADD PUSH1 0xE0 DUP2 DUP15 SUB DUP5 ADD SLT ISZERO PUSH2 0x2DB7 JUMPI PUSH1 0x0 DUP1 REVERT JUMPDEST PUSH2 0x2DBF PUSH2 0x284E JUMP JUMPDEST SWAP3 POP DUP9 DUP2 ADD CALLDATALOAD DUP5 DUP2 GT ISZERO PUSH2 0x2DD2 JUMPI PUSH1 0x0 DUP1 REVERT JUMPDEST PUSH2 0x2DE0 DUP15 DUP12 DUP4 DUP6 ADD ADD PUSH2 0x28C6 JUMP JUMPDEST DUP5 MSTORE POP PUSH1 0x40 DUP2 ADD CALLDATALOAD DUP10 DUP5 ADD MSTORE PUSH1 0x60 DUP2 ADD CALLDATALOAD PUSH1 0x40 DUP5 ADD MSTORE PUSH1 0x80 DUP1 DUP3 ADD CALLDATALOAD PUSH1 0x60 DUP6 ADD MSTORE PUSH1 0xA0 DUP3 ADD CALLDATALOAD DUP2 DUP6 ADD MSTORE PUSH1 0xC0 DUP3 ADD CALLDATALOAD PUSH1 0xA0 DUP6 ADD MSTORE PUSH1 0xE0 DUP3 ADD CALLDATALOAD DUP6 DUP2 GT ISZERO PUSH2 0x2E26 JUMPI PUSH1 0x0 DUP1 REVERT JUMPDEST PUSH2 0x2E34 DUP16 DUP13 DUP4 DUP7 ADD ADD PUSH2 0x28C6 JUMP JUMPDEST PUSH1 0xC0 DUP7 ADD MSTORE POP SWAP3 DUP3 MSTORE PUSH1 0x40 DUP6 ADD CALLDATALOAD DUP10 DUP4 ADD MSTORE PUSH1 0x60 DUP6 ADD CALLDATALOAD SWAP3 DUP5 DUP5 GT ISZERO PUSH2 0x2E59 JUMPI PUSH1 0x0 DUP1 REVERT JUMPDEST PUSH2 0x2E67 DUP15 DUP12 DUP7 DUP10 ADD ADD PUSH2 0x28C6 JUMP JUMPDEST PUSH1 0x40 DUP5 ADD MSTORE PUSH2 0x2E77 DUP2 DUP8 ADD PUSH2 0x2CFE JUMP JUMPDEST PUSH1 0x60 DUP5 ADD MSTORE PUSH1 0xA0 SWAP6 SWAP1 SWAP6 ADD CALLDATALOAD SWAP5 DUP3 ADD SWAP5 SWAP1 SWAP5 MSTORE DUP7 MSTORE POP POP POP SWAP2 DUP4 ADD SWAP2 DUP4 ADD PUSH2 0x2D51 JUMP JUMPDEST PUSH1 0x0 PUSH2 0x1A0 DUP3 DUP5 SUB SLT ISZERO PUSH2 0x2EAD JUMPI PUSH1 0x0 DUP1 REVERT JUMPDEST PUSH2 0x2EB5 PUSH2 0x2871 JUMP JUMPDEST SWAP1 POP DUP2 CALLDATALOAD DUP2 MSTORE PUSH1 0x20 DUP3 ADD CALLDATALOAD PUSH8 0xFFFFFFFFFFFFFFFF DUP1 DUP3 GT ISZERO PUSH2 0x2ED6 JUMPI PUSH1 0x0 DUP1 REVERT JUMPDEST PUSH2 0x2EE2 DUP6 DUP4 DUP7 ADD PUSH2 0x28C6 JUMP JUMPDEST PUSH1 0x20 DUP5 ADD MSTORE PUSH1 0x40 DUP5 ADD CALLDATALOAD SWAP2 POP DUP1 DUP3 GT ISZERO PUSH2 0x2EFB JUMPI PUSH1 0x0 DUP1 REVERT JUMPDEST PUSH2 0x2F07 DUP6 DUP4 DUP7 ADD PUSH2 0x28C6 JUMP JUMPDEST PUSH1 0x40 DUP5 ADD MSTORE PUSH1 0x60 DUP5 ADD CALLDATALOAD PUSH1 0x60 DUP5 ADD MSTORE PUSH1 0x80 DUP5 ADD CALLDATALOAD PUSH1 0x80 DUP5 ADD MSTORE PUSH1 0xA0 DUP5 ADD CALLDATALOAD PUSH1 0xA0 DUP5 ADD MSTORE PUSH1 0xC0 DUP5 ADD CALLDATALOAD SWAP2 POP DUP1 DUP3 GT ISZERO PUSH2 0x2F3E JUMPI PUSH1 0x0 DUP1 REVERT JUMPDEST PUSH2 0x2F4A DUP6 DUP4 DUP7 ADD PUSH2 0x2C83 JUMP JUMPDEST PUSH1 0xC0 DUP5 ADD MSTORE PUSH1 0xE0 DUP5 DUP2 ADD CALLDATALOAD SWAP1 DUP5 ADD MSTORE PUSH2 0x100 DUP1 DUP6 ADD CALLDATALOAD SWAP1 DUP5 ADD MSTORE PUSH2 0x120 SWAP2 POP PUSH2 0x2F74 DUP3 DUP6 ADD PUSH2 0x2CEE JUMP JUMPDEST DUP3 DUP5 ADD MSTORE PUSH2 0x140 SWAP2 POP PUSH2 0x2F88 DUP3 DUP6 ADD PUSH2 0x2CEE JUMP JUMPDEST DUP3 DUP5 ADD MSTORE PUSH2 0x160 SWAP2 POP DUP2 DUP5 ADD CALLDATALOAD DUP3 DUP5 ADD MSTORE PUSH2 0x180 SWAP2 POP DUP2 DUP5 ADD CALLDATALOAD DUP2 DUP2 GT ISZERO PUSH2 0x2FAF JUMPI PUSH1 0x0 DUP1 REVERT JUMPDEST PUSH2 0x2FBB DUP7 DUP3 DUP8 ADD PUSH2 0x2D0D JUMP JUMPDEST DUP4 DUP6 ADD MSTORE POP POP POP SWAP3 SWAP2 POP POP JUMP JUMPDEST PUSH1 0x0 DUP1 PUSH1 0x40 DUP4 DUP6 SUB SLT ISZERO PUSH2 0x2FDB JUMPI PUSH1 0x0 DUP1 REVERT JUMPDEST DUP3 CALLDATALOAD SWAP2 POP PUSH1 0x20 DUP4 ADD CALLDATALOAD PUSH8 0xFFFFFFFFFFFFFFFF DUP2 GT ISZERO PUSH2 0x2FF9 JUMPI PUSH1 0x0 DUP1 REVERT JUMPDEST PUSH2 0x3005 DUP6 DUP3 DUP7 ADD PUSH2 0x2E9A JUMP JUMPDEST SWAP2 POP POP SWAP3 POP SWAP3 SWAP1 POP JUMP JUMPDEST PUSH1 0x0 DUP1 PUSH1 0x0 PUSH1 0x60 DUP5 DUP7 SUB SLT ISZERO PUSH2 0x3024 JUMPI PUSH1 0x0 DUP1 REVERT JUMPDEST DUP4 CALLDATALOAD SWAP3 POP PUSH1 0x20 DUP5 ADD CALLDATALOAD SWAP2 POP PUSH2 0x303B PUSH1 0x40 DUP6 ADD PUSH2 0x2CFE JUMP JUMPDEST SWAP1 POP SWAP3 POP SWAP3 POP SWAP3 JUMP JUMPDEST PUSH1 0x0 DUP2 MLOAD DUP1 DUP5 MSTORE PUSH1 0x20 DUP1 DUP6 ADD SWAP5 POP DUP1 DUP5 ADD PUSH1 0x0 JUMPDEST DUP4 DUP2 LT ISZERO PUSH2 0x3074 JUMPI DUP2 MLOAD DUP8 MSTORE SWAP6 DUP3 ADD SWAP6 SWAP1 DUP3 ADD SWAP1 PUSH1 0x1 ADD PUSH2 0x3058 JUMP JUMPDEST POP SWAP5 SWAP6 SWAP5 POP POP POP POP POP JUMP JUMPDEST PUSH1 0x0 DUP2 MLOAD DUP1 DUP5 MSTORE PUSH1 0x20 DUP1 DUP6 ADD DUP1 DUP2 SWAP7 POP DUP4 PUSH1 0x5 SHL DUP2 ADD SWAP2 POP DUP3 DUP7 ADD PUSH1 0x0 JUMPDEST DUP6 DUP2 LT ISZERO PUSH2 0x3199 JUMPI DUP3 DUP5 SUB DUP10 MSTORE DUP2 MLOAD PUSH1 0xA0 DUP2 MLOAD DUP2 DUP8 MSTORE DUP1 MLOAD PUSH1 0xE0 DUP1 DUP5 DUP11 ADD MSTORE PUSH2 0x30CA PUSH2 0x180 DUP11 ADD DUP4 PUSH2 0x29B0 JUMP JUMPDEST SWAP2 POP DUP10 DUP4 ADD MLOAD PUSH1 0xC0 DUP2 DUP2 DUP13 ADD MSTORE PUSH1 0x40 SWAP2 POP DUP2 DUP6 ADD MLOAD DUP4 DUP13 ADD MSTORE PUSH1 0x60 SWAP3 POP DUP3 DUP6 ADD MLOAD PUSH2 0x100 DUP13 ADD MSTORE PUSH1 0x80 DUP1 DUP7 ADD MLOAD PUSH2 0x120 DUP14 ADD MSTORE DUP7 DUP7 ADD MLOAD PUSH2 0x140 DUP14 ADD MSTORE DUP2 DUP7 ADD MLOAD SWAP7 POP PUSH32 0xFFFFFFFFFFFFFFFFFFFFFFFFFFFFFFFFFFFFFFFFFFFFFFFFFFFFFFFFFFFFFF60 DUP13 DUP7 SUB ADD PUSH2 0x160 DUP14 ADD MSTORE PUSH2 0x3142 DUP6 DUP9 PUSH2 0x29B0 JUMP JUMPDEST SWAP7 POP DUP13 DUP9 ADD MLOAD DUP14 DUP14 ADD MSTORE DUP3 DUP9 ADD MLOAD SWAP6 POP DUP12 DUP8 SUB DUP4 DUP14 ADD MSTORE PUSH2 0x3163 DUP8 DUP8 PUSH2 0x29B0 JUMP JUMPDEST SWAP7 POP DUP4 DUP9 ADD MLOAD SWAP6 POP PUSH2 0x3177 DUP5 DUP14 ADD DUP8 PUSH2 0x2A25 JUMP JUMPDEST SWAP7 DUP8 ADD MLOAD SWAP11 SWAP1 SWAP7 ADD SWAP10 SWAP1 SWAP10 MSTORE POP POP POP SWAP10 DUP7 ADD SWAP10 SWAP5 POP POP SWAP1 DUP5 ADD SWAP1 PUSH1 0x1 ADD PUSH2 0x309D JUMP JUMPDEST POP SWAP2 SWAP8 SWAP7 POP POP POP POP POP POP POP JUMP JUMPDEST PUSH1 0x0 DUP2 MLOAD DUP1 DUP5 MSTORE PUSH1 0x20 DUP1 DUP6 ADD SWAP5 POP DUP1 DUP5 ADD PUSH1 0x0 JUMPDEST DUP4 DUP2 LT ISZERO PUSH2 0x3074 JUMPI DUP2 MLOAD PUSH1 0x1 PUSH1 0x1 PUSH1 0xA0 SHL SUB AND DUP8 MSTORE SWAP6 DUP3 ADD SWAP6 SWAP1 DUP3 ADD SWAP1 PUSH1 0x1 ADD PUSH2 0x31BA JUMP JUMPDEST PUSH1 0x8 DUP2 LT PUSH2 0x2A35 JUMPI PUSH2 0x2A35 PUSH2 0x29F6 JUMP JUMPDEST PUSH1 0x20 DUP2 MSTORE PUSH2 0x3209 PUSH1 0x20 DUP3 ADD DUP4 MLOAD PUSH1 0x1 PUSH1 0x1 PUSH1 0xA0 SHL SUB AND SWAP1 MSTORE JUMP JUMPDEST PUSH1 0x20 DUP3 ADD MLOAD PUSH1 0x40 DUP3 ADD MSTORE PUSH1 0x0 PUSH1 0x40 DUP4 ADD MLOAD PUSH2 0x2E0 DUP1 PUSH1 0x60 DUP6 ADD MSTORE PUSH2 0x3231 PUSH2 0x300 DUP6 ADD DUP4 PUSH2 0x29B0 JUMP JUMPDEST SWAP2 POP PUSH1 0x60 DUP6 ADD MLOAD PUSH1 0x1F NOT DUP1 DUP7 DUP6 SUB ADD PUSH1 0x80 DUP8 ADD MSTORE PUSH2 0x324F DUP5 DUP4 PUSH2 0x29B0 JUMP JUMPDEST SWAP4 POP PUSH1 0x80 DUP8 ADD MLOAD PUSH1 0xA0 DUP8 ADD MSTORE PUSH1 0xA0 DUP8 ADD MLOAD PUSH1 0xC0 DUP8 ADD MSTORE PUSH1 0xC0 DUP8 ADD MLOAD PUSH1 0xE0 DUP8 ADD MSTORE PUSH1 0xE0 DUP8 ADD MLOAD SWAP2 POP PUSH2 0x100 DUP2 DUP8 DUP7 SUB ADD DUP2 DUP9 ADD MSTORE PUSH2 0x328C DUP6 DUP5 PUSH2 0x3044 JUMP JUMPDEST SWAP1 DUP9 ADD MLOAD PUSH2 0x120 DUP9 DUP2 ADD SWAP2 SWAP1 SWAP2 MSTORE DUP9 ADD MLOAD PUSH2 0x140 DUP1 DUP10 ADD SWAP2 SWAP1 SWAP2 MSTORE DUP9 ADD MLOAD SWAP1 SWAP5 POP SWAP2 POP PUSH2 0x160 PUSH2 0x32BF DUP2 DUP9 ADD DUP5 ISZERO ISZERO SWAP1 MSTORE JUMP JUMPDEST DUP8 ADD MLOAD SWAP2 POP PUSH2 0x180 PUSH2 0x32D4 DUP8 DUP3 ADD DUP5 ISZERO ISZERO SWAP1 MSTORE JUMP JUMPDEST DUP1 DUP9 ADD MLOAD SWAP3 POP POP PUSH2 0x1A0 DUP3 DUP2 DUP9 ADD MSTORE DUP1 DUP9 ADD MLOAD SWAP3 POP POP PUSH2 0x1C0 DUP2 DUP8 DUP7 SUB ADD DUP2 DUP9 ADD MSTORE PUSH2 0x3300 DUP6 DUP5 PUSH2 0x307F JUMP JUMPDEST SWAP5 POP DUP1 DUP9 ADD MLOAD SWAP3 POP POP PUSH2 0x1E0 DUP2 DUP8 DUP7 SUB ADD DUP2 DUP9 ADD MSTORE PUSH2 0x331F DUP6 DUP5 PUSH2 0x31A6 JUMP JUMPDEST SWAP5 POP DUP1 DUP9 ADD MLOAD SWAP3 POP POP PUSH2 0x200 DUP2 DUP8 DUP7 SUB ADD DUP2 DUP9 ADD MSTORE PUSH2 0x333E DUP6 DUP5 PUSH2 0x31A6 JUMP JUMPDEST SWAP1 DUP9 ADD MLOAD PUSH2 0x220 DUP9 DUP2 ADD SWAP2 SWAP1 SWAP2 MSTORE DUP9 ADD MLOAD PUSH2 0x240 DUP1 DUP10 ADD SWAP2 SWAP1 SWAP2 MSTORE DUP9 ADD MLOAD PUSH2 0x260 DUP1 DUP10 ADD SWAP2 SWAP1 SWAP2 MSTORE DUP9 ADD MLOAD PUSH2 0x280 DUP1 DUP10 ADD SWAP2 SWAP1 SWAP2 MSTORE DUP9 ADD MLOAD SWAP1 SWAP5 POP SWAP2 POP PUSH2 0x2A0 SWAP1 POP PUSH2 0x338D DUP2 DUP8 ADD DUP4 ISZERO ISZERO SWAP1 MSTORE JUMP JUMPDEST DUP7 ADD MLOAD SWAP1 POP PUSH2 0x2C0 PUSH2 0x33A2 DUP7 DUP3 ADD DUP4 ISZERO ISZERO SWAP1 MSTORE JUMP JUMPDEST DUP7 ADD MLOAD SWAP1 POP PUSH2 0x33B3 DUP6 DUP4 ADD DUP3 PUSH2 0x31DF JUMP JUMPDEST POP SWAP1 SWAP5 SWAP4 POP POP POP POP JUMP JUMPDEST PUSH1 0x0 DUP1 PUSH1 0x0 PUSH1 0x60 DUP5 DUP7 SUB SLT ISZERO PUSH2 0x33D2 JUMPI PUSH1 0x0 DUP1 REVERT JUMPDEST DUP4 CALLDATALOAD SWAP3 POP PUSH2 0x33E2 PUSH1 0x20 DUP6 ADD PUSH2 0x27DA JUMP JUMPDEST SWAP2 POP PUSH1 0x40 DUP5 ADD CALLDATALOAD SWAP1 POP SWAP3 POP SWAP3 POP SWAP3 JUMP JUMPDEST PUSH1 0x5 DUP2 LT PUSH2 0x2A35 JUMPI PUSH2 0x2A35 PUSH2 0x29F6 JUMP JUMPDEST PUSH1 0x0 PUSH1 0x20 DUP1 DUP4 MSTORE PUSH1 0x1 PUSH1 0x1 PUSH1 0xA0 SHL SUB DUP5 MLOAD AND DUP2 DUP5 ADD MSTORE DUP1 DUP5 ADD MLOAD PUSH1 0x40 PUSH1 0x60 DUP2 DUP7 ADD MSTORE PUSH2 0x3431 PUSH1 0x80 DUP7 ADD DUP4 PUSH2 0x3044 JUMP JUMPDEST SWAP2 POP DUP1 DUP7 ADD MLOAD PUSH1 0x1F NOT DUP1 DUP8 DUP6 SUB ADD PUSH1 0x60 DUP9 ADD MSTORE DUP4 DUP3 MLOAD DUP1 DUP7 MSTORE DUP7 DUP7 ADD SWAP2 POP DUP7 DUP2 PUSH1 0x5 SHL DUP8 ADD ADD DUP8 DUP6 ADD SWAP5 POP PUSH1 0x0 JUMPDEST DUP3 DUP2 LT ISZERO PUSH2 0x34A3 JUMPI DUP5 DUP9 DUP4 SUB ADD DUP5 MSTORE DUP6 MLOAD PUSH2 0x347B DUP4 DUP3 MLOAD PUSH2 0x33F2 JUMP JUMPDEST DUP10 ADD MLOAD DUP3 DUP11 ADD DUP9 SWAP1 MSTORE PUSH2 0x3490 DUP4 DUP10 ADD DUP3 PUSH2 0x29B0 JUMP JUMPDEST SWAP7 DUP11 ADD SWAP7 SWAP5 DUP11 ADD SWAP5 SWAP3 POP POP PUSH1 0x1 ADD PUSH2 0x345F JUMP JUMPDEST POP SWAP11 SWAP10 POP POP POP POP POP POP POP POP POP POP JUMP JUMPDEST PUSH1 0x0 DUP1 PUSH1 0x40 DUP4 DUP6 SUB SLT ISZERO PUSH2 0x34C5 JUMPI PUSH1 0x0 DUP1 REVERT JUMPDEST DUP3 CALLDATALOAD SWAP2 POP PUSH2 0x2C0A PUSH1 0x20 DUP5 ADD PUSH2 0x2CEE JUMP JUMPDEST PUSH1 0x0 PUSH1 0x20 DUP3 DUP5 SUB SLT ISZERO PUSH2 0x34E7 JUMPI PUSH1 0x0 DUP1 REVERT JUMPDEST DUP2 CALLDATALOAD PUSH8 0xFFFFFFFFFFFFFFFF DUP2 GT ISZERO PUSH2 0x34FE JUMPI PUSH1 0x0 DUP1 REVERT JUMPDEST PUSH2 0x350A DUP5 DUP3 DUP6 ADD PUSH2 0x2E9A JUMP JUMPDEST SWAP5 SWAP4 POP POP POP POP JUMP JUMPDEST PUSH1 0x0 DUP1 PUSH1 0x0 PUSH1 0x60 DUP5 DUP7 SUB SLT ISZERO PUSH2 0x3527 JUMPI PUSH1 0x0 DUP1 REVERT JUMPDEST DUP4 CALLDATALOAD SWAP3 POP PUSH2 0x3537 PUSH1 0x20 DUP6 ADD PUSH2 0x27DA JUMP JUMPDEST SWAP2 POP PUSH2 0x303B PUSH1 0x40 DUP6 ADD PUSH2 0x2CEE JUMP JUMPDEST PUSH1 0x40 DUP2 MSTORE PUSH1 0x0 PUSH2 0x3558 PUSH1 0x40 DUP4 ADD DUP6 PUSH2 0x3044 JUMP JUMPDEST SWAP1 POP DUP3 PUSH1 0x20 DUP4 ADD MSTORE SWAP4 SWAP3 POP POP POP JUMP JUMPDEST PUSH1 0x20 DUP2 MSTORE PUSH1 0x0 PUSH2 0x357A PUSH1 0x20 DUP4 ADD DUP5 PUSH2 0x31A6 JUMP JUMPDEST SWAP4 SWAP3 POP POP POP JUMP JUMPDEST PUSH1 0x0 DUP1 PUSH1 0x40 DUP4 DUP6 SUB SLT ISZERO PUSH2 0x3594 JUMPI PUSH1 0x0 DUP1 REVERT JUMPDEST POP POP DUP1 CALLDATALOAD SWAP3 PUSH1 0x20 SWAP1 SWAP2 ADD CALLDATALOAD SWAP2 POP JUMP JUMPDEST PUSH1 0x20 DUP2 ADD PUSH2 0xC9E DUP3 DUP5 PUSH2 0x2A25 JUMP JUMPDEST PUSH1 0x0 PUSH1 0x20 DUP3 DUP5 SUB SLT ISZERO PUSH2 0x35C3 JUMPI PUSH1 0x0 DUP1 REVERT JUMPDEST PUSH2 0x357A DUP3 PUSH2 0x27DA JUMP JUMPDEST PUSH1 0x20 DUP2 ADD PUSH2 0xC9E DUP3 DUP5 PUSH2 0x31DF JUMP JUMPDEST PUSH32 0x4E487B7100000000000000000000000000000000000000000000000000000000 PUSH1 0x0 MSTORE PUSH1 0x32 PUSH1 0x4 MSTORE PUSH1 0x24 PUSH1 0x0 REVERT JUMPDEST PUSH1 0x1 DUP2 DUP2 SHR SWAP1 DUP3 AND DUP1 PUSH2 0x361D JUMPI PUSH1 0x7F DUP3 AND SWAP2 POP JUMPDEST PUSH1 0x20 DUP3 LT DUP2 SUB PUSH2 0x3656 JUMPI PUSH32 0x4E487B7100000000000000000000000000000000000000000000000000000000 PUSH1 0x0 MSTORE PUSH1 0x22 PUSH1 0x4 MSTORE PUSH1 0x24 PUSH1 0x0 REVERT JUMPDEST POP SWAP2 SWAP1 POP JUMP JUMPDEST PUSH1 0x1F DUP3 GT ISZERO PUSH2 0x36A6 JUMPI PUSH1 0x0 DUP2 DUP2 MSTORE PUSH1 0x20 DUP2 KECCAK256 PUSH1 0x1F DUP6 ADD PUSH1 0x5 SHR DUP2 ADD PUSH1 0x20 DUP7 LT ISZERO PUSH2 0x3683 JUMPI POP DUP1 JUMPDEST PUSH1 0x1F DUP6 ADD PUSH1 0x5 SHR DUP3 ADD SWAP2 POP JUMPDEST DUP2 DUP2 LT ISZERO PUSH2 0x36A2 JUMPI DUP3 DUP2 SSTORE PUSH1 0x1 ADD PUSH2 0x368F JUMP JUMPDEST POP POP POP JUMPDEST POP POP POP JUMP JUMPDEST DUP2 MLOAD PUSH8 0xFFFFFFFFFFFFFFFF DUP2 GT ISZERO PUSH2 0x36C5 JUMPI PUSH2 0x36C5 PUSH2 0x27F6 JUMP JUMPDEST PUSH2 0x36D9 DUP2 PUSH2 0x36D3 DUP5 SLOAD PUSH2 0x3609 JUMP JUMPDEST DUP5 PUSH2 0x365C JUMP JUMPDEST PUSH1 0x20 DUP1 PUSH1 0x1F DUP4 GT PUSH1 0x1 DUP2 EQ PUSH2 0x372C JUMPI PUSH1 0x0 DUP5 ISZERO PUSH2 0x36F6 JUMPI POP DUP6 DUP4 ADD MLOAD JUMPDEST PUSH32 0xFFFFFFFFFFFFFFFFFFFFFFFFFFFFFFFFFFFFFFFFFFFFFFFFFFFFFFFFFFFFFFFF PUSH1 0x3 DUP7 SWAP1 SHL SHR NOT AND PUSH1 0x1 DUP6 SWAP1 SHL OR DUP6 SSTORE PUSH2 0x36A2 JUMP JUMPDEST PUSH1 0x0 DUP6 DUP2 MSTORE PUSH1 0x20 DUP2 KECCAK256 PUSH1 0x1F NOT DUP7 AND SWAP2 JUMPDEST DUP3 DUP2 LT ISZERO PUSH2 0x375B JUMPI DUP9 DUP7 ADD MLOAD DUP3 SSTORE SWAP5 DUP5 ADD SWAP5 PUSH1 0x1 SWAP1 SWAP2 ADD SWAP1 DUP5 ADD PUSH2 0x373C JUMP JUMPDEST POP DUP6 DUP3 LT ISZERO PUSH2 0x3797 JUMPI DUP8 DUP6 ADD MLOAD PUSH32 0xFFFFFFFFFFFFFFFFFFFFFFFFFFFFFFFFFFFFFFFFFFFFFFFFFFFFFFFFFFFFFFFF PUSH1 0x3 DUP9 SWAP1 SHL PUSH1 0xF8 AND SHR NOT AND DUP2 SSTORE JUMPDEST POP POP POP POP POP PUSH1 0x1 SWAP1 DUP2 SHL ADD SWAP1 SSTORE POP JUMP JUMPDEST DUP7 DUP2 MSTORE DUP6 PUSH1 0x20 DUP3 ADD MSTORE DUP5 PUSH1 0x40 DUP3 ADD MSTORE PUSH1 0xC0 PUSH1 0x60 DUP3 ADD MSTORE PUSH1 0x0 PUSH2 0x37CC PUSH1 0xC0 DUP4 ADD DUP7 PUSH2 0x29B0 JUMP JUMPDEST PUSH1 0x1 PUSH1 0x1 PUSH1 0xA0 SHL SUB SWAP5 SWAP1 SWAP5 AND PUSH1 0x80 DUP4 ADD MSTORE POP SWAP1 ISZERO ISZERO PUSH1 0xA0 SWAP1 SWAP2 ADD MSTORE SWAP5 SWAP4 POP POP POP POP JUMP JUMPDEST PUSH32 0x4E487B7100000000000000000000000000000000000000000000000000000000 PUSH1 0x0 MSTORE PUSH1 0x11 PUSH1 0x4 MSTORE PUSH1 0x24 PUSH1 0x0 REVERT JUMPDEST DUP1 DUP3 ADD DUP1 DUP3 GT ISZERO PUSH2 0xC9E JUMPI PUSH2 0xC9E PUSH2 0x37EF JUMP JUMPDEST DUP4 DUP2 MSTORE PUSH1 0x60 DUP2 ADD PUSH2 0x3845 PUSH1 0x20 DUP4 ADD DUP6 PUSH2 0x31DF JUMP JUMPDEST PUSH1 0x1 PUSH1 0x1 PUSH1 0xA0 SHL SUB DUP4 AND PUSH1 0x40 DUP4 ADD MSTORE SWAP5 SWAP4 POP POP POP POP JUMP JUMPDEST DUP7 DUP2 MSTORE PUSH1 0x1 PUSH1 0x1 PUSH1 0xA0 SHL SUB DUP7 DUP2 AND PUSH1 0x20 DUP4 ADD MSTORE PUSH1 0x40 DUP3 ADD DUP7 SWAP1 MSTORE PUSH1 0xC0 DUP3 ADD SWAP1 PUSH2 0x3888 PUSH1 0x60 DUP5 ADD DUP8 PUSH2 0x33F2 JUMP JUMPDEST DUP5 ISZERO ISZERO PUSH1 0x80 DUP5 ADD MSTORE DUP1 DUP5 AND PUSH1 0xA0 DUP5 ADD MSTORE POP SWAP8 SWAP7 POP POP POP POP POP POP POP JUMP JUMPDEST PUSH1 0x0 PUSH32 0xFFFFFFFFFFFFFFFFFFFFFFFFFFFFFFFFFFFFFFFFFFFFFFFFFFFFFFFFFFFFFFFF DUP3 SUB PUSH2 0x38D5 JUMPI PUSH2 0x38D5 PUSH2 0x37EF JUMP JUMPDEST POP PUSH1 0x1 ADD SWAP1 JUMP JUMPDEST DUP5 DUP2 MSTORE PUSH1 0x20 DUP2 ADD DUP5 SWAP1 MSTORE PUSH1 0x80 DUP2 ADD PUSH2 0x38F7 PUSH1 0x40 DUP4 ADD DUP6 PUSH2 0x2A25 JUMP JUMPDEST PUSH1 0x1 PUSH1 0x1 PUSH1 0xA0 SHL SUB DUP4 AND PUSH1 0x60 DUP4 ADD MSTORE SWAP6 SWAP5 POP POP POP POP POP JUMP JUMPDEST DUP2 DUP2 SUB DUP2 DUP2 GT ISZERO PUSH2 0xC9E JUMPI PUSH2 0xC9E PUSH2 0x37EF JUMP INVALID LOG2 PUSH5 0x6970667358 0x22 SLT KECCAK256 EXTCODECOPY RETURNDATASIZE 0xBB LOG4 0xFC PUSH1 0xAD DUP15 0xEB 0xBC DUP11 0xE7 SWAP9 0x1F SGT 0x2C DUP9 0xBF 0xBE SWAP14 PUSH20 0x420A43591322C8E916F30564736F6C6343000811 STOP CALLER "
				},
				"gasEstimates": {
					"creation": {
						"codeDepositCost": "2936000",
						"executionCost": "3216",
						"totalCost": "2939216"
					},
					"external": {
						"addCount()": "24536",
						"addPay(address,uint256)": "24786",
						"addProject((uint256,string,string,uint256,uint256,uint256,uint256[],uint256,uint256,bool,bool,uint256,((string,uint256,uint256,uint256,uint256,uint256,string),uint256,string,uint8,uint256)[]))": "infinite",
						"addTransNumber(uint256)": "24649",
						"addTranslators(uint256,address)": "48983",
						"addVf(uint256,address)": "49025",
						"addVfNumber(uint256)": "24648",
						"changeFileState(uint256,uint256,uint8)": "28988",
						"changeProjectState(uint256,uint8)": "26447",
						"changeTaskTransState(uint256,address,uint256,uint8)": "27580",
						"changeTaskVfState(uint256,address,uint256,uint8)": "27600",
						"changeTransActive(uint256,bool)": "26329",
						"changeVerActive(uint256,bool)": "26387",
						"deductPay(address,uint256)": "24829",
						"getAcceptTransNumber(uint256,address)": "2768",
						"getAcceptVfNumber(uint256,address)": "2709",
						"getBuyer(uint256)": "2548",
						"getCount()": "2382",
						"getFileBounty(uint256,uint256)": "4760",
						"getFileState(uint256,uint256)": "4854",
						"getFiles(uint256)": "infinite",
						"getPay(address)": "2648",
						"getProjectOne(uint256)": "infinite",
						"getTaskBounty(uint256)": "2516",
						"getTaskState(uint256)": "2655",
						"getTaskStateTrans(uint256)": "2526",
						"getTaskStateVf(uint256)": "2560",
						"getTransNumber(uint256)": "2536",
						"getTransTaskInfo(uint256,address)": "infinite",
						"getTranslatorsList(uint256)": "infinite",
						"getVfList(uint256)": "infinite",
						"getVfNumber(uint256)": "2535",
						"getVfTaskInfo(uint256,address)": "infinite",
						"isCustomizeState(uint256)": "2560",
						"isFull(uint256,bool)": "4793",
						"overTimeTasker(uint256,address,bool)": "infinite",
						"pushTaskTransIndex(uint256,address,uint256)": "46985",
						"pushTaskVfIndex(uint256,address,uint256)": "46941",
						"submitFileByTrans(uint256,address,uint256,string)": "infinite",
						"submitFileByVf(uint256,address,uint256,string)": "infinite",
						"updateProject(uint256,(uint256,string,string,uint256,uint256,uint256,uint256[],uint256,uint256,bool,bool,uint256,((string,uint256,uint256,uint256,uint256,uint256,string),uint256,string,uint8,uint256)[]))": "infinite"
					}
				},
				"methodIdentifiers": {
					"addCount()": "6cefce6e",
					"addPay(address,uint256)": "172372c2",
					"addProject((uint256,string,string,uint256,uint256,uint256,uint256[],uint256,uint256,bool,bool,uint256,((string,uint256,uint256,uint256,uint256,uint256,string),uint256,string,uint8,uint256)[]))": "752458c5",
					"addTransNumber(uint256)": "429edaa2",
					"addTranslators(uint256,address)": "31d396ce",
					"addVf(uint256,address)": "992d60f3",
					"addVfNumber(uint256)": "ca74a589",
					"changeFileState(uint256,uint256,uint8)": "1fa2bf4c",
					"changeProjectState(uint256,uint8)": "17e925d7",
					"changeTaskTransState(uint256,address,uint256,uint8)": "19f17088",
					"changeTaskVfState(uint256,address,uint256,uint8)": "6c431904",
					"changeTransActive(uint256,bool)": "63e3ccad",
					"changeVerActive(uint256,bool)": "c061bb82",
					"deductPay(address,uint256)": "57840da6",
					"getAcceptTransNumber(uint256,address)": "193620e7",
					"getAcceptVfNumber(uint256,address)": "790485f9",
					"getBuyer(uint256)": "5bf608b8",
					"getCount()": "a87d942c",
					"getFileBounty(uint256,uint256)": "e1ca7ca7",
					"getFileState(uint256,uint256)": "ad607c72",
					"getFiles(uint256)": "12506f4d",
					"getPay(address)": "d3d7bc3b",
					"getProjectOne(uint256)": "25e78e70",
					"getTaskBounty(uint256)": "6e973982",
					"getTaskState(uint256)": "ffcce776",
					"getTaskStateTrans(uint256)": "9722f099",
					"getTaskStateVf(uint256)": "546677aa",
					"getTransNumber(uint256)": "d2fed69c",
					"getTransTaskInfo(uint256,address)": "5fed5eb2",
					"getTranslatorsList(uint256)": "983a12a8",
					"getVfList(uint256)": "b647eec3",
					"getVfNumber(uint256)": "f8626ebb",
					"getVfTaskInfo(uint256,address)": "7c35beb7",
					"isCustomizeState(uint256)": "7c34eb85",
					"isFull(uint256,bool)": "8a9a9ff3",
					"overTimeTasker(uint256,address,bool)": "8b3f3a6f",
					"pushTaskTransIndex(uint256,address,uint256)": "271ff03f",
					"pushTaskVfIndex(uint256,address,uint256)": "a1e047f3",
					"submitFileByTrans(uint256,address,uint256,string)": "33e68dcd",
					"submitFileByVf(uint256,address,uint256,string)": "05c3f9c9",
					"updateProject(uint256,(uint256,string,string,uint256,uint256,uint256,uint256[],uint256,uint256,bool,bool,uint256,((string,uint256,uint256,uint256,uint256,uint256,string),uint256,string,uint8,uint256)[]))": "1af5fa16"
				}
			},
			"storageLayout": {
				"storage": [
					{
						"astId": 8,
						"contract": "AmphiTrans.sol:AmphiTrans",
						"label": "taskList",
						"offset": 0,
						"slot": "0",
						"type": "t_mapping(t_uint256,t_struct(TranslationPro)1611_storage)"
					},
					{
						"astId": 12,
						"contract": "AmphiTrans.sol:AmphiTrans",
						"label": "payList",
						"offset": 0,
						"slot": "1",
						"type": "t_mapping(t_address,t_uint256)"
					},
					{
						"astId": 19,
						"contract": "AmphiTrans.sol:AmphiTrans",
						"label": "transInfo",
						"offset": 0,
						"slot": "2",
						"type": "t_mapping(t_uint256,t_mapping(t_address,t_struct(Tasker)1529_storage))"
					},
					{
						"astId": 26,
						"contract": "AmphiTrans.sol:AmphiTrans",
						"label": "vfInfo",
						"offset": 0,
						"slot": "3",
						"type": "t_mapping(t_uint256,t_mapping(t_address,t_struct(Tasker)1529_storage))"
					},
					{
						"astId": 28,
						"contract": "AmphiTrans.sol:AmphiTrans",
						"label": "count",
						"offset": 0,
						"slot": "4",
						"type": "t_uint256"
					}
				],
				"types": {
					"t_address": {
						"encoding": "inplace",
						"label": "address",
						"numberOfBytes": "20"
					},
					"t_array(t_address)dyn_storage": {
						"base": "t_address",
						"encoding": "dynamic_array",
						"label": "address[]",
						"numberOfBytes": "32"
					},
					"t_array(t_struct(TaskInfo)1542_storage)dyn_storage": {
						"base": "t_struct(TaskInfo)1542_storage",
						"encoding": "dynamic_array",
						"label": "struct LibProject.TaskInfo[]",
						"numberOfBytes": "32"
					},
					"t_array(t_uint256)dyn_storage": {
						"base": "t_uint256",
						"encoding": "dynamic_array",
						"label": "uint256[]",
						"numberOfBytes": "32"
					},
					"t_bool": {
						"encoding": "inplace",
						"label": "bool",
						"numberOfBytes": "1"
					},
					"t_enum(FileState)1505": {
						"encoding": "inplace",
						"label": "enum LibProject.FileState",
						"numberOfBytes": "1"
					},
					"t_enum(ProjectState)1486": {
						"encoding": "inplace",
						"label": "enum LibProject.ProjectState",
						"numberOfBytes": "1"
					},
					"t_enum(TaskerState)1492": {
						"encoding": "inplace",
						"label": "enum LibProject.TaskerState",
						"numberOfBytes": "1"
					},
					"t_mapping(t_address,t_struct(Tasker)1529_storage)": {
						"encoding": "mapping",
						"key": "t_address",
						"label": "mapping(address => struct LibProject.Tasker)",
						"numberOfBytes": "32",
						"value": "t_struct(Tasker)1529_storage"
					},
					"t_mapping(t_address,t_uint256)": {
						"encoding": "mapping",
						"key": "t_address",
						"label": "mapping(address => uint256)",
						"numberOfBytes": "32",
						"value": "t_uint256"
					},
					"t_mapping(t_uint256,t_mapping(t_address,t_struct(Tasker)1529_storage))": {
						"encoding": "mapping",
						"key": "t_uint256",
						"label": "mapping(uint256 => mapping(address => struct LibProject.Tasker))",
						"numberOfBytes": "32",
						"value": "t_mapping(t_address,t_struct(Tasker)1529_storage)"
					},
					"t_mapping(t_uint256,t_struct(FileIndexInfo)1548_storage)": {
						"encoding": "mapping",
						"key": "t_uint256",
						"label": "mapping(uint256 => struct LibProject.FileIndexInfo)",
						"numberOfBytes": "32",
						"value": "t_struct(FileIndexInfo)1548_storage"
					},
					"t_mapping(t_uint256,t_struct(TranslationPro)1611_storage)": {
						"encoding": "mapping",
						"key": "t_uint256",
						"label": "mapping(uint256 => struct LibProject.TranslationPro)",
						"numberOfBytes": "32",
						"value": "t_struct(TranslationPro)1611_storage"
					},
					"t_string_storage": {
						"encoding": "bytes",
						"label": "string",
						"numberOfBytes": "32"
					},
					"t_struct(FileIndexInfo)1548_storage": {
						"encoding": "inplace",
						"label": "struct LibProject.FileIndexInfo",
						"members": [
							{
								"astId": 1545,
								"contract": "AmphiTrans.sol:AmphiTrans",
								"label": "state",
								"offset": 0,
								"slot": "0",
								"type": "t_enum(TaskerState)1492"
							},
							{
								"astId": 1547,
								"contract": "AmphiTrans.sol:AmphiTrans",
								"label": "file",
								"offset": 0,
								"slot": "1",
								"type": "t_string_storage"
							}
						],
						"numberOfBytes": "64"
					},
					"t_struct(FileInfo)1520_storage": {
						"encoding": "inplace",
						"label": "struct LibProject.FileInfo",
						"members": [
							{
								"astId": 1507,
								"contract": "AmphiTrans.sol:AmphiTrans",
								"label": "name",
								"offset": 0,
								"slot": "0",
								"type": "t_string_storage"
							},
							{
								"astId": 1509,
								"contract": "AmphiTrans.sol:AmphiTrans",
								"label": "size",
								"offset": 0,
								"slot": "1",
								"type": "t_uint256"
							},
							{
								"astId": 1511,
								"contract": "AmphiTrans.sol:AmphiTrans",
								"label": "videoLength",
								"offset": 0,
								"slot": "2",
								"type": "t_uint256"
							},
							{
								"astId": 1513,
								"contract": "AmphiTrans.sol:AmphiTrans",
								"label": "Page",
								"offset": 0,
								"slot": "3",
								"type": "t_uint256"
							},
							{
								"astId": 1515,
								"contract": "AmphiTrans.sol:AmphiTrans",
								"label": "words",
								"offset": 0,
								"slot": "4",
								"type": "t_uint256"
							},
							{
								"astId": 1517,
								"contract": "AmphiTrans.sol:AmphiTrans",
								"label": "fileType",
								"offset": 0,
								"slot": "5",
								"type": "t_uint256"
							},
							{
								"astId": 1519,
								"contract": "AmphiTrans.sol:AmphiTrans",
								"label": "path",
								"offset": 0,
								"slot": "6",
								"type": "t_string_storage"
							}
						],
						"numberOfBytes": "224"
					},
					"t_struct(TaskInfo)1542_storage": {
						"encoding": "inplace",
						"label": "struct LibProject.TaskInfo",
						"members": [
							{
								"astId": 1532,
								"contract": "AmphiTrans.sol:AmphiTrans",
								"label": "file",
								"offset": 0,
								"slot": "0",
								"type": "t_struct(FileInfo)1520_storage"
							},
							{
								"astId": 1534,
								"contract": "AmphiTrans.sol:AmphiTrans",
								"label": "bounty",
								"offset": 0,
								"slot": "7",
								"type": "t_uint256"
							},
							{
								"astId": 1536,
								"contract": "AmphiTrans.sol:AmphiTrans",
								"label": "info",
								"offset": 0,
								"slot": "8",
								"type": "t_string_storage"
							},
							{
								"astId": 1539,
								"contract": "AmphiTrans.sol:AmphiTrans",
								"label": "state",
								"offset": 0,
								"slot": "9",
								"type": "t_enum(FileState)1505"
							},
							{
								"astId": 1541,
								"contract": "AmphiTrans.sol:AmphiTrans",
								"label": "lastUpload",
								"offset": 0,
								"slot": "10",
								"type": "t_uint256"
							}
						],
						"numberOfBytes": "352"
					},
					"t_struct(Tasker)1529_storage": {
						"encoding": "inplace",
						"label": "struct LibProject.Tasker",
						"members": [
							{
								"astId": 1523,
								"contract": "AmphiTrans.sol:AmphiTrans",
								"label": "taskIndex",
								"offset": 0,
								"slot": "0",
								"type": "t_array(t_uint256)dyn_storage"
							},
							{
								"astId": 1528,
								"contract": "AmphiTrans.sol:AmphiTrans",
								"label": "info",
								"offset": 0,
								"slot": "1",
								"type": "t_mapping(t_uint256,t_struct(FileIndexInfo)1548_storage)"
							}
						],
						"numberOfBytes": "64"
					},
					"t_struct(TranslationPro)1611_storage": {
						"encoding": "inplace",
						"label": "struct LibProject.TranslationPro",
						"members": [
							{
								"astId": 1560,
								"contract": "AmphiTrans.sol:AmphiTrans",
								"label": "buyer",
								"offset": 0,
								"slot": "0",
								"type": "t_address"
							},
							{
								"astId": 1562,
								"contract": "AmphiTrans.sol:AmphiTrans",
								"label": "releaseTime",
								"offset": 0,
								"slot": "1",
								"type": "t_uint256"
							},
							{
								"astId": 1564,
								"contract": "AmphiTrans.sol:AmphiTrans",
								"label": "introduce",
								"offset": 0,
								"slot": "2",
								"type": "t_string_storage"
							},
							{
								"astId": 1566,
								"contract": "AmphiTrans.sol:AmphiTrans",
								"label": "need",
								"offset": 0,
								"slot": "3",
								"type": "t_string_storage"
							},
							{
								"astId": 1568,
								"contract": "AmphiTrans.sol:AmphiTrans",
								"label": "deadline",
								"offset": 0,
								"slot": "4",
								"type": "t_uint256"
							},
							{
								"astId": 1570,
								"contract": "AmphiTrans.sol:AmphiTrans",
								"label": "sourceLanguage",
								"offset": 0,
								"slot": "5",
								"type": "t_uint256"
							},
							{
								"astId": 1572,
								"contract": "AmphiTrans.sol:AmphiTrans",
								"label": "goalLanguage",
								"offset": 0,
								"slot": "6",
								"type": "t_uint256"
							},
							{
								"astId": 1575,
								"contract": "AmphiTrans.sol:AmphiTrans",
								"label": "preferList",
								"offset": 0,
								"slot": "7",
								"type": "t_array(t_uint256)dyn_storage"
							},
							{
								"astId": 1577,
								"contract": "AmphiTrans.sol:AmphiTrans",
								"label": "translationType",
								"offset": 0,
								"slot": "8",
								"type": "t_uint256"
							},
							{
								"astId": 1579,
								"contract": "AmphiTrans.sol:AmphiTrans",
								"label": "workLoad",
								"offset": 0,
								"slot": "9",
								"type": "t_uint256"
							},
							{
								"astId": 1581,
								"contract": "AmphiTrans.sol:AmphiTrans",
								"label": "isNonDisclosure",
								"offset": 0,
								"slot": "10",
								"type": "t_bool"
							},
							{
								"astId": 1583,
								"contract": "AmphiTrans.sol:AmphiTrans",
								"label": "isCustomize",
								"offset": 1,
								"slot": "10",
								"type": "t_bool"
							},
							{
								"astId": 1585,
								"contract": "AmphiTrans.sol:AmphiTrans",
								"label": "bounty",
								"offset": 0,
								"slot": "11",
								"type": "t_uint256"
							},
							{
								"astId": 1589,
								"contract": "AmphiTrans.sol:AmphiTrans",
								"label": "tasks",
								"offset": 0,
								"slot": "12",
								"type": "t_array(t_struct(TaskInfo)1542_storage)dyn_storage"
							},
							{
								"astId": 1592,
								"contract": "AmphiTrans.sol:AmphiTrans",
								"label": "translators",
								"offset": 0,
								"slot": "13",
								"type": "t_array(t_address)dyn_storage"
							},
							{
								"astId": 1595,
								"contract": "AmphiTrans.sol:AmphiTrans",
								"label": "verifiers",
								"offset": 0,
								"slot": "14",
								"type": "t_array(t_address)dyn_storage"
							},
							{
								"astId": 1597,
								"contract": "AmphiTrans.sol:AmphiTrans",
								"label": "maxT",
								"offset": 0,
								"slot": "15",
								"type": "t_uint256"
							},
							{
								"astId": 1599,
								"contract": "AmphiTrans.sol:AmphiTrans",
								"label": "maxV",
								"offset": 0,
								"slot": "16",
								"type": "t_uint256"
							},
							{
								"astId": 1601,
								"contract": "AmphiTrans.sol:AmphiTrans",
								"label": "numberT",
								"offset": 0,
								"slot": "17",
								"type": "t_uint256"
							},
							{
								"astId": 1603,
								"contract": "AmphiTrans.sol:AmphiTrans",
								"label": "numberV",
								"offset": 0,
								"slot": "18",
								"type": "t_uint256"
							},
							{
								"astId": 1605,
								"contract": "AmphiTrans.sol:AmphiTrans",
								"label": "isTransActive",
								"offset": 0,
								"slot": "19",
								"type": "t_bool"
							},
							{
								"astId": 1607,
								"contract": "AmphiTrans.sol:AmphiTrans",
								"label": "isVerActive",
								"offset": 1,
								"slot": "19",
								"type": "t_bool"
							},
							{
								"astId": 1610,
								"contract": "AmphiTrans.sol:AmphiTrans",
								"label": "state",
								"offset": 2,
								"slot": "19",
								"type": "t_enum(ProjectState)1486"
							}
						],
						"numberOfBytes": "640"
					},
					"t_uint256": {
						"encoding": "inplace",
						"label": "uint256",
						"numberOfBytes": "32"
					}
				}
			},
			"userdoc": {
				"kind": "user",
				"methods": {},
				"version": 1
			}
		}
	}
}