{
	"TransferService.sol": {
		"TransferService": {
			"abi": [
				{
					"anonymous": false,
					"inputs": [
						{
							"indexed": false,
							"internalType": "address",
							"name": "",
							"type": "address"
						},
						{
							"indexed": false,
							"internalType": "address",
							"name": "",
							"type": "address"
						},
						{
							"indexed": false,
							"internalType": "uint256",
							"name": "",
							"type": "uint256"
						}
					],
					"name": "payEv",
					"type": "event"
				},
				{
					"stateMutability": "payable",
					"type": "fallback"
				},
				{
					"inputs": [],
					"name": "getBalanceOfContract",
					"outputs": [
						{
							"internalType": "uint256",
							"name": "",
							"type": "uint256"
						}
					],
					"stateMutability": "view",
					"type": "function"
				},
				{
					"inputs": [
						{
							"internalType": "address",
							"name": "_to",
							"type": "address"
						}
					],
					"name": "pay",
					"outputs": [],
					"stateMutability": "payable",
					"type": "function"
				},
				{
					"inputs": [],
					"name": "transderToContract",
					"outputs": [],
					"stateMutability": "payable",
					"type": "function"
				},
				{
					"stateMutability": "payable",
					"type": "receive"
				}
			],
			"devdoc": {
				"kind": "dev",
				"methods": {},
				"version": 1
			},
			"evm": {
				"assembly": "    /* \"TransferService.sol\":100:1974  contract TransferService {\r... */\n  mstore(0x40, 0x80)\n  callvalue\n  dup1\n  iszero\n  tag_1\n  jumpi\n  0x00\n  dup1\n  revert\ntag_1:\n  pop\n  dataSize(sub_0)\n  dup1\n  dataOffset(sub_0)\n  0x00\n  codecopy\n  0x00\n  return\nstop\n\nsub_0: assembly {\n        /* \"TransferService.sol\":100:1974  contract TransferService {\r... */\n      mstore(0x40, 0x80)\n      jumpi(tag_1, lt(calldatasize, 0x04))\n      shr(0xe0, calldataload(0x00))\n      dup1\n      0x0c11dedd\n      eq\n      tag_3\n      jumpi\n      dup1\n      0x22968885\n      eq\n      tag_4\n      jumpi\n      dup1\n      0x460968dd\n      eq\n      tag_5\n      jumpi\n      jump(tag_2)\n    tag_1:\n      jumpi(tag_2, calldatasize)\n      stop\n    tag_2:\n      stop\n        /* \"TransferService.sol\":1672:1889  function pay(address _to) public payable noLock{\r... */\n    tag_3:\n      tag_10\n      0x04\n      dup1\n      calldatasize\n      sub\n      dup2\n      add\n      swap1\n      tag_11\n      swap2\n      swap1\n      tag_12\n      jump\t// in\n    tag_11:\n      tag_13\n      jump\t// in\n    tag_10:\n      stop\n        /* \"TransferService.sol\":788:897  function getBalanceOfContract() public view returns (uint256) {\r... */\n    tag_4:\n      callvalue\n      dup1\n      iszero\n      tag_14\n      jumpi\n      0x00\n      dup1\n      revert\n    tag_14:\n      pop\n      tag_15\n      tag_16\n      jump\t// in\n    tag_15:\n      mload(0x40)\n      tag_17\n      swap2\n      swap1\n      tag_18\n      jump\t// in\n    tag_17:\n      mload(0x40)\n      dup1\n      swap2\n      sub\n      swap1\n      return\n        /* \"TransferService.sol\":463:742  function transderToContract()  public payable{\r... */\n    tag_5:\n      tag_19\n      tag_20\n      jump\t// in\n    tag_19:\n      stop\n        /* \"TransferService.sol\":1672:1889  function pay(address _to) public payable noLock{\r... */\n    tag_13:\n        /* \"TransferService.sol\":327:333  locked */\n      0x00\n      dup1\n      sload\n      swap1\n      0x0100\n      exp\n      swap1\n      div\n      0xff\n      and\n        /* \"TransferService.sol\":326:333  !locked */\n      iszero\n        /* \"TransferService.sol\":318:357  require(!locked, \"The lock is locked.\") */\n      tag_22\n      jumpi\n      mload(0x40)\n      0x08c379a000000000000000000000000000000000000000000000000000000000\n      dup2\n      mstore\n      0x04\n      add\n      tag_23\n      swap1\n      tag_24\n      jump\t// in\n    tag_23:\n      mload(0x40)\n      dup1\n      swap2\n      sub\n      swap1\n      revert\n    tag_22:\n        /* \"TransferService.sol\":377:381  true */\n      0x01\n        /* \"TransferService.sol\":368:374  locked */\n      0x00\n      dup1\n        /* \"TransferService.sol\":368:381  locked = true */\n      0x0100\n      exp\n      dup2\n      sload\n      dup2\n      0xff\n      mul\n      not\n      and\n      swap1\n      dup4\n      iszero\n      iszero\n      mul\n      or\n      swap1\n      sstore\n      pop\n        /* \"TransferService.sol\":1730:1746  bool callSuccess */\n      0x00\n        /* \"TransferService.sol\":1759:1762  _to */\n      dup2\n        /* \"TransferService.sol\":1751:1768  payable(_to).call */\n      0xffffffffffffffffffffffffffffffffffffffff\n      and\n        /* \"TransferService.sol\":1776:1785  msg.value */\n      callvalue\n        /* \"TransferService.sol\":1751:1790  payable(_to).call{value: msg.value}(\"\") */\n      mload(0x40)\n      tag_26\n      swap1\n      tag_27\n      jump\t// in\n    tag_26:\n      0x00\n      mload(0x40)\n      dup1\n      dup4\n      sub\n      dup2\n      dup6\n      dup8\n      gas\n      call\n      swap3\n      pop\n      pop\n      pop\n      returndatasize\n      dup1\n      0x00\n      dup2\n      eq\n      tag_30\n      jumpi\n      mload(0x40)\n      swap2\n      pop\n      and(add(returndatasize, 0x3f), not(0x1f))\n      dup3\n      add\n      0x40\n      mstore\n      returndatasize\n      dup3\n      mstore\n      returndatasize\n      0x00\n      0x20\n      dup5\n      add\n      returndatacopy\n      jump(tag_29)\n    tag_30:\n      0x60\n      swap2\n      pop\n    tag_29:\n      pop\n        /* \"TransferService.sol\":1729:1790  (bool callSuccess, )= payable(_to).call{value: msg.value}(\"\") */\n      pop\n      swap1\n      pop\n        /* \"TransferService.sol\":1808:1819  callSuccess */\n      dup1\n        /* \"TransferService.sol\":1800:1835  require(callSuccess, \"Call failed\") */\n      tag_31\n      jumpi\n      mload(0x40)\n      0x08c379a000000000000000000000000000000000000000000000000000000000\n      dup2\n      mstore\n      0x04\n      add\n      tag_32\n      swap1\n      tag_33\n      jump\t// in\n    tag_32:\n      mload(0x40)\n      dup1\n      swap2\n      sub\n      swap1\n      revert\n    tag_31:\n        /* \"TransferService.sol\":1850:1881  payEv(msg.sender,_to,msg.value) */\n      0xb37bd6f3ccfce130859d4569dc432409f423a7928e73eb5c5049a94e40f0c648\n        /* \"TransferService.sol\":1856:1866  msg.sender */\n      caller\n        /* \"TransferService.sol\":1867:1870  _to */\n      dup4\n        /* \"TransferService.sol\":1871:1880  msg.value */\n      callvalue\n        /* \"TransferService.sol\":1850:1881  payEv(msg.sender,_to,msg.value) */\n      mload(0x40)\n      tag_34\n      swap4\n      swap3\n      swap2\n      swap1\n      tag_35\n      jump\t// in\n    tag_34:\n      mload(0x40)\n      dup1\n      swap2\n      sub\n      swap1\n      log1\n        /* \"TransferService.sol\":1719:1889  {\r... */\n      pop\n        /* \"TransferService.sol\":413:418  false */\n      0x00\n        /* \"TransferService.sol\":404:410  locked */\n      dup1\n      0x00\n        /* \"TransferService.sol\":404:418  locked = false */\n      0x0100\n      exp\n      dup2\n      sload\n      dup2\n      0xff\n      mul\n      not\n      and\n      swap1\n      dup4\n      iszero\n      iszero\n      mul\n      or\n      swap1\n      sstore\n      pop\n        /* \"TransferService.sol\":1672:1889  function pay(address _to) public payable noLock{\r... */\n      pop\n      jump\t// out\n        /* \"TransferService.sol\":788:897  function getBalanceOfContract() public view returns (uint256) {\r... */\n    tag_16:\n        /* \"TransferService.sol\":841:848  uint256 */\n      0x00\n        /* \"TransferService.sol\":868:889  address(this).balance */\n      selfbalance\n        /* \"TransferService.sol\":861:889  return address(this).balance */\n      swap1\n      pop\n        /* \"TransferService.sol\":788:897  function getBalanceOfContract() public view returns (uint256) {\r... */\n      swap1\n      jump\t// out\n        /* \"TransferService.sol\":463:742  function transderToContract()  public payable{\r... */\n    tag_20:\n        /* \"TransferService.sol\":520:529  bool sent */\n      0x00\n        /* \"TransferService.sol\":550:554  this */\n      address\n        /* \"TransferService.sol\":534:561  payable(address(this)).call */\n      0xffffffffffffffffffffffffffffffffffffffff\n      and\n        /* \"TransferService.sol\":569:578  msg.value */\n      callvalue\n        /* \"TransferService.sol\":534:583  payable(address(this)).call{value: msg.value}(\"\") */\n      mload(0x40)\n      tag_38\n      swap1\n      tag_27\n      jump\t// in\n    tag_38:\n      0x00\n      mload(0x40)\n      dup1\n      dup4\n      sub\n      dup2\n      dup6\n      dup8\n      gas\n      call\n      swap3\n      pop\n      pop\n      pop\n      returndatasize\n      dup1\n      0x00\n      dup2\n      eq\n      tag_41\n      jumpi\n      mload(0x40)\n      swap2\n      pop\n      and(add(returndatasize, 0x3f), not(0x1f))\n      dup3\n      add\n      0x40\n      mstore\n      returndatasize\n      dup3\n      mstore\n      returndatasize\n      0x00\n      0x20\n      dup5\n      add\n      returndatacopy\n      jump(tag_40)\n    tag_41:\n      0x60\n      swap2\n      pop\n    tag_40:\n      pop\n        /* \"TransferService.sol\":519:583  (bool sent,) = payable(address(this)).call{value: msg.value}(\"\") */\n      pop\n      swap1\n      pop\n        /* \"TransferService.sol\":602:606  sent */\n      dup1\n        /* \"TransferService.sol\":594:622  require(sent, \"Call failed\") */\n      tag_42\n      jumpi\n      mload(0x40)\n      0x08c379a000000000000000000000000000000000000000000000000000000000\n      dup2\n      mstore\n      0x04\n      add\n      tag_43\n      swap1\n      tag_33\n      jump\t// in\n    tag_43:\n      mload(0x40)\n      dup1\n      swap2\n      sub\n      swap1\n      revert\n    tag_42:\n        /* \"TransferService.sol\":638:679  payEv(msg.sender,address(this),msg.value) */\n      0xb37bd6f3ccfce130859d4569dc432409f423a7928e73eb5c5049a94e40f0c648\n        /* \"TransferService.sol\":644:654  msg.sender */\n      caller\n        /* \"TransferService.sol\":663:667  this */\n      address\n        /* \"TransferService.sol\":669:678  msg.value */\n      callvalue\n        /* \"TransferService.sol\":638:679  payEv(msg.sender,address(this),msg.value) */\n      mload(0x40)\n      tag_44\n      swap4\n      swap3\n      swap2\n      swap1\n      tag_35\n      jump\t// in\n    tag_44:\n      mload(0x40)\n      dup1\n      swap2\n      sub\n      swap1\n      log1\n        /* \"TransferService.sol\":508:742  {\r... */\n      pop\n        /* \"TransferService.sol\":463:742  function transderToContract()  public payable{\r... */\n      jump\t// out\n        /* \"#utility.yul\":7:146   */\n    tag_46:\n        /* \"#utility.yul\":53:58   */\n      0x00\n        /* \"#utility.yul\":91:97   */\n      dup2\n        /* \"#utility.yul\":78:98   */\n      calldataload\n        /* \"#utility.yul\":69:98   */\n      swap1\n      pop\n        /* \"#utility.yul\":107:140   */\n      tag_48\n        /* \"#utility.yul\":134:139   */\n      dup2\n        /* \"#utility.yul\":107:140   */\n      tag_49\n      jump\t// in\n    tag_48:\n        /* \"#utility.yul\":7:146   */\n      swap3\n      swap2\n      pop\n      pop\n      jump\t// out\n        /* \"#utility.yul\":152:481   */\n    tag_12:\n        /* \"#utility.yul\":211:217   */\n      0x00\n        /* \"#utility.yul\":260:262   */\n      0x20\n        /* \"#utility.yul\":248:257   */\n      dup3\n        /* \"#utility.yul\":239:246   */\n      dup5\n        /* \"#utility.yul\":235:258   */\n      sub\n        /* \"#utility.yul\":231:263   */\n      slt\n        /* \"#utility.yul\":228:347   */\n      iszero\n      tag_51\n      jumpi\n        /* \"#utility.yul\":266:345   */\n      tag_52\n      tag_53\n      jump\t// in\n    tag_52:\n        /* \"#utility.yul\":228:347   */\n    tag_51:\n        /* \"#utility.yul\":386:387   */\n      0x00\n        /* \"#utility.yul\":411:464   */\n      tag_54\n        /* \"#utility.yul\":456:463   */\n      dup5\n        /* \"#utility.yul\":447:453   */\n      dup3\n        /* \"#utility.yul\":436:445   */\n      dup6\n        /* \"#utility.yul\":432:454   */\n      add\n        /* \"#utility.yul\":411:464   */\n      tag_46\n      jump\t// in\n    tag_54:\n        /* \"#utility.yul\":401:464   */\n      swap2\n      pop\n        /* \"#utility.yul\":357:474   */\n      pop\n        /* \"#utility.yul\":152:481   */\n      swap3\n      swap2\n      pop\n      pop\n      jump\t// out\n        /* \"#utility.yul\":487:605   */\n    tag_55:\n        /* \"#utility.yul\":574:598   */\n      tag_57\n        /* \"#utility.yul\":592:597   */\n      dup2\n        /* \"#utility.yul\":574:598   */\n      tag_58\n      jump\t// in\n    tag_57:\n        /* \"#utility.yul\":569:572   */\n      dup3\n        /* \"#utility.yul\":562:599   */\n      mstore\n        /* \"#utility.yul\":487:605   */\n      pop\n      pop\n      jump\t// out\n        /* \"#utility.yul\":611:977   */\n    tag_59:\n        /* \"#utility.yul\":753:756   */\n      0x00\n        /* \"#utility.yul\":774:841   */\n      tag_61\n        /* \"#utility.yul\":838:840   */\n      0x0b\n        /* \"#utility.yul\":833:836   */\n      dup4\n        /* \"#utility.yul\":774:841   */\n      tag_62\n      jump\t// in\n    tag_61:\n        /* \"#utility.yul\":767:841   */\n      swap2\n      pop\n        /* \"#utility.yul\":850:943   */\n      tag_63\n        /* \"#utility.yul\":939:942   */\n      dup3\n        /* \"#utility.yul\":850:943   */\n      tag_64\n      jump\t// in\n    tag_63:\n        /* \"#utility.yul\":968:970   */\n      0x20\n        /* \"#utility.yul\":963:966   */\n      dup3\n        /* \"#utility.yul\":959:971   */\n      add\n        /* \"#utility.yul\":952:971   */\n      swap1\n      pop\n        /* \"#utility.yul\":611:977   */\n      swap2\n      swap1\n      pop\n      jump\t// out\n        /* \"#utility.yul\":983:1349   */\n    tag_65:\n        /* \"#utility.yul\":1125:1128   */\n      0x00\n        /* \"#utility.yul\":1146:1213   */\n      tag_67\n        /* \"#utility.yul\":1210:1212   */\n      0x13\n        /* \"#utility.yul\":1205:1208   */\n      dup4\n        /* \"#utility.yul\":1146:1213   */\n      tag_62\n      jump\t// in\n    tag_67:\n        /* \"#utility.yul\":1139:1213   */\n      swap2\n      pop\n        /* \"#utility.yul\":1222:1315   */\n      tag_68\n        /* \"#utility.yul\":1311:1314   */\n      dup3\n        /* \"#utility.yul\":1222:1315   */\n      tag_69\n      jump\t// in\n    tag_68:\n        /* \"#utility.yul\":1340:1342   */\n      0x20\n        /* \"#utility.yul\":1335:1338   */\n      dup3\n        /* \"#utility.yul\":1331:1343   */\n      add\n        /* \"#utility.yul\":1324:1343   */\n      swap1\n      pop\n        /* \"#utility.yul\":983:1349   */\n      swap2\n      swap1\n      pop\n      jump\t// out\n        /* \"#utility.yul\":1355:1753   */\n    tag_70:\n        /* \"#utility.yul\":1514:1517   */\n      0x00\n        /* \"#utility.yul\":1535:1618   */\n      tag_72\n        /* \"#utility.yul\":1616:1617   */\n      0x00\n        /* \"#utility.yul\":1611:1614   */\n      dup4\n        /* \"#utility.yul\":1535:1618   */\n      tag_73\n      jump\t// in\n    tag_72:\n        /* \"#utility.yul\":1528:1618   */\n      swap2\n      pop\n        /* \"#utility.yul\":1627:1720   */\n      tag_74\n        /* \"#utility.yul\":1716:1719   */\n      dup3\n        /* \"#utility.yul\":1627:1720   */\n      tag_75\n      jump\t// in\n    tag_74:\n        /* \"#utility.yul\":1745:1746   */\n      0x00\n        /* \"#utility.yul\":1740:1743   */\n      dup3\n        /* \"#utility.yul\":1736:1747   */\n      add\n        /* \"#utility.yul\":1729:1747   */\n      swap1\n      pop\n        /* \"#utility.yul\":1355:1753   */\n      swap2\n      swap1\n      pop\n      jump\t// out\n        /* \"#utility.yul\":1759:1877   */\n    tag_76:\n        /* \"#utility.yul\":1846:1870   */\n      tag_78\n        /* \"#utility.yul\":1864:1869   */\n      dup2\n        /* \"#utility.yul\":1846:1870   */\n      tag_79\n      jump\t// in\n    tag_78:\n        /* \"#utility.yul\":1841:1844   */\n      dup3\n        /* \"#utility.yul\":1834:1871   */\n      mstore\n        /* \"#utility.yul\":1759:1877   */\n      pop\n      pop\n      jump\t// out\n        /* \"#utility.yul\":1883:2262   */\n    tag_27:\n        /* \"#utility.yul\":2067:2070   */\n      0x00\n        /* \"#utility.yul\":2089:2236   */\n      tag_81\n        /* \"#utility.yul\":2232:2235   */\n      dup3\n        /* \"#utility.yul\":2089:2236   */\n      tag_70\n      jump\t// in\n    tag_81:\n        /* \"#utility.yul\":2082:2236   */\n      swap2\n      pop\n        /* \"#utility.yul\":2253:2256   */\n      dup2\n        /* \"#utility.yul\":2246:2256   */\n      swap1\n      pop\n        /* \"#utility.yul\":1883:2262   */\n      swap2\n      swap1\n      pop\n      jump\t// out\n        /* \"#utility.yul\":2268:2710   */\n    tag_35:\n        /* \"#utility.yul\":2417:2421   */\n      0x00\n        /* \"#utility.yul\":2455:2457   */\n      0x60\n        /* \"#utility.yul\":2444:2453   */\n      dup3\n        /* \"#utility.yul\":2440:2458   */\n      add\n        /* \"#utility.yul\":2432:2458   */\n      swap1\n      pop\n        /* \"#utility.yul\":2468:2539   */\n      tag_83\n        /* \"#utility.yul\":2536:2537   */\n      0x00\n        /* \"#utility.yul\":2525:2534   */\n      dup4\n        /* \"#utility.yul\":2521:2538   */\n      add\n        /* \"#utility.yul\":2512:2518   */\n      dup7\n        /* \"#utility.yul\":2468:2539   */\n      tag_55\n      jump\t// in\n    tag_83:\n        /* \"#utility.yul\":2549:2621   */\n      tag_84\n        /* \"#utility.yul\":2617:2619   */\n      0x20\n        /* \"#utility.yul\":2606:2615   */\n      dup4\n        /* \"#utility.yul\":2602:2620   */\n      add\n        /* \"#utility.yul\":2593:2599   */\n      dup6\n        /* \"#utility.yul\":2549:2621   */\n      tag_55\n      jump\t// in\n    tag_84:\n        /* \"#utility.yul\":2631:2703   */\n      tag_85\n        /* \"#utility.yul\":2699:2701   */\n      0x40\n        /* \"#utility.yul\":2688:2697   */\n      dup4\n        /* \"#utility.yul\":2684:2702   */\n      add\n        /* \"#utility.yul\":2675:2681   */\n      dup5\n        /* \"#utility.yul\":2631:2703   */\n      tag_76\n      jump\t// in\n    tag_85:\n        /* \"#utility.yul\":2268:2710   */\n      swap5\n      swap4\n      pop\n      pop\n      pop\n      pop\n      jump\t// out\n        /* \"#utility.yul\":2716:3135   */\n    tag_33:\n        /* \"#utility.yul\":2882:2886   */\n      0x00\n        /* \"#utility.yul\":2920:2922   */\n      0x20\n        /* \"#utility.yul\":2909:2918   */\n      dup3\n        /* \"#utility.yul\":2905:2923   */\n      add\n        /* \"#utility.yul\":2897:2923   */\n      swap1\n      pop\n        /* \"#utility.yul\":2969:2978   */\n      dup2\n        /* \"#utility.yul\":2963:2967   */\n      dup2\n        /* \"#utility.yul\":2959:2979   */\n      sub\n        /* \"#utility.yul\":2955:2956   */\n      0x00\n        /* \"#utility.yul\":2944:2953   */\n      dup4\n        /* \"#utility.yul\":2940:2957   */\n      add\n        /* \"#utility.yul\":2933:2980   */\n      mstore\n        /* \"#utility.yul\":2997:3128   */\n      tag_87\n        /* \"#utility.yul\":3123:3127   */\n      dup2\n        /* \"#utility.yul\":2997:3128   */\n      tag_59\n      jump\t// in\n    tag_87:\n        /* \"#utility.yul\":2989:3128   */\n      swap1\n      pop\n        /* \"#utility.yul\":2716:3135   */\n      swap2\n      swap1\n      pop\n      jump\t// out\n        /* \"#utility.yul\":3141:3560   */\n    tag_24:\n        /* \"#utility.yul\":3307:3311   */\n      0x00\n        /* \"#utility.yul\":3345:3347   */\n      0x20\n        /* \"#utility.yul\":3334:3343   */\n      dup3\n        /* \"#utility.yul\":3330:3348   */\n      add\n        /* \"#utility.yul\":3322:3348   */\n      swap1\n      pop\n        /* \"#utility.yul\":3394:3403   */\n      dup2\n        /* \"#utility.yul\":3388:3392   */\n      dup2\n        /* \"#utility.yul\":3384:3404   */\n      sub\n        /* \"#utility.yul\":3380:3381   */\n      0x00\n        /* \"#utility.yul\":3369:3378   */\n      dup4\n        /* \"#utility.yul\":3365:3382   */\n      add\n        /* \"#utility.yul\":3358:3405   */\n      mstore\n        /* \"#utility.yul\":3422:3553   */\n      tag_89\n        /* \"#utility.yul\":3548:3552   */\n      dup2\n        /* \"#utility.yul\":3422:3553   */\n      tag_65\n      jump\t// in\n    tag_89:\n        /* \"#utility.yul\":3414:3553   */\n      swap1\n      pop\n        /* \"#utility.yul\":3141:3560   */\n      swap2\n      swap1\n      pop\n      jump\t// out\n        /* \"#utility.yul\":3566:3788   */\n    tag_18:\n        /* \"#utility.yul\":3659:3663   */\n      0x00\n        /* \"#utility.yul\":3697:3699   */\n      0x20\n        /* \"#utility.yul\":3686:3695   */\n      dup3\n        /* \"#utility.yul\":3682:3700   */\n      add\n        /* \"#utility.yul\":3674:3700   */\n      swap1\n      pop\n        /* \"#utility.yul\":3710:3781   */\n      tag_91\n        /* \"#utility.yul\":3778:3779   */\n      0x00\n        /* \"#utility.yul\":3767:3776   */\n      dup4\n        /* \"#utility.yul\":3763:3780   */\n      add\n        /* \"#utility.yul\":3754:3760   */\n      dup5\n        /* \"#utility.yul\":3710:3781   */\n      tag_76\n      jump\t// in\n    tag_91:\n        /* \"#utility.yul\":3566:3788   */\n      swap3\n      swap2\n      pop\n      pop\n      jump\t// out\n        /* \"#utility.yul\":3875:4022   */\n    tag_73:\n        /* \"#utility.yul\":3976:3987   */\n      0x00\n        /* \"#utility.yul\":4013:4016   */\n      dup2\n        /* \"#utility.yul\":3998:4016   */\n      swap1\n      pop\n        /* \"#utility.yul\":3875:4022   */\n      swap3\n      swap2\n      pop\n      pop\n      jump\t// out\n        /* \"#utility.yul\":4028:4197   */\n    tag_62:\n        /* \"#utility.yul\":4112:4123   */\n      0x00\n        /* \"#utility.yul\":4146:4152   */\n      dup3\n        /* \"#utility.yul\":4141:4144   */\n      dup3\n        /* \"#utility.yul\":4134:4153   */\n      mstore\n        /* \"#utility.yul\":4186:4190   */\n      0x20\n        /* \"#utility.yul\":4181:4184   */\n      dup3\n        /* \"#utility.yul\":4177:4191   */\n      add\n        /* \"#utility.yul\":4162:4191   */\n      swap1\n      pop\n        /* \"#utility.yul\":4028:4197   */\n      swap3\n      swap2\n      pop\n      pop\n      jump\t// out\n        /* \"#utility.yul\":4203:4299   */\n    tag_58:\n        /* \"#utility.yul\":4240:4247   */\n      0x00\n        /* \"#utility.yul\":4269:4293   */\n      tag_97\n        /* \"#utility.yul\":4287:4292   */\n      dup3\n        /* \"#utility.yul\":4269:4293   */\n      tag_98\n      jump\t// in\n    tag_97:\n        /* \"#utility.yul\":4258:4293   */\n      swap1\n      pop\n        /* \"#utility.yul\":4203:4299   */\n      swap2\n      swap1\n      pop\n      jump\t// out\n        /* \"#utility.yul\":4305:4431   */\n    tag_98:\n        /* \"#utility.yul\":4342:4349   */\n      0x00\n        /* \"#utility.yul\":4382:4424   */\n      0xffffffffffffffffffffffffffffffffffffffff\n        /* \"#utility.yul\":4375:4380   */\n      dup3\n        /* \"#utility.yul\":4371:4425   */\n      and\n        /* \"#utility.yul\":4360:4425   */\n      swap1\n      pop\n        /* \"#utility.yul\":4305:4431   */\n      swap2\n      swap1\n      pop\n      jump\t// out\n        /* \"#utility.yul\":4437:4514   */\n    tag_79:\n        /* \"#utility.yul\":4474:4481   */\n      0x00\n        /* \"#utility.yul\":4503:4508   */\n      dup2\n        /* \"#utility.yul\":4492:4508   */\n      swap1\n      pop\n        /* \"#utility.yul\":4437:4514   */\n      swap2\n      swap1\n      pop\n      jump\t// out\n        /* \"#utility.yul\":4643:4760   */\n    tag_53:\n        /* \"#utility.yul\":4752:4753   */\n      0x00\n        /* \"#utility.yul\":4749:4750   */\n      dup1\n        /* \"#utility.yul\":4742:4754   */\n      revert\n        /* \"#utility.yul\":4766:4927   */\n    tag_64:\n        /* \"#utility.yul\":4906:4919   */\n      0x43616c6c206661696c6564000000000000000000000000000000000000000000\n        /* \"#utility.yul\":4902:4903   */\n      0x00\n        /* \"#utility.yul\":4894:4900   */\n      dup3\n        /* \"#utility.yul\":4890:4904   */\n      add\n        /* \"#utility.yul\":4883:4920   */\n      mstore\n        /* \"#utility.yul\":4766:4927   */\n      pop\n      jump\t// out\n        /* \"#utility.yul\":4933:5102   */\n    tag_69:\n        /* \"#utility.yul\":5073:5094   */\n      0x546865206c6f636b206973206c6f636b65642e00000000000000000000000000\n        /* \"#utility.yul\":5069:5070   */\n      0x00\n        /* \"#utility.yul\":5061:5067   */\n      dup3\n        /* \"#utility.yul\":5057:5071   */\n      add\n        /* \"#utility.yul\":5050:5095   */\n      mstore\n        /* \"#utility.yul\":4933:5102   */\n      pop\n      jump\t// out\n        /* \"#utility.yul\":5108:5222   */\n    tag_75:\n      pop\n      jump\t// out\n        /* \"#utility.yul\":5228:5350   */\n    tag_49:\n        /* \"#utility.yul\":5301:5325   */\n      tag_108\n        /* \"#utility.yul\":5319:5324   */\n      dup2\n        /* \"#utility.yul\":5301:5325   */\n      tag_58\n      jump\t// in\n    tag_108:\n        /* \"#utility.yul\":5294:5299   */\n      dup2\n        /* \"#utility.yul\":5291:5326   */\n      eq\n        /* \"#utility.yul\":5281:5344   */\n      tag_109\n      jumpi\n        /* \"#utility.yul\":5340:5341   */\n      0x00\n        /* \"#utility.yul\":5337:5338   */\n      dup1\n        /* \"#utility.yul\":5330:5342   */\n      revert\n        /* \"#utility.yul\":5281:5344   */\n    tag_109:\n        /* \"#utility.yul\":5228:5350   */\n      pop\n      jump\t// out\n\n    auxdata: 0xa26469706673582212205a7ae703ee487fddf3fd1a6795daddc30ad72dac8e58f9f9e2600575d83a6bc164736f6c63430008070033\n}\n",
				"bytecode": {
					"linkReferences": {},
					"object": "608060405234801561001057600080fd5b50610560806100206000396000f3fe6080604052600436106100385760003560e01c80630c11dedd14610041578063229688851461005d578063460968dd146100885761003f565b3661003f57005b005b61005b60048036038101906100569190610306565b610092565b005b34801561006957600080fd5b506100726101ff565b60405161007f9190610446565b60405180910390f35b610090610207565b005b60008054906101000a900460ff16156100e0576040517f08c379a00000000000000000000000000000000000000000000000000000000081526004016100d790610426565b60405180910390fd5b60016000806101000a81548160ff02191690831515021790555060008173ffffffffffffffffffffffffffffffffffffffff1634604051610120906103ba565b60006040518083038185875af1925050503d806000811461015d576040519150601f19603f3d011682016040523d82523d6000602084013e610162565b606091505b50509050806101a6576040517f08c379a000000000000000000000000000000000000000000000000000000000815260040161019d90610406565b60405180910390fd5b7fb37bd6f3ccfce130859d4569dc432409f423a7928e73eb5c5049a94e40f0c6483383346040516101d9939291906103cf565b60405180910390a15060008060006101000a81548160ff02191690831515021790555050565b600047905090565b60003073ffffffffffffffffffffffffffffffffffffffff163460405161022d906103ba565b60006040518083038185875af1925050503d806000811461026a576040519150601f19603f3d011682016040523d82523d6000602084013e61026f565b606091505b50509050806102b3576040517f08c379a00000000000000000000000000000000000000000000000000000000081526004016102aa90610406565b60405180910390fd5b7fb37bd6f3ccfce130859d4569dc432409f423a7928e73eb5c5049a94e40f0c6483330346040516102e6939291906103cf565b60405180910390a150565b60008135905061030081610513565b92915050565b60006020828403121561031c5761031b6104b9565b5b600061032a848285016102f1565b91505092915050565b61033c8161047d565b82525050565b600061034f600b8361046c565b915061035a826104be565b602082019050919050565b600061037260138361046c565b915061037d826104e7565b602082019050919050565b6000610395600083610461565b91506103a082610510565b600082019050919050565b6103b4816104af565b82525050565b60006103c582610388565b9150819050919050565b60006060820190506103e46000830186610333565b6103f16020830185610333565b6103fe60408301846103ab565b949350505050565b6000602082019050818103600083015261041f81610342565b9050919050565b6000602082019050818103600083015261043f81610365565b9050919050565b600060208201905061045b60008301846103ab565b92915050565b600081905092915050565b600082825260208201905092915050565b60006104888261048f565b9050919050565b600073ffffffffffffffffffffffffffffffffffffffff82169050919050565b6000819050919050565b600080fd5b7f43616c6c206661696c6564000000000000000000000000000000000000000000600082015250565b7f546865206c6f636b206973206c6f636b65642e00000000000000000000000000600082015250565b50565b61051c8161047d565b811461052757600080fd5b5056fea26469706673582212205a7ae703ee487fddf3fd1a6795daddc30ad72dac8e58f9f9e2600575d83a6bc164736f6c63430008070033",
					"opcodes": "PUSH1 0x80 PUSH1 0x40 MSTORE CALLVALUE DUP1 ISZERO PUSH2 0x10 JUMPI PUSH1 0x0 DUP1 REVERT JUMPDEST POP PUSH2 0x560 DUP1 PUSH2 0x20 PUSH1 0x0 CODECOPY PUSH1 0x0 RETURN INVALID PUSH1 0x80 PUSH1 0x40 MSTORE PUSH1 0x4 CALLDATASIZE LT PUSH2 0x38 JUMPI PUSH1 0x0 CALLDATALOAD PUSH1 0xE0 SHR DUP1 PUSH4 0xC11DEDD EQ PUSH2 0x41 JUMPI DUP1 PUSH4 0x22968885 EQ PUSH2 0x5D JUMPI DUP1 PUSH4 0x460968DD EQ PUSH2 0x88 JUMPI PUSH2 0x3F JUMP JUMPDEST CALLDATASIZE PUSH2 0x3F JUMPI STOP JUMPDEST STOP JUMPDEST PUSH2 0x5B PUSH1 0x4 DUP1 CALLDATASIZE SUB DUP2 ADD SWAP1 PUSH2 0x56 SWAP2 SWAP1 PUSH2 0x306 JUMP JUMPDEST PUSH2 0x92 JUMP JUMPDEST STOP JUMPDEST CALLVALUE DUP1 ISZERO PUSH2 0x69 JUMPI PUSH1 0x0 DUP1 REVERT JUMPDEST POP PUSH2 0x72 PUSH2 0x1FF JUMP JUMPDEST PUSH1 0x40 MLOAD PUSH2 0x7F SWAP2 SWAP1 PUSH2 0x446 JUMP JUMPDEST PUSH1 0x40 MLOAD DUP1 SWAP2 SUB SWAP1 RETURN JUMPDEST PUSH2 0x90 PUSH2 0x207 JUMP JUMPDEST STOP JUMPDEST PUSH1 0x0 DUP1 SLOAD SWAP1 PUSH2 0x100 EXP SWAP1 DIV PUSH1 0xFF AND ISZERO PUSH2 0xE0 JUMPI PUSH1 0x40 MLOAD PUSH32 0x8C379A000000000000000000000000000000000000000000000000000000000 DUP2 MSTORE PUSH1 0x4 ADD PUSH2 0xD7 SWAP1 PUSH2 0x426 JUMP JUMPDEST PUSH1 0x40 MLOAD DUP1 SWAP2 SUB SWAP1 REVERT JUMPDEST PUSH1 0x1 PUSH1 0x0 DUP1 PUSH2 0x100 EXP DUP2 SLOAD DUP2 PUSH1 0xFF MUL NOT AND SWAP1 DUP4 ISZERO ISZERO MUL OR SWAP1 SSTORE POP PUSH1 0x0 DUP2 PUSH20 0xFFFFFFFFFFFFFFFFFFFFFFFFFFFFFFFFFFFFFFFF AND CALLVALUE PUSH1 0x40 MLOAD PUSH2 0x120 SWAP1 PUSH2 0x3BA JUMP JUMPDEST PUSH1 0x0 PUSH1 0x40 MLOAD DUP1 DUP4 SUB DUP2 DUP6 DUP8 GAS CALL SWAP3 POP POP POP RETURNDATASIZE DUP1 PUSH1 0x0 DUP2 EQ PUSH2 0x15D JUMPI PUSH1 0x40 MLOAD SWAP2 POP PUSH1 0x1F NOT PUSH1 0x3F RETURNDATASIZE ADD AND DUP3 ADD PUSH1 0x40 MSTORE RETURNDATASIZE DUP3 MSTORE RETURNDATASIZE PUSH1 0x0 PUSH1 0x20 DUP5 ADD RETURNDATACOPY PUSH2 0x162 JUMP JUMPDEST PUSH1 0x60 SWAP2 POP JUMPDEST POP POP SWAP1 POP DUP1 PUSH2 0x1A6 JUMPI PUSH1 0x40 MLOAD PUSH32 0x8C379A000000000000000000000000000000000000000000000000000000000 DUP2 MSTORE PUSH1 0x4 ADD PUSH2 0x19D SWAP1 PUSH2 0x406 JUMP JUMPDEST PUSH1 0x40 MLOAD DUP1 SWAP2 SUB SWAP1 REVERT JUMPDEST PUSH32 0xB37BD6F3CCFCE130859D4569DC432409F423A7928E73EB5C5049A94E40F0C648 CALLER DUP4 CALLVALUE PUSH1 0x40 MLOAD PUSH2 0x1D9 SWAP4 SWAP3 SWAP2 SWAP1 PUSH2 0x3CF JUMP JUMPDEST PUSH1 0x40 MLOAD DUP1 SWAP2 SUB SWAP1 LOG1 POP PUSH1 0x0 DUP1 PUSH1 0x0 PUSH2 0x100 EXP DUP2 SLOAD DUP2 PUSH1 0xFF MUL NOT AND SWAP1 DUP4 ISZERO ISZERO MUL OR SWAP1 SSTORE POP POP JUMP JUMPDEST PUSH1 0x0 SELFBALANCE SWAP1 POP SWAP1 JUMP JUMPDEST PUSH1 0x0 ADDRESS PUSH20 0xFFFFFFFFFFFFFFFFFFFFFFFFFFFFFFFFFFFFFFFF AND CALLVALUE PUSH1 0x40 MLOAD PUSH2 0x22D SWAP1 PUSH2 0x3BA JUMP JUMPDEST PUSH1 0x0 PUSH1 0x40 MLOAD DUP1 DUP4 SUB DUP2 DUP6 DUP8 GAS CALL SWAP3 POP POP POP RETURNDATASIZE DUP1 PUSH1 0x0 DUP2 EQ PUSH2 0x26A JUMPI PUSH1 0x40 MLOAD SWAP2 POP PUSH1 0x1F NOT PUSH1 0x3F RETURNDATASIZE ADD AND DUP3 ADD PUSH1 0x40 MSTORE RETURNDATASIZE DUP3 MSTORE RETURNDATASIZE PUSH1 0x0 PUSH1 0x20 DUP5 ADD RETURNDATACOPY PUSH2 0x26F JUMP JUMPDEST PUSH1 0x60 SWAP2 POP JUMPDEST POP POP SWAP1 POP DUP1 PUSH2 0x2B3 JUMPI PUSH1 0x40 MLOAD PUSH32 0x8C379A000000000000000000000000000000000000000000000000000000000 DUP2 MSTORE PUSH1 0x4 ADD PUSH2 0x2AA SWAP1 PUSH2 0x406 JUMP JUMPDEST PUSH1 0x40 MLOAD DUP1 SWAP2 SUB SWAP1 REVERT JUMPDEST PUSH32 0xB37BD6F3CCFCE130859D4569DC432409F423A7928E73EB5C5049A94E40F0C648 CALLER ADDRESS CALLVALUE PUSH1 0x40 MLOAD PUSH2 0x2E6 SWAP4 SWAP3 SWAP2 SWAP1 PUSH2 0x3CF JUMP JUMPDEST PUSH1 0x40 MLOAD DUP1 SWAP2 SUB SWAP1 LOG1 POP JUMP JUMPDEST PUSH1 0x0 DUP2 CALLDATALOAD SWAP1 POP PUSH2 0x300 DUP2 PUSH2 0x513 JUMP JUMPDEST SWAP3 SWAP2 POP POP JUMP JUMPDEST PUSH1 0x0 PUSH1 0x20 DUP3 DUP5 SUB SLT ISZERO PUSH2 0x31C JUMPI PUSH2 0x31B PUSH2 0x4B9 JUMP JUMPDEST JUMPDEST PUSH1 0x0 PUSH2 0x32A DUP5 DUP3 DUP6 ADD PUSH2 0x2F1 JUMP JUMPDEST SWAP2 POP POP SWAP3 SWAP2 POP POP JUMP JUMPDEST PUSH2 0x33C DUP2 PUSH2 0x47D JUMP JUMPDEST DUP3 MSTORE POP POP JUMP JUMPDEST PUSH1 0x0 PUSH2 0x34F PUSH1 0xB DUP4 PUSH2 0x46C JUMP JUMPDEST SWAP2 POP PUSH2 0x35A DUP3 PUSH2 0x4BE JUMP JUMPDEST PUSH1 0x20 DUP3 ADD SWAP1 POP SWAP2 SWAP1 POP JUMP JUMPDEST PUSH1 0x0 PUSH2 0x372 PUSH1 0x13 DUP4 PUSH2 0x46C JUMP JUMPDEST SWAP2 POP PUSH2 0x37D DUP3 PUSH2 0x4E7 JUMP JUMPDEST PUSH1 0x20 DUP3 ADD SWAP1 POP SWAP2 SWAP1 POP JUMP JUMPDEST PUSH1 0x0 PUSH2 0x395 PUSH1 0x0 DUP4 PUSH2 0x461 JUMP JUMPDEST SWAP2 POP PUSH2 0x3A0 DUP3 PUSH2 0x510 JUMP JUMPDEST PUSH1 0x0 DUP3 ADD SWAP1 POP SWAP2 SWAP1 POP JUMP JUMPDEST PUSH2 0x3B4 DUP2 PUSH2 0x4AF JUMP JUMPDEST DUP3 MSTORE POP POP JUMP JUMPDEST PUSH1 0x0 PUSH2 0x3C5 DUP3 PUSH2 0x388 JUMP JUMPDEST SWAP2 POP DUP2 SWAP1 POP SWAP2 SWAP1 POP JUMP JUMPDEST PUSH1 0x0 PUSH1 0x60 DUP3 ADD SWAP1 POP PUSH2 0x3E4 PUSH1 0x0 DUP4 ADD DUP7 PUSH2 0x333 JUMP JUMPDEST PUSH2 0x3F1 PUSH1 0x20 DUP4 ADD DUP6 PUSH2 0x333 JUMP JUMPDEST PUSH2 0x3FE PUSH1 0x40 DUP4 ADD DUP5 PUSH2 0x3AB JUMP JUMPDEST SWAP5 SWAP4 POP POP POP POP JUMP JUMPDEST PUSH1 0x0 PUSH1 0x20 DUP3 ADD SWAP1 POP DUP2 DUP2 SUB PUSH1 0x0 DUP4 ADD MSTORE PUSH2 0x41F DUP2 PUSH2 0x342 JUMP JUMPDEST SWAP1 POP SWAP2 SWAP1 POP JUMP JUMPDEST PUSH1 0x0 PUSH1 0x20 DUP3 ADD SWAP1 POP DUP2 DUP2 SUB PUSH1 0x0 DUP4 ADD MSTORE PUSH2 0x43F DUP2 PUSH2 0x365 JUMP JUMPDEST SWAP1 POP SWAP2 SWAP1 POP JUMP JUMPDEST PUSH1 0x0 PUSH1 0x20 DUP3 ADD SWAP1 POP PUSH2 0x45B PUSH1 0x0 DUP4 ADD DUP5 PUSH2 0x3AB JUMP JUMPDEST SWAP3 SWAP2 POP POP JUMP JUMPDEST PUSH1 0x0 DUP2 SWAP1 POP SWAP3 SWAP2 POP POP JUMP JUMPDEST PUSH1 0x0 DUP3 DUP3 MSTORE PUSH1 0x20 DUP3 ADD SWAP1 POP SWAP3 SWAP2 POP POP JUMP JUMPDEST PUSH1 0x0 PUSH2 0x488 DUP3 PUSH2 0x48F JUMP JUMPDEST SWAP1 POP SWAP2 SWAP1 POP JUMP JUMPDEST PUSH1 0x0 PUSH20 0xFFFFFFFFFFFFFFFFFFFFFFFFFFFFFFFFFFFFFFFF DUP3 AND SWAP1 POP SWAP2 SWAP1 POP JUMP JUMPDEST PUSH1 0x0 DUP2 SWAP1 POP SWAP2 SWAP1 POP JUMP JUMPDEST PUSH1 0x0 DUP1 REVERT JUMPDEST PUSH32 0x43616C6C206661696C6564000000000000000000000000000000000000000000 PUSH1 0x0 DUP3 ADD MSTORE POP JUMP JUMPDEST PUSH32 0x546865206C6F636B206973206C6F636B65642E00000000000000000000000000 PUSH1 0x0 DUP3 ADD MSTORE POP JUMP JUMPDEST POP JUMP JUMPDEST PUSH2 0x51C DUP2 PUSH2 0x47D JUMP JUMPDEST DUP2 EQ PUSH2 0x527 JUMPI PUSH1 0x0 DUP1 REVERT JUMPDEST POP JUMP INVALID LOG2 PUSH5 0x6970667358 0x22 SLT KECCAK256 GAS PUSH27 0xE703EE487FDDF3FD1A6795DADDC30AD72DAC8E58F9F9E2600575D8 GASPRICE PUSH12 0xC164736F6C63430008070033 "
				},
				"gasEstimates": {
					"creation": {
						"codeDepositCost": "275200",
						"executionCost": "312",
						"totalCost": "275512"
					},
					"external": {
						"": "129",
						"getBalanceOfContract()": "339",
						"pay(address)": "infinite",
						"transderToContract()": "infinite"
					},
					"internal": {
						"_withdraw(uint256)": "infinite",
						"toTaskerBounty(address,uint256)": "infinite"
					}
				},
				"methodIdentifiers": {
					"getBalanceOfContract()": "22968885",
					"pay(address)": "0c11dedd",
					"transderToContract()": "460968dd"
				}
			},
			"storageLayout": {
				"storage": [
					{
						"astId": 15,
						"contract": "TransferService.sol:TransferService",
						"label": "locked",
						"offset": 0,
						"slot": "0",
						"type": "t_bool"
					}
				],
				"types": {
					"t_bool": {
						"encoding": "inplace",
						"label": "bool",
						"numberOfBytes": "1"
					}
				}
			},
			"userdoc": {
				"kind": "user",
				"methods": {},
				"version": 1
			}
		}
	}
}