{
	"TransferService.sol": {
		"TransferService": {
			"abi": [
				{
					"anonymous": false,
					"inputs": [
						{
							"indexed": false,
							"internalType": "address",
							"name": "",
							"type": "address"
						},
						{
							"indexed": false,
							"internalType": "address",
							"name": "",
							"type": "address"
						},
						{
							"indexed": false,
							"internalType": "uint256",
							"name": "",
							"type": "uint256"
						}
					],
					"name": "payEv",
					"type": "event"
				},
				{
					"stateMutability": "payable",
					"type": "fallback"
				},
				{
					"inputs": [],
					"name": "getBalanceOfContract",
					"outputs": [
						{
							"internalType": "uint256",
							"name": "",
							"type": "uint256"
						}
					],
					"stateMutability": "view",
					"type": "function"
				},
				{
					"inputs": [
						{
							"internalType": "address",
							"name": "_to",
							"type": "address"
						}
					],
					"name": "pay",
					"outputs": [],
					"stateMutability": "payable",
					"type": "function"
				},
				{
					"inputs": [],
					"name": "transderToContract",
					"outputs": [],
					"stateMutability": "payable",
					"type": "function"
				},
				{
					"stateMutability": "payable",
					"type": "receive"
				}
			],
			"devdoc": {
				"kind": "dev",
				"methods": {},
				"version": 1
			},
			"evm": {
				"assembly": "    /* \"TransferService.sol\":100:1786  contract TransferService {\r... */\n  mstore(0x40, 0x80)\n  callvalue\n  dup1\n  iszero\n  tag_1\n  jumpi\n  0x00\n  dup1\n  revert\ntag_1:\n  pop\n  dataSize(sub_0)\n  dup1\n  dataOffset(sub_0)\n  0x00\n  codecopy\n  0x00\n  return\nstop\n\nsub_0: assembly {\n        /* \"TransferService.sol\":100:1786  contract TransferService {\r... */\n      mstore(0x40, 0x80)\n      jumpi(tag_1, lt(calldatasize, 0x04))\n      shr(0xe0, calldataload(0x00))\n      dup1\n      0x0c11dedd\n      eq\n      tag_3\n      jumpi\n      dup1\n      0x22968885\n      eq\n      tag_4\n      jumpi\n      dup1\n      0x460968dd\n      eq\n      tag_5\n      jumpi\n      stop\n    tag_1:\n      jumpi(tag_2, calldatasize)\n      stop\n    tag_2:\n      stop\n        /* \"TransferService.sol\":1484:1701  function pay(address _to) public payable noLock{\r... */\n    tag_3:\n      tag_2\n      tag_11\n      calldatasize\n      0x04\n      tag_12\n      jump\t// in\n    tag_11:\n      tag_13\n      jump\t// in\n        /* \"TransferService.sol\":706:815  function getBalanceOfContract() public view returns (uint256) {\r... */\n    tag_4:\n      callvalue\n      dup1\n      iszero\n      tag_14\n      jumpi\n      0x00\n      dup1\n      revert\n    tag_14:\n      pop\n        /* \"TransferService.sol\":786:807  address(this).balance */\n      selfbalance\n        /* \"TransferService.sol\":706:815  function getBalanceOfContract() public view returns (uint256) {\r... */\n      mload(0x40)\n        /* \"#utility.yul\":1775:1800   */\n      swap1\n      dup2\n      mstore\n        /* \"#utility.yul\":1763:1765   */\n      0x20\n        /* \"#utility.yul\":1748:1766   */\n      add\n        /* \"TransferService.sol\":706:815  function getBalanceOfContract() public view returns (uint256) {\r... */\n      mload(0x40)\n      dup1\n      swap2\n      sub\n      swap1\n      return\n        /* \"TransferService.sol\":381:660  function transderToContract()  public payable{\r... */\n    tag_5:\n      tag_2\n      tag_20\n      jump\t// in\n        /* \"TransferService.sol\":1484:1701  function pay(address _to) public payable noLock{\r... */\n    tag_13:\n        /* \"TransferService.sol\":245:251  locked */\n      and(0xff, sload(0x00))\n        /* \"TransferService.sol\":244:251  !locked */\n      iszero\n        /* \"TransferService.sol\":236:275  require(!locked, \"The lock is locked.\") */\n      tag_22\n      jumpi\n      mload(0x40)\n      shl(0xe5, 0x461bcd)\n      dup2\n      mstore\n        /* \"#utility.yul\":1483:1485   */\n      0x20\n        /* \"TransferService.sol\":236:275  require(!locked, \"The lock is locked.\") */\n      0x04\n      dup3\n      add\n        /* \"#utility.yul\":1465:1486   */\n      mstore\n        /* \"#utility.yul\":1522:1524   */\n      0x13\n        /* \"#utility.yul\":1502:1520   */\n      0x24\n      dup3\n      add\n        /* \"#utility.yul\":1495:1525   */\n      mstore\n        /* \"#utility.yul\":1561:1582   */\n      0x546865206c6f636b206973206c6f636b65642e00000000000000000000000000\n        /* \"#utility.yul\":1541:1559   */\n      0x44\n      dup3\n      add\n        /* \"#utility.yul\":1534:1583   */\n      mstore\n        /* \"#utility.yul\":1600:1618   */\n      0x64\n      add\n        /* \"TransferService.sol\":236:275  require(!locked, \"The lock is locked.\") */\n    tag_23:\n      mload(0x40)\n      dup1\n      swap2\n      sub\n      swap1\n      revert\n    tag_22:\n        /* \"TransferService.sol\":286:292  locked */\n      0x00\n        /* \"TransferService.sol\":286:299  locked = true */\n      dup1\n      sload\n      not(0xff)\n      and\n        /* \"TransferService.sol\":295:299  true */\n      0x01\n        /* \"TransferService.sol\":286:299  locked = true */\n      or\n      dup2\n      sstore\n        /* \"TransferService.sol\":1563:1602  payable(_to).call{value: msg.value}(\"\") */\n      mload(0x40)\n      sub(shl(0xa0, 0x01), 0x01)\n        /* \"TransferService.sol\":1563:1580  payable(_to).call */\n      dup4\n      and\n      swap1\n        /* \"TransferService.sol\":1588:1597  msg.value */\n      callvalue\n      swap1\n        /* \"TransferService.sol\":286:292  locked */\n      dup4\n        /* \"TransferService.sol\":1563:1602  payable(_to).call{value: msg.value}(\"\") */\n      dup2\n        /* \"TransferService.sol\":286:292  locked */\n      dup2\n        /* \"TransferService.sol\":1563:1602  payable(_to).call{value: msg.value}(\"\") */\n      dup2\n        /* \"TransferService.sol\":1588:1597  msg.value */\n      dup6\n        /* \"TransferService.sol\":1563:1580  payable(_to).call */\n      dup8\n        /* \"TransferService.sol\":1563:1602  payable(_to).call{value: msg.value}(\"\") */\n      gas\n      call\n      swap3\n      pop\n      pop\n      pop\n      returndatasize\n      dup1\n      0x00\n      dup2\n      eq\n      tag_30\n      jumpi\n      mload(0x40)\n      swap2\n      pop\n      and(add(returndatasize, 0x3f), not(0x1f))\n      dup3\n      add\n      0x40\n      mstore\n      returndatasize\n      dup3\n      mstore\n      returndatasize\n      0x00\n      0x20\n      dup5\n      add\n      returndatacopy\n      jump(tag_29)\n    tag_30:\n      0x60\n      swap2\n      pop\n    tag_29:\n      pop\n        /* \"TransferService.sol\":1541:1602  (bool callSuccess, )= payable(_to).call{value: msg.value}(\"\") */\n      pop\n      swap1\n      pop\n        /* \"TransferService.sol\":1620:1631  callSuccess */\n      dup1\n        /* \"TransferService.sol\":1612:1647  require(callSuccess, \"Call failed\") */\n      tag_31\n      jumpi\n      mload(0x40)\n      shl(0xe5, 0x461bcd)\n      dup2\n      mstore\n        /* \"#utility.yul\":1143:1145   */\n      0x20\n        /* \"TransferService.sol\":1612:1647  require(callSuccess, \"Call failed\") */\n      0x04\n      dup3\n      add\n        /* \"#utility.yul\":1125:1146   */\n      mstore\n        /* \"#utility.yul\":1182:1184   */\n      0x0b\n        /* \"#utility.yul\":1162:1180   */\n      0x24\n      dup3\n      add\n        /* \"#utility.yul\":1155:1185   */\n      mstore\n      shl(0xaa, 0x10d85b1b0819985a5b1959)\n        /* \"#utility.yul\":1201:1219   */\n      0x44\n      dup3\n      add\n        /* \"#utility.yul\":1194:1235   */\n      mstore\n        /* \"#utility.yul\":1252:1270   */\n      0x64\n      add\n        /* \"TransferService.sol\":1612:1647  require(callSuccess, \"Call failed\") */\n      tag_23\n        /* \"#utility.yul\":941:1276   */\n      jump\n        /* \"TransferService.sol\":1612:1647  require(callSuccess, \"Call failed\") */\n    tag_31:\n        /* \"TransferService.sol\":1662:1693  payEv(msg.sender,_to,msg.value) */\n      0x40\n      dup1\n      mload\n        /* \"TransferService.sol\":1668:1678  msg.sender */\n      caller\n        /* \"#utility.yul\":801:835   */\n      dup2\n      mstore\n      sub(shl(0xa0, 0x01), 0x01)\n        /* \"#utility.yul\":871:886   */\n      dup5\n      and\n        /* \"#utility.yul\":866:868   */\n      0x20\n        /* \"#utility.yul\":851:869   */\n      dup3\n      add\n        /* \"#utility.yul\":844:887   */\n      mstore\n        /* \"TransferService.sol\":1683:1692  msg.value */\n      callvalue\n        /* \"#utility.yul\":903:921   */\n      dup2\n      dup4\n      add\n        /* \"#utility.yul\":896:930   */\n      mstore\n        /* \"TransferService.sol\":1662:1693  payEv(msg.sender,_to,msg.value) */\n      swap1\n      mload\n      0xb37bd6f3ccfce130859d4569dc432409f423a7928e73eb5c5049a94e40f0c648\n      swap2\n      dup2\n      swap1\n      sub\n        /* \"#utility.yul\":728:730   */\n      0x60\n        /* \"TransferService.sol\":1662:1693  payEv(msg.sender,_to,msg.value) */\n      add\n      swap1\n      log1\n      pop\n      pop\n        /* \"TransferService.sol\":331:336  false */\n      0x00\n        /* \"TransferService.sol\":322:336  locked = false */\n      dup1\n      sload\n      not(0xff)\n      and\n      swap1\n      sstore\n        /* \"TransferService.sol\":1484:1701  function pay(address _to) public payable noLock{\r... */\n      jump\t// out\n        /* \"TransferService.sol\":381:660  function transderToContract()  public payable{\r... */\n    tag_20:\n        /* \"TransferService.sol\":452:501  payable(address(this)).call{value: msg.value}(\"\") */\n      mload(0x40)\n        /* \"TransferService.sol\":438:447  bool sent */\n      0x00\n      swap1\n        /* \"TransferService.sol\":468:472  this */\n      address\n      swap1\n        /* \"TransferService.sol\":487:496  msg.value */\n      callvalue\n      swap1\n        /* \"TransferService.sol\":438:447  bool sent */\n      dup4\n        /* \"TransferService.sol\":452:501  payable(address(this)).call{value: msg.value}(\"\") */\n      dup2\n        /* \"TransferService.sol\":438:447  bool sent */\n      dup2\n        /* \"TransferService.sol\":452:501  payable(address(this)).call{value: msg.value}(\"\") */\n      dup2\n        /* \"TransferService.sol\":487:496  msg.value */\n      dup6\n        /* \"TransferService.sol\":468:472  this */\n      dup8\n        /* \"TransferService.sol\":452:501  payable(address(this)).call{value: msg.value}(\"\") */\n      gas\n      call\n      swap3\n      pop\n      pop\n      pop\n      returndatasize\n      dup1\n      0x00\n      dup2\n      eq\n      tag_41\n      jumpi\n      mload(0x40)\n      swap2\n      pop\n      and(add(returndatasize, 0x3f), not(0x1f))\n      dup3\n      add\n      0x40\n      mstore\n      returndatasize\n      dup3\n      mstore\n      returndatasize\n      0x00\n      0x20\n      dup5\n      add\n      returndatacopy\n      jump(tag_40)\n    tag_41:\n      0x60\n      swap2\n      pop\n    tag_40:\n      pop\n        /* \"TransferService.sol\":437:501  (bool sent,) = payable(address(this)).call{value: msg.value}(\"\") */\n      pop\n      swap1\n      pop\n        /* \"TransferService.sol\":520:524  sent */\n      dup1\n        /* \"TransferService.sol\":512:540  require(sent, \"Call failed\") */\n      tag_42\n      jumpi\n      mload(0x40)\n      shl(0xe5, 0x461bcd)\n      dup2\n      mstore\n        /* \"#utility.yul\":1143:1145   */\n      0x20\n        /* \"TransferService.sol\":512:540  require(sent, \"Call failed\") */\n      0x04\n      dup3\n      add\n        /* \"#utility.yul\":1125:1146   */\n      mstore\n        /* \"#utility.yul\":1182:1184   */\n      0x0b\n        /* \"#utility.yul\":1162:1180   */\n      0x24\n      dup3\n      add\n        /* \"#utility.yul\":1155:1185   */\n      mstore\n      shl(0xaa, 0x10d85b1b0819985a5b1959)\n        /* \"#utility.yul\":1201:1219   */\n      0x44\n      dup3\n      add\n        /* \"#utility.yul\":1194:1235   */\n      mstore\n        /* \"#utility.yul\":1252:1270   */\n      0x64\n      add\n        /* \"TransferService.sol\":512:540  require(sent, \"Call failed\") */\n      tag_23\n        /* \"#utility.yul\":941:1276   */\n      jump\n        /* \"TransferService.sol\":512:540  require(sent, \"Call failed\") */\n    tag_42:\n        /* \"TransferService.sol\":556:597  payEv(msg.sender,address(this),msg.value) */\n      0x40\n      dup1\n      mload\n        /* \"TransferService.sol\":562:572  msg.sender */\n      caller\n        /* \"#utility.yul\":801:835   */\n      dup2\n      mstore\n        /* \"TransferService.sol\":581:585  this */\n      address\n        /* \"#utility.yul\":866:868   */\n      0x20\n        /* \"#utility.yul\":851:869   */\n      dup3\n      add\n        /* \"#utility.yul\":844:887   */\n      mstore\n        /* \"TransferService.sol\":587:596  msg.value */\n      callvalue\n        /* \"#utility.yul\":903:921   */\n      dup2\n      dup4\n      add\n        /* \"#utility.yul\":896:930   */\n      mstore\n        /* \"TransferService.sol\":556:597  payEv(msg.sender,address(this),msg.value) */\n      swap1\n      mload\n      0xb37bd6f3ccfce130859d4569dc432409f423a7928e73eb5c5049a94e40f0c648\n      swap2\n      dup2\n      swap1\n      sub\n        /* \"#utility.yul\":728:730   */\n      0x60\n        /* \"TransferService.sol\":556:597  payEv(msg.sender,address(this),msg.value) */\n      add\n      swap1\n      log1\n        /* \"TransferService.sol\":426:660  {\r... */\n      pop\n        /* \"TransferService.sol\":381:660  function transderToContract()  public payable{\r... */\n      jump\t// out\n        /* \"#utility.yul\":14:323   */\n    tag_12:\n        /* \"#utility.yul\":73:79   */\n      0x00\n        /* \"#utility.yul\":126:128   */\n      0x20\n        /* \"#utility.yul\":114:123   */\n      dup3\n        /* \"#utility.yul\":105:112   */\n      dup5\n        /* \"#utility.yul\":101:124   */\n      sub\n        /* \"#utility.yul\":97:129   */\n      slt\n        /* \"#utility.yul\":94:146   */\n      iszero\n      tag_47\n      jumpi\n        /* \"#utility.yul\":142:143   */\n      0x00\n        /* \"#utility.yul\":139:140   */\n      dup1\n        /* \"#utility.yul\":132:144   */\n      revert\n        /* \"#utility.yul\":94:146   */\n    tag_47:\n        /* \"#utility.yul\":181:190   */\n      dup2\n        /* \"#utility.yul\":168:191   */\n      calldataload\n      sub(shl(0xa0, 0x01), 0x01)\n        /* \"#utility.yul\":224:229   */\n      dup2\n        /* \"#utility.yul\":220:274   */\n      and\n        /* \"#utility.yul\":213:218   */\n      dup2\n        /* \"#utility.yul\":210:275   */\n      eq\n        /* \"#utility.yul\":200:293   */\n      tag_48\n      jumpi\n        /* \"#utility.yul\":289:290   */\n      0x00\n        /* \"#utility.yul\":286:287   */\n      dup1\n        /* \"#utility.yul\":279:291   */\n      revert\n        /* \"#utility.yul\":200:293   */\n    tag_48:\n        /* \"#utility.yul\":312:317   */\n      swap4\n        /* \"#utility.yul\":14:323   */\n      swap3\n      pop\n      pop\n      pop\n      jump\t// out\n\n    auxdata: 0xa2646970667358221220d8a41ae9c5127d27674616d980c1ad0d4d34a9bafd380ee9d941d9dc0637684c64736f6c63430008070033\n}\n",
				"bytecode": {
					"linkReferences": {},
					"object": "608060405234801561001057600080fd5b506102ec806100206000396000f3fe6080604052600436106100355760003560e01c80630c11dedd1461003e5780632296888514610051578063460968dd1461007157005b3661003c57005b005b61003c61004c366004610286565b610079565b34801561005d57600080fd5b504760405190815260200160405180910390f35b61003c6101bf565b60005460ff16156100d15760405162461bcd60e51b815260206004820152601360248201527f546865206c6f636b206973206c6f636b65642e0000000000000000000000000060448201526064015b60405180910390fd5b6000805460ff191660011781556040516001600160a01b0383169034908381818185875af1925050503d8060008114610126576040519150601f19603f3d011682016040523d82523d6000602084013e61012b565b606091505b505090508061016a5760405162461bcd60e51b815260206004820152600b60248201526a10d85b1b0819985a5b195960aa1b60448201526064016100c8565b604080513381526001600160a01b0384166020820152348183015290517fb37bd6f3ccfce130859d4569dc432409f423a7928e73eb5c5049a94e40f0c6489181900360600190a150506000805460ff19169055565b604051600090309034908381818185875af1925050503d8060008114610201576040519150601f19603f3d011682016040523d82523d6000602084013e610206565b606091505b50509050806102455760405162461bcd60e51b815260206004820152600b60248201526a10d85b1b0819985a5b195960aa1b60448201526064016100c8565b60408051338152306020820152348183015290517fb37bd6f3ccfce130859d4569dc432409f423a7928e73eb5c5049a94e40f0c6489181900360600190a150565b60006020828403121561029857600080fd5b81356001600160a01b03811681146102af57600080fd5b939250505056fea2646970667358221220d8a41ae9c5127d27674616d980c1ad0d4d34a9bafd380ee9d941d9dc0637684c64736f6c63430008070033",
					"opcodes": "PUSH1 0x80 PUSH1 0x40 MSTORE CALLVALUE DUP1 ISZERO PUSH2 0x10 JUMPI PUSH1 0x0 DUP1 REVERT JUMPDEST POP PUSH2 0x2EC DUP1 PUSH2 0x20 PUSH1 0x0 CODECOPY PUSH1 0x0 RETURN INVALID PUSH1 0x80 PUSH1 0x40 MSTORE PUSH1 0x4 CALLDATASIZE LT PUSH2 0x35 JUMPI PUSH1 0x0 CALLDATALOAD PUSH1 0xE0 SHR DUP1 PUSH4 0xC11DEDD EQ PUSH2 0x3E JUMPI DUP1 PUSH4 0x22968885 EQ PUSH2 0x51 JUMPI DUP1 PUSH4 0x460968DD EQ PUSH2 0x71 JUMPI STOP JUMPDEST CALLDATASIZE PUSH2 0x3C JUMPI STOP JUMPDEST STOP JUMPDEST PUSH2 0x3C PUSH2 0x4C CALLDATASIZE PUSH1 0x4 PUSH2 0x286 JUMP JUMPDEST PUSH2 0x79 JUMP JUMPDEST CALLVALUE DUP1 ISZERO PUSH2 0x5D JUMPI PUSH1 0x0 DUP1 REVERT JUMPDEST POP SELFBALANCE PUSH1 0x40 MLOAD SWAP1 DUP2 MSTORE PUSH1 0x20 ADD PUSH1 0x40 MLOAD DUP1 SWAP2 SUB SWAP1 RETURN JUMPDEST PUSH2 0x3C PUSH2 0x1BF JUMP JUMPDEST PUSH1 0x0 SLOAD PUSH1 0xFF AND ISZERO PUSH2 0xD1 JUMPI PUSH1 0x40 MLOAD PUSH3 0x461BCD PUSH1 0xE5 SHL DUP2 MSTORE PUSH1 0x20 PUSH1 0x4 DUP3 ADD MSTORE PUSH1 0x13 PUSH1 0x24 DUP3 ADD MSTORE PUSH32 0x546865206C6F636B206973206C6F636B65642E00000000000000000000000000 PUSH1 0x44 DUP3 ADD MSTORE PUSH1 0x64 ADD JUMPDEST PUSH1 0x40 MLOAD DUP1 SWAP2 SUB SWAP1 REVERT JUMPDEST PUSH1 0x0 DUP1 SLOAD PUSH1 0xFF NOT AND PUSH1 0x1 OR DUP2 SSTORE PUSH1 0x40 MLOAD PUSH1 0x1 PUSH1 0x1 PUSH1 0xA0 SHL SUB DUP4 AND SWAP1 CALLVALUE SWAP1 DUP4 DUP2 DUP2 DUP2 DUP6 DUP8 GAS CALL SWAP3 POP POP POP RETURNDATASIZE DUP1 PUSH1 0x0 DUP2 EQ PUSH2 0x126 JUMPI PUSH1 0x40 MLOAD SWAP2 POP PUSH1 0x1F NOT PUSH1 0x3F RETURNDATASIZE ADD AND DUP3 ADD PUSH1 0x40 MSTORE RETURNDATASIZE DUP3 MSTORE RETURNDATASIZE PUSH1 0x0 PUSH1 0x20 DUP5 ADD RETURNDATACOPY PUSH2 0x12B JUMP JUMPDEST PUSH1 0x60 SWAP2 POP JUMPDEST POP POP SWAP1 POP DUP1 PUSH2 0x16A JUMPI PUSH1 0x40 MLOAD PUSH3 0x461BCD PUSH1 0xE5 SHL DUP2 MSTORE PUSH1 0x20 PUSH1 0x4 DUP3 ADD MSTORE PUSH1 0xB PUSH1 0x24 DUP3 ADD MSTORE PUSH11 0x10D85B1B0819985A5B1959 PUSH1 0xAA SHL PUSH1 0x44 DUP3 ADD MSTORE PUSH1 0x64 ADD PUSH2 0xC8 JUMP JUMPDEST PUSH1 0x40 DUP1 MLOAD CALLER DUP2 MSTORE PUSH1 0x1 PUSH1 0x1 PUSH1 0xA0 SHL SUB DUP5 AND PUSH1 0x20 DUP3 ADD MSTORE CALLVALUE DUP2 DUP4 ADD MSTORE SWAP1 MLOAD PUSH32 0xB37BD6F3CCFCE130859D4569DC432409F423A7928E73EB5C5049A94E40F0C648 SWAP2 DUP2 SWAP1 SUB PUSH1 0x60 ADD SWAP1 LOG1 POP POP PUSH1 0x0 DUP1 SLOAD PUSH1 0xFF NOT AND SWAP1 SSTORE JUMP JUMPDEST PUSH1 0x40 MLOAD PUSH1 0x0 SWAP1 ADDRESS SWAP1 CALLVALUE SWAP1 DUP4 DUP2 DUP2 DUP2 DUP6 DUP8 GAS CALL SWAP3 POP POP POP RETURNDATASIZE DUP1 PUSH1 0x0 DUP2 EQ PUSH2 0x201 JUMPI PUSH1 0x40 MLOAD SWAP2 POP PUSH1 0x1F NOT PUSH1 0x3F RETURNDATASIZE ADD AND DUP3 ADD PUSH1 0x40 MSTORE RETURNDATASIZE DUP3 MSTORE RETURNDATASIZE PUSH1 0x0 PUSH1 0x20 DUP5 ADD RETURNDATACOPY PUSH2 0x206 JUMP JUMPDEST PUSH1 0x60 SWAP2 POP JUMPDEST POP POP SWAP1 POP DUP1 PUSH2 0x245 JUMPI PUSH1 0x40 MLOAD PUSH3 0x461BCD PUSH1 0xE5 SHL DUP2 MSTORE PUSH1 0x20 PUSH1 0x4 DUP3 ADD MSTORE PUSH1 0xB PUSH1 0x24 DUP3 ADD MSTORE PUSH11 0x10D85B1B0819985A5B1959 PUSH1 0xAA SHL PUSH1 0x44 DUP3 ADD MSTORE PUSH1 0x64 ADD PUSH2 0xC8 JUMP JUMPDEST PUSH1 0x40 DUP1 MLOAD CALLER DUP2 MSTORE ADDRESS PUSH1 0x20 DUP3 ADD MSTORE CALLVALUE DUP2 DUP4 ADD MSTORE SWAP1 MLOAD PUSH32 0xB37BD6F3CCFCE130859D4569DC432409F423A7928E73EB5C5049A94E40F0C648 SWAP2 DUP2 SWAP1 SUB PUSH1 0x60 ADD SWAP1 LOG1 POP JUMP JUMPDEST PUSH1 0x0 PUSH1 0x20 DUP3 DUP5 SUB SLT ISZERO PUSH2 0x298 JUMPI PUSH1 0x0 DUP1 REVERT JUMPDEST DUP2 CALLDATALOAD PUSH1 0x1 PUSH1 0x1 PUSH1 0xA0 SHL SUB DUP2 AND DUP2 EQ PUSH2 0x2AF JUMPI PUSH1 0x0 DUP1 REVERT JUMPDEST SWAP4 SWAP3 POP POP POP JUMP INVALID LOG2 PUSH5 0x6970667358 0x22 SLT KECCAK256 0xD8 LOG4 BYTE 0xE9 0xC5 SLT PUSH30 0x27674616D980C1AD0D4D34A9BAFD380EE9D941D9DC0637684C64736F6C63 NUMBER STOP ADDMOD SMOD STOP CALLER "
				},
				"gasEstimates": {
					"creation": {
						"codeDepositCost": "149600",
						"executionCost": "196",
						"totalCost": "149796"
					},
					"external": {
						"": "117",
						"getBalanceOfContract()": "170",
						"pay(address)": "infinite",
						"transderToContract()": "infinite"
					},
					"internal": {
						"_withdraw()": "infinite",
						"toTaskerBounty(address,uint256)": "infinite"
					}
				},
				"methodIdentifiers": {
					"getBalanceOfContract()": "22968885",
					"pay(address)": "0c11dedd",
					"transderToContract()": "460968dd"
				}
			},
			"storageLayout": {
				"storage": [
					{
						"astId": 12,
						"contract": "TransferService.sol:TransferService",
						"label": "locked",
						"offset": 0,
						"slot": "0",
						"type": "t_bool"
					}
				],
				"types": {
					"t_bool": {
						"encoding": "inplace",
						"label": "bool",
						"numberOfBytes": "1"
					}
				}
			},
			"userdoc": {
				"kind": "user",
				"methods": {},
				"version": 1
			}
		}
	}
}