{
	"TransferService.sol": {
		"TransferService": {
			"abi": [
				{
					"anonymous": false,
					"inputs": [
						{
							"indexed": true,
							"internalType": "address",
							"name": "previousOwner",
							"type": "address"
						},
						{
							"indexed": true,
							"internalType": "address",
							"name": "newOwner",
							"type": "address"
						}
					],
					"name": "OwnershipTransferred",
					"type": "event"
				},
				{
					"anonymous": false,
					"inputs": [
						{
							"indexed": false,
							"internalType": "address",
							"name": "from",
							"type": "address"
						},
						{
							"indexed": false,
							"internalType": "address",
							"name": "to",
							"type": "address"
						},
						{
							"indexed": false,
							"internalType": "uint256",
							"name": "money",
							"type": "uint256"
						}
					],
					"name": "payEv",
					"type": "event"
				},
				{
					"stateMutability": "payable",
					"type": "fallback"
				},
				{
					"inputs": [],
					"name": "getBalanceOfContract",
					"outputs": [
						{
							"internalType": "uint256",
							"name": "",
							"type": "uint256"
						}
					],
					"stateMutability": "view",
					"type": "function"
				},
				{
					"inputs": [],
					"name": "owner",
					"outputs": [
						{
							"internalType": "address",
							"name": "",
							"type": "address"
						}
					],
					"stateMutability": "view",
					"type": "function"
				},
				{
					"inputs": [],
					"name": "renounceOwnership",
					"outputs": [],
					"stateMutability": "nonpayable",
					"type": "function"
				},
				{
					"inputs": [
						{
							"internalType": "address",
							"name": "_address",
							"type": "address"
						}
					],
					"name": "setAccessAddress",
					"outputs": [],
					"stateMutability": "nonpayable",
					"type": "function"
				},
				{
					"inputs": [
						{
							"internalType": "address",
							"name": "_to",
							"type": "address"
						},
						{
							"internalType": "uint256",
							"name": "_bounty",
							"type": "uint256"
						}
					],
					"name": "toTaskerBounty",
					"outputs": [],
					"stateMutability": "nonpayable",
					"type": "function"
				},
				{
					"inputs": [],
					"name": "transderToContract",
					"outputs": [],
					"stateMutability": "payable",
					"type": "function"
				},
				{
					"inputs": [
						{
							"internalType": "address",
							"name": "newOwner",
							"type": "address"
						}
					],
					"name": "transferOwnership",
					"outputs": [],
					"stateMutability": "nonpayable",
					"type": "function"
				},
				{
					"inputs": [
						{
							"internalType": "uint256",
							"name": "_money",
							"type": "uint256"
						}
					],
					"name": "withdraw",
					"outputs": [],
					"stateMutability": "nonpayable",
					"type": "function"
				},
				{
					"inputs": [],
					"name": "withdrawAll",
					"outputs": [],
					"stateMutability": "nonpayable",
					"type": "function"
				},
				{
					"stateMutability": "payable",
					"type": "receive"
				}
			],
			"devdoc": {
				"kind": "dev",
				"methods": {
					"owner()": {
						"details": "Returns the address of the current owner."
					},
					"renounceOwnership()": {
						"details": "Leaves the contract without owner. It will not be possible to call `onlyOwner` functions anymore. Can only be called by the current owner. NOTE: Renouncing ownership will leave the contract without an owner, thereby removing any functionality that is only available to the owner."
					},
					"transferOwnership(address)": {
						"details": "Transfers ownership of the contract to a new account (`newOwner`). Can only be called by the current owner."
					}
				},
				"version": 1
			},
			"evm": {
				"assembly": "    /* \"TransferService.sol\":102:2304  contract TransferService is Ownable{\r... */\n  mstore(0x40, 0x80)\n  callvalue\n  dup1\n  iszero\n  tag_1\n  jumpi\n  0x00\n  dup1\n  revert\ntag_1:\n  pop\n    /* \"contracts/access/Ownable.sol\":936:968  _transferOwnership(_msgSender()) */\n  tag_4\n    /* \"contracts/utils/Context.sol\":719:729  msg.sender */\n  caller\n    /* \"contracts/access/Ownable.sol\":936:954  _transferOwnership */\n  tag_7\n    /* \"contracts/access/Ownable.sol\":936:968  _transferOwnership(_msgSender()) */\n  jump\t// in\ntag_4:\n    /* \"TransferService.sol\":102:2304  contract TransferService is Ownable{\r... */\n  jump(tag_8)\n    /* \"contracts/access/Ownable.sol\":2433:2620  function _transferOwnership(address newOwner) internal virtual {... */\ntag_7:\n    /* \"contracts/access/Ownable.sol\":2506:2522  address oldOwner */\n  0x00\n    /* \"contracts/access/Ownable.sol\":2525:2531  _owner */\n  dup1\n  sload\n  sub(shl(0xa0, 0x01), 0x01)\n    /* \"contracts/access/Ownable.sol\":2541:2558  _owner = newOwner */\n  dup4\n  dup2\n  and\n  not(sub(shl(0xa0, 0x01), 0x01))\n  dup4\n  and\n  dup2\n  or\n  dup5\n  sstore\n    /* \"contracts/access/Ownable.sol\":2573:2613  OwnershipTransferred(oldOwner, newOwner) */\n  mload(0x40)\n    /* \"contracts/access/Ownable.sol\":2525:2531  _owner */\n  swap2\n  swap1\n  swap3\n  and\n  swap3\n  dup4\n  swap2\n    /* \"contracts/access/Ownable.sol\":2573:2613  OwnershipTransferred(oldOwner, newOwner) */\n  0x8be0079c531659141344cd1fd0a4f28419497f9722a3daafe3b4186f6b6457e0\n  swap2\n    /* \"contracts/access/Ownable.sol\":2506:2522  address oldOwner */\n  swap1\n    /* \"contracts/access/Ownable.sol\":2573:2613  OwnershipTransferred(oldOwner, newOwner) */\n  log3\n    /* \"contracts/access/Ownable.sol\":2496:2620  {... */\n  pop\n    /* \"contracts/access/Ownable.sol\":2433:2620  function _transferOwnership(address newOwner) internal virtual {... */\n  pop\n  jump\t// out\n    /* \"TransferService.sol\":102:2304  contract TransferService is Ownable{\r... */\ntag_8:\n  dataSize(sub_0)\n  dup1\n  dataOffset(sub_0)\n  0x00\n  codecopy\n  0x00\n  return\nstop\n\nsub_0: assembly {\n        /* \"TransferService.sol\":102:2304  contract TransferService is Ownable{\r... */\n      mstore(0x40, 0x80)\n      jumpi(tag_1, lt(calldatasize, 0x04))\n      shr(0xe0, calldataload(0x00))\n      dup1\n      0x853828b6\n      gt\n      tag_12\n      jumpi\n      dup1\n      0xad5f7ab0\n      gt\n      tag_13\n      jumpi\n      dup1\n      0xad5f7ab0\n      eq\n      tag_9\n      jumpi\n      dup1\n      0xc6d30da4\n      eq\n      tag_10\n      jumpi\n      dup1\n      0xf2fde38b\n      eq\n      tag_11\n      jumpi\n      stop\n    tag_13:\n      dup1\n      0x853828b6\n      eq\n      tag_7\n      jumpi\n      dup1\n      0x8da5cb5b\n      eq\n      tag_8\n      jumpi\n      stop\n    tag_12:\n      dup1\n      0x22968885\n      eq\n      tag_3\n      jumpi\n      dup1\n      0x2e1a7d4d\n      eq\n      tag_4\n      jumpi\n      dup1\n      0x460968dd\n      eq\n      tag_5\n      jumpi\n      dup1\n      0x715018a6\n      eq\n      tag_6\n      jumpi\n      stop\n    tag_1:\n      jumpi(tag_2, calldatasize)\n      stop\n    tag_2:\n      stop\n        /* \"TransferService.sol\":975:1084  function getBalanceOfContract() public view returns (uint256) {\r... */\n    tag_3:\n      callvalue\n      dup1\n      iszero\n      tag_18\n      jumpi\n      0x00\n      dup1\n      revert\n    tag_18:\n      pop\n      mload(0x40)\n        /* \"TransferService.sol\":1055:1076  address(this).balance */\n      selfbalance\n        /* \"#utility.yul\":4005:4030   */\n      dup2\n      mstore\n        /* \"#utility.yul\":3993:3995   */\n      0x20\n        /* \"#utility.yul\":3978:3996   */\n      add\n        /* \"TransferService.sol\":975:1084  function getBalanceOfContract() public view returns (uint256) {\r... */\n    tag_21:\n      mload(0x40)\n      dup1\n      swap2\n      sub\n      swap1\n      return\n        /* \"TransferService.sol\":1118:1497  function withdraw(uint256 _money) public onlyOwner{\r... */\n    tag_4:\n      callvalue\n      dup1\n      iszero\n      tag_23\n      jumpi\n      0x00\n      dup1\n      revert\n    tag_23:\n      pop\n      tag_2\n      tag_25\n      calldatasize\n      0x04\n      tag_26\n      jump\t// in\n    tag_25:\n      tag_27\n      jump\t// in\n        /* \"TransferService.sol\":652:934  function transderToContract() public payable {\r... */\n    tag_5:\n      tag_2\n      tag_29\n      jump\t// in\n        /* \"contracts/access/Ownable.sol\":1831:1932  function renounceOwnership() public virtual onlyOwner {... */\n    tag_6:\n      callvalue\n      dup1\n      iszero\n      tag_30\n      jumpi\n      0x00\n      dup1\n      revert\n    tag_30:\n      pop\n      tag_2\n      tag_32\n      jump\t// in\n        /* \"TransferService.sol\":1505:1782  function withdrawAll() public onlyOwner{\r... */\n    tag_7:\n      callvalue\n      dup1\n      iszero\n      tag_33\n      jumpi\n      0x00\n      dup1\n      revert\n    tag_33:\n      pop\n      tag_2\n      tag_35\n      jump\t// in\n        /* \"contracts/access/Ownable.sol\":1201:1286  function owner() public view virtual returns (address) {... */\n    tag_8:\n      callvalue\n      dup1\n      iszero\n      tag_36\n      jumpi\n      0x00\n      dup1\n      revert\n    tag_36:\n      pop\n        /* \"contracts/access/Ownable.sol\":1247:1254  address */\n      0x00\n        /* \"contracts/access/Ownable.sol\":1273:1279  _owner */\n      sload\n        /* \"contracts/access/Ownable.sol\":1201:1286  function owner() public view virtual returns (address) {... */\n      mload(0x40)\n      sub(shl(0xa0, 0x01), 0x01)\n        /* \"contracts/access/Ownable.sol\":1273:1279  _owner */\n      swap1\n      swap2\n      and\n        /* \"#utility.yul\":1206:1280   */\n      dup2\n      mstore\n        /* \"#utility.yul\":1194:1196   */\n      0x20\n        /* \"#utility.yul\":1179:1197   */\n      add\n        /* \"contracts/access/Ownable.sol\":1201:1286  function owner() public view virtual returns (address) {... */\n      tag_21\n        /* \"#utility.yul\":1060:1286   */\n      jump\n        /* \"TransferService.sol\":513:616  function setAccessAddress(address _address) public onlyOwner{\r... */\n    tag_9:\n      callvalue\n      dup1\n      iszero\n      tag_41\n      jumpi\n      0x00\n      dup1\n      revert\n    tag_41:\n      pop\n      tag_2\n      tag_43\n      calldatasize\n      0x04\n      tag_44\n      jump\t// in\n    tag_43:\n      tag_45\n      jump\t// in\n        /* \"TransferService.sol\":1790:2228  function toTaskerBounty(address _to, uint256 _bounty) public noLock {\r... */\n    tag_10:\n      callvalue\n      dup1\n      iszero\n      tag_46\n      jumpi\n      0x00\n      dup1\n      revert\n    tag_46:\n      pop\n      tag_2\n      tag_48\n      calldatasize\n      0x04\n      tag_49\n      jump\t// in\n    tag_48:\n      tag_50\n      jump\t// in\n        /* \"contracts/access/Ownable.sol\":2081:2279  function transferOwnership(address newOwner) public virtual onlyOwner {... */\n    tag_11:\n      callvalue\n      dup1\n      iszero\n      tag_51\n      jumpi\n      0x00\n      dup1\n      revert\n    tag_51:\n      pop\n      tag_2\n      tag_53\n      calldatasize\n      0x04\n      tag_44\n      jump\t// in\n    tag_53:\n      tag_54\n      jump\t// in\n        /* \"TransferService.sol\":1118:1497  function withdraw(uint256 _money) public onlyOwner{\r... */\n    tag_27:\n        /* \"contracts/access/Ownable.sol\":1094:1107  _checkOwner() */\n      tag_57\n        /* \"contracts/access/Ownable.sol\":1094:1105  _checkOwner */\n      tag_58\n        /* \"contracts/access/Ownable.sol\":1094:1107  _checkOwner() */\n      jump\t// in\n    tag_57:\n        /* \"TransferService.sol\":1279:1295  bool callSuccess */\n      0x00\n        /* \"contracts/access/Ownable.sol\":1273:1279  _owner */\n      dup1\n      sload\n      sub(shl(0xa0, 0x01), 0x01)\n      and\n        /* \"TransferService.sol\":1344:1357  _money * 1e18 */\n      tag_61\n        /* \"TransferService.sol\":1344:1350  _money */\n      dup4\n        /* \"TransferService.sol\":1353:1357  1e18 */\n      0x0de0b6b3a7640000\n        /* \"TransferService.sol\":1344:1357  _money * 1e18 */\n      tag_62\n      jump\t// in\n    tag_61:\n        /* \"TransferService.sol\":1301:1372  payable(owner()).call{\r... */\n      mload(0x40)\n      0x00\n      dup2\n      dup2\n      dup2\n      dup6\n      dup8\n      gas\n      call\n      swap3\n      pop\n      pop\n      pop\n      returndatasize\n      dup1\n      0x00\n      dup2\n      eq\n      tag_67\n      jumpi\n      mload(0x40)\n      swap2\n      pop\n      and(add(returndatasize, 0x3f), not(0x1f))\n      dup3\n      add\n      0x40\n      mstore\n      returndatasize\n      dup3\n      mstore\n      returndatasize\n      0x00\n      0x20\n      dup5\n      add\n      returndatacopy\n      jump(tag_66)\n    tag_67:\n      0x60\n      swap2\n      pop\n    tag_66:\n      pop\n        /* \"TransferService.sol\":1278:1372  (bool callSuccess, ) = payable(owner()).call{\r... */\n      pop\n      swap1\n      pop\n        /* \"TransferService.sol\":1391:1402  callSuccess */\n      dup1\n        /* \"TransferService.sol\":1383:1418  require(callSuccess, \"Call failed\") */\n      tag_68\n      jumpi\n      mload(0x40)\n      shl(0xe5, 0x461bcd)\n      dup2\n      mstore\n        /* \"#utility.yul\":1896:1898   */\n      0x20\n        /* \"TransferService.sol\":1383:1418  require(callSuccess, \"Call failed\") */\n      0x04\n      dup3\n      add\n        /* \"#utility.yul\":1878:1899   */\n      mstore\n        /* \"#utility.yul\":1935:1937   */\n      0x0b\n        /* \"#utility.yul\":1915:1933   */\n      0x24\n      dup3\n      add\n        /* \"#utility.yul\":1908:1938   */\n      mstore\n      shl(0xaa, 0x10d85b1b0819985a5b1959)\n        /* \"#utility.yul\":1954:1972   */\n      0x44\n      dup3\n      add\n        /* \"#utility.yul\":1947:1988   */\n      mstore\n        /* \"#utility.yul\":2005:2023   */\n      0x64\n      add\n        /* \"TransferService.sol\":1383:1418  require(callSuccess, \"Call failed\") */\n    tag_69:\n      mload(0x40)\n      dup1\n      swap2\n      sub\n      swap1\n      revert\n    tag_68:\n        /* \"TransferService.sol\":1434:1489  payEv(address(this), msg.sender, address(this).balance) */\n      0x40\n      dup1\n      mload\n        /* \"TransferService.sol\":1448:1452  this */\n      address\n        /* \"#utility.yul\":1554:1588   */\n      dup2\n      mstore\n        /* \"TransferService.sol\":1455:1465  msg.sender */\n      caller\n        /* \"#utility.yul\":1619:1621   */\n      0x20\n        /* \"#utility.yul\":1604:1622   */\n      dup3\n      add\n        /* \"#utility.yul\":1597:1640   */\n      mstore\n        /* \"TransferService.sol\":1467:1488  address(this).balance */\n      selfbalance\n        /* \"#utility.yul\":1656:1674   */\n      dup2\n      dup4\n      add\n        /* \"#utility.yul\":1649:1683   */\n      mstore\n        /* \"TransferService.sol\":1434:1489  payEv(address(this), msg.sender, address(this).balance) */\n      swap1\n      mload\n      0xb37bd6f3ccfce130859d4569dc432409f423a7928e73eb5c5049a94e40f0c648\n      swap2\n      dup2\n      swap1\n      sub\n        /* \"#utility.yul\":1481:1483   */\n      0x60\n        /* \"TransferService.sol\":1434:1489  payEv(address(this), msg.sender, address(this).balance) */\n      add\n      swap1\n      log1\n        /* \"TransferService.sol\":1168:1497  {\r... */\n      pop\n        /* \"TransferService.sol\":1118:1497  function withdraw(uint256 _money) public onlyOwner{\r... */\n      pop\n      jump\t// out\n        /* \"TransferService.sol\":652:934  function transderToContract() public payable {\r... */\n    tag_29:\n        /* \"TransferService.sol\":724:773  payable(address(this)).call{value: msg.value}(\"\") */\n      mload(0x40)\n        /* \"TransferService.sol\":709:718  bool sent */\n      0x00\n      swap1\n        /* \"TransferService.sol\":740:744  this */\n      address\n      swap1\n        /* \"TransferService.sol\":759:768  msg.value */\n      callvalue\n      swap1\n        /* \"TransferService.sol\":709:718  bool sent */\n      dup4\n        /* \"TransferService.sol\":724:773  payable(address(this)).call{value: msg.value}(\"\") */\n      dup2\n        /* \"TransferService.sol\":709:718  bool sent */\n      dup2\n        /* \"TransferService.sol\":724:773  payable(address(this)).call{value: msg.value}(\"\") */\n      dup2\n        /* \"TransferService.sol\":759:768  msg.value */\n      dup6\n        /* \"TransferService.sol\":740:744  this */\n      dup8\n        /* \"TransferService.sol\":724:773  payable(address(this)).call{value: msg.value}(\"\") */\n      gas\n      call\n      swap3\n      pop\n      pop\n      pop\n      returndatasize\n      dup1\n      0x00\n      dup2\n      eq\n      tag_77\n      jumpi\n      mload(0x40)\n      swap2\n      pop\n      and(add(returndatasize, 0x3f), not(0x1f))\n      dup3\n      add\n      0x40\n      mstore\n      returndatasize\n      dup3\n      mstore\n      returndatasize\n      0x00\n      0x20\n      dup5\n      add\n      returndatacopy\n      jump(tag_76)\n    tag_77:\n      0x60\n      swap2\n      pop\n    tag_76:\n      pop\n        /* \"TransferService.sol\":708:773  (bool sent, ) = payable(address(this)).call{value: msg.value}(\"\") */\n      pop\n      swap1\n      pop\n        /* \"TransferService.sol\":792:796  sent */\n      dup1\n        /* \"TransferService.sol\":784:812  require(sent, \"Call failed\") */\n      tag_78\n      jumpi\n      mload(0x40)\n      shl(0xe5, 0x461bcd)\n      dup2\n      mstore\n        /* \"#utility.yul\":1896:1898   */\n      0x20\n        /* \"TransferService.sol\":784:812  require(sent, \"Call failed\") */\n      0x04\n      dup3\n      add\n        /* \"#utility.yul\":1878:1899   */\n      mstore\n        /* \"#utility.yul\":1935:1937   */\n      0x0b\n        /* \"#utility.yul\":1915:1933   */\n      0x24\n      dup3\n      add\n        /* \"#utility.yul\":1908:1938   */\n      mstore\n      shl(0xaa, 0x10d85b1b0819985a5b1959)\n        /* \"#utility.yul\":1954:1972   */\n      0x44\n      dup3\n      add\n        /* \"#utility.yul\":1947:1988   */\n      mstore\n        /* \"#utility.yul\":2005:2023   */\n      0x64\n      add\n        /* \"TransferService.sol\":784:812  require(sent, \"Call failed\") */\n      tag_69\n        /* \"#utility.yul\":1694:2029   */\n      jump\n        /* \"TransferService.sol\":784:812  require(sent, \"Call failed\") */\n    tag_78:\n        /* \"TransferService.sol\":828:871  payEv(msg.sender, address(this), msg.value) */\n      0x40\n      dup1\n      mload\n        /* \"TransferService.sol\":834:844  msg.sender */\n      caller\n        /* \"#utility.yul\":1554:1588   */\n      dup2\n      mstore\n        /* \"TransferService.sol\":854:858  this */\n      address\n        /* \"#utility.yul\":1619:1621   */\n      0x20\n        /* \"#utility.yul\":1604:1622   */\n      dup3\n      add\n        /* \"#utility.yul\":1597:1640   */\n      mstore\n        /* \"TransferService.sol\":861:870  msg.value */\n      callvalue\n        /* \"#utility.yul\":1656:1674   */\n      swap2\n      dup2\n      add\n        /* \"#utility.yul\":1649:1683   */\n      swap2\n      swap1\n      swap2\n      mstore\n        /* \"TransferService.sol\":828:871  payEv(msg.sender, address(this), msg.value) */\n      0xb37bd6f3ccfce130859d4569dc432409f423a7928e73eb5c5049a94e40f0c648\n      swap1\n        /* \"#utility.yul\":1481:1483   */\n      0x60\n        /* \"#utility.yul\":1466:1484   */\n      add\n        /* \"TransferService.sol\":828:871  payEv(msg.sender, address(this), msg.value) */\n    tag_80:\n      mload(0x40)\n      dup1\n      swap2\n      sub\n      swap1\n      log1\n        /* \"TransferService.sol\":697:934  {\r... */\n      pop\n        /* \"TransferService.sol\":652:934  function transderToContract() public payable {\r... */\n      jump\t// out\n        /* \"contracts/access/Ownable.sol\":1831:1932  function renounceOwnership() public virtual onlyOwner {... */\n    tag_32:\n        /* \"contracts/access/Ownable.sol\":1094:1107  _checkOwner() */\n      tag_82\n        /* \"contracts/access/Ownable.sol\":1094:1105  _checkOwner */\n      tag_58\n        /* \"contracts/access/Ownable.sol\":1094:1107  _checkOwner() */\n      jump\t// in\n    tag_82:\n        /* \"contracts/access/Ownable.sol\":1895:1925  _transferOwnership(address(0)) */\n      tag_84\n        /* \"contracts/access/Ownable.sol\":1922:1923  0 */\n      0x00\n        /* \"contracts/access/Ownable.sol\":1895:1913  _transferOwnership */\n      tag_85\n        /* \"contracts/access/Ownable.sol\":1895:1925  _transferOwnership(address(0)) */\n      jump\t// in\n    tag_84:\n        /* \"contracts/access/Ownable.sol\":1831:1932  function renounceOwnership() public virtual onlyOwner {... */\n      jump\t// out\n        /* \"TransferService.sol\":1505:1782  function withdrawAll() public onlyOwner{\r... */\n    tag_35:\n        /* \"contracts/access/Ownable.sol\":1094:1107  _checkOwner() */\n      tag_87\n        /* \"contracts/access/Ownable.sol\":1094:1105  _checkOwner */\n      tag_58\n        /* \"contracts/access/Ownable.sol\":1094:1107  _checkOwner() */\n      jump\t// in\n    tag_87:\n        /* \"TransferService.sol\":1556:1572  bool callSuccess */\n      0x00\n        /* \"contracts/access/Ownable.sol\":1273:1279  _owner */\n      dup1\n      sload\n        /* \"TransferService.sol\":1578:1657  payable(owner()).call{\r... */\n      mload(0x40)\n      sub(shl(0xa0, 0x01), 0x01)\n        /* \"contracts/access/Ownable.sol\":1273:1279  _owner */\n      swap1\n      swap2\n      and\n      swap1\n        /* \"TransferService.sol\":1621:1642  address(this).balance */\n      selfbalance\n      swap1\n        /* \"TransferService.sol\":1556:1572  bool callSuccess */\n      dup4\n        /* \"TransferService.sol\":1578:1657  payable(owner()).call{\r... */\n      dup2\n        /* \"TransferService.sol\":1556:1572  bool callSuccess */\n      dup2\n        /* \"TransferService.sol\":1578:1657  payable(owner()).call{\r... */\n      dup2\n        /* \"TransferService.sol\":1621:1642  address(this).balance */\n      dup6\n        /* \"contracts/access/Ownable.sol\":1273:1279  _owner */\n      dup8\n        /* \"TransferService.sol\":1578:1657  payable(owner()).call{\r... */\n      gas\n      call\n      swap3\n      pop\n      pop\n      pop\n      returndatasize\n      dup1\n      0x00\n      dup2\n      eq\n      tag_93\n      jumpi\n      mload(0x40)\n      swap2\n      pop\n      and(add(returndatasize, 0x3f), not(0x1f))\n      dup3\n      add\n      0x40\n      mstore\n      returndatasize\n      dup3\n      mstore\n      returndatasize\n      0x00\n      0x20\n      dup5\n      add\n      returndatacopy\n      jump(tag_92)\n    tag_93:\n      0x60\n      swap2\n      pop\n    tag_92:\n      pop\n        /* \"TransferService.sol\":1555:1657  (bool callSuccess, ) = payable(owner()).call{\r... */\n      pop\n      swap1\n      pop\n        /* \"TransferService.sol\":1676:1687  callSuccess */\n      dup1\n        /* \"TransferService.sol\":1668:1703  require(callSuccess, \"Call failed\") */\n      tag_94\n      jumpi\n      mload(0x40)\n      shl(0xe5, 0x461bcd)\n      dup2\n      mstore\n        /* \"#utility.yul\":1896:1898   */\n      0x20\n        /* \"TransferService.sol\":1668:1703  require(callSuccess, \"Call failed\") */\n      0x04\n      dup3\n      add\n        /* \"#utility.yul\":1878:1899   */\n      mstore\n        /* \"#utility.yul\":1935:1937   */\n      0x0b\n        /* \"#utility.yul\":1915:1933   */\n      0x24\n      dup3\n      add\n        /* \"#utility.yul\":1908:1938   */\n      mstore\n      shl(0xaa, 0x10d85b1b0819985a5b1959)\n        /* \"#utility.yul\":1954:1972   */\n      0x44\n      dup3\n      add\n        /* \"#utility.yul\":1947:1988   */\n      mstore\n        /* \"#utility.yul\":2005:2023   */\n      0x64\n      add\n        /* \"TransferService.sol\":1668:1703  require(callSuccess, \"Call failed\") */\n      tag_69\n        /* \"#utility.yul\":1694:2029   */\n      jump\n        /* \"TransferService.sol\":1668:1703  require(callSuccess, \"Call failed\") */\n    tag_94:\n        /* \"TransferService.sol\":1719:1774  payEv(address(this), msg.sender, address(this).balance) */\n      0x40\n      dup1\n      mload\n        /* \"TransferService.sol\":1733:1737  this */\n      address\n        /* \"#utility.yul\":1554:1588   */\n      dup2\n      mstore\n        /* \"TransferService.sol\":1740:1750  msg.sender */\n      caller\n        /* \"#utility.yul\":1619:1621   */\n      0x20\n        /* \"#utility.yul\":1604:1622   */\n      dup3\n      add\n        /* \"#utility.yul\":1597:1640   */\n      mstore\n        /* \"TransferService.sol\":1752:1773  address(this).balance */\n      selfbalance\n        /* \"#utility.yul\":1656:1674   */\n      swap2\n      dup2\n      add\n        /* \"#utility.yul\":1649:1683   */\n      swap2\n      swap1\n      swap2\n      mstore\n        /* \"TransferService.sol\":1719:1774  payEv(address(this), msg.sender, address(this).balance) */\n      0xb37bd6f3ccfce130859d4569dc432409f423a7928e73eb5c5049a94e40f0c648\n      swap1\n        /* \"#utility.yul\":1481:1483   */\n      0x60\n        /* \"#utility.yul\":1466:1484   */\n      add\n        /* \"TransferService.sol\":1719:1774  payEv(address(this), msg.sender, address(this).balance) */\n      tag_80\n        /* \"#utility.yul\":1291:1689   */\n      jump\n        /* \"TransferService.sol\":513:616  function setAccessAddress(address _address) public onlyOwner{\r... */\n    tag_45:\n        /* \"contracts/access/Ownable.sol\":1094:1107  _checkOwner() */\n      tag_99\n        /* \"contracts/access/Ownable.sol\":1094:1105  _checkOwner */\n      tag_58\n        /* \"contracts/access/Ownable.sol\":1094:1107  _checkOwner() */\n      jump\t// in\n    tag_99:\n        /* \"TransferService.sol\":584:597  accessAddress */\n      0x01\n        /* \"TransferService.sol\":584:608  accessAddress = _address */\n      dup1\n      sload\n      not(0xffffffffffffffffffffffffffffffffffffffff)\n      and\n      sub(shl(0xa0, 0x01), 0x01)\n      swap3\n      swap1\n      swap3\n      and\n      swap2\n      swap1\n      swap2\n      or\n      swap1\n      sstore\n        /* \"TransferService.sol\":513:616  function setAccessAddress(address _address) public onlyOwner{\r... */\n      jump\t// out\n        /* \"TransferService.sol\":1790:2228  function toTaskerBounty(address _to, uint256 _bounty) public noLock {\r... */\n    tag_50:\n        /* \"TransferService.sol\":408:414  locked */\n      sload(0x00)\n      shl(0xa0, 0x01)\n      swap1\n      div\n      0xff\n      and\n        /* \"TransferService.sol\":407:414  !locked */\n      iszero\n        /* \"TransferService.sol\":399:438  require(!locked, \"The lock is locked.\") */\n      tag_102\n      jumpi\n      mload(0x40)\n      shl(0xe5, 0x461bcd)\n      dup2\n      mstore\n        /* \"#utility.yul\":2643:2645   */\n      0x20\n        /* \"TransferService.sol\":399:438  require(!locked, \"The lock is locked.\") */\n      0x04\n      dup3\n      add\n        /* \"#utility.yul\":2625:2646   */\n      mstore\n        /* \"#utility.yul\":2682:2684   */\n      0x13\n        /* \"#utility.yul\":2662:2680   */\n      0x24\n      dup3\n      add\n        /* \"#utility.yul\":2655:2685   */\n      mstore\n        /* \"#utility.yul\":2721:2742   */\n      0x546865206c6f636b206973206c6f636b65642e00000000000000000000000000\n        /* \"#utility.yul\":2701:2719   */\n      0x44\n      dup3\n      add\n        /* \"#utility.yul\":2694:2743   */\n      mstore\n        /* \"#utility.yul\":2760:2778   */\n      0x64\n      add\n        /* \"TransferService.sol\":399:438  require(!locked, \"The lock is locked.\") */\n      tag_69\n        /* \"#utility.yul\":2441:2784   */\n      jump\n        /* \"TransferService.sol\":399:438  require(!locked, \"The lock is locked.\") */\n    tag_102:\n        /* \"TransferService.sol\":449:455  locked */\n      0x00\n        /* \"TransferService.sol\":449:462  locked = true */\n      dup1\n      sload\n      not(shl(0xa0, 0xff))\n      and\n      shl(0xa0, 0x01)\n      or\n      swap1\n      sstore\n        /* \"TransferService.sol\":458:462  true */\n      0x01\n        /* \"TransferService.sol\":1891:1904  accessAddress */\n      sload\n        /* \"TransferService.sol\":1877:1887  msg.sender */\n      caller\n      sub(shl(0xa0, 0x01), 0x01)\n        /* \"TransferService.sol\":1891:1904  accessAddress */\n      swap1\n      swap2\n      and\n        /* \"TransferService.sol\":1877:1904  msg.sender == accessAddress */\n      eq\n        /* \"TransferService.sol\":1869:1929  require(msg.sender == accessAddress,\"Error Access Address!\") */\n      tag_106\n      jumpi\n      mload(0x40)\n      shl(0xe5, 0x461bcd)\n      dup2\n      mstore\n        /* \"#utility.yul\":3711:3713   */\n      0x20\n        /* \"TransferService.sol\":1869:1929  require(msg.sender == accessAddress,\"Error Access Address!\") */\n      0x04\n      dup3\n      add\n        /* \"#utility.yul\":3693:3714   */\n      mstore\n        /* \"#utility.yul\":3750:3752   */\n      0x15\n        /* \"#utility.yul\":3730:3748   */\n      0x24\n      dup3\n      add\n        /* \"#utility.yul\":3723:3753   */\n      mstore\n        /* \"#utility.yul\":3789:3812   */\n      0x4572726f72204163636573732041646472657373210000000000000000000000\n        /* \"#utility.yul\":3769:3787   */\n      0x44\n      dup3\n      add\n        /* \"#utility.yul\":3762:3813   */\n      mstore\n        /* \"#utility.yul\":3830:3848   */\n      0x64\n      add\n        /* \"TransferService.sol\":1869:1929  require(msg.sender == accessAddress,\"Error Access Address!\") */\n      tag_69\n        /* \"#utility.yul\":3509:3854   */\n      jump\n        /* \"TransferService.sol\":1869:1929  require(msg.sender == accessAddress,\"Error Access Address!\") */\n    tag_106:\n        /* \"TransferService.sol\":1988:1995  _bounty */\n      dup1\n        /* \"TransferService.sol\":1055:1076  address(this).balance */\n      selfbalance\n        /* \"TransferService.sol\":1962:1995  getBalanceOfContract() >= _bounty */\n      lt\n      iszero\n        /* \"TransferService.sol\":1940:2053  require(\r... */\n      tag_110\n      jumpi\n      mload(0x40)\n      shl(0xe5, 0x461bcd)\n      dup2\n      mstore\n        /* \"#utility.yul\":3352:3354   */\n      0x20\n        /* \"TransferService.sol\":1940:2053  require(\r... */\n      0x04\n      dup3\n      add\n        /* \"#utility.yul\":3334:3355   */\n      mstore\n        /* \"#utility.yul\":3391:3393   */\n      0x1e\n        /* \"#utility.yul\":3371:3389   */\n      0x24\n      dup3\n      add\n        /* \"#utility.yul\":3364:3394   */\n      mstore\n        /* \"#utility.yul\":3430:3462   */\n      0x5468652062616c616e6365206973206e6f742073756666696369656e742e0000\n        /* \"#utility.yul\":3410:3428   */\n      0x44\n      dup3\n      add\n        /* \"#utility.yul\":3403:3463   */\n      mstore\n        /* \"#utility.yul\":3480:3498   */\n      0x64\n      add\n        /* \"TransferService.sol\":1940:2053  require(\r... */\n      tag_69\n        /* \"#utility.yul\":3150:3504   */\n      jump\n        /* \"TransferService.sol\":1940:2053  require(\r... */\n    tag_110:\n        /* \"TransferService.sol\":2065:2081  bool callSuccess */\n      0x00\n        /* \"TransferService.sol\":2095:2098  _to */\n      dup3\n      sub(shl(0xa0, 0x01), 0x01)\n        /* \"TransferService.sol\":2087:2104  payable(_to).call */\n      and\n        /* \"TransferService.sol\":2112:2119  _bounty */\n      dup3\n        /* \"TransferService.sol\":2087:2124  payable(_to).call{value: _bounty}(\"\") */\n      mload(0x40)\n      0x00\n      mload(0x40)\n      dup1\n      dup4\n      sub\n      dup2\n      dup6\n      dup8\n      gas\n      call\n      swap3\n      pop\n      pop\n      pop\n      returndatasize\n      dup1\n      0x00\n      dup2\n      eq\n      tag_116\n      jumpi\n      mload(0x40)\n      swap2\n      pop\n      and(add(returndatasize, 0x3f), not(0x1f))\n      dup3\n      add\n      0x40\n      mstore\n      returndatasize\n      dup3\n      mstore\n      returndatasize\n      0x00\n      0x20\n      dup5\n      add\n      returndatacopy\n      jump(tag_115)\n    tag_116:\n      0x60\n      swap2\n      pop\n    tag_115:\n      pop\n        /* \"TransferService.sol\":2064:2124  (bool callSuccess, ) = payable(_to).call{value: _bounty}(\"\") */\n      pop\n      swap1\n      pop\n        /* \"TransferService.sol\":2143:2154  callSuccess */\n      dup1\n        /* \"TransferService.sol\":2135:2170  require(callSuccess, \"Call failed\") */\n      tag_117\n      jumpi\n      mload(0x40)\n      shl(0xe5, 0x461bcd)\n      dup2\n      mstore\n        /* \"#utility.yul\":1896:1898   */\n      0x20\n        /* \"TransferService.sol\":2135:2170  require(callSuccess, \"Call failed\") */\n      0x04\n      dup3\n      add\n        /* \"#utility.yul\":1878:1899   */\n      mstore\n        /* \"#utility.yul\":1935:1937   */\n      0x0b\n        /* \"#utility.yul\":1915:1933   */\n      0x24\n      dup3\n      add\n        /* \"#utility.yul\":1908:1938   */\n      mstore\n      shl(0xaa, 0x10d85b1b0819985a5b1959)\n        /* \"#utility.yul\":1954:1972   */\n      0x44\n      dup3\n      add\n        /* \"#utility.yul\":1947:1988   */\n      mstore\n        /* \"#utility.yul\":2005:2023   */\n      0x64\n      add\n        /* \"TransferService.sol\":2135:2170  require(callSuccess, \"Call failed\") */\n      tag_69\n        /* \"#utility.yul\":1694:2029   */\n      jump\n        /* \"TransferService.sol\":2135:2170  require(callSuccess, \"Call failed\") */\n    tag_117:\n        /* \"TransferService.sol\":2186:2220  payEv(address(this), _to, _bounty) */\n      0x40\n      dup1\n      mload\n        /* \"TransferService.sol\":2200:2204  this */\n      address\n        /* \"#utility.yul\":1554:1588   */\n      dup2\n      mstore\n      sub(shl(0xa0, 0x01), 0x01)\n        /* \"#utility.yul\":1624:1639   */\n      dup6\n      and\n        /* \"#utility.yul\":1619:1621   */\n      0x20\n        /* \"#utility.yul\":1604:1622   */\n      dup3\n      add\n        /* \"#utility.yul\":1597:1640   */\n      mstore\n        /* \"#utility.yul\":1656:1674   */\n      swap1\n      dup2\n      add\n        /* \"#utility.yul\":1649:1683   */\n      dup4\n      swap1\n      mstore\n        /* \"TransferService.sol\":2186:2220  payEv(address(this), _to, _bounty) */\n      0xb37bd6f3ccfce130859d4569dc432409f423a7928e73eb5c5049a94e40f0c648\n      swap1\n        /* \"#utility.yul\":1481:1483   */\n      0x60\n        /* \"#utility.yul\":1466:1484   */\n      add\n        /* \"TransferService.sol\":2186:2220  payEv(address(this), _to, _bounty) */\n      mload(0x40)\n      dup1\n      swap2\n      sub\n      swap1\n      log1\n      pop\n      pop\n        /* \"TransferService.sol\":494:499  false */\n      0x00\n        /* \"TransferService.sol\":485:499  locked = false */\n      dup1\n      sload\n      not(shl(0xa0, 0xff))\n      and\n      swap1\n      sstore\n      pop\n        /* \"TransferService.sol\":1790:2228  function toTaskerBounty(address _to, uint256 _bounty) public noLock {\r... */\n      jump\t// out\n        /* \"contracts/access/Ownable.sol\":2081:2279  function transferOwnership(address newOwner) public virtual onlyOwner {... */\n    tag_54:\n        /* \"contracts/access/Ownable.sol\":1094:1107  _checkOwner() */\n      tag_121\n        /* \"contracts/access/Ownable.sol\":1094:1105  _checkOwner */\n      tag_58\n        /* \"contracts/access/Ownable.sol\":1094:1107  _checkOwner() */\n      jump\t// in\n    tag_121:\n      sub(shl(0xa0, 0x01), 0x01)\n        /* \"contracts/access/Ownable.sol\":2169:2191  newOwner != address(0) */\n      dup2\n      and\n        /* \"contracts/access/Ownable.sol\":2161:2234  require(newOwner != address(0), \"Ownable: new owner is the zero address\") */\n      tag_123\n      jumpi\n      mload(0x40)\n      shl(0xe5, 0x461bcd)\n      dup2\n      mstore\n        /* \"#utility.yul\":2236:2238   */\n      0x20\n        /* \"contracts/access/Ownable.sol\":2161:2234  require(newOwner != address(0), \"Ownable: new owner is the zero address\") */\n      0x04\n      dup3\n      add\n        /* \"#utility.yul\":2218:2239   */\n      mstore\n        /* \"#utility.yul\":2275:2277   */\n      0x26\n        /* \"#utility.yul\":2255:2273   */\n      0x24\n      dup3\n      add\n        /* \"#utility.yul\":2248:2278   */\n      mstore\n        /* \"#utility.yul\":2314:2348   */\n      0x4f776e61626c653a206e6577206f776e657220697320746865207a65726f2061\n        /* \"#utility.yul\":2294:2312   */\n      0x44\n      dup3\n      add\n        /* \"#utility.yul\":2287:2349   */\n      mstore\n        /* \"#utility.yul\":2385:2393   */\n      0x6464726573730000000000000000000000000000000000000000000000000000\n        /* \"#utility.yul\":2365:2383   */\n      0x64\n      dup3\n      add\n        /* \"#utility.yul\":2358:2394   */\n      mstore\n        /* \"#utility.yul\":2411:2430   */\n      0x84\n      add\n        /* \"contracts/access/Ownable.sol\":2161:2234  require(newOwner != address(0), \"Ownable: new owner is the zero address\") */\n      tag_69\n        /* \"#utility.yul\":2034:2436   */\n      jump\n        /* \"contracts/access/Ownable.sol\":2161:2234  require(newOwner != address(0), \"Ownable: new owner is the zero address\") */\n    tag_123:\n        /* \"contracts/access/Ownable.sol\":2244:2272  _transferOwnership(newOwner) */\n      tag_126\n        /* \"contracts/access/Ownable.sol\":2263:2271  newOwner */\n      dup2\n        /* \"contracts/access/Ownable.sol\":2244:2262  _transferOwnership */\n      tag_85\n        /* \"contracts/access/Ownable.sol\":2244:2272  _transferOwnership(newOwner) */\n      jump\t// in\n    tag_126:\n        /* \"contracts/access/Ownable.sol\":2081:2279  function transferOwnership(address newOwner) public virtual onlyOwner {... */\n      pop\n      jump\t// out\n        /* \"contracts/access/Ownable.sol\":1359:1489  function _checkOwner() internal view virtual {... */\n    tag_58:\n        /* \"contracts/access/Ownable.sol\":1247:1254  address */\n      0x00\n        /* \"contracts/access/Ownable.sol\":1273:1279  _owner */\n      sload\n      sub(shl(0xa0, 0x01), 0x01)\n      and\n        /* \"contracts/utils/Context.sol\":719:729  msg.sender */\n      caller\n        /* \"contracts/access/Ownable.sol\":1422:1445  owner() == _msgSender() */\n      eq\n        /* \"contracts/access/Ownable.sol\":1414:1482  require(owner() == _msgSender(), \"Ownable: caller is not the owner\") */\n      tag_84\n      jumpi\n      mload(0x40)\n      shl(0xe5, 0x461bcd)\n      dup2\n      mstore\n        /* \"#utility.yul\":2991:2993   */\n      0x20\n        /* \"contracts/access/Ownable.sol\":1414:1482  require(owner() == _msgSender(), \"Ownable: caller is not the owner\") */\n      0x04\n      dup3\n      add\n        /* \"#utility.yul\":2973:2994   */\n      dup2\n      swap1\n      mstore\n        /* \"#utility.yul\":3010:3028   */\n      0x24\n      dup3\n      add\n        /* \"#utility.yul\":3003:3033   */\n      mstore\n        /* \"#utility.yul\":3069:3103   */\n      0x4f776e61626c653a2063616c6c6572206973206e6f7420746865206f776e6572\n        /* \"#utility.yul\":3049:3067   */\n      0x44\n      dup3\n      add\n        /* \"#utility.yul\":3042:3104   */\n      mstore\n        /* \"#utility.yul\":3121:3139   */\n      0x64\n      add\n        /* \"contracts/access/Ownable.sol\":1414:1482  require(owner() == _msgSender(), \"Ownable: caller is not the owner\") */\n      tag_69\n        /* \"#utility.yul\":2789:3145   */\n      jump\n        /* \"contracts/access/Ownable.sol\":2433:2620  function _transferOwnership(address newOwner) internal virtual {... */\n    tag_85:\n        /* \"contracts/access/Ownable.sol\":2506:2522  address oldOwner */\n      0x00\n        /* \"contracts/access/Ownable.sol\":2525:2531  _owner */\n      dup1\n      sload\n      sub(shl(0xa0, 0x01), 0x01)\n        /* \"contracts/access/Ownable.sol\":2541:2558  _owner = newOwner */\n      dup4\n      dup2\n      and\n      not(0xffffffffffffffffffffffffffffffffffffffff)\n      dup4\n      and\n      dup2\n      or\n      dup5\n      sstore\n        /* \"contracts/access/Ownable.sol\":2573:2613  OwnershipTransferred(oldOwner, newOwner) */\n      mload(0x40)\n        /* \"contracts/access/Ownable.sol\":2525:2531  _owner */\n      swap2\n      swap1\n      swap3\n      and\n      swap3\n      dup4\n      swap2\n        /* \"contracts/access/Ownable.sol\":2573:2613  OwnershipTransferred(oldOwner, newOwner) */\n      0x8be0079c531659141344cd1fd0a4f28419497f9722a3daafe3b4186f6b6457e0\n      swap2\n        /* \"contracts/access/Ownable.sol\":2506:2522  address oldOwner */\n      swap1\n        /* \"contracts/access/Ownable.sol\":2573:2613  OwnershipTransferred(oldOwner, newOwner) */\n      log3\n        /* \"contracts/access/Ownable.sol\":2496:2620  {... */\n      pop\n        /* \"contracts/access/Ownable.sol\":2433:2620  function _transferOwnership(address newOwner) internal virtual {... */\n      pop\n      jump\t// out\n        /* \"#utility.yul\":14:210   */\n    tag_137:\n        /* \"#utility.yul\":82:102   */\n      dup1\n      calldataload\n      sub(shl(0xa0, 0x01), 0x01)\n        /* \"#utility.yul\":131:185   */\n      dup2\n      and\n        /* \"#utility.yul\":121:186   */\n      dup2\n      eq\n        /* \"#utility.yul\":111:204   */\n      tag_139\n      jumpi\n        /* \"#utility.yul\":200:201   */\n      0x00\n        /* \"#utility.yul\":197:198   */\n      dup1\n        /* \"#utility.yul\":190:202   */\n      revert\n        /* \"#utility.yul\":111:204   */\n    tag_139:\n        /* \"#utility.yul\":14:210   */\n      swap2\n      swap1\n      pop\n      jump\t// out\n        /* \"#utility.yul\":215:401   */\n    tag_44:\n        /* \"#utility.yul\":274:280   */\n      0x00\n        /* \"#utility.yul\":327:329   */\n      0x20\n        /* \"#utility.yul\":315:324   */\n      dup3\n        /* \"#utility.yul\":306:313   */\n      dup5\n        /* \"#utility.yul\":302:325   */\n      sub\n        /* \"#utility.yul\":298:330   */\n      slt\n        /* \"#utility.yul\":295:347   */\n      iszero\n      tag_141\n      jumpi\n        /* \"#utility.yul\":343:344   */\n      0x00\n        /* \"#utility.yul\":340:341   */\n      dup1\n        /* \"#utility.yul\":333:345   */\n      revert\n        /* \"#utility.yul\":295:347   */\n    tag_141:\n        /* \"#utility.yul\":366:395   */\n      tag_142\n        /* \"#utility.yul\":385:394   */\n      dup3\n        /* \"#utility.yul\":366:395   */\n      tag_137\n      jump\t// in\n    tag_142:\n        /* \"#utility.yul\":356:395   */\n      swap4\n        /* \"#utility.yul\":215:401   */\n      swap3\n      pop\n      pop\n      pop\n      jump\t// out\n        /* \"#utility.yul\":406:660   */\n    tag_49:\n        /* \"#utility.yul\":474:480   */\n      0x00\n        /* \"#utility.yul\":482:488   */\n      dup1\n        /* \"#utility.yul\":535:537   */\n      0x40\n        /* \"#utility.yul\":523:532   */\n      dup4\n        /* \"#utility.yul\":514:521   */\n      dup6\n        /* \"#utility.yul\":510:533   */\n      sub\n        /* \"#utility.yul\":506:538   */\n      slt\n        /* \"#utility.yul\":503:555   */\n      iszero\n      tag_144\n      jumpi\n        /* \"#utility.yul\":551:552   */\n      0x00\n        /* \"#utility.yul\":548:549   */\n      dup1\n        /* \"#utility.yul\":541:553   */\n      revert\n        /* \"#utility.yul\":503:555   */\n    tag_144:\n        /* \"#utility.yul\":574:603   */\n      tag_145\n        /* \"#utility.yul\":593:602   */\n      dup4\n        /* \"#utility.yul\":574:603   */\n      tag_137\n      jump\t// in\n    tag_145:\n        /* \"#utility.yul\":564:603   */\n      swap5\n        /* \"#utility.yul\":650:652   */\n      0x20\n        /* \"#utility.yul\":635:653   */\n      swap4\n      swap1\n      swap4\n      add\n        /* \"#utility.yul\":622:654   */\n      calldataload\n      swap4\n      pop\n      pop\n      pop\n        /* \"#utility.yul\":406:660   */\n      jump\t// out\n        /* \"#utility.yul\":665:845   */\n    tag_26:\n        /* \"#utility.yul\":724:730   */\n      0x00\n        /* \"#utility.yul\":777:779   */\n      0x20\n        /* \"#utility.yul\":765:774   */\n      dup3\n        /* \"#utility.yul\":756:763   */\n      dup5\n        /* \"#utility.yul\":752:775   */\n      sub\n        /* \"#utility.yul\":748:780   */\n      slt\n        /* \"#utility.yul\":745:797   */\n      iszero\n      tag_147\n      jumpi\n        /* \"#utility.yul\":793:794   */\n      0x00\n        /* \"#utility.yul\":790:791   */\n      dup1\n        /* \"#utility.yul\":783:795   */\n      revert\n        /* \"#utility.yul\":745:797   */\n    tag_147:\n      pop\n        /* \"#utility.yul\":816:839   */\n      calldataload\n      swap2\n        /* \"#utility.yul\":665:845   */\n      swap1\n      pop\n      jump\t// out\n        /* \"#utility.yul\":4041:4363   */\n    tag_62:\n        /* \"#utility.yul\":4081:4088   */\n      0x00\n        /* \"#utility.yul\":4147:4148   */\n      dup2\n        /* \"#utility.yul\":4143:4144   */\n      0x00\n        /* \"#utility.yul\":4139:4145   */\n      not\n        /* \"#utility.yul\":4135:4149   */\n      div\n        /* \"#utility.yul\":4132:4133   */\n      dup4\n        /* \"#utility.yul\":4129:4150   */\n      gt\n        /* \"#utility.yul\":4124:4125   */\n      dup3\n        /* \"#utility.yul\":4117:4126   */\n      iszero\n        /* \"#utility.yul\":4110:4127   */\n      iszero\n        /* \"#utility.yul\":4106:4151   */\n      and\n        /* \"#utility.yul\":4103:4328   */\n      iszero\n      tag_159\n      jumpi\n        /* \"#utility.yul\":4184:4261   */\n      0x4e487b7100000000000000000000000000000000000000000000000000000000\n        /* \"#utility.yul\":4181:4182   */\n      0x00\n        /* \"#utility.yul\":4174:4262   */\n      mstore\n        /* \"#utility.yul\":4285:4289   */\n      0x11\n        /* \"#utility.yul\":4282:4283   */\n      0x04\n        /* \"#utility.yul\":4275:4290   */\n      mstore\n        /* \"#utility.yul\":4313:4317   */\n      0x24\n        /* \"#utility.yul\":4310:4311   */\n      0x00\n        /* \"#utility.yul\":4303:4318   */\n      revert\n        /* \"#utility.yul\":4103:4328   */\n    tag_159:\n      pop\n        /* \"#utility.yul\":4348:4357   */\n      mul\n      swap1\n        /* \"#utility.yul\":4041:4363   */\n      jump\t// out\n\n    auxdata: 0xa26469706673582212205a3c979689b7817264a257758d101f4e4cc40ad3e7556e5c9aaeeeb232552b1064736f6c63430008070033\n}\n",
				"bytecode": {
					"linkReferences": {},
					"object": "608060405234801561001057600080fd5b5061001a3361001f565b61006f565b600080546001600160a01b038381166001600160a01b0319831681178455604051919092169283917f8be0079c531659141344cd1fd0a4f28419497f9722a3daafe3b4186f6b6457e09190a35050565b6108ba8061007e6000396000f3fe6080604052600436106100915760003560e01c8063853828b611610063578063ad5f7ab01161004b578063ad5f7ab014610134578063c6d30da414610154578063f2fde38b1461017457005b8063853828b6146100f75780638da5cb5b1461010c57005b8063229688851461009a5780632e1a7d4d146100ba578063460968dd146100da578063715018a6146100e257005b3661009857005b005b3480156100a657600080fd5b506040514781526020015b60405180910390f35b3480156100c657600080fd5b506100986100d5366004610825565b610194565b610098610282565b3480156100ee57600080fd5b5061009861034e565b34801561010357600080fd5b50610098610362565b34801561011857600080fd5b506000546040516001600160a01b0390911681526020016100b1565b34801561014057600080fd5b5061009861014f3660046107d9565b61043a565b34801561016057600080fd5b5061009861016f3660046107fb565b610471565b34801561018057600080fd5b5061009861018f3660046107d9565b610676565b61019c610706565b600080546001600160a01b03166101bb83670de0b6b3a764000061083e565b604051600081818185875af1925050503d80600081146101f7576040519150601f19603f3d011682016040523d82523d6000602084013e6101fc565b606091505b50509050806102405760405162461bcd60e51b815260206004820152600b60248201526a10d85b1b0819985a5b195960aa1b60448201526064015b60405180910390fd5b60408051308152336020820152478183015290517fb37bd6f3ccfce130859d4569dc432409f423a7928e73eb5c5049a94e40f0c6489181900360600190a15050565b604051600090309034908381818185875af1925050503d80600081146102c4576040519150601f19603f3d011682016040523d82523d6000602084013e6102c9565b606091505b50509050806103085760405162461bcd60e51b815260206004820152600b60248201526a10d85b1b0819985a5b195960aa1b6044820152606401610237565b6040805133815230602082015234918101919091527fb37bd6f3ccfce130859d4569dc432409f423a7928e73eb5c5049a94e40f0c648906060015b60405180910390a150565b610356610706565b6103606000610760565b565b61036a610706565b600080546040516001600160a01b039091169047908381818185875af1925050503d80600081146103b7576040519150601f19603f3d011682016040523d82523d6000602084013e6103bc565b606091505b50509050806103fb5760405162461bcd60e51b815260206004820152600b60248201526a10d85b1b0819985a5b195960aa1b6044820152606401610237565b6040805130815233602082015247918101919091527fb37bd6f3ccfce130859d4569dc432409f423a7928e73eb5c5049a94e40f0c64890606001610343565b610442610706565b6001805473ffffffffffffffffffffffffffffffffffffffff19166001600160a01b0392909216919091179055565b600054600160a01b900460ff16156104cb5760405162461bcd60e51b815260206004820152601360248201527f546865206c6f636b206973206c6f636b65642e000000000000000000000000006044820152606401610237565b6000805460ff60a01b1916600160a01b179055600154336001600160a01b039091161461053a5760405162461bcd60e51b815260206004820152601560248201527f4572726f722041636365737320416464726573732100000000000000000000006044820152606401610237565b8047101561058a5760405162461bcd60e51b815260206004820152601e60248201527f5468652062616c616e6365206973206e6f742073756666696369656e742e00006044820152606401610237565b6000826001600160a01b03168260405160006040518083038185875af1925050503d80600081146105d7576040519150601f19603f3d011682016040523d82523d6000602084013e6105dc565b606091505b505090508061061b5760405162461bcd60e51b815260206004820152600b60248201526a10d85b1b0819985a5b195960aa1b6044820152606401610237565b604080513081526001600160a01b03851660208201529081018390527fb37bd6f3ccfce130859d4569dc432409f423a7928e73eb5c5049a94e40f0c6489060600160405180910390a150506000805460ff60a01b1916905550565b61067e610706565b6001600160a01b0381166106fa5760405162461bcd60e51b815260206004820152602660248201527f4f776e61626c653a206e6577206f776e657220697320746865207a65726f206160448201527f64647265737300000000000000000000000000000000000000000000000000006064820152608401610237565b61070381610760565b50565b6000546001600160a01b031633146103605760405162461bcd60e51b815260206004820181905260248201527f4f776e61626c653a2063616c6c6572206973206e6f7420746865206f776e65726044820152606401610237565b600080546001600160a01b0383811673ffffffffffffffffffffffffffffffffffffffff19831681178455604051919092169283917f8be0079c531659141344cd1fd0a4f28419497f9722a3daafe3b4186f6b6457e09190a35050565b80356001600160a01b03811681146107d457600080fd5b919050565b6000602082840312156107eb57600080fd5b6107f4826107bd565b9392505050565b6000806040838503121561080e57600080fd5b610817836107bd565b946020939093013593505050565b60006020828403121561083757600080fd5b5035919050565b600081600019048311821515161561087f577f4e487b7100000000000000000000000000000000000000000000000000000000600052601160045260246000fd5b50029056fea26469706673582212205a3c979689b7817264a257758d101f4e4cc40ad3e7556e5c9aaeeeb232552b1064736f6c63430008070033",
					"opcodes": "PUSH1 0x80 PUSH1 0x40 MSTORE CALLVALUE DUP1 ISZERO PUSH2 0x10 JUMPI PUSH1 0x0 DUP1 REVERT JUMPDEST POP PUSH2 0x1A CALLER PUSH2 0x1F JUMP JUMPDEST PUSH2 0x6F JUMP JUMPDEST PUSH1 0x0 DUP1 SLOAD PUSH1 0x1 PUSH1 0x1 PUSH1 0xA0 SHL SUB DUP4 DUP2 AND PUSH1 0x1 PUSH1 0x1 PUSH1 0xA0 SHL SUB NOT DUP4 AND DUP2 OR DUP5 SSTORE PUSH1 0x40 MLOAD SWAP2 SWAP1 SWAP3 AND SWAP3 DUP4 SWAP2 PUSH32 0x8BE0079C531659141344CD1FD0A4F28419497F9722A3DAAFE3B4186F6B6457E0 SWAP2 SWAP1 LOG3 POP POP JUMP JUMPDEST PUSH2 0x8BA DUP1 PUSH2 0x7E PUSH1 0x0 CODECOPY PUSH1 0x0 RETURN INVALID PUSH1 0x80 PUSH1 0x40 MSTORE PUSH1 0x4 CALLDATASIZE LT PUSH2 0x91 JUMPI PUSH1 0x0 CALLDATALOAD PUSH1 0xE0 SHR DUP1 PUSH4 0x853828B6 GT PUSH2 0x63 JUMPI DUP1 PUSH4 0xAD5F7AB0 GT PUSH2 0x4B JUMPI DUP1 PUSH4 0xAD5F7AB0 EQ PUSH2 0x134 JUMPI DUP1 PUSH4 0xC6D30DA4 EQ PUSH2 0x154 JUMPI DUP1 PUSH4 0xF2FDE38B EQ PUSH2 0x174 JUMPI STOP JUMPDEST DUP1 PUSH4 0x853828B6 EQ PUSH2 0xF7 JUMPI DUP1 PUSH4 0x8DA5CB5B EQ PUSH2 0x10C JUMPI STOP JUMPDEST DUP1 PUSH4 0x22968885 EQ PUSH2 0x9A JUMPI DUP1 PUSH4 0x2E1A7D4D EQ PUSH2 0xBA JUMPI DUP1 PUSH4 0x460968DD EQ PUSH2 0xDA JUMPI DUP1 PUSH4 0x715018A6 EQ PUSH2 0xE2 JUMPI STOP JUMPDEST CALLDATASIZE PUSH2 0x98 JUMPI STOP JUMPDEST STOP JUMPDEST CALLVALUE DUP1 ISZERO PUSH2 0xA6 JUMPI PUSH1 0x0 DUP1 REVERT JUMPDEST POP PUSH1 0x40 MLOAD SELFBALANCE DUP2 MSTORE PUSH1 0x20 ADD JUMPDEST PUSH1 0x40 MLOAD DUP1 SWAP2 SUB SWAP1 RETURN JUMPDEST CALLVALUE DUP1 ISZERO PUSH2 0xC6 JUMPI PUSH1 0x0 DUP1 REVERT JUMPDEST POP PUSH2 0x98 PUSH2 0xD5 CALLDATASIZE PUSH1 0x4 PUSH2 0x825 JUMP JUMPDEST PUSH2 0x194 JUMP JUMPDEST PUSH2 0x98 PUSH2 0x282 JUMP JUMPDEST CALLVALUE DUP1 ISZERO PUSH2 0xEE JUMPI PUSH1 0x0 DUP1 REVERT JUMPDEST POP PUSH2 0x98 PUSH2 0x34E JUMP JUMPDEST CALLVALUE DUP1 ISZERO PUSH2 0x103 JUMPI PUSH1 0x0 DUP1 REVERT JUMPDEST POP PUSH2 0x98 PUSH2 0x362 JUMP JUMPDEST CALLVALUE DUP1 ISZERO PUSH2 0x118 JUMPI PUSH1 0x0 DUP1 REVERT JUMPDEST POP PUSH1 0x0 SLOAD PUSH1 0x40 MLOAD PUSH1 0x1 PUSH1 0x1 PUSH1 0xA0 SHL SUB SWAP1 SWAP2 AND DUP2 MSTORE PUSH1 0x20 ADD PUSH2 0xB1 JUMP JUMPDEST CALLVALUE DUP1 ISZERO PUSH2 0x140 JUMPI PUSH1 0x0 DUP1 REVERT JUMPDEST POP PUSH2 0x98 PUSH2 0x14F CALLDATASIZE PUSH1 0x4 PUSH2 0x7D9 JUMP JUMPDEST PUSH2 0x43A JUMP JUMPDEST CALLVALUE DUP1 ISZERO PUSH2 0x160 JUMPI PUSH1 0x0 DUP1 REVERT JUMPDEST POP PUSH2 0x98 PUSH2 0x16F CALLDATASIZE PUSH1 0x4 PUSH2 0x7FB JUMP JUMPDEST PUSH2 0x471 JUMP JUMPDEST CALLVALUE DUP1 ISZERO PUSH2 0x180 JUMPI PUSH1 0x0 DUP1 REVERT JUMPDEST POP PUSH2 0x98 PUSH2 0x18F CALLDATASIZE PUSH1 0x4 PUSH2 0x7D9 JUMP JUMPDEST PUSH2 0x676 JUMP JUMPDEST PUSH2 0x19C PUSH2 0x706 JUMP JUMPDEST PUSH1 0x0 DUP1 SLOAD PUSH1 0x1 PUSH1 0x1 PUSH1 0xA0 SHL SUB AND PUSH2 0x1BB DUP4 PUSH8 0xDE0B6B3A7640000 PUSH2 0x83E JUMP JUMPDEST PUSH1 0x40 MLOAD PUSH1 0x0 DUP2 DUP2 DUP2 DUP6 DUP8 GAS CALL SWAP3 POP POP POP RETURNDATASIZE DUP1 PUSH1 0x0 DUP2 EQ PUSH2 0x1F7 JUMPI PUSH1 0x40 MLOAD SWAP2 POP PUSH1 0x1F NOT PUSH1 0x3F RETURNDATASIZE ADD AND DUP3 ADD PUSH1 0x40 MSTORE RETURNDATASIZE DUP3 MSTORE RETURNDATASIZE PUSH1 0x0 PUSH1 0x20 DUP5 ADD RETURNDATACOPY PUSH2 0x1FC JUMP JUMPDEST PUSH1 0x60 SWAP2 POP JUMPDEST POP POP SWAP1 POP DUP1 PUSH2 0x240 JUMPI PUSH1 0x40 MLOAD PUSH3 0x461BCD PUSH1 0xE5 SHL DUP2 MSTORE PUSH1 0x20 PUSH1 0x4 DUP3 ADD MSTORE PUSH1 0xB PUSH1 0x24 DUP3 ADD MSTORE PUSH11 0x10D85B1B0819985A5B1959 PUSH1 0xAA SHL PUSH1 0x44 DUP3 ADD MSTORE PUSH1 0x64 ADD JUMPDEST PUSH1 0x40 MLOAD DUP1 SWAP2 SUB SWAP1 REVERT JUMPDEST PUSH1 0x40 DUP1 MLOAD ADDRESS DUP2 MSTORE CALLER PUSH1 0x20 DUP3 ADD MSTORE SELFBALANCE DUP2 DUP4 ADD MSTORE SWAP1 MLOAD PUSH32 0xB37BD6F3CCFCE130859D4569DC432409F423A7928E73EB5C5049A94E40F0C648 SWAP2 DUP2 SWAP1 SUB PUSH1 0x60 ADD SWAP1 LOG1 POP POP JUMP JUMPDEST PUSH1 0x40 MLOAD PUSH1 0x0 SWAP1 ADDRESS SWAP1 CALLVALUE SWAP1 DUP4 DUP2 DUP2 DUP2 DUP6 DUP8 GAS CALL SWAP3 POP POP POP RETURNDATASIZE DUP1 PUSH1 0x0 DUP2 EQ PUSH2 0x2C4 JUMPI PUSH1 0x40 MLOAD SWAP2 POP PUSH1 0x1F NOT PUSH1 0x3F RETURNDATASIZE ADD AND DUP3 ADD PUSH1 0x40 MSTORE RETURNDATASIZE DUP3 MSTORE RETURNDATASIZE PUSH1 0x0 PUSH1 0x20 DUP5 ADD RETURNDATACOPY PUSH2 0x2C9 JUMP JUMPDEST PUSH1 0x60 SWAP2 POP JUMPDEST POP POP SWAP1 POP DUP1 PUSH2 0x308 JUMPI PUSH1 0x40 MLOAD PUSH3 0x461BCD PUSH1 0xE5 SHL DUP2 MSTORE PUSH1 0x20 PUSH1 0x4 DUP3 ADD MSTORE PUSH1 0xB PUSH1 0x24 DUP3 ADD MSTORE PUSH11 0x10D85B1B0819985A5B1959 PUSH1 0xAA SHL PUSH1 0x44 DUP3 ADD MSTORE PUSH1 0x64 ADD PUSH2 0x237 JUMP JUMPDEST PUSH1 0x40 DUP1 MLOAD CALLER DUP2 MSTORE ADDRESS PUSH1 0x20 DUP3 ADD MSTORE CALLVALUE SWAP2 DUP2 ADD SWAP2 SWAP1 SWAP2 MSTORE PUSH32 0xB37BD6F3CCFCE130859D4569DC432409F423A7928E73EB5C5049A94E40F0C648 SWAP1 PUSH1 0x60 ADD JUMPDEST PUSH1 0x40 MLOAD DUP1 SWAP2 SUB SWAP1 LOG1 POP JUMP JUMPDEST PUSH2 0x356 PUSH2 0x706 JUMP JUMPDEST PUSH2 0x360 PUSH1 0x0 PUSH2 0x760 JUMP JUMPDEST JUMP JUMPDEST PUSH2 0x36A PUSH2 0x706 JUMP JUMPDEST PUSH1 0x0 DUP1 SLOAD PUSH1 0x40 MLOAD PUSH1 0x1 PUSH1 0x1 PUSH1 0xA0 SHL SUB SWAP1 SWAP2 AND SWAP1 SELFBALANCE SWAP1 DUP4 DUP2 DUP2 DUP2 DUP6 DUP8 GAS CALL SWAP3 POP POP POP RETURNDATASIZE DUP1 PUSH1 0x0 DUP2 EQ PUSH2 0x3B7 JUMPI PUSH1 0x40 MLOAD SWAP2 POP PUSH1 0x1F NOT PUSH1 0x3F RETURNDATASIZE ADD AND DUP3 ADD PUSH1 0x40 MSTORE RETURNDATASIZE DUP3 MSTORE RETURNDATASIZE PUSH1 0x0 PUSH1 0x20 DUP5 ADD RETURNDATACOPY PUSH2 0x3BC JUMP JUMPDEST PUSH1 0x60 SWAP2 POP JUMPDEST POP POP SWAP1 POP DUP1 PUSH2 0x3FB JUMPI PUSH1 0x40 MLOAD PUSH3 0x461BCD PUSH1 0xE5 SHL DUP2 MSTORE PUSH1 0x20 PUSH1 0x4 DUP3 ADD MSTORE PUSH1 0xB PUSH1 0x24 DUP3 ADD MSTORE PUSH11 0x10D85B1B0819985A5B1959 PUSH1 0xAA SHL PUSH1 0x44 DUP3 ADD MSTORE PUSH1 0x64 ADD PUSH2 0x237 JUMP JUMPDEST PUSH1 0x40 DUP1 MLOAD ADDRESS DUP2 MSTORE CALLER PUSH1 0x20 DUP3 ADD MSTORE SELFBALANCE SWAP2 DUP2 ADD SWAP2 SWAP1 SWAP2 MSTORE PUSH32 0xB37BD6F3CCFCE130859D4569DC432409F423A7928E73EB5C5049A94E40F0C648 SWAP1 PUSH1 0x60 ADD PUSH2 0x343 JUMP JUMPDEST PUSH2 0x442 PUSH2 0x706 JUMP JUMPDEST PUSH1 0x1 DUP1 SLOAD PUSH20 0xFFFFFFFFFFFFFFFFFFFFFFFFFFFFFFFFFFFFFFFF NOT AND PUSH1 0x1 PUSH1 0x1 PUSH1 0xA0 SHL SUB SWAP3 SWAP1 SWAP3 AND SWAP2 SWAP1 SWAP2 OR SWAP1 SSTORE JUMP JUMPDEST PUSH1 0x0 SLOAD PUSH1 0x1 PUSH1 0xA0 SHL SWAP1 DIV PUSH1 0xFF AND ISZERO PUSH2 0x4CB JUMPI PUSH1 0x40 MLOAD PUSH3 0x461BCD PUSH1 0xE5 SHL DUP2 MSTORE PUSH1 0x20 PUSH1 0x4 DUP3 ADD MSTORE PUSH1 0x13 PUSH1 0x24 DUP3 ADD MSTORE PUSH32 0x546865206C6F636B206973206C6F636B65642E00000000000000000000000000 PUSH1 0x44 DUP3 ADD MSTORE PUSH1 0x64 ADD PUSH2 0x237 JUMP JUMPDEST PUSH1 0x0 DUP1 SLOAD PUSH1 0xFF PUSH1 0xA0 SHL NOT AND PUSH1 0x1 PUSH1 0xA0 SHL OR SWAP1 SSTORE PUSH1 0x1 SLOAD CALLER PUSH1 0x1 PUSH1 0x1 PUSH1 0xA0 SHL SUB SWAP1 SWAP2 AND EQ PUSH2 0x53A JUMPI PUSH1 0x40 MLOAD PUSH3 0x461BCD PUSH1 0xE5 SHL DUP2 MSTORE PUSH1 0x20 PUSH1 0x4 DUP3 ADD MSTORE PUSH1 0x15 PUSH1 0x24 DUP3 ADD MSTORE PUSH32 0x4572726F72204163636573732041646472657373210000000000000000000000 PUSH1 0x44 DUP3 ADD MSTORE PUSH1 0x64 ADD PUSH2 0x237 JUMP JUMPDEST DUP1 SELFBALANCE LT ISZERO PUSH2 0x58A JUMPI PUSH1 0x40 MLOAD PUSH3 0x461BCD PUSH1 0xE5 SHL DUP2 MSTORE PUSH1 0x20 PUSH1 0x4 DUP3 ADD MSTORE PUSH1 0x1E PUSH1 0x24 DUP3 ADD MSTORE PUSH32 0x5468652062616C616E6365206973206E6F742073756666696369656E742E0000 PUSH1 0x44 DUP3 ADD MSTORE PUSH1 0x64 ADD PUSH2 0x237 JUMP JUMPDEST PUSH1 0x0 DUP3 PUSH1 0x1 PUSH1 0x1 PUSH1 0xA0 SHL SUB AND DUP3 PUSH1 0x40 MLOAD PUSH1 0x0 PUSH1 0x40 MLOAD DUP1 DUP4 SUB DUP2 DUP6 DUP8 GAS CALL SWAP3 POP POP POP RETURNDATASIZE DUP1 PUSH1 0x0 DUP2 EQ PUSH2 0x5D7 JUMPI PUSH1 0x40 MLOAD SWAP2 POP PUSH1 0x1F NOT PUSH1 0x3F RETURNDATASIZE ADD AND DUP3 ADD PUSH1 0x40 MSTORE RETURNDATASIZE DUP3 MSTORE RETURNDATASIZE PUSH1 0x0 PUSH1 0x20 DUP5 ADD RETURNDATACOPY PUSH2 0x5DC JUMP JUMPDEST PUSH1 0x60 SWAP2 POP JUMPDEST POP POP SWAP1 POP DUP1 PUSH2 0x61B JUMPI PUSH1 0x40 MLOAD PUSH3 0x461BCD PUSH1 0xE5 SHL DUP2 MSTORE PUSH1 0x20 PUSH1 0x4 DUP3 ADD MSTORE PUSH1 0xB PUSH1 0x24 DUP3 ADD MSTORE PUSH11 0x10D85B1B0819985A5B1959 PUSH1 0xAA SHL PUSH1 0x44 DUP3 ADD MSTORE PUSH1 0x64 ADD PUSH2 0x237 JUMP JUMPDEST PUSH1 0x40 DUP1 MLOAD ADDRESS DUP2 MSTORE PUSH1 0x1 PUSH1 0x1 PUSH1 0xA0 SHL SUB DUP6 AND PUSH1 0x20 DUP3 ADD MSTORE SWAP1 DUP2 ADD DUP4 SWAP1 MSTORE PUSH32 0xB37BD6F3CCFCE130859D4569DC432409F423A7928E73EB5C5049A94E40F0C648 SWAP1 PUSH1 0x60 ADD PUSH1 0x40 MLOAD DUP1 SWAP2 SUB SWAP1 LOG1 POP POP PUSH1 0x0 DUP1 SLOAD PUSH1 0xFF PUSH1 0xA0 SHL NOT AND SWAP1 SSTORE POP JUMP JUMPDEST PUSH2 0x67E PUSH2 0x706 JUMP JUMPDEST PUSH1 0x1 PUSH1 0x1 PUSH1 0xA0 SHL SUB DUP2 AND PUSH2 0x6FA JUMPI PUSH1 0x40 MLOAD PUSH3 0x461BCD PUSH1 0xE5 SHL DUP2 MSTORE PUSH1 0x20 PUSH1 0x4 DUP3 ADD MSTORE PUSH1 0x26 PUSH1 0x24 DUP3 ADD MSTORE PUSH32 0x4F776E61626C653A206E6577206F776E657220697320746865207A65726F2061 PUSH1 0x44 DUP3 ADD MSTORE PUSH32 0x6464726573730000000000000000000000000000000000000000000000000000 PUSH1 0x64 DUP3 ADD MSTORE PUSH1 0x84 ADD PUSH2 0x237 JUMP JUMPDEST PUSH2 0x703 DUP2 PUSH2 0x760 JUMP JUMPDEST POP JUMP JUMPDEST PUSH1 0x0 SLOAD PUSH1 0x1 PUSH1 0x1 PUSH1 0xA0 SHL SUB AND CALLER EQ PUSH2 0x360 JUMPI PUSH1 0x40 MLOAD PUSH3 0x461BCD PUSH1 0xE5 SHL DUP2 MSTORE PUSH1 0x20 PUSH1 0x4 DUP3 ADD DUP2 SWAP1 MSTORE PUSH1 0x24 DUP3 ADD MSTORE PUSH32 0x4F776E61626C653A2063616C6C6572206973206E6F7420746865206F776E6572 PUSH1 0x44 DUP3 ADD MSTORE PUSH1 0x64 ADD PUSH2 0x237 JUMP JUMPDEST PUSH1 0x0 DUP1 SLOAD PUSH1 0x1 PUSH1 0x1 PUSH1 0xA0 SHL SUB DUP4 DUP2 AND PUSH20 0xFFFFFFFFFFFFFFFFFFFFFFFFFFFFFFFFFFFFFFFF NOT DUP4 AND DUP2 OR DUP5 SSTORE PUSH1 0x40 MLOAD SWAP2 SWAP1 SWAP3 AND SWAP3 DUP4 SWAP2 PUSH32 0x8BE0079C531659141344CD1FD0A4F28419497F9722A3DAAFE3B4186F6B6457E0 SWAP2 SWAP1 LOG3 POP POP JUMP JUMPDEST DUP1 CALLDATALOAD PUSH1 0x1 PUSH1 0x1 PUSH1 0xA0 SHL SUB DUP2 AND DUP2 EQ PUSH2 0x7D4 JUMPI PUSH1 0x0 DUP1 REVERT JUMPDEST SWAP2 SWAP1 POP JUMP JUMPDEST PUSH1 0x0 PUSH1 0x20 DUP3 DUP5 SUB SLT ISZERO PUSH2 0x7EB JUMPI PUSH1 0x0 DUP1 REVERT JUMPDEST PUSH2 0x7F4 DUP3 PUSH2 0x7BD JUMP JUMPDEST SWAP4 SWAP3 POP POP POP JUMP JUMPDEST PUSH1 0x0 DUP1 PUSH1 0x40 DUP4 DUP6 SUB SLT ISZERO PUSH2 0x80E JUMPI PUSH1 0x0 DUP1 REVERT JUMPDEST PUSH2 0x817 DUP4 PUSH2 0x7BD JUMP JUMPDEST SWAP5 PUSH1 0x20 SWAP4 SWAP1 SWAP4 ADD CALLDATALOAD SWAP4 POP POP POP JUMP JUMPDEST PUSH1 0x0 PUSH1 0x20 DUP3 DUP5 SUB SLT ISZERO PUSH2 0x837 JUMPI PUSH1 0x0 DUP1 REVERT JUMPDEST POP CALLDATALOAD SWAP2 SWAP1 POP JUMP JUMPDEST PUSH1 0x0 DUP2 PUSH1 0x0 NOT DIV DUP4 GT DUP3 ISZERO ISZERO AND ISZERO PUSH2 0x87F JUMPI PUSH32 0x4E487B7100000000000000000000000000000000000000000000000000000000 PUSH1 0x0 MSTORE PUSH1 0x11 PUSH1 0x4 MSTORE PUSH1 0x24 PUSH1 0x0 REVERT JUMPDEST POP MUL SWAP1 JUMP INVALID LOG2 PUSH5 0x6970667358 0x22 SLT KECCAK256 GAS EXTCODECOPY SWAP8 SWAP7 DUP10 0xB7 DUP2 PUSH19 0x64A257758D101F4E4CC40AD3E7556E5C9AAEEE 0xB2 ORIGIN SSTORE 0x2B LT PUSH5 0x736F6C6343 STOP ADDMOD SMOD STOP CALLER "
				},
				"gasEstimates": {
					"creation": {
						"codeDepositCost": "446800",
						"executionCost": "26321",
						"totalCost": "473121"
					},
					"external": {
						"": "162",
						"getBalanceOfContract()": "169",
						"owner()": "2346",
						"renounceOwnership()": "infinite",
						"setAccessAddress(address)": "26745",
						"toTaskerBounty(address,uint256)": "infinite",
						"transderToContract()": "infinite",
						"transferOwnership(address)": "28387",
						"withdraw(uint256)": "infinite",
						"withdrawAll()": "infinite"
					}
				},
				"methodIdentifiers": {
					"getBalanceOfContract()": "22968885",
					"owner()": "8da5cb5b",
					"renounceOwnership()": "715018a6",
					"setAccessAddress(address)": "ad5f7ab0",
					"toTaskerBounty(address,uint256)": "c6d30da4",
					"transderToContract()": "460968dd",
					"transferOwnership(address)": "f2fde38b",
					"withdraw(uint256)": "2e1a7d4d",
					"withdrawAll()": "853828b6"
				}
			},
			"storageLayout": {
				"storage": [
					{
						"astId": 247,
						"contract": "TransferService.sol:TransferService",
						"label": "_owner",
						"offset": 0,
						"slot": "0",
						"type": "t_address"
					},
					{
						"astId": 14,
						"contract": "TransferService.sol:TransferService",
						"label": "locked",
						"offset": 20,
						"slot": "0",
						"type": "t_bool"
					},
					{
						"astId": 16,
						"contract": "TransferService.sol:TransferService",
						"label": "accessAddress",
						"offset": 0,
						"slot": "1",
						"type": "t_address"
					}
				],
				"types": {
					"t_address": {
						"encoding": "inplace",
						"label": "address",
						"numberOfBytes": "20"
					},
					"t_bool": {
						"encoding": "inplace",
						"label": "bool",
						"numberOfBytes": "1"
					}
				}
			},
			"userdoc": {
				"kind": "user",
				"methods": {},
				"version": 1
			}
		}
	}
}