{
	"utils/calculateUtils.sol": {
		"CalculateUtils": {
			"abi": [
				{
					"inputs": [
						{
							"internalType": "uint256",
							"name": "_bounty",
							"type": "uint256"
						},
						{
							"internalType": "uint256",
							"name": "_deduct",
							"type": "uint256"
						}
					],
					"name": "getDeductMoney",
					"outputs": [
						{
							"internalType": "uint256",
							"name": "",
							"type": "uint256"
						}
					],
					"stateMutability": "pure",
					"type": "function"
				},
				{
					"inputs": [
						{
							"internalType": "uint256",
							"name": "_transNumber",
							"type": "uint256"
						}
					],
					"name": "getMatNumber",
					"outputs": [
						{
							"internalType": "uint256",
							"name": "",
							"type": "uint256"
						}
					],
					"stateMutability": "pure",
					"type": "function"
				},
				{
					"inputs": [
						{
							"internalType": "uint256",
							"name": "_ratio",
							"type": "uint256"
						},
						{
							"internalType": "uint256",
							"name": "_bounty",
							"type": "uint256"
						}
					],
					"name": "getPunish",
					"outputs": [
						{
							"internalType": "uint256",
							"name": "",
							"type": "uint256"
						}
					],
					"stateMutability": "pure",
					"type": "function"
				},
				{
					"inputs": [
						{
							"internalType": "uint256",
							"name": "_bounts",
							"type": "uint256"
						}
					],
					"name": "punishRatio",
					"outputs": [
						{
							"internalType": "uint256",
							"name": "",
							"type": "uint256"
						}
					],
					"stateMutability": "pure",
					"type": "function"
				}
			],
			"devdoc": {
				"kind": "dev",
				"methods": {},
				"version": 1
			},
			"evm": {
				"assembly": "    /* \"utils/calculateUtils.sol\":110:2563  library CalculateUtils {\r... */\n  dataSize(sub_0)\n  dataOffset(sub_0)\n  0x0b\n  dup3\n  dup3\n  dup3\n  codecopy\n  dup1\n  mload\n  0x00\n  byte\n  0x73\n  eq\n  tag_1\n  jumpi\n  mstore(0x00, 0x4e487b7100000000000000000000000000000000000000000000000000000000)\n  mstore(0x04, 0x00)\n  revert(0x00, 0x24)\ntag_1:\n  mstore(0x00, address)\n  0x73\n  dup2\n  mstore8\n  dup3\n  dup2\n  return\nstop\n\nsub_0: assembly {\n        /* \"utils/calculateUtils.sol\":110:2563  library CalculateUtils {\r... */\n      eq(address, deployTimeAddress())\n      mstore(0x40, 0x80)\n      jumpi(tag_1, lt(calldatasize, 0x04))\n      shr(0xe0, calldataload(0x00))\n      dup1\n      0x4f6ca3ce\n      eq\n      tag_2\n      jumpi\n      dup1\n      0x8f861ba7\n      eq\n      tag_3\n      jumpi\n      dup1\n      0x9ce5c4bf\n      eq\n      tag_4\n      jumpi\n      dup1\n      0xf2e60202\n      eq\n      tag_5\n      jumpi\n    tag_1:\n      0x00\n      dup1\n      revert\n        /* \"utils/calculateUtils.sol\":267:986  function punishRatio(uint256 _bounts) public pure returns(uint256) {\r... */\n    tag_2:\n      tag_6\n      0x04\n      dup1\n      calldatasize\n      sub\n      dup2\n      add\n      swap1\n      tag_7\n      swap2\n      swap1\n      tag_8\n      jump\t// in\n    tag_7:\n      tag_9\n      jump\t// in\n    tag_6:\n      mload(0x40)\n      tag_10\n      swap2\n      swap1\n      tag_11\n      jump\t// in\n    tag_10:\n      mload(0x40)\n      dup1\n      swap2\n      sub\n      swap1\n      return\n        /* \"utils/calculateUtils.sol\":2417:2560  function getDeductMoney(uint256 _bounty,uint256 _deduct) public pure returns(uint256) {\r... */\n    tag_3:\n      tag_12\n      0x04\n      dup1\n      calldatasize\n      sub\n      dup2\n      add\n      swap1\n      tag_13\n      swap2\n      swap1\n      tag_14\n      jump\t// in\n    tag_13:\n      tag_15\n      jump\t// in\n    tag_12:\n      mload(0x40)\n      tag_16\n      swap2\n      swap1\n      tag_11\n      jump\t// in\n    tag_16:\n      mload(0x40)\n      dup1\n      swap2\n      sub\n      swap1\n      return\n        /* \"utils/calculateUtils.sol\":2248:2382  function getPunish(uint256 _ratio,uint256 _bounty) public pure returns(uint256) {\r... */\n    tag_4:\n      tag_17\n      0x04\n      dup1\n      calldatasize\n      sub\n      dup2\n      add\n      swap1\n      tag_18\n      swap2\n      swap1\n      tag_14\n      jump\t// in\n    tag_18:\n      tag_19\n      jump\t// in\n    tag_17:\n      mload(0x40)\n      tag_20\n      swap2\n      swap1\n      tag_11\n      jump\t// in\n    tag_20:\n      mload(0x40)\n      dup1\n      swap2\n      sub\n      swap1\n      return\n        /* \"utils/calculateUtils.sol\":1275:1554  function getMatNumber(uint256 _transNumber)external pure returns(uint256 ){\r... */\n    tag_5:\n      tag_21\n      0x04\n      dup1\n      calldatasize\n      sub\n      dup2\n      add\n      swap1\n      tag_22\n      swap2\n      swap1\n      tag_8\n      jump\t// in\n    tag_22:\n      tag_23\n      jump\t// in\n    tag_21:\n      mload(0x40)\n      tag_24\n      swap2\n      swap1\n      tag_11\n      jump\t// in\n    tag_24:\n      mload(0x40)\n      dup1\n      swap2\n      sub\n      swap1\n      return\n        /* \"utils/calculateUtils.sol\":267:986  function punishRatio(uint256 _bounts) public pure returns(uint256) {\r... */\n    tag_9:\n        /* \"utils/calculateUtils.sol\":325:332  uint256 */\n      0x00\n        /* \"utils/calculateUtils.sol\":345:358  uint256 ratio */\n      dup1\n        /* \"utils/calculateUtils.sol\":164:167  273 */\n      0x0111\n        /* \"utils/calculateUtils.sol\":373:380  _bounts */\n      dup4\n        /* \"utils/calculateUtils.sol\":373:386  _bounts <RATE */\n      lt\n        /* \"utils/calculateUtils.sol\":369:956  if (_bounts <RATE) {\r... */\n      iszero\n      tag_26\n      jumpi\n        /* \"utils/calculateUtils.sol\":411:412  1 */\n      0x01\n        /* \"utils/calculateUtils.sol\":403:412  ratio = 1 */\n      swap1\n      pop\n        /* \"utils/calculateUtils.sol\":369:956  if (_bounts <RATE) {\r... */\n      jump(tag_27)\n    tag_26:\n        /* \"utils/calculateUtils.sol\":164:167  273 */\n      0x0111\n        /* \"utils/calculateUtils.sol\":432:439  _bounts */\n      dup4\n        /* \"utils/calculateUtils.sol\":432:445  _bounts>=RATE */\n      lt\n      iszero\n        /* \"utils/calculateUtils.sol\":432:463  _bounts>=RATE&&_bounts<RATE*1e1 */\n      dup1\n      iszero\n      tag_28\n      jumpi\n      pop\n        /* \"utils/calculateUtils.sol\":460:463  1e1 */\n      0x0a\n        /* \"utils/calculateUtils.sol\":164:167  273 */\n      0x0111\n        /* \"utils/calculateUtils.sol\":455:463  RATE*1e1 */\n      tag_29\n      swap2\n      swap1\n      tag_30\n      jump\t// in\n    tag_29:\n        /* \"utils/calculateUtils.sol\":447:454  _bounts */\n      dup4\n        /* \"utils/calculateUtils.sol\":447:463  _bounts<RATE*1e1 */\n      lt\n        /* \"utils/calculateUtils.sol\":432:463  _bounts>=RATE&&_bounts<RATE*1e1 */\n    tag_28:\n        /* \"utils/calculateUtils.sol\":429:956  if(_bounts>=RATE&&_bounts<RATE*1e1) {\r... */\n      iszero\n      tag_31\n      jumpi\n        /* \"utils/calculateUtils.sol\":488:491  1e1 */\n      0x0a\n        /* \"utils/calculateUtils.sol\":480:491  ratio = 1e1 */\n      swap1\n      pop\n        /* \"utils/calculateUtils.sol\":429:956  if(_bounts>=RATE&&_bounts<RATE*1e1) {\r... */\n      jump(tag_32)\n    tag_31:\n        /* \"utils/calculateUtils.sol\":526:529  1e1 */\n      0x0a\n        /* \"utils/calculateUtils.sol\":164:167  273 */\n      0x0111\n        /* \"utils/calculateUtils.sol\":521:529  RATE*1e1 */\n      tag_33\n      swap2\n      swap1\n      tag_30\n      jump\t// in\n    tag_33:\n        /* \"utils/calculateUtils.sol\":511:518  _bounts */\n      dup4\n        /* \"utils/calculateUtils.sol\":511:529  _bounts >=RATE*1e1 */\n      lt\n      iszero\n        /* \"utils/calculateUtils.sol\":511:550  _bounts >=RATE*1e1 && _bounts <RATE*1e2 */\n      dup1\n      iszero\n      tag_34\n      jumpi\n      pop\n        /* \"utils/calculateUtils.sol\":547:550  1e2 */\n      0x64\n        /* \"utils/calculateUtils.sol\":164:167  273 */\n      0x0111\n        /* \"utils/calculateUtils.sol\":542:550  RATE*1e2 */\n      tag_35\n      swap2\n      swap1\n      tag_30\n      jump\t// in\n    tag_35:\n        /* \"utils/calculateUtils.sol\":533:540  _bounts */\n      dup4\n        /* \"utils/calculateUtils.sol\":533:550  _bounts <RATE*1e2 */\n      lt\n        /* \"utils/calculateUtils.sol\":511:550  _bounts >=RATE*1e1 && _bounts <RATE*1e2 */\n    tag_34:\n        /* \"utils/calculateUtils.sol\":508:956  if(_bounts >=RATE*1e1 && _bounts <RATE*1e2){\r... */\n      iszero\n      tag_36\n      jumpi\n        /* \"utils/calculateUtils.sol\":574:577  1e2 */\n      0x64\n        /* \"utils/calculateUtils.sol\":566:577  ratio = 1e2 */\n      swap1\n      pop\n        /* \"utils/calculateUtils.sol\":508:956  if(_bounts >=RATE*1e1 && _bounts <RATE*1e2){\r... */\n      jump(tag_37)\n    tag_36:\n        /* \"utils/calculateUtils.sol\":612:615  1e2 */\n      0x64\n        /* \"utils/calculateUtils.sol\":164:167  273 */\n      0x0111\n        /* \"utils/calculateUtils.sol\":607:615  RATE*1e2 */\n      tag_38\n      swap2\n      swap1\n      tag_30\n      jump\t// in\n    tag_38:\n        /* \"utils/calculateUtils.sol\":597:604  _bounts */\n      dup4\n        /* \"utils/calculateUtils.sol\":597:615  _bounts >=RATE*1e2 */\n      lt\n      iszero\n        /* \"utils/calculateUtils.sol\":597:637  _bounts >=RATE*1e2 && _bounts < RATE*1e3 */\n      dup1\n      iszero\n      tag_39\n      jumpi\n      pop\n        /* \"utils/calculateUtils.sol\":634:637  1e3 */\n      0x03e8\n        /* \"utils/calculateUtils.sol\":164:167  273 */\n      0x0111\n        /* \"utils/calculateUtils.sol\":629:637  RATE*1e3 */\n      tag_40\n      swap2\n      swap1\n      tag_30\n      jump\t// in\n    tag_40:\n        /* \"utils/calculateUtils.sol\":619:626  _bounts */\n      dup4\n        /* \"utils/calculateUtils.sol\":619:637  _bounts < RATE*1e3 */\n      lt\n        /* \"utils/calculateUtils.sol\":597:637  _bounts >=RATE*1e2 && _bounts < RATE*1e3 */\n    tag_39:\n        /* \"utils/calculateUtils.sol\":594:956  if(_bounts >=RATE*1e2 && _bounts < RATE*1e3) {\r... */\n      iszero\n      tag_41\n      jumpi\n        /* \"utils/calculateUtils.sol\":662:665  1e3 */\n      0x03e8\n        /* \"utils/calculateUtils.sol\":654:665  ratio = 1e3 */\n      swap1\n      pop\n        /* \"utils/calculateUtils.sol\":594:956  if(_bounts >=RATE*1e2 && _bounts < RATE*1e3) {\r... */\n      jump(tag_42)\n    tag_41:\n        /* \"utils/calculateUtils.sol\":699:702  1e3 */\n      0x03e8\n        /* \"utils/calculateUtils.sol\":164:167  273 */\n      0x0111\n        /* \"utils/calculateUtils.sol\":694:702  RATE*1e3 */\n      tag_43\n      swap2\n      swap1\n      tag_30\n      jump\t// in\n    tag_43:\n        /* \"utils/calculateUtils.sol\":685:692  _bounts */\n      dup4\n        /* \"utils/calculateUtils.sol\":685:702  _bounts>=RATE*1e3 */\n      lt\n      iszero\n        /* \"utils/calculateUtils.sol\":685:724  _bounts>=RATE*1e3 && _bounts <=RATE*1e4 */\n      dup1\n      iszero\n      tag_44\n      jumpi\n      pop\n        /* \"utils/calculateUtils.sol\":721:724  1e4 */\n      0x2710\n        /* \"utils/calculateUtils.sol\":164:167  273 */\n      0x0111\n        /* \"utils/calculateUtils.sol\":716:724  RATE*1e4 */\n      tag_45\n      swap2\n      swap1\n      tag_30\n      jump\t// in\n    tag_45:\n        /* \"utils/calculateUtils.sol\":706:713  _bounts */\n      dup4\n        /* \"utils/calculateUtils.sol\":706:724  _bounts <=RATE*1e4 */\n      gt\n      iszero\n        /* \"utils/calculateUtils.sol\":685:724  _bounts>=RATE*1e3 && _bounts <=RATE*1e4 */\n    tag_44:\n        /* \"utils/calculateUtils.sol\":682:956  if(_bounts>=RATE*1e3 && _bounts <=RATE*1e4) {\r... */\n      iszero\n      tag_46\n      jumpi\n        /* \"utils/calculateUtils.sol\":749:752  1e4 */\n      0x2710\n        /* \"utils/calculateUtils.sol\":741:752  ratio = 1e4 */\n      swap1\n      pop\n        /* \"utils/calculateUtils.sol\":682:956  if(_bounts>=RATE*1e3 && _bounts <=RATE*1e4) {\r... */\n      jump(tag_47)\n    tag_46:\n        /* \"utils/calculateUtils.sol\":786:789  1e4 */\n      0x2710\n        /* \"utils/calculateUtils.sol\":164:167  273 */\n      0x0111\n        /* \"utils/calculateUtils.sol\":781:789  RATE*1e4 */\n      tag_48\n      swap2\n      swap1\n      tag_30\n      jump\t// in\n    tag_48:\n        /* \"utils/calculateUtils.sol\":772:779  _bounts */\n      dup4\n        /* \"utils/calculateUtils.sol\":772:789  _bounts>=RATE*1e4 */\n      lt\n      iszero\n        /* \"utils/calculateUtils.sol\":772:811  _bounts>=RATE*1e4 && _bounts <=RATE*1e5 */\n      dup1\n      iszero\n      tag_49\n      jumpi\n      pop\n        /* \"utils/calculateUtils.sol\":808:811  1e5 */\n      0x0186a0\n        /* \"utils/calculateUtils.sol\":164:167  273 */\n      0x0111\n        /* \"utils/calculateUtils.sol\":803:811  RATE*1e5 */\n      tag_50\n      swap2\n      swap1\n      tag_30\n      jump\t// in\n    tag_50:\n        /* \"utils/calculateUtils.sol\":793:800  _bounts */\n      dup4\n        /* \"utils/calculateUtils.sol\":793:811  _bounts <=RATE*1e5 */\n      gt\n      iszero\n        /* \"utils/calculateUtils.sol\":772:811  _bounts>=RATE*1e4 && _bounts <=RATE*1e5 */\n    tag_49:\n        /* \"utils/calculateUtils.sol\":769:956  if(_bounts>=RATE*1e4 && _bounts <=RATE*1e5) {\r... */\n      iszero\n      tag_51\n      jumpi\n        /* \"utils/calculateUtils.sol\":836:839  1e5 */\n      0x0186a0\n        /* \"utils/calculateUtils.sol\":828:839  ratio = 1e5 */\n      swap1\n      pop\n        /* \"utils/calculateUtils.sol\":769:956  if(_bounts>=RATE*1e4 && _bounts <=RATE*1e5) {\r... */\n      jump(tag_52)\n    tag_51:\n    tag_52:\n        /* \"utils/calculateUtils.sol\":682:956  if(_bounts>=RATE*1e3 && _bounts <=RATE*1e4) {\r... */\n    tag_47:\n        /* \"utils/calculateUtils.sol\":594:956  if(_bounts >=RATE*1e2 && _bounts < RATE*1e3) {\r... */\n    tag_42:\n        /* \"utils/calculateUtils.sol\":508:956  if(_bounts >=RATE*1e1 && _bounts <RATE*1e2){\r... */\n    tag_37:\n        /* \"utils/calculateUtils.sol\":429:956  if(_bounts>=RATE&&_bounts<RATE*1e1) {\r... */\n    tag_32:\n        /* \"utils/calculateUtils.sol\":369:956  if (_bounts <RATE) {\r... */\n    tag_27:\n        /* \"utils/calculateUtils.sol\":973:978  ratio */\n      dup1\n        /* \"utils/calculateUtils.sol\":966:978  return ratio */\n      swap2\n      pop\n      pop\n        /* \"utils/calculateUtils.sol\":267:986  function punishRatio(uint256 _bounts) public pure returns(uint256) {\r... */\n      swap2\n      swap1\n      pop\n      jump\t// out\n        /* \"utils/calculateUtils.sol\":2417:2560  function getDeductMoney(uint256 _bounty,uint256 _deduct) public pure returns(uint256) {\r... */\n    tag_15:\n        /* \"utils/calculateUtils.sol\":2494:2501  uint256 */\n      0x00\n        /* \"utils/calculateUtils.sol\":2521:2552  _getPercentage(_bounty,_deduct) */\n      tag_54\n        /* \"utils/calculateUtils.sol\":2536:2543  _bounty */\n      dup4\n        /* \"utils/calculateUtils.sol\":2544:2551  _deduct */\n      dup4\n        /* \"utils/calculateUtils.sol\":2521:2535  _getPercentage */\n      tag_55\n        /* \"utils/calculateUtils.sol\":2521:2552  _getPercentage(_bounty,_deduct) */\n      jump\t// in\n    tag_54:\n        /* \"utils/calculateUtils.sol\":2514:2552  return _getPercentage(_bounty,_deduct) */\n      swap1\n      pop\n        /* \"utils/calculateUtils.sol\":2417:2560  function getDeductMoney(uint256 _bounty,uint256 _deduct) public pure returns(uint256) {\r... */\n      swap3\n      swap2\n      pop\n      pop\n      jump\t// out\n        /* \"utils/calculateUtils.sol\":2248:2382  function getPunish(uint256 _ratio,uint256 _bounty) public pure returns(uint256) {\r... */\n    tag_19:\n        /* \"utils/calculateUtils.sol\":2319:2326  uint256 */\n      0x00\n        /* \"utils/calculateUtils.sol\":2346:2374  SafeMath.div(_bounty,_ratio) */\n      tag_57\n        /* \"utils/calculateUtils.sol\":2359:2366  _bounty */\n      dup3\n        /* \"utils/calculateUtils.sol\":2367:2373  _ratio */\n      dup5\n        /* \"utils/calculateUtils.sol\":2346:2358  SafeMath.div */\n      tag_58\n        /* \"utils/calculateUtils.sol\":2346:2374  SafeMath.div(_bounty,_ratio) */\n      jump\t// in\n    tag_57:\n        /* \"utils/calculateUtils.sol\":2339:2374  return SafeMath.div(_bounty,_ratio) */\n      swap1\n      pop\n        /* \"utils/calculateUtils.sol\":2248:2382  function getPunish(uint256 _ratio,uint256 _bounty) public pure returns(uint256) {\r... */\n      swap3\n      swap2\n      pop\n      pop\n      jump\t// out\n        /* \"utils/calculateUtils.sol\":1275:1554  function getMatNumber(uint256 _transNumber)external pure returns(uint256 ){\r... */\n    tag_23:\n        /* \"utils/calculateUtils.sol\":1340:1347  uint256 */\n      0x00\n        /* \"utils/calculateUtils.sol\":1360:1373  uint256 _maxV */\n      dup1\n        /* \"utils/calculateUtils.sol\":198:199  3 */\n      0x03\n        /* \"utils/calculateUtils.sol\":1387:1399  _transNumber */\n      dup4\n        /* \"utils/calculateUtils.sol\":1387:1405  _transNumber<=VF_N */\n      gt\n        /* \"utils/calculateUtils.sol\":1384:1524  if(_transNumber<=VF_N){\r... */\n      tag_60\n      jumpi\n        /* \"utils/calculateUtils.sol\":1434:1435  1 */\n      0x01\n        /* \"utils/calculateUtils.sol\":1426:1435  _maxV = 1 */\n      swap1\n      pop\n        /* \"utils/calculateUtils.sol\":1384:1524  if(_transNumber<=VF_N){\r... */\n      jump(tag_61)\n    tag_60:\n        /* \"utils/calculateUtils.sol\":1480:1512  SafeMath.div(_transNumber, VF_N) */\n      tag_62\n        /* \"utils/calculateUtils.sol\":1493:1505  _transNumber */\n      dup4\n        /* \"utils/calculateUtils.sol\":198:199  3 */\n      0x03\n        /* \"utils/calculateUtils.sol\":1480:1492  SafeMath.div */\n      tag_58\n        /* \"utils/calculateUtils.sol\":1480:1512  SafeMath.div(_transNumber, VF_N) */\n      jump\t// in\n    tag_62:\n        /* \"utils/calculateUtils.sol\":1472:1512  _maxV = SafeMath.div(_transNumber, VF_N) */\n      swap1\n      pop\n        /* \"utils/calculateUtils.sol\":1384:1524  if(_transNumber<=VF_N){\r... */\n    tag_61:\n        /* \"utils/calculateUtils.sol\":1541:1546  _maxV */\n      dup1\n        /* \"utils/calculateUtils.sol\":1534:1546  return _maxV */\n      swap2\n      pop\n      pop\n        /* \"utils/calculateUtils.sol\":1275:1554  function getMatNumber(uint256 _transNumber)external pure returns(uint256 ){\r... */\n      swap2\n      swap1\n      pop\n      jump\t// out\n        /* \"utils/calculateUtils.sol\":2055:2222  function _getPercentage(uint256 _number, uint256 _ratio) pure internal returns(uint256 returnNumber) {\r... */\n    tag_55:\n        /* \"utils/calculateUtils.sol\":2134:2154  uint256 returnNumber */\n      0x00\n        /* \"utils/calculateUtils.sol\":2211:2214  100 */\n      0x64\n        /* \"utils/calculateUtils.sol\":2182:2210  SafeMath.mul(_number,_ratio) */\n      tag_64\n        /* \"utils/calculateUtils.sol\":2195:2202  _number */\n      dup5\n        /* \"utils/calculateUtils.sol\":2203:2209  _ratio */\n      dup5\n        /* \"utils/calculateUtils.sol\":2182:2194  SafeMath.mul */\n      tag_65\n        /* \"utils/calculateUtils.sol\":2182:2210  SafeMath.mul(_number,_ratio) */\n      jump\t// in\n    tag_64:\n        /* \"utils/calculateUtils.sol\":2182:2214  SafeMath.mul(_number,_ratio)/100 */\n      tag_66\n      swap2\n      swap1\n      tag_67\n      jump\t// in\n    tag_66:\n        /* \"utils/calculateUtils.sol\":2167:2214  returnNumber = SafeMath.mul(_number,_ratio)/100 */\n      swap1\n      pop\n        /* \"utils/calculateUtils.sol\":2055:2222  function _getPercentage(uint256 _number, uint256 _ratio) pure internal returns(uint256 returnNumber) {\r... */\n      swap3\n      swap2\n      pop\n      pop\n      jump\t// out\n        /* \"contracts/utils/math/SafeMath.sol\":3850:3946  function div(uint256 a, uint256 b) internal pure returns (uint256) {... */\n    tag_58:\n        /* \"contracts/utils/math/SafeMath.sol\":3908:3915  uint256 */\n      0x00\n        /* \"contracts/utils/math/SafeMath.sol\":3938:3939  b */\n      dup2\n        /* \"contracts/utils/math/SafeMath.sol\":3934:3935  a */\n      dup4\n        /* \"contracts/utils/math/SafeMath.sol\":3934:3939  a / b */\n      tag_69\n      swap2\n      swap1\n      tag_67\n      jump\t// in\n    tag_69:\n        /* \"contracts/utils/math/SafeMath.sol\":3927:3939  return a / b */\n      swap1\n      pop\n        /* \"contracts/utils/math/SafeMath.sol\":3850:3946  function div(uint256 a, uint256 b) internal pure returns (uint256) {... */\n      swap3\n      swap2\n      pop\n      pop\n      jump\t// out\n        /* \"contracts/utils/math/SafeMath.sol\":3465:3561  function mul(uint256 a, uint256 b) internal pure returns (uint256) {... */\n    tag_65:\n        /* \"contracts/utils/math/SafeMath.sol\":3523:3530  uint256 */\n      0x00\n        /* \"contracts/utils/math/SafeMath.sol\":3553:3554  b */\n      dup2\n        /* \"contracts/utils/math/SafeMath.sol\":3549:3550  a */\n      dup4\n        /* \"contracts/utils/math/SafeMath.sol\":3549:3554  a * b */\n      tag_71\n      swap2\n      swap1\n      tag_30\n      jump\t// in\n    tag_71:\n        /* \"contracts/utils/math/SafeMath.sol\":3542:3554  return a * b */\n      swap1\n      pop\n        /* \"contracts/utils/math/SafeMath.sol\":3465:3561  function mul(uint256 a, uint256 b) internal pure returns (uint256) {... */\n      swap3\n      swap2\n      pop\n      pop\n      jump\t// out\n        /* \"#utility.yul\":7:146   */\n    tag_73:\n        /* \"#utility.yul\":53:58   */\n      0x00\n        /* \"#utility.yul\":91:97   */\n      dup2\n        /* \"#utility.yul\":78:98   */\n      calldataload\n        /* \"#utility.yul\":69:98   */\n      swap1\n      pop\n        /* \"#utility.yul\":107:140   */\n      tag_75\n        /* \"#utility.yul\":134:139   */\n      dup2\n        /* \"#utility.yul\":107:140   */\n      tag_76\n      jump\t// in\n    tag_75:\n        /* \"#utility.yul\":7:146   */\n      swap3\n      swap2\n      pop\n      pop\n      jump\t// out\n        /* \"#utility.yul\":152:481   */\n    tag_8:\n        /* \"#utility.yul\":211:217   */\n      0x00\n        /* \"#utility.yul\":260:262   */\n      0x20\n        /* \"#utility.yul\":248:257   */\n      dup3\n        /* \"#utility.yul\":239:246   */\n      dup5\n        /* \"#utility.yul\":235:258   */\n      sub\n        /* \"#utility.yul\":231:263   */\n      slt\n        /* \"#utility.yul\":228:347   */\n      iszero\n      tag_78\n      jumpi\n        /* \"#utility.yul\":266:345   */\n      tag_79\n      tag_80\n      jump\t// in\n    tag_79:\n        /* \"#utility.yul\":228:347   */\n    tag_78:\n        /* \"#utility.yul\":386:387   */\n      0x00\n        /* \"#utility.yul\":411:464   */\n      tag_81\n        /* \"#utility.yul\":456:463   */\n      dup5\n        /* \"#utility.yul\":447:453   */\n      dup3\n        /* \"#utility.yul\":436:445   */\n      dup6\n        /* \"#utility.yul\":432:454   */\n      add\n        /* \"#utility.yul\":411:464   */\n      tag_73\n      jump\t// in\n    tag_81:\n        /* \"#utility.yul\":401:464   */\n      swap2\n      pop\n        /* \"#utility.yul\":357:474   */\n      pop\n        /* \"#utility.yul\":152:481   */\n      swap3\n      swap2\n      pop\n      pop\n      jump\t// out\n        /* \"#utility.yul\":487:961   */\n    tag_14:\n        /* \"#utility.yul\":555:561   */\n      0x00\n        /* \"#utility.yul\":563:569   */\n      dup1\n        /* \"#utility.yul\":612:614   */\n      0x40\n        /* \"#utility.yul\":600:609   */\n      dup4\n        /* \"#utility.yul\":591:598   */\n      dup6\n        /* \"#utility.yul\":587:610   */\n      sub\n        /* \"#utility.yul\":583:615   */\n      slt\n        /* \"#utility.yul\":580:699   */\n      iszero\n      tag_83\n      jumpi\n        /* \"#utility.yul\":618:697   */\n      tag_84\n      tag_80\n      jump\t// in\n    tag_84:\n        /* \"#utility.yul\":580:699   */\n    tag_83:\n        /* \"#utility.yul\":738:739   */\n      0x00\n        /* \"#utility.yul\":763:816   */\n      tag_85\n        /* \"#utility.yul\":808:815   */\n      dup6\n        /* \"#utility.yul\":799:805   */\n      dup3\n        /* \"#utility.yul\":788:797   */\n      dup7\n        /* \"#utility.yul\":784:806   */\n      add\n        /* \"#utility.yul\":763:816   */\n      tag_73\n      jump\t// in\n    tag_85:\n        /* \"#utility.yul\":753:816   */\n      swap3\n      pop\n        /* \"#utility.yul\":709:826   */\n      pop\n        /* \"#utility.yul\":865:867   */\n      0x20\n        /* \"#utility.yul\":891:944   */\n      tag_86\n        /* \"#utility.yul\":936:943   */\n      dup6\n        /* \"#utility.yul\":927:933   */\n      dup3\n        /* \"#utility.yul\":916:925   */\n      dup7\n        /* \"#utility.yul\":912:934   */\n      add\n        /* \"#utility.yul\":891:944   */\n      tag_73\n      jump\t// in\n    tag_86:\n        /* \"#utility.yul\":881:944   */\n      swap2\n      pop\n        /* \"#utility.yul\":836:954   */\n      pop\n        /* \"#utility.yul\":487:961   */\n      swap3\n      pop\n      swap3\n      swap1\n      pop\n      jump\t// out\n        /* \"#utility.yul\":967:1093   */\n    tag_87:\n        /* \"#utility.yul\":1062:1086   */\n      tag_89\n        /* \"#utility.yul\":1080:1085   */\n      dup2\n        /* \"#utility.yul\":1062:1086   */\n      tag_90\n      jump\t// in\n    tag_89:\n        /* \"#utility.yul\":1057:1060   */\n      dup3\n        /* \"#utility.yul\":1050:1087   */\n      mstore\n        /* \"#utility.yul\":967:1093   */\n      pop\n      pop\n      jump\t// out\n        /* \"#utility.yul\":1099:1337   */\n    tag_11:\n        /* \"#utility.yul\":1200:1204   */\n      0x00\n        /* \"#utility.yul\":1238:1240   */\n      0x20\n        /* \"#utility.yul\":1227:1236   */\n      dup3\n        /* \"#utility.yul\":1223:1241   */\n      add\n        /* \"#utility.yul\":1215:1241   */\n      swap1\n      pop\n        /* \"#utility.yul\":1251:1330   */\n      tag_92\n        /* \"#utility.yul\":1327:1328   */\n      0x00\n        /* \"#utility.yul\":1316:1325   */\n      dup4\n        /* \"#utility.yul\":1312:1329   */\n      add\n        /* \"#utility.yul\":1303:1309   */\n      dup5\n        /* \"#utility.yul\":1251:1330   */\n      tag_87\n      jump\t// in\n    tag_92:\n        /* \"#utility.yul\":1099:1337   */\n      swap3\n      swap2\n      pop\n      pop\n      jump\t// out\n        /* \"#utility.yul\":1424:1609   */\n    tag_67:\n        /* \"#utility.yul\":1464:1465   */\n      0x00\n        /* \"#utility.yul\":1481:1501   */\n      tag_96\n        /* \"#utility.yul\":1499:1500   */\n      dup3\n        /* \"#utility.yul\":1481:1501   */\n      tag_90\n      jump\t// in\n    tag_96:\n        /* \"#utility.yul\":1476:1501   */\n      swap2\n      pop\n        /* \"#utility.yul\":1515:1535   */\n      tag_97\n        /* \"#utility.yul\":1533:1534   */\n      dup4\n        /* \"#utility.yul\":1515:1535   */\n      tag_90\n      jump\t// in\n    tag_97:\n        /* \"#utility.yul\":1510:1535   */\n      swap3\n      pop\n        /* \"#utility.yul\":1554:1555   */\n      dup3\n        /* \"#utility.yul\":1544:1579   */\n      tag_98\n      jumpi\n        /* \"#utility.yul\":1559:1577   */\n      tag_99\n      tag_100\n      jump\t// in\n    tag_99:\n        /* \"#utility.yul\":1544:1579   */\n    tag_98:\n        /* \"#utility.yul\":1601:1602   */\n      dup3\n        /* \"#utility.yul\":1598:1599   */\n      dup3\n        /* \"#utility.yul\":1594:1603   */\n      div\n        /* \"#utility.yul\":1589:1603   */\n      swap1\n      pop\n        /* \"#utility.yul\":1424:1609   */\n      swap3\n      swap2\n      pop\n      pop\n      jump\t// out\n        /* \"#utility.yul\":1615:1963   */\n    tag_30:\n        /* \"#utility.yul\":1655:1662   */\n      0x00\n        /* \"#utility.yul\":1678:1698   */\n      tag_102\n        /* \"#utility.yul\":1696:1697   */\n      dup3\n        /* \"#utility.yul\":1678:1698   */\n      tag_90\n      jump\t// in\n    tag_102:\n        /* \"#utility.yul\":1673:1698   */\n      swap2\n      pop\n        /* \"#utility.yul\":1712:1732   */\n      tag_103\n        /* \"#utility.yul\":1730:1731   */\n      dup4\n        /* \"#utility.yul\":1712:1732   */\n      tag_90\n      jump\t// in\n    tag_103:\n        /* \"#utility.yul\":1707:1732   */\n      swap3\n      pop\n        /* \"#utility.yul\":1900:1901   */\n      dup2\n        /* \"#utility.yul\":1832:1898   */\n      0xffffffffffffffffffffffffffffffffffffffffffffffffffffffffffffffff\n        /* \"#utility.yul\":1828:1902   */\n      div\n        /* \"#utility.yul\":1825:1826   */\n      dup4\n        /* \"#utility.yul\":1822:1903   */\n      gt\n        /* \"#utility.yul\":1817:1818   */\n      dup3\n        /* \"#utility.yul\":1810:1819   */\n      iszero\n        /* \"#utility.yul\":1803:1820   */\n      iszero\n        /* \"#utility.yul\":1799:1904   */\n      and\n        /* \"#utility.yul\":1796:1927   */\n      iszero\n      tag_104\n      jumpi\n        /* \"#utility.yul\":1907:1925   */\n      tag_105\n      tag_106\n      jump\t// in\n    tag_105:\n        /* \"#utility.yul\":1796:1927   */\n    tag_104:\n        /* \"#utility.yul\":1955:1956   */\n      dup3\n        /* \"#utility.yul\":1952:1953   */\n      dup3\n        /* \"#utility.yul\":1948:1957   */\n      mul\n        /* \"#utility.yul\":1937:1957   */\n      swap1\n      pop\n        /* \"#utility.yul\":1615:1963   */\n      swap3\n      swap2\n      pop\n      pop\n      jump\t// out\n        /* \"#utility.yul\":1969:2046   */\n    tag_90:\n        /* \"#utility.yul\":2006:2013   */\n      0x00\n        /* \"#utility.yul\":2035:2040   */\n      dup2\n        /* \"#utility.yul\":2024:2040   */\n      swap1\n      pop\n        /* \"#utility.yul\":1969:2046   */\n      swap2\n      swap1\n      pop\n      jump\t// out\n        /* \"#utility.yul\":2052:2232   */\n    tag_106:\n        /* \"#utility.yul\":2100:2177   */\n      0x4e487b7100000000000000000000000000000000000000000000000000000000\n        /* \"#utility.yul\":2097:2098   */\n      0x00\n        /* \"#utility.yul\":2090:2178   */\n      mstore\n        /* \"#utility.yul\":2197:2201   */\n      0x11\n        /* \"#utility.yul\":2194:2195   */\n      0x04\n        /* \"#utility.yul\":2187:2202   */\n      mstore\n        /* \"#utility.yul\":2221:2225   */\n      0x24\n        /* \"#utility.yul\":2218:2219   */\n      0x00\n        /* \"#utility.yul\":2211:2226   */\n      revert\n        /* \"#utility.yul\":2238:2418   */\n    tag_100:\n        /* \"#utility.yul\":2286:2363   */\n      0x4e487b7100000000000000000000000000000000000000000000000000000000\n        /* \"#utility.yul\":2283:2284   */\n      0x00\n        /* \"#utility.yul\":2276:2364   */\n      mstore\n        /* \"#utility.yul\":2383:2387   */\n      0x12\n        /* \"#utility.yul\":2380:2381   */\n      0x04\n        /* \"#utility.yul\":2373:2388   */\n      mstore\n        /* \"#utility.yul\":2407:2411   */\n      0x24\n        /* \"#utility.yul\":2404:2405   */\n      0x00\n        /* \"#utility.yul\":2397:2412   */\n      revert\n        /* \"#utility.yul\":2547:2664   */\n    tag_80:\n        /* \"#utility.yul\":2656:2657   */\n      0x00\n        /* \"#utility.yul\":2653:2654   */\n      dup1\n        /* \"#utility.yul\":2646:2658   */\n      revert\n        /* \"#utility.yul\":2670:2792   */\n    tag_76:\n        /* \"#utility.yul\":2743:2767   */\n      tag_114\n        /* \"#utility.yul\":2761:2766   */\n      dup2\n        /* \"#utility.yul\":2743:2767   */\n      tag_90\n      jump\t// in\n    tag_114:\n        /* \"#utility.yul\":2736:2741   */\n      dup2\n        /* \"#utility.yul\":2733:2768   */\n      eq\n        /* \"#utility.yul\":2723:2786   */\n      tag_115\n      jumpi\n        /* \"#utility.yul\":2782:2783   */\n      0x00\n        /* \"#utility.yul\":2779:2780   */\n      dup1\n        /* \"#utility.yul\":2772:2784   */\n      revert\n        /* \"#utility.yul\":2723:2786   */\n    tag_115:\n        /* \"#utility.yul\":2670:2792   */\n      pop\n      jump\t// out\n\n    auxdata: 0xa2646970667358221220aac0b47a76382ca96500873eb820e34030342611bff37be1a18cd7a73cd83aa164736f6c63430008070033\n}\n",
				"bytecode": {
					"linkReferences": {},
					"object": "6104ed610053600b82828239805160001a607314610046577f4e487b7100000000000000000000000000000000000000000000000000000000600052600060045260246000fd5b30600052607381538281f3fe73000000000000000000000000000000000000000030146080604052600436106100565760003560e01c80634f6ca3ce1461005b5780638f861ba71461008b5780639ce5c4bf146100bb578063f2e60202146100eb575b600080fd5b61007560048036038101906100709190610311565b61011b565b604051610082919061038d565b60405180910390f35b6100a560048036038101906100a0919061033e565b61025d565b6040516100b2919061038d565b60405180910390f35b6100d560048036038101906100d0919061033e565b610271565b6040516100e2919061038d565b60405180910390f35b61010560048036038101906101009190610311565b610285565b604051610112919061038d565b60405180910390f35b6000806101118310156101315760019050610254565b61011183101580156101505750600a61011161014d91906103d9565b83105b1561015e57600a9050610253565b600a61011161016d91906103d9565b83101580156101895750606461011161018691906103d9565b83105b156101975760649050610252565b60646101116101a691906103d9565b83101580156101c357506103e86101116101c091906103d9565b83105b156101d2576103e89050610251565b6103e86101116101e291906103d9565b831015801561020057506127106101116101fc91906103d9565b8311155b1561020f576127109050610250565b61271061011161021f91906103d9565b831015801561023e5750620186a061011161023a91906103d9565b8311155b1561024e57620186a0905061024f565b5b5b5b5b5b5b80915050919050565b600061026983836102b0565b905092915050565b600061027d82846102d0565b905092915050565b6000806003831161029957600190506102a7565b6102a48360036102d0565b90505b80915050919050565b600060646102be84846102e6565b6102c891906103a8565b905092915050565b600081836102de91906103a8565b905092915050565b600081836102f491906103d9565b905092915050565b60008135905061030b816104a0565b92915050565b6000602082840312156103275761032661049b565b5b6000610335848285016102fc565b91505092915050565b600080604083850312156103555761035461049b565b5b6000610363858286016102fc565b9250506020610374858286016102fc565b9150509250929050565b61038781610433565b82525050565b60006020820190506103a2600083018461037e565b92915050565b60006103b382610433565b91506103be83610433565b9250826103ce576103cd61046c565b5b828204905092915050565b60006103e482610433565b91506103ef83610433565b9250817fffffffffffffffffffffffffffffffffffffffffffffffffffffffffffffffff04831182151516156104285761042761043d565b5b828202905092915050565b6000819050919050565b7f4e487b7100000000000000000000000000000000000000000000000000000000600052601160045260246000fd5b7f4e487b7100000000000000000000000000000000000000000000000000000000600052601260045260246000fd5b600080fd5b6104a981610433565b81146104b457600080fd5b5056fea2646970667358221220aac0b47a76382ca96500873eb820e34030342611bff37be1a18cd7a73cd83aa164736f6c63430008070033",
					"opcodes": "PUSH2 0x4ED PUSH2 0x53 PUSH1 0xB DUP3 DUP3 DUP3 CODECOPY DUP1 MLOAD PUSH1 0x0 BYTE PUSH1 0x73 EQ PUSH2 0x46 JUMPI PUSH32 0x4E487B7100000000000000000000000000000000000000000000000000000000 PUSH1 0x0 MSTORE PUSH1 0x0 PUSH1 0x4 MSTORE PUSH1 0x24 PUSH1 0x0 REVERT JUMPDEST ADDRESS PUSH1 0x0 MSTORE PUSH1 0x73 DUP2 MSTORE8 DUP3 DUP2 RETURN INVALID PUSH20 0x0 ADDRESS EQ PUSH1 0x80 PUSH1 0x40 MSTORE PUSH1 0x4 CALLDATASIZE LT PUSH2 0x56 JUMPI PUSH1 0x0 CALLDATALOAD PUSH1 0xE0 SHR DUP1 PUSH4 0x4F6CA3CE EQ PUSH2 0x5B JUMPI DUP1 PUSH4 0x8F861BA7 EQ PUSH2 0x8B JUMPI DUP1 PUSH4 0x9CE5C4BF EQ PUSH2 0xBB JUMPI DUP1 PUSH4 0xF2E60202 EQ PUSH2 0xEB JUMPI JUMPDEST PUSH1 0x0 DUP1 REVERT JUMPDEST PUSH2 0x75 PUSH1 0x4 DUP1 CALLDATASIZE SUB DUP2 ADD SWAP1 PUSH2 0x70 SWAP2 SWAP1 PUSH2 0x311 JUMP JUMPDEST PUSH2 0x11B JUMP JUMPDEST PUSH1 0x40 MLOAD PUSH2 0x82 SWAP2 SWAP1 PUSH2 0x38D JUMP JUMPDEST PUSH1 0x40 MLOAD DUP1 SWAP2 SUB SWAP1 RETURN JUMPDEST PUSH2 0xA5 PUSH1 0x4 DUP1 CALLDATASIZE SUB DUP2 ADD SWAP1 PUSH2 0xA0 SWAP2 SWAP1 PUSH2 0x33E JUMP JUMPDEST PUSH2 0x25D JUMP JUMPDEST PUSH1 0x40 MLOAD PUSH2 0xB2 SWAP2 SWAP1 PUSH2 0x38D JUMP JUMPDEST PUSH1 0x40 MLOAD DUP1 SWAP2 SUB SWAP1 RETURN JUMPDEST PUSH2 0xD5 PUSH1 0x4 DUP1 CALLDATASIZE SUB DUP2 ADD SWAP1 PUSH2 0xD0 SWAP2 SWAP1 PUSH2 0x33E JUMP JUMPDEST PUSH2 0x271 JUMP JUMPDEST PUSH1 0x40 MLOAD PUSH2 0xE2 SWAP2 SWAP1 PUSH2 0x38D JUMP JUMPDEST PUSH1 0x40 MLOAD DUP1 SWAP2 SUB SWAP1 RETURN JUMPDEST PUSH2 0x105 PUSH1 0x4 DUP1 CALLDATASIZE SUB DUP2 ADD SWAP1 PUSH2 0x100 SWAP2 SWAP1 PUSH2 0x311 JUMP JUMPDEST PUSH2 0x285 JUMP JUMPDEST PUSH1 0x40 MLOAD PUSH2 0x112 SWAP2 SWAP1 PUSH2 0x38D JUMP JUMPDEST PUSH1 0x40 MLOAD DUP1 SWAP2 SUB SWAP1 RETURN JUMPDEST PUSH1 0x0 DUP1 PUSH2 0x111 DUP4 LT ISZERO PUSH2 0x131 JUMPI PUSH1 0x1 SWAP1 POP PUSH2 0x254 JUMP JUMPDEST PUSH2 0x111 DUP4 LT ISZERO DUP1 ISZERO PUSH2 0x150 JUMPI POP PUSH1 0xA PUSH2 0x111 PUSH2 0x14D SWAP2 SWAP1 PUSH2 0x3D9 JUMP JUMPDEST DUP4 LT JUMPDEST ISZERO PUSH2 0x15E JUMPI PUSH1 0xA SWAP1 POP PUSH2 0x253 JUMP JUMPDEST PUSH1 0xA PUSH2 0x111 PUSH2 0x16D SWAP2 SWAP1 PUSH2 0x3D9 JUMP JUMPDEST DUP4 LT ISZERO DUP1 ISZERO PUSH2 0x189 JUMPI POP PUSH1 0x64 PUSH2 0x111 PUSH2 0x186 SWAP2 SWAP1 PUSH2 0x3D9 JUMP JUMPDEST DUP4 LT JUMPDEST ISZERO PUSH2 0x197 JUMPI PUSH1 0x64 SWAP1 POP PUSH2 0x252 JUMP JUMPDEST PUSH1 0x64 PUSH2 0x111 PUSH2 0x1A6 SWAP2 SWAP1 PUSH2 0x3D9 JUMP JUMPDEST DUP4 LT ISZERO DUP1 ISZERO PUSH2 0x1C3 JUMPI POP PUSH2 0x3E8 PUSH2 0x111 PUSH2 0x1C0 SWAP2 SWAP1 PUSH2 0x3D9 JUMP JUMPDEST DUP4 LT JUMPDEST ISZERO PUSH2 0x1D2 JUMPI PUSH2 0x3E8 SWAP1 POP PUSH2 0x251 JUMP JUMPDEST PUSH2 0x3E8 PUSH2 0x111 PUSH2 0x1E2 SWAP2 SWAP1 PUSH2 0x3D9 JUMP JUMPDEST DUP4 LT ISZERO DUP1 ISZERO PUSH2 0x200 JUMPI POP PUSH2 0x2710 PUSH2 0x111 PUSH2 0x1FC SWAP2 SWAP1 PUSH2 0x3D9 JUMP JUMPDEST DUP4 GT ISZERO JUMPDEST ISZERO PUSH2 0x20F JUMPI PUSH2 0x2710 SWAP1 POP PUSH2 0x250 JUMP JUMPDEST PUSH2 0x2710 PUSH2 0x111 PUSH2 0x21F SWAP2 SWAP1 PUSH2 0x3D9 JUMP JUMPDEST DUP4 LT ISZERO DUP1 ISZERO PUSH2 0x23E JUMPI POP PUSH3 0x186A0 PUSH2 0x111 PUSH2 0x23A SWAP2 SWAP1 PUSH2 0x3D9 JUMP JUMPDEST DUP4 GT ISZERO JUMPDEST ISZERO PUSH2 0x24E JUMPI PUSH3 0x186A0 SWAP1 POP PUSH2 0x24F JUMP JUMPDEST JUMPDEST JUMPDEST JUMPDEST JUMPDEST JUMPDEST JUMPDEST DUP1 SWAP2 POP POP SWAP2 SWAP1 POP JUMP JUMPDEST PUSH1 0x0 PUSH2 0x269 DUP4 DUP4 PUSH2 0x2B0 JUMP JUMPDEST SWAP1 POP SWAP3 SWAP2 POP POP JUMP JUMPDEST PUSH1 0x0 PUSH2 0x27D DUP3 DUP5 PUSH2 0x2D0 JUMP JUMPDEST SWAP1 POP SWAP3 SWAP2 POP POP JUMP JUMPDEST PUSH1 0x0 DUP1 PUSH1 0x3 DUP4 GT PUSH2 0x299 JUMPI PUSH1 0x1 SWAP1 POP PUSH2 0x2A7 JUMP JUMPDEST PUSH2 0x2A4 DUP4 PUSH1 0x3 PUSH2 0x2D0 JUMP JUMPDEST SWAP1 POP JUMPDEST DUP1 SWAP2 POP POP SWAP2 SWAP1 POP JUMP JUMPDEST PUSH1 0x0 PUSH1 0x64 PUSH2 0x2BE DUP5 DUP5 PUSH2 0x2E6 JUMP JUMPDEST PUSH2 0x2C8 SWAP2 SWAP1 PUSH2 0x3A8 JUMP JUMPDEST SWAP1 POP SWAP3 SWAP2 POP POP JUMP JUMPDEST PUSH1 0x0 DUP2 DUP4 PUSH2 0x2DE SWAP2 SWAP1 PUSH2 0x3A8 JUMP JUMPDEST SWAP1 POP SWAP3 SWAP2 POP POP JUMP JUMPDEST PUSH1 0x0 DUP2 DUP4 PUSH2 0x2F4 SWAP2 SWAP1 PUSH2 0x3D9 JUMP JUMPDEST SWAP1 POP SWAP3 SWAP2 POP POP JUMP JUMPDEST PUSH1 0x0 DUP2 CALLDATALOAD SWAP1 POP PUSH2 0x30B DUP2 PUSH2 0x4A0 JUMP JUMPDEST SWAP3 SWAP2 POP POP JUMP JUMPDEST PUSH1 0x0 PUSH1 0x20 DUP3 DUP5 SUB SLT ISZERO PUSH2 0x327 JUMPI PUSH2 0x326 PUSH2 0x49B JUMP JUMPDEST JUMPDEST PUSH1 0x0 PUSH2 0x335 DUP5 DUP3 DUP6 ADD PUSH2 0x2FC JUMP JUMPDEST SWAP2 POP POP SWAP3 SWAP2 POP POP JUMP JUMPDEST PUSH1 0x0 DUP1 PUSH1 0x40 DUP4 DUP6 SUB SLT ISZERO PUSH2 0x355 JUMPI PUSH2 0x354 PUSH2 0x49B JUMP JUMPDEST JUMPDEST PUSH1 0x0 PUSH2 0x363 DUP6 DUP3 DUP7 ADD PUSH2 0x2FC JUMP JUMPDEST SWAP3 POP POP PUSH1 0x20 PUSH2 0x374 DUP6 DUP3 DUP7 ADD PUSH2 0x2FC JUMP JUMPDEST SWAP2 POP POP SWAP3 POP SWAP3 SWAP1 POP JUMP JUMPDEST PUSH2 0x387 DUP2 PUSH2 0x433 JUMP JUMPDEST DUP3 MSTORE POP POP JUMP JUMPDEST PUSH1 0x0 PUSH1 0x20 DUP3 ADD SWAP1 POP PUSH2 0x3A2 PUSH1 0x0 DUP4 ADD DUP5 PUSH2 0x37E JUMP JUMPDEST SWAP3 SWAP2 POP POP JUMP JUMPDEST PUSH1 0x0 PUSH2 0x3B3 DUP3 PUSH2 0x433 JUMP JUMPDEST SWAP2 POP PUSH2 0x3BE DUP4 PUSH2 0x433 JUMP JUMPDEST SWAP3 POP DUP3 PUSH2 0x3CE JUMPI PUSH2 0x3CD PUSH2 0x46C JUMP JUMPDEST JUMPDEST DUP3 DUP3 DIV SWAP1 POP SWAP3 SWAP2 POP POP JUMP JUMPDEST PUSH1 0x0 PUSH2 0x3E4 DUP3 PUSH2 0x433 JUMP JUMPDEST SWAP2 POP PUSH2 0x3EF DUP4 PUSH2 0x433 JUMP JUMPDEST SWAP3 POP DUP2 PUSH32 0xFFFFFFFFFFFFFFFFFFFFFFFFFFFFFFFFFFFFFFFFFFFFFFFFFFFFFFFFFFFFFFFF DIV DUP4 GT DUP3 ISZERO ISZERO AND ISZERO PUSH2 0x428 JUMPI PUSH2 0x427 PUSH2 0x43D JUMP JUMPDEST JUMPDEST DUP3 DUP3 MUL SWAP1 POP SWAP3 SWAP2 POP POP JUMP JUMPDEST PUSH1 0x0 DUP2 SWAP1 POP SWAP2 SWAP1 POP JUMP JUMPDEST PUSH32 0x4E487B7100000000000000000000000000000000000000000000000000000000 PUSH1 0x0 MSTORE PUSH1 0x11 PUSH1 0x4 MSTORE PUSH1 0x24 PUSH1 0x0 REVERT JUMPDEST PUSH32 0x4E487B7100000000000000000000000000000000000000000000000000000000 PUSH1 0x0 MSTORE PUSH1 0x12 PUSH1 0x4 MSTORE PUSH1 0x24 PUSH1 0x0 REVERT JUMPDEST PUSH1 0x0 DUP1 REVERT JUMPDEST PUSH2 0x4A9 DUP2 PUSH2 0x433 JUMP JUMPDEST DUP2 EQ PUSH2 0x4B4 JUMPI PUSH1 0x0 DUP1 REVERT JUMPDEST POP JUMP INVALID LOG2 PUSH5 0x6970667358 0x22 SLT KECCAK256 0xAA 0xC0 0xB4 PUSH27 0x76382CA96500873EB820E34030342611BFF37BE1A18CD7A73CD83A LOG1 PUSH5 0x736F6C6343 STOP ADDMOD SMOD STOP CALLER "
				},
				"gasEstimates": {
					"creation": {
						"codeDepositCost": "252200",
						"executionCost": "319",
						"totalCost": "252519"
					},
					"external": {
						"getDeductMoney(uint256,uint256)": "infinite",
						"getMatNumber(uint256)": "infinite",
						"getPunish(uint256,uint256)": "infinite",
						"punishRatio(uint256)": "infinite"
					},
					"internal": {
						"_getPercentage(uint256,uint256)": "infinite",
						"getTaskTrans(uint256)": "infinite",
						"getTaskVf(uint256)": "infinite"
					}
				},
				"methodIdentifiers": {
					"getDeductMoney(uint256,uint256)": "8f861ba7",
					"getMatNumber(uint256)": "f2e60202",
					"getPunish(uint256,uint256)": "9ce5c4bf",
					"punishRatio(uint256)": "4f6ca3ce"
				}
			},
			"storageLayout": {
				"storage": [],
				"types": null
			},
			"userdoc": {
				"kind": "user",
				"methods": {},
				"version": 1
			}
		}
	}
}