{
	"data": {
		"bytecode": {
			"linkReferences": {},
			"object": "60806040523480156200001157600080fd5b5060405162005e2938038062005e29833981016040819052620000349162000110565b6200003f33620000a3565b600180546001600160a01b03199081166001600160a01b039788161790915560028054821695871695909517909455600480548516928616929092179091556003805484169285169290921790915560058054909216921691909117905562000180565b600080546001600160a01b038381166001600160a01b0319831681178455604051919092169283917f8be0079c531659141344cd1fd0a4f28419497f9722a3daafe3b4186f6b6457e09190a35050565b80516001600160a01b03811681146200010b57600080fd5b919050565b600080600080600060a086880312156200012957600080fd5b6200013486620000f3565b94506200014460208701620000f3565b93506200015460408701620000f3565b92506200016460608701620000f3565b91506200017460808701620000f3565b90509295509295909350565b615c9980620001906000396000f3fe608060405234801561001057600080fd5b50600436106101ef5760003560e01c8063a87d942c1161010f578063d1a1b999116100a2578063f2fde38b11610071578063f2fde38b14610454578063fa4c647314610467578063fc2381e11461047a578063ffcce7761461048d57600080fd5b8063d1a1b999146103fb578063d3d7bc3b1461041b578063da24c8221461042e578063e95c06fb1461044157600080fd5b8063b2b2d285116100de578063b2b2d285146103af578063bb0c38c0146103c2578063c5dd0208146103d5578063cb0678b2146103e857600080fd5b8063a87d942c14610361578063aaf7a42d14610369578063ac35cd611461037c578063ad607c721461038f57600080fd5b80635b0ef140116101875780638da5cb5b116101565780638da5cb5b146102ff57806397601efb1461031a578063a0f420d91461032d578063a55af7011461034057600080fd5b80635b0ef140146102b1578063715018a6146102c4578063787a8aa2146102cc5780638adc74a5146102ec57600080fd5b80631f1753b1116101c35780631f1753b11461025757806336d61ae01461026a5780633bd14e131461028b5780633edfa2291461029e57600080fd5b8062a7e49e146101f457806309a02f581461021c5780631201dfc61461023157806318fe083914610244575b600080fd5b6102076102023660046148f8565b6104ad565b60405190151581526020015b60405180910390f35b61022f61022a366004615010565b610536565b005b61022f61023f366004614ee4565b610891565b61022f6102523660046148f8565b6109e6565b61022f610265366004615092565b610a12565b61027d610278366004614f16565b610df7565b604051908152602001610213565b61022f610299366004614fe0565b611162565b61022f6102ac3660046148f8565b6113f3565b61027d6102bf366004614f16565b61168d565b61022f61183e565b6102df6102da36600461504c565b611852565b60405161021391906156a1565b61022f6102fa366004614ee4565b61190b565b6000546040516001600160a01b039091168152602001610213565b61022f61032836600461504c565b611a56565b61020761033b366004614932565b611ac3565b61035361034e366004614ee4565b611b97565b6040516102139291906154a2565b61027d611d04565b61022f6103773660046148f8565b611d86565b61027d61038a366004614a84565b611db0565b6103a261039d36600461504c565b61208d565b60405161021391906154bd565b61022f6103bd3660046148f8565b612111565b61022f6103d0366004615092565b61213b565b61022f6103e33660046148f8565b6124d1565b61022f6103f6366004614f46565b6124fb565b61040e610409366004614ee4565b612dc6565b60405161021391906156f5565b61027d6104293660046148f8565b6133f4565b61022f61043c3660046148f8565b613472565b61022f61044f366004614f46565b61349c565b61022f6104623660046148f8565b613cc1565b61022f610475366004614fe0565b613d3a565b61022f6104883660046148f8565b613f92565b6104a061049b366004614ee4565b613fbc565b60405161021391906154cb565b6004805460405163196115dd60e11b81526001600160a01b0384811693820193909352600092909116906332c22bba9060240160206040518083038186803b1580156104f857600080fd5b505afa15801561050c573d6000803e3d6000fd5b505050506040513d601f19601f8201168201806040525081019061053091906149e9565b92915050565b60035460408051632a1f650b60e21b8152905184926001600160a01b03169163a87d942c916004808301926020929190829003018186803b15801561057a57600080fd5b505afa15801561058e573d6000803e3d6000fd5b505050506040513d601f19601f820116820180604052508101906105b29190614efd565b8111156105db5760405163347626dd60e21b81526004016105d2906154ec565b60405180910390fd5b600354604051630b7ec11760e31b815260048101859052849133916001600160a01b0390911690635bf608b89060240160206040518083038186803b15801561062357600080fd5b505afa158015610637573d6000803e3d6000fd5b505050506040513d601f19601f8201168201806040525081019061065b9190614915565b6001600160a01b03161461069e5760405162461bcd60e51b815260206004820152600a60248201526927b7363c90313abcb2b960b11b60448201526064016105d2565b60025461016084015160405163f74f365560e01b81526004810191909152604660248201526001600160a01b039091169063f74f36559060440160206040518083038186803b1580156106f057600080fd5b505afa158015610704573d6000803e3d6000fd5b505050506040513d601f19601f820116820180604052508101906107289190614efd565b8361016001516107389190615b78565b600554604051636eb1769f60e11b81523360048201523060248201526001600160a01b039091169063dd62ed3e9060440160206040518083038186803b15801561078157600080fd5b505afa158015610795573d6000803e3d6000fd5b505050506040513d601f19601f820116820180604052508101906107b99190614efd565b10156108025760405162461bcd60e51b81526020600482015260186024820152776e6f74206861766120656e6f7567687420617070726f766560401b60448201526064016105d2565b60608301518351106108265760405162461bcd60e51b81526004016105d29061562b565b6004805460405163710b7b2760e01b81526001600160a01b039091169163710b7b279161085991889188913391016159a7565b600060405180830381600087803b15801561087357600080fd5b505af1158015610887573d6000803e3d6000fd5b5050505050505050565b600354604051630b7ec11760e31b8152600481018390526001600160a01b0390911690635bf608b89060240160206040518083038186803b1580156108d557600080fd5b505afa1580156108e9573d6000803e3d6000fd5b505050506040513d601f19601f8201168201806040525081019061090d9190614915565b6001600160a01b0316336001600160a01b0316148061093b57503360009081526006602052604090205460ff165b6109875760405162461bcd60e51b815260206004820152601e60248201527f6f6e6c79206275796572206f7220616d70686920636c6f7365207461736b000060448201526064016105d2565b60048054604051630900efe360e11b81529182018390526001600160a01b031690631201dfc690602401600060405180830381600087803b1580156109cb57600080fd5b505af11580156109df573d6000803e3d6000fd5b5050505050565b6109ee61403c565b6001600160a01b03166000908152600660205260409020805460ff19166001179055565b60035460408051632a1f650b60e21b8152905185926001600160a01b03169163a87d942c916004808301926020929190829003018186803b158015610a5657600080fd5b505afa158015610a6a573d6000803e3d6000fd5b505050506040513d601f19601f82011682018060405250810190610a8e9190614efd565b811115610aae5760405163347626dd60e21b81526004016105d2906154ec565b6003546040516356b03e3960e11b815260048101869052602481018590526000916001600160a01b03169063ad607c729060440160206040518083038186803b158015610afa57600080fd5b505afa158015610b0e573d6000803e3d6000fd5b505050506040513d601f19601f82011682018060405250810190610b329190614a4c565b9050600781600b811115610b4857610b48615bf1565b1480610b655750600681600b811115610b6357610b63615bf1565b145b80610b815750600481600b811115610b7f57610b7f615bf1565b145b80610b9d5750600181600b811115610b9b57610b9b615bf1565b145b610be95760405162461bcd60e51b815260206004820152601d60248201527f746869732066696c652073746174652063616e6e6f74207375626d697400000060448201526064016105d2565b604051602001610c0490602080825260009082015260400190565b6040516020818303038152906040528051906020012083604051602001610c2b91906154d9565b604051602081830303815290604052805190602001201415610c635760006040516379d3124b60e01b81526004016105d2919061556d565b60035460405163b647eec360e01b8152600481018790526000916001600160a01b03169063b647eec39060240160006040518083038186803b158015610ca857600080fd5b505afa158015610cbc573d6000803e3d6000fd5b505050506040513d6000823e601f3d908101601f19168201604052610ce49190810190614981565b90506000805b8251811015610d4157828181518110610d0557610d05615c07565b60200260200101516001600160a01b0316336001600160a01b03161415610d2f5760019150610d41565b80610d3981615bc0565b915050610cea565b5080610d875760405162461bcd60e51b81526020600482015260156024820152741b9bdd081a5b881d995c9a599a595c9cc81b1a5cdd605a1b60448201526064016105d2565b600480546040516329c8c84f60e21b81526001600160a01b039091169163a723213c91610dbc918b918b918b91339101615a14565b600060405180830381600087803b158015610dd657600080fd5b505af1158015610dea573d6000803e3d6000fd5b5050505050505050505050565b600082600360009054906101000a90046001600160a01b03166001600160a01b031663a87d942c6040518163ffffffff1660e01b815260040160206040518083038186803b158015610e4857600080fd5b505afa158015610e5c573d6000803e3d6000fd5b505050506040513d601f19601f82011682018060405250810190610e809190614efd565b811115610ea05760405163347626dd60e21b81526004016105d2906154ec565b3360008181526006602052604090205460ff16610ecf5760405162461bcd60e51b81526004016105d2906155e8565b600480546040516301b6b0d760e51b815260009283926001600160a01b0316916336d61ae091610f15918b918b91019182526001600160a01b0316602082015260400190565b6040805180830381600087803b158015610f2e57600080fd5b505af1158015610f42573d6000803e3d6000fd5b505050506040513d601f19601f82011682018060405250810190610f66919061506e565b600254604051638e4b0bbd60e01b8152600481018390529294509092506000916001600160a01b0390911690634f6ca3ce908290638e4b0bbd906024015b60206040518083038186803b158015610fbc57600080fd5b505afa158015610fd0573d6000803e3d6000fd5b505050506040513d601f19601f82011682018060405250810190610ff49190614efd565b6040518263ffffffff1660e01b815260040161101291815260200190565b60206040518083038186803b15801561102a57600080fd5b505afa15801561103e573d6000803e3d6000fd5b505050506040513d601f19601f820116820180604052508101906110629190614efd565b600254604051639ce5c4bf60e01b815260048101869052602481018390529192506000916001600160a01b0390911690639ce5c4bf9060440160206040518083038186803b1580156110b357600080fd5b505afa1580156110c7573d6000803e3d6000fd5b505050506040513d601f19601f820116820180604052508101906110eb9190614efd565b60048054604051630b91b96160e11b81526001600160a01b038c81169382019390935260248101849052929350169063172372c290604401600060405180830381600087803b15801561113d57600080fd5b505af1158015611151573d6000803e3d6000fd5b50929b9a5050505050505050505050565b61116b33614096565b61118857604051630934f2c360e01b81526004016105d290615518565b60035460408051632a1f650b60e21b8152905184926001600160a01b03169163a87d942c916004808301926020929190829003018186803b1580156111cc57600080fd5b505afa1580156111e0573d6000803e3d6000fd5b505050506040513d601f19601f820116820180604052508101906112049190614efd565b8111156112245760405163347626dd60e21b81526004016105d2906154ec565b60035460405163d3d7bc3b60e01b81523360048201819052916000916001600160a01b039091169063d3d7bc3b9060240160206040518083038186803b15801561126d57600080fd5b505afa158015611281573d6000803e3d6000fd5b505050506040513d601f19601f820116820180604052508101906112a59190614efd565b905080156112c657604051630934f2c360e01b81526004016105d290615544565b600354604051632a333bd560e11b8152600481018790526001600160a01b039091169063546677aa9060240160206040518083038186803b15801561130a57600080fd5b505afa15801561131e573d6000803e3d6000fd5b505050506040513d601f19601f8201168201806040525081019061134291906149e9565b6113875760405162461bcd60e51b81526020600482015260166024820152756163636570742061637469766520697320636c6f736560501b60448201526064016105d2565b60048054604051632857465360e21b81526001600160a01b039091169163a15d194c916113ba9189918991339101615976565b600060405180830381600087803b1580156113d457600080fd5b505af11580156113e8573d6000803e3d6000fd5b505050505050505050565b60035460405163d3d7bc3b60e01b81526001600160a01b038381166004830152600092169063d3d7bc3b9060240160206040518083038186803b15801561143957600080fd5b505afa15801561144d573d6000803e3d6000fd5b505050506040513d601f19601f820116820180604052508101906114719190614efd565b600554604051636eb1769f60e11b815233600482015230602482015291925082916001600160a01b039091169063dd62ed3e9060440160206040518083038186803b1580156114bf57600080fd5b505afa1580156114d3573d6000803e3d6000fd5b505050506040513d601f19601f820116820180604052508101906114f79190614efd565b1015801561157e57506005546040516370a0823160e01b815233600482015282916001600160a01b0316906370a082319060240160206040518083038186803b15801561154357600080fd5b505afa158015611557573d6000803e3d6000fd5b505050506040513d601f19601f8201168201806040525081019061157b9190614efd565b10155b61159a5760405162461bcd60e51b81526004016105d29061559f565b60048054604051632bc206d360e11b81526001600160a01b0385811693820193909352602481018490529116906357840da690604401600060405180830381600087803b1580156115ea57600080fd5b505af11580156115fe573d6000803e3d6000fd5b50506005546040516323b872dd60e01b81526001600160a01b0390911692506323b872dd91506116369033908690869060040161547e565b602060405180830381600087803b15801561165057600080fd5b505af1158015611664573d6000803e3d6000fd5b505050506040513d601f19601f8201168201806040525081019061168891906149e9565b505050565b600082600360009054906101000a90046001600160a01b03166001600160a01b031663a87d942c6040518163ffffffff1660e01b815260040160206040518083038186803b1580156116de57600080fd5b505afa1580156116f2573d6000803e3d6000fd5b505050506040513d601f19601f820116820180604052508101906117169190614efd565b8111156117365760405163347626dd60e21b81526004016105d2906154ec565b3360008181526006602052604090205460ff166117655760405162461bcd60e51b81526004016105d2906155e8565b6004805460405163016c3bc560e61b815260009283926001600160a01b031691635b0ef140916117ab918b918b91019182526001600160a01b0316602082015260400190565b6040805180830381600087803b1580156117c457600080fd5b505af11580156117d8573d6000803e3d6000fd5b505050506040513d601f19601f820116820180604052508101906117fc919061506e565b600254604051632acab2e960e21b8152600481018390529294509092506000916001600160a01b0390911690634f6ca3ce90829063ab2acba490602401610fa4565b61184661403c565b6118506000614131565b565b61187f604051806060016040528060006001600160a01b0316815260200160608152602001606081525090565b60048054604051633c3d455160e11b8152918201859052602482018490526001600160a01b03169063787a8aa29060440160006040518083038186803b1580156118c857600080fd5b505afa1580156118dc573d6000803e3d6000fd5b505050506040513d6000823e601f3d908101601f191682016040526119049190810190614ab8565b9392505050565b60035460408051632a1f650b60e21b8152905183926001600160a01b03169163a87d942c916004808301926020929190829003018186803b15801561194f57600080fd5b505afa158015611963573d6000803e3d6000fd5b505050506040513d601f19601f820116820180604052508101906119879190614efd565b8111156119a75760405163347626dd60e21b81526004016105d2906154ec565b3360008181526006602052604090205460ff166119d65760405162461bcd60e51b81526004016105d2906155e8565b60048054604051638adc74a560e01b81529182018590526001600160a01b031690638adc74a590602401600060405180830381600087803b158015611a1a57600080fd5b505af1158015611a2e573d6000803e3d6000fd5b505050506040513d6000823e601f3d908101601f191682016040526109df9190810190614a06565b600480546040516382e53b6d60e01b8152918201849052602482018390523360448301526001600160a01b0316906382e53b6d90606401600060405180830381600087803b158015611aa757600080fd5b505af1158015611abb573d6000803e3d6000fd5b505050505050565b60035481516000916001600160a01b031690637d88dadf90859085908590611aed57611aed615c07565b602002602001015185600181518110611b0857611b08615c07565b60209081029190910101516040516001600160e01b031960e086901b1681526001600160a01b0390931660048401526024830191909152604482015260640160206040518083038186803b158015611b5f57600080fd5b505afa158015611b73573d6000803e3d6000fd5b505050506040513d601f19601f8201168201806040525081019061190491906149e9565b6000606082600360009054906101000a90046001600160a01b03166001600160a01b031663a87d942c6040518163ffffffff1660e01b815260040160206040518083038186803b158015611bea57600080fd5b505afa158015611bfe573d6000803e3d6000fd5b505050506040513d601f19601f82011682018060405250810190611c229190614efd565b811115611c425760405163347626dd60e21b81526004016105d2906154ec565b3360008181526006602052604090205460ff16611c715760405162461bcd60e51b81526004016105d2906155e8565b6004805460405163a55af70160e01b815291820187905260009182916001600160a01b03169063a55af70190602401600060405180830381600087803b158015611cba57600080fd5b505af1158015611cce573d6000803e3d6000fd5b505050506040513d6000823e601f3d908101601f19168201604052611cf69190810190614a06565b909650945050505050915091565b60035460408051632a1f650b60e21b815290516000926001600160a01b03169163a87d942c916004808301926020929190829003018186803b158015611d4957600080fd5b505afa158015611d5d573d6000803e3d6000fd5b505050506040513d601f19601f82011682018060405250810190611d819190614efd565b905090565b611d8e61403c565b600480546001600160a01b0319166001600160a01b0392909216919091179055565b6000611dbb33614096565b611dd857604051630934f2c360e01b81526004016105d290615518565b60035460405163d3d7bc3b60e01b81523360048201819052916000916001600160a01b039091169063d3d7bc3b9060240160206040518083038186803b158015611e2157600080fd5b505afa158015611e35573d6000803e3d6000fd5b505050506040513d601f19601f82011682018060405250810190611e599190614efd565b90508015611e7a57604051630934f2c360e01b81526004016105d290615544565b60025461016085015160405163f74f365560e01b81526004810191909152604660248201526001600160a01b039091169063f74f36559060440160206040518083038186803b158015611ecc57600080fd5b505afa158015611ee0573d6000803e3d6000fd5b505050506040513d601f19601f82011682018060405250810190611f049190614efd565b846101600151611f149190615b78565b600554604051636eb1769f60e11b81523360048201523060248201526001600160a01b039091169063dd62ed3e9060440160206040518083038186803b158015611f5d57600080fd5b505afa158015611f71573d6000803e3d6000fd5b505050506040513d601f19601f82011682018060405250810190611f959190614efd565b1015611fde5760405162461bcd60e51b81526020600482015260186024820152776e6f74206861766120656e6f7567687420617070726f766560401b60448201526064016105d2565b60608401518451106120025760405162461bcd60e51b81526004016105d29061562b565b600480546040516309987dd760e21b81526001600160a01b0390911691632661f75c91612033918891339101615677565b602060405180830381600087803b15801561204d57600080fd5b505af1158015612061573d6000803e3d6000fd5b505050506040513d601f19601f820116820180604052508101906120859190614efd565b949350505050565b6003546040516356b03e3960e11b815260048101849052602481018390526000916001600160a01b03169063ad607c729060440160206040518083038186803b1580156120d957600080fd5b505afa1580156120ed573d6000803e3d6000fd5b505050506040513d601f19601f820116820180604052508101906119049190614a4c565b61211961403c565b600780546001600160a01b0319166001600160a01b0392909216919091179055565b60035460408051632a1f650b60e21b8152905185926001600160a01b03169163a87d942c916004808301926020929190829003018186803b15801561217f57600080fd5b505afa158015612193573d6000803e3d6000fd5b505050506040513d601f19601f820116820180604052508101906121b79190614efd565b8111156121d75760405163347626dd60e21b81526004016105d2906154ec565b6003546040516356b03e3960e11b815260048101869052602481018590526000916001600160a01b03169063ad607c729060440160206040518083038186803b15801561222357600080fd5b505afa158015612237573d6000803e3d6000fd5b505050506040513d601f19601f8201168201806040525081019061225b9190614a4c565b9050600281600b81111561227157612271615bf1565b148061228e5750600381600b81111561228c5761228c615bf1565b145b806122aa5750600581600b8111156122a8576122a8615bf1565b145b6122f65760405162461bcd60e51b815260206004820152601d60248201527f746869732066696c652073746174652063616e6e6f74207375626d697400000060448201526064016105d2565b60405160200161231190602080825260009082015260400190565b604051602081830303815290604052805190602001208360405160200161233891906154d9565b6040516020818303038152906040528051906020012014156123705760006040516379d3124b60e01b81526004016105d2919061556d565b600354604051631307425560e31b8152600481018790526000916001600160a01b03169063983a12a89060240160006040518083038186803b1580156123b557600080fd5b505afa1580156123c9573d6000803e3d6000fd5b505050506040513d6000823e601f3d908101601f191682016040526123f19190810190614981565b90506000805b825181101561244e5782818151811061241257612412615c07565b60200260200101516001600160a01b0316336001600160a01b0316141561243c576001915061244e565b8061244681615bc0565b9150506123f7565b508061249c5760405162461bcd60e51b815260206004820152601760248201527f6e6f7420696e207472616e736c61746f7273206c69737400000000000000000060448201526064016105d2565b6004805460405163655f05d360e01b81526001600160a01b039091169163655f05d391610dbc918b918b918b91339101615a14565b6124d961403c565b600180546001600160a01b0319166001600160a01b0392909216919091179055565b60035460408051632a1f650b60e21b8152905188926001600160a01b03169163a87d942c916004808301926020929190829003018186803b15801561253f57600080fd5b505afa158015612553573d6000803e3d6000fd5b505050506040513d601f19601f820116820180604052508101906125779190614efd565b8111156125975760405163347626dd60e21b81526004016105d2906154ec565b600354604051630b7ec11760e31b815260048101899052889133916001600160a01b0390911690635bf608b89060240160206040518083038186803b1580156125df57600080fd5b505afa1580156125f3573d6000803e3d6000fd5b505050506040513d601f19601f820116820180604052508101906126179190614915565b6001600160a01b03161461265a5760405162461bcd60e51b815260206004820152600a60248201526927b7363c90313abcb2b960b11b60448201526064016105d2565b60035460405163591b0e2760e01b8152600481018a90526000916001600160a01b03169063591b0e279060240160206040518083038186803b15801561269f57600080fd5b505afa1580156126b3573d6000803e3d6000fd5b505050506040513d601f19601f820116820180604052508101906126d79190614efd565b600354604051637c34eb8560e01b8152600481018c905291925060009182916001600160a01b031690637c34eb859060240160206040518083038186803b15801561272157600080fd5b505afa158015612735573d6000803e3d6000fd5b505050506040513d601f19601f8201168201806040525081019061275991906149e9565b156127e85760035460405163e1ca7ca760e01b8152600481018d9052602481018b90526001600160a01b039091169063e1ca7ca79060440160206040518083038186803b1580156127a957600080fd5b505afa1580156127bd573d6000803e3d6000fd5b505050506040513d601f19601f820116820180604052508101906127e19190614efd565b9050612867565b60035460405163374b9cc160e11b8152600481018d90526001600160a01b0390911690636e9739829060240160206040518083038186803b15801561282c57600080fd5b505afa158015612840573d6000803e3d6000fd5b505050506040513d601f19601f820116820180604052508101906128649190614efd565b90505b6004805460405163f8bc2fd760e01b81526001600160a01b039091169163f8bc2fd7916128a0918f918e918e9133918f918f91016159c0565b600060405180830381600087803b1580156128ba57600080fd5b505af11580156128ce573d6000803e3d6000fd5b505050508715610dea5782600114806128e75750826005145b156129765760025460405163f74f365560e01b815260048101839052606e60248201526001600160a01b039091169063f74f36559060440160206040518083038186803b15801561293757600080fd5b505afa15801561294b573d6000803e3d6000fd5b505050506040513d601f19601f8201168201806040525081019061296f9190614efd565b91506129f5565b600254604051638e4b0bbd60e01b8152600481018390526001600160a01b0390911690638e4b0bbd9060240160206040518083038186803b1580156129ba57600080fd5b505afa1580156129ce573d6000803e3d6000fd5b505050506040513d601f19601f820116820180604052508101906129f29190614efd565b91505b600554604051636eb1769f60e11b815233600482015230602482015283916001600160a01b03169063dd62ed3e9060440160206040518083038186803b158015612a3e57600080fd5b505afa158015612a52573d6000803e3d6000fd5b505050506040513d601f19601f82011682018060405250810190612a769190614efd565b10158015612afd57506005546040516370a0823160e01b815233600482015283916001600160a01b0316906370a082319060240160206040518083038186803b158015612ac257600080fd5b505afa158015612ad6573d6000803e3d6000fd5b505050506040513d601f19601f82011682018060405250810190612afa9190614efd565b10155b612b195760405162461bcd60e51b81526004016105d29061559f565b8260011480612b285750826005145b15612cbb576005546040516323b872dd60e01b81526001600160a01b03909116906323b872dd90612b619033908e90869060040161547e565b602060405180830381600087803b158015612b7b57600080fd5b505af1158015612b8f573d6000803e3d6000fd5b505050506040513d601f19601f82011682018060405250810190612bb391906149e9565b5060055460075460025460405163a16eb4d360e01b8152600481018590526001600160a01b03938416936323b872dd9333939082169291169063a16eb4d39060240160206040518083038186803b158015612c0d57600080fd5b505afa158015612c21573d6000803e3d6000fd5b505050506040513d601f19601f82011682018060405250810190612c459190614efd565b6040518463ffffffff1660e01b8152600401612c639392919061547e565b602060405180830381600087803b158015612c7d57600080fd5b505af1158015612c91573d6000803e3d6000fd5b505050506040513d601f19601f82011682018060405250810190612cb591906149e9565b50610dea565b600554600254604051638e4b0bbd60e01b8152600481018490526001600160a01b03928316926323b872dd9233928f9290911690638e4b0bbd9060240160206040518083038186803b158015612d1057600080fd5b505afa158015612d24573d6000803e3d6000fd5b505050506040513d601f19601f82011682018060405250810190612d489190614efd565b6040518463ffffffff1660e01b8152600401612d669392919061547e565b602060405180830381600087803b158015612d8057600080fd5b505af1158015612d94573d6000803e3d6000fd5b505050506040513d601f19601f82011682018060405250810190612db891906149e9565b505050505050505050505050565b612dce614181565b60035460408051632a1f650b60e21b8152905184926001600160a01b03169163a87d942c916004808301926020929190829003018186803b158015612e1257600080fd5b505afa158015612e26573d6000803e3d6000fd5b505050506040513d601f19601f82011682018060405250810190612e4a9190614efd565b811115612e6a5760405163347626dd60e21b81526004016105d2906154ec565b612e72614181565b60035460405163025e78e760e41b8152600481018690526001600160a01b03909116906325e78e709060240160006040518083038186803b158015612eb657600080fd5b505afa158015612eca573d6000803e3d6000fd5b505050506040513d6000823e601f3d908101601f19168201604052612ef29190810190614cd3565b81526003546040516334bfb5a760e21b8152600481018690526000916001600160a01b03169063d2fed69c9060240160206040518083038186803b158015612f3957600080fd5b505afa158015612f4d573d6000803e3d6000fd5b505050506040513d601f19601f82011682018060405250810190612f719190614efd565b60035460405163f8626ebb60e01b8152600481018890529192506000916001600160a01b039091169063f8626ebb9060240160206040518083038186803b158015612fbb57600080fd5b505afa158015612fcf573d6000803e3d6000fd5b505050506040513d601f19601f82011682018060405250810190612ff39190614efd565b600354604051631307425560e31b8152600481018990529192506000916001600160a01b039091169063983a12a89060240160006040518083038186803b15801561303d57600080fd5b505afa158015613051573d6000803e3d6000fd5b505050506040513d6000823e601f3d908101601f191682016040526130799190810190614981565b60035460405163b647eec360e01b8152600481018a90529192506000916001600160a01b039091169063b647eec39060240160006040518083038186803b1580156130c357600080fd5b505afa1580156130d7573d6000803e3d6000fd5b505050506040513d6000823e601f3d908101601f191682016040526130ff9190810190614981565b90506000846001600160401b0381111561311b5761311b615c1d565b60405190808252806020026020018201604052801561317957816020015b613166604051806060016040528060006001600160a01b0316815260200160608152602001606081525090565b8152602001906001900390816131395790505b5090506000846001600160401b0381111561319657613196615c1d565b6040519080825280602002602001820160405280156131f457816020015b6131e1604051806060016040528060006001600160a01b0316815260200160608152602001606081525090565b8152602001906001900390816131b45790505b50905060005b868110156132e85760035485516001600160a01b0390911690635fed5eb2908d9088908590811061322d5761322d615c07565b60200260200101516040518363ffffffff1660e01b81526004016132649291909182526001600160a01b0316602082015260400190565b60006040518083038186803b15801561327c57600080fd5b505afa158015613290573d6000803e3d6000fd5b505050506040513d6000823e601f3d908101601f191682016040526132b89190810190614b5b565b8382815181106132ca576132ca615c07565b602002602001018190525080806132e090615bc0565b9150506131fa565b5060005b858110156133da5760035484516001600160a01b0390911690637c35beb7908d9087908590811061331f5761331f615c07565b60200260200101516040518363ffffffff1660e01b81526004016133569291909182526001600160a01b0316602082015260400190565b60006040518083038186803b15801561336e57600080fd5b505afa158015613382573d6000803e3d6000fd5b505050506040513d6000823e601f3d908101601f191682016040526133aa9190810190614b5b565b8282815181106133bc576133bc615c07565b602002602001018190525080806133d290615bc0565b9150506132ec565b506020870191909152604086015250929695505050505050565b60035460405163d3d7bc3b60e01b81526001600160a01b038381166004830152600092169063d3d7bc3b9060240160206040518083038186803b15801561343a57600080fd5b505afa15801561344e573d6000803e3d6000fd5b505050506040513d601f19601f820116820180604052508101906105309190614efd565b61347a61403c565b600280546001600160a01b0319166001600160a01b0392909216919091179055565b60035460408051632a1f650b60e21b8152905188926001600160a01b03169163a87d942c916004808301926020929190829003018186803b1580156134e057600080fd5b505afa1580156134f4573d6000803e3d6000fd5b505050506040513d601f19601f820116820180604052508101906135189190614efd565b8111156135385760405163347626dd60e21b81526004016105d2906154ec565b6003546040516356b03e3960e11b815260048101899052602481018790526007916001600160a01b03169063ad607c729060440160206040518083038186803b15801561358457600080fd5b505afa158015613598573d6000803e3d6000fd5b505050506040513d601f19601f820116820180604052508101906135bc9190614a4c565b600b8111156135cd576135cd615bf1565b111561361b5760405162461bcd60e51b815260206004820152601f60248201527f746869732066696c652073746174652063616e6e6f742076616c69646174650060448201526064016105d2565b60405160200161363690602080825260009082015260400190565b604051602081830303815290604052805190602001208360405160200161365d91906154d9565b6040516020818303038152906040528051906020012014156136955760006040516379d3124b60e01b81526004016105d2919061556d565b60035460405163b647eec360e01b8152600481018990526000916001600160a01b03169063b647eec39060240160006040518083038186803b1580156136da57600080fd5b505afa1580156136ee573d6000803e3d6000fd5b505050506040513d6000823e601f3d908101601f191682016040526137169190810190614981565b90506000805b82518110156137735782818151811061373757613737615c07565b60200260200101516001600160a01b0316336001600160a01b031614156137615760019150613773565b8061376b81615bc0565b91505061371c565b50806137b95760405162461bcd60e51b81526020600482015260156024820152741b9bdd081a5b881d995c9a599a595c9cc81b1a5cdd605a1b60448201526064016105d2565b600480546040516308dc21cf60e01b81526000926001600160a01b03909216916308dc21cf916137f7918e918e9133918f918f918f918f9101615915565b602060405180830381600087803b15801561381157600080fd5b505af1158015613825573d6000803e3d6000fd5b505050506040513d601f19601f820116820180604052508101906138499190614efd565b60025460405163f74f365560e01b815260048101839052604660248201529192506000916001600160a01b039091169063f74f36559060440160206040518083038186803b15801561389a57600080fd5b505afa1580156138ae573d6000803e3d6000fd5b505050506040513d601f19601f820116820180604052508101906138d29190614efd565b600354604051630b7ec11760e31b8152600481018e90529192506000916001600160a01b0390911690635bf608b89060240160206040518083038186803b15801561391c57600080fd5b505afa158015613930573d6000803e3d6000fd5b505050506040513d601f19601f820116820180604052508101906139549190614915565b600554604051636eb1769f60e11b81526001600160a01b03808416600483015230602483015292935084929091169063dd62ed3e9060440160206040518083038186803b1580156139a457600080fd5b505afa1580156139b8573d6000803e3d6000fd5b505050506040513d601f19601f820116820180604052508101906139dc9190614efd565b10158015613a6557506005546040516370a0823160e01b81526001600160a01b038381166004830152849216906370a082319060240160206040518083038186803b158015613a2a57600080fd5b505afa158015613a3e573d6000803e3d6000fd5b505050506040513d601f19601f82011682018060405250810190613a629190614efd565b10155b613a815760405162461bcd60e51b81526004016105d29061559f565b8215612db857600560009054906101000a90046001600160a01b03166001600160a01b03166323b872dd828d600260009054906101000a90046001600160a01b03166001600160a01b031663ab2acba4886040518263ffffffff1660e01b8152600401613af091815260200190565b60206040518083038186803b158015613b0857600080fd5b505afa158015613b1c573d6000803e3d6000fd5b505050506040513d601f19601f82011682018060405250810190613b409190614efd565b6040518463ffffffff1660e01b8152600401613b5e9392919061547e565b602060405180830381600087803b158015613b7857600080fd5b505af1158015613b8c573d6000803e3d6000fd5b505050506040513d601f19601f82011682018060405250810190613bb091906149e9565b5060055460075460025460405163a16eb4d360e01b8152600481018790526001600160a01b03938416936323b872dd9386939082169291169063a16eb4d39060240160206040518083038186803b158015613c0a57600080fd5b505afa158015613c1e573d6000803e3d6000fd5b505050506040513d601f19601f82011682018060405250810190613c429190614efd565b6040518463ffffffff1660e01b8152600401613c609392919061547e565b602060405180830381600087803b158015613c7a57600080fd5b505af1158015613c8e573d6000803e3d6000fd5b505050506040513d601f19601f82011682018060405250810190613cb291906149e9565b50505050505050505050505050565b613cc961403c565b6001600160a01b038116613d2e5760405162461bcd60e51b815260206004820152602660248201527f4f776e61626c653a206e6577206f776e657220697320746865207a65726f206160448201526564647265737360d01b60648201526084016105d2565b613d3781614131565b50565b613d4333614096565b613d6057604051630934f2c360e01b81526004016105d290615518565b60035460408051632a1f650b60e21b8152905184926001600160a01b03169163a87d942c916004808301926020929190829003018186803b158015613da457600080fd5b505afa158015613db8573d6000803e3d6000fd5b505050506040513d601f19601f82011682018060405250810190613ddc9190614efd565b811115613dfc5760405163347626dd60e21b81526004016105d2906154ec565b60035460405163d3d7bc3b60e01b81523360048201819052916000916001600160a01b039091169063d3d7bc3b9060240160206040518083038186803b158015613e4557600080fd5b505afa158015613e59573d6000803e3d6000fd5b505050506040513d601f19601f82011682018060405250810190613e7d9190614efd565b90508015613e9e57604051630934f2c360e01b81526004016105d290615544565b600354604051639722f09960e01b8152600481018790526001600160a01b0390911690639722f0999060240160206040518083038186803b158015613ee257600080fd5b505afa158015613ef6573d6000803e3d6000fd5b505050506040513d601f19601f82011682018060405250810190613f1a91906149e9565b613f5f5760405162461bcd60e51b81526020600482015260166024820152756163636570742061637469766520697320636c6f736560501b60448201526064016105d2565b60048054604051634aa86ded60e01b81526001600160a01b0390911691634aa86ded916113ba9189918991339101615976565b613f9a61403c565b600380546001600160a01b0319166001600160a01b0392909216919091179055565b600354604051600162198c4560e11b03198152600481018390526000916001600160a01b03169063ffcce7769060240160206040518083038186803b15801561400457600080fd5b505afa158015614018573d6000803e3d6000fd5b505050506040513d601f19601f820116820180604052508101906105309190614a69565b6000546001600160a01b031633146118505760405162461bcd60e51b815260206004820181905260248201527f4f776e61626c653a2063616c6c6572206973206e6f7420746865206f776e657260448201526064016105d2565b60015460405162438b6360e81b81526001600160a01b038381166004830152600092839291169063438b63009060240160006040518083038186803b1580156140de57600080fd5b505afa1580156140f2573d6000803e3d6000fd5b505050506040513d6000823e601f3d908101601f1916820160405261411a91908101906149b5565b51111561412957506001919050565b506000919050565b600080546001600160a01b038381166001600160a01b0319831681178455604051919092169283917f8be0079c531659141344cd1fd0a4f28419497f9722a3daafe3b4186f6b6457e09190a35050565b60405180606001604052806141946141a8565b815260200160608152602001606081525090565b604051806102e0016040528060006001600160a01b0316815260200160008152602001606081526020016060815260200160008152602001600081526020016000815260200160608152602001600081526020016000815260200160001515815260200160001515815260200160008152602001606081526020016060815260200160608152602001600081526020016000815260200160008152602001600081526020016000151581526020016000151581526020016000600781111561427257614272615bf1565b905290565b805161428281615c33565b919050565b600082601f83011261429857600080fd5b815160206142ad6142a883615b2e565b615afe565b80838252828201915082860187848660051b89010111156142cd57600080fd5b60005b858110156142f55781516142e381615c33565b845292840192908401906001016142d0565b5090979650505050505050565b600082601f83011261431357600080fd5b60206143226142a88435615b2e565b808435825282820191508285018684873560051b880101111561434457600080fd5b60005b8635811015614493576001600160401b03808335111561436657600080fd5b82358801601f1960a0828c038201121561437f57600080fd5b614387615a4c565b888301358481111561439857600080fd5b830160e0818e03840112156143ac57600080fd5b6143b4615a74565b925089810135858111156143c757600080fd5b6143d58e8c83850101614735565b84525060408101358a840152606081013560408401526080810135606084015260a0810135608084015260c081013560a084015260e08101358581111561441b57600080fd5b6144298e8c83850101614735565b60c085015250509081526040820135888201526060820135908382111561444f57600080fd5b61445d8c8a84860101614735565b604082015261446e60808401614710565b606082015260a092909201356080830152508552509284019290840190600101614347565b50909695505050505050565b600082601f8301126144b057600080fd5b81516144be6142a882615b2e565b80828252602082019150602085018660208560051b88010111156144e157600080fd5b60005b848110156144935781516001600160401b038082111561450357600080fd5b90880190601f1960a0838c038201121561451c57600080fd5b614524615a4c565b60208401518381111561453657600080fd5b840160e0818e038401121561454a57600080fd5b614552615a74565b925060208101518481111561456657600080fd5b6145758e602083850101614786565b84525060408101516020840152606081015160408401526080810151606084015260a0810151608084015260c081015160a084015260e0810151848111156145bc57600080fd5b6145cb8e602083850101614786565b60c0850152505090815260408301516020820152606083015190828211156145f257600080fd5b6146018c602084870101614786565b60408201526146126080850161471b565b606082015260a0939093015160808401525050845260209384019391909101906001016144e4565b600082601f83011261464b57600080fd5b8135602061465b6142a883615b2e565b80838252828201915082860187848660051b890101111561467b57600080fd5b60005b858110156142f55781358452928401929084019060010161467e565b600082601f8301126146ab57600080fd5b815160206146bb6142a883615b2e565b80838252828201915082860187848660051b89010111156146db57600080fd5b60005b858110156142f5578151845292840192908401906001016146de565b803561428281615c48565b805161428281615c48565b803561428281615c56565b805161428281615c56565b80516008811061428257600080fd5b600082601f83011261474657600080fd5b81356147546142a882615b51565b81815284602083860101111561476957600080fd5b816020850160208301376000918101602001919091529392505050565b600082601f83011261479757600080fd5b81516147a56142a882615b51565b8181528460208386010111156147ba57600080fd5b612085826020830160208701615b90565b60006101a082840312156147de57600080fd5b6147e6615a96565b90508135815260208201356001600160401b038082111561480657600080fd5b61481285838601614735565b6020840152604084013591508082111561482b57600080fd5b61483785838601614735565b6040840152606084013560608401526080840135608084015260a084013560a084015260c084013591508082111561486e57600080fd5b61487a8583860161463a565b60c084015260e08481013590840152610100808501359084015261012091506148a48285016146fa565b8284015261014091506148b88285016146fa565b8284015261016091508184013582840152610180915081840135818111156148df57600080fd5b6148eb86828701614302565b8385015250505092915050565b60006020828403121561490a57600080fd5b813561190481615c33565b60006020828403121561492757600080fd5b815161190481615c33565b6000806040838503121561494557600080fd5b823561495081615c33565b915060208301356001600160401b0381111561496b57600080fd5b6149778582860161463a565b9150509250929050565b60006020828403121561499357600080fd5b81516001600160401b038111156149a957600080fd5b61208584828501614287565b6000602082840312156149c757600080fd5b81516001600160401b038111156149dd57600080fd5b6120858482850161469a565b6000602082840312156149fb57600080fd5b815161190481615c48565b60008060408385031215614a1957600080fd5b8251614a2481615c48565b60208401519092506001600160401b03811115614a4057600080fd5b61497785828601614786565b600060208284031215614a5e57600080fd5b815161190481615c56565b600060208284031215614a7b57600080fd5b61190482614726565b600060208284031215614a9657600080fd5b81356001600160401b03811115614aac57600080fd5b612085848285016147cb565b600060208284031215614aca57600080fd5b81516001600160401b0380821115614ae157600080fd5b9083019060608286031215614af557600080fd5b614afd615ab9565b8251614b0881615c33565b8152602083015182811115614b1c57600080fd5b614b2887828601614786565b602083015250604083015182811115614b4057600080fd5b614b4c87828601614786565b60408301525095945050505050565b60006020808385031215614b6e57600080fd5b82516001600160401b0380821115614b8557600080fd5b9084019060608287031215614b9957600080fd5b614ba1615ab9565b8251614bac81615c33565b81528284015182811115614bbf57600080fd5b614bcb8882860161469a565b8583015250604083015182811115614be257600080fd5b80840193505086601f840112614bf757600080fd5b8251614c056142a882615b2e565b8082825286820191508686018a888560051b8901011115614c2557600080fd5b60005b84811015614cbf57815187811115614c3f57600080fd5b88016060818e03601f19011215614c5557600080fd5b614c5d615ab9565b8a82015160058110614c6e57600080fd5b8152604082015189811115614c8257600080fd5b614c908f8d83860101614786565b8c8301525060608201519150614ca582615c48565b604081019190915284529288019290880190600101614c28565b505060408401525090979650505050505050565b600060208284031215614ce557600080fd5b81516001600160401b0380821115614cfc57600080fd5b908301906102e08286031215614d1157600080fd5b614d19615adb565b614d2283614277565b815260208301516020820152604083015182811115614d4057600080fd5b614d4c87828601614786565b604083015250606083015182811115614d6457600080fd5b614d7087828601614786565b6060830152506080830151608082015260a083015160a082015260c083015160c082015260e083015182811115614da657600080fd5b614db28782860161469a565b60e08301525061010083810151908201526101208084015190820152610140614ddc818501614705565b90820152610160614dee848201614705565b9082015261018083810151908201526101a08084015183811115614e1157600080fd5b614e1d8882870161449f565b8284015250506101c08084015183811115614e3757600080fd5b614e4388828701614287565b8284015250506101e08084015183811115614e5d57600080fd5b614e6988828701614287565b918301919091525061020083810151908201526102208084015190820152610240808401519082015261026080840151908201526102809150614ead828401614705565b828201526102a09150614ec1828401614705565b828201526102c09150614ed5828401614726565b91810191909152949350505050565b600060208284031215614ef657600080fd5b5035919050565b600060208284031215614f0f57600080fd5b5051919050565b60008060408385031215614f2957600080fd5b823591506020830135614f3b81615c33565b809150509250929050565b60008060008060008060c08789031215614f5f57600080fd5b863595506020870135614f7181615c33565b9450604087013593506060870135614f8881615c48565b925060808701356001600160401b0380821115614fa457600080fd5b614fb08a838b01614735565b935060a0890135915080821115614fc657600080fd5b50614fd389828a01614735565b9150509295509295509295565b60008060408385031215614ff357600080fd5b8235915060208301356001600160401b0381111561496b57600080fd5b6000806040838503121561502357600080fd5b8235915060208301356001600160401b0381111561504057600080fd5b614977858286016147cb565b6000806040838503121561505f57600080fd5b50508035926020909101359150565b6000806040838503121561508157600080fd5b505080516020909101519092909150565b6000806000606084860312156150a757600080fd5b833592506020840135915060408401356001600160401b038111156150cb57600080fd5b6150d786828701614735565b9150509250925092565b600081518084526020808501945080840160005b8381101561511a5781516001600160a01b0316875295820195908201906001016150f5565b509495945050505050565b600081518084526020808501808196508360051b8101915082860160005b8581101561521a578284038952815180516001600160a01b031685528581015160608787018190529061517882880182615323565b604093840151888203898601528051808352908a019491925089830190600581901b84018b0160005b828110156151fd57858203601f1901845287518051600581106151c6576151c6615bf1565b8352808e01518e84018990526151de89850182615377565b91870151151593870193909352978d0197938d019391506001016151a1565b509e8b019e99505050948801945050506001919091019050615143565b5091979650505050505050565b600081518084526020808501808196508360051b8101915082860160005b8581101561521a578284038952815160a08151818752805160e080848a01526152726101808a0183615377565b91508983015160c081818c01526040915081850151838c015260609250828501516101008c01526080808601516101208d0152868601516101408d0152818601519650609f198c8603016101608d01526152cc8588615377565b96508c8801518d8d01528288015195508b8703838d01526152ed8787615377565b9650838801519550615301848d0187615353565b968701519a909601999099525050509986019994505090840190600101615245565b600081518084526020808501945080840160005b8381101561511a57815187529582019590820190600101615337565b600c811061536357615363615bf1565b9052565b6008811061536357615363615bf1565b6000815180845261538f816020860160208601615b90565b601f01601f19169290920160200192915050565b60006101a08251845260208301518160208601526153c382860182615377565b915050604083015184820360408601526153dd8282615377565b915050606083015160608501526080830151608085015260a083015160a085015260c083015184820360c08601526154158282615323565b91505060e083015160e0850152610100808401518186015250610120808401516154428287018215159052565b505061014083810151151590850152610160808401519085015261018080840151858303828701526154748382615227565b9695505050505050565b6001600160a01b039384168152919092166020820152604081019190915260600190565b82151581526040602082015260006120856040830184615377565b602081016105308284615353565b602081016105308284615367565b6020815260006119046020830184615377565b60208082526012908201527157726f6e6720696e6465782076616c75652160701b604082015260600190565b6020808252601290820152714e6f7420486176652050617373204e46542160701b604082015260600190565b6020808252600f908201526e756e706169642070656e616c74792160881b604082015260600190565b60408082526010908201526f199a5b194818d85b9b9bdd081b9d5b1b60821b6060820152602081019190915260800190565b60208082526029908201527f6275796572206e6f74206861766120656e6f7567687420617070726f7665206f604082015268722062616c616e636560b81b606082015260800190565b60208082526023908201527f6f6e6c7920616d706869207465616d2063616e2063616c6c20746865206d65746040820152621a1bd960ea1b606082015260800190565b6020808252602c908201527f5468652072656c6561736554696d652069732067726561746572207468616e2060408201526b74686520646561646c696e6560a01b606082015260800190565b60408152600061568a60408301856153a3565b905060018060a01b03831660208301529392505050565b602080825282516001600160a01b031682820152820151606060408301526000906156cf6080840182615377565b90506040840151601f198483030160608501526156ec8282615377565b95945050505050565b60208152600082516060602084015261571a6080840182516001600160a01b03169052565b602081015160a084015260408101516102e08060c0860152615740610360860183615377565b91506060830151607f19808785030160e088015261575e8483615377565b935060808501519150610100828189015260a0860151925061012083818a015260c0870151935061014084818b015260e08801519450610160848b890301818c01526157aa8887615323565b938901516101808c810191909152928901516101a0808d01919091529189015193975092945090916101c0906157e3828c018715159052565b88015194506101e06157f88b82018715159052565b838901519550610200935085848c01528289015195506102209250848b890301838c01526158268887615227565b97508189015195506102409150848b890301828c015261584688876150e1565b975080890151955050610260848b890301818c015261586588876150e1565b9750838901519550610280945085858c01528289015195506102a0935085848c01528189015195506102c0925085838c015280890151878c015250508287015194506158b66103008a018615159052565b9086015115156103208901529094015193506158d9915050610340850183615367565b60208501519150601f19808583030160408601526158f78284615125565b92506040860151915080858403016060860152506156ec8282615125565b8781526001600160a01b0387811660208301528616604082015260608101859052831515608082015260e060a0820181905260009061595690830185615377565b82810360c08401526159688185615377565b9a9950505050505050505050565b83815260606020820152600061598f6060830185615323565b905060018060a01b0383166040830152949350505050565b83815260606020820152600061598f60608301856153a3565b868152856020820152841515604082015260018060a01b038416606082015260c0608082015260006159f560c0830185615377565b82810360a0840152615a078185615377565b9998505050505050505050565b848152836020820152608060408201526000615a336080830185615377565b905060018060a01b038316606083015295945050505050565b60405160a081016001600160401b0381118282101715615a6e57615a6e615c1d565b60405290565b60405160e081016001600160401b0381118282101715615a6e57615a6e615c1d565b6040516101a081016001600160401b0381118282101715615a6e57615a6e615c1d565b604051606081016001600160401b0381118282101715615a6e57615a6e615c1d565b6040516102e081016001600160401b0381118282101715615a6e57615a6e615c1d565b604051601f8201601f191681016001600160401b0381118282101715615b2657615b26615c1d565b604052919050565b60006001600160401b03821115615b4757615b47615c1d565b5060051b60200190565b60006001600160401b03821115615b6a57615b6a615c1d565b50601f01601f191660200190565b60008219821115615b8b57615b8b615bdb565b500190565b60005b83811015615bab578181015183820152602001615b93565b83811115615bba576000848401525b50505050565b6000600019821415615bd457615bd4615bdb565b5060010190565b634e487b7160e01b600052601160045260246000fd5b634e487b7160e01b600052602160045260246000fd5b634e487b7160e01b600052603260045260246000fd5b634e487b7160e01b600052604160045260246000fd5b6001600160a01b0381168114613d3757600080fd5b8015158114613d3757600080fd5b600c8110613d3757600080fdfea2646970667358221220b9a3b2346a0ee6d6c82e2ab5fd45675d99d27cae1757f95eba42a2864ce29e9f64736f6c63430008070033",
			"opcodes": "PUSH1 0x80 PUSH1 0x40 MSTORE CALLVALUE DUP1 ISZERO PUSH3 0x11 JUMPI PUSH1 0x0 DUP1 REVERT JUMPDEST POP PUSH1 0x40 MLOAD PUSH3 0x5E29 CODESIZE SUB DUP1 PUSH3 0x5E29 DUP4 CODECOPY DUP2 ADD PUSH1 0x40 DUP2 SWAP1 MSTORE PUSH3 0x34 SWAP2 PUSH3 0x110 JUMP JUMPDEST PUSH3 0x3F CALLER PUSH3 0xA3 JUMP JUMPDEST PUSH1 0x1 DUP1 SLOAD PUSH1 0x1 PUSH1 0x1 PUSH1 0xA0 SHL SUB NOT SWAP1 DUP2 AND PUSH1 0x1 PUSH1 0x1 PUSH1 0xA0 SHL SUB SWAP8 DUP9 AND OR SWAP1 SWAP2 SSTORE PUSH1 0x2 DUP1 SLOAD DUP3 AND SWAP6 DUP8 AND SWAP6 SWAP1 SWAP6 OR SWAP1 SWAP5 SSTORE PUSH1 0x4 DUP1 SLOAD DUP6 AND SWAP3 DUP7 AND SWAP3 SWAP1 SWAP3 OR SWAP1 SWAP2 SSTORE PUSH1 0x3 DUP1 SLOAD DUP5 AND SWAP3 DUP6 AND SWAP3 SWAP1 SWAP3 OR SWAP1 SWAP2 SSTORE PUSH1 0x5 DUP1 SLOAD SWAP1 SWAP3 AND SWAP3 AND SWAP2 SWAP1 SWAP2 OR SWAP1 SSTORE PUSH3 0x180 JUMP JUMPDEST PUSH1 0x0 DUP1 SLOAD PUSH1 0x1 PUSH1 0x1 PUSH1 0xA0 SHL SUB DUP4 DUP2 AND PUSH1 0x1 PUSH1 0x1 PUSH1 0xA0 SHL SUB NOT DUP4 AND DUP2 OR DUP5 SSTORE PUSH1 0x40 MLOAD SWAP2 SWAP1 SWAP3 AND SWAP3 DUP4 SWAP2 PUSH32 0x8BE0079C531659141344CD1FD0A4F28419497F9722A3DAAFE3B4186F6B6457E0 SWAP2 SWAP1 LOG3 POP POP JUMP JUMPDEST DUP1 MLOAD PUSH1 0x1 PUSH1 0x1 PUSH1 0xA0 SHL SUB DUP2 AND DUP2 EQ PUSH3 0x10B JUMPI PUSH1 0x0 DUP1 REVERT JUMPDEST SWAP2 SWAP1 POP JUMP JUMPDEST PUSH1 0x0 DUP1 PUSH1 0x0 DUP1 PUSH1 0x0 PUSH1 0xA0 DUP7 DUP9 SUB SLT ISZERO PUSH3 0x129 JUMPI PUSH1 0x0 DUP1 REVERT JUMPDEST PUSH3 0x134 DUP7 PUSH3 0xF3 JUMP JUMPDEST SWAP5 POP PUSH3 0x144 PUSH1 0x20 DUP8 ADD PUSH3 0xF3 JUMP JUMPDEST SWAP4 POP PUSH3 0x154 PUSH1 0x40 DUP8 ADD PUSH3 0xF3 JUMP JUMPDEST SWAP3 POP PUSH3 0x164 PUSH1 0x60 DUP8 ADD PUSH3 0xF3 JUMP JUMPDEST SWAP2 POP PUSH3 0x174 PUSH1 0x80 DUP8 ADD PUSH3 0xF3 JUMP JUMPDEST SWAP1 POP SWAP3 SWAP6 POP SWAP3 SWAP6 SWAP1 SWAP4 POP JUMP JUMPDEST PUSH2 0x5C99 DUP1 PUSH3 0x190 PUSH1 0x0 CODECOPY PUSH1 0x0 RETURN INVALID PUSH1 0x80 PUSH1 0x40 MSTORE CALLVALUE DUP1 ISZERO PUSH2 0x10 JUMPI PUSH1 0x0 DUP1 REVERT JUMPDEST POP PUSH1 0x4 CALLDATASIZE LT PUSH2 0x1EF JUMPI PUSH1 0x0 CALLDATALOAD PUSH1 0xE0 SHR DUP1 PUSH4 0xA87D942C GT PUSH2 0x10F JUMPI DUP1 PUSH4 0xD1A1B999 GT PUSH2 0xA2 JUMPI DUP1 PUSH4 0xF2FDE38B GT PUSH2 0x71 JUMPI DUP1 PUSH4 0xF2FDE38B EQ PUSH2 0x454 JUMPI DUP1 PUSH4 0xFA4C6473 EQ PUSH2 0x467 JUMPI DUP1 PUSH4 0xFC2381E1 EQ PUSH2 0x47A JUMPI DUP1 PUSH4 0xFFCCE776 EQ PUSH2 0x48D JUMPI PUSH1 0x0 DUP1 REVERT JUMPDEST DUP1 PUSH4 0xD1A1B999 EQ PUSH2 0x3FB JUMPI DUP1 PUSH4 0xD3D7BC3B EQ PUSH2 0x41B JUMPI DUP1 PUSH4 0xDA24C822 EQ PUSH2 0x42E JUMPI DUP1 PUSH4 0xE95C06FB EQ PUSH2 0x441 JUMPI PUSH1 0x0 DUP1 REVERT JUMPDEST DUP1 PUSH4 0xB2B2D285 GT PUSH2 0xDE JUMPI DUP1 PUSH4 0xB2B2D285 EQ PUSH2 0x3AF JUMPI DUP1 PUSH4 0xBB0C38C0 EQ PUSH2 0x3C2 JUMPI DUP1 PUSH4 0xC5DD0208 EQ PUSH2 0x3D5 JUMPI DUP1 PUSH4 0xCB0678B2 EQ PUSH2 0x3E8 JUMPI PUSH1 0x0 DUP1 REVERT JUMPDEST DUP1 PUSH4 0xA87D942C EQ PUSH2 0x361 JUMPI DUP1 PUSH4 0xAAF7A42D EQ PUSH2 0x369 JUMPI DUP1 PUSH4 0xAC35CD61 EQ PUSH2 0x37C JUMPI DUP1 PUSH4 0xAD607C72 EQ PUSH2 0x38F JUMPI PUSH1 0x0 DUP1 REVERT JUMPDEST DUP1 PUSH4 0x5B0EF140 GT PUSH2 0x187 JUMPI DUP1 PUSH4 0x8DA5CB5B GT PUSH2 0x156 JUMPI DUP1 PUSH4 0x8DA5CB5B EQ PUSH2 0x2FF JUMPI DUP1 PUSH4 0x97601EFB EQ PUSH2 0x31A JUMPI DUP1 PUSH4 0xA0F420D9 EQ PUSH2 0x32D JUMPI DUP1 PUSH4 0xA55AF701 EQ PUSH2 0x340 JUMPI PUSH1 0x0 DUP1 REVERT JUMPDEST DUP1 PUSH4 0x5B0EF140 EQ PUSH2 0x2B1 JUMPI DUP1 PUSH4 0x715018A6 EQ PUSH2 0x2C4 JUMPI DUP1 PUSH4 0x787A8AA2 EQ PUSH2 0x2CC JUMPI DUP1 PUSH4 0x8ADC74A5 EQ PUSH2 0x2EC JUMPI PUSH1 0x0 DUP1 REVERT JUMPDEST DUP1 PUSH4 0x1F1753B1 GT PUSH2 0x1C3 JUMPI DUP1 PUSH4 0x1F1753B1 EQ PUSH2 0x257 JUMPI DUP1 PUSH4 0x36D61AE0 EQ PUSH2 0x26A JUMPI DUP1 PUSH4 0x3BD14E13 EQ PUSH2 0x28B JUMPI DUP1 PUSH4 0x3EDFA229 EQ PUSH2 0x29E JUMPI PUSH1 0x0 DUP1 REVERT JUMPDEST DUP1 PUSH3 0xA7E49E EQ PUSH2 0x1F4 JUMPI DUP1 PUSH4 0x9A02F58 EQ PUSH2 0x21C JUMPI DUP1 PUSH4 0x1201DFC6 EQ PUSH2 0x231 JUMPI DUP1 PUSH4 0x18FE0839 EQ PUSH2 0x244 JUMPI JUMPDEST PUSH1 0x0 DUP1 REVERT JUMPDEST PUSH2 0x207 PUSH2 0x202 CALLDATASIZE PUSH1 0x4 PUSH2 0x48F8 JUMP JUMPDEST PUSH2 0x4AD JUMP JUMPDEST PUSH1 0x40 MLOAD SWAP1 ISZERO ISZERO DUP2 MSTORE PUSH1 0x20 ADD JUMPDEST PUSH1 0x40 MLOAD DUP1 SWAP2 SUB SWAP1 RETURN JUMPDEST PUSH2 0x22F PUSH2 0x22A CALLDATASIZE PUSH1 0x4 PUSH2 0x5010 JUMP JUMPDEST PUSH2 0x536 JUMP JUMPDEST STOP JUMPDEST PUSH2 0x22F PUSH2 0x23F CALLDATASIZE PUSH1 0x4 PUSH2 0x4EE4 JUMP JUMPDEST PUSH2 0x891 JUMP JUMPDEST PUSH2 0x22F PUSH2 0x252 CALLDATASIZE PUSH1 0x4 PUSH2 0x48F8 JUMP JUMPDEST PUSH2 0x9E6 JUMP JUMPDEST PUSH2 0x22F PUSH2 0x265 CALLDATASIZE PUSH1 0x4 PUSH2 0x5092 JUMP JUMPDEST PUSH2 0xA12 JUMP JUMPDEST PUSH2 0x27D PUSH2 0x278 CALLDATASIZE PUSH1 0x4 PUSH2 0x4F16 JUMP JUMPDEST PUSH2 0xDF7 JUMP JUMPDEST PUSH1 0x40 MLOAD SWAP1 DUP2 MSTORE PUSH1 0x20 ADD PUSH2 0x213 JUMP JUMPDEST PUSH2 0x22F PUSH2 0x299 CALLDATASIZE PUSH1 0x4 PUSH2 0x4FE0 JUMP JUMPDEST PUSH2 0x1162 JUMP JUMPDEST PUSH2 0x22F PUSH2 0x2AC CALLDATASIZE PUSH1 0x4 PUSH2 0x48F8 JUMP JUMPDEST PUSH2 0x13F3 JUMP JUMPDEST PUSH2 0x27D PUSH2 0x2BF CALLDATASIZE PUSH1 0x4 PUSH2 0x4F16 JUMP JUMPDEST PUSH2 0x168D JUMP JUMPDEST PUSH2 0x22F PUSH2 0x183E JUMP JUMPDEST PUSH2 0x2DF PUSH2 0x2DA CALLDATASIZE PUSH1 0x4 PUSH2 0x504C JUMP JUMPDEST PUSH2 0x1852 JUMP JUMPDEST PUSH1 0x40 MLOAD PUSH2 0x213 SWAP2 SWAP1 PUSH2 0x56A1 JUMP JUMPDEST PUSH2 0x22F PUSH2 0x2FA CALLDATASIZE PUSH1 0x4 PUSH2 0x4EE4 JUMP JUMPDEST PUSH2 0x190B JUMP JUMPDEST PUSH1 0x0 SLOAD PUSH1 0x40 MLOAD PUSH1 0x1 PUSH1 0x1 PUSH1 0xA0 SHL SUB SWAP1 SWAP2 AND DUP2 MSTORE PUSH1 0x20 ADD PUSH2 0x213 JUMP JUMPDEST PUSH2 0x22F PUSH2 0x328 CALLDATASIZE PUSH1 0x4 PUSH2 0x504C JUMP JUMPDEST PUSH2 0x1A56 JUMP JUMPDEST PUSH2 0x207 PUSH2 0x33B CALLDATASIZE PUSH1 0x4 PUSH2 0x4932 JUMP JUMPDEST PUSH2 0x1AC3 JUMP JUMPDEST PUSH2 0x353 PUSH2 0x34E CALLDATASIZE PUSH1 0x4 PUSH2 0x4EE4 JUMP JUMPDEST PUSH2 0x1B97 JUMP JUMPDEST PUSH1 0x40 MLOAD PUSH2 0x213 SWAP3 SWAP2 SWAP1 PUSH2 0x54A2 JUMP JUMPDEST PUSH2 0x27D PUSH2 0x1D04 JUMP JUMPDEST PUSH2 0x22F PUSH2 0x377 CALLDATASIZE PUSH1 0x4 PUSH2 0x48F8 JUMP JUMPDEST PUSH2 0x1D86 JUMP JUMPDEST PUSH2 0x27D PUSH2 0x38A CALLDATASIZE PUSH1 0x4 PUSH2 0x4A84 JUMP JUMPDEST PUSH2 0x1DB0 JUMP JUMPDEST PUSH2 0x3A2 PUSH2 0x39D CALLDATASIZE PUSH1 0x4 PUSH2 0x504C JUMP JUMPDEST PUSH2 0x208D JUMP JUMPDEST PUSH1 0x40 MLOAD PUSH2 0x213 SWAP2 SWAP1 PUSH2 0x54BD JUMP JUMPDEST PUSH2 0x22F PUSH2 0x3BD CALLDATASIZE PUSH1 0x4 PUSH2 0x48F8 JUMP JUMPDEST PUSH2 0x2111 JUMP JUMPDEST PUSH2 0x22F PUSH2 0x3D0 CALLDATASIZE PUSH1 0x4 PUSH2 0x5092 JUMP JUMPDEST PUSH2 0x213B JUMP JUMPDEST PUSH2 0x22F PUSH2 0x3E3 CALLDATASIZE PUSH1 0x4 PUSH2 0x48F8 JUMP JUMPDEST PUSH2 0x24D1 JUMP JUMPDEST PUSH2 0x22F PUSH2 0x3F6 CALLDATASIZE PUSH1 0x4 PUSH2 0x4F46 JUMP JUMPDEST PUSH2 0x24FB JUMP JUMPDEST PUSH2 0x40E PUSH2 0x409 CALLDATASIZE PUSH1 0x4 PUSH2 0x4EE4 JUMP JUMPDEST PUSH2 0x2DC6 JUMP JUMPDEST PUSH1 0x40 MLOAD PUSH2 0x213 SWAP2 SWAP1 PUSH2 0x56F5 JUMP JUMPDEST PUSH2 0x27D PUSH2 0x429 CALLDATASIZE PUSH1 0x4 PUSH2 0x48F8 JUMP JUMPDEST PUSH2 0x33F4 JUMP JUMPDEST PUSH2 0x22F PUSH2 0x43C CALLDATASIZE PUSH1 0x4 PUSH2 0x48F8 JUMP JUMPDEST PUSH2 0x3472 JUMP JUMPDEST PUSH2 0x22F PUSH2 0x44F CALLDATASIZE PUSH1 0x4 PUSH2 0x4F46 JUMP JUMPDEST PUSH2 0x349C JUMP JUMPDEST PUSH2 0x22F PUSH2 0x462 CALLDATASIZE PUSH1 0x4 PUSH2 0x48F8 JUMP JUMPDEST PUSH2 0x3CC1 JUMP JUMPDEST PUSH2 0x22F PUSH2 0x475 CALLDATASIZE PUSH1 0x4 PUSH2 0x4FE0 JUMP JUMPDEST PUSH2 0x3D3A JUMP JUMPDEST PUSH2 0x22F PUSH2 0x488 CALLDATASIZE PUSH1 0x4 PUSH2 0x48F8 JUMP JUMPDEST PUSH2 0x3F92 JUMP JUMPDEST PUSH2 0x4A0 PUSH2 0x49B CALLDATASIZE PUSH1 0x4 PUSH2 0x4EE4 JUMP JUMPDEST PUSH2 0x3FBC JUMP JUMPDEST PUSH1 0x40 MLOAD PUSH2 0x213 SWAP2 SWAP1 PUSH2 0x54CB JUMP JUMPDEST PUSH1 0x4 DUP1 SLOAD PUSH1 0x40 MLOAD PUSH4 0x196115DD PUSH1 0xE1 SHL DUP2 MSTORE PUSH1 0x1 PUSH1 0x1 PUSH1 0xA0 SHL SUB DUP5 DUP2 AND SWAP4 DUP3 ADD SWAP4 SWAP1 SWAP4 MSTORE PUSH1 0x0 SWAP3 SWAP1 SWAP2 AND SWAP1 PUSH4 0x32C22BBA SWAP1 PUSH1 0x24 ADD PUSH1 0x20 PUSH1 0x40 MLOAD DUP1 DUP4 SUB DUP2 DUP7 DUP1 EXTCODESIZE ISZERO DUP1 ISZERO PUSH2 0x4F8 JUMPI PUSH1 0x0 DUP1 REVERT JUMPDEST POP GAS STATICCALL ISZERO DUP1 ISZERO PUSH2 0x50C JUMPI RETURNDATASIZE PUSH1 0x0 DUP1 RETURNDATACOPY RETURNDATASIZE PUSH1 0x0 REVERT JUMPDEST POP POP POP POP PUSH1 0x40 MLOAD RETURNDATASIZE PUSH1 0x1F NOT PUSH1 0x1F DUP3 ADD AND DUP3 ADD DUP1 PUSH1 0x40 MSTORE POP DUP2 ADD SWAP1 PUSH2 0x530 SWAP2 SWAP1 PUSH2 0x49E9 JUMP JUMPDEST SWAP3 SWAP2 POP POP JUMP JUMPDEST PUSH1 0x3 SLOAD PUSH1 0x40 DUP1 MLOAD PUSH4 0x2A1F650B PUSH1 0xE2 SHL DUP2 MSTORE SWAP1 MLOAD DUP5 SWAP3 PUSH1 0x1 PUSH1 0x1 PUSH1 0xA0 SHL SUB AND SWAP2 PUSH4 0xA87D942C SWAP2 PUSH1 0x4 DUP1 DUP4 ADD SWAP3 PUSH1 0x20 SWAP3 SWAP2 SWAP1 DUP3 SWAP1 SUB ADD DUP2 DUP7 DUP1 EXTCODESIZE ISZERO DUP1 ISZERO PUSH2 0x57A JUMPI PUSH1 0x0 DUP1 REVERT JUMPDEST POP GAS STATICCALL ISZERO DUP1 ISZERO PUSH2 0x58E JUMPI RETURNDATASIZE PUSH1 0x0 DUP1 RETURNDATACOPY RETURNDATASIZE PUSH1 0x0 REVERT JUMPDEST POP POP POP POP PUSH1 0x40 MLOAD RETURNDATASIZE PUSH1 0x1F NOT PUSH1 0x1F DUP3 ADD AND DUP3 ADD DUP1 PUSH1 0x40 MSTORE POP DUP2 ADD SWAP1 PUSH2 0x5B2 SWAP2 SWAP1 PUSH2 0x4EFD JUMP JUMPDEST DUP2 GT ISZERO PUSH2 0x5DB JUMPI PUSH1 0x40 MLOAD PUSH4 0x347626DD PUSH1 0xE2 SHL DUP2 MSTORE PUSH1 0x4 ADD PUSH2 0x5D2 SWAP1 PUSH2 0x54EC JUMP JUMPDEST PUSH1 0x40 MLOAD DUP1 SWAP2 SUB SWAP1 REVERT JUMPDEST PUSH1 0x3 SLOAD PUSH1 0x40 MLOAD PUSH4 0xB7EC117 PUSH1 0xE3 SHL DUP2 MSTORE PUSH1 0x4 DUP2 ADD DUP6 SWAP1 MSTORE DUP5 SWAP2 CALLER SWAP2 PUSH1 0x1 PUSH1 0x1 PUSH1 0xA0 SHL SUB SWAP1 SWAP2 AND SWAP1 PUSH4 0x5BF608B8 SWAP1 PUSH1 0x24 ADD PUSH1 0x20 PUSH1 0x40 MLOAD DUP1 DUP4 SUB DUP2 DUP7 DUP1 EXTCODESIZE ISZERO DUP1 ISZERO PUSH2 0x623 JUMPI PUSH1 0x0 DUP1 REVERT JUMPDEST POP GAS STATICCALL ISZERO DUP1 ISZERO PUSH2 0x637 JUMPI RETURNDATASIZE PUSH1 0x0 DUP1 RETURNDATACOPY RETURNDATASIZE PUSH1 0x0 REVERT JUMPDEST POP POP POP POP PUSH1 0x40 MLOAD RETURNDATASIZE PUSH1 0x1F NOT PUSH1 0x1F DUP3 ADD AND DUP3 ADD DUP1 PUSH1 0x40 MSTORE POP DUP2 ADD SWAP1 PUSH2 0x65B SWAP2 SWAP1 PUSH2 0x4915 JUMP JUMPDEST PUSH1 0x1 PUSH1 0x1 PUSH1 0xA0 SHL SUB AND EQ PUSH2 0x69E JUMPI PUSH1 0x40 MLOAD PUSH3 0x461BCD PUSH1 0xE5 SHL DUP2 MSTORE PUSH1 0x20 PUSH1 0x4 DUP3 ADD MSTORE PUSH1 0xA PUSH1 0x24 DUP3 ADD MSTORE PUSH10 0x27B7363C90313ABCB2B9 PUSH1 0xB1 SHL PUSH1 0x44 DUP3 ADD MSTORE PUSH1 0x64 ADD PUSH2 0x5D2 JUMP JUMPDEST PUSH1 0x2 SLOAD PUSH2 0x160 DUP5 ADD MLOAD PUSH1 0x40 MLOAD PUSH4 0xF74F3655 PUSH1 0xE0 SHL DUP2 MSTORE PUSH1 0x4 DUP2 ADD SWAP2 SWAP1 SWAP2 MSTORE PUSH1 0x46 PUSH1 0x24 DUP3 ADD MSTORE PUSH1 0x1 PUSH1 0x1 PUSH1 0xA0 SHL SUB SWAP1 SWAP2 AND SWAP1 PUSH4 0xF74F3655 SWAP1 PUSH1 0x44 ADD PUSH1 0x20 PUSH1 0x40 MLOAD DUP1 DUP4 SUB DUP2 DUP7 DUP1 EXTCODESIZE ISZERO DUP1 ISZERO PUSH2 0x6F0 JUMPI PUSH1 0x0 DUP1 REVERT JUMPDEST POP GAS STATICCALL ISZERO DUP1 ISZERO PUSH2 0x704 JUMPI RETURNDATASIZE PUSH1 0x0 DUP1 RETURNDATACOPY RETURNDATASIZE PUSH1 0x0 REVERT JUMPDEST POP POP POP POP PUSH1 0x40 MLOAD RETURNDATASIZE PUSH1 0x1F NOT PUSH1 0x1F DUP3 ADD AND DUP3 ADD DUP1 PUSH1 0x40 MSTORE POP DUP2 ADD SWAP1 PUSH2 0x728 SWAP2 SWAP1 PUSH2 0x4EFD JUMP JUMPDEST DUP4 PUSH2 0x160 ADD MLOAD PUSH2 0x738 SWAP2 SWAP1 PUSH2 0x5B78 JUMP JUMPDEST PUSH1 0x5 SLOAD PUSH1 0x40 MLOAD PUSH4 0x6EB1769F PUSH1 0xE1 SHL DUP2 MSTORE CALLER PUSH1 0x4 DUP3 ADD MSTORE ADDRESS PUSH1 0x24 DUP3 ADD MSTORE PUSH1 0x1 PUSH1 0x1 PUSH1 0xA0 SHL SUB SWAP1 SWAP2 AND SWAP1 PUSH4 0xDD62ED3E SWAP1 PUSH1 0x44 ADD PUSH1 0x20 PUSH1 0x40 MLOAD DUP1 DUP4 SUB DUP2 DUP7 DUP1 EXTCODESIZE ISZERO DUP1 ISZERO PUSH2 0x781 JUMPI PUSH1 0x0 DUP1 REVERT JUMPDEST POP GAS STATICCALL ISZERO DUP1 ISZERO PUSH2 0x795 JUMPI RETURNDATASIZE PUSH1 0x0 DUP1 RETURNDATACOPY RETURNDATASIZE PUSH1 0x0 REVERT JUMPDEST POP POP POP POP PUSH1 0x40 MLOAD RETURNDATASIZE PUSH1 0x1F NOT PUSH1 0x1F DUP3 ADD AND DUP3 ADD DUP1 PUSH1 0x40 MSTORE POP DUP2 ADD SWAP1 PUSH2 0x7B9 SWAP2 SWAP1 PUSH2 0x4EFD JUMP JUMPDEST LT ISZERO PUSH2 0x802 JUMPI PUSH1 0x40 MLOAD PUSH3 0x461BCD PUSH1 0xE5 SHL DUP2 MSTORE PUSH1 0x20 PUSH1 0x4 DUP3 ADD MSTORE PUSH1 0x18 PUSH1 0x24 DUP3 ADD MSTORE PUSH24 0x6E6F74206861766120656E6F7567687420617070726F7665 PUSH1 0x40 SHL PUSH1 0x44 DUP3 ADD MSTORE PUSH1 0x64 ADD PUSH2 0x5D2 JUMP JUMPDEST PUSH1 0x60 DUP4 ADD MLOAD DUP4 MLOAD LT PUSH2 0x826 JUMPI PUSH1 0x40 MLOAD PUSH3 0x461BCD PUSH1 0xE5 SHL DUP2 MSTORE PUSH1 0x4 ADD PUSH2 0x5D2 SWAP1 PUSH2 0x562B JUMP JUMPDEST PUSH1 0x4 DUP1 SLOAD PUSH1 0x40 MLOAD PUSH4 0x710B7B27 PUSH1 0xE0 SHL DUP2 MSTORE PUSH1 0x1 PUSH1 0x1 PUSH1 0xA0 SHL SUB SWAP1 SWAP2 AND SWAP2 PUSH4 0x710B7B27 SWAP2 PUSH2 0x859 SWAP2 DUP9 SWAP2 DUP9 SWAP2 CALLER SWAP2 ADD PUSH2 0x59A7 JUMP JUMPDEST PUSH1 0x0 PUSH1 0x40 MLOAD DUP1 DUP4 SUB DUP2 PUSH1 0x0 DUP8 DUP1 EXTCODESIZE ISZERO DUP1 ISZERO PUSH2 0x873 JUMPI PUSH1 0x0 DUP1 REVERT JUMPDEST POP GAS CALL ISZERO DUP1 ISZERO PUSH2 0x887 JUMPI RETURNDATASIZE PUSH1 0x0 DUP1 RETURNDATACOPY RETURNDATASIZE PUSH1 0x0 REVERT JUMPDEST POP POP POP POP POP POP POP POP JUMP JUMPDEST PUSH1 0x3 SLOAD PUSH1 0x40 MLOAD PUSH4 0xB7EC117 PUSH1 0xE3 SHL DUP2 MSTORE PUSH1 0x4 DUP2 ADD DUP4 SWAP1 MSTORE PUSH1 0x1 PUSH1 0x1 PUSH1 0xA0 SHL SUB SWAP1 SWAP2 AND SWAP1 PUSH4 0x5BF608B8 SWAP1 PUSH1 0x24 ADD PUSH1 0x20 PUSH1 0x40 MLOAD DUP1 DUP4 SUB DUP2 DUP7 DUP1 EXTCODESIZE ISZERO DUP1 ISZERO PUSH2 0x8D5 JUMPI PUSH1 0x0 DUP1 REVERT JUMPDEST POP GAS STATICCALL ISZERO DUP1 ISZERO PUSH2 0x8E9 JUMPI RETURNDATASIZE PUSH1 0x0 DUP1 RETURNDATACOPY RETURNDATASIZE PUSH1 0x0 REVERT JUMPDEST POP POP POP POP PUSH1 0x40 MLOAD RETURNDATASIZE PUSH1 0x1F NOT PUSH1 0x1F DUP3 ADD AND DUP3 ADD DUP1 PUSH1 0x40 MSTORE POP DUP2 ADD SWAP1 PUSH2 0x90D SWAP2 SWAP1 PUSH2 0x4915 JUMP JUMPDEST PUSH1 0x1 PUSH1 0x1 PUSH1 0xA0 SHL SUB AND CALLER PUSH1 0x1 PUSH1 0x1 PUSH1 0xA0 SHL SUB AND EQ DUP1 PUSH2 0x93B JUMPI POP CALLER PUSH1 0x0 SWAP1 DUP2 MSTORE PUSH1 0x6 PUSH1 0x20 MSTORE PUSH1 0x40 SWAP1 KECCAK256 SLOAD PUSH1 0xFF AND JUMPDEST PUSH2 0x987 JUMPI PUSH1 0x40 MLOAD PUSH3 0x461BCD PUSH1 0xE5 SHL DUP2 MSTORE PUSH1 0x20 PUSH1 0x4 DUP3 ADD MSTORE PUSH1 0x1E PUSH1 0x24 DUP3 ADD MSTORE PUSH32 0x6F6E6C79206275796572206F7220616D70686920636C6F7365207461736B0000 PUSH1 0x44 DUP3 ADD MSTORE PUSH1 0x64 ADD PUSH2 0x5D2 JUMP JUMPDEST PUSH1 0x4 DUP1 SLOAD PUSH1 0x40 MLOAD PUSH4 0x900EFE3 PUSH1 0xE1 SHL DUP2 MSTORE SWAP2 DUP3 ADD DUP4 SWAP1 MSTORE PUSH1 0x1 PUSH1 0x1 PUSH1 0xA0 SHL SUB AND SWAP1 PUSH4 0x1201DFC6 SWAP1 PUSH1 0x24 ADD PUSH1 0x0 PUSH1 0x40 MLOAD DUP1 DUP4 SUB DUP2 PUSH1 0x0 DUP8 DUP1 EXTCODESIZE ISZERO DUP1 ISZERO PUSH2 0x9CB JUMPI PUSH1 0x0 DUP1 REVERT JUMPDEST POP GAS CALL ISZERO DUP1 ISZERO PUSH2 0x9DF JUMPI RETURNDATASIZE PUSH1 0x0 DUP1 RETURNDATACOPY RETURNDATASIZE PUSH1 0x0 REVERT JUMPDEST POP POP POP POP POP JUMP JUMPDEST PUSH2 0x9EE PUSH2 0x403C JUMP JUMPDEST PUSH1 0x1 PUSH1 0x1 PUSH1 0xA0 SHL SUB AND PUSH1 0x0 SWAP1 DUP2 MSTORE PUSH1 0x6 PUSH1 0x20 MSTORE PUSH1 0x40 SWAP1 KECCAK256 DUP1 SLOAD PUSH1 0xFF NOT AND PUSH1 0x1 OR SWAP1 SSTORE JUMP JUMPDEST PUSH1 0x3 SLOAD PUSH1 0x40 DUP1 MLOAD PUSH4 0x2A1F650B PUSH1 0xE2 SHL DUP2 MSTORE SWAP1 MLOAD DUP6 SWAP3 PUSH1 0x1 PUSH1 0x1 PUSH1 0xA0 SHL SUB AND SWAP2 PUSH4 0xA87D942C SWAP2 PUSH1 0x4 DUP1 DUP4 ADD SWAP3 PUSH1 0x20 SWAP3 SWAP2 SWAP1 DUP3 SWAP1 SUB ADD DUP2 DUP7 DUP1 EXTCODESIZE ISZERO DUP1 ISZERO PUSH2 0xA56 JUMPI PUSH1 0x0 DUP1 REVERT JUMPDEST POP GAS STATICCALL ISZERO DUP1 ISZERO PUSH2 0xA6A JUMPI RETURNDATASIZE PUSH1 0x0 DUP1 RETURNDATACOPY RETURNDATASIZE PUSH1 0x0 REVERT JUMPDEST POP POP POP POP PUSH1 0x40 MLOAD RETURNDATASIZE PUSH1 0x1F NOT PUSH1 0x1F DUP3 ADD AND DUP3 ADD DUP1 PUSH1 0x40 MSTORE POP DUP2 ADD SWAP1 PUSH2 0xA8E SWAP2 SWAP1 PUSH2 0x4EFD JUMP JUMPDEST DUP2 GT ISZERO PUSH2 0xAAE JUMPI PUSH1 0x40 MLOAD PUSH4 0x347626DD PUSH1 0xE2 SHL DUP2 MSTORE PUSH1 0x4 ADD PUSH2 0x5D2 SWAP1 PUSH2 0x54EC JUMP JUMPDEST PUSH1 0x3 SLOAD PUSH1 0x40 MLOAD PUSH4 0x56B03E39 PUSH1 0xE1 SHL DUP2 MSTORE PUSH1 0x4 DUP2 ADD DUP7 SWAP1 MSTORE PUSH1 0x24 DUP2 ADD DUP6 SWAP1 MSTORE PUSH1 0x0 SWAP2 PUSH1 0x1 PUSH1 0x1 PUSH1 0xA0 SHL SUB AND SWAP1 PUSH4 0xAD607C72 SWAP1 PUSH1 0x44 ADD PUSH1 0x20 PUSH1 0x40 MLOAD DUP1 DUP4 SUB DUP2 DUP7 DUP1 EXTCODESIZE ISZERO DUP1 ISZERO PUSH2 0xAFA JUMPI PUSH1 0x0 DUP1 REVERT JUMPDEST POP GAS STATICCALL ISZERO DUP1 ISZERO PUSH2 0xB0E JUMPI RETURNDATASIZE PUSH1 0x0 DUP1 RETURNDATACOPY RETURNDATASIZE PUSH1 0x0 REVERT JUMPDEST POP POP POP POP PUSH1 0x40 MLOAD RETURNDATASIZE PUSH1 0x1F NOT PUSH1 0x1F DUP3 ADD AND DUP3 ADD DUP1 PUSH1 0x40 MSTORE POP DUP2 ADD SWAP1 PUSH2 0xB32 SWAP2 SWAP1 PUSH2 0x4A4C JUMP JUMPDEST SWAP1 POP PUSH1 0x7 DUP2 PUSH1 0xB DUP2 GT ISZERO PUSH2 0xB48 JUMPI PUSH2 0xB48 PUSH2 0x5BF1 JUMP JUMPDEST EQ DUP1 PUSH2 0xB65 JUMPI POP PUSH1 0x6 DUP2 PUSH1 0xB DUP2 GT ISZERO PUSH2 0xB63 JUMPI PUSH2 0xB63 PUSH2 0x5BF1 JUMP JUMPDEST EQ JUMPDEST DUP1 PUSH2 0xB81 JUMPI POP PUSH1 0x4 DUP2 PUSH1 0xB DUP2 GT ISZERO PUSH2 0xB7F JUMPI PUSH2 0xB7F PUSH2 0x5BF1 JUMP JUMPDEST EQ JUMPDEST DUP1 PUSH2 0xB9D JUMPI POP PUSH1 0x1 DUP2 PUSH1 0xB DUP2 GT ISZERO PUSH2 0xB9B JUMPI PUSH2 0xB9B PUSH2 0x5BF1 JUMP JUMPDEST EQ JUMPDEST PUSH2 0xBE9 JUMPI PUSH1 0x40 MLOAD PUSH3 0x461BCD PUSH1 0xE5 SHL DUP2 MSTORE PUSH1 0x20 PUSH1 0x4 DUP3 ADD MSTORE PUSH1 0x1D PUSH1 0x24 DUP3 ADD MSTORE PUSH32 0x746869732066696C652073746174652063616E6E6F74207375626D6974000000 PUSH1 0x44 DUP3 ADD MSTORE PUSH1 0x64 ADD PUSH2 0x5D2 JUMP JUMPDEST PUSH1 0x40 MLOAD PUSH1 0x20 ADD PUSH2 0xC04 SWAP1 PUSH1 0x20 DUP1 DUP3 MSTORE PUSH1 0x0 SWAP1 DUP3 ADD MSTORE PUSH1 0x40 ADD SWAP1 JUMP JUMPDEST PUSH1 0x40 MLOAD PUSH1 0x20 DUP2 DUP4 SUB SUB DUP2 MSTORE SWAP1 PUSH1 0x40 MSTORE DUP1 MLOAD SWAP1 PUSH1 0x20 ADD KECCAK256 DUP4 PUSH1 0x40 MLOAD PUSH1 0x20 ADD PUSH2 0xC2B SWAP2 SWAP1 PUSH2 0x54D9 JUMP JUMPDEST PUSH1 0x40 MLOAD PUSH1 0x20 DUP2 DUP4 SUB SUB DUP2 MSTORE SWAP1 PUSH1 0x40 MSTORE DUP1 MLOAD SWAP1 PUSH1 0x20 ADD KECCAK256 EQ ISZERO PUSH2 0xC63 JUMPI PUSH1 0x0 PUSH1 0x40 MLOAD PUSH4 0x79D3124B PUSH1 0xE0 SHL DUP2 MSTORE PUSH1 0x4 ADD PUSH2 0x5D2 SWAP2 SWAP1 PUSH2 0x556D JUMP JUMPDEST PUSH1 0x3 SLOAD PUSH1 0x40 MLOAD PUSH4 0xB647EEC3 PUSH1 0xE0 SHL DUP2 MSTORE PUSH1 0x4 DUP2 ADD DUP8 SWAP1 MSTORE PUSH1 0x0 SWAP2 PUSH1 0x1 PUSH1 0x1 PUSH1 0xA0 SHL SUB AND SWAP1 PUSH4 0xB647EEC3 SWAP1 PUSH1 0x24 ADD PUSH1 0x0 PUSH1 0x40 MLOAD DUP1 DUP4 SUB DUP2 DUP7 DUP1 EXTCODESIZE ISZERO DUP1 ISZERO PUSH2 0xCA8 JUMPI PUSH1 0x0 DUP1 REVERT JUMPDEST POP GAS STATICCALL ISZERO DUP1 ISZERO PUSH2 0xCBC JUMPI RETURNDATASIZE PUSH1 0x0 DUP1 RETURNDATACOPY RETURNDATASIZE PUSH1 0x0 REVERT JUMPDEST POP POP POP POP PUSH1 0x40 MLOAD RETURNDATASIZE PUSH1 0x0 DUP3 RETURNDATACOPY PUSH1 0x1F RETURNDATASIZE SWAP1 DUP2 ADD PUSH1 0x1F NOT AND DUP3 ADD PUSH1 0x40 MSTORE PUSH2 0xCE4 SWAP2 SWAP1 DUP2 ADD SWAP1 PUSH2 0x4981 JUMP JUMPDEST SWAP1 POP PUSH1 0x0 DUP1 JUMPDEST DUP3 MLOAD DUP2 LT ISZERO PUSH2 0xD41 JUMPI DUP3 DUP2 DUP2 MLOAD DUP2 LT PUSH2 0xD05 JUMPI PUSH2 0xD05 PUSH2 0x5C07 JUMP JUMPDEST PUSH1 0x20 MUL PUSH1 0x20 ADD ADD MLOAD PUSH1 0x1 PUSH1 0x1 PUSH1 0xA0 SHL SUB AND CALLER PUSH1 0x1 PUSH1 0x1 PUSH1 0xA0 SHL SUB AND EQ ISZERO PUSH2 0xD2F JUMPI PUSH1 0x1 SWAP2 POP PUSH2 0xD41 JUMP JUMPDEST DUP1 PUSH2 0xD39 DUP2 PUSH2 0x5BC0 JUMP JUMPDEST SWAP2 POP POP PUSH2 0xCEA JUMP JUMPDEST POP DUP1 PUSH2 0xD87 JUMPI PUSH1 0x40 MLOAD PUSH3 0x461BCD PUSH1 0xE5 SHL DUP2 MSTORE PUSH1 0x20 PUSH1 0x4 DUP3 ADD MSTORE PUSH1 0x15 PUSH1 0x24 DUP3 ADD MSTORE PUSH21 0x1B9BDD081A5B881D995C9A599A595C9CC81B1A5CDD PUSH1 0x5A SHL PUSH1 0x44 DUP3 ADD MSTORE PUSH1 0x64 ADD PUSH2 0x5D2 JUMP JUMPDEST PUSH1 0x4 DUP1 SLOAD PUSH1 0x40 MLOAD PUSH4 0x29C8C84F PUSH1 0xE2 SHL DUP2 MSTORE PUSH1 0x1 PUSH1 0x1 PUSH1 0xA0 SHL SUB SWAP1 SWAP2 AND SWAP2 PUSH4 0xA723213C SWAP2 PUSH2 0xDBC SWAP2 DUP12 SWAP2 DUP12 SWAP2 DUP12 SWAP2 CALLER SWAP2 ADD PUSH2 0x5A14 JUMP JUMPDEST PUSH1 0x0 PUSH1 0x40 MLOAD DUP1 DUP4 SUB DUP2 PUSH1 0x0 DUP8 DUP1 EXTCODESIZE ISZERO DUP1 ISZERO PUSH2 0xDD6 JUMPI PUSH1 0x0 DUP1 REVERT JUMPDEST POP GAS CALL ISZERO DUP1 ISZERO PUSH2 0xDEA JUMPI RETURNDATASIZE PUSH1 0x0 DUP1 RETURNDATACOPY RETURNDATASIZE PUSH1 0x0 REVERT JUMPDEST POP POP POP POP POP POP POP POP POP POP POP JUMP JUMPDEST PUSH1 0x0 DUP3 PUSH1 0x3 PUSH1 0x0 SWAP1 SLOAD SWAP1 PUSH2 0x100 EXP SWAP1 DIV PUSH1 0x1 PUSH1 0x1 PUSH1 0xA0 SHL SUB AND PUSH1 0x1 PUSH1 0x1 PUSH1 0xA0 SHL SUB AND PUSH4 0xA87D942C PUSH1 0x40 MLOAD DUP2 PUSH4 0xFFFFFFFF AND PUSH1 0xE0 SHL DUP2 MSTORE PUSH1 0x4 ADD PUSH1 0x20 PUSH1 0x40 MLOAD DUP1 DUP4 SUB DUP2 DUP7 DUP1 EXTCODESIZE ISZERO DUP1 ISZERO PUSH2 0xE48 JUMPI PUSH1 0x0 DUP1 REVERT JUMPDEST POP GAS STATICCALL ISZERO DUP1 ISZERO PUSH2 0xE5C JUMPI RETURNDATASIZE PUSH1 0x0 DUP1 RETURNDATACOPY RETURNDATASIZE PUSH1 0x0 REVERT JUMPDEST POP POP POP POP PUSH1 0x40 MLOAD RETURNDATASIZE PUSH1 0x1F NOT PUSH1 0x1F DUP3 ADD AND DUP3 ADD DUP1 PUSH1 0x40 MSTORE POP DUP2 ADD SWAP1 PUSH2 0xE80 SWAP2 SWAP1 PUSH2 0x4EFD JUMP JUMPDEST DUP2 GT ISZERO PUSH2 0xEA0 JUMPI PUSH1 0x40 MLOAD PUSH4 0x347626DD PUSH1 0xE2 SHL DUP2 MSTORE PUSH1 0x4 ADD PUSH2 0x5D2 SWAP1 PUSH2 0x54EC JUMP JUMPDEST CALLER PUSH1 0x0 DUP2 DUP2 MSTORE PUSH1 0x6 PUSH1 0x20 MSTORE PUSH1 0x40 SWAP1 KECCAK256 SLOAD PUSH1 0xFF AND PUSH2 0xECF JUMPI PUSH1 0x40 MLOAD PUSH3 0x461BCD PUSH1 0xE5 SHL DUP2 MSTORE PUSH1 0x4 ADD PUSH2 0x5D2 SWAP1 PUSH2 0x55E8 JUMP JUMPDEST PUSH1 0x4 DUP1 SLOAD PUSH1 0x40 MLOAD PUSH4 0x1B6B0D7 PUSH1 0xE5 SHL DUP2 MSTORE PUSH1 0x0 SWAP3 DUP4 SWAP3 PUSH1 0x1 PUSH1 0x1 PUSH1 0xA0 SHL SUB AND SWAP2 PUSH4 0x36D61AE0 SWAP2 PUSH2 0xF15 SWAP2 DUP12 SWAP2 DUP12 SWAP2 ADD SWAP2 DUP3 MSTORE PUSH1 0x1 PUSH1 0x1 PUSH1 0xA0 SHL SUB AND PUSH1 0x20 DUP3 ADD MSTORE PUSH1 0x40 ADD SWAP1 JUMP JUMPDEST PUSH1 0x40 DUP1 MLOAD DUP1 DUP4 SUB DUP2 PUSH1 0x0 DUP8 DUP1 EXTCODESIZE ISZERO DUP1 ISZERO PUSH2 0xF2E JUMPI PUSH1 0x0 DUP1 REVERT JUMPDEST POP GAS CALL ISZERO DUP1 ISZERO PUSH2 0xF42 JUMPI RETURNDATASIZE PUSH1 0x0 DUP1 RETURNDATACOPY RETURNDATASIZE PUSH1 0x0 REVERT JUMPDEST POP POP POP POP PUSH1 0x40 MLOAD RETURNDATASIZE PUSH1 0x1F NOT PUSH1 0x1F DUP3 ADD AND DUP3 ADD DUP1 PUSH1 0x40 MSTORE POP DUP2 ADD SWAP1 PUSH2 0xF66 SWAP2 SWAP1 PUSH2 0x506E JUMP JUMPDEST PUSH1 0x2 SLOAD PUSH1 0x40 MLOAD PUSH4 0x8E4B0BBD PUSH1 0xE0 SHL DUP2 MSTORE PUSH1 0x4 DUP2 ADD DUP4 SWAP1 MSTORE SWAP3 SWAP5 POP SWAP1 SWAP3 POP PUSH1 0x0 SWAP2 PUSH1 0x1 PUSH1 0x1 PUSH1 0xA0 SHL SUB SWAP1 SWAP2 AND SWAP1 PUSH4 0x4F6CA3CE SWAP1 DUP3 SWAP1 PUSH4 0x8E4B0BBD SWAP1 PUSH1 0x24 ADD JUMPDEST PUSH1 0x20 PUSH1 0x40 MLOAD DUP1 DUP4 SUB DUP2 DUP7 DUP1 EXTCODESIZE ISZERO DUP1 ISZERO PUSH2 0xFBC JUMPI PUSH1 0x0 DUP1 REVERT JUMPDEST POP GAS STATICCALL ISZERO DUP1 ISZERO PUSH2 0xFD0 JUMPI RETURNDATASIZE PUSH1 0x0 DUP1 RETURNDATACOPY RETURNDATASIZE PUSH1 0x0 REVERT JUMPDEST POP POP POP POP PUSH1 0x40 MLOAD RETURNDATASIZE PUSH1 0x1F NOT PUSH1 0x1F DUP3 ADD AND DUP3 ADD DUP1 PUSH1 0x40 MSTORE POP DUP2 ADD SWAP1 PUSH2 0xFF4 SWAP2 SWAP1 PUSH2 0x4EFD JUMP JUMPDEST PUSH1 0x40 MLOAD DUP3 PUSH4 0xFFFFFFFF AND PUSH1 0xE0 SHL DUP2 MSTORE PUSH1 0x4 ADD PUSH2 0x1012 SWAP2 DUP2 MSTORE PUSH1 0x20 ADD SWAP1 JUMP JUMPDEST PUSH1 0x20 PUSH1 0x40 MLOAD DUP1 DUP4 SUB DUP2 DUP7 DUP1 EXTCODESIZE ISZERO DUP1 ISZERO PUSH2 0x102A JUMPI PUSH1 0x0 DUP1 REVERT JUMPDEST POP GAS STATICCALL ISZERO DUP1 ISZERO PUSH2 0x103E JUMPI RETURNDATASIZE PUSH1 0x0 DUP1 RETURNDATACOPY RETURNDATASIZE PUSH1 0x0 REVERT JUMPDEST POP POP POP POP PUSH1 0x40 MLOAD RETURNDATASIZE PUSH1 0x1F NOT PUSH1 0x1F DUP3 ADD AND DUP3 ADD DUP1 PUSH1 0x40 MSTORE POP DUP2 ADD SWAP1 PUSH2 0x1062 SWAP2 SWAP1 PUSH2 0x4EFD JUMP JUMPDEST PUSH1 0x2 SLOAD PUSH1 0x40 MLOAD PUSH4 0x9CE5C4BF PUSH1 0xE0 SHL DUP2 MSTORE PUSH1 0x4 DUP2 ADD DUP7 SWAP1 MSTORE PUSH1 0x24 DUP2 ADD DUP4 SWAP1 MSTORE SWAP2 SWAP3 POP PUSH1 0x0 SWAP2 PUSH1 0x1 PUSH1 0x1 PUSH1 0xA0 SHL SUB SWAP1 SWAP2 AND SWAP1 PUSH4 0x9CE5C4BF SWAP1 PUSH1 0x44 ADD PUSH1 0x20 PUSH1 0x40 MLOAD DUP1 DUP4 SUB DUP2 DUP7 DUP1 EXTCODESIZE ISZERO DUP1 ISZERO PUSH2 0x10B3 JUMPI PUSH1 0x0 DUP1 REVERT JUMPDEST POP GAS STATICCALL ISZERO DUP1 ISZERO PUSH2 0x10C7 JUMPI RETURNDATASIZE PUSH1 0x0 DUP1 RETURNDATACOPY RETURNDATASIZE PUSH1 0x0 REVERT JUMPDEST POP POP POP POP PUSH1 0x40 MLOAD RETURNDATASIZE PUSH1 0x1F NOT PUSH1 0x1F DUP3 ADD AND DUP3 ADD DUP1 PUSH1 0x40 MSTORE POP DUP2 ADD SWAP1 PUSH2 0x10EB SWAP2 SWAP1 PUSH2 0x4EFD JUMP JUMPDEST PUSH1 0x4 DUP1 SLOAD PUSH1 0x40 MLOAD PUSH4 0xB91B961 PUSH1 0xE1 SHL DUP2 MSTORE PUSH1 0x1 PUSH1 0x1 PUSH1 0xA0 SHL SUB DUP13 DUP2 AND SWAP4 DUP3 ADD SWAP4 SWAP1 SWAP4 MSTORE PUSH1 0x24 DUP2 ADD DUP5 SWAP1 MSTORE SWAP3 SWAP4 POP AND SWAP1 PUSH4 0x172372C2 SWAP1 PUSH1 0x44 ADD PUSH1 0x0 PUSH1 0x40 MLOAD DUP1 DUP4 SUB DUP2 PUSH1 0x0 DUP8 DUP1 EXTCODESIZE ISZERO DUP1 ISZERO PUSH2 0x113D JUMPI PUSH1 0x0 DUP1 REVERT JUMPDEST POP GAS CALL ISZERO DUP1 ISZERO PUSH2 0x1151 JUMPI RETURNDATASIZE PUSH1 0x0 DUP1 RETURNDATACOPY RETURNDATASIZE PUSH1 0x0 REVERT JUMPDEST POP SWAP3 SWAP12 SWAP11 POP POP POP POP POP POP POP POP POP POP POP JUMP JUMPDEST PUSH2 0x116B CALLER PUSH2 0x4096 JUMP JUMPDEST PUSH2 0x1188 JUMPI PUSH1 0x40 MLOAD PUSH4 0x934F2C3 PUSH1 0xE0 SHL DUP2 MSTORE PUSH1 0x4 ADD PUSH2 0x5D2 SWAP1 PUSH2 0x5518 JUMP JUMPDEST PUSH1 0x3 SLOAD PUSH1 0x40 DUP1 MLOAD PUSH4 0x2A1F650B PUSH1 0xE2 SHL DUP2 MSTORE SWAP1 MLOAD DUP5 SWAP3 PUSH1 0x1 PUSH1 0x1 PUSH1 0xA0 SHL SUB AND SWAP2 PUSH4 0xA87D942C SWAP2 PUSH1 0x4 DUP1 DUP4 ADD SWAP3 PUSH1 0x20 SWAP3 SWAP2 SWAP1 DUP3 SWAP1 SUB ADD DUP2 DUP7 DUP1 EXTCODESIZE ISZERO DUP1 ISZERO PUSH2 0x11CC JUMPI PUSH1 0x0 DUP1 REVERT JUMPDEST POP GAS STATICCALL ISZERO DUP1 ISZERO PUSH2 0x11E0 JUMPI RETURNDATASIZE PUSH1 0x0 DUP1 RETURNDATACOPY RETURNDATASIZE PUSH1 0x0 REVERT JUMPDEST POP POP POP POP PUSH1 0x40 MLOAD RETURNDATASIZE PUSH1 0x1F NOT PUSH1 0x1F DUP3 ADD AND DUP3 ADD DUP1 PUSH1 0x40 MSTORE POP DUP2 ADD SWAP1 PUSH2 0x1204 SWAP2 SWAP1 PUSH2 0x4EFD JUMP JUMPDEST DUP2 GT ISZERO PUSH2 0x1224 JUMPI PUSH1 0x40 MLOAD PUSH4 0x347626DD PUSH1 0xE2 SHL DUP2 MSTORE PUSH1 0x4 ADD PUSH2 0x5D2 SWAP1 PUSH2 0x54EC JUMP JUMPDEST PUSH1 0x3 SLOAD PUSH1 0x40 MLOAD PUSH4 0xD3D7BC3B PUSH1 0xE0 SHL DUP2 MSTORE CALLER PUSH1 0x4 DUP3 ADD DUP2 SWAP1 MSTORE SWAP2 PUSH1 0x0 SWAP2 PUSH1 0x1 PUSH1 0x1 PUSH1 0xA0 SHL SUB SWAP1 SWAP2 AND SWAP1 PUSH4 0xD3D7BC3B SWAP1 PUSH1 0x24 ADD PUSH1 0x20 PUSH1 0x40 MLOAD DUP1 DUP4 SUB DUP2 DUP7 DUP1 EXTCODESIZE ISZERO DUP1 ISZERO PUSH2 0x126D JUMPI PUSH1 0x0 DUP1 REVERT JUMPDEST POP GAS STATICCALL ISZERO DUP1 ISZERO PUSH2 0x1281 JUMPI RETURNDATASIZE PUSH1 0x0 DUP1 RETURNDATACOPY RETURNDATASIZE PUSH1 0x0 REVERT JUMPDEST POP POP POP POP PUSH1 0x40 MLOAD RETURNDATASIZE PUSH1 0x1F NOT PUSH1 0x1F DUP3 ADD AND DUP3 ADD DUP1 PUSH1 0x40 MSTORE POP DUP2 ADD SWAP1 PUSH2 0x12A5 SWAP2 SWAP1 PUSH2 0x4EFD JUMP JUMPDEST SWAP1 POP DUP1 ISZERO PUSH2 0x12C6 JUMPI PUSH1 0x40 MLOAD PUSH4 0x934F2C3 PUSH1 0xE0 SHL DUP2 MSTORE PUSH1 0x4 ADD PUSH2 0x5D2 SWAP1 PUSH2 0x5544 JUMP JUMPDEST PUSH1 0x3 SLOAD PUSH1 0x40 MLOAD PUSH4 0x2A333BD5 PUSH1 0xE1 SHL DUP2 MSTORE PUSH1 0x4 DUP2 ADD DUP8 SWAP1 MSTORE PUSH1 0x1 PUSH1 0x1 PUSH1 0xA0 SHL SUB SWAP1 SWAP2 AND SWAP1 PUSH4 0x546677AA SWAP1 PUSH1 0x24 ADD PUSH1 0x20 PUSH1 0x40 MLOAD DUP1 DUP4 SUB DUP2 DUP7 DUP1 EXTCODESIZE ISZERO DUP1 ISZERO PUSH2 0x130A JUMPI PUSH1 0x0 DUP1 REVERT JUMPDEST POP GAS STATICCALL ISZERO DUP1 ISZERO PUSH2 0x131E JUMPI RETURNDATASIZE PUSH1 0x0 DUP1 RETURNDATACOPY RETURNDATASIZE PUSH1 0x0 REVERT JUMPDEST POP POP POP POP PUSH1 0x40 MLOAD RETURNDATASIZE PUSH1 0x1F NOT PUSH1 0x1F DUP3 ADD AND DUP3 ADD DUP1 PUSH1 0x40 MSTORE POP DUP2 ADD SWAP1 PUSH2 0x1342 SWAP2 SWAP1 PUSH2 0x49E9 JUMP JUMPDEST PUSH2 0x1387 JUMPI PUSH1 0x40 MLOAD PUSH3 0x461BCD PUSH1 0xE5 SHL DUP2 MSTORE PUSH1 0x20 PUSH1 0x4 DUP3 ADD MSTORE PUSH1 0x16 PUSH1 0x24 DUP3 ADD MSTORE PUSH22 0x6163636570742061637469766520697320636C6F7365 PUSH1 0x50 SHL PUSH1 0x44 DUP3 ADD MSTORE PUSH1 0x64 ADD PUSH2 0x5D2 JUMP JUMPDEST PUSH1 0x4 DUP1 SLOAD PUSH1 0x40 MLOAD PUSH4 0x28574653 PUSH1 0xE2 SHL DUP2 MSTORE PUSH1 0x1 PUSH1 0x1 PUSH1 0xA0 SHL SUB SWAP1 SWAP2 AND SWAP2 PUSH4 0xA15D194C SWAP2 PUSH2 0x13BA SWAP2 DUP10 SWAP2 DUP10 SWAP2 CALLER SWAP2 ADD PUSH2 0x5976 JUMP JUMPDEST PUSH1 0x0 PUSH1 0x40 MLOAD DUP1 DUP4 SUB DUP2 PUSH1 0x0 DUP8 DUP1 EXTCODESIZE ISZERO DUP1 ISZERO PUSH2 0x13D4 JUMPI PUSH1 0x0 DUP1 REVERT JUMPDEST POP GAS CALL ISZERO DUP1 ISZERO PUSH2 0x13E8 JUMPI RETURNDATASIZE PUSH1 0x0 DUP1 RETURNDATACOPY RETURNDATASIZE PUSH1 0x0 REVERT JUMPDEST POP POP POP POP POP POP POP POP POP JUMP JUMPDEST PUSH1 0x3 SLOAD PUSH1 0x40 MLOAD PUSH4 0xD3D7BC3B PUSH1 0xE0 SHL DUP2 MSTORE PUSH1 0x1 PUSH1 0x1 PUSH1 0xA0 SHL SUB DUP4 DUP2 AND PUSH1 0x4 DUP4 ADD MSTORE PUSH1 0x0 SWAP3 AND SWAP1 PUSH4 0xD3D7BC3B SWAP1 PUSH1 0x24 ADD PUSH1 0x20 PUSH1 0x40 MLOAD DUP1 DUP4 SUB DUP2 DUP7 DUP1 EXTCODESIZE ISZERO DUP1 ISZERO PUSH2 0x1439 JUMPI PUSH1 0x0 DUP1 REVERT JUMPDEST POP GAS STATICCALL ISZERO DUP1 ISZERO PUSH2 0x144D JUMPI RETURNDATASIZE PUSH1 0x0 DUP1 RETURNDATACOPY RETURNDATASIZE PUSH1 0x0 REVERT JUMPDEST POP POP POP POP PUSH1 0x40 MLOAD RETURNDATASIZE PUSH1 0x1F NOT PUSH1 0x1F DUP3 ADD AND DUP3 ADD DUP1 PUSH1 0x40 MSTORE POP DUP2 ADD SWAP1 PUSH2 0x1471 SWAP2 SWAP1 PUSH2 0x4EFD JUMP JUMPDEST PUSH1 0x5 SLOAD PUSH1 0x40 MLOAD PUSH4 0x6EB1769F PUSH1 0xE1 SHL DUP2 MSTORE CALLER PUSH1 0x4 DUP3 ADD MSTORE ADDRESS PUSH1 0x24 DUP3 ADD MSTORE SWAP2 SWAP3 POP DUP3 SWAP2 PUSH1 0x1 PUSH1 0x1 PUSH1 0xA0 SHL SUB SWAP1 SWAP2 AND SWAP1 PUSH4 0xDD62ED3E SWAP1 PUSH1 0x44 ADD PUSH1 0x20 PUSH1 0x40 MLOAD DUP1 DUP4 SUB DUP2 DUP7 DUP1 EXTCODESIZE ISZERO DUP1 ISZERO PUSH2 0x14BF JUMPI PUSH1 0x0 DUP1 REVERT JUMPDEST POP GAS STATICCALL ISZERO DUP1 ISZERO PUSH2 0x14D3 JUMPI RETURNDATASIZE PUSH1 0x0 DUP1 RETURNDATACOPY RETURNDATASIZE PUSH1 0x0 REVERT JUMPDEST POP POP POP POP PUSH1 0x40 MLOAD RETURNDATASIZE PUSH1 0x1F NOT PUSH1 0x1F DUP3 ADD AND DUP3 ADD DUP1 PUSH1 0x40 MSTORE POP DUP2 ADD SWAP1 PUSH2 0x14F7 SWAP2 SWAP1 PUSH2 0x4EFD JUMP JUMPDEST LT ISZERO DUP1 ISZERO PUSH2 0x157E JUMPI POP PUSH1 0x5 SLOAD PUSH1 0x40 MLOAD PUSH4 0x70A08231 PUSH1 0xE0 SHL DUP2 MSTORE CALLER PUSH1 0x4 DUP3 ADD MSTORE DUP3 SWAP2 PUSH1 0x1 PUSH1 0x1 PUSH1 0xA0 SHL SUB AND SWAP1 PUSH4 0x70A08231 SWAP1 PUSH1 0x24 ADD PUSH1 0x20 PUSH1 0x40 MLOAD DUP1 DUP4 SUB DUP2 DUP7 DUP1 EXTCODESIZE ISZERO DUP1 ISZERO PUSH2 0x1543 JUMPI PUSH1 0x0 DUP1 REVERT JUMPDEST POP GAS STATICCALL ISZERO DUP1 ISZERO PUSH2 0x1557 JUMPI RETURNDATASIZE PUSH1 0x0 DUP1 RETURNDATACOPY RETURNDATASIZE PUSH1 0x0 REVERT JUMPDEST POP POP POP POP PUSH1 0x40 MLOAD RETURNDATASIZE PUSH1 0x1F NOT PUSH1 0x1F DUP3 ADD AND DUP3 ADD DUP1 PUSH1 0x40 MSTORE POP DUP2 ADD SWAP1 PUSH2 0x157B SWAP2 SWAP1 PUSH2 0x4EFD JUMP JUMPDEST LT ISZERO JUMPDEST PUSH2 0x159A JUMPI PUSH1 0x40 MLOAD PUSH3 0x461BCD PUSH1 0xE5 SHL DUP2 MSTORE PUSH1 0x4 ADD PUSH2 0x5D2 SWAP1 PUSH2 0x559F JUMP JUMPDEST PUSH1 0x4 DUP1 SLOAD PUSH1 0x40 MLOAD PUSH4 0x2BC206D3 PUSH1 0xE1 SHL DUP2 MSTORE PUSH1 0x1 PUSH1 0x1 PUSH1 0xA0 SHL SUB DUP6 DUP2 AND SWAP4 DUP3 ADD SWAP4 SWAP1 SWAP4 MSTORE PUSH1 0x24 DUP2 ADD DUP5 SWAP1 MSTORE SWAP2 AND SWAP1 PUSH4 0x57840DA6 SWAP1 PUSH1 0x44 ADD PUSH1 0x0 PUSH1 0x40 MLOAD DUP1 DUP4 SUB DUP2 PUSH1 0x0 DUP8 DUP1 EXTCODESIZE ISZERO DUP1 ISZERO PUSH2 0x15EA JUMPI PUSH1 0x0 DUP1 REVERT JUMPDEST POP GAS CALL ISZERO DUP1 ISZERO PUSH2 0x15FE JUMPI RETURNDATASIZE PUSH1 0x0 DUP1 RETURNDATACOPY RETURNDATASIZE PUSH1 0x0 REVERT JUMPDEST POP POP PUSH1 0x5 SLOAD PUSH1 0x40 MLOAD PUSH4 0x23B872DD PUSH1 0xE0 SHL DUP2 MSTORE PUSH1 0x1 PUSH1 0x1 PUSH1 0xA0 SHL SUB SWAP1 SWAP2 AND SWAP3 POP PUSH4 0x23B872DD SWAP2 POP PUSH2 0x1636 SWAP1 CALLER SWAP1 DUP7 SWAP1 DUP7 SWAP1 PUSH1 0x4 ADD PUSH2 0x547E JUMP JUMPDEST PUSH1 0x20 PUSH1 0x40 MLOAD DUP1 DUP4 SUB DUP2 PUSH1 0x0 DUP8 DUP1 EXTCODESIZE ISZERO DUP1 ISZERO PUSH2 0x1650 JUMPI PUSH1 0x0 DUP1 REVERT JUMPDEST POP GAS CALL ISZERO DUP1 ISZERO PUSH2 0x1664 JUMPI RETURNDATASIZE PUSH1 0x0 DUP1 RETURNDATACOPY RETURNDATASIZE PUSH1 0x0 REVERT JUMPDEST POP POP POP POP PUSH1 0x40 MLOAD RETURNDATASIZE PUSH1 0x1F NOT PUSH1 0x1F DUP3 ADD AND DUP3 ADD DUP1 PUSH1 0x40 MSTORE POP DUP2 ADD SWAP1 PUSH2 0x1688 SWAP2 SWAP1 PUSH2 0x49E9 JUMP JUMPDEST POP POP POP JUMP JUMPDEST PUSH1 0x0 DUP3 PUSH1 0x3 PUSH1 0x0 SWAP1 SLOAD SWAP1 PUSH2 0x100 EXP SWAP1 DIV PUSH1 0x1 PUSH1 0x1 PUSH1 0xA0 SHL SUB AND PUSH1 0x1 PUSH1 0x1 PUSH1 0xA0 SHL SUB AND PUSH4 0xA87D942C PUSH1 0x40 MLOAD DUP2 PUSH4 0xFFFFFFFF AND PUSH1 0xE0 SHL DUP2 MSTORE PUSH1 0x4 ADD PUSH1 0x20 PUSH1 0x40 MLOAD DUP1 DUP4 SUB DUP2 DUP7 DUP1 EXTCODESIZE ISZERO DUP1 ISZERO PUSH2 0x16DE JUMPI PUSH1 0x0 DUP1 REVERT JUMPDEST POP GAS STATICCALL ISZERO DUP1 ISZERO PUSH2 0x16F2 JUMPI RETURNDATASIZE PUSH1 0x0 DUP1 RETURNDATACOPY RETURNDATASIZE PUSH1 0x0 REVERT JUMPDEST POP POP POP POP PUSH1 0x40 MLOAD RETURNDATASIZE PUSH1 0x1F NOT PUSH1 0x1F DUP3 ADD AND DUP3 ADD DUP1 PUSH1 0x40 MSTORE POP DUP2 ADD SWAP1 PUSH2 0x1716 SWAP2 SWAP1 PUSH2 0x4EFD JUMP JUMPDEST DUP2 GT ISZERO PUSH2 0x1736 JUMPI PUSH1 0x40 MLOAD PUSH4 0x347626DD PUSH1 0xE2 SHL DUP2 MSTORE PUSH1 0x4 ADD PUSH2 0x5D2 SWAP1 PUSH2 0x54EC JUMP JUMPDEST CALLER PUSH1 0x0 DUP2 DUP2 MSTORE PUSH1 0x6 PUSH1 0x20 MSTORE PUSH1 0x40 SWAP1 KECCAK256 SLOAD PUSH1 0xFF AND PUSH2 0x1765 JUMPI PUSH1 0x40 MLOAD PUSH3 0x461BCD PUSH1 0xE5 SHL DUP2 MSTORE PUSH1 0x4 ADD PUSH2 0x5D2 SWAP1 PUSH2 0x55E8 JUMP JUMPDEST PUSH1 0x4 DUP1 SLOAD PUSH1 0x40 MLOAD PUSH4 0x16C3BC5 PUSH1 0xE6 SHL DUP2 MSTORE PUSH1 0x0 SWAP3 DUP4 SWAP3 PUSH1 0x1 PUSH1 0x1 PUSH1 0xA0 SHL SUB AND SWAP2 PUSH4 0x5B0EF140 SWAP2 PUSH2 0x17AB SWAP2 DUP12 SWAP2 DUP12 SWAP2 ADD SWAP2 DUP3 MSTORE PUSH1 0x1 PUSH1 0x1 PUSH1 0xA0 SHL SUB AND PUSH1 0x20 DUP3 ADD MSTORE PUSH1 0x40 ADD SWAP1 JUMP JUMPDEST PUSH1 0x40 DUP1 MLOAD DUP1 DUP4 SUB DUP2 PUSH1 0x0 DUP8 DUP1 EXTCODESIZE ISZERO DUP1 ISZERO PUSH2 0x17C4 JUMPI PUSH1 0x0 DUP1 REVERT JUMPDEST POP GAS CALL ISZERO DUP1 ISZERO PUSH2 0x17D8 JUMPI RETURNDATASIZE PUSH1 0x0 DUP1 RETURNDATACOPY RETURNDATASIZE PUSH1 0x0 REVERT JUMPDEST POP POP POP POP PUSH1 0x40 MLOAD RETURNDATASIZE PUSH1 0x1F NOT PUSH1 0x1F DUP3 ADD AND DUP3 ADD DUP1 PUSH1 0x40 MSTORE POP DUP2 ADD SWAP1 PUSH2 0x17FC SWAP2 SWAP1 PUSH2 0x506E JUMP JUMPDEST PUSH1 0x2 SLOAD PUSH1 0x40 MLOAD PUSH4 0x2ACAB2E9 PUSH1 0xE2 SHL DUP2 MSTORE PUSH1 0x4 DUP2 ADD DUP4 SWAP1 MSTORE SWAP3 SWAP5 POP SWAP1 SWAP3 POP PUSH1 0x0 SWAP2 PUSH1 0x1 PUSH1 0x1 PUSH1 0xA0 SHL SUB SWAP1 SWAP2 AND SWAP1 PUSH4 0x4F6CA3CE SWAP1 DUP3 SWAP1 PUSH4 0xAB2ACBA4 SWAP1 PUSH1 0x24 ADD PUSH2 0xFA4 JUMP JUMPDEST PUSH2 0x1846 PUSH2 0x403C JUMP JUMPDEST PUSH2 0x1850 PUSH1 0x0 PUSH2 0x4131 JUMP JUMPDEST JUMP JUMPDEST PUSH2 0x187F PUSH1 0x40 MLOAD DUP1 PUSH1 0x60 ADD PUSH1 0x40 MSTORE DUP1 PUSH1 0x0 PUSH1 0x1 PUSH1 0x1 PUSH1 0xA0 SHL SUB AND DUP2 MSTORE PUSH1 0x20 ADD PUSH1 0x60 DUP2 MSTORE PUSH1 0x20 ADD PUSH1 0x60 DUP2 MSTORE POP SWAP1 JUMP JUMPDEST PUSH1 0x4 DUP1 SLOAD PUSH1 0x40 MLOAD PUSH4 0x3C3D4551 PUSH1 0xE1 SHL DUP2 MSTORE SWAP2 DUP3 ADD DUP6 SWAP1 MSTORE PUSH1 0x24 DUP3 ADD DUP5 SWAP1 MSTORE PUSH1 0x1 PUSH1 0x1 PUSH1 0xA0 SHL SUB AND SWAP1 PUSH4 0x787A8AA2 SWAP1 PUSH1 0x44 ADD PUSH1 0x0 PUSH1 0x40 MLOAD DUP1 DUP4 SUB DUP2 DUP7 DUP1 EXTCODESIZE ISZERO DUP1 ISZERO PUSH2 0x18C8 JUMPI PUSH1 0x0 DUP1 REVERT JUMPDEST POP GAS STATICCALL ISZERO DUP1 ISZERO PUSH2 0x18DC JUMPI RETURNDATASIZE PUSH1 0x0 DUP1 RETURNDATACOPY RETURNDATASIZE PUSH1 0x0 REVERT JUMPDEST POP POP POP POP PUSH1 0x40 MLOAD RETURNDATASIZE PUSH1 0x0 DUP3 RETURNDATACOPY PUSH1 0x1F RETURNDATASIZE SWAP1 DUP2 ADD PUSH1 0x1F NOT AND DUP3 ADD PUSH1 0x40 MSTORE PUSH2 0x1904 SWAP2 SWAP1 DUP2 ADD SWAP1 PUSH2 0x4AB8 JUMP JUMPDEST SWAP4 SWAP3 POP POP POP JUMP JUMPDEST PUSH1 0x3 SLOAD PUSH1 0x40 DUP1 MLOAD PUSH4 0x2A1F650B PUSH1 0xE2 SHL DUP2 MSTORE SWAP1 MLOAD DUP4 SWAP3 PUSH1 0x1 PUSH1 0x1 PUSH1 0xA0 SHL SUB AND SWAP2 PUSH4 0xA87D942C SWAP2 PUSH1 0x4 DUP1 DUP4 ADD SWAP3 PUSH1 0x20 SWAP3 SWAP2 SWAP1 DUP3 SWAP1 SUB ADD DUP2 DUP7 DUP1 EXTCODESIZE ISZERO DUP1 ISZERO PUSH2 0x194F JUMPI PUSH1 0x0 DUP1 REVERT JUMPDEST POP GAS STATICCALL ISZERO DUP1 ISZERO PUSH2 0x1963 JUMPI RETURNDATASIZE PUSH1 0x0 DUP1 RETURNDATACOPY RETURNDATASIZE PUSH1 0x0 REVERT JUMPDEST POP POP POP POP PUSH1 0x40 MLOAD RETURNDATASIZE PUSH1 0x1F NOT PUSH1 0x1F DUP3 ADD AND DUP3 ADD DUP1 PUSH1 0x40 MSTORE POP DUP2 ADD SWAP1 PUSH2 0x1987 SWAP2 SWAP1 PUSH2 0x4EFD JUMP JUMPDEST DUP2 GT ISZERO PUSH2 0x19A7 JUMPI PUSH1 0x40 MLOAD PUSH4 0x347626DD PUSH1 0xE2 SHL DUP2 MSTORE PUSH1 0x4 ADD PUSH2 0x5D2 SWAP1 PUSH2 0x54EC JUMP JUMPDEST CALLER PUSH1 0x0 DUP2 DUP2 MSTORE PUSH1 0x6 PUSH1 0x20 MSTORE PUSH1 0x40 SWAP1 KECCAK256 SLOAD PUSH1 0xFF AND PUSH2 0x19D6 JUMPI PUSH1 0x40 MLOAD PUSH3 0x461BCD PUSH1 0xE5 SHL DUP2 MSTORE PUSH1 0x4 ADD PUSH2 0x5D2 SWAP1 PUSH2 0x55E8 JUMP JUMPDEST PUSH1 0x4 DUP1 SLOAD PUSH1 0x40 MLOAD PUSH4 0x8ADC74A5 PUSH1 0xE0 SHL DUP2 MSTORE SWAP2 DUP3 ADD DUP6 SWAP1 MSTORE PUSH1 0x1 PUSH1 0x1 PUSH1 0xA0 SHL SUB AND SWAP1 PUSH4 0x8ADC74A5 SWAP1 PUSH1 0x24 ADD PUSH1 0x0 PUSH1 0x40 MLOAD DUP1 DUP4 SUB DUP2 PUSH1 0x0 DUP8 DUP1 EXTCODESIZE ISZERO DUP1 ISZERO PUSH2 0x1A1A JUMPI PUSH1 0x0 DUP1 REVERT JUMPDEST POP GAS CALL ISZERO DUP1 ISZERO PUSH2 0x1A2E JUMPI RETURNDATASIZE PUSH1 0x0 DUP1 RETURNDATACOPY RETURNDATASIZE PUSH1 0x0 REVERT JUMPDEST POP POP POP POP PUSH1 0x40 MLOAD RETURNDATASIZE PUSH1 0x0 DUP3 RETURNDATACOPY PUSH1 0x1F RETURNDATASIZE SWAP1 DUP2 ADD PUSH1 0x1F NOT AND DUP3 ADD PUSH1 0x40 MSTORE PUSH2 0x9DF SWAP2 SWAP1 DUP2 ADD SWAP1 PUSH2 0x4A06 JUMP JUMPDEST PUSH1 0x4 DUP1 SLOAD PUSH1 0x40 MLOAD PUSH4 0x82E53B6D PUSH1 0xE0 SHL DUP2 MSTORE SWAP2 DUP3 ADD DUP5 SWAP1 MSTORE PUSH1 0x24 DUP3 ADD DUP4 SWAP1 MSTORE CALLER PUSH1 0x44 DUP4 ADD MSTORE PUSH1 0x1 PUSH1 0x1 PUSH1 0xA0 SHL SUB AND SWAP1 PUSH4 0x82E53B6D SWAP1 PUSH1 0x64 ADD PUSH1 0x0 PUSH1 0x40 MLOAD DUP1 DUP4 SUB DUP2 PUSH1 0x0 DUP8 DUP1 EXTCODESIZE ISZERO DUP1 ISZERO PUSH2 0x1AA7 JUMPI PUSH1 0x0 DUP1 REVERT JUMPDEST POP GAS CALL ISZERO DUP1 ISZERO PUSH2 0x1ABB JUMPI RETURNDATASIZE PUSH1 0x0 DUP1 RETURNDATACOPY RETURNDATASIZE PUSH1 0x0 REVERT JUMPDEST POP POP POP POP POP POP JUMP JUMPDEST PUSH1 0x3 SLOAD DUP2 MLOAD PUSH1 0x0 SWAP2 PUSH1 0x1 PUSH1 0x1 PUSH1 0xA0 SHL SUB AND SWAP1 PUSH4 0x7D88DADF SWAP1 DUP6 SWAP1 DUP6 SWAP1 DUP6 SWAP1 PUSH2 0x1AED JUMPI PUSH2 0x1AED PUSH2 0x5C07 JUMP JUMPDEST PUSH1 0x20 MUL PUSH1 0x20 ADD ADD MLOAD DUP6 PUSH1 0x1 DUP2 MLOAD DUP2 LT PUSH2 0x1B08 JUMPI PUSH2 0x1B08 PUSH2 0x5C07 JUMP JUMPDEST PUSH1 0x20 SWAP1 DUP2 MUL SWAP2 SWAP1 SWAP2 ADD ADD MLOAD PUSH1 0x40 MLOAD PUSH1 0x1 PUSH1 0x1 PUSH1 0xE0 SHL SUB NOT PUSH1 0xE0 DUP7 SWAP1 SHL AND DUP2 MSTORE PUSH1 0x1 PUSH1 0x1 PUSH1 0xA0 SHL SUB SWAP1 SWAP4 AND PUSH1 0x4 DUP5 ADD MSTORE PUSH1 0x24 DUP4 ADD SWAP2 SWAP1 SWAP2 MSTORE PUSH1 0x44 DUP3 ADD MSTORE PUSH1 0x64 ADD PUSH1 0x20 PUSH1 0x40 MLOAD DUP1 DUP4 SUB DUP2 DUP7 DUP1 EXTCODESIZE ISZERO DUP1 ISZERO PUSH2 0x1B5F JUMPI PUSH1 0x0 DUP1 REVERT JUMPDEST POP GAS STATICCALL ISZERO DUP1 ISZERO PUSH2 0x1B73 JUMPI RETURNDATASIZE PUSH1 0x0 DUP1 RETURNDATACOPY RETURNDATASIZE PUSH1 0x0 REVERT JUMPDEST POP POP POP POP PUSH1 0x40 MLOAD RETURNDATASIZE PUSH1 0x1F NOT PUSH1 0x1F DUP3 ADD AND DUP3 ADD DUP1 PUSH1 0x40 MSTORE POP DUP2 ADD SWAP1 PUSH2 0x1904 SWAP2 SWAP1 PUSH2 0x49E9 JUMP JUMPDEST PUSH1 0x0 PUSH1 0x60 DUP3 PUSH1 0x3 PUSH1 0x0 SWAP1 SLOAD SWAP1 PUSH2 0x100 EXP SWAP1 DIV PUSH1 0x1 PUSH1 0x1 PUSH1 0xA0 SHL SUB AND PUSH1 0x1 PUSH1 0x1 PUSH1 0xA0 SHL SUB AND PUSH4 0xA87D942C PUSH1 0x40 MLOAD DUP2 PUSH4 0xFFFFFFFF AND PUSH1 0xE0 SHL DUP2 MSTORE PUSH1 0x4 ADD PUSH1 0x20 PUSH1 0x40 MLOAD DUP1 DUP4 SUB DUP2 DUP7 DUP1 EXTCODESIZE ISZERO DUP1 ISZERO PUSH2 0x1BEA JUMPI PUSH1 0x0 DUP1 REVERT JUMPDEST POP GAS STATICCALL ISZERO DUP1 ISZERO PUSH2 0x1BFE JUMPI RETURNDATASIZE PUSH1 0x0 DUP1 RETURNDATACOPY RETURNDATASIZE PUSH1 0x0 REVERT JUMPDEST POP POP POP POP PUSH1 0x40 MLOAD RETURNDATASIZE PUSH1 0x1F NOT PUSH1 0x1F DUP3 ADD AND DUP3 ADD DUP1 PUSH1 0x40 MSTORE POP DUP2 ADD SWAP1 PUSH2 0x1C22 SWAP2 SWAP1 PUSH2 0x4EFD JUMP JUMPDEST DUP2 GT ISZERO PUSH2 0x1C42 JUMPI PUSH1 0x40 MLOAD PUSH4 0x347626DD PUSH1 0xE2 SHL DUP2 MSTORE PUSH1 0x4 ADD PUSH2 0x5D2 SWAP1 PUSH2 0x54EC JUMP JUMPDEST CALLER PUSH1 0x0 DUP2 DUP2 MSTORE PUSH1 0x6 PUSH1 0x20 MSTORE PUSH1 0x40 SWAP1 KECCAK256 SLOAD PUSH1 0xFF AND PUSH2 0x1C71 JUMPI PUSH1 0x40 MLOAD PUSH3 0x461BCD PUSH1 0xE5 SHL DUP2 MSTORE PUSH1 0x4 ADD PUSH2 0x5D2 SWAP1 PUSH2 0x55E8 JUMP JUMPDEST PUSH1 0x4 DUP1 SLOAD PUSH1 0x40 MLOAD PUSH4 0xA55AF701 PUSH1 0xE0 SHL DUP2 MSTORE SWAP2 DUP3 ADD DUP8 SWAP1 MSTORE PUSH1 0x0 SWAP2 DUP3 SWAP2 PUSH1 0x1 PUSH1 0x1 PUSH1 0xA0 SHL SUB AND SWAP1 PUSH4 0xA55AF701 SWAP1 PUSH1 0x24 ADD PUSH1 0x0 PUSH1 0x40 MLOAD DUP1 DUP4 SUB DUP2 PUSH1 0x0 DUP8 DUP1 EXTCODESIZE ISZERO DUP1 ISZERO PUSH2 0x1CBA JUMPI PUSH1 0x0 DUP1 REVERT JUMPDEST POP GAS CALL ISZERO DUP1 ISZERO PUSH2 0x1CCE JUMPI RETURNDATASIZE PUSH1 0x0 DUP1 RETURNDATACOPY RETURNDATASIZE PUSH1 0x0 REVERT JUMPDEST POP POP POP POP PUSH1 0x40 MLOAD RETURNDATASIZE PUSH1 0x0 DUP3 RETURNDATACOPY PUSH1 0x1F RETURNDATASIZE SWAP1 DUP2 ADD PUSH1 0x1F NOT AND DUP3 ADD PUSH1 0x40 MSTORE PUSH2 0x1CF6 SWAP2 SWAP1 DUP2 ADD SWAP1 PUSH2 0x4A06 JUMP JUMPDEST SWAP1 SWAP7 POP SWAP5 POP POP POP POP POP SWAP2 POP SWAP2 JUMP JUMPDEST PUSH1 0x3 SLOAD PUSH1 0x40 DUP1 MLOAD PUSH4 0x2A1F650B PUSH1 0xE2 SHL DUP2 MSTORE SWAP1 MLOAD PUSH1 0x0 SWAP3 PUSH1 0x1 PUSH1 0x1 PUSH1 0xA0 SHL SUB AND SWAP2 PUSH4 0xA87D942C SWAP2 PUSH1 0x4 DUP1 DUP4 ADD SWAP3 PUSH1 0x20 SWAP3 SWAP2 SWAP1 DUP3 SWAP1 SUB ADD DUP2 DUP7 DUP1 EXTCODESIZE ISZERO DUP1 ISZERO PUSH2 0x1D49 JUMPI PUSH1 0x0 DUP1 REVERT JUMPDEST POP GAS STATICCALL ISZERO DUP1 ISZERO PUSH2 0x1D5D JUMPI RETURNDATASIZE PUSH1 0x0 DUP1 RETURNDATACOPY RETURNDATASIZE PUSH1 0x0 REVERT JUMPDEST POP POP POP POP PUSH1 0x40 MLOAD RETURNDATASIZE PUSH1 0x1F NOT PUSH1 0x1F DUP3 ADD AND DUP3 ADD DUP1 PUSH1 0x40 MSTORE POP DUP2 ADD SWAP1 PUSH2 0x1D81 SWAP2 SWAP1 PUSH2 0x4EFD JUMP JUMPDEST SWAP1 POP SWAP1 JUMP JUMPDEST PUSH2 0x1D8E PUSH2 0x403C JUMP JUMPDEST PUSH1 0x4 DUP1 SLOAD PUSH1 0x1 PUSH1 0x1 PUSH1 0xA0 SHL SUB NOT AND PUSH1 0x1 PUSH1 0x1 PUSH1 0xA0 SHL SUB SWAP3 SWAP1 SWAP3 AND SWAP2 SWAP1 SWAP2 OR SWAP1 SSTORE JUMP JUMPDEST PUSH1 0x0 PUSH2 0x1DBB CALLER PUSH2 0x4096 JUMP JUMPDEST PUSH2 0x1DD8 JUMPI PUSH1 0x40 MLOAD PUSH4 0x934F2C3 PUSH1 0xE0 SHL DUP2 MSTORE PUSH1 0x4 ADD PUSH2 0x5D2 SWAP1 PUSH2 0x5518 JUMP JUMPDEST PUSH1 0x3 SLOAD PUSH1 0x40 MLOAD PUSH4 0xD3D7BC3B PUSH1 0xE0 SHL DUP2 MSTORE CALLER PUSH1 0x4 DUP3 ADD DUP2 SWAP1 MSTORE SWAP2 PUSH1 0x0 SWAP2 PUSH1 0x1 PUSH1 0x1 PUSH1 0xA0 SHL SUB SWAP1 SWAP2 AND SWAP1 PUSH4 0xD3D7BC3B SWAP1 PUSH1 0x24 ADD PUSH1 0x20 PUSH1 0x40 MLOAD DUP1 DUP4 SUB DUP2 DUP7 DUP1 EXTCODESIZE ISZERO DUP1 ISZERO PUSH2 0x1E21 JUMPI PUSH1 0x0 DUP1 REVERT JUMPDEST POP GAS STATICCALL ISZERO DUP1 ISZERO PUSH2 0x1E35 JUMPI RETURNDATASIZE PUSH1 0x0 DUP1 RETURNDATACOPY RETURNDATASIZE PUSH1 0x0 REVERT JUMPDEST POP POP POP POP PUSH1 0x40 MLOAD RETURNDATASIZE PUSH1 0x1F NOT PUSH1 0x1F DUP3 ADD AND DUP3 ADD DUP1 PUSH1 0x40 MSTORE POP DUP2 ADD SWAP1 PUSH2 0x1E59 SWAP2 SWAP1 PUSH2 0x4EFD JUMP JUMPDEST SWAP1 POP DUP1 ISZERO PUSH2 0x1E7A JUMPI PUSH1 0x40 MLOAD PUSH4 0x934F2C3 PUSH1 0xE0 SHL DUP2 MSTORE PUSH1 0x4 ADD PUSH2 0x5D2 SWAP1 PUSH2 0x5544 JUMP JUMPDEST PUSH1 0x2 SLOAD PUSH2 0x160 DUP6 ADD MLOAD PUSH1 0x40 MLOAD PUSH4 0xF74F3655 PUSH1 0xE0 SHL DUP2 MSTORE PUSH1 0x4 DUP2 ADD SWAP2 SWAP1 SWAP2 MSTORE PUSH1 0x46 PUSH1 0x24 DUP3 ADD MSTORE PUSH1 0x1 PUSH1 0x1 PUSH1 0xA0 SHL SUB SWAP1 SWAP2 AND SWAP1 PUSH4 0xF74F3655 SWAP1 PUSH1 0x44 ADD PUSH1 0x20 PUSH1 0x40 MLOAD DUP1 DUP4 SUB DUP2 DUP7 DUP1 EXTCODESIZE ISZERO DUP1 ISZERO PUSH2 0x1ECC JUMPI PUSH1 0x0 DUP1 REVERT JUMPDEST POP GAS STATICCALL ISZERO DUP1 ISZERO PUSH2 0x1EE0 JUMPI RETURNDATASIZE PUSH1 0x0 DUP1 RETURNDATACOPY RETURNDATASIZE PUSH1 0x0 REVERT JUMPDEST POP POP POP POP PUSH1 0x40 MLOAD RETURNDATASIZE PUSH1 0x1F NOT PUSH1 0x1F DUP3 ADD AND DUP3 ADD DUP1 PUSH1 0x40 MSTORE POP DUP2 ADD SWAP1 PUSH2 0x1F04 SWAP2 SWAP1 PUSH2 0x4EFD JUMP JUMPDEST DUP5 PUSH2 0x160 ADD MLOAD PUSH2 0x1F14 SWAP2 SWAP1 PUSH2 0x5B78 JUMP JUMPDEST PUSH1 0x5 SLOAD PUSH1 0x40 MLOAD PUSH4 0x6EB1769F PUSH1 0xE1 SHL DUP2 MSTORE CALLER PUSH1 0x4 DUP3 ADD MSTORE ADDRESS PUSH1 0x24 DUP3 ADD MSTORE PUSH1 0x1 PUSH1 0x1 PUSH1 0xA0 SHL SUB SWAP1 SWAP2 AND SWAP1 PUSH4 0xDD62ED3E SWAP1 PUSH1 0x44 ADD PUSH1 0x20 PUSH1 0x40 MLOAD DUP1 DUP4 SUB DUP2 DUP7 DUP1 EXTCODESIZE ISZERO DUP1 ISZERO PUSH2 0x1F5D JUMPI PUSH1 0x0 DUP1 REVERT JUMPDEST POP GAS STATICCALL ISZERO DUP1 ISZERO PUSH2 0x1F71 JUMPI RETURNDATASIZE PUSH1 0x0 DUP1 RETURNDATACOPY RETURNDATASIZE PUSH1 0x0 REVERT JUMPDEST POP POP POP POP PUSH1 0x40 MLOAD RETURNDATASIZE PUSH1 0x1F NOT PUSH1 0x1F DUP3 ADD AND DUP3 ADD DUP1 PUSH1 0x40 MSTORE POP DUP2 ADD SWAP1 PUSH2 0x1F95 SWAP2 SWAP1 PUSH2 0x4EFD JUMP JUMPDEST LT ISZERO PUSH2 0x1FDE JUMPI PUSH1 0x40 MLOAD PUSH3 0x461BCD PUSH1 0xE5 SHL DUP2 MSTORE PUSH1 0x20 PUSH1 0x4 DUP3 ADD MSTORE PUSH1 0x18 PUSH1 0x24 DUP3 ADD MSTORE PUSH24 0x6E6F74206861766120656E6F7567687420617070726F7665 PUSH1 0x40 SHL PUSH1 0x44 DUP3 ADD MSTORE PUSH1 0x64 ADD PUSH2 0x5D2 JUMP JUMPDEST PUSH1 0x60 DUP5 ADD MLOAD DUP5 MLOAD LT PUSH2 0x2002 JUMPI PUSH1 0x40 MLOAD PUSH3 0x461BCD PUSH1 0xE5 SHL DUP2 MSTORE PUSH1 0x4 ADD PUSH2 0x5D2 SWAP1 PUSH2 0x562B JUMP JUMPDEST PUSH1 0x4 DUP1 SLOAD PUSH1 0x40 MLOAD PUSH4 0x9987DD7 PUSH1 0xE2 SHL DUP2 MSTORE PUSH1 0x1 PUSH1 0x1 PUSH1 0xA0 SHL SUB SWAP1 SWAP2 AND SWAP2 PUSH4 0x2661F75C SWAP2 PUSH2 0x2033 SWAP2 DUP9 SWAP2 CALLER SWAP2 ADD PUSH2 0x5677 JUMP JUMPDEST PUSH1 0x20 PUSH1 0x40 MLOAD DUP1 DUP4 SUB DUP2 PUSH1 0x0 DUP8 DUP1 EXTCODESIZE ISZERO DUP1 ISZERO PUSH2 0x204D JUMPI PUSH1 0x0 DUP1 REVERT JUMPDEST POP GAS CALL ISZERO DUP1 ISZERO PUSH2 0x2061 JUMPI RETURNDATASIZE PUSH1 0x0 DUP1 RETURNDATACOPY RETURNDATASIZE PUSH1 0x0 REVERT JUMPDEST POP POP POP POP PUSH1 0x40 MLOAD RETURNDATASIZE PUSH1 0x1F NOT PUSH1 0x1F DUP3 ADD AND DUP3 ADD DUP1 PUSH1 0x40 MSTORE POP DUP2 ADD SWAP1 PUSH2 0x2085 SWAP2 SWAP1 PUSH2 0x4EFD JUMP JUMPDEST SWAP5 SWAP4 POP POP POP POP JUMP JUMPDEST PUSH1 0x3 SLOAD PUSH1 0x40 MLOAD PUSH4 0x56B03E39 PUSH1 0xE1 SHL DUP2 MSTORE PUSH1 0x4 DUP2 ADD DUP5 SWAP1 MSTORE PUSH1 0x24 DUP2 ADD DUP4 SWAP1 MSTORE PUSH1 0x0 SWAP2 PUSH1 0x1 PUSH1 0x1 PUSH1 0xA0 SHL SUB AND SWAP1 PUSH4 0xAD607C72 SWAP1 PUSH1 0x44 ADD PUSH1 0x20 PUSH1 0x40 MLOAD DUP1 DUP4 SUB DUP2 DUP7 DUP1 EXTCODESIZE ISZERO DUP1 ISZERO PUSH2 0x20D9 JUMPI PUSH1 0x0 DUP1 REVERT JUMPDEST POP GAS STATICCALL ISZERO DUP1 ISZERO PUSH2 0x20ED JUMPI RETURNDATASIZE PUSH1 0x0 DUP1 RETURNDATACOPY RETURNDATASIZE PUSH1 0x0 REVERT JUMPDEST POP POP POP POP PUSH1 0x40 MLOAD RETURNDATASIZE PUSH1 0x1F NOT PUSH1 0x1F DUP3 ADD AND DUP3 ADD DUP1 PUSH1 0x40 MSTORE POP DUP2 ADD SWAP1 PUSH2 0x1904 SWAP2 SWAP1 PUSH2 0x4A4C JUMP JUMPDEST PUSH2 0x2119 PUSH2 0x403C JUMP JUMPDEST PUSH1 0x7 DUP1 SLOAD PUSH1 0x1 PUSH1 0x1 PUSH1 0xA0 SHL SUB NOT AND PUSH1 0x1 PUSH1 0x1 PUSH1 0xA0 SHL SUB SWAP3 SWAP1 SWAP3 AND SWAP2 SWAP1 SWAP2 OR SWAP1 SSTORE JUMP JUMPDEST PUSH1 0x3 SLOAD PUSH1 0x40 DUP1 MLOAD PUSH4 0x2A1F650B PUSH1 0xE2 SHL DUP2 MSTORE SWAP1 MLOAD DUP6 SWAP3 PUSH1 0x1 PUSH1 0x1 PUSH1 0xA0 SHL SUB AND SWAP2 PUSH4 0xA87D942C SWAP2 PUSH1 0x4 DUP1 DUP4 ADD SWAP3 PUSH1 0x20 SWAP3 SWAP2 SWAP1 DUP3 SWAP1 SUB ADD DUP2 DUP7 DUP1 EXTCODESIZE ISZERO DUP1 ISZERO PUSH2 0x217F JUMPI PUSH1 0x0 DUP1 REVERT JUMPDEST POP GAS STATICCALL ISZERO DUP1 ISZERO PUSH2 0x2193 JUMPI RETURNDATASIZE PUSH1 0x0 DUP1 RETURNDATACOPY RETURNDATASIZE PUSH1 0x0 REVERT JUMPDEST POP POP POP POP PUSH1 0x40 MLOAD RETURNDATASIZE PUSH1 0x1F NOT PUSH1 0x1F DUP3 ADD AND DUP3 ADD DUP1 PUSH1 0x40 MSTORE POP DUP2 ADD SWAP1 PUSH2 0x21B7 SWAP2 SWAP1 PUSH2 0x4EFD JUMP JUMPDEST DUP2 GT ISZERO PUSH2 0x21D7 JUMPI PUSH1 0x40 MLOAD PUSH4 0x347626DD PUSH1 0xE2 SHL DUP2 MSTORE PUSH1 0x4 ADD PUSH2 0x5D2 SWAP1 PUSH2 0x54EC JUMP JUMPDEST PUSH1 0x3 SLOAD PUSH1 0x40 MLOAD PUSH4 0x56B03E39 PUSH1 0xE1 SHL DUP2 MSTORE PUSH1 0x4 DUP2 ADD DUP7 SWAP1 MSTORE PUSH1 0x24 DUP2 ADD DUP6 SWAP1 MSTORE PUSH1 0x0 SWAP2 PUSH1 0x1 PUSH1 0x1 PUSH1 0xA0 SHL SUB AND SWAP1 PUSH4 0xAD607C72 SWAP1 PUSH1 0x44 ADD PUSH1 0x20 PUSH1 0x40 MLOAD DUP1 DUP4 SUB DUP2 DUP7 DUP1 EXTCODESIZE ISZERO DUP1 ISZERO PUSH2 0x2223 JUMPI PUSH1 0x0 DUP1 REVERT JUMPDEST POP GAS STATICCALL ISZERO DUP1 ISZERO PUSH2 0x2237 JUMPI RETURNDATASIZE PUSH1 0x0 DUP1 RETURNDATACOPY RETURNDATASIZE PUSH1 0x0 REVERT JUMPDEST POP POP POP POP PUSH1 0x40 MLOAD RETURNDATASIZE PUSH1 0x1F NOT PUSH1 0x1F DUP3 ADD AND DUP3 ADD DUP1 PUSH1 0x40 MSTORE POP DUP2 ADD SWAP1 PUSH2 0x225B SWAP2 SWAP1 PUSH2 0x4A4C JUMP JUMPDEST SWAP1 POP PUSH1 0x2 DUP2 PUSH1 0xB DUP2 GT ISZERO PUSH2 0x2271 JUMPI PUSH2 0x2271 PUSH2 0x5BF1 JUMP JUMPDEST EQ DUP1 PUSH2 0x228E JUMPI POP PUSH1 0x3 DUP2 PUSH1 0xB DUP2 GT ISZERO PUSH2 0x228C JUMPI PUSH2 0x228C PUSH2 0x5BF1 JUMP JUMPDEST EQ JUMPDEST DUP1 PUSH2 0x22AA JUMPI POP PUSH1 0x5 DUP2 PUSH1 0xB DUP2 GT ISZERO PUSH2 0x22A8 JUMPI PUSH2 0x22A8 PUSH2 0x5BF1 JUMP JUMPDEST EQ JUMPDEST PUSH2 0x22F6 JUMPI PUSH1 0x40 MLOAD PUSH3 0x461BCD PUSH1 0xE5 SHL DUP2 MSTORE PUSH1 0x20 PUSH1 0x4 DUP3 ADD MSTORE PUSH1 0x1D PUSH1 0x24 DUP3 ADD MSTORE PUSH32 0x746869732066696C652073746174652063616E6E6F74207375626D6974000000 PUSH1 0x44 DUP3 ADD MSTORE PUSH1 0x64 ADD PUSH2 0x5D2 JUMP JUMPDEST PUSH1 0x40 MLOAD PUSH1 0x20 ADD PUSH2 0x2311 SWAP1 PUSH1 0x20 DUP1 DUP3 MSTORE PUSH1 0x0 SWAP1 DUP3 ADD MSTORE PUSH1 0x40 ADD SWAP1 JUMP JUMPDEST PUSH1 0x40 MLOAD PUSH1 0x20 DUP2 DUP4 SUB SUB DUP2 MSTORE SWAP1 PUSH1 0x40 MSTORE DUP1 MLOAD SWAP1 PUSH1 0x20 ADD KECCAK256 DUP4 PUSH1 0x40 MLOAD PUSH1 0x20 ADD PUSH2 0x2338 SWAP2 SWAP1 PUSH2 0x54D9 JUMP JUMPDEST PUSH1 0x40 MLOAD PUSH1 0x20 DUP2 DUP4 SUB SUB DUP2 MSTORE SWAP1 PUSH1 0x40 MSTORE DUP1 MLOAD SWAP1 PUSH1 0x20 ADD KECCAK256 EQ ISZERO PUSH2 0x2370 JUMPI PUSH1 0x0 PUSH1 0x40 MLOAD PUSH4 0x79D3124B PUSH1 0xE0 SHL DUP2 MSTORE PUSH1 0x4 ADD PUSH2 0x5D2 SWAP2 SWAP1 PUSH2 0x556D JUMP JUMPDEST PUSH1 0x3 SLOAD PUSH1 0x40 MLOAD PUSH4 0x13074255 PUSH1 0xE3 SHL DUP2 MSTORE PUSH1 0x4 DUP2 ADD DUP8 SWAP1 MSTORE PUSH1 0x0 SWAP2 PUSH1 0x1 PUSH1 0x1 PUSH1 0xA0 SHL SUB AND SWAP1 PUSH4 0x983A12A8 SWAP1 PUSH1 0x24 ADD PUSH1 0x0 PUSH1 0x40 MLOAD DUP1 DUP4 SUB DUP2 DUP7 DUP1 EXTCODESIZE ISZERO DUP1 ISZERO PUSH2 0x23B5 JUMPI PUSH1 0x0 DUP1 REVERT JUMPDEST POP GAS STATICCALL ISZERO DUP1 ISZERO PUSH2 0x23C9 JUMPI RETURNDATASIZE PUSH1 0x0 DUP1 RETURNDATACOPY RETURNDATASIZE PUSH1 0x0 REVERT JUMPDEST POP POP POP POP PUSH1 0x40 MLOAD RETURNDATASIZE PUSH1 0x0 DUP3 RETURNDATACOPY PUSH1 0x1F RETURNDATASIZE SWAP1 DUP2 ADD PUSH1 0x1F NOT AND DUP3 ADD PUSH1 0x40 MSTORE PUSH2 0x23F1 SWAP2 SWAP1 DUP2 ADD SWAP1 PUSH2 0x4981 JUMP JUMPDEST SWAP1 POP PUSH1 0x0 DUP1 JUMPDEST DUP3 MLOAD DUP2 LT ISZERO PUSH2 0x244E JUMPI DUP3 DUP2 DUP2 MLOAD DUP2 LT PUSH2 0x2412 JUMPI PUSH2 0x2412 PUSH2 0x5C07 JUMP JUMPDEST PUSH1 0x20 MUL PUSH1 0x20 ADD ADD MLOAD PUSH1 0x1 PUSH1 0x1 PUSH1 0xA0 SHL SUB AND CALLER PUSH1 0x1 PUSH1 0x1 PUSH1 0xA0 SHL SUB AND EQ ISZERO PUSH2 0x243C JUMPI PUSH1 0x1 SWAP2 POP PUSH2 0x244E JUMP JUMPDEST DUP1 PUSH2 0x2446 DUP2 PUSH2 0x5BC0 JUMP JUMPDEST SWAP2 POP POP PUSH2 0x23F7 JUMP JUMPDEST POP DUP1 PUSH2 0x249C JUMPI PUSH1 0x40 MLOAD PUSH3 0x461BCD PUSH1 0xE5 SHL DUP2 MSTORE PUSH1 0x20 PUSH1 0x4 DUP3 ADD MSTORE PUSH1 0x17 PUSH1 0x24 DUP3 ADD MSTORE PUSH32 0x6E6F7420696E207472616E736C61746F7273206C697374000000000000000000 PUSH1 0x44 DUP3 ADD MSTORE PUSH1 0x64 ADD PUSH2 0x5D2 JUMP JUMPDEST PUSH1 0x4 DUP1 SLOAD PUSH1 0x40 MLOAD PUSH4 0x655F05D3 PUSH1 0xE0 SHL DUP2 MSTORE PUSH1 0x1 PUSH1 0x1 PUSH1 0xA0 SHL SUB SWAP1 SWAP2 AND SWAP2 PUSH4 0x655F05D3 SWAP2 PUSH2 0xDBC SWAP2 DUP12 SWAP2 DUP12 SWAP2 DUP12 SWAP2 CALLER SWAP2 ADD PUSH2 0x5A14 JUMP JUMPDEST PUSH2 0x24D9 PUSH2 0x403C JUMP JUMPDEST PUSH1 0x1 DUP1 SLOAD PUSH1 0x1 PUSH1 0x1 PUSH1 0xA0 SHL SUB NOT AND PUSH1 0x1 PUSH1 0x1 PUSH1 0xA0 SHL SUB SWAP3 SWAP1 SWAP3 AND SWAP2 SWAP1 SWAP2 OR SWAP1 SSTORE JUMP JUMPDEST PUSH1 0x3 SLOAD PUSH1 0x40 DUP1 MLOAD PUSH4 0x2A1F650B PUSH1 0xE2 SHL DUP2 MSTORE SWAP1 MLOAD DUP9 SWAP3 PUSH1 0x1 PUSH1 0x1 PUSH1 0xA0 SHL SUB AND SWAP2 PUSH4 0xA87D942C SWAP2 PUSH1 0x4 DUP1 DUP4 ADD SWAP3 PUSH1 0x20 SWAP3 SWAP2 SWAP1 DUP3 SWAP1 SUB ADD DUP2 DUP7 DUP1 EXTCODESIZE ISZERO DUP1 ISZERO PUSH2 0x253F JUMPI PUSH1 0x0 DUP1 REVERT JUMPDEST POP GAS STATICCALL ISZERO DUP1 ISZERO PUSH2 0x2553 JUMPI RETURNDATASIZE PUSH1 0x0 DUP1 RETURNDATACOPY RETURNDATASIZE PUSH1 0x0 REVERT JUMPDEST POP POP POP POP PUSH1 0x40 MLOAD RETURNDATASIZE PUSH1 0x1F NOT PUSH1 0x1F DUP3 ADD AND DUP3 ADD DUP1 PUSH1 0x40 MSTORE POP DUP2 ADD SWAP1 PUSH2 0x2577 SWAP2 SWAP1 PUSH2 0x4EFD JUMP JUMPDEST DUP2 GT ISZERO PUSH2 0x2597 JUMPI PUSH1 0x40 MLOAD PUSH4 0x347626DD PUSH1 0xE2 SHL DUP2 MSTORE PUSH1 0x4 ADD PUSH2 0x5D2 SWAP1 PUSH2 0x54EC JUMP JUMPDEST PUSH1 0x3 SLOAD PUSH1 0x40 MLOAD PUSH4 0xB7EC117 PUSH1 0xE3 SHL DUP2 MSTORE PUSH1 0x4 DUP2 ADD DUP10 SWAP1 MSTORE DUP9 SWAP2 CALLER SWAP2 PUSH1 0x1 PUSH1 0x1 PUSH1 0xA0 SHL SUB SWAP1 SWAP2 AND SWAP1 PUSH4 0x5BF608B8 SWAP1 PUSH1 0x24 ADD PUSH1 0x20 PUSH1 0x40 MLOAD DUP1 DUP4 SUB DUP2 DUP7 DUP1 EXTCODESIZE ISZERO DUP1 ISZERO PUSH2 0x25DF JUMPI PUSH1 0x0 DUP1 REVERT JUMPDEST POP GAS STATICCALL ISZERO DUP1 ISZERO PUSH2 0x25F3 JUMPI RETURNDATASIZE PUSH1 0x0 DUP1 RETURNDATACOPY RETURNDATASIZE PUSH1 0x0 REVERT JUMPDEST POP POP POP POP PUSH1 0x40 MLOAD RETURNDATASIZE PUSH1 0x1F NOT PUSH1 0x1F DUP3 ADD AND DUP3 ADD DUP1 PUSH1 0x40 MSTORE POP DUP2 ADD SWAP1 PUSH2 0x2617 SWAP2 SWAP1 PUSH2 0x4915 JUMP JUMPDEST PUSH1 0x1 PUSH1 0x1 PUSH1 0xA0 SHL SUB AND EQ PUSH2 0x265A JUMPI PUSH1 0x40 MLOAD PUSH3 0x461BCD PUSH1 0xE5 SHL DUP2 MSTORE PUSH1 0x20 PUSH1 0x4 DUP3 ADD MSTORE PUSH1 0xA PUSH1 0x24 DUP3 ADD MSTORE PUSH10 0x27B7363C90313ABCB2B9 PUSH1 0xB1 SHL PUSH1 0x44 DUP3 ADD MSTORE PUSH1 0x64 ADD PUSH2 0x5D2 JUMP JUMPDEST PUSH1 0x3 SLOAD PUSH1 0x40 MLOAD PUSH4 0x591B0E27 PUSH1 0xE0 SHL DUP2 MSTORE PUSH1 0x4 DUP2 ADD DUP11 SWAP1 MSTORE PUSH1 0x0 SWAP2 PUSH1 0x1 PUSH1 0x1 PUSH1 0xA0 SHL SUB AND SWAP1 PUSH4 0x591B0E27 SWAP1 PUSH1 0x24 ADD PUSH1 0x20 PUSH1 0x40 MLOAD DUP1 DUP4 SUB DUP2 DUP7 DUP1 EXTCODESIZE ISZERO DUP1 ISZERO PUSH2 0x269F JUMPI PUSH1 0x0 DUP1 REVERT JUMPDEST POP GAS STATICCALL ISZERO DUP1 ISZERO PUSH2 0x26B3 JUMPI RETURNDATASIZE PUSH1 0x0 DUP1 RETURNDATACOPY RETURNDATASIZE PUSH1 0x0 REVERT JUMPDEST POP POP POP POP PUSH1 0x40 MLOAD RETURNDATASIZE PUSH1 0x1F NOT PUSH1 0x1F DUP3 ADD AND DUP3 ADD DUP1 PUSH1 0x40 MSTORE POP DUP2 ADD SWAP1 PUSH2 0x26D7 SWAP2 SWAP1 PUSH2 0x4EFD JUMP JUMPDEST PUSH1 0x3 SLOAD PUSH1 0x40 MLOAD PUSH4 0x7C34EB85 PUSH1 0xE0 SHL DUP2 MSTORE PUSH1 0x4 DUP2 ADD DUP13 SWAP1 MSTORE SWAP2 SWAP3 POP PUSH1 0x0 SWAP2 DUP3 SWAP2 PUSH1 0x1 PUSH1 0x1 PUSH1 0xA0 SHL SUB AND SWAP1 PUSH4 0x7C34EB85 SWAP1 PUSH1 0x24 ADD PUSH1 0x20 PUSH1 0x40 MLOAD DUP1 DUP4 SUB DUP2 DUP7 DUP1 EXTCODESIZE ISZERO DUP1 ISZERO PUSH2 0x2721 JUMPI PUSH1 0x0 DUP1 REVERT JUMPDEST POP GAS STATICCALL ISZERO DUP1 ISZERO PUSH2 0x2735 JUMPI RETURNDATASIZE PUSH1 0x0 DUP1 RETURNDATACOPY RETURNDATASIZE PUSH1 0x0 REVERT JUMPDEST POP POP POP POP PUSH1 0x40 MLOAD RETURNDATASIZE PUSH1 0x1F NOT PUSH1 0x1F DUP3 ADD AND DUP3 ADD DUP1 PUSH1 0x40 MSTORE POP DUP2 ADD SWAP1 PUSH2 0x2759 SWAP2 SWAP1 PUSH2 0x49E9 JUMP JUMPDEST ISZERO PUSH2 0x27E8 JUMPI PUSH1 0x3 SLOAD PUSH1 0x40 MLOAD PUSH4 0xE1CA7CA7 PUSH1 0xE0 SHL DUP2 MSTORE PUSH1 0x4 DUP2 ADD DUP14 SWAP1 MSTORE PUSH1 0x24 DUP2 ADD DUP12 SWAP1 MSTORE PUSH1 0x1 PUSH1 0x1 PUSH1 0xA0 SHL SUB SWAP1 SWAP2 AND SWAP1 PUSH4 0xE1CA7CA7 SWAP1 PUSH1 0x44 ADD PUSH1 0x20 PUSH1 0x40 MLOAD DUP1 DUP4 SUB DUP2 DUP7 DUP1 EXTCODESIZE ISZERO DUP1 ISZERO PUSH2 0x27A9 JUMPI PUSH1 0x0 DUP1 REVERT JUMPDEST POP GAS STATICCALL ISZERO DUP1 ISZERO PUSH2 0x27BD JUMPI RETURNDATASIZE PUSH1 0x0 DUP1 RETURNDATACOPY RETURNDATASIZE PUSH1 0x0 REVERT JUMPDEST POP POP POP POP PUSH1 0x40 MLOAD RETURNDATASIZE PUSH1 0x1F NOT PUSH1 0x1F DUP3 ADD AND DUP3 ADD DUP1 PUSH1 0x40 MSTORE POP DUP2 ADD SWAP1 PUSH2 0x27E1 SWAP2 SWAP1 PUSH2 0x4EFD JUMP JUMPDEST SWAP1 POP PUSH2 0x2867 JUMP JUMPDEST PUSH1 0x3 SLOAD PUSH1 0x40 MLOAD PUSH4 0x374B9CC1 PUSH1 0xE1 SHL DUP2 MSTORE PUSH1 0x4 DUP2 ADD DUP14 SWAP1 MSTORE PUSH1 0x1 PUSH1 0x1 PUSH1 0xA0 SHL SUB SWAP1 SWAP2 AND SWAP1 PUSH4 0x6E973982 SWAP1 PUSH1 0x24 ADD PUSH1 0x20 PUSH1 0x40 MLOAD DUP1 DUP4 SUB DUP2 DUP7 DUP1 EXTCODESIZE ISZERO DUP1 ISZERO PUSH2 0x282C JUMPI PUSH1 0x0 DUP1 REVERT JUMPDEST POP GAS STATICCALL ISZERO DUP1 ISZERO PUSH2 0x2840 JUMPI RETURNDATASIZE PUSH1 0x0 DUP1 RETURNDATACOPY RETURNDATASIZE PUSH1 0x0 REVERT JUMPDEST POP POP POP POP PUSH1 0x40 MLOAD RETURNDATASIZE PUSH1 0x1F NOT PUSH1 0x1F DUP3 ADD AND DUP3 ADD DUP1 PUSH1 0x40 MSTORE POP DUP2 ADD SWAP1 PUSH2 0x2864 SWAP2 SWAP1 PUSH2 0x4EFD JUMP JUMPDEST SWAP1 POP JUMPDEST PUSH1 0x4 DUP1 SLOAD PUSH1 0x40 MLOAD PUSH4 0xF8BC2FD7 PUSH1 0xE0 SHL DUP2 MSTORE PUSH1 0x1 PUSH1 0x1 PUSH1 0xA0 SHL SUB SWAP1 SWAP2 AND SWAP2 PUSH4 0xF8BC2FD7 SWAP2 PUSH2 0x28A0 SWAP2 DUP16 SWAP2 DUP15 SWAP2 DUP15 SWAP2 CALLER SWAP2 DUP16 SWAP2 DUP16 SWAP2 ADD PUSH2 0x59C0 JUMP JUMPDEST PUSH1 0x0 PUSH1 0x40 MLOAD DUP1 DUP4 SUB DUP2 PUSH1 0x0 DUP8 DUP1 EXTCODESIZE ISZERO DUP1 ISZERO PUSH2 0x28BA JUMPI PUSH1 0x0 DUP1 REVERT JUMPDEST POP GAS CALL ISZERO DUP1 ISZERO PUSH2 0x28CE JUMPI RETURNDATASIZE PUSH1 0x0 DUP1 RETURNDATACOPY RETURNDATASIZE PUSH1 0x0 REVERT JUMPDEST POP POP POP POP DUP8 ISZERO PUSH2 0xDEA JUMPI DUP3 PUSH1 0x1 EQ DUP1 PUSH2 0x28E7 JUMPI POP DUP3 PUSH1 0x5 EQ JUMPDEST ISZERO PUSH2 0x2976 JUMPI PUSH1 0x2 SLOAD PUSH1 0x40 MLOAD PUSH4 0xF74F3655 PUSH1 0xE0 SHL DUP2 MSTORE PUSH1 0x4 DUP2 ADD DUP4 SWAP1 MSTORE PUSH1 0x6E PUSH1 0x24 DUP3 ADD MSTORE PUSH1 0x1 PUSH1 0x1 PUSH1 0xA0 SHL SUB SWAP1 SWAP2 AND SWAP1 PUSH4 0xF74F3655 SWAP1 PUSH1 0x44 ADD PUSH1 0x20 PUSH1 0x40 MLOAD DUP1 DUP4 SUB DUP2 DUP7 DUP1 EXTCODESIZE ISZERO DUP1 ISZERO PUSH2 0x2937 JUMPI PUSH1 0x0 DUP1 REVERT JUMPDEST POP GAS STATICCALL ISZERO DUP1 ISZERO PUSH2 0x294B JUMPI RETURNDATASIZE PUSH1 0x0 DUP1 RETURNDATACOPY RETURNDATASIZE PUSH1 0x0 REVERT JUMPDEST POP POP POP POP PUSH1 0x40 MLOAD RETURNDATASIZE PUSH1 0x1F NOT PUSH1 0x1F DUP3 ADD AND DUP3 ADD DUP1 PUSH1 0x40 MSTORE POP DUP2 ADD SWAP1 PUSH2 0x296F SWAP2 SWAP1 PUSH2 0x4EFD JUMP JUMPDEST SWAP2 POP PUSH2 0x29F5 JUMP JUMPDEST PUSH1 0x2 SLOAD PUSH1 0x40 MLOAD PUSH4 0x8E4B0BBD PUSH1 0xE0 SHL DUP2 MSTORE PUSH1 0x4 DUP2 ADD DUP4 SWAP1 MSTORE PUSH1 0x1 PUSH1 0x1 PUSH1 0xA0 SHL SUB SWAP1 SWAP2 AND SWAP1 PUSH4 0x8E4B0BBD SWAP1 PUSH1 0x24 ADD PUSH1 0x20 PUSH1 0x40 MLOAD DUP1 DUP4 SUB DUP2 DUP7 DUP1 EXTCODESIZE ISZERO DUP1 ISZERO PUSH2 0x29BA JUMPI PUSH1 0x0 DUP1 REVERT JUMPDEST POP GAS STATICCALL ISZERO DUP1 ISZERO PUSH2 0x29CE JUMPI RETURNDATASIZE PUSH1 0x0 DUP1 RETURNDATACOPY RETURNDATASIZE PUSH1 0x0 REVERT JUMPDEST POP POP POP POP PUSH1 0x40 MLOAD RETURNDATASIZE PUSH1 0x1F NOT PUSH1 0x1F DUP3 ADD AND DUP3 ADD DUP1 PUSH1 0x40 MSTORE POP DUP2 ADD SWAP1 PUSH2 0x29F2 SWAP2 SWAP1 PUSH2 0x4EFD JUMP JUMPDEST SWAP2 POP JUMPDEST PUSH1 0x5 SLOAD PUSH1 0x40 MLOAD PUSH4 0x6EB1769F PUSH1 0xE1 SHL DUP2 MSTORE CALLER PUSH1 0x4 DUP3 ADD MSTORE ADDRESS PUSH1 0x24 DUP3 ADD MSTORE DUP4 SWAP2 PUSH1 0x1 PUSH1 0x1 PUSH1 0xA0 SHL SUB AND SWAP1 PUSH4 0xDD62ED3E SWAP1 PUSH1 0x44 ADD PUSH1 0x20 PUSH1 0x40 MLOAD DUP1 DUP4 SUB DUP2 DUP7 DUP1 EXTCODESIZE ISZERO DUP1 ISZERO PUSH2 0x2A3E JUMPI PUSH1 0x0 DUP1 REVERT JUMPDEST POP GAS STATICCALL ISZERO DUP1 ISZERO PUSH2 0x2A52 JUMPI RETURNDATASIZE PUSH1 0x0 DUP1 RETURNDATACOPY RETURNDATASIZE PUSH1 0x0 REVERT JUMPDEST POP POP POP POP PUSH1 0x40 MLOAD RETURNDATASIZE PUSH1 0x1F NOT PUSH1 0x1F DUP3 ADD AND DUP3 ADD DUP1 PUSH1 0x40 MSTORE POP DUP2 ADD SWAP1 PUSH2 0x2A76 SWAP2 SWAP1 PUSH2 0x4EFD JUMP JUMPDEST LT ISZERO DUP1 ISZERO PUSH2 0x2AFD JUMPI POP PUSH1 0x5 SLOAD PUSH1 0x40 MLOAD PUSH4 0x70A08231 PUSH1 0xE0 SHL DUP2 MSTORE CALLER PUSH1 0x4 DUP3 ADD MSTORE DUP4 SWAP2 PUSH1 0x1 PUSH1 0x1 PUSH1 0xA0 SHL SUB AND SWAP1 PUSH4 0x70A08231 SWAP1 PUSH1 0x24 ADD PUSH1 0x20 PUSH1 0x40 MLOAD DUP1 DUP4 SUB DUP2 DUP7 DUP1 EXTCODESIZE ISZERO DUP1 ISZERO PUSH2 0x2AC2 JUMPI PUSH1 0x0 DUP1 REVERT JUMPDEST POP GAS STATICCALL ISZERO DUP1 ISZERO PUSH2 0x2AD6 JUMPI RETURNDATASIZE PUSH1 0x0 DUP1 RETURNDATACOPY RETURNDATASIZE PUSH1 0x0 REVERT JUMPDEST POP POP POP POP PUSH1 0x40 MLOAD RETURNDATASIZE PUSH1 0x1F NOT PUSH1 0x1F DUP3 ADD AND DUP3 ADD DUP1 PUSH1 0x40 MSTORE POP DUP2 ADD SWAP1 PUSH2 0x2AFA SWAP2 SWAP1 PUSH2 0x4EFD JUMP JUMPDEST LT ISZERO JUMPDEST PUSH2 0x2B19 JUMPI PUSH1 0x40 MLOAD PUSH3 0x461BCD PUSH1 0xE5 SHL DUP2 MSTORE PUSH1 0x4 ADD PUSH2 0x5D2 SWAP1 PUSH2 0x559F JUMP JUMPDEST DUP3 PUSH1 0x1 EQ DUP1 PUSH2 0x2B28 JUMPI POP DUP3 PUSH1 0x5 EQ JUMPDEST ISZERO PUSH2 0x2CBB JUMPI PUSH1 0x5 SLOAD PUSH1 0x40 MLOAD PUSH4 0x23B872DD PUSH1 0xE0 SHL DUP2 MSTORE PUSH1 0x1 PUSH1 0x1 PUSH1 0xA0 SHL SUB SWAP1 SWAP2 AND SWAP1 PUSH4 0x23B872DD SWAP1 PUSH2 0x2B61 SWAP1 CALLER SWAP1 DUP15 SWAP1 DUP7 SWAP1 PUSH1 0x4 ADD PUSH2 0x547E JUMP JUMPDEST PUSH1 0x20 PUSH1 0x40 MLOAD DUP1 DUP4 SUB DUP2 PUSH1 0x0 DUP8 DUP1 EXTCODESIZE ISZERO DUP1 ISZERO PUSH2 0x2B7B JUMPI PUSH1 0x0 DUP1 REVERT JUMPDEST POP GAS CALL ISZERO DUP1 ISZERO PUSH2 0x2B8F JUMPI RETURNDATASIZE PUSH1 0x0 DUP1 RETURNDATACOPY RETURNDATASIZE PUSH1 0x0 REVERT JUMPDEST POP POP POP POP PUSH1 0x40 MLOAD RETURNDATASIZE PUSH1 0x1F NOT PUSH1 0x1F DUP3 ADD AND DUP3 ADD DUP1 PUSH1 0x40 MSTORE POP DUP2 ADD SWAP1 PUSH2 0x2BB3 SWAP2 SWAP1 PUSH2 0x49E9 JUMP JUMPDEST POP PUSH1 0x5 SLOAD PUSH1 0x7 SLOAD PUSH1 0x2 SLOAD PUSH1 0x40 MLOAD PUSH4 0xA16EB4D3 PUSH1 0xE0 SHL DUP2 MSTORE PUSH1 0x4 DUP2 ADD DUP6 SWAP1 MSTORE PUSH1 0x1 PUSH1 0x1 PUSH1 0xA0 SHL SUB SWAP4 DUP5 AND SWAP4 PUSH4 0x23B872DD SWAP4 CALLER SWAP4 SWAP1 DUP3 AND SWAP3 SWAP2 AND SWAP1 PUSH4 0xA16EB4D3 SWAP1 PUSH1 0x24 ADD PUSH1 0x20 PUSH1 0x40 MLOAD DUP1 DUP4 SUB DUP2 DUP7 DUP1 EXTCODESIZE ISZERO DUP1 ISZERO PUSH2 0x2C0D JUMPI PUSH1 0x0 DUP1 REVERT JUMPDEST POP GAS STATICCALL ISZERO DUP1 ISZERO PUSH2 0x2C21 JUMPI RETURNDATASIZE PUSH1 0x0 DUP1 RETURNDATACOPY RETURNDATASIZE PUSH1 0x0 REVERT JUMPDEST POP POP POP POP PUSH1 0x40 MLOAD RETURNDATASIZE PUSH1 0x1F NOT PUSH1 0x1F DUP3 ADD AND DUP3 ADD DUP1 PUSH1 0x40 MSTORE POP DUP2 ADD SWAP1 PUSH2 0x2C45 SWAP2 SWAP1 PUSH2 0x4EFD JUMP JUMPDEST PUSH1 0x40 MLOAD DUP5 PUSH4 0xFFFFFFFF AND PUSH1 0xE0 SHL DUP2 MSTORE PUSH1 0x4 ADD PUSH2 0x2C63 SWAP4 SWAP3 SWAP2 SWAP1 PUSH2 0x547E JUMP JUMPDEST PUSH1 0x20 PUSH1 0x40 MLOAD DUP1 DUP4 SUB DUP2 PUSH1 0x0 DUP8 DUP1 EXTCODESIZE ISZERO DUP1 ISZERO PUSH2 0x2C7D JUMPI PUSH1 0x0 DUP1 REVERT JUMPDEST POP GAS CALL ISZERO DUP1 ISZERO PUSH2 0x2C91 JUMPI RETURNDATASIZE PUSH1 0x0 DUP1 RETURNDATACOPY RETURNDATASIZE PUSH1 0x0 REVERT JUMPDEST POP POP POP POP PUSH1 0x40 MLOAD RETURNDATASIZE PUSH1 0x1F NOT PUSH1 0x1F DUP3 ADD AND DUP3 ADD DUP1 PUSH1 0x40 MSTORE POP DUP2 ADD SWAP1 PUSH2 0x2CB5 SWAP2 SWAP1 PUSH2 0x49E9 JUMP JUMPDEST POP PUSH2 0xDEA JUMP JUMPDEST PUSH1 0x5 SLOAD PUSH1 0x2 SLOAD PUSH1 0x40 MLOAD PUSH4 0x8E4B0BBD PUSH1 0xE0 SHL DUP2 MSTORE PUSH1 0x4 DUP2 ADD DUP5 SWAP1 MSTORE PUSH1 0x1 PUSH1 0x1 PUSH1 0xA0 SHL SUB SWAP3 DUP4 AND SWAP3 PUSH4 0x23B872DD SWAP3 CALLER SWAP3 DUP16 SWAP3 SWAP1 SWAP2 AND SWAP1 PUSH4 0x8E4B0BBD SWAP1 PUSH1 0x24 ADD PUSH1 0x20 PUSH1 0x40 MLOAD DUP1 DUP4 SUB DUP2 DUP7 DUP1 EXTCODESIZE ISZERO DUP1 ISZERO PUSH2 0x2D10 JUMPI PUSH1 0x0 DUP1 REVERT JUMPDEST POP GAS STATICCALL ISZERO DUP1 ISZERO PUSH2 0x2D24 JUMPI RETURNDATASIZE PUSH1 0x0 DUP1 RETURNDATACOPY RETURNDATASIZE PUSH1 0x0 REVERT JUMPDEST POP POP POP POP PUSH1 0x40 MLOAD RETURNDATASIZE PUSH1 0x1F NOT PUSH1 0x1F DUP3 ADD AND DUP3 ADD DUP1 PUSH1 0x40 MSTORE POP DUP2 ADD SWAP1 PUSH2 0x2D48 SWAP2 SWAP1 PUSH2 0x4EFD JUMP JUMPDEST PUSH1 0x40 MLOAD DUP5 PUSH4 0xFFFFFFFF AND PUSH1 0xE0 SHL DUP2 MSTORE PUSH1 0x4 ADD PUSH2 0x2D66 SWAP4 SWAP3 SWAP2 SWAP1 PUSH2 0x547E JUMP JUMPDEST PUSH1 0x20 PUSH1 0x40 MLOAD DUP1 DUP4 SUB DUP2 PUSH1 0x0 DUP8 DUP1 EXTCODESIZE ISZERO DUP1 ISZERO PUSH2 0x2D80 JUMPI PUSH1 0x0 DUP1 REVERT JUMPDEST POP GAS CALL ISZERO DUP1 ISZERO PUSH2 0x2D94 JUMPI RETURNDATASIZE PUSH1 0x0 DUP1 RETURNDATACOPY RETURNDATASIZE PUSH1 0x0 REVERT JUMPDEST POP POP POP POP PUSH1 0x40 MLOAD RETURNDATASIZE PUSH1 0x1F NOT PUSH1 0x1F DUP3 ADD AND DUP3 ADD DUP1 PUSH1 0x40 MSTORE POP DUP2 ADD SWAP1 PUSH2 0x2DB8 SWAP2 SWAP1 PUSH2 0x49E9 JUMP JUMPDEST POP POP POP POP POP POP POP POP POP POP POP POP JUMP JUMPDEST PUSH2 0x2DCE PUSH2 0x4181 JUMP JUMPDEST PUSH1 0x3 SLOAD PUSH1 0x40 DUP1 MLOAD PUSH4 0x2A1F650B PUSH1 0xE2 SHL DUP2 MSTORE SWAP1 MLOAD DUP5 SWAP3 PUSH1 0x1 PUSH1 0x1 PUSH1 0xA0 SHL SUB AND SWAP2 PUSH4 0xA87D942C SWAP2 PUSH1 0x4 DUP1 DUP4 ADD SWAP3 PUSH1 0x20 SWAP3 SWAP2 SWAP1 DUP3 SWAP1 SUB ADD DUP2 DUP7 DUP1 EXTCODESIZE ISZERO DUP1 ISZERO PUSH2 0x2E12 JUMPI PUSH1 0x0 DUP1 REVERT JUMPDEST POP GAS STATICCALL ISZERO DUP1 ISZERO PUSH2 0x2E26 JUMPI RETURNDATASIZE PUSH1 0x0 DUP1 RETURNDATACOPY RETURNDATASIZE PUSH1 0x0 REVERT JUMPDEST POP POP POP POP PUSH1 0x40 MLOAD RETURNDATASIZE PUSH1 0x1F NOT PUSH1 0x1F DUP3 ADD AND DUP3 ADD DUP1 PUSH1 0x40 MSTORE POP DUP2 ADD SWAP1 PUSH2 0x2E4A SWAP2 SWAP1 PUSH2 0x4EFD JUMP JUMPDEST DUP2 GT ISZERO PUSH2 0x2E6A JUMPI PUSH1 0x40 MLOAD PUSH4 0x347626DD PUSH1 0xE2 SHL DUP2 MSTORE PUSH1 0x4 ADD PUSH2 0x5D2 SWAP1 PUSH2 0x54EC JUMP JUMPDEST PUSH2 0x2E72 PUSH2 0x4181 JUMP JUMPDEST PUSH1 0x3 SLOAD PUSH1 0x40 MLOAD PUSH4 0x25E78E7 PUSH1 0xE4 SHL DUP2 MSTORE PUSH1 0x4 DUP2 ADD DUP7 SWAP1 MSTORE PUSH1 0x1 PUSH1 0x1 PUSH1 0xA0 SHL SUB SWAP1 SWAP2 AND SWAP1 PUSH4 0x25E78E70 SWAP1 PUSH1 0x24 ADD PUSH1 0x0 PUSH1 0x40 MLOAD DUP1 DUP4 SUB DUP2 DUP7 DUP1 EXTCODESIZE ISZERO DUP1 ISZERO PUSH2 0x2EB6 JUMPI PUSH1 0x0 DUP1 REVERT JUMPDEST POP GAS STATICCALL ISZERO DUP1 ISZERO PUSH2 0x2ECA JUMPI RETURNDATASIZE PUSH1 0x0 DUP1 RETURNDATACOPY RETURNDATASIZE PUSH1 0x0 REVERT JUMPDEST POP POP POP POP PUSH1 0x40 MLOAD RETURNDATASIZE PUSH1 0x0 DUP3 RETURNDATACOPY PUSH1 0x1F RETURNDATASIZE SWAP1 DUP2 ADD PUSH1 0x1F NOT AND DUP3 ADD PUSH1 0x40 MSTORE PUSH2 0x2EF2 SWAP2 SWAP1 DUP2 ADD SWAP1 PUSH2 0x4CD3 JUMP JUMPDEST DUP2 MSTORE PUSH1 0x3 SLOAD PUSH1 0x40 MLOAD PUSH4 0x34BFB5A7 PUSH1 0xE2 SHL DUP2 MSTORE PUSH1 0x4 DUP2 ADD DUP7 SWAP1 MSTORE PUSH1 0x0 SWAP2 PUSH1 0x1 PUSH1 0x1 PUSH1 0xA0 SHL SUB AND SWAP1 PUSH4 0xD2FED69C SWAP1 PUSH1 0x24 ADD PUSH1 0x20 PUSH1 0x40 MLOAD DUP1 DUP4 SUB DUP2 DUP7 DUP1 EXTCODESIZE ISZERO DUP1 ISZERO PUSH2 0x2F39 JUMPI PUSH1 0x0 DUP1 REVERT JUMPDEST POP GAS STATICCALL ISZERO DUP1 ISZERO PUSH2 0x2F4D JUMPI RETURNDATASIZE PUSH1 0x0 DUP1 RETURNDATACOPY RETURNDATASIZE PUSH1 0x0 REVERT JUMPDEST POP POP POP POP PUSH1 0x40 MLOAD RETURNDATASIZE PUSH1 0x1F NOT PUSH1 0x1F DUP3 ADD AND DUP3 ADD DUP1 PUSH1 0x40 MSTORE POP DUP2 ADD SWAP1 PUSH2 0x2F71 SWAP2 SWAP1 PUSH2 0x4EFD JUMP JUMPDEST PUSH1 0x3 SLOAD PUSH1 0x40 MLOAD PUSH4 0xF8626EBB PUSH1 0xE0 SHL DUP2 MSTORE PUSH1 0x4 DUP2 ADD DUP9 SWAP1 MSTORE SWAP2 SWAP3 POP PUSH1 0x0 SWAP2 PUSH1 0x1 PUSH1 0x1 PUSH1 0xA0 SHL SUB SWAP1 SWAP2 AND SWAP1 PUSH4 0xF8626EBB SWAP1 PUSH1 0x24 ADD PUSH1 0x20 PUSH1 0x40 MLOAD DUP1 DUP4 SUB DUP2 DUP7 DUP1 EXTCODESIZE ISZERO DUP1 ISZERO PUSH2 0x2FBB JUMPI PUSH1 0x0 DUP1 REVERT JUMPDEST POP GAS STATICCALL ISZERO DUP1 ISZERO PUSH2 0x2FCF JUMPI RETURNDATASIZE PUSH1 0x0 DUP1 RETURNDATACOPY RETURNDATASIZE PUSH1 0x0 REVERT JUMPDEST POP POP POP POP PUSH1 0x40 MLOAD RETURNDATASIZE PUSH1 0x1F NOT PUSH1 0x1F DUP3 ADD AND DUP3 ADD DUP1 PUSH1 0x40 MSTORE POP DUP2 ADD SWAP1 PUSH2 0x2FF3 SWAP2 SWAP1 PUSH2 0x4EFD JUMP JUMPDEST PUSH1 0x3 SLOAD PUSH1 0x40 MLOAD PUSH4 0x13074255 PUSH1 0xE3 SHL DUP2 MSTORE PUSH1 0x4 DUP2 ADD DUP10 SWAP1 MSTORE SWAP2 SWAP3 POP PUSH1 0x0 SWAP2 PUSH1 0x1 PUSH1 0x1 PUSH1 0xA0 SHL SUB SWAP1 SWAP2 AND SWAP1 PUSH4 0x983A12A8 SWAP1 PUSH1 0x24 ADD PUSH1 0x0 PUSH1 0x40 MLOAD DUP1 DUP4 SUB DUP2 DUP7 DUP1 EXTCODESIZE ISZERO DUP1 ISZERO PUSH2 0x303D JUMPI PUSH1 0x0 DUP1 REVERT JUMPDEST POP GAS STATICCALL ISZERO DUP1 ISZERO PUSH2 0x3051 JUMPI RETURNDATASIZE PUSH1 0x0 DUP1 RETURNDATACOPY RETURNDATASIZE PUSH1 0x0 REVERT JUMPDEST POP POP POP POP PUSH1 0x40 MLOAD RETURNDATASIZE PUSH1 0x0 DUP3 RETURNDATACOPY PUSH1 0x1F RETURNDATASIZE SWAP1 DUP2 ADD PUSH1 0x1F NOT AND DUP3 ADD PUSH1 0x40 MSTORE PUSH2 0x3079 SWAP2 SWAP1 DUP2 ADD SWAP1 PUSH2 0x4981 JUMP JUMPDEST PUSH1 0x3 SLOAD PUSH1 0x40 MLOAD PUSH4 0xB647EEC3 PUSH1 0xE0 SHL DUP2 MSTORE PUSH1 0x4 DUP2 ADD DUP11 SWAP1 MSTORE SWAP2 SWAP3 POP PUSH1 0x0 SWAP2 PUSH1 0x1 PUSH1 0x1 PUSH1 0xA0 SHL SUB SWAP1 SWAP2 AND SWAP1 PUSH4 0xB647EEC3 SWAP1 PUSH1 0x24 ADD PUSH1 0x0 PUSH1 0x40 MLOAD DUP1 DUP4 SUB DUP2 DUP7 DUP1 EXTCODESIZE ISZERO DUP1 ISZERO PUSH2 0x30C3 JUMPI PUSH1 0x0 DUP1 REVERT JUMPDEST POP GAS STATICCALL ISZERO DUP1 ISZERO PUSH2 0x30D7 JUMPI RETURNDATASIZE PUSH1 0x0 DUP1 RETURNDATACOPY RETURNDATASIZE PUSH1 0x0 REVERT JUMPDEST POP POP POP POP PUSH1 0x40 MLOAD RETURNDATASIZE PUSH1 0x0 DUP3 RETURNDATACOPY PUSH1 0x1F RETURNDATASIZE SWAP1 DUP2 ADD PUSH1 0x1F NOT AND DUP3 ADD PUSH1 0x40 MSTORE PUSH2 0x30FF SWAP2 SWAP1 DUP2 ADD SWAP1 PUSH2 0x4981 JUMP JUMPDEST SWAP1 POP PUSH1 0x0 DUP5 PUSH1 0x1 PUSH1 0x1 PUSH1 0x40 SHL SUB DUP2 GT ISZERO PUSH2 0x311B JUMPI PUSH2 0x311B PUSH2 0x5C1D JUMP JUMPDEST PUSH1 0x40 MLOAD SWAP1 DUP1 DUP3 MSTORE DUP1 PUSH1 0x20 MUL PUSH1 0x20 ADD DUP3 ADD PUSH1 0x40 MSTORE DUP1 ISZERO PUSH2 0x3179 JUMPI DUP2 PUSH1 0x20 ADD JUMPDEST PUSH2 0x3166 PUSH1 0x40 MLOAD DUP1 PUSH1 0x60 ADD PUSH1 0x40 MSTORE DUP1 PUSH1 0x0 PUSH1 0x1 PUSH1 0x1 PUSH1 0xA0 SHL SUB AND DUP2 MSTORE PUSH1 0x20 ADD PUSH1 0x60 DUP2 MSTORE PUSH1 0x20 ADD PUSH1 0x60 DUP2 MSTORE POP SWAP1 JUMP JUMPDEST DUP2 MSTORE PUSH1 0x20 ADD SWAP1 PUSH1 0x1 SWAP1 SUB SWAP1 DUP2 PUSH2 0x3139 JUMPI SWAP1 POP JUMPDEST POP SWAP1 POP PUSH1 0x0 DUP5 PUSH1 0x1 PUSH1 0x1 PUSH1 0x40 SHL SUB DUP2 GT ISZERO PUSH2 0x3196 JUMPI PUSH2 0x3196 PUSH2 0x5C1D JUMP JUMPDEST PUSH1 0x40 MLOAD SWAP1 DUP1 DUP3 MSTORE DUP1 PUSH1 0x20 MUL PUSH1 0x20 ADD DUP3 ADD PUSH1 0x40 MSTORE DUP1 ISZERO PUSH2 0x31F4 JUMPI DUP2 PUSH1 0x20 ADD JUMPDEST PUSH2 0x31E1 PUSH1 0x40 MLOAD DUP1 PUSH1 0x60 ADD PUSH1 0x40 MSTORE DUP1 PUSH1 0x0 PUSH1 0x1 PUSH1 0x1 PUSH1 0xA0 SHL SUB AND DUP2 MSTORE PUSH1 0x20 ADD PUSH1 0x60 DUP2 MSTORE PUSH1 0x20 ADD PUSH1 0x60 DUP2 MSTORE POP SWAP1 JUMP JUMPDEST DUP2 MSTORE PUSH1 0x20 ADD SWAP1 PUSH1 0x1 SWAP1 SUB SWAP1 DUP2 PUSH2 0x31B4 JUMPI SWAP1 POP JUMPDEST POP SWAP1 POP PUSH1 0x0 JUMPDEST DUP7 DUP2 LT ISZERO PUSH2 0x32E8 JUMPI PUSH1 0x3 SLOAD DUP6 MLOAD PUSH1 0x1 PUSH1 0x1 PUSH1 0xA0 SHL SUB SWAP1 SWAP2 AND SWAP1 PUSH4 0x5FED5EB2 SWAP1 DUP14 SWAP1 DUP9 SWAP1 DUP6 SWAP1 DUP2 LT PUSH2 0x322D JUMPI PUSH2 0x322D PUSH2 0x5C07 JUMP JUMPDEST PUSH1 0x20 MUL PUSH1 0x20 ADD ADD MLOAD PUSH1 0x40 MLOAD DUP4 PUSH4 0xFFFFFFFF AND PUSH1 0xE0 SHL DUP2 MSTORE PUSH1 0x4 ADD PUSH2 0x3264 SWAP3 SWAP2 SWAP1 SWAP2 DUP3 MSTORE PUSH1 0x1 PUSH1 0x1 PUSH1 0xA0 SHL SUB AND PUSH1 0x20 DUP3 ADD MSTORE PUSH1 0x40 ADD SWAP1 JUMP JUMPDEST PUSH1 0x0 PUSH1 0x40 MLOAD DUP1 DUP4 SUB DUP2 DUP7 DUP1 EXTCODESIZE ISZERO DUP1 ISZERO PUSH2 0x327C JUMPI PUSH1 0x0 DUP1 REVERT JUMPDEST POP GAS STATICCALL ISZERO DUP1 ISZERO PUSH2 0x3290 JUMPI RETURNDATASIZE PUSH1 0x0 DUP1 RETURNDATACOPY RETURNDATASIZE PUSH1 0x0 REVERT JUMPDEST POP POP POP POP PUSH1 0x40 MLOAD RETURNDATASIZE PUSH1 0x0 DUP3 RETURNDATACOPY PUSH1 0x1F RETURNDATASIZE SWAP1 DUP2 ADD PUSH1 0x1F NOT AND DUP3 ADD PUSH1 0x40 MSTORE PUSH2 0x32B8 SWAP2 SWAP1 DUP2 ADD SWAP1 PUSH2 0x4B5B JUMP JUMPDEST DUP4 DUP3 DUP2 MLOAD DUP2 LT PUSH2 0x32CA JUMPI PUSH2 0x32CA PUSH2 0x5C07 JUMP JUMPDEST PUSH1 0x20 MUL PUSH1 0x20 ADD ADD DUP2 SWAP1 MSTORE POP DUP1 DUP1 PUSH2 0x32E0 SWAP1 PUSH2 0x5BC0 JUMP JUMPDEST SWAP2 POP POP PUSH2 0x31FA JUMP JUMPDEST POP PUSH1 0x0 JUMPDEST DUP6 DUP2 LT ISZERO PUSH2 0x33DA JUMPI PUSH1 0x3 SLOAD DUP5 MLOAD PUSH1 0x1 PUSH1 0x1 PUSH1 0xA0 SHL SUB SWAP1 SWAP2 AND SWAP1 PUSH4 0x7C35BEB7 SWAP1 DUP14 SWAP1 DUP8 SWAP1 DUP6 SWAP1 DUP2 LT PUSH2 0x331F JUMPI PUSH2 0x331F PUSH2 0x5C07 JUMP JUMPDEST PUSH1 0x20 MUL PUSH1 0x20 ADD ADD MLOAD PUSH1 0x40 MLOAD DUP4 PUSH4 0xFFFFFFFF AND PUSH1 0xE0 SHL DUP2 MSTORE PUSH1 0x4 ADD PUSH2 0x3356 SWAP3 SWAP2 SWAP1 SWAP2 DUP3 MSTORE PUSH1 0x1 PUSH1 0x1 PUSH1 0xA0 SHL SUB AND PUSH1 0x20 DUP3 ADD MSTORE PUSH1 0x40 ADD SWAP1 JUMP JUMPDEST PUSH1 0x0 PUSH1 0x40 MLOAD DUP1 DUP4 SUB DUP2 DUP7 DUP1 EXTCODESIZE ISZERO DUP1 ISZERO PUSH2 0x336E JUMPI PUSH1 0x0 DUP1 REVERT JUMPDEST POP GAS STATICCALL ISZERO DUP1 ISZERO PUSH2 0x3382 JUMPI RETURNDATASIZE PUSH1 0x0 DUP1 RETURNDATACOPY RETURNDATASIZE PUSH1 0x0 REVERT JUMPDEST POP POP POP POP PUSH1 0x40 MLOAD RETURNDATASIZE PUSH1 0x0 DUP3 RETURNDATACOPY PUSH1 0x1F RETURNDATASIZE SWAP1 DUP2 ADD PUSH1 0x1F NOT AND DUP3 ADD PUSH1 0x40 MSTORE PUSH2 0x33AA SWAP2 SWAP1 DUP2 ADD SWAP1 PUSH2 0x4B5B JUMP JUMPDEST DUP3 DUP3 DUP2 MLOAD DUP2 LT PUSH2 0x33BC JUMPI PUSH2 0x33BC PUSH2 0x5C07 JUMP JUMPDEST PUSH1 0x20 MUL PUSH1 0x20 ADD ADD DUP2 SWAP1 MSTORE POP DUP1 DUP1 PUSH2 0x33D2 SWAP1 PUSH2 0x5BC0 JUMP JUMPDEST SWAP2 POP POP PUSH2 0x32EC JUMP JUMPDEST POP PUSH1 0x20 DUP8 ADD SWAP2 SWAP1 SWAP2 MSTORE PUSH1 0x40 DUP7 ADD MSTORE POP SWAP3 SWAP7 SWAP6 POP POP POP POP POP POP JUMP JUMPDEST PUSH1 0x3 SLOAD PUSH1 0x40 MLOAD PUSH4 0xD3D7BC3B PUSH1 0xE0 SHL DUP2 MSTORE PUSH1 0x1 PUSH1 0x1 PUSH1 0xA0 SHL SUB DUP4 DUP2 AND PUSH1 0x4 DUP4 ADD MSTORE PUSH1 0x0 SWAP3 AND SWAP1 PUSH4 0xD3D7BC3B SWAP1 PUSH1 0x24 ADD PUSH1 0x20 PUSH1 0x40 MLOAD DUP1 DUP4 SUB DUP2 DUP7 DUP1 EXTCODESIZE ISZERO DUP1 ISZERO PUSH2 0x343A JUMPI PUSH1 0x0 DUP1 REVERT JUMPDEST POP GAS STATICCALL ISZERO DUP1 ISZERO PUSH2 0x344E JUMPI RETURNDATASIZE PUSH1 0x0 DUP1 RETURNDATACOPY RETURNDATASIZE PUSH1 0x0 REVERT JUMPDEST POP POP POP POP PUSH1 0x40 MLOAD RETURNDATASIZE PUSH1 0x1F NOT PUSH1 0x1F DUP3 ADD AND DUP3 ADD DUP1 PUSH1 0x40 MSTORE POP DUP2 ADD SWAP1 PUSH2 0x530 SWAP2 SWAP1 PUSH2 0x4EFD JUMP JUMPDEST PUSH2 0x347A PUSH2 0x403C JUMP JUMPDEST PUSH1 0x2 DUP1 SLOAD PUSH1 0x1 PUSH1 0x1 PUSH1 0xA0 SHL SUB NOT AND PUSH1 0x1 PUSH1 0x1 PUSH1 0xA0 SHL SUB SWAP3 SWAP1 SWAP3 AND SWAP2 SWAP1 SWAP2 OR SWAP1 SSTORE JUMP JUMPDEST PUSH1 0x3 SLOAD PUSH1 0x40 DUP1 MLOAD PUSH4 0x2A1F650B PUSH1 0xE2 SHL DUP2 MSTORE SWAP1 MLOAD DUP9 SWAP3 PUSH1 0x1 PUSH1 0x1 PUSH1 0xA0 SHL SUB AND SWAP2 PUSH4 0xA87D942C SWAP2 PUSH1 0x4 DUP1 DUP4 ADD SWAP3 PUSH1 0x20 SWAP3 SWAP2 SWAP1 DUP3 SWAP1 SUB ADD DUP2 DUP7 DUP1 EXTCODESIZE ISZERO DUP1 ISZERO PUSH2 0x34E0 JUMPI PUSH1 0x0 DUP1 REVERT JUMPDEST POP GAS STATICCALL ISZERO DUP1 ISZERO PUSH2 0x34F4 JUMPI RETURNDATASIZE PUSH1 0x0 DUP1 RETURNDATACOPY RETURNDATASIZE PUSH1 0x0 REVERT JUMPDEST POP POP POP POP PUSH1 0x40 MLOAD RETURNDATASIZE PUSH1 0x1F NOT PUSH1 0x1F DUP3 ADD AND DUP3 ADD DUP1 PUSH1 0x40 MSTORE POP DUP2 ADD SWAP1 PUSH2 0x3518 SWAP2 SWAP1 PUSH2 0x4EFD JUMP JUMPDEST DUP2 GT ISZERO PUSH2 0x3538 JUMPI PUSH1 0x40 MLOAD PUSH4 0x347626DD PUSH1 0xE2 SHL DUP2 MSTORE PUSH1 0x4 ADD PUSH2 0x5D2 SWAP1 PUSH2 0x54EC JUMP JUMPDEST PUSH1 0x3 SLOAD PUSH1 0x40 MLOAD PUSH4 0x56B03E39 PUSH1 0xE1 SHL DUP2 MSTORE PUSH1 0x4 DUP2 ADD DUP10 SWAP1 MSTORE PUSH1 0x24 DUP2 ADD DUP8 SWAP1 MSTORE PUSH1 0x7 SWAP2 PUSH1 0x1 PUSH1 0x1 PUSH1 0xA0 SHL SUB AND SWAP1 PUSH4 0xAD607C72 SWAP1 PUSH1 0x44 ADD PUSH1 0x20 PUSH1 0x40 MLOAD DUP1 DUP4 SUB DUP2 DUP7 DUP1 EXTCODESIZE ISZERO DUP1 ISZERO PUSH2 0x3584 JUMPI PUSH1 0x0 DUP1 REVERT JUMPDEST POP GAS STATICCALL ISZERO DUP1 ISZERO PUSH2 0x3598 JUMPI RETURNDATASIZE PUSH1 0x0 DUP1 RETURNDATACOPY RETURNDATASIZE PUSH1 0x0 REVERT JUMPDEST POP POP POP POP PUSH1 0x40 MLOAD RETURNDATASIZE PUSH1 0x1F NOT PUSH1 0x1F DUP3 ADD AND DUP3 ADD DUP1 PUSH1 0x40 MSTORE POP DUP2 ADD SWAP1 PUSH2 0x35BC SWAP2 SWAP1 PUSH2 0x4A4C JUMP JUMPDEST PUSH1 0xB DUP2 GT ISZERO PUSH2 0x35CD JUMPI PUSH2 0x35CD PUSH2 0x5BF1 JUMP JUMPDEST GT ISZERO PUSH2 0x361B JUMPI PUSH1 0x40 MLOAD PUSH3 0x461BCD PUSH1 0xE5 SHL DUP2 MSTORE PUSH1 0x20 PUSH1 0x4 DUP3 ADD MSTORE PUSH1 0x1F PUSH1 0x24 DUP3 ADD MSTORE PUSH32 0x746869732066696C652073746174652063616E6E6F742076616C696461746500 PUSH1 0x44 DUP3 ADD MSTORE PUSH1 0x64 ADD PUSH2 0x5D2 JUMP JUMPDEST PUSH1 0x40 MLOAD PUSH1 0x20 ADD PUSH2 0x3636 SWAP1 PUSH1 0x20 DUP1 DUP3 MSTORE PUSH1 0x0 SWAP1 DUP3 ADD MSTORE PUSH1 0x40 ADD SWAP1 JUMP JUMPDEST PUSH1 0x40 MLOAD PUSH1 0x20 DUP2 DUP4 SUB SUB DUP2 MSTORE SWAP1 PUSH1 0x40 MSTORE DUP1 MLOAD SWAP1 PUSH1 0x20 ADD KECCAK256 DUP4 PUSH1 0x40 MLOAD PUSH1 0x20 ADD PUSH2 0x365D SWAP2 SWAP1 PUSH2 0x54D9 JUMP JUMPDEST PUSH1 0x40 MLOAD PUSH1 0x20 DUP2 DUP4 SUB SUB DUP2 MSTORE SWAP1 PUSH1 0x40 MSTORE DUP1 MLOAD SWAP1 PUSH1 0x20 ADD KECCAK256 EQ ISZERO PUSH2 0x3695 JUMPI PUSH1 0x0 PUSH1 0x40 MLOAD PUSH4 0x79D3124B PUSH1 0xE0 SHL DUP2 MSTORE PUSH1 0x4 ADD PUSH2 0x5D2 SWAP2 SWAP1 PUSH2 0x556D JUMP JUMPDEST PUSH1 0x3 SLOAD PUSH1 0x40 MLOAD PUSH4 0xB647EEC3 PUSH1 0xE0 SHL DUP2 MSTORE PUSH1 0x4 DUP2 ADD DUP10 SWAP1 MSTORE PUSH1 0x0 SWAP2 PUSH1 0x1 PUSH1 0x1 PUSH1 0xA0 SHL SUB AND SWAP1 PUSH4 0xB647EEC3 SWAP1 PUSH1 0x24 ADD PUSH1 0x0 PUSH1 0x40 MLOAD DUP1 DUP4 SUB DUP2 DUP7 DUP1 EXTCODESIZE ISZERO DUP1 ISZERO PUSH2 0x36DA JUMPI PUSH1 0x0 DUP1 REVERT JUMPDEST POP GAS STATICCALL ISZERO DUP1 ISZERO PUSH2 0x36EE JUMPI RETURNDATASIZE PUSH1 0x0 DUP1 RETURNDATACOPY RETURNDATASIZE PUSH1 0x0 REVERT JUMPDEST POP POP POP POP PUSH1 0x40 MLOAD RETURNDATASIZE PUSH1 0x0 DUP3 RETURNDATACOPY PUSH1 0x1F RETURNDATASIZE SWAP1 DUP2 ADD PUSH1 0x1F NOT AND DUP3 ADD PUSH1 0x40 MSTORE PUSH2 0x3716 SWAP2 SWAP1 DUP2 ADD SWAP1 PUSH2 0x4981 JUMP JUMPDEST SWAP1 POP PUSH1 0x0 DUP1 JUMPDEST DUP3 MLOAD DUP2 LT ISZERO PUSH2 0x3773 JUMPI DUP3 DUP2 DUP2 MLOAD DUP2 LT PUSH2 0x3737 JUMPI PUSH2 0x3737 PUSH2 0x5C07 JUMP JUMPDEST PUSH1 0x20 MUL PUSH1 0x20 ADD ADD MLOAD PUSH1 0x1 PUSH1 0x1 PUSH1 0xA0 SHL SUB AND CALLER PUSH1 0x1 PUSH1 0x1 PUSH1 0xA0 SHL SUB AND EQ ISZERO PUSH2 0x3761 JUMPI PUSH1 0x1 SWAP2 POP PUSH2 0x3773 JUMP JUMPDEST DUP1 PUSH2 0x376B DUP2 PUSH2 0x5BC0 JUMP JUMPDEST SWAP2 POP POP PUSH2 0x371C JUMP JUMPDEST POP DUP1 PUSH2 0x37B9 JUMPI PUSH1 0x40 MLOAD PUSH3 0x461BCD PUSH1 0xE5 SHL DUP2 MSTORE PUSH1 0x20 PUSH1 0x4 DUP3 ADD MSTORE PUSH1 0x15 PUSH1 0x24 DUP3 ADD MSTORE PUSH21 0x1B9BDD081A5B881D995C9A599A595C9CC81B1A5CDD PUSH1 0x5A SHL PUSH1 0x44 DUP3 ADD MSTORE PUSH1 0x64 ADD PUSH2 0x5D2 JUMP JUMPDEST PUSH1 0x4 DUP1 SLOAD PUSH1 0x40 MLOAD PUSH4 0x8DC21CF PUSH1 0xE0 SHL DUP2 MSTORE PUSH1 0x0 SWAP3 PUSH1 0x1 PUSH1 0x1 PUSH1 0xA0 SHL SUB SWAP1 SWAP3 AND SWAP2 PUSH4 0x8DC21CF SWAP2 PUSH2 0x37F7 SWAP2 DUP15 SWAP2 DUP15 SWAP2 CALLER SWAP2 DUP16 SWAP2 DUP16 SWAP2 DUP16 SWAP2 DUP16 SWAP2 ADD PUSH2 0x5915 JUMP JUMPDEST PUSH1 0x20 PUSH1 0x40 MLOAD DUP1 DUP4 SUB DUP2 PUSH1 0x0 DUP8 DUP1 EXTCODESIZE ISZERO DUP1 ISZERO PUSH2 0x3811 JUMPI PUSH1 0x0 DUP1 REVERT JUMPDEST POP GAS CALL ISZERO DUP1 ISZERO PUSH2 0x3825 JUMPI RETURNDATASIZE PUSH1 0x0 DUP1 RETURNDATACOPY RETURNDATASIZE PUSH1 0x0 REVERT JUMPDEST POP POP POP POP PUSH1 0x40 MLOAD RETURNDATASIZE PUSH1 0x1F NOT PUSH1 0x1F DUP3 ADD AND DUP3 ADD DUP1 PUSH1 0x40 MSTORE POP DUP2 ADD SWAP1 PUSH2 0x3849 SWAP2 SWAP1 PUSH2 0x4EFD JUMP JUMPDEST PUSH1 0x2 SLOAD PUSH1 0x40 MLOAD PUSH4 0xF74F3655 PUSH1 0xE0 SHL DUP2 MSTORE PUSH1 0x4 DUP2 ADD DUP4 SWAP1 MSTORE PUSH1 0x46 PUSH1 0x24 DUP3 ADD MSTORE SWAP2 SWAP3 POP PUSH1 0x0 SWAP2 PUSH1 0x1 PUSH1 0x1 PUSH1 0xA0 SHL SUB SWAP1 SWAP2 AND SWAP1 PUSH4 0xF74F3655 SWAP1 PUSH1 0x44 ADD PUSH1 0x20 PUSH1 0x40 MLOAD DUP1 DUP4 SUB DUP2 DUP7 DUP1 EXTCODESIZE ISZERO DUP1 ISZERO PUSH2 0x389A JUMPI PUSH1 0x0 DUP1 REVERT JUMPDEST POP GAS STATICCALL ISZERO DUP1 ISZERO PUSH2 0x38AE JUMPI RETURNDATASIZE PUSH1 0x0 DUP1 RETURNDATACOPY RETURNDATASIZE PUSH1 0x0 REVERT JUMPDEST POP POP POP POP PUSH1 0x40 MLOAD RETURNDATASIZE PUSH1 0x1F NOT PUSH1 0x1F DUP3 ADD AND DUP3 ADD DUP1 PUSH1 0x40 MSTORE POP DUP2 ADD SWAP1 PUSH2 0x38D2 SWAP2 SWAP1 PUSH2 0x4EFD JUMP JUMPDEST PUSH1 0x3 SLOAD PUSH1 0x40 MLOAD PUSH4 0xB7EC117 PUSH1 0xE3 SHL DUP2 MSTORE PUSH1 0x4 DUP2 ADD DUP15 SWAP1 MSTORE SWAP2 SWAP3 POP PUSH1 0x0 SWAP2 PUSH1 0x1 PUSH1 0x1 PUSH1 0xA0 SHL SUB SWAP1 SWAP2 AND SWAP1 PUSH4 0x5BF608B8 SWAP1 PUSH1 0x24 ADD PUSH1 0x20 PUSH1 0x40 MLOAD DUP1 DUP4 SUB DUP2 DUP7 DUP1 EXTCODESIZE ISZERO DUP1 ISZERO PUSH2 0x391C JUMPI PUSH1 0x0 DUP1 REVERT JUMPDEST POP GAS STATICCALL ISZERO DUP1 ISZERO PUSH2 0x3930 JUMPI RETURNDATASIZE PUSH1 0x0 DUP1 RETURNDATACOPY RETURNDATASIZE PUSH1 0x0 REVERT JUMPDEST POP POP POP POP PUSH1 0x40 MLOAD RETURNDATASIZE PUSH1 0x1F NOT PUSH1 0x1F DUP3 ADD AND DUP3 ADD DUP1 PUSH1 0x40 MSTORE POP DUP2 ADD SWAP1 PUSH2 0x3954 SWAP2 SWAP1 PUSH2 0x4915 JUMP JUMPDEST PUSH1 0x5 SLOAD PUSH1 0x40 MLOAD PUSH4 0x6EB1769F PUSH1 0xE1 SHL DUP2 MSTORE PUSH1 0x1 PUSH1 0x1 PUSH1 0xA0 SHL SUB DUP1 DUP5 AND PUSH1 0x4 DUP4 ADD MSTORE ADDRESS PUSH1 0x24 DUP4 ADD MSTORE SWAP3 SWAP4 POP DUP5 SWAP3 SWAP1 SWAP2 AND SWAP1 PUSH4 0xDD62ED3E SWAP1 PUSH1 0x44 ADD PUSH1 0x20 PUSH1 0x40 MLOAD DUP1 DUP4 SUB DUP2 DUP7 DUP1 EXTCODESIZE ISZERO DUP1 ISZERO PUSH2 0x39A4 JUMPI PUSH1 0x0 DUP1 REVERT JUMPDEST POP GAS STATICCALL ISZERO DUP1 ISZERO PUSH2 0x39B8 JUMPI RETURNDATASIZE PUSH1 0x0 DUP1 RETURNDATACOPY RETURNDATASIZE PUSH1 0x0 REVERT JUMPDEST POP POP POP POP PUSH1 0x40 MLOAD RETURNDATASIZE PUSH1 0x1F NOT PUSH1 0x1F DUP3 ADD AND DUP3 ADD DUP1 PUSH1 0x40 MSTORE POP DUP2 ADD SWAP1 PUSH2 0x39DC SWAP2 SWAP1 PUSH2 0x4EFD JUMP JUMPDEST LT ISZERO DUP1 ISZERO PUSH2 0x3A65 JUMPI POP PUSH1 0x5 SLOAD PUSH1 0x40 MLOAD PUSH4 0x70A08231 PUSH1 0xE0 SHL DUP2 MSTORE PUSH1 0x1 PUSH1 0x1 PUSH1 0xA0 SHL SUB DUP4 DUP2 AND PUSH1 0x4 DUP4 ADD MSTORE DUP5 SWAP3 AND SWAP1 PUSH4 0x70A08231 SWAP1 PUSH1 0x24 ADD PUSH1 0x20 PUSH1 0x40 MLOAD DUP1 DUP4 SUB DUP2 DUP7 DUP1 EXTCODESIZE ISZERO DUP1 ISZERO PUSH2 0x3A2A JUMPI PUSH1 0x0 DUP1 REVERT JUMPDEST POP GAS STATICCALL ISZERO DUP1 ISZERO PUSH2 0x3A3E JUMPI RETURNDATASIZE PUSH1 0x0 DUP1 RETURNDATACOPY RETURNDATASIZE PUSH1 0x0 REVERT JUMPDEST POP POP POP POP PUSH1 0x40 MLOAD RETURNDATASIZE PUSH1 0x1F NOT PUSH1 0x1F DUP3 ADD AND DUP3 ADD DUP1 PUSH1 0x40 MSTORE POP DUP2 ADD SWAP1 PUSH2 0x3A62 SWAP2 SWAP1 PUSH2 0x4EFD JUMP JUMPDEST LT ISZERO JUMPDEST PUSH2 0x3A81 JUMPI PUSH1 0x40 MLOAD PUSH3 0x461BCD PUSH1 0xE5 SHL DUP2 MSTORE PUSH1 0x4 ADD PUSH2 0x5D2 SWAP1 PUSH2 0x559F JUMP JUMPDEST DUP3 ISZERO PUSH2 0x2DB8 JUMPI PUSH1 0x5 PUSH1 0x0 SWAP1 SLOAD SWAP1 PUSH2 0x100 EXP SWAP1 DIV PUSH1 0x1 PUSH1 0x1 PUSH1 0xA0 SHL SUB AND PUSH1 0x1 PUSH1 0x1 PUSH1 0xA0 SHL SUB AND PUSH4 0x23B872DD DUP3 DUP14 PUSH1 0x2 PUSH1 0x0 SWAP1 SLOAD SWAP1 PUSH2 0x100 EXP SWAP1 DIV PUSH1 0x1 PUSH1 0x1 PUSH1 0xA0 SHL SUB AND PUSH1 0x1 PUSH1 0x1 PUSH1 0xA0 SHL SUB AND PUSH4 0xAB2ACBA4 DUP9 PUSH1 0x40 MLOAD DUP3 PUSH4 0xFFFFFFFF AND PUSH1 0xE0 SHL DUP2 MSTORE PUSH1 0x4 ADD PUSH2 0x3AF0 SWAP2 DUP2 MSTORE PUSH1 0x20 ADD SWAP1 JUMP JUMPDEST PUSH1 0x20 PUSH1 0x40 MLOAD DUP1 DUP4 SUB DUP2 DUP7 DUP1 EXTCODESIZE ISZERO DUP1 ISZERO PUSH2 0x3B08 JUMPI PUSH1 0x0 DUP1 REVERT JUMPDEST POP GAS STATICCALL ISZERO DUP1 ISZERO PUSH2 0x3B1C JUMPI RETURNDATASIZE PUSH1 0x0 DUP1 RETURNDATACOPY RETURNDATASIZE PUSH1 0x0 REVERT JUMPDEST POP POP POP POP PUSH1 0x40 MLOAD RETURNDATASIZE PUSH1 0x1F NOT PUSH1 0x1F DUP3 ADD AND DUP3 ADD DUP1 PUSH1 0x40 MSTORE POP DUP2 ADD SWAP1 PUSH2 0x3B40 SWAP2 SWAP1 PUSH2 0x4EFD JUMP JUMPDEST PUSH1 0x40 MLOAD DUP5 PUSH4 0xFFFFFFFF AND PUSH1 0xE0 SHL DUP2 MSTORE PUSH1 0x4 ADD PUSH2 0x3B5E SWAP4 SWAP3 SWAP2 SWAP1 PUSH2 0x547E JUMP JUMPDEST PUSH1 0x20 PUSH1 0x40 MLOAD DUP1 DUP4 SUB DUP2 PUSH1 0x0 DUP8 DUP1 EXTCODESIZE ISZERO DUP1 ISZERO PUSH2 0x3B78 JUMPI PUSH1 0x0 DUP1 REVERT JUMPDEST POP GAS CALL ISZERO DUP1 ISZERO PUSH2 0x3B8C JUMPI RETURNDATASIZE PUSH1 0x0 DUP1 RETURNDATACOPY RETURNDATASIZE PUSH1 0x0 REVERT JUMPDEST POP POP POP POP PUSH1 0x40 MLOAD RETURNDATASIZE PUSH1 0x1F NOT PUSH1 0x1F DUP3 ADD AND DUP3 ADD DUP1 PUSH1 0x40 MSTORE POP DUP2 ADD SWAP1 PUSH2 0x3BB0 SWAP2 SWAP1 PUSH2 0x49E9 JUMP JUMPDEST POP PUSH1 0x5 SLOAD PUSH1 0x7 SLOAD PUSH1 0x2 SLOAD PUSH1 0x40 MLOAD PUSH4 0xA16EB4D3 PUSH1 0xE0 SHL DUP2 MSTORE PUSH1 0x4 DUP2 ADD DUP8 SWAP1 MSTORE PUSH1 0x1 PUSH1 0x1 PUSH1 0xA0 SHL SUB SWAP4 DUP5 AND SWAP4 PUSH4 0x23B872DD SWAP4 DUP7 SWAP4 SWAP1 DUP3 AND SWAP3 SWAP2 AND SWAP1 PUSH4 0xA16EB4D3 SWAP1 PUSH1 0x24 ADD PUSH1 0x20 PUSH1 0x40 MLOAD DUP1 DUP4 SUB DUP2 DUP7 DUP1 EXTCODESIZE ISZERO DUP1 ISZERO PUSH2 0x3C0A JUMPI PUSH1 0x0 DUP1 REVERT JUMPDEST POP GAS STATICCALL ISZERO DUP1 ISZERO PUSH2 0x3C1E JUMPI RETURNDATASIZE PUSH1 0x0 DUP1 RETURNDATACOPY RETURNDATASIZE PUSH1 0x0 REVERT JUMPDEST POP POP POP POP PUSH1 0x40 MLOAD RETURNDATASIZE PUSH1 0x1F NOT PUSH1 0x1F DUP3 ADD AND DUP3 ADD DUP1 PUSH1 0x40 MSTORE POP DUP2 ADD SWAP1 PUSH2 0x3C42 SWAP2 SWAP1 PUSH2 0x4EFD JUMP JUMPDEST PUSH1 0x40 MLOAD DUP5 PUSH4 0xFFFFFFFF AND PUSH1 0xE0 SHL DUP2 MSTORE PUSH1 0x4 ADD PUSH2 0x3C60 SWAP4 SWAP3 SWAP2 SWAP1 PUSH2 0x547E JUMP JUMPDEST PUSH1 0x20 PUSH1 0x40 MLOAD DUP1 DUP4 SUB DUP2 PUSH1 0x0 DUP8 DUP1 EXTCODESIZE ISZERO DUP1 ISZERO PUSH2 0x3C7A JUMPI PUSH1 0x0 DUP1 REVERT JUMPDEST POP GAS CALL ISZERO DUP1 ISZERO PUSH2 0x3C8E JUMPI RETURNDATASIZE PUSH1 0x0 DUP1 RETURNDATACOPY RETURNDATASIZE PUSH1 0x0 REVERT JUMPDEST POP POP POP POP PUSH1 0x40 MLOAD RETURNDATASIZE PUSH1 0x1F NOT PUSH1 0x1F DUP3 ADD AND DUP3 ADD DUP1 PUSH1 0x40 MSTORE POP DUP2 ADD SWAP1 PUSH2 0x3CB2 SWAP2 SWAP1 PUSH2 0x49E9 JUMP JUMPDEST POP POP POP POP POP POP POP POP POP POP POP POP POP JUMP JUMPDEST PUSH2 0x3CC9 PUSH2 0x403C JUMP JUMPDEST PUSH1 0x1 PUSH1 0x1 PUSH1 0xA0 SHL SUB DUP2 AND PUSH2 0x3D2E JUMPI PUSH1 0x40 MLOAD PUSH3 0x461BCD PUSH1 0xE5 SHL DUP2 MSTORE PUSH1 0x20 PUSH1 0x4 DUP3 ADD MSTORE PUSH1 0x26 PUSH1 0x24 DUP3 ADD MSTORE PUSH32 0x4F776E61626C653A206E6577206F776E657220697320746865207A65726F2061 PUSH1 0x44 DUP3 ADD MSTORE PUSH6 0x646472657373 PUSH1 0xD0 SHL PUSH1 0x64 DUP3 ADD MSTORE PUSH1 0x84 ADD PUSH2 0x5D2 JUMP JUMPDEST PUSH2 0x3D37 DUP2 PUSH2 0x4131 JUMP JUMPDEST POP JUMP JUMPDEST PUSH2 0x3D43 CALLER PUSH2 0x4096 JUMP JUMPDEST PUSH2 0x3D60 JUMPI PUSH1 0x40 MLOAD PUSH4 0x934F2C3 PUSH1 0xE0 SHL DUP2 MSTORE PUSH1 0x4 ADD PUSH2 0x5D2 SWAP1 PUSH2 0x5518 JUMP JUMPDEST PUSH1 0x3 SLOAD PUSH1 0x40 DUP1 MLOAD PUSH4 0x2A1F650B PUSH1 0xE2 SHL DUP2 MSTORE SWAP1 MLOAD DUP5 SWAP3 PUSH1 0x1 PUSH1 0x1 PUSH1 0xA0 SHL SUB AND SWAP2 PUSH4 0xA87D942C SWAP2 PUSH1 0x4 DUP1 DUP4 ADD SWAP3 PUSH1 0x20 SWAP3 SWAP2 SWAP1 DUP3 SWAP1 SUB ADD DUP2 DUP7 DUP1 EXTCODESIZE ISZERO DUP1 ISZERO PUSH2 0x3DA4 JUMPI PUSH1 0x0 DUP1 REVERT JUMPDEST POP GAS STATICCALL ISZERO DUP1 ISZERO PUSH2 0x3DB8 JUMPI RETURNDATASIZE PUSH1 0x0 DUP1 RETURNDATACOPY RETURNDATASIZE PUSH1 0x0 REVERT JUMPDEST POP POP POP POP PUSH1 0x40 MLOAD RETURNDATASIZE PUSH1 0x1F NOT PUSH1 0x1F DUP3 ADD AND DUP3 ADD DUP1 PUSH1 0x40 MSTORE POP DUP2 ADD SWAP1 PUSH2 0x3DDC SWAP2 SWAP1 PUSH2 0x4EFD JUMP JUMPDEST DUP2 GT ISZERO PUSH2 0x3DFC JUMPI PUSH1 0x40 MLOAD PUSH4 0x347626DD PUSH1 0xE2 SHL DUP2 MSTORE PUSH1 0x4 ADD PUSH2 0x5D2 SWAP1 PUSH2 0x54EC JUMP JUMPDEST PUSH1 0x3 SLOAD PUSH1 0x40 MLOAD PUSH4 0xD3D7BC3B PUSH1 0xE0 SHL DUP2 MSTORE CALLER PUSH1 0x4 DUP3 ADD DUP2 SWAP1 MSTORE SWAP2 PUSH1 0x0 SWAP2 PUSH1 0x1 PUSH1 0x1 PUSH1 0xA0 SHL SUB SWAP1 SWAP2 AND SWAP1 PUSH4 0xD3D7BC3B SWAP1 PUSH1 0x24 ADD PUSH1 0x20 PUSH1 0x40 MLOAD DUP1 DUP4 SUB DUP2 DUP7 DUP1 EXTCODESIZE ISZERO DUP1 ISZERO PUSH2 0x3E45 JUMPI PUSH1 0x0 DUP1 REVERT JUMPDEST POP GAS STATICCALL ISZERO DUP1 ISZERO PUSH2 0x3E59 JUMPI RETURNDATASIZE PUSH1 0x0 DUP1 RETURNDATACOPY RETURNDATASIZE PUSH1 0x0 REVERT JUMPDEST POP POP POP POP PUSH1 0x40 MLOAD RETURNDATASIZE PUSH1 0x1F NOT PUSH1 0x1F DUP3 ADD AND DUP3 ADD DUP1 PUSH1 0x40 MSTORE POP DUP2 ADD SWAP1 PUSH2 0x3E7D SWAP2 SWAP1 PUSH2 0x4EFD JUMP JUMPDEST SWAP1 POP DUP1 ISZERO PUSH2 0x3E9E JUMPI PUSH1 0x40 MLOAD PUSH4 0x934F2C3 PUSH1 0xE0 SHL DUP2 MSTORE PUSH1 0x4 ADD PUSH2 0x5D2 SWAP1 PUSH2 0x5544 JUMP JUMPDEST PUSH1 0x3 SLOAD PUSH1 0x40 MLOAD PUSH4 0x9722F099 PUSH1 0xE0 SHL DUP2 MSTORE PUSH1 0x4 DUP2 ADD DUP8 SWAP1 MSTORE PUSH1 0x1 PUSH1 0x1 PUSH1 0xA0 SHL SUB SWAP1 SWAP2 AND SWAP1 PUSH4 0x9722F099 SWAP1 PUSH1 0x24 ADD PUSH1 0x20 PUSH1 0x40 MLOAD DUP1 DUP4 SUB DUP2 DUP7 DUP1 EXTCODESIZE ISZERO DUP1 ISZERO PUSH2 0x3EE2 JUMPI PUSH1 0x0 DUP1 REVERT JUMPDEST POP GAS STATICCALL ISZERO DUP1 ISZERO PUSH2 0x3EF6 JUMPI RETURNDATASIZE PUSH1 0x0 DUP1 RETURNDATACOPY RETURNDATASIZE PUSH1 0x0 REVERT JUMPDEST POP POP POP POP PUSH1 0x40 MLOAD RETURNDATASIZE PUSH1 0x1F NOT PUSH1 0x1F DUP3 ADD AND DUP3 ADD DUP1 PUSH1 0x40 MSTORE POP DUP2 ADD SWAP1 PUSH2 0x3F1A SWAP2 SWAP1 PUSH2 0x49E9 JUMP JUMPDEST PUSH2 0x3F5F JUMPI PUSH1 0x40 MLOAD PUSH3 0x461BCD PUSH1 0xE5 SHL DUP2 MSTORE PUSH1 0x20 PUSH1 0x4 DUP3 ADD MSTORE PUSH1 0x16 PUSH1 0x24 DUP3 ADD MSTORE PUSH22 0x6163636570742061637469766520697320636C6F7365 PUSH1 0x50 SHL PUSH1 0x44 DUP3 ADD MSTORE PUSH1 0x64 ADD PUSH2 0x5D2 JUMP JUMPDEST PUSH1 0x4 DUP1 SLOAD PUSH1 0x40 MLOAD PUSH4 0x4AA86DED PUSH1 0xE0 SHL DUP2 MSTORE PUSH1 0x1 PUSH1 0x1 PUSH1 0xA0 SHL SUB SWAP1 SWAP2 AND SWAP2 PUSH4 0x4AA86DED SWAP2 PUSH2 0x13BA SWAP2 DUP10 SWAP2 DUP10 SWAP2 CALLER SWAP2 ADD PUSH2 0x5976 JUMP JUMPDEST PUSH2 0x3F9A PUSH2 0x403C JUMP JUMPDEST PUSH1 0x3 DUP1 SLOAD PUSH1 0x1 PUSH1 0x1 PUSH1 0xA0 SHL SUB NOT AND PUSH1 0x1 PUSH1 0x1 PUSH1 0xA0 SHL SUB SWAP3 SWAP1 SWAP3 AND SWAP2 SWAP1 SWAP2 OR SWAP1 SSTORE JUMP JUMPDEST PUSH1 0x3 SLOAD PUSH1 0x40 MLOAD PUSH1 0x1 PUSH3 0x198C45 PUSH1 0xE1 SHL SUB NOT DUP2 MSTORE PUSH1 0x4 DUP2 ADD DUP4 SWAP1 MSTORE PUSH1 0x0 SWAP2 PUSH1 0x1 PUSH1 0x1 PUSH1 0xA0 SHL SUB AND SWAP1 PUSH4 0xFFCCE776 SWAP1 PUSH1 0x24 ADD PUSH1 0x20 PUSH1 0x40 MLOAD DUP1 DUP4 SUB DUP2 DUP7 DUP1 EXTCODESIZE ISZERO DUP1 ISZERO PUSH2 0x4004 JUMPI PUSH1 0x0 DUP1 REVERT JUMPDEST POP GAS STATICCALL ISZERO DUP1 ISZERO PUSH2 0x4018 JUMPI RETURNDATASIZE PUSH1 0x0 DUP1 RETURNDATACOPY RETURNDATASIZE PUSH1 0x0 REVERT JUMPDEST POP POP POP POP PUSH1 0x40 MLOAD RETURNDATASIZE PUSH1 0x1F NOT PUSH1 0x1F DUP3 ADD AND DUP3 ADD DUP1 PUSH1 0x40 MSTORE POP DUP2 ADD SWAP1 PUSH2 0x530 SWAP2 SWAP1 PUSH2 0x4A69 JUMP JUMPDEST PUSH1 0x0 SLOAD PUSH1 0x1 PUSH1 0x1 PUSH1 0xA0 SHL SUB AND CALLER EQ PUSH2 0x1850 JUMPI PUSH1 0x40 MLOAD PUSH3 0x461BCD PUSH1 0xE5 SHL DUP2 MSTORE PUSH1 0x20 PUSH1 0x4 DUP3 ADD DUP2 SWAP1 MSTORE PUSH1 0x24 DUP3 ADD MSTORE PUSH32 0x4F776E61626C653A2063616C6C6572206973206E6F7420746865206F776E6572 PUSH1 0x44 DUP3 ADD MSTORE PUSH1 0x64 ADD PUSH2 0x5D2 JUMP JUMPDEST PUSH1 0x1 SLOAD PUSH1 0x40 MLOAD PUSH3 0x438B63 PUSH1 0xE8 SHL DUP2 MSTORE PUSH1 0x1 PUSH1 0x1 PUSH1 0xA0 SHL SUB DUP4 DUP2 AND PUSH1 0x4 DUP4 ADD MSTORE PUSH1 0x0 SWAP3 DUP4 SWAP3 SWAP2 AND SWAP1 PUSH4 0x438B6300 SWAP1 PUSH1 0x24 ADD PUSH1 0x0 PUSH1 0x40 MLOAD DUP1 DUP4 SUB DUP2 DUP7 DUP1 EXTCODESIZE ISZERO DUP1 ISZERO PUSH2 0x40DE JUMPI PUSH1 0x0 DUP1 REVERT JUMPDEST POP GAS STATICCALL ISZERO DUP1 ISZERO PUSH2 0x40F2 JUMPI RETURNDATASIZE PUSH1 0x0 DUP1 RETURNDATACOPY RETURNDATASIZE PUSH1 0x0 REVERT JUMPDEST POP POP POP POP PUSH1 0x40 MLOAD RETURNDATASIZE PUSH1 0x0 DUP3 RETURNDATACOPY PUSH1 0x1F RETURNDATASIZE SWAP1 DUP2 ADD PUSH1 0x1F NOT AND DUP3 ADD PUSH1 0x40 MSTORE PUSH2 0x411A SWAP2 SWAP1 DUP2 ADD SWAP1 PUSH2 0x49B5 JUMP JUMPDEST MLOAD GT ISZERO PUSH2 0x4129 JUMPI POP PUSH1 0x1 SWAP2 SWAP1 POP JUMP JUMPDEST POP PUSH1 0x0 SWAP2 SWAP1 POP JUMP JUMPDEST PUSH1 0x0 DUP1 SLOAD PUSH1 0x1 PUSH1 0x1 PUSH1 0xA0 SHL SUB DUP4 DUP2 AND PUSH1 0x1 PUSH1 0x1 PUSH1 0xA0 SHL SUB NOT DUP4 AND DUP2 OR DUP5 SSTORE PUSH1 0x40 MLOAD SWAP2 SWAP1 SWAP3 AND SWAP3 DUP4 SWAP2 PUSH32 0x8BE0079C531659141344CD1FD0A4F28419497F9722A3DAAFE3B4186F6B6457E0 SWAP2 SWAP1 LOG3 POP POP JUMP JUMPDEST PUSH1 0x40 MLOAD DUP1 PUSH1 0x60 ADD PUSH1 0x40 MSTORE DUP1 PUSH2 0x4194 PUSH2 0x41A8 JUMP JUMPDEST DUP2 MSTORE PUSH1 0x20 ADD PUSH1 0x60 DUP2 MSTORE PUSH1 0x20 ADD PUSH1 0x60 DUP2 MSTORE POP SWAP1 JUMP JUMPDEST PUSH1 0x40 MLOAD DUP1 PUSH2 0x2E0 ADD PUSH1 0x40 MSTORE DUP1 PUSH1 0x0 PUSH1 0x1 PUSH1 0x1 PUSH1 0xA0 SHL SUB AND DUP2 MSTORE PUSH1 0x20 ADD PUSH1 0x0 DUP2 MSTORE PUSH1 0x20 ADD PUSH1 0x60 DUP2 MSTORE PUSH1 0x20 ADD PUSH1 0x60 DUP2 MSTORE PUSH1 0x20 ADD PUSH1 0x0 DUP2 MSTORE PUSH1 0x20 ADD PUSH1 0x0 DUP2 MSTORE PUSH1 0x20 ADD PUSH1 0x0 DUP2 MSTORE PUSH1 0x20 ADD PUSH1 0x60 DUP2 MSTORE PUSH1 0x20 ADD PUSH1 0x0 DUP2 MSTORE PUSH1 0x20 ADD PUSH1 0x0 DUP2 MSTORE PUSH1 0x20 ADD PUSH1 0x0 ISZERO ISZERO DUP2 MSTORE PUSH1 0x20 ADD PUSH1 0x0 ISZERO ISZERO DUP2 MSTORE PUSH1 0x20 ADD PUSH1 0x0 DUP2 MSTORE PUSH1 0x20 ADD PUSH1 0x60 DUP2 MSTORE PUSH1 0x20 ADD PUSH1 0x60 DUP2 MSTORE PUSH1 0x20 ADD PUSH1 0x60 DUP2 MSTORE PUSH1 0x20 ADD PUSH1 0x0 DUP2 MSTORE PUSH1 0x20 ADD PUSH1 0x0 DUP2 MSTORE PUSH1 0x20 ADD PUSH1 0x0 DUP2 MSTORE PUSH1 0x20 ADD PUSH1 0x0 DUP2 MSTORE PUSH1 0x20 ADD PUSH1 0x0 ISZERO ISZERO DUP2 MSTORE PUSH1 0x20 ADD PUSH1 0x0 ISZERO ISZERO DUP2 MSTORE PUSH1 0x20 ADD PUSH1 0x0 PUSH1 0x7 DUP2 GT ISZERO PUSH2 0x4272 JUMPI PUSH2 0x4272 PUSH2 0x5BF1 JUMP JUMPDEST SWAP1 MSTORE SWAP1 JUMP JUMPDEST DUP1 MLOAD PUSH2 0x4282 DUP2 PUSH2 0x5C33 JUMP JUMPDEST SWAP2 SWAP1 POP JUMP JUMPDEST PUSH1 0x0 DUP3 PUSH1 0x1F DUP4 ADD SLT PUSH2 0x4298 JUMPI PUSH1 0x0 DUP1 REVERT JUMPDEST DUP2 MLOAD PUSH1 0x20 PUSH2 0x42AD PUSH2 0x42A8 DUP4 PUSH2 0x5B2E JUMP JUMPDEST PUSH2 0x5AFE JUMP JUMPDEST DUP1 DUP4 DUP3 MSTORE DUP3 DUP3 ADD SWAP2 POP DUP3 DUP7 ADD DUP8 DUP5 DUP7 PUSH1 0x5 SHL DUP10 ADD ADD GT ISZERO PUSH2 0x42CD JUMPI PUSH1 0x0 DUP1 REVERT JUMPDEST PUSH1 0x0 JUMPDEST DUP6 DUP2 LT ISZERO PUSH2 0x42F5 JUMPI DUP2 MLOAD PUSH2 0x42E3 DUP2 PUSH2 0x5C33 JUMP JUMPDEST DUP5 MSTORE SWAP3 DUP5 ADD SWAP3 SWAP1 DUP5 ADD SWAP1 PUSH1 0x1 ADD PUSH2 0x42D0 JUMP JUMPDEST POP SWAP1 SWAP8 SWAP7 POP POP POP POP POP POP POP JUMP JUMPDEST PUSH1 0x0 DUP3 PUSH1 0x1F DUP4 ADD SLT PUSH2 0x4313 JUMPI PUSH1 0x0 DUP1 REVERT JUMPDEST PUSH1 0x20 PUSH2 0x4322 PUSH2 0x42A8 DUP5 CALLDATALOAD PUSH2 0x5B2E JUMP JUMPDEST DUP1 DUP5 CALLDATALOAD DUP3 MSTORE DUP3 DUP3 ADD SWAP2 POP DUP3 DUP6 ADD DUP7 DUP5 DUP8 CALLDATALOAD PUSH1 0x5 SHL DUP9 ADD ADD GT ISZERO PUSH2 0x4344 JUMPI PUSH1 0x0 DUP1 REVERT JUMPDEST PUSH1 0x0 JUMPDEST DUP7 CALLDATALOAD DUP2 LT ISZERO PUSH2 0x4493 JUMPI PUSH1 0x1 PUSH1 0x1 PUSH1 0x40 SHL SUB DUP1 DUP4 CALLDATALOAD GT ISZERO PUSH2 0x4366 JUMPI PUSH1 0x0 DUP1 REVERT JUMPDEST DUP3 CALLDATALOAD DUP9 ADD PUSH1 0x1F NOT PUSH1 0xA0 DUP3 DUP13 SUB DUP3 ADD SLT ISZERO PUSH2 0x437F JUMPI PUSH1 0x0 DUP1 REVERT JUMPDEST PUSH2 0x4387 PUSH2 0x5A4C JUMP JUMPDEST DUP9 DUP4 ADD CALLDATALOAD DUP5 DUP2 GT ISZERO PUSH2 0x4398 JUMPI PUSH1 0x0 DUP1 REVERT JUMPDEST DUP4 ADD PUSH1 0xE0 DUP2 DUP15 SUB DUP5 ADD SLT ISZERO PUSH2 0x43AC JUMPI PUSH1 0x0 DUP1 REVERT JUMPDEST PUSH2 0x43B4 PUSH2 0x5A74 JUMP JUMPDEST SWAP3 POP DUP10 DUP2 ADD CALLDATALOAD DUP6 DUP2 GT ISZERO PUSH2 0x43C7 JUMPI PUSH1 0x0 DUP1 REVERT JUMPDEST PUSH2 0x43D5 DUP15 DUP13 DUP4 DUP6 ADD ADD PUSH2 0x4735 JUMP JUMPDEST DUP5 MSTORE POP PUSH1 0x40 DUP2 ADD CALLDATALOAD DUP11 DUP5 ADD MSTORE PUSH1 0x60 DUP2 ADD CALLDATALOAD PUSH1 0x40 DUP5 ADD MSTORE PUSH1 0x80 DUP2 ADD CALLDATALOAD PUSH1 0x60 DUP5 ADD MSTORE PUSH1 0xA0 DUP2 ADD CALLDATALOAD PUSH1 0x80 DUP5 ADD MSTORE PUSH1 0xC0 DUP2 ADD CALLDATALOAD PUSH1 0xA0 DUP5 ADD MSTORE PUSH1 0xE0 DUP2 ADD CALLDATALOAD DUP6 DUP2 GT ISZERO PUSH2 0x441B JUMPI PUSH1 0x0 DUP1 REVERT JUMPDEST PUSH2 0x4429 DUP15 DUP13 DUP4 DUP6 ADD ADD PUSH2 0x4735 JUMP JUMPDEST PUSH1 0xC0 DUP6 ADD MSTORE POP POP SWAP1 DUP2 MSTORE PUSH1 0x40 DUP3 ADD CALLDATALOAD DUP9 DUP3 ADD MSTORE PUSH1 0x60 DUP3 ADD CALLDATALOAD SWAP1 DUP4 DUP3 GT ISZERO PUSH2 0x444F JUMPI PUSH1 0x0 DUP1 REVERT JUMPDEST PUSH2 0x445D DUP13 DUP11 DUP5 DUP7 ADD ADD PUSH2 0x4735 JUMP JUMPDEST PUSH1 0x40 DUP3 ADD MSTORE PUSH2 0x446E PUSH1 0x80 DUP5 ADD PUSH2 0x4710 JUMP JUMPDEST PUSH1 0x60 DUP3 ADD MSTORE PUSH1 0xA0 SWAP3 SWAP1 SWAP3 ADD CALLDATALOAD PUSH1 0x80 DUP4 ADD MSTORE POP DUP6 MSTORE POP SWAP3 DUP5 ADD SWAP3 SWAP1 DUP5 ADD SWAP1 PUSH1 0x1 ADD PUSH2 0x4347 JUMP JUMPDEST POP SWAP1 SWAP7 SWAP6 POP POP POP POP POP POP JUMP JUMPDEST PUSH1 0x0 DUP3 PUSH1 0x1F DUP4 ADD SLT PUSH2 0x44B0 JUMPI PUSH1 0x0 DUP1 REVERT JUMPDEST DUP2 MLOAD PUSH2 0x44BE PUSH2 0x42A8 DUP3 PUSH2 0x5B2E JUMP JUMPDEST DUP1 DUP3 DUP3 MSTORE PUSH1 0x20 DUP3 ADD SWAP2 POP PUSH1 0x20 DUP6 ADD DUP7 PUSH1 0x20 DUP6 PUSH1 0x5 SHL DUP9 ADD ADD GT ISZERO PUSH2 0x44E1 JUMPI PUSH1 0x0 DUP1 REVERT JUMPDEST PUSH1 0x0 JUMPDEST DUP5 DUP2 LT ISZERO PUSH2 0x4493 JUMPI DUP2 MLOAD PUSH1 0x1 PUSH1 0x1 PUSH1 0x40 SHL SUB DUP1 DUP3 GT ISZERO PUSH2 0x4503 JUMPI PUSH1 0x0 DUP1 REVERT JUMPDEST SWAP1 DUP9 ADD SWAP1 PUSH1 0x1F NOT PUSH1 0xA0 DUP4 DUP13 SUB DUP3 ADD SLT ISZERO PUSH2 0x451C JUMPI PUSH1 0x0 DUP1 REVERT JUMPDEST PUSH2 0x4524 PUSH2 0x5A4C JUMP JUMPDEST PUSH1 0x20 DUP5 ADD MLOAD DUP4 DUP2 GT ISZERO PUSH2 0x4536 JUMPI PUSH1 0x0 DUP1 REVERT JUMPDEST DUP5 ADD PUSH1 0xE0 DUP2 DUP15 SUB DUP5 ADD SLT ISZERO PUSH2 0x454A JUMPI PUSH1 0x0 DUP1 REVERT JUMPDEST PUSH2 0x4552 PUSH2 0x5A74 JUMP JUMPDEST SWAP3 POP PUSH1 0x20 DUP2 ADD MLOAD DUP5 DUP2 GT ISZERO PUSH2 0x4566 JUMPI PUSH1 0x0 DUP1 REVERT JUMPDEST PUSH2 0x4575 DUP15 PUSH1 0x20 DUP4 DUP6 ADD ADD PUSH2 0x4786 JUMP JUMPDEST DUP5 MSTORE POP PUSH1 0x40 DUP2 ADD MLOAD PUSH1 0x20 DUP5 ADD MSTORE PUSH1 0x60 DUP2 ADD MLOAD PUSH1 0x40 DUP5 ADD MSTORE PUSH1 0x80 DUP2 ADD MLOAD PUSH1 0x60 DUP5 ADD MSTORE PUSH1 0xA0 DUP2 ADD MLOAD PUSH1 0x80 DUP5 ADD MSTORE PUSH1 0xC0 DUP2 ADD MLOAD PUSH1 0xA0 DUP5 ADD MSTORE PUSH1 0xE0 DUP2 ADD MLOAD DUP5 DUP2 GT ISZERO PUSH2 0x45BC JUMPI PUSH1 0x0 DUP1 REVERT JUMPDEST PUSH2 0x45CB DUP15 PUSH1 0x20 DUP4 DUP6 ADD ADD PUSH2 0x4786 JUMP JUMPDEST PUSH1 0xC0 DUP6 ADD MSTORE POP POP SWAP1 DUP2 MSTORE PUSH1 0x40 DUP4 ADD MLOAD PUSH1 0x20 DUP3 ADD MSTORE PUSH1 0x60 DUP4 ADD MLOAD SWAP1 DUP3 DUP3 GT ISZERO PUSH2 0x45F2 JUMPI PUSH1 0x0 DUP1 REVERT JUMPDEST PUSH2 0x4601 DUP13 PUSH1 0x20 DUP5 DUP8 ADD ADD PUSH2 0x4786 JUMP JUMPDEST PUSH1 0x40 DUP3 ADD MSTORE PUSH2 0x4612 PUSH1 0x80 DUP6 ADD PUSH2 0x471B JUMP JUMPDEST PUSH1 0x60 DUP3 ADD MSTORE PUSH1 0xA0 SWAP4 SWAP1 SWAP4 ADD MLOAD PUSH1 0x80 DUP5 ADD MSTORE POP POP DUP5 MSTORE PUSH1 0x20 SWAP4 DUP5 ADD SWAP4 SWAP2 SWAP1 SWAP2 ADD SWAP1 PUSH1 0x1 ADD PUSH2 0x44E4 JUMP JUMPDEST PUSH1 0x0 DUP3 PUSH1 0x1F DUP4 ADD SLT PUSH2 0x464B JUMPI PUSH1 0x0 DUP1 REVERT JUMPDEST DUP2 CALLDATALOAD PUSH1 0x20 PUSH2 0x465B PUSH2 0x42A8 DUP4 PUSH2 0x5B2E JUMP JUMPDEST DUP1 DUP4 DUP3 MSTORE DUP3 DUP3 ADD SWAP2 POP DUP3 DUP7 ADD DUP8 DUP5 DUP7 PUSH1 0x5 SHL DUP10 ADD ADD GT ISZERO PUSH2 0x467B JUMPI PUSH1 0x0 DUP1 REVERT JUMPDEST PUSH1 0x0 JUMPDEST DUP6 DUP2 LT ISZERO PUSH2 0x42F5 JUMPI DUP2 CALLDATALOAD DUP5 MSTORE SWAP3 DUP5 ADD SWAP3 SWAP1 DUP5 ADD SWAP1 PUSH1 0x1 ADD PUSH2 0x467E JUMP JUMPDEST PUSH1 0x0 DUP3 PUSH1 0x1F DUP4 ADD SLT PUSH2 0x46AB JUMPI PUSH1 0x0 DUP1 REVERT JUMPDEST DUP2 MLOAD PUSH1 0x20 PUSH2 0x46BB PUSH2 0x42A8 DUP4 PUSH2 0x5B2E JUMP JUMPDEST DUP1 DUP4 DUP3 MSTORE DUP3 DUP3 ADD SWAP2 POP DUP3 DUP7 ADD DUP8 DUP5 DUP7 PUSH1 0x5 SHL DUP10 ADD ADD GT ISZERO PUSH2 0x46DB JUMPI PUSH1 0x0 DUP1 REVERT JUMPDEST PUSH1 0x0 JUMPDEST DUP6 DUP2 LT ISZERO PUSH2 0x42F5 JUMPI DUP2 MLOAD DUP5 MSTORE SWAP3 DUP5 ADD SWAP3 SWAP1 DUP5 ADD SWAP1 PUSH1 0x1 ADD PUSH2 0x46DE JUMP JUMPDEST DUP1 CALLDATALOAD PUSH2 0x4282 DUP2 PUSH2 0x5C48 JUMP JUMPDEST DUP1 MLOAD PUSH2 0x4282 DUP2 PUSH2 0x5C48 JUMP JUMPDEST DUP1 CALLDATALOAD PUSH2 0x4282 DUP2 PUSH2 0x5C56 JUMP JUMPDEST DUP1 MLOAD PUSH2 0x4282 DUP2 PUSH2 0x5C56 JUMP JUMPDEST DUP1 MLOAD PUSH1 0x8 DUP2 LT PUSH2 0x4282 JUMPI PUSH1 0x0 DUP1 REVERT JUMPDEST PUSH1 0x0 DUP3 PUSH1 0x1F DUP4 ADD SLT PUSH2 0x4746 JUMPI PUSH1 0x0 DUP1 REVERT JUMPDEST DUP2 CALLDATALOAD PUSH2 0x4754 PUSH2 0x42A8 DUP3 PUSH2 0x5B51 JUMP JUMPDEST DUP2 DUP2 MSTORE DUP5 PUSH1 0x20 DUP4 DUP7 ADD ADD GT ISZERO PUSH2 0x4769 JUMPI PUSH1 0x0 DUP1 REVERT JUMPDEST DUP2 PUSH1 0x20 DUP6 ADD PUSH1 0x20 DUP4 ADD CALLDATACOPY PUSH1 0x0 SWAP2 DUP2 ADD PUSH1 0x20 ADD SWAP2 SWAP1 SWAP2 MSTORE SWAP4 SWAP3 POP POP POP JUMP JUMPDEST PUSH1 0x0 DUP3 PUSH1 0x1F DUP4 ADD SLT PUSH2 0x4797 JUMPI PUSH1 0x0 DUP1 REVERT JUMPDEST DUP2 MLOAD PUSH2 0x47A5 PUSH2 0x42A8 DUP3 PUSH2 0x5B51 JUMP JUMPDEST DUP2 DUP2 MSTORE DUP5 PUSH1 0x20 DUP4 DUP7 ADD ADD GT ISZERO PUSH2 0x47BA JUMPI PUSH1 0x0 DUP1 REVERT JUMPDEST PUSH2 0x2085 DUP3 PUSH1 0x20 DUP4 ADD PUSH1 0x20 DUP8 ADD PUSH2 0x5B90 JUMP JUMPDEST PUSH1 0x0 PUSH2 0x1A0 DUP3 DUP5 SUB SLT ISZERO PUSH2 0x47DE JUMPI PUSH1 0x0 DUP1 REVERT JUMPDEST PUSH2 0x47E6 PUSH2 0x5A96 JUMP JUMPDEST SWAP1 POP DUP2 CALLDATALOAD DUP2 MSTORE PUSH1 0x20 DUP3 ADD CALLDATALOAD PUSH1 0x1 PUSH1 0x1 PUSH1 0x40 SHL SUB DUP1 DUP3 GT ISZERO PUSH2 0x4806 JUMPI PUSH1 0x0 DUP1 REVERT JUMPDEST PUSH2 0x4812 DUP6 DUP4 DUP7 ADD PUSH2 0x4735 JUMP JUMPDEST PUSH1 0x20 DUP5 ADD MSTORE PUSH1 0x40 DUP5 ADD CALLDATALOAD SWAP2 POP DUP1 DUP3 GT ISZERO PUSH2 0x482B JUMPI PUSH1 0x0 DUP1 REVERT JUMPDEST PUSH2 0x4837 DUP6 DUP4 DUP7 ADD PUSH2 0x4735 JUMP JUMPDEST PUSH1 0x40 DUP5 ADD MSTORE PUSH1 0x60 DUP5 ADD CALLDATALOAD PUSH1 0x60 DUP5 ADD MSTORE PUSH1 0x80 DUP5 ADD CALLDATALOAD PUSH1 0x80 DUP5 ADD MSTORE PUSH1 0xA0 DUP5 ADD CALLDATALOAD PUSH1 0xA0 DUP5 ADD MSTORE PUSH1 0xC0 DUP5 ADD CALLDATALOAD SWAP2 POP DUP1 DUP3 GT ISZERO PUSH2 0x486E JUMPI PUSH1 0x0 DUP1 REVERT JUMPDEST PUSH2 0x487A DUP6 DUP4 DUP7 ADD PUSH2 0x463A JUMP JUMPDEST PUSH1 0xC0 DUP5 ADD MSTORE PUSH1 0xE0 DUP5 DUP2 ADD CALLDATALOAD SWAP1 DUP5 ADD MSTORE PUSH2 0x100 DUP1 DUP6 ADD CALLDATALOAD SWAP1 DUP5 ADD MSTORE PUSH2 0x120 SWAP2 POP PUSH2 0x48A4 DUP3 DUP6 ADD PUSH2 0x46FA JUMP JUMPDEST DUP3 DUP5 ADD MSTORE PUSH2 0x140 SWAP2 POP PUSH2 0x48B8 DUP3 DUP6 ADD PUSH2 0x46FA JUMP JUMPDEST DUP3 DUP5 ADD MSTORE PUSH2 0x160 SWAP2 POP DUP2 DUP5 ADD CALLDATALOAD DUP3 DUP5 ADD MSTORE PUSH2 0x180 SWAP2 POP DUP2 DUP5 ADD CALLDATALOAD DUP2 DUP2 GT ISZERO PUSH2 0x48DF JUMPI PUSH1 0x0 DUP1 REVERT JUMPDEST PUSH2 0x48EB DUP7 DUP3 DUP8 ADD PUSH2 0x4302 JUMP JUMPDEST DUP4 DUP6 ADD MSTORE POP POP POP SWAP3 SWAP2 POP POP JUMP JUMPDEST PUSH1 0x0 PUSH1 0x20 DUP3 DUP5 SUB SLT ISZERO PUSH2 0x490A JUMPI PUSH1 0x0 DUP1 REVERT JUMPDEST DUP2 CALLDATALOAD PUSH2 0x1904 DUP2 PUSH2 0x5C33 JUMP JUMPDEST PUSH1 0x0 PUSH1 0x20 DUP3 DUP5 SUB SLT ISZERO PUSH2 0x4927 JUMPI PUSH1 0x0 DUP1 REVERT JUMPDEST DUP2 MLOAD PUSH2 0x1904 DUP2 PUSH2 0x5C33 JUMP JUMPDEST PUSH1 0x0 DUP1 PUSH1 0x40 DUP4 DUP6 SUB SLT ISZERO PUSH2 0x4945 JUMPI PUSH1 0x0 DUP1 REVERT JUMPDEST DUP3 CALLDATALOAD PUSH2 0x4950 DUP2 PUSH2 0x5C33 JUMP JUMPDEST SWAP2 POP PUSH1 0x20 DUP4 ADD CALLDATALOAD PUSH1 0x1 PUSH1 0x1 PUSH1 0x40 SHL SUB DUP2 GT ISZERO PUSH2 0x496B JUMPI PUSH1 0x0 DUP1 REVERT JUMPDEST PUSH2 0x4977 DUP6 DUP3 DUP7 ADD PUSH2 0x463A JUMP JUMPDEST SWAP2 POP POP SWAP3 POP SWAP3 SWAP1 POP JUMP JUMPDEST PUSH1 0x0 PUSH1 0x20 DUP3 DUP5 SUB SLT ISZERO PUSH2 0x4993 JUMPI PUSH1 0x0 DUP1 REVERT JUMPDEST DUP2 MLOAD PUSH1 0x1 PUSH1 0x1 PUSH1 0x40 SHL SUB DUP2 GT ISZERO PUSH2 0x49A9 JUMPI PUSH1 0x0 DUP1 REVERT JUMPDEST PUSH2 0x2085 DUP5 DUP3 DUP6 ADD PUSH2 0x4287 JUMP JUMPDEST PUSH1 0x0 PUSH1 0x20 DUP3 DUP5 SUB SLT ISZERO PUSH2 0x49C7 JUMPI PUSH1 0x0 DUP1 REVERT JUMPDEST DUP2 MLOAD PUSH1 0x1 PUSH1 0x1 PUSH1 0x40 SHL SUB DUP2 GT ISZERO PUSH2 0x49DD JUMPI PUSH1 0x0 DUP1 REVERT JUMPDEST PUSH2 0x2085 DUP5 DUP3 DUP6 ADD PUSH2 0x469A JUMP JUMPDEST PUSH1 0x0 PUSH1 0x20 DUP3 DUP5 SUB SLT ISZERO PUSH2 0x49FB JUMPI PUSH1 0x0 DUP1 REVERT JUMPDEST DUP2 MLOAD PUSH2 0x1904 DUP2 PUSH2 0x5C48 JUMP JUMPDEST PUSH1 0x0 DUP1 PUSH1 0x40 DUP4 DUP6 SUB SLT ISZERO PUSH2 0x4A19 JUMPI PUSH1 0x0 DUP1 REVERT JUMPDEST DUP3 MLOAD PUSH2 0x4A24 DUP2 PUSH2 0x5C48 JUMP JUMPDEST PUSH1 0x20 DUP5 ADD MLOAD SWAP1 SWAP3 POP PUSH1 0x1 PUSH1 0x1 PUSH1 0x40 SHL SUB DUP2 GT ISZERO PUSH2 0x4A40 JUMPI PUSH1 0x0 DUP1 REVERT JUMPDEST PUSH2 0x4977 DUP6 DUP3 DUP7 ADD PUSH2 0x4786 JUMP JUMPDEST PUSH1 0x0 PUSH1 0x20 DUP3 DUP5 SUB SLT ISZERO PUSH2 0x4A5E JUMPI PUSH1 0x0 DUP1 REVERT JUMPDEST DUP2 MLOAD PUSH2 0x1904 DUP2 PUSH2 0x5C56 JUMP JUMPDEST PUSH1 0x0 PUSH1 0x20 DUP3 DUP5 SUB SLT ISZERO PUSH2 0x4A7B JUMPI PUSH1 0x0 DUP1 REVERT JUMPDEST PUSH2 0x1904 DUP3 PUSH2 0x4726 JUMP JUMPDEST PUSH1 0x0 PUSH1 0x20 DUP3 DUP5 SUB SLT ISZERO PUSH2 0x4A96 JUMPI PUSH1 0x0 DUP1 REVERT JUMPDEST DUP2 CALLDATALOAD PUSH1 0x1 PUSH1 0x1 PUSH1 0x40 SHL SUB DUP2 GT ISZERO PUSH2 0x4AAC JUMPI PUSH1 0x0 DUP1 REVERT JUMPDEST PUSH2 0x2085 DUP5 DUP3 DUP6 ADD PUSH2 0x47CB JUMP JUMPDEST PUSH1 0x0 PUSH1 0x20 DUP3 DUP5 SUB SLT ISZERO PUSH2 0x4ACA JUMPI PUSH1 0x0 DUP1 REVERT JUMPDEST DUP2 MLOAD PUSH1 0x1 PUSH1 0x1 PUSH1 0x40 SHL SUB DUP1 DUP3 GT ISZERO PUSH2 0x4AE1 JUMPI PUSH1 0x0 DUP1 REVERT JUMPDEST SWAP1 DUP4 ADD SWAP1 PUSH1 0x60 DUP3 DUP7 SUB SLT ISZERO PUSH2 0x4AF5 JUMPI PUSH1 0x0 DUP1 REVERT JUMPDEST PUSH2 0x4AFD PUSH2 0x5AB9 JUMP JUMPDEST DUP3 MLOAD PUSH2 0x4B08 DUP2 PUSH2 0x5C33 JUMP JUMPDEST DUP2 MSTORE PUSH1 0x20 DUP4 ADD MLOAD DUP3 DUP2 GT ISZERO PUSH2 0x4B1C JUMPI PUSH1 0x0 DUP1 REVERT JUMPDEST PUSH2 0x4B28 DUP8 DUP3 DUP7 ADD PUSH2 0x4786 JUMP JUMPDEST PUSH1 0x20 DUP4 ADD MSTORE POP PUSH1 0x40 DUP4 ADD MLOAD DUP3 DUP2 GT ISZERO PUSH2 0x4B40 JUMPI PUSH1 0x0 DUP1 REVERT JUMPDEST PUSH2 0x4B4C DUP8 DUP3 DUP7 ADD PUSH2 0x4786 JUMP JUMPDEST PUSH1 0x40 DUP4 ADD MSTORE POP SWAP6 SWAP5 POP POP POP POP POP JUMP JUMPDEST PUSH1 0x0 PUSH1 0x20 DUP1 DUP4 DUP6 SUB SLT ISZERO PUSH2 0x4B6E JUMPI PUSH1 0x0 DUP1 REVERT JUMPDEST DUP3 MLOAD PUSH1 0x1 PUSH1 0x1 PUSH1 0x40 SHL SUB DUP1 DUP3 GT ISZERO PUSH2 0x4B85 JUMPI PUSH1 0x0 DUP1 REVERT JUMPDEST SWAP1 DUP5 ADD SWAP1 PUSH1 0x60 DUP3 DUP8 SUB SLT ISZERO PUSH2 0x4B99 JUMPI PUSH1 0x0 DUP1 REVERT JUMPDEST PUSH2 0x4BA1 PUSH2 0x5AB9 JUMP JUMPDEST DUP3 MLOAD PUSH2 0x4BAC DUP2 PUSH2 0x5C33 JUMP JUMPDEST DUP2 MSTORE DUP3 DUP5 ADD MLOAD DUP3 DUP2 GT ISZERO PUSH2 0x4BBF JUMPI PUSH1 0x0 DUP1 REVERT JUMPDEST PUSH2 0x4BCB DUP9 DUP3 DUP7 ADD PUSH2 0x469A JUMP JUMPDEST DUP6 DUP4 ADD MSTORE POP PUSH1 0x40 DUP4 ADD MLOAD DUP3 DUP2 GT ISZERO PUSH2 0x4BE2 JUMPI PUSH1 0x0 DUP1 REVERT JUMPDEST DUP1 DUP5 ADD SWAP4 POP POP DUP7 PUSH1 0x1F DUP5 ADD SLT PUSH2 0x4BF7 JUMPI PUSH1 0x0 DUP1 REVERT JUMPDEST DUP3 MLOAD PUSH2 0x4C05 PUSH2 0x42A8 DUP3 PUSH2 0x5B2E JUMP JUMPDEST DUP1 DUP3 DUP3 MSTORE DUP7 DUP3 ADD SWAP2 POP DUP7 DUP7 ADD DUP11 DUP9 DUP6 PUSH1 0x5 SHL DUP10 ADD ADD GT ISZERO PUSH2 0x4C25 JUMPI PUSH1 0x0 DUP1 REVERT JUMPDEST PUSH1 0x0 JUMPDEST DUP5 DUP2 LT ISZERO PUSH2 0x4CBF JUMPI DUP2 MLOAD DUP8 DUP2 GT ISZERO PUSH2 0x4C3F JUMPI PUSH1 0x0 DUP1 REVERT JUMPDEST DUP9 ADD PUSH1 0x60 DUP2 DUP15 SUB PUSH1 0x1F NOT ADD SLT ISZERO PUSH2 0x4C55 JUMPI PUSH1 0x0 DUP1 REVERT JUMPDEST PUSH2 0x4C5D PUSH2 0x5AB9 JUMP JUMPDEST DUP11 DUP3 ADD MLOAD PUSH1 0x5 DUP2 LT PUSH2 0x4C6E JUMPI PUSH1 0x0 DUP1 REVERT JUMPDEST DUP2 MSTORE PUSH1 0x40 DUP3 ADD MLOAD DUP10 DUP2 GT ISZERO PUSH2 0x4C82 JUMPI PUSH1 0x0 DUP1 REVERT JUMPDEST PUSH2 0x4C90 DUP16 DUP14 DUP4 DUP7 ADD ADD PUSH2 0x4786 JUMP JUMPDEST DUP13 DUP4 ADD MSTORE POP PUSH1 0x60 DUP3 ADD MLOAD SWAP2 POP PUSH2 0x4CA5 DUP3 PUSH2 0x5C48 JUMP JUMPDEST PUSH1 0x40 DUP2 ADD SWAP2 SWAP1 SWAP2 MSTORE DUP5 MSTORE SWAP3 DUP9 ADD SWAP3 SWAP1 DUP9 ADD SWAP1 PUSH1 0x1 ADD PUSH2 0x4C28 JUMP JUMPDEST POP POP PUSH1 0x40 DUP5 ADD MSTORE POP SWAP1 SWAP8 SWAP7 POP POP POP POP POP POP POP JUMP JUMPDEST PUSH1 0x0 PUSH1 0x20 DUP3 DUP5 SUB SLT ISZERO PUSH2 0x4CE5 JUMPI PUSH1 0x0 DUP1 REVERT JUMPDEST DUP2 MLOAD PUSH1 0x1 PUSH1 0x1 PUSH1 0x40 SHL SUB DUP1 DUP3 GT ISZERO PUSH2 0x4CFC JUMPI PUSH1 0x0 DUP1 REVERT JUMPDEST SWAP1 DUP4 ADD SWAP1 PUSH2 0x2E0 DUP3 DUP7 SUB SLT ISZERO PUSH2 0x4D11 JUMPI PUSH1 0x0 DUP1 REVERT JUMPDEST PUSH2 0x4D19 PUSH2 0x5ADB JUMP JUMPDEST PUSH2 0x4D22 DUP4 PUSH2 0x4277 JUMP JUMPDEST DUP2 MSTORE PUSH1 0x20 DUP4 ADD MLOAD PUSH1 0x20 DUP3 ADD MSTORE PUSH1 0x40 DUP4 ADD MLOAD DUP3 DUP2 GT ISZERO PUSH2 0x4D40 JUMPI PUSH1 0x0 DUP1 REVERT JUMPDEST PUSH2 0x4D4C DUP8 DUP3 DUP7 ADD PUSH2 0x4786 JUMP JUMPDEST PUSH1 0x40 DUP4 ADD MSTORE POP PUSH1 0x60 DUP4 ADD MLOAD DUP3 DUP2 GT ISZERO PUSH2 0x4D64 JUMPI PUSH1 0x0 DUP1 REVERT JUMPDEST PUSH2 0x4D70 DUP8 DUP3 DUP7 ADD PUSH2 0x4786 JUMP JUMPDEST PUSH1 0x60 DUP4 ADD MSTORE POP PUSH1 0x80 DUP4 ADD MLOAD PUSH1 0x80 DUP3 ADD MSTORE PUSH1 0xA0 DUP4 ADD MLOAD PUSH1 0xA0 DUP3 ADD MSTORE PUSH1 0xC0 DUP4 ADD MLOAD PUSH1 0xC0 DUP3 ADD MSTORE PUSH1 0xE0 DUP4 ADD MLOAD DUP3 DUP2 GT ISZERO PUSH2 0x4DA6 JUMPI PUSH1 0x0 DUP1 REVERT JUMPDEST PUSH2 0x4DB2 DUP8 DUP3 DUP7 ADD PUSH2 0x469A JUMP JUMPDEST PUSH1 0xE0 DUP4 ADD MSTORE POP PUSH2 0x100 DUP4 DUP2 ADD MLOAD SWAP1 DUP3 ADD MSTORE PUSH2 0x120 DUP1 DUP5 ADD MLOAD SWAP1 DUP3 ADD MSTORE PUSH2 0x140 PUSH2 0x4DDC DUP2 DUP6 ADD PUSH2 0x4705 JUMP JUMPDEST SWAP1 DUP3 ADD MSTORE PUSH2 0x160 PUSH2 0x4DEE DUP5 DUP3 ADD PUSH2 0x4705 JUMP JUMPDEST SWAP1 DUP3 ADD MSTORE PUSH2 0x180 DUP4 DUP2 ADD MLOAD SWAP1 DUP3 ADD MSTORE PUSH2 0x1A0 DUP1 DUP5 ADD MLOAD DUP4 DUP2 GT ISZERO PUSH2 0x4E11 JUMPI PUSH1 0x0 DUP1 REVERT JUMPDEST PUSH2 0x4E1D DUP9 DUP3 DUP8 ADD PUSH2 0x449F JUMP JUMPDEST DUP3 DUP5 ADD MSTORE POP POP PUSH2 0x1C0 DUP1 DUP5 ADD MLOAD DUP4 DUP2 GT ISZERO PUSH2 0x4E37 JUMPI PUSH1 0x0 DUP1 REVERT JUMPDEST PUSH2 0x4E43 DUP9 DUP3 DUP8 ADD PUSH2 0x4287 JUMP JUMPDEST DUP3 DUP5 ADD MSTORE POP POP PUSH2 0x1E0 DUP1 DUP5 ADD MLOAD DUP4 DUP2 GT ISZERO PUSH2 0x4E5D JUMPI PUSH1 0x0 DUP1 REVERT JUMPDEST PUSH2 0x4E69 DUP9 DUP3 DUP8 ADD PUSH2 0x4287 JUMP JUMPDEST SWAP2 DUP4 ADD SWAP2 SWAP1 SWAP2 MSTORE POP PUSH2 0x200 DUP4 DUP2 ADD MLOAD SWAP1 DUP3 ADD MSTORE PUSH2 0x220 DUP1 DUP5 ADD MLOAD SWAP1 DUP3 ADD MSTORE PUSH2 0x240 DUP1 DUP5 ADD MLOAD SWAP1 DUP3 ADD MSTORE PUSH2 0x260 DUP1 DUP5 ADD MLOAD SWAP1 DUP3 ADD MSTORE PUSH2 0x280 SWAP2 POP PUSH2 0x4EAD DUP3 DUP5 ADD PUSH2 0x4705 JUMP JUMPDEST DUP3 DUP3 ADD MSTORE PUSH2 0x2A0 SWAP2 POP PUSH2 0x4EC1 DUP3 DUP5 ADD PUSH2 0x4705 JUMP JUMPDEST DUP3 DUP3 ADD MSTORE PUSH2 0x2C0 SWAP2 POP PUSH2 0x4ED5 DUP3 DUP5 ADD PUSH2 0x4726 JUMP JUMPDEST SWAP2 DUP2 ADD SWAP2 SWAP1 SWAP2 MSTORE SWAP5 SWAP4 POP POP POP POP JUMP JUMPDEST PUSH1 0x0 PUSH1 0x20 DUP3 DUP5 SUB SLT ISZERO PUSH2 0x4EF6 JUMPI PUSH1 0x0 DUP1 REVERT JUMPDEST POP CALLDATALOAD SWAP2 SWAP1 POP JUMP JUMPDEST PUSH1 0x0 PUSH1 0x20 DUP3 DUP5 SUB SLT ISZERO PUSH2 0x4F0F JUMPI PUSH1 0x0 DUP1 REVERT JUMPDEST POP MLOAD SWAP2 SWAP1 POP JUMP JUMPDEST PUSH1 0x0 DUP1 PUSH1 0x40 DUP4 DUP6 SUB SLT ISZERO PUSH2 0x4F29 JUMPI PUSH1 0x0 DUP1 REVERT JUMPDEST DUP3 CALLDATALOAD SWAP2 POP PUSH1 0x20 DUP4 ADD CALLDATALOAD PUSH2 0x4F3B DUP2 PUSH2 0x5C33 JUMP JUMPDEST DUP1 SWAP2 POP POP SWAP3 POP SWAP3 SWAP1 POP JUMP JUMPDEST PUSH1 0x0 DUP1 PUSH1 0x0 DUP1 PUSH1 0x0 DUP1 PUSH1 0xC0 DUP8 DUP10 SUB SLT ISZERO PUSH2 0x4F5F JUMPI PUSH1 0x0 DUP1 REVERT JUMPDEST DUP7 CALLDATALOAD SWAP6 POP PUSH1 0x20 DUP8 ADD CALLDATALOAD PUSH2 0x4F71 DUP2 PUSH2 0x5C33 JUMP JUMPDEST SWAP5 POP PUSH1 0x40 DUP8 ADD CALLDATALOAD SWAP4 POP PUSH1 0x60 DUP8 ADD CALLDATALOAD PUSH2 0x4F88 DUP2 PUSH2 0x5C48 JUMP JUMPDEST SWAP3 POP PUSH1 0x80 DUP8 ADD CALLDATALOAD PUSH1 0x1 PUSH1 0x1 PUSH1 0x40 SHL SUB DUP1 DUP3 GT ISZERO PUSH2 0x4FA4 JUMPI PUSH1 0x0 DUP1 REVERT JUMPDEST PUSH2 0x4FB0 DUP11 DUP4 DUP12 ADD PUSH2 0x4735 JUMP JUMPDEST SWAP4 POP PUSH1 0xA0 DUP10 ADD CALLDATALOAD SWAP2 POP DUP1 DUP3 GT ISZERO PUSH2 0x4FC6 JUMPI PUSH1 0x0 DUP1 REVERT JUMPDEST POP PUSH2 0x4FD3 DUP10 DUP3 DUP11 ADD PUSH2 0x4735 JUMP JUMPDEST SWAP2 POP POP SWAP3 SWAP6 POP SWAP3 SWAP6 POP SWAP3 SWAP6 JUMP JUMPDEST PUSH1 0x0 DUP1 PUSH1 0x40 DUP4 DUP6 SUB SLT ISZERO PUSH2 0x4FF3 JUMPI PUSH1 0x0 DUP1 REVERT JUMPDEST DUP3 CALLDATALOAD SWAP2 POP PUSH1 0x20 DUP4 ADD CALLDATALOAD PUSH1 0x1 PUSH1 0x1 PUSH1 0x40 SHL SUB DUP2 GT ISZERO PUSH2 0x496B JUMPI PUSH1 0x0 DUP1 REVERT JUMPDEST PUSH1 0x0 DUP1 PUSH1 0x40 DUP4 DUP6 SUB SLT ISZERO PUSH2 0x5023 JUMPI PUSH1 0x0 DUP1 REVERT JUMPDEST DUP3 CALLDATALOAD SWAP2 POP PUSH1 0x20 DUP4 ADD CALLDATALOAD PUSH1 0x1 PUSH1 0x1 PUSH1 0x40 SHL SUB DUP2 GT ISZERO PUSH2 0x5040 JUMPI PUSH1 0x0 DUP1 REVERT JUMPDEST PUSH2 0x4977 DUP6 DUP3 DUP7 ADD PUSH2 0x47CB JUMP JUMPDEST PUSH1 0x0 DUP1 PUSH1 0x40 DUP4 DUP6 SUB SLT ISZERO PUSH2 0x505F JUMPI PUSH1 0x0 DUP1 REVERT JUMPDEST POP POP DUP1 CALLDATALOAD SWAP3 PUSH1 0x20 SWAP1 SWAP2 ADD CALLDATALOAD SWAP2 POP JUMP JUMPDEST PUSH1 0x0 DUP1 PUSH1 0x40 DUP4 DUP6 SUB SLT ISZERO PUSH2 0x5081 JUMPI PUSH1 0x0 DUP1 REVERT JUMPDEST POP POP DUP1 MLOAD PUSH1 0x20 SWAP1 SWAP2 ADD MLOAD SWAP1 SWAP3 SWAP1 SWAP2 POP JUMP JUMPDEST PUSH1 0x0 DUP1 PUSH1 0x0 PUSH1 0x60 DUP5 DUP7 SUB SLT ISZERO PUSH2 0x50A7 JUMPI PUSH1 0x0 DUP1 REVERT JUMPDEST DUP4 CALLDATALOAD SWAP3 POP PUSH1 0x20 DUP5 ADD CALLDATALOAD SWAP2 POP PUSH1 0x40 DUP5 ADD CALLDATALOAD PUSH1 0x1 PUSH1 0x1 PUSH1 0x40 SHL SUB DUP2 GT ISZERO PUSH2 0x50CB JUMPI PUSH1 0x0 DUP1 REVERT JUMPDEST PUSH2 0x50D7 DUP7 DUP3 DUP8 ADD PUSH2 0x4735 JUMP JUMPDEST SWAP2 POP POP SWAP3 POP SWAP3 POP SWAP3 JUMP JUMPDEST PUSH1 0x0 DUP2 MLOAD DUP1 DUP5 MSTORE PUSH1 0x20 DUP1 DUP6 ADD SWAP5 POP DUP1 DUP5 ADD PUSH1 0x0 JUMPDEST DUP4 DUP2 LT ISZERO PUSH2 0x511A JUMPI DUP2 MLOAD PUSH1 0x1 PUSH1 0x1 PUSH1 0xA0 SHL SUB AND DUP8 MSTORE SWAP6 DUP3 ADD SWAP6 SWAP1 DUP3 ADD SWAP1 PUSH1 0x1 ADD PUSH2 0x50F5 JUMP JUMPDEST POP SWAP5 SWAP6 SWAP5 POP POP POP POP POP JUMP JUMPDEST PUSH1 0x0 DUP2 MLOAD DUP1 DUP5 MSTORE PUSH1 0x20 DUP1 DUP6 ADD DUP1 DUP2 SWAP7 POP DUP4 PUSH1 0x5 SHL DUP2 ADD SWAP2 POP DUP3 DUP7 ADD PUSH1 0x0 JUMPDEST DUP6 DUP2 LT ISZERO PUSH2 0x521A JUMPI DUP3 DUP5 SUB DUP10 MSTORE DUP2 MLOAD DUP1 MLOAD PUSH1 0x1 PUSH1 0x1 PUSH1 0xA0 SHL SUB AND DUP6 MSTORE DUP6 DUP2 ADD MLOAD PUSH1 0x60 DUP8 DUP8 ADD DUP2 SWAP1 MSTORE SWAP1 PUSH2 0x5178 DUP3 DUP9 ADD DUP3 PUSH2 0x5323 JUMP JUMPDEST PUSH1 0x40 SWAP4 DUP5 ADD MLOAD DUP9 DUP3 SUB DUP10 DUP7 ADD MSTORE DUP1 MLOAD DUP1 DUP4 MSTORE SWAP1 DUP11 ADD SWAP5 SWAP2 SWAP3 POP DUP10 DUP4 ADD SWAP1 PUSH1 0x5 DUP2 SWAP1 SHL DUP5 ADD DUP12 ADD PUSH1 0x0 JUMPDEST DUP3 DUP2 LT ISZERO PUSH2 0x51FD JUMPI DUP6 DUP3 SUB PUSH1 0x1F NOT ADD DUP5 MSTORE DUP8 MLOAD DUP1 MLOAD PUSH1 0x5 DUP2 LT PUSH2 0x51C6 JUMPI PUSH2 0x51C6 PUSH2 0x5BF1 JUMP JUMPDEST DUP4 MSTORE DUP1 DUP15 ADD MLOAD DUP15 DUP5 ADD DUP10 SWAP1 MSTORE PUSH2 0x51DE DUP10 DUP6 ADD DUP3 PUSH2 0x5377 JUMP JUMPDEST SWAP2 DUP8 ADD MLOAD ISZERO ISZERO SWAP4 DUP8 ADD SWAP4 SWAP1 SWAP4 MSTORE SWAP8 DUP14 ADD SWAP8 SWAP4 DUP14 ADD SWAP4 SWAP2 POP PUSH1 0x1 ADD PUSH2 0x51A1 JUMP JUMPDEST POP SWAP15 DUP12 ADD SWAP15 SWAP10 POP POP POP SWAP5 DUP9 ADD SWAP5 POP POP POP PUSH1 0x1 SWAP2 SWAP1 SWAP2 ADD SWAP1 POP PUSH2 0x5143 JUMP JUMPDEST POP SWAP2 SWAP8 SWAP7 POP POP POP POP POP POP POP JUMP JUMPDEST PUSH1 0x0 DUP2 MLOAD DUP1 DUP5 MSTORE PUSH1 0x20 DUP1 DUP6 ADD DUP1 DUP2 SWAP7 POP DUP4 PUSH1 0x5 SHL DUP2 ADD SWAP2 POP DUP3 DUP7 ADD PUSH1 0x0 JUMPDEST DUP6 DUP2 LT ISZERO PUSH2 0x521A JUMPI DUP3 DUP5 SUB DUP10 MSTORE DUP2 MLOAD PUSH1 0xA0 DUP2 MLOAD DUP2 DUP8 MSTORE DUP1 MLOAD PUSH1 0xE0 DUP1 DUP5 DUP11 ADD MSTORE PUSH2 0x5272 PUSH2 0x180 DUP11 ADD DUP4 PUSH2 0x5377 JUMP JUMPDEST SWAP2 POP DUP10 DUP4 ADD MLOAD PUSH1 0xC0 DUP2 DUP2 DUP13 ADD MSTORE PUSH1 0x40 SWAP2 POP DUP2 DUP6 ADD MLOAD DUP4 DUP13 ADD MSTORE PUSH1 0x60 SWAP3 POP DUP3 DUP6 ADD MLOAD PUSH2 0x100 DUP13 ADD MSTORE PUSH1 0x80 DUP1 DUP7 ADD MLOAD PUSH2 0x120 DUP14 ADD MSTORE DUP7 DUP7 ADD MLOAD PUSH2 0x140 DUP14 ADD MSTORE DUP2 DUP7 ADD MLOAD SWAP7 POP PUSH1 0x9F NOT DUP13 DUP7 SUB ADD PUSH2 0x160 DUP14 ADD MSTORE PUSH2 0x52CC DUP6 DUP9 PUSH2 0x5377 JUMP JUMPDEST SWAP7 POP DUP13 DUP9 ADD MLOAD DUP14 DUP14 ADD MSTORE DUP3 DUP9 ADD MLOAD SWAP6 POP DUP12 DUP8 SUB DUP4 DUP14 ADD MSTORE PUSH2 0x52ED DUP8 DUP8 PUSH2 0x5377 JUMP JUMPDEST SWAP7 POP DUP4 DUP9 ADD MLOAD SWAP6 POP PUSH2 0x5301 DUP5 DUP14 ADD DUP8 PUSH2 0x5353 JUMP JUMPDEST SWAP7 DUP8 ADD MLOAD SWAP11 SWAP1 SWAP7 ADD SWAP10 SWAP1 SWAP10 MSTORE POP POP POP SWAP10 DUP7 ADD SWAP10 SWAP5 POP POP SWAP1 DUP5 ADD SWAP1 PUSH1 0x1 ADD PUSH2 0x5245 JUMP JUMPDEST PUSH1 0x0 DUP2 MLOAD DUP1 DUP5 MSTORE PUSH1 0x20 DUP1 DUP6 ADD SWAP5 POP DUP1 DUP5 ADD PUSH1 0x0 JUMPDEST DUP4 DUP2 LT ISZERO PUSH2 0x511A JUMPI DUP2 MLOAD DUP8 MSTORE SWAP6 DUP3 ADD SWAP6 SWAP1 DUP3 ADD SWAP1 PUSH1 0x1 ADD PUSH2 0x5337 JUMP JUMPDEST PUSH1 0xC DUP2 LT PUSH2 0x5363 JUMPI PUSH2 0x5363 PUSH2 0x5BF1 JUMP JUMPDEST SWAP1 MSTORE JUMP JUMPDEST PUSH1 0x8 DUP2 LT PUSH2 0x5363 JUMPI PUSH2 0x5363 PUSH2 0x5BF1 JUMP JUMPDEST PUSH1 0x0 DUP2 MLOAD DUP1 DUP5 MSTORE PUSH2 0x538F DUP2 PUSH1 0x20 DUP7 ADD PUSH1 0x20 DUP7 ADD PUSH2 0x5B90 JUMP JUMPDEST PUSH1 0x1F ADD PUSH1 0x1F NOT AND SWAP3 SWAP1 SWAP3 ADD PUSH1 0x20 ADD SWAP3 SWAP2 POP POP JUMP JUMPDEST PUSH1 0x0 PUSH2 0x1A0 DUP3 MLOAD DUP5 MSTORE PUSH1 0x20 DUP4 ADD MLOAD DUP2 PUSH1 0x20 DUP7 ADD MSTORE PUSH2 0x53C3 DUP3 DUP7 ADD DUP3 PUSH2 0x5377 JUMP JUMPDEST SWAP2 POP POP PUSH1 0x40 DUP4 ADD MLOAD DUP5 DUP3 SUB PUSH1 0x40 DUP7 ADD MSTORE PUSH2 0x53DD DUP3 DUP3 PUSH2 0x5377 JUMP JUMPDEST SWAP2 POP POP PUSH1 0x60 DUP4 ADD MLOAD PUSH1 0x60 DUP6 ADD MSTORE PUSH1 0x80 DUP4 ADD MLOAD PUSH1 0x80 DUP6 ADD MSTORE PUSH1 0xA0 DUP4 ADD MLOAD PUSH1 0xA0 DUP6 ADD MSTORE PUSH1 0xC0 DUP4 ADD MLOAD DUP5 DUP3 SUB PUSH1 0xC0 DUP7 ADD MSTORE PUSH2 0x5415 DUP3 DUP3 PUSH2 0x5323 JUMP JUMPDEST SWAP2 POP POP PUSH1 0xE0 DUP4 ADD MLOAD PUSH1 0xE0 DUP6 ADD MSTORE PUSH2 0x100 DUP1 DUP5 ADD MLOAD DUP2 DUP7 ADD MSTORE POP PUSH2 0x120 DUP1 DUP5 ADD MLOAD PUSH2 0x5442 DUP3 DUP8 ADD DUP3 ISZERO ISZERO SWAP1 MSTORE JUMP JUMPDEST POP POP PUSH2 0x140 DUP4 DUP2 ADD MLOAD ISZERO ISZERO SWAP1 DUP6 ADD MSTORE PUSH2 0x160 DUP1 DUP5 ADD MLOAD SWAP1 DUP6 ADD MSTORE PUSH2 0x180 DUP1 DUP5 ADD MLOAD DUP6 DUP4 SUB DUP3 DUP8 ADD MSTORE PUSH2 0x5474 DUP4 DUP3 PUSH2 0x5227 JUMP JUMPDEST SWAP7 SWAP6 POP POP POP POP POP POP JUMP JUMPDEST PUSH1 0x1 PUSH1 0x1 PUSH1 0xA0 SHL SUB SWAP4 DUP5 AND DUP2 MSTORE SWAP2 SWAP1 SWAP3 AND PUSH1 0x20 DUP3 ADD MSTORE PUSH1 0x40 DUP2 ADD SWAP2 SWAP1 SWAP2 MSTORE PUSH1 0x60 ADD SWAP1 JUMP JUMPDEST DUP3 ISZERO ISZERO DUP2 MSTORE PUSH1 0x40 PUSH1 0x20 DUP3 ADD MSTORE PUSH1 0x0 PUSH2 0x2085 PUSH1 0x40 DUP4 ADD DUP5 PUSH2 0x5377 JUMP JUMPDEST PUSH1 0x20 DUP2 ADD PUSH2 0x530 DUP3 DUP5 PUSH2 0x5353 JUMP JUMPDEST PUSH1 0x20 DUP2 ADD PUSH2 0x530 DUP3 DUP5 PUSH2 0x5367 JUMP JUMPDEST PUSH1 0x20 DUP2 MSTORE PUSH1 0x0 PUSH2 0x1904 PUSH1 0x20 DUP4 ADD DUP5 PUSH2 0x5377 JUMP JUMPDEST PUSH1 0x20 DUP1 DUP3 MSTORE PUSH1 0x12 SWAP1 DUP3 ADD MSTORE PUSH18 0x57726F6E6720696E6465782076616C756521 PUSH1 0x70 SHL PUSH1 0x40 DUP3 ADD MSTORE PUSH1 0x60 ADD SWAP1 JUMP JUMPDEST PUSH1 0x20 DUP1 DUP3 MSTORE PUSH1 0x12 SWAP1 DUP3 ADD MSTORE PUSH18 0x4E6F7420486176652050617373204E465421 PUSH1 0x70 SHL PUSH1 0x40 DUP3 ADD MSTORE PUSH1 0x60 ADD SWAP1 JUMP JUMPDEST PUSH1 0x20 DUP1 DUP3 MSTORE PUSH1 0xF SWAP1 DUP3 ADD MSTORE PUSH15 0x756E706169642070656E616C747921 PUSH1 0x88 SHL PUSH1 0x40 DUP3 ADD MSTORE PUSH1 0x60 ADD SWAP1 JUMP JUMPDEST PUSH1 0x40 DUP1 DUP3 MSTORE PUSH1 0x10 SWAP1 DUP3 ADD MSTORE PUSH16 0x199A5B194818D85B9B9BDD081B9D5B1B PUSH1 0x82 SHL PUSH1 0x60 DUP3 ADD MSTORE PUSH1 0x20 DUP2 ADD SWAP2 SWAP1 SWAP2 MSTORE PUSH1 0x80 ADD SWAP1 JUMP JUMPDEST PUSH1 0x20 DUP1 DUP3 MSTORE PUSH1 0x29 SWAP1 DUP3 ADD MSTORE PUSH32 0x6275796572206E6F74206861766120656E6F7567687420617070726F7665206F PUSH1 0x40 DUP3 ADD MSTORE PUSH9 0x722062616C616E6365 PUSH1 0xB8 SHL PUSH1 0x60 DUP3 ADD MSTORE PUSH1 0x80 ADD SWAP1 JUMP JUMPDEST PUSH1 0x20 DUP1 DUP3 MSTORE PUSH1 0x23 SWAP1 DUP3 ADD MSTORE PUSH32 0x6F6E6C7920616D706869207465616D2063616E2063616C6C20746865206D6574 PUSH1 0x40 DUP3 ADD MSTORE PUSH3 0x1A1BD9 PUSH1 0xEA SHL PUSH1 0x60 DUP3 ADD MSTORE PUSH1 0x80 ADD SWAP1 JUMP JUMPDEST PUSH1 0x20 DUP1 DUP3 MSTORE PUSH1 0x2C SWAP1 DUP3 ADD MSTORE PUSH32 0x5468652072656C6561736554696D652069732067726561746572207468616E20 PUSH1 0x40 DUP3 ADD MSTORE PUSH12 0x74686520646561646C696E65 PUSH1 0xA0 SHL PUSH1 0x60 DUP3 ADD MSTORE PUSH1 0x80 ADD SWAP1 JUMP JUMPDEST PUSH1 0x40 DUP2 MSTORE PUSH1 0x0 PUSH2 0x568A PUSH1 0x40 DUP4 ADD DUP6 PUSH2 0x53A3 JUMP JUMPDEST SWAP1 POP PUSH1 0x1 DUP1 PUSH1 0xA0 SHL SUB DUP4 AND PUSH1 0x20 DUP4 ADD MSTORE SWAP4 SWAP3 POP POP POP JUMP JUMPDEST PUSH1 0x20 DUP1 DUP3 MSTORE DUP3 MLOAD PUSH1 0x1 PUSH1 0x1 PUSH1 0xA0 SHL SUB AND DUP3 DUP3 ADD MSTORE DUP3 ADD MLOAD PUSH1 0x60 PUSH1 0x40 DUP4 ADD MSTORE PUSH1 0x0 SWAP1 PUSH2 0x56CF PUSH1 0x80 DUP5 ADD DUP3 PUSH2 0x5377 JUMP JUMPDEST SWAP1 POP PUSH1 0x40 DUP5 ADD MLOAD PUSH1 0x1F NOT DUP5 DUP4 SUB ADD PUSH1 0x60 DUP6 ADD MSTORE PUSH2 0x56EC DUP3 DUP3 PUSH2 0x5377 JUMP JUMPDEST SWAP6 SWAP5 POP POP POP POP POP JUMP JUMPDEST PUSH1 0x20 DUP2 MSTORE PUSH1 0x0 DUP3 MLOAD PUSH1 0x60 PUSH1 0x20 DUP5 ADD MSTORE PUSH2 0x571A PUSH1 0x80 DUP5 ADD DUP3 MLOAD PUSH1 0x1 PUSH1 0x1 PUSH1 0xA0 SHL SUB AND SWAP1 MSTORE JUMP JUMPDEST PUSH1 0x20 DUP2 ADD MLOAD PUSH1 0xA0 DUP5 ADD MSTORE PUSH1 0x40 DUP2 ADD MLOAD PUSH2 0x2E0 DUP1 PUSH1 0xC0 DUP7 ADD MSTORE PUSH2 0x5740 PUSH2 0x360 DUP7 ADD DUP4 PUSH2 0x5377 JUMP JUMPDEST SWAP2 POP PUSH1 0x60 DUP4 ADD MLOAD PUSH1 0x7F NOT DUP1 DUP8 DUP6 SUB ADD PUSH1 0xE0 DUP9 ADD MSTORE PUSH2 0x575E DUP5 DUP4 PUSH2 0x5377 JUMP JUMPDEST SWAP4 POP PUSH1 0x80 DUP6 ADD MLOAD SWAP2 POP PUSH2 0x100 DUP3 DUP2 DUP10 ADD MSTORE PUSH1 0xA0 DUP7 ADD MLOAD SWAP3 POP PUSH2 0x120 DUP4 DUP2 DUP11 ADD MSTORE PUSH1 0xC0 DUP8 ADD MLOAD SWAP4 POP PUSH2 0x140 DUP5 DUP2 DUP12 ADD MSTORE PUSH1 0xE0 DUP9 ADD MLOAD SWAP5 POP PUSH2 0x160 DUP5 DUP12 DUP10 SUB ADD DUP2 DUP13 ADD MSTORE PUSH2 0x57AA DUP9 DUP8 PUSH2 0x5323 JUMP JUMPDEST SWAP4 DUP10 ADD MLOAD PUSH2 0x180 DUP13 DUP2 ADD SWAP2 SWAP1 SWAP2 MSTORE SWAP3 DUP10 ADD MLOAD PUSH2 0x1A0 DUP1 DUP14 ADD SWAP2 SWAP1 SWAP2 MSTORE SWAP2 DUP10 ADD MLOAD SWAP4 SWAP8 POP SWAP3 SWAP5 POP SWAP1 SWAP2 PUSH2 0x1C0 SWAP1 PUSH2 0x57E3 DUP3 DUP13 ADD DUP8 ISZERO ISZERO SWAP1 MSTORE JUMP JUMPDEST DUP9 ADD MLOAD SWAP5 POP PUSH2 0x1E0 PUSH2 0x57F8 DUP12 DUP3 ADD DUP8 ISZERO ISZERO SWAP1 MSTORE JUMP JUMPDEST DUP4 DUP10 ADD MLOAD SWAP6 POP PUSH2 0x200 SWAP4 POP DUP6 DUP5 DUP13 ADD MSTORE DUP3 DUP10 ADD MLOAD SWAP6 POP PUSH2 0x220 SWAP3 POP DUP5 DUP12 DUP10 SUB ADD DUP4 DUP13 ADD MSTORE PUSH2 0x5826 DUP9 DUP8 PUSH2 0x5227 JUMP JUMPDEST SWAP8 POP DUP2 DUP10 ADD MLOAD SWAP6 POP PUSH2 0x240 SWAP2 POP DUP5 DUP12 DUP10 SUB ADD DUP3 DUP13 ADD MSTORE PUSH2 0x5846 DUP9 DUP8 PUSH2 0x50E1 JUMP JUMPDEST SWAP8 POP DUP1 DUP10 ADD MLOAD SWAP6 POP POP PUSH2 0x260 DUP5 DUP12 DUP10 SUB ADD DUP2 DUP13 ADD MSTORE PUSH2 0x5865 DUP9 DUP8 PUSH2 0x50E1 JUMP JUMPDEST SWAP8 POP DUP4 DUP10 ADD MLOAD SWAP6 POP PUSH2 0x280 SWAP5 POP DUP6 DUP6 DUP13 ADD MSTORE DUP3 DUP10 ADD MLOAD SWAP6 POP PUSH2 0x2A0 SWAP4 POP DUP6 DUP5 DUP13 ADD MSTORE DUP2 DUP10 ADD MLOAD SWAP6 POP PUSH2 0x2C0 SWAP3 POP DUP6 DUP4 DUP13 ADD MSTORE DUP1 DUP10 ADD MLOAD DUP8 DUP13 ADD MSTORE POP POP DUP3 DUP8 ADD MLOAD SWAP5 POP PUSH2 0x58B6 PUSH2 0x300 DUP11 ADD DUP7 ISZERO ISZERO SWAP1 MSTORE JUMP JUMPDEST SWAP1 DUP7 ADD MLOAD ISZERO ISZERO PUSH2 0x320 DUP10 ADD MSTORE SWAP1 SWAP5 ADD MLOAD SWAP4 POP PUSH2 0x58D9 SWAP2 POP POP PUSH2 0x340 DUP6 ADD DUP4 PUSH2 0x5367 JUMP JUMPDEST PUSH1 0x20 DUP6 ADD MLOAD SWAP2 POP PUSH1 0x1F NOT DUP1 DUP6 DUP4 SUB ADD PUSH1 0x40 DUP7 ADD MSTORE PUSH2 0x58F7 DUP3 DUP5 PUSH2 0x5125 JUMP JUMPDEST SWAP3 POP PUSH1 0x40 DUP7 ADD MLOAD SWAP2 POP DUP1 DUP6 DUP5 SUB ADD PUSH1 0x60 DUP7 ADD MSTORE POP PUSH2 0x56EC DUP3 DUP3 PUSH2 0x5125 JUMP JUMPDEST DUP8 DUP2 MSTORE PUSH1 0x1 PUSH1 0x1 PUSH1 0xA0 SHL SUB DUP8 DUP2 AND PUSH1 0x20 DUP4 ADD MSTORE DUP7 AND PUSH1 0x40 DUP3 ADD MSTORE PUSH1 0x60 DUP2 ADD DUP6 SWAP1 MSTORE DUP4 ISZERO ISZERO PUSH1 0x80 DUP3 ADD MSTORE PUSH1 0xE0 PUSH1 0xA0 DUP3 ADD DUP2 SWAP1 MSTORE PUSH1 0x0 SWAP1 PUSH2 0x5956 SWAP1 DUP4 ADD DUP6 PUSH2 0x5377 JUMP JUMPDEST DUP3 DUP2 SUB PUSH1 0xC0 DUP5 ADD MSTORE PUSH2 0x5968 DUP2 DUP6 PUSH2 0x5377 JUMP JUMPDEST SWAP11 SWAP10 POP POP POP POP POP POP POP POP POP POP JUMP JUMPDEST DUP4 DUP2 MSTORE PUSH1 0x60 PUSH1 0x20 DUP3 ADD MSTORE PUSH1 0x0 PUSH2 0x598F PUSH1 0x60 DUP4 ADD DUP6 PUSH2 0x5323 JUMP JUMPDEST SWAP1 POP PUSH1 0x1 DUP1 PUSH1 0xA0 SHL SUB DUP4 AND PUSH1 0x40 DUP4 ADD MSTORE SWAP5 SWAP4 POP POP POP POP JUMP JUMPDEST DUP4 DUP2 MSTORE PUSH1 0x60 PUSH1 0x20 DUP3 ADD MSTORE PUSH1 0x0 PUSH2 0x598F PUSH1 0x60 DUP4 ADD DUP6 PUSH2 0x53A3 JUMP JUMPDEST DUP7 DUP2 MSTORE DUP6 PUSH1 0x20 DUP3 ADD MSTORE DUP5 ISZERO ISZERO PUSH1 0x40 DUP3 ADD MSTORE PUSH1 0x1 DUP1 PUSH1 0xA0 SHL SUB DUP5 AND PUSH1 0x60 DUP3 ADD MSTORE PUSH1 0xC0 PUSH1 0x80 DUP3 ADD MSTORE PUSH1 0x0 PUSH2 0x59F5 PUSH1 0xC0 DUP4 ADD DUP6 PUSH2 0x5377 JUMP JUMPDEST DUP3 DUP2 SUB PUSH1 0xA0 DUP5 ADD MSTORE PUSH2 0x5A07 DUP2 DUP6 PUSH2 0x5377 JUMP JUMPDEST SWAP10 SWAP9 POP POP POP POP POP POP POP POP POP JUMP JUMPDEST DUP5 DUP2 MSTORE DUP4 PUSH1 0x20 DUP3 ADD MSTORE PUSH1 0x80 PUSH1 0x40 DUP3 ADD MSTORE PUSH1 0x0 PUSH2 0x5A33 PUSH1 0x80 DUP4 ADD DUP6 PUSH2 0x5377 JUMP JUMPDEST SWAP1 POP PUSH1 0x1 DUP1 PUSH1 0xA0 SHL SUB DUP4 AND PUSH1 0x60 DUP4 ADD MSTORE SWAP6 SWAP5 POP POP POP POP POP JUMP JUMPDEST PUSH1 0x40 MLOAD PUSH1 0xA0 DUP2 ADD PUSH1 0x1 PUSH1 0x1 PUSH1 0x40 SHL SUB DUP2 GT DUP3 DUP3 LT OR ISZERO PUSH2 0x5A6E JUMPI PUSH2 0x5A6E PUSH2 0x5C1D JUMP JUMPDEST PUSH1 0x40 MSTORE SWAP1 JUMP JUMPDEST PUSH1 0x40 MLOAD PUSH1 0xE0 DUP2 ADD PUSH1 0x1 PUSH1 0x1 PUSH1 0x40 SHL SUB DUP2 GT DUP3 DUP3 LT OR ISZERO PUSH2 0x5A6E JUMPI PUSH2 0x5A6E PUSH2 0x5C1D JUMP JUMPDEST PUSH1 0x40 MLOAD PUSH2 0x1A0 DUP2 ADD PUSH1 0x1 PUSH1 0x1 PUSH1 0x40 SHL SUB DUP2 GT DUP3 DUP3 LT OR ISZERO PUSH2 0x5A6E JUMPI PUSH2 0x5A6E PUSH2 0x5C1D JUMP JUMPDEST PUSH1 0x40 MLOAD PUSH1 0x60 DUP2 ADD PUSH1 0x1 PUSH1 0x1 PUSH1 0x40 SHL SUB DUP2 GT DUP3 DUP3 LT OR ISZERO PUSH2 0x5A6E JUMPI PUSH2 0x5A6E PUSH2 0x5C1D JUMP JUMPDEST PUSH1 0x40 MLOAD PUSH2 0x2E0 DUP2 ADD PUSH1 0x1 PUSH1 0x1 PUSH1 0x40 SHL SUB DUP2 GT DUP3 DUP3 LT OR ISZERO PUSH2 0x5A6E JUMPI PUSH2 0x5A6E PUSH2 0x5C1D JUMP JUMPDEST PUSH1 0x40 MLOAD PUSH1 0x1F DUP3 ADD PUSH1 0x1F NOT AND DUP2 ADD PUSH1 0x1 PUSH1 0x1 PUSH1 0x40 SHL SUB DUP2 GT DUP3 DUP3 LT OR ISZERO PUSH2 0x5B26 JUMPI PUSH2 0x5B26 PUSH2 0x5C1D JUMP JUMPDEST PUSH1 0x40 MSTORE SWAP2 SWAP1 POP JUMP JUMPDEST PUSH1 0x0 PUSH1 0x1 PUSH1 0x1 PUSH1 0x40 SHL SUB DUP3 GT ISZERO PUSH2 0x5B47 JUMPI PUSH2 0x5B47 PUSH2 0x5C1D JUMP JUMPDEST POP PUSH1 0x5 SHL PUSH1 0x20 ADD SWAP1 JUMP JUMPDEST PUSH1 0x0 PUSH1 0x1 PUSH1 0x1 PUSH1 0x40 SHL SUB DUP3 GT ISZERO PUSH2 0x5B6A JUMPI PUSH2 0x5B6A PUSH2 0x5C1D JUMP JUMPDEST POP PUSH1 0x1F ADD PUSH1 0x1F NOT AND PUSH1 0x20 ADD SWAP1 JUMP JUMPDEST PUSH1 0x0 DUP3 NOT DUP3 GT ISZERO PUSH2 0x5B8B JUMPI PUSH2 0x5B8B PUSH2 0x5BDB JUMP JUMPDEST POP ADD SWAP1 JUMP JUMPDEST PUSH1 0x0 JUMPDEST DUP4 DUP2 LT ISZERO PUSH2 0x5BAB JUMPI DUP2 DUP2 ADD MLOAD DUP4 DUP3 ADD MSTORE PUSH1 0x20 ADD PUSH2 0x5B93 JUMP JUMPDEST DUP4 DUP2 GT ISZERO PUSH2 0x5BBA JUMPI PUSH1 0x0 DUP5 DUP5 ADD MSTORE JUMPDEST POP POP POP POP JUMP JUMPDEST PUSH1 0x0 PUSH1 0x0 NOT DUP3 EQ ISZERO PUSH2 0x5BD4 JUMPI PUSH2 0x5BD4 PUSH2 0x5BDB JUMP JUMPDEST POP PUSH1 0x1 ADD SWAP1 JUMP JUMPDEST PUSH4 0x4E487B71 PUSH1 0xE0 SHL PUSH1 0x0 MSTORE PUSH1 0x11 PUSH1 0x4 MSTORE PUSH1 0x24 PUSH1 0x0 REVERT JUMPDEST PUSH4 0x4E487B71 PUSH1 0xE0 SHL PUSH1 0x0 MSTORE PUSH1 0x21 PUSH1 0x4 MSTORE PUSH1 0x24 PUSH1 0x0 REVERT JUMPDEST PUSH4 0x4E487B71 PUSH1 0xE0 SHL PUSH1 0x0 MSTORE PUSH1 0x32 PUSH1 0x4 MSTORE PUSH1 0x24 PUSH1 0x0 REVERT JUMPDEST PUSH4 0x4E487B71 PUSH1 0xE0 SHL PUSH1 0x0 MSTORE PUSH1 0x41 PUSH1 0x4 MSTORE PUSH1 0x24 PUSH1 0x0 REVERT JUMPDEST PUSH1 0x1 PUSH1 0x1 PUSH1 0xA0 SHL SUB DUP2 AND DUP2 EQ PUSH2 0x3D37 JUMPI PUSH1 0x0 DUP1 REVERT JUMPDEST DUP1 ISZERO ISZERO DUP2 EQ PUSH2 0x3D37 JUMPI PUSH1 0x0 DUP1 REVERT JUMPDEST PUSH1 0xC DUP2 LT PUSH2 0x3D37 JUMPI PUSH1 0x0 DUP1 REVERT INVALID LOG2 PUSH5 0x6970667358 0x22 SLT KECCAK256 0xB9 LOG3 0xB2 CALLVALUE PUSH11 0xEE6D6C82E2AB5FD45675D SWAP10 0xD2 PUSH29 0xAE1757F95EBA42A2864CE29E9F64736F6C634300080700330000000000 "
		},
		"gasEstimates": {
			"creation": {
				"codeDepositCost": "4741000",
				"executionCost": "infinite",
				"totalCost": "infinite"
			},
			"external": {
				"acceptForTranslator(uint256,uint256[])": "infinite",
				"acceptForVerifer(uint256,uint256[])": "infinite",
				"addAmphiAddress(address)": "26881",
				"closeFileState(uint256,uint256)": "infinite",
				"closeTask(uint256)": "infinite",
				"endTransAccept(uint256)": "infinite",
				"endTransVf(uint256)": "infinite",
				"getCount()": "infinite",
				"getFileState(uint256,uint256)": "infinite",
				"getIsTransferState(address)": "infinite",
				"getPay(address)": "infinite",
				"getReturnRecord(uint256,uint256)": "infinite",
				"getTaskInfo(uint256)": "infinite",
				"getTaskState(uint256)": "infinite",
				"isAccepted(address,uint256[])": "infinite",
				"newAmphiFee(address)": "26774",
				"newAmphiPass(address)": "26818",
				"newAmphiTrans(address)": "26817",
				"newCalculateUtils(address)": "26818",
				"overTimeTrans(uint256,address)": "infinite",
				"overTimeVf(uint256,address)": "infinite",
				"owner()": "2346",
				"payFine(address)": "infinite",
				"postTask((uint256,string,string,uint256,uint256,uint256,uint256[],uint256,uint256,bool,bool,uint256,((string,uint256,uint256,uint256,uint256,uint256,string),uint256,string,uint8,uint256)[]))": "infinite",
				"receiveTask(uint256,address,uint256,bool,string,string)": "infinite",
				"renounceOwnership()": "infinite",
				"sumbitTaskTrans(uint256,uint256,string)": "infinite",
				"sumbitVf(uint256,uint256,string)": "infinite",
				"transferOwnership(address)": "infinite",
				"updateOther(address)": "26797",
				"updateTask(uint256,(uint256,string,string,uint256,uint256,uint256,uint256[],uint256,uint256,bool,bool,uint256,((string,uint256,uint256,uint256,uint256,uint256,string),uint256,string,uint8,uint256)[]))": "infinite",
				"validate(uint256,address,uint256,bool,string,string)": "infinite"
			},
			"internal": {
				"_isHasNftPass(address)": "infinite"
			}
		},
		"methodIdentifiers": {
			"acceptForTranslator(uint256,uint256[])": "fa4c6473",
			"acceptForVerifer(uint256,uint256[])": "3bd14e13",
			"addAmphiAddress(address)": "18fe0839",
			"closeFileState(uint256,uint256)": "97601efb",
			"closeTask(uint256)": "1201dfc6",
			"endTransAccept(uint256)": "8adc74a5",
			"endTransVf(uint256)": "a55af701",
			"getCount()": "a87d942c",
			"getFileState(uint256,uint256)": "ad607c72",
			"getIsTransferState(address)": "00a7e49e",
			"getPay(address)": "d3d7bc3b",
			"getReturnRecord(uint256,uint256)": "787a8aa2",
			"getTaskInfo(uint256)": "d1a1b999",
			"getTaskState(uint256)": "ffcce776",
			"isAccepted(address,uint256[])": "a0f420d9",
			"newAmphiFee(address)": "b2b2d285",
			"newAmphiPass(address)": "c5dd0208",
			"newAmphiTrans(address)": "fc2381e1",
			"newCalculateUtils(address)": "da24c822",
			"overTimeTrans(uint256,address)": "5b0ef140",
			"overTimeVf(uint256,address)": "36d61ae0",
			"owner()": "8da5cb5b",
			"payFine(address)": "3edfa229",
			"postTask((uint256,string,string,uint256,uint256,uint256,uint256[],uint256,uint256,bool,bool,uint256,((string,uint256,uint256,uint256,uint256,uint256,string),uint256,string,uint8,uint256)[]))": "ac35cd61",
			"receiveTask(uint256,address,uint256,bool,string,string)": "cb0678b2",
			"renounceOwnership()": "715018a6",
			"sumbitTaskTrans(uint256,uint256,string)": "bb0c38c0",
			"sumbitVf(uint256,uint256,string)": "1f1753b1",
			"transferOwnership(address)": "f2fde38b",
			"updateOther(address)": "aaf7a42d",
			"updateTask(uint256,(uint256,string,string,uint256,uint256,uint256,uint256[],uint256,uint256,bool,bool,uint256,((string,uint256,uint256,uint256,uint256,uint256,string),uint256,string,uint8,uint256)[]))": "09a02f58",
			"validate(uint256,address,uint256,bool,string,string)": "e95c06fb"
		}
	},
	"abi": [
		{
			"inputs": [
				{
					"internalType": "address",
					"name": "_passAddress",
					"type": "address"
				},
				{
					"internalType": "address",
					"name": "_utilsAddress",
					"type": "address"
				},
				{
					"internalType": "address",
					"name": "_serviceAddress",
					"type": "address"
				},
				{
					"internalType": "address",
					"name": "_otherAddress",
					"type": "address"
				},
				{
					"internalType": "address",
					"name": "_ercAddress",
					"type": "address"
				}
			],
			"stateMutability": "nonpayable",
			"type": "constructor"
		},
		{
			"inputs": [
				{
					"internalType": "string",
					"name": "",
					"type": "string"
				},
				{
					"internalType": "uint256",
					"name": "",
					"type": "uint256"
				}
			],
			"name": "ErrorValue",
			"type": "error"
		},
		{
			"inputs": [
				{
					"internalType": "string",
					"name": "",
					"type": "string"
				}
			],
			"name": "ParameterException",
			"type": "error"
		},
		{
			"inputs": [
				{
					"internalType": "string",
					"name": "",
					"type": "string"
				}
			],
			"name": "Permissions",
			"type": "error"
		},
		{
			"anonymous": false,
			"inputs": [
				{
					"indexed": true,
					"internalType": "address",
					"name": "previousOwner",
					"type": "address"
				},
				{
					"indexed": true,
					"internalType": "address",
					"name": "newOwner",
					"type": "address"
				}
			],
			"name": "OwnershipTransferred",
			"type": "event"
		},
		{
			"inputs": [
				{
					"internalType": "uint256",
					"name": "_index",
					"type": "uint256"
				},
				{
					"internalType": "uint256[]",
					"name": "_fileIndex",
					"type": "uint256[]"
				}
			],
			"name": "acceptForTranslator",
			"outputs": [],
			"stateMutability": "nonpayable",
			"type": "function"
		},
		{
			"inputs": [
				{
					"internalType": "uint256",
					"name": "_index",
					"type": "uint256"
				},
				{
					"internalType": "uint256[]",
					"name": "_fileIndex",
					"type": "uint256[]"
				}
			],
			"name": "acceptForVerifer",
			"outputs": [],
			"stateMutability": "nonpayable",
			"type": "function"
		},
		{
			"inputs": [
				{
					"internalType": "address",
					"name": "_amphiAddress",
					"type": "address"
				}
			],
			"name": "addAmphiAddress",
			"outputs": [],
			"stateMutability": "nonpayable",
			"type": "function"
		},
		{
			"inputs": [
				{
					"internalType": "uint256",
					"name": "_index",
					"type": "uint256"
				},
				{
					"internalType": "uint256",
					"name": "_fileIndex",
					"type": "uint256"
				}
			],
			"name": "closeFileState",
			"outputs": [],
			"stateMutability": "nonpayable",
			"type": "function"
		},
		{
			"inputs": [
				{
					"internalType": "uint256",
					"name": "_index",
					"type": "uint256"
				}
			],
			"name": "closeTask",
			"outputs": [],
			"stateMutability": "nonpayable",
			"type": "function"
		},
		{
			"inputs": [
				{
					"internalType": "uint256",
					"name": "_index",
					"type": "uint256"
				}
			],
			"name": "endTransAccept",
			"outputs": [],
			"stateMutability": "nonpayable",
			"type": "function"
		},
		{
			"inputs": [
				{
					"internalType": "uint256",
					"name": "_index",
					"type": "uint256"
				}
			],
			"name": "endTransVf",
			"outputs": [
				{
					"internalType": "bool",
					"name": "",
					"type": "bool"
				},
				{
					"internalType": "string",
					"name": "",
					"type": "string"
				}
			],
			"stateMutability": "nonpayable",
			"type": "function"
		},
		{
			"inputs": [],
			"name": "getCount",
			"outputs": [
				{
					"internalType": "uint256",
					"name": "",
					"type": "uint256"
				}
			],
			"stateMutability": "view",
			"type": "function"
		},
		{
			"inputs": [
				{
					"internalType": "uint256",
					"name": "_index",
					"type": "uint256"
				},
				{
					"internalType": "uint256",
					"name": "_fileIndex",
					"type": "uint256"
				}
			],
			"name": "getFileState",
			"outputs": [
				{
					"internalType": "enum LibProject.FileState",
					"name": "",
					"type": "uint8"
				}
			],
			"stateMutability": "view",
			"type": "function"
		},
		{
			"inputs": [
				{
					"internalType": "address",
					"name": "_address",
					"type": "address"
				}
			],
			"name": "getIsTransferState",
			"outputs": [
				{
					"internalType": "bool",
					"name": "",
					"type": "bool"
				}
			],
			"stateMutability": "view",
			"type": "function"
		},
		{
			"inputs": [
				{
					"internalType": "address",
					"name": "_address",
					"type": "address"
				}
			],
			"name": "getPay",
			"outputs": [
				{
					"internalType": "uint256",
					"name": "",
					"type": "uint256"
				}
			],
			"stateMutability": "view",
			"type": "function"
		},
		{
			"inputs": [
				{
					"internalType": "uint256",
					"name": "_index",
					"type": "uint256"
				},
				{
					"internalType": "uint256",
					"name": "_fileIndex",
					"type": "uint256"
				}
			],
			"name": "getReturnRecord",
			"outputs": [
				{
					"components": [
						{
							"internalType": "address",
							"name": "toAddress",
							"type": "address"
						},
						{
							"internalType": "string",
							"name": "returnFile",
							"type": "string"
						},
						{
							"internalType": "string",
							"name": "illustrate",
							"type": "string"
						}
					],
					"internalType": "struct LibProject.ReturnRecord",
					"name": "",
					"type": "tuple"
				}
			],
			"stateMutability": "view",
			"type": "function"
		},
		{
			"inputs": [
				{
					"internalType": "uint256",
					"name": "_index",
					"type": "uint256"
				}
			],
			"name": "getTaskInfo",
			"outputs": [
				{
					"components": [
						{
							"components": [
								{
									"internalType": "address",
									"name": "buyer",
									"type": "address"
								},
								{
									"internalType": "uint256",
									"name": "releaseTime",
									"type": "uint256"
								},
								{
									"internalType": "string",
									"name": "introduce",
									"type": "string"
								},
								{
									"internalType": "string",
									"name": "need",
									"type": "string"
								},
								{
									"internalType": "uint256",
									"name": "deadline",
									"type": "uint256"
								},
								{
									"internalType": "uint256",
									"name": "sourceLanguage",
									"type": "uint256"
								},
								{
									"internalType": "uint256",
									"name": "goalLanguage",
									"type": "uint256"
								},
								{
									"internalType": "uint256[]",
									"name": "preferList",
									"type": "uint256[]"
								},
								{
									"internalType": "uint256",
									"name": "translationType",
									"type": "uint256"
								},
								{
									"internalType": "uint256",
									"name": "workLoad",
									"type": "uint256"
								},
								{
									"internalType": "bool",
									"name": "isNonDisclosure",
									"type": "bool"
								},
								{
									"internalType": "bool",
									"name": "isCustomize",
									"type": "bool"
								},
								{
									"internalType": "uint256",
									"name": "bounty",
									"type": "uint256"
								},
								{
									"components": [
										{
											"components": [
												{
													"internalType": "string",
													"name": "name",
													"type": "string"
												},
												{
													"internalType": "uint256",
													"name": "size",
													"type": "uint256"
												},
												{
													"internalType": "uint256",
													"name": "videoLength",
													"type": "uint256"
												},
												{
													"internalType": "uint256",
													"name": "Page",
													"type": "uint256"
												},
												{
													"internalType": "uint256",
													"name": "words",
													"type": "uint256"
												},
												{
													"internalType": "uint256",
													"name": "fileType",
													"type": "uint256"
												},
												{
													"internalType": "string",
													"name": "path",
													"type": "string"
												}
											],
											"internalType": "struct LibProject.FileInfo",
											"name": "file",
											"type": "tuple"
										},
										{
											"internalType": "uint256",
											"name": "bounty",
											"type": "uint256"
										},
										{
											"internalType": "string",
											"name": "info",
											"type": "string"
										},
										{
											"internalType": "enum LibProject.FileState",
											"name": "state",
											"type": "uint8"
										},
										{
											"internalType": "uint256",
											"name": "lastUpload",
											"type": "uint256"
										}
									],
									"internalType": "struct LibProject.TaskInfo[]",
									"name": "tasks",
									"type": "tuple[]"
								},
								{
									"internalType": "address[]",
									"name": "translators",
									"type": "address[]"
								},
								{
									"internalType": "address[]",
									"name": "verifiers",
									"type": "address[]"
								},
								{
									"internalType": "uint256",
									"name": "maxT",
									"type": "uint256"
								},
								{
									"internalType": "uint256",
									"name": "maxV",
									"type": "uint256"
								},
								{
									"internalType": "uint256",
									"name": "numberT",
									"type": "uint256"
								},
								{
									"internalType": "uint256",
									"name": "numberV",
									"type": "uint256"
								},
								{
									"internalType": "bool",
									"name": "isTransActive",
									"type": "bool"
								},
								{
									"internalType": "bool",
									"name": "isVerActive",
									"type": "bool"
								},
								{
									"internalType": "enum LibProject.ProjectState",
									"name": "state",
									"type": "uint8"
								}
							],
							"internalType": "struct LibProject.TranslationPro",
							"name": "pro",
							"type": "tuple"
						},
						{
							"components": [
								{
									"internalType": "address",
									"name": "taskerAddress",
									"type": "address"
								},
								{
									"internalType": "uint256[]",
									"name": "taskIndex",
									"type": "uint256[]"
								},
								{
									"components": [
										{
											"internalType": "enum LibProject.TaskerState",
											"name": "state",
											"type": "uint8"
										},
										{
											"internalType": "string",
											"name": "file",
											"type": "string"
										},
										{
											"internalType": "bool",
											"name": "isUsed",
											"type": "bool"
										}
									],
									"internalType": "struct LibProject.FileIndexInfo[]",
									"name": "taskerinfo",
									"type": "tuple[]"
								}
							],
							"internalType": "struct LibProject.ReturnTasker[]",
							"name": "transInfo",
							"type": "tuple[]"
						},
						{
							"components": [
								{
									"internalType": "address",
									"name": "taskerAddress",
									"type": "address"
								},
								{
									"internalType": "uint256[]",
									"name": "taskIndex",
									"type": "uint256[]"
								},
								{
									"components": [
										{
											"internalType": "enum LibProject.TaskerState",
											"name": "state",
											"type": "uint8"
										},
										{
											"internalType": "string",
											"name": "file",
											"type": "string"
										},
										{
											"internalType": "bool",
											"name": "isUsed",
											"type": "bool"
										}
									],
									"internalType": "struct LibProject.FileIndexInfo[]",
									"name": "taskerinfo",
									"type": "tuple[]"
								}
							],
							"internalType": "struct LibProject.ReturnTasker[]",
							"name": "vfInfo",
							"type": "tuple[]"
						}
					],
					"internalType": "struct LibProject.ReturnTask",
					"name": "",
					"type": "tuple"
				}
			],
			"stateMutability": "view",
			"type": "function"
		},
		{
			"inputs": [
				{
					"internalType": "uint256",
					"name": "_index",
					"type": "uint256"
				}
			],
			"name": "getTaskState",
			"outputs": [
				{
					"internalType": "enum LibProject.ProjectState",
					"name": "",
					"type": "uint8"
				}
			],
			"stateMutability": "view",
			"type": "function"
		},
		{
			"inputs": [
				{
					"internalType": "address",
					"name": "_address",
					"type": "address"
				},
				{
					"internalType": "uint256[]",
					"name": "_info",
					"type": "uint256[]"
				}
			],
			"name": "isAccepted",
			"outputs": [
				{
					"internalType": "bool",
					"name": "",
					"type": "bool"
				}
			],
			"stateMutability": "view",
			"type": "function"
		},
		{
			"inputs": [
				{
					"internalType": "address",
					"name": "_newAddress",
					"type": "address"
				}
			],
			"name": "newAmphiFee",
			"outputs": [],
			"stateMutability": "nonpayable",
			"type": "function"
		},
		{
			"inputs": [
				{
					"internalType": "address",
					"name": "_newAddress",
					"type": "address"
				}
			],
			"name": "newAmphiPass",
			"outputs": [],
			"stateMutability": "nonpayable",
			"type": "function"
		},
		{
			"inputs": [
				{
					"internalType": "address",
					"name": "_newAddress",
					"type": "address"
				}
			],
			"name": "newAmphiTrans",
			"outputs": [],
			"stateMutability": "nonpayable",
			"type": "function"
		},
		{
			"inputs": [
				{
					"internalType": "address",
					"name": "_newAddress",
					"type": "address"
				}
			],
			"name": "newCalculateUtils",
			"outputs": [],
			"stateMutability": "nonpayable",
			"type": "function"
		},
		{
			"inputs": [
				{
					"internalType": "uint256",
					"name": "_index",
					"type": "uint256"
				},
				{
					"internalType": "address",
					"name": "_tasker",
					"type": "address"
				}
			],
			"name": "overTimeTrans",
			"outputs": [
				{
					"internalType": "uint256",
					"name": "",
					"type": "uint256"
				}
			],
			"stateMutability": "nonpayable",
			"type": "function"
		},
		{
			"inputs": [
				{
					"internalType": "uint256",
					"name": "_index",
					"type": "uint256"
				},
				{
					"internalType": "address",
					"name": "_tasker",
					"type": "address"
				}
			],
			"name": "overTimeVf",
			"outputs": [
				{
					"internalType": "uint256",
					"name": "",
					"type": "uint256"
				}
			],
			"stateMutability": "nonpayable",
			"type": "function"
		},
		{
			"inputs": [],
			"name": "owner",
			"outputs": [
				{
					"internalType": "address",
					"name": "",
					"type": "address"
				}
			],
			"stateMutability": "view",
			"type": "function"
		},
		{
			"inputs": [
				{
					"internalType": "address",
					"name": "_to",
					"type": "address"
				}
			],
			"name": "payFine",
			"outputs": [],
			"stateMutability": "nonpayable",
			"type": "function"
		},
		{
			"inputs": [
				{
					"components": [
						{
							"internalType": "uint256",
							"name": "releaseTime",
							"type": "uint256"
						},
						{
							"internalType": "string",
							"name": "introduce",
							"type": "string"
						},
						{
							"internalType": "string",
							"name": "need",
							"type": "string"
						},
						{
							"internalType": "uint256",
							"name": "deadline",
							"type": "uint256"
						},
						{
							"internalType": "uint256",
							"name": "sourceLanguage",
							"type": "uint256"
						},
						{
							"internalType": "uint256",
							"name": "goalLanguage",
							"type": "uint256"
						},
						{
							"internalType": "uint256[]",
							"name": "preferList",
							"type": "uint256[]"
						},
						{
							"internalType": "uint256",
							"name": "translationType",
							"type": "uint256"
						},
						{
							"internalType": "uint256",
							"name": "workLoad",
							"type": "uint256"
						},
						{
							"internalType": "bool",
							"name": "isNonDisclosure",
							"type": "bool"
						},
						{
							"internalType": "bool",
							"name": "isCustomize",
							"type": "bool"
						},
						{
							"internalType": "uint256",
							"name": "bounty",
							"type": "uint256"
						},
						{
							"components": [
								{
									"components": [
										{
											"internalType": "string",
											"name": "name",
											"type": "string"
										},
										{
											"internalType": "uint256",
											"name": "size",
											"type": "uint256"
										},
										{
											"internalType": "uint256",
											"name": "videoLength",
											"type": "uint256"
										},
										{
											"internalType": "uint256",
											"name": "Page",
											"type": "uint256"
										},
										{
											"internalType": "uint256",
											"name": "words",
											"type": "uint256"
										},
										{
											"internalType": "uint256",
											"name": "fileType",
											"type": "uint256"
										},
										{
											"internalType": "string",
											"name": "path",
											"type": "string"
										}
									],
									"internalType": "struct LibProject.FileInfo",
									"name": "file",
									"type": "tuple"
								},
								{
									"internalType": "uint256",
									"name": "bounty",
									"type": "uint256"
								},
								{
									"internalType": "string",
									"name": "info",
									"type": "string"
								},
								{
									"internalType": "enum LibProject.FileState",
									"name": "state",
									"type": "uint8"
								},
								{
									"internalType": "uint256",
									"name": "lastUpload",
									"type": "uint256"
								}
							],
							"internalType": "struct LibProject.TaskInfo[]",
							"name": "tasks",
							"type": "tuple[]"
						}
					],
					"internalType": "struct LibProject.ProParm",
					"name": "_t",
					"type": "tuple"
				}
			],
			"name": "postTask",
			"outputs": [
				{
					"internalType": "uint256",
					"name": "_index",
					"type": "uint256"
				}
			],
			"stateMutability": "nonpayable",
			"type": "function"
		},
		{
			"inputs": [
				{
					"internalType": "uint256",
					"name": "_index",
					"type": "uint256"
				},
				{
					"internalType": "address",
					"name": "_taskerIndex",
					"type": "address"
				},
				{
					"internalType": "uint256",
					"name": "_fileIndex",
					"type": "uint256"
				},
				{
					"internalType": "bool",
					"name": "_isPass",
					"type": "bool"
				},
				{
					"internalType": "string",
					"name": "_file",
					"type": "string"
				},
				{
					"internalType": "string",
					"name": "_illustrate",
					"type": "string"
				}
			],
			"name": "receiveTask",
			"outputs": [],
			"stateMutability": "nonpayable",
			"type": "function"
		},
		{
			"inputs": [],
			"name": "renounceOwnership",
			"outputs": [],
			"stateMutability": "nonpayable",
			"type": "function"
		},
		{
			"inputs": [
				{
					"internalType": "uint256",
					"name": "_index",
					"type": "uint256"
				},
				{
					"internalType": "uint256",
					"name": "_fileIndex",
					"type": "uint256"
				},
				{
					"internalType": "string",
					"name": "_file",
					"type": "string"
				}
			],
			"name": "sumbitTaskTrans",
			"outputs": [],
			"stateMutability": "nonpayable",
			"type": "function"
		},
		{
			"inputs": [
				{
					"internalType": "uint256",
					"name": "_index",
					"type": "uint256"
				},
				{
					"internalType": "uint256",
					"name": "_fileIndex",
					"type": "uint256"
				},
				{
					"internalType": "string",
					"name": "_file",
					"type": "string"
				}
			],
			"name": "sumbitVf",
			"outputs": [],
			"stateMutability": "nonpayable",
			"type": "function"
		},
		{
			"inputs": [
				{
					"internalType": "address",
					"name": "newOwner",
					"type": "address"
				}
			],
			"name": "transferOwnership",
			"outputs": [],
			"stateMutability": "nonpayable",
			"type": "function"
		},
		{
			"inputs": [
				{
					"internalType": "address",
					"name": "_newAddress",
					"type": "address"
				}
			],
			"name": "updateOther",
			"outputs": [],
			"stateMutability": "nonpayable",
			"type": "function"
		},
		{
			"inputs": [
				{
					"internalType": "uint256",
					"name": "_index",
					"type": "uint256"
				},
				{
					"components": [
						{
							"internalType": "uint256",
							"name": "releaseTime",
							"type": "uint256"
						},
						{
							"internalType": "string",
							"name": "introduce",
							"type": "string"
						},
						{
							"internalType": "string",
							"name": "need",
							"type": "string"
						},
						{
							"internalType": "uint256",
							"name": "deadline",
							"type": "uint256"
						},
						{
							"internalType": "uint256",
							"name": "sourceLanguage",
							"type": "uint256"
						},
						{
							"internalType": "uint256",
							"name": "goalLanguage",
							"type": "uint256"
						},
						{
							"internalType": "uint256[]",
							"name": "preferList",
							"type": "uint256[]"
						},
						{
							"internalType": "uint256",
							"name": "translationType",
							"type": "uint256"
						},
						{
							"internalType": "uint256",
							"name": "workLoad",
							"type": "uint256"
						},
						{
							"internalType": "bool",
							"name": "isNonDisclosure",
							"type": "bool"
						},
						{
							"internalType": "bool",
							"name": "isCustomize",
							"type": "bool"
						},
						{
							"internalType": "uint256",
							"name": "bounty",
							"type": "uint256"
						},
						{
							"components": [
								{
									"components": [
										{
											"internalType": "string",
											"name": "name",
											"type": "string"
										},
										{
											"internalType": "uint256",
											"name": "size",
											"type": "uint256"
										},
										{
											"internalType": "uint256",
											"name": "videoLength",
											"type": "uint256"
										},
										{
											"internalType": "uint256",
											"name": "Page",
											"type": "uint256"
										},
										{
											"internalType": "uint256",
											"name": "words",
											"type": "uint256"
										},
										{
											"internalType": "uint256",
											"name": "fileType",
											"type": "uint256"
										},
										{
											"internalType": "string",
											"name": "path",
											"type": "string"
										}
									],
									"internalType": "struct LibProject.FileInfo",
									"name": "file",
									"type": "tuple"
								},
								{
									"internalType": "uint256",
									"name": "bounty",
									"type": "uint256"
								},
								{
									"internalType": "string",
									"name": "info",
									"type": "string"
								},
								{
									"internalType": "enum LibProject.FileState",
									"name": "state",
									"type": "uint8"
								},
								{
									"internalType": "uint256",
									"name": "lastUpload",
									"type": "uint256"
								}
							],
							"internalType": "struct LibProject.TaskInfo[]",
							"name": "tasks",
							"type": "tuple[]"
						}
					],
					"internalType": "struct LibProject.ProParm",
					"name": "_t",
					"type": "tuple"
				}
			],
			"name": "updateTask",
			"outputs": [],
			"stateMutability": "nonpayable",
			"type": "function"
		},
		{
			"inputs": [
				{
					"internalType": "uint256",
					"name": "_index",
					"type": "uint256"
				},
				{
					"internalType": "address",
					"name": "_trans",
					"type": "address"
				},
				{
					"internalType": "uint256",
					"name": "_fileIndex",
					"type": "uint256"
				},
				{
					"internalType": "bool",
					"name": "_isPass",
					"type": "bool"
				},
				{
					"internalType": "string",
					"name": "_file",
					"type": "string"
				},
				{
					"internalType": "string",
					"name": "_illustrate",
					"type": "string"
				}
			],
			"name": "validate",
			"outputs": [],
			"stateMutability": "nonpayable",
			"type": "function"
		}
	]
}