{
	"data": {
		"bytecode": {
			"linkReferences": {},
			"object": "60806040523480156200001157600080fd5b506040516200822d3803806200822d8339810160408190526200003491620000fa565b6200003f336200008d565b600180546001600160a01b03199081163317909155600280546001600160a01b0395861690831617905560038054938516938216939093179092556004805491909316911617905562000144565b600080546001600160a01b038381166001600160a01b0319831681178455604051919092169283917f8be0079c531659141344cd1fd0a4f28419497f9722a3daafe3b4186f6b6457e09190a35050565b80516001600160a01b0381168114620000f557600080fd5b919050565b6000806000606084860312156200011057600080fd5b6200011b84620000dd565b92506200012b60208501620000dd565b91506200013b60408501620000dd565b90509250925092565b6180d980620001546000396000f3fe6080604052600436106101b85760003560e01c80638da5cb5b116100eb578063c5dd02081161008f578063f2fde38b11610061578063f2fde38b146104e2578063fa4c647314610502578063fc2381e114610522578063ffcce7761461054257005b8063c5dd020814610455578063d1a1b99914610475578063d3d7bc3b146104a2578063da24c822146104c257005b8063a87d942c116100c8578063a87d942c146103e0578063ac35cd61146103f5578063ad607c7214610408578063bb0c38c01461043557005b80638da5cb5b1461037857806397601efb146103a0578063a55af701146103c057005b80633bd14e131161015d578063627a62f31161012f578063627a62f31461031b578063715018a61461032e578063853828b6146103435780638adc74a51461035857005b80633bd14e13146102c05780633edfa229146102e0578063460968dd146102f35780635b0ef140146102fb57005b806322968885116101965780632296888514610243578063243634bf146102605780632e1a7d4d1461028057806336d61ae0146102a057005b8062a7e49e146101c157806309a02f58146102105780631201dfc61461022357005b366101bf57005b005b3480156101cd57600080fd5b506101fb6101dc366004616898565b6001600160a01b031660009081526005602052604090205460ff161590565b60405190151581526020015b60405180910390f35b6101bf61021e366004616def565b61056f565b34801561022f57600080fd5b506101bf61023e366004616e36565b610875565b34801561024f57600080fd5b50475b604051908152602001610207565b34801561026c57600080fd5b506101bf61027b366004616e4f565b6108ef565b34801561028c57600080fd5b506101bf61029b366004616e36565b610afc565b3480156102ac57600080fd5b506102526102bb366004616ec5565b610b10565b3480156102cc57600080fd5b506101bf6102db366004616ef5565b610c70565b6101bf6102ee366004616898565b611001565b6101bf611193565b34801561030757600080fd5b50610252610316366004616ec5565b611271565b6101bf610329366004616f32565b611347565b34801561033a57600080fd5b506101bf611921565b34801561034f57600080fd5b506101bf611935565b34801561036457600080fd5b506101bf610373366004616e36565b611945565b34801561038457600080fd5b506000546040516001600160a01b039091168152602001610207565b3480156103ac57600080fd5b506101bf6103bb366004616f91565b611a2a565b3480156103cc57600080fd5b506101bf6103db366004616e36565b611aae565b3480156103ec57600080fd5b50610252611b8d565b610252610403366004616fb3565b611c19565b34801561041457600080fd5b50610428610423366004616f91565b611e68565b6040516102079190617033565b34801561044157600080fd5b506101bf610450366004617041565b611eff565b34801561046157600080fd5b506101bf610470366004616898565b6120ed565b34801561048157600080fd5b50610495610490366004616e36565b61212f565b6040516102079190617385565b3480156104ae57600080fd5b506102526104bd366004616898565b6127ad565b3480156104ce57600080fd5b506101bf6104dd366004616898565b612835565b3480156104ee57600080fd5b506101bf6104fd366004616898565b612877565b34801561050e57600080fd5b506101bf61051d366004616ef5565b612904565b34801561052e57600080fd5b506101bf61053d366004616898565b612c6b565b34801561054e57600080fd5b5061056261055d366004616e36565b612cad565b60405161020791906175c3565b600354604080517fa87d942c000000000000000000000000000000000000000000000000000000008152905184926001600160a01b03169163a87d942c9160048083019260209291908290030181865afa1580156105d1573d6000803e3d6000fd5b505050506040513d601f19601f820116820180604052508101906105f591906175d1565b81111561064a5760405163347626dd60e21b815260206004820152601260248201527f57726f6e6720696e6465782076616c756521000000000000000000000000000060448201526064015b60405180910390fd5b6003546040517f5bf608b800000000000000000000000000000000000000000000000000000000815260048101859052849133916001600160a01b0390911690635bf608b890602401602060405180830381865afa1580156106b0573d6000803e3d6000fd5b505050506040513d601f19601f820116820180604052508101906106d491906175f5565b6001600160a01b03161461072a5760405162461bcd60e51b815260206004820152600a60248201527f4f6e6c79206275796572000000000000000000000000000000000000000000006044820152606401610641565b6107348484612d34565b600480546101608501516040517ff74f365500000000000000000000000000000000000000000000000000000000815292830152601e60248301526000916001600160a01b039091169063f74f365590604401602060405180830381865afa1580156107a4573d6000803e3d6000fd5b505050506040513d601f19601f820116820180604052508101906107c891906175d1565b90506107dc81670de0b6b3a7640000617641565b341461084c57604080517f79d3124b0000000000000000000000000000000000000000000000000000000081526004810191909152600f60448201527f496e636f72726563742076616c756500000000000000000000000000000000006064820152346024820152608401610641565b336000908152600560205260409020805460ff1916600117905561086e611193565b5050505050565b6003546040517f17e925d70000000000000000000000000000000000000000000000000000000081526001600160a01b03909116906317e925d7906108c1908490600690600401617658565b600060405180830381600087803b1580156108db57600080fd5b505af115801561086e573d6000803e3d6000fd5b600354604080517fa87d942c000000000000000000000000000000000000000000000000000000008152905187926001600160a01b03169163a87d942c9160048083019260209291908290030181865afa158015610951573d6000803e3d6000fd5b505050506040513d601f19601f8201168201806040525081019061097591906175d1565b8111156109c55760405163347626dd60e21b815260206004820152601260248201527f57726f6e6720696e6465782076616c75652100000000000000000000000000006044820152606401610641565b6003546040517fad607c7200000000000000000000000000000000000000000000000000000000815260048101889052602481018690526000916001600160a01b03169063ad607c7290604401602060405180830381865afa158015610a2f573d6000803e3d6000fd5b505050506040513d601f19601f82011682018060405250810190610a539190617677565b9050600781600b811115610a6957610a69616ff0565b1115610ad1576040517fb4644dd900000000000000000000000000000000000000000000000000000000815260206004820152601060248201527f756e61626c6520746f207375626d6974000000000000000000000000000000006044820152606401610641565b6000610ae08888888888612df0565b90508015610af257610af28782613094565b5050505050505050565b610b046132ae565b610b0d81613308565b50565b600082600360009054906101000a90046001600160a01b03166001600160a01b031663a87d942c6040518163ffffffff1660e01b8152600401602060405180830381865afa158015610b66573d6000803e3d6000fd5b505050506040513d601f19601f82011682018060405250810190610b8a91906175d1565b811115610bda5760405163347626dd60e21b815260206004820152601260248201527f57726f6e6720696e6465782076616c75652100000000000000000000000000006044820152606401610641565b6000610be68585613402565b6003546040517f172372c20000000000000000000000000000000000000000000000000000000081526001600160a01b0387811660048301526024820184905292935091169063172372c290604401600060405180830381600087803b158015610c4f57600080fd5b505af1158015610c63573d6000803e3d6000fd5b5092979650505050505050565b610c7933613857565b610cdf576040517f0934f2c300000000000000000000000000000000000000000000000000000000815260206004820152601260248201527f4e6f7420486176652050617373204e46542100000000000000000000000000006044820152606401610641565b600354604080517fa87d942c000000000000000000000000000000000000000000000000000000008152905184926001600160a01b03169163a87d942c9160048083019260209291908290030181865afa158015610d41573d6000803e3d6000fd5b505050506040513d601f19601f82011682018060405250810190610d6591906175d1565b811115610db55760405163347626dd60e21b815260206004820152601260248201527f57726f6e6720696e6465782076616c75652100000000000000000000000000006044820152606401610641565b6003546040517f546677aa0000000000000000000000000000000000000000000000000000000081526004810185905284916001600160a01b03169063546677aa90602401602060405180830381865afa158015610e17573d6000803e3d6000fd5b505050506040513d601f19601f82011682018060405250810190610e3b919061769f565b610ea1576040517fb4644dd900000000000000000000000000000000000000000000000000000000815260206004820152601260248201527f43616e27742072656365697665207461736b00000000000000000000000000006044820152606401610641565b6003546040517fd3d7bc3b0000000000000000000000000000000000000000000000000000000081523360048201819052916000916001600160a01b039091169063d3d7bc3b90602401602060405180830381865afa158015610f08573d6000803e3d6000fd5b505050506040513d601f19601f82011682018060405250810190610f2c91906175d1565b90508015610f96576040517f0934f2c300000000000000000000000000000000000000000000000000000000815260206004820152600f60248201527f756e706169642070656e616c74792100000000000000000000000000000000006044820152606401610641565b610fa1868633613902565b7f8e913351aa76002e572cc432b46556976f6e10285b52f94909124ea8ebd0b7958686336000604051610fd794939291906176bc565b60405180910390a15050336000908152600560205260409020805460ff1916600117905550505050565b6003546040517fd3d7bc3b0000000000000000000000000000000000000000000000000000000081526001600160a01b0383811660048301529091169063d3d7bc3b90602401602060405180830381865afa158015611064573d6000803e3d6000fd5b505050506040513d601f19601f8201168201806040525081019061108891906175d1565b61109a90670de0b6b3a7640000617641565b34111561110b57604080517f79d3124b0000000000000000000000000000000000000000000000000000000081526004810191909152601160448201527f76616c756520697320746f6f20686967680000000000000000000000000000006064820152346024820152608401610641565b6003546040517f57840da60000000000000000000000000000000000000000000000000000000081526001600160a01b038381166004830152346024830152909116906357840da690604401600060405180830381600087803b15801561117157600080fd5b505af1158015611185573d6000803e3d6000fd5b50505050610b0d8134613de4565b604051600090309034908381818185875af1925050503d80600081146111d5576040519150601f19603f3d011682016040523d82523d6000602084013e6111da565b606091505b505090508061122b5760405162461bcd60e51b815260206004820152600b60248201527f43616c6c206661696c65640000000000000000000000000000000000000000006044820152606401610641565b6040805133815230602082015234918101919091527fb37bd6f3ccfce130859d4569dc432409f423a7928e73eb5c5049a94e40f0c648906060015b60405180910390a150565b600082600360009054906101000a90046001600160a01b03166001600160a01b031663a87d942c6040518163ffffffff1660e01b8152600401602060405180830381865afa1580156112c7573d6000803e3d6000fd5b505050506040513d601f19601f820116820180604052508101906112eb91906175d1565b81111561133b5760405163347626dd60e21b815260206004820152601260248201527f57726f6e6720696e6465782076616c75652100000000000000000000000000006044820152606401610641565b6000610be68585613f75565b600354604080517fa87d942c000000000000000000000000000000000000000000000000000000008152905187926001600160a01b03169163a87d942c9160048083019260209291908290030181865afa1580156113a9573d6000803e3d6000fd5b505050506040513d601f19601f820116820180604052508101906113cd91906175d1565b81111561141d5760405163347626dd60e21b815260206004820152601260248201527f57726f6e6720696e6465782076616c75652100000000000000000000000000006044820152606401610641565b6003546040517f5bf608b800000000000000000000000000000000000000000000000000000000815260048101889052879133916001600160a01b0390911690635bf608b890602401602060405180830381865afa158015611483573d6000803e3d6000fd5b505050506040513d601f19601f820116820180604052508101906114a791906175f5565b6001600160a01b0316146114fd5760405162461bcd60e51b815260206004820152600a60248201527f4f6e6c79206275796572000000000000000000000000000000000000000000006044820152606401610641565b6003546040517f7c34eb85000000000000000000000000000000000000000000000000000000008152600481018990526000916001600160a01b031690637c34eb8590602401602060405180830381865afa158015611560573d6000803e3d6000fd5b505050506040513d601f19601f82011682018060405250810190611584919061769f565b1561161d576003546040517fe1ca7ca7000000000000000000000000000000000000000000000000000000008152600481018a9052602481018890526001600160a01b039091169063e1ca7ca790604401602060405180830381865afa1580156115f2573d6000803e3d6000fd5b505050506040513d601f19601f8201168201806040525081019061161691906175d1565b90506116a6565b6003546040517f6e973982000000000000000000000000000000000000000000000000000000008152600481018a90526001600160a01b0390911690636e97398290602401602060405180830381865afa15801561167f573d6000803e3d6000fd5b505050506040513d601f19601f820116820180604052508101906116a391906175d1565b90505b6116b288888888614270565b8415611900576004546000906001600160a01b031663f74f36556116de84670de0b6b3a7640000617641565b6040517fffffffff0000000000000000000000000000000000000000000000000000000060e084901b168152600481019190915260466024820152604401602060405180830381865afa158015611739573d6000803e3d6000fd5b505050506040513d601f19601f8201168201806040525081019061175d91906175d1565b9050803410156117d157604080517f79d3124b0000000000000000000000000000000000000000000000000000000081526004810191909152601760448201527f6572726f72203a20496e636f72726563742076616c75650000000000000000006064820152346024820152608401610641565b6117d9611193565b6004546000906001600160a01b0316635c8300986117ff85670de0b6b3a7640000617641565b6040518263ffffffff1660e01b815260040161181d91815260200190565b602060405180830381865afa15801561183a573d6000803e3d6000fd5b505050506040513d601f19601f8201168201806040525081019061185e91906175d1565b6004549091506000906001600160a01b031663a3cb7c5561188786670de0b6b3a7640000617641565b6040518263ffffffff1660e01b81526004016118a591815260200190565b602060405180830381865afa1580156118c2573d6000803e3d6000fd5b505050506040513d601f19601f820116820180604052508101906118e691906175d1565b90506118f28a83613094565b6118fc8782613094565b5050505b5050336000908152600560205260409020805460ff19169055505050505050565b6119296132ae565b61193360006142b1565b565b61193d6132ae565b611933614319565b600354604080517fa87d942c000000000000000000000000000000000000000000000000000000008152905183926001600160a01b03169163a87d942c9160048083019260209291908290030181865afa1580156119a7573d6000803e3d6000fd5b505050506040513d601f19601f820116820180604052508101906119cb91906175d1565b811115611a1b5760405163347626dd60e21b815260206004820152601260248201527f57726f6e6720696e6465782076616c75652100000000000000000000000000006044820152606401610641565b611a2482614403565b50505050565b6003546040517f1fa2bf4c0000000000000000000000000000000000000000000000000000000081526001600160a01b0390911690631fa2bf4c90611a789085908590600b906004016176f6565b600060405180830381600087803b158015611a9257600080fd5b505af1158015611aa6573d6000803e3d6000fd5b505050505050565b600354604080517fa87d942c000000000000000000000000000000000000000000000000000000008152905183926001600160a01b03169163a87d942c9160048083019260209291908290030181865afa158015611b10573d6000803e3d6000fd5b505050506040513d601f19601f82011682018060405250810190611b3491906175d1565b811115611b845760405163347626dd60e21b815260206004820152601260248201527f57726f6e6720696e6465782076616c75652100000000000000000000000000006044820152606401610641565b611a2482614c82565b600354604080517fa87d942c00000000000000000000000000000000000000000000000000000000815290516000926001600160a01b03169163a87d942c9160048083019260209291908290030181865afa158015611bf0573d6000803e3d6000fd5b505050506040513d601f19601f82011682018060405250810190611c1491906175d1565b905090565b6003546040517fd3d7bc3b0000000000000000000000000000000000000000000000000000000081523360048201819052600092909183916001600160a01b03169063d3d7bc3b90602401602060405180830381865afa158015611c81573d6000803e3d6000fd5b505050506040513d601f19601f82011682018060405250810190611ca591906175d1565b90508015611d0f576040517f0934f2c300000000000000000000000000000000000000000000000000000000815260206004820152600f60248201527f756e706169642070656e616c74792100000000000000000000000000000000006044820152606401610641565b611d1884615772565b6004546101608601519194506000916001600160a01b039091169063f74f365590611d4b90670de0b6b3a7640000617641565b6040517fffffffff0000000000000000000000000000000000000000000000000000000060e084901b1681526004810191909152601e6024820152604401602060405180830381865afa158015611da6573d6000803e3d6000fd5b505050506040513d601f19601f82011682018060405250810190611dca91906175d1565b905080341015611e3e57604080517f79d3124b0000000000000000000000000000000000000000000000000000000081526004810191909152600f60448201527f496e636f72726563742076616c756500000000000000000000000000000000006064820152346024820152608401610641565b336000908152600560205260409020805460ff19166001179055611e60611193565b505050919050565b6003546040517fad607c7200000000000000000000000000000000000000000000000000000000815260048101849052602481018390526000916001600160a01b03169063ad607c7290604401602060405180830381865afa158015611ed2573d6000803e3d6000fd5b505050506040513d601f19601f82011682018060405250810190611ef69190617677565b90505b92915050565b600354604080517fa87d942c000000000000000000000000000000000000000000000000000000008152905185926001600160a01b03169163a87d942c9160048083019260209291908290030181865afa158015611f61573d6000803e3d6000fd5b505050506040513d601f19601f82011682018060405250810190611f8591906175d1565b811115611fd55760405163347626dd60e21b815260206004820152601260248201527f57726f6e6720696e6465782076616c75652100000000000000000000000000006044820152606401610641565b6003546040517fad607c7200000000000000000000000000000000000000000000000000000000815260048101869052602481018590526000916001600160a01b03169063ad607c7290604401602060405180830381865afa15801561203f573d6000803e3d6000fd5b505050506040513d601f19601f820116820180604052508101906120639190617677565b9050600681600b81111561207957612079616ff0565b11156120e1576040517fb4644dd900000000000000000000000000000000000000000000000000000000815260206004820152601060248201527f756e61626c6520746f207375626d6974000000000000000000000000000000006044820152606401610641565b61086e85858533615846565b6120f56132ae565b600280547fffffffffffffffffffffffff0000000000000000000000000000000000000000166001600160a01b0392909216919091179055565b61213761678d565b600354604080517fa87d942c000000000000000000000000000000000000000000000000000000008152905184926001600160a01b03169163a87d942c9160048083019260209291908290030181865afa158015612199573d6000803e3d6000fd5b505050506040513d601f19601f820116820180604052508101906121bd91906175d1565b81111561220d5760405163347626dd60e21b815260206004820152601260248201527f57726f6e6720696e6465782076616c75652100000000000000000000000000006044820152606401610641565b61221561678d565b6003546040517f25e78e70000000000000000000000000000000000000000000000000000000008152600481018690526001600160a01b03909116906325e78e7090602401600060405180830381865afa158015612277573d6000803e3d6000fd5b505050506040513d6000823e601f3d908101601f1916820160405261229f91908101906179b1565b81526003546040517fd2fed69c000000000000000000000000000000000000000000000000000000008152600481018690526000916001600160a01b03169063d2fed69c90602401602060405180830381865afa158015612304573d6000803e3d6000fd5b505050506040513d601f19601f8201168201806040525081019061232891906175d1565b6003546040517ff8626ebb000000000000000000000000000000000000000000000000000000008152600481018890529192506000916001600160a01b039091169063f8626ebb90602401602060405180830381865afa158015612390573d6000803e3d6000fd5b505050506040513d601f19601f820116820180604052508101906123b491906175d1565b6003546040517f983a12a8000000000000000000000000000000000000000000000000000000008152600481018990529192506000916001600160a01b039091169063983a12a890602401600060405180830381865afa15801561241c573d6000803e3d6000fd5b505050506040513d6000823e601f3d908101601f191682016040526124449190810190617bc3565b6003546040517fb647eec3000000000000000000000000000000000000000000000000000000008152600481018a90529192506000916001600160a01b039091169063b647eec390602401600060405180830381865afa1580156124ac573d6000803e3d6000fd5b505050506040513d6000823e601f3d908101601f191682016040526124d49190810190617bc3565b905060008467ffffffffffffffff8111156124f1576124f16168bc565b60405190808252806020026020018201604052801561254f57816020015b61253c604051806060016040528060006001600160a01b0316815260200160608152602001606081525090565b81526020019060019003908161250f5790505b50905060008467ffffffffffffffff81111561256d5761256d6168bc565b6040519080825280602002602001820160405280156125cb57816020015b6125b8604051806060016040528060006001600160a01b0316815260200160608152602001606081525090565b81526020019060019003908161258b5790505b50905060005b868110156126b05760035485516001600160a01b0390911690635fed5eb2908d9088908590811061260457612604617bf8565b60200260200101516040518363ffffffff1660e01b815260040161263b9291909182526001600160a01b0316602082015260400190565b600060405180830381865afa158015612658573d6000803e3d6000fd5b505050506040513d6000823e601f3d908101601f191682016040526126809190810190617c27565b83828151811061269257612692617bf8565b602002602001018190525080806126a890617d88565b9150506125d1565b5060005b858110156127935760035484516001600160a01b0390911690637c35beb7908d908790859081106126e7576126e7617bf8565b60200260200101516040518363ffffffff1660e01b815260040161271e9291909182526001600160a01b0316602082015260400190565b600060405180830381865afa15801561273b573d6000803e3d6000fd5b505050506040513d6000823e601f3d908101601f191682016040526127639190810190617c27565b82828151811061277557612775617bf8565b6020026020010181905250808061278b90617d88565b9150506126b4565b506020870191909152604086015250929695505050505050565b6003546040517fd3d7bc3b0000000000000000000000000000000000000000000000000000000081526001600160a01b038381166004830152600092169063d3d7bc3b90602401602060405180830381865afa158015612811573d6000803e3d6000fd5b505050506040513d601f19601f82011682018060405250810190611ef991906175d1565b61283d6132ae565b600480547fffffffffffffffffffffffff0000000000000000000000000000000000000000166001600160a01b0392909216919091179055565b61287f6132ae565b6001600160a01b0381166128fb5760405162461bcd60e51b815260206004820152602660248201527f4f776e61626c653a206e6577206f776e657220697320746865207a65726f206160448201527f64647265737300000000000000000000000000000000000000000000000000006064820152608401610641565b610b0d816142b1565b61290d33613857565b612973576040517f0934f2c300000000000000000000000000000000000000000000000000000000815260206004820152601260248201527f4e6f7420486176652050617373204e46542100000000000000000000000000006044820152606401610641565b600354604080517fa87d942c000000000000000000000000000000000000000000000000000000008152905184926001600160a01b03169163a87d942c9160048083019260209291908290030181865afa1580156129d5573d6000803e3d6000fd5b505050506040513d601f19601f820116820180604052508101906129f991906175d1565b811115612a495760405163347626dd60e21b815260206004820152601260248201527f57726f6e6720696e6465782076616c75652100000000000000000000000000006044820152606401610641565b6003546040517f9722f0990000000000000000000000000000000000000000000000000000000081526004810185905284916001600160a01b031690639722f09990602401602060405180830381865afa158015612aab573d6000803e3d6000fd5b505050506040513d601f19601f82011682018060405250810190612acf919061769f565b612b35576040517fb4644dd900000000000000000000000000000000000000000000000000000000815260206004820152601260248201527f43616e27742072656365697665207461736b00000000000000000000000000006044820152606401610641565b6003546040517fd3d7bc3b0000000000000000000000000000000000000000000000000000000081523360048201819052916000916001600160a01b039091169063d3d7bc3b90602401602060405180830381865afa158015612b9c573d6000803e3d6000fd5b505050506040513d601f19601f82011682018060405250810190612bc091906175d1565b90508015612c2a576040517f0934f2c300000000000000000000000000000000000000000000000000000000815260206004820152600f60248201527f756e706169642070656e616c74792100000000000000000000000000000000006044820152606401610641565b612c358686336159c4565b7f8e913351aa76002e572cc432b46556976f6e10285b52f94909124ea8ebd0b7958686336001604051610fd794939291906176bc565b612c736132ae565b600380547fffffffffffffffffffffffff0000000000000000000000000000000000000000166001600160a01b0392909216919091179055565b6003546040517fffcce776000000000000000000000000000000000000000000000000000000008152600481018390526000916001600160a01b03169063ffcce77690602401602060405180830381865afa158015612d10573d6000803e3d6000fd5b505050506040513d601f19601f82011682018060405250810190611ef99190617dc0565b6003546040517f1af5fa160000000000000000000000000000000000000000000000000000000081526001600160a01b0390911690631af5fa1690612d7f9085908590600401617eb6565b600060405180830381600087803b158015612d9957600080fd5b505af1158015612dad573d6000803e3d6000fd5b505050507f9096640c11bd5636ced741c9725e5ff774b334455c80e15491f15bb3af0bc265338383604051612de493929190617ecf565b60405180910390a15050565b6000821561307c57612e058686338786615e6a565b6003546040517f7c34eb85000000000000000000000000000000000000000000000000000000008152600481018890526000916001600160a01b031690637c34eb8590602401602060405180830381865afa158015612e68573d6000803e3d6000fd5b505050506040513d601f19601f82011682018060405250810190612e8c919061769f565b90508015612f28576003546040517fe1ca7ca700000000000000000000000000000000000000000000000000000000815260048101899052602481018790526001600160a01b039091169063e1ca7ca790604401602060405180830381865afa158015612efd573d6000803e3d6000fd5b505050506040513d601f19601f82011682018060405250810190612f2191906175d1565b9150612fb1565b6003546040517f6e973982000000000000000000000000000000000000000000000000000000008152600481018990526001600160a01b0390911690636e97398290602401602060405180830381865afa158015612f8a573d6000803e3d6000fd5b505050506040513d601f19601f82011682018060405250810190612fae91906175d1565b91505b6004546001600160a01b031663f74f3655612fd484670de0b6b3a7640000617641565b6040517fffffffff0000000000000000000000000000000000000000000000000000000060e084901b1681526004810191909152601e6024820152604401602060405180830381865afa15801561302f573d6000803e3d6000fd5b505050506040513d601f19601f8201168201806040525081019061305391906175d1565b6001600160a01b0387166000908152600560205260409020805460ff19169055915061308b9050565b613087868686616074565b5060005b95945050505050565b60015474010000000000000000000000000000000000000000900460ff16156130ff5760405162461bcd60e51b815260206004820152601360248201527f546865206c6f636b206973206c6f636b65642e000000000000000000000000006044820152606401610641565b600180547fffffffffffffffffffffff00ffffffffffffffffffffffffffffffffffffffff1674010000000000000000000000000000000000000000179055806131464790565b10156131945760405162461bcd60e51b815260206004820152601e60248201527f5468652062616c616e6365206973206e6f742073756666696369656e742e00006044820152606401610641565b6000826001600160a01b03168260405160006040518083038185875af1925050503d80600081146131e1576040519150601f19603f3d011682016040523d82523d6000602084013e6131e6565b606091505b50509050806132375760405162461bcd60e51b815260206004820152600b60248201527f43616c6c206661696c65640000000000000000000000000000000000000000006044820152606401610641565b604080513081526001600160a01b03851660208201529081018390527fb37bd6f3ccfce130859d4569dc432409f423a7928e73eb5c5049a94e40f0c648906060015b60405180910390a15050600180547fffffffffffffffffffffff00ffffffffffffffffffffffffffffffffffffffff16905550565b6000546001600160a01b031633146119335760405162461bcd60e51b815260206004820181905260248201527f4f776e61626c653a2063616c6c6572206973206e6f7420746865206f776e65726044820152606401610641565b6133106132ae565b6001546000906001600160a01b031661333183670de0b6b3a7640000617641565b604051600081818185875af1925050503d806000811461336d576040519150601f19603f3d011682016040523d82523d6000602084013e613372565b606091505b50509050806133c35760405162461bcd60e51b815260206004820152600b60248201527f43616c6c206661696c65640000000000000000000000000000000000000000006044820152606401610641565b6040805130815233602082015247918101919091527fb37bd6f3ccfce130859d4569dc432409f423a7928e73eb5c5049a94e40f0c64890606001612de4565b6003546040517f8b3f3a6f000000000000000000000000000000000000000000000000000000008152600481018490526001600160a01b03838116602483015260006044830181905292606092849290911690638b3f3a6f90606401600060405180830381865afa15801561347b573d6000803e3d6000fd5b505050506040513d6000823e601f3d908101601f191682016040526134a39190810190617ef7565b815191935091506000036134bc57600092505050611ef9565b6134c98585846004616144565b6003546040517f7c34eb85000000000000000000000000000000000000000000000000000000008152600481018790526000916001600160a01b031690637c34eb8590602401602060405180830381865afa15801561352c573d6000803e3d6000fd5b505050506040513d601f19601f82011682018060405250810190613550919061769f565b1561361f5760005b83518110156136195760035484516001600160a01b039091169063e1ca7ca790899087908590811061358c5761358c617bf8565b60200260200101516040518363ffffffff1660e01b81526004016135ba929190918252602082015260400190565b602060405180830381865afa1580156135d7573d6000803e3d6000fd5b505050506040513d601f19601f820116820180604052508101906135fb91906175d1565b6136059083617f3e565b91508061361181617d88565b915050613558565b506136a8565b6003546040517f6e973982000000000000000000000000000000000000000000000000000000008152600481018890526001600160a01b0390911690636e97398290602401602060405180830381865afa158015613681573d6000803e3d6000fd5b505050506040513d601f19601f820116820180604052508101906136a591906175d1565b90505b600480546040517f5c8300980000000000000000000000000000000000000000000000000000000081529182018390526000916001600160a01b0390911690634f6ca3ce908290635c830098906024015b602060405180830381865afa158015613716573d6000803e3d6000fd5b505050506040513d601f19601f8201168201806040525081019061373a91906175d1565b6040518263ffffffff1660e01b815260040161375891815260200190565b602060405180830381865afa158015613775573d6000803e3d6000fd5b505050506040513d601f19601f8201168201806040525081019061379991906175d1565b600480546040517f9ce5c4bf000000000000000000000000000000000000000000000000000000008152918201869052602482018390529192506000916001600160a01b031690639ce5c4bf90604401602060405180830381865afa158015613806573d6000803e3d6000fd5b505050506040513d601f19601f8201168201806040525081019061382a91906175d1565b6001600160a01b0388166000908152600560205260409020805460ff191690559550505050505092915050565b6002546040517f438b63000000000000000000000000000000000000000000000000000000000081526001600160a01b038381166004830152600092839291169063438b630090602401600060405180830381865afa1580156138be573d6000803e3d6000fd5b505050506040513d6000823e601f3d908101601f191682016040526138e69190810190617f51565b8051909150156138f95750600192915050565b50600092915050565b6003546040517f790485f9000000000000000000000000000000000000000000000000000000008152600481018590526001600160a01b0383811660248301529091169063790485f990604401602060405180830381865afa15801561396c573d6000803e3d6000fd5b505050506040513d601f19601f8201168201806040525081019061399091906175d1565b600003613a17576003546040517f992d60f3000000000000000000000000000000000000000000000000000000008152600481018590526001600160a01b0383811660248301529091169063992d60f390604401600060405180830381600087803b1580156139fe57600080fd5b505af1158015613a12573d6000803e3d6000fd5b505050505b60005b8251811015613af857613a4684848381518110613a3957613a39617bf8565b60200260200101516161ea565b60035483516001600160a01b039091169063a1e047f39086908590879086908110613a7357613a73617bf8565b60200260200101516040518463ffffffff1660e01b8152600401613ab3939291909283526001600160a01b03919091166020830152604082015260600190565b600060405180830381600087803b158015613acd57600080fd5b505af1158015613ae1573d6000803e3d6000fd5b505050508080613af090617d88565b915050613a1a565b506003546040517fca74a589000000000000000000000000000000000000000000000000000000008152600481018590526001600160a01b039091169063ca74a58990602401600060405180830381600087803b158015613b5857600080fd5b505af1158015613b6c573d6000803e3d6000fd5b50506003546040517f8a9a9ff300000000000000000000000000000000000000000000000000000000815260048101879052600060248201526001600160a01b039091169250638a9a9ff39150604401602060405180830381865afa158015613bd9573d6000803e3d6000fd5b505050506040513d601f19601f82011682018060405250810190613bfd919061769f565b15613ddf576003546040517fc061bb8200000000000000000000000000000000000000000000000000000000815260048101859052600060248201526001600160a01b039091169063c061bb8290604401600060405180830381600087803b158015613c6857600080fd5b505af1158015613c7c573d6000803e3d6000fd5b50506003546040517f8a9a9ff300000000000000000000000000000000000000000000000000000000815260048101879052600160248201526001600160a01b039091169250638a9a9ff39150604401602060405180830381865afa158015613ce9573d6000803e3d6000fd5b505050506040513d601f19601f82011682018060405250810190613d0d919061769f565b15613d9357600380546040517f17e925d70000000000000000000000000000000000000000000000000000000081526001600160a01b03909116916317e925d791613d5c918791600401617658565b600060405180830381600087803b158015613d7657600080fd5b505af1158015613d8a573d6000803e3d6000fd5b50505050505050565b6003546040517f17e925d70000000000000000000000000000000000000000000000000000000081526001600160a01b03909116906317e925d790613d5c908690600190600401617658565b505050565b60015474010000000000000000000000000000000000000000900460ff1615613e4f5760405162461bcd60e51b815260206004820152601360248201527f546865206c6f636b206973206c6f636b65642e000000000000000000000000006044820152606401610641565b600180547fffffffffffffffffffffff00ffffffffffffffffffffffffffffffffffffffff16740100000000000000000000000000000000000000001790556040516000906001600160a01b0384169083908381818185875af1925050503d8060008114613ed9576040519150601f19603f3d011682016040523d82523d6000602084013e613ede565b606091505b5050905080613f2f5760405162461bcd60e51b815260206004820152600b60248201527f43616c6c206661696c65640000000000000000000000000000000000000000006044820152606401610641565b604080513381526001600160a01b03851660208201529081018390527fb37bd6f3ccfce130859d4569dc432409f423a7928e73eb5c5049a94e40f0c64890606001613279565b6003546040517f8b3f3a6f000000000000000000000000000000000000000000000000000000008152600481018490526001600160a01b03838116602483015260016044830152600092606092849290911690638b3f3a6f90606401600060405180830381865afa158015613fee573d6000803e3d6000fd5b505050506040513d6000823e601f3d908101601f191682016040526140169190810190617ef7565b8151919350915060000361402f57600092505050611ef9565b61403c858584600461637c565b6003546040517f7c34eb85000000000000000000000000000000000000000000000000000000008152600481018790526000916001600160a01b031690637c34eb8590602401602060405180830381865afa15801561409f573d6000803e3d6000fd5b505050506040513d601f19601f820116820180604052508101906140c3919061769f565b156141925760005b835181101561418c5760035484516001600160a01b039091169063e1ca7ca79089908790859081106140ff576140ff617bf8565b60200260200101516040518363ffffffff1660e01b815260040161412d929190918252602082015260400190565b602060405180830381865afa15801561414a573d6000803e3d6000fd5b505050506040513d601f19601f8201168201806040525081019061416e91906175d1565b6141789083617f3e565b91508061418481617d88565b9150506140cb565b5061421b565b6003546040517f6e973982000000000000000000000000000000000000000000000000000000008152600481018890526001600160a01b0390911690636e97398290602401602060405180830381865afa1580156141f4573d6000803e3d6000fd5b505050506040513d601f19601f8201168201806040525081019061421891906175d1565b90505b600480546040517f6873e8d20000000000000000000000000000000000000000000000000000000081529182018390526000916001600160a01b0390911690634f6ca3ce908290636873e8d2906024016136f9565b80156142a657614281848484616422565b6001600160a01b0383166000908152600560205260409020805460ff19169055611a24565b611a248484846164f0565b600080546001600160a01b038381167fffffffffffffffffffffffff0000000000000000000000000000000000000000831681178455604051919092169283917f8be0079c531659141344cd1fd0a4f28419497f9722a3daafe3b4186f6b6457e09190a35050565b6143216132ae565b6001546040516000916001600160a01b03169047908381818185875af1925050503d806000811461436e576040519150601f19603f3d011682016040523d82523d6000602084013e614373565b606091505b50509050806143c45760405162461bcd60e51b815260206004820152600b60248201527f43616c6c206661696c65640000000000000000000000000000000000000000006044820152606401610641565b6040805130815233602082015247918101919091527fb37bd6f3ccfce130859d4569dc432409f423a7928e73eb5c5049a94e40f0c64890606001611266565b6003546040517fd2fed69c0000000000000000000000000000000000000000000000000000000081526004810183905260009160609183916001600160a01b03169063d2fed69c90602401602060405180830381865afa15801561446b573d6000803e3d6000fd5b505050506040513d601f19601f8201168201806040525081019061448f91906175d1565b6003546040517f12506f4d000000000000000000000000000000000000000000000000000000008152600481018790529192506000916001600160a01b03909116906312506f4d90602401600060405180830381865afa1580156144f7573d6000803e3d6000fd5b505050506040513d6000823e601f3d908101601f1916820160405261451f9190810190617f86565b6003546040517f8a9a9ff300000000000000000000000000000000000000000000000000000000815260048101889052600160248201529192506001600160a01b031690638a9a9ff390604401602060405180830381865afa158015614589573d6000803e3d6000fd5b505050506040513d601f19601f820116820180604052508101906145ad919061769f565b156145cf57600160405180602001604052806000815250935093505050915091565b81600003614698576003546040517f63e3ccad00000000000000000000000000000000000000000000000000000000815260048101879052600060248201526001600160a01b03909116906363e3ccad90604401600060405180830381600087803b15801561463d57600080fd5b505af1158015614651573d6000803e3d6000fd5b5050505060006040518060400160405280601681526020017f7472616e736c61746f7273206e756d626572203d203000000000000000000000815250935093505050915091565b80518260006146a78284617fbb565b6003546040517f983a12a8000000000000000000000000000000000000000000000000000000008152600481018b90529192506000916001600160a01b039091169063983a12a890602401600060405180830381865afa15801561470f573d6000803e3d6000fd5b505050506040513d6000823e601f3d908101601f191682016040526147379190810190617bc3565b905060005b8551811015614a2a57600086828151811061475957614759617bf8565b602002602001015160600151600b81111561477657614776616ff0565b14806147b05750600186828151811061479157614791617bf8565b602002602001015160600151600b8111156147ae576147ae616ff0565b145b15614a185760005b87811015614a1657600354835185916001600160a01b03169063193620e7908e908790869081106147eb576147eb617bf8565b60200260200101516040518363ffffffff1660e01b81526004016148229291909182526001600160a01b0316602082015260400190565b602060405180830381865afa15801561483f573d6000803e3d6000fd5b505050506040513d601f19601f8201168201806040525081019061486391906175d1565b11614a04576003546040517f429edaa2000000000000000000000000000000000000000000000000000000008152600481018d90526001600160a01b039091169063429edaa290602401600060405180830381600087803b1580156148c757600080fd5b505af11580156148db573d6000803e3d6000fd5b505060035485516001600160a01b03909116925063271ff03f91508d9086908590811061490a5761490a617bf8565b6020026020010151856040518463ffffffff1660e01b815260040161494b939291909283526001600160a01b03919091166020830152604082015260600190565b600060405180830381600087803b15801561496557600080fd5b505af1158015614979573d6000803e3d6000fd5b505050506149878b836165c0565b7fad65127436138b4afe97ef23baf28ed14a5fb09500ad117eb196cd3bdb3dbe9f8b838584815181106149bc576149bc617bf8565b602002602001015160016040516149f7949392919093845260208401929092526001600160a01b031660408301521515606082015260800190565b60405180910390a1614a16565b80614a0e81617d88565b9150506147b8565b505b80614a2281617d88565b91505061473c565b506003546040517f63e3ccad000000000000000000000000000000000000000000000000000000008152600481018b9052600060248201526001600160a01b03909116906363e3ccad90604401600060405180830381600087803b158015614a9157600080fd5b505af1158015614aa5573d6000803e3d6000fd5b50506003546040517f8a9a9ff3000000000000000000000000000000000000000000000000000000008152600481018d9052600060248201526001600160a01b039091169250638a9a9ff39150604401602060405180830381865afa158015614b12573d6000803e3d6000fd5b505050506040513d601f19601f82011682018060405250810190614b36919061769f565b15614bbc57600380546040517f17e925d70000000000000000000000000000000000000000000000000000000081526001600160a01b03909116916317e925d791614b85918d91600401617658565b600060405180830381600087803b158015614b9f57600080fd5b505af1158015614bb3573d6000803e3d6000fd5b50505050614c3b565b6003546040517f17e925d70000000000000000000000000000000000000000000000000000000081526001600160a01b03909116906317e925d790614c08908c90600290600401617658565b600060405180830381600087803b158015614c2257600080fd5b505af1158015614c36573d6000803e3d6000fd5b505050505b60006040518060400160405280601481526020017f416c6c6f636174696f6e20636f6d706c6574656400000000000000000000000081525097509750505050505050915091565b60006060614c8e6132ae565b6003546040517ff8626ebb000000000000000000000000000000000000000000000000000000008152600481018590526000916001600160a01b03169063f8626ebb90602401602060405180830381865afa158015614cf1573d6000803e3d6000fd5b505050506040513d601f19601f82011682018060405250810190614d1591906175d1565b6003546040517fd2fed69c000000000000000000000000000000000000000000000000000000008152600481018790529192506000916001600160a01b039091169063d2fed69c90602401602060405180830381865afa158015614d7d573d6000803e3d6000fd5b505050506040513d601f19601f82011682018060405250810190614da191906175d1565b6003546040517f12506f4d000000000000000000000000000000000000000000000000000000008152600481018890529192506000916001600160a01b03909116906312506f4d90602401600060405180830381865afa158015614e09573d6000803e3d6000fd5b505050506040513d6000823e601f3d908101601f19168201604052614e319190810190617f86565b6003546040517f8a9a9ff300000000000000000000000000000000000000000000000000000000815260048101899052600060248201529192506001600160a01b031690638a9a9ff390604401602060405180830381865afa158015614e9b573d6000803e3d6000fd5b505050506040513d601f19601f82011682018060405250810190614ebf919061769f565b15614ee25760016040518060200160405280600081525094509450505050915091565b82158015614eef57508115155b15614fb6576003546040517fc061bb8200000000000000000000000000000000000000000000000000000000815260048101889052600060248201526001600160a01b039091169063c061bb8290604401600060405180830381600087803b158015614f5a57600080fd5b505af1158015614f6e573d6000803e3d6000fd5b5050505060006040518060400160405280601381526020017f766572696669657273206e756d626572203d300000000000000000000000000081525094509450505050915091565b82158015614fc2575081155b156151c157614fd0866166be565b6003546040517f5bf608b8000000000000000000000000000000000000000000000000000000008152600481018890526000916001600160a01b031690635bf608b890602401602060405180830381865afa158015615033573d6000803e3d6000fd5b505050506040513d601f19601f8201168201806040525081019061505791906175f5565b600480546003546040517f6e9739820000000000000000000000000000000000000000000000000000000081529283018b90529293506000926001600160a01b039182169263f74f36559290911690636e97398290602401602060405180830381865afa1580156150cc573d6000803e3d6000fd5b505050506040513d601f19601f820116820180604052508101906150f091906175d1565b6040517fffffffff0000000000000000000000000000000000000000000000000000000060e084901b1681526004810191909152601e6024820152604401602060405180830381865afa15801561514b573d6000803e3d6000fd5b505050506040513d601f19601f8201168201806040525081019061516f91906175d1565b905061517b8282613094565b60006040518060400160405280600b81526020017f6e6f206f6e652070696e6b000000000000000000000000000000000000000000815250965096505050505050915091565b80518360006151d08284617fbb565b6003546040517fb647eec3000000000000000000000000000000000000000000000000000000008152600481018c90529192506000916001600160a01b039091169063b647eec390602401600060405180830381865afa158015615238573d6000803e3d6000fd5b505050506040513d6000823e601f3d908101601f191682016040526152609190810190617bc3565b905060005b855181101561551957600086828151811061528257615282617bf8565b602002602001015160600151600b81111561529f5761529f616ff0565b036155075760005b8881101561550557600354835185916001600160a01b03169063790485f9908f908790869081106152da576152da617bf8565b60200260200101516040518363ffffffff1660e01b81526004016153119291909182526001600160a01b0316602082015260400190565b602060405180830381865afa15801561532e573d6000803e3d6000fd5b505050506040513d601f19601f8201168201806040525081019061535291906175d1565b116154f3576003546040517fca74a589000000000000000000000000000000000000000000000000000000008152600481018e90526001600160a01b039091169063ca74a58990602401600060405180830381600087803b1580156153b657600080fd5b505af11580156153ca573d6000803e3d6000fd5b505060035485516001600160a01b03909116925063a1e047f391508e908690859081106153f9576153f9617bf8565b6020026020010151856040518463ffffffff1660e01b815260040161543a939291909283526001600160a01b03919091166020830152604082015260600190565b600060405180830381600087803b15801561545457600080fd5b505af1158015615468573d6000803e3d6000fd5b505050506154768c836161ea565b7fad65127436138b4afe97ef23baf28ed14a5fb09500ad117eb196cd3bdb3dbe9f8c838584815181106154ab576154ab617bf8565b602002602001015160006040516154e6949392919093845260208401929092526001600160a01b031660408301521515606082015260800190565b60405180910390a1615505565b806154fd81617d88565b9150506152a7565b505b8061551181617d88565b915050615265565b506003546040517fc061bb82000000000000000000000000000000000000000000000000000000008152600481018c9052600060248201526001600160a01b039091169063c061bb8290604401600060405180830381600087803b15801561558057600080fd5b505af1158015615594573d6000803e3d6000fd5b50506003546040517f8a9a9ff3000000000000000000000000000000000000000000000000000000008152600481018e9052600160248201526001600160a01b039091169250638a9a9ff39150604401602060405180830381865afa158015615601573d6000803e3d6000fd5b505050506040513d601f19601f82011682018060405250810190615625919061769f565b156156ab57600380546040517f17e925d70000000000000000000000000000000000000000000000000000000081526001600160a01b03909116916317e925d791615674918e91600401617658565b600060405180830381600087803b15801561568e57600080fd5b505af11580156156a2573d6000803e3d6000fd5b5050505061572a565b6003546040517f17e925d70000000000000000000000000000000000000000000000000000000081526001600160a01b03909116906317e925d7906156f7908d90600190600401617658565b600060405180830381600087803b15801561571157600080fd5b505af1158015615725573d6000803e3d6000fd5b505050505b5050505060006040518060400160405280601481526020017f416c6c6f636174696f6e20636f6d706c6574656400000000000000000000000081525094509450505050915091565b6003546040517f752458c500000000000000000000000000000000000000000000000000000000815260009182916001600160a01b039091169063752458c5906157c0908690600401617ff6565b6020604051808303816000875af11580156157df573d6000803e3d6000fd5b505050506040513d601f19601f8201168201806040525081019061580391906175d1565b90507f9096640c11bd5636ced741c9725e5ff774b334455c80e15491f15bb3af0bc26533828560405161583893929190617ecf565b60405180910390a192915050565b6003546040517f1fa2bf4c0000000000000000000000000000000000000000000000000000000081526001600160a01b0390911690631fa2bf4c90615893908790879060049081016176f6565b600060405180830381600087803b1580156158ad57600080fd5b505af11580156158c1573d6000803e3d6000fd5b50506003546040517f33e68dcd0000000000000000000000000000000000000000000000000000000081526001600160a01b0390911692506333e68dcd9150615914908790859088908890600401618009565b600060405180830381600087803b15801561592e57600080fd5b505af1158015615942573d6000803e3d6000fd5b50506003546040517f19f170880000000000000000000000000000000000000000000000000000000081526001600160a01b0390911692506319f17088915061599690879085908890600190600401618037565b600060405180830381600087803b1580156159b057600080fd5b505af1158015610af2573d6000803e3d6000fd5b6003546040517f193620e7000000000000000000000000000000000000000000000000000000008152600481018590526001600160a01b0383811660248301529091169063193620e790604401602060405180830381865afa158015615a2e573d6000803e3d6000fd5b505050506040513d601f19601f82011682018060405250810190615a5291906175d1565b600003615ad9576003546040517f31d396ce000000000000000000000000000000000000000000000000000000008152600481018590526001600160a01b038381166024830152909116906331d396ce90604401600060405180830381600087803b158015615ac057600080fd5b505af1158015615ad4573d6000803e3d6000fd5b505050505b60005b8251811015615bba57615b0884848381518110615afb57615afb617bf8565b60200260200101516165c0565b60035483516001600160a01b039091169063271ff03f9086908590879086908110615b3557615b35617bf8565b60200260200101516040518463ffffffff1660e01b8152600401615b75939291909283526001600160a01b03919091166020830152604082015260600190565b600060405180830381600087803b158015615b8f57600080fd5b505af1158015615ba3573d6000803e3d6000fd5b505050508080615bb290617d88565b915050615adc565b506003546040517f429edaa2000000000000000000000000000000000000000000000000000000008152600481018590526001600160a01b039091169063429edaa290602401600060405180830381600087803b158015615c1a57600080fd5b505af1158015615c2e573d6000803e3d6000fd5b50506003546040517f8a9a9ff300000000000000000000000000000000000000000000000000000000815260048101879052600160248201526001600160a01b039091169250638a9a9ff39150604401602060405180830381865afa158015615c9b573d6000803e3d6000fd5b505050506040513d601f19601f82011682018060405250810190615cbf919061769f565b15613ddf576003546040517f63e3ccad00000000000000000000000000000000000000000000000000000000815260048101859052600060248201526001600160a01b03909116906363e3ccad90604401600060405180830381600087803b158015615d2a57600080fd5b505af1158015615d3e573d6000803e3d6000fd5b50506003546040517f8a9a9ff300000000000000000000000000000000000000000000000000000000815260048101879052600060248201526001600160a01b039091169250638a9a9ff39150604401602060405180830381865afa158015615dab573d6000803e3d6000fd5b505050506040513d601f19601f82011682018060405250810190615dcf919061769f565b15615e1e57600380546040517f17e925d70000000000000000000000000000000000000000000000000000000081526001600160a01b03909116916317e925d791613d5c918791600401617658565b6003546040517f17e925d70000000000000000000000000000000000000000000000000000000081526001600160a01b03909116906317e925d790613d5c908690600290600401617658565b600380546040517f19f170880000000000000000000000000000000000000000000000000000000081526001600160a01b03909116916319f1708891615eb891899189918891600401618037565b600060405180830381600087803b158015615ed257600080fd5b505af1158015615ee6573d6000803e3d6000fd5b50506003546040517f1fa2bf4c0000000000000000000000000000000000000000000000000000000081526001600160a01b039091169250631fa2bf4c9150615f3890889086906006906004016176f6565b600060405180830381600087803b158015615f5257600080fd5b505af1158015615f66573d6000803e3d6000fd5b50506003546040517f6c4319040000000000000000000000000000000000000000000000000000000081526001600160a01b039091169250636c4319049150615fba90889087908790600190600401618037565b600060405180830381600087803b158015615fd457600080fd5b505af1158015615fe8573d6000803e3d6000fd5b50506003546040517f05c3f9c90000000000000000000000000000000000000000000000000000000081526001600160a01b0390911692506305c3f9c9915061603b908890879087908790600401618009565b600060405180830381600087803b15801561605557600080fd5b505af1158015616069573d6000803e3d6000fd5b505050505050505050565b6003546040517f19f170880000000000000000000000000000000000000000000000000000000081526001600160a01b03909116906319f17088906160c490869086908690600290600401618037565b600060405180830381600087803b1580156160de57600080fd5b505af11580156160f2573d6000803e3d6000fd5b50506003546040517f1fa2bf4c0000000000000000000000000000000000000000000000000000000081526001600160a01b039091169250631fa2bf4c9150613d5c90869085906005906004016176f6565b60005b825181101561086e5760035483516001600160a01b0390911690636c431904908790879087908690811061617d5761617d617bf8565b6020026020010151866040518563ffffffff1660e01b81526004016161a59493929190618037565b600060405180830381600087803b1580156161bf57600080fd5b505af11580156161d3573d6000803e3d6000fd5b5050505080806161e290617d88565b915050616147565b6003546040517fad607c7200000000000000000000000000000000000000000000000000000000815260048101849052602481018390526000916001600160a01b03169063ad607c7290604401602060405180830381865afa158015616254573d6000803e3d6000fd5b505050506040513d601f19601f820116820180604052508101906162789190617677565b9050600081600b81111561628e5761628e616ff0565b036162e1576003546040517f1fa2bf4c0000000000000000000000000000000000000000000000000000000081526001600160a01b0390911690631fa2bf4c90613d5c90869086906001906004016176f6565b60025b81600b8111156162f6576162f6616ff0565b0361634857600380546040517f1fa2bf4c0000000000000000000000000000000000000000000000000000000081526001600160a01b0390911691631fa2bf4c91613d5c9187918791906004016176f6565b806040517fcdec874a0000000000000000000000000000000000000000000000000000000081526004016106419190618061565b60005b825181101561086e5760035483516001600160a01b03909116906319f1708890879087908790869081106163b5576163b5617bf8565b6020026020010151866040518563ffffffff1660e01b81526004016163dd9493929190618037565b600060405180830381600087803b1580156163f757600080fd5b505af115801561640b573d6000803e3d6000fd5b50505050808061641a90617d88565b91505061637f565b600380546040517f6c4319040000000000000000000000000000000000000000000000000000000081526001600160a01b0390911691636c4319049161647091879187918791600401618037565b600060405180830381600087803b15801561648a57600080fd5b505af115801561649e573d6000803e3d6000fd5b50506003546040517f1fa2bf4c0000000000000000000000000000000000000000000000000000000081526001600160a01b039091169250631fa2bf4c9150613d5c90869085906008906004016176f6565b6003546040517f6c4319040000000000000000000000000000000000000000000000000000000081526001600160a01b0390911690636c4319049061654090869086908690600290600401618037565b600060405180830381600087803b15801561655a57600080fd5b505af115801561656e573d6000803e3d6000fd5b50506003546040517f1fa2bf4c0000000000000000000000000000000000000000000000000000000081526001600160a01b039091169250631fa2bf4c9150613d5c90869085906007906004016176f6565b6003546040517fad607c7200000000000000000000000000000000000000000000000000000000815260048101849052602481018390526000916001600160a01b03169063ad607c7290604401602060405180830381865afa15801561662a573d6000803e3d6000fd5b505050506040513d601f19601f8201168201806040525081019061664e9190617677565b9050600081600b81111561666457616664616ff0565b036166b7576003546040517f1fa2bf4c0000000000000000000000000000000000000000000000000000000081526001600160a01b0390911690631fa2bf4c90613d5c90869086906002906004016176f6565b60016162e4565b6003546040517f17e925d70000000000000000000000000000000000000000000000000000000081526001600160a01b03909116906317e925d79061670a908490600590600401617658565b600060405180830381600087803b15801561672457600080fd5b505af1158015616738573d6000803e3d6000fd5b50506003546040517fc061bb8200000000000000000000000000000000000000000000000000000000815260048101859052600060248201526001600160a01b03909116925063c061bb8291506044016108c1565b60405180606001604052806167a06167b4565b815260200160608152602001606081525090565b604051806102e0016040528060006001600160a01b0316815260200160008152602001606081526020016060815260200160008152602001600081526020016000815260200160608152602001600081526020016000815260200160001515815260200160001515815260200160008152602001606081526020016060815260200160608152602001600081526020016000815260200160008152602001600081526020016000151581526020016000151581526020016000600781111561687e5761687e616ff0565b905290565b6001600160a01b0381168114610b0d57600080fd5b6000602082840312156168aa57600080fd5b81356168b581616883565b9392505050565b7f4e487b7100000000000000000000000000000000000000000000000000000000600052604160045260246000fd5b60405160a0810167ffffffffffffffff8111828210171561690e5761690e6168bc565b60405290565b60405160e0810167ffffffffffffffff8111828210171561690e5761690e6168bc565b6040516101a0810167ffffffffffffffff8111828210171561690e5761690e6168bc565b6040516102e0810167ffffffffffffffff8111828210171561690e5761690e6168bc565b6040516060810167ffffffffffffffff8111828210171561690e5761690e6168bc565b6040805190810167ffffffffffffffff8111828210171561690e5761690e6168bc565b604051601f8201601f1916810167ffffffffffffffff811182821017156169ee576169ee6168bc565b604052919050565b600067ffffffffffffffff821115616a1057616a106168bc565b50601f01601f191660200190565b600082601f830112616a2f57600080fd5b8135616a42616a3d826169f6565b6169c5565b818152846020838601011115616a5757600080fd5b816020850160208301376000918101602001919091529392505050565b600067ffffffffffffffff821115616a8e57616a8e6168bc565b5060051b60200190565b600082601f830112616aa957600080fd5b81356020616ab9616a3d83616a74565b82815260059290921b84018101918181019086841115616ad857600080fd5b8286015b84811015616af35780358352918301918301616adc565b509695505050505050565b8015158114610b0d57600080fd5b8035616b1781616afe565b919050565b600c8110610b0d57600080fd5b8035616b1781616b1c565b600082601f830112616b4557600080fd5b81356020616b55616a3d83616a74565b82815260059290921b84018101918181019086841115616b7457600080fd5b8286015b84811015616af357803567ffffffffffffffff80821115616b9857600080fd5b90880190601f1960a0838c0382011215616bb157600080fd5b616bb96168eb565b8784013583811115616bca57600080fd5b840160e0818e0384011215616bde57600080fd5b616be6616914565b92508881013584811115616bf957600080fd5b616c078e8b83850101616a1e565b84525060408101358984015260608101356040840152608080820135606085015260a08201358185015260c082013560a085015260e082013585811115616c4d57600080fd5b616c5b8f8c83860101616a1e565b60c08601525092825260408501358983015260608501359284841115616c8057600080fd5b616c8e8e8b86890101616a1e565b6040840152616c9e818701616b29565b606084015260a09590950135948201949094528652505050918301918301616b78565b60006101a08284031215616cd457600080fd5b616cdc616937565b905081358152602082013567ffffffffffffffff80821115616cfd57600080fd5b616d0985838601616a1e565b60208401526040840135915080821115616d2257600080fd5b616d2e85838601616a1e565b6040840152606084013560608401526080840135608084015260a084013560a084015260c0840135915080821115616d6557600080fd5b616d7185838601616a98565b60c084015260e0848101359084015261010080850135908401526101209150616d9b828501616b0c565b828401526101409150616daf828501616b0c565b828401526101609150818401358284015261018091508184013581811115616dd657600080fd5b616de286828701616b34565b8385015250505092915050565b60008060408385031215616e0257600080fd5b82359150602083013567ffffffffffffffff811115616e2057600080fd5b616e2c85828601616cc1565b9150509250929050565b600060208284031215616e4857600080fd5b5035919050565b600080600080600060a08688031215616e6757600080fd5b853594506020860135616e7981616883565b9350604086013592506060860135616e9081616afe565b9150608086013567ffffffffffffffff811115616eac57600080fd5b616eb888828901616a1e565b9150509295509295909350565b60008060408385031215616ed857600080fd5b823591506020830135616eea81616883565b809150509250929050565b60008060408385031215616f0857600080fd5b82359150602083013567ffffffffffffffff811115616f2657600080fd5b616e2c85828601616a98565b600080600080600060a08688031215616f4a57600080fd5b853594506020860135616f5c81616883565b9350604086013592506060860135616f7381616afe565b91506080860135616f8381616883565b809150509295509295909350565b60008060408385031215616fa457600080fd5b50508035926020909101359150565b600060208284031215616fc557600080fd5b813567ffffffffffffffff811115616fdc57600080fd5b616fe884828501616cc1565b949350505050565b7f4e487b7100000000000000000000000000000000000000000000000000000000600052602160045260246000fd5b600c811061702f5761702f616ff0565b9052565b60208101611ef9828461701f565b60008060006060848603121561705657600080fd5b8335925060208401359150604084013567ffffffffffffffff81111561707b57600080fd5b61708786828701616a1e565b9150509250925092565b60005b838110156170ac578181015183820152602001617094565b50506000910152565b600081518084526170cd816020860160208601617091565b601f01601f19169290920160200192915050565b600081518084526020808501945080840160005b83811015617111578151875295820195908201906001016170f5565b509495945050505050565b600081518084526020808501808196508360051b8101915082860160005b85811015617236578284038952815160a08151818752805160e080848a01526171676101808a01836170b5565b91508983015160c081818c01526040915081850151838c015260609250828501516101008c01526080808601516101208d0152868601516101408d01528186015196507fffffffffffffffffffffffffffffffffffffffffffffffffffffffffffffff608c8603016101608d01526171df85886170b5565b96508c8801518d8d01528288015195508b8703838d015261720087876170b5565b9650838801519550617214848d018761701f565b968701519a90960199909952505050998601999450509084019060010161713a565b5091979650505050505050565b600081518084526020808501945080840160005b838110156171115781516001600160a01b031687529582019590820190600101617257565b6008811061702f5761702f616ff0565b6005811061702f5761702f616ff0565b600081518084526020808501808196506005915083821b81018387016000805b87811015617376578484038b52825160606001600160a01b03825116865288820151818a8801526172ef828801826170e1565b604093840151888203898601528051808352908c01949193509091508a830190808b1b84018c01875b8281101561735e57601f19868303018452865161733683825161728c565b8e0151828f0186905261734b838701826170b5565b978f0197948f0194925050600101617318565b509f8c019f98505050948901945050506001016172bc565b50919998505050505050505050565b6020815260008251606060208401526173aa6080840182516001600160a01b03169052565b602081015160a084015260408101516102e08060c08601526173d06103608601836170b5565b915060608301517fffffffffffffffffffffffffffffffffffffffffffffffffffffffffffffff80808785030160e088015261740c84836170b5565b935060808501519150610100828189015260a0860151925061012083818a015260c0870151935061014084818b015260e08801519450610160848b890301818c015261745888876170e1565b938901516101808c810191909152928901516101a0808d01919091529189015193975092945090916101c090617491828c018715159052565b88015194506101e06174a68b82018715159052565b838901519550610200935085848c01528289015195506102209250848b890301838c01526174d4888761711c565b97508189015195506102409150848b890301828c01526174f48887617243565b975080890151955050610260848b890301818c01526175138887617243565b9750838901519550610280945085858c01528289015195506102a0935085848c01528189015195506102c0925085838c015280890151878c015250508287015194506175646103008a018615159052565b90860151151561032089015290940151935061758791505061034085018361727c565b60208501519150601f19808583030160408601526175a5828461729c565b925060408601519150808584030160608601525061308b828261729c565b60208101611ef9828461727c565b6000602082840312156175e357600080fd5b5051919050565b8051616b1781616883565b60006020828403121561760757600080fd5b81516168b581616883565b7f4e487b7100000000000000000000000000000000000000000000000000000000600052601160045260246000fd5b8082028115828204841417611ef957611ef9617612565b828152604081016168b5602083018461727c565b8051616b1781616b1c565b60006020828403121561768957600080fd5b81516168b581616b1c565b8051616b1781616afe565b6000602082840312156176b157600080fd5b81516168b581616afe565b8481526080602082015260006176d560808301866170e1565b6001600160a01b039490941660408301525090151560609091015292915050565b8381526020810183905260608101616fe8604083018461701f565b600082601f83011261772257600080fd5b8151617730616a3d826169f6565b81815284602083860101111561774557600080fd5b616fe8826020830160208701617091565b600082601f83011261776757600080fd5b81516020617777616a3d83616a74565b82815260059290921b8401810191818101908684111561779657600080fd5b8286015b84811015616af3578051835291830191830161779a565b600082601f8301126177c257600080fd5b815160206177d2616a3d83616a74565b82815260059290921b840181019181810190868411156177f157600080fd5b8286015b84811015616af357805167ffffffffffffffff8082111561781557600080fd5b90880190601f1960a0838c038201121561782e57600080fd5b6178366168eb565b878401518381111561784757600080fd5b840160e0818e038401121561785b57600080fd5b617863616914565b9250888101518481111561787657600080fd5b6178848e8b83850101617711565b84525060408101518984015260608101516040840152608080820151606085015260a08201518185015260c082015160a085015260e0820151858111156178ca57600080fd5b6178d88f8c83860101617711565b60c086015250928252604085015189830152606085015192848411156178fd57600080fd5b61790b8e8b86890101617711565b604084015261791b81870161766c565b606084015260a095909501519482019490945286525050509183019183016177f5565b600082601f83011261794f57600080fd5b8151602061795f616a3d83616a74565b82815260059290921b8401810191818101908684111561797e57600080fd5b8286015b84811015616af357805161799581616883565b8352918301918301617982565b805160088110616b1757600080fd5b6000602082840312156179c357600080fd5b815167ffffffffffffffff808211156179db57600080fd5b908301906102e082860312156179f057600080fd5b6179f861695b565b617a01836175ea565b815260208301516020820152604083015182811115617a1f57600080fd5b617a2b87828601617711565b604083015250606083015182811115617a4357600080fd5b617a4f87828601617711565b6060830152506080830151608082015260a083015160a082015260c083015160c082015260e083015182811115617a8557600080fd5b617a9187828601617756565b60e08301525061010083810151908201526101208084015190820152610140617abb818501617694565b90820152610160617acd848201617694565b9082015261018083810151908201526101a08084015183811115617af057600080fd5b617afc888287016177b1565b8284015250506101c08084015183811115617b1657600080fd5b617b228882870161793e565b8284015250506101e08084015183811115617b3c57600080fd5b617b488882870161793e565b918301919091525061020083810151908201526102208084015190820152610240808401519082015261026080840151908201526102809150617b8c828401617694565b828201526102a09150617ba0828401617694565b828201526102c09150617bb48284016179a2565b91810191909152949350505050565b600060208284031215617bd557600080fd5b815167ffffffffffffffff811115617bec57600080fd5b616fe88482850161793e565b7f4e487b7100000000000000000000000000000000000000000000000000000000600052603260045260246000fd5b60006020808385031215617c3a57600080fd5b825167ffffffffffffffff80821115617c5257600080fd5b9084019060608287031215617c6657600080fd5b617c6e61697f565b8251617c7981616883565b81528284015182811115617c8c57600080fd5b617c9888828601617756565b858301525060408084015183811115617cb057600080fd5b80850194505087601f850112617cc557600080fd5b8351617cd3616a3d82616a74565b81815260059190911b8501860190868101908a831115617cf257600080fd5b8787015b83811015617d7357805187811115617d0e5760008081fd5b8801808d03601f1901861315617d245760008081fd5b617d2c6169a2565b8a82015160058110617d3e5760008081fd5b81528187015189811115617d525760008081fd5b617d608f8d83860101617711565b828d015250845250918801918801617cf6565b50928401929092525090979650505050505050565b60007fffffffffffffffffffffffffffffffffffffffffffffffffffffffffffffffff8203617db957617db9617612565b5060010190565b600060208284031215617dd257600080fd5b611ef6826179a2565b60006101a0825184526020830151816020860152617dfb828601826170b5565b91505060408301518482036040860152617e1582826170b5565b915050606083015160608501526080830151608085015260a083015160a085015260c083015184820360c0860152617e4d82826170e1565b91505060e083015160e085015261010080840151818601525061012080840151617e7a8287018215159052565b50506101408381015115159085015261016080840151908501526101808084015185830382870152617eac838261711c565b9695505050505050565b828152604060208201526000616fe86040830184617ddb565b6001600160a01b038416815282602082015260606040820152600061308b6060830184617ddb565b60008060408385031215617f0a57600080fd5b825167ffffffffffffffff811115617f2157600080fd5b617f2d85828601617756565b925050602083015190509250929050565b80820180821115611ef957611ef9617612565b600060208284031215617f6357600080fd5b815167ffffffffffffffff811115617f7a57600080fd5b616fe884828501617756565b600060208284031215617f9857600080fd5b815167ffffffffffffffff811115617faf57600080fd5b616fe8848285016177b1565b600082617ff1577f4e487b7100000000000000000000000000000000000000000000000000000000600052601260045260246000fd5b500490565b602081526000611ef66020830184617ddb565b8481526001600160a01b0384166020820152826040820152608060608201526000617eac60808301846170b5565b8481526001600160a01b0384166020820152604081018390526080810161308b606083018461728c565b60408082526010908201527f4572726f722066696c6520737461746500000000000000000000000000000000606082015260808101611ef9602083018461701f56fea2646970667358221220e2b165c848257332ad2af297d37f643dfade9e1c37d81ce226ece4191ab02ad964736f6c63430008110033",
			"opcodes": "PUSH1 0x80 PUSH1 0x40 MSTORE CALLVALUE DUP1 ISZERO PUSH3 0x11 JUMPI PUSH1 0x0 DUP1 REVERT JUMPDEST POP PUSH1 0x40 MLOAD PUSH3 0x822D CODESIZE SUB DUP1 PUSH3 0x822D DUP4 CODECOPY DUP2 ADD PUSH1 0x40 DUP2 SWAP1 MSTORE PUSH3 0x34 SWAP2 PUSH3 0xFA JUMP JUMPDEST PUSH3 0x3F CALLER PUSH3 0x8D JUMP JUMPDEST PUSH1 0x1 DUP1 SLOAD PUSH1 0x1 PUSH1 0x1 PUSH1 0xA0 SHL SUB NOT SWAP1 DUP2 AND CALLER OR SWAP1 SWAP2 SSTORE PUSH1 0x2 DUP1 SLOAD PUSH1 0x1 PUSH1 0x1 PUSH1 0xA0 SHL SUB SWAP6 DUP7 AND SWAP1 DUP4 AND OR SWAP1 SSTORE PUSH1 0x3 DUP1 SLOAD SWAP4 DUP6 AND SWAP4 DUP3 AND SWAP4 SWAP1 SWAP4 OR SWAP1 SWAP3 SSTORE PUSH1 0x4 DUP1 SLOAD SWAP2 SWAP1 SWAP4 AND SWAP2 AND OR SWAP1 SSTORE PUSH3 0x144 JUMP JUMPDEST PUSH1 0x0 DUP1 SLOAD PUSH1 0x1 PUSH1 0x1 PUSH1 0xA0 SHL SUB DUP4 DUP2 AND PUSH1 0x1 PUSH1 0x1 PUSH1 0xA0 SHL SUB NOT DUP4 AND DUP2 OR DUP5 SSTORE PUSH1 0x40 MLOAD SWAP2 SWAP1 SWAP3 AND SWAP3 DUP4 SWAP2 PUSH32 0x8BE0079C531659141344CD1FD0A4F28419497F9722A3DAAFE3B4186F6B6457E0 SWAP2 SWAP1 LOG3 POP POP JUMP JUMPDEST DUP1 MLOAD PUSH1 0x1 PUSH1 0x1 PUSH1 0xA0 SHL SUB DUP2 AND DUP2 EQ PUSH3 0xF5 JUMPI PUSH1 0x0 DUP1 REVERT JUMPDEST SWAP2 SWAP1 POP JUMP JUMPDEST PUSH1 0x0 DUP1 PUSH1 0x0 PUSH1 0x60 DUP5 DUP7 SUB SLT ISZERO PUSH3 0x110 JUMPI PUSH1 0x0 DUP1 REVERT JUMPDEST PUSH3 0x11B DUP5 PUSH3 0xDD JUMP JUMPDEST SWAP3 POP PUSH3 0x12B PUSH1 0x20 DUP6 ADD PUSH3 0xDD JUMP JUMPDEST SWAP2 POP PUSH3 0x13B PUSH1 0x40 DUP6 ADD PUSH3 0xDD JUMP JUMPDEST SWAP1 POP SWAP3 POP SWAP3 POP SWAP3 JUMP JUMPDEST PUSH2 0x80D9 DUP1 PUSH3 0x154 PUSH1 0x0 CODECOPY PUSH1 0x0 RETURN INVALID PUSH1 0x80 PUSH1 0x40 MSTORE PUSH1 0x4 CALLDATASIZE LT PUSH2 0x1B8 JUMPI PUSH1 0x0 CALLDATALOAD PUSH1 0xE0 SHR DUP1 PUSH4 0x8DA5CB5B GT PUSH2 0xEB JUMPI DUP1 PUSH4 0xC5DD0208 GT PUSH2 0x8F JUMPI DUP1 PUSH4 0xF2FDE38B GT PUSH2 0x61 JUMPI DUP1 PUSH4 0xF2FDE38B EQ PUSH2 0x4E2 JUMPI DUP1 PUSH4 0xFA4C6473 EQ PUSH2 0x502 JUMPI DUP1 PUSH4 0xFC2381E1 EQ PUSH2 0x522 JUMPI DUP1 PUSH4 0xFFCCE776 EQ PUSH2 0x542 JUMPI STOP JUMPDEST DUP1 PUSH4 0xC5DD0208 EQ PUSH2 0x455 JUMPI DUP1 PUSH4 0xD1A1B999 EQ PUSH2 0x475 JUMPI DUP1 PUSH4 0xD3D7BC3B EQ PUSH2 0x4A2 JUMPI DUP1 PUSH4 0xDA24C822 EQ PUSH2 0x4C2 JUMPI STOP JUMPDEST DUP1 PUSH4 0xA87D942C GT PUSH2 0xC8 JUMPI DUP1 PUSH4 0xA87D942C EQ PUSH2 0x3E0 JUMPI DUP1 PUSH4 0xAC35CD61 EQ PUSH2 0x3F5 JUMPI DUP1 PUSH4 0xAD607C72 EQ PUSH2 0x408 JUMPI DUP1 PUSH4 0xBB0C38C0 EQ PUSH2 0x435 JUMPI STOP JUMPDEST DUP1 PUSH4 0x8DA5CB5B EQ PUSH2 0x378 JUMPI DUP1 PUSH4 0x97601EFB EQ PUSH2 0x3A0 JUMPI DUP1 PUSH4 0xA55AF701 EQ PUSH2 0x3C0 JUMPI STOP JUMPDEST DUP1 PUSH4 0x3BD14E13 GT PUSH2 0x15D JUMPI DUP1 PUSH4 0x627A62F3 GT PUSH2 0x12F JUMPI DUP1 PUSH4 0x627A62F3 EQ PUSH2 0x31B JUMPI DUP1 PUSH4 0x715018A6 EQ PUSH2 0x32E JUMPI DUP1 PUSH4 0x853828B6 EQ PUSH2 0x343 JUMPI DUP1 PUSH4 0x8ADC74A5 EQ PUSH2 0x358 JUMPI STOP JUMPDEST DUP1 PUSH4 0x3BD14E13 EQ PUSH2 0x2C0 JUMPI DUP1 PUSH4 0x3EDFA229 EQ PUSH2 0x2E0 JUMPI DUP1 PUSH4 0x460968DD EQ PUSH2 0x2F3 JUMPI DUP1 PUSH4 0x5B0EF140 EQ PUSH2 0x2FB JUMPI STOP JUMPDEST DUP1 PUSH4 0x22968885 GT PUSH2 0x196 JUMPI DUP1 PUSH4 0x22968885 EQ PUSH2 0x243 JUMPI DUP1 PUSH4 0x243634BF EQ PUSH2 0x260 JUMPI DUP1 PUSH4 0x2E1A7D4D EQ PUSH2 0x280 JUMPI DUP1 PUSH4 0x36D61AE0 EQ PUSH2 0x2A0 JUMPI STOP JUMPDEST DUP1 PUSH3 0xA7E49E EQ PUSH2 0x1C1 JUMPI DUP1 PUSH4 0x9A02F58 EQ PUSH2 0x210 JUMPI DUP1 PUSH4 0x1201DFC6 EQ PUSH2 0x223 JUMPI STOP JUMPDEST CALLDATASIZE PUSH2 0x1BF JUMPI STOP JUMPDEST STOP JUMPDEST CALLVALUE DUP1 ISZERO PUSH2 0x1CD JUMPI PUSH1 0x0 DUP1 REVERT JUMPDEST POP PUSH2 0x1FB PUSH2 0x1DC CALLDATASIZE PUSH1 0x4 PUSH2 0x6898 JUMP JUMPDEST PUSH1 0x1 PUSH1 0x1 PUSH1 0xA0 SHL SUB AND PUSH1 0x0 SWAP1 DUP2 MSTORE PUSH1 0x5 PUSH1 0x20 MSTORE PUSH1 0x40 SWAP1 KECCAK256 SLOAD PUSH1 0xFF AND ISZERO SWAP1 JUMP JUMPDEST PUSH1 0x40 MLOAD SWAP1 ISZERO ISZERO DUP2 MSTORE PUSH1 0x20 ADD JUMPDEST PUSH1 0x40 MLOAD DUP1 SWAP2 SUB SWAP1 RETURN JUMPDEST PUSH2 0x1BF PUSH2 0x21E CALLDATASIZE PUSH1 0x4 PUSH2 0x6DEF JUMP JUMPDEST PUSH2 0x56F JUMP JUMPDEST CALLVALUE DUP1 ISZERO PUSH2 0x22F JUMPI PUSH1 0x0 DUP1 REVERT JUMPDEST POP PUSH2 0x1BF PUSH2 0x23E CALLDATASIZE PUSH1 0x4 PUSH2 0x6E36 JUMP JUMPDEST PUSH2 0x875 JUMP JUMPDEST CALLVALUE DUP1 ISZERO PUSH2 0x24F JUMPI PUSH1 0x0 DUP1 REVERT JUMPDEST POP SELFBALANCE JUMPDEST PUSH1 0x40 MLOAD SWAP1 DUP2 MSTORE PUSH1 0x20 ADD PUSH2 0x207 JUMP JUMPDEST CALLVALUE DUP1 ISZERO PUSH2 0x26C JUMPI PUSH1 0x0 DUP1 REVERT JUMPDEST POP PUSH2 0x1BF PUSH2 0x27B CALLDATASIZE PUSH1 0x4 PUSH2 0x6E4F JUMP JUMPDEST PUSH2 0x8EF JUMP JUMPDEST CALLVALUE DUP1 ISZERO PUSH2 0x28C JUMPI PUSH1 0x0 DUP1 REVERT JUMPDEST POP PUSH2 0x1BF PUSH2 0x29B CALLDATASIZE PUSH1 0x4 PUSH2 0x6E36 JUMP JUMPDEST PUSH2 0xAFC JUMP JUMPDEST CALLVALUE DUP1 ISZERO PUSH2 0x2AC JUMPI PUSH1 0x0 DUP1 REVERT JUMPDEST POP PUSH2 0x252 PUSH2 0x2BB CALLDATASIZE PUSH1 0x4 PUSH2 0x6EC5 JUMP JUMPDEST PUSH2 0xB10 JUMP JUMPDEST CALLVALUE DUP1 ISZERO PUSH2 0x2CC JUMPI PUSH1 0x0 DUP1 REVERT JUMPDEST POP PUSH2 0x1BF PUSH2 0x2DB CALLDATASIZE PUSH1 0x4 PUSH2 0x6EF5 JUMP JUMPDEST PUSH2 0xC70 JUMP JUMPDEST PUSH2 0x1BF PUSH2 0x2EE CALLDATASIZE PUSH1 0x4 PUSH2 0x6898 JUMP JUMPDEST PUSH2 0x1001 JUMP JUMPDEST PUSH2 0x1BF PUSH2 0x1193 JUMP JUMPDEST CALLVALUE DUP1 ISZERO PUSH2 0x307 JUMPI PUSH1 0x0 DUP1 REVERT JUMPDEST POP PUSH2 0x252 PUSH2 0x316 CALLDATASIZE PUSH1 0x4 PUSH2 0x6EC5 JUMP JUMPDEST PUSH2 0x1271 JUMP JUMPDEST PUSH2 0x1BF PUSH2 0x329 CALLDATASIZE PUSH1 0x4 PUSH2 0x6F32 JUMP JUMPDEST PUSH2 0x1347 JUMP JUMPDEST CALLVALUE DUP1 ISZERO PUSH2 0x33A JUMPI PUSH1 0x0 DUP1 REVERT JUMPDEST POP PUSH2 0x1BF PUSH2 0x1921 JUMP JUMPDEST CALLVALUE DUP1 ISZERO PUSH2 0x34F JUMPI PUSH1 0x0 DUP1 REVERT JUMPDEST POP PUSH2 0x1BF PUSH2 0x1935 JUMP JUMPDEST CALLVALUE DUP1 ISZERO PUSH2 0x364 JUMPI PUSH1 0x0 DUP1 REVERT JUMPDEST POP PUSH2 0x1BF PUSH2 0x373 CALLDATASIZE PUSH1 0x4 PUSH2 0x6E36 JUMP JUMPDEST PUSH2 0x1945 JUMP JUMPDEST CALLVALUE DUP1 ISZERO PUSH2 0x384 JUMPI PUSH1 0x0 DUP1 REVERT JUMPDEST POP PUSH1 0x0 SLOAD PUSH1 0x40 MLOAD PUSH1 0x1 PUSH1 0x1 PUSH1 0xA0 SHL SUB SWAP1 SWAP2 AND DUP2 MSTORE PUSH1 0x20 ADD PUSH2 0x207 JUMP JUMPDEST CALLVALUE DUP1 ISZERO PUSH2 0x3AC JUMPI PUSH1 0x0 DUP1 REVERT JUMPDEST POP PUSH2 0x1BF PUSH2 0x3BB CALLDATASIZE PUSH1 0x4 PUSH2 0x6F91 JUMP JUMPDEST PUSH2 0x1A2A JUMP JUMPDEST CALLVALUE DUP1 ISZERO PUSH2 0x3CC JUMPI PUSH1 0x0 DUP1 REVERT JUMPDEST POP PUSH2 0x1BF PUSH2 0x3DB CALLDATASIZE PUSH1 0x4 PUSH2 0x6E36 JUMP JUMPDEST PUSH2 0x1AAE JUMP JUMPDEST CALLVALUE DUP1 ISZERO PUSH2 0x3EC JUMPI PUSH1 0x0 DUP1 REVERT JUMPDEST POP PUSH2 0x252 PUSH2 0x1B8D JUMP JUMPDEST PUSH2 0x252 PUSH2 0x403 CALLDATASIZE PUSH1 0x4 PUSH2 0x6FB3 JUMP JUMPDEST PUSH2 0x1C19 JUMP JUMPDEST CALLVALUE DUP1 ISZERO PUSH2 0x414 JUMPI PUSH1 0x0 DUP1 REVERT JUMPDEST POP PUSH2 0x428 PUSH2 0x423 CALLDATASIZE PUSH1 0x4 PUSH2 0x6F91 JUMP JUMPDEST PUSH2 0x1E68 JUMP JUMPDEST PUSH1 0x40 MLOAD PUSH2 0x207 SWAP2 SWAP1 PUSH2 0x7033 JUMP JUMPDEST CALLVALUE DUP1 ISZERO PUSH2 0x441 JUMPI PUSH1 0x0 DUP1 REVERT JUMPDEST POP PUSH2 0x1BF PUSH2 0x450 CALLDATASIZE PUSH1 0x4 PUSH2 0x7041 JUMP JUMPDEST PUSH2 0x1EFF JUMP JUMPDEST CALLVALUE DUP1 ISZERO PUSH2 0x461 JUMPI PUSH1 0x0 DUP1 REVERT JUMPDEST POP PUSH2 0x1BF PUSH2 0x470 CALLDATASIZE PUSH1 0x4 PUSH2 0x6898 JUMP JUMPDEST PUSH2 0x20ED JUMP JUMPDEST CALLVALUE DUP1 ISZERO PUSH2 0x481 JUMPI PUSH1 0x0 DUP1 REVERT JUMPDEST POP PUSH2 0x495 PUSH2 0x490 CALLDATASIZE PUSH1 0x4 PUSH2 0x6E36 JUMP JUMPDEST PUSH2 0x212F JUMP JUMPDEST PUSH1 0x40 MLOAD PUSH2 0x207 SWAP2 SWAP1 PUSH2 0x7385 JUMP JUMPDEST CALLVALUE DUP1 ISZERO PUSH2 0x4AE JUMPI PUSH1 0x0 DUP1 REVERT JUMPDEST POP PUSH2 0x252 PUSH2 0x4BD CALLDATASIZE PUSH1 0x4 PUSH2 0x6898 JUMP JUMPDEST PUSH2 0x27AD JUMP JUMPDEST CALLVALUE DUP1 ISZERO PUSH2 0x4CE JUMPI PUSH1 0x0 DUP1 REVERT JUMPDEST POP PUSH2 0x1BF PUSH2 0x4DD CALLDATASIZE PUSH1 0x4 PUSH2 0x6898 JUMP JUMPDEST PUSH2 0x2835 JUMP JUMPDEST CALLVALUE DUP1 ISZERO PUSH2 0x4EE JUMPI PUSH1 0x0 DUP1 REVERT JUMPDEST POP PUSH2 0x1BF PUSH2 0x4FD CALLDATASIZE PUSH1 0x4 PUSH2 0x6898 JUMP JUMPDEST PUSH2 0x2877 JUMP JUMPDEST CALLVALUE DUP1 ISZERO PUSH2 0x50E JUMPI PUSH1 0x0 DUP1 REVERT JUMPDEST POP PUSH2 0x1BF PUSH2 0x51D CALLDATASIZE PUSH1 0x4 PUSH2 0x6EF5 JUMP JUMPDEST PUSH2 0x2904 JUMP JUMPDEST CALLVALUE DUP1 ISZERO PUSH2 0x52E JUMPI PUSH1 0x0 DUP1 REVERT JUMPDEST POP PUSH2 0x1BF PUSH2 0x53D CALLDATASIZE PUSH1 0x4 PUSH2 0x6898 JUMP JUMPDEST PUSH2 0x2C6B JUMP JUMPDEST CALLVALUE DUP1 ISZERO PUSH2 0x54E JUMPI PUSH1 0x0 DUP1 REVERT JUMPDEST POP PUSH2 0x562 PUSH2 0x55D CALLDATASIZE PUSH1 0x4 PUSH2 0x6E36 JUMP JUMPDEST PUSH2 0x2CAD JUMP JUMPDEST PUSH1 0x40 MLOAD PUSH2 0x207 SWAP2 SWAP1 PUSH2 0x75C3 JUMP JUMPDEST PUSH1 0x3 SLOAD PUSH1 0x40 DUP1 MLOAD PUSH32 0xA87D942C00000000000000000000000000000000000000000000000000000000 DUP2 MSTORE SWAP1 MLOAD DUP5 SWAP3 PUSH1 0x1 PUSH1 0x1 PUSH1 0xA0 SHL SUB AND SWAP2 PUSH4 0xA87D942C SWAP2 PUSH1 0x4 DUP1 DUP4 ADD SWAP3 PUSH1 0x20 SWAP3 SWAP2 SWAP1 DUP3 SWAP1 SUB ADD DUP2 DUP7 GAS STATICCALL ISZERO DUP1 ISZERO PUSH2 0x5D1 JUMPI RETURNDATASIZE PUSH1 0x0 DUP1 RETURNDATACOPY RETURNDATASIZE PUSH1 0x0 REVERT JUMPDEST POP POP POP POP PUSH1 0x40 MLOAD RETURNDATASIZE PUSH1 0x1F NOT PUSH1 0x1F DUP3 ADD AND DUP3 ADD DUP1 PUSH1 0x40 MSTORE POP DUP2 ADD SWAP1 PUSH2 0x5F5 SWAP2 SWAP1 PUSH2 0x75D1 JUMP JUMPDEST DUP2 GT ISZERO PUSH2 0x64A JUMPI PUSH1 0x40 MLOAD PUSH4 0x347626DD PUSH1 0xE2 SHL DUP2 MSTORE PUSH1 0x20 PUSH1 0x4 DUP3 ADD MSTORE PUSH1 0x12 PUSH1 0x24 DUP3 ADD MSTORE PUSH32 0x57726F6E6720696E6465782076616C7565210000000000000000000000000000 PUSH1 0x44 DUP3 ADD MSTORE PUSH1 0x64 ADD JUMPDEST PUSH1 0x40 MLOAD DUP1 SWAP2 SUB SWAP1 REVERT JUMPDEST PUSH1 0x3 SLOAD PUSH1 0x40 MLOAD PUSH32 0x5BF608B800000000000000000000000000000000000000000000000000000000 DUP2 MSTORE PUSH1 0x4 DUP2 ADD DUP6 SWAP1 MSTORE DUP5 SWAP2 CALLER SWAP2 PUSH1 0x1 PUSH1 0x1 PUSH1 0xA0 SHL SUB SWAP1 SWAP2 AND SWAP1 PUSH4 0x5BF608B8 SWAP1 PUSH1 0x24 ADD PUSH1 0x20 PUSH1 0x40 MLOAD DUP1 DUP4 SUB DUP2 DUP7 GAS STATICCALL ISZERO DUP1 ISZERO PUSH2 0x6B0 JUMPI RETURNDATASIZE PUSH1 0x0 DUP1 RETURNDATACOPY RETURNDATASIZE PUSH1 0x0 REVERT JUMPDEST POP POP POP POP PUSH1 0x40 MLOAD RETURNDATASIZE PUSH1 0x1F NOT PUSH1 0x1F DUP3 ADD AND DUP3 ADD DUP1 PUSH1 0x40 MSTORE POP DUP2 ADD SWAP1 PUSH2 0x6D4 SWAP2 SWAP1 PUSH2 0x75F5 JUMP JUMPDEST PUSH1 0x1 PUSH1 0x1 PUSH1 0xA0 SHL SUB AND EQ PUSH2 0x72A JUMPI PUSH1 0x40 MLOAD PUSH3 0x461BCD PUSH1 0xE5 SHL DUP2 MSTORE PUSH1 0x20 PUSH1 0x4 DUP3 ADD MSTORE PUSH1 0xA PUSH1 0x24 DUP3 ADD MSTORE PUSH32 0x4F6E6C7920627579657200000000000000000000000000000000000000000000 PUSH1 0x44 DUP3 ADD MSTORE PUSH1 0x64 ADD PUSH2 0x641 JUMP JUMPDEST PUSH2 0x734 DUP5 DUP5 PUSH2 0x2D34 JUMP JUMPDEST PUSH1 0x4 DUP1 SLOAD PUSH2 0x160 DUP6 ADD MLOAD PUSH1 0x40 MLOAD PUSH32 0xF74F365500000000000000000000000000000000000000000000000000000000 DUP2 MSTORE SWAP3 DUP4 ADD MSTORE PUSH1 0x1E PUSH1 0x24 DUP4 ADD MSTORE PUSH1 0x0 SWAP2 PUSH1 0x1 PUSH1 0x1 PUSH1 0xA0 SHL SUB SWAP1 SWAP2 AND SWAP1 PUSH4 0xF74F3655 SWAP1 PUSH1 0x44 ADD PUSH1 0x20 PUSH1 0x40 MLOAD DUP1 DUP4 SUB DUP2 DUP7 GAS STATICCALL ISZERO DUP1 ISZERO PUSH2 0x7A4 JUMPI RETURNDATASIZE PUSH1 0x0 DUP1 RETURNDATACOPY RETURNDATASIZE PUSH1 0x0 REVERT JUMPDEST POP POP POP POP PUSH1 0x40 MLOAD RETURNDATASIZE PUSH1 0x1F NOT PUSH1 0x1F DUP3 ADD AND DUP3 ADD DUP1 PUSH1 0x40 MSTORE POP DUP2 ADD SWAP1 PUSH2 0x7C8 SWAP2 SWAP1 PUSH2 0x75D1 JUMP JUMPDEST SWAP1 POP PUSH2 0x7DC DUP2 PUSH8 0xDE0B6B3A7640000 PUSH2 0x7641 JUMP JUMPDEST CALLVALUE EQ PUSH2 0x84C JUMPI PUSH1 0x40 DUP1 MLOAD PUSH32 0x79D3124B00000000000000000000000000000000000000000000000000000000 DUP2 MSTORE PUSH1 0x4 DUP2 ADD SWAP2 SWAP1 SWAP2 MSTORE PUSH1 0xF PUSH1 0x44 DUP3 ADD MSTORE PUSH32 0x496E636F72726563742076616C75650000000000000000000000000000000000 PUSH1 0x64 DUP3 ADD MSTORE CALLVALUE PUSH1 0x24 DUP3 ADD MSTORE PUSH1 0x84 ADD PUSH2 0x641 JUMP JUMPDEST CALLER PUSH1 0x0 SWAP1 DUP2 MSTORE PUSH1 0x5 PUSH1 0x20 MSTORE PUSH1 0x40 SWAP1 KECCAK256 DUP1 SLOAD PUSH1 0xFF NOT AND PUSH1 0x1 OR SWAP1 SSTORE PUSH2 0x86E PUSH2 0x1193 JUMP JUMPDEST POP POP POP POP POP JUMP JUMPDEST PUSH1 0x3 SLOAD PUSH1 0x40 MLOAD PUSH32 0x17E925D700000000000000000000000000000000000000000000000000000000 DUP2 MSTORE PUSH1 0x1 PUSH1 0x1 PUSH1 0xA0 SHL SUB SWAP1 SWAP2 AND SWAP1 PUSH4 0x17E925D7 SWAP1 PUSH2 0x8C1 SWAP1 DUP5 SWAP1 PUSH1 0x6 SWAP1 PUSH1 0x4 ADD PUSH2 0x7658 JUMP JUMPDEST PUSH1 0x0 PUSH1 0x40 MLOAD DUP1 DUP4 SUB DUP2 PUSH1 0x0 DUP8 DUP1 EXTCODESIZE ISZERO DUP1 ISZERO PUSH2 0x8DB JUMPI PUSH1 0x0 DUP1 REVERT JUMPDEST POP GAS CALL ISZERO DUP1 ISZERO PUSH2 0x86E JUMPI RETURNDATASIZE PUSH1 0x0 DUP1 RETURNDATACOPY RETURNDATASIZE PUSH1 0x0 REVERT JUMPDEST PUSH1 0x3 SLOAD PUSH1 0x40 DUP1 MLOAD PUSH32 0xA87D942C00000000000000000000000000000000000000000000000000000000 DUP2 MSTORE SWAP1 MLOAD DUP8 SWAP3 PUSH1 0x1 PUSH1 0x1 PUSH1 0xA0 SHL SUB AND SWAP2 PUSH4 0xA87D942C SWAP2 PUSH1 0x4 DUP1 DUP4 ADD SWAP3 PUSH1 0x20 SWAP3 SWAP2 SWAP1 DUP3 SWAP1 SUB ADD DUP2 DUP7 GAS STATICCALL ISZERO DUP1 ISZERO PUSH2 0x951 JUMPI RETURNDATASIZE PUSH1 0x0 DUP1 RETURNDATACOPY RETURNDATASIZE PUSH1 0x0 REVERT JUMPDEST POP POP POP POP PUSH1 0x40 MLOAD RETURNDATASIZE PUSH1 0x1F NOT PUSH1 0x1F DUP3 ADD AND DUP3 ADD DUP1 PUSH1 0x40 MSTORE POP DUP2 ADD SWAP1 PUSH2 0x975 SWAP2 SWAP1 PUSH2 0x75D1 JUMP JUMPDEST DUP2 GT ISZERO PUSH2 0x9C5 JUMPI PUSH1 0x40 MLOAD PUSH4 0x347626DD PUSH1 0xE2 SHL DUP2 MSTORE PUSH1 0x20 PUSH1 0x4 DUP3 ADD MSTORE PUSH1 0x12 PUSH1 0x24 DUP3 ADD MSTORE PUSH32 0x57726F6E6720696E6465782076616C7565210000000000000000000000000000 PUSH1 0x44 DUP3 ADD MSTORE PUSH1 0x64 ADD PUSH2 0x641 JUMP JUMPDEST PUSH1 0x3 SLOAD PUSH1 0x40 MLOAD PUSH32 0xAD607C7200000000000000000000000000000000000000000000000000000000 DUP2 MSTORE PUSH1 0x4 DUP2 ADD DUP9 SWAP1 MSTORE PUSH1 0x24 DUP2 ADD DUP7 SWAP1 MSTORE PUSH1 0x0 SWAP2 PUSH1 0x1 PUSH1 0x1 PUSH1 0xA0 SHL SUB AND SWAP1 PUSH4 0xAD607C72 SWAP1 PUSH1 0x44 ADD PUSH1 0x20 PUSH1 0x40 MLOAD DUP1 DUP4 SUB DUP2 DUP7 GAS STATICCALL ISZERO DUP1 ISZERO PUSH2 0xA2F JUMPI RETURNDATASIZE PUSH1 0x0 DUP1 RETURNDATACOPY RETURNDATASIZE PUSH1 0x0 REVERT JUMPDEST POP POP POP POP PUSH1 0x40 MLOAD RETURNDATASIZE PUSH1 0x1F NOT PUSH1 0x1F DUP3 ADD AND DUP3 ADD DUP1 PUSH1 0x40 MSTORE POP DUP2 ADD SWAP1 PUSH2 0xA53 SWAP2 SWAP1 PUSH2 0x7677 JUMP JUMPDEST SWAP1 POP PUSH1 0x7 DUP2 PUSH1 0xB DUP2 GT ISZERO PUSH2 0xA69 JUMPI PUSH2 0xA69 PUSH2 0x6FF0 JUMP JUMPDEST GT ISZERO PUSH2 0xAD1 JUMPI PUSH1 0x40 MLOAD PUSH32 0xB4644DD900000000000000000000000000000000000000000000000000000000 DUP2 MSTORE PUSH1 0x20 PUSH1 0x4 DUP3 ADD MSTORE PUSH1 0x10 PUSH1 0x24 DUP3 ADD MSTORE PUSH32 0x756E61626C6520746F207375626D697400000000000000000000000000000000 PUSH1 0x44 DUP3 ADD MSTORE PUSH1 0x64 ADD PUSH2 0x641 JUMP JUMPDEST PUSH1 0x0 PUSH2 0xAE0 DUP9 DUP9 DUP9 DUP9 DUP9 PUSH2 0x2DF0 JUMP JUMPDEST SWAP1 POP DUP1 ISZERO PUSH2 0xAF2 JUMPI PUSH2 0xAF2 DUP8 DUP3 PUSH2 0x3094 JUMP JUMPDEST POP POP POP POP POP POP POP POP JUMP JUMPDEST PUSH2 0xB04 PUSH2 0x32AE JUMP JUMPDEST PUSH2 0xB0D DUP2 PUSH2 0x3308 JUMP JUMPDEST POP JUMP JUMPDEST PUSH1 0x0 DUP3 PUSH1 0x3 PUSH1 0x0 SWAP1 SLOAD SWAP1 PUSH2 0x100 EXP SWAP1 DIV PUSH1 0x1 PUSH1 0x1 PUSH1 0xA0 SHL SUB AND PUSH1 0x1 PUSH1 0x1 PUSH1 0xA0 SHL SUB AND PUSH4 0xA87D942C PUSH1 0x40 MLOAD DUP2 PUSH4 0xFFFFFFFF AND PUSH1 0xE0 SHL DUP2 MSTORE PUSH1 0x4 ADD PUSH1 0x20 PUSH1 0x40 MLOAD DUP1 DUP4 SUB DUP2 DUP7 GAS STATICCALL ISZERO DUP1 ISZERO PUSH2 0xB66 JUMPI RETURNDATASIZE PUSH1 0x0 DUP1 RETURNDATACOPY RETURNDATASIZE PUSH1 0x0 REVERT JUMPDEST POP POP POP POP PUSH1 0x40 MLOAD RETURNDATASIZE PUSH1 0x1F NOT PUSH1 0x1F DUP3 ADD AND DUP3 ADD DUP1 PUSH1 0x40 MSTORE POP DUP2 ADD SWAP1 PUSH2 0xB8A SWAP2 SWAP1 PUSH2 0x75D1 JUMP JUMPDEST DUP2 GT ISZERO PUSH2 0xBDA JUMPI PUSH1 0x40 MLOAD PUSH4 0x347626DD PUSH1 0xE2 SHL DUP2 MSTORE PUSH1 0x20 PUSH1 0x4 DUP3 ADD MSTORE PUSH1 0x12 PUSH1 0x24 DUP3 ADD MSTORE PUSH32 0x57726F6E6720696E6465782076616C7565210000000000000000000000000000 PUSH1 0x44 DUP3 ADD MSTORE PUSH1 0x64 ADD PUSH2 0x641 JUMP JUMPDEST PUSH1 0x0 PUSH2 0xBE6 DUP6 DUP6 PUSH2 0x3402 JUMP JUMPDEST PUSH1 0x3 SLOAD PUSH1 0x40 MLOAD PUSH32 0x172372C200000000000000000000000000000000000000000000000000000000 DUP2 MSTORE PUSH1 0x1 PUSH1 0x1 PUSH1 0xA0 SHL SUB DUP8 DUP2 AND PUSH1 0x4 DUP4 ADD MSTORE PUSH1 0x24 DUP3 ADD DUP5 SWAP1 MSTORE SWAP3 SWAP4 POP SWAP2 AND SWAP1 PUSH4 0x172372C2 SWAP1 PUSH1 0x44 ADD PUSH1 0x0 PUSH1 0x40 MLOAD DUP1 DUP4 SUB DUP2 PUSH1 0x0 DUP8 DUP1 EXTCODESIZE ISZERO DUP1 ISZERO PUSH2 0xC4F JUMPI PUSH1 0x0 DUP1 REVERT JUMPDEST POP GAS CALL ISZERO DUP1 ISZERO PUSH2 0xC63 JUMPI RETURNDATASIZE PUSH1 0x0 DUP1 RETURNDATACOPY RETURNDATASIZE PUSH1 0x0 REVERT JUMPDEST POP SWAP3 SWAP8 SWAP7 POP POP POP POP POP POP POP JUMP JUMPDEST PUSH2 0xC79 CALLER PUSH2 0x3857 JUMP JUMPDEST PUSH2 0xCDF JUMPI PUSH1 0x40 MLOAD PUSH32 0x934F2C300000000000000000000000000000000000000000000000000000000 DUP2 MSTORE PUSH1 0x20 PUSH1 0x4 DUP3 ADD MSTORE PUSH1 0x12 PUSH1 0x24 DUP3 ADD MSTORE PUSH32 0x4E6F7420486176652050617373204E4654210000000000000000000000000000 PUSH1 0x44 DUP3 ADD MSTORE PUSH1 0x64 ADD PUSH2 0x641 JUMP JUMPDEST PUSH1 0x3 SLOAD PUSH1 0x40 DUP1 MLOAD PUSH32 0xA87D942C00000000000000000000000000000000000000000000000000000000 DUP2 MSTORE SWAP1 MLOAD DUP5 SWAP3 PUSH1 0x1 PUSH1 0x1 PUSH1 0xA0 SHL SUB AND SWAP2 PUSH4 0xA87D942C SWAP2 PUSH1 0x4 DUP1 DUP4 ADD SWAP3 PUSH1 0x20 SWAP3 SWAP2 SWAP1 DUP3 SWAP1 SUB ADD DUP2 DUP7 GAS STATICCALL ISZERO DUP1 ISZERO PUSH2 0xD41 JUMPI RETURNDATASIZE PUSH1 0x0 DUP1 RETURNDATACOPY RETURNDATASIZE PUSH1 0x0 REVERT JUMPDEST POP POP POP POP PUSH1 0x40 MLOAD RETURNDATASIZE PUSH1 0x1F NOT PUSH1 0x1F DUP3 ADD AND DUP3 ADD DUP1 PUSH1 0x40 MSTORE POP DUP2 ADD SWAP1 PUSH2 0xD65 SWAP2 SWAP1 PUSH2 0x75D1 JUMP JUMPDEST DUP2 GT ISZERO PUSH2 0xDB5 JUMPI PUSH1 0x40 MLOAD PUSH4 0x347626DD PUSH1 0xE2 SHL DUP2 MSTORE PUSH1 0x20 PUSH1 0x4 DUP3 ADD MSTORE PUSH1 0x12 PUSH1 0x24 DUP3 ADD MSTORE PUSH32 0x57726F6E6720696E6465782076616C7565210000000000000000000000000000 PUSH1 0x44 DUP3 ADD MSTORE PUSH1 0x64 ADD PUSH2 0x641 JUMP JUMPDEST PUSH1 0x3 SLOAD PUSH1 0x40 MLOAD PUSH32 0x546677AA00000000000000000000000000000000000000000000000000000000 DUP2 MSTORE PUSH1 0x4 DUP2 ADD DUP6 SWAP1 MSTORE DUP5 SWAP2 PUSH1 0x1 PUSH1 0x1 PUSH1 0xA0 SHL SUB AND SWAP1 PUSH4 0x546677AA SWAP1 PUSH1 0x24 ADD PUSH1 0x20 PUSH1 0x40 MLOAD DUP1 DUP4 SUB DUP2 DUP7 GAS STATICCALL ISZERO DUP1 ISZERO PUSH2 0xE17 JUMPI RETURNDATASIZE PUSH1 0x0 DUP1 RETURNDATACOPY RETURNDATASIZE PUSH1 0x0 REVERT JUMPDEST POP POP POP POP PUSH1 0x40 MLOAD RETURNDATASIZE PUSH1 0x1F NOT PUSH1 0x1F DUP3 ADD AND DUP3 ADD DUP1 PUSH1 0x40 MSTORE POP DUP2 ADD SWAP1 PUSH2 0xE3B SWAP2 SWAP1 PUSH2 0x769F JUMP JUMPDEST PUSH2 0xEA1 JUMPI PUSH1 0x40 MLOAD PUSH32 0xB4644DD900000000000000000000000000000000000000000000000000000000 DUP2 MSTORE PUSH1 0x20 PUSH1 0x4 DUP3 ADD MSTORE PUSH1 0x12 PUSH1 0x24 DUP3 ADD MSTORE PUSH32 0x43616E27742072656365697665207461736B0000000000000000000000000000 PUSH1 0x44 DUP3 ADD MSTORE PUSH1 0x64 ADD PUSH2 0x641 JUMP JUMPDEST PUSH1 0x3 SLOAD PUSH1 0x40 MLOAD PUSH32 0xD3D7BC3B00000000000000000000000000000000000000000000000000000000 DUP2 MSTORE CALLER PUSH1 0x4 DUP3 ADD DUP2 SWAP1 MSTORE SWAP2 PUSH1 0x0 SWAP2 PUSH1 0x1 PUSH1 0x1 PUSH1 0xA0 SHL SUB SWAP1 SWAP2 AND SWAP1 PUSH4 0xD3D7BC3B SWAP1 PUSH1 0x24 ADD PUSH1 0x20 PUSH1 0x40 MLOAD DUP1 DUP4 SUB DUP2 DUP7 GAS STATICCALL ISZERO DUP1 ISZERO PUSH2 0xF08 JUMPI RETURNDATASIZE PUSH1 0x0 DUP1 RETURNDATACOPY RETURNDATASIZE PUSH1 0x0 REVERT JUMPDEST POP POP POP POP PUSH1 0x40 MLOAD RETURNDATASIZE PUSH1 0x1F NOT PUSH1 0x1F DUP3 ADD AND DUP3 ADD DUP1 PUSH1 0x40 MSTORE POP DUP2 ADD SWAP1 PUSH2 0xF2C SWAP2 SWAP1 PUSH2 0x75D1 JUMP JUMPDEST SWAP1 POP DUP1 ISZERO PUSH2 0xF96 JUMPI PUSH1 0x40 MLOAD PUSH32 0x934F2C300000000000000000000000000000000000000000000000000000000 DUP2 MSTORE PUSH1 0x20 PUSH1 0x4 DUP3 ADD MSTORE PUSH1 0xF PUSH1 0x24 DUP3 ADD MSTORE PUSH32 0x756E706169642070656E616C7479210000000000000000000000000000000000 PUSH1 0x44 DUP3 ADD MSTORE PUSH1 0x64 ADD PUSH2 0x641 JUMP JUMPDEST PUSH2 0xFA1 DUP7 DUP7 CALLER PUSH2 0x3902 JUMP JUMPDEST PUSH32 0x8E913351AA76002E572CC432B46556976F6E10285B52F94909124EA8EBD0B795 DUP7 DUP7 CALLER PUSH1 0x0 PUSH1 0x40 MLOAD PUSH2 0xFD7 SWAP5 SWAP4 SWAP3 SWAP2 SWAP1 PUSH2 0x76BC JUMP JUMPDEST PUSH1 0x40 MLOAD DUP1 SWAP2 SUB SWAP1 LOG1 POP POP CALLER PUSH1 0x0 SWAP1 DUP2 MSTORE PUSH1 0x5 PUSH1 0x20 MSTORE PUSH1 0x40 SWAP1 KECCAK256 DUP1 SLOAD PUSH1 0xFF NOT AND PUSH1 0x1 OR SWAP1 SSTORE POP POP POP POP JUMP JUMPDEST PUSH1 0x3 SLOAD PUSH1 0x40 MLOAD PUSH32 0xD3D7BC3B00000000000000000000000000000000000000000000000000000000 DUP2 MSTORE PUSH1 0x1 PUSH1 0x1 PUSH1 0xA0 SHL SUB DUP4 DUP2 AND PUSH1 0x4 DUP4 ADD MSTORE SWAP1 SWAP2 AND SWAP1 PUSH4 0xD3D7BC3B SWAP1 PUSH1 0x24 ADD PUSH1 0x20 PUSH1 0x40 MLOAD DUP1 DUP4 SUB DUP2 DUP7 GAS STATICCALL ISZERO DUP1 ISZERO PUSH2 0x1064 JUMPI RETURNDATASIZE PUSH1 0x0 DUP1 RETURNDATACOPY RETURNDATASIZE PUSH1 0x0 REVERT JUMPDEST POP POP POP POP PUSH1 0x40 MLOAD RETURNDATASIZE PUSH1 0x1F NOT PUSH1 0x1F DUP3 ADD AND DUP3 ADD DUP1 PUSH1 0x40 MSTORE POP DUP2 ADD SWAP1 PUSH2 0x1088 SWAP2 SWAP1 PUSH2 0x75D1 JUMP JUMPDEST PUSH2 0x109A SWAP1 PUSH8 0xDE0B6B3A7640000 PUSH2 0x7641 JUMP JUMPDEST CALLVALUE GT ISZERO PUSH2 0x110B JUMPI PUSH1 0x40 DUP1 MLOAD PUSH32 0x79D3124B00000000000000000000000000000000000000000000000000000000 DUP2 MSTORE PUSH1 0x4 DUP2 ADD SWAP2 SWAP1 SWAP2 MSTORE PUSH1 0x11 PUSH1 0x44 DUP3 ADD MSTORE PUSH32 0x76616C756520697320746F6F2068696768000000000000000000000000000000 PUSH1 0x64 DUP3 ADD MSTORE CALLVALUE PUSH1 0x24 DUP3 ADD MSTORE PUSH1 0x84 ADD PUSH2 0x641 JUMP JUMPDEST PUSH1 0x3 SLOAD PUSH1 0x40 MLOAD PUSH32 0x57840DA600000000000000000000000000000000000000000000000000000000 DUP2 MSTORE PUSH1 0x1 PUSH1 0x1 PUSH1 0xA0 SHL SUB DUP4 DUP2 AND PUSH1 0x4 DUP4 ADD MSTORE CALLVALUE PUSH1 0x24 DUP4 ADD MSTORE SWAP1 SWAP2 AND SWAP1 PUSH4 0x57840DA6 SWAP1 PUSH1 0x44 ADD PUSH1 0x0 PUSH1 0x40 MLOAD DUP1 DUP4 SUB DUP2 PUSH1 0x0 DUP8 DUP1 EXTCODESIZE ISZERO DUP1 ISZERO PUSH2 0x1171 JUMPI PUSH1 0x0 DUP1 REVERT JUMPDEST POP GAS CALL ISZERO DUP1 ISZERO PUSH2 0x1185 JUMPI RETURNDATASIZE PUSH1 0x0 DUP1 RETURNDATACOPY RETURNDATASIZE PUSH1 0x0 REVERT JUMPDEST POP POP POP POP PUSH2 0xB0D DUP2 CALLVALUE PUSH2 0x3DE4 JUMP JUMPDEST PUSH1 0x40 MLOAD PUSH1 0x0 SWAP1 ADDRESS SWAP1 CALLVALUE SWAP1 DUP4 DUP2 DUP2 DUP2 DUP6 DUP8 GAS CALL SWAP3 POP POP POP RETURNDATASIZE DUP1 PUSH1 0x0 DUP2 EQ PUSH2 0x11D5 JUMPI PUSH1 0x40 MLOAD SWAP2 POP PUSH1 0x1F NOT PUSH1 0x3F RETURNDATASIZE ADD AND DUP3 ADD PUSH1 0x40 MSTORE RETURNDATASIZE DUP3 MSTORE RETURNDATASIZE PUSH1 0x0 PUSH1 0x20 DUP5 ADD RETURNDATACOPY PUSH2 0x11DA JUMP JUMPDEST PUSH1 0x60 SWAP2 POP JUMPDEST POP POP SWAP1 POP DUP1 PUSH2 0x122B JUMPI PUSH1 0x40 MLOAD PUSH3 0x461BCD PUSH1 0xE5 SHL DUP2 MSTORE PUSH1 0x20 PUSH1 0x4 DUP3 ADD MSTORE PUSH1 0xB PUSH1 0x24 DUP3 ADD MSTORE PUSH32 0x43616C6C206661696C6564000000000000000000000000000000000000000000 PUSH1 0x44 DUP3 ADD MSTORE PUSH1 0x64 ADD PUSH2 0x641 JUMP JUMPDEST PUSH1 0x40 DUP1 MLOAD CALLER DUP2 MSTORE ADDRESS PUSH1 0x20 DUP3 ADD MSTORE CALLVALUE SWAP2 DUP2 ADD SWAP2 SWAP1 SWAP2 MSTORE PUSH32 0xB37BD6F3CCFCE130859D4569DC432409F423A7928E73EB5C5049A94E40F0C648 SWAP1 PUSH1 0x60 ADD JUMPDEST PUSH1 0x40 MLOAD DUP1 SWAP2 SUB SWAP1 LOG1 POP JUMP JUMPDEST PUSH1 0x0 DUP3 PUSH1 0x3 PUSH1 0x0 SWAP1 SLOAD SWAP1 PUSH2 0x100 EXP SWAP1 DIV PUSH1 0x1 PUSH1 0x1 PUSH1 0xA0 SHL SUB AND PUSH1 0x1 PUSH1 0x1 PUSH1 0xA0 SHL SUB AND PUSH4 0xA87D942C PUSH1 0x40 MLOAD DUP2 PUSH4 0xFFFFFFFF AND PUSH1 0xE0 SHL DUP2 MSTORE PUSH1 0x4 ADD PUSH1 0x20 PUSH1 0x40 MLOAD DUP1 DUP4 SUB DUP2 DUP7 GAS STATICCALL ISZERO DUP1 ISZERO PUSH2 0x12C7 JUMPI RETURNDATASIZE PUSH1 0x0 DUP1 RETURNDATACOPY RETURNDATASIZE PUSH1 0x0 REVERT JUMPDEST POP POP POP POP PUSH1 0x40 MLOAD RETURNDATASIZE PUSH1 0x1F NOT PUSH1 0x1F DUP3 ADD AND DUP3 ADD DUP1 PUSH1 0x40 MSTORE POP DUP2 ADD SWAP1 PUSH2 0x12EB SWAP2 SWAP1 PUSH2 0x75D1 JUMP JUMPDEST DUP2 GT ISZERO PUSH2 0x133B JUMPI PUSH1 0x40 MLOAD PUSH4 0x347626DD PUSH1 0xE2 SHL DUP2 MSTORE PUSH1 0x20 PUSH1 0x4 DUP3 ADD MSTORE PUSH1 0x12 PUSH1 0x24 DUP3 ADD MSTORE PUSH32 0x57726F6E6720696E6465782076616C7565210000000000000000000000000000 PUSH1 0x44 DUP3 ADD MSTORE PUSH1 0x64 ADD PUSH2 0x641 JUMP JUMPDEST PUSH1 0x0 PUSH2 0xBE6 DUP6 DUP6 PUSH2 0x3F75 JUMP JUMPDEST PUSH1 0x3 SLOAD PUSH1 0x40 DUP1 MLOAD PUSH32 0xA87D942C00000000000000000000000000000000000000000000000000000000 DUP2 MSTORE SWAP1 MLOAD DUP8 SWAP3 PUSH1 0x1 PUSH1 0x1 PUSH1 0xA0 SHL SUB AND SWAP2 PUSH4 0xA87D942C SWAP2 PUSH1 0x4 DUP1 DUP4 ADD SWAP3 PUSH1 0x20 SWAP3 SWAP2 SWAP1 DUP3 SWAP1 SUB ADD DUP2 DUP7 GAS STATICCALL ISZERO DUP1 ISZERO PUSH2 0x13A9 JUMPI RETURNDATASIZE PUSH1 0x0 DUP1 RETURNDATACOPY RETURNDATASIZE PUSH1 0x0 REVERT JUMPDEST POP POP POP POP PUSH1 0x40 MLOAD RETURNDATASIZE PUSH1 0x1F NOT PUSH1 0x1F DUP3 ADD AND DUP3 ADD DUP1 PUSH1 0x40 MSTORE POP DUP2 ADD SWAP1 PUSH2 0x13CD SWAP2 SWAP1 PUSH2 0x75D1 JUMP JUMPDEST DUP2 GT ISZERO PUSH2 0x141D JUMPI PUSH1 0x40 MLOAD PUSH4 0x347626DD PUSH1 0xE2 SHL DUP2 MSTORE PUSH1 0x20 PUSH1 0x4 DUP3 ADD MSTORE PUSH1 0x12 PUSH1 0x24 DUP3 ADD MSTORE PUSH32 0x57726F6E6720696E6465782076616C7565210000000000000000000000000000 PUSH1 0x44 DUP3 ADD MSTORE PUSH1 0x64 ADD PUSH2 0x641 JUMP JUMPDEST PUSH1 0x3 SLOAD PUSH1 0x40 MLOAD PUSH32 0x5BF608B800000000000000000000000000000000000000000000000000000000 DUP2 MSTORE PUSH1 0x4 DUP2 ADD DUP9 SWAP1 MSTORE DUP8 SWAP2 CALLER SWAP2 PUSH1 0x1 PUSH1 0x1 PUSH1 0xA0 SHL SUB SWAP1 SWAP2 AND SWAP1 PUSH4 0x5BF608B8 SWAP1 PUSH1 0x24 ADD PUSH1 0x20 PUSH1 0x40 MLOAD DUP1 DUP4 SUB DUP2 DUP7 GAS STATICCALL ISZERO DUP1 ISZERO PUSH2 0x1483 JUMPI RETURNDATASIZE PUSH1 0x0 DUP1 RETURNDATACOPY RETURNDATASIZE PUSH1 0x0 REVERT JUMPDEST POP POP POP POP PUSH1 0x40 MLOAD RETURNDATASIZE PUSH1 0x1F NOT PUSH1 0x1F DUP3 ADD AND DUP3 ADD DUP1 PUSH1 0x40 MSTORE POP DUP2 ADD SWAP1 PUSH2 0x14A7 SWAP2 SWAP1 PUSH2 0x75F5 JUMP JUMPDEST PUSH1 0x1 PUSH1 0x1 PUSH1 0xA0 SHL SUB AND EQ PUSH2 0x14FD JUMPI PUSH1 0x40 MLOAD PUSH3 0x461BCD PUSH1 0xE5 SHL DUP2 MSTORE PUSH1 0x20 PUSH1 0x4 DUP3 ADD MSTORE PUSH1 0xA PUSH1 0x24 DUP3 ADD MSTORE PUSH32 0x4F6E6C7920627579657200000000000000000000000000000000000000000000 PUSH1 0x44 DUP3 ADD MSTORE PUSH1 0x64 ADD PUSH2 0x641 JUMP JUMPDEST PUSH1 0x3 SLOAD PUSH1 0x40 MLOAD PUSH32 0x7C34EB8500000000000000000000000000000000000000000000000000000000 DUP2 MSTORE PUSH1 0x4 DUP2 ADD DUP10 SWAP1 MSTORE PUSH1 0x0 SWAP2 PUSH1 0x1 PUSH1 0x1 PUSH1 0xA0 SHL SUB AND SWAP1 PUSH4 0x7C34EB85 SWAP1 PUSH1 0x24 ADD PUSH1 0x20 PUSH1 0x40 MLOAD DUP1 DUP4 SUB DUP2 DUP7 GAS STATICCALL ISZERO DUP1 ISZERO PUSH2 0x1560 JUMPI RETURNDATASIZE PUSH1 0x0 DUP1 RETURNDATACOPY RETURNDATASIZE PUSH1 0x0 REVERT JUMPDEST POP POP POP POP PUSH1 0x40 MLOAD RETURNDATASIZE PUSH1 0x1F NOT PUSH1 0x1F DUP3 ADD AND DUP3 ADD DUP1 PUSH1 0x40 MSTORE POP DUP2 ADD SWAP1 PUSH2 0x1584 SWAP2 SWAP1 PUSH2 0x769F JUMP JUMPDEST ISZERO PUSH2 0x161D JUMPI PUSH1 0x3 SLOAD PUSH1 0x40 MLOAD PUSH32 0xE1CA7CA700000000000000000000000000000000000000000000000000000000 DUP2 MSTORE PUSH1 0x4 DUP2 ADD DUP11 SWAP1 MSTORE PUSH1 0x24 DUP2 ADD DUP9 SWAP1 MSTORE PUSH1 0x1 PUSH1 0x1 PUSH1 0xA0 SHL SUB SWAP1 SWAP2 AND SWAP1 PUSH4 0xE1CA7CA7 SWAP1 PUSH1 0x44 ADD PUSH1 0x20 PUSH1 0x40 MLOAD DUP1 DUP4 SUB DUP2 DUP7 GAS STATICCALL ISZERO DUP1 ISZERO PUSH2 0x15F2 JUMPI RETURNDATASIZE PUSH1 0x0 DUP1 RETURNDATACOPY RETURNDATASIZE PUSH1 0x0 REVERT JUMPDEST POP POP POP POP PUSH1 0x40 MLOAD RETURNDATASIZE PUSH1 0x1F NOT PUSH1 0x1F DUP3 ADD AND DUP3 ADD DUP1 PUSH1 0x40 MSTORE POP DUP2 ADD SWAP1 PUSH2 0x1616 SWAP2 SWAP1 PUSH2 0x75D1 JUMP JUMPDEST SWAP1 POP PUSH2 0x16A6 JUMP JUMPDEST PUSH1 0x3 SLOAD PUSH1 0x40 MLOAD PUSH32 0x6E97398200000000000000000000000000000000000000000000000000000000 DUP2 MSTORE PUSH1 0x4 DUP2 ADD DUP11 SWAP1 MSTORE PUSH1 0x1 PUSH1 0x1 PUSH1 0xA0 SHL SUB SWAP1 SWAP2 AND SWAP1 PUSH4 0x6E973982 SWAP1 PUSH1 0x24 ADD PUSH1 0x20 PUSH1 0x40 MLOAD DUP1 DUP4 SUB DUP2 DUP7 GAS STATICCALL ISZERO DUP1 ISZERO PUSH2 0x167F JUMPI RETURNDATASIZE PUSH1 0x0 DUP1 RETURNDATACOPY RETURNDATASIZE PUSH1 0x0 REVERT JUMPDEST POP POP POP POP PUSH1 0x40 MLOAD RETURNDATASIZE PUSH1 0x1F NOT PUSH1 0x1F DUP3 ADD AND DUP3 ADD DUP1 PUSH1 0x40 MSTORE POP DUP2 ADD SWAP1 PUSH2 0x16A3 SWAP2 SWAP1 PUSH2 0x75D1 JUMP JUMPDEST SWAP1 POP JUMPDEST PUSH2 0x16B2 DUP9 DUP9 DUP9 DUP9 PUSH2 0x4270 JUMP JUMPDEST DUP5 ISZERO PUSH2 0x1900 JUMPI PUSH1 0x4 SLOAD PUSH1 0x0 SWAP1 PUSH1 0x1 PUSH1 0x1 PUSH1 0xA0 SHL SUB AND PUSH4 0xF74F3655 PUSH2 0x16DE DUP5 PUSH8 0xDE0B6B3A7640000 PUSH2 0x7641 JUMP JUMPDEST PUSH1 0x40 MLOAD PUSH32 0xFFFFFFFF00000000000000000000000000000000000000000000000000000000 PUSH1 0xE0 DUP5 SWAP1 SHL AND DUP2 MSTORE PUSH1 0x4 DUP2 ADD SWAP2 SWAP1 SWAP2 MSTORE PUSH1 0x46 PUSH1 0x24 DUP3 ADD MSTORE PUSH1 0x44 ADD PUSH1 0x20 PUSH1 0x40 MLOAD DUP1 DUP4 SUB DUP2 DUP7 GAS STATICCALL ISZERO DUP1 ISZERO PUSH2 0x1739 JUMPI RETURNDATASIZE PUSH1 0x0 DUP1 RETURNDATACOPY RETURNDATASIZE PUSH1 0x0 REVERT JUMPDEST POP POP POP POP PUSH1 0x40 MLOAD RETURNDATASIZE PUSH1 0x1F NOT PUSH1 0x1F DUP3 ADD AND DUP3 ADD DUP1 PUSH1 0x40 MSTORE POP DUP2 ADD SWAP1 PUSH2 0x175D SWAP2 SWAP1 PUSH2 0x75D1 JUMP JUMPDEST SWAP1 POP DUP1 CALLVALUE LT ISZERO PUSH2 0x17D1 JUMPI PUSH1 0x40 DUP1 MLOAD PUSH32 0x79D3124B00000000000000000000000000000000000000000000000000000000 DUP2 MSTORE PUSH1 0x4 DUP2 ADD SWAP2 SWAP1 SWAP2 MSTORE PUSH1 0x17 PUSH1 0x44 DUP3 ADD MSTORE PUSH32 0x6572726F72203A20496E636F72726563742076616C7565000000000000000000 PUSH1 0x64 DUP3 ADD MSTORE CALLVALUE PUSH1 0x24 DUP3 ADD MSTORE PUSH1 0x84 ADD PUSH2 0x641 JUMP JUMPDEST PUSH2 0x17D9 PUSH2 0x1193 JUMP JUMPDEST PUSH1 0x4 SLOAD PUSH1 0x0 SWAP1 PUSH1 0x1 PUSH1 0x1 PUSH1 0xA0 SHL SUB AND PUSH4 0x5C830098 PUSH2 0x17FF DUP6 PUSH8 0xDE0B6B3A7640000 PUSH2 0x7641 JUMP JUMPDEST PUSH1 0x40 MLOAD DUP3 PUSH4 0xFFFFFFFF AND PUSH1 0xE0 SHL DUP2 MSTORE PUSH1 0x4 ADD PUSH2 0x181D SWAP2 DUP2 MSTORE PUSH1 0x20 ADD SWAP1 JUMP JUMPDEST PUSH1 0x20 PUSH1 0x40 MLOAD DUP1 DUP4 SUB DUP2 DUP7 GAS STATICCALL ISZERO DUP1 ISZERO PUSH2 0x183A JUMPI RETURNDATASIZE PUSH1 0x0 DUP1 RETURNDATACOPY RETURNDATASIZE PUSH1 0x0 REVERT JUMPDEST POP POP POP POP PUSH1 0x40 MLOAD RETURNDATASIZE PUSH1 0x1F NOT PUSH1 0x1F DUP3 ADD AND DUP3 ADD DUP1 PUSH1 0x40 MSTORE POP DUP2 ADD SWAP1 PUSH2 0x185E SWAP2 SWAP1 PUSH2 0x75D1 JUMP JUMPDEST PUSH1 0x4 SLOAD SWAP1 SWAP2 POP PUSH1 0x0 SWAP1 PUSH1 0x1 PUSH1 0x1 PUSH1 0xA0 SHL SUB AND PUSH4 0xA3CB7C55 PUSH2 0x1887 DUP7 PUSH8 0xDE0B6B3A7640000 PUSH2 0x7641 JUMP JUMPDEST PUSH1 0x40 MLOAD DUP3 PUSH4 0xFFFFFFFF AND PUSH1 0xE0 SHL DUP2 MSTORE PUSH1 0x4 ADD PUSH2 0x18A5 SWAP2 DUP2 MSTORE PUSH1 0x20 ADD SWAP1 JUMP JUMPDEST PUSH1 0x20 PUSH1 0x40 MLOAD DUP1 DUP4 SUB DUP2 DUP7 GAS STATICCALL ISZERO DUP1 ISZERO PUSH2 0x18C2 JUMPI RETURNDATASIZE PUSH1 0x0 DUP1 RETURNDATACOPY RETURNDATASIZE PUSH1 0x0 REVERT JUMPDEST POP POP POP POP PUSH1 0x40 MLOAD RETURNDATASIZE PUSH1 0x1F NOT PUSH1 0x1F DUP3 ADD AND DUP3 ADD DUP1 PUSH1 0x40 MSTORE POP DUP2 ADD SWAP1 PUSH2 0x18E6 SWAP2 SWAP1 PUSH2 0x75D1 JUMP JUMPDEST SWAP1 POP PUSH2 0x18F2 DUP11 DUP4 PUSH2 0x3094 JUMP JUMPDEST PUSH2 0x18FC DUP8 DUP3 PUSH2 0x3094 JUMP JUMPDEST POP POP POP JUMPDEST POP POP CALLER PUSH1 0x0 SWAP1 DUP2 MSTORE PUSH1 0x5 PUSH1 0x20 MSTORE PUSH1 0x40 SWAP1 KECCAK256 DUP1 SLOAD PUSH1 0xFF NOT AND SWAP1 SSTORE POP POP POP POP POP POP JUMP JUMPDEST PUSH2 0x1929 PUSH2 0x32AE JUMP JUMPDEST PUSH2 0x1933 PUSH1 0x0 PUSH2 0x42B1 JUMP JUMPDEST JUMP JUMPDEST PUSH2 0x193D PUSH2 0x32AE JUMP JUMPDEST PUSH2 0x1933 PUSH2 0x4319 JUMP JUMPDEST PUSH1 0x3 SLOAD PUSH1 0x40 DUP1 MLOAD PUSH32 0xA87D942C00000000000000000000000000000000000000000000000000000000 DUP2 MSTORE SWAP1 MLOAD DUP4 SWAP3 PUSH1 0x1 PUSH1 0x1 PUSH1 0xA0 SHL SUB AND SWAP2 PUSH4 0xA87D942C SWAP2 PUSH1 0x4 DUP1 DUP4 ADD SWAP3 PUSH1 0x20 SWAP3 SWAP2 SWAP1 DUP3 SWAP1 SUB ADD DUP2 DUP7 GAS STATICCALL ISZERO DUP1 ISZERO PUSH2 0x19A7 JUMPI RETURNDATASIZE PUSH1 0x0 DUP1 RETURNDATACOPY RETURNDATASIZE PUSH1 0x0 REVERT JUMPDEST POP POP POP POP PUSH1 0x40 MLOAD RETURNDATASIZE PUSH1 0x1F NOT PUSH1 0x1F DUP3 ADD AND DUP3 ADD DUP1 PUSH1 0x40 MSTORE POP DUP2 ADD SWAP1 PUSH2 0x19CB SWAP2 SWAP1 PUSH2 0x75D1 JUMP JUMPDEST DUP2 GT ISZERO PUSH2 0x1A1B JUMPI PUSH1 0x40 MLOAD PUSH4 0x347626DD PUSH1 0xE2 SHL DUP2 MSTORE PUSH1 0x20 PUSH1 0x4 DUP3 ADD MSTORE PUSH1 0x12 PUSH1 0x24 DUP3 ADD MSTORE PUSH32 0x57726F6E6720696E6465782076616C7565210000000000000000000000000000 PUSH1 0x44 DUP3 ADD MSTORE PUSH1 0x64 ADD PUSH2 0x641 JUMP JUMPDEST PUSH2 0x1A24 DUP3 PUSH2 0x4403 JUMP JUMPDEST POP POP POP POP JUMP JUMPDEST PUSH1 0x3 SLOAD PUSH1 0x40 MLOAD PUSH32 0x1FA2BF4C00000000000000000000000000000000000000000000000000000000 DUP2 MSTORE PUSH1 0x1 PUSH1 0x1 PUSH1 0xA0 SHL SUB SWAP1 SWAP2 AND SWAP1 PUSH4 0x1FA2BF4C SWAP1 PUSH2 0x1A78 SWAP1 DUP6 SWAP1 DUP6 SWAP1 PUSH1 0xB SWAP1 PUSH1 0x4 ADD PUSH2 0x76F6 JUMP JUMPDEST PUSH1 0x0 PUSH1 0x40 MLOAD DUP1 DUP4 SUB DUP2 PUSH1 0x0 DUP8 DUP1 EXTCODESIZE ISZERO DUP1 ISZERO PUSH2 0x1A92 JUMPI PUSH1 0x0 DUP1 REVERT JUMPDEST POP GAS CALL ISZERO DUP1 ISZERO PUSH2 0x1AA6 JUMPI RETURNDATASIZE PUSH1 0x0 DUP1 RETURNDATACOPY RETURNDATASIZE PUSH1 0x0 REVERT JUMPDEST POP POP POP POP POP POP JUMP JUMPDEST PUSH1 0x3 SLOAD PUSH1 0x40 DUP1 MLOAD PUSH32 0xA87D942C00000000000000000000000000000000000000000000000000000000 DUP2 MSTORE SWAP1 MLOAD DUP4 SWAP3 PUSH1 0x1 PUSH1 0x1 PUSH1 0xA0 SHL SUB AND SWAP2 PUSH4 0xA87D942C SWAP2 PUSH1 0x4 DUP1 DUP4 ADD SWAP3 PUSH1 0x20 SWAP3 SWAP2 SWAP1 DUP3 SWAP1 SUB ADD DUP2 DUP7 GAS STATICCALL ISZERO DUP1 ISZERO PUSH2 0x1B10 JUMPI RETURNDATASIZE PUSH1 0x0 DUP1 RETURNDATACOPY RETURNDATASIZE PUSH1 0x0 REVERT JUMPDEST POP POP POP POP PUSH1 0x40 MLOAD RETURNDATASIZE PUSH1 0x1F NOT PUSH1 0x1F DUP3 ADD AND DUP3 ADD DUP1 PUSH1 0x40 MSTORE POP DUP2 ADD SWAP1 PUSH2 0x1B34 SWAP2 SWAP1 PUSH2 0x75D1 JUMP JUMPDEST DUP2 GT ISZERO PUSH2 0x1B84 JUMPI PUSH1 0x40 MLOAD PUSH4 0x347626DD PUSH1 0xE2 SHL DUP2 MSTORE PUSH1 0x20 PUSH1 0x4 DUP3 ADD MSTORE PUSH1 0x12 PUSH1 0x24 DUP3 ADD MSTORE PUSH32 0x57726F6E6720696E6465782076616C7565210000000000000000000000000000 PUSH1 0x44 DUP3 ADD MSTORE PUSH1 0x64 ADD PUSH2 0x641 JUMP JUMPDEST PUSH2 0x1A24 DUP3 PUSH2 0x4C82 JUMP JUMPDEST PUSH1 0x3 SLOAD PUSH1 0x40 DUP1 MLOAD PUSH32 0xA87D942C00000000000000000000000000000000000000000000000000000000 DUP2 MSTORE SWAP1 MLOAD PUSH1 0x0 SWAP3 PUSH1 0x1 PUSH1 0x1 PUSH1 0xA0 SHL SUB AND SWAP2 PUSH4 0xA87D942C SWAP2 PUSH1 0x4 DUP1 DUP4 ADD SWAP3 PUSH1 0x20 SWAP3 SWAP2 SWAP1 DUP3 SWAP1 SUB ADD DUP2 DUP7 GAS STATICCALL ISZERO DUP1 ISZERO PUSH2 0x1BF0 JUMPI RETURNDATASIZE PUSH1 0x0 DUP1 RETURNDATACOPY RETURNDATASIZE PUSH1 0x0 REVERT JUMPDEST POP POP POP POP PUSH1 0x40 MLOAD RETURNDATASIZE PUSH1 0x1F NOT PUSH1 0x1F DUP3 ADD AND DUP3 ADD DUP1 PUSH1 0x40 MSTORE POP DUP2 ADD SWAP1 PUSH2 0x1C14 SWAP2 SWAP1 PUSH2 0x75D1 JUMP JUMPDEST SWAP1 POP SWAP1 JUMP JUMPDEST PUSH1 0x3 SLOAD PUSH1 0x40 MLOAD PUSH32 0xD3D7BC3B00000000000000000000000000000000000000000000000000000000 DUP2 MSTORE CALLER PUSH1 0x4 DUP3 ADD DUP2 SWAP1 MSTORE PUSH1 0x0 SWAP3 SWAP1 SWAP2 DUP4 SWAP2 PUSH1 0x1 PUSH1 0x1 PUSH1 0xA0 SHL SUB AND SWAP1 PUSH4 0xD3D7BC3B SWAP1 PUSH1 0x24 ADD PUSH1 0x20 PUSH1 0x40 MLOAD DUP1 DUP4 SUB DUP2 DUP7 GAS STATICCALL ISZERO DUP1 ISZERO PUSH2 0x1C81 JUMPI RETURNDATASIZE PUSH1 0x0 DUP1 RETURNDATACOPY RETURNDATASIZE PUSH1 0x0 REVERT JUMPDEST POP POP POP POP PUSH1 0x40 MLOAD RETURNDATASIZE PUSH1 0x1F NOT PUSH1 0x1F DUP3 ADD AND DUP3 ADD DUP1 PUSH1 0x40 MSTORE POP DUP2 ADD SWAP1 PUSH2 0x1CA5 SWAP2 SWAP1 PUSH2 0x75D1 JUMP JUMPDEST SWAP1 POP DUP1 ISZERO PUSH2 0x1D0F JUMPI PUSH1 0x40 MLOAD PUSH32 0x934F2C300000000000000000000000000000000000000000000000000000000 DUP2 MSTORE PUSH1 0x20 PUSH1 0x4 DUP3 ADD MSTORE PUSH1 0xF PUSH1 0x24 DUP3 ADD MSTORE PUSH32 0x756E706169642070656E616C7479210000000000000000000000000000000000 PUSH1 0x44 DUP3 ADD MSTORE PUSH1 0x64 ADD PUSH2 0x641 JUMP JUMPDEST PUSH2 0x1D18 DUP5 PUSH2 0x5772 JUMP JUMPDEST PUSH1 0x4 SLOAD PUSH2 0x160 DUP7 ADD MLOAD SWAP2 SWAP5 POP PUSH1 0x0 SWAP2 PUSH1 0x1 PUSH1 0x1 PUSH1 0xA0 SHL SUB SWAP1 SWAP2 AND SWAP1 PUSH4 0xF74F3655 SWAP1 PUSH2 0x1D4B SWAP1 PUSH8 0xDE0B6B3A7640000 PUSH2 0x7641 JUMP JUMPDEST PUSH1 0x40 MLOAD PUSH32 0xFFFFFFFF00000000000000000000000000000000000000000000000000000000 PUSH1 0xE0 DUP5 SWAP1 SHL AND DUP2 MSTORE PUSH1 0x4 DUP2 ADD SWAP2 SWAP1 SWAP2 MSTORE PUSH1 0x1E PUSH1 0x24 DUP3 ADD MSTORE PUSH1 0x44 ADD PUSH1 0x20 PUSH1 0x40 MLOAD DUP1 DUP4 SUB DUP2 DUP7 GAS STATICCALL ISZERO DUP1 ISZERO PUSH2 0x1DA6 JUMPI RETURNDATASIZE PUSH1 0x0 DUP1 RETURNDATACOPY RETURNDATASIZE PUSH1 0x0 REVERT JUMPDEST POP POP POP POP PUSH1 0x40 MLOAD RETURNDATASIZE PUSH1 0x1F NOT PUSH1 0x1F DUP3 ADD AND DUP3 ADD DUP1 PUSH1 0x40 MSTORE POP DUP2 ADD SWAP1 PUSH2 0x1DCA SWAP2 SWAP1 PUSH2 0x75D1 JUMP JUMPDEST SWAP1 POP DUP1 CALLVALUE LT ISZERO PUSH2 0x1E3E JUMPI PUSH1 0x40 DUP1 MLOAD PUSH32 0x79D3124B00000000000000000000000000000000000000000000000000000000 DUP2 MSTORE PUSH1 0x4 DUP2 ADD SWAP2 SWAP1 SWAP2 MSTORE PUSH1 0xF PUSH1 0x44 DUP3 ADD MSTORE PUSH32 0x496E636F72726563742076616C75650000000000000000000000000000000000 PUSH1 0x64 DUP3 ADD MSTORE CALLVALUE PUSH1 0x24 DUP3 ADD MSTORE PUSH1 0x84 ADD PUSH2 0x641 JUMP JUMPDEST CALLER PUSH1 0x0 SWAP1 DUP2 MSTORE PUSH1 0x5 PUSH1 0x20 MSTORE PUSH1 0x40 SWAP1 KECCAK256 DUP1 SLOAD PUSH1 0xFF NOT AND PUSH1 0x1 OR SWAP1 SSTORE PUSH2 0x1E60 PUSH2 0x1193 JUMP JUMPDEST POP POP POP SWAP2 SWAP1 POP JUMP JUMPDEST PUSH1 0x3 SLOAD PUSH1 0x40 MLOAD PUSH32 0xAD607C7200000000000000000000000000000000000000000000000000000000 DUP2 MSTORE PUSH1 0x4 DUP2 ADD DUP5 SWAP1 MSTORE PUSH1 0x24 DUP2 ADD DUP4 SWAP1 MSTORE PUSH1 0x0 SWAP2 PUSH1 0x1 PUSH1 0x1 PUSH1 0xA0 SHL SUB AND SWAP1 PUSH4 0xAD607C72 SWAP1 PUSH1 0x44 ADD PUSH1 0x20 PUSH1 0x40 MLOAD DUP1 DUP4 SUB DUP2 DUP7 GAS STATICCALL ISZERO DUP1 ISZERO PUSH2 0x1ED2 JUMPI RETURNDATASIZE PUSH1 0x0 DUP1 RETURNDATACOPY RETURNDATASIZE PUSH1 0x0 REVERT JUMPDEST POP POP POP POP PUSH1 0x40 MLOAD RETURNDATASIZE PUSH1 0x1F NOT PUSH1 0x1F DUP3 ADD AND DUP3 ADD DUP1 PUSH1 0x40 MSTORE POP DUP2 ADD SWAP1 PUSH2 0x1EF6 SWAP2 SWAP1 PUSH2 0x7677 JUMP JUMPDEST SWAP1 POP JUMPDEST SWAP3 SWAP2 POP POP JUMP JUMPDEST PUSH1 0x3 SLOAD PUSH1 0x40 DUP1 MLOAD PUSH32 0xA87D942C00000000000000000000000000000000000000000000000000000000 DUP2 MSTORE SWAP1 MLOAD DUP6 SWAP3 PUSH1 0x1 PUSH1 0x1 PUSH1 0xA0 SHL SUB AND SWAP2 PUSH4 0xA87D942C SWAP2 PUSH1 0x4 DUP1 DUP4 ADD SWAP3 PUSH1 0x20 SWAP3 SWAP2 SWAP1 DUP3 SWAP1 SUB ADD DUP2 DUP7 GAS STATICCALL ISZERO DUP1 ISZERO PUSH2 0x1F61 JUMPI RETURNDATASIZE PUSH1 0x0 DUP1 RETURNDATACOPY RETURNDATASIZE PUSH1 0x0 REVERT JUMPDEST POP POP POP POP PUSH1 0x40 MLOAD RETURNDATASIZE PUSH1 0x1F NOT PUSH1 0x1F DUP3 ADD AND DUP3 ADD DUP1 PUSH1 0x40 MSTORE POP DUP2 ADD SWAP1 PUSH2 0x1F85 SWAP2 SWAP1 PUSH2 0x75D1 JUMP JUMPDEST DUP2 GT ISZERO PUSH2 0x1FD5 JUMPI PUSH1 0x40 MLOAD PUSH4 0x347626DD PUSH1 0xE2 SHL DUP2 MSTORE PUSH1 0x20 PUSH1 0x4 DUP3 ADD MSTORE PUSH1 0x12 PUSH1 0x24 DUP3 ADD MSTORE PUSH32 0x57726F6E6720696E6465782076616C7565210000000000000000000000000000 PUSH1 0x44 DUP3 ADD MSTORE PUSH1 0x64 ADD PUSH2 0x641 JUMP JUMPDEST PUSH1 0x3 SLOAD PUSH1 0x40 MLOAD PUSH32 0xAD607C7200000000000000000000000000000000000000000000000000000000 DUP2 MSTORE PUSH1 0x4 DUP2 ADD DUP7 SWAP1 MSTORE PUSH1 0x24 DUP2 ADD DUP6 SWAP1 MSTORE PUSH1 0x0 SWAP2 PUSH1 0x1 PUSH1 0x1 PUSH1 0xA0 SHL SUB AND SWAP1 PUSH4 0xAD607C72 SWAP1 PUSH1 0x44 ADD PUSH1 0x20 PUSH1 0x40 MLOAD DUP1 DUP4 SUB DUP2 DUP7 GAS STATICCALL ISZERO DUP1 ISZERO PUSH2 0x203F JUMPI RETURNDATASIZE PUSH1 0x0 DUP1 RETURNDATACOPY RETURNDATASIZE PUSH1 0x0 REVERT JUMPDEST POP POP POP POP PUSH1 0x40 MLOAD RETURNDATASIZE PUSH1 0x1F NOT PUSH1 0x1F DUP3 ADD AND DUP3 ADD DUP1 PUSH1 0x40 MSTORE POP DUP2 ADD SWAP1 PUSH2 0x2063 SWAP2 SWAP1 PUSH2 0x7677 JUMP JUMPDEST SWAP1 POP PUSH1 0x6 DUP2 PUSH1 0xB DUP2 GT ISZERO PUSH2 0x2079 JUMPI PUSH2 0x2079 PUSH2 0x6FF0 JUMP JUMPDEST GT ISZERO PUSH2 0x20E1 JUMPI PUSH1 0x40 MLOAD PUSH32 0xB4644DD900000000000000000000000000000000000000000000000000000000 DUP2 MSTORE PUSH1 0x20 PUSH1 0x4 DUP3 ADD MSTORE PUSH1 0x10 PUSH1 0x24 DUP3 ADD MSTORE PUSH32 0x756E61626C6520746F207375626D697400000000000000000000000000000000 PUSH1 0x44 DUP3 ADD MSTORE PUSH1 0x64 ADD PUSH2 0x641 JUMP JUMPDEST PUSH2 0x86E DUP6 DUP6 DUP6 CALLER PUSH2 0x5846 JUMP JUMPDEST PUSH2 0x20F5 PUSH2 0x32AE JUMP JUMPDEST PUSH1 0x2 DUP1 SLOAD PUSH32 0xFFFFFFFFFFFFFFFFFFFFFFFF0000000000000000000000000000000000000000 AND PUSH1 0x1 PUSH1 0x1 PUSH1 0xA0 SHL SUB SWAP3 SWAP1 SWAP3 AND SWAP2 SWAP1 SWAP2 OR SWAP1 SSTORE JUMP JUMPDEST PUSH2 0x2137 PUSH2 0x678D JUMP JUMPDEST PUSH1 0x3 SLOAD PUSH1 0x40 DUP1 MLOAD PUSH32 0xA87D942C00000000000000000000000000000000000000000000000000000000 DUP2 MSTORE SWAP1 MLOAD DUP5 SWAP3 PUSH1 0x1 PUSH1 0x1 PUSH1 0xA0 SHL SUB AND SWAP2 PUSH4 0xA87D942C SWAP2 PUSH1 0x4 DUP1 DUP4 ADD SWAP3 PUSH1 0x20 SWAP3 SWAP2 SWAP1 DUP3 SWAP1 SUB ADD DUP2 DUP7 GAS STATICCALL ISZERO DUP1 ISZERO PUSH2 0x2199 JUMPI RETURNDATASIZE PUSH1 0x0 DUP1 RETURNDATACOPY RETURNDATASIZE PUSH1 0x0 REVERT JUMPDEST POP POP POP POP PUSH1 0x40 MLOAD RETURNDATASIZE PUSH1 0x1F NOT PUSH1 0x1F DUP3 ADD AND DUP3 ADD DUP1 PUSH1 0x40 MSTORE POP DUP2 ADD SWAP1 PUSH2 0x21BD SWAP2 SWAP1 PUSH2 0x75D1 JUMP JUMPDEST DUP2 GT ISZERO PUSH2 0x220D JUMPI PUSH1 0x40 MLOAD PUSH4 0x347626DD PUSH1 0xE2 SHL DUP2 MSTORE PUSH1 0x20 PUSH1 0x4 DUP3 ADD MSTORE PUSH1 0x12 PUSH1 0x24 DUP3 ADD MSTORE PUSH32 0x57726F6E6720696E6465782076616C7565210000000000000000000000000000 PUSH1 0x44 DUP3 ADD MSTORE PUSH1 0x64 ADD PUSH2 0x641 JUMP JUMPDEST PUSH2 0x2215 PUSH2 0x678D JUMP JUMPDEST PUSH1 0x3 SLOAD PUSH1 0x40 MLOAD PUSH32 0x25E78E7000000000000000000000000000000000000000000000000000000000 DUP2 MSTORE PUSH1 0x4 DUP2 ADD DUP7 SWAP1 MSTORE PUSH1 0x1 PUSH1 0x1 PUSH1 0xA0 SHL SUB SWAP1 SWAP2 AND SWAP1 PUSH4 0x25E78E70 SWAP1 PUSH1 0x24 ADD PUSH1 0x0 PUSH1 0x40 MLOAD DUP1 DUP4 SUB DUP2 DUP7 GAS STATICCALL ISZERO DUP1 ISZERO PUSH2 0x2277 JUMPI RETURNDATASIZE PUSH1 0x0 DUP1 RETURNDATACOPY RETURNDATASIZE PUSH1 0x0 REVERT JUMPDEST POP POP POP POP PUSH1 0x40 MLOAD RETURNDATASIZE PUSH1 0x0 DUP3 RETURNDATACOPY PUSH1 0x1F RETURNDATASIZE SWAP1 DUP2 ADD PUSH1 0x1F NOT AND DUP3 ADD PUSH1 0x40 MSTORE PUSH2 0x229F SWAP2 SWAP1 DUP2 ADD SWAP1 PUSH2 0x79B1 JUMP JUMPDEST DUP2 MSTORE PUSH1 0x3 SLOAD PUSH1 0x40 MLOAD PUSH32 0xD2FED69C00000000000000000000000000000000000000000000000000000000 DUP2 MSTORE PUSH1 0x4 DUP2 ADD DUP7 SWAP1 MSTORE PUSH1 0x0 SWAP2 PUSH1 0x1 PUSH1 0x1 PUSH1 0xA0 SHL SUB AND SWAP1 PUSH4 0xD2FED69C SWAP1 PUSH1 0x24 ADD PUSH1 0x20 PUSH1 0x40 MLOAD DUP1 DUP4 SUB DUP2 DUP7 GAS STATICCALL ISZERO DUP1 ISZERO PUSH2 0x2304 JUMPI RETURNDATASIZE PUSH1 0x0 DUP1 RETURNDATACOPY RETURNDATASIZE PUSH1 0x0 REVERT JUMPDEST POP POP POP POP PUSH1 0x40 MLOAD RETURNDATASIZE PUSH1 0x1F NOT PUSH1 0x1F DUP3 ADD AND DUP3 ADD DUP1 PUSH1 0x40 MSTORE POP DUP2 ADD SWAP1 PUSH2 0x2328 SWAP2 SWAP1 PUSH2 0x75D1 JUMP JUMPDEST PUSH1 0x3 SLOAD PUSH1 0x40 MLOAD PUSH32 0xF8626EBB00000000000000000000000000000000000000000000000000000000 DUP2 MSTORE PUSH1 0x4 DUP2 ADD DUP9 SWAP1 MSTORE SWAP2 SWAP3 POP PUSH1 0x0 SWAP2 PUSH1 0x1 PUSH1 0x1 PUSH1 0xA0 SHL SUB SWAP1 SWAP2 AND SWAP1 PUSH4 0xF8626EBB SWAP1 PUSH1 0x24 ADD PUSH1 0x20 PUSH1 0x40 MLOAD DUP1 DUP4 SUB DUP2 DUP7 GAS STATICCALL ISZERO DUP1 ISZERO PUSH2 0x2390 JUMPI RETURNDATASIZE PUSH1 0x0 DUP1 RETURNDATACOPY RETURNDATASIZE PUSH1 0x0 REVERT JUMPDEST POP POP POP POP PUSH1 0x40 MLOAD RETURNDATASIZE PUSH1 0x1F NOT PUSH1 0x1F DUP3 ADD AND DUP3 ADD DUP1 PUSH1 0x40 MSTORE POP DUP2 ADD SWAP1 PUSH2 0x23B4 SWAP2 SWAP1 PUSH2 0x75D1 JUMP JUMPDEST PUSH1 0x3 SLOAD PUSH1 0x40 MLOAD PUSH32 0x983A12A800000000000000000000000000000000000000000000000000000000 DUP2 MSTORE PUSH1 0x4 DUP2 ADD DUP10 SWAP1 MSTORE SWAP2 SWAP3 POP PUSH1 0x0 SWAP2 PUSH1 0x1 PUSH1 0x1 PUSH1 0xA0 SHL SUB SWAP1 SWAP2 AND SWAP1 PUSH4 0x983A12A8 SWAP1 PUSH1 0x24 ADD PUSH1 0x0 PUSH1 0x40 MLOAD DUP1 DUP4 SUB DUP2 DUP7 GAS STATICCALL ISZERO DUP1 ISZERO PUSH2 0x241C JUMPI RETURNDATASIZE PUSH1 0x0 DUP1 RETURNDATACOPY RETURNDATASIZE PUSH1 0x0 REVERT JUMPDEST POP POP POP POP PUSH1 0x40 MLOAD RETURNDATASIZE PUSH1 0x0 DUP3 RETURNDATACOPY PUSH1 0x1F RETURNDATASIZE SWAP1 DUP2 ADD PUSH1 0x1F NOT AND DUP3 ADD PUSH1 0x40 MSTORE PUSH2 0x2444 SWAP2 SWAP1 DUP2 ADD SWAP1 PUSH2 0x7BC3 JUMP JUMPDEST PUSH1 0x3 SLOAD PUSH1 0x40 MLOAD PUSH32 0xB647EEC300000000000000000000000000000000000000000000000000000000 DUP2 MSTORE PUSH1 0x4 DUP2 ADD DUP11 SWAP1 MSTORE SWAP2 SWAP3 POP PUSH1 0x0 SWAP2 PUSH1 0x1 PUSH1 0x1 PUSH1 0xA0 SHL SUB SWAP1 SWAP2 AND SWAP1 PUSH4 0xB647EEC3 SWAP1 PUSH1 0x24 ADD PUSH1 0x0 PUSH1 0x40 MLOAD DUP1 DUP4 SUB DUP2 DUP7 GAS STATICCALL ISZERO DUP1 ISZERO PUSH2 0x24AC JUMPI RETURNDATASIZE PUSH1 0x0 DUP1 RETURNDATACOPY RETURNDATASIZE PUSH1 0x0 REVERT JUMPDEST POP POP POP POP PUSH1 0x40 MLOAD RETURNDATASIZE PUSH1 0x0 DUP3 RETURNDATACOPY PUSH1 0x1F RETURNDATASIZE SWAP1 DUP2 ADD PUSH1 0x1F NOT AND DUP3 ADD PUSH1 0x40 MSTORE PUSH2 0x24D4 SWAP2 SWAP1 DUP2 ADD SWAP1 PUSH2 0x7BC3 JUMP JUMPDEST SWAP1 POP PUSH1 0x0 DUP5 PUSH8 0xFFFFFFFFFFFFFFFF DUP2 GT ISZERO PUSH2 0x24F1 JUMPI PUSH2 0x24F1 PUSH2 0x68BC JUMP JUMPDEST PUSH1 0x40 MLOAD SWAP1 DUP1 DUP3 MSTORE DUP1 PUSH1 0x20 MUL PUSH1 0x20 ADD DUP3 ADD PUSH1 0x40 MSTORE DUP1 ISZERO PUSH2 0x254F JUMPI DUP2 PUSH1 0x20 ADD JUMPDEST PUSH2 0x253C PUSH1 0x40 MLOAD DUP1 PUSH1 0x60 ADD PUSH1 0x40 MSTORE DUP1 PUSH1 0x0 PUSH1 0x1 PUSH1 0x1 PUSH1 0xA0 SHL SUB AND DUP2 MSTORE PUSH1 0x20 ADD PUSH1 0x60 DUP2 MSTORE PUSH1 0x20 ADD PUSH1 0x60 DUP2 MSTORE POP SWAP1 JUMP JUMPDEST DUP2 MSTORE PUSH1 0x20 ADD SWAP1 PUSH1 0x1 SWAP1 SUB SWAP1 DUP2 PUSH2 0x250F JUMPI SWAP1 POP JUMPDEST POP SWAP1 POP PUSH1 0x0 DUP5 PUSH8 0xFFFFFFFFFFFFFFFF DUP2 GT ISZERO PUSH2 0x256D JUMPI PUSH2 0x256D PUSH2 0x68BC JUMP JUMPDEST PUSH1 0x40 MLOAD SWAP1 DUP1 DUP3 MSTORE DUP1 PUSH1 0x20 MUL PUSH1 0x20 ADD DUP3 ADD PUSH1 0x40 MSTORE DUP1 ISZERO PUSH2 0x25CB JUMPI DUP2 PUSH1 0x20 ADD JUMPDEST PUSH2 0x25B8 PUSH1 0x40 MLOAD DUP1 PUSH1 0x60 ADD PUSH1 0x40 MSTORE DUP1 PUSH1 0x0 PUSH1 0x1 PUSH1 0x1 PUSH1 0xA0 SHL SUB AND DUP2 MSTORE PUSH1 0x20 ADD PUSH1 0x60 DUP2 MSTORE PUSH1 0x20 ADD PUSH1 0x60 DUP2 MSTORE POP SWAP1 JUMP JUMPDEST DUP2 MSTORE PUSH1 0x20 ADD SWAP1 PUSH1 0x1 SWAP1 SUB SWAP1 DUP2 PUSH2 0x258B JUMPI SWAP1 POP JUMPDEST POP SWAP1 POP PUSH1 0x0 JUMPDEST DUP7 DUP2 LT ISZERO PUSH2 0x26B0 JUMPI PUSH1 0x3 SLOAD DUP6 MLOAD PUSH1 0x1 PUSH1 0x1 PUSH1 0xA0 SHL SUB SWAP1 SWAP2 AND SWAP1 PUSH4 0x5FED5EB2 SWAP1 DUP14 SWAP1 DUP9 SWAP1 DUP6 SWAP1 DUP2 LT PUSH2 0x2604 JUMPI PUSH2 0x2604 PUSH2 0x7BF8 JUMP JUMPDEST PUSH1 0x20 MUL PUSH1 0x20 ADD ADD MLOAD PUSH1 0x40 MLOAD DUP4 PUSH4 0xFFFFFFFF AND PUSH1 0xE0 SHL DUP2 MSTORE PUSH1 0x4 ADD PUSH2 0x263B SWAP3 SWAP2 SWAP1 SWAP2 DUP3 MSTORE PUSH1 0x1 PUSH1 0x1 PUSH1 0xA0 SHL SUB AND PUSH1 0x20 DUP3 ADD MSTORE PUSH1 0x40 ADD SWAP1 JUMP JUMPDEST PUSH1 0x0 PUSH1 0x40 MLOAD DUP1 DUP4 SUB DUP2 DUP7 GAS STATICCALL ISZERO DUP1 ISZERO PUSH2 0x2658 JUMPI RETURNDATASIZE PUSH1 0x0 DUP1 RETURNDATACOPY RETURNDATASIZE PUSH1 0x0 REVERT JUMPDEST POP POP POP POP PUSH1 0x40 MLOAD RETURNDATASIZE PUSH1 0x0 DUP3 RETURNDATACOPY PUSH1 0x1F RETURNDATASIZE SWAP1 DUP2 ADD PUSH1 0x1F NOT AND DUP3 ADD PUSH1 0x40 MSTORE PUSH2 0x2680 SWAP2 SWAP1 DUP2 ADD SWAP1 PUSH2 0x7C27 JUMP JUMPDEST DUP4 DUP3 DUP2 MLOAD DUP2 LT PUSH2 0x2692 JUMPI PUSH2 0x2692 PUSH2 0x7BF8 JUMP JUMPDEST PUSH1 0x20 MUL PUSH1 0x20 ADD ADD DUP2 SWAP1 MSTORE POP DUP1 DUP1 PUSH2 0x26A8 SWAP1 PUSH2 0x7D88 JUMP JUMPDEST SWAP2 POP POP PUSH2 0x25D1 JUMP JUMPDEST POP PUSH1 0x0 JUMPDEST DUP6 DUP2 LT ISZERO PUSH2 0x2793 JUMPI PUSH1 0x3 SLOAD DUP5 MLOAD PUSH1 0x1 PUSH1 0x1 PUSH1 0xA0 SHL SUB SWAP1 SWAP2 AND SWAP1 PUSH4 0x7C35BEB7 SWAP1 DUP14 SWAP1 DUP8 SWAP1 DUP6 SWAP1 DUP2 LT PUSH2 0x26E7 JUMPI PUSH2 0x26E7 PUSH2 0x7BF8 JUMP JUMPDEST PUSH1 0x20 MUL PUSH1 0x20 ADD ADD MLOAD PUSH1 0x40 MLOAD DUP4 PUSH4 0xFFFFFFFF AND PUSH1 0xE0 SHL DUP2 MSTORE PUSH1 0x4 ADD PUSH2 0x271E SWAP3 SWAP2 SWAP1 SWAP2 DUP3 MSTORE PUSH1 0x1 PUSH1 0x1 PUSH1 0xA0 SHL SUB AND PUSH1 0x20 DUP3 ADD MSTORE PUSH1 0x40 ADD SWAP1 JUMP JUMPDEST PUSH1 0x0 PUSH1 0x40 MLOAD DUP1 DUP4 SUB DUP2 DUP7 GAS STATICCALL ISZERO DUP1 ISZERO PUSH2 0x273B JUMPI RETURNDATASIZE PUSH1 0x0 DUP1 RETURNDATACOPY RETURNDATASIZE PUSH1 0x0 REVERT JUMPDEST POP POP POP POP PUSH1 0x40 MLOAD RETURNDATASIZE PUSH1 0x0 DUP3 RETURNDATACOPY PUSH1 0x1F RETURNDATASIZE SWAP1 DUP2 ADD PUSH1 0x1F NOT AND DUP3 ADD PUSH1 0x40 MSTORE PUSH2 0x2763 SWAP2 SWAP1 DUP2 ADD SWAP1 PUSH2 0x7C27 JUMP JUMPDEST DUP3 DUP3 DUP2 MLOAD DUP2 LT PUSH2 0x2775 JUMPI PUSH2 0x2775 PUSH2 0x7BF8 JUMP JUMPDEST PUSH1 0x20 MUL PUSH1 0x20 ADD ADD DUP2 SWAP1 MSTORE POP DUP1 DUP1 PUSH2 0x278B SWAP1 PUSH2 0x7D88 JUMP JUMPDEST SWAP2 POP POP PUSH2 0x26B4 JUMP JUMPDEST POP PUSH1 0x20 DUP8 ADD SWAP2 SWAP1 SWAP2 MSTORE PUSH1 0x40 DUP7 ADD MSTORE POP SWAP3 SWAP7 SWAP6 POP POP POP POP POP POP JUMP JUMPDEST PUSH1 0x3 SLOAD PUSH1 0x40 MLOAD PUSH32 0xD3D7BC3B00000000000000000000000000000000000000000000000000000000 DUP2 MSTORE PUSH1 0x1 PUSH1 0x1 PUSH1 0xA0 SHL SUB DUP4 DUP2 AND PUSH1 0x4 DUP4 ADD MSTORE PUSH1 0x0 SWAP3 AND SWAP1 PUSH4 0xD3D7BC3B SWAP1 PUSH1 0x24 ADD PUSH1 0x20 PUSH1 0x40 MLOAD DUP1 DUP4 SUB DUP2 DUP7 GAS STATICCALL ISZERO DUP1 ISZERO PUSH2 0x2811 JUMPI RETURNDATASIZE PUSH1 0x0 DUP1 RETURNDATACOPY RETURNDATASIZE PUSH1 0x0 REVERT JUMPDEST POP POP POP POP PUSH1 0x40 MLOAD RETURNDATASIZE PUSH1 0x1F NOT PUSH1 0x1F DUP3 ADD AND DUP3 ADD DUP1 PUSH1 0x40 MSTORE POP DUP2 ADD SWAP1 PUSH2 0x1EF9 SWAP2 SWAP1 PUSH2 0x75D1 JUMP JUMPDEST PUSH2 0x283D PUSH2 0x32AE JUMP JUMPDEST PUSH1 0x4 DUP1 SLOAD PUSH32 0xFFFFFFFFFFFFFFFFFFFFFFFF0000000000000000000000000000000000000000 AND PUSH1 0x1 PUSH1 0x1 PUSH1 0xA0 SHL SUB SWAP3 SWAP1 SWAP3 AND SWAP2 SWAP1 SWAP2 OR SWAP1 SSTORE JUMP JUMPDEST PUSH2 0x287F PUSH2 0x32AE JUMP JUMPDEST PUSH1 0x1 PUSH1 0x1 PUSH1 0xA0 SHL SUB DUP2 AND PUSH2 0x28FB JUMPI PUSH1 0x40 MLOAD PUSH3 0x461BCD PUSH1 0xE5 SHL DUP2 MSTORE PUSH1 0x20 PUSH1 0x4 DUP3 ADD MSTORE PUSH1 0x26 PUSH1 0x24 DUP3 ADD MSTORE PUSH32 0x4F776E61626C653A206E6577206F776E657220697320746865207A65726F2061 PUSH1 0x44 DUP3 ADD MSTORE PUSH32 0x6464726573730000000000000000000000000000000000000000000000000000 PUSH1 0x64 DUP3 ADD MSTORE PUSH1 0x84 ADD PUSH2 0x641 JUMP JUMPDEST PUSH2 0xB0D DUP2 PUSH2 0x42B1 JUMP JUMPDEST PUSH2 0x290D CALLER PUSH2 0x3857 JUMP JUMPDEST PUSH2 0x2973 JUMPI PUSH1 0x40 MLOAD PUSH32 0x934F2C300000000000000000000000000000000000000000000000000000000 DUP2 MSTORE PUSH1 0x20 PUSH1 0x4 DUP3 ADD MSTORE PUSH1 0x12 PUSH1 0x24 DUP3 ADD MSTORE PUSH32 0x4E6F7420486176652050617373204E4654210000000000000000000000000000 PUSH1 0x44 DUP3 ADD MSTORE PUSH1 0x64 ADD PUSH2 0x641 JUMP JUMPDEST PUSH1 0x3 SLOAD PUSH1 0x40 DUP1 MLOAD PUSH32 0xA87D942C00000000000000000000000000000000000000000000000000000000 DUP2 MSTORE SWAP1 MLOAD DUP5 SWAP3 PUSH1 0x1 PUSH1 0x1 PUSH1 0xA0 SHL SUB AND SWAP2 PUSH4 0xA87D942C SWAP2 PUSH1 0x4 DUP1 DUP4 ADD SWAP3 PUSH1 0x20 SWAP3 SWAP2 SWAP1 DUP3 SWAP1 SUB ADD DUP2 DUP7 GAS STATICCALL ISZERO DUP1 ISZERO PUSH2 0x29D5 JUMPI RETURNDATASIZE PUSH1 0x0 DUP1 RETURNDATACOPY RETURNDATASIZE PUSH1 0x0 REVERT JUMPDEST POP POP POP POP PUSH1 0x40 MLOAD RETURNDATASIZE PUSH1 0x1F NOT PUSH1 0x1F DUP3 ADD AND DUP3 ADD DUP1 PUSH1 0x40 MSTORE POP DUP2 ADD SWAP1 PUSH2 0x29F9 SWAP2 SWAP1 PUSH2 0x75D1 JUMP JUMPDEST DUP2 GT ISZERO PUSH2 0x2A49 JUMPI PUSH1 0x40 MLOAD PUSH4 0x347626DD PUSH1 0xE2 SHL DUP2 MSTORE PUSH1 0x20 PUSH1 0x4 DUP3 ADD MSTORE PUSH1 0x12 PUSH1 0x24 DUP3 ADD MSTORE PUSH32 0x57726F6E6720696E6465782076616C7565210000000000000000000000000000 PUSH1 0x44 DUP3 ADD MSTORE PUSH1 0x64 ADD PUSH2 0x641 JUMP JUMPDEST PUSH1 0x3 SLOAD PUSH1 0x40 MLOAD PUSH32 0x9722F09900000000000000000000000000000000000000000000000000000000 DUP2 MSTORE PUSH1 0x4 DUP2 ADD DUP6 SWAP1 MSTORE DUP5 SWAP2 PUSH1 0x1 PUSH1 0x1 PUSH1 0xA0 SHL SUB AND SWAP1 PUSH4 0x9722F099 SWAP1 PUSH1 0x24 ADD PUSH1 0x20 PUSH1 0x40 MLOAD DUP1 DUP4 SUB DUP2 DUP7 GAS STATICCALL ISZERO DUP1 ISZERO PUSH2 0x2AAB JUMPI RETURNDATASIZE PUSH1 0x0 DUP1 RETURNDATACOPY RETURNDATASIZE PUSH1 0x0 REVERT JUMPDEST POP POP POP POP PUSH1 0x40 MLOAD RETURNDATASIZE PUSH1 0x1F NOT PUSH1 0x1F DUP3 ADD AND DUP3 ADD DUP1 PUSH1 0x40 MSTORE POP DUP2 ADD SWAP1 PUSH2 0x2ACF SWAP2 SWAP1 PUSH2 0x769F JUMP JUMPDEST PUSH2 0x2B35 JUMPI PUSH1 0x40 MLOAD PUSH32 0xB4644DD900000000000000000000000000000000000000000000000000000000 DUP2 MSTORE PUSH1 0x20 PUSH1 0x4 DUP3 ADD MSTORE PUSH1 0x12 PUSH1 0x24 DUP3 ADD MSTORE PUSH32 0x43616E27742072656365697665207461736B0000000000000000000000000000 PUSH1 0x44 DUP3 ADD MSTORE PUSH1 0x64 ADD PUSH2 0x641 JUMP JUMPDEST PUSH1 0x3 SLOAD PUSH1 0x40 MLOAD PUSH32 0xD3D7BC3B00000000000000000000000000000000000000000000000000000000 DUP2 MSTORE CALLER PUSH1 0x4 DUP3 ADD DUP2 SWAP1 MSTORE SWAP2 PUSH1 0x0 SWAP2 PUSH1 0x1 PUSH1 0x1 PUSH1 0xA0 SHL SUB SWAP1 SWAP2 AND SWAP1 PUSH4 0xD3D7BC3B SWAP1 PUSH1 0x24 ADD PUSH1 0x20 PUSH1 0x40 MLOAD DUP1 DUP4 SUB DUP2 DUP7 GAS STATICCALL ISZERO DUP1 ISZERO PUSH2 0x2B9C JUMPI RETURNDATASIZE PUSH1 0x0 DUP1 RETURNDATACOPY RETURNDATASIZE PUSH1 0x0 REVERT JUMPDEST POP POP POP POP PUSH1 0x40 MLOAD RETURNDATASIZE PUSH1 0x1F NOT PUSH1 0x1F DUP3 ADD AND DUP3 ADD DUP1 PUSH1 0x40 MSTORE POP DUP2 ADD SWAP1 PUSH2 0x2BC0 SWAP2 SWAP1 PUSH2 0x75D1 JUMP JUMPDEST SWAP1 POP DUP1 ISZERO PUSH2 0x2C2A JUMPI PUSH1 0x40 MLOAD PUSH32 0x934F2C300000000000000000000000000000000000000000000000000000000 DUP2 MSTORE PUSH1 0x20 PUSH1 0x4 DUP3 ADD MSTORE PUSH1 0xF PUSH1 0x24 DUP3 ADD MSTORE PUSH32 0x756E706169642070656E616C7479210000000000000000000000000000000000 PUSH1 0x44 DUP3 ADD MSTORE PUSH1 0x64 ADD PUSH2 0x641 JUMP JUMPDEST PUSH2 0x2C35 DUP7 DUP7 CALLER PUSH2 0x59C4 JUMP JUMPDEST PUSH32 0x8E913351AA76002E572CC432B46556976F6E10285B52F94909124EA8EBD0B795 DUP7 DUP7 CALLER PUSH1 0x1 PUSH1 0x40 MLOAD PUSH2 0xFD7 SWAP5 SWAP4 SWAP3 SWAP2 SWAP1 PUSH2 0x76BC JUMP JUMPDEST PUSH2 0x2C73 PUSH2 0x32AE JUMP JUMPDEST PUSH1 0x3 DUP1 SLOAD PUSH32 0xFFFFFFFFFFFFFFFFFFFFFFFF0000000000000000000000000000000000000000 AND PUSH1 0x1 PUSH1 0x1 PUSH1 0xA0 SHL SUB SWAP3 SWAP1 SWAP3 AND SWAP2 SWAP1 SWAP2 OR SWAP1 SSTORE JUMP JUMPDEST PUSH1 0x3 SLOAD PUSH1 0x40 MLOAD PUSH32 0xFFCCE77600000000000000000000000000000000000000000000000000000000 DUP2 MSTORE PUSH1 0x4 DUP2 ADD DUP4 SWAP1 MSTORE PUSH1 0x0 SWAP2 PUSH1 0x1 PUSH1 0x1 PUSH1 0xA0 SHL SUB AND SWAP1 PUSH4 0xFFCCE776 SWAP1 PUSH1 0x24 ADD PUSH1 0x20 PUSH1 0x40 MLOAD DUP1 DUP4 SUB DUP2 DUP7 GAS STATICCALL ISZERO DUP1 ISZERO PUSH2 0x2D10 JUMPI RETURNDATASIZE PUSH1 0x0 DUP1 RETURNDATACOPY RETURNDATASIZE PUSH1 0x0 REVERT JUMPDEST POP POP POP POP PUSH1 0x40 MLOAD RETURNDATASIZE PUSH1 0x1F NOT PUSH1 0x1F DUP3 ADD AND DUP3 ADD DUP1 PUSH1 0x40 MSTORE POP DUP2 ADD SWAP1 PUSH2 0x1EF9 SWAP2 SWAP1 PUSH2 0x7DC0 JUMP JUMPDEST PUSH1 0x3 SLOAD PUSH1 0x40 MLOAD PUSH32 0x1AF5FA1600000000000000000000000000000000000000000000000000000000 DUP2 MSTORE PUSH1 0x1 PUSH1 0x1 PUSH1 0xA0 SHL SUB SWAP1 SWAP2 AND SWAP1 PUSH4 0x1AF5FA16 SWAP1 PUSH2 0x2D7F SWAP1 DUP6 SWAP1 DUP6 SWAP1 PUSH1 0x4 ADD PUSH2 0x7EB6 JUMP JUMPDEST PUSH1 0x0 PUSH1 0x40 MLOAD DUP1 DUP4 SUB DUP2 PUSH1 0x0 DUP8 DUP1 EXTCODESIZE ISZERO DUP1 ISZERO PUSH2 0x2D99 JUMPI PUSH1 0x0 DUP1 REVERT JUMPDEST POP GAS CALL ISZERO DUP1 ISZERO PUSH2 0x2DAD JUMPI RETURNDATASIZE PUSH1 0x0 DUP1 RETURNDATACOPY RETURNDATASIZE PUSH1 0x0 REVERT JUMPDEST POP POP POP POP PUSH32 0x9096640C11BD5636CED741C9725E5FF774B334455C80E15491F15BB3AF0BC265 CALLER DUP4 DUP4 PUSH1 0x40 MLOAD PUSH2 0x2DE4 SWAP4 SWAP3 SWAP2 SWAP1 PUSH2 0x7ECF JUMP JUMPDEST PUSH1 0x40 MLOAD DUP1 SWAP2 SUB SWAP1 LOG1 POP POP JUMP JUMPDEST PUSH1 0x0 DUP3 ISZERO PUSH2 0x307C JUMPI PUSH2 0x2E05 DUP7 DUP7 CALLER DUP8 DUP7 PUSH2 0x5E6A JUMP JUMPDEST PUSH1 0x3 SLOAD PUSH1 0x40 MLOAD PUSH32 0x7C34EB8500000000000000000000000000000000000000000000000000000000 DUP2 MSTORE PUSH1 0x4 DUP2 ADD DUP9 SWAP1 MSTORE PUSH1 0x0 SWAP2 PUSH1 0x1 PUSH1 0x1 PUSH1 0xA0 SHL SUB AND SWAP1 PUSH4 0x7C34EB85 SWAP1 PUSH1 0x24 ADD PUSH1 0x20 PUSH1 0x40 MLOAD DUP1 DUP4 SUB DUP2 DUP7 GAS STATICCALL ISZERO DUP1 ISZERO PUSH2 0x2E68 JUMPI RETURNDATASIZE PUSH1 0x0 DUP1 RETURNDATACOPY RETURNDATASIZE PUSH1 0x0 REVERT JUMPDEST POP POP POP POP PUSH1 0x40 MLOAD RETURNDATASIZE PUSH1 0x1F NOT PUSH1 0x1F DUP3 ADD AND DUP3 ADD DUP1 PUSH1 0x40 MSTORE POP DUP2 ADD SWAP1 PUSH2 0x2E8C SWAP2 SWAP1 PUSH2 0x769F JUMP JUMPDEST SWAP1 POP DUP1 ISZERO PUSH2 0x2F28 JUMPI PUSH1 0x3 SLOAD PUSH1 0x40 MLOAD PUSH32 0xE1CA7CA700000000000000000000000000000000000000000000000000000000 DUP2 MSTORE PUSH1 0x4 DUP2 ADD DUP10 SWAP1 MSTORE PUSH1 0x24 DUP2 ADD DUP8 SWAP1 MSTORE PUSH1 0x1 PUSH1 0x1 PUSH1 0xA0 SHL SUB SWAP1 SWAP2 AND SWAP1 PUSH4 0xE1CA7CA7 SWAP1 PUSH1 0x44 ADD PUSH1 0x20 PUSH1 0x40 MLOAD DUP1 DUP4 SUB DUP2 DUP7 GAS STATICCALL ISZERO DUP1 ISZERO PUSH2 0x2EFD JUMPI RETURNDATASIZE PUSH1 0x0 DUP1 RETURNDATACOPY RETURNDATASIZE PUSH1 0x0 REVERT JUMPDEST POP POP POP POP PUSH1 0x40 MLOAD RETURNDATASIZE PUSH1 0x1F NOT PUSH1 0x1F DUP3 ADD AND DUP3 ADD DUP1 PUSH1 0x40 MSTORE POP DUP2 ADD SWAP1 PUSH2 0x2F21 SWAP2 SWAP1 PUSH2 0x75D1 JUMP JUMPDEST SWAP2 POP PUSH2 0x2FB1 JUMP JUMPDEST PUSH1 0x3 SLOAD PUSH1 0x40 MLOAD PUSH32 0x6E97398200000000000000000000000000000000000000000000000000000000 DUP2 MSTORE PUSH1 0x4 DUP2 ADD DUP10 SWAP1 MSTORE PUSH1 0x1 PUSH1 0x1 PUSH1 0xA0 SHL SUB SWAP1 SWAP2 AND SWAP1 PUSH4 0x6E973982 SWAP1 PUSH1 0x24 ADD PUSH1 0x20 PUSH1 0x40 MLOAD DUP1 DUP4 SUB DUP2 DUP7 GAS STATICCALL ISZERO DUP1 ISZERO PUSH2 0x2F8A JUMPI RETURNDATASIZE PUSH1 0x0 DUP1 RETURNDATACOPY RETURNDATASIZE PUSH1 0x0 REVERT JUMPDEST POP POP POP POP PUSH1 0x40 MLOAD RETURNDATASIZE PUSH1 0x1F NOT PUSH1 0x1F DUP3 ADD AND DUP3 ADD DUP1 PUSH1 0x40 MSTORE POP DUP2 ADD SWAP1 PUSH2 0x2FAE SWAP2 SWAP1 PUSH2 0x75D1 JUMP JUMPDEST SWAP2 POP JUMPDEST PUSH1 0x4 SLOAD PUSH1 0x1 PUSH1 0x1 PUSH1 0xA0 SHL SUB AND PUSH4 0xF74F3655 PUSH2 0x2FD4 DUP5 PUSH8 0xDE0B6B3A7640000 PUSH2 0x7641 JUMP JUMPDEST PUSH1 0x40 MLOAD PUSH32 0xFFFFFFFF00000000000000000000000000000000000000000000000000000000 PUSH1 0xE0 DUP5 SWAP1 SHL AND DUP2 MSTORE PUSH1 0x4 DUP2 ADD SWAP2 SWAP1 SWAP2 MSTORE PUSH1 0x1E PUSH1 0x24 DUP3 ADD MSTORE PUSH1 0x44 ADD PUSH1 0x20 PUSH1 0x40 MLOAD DUP1 DUP4 SUB DUP2 DUP7 GAS STATICCALL ISZERO DUP1 ISZERO PUSH2 0x302F JUMPI RETURNDATASIZE PUSH1 0x0 DUP1 RETURNDATACOPY RETURNDATASIZE PUSH1 0x0 REVERT JUMPDEST POP POP POP POP PUSH1 0x40 MLOAD RETURNDATASIZE PUSH1 0x1F NOT PUSH1 0x1F DUP3 ADD AND DUP3 ADD DUP1 PUSH1 0x40 MSTORE POP DUP2 ADD SWAP1 PUSH2 0x3053 SWAP2 SWAP1 PUSH2 0x75D1 JUMP JUMPDEST PUSH1 0x1 PUSH1 0x1 PUSH1 0xA0 SHL SUB DUP8 AND PUSH1 0x0 SWAP1 DUP2 MSTORE PUSH1 0x5 PUSH1 0x20 MSTORE PUSH1 0x40 SWAP1 KECCAK256 DUP1 SLOAD PUSH1 0xFF NOT AND SWAP1 SSTORE SWAP2 POP PUSH2 0x308B SWAP1 POP JUMP JUMPDEST PUSH2 0x3087 DUP7 DUP7 DUP7 PUSH2 0x6074 JUMP JUMPDEST POP PUSH1 0x0 JUMPDEST SWAP6 SWAP5 POP POP POP POP POP JUMP JUMPDEST PUSH1 0x1 SLOAD PUSH21 0x10000000000000000000000000000000000000000 SWAP1 DIV PUSH1 0xFF AND ISZERO PUSH2 0x30FF JUMPI PUSH1 0x40 MLOAD PUSH3 0x461BCD PUSH1 0xE5 SHL DUP2 MSTORE PUSH1 0x20 PUSH1 0x4 DUP3 ADD MSTORE PUSH1 0x13 PUSH1 0x24 DUP3 ADD MSTORE PUSH32 0x546865206C6F636B206973206C6F636B65642E00000000000000000000000000 PUSH1 0x44 DUP3 ADD MSTORE PUSH1 0x64 ADD PUSH2 0x641 JUMP JUMPDEST PUSH1 0x1 DUP1 SLOAD PUSH32 0xFFFFFFFFFFFFFFFFFFFFFF00FFFFFFFFFFFFFFFFFFFFFFFFFFFFFFFFFFFFFFFF AND PUSH21 0x10000000000000000000000000000000000000000 OR SWAP1 SSTORE DUP1 PUSH2 0x3146 SELFBALANCE SWAP1 JUMP JUMPDEST LT ISZERO PUSH2 0x3194 JUMPI PUSH1 0x40 MLOAD PUSH3 0x461BCD PUSH1 0xE5 SHL DUP2 MSTORE PUSH1 0x20 PUSH1 0x4 DUP3 ADD MSTORE PUSH1 0x1E PUSH1 0x24 DUP3 ADD MSTORE PUSH32 0x5468652062616C616E6365206973206E6F742073756666696369656E742E0000 PUSH1 0x44 DUP3 ADD MSTORE PUSH1 0x64 ADD PUSH2 0x641 JUMP JUMPDEST PUSH1 0x0 DUP3 PUSH1 0x1 PUSH1 0x1 PUSH1 0xA0 SHL SUB AND DUP3 PUSH1 0x40 MLOAD PUSH1 0x0 PUSH1 0x40 MLOAD DUP1 DUP4 SUB DUP2 DUP6 DUP8 GAS CALL SWAP3 POP POP POP RETURNDATASIZE DUP1 PUSH1 0x0 DUP2 EQ PUSH2 0x31E1 JUMPI PUSH1 0x40 MLOAD SWAP2 POP PUSH1 0x1F NOT PUSH1 0x3F RETURNDATASIZE ADD AND DUP3 ADD PUSH1 0x40 MSTORE RETURNDATASIZE DUP3 MSTORE RETURNDATASIZE PUSH1 0x0 PUSH1 0x20 DUP5 ADD RETURNDATACOPY PUSH2 0x31E6 JUMP JUMPDEST PUSH1 0x60 SWAP2 POP JUMPDEST POP POP SWAP1 POP DUP1 PUSH2 0x3237 JUMPI PUSH1 0x40 MLOAD PUSH3 0x461BCD PUSH1 0xE5 SHL DUP2 MSTORE PUSH1 0x20 PUSH1 0x4 DUP3 ADD MSTORE PUSH1 0xB PUSH1 0x24 DUP3 ADD MSTORE PUSH32 0x43616C6C206661696C6564000000000000000000000000000000000000000000 PUSH1 0x44 DUP3 ADD MSTORE PUSH1 0x64 ADD PUSH2 0x641 JUMP JUMPDEST PUSH1 0x40 DUP1 MLOAD ADDRESS DUP2 MSTORE PUSH1 0x1 PUSH1 0x1 PUSH1 0xA0 SHL SUB DUP6 AND PUSH1 0x20 DUP3 ADD MSTORE SWAP1 DUP2 ADD DUP4 SWAP1 MSTORE PUSH32 0xB37BD6F3CCFCE130859D4569DC432409F423A7928E73EB5C5049A94E40F0C648 SWAP1 PUSH1 0x60 ADD JUMPDEST PUSH1 0x40 MLOAD DUP1 SWAP2 SUB SWAP1 LOG1 POP POP PUSH1 0x1 DUP1 SLOAD PUSH32 0xFFFFFFFFFFFFFFFFFFFFFF00FFFFFFFFFFFFFFFFFFFFFFFFFFFFFFFFFFFFFFFF AND SWAP1 SSTORE POP JUMP JUMPDEST PUSH1 0x0 SLOAD PUSH1 0x1 PUSH1 0x1 PUSH1 0xA0 SHL SUB AND CALLER EQ PUSH2 0x1933 JUMPI PUSH1 0x40 MLOAD PUSH3 0x461BCD PUSH1 0xE5 SHL DUP2 MSTORE PUSH1 0x20 PUSH1 0x4 DUP3 ADD DUP2 SWAP1 MSTORE PUSH1 0x24 DUP3 ADD MSTORE PUSH32 0x4F776E61626C653A2063616C6C6572206973206E6F7420746865206F776E6572 PUSH1 0x44 DUP3 ADD MSTORE PUSH1 0x64 ADD PUSH2 0x641 JUMP JUMPDEST PUSH2 0x3310 PUSH2 0x32AE JUMP JUMPDEST PUSH1 0x1 SLOAD PUSH1 0x0 SWAP1 PUSH1 0x1 PUSH1 0x1 PUSH1 0xA0 SHL SUB AND PUSH2 0x3331 DUP4 PUSH8 0xDE0B6B3A7640000 PUSH2 0x7641 JUMP JUMPDEST PUSH1 0x40 MLOAD PUSH1 0x0 DUP2 DUP2 DUP2 DUP6 DUP8 GAS CALL SWAP3 POP POP POP RETURNDATASIZE DUP1 PUSH1 0x0 DUP2 EQ PUSH2 0x336D JUMPI PUSH1 0x40 MLOAD SWAP2 POP PUSH1 0x1F NOT PUSH1 0x3F RETURNDATASIZE ADD AND DUP3 ADD PUSH1 0x40 MSTORE RETURNDATASIZE DUP3 MSTORE RETURNDATASIZE PUSH1 0x0 PUSH1 0x20 DUP5 ADD RETURNDATACOPY PUSH2 0x3372 JUMP JUMPDEST PUSH1 0x60 SWAP2 POP JUMPDEST POP POP SWAP1 POP DUP1 PUSH2 0x33C3 JUMPI PUSH1 0x40 MLOAD PUSH3 0x461BCD PUSH1 0xE5 SHL DUP2 MSTORE PUSH1 0x20 PUSH1 0x4 DUP3 ADD MSTORE PUSH1 0xB PUSH1 0x24 DUP3 ADD MSTORE PUSH32 0x43616C6C206661696C6564000000000000000000000000000000000000000000 PUSH1 0x44 DUP3 ADD MSTORE PUSH1 0x64 ADD PUSH2 0x641 JUMP JUMPDEST PUSH1 0x40 DUP1 MLOAD ADDRESS DUP2 MSTORE CALLER PUSH1 0x20 DUP3 ADD MSTORE SELFBALANCE SWAP2 DUP2 ADD SWAP2 SWAP1 SWAP2 MSTORE PUSH32 0xB37BD6F3CCFCE130859D4569DC432409F423A7928E73EB5C5049A94E40F0C648 SWAP1 PUSH1 0x60 ADD PUSH2 0x2DE4 JUMP JUMPDEST PUSH1 0x3 SLOAD PUSH1 0x40 MLOAD PUSH32 0x8B3F3A6F00000000000000000000000000000000000000000000000000000000 DUP2 MSTORE PUSH1 0x4 DUP2 ADD DUP5 SWAP1 MSTORE PUSH1 0x1 PUSH1 0x1 PUSH1 0xA0 SHL SUB DUP4 DUP2 AND PUSH1 0x24 DUP4 ADD MSTORE PUSH1 0x0 PUSH1 0x44 DUP4 ADD DUP2 SWAP1 MSTORE SWAP3 PUSH1 0x60 SWAP3 DUP5 SWAP3 SWAP1 SWAP2 AND SWAP1 PUSH4 0x8B3F3A6F SWAP1 PUSH1 0x64 ADD PUSH1 0x0 PUSH1 0x40 MLOAD DUP1 DUP4 SUB DUP2 DUP7 GAS STATICCALL ISZERO DUP1 ISZERO PUSH2 0x347B JUMPI RETURNDATASIZE PUSH1 0x0 DUP1 RETURNDATACOPY RETURNDATASIZE PUSH1 0x0 REVERT JUMPDEST POP POP POP POP PUSH1 0x40 MLOAD RETURNDATASIZE PUSH1 0x0 DUP3 RETURNDATACOPY PUSH1 0x1F RETURNDATASIZE SWAP1 DUP2 ADD PUSH1 0x1F NOT AND DUP3 ADD PUSH1 0x40 MSTORE PUSH2 0x34A3 SWAP2 SWAP1 DUP2 ADD SWAP1 PUSH2 0x7EF7 JUMP JUMPDEST DUP2 MLOAD SWAP2 SWAP4 POP SWAP2 POP PUSH1 0x0 SUB PUSH2 0x34BC JUMPI PUSH1 0x0 SWAP3 POP POP POP PUSH2 0x1EF9 JUMP JUMPDEST PUSH2 0x34C9 DUP6 DUP6 DUP5 PUSH1 0x4 PUSH2 0x6144 JUMP JUMPDEST PUSH1 0x3 SLOAD PUSH1 0x40 MLOAD PUSH32 0x7C34EB8500000000000000000000000000000000000000000000000000000000 DUP2 MSTORE PUSH1 0x4 DUP2 ADD DUP8 SWAP1 MSTORE PUSH1 0x0 SWAP2 PUSH1 0x1 PUSH1 0x1 PUSH1 0xA0 SHL SUB AND SWAP1 PUSH4 0x7C34EB85 SWAP1 PUSH1 0x24 ADD PUSH1 0x20 PUSH1 0x40 MLOAD DUP1 DUP4 SUB DUP2 DUP7 GAS STATICCALL ISZERO DUP1 ISZERO PUSH2 0x352C JUMPI RETURNDATASIZE PUSH1 0x0 DUP1 RETURNDATACOPY RETURNDATASIZE PUSH1 0x0 REVERT JUMPDEST POP POP POP POP PUSH1 0x40 MLOAD RETURNDATASIZE PUSH1 0x1F NOT PUSH1 0x1F DUP3 ADD AND DUP3 ADD DUP1 PUSH1 0x40 MSTORE POP DUP2 ADD SWAP1 PUSH2 0x3550 SWAP2 SWAP1 PUSH2 0x769F JUMP JUMPDEST ISZERO PUSH2 0x361F JUMPI PUSH1 0x0 JUMPDEST DUP4 MLOAD DUP2 LT ISZERO PUSH2 0x3619 JUMPI PUSH1 0x3 SLOAD DUP5 MLOAD PUSH1 0x1 PUSH1 0x1 PUSH1 0xA0 SHL SUB SWAP1 SWAP2 AND SWAP1 PUSH4 0xE1CA7CA7 SWAP1 DUP10 SWAP1 DUP8 SWAP1 DUP6 SWAP1 DUP2 LT PUSH2 0x358C JUMPI PUSH2 0x358C PUSH2 0x7BF8 JUMP JUMPDEST PUSH1 0x20 MUL PUSH1 0x20 ADD ADD MLOAD PUSH1 0x40 MLOAD DUP4 PUSH4 0xFFFFFFFF AND PUSH1 0xE0 SHL DUP2 MSTORE PUSH1 0x4 ADD PUSH2 0x35BA SWAP3 SWAP2 SWAP1 SWAP2 DUP3 MSTORE PUSH1 0x20 DUP3 ADD MSTORE PUSH1 0x40 ADD SWAP1 JUMP JUMPDEST PUSH1 0x20 PUSH1 0x40 MLOAD DUP1 DUP4 SUB DUP2 DUP7 GAS STATICCALL ISZERO DUP1 ISZERO PUSH2 0x35D7 JUMPI RETURNDATASIZE PUSH1 0x0 DUP1 RETURNDATACOPY RETURNDATASIZE PUSH1 0x0 REVERT JUMPDEST POP POP POP POP PUSH1 0x40 MLOAD RETURNDATASIZE PUSH1 0x1F NOT PUSH1 0x1F DUP3 ADD AND DUP3 ADD DUP1 PUSH1 0x40 MSTORE POP DUP2 ADD SWAP1 PUSH2 0x35FB SWAP2 SWAP1 PUSH2 0x75D1 JUMP JUMPDEST PUSH2 0x3605 SWAP1 DUP4 PUSH2 0x7F3E JUMP JUMPDEST SWAP2 POP DUP1 PUSH2 0x3611 DUP2 PUSH2 0x7D88 JUMP JUMPDEST SWAP2 POP POP PUSH2 0x3558 JUMP JUMPDEST POP PUSH2 0x36A8 JUMP JUMPDEST PUSH1 0x3 SLOAD PUSH1 0x40 MLOAD PUSH32 0x6E97398200000000000000000000000000000000000000000000000000000000 DUP2 MSTORE PUSH1 0x4 DUP2 ADD DUP9 SWAP1 MSTORE PUSH1 0x1 PUSH1 0x1 PUSH1 0xA0 SHL SUB SWAP1 SWAP2 AND SWAP1 PUSH4 0x6E973982 SWAP1 PUSH1 0x24 ADD PUSH1 0x20 PUSH1 0x40 MLOAD DUP1 DUP4 SUB DUP2 DUP7 GAS STATICCALL ISZERO DUP1 ISZERO PUSH2 0x3681 JUMPI RETURNDATASIZE PUSH1 0x0 DUP1 RETURNDATACOPY RETURNDATASIZE PUSH1 0x0 REVERT JUMPDEST POP POP POP POP PUSH1 0x40 MLOAD RETURNDATASIZE PUSH1 0x1F NOT PUSH1 0x1F DUP3 ADD AND DUP3 ADD DUP1 PUSH1 0x40 MSTORE POP DUP2 ADD SWAP1 PUSH2 0x36A5 SWAP2 SWAP1 PUSH2 0x75D1 JUMP JUMPDEST SWAP1 POP JUMPDEST PUSH1 0x4 DUP1 SLOAD PUSH1 0x40 MLOAD PUSH32 0x5C83009800000000000000000000000000000000000000000000000000000000 DUP2 MSTORE SWAP2 DUP3 ADD DUP4 SWAP1 MSTORE PUSH1 0x0 SWAP2 PUSH1 0x1 PUSH1 0x1 PUSH1 0xA0 SHL SUB SWAP1 SWAP2 AND SWAP1 PUSH4 0x4F6CA3CE SWAP1 DUP3 SWAP1 PUSH4 0x5C830098 SWAP1 PUSH1 0x24 ADD JUMPDEST PUSH1 0x20 PUSH1 0x40 MLOAD DUP1 DUP4 SUB DUP2 DUP7 GAS STATICCALL ISZERO DUP1 ISZERO PUSH2 0x3716 JUMPI RETURNDATASIZE PUSH1 0x0 DUP1 RETURNDATACOPY RETURNDATASIZE PUSH1 0x0 REVERT JUMPDEST POP POP POP POP PUSH1 0x40 MLOAD RETURNDATASIZE PUSH1 0x1F NOT PUSH1 0x1F DUP3 ADD AND DUP3 ADD DUP1 PUSH1 0x40 MSTORE POP DUP2 ADD SWAP1 PUSH2 0x373A SWAP2 SWAP1 PUSH2 0x75D1 JUMP JUMPDEST PUSH1 0x40 MLOAD DUP3 PUSH4 0xFFFFFFFF AND PUSH1 0xE0 SHL DUP2 MSTORE PUSH1 0x4 ADD PUSH2 0x3758 SWAP2 DUP2 MSTORE PUSH1 0x20 ADD SWAP1 JUMP JUMPDEST PUSH1 0x20 PUSH1 0x40 MLOAD DUP1 DUP4 SUB DUP2 DUP7 GAS STATICCALL ISZERO DUP1 ISZERO PUSH2 0x3775 JUMPI RETURNDATASIZE PUSH1 0x0 DUP1 RETURNDATACOPY RETURNDATASIZE PUSH1 0x0 REVERT JUMPDEST POP POP POP POP PUSH1 0x40 MLOAD RETURNDATASIZE PUSH1 0x1F NOT PUSH1 0x1F DUP3 ADD AND DUP3 ADD DUP1 PUSH1 0x40 MSTORE POP DUP2 ADD SWAP1 PUSH2 0x3799 SWAP2 SWAP1 PUSH2 0x75D1 JUMP JUMPDEST PUSH1 0x4 DUP1 SLOAD PUSH1 0x40 MLOAD PUSH32 0x9CE5C4BF00000000000000000000000000000000000000000000000000000000 DUP2 MSTORE SWAP2 DUP3 ADD DUP7 SWAP1 MSTORE PUSH1 0x24 DUP3 ADD DUP4 SWAP1 MSTORE SWAP2 SWAP3 POP PUSH1 0x0 SWAP2 PUSH1 0x1 PUSH1 0x1 PUSH1 0xA0 SHL SUB AND SWAP1 PUSH4 0x9CE5C4BF SWAP1 PUSH1 0x44 ADD PUSH1 0x20 PUSH1 0x40 MLOAD DUP1 DUP4 SUB DUP2 DUP7 GAS STATICCALL ISZERO DUP1 ISZERO PUSH2 0x3806 JUMPI RETURNDATASIZE PUSH1 0x0 DUP1 RETURNDATACOPY RETURNDATASIZE PUSH1 0x0 REVERT JUMPDEST POP POP POP POP PUSH1 0x40 MLOAD RETURNDATASIZE PUSH1 0x1F NOT PUSH1 0x1F DUP3 ADD AND DUP3 ADD DUP1 PUSH1 0x40 MSTORE POP DUP2 ADD SWAP1 PUSH2 0x382A SWAP2 SWAP1 PUSH2 0x75D1 JUMP JUMPDEST PUSH1 0x1 PUSH1 0x1 PUSH1 0xA0 SHL SUB DUP9 AND PUSH1 0x0 SWAP1 DUP2 MSTORE PUSH1 0x5 PUSH1 0x20 MSTORE PUSH1 0x40 SWAP1 KECCAK256 DUP1 SLOAD PUSH1 0xFF NOT AND SWAP1 SSTORE SWAP6 POP POP POP POP POP POP SWAP3 SWAP2 POP POP JUMP JUMPDEST PUSH1 0x2 SLOAD PUSH1 0x40 MLOAD PUSH32 0x438B630000000000000000000000000000000000000000000000000000000000 DUP2 MSTORE PUSH1 0x1 PUSH1 0x1 PUSH1 0xA0 SHL SUB DUP4 DUP2 AND PUSH1 0x4 DUP4 ADD MSTORE PUSH1 0x0 SWAP3 DUP4 SWAP3 SWAP2 AND SWAP1 PUSH4 0x438B6300 SWAP1 PUSH1 0x24 ADD PUSH1 0x0 PUSH1 0x40 MLOAD DUP1 DUP4 SUB DUP2 DUP7 GAS STATICCALL ISZERO DUP1 ISZERO PUSH2 0x38BE JUMPI RETURNDATASIZE PUSH1 0x0 DUP1 RETURNDATACOPY RETURNDATASIZE PUSH1 0x0 REVERT JUMPDEST POP POP POP POP PUSH1 0x40 MLOAD RETURNDATASIZE PUSH1 0x0 DUP3 RETURNDATACOPY PUSH1 0x1F RETURNDATASIZE SWAP1 DUP2 ADD PUSH1 0x1F NOT AND DUP3 ADD PUSH1 0x40 MSTORE PUSH2 0x38E6 SWAP2 SWAP1 DUP2 ADD SWAP1 PUSH2 0x7F51 JUMP JUMPDEST DUP1 MLOAD SWAP1 SWAP2 POP ISZERO PUSH2 0x38F9 JUMPI POP PUSH1 0x1 SWAP3 SWAP2 POP POP JUMP JUMPDEST POP PUSH1 0x0 SWAP3 SWAP2 POP POP JUMP JUMPDEST PUSH1 0x3 SLOAD PUSH1 0x40 MLOAD PUSH32 0x790485F900000000000000000000000000000000000000000000000000000000 DUP2 MSTORE PUSH1 0x4 DUP2 ADD DUP6 SWAP1 MSTORE PUSH1 0x1 PUSH1 0x1 PUSH1 0xA0 SHL SUB DUP4 DUP2 AND PUSH1 0x24 DUP4 ADD MSTORE SWAP1 SWAP2 AND SWAP1 PUSH4 0x790485F9 SWAP1 PUSH1 0x44 ADD PUSH1 0x20 PUSH1 0x40 MLOAD DUP1 DUP4 SUB DUP2 DUP7 GAS STATICCALL ISZERO DUP1 ISZERO PUSH2 0x396C JUMPI RETURNDATASIZE PUSH1 0x0 DUP1 RETURNDATACOPY RETURNDATASIZE PUSH1 0x0 REVERT JUMPDEST POP POP POP POP PUSH1 0x40 MLOAD RETURNDATASIZE PUSH1 0x1F NOT PUSH1 0x1F DUP3 ADD AND DUP3 ADD DUP1 PUSH1 0x40 MSTORE POP DUP2 ADD SWAP1 PUSH2 0x3990 SWAP2 SWAP1 PUSH2 0x75D1 JUMP JUMPDEST PUSH1 0x0 SUB PUSH2 0x3A17 JUMPI PUSH1 0x3 SLOAD PUSH1 0x40 MLOAD PUSH32 0x992D60F300000000000000000000000000000000000000000000000000000000 DUP2 MSTORE PUSH1 0x4 DUP2 ADD DUP6 SWAP1 MSTORE PUSH1 0x1 PUSH1 0x1 PUSH1 0xA0 SHL SUB DUP4 DUP2 AND PUSH1 0x24 DUP4 ADD MSTORE SWAP1 SWAP2 AND SWAP1 PUSH4 0x992D60F3 SWAP1 PUSH1 0x44 ADD PUSH1 0x0 PUSH1 0x40 MLOAD DUP1 DUP4 SUB DUP2 PUSH1 0x0 DUP8 DUP1 EXTCODESIZE ISZERO DUP1 ISZERO PUSH2 0x39FE JUMPI PUSH1 0x0 DUP1 REVERT JUMPDEST POP GAS CALL ISZERO DUP1 ISZERO PUSH2 0x3A12 JUMPI RETURNDATASIZE PUSH1 0x0 DUP1 RETURNDATACOPY RETURNDATASIZE PUSH1 0x0 REVERT JUMPDEST POP POP POP POP JUMPDEST PUSH1 0x0 JUMPDEST DUP3 MLOAD DUP2 LT ISZERO PUSH2 0x3AF8 JUMPI PUSH2 0x3A46 DUP5 DUP5 DUP4 DUP2 MLOAD DUP2 LT PUSH2 0x3A39 JUMPI PUSH2 0x3A39 PUSH2 0x7BF8 JUMP JUMPDEST PUSH1 0x20 MUL PUSH1 0x20 ADD ADD MLOAD PUSH2 0x61EA JUMP JUMPDEST PUSH1 0x3 SLOAD DUP4 MLOAD PUSH1 0x1 PUSH1 0x1 PUSH1 0xA0 SHL SUB SWAP1 SWAP2 AND SWAP1 PUSH4 0xA1E047F3 SWAP1 DUP7 SWAP1 DUP6 SWAP1 DUP8 SWAP1 DUP7 SWAP1 DUP2 LT PUSH2 0x3A73 JUMPI PUSH2 0x3A73 PUSH2 0x7BF8 JUMP JUMPDEST PUSH1 0x20 MUL PUSH1 0x20 ADD ADD MLOAD PUSH1 0x40 MLOAD DUP5 PUSH4 0xFFFFFFFF AND PUSH1 0xE0 SHL DUP2 MSTORE PUSH1 0x4 ADD PUSH2 0x3AB3 SWAP4 SWAP3 SWAP2 SWAP1 SWAP3 DUP4 MSTORE PUSH1 0x1 PUSH1 0x1 PUSH1 0xA0 SHL SUB SWAP2 SWAP1 SWAP2 AND PUSH1 0x20 DUP4 ADD MSTORE PUSH1 0x40 DUP3 ADD MSTORE PUSH1 0x60 ADD SWAP1 JUMP JUMPDEST PUSH1 0x0 PUSH1 0x40 MLOAD DUP1 DUP4 SUB DUP2 PUSH1 0x0 DUP8 DUP1 EXTCODESIZE ISZERO DUP1 ISZERO PUSH2 0x3ACD JUMPI PUSH1 0x0 DUP1 REVERT JUMPDEST POP GAS CALL ISZERO DUP1 ISZERO PUSH2 0x3AE1 JUMPI RETURNDATASIZE PUSH1 0x0 DUP1 RETURNDATACOPY RETURNDATASIZE PUSH1 0x0 REVERT JUMPDEST POP POP POP POP DUP1 DUP1 PUSH2 0x3AF0 SWAP1 PUSH2 0x7D88 JUMP JUMPDEST SWAP2 POP POP PUSH2 0x3A1A JUMP JUMPDEST POP PUSH1 0x3 SLOAD PUSH1 0x40 MLOAD PUSH32 0xCA74A58900000000000000000000000000000000000000000000000000000000 DUP2 MSTORE PUSH1 0x4 DUP2 ADD DUP6 SWAP1 MSTORE PUSH1 0x1 PUSH1 0x1 PUSH1 0xA0 SHL SUB SWAP1 SWAP2 AND SWAP1 PUSH4 0xCA74A589 SWAP1 PUSH1 0x24 ADD PUSH1 0x0 PUSH1 0x40 MLOAD DUP1 DUP4 SUB DUP2 PUSH1 0x0 DUP8 DUP1 EXTCODESIZE ISZERO DUP1 ISZERO PUSH2 0x3B58 JUMPI PUSH1 0x0 DUP1 REVERT JUMPDEST POP GAS CALL ISZERO DUP1 ISZERO PUSH2 0x3B6C JUMPI RETURNDATASIZE PUSH1 0x0 DUP1 RETURNDATACOPY RETURNDATASIZE PUSH1 0x0 REVERT JUMPDEST POP POP PUSH1 0x3 SLOAD PUSH1 0x40 MLOAD PUSH32 0x8A9A9FF300000000000000000000000000000000000000000000000000000000 DUP2 MSTORE PUSH1 0x4 DUP2 ADD DUP8 SWAP1 MSTORE PUSH1 0x0 PUSH1 0x24 DUP3 ADD MSTORE PUSH1 0x1 PUSH1 0x1 PUSH1 0xA0 SHL SUB SWAP1 SWAP2 AND SWAP3 POP PUSH4 0x8A9A9FF3 SWAP2 POP PUSH1 0x44 ADD PUSH1 0x20 PUSH1 0x40 MLOAD DUP1 DUP4 SUB DUP2 DUP7 GAS STATICCALL ISZERO DUP1 ISZERO PUSH2 0x3BD9 JUMPI RETURNDATASIZE PUSH1 0x0 DUP1 RETURNDATACOPY RETURNDATASIZE PUSH1 0x0 REVERT JUMPDEST POP POP POP POP PUSH1 0x40 MLOAD RETURNDATASIZE PUSH1 0x1F NOT PUSH1 0x1F DUP3 ADD AND DUP3 ADD DUP1 PUSH1 0x40 MSTORE POP DUP2 ADD SWAP1 PUSH2 0x3BFD SWAP2 SWAP1 PUSH2 0x769F JUMP JUMPDEST ISZERO PUSH2 0x3DDF JUMPI PUSH1 0x3 SLOAD PUSH1 0x40 MLOAD PUSH32 0xC061BB8200000000000000000000000000000000000000000000000000000000 DUP2 MSTORE PUSH1 0x4 DUP2 ADD DUP6 SWAP1 MSTORE PUSH1 0x0 PUSH1 0x24 DUP3 ADD MSTORE PUSH1 0x1 PUSH1 0x1 PUSH1 0xA0 SHL SUB SWAP1 SWAP2 AND SWAP1 PUSH4 0xC061BB82 SWAP1 PUSH1 0x44 ADD PUSH1 0x0 PUSH1 0x40 MLOAD DUP1 DUP4 SUB DUP2 PUSH1 0x0 DUP8 DUP1 EXTCODESIZE ISZERO DUP1 ISZERO PUSH2 0x3C68 JUMPI PUSH1 0x0 DUP1 REVERT JUMPDEST POP GAS CALL ISZERO DUP1 ISZERO PUSH2 0x3C7C JUMPI RETURNDATASIZE PUSH1 0x0 DUP1 RETURNDATACOPY RETURNDATASIZE PUSH1 0x0 REVERT JUMPDEST POP POP PUSH1 0x3 SLOAD PUSH1 0x40 MLOAD PUSH32 0x8A9A9FF300000000000000000000000000000000000000000000000000000000 DUP2 MSTORE PUSH1 0x4 DUP2 ADD DUP8 SWAP1 MSTORE PUSH1 0x1 PUSH1 0x24 DUP3 ADD MSTORE PUSH1 0x1 PUSH1 0x1 PUSH1 0xA0 SHL SUB SWAP1 SWAP2 AND SWAP3 POP PUSH4 0x8A9A9FF3 SWAP2 POP PUSH1 0x44 ADD PUSH1 0x20 PUSH1 0x40 MLOAD DUP1 DUP4 SUB DUP2 DUP7 GAS STATICCALL ISZERO DUP1 ISZERO PUSH2 0x3CE9 JUMPI RETURNDATASIZE PUSH1 0x0 DUP1 RETURNDATACOPY RETURNDATASIZE PUSH1 0x0 REVERT JUMPDEST POP POP POP POP PUSH1 0x40 MLOAD RETURNDATASIZE PUSH1 0x1F NOT PUSH1 0x1F DUP3 ADD AND DUP3 ADD DUP1 PUSH1 0x40 MSTORE POP DUP2 ADD SWAP1 PUSH2 0x3D0D SWAP2 SWAP1 PUSH2 0x769F JUMP JUMPDEST ISZERO PUSH2 0x3D93 JUMPI PUSH1 0x3 DUP1 SLOAD PUSH1 0x40 MLOAD PUSH32 0x17E925D700000000000000000000000000000000000000000000000000000000 DUP2 MSTORE PUSH1 0x1 PUSH1 0x1 PUSH1 0xA0 SHL SUB SWAP1 SWAP2 AND SWAP2 PUSH4 0x17E925D7 SWAP2 PUSH2 0x3D5C SWAP2 DUP8 SWAP2 PUSH1 0x4 ADD PUSH2 0x7658 JUMP JUMPDEST PUSH1 0x0 PUSH1 0x40 MLOAD DUP1 DUP4 SUB DUP2 PUSH1 0x0 DUP8 DUP1 EXTCODESIZE ISZERO DUP1 ISZERO PUSH2 0x3D76 JUMPI PUSH1 0x0 DUP1 REVERT JUMPDEST POP GAS CALL ISZERO DUP1 ISZERO PUSH2 0x3D8A JUMPI RETURNDATASIZE PUSH1 0x0 DUP1 RETURNDATACOPY RETURNDATASIZE PUSH1 0x0 REVERT JUMPDEST POP POP POP POP POP POP POP JUMP JUMPDEST PUSH1 0x3 SLOAD PUSH1 0x40 MLOAD PUSH32 0x17E925D700000000000000000000000000000000000000000000000000000000 DUP2 MSTORE PUSH1 0x1 PUSH1 0x1 PUSH1 0xA0 SHL SUB SWAP1 SWAP2 AND SWAP1 PUSH4 0x17E925D7 SWAP1 PUSH2 0x3D5C SWAP1 DUP7 SWAP1 PUSH1 0x1 SWAP1 PUSH1 0x4 ADD PUSH2 0x7658 JUMP JUMPDEST POP POP POP JUMP JUMPDEST PUSH1 0x1 SLOAD PUSH21 0x10000000000000000000000000000000000000000 SWAP1 DIV PUSH1 0xFF AND ISZERO PUSH2 0x3E4F JUMPI PUSH1 0x40 MLOAD PUSH3 0x461BCD PUSH1 0xE5 SHL DUP2 MSTORE PUSH1 0x20 PUSH1 0x4 DUP3 ADD MSTORE PUSH1 0x13 PUSH1 0x24 DUP3 ADD MSTORE PUSH32 0x546865206C6F636B206973206C6F636B65642E00000000000000000000000000 PUSH1 0x44 DUP3 ADD MSTORE PUSH1 0x64 ADD PUSH2 0x641 JUMP JUMPDEST PUSH1 0x1 DUP1 SLOAD PUSH32 0xFFFFFFFFFFFFFFFFFFFFFF00FFFFFFFFFFFFFFFFFFFFFFFFFFFFFFFFFFFFFFFF AND PUSH21 0x10000000000000000000000000000000000000000 OR SWAP1 SSTORE PUSH1 0x40 MLOAD PUSH1 0x0 SWAP1 PUSH1 0x1 PUSH1 0x1 PUSH1 0xA0 SHL SUB DUP5 AND SWAP1 DUP4 SWAP1 DUP4 DUP2 DUP2 DUP2 DUP6 DUP8 GAS CALL SWAP3 POP POP POP RETURNDATASIZE DUP1 PUSH1 0x0 DUP2 EQ PUSH2 0x3ED9 JUMPI PUSH1 0x40 MLOAD SWAP2 POP PUSH1 0x1F NOT PUSH1 0x3F RETURNDATASIZE ADD AND DUP3 ADD PUSH1 0x40 MSTORE RETURNDATASIZE DUP3 MSTORE RETURNDATASIZE PUSH1 0x0 PUSH1 0x20 DUP5 ADD RETURNDATACOPY PUSH2 0x3EDE JUMP JUMPDEST PUSH1 0x60 SWAP2 POP JUMPDEST POP POP SWAP1 POP DUP1 PUSH2 0x3F2F JUMPI PUSH1 0x40 MLOAD PUSH3 0x461BCD PUSH1 0xE5 SHL DUP2 MSTORE PUSH1 0x20 PUSH1 0x4 DUP3 ADD MSTORE PUSH1 0xB PUSH1 0x24 DUP3 ADD MSTORE PUSH32 0x43616C6C206661696C6564000000000000000000000000000000000000000000 PUSH1 0x44 DUP3 ADD MSTORE PUSH1 0x64 ADD PUSH2 0x641 JUMP JUMPDEST PUSH1 0x40 DUP1 MLOAD CALLER DUP2 MSTORE PUSH1 0x1 PUSH1 0x1 PUSH1 0xA0 SHL SUB DUP6 AND PUSH1 0x20 DUP3 ADD MSTORE SWAP1 DUP2 ADD DUP4 SWAP1 MSTORE PUSH32 0xB37BD6F3CCFCE130859D4569DC432409F423A7928E73EB5C5049A94E40F0C648 SWAP1 PUSH1 0x60 ADD PUSH2 0x3279 JUMP JUMPDEST PUSH1 0x3 SLOAD PUSH1 0x40 MLOAD PUSH32 0x8B3F3A6F00000000000000000000000000000000000000000000000000000000 DUP2 MSTORE PUSH1 0x4 DUP2 ADD DUP5 SWAP1 MSTORE PUSH1 0x1 PUSH1 0x1 PUSH1 0xA0 SHL SUB DUP4 DUP2 AND PUSH1 0x24 DUP4 ADD MSTORE PUSH1 0x1 PUSH1 0x44 DUP4 ADD MSTORE PUSH1 0x0 SWAP3 PUSH1 0x60 SWAP3 DUP5 SWAP3 SWAP1 SWAP2 AND SWAP1 PUSH4 0x8B3F3A6F SWAP1 PUSH1 0x64 ADD PUSH1 0x0 PUSH1 0x40 MLOAD DUP1 DUP4 SUB DUP2 DUP7 GAS STATICCALL ISZERO DUP1 ISZERO PUSH2 0x3FEE JUMPI RETURNDATASIZE PUSH1 0x0 DUP1 RETURNDATACOPY RETURNDATASIZE PUSH1 0x0 REVERT JUMPDEST POP POP POP POP PUSH1 0x40 MLOAD RETURNDATASIZE PUSH1 0x0 DUP3 RETURNDATACOPY PUSH1 0x1F RETURNDATASIZE SWAP1 DUP2 ADD PUSH1 0x1F NOT AND DUP3 ADD PUSH1 0x40 MSTORE PUSH2 0x4016 SWAP2 SWAP1 DUP2 ADD SWAP1 PUSH2 0x7EF7 JUMP JUMPDEST DUP2 MLOAD SWAP2 SWAP4 POP SWAP2 POP PUSH1 0x0 SUB PUSH2 0x402F JUMPI PUSH1 0x0 SWAP3 POP POP POP PUSH2 0x1EF9 JUMP JUMPDEST PUSH2 0x403C DUP6 DUP6 DUP5 PUSH1 0x4 PUSH2 0x637C JUMP JUMPDEST PUSH1 0x3 SLOAD PUSH1 0x40 MLOAD PUSH32 0x7C34EB8500000000000000000000000000000000000000000000000000000000 DUP2 MSTORE PUSH1 0x4 DUP2 ADD DUP8 SWAP1 MSTORE PUSH1 0x0 SWAP2 PUSH1 0x1 PUSH1 0x1 PUSH1 0xA0 SHL SUB AND SWAP1 PUSH4 0x7C34EB85 SWAP1 PUSH1 0x24 ADD PUSH1 0x20 PUSH1 0x40 MLOAD DUP1 DUP4 SUB DUP2 DUP7 GAS STATICCALL ISZERO DUP1 ISZERO PUSH2 0x409F JUMPI RETURNDATASIZE PUSH1 0x0 DUP1 RETURNDATACOPY RETURNDATASIZE PUSH1 0x0 REVERT JUMPDEST POP POP POP POP PUSH1 0x40 MLOAD RETURNDATASIZE PUSH1 0x1F NOT PUSH1 0x1F DUP3 ADD AND DUP3 ADD DUP1 PUSH1 0x40 MSTORE POP DUP2 ADD SWAP1 PUSH2 0x40C3 SWAP2 SWAP1 PUSH2 0x769F JUMP JUMPDEST ISZERO PUSH2 0x4192 JUMPI PUSH1 0x0 JUMPDEST DUP4 MLOAD DUP2 LT ISZERO PUSH2 0x418C JUMPI PUSH1 0x3 SLOAD DUP5 MLOAD PUSH1 0x1 PUSH1 0x1 PUSH1 0xA0 SHL SUB SWAP1 SWAP2 AND SWAP1 PUSH4 0xE1CA7CA7 SWAP1 DUP10 SWAP1 DUP8 SWAP1 DUP6 SWAP1 DUP2 LT PUSH2 0x40FF JUMPI PUSH2 0x40FF PUSH2 0x7BF8 JUMP JUMPDEST PUSH1 0x20 MUL PUSH1 0x20 ADD ADD MLOAD PUSH1 0x40 MLOAD DUP4 PUSH4 0xFFFFFFFF AND PUSH1 0xE0 SHL DUP2 MSTORE PUSH1 0x4 ADD PUSH2 0x412D SWAP3 SWAP2 SWAP1 SWAP2 DUP3 MSTORE PUSH1 0x20 DUP3 ADD MSTORE PUSH1 0x40 ADD SWAP1 JUMP JUMPDEST PUSH1 0x20 PUSH1 0x40 MLOAD DUP1 DUP4 SUB DUP2 DUP7 GAS STATICCALL ISZERO DUP1 ISZERO PUSH2 0x414A JUMPI RETURNDATASIZE PUSH1 0x0 DUP1 RETURNDATACOPY RETURNDATASIZE PUSH1 0x0 REVERT JUMPDEST POP POP POP POP PUSH1 0x40 MLOAD RETURNDATASIZE PUSH1 0x1F NOT PUSH1 0x1F DUP3 ADD AND DUP3 ADD DUP1 PUSH1 0x40 MSTORE POP DUP2 ADD SWAP1 PUSH2 0x416E SWAP2 SWAP1 PUSH2 0x75D1 JUMP JUMPDEST PUSH2 0x4178 SWAP1 DUP4 PUSH2 0x7F3E JUMP JUMPDEST SWAP2 POP DUP1 PUSH2 0x4184 DUP2 PUSH2 0x7D88 JUMP JUMPDEST SWAP2 POP POP PUSH2 0x40CB JUMP JUMPDEST POP PUSH2 0x421B JUMP JUMPDEST PUSH1 0x3 SLOAD PUSH1 0x40 MLOAD PUSH32 0x6E97398200000000000000000000000000000000000000000000000000000000 DUP2 MSTORE PUSH1 0x4 DUP2 ADD DUP9 SWAP1 MSTORE PUSH1 0x1 PUSH1 0x1 PUSH1 0xA0 SHL SUB SWAP1 SWAP2 AND SWAP1 PUSH4 0x6E973982 SWAP1 PUSH1 0x24 ADD PUSH1 0x20 PUSH1 0x40 MLOAD DUP1 DUP4 SUB DUP2 DUP7 GAS STATICCALL ISZERO DUP1 ISZERO PUSH2 0x41F4 JUMPI RETURNDATASIZE PUSH1 0x0 DUP1 RETURNDATACOPY RETURNDATASIZE PUSH1 0x0 REVERT JUMPDEST POP POP POP POP PUSH1 0x40 MLOAD RETURNDATASIZE PUSH1 0x1F NOT PUSH1 0x1F DUP3 ADD AND DUP3 ADD DUP1 PUSH1 0x40 MSTORE POP DUP2 ADD SWAP1 PUSH2 0x4218 SWAP2 SWAP1 PUSH2 0x75D1 JUMP JUMPDEST SWAP1 POP JUMPDEST PUSH1 0x4 DUP1 SLOAD PUSH1 0x40 MLOAD PUSH32 0x6873E8D200000000000000000000000000000000000000000000000000000000 DUP2 MSTORE SWAP2 DUP3 ADD DUP4 SWAP1 MSTORE PUSH1 0x0 SWAP2 PUSH1 0x1 PUSH1 0x1 PUSH1 0xA0 SHL SUB SWAP1 SWAP2 AND SWAP1 PUSH4 0x4F6CA3CE SWAP1 DUP3 SWAP1 PUSH4 0x6873E8D2 SWAP1 PUSH1 0x24 ADD PUSH2 0x36F9 JUMP JUMPDEST DUP1 ISZERO PUSH2 0x42A6 JUMPI PUSH2 0x4281 DUP5 DUP5 DUP5 PUSH2 0x6422 JUMP JUMPDEST PUSH1 0x1 PUSH1 0x1 PUSH1 0xA0 SHL SUB DUP4 AND PUSH1 0x0 SWAP1 DUP2 MSTORE PUSH1 0x5 PUSH1 0x20 MSTORE PUSH1 0x40 SWAP1 KECCAK256 DUP1 SLOAD PUSH1 0xFF NOT AND SWAP1 SSTORE PUSH2 0x1A24 JUMP JUMPDEST PUSH2 0x1A24 DUP5 DUP5 DUP5 PUSH2 0x64F0 JUMP JUMPDEST PUSH1 0x0 DUP1 SLOAD PUSH1 0x1 PUSH1 0x1 PUSH1 0xA0 SHL SUB DUP4 DUP2 AND PUSH32 0xFFFFFFFFFFFFFFFFFFFFFFFF0000000000000000000000000000000000000000 DUP4 AND DUP2 OR DUP5 SSTORE PUSH1 0x40 MLOAD SWAP2 SWAP1 SWAP3 AND SWAP3 DUP4 SWAP2 PUSH32 0x8BE0079C531659141344CD1FD0A4F28419497F9722A3DAAFE3B4186F6B6457E0 SWAP2 SWAP1 LOG3 POP POP JUMP JUMPDEST PUSH2 0x4321 PUSH2 0x32AE JUMP JUMPDEST PUSH1 0x1 SLOAD PUSH1 0x40 MLOAD PUSH1 0x0 SWAP2 PUSH1 0x1 PUSH1 0x1 PUSH1 0xA0 SHL SUB AND SWAP1 SELFBALANCE SWAP1 DUP4 DUP2 DUP2 DUP2 DUP6 DUP8 GAS CALL SWAP3 POP POP POP RETURNDATASIZE DUP1 PUSH1 0x0 DUP2 EQ PUSH2 0x436E JUMPI PUSH1 0x40 MLOAD SWAP2 POP PUSH1 0x1F NOT PUSH1 0x3F RETURNDATASIZE ADD AND DUP3 ADD PUSH1 0x40 MSTORE RETURNDATASIZE DUP3 MSTORE RETURNDATASIZE PUSH1 0x0 PUSH1 0x20 DUP5 ADD RETURNDATACOPY PUSH2 0x4373 JUMP JUMPDEST PUSH1 0x60 SWAP2 POP JUMPDEST POP POP SWAP1 POP DUP1 PUSH2 0x43C4 JUMPI PUSH1 0x40 MLOAD PUSH3 0x461BCD PUSH1 0xE5 SHL DUP2 MSTORE PUSH1 0x20 PUSH1 0x4 DUP3 ADD MSTORE PUSH1 0xB PUSH1 0x24 DUP3 ADD MSTORE PUSH32 0x43616C6C206661696C6564000000000000000000000000000000000000000000 PUSH1 0x44 DUP3 ADD MSTORE PUSH1 0x64 ADD PUSH2 0x641 JUMP JUMPDEST PUSH1 0x40 DUP1 MLOAD ADDRESS DUP2 MSTORE CALLER PUSH1 0x20 DUP3 ADD MSTORE SELFBALANCE SWAP2 DUP2 ADD SWAP2 SWAP1 SWAP2 MSTORE PUSH32 0xB37BD6F3CCFCE130859D4569DC432409F423A7928E73EB5C5049A94E40F0C648 SWAP1 PUSH1 0x60 ADD PUSH2 0x1266 JUMP JUMPDEST PUSH1 0x3 SLOAD PUSH1 0x40 MLOAD PUSH32 0xD2FED69C00000000000000000000000000000000000000000000000000000000 DUP2 MSTORE PUSH1 0x4 DUP2 ADD DUP4 SWAP1 MSTORE PUSH1 0x0 SWAP2 PUSH1 0x60 SWAP2 DUP4 SWAP2 PUSH1 0x1 PUSH1 0x1 PUSH1 0xA0 SHL SUB AND SWAP1 PUSH4 0xD2FED69C SWAP1 PUSH1 0x24 ADD PUSH1 0x20 PUSH1 0x40 MLOAD DUP1 DUP4 SUB DUP2 DUP7 GAS STATICCALL ISZERO DUP1 ISZERO PUSH2 0x446B JUMPI RETURNDATASIZE PUSH1 0x0 DUP1 RETURNDATACOPY RETURNDATASIZE PUSH1 0x0 REVERT JUMPDEST POP POP POP POP PUSH1 0x40 MLOAD RETURNDATASIZE PUSH1 0x1F NOT PUSH1 0x1F DUP3 ADD AND DUP3 ADD DUP1 PUSH1 0x40 MSTORE POP DUP2 ADD SWAP1 PUSH2 0x448F SWAP2 SWAP1 PUSH2 0x75D1 JUMP JUMPDEST PUSH1 0x3 SLOAD PUSH1 0x40 MLOAD PUSH32 0x12506F4D00000000000000000000000000000000000000000000000000000000 DUP2 MSTORE PUSH1 0x4 DUP2 ADD DUP8 SWAP1 MSTORE SWAP2 SWAP3 POP PUSH1 0x0 SWAP2 PUSH1 0x1 PUSH1 0x1 PUSH1 0xA0 SHL SUB SWAP1 SWAP2 AND SWAP1 PUSH4 0x12506F4D SWAP1 PUSH1 0x24 ADD PUSH1 0x0 PUSH1 0x40 MLOAD DUP1 DUP4 SUB DUP2 DUP7 GAS STATICCALL ISZERO DUP1 ISZERO PUSH2 0x44F7 JUMPI RETURNDATASIZE PUSH1 0x0 DUP1 RETURNDATACOPY RETURNDATASIZE PUSH1 0x0 REVERT JUMPDEST POP POP POP POP PUSH1 0x40 MLOAD RETURNDATASIZE PUSH1 0x0 DUP3 RETURNDATACOPY PUSH1 0x1F RETURNDATASIZE SWAP1 DUP2 ADD PUSH1 0x1F NOT AND DUP3 ADD PUSH1 0x40 MSTORE PUSH2 0x451F SWAP2 SWAP1 DUP2 ADD SWAP1 PUSH2 0x7F86 JUMP JUMPDEST PUSH1 0x3 SLOAD PUSH1 0x40 MLOAD PUSH32 0x8A9A9FF300000000000000000000000000000000000000000000000000000000 DUP2 MSTORE PUSH1 0x4 DUP2 ADD DUP9 SWAP1 MSTORE PUSH1 0x1 PUSH1 0x24 DUP3 ADD MSTORE SWAP2 SWAP3 POP PUSH1 0x1 PUSH1 0x1 PUSH1 0xA0 SHL SUB AND SWAP1 PUSH4 0x8A9A9FF3 SWAP1 PUSH1 0x44 ADD PUSH1 0x20 PUSH1 0x40 MLOAD DUP1 DUP4 SUB DUP2 DUP7 GAS STATICCALL ISZERO DUP1 ISZERO PUSH2 0x4589 JUMPI RETURNDATASIZE PUSH1 0x0 DUP1 RETURNDATACOPY RETURNDATASIZE PUSH1 0x0 REVERT JUMPDEST POP POP POP POP PUSH1 0x40 MLOAD RETURNDATASIZE PUSH1 0x1F NOT PUSH1 0x1F DUP3 ADD AND DUP3 ADD DUP1 PUSH1 0x40 MSTORE POP DUP2 ADD SWAP1 PUSH2 0x45AD SWAP2 SWAP1 PUSH2 0x769F JUMP JUMPDEST ISZERO PUSH2 0x45CF JUMPI PUSH1 0x1 PUSH1 0x40 MLOAD DUP1 PUSH1 0x20 ADD PUSH1 0x40 MSTORE DUP1 PUSH1 0x0 DUP2 MSTORE POP SWAP4 POP SWAP4 POP POP POP SWAP2 POP SWAP2 JUMP JUMPDEST DUP2 PUSH1 0x0 SUB PUSH2 0x4698 JUMPI PUSH1 0x3 SLOAD PUSH1 0x40 MLOAD PUSH32 0x63E3CCAD00000000000000000000000000000000000000000000000000000000 DUP2 MSTORE PUSH1 0x4 DUP2 ADD DUP8 SWAP1 MSTORE PUSH1 0x0 PUSH1 0x24 DUP3 ADD MSTORE PUSH1 0x1 PUSH1 0x1 PUSH1 0xA0 SHL SUB SWAP1 SWAP2 AND SWAP1 PUSH4 0x63E3CCAD SWAP1 PUSH1 0x44 ADD PUSH1 0x0 PUSH1 0x40 MLOAD DUP1 DUP4 SUB DUP2 PUSH1 0x0 DUP8 DUP1 EXTCODESIZE ISZERO DUP1 ISZERO PUSH2 0x463D JUMPI PUSH1 0x0 DUP1 REVERT JUMPDEST POP GAS CALL ISZERO DUP1 ISZERO PUSH2 0x4651 JUMPI RETURNDATASIZE PUSH1 0x0 DUP1 RETURNDATACOPY RETURNDATASIZE PUSH1 0x0 REVERT JUMPDEST POP POP POP POP PUSH1 0x0 PUSH1 0x40 MLOAD DUP1 PUSH1 0x40 ADD PUSH1 0x40 MSTORE DUP1 PUSH1 0x16 DUP2 MSTORE PUSH1 0x20 ADD PUSH32 0x7472616E736C61746F7273206E756D626572203D203000000000000000000000 DUP2 MSTORE POP SWAP4 POP SWAP4 POP POP POP SWAP2 POP SWAP2 JUMP JUMPDEST DUP1 MLOAD DUP3 PUSH1 0x0 PUSH2 0x46A7 DUP3 DUP5 PUSH2 0x7FBB JUMP JUMPDEST PUSH1 0x3 SLOAD PUSH1 0x40 MLOAD PUSH32 0x983A12A800000000000000000000000000000000000000000000000000000000 DUP2 MSTORE PUSH1 0x4 DUP2 ADD DUP12 SWAP1 MSTORE SWAP2 SWAP3 POP PUSH1 0x0 SWAP2 PUSH1 0x1 PUSH1 0x1 PUSH1 0xA0 SHL SUB SWAP1 SWAP2 AND SWAP1 PUSH4 0x983A12A8 SWAP1 PUSH1 0x24 ADD PUSH1 0x0 PUSH1 0x40 MLOAD DUP1 DUP4 SUB DUP2 DUP7 GAS STATICCALL ISZERO DUP1 ISZERO PUSH2 0x470F JUMPI RETURNDATASIZE PUSH1 0x0 DUP1 RETURNDATACOPY RETURNDATASIZE PUSH1 0x0 REVERT JUMPDEST POP POP POP POP PUSH1 0x40 MLOAD RETURNDATASIZE PUSH1 0x0 DUP3 RETURNDATACOPY PUSH1 0x1F RETURNDATASIZE SWAP1 DUP2 ADD PUSH1 0x1F NOT AND DUP3 ADD PUSH1 0x40 MSTORE PUSH2 0x4737 SWAP2 SWAP1 DUP2 ADD SWAP1 PUSH2 0x7BC3 JUMP JUMPDEST SWAP1 POP PUSH1 0x0 JUMPDEST DUP6 MLOAD DUP2 LT ISZERO PUSH2 0x4A2A JUMPI PUSH1 0x0 DUP7 DUP3 DUP2 MLOAD DUP2 LT PUSH2 0x4759 JUMPI PUSH2 0x4759 PUSH2 0x7BF8 JUMP JUMPDEST PUSH1 0x20 MUL PUSH1 0x20 ADD ADD MLOAD PUSH1 0x60 ADD MLOAD PUSH1 0xB DUP2 GT ISZERO PUSH2 0x4776 JUMPI PUSH2 0x4776 PUSH2 0x6FF0 JUMP JUMPDEST EQ DUP1 PUSH2 0x47B0 JUMPI POP PUSH1 0x1 DUP7 DUP3 DUP2 MLOAD DUP2 LT PUSH2 0x4791 JUMPI PUSH2 0x4791 PUSH2 0x7BF8 JUMP JUMPDEST PUSH1 0x20 MUL PUSH1 0x20 ADD ADD MLOAD PUSH1 0x60 ADD MLOAD PUSH1 0xB DUP2 GT ISZERO PUSH2 0x47AE JUMPI PUSH2 0x47AE PUSH2 0x6FF0 JUMP JUMPDEST EQ JUMPDEST ISZERO PUSH2 0x4A18 JUMPI PUSH1 0x0 JUMPDEST DUP8 DUP2 LT ISZERO PUSH2 0x4A16 JUMPI PUSH1 0x3 SLOAD DUP4 MLOAD DUP6 SWAP2 PUSH1 0x1 PUSH1 0x1 PUSH1 0xA0 SHL SUB AND SWAP1 PUSH4 0x193620E7 SWAP1 DUP15 SWAP1 DUP8 SWAP1 DUP7 SWAP1 DUP2 LT PUSH2 0x47EB JUMPI PUSH2 0x47EB PUSH2 0x7BF8 JUMP JUMPDEST PUSH1 0x20 MUL PUSH1 0x20 ADD ADD MLOAD PUSH1 0x40 MLOAD DUP4 PUSH4 0xFFFFFFFF AND PUSH1 0xE0 SHL DUP2 MSTORE PUSH1 0x4 ADD PUSH2 0x4822 SWAP3 SWAP2 SWAP1 SWAP2 DUP3 MSTORE PUSH1 0x1 PUSH1 0x1 PUSH1 0xA0 SHL SUB AND PUSH1 0x20 DUP3 ADD MSTORE PUSH1 0x40 ADD SWAP1 JUMP JUMPDEST PUSH1 0x20 PUSH1 0x40 MLOAD DUP1 DUP4 SUB DUP2 DUP7 GAS STATICCALL ISZERO DUP1 ISZERO PUSH2 0x483F JUMPI RETURNDATASIZE PUSH1 0x0 DUP1 RETURNDATACOPY RETURNDATASIZE PUSH1 0x0 REVERT JUMPDEST POP POP POP POP PUSH1 0x40 MLOAD RETURNDATASIZE PUSH1 0x1F NOT PUSH1 0x1F DUP3 ADD AND DUP3 ADD DUP1 PUSH1 0x40 MSTORE POP DUP2 ADD SWAP1 PUSH2 0x4863 SWAP2 SWAP1 PUSH2 0x75D1 JUMP JUMPDEST GT PUSH2 0x4A04 JUMPI PUSH1 0x3 SLOAD PUSH1 0x40 MLOAD PUSH32 0x429EDAA200000000000000000000000000000000000000000000000000000000 DUP2 MSTORE PUSH1 0x4 DUP2 ADD DUP14 SWAP1 MSTORE PUSH1 0x1 PUSH1 0x1 PUSH1 0xA0 SHL SUB SWAP1 SWAP2 AND SWAP1 PUSH4 0x429EDAA2 SWAP1 PUSH1 0x24 ADD PUSH1 0x0 PUSH1 0x40 MLOAD DUP1 DUP4 SUB DUP2 PUSH1 0x0 DUP8 DUP1 EXTCODESIZE ISZERO DUP1 ISZERO PUSH2 0x48C7 JUMPI PUSH1 0x0 DUP1 REVERT JUMPDEST POP GAS CALL ISZERO DUP1 ISZERO PUSH2 0x48DB JUMPI RETURNDATASIZE PUSH1 0x0 DUP1 RETURNDATACOPY RETURNDATASIZE PUSH1 0x0 REVERT JUMPDEST POP POP PUSH1 0x3 SLOAD DUP6 MLOAD PUSH1 0x1 PUSH1 0x1 PUSH1 0xA0 SHL SUB SWAP1 SWAP2 AND SWAP3 POP PUSH4 0x271FF03F SWAP2 POP DUP14 SWAP1 DUP7 SWAP1 DUP6 SWAP1 DUP2 LT PUSH2 0x490A JUMPI PUSH2 0x490A PUSH2 0x7BF8 JUMP JUMPDEST PUSH1 0x20 MUL PUSH1 0x20 ADD ADD MLOAD DUP6 PUSH1 0x40 MLOAD DUP5 PUSH4 0xFFFFFFFF AND PUSH1 0xE0 SHL DUP2 MSTORE PUSH1 0x4 ADD PUSH2 0x494B SWAP4 SWAP3 SWAP2 SWAP1 SWAP3 DUP4 MSTORE PUSH1 0x1 PUSH1 0x1 PUSH1 0xA0 SHL SUB SWAP2 SWAP1 SWAP2 AND PUSH1 0x20 DUP4 ADD MSTORE PUSH1 0x40 DUP3 ADD MSTORE PUSH1 0x60 ADD SWAP1 JUMP JUMPDEST PUSH1 0x0 PUSH1 0x40 MLOAD DUP1 DUP4 SUB DUP2 PUSH1 0x0 DUP8 DUP1 EXTCODESIZE ISZERO DUP1 ISZERO PUSH2 0x4965 JUMPI PUSH1 0x0 DUP1 REVERT JUMPDEST POP GAS CALL ISZERO DUP1 ISZERO PUSH2 0x4979 JUMPI RETURNDATASIZE PUSH1 0x0 DUP1 RETURNDATACOPY RETURNDATASIZE PUSH1 0x0 REVERT JUMPDEST POP POP POP POP PUSH2 0x4987 DUP12 DUP4 PUSH2 0x65C0 JUMP JUMPDEST PUSH32 0xAD65127436138B4AFE97EF23BAF28ED14A5FB09500AD117EB196CD3BDB3DBE9F DUP12 DUP4 DUP6 DUP5 DUP2 MLOAD DUP2 LT PUSH2 0x49BC JUMPI PUSH2 0x49BC PUSH2 0x7BF8 JUMP JUMPDEST PUSH1 0x20 MUL PUSH1 0x20 ADD ADD MLOAD PUSH1 0x1 PUSH1 0x40 MLOAD PUSH2 0x49F7 SWAP5 SWAP4 SWAP3 SWAP2 SWAP1 SWAP4 DUP5 MSTORE PUSH1 0x20 DUP5 ADD SWAP3 SWAP1 SWAP3 MSTORE PUSH1 0x1 PUSH1 0x1 PUSH1 0xA0 SHL SUB AND PUSH1 0x40 DUP4 ADD MSTORE ISZERO ISZERO PUSH1 0x60 DUP3 ADD MSTORE PUSH1 0x80 ADD SWAP1 JUMP JUMPDEST PUSH1 0x40 MLOAD DUP1 SWAP2 SUB SWAP1 LOG1 PUSH2 0x4A16 JUMP JUMPDEST DUP1 PUSH2 0x4A0E DUP2 PUSH2 0x7D88 JUMP JUMPDEST SWAP2 POP POP PUSH2 0x47B8 JUMP JUMPDEST POP JUMPDEST DUP1 PUSH2 0x4A22 DUP2 PUSH2 0x7D88 JUMP JUMPDEST SWAP2 POP POP PUSH2 0x473C JUMP JUMPDEST POP PUSH1 0x3 SLOAD PUSH1 0x40 MLOAD PUSH32 0x63E3CCAD00000000000000000000000000000000000000000000000000000000 DUP2 MSTORE PUSH1 0x4 DUP2 ADD DUP12 SWAP1 MSTORE PUSH1 0x0 PUSH1 0x24 DUP3 ADD MSTORE PUSH1 0x1 PUSH1 0x1 PUSH1 0xA0 SHL SUB SWAP1 SWAP2 AND SWAP1 PUSH4 0x63E3CCAD SWAP1 PUSH1 0x44 ADD PUSH1 0x0 PUSH1 0x40 MLOAD DUP1 DUP4 SUB DUP2 PUSH1 0x0 DUP8 DUP1 EXTCODESIZE ISZERO DUP1 ISZERO PUSH2 0x4A91 JUMPI PUSH1 0x0 DUP1 REVERT JUMPDEST POP GAS CALL ISZERO DUP1 ISZERO PUSH2 0x4AA5 JUMPI RETURNDATASIZE PUSH1 0x0 DUP1 RETURNDATACOPY RETURNDATASIZE PUSH1 0x0 REVERT JUMPDEST POP POP PUSH1 0x3 SLOAD PUSH1 0x40 MLOAD PUSH32 0x8A9A9FF300000000000000000000000000000000000000000000000000000000 DUP2 MSTORE PUSH1 0x4 DUP2 ADD DUP14 SWAP1 MSTORE PUSH1 0x0 PUSH1 0x24 DUP3 ADD MSTORE PUSH1 0x1 PUSH1 0x1 PUSH1 0xA0 SHL SUB SWAP1 SWAP2 AND SWAP3 POP PUSH4 0x8A9A9FF3 SWAP2 POP PUSH1 0x44 ADD PUSH1 0x20 PUSH1 0x40 MLOAD DUP1 DUP4 SUB DUP2 DUP7 GAS STATICCALL ISZERO DUP1 ISZERO PUSH2 0x4B12 JUMPI RETURNDATASIZE PUSH1 0x0 DUP1 RETURNDATACOPY RETURNDATASIZE PUSH1 0x0 REVERT JUMPDEST POP POP POP POP PUSH1 0x40 MLOAD RETURNDATASIZE PUSH1 0x1F NOT PUSH1 0x1F DUP3 ADD AND DUP3 ADD DUP1 PUSH1 0x40 MSTORE POP DUP2 ADD SWAP1 PUSH2 0x4B36 SWAP2 SWAP1 PUSH2 0x769F JUMP JUMPDEST ISZERO PUSH2 0x4BBC JUMPI PUSH1 0x3 DUP1 SLOAD PUSH1 0x40 MLOAD PUSH32 0x17E925D700000000000000000000000000000000000000000000000000000000 DUP2 MSTORE PUSH1 0x1 PUSH1 0x1 PUSH1 0xA0 SHL SUB SWAP1 SWAP2 AND SWAP2 PUSH4 0x17E925D7 SWAP2 PUSH2 0x4B85 SWAP2 DUP14 SWAP2 PUSH1 0x4 ADD PUSH2 0x7658 JUMP JUMPDEST PUSH1 0x0 PUSH1 0x40 MLOAD DUP1 DUP4 SUB DUP2 PUSH1 0x0 DUP8 DUP1 EXTCODESIZE ISZERO DUP1 ISZERO PUSH2 0x4B9F JUMPI PUSH1 0x0 DUP1 REVERT JUMPDEST POP GAS CALL ISZERO DUP1 ISZERO PUSH2 0x4BB3 JUMPI RETURNDATASIZE PUSH1 0x0 DUP1 RETURNDATACOPY RETURNDATASIZE PUSH1 0x0 REVERT JUMPDEST POP POP POP POP PUSH2 0x4C3B JUMP JUMPDEST PUSH1 0x3 SLOAD PUSH1 0x40 MLOAD PUSH32 0x17E925D700000000000000000000000000000000000000000000000000000000 DUP2 MSTORE PUSH1 0x1 PUSH1 0x1 PUSH1 0xA0 SHL SUB SWAP1 SWAP2 AND SWAP1 PUSH4 0x17E925D7 SWAP1 PUSH2 0x4C08 SWAP1 DUP13 SWAP1 PUSH1 0x2 SWAP1 PUSH1 0x4 ADD PUSH2 0x7658 JUMP JUMPDEST PUSH1 0x0 PUSH1 0x40 MLOAD DUP1 DUP4 SUB DUP2 PUSH1 0x0 DUP8 DUP1 EXTCODESIZE ISZERO DUP1 ISZERO PUSH2 0x4C22 JUMPI PUSH1 0x0 DUP1 REVERT JUMPDEST POP GAS CALL ISZERO DUP1 ISZERO PUSH2 0x4C36 JUMPI RETURNDATASIZE PUSH1 0x0 DUP1 RETURNDATACOPY RETURNDATASIZE PUSH1 0x0 REVERT JUMPDEST POP POP POP POP JUMPDEST PUSH1 0x0 PUSH1 0x40 MLOAD DUP1 PUSH1 0x40 ADD PUSH1 0x40 MSTORE DUP1 PUSH1 0x14 DUP2 MSTORE PUSH1 0x20 ADD PUSH32 0x416C6C6F636174696F6E20636F6D706C65746564000000000000000000000000 DUP2 MSTORE POP SWAP8 POP SWAP8 POP POP POP POP POP POP POP SWAP2 POP SWAP2 JUMP JUMPDEST PUSH1 0x0 PUSH1 0x60 PUSH2 0x4C8E PUSH2 0x32AE JUMP JUMPDEST PUSH1 0x3 SLOAD PUSH1 0x40 MLOAD PUSH32 0xF8626EBB00000000000000000000000000000000000000000000000000000000 DUP2 MSTORE PUSH1 0x4 DUP2 ADD DUP6 SWAP1 MSTORE PUSH1 0x0 SWAP2 PUSH1 0x1 PUSH1 0x1 PUSH1 0xA0 SHL SUB AND SWAP1 PUSH4 0xF8626EBB SWAP1 PUSH1 0x24 ADD PUSH1 0x20 PUSH1 0x40 MLOAD DUP1 DUP4 SUB DUP2 DUP7 GAS STATICCALL ISZERO DUP1 ISZERO PUSH2 0x4CF1 JUMPI RETURNDATASIZE PUSH1 0x0 DUP1 RETURNDATACOPY RETURNDATASIZE PUSH1 0x0 REVERT JUMPDEST POP POP POP POP PUSH1 0x40 MLOAD RETURNDATASIZE PUSH1 0x1F NOT PUSH1 0x1F DUP3 ADD AND DUP3 ADD DUP1 PUSH1 0x40 MSTORE POP DUP2 ADD SWAP1 PUSH2 0x4D15 SWAP2 SWAP1 PUSH2 0x75D1 JUMP JUMPDEST PUSH1 0x3 SLOAD PUSH1 0x40 MLOAD PUSH32 0xD2FED69C00000000000000000000000000000000000000000000000000000000 DUP2 MSTORE PUSH1 0x4 DUP2 ADD DUP8 SWAP1 MSTORE SWAP2 SWAP3 POP PUSH1 0x0 SWAP2 PUSH1 0x1 PUSH1 0x1 PUSH1 0xA0 SHL SUB SWAP1 SWAP2 AND SWAP1 PUSH4 0xD2FED69C SWAP1 PUSH1 0x24 ADD PUSH1 0x20 PUSH1 0x40 MLOAD DUP1 DUP4 SUB DUP2 DUP7 GAS STATICCALL ISZERO DUP1 ISZERO PUSH2 0x4D7D JUMPI RETURNDATASIZE PUSH1 0x0 DUP1 RETURNDATACOPY RETURNDATASIZE PUSH1 0x0 REVERT JUMPDEST POP POP POP POP PUSH1 0x40 MLOAD RETURNDATASIZE PUSH1 0x1F NOT PUSH1 0x1F DUP3 ADD AND DUP3 ADD DUP1 PUSH1 0x40 MSTORE POP DUP2 ADD SWAP1 PUSH2 0x4DA1 SWAP2 SWAP1 PUSH2 0x75D1 JUMP JUMPDEST PUSH1 0x3 SLOAD PUSH1 0x40 MLOAD PUSH32 0x12506F4D00000000000000000000000000000000000000000000000000000000 DUP2 MSTORE PUSH1 0x4 DUP2 ADD DUP9 SWAP1 MSTORE SWAP2 SWAP3 POP PUSH1 0x0 SWAP2 PUSH1 0x1 PUSH1 0x1 PUSH1 0xA0 SHL SUB SWAP1 SWAP2 AND SWAP1 PUSH4 0x12506F4D SWAP1 PUSH1 0x24 ADD PUSH1 0x0 PUSH1 0x40 MLOAD DUP1 DUP4 SUB DUP2 DUP7 GAS STATICCALL ISZERO DUP1 ISZERO PUSH2 0x4E09 JUMPI RETURNDATASIZE PUSH1 0x0 DUP1 RETURNDATACOPY RETURNDATASIZE PUSH1 0x0 REVERT JUMPDEST POP POP POP POP PUSH1 0x40 MLOAD RETURNDATASIZE PUSH1 0x0 DUP3 RETURNDATACOPY PUSH1 0x1F RETURNDATASIZE SWAP1 DUP2 ADD PUSH1 0x1F NOT AND DUP3 ADD PUSH1 0x40 MSTORE PUSH2 0x4E31 SWAP2 SWAP1 DUP2 ADD SWAP1 PUSH2 0x7F86 JUMP JUMPDEST PUSH1 0x3 SLOAD PUSH1 0x40 MLOAD PUSH32 0x8A9A9FF300000000000000000000000000000000000000000000000000000000 DUP2 MSTORE PUSH1 0x4 DUP2 ADD DUP10 SWAP1 MSTORE PUSH1 0x0 PUSH1 0x24 DUP3 ADD MSTORE SWAP2 SWAP3 POP PUSH1 0x1 PUSH1 0x1 PUSH1 0xA0 SHL SUB AND SWAP1 PUSH4 0x8A9A9FF3 SWAP1 PUSH1 0x44 ADD PUSH1 0x20 PUSH1 0x40 MLOAD DUP1 DUP4 SUB DUP2 DUP7 GAS STATICCALL ISZERO DUP1 ISZERO PUSH2 0x4E9B JUMPI RETURNDATASIZE PUSH1 0x0 DUP1 RETURNDATACOPY RETURNDATASIZE PUSH1 0x0 REVERT JUMPDEST POP POP POP POP PUSH1 0x40 MLOAD RETURNDATASIZE PUSH1 0x1F NOT PUSH1 0x1F DUP3 ADD AND DUP3 ADD DUP1 PUSH1 0x40 MSTORE POP DUP2 ADD SWAP1 PUSH2 0x4EBF SWAP2 SWAP1 PUSH2 0x769F JUMP JUMPDEST ISZERO PUSH2 0x4EE2 JUMPI PUSH1 0x1 PUSH1 0x40 MLOAD DUP1 PUSH1 0x20 ADD PUSH1 0x40 MSTORE DUP1 PUSH1 0x0 DUP2 MSTORE POP SWAP5 POP SWAP5 POP POP POP POP SWAP2 POP SWAP2 JUMP JUMPDEST DUP3 ISZERO DUP1 ISZERO PUSH2 0x4EEF JUMPI POP DUP2 ISZERO ISZERO JUMPDEST ISZERO PUSH2 0x4FB6 JUMPI PUSH1 0x3 SLOAD PUSH1 0x40 MLOAD PUSH32 0xC061BB8200000000000000000000000000000000000000000000000000000000 DUP2 MSTORE PUSH1 0x4 DUP2 ADD DUP9 SWAP1 MSTORE PUSH1 0x0 PUSH1 0x24 DUP3 ADD MSTORE PUSH1 0x1 PUSH1 0x1 PUSH1 0xA0 SHL SUB SWAP1 SWAP2 AND SWAP1 PUSH4 0xC061BB82 SWAP1 PUSH1 0x44 ADD PUSH1 0x0 PUSH1 0x40 MLOAD DUP1 DUP4 SUB DUP2 PUSH1 0x0 DUP8 DUP1 EXTCODESIZE ISZERO DUP1 ISZERO PUSH2 0x4F5A JUMPI PUSH1 0x0 DUP1 REVERT JUMPDEST POP GAS CALL ISZERO DUP1 ISZERO PUSH2 0x4F6E JUMPI RETURNDATASIZE PUSH1 0x0 DUP1 RETURNDATACOPY RETURNDATASIZE PUSH1 0x0 REVERT JUMPDEST POP POP POP POP PUSH1 0x0 PUSH1 0x40 MLOAD DUP1 PUSH1 0x40 ADD PUSH1 0x40 MSTORE DUP1 PUSH1 0x13 DUP2 MSTORE PUSH1 0x20 ADD PUSH32 0x766572696669657273206E756D626572203D3000000000000000000000000000 DUP2 MSTORE POP SWAP5 POP SWAP5 POP POP POP POP SWAP2 POP SWAP2 JUMP JUMPDEST DUP3 ISZERO DUP1 ISZERO PUSH2 0x4FC2 JUMPI POP DUP2 ISZERO JUMPDEST ISZERO PUSH2 0x51C1 JUMPI PUSH2 0x4FD0 DUP7 PUSH2 0x66BE JUMP JUMPDEST PUSH1 0x3 SLOAD PUSH1 0x40 MLOAD PUSH32 0x5BF608B800000000000000000000000000000000000000000000000000000000 DUP2 MSTORE PUSH1 0x4 DUP2 ADD DUP9 SWAP1 MSTORE PUSH1 0x0 SWAP2 PUSH1 0x1 PUSH1 0x1 PUSH1 0xA0 SHL SUB AND SWAP1 PUSH4 0x5BF608B8 SWAP1 PUSH1 0x24 ADD PUSH1 0x20 PUSH1 0x40 MLOAD DUP1 DUP4 SUB DUP2 DUP7 GAS STATICCALL ISZERO DUP1 ISZERO PUSH2 0x5033 JUMPI RETURNDATASIZE PUSH1 0x0 DUP1 RETURNDATACOPY RETURNDATASIZE PUSH1 0x0 REVERT JUMPDEST POP POP POP POP PUSH1 0x40 MLOAD RETURNDATASIZE PUSH1 0x1F NOT PUSH1 0x1F DUP3 ADD AND DUP3 ADD DUP1 PUSH1 0x40 MSTORE POP DUP2 ADD SWAP1 PUSH2 0x5057 SWAP2 SWAP1 PUSH2 0x75F5 JUMP JUMPDEST PUSH1 0x4 DUP1 SLOAD PUSH1 0x3 SLOAD PUSH1 0x40 MLOAD PUSH32 0x6E97398200000000000000000000000000000000000000000000000000000000 DUP2 MSTORE SWAP3 DUP4 ADD DUP12 SWAP1 MSTORE SWAP3 SWAP4 POP PUSH1 0x0 SWAP3 PUSH1 0x1 PUSH1 0x1 PUSH1 0xA0 SHL SUB SWAP2 DUP3 AND SWAP3 PUSH4 0xF74F3655 SWAP3 SWAP1 SWAP2 AND SWAP1 PUSH4 0x6E973982 SWAP1 PUSH1 0x24 ADD PUSH1 0x20 PUSH1 0x40 MLOAD DUP1 DUP4 SUB DUP2 DUP7 GAS STATICCALL ISZERO DUP1 ISZERO PUSH2 0x50CC JUMPI RETURNDATASIZE PUSH1 0x0 DUP1 RETURNDATACOPY RETURNDATASIZE PUSH1 0x0 REVERT JUMPDEST POP POP POP POP PUSH1 0x40 MLOAD RETURNDATASIZE PUSH1 0x1F NOT PUSH1 0x1F DUP3 ADD AND DUP3 ADD DUP1 PUSH1 0x40 MSTORE POP DUP2 ADD SWAP1 PUSH2 0x50F0 SWAP2 SWAP1 PUSH2 0x75D1 JUMP JUMPDEST PUSH1 0x40 MLOAD PUSH32 0xFFFFFFFF00000000000000000000000000000000000000000000000000000000 PUSH1 0xE0 DUP5 SWAP1 SHL AND DUP2 MSTORE PUSH1 0x4 DUP2 ADD SWAP2 SWAP1 SWAP2 MSTORE PUSH1 0x1E PUSH1 0x24 DUP3 ADD MSTORE PUSH1 0x44 ADD PUSH1 0x20 PUSH1 0x40 MLOAD DUP1 DUP4 SUB DUP2 DUP7 GAS STATICCALL ISZERO DUP1 ISZERO PUSH2 0x514B JUMPI RETURNDATASIZE PUSH1 0x0 DUP1 RETURNDATACOPY RETURNDATASIZE PUSH1 0x0 REVERT JUMPDEST POP POP POP POP PUSH1 0x40 MLOAD RETURNDATASIZE PUSH1 0x1F NOT PUSH1 0x1F DUP3 ADD AND DUP3 ADD DUP1 PUSH1 0x40 MSTORE POP DUP2 ADD SWAP1 PUSH2 0x516F SWAP2 SWAP1 PUSH2 0x75D1 JUMP JUMPDEST SWAP1 POP PUSH2 0x517B DUP3 DUP3 PUSH2 0x3094 JUMP JUMPDEST PUSH1 0x0 PUSH1 0x40 MLOAD DUP1 PUSH1 0x40 ADD PUSH1 0x40 MSTORE DUP1 PUSH1 0xB DUP2 MSTORE PUSH1 0x20 ADD PUSH32 0x6E6F206F6E652070696E6B000000000000000000000000000000000000000000 DUP2 MSTORE POP SWAP7 POP SWAP7 POP POP POP POP POP POP SWAP2 POP SWAP2 JUMP JUMPDEST DUP1 MLOAD DUP4 PUSH1 0x0 PUSH2 0x51D0 DUP3 DUP5 PUSH2 0x7FBB JUMP JUMPDEST PUSH1 0x3 SLOAD PUSH1 0x40 MLOAD PUSH32 0xB647EEC300000000000000000000000000000000000000000000000000000000 DUP2 MSTORE PUSH1 0x4 DUP2 ADD DUP13 SWAP1 MSTORE SWAP2 SWAP3 POP PUSH1 0x0 SWAP2 PUSH1 0x1 PUSH1 0x1 PUSH1 0xA0 SHL SUB SWAP1 SWAP2 AND SWAP1 PUSH4 0xB647EEC3 SWAP1 PUSH1 0x24 ADD PUSH1 0x0 PUSH1 0x40 MLOAD DUP1 DUP4 SUB DUP2 DUP7 GAS STATICCALL ISZERO DUP1 ISZERO PUSH2 0x5238 JUMPI RETURNDATASIZE PUSH1 0x0 DUP1 RETURNDATACOPY RETURNDATASIZE PUSH1 0x0 REVERT JUMPDEST POP POP POP POP PUSH1 0x40 MLOAD RETURNDATASIZE PUSH1 0x0 DUP3 RETURNDATACOPY PUSH1 0x1F RETURNDATASIZE SWAP1 DUP2 ADD PUSH1 0x1F NOT AND DUP3 ADD PUSH1 0x40 MSTORE PUSH2 0x5260 SWAP2 SWAP1 DUP2 ADD SWAP1 PUSH2 0x7BC3 JUMP JUMPDEST SWAP1 POP PUSH1 0x0 JUMPDEST DUP6 MLOAD DUP2 LT ISZERO PUSH2 0x5519 JUMPI PUSH1 0x0 DUP7 DUP3 DUP2 MLOAD DUP2 LT PUSH2 0x5282 JUMPI PUSH2 0x5282 PUSH2 0x7BF8 JUMP JUMPDEST PUSH1 0x20 MUL PUSH1 0x20 ADD ADD MLOAD PUSH1 0x60 ADD MLOAD PUSH1 0xB DUP2 GT ISZERO PUSH2 0x529F JUMPI PUSH2 0x529F PUSH2 0x6FF0 JUMP JUMPDEST SUB PUSH2 0x5507 JUMPI PUSH1 0x0 JUMPDEST DUP9 DUP2 LT ISZERO PUSH2 0x5505 JUMPI PUSH1 0x3 SLOAD DUP4 MLOAD DUP6 SWAP2 PUSH1 0x1 PUSH1 0x1 PUSH1 0xA0 SHL SUB AND SWAP1 PUSH4 0x790485F9 SWAP1 DUP16 SWAP1 DUP8 SWAP1 DUP7 SWAP1 DUP2 LT PUSH2 0x52DA JUMPI PUSH2 0x52DA PUSH2 0x7BF8 JUMP JUMPDEST PUSH1 0x20 MUL PUSH1 0x20 ADD ADD MLOAD PUSH1 0x40 MLOAD DUP4 PUSH4 0xFFFFFFFF AND PUSH1 0xE0 SHL DUP2 MSTORE PUSH1 0x4 ADD PUSH2 0x5311 SWAP3 SWAP2 SWAP1 SWAP2 DUP3 MSTORE PUSH1 0x1 PUSH1 0x1 PUSH1 0xA0 SHL SUB AND PUSH1 0x20 DUP3 ADD MSTORE PUSH1 0x40 ADD SWAP1 JUMP JUMPDEST PUSH1 0x20 PUSH1 0x40 MLOAD DUP1 DUP4 SUB DUP2 DUP7 GAS STATICCALL ISZERO DUP1 ISZERO PUSH2 0x532E JUMPI RETURNDATASIZE PUSH1 0x0 DUP1 RETURNDATACOPY RETURNDATASIZE PUSH1 0x0 REVERT JUMPDEST POP POP POP POP PUSH1 0x40 MLOAD RETURNDATASIZE PUSH1 0x1F NOT PUSH1 0x1F DUP3 ADD AND DUP3 ADD DUP1 PUSH1 0x40 MSTORE POP DUP2 ADD SWAP1 PUSH2 0x5352 SWAP2 SWAP1 PUSH2 0x75D1 JUMP JUMPDEST GT PUSH2 0x54F3 JUMPI PUSH1 0x3 SLOAD PUSH1 0x40 MLOAD PUSH32 0xCA74A58900000000000000000000000000000000000000000000000000000000 DUP2 MSTORE PUSH1 0x4 DUP2 ADD DUP15 SWAP1 MSTORE PUSH1 0x1 PUSH1 0x1 PUSH1 0xA0 SHL SUB SWAP1 SWAP2 AND SWAP1 PUSH4 0xCA74A589 SWAP1 PUSH1 0x24 ADD PUSH1 0x0 PUSH1 0x40 MLOAD DUP1 DUP4 SUB DUP2 PUSH1 0x0 DUP8 DUP1 EXTCODESIZE ISZERO DUP1 ISZERO PUSH2 0x53B6 JUMPI PUSH1 0x0 DUP1 REVERT JUMPDEST POP GAS CALL ISZERO DUP1 ISZERO PUSH2 0x53CA JUMPI RETURNDATASIZE PUSH1 0x0 DUP1 RETURNDATACOPY RETURNDATASIZE PUSH1 0x0 REVERT JUMPDEST POP POP PUSH1 0x3 SLOAD DUP6 MLOAD PUSH1 0x1 PUSH1 0x1 PUSH1 0xA0 SHL SUB SWAP1 SWAP2 AND SWAP3 POP PUSH4 0xA1E047F3 SWAP2 POP DUP15 SWAP1 DUP7 SWAP1 DUP6 SWAP1 DUP2 LT PUSH2 0x53F9 JUMPI PUSH2 0x53F9 PUSH2 0x7BF8 JUMP JUMPDEST PUSH1 0x20 MUL PUSH1 0x20 ADD ADD MLOAD DUP6 PUSH1 0x40 MLOAD DUP5 PUSH4 0xFFFFFFFF AND PUSH1 0xE0 SHL DUP2 MSTORE PUSH1 0x4 ADD PUSH2 0x543A SWAP4 SWAP3 SWAP2 SWAP1 SWAP3 DUP4 MSTORE PUSH1 0x1 PUSH1 0x1 PUSH1 0xA0 SHL SUB SWAP2 SWAP1 SWAP2 AND PUSH1 0x20 DUP4 ADD MSTORE PUSH1 0x40 DUP3 ADD MSTORE PUSH1 0x60 ADD SWAP1 JUMP JUMPDEST PUSH1 0x0 PUSH1 0x40 MLOAD DUP1 DUP4 SUB DUP2 PUSH1 0x0 DUP8 DUP1 EXTCODESIZE ISZERO DUP1 ISZERO PUSH2 0x5454 JUMPI PUSH1 0x0 DUP1 REVERT JUMPDEST POP GAS CALL ISZERO DUP1 ISZERO PUSH2 0x5468 JUMPI RETURNDATASIZE PUSH1 0x0 DUP1 RETURNDATACOPY RETURNDATASIZE PUSH1 0x0 REVERT JUMPDEST POP POP POP POP PUSH2 0x5476 DUP13 DUP4 PUSH2 0x61EA JUMP JUMPDEST PUSH32 0xAD65127436138B4AFE97EF23BAF28ED14A5FB09500AD117EB196CD3BDB3DBE9F DUP13 DUP4 DUP6 DUP5 DUP2 MLOAD DUP2 LT PUSH2 0x54AB JUMPI PUSH2 0x54AB PUSH2 0x7BF8 JUMP JUMPDEST PUSH1 0x20 MUL PUSH1 0x20 ADD ADD MLOAD PUSH1 0x0 PUSH1 0x40 MLOAD PUSH2 0x54E6 SWAP5 SWAP4 SWAP3 SWAP2 SWAP1 SWAP4 DUP5 MSTORE PUSH1 0x20 DUP5 ADD SWAP3 SWAP1 SWAP3 MSTORE PUSH1 0x1 PUSH1 0x1 PUSH1 0xA0 SHL SUB AND PUSH1 0x40 DUP4 ADD MSTORE ISZERO ISZERO PUSH1 0x60 DUP3 ADD MSTORE PUSH1 0x80 ADD SWAP1 JUMP JUMPDEST PUSH1 0x40 MLOAD DUP1 SWAP2 SUB SWAP1 LOG1 PUSH2 0x5505 JUMP JUMPDEST DUP1 PUSH2 0x54FD DUP2 PUSH2 0x7D88 JUMP JUMPDEST SWAP2 POP POP PUSH2 0x52A7 JUMP JUMPDEST POP JUMPDEST DUP1 PUSH2 0x5511 DUP2 PUSH2 0x7D88 JUMP JUMPDEST SWAP2 POP POP PUSH2 0x5265 JUMP JUMPDEST POP PUSH1 0x3 SLOAD PUSH1 0x40 MLOAD PUSH32 0xC061BB8200000000000000000000000000000000000000000000000000000000 DUP2 MSTORE PUSH1 0x4 DUP2 ADD DUP13 SWAP1 MSTORE PUSH1 0x0 PUSH1 0x24 DUP3 ADD MSTORE PUSH1 0x1 PUSH1 0x1 PUSH1 0xA0 SHL SUB SWAP1 SWAP2 AND SWAP1 PUSH4 0xC061BB82 SWAP1 PUSH1 0x44 ADD PUSH1 0x0 PUSH1 0x40 MLOAD DUP1 DUP4 SUB DUP2 PUSH1 0x0 DUP8 DUP1 EXTCODESIZE ISZERO DUP1 ISZERO PUSH2 0x5580 JUMPI PUSH1 0x0 DUP1 REVERT JUMPDEST POP GAS CALL ISZERO DUP1 ISZERO PUSH2 0x5594 JUMPI RETURNDATASIZE PUSH1 0x0 DUP1 RETURNDATACOPY RETURNDATASIZE PUSH1 0x0 REVERT JUMPDEST POP POP PUSH1 0x3 SLOAD PUSH1 0x40 MLOAD PUSH32 0x8A9A9FF300000000000000000000000000000000000000000000000000000000 DUP2 MSTORE PUSH1 0x4 DUP2 ADD DUP15 SWAP1 MSTORE PUSH1 0x1 PUSH1 0x24 DUP3 ADD MSTORE PUSH1 0x1 PUSH1 0x1 PUSH1 0xA0 SHL SUB SWAP1 SWAP2 AND SWAP3 POP PUSH4 0x8A9A9FF3 SWAP2 POP PUSH1 0x44 ADD PUSH1 0x20 PUSH1 0x40 MLOAD DUP1 DUP4 SUB DUP2 DUP7 GAS STATICCALL ISZERO DUP1 ISZERO PUSH2 0x5601 JUMPI RETURNDATASIZE PUSH1 0x0 DUP1 RETURNDATACOPY RETURNDATASIZE PUSH1 0x0 REVERT JUMPDEST POP POP POP POP PUSH1 0x40 MLOAD RETURNDATASIZE PUSH1 0x1F NOT PUSH1 0x1F DUP3 ADD AND DUP3 ADD DUP1 PUSH1 0x40 MSTORE POP DUP2 ADD SWAP1 PUSH2 0x5625 SWAP2 SWAP1 PUSH2 0x769F JUMP JUMPDEST ISZERO PUSH2 0x56AB JUMPI PUSH1 0x3 DUP1 SLOAD PUSH1 0x40 MLOAD PUSH32 0x17E925D700000000000000000000000000000000000000000000000000000000 DUP2 MSTORE PUSH1 0x1 PUSH1 0x1 PUSH1 0xA0 SHL SUB SWAP1 SWAP2 AND SWAP2 PUSH4 0x17E925D7 SWAP2 PUSH2 0x5674 SWAP2 DUP15 SWAP2 PUSH1 0x4 ADD PUSH2 0x7658 JUMP JUMPDEST PUSH1 0x0 PUSH1 0x40 MLOAD DUP1 DUP4 SUB DUP2 PUSH1 0x0 DUP8 DUP1 EXTCODESIZE ISZERO DUP1 ISZERO PUSH2 0x568E JUMPI PUSH1 0x0 DUP1 REVERT JUMPDEST POP GAS CALL ISZERO DUP1 ISZERO PUSH2 0x56A2 JUMPI RETURNDATASIZE PUSH1 0x0 DUP1 RETURNDATACOPY RETURNDATASIZE PUSH1 0x0 REVERT JUMPDEST POP POP POP POP PUSH2 0x572A JUMP JUMPDEST PUSH1 0x3 SLOAD PUSH1 0x40 MLOAD PUSH32 0x17E925D700000000000000000000000000000000000000000000000000000000 DUP2 MSTORE PUSH1 0x1 PUSH1 0x1 PUSH1 0xA0 SHL SUB SWAP1 SWAP2 AND SWAP1 PUSH4 0x17E925D7 SWAP1 PUSH2 0x56F7 SWAP1 DUP14 SWAP1 PUSH1 0x1 SWAP1 PUSH1 0x4 ADD PUSH2 0x7658 JUMP JUMPDEST PUSH1 0x0 PUSH1 0x40 MLOAD DUP1 DUP4 SUB DUP2 PUSH1 0x0 DUP8 DUP1 EXTCODESIZE ISZERO DUP1 ISZERO PUSH2 0x5711 JUMPI PUSH1 0x0 DUP1 REVERT JUMPDEST POP GAS CALL ISZERO DUP1 ISZERO PUSH2 0x5725 JUMPI RETURNDATASIZE PUSH1 0x0 DUP1 RETURNDATACOPY RETURNDATASIZE PUSH1 0x0 REVERT JUMPDEST POP POP POP POP JUMPDEST POP POP POP POP PUSH1 0x0 PUSH1 0x40 MLOAD DUP1 PUSH1 0x40 ADD PUSH1 0x40 MSTORE DUP1 PUSH1 0x14 DUP2 MSTORE PUSH1 0x20 ADD PUSH32 0x416C6C6F636174696F6E20636F6D706C65746564000000000000000000000000 DUP2 MSTORE POP SWAP5 POP SWAP5 POP POP POP POP SWAP2 POP SWAP2 JUMP JUMPDEST PUSH1 0x3 SLOAD PUSH1 0x40 MLOAD PUSH32 0x752458C500000000000000000000000000000000000000000000000000000000 DUP2 MSTORE PUSH1 0x0 SWAP2 DUP3 SWAP2 PUSH1 0x1 PUSH1 0x1 PUSH1 0xA0 SHL SUB SWAP1 SWAP2 AND SWAP1 PUSH4 0x752458C5 SWAP1 PUSH2 0x57C0 SWAP1 DUP7 SWAP1 PUSH1 0x4 ADD PUSH2 0x7FF6 JUMP JUMPDEST PUSH1 0x20 PUSH1 0x40 MLOAD DUP1 DUP4 SUB DUP2 PUSH1 0x0 DUP8 GAS CALL ISZERO DUP1 ISZERO PUSH2 0x57DF JUMPI RETURNDATASIZE PUSH1 0x0 DUP1 RETURNDATACOPY RETURNDATASIZE PUSH1 0x0 REVERT JUMPDEST POP POP POP POP PUSH1 0x40 MLOAD RETURNDATASIZE PUSH1 0x1F NOT PUSH1 0x1F DUP3 ADD AND DUP3 ADD DUP1 PUSH1 0x40 MSTORE POP DUP2 ADD SWAP1 PUSH2 0x5803 SWAP2 SWAP1 PUSH2 0x75D1 JUMP JUMPDEST SWAP1 POP PUSH32 0x9096640C11BD5636CED741C9725E5FF774B334455C80E15491F15BB3AF0BC265 CALLER DUP3 DUP6 PUSH1 0x40 MLOAD PUSH2 0x5838 SWAP4 SWAP3 SWAP2 SWAP1 PUSH2 0x7ECF JUMP JUMPDEST PUSH1 0x40 MLOAD DUP1 SWAP2 SUB SWAP1 LOG1 SWAP3 SWAP2 POP POP JUMP JUMPDEST PUSH1 0x3 SLOAD PUSH1 0x40 MLOAD PUSH32 0x1FA2BF4C00000000000000000000000000000000000000000000000000000000 DUP2 MSTORE PUSH1 0x1 PUSH1 0x1 PUSH1 0xA0 SHL SUB SWAP1 SWAP2 AND SWAP1 PUSH4 0x1FA2BF4C SWAP1 PUSH2 0x5893 SWAP1 DUP8 SWAP1 DUP8 SWAP1 PUSH1 0x4 SWAP1 DUP2 ADD PUSH2 0x76F6 JUMP JUMPDEST PUSH1 0x0 PUSH1 0x40 MLOAD DUP1 DUP4 SUB DUP2 PUSH1 0x0 DUP8 DUP1 EXTCODESIZE ISZERO DUP1 ISZERO PUSH2 0x58AD JUMPI PUSH1 0x0 DUP1 REVERT JUMPDEST POP GAS CALL ISZERO DUP1 ISZERO PUSH2 0x58C1 JUMPI RETURNDATASIZE PUSH1 0x0 DUP1 RETURNDATACOPY RETURNDATASIZE PUSH1 0x0 REVERT JUMPDEST POP POP PUSH1 0x3 SLOAD PUSH1 0x40 MLOAD PUSH32 0x33E68DCD00000000000000000000000000000000000000000000000000000000 DUP2 MSTORE PUSH1 0x1 PUSH1 0x1 PUSH1 0xA0 SHL SUB SWAP1 SWAP2 AND SWAP3 POP PUSH4 0x33E68DCD SWAP2 POP PUSH2 0x5914 SWAP1 DUP8 SWAP1 DUP6 SWAP1 DUP9 SWAP1 DUP9 SWAP1 PUSH1 0x4 ADD PUSH2 0x8009 JUMP JUMPDEST PUSH1 0x0 PUSH1 0x40 MLOAD DUP1 DUP4 SUB DUP2 PUSH1 0x0 DUP8 DUP1 EXTCODESIZE ISZERO DUP1 ISZERO PUSH2 0x592E JUMPI PUSH1 0x0 DUP1 REVERT JUMPDEST POP GAS CALL ISZERO DUP1 ISZERO PUSH2 0x5942 JUMPI RETURNDATASIZE PUSH1 0x0 DUP1 RETURNDATACOPY RETURNDATASIZE PUSH1 0x0 REVERT JUMPDEST POP POP PUSH1 0x3 SLOAD PUSH1 0x40 MLOAD PUSH32 0x19F1708800000000000000000000000000000000000000000000000000000000 DUP2 MSTORE PUSH1 0x1 PUSH1 0x1 PUSH1 0xA0 SHL SUB SWAP1 SWAP2 AND SWAP3 POP PUSH4 0x19F17088 SWAP2 POP PUSH2 0x5996 SWAP1 DUP8 SWAP1 DUP6 SWAP1 DUP9 SWAP1 PUSH1 0x1 SWAP1 PUSH1 0x4 ADD PUSH2 0x8037 JUMP JUMPDEST PUSH1 0x0 PUSH1 0x40 MLOAD DUP1 DUP4 SUB DUP2 PUSH1 0x0 DUP8 DUP1 EXTCODESIZE ISZERO DUP1 ISZERO PUSH2 0x59B0 JUMPI PUSH1 0x0 DUP1 REVERT JUMPDEST POP GAS CALL ISZERO DUP1 ISZERO PUSH2 0xAF2 JUMPI RETURNDATASIZE PUSH1 0x0 DUP1 RETURNDATACOPY RETURNDATASIZE PUSH1 0x0 REVERT JUMPDEST PUSH1 0x3 SLOAD PUSH1 0x40 MLOAD PUSH32 0x193620E700000000000000000000000000000000000000000000000000000000 DUP2 MSTORE PUSH1 0x4 DUP2 ADD DUP6 SWAP1 MSTORE PUSH1 0x1 PUSH1 0x1 PUSH1 0xA0 SHL SUB DUP4 DUP2 AND PUSH1 0x24 DUP4 ADD MSTORE SWAP1 SWAP2 AND SWAP1 PUSH4 0x193620E7 SWAP1 PUSH1 0x44 ADD PUSH1 0x20 PUSH1 0x40 MLOAD DUP1 DUP4 SUB DUP2 DUP7 GAS STATICCALL ISZERO DUP1 ISZERO PUSH2 0x5A2E JUMPI RETURNDATASIZE PUSH1 0x0 DUP1 RETURNDATACOPY RETURNDATASIZE PUSH1 0x0 REVERT JUMPDEST POP POP POP POP PUSH1 0x40 MLOAD RETURNDATASIZE PUSH1 0x1F NOT PUSH1 0x1F DUP3 ADD AND DUP3 ADD DUP1 PUSH1 0x40 MSTORE POP DUP2 ADD SWAP1 PUSH2 0x5A52 SWAP2 SWAP1 PUSH2 0x75D1 JUMP JUMPDEST PUSH1 0x0 SUB PUSH2 0x5AD9 JUMPI PUSH1 0x3 SLOAD PUSH1 0x40 MLOAD PUSH32 0x31D396CE00000000000000000000000000000000000000000000000000000000 DUP2 MSTORE PUSH1 0x4 DUP2 ADD DUP6 SWAP1 MSTORE PUSH1 0x1 PUSH1 0x1 PUSH1 0xA0 SHL SUB DUP4 DUP2 AND PUSH1 0x24 DUP4 ADD MSTORE SWAP1 SWAP2 AND SWAP1 PUSH4 0x31D396CE SWAP1 PUSH1 0x44 ADD PUSH1 0x0 PUSH1 0x40 MLOAD DUP1 DUP4 SUB DUP2 PUSH1 0x0 DUP8 DUP1 EXTCODESIZE ISZERO DUP1 ISZERO PUSH2 0x5AC0 JUMPI PUSH1 0x0 DUP1 REVERT JUMPDEST POP GAS CALL ISZERO DUP1 ISZERO PUSH2 0x5AD4 JUMPI RETURNDATASIZE PUSH1 0x0 DUP1 RETURNDATACOPY RETURNDATASIZE PUSH1 0x0 REVERT JUMPDEST POP POP POP POP JUMPDEST PUSH1 0x0 JUMPDEST DUP3 MLOAD DUP2 LT ISZERO PUSH2 0x5BBA JUMPI PUSH2 0x5B08 DUP5 DUP5 DUP4 DUP2 MLOAD DUP2 LT PUSH2 0x5AFB JUMPI PUSH2 0x5AFB PUSH2 0x7BF8 JUMP JUMPDEST PUSH1 0x20 MUL PUSH1 0x20 ADD ADD MLOAD PUSH2 0x65C0 JUMP JUMPDEST PUSH1 0x3 SLOAD DUP4 MLOAD PUSH1 0x1 PUSH1 0x1 PUSH1 0xA0 SHL SUB SWAP1 SWAP2 AND SWAP1 PUSH4 0x271FF03F SWAP1 DUP7 SWAP1 DUP6 SWAP1 DUP8 SWAP1 DUP7 SWAP1 DUP2 LT PUSH2 0x5B35 JUMPI PUSH2 0x5B35 PUSH2 0x7BF8 JUMP JUMPDEST PUSH1 0x20 MUL PUSH1 0x20 ADD ADD MLOAD PUSH1 0x40 MLOAD DUP5 PUSH4 0xFFFFFFFF AND PUSH1 0xE0 SHL DUP2 MSTORE PUSH1 0x4 ADD PUSH2 0x5B75 SWAP4 SWAP3 SWAP2 SWAP1 SWAP3 DUP4 MSTORE PUSH1 0x1 PUSH1 0x1 PUSH1 0xA0 SHL SUB SWAP2 SWAP1 SWAP2 AND PUSH1 0x20 DUP4 ADD MSTORE PUSH1 0x40 DUP3 ADD MSTORE PUSH1 0x60 ADD SWAP1 JUMP JUMPDEST PUSH1 0x0 PUSH1 0x40 MLOAD DUP1 DUP4 SUB DUP2 PUSH1 0x0 DUP8 DUP1 EXTCODESIZE ISZERO DUP1 ISZERO PUSH2 0x5B8F JUMPI PUSH1 0x0 DUP1 REVERT JUMPDEST POP GAS CALL ISZERO DUP1 ISZERO PUSH2 0x5BA3 JUMPI RETURNDATASIZE PUSH1 0x0 DUP1 RETURNDATACOPY RETURNDATASIZE PUSH1 0x0 REVERT JUMPDEST POP POP POP POP DUP1 DUP1 PUSH2 0x5BB2 SWAP1 PUSH2 0x7D88 JUMP JUMPDEST SWAP2 POP POP PUSH2 0x5ADC JUMP JUMPDEST POP PUSH1 0x3 SLOAD PUSH1 0x40 MLOAD PUSH32 0x429EDAA200000000000000000000000000000000000000000000000000000000 DUP2 MSTORE PUSH1 0x4 DUP2 ADD DUP6 SWAP1 MSTORE PUSH1 0x1 PUSH1 0x1 PUSH1 0xA0 SHL SUB SWAP1 SWAP2 AND SWAP1 PUSH4 0x429EDAA2 SWAP1 PUSH1 0x24 ADD PUSH1 0x0 PUSH1 0x40 MLOAD DUP1 DUP4 SUB DUP2 PUSH1 0x0 DUP8 DUP1 EXTCODESIZE ISZERO DUP1 ISZERO PUSH2 0x5C1A JUMPI PUSH1 0x0 DUP1 REVERT JUMPDEST POP GAS CALL ISZERO DUP1 ISZERO PUSH2 0x5C2E JUMPI RETURNDATASIZE PUSH1 0x0 DUP1 RETURNDATACOPY RETURNDATASIZE PUSH1 0x0 REVERT JUMPDEST POP POP PUSH1 0x3 SLOAD PUSH1 0x40 MLOAD PUSH32 0x8A9A9FF300000000000000000000000000000000000000000000000000000000 DUP2 MSTORE PUSH1 0x4 DUP2 ADD DUP8 SWAP1 MSTORE PUSH1 0x1 PUSH1 0x24 DUP3 ADD MSTORE PUSH1 0x1 PUSH1 0x1 PUSH1 0xA0 SHL SUB SWAP1 SWAP2 AND SWAP3 POP PUSH4 0x8A9A9FF3 SWAP2 POP PUSH1 0x44 ADD PUSH1 0x20 PUSH1 0x40 MLOAD DUP1 DUP4 SUB DUP2 DUP7 GAS STATICCALL ISZERO DUP1 ISZERO PUSH2 0x5C9B JUMPI RETURNDATASIZE PUSH1 0x0 DUP1 RETURNDATACOPY RETURNDATASIZE PUSH1 0x0 REVERT JUMPDEST POP POP POP POP PUSH1 0x40 MLOAD RETURNDATASIZE PUSH1 0x1F NOT PUSH1 0x1F DUP3 ADD AND DUP3 ADD DUP1 PUSH1 0x40 MSTORE POP DUP2 ADD SWAP1 PUSH2 0x5CBF SWAP2 SWAP1 PUSH2 0x769F JUMP JUMPDEST ISZERO PUSH2 0x3DDF JUMPI PUSH1 0x3 SLOAD PUSH1 0x40 MLOAD PUSH32 0x63E3CCAD00000000000000000000000000000000000000000000000000000000 DUP2 MSTORE PUSH1 0x4 DUP2 ADD DUP6 SWAP1 MSTORE PUSH1 0x0 PUSH1 0x24 DUP3 ADD MSTORE PUSH1 0x1 PUSH1 0x1 PUSH1 0xA0 SHL SUB SWAP1 SWAP2 AND SWAP1 PUSH4 0x63E3CCAD SWAP1 PUSH1 0x44 ADD PUSH1 0x0 PUSH1 0x40 MLOAD DUP1 DUP4 SUB DUP2 PUSH1 0x0 DUP8 DUP1 EXTCODESIZE ISZERO DUP1 ISZERO PUSH2 0x5D2A JUMPI PUSH1 0x0 DUP1 REVERT JUMPDEST POP GAS CALL ISZERO DUP1 ISZERO PUSH2 0x5D3E JUMPI RETURNDATASIZE PUSH1 0x0 DUP1 RETURNDATACOPY RETURNDATASIZE PUSH1 0x0 REVERT JUMPDEST POP POP PUSH1 0x3 SLOAD PUSH1 0x40 MLOAD PUSH32 0x8A9A9FF300000000000000000000000000000000000000000000000000000000 DUP2 MSTORE PUSH1 0x4 DUP2 ADD DUP8 SWAP1 MSTORE PUSH1 0x0 PUSH1 0x24 DUP3 ADD MSTORE PUSH1 0x1 PUSH1 0x1 PUSH1 0xA0 SHL SUB SWAP1 SWAP2 AND SWAP3 POP PUSH4 0x8A9A9FF3 SWAP2 POP PUSH1 0x44 ADD PUSH1 0x20 PUSH1 0x40 MLOAD DUP1 DUP4 SUB DUP2 DUP7 GAS STATICCALL ISZERO DUP1 ISZERO PUSH2 0x5DAB JUMPI RETURNDATASIZE PUSH1 0x0 DUP1 RETURNDATACOPY RETURNDATASIZE PUSH1 0x0 REVERT JUMPDEST POP POP POP POP PUSH1 0x40 MLOAD RETURNDATASIZE PUSH1 0x1F NOT PUSH1 0x1F DUP3 ADD AND DUP3 ADD DUP1 PUSH1 0x40 MSTORE POP DUP2 ADD SWAP1 PUSH2 0x5DCF SWAP2 SWAP1 PUSH2 0x769F JUMP JUMPDEST ISZERO PUSH2 0x5E1E JUMPI PUSH1 0x3 DUP1 SLOAD PUSH1 0x40 MLOAD PUSH32 0x17E925D700000000000000000000000000000000000000000000000000000000 DUP2 MSTORE PUSH1 0x1 PUSH1 0x1 PUSH1 0xA0 SHL SUB SWAP1 SWAP2 AND SWAP2 PUSH4 0x17E925D7 SWAP2 PUSH2 0x3D5C SWAP2 DUP8 SWAP2 PUSH1 0x4 ADD PUSH2 0x7658 JUMP JUMPDEST PUSH1 0x3 SLOAD PUSH1 0x40 MLOAD PUSH32 0x17E925D700000000000000000000000000000000000000000000000000000000 DUP2 MSTORE PUSH1 0x1 PUSH1 0x1 PUSH1 0xA0 SHL SUB SWAP1 SWAP2 AND SWAP1 PUSH4 0x17E925D7 SWAP1 PUSH2 0x3D5C SWAP1 DUP7 SWAP1 PUSH1 0x2 SWAP1 PUSH1 0x4 ADD PUSH2 0x7658 JUMP JUMPDEST PUSH1 0x3 DUP1 SLOAD PUSH1 0x40 MLOAD PUSH32 0x19F1708800000000000000000000000000000000000000000000000000000000 DUP2 MSTORE PUSH1 0x1 PUSH1 0x1 PUSH1 0xA0 SHL SUB SWAP1 SWAP2 AND SWAP2 PUSH4 0x19F17088 SWAP2 PUSH2 0x5EB8 SWAP2 DUP10 SWAP2 DUP10 SWAP2 DUP9 SWAP2 PUSH1 0x4 ADD PUSH2 0x8037 JUMP JUMPDEST PUSH1 0x0 PUSH1 0x40 MLOAD DUP1 DUP4 SUB DUP2 PUSH1 0x0 DUP8 DUP1 EXTCODESIZE ISZERO DUP1 ISZERO PUSH2 0x5ED2 JUMPI PUSH1 0x0 DUP1 REVERT JUMPDEST POP GAS CALL ISZERO DUP1 ISZERO PUSH2 0x5EE6 JUMPI RETURNDATASIZE PUSH1 0x0 DUP1 RETURNDATACOPY RETURNDATASIZE PUSH1 0x0 REVERT JUMPDEST POP POP PUSH1 0x3 SLOAD PUSH1 0x40 MLOAD PUSH32 0x1FA2BF4C00000000000000000000000000000000000000000000000000000000 DUP2 MSTORE PUSH1 0x1 PUSH1 0x1 PUSH1 0xA0 SHL SUB SWAP1 SWAP2 AND SWAP3 POP PUSH4 0x1FA2BF4C SWAP2 POP PUSH2 0x5F38 SWAP1 DUP9 SWAP1 DUP7 SWAP1 PUSH1 0x6 SWAP1 PUSH1 0x4 ADD PUSH2 0x76F6 JUMP JUMPDEST PUSH1 0x0 PUSH1 0x40 MLOAD DUP1 DUP4 SUB DUP2 PUSH1 0x0 DUP8 DUP1 EXTCODESIZE ISZERO DUP1 ISZERO PUSH2 0x5F52 JUMPI PUSH1 0x0 DUP1 REVERT JUMPDEST POP GAS CALL ISZERO DUP1 ISZERO PUSH2 0x5F66 JUMPI RETURNDATASIZE PUSH1 0x0 DUP1 RETURNDATACOPY RETURNDATASIZE PUSH1 0x0 REVERT JUMPDEST POP POP PUSH1 0x3 SLOAD PUSH1 0x40 MLOAD PUSH32 0x6C43190400000000000000000000000000000000000000000000000000000000 DUP2 MSTORE PUSH1 0x1 PUSH1 0x1 PUSH1 0xA0 SHL SUB SWAP1 SWAP2 AND SWAP3 POP PUSH4 0x6C431904 SWAP2 POP PUSH2 0x5FBA SWAP1 DUP9 SWAP1 DUP8 SWAP1 DUP8 SWAP1 PUSH1 0x1 SWAP1 PUSH1 0x4 ADD PUSH2 0x8037 JUMP JUMPDEST PUSH1 0x0 PUSH1 0x40 MLOAD DUP1 DUP4 SUB DUP2 PUSH1 0x0 DUP8 DUP1 EXTCODESIZE ISZERO DUP1 ISZERO PUSH2 0x5FD4 JUMPI PUSH1 0x0 DUP1 REVERT JUMPDEST POP GAS CALL ISZERO DUP1 ISZERO PUSH2 0x5FE8 JUMPI RETURNDATASIZE PUSH1 0x0 DUP1 RETURNDATACOPY RETURNDATASIZE PUSH1 0x0 REVERT JUMPDEST POP POP PUSH1 0x3 SLOAD PUSH1 0x40 MLOAD PUSH32 0x5C3F9C900000000000000000000000000000000000000000000000000000000 DUP2 MSTORE PUSH1 0x1 PUSH1 0x1 PUSH1 0xA0 SHL SUB SWAP1 SWAP2 AND SWAP3 POP PUSH4 0x5C3F9C9 SWAP2 POP PUSH2 0x603B SWAP1 DUP9 SWAP1 DUP8 SWAP1 DUP8 SWAP1 DUP8 SWAP1 PUSH1 0x4 ADD PUSH2 0x8009 JUMP JUMPDEST PUSH1 0x0 PUSH1 0x40 MLOAD DUP1 DUP4 SUB DUP2 PUSH1 0x0 DUP8 DUP1 EXTCODESIZE ISZERO DUP1 ISZERO PUSH2 0x6055 JUMPI PUSH1 0x0 DUP1 REVERT JUMPDEST POP GAS CALL ISZERO DUP1 ISZERO PUSH2 0x6069 JUMPI RETURNDATASIZE PUSH1 0x0 DUP1 RETURNDATACOPY RETURNDATASIZE PUSH1 0x0 REVERT JUMPDEST POP POP POP POP POP POP POP POP POP JUMP JUMPDEST PUSH1 0x3 SLOAD PUSH1 0x40 MLOAD PUSH32 0x19F1708800000000000000000000000000000000000000000000000000000000 DUP2 MSTORE PUSH1 0x1 PUSH1 0x1 PUSH1 0xA0 SHL SUB SWAP1 SWAP2 AND SWAP1 PUSH4 0x19F17088 SWAP1 PUSH2 0x60C4 SWAP1 DUP7 SWAP1 DUP7 SWAP1 DUP7 SWAP1 PUSH1 0x2 SWAP1 PUSH1 0x4 ADD PUSH2 0x8037 JUMP JUMPDEST PUSH1 0x0 PUSH1 0x40 MLOAD DUP1 DUP4 SUB DUP2 PUSH1 0x0 DUP8 DUP1 EXTCODESIZE ISZERO DUP1 ISZERO PUSH2 0x60DE JUMPI PUSH1 0x0 DUP1 REVERT JUMPDEST POP GAS CALL ISZERO DUP1 ISZERO PUSH2 0x60F2 JUMPI RETURNDATASIZE PUSH1 0x0 DUP1 RETURNDATACOPY RETURNDATASIZE PUSH1 0x0 REVERT JUMPDEST POP POP PUSH1 0x3 SLOAD PUSH1 0x40 MLOAD PUSH32 0x1FA2BF4C00000000000000000000000000000000000000000000000000000000 DUP2 MSTORE PUSH1 0x1 PUSH1 0x1 PUSH1 0xA0 SHL SUB SWAP1 SWAP2 AND SWAP3 POP PUSH4 0x1FA2BF4C SWAP2 POP PUSH2 0x3D5C SWAP1 DUP7 SWAP1 DUP6 SWAP1 PUSH1 0x5 SWAP1 PUSH1 0x4 ADD PUSH2 0x76F6 JUMP JUMPDEST PUSH1 0x0 JUMPDEST DUP3 MLOAD DUP2 LT ISZERO PUSH2 0x86E JUMPI PUSH1 0x3 SLOAD DUP4 MLOAD PUSH1 0x1 PUSH1 0x1 PUSH1 0xA0 SHL SUB SWAP1 SWAP2 AND SWAP1 PUSH4 0x6C431904 SWAP1 DUP8 SWAP1 DUP8 SWAP1 DUP8 SWAP1 DUP7 SWAP1 DUP2 LT PUSH2 0x617D JUMPI PUSH2 0x617D PUSH2 0x7BF8 JUMP JUMPDEST PUSH1 0x20 MUL PUSH1 0x20 ADD ADD MLOAD DUP7 PUSH1 0x40 MLOAD DUP6 PUSH4 0xFFFFFFFF AND PUSH1 0xE0 SHL DUP2 MSTORE PUSH1 0x4 ADD PUSH2 0x61A5 SWAP5 SWAP4 SWAP3 SWAP2 SWAP1 PUSH2 0x8037 JUMP JUMPDEST PUSH1 0x0 PUSH1 0x40 MLOAD DUP1 DUP4 SUB DUP2 PUSH1 0x0 DUP8 DUP1 EXTCODESIZE ISZERO DUP1 ISZERO PUSH2 0x61BF JUMPI PUSH1 0x0 DUP1 REVERT JUMPDEST POP GAS CALL ISZERO DUP1 ISZERO PUSH2 0x61D3 JUMPI RETURNDATASIZE PUSH1 0x0 DUP1 RETURNDATACOPY RETURNDATASIZE PUSH1 0x0 REVERT JUMPDEST POP POP POP POP DUP1 DUP1 PUSH2 0x61E2 SWAP1 PUSH2 0x7D88 JUMP JUMPDEST SWAP2 POP POP PUSH2 0x6147 JUMP JUMPDEST PUSH1 0x3 SLOAD PUSH1 0x40 MLOAD PUSH32 0xAD607C7200000000000000000000000000000000000000000000000000000000 DUP2 MSTORE PUSH1 0x4 DUP2 ADD DUP5 SWAP1 MSTORE PUSH1 0x24 DUP2 ADD DUP4 SWAP1 MSTORE PUSH1 0x0 SWAP2 PUSH1 0x1 PUSH1 0x1 PUSH1 0xA0 SHL SUB AND SWAP1 PUSH4 0xAD607C72 SWAP1 PUSH1 0x44 ADD PUSH1 0x20 PUSH1 0x40 MLOAD DUP1 DUP4 SUB DUP2 DUP7 GAS STATICCALL ISZERO DUP1 ISZERO PUSH2 0x6254 JUMPI RETURNDATASIZE PUSH1 0x0 DUP1 RETURNDATACOPY RETURNDATASIZE PUSH1 0x0 REVERT JUMPDEST POP POP POP POP PUSH1 0x40 MLOAD RETURNDATASIZE PUSH1 0x1F NOT PUSH1 0x1F DUP3 ADD AND DUP3 ADD DUP1 PUSH1 0x40 MSTORE POP DUP2 ADD SWAP1 PUSH2 0x6278 SWAP2 SWAP1 PUSH2 0x7677 JUMP JUMPDEST SWAP1 POP PUSH1 0x0 DUP2 PUSH1 0xB DUP2 GT ISZERO PUSH2 0x628E JUMPI PUSH2 0x628E PUSH2 0x6FF0 JUMP JUMPDEST SUB PUSH2 0x62E1 JUMPI PUSH1 0x3 SLOAD PUSH1 0x40 MLOAD PUSH32 0x1FA2BF4C00000000000000000000000000000000000000000000000000000000 DUP2 MSTORE PUSH1 0x1 PUSH1 0x1 PUSH1 0xA0 SHL SUB SWAP1 SWAP2 AND SWAP1 PUSH4 0x1FA2BF4C SWAP1 PUSH2 0x3D5C SWAP1 DUP7 SWAP1 DUP7 SWAP1 PUSH1 0x1 SWAP1 PUSH1 0x4 ADD PUSH2 0x76F6 JUMP JUMPDEST PUSH1 0x2 JUMPDEST DUP2 PUSH1 0xB DUP2 GT ISZERO PUSH2 0x62F6 JUMPI PUSH2 0x62F6 PUSH2 0x6FF0 JUMP JUMPDEST SUB PUSH2 0x6348 JUMPI PUSH1 0x3 DUP1 SLOAD PUSH1 0x40 MLOAD PUSH32 0x1FA2BF4C00000000000000000000000000000000000000000000000000000000 DUP2 MSTORE PUSH1 0x1 PUSH1 0x1 PUSH1 0xA0 SHL SUB SWAP1 SWAP2 AND SWAP2 PUSH4 0x1FA2BF4C SWAP2 PUSH2 0x3D5C SWAP2 DUP8 SWAP2 DUP8 SWAP2 SWAP1 PUSH1 0x4 ADD PUSH2 0x76F6 JUMP JUMPDEST DUP1 PUSH1 0x40 MLOAD PUSH32 0xCDEC874A00000000000000000000000000000000000000000000000000000000 DUP2 MSTORE PUSH1 0x4 ADD PUSH2 0x641 SWAP2 SWAP1 PUSH2 0x8061 JUMP JUMPDEST PUSH1 0x0 JUMPDEST DUP3 MLOAD DUP2 LT ISZERO PUSH2 0x86E JUMPI PUSH1 0x3 SLOAD DUP4 MLOAD PUSH1 0x1 PUSH1 0x1 PUSH1 0xA0 SHL SUB SWAP1 SWAP2 AND SWAP1 PUSH4 0x19F17088 SWAP1 DUP8 SWAP1 DUP8 SWAP1 DUP8 SWAP1 DUP7 SWAP1 DUP2 LT PUSH2 0x63B5 JUMPI PUSH2 0x63B5 PUSH2 0x7BF8 JUMP JUMPDEST PUSH1 0x20 MUL PUSH1 0x20 ADD ADD MLOAD DUP7 PUSH1 0x40 MLOAD DUP6 PUSH4 0xFFFFFFFF AND PUSH1 0xE0 SHL DUP2 MSTORE PUSH1 0x4 ADD PUSH2 0x63DD SWAP5 SWAP4 SWAP3 SWAP2 SWAP1 PUSH2 0x8037 JUMP JUMPDEST PUSH1 0x0 PUSH1 0x40 MLOAD DUP1 DUP4 SUB DUP2 PUSH1 0x0 DUP8 DUP1 EXTCODESIZE ISZERO DUP1 ISZERO PUSH2 0x63F7 JUMPI PUSH1 0x0 DUP1 REVERT JUMPDEST POP GAS CALL ISZERO DUP1 ISZERO PUSH2 0x640B JUMPI RETURNDATASIZE PUSH1 0x0 DUP1 RETURNDATACOPY RETURNDATASIZE PUSH1 0x0 REVERT JUMPDEST POP POP POP POP DUP1 DUP1 PUSH2 0x641A SWAP1 PUSH2 0x7D88 JUMP JUMPDEST SWAP2 POP POP PUSH2 0x637F JUMP JUMPDEST PUSH1 0x3 DUP1 SLOAD PUSH1 0x40 MLOAD PUSH32 0x6C43190400000000000000000000000000000000000000000000000000000000 DUP2 MSTORE PUSH1 0x1 PUSH1 0x1 PUSH1 0xA0 SHL SUB SWAP1 SWAP2 AND SWAP2 PUSH4 0x6C431904 SWAP2 PUSH2 0x6470 SWAP2 DUP8 SWAP2 DUP8 SWAP2 DUP8 SWAP2 PUSH1 0x4 ADD PUSH2 0x8037 JUMP JUMPDEST PUSH1 0x0 PUSH1 0x40 MLOAD DUP1 DUP4 SUB DUP2 PUSH1 0x0 DUP8 DUP1 EXTCODESIZE ISZERO DUP1 ISZERO PUSH2 0x648A JUMPI PUSH1 0x0 DUP1 REVERT JUMPDEST POP GAS CALL ISZERO DUP1 ISZERO PUSH2 0x649E JUMPI RETURNDATASIZE PUSH1 0x0 DUP1 RETURNDATACOPY RETURNDATASIZE PUSH1 0x0 REVERT JUMPDEST POP POP PUSH1 0x3 SLOAD PUSH1 0x40 MLOAD PUSH32 0x1FA2BF4C00000000000000000000000000000000000000000000000000000000 DUP2 MSTORE PUSH1 0x1 PUSH1 0x1 PUSH1 0xA0 SHL SUB SWAP1 SWAP2 AND SWAP3 POP PUSH4 0x1FA2BF4C SWAP2 POP PUSH2 0x3D5C SWAP1 DUP7 SWAP1 DUP6 SWAP1 PUSH1 0x8 SWAP1 PUSH1 0x4 ADD PUSH2 0x76F6 JUMP JUMPDEST PUSH1 0x3 SLOAD PUSH1 0x40 MLOAD PUSH32 0x6C43190400000000000000000000000000000000000000000000000000000000 DUP2 MSTORE PUSH1 0x1 PUSH1 0x1 PUSH1 0xA0 SHL SUB SWAP1 SWAP2 AND SWAP1 PUSH4 0x6C431904 SWAP1 PUSH2 0x6540 SWAP1 DUP7 SWAP1 DUP7 SWAP1 DUP7 SWAP1 PUSH1 0x2 SWAP1 PUSH1 0x4 ADD PUSH2 0x8037 JUMP JUMPDEST PUSH1 0x0 PUSH1 0x40 MLOAD DUP1 DUP4 SUB DUP2 PUSH1 0x0 DUP8 DUP1 EXTCODESIZE ISZERO DUP1 ISZERO PUSH2 0x655A JUMPI PUSH1 0x0 DUP1 REVERT JUMPDEST POP GAS CALL ISZERO DUP1 ISZERO PUSH2 0x656E JUMPI RETURNDATASIZE PUSH1 0x0 DUP1 RETURNDATACOPY RETURNDATASIZE PUSH1 0x0 REVERT JUMPDEST POP POP PUSH1 0x3 SLOAD PUSH1 0x40 MLOAD PUSH32 0x1FA2BF4C00000000000000000000000000000000000000000000000000000000 DUP2 MSTORE PUSH1 0x1 PUSH1 0x1 PUSH1 0xA0 SHL SUB SWAP1 SWAP2 AND SWAP3 POP PUSH4 0x1FA2BF4C SWAP2 POP PUSH2 0x3D5C SWAP1 DUP7 SWAP1 DUP6 SWAP1 PUSH1 0x7 SWAP1 PUSH1 0x4 ADD PUSH2 0x76F6 JUMP JUMPDEST PUSH1 0x3 SLOAD PUSH1 0x40 MLOAD PUSH32 0xAD607C7200000000000000000000000000000000000000000000000000000000 DUP2 MSTORE PUSH1 0x4 DUP2 ADD DUP5 SWAP1 MSTORE PUSH1 0x24 DUP2 ADD DUP4 SWAP1 MSTORE PUSH1 0x0 SWAP2 PUSH1 0x1 PUSH1 0x1 PUSH1 0xA0 SHL SUB AND SWAP1 PUSH4 0xAD607C72 SWAP1 PUSH1 0x44 ADD PUSH1 0x20 PUSH1 0x40 MLOAD DUP1 DUP4 SUB DUP2 DUP7 GAS STATICCALL ISZERO DUP1 ISZERO PUSH2 0x662A JUMPI RETURNDATASIZE PUSH1 0x0 DUP1 RETURNDATACOPY RETURNDATASIZE PUSH1 0x0 REVERT JUMPDEST POP POP POP POP PUSH1 0x40 MLOAD RETURNDATASIZE PUSH1 0x1F NOT PUSH1 0x1F DUP3 ADD AND DUP3 ADD DUP1 PUSH1 0x40 MSTORE POP DUP2 ADD SWAP1 PUSH2 0x664E SWAP2 SWAP1 PUSH2 0x7677 JUMP JUMPDEST SWAP1 POP PUSH1 0x0 DUP2 PUSH1 0xB DUP2 GT ISZERO PUSH2 0x6664 JUMPI PUSH2 0x6664 PUSH2 0x6FF0 JUMP JUMPDEST SUB PUSH2 0x66B7 JUMPI PUSH1 0x3 SLOAD PUSH1 0x40 MLOAD PUSH32 0x1FA2BF4C00000000000000000000000000000000000000000000000000000000 DUP2 MSTORE PUSH1 0x1 PUSH1 0x1 PUSH1 0xA0 SHL SUB SWAP1 SWAP2 AND SWAP1 PUSH4 0x1FA2BF4C SWAP1 PUSH2 0x3D5C SWAP1 DUP7 SWAP1 DUP7 SWAP1 PUSH1 0x2 SWAP1 PUSH1 0x4 ADD PUSH2 0x76F6 JUMP JUMPDEST PUSH1 0x1 PUSH2 0x62E4 JUMP JUMPDEST PUSH1 0x3 SLOAD PUSH1 0x40 MLOAD PUSH32 0x17E925D700000000000000000000000000000000000000000000000000000000 DUP2 MSTORE PUSH1 0x1 PUSH1 0x1 PUSH1 0xA0 SHL SUB SWAP1 SWAP2 AND SWAP1 PUSH4 0x17E925D7 SWAP1 PUSH2 0x670A SWAP1 DUP5 SWAP1 PUSH1 0x5 SWAP1 PUSH1 0x4 ADD PUSH2 0x7658 JUMP JUMPDEST PUSH1 0x0 PUSH1 0x40 MLOAD DUP1 DUP4 SUB DUP2 PUSH1 0x0 DUP8 DUP1 EXTCODESIZE ISZERO DUP1 ISZERO PUSH2 0x6724 JUMPI PUSH1 0x0 DUP1 REVERT JUMPDEST POP GAS CALL ISZERO DUP1 ISZERO PUSH2 0x6738 JUMPI RETURNDATASIZE PUSH1 0x0 DUP1 RETURNDATACOPY RETURNDATASIZE PUSH1 0x0 REVERT JUMPDEST POP POP PUSH1 0x3 SLOAD PUSH1 0x40 MLOAD PUSH32 0xC061BB8200000000000000000000000000000000000000000000000000000000 DUP2 MSTORE PUSH1 0x4 DUP2 ADD DUP6 SWAP1 MSTORE PUSH1 0x0 PUSH1 0x24 DUP3 ADD MSTORE PUSH1 0x1 PUSH1 0x1 PUSH1 0xA0 SHL SUB SWAP1 SWAP2 AND SWAP3 POP PUSH4 0xC061BB82 SWAP2 POP PUSH1 0x44 ADD PUSH2 0x8C1 JUMP JUMPDEST PUSH1 0x40 MLOAD DUP1 PUSH1 0x60 ADD PUSH1 0x40 MSTORE DUP1 PUSH2 0x67A0 PUSH2 0x67B4 JUMP JUMPDEST DUP2 MSTORE PUSH1 0x20 ADD PUSH1 0x60 DUP2 MSTORE PUSH1 0x20 ADD PUSH1 0x60 DUP2 MSTORE POP SWAP1 JUMP JUMPDEST PUSH1 0x40 MLOAD DUP1 PUSH2 0x2E0 ADD PUSH1 0x40 MSTORE DUP1 PUSH1 0x0 PUSH1 0x1 PUSH1 0x1 PUSH1 0xA0 SHL SUB AND DUP2 MSTORE PUSH1 0x20 ADD PUSH1 0x0 DUP2 MSTORE PUSH1 0x20 ADD PUSH1 0x60 DUP2 MSTORE PUSH1 0x20 ADD PUSH1 0x60 DUP2 MSTORE PUSH1 0x20 ADD PUSH1 0x0 DUP2 MSTORE PUSH1 0x20 ADD PUSH1 0x0 DUP2 MSTORE PUSH1 0x20 ADD PUSH1 0x0 DUP2 MSTORE PUSH1 0x20 ADD PUSH1 0x60 DUP2 MSTORE PUSH1 0x20 ADD PUSH1 0x0 DUP2 MSTORE PUSH1 0x20 ADD PUSH1 0x0 DUP2 MSTORE PUSH1 0x20 ADD PUSH1 0x0 ISZERO ISZERO DUP2 MSTORE PUSH1 0x20 ADD PUSH1 0x0 ISZERO ISZERO DUP2 MSTORE PUSH1 0x20 ADD PUSH1 0x0 DUP2 MSTORE PUSH1 0x20 ADD PUSH1 0x60 DUP2 MSTORE PUSH1 0x20 ADD PUSH1 0x60 DUP2 MSTORE PUSH1 0x20 ADD PUSH1 0x60 DUP2 MSTORE PUSH1 0x20 ADD PUSH1 0x0 DUP2 MSTORE PUSH1 0x20 ADD PUSH1 0x0 DUP2 MSTORE PUSH1 0x20 ADD PUSH1 0x0 DUP2 MSTORE PUSH1 0x20 ADD PUSH1 0x0 DUP2 MSTORE PUSH1 0x20 ADD PUSH1 0x0 ISZERO ISZERO DUP2 MSTORE PUSH1 0x20 ADD PUSH1 0x0 ISZERO ISZERO DUP2 MSTORE PUSH1 0x20 ADD PUSH1 0x0 PUSH1 0x7 DUP2 GT ISZERO PUSH2 0x687E JUMPI PUSH2 0x687E PUSH2 0x6FF0 JUMP JUMPDEST SWAP1 MSTORE SWAP1 JUMP JUMPDEST PUSH1 0x1 PUSH1 0x1 PUSH1 0xA0 SHL SUB DUP2 AND DUP2 EQ PUSH2 0xB0D JUMPI PUSH1 0x0 DUP1 REVERT JUMPDEST PUSH1 0x0 PUSH1 0x20 DUP3 DUP5 SUB SLT ISZERO PUSH2 0x68AA JUMPI PUSH1 0x0 DUP1 REVERT JUMPDEST DUP2 CALLDATALOAD PUSH2 0x68B5 DUP2 PUSH2 0x6883 JUMP JUMPDEST SWAP4 SWAP3 POP POP POP JUMP JUMPDEST PUSH32 0x4E487B7100000000000000000000000000000000000000000000000000000000 PUSH1 0x0 MSTORE PUSH1 0x41 PUSH1 0x4 MSTORE PUSH1 0x24 PUSH1 0x0 REVERT JUMPDEST PUSH1 0x40 MLOAD PUSH1 0xA0 DUP2 ADD PUSH8 0xFFFFFFFFFFFFFFFF DUP2 GT DUP3 DUP3 LT OR ISZERO PUSH2 0x690E JUMPI PUSH2 0x690E PUSH2 0x68BC JUMP JUMPDEST PUSH1 0x40 MSTORE SWAP1 JUMP JUMPDEST PUSH1 0x40 MLOAD PUSH1 0xE0 DUP2 ADD PUSH8 0xFFFFFFFFFFFFFFFF DUP2 GT DUP3 DUP3 LT OR ISZERO PUSH2 0x690E JUMPI PUSH2 0x690E PUSH2 0x68BC JUMP JUMPDEST PUSH1 0x40 MLOAD PUSH2 0x1A0 DUP2 ADD PUSH8 0xFFFFFFFFFFFFFFFF DUP2 GT DUP3 DUP3 LT OR ISZERO PUSH2 0x690E JUMPI PUSH2 0x690E PUSH2 0x68BC JUMP JUMPDEST PUSH1 0x40 MLOAD PUSH2 0x2E0 DUP2 ADD PUSH8 0xFFFFFFFFFFFFFFFF DUP2 GT DUP3 DUP3 LT OR ISZERO PUSH2 0x690E JUMPI PUSH2 0x690E PUSH2 0x68BC JUMP JUMPDEST PUSH1 0x40 MLOAD PUSH1 0x60 DUP2 ADD PUSH8 0xFFFFFFFFFFFFFFFF DUP2 GT DUP3 DUP3 LT OR ISZERO PUSH2 0x690E JUMPI PUSH2 0x690E PUSH2 0x68BC JUMP JUMPDEST PUSH1 0x40 DUP1 MLOAD SWAP1 DUP2 ADD PUSH8 0xFFFFFFFFFFFFFFFF DUP2 GT DUP3 DUP3 LT OR ISZERO PUSH2 0x690E JUMPI PUSH2 0x690E PUSH2 0x68BC JUMP JUMPDEST PUSH1 0x40 MLOAD PUSH1 0x1F DUP3 ADD PUSH1 0x1F NOT AND DUP2 ADD PUSH8 0xFFFFFFFFFFFFFFFF DUP2 GT DUP3 DUP3 LT OR ISZERO PUSH2 0x69EE JUMPI PUSH2 0x69EE PUSH2 0x68BC JUMP JUMPDEST PUSH1 0x40 MSTORE SWAP2 SWAP1 POP JUMP JUMPDEST PUSH1 0x0 PUSH8 0xFFFFFFFFFFFFFFFF DUP3 GT ISZERO PUSH2 0x6A10 JUMPI PUSH2 0x6A10 PUSH2 0x68BC JUMP JUMPDEST POP PUSH1 0x1F ADD PUSH1 0x1F NOT AND PUSH1 0x20 ADD SWAP1 JUMP JUMPDEST PUSH1 0x0 DUP3 PUSH1 0x1F DUP4 ADD SLT PUSH2 0x6A2F JUMPI PUSH1 0x0 DUP1 REVERT JUMPDEST DUP2 CALLDATALOAD PUSH2 0x6A42 PUSH2 0x6A3D DUP3 PUSH2 0x69F6 JUMP JUMPDEST PUSH2 0x69C5 JUMP JUMPDEST DUP2 DUP2 MSTORE DUP5 PUSH1 0x20 DUP4 DUP7 ADD ADD GT ISZERO PUSH2 0x6A57 JUMPI PUSH1 0x0 DUP1 REVERT JUMPDEST DUP2 PUSH1 0x20 DUP6 ADD PUSH1 0x20 DUP4 ADD CALLDATACOPY PUSH1 0x0 SWAP2 DUP2 ADD PUSH1 0x20 ADD SWAP2 SWAP1 SWAP2 MSTORE SWAP4 SWAP3 POP POP POP JUMP JUMPDEST PUSH1 0x0 PUSH8 0xFFFFFFFFFFFFFFFF DUP3 GT ISZERO PUSH2 0x6A8E JUMPI PUSH2 0x6A8E PUSH2 0x68BC JUMP JUMPDEST POP PUSH1 0x5 SHL PUSH1 0x20 ADD SWAP1 JUMP JUMPDEST PUSH1 0x0 DUP3 PUSH1 0x1F DUP4 ADD SLT PUSH2 0x6AA9 JUMPI PUSH1 0x0 DUP1 REVERT JUMPDEST DUP2 CALLDATALOAD PUSH1 0x20 PUSH2 0x6AB9 PUSH2 0x6A3D DUP4 PUSH2 0x6A74 JUMP JUMPDEST DUP3 DUP2 MSTORE PUSH1 0x5 SWAP3 SWAP1 SWAP3 SHL DUP5 ADD DUP2 ADD SWAP2 DUP2 DUP2 ADD SWAP1 DUP7 DUP5 GT ISZERO PUSH2 0x6AD8 JUMPI PUSH1 0x0 DUP1 REVERT JUMPDEST DUP3 DUP7 ADD JUMPDEST DUP5 DUP2 LT ISZERO PUSH2 0x6AF3 JUMPI DUP1 CALLDATALOAD DUP4 MSTORE SWAP2 DUP4 ADD SWAP2 DUP4 ADD PUSH2 0x6ADC JUMP JUMPDEST POP SWAP7 SWAP6 POP POP POP POP POP POP JUMP JUMPDEST DUP1 ISZERO ISZERO DUP2 EQ PUSH2 0xB0D JUMPI PUSH1 0x0 DUP1 REVERT JUMPDEST DUP1 CALLDATALOAD PUSH2 0x6B17 DUP2 PUSH2 0x6AFE JUMP JUMPDEST SWAP2 SWAP1 POP JUMP JUMPDEST PUSH1 0xC DUP2 LT PUSH2 0xB0D JUMPI PUSH1 0x0 DUP1 REVERT JUMPDEST DUP1 CALLDATALOAD PUSH2 0x6B17 DUP2 PUSH2 0x6B1C JUMP JUMPDEST PUSH1 0x0 DUP3 PUSH1 0x1F DUP4 ADD SLT PUSH2 0x6B45 JUMPI PUSH1 0x0 DUP1 REVERT JUMPDEST DUP2 CALLDATALOAD PUSH1 0x20 PUSH2 0x6B55 PUSH2 0x6A3D DUP4 PUSH2 0x6A74 JUMP JUMPDEST DUP3 DUP2 MSTORE PUSH1 0x5 SWAP3 SWAP1 SWAP3 SHL DUP5 ADD DUP2 ADD SWAP2 DUP2 DUP2 ADD SWAP1 DUP7 DUP5 GT ISZERO PUSH2 0x6B74 JUMPI PUSH1 0x0 DUP1 REVERT JUMPDEST DUP3 DUP7 ADD JUMPDEST DUP5 DUP2 LT ISZERO PUSH2 0x6AF3 JUMPI DUP1 CALLDATALOAD PUSH8 0xFFFFFFFFFFFFFFFF DUP1 DUP3 GT ISZERO PUSH2 0x6B98 JUMPI PUSH1 0x0 DUP1 REVERT JUMPDEST SWAP1 DUP9 ADD SWAP1 PUSH1 0x1F NOT PUSH1 0xA0 DUP4 DUP13 SUB DUP3 ADD SLT ISZERO PUSH2 0x6BB1 JUMPI PUSH1 0x0 DUP1 REVERT JUMPDEST PUSH2 0x6BB9 PUSH2 0x68EB JUMP JUMPDEST DUP8 DUP5 ADD CALLDATALOAD DUP4 DUP2 GT ISZERO PUSH2 0x6BCA JUMPI PUSH1 0x0 DUP1 REVERT JUMPDEST DUP5 ADD PUSH1 0xE0 DUP2 DUP15 SUB DUP5 ADD SLT ISZERO PUSH2 0x6BDE JUMPI PUSH1 0x0 DUP1 REVERT JUMPDEST PUSH2 0x6BE6 PUSH2 0x6914 JUMP JUMPDEST SWAP3 POP DUP9 DUP2 ADD CALLDATALOAD DUP5 DUP2 GT ISZERO PUSH2 0x6BF9 JUMPI PUSH1 0x0 DUP1 REVERT JUMPDEST PUSH2 0x6C07 DUP15 DUP12 DUP4 DUP6 ADD ADD PUSH2 0x6A1E JUMP JUMPDEST DUP5 MSTORE POP PUSH1 0x40 DUP2 ADD CALLDATALOAD DUP10 DUP5 ADD MSTORE PUSH1 0x60 DUP2 ADD CALLDATALOAD PUSH1 0x40 DUP5 ADD MSTORE PUSH1 0x80 DUP1 DUP3 ADD CALLDATALOAD PUSH1 0x60 DUP6 ADD MSTORE PUSH1 0xA0 DUP3 ADD CALLDATALOAD DUP2 DUP6 ADD MSTORE PUSH1 0xC0 DUP3 ADD CALLDATALOAD PUSH1 0xA0 DUP6 ADD MSTORE PUSH1 0xE0 DUP3 ADD CALLDATALOAD DUP6 DUP2 GT ISZERO PUSH2 0x6C4D JUMPI PUSH1 0x0 DUP1 REVERT JUMPDEST PUSH2 0x6C5B DUP16 DUP13 DUP4 DUP7 ADD ADD PUSH2 0x6A1E JUMP JUMPDEST PUSH1 0xC0 DUP7 ADD MSTORE POP SWAP3 DUP3 MSTORE PUSH1 0x40 DUP6 ADD CALLDATALOAD DUP10 DUP4 ADD MSTORE PUSH1 0x60 DUP6 ADD CALLDATALOAD SWAP3 DUP5 DUP5 GT ISZERO PUSH2 0x6C80 JUMPI PUSH1 0x0 DUP1 REVERT JUMPDEST PUSH2 0x6C8E DUP15 DUP12 DUP7 DUP10 ADD ADD PUSH2 0x6A1E JUMP JUMPDEST PUSH1 0x40 DUP5 ADD MSTORE PUSH2 0x6C9E DUP2 DUP8 ADD PUSH2 0x6B29 JUMP JUMPDEST PUSH1 0x60 DUP5 ADD MSTORE PUSH1 0xA0 SWAP6 SWAP1 SWAP6 ADD CALLDATALOAD SWAP5 DUP3 ADD SWAP5 SWAP1 SWAP5 MSTORE DUP7 MSTORE POP POP POP SWAP2 DUP4 ADD SWAP2 DUP4 ADD PUSH2 0x6B78 JUMP JUMPDEST PUSH1 0x0 PUSH2 0x1A0 DUP3 DUP5 SUB SLT ISZERO PUSH2 0x6CD4 JUMPI PUSH1 0x0 DUP1 REVERT JUMPDEST PUSH2 0x6CDC PUSH2 0x6937 JUMP JUMPDEST SWAP1 POP DUP2 CALLDATALOAD DUP2 MSTORE PUSH1 0x20 DUP3 ADD CALLDATALOAD PUSH8 0xFFFFFFFFFFFFFFFF DUP1 DUP3 GT ISZERO PUSH2 0x6CFD JUMPI PUSH1 0x0 DUP1 REVERT JUMPDEST PUSH2 0x6D09 DUP6 DUP4 DUP7 ADD PUSH2 0x6A1E JUMP JUMPDEST PUSH1 0x20 DUP5 ADD MSTORE PUSH1 0x40 DUP5 ADD CALLDATALOAD SWAP2 POP DUP1 DUP3 GT ISZERO PUSH2 0x6D22 JUMPI PUSH1 0x0 DUP1 REVERT JUMPDEST PUSH2 0x6D2E DUP6 DUP4 DUP7 ADD PUSH2 0x6A1E JUMP JUMPDEST PUSH1 0x40 DUP5 ADD MSTORE PUSH1 0x60 DUP5 ADD CALLDATALOAD PUSH1 0x60 DUP5 ADD MSTORE PUSH1 0x80 DUP5 ADD CALLDATALOAD PUSH1 0x80 DUP5 ADD MSTORE PUSH1 0xA0 DUP5 ADD CALLDATALOAD PUSH1 0xA0 DUP5 ADD MSTORE PUSH1 0xC0 DUP5 ADD CALLDATALOAD SWAP2 POP DUP1 DUP3 GT ISZERO PUSH2 0x6D65 JUMPI PUSH1 0x0 DUP1 REVERT JUMPDEST PUSH2 0x6D71 DUP6 DUP4 DUP7 ADD PUSH2 0x6A98 JUMP JUMPDEST PUSH1 0xC0 DUP5 ADD MSTORE PUSH1 0xE0 DUP5 DUP2 ADD CALLDATALOAD SWAP1 DUP5 ADD MSTORE PUSH2 0x100 DUP1 DUP6 ADD CALLDATALOAD SWAP1 DUP5 ADD MSTORE PUSH2 0x120 SWAP2 POP PUSH2 0x6D9B DUP3 DUP6 ADD PUSH2 0x6B0C JUMP JUMPDEST DUP3 DUP5 ADD MSTORE PUSH2 0x140 SWAP2 POP PUSH2 0x6DAF DUP3 DUP6 ADD PUSH2 0x6B0C JUMP JUMPDEST DUP3 DUP5 ADD MSTORE PUSH2 0x160 SWAP2 POP DUP2 DUP5 ADD CALLDATALOAD DUP3 DUP5 ADD MSTORE PUSH2 0x180 SWAP2 POP DUP2 DUP5 ADD CALLDATALOAD DUP2 DUP2 GT ISZERO PUSH2 0x6DD6 JUMPI PUSH1 0x0 DUP1 REVERT JUMPDEST PUSH2 0x6DE2 DUP7 DUP3 DUP8 ADD PUSH2 0x6B34 JUMP JUMPDEST DUP4 DUP6 ADD MSTORE POP POP POP SWAP3 SWAP2 POP POP JUMP JUMPDEST PUSH1 0x0 DUP1 PUSH1 0x40 DUP4 DUP6 SUB SLT ISZERO PUSH2 0x6E02 JUMPI PUSH1 0x0 DUP1 REVERT JUMPDEST DUP3 CALLDATALOAD SWAP2 POP PUSH1 0x20 DUP4 ADD CALLDATALOAD PUSH8 0xFFFFFFFFFFFFFFFF DUP2 GT ISZERO PUSH2 0x6E20 JUMPI PUSH1 0x0 DUP1 REVERT JUMPDEST PUSH2 0x6E2C DUP6 DUP3 DUP7 ADD PUSH2 0x6CC1 JUMP JUMPDEST SWAP2 POP POP SWAP3 POP SWAP3 SWAP1 POP JUMP JUMPDEST PUSH1 0x0 PUSH1 0x20 DUP3 DUP5 SUB SLT ISZERO PUSH2 0x6E48 JUMPI PUSH1 0x0 DUP1 REVERT JUMPDEST POP CALLDATALOAD SWAP2 SWAP1 POP JUMP JUMPDEST PUSH1 0x0 DUP1 PUSH1 0x0 DUP1 PUSH1 0x0 PUSH1 0xA0 DUP7 DUP9 SUB SLT ISZERO PUSH2 0x6E67 JUMPI PUSH1 0x0 DUP1 REVERT JUMPDEST DUP6 CALLDATALOAD SWAP5 POP PUSH1 0x20 DUP7 ADD CALLDATALOAD PUSH2 0x6E79 DUP2 PUSH2 0x6883 JUMP JUMPDEST SWAP4 POP PUSH1 0x40 DUP7 ADD CALLDATALOAD SWAP3 POP PUSH1 0x60 DUP7 ADD CALLDATALOAD PUSH2 0x6E90 DUP2 PUSH2 0x6AFE JUMP JUMPDEST SWAP2 POP PUSH1 0x80 DUP7 ADD CALLDATALOAD PUSH8 0xFFFFFFFFFFFFFFFF DUP2 GT ISZERO PUSH2 0x6EAC JUMPI PUSH1 0x0 DUP1 REVERT JUMPDEST PUSH2 0x6EB8 DUP9 DUP3 DUP10 ADD PUSH2 0x6A1E JUMP JUMPDEST SWAP2 POP POP SWAP3 SWAP6 POP SWAP3 SWAP6 SWAP1 SWAP4 POP JUMP JUMPDEST PUSH1 0x0 DUP1 PUSH1 0x40 DUP4 DUP6 SUB SLT ISZERO PUSH2 0x6ED8 JUMPI PUSH1 0x0 DUP1 REVERT JUMPDEST DUP3 CALLDATALOAD SWAP2 POP PUSH1 0x20 DUP4 ADD CALLDATALOAD PUSH2 0x6EEA DUP2 PUSH2 0x6883 JUMP JUMPDEST DUP1 SWAP2 POP POP SWAP3 POP SWAP3 SWAP1 POP JUMP JUMPDEST PUSH1 0x0 DUP1 PUSH1 0x40 DUP4 DUP6 SUB SLT ISZERO PUSH2 0x6F08 JUMPI PUSH1 0x0 DUP1 REVERT JUMPDEST DUP3 CALLDATALOAD SWAP2 POP PUSH1 0x20 DUP4 ADD CALLDATALOAD PUSH8 0xFFFFFFFFFFFFFFFF DUP2 GT ISZERO PUSH2 0x6F26 JUMPI PUSH1 0x0 DUP1 REVERT JUMPDEST PUSH2 0x6E2C DUP6 DUP3 DUP7 ADD PUSH2 0x6A98 JUMP JUMPDEST PUSH1 0x0 DUP1 PUSH1 0x0 DUP1 PUSH1 0x0 PUSH1 0xA0 DUP7 DUP9 SUB SLT ISZERO PUSH2 0x6F4A JUMPI PUSH1 0x0 DUP1 REVERT JUMPDEST DUP6 CALLDATALOAD SWAP5 POP PUSH1 0x20 DUP7 ADD CALLDATALOAD PUSH2 0x6F5C DUP2 PUSH2 0x6883 JUMP JUMPDEST SWAP4 POP PUSH1 0x40 DUP7 ADD CALLDATALOAD SWAP3 POP PUSH1 0x60 DUP7 ADD CALLDATALOAD PUSH2 0x6F73 DUP2 PUSH2 0x6AFE JUMP JUMPDEST SWAP2 POP PUSH1 0x80 DUP7 ADD CALLDATALOAD PUSH2 0x6F83 DUP2 PUSH2 0x6883 JUMP JUMPDEST DUP1 SWAP2 POP POP SWAP3 SWAP6 POP SWAP3 SWAP6 SWAP1 SWAP4 POP JUMP JUMPDEST PUSH1 0x0 DUP1 PUSH1 0x40 DUP4 DUP6 SUB SLT ISZERO PUSH2 0x6FA4 JUMPI PUSH1 0x0 DUP1 REVERT JUMPDEST POP POP DUP1 CALLDATALOAD SWAP3 PUSH1 0x20 SWAP1 SWAP2 ADD CALLDATALOAD SWAP2 POP JUMP JUMPDEST PUSH1 0x0 PUSH1 0x20 DUP3 DUP5 SUB SLT ISZERO PUSH2 0x6FC5 JUMPI PUSH1 0x0 DUP1 REVERT JUMPDEST DUP2 CALLDATALOAD PUSH8 0xFFFFFFFFFFFFFFFF DUP2 GT ISZERO PUSH2 0x6FDC JUMPI PUSH1 0x0 DUP1 REVERT JUMPDEST PUSH2 0x6FE8 DUP5 DUP3 DUP6 ADD PUSH2 0x6CC1 JUMP JUMPDEST SWAP5 SWAP4 POP POP POP POP JUMP JUMPDEST PUSH32 0x4E487B7100000000000000000000000000000000000000000000000000000000 PUSH1 0x0 MSTORE PUSH1 0x21 PUSH1 0x4 MSTORE PUSH1 0x24 PUSH1 0x0 REVERT JUMPDEST PUSH1 0xC DUP2 LT PUSH2 0x702F JUMPI PUSH2 0x702F PUSH2 0x6FF0 JUMP JUMPDEST SWAP1 MSTORE JUMP JUMPDEST PUSH1 0x20 DUP2 ADD PUSH2 0x1EF9 DUP3 DUP5 PUSH2 0x701F JUMP JUMPDEST PUSH1 0x0 DUP1 PUSH1 0x0 PUSH1 0x60 DUP5 DUP7 SUB SLT ISZERO PUSH2 0x7056 JUMPI PUSH1 0x0 DUP1 REVERT JUMPDEST DUP4 CALLDATALOAD SWAP3 POP PUSH1 0x20 DUP5 ADD CALLDATALOAD SWAP2 POP PUSH1 0x40 DUP5 ADD CALLDATALOAD PUSH8 0xFFFFFFFFFFFFFFFF DUP2 GT ISZERO PUSH2 0x707B JUMPI PUSH1 0x0 DUP1 REVERT JUMPDEST PUSH2 0x7087 DUP7 DUP3 DUP8 ADD PUSH2 0x6A1E JUMP JUMPDEST SWAP2 POP POP SWAP3 POP SWAP3 POP SWAP3 JUMP JUMPDEST PUSH1 0x0 JUMPDEST DUP4 DUP2 LT ISZERO PUSH2 0x70AC JUMPI DUP2 DUP2 ADD MLOAD DUP4 DUP3 ADD MSTORE PUSH1 0x20 ADD PUSH2 0x7094 JUMP JUMPDEST POP POP PUSH1 0x0 SWAP2 ADD MSTORE JUMP JUMPDEST PUSH1 0x0 DUP2 MLOAD DUP1 DUP5 MSTORE PUSH2 0x70CD DUP2 PUSH1 0x20 DUP7 ADD PUSH1 0x20 DUP7 ADD PUSH2 0x7091 JUMP JUMPDEST PUSH1 0x1F ADD PUSH1 0x1F NOT AND SWAP3 SWAP1 SWAP3 ADD PUSH1 0x20 ADD SWAP3 SWAP2 POP POP JUMP JUMPDEST PUSH1 0x0 DUP2 MLOAD DUP1 DUP5 MSTORE PUSH1 0x20 DUP1 DUP6 ADD SWAP5 POP DUP1 DUP5 ADD PUSH1 0x0 JUMPDEST DUP4 DUP2 LT ISZERO PUSH2 0x7111 JUMPI DUP2 MLOAD DUP8 MSTORE SWAP6 DUP3 ADD SWAP6 SWAP1 DUP3 ADD SWAP1 PUSH1 0x1 ADD PUSH2 0x70F5 JUMP JUMPDEST POP SWAP5 SWAP6 SWAP5 POP POP POP POP POP JUMP JUMPDEST PUSH1 0x0 DUP2 MLOAD DUP1 DUP5 MSTORE PUSH1 0x20 DUP1 DUP6 ADD DUP1 DUP2 SWAP7 POP DUP4 PUSH1 0x5 SHL DUP2 ADD SWAP2 POP DUP3 DUP7 ADD PUSH1 0x0 JUMPDEST DUP6 DUP2 LT ISZERO PUSH2 0x7236 JUMPI DUP3 DUP5 SUB DUP10 MSTORE DUP2 MLOAD PUSH1 0xA0 DUP2 MLOAD DUP2 DUP8 MSTORE DUP1 MLOAD PUSH1 0xE0 DUP1 DUP5 DUP11 ADD MSTORE PUSH2 0x7167 PUSH2 0x180 DUP11 ADD DUP4 PUSH2 0x70B5 JUMP JUMPDEST SWAP2 POP DUP10 DUP4 ADD MLOAD PUSH1 0xC0 DUP2 DUP2 DUP13 ADD MSTORE PUSH1 0x40 SWAP2 POP DUP2 DUP6 ADD MLOAD DUP4 DUP13 ADD MSTORE PUSH1 0x60 SWAP3 POP DUP3 DUP6 ADD MLOAD PUSH2 0x100 DUP13 ADD MSTORE PUSH1 0x80 DUP1 DUP7 ADD MLOAD PUSH2 0x120 DUP14 ADD MSTORE DUP7 DUP7 ADD MLOAD PUSH2 0x140 DUP14 ADD MSTORE DUP2 DUP7 ADD MLOAD SWAP7 POP PUSH32 0xFFFFFFFFFFFFFFFFFFFFFFFFFFFFFFFFFFFFFFFFFFFFFFFFFFFFFFFFFFFFFF60 DUP13 DUP7 SUB ADD PUSH2 0x160 DUP14 ADD MSTORE PUSH2 0x71DF DUP6 DUP9 PUSH2 0x70B5 JUMP JUMPDEST SWAP7 POP DUP13 DUP9 ADD MLOAD DUP14 DUP14 ADD MSTORE DUP3 DUP9 ADD MLOAD SWAP6 POP DUP12 DUP8 SUB DUP4 DUP14 ADD MSTORE PUSH2 0x7200 DUP8 DUP8 PUSH2 0x70B5 JUMP JUMPDEST SWAP7 POP DUP4 DUP9 ADD MLOAD SWAP6 POP PUSH2 0x7214 DUP5 DUP14 ADD DUP8 PUSH2 0x701F JUMP JUMPDEST SWAP7 DUP8 ADD MLOAD SWAP11 SWAP1 SWAP7 ADD SWAP10 SWAP1 SWAP10 MSTORE POP POP POP SWAP10 DUP7 ADD SWAP10 SWAP5 POP POP SWAP1 DUP5 ADD SWAP1 PUSH1 0x1 ADD PUSH2 0x713A JUMP JUMPDEST POP SWAP2 SWAP8 SWAP7 POP POP POP POP POP POP POP JUMP JUMPDEST PUSH1 0x0 DUP2 MLOAD DUP1 DUP5 MSTORE PUSH1 0x20 DUP1 DUP6 ADD SWAP5 POP DUP1 DUP5 ADD PUSH1 0x0 JUMPDEST DUP4 DUP2 LT ISZERO PUSH2 0x7111 JUMPI DUP2 MLOAD PUSH1 0x1 PUSH1 0x1 PUSH1 0xA0 SHL SUB AND DUP8 MSTORE SWAP6 DUP3 ADD SWAP6 SWAP1 DUP3 ADD SWAP1 PUSH1 0x1 ADD PUSH2 0x7257 JUMP JUMPDEST PUSH1 0x8 DUP2 LT PUSH2 0x702F JUMPI PUSH2 0x702F PUSH2 0x6FF0 JUMP JUMPDEST PUSH1 0x5 DUP2 LT PUSH2 0x702F JUMPI PUSH2 0x702F PUSH2 0x6FF0 JUMP JUMPDEST PUSH1 0x0 DUP2 MLOAD DUP1 DUP5 MSTORE PUSH1 0x20 DUP1 DUP6 ADD DUP1 DUP2 SWAP7 POP PUSH1 0x5 SWAP2 POP DUP4 DUP3 SHL DUP2 ADD DUP4 DUP8 ADD PUSH1 0x0 DUP1 JUMPDEST DUP8 DUP2 LT ISZERO PUSH2 0x7376 JUMPI DUP5 DUP5 SUB DUP12 MSTORE DUP3 MLOAD PUSH1 0x60 PUSH1 0x1 PUSH1 0x1 PUSH1 0xA0 SHL SUB DUP3 MLOAD AND DUP7 MSTORE DUP9 DUP3 ADD MLOAD DUP2 DUP11 DUP9 ADD MSTORE PUSH2 0x72EF DUP3 DUP9 ADD DUP3 PUSH2 0x70E1 JUMP JUMPDEST PUSH1 0x40 SWAP4 DUP5 ADD MLOAD DUP9 DUP3 SUB DUP10 DUP7 ADD MSTORE DUP1 MLOAD DUP1 DUP4 MSTORE SWAP1 DUP13 ADD SWAP5 SWAP2 SWAP4 POP SWAP1 SWAP2 POP DUP11 DUP4 ADD SWAP1 DUP1 DUP12 SHL DUP5 ADD DUP13 ADD DUP8 JUMPDEST DUP3 DUP2 LT ISZERO PUSH2 0x735E JUMPI PUSH1 0x1F NOT DUP7 DUP4 SUB ADD DUP5 MSTORE DUP7 MLOAD PUSH2 0x7336 DUP4 DUP3 MLOAD PUSH2 0x728C JUMP JUMPDEST DUP15 ADD MLOAD DUP3 DUP16 ADD DUP7 SWAP1 MSTORE PUSH2 0x734B DUP4 DUP8 ADD DUP3 PUSH2 0x70B5 JUMP JUMPDEST SWAP8 DUP16 ADD SWAP8 SWAP5 DUP16 ADD SWAP5 SWAP3 POP POP PUSH1 0x1 ADD PUSH2 0x7318 JUMP JUMPDEST POP SWAP16 DUP13 ADD SWAP16 SWAP9 POP POP POP SWAP5 DUP10 ADD SWAP5 POP POP POP PUSH1 0x1 ADD PUSH2 0x72BC JUMP JUMPDEST POP SWAP2 SWAP10 SWAP9 POP POP POP POP POP POP POP POP POP JUMP JUMPDEST PUSH1 0x20 DUP2 MSTORE PUSH1 0x0 DUP3 MLOAD PUSH1 0x60 PUSH1 0x20 DUP5 ADD MSTORE PUSH2 0x73AA PUSH1 0x80 DUP5 ADD DUP3 MLOAD PUSH1 0x1 PUSH1 0x1 PUSH1 0xA0 SHL SUB AND SWAP1 MSTORE JUMP JUMPDEST PUSH1 0x20 DUP2 ADD MLOAD PUSH1 0xA0 DUP5 ADD MSTORE PUSH1 0x40 DUP2 ADD MLOAD PUSH2 0x2E0 DUP1 PUSH1 0xC0 DUP7 ADD MSTORE PUSH2 0x73D0 PUSH2 0x360 DUP7 ADD DUP4 PUSH2 0x70B5 JUMP JUMPDEST SWAP2 POP PUSH1 0x60 DUP4 ADD MLOAD PUSH32 0xFFFFFFFFFFFFFFFFFFFFFFFFFFFFFFFFFFFFFFFFFFFFFFFFFFFFFFFFFFFFFF80 DUP1 DUP8 DUP6 SUB ADD PUSH1 0xE0 DUP9 ADD MSTORE PUSH2 0x740C DUP5 DUP4 PUSH2 0x70B5 JUMP JUMPDEST SWAP4 POP PUSH1 0x80 DUP6 ADD MLOAD SWAP2 POP PUSH2 0x100 DUP3 DUP2 DUP10 ADD MSTORE PUSH1 0xA0 DUP7 ADD MLOAD SWAP3 POP PUSH2 0x120 DUP4 DUP2 DUP11 ADD MSTORE PUSH1 0xC0 DUP8 ADD MLOAD SWAP4 POP PUSH2 0x140 DUP5 DUP2 DUP12 ADD MSTORE PUSH1 0xE0 DUP9 ADD MLOAD SWAP5 POP PUSH2 0x160 DUP5 DUP12 DUP10 SUB ADD DUP2 DUP13 ADD MSTORE PUSH2 0x7458 DUP9 DUP8 PUSH2 0x70E1 JUMP JUMPDEST SWAP4 DUP10 ADD MLOAD PUSH2 0x180 DUP13 DUP2 ADD SWAP2 SWAP1 SWAP2 MSTORE SWAP3 DUP10 ADD MLOAD PUSH2 0x1A0 DUP1 DUP14 ADD SWAP2 SWAP1 SWAP2 MSTORE SWAP2 DUP10 ADD MLOAD SWAP4 SWAP8 POP SWAP3 SWAP5 POP SWAP1 SWAP2 PUSH2 0x1C0 SWAP1 PUSH2 0x7491 DUP3 DUP13 ADD DUP8 ISZERO ISZERO SWAP1 MSTORE JUMP JUMPDEST DUP9 ADD MLOAD SWAP5 POP PUSH2 0x1E0 PUSH2 0x74A6 DUP12 DUP3 ADD DUP8 ISZERO ISZERO SWAP1 MSTORE JUMP JUMPDEST DUP4 DUP10 ADD MLOAD SWAP6 POP PUSH2 0x200 SWAP4 POP DUP6 DUP5 DUP13 ADD MSTORE DUP3 DUP10 ADD MLOAD SWAP6 POP PUSH2 0x220 SWAP3 POP DUP5 DUP12 DUP10 SUB ADD DUP4 DUP13 ADD MSTORE PUSH2 0x74D4 DUP9 DUP8 PUSH2 0x711C JUMP JUMPDEST SWAP8 POP DUP2 DUP10 ADD MLOAD SWAP6 POP PUSH2 0x240 SWAP2 POP DUP5 DUP12 DUP10 SUB ADD DUP3 DUP13 ADD MSTORE PUSH2 0x74F4 DUP9 DUP8 PUSH2 0x7243 JUMP JUMPDEST SWAP8 POP DUP1 DUP10 ADD MLOAD SWAP6 POP POP PUSH2 0x260 DUP5 DUP12 DUP10 SUB ADD DUP2 DUP13 ADD MSTORE PUSH2 0x7513 DUP9 DUP8 PUSH2 0x7243 JUMP JUMPDEST SWAP8 POP DUP4 DUP10 ADD MLOAD SWAP6 POP PUSH2 0x280 SWAP5 POP DUP6 DUP6 DUP13 ADD MSTORE DUP3 DUP10 ADD MLOAD SWAP6 POP PUSH2 0x2A0 SWAP4 POP DUP6 DUP5 DUP13 ADD MSTORE DUP2 DUP10 ADD MLOAD SWAP6 POP PUSH2 0x2C0 SWAP3 POP DUP6 DUP4 DUP13 ADD MSTORE DUP1 DUP10 ADD MLOAD DUP8 DUP13 ADD MSTORE POP POP DUP3 DUP8 ADD MLOAD SWAP5 POP PUSH2 0x7564 PUSH2 0x300 DUP11 ADD DUP7 ISZERO ISZERO SWAP1 MSTORE JUMP JUMPDEST SWAP1 DUP7 ADD MLOAD ISZERO ISZERO PUSH2 0x320 DUP10 ADD MSTORE SWAP1 SWAP5 ADD MLOAD SWAP4 POP PUSH2 0x7587 SWAP2 POP POP PUSH2 0x340 DUP6 ADD DUP4 PUSH2 0x727C JUMP JUMPDEST PUSH1 0x20 DUP6 ADD MLOAD SWAP2 POP PUSH1 0x1F NOT DUP1 DUP6 DUP4 SUB ADD PUSH1 0x40 DUP7 ADD MSTORE PUSH2 0x75A5 DUP3 DUP5 PUSH2 0x729C JUMP JUMPDEST SWAP3 POP PUSH1 0x40 DUP7 ADD MLOAD SWAP2 POP DUP1 DUP6 DUP5 SUB ADD PUSH1 0x60 DUP7 ADD MSTORE POP PUSH2 0x308B DUP3 DUP3 PUSH2 0x729C JUMP JUMPDEST PUSH1 0x20 DUP2 ADD PUSH2 0x1EF9 DUP3 DUP5 PUSH2 0x727C JUMP JUMPDEST PUSH1 0x0 PUSH1 0x20 DUP3 DUP5 SUB SLT ISZERO PUSH2 0x75E3 JUMPI PUSH1 0x0 DUP1 REVERT JUMPDEST POP MLOAD SWAP2 SWAP1 POP JUMP JUMPDEST DUP1 MLOAD PUSH2 0x6B17 DUP2 PUSH2 0x6883 JUMP JUMPDEST PUSH1 0x0 PUSH1 0x20 DUP3 DUP5 SUB SLT ISZERO PUSH2 0x7607 JUMPI PUSH1 0x0 DUP1 REVERT JUMPDEST DUP2 MLOAD PUSH2 0x68B5 DUP2 PUSH2 0x6883 JUMP JUMPDEST PUSH32 0x4E487B7100000000000000000000000000000000000000000000000000000000 PUSH1 0x0 MSTORE PUSH1 0x11 PUSH1 0x4 MSTORE PUSH1 0x24 PUSH1 0x0 REVERT JUMPDEST DUP1 DUP3 MUL DUP2 ISZERO DUP3 DUP3 DIV DUP5 EQ OR PUSH2 0x1EF9 JUMPI PUSH2 0x1EF9 PUSH2 0x7612 JUMP JUMPDEST DUP3 DUP2 MSTORE PUSH1 0x40 DUP2 ADD PUSH2 0x68B5 PUSH1 0x20 DUP4 ADD DUP5 PUSH2 0x727C JUMP JUMPDEST DUP1 MLOAD PUSH2 0x6B17 DUP2 PUSH2 0x6B1C JUMP JUMPDEST PUSH1 0x0 PUSH1 0x20 DUP3 DUP5 SUB SLT ISZERO PUSH2 0x7689 JUMPI PUSH1 0x0 DUP1 REVERT JUMPDEST DUP2 MLOAD PUSH2 0x68B5 DUP2 PUSH2 0x6B1C JUMP JUMPDEST DUP1 MLOAD PUSH2 0x6B17 DUP2 PUSH2 0x6AFE JUMP JUMPDEST PUSH1 0x0 PUSH1 0x20 DUP3 DUP5 SUB SLT ISZERO PUSH2 0x76B1 JUMPI PUSH1 0x0 DUP1 REVERT JUMPDEST DUP2 MLOAD PUSH2 0x68B5 DUP2 PUSH2 0x6AFE JUMP JUMPDEST DUP5 DUP2 MSTORE PUSH1 0x80 PUSH1 0x20 DUP3 ADD MSTORE PUSH1 0x0 PUSH2 0x76D5 PUSH1 0x80 DUP4 ADD DUP7 PUSH2 0x70E1 JUMP JUMPDEST PUSH1 0x1 PUSH1 0x1 PUSH1 0xA0 SHL SUB SWAP5 SWAP1 SWAP5 AND PUSH1 0x40 DUP4 ADD MSTORE POP SWAP1 ISZERO ISZERO PUSH1 0x60 SWAP1 SWAP2 ADD MSTORE SWAP3 SWAP2 POP POP JUMP JUMPDEST DUP4 DUP2 MSTORE PUSH1 0x20 DUP2 ADD DUP4 SWAP1 MSTORE PUSH1 0x60 DUP2 ADD PUSH2 0x6FE8 PUSH1 0x40 DUP4 ADD DUP5 PUSH2 0x701F JUMP JUMPDEST PUSH1 0x0 DUP3 PUSH1 0x1F DUP4 ADD SLT PUSH2 0x7722 JUMPI PUSH1 0x0 DUP1 REVERT JUMPDEST DUP2 MLOAD PUSH2 0x7730 PUSH2 0x6A3D DUP3 PUSH2 0x69F6 JUMP JUMPDEST DUP2 DUP2 MSTORE DUP5 PUSH1 0x20 DUP4 DUP7 ADD ADD GT ISZERO PUSH2 0x7745 JUMPI PUSH1 0x0 DUP1 REVERT JUMPDEST PUSH2 0x6FE8 DUP3 PUSH1 0x20 DUP4 ADD PUSH1 0x20 DUP8 ADD PUSH2 0x7091 JUMP JUMPDEST PUSH1 0x0 DUP3 PUSH1 0x1F DUP4 ADD SLT PUSH2 0x7767 JUMPI PUSH1 0x0 DUP1 REVERT JUMPDEST DUP2 MLOAD PUSH1 0x20 PUSH2 0x7777 PUSH2 0x6A3D DUP4 PUSH2 0x6A74 JUMP JUMPDEST DUP3 DUP2 MSTORE PUSH1 0x5 SWAP3 SWAP1 SWAP3 SHL DUP5 ADD DUP2 ADD SWAP2 DUP2 DUP2 ADD SWAP1 DUP7 DUP5 GT ISZERO PUSH2 0x7796 JUMPI PUSH1 0x0 DUP1 REVERT JUMPDEST DUP3 DUP7 ADD JUMPDEST DUP5 DUP2 LT ISZERO PUSH2 0x6AF3 JUMPI DUP1 MLOAD DUP4 MSTORE SWAP2 DUP4 ADD SWAP2 DUP4 ADD PUSH2 0x779A JUMP JUMPDEST PUSH1 0x0 DUP3 PUSH1 0x1F DUP4 ADD SLT PUSH2 0x77C2 JUMPI PUSH1 0x0 DUP1 REVERT JUMPDEST DUP2 MLOAD PUSH1 0x20 PUSH2 0x77D2 PUSH2 0x6A3D DUP4 PUSH2 0x6A74 JUMP JUMPDEST DUP3 DUP2 MSTORE PUSH1 0x5 SWAP3 SWAP1 SWAP3 SHL DUP5 ADD DUP2 ADD SWAP2 DUP2 DUP2 ADD SWAP1 DUP7 DUP5 GT ISZERO PUSH2 0x77F1 JUMPI PUSH1 0x0 DUP1 REVERT JUMPDEST DUP3 DUP7 ADD JUMPDEST DUP5 DUP2 LT ISZERO PUSH2 0x6AF3 JUMPI DUP1 MLOAD PUSH8 0xFFFFFFFFFFFFFFFF DUP1 DUP3 GT ISZERO PUSH2 0x7815 JUMPI PUSH1 0x0 DUP1 REVERT JUMPDEST SWAP1 DUP9 ADD SWAP1 PUSH1 0x1F NOT PUSH1 0xA0 DUP4 DUP13 SUB DUP3 ADD SLT ISZERO PUSH2 0x782E JUMPI PUSH1 0x0 DUP1 REVERT JUMPDEST PUSH2 0x7836 PUSH2 0x68EB JUMP JUMPDEST DUP8 DUP5 ADD MLOAD DUP4 DUP2 GT ISZERO PUSH2 0x7847 JUMPI PUSH1 0x0 DUP1 REVERT JUMPDEST DUP5 ADD PUSH1 0xE0 DUP2 DUP15 SUB DUP5 ADD SLT ISZERO PUSH2 0x785B JUMPI PUSH1 0x0 DUP1 REVERT JUMPDEST PUSH2 0x7863 PUSH2 0x6914 JUMP JUMPDEST SWAP3 POP DUP9 DUP2 ADD MLOAD DUP5 DUP2 GT ISZERO PUSH2 0x7876 JUMPI PUSH1 0x0 DUP1 REVERT JUMPDEST PUSH2 0x7884 DUP15 DUP12 DUP4 DUP6 ADD ADD PUSH2 0x7711 JUMP JUMPDEST DUP5 MSTORE POP PUSH1 0x40 DUP2 ADD MLOAD DUP10 DUP5 ADD MSTORE PUSH1 0x60 DUP2 ADD MLOAD PUSH1 0x40 DUP5 ADD MSTORE PUSH1 0x80 DUP1 DUP3 ADD MLOAD PUSH1 0x60 DUP6 ADD MSTORE PUSH1 0xA0 DUP3 ADD MLOAD DUP2 DUP6 ADD MSTORE PUSH1 0xC0 DUP3 ADD MLOAD PUSH1 0xA0 DUP6 ADD MSTORE PUSH1 0xE0 DUP3 ADD MLOAD DUP6 DUP2 GT ISZERO PUSH2 0x78CA JUMPI PUSH1 0x0 DUP1 REVERT JUMPDEST PUSH2 0x78D8 DUP16 DUP13 DUP4 DUP7 ADD ADD PUSH2 0x7711 JUMP JUMPDEST PUSH1 0xC0 DUP7 ADD MSTORE POP SWAP3 DUP3 MSTORE PUSH1 0x40 DUP6 ADD MLOAD DUP10 DUP4 ADD MSTORE PUSH1 0x60 DUP6 ADD MLOAD SWAP3 DUP5 DUP5 GT ISZERO PUSH2 0x78FD JUMPI PUSH1 0x0 DUP1 REVERT JUMPDEST PUSH2 0x790B DUP15 DUP12 DUP7 DUP10 ADD ADD PUSH2 0x7711 JUMP JUMPDEST PUSH1 0x40 DUP5 ADD MSTORE PUSH2 0x791B DUP2 DUP8 ADD PUSH2 0x766C JUMP JUMPDEST PUSH1 0x60 DUP5 ADD MSTORE PUSH1 0xA0 SWAP6 SWAP1 SWAP6 ADD MLOAD SWAP5 DUP3 ADD SWAP5 SWAP1 SWAP5 MSTORE DUP7 MSTORE POP POP POP SWAP2 DUP4 ADD SWAP2 DUP4 ADD PUSH2 0x77F5 JUMP JUMPDEST PUSH1 0x0 DUP3 PUSH1 0x1F DUP4 ADD SLT PUSH2 0x794F JUMPI PUSH1 0x0 DUP1 REVERT JUMPDEST DUP2 MLOAD PUSH1 0x20 PUSH2 0x795F PUSH2 0x6A3D DUP4 PUSH2 0x6A74 JUMP JUMPDEST DUP3 DUP2 MSTORE PUSH1 0x5 SWAP3 SWAP1 SWAP3 SHL DUP5 ADD DUP2 ADD SWAP2 DUP2 DUP2 ADD SWAP1 DUP7 DUP5 GT ISZERO PUSH2 0x797E JUMPI PUSH1 0x0 DUP1 REVERT JUMPDEST DUP3 DUP7 ADD JUMPDEST DUP5 DUP2 LT ISZERO PUSH2 0x6AF3 JUMPI DUP1 MLOAD PUSH2 0x7995 DUP2 PUSH2 0x6883 JUMP JUMPDEST DUP4 MSTORE SWAP2 DUP4 ADD SWAP2 DUP4 ADD PUSH2 0x7982 JUMP JUMPDEST DUP1 MLOAD PUSH1 0x8 DUP2 LT PUSH2 0x6B17 JUMPI PUSH1 0x0 DUP1 REVERT JUMPDEST PUSH1 0x0 PUSH1 0x20 DUP3 DUP5 SUB SLT ISZERO PUSH2 0x79C3 JUMPI PUSH1 0x0 DUP1 REVERT JUMPDEST DUP2 MLOAD PUSH8 0xFFFFFFFFFFFFFFFF DUP1 DUP3 GT ISZERO PUSH2 0x79DB JUMPI PUSH1 0x0 DUP1 REVERT JUMPDEST SWAP1 DUP4 ADD SWAP1 PUSH2 0x2E0 DUP3 DUP7 SUB SLT ISZERO PUSH2 0x79F0 JUMPI PUSH1 0x0 DUP1 REVERT JUMPDEST PUSH2 0x79F8 PUSH2 0x695B JUMP JUMPDEST PUSH2 0x7A01 DUP4 PUSH2 0x75EA JUMP JUMPDEST DUP2 MSTORE PUSH1 0x20 DUP4 ADD MLOAD PUSH1 0x20 DUP3 ADD MSTORE PUSH1 0x40 DUP4 ADD MLOAD DUP3 DUP2 GT ISZERO PUSH2 0x7A1F JUMPI PUSH1 0x0 DUP1 REVERT JUMPDEST PUSH2 0x7A2B DUP8 DUP3 DUP7 ADD PUSH2 0x7711 JUMP JUMPDEST PUSH1 0x40 DUP4 ADD MSTORE POP PUSH1 0x60 DUP4 ADD MLOAD DUP3 DUP2 GT ISZERO PUSH2 0x7A43 JUMPI PUSH1 0x0 DUP1 REVERT JUMPDEST PUSH2 0x7A4F DUP8 DUP3 DUP7 ADD PUSH2 0x7711 JUMP JUMPDEST PUSH1 0x60 DUP4 ADD MSTORE POP PUSH1 0x80 DUP4 ADD MLOAD PUSH1 0x80 DUP3 ADD MSTORE PUSH1 0xA0 DUP4 ADD MLOAD PUSH1 0xA0 DUP3 ADD MSTORE PUSH1 0xC0 DUP4 ADD MLOAD PUSH1 0xC0 DUP3 ADD MSTORE PUSH1 0xE0 DUP4 ADD MLOAD DUP3 DUP2 GT ISZERO PUSH2 0x7A85 JUMPI PUSH1 0x0 DUP1 REVERT JUMPDEST PUSH2 0x7A91 DUP8 DUP3 DUP7 ADD PUSH2 0x7756 JUMP JUMPDEST PUSH1 0xE0 DUP4 ADD MSTORE POP PUSH2 0x100 DUP4 DUP2 ADD MLOAD SWAP1 DUP3 ADD MSTORE PUSH2 0x120 DUP1 DUP5 ADD MLOAD SWAP1 DUP3 ADD MSTORE PUSH2 0x140 PUSH2 0x7ABB DUP2 DUP6 ADD PUSH2 0x7694 JUMP JUMPDEST SWAP1 DUP3 ADD MSTORE PUSH2 0x160 PUSH2 0x7ACD DUP5 DUP3 ADD PUSH2 0x7694 JUMP JUMPDEST SWAP1 DUP3 ADD MSTORE PUSH2 0x180 DUP4 DUP2 ADD MLOAD SWAP1 DUP3 ADD MSTORE PUSH2 0x1A0 DUP1 DUP5 ADD MLOAD DUP4 DUP2 GT ISZERO PUSH2 0x7AF0 JUMPI PUSH1 0x0 DUP1 REVERT JUMPDEST PUSH2 0x7AFC DUP9 DUP3 DUP8 ADD PUSH2 0x77B1 JUMP JUMPDEST DUP3 DUP5 ADD MSTORE POP POP PUSH2 0x1C0 DUP1 DUP5 ADD MLOAD DUP4 DUP2 GT ISZERO PUSH2 0x7B16 JUMPI PUSH1 0x0 DUP1 REVERT JUMPDEST PUSH2 0x7B22 DUP9 DUP3 DUP8 ADD PUSH2 0x793E JUMP JUMPDEST DUP3 DUP5 ADD MSTORE POP POP PUSH2 0x1E0 DUP1 DUP5 ADD MLOAD DUP4 DUP2 GT ISZERO PUSH2 0x7B3C JUMPI PUSH1 0x0 DUP1 REVERT JUMPDEST PUSH2 0x7B48 DUP9 DUP3 DUP8 ADD PUSH2 0x793E JUMP JUMPDEST SWAP2 DUP4 ADD SWAP2 SWAP1 SWAP2 MSTORE POP PUSH2 0x200 DUP4 DUP2 ADD MLOAD SWAP1 DUP3 ADD MSTORE PUSH2 0x220 DUP1 DUP5 ADD MLOAD SWAP1 DUP3 ADD MSTORE PUSH2 0x240 DUP1 DUP5 ADD MLOAD SWAP1 DUP3 ADD MSTORE PUSH2 0x260 DUP1 DUP5 ADD MLOAD SWAP1 DUP3 ADD MSTORE PUSH2 0x280 SWAP2 POP PUSH2 0x7B8C DUP3 DUP5 ADD PUSH2 0x7694 JUMP JUMPDEST DUP3 DUP3 ADD MSTORE PUSH2 0x2A0 SWAP2 POP PUSH2 0x7BA0 DUP3 DUP5 ADD PUSH2 0x7694 JUMP JUMPDEST DUP3 DUP3 ADD MSTORE PUSH2 0x2C0 SWAP2 POP PUSH2 0x7BB4 DUP3 DUP5 ADD PUSH2 0x79A2 JUMP JUMPDEST SWAP2 DUP2 ADD SWAP2 SWAP1 SWAP2 MSTORE SWAP5 SWAP4 POP POP POP POP JUMP JUMPDEST PUSH1 0x0 PUSH1 0x20 DUP3 DUP5 SUB SLT ISZERO PUSH2 0x7BD5 JUMPI PUSH1 0x0 DUP1 REVERT JUMPDEST DUP2 MLOAD PUSH8 0xFFFFFFFFFFFFFFFF DUP2 GT ISZERO PUSH2 0x7BEC JUMPI PUSH1 0x0 DUP1 REVERT JUMPDEST PUSH2 0x6FE8 DUP5 DUP3 DUP6 ADD PUSH2 0x793E JUMP JUMPDEST PUSH32 0x4E487B7100000000000000000000000000000000000000000000000000000000 PUSH1 0x0 MSTORE PUSH1 0x32 PUSH1 0x4 MSTORE PUSH1 0x24 PUSH1 0x0 REVERT JUMPDEST PUSH1 0x0 PUSH1 0x20 DUP1 DUP4 DUP6 SUB SLT ISZERO PUSH2 0x7C3A JUMPI PUSH1 0x0 DUP1 REVERT JUMPDEST DUP3 MLOAD PUSH8 0xFFFFFFFFFFFFFFFF DUP1 DUP3 GT ISZERO PUSH2 0x7C52 JUMPI PUSH1 0x0 DUP1 REVERT JUMPDEST SWAP1 DUP5 ADD SWAP1 PUSH1 0x60 DUP3 DUP8 SUB SLT ISZERO PUSH2 0x7C66 JUMPI PUSH1 0x0 DUP1 REVERT JUMPDEST PUSH2 0x7C6E PUSH2 0x697F JUMP JUMPDEST DUP3 MLOAD PUSH2 0x7C79 DUP2 PUSH2 0x6883 JUMP JUMPDEST DUP2 MSTORE DUP3 DUP5 ADD MLOAD DUP3 DUP2 GT ISZERO PUSH2 0x7C8C JUMPI PUSH1 0x0 DUP1 REVERT JUMPDEST PUSH2 0x7C98 DUP9 DUP3 DUP7 ADD PUSH2 0x7756 JUMP JUMPDEST DUP6 DUP4 ADD MSTORE POP PUSH1 0x40 DUP1 DUP5 ADD MLOAD DUP4 DUP2 GT ISZERO PUSH2 0x7CB0 JUMPI PUSH1 0x0 DUP1 REVERT JUMPDEST DUP1 DUP6 ADD SWAP5 POP POP DUP8 PUSH1 0x1F DUP6 ADD SLT PUSH2 0x7CC5 JUMPI PUSH1 0x0 DUP1 REVERT JUMPDEST DUP4 MLOAD PUSH2 0x7CD3 PUSH2 0x6A3D DUP3 PUSH2 0x6A74 JUMP JUMPDEST DUP2 DUP2 MSTORE PUSH1 0x5 SWAP2 SWAP1 SWAP2 SHL DUP6 ADD DUP7 ADD SWAP1 DUP7 DUP2 ADD SWAP1 DUP11 DUP4 GT ISZERO PUSH2 0x7CF2 JUMPI PUSH1 0x0 DUP1 REVERT JUMPDEST DUP8 DUP8 ADD JUMPDEST DUP4 DUP2 LT ISZERO PUSH2 0x7D73 JUMPI DUP1 MLOAD DUP8 DUP2 GT ISZERO PUSH2 0x7D0E JUMPI PUSH1 0x0 DUP1 DUP2 REVERT JUMPDEST DUP9 ADD DUP1 DUP14 SUB PUSH1 0x1F NOT ADD DUP7 SGT ISZERO PUSH2 0x7D24 JUMPI PUSH1 0x0 DUP1 DUP2 REVERT JUMPDEST PUSH2 0x7D2C PUSH2 0x69A2 JUMP JUMPDEST DUP11 DUP3 ADD MLOAD PUSH1 0x5 DUP2 LT PUSH2 0x7D3E JUMPI PUSH1 0x0 DUP1 DUP2 REVERT JUMPDEST DUP2 MSTORE DUP2 DUP8 ADD MLOAD DUP10 DUP2 GT ISZERO PUSH2 0x7D52 JUMPI PUSH1 0x0 DUP1 DUP2 REVERT JUMPDEST PUSH2 0x7D60 DUP16 DUP14 DUP4 DUP7 ADD ADD PUSH2 0x7711 JUMP JUMPDEST DUP3 DUP14 ADD MSTORE POP DUP5 MSTORE POP SWAP2 DUP9 ADD SWAP2 DUP9 ADD PUSH2 0x7CF6 JUMP JUMPDEST POP SWAP3 DUP5 ADD SWAP3 SWAP1 SWAP3 MSTORE POP SWAP1 SWAP8 SWAP7 POP POP POP POP POP POP POP JUMP JUMPDEST PUSH1 0x0 PUSH32 0xFFFFFFFFFFFFFFFFFFFFFFFFFFFFFFFFFFFFFFFFFFFFFFFFFFFFFFFFFFFFFFFF DUP3 SUB PUSH2 0x7DB9 JUMPI PUSH2 0x7DB9 PUSH2 0x7612 JUMP JUMPDEST POP PUSH1 0x1 ADD SWAP1 JUMP JUMPDEST PUSH1 0x0 PUSH1 0x20 DUP3 DUP5 SUB SLT ISZERO PUSH2 0x7DD2 JUMPI PUSH1 0x0 DUP1 REVERT JUMPDEST PUSH2 0x1EF6 DUP3 PUSH2 0x79A2 JUMP JUMPDEST PUSH1 0x0 PUSH2 0x1A0 DUP3 MLOAD DUP5 MSTORE PUSH1 0x20 DUP4 ADD MLOAD DUP2 PUSH1 0x20 DUP7 ADD MSTORE PUSH2 0x7DFB DUP3 DUP7 ADD DUP3 PUSH2 0x70B5 JUMP JUMPDEST SWAP2 POP POP PUSH1 0x40 DUP4 ADD MLOAD DUP5 DUP3 SUB PUSH1 0x40 DUP7 ADD MSTORE PUSH2 0x7E15 DUP3 DUP3 PUSH2 0x70B5 JUMP JUMPDEST SWAP2 POP POP PUSH1 0x60 DUP4 ADD MLOAD PUSH1 0x60 DUP6 ADD MSTORE PUSH1 0x80 DUP4 ADD MLOAD PUSH1 0x80 DUP6 ADD MSTORE PUSH1 0xA0 DUP4 ADD MLOAD PUSH1 0xA0 DUP6 ADD MSTORE PUSH1 0xC0 DUP4 ADD MLOAD DUP5 DUP3 SUB PUSH1 0xC0 DUP7 ADD MSTORE PUSH2 0x7E4D DUP3 DUP3 PUSH2 0x70E1 JUMP JUMPDEST SWAP2 POP POP PUSH1 0xE0 DUP4 ADD MLOAD PUSH1 0xE0 DUP6 ADD MSTORE PUSH2 0x100 DUP1 DUP5 ADD MLOAD DUP2 DUP7 ADD MSTORE POP PUSH2 0x120 DUP1 DUP5 ADD MLOAD PUSH2 0x7E7A DUP3 DUP8 ADD DUP3 ISZERO ISZERO SWAP1 MSTORE JUMP JUMPDEST POP POP PUSH2 0x140 DUP4 DUP2 ADD MLOAD ISZERO ISZERO SWAP1 DUP6 ADD MSTORE PUSH2 0x160 DUP1 DUP5 ADD MLOAD SWAP1 DUP6 ADD MSTORE PUSH2 0x180 DUP1 DUP5 ADD MLOAD DUP6 DUP4 SUB DUP3 DUP8 ADD MSTORE PUSH2 0x7EAC DUP4 DUP3 PUSH2 0x711C JUMP JUMPDEST SWAP7 SWAP6 POP POP POP POP POP POP JUMP JUMPDEST DUP3 DUP2 MSTORE PUSH1 0x40 PUSH1 0x20 DUP3 ADD MSTORE PUSH1 0x0 PUSH2 0x6FE8 PUSH1 0x40 DUP4 ADD DUP5 PUSH2 0x7DDB JUMP JUMPDEST PUSH1 0x1 PUSH1 0x1 PUSH1 0xA0 SHL SUB DUP5 AND DUP2 MSTORE DUP3 PUSH1 0x20 DUP3 ADD MSTORE PUSH1 0x60 PUSH1 0x40 DUP3 ADD MSTORE PUSH1 0x0 PUSH2 0x308B PUSH1 0x60 DUP4 ADD DUP5 PUSH2 0x7DDB JUMP JUMPDEST PUSH1 0x0 DUP1 PUSH1 0x40 DUP4 DUP6 SUB SLT ISZERO PUSH2 0x7F0A JUMPI PUSH1 0x0 DUP1 REVERT JUMPDEST DUP3 MLOAD PUSH8 0xFFFFFFFFFFFFFFFF DUP2 GT ISZERO PUSH2 0x7F21 JUMPI PUSH1 0x0 DUP1 REVERT JUMPDEST PUSH2 0x7F2D DUP6 DUP3 DUP7 ADD PUSH2 0x7756 JUMP JUMPDEST SWAP3 POP POP PUSH1 0x20 DUP4 ADD MLOAD SWAP1 POP SWAP3 POP SWAP3 SWAP1 POP JUMP JUMPDEST DUP1 DUP3 ADD DUP1 DUP3 GT ISZERO PUSH2 0x1EF9 JUMPI PUSH2 0x1EF9 PUSH2 0x7612 JUMP JUMPDEST PUSH1 0x0 PUSH1 0x20 DUP3 DUP5 SUB SLT ISZERO PUSH2 0x7F63 JUMPI PUSH1 0x0 DUP1 REVERT JUMPDEST DUP2 MLOAD PUSH8 0xFFFFFFFFFFFFFFFF DUP2 GT ISZERO PUSH2 0x7F7A JUMPI PUSH1 0x0 DUP1 REVERT JUMPDEST PUSH2 0x6FE8 DUP5 DUP3 DUP6 ADD PUSH2 0x7756 JUMP JUMPDEST PUSH1 0x0 PUSH1 0x20 DUP3 DUP5 SUB SLT ISZERO PUSH2 0x7F98 JUMPI PUSH1 0x0 DUP1 REVERT JUMPDEST DUP2 MLOAD PUSH8 0xFFFFFFFFFFFFFFFF DUP2 GT ISZERO PUSH2 0x7FAF JUMPI PUSH1 0x0 DUP1 REVERT JUMPDEST PUSH2 0x6FE8 DUP5 DUP3 DUP6 ADD PUSH2 0x77B1 JUMP JUMPDEST PUSH1 0x0 DUP3 PUSH2 0x7FF1 JUMPI PUSH32 0x4E487B7100000000000000000000000000000000000000000000000000000000 PUSH1 0x0 MSTORE PUSH1 0x12 PUSH1 0x4 MSTORE PUSH1 0x24 PUSH1 0x0 REVERT JUMPDEST POP DIV SWAP1 JUMP JUMPDEST PUSH1 0x20 DUP2 MSTORE PUSH1 0x0 PUSH2 0x1EF6 PUSH1 0x20 DUP4 ADD DUP5 PUSH2 0x7DDB JUMP JUMPDEST DUP5 DUP2 MSTORE PUSH1 0x1 PUSH1 0x1 PUSH1 0xA0 SHL SUB DUP5 AND PUSH1 0x20 DUP3 ADD MSTORE DUP3 PUSH1 0x40 DUP3 ADD MSTORE PUSH1 0x80 PUSH1 0x60 DUP3 ADD MSTORE PUSH1 0x0 PUSH2 0x7EAC PUSH1 0x80 DUP4 ADD DUP5 PUSH2 0x70B5 JUMP JUMPDEST DUP5 DUP2 MSTORE PUSH1 0x1 PUSH1 0x1 PUSH1 0xA0 SHL SUB DUP5 AND PUSH1 0x20 DUP3 ADD MSTORE PUSH1 0x40 DUP2 ADD DUP4 SWAP1 MSTORE PUSH1 0x80 DUP2 ADD PUSH2 0x308B PUSH1 0x60 DUP4 ADD DUP5 PUSH2 0x728C JUMP JUMPDEST PUSH1 0x40 DUP1 DUP3 MSTORE PUSH1 0x10 SWAP1 DUP3 ADD MSTORE PUSH32 0x4572726F722066696C6520737461746500000000000000000000000000000000 PUSH1 0x60 DUP3 ADD MSTORE PUSH1 0x80 DUP2 ADD PUSH2 0x1EF9 PUSH1 0x20 DUP4 ADD DUP5 PUSH2 0x701F JUMP INVALID LOG2 PUSH5 0x6970667358 0x22 SLT KECCAK256 0xE2 0xB1 PUSH6 0xC848257332AD 0x2A CALLCODE SWAP8 0xD3 PUSH32 0x643DFADE9E1C37D81CE226ECE4191AB02AD964736F6C63430008110033000000 "
		},
		"gasEstimates": {
			"creation": {
				"codeDepositCost": "6597000",
				"executionCost": "infinite",
				"totalCost": "infinite"
			},
			"external": {
				"": "186",
				"acceptForTranslator(uint256,uint256[])": "infinite",
				"acceptForVerifer(uint256,uint256[])": "infinite",
				"closeFileState(uint256,uint256)": "infinite",
				"closeTask(uint256)": "infinite",
				"endTransAccept(uint256)": "infinite",
				"endTransVf(uint256)": "infinite",
				"getBalanceOfContract()": "229",
				"getCount()": "infinite",
				"getFileState(uint256,uint256)": "infinite",
				"getIsTransferState(address)": "2582",
				"getPay(address)": "infinite",
				"getTaskInfo(uint256)": "infinite",
				"getTaskState(uint256)": "infinite",
				"newAmphiPass(address)": "26759",
				"newAmphiTrans(address)": "26802",
				"newCalculateUtils(address)": "26825",
				"overTimeTrans(uint256,address)": "infinite",
				"overTimeVf(uint256,address)": "infinite",
				"owner()": "2347",
				"payFine(address)": "infinite",
				"postTask((uint256,string,string,uint256,uint256,uint256,uint256[],uint256,uint256,bool,bool,uint256,((string,uint256,uint256,uint256,uint256,uint256,string),uint256,string,uint8,uint256)[]))": "infinite",
				"receiveTask(uint256,address,uint256,bool,address)": "infinite",
				"renounceOwnership()": "infinite",
				"sumbitTaskTrans(uint256,uint256,string)": "infinite",
				"transderToContract()": "infinite",
				"transferOwnership(address)": "infinite",
				"updateTask(uint256,(uint256,string,string,uint256,uint256,uint256,uint256[],uint256,uint256,bool,bool,uint256,((string,uint256,uint256,uint256,uint256,uint256,string),uint256,string,uint8,uint256)[]))": "infinite",
				"validate(uint256,address,uint256,bool,string)": "infinite",
				"withdraw(uint256)": "infinite",
				"withdrawAll()": "infinite"
			},
			"internal": {
				"_acceptTrans(uint256,uint256[] memory,address)": "infinite",
				"_acceptTransToFileState(uint256,uint256)": "infinite",
				"_acceptVf(uint256,uint256[] memory,address)": "infinite",
				"_acceptVfToFileState(uint256,uint256)": "infinite",
				"_endTransAccept(uint256)": "infinite",
				"_endTransVf(uint256)": "infinite",
				"_isHasNftPass(address)": "infinite",
				"_onNoOnePink(uint256)": "infinite",
				"_overTimeTrans(uint256,address)": "infinite",
				"_overTimeVf(uint256,address)": "infinite",
				"_postTask(struct LibProject.ProParm memory)": "infinite",
				"_receivePass(uint256,address,uint256)": "infinite",
				"_receiveTask(uint256,address,uint256,bool)": "infinite",
				"_returnTaskerByBuyer(uint256,address,uint256)": "infinite",
				"_returnTaskerByVf(uint256,address,uint256)": "infinite",
				"_sumbitTaskTrans(uint256,uint256,string memory,address)": "infinite",
				"_sumbitVfTask(uint256,address,address,uint256,string memory)": "infinite",
				"_updateTask(uint256,struct LibProject.ProParm memory)": "infinite",
				"_updateTaskerStateByTrans(uint256,address,uint256[] memory,enum LibProject.TaskerState)": "infinite",
				"_updateTaskerStateByVf(uint256,address,uint256[] memory,enum LibProject.TaskerState)": "infinite",
				"_validate(uint256,address,uint256,bool,string memory)": "infinite"
			}
		},
		"methodIdentifiers": {
			"acceptForTranslator(uint256,uint256[])": "fa4c6473",
			"acceptForVerifer(uint256,uint256[])": "3bd14e13",
			"closeFileState(uint256,uint256)": "97601efb",
			"closeTask(uint256)": "1201dfc6",
			"endTransAccept(uint256)": "8adc74a5",
			"endTransVf(uint256)": "a55af701",
			"getBalanceOfContract()": "22968885",
			"getCount()": "a87d942c",
			"getFileState(uint256,uint256)": "ad607c72",
			"getIsTransferState(address)": "00a7e49e",
			"getPay(address)": "d3d7bc3b",
			"getTaskInfo(uint256)": "d1a1b999",
			"getTaskState(uint256)": "ffcce776",
			"newAmphiPass(address)": "c5dd0208",
			"newAmphiTrans(address)": "fc2381e1",
			"newCalculateUtils(address)": "da24c822",
			"overTimeTrans(uint256,address)": "5b0ef140",
			"overTimeVf(uint256,address)": "36d61ae0",
			"owner()": "8da5cb5b",
			"payFine(address)": "3edfa229",
			"postTask((uint256,string,string,uint256,uint256,uint256,uint256[],uint256,uint256,bool,bool,uint256,((string,uint256,uint256,uint256,uint256,uint256,string),uint256,string,uint8,uint256)[]))": "ac35cd61",
			"receiveTask(uint256,address,uint256,bool,address)": "627a62f3",
			"renounceOwnership()": "715018a6",
			"sumbitTaskTrans(uint256,uint256,string)": "bb0c38c0",
			"transderToContract()": "460968dd",
			"transferOwnership(address)": "f2fde38b",
			"updateTask(uint256,(uint256,string,string,uint256,uint256,uint256,uint256[],uint256,uint256,bool,bool,uint256,((string,uint256,uint256,uint256,uint256,uint256,string),uint256,string,uint8,uint256)[]))": "09a02f58",
			"validate(uint256,address,uint256,bool,string)": "243634bf",
			"withdraw(uint256)": "2e1a7d4d",
			"withdrawAll()": "853828b6"
		}
	},
	"abi": [
		{
			"inputs": [
				{
					"internalType": "address",
					"name": "_passAddress",
					"type": "address"
				},
				{
					"internalType": "address",
					"name": "_serviceAddress",
					"type": "address"
				},
				{
					"internalType": "address",
					"name": "_utilsAddress",
					"type": "address"
				}
			],
			"stateMutability": "nonpayable",
			"type": "constructor"
		},
		{
			"inputs": [
				{
					"internalType": "string",
					"name": "",
					"type": "string"
				},
				{
					"internalType": "uint256",
					"name": "",
					"type": "uint256"
				}
			],
			"name": "ErrorValue",
			"type": "error"
		},
		{
			"inputs": [
				{
					"internalType": "string",
					"name": "",
					"type": "string"
				},
				{
					"internalType": "enum LibProject.FileState",
					"name": "",
					"type": "uint8"
				}
			],
			"name": "FileException",
			"type": "error"
		},
		{
			"inputs": [
				{
					"internalType": "string",
					"name": "",
					"type": "string"
				}
			],
			"name": "OperationException",
			"type": "error"
		},
		{
			"inputs": [
				{
					"internalType": "string",
					"name": "",
					"type": "string"
				}
			],
			"name": "ParameterException",
			"type": "error"
		},
		{
			"inputs": [
				{
					"internalType": "string",
					"name": "",
					"type": "string"
				}
			],
			"name": "Permissions",
			"type": "error"
		},
		{
			"anonymous": false,
			"inputs": [
				{
					"indexed": true,
					"internalType": "address",
					"name": "previousOwner",
					"type": "address"
				},
				{
					"indexed": true,
					"internalType": "address",
					"name": "newOwner",
					"type": "address"
				}
			],
			"name": "OwnershipTransferred",
			"type": "event"
		},
		{
			"anonymous": false,
			"inputs": [
				{
					"indexed": false,
					"internalType": "uint256",
					"name": "taskIndex",
					"type": "uint256"
				},
				{
					"indexed": false,
					"internalType": "uint256[]",
					"name": "fileIndex",
					"type": "uint256[]"
				},
				{
					"indexed": false,
					"internalType": "address",
					"name": "taskerAddress",
					"type": "address"
				},
				{
					"indexed": false,
					"internalType": "bool",
					"name": "isTrans",
					"type": "bool"
				}
			],
			"name": "acceptTaskEv",
			"type": "event"
		},
		{
			"anonymous": false,
			"inputs": [
				{
					"indexed": false,
					"internalType": "uint256",
					"name": "taskIndex",
					"type": "uint256"
				},
				{
					"indexed": false,
					"internalType": "uint256",
					"name": "fileIndex",
					"type": "uint256"
				},
				{
					"indexed": false,
					"internalType": "address",
					"name": "taskerAddress",
					"type": "address"
				},
				{
					"indexed": false,
					"internalType": "bool",
					"name": "isTrans",
					"type": "bool"
				}
			],
			"name": "acceptTaskEv",
			"type": "event"
		},
		{
			"anonymous": false,
			"inputs": [
				{
					"indexed": false,
					"internalType": "address",
					"name": "from",
					"type": "address"
				},
				{
					"indexed": false,
					"internalType": "address",
					"name": "to",
					"type": "address"
				},
				{
					"indexed": false,
					"internalType": "uint256",
					"name": "money",
					"type": "uint256"
				}
			],
			"name": "payEv",
			"type": "event"
		},
		{
			"anonymous": false,
			"inputs": [
				{
					"indexed": false,
					"internalType": "address",
					"name": "buyer",
					"type": "address"
				},
				{
					"indexed": false,
					"internalType": "uint256",
					"name": "taskIndex",
					"type": "uint256"
				},
				{
					"components": [
						{
							"internalType": "uint256",
							"name": "releaseTime",
							"type": "uint256"
						},
						{
							"internalType": "string",
							"name": "introduce",
							"type": "string"
						},
						{
							"internalType": "string",
							"name": "need",
							"type": "string"
						},
						{
							"internalType": "uint256",
							"name": "deadline",
							"type": "uint256"
						},
						{
							"internalType": "uint256",
							"name": "sourceLanguage",
							"type": "uint256"
						},
						{
							"internalType": "uint256",
							"name": "goalLanguage",
							"type": "uint256"
						},
						{
							"internalType": "uint256[]",
							"name": "preferList",
							"type": "uint256[]"
						},
						{
							"internalType": "uint256",
							"name": "translationType",
							"type": "uint256"
						},
						{
							"internalType": "uint256",
							"name": "workLoad",
							"type": "uint256"
						},
						{
							"internalType": "bool",
							"name": "isNonDisclosure",
							"type": "bool"
						},
						{
							"internalType": "bool",
							"name": "isCustomize",
							"type": "bool"
						},
						{
							"internalType": "uint256",
							"name": "bounty",
							"type": "uint256"
						},
						{
							"components": [
								{
									"components": [
										{
											"internalType": "string",
											"name": "name",
											"type": "string"
										},
										{
											"internalType": "uint256",
											"name": "size",
											"type": "uint256"
										},
										{
											"internalType": "uint256",
											"name": "videoLength",
											"type": "uint256"
										},
										{
											"internalType": "uint256",
											"name": "Page",
											"type": "uint256"
										},
										{
											"internalType": "uint256",
											"name": "words",
											"type": "uint256"
										},
										{
											"internalType": "uint256",
											"name": "fileType",
											"type": "uint256"
										},
										{
											"internalType": "string",
											"name": "path",
											"type": "string"
										}
									],
									"internalType": "struct LibProject.FileInfo",
									"name": "file",
									"type": "tuple"
								},
								{
									"internalType": "uint256",
									"name": "bounty",
									"type": "uint256"
								},
								{
									"internalType": "string",
									"name": "info",
									"type": "string"
								},
								{
									"internalType": "enum LibProject.FileState",
									"name": "state",
									"type": "uint8"
								},
								{
									"internalType": "uint256",
									"name": "lastUpload",
									"type": "uint256"
								}
							],
							"internalType": "struct LibProject.TaskInfo[]",
							"name": "tasks",
							"type": "tuple[]"
						}
					],
					"indexed": false,
					"internalType": "struct LibProject.ProParm",
					"name": "taskInfo",
					"type": "tuple"
				}
			],
			"name": "postProjectEv",
			"type": "event"
		},
		{
			"stateMutability": "payable",
			"type": "fallback"
		},
		{
			"inputs": [
				{
					"internalType": "uint256",
					"name": "_index",
					"type": "uint256"
				},
				{
					"internalType": "uint256[]",
					"name": "_fileIndex",
					"type": "uint256[]"
				}
			],
			"name": "acceptForTranslator",
			"outputs": [],
			"stateMutability": "nonpayable",
			"type": "function"
		},
		{
			"inputs": [
				{
					"internalType": "uint256",
					"name": "_index",
					"type": "uint256"
				},
				{
					"internalType": "uint256[]",
					"name": "_fileIndex",
					"type": "uint256[]"
				}
			],
			"name": "acceptForVerifer",
			"outputs": [],
			"stateMutability": "nonpayable",
			"type": "function"
		},
		{
			"inputs": [
				{
					"internalType": "uint256",
					"name": "_index",
					"type": "uint256"
				},
				{
					"internalType": "uint256",
					"name": "_fileIndex",
					"type": "uint256"
				}
			],
			"name": "closeFileState",
			"outputs": [],
			"stateMutability": "nonpayable",
			"type": "function"
		},
		{
			"inputs": [
				{
					"internalType": "uint256",
					"name": "_index",
					"type": "uint256"
				}
			],
			"name": "closeTask",
			"outputs": [],
			"stateMutability": "nonpayable",
			"type": "function"
		},
		{
			"inputs": [
				{
					"internalType": "uint256",
					"name": "_index",
					"type": "uint256"
				}
			],
			"name": "endTransAccept",
			"outputs": [],
			"stateMutability": "nonpayable",
			"type": "function"
		},
		{
			"inputs": [
				{
					"internalType": "uint256",
					"name": "_index",
					"type": "uint256"
				}
			],
			"name": "endTransVf",
			"outputs": [],
			"stateMutability": "nonpayable",
			"type": "function"
		},
		{
			"inputs": [],
			"name": "getBalanceOfContract",
			"outputs": [
				{
					"internalType": "uint256",
					"name": "",
					"type": "uint256"
				}
			],
			"stateMutability": "view",
			"type": "function"
		},
		{
			"inputs": [],
			"name": "getCount",
			"outputs": [
				{
					"internalType": "uint256",
					"name": "",
					"type": "uint256"
				}
			],
			"stateMutability": "view",
			"type": "function"
		},
		{
			"inputs": [
				{
					"internalType": "uint256",
					"name": "_index",
					"type": "uint256"
				},
				{
					"internalType": "uint256",
					"name": "_fileIndex",
					"type": "uint256"
				}
			],
			"name": "getFileState",
			"outputs": [
				{
					"internalType": "enum LibProject.FileState",
					"name": "",
					"type": "uint8"
				}
			],
			"stateMutability": "view",
			"type": "function"
		},
		{
			"inputs": [
				{
					"internalType": "address",
					"name": "_address",
					"type": "address"
				}
			],
			"name": "getIsTransferState",
			"outputs": [
				{
					"internalType": "bool",
					"name": "",
					"type": "bool"
				}
			],
			"stateMutability": "view",
			"type": "function"
		},
		{
			"inputs": [
				{
					"internalType": "address",
					"name": "_address",
					"type": "address"
				}
			],
			"name": "getPay",
			"outputs": [
				{
					"internalType": "uint256",
					"name": "",
					"type": "uint256"
				}
			],
			"stateMutability": "view",
			"type": "function"
		},
		{
			"inputs": [
				{
					"internalType": "uint256",
					"name": "_index",
					"type": "uint256"
				}
			],
			"name": "getTaskInfo",
			"outputs": [
				{
					"components": [
						{
							"components": [
								{
									"internalType": "address",
									"name": "buyer",
									"type": "address"
								},
								{
									"internalType": "uint256",
									"name": "releaseTime",
									"type": "uint256"
								},
								{
									"internalType": "string",
									"name": "introduce",
									"type": "string"
								},
								{
									"internalType": "string",
									"name": "need",
									"type": "string"
								},
								{
									"internalType": "uint256",
									"name": "deadline",
									"type": "uint256"
								},
								{
									"internalType": "uint256",
									"name": "sourceLanguage",
									"type": "uint256"
								},
								{
									"internalType": "uint256",
									"name": "goalLanguage",
									"type": "uint256"
								},
								{
									"internalType": "uint256[]",
									"name": "preferList",
									"type": "uint256[]"
								},
								{
									"internalType": "uint256",
									"name": "translationType",
									"type": "uint256"
								},
								{
									"internalType": "uint256",
									"name": "workLoad",
									"type": "uint256"
								},
								{
									"internalType": "bool",
									"name": "isNonDisclosure",
									"type": "bool"
								},
								{
									"internalType": "bool",
									"name": "isCustomize",
									"type": "bool"
								},
								{
									"internalType": "uint256",
									"name": "bounty",
									"type": "uint256"
								},
								{
									"components": [
										{
											"components": [
												{
													"internalType": "string",
													"name": "name",
													"type": "string"
												},
												{
													"internalType": "uint256",
													"name": "size",
													"type": "uint256"
												},
												{
													"internalType": "uint256",
													"name": "videoLength",
													"type": "uint256"
												},
												{
													"internalType": "uint256",
													"name": "Page",
													"type": "uint256"
												},
												{
													"internalType": "uint256",
													"name": "words",
													"type": "uint256"
												},
												{
													"internalType": "uint256",
													"name": "fileType",
													"type": "uint256"
												},
												{
													"internalType": "string",
													"name": "path",
													"type": "string"
												}
											],
											"internalType": "struct LibProject.FileInfo",
											"name": "file",
											"type": "tuple"
										},
										{
											"internalType": "uint256",
											"name": "bounty",
											"type": "uint256"
										},
										{
											"internalType": "string",
											"name": "info",
											"type": "string"
										},
										{
											"internalType": "enum LibProject.FileState",
											"name": "state",
											"type": "uint8"
										},
										{
											"internalType": "uint256",
											"name": "lastUpload",
											"type": "uint256"
										}
									],
									"internalType": "struct LibProject.TaskInfo[]",
									"name": "tasks",
									"type": "tuple[]"
								},
								{
									"internalType": "address[]",
									"name": "translators",
									"type": "address[]"
								},
								{
									"internalType": "address[]",
									"name": "verifiers",
									"type": "address[]"
								},
								{
									"internalType": "uint256",
									"name": "maxT",
									"type": "uint256"
								},
								{
									"internalType": "uint256",
									"name": "maxV",
									"type": "uint256"
								},
								{
									"internalType": "uint256",
									"name": "numberT",
									"type": "uint256"
								},
								{
									"internalType": "uint256",
									"name": "numberV",
									"type": "uint256"
								},
								{
									"internalType": "bool",
									"name": "isTransActive",
									"type": "bool"
								},
								{
									"internalType": "bool",
									"name": "isVerActive",
									"type": "bool"
								},
								{
									"internalType": "enum LibProject.ProjectState",
									"name": "state",
									"type": "uint8"
								}
							],
							"internalType": "struct LibProject.TranslationPro",
							"name": "pro",
							"type": "tuple"
						},
						{
							"components": [
								{
									"internalType": "address",
									"name": "taskerAddress",
									"type": "address"
								},
								{
									"internalType": "uint256[]",
									"name": "taskIndex",
									"type": "uint256[]"
								},
								{
									"components": [
										{
											"internalType": "enum LibProject.TaskerState",
											"name": "state",
											"type": "uint8"
										},
										{
											"internalType": "string",
											"name": "file",
											"type": "string"
										}
									],
									"internalType": "struct LibProject.FileIndexInfo[]",
									"name": "taskerinfo",
									"type": "tuple[]"
								}
							],
							"internalType": "struct LibProject.ReturnTasker[]",
							"name": "transInfo",
							"type": "tuple[]"
						},
						{
							"components": [
								{
									"internalType": "address",
									"name": "taskerAddress",
									"type": "address"
								},
								{
									"internalType": "uint256[]",
									"name": "taskIndex",
									"type": "uint256[]"
								},
								{
									"components": [
										{
											"internalType": "enum LibProject.TaskerState",
											"name": "state",
											"type": "uint8"
										},
										{
											"internalType": "string",
											"name": "file",
											"type": "string"
										}
									],
									"internalType": "struct LibProject.FileIndexInfo[]",
									"name": "taskerinfo",
									"type": "tuple[]"
								}
							],
							"internalType": "struct LibProject.ReturnTasker[]",
							"name": "vfInfo",
							"type": "tuple[]"
						}
					],
					"internalType": "struct LibProject.ReturnTask",
					"name": "",
					"type": "tuple"
				}
			],
			"stateMutability": "view",
			"type": "function"
		},
		{
			"inputs": [
				{
					"internalType": "uint256",
					"name": "_index",
					"type": "uint256"
				}
			],
			"name": "getTaskState",
			"outputs": [
				{
					"internalType": "enum LibProject.ProjectState",
					"name": "",
					"type": "uint8"
				}
			],
			"stateMutability": "view",
			"type": "function"
		},
		{
			"inputs": [
				{
					"internalType": "address",
					"name": "_newAddress",
					"type": "address"
				}
			],
			"name": "newAmphiPass",
			"outputs": [],
			"stateMutability": "nonpayable",
			"type": "function"
		},
		{
			"inputs": [
				{
					"internalType": "address",
					"name": "_newAddress",
					"type": "address"
				}
			],
			"name": "newAmphiTrans",
			"outputs": [],
			"stateMutability": "nonpayable",
			"type": "function"
		},
		{
			"inputs": [
				{
					"internalType": "address",
					"name": "_newAddress",
					"type": "address"
				}
			],
			"name": "newCalculateUtils",
			"outputs": [],
			"stateMutability": "nonpayable",
			"type": "function"
		},
		{
			"inputs": [
				{
					"internalType": "uint256",
					"name": "_index",
					"type": "uint256"
				},
				{
					"internalType": "address",
					"name": "_tasker",
					"type": "address"
				}
			],
			"name": "overTimeTrans",
			"outputs": [
				{
					"internalType": "uint256",
					"name": "",
					"type": "uint256"
				}
			],
			"stateMutability": "nonpayable",
			"type": "function"
		},
		{
			"inputs": [
				{
					"internalType": "uint256",
					"name": "_index",
					"type": "uint256"
				},
				{
					"internalType": "address",
					"name": "_tasker",
					"type": "address"
				}
			],
			"name": "overTimeVf",
			"outputs": [
				{
					"internalType": "uint256",
					"name": "",
					"type": "uint256"
				}
			],
			"stateMutability": "nonpayable",
			"type": "function"
		},
		{
			"inputs": [],
			"name": "owner",
			"outputs": [
				{
					"internalType": "address",
					"name": "",
					"type": "address"
				}
			],
			"stateMutability": "view",
			"type": "function"
		},
		{
			"inputs": [
				{
					"internalType": "address",
					"name": "_to",
					"type": "address"
				}
			],
			"name": "payFine",
			"outputs": [],
			"stateMutability": "payable",
			"type": "function"
		},
		{
			"inputs": [
				{
					"components": [
						{
							"internalType": "uint256",
							"name": "releaseTime",
							"type": "uint256"
						},
						{
							"internalType": "string",
							"name": "introduce",
							"type": "string"
						},
						{
							"internalType": "string",
							"name": "need",
							"type": "string"
						},
						{
							"internalType": "uint256",
							"name": "deadline",
							"type": "uint256"
						},
						{
							"internalType": "uint256",
							"name": "sourceLanguage",
							"type": "uint256"
						},
						{
							"internalType": "uint256",
							"name": "goalLanguage",
							"type": "uint256"
						},
						{
							"internalType": "uint256[]",
							"name": "preferList",
							"type": "uint256[]"
						},
						{
							"internalType": "uint256",
							"name": "translationType",
							"type": "uint256"
						},
						{
							"internalType": "uint256",
							"name": "workLoad",
							"type": "uint256"
						},
						{
							"internalType": "bool",
							"name": "isNonDisclosure",
							"type": "bool"
						},
						{
							"internalType": "bool",
							"name": "isCustomize",
							"type": "bool"
						},
						{
							"internalType": "uint256",
							"name": "bounty",
							"type": "uint256"
						},
						{
							"components": [
								{
									"components": [
										{
											"internalType": "string",
											"name": "name",
											"type": "string"
										},
										{
											"internalType": "uint256",
											"name": "size",
											"type": "uint256"
										},
										{
											"internalType": "uint256",
											"name": "videoLength",
											"type": "uint256"
										},
										{
											"internalType": "uint256",
											"name": "Page",
											"type": "uint256"
										},
										{
											"internalType": "uint256",
											"name": "words",
											"type": "uint256"
										},
										{
											"internalType": "uint256",
											"name": "fileType",
											"type": "uint256"
										},
										{
											"internalType": "string",
											"name": "path",
											"type": "string"
										}
									],
									"internalType": "struct LibProject.FileInfo",
									"name": "file",
									"type": "tuple"
								},
								{
									"internalType": "uint256",
									"name": "bounty",
									"type": "uint256"
								},
								{
									"internalType": "string",
									"name": "info",
									"type": "string"
								},
								{
									"internalType": "enum LibProject.FileState",
									"name": "state",
									"type": "uint8"
								},
								{
									"internalType": "uint256",
									"name": "lastUpload",
									"type": "uint256"
								}
							],
							"internalType": "struct LibProject.TaskInfo[]",
							"name": "tasks",
							"type": "tuple[]"
						}
					],
					"internalType": "struct LibProject.ProParm",
					"name": "_t",
					"type": "tuple"
				}
			],
			"name": "postTask",
			"outputs": [
				{
					"internalType": "uint256",
					"name": "_index",
					"type": "uint256"
				}
			],
			"stateMutability": "payable",
			"type": "function"
		},
		{
			"inputs": [
				{
					"internalType": "uint256",
					"name": "_index",
					"type": "uint256"
				},
				{
					"internalType": "address",
					"name": "_taskerIndex",
					"type": "address"
				},
				{
					"internalType": "uint256",
					"name": "_fileIndex",
					"type": "uint256"
				},
				{
					"internalType": "bool",
					"name": "_isPass",
					"type": "bool"
				},
				{
					"internalType": "address",
					"name": "_transAddress",
					"type": "address"
				}
			],
			"name": "receiveTask",
			"outputs": [],
			"stateMutability": "payable",
			"type": "function"
		},
		{
			"inputs": [],
			"name": "renounceOwnership",
			"outputs": [],
			"stateMutability": "nonpayable",
			"type": "function"
		},
		{
			"inputs": [
				{
					"internalType": "uint256",
					"name": "_index",
					"type": "uint256"
				},
				{
					"internalType": "uint256",
					"name": "_fileIndex",
					"type": "uint256"
				},
				{
					"internalType": "string",
					"name": "_file",
					"type": "string"
				}
			],
			"name": "sumbitTaskTrans",
			"outputs": [],
			"stateMutability": "nonpayable",
			"type": "function"
		},
		{
			"inputs": [],
			"name": "transderToContract",
			"outputs": [],
			"stateMutability": "payable",
			"type": "function"
		},
		{
			"inputs": [
				{
					"internalType": "address",
					"name": "newOwner",
					"type": "address"
				}
			],
			"name": "transferOwnership",
			"outputs": [],
			"stateMutability": "nonpayable",
			"type": "function"
		},
		{
			"inputs": [
				{
					"internalType": "uint256",
					"name": "_index",
					"type": "uint256"
				},
				{
					"components": [
						{
							"internalType": "uint256",
							"name": "releaseTime",
							"type": "uint256"
						},
						{
							"internalType": "string",
							"name": "introduce",
							"type": "string"
						},
						{
							"internalType": "string",
							"name": "need",
							"type": "string"
						},
						{
							"internalType": "uint256",
							"name": "deadline",
							"type": "uint256"
						},
						{
							"internalType": "uint256",
							"name": "sourceLanguage",
							"type": "uint256"
						},
						{
							"internalType": "uint256",
							"name": "goalLanguage",
							"type": "uint256"
						},
						{
							"internalType": "uint256[]",
							"name": "preferList",
							"type": "uint256[]"
						},
						{
							"internalType": "uint256",
							"name": "translationType",
							"type": "uint256"
						},
						{
							"internalType": "uint256",
							"name": "workLoad",
							"type": "uint256"
						},
						{
							"internalType": "bool",
							"name": "isNonDisclosure",
							"type": "bool"
						},
						{
							"internalType": "bool",
							"name": "isCustomize",
							"type": "bool"
						},
						{
							"internalType": "uint256",
							"name": "bounty",
							"type": "uint256"
						},
						{
							"components": [
								{
									"components": [
										{
											"internalType": "string",
											"name": "name",
											"type": "string"
										},
										{
											"internalType": "uint256",
											"name": "size",
											"type": "uint256"
										},
										{
											"internalType": "uint256",
											"name": "videoLength",
											"type": "uint256"
										},
										{
											"internalType": "uint256",
											"name": "Page",
											"type": "uint256"
										},
										{
											"internalType": "uint256",
											"name": "words",
											"type": "uint256"
										},
										{
											"internalType": "uint256",
											"name": "fileType",
											"type": "uint256"
										},
										{
											"internalType": "string",
											"name": "path",
											"type": "string"
										}
									],
									"internalType": "struct LibProject.FileInfo",
									"name": "file",
									"type": "tuple"
								},
								{
									"internalType": "uint256",
									"name": "bounty",
									"type": "uint256"
								},
								{
									"internalType": "string",
									"name": "info",
									"type": "string"
								},
								{
									"internalType": "enum LibProject.FileState",
									"name": "state",
									"type": "uint8"
								},
								{
									"internalType": "uint256",
									"name": "lastUpload",
									"type": "uint256"
								}
							],
							"internalType": "struct LibProject.TaskInfo[]",
							"name": "tasks",
							"type": "tuple[]"
						}
					],
					"internalType": "struct LibProject.ProParm",
					"name": "_t",
					"type": "tuple"
				}
			],
			"name": "updateTask",
			"outputs": [],
			"stateMutability": "payable",
			"type": "function"
		},
		{
			"inputs": [
				{
					"internalType": "uint256",
					"name": "_index",
					"type": "uint256"
				},
				{
					"internalType": "address",
					"name": "_traner",
					"type": "address"
				},
				{
					"internalType": "uint256",
					"name": "_fileIndex",
					"type": "uint256"
				},
				{
					"internalType": "bool",
					"name": "_isPass",
					"type": "bool"
				},
				{
					"internalType": "string",
					"name": "_file",
					"type": "string"
				}
			],
			"name": "validate",
			"outputs": [],
			"stateMutability": "nonpayable",
			"type": "function"
		},
		{
			"inputs": [
				{
					"internalType": "uint256",
					"name": "_money",
					"type": "uint256"
				}
			],
			"name": "withdraw",
			"outputs": [],
			"stateMutability": "nonpayable",
			"type": "function"
		},
		{
			"inputs": [],
			"name": "withdrawAll",
			"outputs": [],
			"stateMutability": "nonpayable",
			"type": "function"
		},
		{
			"stateMutability": "payable",
			"type": "receive"
		}
	]
}