{
	"data": {
		"bytecode": {
			"linkReferences": {},
			"object": "60806040523480156200001157600080fd5b506040516200611c3803806200611c8339810160408190526200003491620000b5565b6200003f3362000065565b600180546001600160a01b0319166001600160a01b0392909216919091179055620000e7565b600080546001600160a01b038381166001600160a01b0319831681178455604051919092169283917f8be0079c531659141344cd1fd0a4f28419497f9722a3daafe3b4186f6b6457e09190a35050565b600060208284031215620000c857600080fd5b81516001600160a01b0381168114620000e057600080fd5b9392505050565b61602580620000f76000396000f3fe608060405234801561001057600080fd5b506004361061014d5760003560e01c8063710b7b27116100c3578063a15d194c1161007c578063a15d194c14610301578063a55af70114610314578063a723213c14610327578063ad5f7ab01461033a578063f2fde38b1461034d578063f8bc2fd71461036057600080fd5b8063710b7b2714610277578063715018a61461028a578063787a8aa21461029257806382e53b6d146102b25780638adc74a5146102c55780638da5cb5b146102e657600080fd5b806332c22bba1161011557806332c22bba146101c657806336d61ae0146102035780634aa86ded1461022b57806357840da61461023e5780635b0ef14014610251578063655f05d31461026457600080fd5b806308dc21cf146101525780631201dfc614610178578063172372c21461018d5780631c1b8772146101a05780632661f75c146101b3575b600080fd5b6101656101603660046154bb565b610373565b6040519081526020015b60405180910390f35b61018b610186366004615464565b610916565b005b61018b61019b366004615079565b6109e5565b61018b6101ae366004615038565b610ad2565b6101656101c1366004615413565b610b31565b6101f36101d4366004615038565b6001600160a01b031660009081526004602052604090205460ff161590565b604051901515815260200161016f565b610216610211366004615496565b610c3f565b6040805192835260208301919091520161016f565b61018b610239366004615569565b61102b565b61018b61024c366004615079565b6116c3565b61021661025f366004615496565b6117a8565b61018b6102723660046156eb565b611ae1565b61018b6102853660046155c3565b611dfd565b61018b611ed1565b6102a56102a0366004615601565b611ee5565b60405161016f9190615aa5565b61018b6102c0366004615623565b612072565b6102d86102d3366004615464565b612128565b60405161016f9291906159fc565b6000546040516001600160a01b03909116815260200161016f565b61018b61030f366004615569565b612a93565b6102d8610322366004615464565b61310d565b61018b6103353660046156eb565b613b07565b61018b610348366004615038565b613e16565b61018b61035b366004615038565b613e40565b61018b61036e366004615651565b613eb6565b6002546000906001600160a01b031633146103aa5760405163048e2d4960e41b81526004016103a190615a4c565b60405180910390fd5b600154600380546001600160a01b0319166001600160a01b03909216919091179055831561071b576003805460405163033e2e1160e31b81526001600160a01b03909116916319f1708891610407918c918c918b91600401615b0f565b600060405180830381600087803b15801561042157600080fd5b505af1158015610435573d6000803e3d6000fd5b50505050600080516020615fd0833981519152888887600360013360405161046296959493929190615b39565b60405180910390a16003546040516321d90a2760e01b8152600481018a90526001600160a01b03898116602483015260009216906321d90a279060440160206040518083038186803b1580156104b757600080fd5b505afa1580156104cb573d6000803e3d6000fd5b505050506040513d601f19601f820116820180604052508101906104ef919061547d565b11610515576001600160a01b0387166000908152600460205260409020805460ff191690555b60035460405163060b6d0360e51b8152600481018a90526001600160a01b0389811660248301529091169063c16da06090604401600060405180830381600087803b15801561056357600080fd5b505af1158015610577573d6000803e3d6000fd5b5050505061058788868589613b07565b600354604051637c34eb8560e01b8152600481018a90526000916001600160a01b031690637c34eb859060240160206040518083038186803b1580156105cc57600080fd5b505afa1580156105e0573d6000803e3d6000fd5b505050506040513d601f19601f8201168201806040525081019061060491906153d9565b905080156106965760035460405163e1ca7ca760e01b8152600481018b9052602481018890526001600160a01b039091169063e1ca7ca79060440160206040518083038186803b15801561065757600080fd5b505afa15801561066b573d6000803e3d6000fd5b505050506040513d601f19601f8201168201806040525081019061068f919061547d565b9150610715565b60035460405163374b9cc160e11b8152600481018b90526001600160a01b0390911690636e9739829060240160206040518083038186803b1580156106da57600080fd5b505afa1580156106ee573d6000803e3d6000fd5b505050506040513d601f19601f82011682018060405250810190610712919061547d565b91505b5061090b565b60035460405163033e2e1160e31b81526001600160a01b03909116906319f1708890610752908b908b908a90600290600401615b0f565b600060405180830381600087803b15801561076c57600080fd5b505af1158015610780573d6000803e3d6000fd5b50505050600080516020615fd083398151915288888760026001336040516107ad96959493929190615b39565b60405180910390a16003546040516307e8afd360e21b81526001600160a01b0390911690631fa2bf4c906107ea908b908990600590600401615cac565b600060405180830381600087803b15801561080457600080fd5b505af1158015610818573d6000803e3d6000fd5b50505050600080516020615f7083398151915288866005336040516108409493929190615cc7565b60405180910390a150604080516060810182526001600160a01b038881168252602080830186815283850186905260008c8152600583528581208a82528352948520845181546001600160a01b03191694169390931783555180516108ab9260018501920190614b9f565b50604082015180516108c7916002840191602090910190614b9f565b509050507f172d6c6e249760b8e15752ff2f2d6393b1bcae621075bc7ec0f30b0d1f8c04b18886898686604051610902959493929190615c61565b60405180910390a15b979650505050505050565b6002546001600160a01b031633146109415760405163048e2d4960e41b81526004016103a190615a4c565b600154600380546001600160a01b0319166001600160a01b0390921691821790556040516317e925d760e01b81526317e925d790610986908490600690600401615c07565b600060405180830381600087803b1580156109a057600080fd5b505af11580156109b4573d6000803e3d6000fd5b50505050600080516020615f90833981519152816006336040516109da93929190615c1b565b60405180910390a150565b6002546001600160a01b03163314610a105760405163048e2d4960e41b81526004016103a190615a4c565b600154600380546001600160a01b0319166001600160a01b03928316908117909155604051630b91b96160e11b81529184166004830152602482018390529063172372c290604401600060405180830381600087803b158015610a7257600080fd5b505af1158015610a86573d6000803e3d6000fd5b5050604080516001600160a01b0386168152602081018590527fc16a526f30e4a8a0c961612a86dd4f0d47d133361b7c070fbd47abe6862917ba93500190505b60405180910390a15050565b6002546001600160a01b03163314610afd5760405163048e2d4960e41b81526004016103a190615a4c565b6001546001600160a01b03828116911614610b2e57600180546001600160a01b0319166001600160a01b0383161790555b50565b6002546000906001600160a01b03163314610b5f5760405163048e2d4960e41b81526004016103a190615a4c565b600154600380546001600160a01b0319166001600160a01b03909216918217905560405163a74deb9b60e01b81526000919063a74deb9b90610ba79087908790600401615a7b565b602060405180830381600087803b158015610bc157600080fd5b505af1158015610bd5573d6000803e3d6000fd5b505050506040513d601f19601f82011682018060405250810190610bf9919061547d565b90507f9096640c11bd5636ced741c9725e5ff774b334455c80e15491f15bb3af0bc265838286604051610c2e939291906159cc565b60405180910390a190505b92915050565b60025460009081906001600160a01b03163314610c6f5760405163048e2d4960e41b81526004016103a190615a4c565b600154600380546001600160a01b0319166001600160a01b03928316908117909155604051638b3f3a6f60e01b8152600481018790529185166024830152600060448301819052606092909190638b3f3a6f9060640160006040518083038186803b158015610cdd57600080fd5b505afa158015610cf1573d6000803e3d6000fd5b505050506040513d6000823e601f3d908101601f19168201604052610d19919081019061533a565b81519193509150610d3257600080935093505050611024565b60005b8251811015610e225760035483516001600160a01b0390911690636c4319049089908990879086908110610d6b57610d6b615f13565b602002602001015160046040518563ffffffff1660e01b8152600401610d949493929190615b0f565b600060405180830381600087803b158015610dae57600080fd5b505af1158015610dc2573d6000803e3d6000fd5b50505050600080516020615fd08339815191528787858481518110610de957610de9615f13565b60200260200101516004600033604051610e0896959493929190615b39565b60405180910390a180610e1a81615ecc565b915050610d35565b50600354604051637c34eb8560e01b8152600481018890526000916001600160a01b031690637c34eb859060240160206040518083038186803b158015610e6857600080fd5b505afa158015610e7c573d6000803e3d6000fd5b505050506040513d601f19601f82011682018060405250810190610ea091906153d9565b15610f7e5760005b8351811015610f785760035484516001600160a01b039091169063e1ca7ca7908a90879085908110610edc57610edc615f13565b60200260200101516040518363ffffffff1660e01b8152600401610f0a929190918252602082015260400190565b60206040518083038186803b158015610f2257600080fd5b505afa158015610f36573d6000803e3d6000fd5b505050506040513d601f19601f82011682018060405250810190610f5a919061547d565b610f649083615e2b565b915080610f7081615ecc565b915050610ea8565b50610ffd565b60035460405163374b9cc160e11b8152600481018990526001600160a01b0390911690636e9739829060240160206040518083038186803b158015610fc257600080fd5b505afa158015610fd6573d6000803e3d6000fd5b505050506040513d601f19601f82011682018060405250810190610ffa919061547d565b90505b6001600160a01b0386166000908152600460205260409020805460ff191690559093509150505b9250929050565b6002546001600160a01b031633146110565760405163048e2d4960e41b81526004016103a190615a4c565b600154600380546001600160a01b0319166001600160a01b0392831690811790915560405163193620e760e01b81526004810186905291831660248301529063193620e79060440160206040518083038186803b1580156110b657600080fd5b505afa1580156110ca573d6000803e3d6000fd5b505050506040513d601f19601f820116820180604052508101906110ee919061547d565b61117c576003546040516318e9cb6760e11b8152600481018590526001600160a01b038381166024830152909116906331d396ce90604401600060405180830381600087803b15801561114057600080fd5b505af1158015611154573d6000803e3d6000fd5b5050506001600160a01b0382166000908152600460205260409020805460ff19166001179055505b60005b82518110156112df576111ac8484838151811061119e5761119e615f13565b6020026020010151846143bc565b60035483516001600160a01b039091169063271ff03f90869085908790869081106111d9576111d9615f13565b60200260200101516040518463ffffffff1660e01b81526004016111ff93929190615af0565b600060405180830381600087803b15801561121957600080fd5b505af115801561122d573d6000803e3d6000fd5b505060035485516001600160a01b03909116925063ce0980549150869086908590811061125c5761125c615f13565b60209081029190910101516040516001600160e01b031960e085901b168152600481019290925260248201526001600160a01b0385166044820152606401600060405180830381600087803b1580156112b457600080fd5b505af11580156112c8573d6000803e3d6000fd5b5050505080806112d790615ecc565b91505061117f565b50600354825160405162fbe24760e81b81526004810186905260248101919091526001600160a01b039091169063fbe2470090604401600060405180830381600087803b15801561132f57600080fd5b505af1158015611343573d6000803e3d6000fd5b5050600354845160405163a608963960e01b81526001600160a01b03909216935063a6089639925061137b9187918691600401615af0565b600060405180830381600087803b15801561139557600080fd5b505af11580156113a9573d6000803e3d6000fd5b5050600354604051638a9a9ff360e01b815260048101879052600160248201526001600160a01b039091169250638a9a9ff3915060440160206040518083038186803b1580156113f857600080fd5b505afa15801561140c573d6000803e3d6000fd5b505050506040513d601f19601f8201168201806040525081019061143091906153d9565b15611680576003546040516363e3ccad60e01b815260048101859052600060248201526001600160a01b03909116906363e3ccad90604401600060405180830381600087803b15801561148257600080fd5b505af1158015611496573d6000803e3d6000fd5b505050507f6505631a30f6259a8bbf6422cdc3bd467ddc256b547dad05c5d84abc34abfa18836000836040516114ce93929190615be8565b60405180910390a1600354604051638a9a9ff360e01b815260048101859052600060248201526001600160a01b0390911690638a9a9ff39060440160206040518083038186803b15801561152157600080fd5b505afa158015611535573d6000803e3d6000fd5b505050506040513d601f19601f8201168201806040525081019061155991906153d9565b156115f057600380546040516317e925d760e01b81526001600160a01b03909116916317e925d79161158f918791600401615c07565b600060405180830381600087803b1580156115a957600080fd5b505af11580156115bd573d6000803e3d6000fd5b50505050600080516020615f90833981519152836003836040516115e393929190615c1b565b60405180910390a1611680565b6003546040516317e925d760e01b81526001600160a01b03909116906317e925d790611623908690600290600401615c07565b600060405180830381600087803b15801561163d57600080fd5b505af1158015611651573d6000803e3d6000fd5b50505050600080516020615f908339815191528360028360405161167793929190615c1b565b60405180910390a15b7f8e913351aa76002e572cc432b46556976f6e10285b52f94909124ea8ebd0b79583838360016040516116b69493929190615bae565b60405180910390a1505050565b6002546001600160a01b031633146116ee5760405163048e2d4960e41b81526004016103a190615a4c565b600154600380546001600160a01b0319166001600160a01b03928316908117909155604051632bc206d360e11b8152918416600483015260248201839052906357840da690604401600060405180830381600087803b15801561175057600080fd5b505af1158015611764573d6000803e3d6000fd5b5050604080516001600160a01b0386168152602081018590527fcacdaae87fab2ee68a526162e212da20fca4522bab7095faccfecbedf98ebf5a9350019050610ac6565b60025460009081906001600160a01b031633146117d85760405163048e2d4960e41b81526004016103a190615a4c565b60018054600380546001600160a01b0319166001600160a01b03928316908117909155604051638b3f3a6f60e01b81526004810188905291861660248301526044820192909252606091600091638b3f3a6f9060640160006040518083038186803b15801561184657600080fd5b505afa15801561185a573d6000803e3d6000fd5b505050506040513d6000823e601f3d908101601f19168201604052611882919081019061533a565b8151919350915061189b57600080935093505050611024565b60005b825181101561198b5760035483516001600160a01b03909116906319f1708890899089908790869081106118d4576118d4615f13565b602002602001015160046040518563ffffffff1660e01b81526004016118fd9493929190615b0f565b600060405180830381600087803b15801561191757600080fd5b505af115801561192b573d6000803e3d6000fd5b50505050600080516020615fd0833981519152878785848151811061195257611952615f13565b6020026020010151600460013360405161197196959493929190615b39565b60405180910390a18061198381615ecc565b91505061189e565b50600354604051637c34eb8560e01b8152600481018890526000916001600160a01b031690637c34eb859060240160206040518083038186803b1580156119d157600080fd5b505afa1580156119e5573d6000803e3d6000fd5b505050506040513d601f19601f82011682018060405250810190611a0991906153d9565b15610f7e5760005b8351811015610f785760035484516001600160a01b039091169063e1ca7ca7908a90879085908110611a4557611a45615f13565b60200260200101516040518363ffffffff1660e01b8152600401611a73929190918252602082015260400190565b60206040518083038186803b158015611a8b57600080fd5b505afa158015611a9f573d6000803e3d6000fd5b505050506040513d601f19601f82011682018060405250810190611ac3919061547d565b611acd9083615e2b565b915080611ad981615ecc565b915050611a11565b6002546001600160a01b03163314611b0c5760405163048e2d4960e41b81526004016103a190615a4c565b600154600380546001600160a01b039092166001600160a01b0319909216821790556040516356b03e3960e11b815260048101869052602481018590526005919063ad607c729060440160206040518083038186803b158015611b6e57600080fd5b505afa158015611b82573d6000803e3d6000fd5b505050506040513d601f19601f82011682018060405250810190611ba691906153f6565b600b811115611bb757611bb7615efd565b1415611bfe57604080518581526020810185905260018183015290517f81ecd6389ca17f05c1600520125ee92c8221396ad1755593553517594ad098109181900360600190a15b6003546040516307e8afd360e21b81526001600160a01b0390911690631fa2bf4c90611c3290879087906004908101615cac565b600060405180830381600087803b158015611c4c57600080fd5b505af1158015611c60573d6000803e3d6000fd5b50505050600080516020615f708339815191528484600484604051611c889493929190615cc7565b60405180910390a16003546040516333e68dcd60e01b81526000916001600160a01b0316906333e68dcd90611cc7908890869089908990600401615b81565b602060405180830381600087803b158015611ce157600080fd5b505af1158015611cf5573d6000803e3d6000fd5b505050506040513d601f19601f82011682018060405250810190611d19919061547d565b90507f79d1efbc53e0b7b5b56c575cd2fd71b51f8d41409f12b1aba3471e667890609885858386866001604051611d5596959493929190615cfc565b60405180910390a160035460405163033e2e1160e31b81526001600160a01b03909116906319f1708890611d9490889086908990600190600401615b0f565b600060405180830381600087803b158015611dae57600080fd5b505af1158015611dc2573d6000803e3d6000fd5b50505050600080516020615fd083398151915285838660018033604051611dee96959493929190615b39565b60405180910390a15050505050565b6002546001600160a01b03163314611e285760405163048e2d4960e41b81526004016103a190615a4c565b600154600380546001600160a01b0319166001600160a01b039092169182179055604051630d7afd0b60e11b8152631af5fa1690611e6c9086908690600401615c48565b600060405180830381600087803b158015611e8657600080fd5b505af1158015611e9a573d6000803e3d6000fd5b505050507f9096640c11bd5636ced741c9725e5ff774b334455c80e15491f15bb3af0bc2658184846040516116b6939291906159cc565b611ed96145ce565b611ee36000614628565b565b611f12604051806060016040528060006001600160a01b0316815260200160608152602001606081525090565b600083815260056020908152604080832085845282529182902082516060810190935280546001600160a01b031683526001810180549192840191611f5690615e91565b80601f0160208091040260200160405190810160405280929190818152602001828054611f8290615e91565b8015611fcf5780601f10611fa457610100808354040283529160200191611fcf565b820191906000526020600020905b815481529060010190602001808311611fb257829003601f168201915b50505050508152602001600282018054611fe890615e91565b80601f016020809104026020016040519081016040528092919081815260200182805461201490615e91565b80156120615780601f1061203657610100808354040283529160200191612061565b820191906000526020600020905b81548152906001019060200180831161204457829003601f168201915b505050505081525050905092915050565b6002546001600160a01b0316331461209d5760405163048e2d4960e41b81526004016103a190615a4c565b6003546040516307e8afd360e21b81526001600160a01b0390911690631fa2bf4c906120d29086908690600b90600401615cac565b600060405180830381600087803b1580156120ec57600080fd5b505af1158015612100573d6000803e3d6000fd5b50505050600080516020615f708339815191528383600b846040516116b69493929190615cc7565b6002546000906060906001600160a01b031633146121595760405163048e2d4960e41b81526004016103a190615a4c565b600154600380546001600160a01b0319166001600160a01b0390921691821790556040516334bfb5a760e21b8152600481018590526000919063d2fed69c9060240160206040518083038186803b1580156121b357600080fd5b505afa1580156121c7573d6000803e3d6000fd5b505050506040513d601f19601f820116820180604052508101906121eb919061547d565b6003546040516312506f4d60e01b8152600481018790529192506000916001600160a01b03909116906312506f4d9060240160006040518083038186803b15801561223557600080fd5b505afa158015612249573d6000803e3d6000fd5b505050506040513d6000823e601f3d908101601f191682016040526122719190810190615145565b600354604051638a9a9ff360e01b815260048101889052600160248201529192506001600160a01b031690638a9a9ff39060440160206040518083038186803b1580156122bd57600080fd5b505afa1580156122d1573d6000803e3d6000fd5b505050506040513d601f19601f820116820180604052508101906122f591906153d9565b1561231757600160405180602001604052806000815250935093505050915091565b816123f9576003546040516363e3ccad60e01b815260048101879052600060248201526001600160a01b03909116906363e3ccad90604401600060405180830381600087803b15801561236957600080fd5b505af115801561237d573d6000803e3d6000fd5b505050507f6505631a30f6259a8bbf6422cdc3bd467ddc256b547dad05c5d84abc34abfa18856000336040516123b593929190615be8565b60405180910390a160006040518060400160405280601681526020017507472616e736c61746f7273206e756d626572203d20360541b815250935093505050915091565b80518260006124088284615e43565b600354604051631307425560e31b8152600481018b90529192506000916001600160a01b039091169063983a12a89060240160006040518083038186803b15801561245257600080fd5b505afa158015612466573d6000803e3d6000fd5b505050506040513d6000823e601f3d908101601f1916820160405261248e91908101906150a5565b905060005b85518110156128095760008682815181106124b0576124b0615f13565b602002602001015160600151600b8111156124cd576124cd615efd565b1480612507575060018682815181106124e8576124e8615f13565b602002602001015160600151600b81111561250557612505615efd565b145b156127f75760005b878110156127f557600354835185916001600160a01b03169063193620e7908e9087908690811061254257612542615f13565b60200260200101516040518363ffffffff1660e01b81526004016125799291909182526001600160a01b0316602082015260400190565b60206040518083038186803b15801561259157600080fd5b505afa1580156125a5573d6000803e3d6000fd5b505050506040513d601f19601f820116820180604052508101906125c9919061547d565b11156125d4576127e3565b60035460405162fbe24760e81b8152600481018d9052600160248201526001600160a01b039091169063fbe2470090604401600060405180830381600087803b15801561262057600080fd5b505af1158015612634573d6000803e3d6000fd5b505060035485516001600160a01b03909116925063271ff03f91508d9086908590811061266357612663615f13565b6020026020010151856040518463ffffffff1660e01b815260040161268a93929190615af0565b600060405180830381600087803b1580156126a457600080fd5b505af11580156126b8573d6000803e3d6000fd5b505050506126c78b83336143bc565b60035483516001600160a01b039091169063ce098054908d9085908790869081106126f4576126f4615f13565b60200260200101516040518463ffffffff1660e01b81526004016127349392919092835260208301919091526001600160a01b0316604082015260600190565b600060405180830381600087803b15801561274e57600080fd5b505af1158015612762573d6000803e3d6000fd5b505050507fad65127436138b4afe97ef23baf28ed14a5fb09500ad117eb196cd3bdb3dbe9f8b8385848151811061279b5761279b615f13565b602002602001015160016040516127d6949392919093845260208401929092526001600160a01b031660408301521515606082015260800190565b60405180910390a16127f5565b806127ed81615ecc565b91505061250f565b505b8061280181615ecc565b915050612493565b506003546040516363e3ccad60e01b8152600481018b9052600060248201526001600160a01b03909116906363e3ccad90604401600060405180830381600087803b15801561285757600080fd5b505af115801561286b573d6000803e3d6000fd5b505050507f6505631a30f6259a8bbf6422cdc3bd467ddc256b547dad05c5d84abc34abfa18896000336040516128a393929190615be8565b60405180910390a1600354604051638a9a9ff360e01b8152600481018b9052600060248201526001600160a01b0390911690638a9a9ff39060440160206040518083038186803b1580156128f657600080fd5b505afa15801561290a573d6000803e3d6000fd5b505050506040513d601f19601f8201168201806040525081019061292e91906153d9565b156129c557600380546040516317e925d760e01b81526001600160a01b03909116916317e925d791612964918d91600401615c07565b600060405180830381600087803b15801561297e57600080fd5b505af1158015612992573d6000803e3d6000fd5b50505050600080516020615f90833981519152896003336040516129b893929190615c1b565b60405180910390a1612a55565b6003546040516317e925d760e01b81526001600160a01b03909116906317e925d7906129f8908c90600290600401615c07565b600060405180830381600087803b158015612a1257600080fd5b505af1158015612a26573d6000803e3d6000fd5b50505050600080516020615f9083398151915289600233604051612a4c93929190615c1b565b60405180910390a15b600060405180604001604052806014815260200173105b1b1bd8d85d1a5bdb8818dbdb5c1b195d195960621b81525097509750505050505050915091565b6002546001600160a01b03163314612abe5760405163048e2d4960e41b81526004016103a190615a4c565b600154600380546001600160a01b0319166001600160a01b0392831690811790915560405163790485f960e01b81526004810186905291831660248301529063790485f99060440160206040518083038186803b158015612b1e57600080fd5b505afa158015612b32573d6000803e3d6000fd5b505050506040513d601f19601f82011682018060405250810190612b56919061547d565b612be45760035460405163992d60f360e01b8152600481018590526001600160a01b0383811660248301529091169063992d60f390604401600060405180830381600087803b158015612ba857600080fd5b505af1158015612bbc573d6000803e3d6000fd5b5050506001600160a01b0382166000908152600460205260409020805460ff19166001179055505b60005b8251811015612d4757612c1484848381518110612c0657612c06615f13565b602002602001015184614678565b60035483516001600160a01b039091169063a1e047f39086908590879086908110612c4157612c41615f13565b60200260200101516040518463ffffffff1660e01b8152600401612c6793929190615af0565b600060405180830381600087803b158015612c8157600080fd5b505af1158015612c95573d6000803e3d6000fd5b505060035485516001600160a01b039091169250636d8d1daf91508690869085908110612cc457612cc4615f13565b60209081029190910101516040516001600160e01b031960e085901b168152600481019290925260248201526001600160a01b0385166044820152606401600060405180830381600087803b158015612d1c57600080fd5b505af1158015612d30573d6000803e3d6000fd5b505050508080612d3f90615ecc565b915050612be7565b5060035482516040516387af5d7960e01b81526004810186905260248101919091526001600160a01b03909116906387af5d7990604401600060405180830381600087803b158015612d9857600080fd5b505af1158015612dac573d6000803e3d6000fd5b50506003548451604051632639b06760e11b81526001600160a01b039092169350634c7360ce9250612de49187918691600401615af0565b600060405180830381600087803b158015612dfe57600080fd5b505af1158015612e12573d6000803e3d6000fd5b5050600354604051638a9a9ff360e01b815260048101879052600060248201526001600160a01b039091169250638a9a9ff3915060440160206040518083038186803b158015612e6157600080fd5b505afa158015612e75573d6000803e3d6000fd5b505050506040513d601f19601f82011682018060405250810190612e9991906153d9565b156130d757600354604051636030ddc160e11b815260048101859052600060248201526001600160a01b039091169063c061bb8290604401600060405180830381600087803b158015612eeb57600080fd5b505af1158015612eff573d6000803e3d6000fd5b50505050600080516020615fb083398151915283600083604051612f2593929190615be8565b60405180910390a1600354604051638a9a9ff360e01b815260048101859052600160248201526001600160a01b0390911690638a9a9ff39060440160206040518083038186803b158015612f7857600080fd5b505afa158015612f8c573d6000803e3d6000fd5b505050506040513d601f19601f82011682018060405250810190612fb091906153d9565b1561304757600380546040516317e925d760e01b81526001600160a01b03909116916317e925d791612fe6918791600401615c07565b600060405180830381600087803b15801561300057600080fd5b505af1158015613014573d6000803e3d6000fd5b50505050600080516020615f908339815191528360038360405161303a93929190615c1b565b60405180910390a16130d7565b6003546040516317e925d760e01b81526001600160a01b03909116906317e925d79061307a908690600190600401615c07565b600060405180830381600087803b15801561309457600080fd5b505af11580156130a8573d6000803e3d6000fd5b50505050600080516020615f90833981519152836001836040516130ce93929190615c1b565b60405180910390a15b7f8e913351aa76002e572cc432b46556976f6e10285b52f94909124ea8ebd0b79583838360006040516116b69493929190615bae565b6002546000906060906001600160a01b0316331461313e5760405163048e2d4960e41b81526004016103a190615a4c565b600154600380546001600160a01b0319166001600160a01b03909216918217905560405163f8626ebb60e01b8152600481018590526000919063f8626ebb9060240160206040518083038186803b15801561319857600080fd5b505afa1580156131ac573d6000803e3d6000fd5b505050506040513d601f19601f820116820180604052508101906131d0919061547d565b6003546040516334bfb5a760e21b8152600481018790529192506000916001600160a01b039091169063d2fed69c9060240160206040518083038186803b15801561321a57600080fd5b505afa15801561322e573d6000803e3d6000fd5b505050506040513d601f19601f82011682018060405250810190613252919061547d565b6003546040516312506f4d60e01b8152600481018890529192506000916001600160a01b03909116906312506f4d9060240160006040518083038186803b15801561329c57600080fd5b505afa1580156132b0573d6000803e3d6000fd5b505050506040513d6000823e601f3d908101601f191682016040526132d89190810190615145565b600354604051638a9a9ff360e01b815260048101899052600060248201529192506001600160a01b031690638a9a9ff39060440160206040518083038186803b15801561332457600080fd5b505afa158015613338573d6000803e3d6000fd5b505050506040513d601f19601f8201168201806040525081019061335c91906153d9565b1561338f576001604051806040016040528060078152602001661a5cc8199d5b1b60ca1b81525094509450505050915091565b8215801561339c57508115155b1561346a57600354604051636030ddc160e11b815260048101889052600060248201526001600160a01b039091169063c061bb8290604401600060405180830381600087803b1580156133ee57600080fd5b505af1158015613402573d6000803e3d6000fd5b50505050600080516020615fb08339815191528660003360405161342893929190615be8565b60405180910390a16001604051806040016040528060138152602001720766572696669657273206e756d626572203d3606c1b81525094509450505050915091565b82158015613476575081155b156134b65761348486614806565b60006040518060400160405280600b81526020016a6e6f206f6e652070696e6b60a81b81525094509450505050915091565b80518360006134c58284615e43565b60035460405163b647eec360e01b8152600481018c90529192506000916001600160a01b039091169063b647eec39060240160006040518083038186803b15801561350f57600080fd5b505afa158015613523573d6000803e3d6000fd5b505050506040513d6000823e601f3d908101601f1916820160405261354b91908101906150a5565b905060005b855181101561388e57600086828151811061356d5761356d615f13565b602002602001015160600151600b81111561358a5761358a615efd565b141561387c5760005b8881101561387a57600354835185916001600160a01b03169063790485f9908f908790869081106135c6576135c6615f13565b60200260200101516040518363ffffffff1660e01b81526004016135fd9291909182526001600160a01b0316602082015260400190565b60206040518083038186803b15801561361557600080fd5b505afa158015613629573d6000803e3d6000fd5b505050506040513d601f19601f8201168201806040525081019061364d919061547d565b111561365857613868565b6003546040516387af5d7960e01b8152600481018e9052600160248201526001600160a01b03909116906387af5d7990604401600060405180830381600087803b1580156136a557600080fd5b505af11580156136b9573d6000803e3d6000fd5b505060035485516001600160a01b03909116925063a1e047f391508e908690859081106136e8576136e8615f13565b6020026020010151856040518463ffffffff1660e01b815260040161370f93929190615af0565b600060405180830381600087803b15801561372957600080fd5b505af115801561373d573d6000803e3d6000fd5b5050505061374c8c8333614678565b60035483516001600160a01b0390911690636d8d1daf908e90859087908690811061377957613779615f13565b60200260200101516040518463ffffffff1660e01b81526004016137b99392919092835260208301919091526001600160a01b0316604082015260600190565b600060405180830381600087803b1580156137d357600080fd5b505af11580156137e7573d6000803e3d6000fd5b505050507fad65127436138b4afe97ef23baf28ed14a5fb09500ad117eb196cd3bdb3dbe9f8c8385848151811061382057613820615f13565b6020026020010151600060405161385b949392919093845260208401929092526001600160a01b031660408301521515606082015260800190565b60405180910390a161387a565b8061387281615ecc565b915050613593565b505b8061388681615ecc565b915050613550565b50600354604051636030ddc160e11b8152600481018c9052600060248201526001600160a01b039091169063c061bb8290604401600060405180830381600087803b1580156138dc57600080fd5b505af11580156138f0573d6000803e3d6000fd5b50505050600080516020615fb08339815191528a60003360405161391693929190615be8565b60405180910390a1600354604051638a9a9ff360e01b8152600481018c9052600160248201526001600160a01b0390911690638a9a9ff39060440160206040518083038186803b15801561396957600080fd5b505afa15801561397d573d6000803e3d6000fd5b505050506040513d601f19601f820116820180604052508101906139a191906153d9565b15613a3857600380546040516317e925d760e01b81526001600160a01b03909116916317e925d7916139d7918e91600401615c07565b600060405180830381600087803b1580156139f157600080fd5b505af1158015613a05573d6000803e3d6000fd5b50505050600080516020615f908339815191528a600333604051613a2b93929190615c1b565b60405180910390a1613ac8565b6003546040516317e925d760e01b81526001600160a01b03909116906317e925d790613a6b908d90600190600401615c07565b600060405180830381600087803b158015613a8557600080fd5b505af1158015613a99573d6000803e3d6000fd5b50505050600080516020615f908339815191528a600133604051613abf93929190615c1b565b60405180910390a15b50505050600160405180604001604052806014815260200173105b1b1bd8d85d1a5bdb8818dbdb5c1b195d195960621b81525094509450505050915091565b6002546001600160a01b03163314613b325760405163048e2d4960e41b81526004016103a190615a4c565b600154600380546001600160a01b039092166001600160a01b0319909216821790556040516356b03e3960e11b815260048101869052602481018590526007919063ad607c729060440160206040518083038186803b158015613b9457600080fd5b505afa158015613ba8573d6000803e3d6000fd5b505050506040513d601f19601f82011682018060405250810190613bcc91906153f6565b600b811115613bdd57613bdd615efd565b1415613c2457604080518581526020810185905260008183015290517f81ecd6389ca17f05c1600520125ee92c8221396ad1755593553517594ad098109181900360600190a15b6003546040516307e8afd360e21b81526001600160a01b0390911690631fa2bf4c90613c599087908790600690600401615cac565b600060405180830381600087803b158015613c7357600080fd5b505af1158015613c87573d6000803e3d6000fd5b50505050600080516020615f708339815191528484600633604051613caf9493929190615cc7565b60405180910390a1600354604051631b10c64160e21b81526001600160a01b0390911690636c43190490613cee90879085908890600190600401615b0f565b600060405180830381600087803b158015613d0857600080fd5b505af1158015613d1c573d6000803e3d6000fd5b50505050600080516020615fd08339815191528482856001600086604051613d4996959493929190615b39565b60405180910390a16003546040516305c3f9c960e01b81526000916001600160a01b0316906305c3f9c990613d88908890869089908990600401615b81565b602060405180830381600087803b158015613da257600080fd5b505af1158015613db6573d6000803e3d6000fd5b505050506040513d601f19601f82011682018060405250810190613dda919061547d565b90507f79d1efbc53e0b7b5b56c575cd2fd71b51f8d41409f12b1aba3471e667890609885858386866000604051611dee96959493929190615cfc565b613e1e6145ce565b600280546001600160a01b0319166001600160a01b0392909216919091179055565b613e486145ce565b6001600160a01b038116613ead5760405162461bcd60e51b815260206004820152602660248201527f4f776e61626c653a206e6577206f776e657220697320746865207a65726f206160448201526564647265737360d01b60648201526084016103a1565b610b2e81614628565b6002546001600160a01b03163314613ee15760405163048e2d4960e41b81526004016103a190615a4c565b600154600380546001600160a01b0319166001600160a01b039092169182179055604051630b7ec11760e31b81526004810188905260009190635bf608b89060240160206040518083038186803b158015613f3b57600080fd5b505afa158015613f4f573d6000803e3d6000fd5b505050506040513d601f19601f82011682018060405250810190613f73919061505c565b905084156141be5760038054604051631b10c64160e21b81526001600160a01b0390911691636c43190491613fb0918b9189918c91600401615b0f565b600060405180830381600087803b158015613fca57600080fd5b505af1158015613fde573d6000803e3d6000fd5b50505050600080516020615fd0833981519152878588600360008660405161400b96959493929190615b39565b60405180910390a16003546040516307e8afd360e21b81526001600160a01b0390911690631fa2bf4c90614048908a908a90600890600401615cac565b600060405180830381600087803b15801561406257600080fd5b505af1158015614076573d6000803e3d6000fd5b50505050600080516020615f70833981519152878760088760405161409e9493929190615cc7565b60405180910390a1600354604051637b3f471760e01b8152600481018990526001600160a01b03868116602483015290911690637b3f471790604401600060405180830381600087803b1580156140f457600080fd5b505af1158015614108573d6000803e3d6000fd5b505060035460405163869a736560e01b8152600481018b90526001600160a01b03888116602483015260009450909116915063869a73659060440160206040518083038186803b15801561415b57600080fd5b505afa15801561416f573d6000803e3d6000fd5b505050506040513d601f19601f82011682018060405250810190614193919061547d565b116141b9576001600160a01b0384166000908152600460205260409020805460ff191690555b6143b3565b600354604051631b10c64160e21b81526001600160a01b0390911690636c431904906141f5908a9088908b90600290600401615b0f565b600060405180830381600087803b15801561420f57600080fd5b505af1158015614223573d6000803e3d6000fd5b50505050600080516020615fd0833981519152878588600260008660405161425096959493929190615b39565b60405180910390a16003546040516307e8afd360e21b81526001600160a01b0390911690631fa2bf4c9061428d908a908a90600790600401615cac565b600060405180830381600087803b1580156142a757600080fd5b505af11580156142bb573d6000803e3d6000fd5b50505050600080516020615f7083398151915287876007876040516142e39493929190615cc7565b60405180910390a1604080516060810182526001600160a01b038681168252602080830187815283850187905260008c8152600583528581208c8252835294909420835181546001600160a01b031916931692909217825592518051929391926143539260018501920190614b9f565b506040820151805161436f916002840191602090910190614b9f565b509050507f172d6c6e249760b8e15752ff2f2d6393b1bcae621075bc7ec0f30b0d1f8c04b187878686866040516143aa959493929190615c61565b60405180910390a15b50505050505050565b600154600380546001600160a01b0319166001600160a01b0390921691821790556040516356b03e3960e11b815260048101859052602481018490526000919063ad607c729060440160206040518083038186803b15801561441d57600080fd5b505afa158015614431573d6000803e3d6000fd5b505050506040513d601f19601f8201168201806040525081019061445591906153f6565b9050600081600b81111561446b5761446b615efd565b1415614509576003546040516307e8afd360e21b81526001600160a01b0390911690631fa2bf4c906144a69087908790600290600401615cac565b600060405180830381600087803b1580156144c057600080fd5b505af11580156144d4573d6000803e3d6000fd5b50505050600080516020615f7083398151915284846002856040516144fc9493929190615cc7565b60405180910390a16145c8565b600181600b81111561451d5761451d615efd565b14156145ad57600380546040516307e8afd360e21b81526001600160a01b0390911691631fa2bf4c91614557918891889190600401615cac565b600060405180830381600087803b15801561457157600080fd5b505af1158015614585573d6000803e3d6000fd5b50505050600080516020615f7083398151915284846003856040516144fc9493929190615cc7565b806040516366f643a560e11b81526004016103a19190615a17565b50505050565b6000546001600160a01b03163314611ee35760405162461bcd60e51b815260206004820181905260248201527f4f776e61626c653a2063616c6c6572206973206e6f7420746865206f776e657260448201526064016103a1565b600080546001600160a01b038381166001600160a01b0319831681178455604051919092169283917f8be0079c531659141344cd1fd0a4f28419497f9722a3daafe3b4186f6b6457e09190a35050565b600154600380546001600160a01b0319166001600160a01b0390921691821790556040516356b03e3960e11b815260048101859052602481018490526000919063ad607c729060440160206040518083038186803b1580156146d957600080fd5b505afa1580156146ed573d6000803e3d6000fd5b505050506040513d601f19601f8201168201806040525081019061471191906153f6565b9050600081600b81111561472757614727615efd565b14156147b8576003546040516307e8afd360e21b81526001600160a01b0390911690631fa2bf4c906147629087908790600190600401615cac565b600060405180830381600087803b15801561477c57600080fd5b505af1158015614790573d6000803e3d6000fd5b50505050600080516020615f7083398151915284846001856040516144fc9493929190615cc7565b600281600b8111156147cc576147cc615efd565b14156145ad57600380546040516307e8afd360e21b81526001600160a01b0390911691631fa2bf4c91614762918891889190600401615cac565b600154600380546001600160a01b0319166001600160a01b0390921691821790556040516317e925d760e01b81526317e925d79061484b908490600590600401615c07565b600060405180830381600087803b15801561486557600080fd5b505af1158015614879573d6000803e3d6000fd5b50505050600080516020615f908339815191528160053360405161489f93929190615c1b565b60405180910390a1600354604051636030ddc160e11b815260048101839052600060248201526001600160a01b039091169063c061bb8290604401600060405180830381600087803b1580156148f457600080fd5b505af1158015614908573d6000803e3d6000fd5b50505050600080516020615fb08339815191528160003360405161492e93929190615be8565b60405180910390a1600354604051630b7ec11760e31b81526004808201849052916000916001600160a01b0390911690635bf608b89060240160206040518083038186803b15801561497f57600080fd5b505afa158015614993573d6000803e3d6000fd5b505050506040513d601f19601f820116820180604052508101906149b7919061505c565b6001600160a01b039081168252602082019290925260409081016000908120805460ff191690556003549151631307425560e31b8152600481018590529092919091169063983a12a89060240160006040518083038186803b158015614a1c57600080fd5b505afa158015614a30573d6000803e3d6000fd5b505050506040513d6000823e601f3d908101601f19168201604052614a5891908101906150a5565b60035460405163b647eec360e01b8152600481018590529192506000916001600160a01b039091169063b647eec39060240160006040518083038186803b158015614aa257600080fd5b505afa158015614ab6573d6000803e3d6000fd5b505050506040513d6000823e601f3d908101601f19168201604052614ade91908101906150a5565b905060005b8251811015614b3f5760046000848381518110614b0257614b02615f13565b6020908102919091018101516001600160a01b03168252810191909152604001600020805460ff1916905580614b3781615ecc565b915050614ae3565b5060005b82518110156145c85760046000838381518110614b6257614b62615f13565b6020908102919091018101516001600160a01b03168252810191909152604001600020805460ff1916905580614b9781615ecc565b915050614b43565b828054614bab90615e91565b90600052602060002090601f016020900481019282614bcd5760008555614c13565b82601f10614be657805160ff1916838001178555614c13565b82800160010185558215614c13579182015b82811115614c13578251825591602001919060010190614bf8565b50614c1f929150614c23565b5090565b5b80821115614c1f5760008155600101614c24565b600082601f830112614c4957600080fd5b6020614c5d614c588435615de1565b615db1565b808435825282820191508285018684873560051b8801011115614c7f57600080fd5b60005b8635811015614dce576001600160401b038083351115614ca157600080fd5b82358801601f1960a0828c0382011215614cba57600080fd5b614cc2615d44565b8883013584811115614cd357600080fd5b830160e0818e0384011215614ce757600080fd5b614cef615d6c565b92508981013585811115614d0257600080fd5b614d108e8c83850101614e6d565b84525060408101358a840152606081013560408401526080810135606084015260a0810135608084015260c081013560a084015260e081013585811115614d5657600080fd5b614d648e8c83850101614e6d565b60c0850152505090815260408201358882015260608201359083821115614d8a57600080fd5b614d988c8a84860101614e6d565b6040820152614da960808401614e57565b606082015260a092909201356080830152508552509284019290840190600101614c82565b50909695505050505050565b600082601f830112614deb57600080fd5b81356020614dfb614c5883615de1565b80838252828201915082860187848660051b8901011115614e1b57600080fd5b60005b85811015614e3a57813584529284019290840190600101614e1e565b5090979650505050505050565b8035614e5281615f54565b919050565b8035614e5281615f62565b8051614e5281615f62565b600082601f830112614e7e57600080fd5b8135614e8c614c5882615e04565b818152846020838601011115614ea157600080fd5b816020850160208301376000918101602001919091529392505050565b600082601f830112614ecf57600080fd5b8151614edd614c5882615e04565b818152846020838601011115614ef257600080fd5b614f03826020830160208701615e65565b949350505050565b60006101a08284031215614f1e57600080fd5b614f26615d8e565b90508135815260208201356001600160401b0380821115614f4657600080fd5b614f5285838601614e6d565b60208401526040840135915080821115614f6b57600080fd5b614f7785838601614e6d565b6040840152606084013560608401526080840135608084015260a084013560a084015260c0840135915080821115614fae57600080fd5b614fba85838601614dda565b60c084015260e0848101359084015261010080850135908401526101209150614fe4828501614e47565b828401526101409150614ff8828501614e47565b82840152610160915081840135828401526101809150818401358181111561501f57600080fd5b61502b86828701614c38565b8385015250505092915050565b60006020828403121561504a57600080fd5b813561505581615f3f565b9392505050565b60006020828403121561506e57600080fd5b815161505581615f3f565b6000806040838503121561508c57600080fd5b823561509781615f3f565b946020939093013593505050565b600060208083850312156150b857600080fd5b82516001600160401b038111156150ce57600080fd5b8301601f810185136150df57600080fd5b80516150ed614c5882615de1565b80828252848201915084840188868560051b870101111561510d57600080fd5b600094505b8385101561513957805161512581615f3f565b835260019490940193918501918501615112565b50979650505050505050565b60006020828403121561515757600080fd5b81516001600160401b0381111561516d57600080fd5b83601f828501011261517e57600080fd5b8083015161518e614c5882615de1565b808282526020820191506020848701018760208560051b878a01010111156151b557600080fd5b60005b84811015614e3a5781516001600160401b038111156151d657600080fd5b88870101601f1960a0828c03820112156151ef57600080fd5b6151f7615d44565b60208301516001600160401b0381111561521057600080fd5b60e0838286018f0301121561522457600080fd5b61522c615d6c565b9250602081850101516001600160401b0381111561524957600080fd5b61525a8e6020838589010101614ebe565b84525060408185010151602084015260608185010151604084015260808185010151606084015260a08185010151608084015260c0818501015160a084015260e081850101516001600160401b038111156152b457600080fd5b6152c58e6020838589010101614ebe565b60c08501525050908152604082015160208201526060820151906001600160401b038211156152f357600080fd5b6153028c602084860101614ebe565b604082015261531360808401614e62565b606082015260a09290920151608083015250845260209384019391909101906001016151b8565b6000806040838503121561534d57600080fd5b82516001600160401b0381111561536357600080fd5b8301601f8101851361537457600080fd5b80516020615384614c5883615de1565b80838252828201915082850189848660051b88010111156153a457600080fd5b600095505b848610156153c75780518352600195909501949183019183016153a9565b50969091015195979596505050505050565b6000602082840312156153eb57600080fd5b815161505581615f54565b60006020828403121561540857600080fd5b815161505581615f62565b6000806040838503121561542657600080fd5b82356001600160401b0381111561543c57600080fd5b61544885828601614f0b565b925050602083013561545981615f3f565b809150509250929050565b60006020828403121561547657600080fd5b5035919050565b60006020828403121561548f57600080fd5b5051919050565b600080604083850312156154a957600080fd5b82359150602083013561545981615f3f565b600080600080600080600060e0888a0312156154d657600080fd5b8735965060208801356154e881615f3f565b955060408801356154f881615f3f565b945060608801359350608088013561550f81615f54565b925060a08801356001600160401b038082111561552b57600080fd5b6155378b838c01614e6d565b935060c08a013591508082111561554d57600080fd5b5061555a8a828b01614e6d565b91505092959891949750929550565b60008060006060848603121561557e57600080fd5b8335925060208401356001600160401b0381111561559b57600080fd5b6155a786828701614dda565b92505060408401356155b881615f3f565b809150509250925092565b6000806000606084860312156155d857600080fd5b8335925060208401356001600160401b038111156155f557600080fd5b6155a786828701614f0b565b6000806040838503121561561457600080fd5b50508035926020909101359150565b60008060006060848603121561563857600080fd5b833592506020840135915060408401356155b881615f3f565b60008060008060008060c0878903121561566a57600080fd5b8635955060208701359450604087013561568381615f54565b9350606087013561569381615f3f565b925060808701356001600160401b03808211156156af57600080fd5b6156bb8a838b01614e6d565b935060a08901359150808211156156d157600080fd5b506156de89828a01614e6d565b9150509295509295509295565b6000806000806080858703121561570157600080fd5b843593506020850135925060408501356001600160401b0381111561572557600080fd5b61573187828801614e6d565b925050606085013561574281615f3f565b939692955090935050565b600081518084526020808501808196508360051b8101915082860160005b85811015615849578284038952815160a08151818752805160e080848a01526157986101808a01836158c5565b91508983015160c081818c01526040915081850151838c015260609250828501516101008c01526080808601516101208d0152868601516101408d0152818601519650609f198c8603016101608d01526157f285886158c5565b96508c8801518d8d01528288015195508b8703838d015261581387876158c5565b9650838801519550615827848d0187615891565b968701519a90960199909952505050998601999450509084019060010161576b565b5091979650505050505050565b600081518084526020808501945080840160005b838110156158865781518752958201959082019060010161586a565b509495945050505050565b600c81106158a1576158a1615efd565b9052565b600881106158a1576158a1615efd565b600581106158a1576158a1615efd565b600081518084526158dd816020860160208601615e65565b601f01601f19169290920160200192915050565b60006101a0825184526020830151816020860152615911828601826158c5565b9150506040830151848203604086015261592b82826158c5565b915050606083015160608501526080830151608085015260a083015160a085015260c083015184820360c08601526159638282615856565b91505060e083015160e0850152610100808401518186015250610120808401516159908287018215159052565b505061014083810151151590850152610160808401519085015261018080840151858303828701526159c2838261574d565b9695505050505050565b60018060a01b03841681528260208201526060604082015260006159f360608301846158f1565b95945050505050565b8215158152604060208201526000614f0360408301846158c5565b60408082526010908201526f4572726f722066696c6520737461746560801b606082015260808101610c396020830184615891565b6020808252601590820152744572726f722041636365737320416464726573732160581b604082015260600190565b604081526000615a8e60408301856158f1565b905060018060a01b03831660208301529392505050565b602080825282516001600160a01b03168282015282015160606040830152600090615ad360808401826158c5565b90506040840151601f198483030160608501526159f382826158c5565b9283526001600160a01b03919091166020830152604082015260600190565b8481526001600160a01b038416602082015260408101839052608081016159f360608301846158b5565b8681526001600160a01b0386811660208301526040820186905260c0820190615b6560608401876158b5565b841515608084015280841660a084015250979650505050505050565b84815260018060a01b03841660208201528260408201526080606082015260006159c260808301846158c5565b848152608060208201526000615bc76080830186615856565b6001600160a01b039490941660408301525090151560609091015292915050565b92835290151560208301526001600160a01b0316604082015260600190565b8281526040810161505560208301846158a5565b83815260608101615c2f60208301856158a5565b6001600160a01b03929092166040919091015292915050565b828152604060208201526000614f0360408301846158f1565b85815284602082015260018060a01b038416604082015260a060608201526000615c8e60a08301856158c5565b8281036080840152615ca081856158c5565b98975050505050505050565b8381526020810183905260608101614f036040830184615891565b8481526020810184905260808101615ce26040830185615891565b6001600160a01b0392909216606091909101529392505050565b86815285602082015284604082015260c060608201526000615d2160c08301866158c5565b6001600160a01b039490941660808301525090151560a090910152949350505050565b60405160a081016001600160401b0381118282101715615d6657615d66615f29565b60405290565b60405160e081016001600160401b0381118282101715615d6657615d66615f29565b6040516101a081016001600160401b0381118282101715615d6657615d66615f29565b604051601f8201601f191681016001600160401b0381118282101715615dd957615dd9615f29565b604052919050565b60006001600160401b03821115615dfa57615dfa615f29565b5060051b60200190565b60006001600160401b03821115615e1d57615e1d615f29565b50601f01601f191660200190565b60008219821115615e3e57615e3e615ee7565b500190565b600082615e6057634e487b7160e01b600052601260045260246000fd5b500490565b60005b83811015615e80578181015183820152602001615e68565b838111156145c85750506000910152565b600181811c90821680615ea557607f821691505b60208210811415615ec657634e487b7160e01b600052602260045260246000fd5b50919050565b6000600019821415615ee057615ee0615ee7565b5060010190565b634e487b7160e01b600052601160045260246000fd5b634e487b7160e01b600052602160045260246000fd5b634e487b7160e01b600052603260045260246000fd5b634e487b7160e01b600052604160045260246000fd5b6001600160a01b0381168114610b2e57600080fd5b8015158114610b2e57600080fd5b600c8110610b2e57600080fdfe188fff7234f3bb35c4f436313ec14267725515e4ca367843cd416621a72fb8a3dea20a6d822b68d598b7ab4fd45418a7ca7b103f12d300bcc3b56a7b94d9ed337251b4359e8a59604ee5edc605cc5e422ed31ecb1cf2b1cb7ed855e8811dfb4c4b906571b20f3dcdf826b53f3c66528e252b2eb87de3cb812f18e6859e119344a264697066735822122049f8abc42cc1fdeaa67ccbd52d15503343561fc24be64c4e263fad3bb225944b64736f6c63430008070033",
			"opcodes": "PUSH1 0x80 PUSH1 0x40 MSTORE CALLVALUE DUP1 ISZERO PUSH3 0x11 JUMPI PUSH1 0x0 DUP1 REVERT JUMPDEST POP PUSH1 0x40 MLOAD PUSH3 0x611C CODESIZE SUB DUP1 PUSH3 0x611C DUP4 CODECOPY DUP2 ADD PUSH1 0x40 DUP2 SWAP1 MSTORE PUSH3 0x34 SWAP2 PUSH3 0xB5 JUMP JUMPDEST PUSH3 0x3F CALLER PUSH3 0x65 JUMP JUMPDEST PUSH1 0x1 DUP1 SLOAD PUSH1 0x1 PUSH1 0x1 PUSH1 0xA0 SHL SUB NOT AND PUSH1 0x1 PUSH1 0x1 PUSH1 0xA0 SHL SUB SWAP3 SWAP1 SWAP3 AND SWAP2 SWAP1 SWAP2 OR SWAP1 SSTORE PUSH3 0xE7 JUMP JUMPDEST PUSH1 0x0 DUP1 SLOAD PUSH1 0x1 PUSH1 0x1 PUSH1 0xA0 SHL SUB DUP4 DUP2 AND PUSH1 0x1 PUSH1 0x1 PUSH1 0xA0 SHL SUB NOT DUP4 AND DUP2 OR DUP5 SSTORE PUSH1 0x40 MLOAD SWAP2 SWAP1 SWAP3 AND SWAP3 DUP4 SWAP2 PUSH32 0x8BE0079C531659141344CD1FD0A4F28419497F9722A3DAAFE3B4186F6B6457E0 SWAP2 SWAP1 LOG3 POP POP JUMP JUMPDEST PUSH1 0x0 PUSH1 0x20 DUP3 DUP5 SUB SLT ISZERO PUSH3 0xC8 JUMPI PUSH1 0x0 DUP1 REVERT JUMPDEST DUP2 MLOAD PUSH1 0x1 PUSH1 0x1 PUSH1 0xA0 SHL SUB DUP2 AND DUP2 EQ PUSH3 0xE0 JUMPI PUSH1 0x0 DUP1 REVERT JUMPDEST SWAP4 SWAP3 POP POP POP JUMP JUMPDEST PUSH2 0x6025 DUP1 PUSH3 0xF7 PUSH1 0x0 CODECOPY PUSH1 0x0 RETURN INVALID PUSH1 0x80 PUSH1 0x40 MSTORE CALLVALUE DUP1 ISZERO PUSH2 0x10 JUMPI PUSH1 0x0 DUP1 REVERT JUMPDEST POP PUSH1 0x4 CALLDATASIZE LT PUSH2 0x14D JUMPI PUSH1 0x0 CALLDATALOAD PUSH1 0xE0 SHR DUP1 PUSH4 0x710B7B27 GT PUSH2 0xC3 JUMPI DUP1 PUSH4 0xA15D194C GT PUSH2 0x7C JUMPI DUP1 PUSH4 0xA15D194C EQ PUSH2 0x301 JUMPI DUP1 PUSH4 0xA55AF701 EQ PUSH2 0x314 JUMPI DUP1 PUSH4 0xA723213C EQ PUSH2 0x327 JUMPI DUP1 PUSH4 0xAD5F7AB0 EQ PUSH2 0x33A JUMPI DUP1 PUSH4 0xF2FDE38B EQ PUSH2 0x34D JUMPI DUP1 PUSH4 0xF8BC2FD7 EQ PUSH2 0x360 JUMPI PUSH1 0x0 DUP1 REVERT JUMPDEST DUP1 PUSH4 0x710B7B27 EQ PUSH2 0x277 JUMPI DUP1 PUSH4 0x715018A6 EQ PUSH2 0x28A JUMPI DUP1 PUSH4 0x787A8AA2 EQ PUSH2 0x292 JUMPI DUP1 PUSH4 0x82E53B6D EQ PUSH2 0x2B2 JUMPI DUP1 PUSH4 0x8ADC74A5 EQ PUSH2 0x2C5 JUMPI DUP1 PUSH4 0x8DA5CB5B EQ PUSH2 0x2E6 JUMPI PUSH1 0x0 DUP1 REVERT JUMPDEST DUP1 PUSH4 0x32C22BBA GT PUSH2 0x115 JUMPI DUP1 PUSH4 0x32C22BBA EQ PUSH2 0x1C6 JUMPI DUP1 PUSH4 0x36D61AE0 EQ PUSH2 0x203 JUMPI DUP1 PUSH4 0x4AA86DED EQ PUSH2 0x22B JUMPI DUP1 PUSH4 0x57840DA6 EQ PUSH2 0x23E JUMPI DUP1 PUSH4 0x5B0EF140 EQ PUSH2 0x251 JUMPI DUP1 PUSH4 0x655F05D3 EQ PUSH2 0x264 JUMPI PUSH1 0x0 DUP1 REVERT JUMPDEST DUP1 PUSH4 0x8DC21CF EQ PUSH2 0x152 JUMPI DUP1 PUSH4 0x1201DFC6 EQ PUSH2 0x178 JUMPI DUP1 PUSH4 0x172372C2 EQ PUSH2 0x18D JUMPI DUP1 PUSH4 0x1C1B8772 EQ PUSH2 0x1A0 JUMPI DUP1 PUSH4 0x2661F75C EQ PUSH2 0x1B3 JUMPI JUMPDEST PUSH1 0x0 DUP1 REVERT JUMPDEST PUSH2 0x165 PUSH2 0x160 CALLDATASIZE PUSH1 0x4 PUSH2 0x54BB JUMP JUMPDEST PUSH2 0x373 JUMP JUMPDEST PUSH1 0x40 MLOAD SWAP1 DUP2 MSTORE PUSH1 0x20 ADD JUMPDEST PUSH1 0x40 MLOAD DUP1 SWAP2 SUB SWAP1 RETURN JUMPDEST PUSH2 0x18B PUSH2 0x186 CALLDATASIZE PUSH1 0x4 PUSH2 0x5464 JUMP JUMPDEST PUSH2 0x916 JUMP JUMPDEST STOP JUMPDEST PUSH2 0x18B PUSH2 0x19B CALLDATASIZE PUSH1 0x4 PUSH2 0x5079 JUMP JUMPDEST PUSH2 0x9E5 JUMP JUMPDEST PUSH2 0x18B PUSH2 0x1AE CALLDATASIZE PUSH1 0x4 PUSH2 0x5038 JUMP JUMPDEST PUSH2 0xAD2 JUMP JUMPDEST PUSH2 0x165 PUSH2 0x1C1 CALLDATASIZE PUSH1 0x4 PUSH2 0x5413 JUMP JUMPDEST PUSH2 0xB31 JUMP JUMPDEST PUSH2 0x1F3 PUSH2 0x1D4 CALLDATASIZE PUSH1 0x4 PUSH2 0x5038 JUMP JUMPDEST PUSH1 0x1 PUSH1 0x1 PUSH1 0xA0 SHL SUB AND PUSH1 0x0 SWAP1 DUP2 MSTORE PUSH1 0x4 PUSH1 0x20 MSTORE PUSH1 0x40 SWAP1 KECCAK256 SLOAD PUSH1 0xFF AND ISZERO SWAP1 JUMP JUMPDEST PUSH1 0x40 MLOAD SWAP1 ISZERO ISZERO DUP2 MSTORE PUSH1 0x20 ADD PUSH2 0x16F JUMP JUMPDEST PUSH2 0x216 PUSH2 0x211 CALLDATASIZE PUSH1 0x4 PUSH2 0x5496 JUMP JUMPDEST PUSH2 0xC3F JUMP JUMPDEST PUSH1 0x40 DUP1 MLOAD SWAP3 DUP4 MSTORE PUSH1 0x20 DUP4 ADD SWAP2 SWAP1 SWAP2 MSTORE ADD PUSH2 0x16F JUMP JUMPDEST PUSH2 0x18B PUSH2 0x239 CALLDATASIZE PUSH1 0x4 PUSH2 0x5569 JUMP JUMPDEST PUSH2 0x102B JUMP JUMPDEST PUSH2 0x18B PUSH2 0x24C CALLDATASIZE PUSH1 0x4 PUSH2 0x5079 JUMP JUMPDEST PUSH2 0x16C3 JUMP JUMPDEST PUSH2 0x216 PUSH2 0x25F CALLDATASIZE PUSH1 0x4 PUSH2 0x5496 JUMP JUMPDEST PUSH2 0x17A8 JUMP JUMPDEST PUSH2 0x18B PUSH2 0x272 CALLDATASIZE PUSH1 0x4 PUSH2 0x56EB JUMP JUMPDEST PUSH2 0x1AE1 JUMP JUMPDEST PUSH2 0x18B PUSH2 0x285 CALLDATASIZE PUSH1 0x4 PUSH2 0x55C3 JUMP JUMPDEST PUSH2 0x1DFD JUMP JUMPDEST PUSH2 0x18B PUSH2 0x1ED1 JUMP JUMPDEST PUSH2 0x2A5 PUSH2 0x2A0 CALLDATASIZE PUSH1 0x4 PUSH2 0x5601 JUMP JUMPDEST PUSH2 0x1EE5 JUMP JUMPDEST PUSH1 0x40 MLOAD PUSH2 0x16F SWAP2 SWAP1 PUSH2 0x5AA5 JUMP JUMPDEST PUSH2 0x18B PUSH2 0x2C0 CALLDATASIZE PUSH1 0x4 PUSH2 0x5623 JUMP JUMPDEST PUSH2 0x2072 JUMP JUMPDEST PUSH2 0x2D8 PUSH2 0x2D3 CALLDATASIZE PUSH1 0x4 PUSH2 0x5464 JUMP JUMPDEST PUSH2 0x2128 JUMP JUMPDEST PUSH1 0x40 MLOAD PUSH2 0x16F SWAP3 SWAP2 SWAP1 PUSH2 0x59FC JUMP JUMPDEST PUSH1 0x0 SLOAD PUSH1 0x40 MLOAD PUSH1 0x1 PUSH1 0x1 PUSH1 0xA0 SHL SUB SWAP1 SWAP2 AND DUP2 MSTORE PUSH1 0x20 ADD PUSH2 0x16F JUMP JUMPDEST PUSH2 0x18B PUSH2 0x30F CALLDATASIZE PUSH1 0x4 PUSH2 0x5569 JUMP JUMPDEST PUSH2 0x2A93 JUMP JUMPDEST PUSH2 0x2D8 PUSH2 0x322 CALLDATASIZE PUSH1 0x4 PUSH2 0x5464 JUMP JUMPDEST PUSH2 0x310D JUMP JUMPDEST PUSH2 0x18B PUSH2 0x335 CALLDATASIZE PUSH1 0x4 PUSH2 0x56EB JUMP JUMPDEST PUSH2 0x3B07 JUMP JUMPDEST PUSH2 0x18B PUSH2 0x348 CALLDATASIZE PUSH1 0x4 PUSH2 0x5038 JUMP JUMPDEST PUSH2 0x3E16 JUMP JUMPDEST PUSH2 0x18B PUSH2 0x35B CALLDATASIZE PUSH1 0x4 PUSH2 0x5038 JUMP JUMPDEST PUSH2 0x3E40 JUMP JUMPDEST PUSH2 0x18B PUSH2 0x36E CALLDATASIZE PUSH1 0x4 PUSH2 0x5651 JUMP JUMPDEST PUSH2 0x3EB6 JUMP JUMPDEST PUSH1 0x2 SLOAD PUSH1 0x0 SWAP1 PUSH1 0x1 PUSH1 0x1 PUSH1 0xA0 SHL SUB AND CALLER EQ PUSH2 0x3AA JUMPI PUSH1 0x40 MLOAD PUSH4 0x48E2D49 PUSH1 0xE4 SHL DUP2 MSTORE PUSH1 0x4 ADD PUSH2 0x3A1 SWAP1 PUSH2 0x5A4C JUMP JUMPDEST PUSH1 0x40 MLOAD DUP1 SWAP2 SUB SWAP1 REVERT JUMPDEST PUSH1 0x1 SLOAD PUSH1 0x3 DUP1 SLOAD PUSH1 0x1 PUSH1 0x1 PUSH1 0xA0 SHL SUB NOT AND PUSH1 0x1 PUSH1 0x1 PUSH1 0xA0 SHL SUB SWAP1 SWAP3 AND SWAP2 SWAP1 SWAP2 OR SWAP1 SSTORE DUP4 ISZERO PUSH2 0x71B JUMPI PUSH1 0x3 DUP1 SLOAD PUSH1 0x40 MLOAD PUSH4 0x33E2E11 PUSH1 0xE3 SHL DUP2 MSTORE PUSH1 0x1 PUSH1 0x1 PUSH1 0xA0 SHL SUB SWAP1 SWAP2 AND SWAP2 PUSH4 0x19F17088 SWAP2 PUSH2 0x407 SWAP2 DUP13 SWAP2 DUP13 SWAP2 DUP12 SWAP2 PUSH1 0x4 ADD PUSH2 0x5B0F JUMP JUMPDEST PUSH1 0x0 PUSH1 0x40 MLOAD DUP1 DUP4 SUB DUP2 PUSH1 0x0 DUP8 DUP1 EXTCODESIZE ISZERO DUP1 ISZERO PUSH2 0x421 JUMPI PUSH1 0x0 DUP1 REVERT JUMPDEST POP GAS CALL ISZERO DUP1 ISZERO PUSH2 0x435 JUMPI RETURNDATASIZE PUSH1 0x0 DUP1 RETURNDATACOPY RETURNDATASIZE PUSH1 0x0 REVERT JUMPDEST POP POP POP POP PUSH1 0x0 DUP1 MLOAD PUSH1 0x20 PUSH2 0x5FD0 DUP4 CODECOPY DUP2 MLOAD SWAP2 MSTORE DUP9 DUP9 DUP8 PUSH1 0x3 PUSH1 0x1 CALLER PUSH1 0x40 MLOAD PUSH2 0x462 SWAP7 SWAP6 SWAP5 SWAP4 SWAP3 SWAP2 SWAP1 PUSH2 0x5B39 JUMP JUMPDEST PUSH1 0x40 MLOAD DUP1 SWAP2 SUB SWAP1 LOG1 PUSH1 0x3 SLOAD PUSH1 0x40 MLOAD PUSH4 0x21D90A27 PUSH1 0xE0 SHL DUP2 MSTORE PUSH1 0x4 DUP2 ADD DUP11 SWAP1 MSTORE PUSH1 0x1 PUSH1 0x1 PUSH1 0xA0 SHL SUB DUP10 DUP2 AND PUSH1 0x24 DUP4 ADD MSTORE PUSH1 0x0 SWAP3 AND SWAP1 PUSH4 0x21D90A27 SWAP1 PUSH1 0x44 ADD PUSH1 0x20 PUSH1 0x40 MLOAD DUP1 DUP4 SUB DUP2 DUP7 DUP1 EXTCODESIZE ISZERO DUP1 ISZERO PUSH2 0x4B7 JUMPI PUSH1 0x0 DUP1 REVERT JUMPDEST POP GAS STATICCALL ISZERO DUP1 ISZERO PUSH2 0x4CB JUMPI RETURNDATASIZE PUSH1 0x0 DUP1 RETURNDATACOPY RETURNDATASIZE PUSH1 0x0 REVERT JUMPDEST POP POP POP POP PUSH1 0x40 MLOAD RETURNDATASIZE PUSH1 0x1F NOT PUSH1 0x1F DUP3 ADD AND DUP3 ADD DUP1 PUSH1 0x40 MSTORE POP DUP2 ADD SWAP1 PUSH2 0x4EF SWAP2 SWAP1 PUSH2 0x547D JUMP JUMPDEST GT PUSH2 0x515 JUMPI PUSH1 0x1 PUSH1 0x1 PUSH1 0xA0 SHL SUB DUP8 AND PUSH1 0x0 SWAP1 DUP2 MSTORE PUSH1 0x4 PUSH1 0x20 MSTORE PUSH1 0x40 SWAP1 KECCAK256 DUP1 SLOAD PUSH1 0xFF NOT AND SWAP1 SSTORE JUMPDEST PUSH1 0x3 SLOAD PUSH1 0x40 MLOAD PUSH4 0x60B6D03 PUSH1 0xE5 SHL DUP2 MSTORE PUSH1 0x4 DUP2 ADD DUP11 SWAP1 MSTORE PUSH1 0x1 PUSH1 0x1 PUSH1 0xA0 SHL SUB DUP10 DUP2 AND PUSH1 0x24 DUP4 ADD MSTORE SWAP1 SWAP2 AND SWAP1 PUSH4 0xC16DA060 SWAP1 PUSH1 0x44 ADD PUSH1 0x0 PUSH1 0x40 MLOAD DUP1 DUP4 SUB DUP2 PUSH1 0x0 DUP8 DUP1 EXTCODESIZE ISZERO DUP1 ISZERO PUSH2 0x563 JUMPI PUSH1 0x0 DUP1 REVERT JUMPDEST POP GAS CALL ISZERO DUP1 ISZERO PUSH2 0x577 JUMPI RETURNDATASIZE PUSH1 0x0 DUP1 RETURNDATACOPY RETURNDATASIZE PUSH1 0x0 REVERT JUMPDEST POP POP POP POP PUSH2 0x587 DUP9 DUP7 DUP6 DUP10 PUSH2 0x3B07 JUMP JUMPDEST PUSH1 0x3 SLOAD PUSH1 0x40 MLOAD PUSH4 0x7C34EB85 PUSH1 0xE0 SHL DUP2 MSTORE PUSH1 0x4 DUP2 ADD DUP11 SWAP1 MSTORE PUSH1 0x0 SWAP2 PUSH1 0x1 PUSH1 0x1 PUSH1 0xA0 SHL SUB AND SWAP1 PUSH4 0x7C34EB85 SWAP1 PUSH1 0x24 ADD PUSH1 0x20 PUSH1 0x40 MLOAD DUP1 DUP4 SUB DUP2 DUP7 DUP1 EXTCODESIZE ISZERO DUP1 ISZERO PUSH2 0x5CC JUMPI PUSH1 0x0 DUP1 REVERT JUMPDEST POP GAS STATICCALL ISZERO DUP1 ISZERO PUSH2 0x5E0 JUMPI RETURNDATASIZE PUSH1 0x0 DUP1 RETURNDATACOPY RETURNDATASIZE PUSH1 0x0 REVERT JUMPDEST POP POP POP POP PUSH1 0x40 MLOAD RETURNDATASIZE PUSH1 0x1F NOT PUSH1 0x1F DUP3 ADD AND DUP3 ADD DUP1 PUSH1 0x40 MSTORE POP DUP2 ADD SWAP1 PUSH2 0x604 SWAP2 SWAP1 PUSH2 0x53D9 JUMP JUMPDEST SWAP1 POP DUP1 ISZERO PUSH2 0x696 JUMPI PUSH1 0x3 SLOAD PUSH1 0x40 MLOAD PUSH4 0xE1CA7CA7 PUSH1 0xE0 SHL DUP2 MSTORE PUSH1 0x4 DUP2 ADD DUP12 SWAP1 MSTORE PUSH1 0x24 DUP2 ADD DUP9 SWAP1 MSTORE PUSH1 0x1 PUSH1 0x1 PUSH1 0xA0 SHL SUB SWAP1 SWAP2 AND SWAP1 PUSH4 0xE1CA7CA7 SWAP1 PUSH1 0x44 ADD PUSH1 0x20 PUSH1 0x40 MLOAD DUP1 DUP4 SUB DUP2 DUP7 DUP1 EXTCODESIZE ISZERO DUP1 ISZERO PUSH2 0x657 JUMPI PUSH1 0x0 DUP1 REVERT JUMPDEST POP GAS STATICCALL ISZERO DUP1 ISZERO PUSH2 0x66B JUMPI RETURNDATASIZE PUSH1 0x0 DUP1 RETURNDATACOPY RETURNDATASIZE PUSH1 0x0 REVERT JUMPDEST POP POP POP POP PUSH1 0x40 MLOAD RETURNDATASIZE PUSH1 0x1F NOT PUSH1 0x1F DUP3 ADD AND DUP3 ADD DUP1 PUSH1 0x40 MSTORE POP DUP2 ADD SWAP1 PUSH2 0x68F SWAP2 SWAP1 PUSH2 0x547D JUMP JUMPDEST SWAP2 POP PUSH2 0x715 JUMP JUMPDEST PUSH1 0x3 SLOAD PUSH1 0x40 MLOAD PUSH4 0x374B9CC1 PUSH1 0xE1 SHL DUP2 MSTORE PUSH1 0x4 DUP2 ADD DUP12 SWAP1 MSTORE PUSH1 0x1 PUSH1 0x1 PUSH1 0xA0 SHL SUB SWAP1 SWAP2 AND SWAP1 PUSH4 0x6E973982 SWAP1 PUSH1 0x24 ADD PUSH1 0x20 PUSH1 0x40 MLOAD DUP1 DUP4 SUB DUP2 DUP7 DUP1 EXTCODESIZE ISZERO DUP1 ISZERO PUSH2 0x6DA JUMPI PUSH1 0x0 DUP1 REVERT JUMPDEST POP GAS STATICCALL ISZERO DUP1 ISZERO PUSH2 0x6EE JUMPI RETURNDATASIZE PUSH1 0x0 DUP1 RETURNDATACOPY RETURNDATASIZE PUSH1 0x0 REVERT JUMPDEST POP POP POP POP PUSH1 0x40 MLOAD RETURNDATASIZE PUSH1 0x1F NOT PUSH1 0x1F DUP3 ADD AND DUP3 ADD DUP1 PUSH1 0x40 MSTORE POP DUP2 ADD SWAP1 PUSH2 0x712 SWAP2 SWAP1 PUSH2 0x547D JUMP JUMPDEST SWAP2 POP JUMPDEST POP PUSH2 0x90B JUMP JUMPDEST PUSH1 0x3 SLOAD PUSH1 0x40 MLOAD PUSH4 0x33E2E11 PUSH1 0xE3 SHL DUP2 MSTORE PUSH1 0x1 PUSH1 0x1 PUSH1 0xA0 SHL SUB SWAP1 SWAP2 AND SWAP1 PUSH4 0x19F17088 SWAP1 PUSH2 0x752 SWAP1 DUP12 SWAP1 DUP12 SWAP1 DUP11 SWAP1 PUSH1 0x2 SWAP1 PUSH1 0x4 ADD PUSH2 0x5B0F JUMP JUMPDEST PUSH1 0x0 PUSH1 0x40 MLOAD DUP1 DUP4 SUB DUP2 PUSH1 0x0 DUP8 DUP1 EXTCODESIZE ISZERO DUP1 ISZERO PUSH2 0x76C JUMPI PUSH1 0x0 DUP1 REVERT JUMPDEST POP GAS CALL ISZERO DUP1 ISZERO PUSH2 0x780 JUMPI RETURNDATASIZE PUSH1 0x0 DUP1 RETURNDATACOPY RETURNDATASIZE PUSH1 0x0 REVERT JUMPDEST POP POP POP POP PUSH1 0x0 DUP1 MLOAD PUSH1 0x20 PUSH2 0x5FD0 DUP4 CODECOPY DUP2 MLOAD SWAP2 MSTORE DUP9 DUP9 DUP8 PUSH1 0x2 PUSH1 0x1 CALLER PUSH1 0x40 MLOAD PUSH2 0x7AD SWAP7 SWAP6 SWAP5 SWAP4 SWAP3 SWAP2 SWAP1 PUSH2 0x5B39 JUMP JUMPDEST PUSH1 0x40 MLOAD DUP1 SWAP2 SUB SWAP1 LOG1 PUSH1 0x3 SLOAD PUSH1 0x40 MLOAD PUSH4 0x7E8AFD3 PUSH1 0xE2 SHL DUP2 MSTORE PUSH1 0x1 PUSH1 0x1 PUSH1 0xA0 SHL SUB SWAP1 SWAP2 AND SWAP1 PUSH4 0x1FA2BF4C SWAP1 PUSH2 0x7EA SWAP1 DUP12 SWAP1 DUP10 SWAP1 PUSH1 0x5 SWAP1 PUSH1 0x4 ADD PUSH2 0x5CAC JUMP JUMPDEST PUSH1 0x0 PUSH1 0x40 MLOAD DUP1 DUP4 SUB DUP2 PUSH1 0x0 DUP8 DUP1 EXTCODESIZE ISZERO DUP1 ISZERO PUSH2 0x804 JUMPI PUSH1 0x0 DUP1 REVERT JUMPDEST POP GAS CALL ISZERO DUP1 ISZERO PUSH2 0x818 JUMPI RETURNDATASIZE PUSH1 0x0 DUP1 RETURNDATACOPY RETURNDATASIZE PUSH1 0x0 REVERT JUMPDEST POP POP POP POP PUSH1 0x0 DUP1 MLOAD PUSH1 0x20 PUSH2 0x5F70 DUP4 CODECOPY DUP2 MLOAD SWAP2 MSTORE DUP9 DUP7 PUSH1 0x5 CALLER PUSH1 0x40 MLOAD PUSH2 0x840 SWAP5 SWAP4 SWAP3 SWAP2 SWAP1 PUSH2 0x5CC7 JUMP JUMPDEST PUSH1 0x40 MLOAD DUP1 SWAP2 SUB SWAP1 LOG1 POP PUSH1 0x40 DUP1 MLOAD PUSH1 0x60 DUP2 ADD DUP3 MSTORE PUSH1 0x1 PUSH1 0x1 PUSH1 0xA0 SHL SUB DUP9 DUP2 AND DUP3 MSTORE PUSH1 0x20 DUP1 DUP4 ADD DUP7 DUP2 MSTORE DUP4 DUP6 ADD DUP7 SWAP1 MSTORE PUSH1 0x0 DUP13 DUP2 MSTORE PUSH1 0x5 DUP4 MSTORE DUP6 DUP2 KECCAK256 DUP11 DUP3 MSTORE DUP4 MSTORE SWAP5 DUP6 KECCAK256 DUP5 MLOAD DUP2 SLOAD PUSH1 0x1 PUSH1 0x1 PUSH1 0xA0 SHL SUB NOT AND SWAP5 AND SWAP4 SWAP1 SWAP4 OR DUP4 SSTORE MLOAD DUP1 MLOAD PUSH2 0x8AB SWAP3 PUSH1 0x1 DUP6 ADD SWAP3 ADD SWAP1 PUSH2 0x4B9F JUMP JUMPDEST POP PUSH1 0x40 DUP3 ADD MLOAD DUP1 MLOAD PUSH2 0x8C7 SWAP2 PUSH1 0x2 DUP5 ADD SWAP2 PUSH1 0x20 SWAP1 SWAP2 ADD SWAP1 PUSH2 0x4B9F JUMP JUMPDEST POP SWAP1 POP POP PUSH32 0x172D6C6E249760B8E15752FF2F2D6393B1BCAE621075BC7EC0F30B0D1F8C04B1 DUP9 DUP7 DUP10 DUP7 DUP7 PUSH1 0x40 MLOAD PUSH2 0x902 SWAP6 SWAP5 SWAP4 SWAP3 SWAP2 SWAP1 PUSH2 0x5C61 JUMP JUMPDEST PUSH1 0x40 MLOAD DUP1 SWAP2 SUB SWAP1 LOG1 JUMPDEST SWAP8 SWAP7 POP POP POP POP POP POP POP JUMP JUMPDEST PUSH1 0x2 SLOAD PUSH1 0x1 PUSH1 0x1 PUSH1 0xA0 SHL SUB AND CALLER EQ PUSH2 0x941 JUMPI PUSH1 0x40 MLOAD PUSH4 0x48E2D49 PUSH1 0xE4 SHL DUP2 MSTORE PUSH1 0x4 ADD PUSH2 0x3A1 SWAP1 PUSH2 0x5A4C JUMP JUMPDEST PUSH1 0x1 SLOAD PUSH1 0x3 DUP1 SLOAD PUSH1 0x1 PUSH1 0x1 PUSH1 0xA0 SHL SUB NOT AND PUSH1 0x1 PUSH1 0x1 PUSH1 0xA0 SHL SUB SWAP1 SWAP3 AND SWAP2 DUP3 OR SWAP1 SSTORE PUSH1 0x40 MLOAD PUSH4 0x17E925D7 PUSH1 0xE0 SHL DUP2 MSTORE PUSH4 0x17E925D7 SWAP1 PUSH2 0x986 SWAP1 DUP5 SWAP1 PUSH1 0x6 SWAP1 PUSH1 0x4 ADD PUSH2 0x5C07 JUMP JUMPDEST PUSH1 0x0 PUSH1 0x40 MLOAD DUP1 DUP4 SUB DUP2 PUSH1 0x0 DUP8 DUP1 EXTCODESIZE ISZERO DUP1 ISZERO PUSH2 0x9A0 JUMPI PUSH1 0x0 DUP1 REVERT JUMPDEST POP GAS CALL ISZERO DUP1 ISZERO PUSH2 0x9B4 JUMPI RETURNDATASIZE PUSH1 0x0 DUP1 RETURNDATACOPY RETURNDATASIZE PUSH1 0x0 REVERT JUMPDEST POP POP POP POP PUSH1 0x0 DUP1 MLOAD PUSH1 0x20 PUSH2 0x5F90 DUP4 CODECOPY DUP2 MLOAD SWAP2 MSTORE DUP2 PUSH1 0x6 CALLER PUSH1 0x40 MLOAD PUSH2 0x9DA SWAP4 SWAP3 SWAP2 SWAP1 PUSH2 0x5C1B JUMP JUMPDEST PUSH1 0x40 MLOAD DUP1 SWAP2 SUB SWAP1 LOG1 POP JUMP JUMPDEST PUSH1 0x2 SLOAD PUSH1 0x1 PUSH1 0x1 PUSH1 0xA0 SHL SUB AND CALLER EQ PUSH2 0xA10 JUMPI PUSH1 0x40 MLOAD PUSH4 0x48E2D49 PUSH1 0xE4 SHL DUP2 MSTORE PUSH1 0x4 ADD PUSH2 0x3A1 SWAP1 PUSH2 0x5A4C JUMP JUMPDEST PUSH1 0x1 SLOAD PUSH1 0x3 DUP1 SLOAD PUSH1 0x1 PUSH1 0x1 PUSH1 0xA0 SHL SUB NOT AND PUSH1 0x1 PUSH1 0x1 PUSH1 0xA0 SHL SUB SWAP3 DUP4 AND SWAP1 DUP2 OR SWAP1 SWAP2 SSTORE PUSH1 0x40 MLOAD PUSH4 0xB91B961 PUSH1 0xE1 SHL DUP2 MSTORE SWAP2 DUP5 AND PUSH1 0x4 DUP4 ADD MSTORE PUSH1 0x24 DUP3 ADD DUP4 SWAP1 MSTORE SWAP1 PUSH4 0x172372C2 SWAP1 PUSH1 0x44 ADD PUSH1 0x0 PUSH1 0x40 MLOAD DUP1 DUP4 SUB DUP2 PUSH1 0x0 DUP8 DUP1 EXTCODESIZE ISZERO DUP1 ISZERO PUSH2 0xA72 JUMPI PUSH1 0x0 DUP1 REVERT JUMPDEST POP GAS CALL ISZERO DUP1 ISZERO PUSH2 0xA86 JUMPI RETURNDATASIZE PUSH1 0x0 DUP1 RETURNDATACOPY RETURNDATASIZE PUSH1 0x0 REVERT JUMPDEST POP POP PUSH1 0x40 DUP1 MLOAD PUSH1 0x1 PUSH1 0x1 PUSH1 0xA0 SHL SUB DUP7 AND DUP2 MSTORE PUSH1 0x20 DUP2 ADD DUP6 SWAP1 MSTORE PUSH32 0xC16A526F30E4A8A0C961612A86DD4F0D47D133361B7C070FBD47ABE6862917BA SWAP4 POP ADD SWAP1 POP JUMPDEST PUSH1 0x40 MLOAD DUP1 SWAP2 SUB SWAP1 LOG1 POP POP JUMP JUMPDEST PUSH1 0x2 SLOAD PUSH1 0x1 PUSH1 0x1 PUSH1 0xA0 SHL SUB AND CALLER EQ PUSH2 0xAFD JUMPI PUSH1 0x40 MLOAD PUSH4 0x48E2D49 PUSH1 0xE4 SHL DUP2 MSTORE PUSH1 0x4 ADD PUSH2 0x3A1 SWAP1 PUSH2 0x5A4C JUMP JUMPDEST PUSH1 0x1 SLOAD PUSH1 0x1 PUSH1 0x1 PUSH1 0xA0 SHL SUB DUP3 DUP2 AND SWAP2 AND EQ PUSH2 0xB2E JUMPI PUSH1 0x1 DUP1 SLOAD PUSH1 0x1 PUSH1 0x1 PUSH1 0xA0 SHL SUB NOT AND PUSH1 0x1 PUSH1 0x1 PUSH1 0xA0 SHL SUB DUP4 AND OR SWAP1 SSTORE JUMPDEST POP JUMP JUMPDEST PUSH1 0x2 SLOAD PUSH1 0x0 SWAP1 PUSH1 0x1 PUSH1 0x1 PUSH1 0xA0 SHL SUB AND CALLER EQ PUSH2 0xB5F JUMPI PUSH1 0x40 MLOAD PUSH4 0x48E2D49 PUSH1 0xE4 SHL DUP2 MSTORE PUSH1 0x4 ADD PUSH2 0x3A1 SWAP1 PUSH2 0x5A4C JUMP JUMPDEST PUSH1 0x1 SLOAD PUSH1 0x3 DUP1 SLOAD PUSH1 0x1 PUSH1 0x1 PUSH1 0xA0 SHL SUB NOT AND PUSH1 0x1 PUSH1 0x1 PUSH1 0xA0 SHL SUB SWAP1 SWAP3 AND SWAP2 DUP3 OR SWAP1 SSTORE PUSH1 0x40 MLOAD PUSH4 0xA74DEB9B PUSH1 0xE0 SHL DUP2 MSTORE PUSH1 0x0 SWAP2 SWAP1 PUSH4 0xA74DEB9B SWAP1 PUSH2 0xBA7 SWAP1 DUP8 SWAP1 DUP8 SWAP1 PUSH1 0x4 ADD PUSH2 0x5A7B JUMP JUMPDEST PUSH1 0x20 PUSH1 0x40 MLOAD DUP1 DUP4 SUB DUP2 PUSH1 0x0 DUP8 DUP1 EXTCODESIZE ISZERO DUP1 ISZERO PUSH2 0xBC1 JUMPI PUSH1 0x0 DUP1 REVERT JUMPDEST POP GAS CALL ISZERO DUP1 ISZERO PUSH2 0xBD5 JUMPI RETURNDATASIZE PUSH1 0x0 DUP1 RETURNDATACOPY RETURNDATASIZE PUSH1 0x0 REVERT JUMPDEST POP POP POP POP PUSH1 0x40 MLOAD RETURNDATASIZE PUSH1 0x1F NOT PUSH1 0x1F DUP3 ADD AND DUP3 ADD DUP1 PUSH1 0x40 MSTORE POP DUP2 ADD SWAP1 PUSH2 0xBF9 SWAP2 SWAP1 PUSH2 0x547D JUMP JUMPDEST SWAP1 POP PUSH32 0x9096640C11BD5636CED741C9725E5FF774B334455C80E15491F15BB3AF0BC265 DUP4 DUP3 DUP7 PUSH1 0x40 MLOAD PUSH2 0xC2E SWAP4 SWAP3 SWAP2 SWAP1 PUSH2 0x59CC JUMP JUMPDEST PUSH1 0x40 MLOAD DUP1 SWAP2 SUB SWAP1 LOG1 SWAP1 POP JUMPDEST SWAP3 SWAP2 POP POP JUMP JUMPDEST PUSH1 0x2 SLOAD PUSH1 0x0 SWAP1 DUP2 SWAP1 PUSH1 0x1 PUSH1 0x1 PUSH1 0xA0 SHL SUB AND CALLER EQ PUSH2 0xC6F JUMPI PUSH1 0x40 MLOAD PUSH4 0x48E2D49 PUSH1 0xE4 SHL DUP2 MSTORE PUSH1 0x4 ADD PUSH2 0x3A1 SWAP1 PUSH2 0x5A4C JUMP JUMPDEST PUSH1 0x1 SLOAD PUSH1 0x3 DUP1 SLOAD PUSH1 0x1 PUSH1 0x1 PUSH1 0xA0 SHL SUB NOT AND PUSH1 0x1 PUSH1 0x1 PUSH1 0xA0 SHL SUB SWAP3 DUP4 AND SWAP1 DUP2 OR SWAP1 SWAP2 SSTORE PUSH1 0x40 MLOAD PUSH4 0x8B3F3A6F PUSH1 0xE0 SHL DUP2 MSTORE PUSH1 0x4 DUP2 ADD DUP8 SWAP1 MSTORE SWAP2 DUP6 AND PUSH1 0x24 DUP4 ADD MSTORE PUSH1 0x0 PUSH1 0x44 DUP4 ADD DUP2 SWAP1 MSTORE PUSH1 0x60 SWAP3 SWAP1 SWAP2 SWAP1 PUSH4 0x8B3F3A6F SWAP1 PUSH1 0x64 ADD PUSH1 0x0 PUSH1 0x40 MLOAD DUP1 DUP4 SUB DUP2 DUP7 DUP1 EXTCODESIZE ISZERO DUP1 ISZERO PUSH2 0xCDD JUMPI PUSH1 0x0 DUP1 REVERT JUMPDEST POP GAS STATICCALL ISZERO DUP1 ISZERO PUSH2 0xCF1 JUMPI RETURNDATASIZE PUSH1 0x0 DUP1 RETURNDATACOPY RETURNDATASIZE PUSH1 0x0 REVERT JUMPDEST POP POP POP POP PUSH1 0x40 MLOAD RETURNDATASIZE PUSH1 0x0 DUP3 RETURNDATACOPY PUSH1 0x1F RETURNDATASIZE SWAP1 DUP2 ADD PUSH1 0x1F NOT AND DUP3 ADD PUSH1 0x40 MSTORE PUSH2 0xD19 SWAP2 SWAP1 DUP2 ADD SWAP1 PUSH2 0x533A JUMP JUMPDEST DUP2 MLOAD SWAP2 SWAP4 POP SWAP2 POP PUSH2 0xD32 JUMPI PUSH1 0x0 DUP1 SWAP4 POP SWAP4 POP POP POP PUSH2 0x1024 JUMP JUMPDEST PUSH1 0x0 JUMPDEST DUP3 MLOAD DUP2 LT ISZERO PUSH2 0xE22 JUMPI PUSH1 0x3 SLOAD DUP4 MLOAD PUSH1 0x1 PUSH1 0x1 PUSH1 0xA0 SHL SUB SWAP1 SWAP2 AND SWAP1 PUSH4 0x6C431904 SWAP1 DUP10 SWAP1 DUP10 SWAP1 DUP8 SWAP1 DUP7 SWAP1 DUP2 LT PUSH2 0xD6B JUMPI PUSH2 0xD6B PUSH2 0x5F13 JUMP JUMPDEST PUSH1 0x20 MUL PUSH1 0x20 ADD ADD MLOAD PUSH1 0x4 PUSH1 0x40 MLOAD DUP6 PUSH4 0xFFFFFFFF AND PUSH1 0xE0 SHL DUP2 MSTORE PUSH1 0x4 ADD PUSH2 0xD94 SWAP5 SWAP4 SWAP3 SWAP2 SWAP1 PUSH2 0x5B0F JUMP JUMPDEST PUSH1 0x0 PUSH1 0x40 MLOAD DUP1 DUP4 SUB DUP2 PUSH1 0x0 DUP8 DUP1 EXTCODESIZE ISZERO DUP1 ISZERO PUSH2 0xDAE JUMPI PUSH1 0x0 DUP1 REVERT JUMPDEST POP GAS CALL ISZERO DUP1 ISZERO PUSH2 0xDC2 JUMPI RETURNDATASIZE PUSH1 0x0 DUP1 RETURNDATACOPY RETURNDATASIZE PUSH1 0x0 REVERT JUMPDEST POP POP POP POP PUSH1 0x0 DUP1 MLOAD PUSH1 0x20 PUSH2 0x5FD0 DUP4 CODECOPY DUP2 MLOAD SWAP2 MSTORE DUP8 DUP8 DUP6 DUP5 DUP2 MLOAD DUP2 LT PUSH2 0xDE9 JUMPI PUSH2 0xDE9 PUSH2 0x5F13 JUMP JUMPDEST PUSH1 0x20 MUL PUSH1 0x20 ADD ADD MLOAD PUSH1 0x4 PUSH1 0x0 CALLER PUSH1 0x40 MLOAD PUSH2 0xE08 SWAP7 SWAP6 SWAP5 SWAP4 SWAP3 SWAP2 SWAP1 PUSH2 0x5B39 JUMP JUMPDEST PUSH1 0x40 MLOAD DUP1 SWAP2 SUB SWAP1 LOG1 DUP1 PUSH2 0xE1A DUP2 PUSH2 0x5ECC JUMP JUMPDEST SWAP2 POP POP PUSH2 0xD35 JUMP JUMPDEST POP PUSH1 0x3 SLOAD PUSH1 0x40 MLOAD PUSH4 0x7C34EB85 PUSH1 0xE0 SHL DUP2 MSTORE PUSH1 0x4 DUP2 ADD DUP9 SWAP1 MSTORE PUSH1 0x0 SWAP2 PUSH1 0x1 PUSH1 0x1 PUSH1 0xA0 SHL SUB AND SWAP1 PUSH4 0x7C34EB85 SWAP1 PUSH1 0x24 ADD PUSH1 0x20 PUSH1 0x40 MLOAD DUP1 DUP4 SUB DUP2 DUP7 DUP1 EXTCODESIZE ISZERO DUP1 ISZERO PUSH2 0xE68 JUMPI PUSH1 0x0 DUP1 REVERT JUMPDEST POP GAS STATICCALL ISZERO DUP1 ISZERO PUSH2 0xE7C JUMPI RETURNDATASIZE PUSH1 0x0 DUP1 RETURNDATACOPY RETURNDATASIZE PUSH1 0x0 REVERT JUMPDEST POP POP POP POP PUSH1 0x40 MLOAD RETURNDATASIZE PUSH1 0x1F NOT PUSH1 0x1F DUP3 ADD AND DUP3 ADD DUP1 PUSH1 0x40 MSTORE POP DUP2 ADD SWAP1 PUSH2 0xEA0 SWAP2 SWAP1 PUSH2 0x53D9 JUMP JUMPDEST ISZERO PUSH2 0xF7E JUMPI PUSH1 0x0 JUMPDEST DUP4 MLOAD DUP2 LT ISZERO PUSH2 0xF78 JUMPI PUSH1 0x3 SLOAD DUP5 MLOAD PUSH1 0x1 PUSH1 0x1 PUSH1 0xA0 SHL SUB SWAP1 SWAP2 AND SWAP1 PUSH4 0xE1CA7CA7 SWAP1 DUP11 SWAP1 DUP8 SWAP1 DUP6 SWAP1 DUP2 LT PUSH2 0xEDC JUMPI PUSH2 0xEDC PUSH2 0x5F13 JUMP JUMPDEST PUSH1 0x20 MUL PUSH1 0x20 ADD ADD MLOAD PUSH1 0x40 MLOAD DUP4 PUSH4 0xFFFFFFFF AND PUSH1 0xE0 SHL DUP2 MSTORE PUSH1 0x4 ADD PUSH2 0xF0A SWAP3 SWAP2 SWAP1 SWAP2 DUP3 MSTORE PUSH1 0x20 DUP3 ADD MSTORE PUSH1 0x40 ADD SWAP1 JUMP JUMPDEST PUSH1 0x20 PUSH1 0x40 MLOAD DUP1 DUP4 SUB DUP2 DUP7 DUP1 EXTCODESIZE ISZERO DUP1 ISZERO PUSH2 0xF22 JUMPI PUSH1 0x0 DUP1 REVERT JUMPDEST POP GAS STATICCALL ISZERO DUP1 ISZERO PUSH2 0xF36 JUMPI RETURNDATASIZE PUSH1 0x0 DUP1 RETURNDATACOPY RETURNDATASIZE PUSH1 0x0 REVERT JUMPDEST POP POP POP POP PUSH1 0x40 MLOAD RETURNDATASIZE PUSH1 0x1F NOT PUSH1 0x1F DUP3 ADD AND DUP3 ADD DUP1 PUSH1 0x40 MSTORE POP DUP2 ADD SWAP1 PUSH2 0xF5A SWAP2 SWAP1 PUSH2 0x547D JUMP JUMPDEST PUSH2 0xF64 SWAP1 DUP4 PUSH2 0x5E2B JUMP JUMPDEST SWAP2 POP DUP1 PUSH2 0xF70 DUP2 PUSH2 0x5ECC JUMP JUMPDEST SWAP2 POP POP PUSH2 0xEA8 JUMP JUMPDEST POP PUSH2 0xFFD JUMP JUMPDEST PUSH1 0x3 SLOAD PUSH1 0x40 MLOAD PUSH4 0x374B9CC1 PUSH1 0xE1 SHL DUP2 MSTORE PUSH1 0x4 DUP2 ADD DUP10 SWAP1 MSTORE PUSH1 0x1 PUSH1 0x1 PUSH1 0xA0 SHL SUB SWAP1 SWAP2 AND SWAP1 PUSH4 0x6E973982 SWAP1 PUSH1 0x24 ADD PUSH1 0x20 PUSH1 0x40 MLOAD DUP1 DUP4 SUB DUP2 DUP7 DUP1 EXTCODESIZE ISZERO DUP1 ISZERO PUSH2 0xFC2 JUMPI PUSH1 0x0 DUP1 REVERT JUMPDEST POP GAS STATICCALL ISZERO DUP1 ISZERO PUSH2 0xFD6 JUMPI RETURNDATASIZE PUSH1 0x0 DUP1 RETURNDATACOPY RETURNDATASIZE PUSH1 0x0 REVERT JUMPDEST POP POP POP POP PUSH1 0x40 MLOAD RETURNDATASIZE PUSH1 0x1F NOT PUSH1 0x1F DUP3 ADD AND DUP3 ADD DUP1 PUSH1 0x40 MSTORE POP DUP2 ADD SWAP1 PUSH2 0xFFA SWAP2 SWAP1 PUSH2 0x547D JUMP JUMPDEST SWAP1 POP JUMPDEST PUSH1 0x1 PUSH1 0x1 PUSH1 0xA0 SHL SUB DUP7 AND PUSH1 0x0 SWAP1 DUP2 MSTORE PUSH1 0x4 PUSH1 0x20 MSTORE PUSH1 0x40 SWAP1 KECCAK256 DUP1 SLOAD PUSH1 0xFF NOT AND SWAP1 SSTORE SWAP1 SWAP4 POP SWAP2 POP POP JUMPDEST SWAP3 POP SWAP3 SWAP1 POP JUMP JUMPDEST PUSH1 0x2 SLOAD PUSH1 0x1 PUSH1 0x1 PUSH1 0xA0 SHL SUB AND CALLER EQ PUSH2 0x1056 JUMPI PUSH1 0x40 MLOAD PUSH4 0x48E2D49 PUSH1 0xE4 SHL DUP2 MSTORE PUSH1 0x4 ADD PUSH2 0x3A1 SWAP1 PUSH2 0x5A4C JUMP JUMPDEST PUSH1 0x1 SLOAD PUSH1 0x3 DUP1 SLOAD PUSH1 0x1 PUSH1 0x1 PUSH1 0xA0 SHL SUB NOT AND PUSH1 0x1 PUSH1 0x1 PUSH1 0xA0 SHL SUB SWAP3 DUP4 AND SWAP1 DUP2 OR SWAP1 SWAP2 SSTORE PUSH1 0x40 MLOAD PUSH4 0x193620E7 PUSH1 0xE0 SHL DUP2 MSTORE PUSH1 0x4 DUP2 ADD DUP7 SWAP1 MSTORE SWAP2 DUP4 AND PUSH1 0x24 DUP4 ADD MSTORE SWAP1 PUSH4 0x193620E7 SWAP1 PUSH1 0x44 ADD PUSH1 0x20 PUSH1 0x40 MLOAD DUP1 DUP4 SUB DUP2 DUP7 DUP1 EXTCODESIZE ISZERO DUP1 ISZERO PUSH2 0x10B6 JUMPI PUSH1 0x0 DUP1 REVERT JUMPDEST POP GAS STATICCALL ISZERO DUP1 ISZERO PUSH2 0x10CA JUMPI RETURNDATASIZE PUSH1 0x0 DUP1 RETURNDATACOPY RETURNDATASIZE PUSH1 0x0 REVERT JUMPDEST POP POP POP POP PUSH1 0x40 MLOAD RETURNDATASIZE PUSH1 0x1F NOT PUSH1 0x1F DUP3 ADD AND DUP3 ADD DUP1 PUSH1 0x40 MSTORE POP DUP2 ADD SWAP1 PUSH2 0x10EE SWAP2 SWAP1 PUSH2 0x547D JUMP JUMPDEST PUSH2 0x117C JUMPI PUSH1 0x3 SLOAD PUSH1 0x40 MLOAD PUSH4 0x18E9CB67 PUSH1 0xE1 SHL DUP2 MSTORE PUSH1 0x4 DUP2 ADD DUP6 SWAP1 MSTORE PUSH1 0x1 PUSH1 0x1 PUSH1 0xA0 SHL SUB DUP4 DUP2 AND PUSH1 0x24 DUP4 ADD MSTORE SWAP1 SWAP2 AND SWAP1 PUSH4 0x31D396CE SWAP1 PUSH1 0x44 ADD PUSH1 0x0 PUSH1 0x40 MLOAD DUP1 DUP4 SUB DUP2 PUSH1 0x0 DUP8 DUP1 EXTCODESIZE ISZERO DUP1 ISZERO PUSH2 0x1140 JUMPI PUSH1 0x0 DUP1 REVERT JUMPDEST POP GAS CALL ISZERO DUP1 ISZERO PUSH2 0x1154 JUMPI RETURNDATASIZE PUSH1 0x0 DUP1 RETURNDATACOPY RETURNDATASIZE PUSH1 0x0 REVERT JUMPDEST POP POP POP PUSH1 0x1 PUSH1 0x1 PUSH1 0xA0 SHL SUB DUP3 AND PUSH1 0x0 SWAP1 DUP2 MSTORE PUSH1 0x4 PUSH1 0x20 MSTORE PUSH1 0x40 SWAP1 KECCAK256 DUP1 SLOAD PUSH1 0xFF NOT AND PUSH1 0x1 OR SWAP1 SSTORE POP JUMPDEST PUSH1 0x0 JUMPDEST DUP3 MLOAD DUP2 LT ISZERO PUSH2 0x12DF JUMPI PUSH2 0x11AC DUP5 DUP5 DUP4 DUP2 MLOAD DUP2 LT PUSH2 0x119E JUMPI PUSH2 0x119E PUSH2 0x5F13 JUMP JUMPDEST PUSH1 0x20 MUL PUSH1 0x20 ADD ADD MLOAD DUP5 PUSH2 0x43BC JUMP JUMPDEST PUSH1 0x3 SLOAD DUP4 MLOAD PUSH1 0x1 PUSH1 0x1 PUSH1 0xA0 SHL SUB SWAP1 SWAP2 AND SWAP1 PUSH4 0x271FF03F SWAP1 DUP7 SWAP1 DUP6 SWAP1 DUP8 SWAP1 DUP7 SWAP1 DUP2 LT PUSH2 0x11D9 JUMPI PUSH2 0x11D9 PUSH2 0x5F13 JUMP JUMPDEST PUSH1 0x20 MUL PUSH1 0x20 ADD ADD MLOAD PUSH1 0x40 MLOAD DUP5 PUSH4 0xFFFFFFFF AND PUSH1 0xE0 SHL DUP2 MSTORE PUSH1 0x4 ADD PUSH2 0x11FF SWAP4 SWAP3 SWAP2 SWAP1 PUSH2 0x5AF0 JUMP JUMPDEST PUSH1 0x0 PUSH1 0x40 MLOAD DUP1 DUP4 SUB DUP2 PUSH1 0x0 DUP8 DUP1 EXTCODESIZE ISZERO DUP1 ISZERO PUSH2 0x1219 JUMPI PUSH1 0x0 DUP1 REVERT JUMPDEST POP GAS CALL ISZERO DUP1 ISZERO PUSH2 0x122D JUMPI RETURNDATASIZE PUSH1 0x0 DUP1 RETURNDATACOPY RETURNDATASIZE PUSH1 0x0 REVERT JUMPDEST POP POP PUSH1 0x3 SLOAD DUP6 MLOAD PUSH1 0x1 PUSH1 0x1 PUSH1 0xA0 SHL SUB SWAP1 SWAP2 AND SWAP3 POP PUSH4 0xCE098054 SWAP2 POP DUP7 SWAP1 DUP7 SWAP1 DUP6 SWAP1 DUP2 LT PUSH2 0x125C JUMPI PUSH2 0x125C PUSH2 0x5F13 JUMP JUMPDEST PUSH1 0x20 SWAP1 DUP2 MUL SWAP2 SWAP1 SWAP2 ADD ADD MLOAD PUSH1 0x40 MLOAD PUSH1 0x1 PUSH1 0x1 PUSH1 0xE0 SHL SUB NOT PUSH1 0xE0 DUP6 SWAP1 SHL AND DUP2 MSTORE PUSH1 0x4 DUP2 ADD SWAP3 SWAP1 SWAP3 MSTORE PUSH1 0x24 DUP3 ADD MSTORE PUSH1 0x1 PUSH1 0x1 PUSH1 0xA0 SHL SUB DUP6 AND PUSH1 0x44 DUP3 ADD MSTORE PUSH1 0x64 ADD PUSH1 0x0 PUSH1 0x40 MLOAD DUP1 DUP4 SUB DUP2 PUSH1 0x0 DUP8 DUP1 EXTCODESIZE ISZERO DUP1 ISZERO PUSH2 0x12B4 JUMPI PUSH1 0x0 DUP1 REVERT JUMPDEST POP GAS CALL ISZERO DUP1 ISZERO PUSH2 0x12C8 JUMPI RETURNDATASIZE PUSH1 0x0 DUP1 RETURNDATACOPY RETURNDATASIZE PUSH1 0x0 REVERT JUMPDEST POP POP POP POP DUP1 DUP1 PUSH2 0x12D7 SWAP1 PUSH2 0x5ECC JUMP JUMPDEST SWAP2 POP POP PUSH2 0x117F JUMP JUMPDEST POP PUSH1 0x3 SLOAD DUP3 MLOAD PUSH1 0x40 MLOAD PUSH3 0xFBE247 PUSH1 0xE8 SHL DUP2 MSTORE PUSH1 0x4 DUP2 ADD DUP7 SWAP1 MSTORE PUSH1 0x24 DUP2 ADD SWAP2 SWAP1 SWAP2 MSTORE PUSH1 0x1 PUSH1 0x1 PUSH1 0xA0 SHL SUB SWAP1 SWAP2 AND SWAP1 PUSH4 0xFBE24700 SWAP1 PUSH1 0x44 ADD PUSH1 0x0 PUSH1 0x40 MLOAD DUP1 DUP4 SUB DUP2 PUSH1 0x0 DUP8 DUP1 EXTCODESIZE ISZERO DUP1 ISZERO PUSH2 0x132F JUMPI PUSH1 0x0 DUP1 REVERT JUMPDEST POP GAS CALL ISZERO DUP1 ISZERO PUSH2 0x1343 JUMPI RETURNDATASIZE PUSH1 0x0 DUP1 RETURNDATACOPY RETURNDATASIZE PUSH1 0x0 REVERT JUMPDEST POP POP PUSH1 0x3 SLOAD DUP5 MLOAD PUSH1 0x40 MLOAD PUSH4 0xA6089639 PUSH1 0xE0 SHL DUP2 MSTORE PUSH1 0x1 PUSH1 0x1 PUSH1 0xA0 SHL SUB SWAP1 SWAP3 AND SWAP4 POP PUSH4 0xA6089639 SWAP3 POP PUSH2 0x137B SWAP2 DUP8 SWAP2 DUP7 SWAP2 PUSH1 0x4 ADD PUSH2 0x5AF0 JUMP JUMPDEST PUSH1 0x0 PUSH1 0x40 MLOAD DUP1 DUP4 SUB DUP2 PUSH1 0x0 DUP8 DUP1 EXTCODESIZE ISZERO DUP1 ISZERO PUSH2 0x1395 JUMPI PUSH1 0x0 DUP1 REVERT JUMPDEST POP GAS CALL ISZERO DUP1 ISZERO PUSH2 0x13A9 JUMPI RETURNDATASIZE PUSH1 0x0 DUP1 RETURNDATACOPY RETURNDATASIZE PUSH1 0x0 REVERT JUMPDEST POP POP PUSH1 0x3 SLOAD PUSH1 0x40 MLOAD PUSH4 0x8A9A9FF3 PUSH1 0xE0 SHL DUP2 MSTORE PUSH1 0x4 DUP2 ADD DUP8 SWAP1 MSTORE PUSH1 0x1 PUSH1 0x24 DUP3 ADD MSTORE PUSH1 0x1 PUSH1 0x1 PUSH1 0xA0 SHL SUB SWAP1 SWAP2 AND SWAP3 POP PUSH4 0x8A9A9FF3 SWAP2 POP PUSH1 0x44 ADD PUSH1 0x20 PUSH1 0x40 MLOAD DUP1 DUP4 SUB DUP2 DUP7 DUP1 EXTCODESIZE ISZERO DUP1 ISZERO PUSH2 0x13F8 JUMPI PUSH1 0x0 DUP1 REVERT JUMPDEST POP GAS STATICCALL ISZERO DUP1 ISZERO PUSH2 0x140C JUMPI RETURNDATASIZE PUSH1 0x0 DUP1 RETURNDATACOPY RETURNDATASIZE PUSH1 0x0 REVERT JUMPDEST POP POP POP POP PUSH1 0x40 MLOAD RETURNDATASIZE PUSH1 0x1F NOT PUSH1 0x1F DUP3 ADD AND DUP3 ADD DUP1 PUSH1 0x40 MSTORE POP DUP2 ADD SWAP1 PUSH2 0x1430 SWAP2 SWAP1 PUSH2 0x53D9 JUMP JUMPDEST ISZERO PUSH2 0x1680 JUMPI PUSH1 0x3 SLOAD PUSH1 0x40 MLOAD PUSH4 0x63E3CCAD PUSH1 0xE0 SHL DUP2 MSTORE PUSH1 0x4 DUP2 ADD DUP6 SWAP1 MSTORE PUSH1 0x0 PUSH1 0x24 DUP3 ADD MSTORE PUSH1 0x1 PUSH1 0x1 PUSH1 0xA0 SHL SUB SWAP1 SWAP2 AND SWAP1 PUSH4 0x63E3CCAD SWAP1 PUSH1 0x44 ADD PUSH1 0x0 PUSH1 0x40 MLOAD DUP1 DUP4 SUB DUP2 PUSH1 0x0 DUP8 DUP1 EXTCODESIZE ISZERO DUP1 ISZERO PUSH2 0x1482 JUMPI PUSH1 0x0 DUP1 REVERT JUMPDEST POP GAS CALL ISZERO DUP1 ISZERO PUSH2 0x1496 JUMPI RETURNDATASIZE PUSH1 0x0 DUP1 RETURNDATACOPY RETURNDATASIZE PUSH1 0x0 REVERT JUMPDEST POP POP POP POP PUSH32 0x6505631A30F6259A8BBF6422CDC3BD467DDC256B547DAD05C5D84ABC34ABFA18 DUP4 PUSH1 0x0 DUP4 PUSH1 0x40 MLOAD PUSH2 0x14CE SWAP4 SWAP3 SWAP2 SWAP1 PUSH2 0x5BE8 JUMP JUMPDEST PUSH1 0x40 MLOAD DUP1 SWAP2 SUB SWAP1 LOG1 PUSH1 0x3 SLOAD PUSH1 0x40 MLOAD PUSH4 0x8A9A9FF3 PUSH1 0xE0 SHL DUP2 MSTORE PUSH1 0x4 DUP2 ADD DUP6 SWAP1 MSTORE PUSH1 0x0 PUSH1 0x24 DUP3 ADD MSTORE PUSH1 0x1 PUSH1 0x1 PUSH1 0xA0 SHL SUB SWAP1 SWAP2 AND SWAP1 PUSH4 0x8A9A9FF3 SWAP1 PUSH1 0x44 ADD PUSH1 0x20 PUSH1 0x40 MLOAD DUP1 DUP4 SUB DUP2 DUP7 DUP1 EXTCODESIZE ISZERO DUP1 ISZERO PUSH2 0x1521 JUMPI PUSH1 0x0 DUP1 REVERT JUMPDEST POP GAS STATICCALL ISZERO DUP1 ISZERO PUSH2 0x1535 JUMPI RETURNDATASIZE PUSH1 0x0 DUP1 RETURNDATACOPY RETURNDATASIZE PUSH1 0x0 REVERT JUMPDEST POP POP POP POP PUSH1 0x40 MLOAD RETURNDATASIZE PUSH1 0x1F NOT PUSH1 0x1F DUP3 ADD AND DUP3 ADD DUP1 PUSH1 0x40 MSTORE POP DUP2 ADD SWAP1 PUSH2 0x1559 SWAP2 SWAP1 PUSH2 0x53D9 JUMP JUMPDEST ISZERO PUSH2 0x15F0 JUMPI PUSH1 0x3 DUP1 SLOAD PUSH1 0x40 MLOAD PUSH4 0x17E925D7 PUSH1 0xE0 SHL DUP2 MSTORE PUSH1 0x1 PUSH1 0x1 PUSH1 0xA0 SHL SUB SWAP1 SWAP2 AND SWAP2 PUSH4 0x17E925D7 SWAP2 PUSH2 0x158F SWAP2 DUP8 SWAP2 PUSH1 0x4 ADD PUSH2 0x5C07 JUMP JUMPDEST PUSH1 0x0 PUSH1 0x40 MLOAD DUP1 DUP4 SUB DUP2 PUSH1 0x0 DUP8 DUP1 EXTCODESIZE ISZERO DUP1 ISZERO PUSH2 0x15A9 JUMPI PUSH1 0x0 DUP1 REVERT JUMPDEST POP GAS CALL ISZERO DUP1 ISZERO PUSH2 0x15BD JUMPI RETURNDATASIZE PUSH1 0x0 DUP1 RETURNDATACOPY RETURNDATASIZE PUSH1 0x0 REVERT JUMPDEST POP POP POP POP PUSH1 0x0 DUP1 MLOAD PUSH1 0x20 PUSH2 0x5F90 DUP4 CODECOPY DUP2 MLOAD SWAP2 MSTORE DUP4 PUSH1 0x3 DUP4 PUSH1 0x40 MLOAD PUSH2 0x15E3 SWAP4 SWAP3 SWAP2 SWAP1 PUSH2 0x5C1B JUMP JUMPDEST PUSH1 0x40 MLOAD DUP1 SWAP2 SUB SWAP1 LOG1 PUSH2 0x1680 JUMP JUMPDEST PUSH1 0x3 SLOAD PUSH1 0x40 MLOAD PUSH4 0x17E925D7 PUSH1 0xE0 SHL DUP2 MSTORE PUSH1 0x1 PUSH1 0x1 PUSH1 0xA0 SHL SUB SWAP1 SWAP2 AND SWAP1 PUSH4 0x17E925D7 SWAP1 PUSH2 0x1623 SWAP1 DUP7 SWAP1 PUSH1 0x2 SWAP1 PUSH1 0x4 ADD PUSH2 0x5C07 JUMP JUMPDEST PUSH1 0x0 PUSH1 0x40 MLOAD DUP1 DUP4 SUB DUP2 PUSH1 0x0 DUP8 DUP1 EXTCODESIZE ISZERO DUP1 ISZERO PUSH2 0x163D JUMPI PUSH1 0x0 DUP1 REVERT JUMPDEST POP GAS CALL ISZERO DUP1 ISZERO PUSH2 0x1651 JUMPI RETURNDATASIZE PUSH1 0x0 DUP1 RETURNDATACOPY RETURNDATASIZE PUSH1 0x0 REVERT JUMPDEST POP POP POP POP PUSH1 0x0 DUP1 MLOAD PUSH1 0x20 PUSH2 0x5F90 DUP4 CODECOPY DUP2 MLOAD SWAP2 MSTORE DUP4 PUSH1 0x2 DUP4 PUSH1 0x40 MLOAD PUSH2 0x1677 SWAP4 SWAP3 SWAP2 SWAP1 PUSH2 0x5C1B JUMP JUMPDEST PUSH1 0x40 MLOAD DUP1 SWAP2 SUB SWAP1 LOG1 JUMPDEST PUSH32 0x8E913351AA76002E572CC432B46556976F6E10285B52F94909124EA8EBD0B795 DUP4 DUP4 DUP4 PUSH1 0x1 PUSH1 0x40 MLOAD PUSH2 0x16B6 SWAP5 SWAP4 SWAP3 SWAP2 SWAP1 PUSH2 0x5BAE JUMP JUMPDEST PUSH1 0x40 MLOAD DUP1 SWAP2 SUB SWAP1 LOG1 POP POP POP JUMP JUMPDEST PUSH1 0x2 SLOAD PUSH1 0x1 PUSH1 0x1 PUSH1 0xA0 SHL SUB AND CALLER EQ PUSH2 0x16EE JUMPI PUSH1 0x40 MLOAD PUSH4 0x48E2D49 PUSH1 0xE4 SHL DUP2 MSTORE PUSH1 0x4 ADD PUSH2 0x3A1 SWAP1 PUSH2 0x5A4C JUMP JUMPDEST PUSH1 0x1 SLOAD PUSH1 0x3 DUP1 SLOAD PUSH1 0x1 PUSH1 0x1 PUSH1 0xA0 SHL SUB NOT AND PUSH1 0x1 PUSH1 0x1 PUSH1 0xA0 SHL SUB SWAP3 DUP4 AND SWAP1 DUP2 OR SWAP1 SWAP2 SSTORE PUSH1 0x40 MLOAD PUSH4 0x2BC206D3 PUSH1 0xE1 SHL DUP2 MSTORE SWAP2 DUP5 AND PUSH1 0x4 DUP4 ADD MSTORE PUSH1 0x24 DUP3 ADD DUP4 SWAP1 MSTORE SWAP1 PUSH4 0x57840DA6 SWAP1 PUSH1 0x44 ADD PUSH1 0x0 PUSH1 0x40 MLOAD DUP1 DUP4 SUB DUP2 PUSH1 0x0 DUP8 DUP1 EXTCODESIZE ISZERO DUP1 ISZERO PUSH2 0x1750 JUMPI PUSH1 0x0 DUP1 REVERT JUMPDEST POP GAS CALL ISZERO DUP1 ISZERO PUSH2 0x1764 JUMPI RETURNDATASIZE PUSH1 0x0 DUP1 RETURNDATACOPY RETURNDATASIZE PUSH1 0x0 REVERT JUMPDEST POP POP PUSH1 0x40 DUP1 MLOAD PUSH1 0x1 PUSH1 0x1 PUSH1 0xA0 SHL SUB DUP7 AND DUP2 MSTORE PUSH1 0x20 DUP2 ADD DUP6 SWAP1 MSTORE PUSH32 0xCACDAAE87FAB2EE68A526162E212DA20FCA4522BAB7095FACCFECBEDF98EBF5A SWAP4 POP ADD SWAP1 POP PUSH2 0xAC6 JUMP JUMPDEST PUSH1 0x2 SLOAD PUSH1 0x0 SWAP1 DUP2 SWAP1 PUSH1 0x1 PUSH1 0x1 PUSH1 0xA0 SHL SUB AND CALLER EQ PUSH2 0x17D8 JUMPI PUSH1 0x40 MLOAD PUSH4 0x48E2D49 PUSH1 0xE4 SHL DUP2 MSTORE PUSH1 0x4 ADD PUSH2 0x3A1 SWAP1 PUSH2 0x5A4C JUMP JUMPDEST PUSH1 0x1 DUP1 SLOAD PUSH1 0x3 DUP1 SLOAD PUSH1 0x1 PUSH1 0x1 PUSH1 0xA0 SHL SUB NOT AND PUSH1 0x1 PUSH1 0x1 PUSH1 0xA0 SHL SUB SWAP3 DUP4 AND SWAP1 DUP2 OR SWAP1 SWAP2 SSTORE PUSH1 0x40 MLOAD PUSH4 0x8B3F3A6F PUSH1 0xE0 SHL DUP2 MSTORE PUSH1 0x4 DUP2 ADD DUP9 SWAP1 MSTORE SWAP2 DUP7 AND PUSH1 0x24 DUP4 ADD MSTORE PUSH1 0x44 DUP3 ADD SWAP3 SWAP1 SWAP3 MSTORE PUSH1 0x60 SWAP2 PUSH1 0x0 SWAP2 PUSH4 0x8B3F3A6F SWAP1 PUSH1 0x64 ADD PUSH1 0x0 PUSH1 0x40 MLOAD DUP1 DUP4 SUB DUP2 DUP7 DUP1 EXTCODESIZE ISZERO DUP1 ISZERO PUSH2 0x1846 JUMPI PUSH1 0x0 DUP1 REVERT JUMPDEST POP GAS STATICCALL ISZERO DUP1 ISZERO PUSH2 0x185A JUMPI RETURNDATASIZE PUSH1 0x0 DUP1 RETURNDATACOPY RETURNDATASIZE PUSH1 0x0 REVERT JUMPDEST POP POP POP POP PUSH1 0x40 MLOAD RETURNDATASIZE PUSH1 0x0 DUP3 RETURNDATACOPY PUSH1 0x1F RETURNDATASIZE SWAP1 DUP2 ADD PUSH1 0x1F NOT AND DUP3 ADD PUSH1 0x40 MSTORE PUSH2 0x1882 SWAP2 SWAP1 DUP2 ADD SWAP1 PUSH2 0x533A JUMP JUMPDEST DUP2 MLOAD SWAP2 SWAP4 POP SWAP2 POP PUSH2 0x189B JUMPI PUSH1 0x0 DUP1 SWAP4 POP SWAP4 POP POP POP PUSH2 0x1024 JUMP JUMPDEST PUSH1 0x0 JUMPDEST DUP3 MLOAD DUP2 LT ISZERO PUSH2 0x198B JUMPI PUSH1 0x3 SLOAD DUP4 MLOAD PUSH1 0x1 PUSH1 0x1 PUSH1 0xA0 SHL SUB SWAP1 SWAP2 AND SWAP1 PUSH4 0x19F17088 SWAP1 DUP10 SWAP1 DUP10 SWAP1 DUP8 SWAP1 DUP7 SWAP1 DUP2 LT PUSH2 0x18D4 JUMPI PUSH2 0x18D4 PUSH2 0x5F13 JUMP JUMPDEST PUSH1 0x20 MUL PUSH1 0x20 ADD ADD MLOAD PUSH1 0x4 PUSH1 0x40 MLOAD DUP6 PUSH4 0xFFFFFFFF AND PUSH1 0xE0 SHL DUP2 MSTORE PUSH1 0x4 ADD PUSH2 0x18FD SWAP5 SWAP4 SWAP3 SWAP2 SWAP1 PUSH2 0x5B0F JUMP JUMPDEST PUSH1 0x0 PUSH1 0x40 MLOAD DUP1 DUP4 SUB DUP2 PUSH1 0x0 DUP8 DUP1 EXTCODESIZE ISZERO DUP1 ISZERO PUSH2 0x1917 JUMPI PUSH1 0x0 DUP1 REVERT JUMPDEST POP GAS CALL ISZERO DUP1 ISZERO PUSH2 0x192B JUMPI RETURNDATASIZE PUSH1 0x0 DUP1 RETURNDATACOPY RETURNDATASIZE PUSH1 0x0 REVERT JUMPDEST POP POP POP POP PUSH1 0x0 DUP1 MLOAD PUSH1 0x20 PUSH2 0x5FD0 DUP4 CODECOPY DUP2 MLOAD SWAP2 MSTORE DUP8 DUP8 DUP6 DUP5 DUP2 MLOAD DUP2 LT PUSH2 0x1952 JUMPI PUSH2 0x1952 PUSH2 0x5F13 JUMP JUMPDEST PUSH1 0x20 MUL PUSH1 0x20 ADD ADD MLOAD PUSH1 0x4 PUSH1 0x1 CALLER PUSH1 0x40 MLOAD PUSH2 0x1971 SWAP7 SWAP6 SWAP5 SWAP4 SWAP3 SWAP2 SWAP1 PUSH2 0x5B39 JUMP JUMPDEST PUSH1 0x40 MLOAD DUP1 SWAP2 SUB SWAP1 LOG1 DUP1 PUSH2 0x1983 DUP2 PUSH2 0x5ECC JUMP JUMPDEST SWAP2 POP POP PUSH2 0x189E JUMP JUMPDEST POP PUSH1 0x3 SLOAD PUSH1 0x40 MLOAD PUSH4 0x7C34EB85 PUSH1 0xE0 SHL DUP2 MSTORE PUSH1 0x4 DUP2 ADD DUP9 SWAP1 MSTORE PUSH1 0x0 SWAP2 PUSH1 0x1 PUSH1 0x1 PUSH1 0xA0 SHL SUB AND SWAP1 PUSH4 0x7C34EB85 SWAP1 PUSH1 0x24 ADD PUSH1 0x20 PUSH1 0x40 MLOAD DUP1 DUP4 SUB DUP2 DUP7 DUP1 EXTCODESIZE ISZERO DUP1 ISZERO PUSH2 0x19D1 JUMPI PUSH1 0x0 DUP1 REVERT JUMPDEST POP GAS STATICCALL ISZERO DUP1 ISZERO PUSH2 0x19E5 JUMPI RETURNDATASIZE PUSH1 0x0 DUP1 RETURNDATACOPY RETURNDATASIZE PUSH1 0x0 REVERT JUMPDEST POP POP POP POP PUSH1 0x40 MLOAD RETURNDATASIZE PUSH1 0x1F NOT PUSH1 0x1F DUP3 ADD AND DUP3 ADD DUP1 PUSH1 0x40 MSTORE POP DUP2 ADD SWAP1 PUSH2 0x1A09 SWAP2 SWAP1 PUSH2 0x53D9 JUMP JUMPDEST ISZERO PUSH2 0xF7E JUMPI PUSH1 0x0 JUMPDEST DUP4 MLOAD DUP2 LT ISZERO PUSH2 0xF78 JUMPI PUSH1 0x3 SLOAD DUP5 MLOAD PUSH1 0x1 PUSH1 0x1 PUSH1 0xA0 SHL SUB SWAP1 SWAP2 AND SWAP1 PUSH4 0xE1CA7CA7 SWAP1 DUP11 SWAP1 DUP8 SWAP1 DUP6 SWAP1 DUP2 LT PUSH2 0x1A45 JUMPI PUSH2 0x1A45 PUSH2 0x5F13 JUMP JUMPDEST PUSH1 0x20 MUL PUSH1 0x20 ADD ADD MLOAD PUSH1 0x40 MLOAD DUP4 PUSH4 0xFFFFFFFF AND PUSH1 0xE0 SHL DUP2 MSTORE PUSH1 0x4 ADD PUSH2 0x1A73 SWAP3 SWAP2 SWAP1 SWAP2 DUP3 MSTORE PUSH1 0x20 DUP3 ADD MSTORE PUSH1 0x40 ADD SWAP1 JUMP JUMPDEST PUSH1 0x20 PUSH1 0x40 MLOAD DUP1 DUP4 SUB DUP2 DUP7 DUP1 EXTCODESIZE ISZERO DUP1 ISZERO PUSH2 0x1A8B JUMPI PUSH1 0x0 DUP1 REVERT JUMPDEST POP GAS STATICCALL ISZERO DUP1 ISZERO PUSH2 0x1A9F JUMPI RETURNDATASIZE PUSH1 0x0 DUP1 RETURNDATACOPY RETURNDATASIZE PUSH1 0x0 REVERT JUMPDEST POP POP POP POP PUSH1 0x40 MLOAD RETURNDATASIZE PUSH1 0x1F NOT PUSH1 0x1F DUP3 ADD AND DUP3 ADD DUP1 PUSH1 0x40 MSTORE POP DUP2 ADD SWAP1 PUSH2 0x1AC3 SWAP2 SWAP1 PUSH2 0x547D JUMP JUMPDEST PUSH2 0x1ACD SWAP1 DUP4 PUSH2 0x5E2B JUMP JUMPDEST SWAP2 POP DUP1 PUSH2 0x1AD9 DUP2 PUSH2 0x5ECC JUMP JUMPDEST SWAP2 POP POP PUSH2 0x1A11 JUMP JUMPDEST PUSH1 0x2 SLOAD PUSH1 0x1 PUSH1 0x1 PUSH1 0xA0 SHL SUB AND CALLER EQ PUSH2 0x1B0C JUMPI PUSH1 0x40 MLOAD PUSH4 0x48E2D49 PUSH1 0xE4 SHL DUP2 MSTORE PUSH1 0x4 ADD PUSH2 0x3A1 SWAP1 PUSH2 0x5A4C JUMP JUMPDEST PUSH1 0x1 SLOAD PUSH1 0x3 DUP1 SLOAD PUSH1 0x1 PUSH1 0x1 PUSH1 0xA0 SHL SUB SWAP1 SWAP3 AND PUSH1 0x1 PUSH1 0x1 PUSH1 0xA0 SHL SUB NOT SWAP1 SWAP3 AND DUP3 OR SWAP1 SSTORE PUSH1 0x40 MLOAD PUSH4 0x56B03E39 PUSH1 0xE1 SHL DUP2 MSTORE PUSH1 0x4 DUP2 ADD DUP7 SWAP1 MSTORE PUSH1 0x24 DUP2 ADD DUP6 SWAP1 MSTORE PUSH1 0x5 SWAP2 SWAP1 PUSH4 0xAD607C72 SWAP1 PUSH1 0x44 ADD PUSH1 0x20 PUSH1 0x40 MLOAD DUP1 DUP4 SUB DUP2 DUP7 DUP1 EXTCODESIZE ISZERO DUP1 ISZERO PUSH2 0x1B6E JUMPI PUSH1 0x0 DUP1 REVERT JUMPDEST POP GAS STATICCALL ISZERO DUP1 ISZERO PUSH2 0x1B82 JUMPI RETURNDATASIZE PUSH1 0x0 DUP1 RETURNDATACOPY RETURNDATASIZE PUSH1 0x0 REVERT JUMPDEST POP POP POP POP PUSH1 0x40 MLOAD RETURNDATASIZE PUSH1 0x1F NOT PUSH1 0x1F DUP3 ADD AND DUP3 ADD DUP1 PUSH1 0x40 MSTORE POP DUP2 ADD SWAP1 PUSH2 0x1BA6 SWAP2 SWAP1 PUSH2 0x53F6 JUMP JUMPDEST PUSH1 0xB DUP2 GT ISZERO PUSH2 0x1BB7 JUMPI PUSH2 0x1BB7 PUSH2 0x5EFD JUMP JUMPDEST EQ ISZERO PUSH2 0x1BFE JUMPI PUSH1 0x40 DUP1 MLOAD DUP6 DUP2 MSTORE PUSH1 0x20 DUP2 ADD DUP6 SWAP1 MSTORE PUSH1 0x1 DUP2 DUP4 ADD MSTORE SWAP1 MLOAD PUSH32 0x81ECD6389CA17F05C1600520125EE92C8221396AD1755593553517594AD09810 SWAP2 DUP2 SWAP1 SUB PUSH1 0x60 ADD SWAP1 LOG1 JUMPDEST PUSH1 0x3 SLOAD PUSH1 0x40 MLOAD PUSH4 0x7E8AFD3 PUSH1 0xE2 SHL DUP2 MSTORE PUSH1 0x1 PUSH1 0x1 PUSH1 0xA0 SHL SUB SWAP1 SWAP2 AND SWAP1 PUSH4 0x1FA2BF4C SWAP1 PUSH2 0x1C32 SWAP1 DUP8 SWAP1 DUP8 SWAP1 PUSH1 0x4 SWAP1 DUP2 ADD PUSH2 0x5CAC JUMP JUMPDEST PUSH1 0x0 PUSH1 0x40 MLOAD DUP1 DUP4 SUB DUP2 PUSH1 0x0 DUP8 DUP1 EXTCODESIZE ISZERO DUP1 ISZERO PUSH2 0x1C4C JUMPI PUSH1 0x0 DUP1 REVERT JUMPDEST POP GAS CALL ISZERO DUP1 ISZERO PUSH2 0x1C60 JUMPI RETURNDATASIZE PUSH1 0x0 DUP1 RETURNDATACOPY RETURNDATASIZE PUSH1 0x0 REVERT JUMPDEST POP POP POP POP PUSH1 0x0 DUP1 MLOAD PUSH1 0x20 PUSH2 0x5F70 DUP4 CODECOPY DUP2 MLOAD SWAP2 MSTORE DUP5 DUP5 PUSH1 0x4 DUP5 PUSH1 0x40 MLOAD PUSH2 0x1C88 SWAP5 SWAP4 SWAP3 SWAP2 SWAP1 PUSH2 0x5CC7 JUMP JUMPDEST PUSH1 0x40 MLOAD DUP1 SWAP2 SUB SWAP1 LOG1 PUSH1 0x3 SLOAD PUSH1 0x40 MLOAD PUSH4 0x33E68DCD PUSH1 0xE0 SHL DUP2 MSTORE PUSH1 0x0 SWAP2 PUSH1 0x1 PUSH1 0x1 PUSH1 0xA0 SHL SUB AND SWAP1 PUSH4 0x33E68DCD SWAP1 PUSH2 0x1CC7 SWAP1 DUP9 SWAP1 DUP7 SWAP1 DUP10 SWAP1 DUP10 SWAP1 PUSH1 0x4 ADD PUSH2 0x5B81 JUMP JUMPDEST PUSH1 0x20 PUSH1 0x40 MLOAD DUP1 DUP4 SUB DUP2 PUSH1 0x0 DUP8 DUP1 EXTCODESIZE ISZERO DUP1 ISZERO PUSH2 0x1CE1 JUMPI PUSH1 0x0 DUP1 REVERT JUMPDEST POP GAS CALL ISZERO DUP1 ISZERO PUSH2 0x1CF5 JUMPI RETURNDATASIZE PUSH1 0x0 DUP1 RETURNDATACOPY RETURNDATASIZE PUSH1 0x0 REVERT JUMPDEST POP POP POP POP PUSH1 0x40 MLOAD RETURNDATASIZE PUSH1 0x1F NOT PUSH1 0x1F DUP3 ADD AND DUP3 ADD DUP1 PUSH1 0x40 MSTORE POP DUP2 ADD SWAP1 PUSH2 0x1D19 SWAP2 SWAP1 PUSH2 0x547D JUMP JUMPDEST SWAP1 POP PUSH32 0x79D1EFBC53E0B7B5B56C575CD2FD71B51F8D41409F12B1ABA3471E6678906098 DUP6 DUP6 DUP4 DUP7 DUP7 PUSH1 0x1 PUSH1 0x40 MLOAD PUSH2 0x1D55 SWAP7 SWAP6 SWAP5 SWAP4 SWAP3 SWAP2 SWAP1 PUSH2 0x5CFC JUMP JUMPDEST PUSH1 0x40 MLOAD DUP1 SWAP2 SUB SWAP1 LOG1 PUSH1 0x3 SLOAD PUSH1 0x40 MLOAD PUSH4 0x33E2E11 PUSH1 0xE3 SHL DUP2 MSTORE PUSH1 0x1 PUSH1 0x1 PUSH1 0xA0 SHL SUB SWAP1 SWAP2 AND SWAP1 PUSH4 0x19F17088 SWAP1 PUSH2 0x1D94 SWAP1 DUP9 SWAP1 DUP7 SWAP1 DUP10 SWAP1 PUSH1 0x1 SWAP1 PUSH1 0x4 ADD PUSH2 0x5B0F JUMP JUMPDEST PUSH1 0x0 PUSH1 0x40 MLOAD DUP1 DUP4 SUB DUP2 PUSH1 0x0 DUP8 DUP1 EXTCODESIZE ISZERO DUP1 ISZERO PUSH2 0x1DAE JUMPI PUSH1 0x0 DUP1 REVERT JUMPDEST POP GAS CALL ISZERO DUP1 ISZERO PUSH2 0x1DC2 JUMPI RETURNDATASIZE PUSH1 0x0 DUP1 RETURNDATACOPY RETURNDATASIZE PUSH1 0x0 REVERT JUMPDEST POP POP POP POP PUSH1 0x0 DUP1 MLOAD PUSH1 0x20 PUSH2 0x5FD0 DUP4 CODECOPY DUP2 MLOAD SWAP2 MSTORE DUP6 DUP4 DUP7 PUSH1 0x1 DUP1 CALLER PUSH1 0x40 MLOAD PUSH2 0x1DEE SWAP7 SWAP6 SWAP5 SWAP4 SWAP3 SWAP2 SWAP1 PUSH2 0x5B39 JUMP JUMPDEST PUSH1 0x40 MLOAD DUP1 SWAP2 SUB SWAP1 LOG1 POP POP POP POP POP JUMP JUMPDEST PUSH1 0x2 SLOAD PUSH1 0x1 PUSH1 0x1 PUSH1 0xA0 SHL SUB AND CALLER EQ PUSH2 0x1E28 JUMPI PUSH1 0x40 MLOAD PUSH4 0x48E2D49 PUSH1 0xE4 SHL DUP2 MSTORE PUSH1 0x4 ADD PUSH2 0x3A1 SWAP1 PUSH2 0x5A4C JUMP JUMPDEST PUSH1 0x1 SLOAD PUSH1 0x3 DUP1 SLOAD PUSH1 0x1 PUSH1 0x1 PUSH1 0xA0 SHL SUB NOT AND PUSH1 0x1 PUSH1 0x1 PUSH1 0xA0 SHL SUB SWAP1 SWAP3 AND SWAP2 DUP3 OR SWAP1 SSTORE PUSH1 0x40 MLOAD PUSH4 0xD7AFD0B PUSH1 0xE1 SHL DUP2 MSTORE PUSH4 0x1AF5FA16 SWAP1 PUSH2 0x1E6C SWAP1 DUP7 SWAP1 DUP7 SWAP1 PUSH1 0x4 ADD PUSH2 0x5C48 JUMP JUMPDEST PUSH1 0x0 PUSH1 0x40 MLOAD DUP1 DUP4 SUB DUP2 PUSH1 0x0 DUP8 DUP1 EXTCODESIZE ISZERO DUP1 ISZERO PUSH2 0x1E86 JUMPI PUSH1 0x0 DUP1 REVERT JUMPDEST POP GAS CALL ISZERO DUP1 ISZERO PUSH2 0x1E9A JUMPI RETURNDATASIZE PUSH1 0x0 DUP1 RETURNDATACOPY RETURNDATASIZE PUSH1 0x0 REVERT JUMPDEST POP POP POP POP PUSH32 0x9096640C11BD5636CED741C9725E5FF774B334455C80E15491F15BB3AF0BC265 DUP2 DUP5 DUP5 PUSH1 0x40 MLOAD PUSH2 0x16B6 SWAP4 SWAP3 SWAP2 SWAP1 PUSH2 0x59CC JUMP JUMPDEST PUSH2 0x1ED9 PUSH2 0x45CE JUMP JUMPDEST PUSH2 0x1EE3 PUSH1 0x0 PUSH2 0x4628 JUMP JUMPDEST JUMP JUMPDEST PUSH2 0x1F12 PUSH1 0x40 MLOAD DUP1 PUSH1 0x60 ADD PUSH1 0x40 MSTORE DUP1 PUSH1 0x0 PUSH1 0x1 PUSH1 0x1 PUSH1 0xA0 SHL SUB AND DUP2 MSTORE PUSH1 0x20 ADD PUSH1 0x60 DUP2 MSTORE PUSH1 0x20 ADD PUSH1 0x60 DUP2 MSTORE POP SWAP1 JUMP JUMPDEST PUSH1 0x0 DUP4 DUP2 MSTORE PUSH1 0x5 PUSH1 0x20 SWAP1 DUP2 MSTORE PUSH1 0x40 DUP1 DUP4 KECCAK256 DUP6 DUP5 MSTORE DUP3 MSTORE SWAP2 DUP3 SWAP1 KECCAK256 DUP3 MLOAD PUSH1 0x60 DUP2 ADD SWAP1 SWAP4 MSTORE DUP1 SLOAD PUSH1 0x1 PUSH1 0x1 PUSH1 0xA0 SHL SUB AND DUP4 MSTORE PUSH1 0x1 DUP2 ADD DUP1 SLOAD SWAP2 SWAP3 DUP5 ADD SWAP2 PUSH2 0x1F56 SWAP1 PUSH2 0x5E91 JUMP JUMPDEST DUP1 PUSH1 0x1F ADD PUSH1 0x20 DUP1 SWAP2 DIV MUL PUSH1 0x20 ADD PUSH1 0x40 MLOAD SWAP1 DUP2 ADD PUSH1 0x40 MSTORE DUP1 SWAP3 SWAP2 SWAP1 DUP2 DUP2 MSTORE PUSH1 0x20 ADD DUP3 DUP1 SLOAD PUSH2 0x1F82 SWAP1 PUSH2 0x5E91 JUMP JUMPDEST DUP1 ISZERO PUSH2 0x1FCF JUMPI DUP1 PUSH1 0x1F LT PUSH2 0x1FA4 JUMPI PUSH2 0x100 DUP1 DUP4 SLOAD DIV MUL DUP4 MSTORE SWAP2 PUSH1 0x20 ADD SWAP2 PUSH2 0x1FCF JUMP JUMPDEST DUP3 ADD SWAP2 SWAP1 PUSH1 0x0 MSTORE PUSH1 0x20 PUSH1 0x0 KECCAK256 SWAP1 JUMPDEST DUP2 SLOAD DUP2 MSTORE SWAP1 PUSH1 0x1 ADD SWAP1 PUSH1 0x20 ADD DUP1 DUP4 GT PUSH2 0x1FB2 JUMPI DUP3 SWAP1 SUB PUSH1 0x1F AND DUP3 ADD SWAP2 JUMPDEST POP POP POP POP POP DUP2 MSTORE PUSH1 0x20 ADD PUSH1 0x2 DUP3 ADD DUP1 SLOAD PUSH2 0x1FE8 SWAP1 PUSH2 0x5E91 JUMP JUMPDEST DUP1 PUSH1 0x1F ADD PUSH1 0x20 DUP1 SWAP2 DIV MUL PUSH1 0x20 ADD PUSH1 0x40 MLOAD SWAP1 DUP2 ADD PUSH1 0x40 MSTORE DUP1 SWAP3 SWAP2 SWAP1 DUP2 DUP2 MSTORE PUSH1 0x20 ADD DUP3 DUP1 SLOAD PUSH2 0x2014 SWAP1 PUSH2 0x5E91 JUMP JUMPDEST DUP1 ISZERO PUSH2 0x2061 JUMPI DUP1 PUSH1 0x1F LT PUSH2 0x2036 JUMPI PUSH2 0x100 DUP1 DUP4 SLOAD DIV MUL DUP4 MSTORE SWAP2 PUSH1 0x20 ADD SWAP2 PUSH2 0x2061 JUMP JUMPDEST DUP3 ADD SWAP2 SWAP1 PUSH1 0x0 MSTORE PUSH1 0x20 PUSH1 0x0 KECCAK256 SWAP1 JUMPDEST DUP2 SLOAD DUP2 MSTORE SWAP1 PUSH1 0x1 ADD SWAP1 PUSH1 0x20 ADD DUP1 DUP4 GT PUSH2 0x2044 JUMPI DUP3 SWAP1 SUB PUSH1 0x1F AND DUP3 ADD SWAP2 JUMPDEST POP POP POP POP POP DUP2 MSTORE POP POP SWAP1 POP SWAP3 SWAP2 POP POP JUMP JUMPDEST PUSH1 0x2 SLOAD PUSH1 0x1 PUSH1 0x1 PUSH1 0xA0 SHL SUB AND CALLER EQ PUSH2 0x209D JUMPI PUSH1 0x40 MLOAD PUSH4 0x48E2D49 PUSH1 0xE4 SHL DUP2 MSTORE PUSH1 0x4 ADD PUSH2 0x3A1 SWAP1 PUSH2 0x5A4C JUMP JUMPDEST PUSH1 0x3 SLOAD PUSH1 0x40 MLOAD PUSH4 0x7E8AFD3 PUSH1 0xE2 SHL DUP2 MSTORE PUSH1 0x1 PUSH1 0x1 PUSH1 0xA0 SHL SUB SWAP1 SWAP2 AND SWAP1 PUSH4 0x1FA2BF4C SWAP1 PUSH2 0x20D2 SWAP1 DUP7 SWAP1 DUP7 SWAP1 PUSH1 0xB SWAP1 PUSH1 0x4 ADD PUSH2 0x5CAC JUMP JUMPDEST PUSH1 0x0 PUSH1 0x40 MLOAD DUP1 DUP4 SUB DUP2 PUSH1 0x0 DUP8 DUP1 EXTCODESIZE ISZERO DUP1 ISZERO PUSH2 0x20EC JUMPI PUSH1 0x0 DUP1 REVERT JUMPDEST POP GAS CALL ISZERO DUP1 ISZERO PUSH2 0x2100 JUMPI RETURNDATASIZE PUSH1 0x0 DUP1 RETURNDATACOPY RETURNDATASIZE PUSH1 0x0 REVERT JUMPDEST POP POP POP POP PUSH1 0x0 DUP1 MLOAD PUSH1 0x20 PUSH2 0x5F70 DUP4 CODECOPY DUP2 MLOAD SWAP2 MSTORE DUP4 DUP4 PUSH1 0xB DUP5 PUSH1 0x40 MLOAD PUSH2 0x16B6 SWAP5 SWAP4 SWAP3 SWAP2 SWAP1 PUSH2 0x5CC7 JUMP JUMPDEST PUSH1 0x2 SLOAD PUSH1 0x0 SWAP1 PUSH1 0x60 SWAP1 PUSH1 0x1 PUSH1 0x1 PUSH1 0xA0 SHL SUB AND CALLER EQ PUSH2 0x2159 JUMPI PUSH1 0x40 MLOAD PUSH4 0x48E2D49 PUSH1 0xE4 SHL DUP2 MSTORE PUSH1 0x4 ADD PUSH2 0x3A1 SWAP1 PUSH2 0x5A4C JUMP JUMPDEST PUSH1 0x1 SLOAD PUSH1 0x3 DUP1 SLOAD PUSH1 0x1 PUSH1 0x1 PUSH1 0xA0 SHL SUB NOT AND PUSH1 0x1 PUSH1 0x1 PUSH1 0xA0 SHL SUB SWAP1 SWAP3 AND SWAP2 DUP3 OR SWAP1 SSTORE PUSH1 0x40 MLOAD PUSH4 0x34BFB5A7 PUSH1 0xE2 SHL DUP2 MSTORE PUSH1 0x4 DUP2 ADD DUP6 SWAP1 MSTORE PUSH1 0x0 SWAP2 SWAP1 PUSH4 0xD2FED69C SWAP1 PUSH1 0x24 ADD PUSH1 0x20 PUSH1 0x40 MLOAD DUP1 DUP4 SUB DUP2 DUP7 DUP1 EXTCODESIZE ISZERO DUP1 ISZERO PUSH2 0x21B3 JUMPI PUSH1 0x0 DUP1 REVERT JUMPDEST POP GAS STATICCALL ISZERO DUP1 ISZERO PUSH2 0x21C7 JUMPI RETURNDATASIZE PUSH1 0x0 DUP1 RETURNDATACOPY RETURNDATASIZE PUSH1 0x0 REVERT JUMPDEST POP POP POP POP PUSH1 0x40 MLOAD RETURNDATASIZE PUSH1 0x1F NOT PUSH1 0x1F DUP3 ADD AND DUP3 ADD DUP1 PUSH1 0x40 MSTORE POP DUP2 ADD SWAP1 PUSH2 0x21EB SWAP2 SWAP1 PUSH2 0x547D JUMP JUMPDEST PUSH1 0x3 SLOAD PUSH1 0x40 MLOAD PUSH4 0x12506F4D PUSH1 0xE0 SHL DUP2 MSTORE PUSH1 0x4 DUP2 ADD DUP8 SWAP1 MSTORE SWAP2 SWAP3 POP PUSH1 0x0 SWAP2 PUSH1 0x1 PUSH1 0x1 PUSH1 0xA0 SHL SUB SWAP1 SWAP2 AND SWAP1 PUSH4 0x12506F4D SWAP1 PUSH1 0x24 ADD PUSH1 0x0 PUSH1 0x40 MLOAD DUP1 DUP4 SUB DUP2 DUP7 DUP1 EXTCODESIZE ISZERO DUP1 ISZERO PUSH2 0x2235 JUMPI PUSH1 0x0 DUP1 REVERT JUMPDEST POP GAS STATICCALL ISZERO DUP1 ISZERO PUSH2 0x2249 JUMPI RETURNDATASIZE PUSH1 0x0 DUP1 RETURNDATACOPY RETURNDATASIZE PUSH1 0x0 REVERT JUMPDEST POP POP POP POP PUSH1 0x40 MLOAD RETURNDATASIZE PUSH1 0x0 DUP3 RETURNDATACOPY PUSH1 0x1F RETURNDATASIZE SWAP1 DUP2 ADD PUSH1 0x1F NOT AND DUP3 ADD PUSH1 0x40 MSTORE PUSH2 0x2271 SWAP2 SWAP1 DUP2 ADD SWAP1 PUSH2 0x5145 JUMP JUMPDEST PUSH1 0x3 SLOAD PUSH1 0x40 MLOAD PUSH4 0x8A9A9FF3 PUSH1 0xE0 SHL DUP2 MSTORE PUSH1 0x4 DUP2 ADD DUP9 SWAP1 MSTORE PUSH1 0x1 PUSH1 0x24 DUP3 ADD MSTORE SWAP2 SWAP3 POP PUSH1 0x1 PUSH1 0x1 PUSH1 0xA0 SHL SUB AND SWAP1 PUSH4 0x8A9A9FF3 SWAP1 PUSH1 0x44 ADD PUSH1 0x20 PUSH1 0x40 MLOAD DUP1 DUP4 SUB DUP2 DUP7 DUP1 EXTCODESIZE ISZERO DUP1 ISZERO PUSH2 0x22BD JUMPI PUSH1 0x0 DUP1 REVERT JUMPDEST POP GAS STATICCALL ISZERO DUP1 ISZERO PUSH2 0x22D1 JUMPI RETURNDATASIZE PUSH1 0x0 DUP1 RETURNDATACOPY RETURNDATASIZE PUSH1 0x0 REVERT JUMPDEST POP POP POP POP PUSH1 0x40 MLOAD RETURNDATASIZE PUSH1 0x1F NOT PUSH1 0x1F DUP3 ADD AND DUP3 ADD DUP1 PUSH1 0x40 MSTORE POP DUP2 ADD SWAP1 PUSH2 0x22F5 SWAP2 SWAP1 PUSH2 0x53D9 JUMP JUMPDEST ISZERO PUSH2 0x2317 JUMPI PUSH1 0x1 PUSH1 0x40 MLOAD DUP1 PUSH1 0x20 ADD PUSH1 0x40 MSTORE DUP1 PUSH1 0x0 DUP2 MSTORE POP SWAP4 POP SWAP4 POP POP POP SWAP2 POP SWAP2 JUMP JUMPDEST DUP2 PUSH2 0x23F9 JUMPI PUSH1 0x3 SLOAD PUSH1 0x40 MLOAD PUSH4 0x63E3CCAD PUSH1 0xE0 SHL DUP2 MSTORE PUSH1 0x4 DUP2 ADD DUP8 SWAP1 MSTORE PUSH1 0x0 PUSH1 0x24 DUP3 ADD MSTORE PUSH1 0x1 PUSH1 0x1 PUSH1 0xA0 SHL SUB SWAP1 SWAP2 AND SWAP1 PUSH4 0x63E3CCAD SWAP1 PUSH1 0x44 ADD PUSH1 0x0 PUSH1 0x40 MLOAD DUP1 DUP4 SUB DUP2 PUSH1 0x0 DUP8 DUP1 EXTCODESIZE ISZERO DUP1 ISZERO PUSH2 0x2369 JUMPI PUSH1 0x0 DUP1 REVERT JUMPDEST POP GAS CALL ISZERO DUP1 ISZERO PUSH2 0x237D JUMPI RETURNDATASIZE PUSH1 0x0 DUP1 RETURNDATACOPY RETURNDATASIZE PUSH1 0x0 REVERT JUMPDEST POP POP POP POP PUSH32 0x6505631A30F6259A8BBF6422CDC3BD467DDC256B547DAD05C5D84ABC34ABFA18 DUP6 PUSH1 0x0 CALLER PUSH1 0x40 MLOAD PUSH2 0x23B5 SWAP4 SWAP3 SWAP2 SWAP1 PUSH2 0x5BE8 JUMP JUMPDEST PUSH1 0x40 MLOAD DUP1 SWAP2 SUB SWAP1 LOG1 PUSH1 0x0 PUSH1 0x40 MLOAD DUP1 PUSH1 0x40 ADD PUSH1 0x40 MSTORE DUP1 PUSH1 0x16 DUP2 MSTORE PUSH1 0x20 ADD PUSH22 0x7472616E736C61746F7273206E756D626572203D203 PUSH1 0x54 SHL DUP2 MSTORE POP SWAP4 POP SWAP4 POP POP POP SWAP2 POP SWAP2 JUMP JUMPDEST DUP1 MLOAD DUP3 PUSH1 0x0 PUSH2 0x2408 DUP3 DUP5 PUSH2 0x5E43 JUMP JUMPDEST PUSH1 0x3 SLOAD PUSH1 0x40 MLOAD PUSH4 0x13074255 PUSH1 0xE3 SHL DUP2 MSTORE PUSH1 0x4 DUP2 ADD DUP12 SWAP1 MSTORE SWAP2 SWAP3 POP PUSH1 0x0 SWAP2 PUSH1 0x1 PUSH1 0x1 PUSH1 0xA0 SHL SUB SWAP1 SWAP2 AND SWAP1 PUSH4 0x983A12A8 SWAP1 PUSH1 0x24 ADD PUSH1 0x0 PUSH1 0x40 MLOAD DUP1 DUP4 SUB DUP2 DUP7 DUP1 EXTCODESIZE ISZERO DUP1 ISZERO PUSH2 0x2452 JUMPI PUSH1 0x0 DUP1 REVERT JUMPDEST POP GAS STATICCALL ISZERO DUP1 ISZERO PUSH2 0x2466 JUMPI RETURNDATASIZE PUSH1 0x0 DUP1 RETURNDATACOPY RETURNDATASIZE PUSH1 0x0 REVERT JUMPDEST POP POP POP POP PUSH1 0x40 MLOAD RETURNDATASIZE PUSH1 0x0 DUP3 RETURNDATACOPY PUSH1 0x1F RETURNDATASIZE SWAP1 DUP2 ADD PUSH1 0x1F NOT AND DUP3 ADD PUSH1 0x40 MSTORE PUSH2 0x248E SWAP2 SWAP1 DUP2 ADD SWAP1 PUSH2 0x50A5 JUMP JUMPDEST SWAP1 POP PUSH1 0x0 JUMPDEST DUP6 MLOAD DUP2 LT ISZERO PUSH2 0x2809 JUMPI PUSH1 0x0 DUP7 DUP3 DUP2 MLOAD DUP2 LT PUSH2 0x24B0 JUMPI PUSH2 0x24B0 PUSH2 0x5F13 JUMP JUMPDEST PUSH1 0x20 MUL PUSH1 0x20 ADD ADD MLOAD PUSH1 0x60 ADD MLOAD PUSH1 0xB DUP2 GT ISZERO PUSH2 0x24CD JUMPI PUSH2 0x24CD PUSH2 0x5EFD JUMP JUMPDEST EQ DUP1 PUSH2 0x2507 JUMPI POP PUSH1 0x1 DUP7 DUP3 DUP2 MLOAD DUP2 LT PUSH2 0x24E8 JUMPI PUSH2 0x24E8 PUSH2 0x5F13 JUMP JUMPDEST PUSH1 0x20 MUL PUSH1 0x20 ADD ADD MLOAD PUSH1 0x60 ADD MLOAD PUSH1 0xB DUP2 GT ISZERO PUSH2 0x2505 JUMPI PUSH2 0x2505 PUSH2 0x5EFD JUMP JUMPDEST EQ JUMPDEST ISZERO PUSH2 0x27F7 JUMPI PUSH1 0x0 JUMPDEST DUP8 DUP2 LT ISZERO PUSH2 0x27F5 JUMPI PUSH1 0x3 SLOAD DUP4 MLOAD DUP6 SWAP2 PUSH1 0x1 PUSH1 0x1 PUSH1 0xA0 SHL SUB AND SWAP1 PUSH4 0x193620E7 SWAP1 DUP15 SWAP1 DUP8 SWAP1 DUP7 SWAP1 DUP2 LT PUSH2 0x2542 JUMPI PUSH2 0x2542 PUSH2 0x5F13 JUMP JUMPDEST PUSH1 0x20 MUL PUSH1 0x20 ADD ADD MLOAD PUSH1 0x40 MLOAD DUP4 PUSH4 0xFFFFFFFF AND PUSH1 0xE0 SHL DUP2 MSTORE PUSH1 0x4 ADD PUSH2 0x2579 SWAP3 SWAP2 SWAP1 SWAP2 DUP3 MSTORE PUSH1 0x1 PUSH1 0x1 PUSH1 0xA0 SHL SUB AND PUSH1 0x20 DUP3 ADD MSTORE PUSH1 0x40 ADD SWAP1 JUMP JUMPDEST PUSH1 0x20 PUSH1 0x40 MLOAD DUP1 DUP4 SUB DUP2 DUP7 DUP1 EXTCODESIZE ISZERO DUP1 ISZERO PUSH2 0x2591 JUMPI PUSH1 0x0 DUP1 REVERT JUMPDEST POP GAS STATICCALL ISZERO DUP1 ISZERO PUSH2 0x25A5 JUMPI RETURNDATASIZE PUSH1 0x0 DUP1 RETURNDATACOPY RETURNDATASIZE PUSH1 0x0 REVERT JUMPDEST POP POP POP POP PUSH1 0x40 MLOAD RETURNDATASIZE PUSH1 0x1F NOT PUSH1 0x1F DUP3 ADD AND DUP3 ADD DUP1 PUSH1 0x40 MSTORE POP DUP2 ADD SWAP1 PUSH2 0x25C9 SWAP2 SWAP1 PUSH2 0x547D JUMP JUMPDEST GT ISZERO PUSH2 0x25D4 JUMPI PUSH2 0x27E3 JUMP JUMPDEST PUSH1 0x3 SLOAD PUSH1 0x40 MLOAD PUSH3 0xFBE247 PUSH1 0xE8 SHL DUP2 MSTORE PUSH1 0x4 DUP2 ADD DUP14 SWAP1 MSTORE PUSH1 0x1 PUSH1 0x24 DUP3 ADD MSTORE PUSH1 0x1 PUSH1 0x1 PUSH1 0xA0 SHL SUB SWAP1 SWAP2 AND SWAP1 PUSH4 0xFBE24700 SWAP1 PUSH1 0x44 ADD PUSH1 0x0 PUSH1 0x40 MLOAD DUP1 DUP4 SUB DUP2 PUSH1 0x0 DUP8 DUP1 EXTCODESIZE ISZERO DUP1 ISZERO PUSH2 0x2620 JUMPI PUSH1 0x0 DUP1 REVERT JUMPDEST POP GAS CALL ISZERO DUP1 ISZERO PUSH2 0x2634 JUMPI RETURNDATASIZE PUSH1 0x0 DUP1 RETURNDATACOPY RETURNDATASIZE PUSH1 0x0 REVERT JUMPDEST POP POP PUSH1 0x3 SLOAD DUP6 MLOAD PUSH1 0x1 PUSH1 0x1 PUSH1 0xA0 SHL SUB SWAP1 SWAP2 AND SWAP3 POP PUSH4 0x271FF03F SWAP2 POP DUP14 SWAP1 DUP7 SWAP1 DUP6 SWAP1 DUP2 LT PUSH2 0x2663 JUMPI PUSH2 0x2663 PUSH2 0x5F13 JUMP JUMPDEST PUSH1 0x20 MUL PUSH1 0x20 ADD ADD MLOAD DUP6 PUSH1 0x40 MLOAD DUP5 PUSH4 0xFFFFFFFF AND PUSH1 0xE0 SHL DUP2 MSTORE PUSH1 0x4 ADD PUSH2 0x268A SWAP4 SWAP3 SWAP2 SWAP1 PUSH2 0x5AF0 JUMP JUMPDEST PUSH1 0x0 PUSH1 0x40 MLOAD DUP1 DUP4 SUB DUP2 PUSH1 0x0 DUP8 DUP1 EXTCODESIZE ISZERO DUP1 ISZERO PUSH2 0x26A4 JUMPI PUSH1 0x0 DUP1 REVERT JUMPDEST POP GAS CALL ISZERO DUP1 ISZERO PUSH2 0x26B8 JUMPI RETURNDATASIZE PUSH1 0x0 DUP1 RETURNDATACOPY RETURNDATASIZE PUSH1 0x0 REVERT JUMPDEST POP POP POP POP PUSH2 0x26C7 DUP12 DUP4 CALLER PUSH2 0x43BC JUMP JUMPDEST PUSH1 0x3 SLOAD DUP4 MLOAD PUSH1 0x1 PUSH1 0x1 PUSH1 0xA0 SHL SUB SWAP1 SWAP2 AND SWAP1 PUSH4 0xCE098054 SWAP1 DUP14 SWAP1 DUP6 SWAP1 DUP8 SWAP1 DUP7 SWAP1 DUP2 LT PUSH2 0x26F4 JUMPI PUSH2 0x26F4 PUSH2 0x5F13 JUMP JUMPDEST PUSH1 0x20 MUL PUSH1 0x20 ADD ADD MLOAD PUSH1 0x40 MLOAD DUP5 PUSH4 0xFFFFFFFF AND PUSH1 0xE0 SHL DUP2 MSTORE PUSH1 0x4 ADD PUSH2 0x2734 SWAP4 SWAP3 SWAP2 SWAP1 SWAP3 DUP4 MSTORE PUSH1 0x20 DUP4 ADD SWAP2 SWAP1 SWAP2 MSTORE PUSH1 0x1 PUSH1 0x1 PUSH1 0xA0 SHL SUB AND PUSH1 0x40 DUP3 ADD MSTORE PUSH1 0x60 ADD SWAP1 JUMP JUMPDEST PUSH1 0x0 PUSH1 0x40 MLOAD DUP1 DUP4 SUB DUP2 PUSH1 0x0 DUP8 DUP1 EXTCODESIZE ISZERO DUP1 ISZERO PUSH2 0x274E JUMPI PUSH1 0x0 DUP1 REVERT JUMPDEST POP GAS CALL ISZERO DUP1 ISZERO PUSH2 0x2762 JUMPI RETURNDATASIZE PUSH1 0x0 DUP1 RETURNDATACOPY RETURNDATASIZE PUSH1 0x0 REVERT JUMPDEST POP POP POP POP PUSH32 0xAD65127436138B4AFE97EF23BAF28ED14A5FB09500AD117EB196CD3BDB3DBE9F DUP12 DUP4 DUP6 DUP5 DUP2 MLOAD DUP2 LT PUSH2 0x279B JUMPI PUSH2 0x279B PUSH2 0x5F13 JUMP JUMPDEST PUSH1 0x20 MUL PUSH1 0x20 ADD ADD MLOAD PUSH1 0x1 PUSH1 0x40 MLOAD PUSH2 0x27D6 SWAP5 SWAP4 SWAP3 SWAP2 SWAP1 SWAP4 DUP5 MSTORE PUSH1 0x20 DUP5 ADD SWAP3 SWAP1 SWAP3 MSTORE PUSH1 0x1 PUSH1 0x1 PUSH1 0xA0 SHL SUB AND PUSH1 0x40 DUP4 ADD MSTORE ISZERO ISZERO PUSH1 0x60 DUP3 ADD MSTORE PUSH1 0x80 ADD SWAP1 JUMP JUMPDEST PUSH1 0x40 MLOAD DUP1 SWAP2 SUB SWAP1 LOG1 PUSH2 0x27F5 JUMP JUMPDEST DUP1 PUSH2 0x27ED DUP2 PUSH2 0x5ECC JUMP JUMPDEST SWAP2 POP POP PUSH2 0x250F JUMP JUMPDEST POP JUMPDEST DUP1 PUSH2 0x2801 DUP2 PUSH2 0x5ECC JUMP JUMPDEST SWAP2 POP POP PUSH2 0x2493 JUMP JUMPDEST POP PUSH1 0x3 SLOAD PUSH1 0x40 MLOAD PUSH4 0x63E3CCAD PUSH1 0xE0 SHL DUP2 MSTORE PUSH1 0x4 DUP2 ADD DUP12 SWAP1 MSTORE PUSH1 0x0 PUSH1 0x24 DUP3 ADD MSTORE PUSH1 0x1 PUSH1 0x1 PUSH1 0xA0 SHL SUB SWAP1 SWAP2 AND SWAP1 PUSH4 0x63E3CCAD SWAP1 PUSH1 0x44 ADD PUSH1 0x0 PUSH1 0x40 MLOAD DUP1 DUP4 SUB DUP2 PUSH1 0x0 DUP8 DUP1 EXTCODESIZE ISZERO DUP1 ISZERO PUSH2 0x2857 JUMPI PUSH1 0x0 DUP1 REVERT JUMPDEST POP GAS CALL ISZERO DUP1 ISZERO PUSH2 0x286B JUMPI RETURNDATASIZE PUSH1 0x0 DUP1 RETURNDATACOPY RETURNDATASIZE PUSH1 0x0 REVERT JUMPDEST POP POP POP POP PUSH32 0x6505631A30F6259A8BBF6422CDC3BD467DDC256B547DAD05C5D84ABC34ABFA18 DUP10 PUSH1 0x0 CALLER PUSH1 0x40 MLOAD PUSH2 0x28A3 SWAP4 SWAP3 SWAP2 SWAP1 PUSH2 0x5BE8 JUMP JUMPDEST PUSH1 0x40 MLOAD DUP1 SWAP2 SUB SWAP1 LOG1 PUSH1 0x3 SLOAD PUSH1 0x40 MLOAD PUSH4 0x8A9A9FF3 PUSH1 0xE0 SHL DUP2 MSTORE PUSH1 0x4 DUP2 ADD DUP12 SWAP1 MSTORE PUSH1 0x0 PUSH1 0x24 DUP3 ADD MSTORE PUSH1 0x1 PUSH1 0x1 PUSH1 0xA0 SHL SUB SWAP1 SWAP2 AND SWAP1 PUSH4 0x8A9A9FF3 SWAP1 PUSH1 0x44 ADD PUSH1 0x20 PUSH1 0x40 MLOAD DUP1 DUP4 SUB DUP2 DUP7 DUP1 EXTCODESIZE ISZERO DUP1 ISZERO PUSH2 0x28F6 JUMPI PUSH1 0x0 DUP1 REVERT JUMPDEST POP GAS STATICCALL ISZERO DUP1 ISZERO PUSH2 0x290A JUMPI RETURNDATASIZE PUSH1 0x0 DUP1 RETURNDATACOPY RETURNDATASIZE PUSH1 0x0 REVERT JUMPDEST POP POP POP POP PUSH1 0x40 MLOAD RETURNDATASIZE PUSH1 0x1F NOT PUSH1 0x1F DUP3 ADD AND DUP3 ADD DUP1 PUSH1 0x40 MSTORE POP DUP2 ADD SWAP1 PUSH2 0x292E SWAP2 SWAP1 PUSH2 0x53D9 JUMP JUMPDEST ISZERO PUSH2 0x29C5 JUMPI PUSH1 0x3 DUP1 SLOAD PUSH1 0x40 MLOAD PUSH4 0x17E925D7 PUSH1 0xE0 SHL DUP2 MSTORE PUSH1 0x1 PUSH1 0x1 PUSH1 0xA0 SHL SUB SWAP1 SWAP2 AND SWAP2 PUSH4 0x17E925D7 SWAP2 PUSH2 0x2964 SWAP2 DUP14 SWAP2 PUSH1 0x4 ADD PUSH2 0x5C07 JUMP JUMPDEST PUSH1 0x0 PUSH1 0x40 MLOAD DUP1 DUP4 SUB DUP2 PUSH1 0x0 DUP8 DUP1 EXTCODESIZE ISZERO DUP1 ISZERO PUSH2 0x297E JUMPI PUSH1 0x0 DUP1 REVERT JUMPDEST POP GAS CALL ISZERO DUP1 ISZERO PUSH2 0x2992 JUMPI RETURNDATASIZE PUSH1 0x0 DUP1 RETURNDATACOPY RETURNDATASIZE PUSH1 0x0 REVERT JUMPDEST POP POP POP POP PUSH1 0x0 DUP1 MLOAD PUSH1 0x20 PUSH2 0x5F90 DUP4 CODECOPY DUP2 MLOAD SWAP2 MSTORE DUP10 PUSH1 0x3 CALLER PUSH1 0x40 MLOAD PUSH2 0x29B8 SWAP4 SWAP3 SWAP2 SWAP1 PUSH2 0x5C1B JUMP JUMPDEST PUSH1 0x40 MLOAD DUP1 SWAP2 SUB SWAP1 LOG1 PUSH2 0x2A55 JUMP JUMPDEST PUSH1 0x3 SLOAD PUSH1 0x40 MLOAD PUSH4 0x17E925D7 PUSH1 0xE0 SHL DUP2 MSTORE PUSH1 0x1 PUSH1 0x1 PUSH1 0xA0 SHL SUB SWAP1 SWAP2 AND SWAP1 PUSH4 0x17E925D7 SWAP1 PUSH2 0x29F8 SWAP1 DUP13 SWAP1 PUSH1 0x2 SWAP1 PUSH1 0x4 ADD PUSH2 0x5C07 JUMP JUMPDEST PUSH1 0x0 PUSH1 0x40 MLOAD DUP1 DUP4 SUB DUP2 PUSH1 0x0 DUP8 DUP1 EXTCODESIZE ISZERO DUP1 ISZERO PUSH2 0x2A12 JUMPI PUSH1 0x0 DUP1 REVERT JUMPDEST POP GAS CALL ISZERO DUP1 ISZERO PUSH2 0x2A26 JUMPI RETURNDATASIZE PUSH1 0x0 DUP1 RETURNDATACOPY RETURNDATASIZE PUSH1 0x0 REVERT JUMPDEST POP POP POP POP PUSH1 0x0 DUP1 MLOAD PUSH1 0x20 PUSH2 0x5F90 DUP4 CODECOPY DUP2 MLOAD SWAP2 MSTORE DUP10 PUSH1 0x2 CALLER PUSH1 0x40 MLOAD PUSH2 0x2A4C SWAP4 SWAP3 SWAP2 SWAP1 PUSH2 0x5C1B JUMP JUMPDEST PUSH1 0x40 MLOAD DUP1 SWAP2 SUB SWAP1 LOG1 JUMPDEST PUSH1 0x0 PUSH1 0x40 MLOAD DUP1 PUSH1 0x40 ADD PUSH1 0x40 MSTORE DUP1 PUSH1 0x14 DUP2 MSTORE PUSH1 0x20 ADD PUSH20 0x105B1B1BD8D85D1A5BDB8818DBDB5C1B195D1959 PUSH1 0x62 SHL DUP2 MSTORE POP SWAP8 POP SWAP8 POP POP POP POP POP POP POP SWAP2 POP SWAP2 JUMP JUMPDEST PUSH1 0x2 SLOAD PUSH1 0x1 PUSH1 0x1 PUSH1 0xA0 SHL SUB AND CALLER EQ PUSH2 0x2ABE JUMPI PUSH1 0x40 MLOAD PUSH4 0x48E2D49 PUSH1 0xE4 SHL DUP2 MSTORE PUSH1 0x4 ADD PUSH2 0x3A1 SWAP1 PUSH2 0x5A4C JUMP JUMPDEST PUSH1 0x1 SLOAD PUSH1 0x3 DUP1 SLOAD PUSH1 0x1 PUSH1 0x1 PUSH1 0xA0 SHL SUB NOT AND PUSH1 0x1 PUSH1 0x1 PUSH1 0xA0 SHL SUB SWAP3 DUP4 AND SWAP1 DUP2 OR SWAP1 SWAP2 SSTORE PUSH1 0x40 MLOAD PUSH4 0x790485F9 PUSH1 0xE0 SHL DUP2 MSTORE PUSH1 0x4 DUP2 ADD DUP7 SWAP1 MSTORE SWAP2 DUP4 AND PUSH1 0x24 DUP4 ADD MSTORE SWAP1 PUSH4 0x790485F9 SWAP1 PUSH1 0x44 ADD PUSH1 0x20 PUSH1 0x40 MLOAD DUP1 DUP4 SUB DUP2 DUP7 DUP1 EXTCODESIZE ISZERO DUP1 ISZERO PUSH2 0x2B1E JUMPI PUSH1 0x0 DUP1 REVERT JUMPDEST POP GAS STATICCALL ISZERO DUP1 ISZERO PUSH2 0x2B32 JUMPI RETURNDATASIZE PUSH1 0x0 DUP1 RETURNDATACOPY RETURNDATASIZE PUSH1 0x0 REVERT JUMPDEST POP POP POP POP PUSH1 0x40 MLOAD RETURNDATASIZE PUSH1 0x1F NOT PUSH1 0x1F DUP3 ADD AND DUP3 ADD DUP1 PUSH1 0x40 MSTORE POP DUP2 ADD SWAP1 PUSH2 0x2B56 SWAP2 SWAP1 PUSH2 0x547D JUMP JUMPDEST PUSH2 0x2BE4 JUMPI PUSH1 0x3 SLOAD PUSH1 0x40 MLOAD PUSH4 0x992D60F3 PUSH1 0xE0 SHL DUP2 MSTORE PUSH1 0x4 DUP2 ADD DUP6 SWAP1 MSTORE PUSH1 0x1 PUSH1 0x1 PUSH1 0xA0 SHL SUB DUP4 DUP2 AND PUSH1 0x24 DUP4 ADD MSTORE SWAP1 SWAP2 AND SWAP1 PUSH4 0x992D60F3 SWAP1 PUSH1 0x44 ADD PUSH1 0x0 PUSH1 0x40 MLOAD DUP1 DUP4 SUB DUP2 PUSH1 0x0 DUP8 DUP1 EXTCODESIZE ISZERO DUP1 ISZERO PUSH2 0x2BA8 JUMPI PUSH1 0x0 DUP1 REVERT JUMPDEST POP GAS CALL ISZERO DUP1 ISZERO PUSH2 0x2BBC JUMPI RETURNDATASIZE PUSH1 0x0 DUP1 RETURNDATACOPY RETURNDATASIZE PUSH1 0x0 REVERT JUMPDEST POP POP POP PUSH1 0x1 PUSH1 0x1 PUSH1 0xA0 SHL SUB DUP3 AND PUSH1 0x0 SWAP1 DUP2 MSTORE PUSH1 0x4 PUSH1 0x20 MSTORE PUSH1 0x40 SWAP1 KECCAK256 DUP1 SLOAD PUSH1 0xFF NOT AND PUSH1 0x1 OR SWAP1 SSTORE POP JUMPDEST PUSH1 0x0 JUMPDEST DUP3 MLOAD DUP2 LT ISZERO PUSH2 0x2D47 JUMPI PUSH2 0x2C14 DUP5 DUP5 DUP4 DUP2 MLOAD DUP2 LT PUSH2 0x2C06 JUMPI PUSH2 0x2C06 PUSH2 0x5F13 JUMP JUMPDEST PUSH1 0x20 MUL PUSH1 0x20 ADD ADD MLOAD DUP5 PUSH2 0x4678 JUMP JUMPDEST PUSH1 0x3 SLOAD DUP4 MLOAD PUSH1 0x1 PUSH1 0x1 PUSH1 0xA0 SHL SUB SWAP1 SWAP2 AND SWAP1 PUSH4 0xA1E047F3 SWAP1 DUP7 SWAP1 DUP6 SWAP1 DUP8 SWAP1 DUP7 SWAP1 DUP2 LT PUSH2 0x2C41 JUMPI PUSH2 0x2C41 PUSH2 0x5F13 JUMP JUMPDEST PUSH1 0x20 MUL PUSH1 0x20 ADD ADD MLOAD PUSH1 0x40 MLOAD DUP5 PUSH4 0xFFFFFFFF AND PUSH1 0xE0 SHL DUP2 MSTORE PUSH1 0x4 ADD PUSH2 0x2C67 SWAP4 SWAP3 SWAP2 SWAP1 PUSH2 0x5AF0 JUMP JUMPDEST PUSH1 0x0 PUSH1 0x40 MLOAD DUP1 DUP4 SUB DUP2 PUSH1 0x0 DUP8 DUP1 EXTCODESIZE ISZERO DUP1 ISZERO PUSH2 0x2C81 JUMPI PUSH1 0x0 DUP1 REVERT JUMPDEST POP GAS CALL ISZERO DUP1 ISZERO PUSH2 0x2C95 JUMPI RETURNDATASIZE PUSH1 0x0 DUP1 RETURNDATACOPY RETURNDATASIZE PUSH1 0x0 REVERT JUMPDEST POP POP PUSH1 0x3 SLOAD DUP6 MLOAD PUSH1 0x1 PUSH1 0x1 PUSH1 0xA0 SHL SUB SWAP1 SWAP2 AND SWAP3 POP PUSH4 0x6D8D1DAF SWAP2 POP DUP7 SWAP1 DUP7 SWAP1 DUP6 SWAP1 DUP2 LT PUSH2 0x2CC4 JUMPI PUSH2 0x2CC4 PUSH2 0x5F13 JUMP JUMPDEST PUSH1 0x20 SWAP1 DUP2 MUL SWAP2 SWAP1 SWAP2 ADD ADD MLOAD PUSH1 0x40 MLOAD PUSH1 0x1 PUSH1 0x1 PUSH1 0xE0 SHL SUB NOT PUSH1 0xE0 DUP6 SWAP1 SHL AND DUP2 MSTORE PUSH1 0x4 DUP2 ADD SWAP3 SWAP1 SWAP3 MSTORE PUSH1 0x24 DUP3 ADD MSTORE PUSH1 0x1 PUSH1 0x1 PUSH1 0xA0 SHL SUB DUP6 AND PUSH1 0x44 DUP3 ADD MSTORE PUSH1 0x64 ADD PUSH1 0x0 PUSH1 0x40 MLOAD DUP1 DUP4 SUB DUP2 PUSH1 0x0 DUP8 DUP1 EXTCODESIZE ISZERO DUP1 ISZERO PUSH2 0x2D1C JUMPI PUSH1 0x0 DUP1 REVERT JUMPDEST POP GAS CALL ISZERO DUP1 ISZERO PUSH2 0x2D30 JUMPI RETURNDATASIZE PUSH1 0x0 DUP1 RETURNDATACOPY RETURNDATASIZE PUSH1 0x0 REVERT JUMPDEST POP POP POP POP DUP1 DUP1 PUSH2 0x2D3F SWAP1 PUSH2 0x5ECC JUMP JUMPDEST SWAP2 POP POP PUSH2 0x2BE7 JUMP JUMPDEST POP PUSH1 0x3 SLOAD DUP3 MLOAD PUSH1 0x40 MLOAD PUSH4 0x87AF5D79 PUSH1 0xE0 SHL DUP2 MSTORE PUSH1 0x4 DUP2 ADD DUP7 SWAP1 MSTORE PUSH1 0x24 DUP2 ADD SWAP2 SWAP1 SWAP2 MSTORE PUSH1 0x1 PUSH1 0x1 PUSH1 0xA0 SHL SUB SWAP1 SWAP2 AND SWAP1 PUSH4 0x87AF5D79 SWAP1 PUSH1 0x44 ADD PUSH1 0x0 PUSH1 0x40 MLOAD DUP1 DUP4 SUB DUP2 PUSH1 0x0 DUP8 DUP1 EXTCODESIZE ISZERO DUP1 ISZERO PUSH2 0x2D98 JUMPI PUSH1 0x0 DUP1 REVERT JUMPDEST POP GAS CALL ISZERO DUP1 ISZERO PUSH2 0x2DAC JUMPI RETURNDATASIZE PUSH1 0x0 DUP1 RETURNDATACOPY RETURNDATASIZE PUSH1 0x0 REVERT JUMPDEST POP POP PUSH1 0x3 SLOAD DUP5 MLOAD PUSH1 0x40 MLOAD PUSH4 0x2639B067 PUSH1 0xE1 SHL DUP2 MSTORE PUSH1 0x1 PUSH1 0x1 PUSH1 0xA0 SHL SUB SWAP1 SWAP3 AND SWAP4 POP PUSH4 0x4C7360CE SWAP3 POP PUSH2 0x2DE4 SWAP2 DUP8 SWAP2 DUP7 SWAP2 PUSH1 0x4 ADD PUSH2 0x5AF0 JUMP JUMPDEST PUSH1 0x0 PUSH1 0x40 MLOAD DUP1 DUP4 SUB DUP2 PUSH1 0x0 DUP8 DUP1 EXTCODESIZE ISZERO DUP1 ISZERO PUSH2 0x2DFE JUMPI PUSH1 0x0 DUP1 REVERT JUMPDEST POP GAS CALL ISZERO DUP1 ISZERO PUSH2 0x2E12 JUMPI RETURNDATASIZE PUSH1 0x0 DUP1 RETURNDATACOPY RETURNDATASIZE PUSH1 0x0 REVERT JUMPDEST POP POP PUSH1 0x3 SLOAD PUSH1 0x40 MLOAD PUSH4 0x8A9A9FF3 PUSH1 0xE0 SHL DUP2 MSTORE PUSH1 0x4 DUP2 ADD DUP8 SWAP1 MSTORE PUSH1 0x0 PUSH1 0x24 DUP3 ADD MSTORE PUSH1 0x1 PUSH1 0x1 PUSH1 0xA0 SHL SUB SWAP1 SWAP2 AND SWAP3 POP PUSH4 0x8A9A9FF3 SWAP2 POP PUSH1 0x44 ADD PUSH1 0x20 PUSH1 0x40 MLOAD DUP1 DUP4 SUB DUP2 DUP7 DUP1 EXTCODESIZE ISZERO DUP1 ISZERO PUSH2 0x2E61 JUMPI PUSH1 0x0 DUP1 REVERT JUMPDEST POP GAS STATICCALL ISZERO DUP1 ISZERO PUSH2 0x2E75 JUMPI RETURNDATASIZE PUSH1 0x0 DUP1 RETURNDATACOPY RETURNDATASIZE PUSH1 0x0 REVERT JUMPDEST POP POP POP POP PUSH1 0x40 MLOAD RETURNDATASIZE PUSH1 0x1F NOT PUSH1 0x1F DUP3 ADD AND DUP3 ADD DUP1 PUSH1 0x40 MSTORE POP DUP2 ADD SWAP1 PUSH2 0x2E99 SWAP2 SWAP1 PUSH2 0x53D9 JUMP JUMPDEST ISZERO PUSH2 0x30D7 JUMPI PUSH1 0x3 SLOAD PUSH1 0x40 MLOAD PUSH4 0x6030DDC1 PUSH1 0xE1 SHL DUP2 MSTORE PUSH1 0x4 DUP2 ADD DUP6 SWAP1 MSTORE PUSH1 0x0 PUSH1 0x24 DUP3 ADD MSTORE PUSH1 0x1 PUSH1 0x1 PUSH1 0xA0 SHL SUB SWAP1 SWAP2 AND SWAP1 PUSH4 0xC061BB82 SWAP1 PUSH1 0x44 ADD PUSH1 0x0 PUSH1 0x40 MLOAD DUP1 DUP4 SUB DUP2 PUSH1 0x0 DUP8 DUP1 EXTCODESIZE ISZERO DUP1 ISZERO PUSH2 0x2EEB JUMPI PUSH1 0x0 DUP1 REVERT JUMPDEST POP GAS CALL ISZERO DUP1 ISZERO PUSH2 0x2EFF JUMPI RETURNDATASIZE PUSH1 0x0 DUP1 RETURNDATACOPY RETURNDATASIZE PUSH1 0x0 REVERT JUMPDEST POP POP POP POP PUSH1 0x0 DUP1 MLOAD PUSH1 0x20 PUSH2 0x5FB0 DUP4 CODECOPY DUP2 MLOAD SWAP2 MSTORE DUP4 PUSH1 0x0 DUP4 PUSH1 0x40 MLOAD PUSH2 0x2F25 SWAP4 SWAP3 SWAP2 SWAP1 PUSH2 0x5BE8 JUMP JUMPDEST PUSH1 0x40 MLOAD DUP1 SWAP2 SUB SWAP1 LOG1 PUSH1 0x3 SLOAD PUSH1 0x40 MLOAD PUSH4 0x8A9A9FF3 PUSH1 0xE0 SHL DUP2 MSTORE PUSH1 0x4 DUP2 ADD DUP6 SWAP1 MSTORE PUSH1 0x1 PUSH1 0x24 DUP3 ADD MSTORE PUSH1 0x1 PUSH1 0x1 PUSH1 0xA0 SHL SUB SWAP1 SWAP2 AND SWAP1 PUSH4 0x8A9A9FF3 SWAP1 PUSH1 0x44 ADD PUSH1 0x20 PUSH1 0x40 MLOAD DUP1 DUP4 SUB DUP2 DUP7 DUP1 EXTCODESIZE ISZERO DUP1 ISZERO PUSH2 0x2F78 JUMPI PUSH1 0x0 DUP1 REVERT JUMPDEST POP GAS STATICCALL ISZERO DUP1 ISZERO PUSH2 0x2F8C JUMPI RETURNDATASIZE PUSH1 0x0 DUP1 RETURNDATACOPY RETURNDATASIZE PUSH1 0x0 REVERT JUMPDEST POP POP POP POP PUSH1 0x40 MLOAD RETURNDATASIZE PUSH1 0x1F NOT PUSH1 0x1F DUP3 ADD AND DUP3 ADD DUP1 PUSH1 0x40 MSTORE POP DUP2 ADD SWAP1 PUSH2 0x2FB0 SWAP2 SWAP1 PUSH2 0x53D9 JUMP JUMPDEST ISZERO PUSH2 0x3047 JUMPI PUSH1 0x3 DUP1 SLOAD PUSH1 0x40 MLOAD PUSH4 0x17E925D7 PUSH1 0xE0 SHL DUP2 MSTORE PUSH1 0x1 PUSH1 0x1 PUSH1 0xA0 SHL SUB SWAP1 SWAP2 AND SWAP2 PUSH4 0x17E925D7 SWAP2 PUSH2 0x2FE6 SWAP2 DUP8 SWAP2 PUSH1 0x4 ADD PUSH2 0x5C07 JUMP JUMPDEST PUSH1 0x0 PUSH1 0x40 MLOAD DUP1 DUP4 SUB DUP2 PUSH1 0x0 DUP8 DUP1 EXTCODESIZE ISZERO DUP1 ISZERO PUSH2 0x3000 JUMPI PUSH1 0x0 DUP1 REVERT JUMPDEST POP GAS CALL ISZERO DUP1 ISZERO PUSH2 0x3014 JUMPI RETURNDATASIZE PUSH1 0x0 DUP1 RETURNDATACOPY RETURNDATASIZE PUSH1 0x0 REVERT JUMPDEST POP POP POP POP PUSH1 0x0 DUP1 MLOAD PUSH1 0x20 PUSH2 0x5F90 DUP4 CODECOPY DUP2 MLOAD SWAP2 MSTORE DUP4 PUSH1 0x3 DUP4 PUSH1 0x40 MLOAD PUSH2 0x303A SWAP4 SWAP3 SWAP2 SWAP1 PUSH2 0x5C1B JUMP JUMPDEST PUSH1 0x40 MLOAD DUP1 SWAP2 SUB SWAP1 LOG1 PUSH2 0x30D7 JUMP JUMPDEST PUSH1 0x3 SLOAD PUSH1 0x40 MLOAD PUSH4 0x17E925D7 PUSH1 0xE0 SHL DUP2 MSTORE PUSH1 0x1 PUSH1 0x1 PUSH1 0xA0 SHL SUB SWAP1 SWAP2 AND SWAP1 PUSH4 0x17E925D7 SWAP1 PUSH2 0x307A SWAP1 DUP7 SWAP1 PUSH1 0x1 SWAP1 PUSH1 0x4 ADD PUSH2 0x5C07 JUMP JUMPDEST PUSH1 0x0 PUSH1 0x40 MLOAD DUP1 DUP4 SUB DUP2 PUSH1 0x0 DUP8 DUP1 EXTCODESIZE ISZERO DUP1 ISZERO PUSH2 0x3094 JUMPI PUSH1 0x0 DUP1 REVERT JUMPDEST POP GAS CALL ISZERO DUP1 ISZERO PUSH2 0x30A8 JUMPI RETURNDATASIZE PUSH1 0x0 DUP1 RETURNDATACOPY RETURNDATASIZE PUSH1 0x0 REVERT JUMPDEST POP POP POP POP PUSH1 0x0 DUP1 MLOAD PUSH1 0x20 PUSH2 0x5F90 DUP4 CODECOPY DUP2 MLOAD SWAP2 MSTORE DUP4 PUSH1 0x1 DUP4 PUSH1 0x40 MLOAD PUSH2 0x30CE SWAP4 SWAP3 SWAP2 SWAP1 PUSH2 0x5C1B JUMP JUMPDEST PUSH1 0x40 MLOAD DUP1 SWAP2 SUB SWAP1 LOG1 JUMPDEST PUSH32 0x8E913351AA76002E572CC432B46556976F6E10285B52F94909124EA8EBD0B795 DUP4 DUP4 DUP4 PUSH1 0x0 PUSH1 0x40 MLOAD PUSH2 0x16B6 SWAP5 SWAP4 SWAP3 SWAP2 SWAP1 PUSH2 0x5BAE JUMP JUMPDEST PUSH1 0x2 SLOAD PUSH1 0x0 SWAP1 PUSH1 0x60 SWAP1 PUSH1 0x1 PUSH1 0x1 PUSH1 0xA0 SHL SUB AND CALLER EQ PUSH2 0x313E JUMPI PUSH1 0x40 MLOAD PUSH4 0x48E2D49 PUSH1 0xE4 SHL DUP2 MSTORE PUSH1 0x4 ADD PUSH2 0x3A1 SWAP1 PUSH2 0x5A4C JUMP JUMPDEST PUSH1 0x1 SLOAD PUSH1 0x3 DUP1 SLOAD PUSH1 0x1 PUSH1 0x1 PUSH1 0xA0 SHL SUB NOT AND PUSH1 0x1 PUSH1 0x1 PUSH1 0xA0 SHL SUB SWAP1 SWAP3 AND SWAP2 DUP3 OR SWAP1 SSTORE PUSH1 0x40 MLOAD PUSH4 0xF8626EBB PUSH1 0xE0 SHL DUP2 MSTORE PUSH1 0x4 DUP2 ADD DUP6 SWAP1 MSTORE PUSH1 0x0 SWAP2 SWAP1 PUSH4 0xF8626EBB SWAP1 PUSH1 0x24 ADD PUSH1 0x20 PUSH1 0x40 MLOAD DUP1 DUP4 SUB DUP2 DUP7 DUP1 EXTCODESIZE ISZERO DUP1 ISZERO PUSH2 0x3198 JUMPI PUSH1 0x0 DUP1 REVERT JUMPDEST POP GAS STATICCALL ISZERO DUP1 ISZERO PUSH2 0x31AC JUMPI RETURNDATASIZE PUSH1 0x0 DUP1 RETURNDATACOPY RETURNDATASIZE PUSH1 0x0 REVERT JUMPDEST POP POP POP POP PUSH1 0x40 MLOAD RETURNDATASIZE PUSH1 0x1F NOT PUSH1 0x1F DUP3 ADD AND DUP3 ADD DUP1 PUSH1 0x40 MSTORE POP DUP2 ADD SWAP1 PUSH2 0x31D0 SWAP2 SWAP1 PUSH2 0x547D JUMP JUMPDEST PUSH1 0x3 SLOAD PUSH1 0x40 MLOAD PUSH4 0x34BFB5A7 PUSH1 0xE2 SHL DUP2 MSTORE PUSH1 0x4 DUP2 ADD DUP8 SWAP1 MSTORE SWAP2 SWAP3 POP PUSH1 0x0 SWAP2 PUSH1 0x1 PUSH1 0x1 PUSH1 0xA0 SHL SUB SWAP1 SWAP2 AND SWAP1 PUSH4 0xD2FED69C SWAP1 PUSH1 0x24 ADD PUSH1 0x20 PUSH1 0x40 MLOAD DUP1 DUP4 SUB DUP2 DUP7 DUP1 EXTCODESIZE ISZERO DUP1 ISZERO PUSH2 0x321A JUMPI PUSH1 0x0 DUP1 REVERT JUMPDEST POP GAS STATICCALL ISZERO DUP1 ISZERO PUSH2 0x322E JUMPI RETURNDATASIZE PUSH1 0x0 DUP1 RETURNDATACOPY RETURNDATASIZE PUSH1 0x0 REVERT JUMPDEST POP POP POP POP PUSH1 0x40 MLOAD RETURNDATASIZE PUSH1 0x1F NOT PUSH1 0x1F DUP3 ADD AND DUP3 ADD DUP1 PUSH1 0x40 MSTORE POP DUP2 ADD SWAP1 PUSH2 0x3252 SWAP2 SWAP1 PUSH2 0x547D JUMP JUMPDEST PUSH1 0x3 SLOAD PUSH1 0x40 MLOAD PUSH4 0x12506F4D PUSH1 0xE0 SHL DUP2 MSTORE PUSH1 0x4 DUP2 ADD DUP9 SWAP1 MSTORE SWAP2 SWAP3 POP PUSH1 0x0 SWAP2 PUSH1 0x1 PUSH1 0x1 PUSH1 0xA0 SHL SUB SWAP1 SWAP2 AND SWAP1 PUSH4 0x12506F4D SWAP1 PUSH1 0x24 ADD PUSH1 0x0 PUSH1 0x40 MLOAD DUP1 DUP4 SUB DUP2 DUP7 DUP1 EXTCODESIZE ISZERO DUP1 ISZERO PUSH2 0x329C JUMPI PUSH1 0x0 DUP1 REVERT JUMPDEST POP GAS STATICCALL ISZERO DUP1 ISZERO PUSH2 0x32B0 JUMPI RETURNDATASIZE PUSH1 0x0 DUP1 RETURNDATACOPY RETURNDATASIZE PUSH1 0x0 REVERT JUMPDEST POP POP POP POP PUSH1 0x40 MLOAD RETURNDATASIZE PUSH1 0x0 DUP3 RETURNDATACOPY PUSH1 0x1F RETURNDATASIZE SWAP1 DUP2 ADD PUSH1 0x1F NOT AND DUP3 ADD PUSH1 0x40 MSTORE PUSH2 0x32D8 SWAP2 SWAP1 DUP2 ADD SWAP1 PUSH2 0x5145 JUMP JUMPDEST PUSH1 0x3 SLOAD PUSH1 0x40 MLOAD PUSH4 0x8A9A9FF3 PUSH1 0xE0 SHL DUP2 MSTORE PUSH1 0x4 DUP2 ADD DUP10 SWAP1 MSTORE PUSH1 0x0 PUSH1 0x24 DUP3 ADD MSTORE SWAP2 SWAP3 POP PUSH1 0x1 PUSH1 0x1 PUSH1 0xA0 SHL SUB AND SWAP1 PUSH4 0x8A9A9FF3 SWAP1 PUSH1 0x44 ADD PUSH1 0x20 PUSH1 0x40 MLOAD DUP1 DUP4 SUB DUP2 DUP7 DUP1 EXTCODESIZE ISZERO DUP1 ISZERO PUSH2 0x3324 JUMPI PUSH1 0x0 DUP1 REVERT JUMPDEST POP GAS STATICCALL ISZERO DUP1 ISZERO PUSH2 0x3338 JUMPI RETURNDATASIZE PUSH1 0x0 DUP1 RETURNDATACOPY RETURNDATASIZE PUSH1 0x0 REVERT JUMPDEST POP POP POP POP PUSH1 0x40 MLOAD RETURNDATASIZE PUSH1 0x1F NOT PUSH1 0x1F DUP3 ADD AND DUP3 ADD DUP1 PUSH1 0x40 MSTORE POP DUP2 ADD SWAP1 PUSH2 0x335C SWAP2 SWAP1 PUSH2 0x53D9 JUMP JUMPDEST ISZERO PUSH2 0x338F JUMPI PUSH1 0x1 PUSH1 0x40 MLOAD DUP1 PUSH1 0x40 ADD PUSH1 0x40 MSTORE DUP1 PUSH1 0x7 DUP2 MSTORE PUSH1 0x20 ADD PUSH7 0x1A5CC8199D5B1B PUSH1 0xCA SHL DUP2 MSTORE POP SWAP5 POP SWAP5 POP POP POP POP SWAP2 POP SWAP2 JUMP JUMPDEST DUP3 ISZERO DUP1 ISZERO PUSH2 0x339C JUMPI POP DUP2 ISZERO ISZERO JUMPDEST ISZERO PUSH2 0x346A JUMPI PUSH1 0x3 SLOAD PUSH1 0x40 MLOAD PUSH4 0x6030DDC1 PUSH1 0xE1 SHL DUP2 MSTORE PUSH1 0x4 DUP2 ADD DUP9 SWAP1 MSTORE PUSH1 0x0 PUSH1 0x24 DUP3 ADD MSTORE PUSH1 0x1 PUSH1 0x1 PUSH1 0xA0 SHL SUB SWAP1 SWAP2 AND SWAP1 PUSH4 0xC061BB82 SWAP1 PUSH1 0x44 ADD PUSH1 0x0 PUSH1 0x40 MLOAD DUP1 DUP4 SUB DUP2 PUSH1 0x0 DUP8 DUP1 EXTCODESIZE ISZERO DUP1 ISZERO PUSH2 0x33EE JUMPI PUSH1 0x0 DUP1 REVERT JUMPDEST POP GAS CALL ISZERO DUP1 ISZERO PUSH2 0x3402 JUMPI RETURNDATASIZE PUSH1 0x0 DUP1 RETURNDATACOPY RETURNDATASIZE PUSH1 0x0 REVERT JUMPDEST POP POP POP POP PUSH1 0x0 DUP1 MLOAD PUSH1 0x20 PUSH2 0x5FB0 DUP4 CODECOPY DUP2 MLOAD SWAP2 MSTORE DUP7 PUSH1 0x0 CALLER PUSH1 0x40 MLOAD PUSH2 0x3428 SWAP4 SWAP3 SWAP2 SWAP1 PUSH2 0x5BE8 JUMP JUMPDEST PUSH1 0x40 MLOAD DUP1 SWAP2 SUB SWAP1 LOG1 PUSH1 0x1 PUSH1 0x40 MLOAD DUP1 PUSH1 0x40 ADD PUSH1 0x40 MSTORE DUP1 PUSH1 0x13 DUP2 MSTORE PUSH1 0x20 ADD PUSH19 0x766572696669657273206E756D626572203D3 PUSH1 0x6C SHL DUP2 MSTORE POP SWAP5 POP SWAP5 POP POP POP POP SWAP2 POP SWAP2 JUMP JUMPDEST DUP3 ISZERO DUP1 ISZERO PUSH2 0x3476 JUMPI POP DUP2 ISZERO JUMPDEST ISZERO PUSH2 0x34B6 JUMPI PUSH2 0x3484 DUP7 PUSH2 0x4806 JUMP JUMPDEST PUSH1 0x0 PUSH1 0x40 MLOAD DUP1 PUSH1 0x40 ADD PUSH1 0x40 MSTORE DUP1 PUSH1 0xB DUP2 MSTORE PUSH1 0x20 ADD PUSH11 0x6E6F206F6E652070696E6B PUSH1 0xA8 SHL DUP2 MSTORE POP SWAP5 POP SWAP5 POP POP POP POP SWAP2 POP SWAP2 JUMP JUMPDEST DUP1 MLOAD DUP4 PUSH1 0x0 PUSH2 0x34C5 DUP3 DUP5 PUSH2 0x5E43 JUMP JUMPDEST PUSH1 0x3 SLOAD PUSH1 0x40 MLOAD PUSH4 0xB647EEC3 PUSH1 0xE0 SHL DUP2 MSTORE PUSH1 0x4 DUP2 ADD DUP13 SWAP1 MSTORE SWAP2 SWAP3 POP PUSH1 0x0 SWAP2 PUSH1 0x1 PUSH1 0x1 PUSH1 0xA0 SHL SUB SWAP1 SWAP2 AND SWAP1 PUSH4 0xB647EEC3 SWAP1 PUSH1 0x24 ADD PUSH1 0x0 PUSH1 0x40 MLOAD DUP1 DUP4 SUB DUP2 DUP7 DUP1 EXTCODESIZE ISZERO DUP1 ISZERO PUSH2 0x350F JUMPI PUSH1 0x0 DUP1 REVERT JUMPDEST POP GAS STATICCALL ISZERO DUP1 ISZERO PUSH2 0x3523 JUMPI RETURNDATASIZE PUSH1 0x0 DUP1 RETURNDATACOPY RETURNDATASIZE PUSH1 0x0 REVERT JUMPDEST POP POP POP POP PUSH1 0x40 MLOAD RETURNDATASIZE PUSH1 0x0 DUP3 RETURNDATACOPY PUSH1 0x1F RETURNDATASIZE SWAP1 DUP2 ADD PUSH1 0x1F NOT AND DUP3 ADD PUSH1 0x40 MSTORE PUSH2 0x354B SWAP2 SWAP1 DUP2 ADD SWAP1 PUSH2 0x50A5 JUMP JUMPDEST SWAP1 POP PUSH1 0x0 JUMPDEST DUP6 MLOAD DUP2 LT ISZERO PUSH2 0x388E JUMPI PUSH1 0x0 DUP7 DUP3 DUP2 MLOAD DUP2 LT PUSH2 0x356D JUMPI PUSH2 0x356D PUSH2 0x5F13 JUMP JUMPDEST PUSH1 0x20 MUL PUSH1 0x20 ADD ADD MLOAD PUSH1 0x60 ADD MLOAD PUSH1 0xB DUP2 GT ISZERO PUSH2 0x358A JUMPI PUSH2 0x358A PUSH2 0x5EFD JUMP JUMPDEST EQ ISZERO PUSH2 0x387C JUMPI PUSH1 0x0 JUMPDEST DUP9 DUP2 LT ISZERO PUSH2 0x387A JUMPI PUSH1 0x3 SLOAD DUP4 MLOAD DUP6 SWAP2 PUSH1 0x1 PUSH1 0x1 PUSH1 0xA0 SHL SUB AND SWAP1 PUSH4 0x790485F9 SWAP1 DUP16 SWAP1 DUP8 SWAP1 DUP7 SWAP1 DUP2 LT PUSH2 0x35C6 JUMPI PUSH2 0x35C6 PUSH2 0x5F13 JUMP JUMPDEST PUSH1 0x20 MUL PUSH1 0x20 ADD ADD MLOAD PUSH1 0x40 MLOAD DUP4 PUSH4 0xFFFFFFFF AND PUSH1 0xE0 SHL DUP2 MSTORE PUSH1 0x4 ADD PUSH2 0x35FD SWAP3 SWAP2 SWAP1 SWAP2 DUP3 MSTORE PUSH1 0x1 PUSH1 0x1 PUSH1 0xA0 SHL SUB AND PUSH1 0x20 DUP3 ADD MSTORE PUSH1 0x40 ADD SWAP1 JUMP JUMPDEST PUSH1 0x20 PUSH1 0x40 MLOAD DUP1 DUP4 SUB DUP2 DUP7 DUP1 EXTCODESIZE ISZERO DUP1 ISZERO PUSH2 0x3615 JUMPI PUSH1 0x0 DUP1 REVERT JUMPDEST POP GAS STATICCALL ISZERO DUP1 ISZERO PUSH2 0x3629 JUMPI RETURNDATASIZE PUSH1 0x0 DUP1 RETURNDATACOPY RETURNDATASIZE PUSH1 0x0 REVERT JUMPDEST POP POP POP POP PUSH1 0x40 MLOAD RETURNDATASIZE PUSH1 0x1F NOT PUSH1 0x1F DUP3 ADD AND DUP3 ADD DUP1 PUSH1 0x40 MSTORE POP DUP2 ADD SWAP1 PUSH2 0x364D SWAP2 SWAP1 PUSH2 0x547D JUMP JUMPDEST GT ISZERO PUSH2 0x3658 JUMPI PUSH2 0x3868 JUMP JUMPDEST PUSH1 0x3 SLOAD PUSH1 0x40 MLOAD PUSH4 0x87AF5D79 PUSH1 0xE0 SHL DUP2 MSTORE PUSH1 0x4 DUP2 ADD DUP15 SWAP1 MSTORE PUSH1 0x1 PUSH1 0x24 DUP3 ADD MSTORE PUSH1 0x1 PUSH1 0x1 PUSH1 0xA0 SHL SUB SWAP1 SWAP2 AND SWAP1 PUSH4 0x87AF5D79 SWAP1 PUSH1 0x44 ADD PUSH1 0x0 PUSH1 0x40 MLOAD DUP1 DUP4 SUB DUP2 PUSH1 0x0 DUP8 DUP1 EXTCODESIZE ISZERO DUP1 ISZERO PUSH2 0x36A5 JUMPI PUSH1 0x0 DUP1 REVERT JUMPDEST POP GAS CALL ISZERO DUP1 ISZERO PUSH2 0x36B9 JUMPI RETURNDATASIZE PUSH1 0x0 DUP1 RETURNDATACOPY RETURNDATASIZE PUSH1 0x0 REVERT JUMPDEST POP POP PUSH1 0x3 SLOAD DUP6 MLOAD PUSH1 0x1 PUSH1 0x1 PUSH1 0xA0 SHL SUB SWAP1 SWAP2 AND SWAP3 POP PUSH4 0xA1E047F3 SWAP2 POP DUP15 SWAP1 DUP7 SWAP1 DUP6 SWAP1 DUP2 LT PUSH2 0x36E8 JUMPI PUSH2 0x36E8 PUSH2 0x5F13 JUMP JUMPDEST PUSH1 0x20 MUL PUSH1 0x20 ADD ADD MLOAD DUP6 PUSH1 0x40 MLOAD DUP5 PUSH4 0xFFFFFFFF AND PUSH1 0xE0 SHL DUP2 MSTORE PUSH1 0x4 ADD PUSH2 0x370F SWAP4 SWAP3 SWAP2 SWAP1 PUSH2 0x5AF0 JUMP JUMPDEST PUSH1 0x0 PUSH1 0x40 MLOAD DUP1 DUP4 SUB DUP2 PUSH1 0x0 DUP8 DUP1 EXTCODESIZE ISZERO DUP1 ISZERO PUSH2 0x3729 JUMPI PUSH1 0x0 DUP1 REVERT JUMPDEST POP GAS CALL ISZERO DUP1 ISZERO PUSH2 0x373D JUMPI RETURNDATASIZE PUSH1 0x0 DUP1 RETURNDATACOPY RETURNDATASIZE PUSH1 0x0 REVERT JUMPDEST POP POP POP POP PUSH2 0x374C DUP13 DUP4 CALLER PUSH2 0x4678 JUMP JUMPDEST PUSH1 0x3 SLOAD DUP4 MLOAD PUSH1 0x1 PUSH1 0x1 PUSH1 0xA0 SHL SUB SWAP1 SWAP2 AND SWAP1 PUSH4 0x6D8D1DAF SWAP1 DUP15 SWAP1 DUP6 SWAP1 DUP8 SWAP1 DUP7 SWAP1 DUP2 LT PUSH2 0x3779 JUMPI PUSH2 0x3779 PUSH2 0x5F13 JUMP JUMPDEST PUSH1 0x20 MUL PUSH1 0x20 ADD ADD MLOAD PUSH1 0x40 MLOAD DUP5 PUSH4 0xFFFFFFFF AND PUSH1 0xE0 SHL DUP2 MSTORE PUSH1 0x4 ADD PUSH2 0x37B9 SWAP4 SWAP3 SWAP2 SWAP1 SWAP3 DUP4 MSTORE PUSH1 0x20 DUP4 ADD SWAP2 SWAP1 SWAP2 MSTORE PUSH1 0x1 PUSH1 0x1 PUSH1 0xA0 SHL SUB AND PUSH1 0x40 DUP3 ADD MSTORE PUSH1 0x60 ADD SWAP1 JUMP JUMPDEST PUSH1 0x0 PUSH1 0x40 MLOAD DUP1 DUP4 SUB DUP2 PUSH1 0x0 DUP8 DUP1 EXTCODESIZE ISZERO DUP1 ISZERO PUSH2 0x37D3 JUMPI PUSH1 0x0 DUP1 REVERT JUMPDEST POP GAS CALL ISZERO DUP1 ISZERO PUSH2 0x37E7 JUMPI RETURNDATASIZE PUSH1 0x0 DUP1 RETURNDATACOPY RETURNDATASIZE PUSH1 0x0 REVERT JUMPDEST POP POP POP POP PUSH32 0xAD65127436138B4AFE97EF23BAF28ED14A5FB09500AD117EB196CD3BDB3DBE9F DUP13 DUP4 DUP6 DUP5 DUP2 MLOAD DUP2 LT PUSH2 0x3820 JUMPI PUSH2 0x3820 PUSH2 0x5F13 JUMP JUMPDEST PUSH1 0x20 MUL PUSH1 0x20 ADD ADD MLOAD PUSH1 0x0 PUSH1 0x40 MLOAD PUSH2 0x385B SWAP5 SWAP4 SWAP3 SWAP2 SWAP1 SWAP4 DUP5 MSTORE PUSH1 0x20 DUP5 ADD SWAP3 SWAP1 SWAP3 MSTORE PUSH1 0x1 PUSH1 0x1 PUSH1 0xA0 SHL SUB AND PUSH1 0x40 DUP4 ADD MSTORE ISZERO ISZERO PUSH1 0x60 DUP3 ADD MSTORE PUSH1 0x80 ADD SWAP1 JUMP JUMPDEST PUSH1 0x40 MLOAD DUP1 SWAP2 SUB SWAP1 LOG1 PUSH2 0x387A JUMP JUMPDEST DUP1 PUSH2 0x3872 DUP2 PUSH2 0x5ECC JUMP JUMPDEST SWAP2 POP POP PUSH2 0x3593 JUMP JUMPDEST POP JUMPDEST DUP1 PUSH2 0x3886 DUP2 PUSH2 0x5ECC JUMP JUMPDEST SWAP2 POP POP PUSH2 0x3550 JUMP JUMPDEST POP PUSH1 0x3 SLOAD PUSH1 0x40 MLOAD PUSH4 0x6030DDC1 PUSH1 0xE1 SHL DUP2 MSTORE PUSH1 0x4 DUP2 ADD DUP13 SWAP1 MSTORE PUSH1 0x0 PUSH1 0x24 DUP3 ADD MSTORE PUSH1 0x1 PUSH1 0x1 PUSH1 0xA0 SHL SUB SWAP1 SWAP2 AND SWAP1 PUSH4 0xC061BB82 SWAP1 PUSH1 0x44 ADD PUSH1 0x0 PUSH1 0x40 MLOAD DUP1 DUP4 SUB DUP2 PUSH1 0x0 DUP8 DUP1 EXTCODESIZE ISZERO DUP1 ISZERO PUSH2 0x38DC JUMPI PUSH1 0x0 DUP1 REVERT JUMPDEST POP GAS CALL ISZERO DUP1 ISZERO PUSH2 0x38F0 JUMPI RETURNDATASIZE PUSH1 0x0 DUP1 RETURNDATACOPY RETURNDATASIZE PUSH1 0x0 REVERT JUMPDEST POP POP POP POP PUSH1 0x0 DUP1 MLOAD PUSH1 0x20 PUSH2 0x5FB0 DUP4 CODECOPY DUP2 MLOAD SWAP2 MSTORE DUP11 PUSH1 0x0 CALLER PUSH1 0x40 MLOAD PUSH2 0x3916 SWAP4 SWAP3 SWAP2 SWAP1 PUSH2 0x5BE8 JUMP JUMPDEST PUSH1 0x40 MLOAD DUP1 SWAP2 SUB SWAP1 LOG1 PUSH1 0x3 SLOAD PUSH1 0x40 MLOAD PUSH4 0x8A9A9FF3 PUSH1 0xE0 SHL DUP2 MSTORE PUSH1 0x4 DUP2 ADD DUP13 SWAP1 MSTORE PUSH1 0x1 PUSH1 0x24 DUP3 ADD MSTORE PUSH1 0x1 PUSH1 0x1 PUSH1 0xA0 SHL SUB SWAP1 SWAP2 AND SWAP1 PUSH4 0x8A9A9FF3 SWAP1 PUSH1 0x44 ADD PUSH1 0x20 PUSH1 0x40 MLOAD DUP1 DUP4 SUB DUP2 DUP7 DUP1 EXTCODESIZE ISZERO DUP1 ISZERO PUSH2 0x3969 JUMPI PUSH1 0x0 DUP1 REVERT JUMPDEST POP GAS STATICCALL ISZERO DUP1 ISZERO PUSH2 0x397D JUMPI RETURNDATASIZE PUSH1 0x0 DUP1 RETURNDATACOPY RETURNDATASIZE PUSH1 0x0 REVERT JUMPDEST POP POP POP POP PUSH1 0x40 MLOAD RETURNDATASIZE PUSH1 0x1F NOT PUSH1 0x1F DUP3 ADD AND DUP3 ADD DUP1 PUSH1 0x40 MSTORE POP DUP2 ADD SWAP1 PUSH2 0x39A1 SWAP2 SWAP1 PUSH2 0x53D9 JUMP JUMPDEST ISZERO PUSH2 0x3A38 JUMPI PUSH1 0x3 DUP1 SLOAD PUSH1 0x40 MLOAD PUSH4 0x17E925D7 PUSH1 0xE0 SHL DUP2 MSTORE PUSH1 0x1 PUSH1 0x1 PUSH1 0xA0 SHL SUB SWAP1 SWAP2 AND SWAP2 PUSH4 0x17E925D7 SWAP2 PUSH2 0x39D7 SWAP2 DUP15 SWAP2 PUSH1 0x4 ADD PUSH2 0x5C07 JUMP JUMPDEST PUSH1 0x0 PUSH1 0x40 MLOAD DUP1 DUP4 SUB DUP2 PUSH1 0x0 DUP8 DUP1 EXTCODESIZE ISZERO DUP1 ISZERO PUSH2 0x39F1 JUMPI PUSH1 0x0 DUP1 REVERT JUMPDEST POP GAS CALL ISZERO DUP1 ISZERO PUSH2 0x3A05 JUMPI RETURNDATASIZE PUSH1 0x0 DUP1 RETURNDATACOPY RETURNDATASIZE PUSH1 0x0 REVERT JUMPDEST POP POP POP POP PUSH1 0x0 DUP1 MLOAD PUSH1 0x20 PUSH2 0x5F90 DUP4 CODECOPY DUP2 MLOAD SWAP2 MSTORE DUP11 PUSH1 0x3 CALLER PUSH1 0x40 MLOAD PUSH2 0x3A2B SWAP4 SWAP3 SWAP2 SWAP1 PUSH2 0x5C1B JUMP JUMPDEST PUSH1 0x40 MLOAD DUP1 SWAP2 SUB SWAP1 LOG1 PUSH2 0x3AC8 JUMP JUMPDEST PUSH1 0x3 SLOAD PUSH1 0x40 MLOAD PUSH4 0x17E925D7 PUSH1 0xE0 SHL DUP2 MSTORE PUSH1 0x1 PUSH1 0x1 PUSH1 0xA0 SHL SUB SWAP1 SWAP2 AND SWAP1 PUSH4 0x17E925D7 SWAP1 PUSH2 0x3A6B SWAP1 DUP14 SWAP1 PUSH1 0x1 SWAP1 PUSH1 0x4 ADD PUSH2 0x5C07 JUMP JUMPDEST PUSH1 0x0 PUSH1 0x40 MLOAD DUP1 DUP4 SUB DUP2 PUSH1 0x0 DUP8 DUP1 EXTCODESIZE ISZERO DUP1 ISZERO PUSH2 0x3A85 JUMPI PUSH1 0x0 DUP1 REVERT JUMPDEST POP GAS CALL ISZERO DUP1 ISZERO PUSH2 0x3A99 JUMPI RETURNDATASIZE PUSH1 0x0 DUP1 RETURNDATACOPY RETURNDATASIZE PUSH1 0x0 REVERT JUMPDEST POP POP POP POP PUSH1 0x0 DUP1 MLOAD PUSH1 0x20 PUSH2 0x5F90 DUP4 CODECOPY DUP2 MLOAD SWAP2 MSTORE DUP11 PUSH1 0x1 CALLER PUSH1 0x40 MLOAD PUSH2 0x3ABF SWAP4 SWAP3 SWAP2 SWAP1 PUSH2 0x5C1B JUMP JUMPDEST PUSH1 0x40 MLOAD DUP1 SWAP2 SUB SWAP1 LOG1 JUMPDEST POP POP POP POP PUSH1 0x1 PUSH1 0x40 MLOAD DUP1 PUSH1 0x40 ADD PUSH1 0x40 MSTORE DUP1 PUSH1 0x14 DUP2 MSTORE PUSH1 0x20 ADD PUSH20 0x105B1B1BD8D85D1A5BDB8818DBDB5C1B195D1959 PUSH1 0x62 SHL DUP2 MSTORE POP SWAP5 POP SWAP5 POP POP POP POP SWAP2 POP SWAP2 JUMP JUMPDEST PUSH1 0x2 SLOAD PUSH1 0x1 PUSH1 0x1 PUSH1 0xA0 SHL SUB AND CALLER EQ PUSH2 0x3B32 JUMPI PUSH1 0x40 MLOAD PUSH4 0x48E2D49 PUSH1 0xE4 SHL DUP2 MSTORE PUSH1 0x4 ADD PUSH2 0x3A1 SWAP1 PUSH2 0x5A4C JUMP JUMPDEST PUSH1 0x1 SLOAD PUSH1 0x3 DUP1 SLOAD PUSH1 0x1 PUSH1 0x1 PUSH1 0xA0 SHL SUB SWAP1 SWAP3 AND PUSH1 0x1 PUSH1 0x1 PUSH1 0xA0 SHL SUB NOT SWAP1 SWAP3 AND DUP3 OR SWAP1 SSTORE PUSH1 0x40 MLOAD PUSH4 0x56B03E39 PUSH1 0xE1 SHL DUP2 MSTORE PUSH1 0x4 DUP2 ADD DUP7 SWAP1 MSTORE PUSH1 0x24 DUP2 ADD DUP6 SWAP1 MSTORE PUSH1 0x7 SWAP2 SWAP1 PUSH4 0xAD607C72 SWAP1 PUSH1 0x44 ADD PUSH1 0x20 PUSH1 0x40 MLOAD DUP1 DUP4 SUB DUP2 DUP7 DUP1 EXTCODESIZE ISZERO DUP1 ISZERO PUSH2 0x3B94 JUMPI PUSH1 0x0 DUP1 REVERT JUMPDEST POP GAS STATICCALL ISZERO DUP1 ISZERO PUSH2 0x3BA8 JUMPI RETURNDATASIZE PUSH1 0x0 DUP1 RETURNDATACOPY RETURNDATASIZE PUSH1 0x0 REVERT JUMPDEST POP POP POP POP PUSH1 0x40 MLOAD RETURNDATASIZE PUSH1 0x1F NOT PUSH1 0x1F DUP3 ADD AND DUP3 ADD DUP1 PUSH1 0x40 MSTORE POP DUP2 ADD SWAP1 PUSH2 0x3BCC SWAP2 SWAP1 PUSH2 0x53F6 JUMP JUMPDEST PUSH1 0xB DUP2 GT ISZERO PUSH2 0x3BDD JUMPI PUSH2 0x3BDD PUSH2 0x5EFD JUMP JUMPDEST EQ ISZERO PUSH2 0x3C24 JUMPI PUSH1 0x40 DUP1 MLOAD DUP6 DUP2 MSTORE PUSH1 0x20 DUP2 ADD DUP6 SWAP1 MSTORE PUSH1 0x0 DUP2 DUP4 ADD MSTORE SWAP1 MLOAD PUSH32 0x81ECD6389CA17F05C1600520125EE92C8221396AD1755593553517594AD09810 SWAP2 DUP2 SWAP1 SUB PUSH1 0x60 ADD SWAP1 LOG1 JUMPDEST PUSH1 0x3 SLOAD PUSH1 0x40 MLOAD PUSH4 0x7E8AFD3 PUSH1 0xE2 SHL DUP2 MSTORE PUSH1 0x1 PUSH1 0x1 PUSH1 0xA0 SHL SUB SWAP1 SWAP2 AND SWAP1 PUSH4 0x1FA2BF4C SWAP1 PUSH2 0x3C59 SWAP1 DUP8 SWAP1 DUP8 SWAP1 PUSH1 0x6 SWAP1 PUSH1 0x4 ADD PUSH2 0x5CAC JUMP JUMPDEST PUSH1 0x0 PUSH1 0x40 MLOAD DUP1 DUP4 SUB DUP2 PUSH1 0x0 DUP8 DUP1 EXTCODESIZE ISZERO DUP1 ISZERO PUSH2 0x3C73 JUMPI PUSH1 0x0 DUP1 REVERT JUMPDEST POP GAS CALL ISZERO DUP1 ISZERO PUSH2 0x3C87 JUMPI RETURNDATASIZE PUSH1 0x0 DUP1 RETURNDATACOPY RETURNDATASIZE PUSH1 0x0 REVERT JUMPDEST POP POP POP POP PUSH1 0x0 DUP1 MLOAD PUSH1 0x20 PUSH2 0x5F70 DUP4 CODECOPY DUP2 MLOAD SWAP2 MSTORE DUP5 DUP5 PUSH1 0x6 CALLER PUSH1 0x40 MLOAD PUSH2 0x3CAF SWAP5 SWAP4 SWAP3 SWAP2 SWAP1 PUSH2 0x5CC7 JUMP JUMPDEST PUSH1 0x40 MLOAD DUP1 SWAP2 SUB SWAP1 LOG1 PUSH1 0x3 SLOAD PUSH1 0x40 MLOAD PUSH4 0x1B10C641 PUSH1 0xE2 SHL DUP2 MSTORE PUSH1 0x1 PUSH1 0x1 PUSH1 0xA0 SHL SUB SWAP1 SWAP2 AND SWAP1 PUSH4 0x6C431904 SWAP1 PUSH2 0x3CEE SWAP1 DUP8 SWAP1 DUP6 SWAP1 DUP9 SWAP1 PUSH1 0x1 SWAP1 PUSH1 0x4 ADD PUSH2 0x5B0F JUMP JUMPDEST PUSH1 0x0 PUSH1 0x40 MLOAD DUP1 DUP4 SUB DUP2 PUSH1 0x0 DUP8 DUP1 EXTCODESIZE ISZERO DUP1 ISZERO PUSH2 0x3D08 JUMPI PUSH1 0x0 DUP1 REVERT JUMPDEST POP GAS CALL ISZERO DUP1 ISZERO PUSH2 0x3D1C JUMPI RETURNDATASIZE PUSH1 0x0 DUP1 RETURNDATACOPY RETURNDATASIZE PUSH1 0x0 REVERT JUMPDEST POP POP POP POP PUSH1 0x0 DUP1 MLOAD PUSH1 0x20 PUSH2 0x5FD0 DUP4 CODECOPY DUP2 MLOAD SWAP2 MSTORE DUP5 DUP3 DUP6 PUSH1 0x1 PUSH1 0x0 DUP7 PUSH1 0x40 MLOAD PUSH2 0x3D49 SWAP7 SWAP6 SWAP5 SWAP4 SWAP3 SWAP2 SWAP1 PUSH2 0x5B39 JUMP JUMPDEST PUSH1 0x40 MLOAD DUP1 SWAP2 SUB SWAP1 LOG1 PUSH1 0x3 SLOAD PUSH1 0x40 MLOAD PUSH4 0x5C3F9C9 PUSH1 0xE0 SHL DUP2 MSTORE PUSH1 0x0 SWAP2 PUSH1 0x1 PUSH1 0x1 PUSH1 0xA0 SHL SUB AND SWAP1 PUSH4 0x5C3F9C9 SWAP1 PUSH2 0x3D88 SWAP1 DUP9 SWAP1 DUP7 SWAP1 DUP10 SWAP1 DUP10 SWAP1 PUSH1 0x4 ADD PUSH2 0x5B81 JUMP JUMPDEST PUSH1 0x20 PUSH1 0x40 MLOAD DUP1 DUP4 SUB DUP2 PUSH1 0x0 DUP8 DUP1 EXTCODESIZE ISZERO DUP1 ISZERO PUSH2 0x3DA2 JUMPI PUSH1 0x0 DUP1 REVERT JUMPDEST POP GAS CALL ISZERO DUP1 ISZERO PUSH2 0x3DB6 JUMPI RETURNDATASIZE PUSH1 0x0 DUP1 RETURNDATACOPY RETURNDATASIZE PUSH1 0x0 REVERT JUMPDEST POP POP POP POP PUSH1 0x40 MLOAD RETURNDATASIZE PUSH1 0x1F NOT PUSH1 0x1F DUP3 ADD AND DUP3 ADD DUP1 PUSH1 0x40 MSTORE POP DUP2 ADD SWAP1 PUSH2 0x3DDA SWAP2 SWAP1 PUSH2 0x547D JUMP JUMPDEST SWAP1 POP PUSH32 0x79D1EFBC53E0B7B5B56C575CD2FD71B51F8D41409F12B1ABA3471E6678906098 DUP6 DUP6 DUP4 DUP7 DUP7 PUSH1 0x0 PUSH1 0x40 MLOAD PUSH2 0x1DEE SWAP7 SWAP6 SWAP5 SWAP4 SWAP3 SWAP2 SWAP1 PUSH2 0x5CFC JUMP JUMPDEST PUSH2 0x3E1E PUSH2 0x45CE JUMP JUMPDEST PUSH1 0x2 DUP1 SLOAD PUSH1 0x1 PUSH1 0x1 PUSH1 0xA0 SHL SUB NOT AND PUSH1 0x1 PUSH1 0x1 PUSH1 0xA0 SHL SUB SWAP3 SWAP1 SWAP3 AND SWAP2 SWAP1 SWAP2 OR SWAP1 SSTORE JUMP JUMPDEST PUSH2 0x3E48 PUSH2 0x45CE JUMP JUMPDEST PUSH1 0x1 PUSH1 0x1 PUSH1 0xA0 SHL SUB DUP2 AND PUSH2 0x3EAD JUMPI PUSH1 0x40 MLOAD PUSH3 0x461BCD PUSH1 0xE5 SHL DUP2 MSTORE PUSH1 0x20 PUSH1 0x4 DUP3 ADD MSTORE PUSH1 0x26 PUSH1 0x24 DUP3 ADD MSTORE PUSH32 0x4F776E61626C653A206E6577206F776E657220697320746865207A65726F2061 PUSH1 0x44 DUP3 ADD MSTORE PUSH6 0x646472657373 PUSH1 0xD0 SHL PUSH1 0x64 DUP3 ADD MSTORE PUSH1 0x84 ADD PUSH2 0x3A1 JUMP JUMPDEST PUSH2 0xB2E DUP2 PUSH2 0x4628 JUMP JUMPDEST PUSH1 0x2 SLOAD PUSH1 0x1 PUSH1 0x1 PUSH1 0xA0 SHL SUB AND CALLER EQ PUSH2 0x3EE1 JUMPI PUSH1 0x40 MLOAD PUSH4 0x48E2D49 PUSH1 0xE4 SHL DUP2 MSTORE PUSH1 0x4 ADD PUSH2 0x3A1 SWAP1 PUSH2 0x5A4C JUMP JUMPDEST PUSH1 0x1 SLOAD PUSH1 0x3 DUP1 SLOAD PUSH1 0x1 PUSH1 0x1 PUSH1 0xA0 SHL SUB NOT AND PUSH1 0x1 PUSH1 0x1 PUSH1 0xA0 SHL SUB SWAP1 SWAP3 AND SWAP2 DUP3 OR SWAP1 SSTORE PUSH1 0x40 MLOAD PUSH4 0xB7EC117 PUSH1 0xE3 SHL DUP2 MSTORE PUSH1 0x4 DUP2 ADD DUP9 SWAP1 MSTORE PUSH1 0x0 SWAP2 SWAP1 PUSH4 0x5BF608B8 SWAP1 PUSH1 0x24 ADD PUSH1 0x20 PUSH1 0x40 MLOAD DUP1 DUP4 SUB DUP2 DUP7 DUP1 EXTCODESIZE ISZERO DUP1 ISZERO PUSH2 0x3F3B JUMPI PUSH1 0x0 DUP1 REVERT JUMPDEST POP GAS STATICCALL ISZERO DUP1 ISZERO PUSH2 0x3F4F JUMPI RETURNDATASIZE PUSH1 0x0 DUP1 RETURNDATACOPY RETURNDATASIZE PUSH1 0x0 REVERT JUMPDEST POP POP POP POP PUSH1 0x40 MLOAD RETURNDATASIZE PUSH1 0x1F NOT PUSH1 0x1F DUP3 ADD AND DUP3 ADD DUP1 PUSH1 0x40 MSTORE POP DUP2 ADD SWAP1 PUSH2 0x3F73 SWAP2 SWAP1 PUSH2 0x505C JUMP JUMPDEST SWAP1 POP DUP5 ISZERO PUSH2 0x41BE JUMPI PUSH1 0x3 DUP1 SLOAD PUSH1 0x40 MLOAD PUSH4 0x1B10C641 PUSH1 0xE2 SHL DUP2 MSTORE PUSH1 0x1 PUSH1 0x1 PUSH1 0xA0 SHL SUB SWAP1 SWAP2 AND SWAP2 PUSH4 0x6C431904 SWAP2 PUSH2 0x3FB0 SWAP2 DUP12 SWAP2 DUP10 SWAP2 DUP13 SWAP2 PUSH1 0x4 ADD PUSH2 0x5B0F JUMP JUMPDEST PUSH1 0x0 PUSH1 0x40 MLOAD DUP1 DUP4 SUB DUP2 PUSH1 0x0 DUP8 DUP1 EXTCODESIZE ISZERO DUP1 ISZERO PUSH2 0x3FCA JUMPI PUSH1 0x0 DUP1 REVERT JUMPDEST POP GAS CALL ISZERO DUP1 ISZERO PUSH2 0x3FDE JUMPI RETURNDATASIZE PUSH1 0x0 DUP1 RETURNDATACOPY RETURNDATASIZE PUSH1 0x0 REVERT JUMPDEST POP POP POP POP PUSH1 0x0 DUP1 MLOAD PUSH1 0x20 PUSH2 0x5FD0 DUP4 CODECOPY DUP2 MLOAD SWAP2 MSTORE DUP8 DUP6 DUP9 PUSH1 0x3 PUSH1 0x0 DUP7 PUSH1 0x40 MLOAD PUSH2 0x400B SWAP7 SWAP6 SWAP5 SWAP4 SWAP3 SWAP2 SWAP1 PUSH2 0x5B39 JUMP JUMPDEST PUSH1 0x40 MLOAD DUP1 SWAP2 SUB SWAP1 LOG1 PUSH1 0x3 SLOAD PUSH1 0x40 MLOAD PUSH4 0x7E8AFD3 PUSH1 0xE2 SHL DUP2 MSTORE PUSH1 0x1 PUSH1 0x1 PUSH1 0xA0 SHL SUB SWAP1 SWAP2 AND SWAP1 PUSH4 0x1FA2BF4C SWAP1 PUSH2 0x4048 SWAP1 DUP11 SWAP1 DUP11 SWAP1 PUSH1 0x8 SWAP1 PUSH1 0x4 ADD PUSH2 0x5CAC JUMP JUMPDEST PUSH1 0x0 PUSH1 0x40 MLOAD DUP1 DUP4 SUB DUP2 PUSH1 0x0 DUP8 DUP1 EXTCODESIZE ISZERO DUP1 ISZERO PUSH2 0x4062 JUMPI PUSH1 0x0 DUP1 REVERT JUMPDEST POP GAS CALL ISZERO DUP1 ISZERO PUSH2 0x4076 JUMPI RETURNDATASIZE PUSH1 0x0 DUP1 RETURNDATACOPY RETURNDATASIZE PUSH1 0x0 REVERT JUMPDEST POP POP POP POP PUSH1 0x0 DUP1 MLOAD PUSH1 0x20 PUSH2 0x5F70 DUP4 CODECOPY DUP2 MLOAD SWAP2 MSTORE DUP8 DUP8 PUSH1 0x8 DUP8 PUSH1 0x40 MLOAD PUSH2 0x409E SWAP5 SWAP4 SWAP3 SWAP2 SWAP1 PUSH2 0x5CC7 JUMP JUMPDEST PUSH1 0x40 MLOAD DUP1 SWAP2 SUB SWAP1 LOG1 PUSH1 0x3 SLOAD PUSH1 0x40 MLOAD PUSH4 0x7B3F4717 PUSH1 0xE0 SHL DUP2 MSTORE PUSH1 0x4 DUP2 ADD DUP10 SWAP1 MSTORE PUSH1 0x1 PUSH1 0x1 PUSH1 0xA0 SHL SUB DUP7 DUP2 AND PUSH1 0x24 DUP4 ADD MSTORE SWAP1 SWAP2 AND SWAP1 PUSH4 0x7B3F4717 SWAP1 PUSH1 0x44 ADD PUSH1 0x0 PUSH1 0x40 MLOAD DUP1 DUP4 SUB DUP2 PUSH1 0x0 DUP8 DUP1 EXTCODESIZE ISZERO DUP1 ISZERO PUSH2 0x40F4 JUMPI PUSH1 0x0 DUP1 REVERT JUMPDEST POP GAS CALL ISZERO DUP1 ISZERO PUSH2 0x4108 JUMPI RETURNDATASIZE PUSH1 0x0 DUP1 RETURNDATACOPY RETURNDATASIZE PUSH1 0x0 REVERT JUMPDEST POP POP PUSH1 0x3 SLOAD PUSH1 0x40 MLOAD PUSH4 0x869A7365 PUSH1 0xE0 SHL DUP2 MSTORE PUSH1 0x4 DUP2 ADD DUP12 SWAP1 MSTORE PUSH1 0x1 PUSH1 0x1 PUSH1 0xA0 SHL SUB DUP9 DUP2 AND PUSH1 0x24 DUP4 ADD MSTORE PUSH1 0x0 SWAP5 POP SWAP1 SWAP2 AND SWAP2 POP PUSH4 0x869A7365 SWAP1 PUSH1 0x44 ADD PUSH1 0x20 PUSH1 0x40 MLOAD DUP1 DUP4 SUB DUP2 DUP7 DUP1 EXTCODESIZE ISZERO DUP1 ISZERO PUSH2 0x415B JUMPI PUSH1 0x0 DUP1 REVERT JUMPDEST POP GAS STATICCALL ISZERO DUP1 ISZERO PUSH2 0x416F JUMPI RETURNDATASIZE PUSH1 0x0 DUP1 RETURNDATACOPY RETURNDATASIZE PUSH1 0x0 REVERT JUMPDEST POP POP POP POP PUSH1 0x40 MLOAD RETURNDATASIZE PUSH1 0x1F NOT PUSH1 0x1F DUP3 ADD AND DUP3 ADD DUP1 PUSH1 0x40 MSTORE POP DUP2 ADD SWAP1 PUSH2 0x4193 SWAP2 SWAP1 PUSH2 0x547D JUMP JUMPDEST GT PUSH2 0x41B9 JUMPI PUSH1 0x1 PUSH1 0x1 PUSH1 0xA0 SHL SUB DUP5 AND PUSH1 0x0 SWAP1 DUP2 MSTORE PUSH1 0x4 PUSH1 0x20 MSTORE PUSH1 0x40 SWAP1 KECCAK256 DUP1 SLOAD PUSH1 0xFF NOT AND SWAP1 SSTORE JUMPDEST PUSH2 0x43B3 JUMP JUMPDEST PUSH1 0x3 SLOAD PUSH1 0x40 MLOAD PUSH4 0x1B10C641 PUSH1 0xE2 SHL DUP2 MSTORE PUSH1 0x1 PUSH1 0x1 PUSH1 0xA0 SHL SUB SWAP1 SWAP2 AND SWAP1 PUSH4 0x6C431904 SWAP1 PUSH2 0x41F5 SWAP1 DUP11 SWAP1 DUP9 SWAP1 DUP12 SWAP1 PUSH1 0x2 SWAP1 PUSH1 0x4 ADD PUSH2 0x5B0F JUMP JUMPDEST PUSH1 0x0 PUSH1 0x40 MLOAD DUP1 DUP4 SUB DUP2 PUSH1 0x0 DUP8 DUP1 EXTCODESIZE ISZERO DUP1 ISZERO PUSH2 0x420F JUMPI PUSH1 0x0 DUP1 REVERT JUMPDEST POP GAS CALL ISZERO DUP1 ISZERO PUSH2 0x4223 JUMPI RETURNDATASIZE PUSH1 0x0 DUP1 RETURNDATACOPY RETURNDATASIZE PUSH1 0x0 REVERT JUMPDEST POP POP POP POP PUSH1 0x0 DUP1 MLOAD PUSH1 0x20 PUSH2 0x5FD0 DUP4 CODECOPY DUP2 MLOAD SWAP2 MSTORE DUP8 DUP6 DUP9 PUSH1 0x2 PUSH1 0x0 DUP7 PUSH1 0x40 MLOAD PUSH2 0x4250 SWAP7 SWAP6 SWAP5 SWAP4 SWAP3 SWAP2 SWAP1 PUSH2 0x5B39 JUMP JUMPDEST PUSH1 0x40 MLOAD DUP1 SWAP2 SUB SWAP1 LOG1 PUSH1 0x3 SLOAD PUSH1 0x40 MLOAD PUSH4 0x7E8AFD3 PUSH1 0xE2 SHL DUP2 MSTORE PUSH1 0x1 PUSH1 0x1 PUSH1 0xA0 SHL SUB SWAP1 SWAP2 AND SWAP1 PUSH4 0x1FA2BF4C SWAP1 PUSH2 0x428D SWAP1 DUP11 SWAP1 DUP11 SWAP1 PUSH1 0x7 SWAP1 PUSH1 0x4 ADD PUSH2 0x5CAC JUMP JUMPDEST PUSH1 0x0 PUSH1 0x40 MLOAD DUP1 DUP4 SUB DUP2 PUSH1 0x0 DUP8 DUP1 EXTCODESIZE ISZERO DUP1 ISZERO PUSH2 0x42A7 JUMPI PUSH1 0x0 DUP1 REVERT JUMPDEST POP GAS CALL ISZERO DUP1 ISZERO PUSH2 0x42BB JUMPI RETURNDATASIZE PUSH1 0x0 DUP1 RETURNDATACOPY RETURNDATASIZE PUSH1 0x0 REVERT JUMPDEST POP POP POP POP PUSH1 0x0 DUP1 MLOAD PUSH1 0x20 PUSH2 0x5F70 DUP4 CODECOPY DUP2 MLOAD SWAP2 MSTORE DUP8 DUP8 PUSH1 0x7 DUP8 PUSH1 0x40 MLOAD PUSH2 0x42E3 SWAP5 SWAP4 SWAP3 SWAP2 SWAP1 PUSH2 0x5CC7 JUMP JUMPDEST PUSH1 0x40 MLOAD DUP1 SWAP2 SUB SWAP1 LOG1 PUSH1 0x40 DUP1 MLOAD PUSH1 0x60 DUP2 ADD DUP3 MSTORE PUSH1 0x1 PUSH1 0x1 PUSH1 0xA0 SHL SUB DUP7 DUP2 AND DUP3 MSTORE PUSH1 0x20 DUP1 DUP4 ADD DUP8 DUP2 MSTORE DUP4 DUP6 ADD DUP8 SWAP1 MSTORE PUSH1 0x0 DUP13 DUP2 MSTORE PUSH1 0x5 DUP4 MSTORE DUP6 DUP2 KECCAK256 DUP13 DUP3 MSTORE DUP4 MSTORE SWAP5 SWAP1 SWAP5 KECCAK256 DUP4 MLOAD DUP2 SLOAD PUSH1 0x1 PUSH1 0x1 PUSH1 0xA0 SHL SUB NOT AND SWAP4 AND SWAP3 SWAP1 SWAP3 OR DUP3 SSTORE SWAP3 MLOAD DUP1 MLOAD SWAP3 SWAP4 SWAP2 SWAP3 PUSH2 0x4353 SWAP3 PUSH1 0x1 DUP6 ADD SWAP3 ADD SWAP1 PUSH2 0x4B9F JUMP JUMPDEST POP PUSH1 0x40 DUP3 ADD MLOAD DUP1 MLOAD PUSH2 0x436F SWAP2 PUSH1 0x2 DUP5 ADD SWAP2 PUSH1 0x20 SWAP1 SWAP2 ADD SWAP1 PUSH2 0x4B9F JUMP JUMPDEST POP SWAP1 POP POP PUSH32 0x172D6C6E249760B8E15752FF2F2D6393B1BCAE621075BC7EC0F30B0D1F8C04B1 DUP8 DUP8 DUP7 DUP7 DUP7 PUSH1 0x40 MLOAD PUSH2 0x43AA SWAP6 SWAP5 SWAP4 SWAP3 SWAP2 SWAP1 PUSH2 0x5C61 JUMP JUMPDEST PUSH1 0x40 MLOAD DUP1 SWAP2 SUB SWAP1 LOG1 JUMPDEST POP POP POP POP POP POP POP JUMP JUMPDEST PUSH1 0x1 SLOAD PUSH1 0x3 DUP1 SLOAD PUSH1 0x1 PUSH1 0x1 PUSH1 0xA0 SHL SUB NOT AND PUSH1 0x1 PUSH1 0x1 PUSH1 0xA0 SHL SUB SWAP1 SWAP3 AND SWAP2 DUP3 OR SWAP1 SSTORE PUSH1 0x40 MLOAD PUSH4 0x56B03E39 PUSH1 0xE1 SHL DUP2 MSTORE PUSH1 0x4 DUP2 ADD DUP6 SWAP1 MSTORE PUSH1 0x24 DUP2 ADD DUP5 SWAP1 MSTORE PUSH1 0x0 SWAP2 SWAP1 PUSH4 0xAD607C72 SWAP1 PUSH1 0x44 ADD PUSH1 0x20 PUSH1 0x40 MLOAD DUP1 DUP4 SUB DUP2 DUP7 DUP1 EXTCODESIZE ISZERO DUP1 ISZERO PUSH2 0x441D JUMPI PUSH1 0x0 DUP1 REVERT JUMPDEST POP GAS STATICCALL ISZERO DUP1 ISZERO PUSH2 0x4431 JUMPI RETURNDATASIZE PUSH1 0x0 DUP1 RETURNDATACOPY RETURNDATASIZE PUSH1 0x0 REVERT JUMPDEST POP POP POP POP PUSH1 0x40 MLOAD RETURNDATASIZE PUSH1 0x1F NOT PUSH1 0x1F DUP3 ADD AND DUP3 ADD DUP1 PUSH1 0x40 MSTORE POP DUP2 ADD SWAP1 PUSH2 0x4455 SWAP2 SWAP1 PUSH2 0x53F6 JUMP JUMPDEST SWAP1 POP PUSH1 0x0 DUP2 PUSH1 0xB DUP2 GT ISZERO PUSH2 0x446B JUMPI PUSH2 0x446B PUSH2 0x5EFD JUMP JUMPDEST EQ ISZERO PUSH2 0x4509 JUMPI PUSH1 0x3 SLOAD PUSH1 0x40 MLOAD PUSH4 0x7E8AFD3 PUSH1 0xE2 SHL DUP2 MSTORE PUSH1 0x1 PUSH1 0x1 PUSH1 0xA0 SHL SUB SWAP1 SWAP2 AND SWAP1 PUSH4 0x1FA2BF4C SWAP1 PUSH2 0x44A6 SWAP1 DUP8 SWAP1 DUP8 SWAP1 PUSH1 0x2 SWAP1 PUSH1 0x4 ADD PUSH2 0x5CAC JUMP JUMPDEST PUSH1 0x0 PUSH1 0x40 MLOAD DUP1 DUP4 SUB DUP2 PUSH1 0x0 DUP8 DUP1 EXTCODESIZE ISZERO DUP1 ISZERO PUSH2 0x44C0 JUMPI PUSH1 0x0 DUP1 REVERT JUMPDEST POP GAS CALL ISZERO DUP1 ISZERO PUSH2 0x44D4 JUMPI RETURNDATASIZE PUSH1 0x0 DUP1 RETURNDATACOPY RETURNDATASIZE PUSH1 0x0 REVERT JUMPDEST POP POP POP POP PUSH1 0x0 DUP1 MLOAD PUSH1 0x20 PUSH2 0x5F70 DUP4 CODECOPY DUP2 MLOAD SWAP2 MSTORE DUP5 DUP5 PUSH1 0x2 DUP6 PUSH1 0x40 MLOAD PUSH2 0x44FC SWAP5 SWAP4 SWAP3 SWAP2 SWAP1 PUSH2 0x5CC7 JUMP JUMPDEST PUSH1 0x40 MLOAD DUP1 SWAP2 SUB SWAP1 LOG1 PUSH2 0x45C8 JUMP JUMPDEST PUSH1 0x1 DUP2 PUSH1 0xB DUP2 GT ISZERO PUSH2 0x451D JUMPI PUSH2 0x451D PUSH2 0x5EFD JUMP JUMPDEST EQ ISZERO PUSH2 0x45AD JUMPI PUSH1 0x3 DUP1 SLOAD PUSH1 0x40 MLOAD PUSH4 0x7E8AFD3 PUSH1 0xE2 SHL DUP2 MSTORE PUSH1 0x1 PUSH1 0x1 PUSH1 0xA0 SHL SUB SWAP1 SWAP2 AND SWAP2 PUSH4 0x1FA2BF4C SWAP2 PUSH2 0x4557 SWAP2 DUP9 SWAP2 DUP9 SWAP2 SWAP1 PUSH1 0x4 ADD PUSH2 0x5CAC JUMP JUMPDEST PUSH1 0x0 PUSH1 0x40 MLOAD DUP1 DUP4 SUB DUP2 PUSH1 0x0 DUP8 DUP1 EXTCODESIZE ISZERO DUP1 ISZERO PUSH2 0x4571 JUMPI PUSH1 0x0 DUP1 REVERT JUMPDEST POP GAS CALL ISZERO DUP1 ISZERO PUSH2 0x4585 JUMPI RETURNDATASIZE PUSH1 0x0 DUP1 RETURNDATACOPY RETURNDATASIZE PUSH1 0x0 REVERT JUMPDEST POP POP POP POP PUSH1 0x0 DUP1 MLOAD PUSH1 0x20 PUSH2 0x5F70 DUP4 CODECOPY DUP2 MLOAD SWAP2 MSTORE DUP5 DUP5 PUSH1 0x3 DUP6 PUSH1 0x40 MLOAD PUSH2 0x44FC SWAP5 SWAP4 SWAP3 SWAP2 SWAP1 PUSH2 0x5CC7 JUMP JUMPDEST DUP1 PUSH1 0x40 MLOAD PUSH4 0x66F643A5 PUSH1 0xE1 SHL DUP2 MSTORE PUSH1 0x4 ADD PUSH2 0x3A1 SWAP2 SWAP1 PUSH2 0x5A17 JUMP JUMPDEST POP POP POP POP JUMP JUMPDEST PUSH1 0x0 SLOAD PUSH1 0x1 PUSH1 0x1 PUSH1 0xA0 SHL SUB AND CALLER EQ PUSH2 0x1EE3 JUMPI PUSH1 0x40 MLOAD PUSH3 0x461BCD PUSH1 0xE5 SHL DUP2 MSTORE PUSH1 0x20 PUSH1 0x4 DUP3 ADD DUP2 SWAP1 MSTORE PUSH1 0x24 DUP3 ADD MSTORE PUSH32 0x4F776E61626C653A2063616C6C6572206973206E6F7420746865206F776E6572 PUSH1 0x44 DUP3 ADD MSTORE PUSH1 0x64 ADD PUSH2 0x3A1 JUMP JUMPDEST PUSH1 0x0 DUP1 SLOAD PUSH1 0x1 PUSH1 0x1 PUSH1 0xA0 SHL SUB DUP4 DUP2 AND PUSH1 0x1 PUSH1 0x1 PUSH1 0xA0 SHL SUB NOT DUP4 AND DUP2 OR DUP5 SSTORE PUSH1 0x40 MLOAD SWAP2 SWAP1 SWAP3 AND SWAP3 DUP4 SWAP2 PUSH32 0x8BE0079C531659141344CD1FD0A4F28419497F9722A3DAAFE3B4186F6B6457E0 SWAP2 SWAP1 LOG3 POP POP JUMP JUMPDEST PUSH1 0x1 SLOAD PUSH1 0x3 DUP1 SLOAD PUSH1 0x1 PUSH1 0x1 PUSH1 0xA0 SHL SUB NOT AND PUSH1 0x1 PUSH1 0x1 PUSH1 0xA0 SHL SUB SWAP1 SWAP3 AND SWAP2 DUP3 OR SWAP1 SSTORE PUSH1 0x40 MLOAD PUSH4 0x56B03E39 PUSH1 0xE1 SHL DUP2 MSTORE PUSH1 0x4 DUP2 ADD DUP6 SWAP1 MSTORE PUSH1 0x24 DUP2 ADD DUP5 SWAP1 MSTORE PUSH1 0x0 SWAP2 SWAP1 PUSH4 0xAD607C72 SWAP1 PUSH1 0x44 ADD PUSH1 0x20 PUSH1 0x40 MLOAD DUP1 DUP4 SUB DUP2 DUP7 DUP1 EXTCODESIZE ISZERO DUP1 ISZERO PUSH2 0x46D9 JUMPI PUSH1 0x0 DUP1 REVERT JUMPDEST POP GAS STATICCALL ISZERO DUP1 ISZERO PUSH2 0x46ED JUMPI RETURNDATASIZE PUSH1 0x0 DUP1 RETURNDATACOPY RETURNDATASIZE PUSH1 0x0 REVERT JUMPDEST POP POP POP POP PUSH1 0x40 MLOAD RETURNDATASIZE PUSH1 0x1F NOT PUSH1 0x1F DUP3 ADD AND DUP3 ADD DUP1 PUSH1 0x40 MSTORE POP DUP2 ADD SWAP1 PUSH2 0x4711 SWAP2 SWAP1 PUSH2 0x53F6 JUMP JUMPDEST SWAP1 POP PUSH1 0x0 DUP2 PUSH1 0xB DUP2 GT ISZERO PUSH2 0x4727 JUMPI PUSH2 0x4727 PUSH2 0x5EFD JUMP JUMPDEST EQ ISZERO PUSH2 0x47B8 JUMPI PUSH1 0x3 SLOAD PUSH1 0x40 MLOAD PUSH4 0x7E8AFD3 PUSH1 0xE2 SHL DUP2 MSTORE PUSH1 0x1 PUSH1 0x1 PUSH1 0xA0 SHL SUB SWAP1 SWAP2 AND SWAP1 PUSH4 0x1FA2BF4C SWAP1 PUSH2 0x4762 SWAP1 DUP8 SWAP1 DUP8 SWAP1 PUSH1 0x1 SWAP1 PUSH1 0x4 ADD PUSH2 0x5CAC JUMP JUMPDEST PUSH1 0x0 PUSH1 0x40 MLOAD DUP1 DUP4 SUB DUP2 PUSH1 0x0 DUP8 DUP1 EXTCODESIZE ISZERO DUP1 ISZERO PUSH2 0x477C JUMPI PUSH1 0x0 DUP1 REVERT JUMPDEST POP GAS CALL ISZERO DUP1 ISZERO PUSH2 0x4790 JUMPI RETURNDATASIZE PUSH1 0x0 DUP1 RETURNDATACOPY RETURNDATASIZE PUSH1 0x0 REVERT JUMPDEST POP POP POP POP PUSH1 0x0 DUP1 MLOAD PUSH1 0x20 PUSH2 0x5F70 DUP4 CODECOPY DUP2 MLOAD SWAP2 MSTORE DUP5 DUP5 PUSH1 0x1 DUP6 PUSH1 0x40 MLOAD PUSH2 0x44FC SWAP5 SWAP4 SWAP3 SWAP2 SWAP1 PUSH2 0x5CC7 JUMP JUMPDEST PUSH1 0x2 DUP2 PUSH1 0xB DUP2 GT ISZERO PUSH2 0x47CC JUMPI PUSH2 0x47CC PUSH2 0x5EFD JUMP JUMPDEST EQ ISZERO PUSH2 0x45AD JUMPI PUSH1 0x3 DUP1 SLOAD PUSH1 0x40 MLOAD PUSH4 0x7E8AFD3 PUSH1 0xE2 SHL DUP2 MSTORE PUSH1 0x1 PUSH1 0x1 PUSH1 0xA0 SHL SUB SWAP1 SWAP2 AND SWAP2 PUSH4 0x1FA2BF4C SWAP2 PUSH2 0x4762 SWAP2 DUP9 SWAP2 DUP9 SWAP2 SWAP1 PUSH1 0x4 ADD PUSH2 0x5CAC JUMP JUMPDEST PUSH1 0x1 SLOAD PUSH1 0x3 DUP1 SLOAD PUSH1 0x1 PUSH1 0x1 PUSH1 0xA0 SHL SUB NOT AND PUSH1 0x1 PUSH1 0x1 PUSH1 0xA0 SHL SUB SWAP1 SWAP3 AND SWAP2 DUP3 OR SWAP1 SSTORE PUSH1 0x40 MLOAD PUSH4 0x17E925D7 PUSH1 0xE0 SHL DUP2 MSTORE PUSH4 0x17E925D7 SWAP1 PUSH2 0x484B SWAP1 DUP5 SWAP1 PUSH1 0x5 SWAP1 PUSH1 0x4 ADD PUSH2 0x5C07 JUMP JUMPDEST PUSH1 0x0 PUSH1 0x40 MLOAD DUP1 DUP4 SUB DUP2 PUSH1 0x0 DUP8 DUP1 EXTCODESIZE ISZERO DUP1 ISZERO PUSH2 0x4865 JUMPI PUSH1 0x0 DUP1 REVERT JUMPDEST POP GAS CALL ISZERO DUP1 ISZERO PUSH2 0x4879 JUMPI RETURNDATASIZE PUSH1 0x0 DUP1 RETURNDATACOPY RETURNDATASIZE PUSH1 0x0 REVERT JUMPDEST POP POP POP POP PUSH1 0x0 DUP1 MLOAD PUSH1 0x20 PUSH2 0x5F90 DUP4 CODECOPY DUP2 MLOAD SWAP2 MSTORE DUP2 PUSH1 0x5 CALLER PUSH1 0x40 MLOAD PUSH2 0x489F SWAP4 SWAP3 SWAP2 SWAP1 PUSH2 0x5C1B JUMP JUMPDEST PUSH1 0x40 MLOAD DUP1 SWAP2 SUB SWAP1 LOG1 PUSH1 0x3 SLOAD PUSH1 0x40 MLOAD PUSH4 0x6030DDC1 PUSH1 0xE1 SHL DUP2 MSTORE PUSH1 0x4 DUP2 ADD DUP4 SWAP1 MSTORE PUSH1 0x0 PUSH1 0x24 DUP3 ADD MSTORE PUSH1 0x1 PUSH1 0x1 PUSH1 0xA0 SHL SUB SWAP1 SWAP2 AND SWAP1 PUSH4 0xC061BB82 SWAP1 PUSH1 0x44 ADD PUSH1 0x0 PUSH1 0x40 MLOAD DUP1 DUP4 SUB DUP2 PUSH1 0x0 DUP8 DUP1 EXTCODESIZE ISZERO DUP1 ISZERO PUSH2 0x48F4 JUMPI PUSH1 0x0 DUP1 REVERT JUMPDEST POP GAS CALL ISZERO DUP1 ISZERO PUSH2 0x4908 JUMPI RETURNDATASIZE PUSH1 0x0 DUP1 RETURNDATACOPY RETURNDATASIZE PUSH1 0x0 REVERT JUMPDEST POP POP POP POP PUSH1 0x0 DUP1 MLOAD PUSH1 0x20 PUSH2 0x5FB0 DUP4 CODECOPY DUP2 MLOAD SWAP2 MSTORE DUP2 PUSH1 0x0 CALLER PUSH1 0x40 MLOAD PUSH2 0x492E SWAP4 SWAP3 SWAP2 SWAP1 PUSH2 0x5BE8 JUMP JUMPDEST PUSH1 0x40 MLOAD DUP1 SWAP2 SUB SWAP1 LOG1 PUSH1 0x3 SLOAD PUSH1 0x40 MLOAD PUSH4 0xB7EC117 PUSH1 0xE3 SHL DUP2 MSTORE PUSH1 0x4 DUP1 DUP3 ADD DUP5 SWAP1 MSTORE SWAP2 PUSH1 0x0 SWAP2 PUSH1 0x1 PUSH1 0x1 PUSH1 0xA0 SHL SUB SWAP1 SWAP2 AND SWAP1 PUSH4 0x5BF608B8 SWAP1 PUSH1 0x24 ADD PUSH1 0x20 PUSH1 0x40 MLOAD DUP1 DUP4 SUB DUP2 DUP7 DUP1 EXTCODESIZE ISZERO DUP1 ISZERO PUSH2 0x497F JUMPI PUSH1 0x0 DUP1 REVERT JUMPDEST POP GAS STATICCALL ISZERO DUP1 ISZERO PUSH2 0x4993 JUMPI RETURNDATASIZE PUSH1 0x0 DUP1 RETURNDATACOPY RETURNDATASIZE PUSH1 0x0 REVERT JUMPDEST POP POP POP POP PUSH1 0x40 MLOAD RETURNDATASIZE PUSH1 0x1F NOT PUSH1 0x1F DUP3 ADD AND DUP3 ADD DUP1 PUSH1 0x40 MSTORE POP DUP2 ADD SWAP1 PUSH2 0x49B7 SWAP2 SWAP1 PUSH2 0x505C JUMP JUMPDEST PUSH1 0x1 PUSH1 0x1 PUSH1 0xA0 SHL SUB SWAP1 DUP2 AND DUP3 MSTORE PUSH1 0x20 DUP3 ADD SWAP3 SWAP1 SWAP3 MSTORE PUSH1 0x40 SWAP1 DUP2 ADD PUSH1 0x0 SWAP1 DUP2 KECCAK256 DUP1 SLOAD PUSH1 0xFF NOT AND SWAP1 SSTORE PUSH1 0x3 SLOAD SWAP2 MLOAD PUSH4 0x13074255 PUSH1 0xE3 SHL DUP2 MSTORE PUSH1 0x4 DUP2 ADD DUP6 SWAP1 MSTORE SWAP1 SWAP3 SWAP2 SWAP1 SWAP2 AND SWAP1 PUSH4 0x983A12A8 SWAP1 PUSH1 0x24 ADD PUSH1 0x0 PUSH1 0x40 MLOAD DUP1 DUP4 SUB DUP2 DUP7 DUP1 EXTCODESIZE ISZERO DUP1 ISZERO PUSH2 0x4A1C JUMPI PUSH1 0x0 DUP1 REVERT JUMPDEST POP GAS STATICCALL ISZERO DUP1 ISZERO PUSH2 0x4A30 JUMPI RETURNDATASIZE PUSH1 0x0 DUP1 RETURNDATACOPY RETURNDATASIZE PUSH1 0x0 REVERT JUMPDEST POP POP POP POP PUSH1 0x40 MLOAD RETURNDATASIZE PUSH1 0x0 DUP3 RETURNDATACOPY PUSH1 0x1F RETURNDATASIZE SWAP1 DUP2 ADD PUSH1 0x1F NOT AND DUP3 ADD PUSH1 0x40 MSTORE PUSH2 0x4A58 SWAP2 SWAP1 DUP2 ADD SWAP1 PUSH2 0x50A5 JUMP JUMPDEST PUSH1 0x3 SLOAD PUSH1 0x40 MLOAD PUSH4 0xB647EEC3 PUSH1 0xE0 SHL DUP2 MSTORE PUSH1 0x4 DUP2 ADD DUP6 SWAP1 MSTORE SWAP2 SWAP3 POP PUSH1 0x0 SWAP2 PUSH1 0x1 PUSH1 0x1 PUSH1 0xA0 SHL SUB SWAP1 SWAP2 AND SWAP1 PUSH4 0xB647EEC3 SWAP1 PUSH1 0x24 ADD PUSH1 0x0 PUSH1 0x40 MLOAD DUP1 DUP4 SUB DUP2 DUP7 DUP1 EXTCODESIZE ISZERO DUP1 ISZERO PUSH2 0x4AA2 JUMPI PUSH1 0x0 DUP1 REVERT JUMPDEST POP GAS STATICCALL ISZERO DUP1 ISZERO PUSH2 0x4AB6 JUMPI RETURNDATASIZE PUSH1 0x0 DUP1 RETURNDATACOPY RETURNDATASIZE PUSH1 0x0 REVERT JUMPDEST POP POP POP POP PUSH1 0x40 MLOAD RETURNDATASIZE PUSH1 0x0 DUP3 RETURNDATACOPY PUSH1 0x1F RETURNDATASIZE SWAP1 DUP2 ADD PUSH1 0x1F NOT AND DUP3 ADD PUSH1 0x40 MSTORE PUSH2 0x4ADE SWAP2 SWAP1 DUP2 ADD SWAP1 PUSH2 0x50A5 JUMP JUMPDEST SWAP1 POP PUSH1 0x0 JUMPDEST DUP3 MLOAD DUP2 LT ISZERO PUSH2 0x4B3F JUMPI PUSH1 0x4 PUSH1 0x0 DUP5 DUP4 DUP2 MLOAD DUP2 LT PUSH2 0x4B02 JUMPI PUSH2 0x4B02 PUSH2 0x5F13 JUMP JUMPDEST PUSH1 0x20 SWAP1 DUP2 MUL SWAP2 SWAP1 SWAP2 ADD DUP2 ADD MLOAD PUSH1 0x1 PUSH1 0x1 PUSH1 0xA0 SHL SUB AND DUP3 MSTORE DUP2 ADD SWAP2 SWAP1 SWAP2 MSTORE PUSH1 0x40 ADD PUSH1 0x0 KECCAK256 DUP1 SLOAD PUSH1 0xFF NOT AND SWAP1 SSTORE DUP1 PUSH2 0x4B37 DUP2 PUSH2 0x5ECC JUMP JUMPDEST SWAP2 POP POP PUSH2 0x4AE3 JUMP JUMPDEST POP PUSH1 0x0 JUMPDEST DUP3 MLOAD DUP2 LT ISZERO PUSH2 0x45C8 JUMPI PUSH1 0x4 PUSH1 0x0 DUP4 DUP4 DUP2 MLOAD DUP2 LT PUSH2 0x4B62 JUMPI PUSH2 0x4B62 PUSH2 0x5F13 JUMP JUMPDEST PUSH1 0x20 SWAP1 DUP2 MUL SWAP2 SWAP1 SWAP2 ADD DUP2 ADD MLOAD PUSH1 0x1 PUSH1 0x1 PUSH1 0xA0 SHL SUB AND DUP3 MSTORE DUP2 ADD SWAP2 SWAP1 SWAP2 MSTORE PUSH1 0x40 ADD PUSH1 0x0 KECCAK256 DUP1 SLOAD PUSH1 0xFF NOT AND SWAP1 SSTORE DUP1 PUSH2 0x4B97 DUP2 PUSH2 0x5ECC JUMP JUMPDEST SWAP2 POP POP PUSH2 0x4B43 JUMP JUMPDEST DUP3 DUP1 SLOAD PUSH2 0x4BAB SWAP1 PUSH2 0x5E91 JUMP JUMPDEST SWAP1 PUSH1 0x0 MSTORE PUSH1 0x20 PUSH1 0x0 KECCAK256 SWAP1 PUSH1 0x1F ADD PUSH1 0x20 SWAP1 DIV DUP2 ADD SWAP3 DUP3 PUSH2 0x4BCD JUMPI PUSH1 0x0 DUP6 SSTORE PUSH2 0x4C13 JUMP JUMPDEST DUP3 PUSH1 0x1F LT PUSH2 0x4BE6 JUMPI DUP1 MLOAD PUSH1 0xFF NOT AND DUP4 DUP1 ADD OR DUP6 SSTORE PUSH2 0x4C13 JUMP JUMPDEST DUP3 DUP1 ADD PUSH1 0x1 ADD DUP6 SSTORE DUP3 ISZERO PUSH2 0x4C13 JUMPI SWAP2 DUP3 ADD JUMPDEST DUP3 DUP2 GT ISZERO PUSH2 0x4C13 JUMPI DUP3 MLOAD DUP3 SSTORE SWAP2 PUSH1 0x20 ADD SWAP2 SWAP1 PUSH1 0x1 ADD SWAP1 PUSH2 0x4BF8 JUMP JUMPDEST POP PUSH2 0x4C1F SWAP3 SWAP2 POP PUSH2 0x4C23 JUMP JUMPDEST POP SWAP1 JUMP JUMPDEST JUMPDEST DUP1 DUP3 GT ISZERO PUSH2 0x4C1F JUMPI PUSH1 0x0 DUP2 SSTORE PUSH1 0x1 ADD PUSH2 0x4C24 JUMP JUMPDEST PUSH1 0x0 DUP3 PUSH1 0x1F DUP4 ADD SLT PUSH2 0x4C49 JUMPI PUSH1 0x0 DUP1 REVERT JUMPDEST PUSH1 0x20 PUSH2 0x4C5D PUSH2 0x4C58 DUP5 CALLDATALOAD PUSH2 0x5DE1 JUMP JUMPDEST PUSH2 0x5DB1 JUMP JUMPDEST DUP1 DUP5 CALLDATALOAD DUP3 MSTORE DUP3 DUP3 ADD SWAP2 POP DUP3 DUP6 ADD DUP7 DUP5 DUP8 CALLDATALOAD PUSH1 0x5 SHL DUP9 ADD ADD GT ISZERO PUSH2 0x4C7F JUMPI PUSH1 0x0 DUP1 REVERT JUMPDEST PUSH1 0x0 JUMPDEST DUP7 CALLDATALOAD DUP2 LT ISZERO PUSH2 0x4DCE JUMPI PUSH1 0x1 PUSH1 0x1 PUSH1 0x40 SHL SUB DUP1 DUP4 CALLDATALOAD GT ISZERO PUSH2 0x4CA1 JUMPI PUSH1 0x0 DUP1 REVERT JUMPDEST DUP3 CALLDATALOAD DUP9 ADD PUSH1 0x1F NOT PUSH1 0xA0 DUP3 DUP13 SUB DUP3 ADD SLT ISZERO PUSH2 0x4CBA JUMPI PUSH1 0x0 DUP1 REVERT JUMPDEST PUSH2 0x4CC2 PUSH2 0x5D44 JUMP JUMPDEST DUP9 DUP4 ADD CALLDATALOAD DUP5 DUP2 GT ISZERO PUSH2 0x4CD3 JUMPI PUSH1 0x0 DUP1 REVERT JUMPDEST DUP4 ADD PUSH1 0xE0 DUP2 DUP15 SUB DUP5 ADD SLT ISZERO PUSH2 0x4CE7 JUMPI PUSH1 0x0 DUP1 REVERT JUMPDEST PUSH2 0x4CEF PUSH2 0x5D6C JUMP JUMPDEST SWAP3 POP DUP10 DUP2 ADD CALLDATALOAD DUP6 DUP2 GT ISZERO PUSH2 0x4D02 JUMPI PUSH1 0x0 DUP1 REVERT JUMPDEST PUSH2 0x4D10 DUP15 DUP13 DUP4 DUP6 ADD ADD PUSH2 0x4E6D JUMP JUMPDEST DUP5 MSTORE POP PUSH1 0x40 DUP2 ADD CALLDATALOAD DUP11 DUP5 ADD MSTORE PUSH1 0x60 DUP2 ADD CALLDATALOAD PUSH1 0x40 DUP5 ADD MSTORE PUSH1 0x80 DUP2 ADD CALLDATALOAD PUSH1 0x60 DUP5 ADD MSTORE PUSH1 0xA0 DUP2 ADD CALLDATALOAD PUSH1 0x80 DUP5 ADD MSTORE PUSH1 0xC0 DUP2 ADD CALLDATALOAD PUSH1 0xA0 DUP5 ADD MSTORE PUSH1 0xE0 DUP2 ADD CALLDATALOAD DUP6 DUP2 GT ISZERO PUSH2 0x4D56 JUMPI PUSH1 0x0 DUP1 REVERT JUMPDEST PUSH2 0x4D64 DUP15 DUP13 DUP4 DUP6 ADD ADD PUSH2 0x4E6D JUMP JUMPDEST PUSH1 0xC0 DUP6 ADD MSTORE POP POP SWAP1 DUP2 MSTORE PUSH1 0x40 DUP3 ADD CALLDATALOAD DUP9 DUP3 ADD MSTORE PUSH1 0x60 DUP3 ADD CALLDATALOAD SWAP1 DUP4 DUP3 GT ISZERO PUSH2 0x4D8A JUMPI PUSH1 0x0 DUP1 REVERT JUMPDEST PUSH2 0x4D98 DUP13 DUP11 DUP5 DUP7 ADD ADD PUSH2 0x4E6D JUMP JUMPDEST PUSH1 0x40 DUP3 ADD MSTORE PUSH2 0x4DA9 PUSH1 0x80 DUP5 ADD PUSH2 0x4E57 JUMP JUMPDEST PUSH1 0x60 DUP3 ADD MSTORE PUSH1 0xA0 SWAP3 SWAP1 SWAP3 ADD CALLDATALOAD PUSH1 0x80 DUP4 ADD MSTORE POP DUP6 MSTORE POP SWAP3 DUP5 ADD SWAP3 SWAP1 DUP5 ADD SWAP1 PUSH1 0x1 ADD PUSH2 0x4C82 JUMP JUMPDEST POP SWAP1 SWAP7 SWAP6 POP POP POP POP POP POP JUMP JUMPDEST PUSH1 0x0 DUP3 PUSH1 0x1F DUP4 ADD SLT PUSH2 0x4DEB JUMPI PUSH1 0x0 DUP1 REVERT JUMPDEST DUP2 CALLDATALOAD PUSH1 0x20 PUSH2 0x4DFB PUSH2 0x4C58 DUP4 PUSH2 0x5DE1 JUMP JUMPDEST DUP1 DUP4 DUP3 MSTORE DUP3 DUP3 ADD SWAP2 POP DUP3 DUP7 ADD DUP8 DUP5 DUP7 PUSH1 0x5 SHL DUP10 ADD ADD GT ISZERO PUSH2 0x4E1B JUMPI PUSH1 0x0 DUP1 REVERT JUMPDEST PUSH1 0x0 JUMPDEST DUP6 DUP2 LT ISZERO PUSH2 0x4E3A JUMPI DUP2 CALLDATALOAD DUP5 MSTORE SWAP3 DUP5 ADD SWAP3 SWAP1 DUP5 ADD SWAP1 PUSH1 0x1 ADD PUSH2 0x4E1E JUMP JUMPDEST POP SWAP1 SWAP8 SWAP7 POP POP POP POP POP POP POP JUMP JUMPDEST DUP1 CALLDATALOAD PUSH2 0x4E52 DUP2 PUSH2 0x5F54 JUMP JUMPDEST SWAP2 SWAP1 POP JUMP JUMPDEST DUP1 CALLDATALOAD PUSH2 0x4E52 DUP2 PUSH2 0x5F62 JUMP JUMPDEST DUP1 MLOAD PUSH2 0x4E52 DUP2 PUSH2 0x5F62 JUMP JUMPDEST PUSH1 0x0 DUP3 PUSH1 0x1F DUP4 ADD SLT PUSH2 0x4E7E JUMPI PUSH1 0x0 DUP1 REVERT JUMPDEST DUP2 CALLDATALOAD PUSH2 0x4E8C PUSH2 0x4C58 DUP3 PUSH2 0x5E04 JUMP JUMPDEST DUP2 DUP2 MSTORE DUP5 PUSH1 0x20 DUP4 DUP7 ADD ADD GT ISZERO PUSH2 0x4EA1 JUMPI PUSH1 0x0 DUP1 REVERT JUMPDEST DUP2 PUSH1 0x20 DUP6 ADD PUSH1 0x20 DUP4 ADD CALLDATACOPY PUSH1 0x0 SWAP2 DUP2 ADD PUSH1 0x20 ADD SWAP2 SWAP1 SWAP2 MSTORE SWAP4 SWAP3 POP POP POP JUMP JUMPDEST PUSH1 0x0 DUP3 PUSH1 0x1F DUP4 ADD SLT PUSH2 0x4ECF JUMPI PUSH1 0x0 DUP1 REVERT JUMPDEST DUP2 MLOAD PUSH2 0x4EDD PUSH2 0x4C58 DUP3 PUSH2 0x5E04 JUMP JUMPDEST DUP2 DUP2 MSTORE DUP5 PUSH1 0x20 DUP4 DUP7 ADD ADD GT ISZERO PUSH2 0x4EF2 JUMPI PUSH1 0x0 DUP1 REVERT JUMPDEST PUSH2 0x4F03 DUP3 PUSH1 0x20 DUP4 ADD PUSH1 0x20 DUP8 ADD PUSH2 0x5E65 JUMP JUMPDEST SWAP5 SWAP4 POP POP POP POP JUMP JUMPDEST PUSH1 0x0 PUSH2 0x1A0 DUP3 DUP5 SUB SLT ISZERO PUSH2 0x4F1E JUMPI PUSH1 0x0 DUP1 REVERT JUMPDEST PUSH2 0x4F26 PUSH2 0x5D8E JUMP JUMPDEST SWAP1 POP DUP2 CALLDATALOAD DUP2 MSTORE PUSH1 0x20 DUP3 ADD CALLDATALOAD PUSH1 0x1 PUSH1 0x1 PUSH1 0x40 SHL SUB DUP1 DUP3 GT ISZERO PUSH2 0x4F46 JUMPI PUSH1 0x0 DUP1 REVERT JUMPDEST PUSH2 0x4F52 DUP6 DUP4 DUP7 ADD PUSH2 0x4E6D JUMP JUMPDEST PUSH1 0x20 DUP5 ADD MSTORE PUSH1 0x40 DUP5 ADD CALLDATALOAD SWAP2 POP DUP1 DUP3 GT ISZERO PUSH2 0x4F6B JUMPI PUSH1 0x0 DUP1 REVERT JUMPDEST PUSH2 0x4F77 DUP6 DUP4 DUP7 ADD PUSH2 0x4E6D JUMP JUMPDEST PUSH1 0x40 DUP5 ADD MSTORE PUSH1 0x60 DUP5 ADD CALLDATALOAD PUSH1 0x60 DUP5 ADD MSTORE PUSH1 0x80 DUP5 ADD CALLDATALOAD PUSH1 0x80 DUP5 ADD MSTORE PUSH1 0xA0 DUP5 ADD CALLDATALOAD PUSH1 0xA0 DUP5 ADD MSTORE PUSH1 0xC0 DUP5 ADD CALLDATALOAD SWAP2 POP DUP1 DUP3 GT ISZERO PUSH2 0x4FAE JUMPI PUSH1 0x0 DUP1 REVERT JUMPDEST PUSH2 0x4FBA DUP6 DUP4 DUP7 ADD PUSH2 0x4DDA JUMP JUMPDEST PUSH1 0xC0 DUP5 ADD MSTORE PUSH1 0xE0 DUP5 DUP2 ADD CALLDATALOAD SWAP1 DUP5 ADD MSTORE PUSH2 0x100 DUP1 DUP6 ADD CALLDATALOAD SWAP1 DUP5 ADD MSTORE PUSH2 0x120 SWAP2 POP PUSH2 0x4FE4 DUP3 DUP6 ADD PUSH2 0x4E47 JUMP JUMPDEST DUP3 DUP5 ADD MSTORE PUSH2 0x140 SWAP2 POP PUSH2 0x4FF8 DUP3 DUP6 ADD PUSH2 0x4E47 JUMP JUMPDEST DUP3 DUP5 ADD MSTORE PUSH2 0x160 SWAP2 POP DUP2 DUP5 ADD CALLDATALOAD DUP3 DUP5 ADD MSTORE PUSH2 0x180 SWAP2 POP DUP2 DUP5 ADD CALLDATALOAD DUP2 DUP2 GT ISZERO PUSH2 0x501F JUMPI PUSH1 0x0 DUP1 REVERT JUMPDEST PUSH2 0x502B DUP7 DUP3 DUP8 ADD PUSH2 0x4C38 JUMP JUMPDEST DUP4 DUP6 ADD MSTORE POP POP POP SWAP3 SWAP2 POP POP JUMP JUMPDEST PUSH1 0x0 PUSH1 0x20 DUP3 DUP5 SUB SLT ISZERO PUSH2 0x504A JUMPI PUSH1 0x0 DUP1 REVERT JUMPDEST DUP2 CALLDATALOAD PUSH2 0x5055 DUP2 PUSH2 0x5F3F JUMP JUMPDEST SWAP4 SWAP3 POP POP POP JUMP JUMPDEST PUSH1 0x0 PUSH1 0x20 DUP3 DUP5 SUB SLT ISZERO PUSH2 0x506E JUMPI PUSH1 0x0 DUP1 REVERT JUMPDEST DUP2 MLOAD PUSH2 0x5055 DUP2 PUSH2 0x5F3F JUMP JUMPDEST PUSH1 0x0 DUP1 PUSH1 0x40 DUP4 DUP6 SUB SLT ISZERO PUSH2 0x508C JUMPI PUSH1 0x0 DUP1 REVERT JUMPDEST DUP3 CALLDATALOAD PUSH2 0x5097 DUP2 PUSH2 0x5F3F JUMP JUMPDEST SWAP5 PUSH1 0x20 SWAP4 SWAP1 SWAP4 ADD CALLDATALOAD SWAP4 POP POP POP JUMP JUMPDEST PUSH1 0x0 PUSH1 0x20 DUP1 DUP4 DUP6 SUB SLT ISZERO PUSH2 0x50B8 JUMPI PUSH1 0x0 DUP1 REVERT JUMPDEST DUP3 MLOAD PUSH1 0x1 PUSH1 0x1 PUSH1 0x40 SHL SUB DUP2 GT ISZERO PUSH2 0x50CE JUMPI PUSH1 0x0 DUP1 REVERT JUMPDEST DUP4 ADD PUSH1 0x1F DUP2 ADD DUP6 SGT PUSH2 0x50DF JUMPI PUSH1 0x0 DUP1 REVERT JUMPDEST DUP1 MLOAD PUSH2 0x50ED PUSH2 0x4C58 DUP3 PUSH2 0x5DE1 JUMP JUMPDEST DUP1 DUP3 DUP3 MSTORE DUP5 DUP3 ADD SWAP2 POP DUP5 DUP5 ADD DUP9 DUP7 DUP6 PUSH1 0x5 SHL DUP8 ADD ADD GT ISZERO PUSH2 0x510D JUMPI PUSH1 0x0 DUP1 REVERT JUMPDEST PUSH1 0x0 SWAP5 POP JUMPDEST DUP4 DUP6 LT ISZERO PUSH2 0x5139 JUMPI DUP1 MLOAD PUSH2 0x5125 DUP2 PUSH2 0x5F3F JUMP JUMPDEST DUP4 MSTORE PUSH1 0x1 SWAP5 SWAP1 SWAP5 ADD SWAP4 SWAP2 DUP6 ADD SWAP2 DUP6 ADD PUSH2 0x5112 JUMP JUMPDEST POP SWAP8 SWAP7 POP POP POP POP POP POP POP JUMP JUMPDEST PUSH1 0x0 PUSH1 0x20 DUP3 DUP5 SUB SLT ISZERO PUSH2 0x5157 JUMPI PUSH1 0x0 DUP1 REVERT JUMPDEST DUP2 MLOAD PUSH1 0x1 PUSH1 0x1 PUSH1 0x40 SHL SUB DUP2 GT ISZERO PUSH2 0x516D JUMPI PUSH1 0x0 DUP1 REVERT JUMPDEST DUP4 PUSH1 0x1F DUP3 DUP6 ADD ADD SLT PUSH2 0x517E JUMPI PUSH1 0x0 DUP1 REVERT JUMPDEST DUP1 DUP4 ADD MLOAD PUSH2 0x518E PUSH2 0x4C58 DUP3 PUSH2 0x5DE1 JUMP JUMPDEST DUP1 DUP3 DUP3 MSTORE PUSH1 0x20 DUP3 ADD SWAP2 POP PUSH1 0x20 DUP5 DUP8 ADD ADD DUP8 PUSH1 0x20 DUP6 PUSH1 0x5 SHL DUP8 DUP11 ADD ADD ADD GT ISZERO PUSH2 0x51B5 JUMPI PUSH1 0x0 DUP1 REVERT JUMPDEST PUSH1 0x0 JUMPDEST DUP5 DUP2 LT ISZERO PUSH2 0x4E3A JUMPI DUP2 MLOAD PUSH1 0x1 PUSH1 0x1 PUSH1 0x40 SHL SUB DUP2 GT ISZERO PUSH2 0x51D6 JUMPI PUSH1 0x0 DUP1 REVERT JUMPDEST DUP9 DUP8 ADD ADD PUSH1 0x1F NOT PUSH1 0xA0 DUP3 DUP13 SUB DUP3 ADD SLT ISZERO PUSH2 0x51EF JUMPI PUSH1 0x0 DUP1 REVERT JUMPDEST PUSH2 0x51F7 PUSH2 0x5D44 JUMP JUMPDEST PUSH1 0x20 DUP4 ADD MLOAD PUSH1 0x1 PUSH1 0x1 PUSH1 0x40 SHL SUB DUP2 GT ISZERO PUSH2 0x5210 JUMPI PUSH1 0x0 DUP1 REVERT JUMPDEST PUSH1 0xE0 DUP4 DUP3 DUP7 ADD DUP16 SUB ADD SLT ISZERO PUSH2 0x5224 JUMPI PUSH1 0x0 DUP1 REVERT JUMPDEST PUSH2 0x522C PUSH2 0x5D6C JUMP JUMPDEST SWAP3 POP PUSH1 0x20 DUP2 DUP6 ADD ADD MLOAD PUSH1 0x1 PUSH1 0x1 PUSH1 0x40 SHL SUB DUP2 GT ISZERO PUSH2 0x5249 JUMPI PUSH1 0x0 DUP1 REVERT JUMPDEST PUSH2 0x525A DUP15 PUSH1 0x20 DUP4 DUP6 DUP10 ADD ADD ADD PUSH2 0x4EBE JUMP JUMPDEST DUP5 MSTORE POP PUSH1 0x40 DUP2 DUP6 ADD ADD MLOAD PUSH1 0x20 DUP5 ADD MSTORE PUSH1 0x60 DUP2 DUP6 ADD ADD MLOAD PUSH1 0x40 DUP5 ADD MSTORE PUSH1 0x80 DUP2 DUP6 ADD ADD MLOAD PUSH1 0x60 DUP5 ADD MSTORE PUSH1 0xA0 DUP2 DUP6 ADD ADD MLOAD PUSH1 0x80 DUP5 ADD MSTORE PUSH1 0xC0 DUP2 DUP6 ADD ADD MLOAD PUSH1 0xA0 DUP5 ADD MSTORE PUSH1 0xE0 DUP2 DUP6 ADD ADD MLOAD PUSH1 0x1 PUSH1 0x1 PUSH1 0x40 SHL SUB DUP2 GT ISZERO PUSH2 0x52B4 JUMPI PUSH1 0x0 DUP1 REVERT JUMPDEST PUSH2 0x52C5 DUP15 PUSH1 0x20 DUP4 DUP6 DUP10 ADD ADD ADD PUSH2 0x4EBE JUMP JUMPDEST PUSH1 0xC0 DUP6 ADD MSTORE POP POP SWAP1 DUP2 MSTORE PUSH1 0x40 DUP3 ADD MLOAD PUSH1 0x20 DUP3 ADD MSTORE PUSH1 0x60 DUP3 ADD MLOAD SWAP1 PUSH1 0x1 PUSH1 0x1 PUSH1 0x40 SHL SUB DUP3 GT ISZERO PUSH2 0x52F3 JUMPI PUSH1 0x0 DUP1 REVERT JUMPDEST PUSH2 0x5302 DUP13 PUSH1 0x20 DUP5 DUP7 ADD ADD PUSH2 0x4EBE JUMP JUMPDEST PUSH1 0x40 DUP3 ADD MSTORE PUSH2 0x5313 PUSH1 0x80 DUP5 ADD PUSH2 0x4E62 JUMP JUMPDEST PUSH1 0x60 DUP3 ADD MSTORE PUSH1 0xA0 SWAP3 SWAP1 SWAP3 ADD MLOAD PUSH1 0x80 DUP4 ADD MSTORE POP DUP5 MSTORE PUSH1 0x20 SWAP4 DUP5 ADD SWAP4 SWAP2 SWAP1 SWAP2 ADD SWAP1 PUSH1 0x1 ADD PUSH2 0x51B8 JUMP JUMPDEST PUSH1 0x0 DUP1 PUSH1 0x40 DUP4 DUP6 SUB SLT ISZERO PUSH2 0x534D JUMPI PUSH1 0x0 DUP1 REVERT JUMPDEST DUP3 MLOAD PUSH1 0x1 PUSH1 0x1 PUSH1 0x40 SHL SUB DUP2 GT ISZERO PUSH2 0x5363 JUMPI PUSH1 0x0 DUP1 REVERT JUMPDEST DUP4 ADD PUSH1 0x1F DUP2 ADD DUP6 SGT PUSH2 0x5374 JUMPI PUSH1 0x0 DUP1 REVERT JUMPDEST DUP1 MLOAD PUSH1 0x20 PUSH2 0x5384 PUSH2 0x4C58 DUP4 PUSH2 0x5DE1 JUMP JUMPDEST DUP1 DUP4 DUP3 MSTORE DUP3 DUP3 ADD SWAP2 POP DUP3 DUP6 ADD DUP10 DUP5 DUP7 PUSH1 0x5 SHL DUP9 ADD ADD GT ISZERO PUSH2 0x53A4 JUMPI PUSH1 0x0 DUP1 REVERT JUMPDEST PUSH1 0x0 SWAP6 POP JUMPDEST DUP5 DUP7 LT ISZERO PUSH2 0x53C7 JUMPI DUP1 MLOAD DUP4 MSTORE PUSH1 0x1 SWAP6 SWAP1 SWAP6 ADD SWAP5 SWAP2 DUP4 ADD SWAP2 DUP4 ADD PUSH2 0x53A9 JUMP JUMPDEST POP SWAP7 SWAP1 SWAP2 ADD MLOAD SWAP6 SWAP8 SWAP6 SWAP7 POP POP POP POP POP POP JUMP JUMPDEST PUSH1 0x0 PUSH1 0x20 DUP3 DUP5 SUB SLT ISZERO PUSH2 0x53EB JUMPI PUSH1 0x0 DUP1 REVERT JUMPDEST DUP2 MLOAD PUSH2 0x5055 DUP2 PUSH2 0x5F54 JUMP JUMPDEST PUSH1 0x0 PUSH1 0x20 DUP3 DUP5 SUB SLT ISZERO PUSH2 0x5408 JUMPI PUSH1 0x0 DUP1 REVERT JUMPDEST DUP2 MLOAD PUSH2 0x5055 DUP2 PUSH2 0x5F62 JUMP JUMPDEST PUSH1 0x0 DUP1 PUSH1 0x40 DUP4 DUP6 SUB SLT ISZERO PUSH2 0x5426 JUMPI PUSH1 0x0 DUP1 REVERT JUMPDEST DUP3 CALLDATALOAD PUSH1 0x1 PUSH1 0x1 PUSH1 0x40 SHL SUB DUP2 GT ISZERO PUSH2 0x543C JUMPI PUSH1 0x0 DUP1 REVERT JUMPDEST PUSH2 0x5448 DUP6 DUP3 DUP7 ADD PUSH2 0x4F0B JUMP JUMPDEST SWAP3 POP POP PUSH1 0x20 DUP4 ADD CALLDATALOAD PUSH2 0x5459 DUP2 PUSH2 0x5F3F JUMP JUMPDEST DUP1 SWAP2 POP POP SWAP3 POP SWAP3 SWAP1 POP JUMP JUMPDEST PUSH1 0x0 PUSH1 0x20 DUP3 DUP5 SUB SLT ISZERO PUSH2 0x5476 JUMPI PUSH1 0x0 DUP1 REVERT JUMPDEST POP CALLDATALOAD SWAP2 SWAP1 POP JUMP JUMPDEST PUSH1 0x0 PUSH1 0x20 DUP3 DUP5 SUB SLT ISZERO PUSH2 0x548F JUMPI PUSH1 0x0 DUP1 REVERT JUMPDEST POP MLOAD SWAP2 SWAP1 POP JUMP JUMPDEST PUSH1 0x0 DUP1 PUSH1 0x40 DUP4 DUP6 SUB SLT ISZERO PUSH2 0x54A9 JUMPI PUSH1 0x0 DUP1 REVERT JUMPDEST DUP3 CALLDATALOAD SWAP2 POP PUSH1 0x20 DUP4 ADD CALLDATALOAD PUSH2 0x5459 DUP2 PUSH2 0x5F3F JUMP JUMPDEST PUSH1 0x0 DUP1 PUSH1 0x0 DUP1 PUSH1 0x0 DUP1 PUSH1 0x0 PUSH1 0xE0 DUP9 DUP11 SUB SLT ISZERO PUSH2 0x54D6 JUMPI PUSH1 0x0 DUP1 REVERT JUMPDEST DUP8 CALLDATALOAD SWAP7 POP PUSH1 0x20 DUP9 ADD CALLDATALOAD PUSH2 0x54E8 DUP2 PUSH2 0x5F3F JUMP JUMPDEST SWAP6 POP PUSH1 0x40 DUP9 ADD CALLDATALOAD PUSH2 0x54F8 DUP2 PUSH2 0x5F3F JUMP JUMPDEST SWAP5 POP PUSH1 0x60 DUP9 ADD CALLDATALOAD SWAP4 POP PUSH1 0x80 DUP9 ADD CALLDATALOAD PUSH2 0x550F DUP2 PUSH2 0x5F54 JUMP JUMPDEST SWAP3 POP PUSH1 0xA0 DUP9 ADD CALLDATALOAD PUSH1 0x1 PUSH1 0x1 PUSH1 0x40 SHL SUB DUP1 DUP3 GT ISZERO PUSH2 0x552B JUMPI PUSH1 0x0 DUP1 REVERT JUMPDEST PUSH2 0x5537 DUP12 DUP4 DUP13 ADD PUSH2 0x4E6D JUMP JUMPDEST SWAP4 POP PUSH1 0xC0 DUP11 ADD CALLDATALOAD SWAP2 POP DUP1 DUP3 GT ISZERO PUSH2 0x554D JUMPI PUSH1 0x0 DUP1 REVERT JUMPDEST POP PUSH2 0x555A DUP11 DUP3 DUP12 ADD PUSH2 0x4E6D JUMP JUMPDEST SWAP2 POP POP SWAP3 SWAP6 SWAP9 SWAP2 SWAP5 SWAP8 POP SWAP3 SWAP6 POP JUMP JUMPDEST PUSH1 0x0 DUP1 PUSH1 0x0 PUSH1 0x60 DUP5 DUP7 SUB SLT ISZERO PUSH2 0x557E JUMPI PUSH1 0x0 DUP1 REVERT JUMPDEST DUP4 CALLDATALOAD SWAP3 POP PUSH1 0x20 DUP5 ADD CALLDATALOAD PUSH1 0x1 PUSH1 0x1 PUSH1 0x40 SHL SUB DUP2 GT ISZERO PUSH2 0x559B JUMPI PUSH1 0x0 DUP1 REVERT JUMPDEST PUSH2 0x55A7 DUP7 DUP3 DUP8 ADD PUSH2 0x4DDA JUMP JUMPDEST SWAP3 POP POP PUSH1 0x40 DUP5 ADD CALLDATALOAD PUSH2 0x55B8 DUP2 PUSH2 0x5F3F JUMP JUMPDEST DUP1 SWAP2 POP POP SWAP3 POP SWAP3 POP SWAP3 JUMP JUMPDEST PUSH1 0x0 DUP1 PUSH1 0x0 PUSH1 0x60 DUP5 DUP7 SUB SLT ISZERO PUSH2 0x55D8 JUMPI PUSH1 0x0 DUP1 REVERT JUMPDEST DUP4 CALLDATALOAD SWAP3 POP PUSH1 0x20 DUP5 ADD CALLDATALOAD PUSH1 0x1 PUSH1 0x1 PUSH1 0x40 SHL SUB DUP2 GT ISZERO PUSH2 0x55F5 JUMPI PUSH1 0x0 DUP1 REVERT JUMPDEST PUSH2 0x55A7 DUP7 DUP3 DUP8 ADD PUSH2 0x4F0B JUMP JUMPDEST PUSH1 0x0 DUP1 PUSH1 0x40 DUP4 DUP6 SUB SLT ISZERO PUSH2 0x5614 JUMPI PUSH1 0x0 DUP1 REVERT JUMPDEST POP POP DUP1 CALLDATALOAD SWAP3 PUSH1 0x20 SWAP1 SWAP2 ADD CALLDATALOAD SWAP2 POP JUMP JUMPDEST PUSH1 0x0 DUP1 PUSH1 0x0 PUSH1 0x60 DUP5 DUP7 SUB SLT ISZERO PUSH2 0x5638 JUMPI PUSH1 0x0 DUP1 REVERT JUMPDEST DUP4 CALLDATALOAD SWAP3 POP PUSH1 0x20 DUP5 ADD CALLDATALOAD SWAP2 POP PUSH1 0x40 DUP5 ADD CALLDATALOAD PUSH2 0x55B8 DUP2 PUSH2 0x5F3F JUMP JUMPDEST PUSH1 0x0 DUP1 PUSH1 0x0 DUP1 PUSH1 0x0 DUP1 PUSH1 0xC0 DUP8 DUP10 SUB SLT ISZERO PUSH2 0x566A JUMPI PUSH1 0x0 DUP1 REVERT JUMPDEST DUP7 CALLDATALOAD SWAP6 POP PUSH1 0x20 DUP8 ADD CALLDATALOAD SWAP5 POP PUSH1 0x40 DUP8 ADD CALLDATALOAD PUSH2 0x5683 DUP2 PUSH2 0x5F54 JUMP JUMPDEST SWAP4 POP PUSH1 0x60 DUP8 ADD CALLDATALOAD PUSH2 0x5693 DUP2 PUSH2 0x5F3F JUMP JUMPDEST SWAP3 POP PUSH1 0x80 DUP8 ADD CALLDATALOAD PUSH1 0x1 PUSH1 0x1 PUSH1 0x40 SHL SUB DUP1 DUP3 GT ISZERO PUSH2 0x56AF JUMPI PUSH1 0x0 DUP1 REVERT JUMPDEST PUSH2 0x56BB DUP11 DUP4 DUP12 ADD PUSH2 0x4E6D JUMP JUMPDEST SWAP4 POP PUSH1 0xA0 DUP10 ADD CALLDATALOAD SWAP2 POP DUP1 DUP3 GT ISZERO PUSH2 0x56D1 JUMPI PUSH1 0x0 DUP1 REVERT JUMPDEST POP PUSH2 0x56DE DUP10 DUP3 DUP11 ADD PUSH2 0x4E6D JUMP JUMPDEST SWAP2 POP POP SWAP3 SWAP6 POP SWAP3 SWAP6 POP SWAP3 SWAP6 JUMP JUMPDEST PUSH1 0x0 DUP1 PUSH1 0x0 DUP1 PUSH1 0x80 DUP6 DUP8 SUB SLT ISZERO PUSH2 0x5701 JUMPI PUSH1 0x0 DUP1 REVERT JUMPDEST DUP5 CALLDATALOAD SWAP4 POP PUSH1 0x20 DUP6 ADD CALLDATALOAD SWAP3 POP PUSH1 0x40 DUP6 ADD CALLDATALOAD PUSH1 0x1 PUSH1 0x1 PUSH1 0x40 SHL SUB DUP2 GT ISZERO PUSH2 0x5725 JUMPI PUSH1 0x0 DUP1 REVERT JUMPDEST PUSH2 0x5731 DUP8 DUP3 DUP9 ADD PUSH2 0x4E6D JUMP JUMPDEST SWAP3 POP POP PUSH1 0x60 DUP6 ADD CALLDATALOAD PUSH2 0x5742 DUP2 PUSH2 0x5F3F JUMP JUMPDEST SWAP4 SWAP7 SWAP3 SWAP6 POP SWAP1 SWAP4 POP POP JUMP JUMPDEST PUSH1 0x0 DUP2 MLOAD DUP1 DUP5 MSTORE PUSH1 0x20 DUP1 DUP6 ADD DUP1 DUP2 SWAP7 POP DUP4 PUSH1 0x5 SHL DUP2 ADD SWAP2 POP DUP3 DUP7 ADD PUSH1 0x0 JUMPDEST DUP6 DUP2 LT ISZERO PUSH2 0x5849 JUMPI DUP3 DUP5 SUB DUP10 MSTORE DUP2 MLOAD PUSH1 0xA0 DUP2 MLOAD DUP2 DUP8 MSTORE DUP1 MLOAD PUSH1 0xE0 DUP1 DUP5 DUP11 ADD MSTORE PUSH2 0x5798 PUSH2 0x180 DUP11 ADD DUP4 PUSH2 0x58C5 JUMP JUMPDEST SWAP2 POP DUP10 DUP4 ADD MLOAD PUSH1 0xC0 DUP2 DUP2 DUP13 ADD MSTORE PUSH1 0x40 SWAP2 POP DUP2 DUP6 ADD MLOAD DUP4 DUP13 ADD MSTORE PUSH1 0x60 SWAP3 POP DUP3 DUP6 ADD MLOAD PUSH2 0x100 DUP13 ADD MSTORE PUSH1 0x80 DUP1 DUP7 ADD MLOAD PUSH2 0x120 DUP14 ADD MSTORE DUP7 DUP7 ADD MLOAD PUSH2 0x140 DUP14 ADD MSTORE DUP2 DUP7 ADD MLOAD SWAP7 POP PUSH1 0x9F NOT DUP13 DUP7 SUB ADD PUSH2 0x160 DUP14 ADD MSTORE PUSH2 0x57F2 DUP6 DUP9 PUSH2 0x58C5 JUMP JUMPDEST SWAP7 POP DUP13 DUP9 ADD MLOAD DUP14 DUP14 ADD MSTORE DUP3 DUP9 ADD MLOAD SWAP6 POP DUP12 DUP8 SUB DUP4 DUP14 ADD MSTORE PUSH2 0x5813 DUP8 DUP8 PUSH2 0x58C5 JUMP JUMPDEST SWAP7 POP DUP4 DUP9 ADD MLOAD SWAP6 POP PUSH2 0x5827 DUP5 DUP14 ADD DUP8 PUSH2 0x5891 JUMP JUMPDEST SWAP7 DUP8 ADD MLOAD SWAP11 SWAP1 SWAP7 ADD SWAP10 SWAP1 SWAP10 MSTORE POP POP POP SWAP10 DUP7 ADD SWAP10 SWAP5 POP POP SWAP1 DUP5 ADD SWAP1 PUSH1 0x1 ADD PUSH2 0x576B JUMP JUMPDEST POP SWAP2 SWAP8 SWAP7 POP POP POP POP POP POP POP JUMP JUMPDEST PUSH1 0x0 DUP2 MLOAD DUP1 DUP5 MSTORE PUSH1 0x20 DUP1 DUP6 ADD SWAP5 POP DUP1 DUP5 ADD PUSH1 0x0 JUMPDEST DUP4 DUP2 LT ISZERO PUSH2 0x5886 JUMPI DUP2 MLOAD DUP8 MSTORE SWAP6 DUP3 ADD SWAP6 SWAP1 DUP3 ADD SWAP1 PUSH1 0x1 ADD PUSH2 0x586A JUMP JUMPDEST POP SWAP5 SWAP6 SWAP5 POP POP POP POP POP JUMP JUMPDEST PUSH1 0xC DUP2 LT PUSH2 0x58A1 JUMPI PUSH2 0x58A1 PUSH2 0x5EFD JUMP JUMPDEST SWAP1 MSTORE JUMP JUMPDEST PUSH1 0x8 DUP2 LT PUSH2 0x58A1 JUMPI PUSH2 0x58A1 PUSH2 0x5EFD JUMP JUMPDEST PUSH1 0x5 DUP2 LT PUSH2 0x58A1 JUMPI PUSH2 0x58A1 PUSH2 0x5EFD JUMP JUMPDEST PUSH1 0x0 DUP2 MLOAD DUP1 DUP5 MSTORE PUSH2 0x58DD DUP2 PUSH1 0x20 DUP7 ADD PUSH1 0x20 DUP7 ADD PUSH2 0x5E65 JUMP JUMPDEST PUSH1 0x1F ADD PUSH1 0x1F NOT AND SWAP3 SWAP1 SWAP3 ADD PUSH1 0x20 ADD SWAP3 SWAP2 POP POP JUMP JUMPDEST PUSH1 0x0 PUSH2 0x1A0 DUP3 MLOAD DUP5 MSTORE PUSH1 0x20 DUP4 ADD MLOAD DUP2 PUSH1 0x20 DUP7 ADD MSTORE PUSH2 0x5911 DUP3 DUP7 ADD DUP3 PUSH2 0x58C5 JUMP JUMPDEST SWAP2 POP POP PUSH1 0x40 DUP4 ADD MLOAD DUP5 DUP3 SUB PUSH1 0x40 DUP7 ADD MSTORE PUSH2 0x592B DUP3 DUP3 PUSH2 0x58C5 JUMP JUMPDEST SWAP2 POP POP PUSH1 0x60 DUP4 ADD MLOAD PUSH1 0x60 DUP6 ADD MSTORE PUSH1 0x80 DUP4 ADD MLOAD PUSH1 0x80 DUP6 ADD MSTORE PUSH1 0xA0 DUP4 ADD MLOAD PUSH1 0xA0 DUP6 ADD MSTORE PUSH1 0xC0 DUP4 ADD MLOAD DUP5 DUP3 SUB PUSH1 0xC0 DUP7 ADD MSTORE PUSH2 0x5963 DUP3 DUP3 PUSH2 0x5856 JUMP JUMPDEST SWAP2 POP POP PUSH1 0xE0 DUP4 ADD MLOAD PUSH1 0xE0 DUP6 ADD MSTORE PUSH2 0x100 DUP1 DUP5 ADD MLOAD DUP2 DUP7 ADD MSTORE POP PUSH2 0x120 DUP1 DUP5 ADD MLOAD PUSH2 0x5990 DUP3 DUP8 ADD DUP3 ISZERO ISZERO SWAP1 MSTORE JUMP JUMPDEST POP POP PUSH2 0x140 DUP4 DUP2 ADD MLOAD ISZERO ISZERO SWAP1 DUP6 ADD MSTORE PUSH2 0x160 DUP1 DUP5 ADD MLOAD SWAP1 DUP6 ADD MSTORE PUSH2 0x180 DUP1 DUP5 ADD MLOAD DUP6 DUP4 SUB DUP3 DUP8 ADD MSTORE PUSH2 0x59C2 DUP4 DUP3 PUSH2 0x574D JUMP JUMPDEST SWAP7 SWAP6 POP POP POP POP POP POP JUMP JUMPDEST PUSH1 0x1 DUP1 PUSH1 0xA0 SHL SUB DUP5 AND DUP2 MSTORE DUP3 PUSH1 0x20 DUP3 ADD MSTORE PUSH1 0x60 PUSH1 0x40 DUP3 ADD MSTORE PUSH1 0x0 PUSH2 0x59F3 PUSH1 0x60 DUP4 ADD DUP5 PUSH2 0x58F1 JUMP JUMPDEST SWAP6 SWAP5 POP POP POP POP POP JUMP JUMPDEST DUP3 ISZERO ISZERO DUP2 MSTORE PUSH1 0x40 PUSH1 0x20 DUP3 ADD MSTORE PUSH1 0x0 PUSH2 0x4F03 PUSH1 0x40 DUP4 ADD DUP5 PUSH2 0x58C5 JUMP JUMPDEST PUSH1 0x40 DUP1 DUP3 MSTORE PUSH1 0x10 SWAP1 DUP3 ADD MSTORE PUSH16 0x4572726F722066696C65207374617465 PUSH1 0x80 SHL PUSH1 0x60 DUP3 ADD MSTORE PUSH1 0x80 DUP2 ADD PUSH2 0xC39 PUSH1 0x20 DUP4 ADD DUP5 PUSH2 0x5891 JUMP JUMPDEST PUSH1 0x20 DUP1 DUP3 MSTORE PUSH1 0x15 SWAP1 DUP3 ADD MSTORE PUSH21 0x4572726F7220416363657373204164647265737321 PUSH1 0x58 SHL PUSH1 0x40 DUP3 ADD MSTORE PUSH1 0x60 ADD SWAP1 JUMP JUMPDEST PUSH1 0x40 DUP2 MSTORE PUSH1 0x0 PUSH2 0x5A8E PUSH1 0x40 DUP4 ADD DUP6 PUSH2 0x58F1 JUMP JUMPDEST SWAP1 POP PUSH1 0x1 DUP1 PUSH1 0xA0 SHL SUB DUP4 AND PUSH1 0x20 DUP4 ADD MSTORE SWAP4 SWAP3 POP POP POP JUMP JUMPDEST PUSH1 0x20 DUP1 DUP3 MSTORE DUP3 MLOAD PUSH1 0x1 PUSH1 0x1 PUSH1 0xA0 SHL SUB AND DUP3 DUP3 ADD MSTORE DUP3 ADD MLOAD PUSH1 0x60 PUSH1 0x40 DUP4 ADD MSTORE PUSH1 0x0 SWAP1 PUSH2 0x5AD3 PUSH1 0x80 DUP5 ADD DUP3 PUSH2 0x58C5 JUMP JUMPDEST SWAP1 POP PUSH1 0x40 DUP5 ADD MLOAD PUSH1 0x1F NOT DUP5 DUP4 SUB ADD PUSH1 0x60 DUP6 ADD MSTORE PUSH2 0x59F3 DUP3 DUP3 PUSH2 0x58C5 JUMP JUMPDEST SWAP3 DUP4 MSTORE PUSH1 0x1 PUSH1 0x1 PUSH1 0xA0 SHL SUB SWAP2 SWAP1 SWAP2 AND PUSH1 0x20 DUP4 ADD MSTORE PUSH1 0x40 DUP3 ADD MSTORE PUSH1 0x60 ADD SWAP1 JUMP JUMPDEST DUP5 DUP2 MSTORE PUSH1 0x1 PUSH1 0x1 PUSH1 0xA0 SHL SUB DUP5 AND PUSH1 0x20 DUP3 ADD MSTORE PUSH1 0x40 DUP2 ADD DUP4 SWAP1 MSTORE PUSH1 0x80 DUP2 ADD PUSH2 0x59F3 PUSH1 0x60 DUP4 ADD DUP5 PUSH2 0x58B5 JUMP JUMPDEST DUP7 DUP2 MSTORE PUSH1 0x1 PUSH1 0x1 PUSH1 0xA0 SHL SUB DUP7 DUP2 AND PUSH1 0x20 DUP4 ADD MSTORE PUSH1 0x40 DUP3 ADD DUP7 SWAP1 MSTORE PUSH1 0xC0 DUP3 ADD SWAP1 PUSH2 0x5B65 PUSH1 0x60 DUP5 ADD DUP8 PUSH2 0x58B5 JUMP JUMPDEST DUP5 ISZERO ISZERO PUSH1 0x80 DUP5 ADD MSTORE DUP1 DUP5 AND PUSH1 0xA0 DUP5 ADD MSTORE POP SWAP8 SWAP7 POP POP POP POP POP POP POP JUMP JUMPDEST DUP5 DUP2 MSTORE PUSH1 0x1 DUP1 PUSH1 0xA0 SHL SUB DUP5 AND PUSH1 0x20 DUP3 ADD MSTORE DUP3 PUSH1 0x40 DUP3 ADD MSTORE PUSH1 0x80 PUSH1 0x60 DUP3 ADD MSTORE PUSH1 0x0 PUSH2 0x59C2 PUSH1 0x80 DUP4 ADD DUP5 PUSH2 0x58C5 JUMP JUMPDEST DUP5 DUP2 MSTORE PUSH1 0x80 PUSH1 0x20 DUP3 ADD MSTORE PUSH1 0x0 PUSH2 0x5BC7 PUSH1 0x80 DUP4 ADD DUP7 PUSH2 0x5856 JUMP JUMPDEST PUSH1 0x1 PUSH1 0x1 PUSH1 0xA0 SHL SUB SWAP5 SWAP1 SWAP5 AND PUSH1 0x40 DUP4 ADD MSTORE POP SWAP1 ISZERO ISZERO PUSH1 0x60 SWAP1 SWAP2 ADD MSTORE SWAP3 SWAP2 POP POP JUMP JUMPDEST SWAP3 DUP4 MSTORE SWAP1 ISZERO ISZERO PUSH1 0x20 DUP4 ADD MSTORE PUSH1 0x1 PUSH1 0x1 PUSH1 0xA0 SHL SUB AND PUSH1 0x40 DUP3 ADD MSTORE PUSH1 0x60 ADD SWAP1 JUMP JUMPDEST DUP3 DUP2 MSTORE PUSH1 0x40 DUP2 ADD PUSH2 0x5055 PUSH1 0x20 DUP4 ADD DUP5 PUSH2 0x58A5 JUMP JUMPDEST DUP4 DUP2 MSTORE PUSH1 0x60 DUP2 ADD PUSH2 0x5C2F PUSH1 0x20 DUP4 ADD DUP6 PUSH2 0x58A5 JUMP JUMPDEST PUSH1 0x1 PUSH1 0x1 PUSH1 0xA0 SHL SUB SWAP3 SWAP1 SWAP3 AND PUSH1 0x40 SWAP2 SWAP1 SWAP2 ADD MSTORE SWAP3 SWAP2 POP POP JUMP JUMPDEST DUP3 DUP2 MSTORE PUSH1 0x40 PUSH1 0x20 DUP3 ADD MSTORE PUSH1 0x0 PUSH2 0x4F03 PUSH1 0x40 DUP4 ADD DUP5 PUSH2 0x58F1 JUMP JUMPDEST DUP6 DUP2 MSTORE DUP5 PUSH1 0x20 DUP3 ADD MSTORE PUSH1 0x1 DUP1 PUSH1 0xA0 SHL SUB DUP5 AND PUSH1 0x40 DUP3 ADD MSTORE PUSH1 0xA0 PUSH1 0x60 DUP3 ADD MSTORE PUSH1 0x0 PUSH2 0x5C8E PUSH1 0xA0 DUP4 ADD DUP6 PUSH2 0x58C5 JUMP JUMPDEST DUP3 DUP2 SUB PUSH1 0x80 DUP5 ADD MSTORE PUSH2 0x5CA0 DUP2 DUP6 PUSH2 0x58C5 JUMP JUMPDEST SWAP9 SWAP8 POP POP POP POP POP POP POP POP JUMP JUMPDEST DUP4 DUP2 MSTORE PUSH1 0x20 DUP2 ADD DUP4 SWAP1 MSTORE PUSH1 0x60 DUP2 ADD PUSH2 0x4F03 PUSH1 0x40 DUP4 ADD DUP5 PUSH2 0x5891 JUMP JUMPDEST DUP5 DUP2 MSTORE PUSH1 0x20 DUP2 ADD DUP5 SWAP1 MSTORE PUSH1 0x80 DUP2 ADD PUSH2 0x5CE2 PUSH1 0x40 DUP4 ADD DUP6 PUSH2 0x5891 JUMP JUMPDEST PUSH1 0x1 PUSH1 0x1 PUSH1 0xA0 SHL SUB SWAP3 SWAP1 SWAP3 AND PUSH1 0x60 SWAP2 SWAP1 SWAP2 ADD MSTORE SWAP4 SWAP3 POP POP POP JUMP JUMPDEST DUP7 DUP2 MSTORE DUP6 PUSH1 0x20 DUP3 ADD MSTORE DUP5 PUSH1 0x40 DUP3 ADD MSTORE PUSH1 0xC0 PUSH1 0x60 DUP3 ADD MSTORE PUSH1 0x0 PUSH2 0x5D21 PUSH1 0xC0 DUP4 ADD DUP7 PUSH2 0x58C5 JUMP JUMPDEST PUSH1 0x1 PUSH1 0x1 PUSH1 0xA0 SHL SUB SWAP5 SWAP1 SWAP5 AND PUSH1 0x80 DUP4 ADD MSTORE POP SWAP1 ISZERO ISZERO PUSH1 0xA0 SWAP1 SWAP2 ADD MSTORE SWAP5 SWAP4 POP POP POP POP JUMP JUMPDEST PUSH1 0x40 MLOAD PUSH1 0xA0 DUP2 ADD PUSH1 0x1 PUSH1 0x1 PUSH1 0x40 SHL SUB DUP2 GT DUP3 DUP3 LT OR ISZERO PUSH2 0x5D66 JUMPI PUSH2 0x5D66 PUSH2 0x5F29 JUMP JUMPDEST PUSH1 0x40 MSTORE SWAP1 JUMP JUMPDEST PUSH1 0x40 MLOAD PUSH1 0xE0 DUP2 ADD PUSH1 0x1 PUSH1 0x1 PUSH1 0x40 SHL SUB DUP2 GT DUP3 DUP3 LT OR ISZERO PUSH2 0x5D66 JUMPI PUSH2 0x5D66 PUSH2 0x5F29 JUMP JUMPDEST PUSH1 0x40 MLOAD PUSH2 0x1A0 DUP2 ADD PUSH1 0x1 PUSH1 0x1 PUSH1 0x40 SHL SUB DUP2 GT DUP3 DUP3 LT OR ISZERO PUSH2 0x5D66 JUMPI PUSH2 0x5D66 PUSH2 0x5F29 JUMP JUMPDEST PUSH1 0x40 MLOAD PUSH1 0x1F DUP3 ADD PUSH1 0x1F NOT AND DUP2 ADD PUSH1 0x1 PUSH1 0x1 PUSH1 0x40 SHL SUB DUP2 GT DUP3 DUP3 LT OR ISZERO PUSH2 0x5DD9 JUMPI PUSH2 0x5DD9 PUSH2 0x5F29 JUMP JUMPDEST PUSH1 0x40 MSTORE SWAP2 SWAP1 POP JUMP JUMPDEST PUSH1 0x0 PUSH1 0x1 PUSH1 0x1 PUSH1 0x40 SHL SUB DUP3 GT ISZERO PUSH2 0x5DFA JUMPI PUSH2 0x5DFA PUSH2 0x5F29 JUMP JUMPDEST POP PUSH1 0x5 SHL PUSH1 0x20 ADD SWAP1 JUMP JUMPDEST PUSH1 0x0 PUSH1 0x1 PUSH1 0x1 PUSH1 0x40 SHL SUB DUP3 GT ISZERO PUSH2 0x5E1D JUMPI PUSH2 0x5E1D PUSH2 0x5F29 JUMP JUMPDEST POP PUSH1 0x1F ADD PUSH1 0x1F NOT AND PUSH1 0x20 ADD SWAP1 JUMP JUMPDEST PUSH1 0x0 DUP3 NOT DUP3 GT ISZERO PUSH2 0x5E3E JUMPI PUSH2 0x5E3E PUSH2 0x5EE7 JUMP JUMPDEST POP ADD SWAP1 JUMP JUMPDEST PUSH1 0x0 DUP3 PUSH2 0x5E60 JUMPI PUSH4 0x4E487B71 PUSH1 0xE0 SHL PUSH1 0x0 MSTORE PUSH1 0x12 PUSH1 0x4 MSTORE PUSH1 0x24 PUSH1 0x0 REVERT JUMPDEST POP DIV SWAP1 JUMP JUMPDEST PUSH1 0x0 JUMPDEST DUP4 DUP2 LT ISZERO PUSH2 0x5E80 JUMPI DUP2 DUP2 ADD MLOAD DUP4 DUP3 ADD MSTORE PUSH1 0x20 ADD PUSH2 0x5E68 JUMP JUMPDEST DUP4 DUP2 GT ISZERO PUSH2 0x45C8 JUMPI POP POP PUSH1 0x0 SWAP2 ADD MSTORE JUMP JUMPDEST PUSH1 0x1 DUP2 DUP2 SHR SWAP1 DUP3 AND DUP1 PUSH2 0x5EA5 JUMPI PUSH1 0x7F DUP3 AND SWAP2 POP JUMPDEST PUSH1 0x20 DUP3 LT DUP2 EQ ISZERO PUSH2 0x5EC6 JUMPI PUSH4 0x4E487B71 PUSH1 0xE0 SHL PUSH1 0x0 MSTORE PUSH1 0x22 PUSH1 0x4 MSTORE PUSH1 0x24 PUSH1 0x0 REVERT JUMPDEST POP SWAP2 SWAP1 POP JUMP JUMPDEST PUSH1 0x0 PUSH1 0x0 NOT DUP3 EQ ISZERO PUSH2 0x5EE0 JUMPI PUSH2 0x5EE0 PUSH2 0x5EE7 JUMP JUMPDEST POP PUSH1 0x1 ADD SWAP1 JUMP JUMPDEST PUSH4 0x4E487B71 PUSH1 0xE0 SHL PUSH1 0x0 MSTORE PUSH1 0x11 PUSH1 0x4 MSTORE PUSH1 0x24 PUSH1 0x0 REVERT JUMPDEST PUSH4 0x4E487B71 PUSH1 0xE0 SHL PUSH1 0x0 MSTORE PUSH1 0x21 PUSH1 0x4 MSTORE PUSH1 0x24 PUSH1 0x0 REVERT JUMPDEST PUSH4 0x4E487B71 PUSH1 0xE0 SHL PUSH1 0x0 MSTORE PUSH1 0x32 PUSH1 0x4 MSTORE PUSH1 0x24 PUSH1 0x0 REVERT JUMPDEST PUSH4 0x4E487B71 PUSH1 0xE0 SHL PUSH1 0x0 MSTORE PUSH1 0x41 PUSH1 0x4 MSTORE PUSH1 0x24 PUSH1 0x0 REVERT JUMPDEST PUSH1 0x1 PUSH1 0x1 PUSH1 0xA0 SHL SUB DUP2 AND DUP2 EQ PUSH2 0xB2E JUMPI PUSH1 0x0 DUP1 REVERT JUMPDEST DUP1 ISZERO ISZERO DUP2 EQ PUSH2 0xB2E JUMPI PUSH1 0x0 DUP1 REVERT JUMPDEST PUSH1 0xC DUP2 LT PUSH2 0xB2E JUMPI PUSH1 0x0 DUP1 REVERT INVALID XOR DUP16 SELFDESTRUCT PUSH19 0x34F3BB35C4F436313EC14267725515E4CA3678 NUMBER 0xCD COINBASE PUSH7 0x21A72FB8A3DEA2 EXP PUSH14 0x822B68D598B7AB4FD45418A7CA7B LT EXTCODEHASH SLT 0xD3 STOP 0xBC 0xC3 0xB5 PUSH11 0x7B94D9ED337251B4359E8A MSIZE PUSH1 0x4E 0xE5 0xED 0xC6 SDIV 0xCC 0x5E TIMESTAMP 0x2E 0xD3 0x1E 0xCB SHR CALLCODE 0xB1 0xCB PUSH31 0xD855E8811DFB4C4B906571B20F3DCDF826B53F3C66528E252B2EB87DE3CB81 0x2F XOR 0xE6 DUP6 SWAP15 GT SWAP4 DIFFICULTY LOG2 PUSH5 0x6970667358 0x22 SLT KECCAK256 0x49 0xF8 0xAB 0xC4 0x2C 0xC1 REVERT 0xEA 0xA6 PUSH29 0xCBD52D15503343561FC24BE64C4E263FAD3BB225944B64736F6C634300 ADDMOD SMOD STOP CALLER "
		},
		"gasEstimates": {
			"creation": {
				"codeDepositCost": "4922600",
				"executionCost": "infinite",
				"totalCost": "infinite"
			},
			"external": {
				"acceptTrans(uint256,uint256[],address)": "infinite",
				"acceptVf(uint256,uint256[],address)": "infinite",
				"addPay(address,uint256)": "infinite",
				"addTask((uint256,string,string,uint256,uint256,uint256,uint256[],uint256,uint256,bool,bool,uint256,((string,uint256,uint256,uint256,uint256,uint256,string),uint256,string,uint8,uint256)[]),address)": "infinite",
				"closeFileState(uint256,uint256,address)": "infinite",
				"closeTask(uint256)": "infinite",
				"deductPay(address,uint256)": "infinite",
				"endTransAccept(uint256)": "infinite",
				"endTransVf(uint256)": "infinite",
				"getReturnRecord(uint256,uint256)": "infinite",
				"getTransferState(address)": "2569",
				"overTimeTrans(uint256,address)": "infinite",
				"overTimeVf(uint256,address)": "infinite",
				"owner()": "2434",
				"receiveTask(uint256,uint256,bool,address,string,string)": "infinite",
				"renounceOwnership()": "infinite",
				"setAccessAddress(address)": "26817",
				"sumbitTaskTrans(uint256,uint256,string,address)": "infinite",
				"sumbitVf(uint256,uint256,string,address)": "infinite",
				"transferOwnership(address)": "infinite",
				"update(address)": "infinite",
				"updateTaskByBuyer(uint256,(uint256,string,string,uint256,uint256,uint256,uint256[],uint256,uint256,bool,bool,uint256,((string,uint256,uint256,uint256,uint256,uint256,string),uint256,string,uint8,uint256)[]),address)": "infinite",
				"validate(uint256,address,address,uint256,bool,string,string)": "infinite"
			},
			"internal": {
				"_acceptTransToFileState(uint256,uint256,address)": "infinite",
				"_acceptVfToFileState(uint256,uint256,address)": "infinite",
				"_onNoOnePink(uint256)": "infinite"
			}
		},
		"methodIdentifiers": {
			"acceptTrans(uint256,uint256[],address)": "4aa86ded",
			"acceptVf(uint256,uint256[],address)": "a15d194c",
			"addPay(address,uint256)": "172372c2",
			"addTask((uint256,string,string,uint256,uint256,uint256,uint256[],uint256,uint256,bool,bool,uint256,((string,uint256,uint256,uint256,uint256,uint256,string),uint256,string,uint8,uint256)[]),address)": "2661f75c",
			"closeFileState(uint256,uint256,address)": "82e53b6d",
			"closeTask(uint256)": "1201dfc6",
			"deductPay(address,uint256)": "57840da6",
			"endTransAccept(uint256)": "8adc74a5",
			"endTransVf(uint256)": "a55af701",
			"getReturnRecord(uint256,uint256)": "787a8aa2",
			"getTransferState(address)": "32c22bba",
			"overTimeTrans(uint256,address)": "5b0ef140",
			"overTimeVf(uint256,address)": "36d61ae0",
			"owner()": "8da5cb5b",
			"receiveTask(uint256,uint256,bool,address,string,string)": "f8bc2fd7",
			"renounceOwnership()": "715018a6",
			"setAccessAddress(address)": "ad5f7ab0",
			"sumbitTaskTrans(uint256,uint256,string,address)": "655f05d3",
			"sumbitVf(uint256,uint256,string,address)": "a723213c",
			"transferOwnership(address)": "f2fde38b",
			"update(address)": "1c1b8772",
			"updateTaskByBuyer(uint256,(uint256,string,string,uint256,uint256,uint256,uint256[],uint256,uint256,bool,bool,uint256,((string,uint256,uint256,uint256,uint256,uint256,string),uint256,string,uint8,uint256)[]),address)": "710b7b27",
			"validate(uint256,address,address,uint256,bool,string,string)": "08dc21cf"
		}
	},
	"abi": [
		{
			"inputs": [
				{
					"internalType": "address",
					"name": "_serviceAddress",
					"type": "address"
				}
			],
			"stateMutability": "nonpayable",
			"type": "constructor"
		},
		{
			"inputs": [
				{
					"internalType": "string",
					"name": "",
					"type": "string"
				}
			],
			"name": "AccessError",
			"type": "error"
		},
		{
			"inputs": [
				{
					"internalType": "string",
					"name": "",
					"type": "string"
				},
				{
					"internalType": "enum LibProject.FileState",
					"name": "",
					"type": "uint8"
				}
			],
			"name": "FileException",
			"type": "error"
		},
		{
			"anonymous": false,
			"inputs": [
				{
					"indexed": true,
					"internalType": "address",
					"name": "previousOwner",
					"type": "address"
				},
				{
					"indexed": true,
					"internalType": "address",
					"name": "newOwner",
					"type": "address"
				}
			],
			"name": "OwnershipTransferred",
			"type": "event"
		},
		{
			"anonymous": false,
			"inputs": [
				{
					"indexed": false,
					"internalType": "uint256",
					"name": "taskIndex",
					"type": "uint256"
				},
				{
					"indexed": false,
					"internalType": "uint256",
					"name": "fileIndex",
					"type": "uint256"
				},
				{
					"indexed": false,
					"internalType": "address",
					"name": "taskerAddress",
					"type": "address"
				},
				{
					"indexed": false,
					"internalType": "bool",
					"name": "isTrans",
					"type": "bool"
				}
			],
			"name": "acceptTaskEv",
			"type": "event"
		},
		{
			"anonymous": false,
			"inputs": [
				{
					"indexed": false,
					"internalType": "uint256",
					"name": "taskIndex",
					"type": "uint256"
				},
				{
					"indexed": false,
					"internalType": "uint256[]",
					"name": "fileIndex",
					"type": "uint256[]"
				},
				{
					"indexed": false,
					"internalType": "address",
					"name": "taskerAddress",
					"type": "address"
				},
				{
					"indexed": false,
					"internalType": "bool",
					"name": "isTrans",
					"type": "bool"
				}
			],
			"name": "acceptTaskEv",
			"type": "event"
		},
		{
			"anonymous": false,
			"inputs": [
				{
					"indexed": false,
					"internalType": "address",
					"name": "tasker",
					"type": "address"
				},
				{
					"indexed": false,
					"internalType": "uint256",
					"name": "money",
					"type": "uint256"
				}
			],
			"name": "addPayEv",
			"type": "event"
		},
		{
			"anonymous": false,
			"inputs": [
				{
					"indexed": false,
					"internalType": "uint256",
					"name": "taskIndex",
					"type": "uint256"
				},
				{
					"indexed": false,
					"internalType": "uint256",
					"name": "fileInfo",
					"type": "uint256"
				},
				{
					"indexed": false,
					"internalType": "enum LibProject.FileState",
					"name": "fileSate",
					"type": "uint8"
				},
				{
					"indexed": false,
					"internalType": "address",
					"name": "opSender",
					"type": "address"
				}
			],
			"name": "changeFileStateEv",
			"type": "event"
		},
		{
			"anonymous": false,
			"inputs": [
				{
					"indexed": false,
					"internalType": "uint256",
					"name": "taskIndex",
					"type": "uint256"
				},
				{
					"indexed": false,
					"internalType": "enum LibProject.ProjectState",
					"name": "taskState",
					"type": "uint8"
				},
				{
					"indexed": false,
					"internalType": "address",
					"name": "opSender",
					"type": "address"
				}
			],
			"name": "changeProjectStateEv",
			"type": "event"
		},
		{
			"anonymous": false,
			"inputs": [
				{
					"indexed": false,
					"internalType": "uint256",
					"name": "taskIndex",
					"type": "uint256"
				},
				{
					"indexed": false,
					"internalType": "address",
					"name": "tasker",
					"type": "address"
				},
				{
					"indexed": false,
					"internalType": "uint256",
					"name": "fileIndex",
					"type": "uint256"
				},
				{
					"indexed": false,
					"internalType": "enum LibProject.TaskerState",
					"name": "taskerState",
					"type": "uint8"
				},
				{
					"indexed": false,
					"internalType": "bool",
					"name": "isTrans",
					"type": "bool"
				},
				{
					"indexed": false,
					"internalType": "address",
					"name": "opSender",
					"type": "address"
				}
			],
			"name": "changeTaskerStateEv",
			"type": "event"
		},
		{
			"anonymous": false,
			"inputs": [
				{
					"indexed": false,
					"internalType": "uint256",
					"name": "taskIndex",
					"type": "uint256"
				},
				{
					"indexed": false,
					"internalType": "bool",
					"name": "transActive",
					"type": "bool"
				},
				{
					"indexed": false,
					"internalType": "address",
					"name": "opSender",
					"type": "address"
				}
			],
			"name": "changeTransActiveEv",
			"type": "event"
		},
		{
			"anonymous": false,
			"inputs": [
				{
					"indexed": false,
					"internalType": "uint256",
					"name": "taskIndex",
					"type": "uint256"
				},
				{
					"indexed": false,
					"internalType": "bool",
					"name": "verActive",
					"type": "bool"
				},
				{
					"indexed": false,
					"internalType": "address",
					"name": "opSender",
					"type": "address"
				}
			],
			"name": "changeVerActiveEv",
			"type": "event"
		},
		{
			"anonymous": false,
			"inputs": [
				{
					"indexed": false,
					"internalType": "address",
					"name": "tasker",
					"type": "address"
				},
				{
					"indexed": false,
					"internalType": "uint256",
					"name": "money",
					"type": "uint256"
				}
			],
			"name": "decutPayEv",
			"type": "event"
		},
		{
			"anonymous": false,
			"inputs": [
				{
					"indexed": false,
					"internalType": "uint256",
					"name": "_index",
					"type": "uint256"
				},
				{
					"indexed": false,
					"internalType": "uint256",
					"name": "_fileIndex",
					"type": "uint256"
				},
				{
					"indexed": false,
					"internalType": "bool",
					"name": "_isTrans",
					"type": "bool"
				}
			],
			"name": "newSubmitFile",
			"type": "event"
		},
		{
			"anonymous": false,
			"inputs": [
				{
					"indexed": false,
					"internalType": "address",
					"name": "buyer",
					"type": "address"
				},
				{
					"indexed": false,
					"internalType": "uint256",
					"name": "taskIndex",
					"type": "uint256"
				},
				{
					"components": [
						{
							"internalType": "uint256",
							"name": "releaseTime",
							"type": "uint256"
						},
						{
							"internalType": "string",
							"name": "introduce",
							"type": "string"
						},
						{
							"internalType": "string",
							"name": "need",
							"type": "string"
						},
						{
							"internalType": "uint256",
							"name": "deadline",
							"type": "uint256"
						},
						{
							"internalType": "uint256",
							"name": "sourceLanguage",
							"type": "uint256"
						},
						{
							"internalType": "uint256",
							"name": "goalLanguage",
							"type": "uint256"
						},
						{
							"internalType": "uint256[]",
							"name": "preferList",
							"type": "uint256[]"
						},
						{
							"internalType": "uint256",
							"name": "translationType",
							"type": "uint256"
						},
						{
							"internalType": "uint256",
							"name": "workLoad",
							"type": "uint256"
						},
						{
							"internalType": "bool",
							"name": "isNonDisclosure",
							"type": "bool"
						},
						{
							"internalType": "bool",
							"name": "isCustomize",
							"type": "bool"
						},
						{
							"internalType": "uint256",
							"name": "bounty",
							"type": "uint256"
						},
						{
							"components": [
								{
									"components": [
										{
											"internalType": "string",
											"name": "name",
											"type": "string"
										},
										{
											"internalType": "uint256",
											"name": "size",
											"type": "uint256"
										},
										{
											"internalType": "uint256",
											"name": "videoLength",
											"type": "uint256"
										},
										{
											"internalType": "uint256",
											"name": "Page",
											"type": "uint256"
										},
										{
											"internalType": "uint256",
											"name": "words",
											"type": "uint256"
										},
										{
											"internalType": "uint256",
											"name": "fileType",
											"type": "uint256"
										},
										{
											"internalType": "string",
											"name": "path",
											"type": "string"
										}
									],
									"internalType": "struct LibProject.FileInfo",
									"name": "file",
									"type": "tuple"
								},
								{
									"internalType": "uint256",
									"name": "bounty",
									"type": "uint256"
								},
								{
									"internalType": "string",
									"name": "info",
									"type": "string"
								},
								{
									"internalType": "enum LibProject.FileState",
									"name": "state",
									"type": "uint8"
								},
								{
									"internalType": "uint256",
									"name": "lastUpload",
									"type": "uint256"
								}
							],
							"internalType": "struct LibProject.TaskInfo[]",
							"name": "tasks",
							"type": "tuple[]"
						}
					],
					"indexed": false,
					"internalType": "struct LibProject.ProParm",
					"name": "taskInfo",
					"type": "tuple"
				}
			],
			"name": "postProjectEv",
			"type": "event"
		},
		{
			"anonymous": false,
			"inputs": [
				{
					"indexed": false,
					"internalType": "uint256",
					"name": "index",
					"type": "uint256"
				},
				{
					"indexed": false,
					"internalType": "uint256",
					"name": "fileIndex",
					"type": "uint256"
				},
				{
					"indexed": false,
					"internalType": "address",
					"name": "to",
					"type": "address"
				},
				{
					"indexed": false,
					"internalType": "string",
					"name": "returnFile",
					"type": "string"
				},
				{
					"indexed": false,
					"internalType": "string",
					"name": "illustrate",
					"type": "string"
				}
			],
			"name": "returnFileEv",
			"type": "event"
		},
		{
			"anonymous": false,
			"inputs": [
				{
					"indexed": false,
					"internalType": "uint256",
					"name": "index",
					"type": "uint256"
				},
				{
					"indexed": false,
					"internalType": "uint256",
					"name": "fileIndex",
					"type": "uint256"
				},
				{
					"indexed": false,
					"internalType": "uint256",
					"name": "uploadtime",
					"type": "uint256"
				},
				{
					"indexed": false,
					"internalType": "string",
					"name": "file",
					"type": "string"
				},
				{
					"indexed": false,
					"internalType": "address",
					"name": "sender",
					"type": "address"
				},
				{
					"indexed": false,
					"internalType": "bool",
					"name": "isTrans",
					"type": "bool"
				}
			],
			"name": "submitFileEv",
			"type": "event"
		},
		{
			"inputs": [
				{
					"internalType": "uint256",
					"name": "_index",
					"type": "uint256"
				},
				{
					"internalType": "uint256[]",
					"name": "_fileIndex",
					"type": "uint256[]"
				},
				{
					"internalType": "address",
					"name": "_taskerIndex",
					"type": "address"
				}
			],
			"name": "acceptTrans",
			"outputs": [],
			"stateMutability": "nonpayable",
			"type": "function"
		},
		{
			"inputs": [
				{
					"internalType": "uint256",
					"name": "_index",
					"type": "uint256"
				},
				{
					"internalType": "uint256[]",
					"name": "_fileIndex",
					"type": "uint256[]"
				},
				{
					"internalType": "address",
					"name": "_taskerIndex",
					"type": "address"
				}
			],
			"name": "acceptVf",
			"outputs": [],
			"stateMutability": "nonpayable",
			"type": "function"
		},
		{
			"inputs": [
				{
					"internalType": "address",
					"name": "_to",
					"type": "address"
				},
				{
					"internalType": "uint256",
					"name": "_value",
					"type": "uint256"
				}
			],
			"name": "addPay",
			"outputs": [],
			"stateMutability": "nonpayable",
			"type": "function"
		},
		{
			"inputs": [
				{
					"components": [
						{
							"internalType": "uint256",
							"name": "releaseTime",
							"type": "uint256"
						},
						{
							"internalType": "string",
							"name": "introduce",
							"type": "string"
						},
						{
							"internalType": "string",
							"name": "need",
							"type": "string"
						},
						{
							"internalType": "uint256",
							"name": "deadline",
							"type": "uint256"
						},
						{
							"internalType": "uint256",
							"name": "sourceLanguage",
							"type": "uint256"
						},
						{
							"internalType": "uint256",
							"name": "goalLanguage",
							"type": "uint256"
						},
						{
							"internalType": "uint256[]",
							"name": "preferList",
							"type": "uint256[]"
						},
						{
							"internalType": "uint256",
							"name": "translationType",
							"type": "uint256"
						},
						{
							"internalType": "uint256",
							"name": "workLoad",
							"type": "uint256"
						},
						{
							"internalType": "bool",
							"name": "isNonDisclosure",
							"type": "bool"
						},
						{
							"internalType": "bool",
							"name": "isCustomize",
							"type": "bool"
						},
						{
							"internalType": "uint256",
							"name": "bounty",
							"type": "uint256"
						},
						{
							"components": [
								{
									"components": [
										{
											"internalType": "string",
											"name": "name",
											"type": "string"
										},
										{
											"internalType": "uint256",
											"name": "size",
											"type": "uint256"
										},
										{
											"internalType": "uint256",
											"name": "videoLength",
											"type": "uint256"
										},
										{
											"internalType": "uint256",
											"name": "Page",
											"type": "uint256"
										},
										{
											"internalType": "uint256",
											"name": "words",
											"type": "uint256"
										},
										{
											"internalType": "uint256",
											"name": "fileType",
											"type": "uint256"
										},
										{
											"internalType": "string",
											"name": "path",
											"type": "string"
										}
									],
									"internalType": "struct LibProject.FileInfo",
									"name": "file",
									"type": "tuple"
								},
								{
									"internalType": "uint256",
									"name": "bounty",
									"type": "uint256"
								},
								{
									"internalType": "string",
									"name": "info",
									"type": "string"
								},
								{
									"internalType": "enum LibProject.FileState",
									"name": "state",
									"type": "uint8"
								},
								{
									"internalType": "uint256",
									"name": "lastUpload",
									"type": "uint256"
								}
							],
							"internalType": "struct LibProject.TaskInfo[]",
							"name": "tasks",
							"type": "tuple[]"
						}
					],
					"internalType": "struct LibProject.ProParm",
					"name": "_t",
					"type": "tuple"
				},
				{
					"internalType": "address",
					"name": "_buyer",
					"type": "address"
				}
			],
			"name": "addTask",
			"outputs": [
				{
					"internalType": "uint256",
					"name": "",
					"type": "uint256"
				}
			],
			"stateMutability": "nonpayable",
			"type": "function"
		},
		{
			"inputs": [
				{
					"internalType": "uint256",
					"name": "_index",
					"type": "uint256"
				},
				{
					"internalType": "uint256",
					"name": "_fileIndex",
					"type": "uint256"
				},
				{
					"internalType": "address",
					"name": "_address",
					"type": "address"
				}
			],
			"name": "closeFileState",
			"outputs": [],
			"stateMutability": "nonpayable",
			"type": "function"
		},
		{
			"inputs": [
				{
					"internalType": "uint256",
					"name": "_index",
					"type": "uint256"
				}
			],
			"name": "closeTask",
			"outputs": [],
			"stateMutability": "nonpayable",
			"type": "function"
		},
		{
			"inputs": [
				{
					"internalType": "address",
					"name": "_to",
					"type": "address"
				},
				{
					"internalType": "uint256",
					"name": "_value",
					"type": "uint256"
				}
			],
			"name": "deductPay",
			"outputs": [],
			"stateMutability": "nonpayable",
			"type": "function"
		},
		{
			"inputs": [
				{
					"internalType": "uint256",
					"name": "_index",
					"type": "uint256"
				}
			],
			"name": "endTransAccept",
			"outputs": [
				{
					"internalType": "bool",
					"name": "",
					"type": "bool"
				},
				{
					"internalType": "string",
					"name": "",
					"type": "string"
				}
			],
			"stateMutability": "nonpayable",
			"type": "function"
		},
		{
			"inputs": [
				{
					"internalType": "uint256",
					"name": "_index",
					"type": "uint256"
				}
			],
			"name": "endTransVf",
			"outputs": [
				{
					"internalType": "bool",
					"name": "",
					"type": "bool"
				},
				{
					"internalType": "string",
					"name": "",
					"type": "string"
				}
			],
			"stateMutability": "nonpayable",
			"type": "function"
		},
		{
			"inputs": [
				{
					"internalType": "uint256",
					"name": "_index",
					"type": "uint256"
				},
				{
					"internalType": "uint256",
					"name": "_fileIndex",
					"type": "uint256"
				}
			],
			"name": "getReturnRecord",
			"outputs": [
				{
					"components": [
						{
							"internalType": "address",
							"name": "toAddress",
							"type": "address"
						},
						{
							"internalType": "string",
							"name": "returnFile",
							"type": "string"
						},
						{
							"internalType": "string",
							"name": "illustrate",
							"type": "string"
						}
					],
					"internalType": "struct LibProject.ReturnRecord",
					"name": "",
					"type": "tuple"
				}
			],
			"stateMutability": "view",
			"type": "function"
		},
		{
			"inputs": [
				{
					"internalType": "address",
					"name": "_address",
					"type": "address"
				}
			],
			"name": "getTransferState",
			"outputs": [
				{
					"internalType": "bool",
					"name": "",
					"type": "bool"
				}
			],
			"stateMutability": "view",
			"type": "function"
		},
		{
			"inputs": [
				{
					"internalType": "uint256",
					"name": "_index",
					"type": "uint256"
				},
				{
					"internalType": "address",
					"name": "_taskerIndex",
					"type": "address"
				}
			],
			"name": "overTimeTrans",
			"outputs": [
				{
					"internalType": "uint256",
					"name": "",
					"type": "uint256"
				},
				{
					"internalType": "uint256",
					"name": "",
					"type": "uint256"
				}
			],
			"stateMutability": "nonpayable",
			"type": "function"
		},
		{
			"inputs": [
				{
					"internalType": "uint256",
					"name": "_index",
					"type": "uint256"
				},
				{
					"internalType": "address",
					"name": "_taskerIndex",
					"type": "address"
				}
			],
			"name": "overTimeVf",
			"outputs": [
				{
					"internalType": "uint256",
					"name": "",
					"type": "uint256"
				},
				{
					"internalType": "uint256",
					"name": "",
					"type": "uint256"
				}
			],
			"stateMutability": "nonpayable",
			"type": "function"
		},
		{
			"inputs": [],
			"name": "owner",
			"outputs": [
				{
					"internalType": "address",
					"name": "",
					"type": "address"
				}
			],
			"stateMutability": "view",
			"type": "function"
		},
		{
			"inputs": [
				{
					"internalType": "uint256",
					"name": "_index",
					"type": "uint256"
				},
				{
					"internalType": "uint256",
					"name": "_fileIndex",
					"type": "uint256"
				},
				{
					"internalType": "bool",
					"name": "_isPass",
					"type": "bool"
				},
				{
					"internalType": "address",
					"name": "_address",
					"type": "address"
				},
				{
					"internalType": "string",
					"name": "_file",
					"type": "string"
				},
				{
					"internalType": "string",
					"name": "_illustrate",
					"type": "string"
				}
			],
			"name": "receiveTask",
			"outputs": [],
			"stateMutability": "nonpayable",
			"type": "function"
		},
		{
			"inputs": [],
			"name": "renounceOwnership",
			"outputs": [],
			"stateMutability": "nonpayable",
			"type": "function"
		},
		{
			"inputs": [
				{
					"internalType": "address",
					"name": "_address",
					"type": "address"
				}
			],
			"name": "setAccessAddress",
			"outputs": [],
			"stateMutability": "nonpayable",
			"type": "function"
		},
		{
			"inputs": [
				{
					"internalType": "uint256",
					"name": "_index",
					"type": "uint256"
				},
				{
					"internalType": "uint256",
					"name": "_fileIndex",
					"type": "uint256"
				},
				{
					"internalType": "string",
					"name": "_file",
					"type": "string"
				},
				{
					"internalType": "address",
					"name": "_tasker",
					"type": "address"
				}
			],
			"name": "sumbitTaskTrans",
			"outputs": [],
			"stateMutability": "nonpayable",
			"type": "function"
		},
		{
			"inputs": [
				{
					"internalType": "uint256",
					"name": "_index",
					"type": "uint256"
				},
				{
					"internalType": "uint256",
					"name": "_fileIndex",
					"type": "uint256"
				},
				{
					"internalType": "string",
					"name": "_file",
					"type": "string"
				},
				{
					"internalType": "address",
					"name": "_tasker",
					"type": "address"
				}
			],
			"name": "sumbitVf",
			"outputs": [],
			"stateMutability": "nonpayable",
			"type": "function"
		},
		{
			"inputs": [
				{
					"internalType": "address",
					"name": "newOwner",
					"type": "address"
				}
			],
			"name": "transferOwnership",
			"outputs": [],
			"stateMutability": "nonpayable",
			"type": "function"
		},
		{
			"inputs": [
				{
					"internalType": "address",
					"name": "_newAddress",
					"type": "address"
				}
			],
			"name": "update",
			"outputs": [],
			"stateMutability": "nonpayable",
			"type": "function"
		},
		{
			"inputs": [
				{
					"internalType": "uint256",
					"name": "_index",
					"type": "uint256"
				},
				{
					"components": [
						{
							"internalType": "uint256",
							"name": "releaseTime",
							"type": "uint256"
						},
						{
							"internalType": "string",
							"name": "introduce",
							"type": "string"
						},
						{
							"internalType": "string",
							"name": "need",
							"type": "string"
						},
						{
							"internalType": "uint256",
							"name": "deadline",
							"type": "uint256"
						},
						{
							"internalType": "uint256",
							"name": "sourceLanguage",
							"type": "uint256"
						},
						{
							"internalType": "uint256",
							"name": "goalLanguage",
							"type": "uint256"
						},
						{
							"internalType": "uint256[]",
							"name": "preferList",
							"type": "uint256[]"
						},
						{
							"internalType": "uint256",
							"name": "translationType",
							"type": "uint256"
						},
						{
							"internalType": "uint256",
							"name": "workLoad",
							"type": "uint256"
						},
						{
							"internalType": "bool",
							"name": "isNonDisclosure",
							"type": "bool"
						},
						{
							"internalType": "bool",
							"name": "isCustomize",
							"type": "bool"
						},
						{
							"internalType": "uint256",
							"name": "bounty",
							"type": "uint256"
						},
						{
							"components": [
								{
									"components": [
										{
											"internalType": "string",
											"name": "name",
											"type": "string"
										},
										{
											"internalType": "uint256",
											"name": "size",
											"type": "uint256"
										},
										{
											"internalType": "uint256",
											"name": "videoLength",
											"type": "uint256"
										},
										{
											"internalType": "uint256",
											"name": "Page",
											"type": "uint256"
										},
										{
											"internalType": "uint256",
											"name": "words",
											"type": "uint256"
										},
										{
											"internalType": "uint256",
											"name": "fileType",
											"type": "uint256"
										},
										{
											"internalType": "string",
											"name": "path",
											"type": "string"
										}
									],
									"internalType": "struct LibProject.FileInfo",
									"name": "file",
									"type": "tuple"
								},
								{
									"internalType": "uint256",
									"name": "bounty",
									"type": "uint256"
								},
								{
									"internalType": "string",
									"name": "info",
									"type": "string"
								},
								{
									"internalType": "enum LibProject.FileState",
									"name": "state",
									"type": "uint8"
								},
								{
									"internalType": "uint256",
									"name": "lastUpload",
									"type": "uint256"
								}
							],
							"internalType": "struct LibProject.TaskInfo[]",
							"name": "tasks",
							"type": "tuple[]"
						}
					],
					"internalType": "struct LibProject.ProParm",
					"name": "_t",
					"type": "tuple"
				},
				{
					"internalType": "address",
					"name": "_address",
					"type": "address"
				}
			],
			"name": "updateTaskByBuyer",
			"outputs": [],
			"stateMutability": "nonpayable",
			"type": "function"
		},
		{
			"inputs": [
				{
					"internalType": "uint256",
					"name": "_index",
					"type": "uint256"
				},
				{
					"internalType": "address",
					"name": "_transAddress",
					"type": "address"
				},
				{
					"internalType": "address",
					"name": "_vfAddress",
					"type": "address"
				},
				{
					"internalType": "uint256",
					"name": "_fileIndex",
					"type": "uint256"
				},
				{
					"internalType": "bool",
					"name": "_isPass",
					"type": "bool"
				},
				{
					"internalType": "string",
					"name": "_file",
					"type": "string"
				},
				{
					"internalType": "string",
					"name": "_illustrate",
					"type": "string"
				}
			],
			"name": "validate",
			"outputs": [
				{
					"internalType": "uint256",
					"name": "_payBounty",
					"type": "uint256"
				}
			],
			"stateMutability": "nonpayable",
			"type": "function"
		}
	]
}