{
	"data": {
		"bytecode": {
			"linkReferences": {},
			"object": "6104ed610053600b82828239805160001a607314610046577f4e487b7100000000000000000000000000000000000000000000000000000000600052600060045260246000fd5b30600052607381538281f3fe73000000000000000000000000000000000000000030146080604052600436106100565760003560e01c80634f6ca3ce1461005b5780638f861ba71461008b5780639ce5c4bf146100bb578063f2e60202146100eb575b600080fd5b61007560048036038101906100709190610311565b61011b565b604051610082919061038d565b60405180910390f35b6100a560048036038101906100a0919061033e565b61025d565b6040516100b2919061038d565b60405180910390f35b6100d560048036038101906100d0919061033e565b610271565b6040516100e2919061038d565b60405180910390f35b61010560048036038101906101009190610311565b610285565b604051610112919061038d565b60405180910390f35b6000806101118310156101315760019050610254565b61011183101580156101505750600a61011161014d91906103d9565b83105b1561015e57600a9050610253565b600a61011161016d91906103d9565b83101580156101895750606461011161018691906103d9565b83105b156101975760649050610252565b60646101116101a691906103d9565b83101580156101c357506103e86101116101c091906103d9565b83105b156101d2576103e89050610251565b6103e86101116101e291906103d9565b831015801561020057506127106101116101fc91906103d9565b8311155b1561020f576127109050610250565b61271061011161021f91906103d9565b831015801561023e5750620186a061011161023a91906103d9565b8311155b1561024e57620186a0905061024f565b5b5b5b5b5b5b80915050919050565b600061026983836102b0565b905092915050565b600061027d82846102d0565b905092915050565b6000806003831161029957600190506102a7565b6102a48360036102d0565b90505b80915050919050565b600060646102be84846102e6565b6102c891906103a8565b905092915050565b600081836102de91906103a8565b905092915050565b600081836102f491906103d9565b905092915050565b60008135905061030b816104a0565b92915050565b6000602082840312156103275761032661049b565b5b6000610335848285016102fc565b91505092915050565b600080604083850312156103555761035461049b565b5b6000610363858286016102fc565b9250506020610374858286016102fc565b9150509250929050565b61038781610433565b82525050565b60006020820190506103a2600083018461037e565b92915050565b60006103b382610433565b91506103be83610433565b9250826103ce576103cd61046c565b5b828204905092915050565b60006103e482610433565b91506103ef83610433565b9250817fffffffffffffffffffffffffffffffffffffffffffffffffffffffffffffffff04831182151516156104285761042761043d565b5b828202905092915050565b6000819050919050565b7f4e487b7100000000000000000000000000000000000000000000000000000000600052601160045260246000fd5b7f4e487b7100000000000000000000000000000000000000000000000000000000600052601260045260246000fd5b600080fd5b6104a981610433565b81146104b457600080fd5b5056fea26469706673582212202f8425aca0f73571d2e19ca44634eaadbb7c4bc351806ccda7878f6cf0746d1a64736f6c63430008060033",
			"opcodes": "PUSH2 0x4ED PUSH2 0x53 PUSH1 0xB DUP3 DUP3 DUP3 CODECOPY DUP1 MLOAD PUSH1 0x0 BYTE PUSH1 0x73 EQ PUSH2 0x46 JUMPI PUSH32 0x4E487B7100000000000000000000000000000000000000000000000000000000 PUSH1 0x0 MSTORE PUSH1 0x0 PUSH1 0x4 MSTORE PUSH1 0x24 PUSH1 0x0 REVERT JUMPDEST ADDRESS PUSH1 0x0 MSTORE PUSH1 0x73 DUP2 MSTORE8 DUP3 DUP2 RETURN INVALID PUSH20 0x0 ADDRESS EQ PUSH1 0x80 PUSH1 0x40 MSTORE PUSH1 0x4 CALLDATASIZE LT PUSH2 0x56 JUMPI PUSH1 0x0 CALLDATALOAD PUSH1 0xE0 SHR DUP1 PUSH4 0x4F6CA3CE EQ PUSH2 0x5B JUMPI DUP1 PUSH4 0x8F861BA7 EQ PUSH2 0x8B JUMPI DUP1 PUSH4 0x9CE5C4BF EQ PUSH2 0xBB JUMPI DUP1 PUSH4 0xF2E60202 EQ PUSH2 0xEB JUMPI JUMPDEST PUSH1 0x0 DUP1 REVERT JUMPDEST PUSH2 0x75 PUSH1 0x4 DUP1 CALLDATASIZE SUB DUP2 ADD SWAP1 PUSH2 0x70 SWAP2 SWAP1 PUSH2 0x311 JUMP JUMPDEST PUSH2 0x11B JUMP JUMPDEST PUSH1 0x40 MLOAD PUSH2 0x82 SWAP2 SWAP1 PUSH2 0x38D JUMP JUMPDEST PUSH1 0x40 MLOAD DUP1 SWAP2 SUB SWAP1 RETURN JUMPDEST PUSH2 0xA5 PUSH1 0x4 DUP1 CALLDATASIZE SUB DUP2 ADD SWAP1 PUSH2 0xA0 SWAP2 SWAP1 PUSH2 0x33E JUMP JUMPDEST PUSH2 0x25D JUMP JUMPDEST PUSH1 0x40 MLOAD PUSH2 0xB2 SWAP2 SWAP1 PUSH2 0x38D JUMP JUMPDEST PUSH1 0x40 MLOAD DUP1 SWAP2 SUB SWAP1 RETURN JUMPDEST PUSH2 0xD5 PUSH1 0x4 DUP1 CALLDATASIZE SUB DUP2 ADD SWAP1 PUSH2 0xD0 SWAP2 SWAP1 PUSH2 0x33E JUMP JUMPDEST PUSH2 0x271 JUMP JUMPDEST PUSH1 0x40 MLOAD PUSH2 0xE2 SWAP2 SWAP1 PUSH2 0x38D JUMP JUMPDEST PUSH1 0x40 MLOAD DUP1 SWAP2 SUB SWAP1 RETURN JUMPDEST PUSH2 0x105 PUSH1 0x4 DUP1 CALLDATASIZE SUB DUP2 ADD SWAP1 PUSH2 0x100 SWAP2 SWAP1 PUSH2 0x311 JUMP JUMPDEST PUSH2 0x285 JUMP JUMPDEST PUSH1 0x40 MLOAD PUSH2 0x112 SWAP2 SWAP1 PUSH2 0x38D JUMP JUMPDEST PUSH1 0x40 MLOAD DUP1 SWAP2 SUB SWAP1 RETURN JUMPDEST PUSH1 0x0 DUP1 PUSH2 0x111 DUP4 LT ISZERO PUSH2 0x131 JUMPI PUSH1 0x1 SWAP1 POP PUSH2 0x254 JUMP JUMPDEST PUSH2 0x111 DUP4 LT ISZERO DUP1 ISZERO PUSH2 0x150 JUMPI POP PUSH1 0xA PUSH2 0x111 PUSH2 0x14D SWAP2 SWAP1 PUSH2 0x3D9 JUMP JUMPDEST DUP4 LT JUMPDEST ISZERO PUSH2 0x15E JUMPI PUSH1 0xA SWAP1 POP PUSH2 0x253 JUMP JUMPDEST PUSH1 0xA PUSH2 0x111 PUSH2 0x16D SWAP2 SWAP1 PUSH2 0x3D9 JUMP JUMPDEST DUP4 LT ISZERO DUP1 ISZERO PUSH2 0x189 JUMPI POP PUSH1 0x64 PUSH2 0x111 PUSH2 0x186 SWAP2 SWAP1 PUSH2 0x3D9 JUMP JUMPDEST DUP4 LT JUMPDEST ISZERO PUSH2 0x197 JUMPI PUSH1 0x64 SWAP1 POP PUSH2 0x252 JUMP JUMPDEST PUSH1 0x64 PUSH2 0x111 PUSH2 0x1A6 SWAP2 SWAP1 PUSH2 0x3D9 JUMP JUMPDEST DUP4 LT ISZERO DUP1 ISZERO PUSH2 0x1C3 JUMPI POP PUSH2 0x3E8 PUSH2 0x111 PUSH2 0x1C0 SWAP2 SWAP1 PUSH2 0x3D9 JUMP JUMPDEST DUP4 LT JUMPDEST ISZERO PUSH2 0x1D2 JUMPI PUSH2 0x3E8 SWAP1 POP PUSH2 0x251 JUMP JUMPDEST PUSH2 0x3E8 PUSH2 0x111 PUSH2 0x1E2 SWAP2 SWAP1 PUSH2 0x3D9 JUMP JUMPDEST DUP4 LT ISZERO DUP1 ISZERO PUSH2 0x200 JUMPI POP PUSH2 0x2710 PUSH2 0x111 PUSH2 0x1FC SWAP2 SWAP1 PUSH2 0x3D9 JUMP JUMPDEST DUP4 GT ISZERO JUMPDEST ISZERO PUSH2 0x20F JUMPI PUSH2 0x2710 SWAP1 POP PUSH2 0x250 JUMP JUMPDEST PUSH2 0x2710 PUSH2 0x111 PUSH2 0x21F SWAP2 SWAP1 PUSH2 0x3D9 JUMP JUMPDEST DUP4 LT ISZERO DUP1 ISZERO PUSH2 0x23E JUMPI POP PUSH3 0x186A0 PUSH2 0x111 PUSH2 0x23A SWAP2 SWAP1 PUSH2 0x3D9 JUMP JUMPDEST DUP4 GT ISZERO JUMPDEST ISZERO PUSH2 0x24E JUMPI PUSH3 0x186A0 SWAP1 POP PUSH2 0x24F JUMP JUMPDEST JUMPDEST JUMPDEST JUMPDEST JUMPDEST JUMPDEST JUMPDEST DUP1 SWAP2 POP POP SWAP2 SWAP1 POP JUMP JUMPDEST PUSH1 0x0 PUSH2 0x269 DUP4 DUP4 PUSH2 0x2B0 JUMP JUMPDEST SWAP1 POP SWAP3 SWAP2 POP POP JUMP JUMPDEST PUSH1 0x0 PUSH2 0x27D DUP3 DUP5 PUSH2 0x2D0 JUMP JUMPDEST SWAP1 POP SWAP3 SWAP2 POP POP JUMP JUMPDEST PUSH1 0x0 DUP1 PUSH1 0x3 DUP4 GT PUSH2 0x299 JUMPI PUSH1 0x1 SWAP1 POP PUSH2 0x2A7 JUMP JUMPDEST PUSH2 0x2A4 DUP4 PUSH1 0x3 PUSH2 0x2D0 JUMP JUMPDEST SWAP1 POP JUMPDEST DUP1 SWAP2 POP POP SWAP2 SWAP1 POP JUMP JUMPDEST PUSH1 0x0 PUSH1 0x64 PUSH2 0x2BE DUP5 DUP5 PUSH2 0x2E6 JUMP JUMPDEST PUSH2 0x2C8 SWAP2 SWAP1 PUSH2 0x3A8 JUMP JUMPDEST SWAP1 POP SWAP3 SWAP2 POP POP JUMP JUMPDEST PUSH1 0x0 DUP2 DUP4 PUSH2 0x2DE SWAP2 SWAP1 PUSH2 0x3A8 JUMP JUMPDEST SWAP1 POP SWAP3 SWAP2 POP POP JUMP JUMPDEST PUSH1 0x0 DUP2 DUP4 PUSH2 0x2F4 SWAP2 SWAP1 PUSH2 0x3D9 JUMP JUMPDEST SWAP1 POP SWAP3 SWAP2 POP POP JUMP JUMPDEST PUSH1 0x0 DUP2 CALLDATALOAD SWAP1 POP PUSH2 0x30B DUP2 PUSH2 0x4A0 JUMP JUMPDEST SWAP3 SWAP2 POP POP JUMP JUMPDEST PUSH1 0x0 PUSH1 0x20 DUP3 DUP5 SUB SLT ISZERO PUSH2 0x327 JUMPI PUSH2 0x326 PUSH2 0x49B JUMP JUMPDEST JUMPDEST PUSH1 0x0 PUSH2 0x335 DUP5 DUP3 DUP6 ADD PUSH2 0x2FC JUMP JUMPDEST SWAP2 POP POP SWAP3 SWAP2 POP POP JUMP JUMPDEST PUSH1 0x0 DUP1 PUSH1 0x40 DUP4 DUP6 SUB SLT ISZERO PUSH2 0x355 JUMPI PUSH2 0x354 PUSH2 0x49B JUMP JUMPDEST JUMPDEST PUSH1 0x0 PUSH2 0x363 DUP6 DUP3 DUP7 ADD PUSH2 0x2FC JUMP JUMPDEST SWAP3 POP POP PUSH1 0x20 PUSH2 0x374 DUP6 DUP3 DUP7 ADD PUSH2 0x2FC JUMP JUMPDEST SWAP2 POP POP SWAP3 POP SWAP3 SWAP1 POP JUMP JUMPDEST PUSH2 0x387 DUP2 PUSH2 0x433 JUMP JUMPDEST DUP3 MSTORE POP POP JUMP JUMPDEST PUSH1 0x0 PUSH1 0x20 DUP3 ADD SWAP1 POP PUSH2 0x3A2 PUSH1 0x0 DUP4 ADD DUP5 PUSH2 0x37E JUMP JUMPDEST SWAP3 SWAP2 POP POP JUMP JUMPDEST PUSH1 0x0 PUSH2 0x3B3 DUP3 PUSH2 0x433 JUMP JUMPDEST SWAP2 POP PUSH2 0x3BE DUP4 PUSH2 0x433 JUMP JUMPDEST SWAP3 POP DUP3 PUSH2 0x3CE JUMPI PUSH2 0x3CD PUSH2 0x46C JUMP JUMPDEST JUMPDEST DUP3 DUP3 DIV SWAP1 POP SWAP3 SWAP2 POP POP JUMP JUMPDEST PUSH1 0x0 PUSH2 0x3E4 DUP3 PUSH2 0x433 JUMP JUMPDEST SWAP2 POP PUSH2 0x3EF DUP4 PUSH2 0x433 JUMP JUMPDEST SWAP3 POP DUP2 PUSH32 0xFFFFFFFFFFFFFFFFFFFFFFFFFFFFFFFFFFFFFFFFFFFFFFFFFFFFFFFFFFFFFFFF DIV DUP4 GT DUP3 ISZERO ISZERO AND ISZERO PUSH2 0x428 JUMPI PUSH2 0x427 PUSH2 0x43D JUMP JUMPDEST JUMPDEST DUP3 DUP3 MUL SWAP1 POP SWAP3 SWAP2 POP POP JUMP JUMPDEST PUSH1 0x0 DUP2 SWAP1 POP SWAP2 SWAP1 POP JUMP JUMPDEST PUSH32 0x4E487B7100000000000000000000000000000000000000000000000000000000 PUSH1 0x0 MSTORE PUSH1 0x11 PUSH1 0x4 MSTORE PUSH1 0x24 PUSH1 0x0 REVERT JUMPDEST PUSH32 0x4E487B7100000000000000000000000000000000000000000000000000000000 PUSH1 0x0 MSTORE PUSH1 0x12 PUSH1 0x4 MSTORE PUSH1 0x24 PUSH1 0x0 REVERT JUMPDEST PUSH1 0x0 DUP1 REVERT JUMPDEST PUSH2 0x4A9 DUP2 PUSH2 0x433 JUMP JUMPDEST DUP2 EQ PUSH2 0x4B4 JUMPI PUSH1 0x0 DUP1 REVERT JUMPDEST POP JUMP INVALID LOG2 PUSH5 0x6970667358 0x22 SLT KECCAK256 0x2F DUP5 0x25 0xAC LOG0 0xF7 CALLDATALOAD PUSH18 0xD2E19CA44634EAADBB7C4BC351806CCDA787 DUP16 PUSH13 0xF0746D1A64736F6C6343000806 STOP CALLER "
		},
		"gasEstimates": {
			"creation": {
				"codeDepositCost": "252200",
				"executionCost": "319",
				"totalCost": "252519"
			},
			"external": {
				"getDeductMoney(uint256,uint256)": "infinite",
				"getMatNumber(uint256)": "infinite",
				"getPunish(uint256,uint256)": "infinite",
				"punishRatio(uint256)": "infinite"
			},
			"internal": {
				"_getPercentage(uint256,uint256)": "infinite",
				"getTaskTrans(uint256)": "infinite",
				"getTaskVf(uint256)": "infinite"
			}
		},
		"methodIdentifiers": {
			"getDeductMoney(uint256,uint256)": "8f861ba7",
			"getMatNumber(uint256)": "f2e60202",
			"getPunish(uint256,uint256)": "9ce5c4bf",
			"punishRatio(uint256)": "4f6ca3ce"
		}
	},
	"abi": [
		{
			"inputs": [
				{
					"internalType": "uint256",
					"name": "_bounty",
					"type": "uint256"
				},
				{
					"internalType": "uint256",
					"name": "_deduct",
					"type": "uint256"
				}
			],
			"name": "getDeductMoney",
			"outputs": [
				{
					"internalType": "uint256",
					"name": "",
					"type": "uint256"
				}
			],
			"stateMutability": "pure",
			"type": "function"
		},
		{
			"inputs": [
				{
					"internalType": "uint256",
					"name": "_transNumber",
					"type": "uint256"
				}
			],
			"name": "getMatNumber",
			"outputs": [
				{
					"internalType": "uint256",
					"name": "",
					"type": "uint256"
				}
			],
			"stateMutability": "pure",
			"type": "function"
		},
		{
			"inputs": [
				{
					"internalType": "uint256",
					"name": "_ratio",
					"type": "uint256"
				},
				{
					"internalType": "uint256",
					"name": "_bounty",
					"type": "uint256"
				}
			],
			"name": "getPunish",
			"outputs": [
				{
					"internalType": "uint256",
					"name": "",
					"type": "uint256"
				}
			],
			"stateMutability": "pure",
			"type": "function"
		},
		{
			"inputs": [
				{
					"internalType": "uint256",
					"name": "_bounts",
					"type": "uint256"
				}
			],
			"name": "punishRatio",
			"outputs": [
				{
					"internalType": "uint256",
					"name": "",
					"type": "uint256"
				}
			],
			"stateMutability": "pure",
			"type": "function"
		}
	]
}