{
	"data": {
		"bytecode": {
			"linkReferences": {},
			"object": "6080604052610111600155600360025534801561001b57600080fd5b5061003861002d61003d60201b60201c565b61004560201b60201c565b610109565b600033905090565b60008060009054906101000a900473ffffffffffffffffffffffffffffffffffffffff169050816000806101000a81548173ffffffffffffffffffffffffffffffffffffffff021916908373ffffffffffffffffffffffffffffffffffffffff1602179055508173ffffffffffffffffffffffffffffffffffffffff168173ffffffffffffffffffffffffffffffffffffffff167f8be0079c531659141344cd1fd0a4f28419497f9722a3daafe3b4186f6b6457e060405160405180910390a35050565b610bfe806101186000396000f3fe608060405234801561001057600080fd5b50600436106100ea5760003560e01c80638f861ba71161008c578063a730941d11610066578063a730941d1461026f578063f2e602021461029f578063f2fde38b146102cf578063f74f3655146102eb576100ea565b80638f861ba7146101df5780639ce5c4bf1461020f578063a3cb7c551461023f576100ea565b80635c830098116100c85780635c830098146101575780636873e8d214610187578063715018a6146101b75780638da5cb5b146101c1576100ea565b806331bfb377146100ef57806334fcf4371461010b5780634f6ca3ce14610127575b600080fd5b6101096004803603810190610104919061080e565b61031b565b005b6101256004803603810190610120919061080e565b61032d565b005b610141600480360381019061013c919061080e565b61033f565b60405161014e919061097d565b60405180910390f35b610171600480360381019061016c919061080e565b6104bb565b60405161017e919061097d565b60405180910390f35b6101a1600480360381019061019c919061080e565b6104cf565b6040516101ae919061097d565b60405180910390f35b6101bf6104e3565b005b6101c96104f7565b6040516101d69190610902565b60405180910390f35b6101f960048036038101906101f4919061083b565b610520565b604051610206919061097d565b60405180910390f35b6102296004803603810190610224919061083b565b610534565b604051610236919061097d565b60405180910390f35b6102596004803603810190610254919061080e565b610548565b604051610266919061097d565b60405180910390f35b6102896004803603810190610284919061080e565b61055c565b604051610296919061097d565b60405180910390f35b6102b960048036038101906102b4919061080e565b610570565b6040516102c6919061097d565b60405180910390f35b6102e960048036038101906102e491906107e1565b61059d565b005b6103056004803603810190610300919061083b565b610621565b604051610312919061097d565b60405180910390f35b610323610641565b8060028190555050565b610335610641565b8060018190555050565b60008060015483101561035557600190506104b2565b60015483101580156103745750600a60015461037191906109da565b83105b1561038257600a90506104b1565b600a60015461039191906109da565b83101580156103ad575060646001546103aa91906109da565b83105b156103bb57606490506104b0565b60646001546103ca91906109da565b83101580156103e757506103e86001546103e491906109da565b83105b156103f6576103e890506104af565b6103e860015461040691906109da565b8310158015610424575061271060015461042091906109da565b8311155b156104335761271090506104ae565b61271060015461044391906109da565b83101580156104625750620186a060015461045e91906109da565b8311155b1561047257620186a090506104ad565b6040517fd1d89b740000000000000000000000000000000000000000000000000000000081526004016104a49061095d565b60405180910390fd5b5b5b5b5b5b80915050919050565b60006104c8826024610621565b9050919050565b60006104dc826036610621565b9050919050565b6104eb610641565b6104f560006106bf565b565b60008060009054906101000a900473ffffffffffffffffffffffffffffffffffffffff16905090565b600061052c8383610621565b905092915050565b60006105408284610783565b905092915050565b6000610555826018610621565b9050919050565b600061056982601e610621565b9050919050565b60008060025483116105855760019050610594565b61059183600254610783565b90505b80915050919050565b6105a5610641565b600073ffffffffffffffffffffffffffffffffffffffff168173ffffffffffffffffffffffffffffffffffffffff161415610615576040517f08c379a000000000000000000000000000000000000000000000000000000000815260040161060c9061091d565b60405180910390fd5b61061e816106bf565b50565b6000606461062f8484610799565b61063991906109a9565b905092915050565b6106496107af565b73ffffffffffffffffffffffffffffffffffffffff166106676104f7565b73ffffffffffffffffffffffffffffffffffffffff16146106bd576040517f08c379a00000000000000000000000000000000000000000000000000000000081526004016106b49061093d565b60405180910390fd5b565b60008060009054906101000a900473ffffffffffffffffffffffffffffffffffffffff169050816000806101000a81548173ffffffffffffffffffffffffffffffffffffffff021916908373ffffffffffffffffffffffffffffffffffffffff1602179055508173ffffffffffffffffffffffffffffffffffffffff168173ffffffffffffffffffffffffffffffffffffffff167f8be0079c531659141344cd1fd0a4f28419497f9722a3daafe3b4186f6b6457e060405160405180910390a35050565b6000818361079191906109a9565b905092915050565b600081836107a791906109da565b905092915050565b600033905090565b6000813590506107c681610b9a565b92915050565b6000813590506107db81610bb1565b92915050565b6000602082840312156107f7576107f6610ace565b5b6000610805848285016107b7565b91505092915050565b60006020828403121561082457610823610ace565b5b6000610832848285016107cc565b91505092915050565b6000806040838503121561085257610851610ace565b5b6000610860858286016107cc565b9250506020610871858286016107cc565b9150509250929050565b61088481610a34565b82525050565b6000610897602683610998565b91506108a282610ad3565b604082019050919050565b60006108ba602083610998565b91506108c582610b22565b602082019050919050565b60006108dd602b83610998565b91506108e882610b4b565b604082019050919050565b6108fc81610a66565b82525050565b6000602082019050610917600083018461087b565b92915050565b600060208201905081810360008301526109368161088a565b9050919050565b60006020820190508181036000830152610956816108ad565b9050919050565b60006020820190508181036000830152610976816108d0565b9050919050565b600060208201905061099260008301846108f3565b92915050565b600082825260208201905092915050565b60006109b482610a66565b91506109bf83610a66565b9250826109cf576109ce610a9f565b5b828204905092915050565b60006109e582610a66565b91506109f083610a66565b9250817fffffffffffffffffffffffffffffffffffffffffffffffffffffffffffffffff0483118215151615610a2957610a28610a70565b5b828202905092915050565b6000610a3f82610a46565b9050919050565b600073ffffffffffffffffffffffffffffffffffffffff82169050919050565b6000819050919050565b7f4e487b7100000000000000000000000000000000000000000000000000000000600052601160045260246000fd5b7f4e487b7100000000000000000000000000000000000000000000000000000000600052601260045260246000fd5b600080fd5b7f4f776e61626c653a206e6577206f776e657220697320746865207a65726f206160008201527f6464726573730000000000000000000000000000000000000000000000000000602082015250565b7f4f776e61626c653a2063616c6c6572206973206e6f7420746865206f776e6572600082015250565b7f556e61626c6520746f2063616c63756c6174652c506c65617365207375626d6960008201527f7420612072657175657374000000000000000000000000000000000000000000602082015250565b610ba381610a34565b8114610bae57600080fd5b50565b610bba81610a66565b8114610bc557600080fd5b5056fea2646970667358221220fc6d6b3e677c2afd34acd7f461fb64793e5653dc7752606acc15fce8338c8a6164736f6c63430008070033",
			"opcodes": "PUSH1 0x80 PUSH1 0x40 MSTORE PUSH2 0x111 PUSH1 0x1 SSTORE PUSH1 0x3 PUSH1 0x2 SSTORE CALLVALUE DUP1 ISZERO PUSH2 0x1B JUMPI PUSH1 0x0 DUP1 REVERT JUMPDEST POP PUSH2 0x38 PUSH2 0x2D PUSH2 0x3D PUSH1 0x20 SHL PUSH1 0x20 SHR JUMP JUMPDEST PUSH2 0x45 PUSH1 0x20 SHL PUSH1 0x20 SHR JUMP JUMPDEST PUSH2 0x109 JUMP JUMPDEST PUSH1 0x0 CALLER SWAP1 POP SWAP1 JUMP JUMPDEST PUSH1 0x0 DUP1 PUSH1 0x0 SWAP1 SLOAD SWAP1 PUSH2 0x100 EXP SWAP1 DIV PUSH20 0xFFFFFFFFFFFFFFFFFFFFFFFFFFFFFFFFFFFFFFFF AND SWAP1 POP DUP2 PUSH1 0x0 DUP1 PUSH2 0x100 EXP DUP2 SLOAD DUP2 PUSH20 0xFFFFFFFFFFFFFFFFFFFFFFFFFFFFFFFFFFFFFFFF MUL NOT AND SWAP1 DUP4 PUSH20 0xFFFFFFFFFFFFFFFFFFFFFFFFFFFFFFFFFFFFFFFF AND MUL OR SWAP1 SSTORE POP DUP2 PUSH20 0xFFFFFFFFFFFFFFFFFFFFFFFFFFFFFFFFFFFFFFFF AND DUP2 PUSH20 0xFFFFFFFFFFFFFFFFFFFFFFFFFFFFFFFFFFFFFFFF AND PUSH32 0x8BE0079C531659141344CD1FD0A4F28419497F9722A3DAAFE3B4186F6B6457E0 PUSH1 0x40 MLOAD PUSH1 0x40 MLOAD DUP1 SWAP2 SUB SWAP1 LOG3 POP POP JUMP JUMPDEST PUSH2 0xBFE DUP1 PUSH2 0x118 PUSH1 0x0 CODECOPY PUSH1 0x0 RETURN INVALID PUSH1 0x80 PUSH1 0x40 MSTORE CALLVALUE DUP1 ISZERO PUSH2 0x10 JUMPI PUSH1 0x0 DUP1 REVERT JUMPDEST POP PUSH1 0x4 CALLDATASIZE LT PUSH2 0xEA JUMPI PUSH1 0x0 CALLDATALOAD PUSH1 0xE0 SHR DUP1 PUSH4 0x8F861BA7 GT PUSH2 0x8C JUMPI DUP1 PUSH4 0xA730941D GT PUSH2 0x66 JUMPI DUP1 PUSH4 0xA730941D EQ PUSH2 0x26F JUMPI DUP1 PUSH4 0xF2E60202 EQ PUSH2 0x29F JUMPI DUP1 PUSH4 0xF2FDE38B EQ PUSH2 0x2CF JUMPI DUP1 PUSH4 0xF74F3655 EQ PUSH2 0x2EB JUMPI PUSH2 0xEA JUMP JUMPDEST DUP1 PUSH4 0x8F861BA7 EQ PUSH2 0x1DF JUMPI DUP1 PUSH4 0x9CE5C4BF EQ PUSH2 0x20F JUMPI DUP1 PUSH4 0xA3CB7C55 EQ PUSH2 0x23F JUMPI PUSH2 0xEA JUMP JUMPDEST DUP1 PUSH4 0x5C830098 GT PUSH2 0xC8 JUMPI DUP1 PUSH4 0x5C830098 EQ PUSH2 0x157 JUMPI DUP1 PUSH4 0x6873E8D2 EQ PUSH2 0x187 JUMPI DUP1 PUSH4 0x715018A6 EQ PUSH2 0x1B7 JUMPI DUP1 PUSH4 0x8DA5CB5B EQ PUSH2 0x1C1 JUMPI PUSH2 0xEA JUMP JUMPDEST DUP1 PUSH4 0x31BFB377 EQ PUSH2 0xEF JUMPI DUP1 PUSH4 0x34FCF437 EQ PUSH2 0x10B JUMPI DUP1 PUSH4 0x4F6CA3CE EQ PUSH2 0x127 JUMPI JUMPDEST PUSH1 0x0 DUP1 REVERT JUMPDEST PUSH2 0x109 PUSH1 0x4 DUP1 CALLDATASIZE SUB DUP2 ADD SWAP1 PUSH2 0x104 SWAP2 SWAP1 PUSH2 0x80E JUMP JUMPDEST PUSH2 0x31B JUMP JUMPDEST STOP JUMPDEST PUSH2 0x125 PUSH1 0x4 DUP1 CALLDATASIZE SUB DUP2 ADD SWAP1 PUSH2 0x120 SWAP2 SWAP1 PUSH2 0x80E JUMP JUMPDEST PUSH2 0x32D JUMP JUMPDEST STOP JUMPDEST PUSH2 0x141 PUSH1 0x4 DUP1 CALLDATASIZE SUB DUP2 ADD SWAP1 PUSH2 0x13C SWAP2 SWAP1 PUSH2 0x80E JUMP JUMPDEST PUSH2 0x33F JUMP JUMPDEST PUSH1 0x40 MLOAD PUSH2 0x14E SWAP2 SWAP1 PUSH2 0x97D JUMP JUMPDEST PUSH1 0x40 MLOAD DUP1 SWAP2 SUB SWAP1 RETURN JUMPDEST PUSH2 0x171 PUSH1 0x4 DUP1 CALLDATASIZE SUB DUP2 ADD SWAP1 PUSH2 0x16C SWAP2 SWAP1 PUSH2 0x80E JUMP JUMPDEST PUSH2 0x4BB JUMP JUMPDEST PUSH1 0x40 MLOAD PUSH2 0x17E SWAP2 SWAP1 PUSH2 0x97D JUMP JUMPDEST PUSH1 0x40 MLOAD DUP1 SWAP2 SUB SWAP1 RETURN JUMPDEST PUSH2 0x1A1 PUSH1 0x4 DUP1 CALLDATASIZE SUB DUP2 ADD SWAP1 PUSH2 0x19C SWAP2 SWAP1 PUSH2 0x80E JUMP JUMPDEST PUSH2 0x4CF JUMP JUMPDEST PUSH1 0x40 MLOAD PUSH2 0x1AE SWAP2 SWAP1 PUSH2 0x97D JUMP JUMPDEST PUSH1 0x40 MLOAD DUP1 SWAP2 SUB SWAP1 RETURN JUMPDEST PUSH2 0x1BF PUSH2 0x4E3 JUMP JUMPDEST STOP JUMPDEST PUSH2 0x1C9 PUSH2 0x4F7 JUMP JUMPDEST PUSH1 0x40 MLOAD PUSH2 0x1D6 SWAP2 SWAP1 PUSH2 0x902 JUMP JUMPDEST PUSH1 0x40 MLOAD DUP1 SWAP2 SUB SWAP1 RETURN JUMPDEST PUSH2 0x1F9 PUSH1 0x4 DUP1 CALLDATASIZE SUB DUP2 ADD SWAP1 PUSH2 0x1F4 SWAP2 SWAP1 PUSH2 0x83B JUMP JUMPDEST PUSH2 0x520 JUMP JUMPDEST PUSH1 0x40 MLOAD PUSH2 0x206 SWAP2 SWAP1 PUSH2 0x97D JUMP JUMPDEST PUSH1 0x40 MLOAD DUP1 SWAP2 SUB SWAP1 RETURN JUMPDEST PUSH2 0x229 PUSH1 0x4 DUP1 CALLDATASIZE SUB DUP2 ADD SWAP1 PUSH2 0x224 SWAP2 SWAP1 PUSH2 0x83B JUMP JUMPDEST PUSH2 0x534 JUMP JUMPDEST PUSH1 0x40 MLOAD PUSH2 0x236 SWAP2 SWAP1 PUSH2 0x97D JUMP JUMPDEST PUSH1 0x40 MLOAD DUP1 SWAP2 SUB SWAP1 RETURN JUMPDEST PUSH2 0x259 PUSH1 0x4 DUP1 CALLDATASIZE SUB DUP2 ADD SWAP1 PUSH2 0x254 SWAP2 SWAP1 PUSH2 0x80E JUMP JUMPDEST PUSH2 0x548 JUMP JUMPDEST PUSH1 0x40 MLOAD PUSH2 0x266 SWAP2 SWAP1 PUSH2 0x97D JUMP JUMPDEST PUSH1 0x40 MLOAD DUP1 SWAP2 SUB SWAP1 RETURN JUMPDEST PUSH2 0x289 PUSH1 0x4 DUP1 CALLDATASIZE SUB DUP2 ADD SWAP1 PUSH2 0x284 SWAP2 SWAP1 PUSH2 0x80E JUMP JUMPDEST PUSH2 0x55C JUMP JUMPDEST PUSH1 0x40 MLOAD PUSH2 0x296 SWAP2 SWAP1 PUSH2 0x97D JUMP JUMPDEST PUSH1 0x40 MLOAD DUP1 SWAP2 SUB SWAP1 RETURN JUMPDEST PUSH2 0x2B9 PUSH1 0x4 DUP1 CALLDATASIZE SUB DUP2 ADD SWAP1 PUSH2 0x2B4 SWAP2 SWAP1 PUSH2 0x80E JUMP JUMPDEST PUSH2 0x570 JUMP JUMPDEST PUSH1 0x40 MLOAD PUSH2 0x2C6 SWAP2 SWAP1 PUSH2 0x97D JUMP JUMPDEST PUSH1 0x40 MLOAD DUP1 SWAP2 SUB SWAP1 RETURN JUMPDEST PUSH2 0x2E9 PUSH1 0x4 DUP1 CALLDATASIZE SUB DUP2 ADD SWAP1 PUSH2 0x2E4 SWAP2 SWAP1 PUSH2 0x7E1 JUMP JUMPDEST PUSH2 0x59D JUMP JUMPDEST STOP JUMPDEST PUSH2 0x305 PUSH1 0x4 DUP1 CALLDATASIZE SUB DUP2 ADD SWAP1 PUSH2 0x300 SWAP2 SWAP1 PUSH2 0x83B JUMP JUMPDEST PUSH2 0x621 JUMP JUMPDEST PUSH1 0x40 MLOAD PUSH2 0x312 SWAP2 SWAP1 PUSH2 0x97D JUMP JUMPDEST PUSH1 0x40 MLOAD DUP1 SWAP2 SUB SWAP1 RETURN JUMPDEST PUSH2 0x323 PUSH2 0x641 JUMP JUMPDEST DUP1 PUSH1 0x2 DUP2 SWAP1 SSTORE POP POP JUMP JUMPDEST PUSH2 0x335 PUSH2 0x641 JUMP JUMPDEST DUP1 PUSH1 0x1 DUP2 SWAP1 SSTORE POP POP JUMP JUMPDEST PUSH1 0x0 DUP1 PUSH1 0x1 SLOAD DUP4 LT ISZERO PUSH2 0x355 JUMPI PUSH1 0x1 SWAP1 POP PUSH2 0x4B2 JUMP JUMPDEST PUSH1 0x1 SLOAD DUP4 LT ISZERO DUP1 ISZERO PUSH2 0x374 JUMPI POP PUSH1 0xA PUSH1 0x1 SLOAD PUSH2 0x371 SWAP2 SWAP1 PUSH2 0x9DA JUMP JUMPDEST DUP4 LT JUMPDEST ISZERO PUSH2 0x382 JUMPI PUSH1 0xA SWAP1 POP PUSH2 0x4B1 JUMP JUMPDEST PUSH1 0xA PUSH1 0x1 SLOAD PUSH2 0x391 SWAP2 SWAP1 PUSH2 0x9DA JUMP JUMPDEST DUP4 LT ISZERO DUP1 ISZERO PUSH2 0x3AD JUMPI POP PUSH1 0x64 PUSH1 0x1 SLOAD PUSH2 0x3AA SWAP2 SWAP1 PUSH2 0x9DA JUMP JUMPDEST DUP4 LT JUMPDEST ISZERO PUSH2 0x3BB JUMPI PUSH1 0x64 SWAP1 POP PUSH2 0x4B0 JUMP JUMPDEST PUSH1 0x64 PUSH1 0x1 SLOAD PUSH2 0x3CA SWAP2 SWAP1 PUSH2 0x9DA JUMP JUMPDEST DUP4 LT ISZERO DUP1 ISZERO PUSH2 0x3E7 JUMPI POP PUSH2 0x3E8 PUSH1 0x1 SLOAD PUSH2 0x3E4 SWAP2 SWAP1 PUSH2 0x9DA JUMP JUMPDEST DUP4 LT JUMPDEST ISZERO PUSH2 0x3F6 JUMPI PUSH2 0x3E8 SWAP1 POP PUSH2 0x4AF JUMP JUMPDEST PUSH2 0x3E8 PUSH1 0x1 SLOAD PUSH2 0x406 SWAP2 SWAP1 PUSH2 0x9DA JUMP JUMPDEST DUP4 LT ISZERO DUP1 ISZERO PUSH2 0x424 JUMPI POP PUSH2 0x2710 PUSH1 0x1 SLOAD PUSH2 0x420 SWAP2 SWAP1 PUSH2 0x9DA JUMP JUMPDEST DUP4 GT ISZERO JUMPDEST ISZERO PUSH2 0x433 JUMPI PUSH2 0x2710 SWAP1 POP PUSH2 0x4AE JUMP JUMPDEST PUSH2 0x2710 PUSH1 0x1 SLOAD PUSH2 0x443 SWAP2 SWAP1 PUSH2 0x9DA JUMP JUMPDEST DUP4 LT ISZERO DUP1 ISZERO PUSH2 0x462 JUMPI POP PUSH3 0x186A0 PUSH1 0x1 SLOAD PUSH2 0x45E SWAP2 SWAP1 PUSH2 0x9DA JUMP JUMPDEST DUP4 GT ISZERO JUMPDEST ISZERO PUSH2 0x472 JUMPI PUSH3 0x186A0 SWAP1 POP PUSH2 0x4AD JUMP JUMPDEST PUSH1 0x40 MLOAD PUSH32 0xD1D89B7400000000000000000000000000000000000000000000000000000000 DUP2 MSTORE PUSH1 0x4 ADD PUSH2 0x4A4 SWAP1 PUSH2 0x95D JUMP JUMPDEST PUSH1 0x40 MLOAD DUP1 SWAP2 SUB SWAP1 REVERT JUMPDEST JUMPDEST JUMPDEST JUMPDEST JUMPDEST JUMPDEST DUP1 SWAP2 POP POP SWAP2 SWAP1 POP JUMP JUMPDEST PUSH1 0x0 PUSH2 0x4C8 DUP3 PUSH1 0x24 PUSH2 0x621 JUMP JUMPDEST SWAP1 POP SWAP2 SWAP1 POP JUMP JUMPDEST PUSH1 0x0 PUSH2 0x4DC DUP3 PUSH1 0x36 PUSH2 0x621 JUMP JUMPDEST SWAP1 POP SWAP2 SWAP1 POP JUMP JUMPDEST PUSH2 0x4EB PUSH2 0x641 JUMP JUMPDEST PUSH2 0x4F5 PUSH1 0x0 PUSH2 0x6BF JUMP JUMPDEST JUMP JUMPDEST PUSH1 0x0 DUP1 PUSH1 0x0 SWAP1 SLOAD SWAP1 PUSH2 0x100 EXP SWAP1 DIV PUSH20 0xFFFFFFFFFFFFFFFFFFFFFFFFFFFFFFFFFFFFFFFF AND SWAP1 POP SWAP1 JUMP JUMPDEST PUSH1 0x0 PUSH2 0x52C DUP4 DUP4 PUSH2 0x621 JUMP JUMPDEST SWAP1 POP SWAP3 SWAP2 POP POP JUMP JUMPDEST PUSH1 0x0 PUSH2 0x540 DUP3 DUP5 PUSH2 0x783 JUMP JUMPDEST SWAP1 POP SWAP3 SWAP2 POP POP JUMP JUMPDEST PUSH1 0x0 PUSH2 0x555 DUP3 PUSH1 0x18 PUSH2 0x621 JUMP JUMPDEST SWAP1 POP SWAP2 SWAP1 POP JUMP JUMPDEST PUSH1 0x0 PUSH2 0x569 DUP3 PUSH1 0x1E PUSH2 0x621 JUMP JUMPDEST SWAP1 POP SWAP2 SWAP1 POP JUMP JUMPDEST PUSH1 0x0 DUP1 PUSH1 0x2 SLOAD DUP4 GT PUSH2 0x585 JUMPI PUSH1 0x1 SWAP1 POP PUSH2 0x594 JUMP JUMPDEST PUSH2 0x591 DUP4 PUSH1 0x2 SLOAD PUSH2 0x783 JUMP JUMPDEST SWAP1 POP JUMPDEST DUP1 SWAP2 POP POP SWAP2 SWAP1 POP JUMP JUMPDEST PUSH2 0x5A5 PUSH2 0x641 JUMP JUMPDEST PUSH1 0x0 PUSH20 0xFFFFFFFFFFFFFFFFFFFFFFFFFFFFFFFFFFFFFFFF AND DUP2 PUSH20 0xFFFFFFFFFFFFFFFFFFFFFFFFFFFFFFFFFFFFFFFF AND EQ ISZERO PUSH2 0x615 JUMPI PUSH1 0x40 MLOAD PUSH32 0x8C379A000000000000000000000000000000000000000000000000000000000 DUP2 MSTORE PUSH1 0x4 ADD PUSH2 0x60C SWAP1 PUSH2 0x91D JUMP JUMPDEST PUSH1 0x40 MLOAD DUP1 SWAP2 SUB SWAP1 REVERT JUMPDEST PUSH2 0x61E DUP2 PUSH2 0x6BF JUMP JUMPDEST POP JUMP JUMPDEST PUSH1 0x0 PUSH1 0x64 PUSH2 0x62F DUP5 DUP5 PUSH2 0x799 JUMP JUMPDEST PUSH2 0x639 SWAP2 SWAP1 PUSH2 0x9A9 JUMP JUMPDEST SWAP1 POP SWAP3 SWAP2 POP POP JUMP JUMPDEST PUSH2 0x649 PUSH2 0x7AF JUMP JUMPDEST PUSH20 0xFFFFFFFFFFFFFFFFFFFFFFFFFFFFFFFFFFFFFFFF AND PUSH2 0x667 PUSH2 0x4F7 JUMP JUMPDEST PUSH20 0xFFFFFFFFFFFFFFFFFFFFFFFFFFFFFFFFFFFFFFFF AND EQ PUSH2 0x6BD JUMPI PUSH1 0x40 MLOAD PUSH32 0x8C379A000000000000000000000000000000000000000000000000000000000 DUP2 MSTORE PUSH1 0x4 ADD PUSH2 0x6B4 SWAP1 PUSH2 0x93D JUMP JUMPDEST PUSH1 0x40 MLOAD DUP1 SWAP2 SUB SWAP1 REVERT JUMPDEST JUMP JUMPDEST PUSH1 0x0 DUP1 PUSH1 0x0 SWAP1 SLOAD SWAP1 PUSH2 0x100 EXP SWAP1 DIV PUSH20 0xFFFFFFFFFFFFFFFFFFFFFFFFFFFFFFFFFFFFFFFF AND SWAP1 POP DUP2 PUSH1 0x0 DUP1 PUSH2 0x100 EXP DUP2 SLOAD DUP2 PUSH20 0xFFFFFFFFFFFFFFFFFFFFFFFFFFFFFFFFFFFFFFFF MUL NOT AND SWAP1 DUP4 PUSH20 0xFFFFFFFFFFFFFFFFFFFFFFFFFFFFFFFFFFFFFFFF AND MUL OR SWAP1 SSTORE POP DUP2 PUSH20 0xFFFFFFFFFFFFFFFFFFFFFFFFFFFFFFFFFFFFFFFF AND DUP2 PUSH20 0xFFFFFFFFFFFFFFFFFFFFFFFFFFFFFFFFFFFFFFFF AND PUSH32 0x8BE0079C531659141344CD1FD0A4F28419497F9722A3DAAFE3B4186F6B6457E0 PUSH1 0x40 MLOAD PUSH1 0x40 MLOAD DUP1 SWAP2 SUB SWAP1 LOG3 POP POP JUMP JUMPDEST PUSH1 0x0 DUP2 DUP4 PUSH2 0x791 SWAP2 SWAP1 PUSH2 0x9A9 JUMP JUMPDEST SWAP1 POP SWAP3 SWAP2 POP POP JUMP JUMPDEST PUSH1 0x0 DUP2 DUP4 PUSH2 0x7A7 SWAP2 SWAP1 PUSH2 0x9DA JUMP JUMPDEST SWAP1 POP SWAP3 SWAP2 POP POP JUMP JUMPDEST PUSH1 0x0 CALLER SWAP1 POP SWAP1 JUMP JUMPDEST PUSH1 0x0 DUP2 CALLDATALOAD SWAP1 POP PUSH2 0x7C6 DUP2 PUSH2 0xB9A JUMP JUMPDEST SWAP3 SWAP2 POP POP JUMP JUMPDEST PUSH1 0x0 DUP2 CALLDATALOAD SWAP1 POP PUSH2 0x7DB DUP2 PUSH2 0xBB1 JUMP JUMPDEST SWAP3 SWAP2 POP POP JUMP JUMPDEST PUSH1 0x0 PUSH1 0x20 DUP3 DUP5 SUB SLT ISZERO PUSH2 0x7F7 JUMPI PUSH2 0x7F6 PUSH2 0xACE JUMP JUMPDEST JUMPDEST PUSH1 0x0 PUSH2 0x805 DUP5 DUP3 DUP6 ADD PUSH2 0x7B7 JUMP JUMPDEST SWAP2 POP POP SWAP3 SWAP2 POP POP JUMP JUMPDEST PUSH1 0x0 PUSH1 0x20 DUP3 DUP5 SUB SLT ISZERO PUSH2 0x824 JUMPI PUSH2 0x823 PUSH2 0xACE JUMP JUMPDEST JUMPDEST PUSH1 0x0 PUSH2 0x832 DUP5 DUP3 DUP6 ADD PUSH2 0x7CC JUMP JUMPDEST SWAP2 POP POP SWAP3 SWAP2 POP POP JUMP JUMPDEST PUSH1 0x0 DUP1 PUSH1 0x40 DUP4 DUP6 SUB SLT ISZERO PUSH2 0x852 JUMPI PUSH2 0x851 PUSH2 0xACE JUMP JUMPDEST JUMPDEST PUSH1 0x0 PUSH2 0x860 DUP6 DUP3 DUP7 ADD PUSH2 0x7CC JUMP JUMPDEST SWAP3 POP POP PUSH1 0x20 PUSH2 0x871 DUP6 DUP3 DUP7 ADD PUSH2 0x7CC JUMP JUMPDEST SWAP2 POP POP SWAP3 POP SWAP3 SWAP1 POP JUMP JUMPDEST PUSH2 0x884 DUP2 PUSH2 0xA34 JUMP JUMPDEST DUP3 MSTORE POP POP JUMP JUMPDEST PUSH1 0x0 PUSH2 0x897 PUSH1 0x26 DUP4 PUSH2 0x998 JUMP JUMPDEST SWAP2 POP PUSH2 0x8A2 DUP3 PUSH2 0xAD3 JUMP JUMPDEST PUSH1 0x40 DUP3 ADD SWAP1 POP SWAP2 SWAP1 POP JUMP JUMPDEST PUSH1 0x0 PUSH2 0x8BA PUSH1 0x20 DUP4 PUSH2 0x998 JUMP JUMPDEST SWAP2 POP PUSH2 0x8C5 DUP3 PUSH2 0xB22 JUMP JUMPDEST PUSH1 0x20 DUP3 ADD SWAP1 POP SWAP2 SWAP1 POP JUMP JUMPDEST PUSH1 0x0 PUSH2 0x8DD PUSH1 0x2B DUP4 PUSH2 0x998 JUMP JUMPDEST SWAP2 POP PUSH2 0x8E8 DUP3 PUSH2 0xB4B JUMP JUMPDEST PUSH1 0x40 DUP3 ADD SWAP1 POP SWAP2 SWAP1 POP JUMP JUMPDEST PUSH2 0x8FC DUP2 PUSH2 0xA66 JUMP JUMPDEST DUP3 MSTORE POP POP JUMP JUMPDEST PUSH1 0x0 PUSH1 0x20 DUP3 ADD SWAP1 POP PUSH2 0x917 PUSH1 0x0 DUP4 ADD DUP5 PUSH2 0x87B JUMP JUMPDEST SWAP3 SWAP2 POP POP JUMP JUMPDEST PUSH1 0x0 PUSH1 0x20 DUP3 ADD SWAP1 POP DUP2 DUP2 SUB PUSH1 0x0 DUP4 ADD MSTORE PUSH2 0x936 DUP2 PUSH2 0x88A JUMP JUMPDEST SWAP1 POP SWAP2 SWAP1 POP JUMP JUMPDEST PUSH1 0x0 PUSH1 0x20 DUP3 ADD SWAP1 POP DUP2 DUP2 SUB PUSH1 0x0 DUP4 ADD MSTORE PUSH2 0x956 DUP2 PUSH2 0x8AD JUMP JUMPDEST SWAP1 POP SWAP2 SWAP1 POP JUMP JUMPDEST PUSH1 0x0 PUSH1 0x20 DUP3 ADD SWAP1 POP DUP2 DUP2 SUB PUSH1 0x0 DUP4 ADD MSTORE PUSH2 0x976 DUP2 PUSH2 0x8D0 JUMP JUMPDEST SWAP1 POP SWAP2 SWAP1 POP JUMP JUMPDEST PUSH1 0x0 PUSH1 0x20 DUP3 ADD SWAP1 POP PUSH2 0x992 PUSH1 0x0 DUP4 ADD DUP5 PUSH2 0x8F3 JUMP JUMPDEST SWAP3 SWAP2 POP POP JUMP JUMPDEST PUSH1 0x0 DUP3 DUP3 MSTORE PUSH1 0x20 DUP3 ADD SWAP1 POP SWAP3 SWAP2 POP POP JUMP JUMPDEST PUSH1 0x0 PUSH2 0x9B4 DUP3 PUSH2 0xA66 JUMP JUMPDEST SWAP2 POP PUSH2 0x9BF DUP4 PUSH2 0xA66 JUMP JUMPDEST SWAP3 POP DUP3 PUSH2 0x9CF JUMPI PUSH2 0x9CE PUSH2 0xA9F JUMP JUMPDEST JUMPDEST DUP3 DUP3 DIV SWAP1 POP SWAP3 SWAP2 POP POP JUMP JUMPDEST PUSH1 0x0 PUSH2 0x9E5 DUP3 PUSH2 0xA66 JUMP JUMPDEST SWAP2 POP PUSH2 0x9F0 DUP4 PUSH2 0xA66 JUMP JUMPDEST SWAP3 POP DUP2 PUSH32 0xFFFFFFFFFFFFFFFFFFFFFFFFFFFFFFFFFFFFFFFFFFFFFFFFFFFFFFFFFFFFFFFF DIV DUP4 GT DUP3 ISZERO ISZERO AND ISZERO PUSH2 0xA29 JUMPI PUSH2 0xA28 PUSH2 0xA70 JUMP JUMPDEST JUMPDEST DUP3 DUP3 MUL SWAP1 POP SWAP3 SWAP2 POP POP JUMP JUMPDEST PUSH1 0x0 PUSH2 0xA3F DUP3 PUSH2 0xA46 JUMP JUMPDEST SWAP1 POP SWAP2 SWAP1 POP JUMP JUMPDEST PUSH1 0x0 PUSH20 0xFFFFFFFFFFFFFFFFFFFFFFFFFFFFFFFFFFFFFFFF DUP3 AND SWAP1 POP SWAP2 SWAP1 POP JUMP JUMPDEST PUSH1 0x0 DUP2 SWAP1 POP SWAP2 SWAP1 POP JUMP JUMPDEST PUSH32 0x4E487B7100000000000000000000000000000000000000000000000000000000 PUSH1 0x0 MSTORE PUSH1 0x11 PUSH1 0x4 MSTORE PUSH1 0x24 PUSH1 0x0 REVERT JUMPDEST PUSH32 0x4E487B7100000000000000000000000000000000000000000000000000000000 PUSH1 0x0 MSTORE PUSH1 0x12 PUSH1 0x4 MSTORE PUSH1 0x24 PUSH1 0x0 REVERT JUMPDEST PUSH1 0x0 DUP1 REVERT JUMPDEST PUSH32 0x4F776E61626C653A206E6577206F776E657220697320746865207A65726F2061 PUSH1 0x0 DUP3 ADD MSTORE PUSH32 0x6464726573730000000000000000000000000000000000000000000000000000 PUSH1 0x20 DUP3 ADD MSTORE POP JUMP JUMPDEST PUSH32 0x4F776E61626C653A2063616C6C6572206973206E6F7420746865206F776E6572 PUSH1 0x0 DUP3 ADD MSTORE POP JUMP JUMPDEST PUSH32 0x556E61626C6520746F2063616C63756C6174652C506C65617365207375626D69 PUSH1 0x0 DUP3 ADD MSTORE PUSH32 0x7420612072657175657374000000000000000000000000000000000000000000 PUSH1 0x20 DUP3 ADD MSTORE POP JUMP JUMPDEST PUSH2 0xBA3 DUP2 PUSH2 0xA34 JUMP JUMPDEST DUP2 EQ PUSH2 0xBAE JUMPI PUSH1 0x0 DUP1 REVERT JUMPDEST POP JUMP JUMPDEST PUSH2 0xBBA DUP2 PUSH2 0xA66 JUMP JUMPDEST DUP2 EQ PUSH2 0xBC5 JUMPI PUSH1 0x0 DUP1 REVERT JUMPDEST POP JUMP INVALID LOG2 PUSH5 0x6970667358 0x22 SLT KECCAK256 0xFC PUSH14 0x6B3E677C2AFD34ACD7F461FB6479 RETURNDATACOPY JUMP MSTORE8 0xDC PUSH24 0x52606ACC15FCE8338C8A6164736F6C634300080700330000 "
		},
		"gasEstimates": {
			"creation": {
				"codeDepositCost": "614000",
				"executionCost": "infinite",
				"totalCost": "infinite"
			},
			"external": {
				"getDeductMoney(uint256,uint256)": "infinite",
				"getMatNumber(uint256)": "infinite",
				"getPercentage(uint256,uint256)": "infinite",
				"getPunish(uint256,uint256)": "infinite",
				"getTaskTrans(uint256)": "infinite",
				"getTaskTransEnd(uint256)": "infinite",
				"getTaskTransFirst(uint256)": "infinite",
				"getTaskVf(uint256)": "infinite",
				"owner()": "2611",
				"punishRatio(uint256)": "infinite",
				"renounceOwnership()": "30465",
				"setRate(uint256)": "24830",
				"setvfN(uint256)": "24808",
				"transferOwnership(address)": "30813"
			}
		},
		"methodIdentifiers": {
			"getDeductMoney(uint256,uint256)": "8f861ba7",
			"getMatNumber(uint256)": "f2e60202",
			"getPercentage(uint256,uint256)": "f74f3655",
			"getPunish(uint256,uint256)": "9ce5c4bf",
			"getTaskTrans(uint256)": "6873e8d2",
			"getTaskTransEnd(uint256)": "a3cb7c55",
			"getTaskTransFirst(uint256)": "a730941d",
			"getTaskVf(uint256)": "5c830098",
			"owner()": "8da5cb5b",
			"punishRatio(uint256)": "4f6ca3ce",
			"renounceOwnership()": "715018a6",
			"setRate(uint256)": "34fcf437",
			"setvfN(uint256)": "31bfb377",
			"transferOwnership(address)": "f2fde38b"
		}
	},
	"abi": [
		{
			"inputs": [
				{
					"internalType": "string",
					"name": "",
					"type": "string"
				}
			],
			"name": "ParameterException",
			"type": "error"
		},
		{
			"anonymous": false,
			"inputs": [
				{
					"indexed": true,
					"internalType": "address",
					"name": "previousOwner",
					"type": "address"
				},
				{
					"indexed": true,
					"internalType": "address",
					"name": "newOwner",
					"type": "address"
				}
			],
			"name": "OwnershipTransferred",
			"type": "event"
		},
		{
			"inputs": [
				{
					"internalType": "uint256",
					"name": "_bounty",
					"type": "uint256"
				},
				{
					"internalType": "uint256",
					"name": "_deduct",
					"type": "uint256"
				}
			],
			"name": "getDeductMoney",
			"outputs": [
				{
					"internalType": "uint256",
					"name": "",
					"type": "uint256"
				}
			],
			"stateMutability": "pure",
			"type": "function"
		},
		{
			"inputs": [
				{
					"internalType": "uint256",
					"name": "_transNumber",
					"type": "uint256"
				}
			],
			"name": "getMatNumber",
			"outputs": [
				{
					"internalType": "uint256",
					"name": "",
					"type": "uint256"
				}
			],
			"stateMutability": "view",
			"type": "function"
		},
		{
			"inputs": [
				{
					"internalType": "uint256",
					"name": "_number",
					"type": "uint256"
				},
				{
					"internalType": "uint256",
					"name": "_ratio",
					"type": "uint256"
				}
			],
			"name": "getPercentage",
			"outputs": [
				{
					"internalType": "uint256",
					"name": "returnNumber",
					"type": "uint256"
				}
			],
			"stateMutability": "pure",
			"type": "function"
		},
		{
			"inputs": [
				{
					"internalType": "uint256",
					"name": "_ratio",
					"type": "uint256"
				},
				{
					"internalType": "uint256",
					"name": "_bounty",
					"type": "uint256"
				}
			],
			"name": "getPunish",
			"outputs": [
				{
					"internalType": "uint256",
					"name": "",
					"type": "uint256"
				}
			],
			"stateMutability": "pure",
			"type": "function"
		},
		{
			"inputs": [
				{
					"internalType": "uint256",
					"name": "_bounty",
					"type": "uint256"
				}
			],
			"name": "getTaskTrans",
			"outputs": [
				{
					"internalType": "uint256",
					"name": "_money",
					"type": "uint256"
				}
			],
			"stateMutability": "pure",
			"type": "function"
		},
		{
			"inputs": [
				{
					"internalType": "uint256",
					"name": "_bounty",
					"type": "uint256"
				}
			],
			"name": "getTaskTransEnd",
			"outputs": [
				{
					"internalType": "uint256",
					"name": "_money",
					"type": "uint256"
				}
			],
			"stateMutability": "pure",
			"type": "function"
		},
		{
			"inputs": [
				{
					"internalType": "uint256",
					"name": "_bounty",
					"type": "uint256"
				}
			],
			"name": "getTaskTransFirst",
			"outputs": [
				{
					"internalType": "uint256",
					"name": "_money",
					"type": "uint256"
				}
			],
			"stateMutability": "pure",
			"type": "function"
		},
		{
			"inputs": [
				{
					"internalType": "uint256",
					"name": "_bounty",
					"type": "uint256"
				}
			],
			"name": "getTaskVf",
			"outputs": [
				{
					"internalType": "uint256",
					"name": "_money",
					"type": "uint256"
				}
			],
			"stateMutability": "pure",
			"type": "function"
		},
		{
			"inputs": [],
			"name": "owner",
			"outputs": [
				{
					"internalType": "address",
					"name": "",
					"type": "address"
				}
			],
			"stateMutability": "view",
			"type": "function"
		},
		{
			"inputs": [
				{
					"internalType": "uint256",
					"name": "_bounts",
					"type": "uint256"
				}
			],
			"name": "punishRatio",
			"outputs": [
				{
					"internalType": "uint256",
					"name": "",
					"type": "uint256"
				}
			],
			"stateMutability": "view",
			"type": "function"
		},
		{
			"inputs": [],
			"name": "renounceOwnership",
			"outputs": [],
			"stateMutability": "nonpayable",
			"type": "function"
		},
		{
			"inputs": [
				{
					"internalType": "uint256",
					"name": "_rate",
					"type": "uint256"
				}
			],
			"name": "setRate",
			"outputs": [],
			"stateMutability": "nonpayable",
			"type": "function"
		},
		{
			"inputs": [
				{
					"internalType": "uint256",
					"name": "_vfN",
					"type": "uint256"
				}
			],
			"name": "setvfN",
			"outputs": [],
			"stateMutability": "nonpayable",
			"type": "function"
		},
		{
			"inputs": [
				{
					"internalType": "address",
					"name": "newOwner",
					"type": "address"
				}
			],
			"name": "transferOwnership",
			"outputs": [],
			"stateMutability": "nonpayable",
			"type": "function"
		}
	]
}