{
	"data": {
		"bytecode": {
			"linkReferences": {},
			"object": "6080604052610111600155600360025534801561001b57600080fd5b506100253361002a565b61007a565b600080546001600160a01b038381166001600160a01b0319831681178455604051919092169283917f8be0079c531659141344cd1fd0a4f28419497f9722a3daafe3b4186f6b6457e09190a35050565b61076d806100896000396000f3fe608060405234801561001057600080fd5b50600436106100ea5760003560e01c80638f861ba71161008c578063a730941d11610066578063a730941d146101cc578063f2e60202146101df578063f2fde38b146101f2578063f74f36551461020557600080fd5b80638f861ba7146101935780639ce5c4bf146101a6578063a3cb7c55146101b957600080fd5b80635c830098116100c85780635c8300981461013d5780636873e8d214610150578063715018a6146101635780638da5cb5b1461016b57600080fd5b806331bfb377146100ef57806334fcf437146101045780634f6ca3ce14610117575b600080fd5b6101026100fd36600461064d565b610218565b005b61010261011236600461064d565b610225565b61012a61012536600461064d565b610232565b6040519081526020015b60405180910390f35b61012a61014b36600461064d565b6103e9565b61012a61015e36600461064d565b6103f6565b610102610403565b60005460405173ffffffffffffffffffffffffffffffffffffffff9091168152602001610134565b61012a6101a1366004610666565b610417565b61012a6101b4366004610666565b61042a565b61012a6101c736600461064d565b610436565b61012a6101da36600461064d565b610443565b61012a6101ed36600461064d565b610450565b610102610200366004610688565b610470565b61012a610213366004610666565b610527565b61022061053f565b600255565b61022d61053f565b600155565b600080600154831015610247575060016103e3565b6001548310158015610265575060015461026290600a6106be565b83105b156102725750600a6103e3565b60015461028090600a6106be565b831015801561029b57506001546102989060646106be565b83105b156102a8575060646103e3565b6001546102b69060646106be565b83101580156102d257506001546102cf906103e86106be565b83105b156102e057506103e86103e3565b6001546102ef906103e86106be565b831015801561030c5750600154610308906127106106be565b8311155b1561031a57506127106103e3565b600154610329906127106106be565b8310158015610347575060015461034390620186a06106be565b8311155b156103565750620186a06103e3565b6040517fd1d89b7400000000000000000000000000000000000000000000000000000000815260206004820152602b60248201527f556e61626c6520746f2063616c63756c6174652c506c65617365207375626d6960448201527f742061207265717565737400000000000000000000000000000000000000000060648201526084015b60405180910390fd5b92915050565b60006103e3826024610527565b60006103e3826036610527565b61040b61053f565b61041560006105c0565b565b60006104238383610527565b9392505050565b60006104238284610635565b60006103e3826018610527565b60006103e382601e610527565b6000806002548311610464575060016103e3565b61042383600254610635565b61047861053f565b73ffffffffffffffffffffffffffffffffffffffff811661051b576040517f08c379a000000000000000000000000000000000000000000000000000000000815260206004820152602660248201527f4f776e61626c653a206e6577206f776e657220697320746865207a65726f206160448201527f646472657373000000000000000000000000000000000000000000000000000060648201526084016103da565b610524816105c0565b50565b600060646105358484610641565b61042391906106fc565b60005473ffffffffffffffffffffffffffffffffffffffff163314610415576040517f08c379a000000000000000000000000000000000000000000000000000000000815260206004820181905260248201527f4f776e61626c653a2063616c6c6572206973206e6f7420746865206f776e657260448201526064016103da565b6000805473ffffffffffffffffffffffffffffffffffffffff8381167fffffffffffffffffffffffff0000000000000000000000000000000000000000831681178455604051919092169283917f8be0079c531659141344cd1fd0a4f28419497f9722a3daafe3b4186f6b6457e09190a35050565b600061042382846106fc565b600061042382846106be565b60006020828403121561065f57600080fd5b5035919050565b6000806040838503121561067957600080fd5b50508035926020909101359150565b60006020828403121561069a57600080fd5b813573ffffffffffffffffffffffffffffffffffffffff8116811461042357600080fd5b80820281158282048414176103e3577f4e487b7100000000000000000000000000000000000000000000000000000000600052601160045260246000fd5b600082610732577f4e487b7100000000000000000000000000000000000000000000000000000000600052601260045260246000fd5b50049056fea2646970667358221220d5aecd0758cbd3b51168c62c2b33a1c66afa7eb7276b14ade62234c5d2cb7e3264736f6c63430008110033",
			"opcodes": "PUSH1 0x80 PUSH1 0x40 MSTORE PUSH2 0x111 PUSH1 0x1 SSTORE PUSH1 0x3 PUSH1 0x2 SSTORE CALLVALUE DUP1 ISZERO PUSH2 0x1B JUMPI PUSH1 0x0 DUP1 REVERT JUMPDEST POP PUSH2 0x25 CALLER PUSH2 0x2A JUMP JUMPDEST PUSH2 0x7A JUMP JUMPDEST PUSH1 0x0 DUP1 SLOAD PUSH1 0x1 PUSH1 0x1 PUSH1 0xA0 SHL SUB DUP4 DUP2 AND PUSH1 0x1 PUSH1 0x1 PUSH1 0xA0 SHL SUB NOT DUP4 AND DUP2 OR DUP5 SSTORE PUSH1 0x40 MLOAD SWAP2 SWAP1 SWAP3 AND SWAP3 DUP4 SWAP2 PUSH32 0x8BE0079C531659141344CD1FD0A4F28419497F9722A3DAAFE3B4186F6B6457E0 SWAP2 SWAP1 LOG3 POP POP JUMP JUMPDEST PUSH2 0x76D DUP1 PUSH2 0x89 PUSH1 0x0 CODECOPY PUSH1 0x0 RETURN INVALID PUSH1 0x80 PUSH1 0x40 MSTORE CALLVALUE DUP1 ISZERO PUSH2 0x10 JUMPI PUSH1 0x0 DUP1 REVERT JUMPDEST POP PUSH1 0x4 CALLDATASIZE LT PUSH2 0xEA JUMPI PUSH1 0x0 CALLDATALOAD PUSH1 0xE0 SHR DUP1 PUSH4 0x8F861BA7 GT PUSH2 0x8C JUMPI DUP1 PUSH4 0xA730941D GT PUSH2 0x66 JUMPI DUP1 PUSH4 0xA730941D EQ PUSH2 0x1CC JUMPI DUP1 PUSH4 0xF2E60202 EQ PUSH2 0x1DF JUMPI DUP1 PUSH4 0xF2FDE38B EQ PUSH2 0x1F2 JUMPI DUP1 PUSH4 0xF74F3655 EQ PUSH2 0x205 JUMPI PUSH1 0x0 DUP1 REVERT JUMPDEST DUP1 PUSH4 0x8F861BA7 EQ PUSH2 0x193 JUMPI DUP1 PUSH4 0x9CE5C4BF EQ PUSH2 0x1A6 JUMPI DUP1 PUSH4 0xA3CB7C55 EQ PUSH2 0x1B9 JUMPI PUSH1 0x0 DUP1 REVERT JUMPDEST DUP1 PUSH4 0x5C830098 GT PUSH2 0xC8 JUMPI DUP1 PUSH4 0x5C830098 EQ PUSH2 0x13D JUMPI DUP1 PUSH4 0x6873E8D2 EQ PUSH2 0x150 JUMPI DUP1 PUSH4 0x715018A6 EQ PUSH2 0x163 JUMPI DUP1 PUSH4 0x8DA5CB5B EQ PUSH2 0x16B JUMPI PUSH1 0x0 DUP1 REVERT JUMPDEST DUP1 PUSH4 0x31BFB377 EQ PUSH2 0xEF JUMPI DUP1 PUSH4 0x34FCF437 EQ PUSH2 0x104 JUMPI DUP1 PUSH4 0x4F6CA3CE EQ PUSH2 0x117 JUMPI JUMPDEST PUSH1 0x0 DUP1 REVERT JUMPDEST PUSH2 0x102 PUSH2 0xFD CALLDATASIZE PUSH1 0x4 PUSH2 0x64D JUMP JUMPDEST PUSH2 0x218 JUMP JUMPDEST STOP JUMPDEST PUSH2 0x102 PUSH2 0x112 CALLDATASIZE PUSH1 0x4 PUSH2 0x64D JUMP JUMPDEST PUSH2 0x225 JUMP JUMPDEST PUSH2 0x12A PUSH2 0x125 CALLDATASIZE PUSH1 0x4 PUSH2 0x64D JUMP JUMPDEST PUSH2 0x232 JUMP JUMPDEST PUSH1 0x40 MLOAD SWAP1 DUP2 MSTORE PUSH1 0x20 ADD JUMPDEST PUSH1 0x40 MLOAD DUP1 SWAP2 SUB SWAP1 RETURN JUMPDEST PUSH2 0x12A PUSH2 0x14B CALLDATASIZE PUSH1 0x4 PUSH2 0x64D JUMP JUMPDEST PUSH2 0x3E9 JUMP JUMPDEST PUSH2 0x12A PUSH2 0x15E CALLDATASIZE PUSH1 0x4 PUSH2 0x64D JUMP JUMPDEST PUSH2 0x3F6 JUMP JUMPDEST PUSH2 0x102 PUSH2 0x403 JUMP JUMPDEST PUSH1 0x0 SLOAD PUSH1 0x40 MLOAD PUSH20 0xFFFFFFFFFFFFFFFFFFFFFFFFFFFFFFFFFFFFFFFF SWAP1 SWAP2 AND DUP2 MSTORE PUSH1 0x20 ADD PUSH2 0x134 JUMP JUMPDEST PUSH2 0x12A PUSH2 0x1A1 CALLDATASIZE PUSH1 0x4 PUSH2 0x666 JUMP JUMPDEST PUSH2 0x417 JUMP JUMPDEST PUSH2 0x12A PUSH2 0x1B4 CALLDATASIZE PUSH1 0x4 PUSH2 0x666 JUMP JUMPDEST PUSH2 0x42A JUMP JUMPDEST PUSH2 0x12A PUSH2 0x1C7 CALLDATASIZE PUSH1 0x4 PUSH2 0x64D JUMP JUMPDEST PUSH2 0x436 JUMP JUMPDEST PUSH2 0x12A PUSH2 0x1DA CALLDATASIZE PUSH1 0x4 PUSH2 0x64D JUMP JUMPDEST PUSH2 0x443 JUMP JUMPDEST PUSH2 0x12A PUSH2 0x1ED CALLDATASIZE PUSH1 0x4 PUSH2 0x64D JUMP JUMPDEST PUSH2 0x450 JUMP JUMPDEST PUSH2 0x102 PUSH2 0x200 CALLDATASIZE PUSH1 0x4 PUSH2 0x688 JUMP JUMPDEST PUSH2 0x470 JUMP JUMPDEST PUSH2 0x12A PUSH2 0x213 CALLDATASIZE PUSH1 0x4 PUSH2 0x666 JUMP JUMPDEST PUSH2 0x527 JUMP JUMPDEST PUSH2 0x220 PUSH2 0x53F JUMP JUMPDEST PUSH1 0x2 SSTORE JUMP JUMPDEST PUSH2 0x22D PUSH2 0x53F JUMP JUMPDEST PUSH1 0x1 SSTORE JUMP JUMPDEST PUSH1 0x0 DUP1 PUSH1 0x1 SLOAD DUP4 LT ISZERO PUSH2 0x247 JUMPI POP PUSH1 0x1 PUSH2 0x3E3 JUMP JUMPDEST PUSH1 0x1 SLOAD DUP4 LT ISZERO DUP1 ISZERO PUSH2 0x265 JUMPI POP PUSH1 0x1 SLOAD PUSH2 0x262 SWAP1 PUSH1 0xA PUSH2 0x6BE JUMP JUMPDEST DUP4 LT JUMPDEST ISZERO PUSH2 0x272 JUMPI POP PUSH1 0xA PUSH2 0x3E3 JUMP JUMPDEST PUSH1 0x1 SLOAD PUSH2 0x280 SWAP1 PUSH1 0xA PUSH2 0x6BE JUMP JUMPDEST DUP4 LT ISZERO DUP1 ISZERO PUSH2 0x29B JUMPI POP PUSH1 0x1 SLOAD PUSH2 0x298 SWAP1 PUSH1 0x64 PUSH2 0x6BE JUMP JUMPDEST DUP4 LT JUMPDEST ISZERO PUSH2 0x2A8 JUMPI POP PUSH1 0x64 PUSH2 0x3E3 JUMP JUMPDEST PUSH1 0x1 SLOAD PUSH2 0x2B6 SWAP1 PUSH1 0x64 PUSH2 0x6BE JUMP JUMPDEST DUP4 LT ISZERO DUP1 ISZERO PUSH2 0x2D2 JUMPI POP PUSH1 0x1 SLOAD PUSH2 0x2CF SWAP1 PUSH2 0x3E8 PUSH2 0x6BE JUMP JUMPDEST DUP4 LT JUMPDEST ISZERO PUSH2 0x2E0 JUMPI POP PUSH2 0x3E8 PUSH2 0x3E3 JUMP JUMPDEST PUSH1 0x1 SLOAD PUSH2 0x2EF SWAP1 PUSH2 0x3E8 PUSH2 0x6BE JUMP JUMPDEST DUP4 LT ISZERO DUP1 ISZERO PUSH2 0x30C JUMPI POP PUSH1 0x1 SLOAD PUSH2 0x308 SWAP1 PUSH2 0x2710 PUSH2 0x6BE JUMP JUMPDEST DUP4 GT ISZERO JUMPDEST ISZERO PUSH2 0x31A JUMPI POP PUSH2 0x2710 PUSH2 0x3E3 JUMP JUMPDEST PUSH1 0x1 SLOAD PUSH2 0x329 SWAP1 PUSH2 0x2710 PUSH2 0x6BE JUMP JUMPDEST DUP4 LT ISZERO DUP1 ISZERO PUSH2 0x347 JUMPI POP PUSH1 0x1 SLOAD PUSH2 0x343 SWAP1 PUSH3 0x186A0 PUSH2 0x6BE JUMP JUMPDEST DUP4 GT ISZERO JUMPDEST ISZERO PUSH2 0x356 JUMPI POP PUSH3 0x186A0 PUSH2 0x3E3 JUMP JUMPDEST PUSH1 0x40 MLOAD PUSH32 0xD1D89B7400000000000000000000000000000000000000000000000000000000 DUP2 MSTORE PUSH1 0x20 PUSH1 0x4 DUP3 ADD MSTORE PUSH1 0x2B PUSH1 0x24 DUP3 ADD MSTORE PUSH32 0x556E61626C6520746F2063616C63756C6174652C506C65617365207375626D69 PUSH1 0x44 DUP3 ADD MSTORE PUSH32 0x7420612072657175657374000000000000000000000000000000000000000000 PUSH1 0x64 DUP3 ADD MSTORE PUSH1 0x84 ADD JUMPDEST PUSH1 0x40 MLOAD DUP1 SWAP2 SUB SWAP1 REVERT JUMPDEST SWAP3 SWAP2 POP POP JUMP JUMPDEST PUSH1 0x0 PUSH2 0x3E3 DUP3 PUSH1 0x24 PUSH2 0x527 JUMP JUMPDEST PUSH1 0x0 PUSH2 0x3E3 DUP3 PUSH1 0x36 PUSH2 0x527 JUMP JUMPDEST PUSH2 0x40B PUSH2 0x53F JUMP JUMPDEST PUSH2 0x415 PUSH1 0x0 PUSH2 0x5C0 JUMP JUMPDEST JUMP JUMPDEST PUSH1 0x0 PUSH2 0x423 DUP4 DUP4 PUSH2 0x527 JUMP JUMPDEST SWAP4 SWAP3 POP POP POP JUMP JUMPDEST PUSH1 0x0 PUSH2 0x423 DUP3 DUP5 PUSH2 0x635 JUMP JUMPDEST PUSH1 0x0 PUSH2 0x3E3 DUP3 PUSH1 0x18 PUSH2 0x527 JUMP JUMPDEST PUSH1 0x0 PUSH2 0x3E3 DUP3 PUSH1 0x1E PUSH2 0x527 JUMP JUMPDEST PUSH1 0x0 DUP1 PUSH1 0x2 SLOAD DUP4 GT PUSH2 0x464 JUMPI POP PUSH1 0x1 PUSH2 0x3E3 JUMP JUMPDEST PUSH2 0x423 DUP4 PUSH1 0x2 SLOAD PUSH2 0x635 JUMP JUMPDEST PUSH2 0x478 PUSH2 0x53F JUMP JUMPDEST PUSH20 0xFFFFFFFFFFFFFFFFFFFFFFFFFFFFFFFFFFFFFFFF DUP2 AND PUSH2 0x51B JUMPI PUSH1 0x40 MLOAD PUSH32 0x8C379A000000000000000000000000000000000000000000000000000000000 DUP2 MSTORE PUSH1 0x20 PUSH1 0x4 DUP3 ADD MSTORE PUSH1 0x26 PUSH1 0x24 DUP3 ADD MSTORE PUSH32 0x4F776E61626C653A206E6577206F776E657220697320746865207A65726F2061 PUSH1 0x44 DUP3 ADD MSTORE PUSH32 0x6464726573730000000000000000000000000000000000000000000000000000 PUSH1 0x64 DUP3 ADD MSTORE PUSH1 0x84 ADD PUSH2 0x3DA JUMP JUMPDEST PUSH2 0x524 DUP2 PUSH2 0x5C0 JUMP JUMPDEST POP JUMP JUMPDEST PUSH1 0x0 PUSH1 0x64 PUSH2 0x535 DUP5 DUP5 PUSH2 0x641 JUMP JUMPDEST PUSH2 0x423 SWAP2 SWAP1 PUSH2 0x6FC JUMP JUMPDEST PUSH1 0x0 SLOAD PUSH20 0xFFFFFFFFFFFFFFFFFFFFFFFFFFFFFFFFFFFFFFFF AND CALLER EQ PUSH2 0x415 JUMPI PUSH1 0x40 MLOAD PUSH32 0x8C379A000000000000000000000000000000000000000000000000000000000 DUP2 MSTORE PUSH1 0x20 PUSH1 0x4 DUP3 ADD DUP2 SWAP1 MSTORE PUSH1 0x24 DUP3 ADD MSTORE PUSH32 0x4F776E61626C653A2063616C6C6572206973206E6F7420746865206F776E6572 PUSH1 0x44 DUP3 ADD MSTORE PUSH1 0x64 ADD PUSH2 0x3DA JUMP JUMPDEST PUSH1 0x0 DUP1 SLOAD PUSH20 0xFFFFFFFFFFFFFFFFFFFFFFFFFFFFFFFFFFFFFFFF DUP4 DUP2 AND PUSH32 0xFFFFFFFFFFFFFFFFFFFFFFFF0000000000000000000000000000000000000000 DUP4 AND DUP2 OR DUP5 SSTORE PUSH1 0x40 MLOAD SWAP2 SWAP1 SWAP3 AND SWAP3 DUP4 SWAP2 PUSH32 0x8BE0079C531659141344CD1FD0A4F28419497F9722A3DAAFE3B4186F6B6457E0 SWAP2 SWAP1 LOG3 POP POP JUMP JUMPDEST PUSH1 0x0 PUSH2 0x423 DUP3 DUP5 PUSH2 0x6FC JUMP JUMPDEST PUSH1 0x0 PUSH2 0x423 DUP3 DUP5 PUSH2 0x6BE JUMP JUMPDEST PUSH1 0x0 PUSH1 0x20 DUP3 DUP5 SUB SLT ISZERO PUSH2 0x65F JUMPI PUSH1 0x0 DUP1 REVERT JUMPDEST POP CALLDATALOAD SWAP2 SWAP1 POP JUMP JUMPDEST PUSH1 0x0 DUP1 PUSH1 0x40 DUP4 DUP6 SUB SLT ISZERO PUSH2 0x679 JUMPI PUSH1 0x0 DUP1 REVERT JUMPDEST POP POP DUP1 CALLDATALOAD SWAP3 PUSH1 0x20 SWAP1 SWAP2 ADD CALLDATALOAD SWAP2 POP JUMP JUMPDEST PUSH1 0x0 PUSH1 0x20 DUP3 DUP5 SUB SLT ISZERO PUSH2 0x69A JUMPI PUSH1 0x0 DUP1 REVERT JUMPDEST DUP2 CALLDATALOAD PUSH20 0xFFFFFFFFFFFFFFFFFFFFFFFFFFFFFFFFFFFFFFFF DUP2 AND DUP2 EQ PUSH2 0x423 JUMPI PUSH1 0x0 DUP1 REVERT JUMPDEST DUP1 DUP3 MUL DUP2 ISZERO DUP3 DUP3 DIV DUP5 EQ OR PUSH2 0x3E3 JUMPI PUSH32 0x4E487B7100000000000000000000000000000000000000000000000000000000 PUSH1 0x0 MSTORE PUSH1 0x11 PUSH1 0x4 MSTORE PUSH1 0x24 PUSH1 0x0 REVERT JUMPDEST PUSH1 0x0 DUP3 PUSH2 0x732 JUMPI PUSH32 0x4E487B7100000000000000000000000000000000000000000000000000000000 PUSH1 0x0 MSTORE PUSH1 0x12 PUSH1 0x4 MSTORE PUSH1 0x24 PUSH1 0x0 REVERT JUMPDEST POP DIV SWAP1 JUMP INVALID LOG2 PUSH5 0x6970667358 0x22 SLT KECCAK256 0xD5 0xAE 0xCD SMOD PC 0xCB 0xD3 0xB5 GT PUSH9 0xC62C2B33A1C66AFA7E 0xB7 0x27 PUSH12 0x14ADE62234C5D2CB7E326473 PUSH16 0x6C634300081100330000000000000000 "
		},
		"gasEstimates": {
			"creation": {
				"codeDepositCost": "380200",
				"executionCost": "70471",
				"totalCost": "450671"
			},
			"external": {
				"getDeductMoney(uint256,uint256)": "infinite",
				"getMatNumber(uint256)": "infinite",
				"getPercentage(uint256,uint256)": "infinite",
				"getPunish(uint256,uint256)": "infinite",
				"getTaskTrans(uint256)": "infinite",
				"getTaskTransEnd(uint256)": "infinite",
				"getTaskTransFirst(uint256)": "infinite",
				"getTaskVf(uint256)": "infinite",
				"owner()": "2378",
				"punishRatio(uint256)": "infinite",
				"renounceOwnership()": "infinite",
				"setRate(uint256)": "24522",
				"setvfN(uint256)": "24500",
				"transferOwnership(address)": "28301"
			}
		},
		"methodIdentifiers": {
			"getDeductMoney(uint256,uint256)": "8f861ba7",
			"getMatNumber(uint256)": "f2e60202",
			"getPercentage(uint256,uint256)": "f74f3655",
			"getPunish(uint256,uint256)": "9ce5c4bf",
			"getTaskTrans(uint256)": "6873e8d2",
			"getTaskTransEnd(uint256)": "a3cb7c55",
			"getTaskTransFirst(uint256)": "a730941d",
			"getTaskVf(uint256)": "5c830098",
			"owner()": "8da5cb5b",
			"punishRatio(uint256)": "4f6ca3ce",
			"renounceOwnership()": "715018a6",
			"setRate(uint256)": "34fcf437",
			"setvfN(uint256)": "31bfb377",
			"transferOwnership(address)": "f2fde38b"
		}
	},
	"abi": [
		{
			"inputs": [
				{
					"internalType": "string",
					"name": "",
					"type": "string"
				}
			],
			"name": "ParameterException",
			"type": "error"
		},
		{
			"anonymous": false,
			"inputs": [
				{
					"indexed": true,
					"internalType": "address",
					"name": "previousOwner",
					"type": "address"
				},
				{
					"indexed": true,
					"internalType": "address",
					"name": "newOwner",
					"type": "address"
				}
			],
			"name": "OwnershipTransferred",
			"type": "event"
		},
		{
			"inputs": [
				{
					"internalType": "uint256",
					"name": "_bounty",
					"type": "uint256"
				},
				{
					"internalType": "uint256",
					"name": "_deduct",
					"type": "uint256"
				}
			],
			"name": "getDeductMoney",
			"outputs": [
				{
					"internalType": "uint256",
					"name": "",
					"type": "uint256"
				}
			],
			"stateMutability": "pure",
			"type": "function"
		},
		{
			"inputs": [
				{
					"internalType": "uint256",
					"name": "_transNumber",
					"type": "uint256"
				}
			],
			"name": "getMatNumber",
			"outputs": [
				{
					"internalType": "uint256",
					"name": "",
					"type": "uint256"
				}
			],
			"stateMutability": "view",
			"type": "function"
		},
		{
			"inputs": [
				{
					"internalType": "uint256",
					"name": "_number",
					"type": "uint256"
				},
				{
					"internalType": "uint256",
					"name": "_ratio",
					"type": "uint256"
				}
			],
			"name": "getPercentage",
			"outputs": [
				{
					"internalType": "uint256",
					"name": "returnNumber",
					"type": "uint256"
				}
			],
			"stateMutability": "pure",
			"type": "function"
		},
		{
			"inputs": [
				{
					"internalType": "uint256",
					"name": "_ratio",
					"type": "uint256"
				},
				{
					"internalType": "uint256",
					"name": "_bounty",
					"type": "uint256"
				}
			],
			"name": "getPunish",
			"outputs": [
				{
					"internalType": "uint256",
					"name": "",
					"type": "uint256"
				}
			],
			"stateMutability": "pure",
			"type": "function"
		},
		{
			"inputs": [
				{
					"internalType": "uint256",
					"name": "_bounty",
					"type": "uint256"
				}
			],
			"name": "getTaskTrans",
			"outputs": [
				{
					"internalType": "uint256",
					"name": "_money",
					"type": "uint256"
				}
			],
			"stateMutability": "pure",
			"type": "function"
		},
		{
			"inputs": [
				{
					"internalType": "uint256",
					"name": "_bounty",
					"type": "uint256"
				}
			],
			"name": "getTaskTransEnd",
			"outputs": [
				{
					"internalType": "uint256",
					"name": "_money",
					"type": "uint256"
				}
			],
			"stateMutability": "pure",
			"type": "function"
		},
		{
			"inputs": [
				{
					"internalType": "uint256",
					"name": "_bounty",
					"type": "uint256"
				}
			],
			"name": "getTaskTransFirst",
			"outputs": [
				{
					"internalType": "uint256",
					"name": "_money",
					"type": "uint256"
				}
			],
			"stateMutability": "pure",
			"type": "function"
		},
		{
			"inputs": [
				{
					"internalType": "uint256",
					"name": "_bounty",
					"type": "uint256"
				}
			],
			"name": "getTaskVf",
			"outputs": [
				{
					"internalType": "uint256",
					"name": "_money",
					"type": "uint256"
				}
			],
			"stateMutability": "pure",
			"type": "function"
		},
		{
			"inputs": [],
			"name": "owner",
			"outputs": [
				{
					"internalType": "address",
					"name": "",
					"type": "address"
				}
			],
			"stateMutability": "view",
			"type": "function"
		},
		{
			"inputs": [
				{
					"internalType": "uint256",
					"name": "_bounts",
					"type": "uint256"
				}
			],
			"name": "punishRatio",
			"outputs": [
				{
					"internalType": "uint256",
					"name": "",
					"type": "uint256"
				}
			],
			"stateMutability": "view",
			"type": "function"
		},
		{
			"inputs": [],
			"name": "renounceOwnership",
			"outputs": [],
			"stateMutability": "nonpayable",
			"type": "function"
		},
		{
			"inputs": [
				{
					"internalType": "uint256",
					"name": "_rate",
					"type": "uint256"
				}
			],
			"name": "setRate",
			"outputs": [],
			"stateMutability": "nonpayable",
			"type": "function"
		},
		{
			"inputs": [
				{
					"internalType": "uint256",
					"name": "_vfN",
					"type": "uint256"
				}
			],
			"name": "setvfN",
			"outputs": [],
			"stateMutability": "nonpayable",
			"type": "function"
		},
		{
			"inputs": [
				{
					"internalType": "address",
					"name": "newOwner",
					"type": "address"
				}
			],
			"name": "transferOwnership",
			"outputs": [],
			"stateMutability": "nonpayable",
			"type": "function"
		}
	]
}