{
	"data": {
		"bytecode": {
			"linkReferences": {},
			"object": "608060405234801561001057600080fd5b506103e8806100206000396000f3fe608060405234801561001057600080fd5b50600436106100885760003560e01c8063a16eb4d31161005b578063a16eb4d3146100eb578063ab2acba4146100fe578063f2e6020214610111578063f74f36551461012457600080fd5b80634f6ca3ce1461008d5780638e4b0bbd146100b25780638f861ba7146100c55780639ce5c4bf146100d8575b600080fd5b6100a061009b366004610328565b610137565b60405190815260200160405180910390f35b6100a06100c0366004610328565b6102ac565b6100a06100d3366004610341565b6102b9565b6100a06100e6366004610341565b6102cc565b6100a06100f9366004610328565b6102d8565b6100a061010c366004610328565b6102e5565b6100a061011f366004610328565b6102f2565b6100a0610132366004610341565b610310565b600080606483101561014b575060016102a6565b6064831015801561016657506101636064600a610385565b83105b156101735750600a6102a6565b61017f6064600a610385565b83101580156101975750610194606480610385565b83105b156101a4575060646102a6565b6101af606480610385565b83101580156101c957506101c660646103e8610385565b83105b156101d757506103e86102a6565b6101e460646103e8610385565b83101580156101ff57506101fb6064612710610385565b8311155b1561020d57506127106102a6565b61021a6064612710610385565b831015801561023657506102326064620186a0610385565b8311155b156102455750620186a06102a6565b60405163347626dd60e21b815260206004820152602b60248201527f556e61626c6520746f2063616c63756c6174652c506c65617365207375626d6960448201526a1d0818481c995c5d595cdd60aa1b606482015260840160405180910390fd5b92915050565b60006102a6826028610310565b60006102c58383610310565b9392505050565b60006102c58383610363565b60006102a682600a610310565b60006102a682603c610310565b60008060038311610305575060016102a6565b6102c5600384610363565b6000606461031e8385610385565b6102c59190610363565b60006020828403121561033a57600080fd5b5035919050565b6000806040838503121561035457600080fd5b50508035926020909101359150565b60008261038057634e487b7160e01b600052601260045260246000fd5b500490565b60008160001904831182151516156103ad57634e487b7160e01b600052601160045260246000fd5b50029056fea264697066735822122001800bb6510249dbf8c592d58527a30fdace7407526c90ca8f7601750050072b64736f6c63430008070033",
			"opcodes": "PUSH1 0x80 PUSH1 0x40 MSTORE CALLVALUE DUP1 ISZERO PUSH2 0x10 JUMPI PUSH1 0x0 DUP1 REVERT JUMPDEST POP PUSH2 0x3E8 DUP1 PUSH2 0x20 PUSH1 0x0 CODECOPY PUSH1 0x0 RETURN INVALID PUSH1 0x80 PUSH1 0x40 MSTORE CALLVALUE DUP1 ISZERO PUSH2 0x10 JUMPI PUSH1 0x0 DUP1 REVERT JUMPDEST POP PUSH1 0x4 CALLDATASIZE LT PUSH2 0x88 JUMPI PUSH1 0x0 CALLDATALOAD PUSH1 0xE0 SHR DUP1 PUSH4 0xA16EB4D3 GT PUSH2 0x5B JUMPI DUP1 PUSH4 0xA16EB4D3 EQ PUSH2 0xEB JUMPI DUP1 PUSH4 0xAB2ACBA4 EQ PUSH2 0xFE JUMPI DUP1 PUSH4 0xF2E60202 EQ PUSH2 0x111 JUMPI DUP1 PUSH4 0xF74F3655 EQ PUSH2 0x124 JUMPI PUSH1 0x0 DUP1 REVERT JUMPDEST DUP1 PUSH4 0x4F6CA3CE EQ PUSH2 0x8D JUMPI DUP1 PUSH4 0x8E4B0BBD EQ PUSH2 0xB2 JUMPI DUP1 PUSH4 0x8F861BA7 EQ PUSH2 0xC5 JUMPI DUP1 PUSH4 0x9CE5C4BF EQ PUSH2 0xD8 JUMPI JUMPDEST PUSH1 0x0 DUP1 REVERT JUMPDEST PUSH2 0xA0 PUSH2 0x9B CALLDATASIZE PUSH1 0x4 PUSH2 0x328 JUMP JUMPDEST PUSH2 0x137 JUMP JUMPDEST PUSH1 0x40 MLOAD SWAP1 DUP2 MSTORE PUSH1 0x20 ADD PUSH1 0x40 MLOAD DUP1 SWAP2 SUB SWAP1 RETURN JUMPDEST PUSH2 0xA0 PUSH2 0xC0 CALLDATASIZE PUSH1 0x4 PUSH2 0x328 JUMP JUMPDEST PUSH2 0x2AC JUMP JUMPDEST PUSH2 0xA0 PUSH2 0xD3 CALLDATASIZE PUSH1 0x4 PUSH2 0x341 JUMP JUMPDEST PUSH2 0x2B9 JUMP JUMPDEST PUSH2 0xA0 PUSH2 0xE6 CALLDATASIZE PUSH1 0x4 PUSH2 0x341 JUMP JUMPDEST PUSH2 0x2CC JUMP JUMPDEST PUSH2 0xA0 PUSH2 0xF9 CALLDATASIZE PUSH1 0x4 PUSH2 0x328 JUMP JUMPDEST PUSH2 0x2D8 JUMP JUMPDEST PUSH2 0xA0 PUSH2 0x10C CALLDATASIZE PUSH1 0x4 PUSH2 0x328 JUMP JUMPDEST PUSH2 0x2E5 JUMP JUMPDEST PUSH2 0xA0 PUSH2 0x11F CALLDATASIZE PUSH1 0x4 PUSH2 0x328 JUMP JUMPDEST PUSH2 0x2F2 JUMP JUMPDEST PUSH2 0xA0 PUSH2 0x132 CALLDATASIZE PUSH1 0x4 PUSH2 0x341 JUMP JUMPDEST PUSH2 0x310 JUMP JUMPDEST PUSH1 0x0 DUP1 PUSH1 0x64 DUP4 LT ISZERO PUSH2 0x14B JUMPI POP PUSH1 0x1 PUSH2 0x2A6 JUMP JUMPDEST PUSH1 0x64 DUP4 LT ISZERO DUP1 ISZERO PUSH2 0x166 JUMPI POP PUSH2 0x163 PUSH1 0x64 PUSH1 0xA PUSH2 0x385 JUMP JUMPDEST DUP4 LT JUMPDEST ISZERO PUSH2 0x173 JUMPI POP PUSH1 0xA PUSH2 0x2A6 JUMP JUMPDEST PUSH2 0x17F PUSH1 0x64 PUSH1 0xA PUSH2 0x385 JUMP JUMPDEST DUP4 LT ISZERO DUP1 ISZERO PUSH2 0x197 JUMPI POP PUSH2 0x194 PUSH1 0x64 DUP1 PUSH2 0x385 JUMP JUMPDEST DUP4 LT JUMPDEST ISZERO PUSH2 0x1A4 JUMPI POP PUSH1 0x64 PUSH2 0x2A6 JUMP JUMPDEST PUSH2 0x1AF PUSH1 0x64 DUP1 PUSH2 0x385 JUMP JUMPDEST DUP4 LT ISZERO DUP1 ISZERO PUSH2 0x1C9 JUMPI POP PUSH2 0x1C6 PUSH1 0x64 PUSH2 0x3E8 PUSH2 0x385 JUMP JUMPDEST DUP4 LT JUMPDEST ISZERO PUSH2 0x1D7 JUMPI POP PUSH2 0x3E8 PUSH2 0x2A6 JUMP JUMPDEST PUSH2 0x1E4 PUSH1 0x64 PUSH2 0x3E8 PUSH2 0x385 JUMP JUMPDEST DUP4 LT ISZERO DUP1 ISZERO PUSH2 0x1FF JUMPI POP PUSH2 0x1FB PUSH1 0x64 PUSH2 0x2710 PUSH2 0x385 JUMP JUMPDEST DUP4 GT ISZERO JUMPDEST ISZERO PUSH2 0x20D JUMPI POP PUSH2 0x2710 PUSH2 0x2A6 JUMP JUMPDEST PUSH2 0x21A PUSH1 0x64 PUSH2 0x2710 PUSH2 0x385 JUMP JUMPDEST DUP4 LT ISZERO DUP1 ISZERO PUSH2 0x236 JUMPI POP PUSH2 0x232 PUSH1 0x64 PUSH3 0x186A0 PUSH2 0x385 JUMP JUMPDEST DUP4 GT ISZERO JUMPDEST ISZERO PUSH2 0x245 JUMPI POP PUSH3 0x186A0 PUSH2 0x2A6 JUMP JUMPDEST PUSH1 0x40 MLOAD PUSH4 0x347626DD PUSH1 0xE2 SHL DUP2 MSTORE PUSH1 0x20 PUSH1 0x4 DUP3 ADD MSTORE PUSH1 0x2B PUSH1 0x24 DUP3 ADD MSTORE PUSH32 0x556E61626C6520746F2063616C63756C6174652C506C65617365207375626D69 PUSH1 0x44 DUP3 ADD MSTORE PUSH11 0x1D0818481C995C5D595CDD PUSH1 0xAA SHL PUSH1 0x64 DUP3 ADD MSTORE PUSH1 0x84 ADD PUSH1 0x40 MLOAD DUP1 SWAP2 SUB SWAP1 REVERT JUMPDEST SWAP3 SWAP2 POP POP JUMP JUMPDEST PUSH1 0x0 PUSH2 0x2A6 DUP3 PUSH1 0x28 PUSH2 0x310 JUMP JUMPDEST PUSH1 0x0 PUSH2 0x2C5 DUP4 DUP4 PUSH2 0x310 JUMP JUMPDEST SWAP4 SWAP3 POP POP POP JUMP JUMPDEST PUSH1 0x0 PUSH2 0x2C5 DUP4 DUP4 PUSH2 0x363 JUMP JUMPDEST PUSH1 0x0 PUSH2 0x2A6 DUP3 PUSH1 0xA PUSH2 0x310 JUMP JUMPDEST PUSH1 0x0 PUSH2 0x2A6 DUP3 PUSH1 0x3C PUSH2 0x310 JUMP JUMPDEST PUSH1 0x0 DUP1 PUSH1 0x3 DUP4 GT PUSH2 0x305 JUMPI POP PUSH1 0x1 PUSH2 0x2A6 JUMP JUMPDEST PUSH2 0x2C5 PUSH1 0x3 DUP5 PUSH2 0x363 JUMP JUMPDEST PUSH1 0x0 PUSH1 0x64 PUSH2 0x31E DUP4 DUP6 PUSH2 0x385 JUMP JUMPDEST PUSH2 0x2C5 SWAP2 SWAP1 PUSH2 0x363 JUMP JUMPDEST PUSH1 0x0 PUSH1 0x20 DUP3 DUP5 SUB SLT ISZERO PUSH2 0x33A JUMPI PUSH1 0x0 DUP1 REVERT JUMPDEST POP CALLDATALOAD SWAP2 SWAP1 POP JUMP JUMPDEST PUSH1 0x0 DUP1 PUSH1 0x40 DUP4 DUP6 SUB SLT ISZERO PUSH2 0x354 JUMPI PUSH1 0x0 DUP1 REVERT JUMPDEST POP POP DUP1 CALLDATALOAD SWAP3 PUSH1 0x20 SWAP1 SWAP2 ADD CALLDATALOAD SWAP2 POP JUMP JUMPDEST PUSH1 0x0 DUP3 PUSH2 0x380 JUMPI PUSH4 0x4E487B71 PUSH1 0xE0 SHL PUSH1 0x0 MSTORE PUSH1 0x12 PUSH1 0x4 MSTORE PUSH1 0x24 PUSH1 0x0 REVERT JUMPDEST POP DIV SWAP1 JUMP JUMPDEST PUSH1 0x0 DUP2 PUSH1 0x0 NOT DIV DUP4 GT DUP3 ISZERO ISZERO AND ISZERO PUSH2 0x3AD JUMPI PUSH4 0x4E487B71 PUSH1 0xE0 SHL PUSH1 0x0 MSTORE PUSH1 0x11 PUSH1 0x4 MSTORE PUSH1 0x24 PUSH1 0x0 REVERT JUMPDEST POP MUL SWAP1 JUMP INVALID LOG2 PUSH5 0x6970667358 0x22 SLT KECCAK256 ADD DUP1 SIGNEXTEND 0xB6 MLOAD MUL 0x49 0xDB 0xF8 0xC5 SWAP3 0xD5 DUP6 0x27 LOG3 0xF 0xDA 0xCE PUSH21 0x7526C90CA8F7601750050072B64736F6C63430008 SMOD STOP CALLER "
		},
		"gasEstimates": {
			"creation": {
				"codeDepositCost": "200000",
				"executionCost": "245",
				"totalCost": "200245"
			},
			"external": {
				"getBountyForAmphi(uint256)": "479",
				"getBountyForTrans(uint256)": "501",
				"getBountyForVf(uint256)": "502",
				"getDeductMoney(uint256,uint256)": "infinite",
				"getMatNumber(uint256)": "411",
				"getPercentage(uint256,uint256)": "525",
				"getPunish(uint256,uint256)": "431",
				"punishRatio(uint256)": "infinite"
			}
		},
		"methodIdentifiers": {
			"getBountyForAmphi(uint256)": "a16eb4d3",
			"getBountyForTrans(uint256)": "ab2acba4",
			"getBountyForVf(uint256)": "8e4b0bbd",
			"getDeductMoney(uint256,uint256)": "8f861ba7",
			"getMatNumber(uint256)": "f2e60202",
			"getPercentage(uint256,uint256)": "f74f3655",
			"getPunish(uint256,uint256)": "9ce5c4bf",
			"punishRatio(uint256)": "4f6ca3ce"
		}
	},
	"abi": [
		{
			"inputs": [
				{
					"internalType": "string",
					"name": "",
					"type": "string"
				}
			],
			"name": "ParameterException",
			"type": "error"
		},
		{
			"inputs": [
				{
					"internalType": "uint256",
					"name": "_bounty",
					"type": "uint256"
				}
			],
			"name": "getBountyForAmphi",
			"outputs": [
				{
					"internalType": "uint256",
					"name": "_money",
					"type": "uint256"
				}
			],
			"stateMutability": "pure",
			"type": "function"
		},
		{
			"inputs": [
				{
					"internalType": "uint256",
					"name": "_bounty",
					"type": "uint256"
				}
			],
			"name": "getBountyForTrans",
			"outputs": [
				{
					"internalType": "uint256",
					"name": "_money",
					"type": "uint256"
				}
			],
			"stateMutability": "pure",
			"type": "function"
		},
		{
			"inputs": [
				{
					"internalType": "uint256",
					"name": "_bounty",
					"type": "uint256"
				}
			],
			"name": "getBountyForVf",
			"outputs": [
				{
					"internalType": "uint256",
					"name": "_money",
					"type": "uint256"
				}
			],
			"stateMutability": "pure",
			"type": "function"
		},
		{
			"inputs": [
				{
					"internalType": "uint256",
					"name": "_bounty",
					"type": "uint256"
				},
				{
					"internalType": "uint256",
					"name": "_deduct",
					"type": "uint256"
				}
			],
			"name": "getDeductMoney",
			"outputs": [
				{
					"internalType": "uint256",
					"name": "",
					"type": "uint256"
				}
			],
			"stateMutability": "pure",
			"type": "function"
		},
		{
			"inputs": [
				{
					"internalType": "uint256",
					"name": "_transNumber",
					"type": "uint256"
				}
			],
			"name": "getMatNumber",
			"outputs": [
				{
					"internalType": "uint256",
					"name": "",
					"type": "uint256"
				}
			],
			"stateMutability": "pure",
			"type": "function"
		},
		{
			"inputs": [
				{
					"internalType": "uint256",
					"name": "_number",
					"type": "uint256"
				},
				{
					"internalType": "uint256",
					"name": "_ratio",
					"type": "uint256"
				}
			],
			"name": "getPercentage",
			"outputs": [
				{
					"internalType": "uint256",
					"name": "returnNumber",
					"type": "uint256"
				}
			],
			"stateMutability": "pure",
			"type": "function"
		},
		{
			"inputs": [
				{
					"internalType": "uint256",
					"name": "_ratio",
					"type": "uint256"
				},
				{
					"internalType": "uint256",
					"name": "_bounty",
					"type": "uint256"
				}
			],
			"name": "getPunish",
			"outputs": [
				{
					"internalType": "uint256",
					"name": "",
					"type": "uint256"
				}
			],
			"stateMutability": "pure",
			"type": "function"
		},
		{
			"inputs": [
				{
					"internalType": "uint256",
					"name": "_bounts",
					"type": "uint256"
				}
			],
			"name": "punishRatio",
			"outputs": [
				{
					"internalType": "uint256",
					"name": "",
					"type": "uint256"
				}
			],
			"stateMutability": "pure",
			"type": "function"
		}
	]
}