{
	"data": {
		"bytecode": {
			"linkReferences": {},
			"object": "608060405234801561001057600080fd5b5060b48061001f6000396000f3fe6080604052348015600f57600080fd5b506004361060285760003560e01c806371dd626b14602d575b600080fd5b60336035565b005b3373ffffffffffffffffffffffffffffffffffffffff166108fc60019081150290604051600060405180830381858888f19350505050158015607b573d6000803e3d6000fd5b5056fea26469706673582212208cde594361322b03321e2b91cee4f4d47015289079bd27968008a07a657e308464736f6c63430008070033",
			"opcodes": "PUSH1 0x80 PUSH1 0x40 MSTORE CALLVALUE DUP1 ISZERO PUSH2 0x10 JUMPI PUSH1 0x0 DUP1 REVERT JUMPDEST POP PUSH1 0xB4 DUP1 PUSH2 0x1F PUSH1 0x0 CODECOPY PUSH1 0x0 RETURN INVALID PUSH1 0x80 PUSH1 0x40 MSTORE CALLVALUE DUP1 ISZERO PUSH1 0xF JUMPI PUSH1 0x0 DUP1 REVERT JUMPDEST POP PUSH1 0x4 CALLDATASIZE LT PUSH1 0x28 JUMPI PUSH1 0x0 CALLDATALOAD PUSH1 0xE0 SHR DUP1 PUSH4 0x71DD626B EQ PUSH1 0x2D JUMPI JUMPDEST PUSH1 0x0 DUP1 REVERT JUMPDEST PUSH1 0x33 PUSH1 0x35 JUMP JUMPDEST STOP JUMPDEST CALLER PUSH20 0xFFFFFFFFFFFFFFFFFFFFFFFFFFFFFFFFFFFFFFFF AND PUSH2 0x8FC PUSH1 0x1 SWAP1 DUP2 ISZERO MUL SWAP1 PUSH1 0x40 MLOAD PUSH1 0x0 PUSH1 0x40 MLOAD DUP1 DUP4 SUB DUP2 DUP6 DUP9 DUP9 CALL SWAP4 POP POP POP POP ISZERO DUP1 ISZERO PUSH1 0x7B JUMPI RETURNDATASIZE PUSH1 0x0 DUP1 RETURNDATACOPY RETURNDATASIZE PUSH1 0x0 REVERT JUMPDEST POP JUMP INVALID LOG2 PUSH5 0x6970667358 0x22 SLT KECCAK256 DUP13 0xDE MSIZE NUMBER PUSH2 0x322B SUB ORIGIN 0x1E 0x2B SWAP2 0xCE 0xE4 DELEGATECALL 0xD4 PUSH17 0x15289079BD27968008A07A657E30846473 PUSH16 0x6C634300080700330000000000000000 "
		},
		"gasEstimates": {
			"creation": {
				"codeDepositCost": "36000",
				"executionCost": "87",
				"totalCost": "36087"
			},
			"external": {
				"testA()": "infinite"
			}
		},
		"methodIdentifiers": {
			"testA()": "71dd626b"
		}
	},
	"abi": [
		{
			"inputs": [],
			"name": "testA",
			"outputs": [],
			"stateMutability": "nonpayable",
			"type": "function"
		}
	]
}