{
	"data": {
		"bytecode": {
			"linkReferences": {},
			"object": "60806040523480156200001157600080fd5b506040516200247038038062002470833981810160405281019062000037919062000095565b806000806101000a81548173ffffffffffffffffffffffffffffffffffffffff021916908373ffffffffffffffffffffffffffffffffffffffff160217905550506200011a565b6000815190506200008f8162000100565b92915050565b600060208284031215620000ae57620000ad620000fb565b5b6000620000be848285016200007e565b91505092915050565b6000620000d482620000db565b9050919050565b600073ffffffffffffffffffffffffffffffffffffffff82169050919050565b600080fd5b6200010b81620000c7565b81146200011757600080fd5b50565b612346806200012a6000396000f3fe608060405234801561001057600080fd5b506004361061004c5760003560e01c806315704ff414610051578063361e4705146100815780638adc74a51461009d5780639d55097e146100b9575b600080fd5b61006b600480360381019061006691906116f9565b6100d5565b6040516100789190611d1a565b60405180910390f35b61009b600480360381019061009691906117e5565b6100e7565b005b6100b760048036038101906100b2919061178b565b61017d565b005b6100d360048036038101906100ce91906117e5565b61018a565b005b60006100e082610220565b9050919050565b60008054906101000a900473ffffffffffffffffffffffffffffffffffffffff1673ffffffffffffffffffffffffffffffffffffffff16639ec44abc848484336040518563ffffffff1660e01b81526004016101469493929190611d35565b600060405180830381600087803b15801561016057600080fd5b505af1158015610174573d6000803e3d6000fd5b50505050505050565b610186816103cc565b5050565b60008054906101000a900473ffffffffffffffffffffffffffffffffffffffff1673ffffffffffffffffffffffffffffffffffffffff1663a7788567848484336040518563ffffffff1660e01b81526004016101e99493929190611d35565b600060405180830381600087803b15801561020357600080fd5b505af1158015610217573d6000803e3d6000fd5b50505050505050565b60008082610140015161024a576001836101a00181815250506001836101c0018181525050610314565b82610180015151836101a001818152505060008054906101000a900473ffffffffffffffffffffffffffffffffffffffff1673ffffffffffffffffffffffffffffffffffffffff1663f2e60202846101a001516040518263ffffffff1660e01b81526004016102b99190611d1a565b60206040518083038186803b1580156102d157600080fd5b505afa1580156102e5573d6000803e3d6000fd5b505050506040513d601f19601f8201168201806040525081019061030991906117b8565b836101c00181815250505b60008054906101000a900473ffffffffffffffffffffffffffffffffffffffff1673ffffffffffffffffffffffffffffffffffffffff1663c57294e233856040518363ffffffff1660e01b815260040161036f929190611cea565b602060405180830381600087803b15801561038957600080fd5b505af115801561039d573d6000803e3d6000fd5b505050506040513d601f19601f820116820180604052508101906103c191906117b8565b905080915050919050565b60008060008054906101000a900473ffffffffffffffffffffffffffffffffffffffff1673ffffffffffffffffffffffffffffffffffffffff1663f0f3f2c8846040518263ffffffff1660e01b81526004016104289190611d1a565b60006040518083038186803b15801561044057600080fd5b505afa158015610454573d6000803e3d6000fd5b505050506040513d6000823e3d601f19601f8201168201806040525081019061047d9190611742565b90506000816101c0015190506000826101a00151905060008054906101000a900473ffffffffffffffffffffffffffffffffffffffff1673ffffffffffffffffffffffffffffffffffffffff16638a9a9ff38660016040518363ffffffff1660e01b81526004016104ef929190611d81565b60206040518083038186803b15801561050757600080fd5b505afa15801561051b573d6000803e3d6000fd5b505050506040513d601f19601f8201168201806040525081019061053f91906116cc565b156105505760019350505050610817565b60008251141561067f5760008054906101000a900473ffffffffffffffffffffffffffffffffffffffff1673ffffffffffffffffffffffffffffffffffffffff1663ffbafdfe8660036040518363ffffffff1660e01b81526004016105b6929190611daa565b600060405180830381600087803b1580156105d057600080fd5b505af11580156105e4573d6000803e3d6000fd5b5050505060008054906101000a900473ffffffffffffffffffffffffffffffffffffffff1673ffffffffffffffffffffffffffffffffffffffff1663ea60f28c866040518263ffffffff1660e01b81526004016106419190611d1a565b600060405180830381600087803b15801561065b57600080fd5b505af115801561066f573d6000803e3d6000fd5b5050505060009350505050610817565b6000836101a001515190506000835190506000818361069e9190611fe5565b905060005b845181101561080b57600060068111156106c0576106bf6121c2565b5b8582815181106106d3576106d26121f1565b5b60200260200101516040015160068111156106f1576106f06121c2565b5b14156107f85760005b86518110156107f65782878281518110610717576107166121f1565b5b60200260200101516020015151111561072f576107e3565b60008054906101000a900473ffffffffffffffffffffffffffffffffffffffff1673ffffffffffffffffffffffffffffffffffffffff1663fe4bfa4a8b84848b8681518110610781576107806121f1565b5b6020026020010151600001516040518563ffffffff1660e01b81526004016107ac9493929190611dd3565b600060405180830381600087803b1580156107c657600080fd5b505af11580156107da573d6000803e3d6000fd5b505050506107f6565b80806107ee9061211b565b9150506106fa565b505b80806108039061211b565b9150506106a3565b50600096505050505050505b919050565b600061082f61082a84611e3d565b611e18565b905080838252602082019050828560208602820111156108525761085161225e565b5b60005b858110156108a057813567ffffffffffffffff8111156108785761087761224f565b5b8086016108858982610e06565b85526020850194506020840193505050600181019050610855565b5050509392505050565b60006108bd6108b884611e3d565b611e18565b905080838252602082019050828560208602820111156108e0576108df61225e565b5b60005b8581101561092e57815167ffffffffffffffff8111156109065761090561224f565b5b8086016109138982610e34565b855260208501945060208401935050506001810190506108e3565b5050509392505050565b600061094b61094684611e69565b611e18565b9050808382526020820190508285602086028201111561096e5761096d61225e565b5b60005b858110156109bc57813567ffffffffffffffff8111156109945761099361224f565b5b8086016109a18982611246565b85526020850194506020840193505050600181019050610971565b5050509392505050565b60006109d96109d484611e69565b611e18565b905080838252602082019050828560208602820111156109fc576109fb61225e565b5b60005b85811015610a4a57815167ffffffffffffffff811115610a2257610a2161224f565b5b808601610a2f89826112da565b855260208501945060208401935050506001810190506109ff565b5050509392505050565b6000610a67610a6284611e95565b611e18565b90508083825260208201905082856020860282011115610a8a57610a8961225e565b5b60005b85811015610ad857815167ffffffffffffffff811115610ab057610aaf61224f565b5b808601610abd898261136e565b85526020850194506020840193505050600181019050610a8d565b5050509392505050565b6000610af5610af084611ec1565b611e18565b90508083825260208201905082856020860282011115610b1857610b1761225e565b5b60005b85811015610b485781610b2e88826116a2565b845260208401935060208301925050600181019050610b1b565b5050509392505050565b6000610b65610b6084611ec1565b611e18565b90508083825260208201905082856020860282011115610b8857610b8761225e565b5b60005b85811015610bb85781610b9e88826116b7565b845260208401935060208301925050600181019050610b8b565b5050509392505050565b6000610bd5610bd084611eed565b611e18565b905082815260208101848484011115610bf157610bf0612263565b5b610bfc8482856120a8565b509392505050565b6000610c17610c1284611eed565b611e18565b905082815260208101848484011115610c3357610c32612263565b5b610c3e8482856120b7565b509392505050565b600081519050610c55816122ab565b92915050565b600082601f830112610c7057610c6f61224f565b5b8135610c8084826020860161081c565b91505092915050565b600082601f830112610c9e57610c9d61224f565b5b8151610cae8482602086016108aa565b91505092915050565b600082601f830112610ccc57610ccb61224f565b5b8135610cdc848260208601610938565b91505092915050565b600082601f830112610cfa57610cf961224f565b5b8151610d0a8482602086016109c6565b91505092915050565b600082601f830112610d2857610d2761224f565b5b8151610d38848260208601610a54565b91505092915050565b600082601f830112610d5657610d5561224f565b5b8135610d66848260208601610ae2565b91505092915050565b600082601f830112610d8457610d8361224f565b5b8151610d94848260208601610b52565b91505092915050565b600081359050610dac816122c2565b92915050565b600081519050610dc1816122c2565b92915050565b600081359050610dd6816122d9565b92915050565b600081519050610deb816122d9565b92915050565b600081519050610e00816122e9565b92915050565b600082601f830112610e1b57610e1a61224f565b5b8135610e2b848260208601610bc2565b91505092915050565b600082601f830112610e4957610e4861224f565b5b8151610e59848260208601610c04565b91505092915050565b600060e08284031215610e7857610e77612254565b5b610e8260e0611e18565b9050600082013567ffffffffffffffff811115610ea257610ea1612259565b5b610eae84828501610e06565b6000830152506020610ec2848285016116a2565b6020830152506040610ed6848285016116a2565b6040830152506060610eea848285016116a2565b6060830152506080610efe848285016116a2565b60808301525060a0610f12848285016116a2565b60a08301525060c082013567ffffffffffffffff811115610f3657610f35612259565b5b610f4284828501610e06565b60c08301525092915050565b600060e08284031215610f6457610f63612254565b5b610f6e60e0611e18565b9050600082015167ffffffffffffffff811115610f8e57610f8d612259565b5b610f9a84828501610e34565b6000830152506020610fae848285016116b7565b6020830152506040610fc2848285016116b7565b6040830152506060610fd6848285016116b7565b6060830152506080610fea848285016116b7565b60808301525060a0610ffe848285016116b7565b60a08301525060c082015167ffffffffffffffff81111561102257611021612259565b5b61102e84828501610e34565b60c08301525092915050565b60006101e0828403121561105157611050612254565b5b61105c6101e0611e18565b9050600061106c848285016116a2565b600083015250602082013567ffffffffffffffff8111156110905761108f612259565b5b61109c84828501610e06565b602083015250604082013567ffffffffffffffff8111156110c0576110bf612259565b5b6110cc84828501610e06565b60408301525060606110e0848285016116a2565b606083015250608082013567ffffffffffffffff81111561110457611103612259565b5b61111084828501610e06565b60808301525060a082013567ffffffffffffffff81111561113457611133612259565b5b61114084828501610e06565b60a08301525060c082013567ffffffffffffffff81111561116457611163612259565b5b61117084828501610c5b565b60c08301525060e0611184848285016116a2565b60e083015250610100611199848285016116a2565b610100830152506101206111af84828501610d9d565b610120830152506101406111c584828501610d9d565b610140830152506101606111db848285016116a2565b6101608301525061018082013567ffffffffffffffff81111561120157611200612259565b5b61120d84828501610cb7565b610180830152506101a0611223848285016116a2565b6101a0830152506101c0611239848285016116a2565b6101c08301525092915050565b60006080828403121561125c5761125b612254565b5b6112666080611e18565b9050600082013567ffffffffffffffff81111561128657611285612259565b5b61129284828501610e62565b60008301525060206112a6848285016116a2565b60208301525060406112ba84828501610dc7565b60408301525060606112ce848285016116a2565b60608301525092915050565b6000608082840312156112f0576112ef612254565b5b6112fa6080611e18565b9050600082015167ffffffffffffffff81111561131a57611319612259565b5b61132684828501610f4e565b600083015250602061133a848285016116b7565b602083015250604061134e84828501610ddc565b6040830152506060611362848285016116b7565b60608301525092915050565b60006040828403121561138457611383612254565b5b61138e6040611e18565b9050600061139e84828501610c46565b600083015250602082015167ffffffffffffffff8111156113c2576113c1612259565b5b6113ce84828501610d6f565b60208301525092915050565b60006102a082840312156113f1576113f0612254565b5b6113fc6102a0611e18565b9050600061140c84828501610c46565b6000830152506020611420848285016116b7565b602083015250604082015167ffffffffffffffff81111561144457611443612259565b5b61145084828501610e34565b604083015250606082015167ffffffffffffffff81111561147457611473612259565b5b61148084828501610e34565b6060830152506080611494848285016116b7565b60808301525060a082015167ffffffffffffffff8111156114b8576114b7612259565b5b6114c484828501610e34565b60a08301525060c082015167ffffffffffffffff8111156114e8576114e7612259565b5b6114f484828501610e34565b60c08301525060e082015167ffffffffffffffff81111561151857611517612259565b5b61152484828501610c89565b60e083015250610100611539848285016116b7565b6101008301525061012061154f848285016116b7565b6101208301525061014061156584828501610db2565b6101408301525061016061157b84828501610db2565b61016083015250610180611591848285016116b7565b610180830152506101a082015167ffffffffffffffff8111156115b7576115b6612259565b5b6115c384828501610ce5565b6101a0830152506101c082015167ffffffffffffffff8111156115e9576115e8612259565b5b6115f584828501610d13565b6101c0830152506101e082015167ffffffffffffffff81111561161b5761161a612259565b5b61162784828501610d13565b6101e08301525061020061163d848285016116b7565b61020083015250610220611653848285016116b7565b6102208301525061024061166984828501610db2565b6102408301525061026061167f84828501610db2565b6102608301525061028061169584828501610df1565b6102808301525092915050565b6000813590506116b1816122f9565b92915050565b6000815190506116c6816122f9565b92915050565b6000602082840312156116e2576116e161226d565b5b60006116f084828501610db2565b91505092915050565b60006020828403121561170f5761170e61226d565b5b600082013567ffffffffffffffff81111561172d5761172c612268565b5b6117398482850161103a565b91505092915050565b6000602082840312156117585761175761226d565b5b600082015167ffffffffffffffff81111561177657611775612268565b5b611782848285016113da565b91505092915050565b6000602082840312156117a1576117a061226d565b5b60006117af848285016116a2565b91505092915050565b6000602082840312156117ce576117cd61226d565b5b60006117dc848285016116b7565b91505092915050565b6000806000606084860312156117fe576117fd61226d565b5b600061180c868287016116a2565b935050602084013567ffffffffffffffff81111561182d5761182c612268565b5b61183986828701610d41565b925050604061184a868287016116a2565b9150509250925092565b60006118608383611a27565b905092915050565b60006118748383611c69565b905092915050565b60006118888383611ccc565b60208301905092915050565b61189d81612016565b82525050565b60006118ae82611f4e565b6118b88185611fa1565b9350836020820285016118ca85611f1e565b8060005b8581101561190657848403895281516118e78582611854565b94506118f283611f7a565b925060208a019950506001810190506118ce565b50829750879550505050505092915050565b600061192382611f59565b61192d8185611fb2565b93508360208202850161193f85611f2e565b8060005b8581101561197b578484038952815161195c8582611868565b945061196783611f87565b925060208a01995050600181019050611943565b50829750879550505050505092915050565b600061199882611f64565b6119a28185611fc3565b93506119ad83611f3e565b8060005b838110156119de5781516119c5888261187c565b97506119d083611f94565b9250506001810190506119b1565b5085935050505092915050565b6119f481612028565b82525050565b611a0381612028565b82525050565b611a1281612084565b82525050565b611a2181612096565b82525050565b6000611a3282611f6f565b611a3c8185611fd4565b9350611a4c8185602086016120b7565b611a5581612272565b840191505092915050565b600060e0830160008301518482036000860152611a7d8282611a27565b9150506020830151611a926020860182611ccc565b506040830151611aa56040860182611ccc565b506060830151611ab86060860182611ccc565b506080830151611acb6080860182611ccc565b5060a0830151611ade60a0860182611ccc565b5060c083015184820360c0860152611af68282611a27565b9150508091505092915050565b60006101e083016000830151611b1c6000860182611ccc565b5060208301518482036020860152611b348282611a27565b91505060408301518482036040860152611b4e8282611a27565b9150506060830151611b636060860182611ccc565b5060808301518482036080860152611b7b8282611a27565b91505060a083015184820360a0860152611b958282611a27565b91505060c083015184820360c0860152611baf82826118a3565b91505060e0830151611bc460e0860182611ccc565b50610100830151611bd9610100860182611ccc565b50610120830151611bee6101208601826119eb565b50610140830151611c036101408601826119eb565b50610160830151611c18610160860182611ccc565b50610180830151848203610180860152611c328282611918565b9150506101a0830151611c496101a0860182611ccc565b506101c0830151611c5e6101c0860182611ccc565b508091505092915050565b60006080830160008301518482036000860152611c868282611a60565b9150506020830151611c9b6020860182611ccc565b506040830151611cae6040860182611a09565b506060830151611cc16060860182611ccc565b508091505092915050565b611cd58161207a565b82525050565b611ce48161207a565b82525050565b6000604082019050611cff6000830185611894565b8181036020830152611d118184611b03565b90509392505050565b6000602082019050611d2f6000830184611cdb565b92915050565b6000608082019050611d4a6000830187611cdb565b8181036020830152611d5c818661198d565b9050611d6b6040830185611cdb565b611d786060830184611894565b95945050505050565b6000604082019050611d966000830185611cdb565b611da360208301846119fa565b9392505050565b6000604082019050611dbf6000830185611cdb565b611dcc6020830184611a18565b9392505050565b6000608082019050611de86000830187611cdb565b611df56020830186611cdb565b611e026040830185611cdb565b611e0f6060830184611894565b95945050505050565b6000611e22611e33565b9050611e2e82826120ea565b919050565b6000604051905090565b600067ffffffffffffffff821115611e5857611e57612220565b5b602082029050602081019050919050565b600067ffffffffffffffff821115611e8457611e83612220565b5b602082029050602081019050919050565b600067ffffffffffffffff821115611eb057611eaf612220565b5b602082029050602081019050919050565b600067ffffffffffffffff821115611edc57611edb612220565b5b602082029050602081019050919050565b600067ffffffffffffffff821115611f0857611f07612220565b5b611f1182612272565b9050602081019050919050565b6000819050602082019050919050565b6000819050602082019050919050565b6000819050602082019050919050565b600081519050919050565b600081519050919050565b600081519050919050565b600081519050919050565b6000602082019050919050565b6000602082019050919050565b6000602082019050919050565b600082825260208201905092915050565b600082825260208201905092915050565b600082825260208201905092915050565b600082825260208201905092915050565b6000611ff08261207a565b9150611ffb8361207a565b92508261200b5761200a612193565b5b828204905092915050565b60006120218261205a565b9050919050565b60008115159050919050565b600081905061204282612283565b919050565b600081905061205582612297565b919050565b600073ffffffffffffffffffffffffffffffffffffffff82169050919050565b6000819050919050565b600061208f82612034565b9050919050565b60006120a182612047565b9050919050565b82818337600083830152505050565b60005b838110156120d55780820151818401526020810190506120ba565b838111156120e4576000848401525b50505050565b6120f382612272565b810181811067ffffffffffffffff8211171561211257612111612220565b5b80604052505050565b60006121268261207a565b91507fffffffffffffffffffffffffffffffffffffffffffffffffffffffffffffffff82141561215957612158612164565b5b600182019050919050565b7f4e487b7100000000000000000000000000000000000000000000000000000000600052601160045260246000fd5b7f4e487b7100000000000000000000000000000000000000000000000000000000600052601260045260246000fd5b7f4e487b7100000000000000000000000000000000000000000000000000000000600052602160045260246000fd5b7f4e487b7100000000000000000000000000000000000000000000000000000000600052603260045260246000fd5b7f4e487b7100000000000000000000000000000000000000000000000000000000600052604160045260246000fd5b600080fd5b600080fd5b600080fd5b600080fd5b600080fd5b600080fd5b600080fd5b6000601f19601f8301169050919050565b60078110612294576122936121c2565b5b50565b600681106122a8576122a76121c2565b5b50565b6122b481612016565b81146122bf57600080fd5b50565b6122cb81612028565b81146122d657600080fd5b50565b600781106122e657600080fd5b50565b600681106122f657600080fd5b50565b6123028161207a565b811461230d57600080fd5b5056fea26469706673582212208401a5c989444e8afa82227f8ec7c2dcaaa5a1737c862adfada0e8288d5a12b364736f6c63430008070033",
			"opcodes": "PUSH1 0x80 PUSH1 0x40 MSTORE CALLVALUE DUP1 ISZERO PUSH3 0x11 JUMPI PUSH1 0x0 DUP1 REVERT JUMPDEST POP PUSH1 0x40 MLOAD PUSH3 0x2470 CODESIZE SUB DUP1 PUSH3 0x2470 DUP4 CODECOPY DUP2 DUP2 ADD PUSH1 0x40 MSTORE DUP2 ADD SWAP1 PUSH3 0x37 SWAP2 SWAP1 PUSH3 0x95 JUMP JUMPDEST DUP1 PUSH1 0x0 DUP1 PUSH2 0x100 EXP DUP2 SLOAD DUP2 PUSH20 0xFFFFFFFFFFFFFFFFFFFFFFFFFFFFFFFFFFFFFFFF MUL NOT AND SWAP1 DUP4 PUSH20 0xFFFFFFFFFFFFFFFFFFFFFFFFFFFFFFFFFFFFFFFF AND MUL OR SWAP1 SSTORE POP POP PUSH3 0x11A JUMP JUMPDEST PUSH1 0x0 DUP2 MLOAD SWAP1 POP PUSH3 0x8F DUP2 PUSH3 0x100 JUMP JUMPDEST SWAP3 SWAP2 POP POP JUMP JUMPDEST PUSH1 0x0 PUSH1 0x20 DUP3 DUP5 SUB SLT ISZERO PUSH3 0xAE JUMPI PUSH3 0xAD PUSH3 0xFB JUMP JUMPDEST JUMPDEST PUSH1 0x0 PUSH3 0xBE DUP5 DUP3 DUP6 ADD PUSH3 0x7E JUMP JUMPDEST SWAP2 POP POP SWAP3 SWAP2 POP POP JUMP JUMPDEST PUSH1 0x0 PUSH3 0xD4 DUP3 PUSH3 0xDB JUMP JUMPDEST SWAP1 POP SWAP2 SWAP1 POP JUMP JUMPDEST PUSH1 0x0 PUSH20 0xFFFFFFFFFFFFFFFFFFFFFFFFFFFFFFFFFFFFFFFF DUP3 AND SWAP1 POP SWAP2 SWAP1 POP JUMP JUMPDEST PUSH1 0x0 DUP1 REVERT JUMPDEST PUSH3 0x10B DUP2 PUSH3 0xC7 JUMP JUMPDEST DUP2 EQ PUSH3 0x117 JUMPI PUSH1 0x0 DUP1 REVERT JUMPDEST POP JUMP JUMPDEST PUSH2 0x2346 DUP1 PUSH3 0x12A PUSH1 0x0 CODECOPY PUSH1 0x0 RETURN INVALID PUSH1 0x80 PUSH1 0x40 MSTORE CALLVALUE DUP1 ISZERO PUSH2 0x10 JUMPI PUSH1 0x0 DUP1 REVERT JUMPDEST POP PUSH1 0x4 CALLDATASIZE LT PUSH2 0x4C JUMPI PUSH1 0x0 CALLDATALOAD PUSH1 0xE0 SHR DUP1 PUSH4 0x15704FF4 EQ PUSH2 0x51 JUMPI DUP1 PUSH4 0x361E4705 EQ PUSH2 0x81 JUMPI DUP1 PUSH4 0x8ADC74A5 EQ PUSH2 0x9D JUMPI DUP1 PUSH4 0x9D55097E EQ PUSH2 0xB9 JUMPI JUMPDEST PUSH1 0x0 DUP1 REVERT JUMPDEST PUSH2 0x6B PUSH1 0x4 DUP1 CALLDATASIZE SUB DUP2 ADD SWAP1 PUSH2 0x66 SWAP2 SWAP1 PUSH2 0x16F9 JUMP JUMPDEST PUSH2 0xD5 JUMP JUMPDEST PUSH1 0x40 MLOAD PUSH2 0x78 SWAP2 SWAP1 PUSH2 0x1D1A JUMP JUMPDEST PUSH1 0x40 MLOAD DUP1 SWAP2 SUB SWAP1 RETURN JUMPDEST PUSH2 0x9B PUSH1 0x4 DUP1 CALLDATASIZE SUB DUP2 ADD SWAP1 PUSH2 0x96 SWAP2 SWAP1 PUSH2 0x17E5 JUMP JUMPDEST PUSH2 0xE7 JUMP JUMPDEST STOP JUMPDEST PUSH2 0xB7 PUSH1 0x4 DUP1 CALLDATASIZE SUB DUP2 ADD SWAP1 PUSH2 0xB2 SWAP2 SWAP1 PUSH2 0x178B JUMP JUMPDEST PUSH2 0x17D JUMP JUMPDEST STOP JUMPDEST PUSH2 0xD3 PUSH1 0x4 DUP1 CALLDATASIZE SUB DUP2 ADD SWAP1 PUSH2 0xCE SWAP2 SWAP1 PUSH2 0x17E5 JUMP JUMPDEST PUSH2 0x18A JUMP JUMPDEST STOP JUMPDEST PUSH1 0x0 PUSH2 0xE0 DUP3 PUSH2 0x220 JUMP JUMPDEST SWAP1 POP SWAP2 SWAP1 POP JUMP JUMPDEST PUSH1 0x0 DUP1 SLOAD SWAP1 PUSH2 0x100 EXP SWAP1 DIV PUSH20 0xFFFFFFFFFFFFFFFFFFFFFFFFFFFFFFFFFFFFFFFF AND PUSH20 0xFFFFFFFFFFFFFFFFFFFFFFFFFFFFFFFFFFFFFFFF AND PUSH4 0x9EC44ABC DUP5 DUP5 DUP5 CALLER PUSH1 0x40 MLOAD DUP6 PUSH4 0xFFFFFFFF AND PUSH1 0xE0 SHL DUP2 MSTORE PUSH1 0x4 ADD PUSH2 0x146 SWAP5 SWAP4 SWAP3 SWAP2 SWAP1 PUSH2 0x1D35 JUMP JUMPDEST PUSH1 0x0 PUSH1 0x40 MLOAD DUP1 DUP4 SUB DUP2 PUSH1 0x0 DUP8 DUP1 EXTCODESIZE ISZERO DUP1 ISZERO PUSH2 0x160 JUMPI PUSH1 0x0 DUP1 REVERT JUMPDEST POP GAS CALL ISZERO DUP1 ISZERO PUSH2 0x174 JUMPI RETURNDATASIZE PUSH1 0x0 DUP1 RETURNDATACOPY RETURNDATASIZE PUSH1 0x0 REVERT JUMPDEST POP POP POP POP POP POP POP JUMP JUMPDEST PUSH2 0x186 DUP2 PUSH2 0x3CC JUMP JUMPDEST POP POP JUMP JUMPDEST PUSH1 0x0 DUP1 SLOAD SWAP1 PUSH2 0x100 EXP SWAP1 DIV PUSH20 0xFFFFFFFFFFFFFFFFFFFFFFFFFFFFFFFFFFFFFFFF AND PUSH20 0xFFFFFFFFFFFFFFFFFFFFFFFFFFFFFFFFFFFFFFFF AND PUSH4 0xA7788567 DUP5 DUP5 DUP5 CALLER PUSH1 0x40 MLOAD DUP6 PUSH4 0xFFFFFFFF AND PUSH1 0xE0 SHL DUP2 MSTORE PUSH1 0x4 ADD PUSH2 0x1E9 SWAP5 SWAP4 SWAP3 SWAP2 SWAP1 PUSH2 0x1D35 JUMP JUMPDEST PUSH1 0x0 PUSH1 0x40 MLOAD DUP1 DUP4 SUB DUP2 PUSH1 0x0 DUP8 DUP1 EXTCODESIZE ISZERO DUP1 ISZERO PUSH2 0x203 JUMPI PUSH1 0x0 DUP1 REVERT JUMPDEST POP GAS CALL ISZERO DUP1 ISZERO PUSH2 0x217 JUMPI RETURNDATASIZE PUSH1 0x0 DUP1 RETURNDATACOPY RETURNDATASIZE PUSH1 0x0 REVERT JUMPDEST POP POP POP POP POP POP POP JUMP JUMPDEST PUSH1 0x0 DUP1 DUP3 PUSH2 0x140 ADD MLOAD PUSH2 0x24A JUMPI PUSH1 0x1 DUP4 PUSH2 0x1A0 ADD DUP2 DUP2 MSTORE POP POP PUSH1 0x1 DUP4 PUSH2 0x1C0 ADD DUP2 DUP2 MSTORE POP POP PUSH2 0x314 JUMP JUMPDEST DUP3 PUSH2 0x180 ADD MLOAD MLOAD DUP4 PUSH2 0x1A0 ADD DUP2 DUP2 MSTORE POP POP PUSH1 0x0 DUP1 SLOAD SWAP1 PUSH2 0x100 EXP SWAP1 DIV PUSH20 0xFFFFFFFFFFFFFFFFFFFFFFFFFFFFFFFFFFFFFFFF AND PUSH20 0xFFFFFFFFFFFFFFFFFFFFFFFFFFFFFFFFFFFFFFFF AND PUSH4 0xF2E60202 DUP5 PUSH2 0x1A0 ADD MLOAD PUSH1 0x40 MLOAD DUP3 PUSH4 0xFFFFFFFF AND PUSH1 0xE0 SHL DUP2 MSTORE PUSH1 0x4 ADD PUSH2 0x2B9 SWAP2 SWAP1 PUSH2 0x1D1A JUMP JUMPDEST PUSH1 0x20 PUSH1 0x40 MLOAD DUP1 DUP4 SUB DUP2 DUP7 DUP1 EXTCODESIZE ISZERO DUP1 ISZERO PUSH2 0x2D1 JUMPI PUSH1 0x0 DUP1 REVERT JUMPDEST POP GAS STATICCALL ISZERO DUP1 ISZERO PUSH2 0x2E5 JUMPI RETURNDATASIZE PUSH1 0x0 DUP1 RETURNDATACOPY RETURNDATASIZE PUSH1 0x0 REVERT JUMPDEST POP POP POP POP PUSH1 0x40 MLOAD RETURNDATASIZE PUSH1 0x1F NOT PUSH1 0x1F DUP3 ADD AND DUP3 ADD DUP1 PUSH1 0x40 MSTORE POP DUP2 ADD SWAP1 PUSH2 0x309 SWAP2 SWAP1 PUSH2 0x17B8 JUMP JUMPDEST DUP4 PUSH2 0x1C0 ADD DUP2 DUP2 MSTORE POP POP JUMPDEST PUSH1 0x0 DUP1 SLOAD SWAP1 PUSH2 0x100 EXP SWAP1 DIV PUSH20 0xFFFFFFFFFFFFFFFFFFFFFFFFFFFFFFFFFFFFFFFF AND PUSH20 0xFFFFFFFFFFFFFFFFFFFFFFFFFFFFFFFFFFFFFFFF AND PUSH4 0xC57294E2 CALLER DUP6 PUSH1 0x40 MLOAD DUP4 PUSH4 0xFFFFFFFF AND PUSH1 0xE0 SHL DUP2 MSTORE PUSH1 0x4 ADD PUSH2 0x36F SWAP3 SWAP2 SWAP1 PUSH2 0x1CEA JUMP JUMPDEST PUSH1 0x20 PUSH1 0x40 MLOAD DUP1 DUP4 SUB DUP2 PUSH1 0x0 DUP8 DUP1 EXTCODESIZE ISZERO DUP1 ISZERO PUSH2 0x389 JUMPI PUSH1 0x0 DUP1 REVERT JUMPDEST POP GAS CALL ISZERO DUP1 ISZERO PUSH2 0x39D JUMPI RETURNDATASIZE PUSH1 0x0 DUP1 RETURNDATACOPY RETURNDATASIZE PUSH1 0x0 REVERT JUMPDEST POP POP POP POP PUSH1 0x40 MLOAD RETURNDATASIZE PUSH1 0x1F NOT PUSH1 0x1F DUP3 ADD AND DUP3 ADD DUP1 PUSH1 0x40 MSTORE POP DUP2 ADD SWAP1 PUSH2 0x3C1 SWAP2 SWAP1 PUSH2 0x17B8 JUMP JUMPDEST SWAP1 POP DUP1 SWAP2 POP POP SWAP2 SWAP1 POP JUMP JUMPDEST PUSH1 0x0 DUP1 PUSH1 0x0 DUP1 SLOAD SWAP1 PUSH2 0x100 EXP SWAP1 DIV PUSH20 0xFFFFFFFFFFFFFFFFFFFFFFFFFFFFFFFFFFFFFFFF AND PUSH20 0xFFFFFFFFFFFFFFFFFFFFFFFFFFFFFFFFFFFFFFFF AND PUSH4 0xF0F3F2C8 DUP5 PUSH1 0x40 MLOAD DUP3 PUSH4 0xFFFFFFFF AND PUSH1 0xE0 SHL DUP2 MSTORE PUSH1 0x4 ADD PUSH2 0x428 SWAP2 SWAP1 PUSH2 0x1D1A JUMP JUMPDEST PUSH1 0x0 PUSH1 0x40 MLOAD DUP1 DUP4 SUB DUP2 DUP7 DUP1 EXTCODESIZE ISZERO DUP1 ISZERO PUSH2 0x440 JUMPI PUSH1 0x0 DUP1 REVERT JUMPDEST POP GAS STATICCALL ISZERO DUP1 ISZERO PUSH2 0x454 JUMPI RETURNDATASIZE PUSH1 0x0 DUP1 RETURNDATACOPY RETURNDATASIZE PUSH1 0x0 REVERT JUMPDEST POP POP POP POP PUSH1 0x40 MLOAD RETURNDATASIZE PUSH1 0x0 DUP3 RETURNDATACOPY RETURNDATASIZE PUSH1 0x1F NOT PUSH1 0x1F DUP3 ADD AND DUP3 ADD DUP1 PUSH1 0x40 MSTORE POP DUP2 ADD SWAP1 PUSH2 0x47D SWAP2 SWAP1 PUSH2 0x1742 JUMP JUMPDEST SWAP1 POP PUSH1 0x0 DUP2 PUSH2 0x1C0 ADD MLOAD SWAP1 POP PUSH1 0x0 DUP3 PUSH2 0x1A0 ADD MLOAD SWAP1 POP PUSH1 0x0 DUP1 SLOAD SWAP1 PUSH2 0x100 EXP SWAP1 DIV PUSH20 0xFFFFFFFFFFFFFFFFFFFFFFFFFFFFFFFFFFFFFFFF AND PUSH20 0xFFFFFFFFFFFFFFFFFFFFFFFFFFFFFFFFFFFFFFFF AND PUSH4 0x8A9A9FF3 DUP7 PUSH1 0x1 PUSH1 0x40 MLOAD DUP4 PUSH4 0xFFFFFFFF AND PUSH1 0xE0 SHL DUP2 MSTORE PUSH1 0x4 ADD PUSH2 0x4EF SWAP3 SWAP2 SWAP1 PUSH2 0x1D81 JUMP JUMPDEST PUSH1 0x20 PUSH1 0x40 MLOAD DUP1 DUP4 SUB DUP2 DUP7 DUP1 EXTCODESIZE ISZERO DUP1 ISZERO PUSH2 0x507 JUMPI PUSH1 0x0 DUP1 REVERT JUMPDEST POP GAS STATICCALL ISZERO DUP1 ISZERO PUSH2 0x51B JUMPI RETURNDATASIZE PUSH1 0x0 DUP1 RETURNDATACOPY RETURNDATASIZE PUSH1 0x0 REVERT JUMPDEST POP POP POP POP PUSH1 0x40 MLOAD RETURNDATASIZE PUSH1 0x1F NOT PUSH1 0x1F DUP3 ADD AND DUP3 ADD DUP1 PUSH1 0x40 MSTORE POP DUP2 ADD SWAP1 PUSH2 0x53F SWAP2 SWAP1 PUSH2 0x16CC JUMP JUMPDEST ISZERO PUSH2 0x550 JUMPI PUSH1 0x1 SWAP4 POP POP POP POP PUSH2 0x817 JUMP JUMPDEST PUSH1 0x0 DUP3 MLOAD EQ ISZERO PUSH2 0x67F JUMPI PUSH1 0x0 DUP1 SLOAD SWAP1 PUSH2 0x100 EXP SWAP1 DIV PUSH20 0xFFFFFFFFFFFFFFFFFFFFFFFFFFFFFFFFFFFFFFFF AND PUSH20 0xFFFFFFFFFFFFFFFFFFFFFFFFFFFFFFFFFFFFFFFF AND PUSH4 0xFFBAFDFE DUP7 PUSH1 0x3 PUSH1 0x40 MLOAD DUP4 PUSH4 0xFFFFFFFF AND PUSH1 0xE0 SHL DUP2 MSTORE PUSH1 0x4 ADD PUSH2 0x5B6 SWAP3 SWAP2 SWAP1 PUSH2 0x1DAA JUMP JUMPDEST PUSH1 0x0 PUSH1 0x40 MLOAD DUP1 DUP4 SUB DUP2 PUSH1 0x0 DUP8 DUP1 EXTCODESIZE ISZERO DUP1 ISZERO PUSH2 0x5D0 JUMPI PUSH1 0x0 DUP1 REVERT JUMPDEST POP GAS CALL ISZERO DUP1 ISZERO PUSH2 0x5E4 JUMPI RETURNDATASIZE PUSH1 0x0 DUP1 RETURNDATACOPY RETURNDATASIZE PUSH1 0x0 REVERT JUMPDEST POP POP POP POP PUSH1 0x0 DUP1 SLOAD SWAP1 PUSH2 0x100 EXP SWAP1 DIV PUSH20 0xFFFFFFFFFFFFFFFFFFFFFFFFFFFFFFFFFFFFFFFF AND PUSH20 0xFFFFFFFFFFFFFFFFFFFFFFFFFFFFFFFFFFFFFFFF AND PUSH4 0xEA60F28C DUP7 PUSH1 0x40 MLOAD DUP3 PUSH4 0xFFFFFFFF AND PUSH1 0xE0 SHL DUP2 MSTORE PUSH1 0x4 ADD PUSH2 0x641 SWAP2 SWAP1 PUSH2 0x1D1A JUMP JUMPDEST PUSH1 0x0 PUSH1 0x40 MLOAD DUP1 DUP4 SUB DUP2 PUSH1 0x0 DUP8 DUP1 EXTCODESIZE ISZERO DUP1 ISZERO PUSH2 0x65B JUMPI PUSH1 0x0 DUP1 REVERT JUMPDEST POP GAS CALL ISZERO DUP1 ISZERO PUSH2 0x66F JUMPI RETURNDATASIZE PUSH1 0x0 DUP1 RETURNDATACOPY RETURNDATASIZE PUSH1 0x0 REVERT JUMPDEST POP POP POP POP PUSH1 0x0 SWAP4 POP POP POP POP PUSH2 0x817 JUMP JUMPDEST PUSH1 0x0 DUP4 PUSH2 0x1A0 ADD MLOAD MLOAD SWAP1 POP PUSH1 0x0 DUP4 MLOAD SWAP1 POP PUSH1 0x0 DUP2 DUP4 PUSH2 0x69E SWAP2 SWAP1 PUSH2 0x1FE5 JUMP JUMPDEST SWAP1 POP PUSH1 0x0 JUMPDEST DUP5 MLOAD DUP2 LT ISZERO PUSH2 0x80B JUMPI PUSH1 0x0 PUSH1 0x6 DUP2 GT ISZERO PUSH2 0x6C0 JUMPI PUSH2 0x6BF PUSH2 0x21C2 JUMP JUMPDEST JUMPDEST DUP6 DUP3 DUP2 MLOAD DUP2 LT PUSH2 0x6D3 JUMPI PUSH2 0x6D2 PUSH2 0x21F1 JUMP JUMPDEST JUMPDEST PUSH1 0x20 MUL PUSH1 0x20 ADD ADD MLOAD PUSH1 0x40 ADD MLOAD PUSH1 0x6 DUP2 GT ISZERO PUSH2 0x6F1 JUMPI PUSH2 0x6F0 PUSH2 0x21C2 JUMP JUMPDEST JUMPDEST EQ ISZERO PUSH2 0x7F8 JUMPI PUSH1 0x0 JUMPDEST DUP7 MLOAD DUP2 LT ISZERO PUSH2 0x7F6 JUMPI DUP3 DUP8 DUP3 DUP2 MLOAD DUP2 LT PUSH2 0x717 JUMPI PUSH2 0x716 PUSH2 0x21F1 JUMP JUMPDEST JUMPDEST PUSH1 0x20 MUL PUSH1 0x20 ADD ADD MLOAD PUSH1 0x20 ADD MLOAD MLOAD GT ISZERO PUSH2 0x72F JUMPI PUSH2 0x7E3 JUMP JUMPDEST PUSH1 0x0 DUP1 SLOAD SWAP1 PUSH2 0x100 EXP SWAP1 DIV PUSH20 0xFFFFFFFFFFFFFFFFFFFFFFFFFFFFFFFFFFFFFFFF AND PUSH20 0xFFFFFFFFFFFFFFFFFFFFFFFFFFFFFFFFFFFFFFFF AND PUSH4 0xFE4BFA4A DUP12 DUP5 DUP5 DUP12 DUP7 DUP2 MLOAD DUP2 LT PUSH2 0x781 JUMPI PUSH2 0x780 PUSH2 0x21F1 JUMP JUMPDEST JUMPDEST PUSH1 0x20 MUL PUSH1 0x20 ADD ADD MLOAD PUSH1 0x0 ADD MLOAD PUSH1 0x40 MLOAD DUP6 PUSH4 0xFFFFFFFF AND PUSH1 0xE0 SHL DUP2 MSTORE PUSH1 0x4 ADD PUSH2 0x7AC SWAP5 SWAP4 SWAP3 SWAP2 SWAP1 PUSH2 0x1DD3 JUMP JUMPDEST PUSH1 0x0 PUSH1 0x40 MLOAD DUP1 DUP4 SUB DUP2 PUSH1 0x0 DUP8 DUP1 EXTCODESIZE ISZERO DUP1 ISZERO PUSH2 0x7C6 JUMPI PUSH1 0x0 DUP1 REVERT JUMPDEST POP GAS CALL ISZERO DUP1 ISZERO PUSH2 0x7DA JUMPI RETURNDATASIZE PUSH1 0x0 DUP1 RETURNDATACOPY RETURNDATASIZE PUSH1 0x0 REVERT JUMPDEST POP POP POP POP PUSH2 0x7F6 JUMP JUMPDEST DUP1 DUP1 PUSH2 0x7EE SWAP1 PUSH2 0x211B JUMP JUMPDEST SWAP2 POP POP PUSH2 0x6FA JUMP JUMPDEST POP JUMPDEST DUP1 DUP1 PUSH2 0x803 SWAP1 PUSH2 0x211B JUMP JUMPDEST SWAP2 POP POP PUSH2 0x6A3 JUMP JUMPDEST POP PUSH1 0x0 SWAP7 POP POP POP POP POP POP POP JUMPDEST SWAP2 SWAP1 POP JUMP JUMPDEST PUSH1 0x0 PUSH2 0x82F PUSH2 0x82A DUP5 PUSH2 0x1E3D JUMP JUMPDEST PUSH2 0x1E18 JUMP JUMPDEST SWAP1 POP DUP1 DUP4 DUP3 MSTORE PUSH1 0x20 DUP3 ADD SWAP1 POP DUP3 DUP6 PUSH1 0x20 DUP7 MUL DUP3 ADD GT ISZERO PUSH2 0x852 JUMPI PUSH2 0x851 PUSH2 0x225E JUMP JUMPDEST JUMPDEST PUSH1 0x0 JUMPDEST DUP6 DUP2 LT ISZERO PUSH2 0x8A0 JUMPI DUP2 CALLDATALOAD PUSH8 0xFFFFFFFFFFFFFFFF DUP2 GT ISZERO PUSH2 0x878 JUMPI PUSH2 0x877 PUSH2 0x224F JUMP JUMPDEST JUMPDEST DUP1 DUP7 ADD PUSH2 0x885 DUP10 DUP3 PUSH2 0xE06 JUMP JUMPDEST DUP6 MSTORE PUSH1 0x20 DUP6 ADD SWAP5 POP PUSH1 0x20 DUP5 ADD SWAP4 POP POP POP PUSH1 0x1 DUP2 ADD SWAP1 POP PUSH2 0x855 JUMP JUMPDEST POP POP POP SWAP4 SWAP3 POP POP POP JUMP JUMPDEST PUSH1 0x0 PUSH2 0x8BD PUSH2 0x8B8 DUP5 PUSH2 0x1E3D JUMP JUMPDEST PUSH2 0x1E18 JUMP JUMPDEST SWAP1 POP DUP1 DUP4 DUP3 MSTORE PUSH1 0x20 DUP3 ADD SWAP1 POP DUP3 DUP6 PUSH1 0x20 DUP7 MUL DUP3 ADD GT ISZERO PUSH2 0x8E0 JUMPI PUSH2 0x8DF PUSH2 0x225E JUMP JUMPDEST JUMPDEST PUSH1 0x0 JUMPDEST DUP6 DUP2 LT ISZERO PUSH2 0x92E JUMPI DUP2 MLOAD PUSH8 0xFFFFFFFFFFFFFFFF DUP2 GT ISZERO PUSH2 0x906 JUMPI PUSH2 0x905 PUSH2 0x224F JUMP JUMPDEST JUMPDEST DUP1 DUP7 ADD PUSH2 0x913 DUP10 DUP3 PUSH2 0xE34 JUMP JUMPDEST DUP6 MSTORE PUSH1 0x20 DUP6 ADD SWAP5 POP PUSH1 0x20 DUP5 ADD SWAP4 POP POP POP PUSH1 0x1 DUP2 ADD SWAP1 POP PUSH2 0x8E3 JUMP JUMPDEST POP POP POP SWAP4 SWAP3 POP POP POP JUMP JUMPDEST PUSH1 0x0 PUSH2 0x94B PUSH2 0x946 DUP5 PUSH2 0x1E69 JUMP JUMPDEST PUSH2 0x1E18 JUMP JUMPDEST SWAP1 POP DUP1 DUP4 DUP3 MSTORE PUSH1 0x20 DUP3 ADD SWAP1 POP DUP3 DUP6 PUSH1 0x20 DUP7 MUL DUP3 ADD GT ISZERO PUSH2 0x96E JUMPI PUSH2 0x96D PUSH2 0x225E JUMP JUMPDEST JUMPDEST PUSH1 0x0 JUMPDEST DUP6 DUP2 LT ISZERO PUSH2 0x9BC JUMPI DUP2 CALLDATALOAD PUSH8 0xFFFFFFFFFFFFFFFF DUP2 GT ISZERO PUSH2 0x994 JUMPI PUSH2 0x993 PUSH2 0x224F JUMP JUMPDEST JUMPDEST DUP1 DUP7 ADD PUSH2 0x9A1 DUP10 DUP3 PUSH2 0x1246 JUMP JUMPDEST DUP6 MSTORE PUSH1 0x20 DUP6 ADD SWAP5 POP PUSH1 0x20 DUP5 ADD SWAP4 POP POP POP PUSH1 0x1 DUP2 ADD SWAP1 POP PUSH2 0x971 JUMP JUMPDEST POP POP POP SWAP4 SWAP3 POP POP POP JUMP JUMPDEST PUSH1 0x0 PUSH2 0x9D9 PUSH2 0x9D4 DUP5 PUSH2 0x1E69 JUMP JUMPDEST PUSH2 0x1E18 JUMP JUMPDEST SWAP1 POP DUP1 DUP4 DUP3 MSTORE PUSH1 0x20 DUP3 ADD SWAP1 POP DUP3 DUP6 PUSH1 0x20 DUP7 MUL DUP3 ADD GT ISZERO PUSH2 0x9FC JUMPI PUSH2 0x9FB PUSH2 0x225E JUMP JUMPDEST JUMPDEST PUSH1 0x0 JUMPDEST DUP6 DUP2 LT ISZERO PUSH2 0xA4A JUMPI DUP2 MLOAD PUSH8 0xFFFFFFFFFFFFFFFF DUP2 GT ISZERO PUSH2 0xA22 JUMPI PUSH2 0xA21 PUSH2 0x224F JUMP JUMPDEST JUMPDEST DUP1 DUP7 ADD PUSH2 0xA2F DUP10 DUP3 PUSH2 0x12DA JUMP JUMPDEST DUP6 MSTORE PUSH1 0x20 DUP6 ADD SWAP5 POP PUSH1 0x20 DUP5 ADD SWAP4 POP POP POP PUSH1 0x1 DUP2 ADD SWAP1 POP PUSH2 0x9FF JUMP JUMPDEST POP POP POP SWAP4 SWAP3 POP POP POP JUMP JUMPDEST PUSH1 0x0 PUSH2 0xA67 PUSH2 0xA62 DUP5 PUSH2 0x1E95 JUMP JUMPDEST PUSH2 0x1E18 JUMP JUMPDEST SWAP1 POP DUP1 DUP4 DUP3 MSTORE PUSH1 0x20 DUP3 ADD SWAP1 POP DUP3 DUP6 PUSH1 0x20 DUP7 MUL DUP3 ADD GT ISZERO PUSH2 0xA8A JUMPI PUSH2 0xA89 PUSH2 0x225E JUMP JUMPDEST JUMPDEST PUSH1 0x0 JUMPDEST DUP6 DUP2 LT ISZERO PUSH2 0xAD8 JUMPI DUP2 MLOAD PUSH8 0xFFFFFFFFFFFFFFFF DUP2 GT ISZERO PUSH2 0xAB0 JUMPI PUSH2 0xAAF PUSH2 0x224F JUMP JUMPDEST JUMPDEST DUP1 DUP7 ADD PUSH2 0xABD DUP10 DUP3 PUSH2 0x136E JUMP JUMPDEST DUP6 MSTORE PUSH1 0x20 DUP6 ADD SWAP5 POP PUSH1 0x20 DUP5 ADD SWAP4 POP POP POP PUSH1 0x1 DUP2 ADD SWAP1 POP PUSH2 0xA8D JUMP JUMPDEST POP POP POP SWAP4 SWAP3 POP POP POP JUMP JUMPDEST PUSH1 0x0 PUSH2 0xAF5 PUSH2 0xAF0 DUP5 PUSH2 0x1EC1 JUMP JUMPDEST PUSH2 0x1E18 JUMP JUMPDEST SWAP1 POP DUP1 DUP4 DUP3 MSTORE PUSH1 0x20 DUP3 ADD SWAP1 POP DUP3 DUP6 PUSH1 0x20 DUP7 MUL DUP3 ADD GT ISZERO PUSH2 0xB18 JUMPI PUSH2 0xB17 PUSH2 0x225E JUMP JUMPDEST JUMPDEST PUSH1 0x0 JUMPDEST DUP6 DUP2 LT ISZERO PUSH2 0xB48 JUMPI DUP2 PUSH2 0xB2E DUP9 DUP3 PUSH2 0x16A2 JUMP JUMPDEST DUP5 MSTORE PUSH1 0x20 DUP5 ADD SWAP4 POP PUSH1 0x20 DUP4 ADD SWAP3 POP POP PUSH1 0x1 DUP2 ADD SWAP1 POP PUSH2 0xB1B JUMP JUMPDEST POP POP POP SWAP4 SWAP3 POP POP POP JUMP JUMPDEST PUSH1 0x0 PUSH2 0xB65 PUSH2 0xB60 DUP5 PUSH2 0x1EC1 JUMP JUMPDEST PUSH2 0x1E18 JUMP JUMPDEST SWAP1 POP DUP1 DUP4 DUP3 MSTORE PUSH1 0x20 DUP3 ADD SWAP1 POP DUP3 DUP6 PUSH1 0x20 DUP7 MUL DUP3 ADD GT ISZERO PUSH2 0xB88 JUMPI PUSH2 0xB87 PUSH2 0x225E JUMP JUMPDEST JUMPDEST PUSH1 0x0 JUMPDEST DUP6 DUP2 LT ISZERO PUSH2 0xBB8 JUMPI DUP2 PUSH2 0xB9E DUP9 DUP3 PUSH2 0x16B7 JUMP JUMPDEST DUP5 MSTORE PUSH1 0x20 DUP5 ADD SWAP4 POP PUSH1 0x20 DUP4 ADD SWAP3 POP POP PUSH1 0x1 DUP2 ADD SWAP1 POP PUSH2 0xB8B JUMP JUMPDEST POP POP POP SWAP4 SWAP3 POP POP POP JUMP JUMPDEST PUSH1 0x0 PUSH2 0xBD5 PUSH2 0xBD0 DUP5 PUSH2 0x1EED JUMP JUMPDEST PUSH2 0x1E18 JUMP JUMPDEST SWAP1 POP DUP3 DUP2 MSTORE PUSH1 0x20 DUP2 ADD DUP5 DUP5 DUP5 ADD GT ISZERO PUSH2 0xBF1 JUMPI PUSH2 0xBF0 PUSH2 0x2263 JUMP JUMPDEST JUMPDEST PUSH2 0xBFC DUP5 DUP3 DUP6 PUSH2 0x20A8 JUMP JUMPDEST POP SWAP4 SWAP3 POP POP POP JUMP JUMPDEST PUSH1 0x0 PUSH2 0xC17 PUSH2 0xC12 DUP5 PUSH2 0x1EED JUMP JUMPDEST PUSH2 0x1E18 JUMP JUMPDEST SWAP1 POP DUP3 DUP2 MSTORE PUSH1 0x20 DUP2 ADD DUP5 DUP5 DUP5 ADD GT ISZERO PUSH2 0xC33 JUMPI PUSH2 0xC32 PUSH2 0x2263 JUMP JUMPDEST JUMPDEST PUSH2 0xC3E DUP5 DUP3 DUP6 PUSH2 0x20B7 JUMP JUMPDEST POP SWAP4 SWAP3 POP POP POP JUMP JUMPDEST PUSH1 0x0 DUP2 MLOAD SWAP1 POP PUSH2 0xC55 DUP2 PUSH2 0x22AB JUMP JUMPDEST SWAP3 SWAP2 POP POP JUMP JUMPDEST PUSH1 0x0 DUP3 PUSH1 0x1F DUP4 ADD SLT PUSH2 0xC70 JUMPI PUSH2 0xC6F PUSH2 0x224F JUMP JUMPDEST JUMPDEST DUP2 CALLDATALOAD PUSH2 0xC80 DUP5 DUP3 PUSH1 0x20 DUP7 ADD PUSH2 0x81C JUMP JUMPDEST SWAP2 POP POP SWAP3 SWAP2 POP POP JUMP JUMPDEST PUSH1 0x0 DUP3 PUSH1 0x1F DUP4 ADD SLT PUSH2 0xC9E JUMPI PUSH2 0xC9D PUSH2 0x224F JUMP JUMPDEST JUMPDEST DUP2 MLOAD PUSH2 0xCAE DUP5 DUP3 PUSH1 0x20 DUP7 ADD PUSH2 0x8AA JUMP JUMPDEST SWAP2 POP POP SWAP3 SWAP2 POP POP JUMP JUMPDEST PUSH1 0x0 DUP3 PUSH1 0x1F DUP4 ADD SLT PUSH2 0xCCC JUMPI PUSH2 0xCCB PUSH2 0x224F JUMP JUMPDEST JUMPDEST DUP2 CALLDATALOAD PUSH2 0xCDC DUP5 DUP3 PUSH1 0x20 DUP7 ADD PUSH2 0x938 JUMP JUMPDEST SWAP2 POP POP SWAP3 SWAP2 POP POP JUMP JUMPDEST PUSH1 0x0 DUP3 PUSH1 0x1F DUP4 ADD SLT PUSH2 0xCFA JUMPI PUSH2 0xCF9 PUSH2 0x224F JUMP JUMPDEST JUMPDEST DUP2 MLOAD PUSH2 0xD0A DUP5 DUP3 PUSH1 0x20 DUP7 ADD PUSH2 0x9C6 JUMP JUMPDEST SWAP2 POP POP SWAP3 SWAP2 POP POP JUMP JUMPDEST PUSH1 0x0 DUP3 PUSH1 0x1F DUP4 ADD SLT PUSH2 0xD28 JUMPI PUSH2 0xD27 PUSH2 0x224F JUMP JUMPDEST JUMPDEST DUP2 MLOAD PUSH2 0xD38 DUP5 DUP3 PUSH1 0x20 DUP7 ADD PUSH2 0xA54 JUMP JUMPDEST SWAP2 POP POP SWAP3 SWAP2 POP POP JUMP JUMPDEST PUSH1 0x0 DUP3 PUSH1 0x1F DUP4 ADD SLT PUSH2 0xD56 JUMPI PUSH2 0xD55 PUSH2 0x224F JUMP JUMPDEST JUMPDEST DUP2 CALLDATALOAD PUSH2 0xD66 DUP5 DUP3 PUSH1 0x20 DUP7 ADD PUSH2 0xAE2 JUMP JUMPDEST SWAP2 POP POP SWAP3 SWAP2 POP POP JUMP JUMPDEST PUSH1 0x0 DUP3 PUSH1 0x1F DUP4 ADD SLT PUSH2 0xD84 JUMPI PUSH2 0xD83 PUSH2 0x224F JUMP JUMPDEST JUMPDEST DUP2 MLOAD PUSH2 0xD94 DUP5 DUP3 PUSH1 0x20 DUP7 ADD PUSH2 0xB52 JUMP JUMPDEST SWAP2 POP POP SWAP3 SWAP2 POP POP JUMP JUMPDEST PUSH1 0x0 DUP2 CALLDATALOAD SWAP1 POP PUSH2 0xDAC DUP2 PUSH2 0x22C2 JUMP JUMPDEST SWAP3 SWAP2 POP POP JUMP JUMPDEST PUSH1 0x0 DUP2 MLOAD SWAP1 POP PUSH2 0xDC1 DUP2 PUSH2 0x22C2 JUMP JUMPDEST SWAP3 SWAP2 POP POP JUMP JUMPDEST PUSH1 0x0 DUP2 CALLDATALOAD SWAP1 POP PUSH2 0xDD6 DUP2 PUSH2 0x22D9 JUMP JUMPDEST SWAP3 SWAP2 POP POP JUMP JUMPDEST PUSH1 0x0 DUP2 MLOAD SWAP1 POP PUSH2 0xDEB DUP2 PUSH2 0x22D9 JUMP JUMPDEST SWAP3 SWAP2 POP POP JUMP JUMPDEST PUSH1 0x0 DUP2 MLOAD SWAP1 POP PUSH2 0xE00 DUP2 PUSH2 0x22E9 JUMP JUMPDEST SWAP3 SWAP2 POP POP JUMP JUMPDEST PUSH1 0x0 DUP3 PUSH1 0x1F DUP4 ADD SLT PUSH2 0xE1B JUMPI PUSH2 0xE1A PUSH2 0x224F JUMP JUMPDEST JUMPDEST DUP2 CALLDATALOAD PUSH2 0xE2B DUP5 DUP3 PUSH1 0x20 DUP7 ADD PUSH2 0xBC2 JUMP JUMPDEST SWAP2 POP POP SWAP3 SWAP2 POP POP JUMP JUMPDEST PUSH1 0x0 DUP3 PUSH1 0x1F DUP4 ADD SLT PUSH2 0xE49 JUMPI PUSH2 0xE48 PUSH2 0x224F JUMP JUMPDEST JUMPDEST DUP2 MLOAD PUSH2 0xE59 DUP5 DUP3 PUSH1 0x20 DUP7 ADD PUSH2 0xC04 JUMP JUMPDEST SWAP2 POP POP SWAP3 SWAP2 POP POP JUMP JUMPDEST PUSH1 0x0 PUSH1 0xE0 DUP3 DUP5 SUB SLT ISZERO PUSH2 0xE78 JUMPI PUSH2 0xE77 PUSH2 0x2254 JUMP JUMPDEST JUMPDEST PUSH2 0xE82 PUSH1 0xE0 PUSH2 0x1E18 JUMP JUMPDEST SWAP1 POP PUSH1 0x0 DUP3 ADD CALLDATALOAD PUSH8 0xFFFFFFFFFFFFFFFF DUP2 GT ISZERO PUSH2 0xEA2 JUMPI PUSH2 0xEA1 PUSH2 0x2259 JUMP JUMPDEST JUMPDEST PUSH2 0xEAE DUP5 DUP3 DUP6 ADD PUSH2 0xE06 JUMP JUMPDEST PUSH1 0x0 DUP4 ADD MSTORE POP PUSH1 0x20 PUSH2 0xEC2 DUP5 DUP3 DUP6 ADD PUSH2 0x16A2 JUMP JUMPDEST PUSH1 0x20 DUP4 ADD MSTORE POP PUSH1 0x40 PUSH2 0xED6 DUP5 DUP3 DUP6 ADD PUSH2 0x16A2 JUMP JUMPDEST PUSH1 0x40 DUP4 ADD MSTORE POP PUSH1 0x60 PUSH2 0xEEA DUP5 DUP3 DUP6 ADD PUSH2 0x16A2 JUMP JUMPDEST PUSH1 0x60 DUP4 ADD MSTORE POP PUSH1 0x80 PUSH2 0xEFE DUP5 DUP3 DUP6 ADD PUSH2 0x16A2 JUMP JUMPDEST PUSH1 0x80 DUP4 ADD MSTORE POP PUSH1 0xA0 PUSH2 0xF12 DUP5 DUP3 DUP6 ADD PUSH2 0x16A2 JUMP JUMPDEST PUSH1 0xA0 DUP4 ADD MSTORE POP PUSH1 0xC0 DUP3 ADD CALLDATALOAD PUSH8 0xFFFFFFFFFFFFFFFF DUP2 GT ISZERO PUSH2 0xF36 JUMPI PUSH2 0xF35 PUSH2 0x2259 JUMP JUMPDEST JUMPDEST PUSH2 0xF42 DUP5 DUP3 DUP6 ADD PUSH2 0xE06 JUMP JUMPDEST PUSH1 0xC0 DUP4 ADD MSTORE POP SWAP3 SWAP2 POP POP JUMP JUMPDEST PUSH1 0x0 PUSH1 0xE0 DUP3 DUP5 SUB SLT ISZERO PUSH2 0xF64 JUMPI PUSH2 0xF63 PUSH2 0x2254 JUMP JUMPDEST JUMPDEST PUSH2 0xF6E PUSH1 0xE0 PUSH2 0x1E18 JUMP JUMPDEST SWAP1 POP PUSH1 0x0 DUP3 ADD MLOAD PUSH8 0xFFFFFFFFFFFFFFFF DUP2 GT ISZERO PUSH2 0xF8E JUMPI PUSH2 0xF8D PUSH2 0x2259 JUMP JUMPDEST JUMPDEST PUSH2 0xF9A DUP5 DUP3 DUP6 ADD PUSH2 0xE34 JUMP JUMPDEST PUSH1 0x0 DUP4 ADD MSTORE POP PUSH1 0x20 PUSH2 0xFAE DUP5 DUP3 DUP6 ADD PUSH2 0x16B7 JUMP JUMPDEST PUSH1 0x20 DUP4 ADD MSTORE POP PUSH1 0x40 PUSH2 0xFC2 DUP5 DUP3 DUP6 ADD PUSH2 0x16B7 JUMP JUMPDEST PUSH1 0x40 DUP4 ADD MSTORE POP PUSH1 0x60 PUSH2 0xFD6 DUP5 DUP3 DUP6 ADD PUSH2 0x16B7 JUMP JUMPDEST PUSH1 0x60 DUP4 ADD MSTORE POP PUSH1 0x80 PUSH2 0xFEA DUP5 DUP3 DUP6 ADD PUSH2 0x16B7 JUMP JUMPDEST PUSH1 0x80 DUP4 ADD MSTORE POP PUSH1 0xA0 PUSH2 0xFFE DUP5 DUP3 DUP6 ADD PUSH2 0x16B7 JUMP JUMPDEST PUSH1 0xA0 DUP4 ADD MSTORE POP PUSH1 0xC0 DUP3 ADD MLOAD PUSH8 0xFFFFFFFFFFFFFFFF DUP2 GT ISZERO PUSH2 0x1022 JUMPI PUSH2 0x1021 PUSH2 0x2259 JUMP JUMPDEST JUMPDEST PUSH2 0x102E DUP5 DUP3 DUP6 ADD PUSH2 0xE34 JUMP JUMPDEST PUSH1 0xC0 DUP4 ADD MSTORE POP SWAP3 SWAP2 POP POP JUMP JUMPDEST PUSH1 0x0 PUSH2 0x1E0 DUP3 DUP5 SUB SLT ISZERO PUSH2 0x1051 JUMPI PUSH2 0x1050 PUSH2 0x2254 JUMP JUMPDEST JUMPDEST PUSH2 0x105C PUSH2 0x1E0 PUSH2 0x1E18 JUMP JUMPDEST SWAP1 POP PUSH1 0x0 PUSH2 0x106C DUP5 DUP3 DUP6 ADD PUSH2 0x16A2 JUMP JUMPDEST PUSH1 0x0 DUP4 ADD MSTORE POP PUSH1 0x20 DUP3 ADD CALLDATALOAD PUSH8 0xFFFFFFFFFFFFFFFF DUP2 GT ISZERO PUSH2 0x1090 JUMPI PUSH2 0x108F PUSH2 0x2259 JUMP JUMPDEST JUMPDEST PUSH2 0x109C DUP5 DUP3 DUP6 ADD PUSH2 0xE06 JUMP JUMPDEST PUSH1 0x20 DUP4 ADD MSTORE POP PUSH1 0x40 DUP3 ADD CALLDATALOAD PUSH8 0xFFFFFFFFFFFFFFFF DUP2 GT ISZERO PUSH2 0x10C0 JUMPI PUSH2 0x10BF PUSH2 0x2259 JUMP JUMPDEST JUMPDEST PUSH2 0x10CC DUP5 DUP3 DUP6 ADD PUSH2 0xE06 JUMP JUMPDEST PUSH1 0x40 DUP4 ADD MSTORE POP PUSH1 0x60 PUSH2 0x10E0 DUP5 DUP3 DUP6 ADD PUSH2 0x16A2 JUMP JUMPDEST PUSH1 0x60 DUP4 ADD MSTORE POP PUSH1 0x80 DUP3 ADD CALLDATALOAD PUSH8 0xFFFFFFFFFFFFFFFF DUP2 GT ISZERO PUSH2 0x1104 JUMPI PUSH2 0x1103 PUSH2 0x2259 JUMP JUMPDEST JUMPDEST PUSH2 0x1110 DUP5 DUP3 DUP6 ADD PUSH2 0xE06 JUMP JUMPDEST PUSH1 0x80 DUP4 ADD MSTORE POP PUSH1 0xA0 DUP3 ADD CALLDATALOAD PUSH8 0xFFFFFFFFFFFFFFFF DUP2 GT ISZERO PUSH2 0x1134 JUMPI PUSH2 0x1133 PUSH2 0x2259 JUMP JUMPDEST JUMPDEST PUSH2 0x1140 DUP5 DUP3 DUP6 ADD PUSH2 0xE06 JUMP JUMPDEST PUSH1 0xA0 DUP4 ADD MSTORE POP PUSH1 0xC0 DUP3 ADD CALLDATALOAD PUSH8 0xFFFFFFFFFFFFFFFF DUP2 GT ISZERO PUSH2 0x1164 JUMPI PUSH2 0x1163 PUSH2 0x2259 JUMP JUMPDEST JUMPDEST PUSH2 0x1170 DUP5 DUP3 DUP6 ADD PUSH2 0xC5B JUMP JUMPDEST PUSH1 0xC0 DUP4 ADD MSTORE POP PUSH1 0xE0 PUSH2 0x1184 DUP5 DUP3 DUP6 ADD PUSH2 0x16A2 JUMP JUMPDEST PUSH1 0xE0 DUP4 ADD MSTORE POP PUSH2 0x100 PUSH2 0x1199 DUP5 DUP3 DUP6 ADD PUSH2 0x16A2 JUMP JUMPDEST PUSH2 0x100 DUP4 ADD MSTORE POP PUSH2 0x120 PUSH2 0x11AF DUP5 DUP3 DUP6 ADD PUSH2 0xD9D JUMP JUMPDEST PUSH2 0x120 DUP4 ADD MSTORE POP PUSH2 0x140 PUSH2 0x11C5 DUP5 DUP3 DUP6 ADD PUSH2 0xD9D JUMP JUMPDEST PUSH2 0x140 DUP4 ADD MSTORE POP PUSH2 0x160 PUSH2 0x11DB DUP5 DUP3 DUP6 ADD PUSH2 0x16A2 JUMP JUMPDEST PUSH2 0x160 DUP4 ADD MSTORE POP PUSH2 0x180 DUP3 ADD CALLDATALOAD PUSH8 0xFFFFFFFFFFFFFFFF DUP2 GT ISZERO PUSH2 0x1201 JUMPI PUSH2 0x1200 PUSH2 0x2259 JUMP JUMPDEST JUMPDEST PUSH2 0x120D DUP5 DUP3 DUP6 ADD PUSH2 0xCB7 JUMP JUMPDEST PUSH2 0x180 DUP4 ADD MSTORE POP PUSH2 0x1A0 PUSH2 0x1223 DUP5 DUP3 DUP6 ADD PUSH2 0x16A2 JUMP JUMPDEST PUSH2 0x1A0 DUP4 ADD MSTORE POP PUSH2 0x1C0 PUSH2 0x1239 DUP5 DUP3 DUP6 ADD PUSH2 0x16A2 JUMP JUMPDEST PUSH2 0x1C0 DUP4 ADD MSTORE POP SWAP3 SWAP2 POP POP JUMP JUMPDEST PUSH1 0x0 PUSH1 0x80 DUP3 DUP5 SUB SLT ISZERO PUSH2 0x125C JUMPI PUSH2 0x125B PUSH2 0x2254 JUMP JUMPDEST JUMPDEST PUSH2 0x1266 PUSH1 0x80 PUSH2 0x1E18 JUMP JUMPDEST SWAP1 POP PUSH1 0x0 DUP3 ADD CALLDATALOAD PUSH8 0xFFFFFFFFFFFFFFFF DUP2 GT ISZERO PUSH2 0x1286 JUMPI PUSH2 0x1285 PUSH2 0x2259 JUMP JUMPDEST JUMPDEST PUSH2 0x1292 DUP5 DUP3 DUP6 ADD PUSH2 0xE62 JUMP JUMPDEST PUSH1 0x0 DUP4 ADD MSTORE POP PUSH1 0x20 PUSH2 0x12A6 DUP5 DUP3 DUP6 ADD PUSH2 0x16A2 JUMP JUMPDEST PUSH1 0x20 DUP4 ADD MSTORE POP PUSH1 0x40 PUSH2 0x12BA DUP5 DUP3 DUP6 ADD PUSH2 0xDC7 JUMP JUMPDEST PUSH1 0x40 DUP4 ADD MSTORE POP PUSH1 0x60 PUSH2 0x12CE DUP5 DUP3 DUP6 ADD PUSH2 0x16A2 JUMP JUMPDEST PUSH1 0x60 DUP4 ADD MSTORE POP SWAP3 SWAP2 POP POP JUMP JUMPDEST PUSH1 0x0 PUSH1 0x80 DUP3 DUP5 SUB SLT ISZERO PUSH2 0x12F0 JUMPI PUSH2 0x12EF PUSH2 0x2254 JUMP JUMPDEST JUMPDEST PUSH2 0x12FA PUSH1 0x80 PUSH2 0x1E18 JUMP JUMPDEST SWAP1 POP PUSH1 0x0 DUP3 ADD MLOAD PUSH8 0xFFFFFFFFFFFFFFFF DUP2 GT ISZERO PUSH2 0x131A JUMPI PUSH2 0x1319 PUSH2 0x2259 JUMP JUMPDEST JUMPDEST PUSH2 0x1326 DUP5 DUP3 DUP6 ADD PUSH2 0xF4E JUMP JUMPDEST PUSH1 0x0 DUP4 ADD MSTORE POP PUSH1 0x20 PUSH2 0x133A DUP5 DUP3 DUP6 ADD PUSH2 0x16B7 JUMP JUMPDEST PUSH1 0x20 DUP4 ADD MSTORE POP PUSH1 0x40 PUSH2 0x134E DUP5 DUP3 DUP6 ADD PUSH2 0xDDC JUMP JUMPDEST PUSH1 0x40 DUP4 ADD MSTORE POP PUSH1 0x60 PUSH2 0x1362 DUP5 DUP3 DUP6 ADD PUSH2 0x16B7 JUMP JUMPDEST PUSH1 0x60 DUP4 ADD MSTORE POP SWAP3 SWAP2 POP POP JUMP JUMPDEST PUSH1 0x0 PUSH1 0x40 DUP3 DUP5 SUB SLT ISZERO PUSH2 0x1384 JUMPI PUSH2 0x1383 PUSH2 0x2254 JUMP JUMPDEST JUMPDEST PUSH2 0x138E PUSH1 0x40 PUSH2 0x1E18 JUMP JUMPDEST SWAP1 POP PUSH1 0x0 PUSH2 0x139E DUP5 DUP3 DUP6 ADD PUSH2 0xC46 JUMP JUMPDEST PUSH1 0x0 DUP4 ADD MSTORE POP PUSH1 0x20 DUP3 ADD MLOAD PUSH8 0xFFFFFFFFFFFFFFFF DUP2 GT ISZERO PUSH2 0x13C2 JUMPI PUSH2 0x13C1 PUSH2 0x2259 JUMP JUMPDEST JUMPDEST PUSH2 0x13CE DUP5 DUP3 DUP6 ADD PUSH2 0xD6F JUMP JUMPDEST PUSH1 0x20 DUP4 ADD MSTORE POP SWAP3 SWAP2 POP POP JUMP JUMPDEST PUSH1 0x0 PUSH2 0x2A0 DUP3 DUP5 SUB SLT ISZERO PUSH2 0x13F1 JUMPI PUSH2 0x13F0 PUSH2 0x2254 JUMP JUMPDEST JUMPDEST PUSH2 0x13FC PUSH2 0x2A0 PUSH2 0x1E18 JUMP JUMPDEST SWAP1 POP PUSH1 0x0 PUSH2 0x140C DUP5 DUP3 DUP6 ADD PUSH2 0xC46 JUMP JUMPDEST PUSH1 0x0 DUP4 ADD MSTORE POP PUSH1 0x20 PUSH2 0x1420 DUP5 DUP3 DUP6 ADD PUSH2 0x16B7 JUMP JUMPDEST PUSH1 0x20 DUP4 ADD MSTORE POP PUSH1 0x40 DUP3 ADD MLOAD PUSH8 0xFFFFFFFFFFFFFFFF DUP2 GT ISZERO PUSH2 0x1444 JUMPI PUSH2 0x1443 PUSH2 0x2259 JUMP JUMPDEST JUMPDEST PUSH2 0x1450 DUP5 DUP3 DUP6 ADD PUSH2 0xE34 JUMP JUMPDEST PUSH1 0x40 DUP4 ADD MSTORE POP PUSH1 0x60 DUP3 ADD MLOAD PUSH8 0xFFFFFFFFFFFFFFFF DUP2 GT ISZERO PUSH2 0x1474 JUMPI PUSH2 0x1473 PUSH2 0x2259 JUMP JUMPDEST JUMPDEST PUSH2 0x1480 DUP5 DUP3 DUP6 ADD PUSH2 0xE34 JUMP JUMPDEST PUSH1 0x60 DUP4 ADD MSTORE POP PUSH1 0x80 PUSH2 0x1494 DUP5 DUP3 DUP6 ADD PUSH2 0x16B7 JUMP JUMPDEST PUSH1 0x80 DUP4 ADD MSTORE POP PUSH1 0xA0 DUP3 ADD MLOAD PUSH8 0xFFFFFFFFFFFFFFFF DUP2 GT ISZERO PUSH2 0x14B8 JUMPI PUSH2 0x14B7 PUSH2 0x2259 JUMP JUMPDEST JUMPDEST PUSH2 0x14C4 DUP5 DUP3 DUP6 ADD PUSH2 0xE34 JUMP JUMPDEST PUSH1 0xA0 DUP4 ADD MSTORE POP PUSH1 0xC0 DUP3 ADD MLOAD PUSH8 0xFFFFFFFFFFFFFFFF DUP2 GT ISZERO PUSH2 0x14E8 JUMPI PUSH2 0x14E7 PUSH2 0x2259 JUMP JUMPDEST JUMPDEST PUSH2 0x14F4 DUP5 DUP3 DUP6 ADD PUSH2 0xE34 JUMP JUMPDEST PUSH1 0xC0 DUP4 ADD MSTORE POP PUSH1 0xE0 DUP3 ADD MLOAD PUSH8 0xFFFFFFFFFFFFFFFF DUP2 GT ISZERO PUSH2 0x1518 JUMPI PUSH2 0x1517 PUSH2 0x2259 JUMP JUMPDEST JUMPDEST PUSH2 0x1524 DUP5 DUP3 DUP6 ADD PUSH2 0xC89 JUMP JUMPDEST PUSH1 0xE0 DUP4 ADD MSTORE POP PUSH2 0x100 PUSH2 0x1539 DUP5 DUP3 DUP6 ADD PUSH2 0x16B7 JUMP JUMPDEST PUSH2 0x100 DUP4 ADD MSTORE POP PUSH2 0x120 PUSH2 0x154F DUP5 DUP3 DUP6 ADD PUSH2 0x16B7 JUMP JUMPDEST PUSH2 0x120 DUP4 ADD MSTORE POP PUSH2 0x140 PUSH2 0x1565 DUP5 DUP3 DUP6 ADD PUSH2 0xDB2 JUMP JUMPDEST PUSH2 0x140 DUP4 ADD MSTORE POP PUSH2 0x160 PUSH2 0x157B DUP5 DUP3 DUP6 ADD PUSH2 0xDB2 JUMP JUMPDEST PUSH2 0x160 DUP4 ADD MSTORE POP PUSH2 0x180 PUSH2 0x1591 DUP5 DUP3 DUP6 ADD PUSH2 0x16B7 JUMP JUMPDEST PUSH2 0x180 DUP4 ADD MSTORE POP PUSH2 0x1A0 DUP3 ADD MLOAD PUSH8 0xFFFFFFFFFFFFFFFF DUP2 GT ISZERO PUSH2 0x15B7 JUMPI PUSH2 0x15B6 PUSH2 0x2259 JUMP JUMPDEST JUMPDEST PUSH2 0x15C3 DUP5 DUP3 DUP6 ADD PUSH2 0xCE5 JUMP JUMPDEST PUSH2 0x1A0 DUP4 ADD MSTORE POP PUSH2 0x1C0 DUP3 ADD MLOAD PUSH8 0xFFFFFFFFFFFFFFFF DUP2 GT ISZERO PUSH2 0x15E9 JUMPI PUSH2 0x15E8 PUSH2 0x2259 JUMP JUMPDEST JUMPDEST PUSH2 0x15F5 DUP5 DUP3 DUP6 ADD PUSH2 0xD13 JUMP JUMPDEST PUSH2 0x1C0 DUP4 ADD MSTORE POP PUSH2 0x1E0 DUP3 ADD MLOAD PUSH8 0xFFFFFFFFFFFFFFFF DUP2 GT ISZERO PUSH2 0x161B JUMPI PUSH2 0x161A PUSH2 0x2259 JUMP JUMPDEST JUMPDEST PUSH2 0x1627 DUP5 DUP3 DUP6 ADD PUSH2 0xD13 JUMP JUMPDEST PUSH2 0x1E0 DUP4 ADD MSTORE POP PUSH2 0x200 PUSH2 0x163D DUP5 DUP3 DUP6 ADD PUSH2 0x16B7 JUMP JUMPDEST PUSH2 0x200 DUP4 ADD MSTORE POP PUSH2 0x220 PUSH2 0x1653 DUP5 DUP3 DUP6 ADD PUSH2 0x16B7 JUMP JUMPDEST PUSH2 0x220 DUP4 ADD MSTORE POP PUSH2 0x240 PUSH2 0x1669 DUP5 DUP3 DUP6 ADD PUSH2 0xDB2 JUMP JUMPDEST PUSH2 0x240 DUP4 ADD MSTORE POP PUSH2 0x260 PUSH2 0x167F DUP5 DUP3 DUP6 ADD PUSH2 0xDB2 JUMP JUMPDEST PUSH2 0x260 DUP4 ADD MSTORE POP PUSH2 0x280 PUSH2 0x1695 DUP5 DUP3 DUP6 ADD PUSH2 0xDF1 JUMP JUMPDEST PUSH2 0x280 DUP4 ADD MSTORE POP SWAP3 SWAP2 POP POP JUMP JUMPDEST PUSH1 0x0 DUP2 CALLDATALOAD SWAP1 POP PUSH2 0x16B1 DUP2 PUSH2 0x22F9 JUMP JUMPDEST SWAP3 SWAP2 POP POP JUMP JUMPDEST PUSH1 0x0 DUP2 MLOAD SWAP1 POP PUSH2 0x16C6 DUP2 PUSH2 0x22F9 JUMP JUMPDEST SWAP3 SWAP2 POP POP JUMP JUMPDEST PUSH1 0x0 PUSH1 0x20 DUP3 DUP5 SUB SLT ISZERO PUSH2 0x16E2 JUMPI PUSH2 0x16E1 PUSH2 0x226D JUMP JUMPDEST JUMPDEST PUSH1 0x0 PUSH2 0x16F0 DUP5 DUP3 DUP6 ADD PUSH2 0xDB2 JUMP JUMPDEST SWAP2 POP POP SWAP3 SWAP2 POP POP JUMP JUMPDEST PUSH1 0x0 PUSH1 0x20 DUP3 DUP5 SUB SLT ISZERO PUSH2 0x170F JUMPI PUSH2 0x170E PUSH2 0x226D JUMP JUMPDEST JUMPDEST PUSH1 0x0 DUP3 ADD CALLDATALOAD PUSH8 0xFFFFFFFFFFFFFFFF DUP2 GT ISZERO PUSH2 0x172D JUMPI PUSH2 0x172C PUSH2 0x2268 JUMP JUMPDEST JUMPDEST PUSH2 0x1739 DUP5 DUP3 DUP6 ADD PUSH2 0x103A JUMP JUMPDEST SWAP2 POP POP SWAP3 SWAP2 POP POP JUMP JUMPDEST PUSH1 0x0 PUSH1 0x20 DUP3 DUP5 SUB SLT ISZERO PUSH2 0x1758 JUMPI PUSH2 0x1757 PUSH2 0x226D JUMP JUMPDEST JUMPDEST PUSH1 0x0 DUP3 ADD MLOAD PUSH8 0xFFFFFFFFFFFFFFFF DUP2 GT ISZERO PUSH2 0x1776 JUMPI PUSH2 0x1775 PUSH2 0x2268 JUMP JUMPDEST JUMPDEST PUSH2 0x1782 DUP5 DUP3 DUP6 ADD PUSH2 0x13DA JUMP JUMPDEST SWAP2 POP POP SWAP3 SWAP2 POP POP JUMP JUMPDEST PUSH1 0x0 PUSH1 0x20 DUP3 DUP5 SUB SLT ISZERO PUSH2 0x17A1 JUMPI PUSH2 0x17A0 PUSH2 0x226D JUMP JUMPDEST JUMPDEST PUSH1 0x0 PUSH2 0x17AF DUP5 DUP3 DUP6 ADD PUSH2 0x16A2 JUMP JUMPDEST SWAP2 POP POP SWAP3 SWAP2 POP POP JUMP JUMPDEST PUSH1 0x0 PUSH1 0x20 DUP3 DUP5 SUB SLT ISZERO PUSH2 0x17CE JUMPI PUSH2 0x17CD PUSH2 0x226D JUMP JUMPDEST JUMPDEST PUSH1 0x0 PUSH2 0x17DC DUP5 DUP3 DUP6 ADD PUSH2 0x16B7 JUMP JUMPDEST SWAP2 POP POP SWAP3 SWAP2 POP POP JUMP JUMPDEST PUSH1 0x0 DUP1 PUSH1 0x0 PUSH1 0x60 DUP5 DUP7 SUB SLT ISZERO PUSH2 0x17FE JUMPI PUSH2 0x17FD PUSH2 0x226D JUMP JUMPDEST JUMPDEST PUSH1 0x0 PUSH2 0x180C DUP7 DUP3 DUP8 ADD PUSH2 0x16A2 JUMP JUMPDEST SWAP4 POP POP PUSH1 0x20 DUP5 ADD CALLDATALOAD PUSH8 0xFFFFFFFFFFFFFFFF DUP2 GT ISZERO PUSH2 0x182D JUMPI PUSH2 0x182C PUSH2 0x2268 JUMP JUMPDEST JUMPDEST PUSH2 0x1839 DUP7 DUP3 DUP8 ADD PUSH2 0xD41 JUMP JUMPDEST SWAP3 POP POP PUSH1 0x40 PUSH2 0x184A DUP7 DUP3 DUP8 ADD PUSH2 0x16A2 JUMP JUMPDEST SWAP2 POP POP SWAP3 POP SWAP3 POP SWAP3 JUMP JUMPDEST PUSH1 0x0 PUSH2 0x1860 DUP4 DUP4 PUSH2 0x1A27 JUMP JUMPDEST SWAP1 POP SWAP3 SWAP2 POP POP JUMP JUMPDEST PUSH1 0x0 PUSH2 0x1874 DUP4 DUP4 PUSH2 0x1C69 JUMP JUMPDEST SWAP1 POP SWAP3 SWAP2 POP POP JUMP JUMPDEST PUSH1 0x0 PUSH2 0x1888 DUP4 DUP4 PUSH2 0x1CCC JUMP JUMPDEST PUSH1 0x20 DUP4 ADD SWAP1 POP SWAP3 SWAP2 POP POP JUMP JUMPDEST PUSH2 0x189D DUP2 PUSH2 0x2016 JUMP JUMPDEST DUP3 MSTORE POP POP JUMP JUMPDEST PUSH1 0x0 PUSH2 0x18AE DUP3 PUSH2 0x1F4E JUMP JUMPDEST PUSH2 0x18B8 DUP2 DUP6 PUSH2 0x1FA1 JUMP JUMPDEST SWAP4 POP DUP4 PUSH1 0x20 DUP3 MUL DUP6 ADD PUSH2 0x18CA DUP6 PUSH2 0x1F1E JUMP JUMPDEST DUP1 PUSH1 0x0 JUMPDEST DUP6 DUP2 LT ISZERO PUSH2 0x1906 JUMPI DUP5 DUP5 SUB DUP10 MSTORE DUP2 MLOAD PUSH2 0x18E7 DUP6 DUP3 PUSH2 0x1854 JUMP JUMPDEST SWAP5 POP PUSH2 0x18F2 DUP4 PUSH2 0x1F7A JUMP JUMPDEST SWAP3 POP PUSH1 0x20 DUP11 ADD SWAP10 POP POP PUSH1 0x1 DUP2 ADD SWAP1 POP PUSH2 0x18CE JUMP JUMPDEST POP DUP3 SWAP8 POP DUP8 SWAP6 POP POP POP POP POP POP SWAP3 SWAP2 POP POP JUMP JUMPDEST PUSH1 0x0 PUSH2 0x1923 DUP3 PUSH2 0x1F59 JUMP JUMPDEST PUSH2 0x192D DUP2 DUP6 PUSH2 0x1FB2 JUMP JUMPDEST SWAP4 POP DUP4 PUSH1 0x20 DUP3 MUL DUP6 ADD PUSH2 0x193F DUP6 PUSH2 0x1F2E JUMP JUMPDEST DUP1 PUSH1 0x0 JUMPDEST DUP6 DUP2 LT ISZERO PUSH2 0x197B JUMPI DUP5 DUP5 SUB DUP10 MSTORE DUP2 MLOAD PUSH2 0x195C DUP6 DUP3 PUSH2 0x1868 JUMP JUMPDEST SWAP5 POP PUSH2 0x1967 DUP4 PUSH2 0x1F87 JUMP JUMPDEST SWAP3 POP PUSH1 0x20 DUP11 ADD SWAP10 POP POP PUSH1 0x1 DUP2 ADD SWAP1 POP PUSH2 0x1943 JUMP JUMPDEST POP DUP3 SWAP8 POP DUP8 SWAP6 POP POP POP POP POP POP SWAP3 SWAP2 POP POP JUMP JUMPDEST PUSH1 0x0 PUSH2 0x1998 DUP3 PUSH2 0x1F64 JUMP JUMPDEST PUSH2 0x19A2 DUP2 DUP6 PUSH2 0x1FC3 JUMP JUMPDEST SWAP4 POP PUSH2 0x19AD DUP4 PUSH2 0x1F3E JUMP JUMPDEST DUP1 PUSH1 0x0 JUMPDEST DUP4 DUP2 LT ISZERO PUSH2 0x19DE JUMPI DUP2 MLOAD PUSH2 0x19C5 DUP9 DUP3 PUSH2 0x187C JUMP JUMPDEST SWAP8 POP PUSH2 0x19D0 DUP4 PUSH2 0x1F94 JUMP JUMPDEST SWAP3 POP POP PUSH1 0x1 DUP2 ADD SWAP1 POP PUSH2 0x19B1 JUMP JUMPDEST POP DUP6 SWAP4 POP POP POP POP SWAP3 SWAP2 POP POP JUMP JUMPDEST PUSH2 0x19F4 DUP2 PUSH2 0x2028 JUMP JUMPDEST DUP3 MSTORE POP POP JUMP JUMPDEST PUSH2 0x1A03 DUP2 PUSH2 0x2028 JUMP JUMPDEST DUP3 MSTORE POP POP JUMP JUMPDEST PUSH2 0x1A12 DUP2 PUSH2 0x2084 JUMP JUMPDEST DUP3 MSTORE POP POP JUMP JUMPDEST PUSH2 0x1A21 DUP2 PUSH2 0x2096 JUMP JUMPDEST DUP3 MSTORE POP POP JUMP JUMPDEST PUSH1 0x0 PUSH2 0x1A32 DUP3 PUSH2 0x1F6F JUMP JUMPDEST PUSH2 0x1A3C DUP2 DUP6 PUSH2 0x1FD4 JUMP JUMPDEST SWAP4 POP PUSH2 0x1A4C DUP2 DUP6 PUSH1 0x20 DUP7 ADD PUSH2 0x20B7 JUMP JUMPDEST PUSH2 0x1A55 DUP2 PUSH2 0x2272 JUMP JUMPDEST DUP5 ADD SWAP2 POP POP SWAP3 SWAP2 POP POP JUMP JUMPDEST PUSH1 0x0 PUSH1 0xE0 DUP4 ADD PUSH1 0x0 DUP4 ADD MLOAD DUP5 DUP3 SUB PUSH1 0x0 DUP7 ADD MSTORE PUSH2 0x1A7D DUP3 DUP3 PUSH2 0x1A27 JUMP JUMPDEST SWAP2 POP POP PUSH1 0x20 DUP4 ADD MLOAD PUSH2 0x1A92 PUSH1 0x20 DUP7 ADD DUP3 PUSH2 0x1CCC JUMP JUMPDEST POP PUSH1 0x40 DUP4 ADD MLOAD PUSH2 0x1AA5 PUSH1 0x40 DUP7 ADD DUP3 PUSH2 0x1CCC JUMP JUMPDEST POP PUSH1 0x60 DUP4 ADD MLOAD PUSH2 0x1AB8 PUSH1 0x60 DUP7 ADD DUP3 PUSH2 0x1CCC JUMP JUMPDEST POP PUSH1 0x80 DUP4 ADD MLOAD PUSH2 0x1ACB PUSH1 0x80 DUP7 ADD DUP3 PUSH2 0x1CCC JUMP JUMPDEST POP PUSH1 0xA0 DUP4 ADD MLOAD PUSH2 0x1ADE PUSH1 0xA0 DUP7 ADD DUP3 PUSH2 0x1CCC JUMP JUMPDEST POP PUSH1 0xC0 DUP4 ADD MLOAD DUP5 DUP3 SUB PUSH1 0xC0 DUP7 ADD MSTORE PUSH2 0x1AF6 DUP3 DUP3 PUSH2 0x1A27 JUMP JUMPDEST SWAP2 POP POP DUP1 SWAP2 POP POP SWAP3 SWAP2 POP POP JUMP JUMPDEST PUSH1 0x0 PUSH2 0x1E0 DUP4 ADD PUSH1 0x0 DUP4 ADD MLOAD PUSH2 0x1B1C PUSH1 0x0 DUP7 ADD DUP3 PUSH2 0x1CCC JUMP JUMPDEST POP PUSH1 0x20 DUP4 ADD MLOAD DUP5 DUP3 SUB PUSH1 0x20 DUP7 ADD MSTORE PUSH2 0x1B34 DUP3 DUP3 PUSH2 0x1A27 JUMP JUMPDEST SWAP2 POP POP PUSH1 0x40 DUP4 ADD MLOAD DUP5 DUP3 SUB PUSH1 0x40 DUP7 ADD MSTORE PUSH2 0x1B4E DUP3 DUP3 PUSH2 0x1A27 JUMP JUMPDEST SWAP2 POP POP PUSH1 0x60 DUP4 ADD MLOAD PUSH2 0x1B63 PUSH1 0x60 DUP7 ADD DUP3 PUSH2 0x1CCC JUMP JUMPDEST POP PUSH1 0x80 DUP4 ADD MLOAD DUP5 DUP3 SUB PUSH1 0x80 DUP7 ADD MSTORE PUSH2 0x1B7B DUP3 DUP3 PUSH2 0x1A27 JUMP JUMPDEST SWAP2 POP POP PUSH1 0xA0 DUP4 ADD MLOAD DUP5 DUP3 SUB PUSH1 0xA0 DUP7 ADD MSTORE PUSH2 0x1B95 DUP3 DUP3 PUSH2 0x1A27 JUMP JUMPDEST SWAP2 POP POP PUSH1 0xC0 DUP4 ADD MLOAD DUP5 DUP3 SUB PUSH1 0xC0 DUP7 ADD MSTORE PUSH2 0x1BAF DUP3 DUP3 PUSH2 0x18A3 JUMP JUMPDEST SWAP2 POP POP PUSH1 0xE0 DUP4 ADD MLOAD PUSH2 0x1BC4 PUSH1 0xE0 DUP7 ADD DUP3 PUSH2 0x1CCC JUMP JUMPDEST POP PUSH2 0x100 DUP4 ADD MLOAD PUSH2 0x1BD9 PUSH2 0x100 DUP7 ADD DUP3 PUSH2 0x1CCC JUMP JUMPDEST POP PUSH2 0x120 DUP4 ADD MLOAD PUSH2 0x1BEE PUSH2 0x120 DUP7 ADD DUP3 PUSH2 0x19EB JUMP JUMPDEST POP PUSH2 0x140 DUP4 ADD MLOAD PUSH2 0x1C03 PUSH2 0x140 DUP7 ADD DUP3 PUSH2 0x19EB JUMP JUMPDEST POP PUSH2 0x160 DUP4 ADD MLOAD PUSH2 0x1C18 PUSH2 0x160 DUP7 ADD DUP3 PUSH2 0x1CCC JUMP JUMPDEST POP PUSH2 0x180 DUP4 ADD MLOAD DUP5 DUP3 SUB PUSH2 0x180 DUP7 ADD MSTORE PUSH2 0x1C32 DUP3 DUP3 PUSH2 0x1918 JUMP JUMPDEST SWAP2 POP POP PUSH2 0x1A0 DUP4 ADD MLOAD PUSH2 0x1C49 PUSH2 0x1A0 DUP7 ADD DUP3 PUSH2 0x1CCC JUMP JUMPDEST POP PUSH2 0x1C0 DUP4 ADD MLOAD PUSH2 0x1C5E PUSH2 0x1C0 DUP7 ADD DUP3 PUSH2 0x1CCC JUMP JUMPDEST POP DUP1 SWAP2 POP POP SWAP3 SWAP2 POP POP JUMP JUMPDEST PUSH1 0x0 PUSH1 0x80 DUP4 ADD PUSH1 0x0 DUP4 ADD MLOAD DUP5 DUP3 SUB PUSH1 0x0 DUP7 ADD MSTORE PUSH2 0x1C86 DUP3 DUP3 PUSH2 0x1A60 JUMP JUMPDEST SWAP2 POP POP PUSH1 0x20 DUP4 ADD MLOAD PUSH2 0x1C9B PUSH1 0x20 DUP7 ADD DUP3 PUSH2 0x1CCC JUMP JUMPDEST POP PUSH1 0x40 DUP4 ADD MLOAD PUSH2 0x1CAE PUSH1 0x40 DUP7 ADD DUP3 PUSH2 0x1A09 JUMP JUMPDEST POP PUSH1 0x60 DUP4 ADD MLOAD PUSH2 0x1CC1 PUSH1 0x60 DUP7 ADD DUP3 PUSH2 0x1CCC JUMP JUMPDEST POP DUP1 SWAP2 POP POP SWAP3 SWAP2 POP POP JUMP JUMPDEST PUSH2 0x1CD5 DUP2 PUSH2 0x207A JUMP JUMPDEST DUP3 MSTORE POP POP JUMP JUMPDEST PUSH2 0x1CE4 DUP2 PUSH2 0x207A JUMP JUMPDEST DUP3 MSTORE POP POP JUMP JUMPDEST PUSH1 0x0 PUSH1 0x40 DUP3 ADD SWAP1 POP PUSH2 0x1CFF PUSH1 0x0 DUP4 ADD DUP6 PUSH2 0x1894 JUMP JUMPDEST DUP2 DUP2 SUB PUSH1 0x20 DUP4 ADD MSTORE PUSH2 0x1D11 DUP2 DUP5 PUSH2 0x1B03 JUMP JUMPDEST SWAP1 POP SWAP4 SWAP3 POP POP POP JUMP JUMPDEST PUSH1 0x0 PUSH1 0x20 DUP3 ADD SWAP1 POP PUSH2 0x1D2F PUSH1 0x0 DUP4 ADD DUP5 PUSH2 0x1CDB JUMP JUMPDEST SWAP3 SWAP2 POP POP JUMP JUMPDEST PUSH1 0x0 PUSH1 0x80 DUP3 ADD SWAP1 POP PUSH2 0x1D4A PUSH1 0x0 DUP4 ADD DUP8 PUSH2 0x1CDB JUMP JUMPDEST DUP2 DUP2 SUB PUSH1 0x20 DUP4 ADD MSTORE PUSH2 0x1D5C DUP2 DUP7 PUSH2 0x198D JUMP JUMPDEST SWAP1 POP PUSH2 0x1D6B PUSH1 0x40 DUP4 ADD DUP6 PUSH2 0x1CDB JUMP JUMPDEST PUSH2 0x1D78 PUSH1 0x60 DUP4 ADD DUP5 PUSH2 0x1894 JUMP JUMPDEST SWAP6 SWAP5 POP POP POP POP POP JUMP JUMPDEST PUSH1 0x0 PUSH1 0x40 DUP3 ADD SWAP1 POP PUSH2 0x1D96 PUSH1 0x0 DUP4 ADD DUP6 PUSH2 0x1CDB JUMP JUMPDEST PUSH2 0x1DA3 PUSH1 0x20 DUP4 ADD DUP5 PUSH2 0x19FA JUMP JUMPDEST SWAP4 SWAP3 POP POP POP JUMP JUMPDEST PUSH1 0x0 PUSH1 0x40 DUP3 ADD SWAP1 POP PUSH2 0x1DBF PUSH1 0x0 DUP4 ADD DUP6 PUSH2 0x1CDB JUMP JUMPDEST PUSH2 0x1DCC PUSH1 0x20 DUP4 ADD DUP5 PUSH2 0x1A18 JUMP JUMPDEST SWAP4 SWAP3 POP POP POP JUMP JUMPDEST PUSH1 0x0 PUSH1 0x80 DUP3 ADD SWAP1 POP PUSH2 0x1DE8 PUSH1 0x0 DUP4 ADD DUP8 PUSH2 0x1CDB JUMP JUMPDEST PUSH2 0x1DF5 PUSH1 0x20 DUP4 ADD DUP7 PUSH2 0x1CDB JUMP JUMPDEST PUSH2 0x1E02 PUSH1 0x40 DUP4 ADD DUP6 PUSH2 0x1CDB JUMP JUMPDEST PUSH2 0x1E0F PUSH1 0x60 DUP4 ADD DUP5 PUSH2 0x1894 JUMP JUMPDEST SWAP6 SWAP5 POP POP POP POP POP JUMP JUMPDEST PUSH1 0x0 PUSH2 0x1E22 PUSH2 0x1E33 JUMP JUMPDEST SWAP1 POP PUSH2 0x1E2E DUP3 DUP3 PUSH2 0x20EA JUMP JUMPDEST SWAP2 SWAP1 POP JUMP JUMPDEST PUSH1 0x0 PUSH1 0x40 MLOAD SWAP1 POP SWAP1 JUMP JUMPDEST PUSH1 0x0 PUSH8 0xFFFFFFFFFFFFFFFF DUP3 GT ISZERO PUSH2 0x1E58 JUMPI PUSH2 0x1E57 PUSH2 0x2220 JUMP JUMPDEST JUMPDEST PUSH1 0x20 DUP3 MUL SWAP1 POP PUSH1 0x20 DUP2 ADD SWAP1 POP SWAP2 SWAP1 POP JUMP JUMPDEST PUSH1 0x0 PUSH8 0xFFFFFFFFFFFFFFFF DUP3 GT ISZERO PUSH2 0x1E84 JUMPI PUSH2 0x1E83 PUSH2 0x2220 JUMP JUMPDEST JUMPDEST PUSH1 0x20 DUP3 MUL SWAP1 POP PUSH1 0x20 DUP2 ADD SWAP1 POP SWAP2 SWAP1 POP JUMP JUMPDEST PUSH1 0x0 PUSH8 0xFFFFFFFFFFFFFFFF DUP3 GT ISZERO PUSH2 0x1EB0 JUMPI PUSH2 0x1EAF PUSH2 0x2220 JUMP JUMPDEST JUMPDEST PUSH1 0x20 DUP3 MUL SWAP1 POP PUSH1 0x20 DUP2 ADD SWAP1 POP SWAP2 SWAP1 POP JUMP JUMPDEST PUSH1 0x0 PUSH8 0xFFFFFFFFFFFFFFFF DUP3 GT ISZERO PUSH2 0x1EDC JUMPI PUSH2 0x1EDB PUSH2 0x2220 JUMP JUMPDEST JUMPDEST PUSH1 0x20 DUP3 MUL SWAP1 POP PUSH1 0x20 DUP2 ADD SWAP1 POP SWAP2 SWAP1 POP JUMP JUMPDEST PUSH1 0x0 PUSH8 0xFFFFFFFFFFFFFFFF DUP3 GT ISZERO PUSH2 0x1F08 JUMPI PUSH2 0x1F07 PUSH2 0x2220 JUMP JUMPDEST JUMPDEST PUSH2 0x1F11 DUP3 PUSH2 0x2272 JUMP JUMPDEST SWAP1 POP PUSH1 0x20 DUP2 ADD SWAP1 POP SWAP2 SWAP1 POP JUMP JUMPDEST PUSH1 0x0 DUP2 SWAP1 POP PUSH1 0x20 DUP3 ADD SWAP1 POP SWAP2 SWAP1 POP JUMP JUMPDEST PUSH1 0x0 DUP2 SWAP1 POP PUSH1 0x20 DUP3 ADD SWAP1 POP SWAP2 SWAP1 POP JUMP JUMPDEST PUSH1 0x0 DUP2 SWAP1 POP PUSH1 0x20 DUP3 ADD SWAP1 POP SWAP2 SWAP1 POP JUMP JUMPDEST PUSH1 0x0 DUP2 MLOAD SWAP1 POP SWAP2 SWAP1 POP JUMP JUMPDEST PUSH1 0x0 DUP2 MLOAD SWAP1 POP SWAP2 SWAP1 POP JUMP JUMPDEST PUSH1 0x0 DUP2 MLOAD SWAP1 POP SWAP2 SWAP1 POP JUMP JUMPDEST PUSH1 0x0 DUP2 MLOAD SWAP1 POP SWAP2 SWAP1 POP JUMP JUMPDEST PUSH1 0x0 PUSH1 0x20 DUP3 ADD SWAP1 POP SWAP2 SWAP1 POP JUMP JUMPDEST PUSH1 0x0 PUSH1 0x20 DUP3 ADD SWAP1 POP SWAP2 SWAP1 POP JUMP JUMPDEST PUSH1 0x0 PUSH1 0x20 DUP3 ADD SWAP1 POP SWAP2 SWAP1 POP JUMP JUMPDEST PUSH1 0x0 DUP3 DUP3 MSTORE PUSH1 0x20 DUP3 ADD SWAP1 POP SWAP3 SWAP2 POP POP JUMP JUMPDEST PUSH1 0x0 DUP3 DUP3 MSTORE PUSH1 0x20 DUP3 ADD SWAP1 POP SWAP3 SWAP2 POP POP JUMP JUMPDEST PUSH1 0x0 DUP3 DUP3 MSTORE PUSH1 0x20 DUP3 ADD SWAP1 POP SWAP3 SWAP2 POP POP JUMP JUMPDEST PUSH1 0x0 DUP3 DUP3 MSTORE PUSH1 0x20 DUP3 ADD SWAP1 POP SWAP3 SWAP2 POP POP JUMP JUMPDEST PUSH1 0x0 PUSH2 0x1FF0 DUP3 PUSH2 0x207A JUMP JUMPDEST SWAP2 POP PUSH2 0x1FFB DUP4 PUSH2 0x207A JUMP JUMPDEST SWAP3 POP DUP3 PUSH2 0x200B JUMPI PUSH2 0x200A PUSH2 0x2193 JUMP JUMPDEST JUMPDEST DUP3 DUP3 DIV SWAP1 POP SWAP3 SWAP2 POP POP JUMP JUMPDEST PUSH1 0x0 PUSH2 0x2021 DUP3 PUSH2 0x205A JUMP JUMPDEST SWAP1 POP SWAP2 SWAP1 POP JUMP JUMPDEST PUSH1 0x0 DUP2 ISZERO ISZERO SWAP1 POP SWAP2 SWAP1 POP JUMP JUMPDEST PUSH1 0x0 DUP2 SWAP1 POP PUSH2 0x2042 DUP3 PUSH2 0x2283 JUMP JUMPDEST SWAP2 SWAP1 POP JUMP JUMPDEST PUSH1 0x0 DUP2 SWAP1 POP PUSH2 0x2055 DUP3 PUSH2 0x2297 JUMP JUMPDEST SWAP2 SWAP1 POP JUMP JUMPDEST PUSH1 0x0 PUSH20 0xFFFFFFFFFFFFFFFFFFFFFFFFFFFFFFFFFFFFFFFF DUP3 AND SWAP1 POP SWAP2 SWAP1 POP JUMP JUMPDEST PUSH1 0x0 DUP2 SWAP1 POP SWAP2 SWAP1 POP JUMP JUMPDEST PUSH1 0x0 PUSH2 0x208F DUP3 PUSH2 0x2034 JUMP JUMPDEST SWAP1 POP SWAP2 SWAP1 POP JUMP JUMPDEST PUSH1 0x0 PUSH2 0x20A1 DUP3 PUSH2 0x2047 JUMP JUMPDEST SWAP1 POP SWAP2 SWAP1 POP JUMP JUMPDEST DUP3 DUP2 DUP4 CALLDATACOPY PUSH1 0x0 DUP4 DUP4 ADD MSTORE POP POP POP JUMP JUMPDEST PUSH1 0x0 JUMPDEST DUP4 DUP2 LT ISZERO PUSH2 0x20D5 JUMPI DUP1 DUP3 ADD MLOAD DUP2 DUP5 ADD MSTORE PUSH1 0x20 DUP2 ADD SWAP1 POP PUSH2 0x20BA JUMP JUMPDEST DUP4 DUP2 GT ISZERO PUSH2 0x20E4 JUMPI PUSH1 0x0 DUP5 DUP5 ADD MSTORE JUMPDEST POP POP POP POP JUMP JUMPDEST PUSH2 0x20F3 DUP3 PUSH2 0x2272 JUMP JUMPDEST DUP2 ADD DUP2 DUP2 LT PUSH8 0xFFFFFFFFFFFFFFFF DUP3 GT OR ISZERO PUSH2 0x2112 JUMPI PUSH2 0x2111 PUSH2 0x2220 JUMP JUMPDEST JUMPDEST DUP1 PUSH1 0x40 MSTORE POP POP POP JUMP JUMPDEST PUSH1 0x0 PUSH2 0x2126 DUP3 PUSH2 0x207A JUMP JUMPDEST SWAP2 POP PUSH32 0xFFFFFFFFFFFFFFFFFFFFFFFFFFFFFFFFFFFFFFFFFFFFFFFFFFFFFFFFFFFFFFFF DUP3 EQ ISZERO PUSH2 0x2159 JUMPI PUSH2 0x2158 PUSH2 0x2164 JUMP JUMPDEST JUMPDEST PUSH1 0x1 DUP3 ADD SWAP1 POP SWAP2 SWAP1 POP JUMP JUMPDEST PUSH32 0x4E487B7100000000000000000000000000000000000000000000000000000000 PUSH1 0x0 MSTORE PUSH1 0x11 PUSH1 0x4 MSTORE PUSH1 0x24 PUSH1 0x0 REVERT JUMPDEST PUSH32 0x4E487B7100000000000000000000000000000000000000000000000000000000 PUSH1 0x0 MSTORE PUSH1 0x12 PUSH1 0x4 MSTORE PUSH1 0x24 PUSH1 0x0 REVERT JUMPDEST PUSH32 0x4E487B7100000000000000000000000000000000000000000000000000000000 PUSH1 0x0 MSTORE PUSH1 0x21 PUSH1 0x4 MSTORE PUSH1 0x24 PUSH1 0x0 REVERT JUMPDEST PUSH32 0x4E487B7100000000000000000000000000000000000000000000000000000000 PUSH1 0x0 MSTORE PUSH1 0x32 PUSH1 0x4 MSTORE PUSH1 0x24 PUSH1 0x0 REVERT JUMPDEST PUSH32 0x4E487B7100000000000000000000000000000000000000000000000000000000 PUSH1 0x0 MSTORE PUSH1 0x41 PUSH1 0x4 MSTORE PUSH1 0x24 PUSH1 0x0 REVERT JUMPDEST PUSH1 0x0 DUP1 REVERT JUMPDEST PUSH1 0x0 DUP1 REVERT JUMPDEST PUSH1 0x0 DUP1 REVERT JUMPDEST PUSH1 0x0 DUP1 REVERT JUMPDEST PUSH1 0x0 DUP1 REVERT JUMPDEST PUSH1 0x0 DUP1 REVERT JUMPDEST PUSH1 0x0 DUP1 REVERT JUMPDEST PUSH1 0x0 PUSH1 0x1F NOT PUSH1 0x1F DUP4 ADD AND SWAP1 POP SWAP2 SWAP1 POP JUMP JUMPDEST PUSH1 0x7 DUP2 LT PUSH2 0x2294 JUMPI PUSH2 0x2293 PUSH2 0x21C2 JUMP JUMPDEST JUMPDEST POP JUMP JUMPDEST PUSH1 0x6 DUP2 LT PUSH2 0x22A8 JUMPI PUSH2 0x22A7 PUSH2 0x21C2 JUMP JUMPDEST JUMPDEST POP JUMP JUMPDEST PUSH2 0x22B4 DUP2 PUSH2 0x2016 JUMP JUMPDEST DUP2 EQ PUSH2 0x22BF JUMPI PUSH1 0x0 DUP1 REVERT JUMPDEST POP JUMP JUMPDEST PUSH2 0x22CB DUP2 PUSH2 0x2028 JUMP JUMPDEST DUP2 EQ PUSH2 0x22D6 JUMPI PUSH1 0x0 DUP1 REVERT JUMPDEST POP JUMP JUMPDEST PUSH1 0x7 DUP2 LT PUSH2 0x22E6 JUMPI PUSH1 0x0 DUP1 REVERT JUMPDEST POP JUMP JUMPDEST PUSH1 0x6 DUP2 LT PUSH2 0x22F6 JUMPI PUSH1 0x0 DUP1 REVERT JUMPDEST POP JUMP JUMPDEST PUSH2 0x2302 DUP2 PUSH2 0x207A JUMP JUMPDEST DUP2 EQ PUSH2 0x230D JUMPI PUSH1 0x0 DUP1 REVERT JUMPDEST POP JUMP INVALID LOG2 PUSH5 0x6970667358 0x22 SLT KECCAK256 DUP5 ADD 0xA5 0xC9 DUP10 DIFFICULTY 0x4E DUP11 STATICCALL DUP3 0x22 PUSH32 0x8EC7C2DCAAA5A1737C862ADFADA0E8288D5A12B364736F6C6343000807003300 "
		},
		"gasEstimates": {
			"creation": {
				"codeDepositCost": "1806000",
				"executionCost": "infinite",
				"totalCost": "infinite"
			},
			"external": {
				"acceptForTranslator(uint256,uint256[],uint256)": "infinite",
				"acceptForVerifer(uint256,uint256[],uint256)": "infinite",
				"endTransAccept(uint256)": "infinite",
				"postProject((uint256,string,string,uint256,string,string,string[],uint256,uint256,bool,bool,uint256,((string,uint256,uint256,uint256,uint256,uint256,string),uint256,uint8,uint256)[],uint256,uint256))": "infinite"
			},
			"internal": {
				"_endTransAccept(uint256)": "infinite",
				"_postProject(struct LibProject.ProParm memory)": "infinite"
			}
		},
		"methodIdentifiers": {
			"acceptForTranslator(uint256,uint256[],uint256)": "361e4705",
			"acceptForVerifer(uint256,uint256[],uint256)": "9d55097e",
			"endTransAccept(uint256)": "8adc74a5",
			"postProject((uint256,string,string,uint256,string,string,string[],uint256,uint256,bool,bool,uint256,((string,uint256,uint256,uint256,uint256,uint256,string),uint256,uint8,uint256)[],uint256,uint256))": "15704ff4"
		}
	},
	"abi": [
		{
			"inputs": [
				{
					"internalType": "address",
					"name": "_serAddress",
					"type": "address"
				}
			],
			"stateMutability": "nonpayable",
			"type": "constructor"
		},
		{
			"inputs": [
				{
					"internalType": "uint256",
					"name": "_index",
					"type": "uint256"
				},
				{
					"internalType": "uint256[]",
					"name": "_fileIndex",
					"type": "uint256[]"
				},
				{
					"internalType": "uint256",
					"name": "_taskerIndex",
					"type": "uint256"
				}
			],
			"name": "acceptForTranslator",
			"outputs": [],
			"stateMutability": "nonpayable",
			"type": "function"
		},
		{
			"inputs": [
				{
					"internalType": "uint256",
					"name": "_index",
					"type": "uint256"
				},
				{
					"internalType": "uint256[]",
					"name": "_fileIndex",
					"type": "uint256[]"
				},
				{
					"internalType": "uint256",
					"name": "_taskerIndex",
					"type": "uint256"
				}
			],
			"name": "acceptForVerifer",
			"outputs": [],
			"stateMutability": "nonpayable",
			"type": "function"
		},
		{
			"inputs": [
				{
					"internalType": "uint256",
					"name": "_index",
					"type": "uint256"
				}
			],
			"name": "endTransAccept",
			"outputs": [],
			"stateMutability": "nonpayable",
			"type": "function"
		},
		{
			"inputs": [
				{
					"components": [
						{
							"internalType": "uint256",
							"name": "releaseTime",
							"type": "uint256"
						},
						{
							"internalType": "string",
							"name": "introduce",
							"type": "string"
						},
						{
							"internalType": "string",
							"name": "need",
							"type": "string"
						},
						{
							"internalType": "uint256",
							"name": "deadline",
							"type": "uint256"
						},
						{
							"internalType": "string",
							"name": "sourceLanguage",
							"type": "string"
						},
						{
							"internalType": "string",
							"name": "goalLanguage",
							"type": "string"
						},
						{
							"internalType": "string[]",
							"name": "preferList",
							"type": "string[]"
						},
						{
							"internalType": "uint256",
							"name": "translationType",
							"type": "uint256"
						},
						{
							"internalType": "uint256",
							"name": "workLoad",
							"type": "uint256"
						},
						{
							"internalType": "bool",
							"name": "isNonDisclosure",
							"type": "bool"
						},
						{
							"internalType": "bool",
							"name": "isCustomize",
							"type": "bool"
						},
						{
							"internalType": "uint256",
							"name": "bounty",
							"type": "uint256"
						},
						{
							"components": [
								{
									"components": [
										{
											"internalType": "string",
											"name": "name",
											"type": "string"
										},
										{
											"internalType": "uint256",
											"name": "size",
											"type": "uint256"
										},
										{
											"internalType": "uint256",
											"name": "videoLength",
											"type": "uint256"
										},
										{
											"internalType": "uint256",
											"name": "Page",
											"type": "uint256"
										},
										{
											"internalType": "uint256",
											"name": "words",
											"type": "uint256"
										},
										{
											"internalType": "uint256",
											"name": "fileType",
											"type": "uint256"
										},
										{
											"internalType": "string",
											"name": "path",
											"type": "string"
										}
									],
									"internalType": "struct LibProject.FileInfo",
									"name": "file",
									"type": "tuple"
								},
								{
									"internalType": "uint256",
									"name": "bounty",
									"type": "uint256"
								},
								{
									"internalType": "enum LibProject.FileState",
									"name": "state",
									"type": "uint8"
								},
								{
									"internalType": "uint256",
									"name": "lastUpload",
									"type": "uint256"
								}
							],
							"internalType": "struct LibProject.TaskInfo[]",
							"name": "tasks",
							"type": "tuple[]"
						},
						{
							"internalType": "uint256",
							"name": "maxT",
							"type": "uint256"
						},
						{
							"internalType": "uint256",
							"name": "maxV",
							"type": "uint256"
						}
					],
					"internalType": "struct LibProject.ProParm",
					"name": "_t",
					"type": "tuple"
				}
			],
			"name": "postProject",
			"outputs": [
				{
					"internalType": "uint256",
					"name": "",
					"type": "uint256"
				}
			],
			"stateMutability": "nonpayable",
			"type": "function"
		}
	]
}