{
	"data": {
		"bytecode": {
			"linkReferences": {},
			"object": "608060405234801561001057600080fd5b50615aa480620000216000396000f3fe608060405234801561001057600080fd5b50600436106101735760003560e01c8063a87d942c116100de578063df3a726f11610097578063eef10ae611610071578063eef10ae614610452578063f0f3f2c814610483578063f8626ebb146104b3578063ffbafdfe146104e357610173565b8063df3a726f146103fe578063e6cfdf1f1461041a578063ea60f28c1461043657610173565b8063a87d942c1461032c578063ae6008e31461034a578063be7603c714610366578063c39a6bcc14610396578063cfab9d91146103b2578063d2fed69c146103ce57610173565b8063848003701161013057806384800370146102485780638a9a9ff3146102785780638f1844bc146102a85780638fa49f84146102d85780639ec44abc146102f4578063a77885671461031057610173565b806303faeb211461017857806325e78e70146101945780634fb36606146101c457806362583a28146101e05780637c34eb85146101fc5780637fae5cd31461022c575b600080fd5b610192600480360381019061018d9190614546565b6104ff565b005b6101ae60048036038101906101a991906145a2565b610804565b6040516101bb9190614eee565b60405180910390f35b6101de60048036038101906101d991906145a2565b611439565b005b6101fa60048036038101906101f59190614f10565b61146a565b005b610216600480360381019061021191906145a2565b6114de565b6040516102239190614f72565b60405180910390f35b61024660048036038101906102419190614f8d565b61150a565b005b610262600480360381019061025d9190614ff4565b6115ba565b60405161026f91906150b8565b60405180910390f35b610292600480360381019061028d91906150da565b611828565b60405161029f9190614f72565b60405180910390f35b6102c260048036038101906102bd919061511a565b611877565b6040516102cf9190615172565b60405180910390f35b6102f260048036038101906102ed91906151b2565b611b83565b005b61030e6004803603810190610309919061531c565b611c9e565b005b61032a6004803603810190610325919061531c565b611f16565b005b61033461218e565b6040516103419190615172565b60405180910390f35b610364600480360381019061035f919061539f565b612198565b005b610380600480360381019061037b9190614ff4565b61226f565b60405161038d91906150b8565b60405180910390f35b6103b060048036038101906103ab9190615436565b6124dd565b005b6103cc60048036038101906103c79190615436565b61259b565b005b6103e860048036038101906103e391906145a2565b612659565b6040516103f59190615172565b60405180910390f35b610418600480360381019061041391906145a2565b612943565b005b610434600480360381019061042f91906145a2565b612974565b005b610450600480360381019061044b91906145a2565b6129a5565b005b61046c60048036038101906104679190615489565b6129d6565b60405161047a92919061554b565b60405180910390f35b61049d600480360381019061049891906145a2565b612b10565b6040516104aa9190614eee565b60405180910390f35b6104cd60048036038101906104c891906145a2565b613745565b6040516104da9190615172565b60405180910390f35b6104fd60048036038101906104f891906155a0565b613a2f565b005b6000806000848152602001908152602001600020905081600001518160010181905550816020015181600201908161053791906157ec565b50816040015181600301908161054d91906157ec565b5081606001518160040181905550816080015181600501908161057091906157ec565b508160a0015181600601908161058691906157ec565b508160c001518160070190805190602001906105a3929190613b06565b508160e001518160080181905550816101000151816009018190555081610160015181600b018190555081610120015181600a0160006101000a81548160ff02191690831515021790555081610140015181600a0160016101000a81548160ff02191690831515021790555060008160110160026101000a81548160ff021916908360058111156106375761063661483e565b5b021790555081610140015161065f57600181600f0181905550600181600f018190555061067e565b8161018001515181600f01819055508161018001515181600f01819055505b60018160110160006101000a81548160ff02191690831515021790555060008160110160026101000a81548160ff021916908360058111156106c3576106c261483e565b5b021790555060005b826101800151518110156107fe5781600c0183610180015182815181106106f5576106f46158be565b5b602002602001015190806001815401808255809150506001900390600052602060002090600b0201600090919091909150600082015181600001600082015181600001908161074491906157ec565b506020820151816001015560408201518160020155606082015181600301556080820151816004015560a0820151816005015560c082015181600601908161078c91906157ec565b5050506020820151816007015560408201518160080190816107ae91906157ec565b5060608201518160090160006101000a81548160ff021916908360078111156107da576107d961483e565b5b0217905550608082015181600a0155505080806107f69061591c565b9150506106cb565b50505050565b61080c613b5f565b600080838152602001908152602001600020604051806102a00160405290816000820160009054906101000a900473ffffffffffffffffffffffffffffffffffffffff1673ffffffffffffffffffffffffffffffffffffffff1673ffffffffffffffffffffffffffffffffffffffff1681526020016001820154815260200160028201805461089a9061560f565b80601f01602080910402602001604051908101604052809291908181526020018280546108c69061560f565b80156109135780601f106108e857610100808354040283529160200191610913565b820191906000526020600020905b8154815290600101906020018083116108f657829003601f168201915b5050505050815260200160038201805461092c9061560f565b80601f01602080910402602001604051908101604052809291908181526020018280546109589061560f565b80156109a55780601f1061097a576101008083540402835291602001916109a5565b820191906000526020600020905b81548152906001019060200180831161098857829003601f168201915b50505050508152602001600482015481526020016005820180546109c89061560f565b80601f01602080910402602001604051908101604052809291908181526020018280546109f49061560f565b8015610a415780601f10610a1657610100808354040283529160200191610a41565b820191906000526020600020905b815481529060010190602001808311610a2457829003601f168201915b50505050508152602001600682018054610a5a9061560f565b80601f0160208091040260200160405190810160405280929190818152602001828054610a869061560f565b8015610ad35780601f10610aa857610100808354040283529160200191610ad3565b820191906000526020600020905b815481529060010190602001808311610ab657829003601f168201915b5050505050815260200160078201805480602002602001604051908101604052809291908181526020016000905b82821015610bad578382906000526020600020018054610b209061560f565b80601f0160208091040260200160405190810160405280929190818152602001828054610b4c9061560f565b8015610b995780601f10610b6e57610100808354040283529160200191610b99565b820191906000526020600020905b815481529060010190602001808311610b7c57829003601f168201915b505050505081526020019060010190610b01565b5050505081526020016008820154815260200160098201548152602001600a820160009054906101000a900460ff16151515158152602001600a820160019054906101000a900460ff16151515158152602001600b8201548152602001600c8201805480602002602001604051908101604052809291908181526020016000905b82821015610eab57838290600052602060002090600b02016040518060a0016040529081600082016040518060e0016040529081600082018054610c719061560f565b80601f0160208091040260200160405190810160405280929190818152602001828054610c9d9061560f565b8015610cea5780601f10610cbf57610100808354040283529160200191610cea565b820191906000526020600020905b815481529060010190602001808311610ccd57829003601f168201915b505050505081526020016001820154815260200160028201548152602001600382015481526020016004820154815260200160058201548152602001600682018054610d359061560f565b80601f0160208091040260200160405190810160405280929190818152602001828054610d619061560f565b8015610dae5780601f10610d8357610100808354040283529160200191610dae565b820191906000526020600020905b815481529060010190602001808311610d9157829003601f168201915b505050505081525050815260200160078201548152602001600882018054610dd59061560f565b80601f0160208091040260200160405190810160405280929190818152602001828054610e019061560f565b8015610e4e5780601f10610e2357610100808354040283529160200191610e4e565b820191906000526020600020905b815481529060010190602001808311610e3157829003601f168201915b505050505081526020016009820160009054906101000a900460ff166007811115610e7c57610e7b61483e565b5b6007811115610e8e57610e8d61483e565b5b8152602001600a8201548152505081526020019060010190610c2e565b505050508152602001600d8201805480602002602001604051908101604052809291908181526020016000905b8282101561112857838290600052602060002090600502016040518060a00160405290816000820160009054906101000a900473ffffffffffffffffffffffffffffffffffffffff1673ffffffffffffffffffffffffffffffffffffffff1673ffffffffffffffffffffffffffffffffffffffff16815260200160018201805480602002602001604051908101604052809291908181526020018280548015610fa057602002820191906000526020600020905b815481526020019060010190808311610f8c575b505050505081526020016002820180548060200260200160405190810160405280929190818152602001828054801561102d57602002820191906000526020600020906000905b82829054906101000a900460ff1660058111156110075761100661483e565b5b81526020019060010190602082600001049283019260010382029150808411610fe75790505b5050505050815260200160038201805480602002602001604051908101604052809291908181526020016000905b8282101561110757838290600052602060002001805461107a9061560f565b80601f01602080910402602001604051908101604052809291908181526020018280546110a69061560f565b80156110f35780601f106110c8576101008083540402835291602001916110f3565b820191906000526020600020905b8154815290600101906020018083116110d657829003601f168201915b50505050508152602001906001019061105b565b50505050815260200160048201548152505081526020019060010190610ed8565b505050508152602001600e8201805480602002602001604051908101604052809291908181526020016000905b828210156113a557838290600052602060002090600502016040518060a00160405290816000820160009054906101000a900473ffffffffffffffffffffffffffffffffffffffff1673ffffffffffffffffffffffffffffffffffffffff1673ffffffffffffffffffffffffffffffffffffffff1681526020016001820180548060200260200160405190810160405280929190818152602001828054801561121d57602002820191906000526020600020905b815481526020019060010190808311611209575b50505050508152602001600282018054806020026020016040519081016040528092919081815260200182805480156112aa57602002820191906000526020600020906000905b82829054906101000a900460ff1660058111156112845761128361483e565b5b815260200190600101906020826000010492830192600103820291508084116112645790505b5050505050815260200160038201805480602002602001604051908101604052809291908181526020016000905b828210156113845783829060005260206000200180546112f79061560f565b80601f01602080910402602001604051908101604052809291908181526020018280546113239061560f565b80156113705780601f1061134557610100808354040283529160200191611370565b820191906000526020600020905b81548152906001019060200180831161135357829003601f168201915b5050505050815260200190600101906112d8565b50505050815260200160048201548152505081526020019060010190611155565b505050508152602001600f8201548152602001601082015481526020016011820160009054906101000a900460ff161515151581526020016011820160019054906101000a900460ff161515151581526020016011820160029054906101000a900460ff16600581111561141c5761141b61483e565b5b600581111561142e5761142d61483e565b5b815250509050919050565b600160008083815260200190815260200160002060110160006101000a81548160ff02191690831515021790555050565b6000806000858152602001908152602001600020600c018381548110611493576114926158be565b5b90600052602060002090600b02019050818160090160006101000a81548160ff021916908360078111156114ca576114c961483e565b5b02179055504281600a018190555050505050565b6000806000838152602001908152602001600020600a0160019054906101000a900460ff169050919050565b80156115645781600080868152602001908152602001600020600d018481548110611538576115376158be565b5b906000526020600020906005020160040160008282546115589190615964565b925050819055506115b4565b81600080868152602001908152602001600020600e01848154811061158c5761158b6158be565b5b906000526020600020906005020160040160008282546115ac9190615964565b925050819055505b50505050565b6115c2613c2f565b600080848152602001908152602001600020600d0182815481106115e9576115e86158be565b5b90600052602060002090600502016040518060a00160405290816000820160009054906101000a900473ffffffffffffffffffffffffffffffffffffffff1673ffffffffffffffffffffffffffffffffffffffff1673ffffffffffffffffffffffffffffffffffffffff168152602001600182018054806020026020016040519081016040528092919081815260200182805480156116a757602002820191906000526020600020905b815481526020019060010190808311611693575b505050505081526020016002820180548060200260200160405190810160405280929190818152602001828054801561173457602002820191906000526020600020906000905b82829054906101000a900460ff16600581111561170e5761170d61483e565b5b815260200190600101906020826000010492830192600103820291508084116116ee5790505b5050505050815260200160038201805480602002602001604051908101604052809291908181526020016000905b8282101561180e5783829060005260206000200180546117819061560f565b80601f01602080910402602001604051908101604052809291908181526020018280546117ad9061560f565b80156117fa5780601f106117cf576101008083540402835291602001916117fa565b820191906000526020600020905b8154815290600101906020018083116117dd57829003601f168201915b505050505081526020019060010190611762565b505050508152602001600482015481525050905092915050565b600080600080858152602001908152602001600020600c018054905090506000831561185e5761185785612659565b905061186a565b61186785613745565b90505b8181149250505092915050565b6000611881613a70565b6000806000600154815260200190815260200160002090508260000151816001018190555082602001518160020190816118bb91906157ec565b5082604001518160030190816118d191906157ec565b508260600151816004018190555082608001518160050190816118f491906157ec565b508260a0015181600601908161190a91906157ec565b508260c00151816007019080519060200190611927929190613b06565b508260e001518160080181905550826101000151816009018190555082610160015181600b018190555082610120015181600a0160006101000a81548160ff02191690831515021790555082610140015181600a0160016101000a81548160ff02191690831515021790555060008160110160026101000a81548160ff021916908360058111156119bb576119ba61483e565b5b02179055508261014001516119e357600181600f0181905550600181600f0181905550611a02565b8261018001515181600f01819055508261018001515181600f01819055505b60018160110160006101000a81548160ff02191690831515021790555060018160110160016101000a81548160ff02191690831515021790555060005b83610180015151811015611b725781600c018461018001518281518110611a6957611a686158be565b5b602002602001015190806001815401808255809150506001900390600052602060002090600b02016000909190919091506000820151816000016000820151816000019081611ab891906157ec565b506020820151816001015560408201518160020155606082015181600301556080820151816004015560a0820151816005015560c0820151816006019081611b0091906157ec565b505050602082015181600701556040820151816008019081611b2291906157ec565b5060608201518160090160006101000a81548160ff02191690836007811115611b4e57611b4d61483e565b5b0217905550608082015181600a015550508080611b6a9061591c565b915050611a3f565b50611b7b61218e565b915050919050565b8015611c125781600080878152602001908152602001600020600d018581548110611bb157611bb06158be565b5b90600052602060002090600502016002018481548110611bd457611bd36158be565b5b90600052602060002090602091828204019190066101000a81548160ff02191690836005811115611c0857611c0761483e565b5b0217905550611c97565b81600080878152602001908152602001600020600e018581548110611c3a57611c396158be565b5b90600052602060002090600502016002018481548110611c5d57611c5c6158be565b5b90600052602060002090602091828204019190066101000a81548160ff02191690836005811115611c9157611c9061483e565b5b02179055505b5050505050565b60008203611e56576000806000868152602001908152602001600020600d019050611cc7613c2f565b82816000019073ffffffffffffffffffffffffffffffffffffffff16908173ffffffffffffffffffffffffffffffffffffffff168152505084816020018190525060005b8551811015611d79576000611d1f88610804565b6101a001518281518110611d3657611d356158be565b5b6020026020010151602001519050611d4d81613a8a565b83608001818151611d5e9190615998565b91508181525050508080611d719061591c565b915050611d0b565b508181908060018154018082558091505060019003906000526020600020906005020160009091909190915060008201518160000160006101000a81548173ffffffffffffffffffffffffffffffffffffffff021916908373ffffffffffffffffffffffffffffffffffffffff1602179055506020820151816001019080519060200190611e08929190613c74565b506040820151816002019080519060200190611e25929190613cc1565b506060820151816003019080519060200190611e42929190613b06565b506080820151816004015550505050611ef6565b6000806000868152602001908152602001600020600d018381548110611e7f57611e7e6158be565b5b9060005260206000209060050201905060005b8451811015611ef35781600101858281518110611eb257611eb16158be565b5b602002602001015190806001815401808255809150506001900390600052602060002001600090919091909150558080611eeb9061591c565b915050611e92565b50505b611f01846001611828565b15611f1057611f0f846129a5565b5b50505050565b600082036120ce576000806000868152602001908152602001600020600e019050611f3f613c2f565b82816000019073ffffffffffffffffffffffffffffffffffffffff16908173ffffffffffffffffffffffffffffffffffffffff168152505084816020018190525060005b8551811015611ff1576000611f9788610804565b6101a001518281518110611fae57611fad6158be565b5b6020026020010151602001519050611fc581613aad565b83608001818151611fd69190615998565b91508181525050508080611fe99061591c565b915050611f83565b508181908060018154018082558091505060019003906000526020600020906005020160009091909190915060008201518160000160006101000a81548173ffffffffffffffffffffffffffffffffffffffff021916908373ffffffffffffffffffffffffffffffffffffffff1602179055506020820151816001019080519060200190612080929190613c74565b50604082015181600201908051906020019061209d929190613cc1565b5060608201518160030190805190602001906120ba929190613b06565b50608082015181600401555050505061216e565b6000806000868152602001908152602001600020600e0183815481106120f7576120f66158be565b5b9060005260206000209060050201905060005b845181101561216b578160010185828151811061212a576121296158be565b5b6020026020010151908060018154018082558091505060019003906000526020600020016000909190919091505580806121639061591c565b91505061210a565b50505b612179846000611828565b1561218857612187846129a5565b5b50505050565b6000600154905090565b80156122055781600080878152602001908152602001600020600d0185815481106121c6576121c56158be565b5b906000526020600020906005020160030184815481106121e9576121e86158be565b5b9060005260206000200190816121ff91906157ec565b50612268565b81600080878152602001908152602001600020600e01858154811061222d5761222c6158be565b5b906000526020600020906005020160030184815481106122505761224f6158be565b5b90600052602060002001908161226691906157ec565b505b5050505050565b612277613c2f565b600080848152602001908152602001600020600e01828154811061229e5761229d6158be565b5b90600052602060002090600502016040518060a00160405290816000820160009054906101000a900473ffffffffffffffffffffffffffffffffffffffff1673ffffffffffffffffffffffffffffffffffffffff1673ffffffffffffffffffffffffffffffffffffffff1681526020016001820180548060200260200160405190810160405280929190818152602001828054801561235c57602002820191906000526020600020905b815481526020019060010190808311612348575b50505050508152602001600282018054806020026020016040519081016040528092919081815260200182805480156123e957602002820191906000526020600020906000905b82829054906101000a900460ff1660058111156123c3576123c261483e565b5b815260200190600101906020826000010492830192600103820291508084116123a35790505b5050505050815260200160038201805480602002602001604051908101604052809291908181526020016000905b828210156124c35783829060005260206000200180546124369061560f565b80601f01602080910402602001604051908101604052809291908181526020018280546124629061560f565b80156124af5780601f10612484576101008083540402835291602001916124af565b820191906000526020600020905b81548152906001019060200180831161249257829003601f168201915b505050505081526020019060010190612417565b505050508152602001600482015481525050905092915050565b6000806000858152602001908152602001600020600d018281548110612506576125056158be565b5b9060005260206000209060050201905080600101839080600181540180825580915050600190039060005260206000200160009091909190915055600061254c85610804565b6101a001518481518110612563576125626158be565b5b602002602001015160200151905061257a81613a8a565b82600401600082825461258d9190615998565b925050819055505050505050565b6000806000858152602001908152602001600020600e0182815481106125c4576125c36158be565b5b9060005260206000209060050201905080600101839080600181540180825580915050600190039060005260206000200160009091909190915055600061260a85610804565b6101a001518481518110612621576126206158be565b5b602002602001015160200151905061263881613aad565b82600401600082825461264b9190615998565b925050819055505050505050565b600080600080848152602001908152602001600020600d01805480602002602001604051908101604052809291908181526020016000905b828210156128e157838290600052602060002090600502016040518060a00160405290816000820160009054906101000a900473ffffffffffffffffffffffffffffffffffffffff1673ffffffffffffffffffffffffffffffffffffffff1673ffffffffffffffffffffffffffffffffffffffff1681526020016001820180548060200260200160405190810160405280929190818152602001828054801561275957602002820191906000526020600020905b815481526020019060010190808311612745575b50505050508152602001600282018054806020026020016040519081016040528092919081815260200182805480156127e657602002820191906000526020600020906000905b82829054906101000a900460ff1660058111156127c0576127bf61483e565b5b815260200190600101906020826000010492830192600103820291508084116127a05790505b5050505050815260200160038201805480602002602001604051908101604052809291908181526020016000905b828210156128c05783829060005260206000200180546128339061560f565b80601f016020809104026020016040519081016040528092919081815260200182805461285f9061560f565b80156128ac5780601f10612881576101008083540402835291602001916128ac565b820191906000526020600020905b81548152906001019060200180831161288f57829003601f168201915b505050505081526020019060010190612814565b50505050815260200160048201548152505081526020019060010190612691565b505050509050600080600090505b82518110156129385782818151811061290b5761290a6158be565b5b60200260200101516020015151826129239190615998565b915080806129309061591c565b9150506128ef565b508092505050919050565b600080600083815260200190815260200160002060110160016101000a81548160ff02191690831515021790555050565b600160008083815260200190815260200160002060110160016101000a81548160ff02191690831515021790555050565b600080600083815260200190815260200160002060110160006101000a81548160ff02191690831515021790555050565b60606000806129e486612b10565b9050606060008515612a1b57826101c001518781518110612a0857612a076158be565b5b6020026020010151604001519150612a42565b826101e001518781518110612a3357612a326158be565b5b60200260200101516040015191505b606060005b8351811015612afd5760026005811115612a6457612a6361483e565b5b848281518110612a7757612a766158be565b5b60200260200101516005811115612a9157612a9061483e565b5b1015612ab9578082835181518110612aac57612aab6158be565b5b6020026020010181815250505b846101a001518181518110612ad157612ad06158be565b5b60200260200101516020015183612ae89190615998565b92508080612af59061591c565b915050612a47565b5080829550955050505050935093915050565b612b18613b5f565b600080838152602001908152602001600020604051806102a00160405290816000820160009054906101000a900473ffffffffffffffffffffffffffffffffffffffff1673ffffffffffffffffffffffffffffffffffffffff1673ffffffffffffffffffffffffffffffffffffffff16815260200160018201548152602001600282018054612ba69061560f565b80601f0160208091040260200160405190810160405280929190818152602001828054612bd29061560f565b8015612c1f5780601f10612bf457610100808354040283529160200191612c1f565b820191906000526020600020905b815481529060010190602001808311612c0257829003601f168201915b50505050508152602001600382018054612c389061560f565b80601f0160208091040260200160405190810160405280929190818152602001828054612c649061560f565b8015612cb15780601f10612c8657610100808354040283529160200191612cb1565b820191906000526020600020905b815481529060010190602001808311612c9457829003601f168201915b5050505050815260200160048201548152602001600582018054612cd49061560f565b80601f0160208091040260200160405190810160405280929190818152602001828054612d009061560f565b8015612d4d5780601f10612d2257610100808354040283529160200191612d4d565b820191906000526020600020905b815481529060010190602001808311612d3057829003601f168201915b50505050508152602001600682018054612d669061560f565b80601f0160208091040260200160405190810160405280929190818152602001828054612d929061560f565b8015612ddf5780601f10612db457610100808354040283529160200191612ddf565b820191906000526020600020905b815481529060010190602001808311612dc257829003601f168201915b5050505050815260200160078201805480602002602001604051908101604052809291908181526020016000905b82821015612eb9578382906000526020600020018054612e2c9061560f565b80601f0160208091040260200160405190810160405280929190818152602001828054612e589061560f565b8015612ea55780601f10612e7a57610100808354040283529160200191612ea5565b820191906000526020600020905b815481529060010190602001808311612e8857829003601f168201915b505050505081526020019060010190612e0d565b5050505081526020016008820154815260200160098201548152602001600a820160009054906101000a900460ff16151515158152602001600a820160019054906101000a900460ff16151515158152602001600b8201548152602001600c8201805480602002602001604051908101604052809291908181526020016000905b828210156131b757838290600052602060002090600b02016040518060a0016040529081600082016040518060e0016040529081600082018054612f7d9061560f565b80601f0160208091040260200160405190810160405280929190818152602001828054612fa99061560f565b8015612ff65780601f10612fcb57610100808354040283529160200191612ff6565b820191906000526020600020905b815481529060010190602001808311612fd957829003601f168201915b5050505050815260200160018201548152602001600282015481526020016003820154815260200160048201548152602001600582015481526020016006820180546130419061560f565b80601f016020809104026020016040519081016040528092919081815260200182805461306d9061560f565b80156130ba5780601f1061308f576101008083540402835291602001916130ba565b820191906000526020600020905b81548152906001019060200180831161309d57829003601f168201915b5050505050815250508152602001600782015481526020016008820180546130e19061560f565b80601f016020809104026020016040519081016040528092919081815260200182805461310d9061560f565b801561315a5780601f1061312f5761010080835404028352916020019161315a565b820191906000526020600020905b81548152906001019060200180831161313d57829003601f168201915b505050505081526020016009820160009054906101000a900460ff1660078111156131885761318761483e565b5b600781111561319a5761319961483e565b5b8152602001600a8201548152505081526020019060010190612f3a565b505050508152602001600d8201805480602002602001604051908101604052809291908181526020016000905b8282101561343457838290600052602060002090600502016040518060a00160405290816000820160009054906101000a900473ffffffffffffffffffffffffffffffffffffffff1673ffffffffffffffffffffffffffffffffffffffff1673ffffffffffffffffffffffffffffffffffffffff168152602001600182018054806020026020016040519081016040528092919081815260200182805480156132ac57602002820191906000526020600020905b815481526020019060010190808311613298575b505050505081526020016002820180548060200260200160405190810160405280929190818152602001828054801561333957602002820191906000526020600020906000905b82829054906101000a900460ff1660058111156133135761331261483e565b5b815260200190600101906020826000010492830192600103820291508084116132f35790505b5050505050815260200160038201805480602002602001604051908101604052809291908181526020016000905b828210156134135783829060005260206000200180546133869061560f565b80601f01602080910402602001604051908101604052809291908181526020018280546133b29061560f565b80156133ff5780601f106133d4576101008083540402835291602001916133ff565b820191906000526020600020905b8154815290600101906020018083116133e257829003601f168201915b505050505081526020019060010190613367565b505050508152602001600482015481525050815260200190600101906131e4565b505050508152602001600e8201805480602002602001604051908101604052809291908181526020016000905b828210156136b157838290600052602060002090600502016040518060a00160405290816000820160009054906101000a900473ffffffffffffffffffffffffffffffffffffffff1673ffffffffffffffffffffffffffffffffffffffff1673ffffffffffffffffffffffffffffffffffffffff1681526020016001820180548060200260200160405190810160405280929190818152602001828054801561352957602002820191906000526020600020905b815481526020019060010190808311613515575b50505050508152602001600282018054806020026020016040519081016040528092919081815260200182805480156135b657602002820191906000526020600020906000905b82829054906101000a900460ff1660058111156135905761358f61483e565b5b815260200190600101906020826000010492830192600103820291508084116135705790505b5050505050815260200160038201805480602002602001604051908101604052809291908181526020016000905b828210156136905783829060005260206000200180546136039061560f565b80601f016020809104026020016040519081016040528092919081815260200182805461362f9061560f565b801561367c5780601f106136515761010080835404028352916020019161367c565b820191906000526020600020905b81548152906001019060200180831161365f57829003601f168201915b5050505050815260200190600101906135e4565b50505050815260200160048201548152505081526020019060010190613461565b505050508152602001600f8201548152602001601082015481526020016011820160009054906101000a900460ff161515151581526020016011820160019054906101000a900460ff161515151581526020016011820160029054906101000a900460ff1660058111156137285761372761483e565b5b600581111561373a5761373961483e565b5b815250509050919050565b600080600080848152602001908152602001600020600e01805480602002602001604051908101604052809291908181526020016000905b828210156139cd57838290600052602060002090600502016040518060a00160405290816000820160009054906101000a900473ffffffffffffffffffffffffffffffffffffffff1673ffffffffffffffffffffffffffffffffffffffff1673ffffffffffffffffffffffffffffffffffffffff1681526020016001820180548060200260200160405190810160405280929190818152602001828054801561384557602002820191906000526020600020905b815481526020019060010190808311613831575b50505050508152602001600282018054806020026020016040519081016040528092919081815260200182805480156138d257602002820191906000526020600020906000905b82829054906101000a900460ff1660058111156138ac576138ab61483e565b5b8152602001906001019060208260000104928301926001038202915080841161388c5790505b5050505050815260200160038201805480602002602001604051908101604052809291908181526020016000905b828210156139ac57838290600052602060002001805461391f9061560f565b80601f016020809104026020016040519081016040528092919081815260200182805461394b9061560f565b80156139985780601f1061396d57610100808354040283529160200191613998565b820191906000526020600020905b81548152906001019060200180831161397b57829003601f168201915b505050505081526020019060010190613900565b5050505081526020016004820154815250508152602001906001019061377d565b505050509050600080600090505b8251811015613a24578281815181106139f7576139f66158be565b5b6020026020010151602001515182613a0f9190615998565b91508080613a1c9061591c565b9150506139db565b508092505050919050565b8060008084815260200190815260200160002060110160026101000a81548160ff02191690836005811115613a6757613a6661483e565b5b02179055505050565b60016000815480929190613a839061591c565b9190505550565b600080613a9883605a613ad0565b9050613aa581603c613ad0565b915050919050565b600080613abb83605a613ad0565b9050613ac8816028613ad0565b915050919050565b60006064613ade8484613af0565b613ae891906159fb565b905092915050565b60008183613afe9190615a2c565b905092915050565b828054828255906000526020600020908101928215613b4e579160200282015b82811115613b4d578251829081613b3d91906157ec565b5091602001919060010190613b26565b5b509050613b5b9190613d77565b5090565b604051806102a00160405280600073ffffffffffffffffffffffffffffffffffffffff16815260200160008152602001606081526020016060815260200160008152602001606081526020016060815260200160608152602001600081526020016000815260200160001515815260200160001515815260200160008152602001606081526020016060815260200160608152602001600081526020016000815260200160001515815260200160001515815260200160006005811115613c2957613c2861483e565b5b81525090565b6040518060a00160405280600073ffffffffffffffffffffffffffffffffffffffff168152602001606081526020016060815260200160608152602001600081525090565b828054828255906000526020600020908101928215613cb0579160200282015b82811115613caf578251825591602001919060010190613c94565b5b509050613cbd9190613d9b565b5090565b82805482825590600052602060002090601f01602090048101928215613d665791602002820160005b83821115613d3757835183826101000a81548160ff02191690836005811115613d1657613d1561483e565b5b02179055509260200192600101602081600001049283019260010302613cea565b8015613d645782816101000a81549060ff0219169055600101602081600001049283019260010302613d37565b505b509050613d739190613d9b565b5090565b5b80821115613d975760008181613d8e9190613db8565b50600101613d78565b5090565b5b80821115613db4576000816000905550600101613d9c565b5090565b508054613dc49061560f565b6000825580601f10613dd65750613df5565b601f016020900490600052602060002090810190613df49190613d9b565b5b50565b6000604051905090565b600080fd5b600080fd5b6000819050919050565b613e1f81613e0c565b8114613e2a57600080fd5b50565b600081359050613e3c81613e16565b92915050565b600080fd5b6000601f19601f8301169050919050565b7f4e487b7100000000000000000000000000000000000000000000000000000000600052604160045260246000fd5b613e9082613e47565b810181811067ffffffffffffffff82111715613eaf57613eae613e58565b5b80604052505050565b6000613ec2613df8565b9050613ece8282613e87565b919050565b600080fd5b600080fd5b600080fd5b600067ffffffffffffffff821115613efd57613efc613e58565b5b613f0682613e47565b9050602081019050919050565b82818337600083830152505050565b6000613f35613f3084613ee2565b613eb8565b905082815260208101848484011115613f5157613f50613edd565b5b613f5c848285613f13565b509392505050565b600082601f830112613f7957613f78613ed8565b5b8135613f89848260208601613f22565b91505092915050565b600067ffffffffffffffff821115613fad57613fac613e58565b5b602082029050602081019050919050565b600080fd5b6000613fd6613fd184613f92565b613eb8565b90508083825260208201905060208402830185811115613ff957613ff8613fbe565b5b835b8181101561404057803567ffffffffffffffff81111561401e5761401d613ed8565b5b80860161402b8982613f64565b85526020850194505050602081019050613ffb565b5050509392505050565b600082601f83011261405f5761405e613ed8565b5b813561406f848260208601613fc3565b91505092915050565b60008115159050919050565b61408d81614078565b811461409857600080fd5b50565b6000813590506140aa81614084565b92915050565b600067ffffffffffffffff8211156140cb576140ca613e58565b5b602082029050602081019050919050565b600060e082840312156140f2576140f1613e42565b5b6140fc60e0613eb8565b9050600082013567ffffffffffffffff81111561411c5761411b613ed3565b5b61412884828501613f64565b600083015250602061413c84828501613e2d565b602083015250604061415084828501613e2d565b604083015250606061416484828501613e2d565b606083015250608061417884828501613e2d565b60808301525060a061418c84828501613e2d565b60a08301525060c082013567ffffffffffffffff8111156141b0576141af613ed3565b5b6141bc84828501613f64565b60c08301525092915050565b600881106141d557600080fd5b50565b6000813590506141e7816141c8565b92915050565b600060a0828403121561420357614202613e42565b5b61420d60a0613eb8565b9050600082013567ffffffffffffffff81111561422d5761422c613ed3565b5b614239848285016140dc565b600083015250602061424d84828501613e2d565b602083015250604082013567ffffffffffffffff81111561427157614270613ed3565b5b61427d84828501613f64565b6040830152506060614291848285016141d8565b60608301525060806142a584828501613e2d565b60808301525092915050565b60006142c46142bf846140b0565b613eb8565b905080838252602082019050602084028301858111156142e7576142e6613fbe565b5b835b8181101561432e57803567ffffffffffffffff81111561430c5761430b613ed8565b5b80860161431989826141ed565b855260208501945050506020810190506142e9565b5050509392505050565b600082601f83011261434d5761434c613ed8565b5b813561435d8482602086016142b1565b91505092915050565b60006101a0828403121561437d5761437c613e42565b5b6143886101a0613eb8565b9050600061439884828501613e2d565b600083015250602082013567ffffffffffffffff8111156143bc576143bb613ed3565b5b6143c884828501613f64565b602083015250604082013567ffffffffffffffff8111156143ec576143eb613ed3565b5b6143f884828501613f64565b604083015250606061440c84828501613e2d565b606083015250608082013567ffffffffffffffff8111156144305761442f613ed3565b5b61443c84828501613f64565b60808301525060a082013567ffffffffffffffff8111156144605761445f613ed3565b5b61446c84828501613f64565b60a08301525060c082013567ffffffffffffffff8111156144905761448f613ed3565b5b61449c8482850161404a565b60c08301525060e06144b084828501613e2d565b60e0830152506101006144c584828501613e2d565b610100830152506101206144db8482850161409b565b610120830152506101406144f18482850161409b565b6101408301525061016061450784828501613e2d565b6101608301525061018082013567ffffffffffffffff81111561452d5761452c613ed3565b5b61453984828501614338565b6101808301525092915050565b6000806040838503121561455d5761455c613e02565b5b600061456b85828601613e2d565b925050602083013567ffffffffffffffff81111561458c5761458b613e07565b5b61459885828601614366565b9150509250929050565b6000602082840312156145b8576145b7613e02565b5b60006145c684828501613e2d565b91505092915050565b600073ffffffffffffffffffffffffffffffffffffffff82169050919050565b60006145fa826145cf565b9050919050565b61460a816145ef565b82525050565b61461981613e0c565b82525050565b600081519050919050565b600082825260208201905092915050565b60005b8381101561465957808201518184015260208101905061463e565b60008484015250505050565b60006146708261461f565b61467a818561462a565b935061468a81856020860161463b565b61469381613e47565b840191505092915050565b600081519050919050565b600082825260208201905092915050565b6000819050602082019050919050565b60006146d68383614665565b905092915050565b6000602082019050919050565b60006146f68261469e565b61470081856146a9565b935083602082028501614712856146ba565b8060005b8581101561474e578484038952815161472f85826146ca565b945061473a836146de565b925060208a01995050600181019050614716565b50829750879550505050505092915050565b61476981614078565b82525050565b600081519050919050565b600082825260208201905092915050565b6000819050602082019050919050565b600060e08301600083015184820360008601526147b88282614665565b91505060208301516147cd6020860182614610565b5060408301516147e06040860182614610565b5060608301516147f36060860182614610565b5060808301516148066080860182614610565b5060a083015161481960a0860182614610565b5060c083015184820360c08601526148318282614665565b9150508091505092915050565b7f4e487b7100000000000000000000000000000000000000000000000000000000600052602160045260246000fd5b6008811061487e5761487d61483e565b5b50565b600081905061488f8261486d565b919050565b600061489f82614881565b9050919050565b6148af81614894565b82525050565b600060a08301600083015184820360008601526148d2828261479b565b91505060208301516148e76020860182614610565b50604083015184820360408601526148ff8282614665565b915050606083015161491460608601826148a6565b5060808301516149276080860182614610565b508091505092915050565b600061493e83836148b5565b905092915050565b6000602082019050919050565b600061495e8261476f565b614968818561477a565b93508360208202850161497a8561478b565b8060005b858110156149b657848403895281516149978582614932565b94506149a283614946565b925060208a0199505060018101905061497e565b50829750879550505050505092915050565b600081519050919050565b600082825260208201905092915050565b6000819050602082019050919050565b600081519050919050565b600082825260208201905092915050565b6000819050602082019050919050565b6000614a2c8383614610565b60208301905092915050565b6000602082019050919050565b6000614a50826149f4565b614a5a81856149ff565b9350614a6583614a10565b8060005b83811015614a96578151614a7d8882614a20565b9750614a8883614a38565b925050600181019050614a69565b5085935050505092915050565b600081519050919050565b600082825260208201905092915050565b6000819050602082019050919050565b60068110614ae057614adf61483e565b5b50565b6000819050614af182614acf565b919050565b6000614b0182614ae3565b9050919050565b614b1181614af6565b82525050565b6000614b238383614b08565b60208301905092915050565b6000602082019050919050565b6000614b4782614aa3565b614b518185614aae565b9350614b5c83614abf565b8060005b83811015614b8d578151614b748882614b17565b9750614b7f83614b2f565b925050600181019050614b60565b5085935050505092915050565b600060a083016000830151614bb26000860182614601565b5060208301518482036020860152614bca8282614a45565b91505060408301518482036040860152614be48282614b3c565b91505060608301518482036060860152614bfe82826146eb565b9150506080830151614c136080860182614610565b508091505092915050565b6000614c2a8383614b9a565b905092915050565b6000602082019050919050565b6000614c4a826149c8565b614c5481856149d3565b935083602082028501614c66856149e4565b8060005b85811015614ca25784840389528151614c838582614c1e565b9450614c8e83614c32565b925060208a01995050600181019050614c6a565b50829750879550505050505092915050565b60068110614cc557614cc461483e565b5b50565b6000819050614cd682614cb4565b919050565b6000614ce682614cc8565b9050919050565b614cf681614cdb565b82525050565b60006102a083016000830151614d156000860182614601565b506020830151614d286020860182614610565b5060408301518482036040860152614d408282614665565b91505060608301518482036060860152614d5a8282614665565b9150506080830151614d6f6080860182614610565b5060a083015184820360a0860152614d878282614665565b91505060c083015184820360c0860152614da18282614665565b91505060e083015184820360e0860152614dbb82826146eb565b915050610100830151614dd2610100860182614610565b50610120830151614de7610120860182614610565b50610140830151614dfc610140860182614760565b50610160830151614e11610160860182614760565b50610180830151614e26610180860182614610565b506101a08301518482036101a0860152614e408282614953565b9150506101c08301518482036101c0860152614e5c8282614c3f565b9150506101e08301518482036101e0860152614e788282614c3f565b915050610200830151614e8f610200860182614610565b50610220830151614ea4610220860182614610565b50610240830151614eb9610240860182614760565b50610260830151614ece610260860182614760565b50610280830151614ee3610280860182614ced565b508091505092915050565b60006020820190508181036000830152614f088184614cfc565b905092915050565b600080600060608486031215614f2957614f28613e02565b5b6000614f3786828701613e2d565b9350506020614f4886828701613e2d565b9250506040614f59868287016141d8565b9150509250925092565b614f6c81614078565b82525050565b6000602082019050614f876000830184614f63565b92915050565b60008060008060808587031215614fa757614fa6613e02565b5b6000614fb587828801613e2d565b9450506020614fc687828801613e2d565b9350506040614fd787828801613e2d565b9250506060614fe88782880161409b565b91505092959194509250565b6000806040838503121561500b5761500a613e02565b5b600061501985828601613e2d565b925050602061502a85828601613e2d565b9150509250929050565b600060a08301600083015161504c6000860182614601565b50602083015184820360208601526150648282614a45565b9150506040830151848203604086015261507e8282614b3c565b9150506060830151848203606086015261509882826146eb565b91505060808301516150ad6080860182614610565b508091505092915050565b600060208201905081810360008301526150d28184615034565b905092915050565b600080604083850312156150f1576150f0613e02565b5b60006150ff85828601613e2d565b92505060206151108582860161409b565b9150509250929050565b6000602082840312156151305761512f613e02565b5b600082013567ffffffffffffffff81111561514e5761514d613e07565b5b61515a84828501614366565b91505092915050565b61516c81613e0c565b82525050565b60006020820190506151876000830184615163565b92915050565b6006811061519a57600080fd5b50565b6000813590506151ac8161518d565b92915050565b600080600080600060a086880312156151ce576151cd613e02565b5b60006151dc88828901613e2d565b95505060206151ed88828901613e2d565b94505060406151fe88828901613e2d565b935050606061520f8882890161519d565b92505060806152208882890161409b565b9150509295509295909350565b600067ffffffffffffffff82111561524857615247613e58565b5b602082029050602081019050919050565b600061526c6152678461522d565b613eb8565b9050808382526020820190506020840283018581111561528f5761528e613fbe565b5b835b818110156152b857806152a48882613e2d565b845260208401935050602081019050615291565b5050509392505050565b600082601f8301126152d7576152d6613ed8565b5b81356152e7848260208601615259565b91505092915050565b6152f9816145ef565b811461530457600080fd5b50565b600081359050615316816152f0565b92915050565b6000806000806080858703121561533657615335613e02565b5b600061534487828801613e2d565b945050602085013567ffffffffffffffff81111561536557615364613e07565b5b615371878288016152c2565b935050604061538287828801613e2d565b925050606061539387828801615307565b91505092959194509250565b600080600080600060a086880312156153bb576153ba613e02565b5b60006153c988828901613e2d565b95505060206153da88828901613e2d565b94505060406153eb88828901613e2d565b935050606086013567ffffffffffffffff81111561540c5761540b613e07565b5b61541888828901613f64565b92505060806154298882890161409b565b9150509295509295909350565b60008060006060848603121561544f5761544e613e02565b5b600061545d86828701613e2d565b935050602061546e86828701613e2d565b925050604061547f86828701613e2d565b9150509250925092565b6000806000606084860312156154a2576154a1613e02565b5b60006154b086828701613e2d565b93505060206154c186828701613e2d565b92505060406154d28682870161409b565b9150509250925092565b600082825260208201905092915050565b60006154f8826149f4565b61550281856154dc565b935061550d83614a10565b8060005b8381101561553e5781516155258882614a20565b975061553083614a38565b925050600181019050615511565b5085935050505092915050565b6000604082019050818103600083015261556581856154ed565b90506155746020830184615163565b9392505050565b6006811061558857600080fd5b50565b60008135905061559a8161557b565b92915050565b600080604083850312156155b7576155b6613e02565b5b60006155c585828601613e2d565b92505060206155d68582860161558b565b9150509250929050565b7f4e487b7100000000000000000000000000000000000000000000000000000000600052602260045260246000fd5b6000600282049050600182168061562757607f821691505b60208210810361563a576156396155e0565b5b50919050565b60008190508160005260206000209050919050565b60006020601f8301049050919050565b600082821b905092915050565b6000600883026156a27fffffffffffffffffffffffffffffffffffffffffffffffffffffffffffffffff82615665565b6156ac8683615665565b95508019841693508086168417925050509392505050565b6000819050919050565b60006156e96156e46156df84613e0c565b6156c4565b613e0c565b9050919050565b6000819050919050565b615703836156ce565b61571761570f826156f0565b848454615672565b825550505050565b600090565b61572c61571f565b6157378184846156fa565b505050565b5b8181101561575b57615750600082615724565b60018101905061573d565b5050565b601f8211156157a05761577181615640565b61577a84615655565b81016020851015615789578190505b61579d61579585615655565b83018261573c565b50505b505050565b600082821c905092915050565b60006157c3600019846008026157a5565b1980831691505092915050565b60006157dc83836157b2565b9150826002028217905092915050565b6157f58261461f565b67ffffffffffffffff81111561580e5761580d613e58565b5b615818825461560f565b61582382828561575f565b600060209050601f8311600181146158565760008415615844578287015190505b61584e85826157d0565b8655506158b6565b601f19841661586486615640565b60005b8281101561588c57848901518255600182019150602085019450602081019050615867565b868310156158a957848901516158a5601f8916826157b2565b8355505b6001600288020188555050505b505050505050565b7f4e487b7100000000000000000000000000000000000000000000000000000000600052603260045260246000fd5b7f4e487b7100000000000000000000000000000000000000000000000000000000600052601160045260246000fd5b600061592782613e0c565b91507fffffffffffffffffffffffffffffffffffffffffffffffffffffffffffffffff8203615959576159586158ed565b5b600182019050919050565b600061596f82613e0c565b915061597a83613e0c565b9250828203905081811115615992576159916158ed565b5b92915050565b60006159a382613e0c565b91506159ae83613e0c565b92508282019050808211156159c6576159c56158ed565b5b92915050565b7f4e487b7100000000000000000000000000000000000000000000000000000000600052601260045260246000fd5b6000615a0682613e0c565b9150615a1183613e0c565b925082615a2157615a206159cc565b5b828204905092915050565b6000615a3782613e0c565b9150615a4283613e0c565b9250828202615a5081613e0c565b91508282048414831517615a6757615a666158ed565b5b509291505056fea26469706673582212203da19577fc371f033fd7a6e2115a15bbc5e4cd64eda8e973903ee2f4f035b7bd64736f6c63430008110033",
			"opcodes": "PUSH1 0x80 PUSH1 0x40 MSTORE CALLVALUE DUP1 ISZERO PUSH2 0x10 JUMPI PUSH1 0x0 DUP1 REVERT JUMPDEST POP PUSH2 0x5AA4 DUP1 PUSH3 0x21 PUSH1 0x0 CODECOPY PUSH1 0x0 RETURN INVALID PUSH1 0x80 PUSH1 0x40 MSTORE CALLVALUE DUP1 ISZERO PUSH2 0x10 JUMPI PUSH1 0x0 DUP1 REVERT JUMPDEST POP PUSH1 0x4 CALLDATASIZE LT PUSH2 0x173 JUMPI PUSH1 0x0 CALLDATALOAD PUSH1 0xE0 SHR DUP1 PUSH4 0xA87D942C GT PUSH2 0xDE JUMPI DUP1 PUSH4 0xDF3A726F GT PUSH2 0x97 JUMPI DUP1 PUSH4 0xEEF10AE6 GT PUSH2 0x71 JUMPI DUP1 PUSH4 0xEEF10AE6 EQ PUSH2 0x452 JUMPI DUP1 PUSH4 0xF0F3F2C8 EQ PUSH2 0x483 JUMPI DUP1 PUSH4 0xF8626EBB EQ PUSH2 0x4B3 JUMPI DUP1 PUSH4 0xFFBAFDFE EQ PUSH2 0x4E3 JUMPI PUSH2 0x173 JUMP JUMPDEST DUP1 PUSH4 0xDF3A726F EQ PUSH2 0x3FE JUMPI DUP1 PUSH4 0xE6CFDF1F EQ PUSH2 0x41A JUMPI DUP1 PUSH4 0xEA60F28C EQ PUSH2 0x436 JUMPI PUSH2 0x173 JUMP JUMPDEST DUP1 PUSH4 0xA87D942C EQ PUSH2 0x32C JUMPI DUP1 PUSH4 0xAE6008E3 EQ PUSH2 0x34A JUMPI DUP1 PUSH4 0xBE7603C7 EQ PUSH2 0x366 JUMPI DUP1 PUSH4 0xC39A6BCC EQ PUSH2 0x396 JUMPI DUP1 PUSH4 0xCFAB9D91 EQ PUSH2 0x3B2 JUMPI DUP1 PUSH4 0xD2FED69C EQ PUSH2 0x3CE JUMPI PUSH2 0x173 JUMP JUMPDEST DUP1 PUSH4 0x84800370 GT PUSH2 0x130 JUMPI DUP1 PUSH4 0x84800370 EQ PUSH2 0x248 JUMPI DUP1 PUSH4 0x8A9A9FF3 EQ PUSH2 0x278 JUMPI DUP1 PUSH4 0x8F1844BC EQ PUSH2 0x2A8 JUMPI DUP1 PUSH4 0x8FA49F84 EQ PUSH2 0x2D8 JUMPI DUP1 PUSH4 0x9EC44ABC EQ PUSH2 0x2F4 JUMPI DUP1 PUSH4 0xA7788567 EQ PUSH2 0x310 JUMPI PUSH2 0x173 JUMP JUMPDEST DUP1 PUSH4 0x3FAEB21 EQ PUSH2 0x178 JUMPI DUP1 PUSH4 0x25E78E70 EQ PUSH2 0x194 JUMPI DUP1 PUSH4 0x4FB36606 EQ PUSH2 0x1C4 JUMPI DUP1 PUSH4 0x62583A28 EQ PUSH2 0x1E0 JUMPI DUP1 PUSH4 0x7C34EB85 EQ PUSH2 0x1FC JUMPI DUP1 PUSH4 0x7FAE5CD3 EQ PUSH2 0x22C JUMPI JUMPDEST PUSH1 0x0 DUP1 REVERT JUMPDEST PUSH2 0x192 PUSH1 0x4 DUP1 CALLDATASIZE SUB DUP2 ADD SWAP1 PUSH2 0x18D SWAP2 SWAP1 PUSH2 0x4546 JUMP JUMPDEST PUSH2 0x4FF JUMP JUMPDEST STOP JUMPDEST PUSH2 0x1AE PUSH1 0x4 DUP1 CALLDATASIZE SUB DUP2 ADD SWAP1 PUSH2 0x1A9 SWAP2 SWAP1 PUSH2 0x45A2 JUMP JUMPDEST PUSH2 0x804 JUMP JUMPDEST PUSH1 0x40 MLOAD PUSH2 0x1BB SWAP2 SWAP1 PUSH2 0x4EEE JUMP JUMPDEST PUSH1 0x40 MLOAD DUP1 SWAP2 SUB SWAP1 RETURN JUMPDEST PUSH2 0x1DE PUSH1 0x4 DUP1 CALLDATASIZE SUB DUP2 ADD SWAP1 PUSH2 0x1D9 SWAP2 SWAP1 PUSH2 0x45A2 JUMP JUMPDEST PUSH2 0x1439 JUMP JUMPDEST STOP JUMPDEST PUSH2 0x1FA PUSH1 0x4 DUP1 CALLDATASIZE SUB DUP2 ADD SWAP1 PUSH2 0x1F5 SWAP2 SWAP1 PUSH2 0x4F10 JUMP JUMPDEST PUSH2 0x146A JUMP JUMPDEST STOP JUMPDEST PUSH2 0x216 PUSH1 0x4 DUP1 CALLDATASIZE SUB DUP2 ADD SWAP1 PUSH2 0x211 SWAP2 SWAP1 PUSH2 0x45A2 JUMP JUMPDEST PUSH2 0x14DE JUMP JUMPDEST PUSH1 0x40 MLOAD PUSH2 0x223 SWAP2 SWAP1 PUSH2 0x4F72 JUMP JUMPDEST PUSH1 0x40 MLOAD DUP1 SWAP2 SUB SWAP1 RETURN JUMPDEST PUSH2 0x246 PUSH1 0x4 DUP1 CALLDATASIZE SUB DUP2 ADD SWAP1 PUSH2 0x241 SWAP2 SWAP1 PUSH2 0x4F8D JUMP JUMPDEST PUSH2 0x150A JUMP JUMPDEST STOP JUMPDEST PUSH2 0x262 PUSH1 0x4 DUP1 CALLDATASIZE SUB DUP2 ADD SWAP1 PUSH2 0x25D SWAP2 SWAP1 PUSH2 0x4FF4 JUMP JUMPDEST PUSH2 0x15BA JUMP JUMPDEST PUSH1 0x40 MLOAD PUSH2 0x26F SWAP2 SWAP1 PUSH2 0x50B8 JUMP JUMPDEST PUSH1 0x40 MLOAD DUP1 SWAP2 SUB SWAP1 RETURN JUMPDEST PUSH2 0x292 PUSH1 0x4 DUP1 CALLDATASIZE SUB DUP2 ADD SWAP1 PUSH2 0x28D SWAP2 SWAP1 PUSH2 0x50DA JUMP JUMPDEST PUSH2 0x1828 JUMP JUMPDEST PUSH1 0x40 MLOAD PUSH2 0x29F SWAP2 SWAP1 PUSH2 0x4F72 JUMP JUMPDEST PUSH1 0x40 MLOAD DUP1 SWAP2 SUB SWAP1 RETURN JUMPDEST PUSH2 0x2C2 PUSH1 0x4 DUP1 CALLDATASIZE SUB DUP2 ADD SWAP1 PUSH2 0x2BD SWAP2 SWAP1 PUSH2 0x511A JUMP JUMPDEST PUSH2 0x1877 JUMP JUMPDEST PUSH1 0x40 MLOAD PUSH2 0x2CF SWAP2 SWAP1 PUSH2 0x5172 JUMP JUMPDEST PUSH1 0x40 MLOAD DUP1 SWAP2 SUB SWAP1 RETURN JUMPDEST PUSH2 0x2F2 PUSH1 0x4 DUP1 CALLDATASIZE SUB DUP2 ADD SWAP1 PUSH2 0x2ED SWAP2 SWAP1 PUSH2 0x51B2 JUMP JUMPDEST PUSH2 0x1B83 JUMP JUMPDEST STOP JUMPDEST PUSH2 0x30E PUSH1 0x4 DUP1 CALLDATASIZE SUB DUP2 ADD SWAP1 PUSH2 0x309 SWAP2 SWAP1 PUSH2 0x531C JUMP JUMPDEST PUSH2 0x1C9E JUMP JUMPDEST STOP JUMPDEST PUSH2 0x32A PUSH1 0x4 DUP1 CALLDATASIZE SUB DUP2 ADD SWAP1 PUSH2 0x325 SWAP2 SWAP1 PUSH2 0x531C JUMP JUMPDEST PUSH2 0x1F16 JUMP JUMPDEST STOP JUMPDEST PUSH2 0x334 PUSH2 0x218E JUMP JUMPDEST PUSH1 0x40 MLOAD PUSH2 0x341 SWAP2 SWAP1 PUSH2 0x5172 JUMP JUMPDEST PUSH1 0x40 MLOAD DUP1 SWAP2 SUB SWAP1 RETURN JUMPDEST PUSH2 0x364 PUSH1 0x4 DUP1 CALLDATASIZE SUB DUP2 ADD SWAP1 PUSH2 0x35F SWAP2 SWAP1 PUSH2 0x539F JUMP JUMPDEST PUSH2 0x2198 JUMP JUMPDEST STOP JUMPDEST PUSH2 0x380 PUSH1 0x4 DUP1 CALLDATASIZE SUB DUP2 ADD SWAP1 PUSH2 0x37B SWAP2 SWAP1 PUSH2 0x4FF4 JUMP JUMPDEST PUSH2 0x226F JUMP JUMPDEST PUSH1 0x40 MLOAD PUSH2 0x38D SWAP2 SWAP1 PUSH2 0x50B8 JUMP JUMPDEST PUSH1 0x40 MLOAD DUP1 SWAP2 SUB SWAP1 RETURN JUMPDEST PUSH2 0x3B0 PUSH1 0x4 DUP1 CALLDATASIZE SUB DUP2 ADD SWAP1 PUSH2 0x3AB SWAP2 SWAP1 PUSH2 0x5436 JUMP JUMPDEST PUSH2 0x24DD JUMP JUMPDEST STOP JUMPDEST PUSH2 0x3CC PUSH1 0x4 DUP1 CALLDATASIZE SUB DUP2 ADD SWAP1 PUSH2 0x3C7 SWAP2 SWAP1 PUSH2 0x5436 JUMP JUMPDEST PUSH2 0x259B JUMP JUMPDEST STOP JUMPDEST PUSH2 0x3E8 PUSH1 0x4 DUP1 CALLDATASIZE SUB DUP2 ADD SWAP1 PUSH2 0x3E3 SWAP2 SWAP1 PUSH2 0x45A2 JUMP JUMPDEST PUSH2 0x2659 JUMP JUMPDEST PUSH1 0x40 MLOAD PUSH2 0x3F5 SWAP2 SWAP1 PUSH2 0x5172 JUMP JUMPDEST PUSH1 0x40 MLOAD DUP1 SWAP2 SUB SWAP1 RETURN JUMPDEST PUSH2 0x418 PUSH1 0x4 DUP1 CALLDATASIZE SUB DUP2 ADD SWAP1 PUSH2 0x413 SWAP2 SWAP1 PUSH2 0x45A2 JUMP JUMPDEST PUSH2 0x2943 JUMP JUMPDEST STOP JUMPDEST PUSH2 0x434 PUSH1 0x4 DUP1 CALLDATASIZE SUB DUP2 ADD SWAP1 PUSH2 0x42F SWAP2 SWAP1 PUSH2 0x45A2 JUMP JUMPDEST PUSH2 0x2974 JUMP JUMPDEST STOP JUMPDEST PUSH2 0x450 PUSH1 0x4 DUP1 CALLDATASIZE SUB DUP2 ADD SWAP1 PUSH2 0x44B SWAP2 SWAP1 PUSH2 0x45A2 JUMP JUMPDEST PUSH2 0x29A5 JUMP JUMPDEST STOP JUMPDEST PUSH2 0x46C PUSH1 0x4 DUP1 CALLDATASIZE SUB DUP2 ADD SWAP1 PUSH2 0x467 SWAP2 SWAP1 PUSH2 0x5489 JUMP JUMPDEST PUSH2 0x29D6 JUMP JUMPDEST PUSH1 0x40 MLOAD PUSH2 0x47A SWAP3 SWAP2 SWAP1 PUSH2 0x554B JUMP JUMPDEST PUSH1 0x40 MLOAD DUP1 SWAP2 SUB SWAP1 RETURN JUMPDEST PUSH2 0x49D PUSH1 0x4 DUP1 CALLDATASIZE SUB DUP2 ADD SWAP1 PUSH2 0x498 SWAP2 SWAP1 PUSH2 0x45A2 JUMP JUMPDEST PUSH2 0x2B10 JUMP JUMPDEST PUSH1 0x40 MLOAD PUSH2 0x4AA SWAP2 SWAP1 PUSH2 0x4EEE JUMP JUMPDEST PUSH1 0x40 MLOAD DUP1 SWAP2 SUB SWAP1 RETURN JUMPDEST PUSH2 0x4CD PUSH1 0x4 DUP1 CALLDATASIZE SUB DUP2 ADD SWAP1 PUSH2 0x4C8 SWAP2 SWAP1 PUSH2 0x45A2 JUMP JUMPDEST PUSH2 0x3745 JUMP JUMPDEST PUSH1 0x40 MLOAD PUSH2 0x4DA SWAP2 SWAP1 PUSH2 0x5172 JUMP JUMPDEST PUSH1 0x40 MLOAD DUP1 SWAP2 SUB SWAP1 RETURN JUMPDEST PUSH2 0x4FD PUSH1 0x4 DUP1 CALLDATASIZE SUB DUP2 ADD SWAP1 PUSH2 0x4F8 SWAP2 SWAP1 PUSH2 0x55A0 JUMP JUMPDEST PUSH2 0x3A2F JUMP JUMPDEST STOP JUMPDEST PUSH1 0x0 DUP1 PUSH1 0x0 DUP5 DUP2 MSTORE PUSH1 0x20 ADD SWAP1 DUP2 MSTORE PUSH1 0x20 ADD PUSH1 0x0 KECCAK256 SWAP1 POP DUP2 PUSH1 0x0 ADD MLOAD DUP2 PUSH1 0x1 ADD DUP2 SWAP1 SSTORE POP DUP2 PUSH1 0x20 ADD MLOAD DUP2 PUSH1 0x2 ADD SWAP1 DUP2 PUSH2 0x537 SWAP2 SWAP1 PUSH2 0x57EC JUMP JUMPDEST POP DUP2 PUSH1 0x40 ADD MLOAD DUP2 PUSH1 0x3 ADD SWAP1 DUP2 PUSH2 0x54D SWAP2 SWAP1 PUSH2 0x57EC JUMP JUMPDEST POP DUP2 PUSH1 0x60 ADD MLOAD DUP2 PUSH1 0x4 ADD DUP2 SWAP1 SSTORE POP DUP2 PUSH1 0x80 ADD MLOAD DUP2 PUSH1 0x5 ADD SWAP1 DUP2 PUSH2 0x570 SWAP2 SWAP1 PUSH2 0x57EC JUMP JUMPDEST POP DUP2 PUSH1 0xA0 ADD MLOAD DUP2 PUSH1 0x6 ADD SWAP1 DUP2 PUSH2 0x586 SWAP2 SWAP1 PUSH2 0x57EC JUMP JUMPDEST POP DUP2 PUSH1 0xC0 ADD MLOAD DUP2 PUSH1 0x7 ADD SWAP1 DUP1 MLOAD SWAP1 PUSH1 0x20 ADD SWAP1 PUSH2 0x5A3 SWAP3 SWAP2 SWAP1 PUSH2 0x3B06 JUMP JUMPDEST POP DUP2 PUSH1 0xE0 ADD MLOAD DUP2 PUSH1 0x8 ADD DUP2 SWAP1 SSTORE POP DUP2 PUSH2 0x100 ADD MLOAD DUP2 PUSH1 0x9 ADD DUP2 SWAP1 SSTORE POP DUP2 PUSH2 0x160 ADD MLOAD DUP2 PUSH1 0xB ADD DUP2 SWAP1 SSTORE POP DUP2 PUSH2 0x120 ADD MLOAD DUP2 PUSH1 0xA ADD PUSH1 0x0 PUSH2 0x100 EXP DUP2 SLOAD DUP2 PUSH1 0xFF MUL NOT AND SWAP1 DUP4 ISZERO ISZERO MUL OR SWAP1 SSTORE POP DUP2 PUSH2 0x140 ADD MLOAD DUP2 PUSH1 0xA ADD PUSH1 0x1 PUSH2 0x100 EXP DUP2 SLOAD DUP2 PUSH1 0xFF MUL NOT AND SWAP1 DUP4 ISZERO ISZERO MUL OR SWAP1 SSTORE POP PUSH1 0x0 DUP2 PUSH1 0x11 ADD PUSH1 0x2 PUSH2 0x100 EXP DUP2 SLOAD DUP2 PUSH1 0xFF MUL NOT AND SWAP1 DUP4 PUSH1 0x5 DUP2 GT ISZERO PUSH2 0x637 JUMPI PUSH2 0x636 PUSH2 0x483E JUMP JUMPDEST JUMPDEST MUL OR SWAP1 SSTORE POP DUP2 PUSH2 0x140 ADD MLOAD PUSH2 0x65F JUMPI PUSH1 0x1 DUP2 PUSH1 0xF ADD DUP2 SWAP1 SSTORE POP PUSH1 0x1 DUP2 PUSH1 0xF ADD DUP2 SWAP1 SSTORE POP PUSH2 0x67E JUMP JUMPDEST DUP2 PUSH2 0x180 ADD MLOAD MLOAD DUP2 PUSH1 0xF ADD DUP2 SWAP1 SSTORE POP DUP2 PUSH2 0x180 ADD MLOAD MLOAD DUP2 PUSH1 0xF ADD DUP2 SWAP1 SSTORE POP JUMPDEST PUSH1 0x1 DUP2 PUSH1 0x11 ADD PUSH1 0x0 PUSH2 0x100 EXP DUP2 SLOAD DUP2 PUSH1 0xFF MUL NOT AND SWAP1 DUP4 ISZERO ISZERO MUL OR SWAP1 SSTORE POP PUSH1 0x0 DUP2 PUSH1 0x11 ADD PUSH1 0x2 PUSH2 0x100 EXP DUP2 SLOAD DUP2 PUSH1 0xFF MUL NOT AND SWAP1 DUP4 PUSH1 0x5 DUP2 GT ISZERO PUSH2 0x6C3 JUMPI PUSH2 0x6C2 PUSH2 0x483E JUMP JUMPDEST JUMPDEST MUL OR SWAP1 SSTORE POP PUSH1 0x0 JUMPDEST DUP3 PUSH2 0x180 ADD MLOAD MLOAD DUP2 LT ISZERO PUSH2 0x7FE JUMPI DUP2 PUSH1 0xC ADD DUP4 PUSH2 0x180 ADD MLOAD DUP3 DUP2 MLOAD DUP2 LT PUSH2 0x6F5 JUMPI PUSH2 0x6F4 PUSH2 0x58BE JUMP JUMPDEST JUMPDEST PUSH1 0x20 MUL PUSH1 0x20 ADD ADD MLOAD SWAP1 DUP1 PUSH1 0x1 DUP2 SLOAD ADD DUP1 DUP3 SSTORE DUP1 SWAP2 POP POP PUSH1 0x1 SWAP1 SUB SWAP1 PUSH1 0x0 MSTORE PUSH1 0x20 PUSH1 0x0 KECCAK256 SWAP1 PUSH1 0xB MUL ADD PUSH1 0x0 SWAP1 SWAP2 SWAP1 SWAP2 SWAP1 SWAP2 POP PUSH1 0x0 DUP3 ADD MLOAD DUP2 PUSH1 0x0 ADD PUSH1 0x0 DUP3 ADD MLOAD DUP2 PUSH1 0x0 ADD SWAP1 DUP2 PUSH2 0x744 SWAP2 SWAP1 PUSH2 0x57EC JUMP JUMPDEST POP PUSH1 0x20 DUP3 ADD MLOAD DUP2 PUSH1 0x1 ADD SSTORE PUSH1 0x40 DUP3 ADD MLOAD DUP2 PUSH1 0x2 ADD SSTORE PUSH1 0x60 DUP3 ADD MLOAD DUP2 PUSH1 0x3 ADD SSTORE PUSH1 0x80 DUP3 ADD MLOAD DUP2 PUSH1 0x4 ADD SSTORE PUSH1 0xA0 DUP3 ADD MLOAD DUP2 PUSH1 0x5 ADD SSTORE PUSH1 0xC0 DUP3 ADD MLOAD DUP2 PUSH1 0x6 ADD SWAP1 DUP2 PUSH2 0x78C SWAP2 SWAP1 PUSH2 0x57EC JUMP JUMPDEST POP POP POP PUSH1 0x20 DUP3 ADD MLOAD DUP2 PUSH1 0x7 ADD SSTORE PUSH1 0x40 DUP3 ADD MLOAD DUP2 PUSH1 0x8 ADD SWAP1 DUP2 PUSH2 0x7AE SWAP2 SWAP1 PUSH2 0x57EC JUMP JUMPDEST POP PUSH1 0x60 DUP3 ADD MLOAD DUP2 PUSH1 0x9 ADD PUSH1 0x0 PUSH2 0x100 EXP DUP2 SLOAD DUP2 PUSH1 0xFF MUL NOT AND SWAP1 DUP4 PUSH1 0x7 DUP2 GT ISZERO PUSH2 0x7DA JUMPI PUSH2 0x7D9 PUSH2 0x483E JUMP JUMPDEST JUMPDEST MUL OR SWAP1 SSTORE POP PUSH1 0x80 DUP3 ADD MLOAD DUP2 PUSH1 0xA ADD SSTORE POP POP DUP1 DUP1 PUSH2 0x7F6 SWAP1 PUSH2 0x591C JUMP JUMPDEST SWAP2 POP POP PUSH2 0x6CB JUMP JUMPDEST POP POP POP POP JUMP JUMPDEST PUSH2 0x80C PUSH2 0x3B5F JUMP JUMPDEST PUSH1 0x0 DUP1 DUP4 DUP2 MSTORE PUSH1 0x20 ADD SWAP1 DUP2 MSTORE PUSH1 0x20 ADD PUSH1 0x0 KECCAK256 PUSH1 0x40 MLOAD DUP1 PUSH2 0x2A0 ADD PUSH1 0x40 MSTORE SWAP1 DUP2 PUSH1 0x0 DUP3 ADD PUSH1 0x0 SWAP1 SLOAD SWAP1 PUSH2 0x100 EXP SWAP1 DIV PUSH20 0xFFFFFFFFFFFFFFFFFFFFFFFFFFFFFFFFFFFFFFFF AND PUSH20 0xFFFFFFFFFFFFFFFFFFFFFFFFFFFFFFFFFFFFFFFF AND PUSH20 0xFFFFFFFFFFFFFFFFFFFFFFFFFFFFFFFFFFFFFFFF AND DUP2 MSTORE PUSH1 0x20 ADD PUSH1 0x1 DUP3 ADD SLOAD DUP2 MSTORE PUSH1 0x20 ADD PUSH1 0x2 DUP3 ADD DUP1 SLOAD PUSH2 0x89A SWAP1 PUSH2 0x560F JUMP JUMPDEST DUP1 PUSH1 0x1F ADD PUSH1 0x20 DUP1 SWAP2 DIV MUL PUSH1 0x20 ADD PUSH1 0x40 MLOAD SWAP1 DUP2 ADD PUSH1 0x40 MSTORE DUP1 SWAP3 SWAP2 SWAP1 DUP2 DUP2 MSTORE PUSH1 0x20 ADD DUP3 DUP1 SLOAD PUSH2 0x8C6 SWAP1 PUSH2 0x560F JUMP JUMPDEST DUP1 ISZERO PUSH2 0x913 JUMPI DUP1 PUSH1 0x1F LT PUSH2 0x8E8 JUMPI PUSH2 0x100 DUP1 DUP4 SLOAD DIV MUL DUP4 MSTORE SWAP2 PUSH1 0x20 ADD SWAP2 PUSH2 0x913 JUMP JUMPDEST DUP3 ADD SWAP2 SWAP1 PUSH1 0x0 MSTORE PUSH1 0x20 PUSH1 0x0 KECCAK256 SWAP1 JUMPDEST DUP2 SLOAD DUP2 MSTORE SWAP1 PUSH1 0x1 ADD SWAP1 PUSH1 0x20 ADD DUP1 DUP4 GT PUSH2 0x8F6 JUMPI DUP3 SWAP1 SUB PUSH1 0x1F AND DUP3 ADD SWAP2 JUMPDEST POP POP POP POP POP DUP2 MSTORE PUSH1 0x20 ADD PUSH1 0x3 DUP3 ADD DUP1 SLOAD PUSH2 0x92C SWAP1 PUSH2 0x560F JUMP JUMPDEST DUP1 PUSH1 0x1F ADD PUSH1 0x20 DUP1 SWAP2 DIV MUL PUSH1 0x20 ADD PUSH1 0x40 MLOAD SWAP1 DUP2 ADD PUSH1 0x40 MSTORE DUP1 SWAP3 SWAP2 SWAP1 DUP2 DUP2 MSTORE PUSH1 0x20 ADD DUP3 DUP1 SLOAD PUSH2 0x958 SWAP1 PUSH2 0x560F JUMP JUMPDEST DUP1 ISZERO PUSH2 0x9A5 JUMPI DUP1 PUSH1 0x1F LT PUSH2 0x97A JUMPI PUSH2 0x100 DUP1 DUP4 SLOAD DIV MUL DUP4 MSTORE SWAP2 PUSH1 0x20 ADD SWAP2 PUSH2 0x9A5 JUMP JUMPDEST DUP3 ADD SWAP2 SWAP1 PUSH1 0x0 MSTORE PUSH1 0x20 PUSH1 0x0 KECCAK256 SWAP1 JUMPDEST DUP2 SLOAD DUP2 MSTORE SWAP1 PUSH1 0x1 ADD SWAP1 PUSH1 0x20 ADD DUP1 DUP4 GT PUSH2 0x988 JUMPI DUP3 SWAP1 SUB PUSH1 0x1F AND DUP3 ADD SWAP2 JUMPDEST POP POP POP POP POP DUP2 MSTORE PUSH1 0x20 ADD PUSH1 0x4 DUP3 ADD SLOAD DUP2 MSTORE PUSH1 0x20 ADD PUSH1 0x5 DUP3 ADD DUP1 SLOAD PUSH2 0x9C8 SWAP1 PUSH2 0x560F JUMP JUMPDEST DUP1 PUSH1 0x1F ADD PUSH1 0x20 DUP1 SWAP2 DIV MUL PUSH1 0x20 ADD PUSH1 0x40 MLOAD SWAP1 DUP2 ADD PUSH1 0x40 MSTORE DUP1 SWAP3 SWAP2 SWAP1 DUP2 DUP2 MSTORE PUSH1 0x20 ADD DUP3 DUP1 SLOAD PUSH2 0x9F4 SWAP1 PUSH2 0x560F JUMP JUMPDEST DUP1 ISZERO PUSH2 0xA41 JUMPI DUP1 PUSH1 0x1F LT PUSH2 0xA16 JUMPI PUSH2 0x100 DUP1 DUP4 SLOAD DIV MUL DUP4 MSTORE SWAP2 PUSH1 0x20 ADD SWAP2 PUSH2 0xA41 JUMP JUMPDEST DUP3 ADD SWAP2 SWAP1 PUSH1 0x0 MSTORE PUSH1 0x20 PUSH1 0x0 KECCAK256 SWAP1 JUMPDEST DUP2 SLOAD DUP2 MSTORE SWAP1 PUSH1 0x1 ADD SWAP1 PUSH1 0x20 ADD DUP1 DUP4 GT PUSH2 0xA24 JUMPI DUP3 SWAP1 SUB PUSH1 0x1F AND DUP3 ADD SWAP2 JUMPDEST POP POP POP POP POP DUP2 MSTORE PUSH1 0x20 ADD PUSH1 0x6 DUP3 ADD DUP1 SLOAD PUSH2 0xA5A SWAP1 PUSH2 0x560F JUMP JUMPDEST DUP1 PUSH1 0x1F ADD PUSH1 0x20 DUP1 SWAP2 DIV MUL PUSH1 0x20 ADD PUSH1 0x40 MLOAD SWAP1 DUP2 ADD PUSH1 0x40 MSTORE DUP1 SWAP3 SWAP2 SWAP1 DUP2 DUP2 MSTORE PUSH1 0x20 ADD DUP3 DUP1 SLOAD PUSH2 0xA86 SWAP1 PUSH2 0x560F JUMP JUMPDEST DUP1 ISZERO PUSH2 0xAD3 JUMPI DUP1 PUSH1 0x1F LT PUSH2 0xAA8 JUMPI PUSH2 0x100 DUP1 DUP4 SLOAD DIV MUL DUP4 MSTORE SWAP2 PUSH1 0x20 ADD SWAP2 PUSH2 0xAD3 JUMP JUMPDEST DUP3 ADD SWAP2 SWAP1 PUSH1 0x0 MSTORE PUSH1 0x20 PUSH1 0x0 KECCAK256 SWAP1 JUMPDEST DUP2 SLOAD DUP2 MSTORE SWAP1 PUSH1 0x1 ADD SWAP1 PUSH1 0x20 ADD DUP1 DUP4 GT PUSH2 0xAB6 JUMPI DUP3 SWAP1 SUB PUSH1 0x1F AND DUP3 ADD SWAP2 JUMPDEST POP POP POP POP POP DUP2 MSTORE PUSH1 0x20 ADD PUSH1 0x7 DUP3 ADD DUP1 SLOAD DUP1 PUSH1 0x20 MUL PUSH1 0x20 ADD PUSH1 0x40 MLOAD SWAP1 DUP2 ADD PUSH1 0x40 MSTORE DUP1 SWAP3 SWAP2 SWAP1 DUP2 DUP2 MSTORE PUSH1 0x20 ADD PUSH1 0x0 SWAP1 JUMPDEST DUP3 DUP3 LT ISZERO PUSH2 0xBAD JUMPI DUP4 DUP3 SWAP1 PUSH1 0x0 MSTORE PUSH1 0x20 PUSH1 0x0 KECCAK256 ADD DUP1 SLOAD PUSH2 0xB20 SWAP1 PUSH2 0x560F JUMP JUMPDEST DUP1 PUSH1 0x1F ADD PUSH1 0x20 DUP1 SWAP2 DIV MUL PUSH1 0x20 ADD PUSH1 0x40 MLOAD SWAP1 DUP2 ADD PUSH1 0x40 MSTORE DUP1 SWAP3 SWAP2 SWAP1 DUP2 DUP2 MSTORE PUSH1 0x20 ADD DUP3 DUP1 SLOAD PUSH2 0xB4C SWAP1 PUSH2 0x560F JUMP JUMPDEST DUP1 ISZERO PUSH2 0xB99 JUMPI DUP1 PUSH1 0x1F LT PUSH2 0xB6E JUMPI PUSH2 0x100 DUP1 DUP4 SLOAD DIV MUL DUP4 MSTORE SWAP2 PUSH1 0x20 ADD SWAP2 PUSH2 0xB99 JUMP JUMPDEST DUP3 ADD SWAP2 SWAP1 PUSH1 0x0 MSTORE PUSH1 0x20 PUSH1 0x0 KECCAK256 SWAP1 JUMPDEST DUP2 SLOAD DUP2 MSTORE SWAP1 PUSH1 0x1 ADD SWAP1 PUSH1 0x20 ADD DUP1 DUP4 GT PUSH2 0xB7C JUMPI DUP3 SWAP1 SUB PUSH1 0x1F AND DUP3 ADD SWAP2 JUMPDEST POP POP POP POP POP DUP2 MSTORE PUSH1 0x20 ADD SWAP1 PUSH1 0x1 ADD SWAP1 PUSH2 0xB01 JUMP JUMPDEST POP POP POP POP DUP2 MSTORE PUSH1 0x20 ADD PUSH1 0x8 DUP3 ADD SLOAD DUP2 MSTORE PUSH1 0x20 ADD PUSH1 0x9 DUP3 ADD SLOAD DUP2 MSTORE PUSH1 0x20 ADD PUSH1 0xA DUP3 ADD PUSH1 0x0 SWAP1 SLOAD SWAP1 PUSH2 0x100 EXP SWAP1 DIV PUSH1 0xFF AND ISZERO ISZERO ISZERO ISZERO DUP2 MSTORE PUSH1 0x20 ADD PUSH1 0xA DUP3 ADD PUSH1 0x1 SWAP1 SLOAD SWAP1 PUSH2 0x100 EXP SWAP1 DIV PUSH1 0xFF AND ISZERO ISZERO ISZERO ISZERO DUP2 MSTORE PUSH1 0x20 ADD PUSH1 0xB DUP3 ADD SLOAD DUP2 MSTORE PUSH1 0x20 ADD PUSH1 0xC DUP3 ADD DUP1 SLOAD DUP1 PUSH1 0x20 MUL PUSH1 0x20 ADD PUSH1 0x40 MLOAD SWAP1 DUP2 ADD PUSH1 0x40 MSTORE DUP1 SWAP3 SWAP2 SWAP1 DUP2 DUP2 MSTORE PUSH1 0x20 ADD PUSH1 0x0 SWAP1 JUMPDEST DUP3 DUP3 LT ISZERO PUSH2 0xEAB JUMPI DUP4 DUP3 SWAP1 PUSH1 0x0 MSTORE PUSH1 0x20 PUSH1 0x0 KECCAK256 SWAP1 PUSH1 0xB MUL ADD PUSH1 0x40 MLOAD DUP1 PUSH1 0xA0 ADD PUSH1 0x40 MSTORE SWAP1 DUP2 PUSH1 0x0 DUP3 ADD PUSH1 0x40 MLOAD DUP1 PUSH1 0xE0 ADD PUSH1 0x40 MSTORE SWAP1 DUP2 PUSH1 0x0 DUP3 ADD DUP1 SLOAD PUSH2 0xC71 SWAP1 PUSH2 0x560F JUMP JUMPDEST DUP1 PUSH1 0x1F ADD PUSH1 0x20 DUP1 SWAP2 DIV MUL PUSH1 0x20 ADD PUSH1 0x40 MLOAD SWAP1 DUP2 ADD PUSH1 0x40 MSTORE DUP1 SWAP3 SWAP2 SWAP1 DUP2 DUP2 MSTORE PUSH1 0x20 ADD DUP3 DUP1 SLOAD PUSH2 0xC9D SWAP1 PUSH2 0x560F JUMP JUMPDEST DUP1 ISZERO PUSH2 0xCEA JUMPI DUP1 PUSH1 0x1F LT PUSH2 0xCBF JUMPI PUSH2 0x100 DUP1 DUP4 SLOAD DIV MUL DUP4 MSTORE SWAP2 PUSH1 0x20 ADD SWAP2 PUSH2 0xCEA JUMP JUMPDEST DUP3 ADD SWAP2 SWAP1 PUSH1 0x0 MSTORE PUSH1 0x20 PUSH1 0x0 KECCAK256 SWAP1 JUMPDEST DUP2 SLOAD DUP2 MSTORE SWAP1 PUSH1 0x1 ADD SWAP1 PUSH1 0x20 ADD DUP1 DUP4 GT PUSH2 0xCCD JUMPI DUP3 SWAP1 SUB PUSH1 0x1F AND DUP3 ADD SWAP2 JUMPDEST POP POP POP POP POP DUP2 MSTORE PUSH1 0x20 ADD PUSH1 0x1 DUP3 ADD SLOAD DUP2 MSTORE PUSH1 0x20 ADD PUSH1 0x2 DUP3 ADD SLOAD DUP2 MSTORE PUSH1 0x20 ADD PUSH1 0x3 DUP3 ADD SLOAD DUP2 MSTORE PUSH1 0x20 ADD PUSH1 0x4 DUP3 ADD SLOAD DUP2 MSTORE PUSH1 0x20 ADD PUSH1 0x5 DUP3 ADD SLOAD DUP2 MSTORE PUSH1 0x20 ADD PUSH1 0x6 DUP3 ADD DUP1 SLOAD PUSH2 0xD35 SWAP1 PUSH2 0x560F JUMP JUMPDEST DUP1 PUSH1 0x1F ADD PUSH1 0x20 DUP1 SWAP2 DIV MUL PUSH1 0x20 ADD PUSH1 0x40 MLOAD SWAP1 DUP2 ADD PUSH1 0x40 MSTORE DUP1 SWAP3 SWAP2 SWAP1 DUP2 DUP2 MSTORE PUSH1 0x20 ADD DUP3 DUP1 SLOAD PUSH2 0xD61 SWAP1 PUSH2 0x560F JUMP JUMPDEST DUP1 ISZERO PUSH2 0xDAE JUMPI DUP1 PUSH1 0x1F LT PUSH2 0xD83 JUMPI PUSH2 0x100 DUP1 DUP4 SLOAD DIV MUL DUP4 MSTORE SWAP2 PUSH1 0x20 ADD SWAP2 PUSH2 0xDAE JUMP JUMPDEST DUP3 ADD SWAP2 SWAP1 PUSH1 0x0 MSTORE PUSH1 0x20 PUSH1 0x0 KECCAK256 SWAP1 JUMPDEST DUP2 SLOAD DUP2 MSTORE SWAP1 PUSH1 0x1 ADD SWAP1 PUSH1 0x20 ADD DUP1 DUP4 GT PUSH2 0xD91 JUMPI DUP3 SWAP1 SUB PUSH1 0x1F AND DUP3 ADD SWAP2 JUMPDEST POP POP POP POP POP DUP2 MSTORE POP POP DUP2 MSTORE PUSH1 0x20 ADD PUSH1 0x7 DUP3 ADD SLOAD DUP2 MSTORE PUSH1 0x20 ADD PUSH1 0x8 DUP3 ADD DUP1 SLOAD PUSH2 0xDD5 SWAP1 PUSH2 0x560F JUMP JUMPDEST DUP1 PUSH1 0x1F ADD PUSH1 0x20 DUP1 SWAP2 DIV MUL PUSH1 0x20 ADD PUSH1 0x40 MLOAD SWAP1 DUP2 ADD PUSH1 0x40 MSTORE DUP1 SWAP3 SWAP2 SWAP1 DUP2 DUP2 MSTORE PUSH1 0x20 ADD DUP3 DUP1 SLOAD PUSH2 0xE01 SWAP1 PUSH2 0x560F JUMP JUMPDEST DUP1 ISZERO PUSH2 0xE4E JUMPI DUP1 PUSH1 0x1F LT PUSH2 0xE23 JUMPI PUSH2 0x100 DUP1 DUP4 SLOAD DIV MUL DUP4 MSTORE SWAP2 PUSH1 0x20 ADD SWAP2 PUSH2 0xE4E JUMP JUMPDEST DUP3 ADD SWAP2 SWAP1 PUSH1 0x0 MSTORE PUSH1 0x20 PUSH1 0x0 KECCAK256 SWAP1 JUMPDEST DUP2 SLOAD DUP2 MSTORE SWAP1 PUSH1 0x1 ADD SWAP1 PUSH1 0x20 ADD DUP1 DUP4 GT PUSH2 0xE31 JUMPI DUP3 SWAP1 SUB PUSH1 0x1F AND DUP3 ADD SWAP2 JUMPDEST POP POP POP POP POP DUP2 MSTORE PUSH1 0x20 ADD PUSH1 0x9 DUP3 ADD PUSH1 0x0 SWAP1 SLOAD SWAP1 PUSH2 0x100 EXP SWAP1 DIV PUSH1 0xFF AND PUSH1 0x7 DUP2 GT ISZERO PUSH2 0xE7C JUMPI PUSH2 0xE7B PUSH2 0x483E JUMP JUMPDEST JUMPDEST PUSH1 0x7 DUP2 GT ISZERO PUSH2 0xE8E JUMPI PUSH2 0xE8D PUSH2 0x483E JUMP JUMPDEST JUMPDEST DUP2 MSTORE PUSH1 0x20 ADD PUSH1 0xA DUP3 ADD SLOAD DUP2 MSTORE POP POP DUP2 MSTORE PUSH1 0x20 ADD SWAP1 PUSH1 0x1 ADD SWAP1 PUSH2 0xC2E JUMP JUMPDEST POP POP POP POP DUP2 MSTORE PUSH1 0x20 ADD PUSH1 0xD DUP3 ADD DUP1 SLOAD DUP1 PUSH1 0x20 MUL PUSH1 0x20 ADD PUSH1 0x40 MLOAD SWAP1 DUP2 ADD PUSH1 0x40 MSTORE DUP1 SWAP3 SWAP2 SWAP1 DUP2 DUP2 MSTORE PUSH1 0x20 ADD PUSH1 0x0 SWAP1 JUMPDEST DUP3 DUP3 LT ISZERO PUSH2 0x1128 JUMPI DUP4 DUP3 SWAP1 PUSH1 0x0 MSTORE PUSH1 0x20 PUSH1 0x0 KECCAK256 SWAP1 PUSH1 0x5 MUL ADD PUSH1 0x40 MLOAD DUP1 PUSH1 0xA0 ADD PUSH1 0x40 MSTORE SWAP1 DUP2 PUSH1 0x0 DUP3 ADD PUSH1 0x0 SWAP1 SLOAD SWAP1 PUSH2 0x100 EXP SWAP1 DIV PUSH20 0xFFFFFFFFFFFFFFFFFFFFFFFFFFFFFFFFFFFFFFFF AND PUSH20 0xFFFFFFFFFFFFFFFFFFFFFFFFFFFFFFFFFFFFFFFF AND PUSH20 0xFFFFFFFFFFFFFFFFFFFFFFFFFFFFFFFFFFFFFFFF AND DUP2 MSTORE PUSH1 0x20 ADD PUSH1 0x1 DUP3 ADD DUP1 SLOAD DUP1 PUSH1 0x20 MUL PUSH1 0x20 ADD PUSH1 0x40 MLOAD SWAP1 DUP2 ADD PUSH1 0x40 MSTORE DUP1 SWAP3 SWAP2 SWAP1 DUP2 DUP2 MSTORE PUSH1 0x20 ADD DUP3 DUP1 SLOAD DUP1 ISZERO PUSH2 0xFA0 JUMPI PUSH1 0x20 MUL DUP3 ADD SWAP2 SWAP1 PUSH1 0x0 MSTORE PUSH1 0x20 PUSH1 0x0 KECCAK256 SWAP1 JUMPDEST DUP2 SLOAD DUP2 MSTORE PUSH1 0x20 ADD SWAP1 PUSH1 0x1 ADD SWAP1 DUP1 DUP4 GT PUSH2 0xF8C JUMPI JUMPDEST POP POP POP POP POP DUP2 MSTORE PUSH1 0x20 ADD PUSH1 0x2 DUP3 ADD DUP1 SLOAD DUP1 PUSH1 0x20 MUL PUSH1 0x20 ADD PUSH1 0x40 MLOAD SWAP1 DUP2 ADD PUSH1 0x40 MSTORE DUP1 SWAP3 SWAP2 SWAP1 DUP2 DUP2 MSTORE PUSH1 0x20 ADD DUP3 DUP1 SLOAD DUP1 ISZERO PUSH2 0x102D JUMPI PUSH1 0x20 MUL DUP3 ADD SWAP2 SWAP1 PUSH1 0x0 MSTORE PUSH1 0x20 PUSH1 0x0 KECCAK256 SWAP1 PUSH1 0x0 SWAP1 JUMPDEST DUP3 DUP3 SWAP1 SLOAD SWAP1 PUSH2 0x100 EXP SWAP1 DIV PUSH1 0xFF AND PUSH1 0x5 DUP2 GT ISZERO PUSH2 0x1007 JUMPI PUSH2 0x1006 PUSH2 0x483E JUMP JUMPDEST JUMPDEST DUP2 MSTORE PUSH1 0x20 ADD SWAP1 PUSH1 0x1 ADD SWAP1 PUSH1 0x20 DUP3 PUSH1 0x0 ADD DIV SWAP3 DUP4 ADD SWAP3 PUSH1 0x1 SUB DUP3 MUL SWAP2 POP DUP1 DUP5 GT PUSH2 0xFE7 JUMPI SWAP1 POP JUMPDEST POP POP POP POP POP DUP2 MSTORE PUSH1 0x20 ADD PUSH1 0x3 DUP3 ADD DUP1 SLOAD DUP1 PUSH1 0x20 MUL PUSH1 0x20 ADD PUSH1 0x40 MLOAD SWAP1 DUP2 ADD PUSH1 0x40 MSTORE DUP1 SWAP3 SWAP2 SWAP1 DUP2 DUP2 MSTORE PUSH1 0x20 ADD PUSH1 0x0 SWAP1 JUMPDEST DUP3 DUP3 LT ISZERO PUSH2 0x1107 JUMPI DUP4 DUP3 SWAP1 PUSH1 0x0 MSTORE PUSH1 0x20 PUSH1 0x0 KECCAK256 ADD DUP1 SLOAD PUSH2 0x107A SWAP1 PUSH2 0x560F JUMP JUMPDEST DUP1 PUSH1 0x1F ADD PUSH1 0x20 DUP1 SWAP2 DIV MUL PUSH1 0x20 ADD PUSH1 0x40 MLOAD SWAP1 DUP2 ADD PUSH1 0x40 MSTORE DUP1 SWAP3 SWAP2 SWAP1 DUP2 DUP2 MSTORE PUSH1 0x20 ADD DUP3 DUP1 SLOAD PUSH2 0x10A6 SWAP1 PUSH2 0x560F JUMP JUMPDEST DUP1 ISZERO PUSH2 0x10F3 JUMPI DUP1 PUSH1 0x1F LT PUSH2 0x10C8 JUMPI PUSH2 0x100 DUP1 DUP4 SLOAD DIV MUL DUP4 MSTORE SWAP2 PUSH1 0x20 ADD SWAP2 PUSH2 0x10F3 JUMP JUMPDEST DUP3 ADD SWAP2 SWAP1 PUSH1 0x0 MSTORE PUSH1 0x20 PUSH1 0x0 KECCAK256 SWAP1 JUMPDEST DUP2 SLOAD DUP2 MSTORE SWAP1 PUSH1 0x1 ADD SWAP1 PUSH1 0x20 ADD DUP1 DUP4 GT PUSH2 0x10D6 JUMPI DUP3 SWAP1 SUB PUSH1 0x1F AND DUP3 ADD SWAP2 JUMPDEST POP POP POP POP POP DUP2 MSTORE PUSH1 0x20 ADD SWAP1 PUSH1 0x1 ADD SWAP1 PUSH2 0x105B JUMP JUMPDEST POP POP POP POP DUP2 MSTORE PUSH1 0x20 ADD PUSH1 0x4 DUP3 ADD SLOAD DUP2 MSTORE POP POP DUP2 MSTORE PUSH1 0x20 ADD SWAP1 PUSH1 0x1 ADD SWAP1 PUSH2 0xED8 JUMP JUMPDEST POP POP POP POP DUP2 MSTORE PUSH1 0x20 ADD PUSH1 0xE DUP3 ADD DUP1 SLOAD DUP1 PUSH1 0x20 MUL PUSH1 0x20 ADD PUSH1 0x40 MLOAD SWAP1 DUP2 ADD PUSH1 0x40 MSTORE DUP1 SWAP3 SWAP2 SWAP1 DUP2 DUP2 MSTORE PUSH1 0x20 ADD PUSH1 0x0 SWAP1 JUMPDEST DUP3 DUP3 LT ISZERO PUSH2 0x13A5 JUMPI DUP4 DUP3 SWAP1 PUSH1 0x0 MSTORE PUSH1 0x20 PUSH1 0x0 KECCAK256 SWAP1 PUSH1 0x5 MUL ADD PUSH1 0x40 MLOAD DUP1 PUSH1 0xA0 ADD PUSH1 0x40 MSTORE SWAP1 DUP2 PUSH1 0x0 DUP3 ADD PUSH1 0x0 SWAP1 SLOAD SWAP1 PUSH2 0x100 EXP SWAP1 DIV PUSH20 0xFFFFFFFFFFFFFFFFFFFFFFFFFFFFFFFFFFFFFFFF AND PUSH20 0xFFFFFFFFFFFFFFFFFFFFFFFFFFFFFFFFFFFFFFFF AND PUSH20 0xFFFFFFFFFFFFFFFFFFFFFFFFFFFFFFFFFFFFFFFF AND DUP2 MSTORE PUSH1 0x20 ADD PUSH1 0x1 DUP3 ADD DUP1 SLOAD DUP1 PUSH1 0x20 MUL PUSH1 0x20 ADD PUSH1 0x40 MLOAD SWAP1 DUP2 ADD PUSH1 0x40 MSTORE DUP1 SWAP3 SWAP2 SWAP1 DUP2 DUP2 MSTORE PUSH1 0x20 ADD DUP3 DUP1 SLOAD DUP1 ISZERO PUSH2 0x121D JUMPI PUSH1 0x20 MUL DUP3 ADD SWAP2 SWAP1 PUSH1 0x0 MSTORE PUSH1 0x20 PUSH1 0x0 KECCAK256 SWAP1 JUMPDEST DUP2 SLOAD DUP2 MSTORE PUSH1 0x20 ADD SWAP1 PUSH1 0x1 ADD SWAP1 DUP1 DUP4 GT PUSH2 0x1209 JUMPI JUMPDEST POP POP POP POP POP DUP2 MSTORE PUSH1 0x20 ADD PUSH1 0x2 DUP3 ADD DUP1 SLOAD DUP1 PUSH1 0x20 MUL PUSH1 0x20 ADD PUSH1 0x40 MLOAD SWAP1 DUP2 ADD PUSH1 0x40 MSTORE DUP1 SWAP3 SWAP2 SWAP1 DUP2 DUP2 MSTORE PUSH1 0x20 ADD DUP3 DUP1 SLOAD DUP1 ISZERO PUSH2 0x12AA JUMPI PUSH1 0x20 MUL DUP3 ADD SWAP2 SWAP1 PUSH1 0x0 MSTORE PUSH1 0x20 PUSH1 0x0 KECCAK256 SWAP1 PUSH1 0x0 SWAP1 JUMPDEST DUP3 DUP3 SWAP1 SLOAD SWAP1 PUSH2 0x100 EXP SWAP1 DIV PUSH1 0xFF AND PUSH1 0x5 DUP2 GT ISZERO PUSH2 0x1284 JUMPI PUSH2 0x1283 PUSH2 0x483E JUMP JUMPDEST JUMPDEST DUP2 MSTORE PUSH1 0x20 ADD SWAP1 PUSH1 0x1 ADD SWAP1 PUSH1 0x20 DUP3 PUSH1 0x0 ADD DIV SWAP3 DUP4 ADD SWAP3 PUSH1 0x1 SUB DUP3 MUL SWAP2 POP DUP1 DUP5 GT PUSH2 0x1264 JUMPI SWAP1 POP JUMPDEST POP POP POP POP POP DUP2 MSTORE PUSH1 0x20 ADD PUSH1 0x3 DUP3 ADD DUP1 SLOAD DUP1 PUSH1 0x20 MUL PUSH1 0x20 ADD PUSH1 0x40 MLOAD SWAP1 DUP2 ADD PUSH1 0x40 MSTORE DUP1 SWAP3 SWAP2 SWAP1 DUP2 DUP2 MSTORE PUSH1 0x20 ADD PUSH1 0x0 SWAP1 JUMPDEST DUP3 DUP3 LT ISZERO PUSH2 0x1384 JUMPI DUP4 DUP3 SWAP1 PUSH1 0x0 MSTORE PUSH1 0x20 PUSH1 0x0 KECCAK256 ADD DUP1 SLOAD PUSH2 0x12F7 SWAP1 PUSH2 0x560F JUMP JUMPDEST DUP1 PUSH1 0x1F ADD PUSH1 0x20 DUP1 SWAP2 DIV MUL PUSH1 0x20 ADD PUSH1 0x40 MLOAD SWAP1 DUP2 ADD PUSH1 0x40 MSTORE DUP1 SWAP3 SWAP2 SWAP1 DUP2 DUP2 MSTORE PUSH1 0x20 ADD DUP3 DUP1 SLOAD PUSH2 0x1323 SWAP1 PUSH2 0x560F JUMP JUMPDEST DUP1 ISZERO PUSH2 0x1370 JUMPI DUP1 PUSH1 0x1F LT PUSH2 0x1345 JUMPI PUSH2 0x100 DUP1 DUP4 SLOAD DIV MUL DUP4 MSTORE SWAP2 PUSH1 0x20 ADD SWAP2 PUSH2 0x1370 JUMP JUMPDEST DUP3 ADD SWAP2 SWAP1 PUSH1 0x0 MSTORE PUSH1 0x20 PUSH1 0x0 KECCAK256 SWAP1 JUMPDEST DUP2 SLOAD DUP2 MSTORE SWAP1 PUSH1 0x1 ADD SWAP1 PUSH1 0x20 ADD DUP1 DUP4 GT PUSH2 0x1353 JUMPI DUP3 SWAP1 SUB PUSH1 0x1F AND DUP3 ADD SWAP2 JUMPDEST POP POP POP POP POP DUP2 MSTORE PUSH1 0x20 ADD SWAP1 PUSH1 0x1 ADD SWAP1 PUSH2 0x12D8 JUMP JUMPDEST POP POP POP POP DUP2 MSTORE PUSH1 0x20 ADD PUSH1 0x4 DUP3 ADD SLOAD DUP2 MSTORE POP POP DUP2 MSTORE PUSH1 0x20 ADD SWAP1 PUSH1 0x1 ADD SWAP1 PUSH2 0x1155 JUMP JUMPDEST POP POP POP POP DUP2 MSTORE PUSH1 0x20 ADD PUSH1 0xF DUP3 ADD SLOAD DUP2 MSTORE PUSH1 0x20 ADD PUSH1 0x10 DUP3 ADD SLOAD DUP2 MSTORE PUSH1 0x20 ADD PUSH1 0x11 DUP3 ADD PUSH1 0x0 SWAP1 SLOAD SWAP1 PUSH2 0x100 EXP SWAP1 DIV PUSH1 0xFF AND ISZERO ISZERO ISZERO ISZERO DUP2 MSTORE PUSH1 0x20 ADD PUSH1 0x11 DUP3 ADD PUSH1 0x1 SWAP1 SLOAD SWAP1 PUSH2 0x100 EXP SWAP1 DIV PUSH1 0xFF AND ISZERO ISZERO ISZERO ISZERO DUP2 MSTORE PUSH1 0x20 ADD PUSH1 0x11 DUP3 ADD PUSH1 0x2 SWAP1 SLOAD SWAP1 PUSH2 0x100 EXP SWAP1 DIV PUSH1 0xFF AND PUSH1 0x5 DUP2 GT ISZERO PUSH2 0x141C JUMPI PUSH2 0x141B PUSH2 0x483E JUMP JUMPDEST JUMPDEST PUSH1 0x5 DUP2 GT ISZERO PUSH2 0x142E JUMPI PUSH2 0x142D PUSH2 0x483E JUMP JUMPDEST JUMPDEST DUP2 MSTORE POP POP SWAP1 POP SWAP2 SWAP1 POP JUMP JUMPDEST PUSH1 0x1 PUSH1 0x0 DUP1 DUP4 DUP2 MSTORE PUSH1 0x20 ADD SWAP1 DUP2 MSTORE PUSH1 0x20 ADD PUSH1 0x0 KECCAK256 PUSH1 0x11 ADD PUSH1 0x0 PUSH2 0x100 EXP DUP2 SLOAD DUP2 PUSH1 0xFF MUL NOT AND SWAP1 DUP4 ISZERO ISZERO MUL OR SWAP1 SSTORE POP POP JUMP JUMPDEST PUSH1 0x0 DUP1 PUSH1 0x0 DUP6 DUP2 MSTORE PUSH1 0x20 ADD SWAP1 DUP2 MSTORE PUSH1 0x20 ADD PUSH1 0x0 KECCAK256 PUSH1 0xC ADD DUP4 DUP2 SLOAD DUP2 LT PUSH2 0x1493 JUMPI PUSH2 0x1492 PUSH2 0x58BE JUMP JUMPDEST JUMPDEST SWAP1 PUSH1 0x0 MSTORE PUSH1 0x20 PUSH1 0x0 KECCAK256 SWAP1 PUSH1 0xB MUL ADD SWAP1 POP DUP2 DUP2 PUSH1 0x9 ADD PUSH1 0x0 PUSH2 0x100 EXP DUP2 SLOAD DUP2 PUSH1 0xFF MUL NOT AND SWAP1 DUP4 PUSH1 0x7 DUP2 GT ISZERO PUSH2 0x14CA JUMPI PUSH2 0x14C9 PUSH2 0x483E JUMP JUMPDEST JUMPDEST MUL OR SWAP1 SSTORE POP TIMESTAMP DUP2 PUSH1 0xA ADD DUP2 SWAP1 SSTORE POP POP POP POP POP JUMP JUMPDEST PUSH1 0x0 DUP1 PUSH1 0x0 DUP4 DUP2 MSTORE PUSH1 0x20 ADD SWAP1 DUP2 MSTORE PUSH1 0x20 ADD PUSH1 0x0 KECCAK256 PUSH1 0xA ADD PUSH1 0x1 SWAP1 SLOAD SWAP1 PUSH2 0x100 EXP SWAP1 DIV PUSH1 0xFF AND SWAP1 POP SWAP2 SWAP1 POP JUMP JUMPDEST DUP1 ISZERO PUSH2 0x1564 JUMPI DUP2 PUSH1 0x0 DUP1 DUP7 DUP2 MSTORE PUSH1 0x20 ADD SWAP1 DUP2 MSTORE PUSH1 0x20 ADD PUSH1 0x0 KECCAK256 PUSH1 0xD ADD DUP5 DUP2 SLOAD DUP2 LT PUSH2 0x1538 JUMPI PUSH2 0x1537 PUSH2 0x58BE JUMP JUMPDEST JUMPDEST SWAP1 PUSH1 0x0 MSTORE PUSH1 0x20 PUSH1 0x0 KECCAK256 SWAP1 PUSH1 0x5 MUL ADD PUSH1 0x4 ADD PUSH1 0x0 DUP3 DUP3 SLOAD PUSH2 0x1558 SWAP2 SWAP1 PUSH2 0x5964 JUMP JUMPDEST SWAP3 POP POP DUP2 SWAP1 SSTORE POP PUSH2 0x15B4 JUMP JUMPDEST DUP2 PUSH1 0x0 DUP1 DUP7 DUP2 MSTORE PUSH1 0x20 ADD SWAP1 DUP2 MSTORE PUSH1 0x20 ADD PUSH1 0x0 KECCAK256 PUSH1 0xE ADD DUP5 DUP2 SLOAD DUP2 LT PUSH2 0x158C JUMPI PUSH2 0x158B PUSH2 0x58BE JUMP JUMPDEST JUMPDEST SWAP1 PUSH1 0x0 MSTORE PUSH1 0x20 PUSH1 0x0 KECCAK256 SWAP1 PUSH1 0x5 MUL ADD PUSH1 0x4 ADD PUSH1 0x0 DUP3 DUP3 SLOAD PUSH2 0x15AC SWAP2 SWAP1 PUSH2 0x5964 JUMP JUMPDEST SWAP3 POP POP DUP2 SWAP1 SSTORE POP JUMPDEST POP POP POP POP JUMP JUMPDEST PUSH2 0x15C2 PUSH2 0x3C2F JUMP JUMPDEST PUSH1 0x0 DUP1 DUP5 DUP2 MSTORE PUSH1 0x20 ADD SWAP1 DUP2 MSTORE PUSH1 0x20 ADD PUSH1 0x0 KECCAK256 PUSH1 0xD ADD DUP3 DUP2 SLOAD DUP2 LT PUSH2 0x15E9 JUMPI PUSH2 0x15E8 PUSH2 0x58BE JUMP JUMPDEST JUMPDEST SWAP1 PUSH1 0x0 MSTORE PUSH1 0x20 PUSH1 0x0 KECCAK256 SWAP1 PUSH1 0x5 MUL ADD PUSH1 0x40 MLOAD DUP1 PUSH1 0xA0 ADD PUSH1 0x40 MSTORE SWAP1 DUP2 PUSH1 0x0 DUP3 ADD PUSH1 0x0 SWAP1 SLOAD SWAP1 PUSH2 0x100 EXP SWAP1 DIV PUSH20 0xFFFFFFFFFFFFFFFFFFFFFFFFFFFFFFFFFFFFFFFF AND PUSH20 0xFFFFFFFFFFFFFFFFFFFFFFFFFFFFFFFFFFFFFFFF AND PUSH20 0xFFFFFFFFFFFFFFFFFFFFFFFFFFFFFFFFFFFFFFFF AND DUP2 MSTORE PUSH1 0x20 ADD PUSH1 0x1 DUP3 ADD DUP1 SLOAD DUP1 PUSH1 0x20 MUL PUSH1 0x20 ADD PUSH1 0x40 MLOAD SWAP1 DUP2 ADD PUSH1 0x40 MSTORE DUP1 SWAP3 SWAP2 SWAP1 DUP2 DUP2 MSTORE PUSH1 0x20 ADD DUP3 DUP1 SLOAD DUP1 ISZERO PUSH2 0x16A7 JUMPI PUSH1 0x20 MUL DUP3 ADD SWAP2 SWAP1 PUSH1 0x0 MSTORE PUSH1 0x20 PUSH1 0x0 KECCAK256 SWAP1 JUMPDEST DUP2 SLOAD DUP2 MSTORE PUSH1 0x20 ADD SWAP1 PUSH1 0x1 ADD SWAP1 DUP1 DUP4 GT PUSH2 0x1693 JUMPI JUMPDEST POP POP POP POP POP DUP2 MSTORE PUSH1 0x20 ADD PUSH1 0x2 DUP3 ADD DUP1 SLOAD DUP1 PUSH1 0x20 MUL PUSH1 0x20 ADD PUSH1 0x40 MLOAD SWAP1 DUP2 ADD PUSH1 0x40 MSTORE DUP1 SWAP3 SWAP2 SWAP1 DUP2 DUP2 MSTORE PUSH1 0x20 ADD DUP3 DUP1 SLOAD DUP1 ISZERO PUSH2 0x1734 JUMPI PUSH1 0x20 MUL DUP3 ADD SWAP2 SWAP1 PUSH1 0x0 MSTORE PUSH1 0x20 PUSH1 0x0 KECCAK256 SWAP1 PUSH1 0x0 SWAP1 JUMPDEST DUP3 DUP3 SWAP1 SLOAD SWAP1 PUSH2 0x100 EXP SWAP1 DIV PUSH1 0xFF AND PUSH1 0x5 DUP2 GT ISZERO PUSH2 0x170E JUMPI PUSH2 0x170D PUSH2 0x483E JUMP JUMPDEST JUMPDEST DUP2 MSTORE PUSH1 0x20 ADD SWAP1 PUSH1 0x1 ADD SWAP1 PUSH1 0x20 DUP3 PUSH1 0x0 ADD DIV SWAP3 DUP4 ADD SWAP3 PUSH1 0x1 SUB DUP3 MUL SWAP2 POP DUP1 DUP5 GT PUSH2 0x16EE JUMPI SWAP1 POP JUMPDEST POP POP POP POP POP DUP2 MSTORE PUSH1 0x20 ADD PUSH1 0x3 DUP3 ADD DUP1 SLOAD DUP1 PUSH1 0x20 MUL PUSH1 0x20 ADD PUSH1 0x40 MLOAD SWAP1 DUP2 ADD PUSH1 0x40 MSTORE DUP1 SWAP3 SWAP2 SWAP1 DUP2 DUP2 MSTORE PUSH1 0x20 ADD PUSH1 0x0 SWAP1 JUMPDEST DUP3 DUP3 LT ISZERO PUSH2 0x180E JUMPI DUP4 DUP3 SWAP1 PUSH1 0x0 MSTORE PUSH1 0x20 PUSH1 0x0 KECCAK256 ADD DUP1 SLOAD PUSH2 0x1781 SWAP1 PUSH2 0x560F JUMP JUMPDEST DUP1 PUSH1 0x1F ADD PUSH1 0x20 DUP1 SWAP2 DIV MUL PUSH1 0x20 ADD PUSH1 0x40 MLOAD SWAP1 DUP2 ADD PUSH1 0x40 MSTORE DUP1 SWAP3 SWAP2 SWAP1 DUP2 DUP2 MSTORE PUSH1 0x20 ADD DUP3 DUP1 SLOAD PUSH2 0x17AD SWAP1 PUSH2 0x560F JUMP JUMPDEST DUP1 ISZERO PUSH2 0x17FA JUMPI DUP1 PUSH1 0x1F LT PUSH2 0x17CF JUMPI PUSH2 0x100 DUP1 DUP4 SLOAD DIV MUL DUP4 MSTORE SWAP2 PUSH1 0x20 ADD SWAP2 PUSH2 0x17FA JUMP JUMPDEST DUP3 ADD SWAP2 SWAP1 PUSH1 0x0 MSTORE PUSH1 0x20 PUSH1 0x0 KECCAK256 SWAP1 JUMPDEST DUP2 SLOAD DUP2 MSTORE SWAP1 PUSH1 0x1 ADD SWAP1 PUSH1 0x20 ADD DUP1 DUP4 GT PUSH2 0x17DD JUMPI DUP3 SWAP1 SUB PUSH1 0x1F AND DUP3 ADD SWAP2 JUMPDEST POP POP POP POP POP DUP2 MSTORE PUSH1 0x20 ADD SWAP1 PUSH1 0x1 ADD SWAP1 PUSH2 0x1762 JUMP JUMPDEST POP POP POP POP DUP2 MSTORE PUSH1 0x20 ADD PUSH1 0x4 DUP3 ADD SLOAD DUP2 MSTORE POP POP SWAP1 POP SWAP3 SWAP2 POP POP JUMP JUMPDEST PUSH1 0x0 DUP1 PUSH1 0x0 DUP1 DUP6 DUP2 MSTORE PUSH1 0x20 ADD SWAP1 DUP2 MSTORE PUSH1 0x20 ADD PUSH1 0x0 KECCAK256 PUSH1 0xC ADD DUP1 SLOAD SWAP1 POP SWAP1 POP PUSH1 0x0 DUP4 ISZERO PUSH2 0x185E JUMPI PUSH2 0x1857 DUP6 PUSH2 0x2659 JUMP JUMPDEST SWAP1 POP PUSH2 0x186A JUMP JUMPDEST PUSH2 0x1867 DUP6 PUSH2 0x3745 JUMP JUMPDEST SWAP1 POP JUMPDEST DUP2 DUP2 EQ SWAP3 POP POP POP SWAP3 SWAP2 POP POP JUMP JUMPDEST PUSH1 0x0 PUSH2 0x1881 PUSH2 0x3A70 JUMP JUMPDEST PUSH1 0x0 DUP1 PUSH1 0x0 PUSH1 0x1 SLOAD DUP2 MSTORE PUSH1 0x20 ADD SWAP1 DUP2 MSTORE PUSH1 0x20 ADD PUSH1 0x0 KECCAK256 SWAP1 POP DUP3 PUSH1 0x0 ADD MLOAD DUP2 PUSH1 0x1 ADD DUP2 SWAP1 SSTORE POP DUP3 PUSH1 0x20 ADD MLOAD DUP2 PUSH1 0x2 ADD SWAP1 DUP2 PUSH2 0x18BB SWAP2 SWAP1 PUSH2 0x57EC JUMP JUMPDEST POP DUP3 PUSH1 0x40 ADD MLOAD DUP2 PUSH1 0x3 ADD SWAP1 DUP2 PUSH2 0x18D1 SWAP2 SWAP1 PUSH2 0x57EC JUMP JUMPDEST POP DUP3 PUSH1 0x60 ADD MLOAD DUP2 PUSH1 0x4 ADD DUP2 SWAP1 SSTORE POP DUP3 PUSH1 0x80 ADD MLOAD DUP2 PUSH1 0x5 ADD SWAP1 DUP2 PUSH2 0x18F4 SWAP2 SWAP1 PUSH2 0x57EC JUMP JUMPDEST POP DUP3 PUSH1 0xA0 ADD MLOAD DUP2 PUSH1 0x6 ADD SWAP1 DUP2 PUSH2 0x190A SWAP2 SWAP1 PUSH2 0x57EC JUMP JUMPDEST POP DUP3 PUSH1 0xC0 ADD MLOAD DUP2 PUSH1 0x7 ADD SWAP1 DUP1 MLOAD SWAP1 PUSH1 0x20 ADD SWAP1 PUSH2 0x1927 SWAP3 SWAP2 SWAP1 PUSH2 0x3B06 JUMP JUMPDEST POP DUP3 PUSH1 0xE0 ADD MLOAD DUP2 PUSH1 0x8 ADD DUP2 SWAP1 SSTORE POP DUP3 PUSH2 0x100 ADD MLOAD DUP2 PUSH1 0x9 ADD DUP2 SWAP1 SSTORE POP DUP3 PUSH2 0x160 ADD MLOAD DUP2 PUSH1 0xB ADD DUP2 SWAP1 SSTORE POP DUP3 PUSH2 0x120 ADD MLOAD DUP2 PUSH1 0xA ADD PUSH1 0x0 PUSH2 0x100 EXP DUP2 SLOAD DUP2 PUSH1 0xFF MUL NOT AND SWAP1 DUP4 ISZERO ISZERO MUL OR SWAP1 SSTORE POP DUP3 PUSH2 0x140 ADD MLOAD DUP2 PUSH1 0xA ADD PUSH1 0x1 PUSH2 0x100 EXP DUP2 SLOAD DUP2 PUSH1 0xFF MUL NOT AND SWAP1 DUP4 ISZERO ISZERO MUL OR SWAP1 SSTORE POP PUSH1 0x0 DUP2 PUSH1 0x11 ADD PUSH1 0x2 PUSH2 0x100 EXP DUP2 SLOAD DUP2 PUSH1 0xFF MUL NOT AND SWAP1 DUP4 PUSH1 0x5 DUP2 GT ISZERO PUSH2 0x19BB JUMPI PUSH2 0x19BA PUSH2 0x483E JUMP JUMPDEST JUMPDEST MUL OR SWAP1 SSTORE POP DUP3 PUSH2 0x140 ADD MLOAD PUSH2 0x19E3 JUMPI PUSH1 0x1 DUP2 PUSH1 0xF ADD DUP2 SWAP1 SSTORE POP PUSH1 0x1 DUP2 PUSH1 0xF ADD DUP2 SWAP1 SSTORE POP PUSH2 0x1A02 JUMP JUMPDEST DUP3 PUSH2 0x180 ADD MLOAD MLOAD DUP2 PUSH1 0xF ADD DUP2 SWAP1 SSTORE POP DUP3 PUSH2 0x180 ADD MLOAD MLOAD DUP2 PUSH1 0xF ADD DUP2 SWAP1 SSTORE POP JUMPDEST PUSH1 0x1 DUP2 PUSH1 0x11 ADD PUSH1 0x0 PUSH2 0x100 EXP DUP2 SLOAD DUP2 PUSH1 0xFF MUL NOT AND SWAP1 DUP4 ISZERO ISZERO MUL OR SWAP1 SSTORE POP PUSH1 0x1 DUP2 PUSH1 0x11 ADD PUSH1 0x1 PUSH2 0x100 EXP DUP2 SLOAD DUP2 PUSH1 0xFF MUL NOT AND SWAP1 DUP4 ISZERO ISZERO MUL OR SWAP1 SSTORE POP PUSH1 0x0 JUMPDEST DUP4 PUSH2 0x180 ADD MLOAD MLOAD DUP2 LT ISZERO PUSH2 0x1B72 JUMPI DUP2 PUSH1 0xC ADD DUP5 PUSH2 0x180 ADD MLOAD DUP3 DUP2 MLOAD DUP2 LT PUSH2 0x1A69 JUMPI PUSH2 0x1A68 PUSH2 0x58BE JUMP JUMPDEST JUMPDEST PUSH1 0x20 MUL PUSH1 0x20 ADD ADD MLOAD SWAP1 DUP1 PUSH1 0x1 DUP2 SLOAD ADD DUP1 DUP3 SSTORE DUP1 SWAP2 POP POP PUSH1 0x1 SWAP1 SUB SWAP1 PUSH1 0x0 MSTORE PUSH1 0x20 PUSH1 0x0 KECCAK256 SWAP1 PUSH1 0xB MUL ADD PUSH1 0x0 SWAP1 SWAP2 SWAP1 SWAP2 SWAP1 SWAP2 POP PUSH1 0x0 DUP3 ADD MLOAD DUP2 PUSH1 0x0 ADD PUSH1 0x0 DUP3 ADD MLOAD DUP2 PUSH1 0x0 ADD SWAP1 DUP2 PUSH2 0x1AB8 SWAP2 SWAP1 PUSH2 0x57EC JUMP JUMPDEST POP PUSH1 0x20 DUP3 ADD MLOAD DUP2 PUSH1 0x1 ADD SSTORE PUSH1 0x40 DUP3 ADD MLOAD DUP2 PUSH1 0x2 ADD SSTORE PUSH1 0x60 DUP3 ADD MLOAD DUP2 PUSH1 0x3 ADD SSTORE PUSH1 0x80 DUP3 ADD MLOAD DUP2 PUSH1 0x4 ADD SSTORE PUSH1 0xA0 DUP3 ADD MLOAD DUP2 PUSH1 0x5 ADD SSTORE PUSH1 0xC0 DUP3 ADD MLOAD DUP2 PUSH1 0x6 ADD SWAP1 DUP2 PUSH2 0x1B00 SWAP2 SWAP1 PUSH2 0x57EC JUMP JUMPDEST POP POP POP PUSH1 0x20 DUP3 ADD MLOAD DUP2 PUSH1 0x7 ADD SSTORE PUSH1 0x40 DUP3 ADD MLOAD DUP2 PUSH1 0x8 ADD SWAP1 DUP2 PUSH2 0x1B22 SWAP2 SWAP1 PUSH2 0x57EC JUMP JUMPDEST POP PUSH1 0x60 DUP3 ADD MLOAD DUP2 PUSH1 0x9 ADD PUSH1 0x0 PUSH2 0x100 EXP DUP2 SLOAD DUP2 PUSH1 0xFF MUL NOT AND SWAP1 DUP4 PUSH1 0x7 DUP2 GT ISZERO PUSH2 0x1B4E JUMPI PUSH2 0x1B4D PUSH2 0x483E JUMP JUMPDEST JUMPDEST MUL OR SWAP1 SSTORE POP PUSH1 0x80 DUP3 ADD MLOAD DUP2 PUSH1 0xA ADD SSTORE POP POP DUP1 DUP1 PUSH2 0x1B6A SWAP1 PUSH2 0x591C JUMP JUMPDEST SWAP2 POP POP PUSH2 0x1A3F JUMP JUMPDEST POP PUSH2 0x1B7B PUSH2 0x218E JUMP JUMPDEST SWAP2 POP POP SWAP2 SWAP1 POP JUMP JUMPDEST DUP1 ISZERO PUSH2 0x1C12 JUMPI DUP2 PUSH1 0x0 DUP1 DUP8 DUP2 MSTORE PUSH1 0x20 ADD SWAP1 DUP2 MSTORE PUSH1 0x20 ADD PUSH1 0x0 KECCAK256 PUSH1 0xD ADD DUP6 DUP2 SLOAD DUP2 LT PUSH2 0x1BB1 JUMPI PUSH2 0x1BB0 PUSH2 0x58BE JUMP JUMPDEST JUMPDEST SWAP1 PUSH1 0x0 MSTORE PUSH1 0x20 PUSH1 0x0 KECCAK256 SWAP1 PUSH1 0x5 MUL ADD PUSH1 0x2 ADD DUP5 DUP2 SLOAD DUP2 LT PUSH2 0x1BD4 JUMPI PUSH2 0x1BD3 PUSH2 0x58BE JUMP JUMPDEST JUMPDEST SWAP1 PUSH1 0x0 MSTORE PUSH1 0x20 PUSH1 0x0 KECCAK256 SWAP1 PUSH1 0x20 SWAP2 DUP3 DUP3 DIV ADD SWAP2 SWAP1 MOD PUSH2 0x100 EXP DUP2 SLOAD DUP2 PUSH1 0xFF MUL NOT AND SWAP1 DUP4 PUSH1 0x5 DUP2 GT ISZERO PUSH2 0x1C08 JUMPI PUSH2 0x1C07 PUSH2 0x483E JUMP JUMPDEST JUMPDEST MUL OR SWAP1 SSTORE POP PUSH2 0x1C97 JUMP JUMPDEST DUP2 PUSH1 0x0 DUP1 DUP8 DUP2 MSTORE PUSH1 0x20 ADD SWAP1 DUP2 MSTORE PUSH1 0x20 ADD PUSH1 0x0 KECCAK256 PUSH1 0xE ADD DUP6 DUP2 SLOAD DUP2 LT PUSH2 0x1C3A JUMPI PUSH2 0x1C39 PUSH2 0x58BE JUMP JUMPDEST JUMPDEST SWAP1 PUSH1 0x0 MSTORE PUSH1 0x20 PUSH1 0x0 KECCAK256 SWAP1 PUSH1 0x5 MUL ADD PUSH1 0x2 ADD DUP5 DUP2 SLOAD DUP2 LT PUSH2 0x1C5D JUMPI PUSH2 0x1C5C PUSH2 0x58BE JUMP JUMPDEST JUMPDEST SWAP1 PUSH1 0x0 MSTORE PUSH1 0x20 PUSH1 0x0 KECCAK256 SWAP1 PUSH1 0x20 SWAP2 DUP3 DUP3 DIV ADD SWAP2 SWAP1 MOD PUSH2 0x100 EXP DUP2 SLOAD DUP2 PUSH1 0xFF MUL NOT AND SWAP1 DUP4 PUSH1 0x5 DUP2 GT ISZERO PUSH2 0x1C91 JUMPI PUSH2 0x1C90 PUSH2 0x483E JUMP JUMPDEST JUMPDEST MUL OR SWAP1 SSTORE POP JUMPDEST POP POP POP POP POP JUMP JUMPDEST PUSH1 0x0 DUP3 SUB PUSH2 0x1E56 JUMPI PUSH1 0x0 DUP1 PUSH1 0x0 DUP7 DUP2 MSTORE PUSH1 0x20 ADD SWAP1 DUP2 MSTORE PUSH1 0x20 ADD PUSH1 0x0 KECCAK256 PUSH1 0xD ADD SWAP1 POP PUSH2 0x1CC7 PUSH2 0x3C2F JUMP JUMPDEST DUP3 DUP2 PUSH1 0x0 ADD SWAP1 PUSH20 0xFFFFFFFFFFFFFFFFFFFFFFFFFFFFFFFFFFFFFFFF AND SWAP1 DUP2 PUSH20 0xFFFFFFFFFFFFFFFFFFFFFFFFFFFFFFFFFFFFFFFF AND DUP2 MSTORE POP POP DUP5 DUP2 PUSH1 0x20 ADD DUP2 SWAP1 MSTORE POP PUSH1 0x0 JUMPDEST DUP6 MLOAD DUP2 LT ISZERO PUSH2 0x1D79 JUMPI PUSH1 0x0 PUSH2 0x1D1F DUP9 PUSH2 0x804 JUMP JUMPDEST PUSH2 0x1A0 ADD MLOAD DUP3 DUP2 MLOAD DUP2 LT PUSH2 0x1D36 JUMPI PUSH2 0x1D35 PUSH2 0x58BE JUMP JUMPDEST JUMPDEST PUSH1 0x20 MUL PUSH1 0x20 ADD ADD MLOAD PUSH1 0x20 ADD MLOAD SWAP1 POP PUSH2 0x1D4D DUP2 PUSH2 0x3A8A JUMP JUMPDEST DUP4 PUSH1 0x80 ADD DUP2 DUP2 MLOAD PUSH2 0x1D5E SWAP2 SWAP1 PUSH2 0x5998 JUMP JUMPDEST SWAP2 POP DUP2 DUP2 MSTORE POP POP POP DUP1 DUP1 PUSH2 0x1D71 SWAP1 PUSH2 0x591C JUMP JUMPDEST SWAP2 POP POP PUSH2 0x1D0B JUMP JUMPDEST POP DUP2 DUP2 SWAP1 DUP1 PUSH1 0x1 DUP2 SLOAD ADD DUP1 DUP3 SSTORE DUP1 SWAP2 POP POP PUSH1 0x1 SWAP1 SUB SWAP1 PUSH1 0x0 MSTORE PUSH1 0x20 PUSH1 0x0 KECCAK256 SWAP1 PUSH1 0x5 MUL ADD PUSH1 0x0 SWAP1 SWAP2 SWAP1 SWAP2 SWAP1 SWAP2 POP PUSH1 0x0 DUP3 ADD MLOAD DUP2 PUSH1 0x0 ADD PUSH1 0x0 PUSH2 0x100 EXP DUP2 SLOAD DUP2 PUSH20 0xFFFFFFFFFFFFFFFFFFFFFFFFFFFFFFFFFFFFFFFF MUL NOT AND SWAP1 DUP4 PUSH20 0xFFFFFFFFFFFFFFFFFFFFFFFFFFFFFFFFFFFFFFFF AND MUL OR SWAP1 SSTORE POP PUSH1 0x20 DUP3 ADD MLOAD DUP2 PUSH1 0x1 ADD SWAP1 DUP1 MLOAD SWAP1 PUSH1 0x20 ADD SWAP1 PUSH2 0x1E08 SWAP3 SWAP2 SWAP1 PUSH2 0x3C74 JUMP JUMPDEST POP PUSH1 0x40 DUP3 ADD MLOAD DUP2 PUSH1 0x2 ADD SWAP1 DUP1 MLOAD SWAP1 PUSH1 0x20 ADD SWAP1 PUSH2 0x1E25 SWAP3 SWAP2 SWAP1 PUSH2 0x3CC1 JUMP JUMPDEST POP PUSH1 0x60 DUP3 ADD MLOAD DUP2 PUSH1 0x3 ADD SWAP1 DUP1 MLOAD SWAP1 PUSH1 0x20 ADD SWAP1 PUSH2 0x1E42 SWAP3 SWAP2 SWAP1 PUSH2 0x3B06 JUMP JUMPDEST POP PUSH1 0x80 DUP3 ADD MLOAD DUP2 PUSH1 0x4 ADD SSTORE POP POP POP POP PUSH2 0x1EF6 JUMP JUMPDEST PUSH1 0x0 DUP1 PUSH1 0x0 DUP7 DUP2 MSTORE PUSH1 0x20 ADD SWAP1 DUP2 MSTORE PUSH1 0x20 ADD PUSH1 0x0 KECCAK256 PUSH1 0xD ADD DUP4 DUP2 SLOAD DUP2 LT PUSH2 0x1E7F JUMPI PUSH2 0x1E7E PUSH2 0x58BE JUMP JUMPDEST JUMPDEST SWAP1 PUSH1 0x0 MSTORE PUSH1 0x20 PUSH1 0x0 KECCAK256 SWAP1 PUSH1 0x5 MUL ADD SWAP1 POP PUSH1 0x0 JUMPDEST DUP5 MLOAD DUP2 LT ISZERO PUSH2 0x1EF3 JUMPI DUP2 PUSH1 0x1 ADD DUP6 DUP3 DUP2 MLOAD DUP2 LT PUSH2 0x1EB2 JUMPI PUSH2 0x1EB1 PUSH2 0x58BE JUMP JUMPDEST JUMPDEST PUSH1 0x20 MUL PUSH1 0x20 ADD ADD MLOAD SWAP1 DUP1 PUSH1 0x1 DUP2 SLOAD ADD DUP1 DUP3 SSTORE DUP1 SWAP2 POP POP PUSH1 0x1 SWAP1 SUB SWAP1 PUSH1 0x0 MSTORE PUSH1 0x20 PUSH1 0x0 KECCAK256 ADD PUSH1 0x0 SWAP1 SWAP2 SWAP1 SWAP2 SWAP1 SWAP2 POP SSTORE DUP1 DUP1 PUSH2 0x1EEB SWAP1 PUSH2 0x591C JUMP JUMPDEST SWAP2 POP POP PUSH2 0x1E92 JUMP JUMPDEST POP POP JUMPDEST PUSH2 0x1F01 DUP5 PUSH1 0x1 PUSH2 0x1828 JUMP JUMPDEST ISZERO PUSH2 0x1F10 JUMPI PUSH2 0x1F0F DUP5 PUSH2 0x29A5 JUMP JUMPDEST JUMPDEST POP POP POP POP JUMP JUMPDEST PUSH1 0x0 DUP3 SUB PUSH2 0x20CE JUMPI PUSH1 0x0 DUP1 PUSH1 0x0 DUP7 DUP2 MSTORE PUSH1 0x20 ADD SWAP1 DUP2 MSTORE PUSH1 0x20 ADD PUSH1 0x0 KECCAK256 PUSH1 0xE ADD SWAP1 POP PUSH2 0x1F3F PUSH2 0x3C2F JUMP JUMPDEST DUP3 DUP2 PUSH1 0x0 ADD SWAP1 PUSH20 0xFFFFFFFFFFFFFFFFFFFFFFFFFFFFFFFFFFFFFFFF AND SWAP1 DUP2 PUSH20 0xFFFFFFFFFFFFFFFFFFFFFFFFFFFFFFFFFFFFFFFF AND DUP2 MSTORE POP POP DUP5 DUP2 PUSH1 0x20 ADD DUP2 SWAP1 MSTORE POP PUSH1 0x0 JUMPDEST DUP6 MLOAD DUP2 LT ISZERO PUSH2 0x1FF1 JUMPI PUSH1 0x0 PUSH2 0x1F97 DUP9 PUSH2 0x804 JUMP JUMPDEST PUSH2 0x1A0 ADD MLOAD DUP3 DUP2 MLOAD DUP2 LT PUSH2 0x1FAE JUMPI PUSH2 0x1FAD PUSH2 0x58BE JUMP JUMPDEST JUMPDEST PUSH1 0x20 MUL PUSH1 0x20 ADD ADD MLOAD PUSH1 0x20 ADD MLOAD SWAP1 POP PUSH2 0x1FC5 DUP2 PUSH2 0x3AAD JUMP JUMPDEST DUP4 PUSH1 0x80 ADD DUP2 DUP2 MLOAD PUSH2 0x1FD6 SWAP2 SWAP1 PUSH2 0x5998 JUMP JUMPDEST SWAP2 POP DUP2 DUP2 MSTORE POP POP POP DUP1 DUP1 PUSH2 0x1FE9 SWAP1 PUSH2 0x591C JUMP JUMPDEST SWAP2 POP POP PUSH2 0x1F83 JUMP JUMPDEST POP DUP2 DUP2 SWAP1 DUP1 PUSH1 0x1 DUP2 SLOAD ADD DUP1 DUP3 SSTORE DUP1 SWAP2 POP POP PUSH1 0x1 SWAP1 SUB SWAP1 PUSH1 0x0 MSTORE PUSH1 0x20 PUSH1 0x0 KECCAK256 SWAP1 PUSH1 0x5 MUL ADD PUSH1 0x0 SWAP1 SWAP2 SWAP1 SWAP2 SWAP1 SWAP2 POP PUSH1 0x0 DUP3 ADD MLOAD DUP2 PUSH1 0x0 ADD PUSH1 0x0 PUSH2 0x100 EXP DUP2 SLOAD DUP2 PUSH20 0xFFFFFFFFFFFFFFFFFFFFFFFFFFFFFFFFFFFFFFFF MUL NOT AND SWAP1 DUP4 PUSH20 0xFFFFFFFFFFFFFFFFFFFFFFFFFFFFFFFFFFFFFFFF AND MUL OR SWAP1 SSTORE POP PUSH1 0x20 DUP3 ADD MLOAD DUP2 PUSH1 0x1 ADD SWAP1 DUP1 MLOAD SWAP1 PUSH1 0x20 ADD SWAP1 PUSH2 0x2080 SWAP3 SWAP2 SWAP1 PUSH2 0x3C74 JUMP JUMPDEST POP PUSH1 0x40 DUP3 ADD MLOAD DUP2 PUSH1 0x2 ADD SWAP1 DUP1 MLOAD SWAP1 PUSH1 0x20 ADD SWAP1 PUSH2 0x209D SWAP3 SWAP2 SWAP1 PUSH2 0x3CC1 JUMP JUMPDEST POP PUSH1 0x60 DUP3 ADD MLOAD DUP2 PUSH1 0x3 ADD SWAP1 DUP1 MLOAD SWAP1 PUSH1 0x20 ADD SWAP1 PUSH2 0x20BA SWAP3 SWAP2 SWAP1 PUSH2 0x3B06 JUMP JUMPDEST POP PUSH1 0x80 DUP3 ADD MLOAD DUP2 PUSH1 0x4 ADD SSTORE POP POP POP POP PUSH2 0x216E JUMP JUMPDEST PUSH1 0x0 DUP1 PUSH1 0x0 DUP7 DUP2 MSTORE PUSH1 0x20 ADD SWAP1 DUP2 MSTORE PUSH1 0x20 ADD PUSH1 0x0 KECCAK256 PUSH1 0xE ADD DUP4 DUP2 SLOAD DUP2 LT PUSH2 0x20F7 JUMPI PUSH2 0x20F6 PUSH2 0x58BE JUMP JUMPDEST JUMPDEST SWAP1 PUSH1 0x0 MSTORE PUSH1 0x20 PUSH1 0x0 KECCAK256 SWAP1 PUSH1 0x5 MUL ADD SWAP1 POP PUSH1 0x0 JUMPDEST DUP5 MLOAD DUP2 LT ISZERO PUSH2 0x216B JUMPI DUP2 PUSH1 0x1 ADD DUP6 DUP3 DUP2 MLOAD DUP2 LT PUSH2 0x212A JUMPI PUSH2 0x2129 PUSH2 0x58BE JUMP JUMPDEST JUMPDEST PUSH1 0x20 MUL PUSH1 0x20 ADD ADD MLOAD SWAP1 DUP1 PUSH1 0x1 DUP2 SLOAD ADD DUP1 DUP3 SSTORE DUP1 SWAP2 POP POP PUSH1 0x1 SWAP1 SUB SWAP1 PUSH1 0x0 MSTORE PUSH1 0x20 PUSH1 0x0 KECCAK256 ADD PUSH1 0x0 SWAP1 SWAP2 SWAP1 SWAP2 SWAP1 SWAP2 POP SSTORE DUP1 DUP1 PUSH2 0x2163 SWAP1 PUSH2 0x591C JUMP JUMPDEST SWAP2 POP POP PUSH2 0x210A JUMP JUMPDEST POP POP JUMPDEST PUSH2 0x2179 DUP5 PUSH1 0x0 PUSH2 0x1828 JUMP JUMPDEST ISZERO PUSH2 0x2188 JUMPI PUSH2 0x2187 DUP5 PUSH2 0x29A5 JUMP JUMPDEST JUMPDEST POP POP POP POP JUMP JUMPDEST PUSH1 0x0 PUSH1 0x1 SLOAD SWAP1 POP SWAP1 JUMP JUMPDEST DUP1 ISZERO PUSH2 0x2205 JUMPI DUP2 PUSH1 0x0 DUP1 DUP8 DUP2 MSTORE PUSH1 0x20 ADD SWAP1 DUP2 MSTORE PUSH1 0x20 ADD PUSH1 0x0 KECCAK256 PUSH1 0xD ADD DUP6 DUP2 SLOAD DUP2 LT PUSH2 0x21C6 JUMPI PUSH2 0x21C5 PUSH2 0x58BE JUMP JUMPDEST JUMPDEST SWAP1 PUSH1 0x0 MSTORE PUSH1 0x20 PUSH1 0x0 KECCAK256 SWAP1 PUSH1 0x5 MUL ADD PUSH1 0x3 ADD DUP5 DUP2 SLOAD DUP2 LT PUSH2 0x21E9 JUMPI PUSH2 0x21E8 PUSH2 0x58BE JUMP JUMPDEST JUMPDEST SWAP1 PUSH1 0x0 MSTORE PUSH1 0x20 PUSH1 0x0 KECCAK256 ADD SWAP1 DUP2 PUSH2 0x21FF SWAP2 SWAP1 PUSH2 0x57EC JUMP JUMPDEST POP PUSH2 0x2268 JUMP JUMPDEST DUP2 PUSH1 0x0 DUP1 DUP8 DUP2 MSTORE PUSH1 0x20 ADD SWAP1 DUP2 MSTORE PUSH1 0x20 ADD PUSH1 0x0 KECCAK256 PUSH1 0xE ADD DUP6 DUP2 SLOAD DUP2 LT PUSH2 0x222D JUMPI PUSH2 0x222C PUSH2 0x58BE JUMP JUMPDEST JUMPDEST SWAP1 PUSH1 0x0 MSTORE PUSH1 0x20 PUSH1 0x0 KECCAK256 SWAP1 PUSH1 0x5 MUL ADD PUSH1 0x3 ADD DUP5 DUP2 SLOAD DUP2 LT PUSH2 0x2250 JUMPI PUSH2 0x224F PUSH2 0x58BE JUMP JUMPDEST JUMPDEST SWAP1 PUSH1 0x0 MSTORE PUSH1 0x20 PUSH1 0x0 KECCAK256 ADD SWAP1 DUP2 PUSH2 0x2266 SWAP2 SWAP1 PUSH2 0x57EC JUMP JUMPDEST POP JUMPDEST POP POP POP POP POP JUMP JUMPDEST PUSH2 0x2277 PUSH2 0x3C2F JUMP JUMPDEST PUSH1 0x0 DUP1 DUP5 DUP2 MSTORE PUSH1 0x20 ADD SWAP1 DUP2 MSTORE PUSH1 0x20 ADD PUSH1 0x0 KECCAK256 PUSH1 0xE ADD DUP3 DUP2 SLOAD DUP2 LT PUSH2 0x229E JUMPI PUSH2 0x229D PUSH2 0x58BE JUMP JUMPDEST JUMPDEST SWAP1 PUSH1 0x0 MSTORE PUSH1 0x20 PUSH1 0x0 KECCAK256 SWAP1 PUSH1 0x5 MUL ADD PUSH1 0x40 MLOAD DUP1 PUSH1 0xA0 ADD PUSH1 0x40 MSTORE SWAP1 DUP2 PUSH1 0x0 DUP3 ADD PUSH1 0x0 SWAP1 SLOAD SWAP1 PUSH2 0x100 EXP SWAP1 DIV PUSH20 0xFFFFFFFFFFFFFFFFFFFFFFFFFFFFFFFFFFFFFFFF AND PUSH20 0xFFFFFFFFFFFFFFFFFFFFFFFFFFFFFFFFFFFFFFFF AND PUSH20 0xFFFFFFFFFFFFFFFFFFFFFFFFFFFFFFFFFFFFFFFF AND DUP2 MSTORE PUSH1 0x20 ADD PUSH1 0x1 DUP3 ADD DUP1 SLOAD DUP1 PUSH1 0x20 MUL PUSH1 0x20 ADD PUSH1 0x40 MLOAD SWAP1 DUP2 ADD PUSH1 0x40 MSTORE DUP1 SWAP3 SWAP2 SWAP1 DUP2 DUP2 MSTORE PUSH1 0x20 ADD DUP3 DUP1 SLOAD DUP1 ISZERO PUSH2 0x235C JUMPI PUSH1 0x20 MUL DUP3 ADD SWAP2 SWAP1 PUSH1 0x0 MSTORE PUSH1 0x20 PUSH1 0x0 KECCAK256 SWAP1 JUMPDEST DUP2 SLOAD DUP2 MSTORE PUSH1 0x20 ADD SWAP1 PUSH1 0x1 ADD SWAP1 DUP1 DUP4 GT PUSH2 0x2348 JUMPI JUMPDEST POP POP POP POP POP DUP2 MSTORE PUSH1 0x20 ADD PUSH1 0x2 DUP3 ADD DUP1 SLOAD DUP1 PUSH1 0x20 MUL PUSH1 0x20 ADD PUSH1 0x40 MLOAD SWAP1 DUP2 ADD PUSH1 0x40 MSTORE DUP1 SWAP3 SWAP2 SWAP1 DUP2 DUP2 MSTORE PUSH1 0x20 ADD DUP3 DUP1 SLOAD DUP1 ISZERO PUSH2 0x23E9 JUMPI PUSH1 0x20 MUL DUP3 ADD SWAP2 SWAP1 PUSH1 0x0 MSTORE PUSH1 0x20 PUSH1 0x0 KECCAK256 SWAP1 PUSH1 0x0 SWAP1 JUMPDEST DUP3 DUP3 SWAP1 SLOAD SWAP1 PUSH2 0x100 EXP SWAP1 DIV PUSH1 0xFF AND PUSH1 0x5 DUP2 GT ISZERO PUSH2 0x23C3 JUMPI PUSH2 0x23C2 PUSH2 0x483E JUMP JUMPDEST JUMPDEST DUP2 MSTORE PUSH1 0x20 ADD SWAP1 PUSH1 0x1 ADD SWAP1 PUSH1 0x20 DUP3 PUSH1 0x0 ADD DIV SWAP3 DUP4 ADD SWAP3 PUSH1 0x1 SUB DUP3 MUL SWAP2 POP DUP1 DUP5 GT PUSH2 0x23A3 JUMPI SWAP1 POP JUMPDEST POP POP POP POP POP DUP2 MSTORE PUSH1 0x20 ADD PUSH1 0x3 DUP3 ADD DUP1 SLOAD DUP1 PUSH1 0x20 MUL PUSH1 0x20 ADD PUSH1 0x40 MLOAD SWAP1 DUP2 ADD PUSH1 0x40 MSTORE DUP1 SWAP3 SWAP2 SWAP1 DUP2 DUP2 MSTORE PUSH1 0x20 ADD PUSH1 0x0 SWAP1 JUMPDEST DUP3 DUP3 LT ISZERO PUSH2 0x24C3 JUMPI DUP4 DUP3 SWAP1 PUSH1 0x0 MSTORE PUSH1 0x20 PUSH1 0x0 KECCAK256 ADD DUP1 SLOAD PUSH2 0x2436 SWAP1 PUSH2 0x560F JUMP JUMPDEST DUP1 PUSH1 0x1F ADD PUSH1 0x20 DUP1 SWAP2 DIV MUL PUSH1 0x20 ADD PUSH1 0x40 MLOAD SWAP1 DUP2 ADD PUSH1 0x40 MSTORE DUP1 SWAP3 SWAP2 SWAP1 DUP2 DUP2 MSTORE PUSH1 0x20 ADD DUP3 DUP1 SLOAD PUSH2 0x2462 SWAP1 PUSH2 0x560F JUMP JUMPDEST DUP1 ISZERO PUSH2 0x24AF JUMPI DUP1 PUSH1 0x1F LT PUSH2 0x2484 JUMPI PUSH2 0x100 DUP1 DUP4 SLOAD DIV MUL DUP4 MSTORE SWAP2 PUSH1 0x20 ADD SWAP2 PUSH2 0x24AF JUMP JUMPDEST DUP3 ADD SWAP2 SWAP1 PUSH1 0x0 MSTORE PUSH1 0x20 PUSH1 0x0 KECCAK256 SWAP1 JUMPDEST DUP2 SLOAD DUP2 MSTORE SWAP1 PUSH1 0x1 ADD SWAP1 PUSH1 0x20 ADD DUP1 DUP4 GT PUSH2 0x2492 JUMPI DUP3 SWAP1 SUB PUSH1 0x1F AND DUP3 ADD SWAP2 JUMPDEST POP POP POP POP POP DUP2 MSTORE PUSH1 0x20 ADD SWAP1 PUSH1 0x1 ADD SWAP1 PUSH2 0x2417 JUMP JUMPDEST POP POP POP POP DUP2 MSTORE PUSH1 0x20 ADD PUSH1 0x4 DUP3 ADD SLOAD DUP2 MSTORE POP POP SWAP1 POP SWAP3 SWAP2 POP POP JUMP JUMPDEST PUSH1 0x0 DUP1 PUSH1 0x0 DUP6 DUP2 MSTORE PUSH1 0x20 ADD SWAP1 DUP2 MSTORE PUSH1 0x20 ADD PUSH1 0x0 KECCAK256 PUSH1 0xD ADD DUP3 DUP2 SLOAD DUP2 LT PUSH2 0x2506 JUMPI PUSH2 0x2505 PUSH2 0x58BE JUMP JUMPDEST JUMPDEST SWAP1 PUSH1 0x0 MSTORE PUSH1 0x20 PUSH1 0x0 KECCAK256 SWAP1 PUSH1 0x5 MUL ADD SWAP1 POP DUP1 PUSH1 0x1 ADD DUP4 SWAP1 DUP1 PUSH1 0x1 DUP2 SLOAD ADD DUP1 DUP3 SSTORE DUP1 SWAP2 POP POP PUSH1 0x1 SWAP1 SUB SWAP1 PUSH1 0x0 MSTORE PUSH1 0x20 PUSH1 0x0 KECCAK256 ADD PUSH1 0x0 SWAP1 SWAP2 SWAP1 SWAP2 SWAP1 SWAP2 POP SSTORE PUSH1 0x0 PUSH2 0x254C DUP6 PUSH2 0x804 JUMP JUMPDEST PUSH2 0x1A0 ADD MLOAD DUP5 DUP2 MLOAD DUP2 LT PUSH2 0x2563 JUMPI PUSH2 0x2562 PUSH2 0x58BE JUMP JUMPDEST JUMPDEST PUSH1 0x20 MUL PUSH1 0x20 ADD ADD MLOAD PUSH1 0x20 ADD MLOAD SWAP1 POP PUSH2 0x257A DUP2 PUSH2 0x3A8A JUMP JUMPDEST DUP3 PUSH1 0x4 ADD PUSH1 0x0 DUP3 DUP3 SLOAD PUSH2 0x258D SWAP2 SWAP1 PUSH2 0x5998 JUMP JUMPDEST SWAP3 POP POP DUP2 SWAP1 SSTORE POP POP POP POP POP POP JUMP JUMPDEST PUSH1 0x0 DUP1 PUSH1 0x0 DUP6 DUP2 MSTORE PUSH1 0x20 ADD SWAP1 DUP2 MSTORE PUSH1 0x20 ADD PUSH1 0x0 KECCAK256 PUSH1 0xE ADD DUP3 DUP2 SLOAD DUP2 LT PUSH2 0x25C4 JUMPI PUSH2 0x25C3 PUSH2 0x58BE JUMP JUMPDEST JUMPDEST SWAP1 PUSH1 0x0 MSTORE PUSH1 0x20 PUSH1 0x0 KECCAK256 SWAP1 PUSH1 0x5 MUL ADD SWAP1 POP DUP1 PUSH1 0x1 ADD DUP4 SWAP1 DUP1 PUSH1 0x1 DUP2 SLOAD ADD DUP1 DUP3 SSTORE DUP1 SWAP2 POP POP PUSH1 0x1 SWAP1 SUB SWAP1 PUSH1 0x0 MSTORE PUSH1 0x20 PUSH1 0x0 KECCAK256 ADD PUSH1 0x0 SWAP1 SWAP2 SWAP1 SWAP2 SWAP1 SWAP2 POP SSTORE PUSH1 0x0 PUSH2 0x260A DUP6 PUSH2 0x804 JUMP JUMPDEST PUSH2 0x1A0 ADD MLOAD DUP5 DUP2 MLOAD DUP2 LT PUSH2 0x2621 JUMPI PUSH2 0x2620 PUSH2 0x58BE JUMP JUMPDEST JUMPDEST PUSH1 0x20 MUL PUSH1 0x20 ADD ADD MLOAD PUSH1 0x20 ADD MLOAD SWAP1 POP PUSH2 0x2638 DUP2 PUSH2 0x3AAD JUMP JUMPDEST DUP3 PUSH1 0x4 ADD PUSH1 0x0 DUP3 DUP3 SLOAD PUSH2 0x264B SWAP2 SWAP1 PUSH2 0x5998 JUMP JUMPDEST SWAP3 POP POP DUP2 SWAP1 SSTORE POP POP POP POP POP POP JUMP JUMPDEST PUSH1 0x0 DUP1 PUSH1 0x0 DUP1 DUP5 DUP2 MSTORE PUSH1 0x20 ADD SWAP1 DUP2 MSTORE PUSH1 0x20 ADD PUSH1 0x0 KECCAK256 PUSH1 0xD ADD DUP1 SLOAD DUP1 PUSH1 0x20 MUL PUSH1 0x20 ADD PUSH1 0x40 MLOAD SWAP1 DUP2 ADD PUSH1 0x40 MSTORE DUP1 SWAP3 SWAP2 SWAP1 DUP2 DUP2 MSTORE PUSH1 0x20 ADD PUSH1 0x0 SWAP1 JUMPDEST DUP3 DUP3 LT ISZERO PUSH2 0x28E1 JUMPI DUP4 DUP3 SWAP1 PUSH1 0x0 MSTORE PUSH1 0x20 PUSH1 0x0 KECCAK256 SWAP1 PUSH1 0x5 MUL ADD PUSH1 0x40 MLOAD DUP1 PUSH1 0xA0 ADD PUSH1 0x40 MSTORE SWAP1 DUP2 PUSH1 0x0 DUP3 ADD PUSH1 0x0 SWAP1 SLOAD SWAP1 PUSH2 0x100 EXP SWAP1 DIV PUSH20 0xFFFFFFFFFFFFFFFFFFFFFFFFFFFFFFFFFFFFFFFF AND PUSH20 0xFFFFFFFFFFFFFFFFFFFFFFFFFFFFFFFFFFFFFFFF AND PUSH20 0xFFFFFFFFFFFFFFFFFFFFFFFFFFFFFFFFFFFFFFFF AND DUP2 MSTORE PUSH1 0x20 ADD PUSH1 0x1 DUP3 ADD DUP1 SLOAD DUP1 PUSH1 0x20 MUL PUSH1 0x20 ADD PUSH1 0x40 MLOAD SWAP1 DUP2 ADD PUSH1 0x40 MSTORE DUP1 SWAP3 SWAP2 SWAP1 DUP2 DUP2 MSTORE PUSH1 0x20 ADD DUP3 DUP1 SLOAD DUP1 ISZERO PUSH2 0x2759 JUMPI PUSH1 0x20 MUL DUP3 ADD SWAP2 SWAP1 PUSH1 0x0 MSTORE PUSH1 0x20 PUSH1 0x0 KECCAK256 SWAP1 JUMPDEST DUP2 SLOAD DUP2 MSTORE PUSH1 0x20 ADD SWAP1 PUSH1 0x1 ADD SWAP1 DUP1 DUP4 GT PUSH2 0x2745 JUMPI JUMPDEST POP POP POP POP POP DUP2 MSTORE PUSH1 0x20 ADD PUSH1 0x2 DUP3 ADD DUP1 SLOAD DUP1 PUSH1 0x20 MUL PUSH1 0x20 ADD PUSH1 0x40 MLOAD SWAP1 DUP2 ADD PUSH1 0x40 MSTORE DUP1 SWAP3 SWAP2 SWAP1 DUP2 DUP2 MSTORE PUSH1 0x20 ADD DUP3 DUP1 SLOAD DUP1 ISZERO PUSH2 0x27E6 JUMPI PUSH1 0x20 MUL DUP3 ADD SWAP2 SWAP1 PUSH1 0x0 MSTORE PUSH1 0x20 PUSH1 0x0 KECCAK256 SWAP1 PUSH1 0x0 SWAP1 JUMPDEST DUP3 DUP3 SWAP1 SLOAD SWAP1 PUSH2 0x100 EXP SWAP1 DIV PUSH1 0xFF AND PUSH1 0x5 DUP2 GT ISZERO PUSH2 0x27C0 JUMPI PUSH2 0x27BF PUSH2 0x483E JUMP JUMPDEST JUMPDEST DUP2 MSTORE PUSH1 0x20 ADD SWAP1 PUSH1 0x1 ADD SWAP1 PUSH1 0x20 DUP3 PUSH1 0x0 ADD DIV SWAP3 DUP4 ADD SWAP3 PUSH1 0x1 SUB DUP3 MUL SWAP2 POP DUP1 DUP5 GT PUSH2 0x27A0 JUMPI SWAP1 POP JUMPDEST POP POP POP POP POP DUP2 MSTORE PUSH1 0x20 ADD PUSH1 0x3 DUP3 ADD DUP1 SLOAD DUP1 PUSH1 0x20 MUL PUSH1 0x20 ADD PUSH1 0x40 MLOAD SWAP1 DUP2 ADD PUSH1 0x40 MSTORE DUP1 SWAP3 SWAP2 SWAP1 DUP2 DUP2 MSTORE PUSH1 0x20 ADD PUSH1 0x0 SWAP1 JUMPDEST DUP3 DUP3 LT ISZERO PUSH2 0x28C0 JUMPI DUP4 DUP3 SWAP1 PUSH1 0x0 MSTORE PUSH1 0x20 PUSH1 0x0 KECCAK256 ADD DUP1 SLOAD PUSH2 0x2833 SWAP1 PUSH2 0x560F JUMP JUMPDEST DUP1 PUSH1 0x1F ADD PUSH1 0x20 DUP1 SWAP2 DIV MUL PUSH1 0x20 ADD PUSH1 0x40 MLOAD SWAP1 DUP2 ADD PUSH1 0x40 MSTORE DUP1 SWAP3 SWAP2 SWAP1 DUP2 DUP2 MSTORE PUSH1 0x20 ADD DUP3 DUP1 SLOAD PUSH2 0x285F SWAP1 PUSH2 0x560F JUMP JUMPDEST DUP1 ISZERO PUSH2 0x28AC JUMPI DUP1 PUSH1 0x1F LT PUSH2 0x2881 JUMPI PUSH2 0x100 DUP1 DUP4 SLOAD DIV MUL DUP4 MSTORE SWAP2 PUSH1 0x20 ADD SWAP2 PUSH2 0x28AC JUMP JUMPDEST DUP3 ADD SWAP2 SWAP1 PUSH1 0x0 MSTORE PUSH1 0x20 PUSH1 0x0 KECCAK256 SWAP1 JUMPDEST DUP2 SLOAD DUP2 MSTORE SWAP1 PUSH1 0x1 ADD SWAP1 PUSH1 0x20 ADD DUP1 DUP4 GT PUSH2 0x288F JUMPI DUP3 SWAP1 SUB PUSH1 0x1F AND DUP3 ADD SWAP2 JUMPDEST POP POP POP POP POP DUP2 MSTORE PUSH1 0x20 ADD SWAP1 PUSH1 0x1 ADD SWAP1 PUSH2 0x2814 JUMP JUMPDEST POP POP POP POP DUP2 MSTORE PUSH1 0x20 ADD PUSH1 0x4 DUP3 ADD SLOAD DUP2 MSTORE POP POP DUP2 MSTORE PUSH1 0x20 ADD SWAP1 PUSH1 0x1 ADD SWAP1 PUSH2 0x2691 JUMP JUMPDEST POP POP POP POP SWAP1 POP PUSH1 0x0 DUP1 PUSH1 0x0 SWAP1 POP JUMPDEST DUP3 MLOAD DUP2 LT ISZERO PUSH2 0x2938 JUMPI DUP3 DUP2 DUP2 MLOAD DUP2 LT PUSH2 0x290B JUMPI PUSH2 0x290A PUSH2 0x58BE JUMP JUMPDEST JUMPDEST PUSH1 0x20 MUL PUSH1 0x20 ADD ADD MLOAD PUSH1 0x20 ADD MLOAD MLOAD DUP3 PUSH2 0x2923 SWAP2 SWAP1 PUSH2 0x5998 JUMP JUMPDEST SWAP2 POP DUP1 DUP1 PUSH2 0x2930 SWAP1 PUSH2 0x591C JUMP JUMPDEST SWAP2 POP POP PUSH2 0x28EF JUMP JUMPDEST POP DUP1 SWAP3 POP POP POP SWAP2 SWAP1 POP JUMP JUMPDEST PUSH1 0x0 DUP1 PUSH1 0x0 DUP4 DUP2 MSTORE PUSH1 0x20 ADD SWAP1 DUP2 MSTORE PUSH1 0x20 ADD PUSH1 0x0 KECCAK256 PUSH1 0x11 ADD PUSH1 0x1 PUSH2 0x100 EXP DUP2 SLOAD DUP2 PUSH1 0xFF MUL NOT AND SWAP1 DUP4 ISZERO ISZERO MUL OR SWAP1 SSTORE POP POP JUMP JUMPDEST PUSH1 0x1 PUSH1 0x0 DUP1 DUP4 DUP2 MSTORE PUSH1 0x20 ADD SWAP1 DUP2 MSTORE PUSH1 0x20 ADD PUSH1 0x0 KECCAK256 PUSH1 0x11 ADD PUSH1 0x1 PUSH2 0x100 EXP DUP2 SLOAD DUP2 PUSH1 0xFF MUL NOT AND SWAP1 DUP4 ISZERO ISZERO MUL OR SWAP1 SSTORE POP POP JUMP JUMPDEST PUSH1 0x0 DUP1 PUSH1 0x0 DUP4 DUP2 MSTORE PUSH1 0x20 ADD SWAP1 DUP2 MSTORE PUSH1 0x20 ADD PUSH1 0x0 KECCAK256 PUSH1 0x11 ADD PUSH1 0x0 PUSH2 0x100 EXP DUP2 SLOAD DUP2 PUSH1 0xFF MUL NOT AND SWAP1 DUP4 ISZERO ISZERO MUL OR SWAP1 SSTORE POP POP JUMP JUMPDEST PUSH1 0x60 PUSH1 0x0 DUP1 PUSH2 0x29E4 DUP7 PUSH2 0x2B10 JUMP JUMPDEST SWAP1 POP PUSH1 0x60 PUSH1 0x0 DUP6 ISZERO PUSH2 0x2A1B JUMPI DUP3 PUSH2 0x1C0 ADD MLOAD DUP8 DUP2 MLOAD DUP2 LT PUSH2 0x2A08 JUMPI PUSH2 0x2A07 PUSH2 0x58BE JUMP JUMPDEST JUMPDEST PUSH1 0x20 MUL PUSH1 0x20 ADD ADD MLOAD PUSH1 0x40 ADD MLOAD SWAP2 POP PUSH2 0x2A42 JUMP JUMPDEST DUP3 PUSH2 0x1E0 ADD MLOAD DUP8 DUP2 MLOAD DUP2 LT PUSH2 0x2A33 JUMPI PUSH2 0x2A32 PUSH2 0x58BE JUMP JUMPDEST JUMPDEST PUSH1 0x20 MUL PUSH1 0x20 ADD ADD MLOAD PUSH1 0x40 ADD MLOAD SWAP2 POP JUMPDEST PUSH1 0x60 PUSH1 0x0 JUMPDEST DUP4 MLOAD DUP2 LT ISZERO PUSH2 0x2AFD JUMPI PUSH1 0x2 PUSH1 0x5 DUP2 GT ISZERO PUSH2 0x2A64 JUMPI PUSH2 0x2A63 PUSH2 0x483E JUMP JUMPDEST JUMPDEST DUP5 DUP3 DUP2 MLOAD DUP2 LT PUSH2 0x2A77 JUMPI PUSH2 0x2A76 PUSH2 0x58BE JUMP JUMPDEST JUMPDEST PUSH1 0x20 MUL PUSH1 0x20 ADD ADD MLOAD PUSH1 0x5 DUP2 GT ISZERO PUSH2 0x2A91 JUMPI PUSH2 0x2A90 PUSH2 0x483E JUMP JUMPDEST JUMPDEST LT ISZERO PUSH2 0x2AB9 JUMPI DUP1 DUP3 DUP4 MLOAD DUP2 MLOAD DUP2 LT PUSH2 0x2AAC JUMPI PUSH2 0x2AAB PUSH2 0x58BE JUMP JUMPDEST JUMPDEST PUSH1 0x20 MUL PUSH1 0x20 ADD ADD DUP2 DUP2 MSTORE POP POP JUMPDEST DUP5 PUSH2 0x1A0 ADD MLOAD DUP2 DUP2 MLOAD DUP2 LT PUSH2 0x2AD1 JUMPI PUSH2 0x2AD0 PUSH2 0x58BE JUMP JUMPDEST JUMPDEST PUSH1 0x20 MUL PUSH1 0x20 ADD ADD MLOAD PUSH1 0x20 ADD MLOAD DUP4 PUSH2 0x2AE8 SWAP2 SWAP1 PUSH2 0x5998 JUMP JUMPDEST SWAP3 POP DUP1 DUP1 PUSH2 0x2AF5 SWAP1 PUSH2 0x591C JUMP JUMPDEST SWAP2 POP POP PUSH2 0x2A47 JUMP JUMPDEST POP DUP1 DUP3 SWAP6 POP SWAP6 POP POP POP POP POP SWAP4 POP SWAP4 SWAP2 POP POP JUMP JUMPDEST PUSH2 0x2B18 PUSH2 0x3B5F JUMP JUMPDEST PUSH1 0x0 DUP1 DUP4 DUP2 MSTORE PUSH1 0x20 ADD SWAP1 DUP2 MSTORE PUSH1 0x20 ADD PUSH1 0x0 KECCAK256 PUSH1 0x40 MLOAD DUP1 PUSH2 0x2A0 ADD PUSH1 0x40 MSTORE SWAP1 DUP2 PUSH1 0x0 DUP3 ADD PUSH1 0x0 SWAP1 SLOAD SWAP1 PUSH2 0x100 EXP SWAP1 DIV PUSH20 0xFFFFFFFFFFFFFFFFFFFFFFFFFFFFFFFFFFFFFFFF AND PUSH20 0xFFFFFFFFFFFFFFFFFFFFFFFFFFFFFFFFFFFFFFFF AND PUSH20 0xFFFFFFFFFFFFFFFFFFFFFFFFFFFFFFFFFFFFFFFF AND DUP2 MSTORE PUSH1 0x20 ADD PUSH1 0x1 DUP3 ADD SLOAD DUP2 MSTORE PUSH1 0x20 ADD PUSH1 0x2 DUP3 ADD DUP1 SLOAD PUSH2 0x2BA6 SWAP1 PUSH2 0x560F JUMP JUMPDEST DUP1 PUSH1 0x1F ADD PUSH1 0x20 DUP1 SWAP2 DIV MUL PUSH1 0x20 ADD PUSH1 0x40 MLOAD SWAP1 DUP2 ADD PUSH1 0x40 MSTORE DUP1 SWAP3 SWAP2 SWAP1 DUP2 DUP2 MSTORE PUSH1 0x20 ADD DUP3 DUP1 SLOAD PUSH2 0x2BD2 SWAP1 PUSH2 0x560F JUMP JUMPDEST DUP1 ISZERO PUSH2 0x2C1F JUMPI DUP1 PUSH1 0x1F LT PUSH2 0x2BF4 JUMPI PUSH2 0x100 DUP1 DUP4 SLOAD DIV MUL DUP4 MSTORE SWAP2 PUSH1 0x20 ADD SWAP2 PUSH2 0x2C1F JUMP JUMPDEST DUP3 ADD SWAP2 SWAP1 PUSH1 0x0 MSTORE PUSH1 0x20 PUSH1 0x0 KECCAK256 SWAP1 JUMPDEST DUP2 SLOAD DUP2 MSTORE SWAP1 PUSH1 0x1 ADD SWAP1 PUSH1 0x20 ADD DUP1 DUP4 GT PUSH2 0x2C02 JUMPI DUP3 SWAP1 SUB PUSH1 0x1F AND DUP3 ADD SWAP2 JUMPDEST POP POP POP POP POP DUP2 MSTORE PUSH1 0x20 ADD PUSH1 0x3 DUP3 ADD DUP1 SLOAD PUSH2 0x2C38 SWAP1 PUSH2 0x560F JUMP JUMPDEST DUP1 PUSH1 0x1F ADD PUSH1 0x20 DUP1 SWAP2 DIV MUL PUSH1 0x20 ADD PUSH1 0x40 MLOAD SWAP1 DUP2 ADD PUSH1 0x40 MSTORE DUP1 SWAP3 SWAP2 SWAP1 DUP2 DUP2 MSTORE PUSH1 0x20 ADD DUP3 DUP1 SLOAD PUSH2 0x2C64 SWAP1 PUSH2 0x560F JUMP JUMPDEST DUP1 ISZERO PUSH2 0x2CB1 JUMPI DUP1 PUSH1 0x1F LT PUSH2 0x2C86 JUMPI PUSH2 0x100 DUP1 DUP4 SLOAD DIV MUL DUP4 MSTORE SWAP2 PUSH1 0x20 ADD SWAP2 PUSH2 0x2CB1 JUMP JUMPDEST DUP3 ADD SWAP2 SWAP1 PUSH1 0x0 MSTORE PUSH1 0x20 PUSH1 0x0 KECCAK256 SWAP1 JUMPDEST DUP2 SLOAD DUP2 MSTORE SWAP1 PUSH1 0x1 ADD SWAP1 PUSH1 0x20 ADD DUP1 DUP4 GT PUSH2 0x2C94 JUMPI DUP3 SWAP1 SUB PUSH1 0x1F AND DUP3 ADD SWAP2 JUMPDEST POP POP POP POP POP DUP2 MSTORE PUSH1 0x20 ADD PUSH1 0x4 DUP3 ADD SLOAD DUP2 MSTORE PUSH1 0x20 ADD PUSH1 0x5 DUP3 ADD DUP1 SLOAD PUSH2 0x2CD4 SWAP1 PUSH2 0x560F JUMP JUMPDEST DUP1 PUSH1 0x1F ADD PUSH1 0x20 DUP1 SWAP2 DIV MUL PUSH1 0x20 ADD PUSH1 0x40 MLOAD SWAP1 DUP2 ADD PUSH1 0x40 MSTORE DUP1 SWAP3 SWAP2 SWAP1 DUP2 DUP2 MSTORE PUSH1 0x20 ADD DUP3 DUP1 SLOAD PUSH2 0x2D00 SWAP1 PUSH2 0x560F JUMP JUMPDEST DUP1 ISZERO PUSH2 0x2D4D JUMPI DUP1 PUSH1 0x1F LT PUSH2 0x2D22 JUMPI PUSH2 0x100 DUP1 DUP4 SLOAD DIV MUL DUP4 MSTORE SWAP2 PUSH1 0x20 ADD SWAP2 PUSH2 0x2D4D JUMP JUMPDEST DUP3 ADD SWAP2 SWAP1 PUSH1 0x0 MSTORE PUSH1 0x20 PUSH1 0x0 KECCAK256 SWAP1 JUMPDEST DUP2 SLOAD DUP2 MSTORE SWAP1 PUSH1 0x1 ADD SWAP1 PUSH1 0x20 ADD DUP1 DUP4 GT PUSH2 0x2D30 JUMPI DUP3 SWAP1 SUB PUSH1 0x1F AND DUP3 ADD SWAP2 JUMPDEST POP POP POP POP POP DUP2 MSTORE PUSH1 0x20 ADD PUSH1 0x6 DUP3 ADD DUP1 SLOAD PUSH2 0x2D66 SWAP1 PUSH2 0x560F JUMP JUMPDEST DUP1 PUSH1 0x1F ADD PUSH1 0x20 DUP1 SWAP2 DIV MUL PUSH1 0x20 ADD PUSH1 0x40 MLOAD SWAP1 DUP2 ADD PUSH1 0x40 MSTORE DUP1 SWAP3 SWAP2 SWAP1 DUP2 DUP2 MSTORE PUSH1 0x20 ADD DUP3 DUP1 SLOAD PUSH2 0x2D92 SWAP1 PUSH2 0x560F JUMP JUMPDEST DUP1 ISZERO PUSH2 0x2DDF JUMPI DUP1 PUSH1 0x1F LT PUSH2 0x2DB4 JUMPI PUSH2 0x100 DUP1 DUP4 SLOAD DIV MUL DUP4 MSTORE SWAP2 PUSH1 0x20 ADD SWAP2 PUSH2 0x2DDF JUMP JUMPDEST DUP3 ADD SWAP2 SWAP1 PUSH1 0x0 MSTORE PUSH1 0x20 PUSH1 0x0 KECCAK256 SWAP1 JUMPDEST DUP2 SLOAD DUP2 MSTORE SWAP1 PUSH1 0x1 ADD SWAP1 PUSH1 0x20 ADD DUP1 DUP4 GT PUSH2 0x2DC2 JUMPI DUP3 SWAP1 SUB PUSH1 0x1F AND DUP3 ADD SWAP2 JUMPDEST POP POP POP POP POP DUP2 MSTORE PUSH1 0x20 ADD PUSH1 0x7 DUP3 ADD DUP1 SLOAD DUP1 PUSH1 0x20 MUL PUSH1 0x20 ADD PUSH1 0x40 MLOAD SWAP1 DUP2 ADD PUSH1 0x40 MSTORE DUP1 SWAP3 SWAP2 SWAP1 DUP2 DUP2 MSTORE PUSH1 0x20 ADD PUSH1 0x0 SWAP1 JUMPDEST DUP3 DUP3 LT ISZERO PUSH2 0x2EB9 JUMPI DUP4 DUP3 SWAP1 PUSH1 0x0 MSTORE PUSH1 0x20 PUSH1 0x0 KECCAK256 ADD DUP1 SLOAD PUSH2 0x2E2C SWAP1 PUSH2 0x560F JUMP JUMPDEST DUP1 PUSH1 0x1F ADD PUSH1 0x20 DUP1 SWAP2 DIV MUL PUSH1 0x20 ADD PUSH1 0x40 MLOAD SWAP1 DUP2 ADD PUSH1 0x40 MSTORE DUP1 SWAP3 SWAP2 SWAP1 DUP2 DUP2 MSTORE PUSH1 0x20 ADD DUP3 DUP1 SLOAD PUSH2 0x2E58 SWAP1 PUSH2 0x560F JUMP JUMPDEST DUP1 ISZERO PUSH2 0x2EA5 JUMPI DUP1 PUSH1 0x1F LT PUSH2 0x2E7A JUMPI PUSH2 0x100 DUP1 DUP4 SLOAD DIV MUL DUP4 MSTORE SWAP2 PUSH1 0x20 ADD SWAP2 PUSH2 0x2EA5 JUMP JUMPDEST DUP3 ADD SWAP2 SWAP1 PUSH1 0x0 MSTORE PUSH1 0x20 PUSH1 0x0 KECCAK256 SWAP1 JUMPDEST DUP2 SLOAD DUP2 MSTORE SWAP1 PUSH1 0x1 ADD SWAP1 PUSH1 0x20 ADD DUP1 DUP4 GT PUSH2 0x2E88 JUMPI DUP3 SWAP1 SUB PUSH1 0x1F AND DUP3 ADD SWAP2 JUMPDEST POP POP POP POP POP DUP2 MSTORE PUSH1 0x20 ADD SWAP1 PUSH1 0x1 ADD SWAP1 PUSH2 0x2E0D JUMP JUMPDEST POP POP POP POP DUP2 MSTORE PUSH1 0x20 ADD PUSH1 0x8 DUP3 ADD SLOAD DUP2 MSTORE PUSH1 0x20 ADD PUSH1 0x9 DUP3 ADD SLOAD DUP2 MSTORE PUSH1 0x20 ADD PUSH1 0xA DUP3 ADD PUSH1 0x0 SWAP1 SLOAD SWAP1 PUSH2 0x100 EXP SWAP1 DIV PUSH1 0xFF AND ISZERO ISZERO ISZERO ISZERO DUP2 MSTORE PUSH1 0x20 ADD PUSH1 0xA DUP3 ADD PUSH1 0x1 SWAP1 SLOAD SWAP1 PUSH2 0x100 EXP SWAP1 DIV PUSH1 0xFF AND ISZERO ISZERO ISZERO ISZERO DUP2 MSTORE PUSH1 0x20 ADD PUSH1 0xB DUP3 ADD SLOAD DUP2 MSTORE PUSH1 0x20 ADD PUSH1 0xC DUP3 ADD DUP1 SLOAD DUP1 PUSH1 0x20 MUL PUSH1 0x20 ADD PUSH1 0x40 MLOAD SWAP1 DUP2 ADD PUSH1 0x40 MSTORE DUP1 SWAP3 SWAP2 SWAP1 DUP2 DUP2 MSTORE PUSH1 0x20 ADD PUSH1 0x0 SWAP1 JUMPDEST DUP3 DUP3 LT ISZERO PUSH2 0x31B7 JUMPI DUP4 DUP3 SWAP1 PUSH1 0x0 MSTORE PUSH1 0x20 PUSH1 0x0 KECCAK256 SWAP1 PUSH1 0xB MUL ADD PUSH1 0x40 MLOAD DUP1 PUSH1 0xA0 ADD PUSH1 0x40 MSTORE SWAP1 DUP2 PUSH1 0x0 DUP3 ADD PUSH1 0x40 MLOAD DUP1 PUSH1 0xE0 ADD PUSH1 0x40 MSTORE SWAP1 DUP2 PUSH1 0x0 DUP3 ADD DUP1 SLOAD PUSH2 0x2F7D SWAP1 PUSH2 0x560F JUMP JUMPDEST DUP1 PUSH1 0x1F ADD PUSH1 0x20 DUP1 SWAP2 DIV MUL PUSH1 0x20 ADD PUSH1 0x40 MLOAD SWAP1 DUP2 ADD PUSH1 0x40 MSTORE DUP1 SWAP3 SWAP2 SWAP1 DUP2 DUP2 MSTORE PUSH1 0x20 ADD DUP3 DUP1 SLOAD PUSH2 0x2FA9 SWAP1 PUSH2 0x560F JUMP JUMPDEST DUP1 ISZERO PUSH2 0x2FF6 JUMPI DUP1 PUSH1 0x1F LT PUSH2 0x2FCB JUMPI PUSH2 0x100 DUP1 DUP4 SLOAD DIV MUL DUP4 MSTORE SWAP2 PUSH1 0x20 ADD SWAP2 PUSH2 0x2FF6 JUMP JUMPDEST DUP3 ADD SWAP2 SWAP1 PUSH1 0x0 MSTORE PUSH1 0x20 PUSH1 0x0 KECCAK256 SWAP1 JUMPDEST DUP2 SLOAD DUP2 MSTORE SWAP1 PUSH1 0x1 ADD SWAP1 PUSH1 0x20 ADD DUP1 DUP4 GT PUSH2 0x2FD9 JUMPI DUP3 SWAP1 SUB PUSH1 0x1F AND DUP3 ADD SWAP2 JUMPDEST POP POP POP POP POP DUP2 MSTORE PUSH1 0x20 ADD PUSH1 0x1 DUP3 ADD SLOAD DUP2 MSTORE PUSH1 0x20 ADD PUSH1 0x2 DUP3 ADD SLOAD DUP2 MSTORE PUSH1 0x20 ADD PUSH1 0x3 DUP3 ADD SLOAD DUP2 MSTORE PUSH1 0x20 ADD PUSH1 0x4 DUP3 ADD SLOAD DUP2 MSTORE PUSH1 0x20 ADD PUSH1 0x5 DUP3 ADD SLOAD DUP2 MSTORE PUSH1 0x20 ADD PUSH1 0x6 DUP3 ADD DUP1 SLOAD PUSH2 0x3041 SWAP1 PUSH2 0x560F JUMP JUMPDEST DUP1 PUSH1 0x1F ADD PUSH1 0x20 DUP1 SWAP2 DIV MUL PUSH1 0x20 ADD PUSH1 0x40 MLOAD SWAP1 DUP2 ADD PUSH1 0x40 MSTORE DUP1 SWAP3 SWAP2 SWAP1 DUP2 DUP2 MSTORE PUSH1 0x20 ADD DUP3 DUP1 SLOAD PUSH2 0x306D SWAP1 PUSH2 0x560F JUMP JUMPDEST DUP1 ISZERO PUSH2 0x30BA JUMPI DUP1 PUSH1 0x1F LT PUSH2 0x308F JUMPI PUSH2 0x100 DUP1 DUP4 SLOAD DIV MUL DUP4 MSTORE SWAP2 PUSH1 0x20 ADD SWAP2 PUSH2 0x30BA JUMP JUMPDEST DUP3 ADD SWAP2 SWAP1 PUSH1 0x0 MSTORE PUSH1 0x20 PUSH1 0x0 KECCAK256 SWAP1 JUMPDEST DUP2 SLOAD DUP2 MSTORE SWAP1 PUSH1 0x1 ADD SWAP1 PUSH1 0x20 ADD DUP1 DUP4 GT PUSH2 0x309D JUMPI DUP3 SWAP1 SUB PUSH1 0x1F AND DUP3 ADD SWAP2 JUMPDEST POP POP POP POP POP DUP2 MSTORE POP POP DUP2 MSTORE PUSH1 0x20 ADD PUSH1 0x7 DUP3 ADD SLOAD DUP2 MSTORE PUSH1 0x20 ADD PUSH1 0x8 DUP3 ADD DUP1 SLOAD PUSH2 0x30E1 SWAP1 PUSH2 0x560F JUMP JUMPDEST DUP1 PUSH1 0x1F ADD PUSH1 0x20 DUP1 SWAP2 DIV MUL PUSH1 0x20 ADD PUSH1 0x40 MLOAD SWAP1 DUP2 ADD PUSH1 0x40 MSTORE DUP1 SWAP3 SWAP2 SWAP1 DUP2 DUP2 MSTORE PUSH1 0x20 ADD DUP3 DUP1 SLOAD PUSH2 0x310D SWAP1 PUSH2 0x560F JUMP JUMPDEST DUP1 ISZERO PUSH2 0x315A JUMPI DUP1 PUSH1 0x1F LT PUSH2 0x312F JUMPI PUSH2 0x100 DUP1 DUP4 SLOAD DIV MUL DUP4 MSTORE SWAP2 PUSH1 0x20 ADD SWAP2 PUSH2 0x315A JUMP JUMPDEST DUP3 ADD SWAP2 SWAP1 PUSH1 0x0 MSTORE PUSH1 0x20 PUSH1 0x0 KECCAK256 SWAP1 JUMPDEST DUP2 SLOAD DUP2 MSTORE SWAP1 PUSH1 0x1 ADD SWAP1 PUSH1 0x20 ADD DUP1 DUP4 GT PUSH2 0x313D JUMPI DUP3 SWAP1 SUB PUSH1 0x1F AND DUP3 ADD SWAP2 JUMPDEST POP POP POP POP POP DUP2 MSTORE PUSH1 0x20 ADD PUSH1 0x9 DUP3 ADD PUSH1 0x0 SWAP1 SLOAD SWAP1 PUSH2 0x100 EXP SWAP1 DIV PUSH1 0xFF AND PUSH1 0x7 DUP2 GT ISZERO PUSH2 0x3188 JUMPI PUSH2 0x3187 PUSH2 0x483E JUMP JUMPDEST JUMPDEST PUSH1 0x7 DUP2 GT ISZERO PUSH2 0x319A JUMPI PUSH2 0x3199 PUSH2 0x483E JUMP JUMPDEST JUMPDEST DUP2 MSTORE PUSH1 0x20 ADD PUSH1 0xA DUP3 ADD SLOAD DUP2 MSTORE POP POP DUP2 MSTORE PUSH1 0x20 ADD SWAP1 PUSH1 0x1 ADD SWAP1 PUSH2 0x2F3A JUMP JUMPDEST POP POP POP POP DUP2 MSTORE PUSH1 0x20 ADD PUSH1 0xD DUP3 ADD DUP1 SLOAD DUP1 PUSH1 0x20 MUL PUSH1 0x20 ADD PUSH1 0x40 MLOAD SWAP1 DUP2 ADD PUSH1 0x40 MSTORE DUP1 SWAP3 SWAP2 SWAP1 DUP2 DUP2 MSTORE PUSH1 0x20 ADD PUSH1 0x0 SWAP1 JUMPDEST DUP3 DUP3 LT ISZERO PUSH2 0x3434 JUMPI DUP4 DUP3 SWAP1 PUSH1 0x0 MSTORE PUSH1 0x20 PUSH1 0x0 KECCAK256 SWAP1 PUSH1 0x5 MUL ADD PUSH1 0x40 MLOAD DUP1 PUSH1 0xA0 ADD PUSH1 0x40 MSTORE SWAP1 DUP2 PUSH1 0x0 DUP3 ADD PUSH1 0x0 SWAP1 SLOAD SWAP1 PUSH2 0x100 EXP SWAP1 DIV PUSH20 0xFFFFFFFFFFFFFFFFFFFFFFFFFFFFFFFFFFFFFFFF AND PUSH20 0xFFFFFFFFFFFFFFFFFFFFFFFFFFFFFFFFFFFFFFFF AND PUSH20 0xFFFFFFFFFFFFFFFFFFFFFFFFFFFFFFFFFFFFFFFF AND DUP2 MSTORE PUSH1 0x20 ADD PUSH1 0x1 DUP3 ADD DUP1 SLOAD DUP1 PUSH1 0x20 MUL PUSH1 0x20 ADD PUSH1 0x40 MLOAD SWAP1 DUP2 ADD PUSH1 0x40 MSTORE DUP1 SWAP3 SWAP2 SWAP1 DUP2 DUP2 MSTORE PUSH1 0x20 ADD DUP3 DUP1 SLOAD DUP1 ISZERO PUSH2 0x32AC JUMPI PUSH1 0x20 MUL DUP3 ADD SWAP2 SWAP1 PUSH1 0x0 MSTORE PUSH1 0x20 PUSH1 0x0 KECCAK256 SWAP1 JUMPDEST DUP2 SLOAD DUP2 MSTORE PUSH1 0x20 ADD SWAP1 PUSH1 0x1 ADD SWAP1 DUP1 DUP4 GT PUSH2 0x3298 JUMPI JUMPDEST POP POP POP POP POP DUP2 MSTORE PUSH1 0x20 ADD PUSH1 0x2 DUP3 ADD DUP1 SLOAD DUP1 PUSH1 0x20 MUL PUSH1 0x20 ADD PUSH1 0x40 MLOAD SWAP1 DUP2 ADD PUSH1 0x40 MSTORE DUP1 SWAP3 SWAP2 SWAP1 DUP2 DUP2 MSTORE PUSH1 0x20 ADD DUP3 DUP1 SLOAD DUP1 ISZERO PUSH2 0x3339 JUMPI PUSH1 0x20 MUL DUP3 ADD SWAP2 SWAP1 PUSH1 0x0 MSTORE PUSH1 0x20 PUSH1 0x0 KECCAK256 SWAP1 PUSH1 0x0 SWAP1 JUMPDEST DUP3 DUP3 SWAP1 SLOAD SWAP1 PUSH2 0x100 EXP SWAP1 DIV PUSH1 0xFF AND PUSH1 0x5 DUP2 GT ISZERO PUSH2 0x3313 JUMPI PUSH2 0x3312 PUSH2 0x483E JUMP JUMPDEST JUMPDEST DUP2 MSTORE PUSH1 0x20 ADD SWAP1 PUSH1 0x1 ADD SWAP1 PUSH1 0x20 DUP3 PUSH1 0x0 ADD DIV SWAP3 DUP4 ADD SWAP3 PUSH1 0x1 SUB DUP3 MUL SWAP2 POP DUP1 DUP5 GT PUSH2 0x32F3 JUMPI SWAP1 POP JUMPDEST POP POP POP POP POP DUP2 MSTORE PUSH1 0x20 ADD PUSH1 0x3 DUP3 ADD DUP1 SLOAD DUP1 PUSH1 0x20 MUL PUSH1 0x20 ADD PUSH1 0x40 MLOAD SWAP1 DUP2 ADD PUSH1 0x40 MSTORE DUP1 SWAP3 SWAP2 SWAP1 DUP2 DUP2 MSTORE PUSH1 0x20 ADD PUSH1 0x0 SWAP1 JUMPDEST DUP3 DUP3 LT ISZERO PUSH2 0x3413 JUMPI DUP4 DUP3 SWAP1 PUSH1 0x0 MSTORE PUSH1 0x20 PUSH1 0x0 KECCAK256 ADD DUP1 SLOAD PUSH2 0x3386 SWAP1 PUSH2 0x560F JUMP JUMPDEST DUP1 PUSH1 0x1F ADD PUSH1 0x20 DUP1 SWAP2 DIV MUL PUSH1 0x20 ADD PUSH1 0x40 MLOAD SWAP1 DUP2 ADD PUSH1 0x40 MSTORE DUP1 SWAP3 SWAP2 SWAP1 DUP2 DUP2 MSTORE PUSH1 0x20 ADD DUP3 DUP1 SLOAD PUSH2 0x33B2 SWAP1 PUSH2 0x560F JUMP JUMPDEST DUP1 ISZERO PUSH2 0x33FF JUMPI DUP1 PUSH1 0x1F LT PUSH2 0x33D4 JUMPI PUSH2 0x100 DUP1 DUP4 SLOAD DIV MUL DUP4 MSTORE SWAP2 PUSH1 0x20 ADD SWAP2 PUSH2 0x33FF JUMP JUMPDEST DUP3 ADD SWAP2 SWAP1 PUSH1 0x0 MSTORE PUSH1 0x20 PUSH1 0x0 KECCAK256 SWAP1 JUMPDEST DUP2 SLOAD DUP2 MSTORE SWAP1 PUSH1 0x1 ADD SWAP1 PUSH1 0x20 ADD DUP1 DUP4 GT PUSH2 0x33E2 JUMPI DUP3 SWAP1 SUB PUSH1 0x1F AND DUP3 ADD SWAP2 JUMPDEST POP POP POP POP POP DUP2 MSTORE PUSH1 0x20 ADD SWAP1 PUSH1 0x1 ADD SWAP1 PUSH2 0x3367 JUMP JUMPDEST POP POP POP POP DUP2 MSTORE PUSH1 0x20 ADD PUSH1 0x4 DUP3 ADD SLOAD DUP2 MSTORE POP POP DUP2 MSTORE PUSH1 0x20 ADD SWAP1 PUSH1 0x1 ADD SWAP1 PUSH2 0x31E4 JUMP JUMPDEST POP POP POP POP DUP2 MSTORE PUSH1 0x20 ADD PUSH1 0xE DUP3 ADD DUP1 SLOAD DUP1 PUSH1 0x20 MUL PUSH1 0x20 ADD PUSH1 0x40 MLOAD SWAP1 DUP2 ADD PUSH1 0x40 MSTORE DUP1 SWAP3 SWAP2 SWAP1 DUP2 DUP2 MSTORE PUSH1 0x20 ADD PUSH1 0x0 SWAP1 JUMPDEST DUP3 DUP3 LT ISZERO PUSH2 0x36B1 JUMPI DUP4 DUP3 SWAP1 PUSH1 0x0 MSTORE PUSH1 0x20 PUSH1 0x0 KECCAK256 SWAP1 PUSH1 0x5 MUL ADD PUSH1 0x40 MLOAD DUP1 PUSH1 0xA0 ADD PUSH1 0x40 MSTORE SWAP1 DUP2 PUSH1 0x0 DUP3 ADD PUSH1 0x0 SWAP1 SLOAD SWAP1 PUSH2 0x100 EXP SWAP1 DIV PUSH20 0xFFFFFFFFFFFFFFFFFFFFFFFFFFFFFFFFFFFFFFFF AND PUSH20 0xFFFFFFFFFFFFFFFFFFFFFFFFFFFFFFFFFFFFFFFF AND PUSH20 0xFFFFFFFFFFFFFFFFFFFFFFFFFFFFFFFFFFFFFFFF AND DUP2 MSTORE PUSH1 0x20 ADD PUSH1 0x1 DUP3 ADD DUP1 SLOAD DUP1 PUSH1 0x20 MUL PUSH1 0x20 ADD PUSH1 0x40 MLOAD SWAP1 DUP2 ADD PUSH1 0x40 MSTORE DUP1 SWAP3 SWAP2 SWAP1 DUP2 DUP2 MSTORE PUSH1 0x20 ADD DUP3 DUP1 SLOAD DUP1 ISZERO PUSH2 0x3529 JUMPI PUSH1 0x20 MUL DUP3 ADD SWAP2 SWAP1 PUSH1 0x0 MSTORE PUSH1 0x20 PUSH1 0x0 KECCAK256 SWAP1 JUMPDEST DUP2 SLOAD DUP2 MSTORE PUSH1 0x20 ADD SWAP1 PUSH1 0x1 ADD SWAP1 DUP1 DUP4 GT PUSH2 0x3515 JUMPI JUMPDEST POP POP POP POP POP DUP2 MSTORE PUSH1 0x20 ADD PUSH1 0x2 DUP3 ADD DUP1 SLOAD DUP1 PUSH1 0x20 MUL PUSH1 0x20 ADD PUSH1 0x40 MLOAD SWAP1 DUP2 ADD PUSH1 0x40 MSTORE DUP1 SWAP3 SWAP2 SWAP1 DUP2 DUP2 MSTORE PUSH1 0x20 ADD DUP3 DUP1 SLOAD DUP1 ISZERO PUSH2 0x35B6 JUMPI PUSH1 0x20 MUL DUP3 ADD SWAP2 SWAP1 PUSH1 0x0 MSTORE PUSH1 0x20 PUSH1 0x0 KECCAK256 SWAP1 PUSH1 0x0 SWAP1 JUMPDEST DUP3 DUP3 SWAP1 SLOAD SWAP1 PUSH2 0x100 EXP SWAP1 DIV PUSH1 0xFF AND PUSH1 0x5 DUP2 GT ISZERO PUSH2 0x3590 JUMPI PUSH2 0x358F PUSH2 0x483E JUMP JUMPDEST JUMPDEST DUP2 MSTORE PUSH1 0x20 ADD SWAP1 PUSH1 0x1 ADD SWAP1 PUSH1 0x20 DUP3 PUSH1 0x0 ADD DIV SWAP3 DUP4 ADD SWAP3 PUSH1 0x1 SUB DUP3 MUL SWAP2 POP DUP1 DUP5 GT PUSH2 0x3570 JUMPI SWAP1 POP JUMPDEST POP POP POP POP POP DUP2 MSTORE PUSH1 0x20 ADD PUSH1 0x3 DUP3 ADD DUP1 SLOAD DUP1 PUSH1 0x20 MUL PUSH1 0x20 ADD PUSH1 0x40 MLOAD SWAP1 DUP2 ADD PUSH1 0x40 MSTORE DUP1 SWAP3 SWAP2 SWAP1 DUP2 DUP2 MSTORE PUSH1 0x20 ADD PUSH1 0x0 SWAP1 JUMPDEST DUP3 DUP3 LT ISZERO PUSH2 0x3690 JUMPI DUP4 DUP3 SWAP1 PUSH1 0x0 MSTORE PUSH1 0x20 PUSH1 0x0 KECCAK256 ADD DUP1 SLOAD PUSH2 0x3603 SWAP1 PUSH2 0x560F JUMP JUMPDEST DUP1 PUSH1 0x1F ADD PUSH1 0x20 DUP1 SWAP2 DIV MUL PUSH1 0x20 ADD PUSH1 0x40 MLOAD SWAP1 DUP2 ADD PUSH1 0x40 MSTORE DUP1 SWAP3 SWAP2 SWAP1 DUP2 DUP2 MSTORE PUSH1 0x20 ADD DUP3 DUP1 SLOAD PUSH2 0x362F SWAP1 PUSH2 0x560F JUMP JUMPDEST DUP1 ISZERO PUSH2 0x367C JUMPI DUP1 PUSH1 0x1F LT PUSH2 0x3651 JUMPI PUSH2 0x100 DUP1 DUP4 SLOAD DIV MUL DUP4 MSTORE SWAP2 PUSH1 0x20 ADD SWAP2 PUSH2 0x367C JUMP JUMPDEST DUP3 ADD SWAP2 SWAP1 PUSH1 0x0 MSTORE PUSH1 0x20 PUSH1 0x0 KECCAK256 SWAP1 JUMPDEST DUP2 SLOAD DUP2 MSTORE SWAP1 PUSH1 0x1 ADD SWAP1 PUSH1 0x20 ADD DUP1 DUP4 GT PUSH2 0x365F JUMPI DUP3 SWAP1 SUB PUSH1 0x1F AND DUP3 ADD SWAP2 JUMPDEST POP POP POP POP POP DUP2 MSTORE PUSH1 0x20 ADD SWAP1 PUSH1 0x1 ADD SWAP1 PUSH2 0x35E4 JUMP JUMPDEST POP POP POP POP DUP2 MSTORE PUSH1 0x20 ADD PUSH1 0x4 DUP3 ADD SLOAD DUP2 MSTORE POP POP DUP2 MSTORE PUSH1 0x20 ADD SWAP1 PUSH1 0x1 ADD SWAP1 PUSH2 0x3461 JUMP JUMPDEST POP POP POP POP DUP2 MSTORE PUSH1 0x20 ADD PUSH1 0xF DUP3 ADD SLOAD DUP2 MSTORE PUSH1 0x20 ADD PUSH1 0x10 DUP3 ADD SLOAD DUP2 MSTORE PUSH1 0x20 ADD PUSH1 0x11 DUP3 ADD PUSH1 0x0 SWAP1 SLOAD SWAP1 PUSH2 0x100 EXP SWAP1 DIV PUSH1 0xFF AND ISZERO ISZERO ISZERO ISZERO DUP2 MSTORE PUSH1 0x20 ADD PUSH1 0x11 DUP3 ADD PUSH1 0x1 SWAP1 SLOAD SWAP1 PUSH2 0x100 EXP SWAP1 DIV PUSH1 0xFF AND ISZERO ISZERO ISZERO ISZERO DUP2 MSTORE PUSH1 0x20 ADD PUSH1 0x11 DUP3 ADD PUSH1 0x2 SWAP1 SLOAD SWAP1 PUSH2 0x100 EXP SWAP1 DIV PUSH1 0xFF AND PUSH1 0x5 DUP2 GT ISZERO PUSH2 0x3728 JUMPI PUSH2 0x3727 PUSH2 0x483E JUMP JUMPDEST JUMPDEST PUSH1 0x5 DUP2 GT ISZERO PUSH2 0x373A JUMPI PUSH2 0x3739 PUSH2 0x483E JUMP JUMPDEST JUMPDEST DUP2 MSTORE POP POP SWAP1 POP SWAP2 SWAP1 POP JUMP JUMPDEST PUSH1 0x0 DUP1 PUSH1 0x0 DUP1 DUP5 DUP2 MSTORE PUSH1 0x20 ADD SWAP1 DUP2 MSTORE PUSH1 0x20 ADD PUSH1 0x0 KECCAK256 PUSH1 0xE ADD DUP1 SLOAD DUP1 PUSH1 0x20 MUL PUSH1 0x20 ADD PUSH1 0x40 MLOAD SWAP1 DUP2 ADD PUSH1 0x40 MSTORE DUP1 SWAP3 SWAP2 SWAP1 DUP2 DUP2 MSTORE PUSH1 0x20 ADD PUSH1 0x0 SWAP1 JUMPDEST DUP3 DUP3 LT ISZERO PUSH2 0x39CD JUMPI DUP4 DUP3 SWAP1 PUSH1 0x0 MSTORE PUSH1 0x20 PUSH1 0x0 KECCAK256 SWAP1 PUSH1 0x5 MUL ADD PUSH1 0x40 MLOAD DUP1 PUSH1 0xA0 ADD PUSH1 0x40 MSTORE SWAP1 DUP2 PUSH1 0x0 DUP3 ADD PUSH1 0x0 SWAP1 SLOAD SWAP1 PUSH2 0x100 EXP SWAP1 DIV PUSH20 0xFFFFFFFFFFFFFFFFFFFFFFFFFFFFFFFFFFFFFFFF AND PUSH20 0xFFFFFFFFFFFFFFFFFFFFFFFFFFFFFFFFFFFFFFFF AND PUSH20 0xFFFFFFFFFFFFFFFFFFFFFFFFFFFFFFFFFFFFFFFF AND DUP2 MSTORE PUSH1 0x20 ADD PUSH1 0x1 DUP3 ADD DUP1 SLOAD DUP1 PUSH1 0x20 MUL PUSH1 0x20 ADD PUSH1 0x40 MLOAD SWAP1 DUP2 ADD PUSH1 0x40 MSTORE DUP1 SWAP3 SWAP2 SWAP1 DUP2 DUP2 MSTORE PUSH1 0x20 ADD DUP3 DUP1 SLOAD DUP1 ISZERO PUSH2 0x3845 JUMPI PUSH1 0x20 MUL DUP3 ADD SWAP2 SWAP1 PUSH1 0x0 MSTORE PUSH1 0x20 PUSH1 0x0 KECCAK256 SWAP1 JUMPDEST DUP2 SLOAD DUP2 MSTORE PUSH1 0x20 ADD SWAP1 PUSH1 0x1 ADD SWAP1 DUP1 DUP4 GT PUSH2 0x3831 JUMPI JUMPDEST POP POP POP POP POP DUP2 MSTORE PUSH1 0x20 ADD PUSH1 0x2 DUP3 ADD DUP1 SLOAD DUP1 PUSH1 0x20 MUL PUSH1 0x20 ADD PUSH1 0x40 MLOAD SWAP1 DUP2 ADD PUSH1 0x40 MSTORE DUP1 SWAP3 SWAP2 SWAP1 DUP2 DUP2 MSTORE PUSH1 0x20 ADD DUP3 DUP1 SLOAD DUP1 ISZERO PUSH2 0x38D2 JUMPI PUSH1 0x20 MUL DUP3 ADD SWAP2 SWAP1 PUSH1 0x0 MSTORE PUSH1 0x20 PUSH1 0x0 KECCAK256 SWAP1 PUSH1 0x0 SWAP1 JUMPDEST DUP3 DUP3 SWAP1 SLOAD SWAP1 PUSH2 0x100 EXP SWAP1 DIV PUSH1 0xFF AND PUSH1 0x5 DUP2 GT ISZERO PUSH2 0x38AC JUMPI PUSH2 0x38AB PUSH2 0x483E JUMP JUMPDEST JUMPDEST DUP2 MSTORE PUSH1 0x20 ADD SWAP1 PUSH1 0x1 ADD SWAP1 PUSH1 0x20 DUP3 PUSH1 0x0 ADD DIV SWAP3 DUP4 ADD SWAP3 PUSH1 0x1 SUB DUP3 MUL SWAP2 POP DUP1 DUP5 GT PUSH2 0x388C JUMPI SWAP1 POP JUMPDEST POP POP POP POP POP DUP2 MSTORE PUSH1 0x20 ADD PUSH1 0x3 DUP3 ADD DUP1 SLOAD DUP1 PUSH1 0x20 MUL PUSH1 0x20 ADD PUSH1 0x40 MLOAD SWAP1 DUP2 ADD PUSH1 0x40 MSTORE DUP1 SWAP3 SWAP2 SWAP1 DUP2 DUP2 MSTORE PUSH1 0x20 ADD PUSH1 0x0 SWAP1 JUMPDEST DUP3 DUP3 LT ISZERO PUSH2 0x39AC JUMPI DUP4 DUP3 SWAP1 PUSH1 0x0 MSTORE PUSH1 0x20 PUSH1 0x0 KECCAK256 ADD DUP1 SLOAD PUSH2 0x391F SWAP1 PUSH2 0x560F JUMP JUMPDEST DUP1 PUSH1 0x1F ADD PUSH1 0x20 DUP1 SWAP2 DIV MUL PUSH1 0x20 ADD PUSH1 0x40 MLOAD SWAP1 DUP2 ADD PUSH1 0x40 MSTORE DUP1 SWAP3 SWAP2 SWAP1 DUP2 DUP2 MSTORE PUSH1 0x20 ADD DUP3 DUP1 SLOAD PUSH2 0x394B SWAP1 PUSH2 0x560F JUMP JUMPDEST DUP1 ISZERO PUSH2 0x3998 JUMPI DUP1 PUSH1 0x1F LT PUSH2 0x396D JUMPI PUSH2 0x100 DUP1 DUP4 SLOAD DIV MUL DUP4 MSTORE SWAP2 PUSH1 0x20 ADD SWAP2 PUSH2 0x3998 JUMP JUMPDEST DUP3 ADD SWAP2 SWAP1 PUSH1 0x0 MSTORE PUSH1 0x20 PUSH1 0x0 KECCAK256 SWAP1 JUMPDEST DUP2 SLOAD DUP2 MSTORE SWAP1 PUSH1 0x1 ADD SWAP1 PUSH1 0x20 ADD DUP1 DUP4 GT PUSH2 0x397B JUMPI DUP3 SWAP1 SUB PUSH1 0x1F AND DUP3 ADD SWAP2 JUMPDEST POP POP POP POP POP DUP2 MSTORE PUSH1 0x20 ADD SWAP1 PUSH1 0x1 ADD SWAP1 PUSH2 0x3900 JUMP JUMPDEST POP POP POP POP DUP2 MSTORE PUSH1 0x20 ADD PUSH1 0x4 DUP3 ADD SLOAD DUP2 MSTORE POP POP DUP2 MSTORE PUSH1 0x20 ADD SWAP1 PUSH1 0x1 ADD SWAP1 PUSH2 0x377D JUMP JUMPDEST POP POP POP POP SWAP1 POP PUSH1 0x0 DUP1 PUSH1 0x0 SWAP1 POP JUMPDEST DUP3 MLOAD DUP2 LT ISZERO PUSH2 0x3A24 JUMPI DUP3 DUP2 DUP2 MLOAD DUP2 LT PUSH2 0x39F7 JUMPI PUSH2 0x39F6 PUSH2 0x58BE JUMP JUMPDEST JUMPDEST PUSH1 0x20 MUL PUSH1 0x20 ADD ADD MLOAD PUSH1 0x20 ADD MLOAD MLOAD DUP3 PUSH2 0x3A0F SWAP2 SWAP1 PUSH2 0x5998 JUMP JUMPDEST SWAP2 POP DUP1 DUP1 PUSH2 0x3A1C SWAP1 PUSH2 0x591C JUMP JUMPDEST SWAP2 POP POP PUSH2 0x39DB JUMP JUMPDEST POP DUP1 SWAP3 POP POP POP SWAP2 SWAP1 POP JUMP JUMPDEST DUP1 PUSH1 0x0 DUP1 DUP5 DUP2 MSTORE PUSH1 0x20 ADD SWAP1 DUP2 MSTORE PUSH1 0x20 ADD PUSH1 0x0 KECCAK256 PUSH1 0x11 ADD PUSH1 0x2 PUSH2 0x100 EXP DUP2 SLOAD DUP2 PUSH1 0xFF MUL NOT AND SWAP1 DUP4 PUSH1 0x5 DUP2 GT ISZERO PUSH2 0x3A67 JUMPI PUSH2 0x3A66 PUSH2 0x483E JUMP JUMPDEST JUMPDEST MUL OR SWAP1 SSTORE POP POP POP JUMP JUMPDEST PUSH1 0x1 PUSH1 0x0 DUP2 SLOAD DUP1 SWAP3 SWAP2 SWAP1 PUSH2 0x3A83 SWAP1 PUSH2 0x591C JUMP JUMPDEST SWAP2 SWAP1 POP SSTORE POP JUMP JUMPDEST PUSH1 0x0 DUP1 PUSH2 0x3A98 DUP4 PUSH1 0x5A PUSH2 0x3AD0 JUMP JUMPDEST SWAP1 POP PUSH2 0x3AA5 DUP2 PUSH1 0x3C PUSH2 0x3AD0 JUMP JUMPDEST SWAP2 POP POP SWAP2 SWAP1 POP JUMP JUMPDEST PUSH1 0x0 DUP1 PUSH2 0x3ABB DUP4 PUSH1 0x5A PUSH2 0x3AD0 JUMP JUMPDEST SWAP1 POP PUSH2 0x3AC8 DUP2 PUSH1 0x28 PUSH2 0x3AD0 JUMP JUMPDEST SWAP2 POP POP SWAP2 SWAP1 POP JUMP JUMPDEST PUSH1 0x0 PUSH1 0x64 PUSH2 0x3ADE DUP5 DUP5 PUSH2 0x3AF0 JUMP JUMPDEST PUSH2 0x3AE8 SWAP2 SWAP1 PUSH2 0x59FB JUMP JUMPDEST SWAP1 POP SWAP3 SWAP2 POP POP JUMP JUMPDEST PUSH1 0x0 DUP2 DUP4 PUSH2 0x3AFE SWAP2 SWAP1 PUSH2 0x5A2C JUMP JUMPDEST SWAP1 POP SWAP3 SWAP2 POP POP JUMP JUMPDEST DUP3 DUP1 SLOAD DUP3 DUP3 SSTORE SWAP1 PUSH1 0x0 MSTORE PUSH1 0x20 PUSH1 0x0 KECCAK256 SWAP1 DUP2 ADD SWAP3 DUP3 ISZERO PUSH2 0x3B4E JUMPI SWAP2 PUSH1 0x20 MUL DUP3 ADD JUMPDEST DUP3 DUP2 GT ISZERO PUSH2 0x3B4D JUMPI DUP3 MLOAD DUP3 SWAP1 DUP2 PUSH2 0x3B3D SWAP2 SWAP1 PUSH2 0x57EC JUMP JUMPDEST POP SWAP2 PUSH1 0x20 ADD SWAP2 SWAP1 PUSH1 0x1 ADD SWAP1 PUSH2 0x3B26 JUMP JUMPDEST JUMPDEST POP SWAP1 POP PUSH2 0x3B5B SWAP2 SWAP1 PUSH2 0x3D77 JUMP JUMPDEST POP SWAP1 JUMP JUMPDEST PUSH1 0x40 MLOAD DUP1 PUSH2 0x2A0 ADD PUSH1 0x40 MSTORE DUP1 PUSH1 0x0 PUSH20 0xFFFFFFFFFFFFFFFFFFFFFFFFFFFFFFFFFFFFFFFF AND DUP2 MSTORE PUSH1 0x20 ADD PUSH1 0x0 DUP2 MSTORE PUSH1 0x20 ADD PUSH1 0x60 DUP2 MSTORE PUSH1 0x20 ADD PUSH1 0x60 DUP2 MSTORE PUSH1 0x20 ADD PUSH1 0x0 DUP2 MSTORE PUSH1 0x20 ADD PUSH1 0x60 DUP2 MSTORE PUSH1 0x20 ADD PUSH1 0x60 DUP2 MSTORE PUSH1 0x20 ADD PUSH1 0x60 DUP2 MSTORE PUSH1 0x20 ADD PUSH1 0x0 DUP2 MSTORE PUSH1 0x20 ADD PUSH1 0x0 DUP2 MSTORE PUSH1 0x20 ADD PUSH1 0x0 ISZERO ISZERO DUP2 MSTORE PUSH1 0x20 ADD PUSH1 0x0 ISZERO ISZERO DUP2 MSTORE PUSH1 0x20 ADD PUSH1 0x0 DUP2 MSTORE PUSH1 0x20 ADD PUSH1 0x60 DUP2 MSTORE PUSH1 0x20 ADD PUSH1 0x60 DUP2 MSTORE PUSH1 0x20 ADD PUSH1 0x60 DUP2 MSTORE PUSH1 0x20 ADD PUSH1 0x0 DUP2 MSTORE PUSH1 0x20 ADD PUSH1 0x0 DUP2 MSTORE PUSH1 0x20 ADD PUSH1 0x0 ISZERO ISZERO DUP2 MSTORE PUSH1 0x20 ADD PUSH1 0x0 ISZERO ISZERO DUP2 MSTORE PUSH1 0x20 ADD PUSH1 0x0 PUSH1 0x5 DUP2 GT ISZERO PUSH2 0x3C29 JUMPI PUSH2 0x3C28 PUSH2 0x483E JUMP JUMPDEST JUMPDEST DUP2 MSTORE POP SWAP1 JUMP JUMPDEST PUSH1 0x40 MLOAD DUP1 PUSH1 0xA0 ADD PUSH1 0x40 MSTORE DUP1 PUSH1 0x0 PUSH20 0xFFFFFFFFFFFFFFFFFFFFFFFFFFFFFFFFFFFFFFFF AND DUP2 MSTORE PUSH1 0x20 ADD PUSH1 0x60 DUP2 MSTORE PUSH1 0x20 ADD PUSH1 0x60 DUP2 MSTORE PUSH1 0x20 ADD PUSH1 0x60 DUP2 MSTORE PUSH1 0x20 ADD PUSH1 0x0 DUP2 MSTORE POP SWAP1 JUMP JUMPDEST DUP3 DUP1 SLOAD DUP3 DUP3 SSTORE SWAP1 PUSH1 0x0 MSTORE PUSH1 0x20 PUSH1 0x0 KECCAK256 SWAP1 DUP2 ADD SWAP3 DUP3 ISZERO PUSH2 0x3CB0 JUMPI SWAP2 PUSH1 0x20 MUL DUP3 ADD JUMPDEST DUP3 DUP2 GT ISZERO PUSH2 0x3CAF JUMPI DUP3 MLOAD DUP3 SSTORE SWAP2 PUSH1 0x20 ADD SWAP2 SWAP1 PUSH1 0x1 ADD SWAP1 PUSH2 0x3C94 JUMP JUMPDEST JUMPDEST POP SWAP1 POP PUSH2 0x3CBD SWAP2 SWAP1 PUSH2 0x3D9B JUMP JUMPDEST POP SWAP1 JUMP JUMPDEST DUP3 DUP1 SLOAD DUP3 DUP3 SSTORE SWAP1 PUSH1 0x0 MSTORE PUSH1 0x20 PUSH1 0x0 KECCAK256 SWAP1 PUSH1 0x1F ADD PUSH1 0x20 SWAP1 DIV DUP2 ADD SWAP3 DUP3 ISZERO PUSH2 0x3D66 JUMPI SWAP2 PUSH1 0x20 MUL DUP3 ADD PUSH1 0x0 JUMPDEST DUP4 DUP3 GT ISZERO PUSH2 0x3D37 JUMPI DUP4 MLOAD DUP4 DUP3 PUSH2 0x100 EXP DUP2 SLOAD DUP2 PUSH1 0xFF MUL NOT AND SWAP1 DUP4 PUSH1 0x5 DUP2 GT ISZERO PUSH2 0x3D16 JUMPI PUSH2 0x3D15 PUSH2 0x483E JUMP JUMPDEST JUMPDEST MUL OR SWAP1 SSTORE POP SWAP3 PUSH1 0x20 ADD SWAP3 PUSH1 0x1 ADD PUSH1 0x20 DUP2 PUSH1 0x0 ADD DIV SWAP3 DUP4 ADD SWAP3 PUSH1 0x1 SUB MUL PUSH2 0x3CEA JUMP JUMPDEST DUP1 ISZERO PUSH2 0x3D64 JUMPI DUP3 DUP2 PUSH2 0x100 EXP DUP2 SLOAD SWAP1 PUSH1 0xFF MUL NOT AND SWAP1 SSTORE PUSH1 0x1 ADD PUSH1 0x20 DUP2 PUSH1 0x0 ADD DIV SWAP3 DUP4 ADD SWAP3 PUSH1 0x1 SUB MUL PUSH2 0x3D37 JUMP JUMPDEST POP JUMPDEST POP SWAP1 POP PUSH2 0x3D73 SWAP2 SWAP1 PUSH2 0x3D9B JUMP JUMPDEST POP SWAP1 JUMP JUMPDEST JUMPDEST DUP1 DUP3 GT ISZERO PUSH2 0x3D97 JUMPI PUSH1 0x0 DUP2 DUP2 PUSH2 0x3D8E SWAP2 SWAP1 PUSH2 0x3DB8 JUMP JUMPDEST POP PUSH1 0x1 ADD PUSH2 0x3D78 JUMP JUMPDEST POP SWAP1 JUMP JUMPDEST JUMPDEST DUP1 DUP3 GT ISZERO PUSH2 0x3DB4 JUMPI PUSH1 0x0 DUP2 PUSH1 0x0 SWAP1 SSTORE POP PUSH1 0x1 ADD PUSH2 0x3D9C JUMP JUMPDEST POP SWAP1 JUMP JUMPDEST POP DUP1 SLOAD PUSH2 0x3DC4 SWAP1 PUSH2 0x560F JUMP JUMPDEST PUSH1 0x0 DUP3 SSTORE DUP1 PUSH1 0x1F LT PUSH2 0x3DD6 JUMPI POP PUSH2 0x3DF5 JUMP JUMPDEST PUSH1 0x1F ADD PUSH1 0x20 SWAP1 DIV SWAP1 PUSH1 0x0 MSTORE PUSH1 0x20 PUSH1 0x0 KECCAK256 SWAP1 DUP2 ADD SWAP1 PUSH2 0x3DF4 SWAP2 SWAP1 PUSH2 0x3D9B JUMP JUMPDEST JUMPDEST POP JUMP JUMPDEST PUSH1 0x0 PUSH1 0x40 MLOAD SWAP1 POP SWAP1 JUMP JUMPDEST PUSH1 0x0 DUP1 REVERT JUMPDEST PUSH1 0x0 DUP1 REVERT JUMPDEST PUSH1 0x0 DUP2 SWAP1 POP SWAP2 SWAP1 POP JUMP JUMPDEST PUSH2 0x3E1F DUP2 PUSH2 0x3E0C JUMP JUMPDEST DUP2 EQ PUSH2 0x3E2A JUMPI PUSH1 0x0 DUP1 REVERT JUMPDEST POP JUMP JUMPDEST PUSH1 0x0 DUP2 CALLDATALOAD SWAP1 POP PUSH2 0x3E3C DUP2 PUSH2 0x3E16 JUMP JUMPDEST SWAP3 SWAP2 POP POP JUMP JUMPDEST PUSH1 0x0 DUP1 REVERT JUMPDEST PUSH1 0x0 PUSH1 0x1F NOT PUSH1 0x1F DUP4 ADD AND SWAP1 POP SWAP2 SWAP1 POP JUMP JUMPDEST PUSH32 0x4E487B7100000000000000000000000000000000000000000000000000000000 PUSH1 0x0 MSTORE PUSH1 0x41 PUSH1 0x4 MSTORE PUSH1 0x24 PUSH1 0x0 REVERT JUMPDEST PUSH2 0x3E90 DUP3 PUSH2 0x3E47 JUMP JUMPDEST DUP2 ADD DUP2 DUP2 LT PUSH8 0xFFFFFFFFFFFFFFFF DUP3 GT OR ISZERO PUSH2 0x3EAF JUMPI PUSH2 0x3EAE PUSH2 0x3E58 JUMP JUMPDEST JUMPDEST DUP1 PUSH1 0x40 MSTORE POP POP POP JUMP JUMPDEST PUSH1 0x0 PUSH2 0x3EC2 PUSH2 0x3DF8 JUMP JUMPDEST SWAP1 POP PUSH2 0x3ECE DUP3 DUP3 PUSH2 0x3E87 JUMP JUMPDEST SWAP2 SWAP1 POP JUMP JUMPDEST PUSH1 0x0 DUP1 REVERT JUMPDEST PUSH1 0x0 DUP1 REVERT JUMPDEST PUSH1 0x0 DUP1 REVERT JUMPDEST PUSH1 0x0 PUSH8 0xFFFFFFFFFFFFFFFF DUP3 GT ISZERO PUSH2 0x3EFD JUMPI PUSH2 0x3EFC PUSH2 0x3E58 JUMP JUMPDEST JUMPDEST PUSH2 0x3F06 DUP3 PUSH2 0x3E47 JUMP JUMPDEST SWAP1 POP PUSH1 0x20 DUP2 ADD SWAP1 POP SWAP2 SWAP1 POP JUMP JUMPDEST DUP3 DUP2 DUP4 CALLDATACOPY PUSH1 0x0 DUP4 DUP4 ADD MSTORE POP POP POP JUMP JUMPDEST PUSH1 0x0 PUSH2 0x3F35 PUSH2 0x3F30 DUP5 PUSH2 0x3EE2 JUMP JUMPDEST PUSH2 0x3EB8 JUMP JUMPDEST SWAP1 POP DUP3 DUP2 MSTORE PUSH1 0x20 DUP2 ADD DUP5 DUP5 DUP5 ADD GT ISZERO PUSH2 0x3F51 JUMPI PUSH2 0x3F50 PUSH2 0x3EDD JUMP JUMPDEST JUMPDEST PUSH2 0x3F5C DUP5 DUP3 DUP6 PUSH2 0x3F13 JUMP JUMPDEST POP SWAP4 SWAP3 POP POP POP JUMP JUMPDEST PUSH1 0x0 DUP3 PUSH1 0x1F DUP4 ADD SLT PUSH2 0x3F79 JUMPI PUSH2 0x3F78 PUSH2 0x3ED8 JUMP JUMPDEST JUMPDEST DUP2 CALLDATALOAD PUSH2 0x3F89 DUP5 DUP3 PUSH1 0x20 DUP7 ADD PUSH2 0x3F22 JUMP JUMPDEST SWAP2 POP POP SWAP3 SWAP2 POP POP JUMP JUMPDEST PUSH1 0x0 PUSH8 0xFFFFFFFFFFFFFFFF DUP3 GT ISZERO PUSH2 0x3FAD JUMPI PUSH2 0x3FAC PUSH2 0x3E58 JUMP JUMPDEST JUMPDEST PUSH1 0x20 DUP3 MUL SWAP1 POP PUSH1 0x20 DUP2 ADD SWAP1 POP SWAP2 SWAP1 POP JUMP JUMPDEST PUSH1 0x0 DUP1 REVERT JUMPDEST PUSH1 0x0 PUSH2 0x3FD6 PUSH2 0x3FD1 DUP5 PUSH2 0x3F92 JUMP JUMPDEST PUSH2 0x3EB8 JUMP JUMPDEST SWAP1 POP DUP1 DUP4 DUP3 MSTORE PUSH1 0x20 DUP3 ADD SWAP1 POP PUSH1 0x20 DUP5 MUL DUP4 ADD DUP6 DUP2 GT ISZERO PUSH2 0x3FF9 JUMPI PUSH2 0x3FF8 PUSH2 0x3FBE JUMP JUMPDEST JUMPDEST DUP4 JUMPDEST DUP2 DUP2 LT ISZERO PUSH2 0x4040 JUMPI DUP1 CALLDATALOAD PUSH8 0xFFFFFFFFFFFFFFFF DUP2 GT ISZERO PUSH2 0x401E JUMPI PUSH2 0x401D PUSH2 0x3ED8 JUMP JUMPDEST JUMPDEST DUP1 DUP7 ADD PUSH2 0x402B DUP10 DUP3 PUSH2 0x3F64 JUMP JUMPDEST DUP6 MSTORE PUSH1 0x20 DUP6 ADD SWAP5 POP POP POP PUSH1 0x20 DUP2 ADD SWAP1 POP PUSH2 0x3FFB JUMP JUMPDEST POP POP POP SWAP4 SWAP3 POP POP POP JUMP JUMPDEST PUSH1 0x0 DUP3 PUSH1 0x1F DUP4 ADD SLT PUSH2 0x405F JUMPI PUSH2 0x405E PUSH2 0x3ED8 JUMP JUMPDEST JUMPDEST DUP2 CALLDATALOAD PUSH2 0x406F DUP5 DUP3 PUSH1 0x20 DUP7 ADD PUSH2 0x3FC3 JUMP JUMPDEST SWAP2 POP POP SWAP3 SWAP2 POP POP JUMP JUMPDEST PUSH1 0x0 DUP2 ISZERO ISZERO SWAP1 POP SWAP2 SWAP1 POP JUMP JUMPDEST PUSH2 0x408D DUP2 PUSH2 0x4078 JUMP JUMPDEST DUP2 EQ PUSH2 0x4098 JUMPI PUSH1 0x0 DUP1 REVERT JUMPDEST POP JUMP JUMPDEST PUSH1 0x0 DUP2 CALLDATALOAD SWAP1 POP PUSH2 0x40AA DUP2 PUSH2 0x4084 JUMP JUMPDEST SWAP3 SWAP2 POP POP JUMP JUMPDEST PUSH1 0x0 PUSH8 0xFFFFFFFFFFFFFFFF DUP3 GT ISZERO PUSH2 0x40CB JUMPI PUSH2 0x40CA PUSH2 0x3E58 JUMP JUMPDEST JUMPDEST PUSH1 0x20 DUP3 MUL SWAP1 POP PUSH1 0x20 DUP2 ADD SWAP1 POP SWAP2 SWAP1 POP JUMP JUMPDEST PUSH1 0x0 PUSH1 0xE0 DUP3 DUP5 SUB SLT ISZERO PUSH2 0x40F2 JUMPI PUSH2 0x40F1 PUSH2 0x3E42 JUMP JUMPDEST JUMPDEST PUSH2 0x40FC PUSH1 0xE0 PUSH2 0x3EB8 JUMP JUMPDEST SWAP1 POP PUSH1 0x0 DUP3 ADD CALLDATALOAD PUSH8 0xFFFFFFFFFFFFFFFF DUP2 GT ISZERO PUSH2 0x411C JUMPI PUSH2 0x411B PUSH2 0x3ED3 JUMP JUMPDEST JUMPDEST PUSH2 0x4128 DUP5 DUP3 DUP6 ADD PUSH2 0x3F64 JUMP JUMPDEST PUSH1 0x0 DUP4 ADD MSTORE POP PUSH1 0x20 PUSH2 0x413C DUP5 DUP3 DUP6 ADD PUSH2 0x3E2D JUMP JUMPDEST PUSH1 0x20 DUP4 ADD MSTORE POP PUSH1 0x40 PUSH2 0x4150 DUP5 DUP3 DUP6 ADD PUSH2 0x3E2D JUMP JUMPDEST PUSH1 0x40 DUP4 ADD MSTORE POP PUSH1 0x60 PUSH2 0x4164 DUP5 DUP3 DUP6 ADD PUSH2 0x3E2D JUMP JUMPDEST PUSH1 0x60 DUP4 ADD MSTORE POP PUSH1 0x80 PUSH2 0x4178 DUP5 DUP3 DUP6 ADD PUSH2 0x3E2D JUMP JUMPDEST PUSH1 0x80 DUP4 ADD MSTORE POP PUSH1 0xA0 PUSH2 0x418C DUP5 DUP3 DUP6 ADD PUSH2 0x3E2D JUMP JUMPDEST PUSH1 0xA0 DUP4 ADD MSTORE POP PUSH1 0xC0 DUP3 ADD CALLDATALOAD PUSH8 0xFFFFFFFFFFFFFFFF DUP2 GT ISZERO PUSH2 0x41B0 JUMPI PUSH2 0x41AF PUSH2 0x3ED3 JUMP JUMPDEST JUMPDEST PUSH2 0x41BC DUP5 DUP3 DUP6 ADD PUSH2 0x3F64 JUMP JUMPDEST PUSH1 0xC0 DUP4 ADD MSTORE POP SWAP3 SWAP2 POP POP JUMP JUMPDEST PUSH1 0x8 DUP2 LT PUSH2 0x41D5 JUMPI PUSH1 0x0 DUP1 REVERT JUMPDEST POP JUMP JUMPDEST PUSH1 0x0 DUP2 CALLDATALOAD SWAP1 POP PUSH2 0x41E7 DUP2 PUSH2 0x41C8 JUMP JUMPDEST SWAP3 SWAP2 POP POP JUMP JUMPDEST PUSH1 0x0 PUSH1 0xA0 DUP3 DUP5 SUB SLT ISZERO PUSH2 0x4203 JUMPI PUSH2 0x4202 PUSH2 0x3E42 JUMP JUMPDEST JUMPDEST PUSH2 0x420D PUSH1 0xA0 PUSH2 0x3EB8 JUMP JUMPDEST SWAP1 POP PUSH1 0x0 DUP3 ADD CALLDATALOAD PUSH8 0xFFFFFFFFFFFFFFFF DUP2 GT ISZERO PUSH2 0x422D JUMPI PUSH2 0x422C PUSH2 0x3ED3 JUMP JUMPDEST JUMPDEST PUSH2 0x4239 DUP5 DUP3 DUP6 ADD PUSH2 0x40DC JUMP JUMPDEST PUSH1 0x0 DUP4 ADD MSTORE POP PUSH1 0x20 PUSH2 0x424D DUP5 DUP3 DUP6 ADD PUSH2 0x3E2D JUMP JUMPDEST PUSH1 0x20 DUP4 ADD MSTORE POP PUSH1 0x40 DUP3 ADD CALLDATALOAD PUSH8 0xFFFFFFFFFFFFFFFF DUP2 GT ISZERO PUSH2 0x4271 JUMPI PUSH2 0x4270 PUSH2 0x3ED3 JUMP JUMPDEST JUMPDEST PUSH2 0x427D DUP5 DUP3 DUP6 ADD PUSH2 0x3F64 JUMP JUMPDEST PUSH1 0x40 DUP4 ADD MSTORE POP PUSH1 0x60 PUSH2 0x4291 DUP5 DUP3 DUP6 ADD PUSH2 0x41D8 JUMP JUMPDEST PUSH1 0x60 DUP4 ADD MSTORE POP PUSH1 0x80 PUSH2 0x42A5 DUP5 DUP3 DUP6 ADD PUSH2 0x3E2D JUMP JUMPDEST PUSH1 0x80 DUP4 ADD MSTORE POP SWAP3 SWAP2 POP POP JUMP JUMPDEST PUSH1 0x0 PUSH2 0x42C4 PUSH2 0x42BF DUP5 PUSH2 0x40B0 JUMP JUMPDEST PUSH2 0x3EB8 JUMP JUMPDEST SWAP1 POP DUP1 DUP4 DUP3 MSTORE PUSH1 0x20 DUP3 ADD SWAP1 POP PUSH1 0x20 DUP5 MUL DUP4 ADD DUP6 DUP2 GT ISZERO PUSH2 0x42E7 JUMPI PUSH2 0x42E6 PUSH2 0x3FBE JUMP JUMPDEST JUMPDEST DUP4 JUMPDEST DUP2 DUP2 LT ISZERO PUSH2 0x432E JUMPI DUP1 CALLDATALOAD PUSH8 0xFFFFFFFFFFFFFFFF DUP2 GT ISZERO PUSH2 0x430C JUMPI PUSH2 0x430B PUSH2 0x3ED8 JUMP JUMPDEST JUMPDEST DUP1 DUP7 ADD PUSH2 0x4319 DUP10 DUP3 PUSH2 0x41ED JUMP JUMPDEST DUP6 MSTORE PUSH1 0x20 DUP6 ADD SWAP5 POP POP POP PUSH1 0x20 DUP2 ADD SWAP1 POP PUSH2 0x42E9 JUMP JUMPDEST POP POP POP SWAP4 SWAP3 POP POP POP JUMP JUMPDEST PUSH1 0x0 DUP3 PUSH1 0x1F DUP4 ADD SLT PUSH2 0x434D JUMPI PUSH2 0x434C PUSH2 0x3ED8 JUMP JUMPDEST JUMPDEST DUP2 CALLDATALOAD PUSH2 0x435D DUP5 DUP3 PUSH1 0x20 DUP7 ADD PUSH2 0x42B1 JUMP JUMPDEST SWAP2 POP POP SWAP3 SWAP2 POP POP JUMP JUMPDEST PUSH1 0x0 PUSH2 0x1A0 DUP3 DUP5 SUB SLT ISZERO PUSH2 0x437D JUMPI PUSH2 0x437C PUSH2 0x3E42 JUMP JUMPDEST JUMPDEST PUSH2 0x4388 PUSH2 0x1A0 PUSH2 0x3EB8 JUMP JUMPDEST SWAP1 POP PUSH1 0x0 PUSH2 0x4398 DUP5 DUP3 DUP6 ADD PUSH2 0x3E2D JUMP JUMPDEST PUSH1 0x0 DUP4 ADD MSTORE POP PUSH1 0x20 DUP3 ADD CALLDATALOAD PUSH8 0xFFFFFFFFFFFFFFFF DUP2 GT ISZERO PUSH2 0x43BC JUMPI PUSH2 0x43BB PUSH2 0x3ED3 JUMP JUMPDEST JUMPDEST PUSH2 0x43C8 DUP5 DUP3 DUP6 ADD PUSH2 0x3F64 JUMP JUMPDEST PUSH1 0x20 DUP4 ADD MSTORE POP PUSH1 0x40 DUP3 ADD CALLDATALOAD PUSH8 0xFFFFFFFFFFFFFFFF DUP2 GT ISZERO PUSH2 0x43EC JUMPI PUSH2 0x43EB PUSH2 0x3ED3 JUMP JUMPDEST JUMPDEST PUSH2 0x43F8 DUP5 DUP3 DUP6 ADD PUSH2 0x3F64 JUMP JUMPDEST PUSH1 0x40 DUP4 ADD MSTORE POP PUSH1 0x60 PUSH2 0x440C DUP5 DUP3 DUP6 ADD PUSH2 0x3E2D JUMP JUMPDEST PUSH1 0x60 DUP4 ADD MSTORE POP PUSH1 0x80 DUP3 ADD CALLDATALOAD PUSH8 0xFFFFFFFFFFFFFFFF DUP2 GT ISZERO PUSH2 0x4430 JUMPI PUSH2 0x442F PUSH2 0x3ED3 JUMP JUMPDEST JUMPDEST PUSH2 0x443C DUP5 DUP3 DUP6 ADD PUSH2 0x3F64 JUMP JUMPDEST PUSH1 0x80 DUP4 ADD MSTORE POP PUSH1 0xA0 DUP3 ADD CALLDATALOAD PUSH8 0xFFFFFFFFFFFFFFFF DUP2 GT ISZERO PUSH2 0x4460 JUMPI PUSH2 0x445F PUSH2 0x3ED3 JUMP JUMPDEST JUMPDEST PUSH2 0x446C DUP5 DUP3 DUP6 ADD PUSH2 0x3F64 JUMP JUMPDEST PUSH1 0xA0 DUP4 ADD MSTORE POP PUSH1 0xC0 DUP3 ADD CALLDATALOAD PUSH8 0xFFFFFFFFFFFFFFFF DUP2 GT ISZERO PUSH2 0x4490 JUMPI PUSH2 0x448F PUSH2 0x3ED3 JUMP JUMPDEST JUMPDEST PUSH2 0x449C DUP5 DUP3 DUP6 ADD PUSH2 0x404A JUMP JUMPDEST PUSH1 0xC0 DUP4 ADD MSTORE POP PUSH1 0xE0 PUSH2 0x44B0 DUP5 DUP3 DUP6 ADD PUSH2 0x3E2D JUMP JUMPDEST PUSH1 0xE0 DUP4 ADD MSTORE POP PUSH2 0x100 PUSH2 0x44C5 DUP5 DUP3 DUP6 ADD PUSH2 0x3E2D JUMP JUMPDEST PUSH2 0x100 DUP4 ADD MSTORE POP PUSH2 0x120 PUSH2 0x44DB DUP5 DUP3 DUP6 ADD PUSH2 0x409B JUMP JUMPDEST PUSH2 0x120 DUP4 ADD MSTORE POP PUSH2 0x140 PUSH2 0x44F1 DUP5 DUP3 DUP6 ADD PUSH2 0x409B JUMP JUMPDEST PUSH2 0x140 DUP4 ADD MSTORE POP PUSH2 0x160 PUSH2 0x4507 DUP5 DUP3 DUP6 ADD PUSH2 0x3E2D JUMP JUMPDEST PUSH2 0x160 DUP4 ADD MSTORE POP PUSH2 0x180 DUP3 ADD CALLDATALOAD PUSH8 0xFFFFFFFFFFFFFFFF DUP2 GT ISZERO PUSH2 0x452D JUMPI PUSH2 0x452C PUSH2 0x3ED3 JUMP JUMPDEST JUMPDEST PUSH2 0x4539 DUP5 DUP3 DUP6 ADD PUSH2 0x4338 JUMP JUMPDEST PUSH2 0x180 DUP4 ADD MSTORE POP SWAP3 SWAP2 POP POP JUMP JUMPDEST PUSH1 0x0 DUP1 PUSH1 0x40 DUP4 DUP6 SUB SLT ISZERO PUSH2 0x455D JUMPI PUSH2 0x455C PUSH2 0x3E02 JUMP JUMPDEST JUMPDEST PUSH1 0x0 PUSH2 0x456B DUP6 DUP3 DUP7 ADD PUSH2 0x3E2D JUMP JUMPDEST SWAP3 POP POP PUSH1 0x20 DUP4 ADD CALLDATALOAD PUSH8 0xFFFFFFFFFFFFFFFF DUP2 GT ISZERO PUSH2 0x458C JUMPI PUSH2 0x458B PUSH2 0x3E07 JUMP JUMPDEST JUMPDEST PUSH2 0x4598 DUP6 DUP3 DUP7 ADD PUSH2 0x4366 JUMP JUMPDEST SWAP2 POP POP SWAP3 POP SWAP3 SWAP1 POP JUMP JUMPDEST PUSH1 0x0 PUSH1 0x20 DUP3 DUP5 SUB SLT ISZERO PUSH2 0x45B8 JUMPI PUSH2 0x45B7 PUSH2 0x3E02 JUMP JUMPDEST JUMPDEST PUSH1 0x0 PUSH2 0x45C6 DUP5 DUP3 DUP6 ADD PUSH2 0x3E2D JUMP JUMPDEST SWAP2 POP POP SWAP3 SWAP2 POP POP JUMP JUMPDEST PUSH1 0x0 PUSH20 0xFFFFFFFFFFFFFFFFFFFFFFFFFFFFFFFFFFFFFFFF DUP3 AND SWAP1 POP SWAP2 SWAP1 POP JUMP JUMPDEST PUSH1 0x0 PUSH2 0x45FA DUP3 PUSH2 0x45CF JUMP JUMPDEST SWAP1 POP SWAP2 SWAP1 POP JUMP JUMPDEST PUSH2 0x460A DUP2 PUSH2 0x45EF JUMP JUMPDEST DUP3 MSTORE POP POP JUMP JUMPDEST PUSH2 0x4619 DUP2 PUSH2 0x3E0C JUMP JUMPDEST DUP3 MSTORE POP POP JUMP JUMPDEST PUSH1 0x0 DUP2 MLOAD SWAP1 POP SWAP2 SWAP1 POP JUMP JUMPDEST PUSH1 0x0 DUP3 DUP3 MSTORE PUSH1 0x20 DUP3 ADD SWAP1 POP SWAP3 SWAP2 POP POP JUMP JUMPDEST PUSH1 0x0 JUMPDEST DUP4 DUP2 LT ISZERO PUSH2 0x4659 JUMPI DUP1 DUP3 ADD MLOAD DUP2 DUP5 ADD MSTORE PUSH1 0x20 DUP2 ADD SWAP1 POP PUSH2 0x463E JUMP JUMPDEST PUSH1 0x0 DUP5 DUP5 ADD MSTORE POP POP POP POP JUMP JUMPDEST PUSH1 0x0 PUSH2 0x4670 DUP3 PUSH2 0x461F JUMP JUMPDEST PUSH2 0x467A DUP2 DUP6 PUSH2 0x462A JUMP JUMPDEST SWAP4 POP PUSH2 0x468A DUP2 DUP6 PUSH1 0x20 DUP7 ADD PUSH2 0x463B JUMP JUMPDEST PUSH2 0x4693 DUP2 PUSH2 0x3E47 JUMP JUMPDEST DUP5 ADD SWAP2 POP POP SWAP3 SWAP2 POP POP JUMP JUMPDEST PUSH1 0x0 DUP2 MLOAD SWAP1 POP SWAP2 SWAP1 POP JUMP JUMPDEST PUSH1 0x0 DUP3 DUP3 MSTORE PUSH1 0x20 DUP3 ADD SWAP1 POP SWAP3 SWAP2 POP POP JUMP JUMPDEST PUSH1 0x0 DUP2 SWAP1 POP PUSH1 0x20 DUP3 ADD SWAP1 POP SWAP2 SWAP1 POP JUMP JUMPDEST PUSH1 0x0 PUSH2 0x46D6 DUP4 DUP4 PUSH2 0x4665 JUMP JUMPDEST SWAP1 POP SWAP3 SWAP2 POP POP JUMP JUMPDEST PUSH1 0x0 PUSH1 0x20 DUP3 ADD SWAP1 POP SWAP2 SWAP1 POP JUMP JUMPDEST PUSH1 0x0 PUSH2 0x46F6 DUP3 PUSH2 0x469E JUMP JUMPDEST PUSH2 0x4700 DUP2 DUP6 PUSH2 0x46A9 JUMP JUMPDEST SWAP4 POP DUP4 PUSH1 0x20 DUP3 MUL DUP6 ADD PUSH2 0x4712 DUP6 PUSH2 0x46BA JUMP JUMPDEST DUP1 PUSH1 0x0 JUMPDEST DUP6 DUP2 LT ISZERO PUSH2 0x474E JUMPI DUP5 DUP5 SUB DUP10 MSTORE DUP2 MLOAD PUSH2 0x472F DUP6 DUP3 PUSH2 0x46CA JUMP JUMPDEST SWAP5 POP PUSH2 0x473A DUP4 PUSH2 0x46DE JUMP JUMPDEST SWAP3 POP PUSH1 0x20 DUP11 ADD SWAP10 POP POP PUSH1 0x1 DUP2 ADD SWAP1 POP PUSH2 0x4716 JUMP JUMPDEST POP DUP3 SWAP8 POP DUP8 SWAP6 POP POP POP POP POP POP SWAP3 SWAP2 POP POP JUMP JUMPDEST PUSH2 0x4769 DUP2 PUSH2 0x4078 JUMP JUMPDEST DUP3 MSTORE POP POP JUMP JUMPDEST PUSH1 0x0 DUP2 MLOAD SWAP1 POP SWAP2 SWAP1 POP JUMP JUMPDEST PUSH1 0x0 DUP3 DUP3 MSTORE PUSH1 0x20 DUP3 ADD SWAP1 POP SWAP3 SWAP2 POP POP JUMP JUMPDEST PUSH1 0x0 DUP2 SWAP1 POP PUSH1 0x20 DUP3 ADD SWAP1 POP SWAP2 SWAP1 POP JUMP JUMPDEST PUSH1 0x0 PUSH1 0xE0 DUP4 ADD PUSH1 0x0 DUP4 ADD MLOAD DUP5 DUP3 SUB PUSH1 0x0 DUP7 ADD MSTORE PUSH2 0x47B8 DUP3 DUP3 PUSH2 0x4665 JUMP JUMPDEST SWAP2 POP POP PUSH1 0x20 DUP4 ADD MLOAD PUSH2 0x47CD PUSH1 0x20 DUP7 ADD DUP3 PUSH2 0x4610 JUMP JUMPDEST POP PUSH1 0x40 DUP4 ADD MLOAD PUSH2 0x47E0 PUSH1 0x40 DUP7 ADD DUP3 PUSH2 0x4610 JUMP JUMPDEST POP PUSH1 0x60 DUP4 ADD MLOAD PUSH2 0x47F3 PUSH1 0x60 DUP7 ADD DUP3 PUSH2 0x4610 JUMP JUMPDEST POP PUSH1 0x80 DUP4 ADD MLOAD PUSH2 0x4806 PUSH1 0x80 DUP7 ADD DUP3 PUSH2 0x4610 JUMP JUMPDEST POP PUSH1 0xA0 DUP4 ADD MLOAD PUSH2 0x4819 PUSH1 0xA0 DUP7 ADD DUP3 PUSH2 0x4610 JUMP JUMPDEST POP PUSH1 0xC0 DUP4 ADD MLOAD DUP5 DUP3 SUB PUSH1 0xC0 DUP7 ADD MSTORE PUSH2 0x4831 DUP3 DUP3 PUSH2 0x4665 JUMP JUMPDEST SWAP2 POP POP DUP1 SWAP2 POP POP SWAP3 SWAP2 POP POP JUMP JUMPDEST PUSH32 0x4E487B7100000000000000000000000000000000000000000000000000000000 PUSH1 0x0 MSTORE PUSH1 0x21 PUSH1 0x4 MSTORE PUSH1 0x24 PUSH1 0x0 REVERT JUMPDEST PUSH1 0x8 DUP2 LT PUSH2 0x487E JUMPI PUSH2 0x487D PUSH2 0x483E JUMP JUMPDEST JUMPDEST POP JUMP JUMPDEST PUSH1 0x0 DUP2 SWAP1 POP PUSH2 0x488F DUP3 PUSH2 0x486D JUMP JUMPDEST SWAP2 SWAP1 POP JUMP JUMPDEST PUSH1 0x0 PUSH2 0x489F DUP3 PUSH2 0x4881 JUMP JUMPDEST SWAP1 POP SWAP2 SWAP1 POP JUMP JUMPDEST PUSH2 0x48AF DUP2 PUSH2 0x4894 JUMP JUMPDEST DUP3 MSTORE POP POP JUMP JUMPDEST PUSH1 0x0 PUSH1 0xA0 DUP4 ADD PUSH1 0x0 DUP4 ADD MLOAD DUP5 DUP3 SUB PUSH1 0x0 DUP7 ADD MSTORE PUSH2 0x48D2 DUP3 DUP3 PUSH2 0x479B JUMP JUMPDEST SWAP2 POP POP PUSH1 0x20 DUP4 ADD MLOAD PUSH2 0x48E7 PUSH1 0x20 DUP7 ADD DUP3 PUSH2 0x4610 JUMP JUMPDEST POP PUSH1 0x40 DUP4 ADD MLOAD DUP5 DUP3 SUB PUSH1 0x40 DUP7 ADD MSTORE PUSH2 0x48FF DUP3 DUP3 PUSH2 0x4665 JUMP JUMPDEST SWAP2 POP POP PUSH1 0x60 DUP4 ADD MLOAD PUSH2 0x4914 PUSH1 0x60 DUP7 ADD DUP3 PUSH2 0x48A6 JUMP JUMPDEST POP PUSH1 0x80 DUP4 ADD MLOAD PUSH2 0x4927 PUSH1 0x80 DUP7 ADD DUP3 PUSH2 0x4610 JUMP JUMPDEST POP DUP1 SWAP2 POP POP SWAP3 SWAP2 POP POP JUMP JUMPDEST PUSH1 0x0 PUSH2 0x493E DUP4 DUP4 PUSH2 0x48B5 JUMP JUMPDEST SWAP1 POP SWAP3 SWAP2 POP POP JUMP JUMPDEST PUSH1 0x0 PUSH1 0x20 DUP3 ADD SWAP1 POP SWAP2 SWAP1 POP JUMP JUMPDEST PUSH1 0x0 PUSH2 0x495E DUP3 PUSH2 0x476F JUMP JUMPDEST PUSH2 0x4968 DUP2 DUP6 PUSH2 0x477A JUMP JUMPDEST SWAP4 POP DUP4 PUSH1 0x20 DUP3 MUL DUP6 ADD PUSH2 0x497A DUP6 PUSH2 0x478B JUMP JUMPDEST DUP1 PUSH1 0x0 JUMPDEST DUP6 DUP2 LT ISZERO PUSH2 0x49B6 JUMPI DUP5 DUP5 SUB DUP10 MSTORE DUP2 MLOAD PUSH2 0x4997 DUP6 DUP3 PUSH2 0x4932 JUMP JUMPDEST SWAP5 POP PUSH2 0x49A2 DUP4 PUSH2 0x4946 JUMP JUMPDEST SWAP3 POP PUSH1 0x20 DUP11 ADD SWAP10 POP POP PUSH1 0x1 DUP2 ADD SWAP1 POP PUSH2 0x497E JUMP JUMPDEST POP DUP3 SWAP8 POP DUP8 SWAP6 POP POP POP POP POP POP SWAP3 SWAP2 POP POP JUMP JUMPDEST PUSH1 0x0 DUP2 MLOAD SWAP1 POP SWAP2 SWAP1 POP JUMP JUMPDEST PUSH1 0x0 DUP3 DUP3 MSTORE PUSH1 0x20 DUP3 ADD SWAP1 POP SWAP3 SWAP2 POP POP JUMP JUMPDEST PUSH1 0x0 DUP2 SWAP1 POP PUSH1 0x20 DUP3 ADD SWAP1 POP SWAP2 SWAP1 POP JUMP JUMPDEST PUSH1 0x0 DUP2 MLOAD SWAP1 POP SWAP2 SWAP1 POP JUMP JUMPDEST PUSH1 0x0 DUP3 DUP3 MSTORE PUSH1 0x20 DUP3 ADD SWAP1 POP SWAP3 SWAP2 POP POP JUMP JUMPDEST PUSH1 0x0 DUP2 SWAP1 POP PUSH1 0x20 DUP3 ADD SWAP1 POP SWAP2 SWAP1 POP JUMP JUMPDEST PUSH1 0x0 PUSH2 0x4A2C DUP4 DUP4 PUSH2 0x4610 JUMP JUMPDEST PUSH1 0x20 DUP4 ADD SWAP1 POP SWAP3 SWAP2 POP POP JUMP JUMPDEST PUSH1 0x0 PUSH1 0x20 DUP3 ADD SWAP1 POP SWAP2 SWAP1 POP JUMP JUMPDEST PUSH1 0x0 PUSH2 0x4A50 DUP3 PUSH2 0x49F4 JUMP JUMPDEST PUSH2 0x4A5A DUP2 DUP6 PUSH2 0x49FF JUMP JUMPDEST SWAP4 POP PUSH2 0x4A65 DUP4 PUSH2 0x4A10 JUMP JUMPDEST DUP1 PUSH1 0x0 JUMPDEST DUP4 DUP2 LT ISZERO PUSH2 0x4A96 JUMPI DUP2 MLOAD PUSH2 0x4A7D DUP9 DUP3 PUSH2 0x4A20 JUMP JUMPDEST SWAP8 POP PUSH2 0x4A88 DUP4 PUSH2 0x4A38 JUMP JUMPDEST SWAP3 POP POP PUSH1 0x1 DUP2 ADD SWAP1 POP PUSH2 0x4A69 JUMP JUMPDEST POP DUP6 SWAP4 POP POP POP POP SWAP3 SWAP2 POP POP JUMP JUMPDEST PUSH1 0x0 DUP2 MLOAD SWAP1 POP SWAP2 SWAP1 POP JUMP JUMPDEST PUSH1 0x0 DUP3 DUP3 MSTORE PUSH1 0x20 DUP3 ADD SWAP1 POP SWAP3 SWAP2 POP POP JUMP JUMPDEST PUSH1 0x0 DUP2 SWAP1 POP PUSH1 0x20 DUP3 ADD SWAP1 POP SWAP2 SWAP1 POP JUMP JUMPDEST PUSH1 0x6 DUP2 LT PUSH2 0x4AE0 JUMPI PUSH2 0x4ADF PUSH2 0x483E JUMP JUMPDEST JUMPDEST POP JUMP JUMPDEST PUSH1 0x0 DUP2 SWAP1 POP PUSH2 0x4AF1 DUP3 PUSH2 0x4ACF JUMP JUMPDEST SWAP2 SWAP1 POP JUMP JUMPDEST PUSH1 0x0 PUSH2 0x4B01 DUP3 PUSH2 0x4AE3 JUMP JUMPDEST SWAP1 POP SWAP2 SWAP1 POP JUMP JUMPDEST PUSH2 0x4B11 DUP2 PUSH2 0x4AF6 JUMP JUMPDEST DUP3 MSTORE POP POP JUMP JUMPDEST PUSH1 0x0 PUSH2 0x4B23 DUP4 DUP4 PUSH2 0x4B08 JUMP JUMPDEST PUSH1 0x20 DUP4 ADD SWAP1 POP SWAP3 SWAP2 POP POP JUMP JUMPDEST PUSH1 0x0 PUSH1 0x20 DUP3 ADD SWAP1 POP SWAP2 SWAP1 POP JUMP JUMPDEST PUSH1 0x0 PUSH2 0x4B47 DUP3 PUSH2 0x4AA3 JUMP JUMPDEST PUSH2 0x4B51 DUP2 DUP6 PUSH2 0x4AAE JUMP JUMPDEST SWAP4 POP PUSH2 0x4B5C DUP4 PUSH2 0x4ABF JUMP JUMPDEST DUP1 PUSH1 0x0 JUMPDEST DUP4 DUP2 LT ISZERO PUSH2 0x4B8D JUMPI DUP2 MLOAD PUSH2 0x4B74 DUP9 DUP3 PUSH2 0x4B17 JUMP JUMPDEST SWAP8 POP PUSH2 0x4B7F DUP4 PUSH2 0x4B2F JUMP JUMPDEST SWAP3 POP POP PUSH1 0x1 DUP2 ADD SWAP1 POP PUSH2 0x4B60 JUMP JUMPDEST POP DUP6 SWAP4 POP POP POP POP SWAP3 SWAP2 POP POP JUMP JUMPDEST PUSH1 0x0 PUSH1 0xA0 DUP4 ADD PUSH1 0x0 DUP4 ADD MLOAD PUSH2 0x4BB2 PUSH1 0x0 DUP7 ADD DUP3 PUSH2 0x4601 JUMP JUMPDEST POP PUSH1 0x20 DUP4 ADD MLOAD DUP5 DUP3 SUB PUSH1 0x20 DUP7 ADD MSTORE PUSH2 0x4BCA DUP3 DUP3 PUSH2 0x4A45 JUMP JUMPDEST SWAP2 POP POP PUSH1 0x40 DUP4 ADD MLOAD DUP5 DUP3 SUB PUSH1 0x40 DUP7 ADD MSTORE PUSH2 0x4BE4 DUP3 DUP3 PUSH2 0x4B3C JUMP JUMPDEST SWAP2 POP POP PUSH1 0x60 DUP4 ADD MLOAD DUP5 DUP3 SUB PUSH1 0x60 DUP7 ADD MSTORE PUSH2 0x4BFE DUP3 DUP3 PUSH2 0x46EB JUMP JUMPDEST SWAP2 POP POP PUSH1 0x80 DUP4 ADD MLOAD PUSH2 0x4C13 PUSH1 0x80 DUP7 ADD DUP3 PUSH2 0x4610 JUMP JUMPDEST POP DUP1 SWAP2 POP POP SWAP3 SWAP2 POP POP JUMP JUMPDEST PUSH1 0x0 PUSH2 0x4C2A DUP4 DUP4 PUSH2 0x4B9A JUMP JUMPDEST SWAP1 POP SWAP3 SWAP2 POP POP JUMP JUMPDEST PUSH1 0x0 PUSH1 0x20 DUP3 ADD SWAP1 POP SWAP2 SWAP1 POP JUMP JUMPDEST PUSH1 0x0 PUSH2 0x4C4A DUP3 PUSH2 0x49C8 JUMP JUMPDEST PUSH2 0x4C54 DUP2 DUP6 PUSH2 0x49D3 JUMP JUMPDEST SWAP4 POP DUP4 PUSH1 0x20 DUP3 MUL DUP6 ADD PUSH2 0x4C66 DUP6 PUSH2 0x49E4 JUMP JUMPDEST DUP1 PUSH1 0x0 JUMPDEST DUP6 DUP2 LT ISZERO PUSH2 0x4CA2 JUMPI DUP5 DUP5 SUB DUP10 MSTORE DUP2 MLOAD PUSH2 0x4C83 DUP6 DUP3 PUSH2 0x4C1E JUMP JUMPDEST SWAP5 POP PUSH2 0x4C8E DUP4 PUSH2 0x4C32 JUMP JUMPDEST SWAP3 POP PUSH1 0x20 DUP11 ADD SWAP10 POP POP PUSH1 0x1 DUP2 ADD SWAP1 POP PUSH2 0x4C6A JUMP JUMPDEST POP DUP3 SWAP8 POP DUP8 SWAP6 POP POP POP POP POP POP SWAP3 SWAP2 POP POP JUMP JUMPDEST PUSH1 0x6 DUP2 LT PUSH2 0x4CC5 JUMPI PUSH2 0x4CC4 PUSH2 0x483E JUMP JUMPDEST JUMPDEST POP JUMP JUMPDEST PUSH1 0x0 DUP2 SWAP1 POP PUSH2 0x4CD6 DUP3 PUSH2 0x4CB4 JUMP JUMPDEST SWAP2 SWAP1 POP JUMP JUMPDEST PUSH1 0x0 PUSH2 0x4CE6 DUP3 PUSH2 0x4CC8 JUMP JUMPDEST SWAP1 POP SWAP2 SWAP1 POP JUMP JUMPDEST PUSH2 0x4CF6 DUP2 PUSH2 0x4CDB JUMP JUMPDEST DUP3 MSTORE POP POP JUMP JUMPDEST PUSH1 0x0 PUSH2 0x2A0 DUP4 ADD PUSH1 0x0 DUP4 ADD MLOAD PUSH2 0x4D15 PUSH1 0x0 DUP7 ADD DUP3 PUSH2 0x4601 JUMP JUMPDEST POP PUSH1 0x20 DUP4 ADD MLOAD PUSH2 0x4D28 PUSH1 0x20 DUP7 ADD DUP3 PUSH2 0x4610 JUMP JUMPDEST POP PUSH1 0x40 DUP4 ADD MLOAD DUP5 DUP3 SUB PUSH1 0x40 DUP7 ADD MSTORE PUSH2 0x4D40 DUP3 DUP3 PUSH2 0x4665 JUMP JUMPDEST SWAP2 POP POP PUSH1 0x60 DUP4 ADD MLOAD DUP5 DUP3 SUB PUSH1 0x60 DUP7 ADD MSTORE PUSH2 0x4D5A DUP3 DUP3 PUSH2 0x4665 JUMP JUMPDEST SWAP2 POP POP PUSH1 0x80 DUP4 ADD MLOAD PUSH2 0x4D6F PUSH1 0x80 DUP7 ADD DUP3 PUSH2 0x4610 JUMP JUMPDEST POP PUSH1 0xA0 DUP4 ADD MLOAD DUP5 DUP3 SUB PUSH1 0xA0 DUP7 ADD MSTORE PUSH2 0x4D87 DUP3 DUP3 PUSH2 0x4665 JUMP JUMPDEST SWAP2 POP POP PUSH1 0xC0 DUP4 ADD MLOAD DUP5 DUP3 SUB PUSH1 0xC0 DUP7 ADD MSTORE PUSH2 0x4DA1 DUP3 DUP3 PUSH2 0x4665 JUMP JUMPDEST SWAP2 POP POP PUSH1 0xE0 DUP4 ADD MLOAD DUP5 DUP3 SUB PUSH1 0xE0 DUP7 ADD MSTORE PUSH2 0x4DBB DUP3 DUP3 PUSH2 0x46EB JUMP JUMPDEST SWAP2 POP POP PUSH2 0x100 DUP4 ADD MLOAD PUSH2 0x4DD2 PUSH2 0x100 DUP7 ADD DUP3 PUSH2 0x4610 JUMP JUMPDEST POP PUSH2 0x120 DUP4 ADD MLOAD PUSH2 0x4DE7 PUSH2 0x120 DUP7 ADD DUP3 PUSH2 0x4610 JUMP JUMPDEST POP PUSH2 0x140 DUP4 ADD MLOAD PUSH2 0x4DFC PUSH2 0x140 DUP7 ADD DUP3 PUSH2 0x4760 JUMP JUMPDEST POP PUSH2 0x160 DUP4 ADD MLOAD PUSH2 0x4E11 PUSH2 0x160 DUP7 ADD DUP3 PUSH2 0x4760 JUMP JUMPDEST POP PUSH2 0x180 DUP4 ADD MLOAD PUSH2 0x4E26 PUSH2 0x180 DUP7 ADD DUP3 PUSH2 0x4610 JUMP JUMPDEST POP PUSH2 0x1A0 DUP4 ADD MLOAD DUP5 DUP3 SUB PUSH2 0x1A0 DUP7 ADD MSTORE PUSH2 0x4E40 DUP3 DUP3 PUSH2 0x4953 JUMP JUMPDEST SWAP2 POP POP PUSH2 0x1C0 DUP4 ADD MLOAD DUP5 DUP3 SUB PUSH2 0x1C0 DUP7 ADD MSTORE PUSH2 0x4E5C DUP3 DUP3 PUSH2 0x4C3F JUMP JUMPDEST SWAP2 POP POP PUSH2 0x1E0 DUP4 ADD MLOAD DUP5 DUP3 SUB PUSH2 0x1E0 DUP7 ADD MSTORE PUSH2 0x4E78 DUP3 DUP3 PUSH2 0x4C3F JUMP JUMPDEST SWAP2 POP POP PUSH2 0x200 DUP4 ADD MLOAD PUSH2 0x4E8F PUSH2 0x200 DUP7 ADD DUP3 PUSH2 0x4610 JUMP JUMPDEST POP PUSH2 0x220 DUP4 ADD MLOAD PUSH2 0x4EA4 PUSH2 0x220 DUP7 ADD DUP3 PUSH2 0x4610 JUMP JUMPDEST POP PUSH2 0x240 DUP4 ADD MLOAD PUSH2 0x4EB9 PUSH2 0x240 DUP7 ADD DUP3 PUSH2 0x4760 JUMP JUMPDEST POP PUSH2 0x260 DUP4 ADD MLOAD PUSH2 0x4ECE PUSH2 0x260 DUP7 ADD DUP3 PUSH2 0x4760 JUMP JUMPDEST POP PUSH2 0x280 DUP4 ADD MLOAD PUSH2 0x4EE3 PUSH2 0x280 DUP7 ADD DUP3 PUSH2 0x4CED JUMP JUMPDEST POP DUP1 SWAP2 POP POP SWAP3 SWAP2 POP POP JUMP JUMPDEST PUSH1 0x0 PUSH1 0x20 DUP3 ADD SWAP1 POP DUP2 DUP2 SUB PUSH1 0x0 DUP4 ADD MSTORE PUSH2 0x4F08 DUP2 DUP5 PUSH2 0x4CFC JUMP JUMPDEST SWAP1 POP SWAP3 SWAP2 POP POP JUMP JUMPDEST PUSH1 0x0 DUP1 PUSH1 0x0 PUSH1 0x60 DUP5 DUP7 SUB SLT ISZERO PUSH2 0x4F29 JUMPI PUSH2 0x4F28 PUSH2 0x3E02 JUMP JUMPDEST JUMPDEST PUSH1 0x0 PUSH2 0x4F37 DUP7 DUP3 DUP8 ADD PUSH2 0x3E2D JUMP JUMPDEST SWAP4 POP POP PUSH1 0x20 PUSH2 0x4F48 DUP7 DUP3 DUP8 ADD PUSH2 0x3E2D JUMP JUMPDEST SWAP3 POP POP PUSH1 0x40 PUSH2 0x4F59 DUP7 DUP3 DUP8 ADD PUSH2 0x41D8 JUMP JUMPDEST SWAP2 POP POP SWAP3 POP SWAP3 POP SWAP3 JUMP JUMPDEST PUSH2 0x4F6C DUP2 PUSH2 0x4078 JUMP JUMPDEST DUP3 MSTORE POP POP JUMP JUMPDEST PUSH1 0x0 PUSH1 0x20 DUP3 ADD SWAP1 POP PUSH2 0x4F87 PUSH1 0x0 DUP4 ADD DUP5 PUSH2 0x4F63 JUMP JUMPDEST SWAP3 SWAP2 POP POP JUMP JUMPDEST PUSH1 0x0 DUP1 PUSH1 0x0 DUP1 PUSH1 0x80 DUP6 DUP8 SUB SLT ISZERO PUSH2 0x4FA7 JUMPI PUSH2 0x4FA6 PUSH2 0x3E02 JUMP JUMPDEST JUMPDEST PUSH1 0x0 PUSH2 0x4FB5 DUP8 DUP3 DUP9 ADD PUSH2 0x3E2D JUMP JUMPDEST SWAP5 POP POP PUSH1 0x20 PUSH2 0x4FC6 DUP8 DUP3 DUP9 ADD PUSH2 0x3E2D JUMP JUMPDEST SWAP4 POP POP PUSH1 0x40 PUSH2 0x4FD7 DUP8 DUP3 DUP9 ADD PUSH2 0x3E2D JUMP JUMPDEST SWAP3 POP POP PUSH1 0x60 PUSH2 0x4FE8 DUP8 DUP3 DUP9 ADD PUSH2 0x409B JUMP JUMPDEST SWAP2 POP POP SWAP3 SWAP6 SWAP2 SWAP5 POP SWAP3 POP JUMP JUMPDEST PUSH1 0x0 DUP1 PUSH1 0x40 DUP4 DUP6 SUB SLT ISZERO PUSH2 0x500B JUMPI PUSH2 0x500A PUSH2 0x3E02 JUMP JUMPDEST JUMPDEST PUSH1 0x0 PUSH2 0x5019 DUP6 DUP3 DUP7 ADD PUSH2 0x3E2D JUMP JUMPDEST SWAP3 POP POP PUSH1 0x20 PUSH2 0x502A DUP6 DUP3 DUP7 ADD PUSH2 0x3E2D JUMP JUMPDEST SWAP2 POP POP SWAP3 POP SWAP3 SWAP1 POP JUMP JUMPDEST PUSH1 0x0 PUSH1 0xA0 DUP4 ADD PUSH1 0x0 DUP4 ADD MLOAD PUSH2 0x504C PUSH1 0x0 DUP7 ADD DUP3 PUSH2 0x4601 JUMP JUMPDEST POP PUSH1 0x20 DUP4 ADD MLOAD DUP5 DUP3 SUB PUSH1 0x20 DUP7 ADD MSTORE PUSH2 0x5064 DUP3 DUP3 PUSH2 0x4A45 JUMP JUMPDEST SWAP2 POP POP PUSH1 0x40 DUP4 ADD MLOAD DUP5 DUP3 SUB PUSH1 0x40 DUP7 ADD MSTORE PUSH2 0x507E DUP3 DUP3 PUSH2 0x4B3C JUMP JUMPDEST SWAP2 POP POP PUSH1 0x60 DUP4 ADD MLOAD DUP5 DUP3 SUB PUSH1 0x60 DUP7 ADD MSTORE PUSH2 0x5098 DUP3 DUP3 PUSH2 0x46EB JUMP JUMPDEST SWAP2 POP POP PUSH1 0x80 DUP4 ADD MLOAD PUSH2 0x50AD PUSH1 0x80 DUP7 ADD DUP3 PUSH2 0x4610 JUMP JUMPDEST POP DUP1 SWAP2 POP POP SWAP3 SWAP2 POP POP JUMP JUMPDEST PUSH1 0x0 PUSH1 0x20 DUP3 ADD SWAP1 POP DUP2 DUP2 SUB PUSH1 0x0 DUP4 ADD MSTORE PUSH2 0x50D2 DUP2 DUP5 PUSH2 0x5034 JUMP JUMPDEST SWAP1 POP SWAP3 SWAP2 POP POP JUMP JUMPDEST PUSH1 0x0 DUP1 PUSH1 0x40 DUP4 DUP6 SUB SLT ISZERO PUSH2 0x50F1 JUMPI PUSH2 0x50F0 PUSH2 0x3E02 JUMP JUMPDEST JUMPDEST PUSH1 0x0 PUSH2 0x50FF DUP6 DUP3 DUP7 ADD PUSH2 0x3E2D JUMP JUMPDEST SWAP3 POP POP PUSH1 0x20 PUSH2 0x5110 DUP6 DUP3 DUP7 ADD PUSH2 0x409B JUMP JUMPDEST SWAP2 POP POP SWAP3 POP SWAP3 SWAP1 POP JUMP JUMPDEST PUSH1 0x0 PUSH1 0x20 DUP3 DUP5 SUB SLT ISZERO PUSH2 0x5130 JUMPI PUSH2 0x512F PUSH2 0x3E02 JUMP JUMPDEST JUMPDEST PUSH1 0x0 DUP3 ADD CALLDATALOAD PUSH8 0xFFFFFFFFFFFFFFFF DUP2 GT ISZERO PUSH2 0x514E JUMPI PUSH2 0x514D PUSH2 0x3E07 JUMP JUMPDEST JUMPDEST PUSH2 0x515A DUP5 DUP3 DUP6 ADD PUSH2 0x4366 JUMP JUMPDEST SWAP2 POP POP SWAP3 SWAP2 POP POP JUMP JUMPDEST PUSH2 0x516C DUP2 PUSH2 0x3E0C JUMP JUMPDEST DUP3 MSTORE POP POP JUMP JUMPDEST PUSH1 0x0 PUSH1 0x20 DUP3 ADD SWAP1 POP PUSH2 0x5187 PUSH1 0x0 DUP4 ADD DUP5 PUSH2 0x5163 JUMP JUMPDEST SWAP3 SWAP2 POP POP JUMP JUMPDEST PUSH1 0x6 DUP2 LT PUSH2 0x519A JUMPI PUSH1 0x0 DUP1 REVERT JUMPDEST POP JUMP JUMPDEST PUSH1 0x0 DUP2 CALLDATALOAD SWAP1 POP PUSH2 0x51AC DUP2 PUSH2 0x518D JUMP JUMPDEST SWAP3 SWAP2 POP POP JUMP JUMPDEST PUSH1 0x0 DUP1 PUSH1 0x0 DUP1 PUSH1 0x0 PUSH1 0xA0 DUP7 DUP9 SUB SLT ISZERO PUSH2 0x51CE JUMPI PUSH2 0x51CD PUSH2 0x3E02 JUMP JUMPDEST JUMPDEST PUSH1 0x0 PUSH2 0x51DC DUP9 DUP3 DUP10 ADD PUSH2 0x3E2D JUMP JUMPDEST SWAP6 POP POP PUSH1 0x20 PUSH2 0x51ED DUP9 DUP3 DUP10 ADD PUSH2 0x3E2D JUMP JUMPDEST SWAP5 POP POP PUSH1 0x40 PUSH2 0x51FE DUP9 DUP3 DUP10 ADD PUSH2 0x3E2D JUMP JUMPDEST SWAP4 POP POP PUSH1 0x60 PUSH2 0x520F DUP9 DUP3 DUP10 ADD PUSH2 0x519D JUMP JUMPDEST SWAP3 POP POP PUSH1 0x80 PUSH2 0x5220 DUP9 DUP3 DUP10 ADD PUSH2 0x409B JUMP JUMPDEST SWAP2 POP POP SWAP3 SWAP6 POP SWAP3 SWAP6 SWAP1 SWAP4 POP JUMP JUMPDEST PUSH1 0x0 PUSH8 0xFFFFFFFFFFFFFFFF DUP3 GT ISZERO PUSH2 0x5248 JUMPI PUSH2 0x5247 PUSH2 0x3E58 JUMP JUMPDEST JUMPDEST PUSH1 0x20 DUP3 MUL SWAP1 POP PUSH1 0x20 DUP2 ADD SWAP1 POP SWAP2 SWAP1 POP JUMP JUMPDEST PUSH1 0x0 PUSH2 0x526C PUSH2 0x5267 DUP5 PUSH2 0x522D JUMP JUMPDEST PUSH2 0x3EB8 JUMP JUMPDEST SWAP1 POP DUP1 DUP4 DUP3 MSTORE PUSH1 0x20 DUP3 ADD SWAP1 POP PUSH1 0x20 DUP5 MUL DUP4 ADD DUP6 DUP2 GT ISZERO PUSH2 0x528F JUMPI PUSH2 0x528E PUSH2 0x3FBE JUMP JUMPDEST JUMPDEST DUP4 JUMPDEST DUP2 DUP2 LT ISZERO PUSH2 0x52B8 JUMPI DUP1 PUSH2 0x52A4 DUP9 DUP3 PUSH2 0x3E2D JUMP JUMPDEST DUP5 MSTORE PUSH1 0x20 DUP5 ADD SWAP4 POP POP PUSH1 0x20 DUP2 ADD SWAP1 POP PUSH2 0x5291 JUMP JUMPDEST POP POP POP SWAP4 SWAP3 POP POP POP JUMP JUMPDEST PUSH1 0x0 DUP3 PUSH1 0x1F DUP4 ADD SLT PUSH2 0x52D7 JUMPI PUSH2 0x52D6 PUSH2 0x3ED8 JUMP JUMPDEST JUMPDEST DUP2 CALLDATALOAD PUSH2 0x52E7 DUP5 DUP3 PUSH1 0x20 DUP7 ADD PUSH2 0x5259 JUMP JUMPDEST SWAP2 POP POP SWAP3 SWAP2 POP POP JUMP JUMPDEST PUSH2 0x52F9 DUP2 PUSH2 0x45EF JUMP JUMPDEST DUP2 EQ PUSH2 0x5304 JUMPI PUSH1 0x0 DUP1 REVERT JUMPDEST POP JUMP JUMPDEST PUSH1 0x0 DUP2 CALLDATALOAD SWAP1 POP PUSH2 0x5316 DUP2 PUSH2 0x52F0 JUMP JUMPDEST SWAP3 SWAP2 POP POP JUMP JUMPDEST PUSH1 0x0 DUP1 PUSH1 0x0 DUP1 PUSH1 0x80 DUP6 DUP8 SUB SLT ISZERO PUSH2 0x5336 JUMPI PUSH2 0x5335 PUSH2 0x3E02 JUMP JUMPDEST JUMPDEST PUSH1 0x0 PUSH2 0x5344 DUP8 DUP3 DUP9 ADD PUSH2 0x3E2D JUMP JUMPDEST SWAP5 POP POP PUSH1 0x20 DUP6 ADD CALLDATALOAD PUSH8 0xFFFFFFFFFFFFFFFF DUP2 GT ISZERO PUSH2 0x5365 JUMPI PUSH2 0x5364 PUSH2 0x3E07 JUMP JUMPDEST JUMPDEST PUSH2 0x5371 DUP8 DUP3 DUP9 ADD PUSH2 0x52C2 JUMP JUMPDEST SWAP4 POP POP PUSH1 0x40 PUSH2 0x5382 DUP8 DUP3 DUP9 ADD PUSH2 0x3E2D JUMP JUMPDEST SWAP3 POP POP PUSH1 0x60 PUSH2 0x5393 DUP8 DUP3 DUP9 ADD PUSH2 0x5307 JUMP JUMPDEST SWAP2 POP POP SWAP3 SWAP6 SWAP2 SWAP5 POP SWAP3 POP JUMP JUMPDEST PUSH1 0x0 DUP1 PUSH1 0x0 DUP1 PUSH1 0x0 PUSH1 0xA0 DUP7 DUP9 SUB SLT ISZERO PUSH2 0x53BB JUMPI PUSH2 0x53BA PUSH2 0x3E02 JUMP JUMPDEST JUMPDEST PUSH1 0x0 PUSH2 0x53C9 DUP9 DUP3 DUP10 ADD PUSH2 0x3E2D JUMP JUMPDEST SWAP6 POP POP PUSH1 0x20 PUSH2 0x53DA DUP9 DUP3 DUP10 ADD PUSH2 0x3E2D JUMP JUMPDEST SWAP5 POP POP PUSH1 0x40 PUSH2 0x53EB DUP9 DUP3 DUP10 ADD PUSH2 0x3E2D JUMP JUMPDEST SWAP4 POP POP PUSH1 0x60 DUP7 ADD CALLDATALOAD PUSH8 0xFFFFFFFFFFFFFFFF DUP2 GT ISZERO PUSH2 0x540C JUMPI PUSH2 0x540B PUSH2 0x3E07 JUMP JUMPDEST JUMPDEST PUSH2 0x5418 DUP9 DUP3 DUP10 ADD PUSH2 0x3F64 JUMP JUMPDEST SWAP3 POP POP PUSH1 0x80 PUSH2 0x5429 DUP9 DUP3 DUP10 ADD PUSH2 0x409B JUMP JUMPDEST SWAP2 POP POP SWAP3 SWAP6 POP SWAP3 SWAP6 SWAP1 SWAP4 POP JUMP JUMPDEST PUSH1 0x0 DUP1 PUSH1 0x0 PUSH1 0x60 DUP5 DUP7 SUB SLT ISZERO PUSH2 0x544F JUMPI PUSH2 0x544E PUSH2 0x3E02 JUMP JUMPDEST JUMPDEST PUSH1 0x0 PUSH2 0x545D DUP7 DUP3 DUP8 ADD PUSH2 0x3E2D JUMP JUMPDEST SWAP4 POP POP PUSH1 0x20 PUSH2 0x546E DUP7 DUP3 DUP8 ADD PUSH2 0x3E2D JUMP JUMPDEST SWAP3 POP POP PUSH1 0x40 PUSH2 0x547F DUP7 DUP3 DUP8 ADD PUSH2 0x3E2D JUMP JUMPDEST SWAP2 POP POP SWAP3 POP SWAP3 POP SWAP3 JUMP JUMPDEST PUSH1 0x0 DUP1 PUSH1 0x0 PUSH1 0x60 DUP5 DUP7 SUB SLT ISZERO PUSH2 0x54A2 JUMPI PUSH2 0x54A1 PUSH2 0x3E02 JUMP JUMPDEST JUMPDEST PUSH1 0x0 PUSH2 0x54B0 DUP7 DUP3 DUP8 ADD PUSH2 0x3E2D JUMP JUMPDEST SWAP4 POP POP PUSH1 0x20 PUSH2 0x54C1 DUP7 DUP3 DUP8 ADD PUSH2 0x3E2D JUMP JUMPDEST SWAP3 POP POP PUSH1 0x40 PUSH2 0x54D2 DUP7 DUP3 DUP8 ADD PUSH2 0x409B JUMP JUMPDEST SWAP2 POP POP SWAP3 POP SWAP3 POP SWAP3 JUMP JUMPDEST PUSH1 0x0 DUP3 DUP3 MSTORE PUSH1 0x20 DUP3 ADD SWAP1 POP SWAP3 SWAP2 POP POP JUMP JUMPDEST PUSH1 0x0 PUSH2 0x54F8 DUP3 PUSH2 0x49F4 JUMP JUMPDEST PUSH2 0x5502 DUP2 DUP6 PUSH2 0x54DC JUMP JUMPDEST SWAP4 POP PUSH2 0x550D DUP4 PUSH2 0x4A10 JUMP JUMPDEST DUP1 PUSH1 0x0 JUMPDEST DUP4 DUP2 LT ISZERO PUSH2 0x553E JUMPI DUP2 MLOAD PUSH2 0x5525 DUP9 DUP3 PUSH2 0x4A20 JUMP JUMPDEST SWAP8 POP PUSH2 0x5530 DUP4 PUSH2 0x4A38 JUMP JUMPDEST SWAP3 POP POP PUSH1 0x1 DUP2 ADD SWAP1 POP PUSH2 0x5511 JUMP JUMPDEST POP DUP6 SWAP4 POP POP POP POP SWAP3 SWAP2 POP POP JUMP JUMPDEST PUSH1 0x0 PUSH1 0x40 DUP3 ADD SWAP1 POP DUP2 DUP2 SUB PUSH1 0x0 DUP4 ADD MSTORE PUSH2 0x5565 DUP2 DUP6 PUSH2 0x54ED JUMP JUMPDEST SWAP1 POP PUSH2 0x5574 PUSH1 0x20 DUP4 ADD DUP5 PUSH2 0x5163 JUMP JUMPDEST SWAP4 SWAP3 POP POP POP JUMP JUMPDEST PUSH1 0x6 DUP2 LT PUSH2 0x5588 JUMPI PUSH1 0x0 DUP1 REVERT JUMPDEST POP JUMP JUMPDEST PUSH1 0x0 DUP2 CALLDATALOAD SWAP1 POP PUSH2 0x559A DUP2 PUSH2 0x557B JUMP JUMPDEST SWAP3 SWAP2 POP POP JUMP JUMPDEST PUSH1 0x0 DUP1 PUSH1 0x40 DUP4 DUP6 SUB SLT ISZERO PUSH2 0x55B7 JUMPI PUSH2 0x55B6 PUSH2 0x3E02 JUMP JUMPDEST JUMPDEST PUSH1 0x0 PUSH2 0x55C5 DUP6 DUP3 DUP7 ADD PUSH2 0x3E2D JUMP JUMPDEST SWAP3 POP POP PUSH1 0x20 PUSH2 0x55D6 DUP6 DUP3 DUP7 ADD PUSH2 0x558B JUMP JUMPDEST SWAP2 POP POP SWAP3 POP SWAP3 SWAP1 POP JUMP JUMPDEST PUSH32 0x4E487B7100000000000000000000000000000000000000000000000000000000 PUSH1 0x0 MSTORE PUSH1 0x22 PUSH1 0x4 MSTORE PUSH1 0x24 PUSH1 0x0 REVERT JUMPDEST PUSH1 0x0 PUSH1 0x2 DUP3 DIV SWAP1 POP PUSH1 0x1 DUP3 AND DUP1 PUSH2 0x5627 JUMPI PUSH1 0x7F DUP3 AND SWAP2 POP JUMPDEST PUSH1 0x20 DUP3 LT DUP2 SUB PUSH2 0x563A JUMPI PUSH2 0x5639 PUSH2 0x55E0 JUMP JUMPDEST JUMPDEST POP SWAP2 SWAP1 POP JUMP JUMPDEST PUSH1 0x0 DUP2 SWAP1 POP DUP2 PUSH1 0x0 MSTORE PUSH1 0x20 PUSH1 0x0 KECCAK256 SWAP1 POP SWAP2 SWAP1 POP JUMP JUMPDEST PUSH1 0x0 PUSH1 0x20 PUSH1 0x1F DUP4 ADD DIV SWAP1 POP SWAP2 SWAP1 POP JUMP JUMPDEST PUSH1 0x0 DUP3 DUP3 SHL SWAP1 POP SWAP3 SWAP2 POP POP JUMP JUMPDEST PUSH1 0x0 PUSH1 0x8 DUP4 MUL PUSH2 0x56A2 PUSH32 0xFFFFFFFFFFFFFFFFFFFFFFFFFFFFFFFFFFFFFFFFFFFFFFFFFFFFFFFFFFFFFFFF DUP3 PUSH2 0x5665 JUMP JUMPDEST PUSH2 0x56AC DUP7 DUP4 PUSH2 0x5665 JUMP JUMPDEST SWAP6 POP DUP1 NOT DUP5 AND SWAP4 POP DUP1 DUP7 AND DUP5 OR SWAP3 POP POP POP SWAP4 SWAP3 POP POP POP JUMP JUMPDEST PUSH1 0x0 DUP2 SWAP1 POP SWAP2 SWAP1 POP JUMP JUMPDEST PUSH1 0x0 PUSH2 0x56E9 PUSH2 0x56E4 PUSH2 0x56DF DUP5 PUSH2 0x3E0C JUMP JUMPDEST PUSH2 0x56C4 JUMP JUMPDEST PUSH2 0x3E0C JUMP JUMPDEST SWAP1 POP SWAP2 SWAP1 POP JUMP JUMPDEST PUSH1 0x0 DUP2 SWAP1 POP SWAP2 SWAP1 POP JUMP JUMPDEST PUSH2 0x5703 DUP4 PUSH2 0x56CE JUMP JUMPDEST PUSH2 0x5717 PUSH2 0x570F DUP3 PUSH2 0x56F0 JUMP JUMPDEST DUP5 DUP5 SLOAD PUSH2 0x5672 JUMP JUMPDEST DUP3 SSTORE POP POP POP POP JUMP JUMPDEST PUSH1 0x0 SWAP1 JUMP JUMPDEST PUSH2 0x572C PUSH2 0x571F JUMP JUMPDEST PUSH2 0x5737 DUP2 DUP5 DUP5 PUSH2 0x56FA JUMP JUMPDEST POP POP POP JUMP JUMPDEST JUMPDEST DUP2 DUP2 LT ISZERO PUSH2 0x575B JUMPI PUSH2 0x5750 PUSH1 0x0 DUP3 PUSH2 0x5724 JUMP JUMPDEST PUSH1 0x1 DUP2 ADD SWAP1 POP PUSH2 0x573D JUMP JUMPDEST POP POP JUMP JUMPDEST PUSH1 0x1F DUP3 GT ISZERO PUSH2 0x57A0 JUMPI PUSH2 0x5771 DUP2 PUSH2 0x5640 JUMP JUMPDEST PUSH2 0x577A DUP5 PUSH2 0x5655 JUMP JUMPDEST DUP2 ADD PUSH1 0x20 DUP6 LT ISZERO PUSH2 0x5789 JUMPI DUP2 SWAP1 POP JUMPDEST PUSH2 0x579D PUSH2 0x5795 DUP6 PUSH2 0x5655 JUMP JUMPDEST DUP4 ADD DUP3 PUSH2 0x573C JUMP JUMPDEST POP POP JUMPDEST POP POP POP JUMP JUMPDEST PUSH1 0x0 DUP3 DUP3 SHR SWAP1 POP SWAP3 SWAP2 POP POP JUMP JUMPDEST PUSH1 0x0 PUSH2 0x57C3 PUSH1 0x0 NOT DUP5 PUSH1 0x8 MUL PUSH2 0x57A5 JUMP JUMPDEST NOT DUP1 DUP4 AND SWAP2 POP POP SWAP3 SWAP2 POP POP JUMP JUMPDEST PUSH1 0x0 PUSH2 0x57DC DUP4 DUP4 PUSH2 0x57B2 JUMP JUMPDEST SWAP2 POP DUP3 PUSH1 0x2 MUL DUP3 OR SWAP1 POP SWAP3 SWAP2 POP POP JUMP JUMPDEST PUSH2 0x57F5 DUP3 PUSH2 0x461F JUMP JUMPDEST PUSH8 0xFFFFFFFFFFFFFFFF DUP2 GT ISZERO PUSH2 0x580E JUMPI PUSH2 0x580D PUSH2 0x3E58 JUMP JUMPDEST JUMPDEST PUSH2 0x5818 DUP3 SLOAD PUSH2 0x560F JUMP JUMPDEST PUSH2 0x5823 DUP3 DUP3 DUP6 PUSH2 0x575F JUMP JUMPDEST PUSH1 0x0 PUSH1 0x20 SWAP1 POP PUSH1 0x1F DUP4 GT PUSH1 0x1 DUP2 EQ PUSH2 0x5856 JUMPI PUSH1 0x0 DUP5 ISZERO PUSH2 0x5844 JUMPI DUP3 DUP8 ADD MLOAD SWAP1 POP JUMPDEST PUSH2 0x584E DUP6 DUP3 PUSH2 0x57D0 JUMP JUMPDEST DUP7 SSTORE POP PUSH2 0x58B6 JUMP JUMPDEST PUSH1 0x1F NOT DUP5 AND PUSH2 0x5864 DUP7 PUSH2 0x5640 JUMP JUMPDEST PUSH1 0x0 JUMPDEST DUP3 DUP2 LT ISZERO PUSH2 0x588C JUMPI DUP5 DUP10 ADD MLOAD DUP3 SSTORE PUSH1 0x1 DUP3 ADD SWAP2 POP PUSH1 0x20 DUP6 ADD SWAP5 POP PUSH1 0x20 DUP2 ADD SWAP1 POP PUSH2 0x5867 JUMP JUMPDEST DUP7 DUP4 LT ISZERO PUSH2 0x58A9 JUMPI DUP5 DUP10 ADD MLOAD PUSH2 0x58A5 PUSH1 0x1F DUP10 AND DUP3 PUSH2 0x57B2 JUMP JUMPDEST DUP4 SSTORE POP JUMPDEST PUSH1 0x1 PUSH1 0x2 DUP9 MUL ADD DUP9 SSTORE POP POP POP JUMPDEST POP POP POP POP POP POP JUMP JUMPDEST PUSH32 0x4E487B7100000000000000000000000000000000000000000000000000000000 PUSH1 0x0 MSTORE PUSH1 0x32 PUSH1 0x4 MSTORE PUSH1 0x24 PUSH1 0x0 REVERT JUMPDEST PUSH32 0x4E487B7100000000000000000000000000000000000000000000000000000000 PUSH1 0x0 MSTORE PUSH1 0x11 PUSH1 0x4 MSTORE PUSH1 0x24 PUSH1 0x0 REVERT JUMPDEST PUSH1 0x0 PUSH2 0x5927 DUP3 PUSH2 0x3E0C JUMP JUMPDEST SWAP2 POP PUSH32 0xFFFFFFFFFFFFFFFFFFFFFFFFFFFFFFFFFFFFFFFFFFFFFFFFFFFFFFFFFFFFFFFF DUP3 SUB PUSH2 0x5959 JUMPI PUSH2 0x5958 PUSH2 0x58ED JUMP JUMPDEST JUMPDEST PUSH1 0x1 DUP3 ADD SWAP1 POP SWAP2 SWAP1 POP JUMP JUMPDEST PUSH1 0x0 PUSH2 0x596F DUP3 PUSH2 0x3E0C JUMP JUMPDEST SWAP2 POP PUSH2 0x597A DUP4 PUSH2 0x3E0C JUMP JUMPDEST SWAP3 POP DUP3 DUP3 SUB SWAP1 POP DUP2 DUP2 GT ISZERO PUSH2 0x5992 JUMPI PUSH2 0x5991 PUSH2 0x58ED JUMP JUMPDEST JUMPDEST SWAP3 SWAP2 POP POP JUMP JUMPDEST PUSH1 0x0 PUSH2 0x59A3 DUP3 PUSH2 0x3E0C JUMP JUMPDEST SWAP2 POP PUSH2 0x59AE DUP4 PUSH2 0x3E0C JUMP JUMPDEST SWAP3 POP DUP3 DUP3 ADD SWAP1 POP DUP1 DUP3 GT ISZERO PUSH2 0x59C6 JUMPI PUSH2 0x59C5 PUSH2 0x58ED JUMP JUMPDEST JUMPDEST SWAP3 SWAP2 POP POP JUMP JUMPDEST PUSH32 0x4E487B7100000000000000000000000000000000000000000000000000000000 PUSH1 0x0 MSTORE PUSH1 0x12 PUSH1 0x4 MSTORE PUSH1 0x24 PUSH1 0x0 REVERT JUMPDEST PUSH1 0x0 PUSH2 0x5A06 DUP3 PUSH2 0x3E0C JUMP JUMPDEST SWAP2 POP PUSH2 0x5A11 DUP4 PUSH2 0x3E0C JUMP JUMPDEST SWAP3 POP DUP3 PUSH2 0x5A21 JUMPI PUSH2 0x5A20 PUSH2 0x59CC JUMP JUMPDEST JUMPDEST DUP3 DUP3 DIV SWAP1 POP SWAP3 SWAP2 POP POP JUMP JUMPDEST PUSH1 0x0 PUSH2 0x5A37 DUP3 PUSH2 0x3E0C JUMP JUMPDEST SWAP2 POP PUSH2 0x5A42 DUP4 PUSH2 0x3E0C JUMP JUMPDEST SWAP3 POP DUP3 DUP3 MUL PUSH2 0x5A50 DUP2 PUSH2 0x3E0C JUMP JUMPDEST SWAP2 POP DUP3 DUP3 DIV DUP5 EQ DUP4 ISZERO OR PUSH2 0x5A67 JUMPI PUSH2 0x5A66 PUSH2 0x58ED JUMP JUMPDEST JUMPDEST POP SWAP3 SWAP2 POP POP JUMP INVALID LOG2 PUSH5 0x6970667358 0x22 SLT KECCAK256 RETURNDATASIZE LOG1 SWAP6 PUSH24 0xFC371F033FD7A6E2115A15BBC5E4CD64EDA8E973903EE2F4 CREATE CALLDATALOAD 0xB7 0xBD PUSH5 0x736F6C6343 STOP ADDMOD GT STOP CALLER "
		},
		"gasEstimates": {
			"creation": {
				"codeDepositCost": "4640800",
				"executionCost": "5436",
				"totalCost": "4646236"
			},
			"external": {
				"acceptTrans(uint256,uint256,uint256)": "infinite",
				"acceptTrans(uint256,uint256[],uint256,address)": "infinite",
				"acceptVf(uint256,uint256,uint256)": "infinite",
				"acceptVf(uint256,uint256[],uint256,address)": "infinite",
				"addProject((uint256,string,string,uint256,string,string,string[],uint256,uint256,bool,bool,uint256,((string,uint256,uint256,uint256,uint256,uint256,string),uint256,string,uint8,uint256)[]))": "infinite",
				"closeTransAccept(uint256)": "24846",
				"closeVfAccept(uint256)": "24852",
				"deductBounty(uint256,uint256,uint256,bool)": "infinite",
				"getCount()": "2460",
				"getProject(uint256)": "infinite",
				"getProjectOne(uint256)": "infinite",
				"getTransNumber(uint256)": "infinite",
				"getTranslators(uint256,uint256)": "infinite",
				"getVerifiers(uint256,uint256)": "infinite",
				"getVfNumber(uint256)": "infinite",
				"isCustomizeState(uint256)": "2990",
				"isFull(uint256,bool)": "infinite",
				"openTransAccept(uint256)": "24825",
				"openVfAccept(uint256)": "24874",
				"overTimeTasker(uint256,uint256,bool)": "infinite",
				"updateFileInfo(uint256,uint256,uint256,string,bool)": "infinite",
				"updateFileStateAndTime(uint256,uint256,uint8)": "infinite",
				"updateProject(uint256,(uint256,string,string,uint256,string,string,string[],uint256,uint256,bool,bool,uint256,((string,uint256,uint256,uint256,uint256,uint256,string),uint256,string,uint8,uint256)[]))": "infinite",
				"updateState(uint256,uint8)": "25067",
				"updateTaskerState(uint256,uint256,uint256,uint8,bool)": "infinite"
			},
			"internal": {
				"_addCount()": "24366"
			}
		},
		"methodIdentifiers": {
			"acceptTrans(uint256,uint256,uint256)": "c39a6bcc",
			"acceptTrans(uint256,uint256[],uint256,address)": "9ec44abc",
			"acceptVf(uint256,uint256,uint256)": "cfab9d91",
			"acceptVf(uint256,uint256[],uint256,address)": "a7788567",
			"addProject((uint256,string,string,uint256,string,string,string[],uint256,uint256,bool,bool,uint256,((string,uint256,uint256,uint256,uint256,uint256,string),uint256,string,uint8,uint256)[]))": "8f1844bc",
			"closeTransAccept(uint256)": "ea60f28c",
			"closeVfAccept(uint256)": "df3a726f",
			"deductBounty(uint256,uint256,uint256,bool)": "7fae5cd3",
			"getCount()": "a87d942c",
			"getProject(uint256)": "f0f3f2c8",
			"getProjectOne(uint256)": "25e78e70",
			"getTransNumber(uint256)": "d2fed69c",
			"getTranslators(uint256,uint256)": "84800370",
			"getVerifiers(uint256,uint256)": "be7603c7",
			"getVfNumber(uint256)": "f8626ebb",
			"isCustomizeState(uint256)": "7c34eb85",
			"isFull(uint256,bool)": "8a9a9ff3",
			"openTransAccept(uint256)": "4fb36606",
			"openVfAccept(uint256)": "e6cfdf1f",
			"overTimeTasker(uint256,uint256,bool)": "eef10ae6",
			"updateFileInfo(uint256,uint256,uint256,string,bool)": "ae6008e3",
			"updateFileStateAndTime(uint256,uint256,uint8)": "62583a28",
			"updateProject(uint256,(uint256,string,string,uint256,string,string,string[],uint256,uint256,bool,bool,uint256,((string,uint256,uint256,uint256,uint256,uint256,string),uint256,string,uint8,uint256)[]))": "03faeb21",
			"updateState(uint256,uint8)": "ffbafdfe",
			"updateTaskerState(uint256,uint256,uint256,uint8,bool)": "8fa49f84"
		}
	},
	"abi": [
		{
			"inputs": [
				{
					"internalType": "uint256",
					"name": "_index",
					"type": "uint256"
				},
				{
					"internalType": "uint256[]",
					"name": "_fileIndex",
					"type": "uint256[]"
				},
				{
					"internalType": "uint256",
					"name": "_taskerIndex",
					"type": "uint256"
				},
				{
					"internalType": "address",
					"name": "_tasker",
					"type": "address"
				}
			],
			"name": "acceptTrans",
			"outputs": [],
			"stateMutability": "nonpayable",
			"type": "function"
		},
		{
			"inputs": [
				{
					"internalType": "uint256",
					"name": "_index",
					"type": "uint256"
				},
				{
					"internalType": "uint256",
					"name": "_fileIndex",
					"type": "uint256"
				},
				{
					"internalType": "uint256",
					"name": "_taskerIndex",
					"type": "uint256"
				}
			],
			"name": "acceptTrans",
			"outputs": [],
			"stateMutability": "nonpayable",
			"type": "function"
		},
		{
			"inputs": [
				{
					"internalType": "uint256",
					"name": "_index",
					"type": "uint256"
				},
				{
					"internalType": "uint256[]",
					"name": "_fileIndex",
					"type": "uint256[]"
				},
				{
					"internalType": "uint256",
					"name": "_taskerIndex",
					"type": "uint256"
				},
				{
					"internalType": "address",
					"name": "_tasker",
					"type": "address"
				}
			],
			"name": "acceptVf",
			"outputs": [],
			"stateMutability": "nonpayable",
			"type": "function"
		},
		{
			"inputs": [
				{
					"internalType": "uint256",
					"name": "_index",
					"type": "uint256"
				},
				{
					"internalType": "uint256",
					"name": "_fileIndex",
					"type": "uint256"
				},
				{
					"internalType": "uint256",
					"name": "_taskerIndex",
					"type": "uint256"
				}
			],
			"name": "acceptVf",
			"outputs": [],
			"stateMutability": "nonpayable",
			"type": "function"
		},
		{
			"inputs": [
				{
					"components": [
						{
							"internalType": "uint256",
							"name": "releaseTime",
							"type": "uint256"
						},
						{
							"internalType": "string",
							"name": "introduce",
							"type": "string"
						},
						{
							"internalType": "string",
							"name": "need",
							"type": "string"
						},
						{
							"internalType": "uint256",
							"name": "deadline",
							"type": "uint256"
						},
						{
							"internalType": "string",
							"name": "sourceLanguage",
							"type": "string"
						},
						{
							"internalType": "string",
							"name": "goalLanguage",
							"type": "string"
						},
						{
							"internalType": "string[]",
							"name": "preferList",
							"type": "string[]"
						},
						{
							"internalType": "uint256",
							"name": "translationType",
							"type": "uint256"
						},
						{
							"internalType": "uint256",
							"name": "workLoad",
							"type": "uint256"
						},
						{
							"internalType": "bool",
							"name": "isNonDisclosure",
							"type": "bool"
						},
						{
							"internalType": "bool",
							"name": "isCustomize",
							"type": "bool"
						},
						{
							"internalType": "uint256",
							"name": "bounty",
							"type": "uint256"
						},
						{
							"components": [
								{
									"components": [
										{
											"internalType": "string",
											"name": "name",
											"type": "string"
										},
										{
											"internalType": "uint256",
											"name": "size",
											"type": "uint256"
										},
										{
											"internalType": "uint256",
											"name": "videoLength",
											"type": "uint256"
										},
										{
											"internalType": "uint256",
											"name": "Page",
											"type": "uint256"
										},
										{
											"internalType": "uint256",
											"name": "words",
											"type": "uint256"
										},
										{
											"internalType": "uint256",
											"name": "fileType",
											"type": "uint256"
										},
										{
											"internalType": "string",
											"name": "path",
											"type": "string"
										}
									],
									"internalType": "struct LibProject.FileInfo",
									"name": "file",
									"type": "tuple"
								},
								{
									"internalType": "uint256",
									"name": "bounty",
									"type": "uint256"
								},
								{
									"internalType": "string",
									"name": "info",
									"type": "string"
								},
								{
									"internalType": "enum LibProject.FileState",
									"name": "state",
									"type": "uint8"
								},
								{
									"internalType": "uint256",
									"name": "lastUpload",
									"type": "uint256"
								}
							],
							"internalType": "struct LibProject.TaskInfo[]",
							"name": "tasks",
							"type": "tuple[]"
						}
					],
					"internalType": "struct LibProject.ProParm",
					"name": "_t",
					"type": "tuple"
				}
			],
			"name": "addProject",
			"outputs": [
				{
					"internalType": "uint256",
					"name": "",
					"type": "uint256"
				}
			],
			"stateMutability": "nonpayable",
			"type": "function"
		},
		{
			"inputs": [
				{
					"internalType": "uint256",
					"name": "_index",
					"type": "uint256"
				}
			],
			"name": "closeTransAccept",
			"outputs": [],
			"stateMutability": "nonpayable",
			"type": "function"
		},
		{
			"inputs": [
				{
					"internalType": "uint256",
					"name": "_index",
					"type": "uint256"
				}
			],
			"name": "closeVfAccept",
			"outputs": [],
			"stateMutability": "nonpayable",
			"type": "function"
		},
		{
			"inputs": [
				{
					"internalType": "uint256",
					"name": "_index",
					"type": "uint256"
				},
				{
					"internalType": "uint256",
					"name": "_taskerIndex",
					"type": "uint256"
				},
				{
					"internalType": "uint256",
					"name": "_money",
					"type": "uint256"
				},
				{
					"internalType": "bool",
					"name": "_isTrans",
					"type": "bool"
				}
			],
			"name": "deductBounty",
			"outputs": [],
			"stateMutability": "nonpayable",
			"type": "function"
		},
		{
			"inputs": [],
			"name": "getCount",
			"outputs": [
				{
					"internalType": "uint256",
					"name": "",
					"type": "uint256"
				}
			],
			"stateMutability": "view",
			"type": "function"
		},
		{
			"inputs": [
				{
					"internalType": "uint256",
					"name": "_index",
					"type": "uint256"
				}
			],
			"name": "getProject",
			"outputs": [
				{
					"components": [
						{
							"internalType": "address",
							"name": "buyer",
							"type": "address"
						},
						{
							"internalType": "uint256",
							"name": "releaseTime",
							"type": "uint256"
						},
						{
							"internalType": "string",
							"name": "introduce",
							"type": "string"
						},
						{
							"internalType": "string",
							"name": "need",
							"type": "string"
						},
						{
							"internalType": "uint256",
							"name": "deadline",
							"type": "uint256"
						},
						{
							"internalType": "string",
							"name": "sourceLanguage",
							"type": "string"
						},
						{
							"internalType": "string",
							"name": "goalLanguage",
							"type": "string"
						},
						{
							"internalType": "string[]",
							"name": "preferList",
							"type": "string[]"
						},
						{
							"internalType": "uint256",
							"name": "translationType",
							"type": "uint256"
						},
						{
							"internalType": "uint256",
							"name": "workLoad",
							"type": "uint256"
						},
						{
							"internalType": "bool",
							"name": "isNonDisclosure",
							"type": "bool"
						},
						{
							"internalType": "bool",
							"name": "isCustomize",
							"type": "bool"
						},
						{
							"internalType": "uint256",
							"name": "bounty",
							"type": "uint256"
						},
						{
							"components": [
								{
									"components": [
										{
											"internalType": "string",
											"name": "name",
											"type": "string"
										},
										{
											"internalType": "uint256",
											"name": "size",
											"type": "uint256"
										},
										{
											"internalType": "uint256",
											"name": "videoLength",
											"type": "uint256"
										},
										{
											"internalType": "uint256",
											"name": "Page",
											"type": "uint256"
										},
										{
											"internalType": "uint256",
											"name": "words",
											"type": "uint256"
										},
										{
											"internalType": "uint256",
											"name": "fileType",
											"type": "uint256"
										},
										{
											"internalType": "string",
											"name": "path",
											"type": "string"
										}
									],
									"internalType": "struct LibProject.FileInfo",
									"name": "file",
									"type": "tuple"
								},
								{
									"internalType": "uint256",
									"name": "bounty",
									"type": "uint256"
								},
								{
									"internalType": "string",
									"name": "info",
									"type": "string"
								},
								{
									"internalType": "enum LibProject.FileState",
									"name": "state",
									"type": "uint8"
								},
								{
									"internalType": "uint256",
									"name": "lastUpload",
									"type": "uint256"
								}
							],
							"internalType": "struct LibProject.TaskInfo[]",
							"name": "tasks",
							"type": "tuple[]"
						},
						{
							"components": [
								{
									"internalType": "address",
									"name": "taskerAddress",
									"type": "address"
								},
								{
									"internalType": "uint256[]",
									"name": "taskIndex",
									"type": "uint256[]"
								},
								{
									"internalType": "enum LibProject.TaskerState[]",
									"name": "states",
									"type": "uint8[]"
								},
								{
									"internalType": "string[]",
									"name": "files",
									"type": "string[]"
								},
								{
									"internalType": "uint256",
									"name": "bounty",
									"type": "uint256"
								}
							],
							"internalType": "struct LibProject.Tasker[]",
							"name": "translators",
							"type": "tuple[]"
						},
						{
							"components": [
								{
									"internalType": "address",
									"name": "taskerAddress",
									"type": "address"
								},
								{
									"internalType": "uint256[]",
									"name": "taskIndex",
									"type": "uint256[]"
								},
								{
									"internalType": "enum LibProject.TaskerState[]",
									"name": "states",
									"type": "uint8[]"
								},
								{
									"internalType": "string[]",
									"name": "files",
									"type": "string[]"
								},
								{
									"internalType": "uint256",
									"name": "bounty",
									"type": "uint256"
								}
							],
							"internalType": "struct LibProject.Tasker[]",
							"name": "verifiers",
							"type": "tuple[]"
						},
						{
							"internalType": "uint256",
							"name": "maxT",
							"type": "uint256"
						},
						{
							"internalType": "uint256",
							"name": "maxV",
							"type": "uint256"
						},
						{
							"internalType": "bool",
							"name": "isTransActive",
							"type": "bool"
						},
						{
							"internalType": "bool",
							"name": "isVerActive",
							"type": "bool"
						},
						{
							"internalType": "enum LibProject.ProjectState",
							"name": "state",
							"type": "uint8"
						}
					],
					"internalType": "struct LibProject.TranslationPro",
					"name": "",
					"type": "tuple"
				}
			],
			"stateMutability": "view",
			"type": "function"
		},
		{
			"inputs": [
				{
					"internalType": "uint256",
					"name": "_index",
					"type": "uint256"
				}
			],
			"name": "getProjectOne",
			"outputs": [
				{
					"components": [
						{
							"internalType": "address",
							"name": "buyer",
							"type": "address"
						},
						{
							"internalType": "uint256",
							"name": "releaseTime",
							"type": "uint256"
						},
						{
							"internalType": "string",
							"name": "introduce",
							"type": "string"
						},
						{
							"internalType": "string",
							"name": "need",
							"type": "string"
						},
						{
							"internalType": "uint256",
							"name": "deadline",
							"type": "uint256"
						},
						{
							"internalType": "string",
							"name": "sourceLanguage",
							"type": "string"
						},
						{
							"internalType": "string",
							"name": "goalLanguage",
							"type": "string"
						},
						{
							"internalType": "string[]",
							"name": "preferList",
							"type": "string[]"
						},
						{
							"internalType": "uint256",
							"name": "translationType",
							"type": "uint256"
						},
						{
							"internalType": "uint256",
							"name": "workLoad",
							"type": "uint256"
						},
						{
							"internalType": "bool",
							"name": "isNonDisclosure",
							"type": "bool"
						},
						{
							"internalType": "bool",
							"name": "isCustomize",
							"type": "bool"
						},
						{
							"internalType": "uint256",
							"name": "bounty",
							"type": "uint256"
						},
						{
							"components": [
								{
									"components": [
										{
											"internalType": "string",
											"name": "name",
											"type": "string"
										},
										{
											"internalType": "uint256",
											"name": "size",
											"type": "uint256"
										},
										{
											"internalType": "uint256",
											"name": "videoLength",
											"type": "uint256"
										},
										{
											"internalType": "uint256",
											"name": "Page",
											"type": "uint256"
										},
										{
											"internalType": "uint256",
											"name": "words",
											"type": "uint256"
										},
										{
											"internalType": "uint256",
											"name": "fileType",
											"type": "uint256"
										},
										{
											"internalType": "string",
											"name": "path",
											"type": "string"
										}
									],
									"internalType": "struct LibProject.FileInfo",
									"name": "file",
									"type": "tuple"
								},
								{
									"internalType": "uint256",
									"name": "bounty",
									"type": "uint256"
								},
								{
									"internalType": "string",
									"name": "info",
									"type": "string"
								},
								{
									"internalType": "enum LibProject.FileState",
									"name": "state",
									"type": "uint8"
								},
								{
									"internalType": "uint256",
									"name": "lastUpload",
									"type": "uint256"
								}
							],
							"internalType": "struct LibProject.TaskInfo[]",
							"name": "tasks",
							"type": "tuple[]"
						},
						{
							"components": [
								{
									"internalType": "address",
									"name": "taskerAddress",
									"type": "address"
								},
								{
									"internalType": "uint256[]",
									"name": "taskIndex",
									"type": "uint256[]"
								},
								{
									"internalType": "enum LibProject.TaskerState[]",
									"name": "states",
									"type": "uint8[]"
								},
								{
									"internalType": "string[]",
									"name": "files",
									"type": "string[]"
								},
								{
									"internalType": "uint256",
									"name": "bounty",
									"type": "uint256"
								}
							],
							"internalType": "struct LibProject.Tasker[]",
							"name": "translators",
							"type": "tuple[]"
						},
						{
							"components": [
								{
									"internalType": "address",
									"name": "taskerAddress",
									"type": "address"
								},
								{
									"internalType": "uint256[]",
									"name": "taskIndex",
									"type": "uint256[]"
								},
								{
									"internalType": "enum LibProject.TaskerState[]",
									"name": "states",
									"type": "uint8[]"
								},
								{
									"internalType": "string[]",
									"name": "files",
									"type": "string[]"
								},
								{
									"internalType": "uint256",
									"name": "bounty",
									"type": "uint256"
								}
							],
							"internalType": "struct LibProject.Tasker[]",
							"name": "verifiers",
							"type": "tuple[]"
						},
						{
							"internalType": "uint256",
							"name": "maxT",
							"type": "uint256"
						},
						{
							"internalType": "uint256",
							"name": "maxV",
							"type": "uint256"
						},
						{
							"internalType": "bool",
							"name": "isTransActive",
							"type": "bool"
						},
						{
							"internalType": "bool",
							"name": "isVerActive",
							"type": "bool"
						},
						{
							"internalType": "enum LibProject.ProjectState",
							"name": "state",
							"type": "uint8"
						}
					],
					"internalType": "struct LibProject.TranslationPro",
					"name": "",
					"type": "tuple"
				}
			],
			"stateMutability": "view",
			"type": "function"
		},
		{
			"inputs": [
				{
					"internalType": "uint256",
					"name": "_index",
					"type": "uint256"
				}
			],
			"name": "getTransNumber",
			"outputs": [
				{
					"internalType": "uint256",
					"name": "",
					"type": "uint256"
				}
			],
			"stateMutability": "view",
			"type": "function"
		},
		{
			"inputs": [
				{
					"internalType": "uint256",
					"name": "_index",
					"type": "uint256"
				},
				{
					"internalType": "uint256",
					"name": "_taskerIndex",
					"type": "uint256"
				}
			],
			"name": "getTranslators",
			"outputs": [
				{
					"components": [
						{
							"internalType": "address",
							"name": "taskerAddress",
							"type": "address"
						},
						{
							"internalType": "uint256[]",
							"name": "taskIndex",
							"type": "uint256[]"
						},
						{
							"internalType": "enum LibProject.TaskerState[]",
							"name": "states",
							"type": "uint8[]"
						},
						{
							"internalType": "string[]",
							"name": "files",
							"type": "string[]"
						},
						{
							"internalType": "uint256",
							"name": "bounty",
							"type": "uint256"
						}
					],
					"internalType": "struct LibProject.Tasker",
					"name": "",
					"type": "tuple"
				}
			],
			"stateMutability": "view",
			"type": "function"
		},
		{
			"inputs": [
				{
					"internalType": "uint256",
					"name": "_index",
					"type": "uint256"
				},
				{
					"internalType": "uint256",
					"name": "_taskerIndex",
					"type": "uint256"
				}
			],
			"name": "getVerifiers",
			"outputs": [
				{
					"components": [
						{
							"internalType": "address",
							"name": "taskerAddress",
							"type": "address"
						},
						{
							"internalType": "uint256[]",
							"name": "taskIndex",
							"type": "uint256[]"
						},
						{
							"internalType": "enum LibProject.TaskerState[]",
							"name": "states",
							"type": "uint8[]"
						},
						{
							"internalType": "string[]",
							"name": "files",
							"type": "string[]"
						},
						{
							"internalType": "uint256",
							"name": "bounty",
							"type": "uint256"
						}
					],
					"internalType": "struct LibProject.Tasker",
					"name": "",
					"type": "tuple"
				}
			],
			"stateMutability": "view",
			"type": "function"
		},
		{
			"inputs": [
				{
					"internalType": "uint256",
					"name": "_index",
					"type": "uint256"
				}
			],
			"name": "getVfNumber",
			"outputs": [
				{
					"internalType": "uint256",
					"name": "",
					"type": "uint256"
				}
			],
			"stateMutability": "view",
			"type": "function"
		},
		{
			"inputs": [
				{
					"internalType": "uint256",
					"name": "_index",
					"type": "uint256"
				}
			],
			"name": "isCustomizeState",
			"outputs": [
				{
					"internalType": "bool",
					"name": "",
					"type": "bool"
				}
			],
			"stateMutability": "view",
			"type": "function"
		},
		{
			"inputs": [
				{
					"internalType": "uint256",
					"name": "_index",
					"type": "uint256"
				},
				{
					"internalType": "bool",
					"name": "_isTrans",
					"type": "bool"
				}
			],
			"name": "isFull",
			"outputs": [
				{
					"internalType": "bool",
					"name": "",
					"type": "bool"
				}
			],
			"stateMutability": "view",
			"type": "function"
		},
		{
			"inputs": [
				{
					"internalType": "uint256",
					"name": "_index",
					"type": "uint256"
				}
			],
			"name": "openTransAccept",
			"outputs": [],
			"stateMutability": "nonpayable",
			"type": "function"
		},
		{
			"inputs": [
				{
					"internalType": "uint256",
					"name": "_index",
					"type": "uint256"
				}
			],
			"name": "openVfAccept",
			"outputs": [],
			"stateMutability": "nonpayable",
			"type": "function"
		},
		{
			"inputs": [
				{
					"internalType": "uint256",
					"name": "_index",
					"type": "uint256"
				},
				{
					"internalType": "uint256",
					"name": "_taskerIndex",
					"type": "uint256"
				},
				{
					"internalType": "bool",
					"name": "_isTrans",
					"type": "bool"
				}
			],
			"name": "overTimeTasker",
			"outputs": [
				{
					"internalType": "uint256[]",
					"name": "",
					"type": "uint256[]"
				},
				{
					"internalType": "uint256",
					"name": "",
					"type": "uint256"
				}
			],
			"stateMutability": "view",
			"type": "function"
		},
		{
			"inputs": [
				{
					"internalType": "uint256",
					"name": "_index",
					"type": "uint256"
				},
				{
					"internalType": "uint256",
					"name": "_taskerIndex",
					"type": "uint256"
				},
				{
					"internalType": "uint256",
					"name": "_fileIndex",
					"type": "uint256"
				},
				{
					"internalType": "string",
					"name": "_fileInfo",
					"type": "string"
				},
				{
					"internalType": "bool",
					"name": "_isTrans",
					"type": "bool"
				}
			],
			"name": "updateFileInfo",
			"outputs": [],
			"stateMutability": "nonpayable",
			"type": "function"
		},
		{
			"inputs": [
				{
					"internalType": "uint256",
					"name": "_index",
					"type": "uint256"
				},
				{
					"internalType": "uint256",
					"name": "_fileIndex",
					"type": "uint256"
				},
				{
					"internalType": "enum LibProject.FileState",
					"name": "_state",
					"type": "uint8"
				}
			],
			"name": "updateFileStateAndTime",
			"outputs": [],
			"stateMutability": "nonpayable",
			"type": "function"
		},
		{
			"inputs": [
				{
					"internalType": "uint256",
					"name": "_index",
					"type": "uint256"
				},
				{
					"components": [
						{
							"internalType": "uint256",
							"name": "releaseTime",
							"type": "uint256"
						},
						{
							"internalType": "string",
							"name": "introduce",
							"type": "string"
						},
						{
							"internalType": "string",
							"name": "need",
							"type": "string"
						},
						{
							"internalType": "uint256",
							"name": "deadline",
							"type": "uint256"
						},
						{
							"internalType": "string",
							"name": "sourceLanguage",
							"type": "string"
						},
						{
							"internalType": "string",
							"name": "goalLanguage",
							"type": "string"
						},
						{
							"internalType": "string[]",
							"name": "preferList",
							"type": "string[]"
						},
						{
							"internalType": "uint256",
							"name": "translationType",
							"type": "uint256"
						},
						{
							"internalType": "uint256",
							"name": "workLoad",
							"type": "uint256"
						},
						{
							"internalType": "bool",
							"name": "isNonDisclosure",
							"type": "bool"
						},
						{
							"internalType": "bool",
							"name": "isCustomize",
							"type": "bool"
						},
						{
							"internalType": "uint256",
							"name": "bounty",
							"type": "uint256"
						},
						{
							"components": [
								{
									"components": [
										{
											"internalType": "string",
											"name": "name",
											"type": "string"
										},
										{
											"internalType": "uint256",
											"name": "size",
											"type": "uint256"
										},
										{
											"internalType": "uint256",
											"name": "videoLength",
											"type": "uint256"
										},
										{
											"internalType": "uint256",
											"name": "Page",
											"type": "uint256"
										},
										{
											"internalType": "uint256",
											"name": "words",
											"type": "uint256"
										},
										{
											"internalType": "uint256",
											"name": "fileType",
											"type": "uint256"
										},
										{
											"internalType": "string",
											"name": "path",
											"type": "string"
										}
									],
									"internalType": "struct LibProject.FileInfo",
									"name": "file",
									"type": "tuple"
								},
								{
									"internalType": "uint256",
									"name": "bounty",
									"type": "uint256"
								},
								{
									"internalType": "string",
									"name": "info",
									"type": "string"
								},
								{
									"internalType": "enum LibProject.FileState",
									"name": "state",
									"type": "uint8"
								},
								{
									"internalType": "uint256",
									"name": "lastUpload",
									"type": "uint256"
								}
							],
							"internalType": "struct LibProject.TaskInfo[]",
							"name": "tasks",
							"type": "tuple[]"
						}
					],
					"internalType": "struct LibProject.ProParm",
					"name": "_t",
					"type": "tuple"
				}
			],
			"name": "updateProject",
			"outputs": [],
			"stateMutability": "nonpayable",
			"type": "function"
		},
		{
			"inputs": [
				{
					"internalType": "uint256",
					"name": "_index",
					"type": "uint256"
				},
				{
					"internalType": "enum LibProject.ProjectState",
					"name": "_state",
					"type": "uint8"
				}
			],
			"name": "updateState",
			"outputs": [],
			"stateMutability": "nonpayable",
			"type": "function"
		},
		{
			"inputs": [
				{
					"internalType": "uint256",
					"name": "_index",
					"type": "uint256"
				},
				{
					"internalType": "uint256",
					"name": "_taskerIndex",
					"type": "uint256"
				},
				{
					"internalType": "uint256",
					"name": "_stateIndex",
					"type": "uint256"
				},
				{
					"internalType": "enum LibProject.TaskerState",
					"name": "_state",
					"type": "uint8"
				},
				{
					"internalType": "bool",
					"name": "_isTrans",
					"type": "bool"
				}
			],
			"name": "updateTaskerState",
			"outputs": [],
			"stateMutability": "nonpayable",
			"type": "function"
		}
	]
}