{
	"data": {
		"bytecode": {
			"linkReferences": {
				"utils/calculateUtils.sol": {
					"CalculateUtils": [
						{
							"length": 20,
							"start": 3091
						},
						{
							"length": 20,
							"start": 3381
						},
						{
							"length": 20,
							"start": 7832
						},
						{
							"length": 20,
							"start": 8122
						}
					]
				}
			},
			"object": "60806040523480156200001157600080fd5b50604051620045903803806200459083398181016040528101906200003791906200025c565b620000576200004b620000e160201b60201c565b620000e960201b60201c565b81600160006101000a81548173ffffffffffffffffffffffffffffffffffffffff021916908373ffffffffffffffffffffffffffffffffffffffff16021790555080600260006101000a81548173ffffffffffffffffffffffffffffffffffffffff021916908373ffffffffffffffffffffffffffffffffffffffff1602179055505050620002a3565b600033905090565b60008060009054906101000a900473ffffffffffffffffffffffffffffffffffffffff169050816000806101000a81548173ffffffffffffffffffffffffffffffffffffffff021916908373ffffffffffffffffffffffffffffffffffffffff1602179055508173ffffffffffffffffffffffffffffffffffffffff168173ffffffffffffffffffffffffffffffffffffffff167f8be0079c531659141344cd1fd0a4f28419497f9722a3daafe3b4186f6b6457e060405160405180910390a35050565b600080fd5b600073ffffffffffffffffffffffffffffffffffffffff82169050919050565b6000620001df82620001b2565b9050919050565b620001f181620001d2565b8114620001fd57600080fd5b50565b6000815190506200021181620001e6565b92915050565b60006200022482620001b2565b9050919050565b620002368162000217565b81146200024257600080fd5b50565b60008151905062000256816200022b565b92915050565b60008060408385031215620002765762000275620001ad565b5b6000620002868582860162000200565b9250506020620002998582860162000245565b9150509250929050565b6142dd80620002b36000396000f3fe608060405234801561001057600080fd5b50600436106100f55760003560e01c80638adc74a511610097578063a55af70111610066578063a55af70114610246578063c51174f914610262578063e9ec6b201461027e578063f2fde38b146102ae576100f5565b80638adc74a5146101d45780638da5cb5b146101f0578063902960401461020e5780639d55097e1461022a576100f5565b80635508c01a116100d35780635508c01a1461014e57806355314cc61461017e578063715018a6146101ae5780637e228f10146101b8576100f5565b806303faeb21146100fa578063361e4705146101165780634bcf2fb014610132575b600080fd5b610114600480360381019061010f91906126ab565b6102ca565b005b610130600480360381019061012b91906127ca565b6102d8565b005b61014c60048036038101906101479190612839565b610370565b005b610168600480360381019061016391906128e2565b610386565b6040516101759190612931565b60405180910390f35b6101986004803603810190610193919061294c565b61039a565b6040516101a591906129a4565b60405180910390f35b6101b66103ac565b005b6101d260048036038101906101cd91906129bf565b6103c0565b005b6101ee60048036038101906101e99190612a3a565b6103d4565b005b6101f86103e1565b6040516102059190612aa8565b60405180910390f35b61022860048036038101906102239190612ac3565b61040a565b005b610244600480360381019061023f91906127ca565b61041c565b005b610260600480360381019061025b9190612a3a565b6104b4565b005b61027c60048036038101906102779190612b46565b6104c1565b005b610298600480360381019061029391906128e2565b6104d3565b6040516102a59190612931565b60405180910390f35b6102c860048036038101906102c39190612bd9565b6104e7565b005b6102d4828261056a565b5050565b600160009054906101000a900473ffffffffffffffffffffffffffffffffffffffff1673ffffffffffffffffffffffffffffffffffffffff16639ec44abc848484336040518563ffffffff1660e01b81526004016103399493929190612cc4565b600060405180830381600087803b15801561035357600080fd5b505af1158015610367573d6000803e3d6000fd5b50505050505050565b61037e8686868686866105fd565b505050505050565b600061039283836107dd565b905092915050565b60006103a582610b0b565b9050919050565b6103b4610c45565b6103be6000610cc3565b565b6103cd85858585856103c0565b5050505050565b6103dd81610d87565b5050565b60008060009054906101000a900473ffffffffffffffffffffffffffffffffffffffff16905090565b61041684848484611198565b50505050565b600160009054906101000a900473ffffffffffffffffffffffffffffffffffffffff1673ffffffffffffffffffffffffffffffffffffffff1663a7788567848484336040518563ffffffff1660e01b815260040161047d9493929190612cc4565b600060405180830381600087803b15801561049757600080fd5b505af11580156104ab573d6000803e3d6000fd5b50505050505050565b6104bd8161135d565b5050565b6104cd848484846117fe565b50505050565b60006104df8383611a62565b905092915050565b6104ef610c45565b600073ffffffffffffffffffffffffffffffffffffffff168173ffffffffffffffffffffffffffffffffffffffff160361055e576040517f08c379a000000000000000000000000000000000000000000000000000000000815260040161055590612d93565b60405180910390fd5b61056781610cc3565b50565b600160009054906101000a900473ffffffffffffffffffffffffffffffffffffffff1673ffffffffffffffffffffffffffffffffffffffff166303faeb2183836040518363ffffffff1660e01b81526004016105c7929190613298565b600060405180830381600087803b1580156105e157600080fd5b505af11580156105f5573d6000803e3d6000fd5b505050505050565b81156106ab57600160009054906101000a900473ffffffffffffffffffffffffffffffffffffffff1673ffffffffffffffffffffffffffffffffffffffff16638fa49f84878786600460016040518663ffffffff1660e01b8152600401610668959493929190613310565b600060405180830381600087803b15801561068257600080fd5b505af1158015610696573d6000803e3d6000fd5b505050506106a686858584611d90565b6107d5565b600160009054906101000a900473ffffffffffffffffffffffffffffffffffffffff1673ffffffffffffffffffffffffffffffffffffffff16638fa49f84878686600360016040518663ffffffff1660e01b8152600401610710959493929190613310565b600060405180830381600087803b15801561072a57600080fd5b505af115801561073e573d6000803e3d6000fd5b50505050600160009054906101000a900473ffffffffffffffffffffffffffffffffffffffff1673ffffffffffffffffffffffffffffffffffffffff166362583a28878560036040518463ffffffff1660e01b81526004016107a293929190613372565b600060405180830381600087803b1580156107bc57600080fd5b505af11580156107d0573d6000803e3d6000fd5b505050505b505050505050565b600060606000600160009054906101000a900473ffffffffffffffffffffffffffffffffffffffff1673ffffffffffffffffffffffffffffffffffffffff1663eef10ae6868660006040518463ffffffff1660e01b8152600401610843939291906133a9565b600060405180830381865afa158015610860573d6000803e3d6000fd5b505050506040513d6000823e3d601f19601f82011682018060405250810190610889919061348c565b809250819350505060008251036108a557600092505050610b05565b60005b825181101561095b57600160009054906101000a900473ffffffffffffffffffffffffffffffffffffffff1673ffffffffffffffffffffffffffffffffffffffff16638fa49f84878784600560006040518663ffffffff1660e01b8152600401610916959493929190613310565b600060405180830381600087803b15801561093057600080fd5b505af1158015610944573d6000803e3d6000fd5b50505050808061095390613517565b9150506108a8565b50600073__$2753dcdd519b03fd573aecec08c92b1fcb$__634f6ca3ce600160009054906101000a900473ffffffffffffffffffffffffffffffffffffffff1673ffffffffffffffffffffffffffffffffffffffff1663be7603c789896040518363ffffffff1660e01b81526004016109d592919061355f565b600060405180830381865afa1580156109f2573d6000803e3d6000fd5b505050506040513d6000823e3d601f19601f82011682018060405250810190610a1b919061388a565b608001516040518263ffffffff1660e01b8152600401610a3b91906138e2565b602060405180830381865af4158015610a58573d6000803e3d6000fd5b505050506040513d601f19601f82011682018060405250810190610a7c91906138fd565b9050600073__$2753dcdd519b03fd573aecec08c92b1fcb$__639ce5c4bf84846040518363ffffffff1660e01b8152600401610ab992919061392a565b602060405180830381865af4158015610ad6573d6000803e3d6000fd5b505050506040513d601f19601f82011682018060405250810190610afa91906138fd565b905060019450505050505b92915050565b600080600160009054906101000a900473ffffffffffffffffffffffffffffffffffffffff1673ffffffffffffffffffffffffffffffffffffffff16638f1844bc846040518263ffffffff1660e01b8152600401610b699190613953565b6020604051808303816000875af1158015610b88573d6000803e3d6000fd5b505050506040513d601f19601f82011682018060405250810190610bac91906138fd565b905082610140015115610c3c57600260009054906101000a900473ffffffffffffffffffffffffffffffffffffffff1673ffffffffffffffffffffffffffffffffffffffff1663460968dd6040518163ffffffff1660e01b8152600401600060405180830381600087803b158015610c2357600080fd5b505af1158015610c37573d6000803e3d6000fd5b505050505b80915050919050565b610c4d611f55565b73ffffffffffffffffffffffffffffffffffffffff16610c6b6103e1565b73ffffffffffffffffffffffffffffffffffffffff1614610cc1576040517f08c379a0000000000000000000000000000000000000000000000000000000008152600401610cb8906139c1565b60405180910390fd5b565b60008060009054906101000a900473ffffffffffffffffffffffffffffffffffffffff169050816000806101000a81548173ffffffffffffffffffffffffffffffffffffffff021916908373ffffffffffffffffffffffffffffffffffffffff1602179055508173ffffffffffffffffffffffffffffffffffffffff168173ffffffffffffffffffffffffffffffffffffffff167f8be0079c531659141344cd1fd0a4f28419497f9722a3daafe3b4186f6b6457e060405160405180910390a35050565b600080600160009054906101000a900473ffffffffffffffffffffffffffffffffffffffff1673ffffffffffffffffffffffffffffffffffffffff1663f0f3f2c8846040518263ffffffff1660e01b8152600401610de591906129a4565b600060405180830381865afa158015610e02573d6000803e3d6000fd5b505050506040513d6000823e3d601f19601f82011682018060405250810190610e2b919061403e565b90506000816101c0015190506000826101a001519050600160009054906101000a900473ffffffffffffffffffffffffffffffffffffffff1673ffffffffffffffffffffffffffffffffffffffff16638a9a9ff38660016040518363ffffffff1660e01b8152600401610e9f929190614087565b602060405180830381865afa158015610ebc573d6000803e3d6000fd5b505050506040513d601f19601f82011682018060405250810190610ee091906140b0565b15610ef15760019350505050611193565b6000825103610f9357600160009054906101000a900473ffffffffffffffffffffffffffffffffffffffff1673ffffffffffffffffffffffffffffffffffffffff1663ea60f28c866040518263ffffffff1660e01b8152600401610f5591906129a4565b600060405180830381600087803b158015610f6f57600080fd5b505af1158015610f83573d6000803e3d6000fd5b5050505060009350505050611193565b6000836101a0015151905060008351905060008183610fb2919061410c565b905060005b84518110156110fa5760006007811115610fd457610fd3612fd2565b5b858281518110610fe757610fe661413d565b5b602002602001015160600151600781111561100557611004612fd2565b5b036110e75760005b86518110156110e5578287828151811061102a5761102961413d565b5b60200260200101516020015151116110d257600160009054906101000a900473ffffffffffffffffffffffffffffffffffffffff1673ffffffffffffffffffffffffffffffffffffffff1663c39a6bcc8b84846040518463ffffffff1660e01b815260040161109b9392919061416c565b600060405180830381600087803b1580156110b557600080fd5b505af11580156110c9573d6000803e3d6000fd5b505050506110e5565b80806110dd90613517565b91505061100d565b505b80806110f290613517565b915050610fb7565b50600160009054906101000a900473ffffffffffffffffffffffffffffffffffffffff1673ffffffffffffffffffffffffffffffffffffffff1663ea60f28c896040518263ffffffff1660e01b815260040161115691906129a4565b600060405180830381600087803b15801561117057600080fd5b505af1158015611184573d6000803e3d6000fd5b50505050600096505050505050505b919050565b600160009054906101000a900473ffffffffffffffffffffffffffffffffffffffff1673ffffffffffffffffffffffffffffffffffffffff166362583a28858560026040518463ffffffff1660e01b81526004016111f893929190613372565b600060405180830381600087803b15801561121257600080fd5b505af1158015611226573d6000803e3d6000fd5b50505050600160009054906101000a900473ffffffffffffffffffffffffffffffffffffffff1673ffffffffffffffffffffffffffffffffffffffff1663ae6008e38585858560016040518663ffffffff1660e01b815260040161128e9594939291906141dc565b600060405180830381600087803b1580156112a857600080fd5b505af11580156112bc573d6000803e3d6000fd5b50505050600160009054906101000a900473ffffffffffffffffffffffffffffffffffffffff1673ffffffffffffffffffffffffffffffffffffffff16638fa49f84858585600260016040518663ffffffff1660e01b8152600401611325959493929190613310565b600060405180830381600087803b15801561133f57600080fd5b505af1158015611353573d6000803e3d6000fd5b5050505050505050565b600080600160009054906101000a900473ffffffffffffffffffffffffffffffffffffffff1673ffffffffffffffffffffffffffffffffffffffff1663f0f3f2c8846040518263ffffffff1660e01b81526004016113bb91906129a4565b600060405180830381865afa1580156113d8573d6000803e3d6000fd5b505050506040513d6000823e3d601f19601f82011682018060405250810190611401919061403e565b90506000816101e0015190506000826101a001519050600160009054906101000a900473ffffffffffffffffffffffffffffffffffffffff1673ffffffffffffffffffffffffffffffffffffffff16638a9a9ff38660006040518363ffffffff1660e01b8152600401611475929190614087565b602060405180830381865afa158015611492573d6000803e3d6000fd5b505050506040513d601f19601f820116820180604052508101906114b691906140b0565b156114c757600193505050506117f9565b60008251036115f957600160009054906101000a900473ffffffffffffffffffffffffffffffffffffffff1673ffffffffffffffffffffffffffffffffffffffff1663ffbafdfe8660036040518363ffffffff1660e01b815260040161152e92919061427e565b600060405180830381600087803b15801561154857600080fd5b505af115801561155c573d6000803e3d6000fd5b50505050600160009054906101000a900473ffffffffffffffffffffffffffffffffffffffff1673ffffffffffffffffffffffffffffffffffffffff1663df3a726f866040518263ffffffff1660e01b81526004016115bb91906129a4565b600060405180830381600087803b1580156115d557600080fd5b505af11580156115e9573d6000803e3d6000fd5b50505050600093505050506117f9565b6000836101a0015151905060008351905060008183611618919061410c565b905060005b8451811015611760576000600781111561163a57611639612fd2565b5b85828151811061164d5761164c61413d565b5b602002602001015160600151600781111561166b5761166a612fd2565b5b0361174d5760005b865181101561174b57828782815181106116905761168f61413d565b5b602002602001015160200151511161173857600160009054906101000a900473ffffffffffffffffffffffffffffffffffffffff1673ffffffffffffffffffffffffffffffffffffffff1663c39a6bcc8b84846040518463ffffffff1660e01b81526004016117019392919061416c565b600060405180830381600087803b15801561171b57600080fd5b505af115801561172f573d6000803e3d6000fd5b5050505061174b565b808061174390613517565b915050611673565b505b808061175890613517565b91505061161d565b50600160009054906101000a900473ffffffffffffffffffffffffffffffffffffffff1673ffffffffffffffffffffffffffffffffffffffff1663df3a726f896040518263ffffffff1660e01b81526004016117bc91906129a4565b600060405180830381600087803b1580156117d657600080fd5b505af11580156117ea573d6000803e3d6000fd5b50505050600096505050505050505b919050565b801561193257600160009054906101000a900473ffffffffffffffffffffffffffffffffffffffff1673ffffffffffffffffffffffffffffffffffffffff16638fa49f84858585600460006040518663ffffffff1660e01b8152600401611869959493929190613310565b600060405180830381600087803b15801561188357600080fd5b505af1158015611897573d6000803e3d6000fd5b50505050600160009054906101000a900473ffffffffffffffffffffffffffffffffffffffff1673ffffffffffffffffffffffffffffffffffffffff166362583a28858460066040518463ffffffff1660e01b81526004016118fb93929190613372565b600060405180830381600087803b15801561191557600080fd5b505af1158015611929573d6000803e3d6000fd5b50505050611a5c565b600160009054906101000a900473ffffffffffffffffffffffffffffffffffffffff1673ffffffffffffffffffffffffffffffffffffffff16638fa49f84858585600360006040518663ffffffff1660e01b8152600401611997959493929190613310565b600060405180830381600087803b1580156119b157600080fd5b505af11580156119c5573d6000803e3d6000fd5b50505050600160009054906101000a900473ffffffffffffffffffffffffffffffffffffffff1673ffffffffffffffffffffffffffffffffffffffff166362583a28858460056040518463ffffffff1660e01b8152600401611a2993929190613372565b600060405180830381600087803b158015611a4357600080fd5b505af1158015611a57573d6000803e3d6000fd5b505050505b50505050565b600060606000600160009054906101000a900473ffffffffffffffffffffffffffffffffffffffff1673ffffffffffffffffffffffffffffffffffffffff1663eef10ae6868660016040518463ffffffff1660e01b8152600401611ac8939291906133a9565b600060405180830381865afa158015611ae5573d6000803e3d6000fd5b505050506040513d6000823e3d601f19601f82011682018060405250810190611b0e919061348c565b80925081935050506000825103611b2a57600092505050611d8a565b60005b8251811015611be057600160009054906101000a900473ffffffffffffffffffffffffffffffffffffffff1673ffffffffffffffffffffffffffffffffffffffff16638fa49f84878784600560016040518663ffffffff1660e01b8152600401611b9b959493929190613310565b600060405180830381600087803b158015611bb557600080fd5b505af1158015611bc9573d6000803e3d6000fd5b505050508080611bd890613517565b915050611b2d565b50600073__$2753dcdd519b03fd573aecec08c92b1fcb$__634f6ca3ce600160009054906101000a900473ffffffffffffffffffffffffffffffffffffffff1673ffffffffffffffffffffffffffffffffffffffff16638480037089896040518363ffffffff1660e01b8152600401611c5a92919061355f565b600060405180830381865afa158015611c77573d6000803e3d6000fd5b505050506040513d6000823e3d601f19601f82011682018060405250810190611ca0919061388a565b608001516040518263ffffffff1660e01b8152600401611cc091906138e2565b602060405180830381865af4158015611cdd573d6000803e3d6000fd5b505050506040513d601f19601f82011682018060405250810190611d0191906138fd565b9050600073__$2753dcdd519b03fd573aecec08c92b1fcb$__639ce5c4bf84846040518363ffffffff1660e01b8152600401611d3e92919061392a565b602060405180830381865af4158015611d5b573d6000803e3d6000fd5b505050506040513d601f19601f82011682018060405250810190611d7f91906138fd565b905060019450505050505b92915050565b600160009054906101000a900473ffffffffffffffffffffffffffffffffffffffff1673ffffffffffffffffffffffffffffffffffffffff166362583a28858560046040518463ffffffff1660e01b8152600401611df093929190613372565b600060405180830381600087803b158015611e0a57600080fd5b505af1158015611e1e573d6000803e3d6000fd5b50505050600160009054906101000a900473ffffffffffffffffffffffffffffffffffffffff1673ffffffffffffffffffffffffffffffffffffffff1663ae6008e38585858560006040518663ffffffff1660e01b8152600401611e869594939291906141dc565b600060405180830381600087803b158015611ea057600080fd5b505af1158015611eb4573d6000803e3d6000fd5b50505050600160009054906101000a900473ffffffffffffffffffffffffffffffffffffffff1673ffffffffffffffffffffffffffffffffffffffff16638fa49f84858585600260006040518663ffffffff1660e01b8152600401611f1d959493929190613310565b600060405180830381600087803b158015611f3757600080fd5b505af1158015611f4b573d6000803e3d6000fd5b5050505050505050565b600033905090565b6000604051905090565b600080fd5b600080fd5b6000819050919050565b611f8481611f71565b8114611f8f57600080fd5b50565b600081359050611fa181611f7b565b92915050565b600080fd5b6000601f19601f8301169050919050565b7f4e487b7100000000000000000000000000000000000000000000000000000000600052604160045260246000fd5b611ff582611fac565b810181811067ffffffffffffffff8211171561201457612013611fbd565b5b80604052505050565b6000612027611f5d565b90506120338282611fec565b919050565b600080fd5b600080fd5b600080fd5b600067ffffffffffffffff82111561206257612061611fbd565b5b61206b82611fac565b9050602081019050919050565b82818337600083830152505050565b600061209a61209584612047565b61201d565b9050828152602081018484840111156120b6576120b5612042565b5b6120c1848285612078565b509392505050565b600082601f8301126120de576120dd61203d565b5b81356120ee848260208601612087565b91505092915050565b600067ffffffffffffffff82111561211257612111611fbd565b5b602082029050602081019050919050565b600080fd5b600061213b612136846120f7565b61201d565b9050808382526020820190506020840283018581111561215e5761215d612123565b5b835b818110156121a557803567ffffffffffffffff8111156121835761218261203d565b5b80860161219089826120c9565b85526020850194505050602081019050612160565b5050509392505050565b600082601f8301126121c4576121c361203d565b5b81356121d4848260208601612128565b91505092915050565b60008115159050919050565b6121f2816121dd565b81146121fd57600080fd5b50565b60008135905061220f816121e9565b92915050565b600067ffffffffffffffff8211156122305761222f611fbd565b5b602082029050602081019050919050565b600060e0828403121561225757612256611fa7565b5b61226160e061201d565b9050600082013567ffffffffffffffff81111561228157612280612038565b5b61228d848285016120c9565b60008301525060206122a184828501611f92565b60208301525060406122b584828501611f92565b60408301525060606122c984828501611f92565b60608301525060806122dd84828501611f92565b60808301525060a06122f184828501611f92565b60a08301525060c082013567ffffffffffffffff81111561231557612314612038565b5b612321848285016120c9565b60c08301525092915050565b6008811061233a57600080fd5b50565b60008135905061234c8161232d565b92915050565b600060a0828403121561236857612367611fa7565b5b61237260a061201d565b9050600082013567ffffffffffffffff81111561239257612391612038565b5b61239e84828501612241565b60008301525060206123b284828501611f92565b602083015250604082013567ffffffffffffffff8111156123d6576123d5612038565b5b6123e2848285016120c9565b60408301525060606123f68482850161233d565b606083015250608061240a84828501611f92565b60808301525092915050565b600061242961242484612215565b61201d565b9050808382526020820190506020840283018581111561244c5761244b612123565b5b835b8181101561249357803567ffffffffffffffff8111156124715761247061203d565b5b80860161247e8982612352565b8552602085019450505060208101905061244e565b5050509392505050565b600082601f8301126124b2576124b161203d565b5b81356124c2848260208601612416565b91505092915050565b60006101a082840312156124e2576124e1611fa7565b5b6124ed6101a061201d565b905060006124fd84828501611f92565b600083015250602082013567ffffffffffffffff81111561252157612520612038565b5b61252d848285016120c9565b602083015250604082013567ffffffffffffffff81111561255157612550612038565b5b61255d848285016120c9565b604083015250606061257184828501611f92565b606083015250608082013567ffffffffffffffff81111561259557612594612038565b5b6125a1848285016120c9565b60808301525060a082013567ffffffffffffffff8111156125c5576125c4612038565b5b6125d1848285016120c9565b60a08301525060c082013567ffffffffffffffff8111156125f5576125f4612038565b5b612601848285016121af565b60c08301525060e061261584828501611f92565b60e08301525061010061262a84828501611f92565b6101008301525061012061264084828501612200565b6101208301525061014061265684828501612200565b6101408301525061016061266c84828501611f92565b6101608301525061018082013567ffffffffffffffff81111561269257612691612038565b5b61269e8482850161249d565b6101808301525092915050565b600080604083850312156126c2576126c1611f67565b5b60006126d085828601611f92565b925050602083013567ffffffffffffffff8111156126f1576126f0611f6c565b5b6126fd858286016124cb565b9150509250929050565b600067ffffffffffffffff82111561272257612721611fbd565b5b602082029050602081019050919050565b600061274661274184612707565b61201d565b9050808382526020820190506020840283018581111561276957612768612123565b5b835b81811015612792578061277e8882611f92565b84526020840193505060208101905061276b565b5050509392505050565b600082601f8301126127b1576127b061203d565b5b81356127c1848260208601612733565b91505092915050565b6000806000606084860312156127e3576127e2611f67565b5b60006127f186828701611f92565b935050602084013567ffffffffffffffff81111561281257612811611f6c565b5b61281e8682870161279c565b925050604061282f86828701611f92565b9150509250925092565b60008060008060008060c0878903121561285657612855611f67565b5b600061286489828a01611f92565b965050602061287589828a01611f92565b955050604061288689828a01611f92565b945050606061289789828a01611f92565b93505060806128a889828a01612200565b92505060a087013567ffffffffffffffff8111156128c9576128c8611f6c565b5b6128d589828a016120c9565b9150509295509295509295565b600080604083850312156128f9576128f8611f67565b5b600061290785828601611f92565b925050602061291885828601611f92565b9150509250929050565b61292b816121dd565b82525050565b60006020820190506129466000830184612922565b92915050565b60006020828403121561296257612961611f67565b5b600082013567ffffffffffffffff8111156129805761297f611f6c565b5b61298c848285016124cb565b91505092915050565b61299e81611f71565b82525050565b60006020820190506129b96000830184612995565b92915050565b600080600080600060a086880312156129db576129da611f67565b5b60006129e988828901611f92565b95505060206129fa88828901611f92565b9450506040612a0b88828901611f92565b9350506060612a1c88828901611f92565b9250506080612a2d88828901612200565b9150509295509295909350565b600060208284031215612a5057612a4f611f67565b5b6000612a5e84828501611f92565b91505092915050565b600073ffffffffffffffffffffffffffffffffffffffff82169050919050565b6000612a9282612a67565b9050919050565b612aa281612a87565b82525050565b6000602082019050612abd6000830184612a99565b92915050565b60008060008060808587031215612add57612adc611f67565b5b6000612aeb87828801611f92565b9450506020612afc87828801611f92565b9350506040612b0d87828801611f92565b925050606085013567ffffffffffffffff811115612b2e57612b2d611f6c565b5b612b3a878288016120c9565b91505092959194509250565b60008060008060808587031215612b6057612b5f611f67565b5b6000612b6e87828801611f92565b9450506020612b7f87828801611f92565b9350506040612b9087828801611f92565b9250506060612ba187828801612200565b91505092959194509250565b612bb681612a87565b8114612bc157600080fd5b50565b600081359050612bd381612bad565b92915050565b600060208284031215612bef57612bee611f67565b5b6000612bfd84828501612bc4565b91505092915050565b600081519050919050565b600082825260208201905092915050565b6000819050602082019050919050565b612c3b81611f71565b82525050565b6000612c4d8383612c32565b60208301905092915050565b6000602082019050919050565b6000612c7182612c06565b612c7b8185612c11565b9350612c8683612c22565b8060005b83811015612cb7578151612c9e8882612c41565b9750612ca983612c59565b925050600181019050612c8a565b5085935050505092915050565b6000608082019050612cd96000830187612995565b8181036020830152612ceb8186612c66565b9050612cfa6040830185612995565b612d076060830184612a99565b95945050505050565b600082825260208201905092915050565b7f4f776e61626c653a206e6577206f776e657220697320746865207a65726f206160008201527f6464726573730000000000000000000000000000000000000000000000000000602082015250565b6000612d7d602683612d10565b9150612d8882612d21565b604082019050919050565b60006020820190508181036000830152612dac81612d70565b9050919050565b600081519050919050565b600082825260208201905092915050565b60005b83811015612ded578082015181840152602081019050612dd2565b60008484015250505050565b6000612e0482612db3565b612e0e8185612dbe565b9350612e1e818560208601612dcf565b612e2781611fac565b840191505092915050565b600081519050919050565b600082825260208201905092915050565b6000819050602082019050919050565b6000612e6a8383612df9565b905092915050565b6000602082019050919050565b6000612e8a82612e32565b612e948185612e3d565b935083602082028501612ea685612e4e565b8060005b85811015612ee25784840389528151612ec38582612e5e565b9450612ece83612e72565b925060208a01995050600181019050612eaa565b50829750879550505050505092915050565b612efd816121dd565b82525050565b600081519050919050565b600082825260208201905092915050565b6000819050602082019050919050565b600060e0830160008301518482036000860152612f4c8282612df9565b9150506020830151612f616020860182612c32565b506040830151612f746040860182612c32565b506060830151612f876060860182612c32565b506080830151612f9a6080860182612c32565b5060a0830151612fad60a0860182612c32565b5060c083015184820360c0860152612fc58282612df9565b9150508091505092915050565b7f4e487b7100000000000000000000000000000000000000000000000000000000600052602160045260246000fd5b6008811061301257613011612fd2565b5b50565b600081905061302382613001565b919050565b600061303382613015565b9050919050565b61304381613028565b82525050565b600060a08301600083015184820360008601526130668282612f2f565b915050602083015161307b6020860182612c32565b50604083015184820360408601526130938282612df9565b91505060608301516130a8606086018261303a565b5060808301516130bb6080860182612c32565b508091505092915050565b60006130d28383613049565b905092915050565b6000602082019050919050565b60006130f282612f03565b6130fc8185612f0e565b93508360208202850161310e85612f1f565b8060005b8581101561314a578484038952815161312b85826130c6565b9450613136836130da565b925060208a01995050600181019050613112565b50829750879550505050505092915050565b60006101a0830160008301516131756000860182612c32565b506020830151848203602086015261318d8282612df9565b915050604083015184820360408601526131a78282612df9565b91505060608301516131bc6060860182612c32565b50608083015184820360808601526131d48282612df9565b91505060a083015184820360a08601526131ee8282612df9565b91505060c083015184820360c08601526132088282612e7f565b91505060e083015161321d60e0860182612c32565b50610100830151613232610100860182612c32565b50610120830151613247610120860182612ef4565b5061014083015161325c610140860182612ef4565b50610160830151613271610160860182612c32565b5061018083015184820361018086015261328b82826130e7565b9150508091505092915050565b60006040820190506132ad6000830185612995565b81810360208301526132bf818461315c565b90509392505050565b600681106132d9576132d8612fd2565b5b50565b60008190506132ea826132c8565b919050565b60006132fa826132dc565b9050919050565b61330a816132ef565b82525050565b600060a0820190506133256000830188612995565b6133326020830187612995565b61333f6040830186612995565b61334c6060830185613301565b6133596080830184612922565b9695505050505050565b61336c81613028565b82525050565b60006060820190506133876000830186612995565b6133946020830185612995565b6133a16040830184613363565b949350505050565b60006060820190506133be6000830186612995565b6133cb6020830185612995565b6133d86040830184612922565b949350505050565b6000815190506133ef81611f7b565b92915050565b600061340861340384612707565b61201d565b9050808382526020820190506020840283018581111561342b5761342a612123565b5b835b81811015613454578061344088826133e0565b84526020840193505060208101905061342d565b5050509392505050565b600082601f8301126134735761347261203d565b5b81516134838482602086016133f5565b91505092915050565b600080604083850312156134a3576134a2611f67565b5b600083015167ffffffffffffffff8111156134c1576134c0611f6c565b5b6134cd8582860161345e565b92505060206134de858286016133e0565b9150509250929050565b7f4e487b7100000000000000000000000000000000000000000000000000000000600052601160045260246000fd5b600061352282611f71565b91507fffffffffffffffffffffffffffffffffffffffffffffffffffffffffffffffff8203613554576135536134e8565b5b600182019050919050565b60006040820190506135746000830185612995565b6135816020830184612995565b9392505050565b60008151905061359781612bad565b92915050565b600067ffffffffffffffff8211156135b8576135b7611fbd565b5b602082029050602081019050919050565b600681106135d657600080fd5b50565b6000815190506135e8816135c9565b92915050565b60006136016135fc8461359d565b61201d565b9050808382526020820190506020840283018581111561362457613623612123565b5b835b8181101561364d578061363988826135d9565b845260208401935050602081019050613626565b5050509392505050565b600082601f83011261366c5761366b61203d565b5b815161367c8482602086016135ee565b91505092915050565b600061369861369384612047565b61201d565b9050828152602081018484840111156136b4576136b3612042565b5b6136bf848285612dcf565b509392505050565b600082601f8301126136dc576136db61203d565b5b81516136ec848260208601613685565b91505092915050565b6000613708613703846120f7565b61201d565b9050808382526020820190506020840283018581111561372b5761372a612123565b5b835b8181101561377257805167ffffffffffffffff8111156137505761374f61203d565b5b80860161375d89826136c7565b8552602085019450505060208101905061372d565b5050509392505050565b600082601f8301126137915761379061203d565b5b81516137a18482602086016136f5565b91505092915050565b600060a082840312156137c0576137bf611fa7565b5b6137ca60a061201d565b905060006137da84828501613588565b600083015250602082015167ffffffffffffffff8111156137fe576137fd612038565b5b61380a8482850161345e565b602083015250604082015167ffffffffffffffff81111561382e5761382d612038565b5b61383a84828501613657565b604083015250606082015167ffffffffffffffff81111561385e5761385d612038565b5b61386a8482850161377c565b606083015250608061387e848285016133e0565b60808301525092915050565b6000602082840312156138a05761389f611f67565b5b600082015167ffffffffffffffff8111156138be576138bd611f6c565b5b6138ca848285016137aa565b91505092915050565b6138dc81611f71565b82525050565b60006020820190506138f760008301846138d3565b92915050565b60006020828403121561391357613912611f67565b5b6000613921848285016133e0565b91505092915050565b600060408201905061393f60008301856138d3565b61394c60208301846138d3565b9392505050565b6000602082019050818103600083015261396d818461315c565b905092915050565b7f4f776e61626c653a2063616c6c6572206973206e6f7420746865206f776e6572600082015250565b60006139ab602083612d10565b91506139b682613975565b602082019050919050565b600060208201905081810360008301526139da8161399e565b9050919050565b6000815190506139f0816121e9565b92915050565b600060e08284031215613a0c57613a0b611fa7565b5b613a1660e061201d565b9050600082015167ffffffffffffffff811115613a3657613a35612038565b5b613a42848285016136c7565b6000830152506020613a56848285016133e0565b6020830152506040613a6a848285016133e0565b6040830152506060613a7e848285016133e0565b6060830152506080613a92848285016133e0565b60808301525060a0613aa6848285016133e0565b60a08301525060c082015167ffffffffffffffff811115613aca57613ac9612038565b5b613ad6848285016136c7565b60c08301525092915050565b600081519050613af18161232d565b92915050565b600060a08284031215613b0d57613b0c611fa7565b5b613b1760a061201d565b9050600082015167ffffffffffffffff811115613b3757613b36612038565b5b613b43848285016139f6565b6000830152506020613b57848285016133e0565b602083015250604082015167ffffffffffffffff811115613b7b57613b7a612038565b5b613b87848285016136c7565b6040830152506060613b9b84828501613ae2565b6060830152506080613baf848285016133e0565b60808301525092915050565b6000613bce613bc984612215565b61201d565b90508083825260208201905060208402830185811115613bf157613bf0612123565b5b835b81811015613c3857805167ffffffffffffffff811115613c1657613c1561203d565b5b808601613c238982613af7565b85526020850194505050602081019050613bf3565b5050509392505050565b600082601f830112613c5757613c5661203d565b5b8151613c67848260208601613bbb565b91505092915050565b600067ffffffffffffffff821115613c8b57613c8a611fbd565b5b602082029050602081019050919050565b6000613caf613caa84613c70565b61201d565b90508083825260208201905060208402830185811115613cd257613cd1612123565b5b835b81811015613d1957805167ffffffffffffffff811115613cf757613cf661203d565b5b808601613d0489826137aa565b85526020850194505050602081019050613cd4565b5050509392505050565b600082601f830112613d3857613d3761203d565b5b8151613d48848260208601613c9c565b91505092915050565b60068110613d5e57600080fd5b50565b600081519050613d7081613d51565b92915050565b60006102a08284031215613d8d57613d8c611fa7565b5b613d986102a061201d565b90506000613da884828501613588565b6000830152506020613dbc848285016133e0565b602083015250604082015167ffffffffffffffff811115613de057613ddf612038565b5b613dec848285016136c7565b604083015250606082015167ffffffffffffffff811115613e1057613e0f612038565b5b613e1c848285016136c7565b6060830152506080613e30848285016133e0565b60808301525060a082015167ffffffffffffffff811115613e5457613e53612038565b5b613e60848285016136c7565b60a08301525060c082015167ffffffffffffffff811115613e8457613e83612038565b5b613e90848285016136c7565b60c08301525060e082015167ffffffffffffffff811115613eb457613eb3612038565b5b613ec08482850161377c565b60e083015250610100613ed5848285016133e0565b61010083015250610120613eeb848285016133e0565b61012083015250610140613f01848285016139e1565b61014083015250610160613f17848285016139e1565b61016083015250610180613f2d848285016133e0565b610180830152506101a082015167ffffffffffffffff811115613f5357613f52612038565b5b613f5f84828501613c42565b6101a0830152506101c082015167ffffffffffffffff811115613f8557613f84612038565b5b613f9184828501613d23565b6101c0830152506101e082015167ffffffffffffffff811115613fb757613fb6612038565b5b613fc384828501613d23565b6101e083015250610200613fd9848285016133e0565b61020083015250610220613fef848285016133e0565b61022083015250610240614005848285016139e1565b6102408301525061026061401b848285016139e1565b6102608301525061028061403184828501613d61565b6102808301525092915050565b60006020828403121561405457614053611f67565b5b600082015167ffffffffffffffff81111561407257614071611f6c565b5b61407e84828501613d76565b91505092915050565b600060408201905061409c6000830185612995565b6140a96020830184612922565b9392505050565b6000602082840312156140c6576140c5611f67565b5b60006140d4848285016139e1565b91505092915050565b7f4e487b7100000000000000000000000000000000000000000000000000000000600052601260045260246000fd5b600061411782611f71565b915061412283611f71565b925082614132576141316140dd565b5b828204905092915050565b7f4e487b7100000000000000000000000000000000000000000000000000000000600052603260045260246000fd5b60006060820190506141816000830186612995565b61418e6020830185612995565b61419b6040830184612995565b949350505050565b60006141ae82612db3565b6141b88185612d10565b93506141c8818560208601612dcf565b6141d181611fac565b840191505092915050565b600060a0820190506141f16000830188612995565b6141fe6020830187612995565b61420b6040830186612995565b818103606083015261421d81856141a3565b905061422c6080830184612922565b9695505050505050565b6006811061424757614246612fd2565b5b50565b600081905061425882614236565b919050565b60006142688261424a565b9050919050565b6142788161425d565b82525050565b60006040820190506142936000830185612995565b6142a0602083018461426f565b939250505056fea26469706673582212207feb68ac0d3b04a89c2531783ae56c3fea4c929b1c33d7135f196734df77e44a64736f6c63430008110033",
			"opcodes": "PUSH1 0x80 PUSH1 0x40 MSTORE CALLVALUE DUP1 ISZERO PUSH3 0x11 JUMPI PUSH1 0x0 DUP1 REVERT JUMPDEST POP PUSH1 0x40 MLOAD PUSH3 0x4590 CODESIZE SUB DUP1 PUSH3 0x4590 DUP4 CODECOPY DUP2 DUP2 ADD PUSH1 0x40 MSTORE DUP2 ADD SWAP1 PUSH3 0x37 SWAP2 SWAP1 PUSH3 0x25C JUMP JUMPDEST PUSH3 0x57 PUSH3 0x4B PUSH3 0xE1 PUSH1 0x20 SHL PUSH1 0x20 SHR JUMP JUMPDEST PUSH3 0xE9 PUSH1 0x20 SHL PUSH1 0x20 SHR JUMP JUMPDEST DUP2 PUSH1 0x1 PUSH1 0x0 PUSH2 0x100 EXP DUP2 SLOAD DUP2 PUSH20 0xFFFFFFFFFFFFFFFFFFFFFFFFFFFFFFFFFFFFFFFF MUL NOT AND SWAP1 DUP4 PUSH20 0xFFFFFFFFFFFFFFFFFFFFFFFFFFFFFFFFFFFFFFFF AND MUL OR SWAP1 SSTORE POP DUP1 PUSH1 0x2 PUSH1 0x0 PUSH2 0x100 EXP DUP2 SLOAD DUP2 PUSH20 0xFFFFFFFFFFFFFFFFFFFFFFFFFFFFFFFFFFFFFFFF MUL NOT AND SWAP1 DUP4 PUSH20 0xFFFFFFFFFFFFFFFFFFFFFFFFFFFFFFFFFFFFFFFF AND MUL OR SWAP1 SSTORE POP POP POP PUSH3 0x2A3 JUMP JUMPDEST PUSH1 0x0 CALLER SWAP1 POP SWAP1 JUMP JUMPDEST PUSH1 0x0 DUP1 PUSH1 0x0 SWAP1 SLOAD SWAP1 PUSH2 0x100 EXP SWAP1 DIV PUSH20 0xFFFFFFFFFFFFFFFFFFFFFFFFFFFFFFFFFFFFFFFF AND SWAP1 POP DUP2 PUSH1 0x0 DUP1 PUSH2 0x100 EXP DUP2 SLOAD DUP2 PUSH20 0xFFFFFFFFFFFFFFFFFFFFFFFFFFFFFFFFFFFFFFFF MUL NOT AND SWAP1 DUP4 PUSH20 0xFFFFFFFFFFFFFFFFFFFFFFFFFFFFFFFFFFFFFFFF AND MUL OR SWAP1 SSTORE POP DUP2 PUSH20 0xFFFFFFFFFFFFFFFFFFFFFFFFFFFFFFFFFFFFFFFF AND DUP2 PUSH20 0xFFFFFFFFFFFFFFFFFFFFFFFFFFFFFFFFFFFFFFFF AND PUSH32 0x8BE0079C531659141344CD1FD0A4F28419497F9722A3DAAFE3B4186F6B6457E0 PUSH1 0x40 MLOAD PUSH1 0x40 MLOAD DUP1 SWAP2 SUB SWAP1 LOG3 POP POP JUMP JUMPDEST PUSH1 0x0 DUP1 REVERT JUMPDEST PUSH1 0x0 PUSH20 0xFFFFFFFFFFFFFFFFFFFFFFFFFFFFFFFFFFFFFFFF DUP3 AND SWAP1 POP SWAP2 SWAP1 POP JUMP JUMPDEST PUSH1 0x0 PUSH3 0x1DF DUP3 PUSH3 0x1B2 JUMP JUMPDEST SWAP1 POP SWAP2 SWAP1 POP JUMP JUMPDEST PUSH3 0x1F1 DUP2 PUSH3 0x1D2 JUMP JUMPDEST DUP2 EQ PUSH3 0x1FD JUMPI PUSH1 0x0 DUP1 REVERT JUMPDEST POP JUMP JUMPDEST PUSH1 0x0 DUP2 MLOAD SWAP1 POP PUSH3 0x211 DUP2 PUSH3 0x1E6 JUMP JUMPDEST SWAP3 SWAP2 POP POP JUMP JUMPDEST PUSH1 0x0 PUSH3 0x224 DUP3 PUSH3 0x1B2 JUMP JUMPDEST SWAP1 POP SWAP2 SWAP1 POP JUMP JUMPDEST PUSH3 0x236 DUP2 PUSH3 0x217 JUMP JUMPDEST DUP2 EQ PUSH3 0x242 JUMPI PUSH1 0x0 DUP1 REVERT JUMPDEST POP JUMP JUMPDEST PUSH1 0x0 DUP2 MLOAD SWAP1 POP PUSH3 0x256 DUP2 PUSH3 0x22B JUMP JUMPDEST SWAP3 SWAP2 POP POP JUMP JUMPDEST PUSH1 0x0 DUP1 PUSH1 0x40 DUP4 DUP6 SUB SLT ISZERO PUSH3 0x276 JUMPI PUSH3 0x275 PUSH3 0x1AD JUMP JUMPDEST JUMPDEST PUSH1 0x0 PUSH3 0x286 DUP6 DUP3 DUP7 ADD PUSH3 0x200 JUMP JUMPDEST SWAP3 POP POP PUSH1 0x20 PUSH3 0x299 DUP6 DUP3 DUP7 ADD PUSH3 0x245 JUMP JUMPDEST SWAP2 POP POP SWAP3 POP SWAP3 SWAP1 POP JUMP JUMPDEST PUSH2 0x42DD DUP1 PUSH3 0x2B3 PUSH1 0x0 CODECOPY PUSH1 0x0 RETURN INVALID PUSH1 0x80 PUSH1 0x40 MSTORE CALLVALUE DUP1 ISZERO PUSH2 0x10 JUMPI PUSH1 0x0 DUP1 REVERT JUMPDEST POP PUSH1 0x4 CALLDATASIZE LT PUSH2 0xF5 JUMPI PUSH1 0x0 CALLDATALOAD PUSH1 0xE0 SHR DUP1 PUSH4 0x8ADC74A5 GT PUSH2 0x97 JUMPI DUP1 PUSH4 0xA55AF701 GT PUSH2 0x66 JUMPI DUP1 PUSH4 0xA55AF701 EQ PUSH2 0x246 JUMPI DUP1 PUSH4 0xC51174F9 EQ PUSH2 0x262 JUMPI DUP1 PUSH4 0xE9EC6B20 EQ PUSH2 0x27E JUMPI DUP1 PUSH4 0xF2FDE38B EQ PUSH2 0x2AE JUMPI PUSH2 0xF5 JUMP JUMPDEST DUP1 PUSH4 0x8ADC74A5 EQ PUSH2 0x1D4 JUMPI DUP1 PUSH4 0x8DA5CB5B EQ PUSH2 0x1F0 JUMPI DUP1 PUSH4 0x90296040 EQ PUSH2 0x20E JUMPI DUP1 PUSH4 0x9D55097E EQ PUSH2 0x22A JUMPI PUSH2 0xF5 JUMP JUMPDEST DUP1 PUSH4 0x5508C01A GT PUSH2 0xD3 JUMPI DUP1 PUSH4 0x5508C01A EQ PUSH2 0x14E JUMPI DUP1 PUSH4 0x55314CC6 EQ PUSH2 0x17E JUMPI DUP1 PUSH4 0x715018A6 EQ PUSH2 0x1AE JUMPI DUP1 PUSH4 0x7E228F10 EQ PUSH2 0x1B8 JUMPI PUSH2 0xF5 JUMP JUMPDEST DUP1 PUSH4 0x3FAEB21 EQ PUSH2 0xFA JUMPI DUP1 PUSH4 0x361E4705 EQ PUSH2 0x116 JUMPI DUP1 PUSH4 0x4BCF2FB0 EQ PUSH2 0x132 JUMPI JUMPDEST PUSH1 0x0 DUP1 REVERT JUMPDEST PUSH2 0x114 PUSH1 0x4 DUP1 CALLDATASIZE SUB DUP2 ADD SWAP1 PUSH2 0x10F SWAP2 SWAP1 PUSH2 0x26AB JUMP JUMPDEST PUSH2 0x2CA JUMP JUMPDEST STOP JUMPDEST PUSH2 0x130 PUSH1 0x4 DUP1 CALLDATASIZE SUB DUP2 ADD SWAP1 PUSH2 0x12B SWAP2 SWAP1 PUSH2 0x27CA JUMP JUMPDEST PUSH2 0x2D8 JUMP JUMPDEST STOP JUMPDEST PUSH2 0x14C PUSH1 0x4 DUP1 CALLDATASIZE SUB DUP2 ADD SWAP1 PUSH2 0x147 SWAP2 SWAP1 PUSH2 0x2839 JUMP JUMPDEST PUSH2 0x370 JUMP JUMPDEST STOP JUMPDEST PUSH2 0x168 PUSH1 0x4 DUP1 CALLDATASIZE SUB DUP2 ADD SWAP1 PUSH2 0x163 SWAP2 SWAP1 PUSH2 0x28E2 JUMP JUMPDEST PUSH2 0x386 JUMP JUMPDEST PUSH1 0x40 MLOAD PUSH2 0x175 SWAP2 SWAP1 PUSH2 0x2931 JUMP JUMPDEST PUSH1 0x40 MLOAD DUP1 SWAP2 SUB SWAP1 RETURN JUMPDEST PUSH2 0x198 PUSH1 0x4 DUP1 CALLDATASIZE SUB DUP2 ADD SWAP1 PUSH2 0x193 SWAP2 SWAP1 PUSH2 0x294C JUMP JUMPDEST PUSH2 0x39A JUMP JUMPDEST PUSH1 0x40 MLOAD PUSH2 0x1A5 SWAP2 SWAP1 PUSH2 0x29A4 JUMP JUMPDEST PUSH1 0x40 MLOAD DUP1 SWAP2 SUB SWAP1 RETURN JUMPDEST PUSH2 0x1B6 PUSH2 0x3AC JUMP JUMPDEST STOP JUMPDEST PUSH2 0x1D2 PUSH1 0x4 DUP1 CALLDATASIZE SUB DUP2 ADD SWAP1 PUSH2 0x1CD SWAP2 SWAP1 PUSH2 0x29BF JUMP JUMPDEST PUSH2 0x3C0 JUMP JUMPDEST STOP JUMPDEST PUSH2 0x1EE PUSH1 0x4 DUP1 CALLDATASIZE SUB DUP2 ADD SWAP1 PUSH2 0x1E9 SWAP2 SWAP1 PUSH2 0x2A3A JUMP JUMPDEST PUSH2 0x3D4 JUMP JUMPDEST STOP JUMPDEST PUSH2 0x1F8 PUSH2 0x3E1 JUMP JUMPDEST PUSH1 0x40 MLOAD PUSH2 0x205 SWAP2 SWAP1 PUSH2 0x2AA8 JUMP JUMPDEST PUSH1 0x40 MLOAD DUP1 SWAP2 SUB SWAP1 RETURN JUMPDEST PUSH2 0x228 PUSH1 0x4 DUP1 CALLDATASIZE SUB DUP2 ADD SWAP1 PUSH2 0x223 SWAP2 SWAP1 PUSH2 0x2AC3 JUMP JUMPDEST PUSH2 0x40A JUMP JUMPDEST STOP JUMPDEST PUSH2 0x244 PUSH1 0x4 DUP1 CALLDATASIZE SUB DUP2 ADD SWAP1 PUSH2 0x23F SWAP2 SWAP1 PUSH2 0x27CA JUMP JUMPDEST PUSH2 0x41C JUMP JUMPDEST STOP JUMPDEST PUSH2 0x260 PUSH1 0x4 DUP1 CALLDATASIZE SUB DUP2 ADD SWAP1 PUSH2 0x25B SWAP2 SWAP1 PUSH2 0x2A3A JUMP JUMPDEST PUSH2 0x4B4 JUMP JUMPDEST STOP JUMPDEST PUSH2 0x27C PUSH1 0x4 DUP1 CALLDATASIZE SUB DUP2 ADD SWAP1 PUSH2 0x277 SWAP2 SWAP1 PUSH2 0x2B46 JUMP JUMPDEST PUSH2 0x4C1 JUMP JUMPDEST STOP JUMPDEST PUSH2 0x298 PUSH1 0x4 DUP1 CALLDATASIZE SUB DUP2 ADD SWAP1 PUSH2 0x293 SWAP2 SWAP1 PUSH2 0x28E2 JUMP JUMPDEST PUSH2 0x4D3 JUMP JUMPDEST PUSH1 0x40 MLOAD PUSH2 0x2A5 SWAP2 SWAP1 PUSH2 0x2931 JUMP JUMPDEST PUSH1 0x40 MLOAD DUP1 SWAP2 SUB SWAP1 RETURN JUMPDEST PUSH2 0x2C8 PUSH1 0x4 DUP1 CALLDATASIZE SUB DUP2 ADD SWAP1 PUSH2 0x2C3 SWAP2 SWAP1 PUSH2 0x2BD9 JUMP JUMPDEST PUSH2 0x4E7 JUMP JUMPDEST STOP JUMPDEST PUSH2 0x2D4 DUP3 DUP3 PUSH2 0x56A JUMP JUMPDEST POP POP JUMP JUMPDEST PUSH1 0x1 PUSH1 0x0 SWAP1 SLOAD SWAP1 PUSH2 0x100 EXP SWAP1 DIV PUSH20 0xFFFFFFFFFFFFFFFFFFFFFFFFFFFFFFFFFFFFFFFF AND PUSH20 0xFFFFFFFFFFFFFFFFFFFFFFFFFFFFFFFFFFFFFFFF AND PUSH4 0x9EC44ABC DUP5 DUP5 DUP5 CALLER PUSH1 0x40 MLOAD DUP6 PUSH4 0xFFFFFFFF AND PUSH1 0xE0 SHL DUP2 MSTORE PUSH1 0x4 ADD PUSH2 0x339 SWAP5 SWAP4 SWAP3 SWAP2 SWAP1 PUSH2 0x2CC4 JUMP JUMPDEST PUSH1 0x0 PUSH1 0x40 MLOAD DUP1 DUP4 SUB DUP2 PUSH1 0x0 DUP8 DUP1 EXTCODESIZE ISZERO DUP1 ISZERO PUSH2 0x353 JUMPI PUSH1 0x0 DUP1 REVERT JUMPDEST POP GAS CALL ISZERO DUP1 ISZERO PUSH2 0x367 JUMPI RETURNDATASIZE PUSH1 0x0 DUP1 RETURNDATACOPY RETURNDATASIZE PUSH1 0x0 REVERT JUMPDEST POP POP POP POP POP POP POP JUMP JUMPDEST PUSH2 0x37E DUP7 DUP7 DUP7 DUP7 DUP7 DUP7 PUSH2 0x5FD JUMP JUMPDEST POP POP POP POP POP POP JUMP JUMPDEST PUSH1 0x0 PUSH2 0x392 DUP4 DUP4 PUSH2 0x7DD JUMP JUMPDEST SWAP1 POP SWAP3 SWAP2 POP POP JUMP JUMPDEST PUSH1 0x0 PUSH2 0x3A5 DUP3 PUSH2 0xB0B JUMP JUMPDEST SWAP1 POP SWAP2 SWAP1 POP JUMP JUMPDEST PUSH2 0x3B4 PUSH2 0xC45 JUMP JUMPDEST PUSH2 0x3BE PUSH1 0x0 PUSH2 0xCC3 JUMP JUMPDEST JUMP JUMPDEST PUSH2 0x3CD DUP6 DUP6 DUP6 DUP6 DUP6 PUSH2 0x3C0 JUMP JUMPDEST POP POP POP POP POP JUMP JUMPDEST PUSH2 0x3DD DUP2 PUSH2 0xD87 JUMP JUMPDEST POP POP JUMP JUMPDEST PUSH1 0x0 DUP1 PUSH1 0x0 SWAP1 SLOAD SWAP1 PUSH2 0x100 EXP SWAP1 DIV PUSH20 0xFFFFFFFFFFFFFFFFFFFFFFFFFFFFFFFFFFFFFFFF AND SWAP1 POP SWAP1 JUMP JUMPDEST PUSH2 0x416 DUP5 DUP5 DUP5 DUP5 PUSH2 0x1198 JUMP JUMPDEST POP POP POP POP JUMP JUMPDEST PUSH1 0x1 PUSH1 0x0 SWAP1 SLOAD SWAP1 PUSH2 0x100 EXP SWAP1 DIV PUSH20 0xFFFFFFFFFFFFFFFFFFFFFFFFFFFFFFFFFFFFFFFF AND PUSH20 0xFFFFFFFFFFFFFFFFFFFFFFFFFFFFFFFFFFFFFFFF AND PUSH4 0xA7788567 DUP5 DUP5 DUP5 CALLER PUSH1 0x40 MLOAD DUP6 PUSH4 0xFFFFFFFF AND PUSH1 0xE0 SHL DUP2 MSTORE PUSH1 0x4 ADD PUSH2 0x47D SWAP5 SWAP4 SWAP3 SWAP2 SWAP1 PUSH2 0x2CC4 JUMP JUMPDEST PUSH1 0x0 PUSH1 0x40 MLOAD DUP1 DUP4 SUB DUP2 PUSH1 0x0 DUP8 DUP1 EXTCODESIZE ISZERO DUP1 ISZERO PUSH2 0x497 JUMPI PUSH1 0x0 DUP1 REVERT JUMPDEST POP GAS CALL ISZERO DUP1 ISZERO PUSH2 0x4AB JUMPI RETURNDATASIZE PUSH1 0x0 DUP1 RETURNDATACOPY RETURNDATASIZE PUSH1 0x0 REVERT JUMPDEST POP POP POP POP POP POP POP JUMP JUMPDEST PUSH2 0x4BD DUP2 PUSH2 0x135D JUMP JUMPDEST POP POP JUMP JUMPDEST PUSH2 0x4CD DUP5 DUP5 DUP5 DUP5 PUSH2 0x17FE JUMP JUMPDEST POP POP POP POP JUMP JUMPDEST PUSH1 0x0 PUSH2 0x4DF DUP4 DUP4 PUSH2 0x1A62 JUMP JUMPDEST SWAP1 POP SWAP3 SWAP2 POP POP JUMP JUMPDEST PUSH2 0x4EF PUSH2 0xC45 JUMP JUMPDEST PUSH1 0x0 PUSH20 0xFFFFFFFFFFFFFFFFFFFFFFFFFFFFFFFFFFFFFFFF AND DUP2 PUSH20 0xFFFFFFFFFFFFFFFFFFFFFFFFFFFFFFFFFFFFFFFF AND SUB PUSH2 0x55E JUMPI PUSH1 0x40 MLOAD PUSH32 0x8C379A000000000000000000000000000000000000000000000000000000000 DUP2 MSTORE PUSH1 0x4 ADD PUSH2 0x555 SWAP1 PUSH2 0x2D93 JUMP JUMPDEST PUSH1 0x40 MLOAD DUP1 SWAP2 SUB SWAP1 REVERT JUMPDEST PUSH2 0x567 DUP2 PUSH2 0xCC3 JUMP JUMPDEST POP JUMP JUMPDEST PUSH1 0x1 PUSH1 0x0 SWAP1 SLOAD SWAP1 PUSH2 0x100 EXP SWAP1 DIV PUSH20 0xFFFFFFFFFFFFFFFFFFFFFFFFFFFFFFFFFFFFFFFF AND PUSH20 0xFFFFFFFFFFFFFFFFFFFFFFFFFFFFFFFFFFFFFFFF AND PUSH4 0x3FAEB21 DUP4 DUP4 PUSH1 0x40 MLOAD DUP4 PUSH4 0xFFFFFFFF AND PUSH1 0xE0 SHL DUP2 MSTORE PUSH1 0x4 ADD PUSH2 0x5C7 SWAP3 SWAP2 SWAP1 PUSH2 0x3298 JUMP JUMPDEST PUSH1 0x0 PUSH1 0x40 MLOAD DUP1 DUP4 SUB DUP2 PUSH1 0x0 DUP8 DUP1 EXTCODESIZE ISZERO DUP1 ISZERO PUSH2 0x5E1 JUMPI PUSH1 0x0 DUP1 REVERT JUMPDEST POP GAS CALL ISZERO DUP1 ISZERO PUSH2 0x5F5 JUMPI RETURNDATASIZE PUSH1 0x0 DUP1 RETURNDATACOPY RETURNDATASIZE PUSH1 0x0 REVERT JUMPDEST POP POP POP POP POP POP JUMP JUMPDEST DUP2 ISZERO PUSH2 0x6AB JUMPI PUSH1 0x1 PUSH1 0x0 SWAP1 SLOAD SWAP1 PUSH2 0x100 EXP SWAP1 DIV PUSH20 0xFFFFFFFFFFFFFFFFFFFFFFFFFFFFFFFFFFFFFFFF AND PUSH20 0xFFFFFFFFFFFFFFFFFFFFFFFFFFFFFFFFFFFFFFFF AND PUSH4 0x8FA49F84 DUP8 DUP8 DUP7 PUSH1 0x4 PUSH1 0x1 PUSH1 0x40 MLOAD DUP7 PUSH4 0xFFFFFFFF AND PUSH1 0xE0 SHL DUP2 MSTORE PUSH1 0x4 ADD PUSH2 0x668 SWAP6 SWAP5 SWAP4 SWAP3 SWAP2 SWAP1 PUSH2 0x3310 JUMP JUMPDEST PUSH1 0x0 PUSH1 0x40 MLOAD DUP1 DUP4 SUB DUP2 PUSH1 0x0 DUP8 DUP1 EXTCODESIZE ISZERO DUP1 ISZERO PUSH2 0x682 JUMPI PUSH1 0x0 DUP1 REVERT JUMPDEST POP GAS CALL ISZERO DUP1 ISZERO PUSH2 0x696 JUMPI RETURNDATASIZE PUSH1 0x0 DUP1 RETURNDATACOPY RETURNDATASIZE PUSH1 0x0 REVERT JUMPDEST POP POP POP POP PUSH2 0x6A6 DUP7 DUP6 DUP6 DUP5 PUSH2 0x1D90 JUMP JUMPDEST PUSH2 0x7D5 JUMP JUMPDEST PUSH1 0x1 PUSH1 0x0 SWAP1 SLOAD SWAP1 PUSH2 0x100 EXP SWAP1 DIV PUSH20 0xFFFFFFFFFFFFFFFFFFFFFFFFFFFFFFFFFFFFFFFF AND PUSH20 0xFFFFFFFFFFFFFFFFFFFFFFFFFFFFFFFFFFFFFFFF AND PUSH4 0x8FA49F84 DUP8 DUP7 DUP7 PUSH1 0x3 PUSH1 0x1 PUSH1 0x40 MLOAD DUP7 PUSH4 0xFFFFFFFF AND PUSH1 0xE0 SHL DUP2 MSTORE PUSH1 0x4 ADD PUSH2 0x710 SWAP6 SWAP5 SWAP4 SWAP3 SWAP2 SWAP1 PUSH2 0x3310 JUMP JUMPDEST PUSH1 0x0 PUSH1 0x40 MLOAD DUP1 DUP4 SUB DUP2 PUSH1 0x0 DUP8 DUP1 EXTCODESIZE ISZERO DUP1 ISZERO PUSH2 0x72A JUMPI PUSH1 0x0 DUP1 REVERT JUMPDEST POP GAS CALL ISZERO DUP1 ISZERO PUSH2 0x73E JUMPI RETURNDATASIZE PUSH1 0x0 DUP1 RETURNDATACOPY RETURNDATASIZE PUSH1 0x0 REVERT JUMPDEST POP POP POP POP PUSH1 0x1 PUSH1 0x0 SWAP1 SLOAD SWAP1 PUSH2 0x100 EXP SWAP1 DIV PUSH20 0xFFFFFFFFFFFFFFFFFFFFFFFFFFFFFFFFFFFFFFFF AND PUSH20 0xFFFFFFFFFFFFFFFFFFFFFFFFFFFFFFFFFFFFFFFF AND PUSH4 0x62583A28 DUP8 DUP6 PUSH1 0x3 PUSH1 0x40 MLOAD DUP5 PUSH4 0xFFFFFFFF AND PUSH1 0xE0 SHL DUP2 MSTORE PUSH1 0x4 ADD PUSH2 0x7A2 SWAP4 SWAP3 SWAP2 SWAP1 PUSH2 0x3372 JUMP JUMPDEST PUSH1 0x0 PUSH1 0x40 MLOAD DUP1 DUP4 SUB DUP2 PUSH1 0x0 DUP8 DUP1 EXTCODESIZE ISZERO DUP1 ISZERO PUSH2 0x7BC JUMPI PUSH1 0x0 DUP1 REVERT JUMPDEST POP GAS CALL ISZERO DUP1 ISZERO PUSH2 0x7D0 JUMPI RETURNDATASIZE PUSH1 0x0 DUP1 RETURNDATACOPY RETURNDATASIZE PUSH1 0x0 REVERT JUMPDEST POP POP POP POP JUMPDEST POP POP POP POP POP POP JUMP JUMPDEST PUSH1 0x0 PUSH1 0x60 PUSH1 0x0 PUSH1 0x1 PUSH1 0x0 SWAP1 SLOAD SWAP1 PUSH2 0x100 EXP SWAP1 DIV PUSH20 0xFFFFFFFFFFFFFFFFFFFFFFFFFFFFFFFFFFFFFFFF AND PUSH20 0xFFFFFFFFFFFFFFFFFFFFFFFFFFFFFFFFFFFFFFFF AND PUSH4 0xEEF10AE6 DUP7 DUP7 PUSH1 0x0 PUSH1 0x40 MLOAD DUP5 PUSH4 0xFFFFFFFF AND PUSH1 0xE0 SHL DUP2 MSTORE PUSH1 0x4 ADD PUSH2 0x843 SWAP4 SWAP3 SWAP2 SWAP1 PUSH2 0x33A9 JUMP JUMPDEST PUSH1 0x0 PUSH1 0x40 MLOAD DUP1 DUP4 SUB DUP2 DUP7 GAS STATICCALL ISZERO DUP1 ISZERO PUSH2 0x860 JUMPI RETURNDATASIZE PUSH1 0x0 DUP1 RETURNDATACOPY RETURNDATASIZE PUSH1 0x0 REVERT JUMPDEST POP POP POP POP PUSH1 0x40 MLOAD RETURNDATASIZE PUSH1 0x0 DUP3 RETURNDATACOPY RETURNDATASIZE PUSH1 0x1F NOT PUSH1 0x1F DUP3 ADD AND DUP3 ADD DUP1 PUSH1 0x40 MSTORE POP DUP2 ADD SWAP1 PUSH2 0x889 SWAP2 SWAP1 PUSH2 0x348C JUMP JUMPDEST DUP1 SWAP3 POP DUP2 SWAP4 POP POP POP PUSH1 0x0 DUP3 MLOAD SUB PUSH2 0x8A5 JUMPI PUSH1 0x0 SWAP3 POP POP POP PUSH2 0xB05 JUMP JUMPDEST PUSH1 0x0 JUMPDEST DUP3 MLOAD DUP2 LT ISZERO PUSH2 0x95B JUMPI PUSH1 0x1 PUSH1 0x0 SWAP1 SLOAD SWAP1 PUSH2 0x100 EXP SWAP1 DIV PUSH20 0xFFFFFFFFFFFFFFFFFFFFFFFFFFFFFFFFFFFFFFFF AND PUSH20 0xFFFFFFFFFFFFFFFFFFFFFFFFFFFFFFFFFFFFFFFF AND PUSH4 0x8FA49F84 DUP8 DUP8 DUP5 PUSH1 0x5 PUSH1 0x0 PUSH1 0x40 MLOAD DUP7 PUSH4 0xFFFFFFFF AND PUSH1 0xE0 SHL DUP2 MSTORE PUSH1 0x4 ADD PUSH2 0x916 SWAP6 SWAP5 SWAP4 SWAP3 SWAP2 SWAP1 PUSH2 0x3310 JUMP JUMPDEST PUSH1 0x0 PUSH1 0x40 MLOAD DUP1 DUP4 SUB DUP2 PUSH1 0x0 DUP8 DUP1 EXTCODESIZE ISZERO DUP1 ISZERO PUSH2 0x930 JUMPI PUSH1 0x0 DUP1 REVERT JUMPDEST POP GAS CALL ISZERO DUP1 ISZERO PUSH2 0x944 JUMPI RETURNDATASIZE PUSH1 0x0 DUP1 RETURNDATACOPY RETURNDATASIZE PUSH1 0x0 REVERT JUMPDEST POP POP POP POP DUP1 DUP1 PUSH2 0x953 SWAP1 PUSH2 0x3517 JUMP JUMPDEST SWAP2 POP POP PUSH2 0x8A8 JUMP JUMPDEST POP PUSH1 0x0 PUSH20 0x0 PUSH4 0x4F6CA3CE PUSH1 0x1 PUSH1 0x0 SWAP1 SLOAD SWAP1 PUSH2 0x100 EXP SWAP1 DIV PUSH20 0xFFFFFFFFFFFFFFFFFFFFFFFFFFFFFFFFFFFFFFFF AND PUSH20 0xFFFFFFFFFFFFFFFFFFFFFFFFFFFFFFFFFFFFFFFF AND PUSH4 0xBE7603C7 DUP10 DUP10 PUSH1 0x40 MLOAD DUP4 PUSH4 0xFFFFFFFF AND PUSH1 0xE0 SHL DUP2 MSTORE PUSH1 0x4 ADD PUSH2 0x9D5 SWAP3 SWAP2 SWAP1 PUSH2 0x355F JUMP JUMPDEST PUSH1 0x0 PUSH1 0x40 MLOAD DUP1 DUP4 SUB DUP2 DUP7 GAS STATICCALL ISZERO DUP1 ISZERO PUSH2 0x9F2 JUMPI RETURNDATASIZE PUSH1 0x0 DUP1 RETURNDATACOPY RETURNDATASIZE PUSH1 0x0 REVERT JUMPDEST POP POP POP POP PUSH1 0x40 MLOAD RETURNDATASIZE PUSH1 0x0 DUP3 RETURNDATACOPY RETURNDATASIZE PUSH1 0x1F NOT PUSH1 0x1F DUP3 ADD AND DUP3 ADD DUP1 PUSH1 0x40 MSTORE POP DUP2 ADD SWAP1 PUSH2 0xA1B SWAP2 SWAP1 PUSH2 0x388A JUMP JUMPDEST PUSH1 0x80 ADD MLOAD PUSH1 0x40 MLOAD DUP3 PUSH4 0xFFFFFFFF AND PUSH1 0xE0 SHL DUP2 MSTORE PUSH1 0x4 ADD PUSH2 0xA3B SWAP2 SWAP1 PUSH2 0x38E2 JUMP JUMPDEST PUSH1 0x20 PUSH1 0x40 MLOAD DUP1 DUP4 SUB DUP2 DUP7 GAS DELEGATECALL ISZERO DUP1 ISZERO PUSH2 0xA58 JUMPI RETURNDATASIZE PUSH1 0x0 DUP1 RETURNDATACOPY RETURNDATASIZE PUSH1 0x0 REVERT JUMPDEST POP POP POP POP PUSH1 0x40 MLOAD RETURNDATASIZE PUSH1 0x1F NOT PUSH1 0x1F DUP3 ADD AND DUP3 ADD DUP1 PUSH1 0x40 MSTORE POP DUP2 ADD SWAP1 PUSH2 0xA7C SWAP2 SWAP1 PUSH2 0x38FD JUMP JUMPDEST SWAP1 POP PUSH1 0x0 PUSH20 0x0 PUSH4 0x9CE5C4BF DUP5 DUP5 PUSH1 0x40 MLOAD DUP4 PUSH4 0xFFFFFFFF AND PUSH1 0xE0 SHL DUP2 MSTORE PUSH1 0x4 ADD PUSH2 0xAB9 SWAP3 SWAP2 SWAP1 PUSH2 0x392A JUMP JUMPDEST PUSH1 0x20 PUSH1 0x40 MLOAD DUP1 DUP4 SUB DUP2 DUP7 GAS DELEGATECALL ISZERO DUP1 ISZERO PUSH2 0xAD6 JUMPI RETURNDATASIZE PUSH1 0x0 DUP1 RETURNDATACOPY RETURNDATASIZE PUSH1 0x0 REVERT JUMPDEST POP POP POP POP PUSH1 0x40 MLOAD RETURNDATASIZE PUSH1 0x1F NOT PUSH1 0x1F DUP3 ADD AND DUP3 ADD DUP1 PUSH1 0x40 MSTORE POP DUP2 ADD SWAP1 PUSH2 0xAFA SWAP2 SWAP1 PUSH2 0x38FD JUMP JUMPDEST SWAP1 POP PUSH1 0x1 SWAP5 POP POP POP POP POP JUMPDEST SWAP3 SWAP2 POP POP JUMP JUMPDEST PUSH1 0x0 DUP1 PUSH1 0x1 PUSH1 0x0 SWAP1 SLOAD SWAP1 PUSH2 0x100 EXP SWAP1 DIV PUSH20 0xFFFFFFFFFFFFFFFFFFFFFFFFFFFFFFFFFFFFFFFF AND PUSH20 0xFFFFFFFFFFFFFFFFFFFFFFFFFFFFFFFFFFFFFFFF AND PUSH4 0x8F1844BC DUP5 PUSH1 0x40 MLOAD DUP3 PUSH4 0xFFFFFFFF AND PUSH1 0xE0 SHL DUP2 MSTORE PUSH1 0x4 ADD PUSH2 0xB69 SWAP2 SWAP1 PUSH2 0x3953 JUMP JUMPDEST PUSH1 0x20 PUSH1 0x40 MLOAD DUP1 DUP4 SUB DUP2 PUSH1 0x0 DUP8 GAS CALL ISZERO DUP1 ISZERO PUSH2 0xB88 JUMPI RETURNDATASIZE PUSH1 0x0 DUP1 RETURNDATACOPY RETURNDATASIZE PUSH1 0x0 REVERT JUMPDEST POP POP POP POP PUSH1 0x40 MLOAD RETURNDATASIZE PUSH1 0x1F NOT PUSH1 0x1F DUP3 ADD AND DUP3 ADD DUP1 PUSH1 0x40 MSTORE POP DUP2 ADD SWAP1 PUSH2 0xBAC SWAP2 SWAP1 PUSH2 0x38FD JUMP JUMPDEST SWAP1 POP DUP3 PUSH2 0x140 ADD MLOAD ISZERO PUSH2 0xC3C JUMPI PUSH1 0x2 PUSH1 0x0 SWAP1 SLOAD SWAP1 PUSH2 0x100 EXP SWAP1 DIV PUSH20 0xFFFFFFFFFFFFFFFFFFFFFFFFFFFFFFFFFFFFFFFF AND PUSH20 0xFFFFFFFFFFFFFFFFFFFFFFFFFFFFFFFFFFFFFFFF AND PUSH4 0x460968DD PUSH1 0x40 MLOAD DUP2 PUSH4 0xFFFFFFFF AND PUSH1 0xE0 SHL DUP2 MSTORE PUSH1 0x4 ADD PUSH1 0x0 PUSH1 0x40 MLOAD DUP1 DUP4 SUB DUP2 PUSH1 0x0 DUP8 DUP1 EXTCODESIZE ISZERO DUP1 ISZERO PUSH2 0xC23 JUMPI PUSH1 0x0 DUP1 REVERT JUMPDEST POP GAS CALL ISZERO DUP1 ISZERO PUSH2 0xC37 JUMPI RETURNDATASIZE PUSH1 0x0 DUP1 RETURNDATACOPY RETURNDATASIZE PUSH1 0x0 REVERT JUMPDEST POP POP POP POP JUMPDEST DUP1 SWAP2 POP POP SWAP2 SWAP1 POP JUMP JUMPDEST PUSH2 0xC4D PUSH2 0x1F55 JUMP JUMPDEST PUSH20 0xFFFFFFFFFFFFFFFFFFFFFFFFFFFFFFFFFFFFFFFF AND PUSH2 0xC6B PUSH2 0x3E1 JUMP JUMPDEST PUSH20 0xFFFFFFFFFFFFFFFFFFFFFFFFFFFFFFFFFFFFFFFF AND EQ PUSH2 0xCC1 JUMPI PUSH1 0x40 MLOAD PUSH32 0x8C379A000000000000000000000000000000000000000000000000000000000 DUP2 MSTORE PUSH1 0x4 ADD PUSH2 0xCB8 SWAP1 PUSH2 0x39C1 JUMP JUMPDEST PUSH1 0x40 MLOAD DUP1 SWAP2 SUB SWAP1 REVERT JUMPDEST JUMP JUMPDEST PUSH1 0x0 DUP1 PUSH1 0x0 SWAP1 SLOAD SWAP1 PUSH2 0x100 EXP SWAP1 DIV PUSH20 0xFFFFFFFFFFFFFFFFFFFFFFFFFFFFFFFFFFFFFFFF AND SWAP1 POP DUP2 PUSH1 0x0 DUP1 PUSH2 0x100 EXP DUP2 SLOAD DUP2 PUSH20 0xFFFFFFFFFFFFFFFFFFFFFFFFFFFFFFFFFFFFFFFF MUL NOT AND SWAP1 DUP4 PUSH20 0xFFFFFFFFFFFFFFFFFFFFFFFFFFFFFFFFFFFFFFFF AND MUL OR SWAP1 SSTORE POP DUP2 PUSH20 0xFFFFFFFFFFFFFFFFFFFFFFFFFFFFFFFFFFFFFFFF AND DUP2 PUSH20 0xFFFFFFFFFFFFFFFFFFFFFFFFFFFFFFFFFFFFFFFF AND PUSH32 0x8BE0079C531659141344CD1FD0A4F28419497F9722A3DAAFE3B4186F6B6457E0 PUSH1 0x40 MLOAD PUSH1 0x40 MLOAD DUP1 SWAP2 SUB SWAP1 LOG3 POP POP JUMP JUMPDEST PUSH1 0x0 DUP1 PUSH1 0x1 PUSH1 0x0 SWAP1 SLOAD SWAP1 PUSH2 0x100 EXP SWAP1 DIV PUSH20 0xFFFFFFFFFFFFFFFFFFFFFFFFFFFFFFFFFFFFFFFF AND PUSH20 0xFFFFFFFFFFFFFFFFFFFFFFFFFFFFFFFFFFFFFFFF AND PUSH4 0xF0F3F2C8 DUP5 PUSH1 0x40 MLOAD DUP3 PUSH4 0xFFFFFFFF AND PUSH1 0xE0 SHL DUP2 MSTORE PUSH1 0x4 ADD PUSH2 0xDE5 SWAP2 SWAP1 PUSH2 0x29A4 JUMP JUMPDEST PUSH1 0x0 PUSH1 0x40 MLOAD DUP1 DUP4 SUB DUP2 DUP7 GAS STATICCALL ISZERO DUP1 ISZERO PUSH2 0xE02 JUMPI RETURNDATASIZE PUSH1 0x0 DUP1 RETURNDATACOPY RETURNDATASIZE PUSH1 0x0 REVERT JUMPDEST POP POP POP POP PUSH1 0x40 MLOAD RETURNDATASIZE PUSH1 0x0 DUP3 RETURNDATACOPY RETURNDATASIZE PUSH1 0x1F NOT PUSH1 0x1F DUP3 ADD AND DUP3 ADD DUP1 PUSH1 0x40 MSTORE POP DUP2 ADD SWAP1 PUSH2 0xE2B SWAP2 SWAP1 PUSH2 0x403E JUMP JUMPDEST SWAP1 POP PUSH1 0x0 DUP2 PUSH2 0x1C0 ADD MLOAD SWAP1 POP PUSH1 0x0 DUP3 PUSH2 0x1A0 ADD MLOAD SWAP1 POP PUSH1 0x1 PUSH1 0x0 SWAP1 SLOAD SWAP1 PUSH2 0x100 EXP SWAP1 DIV PUSH20 0xFFFFFFFFFFFFFFFFFFFFFFFFFFFFFFFFFFFFFFFF AND PUSH20 0xFFFFFFFFFFFFFFFFFFFFFFFFFFFFFFFFFFFFFFFF AND PUSH4 0x8A9A9FF3 DUP7 PUSH1 0x1 PUSH1 0x40 MLOAD DUP4 PUSH4 0xFFFFFFFF AND PUSH1 0xE0 SHL DUP2 MSTORE PUSH1 0x4 ADD PUSH2 0xE9F SWAP3 SWAP2 SWAP1 PUSH2 0x4087 JUMP JUMPDEST PUSH1 0x20 PUSH1 0x40 MLOAD DUP1 DUP4 SUB DUP2 DUP7 GAS STATICCALL ISZERO DUP1 ISZERO PUSH2 0xEBC JUMPI RETURNDATASIZE PUSH1 0x0 DUP1 RETURNDATACOPY RETURNDATASIZE PUSH1 0x0 REVERT JUMPDEST POP POP POP POP PUSH1 0x40 MLOAD RETURNDATASIZE PUSH1 0x1F NOT PUSH1 0x1F DUP3 ADD AND DUP3 ADD DUP1 PUSH1 0x40 MSTORE POP DUP2 ADD SWAP1 PUSH2 0xEE0 SWAP2 SWAP1 PUSH2 0x40B0 JUMP JUMPDEST ISZERO PUSH2 0xEF1 JUMPI PUSH1 0x1 SWAP4 POP POP POP POP PUSH2 0x1193 JUMP JUMPDEST PUSH1 0x0 DUP3 MLOAD SUB PUSH2 0xF93 JUMPI PUSH1 0x1 PUSH1 0x0 SWAP1 SLOAD SWAP1 PUSH2 0x100 EXP SWAP1 DIV PUSH20 0xFFFFFFFFFFFFFFFFFFFFFFFFFFFFFFFFFFFFFFFF AND PUSH20 0xFFFFFFFFFFFFFFFFFFFFFFFFFFFFFFFFFFFFFFFF AND PUSH4 0xEA60F28C DUP7 PUSH1 0x40 MLOAD DUP3 PUSH4 0xFFFFFFFF AND PUSH1 0xE0 SHL DUP2 MSTORE PUSH1 0x4 ADD PUSH2 0xF55 SWAP2 SWAP1 PUSH2 0x29A4 JUMP JUMPDEST PUSH1 0x0 PUSH1 0x40 MLOAD DUP1 DUP4 SUB DUP2 PUSH1 0x0 DUP8 DUP1 EXTCODESIZE ISZERO DUP1 ISZERO PUSH2 0xF6F JUMPI PUSH1 0x0 DUP1 REVERT JUMPDEST POP GAS CALL ISZERO DUP1 ISZERO PUSH2 0xF83 JUMPI RETURNDATASIZE PUSH1 0x0 DUP1 RETURNDATACOPY RETURNDATASIZE PUSH1 0x0 REVERT JUMPDEST POP POP POP POP PUSH1 0x0 SWAP4 POP POP POP POP PUSH2 0x1193 JUMP JUMPDEST PUSH1 0x0 DUP4 PUSH2 0x1A0 ADD MLOAD MLOAD SWAP1 POP PUSH1 0x0 DUP4 MLOAD SWAP1 POP PUSH1 0x0 DUP2 DUP4 PUSH2 0xFB2 SWAP2 SWAP1 PUSH2 0x410C JUMP JUMPDEST SWAP1 POP PUSH1 0x0 JUMPDEST DUP5 MLOAD DUP2 LT ISZERO PUSH2 0x10FA JUMPI PUSH1 0x0 PUSH1 0x7 DUP2 GT ISZERO PUSH2 0xFD4 JUMPI PUSH2 0xFD3 PUSH2 0x2FD2 JUMP JUMPDEST JUMPDEST DUP6 DUP3 DUP2 MLOAD DUP2 LT PUSH2 0xFE7 JUMPI PUSH2 0xFE6 PUSH2 0x413D JUMP JUMPDEST JUMPDEST PUSH1 0x20 MUL PUSH1 0x20 ADD ADD MLOAD PUSH1 0x60 ADD MLOAD PUSH1 0x7 DUP2 GT ISZERO PUSH2 0x1005 JUMPI PUSH2 0x1004 PUSH2 0x2FD2 JUMP JUMPDEST JUMPDEST SUB PUSH2 0x10E7 JUMPI PUSH1 0x0 JUMPDEST DUP7 MLOAD DUP2 LT ISZERO PUSH2 0x10E5 JUMPI DUP3 DUP8 DUP3 DUP2 MLOAD DUP2 LT PUSH2 0x102A JUMPI PUSH2 0x1029 PUSH2 0x413D JUMP JUMPDEST JUMPDEST PUSH1 0x20 MUL PUSH1 0x20 ADD ADD MLOAD PUSH1 0x20 ADD MLOAD MLOAD GT PUSH2 0x10D2 JUMPI PUSH1 0x1 PUSH1 0x0 SWAP1 SLOAD SWAP1 PUSH2 0x100 EXP SWAP1 DIV PUSH20 0xFFFFFFFFFFFFFFFFFFFFFFFFFFFFFFFFFFFFFFFF AND PUSH20 0xFFFFFFFFFFFFFFFFFFFFFFFFFFFFFFFFFFFFFFFF AND PUSH4 0xC39A6BCC DUP12 DUP5 DUP5 PUSH1 0x40 MLOAD DUP5 PUSH4 0xFFFFFFFF AND PUSH1 0xE0 SHL DUP2 MSTORE PUSH1 0x4 ADD PUSH2 0x109B SWAP4 SWAP3 SWAP2 SWAP1 PUSH2 0x416C JUMP JUMPDEST PUSH1 0x0 PUSH1 0x40 MLOAD DUP1 DUP4 SUB DUP2 PUSH1 0x0 DUP8 DUP1 EXTCODESIZE ISZERO DUP1 ISZERO PUSH2 0x10B5 JUMPI PUSH1 0x0 DUP1 REVERT JUMPDEST POP GAS CALL ISZERO DUP1 ISZERO PUSH2 0x10C9 JUMPI RETURNDATASIZE PUSH1 0x0 DUP1 RETURNDATACOPY RETURNDATASIZE PUSH1 0x0 REVERT JUMPDEST POP POP POP POP PUSH2 0x10E5 JUMP JUMPDEST DUP1 DUP1 PUSH2 0x10DD SWAP1 PUSH2 0x3517 JUMP JUMPDEST SWAP2 POP POP PUSH2 0x100D JUMP JUMPDEST POP JUMPDEST DUP1 DUP1 PUSH2 0x10F2 SWAP1 PUSH2 0x3517 JUMP JUMPDEST SWAP2 POP POP PUSH2 0xFB7 JUMP JUMPDEST POP PUSH1 0x1 PUSH1 0x0 SWAP1 SLOAD SWAP1 PUSH2 0x100 EXP SWAP1 DIV PUSH20 0xFFFFFFFFFFFFFFFFFFFFFFFFFFFFFFFFFFFFFFFF AND PUSH20 0xFFFFFFFFFFFFFFFFFFFFFFFFFFFFFFFFFFFFFFFF AND PUSH4 0xEA60F28C DUP10 PUSH1 0x40 MLOAD DUP3 PUSH4 0xFFFFFFFF AND PUSH1 0xE0 SHL DUP2 MSTORE PUSH1 0x4 ADD PUSH2 0x1156 SWAP2 SWAP1 PUSH2 0x29A4 JUMP JUMPDEST PUSH1 0x0 PUSH1 0x40 MLOAD DUP1 DUP4 SUB DUP2 PUSH1 0x0 DUP8 DUP1 EXTCODESIZE ISZERO DUP1 ISZERO PUSH2 0x1170 JUMPI PUSH1 0x0 DUP1 REVERT JUMPDEST POP GAS CALL ISZERO DUP1 ISZERO PUSH2 0x1184 JUMPI RETURNDATASIZE PUSH1 0x0 DUP1 RETURNDATACOPY RETURNDATASIZE PUSH1 0x0 REVERT JUMPDEST POP POP POP POP PUSH1 0x0 SWAP7 POP POP POP POP POP POP POP JUMPDEST SWAP2 SWAP1 POP JUMP JUMPDEST PUSH1 0x1 PUSH1 0x0 SWAP1 SLOAD SWAP1 PUSH2 0x100 EXP SWAP1 DIV PUSH20 0xFFFFFFFFFFFFFFFFFFFFFFFFFFFFFFFFFFFFFFFF AND PUSH20 0xFFFFFFFFFFFFFFFFFFFFFFFFFFFFFFFFFFFFFFFF AND PUSH4 0x62583A28 DUP6 DUP6 PUSH1 0x2 PUSH1 0x40 MLOAD DUP5 PUSH4 0xFFFFFFFF AND PUSH1 0xE0 SHL DUP2 MSTORE PUSH1 0x4 ADD PUSH2 0x11F8 SWAP4 SWAP3 SWAP2 SWAP1 PUSH2 0x3372 JUMP JUMPDEST PUSH1 0x0 PUSH1 0x40 MLOAD DUP1 DUP4 SUB DUP2 PUSH1 0x0 DUP8 DUP1 EXTCODESIZE ISZERO DUP1 ISZERO PUSH2 0x1212 JUMPI PUSH1 0x0 DUP1 REVERT JUMPDEST POP GAS CALL ISZERO DUP1 ISZERO PUSH2 0x1226 JUMPI RETURNDATASIZE PUSH1 0x0 DUP1 RETURNDATACOPY RETURNDATASIZE PUSH1 0x0 REVERT JUMPDEST POP POP POP POP PUSH1 0x1 PUSH1 0x0 SWAP1 SLOAD SWAP1 PUSH2 0x100 EXP SWAP1 DIV PUSH20 0xFFFFFFFFFFFFFFFFFFFFFFFFFFFFFFFFFFFFFFFF AND PUSH20 0xFFFFFFFFFFFFFFFFFFFFFFFFFFFFFFFFFFFFFFFF AND PUSH4 0xAE6008E3 DUP6 DUP6 DUP6 DUP6 PUSH1 0x1 PUSH1 0x40 MLOAD DUP7 PUSH4 0xFFFFFFFF AND PUSH1 0xE0 SHL DUP2 MSTORE PUSH1 0x4 ADD PUSH2 0x128E SWAP6 SWAP5 SWAP4 SWAP3 SWAP2 SWAP1 PUSH2 0x41DC JUMP JUMPDEST PUSH1 0x0 PUSH1 0x40 MLOAD DUP1 DUP4 SUB DUP2 PUSH1 0x0 DUP8 DUP1 EXTCODESIZE ISZERO DUP1 ISZERO PUSH2 0x12A8 JUMPI PUSH1 0x0 DUP1 REVERT JUMPDEST POP GAS CALL ISZERO DUP1 ISZERO PUSH2 0x12BC JUMPI RETURNDATASIZE PUSH1 0x0 DUP1 RETURNDATACOPY RETURNDATASIZE PUSH1 0x0 REVERT JUMPDEST POP POP POP POP PUSH1 0x1 PUSH1 0x0 SWAP1 SLOAD SWAP1 PUSH2 0x100 EXP SWAP1 DIV PUSH20 0xFFFFFFFFFFFFFFFFFFFFFFFFFFFFFFFFFFFFFFFF AND PUSH20 0xFFFFFFFFFFFFFFFFFFFFFFFFFFFFFFFFFFFFFFFF AND PUSH4 0x8FA49F84 DUP6 DUP6 DUP6 PUSH1 0x2 PUSH1 0x1 PUSH1 0x40 MLOAD DUP7 PUSH4 0xFFFFFFFF AND PUSH1 0xE0 SHL DUP2 MSTORE PUSH1 0x4 ADD PUSH2 0x1325 SWAP6 SWAP5 SWAP4 SWAP3 SWAP2 SWAP1 PUSH2 0x3310 JUMP JUMPDEST PUSH1 0x0 PUSH1 0x40 MLOAD DUP1 DUP4 SUB DUP2 PUSH1 0x0 DUP8 DUP1 EXTCODESIZE ISZERO DUP1 ISZERO PUSH2 0x133F JUMPI PUSH1 0x0 DUP1 REVERT JUMPDEST POP GAS CALL ISZERO DUP1 ISZERO PUSH2 0x1353 JUMPI RETURNDATASIZE PUSH1 0x0 DUP1 RETURNDATACOPY RETURNDATASIZE PUSH1 0x0 REVERT JUMPDEST POP POP POP POP POP POP POP POP JUMP JUMPDEST PUSH1 0x0 DUP1 PUSH1 0x1 PUSH1 0x0 SWAP1 SLOAD SWAP1 PUSH2 0x100 EXP SWAP1 DIV PUSH20 0xFFFFFFFFFFFFFFFFFFFFFFFFFFFFFFFFFFFFFFFF AND PUSH20 0xFFFFFFFFFFFFFFFFFFFFFFFFFFFFFFFFFFFFFFFF AND PUSH4 0xF0F3F2C8 DUP5 PUSH1 0x40 MLOAD DUP3 PUSH4 0xFFFFFFFF AND PUSH1 0xE0 SHL DUP2 MSTORE PUSH1 0x4 ADD PUSH2 0x13BB SWAP2 SWAP1 PUSH2 0x29A4 JUMP JUMPDEST PUSH1 0x0 PUSH1 0x40 MLOAD DUP1 DUP4 SUB DUP2 DUP7 GAS STATICCALL ISZERO DUP1 ISZERO PUSH2 0x13D8 JUMPI RETURNDATASIZE PUSH1 0x0 DUP1 RETURNDATACOPY RETURNDATASIZE PUSH1 0x0 REVERT JUMPDEST POP POP POP POP PUSH1 0x40 MLOAD RETURNDATASIZE PUSH1 0x0 DUP3 RETURNDATACOPY RETURNDATASIZE PUSH1 0x1F NOT PUSH1 0x1F DUP3 ADD AND DUP3 ADD DUP1 PUSH1 0x40 MSTORE POP DUP2 ADD SWAP1 PUSH2 0x1401 SWAP2 SWAP1 PUSH2 0x403E JUMP JUMPDEST SWAP1 POP PUSH1 0x0 DUP2 PUSH2 0x1E0 ADD MLOAD SWAP1 POP PUSH1 0x0 DUP3 PUSH2 0x1A0 ADD MLOAD SWAP1 POP PUSH1 0x1 PUSH1 0x0 SWAP1 SLOAD SWAP1 PUSH2 0x100 EXP SWAP1 DIV PUSH20 0xFFFFFFFFFFFFFFFFFFFFFFFFFFFFFFFFFFFFFFFF AND PUSH20 0xFFFFFFFFFFFFFFFFFFFFFFFFFFFFFFFFFFFFFFFF AND PUSH4 0x8A9A9FF3 DUP7 PUSH1 0x0 PUSH1 0x40 MLOAD DUP4 PUSH4 0xFFFFFFFF AND PUSH1 0xE0 SHL DUP2 MSTORE PUSH1 0x4 ADD PUSH2 0x1475 SWAP3 SWAP2 SWAP1 PUSH2 0x4087 JUMP JUMPDEST PUSH1 0x20 PUSH1 0x40 MLOAD DUP1 DUP4 SUB DUP2 DUP7 GAS STATICCALL ISZERO DUP1 ISZERO PUSH2 0x1492 JUMPI RETURNDATASIZE PUSH1 0x0 DUP1 RETURNDATACOPY RETURNDATASIZE PUSH1 0x0 REVERT JUMPDEST POP POP POP POP PUSH1 0x40 MLOAD RETURNDATASIZE PUSH1 0x1F NOT PUSH1 0x1F DUP3 ADD AND DUP3 ADD DUP1 PUSH1 0x40 MSTORE POP DUP2 ADD SWAP1 PUSH2 0x14B6 SWAP2 SWAP1 PUSH2 0x40B0 JUMP JUMPDEST ISZERO PUSH2 0x14C7 JUMPI PUSH1 0x1 SWAP4 POP POP POP POP PUSH2 0x17F9 JUMP JUMPDEST PUSH1 0x0 DUP3 MLOAD SUB PUSH2 0x15F9 JUMPI PUSH1 0x1 PUSH1 0x0 SWAP1 SLOAD SWAP1 PUSH2 0x100 EXP SWAP1 DIV PUSH20 0xFFFFFFFFFFFFFFFFFFFFFFFFFFFFFFFFFFFFFFFF AND PUSH20 0xFFFFFFFFFFFFFFFFFFFFFFFFFFFFFFFFFFFFFFFF AND PUSH4 0xFFBAFDFE DUP7 PUSH1 0x3 PUSH1 0x40 MLOAD DUP4 PUSH4 0xFFFFFFFF AND PUSH1 0xE0 SHL DUP2 MSTORE PUSH1 0x4 ADD PUSH2 0x152E SWAP3 SWAP2 SWAP1 PUSH2 0x427E JUMP JUMPDEST PUSH1 0x0 PUSH1 0x40 MLOAD DUP1 DUP4 SUB DUP2 PUSH1 0x0 DUP8 DUP1 EXTCODESIZE ISZERO DUP1 ISZERO PUSH2 0x1548 JUMPI PUSH1 0x0 DUP1 REVERT JUMPDEST POP GAS CALL ISZERO DUP1 ISZERO PUSH2 0x155C JUMPI RETURNDATASIZE PUSH1 0x0 DUP1 RETURNDATACOPY RETURNDATASIZE PUSH1 0x0 REVERT JUMPDEST POP POP POP POP PUSH1 0x1 PUSH1 0x0 SWAP1 SLOAD SWAP1 PUSH2 0x100 EXP SWAP1 DIV PUSH20 0xFFFFFFFFFFFFFFFFFFFFFFFFFFFFFFFFFFFFFFFF AND PUSH20 0xFFFFFFFFFFFFFFFFFFFFFFFFFFFFFFFFFFFFFFFF AND PUSH4 0xDF3A726F DUP7 PUSH1 0x40 MLOAD DUP3 PUSH4 0xFFFFFFFF AND PUSH1 0xE0 SHL DUP2 MSTORE PUSH1 0x4 ADD PUSH2 0x15BB SWAP2 SWAP1 PUSH2 0x29A4 JUMP JUMPDEST PUSH1 0x0 PUSH1 0x40 MLOAD DUP1 DUP4 SUB DUP2 PUSH1 0x0 DUP8 DUP1 EXTCODESIZE ISZERO DUP1 ISZERO PUSH2 0x15D5 JUMPI PUSH1 0x0 DUP1 REVERT JUMPDEST POP GAS CALL ISZERO DUP1 ISZERO PUSH2 0x15E9 JUMPI RETURNDATASIZE PUSH1 0x0 DUP1 RETURNDATACOPY RETURNDATASIZE PUSH1 0x0 REVERT JUMPDEST POP POP POP POP PUSH1 0x0 SWAP4 POP POP POP POP PUSH2 0x17F9 JUMP JUMPDEST PUSH1 0x0 DUP4 PUSH2 0x1A0 ADD MLOAD MLOAD SWAP1 POP PUSH1 0x0 DUP4 MLOAD SWAP1 POP PUSH1 0x0 DUP2 DUP4 PUSH2 0x1618 SWAP2 SWAP1 PUSH2 0x410C JUMP JUMPDEST SWAP1 POP PUSH1 0x0 JUMPDEST DUP5 MLOAD DUP2 LT ISZERO PUSH2 0x1760 JUMPI PUSH1 0x0 PUSH1 0x7 DUP2 GT ISZERO PUSH2 0x163A JUMPI PUSH2 0x1639 PUSH2 0x2FD2 JUMP JUMPDEST JUMPDEST DUP6 DUP3 DUP2 MLOAD DUP2 LT PUSH2 0x164D JUMPI PUSH2 0x164C PUSH2 0x413D JUMP JUMPDEST JUMPDEST PUSH1 0x20 MUL PUSH1 0x20 ADD ADD MLOAD PUSH1 0x60 ADD MLOAD PUSH1 0x7 DUP2 GT ISZERO PUSH2 0x166B JUMPI PUSH2 0x166A PUSH2 0x2FD2 JUMP JUMPDEST JUMPDEST SUB PUSH2 0x174D JUMPI PUSH1 0x0 JUMPDEST DUP7 MLOAD DUP2 LT ISZERO PUSH2 0x174B JUMPI DUP3 DUP8 DUP3 DUP2 MLOAD DUP2 LT PUSH2 0x1690 JUMPI PUSH2 0x168F PUSH2 0x413D JUMP JUMPDEST JUMPDEST PUSH1 0x20 MUL PUSH1 0x20 ADD ADD MLOAD PUSH1 0x20 ADD MLOAD MLOAD GT PUSH2 0x1738 JUMPI PUSH1 0x1 PUSH1 0x0 SWAP1 SLOAD SWAP1 PUSH2 0x100 EXP SWAP1 DIV PUSH20 0xFFFFFFFFFFFFFFFFFFFFFFFFFFFFFFFFFFFFFFFF AND PUSH20 0xFFFFFFFFFFFFFFFFFFFFFFFFFFFFFFFFFFFFFFFF AND PUSH4 0xC39A6BCC DUP12 DUP5 DUP5 PUSH1 0x40 MLOAD DUP5 PUSH4 0xFFFFFFFF AND PUSH1 0xE0 SHL DUP2 MSTORE PUSH1 0x4 ADD PUSH2 0x1701 SWAP4 SWAP3 SWAP2 SWAP1 PUSH2 0x416C JUMP JUMPDEST PUSH1 0x0 PUSH1 0x40 MLOAD DUP1 DUP4 SUB DUP2 PUSH1 0x0 DUP8 DUP1 EXTCODESIZE ISZERO DUP1 ISZERO PUSH2 0x171B JUMPI PUSH1 0x0 DUP1 REVERT JUMPDEST POP GAS CALL ISZERO DUP1 ISZERO PUSH2 0x172F JUMPI RETURNDATASIZE PUSH1 0x0 DUP1 RETURNDATACOPY RETURNDATASIZE PUSH1 0x0 REVERT JUMPDEST POP POP POP POP PUSH2 0x174B JUMP JUMPDEST DUP1 DUP1 PUSH2 0x1743 SWAP1 PUSH2 0x3517 JUMP JUMPDEST SWAP2 POP POP PUSH2 0x1673 JUMP JUMPDEST POP JUMPDEST DUP1 DUP1 PUSH2 0x1758 SWAP1 PUSH2 0x3517 JUMP JUMPDEST SWAP2 POP POP PUSH2 0x161D JUMP JUMPDEST POP PUSH1 0x1 PUSH1 0x0 SWAP1 SLOAD SWAP1 PUSH2 0x100 EXP SWAP1 DIV PUSH20 0xFFFFFFFFFFFFFFFFFFFFFFFFFFFFFFFFFFFFFFFF AND PUSH20 0xFFFFFFFFFFFFFFFFFFFFFFFFFFFFFFFFFFFFFFFF AND PUSH4 0xDF3A726F DUP10 PUSH1 0x40 MLOAD DUP3 PUSH4 0xFFFFFFFF AND PUSH1 0xE0 SHL DUP2 MSTORE PUSH1 0x4 ADD PUSH2 0x17BC SWAP2 SWAP1 PUSH2 0x29A4 JUMP JUMPDEST PUSH1 0x0 PUSH1 0x40 MLOAD DUP1 DUP4 SUB DUP2 PUSH1 0x0 DUP8 DUP1 EXTCODESIZE ISZERO DUP1 ISZERO PUSH2 0x17D6 JUMPI PUSH1 0x0 DUP1 REVERT JUMPDEST POP GAS CALL ISZERO DUP1 ISZERO PUSH2 0x17EA JUMPI RETURNDATASIZE PUSH1 0x0 DUP1 RETURNDATACOPY RETURNDATASIZE PUSH1 0x0 REVERT JUMPDEST POP POP POP POP PUSH1 0x0 SWAP7 POP POP POP POP POP POP POP JUMPDEST SWAP2 SWAP1 POP JUMP JUMPDEST DUP1 ISZERO PUSH2 0x1932 JUMPI PUSH1 0x1 PUSH1 0x0 SWAP1 SLOAD SWAP1 PUSH2 0x100 EXP SWAP1 DIV PUSH20 0xFFFFFFFFFFFFFFFFFFFFFFFFFFFFFFFFFFFFFFFF AND PUSH20 0xFFFFFFFFFFFFFFFFFFFFFFFFFFFFFFFFFFFFFFFF AND PUSH4 0x8FA49F84 DUP6 DUP6 DUP6 PUSH1 0x4 PUSH1 0x0 PUSH1 0x40 MLOAD DUP7 PUSH4 0xFFFFFFFF AND PUSH1 0xE0 SHL DUP2 MSTORE PUSH1 0x4 ADD PUSH2 0x1869 SWAP6 SWAP5 SWAP4 SWAP3 SWAP2 SWAP1 PUSH2 0x3310 JUMP JUMPDEST PUSH1 0x0 PUSH1 0x40 MLOAD DUP1 DUP4 SUB DUP2 PUSH1 0x0 DUP8 DUP1 EXTCODESIZE ISZERO DUP1 ISZERO PUSH2 0x1883 JUMPI PUSH1 0x0 DUP1 REVERT JUMPDEST POP GAS CALL ISZERO DUP1 ISZERO PUSH2 0x1897 JUMPI RETURNDATASIZE PUSH1 0x0 DUP1 RETURNDATACOPY RETURNDATASIZE PUSH1 0x0 REVERT JUMPDEST POP POP POP POP PUSH1 0x1 PUSH1 0x0 SWAP1 SLOAD SWAP1 PUSH2 0x100 EXP SWAP1 DIV PUSH20 0xFFFFFFFFFFFFFFFFFFFFFFFFFFFFFFFFFFFFFFFF AND PUSH20 0xFFFFFFFFFFFFFFFFFFFFFFFFFFFFFFFFFFFFFFFF AND PUSH4 0x62583A28 DUP6 DUP5 PUSH1 0x6 PUSH1 0x40 MLOAD DUP5 PUSH4 0xFFFFFFFF AND PUSH1 0xE0 SHL DUP2 MSTORE PUSH1 0x4 ADD PUSH2 0x18FB SWAP4 SWAP3 SWAP2 SWAP1 PUSH2 0x3372 JUMP JUMPDEST PUSH1 0x0 PUSH1 0x40 MLOAD DUP1 DUP4 SUB DUP2 PUSH1 0x0 DUP8 DUP1 EXTCODESIZE ISZERO DUP1 ISZERO PUSH2 0x1915 JUMPI PUSH1 0x0 DUP1 REVERT JUMPDEST POP GAS CALL ISZERO DUP1 ISZERO PUSH2 0x1929 JUMPI RETURNDATASIZE PUSH1 0x0 DUP1 RETURNDATACOPY RETURNDATASIZE PUSH1 0x0 REVERT JUMPDEST POP POP POP POP PUSH2 0x1A5C JUMP JUMPDEST PUSH1 0x1 PUSH1 0x0 SWAP1 SLOAD SWAP1 PUSH2 0x100 EXP SWAP1 DIV PUSH20 0xFFFFFFFFFFFFFFFFFFFFFFFFFFFFFFFFFFFFFFFF AND PUSH20 0xFFFFFFFFFFFFFFFFFFFFFFFFFFFFFFFFFFFFFFFF AND PUSH4 0x8FA49F84 DUP6 DUP6 DUP6 PUSH1 0x3 PUSH1 0x0 PUSH1 0x40 MLOAD DUP7 PUSH4 0xFFFFFFFF AND PUSH1 0xE0 SHL DUP2 MSTORE PUSH1 0x4 ADD PUSH2 0x1997 SWAP6 SWAP5 SWAP4 SWAP3 SWAP2 SWAP1 PUSH2 0x3310 JUMP JUMPDEST PUSH1 0x0 PUSH1 0x40 MLOAD DUP1 DUP4 SUB DUP2 PUSH1 0x0 DUP8 DUP1 EXTCODESIZE ISZERO DUP1 ISZERO PUSH2 0x19B1 JUMPI PUSH1 0x0 DUP1 REVERT JUMPDEST POP GAS CALL ISZERO DUP1 ISZERO PUSH2 0x19C5 JUMPI RETURNDATASIZE PUSH1 0x0 DUP1 RETURNDATACOPY RETURNDATASIZE PUSH1 0x0 REVERT JUMPDEST POP POP POP POP PUSH1 0x1 PUSH1 0x0 SWAP1 SLOAD SWAP1 PUSH2 0x100 EXP SWAP1 DIV PUSH20 0xFFFFFFFFFFFFFFFFFFFFFFFFFFFFFFFFFFFFFFFF AND PUSH20 0xFFFFFFFFFFFFFFFFFFFFFFFFFFFFFFFFFFFFFFFF AND PUSH4 0x62583A28 DUP6 DUP5 PUSH1 0x5 PUSH1 0x40 MLOAD DUP5 PUSH4 0xFFFFFFFF AND PUSH1 0xE0 SHL DUP2 MSTORE PUSH1 0x4 ADD PUSH2 0x1A29 SWAP4 SWAP3 SWAP2 SWAP1 PUSH2 0x3372 JUMP JUMPDEST PUSH1 0x0 PUSH1 0x40 MLOAD DUP1 DUP4 SUB DUP2 PUSH1 0x0 DUP8 DUP1 EXTCODESIZE ISZERO DUP1 ISZERO PUSH2 0x1A43 JUMPI PUSH1 0x0 DUP1 REVERT JUMPDEST POP GAS CALL ISZERO DUP1 ISZERO PUSH2 0x1A57 JUMPI RETURNDATASIZE PUSH1 0x0 DUP1 RETURNDATACOPY RETURNDATASIZE PUSH1 0x0 REVERT JUMPDEST POP POP POP POP JUMPDEST POP POP POP POP JUMP JUMPDEST PUSH1 0x0 PUSH1 0x60 PUSH1 0x0 PUSH1 0x1 PUSH1 0x0 SWAP1 SLOAD SWAP1 PUSH2 0x100 EXP SWAP1 DIV PUSH20 0xFFFFFFFFFFFFFFFFFFFFFFFFFFFFFFFFFFFFFFFF AND PUSH20 0xFFFFFFFFFFFFFFFFFFFFFFFFFFFFFFFFFFFFFFFF AND PUSH4 0xEEF10AE6 DUP7 DUP7 PUSH1 0x1 PUSH1 0x40 MLOAD DUP5 PUSH4 0xFFFFFFFF AND PUSH1 0xE0 SHL DUP2 MSTORE PUSH1 0x4 ADD PUSH2 0x1AC8 SWAP4 SWAP3 SWAP2 SWAP1 PUSH2 0x33A9 JUMP JUMPDEST PUSH1 0x0 PUSH1 0x40 MLOAD DUP1 DUP4 SUB DUP2 DUP7 GAS STATICCALL ISZERO DUP1 ISZERO PUSH2 0x1AE5 JUMPI RETURNDATASIZE PUSH1 0x0 DUP1 RETURNDATACOPY RETURNDATASIZE PUSH1 0x0 REVERT JUMPDEST POP POP POP POP PUSH1 0x40 MLOAD RETURNDATASIZE PUSH1 0x0 DUP3 RETURNDATACOPY RETURNDATASIZE PUSH1 0x1F NOT PUSH1 0x1F DUP3 ADD AND DUP3 ADD DUP1 PUSH1 0x40 MSTORE POP DUP2 ADD SWAP1 PUSH2 0x1B0E SWAP2 SWAP1 PUSH2 0x348C JUMP JUMPDEST DUP1 SWAP3 POP DUP2 SWAP4 POP POP POP PUSH1 0x0 DUP3 MLOAD SUB PUSH2 0x1B2A JUMPI PUSH1 0x0 SWAP3 POP POP POP PUSH2 0x1D8A JUMP JUMPDEST PUSH1 0x0 JUMPDEST DUP3 MLOAD DUP2 LT ISZERO PUSH2 0x1BE0 JUMPI PUSH1 0x1 PUSH1 0x0 SWAP1 SLOAD SWAP1 PUSH2 0x100 EXP SWAP1 DIV PUSH20 0xFFFFFFFFFFFFFFFFFFFFFFFFFFFFFFFFFFFFFFFF AND PUSH20 0xFFFFFFFFFFFFFFFFFFFFFFFFFFFFFFFFFFFFFFFF AND PUSH4 0x8FA49F84 DUP8 DUP8 DUP5 PUSH1 0x5 PUSH1 0x1 PUSH1 0x40 MLOAD DUP7 PUSH4 0xFFFFFFFF AND PUSH1 0xE0 SHL DUP2 MSTORE PUSH1 0x4 ADD PUSH2 0x1B9B SWAP6 SWAP5 SWAP4 SWAP3 SWAP2 SWAP1 PUSH2 0x3310 JUMP JUMPDEST PUSH1 0x0 PUSH1 0x40 MLOAD DUP1 DUP4 SUB DUP2 PUSH1 0x0 DUP8 DUP1 EXTCODESIZE ISZERO DUP1 ISZERO PUSH2 0x1BB5 JUMPI PUSH1 0x0 DUP1 REVERT JUMPDEST POP GAS CALL ISZERO DUP1 ISZERO PUSH2 0x1BC9 JUMPI RETURNDATASIZE PUSH1 0x0 DUP1 RETURNDATACOPY RETURNDATASIZE PUSH1 0x0 REVERT JUMPDEST POP POP POP POP DUP1 DUP1 PUSH2 0x1BD8 SWAP1 PUSH2 0x3517 JUMP JUMPDEST SWAP2 POP POP PUSH2 0x1B2D JUMP JUMPDEST POP PUSH1 0x0 PUSH20 0x0 PUSH4 0x4F6CA3CE PUSH1 0x1 PUSH1 0x0 SWAP1 SLOAD SWAP1 PUSH2 0x100 EXP SWAP1 DIV PUSH20 0xFFFFFFFFFFFFFFFFFFFFFFFFFFFFFFFFFFFFFFFF AND PUSH20 0xFFFFFFFFFFFFFFFFFFFFFFFFFFFFFFFFFFFFFFFF AND PUSH4 0x84800370 DUP10 DUP10 PUSH1 0x40 MLOAD DUP4 PUSH4 0xFFFFFFFF AND PUSH1 0xE0 SHL DUP2 MSTORE PUSH1 0x4 ADD PUSH2 0x1C5A SWAP3 SWAP2 SWAP1 PUSH2 0x355F JUMP JUMPDEST PUSH1 0x0 PUSH1 0x40 MLOAD DUP1 DUP4 SUB DUP2 DUP7 GAS STATICCALL ISZERO DUP1 ISZERO PUSH2 0x1C77 JUMPI RETURNDATASIZE PUSH1 0x0 DUP1 RETURNDATACOPY RETURNDATASIZE PUSH1 0x0 REVERT JUMPDEST POP POP POP POP PUSH1 0x40 MLOAD RETURNDATASIZE PUSH1 0x0 DUP3 RETURNDATACOPY RETURNDATASIZE PUSH1 0x1F NOT PUSH1 0x1F DUP3 ADD AND DUP3 ADD DUP1 PUSH1 0x40 MSTORE POP DUP2 ADD SWAP1 PUSH2 0x1CA0 SWAP2 SWAP1 PUSH2 0x388A JUMP JUMPDEST PUSH1 0x80 ADD MLOAD PUSH1 0x40 MLOAD DUP3 PUSH4 0xFFFFFFFF AND PUSH1 0xE0 SHL DUP2 MSTORE PUSH1 0x4 ADD PUSH2 0x1CC0 SWAP2 SWAP1 PUSH2 0x38E2 JUMP JUMPDEST PUSH1 0x20 PUSH1 0x40 MLOAD DUP1 DUP4 SUB DUP2 DUP7 GAS DELEGATECALL ISZERO DUP1 ISZERO PUSH2 0x1CDD JUMPI RETURNDATASIZE PUSH1 0x0 DUP1 RETURNDATACOPY RETURNDATASIZE PUSH1 0x0 REVERT JUMPDEST POP POP POP POP PUSH1 0x40 MLOAD RETURNDATASIZE PUSH1 0x1F NOT PUSH1 0x1F DUP3 ADD AND DUP3 ADD DUP1 PUSH1 0x40 MSTORE POP DUP2 ADD SWAP1 PUSH2 0x1D01 SWAP2 SWAP1 PUSH2 0x38FD JUMP JUMPDEST SWAP1 POP PUSH1 0x0 PUSH20 0x0 PUSH4 0x9CE5C4BF DUP5 DUP5 PUSH1 0x40 MLOAD DUP4 PUSH4 0xFFFFFFFF AND PUSH1 0xE0 SHL DUP2 MSTORE PUSH1 0x4 ADD PUSH2 0x1D3E SWAP3 SWAP2 SWAP1 PUSH2 0x392A JUMP JUMPDEST PUSH1 0x20 PUSH1 0x40 MLOAD DUP1 DUP4 SUB DUP2 DUP7 GAS DELEGATECALL ISZERO DUP1 ISZERO PUSH2 0x1D5B JUMPI RETURNDATASIZE PUSH1 0x0 DUP1 RETURNDATACOPY RETURNDATASIZE PUSH1 0x0 REVERT JUMPDEST POP POP POP POP PUSH1 0x40 MLOAD RETURNDATASIZE PUSH1 0x1F NOT PUSH1 0x1F DUP3 ADD AND DUP3 ADD DUP1 PUSH1 0x40 MSTORE POP DUP2 ADD SWAP1 PUSH2 0x1D7F SWAP2 SWAP1 PUSH2 0x38FD JUMP JUMPDEST SWAP1 POP PUSH1 0x1 SWAP5 POP POP POP POP POP JUMPDEST SWAP3 SWAP2 POP POP JUMP JUMPDEST PUSH1 0x1 PUSH1 0x0 SWAP1 SLOAD SWAP1 PUSH2 0x100 EXP SWAP1 DIV PUSH20 0xFFFFFFFFFFFFFFFFFFFFFFFFFFFFFFFFFFFFFFFF AND PUSH20 0xFFFFFFFFFFFFFFFFFFFFFFFFFFFFFFFFFFFFFFFF AND PUSH4 0x62583A28 DUP6 DUP6 PUSH1 0x4 PUSH1 0x40 MLOAD DUP5 PUSH4 0xFFFFFFFF AND PUSH1 0xE0 SHL DUP2 MSTORE PUSH1 0x4 ADD PUSH2 0x1DF0 SWAP4 SWAP3 SWAP2 SWAP1 PUSH2 0x3372 JUMP JUMPDEST PUSH1 0x0 PUSH1 0x40 MLOAD DUP1 DUP4 SUB DUP2 PUSH1 0x0 DUP8 DUP1 EXTCODESIZE ISZERO DUP1 ISZERO PUSH2 0x1E0A JUMPI PUSH1 0x0 DUP1 REVERT JUMPDEST POP GAS CALL ISZERO DUP1 ISZERO PUSH2 0x1E1E JUMPI RETURNDATASIZE PUSH1 0x0 DUP1 RETURNDATACOPY RETURNDATASIZE PUSH1 0x0 REVERT JUMPDEST POP POP POP POP PUSH1 0x1 PUSH1 0x0 SWAP1 SLOAD SWAP1 PUSH2 0x100 EXP SWAP1 DIV PUSH20 0xFFFFFFFFFFFFFFFFFFFFFFFFFFFFFFFFFFFFFFFF AND PUSH20 0xFFFFFFFFFFFFFFFFFFFFFFFFFFFFFFFFFFFFFFFF AND PUSH4 0xAE6008E3 DUP6 DUP6 DUP6 DUP6 PUSH1 0x0 PUSH1 0x40 MLOAD DUP7 PUSH4 0xFFFFFFFF AND PUSH1 0xE0 SHL DUP2 MSTORE PUSH1 0x4 ADD PUSH2 0x1E86 SWAP6 SWAP5 SWAP4 SWAP3 SWAP2 SWAP1 PUSH2 0x41DC JUMP JUMPDEST PUSH1 0x0 PUSH1 0x40 MLOAD DUP1 DUP4 SUB DUP2 PUSH1 0x0 DUP8 DUP1 EXTCODESIZE ISZERO DUP1 ISZERO PUSH2 0x1EA0 JUMPI PUSH1 0x0 DUP1 REVERT JUMPDEST POP GAS CALL ISZERO DUP1 ISZERO PUSH2 0x1EB4 JUMPI RETURNDATASIZE PUSH1 0x0 DUP1 RETURNDATACOPY RETURNDATASIZE PUSH1 0x0 REVERT JUMPDEST POP POP POP POP PUSH1 0x1 PUSH1 0x0 SWAP1 SLOAD SWAP1 PUSH2 0x100 EXP SWAP1 DIV PUSH20 0xFFFFFFFFFFFFFFFFFFFFFFFFFFFFFFFFFFFFFFFF AND PUSH20 0xFFFFFFFFFFFFFFFFFFFFFFFFFFFFFFFFFFFFFFFF AND PUSH4 0x8FA49F84 DUP6 DUP6 DUP6 PUSH1 0x2 PUSH1 0x0 PUSH1 0x40 MLOAD DUP7 PUSH4 0xFFFFFFFF AND PUSH1 0xE0 SHL DUP2 MSTORE PUSH1 0x4 ADD PUSH2 0x1F1D SWAP6 SWAP5 SWAP4 SWAP3 SWAP2 SWAP1 PUSH2 0x3310 JUMP JUMPDEST PUSH1 0x0 PUSH1 0x40 MLOAD DUP1 DUP4 SUB DUP2 PUSH1 0x0 DUP8 DUP1 EXTCODESIZE ISZERO DUP1 ISZERO PUSH2 0x1F37 JUMPI PUSH1 0x0 DUP1 REVERT JUMPDEST POP GAS CALL ISZERO DUP1 ISZERO PUSH2 0x1F4B JUMPI RETURNDATASIZE PUSH1 0x0 DUP1 RETURNDATACOPY RETURNDATASIZE PUSH1 0x0 REVERT JUMPDEST POP POP POP POP POP POP POP POP JUMP JUMPDEST PUSH1 0x0 CALLER SWAP1 POP SWAP1 JUMP JUMPDEST PUSH1 0x0 PUSH1 0x40 MLOAD SWAP1 POP SWAP1 JUMP JUMPDEST PUSH1 0x0 DUP1 REVERT JUMPDEST PUSH1 0x0 DUP1 REVERT JUMPDEST PUSH1 0x0 DUP2 SWAP1 POP SWAP2 SWAP1 POP JUMP JUMPDEST PUSH2 0x1F84 DUP2 PUSH2 0x1F71 JUMP JUMPDEST DUP2 EQ PUSH2 0x1F8F JUMPI PUSH1 0x0 DUP1 REVERT JUMPDEST POP JUMP JUMPDEST PUSH1 0x0 DUP2 CALLDATALOAD SWAP1 POP PUSH2 0x1FA1 DUP2 PUSH2 0x1F7B JUMP JUMPDEST SWAP3 SWAP2 POP POP JUMP JUMPDEST PUSH1 0x0 DUP1 REVERT JUMPDEST PUSH1 0x0 PUSH1 0x1F NOT PUSH1 0x1F DUP4 ADD AND SWAP1 POP SWAP2 SWAP1 POP JUMP JUMPDEST PUSH32 0x4E487B7100000000000000000000000000000000000000000000000000000000 PUSH1 0x0 MSTORE PUSH1 0x41 PUSH1 0x4 MSTORE PUSH1 0x24 PUSH1 0x0 REVERT JUMPDEST PUSH2 0x1FF5 DUP3 PUSH2 0x1FAC JUMP JUMPDEST DUP2 ADD DUP2 DUP2 LT PUSH8 0xFFFFFFFFFFFFFFFF DUP3 GT OR ISZERO PUSH2 0x2014 JUMPI PUSH2 0x2013 PUSH2 0x1FBD JUMP JUMPDEST JUMPDEST DUP1 PUSH1 0x40 MSTORE POP POP POP JUMP JUMPDEST PUSH1 0x0 PUSH2 0x2027 PUSH2 0x1F5D JUMP JUMPDEST SWAP1 POP PUSH2 0x2033 DUP3 DUP3 PUSH2 0x1FEC JUMP JUMPDEST SWAP2 SWAP1 POP JUMP JUMPDEST PUSH1 0x0 DUP1 REVERT JUMPDEST PUSH1 0x0 DUP1 REVERT JUMPDEST PUSH1 0x0 DUP1 REVERT JUMPDEST PUSH1 0x0 PUSH8 0xFFFFFFFFFFFFFFFF DUP3 GT ISZERO PUSH2 0x2062 JUMPI PUSH2 0x2061 PUSH2 0x1FBD JUMP JUMPDEST JUMPDEST PUSH2 0x206B DUP3 PUSH2 0x1FAC JUMP JUMPDEST SWAP1 POP PUSH1 0x20 DUP2 ADD SWAP1 POP SWAP2 SWAP1 POP JUMP JUMPDEST DUP3 DUP2 DUP4 CALLDATACOPY PUSH1 0x0 DUP4 DUP4 ADD MSTORE POP POP POP JUMP JUMPDEST PUSH1 0x0 PUSH2 0x209A PUSH2 0x2095 DUP5 PUSH2 0x2047 JUMP JUMPDEST PUSH2 0x201D JUMP JUMPDEST SWAP1 POP DUP3 DUP2 MSTORE PUSH1 0x20 DUP2 ADD DUP5 DUP5 DUP5 ADD GT ISZERO PUSH2 0x20B6 JUMPI PUSH2 0x20B5 PUSH2 0x2042 JUMP JUMPDEST JUMPDEST PUSH2 0x20C1 DUP5 DUP3 DUP6 PUSH2 0x2078 JUMP JUMPDEST POP SWAP4 SWAP3 POP POP POP JUMP JUMPDEST PUSH1 0x0 DUP3 PUSH1 0x1F DUP4 ADD SLT PUSH2 0x20DE JUMPI PUSH2 0x20DD PUSH2 0x203D JUMP JUMPDEST JUMPDEST DUP2 CALLDATALOAD PUSH2 0x20EE DUP5 DUP3 PUSH1 0x20 DUP7 ADD PUSH2 0x2087 JUMP JUMPDEST SWAP2 POP POP SWAP3 SWAP2 POP POP JUMP JUMPDEST PUSH1 0x0 PUSH8 0xFFFFFFFFFFFFFFFF DUP3 GT ISZERO PUSH2 0x2112 JUMPI PUSH2 0x2111 PUSH2 0x1FBD JUMP JUMPDEST JUMPDEST PUSH1 0x20 DUP3 MUL SWAP1 POP PUSH1 0x20 DUP2 ADD SWAP1 POP SWAP2 SWAP1 POP JUMP JUMPDEST PUSH1 0x0 DUP1 REVERT JUMPDEST PUSH1 0x0 PUSH2 0x213B PUSH2 0x2136 DUP5 PUSH2 0x20F7 JUMP JUMPDEST PUSH2 0x201D JUMP JUMPDEST SWAP1 POP DUP1 DUP4 DUP3 MSTORE PUSH1 0x20 DUP3 ADD SWAP1 POP PUSH1 0x20 DUP5 MUL DUP4 ADD DUP6 DUP2 GT ISZERO PUSH2 0x215E JUMPI PUSH2 0x215D PUSH2 0x2123 JUMP JUMPDEST JUMPDEST DUP4 JUMPDEST DUP2 DUP2 LT ISZERO PUSH2 0x21A5 JUMPI DUP1 CALLDATALOAD PUSH8 0xFFFFFFFFFFFFFFFF DUP2 GT ISZERO PUSH2 0x2183 JUMPI PUSH2 0x2182 PUSH2 0x203D JUMP JUMPDEST JUMPDEST DUP1 DUP7 ADD PUSH2 0x2190 DUP10 DUP3 PUSH2 0x20C9 JUMP JUMPDEST DUP6 MSTORE PUSH1 0x20 DUP6 ADD SWAP5 POP POP POP PUSH1 0x20 DUP2 ADD SWAP1 POP PUSH2 0x2160 JUMP JUMPDEST POP POP POP SWAP4 SWAP3 POP POP POP JUMP JUMPDEST PUSH1 0x0 DUP3 PUSH1 0x1F DUP4 ADD SLT PUSH2 0x21C4 JUMPI PUSH2 0x21C3 PUSH2 0x203D JUMP JUMPDEST JUMPDEST DUP2 CALLDATALOAD PUSH2 0x21D4 DUP5 DUP3 PUSH1 0x20 DUP7 ADD PUSH2 0x2128 JUMP JUMPDEST SWAP2 POP POP SWAP3 SWAP2 POP POP JUMP JUMPDEST PUSH1 0x0 DUP2 ISZERO ISZERO SWAP1 POP SWAP2 SWAP1 POP JUMP JUMPDEST PUSH2 0x21F2 DUP2 PUSH2 0x21DD JUMP JUMPDEST DUP2 EQ PUSH2 0x21FD JUMPI PUSH1 0x0 DUP1 REVERT JUMPDEST POP JUMP JUMPDEST PUSH1 0x0 DUP2 CALLDATALOAD SWAP1 POP PUSH2 0x220F DUP2 PUSH2 0x21E9 JUMP JUMPDEST SWAP3 SWAP2 POP POP JUMP JUMPDEST PUSH1 0x0 PUSH8 0xFFFFFFFFFFFFFFFF DUP3 GT ISZERO PUSH2 0x2230 JUMPI PUSH2 0x222F PUSH2 0x1FBD JUMP JUMPDEST JUMPDEST PUSH1 0x20 DUP3 MUL SWAP1 POP PUSH1 0x20 DUP2 ADD SWAP1 POP SWAP2 SWAP1 POP JUMP JUMPDEST PUSH1 0x0 PUSH1 0xE0 DUP3 DUP5 SUB SLT ISZERO PUSH2 0x2257 JUMPI PUSH2 0x2256 PUSH2 0x1FA7 JUMP JUMPDEST JUMPDEST PUSH2 0x2261 PUSH1 0xE0 PUSH2 0x201D JUMP JUMPDEST SWAP1 POP PUSH1 0x0 DUP3 ADD CALLDATALOAD PUSH8 0xFFFFFFFFFFFFFFFF DUP2 GT ISZERO PUSH2 0x2281 JUMPI PUSH2 0x2280 PUSH2 0x2038 JUMP JUMPDEST JUMPDEST PUSH2 0x228D DUP5 DUP3 DUP6 ADD PUSH2 0x20C9 JUMP JUMPDEST PUSH1 0x0 DUP4 ADD MSTORE POP PUSH1 0x20 PUSH2 0x22A1 DUP5 DUP3 DUP6 ADD PUSH2 0x1F92 JUMP JUMPDEST PUSH1 0x20 DUP4 ADD MSTORE POP PUSH1 0x40 PUSH2 0x22B5 DUP5 DUP3 DUP6 ADD PUSH2 0x1F92 JUMP JUMPDEST PUSH1 0x40 DUP4 ADD MSTORE POP PUSH1 0x60 PUSH2 0x22C9 DUP5 DUP3 DUP6 ADD PUSH2 0x1F92 JUMP JUMPDEST PUSH1 0x60 DUP4 ADD MSTORE POP PUSH1 0x80 PUSH2 0x22DD DUP5 DUP3 DUP6 ADD PUSH2 0x1F92 JUMP JUMPDEST PUSH1 0x80 DUP4 ADD MSTORE POP PUSH1 0xA0 PUSH2 0x22F1 DUP5 DUP3 DUP6 ADD PUSH2 0x1F92 JUMP JUMPDEST PUSH1 0xA0 DUP4 ADD MSTORE POP PUSH1 0xC0 DUP3 ADD CALLDATALOAD PUSH8 0xFFFFFFFFFFFFFFFF DUP2 GT ISZERO PUSH2 0x2315 JUMPI PUSH2 0x2314 PUSH2 0x2038 JUMP JUMPDEST JUMPDEST PUSH2 0x2321 DUP5 DUP3 DUP6 ADD PUSH2 0x20C9 JUMP JUMPDEST PUSH1 0xC0 DUP4 ADD MSTORE POP SWAP3 SWAP2 POP POP JUMP JUMPDEST PUSH1 0x8 DUP2 LT PUSH2 0x233A JUMPI PUSH1 0x0 DUP1 REVERT JUMPDEST POP JUMP JUMPDEST PUSH1 0x0 DUP2 CALLDATALOAD SWAP1 POP PUSH2 0x234C DUP2 PUSH2 0x232D JUMP JUMPDEST SWAP3 SWAP2 POP POP JUMP JUMPDEST PUSH1 0x0 PUSH1 0xA0 DUP3 DUP5 SUB SLT ISZERO PUSH2 0x2368 JUMPI PUSH2 0x2367 PUSH2 0x1FA7 JUMP JUMPDEST JUMPDEST PUSH2 0x2372 PUSH1 0xA0 PUSH2 0x201D JUMP JUMPDEST SWAP1 POP PUSH1 0x0 DUP3 ADD CALLDATALOAD PUSH8 0xFFFFFFFFFFFFFFFF DUP2 GT ISZERO PUSH2 0x2392 JUMPI PUSH2 0x2391 PUSH2 0x2038 JUMP JUMPDEST JUMPDEST PUSH2 0x239E DUP5 DUP3 DUP6 ADD PUSH2 0x2241 JUMP JUMPDEST PUSH1 0x0 DUP4 ADD MSTORE POP PUSH1 0x20 PUSH2 0x23B2 DUP5 DUP3 DUP6 ADD PUSH2 0x1F92 JUMP JUMPDEST PUSH1 0x20 DUP4 ADD MSTORE POP PUSH1 0x40 DUP3 ADD CALLDATALOAD PUSH8 0xFFFFFFFFFFFFFFFF DUP2 GT ISZERO PUSH2 0x23D6 JUMPI PUSH2 0x23D5 PUSH2 0x2038 JUMP JUMPDEST JUMPDEST PUSH2 0x23E2 DUP5 DUP3 DUP6 ADD PUSH2 0x20C9 JUMP JUMPDEST PUSH1 0x40 DUP4 ADD MSTORE POP PUSH1 0x60 PUSH2 0x23F6 DUP5 DUP3 DUP6 ADD PUSH2 0x233D JUMP JUMPDEST PUSH1 0x60 DUP4 ADD MSTORE POP PUSH1 0x80 PUSH2 0x240A DUP5 DUP3 DUP6 ADD PUSH2 0x1F92 JUMP JUMPDEST PUSH1 0x80 DUP4 ADD MSTORE POP SWAP3 SWAP2 POP POP JUMP JUMPDEST PUSH1 0x0 PUSH2 0x2429 PUSH2 0x2424 DUP5 PUSH2 0x2215 JUMP JUMPDEST PUSH2 0x201D JUMP JUMPDEST SWAP1 POP DUP1 DUP4 DUP3 MSTORE PUSH1 0x20 DUP3 ADD SWAP1 POP PUSH1 0x20 DUP5 MUL DUP4 ADD DUP6 DUP2 GT ISZERO PUSH2 0x244C JUMPI PUSH2 0x244B PUSH2 0x2123 JUMP JUMPDEST JUMPDEST DUP4 JUMPDEST DUP2 DUP2 LT ISZERO PUSH2 0x2493 JUMPI DUP1 CALLDATALOAD PUSH8 0xFFFFFFFFFFFFFFFF DUP2 GT ISZERO PUSH2 0x2471 JUMPI PUSH2 0x2470 PUSH2 0x203D JUMP JUMPDEST JUMPDEST DUP1 DUP7 ADD PUSH2 0x247E DUP10 DUP3 PUSH2 0x2352 JUMP JUMPDEST DUP6 MSTORE PUSH1 0x20 DUP6 ADD SWAP5 POP POP POP PUSH1 0x20 DUP2 ADD SWAP1 POP PUSH2 0x244E JUMP JUMPDEST POP POP POP SWAP4 SWAP3 POP POP POP JUMP JUMPDEST PUSH1 0x0 DUP3 PUSH1 0x1F DUP4 ADD SLT PUSH2 0x24B2 JUMPI PUSH2 0x24B1 PUSH2 0x203D JUMP JUMPDEST JUMPDEST DUP2 CALLDATALOAD PUSH2 0x24C2 DUP5 DUP3 PUSH1 0x20 DUP7 ADD PUSH2 0x2416 JUMP JUMPDEST SWAP2 POP POP SWAP3 SWAP2 POP POP JUMP JUMPDEST PUSH1 0x0 PUSH2 0x1A0 DUP3 DUP5 SUB SLT ISZERO PUSH2 0x24E2 JUMPI PUSH2 0x24E1 PUSH2 0x1FA7 JUMP JUMPDEST JUMPDEST PUSH2 0x24ED PUSH2 0x1A0 PUSH2 0x201D JUMP JUMPDEST SWAP1 POP PUSH1 0x0 PUSH2 0x24FD DUP5 DUP3 DUP6 ADD PUSH2 0x1F92 JUMP JUMPDEST PUSH1 0x0 DUP4 ADD MSTORE POP PUSH1 0x20 DUP3 ADD CALLDATALOAD PUSH8 0xFFFFFFFFFFFFFFFF DUP2 GT ISZERO PUSH2 0x2521 JUMPI PUSH2 0x2520 PUSH2 0x2038 JUMP JUMPDEST JUMPDEST PUSH2 0x252D DUP5 DUP3 DUP6 ADD PUSH2 0x20C9 JUMP JUMPDEST PUSH1 0x20 DUP4 ADD MSTORE POP PUSH1 0x40 DUP3 ADD CALLDATALOAD PUSH8 0xFFFFFFFFFFFFFFFF DUP2 GT ISZERO PUSH2 0x2551 JUMPI PUSH2 0x2550 PUSH2 0x2038 JUMP JUMPDEST JUMPDEST PUSH2 0x255D DUP5 DUP3 DUP6 ADD PUSH2 0x20C9 JUMP JUMPDEST PUSH1 0x40 DUP4 ADD MSTORE POP PUSH1 0x60 PUSH2 0x2571 DUP5 DUP3 DUP6 ADD PUSH2 0x1F92 JUMP JUMPDEST PUSH1 0x60 DUP4 ADD MSTORE POP PUSH1 0x80 DUP3 ADD CALLDATALOAD PUSH8 0xFFFFFFFFFFFFFFFF DUP2 GT ISZERO PUSH2 0x2595 JUMPI PUSH2 0x2594 PUSH2 0x2038 JUMP JUMPDEST JUMPDEST PUSH2 0x25A1 DUP5 DUP3 DUP6 ADD PUSH2 0x20C9 JUMP JUMPDEST PUSH1 0x80 DUP4 ADD MSTORE POP PUSH1 0xA0 DUP3 ADD CALLDATALOAD PUSH8 0xFFFFFFFFFFFFFFFF DUP2 GT ISZERO PUSH2 0x25C5 JUMPI PUSH2 0x25C4 PUSH2 0x2038 JUMP JUMPDEST JUMPDEST PUSH2 0x25D1 DUP5 DUP3 DUP6 ADD PUSH2 0x20C9 JUMP JUMPDEST PUSH1 0xA0 DUP4 ADD MSTORE POP PUSH1 0xC0 DUP3 ADD CALLDATALOAD PUSH8 0xFFFFFFFFFFFFFFFF DUP2 GT ISZERO PUSH2 0x25F5 JUMPI PUSH2 0x25F4 PUSH2 0x2038 JUMP JUMPDEST JUMPDEST PUSH2 0x2601 DUP5 DUP3 DUP6 ADD PUSH2 0x21AF JUMP JUMPDEST PUSH1 0xC0 DUP4 ADD MSTORE POP PUSH1 0xE0 PUSH2 0x2615 DUP5 DUP3 DUP6 ADD PUSH2 0x1F92 JUMP JUMPDEST PUSH1 0xE0 DUP4 ADD MSTORE POP PUSH2 0x100 PUSH2 0x262A DUP5 DUP3 DUP6 ADD PUSH2 0x1F92 JUMP JUMPDEST PUSH2 0x100 DUP4 ADD MSTORE POP PUSH2 0x120 PUSH2 0x2640 DUP5 DUP3 DUP6 ADD PUSH2 0x2200 JUMP JUMPDEST PUSH2 0x120 DUP4 ADD MSTORE POP PUSH2 0x140 PUSH2 0x2656 DUP5 DUP3 DUP6 ADD PUSH2 0x2200 JUMP JUMPDEST PUSH2 0x140 DUP4 ADD MSTORE POP PUSH2 0x160 PUSH2 0x266C DUP5 DUP3 DUP6 ADD PUSH2 0x1F92 JUMP JUMPDEST PUSH2 0x160 DUP4 ADD MSTORE POP PUSH2 0x180 DUP3 ADD CALLDATALOAD PUSH8 0xFFFFFFFFFFFFFFFF DUP2 GT ISZERO PUSH2 0x2692 JUMPI PUSH2 0x2691 PUSH2 0x2038 JUMP JUMPDEST JUMPDEST PUSH2 0x269E DUP5 DUP3 DUP6 ADD PUSH2 0x249D JUMP JUMPDEST PUSH2 0x180 DUP4 ADD MSTORE POP SWAP3 SWAP2 POP POP JUMP JUMPDEST PUSH1 0x0 DUP1 PUSH1 0x40 DUP4 DUP6 SUB SLT ISZERO PUSH2 0x26C2 JUMPI PUSH2 0x26C1 PUSH2 0x1F67 JUMP JUMPDEST JUMPDEST PUSH1 0x0 PUSH2 0x26D0 DUP6 DUP3 DUP7 ADD PUSH2 0x1F92 JUMP JUMPDEST SWAP3 POP POP PUSH1 0x20 DUP4 ADD CALLDATALOAD PUSH8 0xFFFFFFFFFFFFFFFF DUP2 GT ISZERO PUSH2 0x26F1 JUMPI PUSH2 0x26F0 PUSH2 0x1F6C JUMP JUMPDEST JUMPDEST PUSH2 0x26FD DUP6 DUP3 DUP7 ADD PUSH2 0x24CB JUMP JUMPDEST SWAP2 POP POP SWAP3 POP SWAP3 SWAP1 POP JUMP JUMPDEST PUSH1 0x0 PUSH8 0xFFFFFFFFFFFFFFFF DUP3 GT ISZERO PUSH2 0x2722 JUMPI PUSH2 0x2721 PUSH2 0x1FBD JUMP JUMPDEST JUMPDEST PUSH1 0x20 DUP3 MUL SWAP1 POP PUSH1 0x20 DUP2 ADD SWAP1 POP SWAP2 SWAP1 POP JUMP JUMPDEST PUSH1 0x0 PUSH2 0x2746 PUSH2 0x2741 DUP5 PUSH2 0x2707 JUMP JUMPDEST PUSH2 0x201D JUMP JUMPDEST SWAP1 POP DUP1 DUP4 DUP3 MSTORE PUSH1 0x20 DUP3 ADD SWAP1 POP PUSH1 0x20 DUP5 MUL DUP4 ADD DUP6 DUP2 GT ISZERO PUSH2 0x2769 JUMPI PUSH2 0x2768 PUSH2 0x2123 JUMP JUMPDEST JUMPDEST DUP4 JUMPDEST DUP2 DUP2 LT ISZERO PUSH2 0x2792 JUMPI DUP1 PUSH2 0x277E DUP9 DUP3 PUSH2 0x1F92 JUMP JUMPDEST DUP5 MSTORE PUSH1 0x20 DUP5 ADD SWAP4 POP POP PUSH1 0x20 DUP2 ADD SWAP1 POP PUSH2 0x276B JUMP JUMPDEST POP POP POP SWAP4 SWAP3 POP POP POP JUMP JUMPDEST PUSH1 0x0 DUP3 PUSH1 0x1F DUP4 ADD SLT PUSH2 0x27B1 JUMPI PUSH2 0x27B0 PUSH2 0x203D JUMP JUMPDEST JUMPDEST DUP2 CALLDATALOAD PUSH2 0x27C1 DUP5 DUP3 PUSH1 0x20 DUP7 ADD PUSH2 0x2733 JUMP JUMPDEST SWAP2 POP POP SWAP3 SWAP2 POP POP JUMP JUMPDEST PUSH1 0x0 DUP1 PUSH1 0x0 PUSH1 0x60 DUP5 DUP7 SUB SLT ISZERO PUSH2 0x27E3 JUMPI PUSH2 0x27E2 PUSH2 0x1F67 JUMP JUMPDEST JUMPDEST PUSH1 0x0 PUSH2 0x27F1 DUP7 DUP3 DUP8 ADD PUSH2 0x1F92 JUMP JUMPDEST SWAP4 POP POP PUSH1 0x20 DUP5 ADD CALLDATALOAD PUSH8 0xFFFFFFFFFFFFFFFF DUP2 GT ISZERO PUSH2 0x2812 JUMPI PUSH2 0x2811 PUSH2 0x1F6C JUMP JUMPDEST JUMPDEST PUSH2 0x281E DUP7 DUP3 DUP8 ADD PUSH2 0x279C JUMP JUMPDEST SWAP3 POP POP PUSH1 0x40 PUSH2 0x282F DUP7 DUP3 DUP8 ADD PUSH2 0x1F92 JUMP JUMPDEST SWAP2 POP POP SWAP3 POP SWAP3 POP SWAP3 JUMP JUMPDEST PUSH1 0x0 DUP1 PUSH1 0x0 DUP1 PUSH1 0x0 DUP1 PUSH1 0xC0 DUP8 DUP10 SUB SLT ISZERO PUSH2 0x2856 JUMPI PUSH2 0x2855 PUSH2 0x1F67 JUMP JUMPDEST JUMPDEST PUSH1 0x0 PUSH2 0x2864 DUP10 DUP3 DUP11 ADD PUSH2 0x1F92 JUMP JUMPDEST SWAP7 POP POP PUSH1 0x20 PUSH2 0x2875 DUP10 DUP3 DUP11 ADD PUSH2 0x1F92 JUMP JUMPDEST SWAP6 POP POP PUSH1 0x40 PUSH2 0x2886 DUP10 DUP3 DUP11 ADD PUSH2 0x1F92 JUMP JUMPDEST SWAP5 POP POP PUSH1 0x60 PUSH2 0x2897 DUP10 DUP3 DUP11 ADD PUSH2 0x1F92 JUMP JUMPDEST SWAP4 POP POP PUSH1 0x80 PUSH2 0x28A8 DUP10 DUP3 DUP11 ADD PUSH2 0x2200 JUMP JUMPDEST SWAP3 POP POP PUSH1 0xA0 DUP8 ADD CALLDATALOAD PUSH8 0xFFFFFFFFFFFFFFFF DUP2 GT ISZERO PUSH2 0x28C9 JUMPI PUSH2 0x28C8 PUSH2 0x1F6C JUMP JUMPDEST JUMPDEST PUSH2 0x28D5 DUP10 DUP3 DUP11 ADD PUSH2 0x20C9 JUMP JUMPDEST SWAP2 POP POP SWAP3 SWAP6 POP SWAP3 SWAP6 POP SWAP3 SWAP6 JUMP JUMPDEST PUSH1 0x0 DUP1 PUSH1 0x40 DUP4 DUP6 SUB SLT ISZERO PUSH2 0x28F9 JUMPI PUSH2 0x28F8 PUSH2 0x1F67 JUMP JUMPDEST JUMPDEST PUSH1 0x0 PUSH2 0x2907 DUP6 DUP3 DUP7 ADD PUSH2 0x1F92 JUMP JUMPDEST SWAP3 POP POP PUSH1 0x20 PUSH2 0x2918 DUP6 DUP3 DUP7 ADD PUSH2 0x1F92 JUMP JUMPDEST SWAP2 POP POP SWAP3 POP SWAP3 SWAP1 POP JUMP JUMPDEST PUSH2 0x292B DUP2 PUSH2 0x21DD JUMP JUMPDEST DUP3 MSTORE POP POP JUMP JUMPDEST PUSH1 0x0 PUSH1 0x20 DUP3 ADD SWAP1 POP PUSH2 0x2946 PUSH1 0x0 DUP4 ADD DUP5 PUSH2 0x2922 JUMP JUMPDEST SWAP3 SWAP2 POP POP JUMP JUMPDEST PUSH1 0x0 PUSH1 0x20 DUP3 DUP5 SUB SLT ISZERO PUSH2 0x2962 JUMPI PUSH2 0x2961 PUSH2 0x1F67 JUMP JUMPDEST JUMPDEST PUSH1 0x0 DUP3 ADD CALLDATALOAD PUSH8 0xFFFFFFFFFFFFFFFF DUP2 GT ISZERO PUSH2 0x2980 JUMPI PUSH2 0x297F PUSH2 0x1F6C JUMP JUMPDEST JUMPDEST PUSH2 0x298C DUP5 DUP3 DUP6 ADD PUSH2 0x24CB JUMP JUMPDEST SWAP2 POP POP SWAP3 SWAP2 POP POP JUMP JUMPDEST PUSH2 0x299E DUP2 PUSH2 0x1F71 JUMP JUMPDEST DUP3 MSTORE POP POP JUMP JUMPDEST PUSH1 0x0 PUSH1 0x20 DUP3 ADD SWAP1 POP PUSH2 0x29B9 PUSH1 0x0 DUP4 ADD DUP5 PUSH2 0x2995 JUMP JUMPDEST SWAP3 SWAP2 POP POP JUMP JUMPDEST PUSH1 0x0 DUP1 PUSH1 0x0 DUP1 PUSH1 0x0 PUSH1 0xA0 DUP7 DUP9 SUB SLT ISZERO PUSH2 0x29DB JUMPI PUSH2 0x29DA PUSH2 0x1F67 JUMP JUMPDEST JUMPDEST PUSH1 0x0 PUSH2 0x29E9 DUP9 DUP3 DUP10 ADD PUSH2 0x1F92 JUMP JUMPDEST SWAP6 POP POP PUSH1 0x20 PUSH2 0x29FA DUP9 DUP3 DUP10 ADD PUSH2 0x1F92 JUMP JUMPDEST SWAP5 POP POP PUSH1 0x40 PUSH2 0x2A0B DUP9 DUP3 DUP10 ADD PUSH2 0x1F92 JUMP JUMPDEST SWAP4 POP POP PUSH1 0x60 PUSH2 0x2A1C DUP9 DUP3 DUP10 ADD PUSH2 0x1F92 JUMP JUMPDEST SWAP3 POP POP PUSH1 0x80 PUSH2 0x2A2D DUP9 DUP3 DUP10 ADD PUSH2 0x2200 JUMP JUMPDEST SWAP2 POP POP SWAP3 SWAP6 POP SWAP3 SWAP6 SWAP1 SWAP4 POP JUMP JUMPDEST PUSH1 0x0 PUSH1 0x20 DUP3 DUP5 SUB SLT ISZERO PUSH2 0x2A50 JUMPI PUSH2 0x2A4F PUSH2 0x1F67 JUMP JUMPDEST JUMPDEST PUSH1 0x0 PUSH2 0x2A5E DUP5 DUP3 DUP6 ADD PUSH2 0x1F92 JUMP JUMPDEST SWAP2 POP POP SWAP3 SWAP2 POP POP JUMP JUMPDEST PUSH1 0x0 PUSH20 0xFFFFFFFFFFFFFFFFFFFFFFFFFFFFFFFFFFFFFFFF DUP3 AND SWAP1 POP SWAP2 SWAP1 POP JUMP JUMPDEST PUSH1 0x0 PUSH2 0x2A92 DUP3 PUSH2 0x2A67 JUMP JUMPDEST SWAP1 POP SWAP2 SWAP1 POP JUMP JUMPDEST PUSH2 0x2AA2 DUP2 PUSH2 0x2A87 JUMP JUMPDEST DUP3 MSTORE POP POP JUMP JUMPDEST PUSH1 0x0 PUSH1 0x20 DUP3 ADD SWAP1 POP PUSH2 0x2ABD PUSH1 0x0 DUP4 ADD DUP5 PUSH2 0x2A99 JUMP JUMPDEST SWAP3 SWAP2 POP POP JUMP JUMPDEST PUSH1 0x0 DUP1 PUSH1 0x0 DUP1 PUSH1 0x80 DUP6 DUP8 SUB SLT ISZERO PUSH2 0x2ADD JUMPI PUSH2 0x2ADC PUSH2 0x1F67 JUMP JUMPDEST JUMPDEST PUSH1 0x0 PUSH2 0x2AEB DUP8 DUP3 DUP9 ADD PUSH2 0x1F92 JUMP JUMPDEST SWAP5 POP POP PUSH1 0x20 PUSH2 0x2AFC DUP8 DUP3 DUP9 ADD PUSH2 0x1F92 JUMP JUMPDEST SWAP4 POP POP PUSH1 0x40 PUSH2 0x2B0D DUP8 DUP3 DUP9 ADD PUSH2 0x1F92 JUMP JUMPDEST SWAP3 POP POP PUSH1 0x60 DUP6 ADD CALLDATALOAD PUSH8 0xFFFFFFFFFFFFFFFF DUP2 GT ISZERO PUSH2 0x2B2E JUMPI PUSH2 0x2B2D PUSH2 0x1F6C JUMP JUMPDEST JUMPDEST PUSH2 0x2B3A DUP8 DUP3 DUP9 ADD PUSH2 0x20C9 JUMP JUMPDEST SWAP2 POP POP SWAP3 SWAP6 SWAP2 SWAP5 POP SWAP3 POP JUMP JUMPDEST PUSH1 0x0 DUP1 PUSH1 0x0 DUP1 PUSH1 0x80 DUP6 DUP8 SUB SLT ISZERO PUSH2 0x2B60 JUMPI PUSH2 0x2B5F PUSH2 0x1F67 JUMP JUMPDEST JUMPDEST PUSH1 0x0 PUSH2 0x2B6E DUP8 DUP3 DUP9 ADD PUSH2 0x1F92 JUMP JUMPDEST SWAP5 POP POP PUSH1 0x20 PUSH2 0x2B7F DUP8 DUP3 DUP9 ADD PUSH2 0x1F92 JUMP JUMPDEST SWAP4 POP POP PUSH1 0x40 PUSH2 0x2B90 DUP8 DUP3 DUP9 ADD PUSH2 0x1F92 JUMP JUMPDEST SWAP3 POP POP PUSH1 0x60 PUSH2 0x2BA1 DUP8 DUP3 DUP9 ADD PUSH2 0x2200 JUMP JUMPDEST SWAP2 POP POP SWAP3 SWAP6 SWAP2 SWAP5 POP SWAP3 POP JUMP JUMPDEST PUSH2 0x2BB6 DUP2 PUSH2 0x2A87 JUMP JUMPDEST DUP2 EQ PUSH2 0x2BC1 JUMPI PUSH1 0x0 DUP1 REVERT JUMPDEST POP JUMP JUMPDEST PUSH1 0x0 DUP2 CALLDATALOAD SWAP1 POP PUSH2 0x2BD3 DUP2 PUSH2 0x2BAD JUMP JUMPDEST SWAP3 SWAP2 POP POP JUMP JUMPDEST PUSH1 0x0 PUSH1 0x20 DUP3 DUP5 SUB SLT ISZERO PUSH2 0x2BEF JUMPI PUSH2 0x2BEE PUSH2 0x1F67 JUMP JUMPDEST JUMPDEST PUSH1 0x0 PUSH2 0x2BFD DUP5 DUP3 DUP6 ADD PUSH2 0x2BC4 JUMP JUMPDEST SWAP2 POP POP SWAP3 SWAP2 POP POP JUMP JUMPDEST PUSH1 0x0 DUP2 MLOAD SWAP1 POP SWAP2 SWAP1 POP JUMP JUMPDEST PUSH1 0x0 DUP3 DUP3 MSTORE PUSH1 0x20 DUP3 ADD SWAP1 POP SWAP3 SWAP2 POP POP JUMP JUMPDEST PUSH1 0x0 DUP2 SWAP1 POP PUSH1 0x20 DUP3 ADD SWAP1 POP SWAP2 SWAP1 POP JUMP JUMPDEST PUSH2 0x2C3B DUP2 PUSH2 0x1F71 JUMP JUMPDEST DUP3 MSTORE POP POP JUMP JUMPDEST PUSH1 0x0 PUSH2 0x2C4D DUP4 DUP4 PUSH2 0x2C32 JUMP JUMPDEST PUSH1 0x20 DUP4 ADD SWAP1 POP SWAP3 SWAP2 POP POP JUMP JUMPDEST PUSH1 0x0 PUSH1 0x20 DUP3 ADD SWAP1 POP SWAP2 SWAP1 POP JUMP JUMPDEST PUSH1 0x0 PUSH2 0x2C71 DUP3 PUSH2 0x2C06 JUMP JUMPDEST PUSH2 0x2C7B DUP2 DUP6 PUSH2 0x2C11 JUMP JUMPDEST SWAP4 POP PUSH2 0x2C86 DUP4 PUSH2 0x2C22 JUMP JUMPDEST DUP1 PUSH1 0x0 JUMPDEST DUP4 DUP2 LT ISZERO PUSH2 0x2CB7 JUMPI DUP2 MLOAD PUSH2 0x2C9E DUP9 DUP3 PUSH2 0x2C41 JUMP JUMPDEST SWAP8 POP PUSH2 0x2CA9 DUP4 PUSH2 0x2C59 JUMP JUMPDEST SWAP3 POP POP PUSH1 0x1 DUP2 ADD SWAP1 POP PUSH2 0x2C8A JUMP JUMPDEST POP DUP6 SWAP4 POP POP POP POP SWAP3 SWAP2 POP POP JUMP JUMPDEST PUSH1 0x0 PUSH1 0x80 DUP3 ADD SWAP1 POP PUSH2 0x2CD9 PUSH1 0x0 DUP4 ADD DUP8 PUSH2 0x2995 JUMP JUMPDEST DUP2 DUP2 SUB PUSH1 0x20 DUP4 ADD MSTORE PUSH2 0x2CEB DUP2 DUP7 PUSH2 0x2C66 JUMP JUMPDEST SWAP1 POP PUSH2 0x2CFA PUSH1 0x40 DUP4 ADD DUP6 PUSH2 0x2995 JUMP JUMPDEST PUSH2 0x2D07 PUSH1 0x60 DUP4 ADD DUP5 PUSH2 0x2A99 JUMP JUMPDEST SWAP6 SWAP5 POP POP POP POP POP JUMP JUMPDEST PUSH1 0x0 DUP3 DUP3 MSTORE PUSH1 0x20 DUP3 ADD SWAP1 POP SWAP3 SWAP2 POP POP JUMP JUMPDEST PUSH32 0x4F776E61626C653A206E6577206F776E657220697320746865207A65726F2061 PUSH1 0x0 DUP3 ADD MSTORE PUSH32 0x6464726573730000000000000000000000000000000000000000000000000000 PUSH1 0x20 DUP3 ADD MSTORE POP JUMP JUMPDEST PUSH1 0x0 PUSH2 0x2D7D PUSH1 0x26 DUP4 PUSH2 0x2D10 JUMP JUMPDEST SWAP2 POP PUSH2 0x2D88 DUP3 PUSH2 0x2D21 JUMP JUMPDEST PUSH1 0x40 DUP3 ADD SWAP1 POP SWAP2 SWAP1 POP JUMP JUMPDEST PUSH1 0x0 PUSH1 0x20 DUP3 ADD SWAP1 POP DUP2 DUP2 SUB PUSH1 0x0 DUP4 ADD MSTORE PUSH2 0x2DAC DUP2 PUSH2 0x2D70 JUMP JUMPDEST SWAP1 POP SWAP2 SWAP1 POP JUMP JUMPDEST PUSH1 0x0 DUP2 MLOAD SWAP1 POP SWAP2 SWAP1 POP JUMP JUMPDEST PUSH1 0x0 DUP3 DUP3 MSTORE PUSH1 0x20 DUP3 ADD SWAP1 POP SWAP3 SWAP2 POP POP JUMP JUMPDEST PUSH1 0x0 JUMPDEST DUP4 DUP2 LT ISZERO PUSH2 0x2DED JUMPI DUP1 DUP3 ADD MLOAD DUP2 DUP5 ADD MSTORE PUSH1 0x20 DUP2 ADD SWAP1 POP PUSH2 0x2DD2 JUMP JUMPDEST PUSH1 0x0 DUP5 DUP5 ADD MSTORE POP POP POP POP JUMP JUMPDEST PUSH1 0x0 PUSH2 0x2E04 DUP3 PUSH2 0x2DB3 JUMP JUMPDEST PUSH2 0x2E0E DUP2 DUP6 PUSH2 0x2DBE JUMP JUMPDEST SWAP4 POP PUSH2 0x2E1E DUP2 DUP6 PUSH1 0x20 DUP7 ADD PUSH2 0x2DCF JUMP JUMPDEST PUSH2 0x2E27 DUP2 PUSH2 0x1FAC JUMP JUMPDEST DUP5 ADD SWAP2 POP POP SWAP3 SWAP2 POP POP JUMP JUMPDEST PUSH1 0x0 DUP2 MLOAD SWAP1 POP SWAP2 SWAP1 POP JUMP JUMPDEST PUSH1 0x0 DUP3 DUP3 MSTORE PUSH1 0x20 DUP3 ADD SWAP1 POP SWAP3 SWAP2 POP POP JUMP JUMPDEST PUSH1 0x0 DUP2 SWAP1 POP PUSH1 0x20 DUP3 ADD SWAP1 POP SWAP2 SWAP1 POP JUMP JUMPDEST PUSH1 0x0 PUSH2 0x2E6A DUP4 DUP4 PUSH2 0x2DF9 JUMP JUMPDEST SWAP1 POP SWAP3 SWAP2 POP POP JUMP JUMPDEST PUSH1 0x0 PUSH1 0x20 DUP3 ADD SWAP1 POP SWAP2 SWAP1 POP JUMP JUMPDEST PUSH1 0x0 PUSH2 0x2E8A DUP3 PUSH2 0x2E32 JUMP JUMPDEST PUSH2 0x2E94 DUP2 DUP6 PUSH2 0x2E3D JUMP JUMPDEST SWAP4 POP DUP4 PUSH1 0x20 DUP3 MUL DUP6 ADD PUSH2 0x2EA6 DUP6 PUSH2 0x2E4E JUMP JUMPDEST DUP1 PUSH1 0x0 JUMPDEST DUP6 DUP2 LT ISZERO PUSH2 0x2EE2 JUMPI DUP5 DUP5 SUB DUP10 MSTORE DUP2 MLOAD PUSH2 0x2EC3 DUP6 DUP3 PUSH2 0x2E5E JUMP JUMPDEST SWAP5 POP PUSH2 0x2ECE DUP4 PUSH2 0x2E72 JUMP JUMPDEST SWAP3 POP PUSH1 0x20 DUP11 ADD SWAP10 POP POP PUSH1 0x1 DUP2 ADD SWAP1 POP PUSH2 0x2EAA JUMP JUMPDEST POP DUP3 SWAP8 POP DUP8 SWAP6 POP POP POP POP POP POP SWAP3 SWAP2 POP POP JUMP JUMPDEST PUSH2 0x2EFD DUP2 PUSH2 0x21DD JUMP JUMPDEST DUP3 MSTORE POP POP JUMP JUMPDEST PUSH1 0x0 DUP2 MLOAD SWAP1 POP SWAP2 SWAP1 POP JUMP JUMPDEST PUSH1 0x0 DUP3 DUP3 MSTORE PUSH1 0x20 DUP3 ADD SWAP1 POP SWAP3 SWAP2 POP POP JUMP JUMPDEST PUSH1 0x0 DUP2 SWAP1 POP PUSH1 0x20 DUP3 ADD SWAP1 POP SWAP2 SWAP1 POP JUMP JUMPDEST PUSH1 0x0 PUSH1 0xE0 DUP4 ADD PUSH1 0x0 DUP4 ADD MLOAD DUP5 DUP3 SUB PUSH1 0x0 DUP7 ADD MSTORE PUSH2 0x2F4C DUP3 DUP3 PUSH2 0x2DF9 JUMP JUMPDEST SWAP2 POP POP PUSH1 0x20 DUP4 ADD MLOAD PUSH2 0x2F61 PUSH1 0x20 DUP7 ADD DUP3 PUSH2 0x2C32 JUMP JUMPDEST POP PUSH1 0x40 DUP4 ADD MLOAD PUSH2 0x2F74 PUSH1 0x40 DUP7 ADD DUP3 PUSH2 0x2C32 JUMP JUMPDEST POP PUSH1 0x60 DUP4 ADD MLOAD PUSH2 0x2F87 PUSH1 0x60 DUP7 ADD DUP3 PUSH2 0x2C32 JUMP JUMPDEST POP PUSH1 0x80 DUP4 ADD MLOAD PUSH2 0x2F9A PUSH1 0x80 DUP7 ADD DUP3 PUSH2 0x2C32 JUMP JUMPDEST POP PUSH1 0xA0 DUP4 ADD MLOAD PUSH2 0x2FAD PUSH1 0xA0 DUP7 ADD DUP3 PUSH2 0x2C32 JUMP JUMPDEST POP PUSH1 0xC0 DUP4 ADD MLOAD DUP5 DUP3 SUB PUSH1 0xC0 DUP7 ADD MSTORE PUSH2 0x2FC5 DUP3 DUP3 PUSH2 0x2DF9 JUMP JUMPDEST SWAP2 POP POP DUP1 SWAP2 POP POP SWAP3 SWAP2 POP POP JUMP JUMPDEST PUSH32 0x4E487B7100000000000000000000000000000000000000000000000000000000 PUSH1 0x0 MSTORE PUSH1 0x21 PUSH1 0x4 MSTORE PUSH1 0x24 PUSH1 0x0 REVERT JUMPDEST PUSH1 0x8 DUP2 LT PUSH2 0x3012 JUMPI PUSH2 0x3011 PUSH2 0x2FD2 JUMP JUMPDEST JUMPDEST POP JUMP JUMPDEST PUSH1 0x0 DUP2 SWAP1 POP PUSH2 0x3023 DUP3 PUSH2 0x3001 JUMP JUMPDEST SWAP2 SWAP1 POP JUMP JUMPDEST PUSH1 0x0 PUSH2 0x3033 DUP3 PUSH2 0x3015 JUMP JUMPDEST SWAP1 POP SWAP2 SWAP1 POP JUMP JUMPDEST PUSH2 0x3043 DUP2 PUSH2 0x3028 JUMP JUMPDEST DUP3 MSTORE POP POP JUMP JUMPDEST PUSH1 0x0 PUSH1 0xA0 DUP4 ADD PUSH1 0x0 DUP4 ADD MLOAD DUP5 DUP3 SUB PUSH1 0x0 DUP7 ADD MSTORE PUSH2 0x3066 DUP3 DUP3 PUSH2 0x2F2F JUMP JUMPDEST SWAP2 POP POP PUSH1 0x20 DUP4 ADD MLOAD PUSH2 0x307B PUSH1 0x20 DUP7 ADD DUP3 PUSH2 0x2C32 JUMP JUMPDEST POP PUSH1 0x40 DUP4 ADD MLOAD DUP5 DUP3 SUB PUSH1 0x40 DUP7 ADD MSTORE PUSH2 0x3093 DUP3 DUP3 PUSH2 0x2DF9 JUMP JUMPDEST SWAP2 POP POP PUSH1 0x60 DUP4 ADD MLOAD PUSH2 0x30A8 PUSH1 0x60 DUP7 ADD DUP3 PUSH2 0x303A JUMP JUMPDEST POP PUSH1 0x80 DUP4 ADD MLOAD PUSH2 0x30BB PUSH1 0x80 DUP7 ADD DUP3 PUSH2 0x2C32 JUMP JUMPDEST POP DUP1 SWAP2 POP POP SWAP3 SWAP2 POP POP JUMP JUMPDEST PUSH1 0x0 PUSH2 0x30D2 DUP4 DUP4 PUSH2 0x3049 JUMP JUMPDEST SWAP1 POP SWAP3 SWAP2 POP POP JUMP JUMPDEST PUSH1 0x0 PUSH1 0x20 DUP3 ADD SWAP1 POP SWAP2 SWAP1 POP JUMP JUMPDEST PUSH1 0x0 PUSH2 0x30F2 DUP3 PUSH2 0x2F03 JUMP JUMPDEST PUSH2 0x30FC DUP2 DUP6 PUSH2 0x2F0E JUMP JUMPDEST SWAP4 POP DUP4 PUSH1 0x20 DUP3 MUL DUP6 ADD PUSH2 0x310E DUP6 PUSH2 0x2F1F JUMP JUMPDEST DUP1 PUSH1 0x0 JUMPDEST DUP6 DUP2 LT ISZERO PUSH2 0x314A JUMPI DUP5 DUP5 SUB DUP10 MSTORE DUP2 MLOAD PUSH2 0x312B DUP6 DUP3 PUSH2 0x30C6 JUMP JUMPDEST SWAP5 POP PUSH2 0x3136 DUP4 PUSH2 0x30DA JUMP JUMPDEST SWAP3 POP PUSH1 0x20 DUP11 ADD SWAP10 POP POP PUSH1 0x1 DUP2 ADD SWAP1 POP PUSH2 0x3112 JUMP JUMPDEST POP DUP3 SWAP8 POP DUP8 SWAP6 POP POP POP POP POP POP SWAP3 SWAP2 POP POP JUMP JUMPDEST PUSH1 0x0 PUSH2 0x1A0 DUP4 ADD PUSH1 0x0 DUP4 ADD MLOAD PUSH2 0x3175 PUSH1 0x0 DUP7 ADD DUP3 PUSH2 0x2C32 JUMP JUMPDEST POP PUSH1 0x20 DUP4 ADD MLOAD DUP5 DUP3 SUB PUSH1 0x20 DUP7 ADD MSTORE PUSH2 0x318D DUP3 DUP3 PUSH2 0x2DF9 JUMP JUMPDEST SWAP2 POP POP PUSH1 0x40 DUP4 ADD MLOAD DUP5 DUP3 SUB PUSH1 0x40 DUP7 ADD MSTORE PUSH2 0x31A7 DUP3 DUP3 PUSH2 0x2DF9 JUMP JUMPDEST SWAP2 POP POP PUSH1 0x60 DUP4 ADD MLOAD PUSH2 0x31BC PUSH1 0x60 DUP7 ADD DUP3 PUSH2 0x2C32 JUMP JUMPDEST POP PUSH1 0x80 DUP4 ADD MLOAD DUP5 DUP3 SUB PUSH1 0x80 DUP7 ADD MSTORE PUSH2 0x31D4 DUP3 DUP3 PUSH2 0x2DF9 JUMP JUMPDEST SWAP2 POP POP PUSH1 0xA0 DUP4 ADD MLOAD DUP5 DUP3 SUB PUSH1 0xA0 DUP7 ADD MSTORE PUSH2 0x31EE DUP3 DUP3 PUSH2 0x2DF9 JUMP JUMPDEST SWAP2 POP POP PUSH1 0xC0 DUP4 ADD MLOAD DUP5 DUP3 SUB PUSH1 0xC0 DUP7 ADD MSTORE PUSH2 0x3208 DUP3 DUP3 PUSH2 0x2E7F JUMP JUMPDEST SWAP2 POP POP PUSH1 0xE0 DUP4 ADD MLOAD PUSH2 0x321D PUSH1 0xE0 DUP7 ADD DUP3 PUSH2 0x2C32 JUMP JUMPDEST POP PUSH2 0x100 DUP4 ADD MLOAD PUSH2 0x3232 PUSH2 0x100 DUP7 ADD DUP3 PUSH2 0x2C32 JUMP JUMPDEST POP PUSH2 0x120 DUP4 ADD MLOAD PUSH2 0x3247 PUSH2 0x120 DUP7 ADD DUP3 PUSH2 0x2EF4 JUMP JUMPDEST POP PUSH2 0x140 DUP4 ADD MLOAD PUSH2 0x325C PUSH2 0x140 DUP7 ADD DUP3 PUSH2 0x2EF4 JUMP JUMPDEST POP PUSH2 0x160 DUP4 ADD MLOAD PUSH2 0x3271 PUSH2 0x160 DUP7 ADD DUP3 PUSH2 0x2C32 JUMP JUMPDEST POP PUSH2 0x180 DUP4 ADD MLOAD DUP5 DUP3 SUB PUSH2 0x180 DUP7 ADD MSTORE PUSH2 0x328B DUP3 DUP3 PUSH2 0x30E7 JUMP JUMPDEST SWAP2 POP POP DUP1 SWAP2 POP POP SWAP3 SWAP2 POP POP JUMP JUMPDEST PUSH1 0x0 PUSH1 0x40 DUP3 ADD SWAP1 POP PUSH2 0x32AD PUSH1 0x0 DUP4 ADD DUP6 PUSH2 0x2995 JUMP JUMPDEST DUP2 DUP2 SUB PUSH1 0x20 DUP4 ADD MSTORE PUSH2 0x32BF DUP2 DUP5 PUSH2 0x315C JUMP JUMPDEST SWAP1 POP SWAP4 SWAP3 POP POP POP JUMP JUMPDEST PUSH1 0x6 DUP2 LT PUSH2 0x32D9 JUMPI PUSH2 0x32D8 PUSH2 0x2FD2 JUMP JUMPDEST JUMPDEST POP JUMP JUMPDEST PUSH1 0x0 DUP2 SWAP1 POP PUSH2 0x32EA DUP3 PUSH2 0x32C8 JUMP JUMPDEST SWAP2 SWAP1 POP JUMP JUMPDEST PUSH1 0x0 PUSH2 0x32FA DUP3 PUSH2 0x32DC JUMP JUMPDEST SWAP1 POP SWAP2 SWAP1 POP JUMP JUMPDEST PUSH2 0x330A DUP2 PUSH2 0x32EF JUMP JUMPDEST DUP3 MSTORE POP POP JUMP JUMPDEST PUSH1 0x0 PUSH1 0xA0 DUP3 ADD SWAP1 POP PUSH2 0x3325 PUSH1 0x0 DUP4 ADD DUP9 PUSH2 0x2995 JUMP JUMPDEST PUSH2 0x3332 PUSH1 0x20 DUP4 ADD DUP8 PUSH2 0x2995 JUMP JUMPDEST PUSH2 0x333F PUSH1 0x40 DUP4 ADD DUP7 PUSH2 0x2995 JUMP JUMPDEST PUSH2 0x334C PUSH1 0x60 DUP4 ADD DUP6 PUSH2 0x3301 JUMP JUMPDEST PUSH2 0x3359 PUSH1 0x80 DUP4 ADD DUP5 PUSH2 0x2922 JUMP JUMPDEST SWAP7 SWAP6 POP POP POP POP POP POP JUMP JUMPDEST PUSH2 0x336C DUP2 PUSH2 0x3028 JUMP JUMPDEST DUP3 MSTORE POP POP JUMP JUMPDEST PUSH1 0x0 PUSH1 0x60 DUP3 ADD SWAP1 POP PUSH2 0x3387 PUSH1 0x0 DUP4 ADD DUP7 PUSH2 0x2995 JUMP JUMPDEST PUSH2 0x3394 PUSH1 0x20 DUP4 ADD DUP6 PUSH2 0x2995 JUMP JUMPDEST PUSH2 0x33A1 PUSH1 0x40 DUP4 ADD DUP5 PUSH2 0x3363 JUMP JUMPDEST SWAP5 SWAP4 POP POP POP POP JUMP JUMPDEST PUSH1 0x0 PUSH1 0x60 DUP3 ADD SWAP1 POP PUSH2 0x33BE PUSH1 0x0 DUP4 ADD DUP7 PUSH2 0x2995 JUMP JUMPDEST PUSH2 0x33CB PUSH1 0x20 DUP4 ADD DUP6 PUSH2 0x2995 JUMP JUMPDEST PUSH2 0x33D8 PUSH1 0x40 DUP4 ADD DUP5 PUSH2 0x2922 JUMP JUMPDEST SWAP5 SWAP4 POP POP POP POP JUMP JUMPDEST PUSH1 0x0 DUP2 MLOAD SWAP1 POP PUSH2 0x33EF DUP2 PUSH2 0x1F7B JUMP JUMPDEST SWAP3 SWAP2 POP POP JUMP JUMPDEST PUSH1 0x0 PUSH2 0x3408 PUSH2 0x3403 DUP5 PUSH2 0x2707 JUMP JUMPDEST PUSH2 0x201D JUMP JUMPDEST SWAP1 POP DUP1 DUP4 DUP3 MSTORE PUSH1 0x20 DUP3 ADD SWAP1 POP PUSH1 0x20 DUP5 MUL DUP4 ADD DUP6 DUP2 GT ISZERO PUSH2 0x342B JUMPI PUSH2 0x342A PUSH2 0x2123 JUMP JUMPDEST JUMPDEST DUP4 JUMPDEST DUP2 DUP2 LT ISZERO PUSH2 0x3454 JUMPI DUP1 PUSH2 0x3440 DUP9 DUP3 PUSH2 0x33E0 JUMP JUMPDEST DUP5 MSTORE PUSH1 0x20 DUP5 ADD SWAP4 POP POP PUSH1 0x20 DUP2 ADD SWAP1 POP PUSH2 0x342D JUMP JUMPDEST POP POP POP SWAP4 SWAP3 POP POP POP JUMP JUMPDEST PUSH1 0x0 DUP3 PUSH1 0x1F DUP4 ADD SLT PUSH2 0x3473 JUMPI PUSH2 0x3472 PUSH2 0x203D JUMP JUMPDEST JUMPDEST DUP2 MLOAD PUSH2 0x3483 DUP5 DUP3 PUSH1 0x20 DUP7 ADD PUSH2 0x33F5 JUMP JUMPDEST SWAP2 POP POP SWAP3 SWAP2 POP POP JUMP JUMPDEST PUSH1 0x0 DUP1 PUSH1 0x40 DUP4 DUP6 SUB SLT ISZERO PUSH2 0x34A3 JUMPI PUSH2 0x34A2 PUSH2 0x1F67 JUMP JUMPDEST JUMPDEST PUSH1 0x0 DUP4 ADD MLOAD PUSH8 0xFFFFFFFFFFFFFFFF DUP2 GT ISZERO PUSH2 0x34C1 JUMPI PUSH2 0x34C0 PUSH2 0x1F6C JUMP JUMPDEST JUMPDEST PUSH2 0x34CD DUP6 DUP3 DUP7 ADD PUSH2 0x345E JUMP JUMPDEST SWAP3 POP POP PUSH1 0x20 PUSH2 0x34DE DUP6 DUP3 DUP7 ADD PUSH2 0x33E0 JUMP JUMPDEST SWAP2 POP POP SWAP3 POP SWAP3 SWAP1 POP JUMP JUMPDEST PUSH32 0x4E487B7100000000000000000000000000000000000000000000000000000000 PUSH1 0x0 MSTORE PUSH1 0x11 PUSH1 0x4 MSTORE PUSH1 0x24 PUSH1 0x0 REVERT JUMPDEST PUSH1 0x0 PUSH2 0x3522 DUP3 PUSH2 0x1F71 JUMP JUMPDEST SWAP2 POP PUSH32 0xFFFFFFFFFFFFFFFFFFFFFFFFFFFFFFFFFFFFFFFFFFFFFFFFFFFFFFFFFFFFFFFF DUP3 SUB PUSH2 0x3554 JUMPI PUSH2 0x3553 PUSH2 0x34E8 JUMP JUMPDEST JUMPDEST PUSH1 0x1 DUP3 ADD SWAP1 POP SWAP2 SWAP1 POP JUMP JUMPDEST PUSH1 0x0 PUSH1 0x40 DUP3 ADD SWAP1 POP PUSH2 0x3574 PUSH1 0x0 DUP4 ADD DUP6 PUSH2 0x2995 JUMP JUMPDEST PUSH2 0x3581 PUSH1 0x20 DUP4 ADD DUP5 PUSH2 0x2995 JUMP JUMPDEST SWAP4 SWAP3 POP POP POP JUMP JUMPDEST PUSH1 0x0 DUP2 MLOAD SWAP1 POP PUSH2 0x3597 DUP2 PUSH2 0x2BAD JUMP JUMPDEST SWAP3 SWAP2 POP POP JUMP JUMPDEST PUSH1 0x0 PUSH8 0xFFFFFFFFFFFFFFFF DUP3 GT ISZERO PUSH2 0x35B8 JUMPI PUSH2 0x35B7 PUSH2 0x1FBD JUMP JUMPDEST JUMPDEST PUSH1 0x20 DUP3 MUL SWAP1 POP PUSH1 0x20 DUP2 ADD SWAP1 POP SWAP2 SWAP1 POP JUMP JUMPDEST PUSH1 0x6 DUP2 LT PUSH2 0x35D6 JUMPI PUSH1 0x0 DUP1 REVERT JUMPDEST POP JUMP JUMPDEST PUSH1 0x0 DUP2 MLOAD SWAP1 POP PUSH2 0x35E8 DUP2 PUSH2 0x35C9 JUMP JUMPDEST SWAP3 SWAP2 POP POP JUMP JUMPDEST PUSH1 0x0 PUSH2 0x3601 PUSH2 0x35FC DUP5 PUSH2 0x359D JUMP JUMPDEST PUSH2 0x201D JUMP JUMPDEST SWAP1 POP DUP1 DUP4 DUP3 MSTORE PUSH1 0x20 DUP3 ADD SWAP1 POP PUSH1 0x20 DUP5 MUL DUP4 ADD DUP6 DUP2 GT ISZERO PUSH2 0x3624 JUMPI PUSH2 0x3623 PUSH2 0x2123 JUMP JUMPDEST JUMPDEST DUP4 JUMPDEST DUP2 DUP2 LT ISZERO PUSH2 0x364D JUMPI DUP1 PUSH2 0x3639 DUP9 DUP3 PUSH2 0x35D9 JUMP JUMPDEST DUP5 MSTORE PUSH1 0x20 DUP5 ADD SWAP4 POP POP PUSH1 0x20 DUP2 ADD SWAP1 POP PUSH2 0x3626 JUMP JUMPDEST POP POP POP SWAP4 SWAP3 POP POP POP JUMP JUMPDEST PUSH1 0x0 DUP3 PUSH1 0x1F DUP4 ADD SLT PUSH2 0x366C JUMPI PUSH2 0x366B PUSH2 0x203D JUMP JUMPDEST JUMPDEST DUP2 MLOAD PUSH2 0x367C DUP5 DUP3 PUSH1 0x20 DUP7 ADD PUSH2 0x35EE JUMP JUMPDEST SWAP2 POP POP SWAP3 SWAP2 POP POP JUMP JUMPDEST PUSH1 0x0 PUSH2 0x3698 PUSH2 0x3693 DUP5 PUSH2 0x2047 JUMP JUMPDEST PUSH2 0x201D JUMP JUMPDEST SWAP1 POP DUP3 DUP2 MSTORE PUSH1 0x20 DUP2 ADD DUP5 DUP5 DUP5 ADD GT ISZERO PUSH2 0x36B4 JUMPI PUSH2 0x36B3 PUSH2 0x2042 JUMP JUMPDEST JUMPDEST PUSH2 0x36BF DUP5 DUP3 DUP6 PUSH2 0x2DCF JUMP JUMPDEST POP SWAP4 SWAP3 POP POP POP JUMP JUMPDEST PUSH1 0x0 DUP3 PUSH1 0x1F DUP4 ADD SLT PUSH2 0x36DC JUMPI PUSH2 0x36DB PUSH2 0x203D JUMP JUMPDEST JUMPDEST DUP2 MLOAD PUSH2 0x36EC DUP5 DUP3 PUSH1 0x20 DUP7 ADD PUSH2 0x3685 JUMP JUMPDEST SWAP2 POP POP SWAP3 SWAP2 POP POP JUMP JUMPDEST PUSH1 0x0 PUSH2 0x3708 PUSH2 0x3703 DUP5 PUSH2 0x20F7 JUMP JUMPDEST PUSH2 0x201D JUMP JUMPDEST SWAP1 POP DUP1 DUP4 DUP3 MSTORE PUSH1 0x20 DUP3 ADD SWAP1 POP PUSH1 0x20 DUP5 MUL DUP4 ADD DUP6 DUP2 GT ISZERO PUSH2 0x372B JUMPI PUSH2 0x372A PUSH2 0x2123 JUMP JUMPDEST JUMPDEST DUP4 JUMPDEST DUP2 DUP2 LT ISZERO PUSH2 0x3772 JUMPI DUP1 MLOAD PUSH8 0xFFFFFFFFFFFFFFFF DUP2 GT ISZERO PUSH2 0x3750 JUMPI PUSH2 0x374F PUSH2 0x203D JUMP JUMPDEST JUMPDEST DUP1 DUP7 ADD PUSH2 0x375D DUP10 DUP3 PUSH2 0x36C7 JUMP JUMPDEST DUP6 MSTORE PUSH1 0x20 DUP6 ADD SWAP5 POP POP POP PUSH1 0x20 DUP2 ADD SWAP1 POP PUSH2 0x372D JUMP JUMPDEST POP POP POP SWAP4 SWAP3 POP POP POP JUMP JUMPDEST PUSH1 0x0 DUP3 PUSH1 0x1F DUP4 ADD SLT PUSH2 0x3791 JUMPI PUSH2 0x3790 PUSH2 0x203D JUMP JUMPDEST JUMPDEST DUP2 MLOAD PUSH2 0x37A1 DUP5 DUP3 PUSH1 0x20 DUP7 ADD PUSH2 0x36F5 JUMP JUMPDEST SWAP2 POP POP SWAP3 SWAP2 POP POP JUMP JUMPDEST PUSH1 0x0 PUSH1 0xA0 DUP3 DUP5 SUB SLT ISZERO PUSH2 0x37C0 JUMPI PUSH2 0x37BF PUSH2 0x1FA7 JUMP JUMPDEST JUMPDEST PUSH2 0x37CA PUSH1 0xA0 PUSH2 0x201D JUMP JUMPDEST SWAP1 POP PUSH1 0x0 PUSH2 0x37DA DUP5 DUP3 DUP6 ADD PUSH2 0x3588 JUMP JUMPDEST PUSH1 0x0 DUP4 ADD MSTORE POP PUSH1 0x20 DUP3 ADD MLOAD PUSH8 0xFFFFFFFFFFFFFFFF DUP2 GT ISZERO PUSH2 0x37FE JUMPI PUSH2 0x37FD PUSH2 0x2038 JUMP JUMPDEST JUMPDEST PUSH2 0x380A DUP5 DUP3 DUP6 ADD PUSH2 0x345E JUMP JUMPDEST PUSH1 0x20 DUP4 ADD MSTORE POP PUSH1 0x40 DUP3 ADD MLOAD PUSH8 0xFFFFFFFFFFFFFFFF DUP2 GT ISZERO PUSH2 0x382E JUMPI PUSH2 0x382D PUSH2 0x2038 JUMP JUMPDEST JUMPDEST PUSH2 0x383A DUP5 DUP3 DUP6 ADD PUSH2 0x3657 JUMP JUMPDEST PUSH1 0x40 DUP4 ADD MSTORE POP PUSH1 0x60 DUP3 ADD MLOAD PUSH8 0xFFFFFFFFFFFFFFFF DUP2 GT ISZERO PUSH2 0x385E JUMPI PUSH2 0x385D PUSH2 0x2038 JUMP JUMPDEST JUMPDEST PUSH2 0x386A DUP5 DUP3 DUP6 ADD PUSH2 0x377C JUMP JUMPDEST PUSH1 0x60 DUP4 ADD MSTORE POP PUSH1 0x80 PUSH2 0x387E DUP5 DUP3 DUP6 ADD PUSH2 0x33E0 JUMP JUMPDEST PUSH1 0x80 DUP4 ADD MSTORE POP SWAP3 SWAP2 POP POP JUMP JUMPDEST PUSH1 0x0 PUSH1 0x20 DUP3 DUP5 SUB SLT ISZERO PUSH2 0x38A0 JUMPI PUSH2 0x389F PUSH2 0x1F67 JUMP JUMPDEST JUMPDEST PUSH1 0x0 DUP3 ADD MLOAD PUSH8 0xFFFFFFFFFFFFFFFF DUP2 GT ISZERO PUSH2 0x38BE JUMPI PUSH2 0x38BD PUSH2 0x1F6C JUMP JUMPDEST JUMPDEST PUSH2 0x38CA DUP5 DUP3 DUP6 ADD PUSH2 0x37AA JUMP JUMPDEST SWAP2 POP POP SWAP3 SWAP2 POP POP JUMP JUMPDEST PUSH2 0x38DC DUP2 PUSH2 0x1F71 JUMP JUMPDEST DUP3 MSTORE POP POP JUMP JUMPDEST PUSH1 0x0 PUSH1 0x20 DUP3 ADD SWAP1 POP PUSH2 0x38F7 PUSH1 0x0 DUP4 ADD DUP5 PUSH2 0x38D3 JUMP JUMPDEST SWAP3 SWAP2 POP POP JUMP JUMPDEST PUSH1 0x0 PUSH1 0x20 DUP3 DUP5 SUB SLT ISZERO PUSH2 0x3913 JUMPI PUSH2 0x3912 PUSH2 0x1F67 JUMP JUMPDEST JUMPDEST PUSH1 0x0 PUSH2 0x3921 DUP5 DUP3 DUP6 ADD PUSH2 0x33E0 JUMP JUMPDEST SWAP2 POP POP SWAP3 SWAP2 POP POP JUMP JUMPDEST PUSH1 0x0 PUSH1 0x40 DUP3 ADD SWAP1 POP PUSH2 0x393F PUSH1 0x0 DUP4 ADD DUP6 PUSH2 0x38D3 JUMP JUMPDEST PUSH2 0x394C PUSH1 0x20 DUP4 ADD DUP5 PUSH2 0x38D3 JUMP JUMPDEST SWAP4 SWAP3 POP POP POP JUMP JUMPDEST PUSH1 0x0 PUSH1 0x20 DUP3 ADD SWAP1 POP DUP2 DUP2 SUB PUSH1 0x0 DUP4 ADD MSTORE PUSH2 0x396D DUP2 DUP5 PUSH2 0x315C JUMP JUMPDEST SWAP1 POP SWAP3 SWAP2 POP POP JUMP JUMPDEST PUSH32 0x4F776E61626C653A2063616C6C6572206973206E6F7420746865206F776E6572 PUSH1 0x0 DUP3 ADD MSTORE POP JUMP JUMPDEST PUSH1 0x0 PUSH2 0x39AB PUSH1 0x20 DUP4 PUSH2 0x2D10 JUMP JUMPDEST SWAP2 POP PUSH2 0x39B6 DUP3 PUSH2 0x3975 JUMP JUMPDEST PUSH1 0x20 DUP3 ADD SWAP1 POP SWAP2 SWAP1 POP JUMP JUMPDEST PUSH1 0x0 PUSH1 0x20 DUP3 ADD SWAP1 POP DUP2 DUP2 SUB PUSH1 0x0 DUP4 ADD MSTORE PUSH2 0x39DA DUP2 PUSH2 0x399E JUMP JUMPDEST SWAP1 POP SWAP2 SWAP1 POP JUMP JUMPDEST PUSH1 0x0 DUP2 MLOAD SWAP1 POP PUSH2 0x39F0 DUP2 PUSH2 0x21E9 JUMP JUMPDEST SWAP3 SWAP2 POP POP JUMP JUMPDEST PUSH1 0x0 PUSH1 0xE0 DUP3 DUP5 SUB SLT ISZERO PUSH2 0x3A0C JUMPI PUSH2 0x3A0B PUSH2 0x1FA7 JUMP JUMPDEST JUMPDEST PUSH2 0x3A16 PUSH1 0xE0 PUSH2 0x201D JUMP JUMPDEST SWAP1 POP PUSH1 0x0 DUP3 ADD MLOAD PUSH8 0xFFFFFFFFFFFFFFFF DUP2 GT ISZERO PUSH2 0x3A36 JUMPI PUSH2 0x3A35 PUSH2 0x2038 JUMP JUMPDEST JUMPDEST PUSH2 0x3A42 DUP5 DUP3 DUP6 ADD PUSH2 0x36C7 JUMP JUMPDEST PUSH1 0x0 DUP4 ADD MSTORE POP PUSH1 0x20 PUSH2 0x3A56 DUP5 DUP3 DUP6 ADD PUSH2 0x33E0 JUMP JUMPDEST PUSH1 0x20 DUP4 ADD MSTORE POP PUSH1 0x40 PUSH2 0x3A6A DUP5 DUP3 DUP6 ADD PUSH2 0x33E0 JUMP JUMPDEST PUSH1 0x40 DUP4 ADD MSTORE POP PUSH1 0x60 PUSH2 0x3A7E DUP5 DUP3 DUP6 ADD PUSH2 0x33E0 JUMP JUMPDEST PUSH1 0x60 DUP4 ADD MSTORE POP PUSH1 0x80 PUSH2 0x3A92 DUP5 DUP3 DUP6 ADD PUSH2 0x33E0 JUMP JUMPDEST PUSH1 0x80 DUP4 ADD MSTORE POP PUSH1 0xA0 PUSH2 0x3AA6 DUP5 DUP3 DUP6 ADD PUSH2 0x33E0 JUMP JUMPDEST PUSH1 0xA0 DUP4 ADD MSTORE POP PUSH1 0xC0 DUP3 ADD MLOAD PUSH8 0xFFFFFFFFFFFFFFFF DUP2 GT ISZERO PUSH2 0x3ACA JUMPI PUSH2 0x3AC9 PUSH2 0x2038 JUMP JUMPDEST JUMPDEST PUSH2 0x3AD6 DUP5 DUP3 DUP6 ADD PUSH2 0x36C7 JUMP JUMPDEST PUSH1 0xC0 DUP4 ADD MSTORE POP SWAP3 SWAP2 POP POP JUMP JUMPDEST PUSH1 0x0 DUP2 MLOAD SWAP1 POP PUSH2 0x3AF1 DUP2 PUSH2 0x232D JUMP JUMPDEST SWAP3 SWAP2 POP POP JUMP JUMPDEST PUSH1 0x0 PUSH1 0xA0 DUP3 DUP5 SUB SLT ISZERO PUSH2 0x3B0D JUMPI PUSH2 0x3B0C PUSH2 0x1FA7 JUMP JUMPDEST JUMPDEST PUSH2 0x3B17 PUSH1 0xA0 PUSH2 0x201D JUMP JUMPDEST SWAP1 POP PUSH1 0x0 DUP3 ADD MLOAD PUSH8 0xFFFFFFFFFFFFFFFF DUP2 GT ISZERO PUSH2 0x3B37 JUMPI PUSH2 0x3B36 PUSH2 0x2038 JUMP JUMPDEST JUMPDEST PUSH2 0x3B43 DUP5 DUP3 DUP6 ADD PUSH2 0x39F6 JUMP JUMPDEST PUSH1 0x0 DUP4 ADD MSTORE POP PUSH1 0x20 PUSH2 0x3B57 DUP5 DUP3 DUP6 ADD PUSH2 0x33E0 JUMP JUMPDEST PUSH1 0x20 DUP4 ADD MSTORE POP PUSH1 0x40 DUP3 ADD MLOAD PUSH8 0xFFFFFFFFFFFFFFFF DUP2 GT ISZERO PUSH2 0x3B7B JUMPI PUSH2 0x3B7A PUSH2 0x2038 JUMP JUMPDEST JUMPDEST PUSH2 0x3B87 DUP5 DUP3 DUP6 ADD PUSH2 0x36C7 JUMP JUMPDEST PUSH1 0x40 DUP4 ADD MSTORE POP PUSH1 0x60 PUSH2 0x3B9B DUP5 DUP3 DUP6 ADD PUSH2 0x3AE2 JUMP JUMPDEST PUSH1 0x60 DUP4 ADD MSTORE POP PUSH1 0x80 PUSH2 0x3BAF DUP5 DUP3 DUP6 ADD PUSH2 0x33E0 JUMP JUMPDEST PUSH1 0x80 DUP4 ADD MSTORE POP SWAP3 SWAP2 POP POP JUMP JUMPDEST PUSH1 0x0 PUSH2 0x3BCE PUSH2 0x3BC9 DUP5 PUSH2 0x2215 JUMP JUMPDEST PUSH2 0x201D JUMP JUMPDEST SWAP1 POP DUP1 DUP4 DUP3 MSTORE PUSH1 0x20 DUP3 ADD SWAP1 POP PUSH1 0x20 DUP5 MUL DUP4 ADD DUP6 DUP2 GT ISZERO PUSH2 0x3BF1 JUMPI PUSH2 0x3BF0 PUSH2 0x2123 JUMP JUMPDEST JUMPDEST DUP4 JUMPDEST DUP2 DUP2 LT ISZERO PUSH2 0x3C38 JUMPI DUP1 MLOAD PUSH8 0xFFFFFFFFFFFFFFFF DUP2 GT ISZERO PUSH2 0x3C16 JUMPI PUSH2 0x3C15 PUSH2 0x203D JUMP JUMPDEST JUMPDEST DUP1 DUP7 ADD PUSH2 0x3C23 DUP10 DUP3 PUSH2 0x3AF7 JUMP JUMPDEST DUP6 MSTORE PUSH1 0x20 DUP6 ADD SWAP5 POP POP POP PUSH1 0x20 DUP2 ADD SWAP1 POP PUSH2 0x3BF3 JUMP JUMPDEST POP POP POP SWAP4 SWAP3 POP POP POP JUMP JUMPDEST PUSH1 0x0 DUP3 PUSH1 0x1F DUP4 ADD SLT PUSH2 0x3C57 JUMPI PUSH2 0x3C56 PUSH2 0x203D JUMP JUMPDEST JUMPDEST DUP2 MLOAD PUSH2 0x3C67 DUP5 DUP3 PUSH1 0x20 DUP7 ADD PUSH2 0x3BBB JUMP JUMPDEST SWAP2 POP POP SWAP3 SWAP2 POP POP JUMP JUMPDEST PUSH1 0x0 PUSH8 0xFFFFFFFFFFFFFFFF DUP3 GT ISZERO PUSH2 0x3C8B JUMPI PUSH2 0x3C8A PUSH2 0x1FBD JUMP JUMPDEST JUMPDEST PUSH1 0x20 DUP3 MUL SWAP1 POP PUSH1 0x20 DUP2 ADD SWAP1 POP SWAP2 SWAP1 POP JUMP JUMPDEST PUSH1 0x0 PUSH2 0x3CAF PUSH2 0x3CAA DUP5 PUSH2 0x3C70 JUMP JUMPDEST PUSH2 0x201D JUMP JUMPDEST SWAP1 POP DUP1 DUP4 DUP3 MSTORE PUSH1 0x20 DUP3 ADD SWAP1 POP PUSH1 0x20 DUP5 MUL DUP4 ADD DUP6 DUP2 GT ISZERO PUSH2 0x3CD2 JUMPI PUSH2 0x3CD1 PUSH2 0x2123 JUMP JUMPDEST JUMPDEST DUP4 JUMPDEST DUP2 DUP2 LT ISZERO PUSH2 0x3D19 JUMPI DUP1 MLOAD PUSH8 0xFFFFFFFFFFFFFFFF DUP2 GT ISZERO PUSH2 0x3CF7 JUMPI PUSH2 0x3CF6 PUSH2 0x203D JUMP JUMPDEST JUMPDEST DUP1 DUP7 ADD PUSH2 0x3D04 DUP10 DUP3 PUSH2 0x37AA JUMP JUMPDEST DUP6 MSTORE PUSH1 0x20 DUP6 ADD SWAP5 POP POP POP PUSH1 0x20 DUP2 ADD SWAP1 POP PUSH2 0x3CD4 JUMP JUMPDEST POP POP POP SWAP4 SWAP3 POP POP POP JUMP JUMPDEST PUSH1 0x0 DUP3 PUSH1 0x1F DUP4 ADD SLT PUSH2 0x3D38 JUMPI PUSH2 0x3D37 PUSH2 0x203D JUMP JUMPDEST JUMPDEST DUP2 MLOAD PUSH2 0x3D48 DUP5 DUP3 PUSH1 0x20 DUP7 ADD PUSH2 0x3C9C JUMP JUMPDEST SWAP2 POP POP SWAP3 SWAP2 POP POP JUMP JUMPDEST PUSH1 0x6 DUP2 LT PUSH2 0x3D5E JUMPI PUSH1 0x0 DUP1 REVERT JUMPDEST POP JUMP JUMPDEST PUSH1 0x0 DUP2 MLOAD SWAP1 POP PUSH2 0x3D70 DUP2 PUSH2 0x3D51 JUMP JUMPDEST SWAP3 SWAP2 POP POP JUMP JUMPDEST PUSH1 0x0 PUSH2 0x2A0 DUP3 DUP5 SUB SLT ISZERO PUSH2 0x3D8D JUMPI PUSH2 0x3D8C PUSH2 0x1FA7 JUMP JUMPDEST JUMPDEST PUSH2 0x3D98 PUSH2 0x2A0 PUSH2 0x201D JUMP JUMPDEST SWAP1 POP PUSH1 0x0 PUSH2 0x3DA8 DUP5 DUP3 DUP6 ADD PUSH2 0x3588 JUMP JUMPDEST PUSH1 0x0 DUP4 ADD MSTORE POP PUSH1 0x20 PUSH2 0x3DBC DUP5 DUP3 DUP6 ADD PUSH2 0x33E0 JUMP JUMPDEST PUSH1 0x20 DUP4 ADD MSTORE POP PUSH1 0x40 DUP3 ADD MLOAD PUSH8 0xFFFFFFFFFFFFFFFF DUP2 GT ISZERO PUSH2 0x3DE0 JUMPI PUSH2 0x3DDF PUSH2 0x2038 JUMP JUMPDEST JUMPDEST PUSH2 0x3DEC DUP5 DUP3 DUP6 ADD PUSH2 0x36C7 JUMP JUMPDEST PUSH1 0x40 DUP4 ADD MSTORE POP PUSH1 0x60 DUP3 ADD MLOAD PUSH8 0xFFFFFFFFFFFFFFFF DUP2 GT ISZERO PUSH2 0x3E10 JUMPI PUSH2 0x3E0F PUSH2 0x2038 JUMP JUMPDEST JUMPDEST PUSH2 0x3E1C DUP5 DUP3 DUP6 ADD PUSH2 0x36C7 JUMP JUMPDEST PUSH1 0x60 DUP4 ADD MSTORE POP PUSH1 0x80 PUSH2 0x3E30 DUP5 DUP3 DUP6 ADD PUSH2 0x33E0 JUMP JUMPDEST PUSH1 0x80 DUP4 ADD MSTORE POP PUSH1 0xA0 DUP3 ADD MLOAD PUSH8 0xFFFFFFFFFFFFFFFF DUP2 GT ISZERO PUSH2 0x3E54 JUMPI PUSH2 0x3E53 PUSH2 0x2038 JUMP JUMPDEST JUMPDEST PUSH2 0x3E60 DUP5 DUP3 DUP6 ADD PUSH2 0x36C7 JUMP JUMPDEST PUSH1 0xA0 DUP4 ADD MSTORE POP PUSH1 0xC0 DUP3 ADD MLOAD PUSH8 0xFFFFFFFFFFFFFFFF DUP2 GT ISZERO PUSH2 0x3E84 JUMPI PUSH2 0x3E83 PUSH2 0x2038 JUMP JUMPDEST JUMPDEST PUSH2 0x3E90 DUP5 DUP3 DUP6 ADD PUSH2 0x36C7 JUMP JUMPDEST PUSH1 0xC0 DUP4 ADD MSTORE POP PUSH1 0xE0 DUP3 ADD MLOAD PUSH8 0xFFFFFFFFFFFFFFFF DUP2 GT ISZERO PUSH2 0x3EB4 JUMPI PUSH2 0x3EB3 PUSH2 0x2038 JUMP JUMPDEST JUMPDEST PUSH2 0x3EC0 DUP5 DUP3 DUP6 ADD PUSH2 0x377C JUMP JUMPDEST PUSH1 0xE0 DUP4 ADD MSTORE POP PUSH2 0x100 PUSH2 0x3ED5 DUP5 DUP3 DUP6 ADD PUSH2 0x33E0 JUMP JUMPDEST PUSH2 0x100 DUP4 ADD MSTORE POP PUSH2 0x120 PUSH2 0x3EEB DUP5 DUP3 DUP6 ADD PUSH2 0x33E0 JUMP JUMPDEST PUSH2 0x120 DUP4 ADD MSTORE POP PUSH2 0x140 PUSH2 0x3F01 DUP5 DUP3 DUP6 ADD PUSH2 0x39E1 JUMP JUMPDEST PUSH2 0x140 DUP4 ADD MSTORE POP PUSH2 0x160 PUSH2 0x3F17 DUP5 DUP3 DUP6 ADD PUSH2 0x39E1 JUMP JUMPDEST PUSH2 0x160 DUP4 ADD MSTORE POP PUSH2 0x180 PUSH2 0x3F2D DUP5 DUP3 DUP6 ADD PUSH2 0x33E0 JUMP JUMPDEST PUSH2 0x180 DUP4 ADD MSTORE POP PUSH2 0x1A0 DUP3 ADD MLOAD PUSH8 0xFFFFFFFFFFFFFFFF DUP2 GT ISZERO PUSH2 0x3F53 JUMPI PUSH2 0x3F52 PUSH2 0x2038 JUMP JUMPDEST JUMPDEST PUSH2 0x3F5F DUP5 DUP3 DUP6 ADD PUSH2 0x3C42 JUMP JUMPDEST PUSH2 0x1A0 DUP4 ADD MSTORE POP PUSH2 0x1C0 DUP3 ADD MLOAD PUSH8 0xFFFFFFFFFFFFFFFF DUP2 GT ISZERO PUSH2 0x3F85 JUMPI PUSH2 0x3F84 PUSH2 0x2038 JUMP JUMPDEST JUMPDEST PUSH2 0x3F91 DUP5 DUP3 DUP6 ADD PUSH2 0x3D23 JUMP JUMPDEST PUSH2 0x1C0 DUP4 ADD MSTORE POP PUSH2 0x1E0 DUP3 ADD MLOAD PUSH8 0xFFFFFFFFFFFFFFFF DUP2 GT ISZERO PUSH2 0x3FB7 JUMPI PUSH2 0x3FB6 PUSH2 0x2038 JUMP JUMPDEST JUMPDEST PUSH2 0x3FC3 DUP5 DUP3 DUP6 ADD PUSH2 0x3D23 JUMP JUMPDEST PUSH2 0x1E0 DUP4 ADD MSTORE POP PUSH2 0x200 PUSH2 0x3FD9 DUP5 DUP3 DUP6 ADD PUSH2 0x33E0 JUMP JUMPDEST PUSH2 0x200 DUP4 ADD MSTORE POP PUSH2 0x220 PUSH2 0x3FEF DUP5 DUP3 DUP6 ADD PUSH2 0x33E0 JUMP JUMPDEST PUSH2 0x220 DUP4 ADD MSTORE POP PUSH2 0x240 PUSH2 0x4005 DUP5 DUP3 DUP6 ADD PUSH2 0x39E1 JUMP JUMPDEST PUSH2 0x240 DUP4 ADD MSTORE POP PUSH2 0x260 PUSH2 0x401B DUP5 DUP3 DUP6 ADD PUSH2 0x39E1 JUMP JUMPDEST PUSH2 0x260 DUP4 ADD MSTORE POP PUSH2 0x280 PUSH2 0x4031 DUP5 DUP3 DUP6 ADD PUSH2 0x3D61 JUMP JUMPDEST PUSH2 0x280 DUP4 ADD MSTORE POP SWAP3 SWAP2 POP POP JUMP JUMPDEST PUSH1 0x0 PUSH1 0x20 DUP3 DUP5 SUB SLT ISZERO PUSH2 0x4054 JUMPI PUSH2 0x4053 PUSH2 0x1F67 JUMP JUMPDEST JUMPDEST PUSH1 0x0 DUP3 ADD MLOAD PUSH8 0xFFFFFFFFFFFFFFFF DUP2 GT ISZERO PUSH2 0x4072 JUMPI PUSH2 0x4071 PUSH2 0x1F6C JUMP JUMPDEST JUMPDEST PUSH2 0x407E DUP5 DUP3 DUP6 ADD PUSH2 0x3D76 JUMP JUMPDEST SWAP2 POP POP SWAP3 SWAP2 POP POP JUMP JUMPDEST PUSH1 0x0 PUSH1 0x40 DUP3 ADD SWAP1 POP PUSH2 0x409C PUSH1 0x0 DUP4 ADD DUP6 PUSH2 0x2995 JUMP JUMPDEST PUSH2 0x40A9 PUSH1 0x20 DUP4 ADD DUP5 PUSH2 0x2922 JUMP JUMPDEST SWAP4 SWAP3 POP POP POP JUMP JUMPDEST PUSH1 0x0 PUSH1 0x20 DUP3 DUP5 SUB SLT ISZERO PUSH2 0x40C6 JUMPI PUSH2 0x40C5 PUSH2 0x1F67 JUMP JUMPDEST JUMPDEST PUSH1 0x0 PUSH2 0x40D4 DUP5 DUP3 DUP6 ADD PUSH2 0x39E1 JUMP JUMPDEST SWAP2 POP POP SWAP3 SWAP2 POP POP JUMP JUMPDEST PUSH32 0x4E487B7100000000000000000000000000000000000000000000000000000000 PUSH1 0x0 MSTORE PUSH1 0x12 PUSH1 0x4 MSTORE PUSH1 0x24 PUSH1 0x0 REVERT JUMPDEST PUSH1 0x0 PUSH2 0x4117 DUP3 PUSH2 0x1F71 JUMP JUMPDEST SWAP2 POP PUSH2 0x4122 DUP4 PUSH2 0x1F71 JUMP JUMPDEST SWAP3 POP DUP3 PUSH2 0x4132 JUMPI PUSH2 0x4131 PUSH2 0x40DD JUMP JUMPDEST JUMPDEST DUP3 DUP3 DIV SWAP1 POP SWAP3 SWAP2 POP POP JUMP JUMPDEST PUSH32 0x4E487B7100000000000000000000000000000000000000000000000000000000 PUSH1 0x0 MSTORE PUSH1 0x32 PUSH1 0x4 MSTORE PUSH1 0x24 PUSH1 0x0 REVERT JUMPDEST PUSH1 0x0 PUSH1 0x60 DUP3 ADD SWAP1 POP PUSH2 0x4181 PUSH1 0x0 DUP4 ADD DUP7 PUSH2 0x2995 JUMP JUMPDEST PUSH2 0x418E PUSH1 0x20 DUP4 ADD DUP6 PUSH2 0x2995 JUMP JUMPDEST PUSH2 0x419B PUSH1 0x40 DUP4 ADD DUP5 PUSH2 0x2995 JUMP JUMPDEST SWAP5 SWAP4 POP POP POP POP JUMP JUMPDEST PUSH1 0x0 PUSH2 0x41AE DUP3 PUSH2 0x2DB3 JUMP JUMPDEST PUSH2 0x41B8 DUP2 DUP6 PUSH2 0x2D10 JUMP JUMPDEST SWAP4 POP PUSH2 0x41C8 DUP2 DUP6 PUSH1 0x20 DUP7 ADD PUSH2 0x2DCF JUMP JUMPDEST PUSH2 0x41D1 DUP2 PUSH2 0x1FAC JUMP JUMPDEST DUP5 ADD SWAP2 POP POP SWAP3 SWAP2 POP POP JUMP JUMPDEST PUSH1 0x0 PUSH1 0xA0 DUP3 ADD SWAP1 POP PUSH2 0x41F1 PUSH1 0x0 DUP4 ADD DUP9 PUSH2 0x2995 JUMP JUMPDEST PUSH2 0x41FE PUSH1 0x20 DUP4 ADD DUP8 PUSH2 0x2995 JUMP JUMPDEST PUSH2 0x420B PUSH1 0x40 DUP4 ADD DUP7 PUSH2 0x2995 JUMP JUMPDEST DUP2 DUP2 SUB PUSH1 0x60 DUP4 ADD MSTORE PUSH2 0x421D DUP2 DUP6 PUSH2 0x41A3 JUMP JUMPDEST SWAP1 POP PUSH2 0x422C PUSH1 0x80 DUP4 ADD DUP5 PUSH2 0x2922 JUMP JUMPDEST SWAP7 SWAP6 POP POP POP POP POP POP JUMP JUMPDEST PUSH1 0x6 DUP2 LT PUSH2 0x4247 JUMPI PUSH2 0x4246 PUSH2 0x2FD2 JUMP JUMPDEST JUMPDEST POP JUMP JUMPDEST PUSH1 0x0 DUP2 SWAP1 POP PUSH2 0x4258 DUP3 PUSH2 0x4236 JUMP JUMPDEST SWAP2 SWAP1 POP JUMP JUMPDEST PUSH1 0x0 PUSH2 0x4268 DUP3 PUSH2 0x424A JUMP JUMPDEST SWAP1 POP SWAP2 SWAP1 POP JUMP JUMPDEST PUSH2 0x4278 DUP2 PUSH2 0x425D JUMP JUMPDEST DUP3 MSTORE POP POP JUMP JUMPDEST PUSH1 0x0 PUSH1 0x40 DUP3 ADD SWAP1 POP PUSH2 0x4293 PUSH1 0x0 DUP4 ADD DUP6 PUSH2 0x2995 JUMP JUMPDEST PUSH2 0x42A0 PUSH1 0x20 DUP4 ADD DUP5 PUSH2 0x426F JUMP JUMPDEST SWAP4 SWAP3 POP POP POP JUMP INVALID LOG2 PUSH5 0x6970667358 0x22 SLT KECCAK256 PUSH32 0xEB68AC0D3B04A89C2531783AE56C3FEA4C929B1C33D7135F196734DF77E44A64 PUSH20 0x6F6C634300081100330000000000000000000000 "
		},
		"gasEstimates": {
			"creation": {
				"codeDepositCost": "3423400",
				"executionCost": "infinite",
				"totalCost": "infinite"
			},
			"external": {
				"acceptForTranslator(uint256,uint256[],uint256)": "infinite",
				"acceptForVerifer(uint256,uint256[],uint256)": "infinite",
				"deduct(uint256,uint256,uint256,uint256,bool)": "infinite",
				"endTransAccept(uint256)": "infinite",
				"endTransVf(uint256)": "infinite",
				"overTimeTrans(uint256,uint256)": "infinite",
				"overTimeVf(uint256,uint256)": "infinite",
				"owner()": "2567",
				"postProject((uint256,string,string,uint256,string,string,string[],uint256,uint256,bool,bool,uint256,((string,uint256,uint256,uint256,uint256,uint256,string),uint256,string,uint8,uint256)[]))": "infinite",
				"receiveProject(uint256,uint256,uint256,bool)": "infinite",
				"renounceOwnership()": "30465",
				"sumbitTaskTrans(uint256,uint256,uint256,string)": "infinite",
				"transferOwnership(address)": "30832",
				"updateProject(uint256,(uint256,string,string,uint256,string,string,string[],uint256,uint256,bool,bool,uint256,((string,uint256,uint256,uint256,uint256,uint256,string),uint256,string,uint8,uint256)[]))": "infinite",
				"validate(uint256,uint256,uint256,uint256,bool,string)": "infinite"
			},
			"internal": {
				"_deduct(uint256,uint256,uint256,uint256,bool)": "infinite",
				"_endTransAccept(uint256)": "infinite",
				"_endTransVf(uint256)": "infinite",
				"_overTimeTrans(uint256,uint256)": "infinite",
				"_overTimeVf(uint256,uint256)": "infinite",
				"_postProject(struct LibProject.ProParm memory)": "infinite",
				"_receiveProject(uint256,uint256,uint256,bool)": "infinite",
				"_sumbitTaskTrans(uint256,uint256,uint256,string memory)": "infinite",
				"_sumbitTaskVf(uint256,uint256,uint256,string memory)": "infinite",
				"_updateProject(uint256,struct LibProject.ProParm memory)": "infinite",
				"_validate(uint256,uint256,uint256,uint256,bool,string memory)": "infinite"
			}
		},
		"methodIdentifiers": {
			"acceptForTranslator(uint256,uint256[],uint256)": "361e4705",
			"acceptForVerifer(uint256,uint256[],uint256)": "9d55097e",
			"deduct(uint256,uint256,uint256,uint256,bool)": "7e228f10",
			"endTransAccept(uint256)": "8adc74a5",
			"endTransVf(uint256)": "a55af701",
			"overTimeTrans(uint256,uint256)": "e9ec6b20",
			"overTimeVf(uint256,uint256)": "5508c01a",
			"owner()": "8da5cb5b",
			"postProject((uint256,string,string,uint256,string,string,string[],uint256,uint256,bool,bool,uint256,((string,uint256,uint256,uint256,uint256,uint256,string),uint256,string,uint8,uint256)[]))": "55314cc6",
			"receiveProject(uint256,uint256,uint256,bool)": "c51174f9",
			"renounceOwnership()": "715018a6",
			"sumbitTaskTrans(uint256,uint256,uint256,string)": "90296040",
			"transferOwnership(address)": "f2fde38b",
			"updateProject(uint256,(uint256,string,string,uint256,string,string,string[],uint256,uint256,bool,bool,uint256,((string,uint256,uint256,uint256,uint256,uint256,string),uint256,string,uint8,uint256)[]))": "03faeb21",
			"validate(uint256,uint256,uint256,uint256,bool,string)": "4bcf2fb0"
		}
	},
	"abi": [
		{
			"inputs": [
				{
					"internalType": "address",
					"name": "_serAddress",
					"type": "address"
				},
				{
					"internalType": "address payable",
					"name": "_transferService",
					"type": "address"
				}
			],
			"stateMutability": "nonpayable",
			"type": "constructor"
		},
		{
			"anonymous": false,
			"inputs": [
				{
					"indexed": true,
					"internalType": "address",
					"name": "previousOwner",
					"type": "address"
				},
				{
					"indexed": true,
					"internalType": "address",
					"name": "newOwner",
					"type": "address"
				}
			],
			"name": "OwnershipTransferred",
			"type": "event"
		},
		{
			"anonymous": false,
			"inputs": [
				{
					"indexed": false,
					"internalType": "uint256",
					"name": "",
					"type": "uint256"
				},
				{
					"indexed": false,
					"internalType": "uint256[]",
					"name": "",
					"type": "uint256[]"
				},
				{
					"indexed": false,
					"internalType": "uint256",
					"name": "",
					"type": "uint256"
				},
				{
					"indexed": false,
					"internalType": "address",
					"name": "",
					"type": "address"
				},
				{
					"indexed": false,
					"internalType": "string",
					"name": "",
					"type": "string"
				}
			],
			"name": "acceptTaskEv",
			"type": "event"
		},
		{
			"anonymous": false,
			"inputs": [
				{
					"indexed": false,
					"internalType": "uint256",
					"name": "",
					"type": "uint256"
				},
				{
					"indexed": false,
					"internalType": "uint256",
					"name": "",
					"type": "uint256"
				},
				{
					"indexed": false,
					"internalType": "uint256",
					"name": "",
					"type": "uint256"
				},
				{
					"indexed": false,
					"internalType": "address",
					"name": "",
					"type": "address"
				},
				{
					"indexed": false,
					"internalType": "string",
					"name": "",
					"type": "string"
				}
			],
			"name": "acceptTaskEv",
			"type": "event"
		},
		{
			"anonymous": false,
			"inputs": [
				{
					"indexed": false,
					"internalType": "address",
					"name": "",
					"type": "address"
				},
				{
					"indexed": false,
					"internalType": "uint256",
					"name": "",
					"type": "uint256"
				},
				{
					"components": [
						{
							"internalType": "uint256",
							"name": "releaseTime",
							"type": "uint256"
						},
						{
							"internalType": "string",
							"name": "introduce",
							"type": "string"
						},
						{
							"internalType": "string",
							"name": "need",
							"type": "string"
						},
						{
							"internalType": "uint256",
							"name": "deadline",
							"type": "uint256"
						},
						{
							"internalType": "string",
							"name": "sourceLanguage",
							"type": "string"
						},
						{
							"internalType": "string",
							"name": "goalLanguage",
							"type": "string"
						},
						{
							"internalType": "string[]",
							"name": "preferList",
							"type": "string[]"
						},
						{
							"internalType": "uint256",
							"name": "translationType",
							"type": "uint256"
						},
						{
							"internalType": "uint256",
							"name": "workLoad",
							"type": "uint256"
						},
						{
							"internalType": "bool",
							"name": "isNonDisclosure",
							"type": "bool"
						},
						{
							"internalType": "bool",
							"name": "isCustomize",
							"type": "bool"
						},
						{
							"internalType": "uint256",
							"name": "bounty",
							"type": "uint256"
						},
						{
							"components": [
								{
									"components": [
										{
											"internalType": "string",
											"name": "name",
											"type": "string"
										},
										{
											"internalType": "uint256",
											"name": "size",
											"type": "uint256"
										},
										{
											"internalType": "uint256",
											"name": "videoLength",
											"type": "uint256"
										},
										{
											"internalType": "uint256",
											"name": "Page",
											"type": "uint256"
										},
										{
											"internalType": "uint256",
											"name": "words",
											"type": "uint256"
										},
										{
											"internalType": "uint256",
											"name": "fileType",
											"type": "uint256"
										},
										{
											"internalType": "string",
											"name": "path",
											"type": "string"
										}
									],
									"internalType": "struct LibProject.FileInfo",
									"name": "file",
									"type": "tuple"
								},
								{
									"internalType": "uint256",
									"name": "bounty",
									"type": "uint256"
								},
								{
									"internalType": "string",
									"name": "info",
									"type": "string"
								},
								{
									"internalType": "enum LibProject.FileState",
									"name": "state",
									"type": "uint8"
								},
								{
									"internalType": "uint256",
									"name": "lastUpload",
									"type": "uint256"
								}
							],
							"internalType": "struct LibProject.TaskInfo[]",
							"name": "tasks",
							"type": "tuple[]"
						}
					],
					"indexed": false,
					"internalType": "struct LibProject.ProParm",
					"name": "",
					"type": "tuple"
				}
			],
			"name": "addProjectEv",
			"type": "event"
		},
		{
			"anonymous": false,
			"inputs": [
				{
					"indexed": false,
					"internalType": "uint256",
					"name": "",
					"type": "uint256"
				},
				{
					"indexed": false,
					"internalType": "uint256",
					"name": "",
					"type": "uint256"
				},
				{
					"indexed": false,
					"internalType": "uint256",
					"name": "",
					"type": "uint256"
				},
				{
					"indexed": false,
					"internalType": "address",
					"name": "",
					"type": "address"
				}
			],
			"name": "deductBountyEv",
			"type": "event"
		},
		{
			"anonymous": false,
			"inputs": [
				{
					"indexed": false,
					"internalType": "uint256",
					"name": "",
					"type": "uint256"
				},
				{
					"indexed": false,
					"internalType": "uint256",
					"name": "",
					"type": "uint256"
				},
				{
					"indexed": false,
					"internalType": "uint256",
					"name": "",
					"type": "uint256"
				},
				{
					"indexed": false,
					"internalType": "address",
					"name": "",
					"type": "address"
				},
				{
					"indexed": false,
					"internalType": "string",
					"name": "",
					"type": "string"
				},
				{
					"indexed": false,
					"internalType": "bool",
					"name": "",
					"type": "bool"
				}
			],
			"name": "updateFileInfoEv",
			"type": "event"
		},
		{
			"anonymous": false,
			"inputs": [
				{
					"indexed": false,
					"internalType": "uint256",
					"name": "",
					"type": "uint256"
				},
				{
					"indexed": false,
					"internalType": "uint256",
					"name": "",
					"type": "uint256"
				},
				{
					"indexed": false,
					"internalType": "address",
					"name": "",
					"type": "address"
				},
				{
					"indexed": false,
					"internalType": "enum LibProject.FileState",
					"name": "",
					"type": "uint8"
				}
			],
			"name": "updateFileStateAndTimeEv",
			"type": "event"
		},
		{
			"anonymous": false,
			"inputs": [
				{
					"indexed": false,
					"internalType": "uint256",
					"name": "",
					"type": "uint256"
				},
				{
					"indexed": false,
					"internalType": "enum LibProject.ProjectState",
					"name": "",
					"type": "uint8"
				}
			],
			"name": "updateProSateEv",
			"type": "event"
		},
		{
			"anonymous": false,
			"inputs": [
				{
					"indexed": false,
					"internalType": "uint256",
					"name": "",
					"type": "uint256"
				},
				{
					"components": [
						{
							"internalType": "uint256",
							"name": "releaseTime",
							"type": "uint256"
						},
						{
							"internalType": "string",
							"name": "introduce",
							"type": "string"
						},
						{
							"internalType": "string",
							"name": "need",
							"type": "string"
						},
						{
							"internalType": "uint256",
							"name": "deadline",
							"type": "uint256"
						},
						{
							"internalType": "string",
							"name": "sourceLanguage",
							"type": "string"
						},
						{
							"internalType": "string",
							"name": "goalLanguage",
							"type": "string"
						},
						{
							"internalType": "string[]",
							"name": "preferList",
							"type": "string[]"
						},
						{
							"internalType": "uint256",
							"name": "translationType",
							"type": "uint256"
						},
						{
							"internalType": "uint256",
							"name": "workLoad",
							"type": "uint256"
						},
						{
							"internalType": "bool",
							"name": "isNonDisclosure",
							"type": "bool"
						},
						{
							"internalType": "bool",
							"name": "isCustomize",
							"type": "bool"
						},
						{
							"internalType": "uint256",
							"name": "bounty",
							"type": "uint256"
						},
						{
							"components": [
								{
									"components": [
										{
											"internalType": "string",
											"name": "name",
											"type": "string"
										},
										{
											"internalType": "uint256",
											"name": "size",
											"type": "uint256"
										},
										{
											"internalType": "uint256",
											"name": "videoLength",
											"type": "uint256"
										},
										{
											"internalType": "uint256",
											"name": "Page",
											"type": "uint256"
										},
										{
											"internalType": "uint256",
											"name": "words",
											"type": "uint256"
										},
										{
											"internalType": "uint256",
											"name": "fileType",
											"type": "uint256"
										},
										{
											"internalType": "string",
											"name": "path",
											"type": "string"
										}
									],
									"internalType": "struct LibProject.FileInfo",
									"name": "file",
									"type": "tuple"
								},
								{
									"internalType": "uint256",
									"name": "bounty",
									"type": "uint256"
								},
								{
									"internalType": "string",
									"name": "info",
									"type": "string"
								},
								{
									"internalType": "enum LibProject.FileState",
									"name": "state",
									"type": "uint8"
								},
								{
									"internalType": "uint256",
									"name": "lastUpload",
									"type": "uint256"
								}
							],
							"internalType": "struct LibProject.TaskInfo[]",
							"name": "tasks",
							"type": "tuple[]"
						}
					],
					"indexed": false,
					"internalType": "struct LibProject.ProParm",
					"name": "",
					"type": "tuple"
				}
			],
			"name": "updateProjectEv",
			"type": "event"
		},
		{
			"anonymous": false,
			"inputs": [
				{
					"indexed": false,
					"internalType": "uint256",
					"name": "",
					"type": "uint256"
				},
				{
					"indexed": false,
					"internalType": "uint256",
					"name": "",
					"type": "uint256"
				},
				{
					"indexed": false,
					"internalType": "uint256",
					"name": "",
					"type": "uint256"
				},
				{
					"indexed": false,
					"internalType": "address",
					"name": "",
					"type": "address"
				},
				{
					"indexed": false,
					"internalType": "enum LibProject.TaskerState",
					"name": "",
					"type": "uint8"
				},
				{
					"indexed": false,
					"internalType": "bool",
					"name": "",
					"type": "bool"
				}
			],
			"name": "updateTaskerStateEv",
			"type": "event"
		},
		{
			"anonymous": false,
			"inputs": [
				{
					"indexed": false,
					"internalType": "address",
					"name": "",
					"type": "address"
				},
				{
					"indexed": false,
					"internalType": "uint256",
					"name": "",
					"type": "uint256"
				},
				{
					"indexed": false,
					"internalType": "string",
					"name": "",
					"type": "string"
				},
				{
					"indexed": false,
					"internalType": "bool",
					"name": "",
					"type": "bool"
				}
			],
			"name": "uploadAcceptStateEv",
			"type": "event"
		},
		{
			"inputs": [
				{
					"internalType": "uint256",
					"name": "_index",
					"type": "uint256"
				},
				{
					"internalType": "uint256[]",
					"name": "_fileIndex",
					"type": "uint256[]"
				},
				{
					"internalType": "uint256",
					"name": "_taskerIndex",
					"type": "uint256"
				}
			],
			"name": "acceptForTranslator",
			"outputs": [],
			"stateMutability": "nonpayable",
			"type": "function"
		},
		{
			"inputs": [
				{
					"internalType": "uint256",
					"name": "_index",
					"type": "uint256"
				},
				{
					"internalType": "uint256[]",
					"name": "_fileIndex",
					"type": "uint256[]"
				},
				{
					"internalType": "uint256",
					"name": "_taskerIndex",
					"type": "uint256"
				}
			],
			"name": "acceptForVerifer",
			"outputs": [],
			"stateMutability": "nonpayable",
			"type": "function"
		},
		{
			"inputs": [
				{
					"internalType": "uint256",
					"name": "_index",
					"type": "uint256"
				},
				{
					"internalType": "uint256",
					"name": "_taskerIndex",
					"type": "uint256"
				},
				{
					"internalType": "uint256",
					"name": "_fileIndex",
					"type": "uint256"
				},
				{
					"internalType": "uint256",
					"name": "_deduct",
					"type": "uint256"
				},
				{
					"internalType": "bool",
					"name": "_isTrans",
					"type": "bool"
				}
			],
			"name": "deduct",
			"outputs": [],
			"stateMutability": "nonpayable",
			"type": "function"
		},
		{
			"inputs": [
				{
					"internalType": "uint256",
					"name": "_index",
					"type": "uint256"
				}
			],
			"name": "endTransAccept",
			"outputs": [],
			"stateMutability": "nonpayable",
			"type": "function"
		},
		{
			"inputs": [
				{
					"internalType": "uint256",
					"name": "_index",
					"type": "uint256"
				}
			],
			"name": "endTransVf",
			"outputs": [],
			"stateMutability": "nonpayable",
			"type": "function"
		},
		{
			"inputs": [
				{
					"internalType": "uint256",
					"name": "_index",
					"type": "uint256"
				},
				{
					"internalType": "uint256",
					"name": "_taskerIndex",
					"type": "uint256"
				}
			],
			"name": "overTimeTrans",
			"outputs": [
				{
					"internalType": "bool",
					"name": "",
					"type": "bool"
				}
			],
			"stateMutability": "nonpayable",
			"type": "function"
		},
		{
			"inputs": [
				{
					"internalType": "uint256",
					"name": "_index",
					"type": "uint256"
				},
				{
					"internalType": "uint256",
					"name": "_taskerIndex",
					"type": "uint256"
				}
			],
			"name": "overTimeVf",
			"outputs": [
				{
					"internalType": "bool",
					"name": "",
					"type": "bool"
				}
			],
			"stateMutability": "nonpayable",
			"type": "function"
		},
		{
			"inputs": [],
			"name": "owner",
			"outputs": [
				{
					"internalType": "address",
					"name": "",
					"type": "address"
				}
			],
			"stateMutability": "view",
			"type": "function"
		},
		{
			"inputs": [
				{
					"components": [
						{
							"internalType": "uint256",
							"name": "releaseTime",
							"type": "uint256"
						},
						{
							"internalType": "string",
							"name": "introduce",
							"type": "string"
						},
						{
							"internalType": "string",
							"name": "need",
							"type": "string"
						},
						{
							"internalType": "uint256",
							"name": "deadline",
							"type": "uint256"
						},
						{
							"internalType": "string",
							"name": "sourceLanguage",
							"type": "string"
						},
						{
							"internalType": "string",
							"name": "goalLanguage",
							"type": "string"
						},
						{
							"internalType": "string[]",
							"name": "preferList",
							"type": "string[]"
						},
						{
							"internalType": "uint256",
							"name": "translationType",
							"type": "uint256"
						},
						{
							"internalType": "uint256",
							"name": "workLoad",
							"type": "uint256"
						},
						{
							"internalType": "bool",
							"name": "isNonDisclosure",
							"type": "bool"
						},
						{
							"internalType": "bool",
							"name": "isCustomize",
							"type": "bool"
						},
						{
							"internalType": "uint256",
							"name": "bounty",
							"type": "uint256"
						},
						{
							"components": [
								{
									"components": [
										{
											"internalType": "string",
											"name": "name",
											"type": "string"
										},
										{
											"internalType": "uint256",
											"name": "size",
											"type": "uint256"
										},
										{
											"internalType": "uint256",
											"name": "videoLength",
											"type": "uint256"
										},
										{
											"internalType": "uint256",
											"name": "Page",
											"type": "uint256"
										},
										{
											"internalType": "uint256",
											"name": "words",
											"type": "uint256"
										},
										{
											"internalType": "uint256",
											"name": "fileType",
											"type": "uint256"
										},
										{
											"internalType": "string",
											"name": "path",
											"type": "string"
										}
									],
									"internalType": "struct LibProject.FileInfo",
									"name": "file",
									"type": "tuple"
								},
								{
									"internalType": "uint256",
									"name": "bounty",
									"type": "uint256"
								},
								{
									"internalType": "string",
									"name": "info",
									"type": "string"
								},
								{
									"internalType": "enum LibProject.FileState",
									"name": "state",
									"type": "uint8"
								},
								{
									"internalType": "uint256",
									"name": "lastUpload",
									"type": "uint256"
								}
							],
							"internalType": "struct LibProject.TaskInfo[]",
							"name": "tasks",
							"type": "tuple[]"
						}
					],
					"internalType": "struct LibProject.ProParm",
					"name": "_t",
					"type": "tuple"
				}
			],
			"name": "postProject",
			"outputs": [
				{
					"internalType": "uint256",
					"name": "",
					"type": "uint256"
				}
			],
			"stateMutability": "nonpayable",
			"type": "function"
		},
		{
			"inputs": [
				{
					"internalType": "uint256",
					"name": "_index",
					"type": "uint256"
				},
				{
					"internalType": "uint256",
					"name": "_taskerIndex",
					"type": "uint256"
				},
				{
					"internalType": "uint256",
					"name": "_fileIndex",
					"type": "uint256"
				},
				{
					"internalType": "bool",
					"name": "_isPass",
					"type": "bool"
				}
			],
			"name": "receiveProject",
			"outputs": [],
			"stateMutability": "nonpayable",
			"type": "function"
		},
		{
			"inputs": [],
			"name": "renounceOwnership",
			"outputs": [],
			"stateMutability": "nonpayable",
			"type": "function"
		},
		{
			"inputs": [
				{
					"internalType": "uint256",
					"name": "_index",
					"type": "uint256"
				},
				{
					"internalType": "uint256",
					"name": "_taskerIndex",
					"type": "uint256"
				},
				{
					"internalType": "uint256",
					"name": "_fileIndex",
					"type": "uint256"
				},
				{
					"internalType": "string",
					"name": "_file",
					"type": "string"
				}
			],
			"name": "sumbitTaskTrans",
			"outputs": [],
			"stateMutability": "nonpayable",
			"type": "function"
		},
		{
			"inputs": [
				{
					"internalType": "address",
					"name": "newOwner",
					"type": "address"
				}
			],
			"name": "transferOwnership",
			"outputs": [],
			"stateMutability": "nonpayable",
			"type": "function"
		},
		{
			"inputs": [
				{
					"internalType": "uint256",
					"name": "_index",
					"type": "uint256"
				},
				{
					"components": [
						{
							"internalType": "uint256",
							"name": "releaseTime",
							"type": "uint256"
						},
						{
							"internalType": "string",
							"name": "introduce",
							"type": "string"
						},
						{
							"internalType": "string",
							"name": "need",
							"type": "string"
						},
						{
							"internalType": "uint256",
							"name": "deadline",
							"type": "uint256"
						},
						{
							"internalType": "string",
							"name": "sourceLanguage",
							"type": "string"
						},
						{
							"internalType": "string",
							"name": "goalLanguage",
							"type": "string"
						},
						{
							"internalType": "string[]",
							"name": "preferList",
							"type": "string[]"
						},
						{
							"internalType": "uint256",
							"name": "translationType",
							"type": "uint256"
						},
						{
							"internalType": "uint256",
							"name": "workLoad",
							"type": "uint256"
						},
						{
							"internalType": "bool",
							"name": "isNonDisclosure",
							"type": "bool"
						},
						{
							"internalType": "bool",
							"name": "isCustomize",
							"type": "bool"
						},
						{
							"internalType": "uint256",
							"name": "bounty",
							"type": "uint256"
						},
						{
							"components": [
								{
									"components": [
										{
											"internalType": "string",
											"name": "name",
											"type": "string"
										},
										{
											"internalType": "uint256",
											"name": "size",
											"type": "uint256"
										},
										{
											"internalType": "uint256",
											"name": "videoLength",
											"type": "uint256"
										},
										{
											"internalType": "uint256",
											"name": "Page",
											"type": "uint256"
										},
										{
											"internalType": "uint256",
											"name": "words",
											"type": "uint256"
										},
										{
											"internalType": "uint256",
											"name": "fileType",
											"type": "uint256"
										},
										{
											"internalType": "string",
											"name": "path",
											"type": "string"
										}
									],
									"internalType": "struct LibProject.FileInfo",
									"name": "file",
									"type": "tuple"
								},
								{
									"internalType": "uint256",
									"name": "bounty",
									"type": "uint256"
								},
								{
									"internalType": "string",
									"name": "info",
									"type": "string"
								},
								{
									"internalType": "enum LibProject.FileState",
									"name": "state",
									"type": "uint8"
								},
								{
									"internalType": "uint256",
									"name": "lastUpload",
									"type": "uint256"
								}
							],
							"internalType": "struct LibProject.TaskInfo[]",
							"name": "tasks",
							"type": "tuple[]"
						}
					],
					"internalType": "struct LibProject.ProParm",
					"name": "_t",
					"type": "tuple"
				}
			],
			"name": "updateProject",
			"outputs": [],
			"stateMutability": "nonpayable",
			"type": "function"
		},
		{
			"inputs": [
				{
					"internalType": "uint256",
					"name": "_index",
					"type": "uint256"
				},
				{
					"internalType": "uint256",
					"name": "_transIndex",
					"type": "uint256"
				},
				{
					"internalType": "uint256",
					"name": "_vfIndex",
					"type": "uint256"
				},
				{
					"internalType": "uint256",
					"name": "_fileIndex",
					"type": "uint256"
				},
				{
					"internalType": "bool",
					"name": "_isPass",
					"type": "bool"
				},
				{
					"internalType": "string",
					"name": "_file",
					"type": "string"
				}
			],
			"name": "validate",
			"outputs": [],
			"stateMutability": "nonpayable",
			"type": "function"
		}
	]
}