{
	"data": {
		"bytecode": {
			"linkReferences": {},
			"object": "60806040523480156200001157600080fd5b5062000032620000266200003860201b60201c565b6200004060201b60201c565b62000104565b600033905090565b60008060009054906101000a900473ffffffffffffffffffffffffffffffffffffffff169050816000806101000a81548173ffffffffffffffffffffffffffffffffffffffff021916908373ffffffffffffffffffffffffffffffffffffffff1602179055508173ffffffffffffffffffffffffffffffffffffffff168173ffffffffffffffffffffffffffffffffffffffff167f8be0079c531659141344cd1fd0a4f28419497f9722a3daafe3b4186f6b6457e060405160405180910390a35050565b61603880620001146000396000f3fe608060405234801561001057600080fd5b50600436106101585760003560e01c8063ae6008e3116100c3578063f2e602021161007c578063f2e6020214610397578063f2fde38b146103c7578063f501aa8e146103e3578063f8626ebb14610413578063fe4bfa4a14610443578063ffbafdfe1461045f57610158565b8063ae6008e3146102c7578063d2fed69c146102e3578063df3a726f14610313578063e6cfdf1f1461032f578063ea60f28c1461034b578063f0f3f2c81461036757610158565b80638da5cb5b116101155780638da5cb5b1461021b5780638fa49f84146102395780639ec44abc14610255578063a43edcbd14610271578063a77885671461028d578063a87d942c146102a957610158565b806325e78e701461015d578063311bcedf1461018d5780634fb36606146101a957806362583a28146101c5578063715018a6146101e15780638a9a9ff3146101eb575b600080fd5b61017760048036038101906101729190614523565b61047b565b6040516101849190615440565b60405180910390f35b6101a760048036038101906101a29190614702565b61109d565b005b6101c360048036038101906101be9190614523565b6111ce565b005b6101df60048036038101906101da91906146af565b61123c565b005b6101e96112ee565b005b610205600480360381019061020091906145d3565b611302565b6040516102129190615397565b60405180910390f35b610223611352565b60405161023091906152aa565b60405180910390f35b610253600480360381019061024e9190614769565b61137b565b005b61026f600480360381019061026a9190614550565b6114d9565b005b61028b60048036038101906102869190614653565b6117ea565b005b6102a760048036038101906102a29190614550565b611bb0565b005b6102b1611ec1565b6040516102be9190615462565b60405180910390f35b6102e160048036038101906102dc91906147e4565b611ecb565b005b6102fd60048036038101906102f89190614523565b611ff3565b60405161030a9190615462565b60405180910390f35b61032d60048036038101906103289190614523565b6122d4565b005b61034960048036038101906103449190614523565b612342565b005b61036560048036038101906103609190614523565b6123b0565b005b610381600480360381019061037c9190614523565b61241e565b60405161038e9190615440565b60405180910390f35b6103b160048036038101906103ac9190614523565b613040565b6040516103be9190615462565b60405180910390f35b6103e160048036038101906103dc91906144ad565b61306d565b005b6103fd60048036038101906103f891906144da565b6130f1565b60405161040a9190615462565b60405180910390f35b61042d60048036038101906104289190614523565b61346e565b60405161043a9190615462565b60405180910390f35b61045d60048036038101906104589190614702565b61374f565b005b61047960048036038101906104749190614613565b613880565b005b610483613a75565b60036000838152602001908152602001600020604051806102a00160405290816000820160009054906101000a900473ffffffffffffffffffffffffffffffffffffffff1673ffffffffffffffffffffffffffffffffffffffff1673ffffffffffffffffffffffffffffffffffffffff1681526020016001820154815260200160028201805461051290615b9a565b80601f016020809104026020016040519081016040528092919081815260200182805461053e90615b9a565b801561058b5780601f106105605761010080835404028352916020019161058b565b820191906000526020600020905b81548152906001019060200180831161056e57829003601f168201915b505050505081526020016003820180546105a490615b9a565b80601f01602080910402602001604051908101604052809291908181526020018280546105d090615b9a565b801561061d5780601f106105f25761010080835404028352916020019161061d565b820191906000526020600020905b81548152906001019060200180831161060057829003601f168201915b505050505081526020016004820154815260200160058201805461064090615b9a565b80601f016020809104026020016040519081016040528092919081815260200182805461066c90615b9a565b80156106b95780601f1061068e576101008083540402835291602001916106b9565b820191906000526020600020905b81548152906001019060200180831161069c57829003601f168201915b505050505081526020016006820180546106d290615b9a565b80601f01602080910402602001604051908101604052809291908181526020018280546106fe90615b9a565b801561074b5780601f106107205761010080835404028352916020019161074b565b820191906000526020600020905b81548152906001019060200180831161072e57829003601f168201915b5050505050815260200160078201805480602002602001604051908101604052809291908181526020016000905b8282101561082557838290600052602060002001805461079890615b9a565b80601f01602080910402602001604051908101604052809291908181526020018280546107c490615b9a565b80156108115780601f106107e657610100808354040283529160200191610811565b820191906000526020600020905b8154815290600101906020018083116107f457829003601f168201915b505050505081526020019060010190610779565b5050505081526020016008820154815260200160098201548152602001600a820160009054906101000a900460ff16151515158152602001600a820160019054906101000a900460ff16151515158152602001600b8201548152602001600c8201805480602002602001604051908101604052809291908181526020016000905b82821015610b2357838290600052602060002090600b02016040518060a0016040529081600082016040518060e00160405290816000820180546108e990615b9a565b80601f016020809104026020016040519081016040528092919081815260200182805461091590615b9a565b80156109625780601f1061093757610100808354040283529160200191610962565b820191906000526020600020905b81548152906001019060200180831161094557829003601f168201915b5050505050815260200160018201548152602001600282015481526020016003820154815260200160048201548152602001600582015481526020016006820180546109ad90615b9a565b80601f01602080910402602001604051908101604052809291908181526020018280546109d990615b9a565b8015610a265780601f106109fb57610100808354040283529160200191610a26565b820191906000526020600020905b815481529060010190602001808311610a0957829003601f168201915b505050505081525050815260200160078201548152602001600882018054610a4d90615b9a565b80601f0160208091040260200160405190810160405280929190818152602001828054610a7990615b9a565b8015610ac65780601f10610a9b57610100808354040283529160200191610ac6565b820191906000526020600020905b815481529060010190602001808311610aa957829003601f168201915b505050505081526020016009820160009054906101000a900460ff166005811115610af457610af3615ca4565b5b6005811115610b0657610b05615ca4565b5b8152602001600a82015481525050815260200190600101906108a6565b505050508152602001600d8201805480602002602001604051908101604052809291908181526020016000905b82821015610d9657838290600052602060002090600402016040518060800160405290816000820160009054906101000a900473ffffffffffffffffffffffffffffffffffffffff1673ffffffffffffffffffffffffffffffffffffffff1673ffffffffffffffffffffffffffffffffffffffff16815260200160018201805480602002602001604051908101604052809291908181526020018280548015610c1857602002820191906000526020600020905b815481526020019060010190808311610c04575b5050505050815260200160028201805480602002602001604051908101604052809291908181526020018280548015610ca557602002820191906000526020600020906000905b82829054906101000a900460ff166007811115610c7f57610c7e615ca4565b5b81526020019060010190602082600001049283019260010382029150808411610c5f5790505b5050505050815260200160038201805480602002602001604051908101604052809291908181526020016000905b82821015610d7f578382906000526020600020018054610cf290615b9a565b80601f0160208091040260200160405190810160405280929190818152602001828054610d1e90615b9a565b8015610d6b5780601f10610d4057610100808354040283529160200191610d6b565b820191906000526020600020905b815481529060010190602001808311610d4e57829003601f168201915b505050505081526020019060010190610cd3565b505050508152505081526020019060010190610b50565b505050508152602001600e8201805480602002602001604051908101604052809291908181526020016000905b8282101561100957838290600052602060002090600402016040518060800160405290816000820160009054906101000a900473ffffffffffffffffffffffffffffffffffffffff1673ffffffffffffffffffffffffffffffffffffffff1673ffffffffffffffffffffffffffffffffffffffff16815260200160018201805480602002602001604051908101604052809291908181526020018280548015610e8b57602002820191906000526020600020905b815481526020019060010190808311610e77575b5050505050815260200160028201805480602002602001604051908101604052809291908181526020018280548015610f1857602002820191906000526020600020906000905b82829054906101000a900460ff166007811115610ef257610ef1615ca4565b5b81526020019060010190602082600001049283019260010382029150808411610ed25790505b5050505050815260200160038201805480602002602001604051908101604052809291908181526020016000905b82821015610ff2578382906000526020600020018054610f6590615b9a565b80601f0160208091040260200160405190810160405280929190818152602001828054610f9190615b9a565b8015610fde5780601f10610fb357610100808354040283529160200191610fde565b820191906000526020600020905b815481529060010190602001808311610fc157829003601f168201915b505050505081526020019060010190610f46565b505050508152505081526020019060010190610dc3565b505050508152602001600f8201548152602001601082015481526020016011820160009054906101000a900460ff161515151581526020016011820160019054906101000a900460ff161515151581526020016011820160029054906101000a900460ff1660058111156110805761107f615ca4565b5b600581111561109257611091615ca4565b5b815250509050919050565b83600115156003600083815260200190815260200160002060110160019054906101000a900460ff16151514806110e25750600015156110de826000611302565b1515145b1561112457806040517fa0f2fa6e00000000000000000000000000000000000000000000000000000000815260040161111b9190615412565b60405180910390fd5b600060036000878152602001908152602001600020600e01848154811061114e5761114d615d02565b5b90600052602060002090600402019050806001018590806001815401808255809150506001900390600052602060002001600090919091909150557f42464f2a0157d4ce4c9f85bf5cb19bfd2f20f71a6bf72e9f0b026828b82d0421868686866040516111be9493929190615701565b60405180910390a1505050505050565b60016003600083815260200190815260200160002060110160006101000a81548160ff0219169083151502179055507f0dab2890e878ef6d9a9f1d69f761d77bf93c6049fccaa71abc31baa20493179a33826001604051611231939291906152c5565b60405180910390a150565b600060036000858152602001908152602001600020600c01838154811061126657611265615d02565b5b90600052602060002090600b02019050818160090160006101000a81548160ff0219169083600581111561129d5761129c615ca4565b5b02179055504281600a01819055507f2daa2b191f7503db9793a6ac4672f793306e9f14a9e12053446280e0579b141e848433856040516112e094939291906155f3565b60405180910390a150505050565b6112f66138fb565b6113006000613979565b565b60008060036000858152602001908152602001600020600c01805490509050600083156113395761133285611ff3565b9050611345565b6113428561346e565b90505b8181149250505092915050565b60008060009054906101000a900473ffffffffffffffffffffffffffffffffffffffff16905090565b801561140b578160036000878152602001908152602001600020600d0185815481106113aa576113a9615d02565b5b906000526020600020906004020160020184815481106113cd576113cc615d02565b5b90600052602060002090602091828204019190066101000a81548160ff0219169083600781111561140157611400615ca4565b5b0217905550611491565b8160036000878152602001908152602001600020600e01858154811061143457611433615d02565b5b9060005260206000209060040201600201848154811061145757611456615d02565b5b90600052602060002090602091828204019190066101000a81548160ff0219169083600781111561148b5761148a615ca4565b5b02179055505b7f7a4c6c6d31a8e32b7079ed0a441635f6962895829ff2d261acff68a91cc0c9c58585853386866040516114ca96959493929190615638565b60405180910390a15050505050565b83600015156003600083815260200190815260200160002060110160009054906101000a900460ff161515148061151e57506001151561151a826001611302565b1515145b1561156057806040517fa0f2fa6e0000000000000000000000000000000000000000000000000000000081526004016115579190615412565b60405180910390fd5b60008314156116eb57600060036000878152602001908152602001600020600d01905061158b613b45565b83816000019073ffffffffffffffffffffffffffffffffffffffff16908173ffffffffffffffffffffffffffffffffffffffff16815250508581602001819052508181908060018154018082558091505060019003906000526020600020906004020160009091909190915060008201518160000160006101000a81548173ffffffffffffffffffffffffffffffffffffffff021916908373ffffffffffffffffffffffffffffffffffffffff160217905550602082015181600101908051906020019061165a929190613b83565b506040820151816002019080519060200190611677929190613bd0565b506060820151816003019080519060200190611694929190613c86565b5050507fe0705e150b28965a46d4bb97481ff88f99b107a8b840f7d14724cd1ee39fd3898787600185805490506116cb9190615a6d565b876040516116dc949392919061547d565b60405180910390a150506117c9565b600060036000878152602001908152602001600020600d01848154811061171557611714615d02565b5b9060005260206000209060040201905060005b8551811015611789578160010186828151811061174857611747615d02565b5b60200260200101519080600181540180825580915050600190039060005260206000200160009091909190915055808061178190615bfd565b915050611728565b507fe0705e150b28965a46d4bb97481ff88f99b107a8b840f7d14724cd1ee39fd389868686866040516117bf949392919061553b565b60405180910390a1505b6117d4856001611302565b156117e3576117e2856123b0565b5b5050505050565b813373ffffffffffffffffffffffffffffffffffffffff1661180b8261047b565b6000015173ffffffffffffffffffffffffffffffffffffffff1614611865576040517f08c379a000000000000000000000000000000000000000000000000000000000815260040161185c906153d2565b60405180910390fd5b60006003600085815260200190815260200160002090508260000151816001018190555082602001518160020190805190602001906118a5929190613ce6565b5082604001518160030190805190602001906118c2929190613ce6565b508260600151816004018190555082608001518160050190805190602001906118ec929190613ce6565b508260a00151816006019080519060200190611909929190613ce6565b508260c00151816007019080519060200190611926929190613c86565b508260e001518160080181905550826101000151816009018190555082610160015181600b018190555082610120015181600a0160006101000a81548160ff02191690831515021790555082610140015181600a0160016101000a81548160ff02191690831515021790555060008160110160026101000a81548160ff021916908360058111156119ba576119b9615ca4565b5b0217905550826101a0015181600f0181905550826101c00151816010018190555060018160110160006101000a81548160ff02191690831515021790555060008160110160026101000a81548160ff02191690836005811115611a2057611a1f615ca4565b5b021790555060005b83610180015151811015611b705781600c018461018001518281518110611a5257611a51615d02565b5b602002602001015190806001815401808255809150506001900390600052602060002090600b02016000909190919091506000820151816000016000820151816000019080519060200190611aa8929190613ce6565b506020820151816001015560408201518160020155606082015181600301556080820151816004015560a0820151816005015560c0820151816006019080519060200190611af7929190613ce6565b505050602082015181600701556040820151816008019080519060200190611b20929190613ce6565b5060608201518160090160006101000a81548160ff02191690836005811115611b4c57611b4b615ca4565b5b0217905550608082015181600a015550508080611b6890615bfd565b915050611a28565b507f13bd8eb024979aa1a19e47a1032f4dffe5037f93b1ae0a9a67952dbd825108308484604051611ba29291906155c3565b60405180910390a150505050565b83600115156003600083815260200190815260200160002060110160019054906101000a900460ff1615151480611bf5575060001515611bf1826000611302565b1515145b15611c3757806040517fa0f2fa6e000000000000000000000000000000000000000000000000000000008152600401611c2e9190615412565b60405180910390fd5b6000831415611dc257600060036000878152602001908152602001600020600e019050611c62613b45565b83816000019073ffffffffffffffffffffffffffffffffffffffff16908173ffffffffffffffffffffffffffffffffffffffff16815250508581602001819052508181908060018154018082558091505060019003906000526020600020906004020160009091909190915060008201518160000160006101000a81548173ffffffffffffffffffffffffffffffffffffffff021916908373ffffffffffffffffffffffffffffffffffffffff1602179055506020820151816001019080519060200190611d31929190613b83565b506040820151816002019080519060200190611d4e929190613bd0565b506060820151816003019080519060200190611d6b929190613c86565b5050507fe0705e150b28965a46d4bb97481ff88f99b107a8b840f7d14724cd1ee39fd389878760018580549050611da29190615a6d565b87604051611db394939291906154dc565b60405180910390a15050611ea0565b600060036000878152602001908152602001600020600e018481548110611dec57611deb615d02565b5b9060005260206000209060040201905060005b8551811015611e605781600101868281518110611e1f57611e1e615d02565b5b602002602001015190806001815401808255809150506001900390600052602060002001600090919091909150558080611e5890615bfd565b915050611dff565b507fe0705e150b28965a46d4bb97481ff88f99b107a8b840f7d14724cd1ee39fd38986868686604051611e9694939291906154dc565b60405180910390a1505b611eab856000611302565b15611eba57611eb9856123b0565b5b5050505050565b6000600454905090565b8015611f40578160036000878152602001908152602001600020600d018581548110611efa57611ef9615d02565b5b90600052602060002090600402016003018481548110611f1d57611f1c615d02565b5b906000526020600020019080519060200190611f3a929190613ce6565b50611fab565b8160036000878152602001908152602001600020600e018581548110611f6957611f68615d02565b5b90600052602060002090600402016003018481548110611f8c57611f8b615d02565b5b906000526020600020019080519060200190611fa9929190613ce6565b505b7f3ebf5ef7e115e4166869b39d9f913e067201db6ced02054116e14e2ab7c4b4a8858585338686604051611fe496959493929190615699565b60405180910390a15050505050565b60008060036000848152602001908152602001600020600d01805480602002602001604051908101604052809291908181526020016000905b8282101561227257838290600052602060002090600402016040518060800160405290816000820160009054906101000a900473ffffffffffffffffffffffffffffffffffffffff1673ffffffffffffffffffffffffffffffffffffffff1673ffffffffffffffffffffffffffffffffffffffff168152602001600182018054806020026020016040519081016040528092919081815260200182805480156120f457602002820191906000526020600020905b8154815260200190600101908083116120e0575b505050505081526020016002820180548060200260200160405190810160405280929190818152602001828054801561218157602002820191906000526020600020906000905b82829054906101000a900460ff16600781111561215b5761215a615ca4565b5b8152602001906001019060208260000104928301926001038202915080841161213b5790505b5050505050815260200160038201805480602002602001604051908101604052809291908181526020016000905b8282101561225b5783829060005260206000200180546121ce90615b9a565b80601f01602080910402602001604051908101604052809291908181526020018280546121fa90615b9a565b80156122475780601f1061221c57610100808354040283529160200191612247565b820191906000526020600020905b81548152906001019060200180831161222a57829003601f168201915b5050505050815260200190600101906121af565b50505050815250508152602001906001019061202c565b505050509050600080600090505b82518110156122c95782818151811061229c5761229b615d02565b5b60200260200101516020015151826122b491906159e6565b915080806122c190615bfd565b915050612280565b508092505050919050565b60006003600083815260200190815260200160002060110160016101000a81548160ff0219169083151502179055507f0dab2890e878ef6d9a9f1d69f761d77bf93c6049fccaa71abc31baa20493179a338260006040516123379392919061530f565b60405180910390a150565b60016003600083815260200190815260200160002060110160016101000a81548160ff0219169083151502179055507f0dab2890e878ef6d9a9f1d69f761d77bf93c6049fccaa71abc31baa20493179a338260016040516123a5939291906152c5565b60405180910390a150565b60006003600083815260200190815260200160002060110160006101000a81548160ff0219169083151502179055507f0dab2890e878ef6d9a9f1d69f761d77bf93c6049fccaa71abc31baa20493179a33826000604051612413939291906152c5565b60405180910390a150565b612426613a75565b60036000838152602001908152602001600020604051806102a00160405290816000820160009054906101000a900473ffffffffffffffffffffffffffffffffffffffff1673ffffffffffffffffffffffffffffffffffffffff1673ffffffffffffffffffffffffffffffffffffffff168152602001600182015481526020016002820180546124b590615b9a565b80601f01602080910402602001604051908101604052809291908181526020018280546124e190615b9a565b801561252e5780601f106125035761010080835404028352916020019161252e565b820191906000526020600020905b81548152906001019060200180831161251157829003601f168201915b5050505050815260200160038201805461254790615b9a565b80601f016020809104026020016040519081016040528092919081815260200182805461257390615b9a565b80156125c05780601f10612595576101008083540402835291602001916125c0565b820191906000526020600020905b8154815290600101906020018083116125a357829003601f168201915b50505050508152602001600482015481526020016005820180546125e390615b9a565b80601f016020809104026020016040519081016040528092919081815260200182805461260f90615b9a565b801561265c5780601f106126315761010080835404028352916020019161265c565b820191906000526020600020905b81548152906001019060200180831161263f57829003601f168201915b5050505050815260200160068201805461267590615b9a565b80601f01602080910402602001604051908101604052809291908181526020018280546126a190615b9a565b80156126ee5780601f106126c3576101008083540402835291602001916126ee565b820191906000526020600020905b8154815290600101906020018083116126d157829003601f168201915b5050505050815260200160078201805480602002602001604051908101604052809291908181526020016000905b828210156127c857838290600052602060002001805461273b90615b9a565b80601f016020809104026020016040519081016040528092919081815260200182805461276790615b9a565b80156127b45780601f10612789576101008083540402835291602001916127b4565b820191906000526020600020905b81548152906001019060200180831161279757829003601f168201915b50505050508152602001906001019061271c565b5050505081526020016008820154815260200160098201548152602001600a820160009054906101000a900460ff16151515158152602001600a820160019054906101000a900460ff16151515158152602001600b8201548152602001600c8201805480602002602001604051908101604052809291908181526020016000905b82821015612ac657838290600052602060002090600b02016040518060a0016040529081600082016040518060e001604052908160008201805461288c90615b9a565b80601f01602080910402602001604051908101604052809291908181526020018280546128b890615b9a565b80156129055780601f106128da57610100808354040283529160200191612905565b820191906000526020600020905b8154815290600101906020018083116128e857829003601f168201915b50505050508152602001600182015481526020016002820154815260200160038201548152602001600482015481526020016005820154815260200160068201805461295090615b9a565b80601f016020809104026020016040519081016040528092919081815260200182805461297c90615b9a565b80156129c95780601f1061299e576101008083540402835291602001916129c9565b820191906000526020600020905b8154815290600101906020018083116129ac57829003601f168201915b5050505050815250508152602001600782015481526020016008820180546129f090615b9a565b80601f0160208091040260200160405190810160405280929190818152602001828054612a1c90615b9a565b8015612a695780601f10612a3e57610100808354040283529160200191612a69565b820191906000526020600020905b815481529060010190602001808311612a4c57829003601f168201915b505050505081526020016009820160009054906101000a900460ff166005811115612a9757612a96615ca4565b5b6005811115612aa957612aa8615ca4565b5b8152602001600a8201548152505081526020019060010190612849565b505050508152602001600d8201805480602002602001604051908101604052809291908181526020016000905b82821015612d3957838290600052602060002090600402016040518060800160405290816000820160009054906101000a900473ffffffffffffffffffffffffffffffffffffffff1673ffffffffffffffffffffffffffffffffffffffff1673ffffffffffffffffffffffffffffffffffffffff16815260200160018201805480602002602001604051908101604052809291908181526020018280548015612bbb57602002820191906000526020600020905b815481526020019060010190808311612ba7575b5050505050815260200160028201805480602002602001604051908101604052809291908181526020018280548015612c4857602002820191906000526020600020906000905b82829054906101000a900460ff166007811115612c2257612c21615ca4565b5b81526020019060010190602082600001049283019260010382029150808411612c025790505b5050505050815260200160038201805480602002602001604051908101604052809291908181526020016000905b82821015612d22578382906000526020600020018054612c9590615b9a565b80601f0160208091040260200160405190810160405280929190818152602001828054612cc190615b9a565b8015612d0e5780601f10612ce357610100808354040283529160200191612d0e565b820191906000526020600020905b815481529060010190602001808311612cf157829003601f168201915b505050505081526020019060010190612c76565b505050508152505081526020019060010190612af3565b505050508152602001600e8201805480602002602001604051908101604052809291908181526020016000905b82821015612fac57838290600052602060002090600402016040518060800160405290816000820160009054906101000a900473ffffffffffffffffffffffffffffffffffffffff1673ffffffffffffffffffffffffffffffffffffffff1673ffffffffffffffffffffffffffffffffffffffff16815260200160018201805480602002602001604051908101604052809291908181526020018280548015612e2e57602002820191906000526020600020905b815481526020019060010190808311612e1a575b5050505050815260200160028201805480602002602001604051908101604052809291908181526020018280548015612ebb57602002820191906000526020600020906000905b82829054906101000a900460ff166007811115612e9557612e94615ca4565b5b81526020019060010190602082600001049283019260010382029150808411612e755790505b5050505050815260200160038201805480602002602001604051908101604052809291908181526020016000905b82821015612f95578382906000526020600020018054612f0890615b9a565b80601f0160208091040260200160405190810160405280929190818152602001828054612f3490615b9a565b8015612f815780601f10612f5657610100808354040283529160200191612f81565b820191906000526020600020905b815481529060010190602001808311612f6457829003601f168201915b505050505081526020019060010190612ee9565b505050508152505081526020019060010190612d66565b505050508152602001600f8201548152602001601082015481526020016011820160009054906101000a900460ff161515151581526020016011820160019054906101000a900460ff161515151581526020016011820160029054906101000a900460ff16600581111561302357613022615ca4565b5b600581111561303557613034615ca4565b5b815250509050919050565b60008060025483116130555760019050613064565b61306183600254613a3d565b90505b80915050919050565b6130756138fb565b600073ffffffffffffffffffffffffffffffffffffffff168173ffffffffffffffffffffffffffffffffffffffff1614156130e5576040517f08c379a00000000000000000000000000000000000000000000000000000000081526004016130dc906153b2565b60405180910390fd5b6130ee81613979565b50565b60006130fb613a53565b6000600360006004548152602001908152602001600020905082600001518160010181905550826020015181600201908051906020019061313d929190613ce6565b50826040015181600301908051906020019061315a929190613ce6565b50826060015181600401819055508260800151816005019080519060200190613184929190613ce6565b508260a001518160060190805190602001906131a1929190613ce6565b508260c001518160070190805190602001906131be929190613c86565b508260e001518160080181905550826101000151816009018190555082610160015181600b018190555082610120015181600a0160006101000a81548160ff02191690831515021790555082610140015181600a0160016101000a81548160ff02191690831515021790555060008160110160026101000a81548160ff0219169083600581111561325257613251615ca4565b5b0217905550826101a0015181600f0181905550826101c00151816010018190555060018160110160006101000a81548160ff02191690831515021790555060018160110160016101000a81548160ff02191690831515021790555060008160110160026101000a81548160ff021916908360058111156132d5576132d4615ca4565b5b021790555060005b836101800151518110156134255781600c01846101800151828151811061330757613306615d02565b5b602002602001015190806001815401808255809150506001900390600052602060002090600b0201600090919091909150600082015181600001600082015181600001908051906020019061335d929190613ce6565b506020820151816001015560408201518160020155606082015181600301556080820151816004015560a0820151816005015560c08201518160060190805190602001906133ac929190613ce6565b5050506020820151816007015560408201518160080190805190602001906133d5929190613ce6565b5060608201518160090160006101000a81548160ff0219169083600581111561340157613400615ca4565b5b0217905550608082015181600a01555050808061341d90615bfd565b9150506132dd565b507ffd989d3baabd6a3c76ae101e9a8037ead1322140a770842a81514f7515e9d81e336004548560405161345b93929190615359565b60405180910390a1600454915050919050565b60008060036000848152602001908152602001600020600e01805480602002602001604051908101604052809291908181526020016000905b828210156136ed57838290600052602060002090600402016040518060800160405290816000820160009054906101000a900473ffffffffffffffffffffffffffffffffffffffff1673ffffffffffffffffffffffffffffffffffffffff1673ffffffffffffffffffffffffffffffffffffffff1681526020016001820180548060200260200160405190810160405280929190818152602001828054801561356f57602002820191906000526020600020905b81548152602001906001019080831161355b575b50505050508152602001600282018054806020026020016040519081016040528092919081815260200182805480156135fc57602002820191906000526020600020906000905b82829054906101000a900460ff1660078111156135d6576135d5615ca4565b5b815260200190600101906020826000010492830192600103820291508084116135b65790505b5050505050815260200160038201805480602002602001604051908101604052809291908181526020016000905b828210156136d657838290600052602060002001805461364990615b9a565b80601f016020809104026020016040519081016040528092919081815260200182805461367590615b9a565b80156136c25780601f10613697576101008083540402835291602001916136c2565b820191906000526020600020905b8154815290600101906020018083116136a557829003601f168201915b50505050508152602001906001019061362a565b5050505081525050815260200190600101906134a7565b505050509050600080600090505b82518110156137445782818151811061371757613716615d02565b5b602002602001015160200151518261372f91906159e6565b9150808061373c90615bfd565b9150506136fb565b508092505050919050565b83600015156003600083815260200190815260200160002060110160009054906101000a900460ff1615151480613794575060011515613790826001611302565b1515145b156137d657806040517fa0f2fa6e0000000000000000000000000000000000000000000000000000000081526004016137cd9190615412565b60405180910390fd5b600060036000878152602001908152602001600020600d018481548110613800576137ff615d02565b5b90600052602060002090600402019050806001018590806001815401808255809150506001900390600052602060002001600090919091909150557f42464f2a0157d4ce4c9f85bf5cb19bfd2f20f71a6bf72e9f0b026828b82d0421868686866040516138709493929190615759565b60405180910390a1505050505050565b806003600084815260200190815260200160002060110160026101000a81548160ff021916908360058111156138b9576138b8615ca4565b5b02179055507ff05815fde2beb683b051c459b8261ed061c1164c5e53f2be389201d754bb311e82826040516138ef92919061559a565b60405180910390a15050565b613903613a6d565b73ffffffffffffffffffffffffffffffffffffffff16613921611352565b73ffffffffffffffffffffffffffffffffffffffff1614613977576040517f08c379a000000000000000000000000000000000000000000000000000000000815260040161396e906153f2565b60405180910390fd5b565b60008060009054906101000a900473ffffffffffffffffffffffffffffffffffffffff169050816000806101000a81548173ffffffffffffffffffffffffffffffffffffffff021916908373ffffffffffffffffffffffffffffffffffffffff1602179055508173ffffffffffffffffffffffffffffffffffffffff168173ffffffffffffffffffffffffffffffffffffffff167f8be0079c531659141344cd1fd0a4f28419497f9722a3daafe3b4186f6b6457e060405160405180910390a35050565b60008183613a4b9190615a3c565b905092915050565b60046000815480929190613a6690615bfd565b9190505550565b600033905090565b604051806102a00160405280600073ffffffffffffffffffffffffffffffffffffffff16815260200160008152602001606081526020016060815260200160008152602001606081526020016060815260200160608152602001600081526020016000815260200160001515815260200160001515815260200160008152602001606081526020016060815260200160608152602001600081526020016000815260200160001515815260200160001515815260200160006005811115613b3f57613b3e615ca4565b5b81525090565b6040518060800160405280600073ffffffffffffffffffffffffffffffffffffffff1681526020016060815260200160608152602001606081525090565b828054828255906000526020600020908101928215613bbf579160200282015b82811115613bbe578251825591602001919060010190613ba3565b5b509050613bcc9190613d6c565b5090565b82805482825590600052602060002090601f01602090048101928215613c755791602002820160005b83821115613c4657835183826101000a81548160ff02191690836007811115613c2557613c24615ca4565b5b02179055509260200192600101602081600001049283019260010302613bf9565b8015613c735782816101000a81549060ff0219169055600101602081600001049283019260010302613c46565b505b509050613c829190613d6c565b5090565b828054828255906000526020600020908101928215613cd5579160200282015b82811115613cd4578251829080519060200190613cc4929190613ce6565b5091602001919060010190613ca6565b5b509050613ce29190613d89565b5090565b828054613cf290615b9a565b90600052602060002090601f016020900481019282613d145760008555613d5b565b82601f10613d2d57805160ff1916838001178555613d5b565b82800160010185558215613d5b579182015b82811115613d5a578251825591602001919060010190613d3f565b5b509050613d689190613d6c565b5090565b5b80821115613d85576000816000905550600101613d6d565b5090565b5b80821115613da95760008181613da09190613dad565b50600101613d8a565b5090565b508054613db990615b9a565b6000825580601f10613dcb5750613dea565b601f016020900490600052602060002090810190613de99190613d6c565b5b50565b6000613e00613dfb846157d6565b6157b1565b90508083825260208201905082856020860282011115613e2357613e22615d6f565b5b60005b85811015613e7157813567ffffffffffffffff811115613e4957613e48615d60565b5b808601613e5689826140ae565b85526020850194506020840193505050600181019050613e26565b5050509392505050565b6000613e8e613e8984615802565b6157b1565b90508083825260208201905082856020860282011115613eb157613eb0615d6f565b5b60005b85811015613eff57813567ffffffffffffffff811115613ed757613ed6615d60565b5b808601613ee489826143d4565b85526020850194506020840193505050600181019050613eb4565b5050509392505050565b6000613f1c613f178461582e565b6157b1565b90508083825260208201905082856020860282011115613f3f57613f3e615d6f565b5b60005b85811015613f6f5781613f558882614498565b845260208401935060208301925050600181019050613f42565b5050509392505050565b6000613f8c613f878461585a565b6157b1565b905082815260208101848484011115613fa857613fa7615d74565b5b613fb3848285615b58565b509392505050565b600081359050613fca81615f8d565b92915050565b600082601f830112613fe557613fe4615d60565b5b8135613ff5848260208601613ded565b91505092915050565b600082601f83011261401357614012615d60565b5b8135614023848260208601613e7b565b91505092915050565b600082601f83011261404157614040615d60565b5b8135614051848260208601613f09565b91505092915050565b60008135905061406981615fa4565b92915050565b60008135905061407e81615fbb565b92915050565b60008135905061409381615fcb565b92915050565b6000813590506140a881615fdb565b92915050565b600082601f8301126140c3576140c2615d60565b5b81356140d3848260208601613f79565b91505092915050565b600060e082840312156140f2576140f1615d65565b5b6140fc60e06157b1565b9050600082013567ffffffffffffffff81111561411c5761411b615d6a565b5b614128848285016140ae565b600083015250602061413c84828501614498565b602083015250604061415084828501614498565b604083015250606061416484828501614498565b606083015250608061417884828501614498565b60808301525060a061418c84828501614498565b60a08301525060c082013567ffffffffffffffff8111156141b0576141af615d6a565b5b6141bc848285016140ae565b60c08301525092915050565b60006101e082840312156141df576141de615d65565b5b6141ea6101e06157b1565b905060006141fa84828501614498565b600083015250602082013567ffffffffffffffff81111561421e5761421d615d6a565b5b61422a848285016140ae565b602083015250604082013567ffffffffffffffff81111561424e5761424d615d6a565b5b61425a848285016140ae565b604083015250606061426e84828501614498565b606083015250608082013567ffffffffffffffff81111561429257614291615d6a565b5b61429e848285016140ae565b60808301525060a082013567ffffffffffffffff8111156142c2576142c1615d6a565b5b6142ce848285016140ae565b60a08301525060c082013567ffffffffffffffff8111156142f2576142f1615d6a565b5b6142fe84828501613fd0565b60c08301525060e061431284828501614498565b60e08301525061010061432784828501614498565b6101008301525061012061433d8482850161405a565b610120830152506101406143538482850161405a565b6101408301525061016061436984828501614498565b6101608301525061018082013567ffffffffffffffff81111561438f5761438e615d6a565b5b61439b84828501613ffe565b610180830152506101a06143b184828501614498565b6101a0830152506101c06143c784828501614498565b6101c08301525092915050565b600060a082840312156143ea576143e9615d65565b5b6143f460a06157b1565b9050600082013567ffffffffffffffff81111561441457614413615d6a565b5b614420848285016140dc565b600083015250602061443484828501614498565b602083015250604082013567ffffffffffffffff81111561445857614457615d6a565b5b614464848285016140ae565b60408301525060606144788482850161406f565b606083015250608061448c84828501614498565b60808301525092915050565b6000813590506144a781615feb565b92915050565b6000602082840312156144c3576144c2615d7e565b5b60006144d184828501613fbb565b91505092915050565b6000602082840312156144f0576144ef615d7e565b5b600082013567ffffffffffffffff81111561450e5761450d615d79565b5b61451a848285016141c8565b91505092915050565b60006020828403121561453957614538615d7e565b5b600061454784828501614498565b91505092915050565b6000806000806080858703121561456a57614569615d7e565b5b600061457887828801614498565b945050602085013567ffffffffffffffff81111561459957614598615d79565b5b6145a58782880161402c565b93505060406145b687828801614498565b92505060606145c787828801613fbb565b91505092959194509250565b600080604083850312156145ea576145e9615d7e565b5b60006145f885828601614498565b92505060206146098582860161405a565b9150509250929050565b6000806040838503121561462a57614629615d7e565b5b600061463885828601614498565b925050602061464985828601614084565b9150509250929050565b6000806040838503121561466a57614669615d7e565b5b600061467885828601614498565b925050602083013567ffffffffffffffff81111561469957614698615d79565b5b6146a5858286016141c8565b9150509250929050565b6000806000606084860312156146c8576146c7615d7e565b5b60006146d686828701614498565b93505060206146e786828701614498565b92505060406146f88682870161406f565b9150509250925092565b6000806000806080858703121561471c5761471b615d7e565b5b600061472a87828801614498565b945050602061473b87828801614498565b935050604061474c87828801614498565b925050606061475d87828801613fbb565b91505092959194509250565b600080600080600060a0868803121561478557614784615d7e565b5b600061479388828901614498565b95505060206147a488828901614498565b94505060406147b588828901614498565b93505060606147c688828901614099565b92505060806147d78882890161405a565b9150509295509295909350565b600080600080600060a08688031215614800576147ff615d7e565b5b600061480e88828901614498565b955050602061481f88828901614498565b945050604061483088828901614498565b935050606086013567ffffffffffffffff81111561485157614850615d79565b5b61485d888289016140ae565b925050608061486e8882890161405a565b9150509295509295909350565b60006148878383614bd8565b60208301905092915050565b600061489f8383614bf6565b905092915050565b60006148b38383614fac565b905092915050565b60006148c78383615029565b905092915050565b60006148db838361528c565b60208301905092915050565b6148f081615aa1565b82525050565b6148ff81615aa1565b82525050565b6000614910826158db565b61491a81856159b3565b93506149258361588b565b8060005b8381101561495657815161493d888261487b565b97506149488361591d565b925050600181019050614929565b5085935050505092915050565b600061496e826158e6565b614978818561595e565b93508360208202850161498a8561589b565b8060005b858110156149c657848403895281516149a78582614893565b94506149b28361592a565b925060208a0199505060018101905061498e565b50829750879550505050505092915050565b60006149e3826158f1565b6149ed818561596f565b9350836020820285016149ff856158ab565b8060005b85811015614a3b5784840389528151614a1c85826148a7565b9450614a2783615937565b925060208a01995050600181019050614a03565b50829750879550505050505092915050565b6000614a58826158fc565b614a628185615980565b935083602082028501614a74856158bb565b8060005b85811015614ab05784840389528151614a9185826148bb565b9450614a9c83615944565b925060208a01995050600181019050614a78565b50829750879550505050505092915050565b6000614acd82615907565b614ad78185615991565b9350614ae2836158cb565b8060005b83811015614b13578151614afa88826148cf565b9750614b0583615951565b925050600181019050614ae6565b5085935050505092915050565b6000614b2b82615907565b614b3581856159a2565b9350614b40836158cb565b8060005b83811015614b71578151614b5888826148cf565b9750614b6383615951565b925050600181019050614b44565b5085935050505092915050565b614b8781615ab3565b82525050565b614b9681615ab3565b82525050565b614ba581615b22565b82525050565b614bb481615b22565b82525050565b614bc381615b34565b82525050565b614bd281615b34565b82525050565b614be181615b46565b82525050565b614bf081615b46565b82525050565b6000614c0182615912565b614c0b81856159c4565b9350614c1b818560208601615b67565b614c2481615d83565b840191505092915050565b6000614c3a82615912565b614c4481856159d5565b9350614c54818560208601615b67565b614c5d81615d83565b840191505092915050565b6000614c756026836159d5565b9150614c8082615d94565b604082019050919050565b6000614c98600a836159d5565b9150614ca382615de3565b602082019050919050565b6000614cbb6019836159d5565b9150614cc682615e0c565b602082019050919050565b6000614cde6009836159d5565b9150614ce982615e35565b602082019050919050565b6000614d016002836159d5565b9150614d0c82615e5e565b602082019050919050565b6000614d24600b836159d5565b9150614d2f82615e87565b602082019050919050565b6000614d476020836159d5565b9150614d5282615eb0565b602082019050919050565b6000614d6a6002836159d5565b9150614d7582615ed9565b602082019050919050565b6000614d8d6026836159d5565b9150614d9882615f02565b604082019050919050565b600060e0830160008301518482036000860152614dc08282614bf6565b9150506020830151614dd5602086018261528c565b506040830151614de8604086018261528c565b506060830151614dfb606086018261528c565b506080830151614e0e608086018261528c565b5060a0830151614e2160a086018261528c565b5060c083015184820360c0860152614e398282614bf6565b9150508091505092915050565b60006101e083016000830151614e5f600086018261528c565b5060208301518482036020860152614e778282614bf6565b91505060408301518482036040860152614e918282614bf6565b9150506060830151614ea6606086018261528c565b5060808301518482036080860152614ebe8282614bf6565b91505060a083015184820360a0860152614ed88282614bf6565b91505060c083015184820360c0860152614ef28282614963565b91505060e0830151614f0760e086018261528c565b50610100830151614f1c61010086018261528c565b50610120830151614f31610120860182614b7e565b50610140830151614f46610140860182614b7e565b50610160830151614f5b61016086018261528c565b50610180830151848203610180860152614f7582826149d8565b9150506101a0830151614f8c6101a086018261528c565b506101c0830151614fa16101c086018261528c565b508091505092915050565b600060a0830160008301518482036000860152614fc98282614da3565b9150506020830151614fde602086018261528c565b5060408301518482036040860152614ff68282614bf6565b915050606083015161500b6060860182614b9c565b50608083015161501e608086018261528c565b508091505092915050565b600060808301600083015161504160008601826148e7565b50602083015184820360208601526150598282614ac2565b915050604083015184820360408601526150738282614905565b9150506060830151848203606086015261508d8282614963565b9150508091505092915050565b60006102a0830160008301516150b360008601826148e7565b5060208301516150c6602086018261528c565b50604083015184820360408601526150de8282614bf6565b915050606083015184820360608601526150f88282614bf6565b915050608083015161510d608086018261528c565b5060a083015184820360a08601526151258282614bf6565b91505060c083015184820360c086015261513f8282614bf6565b91505060e083015184820360e08601526151598282614963565b91505061010083015161517061010086018261528c565b5061012083015161518561012086018261528c565b5061014083015161519a610140860182614b7e565b506101608301516151af610160860182614b7e565b506101808301516151c461018086018261528c565b506101a08301518482036101a08601526151de82826149d8565b9150506101c08301518482036101c08601526151fa8282614a4d565b9150506101e08301518482036101e08601526152168282614a4d565b91505061020083015161522d61020086018261528c565b5061022083015161524261022086018261528c565b50610240830151615257610240860182614b7e565b5061026083015161526c610260860182614b7e565b50610280830151615281610280860182614bba565b508091505092915050565b61529581615b18565b82525050565b6152a481615b18565b82525050565b60006020820190506152bf60008301846148f6565b92915050565b60006080820190506152da60008301866148f6565b6152e7602083018561529b565b81810360408301526152f881614cf4565b90506153076060830184614b8d565b949350505050565b600060808201905061532460008301866148f6565b615331602083018561529b565b818103604083015261534281614d5d565b90506153516060830184614b8d565b949350505050565b600060608201905061536e60008301866148f6565b61537b602083018561529b565b818103604083015261538d8184614e46565b9050949350505050565b60006020820190506153ac6000830184614b8d565b92915050565b600060208201905081810360008301526153cb81614c68565b9050919050565b600060208201905081810360008301526153eb81614cae565b9050919050565b6000602082019050818103600083015261540b81614d3a565b9050919050565b6000604082019050818103600083015261542b81614d80565b905061543a602083018461529b565b92915050565b6000602082019050818103600083015261545a818461509a565b905092915050565b6000602082019050615477600083018461529b565b92915050565b600060a082019050615492600083018761529b565b81810360208301526154a48186614b20565b90506154b3604083018561529b565b6154c060608301846148f6565b81810360808301526154d181614c8b565b905095945050505050565b600060a0820190506154f1600083018761529b565b81810360208301526155038186614b20565b9050615512604083018561529b565b61551f60608301846148f6565b818103608083015261553081614cd1565b905095945050505050565b600060a082019050615550600083018761529b565b81810360208301526155628186614b20565b9050615571604083018561529b565b61557e60608301846148f6565b818103608083015261558f81614d17565b905095945050505050565b60006040820190506155af600083018561529b565b6155bc6020830184614bc9565b9392505050565b60006040820190506155d8600083018561529b565b81810360208301526155ea8184614e46565b90509392505050565b6000608082019050615608600083018761529b565b615615602083018661529b565b61562260408301856148f6565b61562f6060830184614bab565b95945050505050565b600060c08201905061564d600083018961529b565b61565a602083018861529b565b615667604083018761529b565b61567460608301866148f6565b6156816080830185614be7565b61568e60a0830184614b8d565b979650505050505050565b600060c0820190506156ae600083018961529b565b6156bb602083018861529b565b6156c8604083018761529b565b6156d560608301866148f6565b81810360808301526156e78185614c2f565b90506156f660a0830184614b8d565b979650505050505050565b600060a082019050615716600083018761529b565b615723602083018661529b565b615730604083018561529b565b61573d60608301846148f6565b818103608083015261574e81614cd1565b905095945050505050565b600060a08201905061576e600083018761529b565b61577b602083018661529b565b615788604083018561529b565b61579560608301846148f6565b81810360808301526157a681614d17565b905095945050505050565b60006157bb6157cc565b90506157c78282615bcc565b919050565b6000604051905090565b600067ffffffffffffffff8211156157f1576157f0615d31565b5b602082029050602081019050919050565b600067ffffffffffffffff82111561581d5761581c615d31565b5b602082029050602081019050919050565b600067ffffffffffffffff82111561584957615848615d31565b5b602082029050602081019050919050565b600067ffffffffffffffff82111561587557615874615d31565b5b61587e82615d83565b9050602081019050919050565b6000819050602082019050919050565b6000819050602082019050919050565b6000819050602082019050919050565b6000819050602082019050919050565b6000819050602082019050919050565b600081519050919050565b600081519050919050565b600081519050919050565b600081519050919050565b600081519050919050565b600081519050919050565b6000602082019050919050565b6000602082019050919050565b6000602082019050919050565b6000602082019050919050565b6000602082019050919050565b600082825260208201905092915050565b600082825260208201905092915050565b600082825260208201905092915050565b600082825260208201905092915050565b600082825260208201905092915050565b600082825260208201905092915050565b600082825260208201905092915050565b600082825260208201905092915050565b60006159f182615b18565b91506159fc83615b18565b9250827fffffffffffffffffffffffffffffffffffffffffffffffffffffffffffffffff03821115615a3157615a30615c46565b5b828201905092915050565b6000615a4782615b18565b9150615a5283615b18565b925082615a6257615a61615c75565b5b828204905092915050565b6000615a7882615b18565b9150615a8383615b18565b925082821015615a9657615a95615c46565b5b828203905092915050565b6000615aac82615af8565b9050919050565b60008115159050919050565b6000819050615acd82615f51565b919050565b6000819050615ae082615f65565b919050565b6000819050615af382615f79565b919050565b600073ffffffffffffffffffffffffffffffffffffffff82169050919050565b6000819050919050565b6000615b2d82615abf565b9050919050565b6000615b3f82615ad2565b9050919050565b6000615b5182615ae5565b9050919050565b82818337600083830152505050565b60005b83811015615b85578082015181840152602081019050615b6a565b83811115615b94576000848401525b50505050565b60006002820490506001821680615bb257607f821691505b60208210811415615bc657615bc5615cd3565b5b50919050565b615bd582615d83565b810181811067ffffffffffffffff82111715615bf457615bf3615d31565b5b80604052505050565b6000615c0882615b18565b91507fffffffffffffffffffffffffffffffffffffffffffffffffffffffffffffffff821415615c3b57615c3a615c46565b5b600182019050919050565b7f4e487b7100000000000000000000000000000000000000000000000000000000600052601160045260246000fd5b7f4e487b7100000000000000000000000000000000000000000000000000000000600052601260045260246000fd5b7f4e487b7100000000000000000000000000000000000000000000000000000000600052602160045260246000fd5b7f4e487b7100000000000000000000000000000000000000000000000000000000600052602260045260246000fd5b7f4e487b7100000000000000000000000000000000000000000000000000000000600052603260045260246000fd5b7f4e487b7100000000000000000000000000000000000000000000000000000000600052604160045260246000fd5b600080fd5b600080fd5b600080fd5b600080fd5b600080fd5b600080fd5b600080fd5b6000601f19601f8301169050919050565b7f4f776e61626c653a206e6577206f776e657220697320746865207a65726f206160008201527f6464726573730000000000000000000000000000000000000000000000000000602082015250565b7f7472616e736c61746f7200000000000000000000000000000000000000000000600082015250565b7f4f6e6c792062757965722063616e2063616c6c20746869732e00000000000000600082015250565b7f7665726966696572730000000000000000000000000000000000000000000000600082015250565b7f7473000000000000000000000000000000000000000000000000000000000000600082015250565b7f7472616e736c61746f7273000000000000000000000000000000000000000000600082015250565b7f4f776e61626c653a2063616c6c6572206973206e6f7420746865206f776e6572600082015250565b7f7666000000000000000000000000000000000000000000000000000000000000600082015250565b7f4f7065726174696f6e457863657074696f6e3a2043616e27742072656365697660008201527f65207461736b0000000000000000000000000000000000000000000000000000602082015250565b60068110615f6257615f61615ca4565b5b50565b60068110615f7657615f75615ca4565b5b50565b60088110615f8a57615f89615ca4565b5b50565b615f9681615aa1565b8114615fa157600080fd5b50565b615fad81615ab3565b8114615fb857600080fd5b50565b60068110615fc857600080fd5b50565b60068110615fd857600080fd5b50565b60088110615fe857600080fd5b50565b615ff481615b18565b8114615fff57600080fd5b5056fea2646970667358221220bcfcb21071adc78ede7944cf891219ddd2c750a89509bf612ef4214cdc7f06aa64736f6c63430008070033",
			"opcodes": "PUSH1 0x80 PUSH1 0x40 MSTORE CALLVALUE DUP1 ISZERO PUSH3 0x11 JUMPI PUSH1 0x0 DUP1 REVERT JUMPDEST POP PUSH3 0x32 PUSH3 0x26 PUSH3 0x38 PUSH1 0x20 SHL PUSH1 0x20 SHR JUMP JUMPDEST PUSH3 0x40 PUSH1 0x20 SHL PUSH1 0x20 SHR JUMP JUMPDEST PUSH3 0x104 JUMP JUMPDEST PUSH1 0x0 CALLER SWAP1 POP SWAP1 JUMP JUMPDEST PUSH1 0x0 DUP1 PUSH1 0x0 SWAP1 SLOAD SWAP1 PUSH2 0x100 EXP SWAP1 DIV PUSH20 0xFFFFFFFFFFFFFFFFFFFFFFFFFFFFFFFFFFFFFFFF AND SWAP1 POP DUP2 PUSH1 0x0 DUP1 PUSH2 0x100 EXP DUP2 SLOAD DUP2 PUSH20 0xFFFFFFFFFFFFFFFFFFFFFFFFFFFFFFFFFFFFFFFF MUL NOT AND SWAP1 DUP4 PUSH20 0xFFFFFFFFFFFFFFFFFFFFFFFFFFFFFFFFFFFFFFFF AND MUL OR SWAP1 SSTORE POP DUP2 PUSH20 0xFFFFFFFFFFFFFFFFFFFFFFFFFFFFFFFFFFFFFFFF AND DUP2 PUSH20 0xFFFFFFFFFFFFFFFFFFFFFFFFFFFFFFFFFFFFFFFF AND PUSH32 0x8BE0079C531659141344CD1FD0A4F28419497F9722A3DAAFE3B4186F6B6457E0 PUSH1 0x40 MLOAD PUSH1 0x40 MLOAD DUP1 SWAP2 SUB SWAP1 LOG3 POP POP JUMP JUMPDEST PUSH2 0x6038 DUP1 PUSH3 0x114 PUSH1 0x0 CODECOPY PUSH1 0x0 RETURN INVALID PUSH1 0x80 PUSH1 0x40 MSTORE CALLVALUE DUP1 ISZERO PUSH2 0x10 JUMPI PUSH1 0x0 DUP1 REVERT JUMPDEST POP PUSH1 0x4 CALLDATASIZE LT PUSH2 0x158 JUMPI PUSH1 0x0 CALLDATALOAD PUSH1 0xE0 SHR DUP1 PUSH4 0xAE6008E3 GT PUSH2 0xC3 JUMPI DUP1 PUSH4 0xF2E60202 GT PUSH2 0x7C JUMPI DUP1 PUSH4 0xF2E60202 EQ PUSH2 0x397 JUMPI DUP1 PUSH4 0xF2FDE38B EQ PUSH2 0x3C7 JUMPI DUP1 PUSH4 0xF501AA8E EQ PUSH2 0x3E3 JUMPI DUP1 PUSH4 0xF8626EBB EQ PUSH2 0x413 JUMPI DUP1 PUSH4 0xFE4BFA4A EQ PUSH2 0x443 JUMPI DUP1 PUSH4 0xFFBAFDFE EQ PUSH2 0x45F JUMPI PUSH2 0x158 JUMP JUMPDEST DUP1 PUSH4 0xAE6008E3 EQ PUSH2 0x2C7 JUMPI DUP1 PUSH4 0xD2FED69C EQ PUSH2 0x2E3 JUMPI DUP1 PUSH4 0xDF3A726F EQ PUSH2 0x313 JUMPI DUP1 PUSH4 0xE6CFDF1F EQ PUSH2 0x32F JUMPI DUP1 PUSH4 0xEA60F28C EQ PUSH2 0x34B JUMPI DUP1 PUSH4 0xF0F3F2C8 EQ PUSH2 0x367 JUMPI PUSH2 0x158 JUMP JUMPDEST DUP1 PUSH4 0x8DA5CB5B GT PUSH2 0x115 JUMPI DUP1 PUSH4 0x8DA5CB5B EQ PUSH2 0x21B JUMPI DUP1 PUSH4 0x8FA49F84 EQ PUSH2 0x239 JUMPI DUP1 PUSH4 0x9EC44ABC EQ PUSH2 0x255 JUMPI DUP1 PUSH4 0xA43EDCBD EQ PUSH2 0x271 JUMPI DUP1 PUSH4 0xA7788567 EQ PUSH2 0x28D JUMPI DUP1 PUSH4 0xA87D942C EQ PUSH2 0x2A9 JUMPI PUSH2 0x158 JUMP JUMPDEST DUP1 PUSH4 0x25E78E70 EQ PUSH2 0x15D JUMPI DUP1 PUSH4 0x311BCEDF EQ PUSH2 0x18D JUMPI DUP1 PUSH4 0x4FB36606 EQ PUSH2 0x1A9 JUMPI DUP1 PUSH4 0x62583A28 EQ PUSH2 0x1C5 JUMPI DUP1 PUSH4 0x715018A6 EQ PUSH2 0x1E1 JUMPI DUP1 PUSH4 0x8A9A9FF3 EQ PUSH2 0x1EB JUMPI JUMPDEST PUSH1 0x0 DUP1 REVERT JUMPDEST PUSH2 0x177 PUSH1 0x4 DUP1 CALLDATASIZE SUB DUP2 ADD SWAP1 PUSH2 0x172 SWAP2 SWAP1 PUSH2 0x4523 JUMP JUMPDEST PUSH2 0x47B JUMP JUMPDEST PUSH1 0x40 MLOAD PUSH2 0x184 SWAP2 SWAP1 PUSH2 0x5440 JUMP JUMPDEST PUSH1 0x40 MLOAD DUP1 SWAP2 SUB SWAP1 RETURN JUMPDEST PUSH2 0x1A7 PUSH1 0x4 DUP1 CALLDATASIZE SUB DUP2 ADD SWAP1 PUSH2 0x1A2 SWAP2 SWAP1 PUSH2 0x4702 JUMP JUMPDEST PUSH2 0x109D JUMP JUMPDEST STOP JUMPDEST PUSH2 0x1C3 PUSH1 0x4 DUP1 CALLDATASIZE SUB DUP2 ADD SWAP1 PUSH2 0x1BE SWAP2 SWAP1 PUSH2 0x4523 JUMP JUMPDEST PUSH2 0x11CE JUMP JUMPDEST STOP JUMPDEST PUSH2 0x1DF PUSH1 0x4 DUP1 CALLDATASIZE SUB DUP2 ADD SWAP1 PUSH2 0x1DA SWAP2 SWAP1 PUSH2 0x46AF JUMP JUMPDEST PUSH2 0x123C JUMP JUMPDEST STOP JUMPDEST PUSH2 0x1E9 PUSH2 0x12EE JUMP JUMPDEST STOP JUMPDEST PUSH2 0x205 PUSH1 0x4 DUP1 CALLDATASIZE SUB DUP2 ADD SWAP1 PUSH2 0x200 SWAP2 SWAP1 PUSH2 0x45D3 JUMP JUMPDEST PUSH2 0x1302 JUMP JUMPDEST PUSH1 0x40 MLOAD PUSH2 0x212 SWAP2 SWAP1 PUSH2 0x5397 JUMP JUMPDEST PUSH1 0x40 MLOAD DUP1 SWAP2 SUB SWAP1 RETURN JUMPDEST PUSH2 0x223 PUSH2 0x1352 JUMP JUMPDEST PUSH1 0x40 MLOAD PUSH2 0x230 SWAP2 SWAP1 PUSH2 0x52AA JUMP JUMPDEST PUSH1 0x40 MLOAD DUP1 SWAP2 SUB SWAP1 RETURN JUMPDEST PUSH2 0x253 PUSH1 0x4 DUP1 CALLDATASIZE SUB DUP2 ADD SWAP1 PUSH2 0x24E SWAP2 SWAP1 PUSH2 0x4769 JUMP JUMPDEST PUSH2 0x137B JUMP JUMPDEST STOP JUMPDEST PUSH2 0x26F PUSH1 0x4 DUP1 CALLDATASIZE SUB DUP2 ADD SWAP1 PUSH2 0x26A SWAP2 SWAP1 PUSH2 0x4550 JUMP JUMPDEST PUSH2 0x14D9 JUMP JUMPDEST STOP JUMPDEST PUSH2 0x28B PUSH1 0x4 DUP1 CALLDATASIZE SUB DUP2 ADD SWAP1 PUSH2 0x286 SWAP2 SWAP1 PUSH2 0x4653 JUMP JUMPDEST PUSH2 0x17EA JUMP JUMPDEST STOP JUMPDEST PUSH2 0x2A7 PUSH1 0x4 DUP1 CALLDATASIZE SUB DUP2 ADD SWAP1 PUSH2 0x2A2 SWAP2 SWAP1 PUSH2 0x4550 JUMP JUMPDEST PUSH2 0x1BB0 JUMP JUMPDEST STOP JUMPDEST PUSH2 0x2B1 PUSH2 0x1EC1 JUMP JUMPDEST PUSH1 0x40 MLOAD PUSH2 0x2BE SWAP2 SWAP1 PUSH2 0x5462 JUMP JUMPDEST PUSH1 0x40 MLOAD DUP1 SWAP2 SUB SWAP1 RETURN JUMPDEST PUSH2 0x2E1 PUSH1 0x4 DUP1 CALLDATASIZE SUB DUP2 ADD SWAP1 PUSH2 0x2DC SWAP2 SWAP1 PUSH2 0x47E4 JUMP JUMPDEST PUSH2 0x1ECB JUMP JUMPDEST STOP JUMPDEST PUSH2 0x2FD PUSH1 0x4 DUP1 CALLDATASIZE SUB DUP2 ADD SWAP1 PUSH2 0x2F8 SWAP2 SWAP1 PUSH2 0x4523 JUMP JUMPDEST PUSH2 0x1FF3 JUMP JUMPDEST PUSH1 0x40 MLOAD PUSH2 0x30A SWAP2 SWAP1 PUSH2 0x5462 JUMP JUMPDEST PUSH1 0x40 MLOAD DUP1 SWAP2 SUB SWAP1 RETURN JUMPDEST PUSH2 0x32D PUSH1 0x4 DUP1 CALLDATASIZE SUB DUP2 ADD SWAP1 PUSH2 0x328 SWAP2 SWAP1 PUSH2 0x4523 JUMP JUMPDEST PUSH2 0x22D4 JUMP JUMPDEST STOP JUMPDEST PUSH2 0x349 PUSH1 0x4 DUP1 CALLDATASIZE SUB DUP2 ADD SWAP1 PUSH2 0x344 SWAP2 SWAP1 PUSH2 0x4523 JUMP JUMPDEST PUSH2 0x2342 JUMP JUMPDEST STOP JUMPDEST PUSH2 0x365 PUSH1 0x4 DUP1 CALLDATASIZE SUB DUP2 ADD SWAP1 PUSH2 0x360 SWAP2 SWAP1 PUSH2 0x4523 JUMP JUMPDEST PUSH2 0x23B0 JUMP JUMPDEST STOP JUMPDEST PUSH2 0x381 PUSH1 0x4 DUP1 CALLDATASIZE SUB DUP2 ADD SWAP1 PUSH2 0x37C SWAP2 SWAP1 PUSH2 0x4523 JUMP JUMPDEST PUSH2 0x241E JUMP JUMPDEST PUSH1 0x40 MLOAD PUSH2 0x38E SWAP2 SWAP1 PUSH2 0x5440 JUMP JUMPDEST PUSH1 0x40 MLOAD DUP1 SWAP2 SUB SWAP1 RETURN JUMPDEST PUSH2 0x3B1 PUSH1 0x4 DUP1 CALLDATASIZE SUB DUP2 ADD SWAP1 PUSH2 0x3AC SWAP2 SWAP1 PUSH2 0x4523 JUMP JUMPDEST PUSH2 0x3040 JUMP JUMPDEST PUSH1 0x40 MLOAD PUSH2 0x3BE SWAP2 SWAP1 PUSH2 0x5462 JUMP JUMPDEST PUSH1 0x40 MLOAD DUP1 SWAP2 SUB SWAP1 RETURN JUMPDEST PUSH2 0x3E1 PUSH1 0x4 DUP1 CALLDATASIZE SUB DUP2 ADD SWAP1 PUSH2 0x3DC SWAP2 SWAP1 PUSH2 0x44AD JUMP JUMPDEST PUSH2 0x306D JUMP JUMPDEST STOP JUMPDEST PUSH2 0x3FD PUSH1 0x4 DUP1 CALLDATASIZE SUB DUP2 ADD SWAP1 PUSH2 0x3F8 SWAP2 SWAP1 PUSH2 0x44DA JUMP JUMPDEST PUSH2 0x30F1 JUMP JUMPDEST PUSH1 0x40 MLOAD PUSH2 0x40A SWAP2 SWAP1 PUSH2 0x5462 JUMP JUMPDEST PUSH1 0x40 MLOAD DUP1 SWAP2 SUB SWAP1 RETURN JUMPDEST PUSH2 0x42D PUSH1 0x4 DUP1 CALLDATASIZE SUB DUP2 ADD SWAP1 PUSH2 0x428 SWAP2 SWAP1 PUSH2 0x4523 JUMP JUMPDEST PUSH2 0x346E JUMP JUMPDEST PUSH1 0x40 MLOAD PUSH2 0x43A SWAP2 SWAP1 PUSH2 0x5462 JUMP JUMPDEST PUSH1 0x40 MLOAD DUP1 SWAP2 SUB SWAP1 RETURN JUMPDEST PUSH2 0x45D PUSH1 0x4 DUP1 CALLDATASIZE SUB DUP2 ADD SWAP1 PUSH2 0x458 SWAP2 SWAP1 PUSH2 0x4702 JUMP JUMPDEST PUSH2 0x374F JUMP JUMPDEST STOP JUMPDEST PUSH2 0x479 PUSH1 0x4 DUP1 CALLDATASIZE SUB DUP2 ADD SWAP1 PUSH2 0x474 SWAP2 SWAP1 PUSH2 0x4613 JUMP JUMPDEST PUSH2 0x3880 JUMP JUMPDEST STOP JUMPDEST PUSH2 0x483 PUSH2 0x3A75 JUMP JUMPDEST PUSH1 0x3 PUSH1 0x0 DUP4 DUP2 MSTORE PUSH1 0x20 ADD SWAP1 DUP2 MSTORE PUSH1 0x20 ADD PUSH1 0x0 KECCAK256 PUSH1 0x40 MLOAD DUP1 PUSH2 0x2A0 ADD PUSH1 0x40 MSTORE SWAP1 DUP2 PUSH1 0x0 DUP3 ADD PUSH1 0x0 SWAP1 SLOAD SWAP1 PUSH2 0x100 EXP SWAP1 DIV PUSH20 0xFFFFFFFFFFFFFFFFFFFFFFFFFFFFFFFFFFFFFFFF AND PUSH20 0xFFFFFFFFFFFFFFFFFFFFFFFFFFFFFFFFFFFFFFFF AND PUSH20 0xFFFFFFFFFFFFFFFFFFFFFFFFFFFFFFFFFFFFFFFF AND DUP2 MSTORE PUSH1 0x20 ADD PUSH1 0x1 DUP3 ADD SLOAD DUP2 MSTORE PUSH1 0x20 ADD PUSH1 0x2 DUP3 ADD DUP1 SLOAD PUSH2 0x512 SWAP1 PUSH2 0x5B9A JUMP JUMPDEST DUP1 PUSH1 0x1F ADD PUSH1 0x20 DUP1 SWAP2 DIV MUL PUSH1 0x20 ADD PUSH1 0x40 MLOAD SWAP1 DUP2 ADD PUSH1 0x40 MSTORE DUP1 SWAP3 SWAP2 SWAP1 DUP2 DUP2 MSTORE PUSH1 0x20 ADD DUP3 DUP1 SLOAD PUSH2 0x53E SWAP1 PUSH2 0x5B9A JUMP JUMPDEST DUP1 ISZERO PUSH2 0x58B JUMPI DUP1 PUSH1 0x1F LT PUSH2 0x560 JUMPI PUSH2 0x100 DUP1 DUP4 SLOAD DIV MUL DUP4 MSTORE SWAP2 PUSH1 0x20 ADD SWAP2 PUSH2 0x58B JUMP JUMPDEST DUP3 ADD SWAP2 SWAP1 PUSH1 0x0 MSTORE PUSH1 0x20 PUSH1 0x0 KECCAK256 SWAP1 JUMPDEST DUP2 SLOAD DUP2 MSTORE SWAP1 PUSH1 0x1 ADD SWAP1 PUSH1 0x20 ADD DUP1 DUP4 GT PUSH2 0x56E JUMPI DUP3 SWAP1 SUB PUSH1 0x1F AND DUP3 ADD SWAP2 JUMPDEST POP POP POP POP POP DUP2 MSTORE PUSH1 0x20 ADD PUSH1 0x3 DUP3 ADD DUP1 SLOAD PUSH2 0x5A4 SWAP1 PUSH2 0x5B9A JUMP JUMPDEST DUP1 PUSH1 0x1F ADD PUSH1 0x20 DUP1 SWAP2 DIV MUL PUSH1 0x20 ADD PUSH1 0x40 MLOAD SWAP1 DUP2 ADD PUSH1 0x40 MSTORE DUP1 SWAP3 SWAP2 SWAP1 DUP2 DUP2 MSTORE PUSH1 0x20 ADD DUP3 DUP1 SLOAD PUSH2 0x5D0 SWAP1 PUSH2 0x5B9A JUMP JUMPDEST DUP1 ISZERO PUSH2 0x61D JUMPI DUP1 PUSH1 0x1F LT PUSH2 0x5F2 JUMPI PUSH2 0x100 DUP1 DUP4 SLOAD DIV MUL DUP4 MSTORE SWAP2 PUSH1 0x20 ADD SWAP2 PUSH2 0x61D JUMP JUMPDEST DUP3 ADD SWAP2 SWAP1 PUSH1 0x0 MSTORE PUSH1 0x20 PUSH1 0x0 KECCAK256 SWAP1 JUMPDEST DUP2 SLOAD DUP2 MSTORE SWAP1 PUSH1 0x1 ADD SWAP1 PUSH1 0x20 ADD DUP1 DUP4 GT PUSH2 0x600 JUMPI DUP3 SWAP1 SUB PUSH1 0x1F AND DUP3 ADD SWAP2 JUMPDEST POP POP POP POP POP DUP2 MSTORE PUSH1 0x20 ADD PUSH1 0x4 DUP3 ADD SLOAD DUP2 MSTORE PUSH1 0x20 ADD PUSH1 0x5 DUP3 ADD DUP1 SLOAD PUSH2 0x640 SWAP1 PUSH2 0x5B9A JUMP JUMPDEST DUP1 PUSH1 0x1F ADD PUSH1 0x20 DUP1 SWAP2 DIV MUL PUSH1 0x20 ADD PUSH1 0x40 MLOAD SWAP1 DUP2 ADD PUSH1 0x40 MSTORE DUP1 SWAP3 SWAP2 SWAP1 DUP2 DUP2 MSTORE PUSH1 0x20 ADD DUP3 DUP1 SLOAD PUSH2 0x66C SWAP1 PUSH2 0x5B9A JUMP JUMPDEST DUP1 ISZERO PUSH2 0x6B9 JUMPI DUP1 PUSH1 0x1F LT PUSH2 0x68E JUMPI PUSH2 0x100 DUP1 DUP4 SLOAD DIV MUL DUP4 MSTORE SWAP2 PUSH1 0x20 ADD SWAP2 PUSH2 0x6B9 JUMP JUMPDEST DUP3 ADD SWAP2 SWAP1 PUSH1 0x0 MSTORE PUSH1 0x20 PUSH1 0x0 KECCAK256 SWAP1 JUMPDEST DUP2 SLOAD DUP2 MSTORE SWAP1 PUSH1 0x1 ADD SWAP1 PUSH1 0x20 ADD DUP1 DUP4 GT PUSH2 0x69C JUMPI DUP3 SWAP1 SUB PUSH1 0x1F AND DUP3 ADD SWAP2 JUMPDEST POP POP POP POP POP DUP2 MSTORE PUSH1 0x20 ADD PUSH1 0x6 DUP3 ADD DUP1 SLOAD PUSH2 0x6D2 SWAP1 PUSH2 0x5B9A JUMP JUMPDEST DUP1 PUSH1 0x1F ADD PUSH1 0x20 DUP1 SWAP2 DIV MUL PUSH1 0x20 ADD PUSH1 0x40 MLOAD SWAP1 DUP2 ADD PUSH1 0x40 MSTORE DUP1 SWAP3 SWAP2 SWAP1 DUP2 DUP2 MSTORE PUSH1 0x20 ADD DUP3 DUP1 SLOAD PUSH2 0x6FE SWAP1 PUSH2 0x5B9A JUMP JUMPDEST DUP1 ISZERO PUSH2 0x74B JUMPI DUP1 PUSH1 0x1F LT PUSH2 0x720 JUMPI PUSH2 0x100 DUP1 DUP4 SLOAD DIV MUL DUP4 MSTORE SWAP2 PUSH1 0x20 ADD SWAP2 PUSH2 0x74B JUMP JUMPDEST DUP3 ADD SWAP2 SWAP1 PUSH1 0x0 MSTORE PUSH1 0x20 PUSH1 0x0 KECCAK256 SWAP1 JUMPDEST DUP2 SLOAD DUP2 MSTORE SWAP1 PUSH1 0x1 ADD SWAP1 PUSH1 0x20 ADD DUP1 DUP4 GT PUSH2 0x72E JUMPI DUP3 SWAP1 SUB PUSH1 0x1F AND DUP3 ADD SWAP2 JUMPDEST POP POP POP POP POP DUP2 MSTORE PUSH1 0x20 ADD PUSH1 0x7 DUP3 ADD DUP1 SLOAD DUP1 PUSH1 0x20 MUL PUSH1 0x20 ADD PUSH1 0x40 MLOAD SWAP1 DUP2 ADD PUSH1 0x40 MSTORE DUP1 SWAP3 SWAP2 SWAP1 DUP2 DUP2 MSTORE PUSH1 0x20 ADD PUSH1 0x0 SWAP1 JUMPDEST DUP3 DUP3 LT ISZERO PUSH2 0x825 JUMPI DUP4 DUP3 SWAP1 PUSH1 0x0 MSTORE PUSH1 0x20 PUSH1 0x0 KECCAK256 ADD DUP1 SLOAD PUSH2 0x798 SWAP1 PUSH2 0x5B9A JUMP JUMPDEST DUP1 PUSH1 0x1F ADD PUSH1 0x20 DUP1 SWAP2 DIV MUL PUSH1 0x20 ADD PUSH1 0x40 MLOAD SWAP1 DUP2 ADD PUSH1 0x40 MSTORE DUP1 SWAP3 SWAP2 SWAP1 DUP2 DUP2 MSTORE PUSH1 0x20 ADD DUP3 DUP1 SLOAD PUSH2 0x7C4 SWAP1 PUSH2 0x5B9A JUMP JUMPDEST DUP1 ISZERO PUSH2 0x811 JUMPI DUP1 PUSH1 0x1F LT PUSH2 0x7E6 JUMPI PUSH2 0x100 DUP1 DUP4 SLOAD DIV MUL DUP4 MSTORE SWAP2 PUSH1 0x20 ADD SWAP2 PUSH2 0x811 JUMP JUMPDEST DUP3 ADD SWAP2 SWAP1 PUSH1 0x0 MSTORE PUSH1 0x20 PUSH1 0x0 KECCAK256 SWAP1 JUMPDEST DUP2 SLOAD DUP2 MSTORE SWAP1 PUSH1 0x1 ADD SWAP1 PUSH1 0x20 ADD DUP1 DUP4 GT PUSH2 0x7F4 JUMPI DUP3 SWAP1 SUB PUSH1 0x1F AND DUP3 ADD SWAP2 JUMPDEST POP POP POP POP POP DUP2 MSTORE PUSH1 0x20 ADD SWAP1 PUSH1 0x1 ADD SWAP1 PUSH2 0x779 JUMP JUMPDEST POP POP POP POP DUP2 MSTORE PUSH1 0x20 ADD PUSH1 0x8 DUP3 ADD SLOAD DUP2 MSTORE PUSH1 0x20 ADD PUSH1 0x9 DUP3 ADD SLOAD DUP2 MSTORE PUSH1 0x20 ADD PUSH1 0xA DUP3 ADD PUSH1 0x0 SWAP1 SLOAD SWAP1 PUSH2 0x100 EXP SWAP1 DIV PUSH1 0xFF AND ISZERO ISZERO ISZERO ISZERO DUP2 MSTORE PUSH1 0x20 ADD PUSH1 0xA DUP3 ADD PUSH1 0x1 SWAP1 SLOAD SWAP1 PUSH2 0x100 EXP SWAP1 DIV PUSH1 0xFF AND ISZERO ISZERO ISZERO ISZERO DUP2 MSTORE PUSH1 0x20 ADD PUSH1 0xB DUP3 ADD SLOAD DUP2 MSTORE PUSH1 0x20 ADD PUSH1 0xC DUP3 ADD DUP1 SLOAD DUP1 PUSH1 0x20 MUL PUSH1 0x20 ADD PUSH1 0x40 MLOAD SWAP1 DUP2 ADD PUSH1 0x40 MSTORE DUP1 SWAP3 SWAP2 SWAP1 DUP2 DUP2 MSTORE PUSH1 0x20 ADD PUSH1 0x0 SWAP1 JUMPDEST DUP3 DUP3 LT ISZERO PUSH2 0xB23 JUMPI DUP4 DUP3 SWAP1 PUSH1 0x0 MSTORE PUSH1 0x20 PUSH1 0x0 KECCAK256 SWAP1 PUSH1 0xB MUL ADD PUSH1 0x40 MLOAD DUP1 PUSH1 0xA0 ADD PUSH1 0x40 MSTORE SWAP1 DUP2 PUSH1 0x0 DUP3 ADD PUSH1 0x40 MLOAD DUP1 PUSH1 0xE0 ADD PUSH1 0x40 MSTORE SWAP1 DUP2 PUSH1 0x0 DUP3 ADD DUP1 SLOAD PUSH2 0x8E9 SWAP1 PUSH2 0x5B9A JUMP JUMPDEST DUP1 PUSH1 0x1F ADD PUSH1 0x20 DUP1 SWAP2 DIV MUL PUSH1 0x20 ADD PUSH1 0x40 MLOAD SWAP1 DUP2 ADD PUSH1 0x40 MSTORE DUP1 SWAP3 SWAP2 SWAP1 DUP2 DUP2 MSTORE PUSH1 0x20 ADD DUP3 DUP1 SLOAD PUSH2 0x915 SWAP1 PUSH2 0x5B9A JUMP JUMPDEST DUP1 ISZERO PUSH2 0x962 JUMPI DUP1 PUSH1 0x1F LT PUSH2 0x937 JUMPI PUSH2 0x100 DUP1 DUP4 SLOAD DIV MUL DUP4 MSTORE SWAP2 PUSH1 0x20 ADD SWAP2 PUSH2 0x962 JUMP JUMPDEST DUP3 ADD SWAP2 SWAP1 PUSH1 0x0 MSTORE PUSH1 0x20 PUSH1 0x0 KECCAK256 SWAP1 JUMPDEST DUP2 SLOAD DUP2 MSTORE SWAP1 PUSH1 0x1 ADD SWAP1 PUSH1 0x20 ADD DUP1 DUP4 GT PUSH2 0x945 JUMPI DUP3 SWAP1 SUB PUSH1 0x1F AND DUP3 ADD SWAP2 JUMPDEST POP POP POP POP POP DUP2 MSTORE PUSH1 0x20 ADD PUSH1 0x1 DUP3 ADD SLOAD DUP2 MSTORE PUSH1 0x20 ADD PUSH1 0x2 DUP3 ADD SLOAD DUP2 MSTORE PUSH1 0x20 ADD PUSH1 0x3 DUP3 ADD SLOAD DUP2 MSTORE PUSH1 0x20 ADD PUSH1 0x4 DUP3 ADD SLOAD DUP2 MSTORE PUSH1 0x20 ADD PUSH1 0x5 DUP3 ADD SLOAD DUP2 MSTORE PUSH1 0x20 ADD PUSH1 0x6 DUP3 ADD DUP1 SLOAD PUSH2 0x9AD SWAP1 PUSH2 0x5B9A JUMP JUMPDEST DUP1 PUSH1 0x1F ADD PUSH1 0x20 DUP1 SWAP2 DIV MUL PUSH1 0x20 ADD PUSH1 0x40 MLOAD SWAP1 DUP2 ADD PUSH1 0x40 MSTORE DUP1 SWAP3 SWAP2 SWAP1 DUP2 DUP2 MSTORE PUSH1 0x20 ADD DUP3 DUP1 SLOAD PUSH2 0x9D9 SWAP1 PUSH2 0x5B9A JUMP JUMPDEST DUP1 ISZERO PUSH2 0xA26 JUMPI DUP1 PUSH1 0x1F LT PUSH2 0x9FB JUMPI PUSH2 0x100 DUP1 DUP4 SLOAD DIV MUL DUP4 MSTORE SWAP2 PUSH1 0x20 ADD SWAP2 PUSH2 0xA26 JUMP JUMPDEST DUP3 ADD SWAP2 SWAP1 PUSH1 0x0 MSTORE PUSH1 0x20 PUSH1 0x0 KECCAK256 SWAP1 JUMPDEST DUP2 SLOAD DUP2 MSTORE SWAP1 PUSH1 0x1 ADD SWAP1 PUSH1 0x20 ADD DUP1 DUP4 GT PUSH2 0xA09 JUMPI DUP3 SWAP1 SUB PUSH1 0x1F AND DUP3 ADD SWAP2 JUMPDEST POP POP POP POP POP DUP2 MSTORE POP POP DUP2 MSTORE PUSH1 0x20 ADD PUSH1 0x7 DUP3 ADD SLOAD DUP2 MSTORE PUSH1 0x20 ADD PUSH1 0x8 DUP3 ADD DUP1 SLOAD PUSH2 0xA4D SWAP1 PUSH2 0x5B9A JUMP JUMPDEST DUP1 PUSH1 0x1F ADD PUSH1 0x20 DUP1 SWAP2 DIV MUL PUSH1 0x20 ADD PUSH1 0x40 MLOAD SWAP1 DUP2 ADD PUSH1 0x40 MSTORE DUP1 SWAP3 SWAP2 SWAP1 DUP2 DUP2 MSTORE PUSH1 0x20 ADD DUP3 DUP1 SLOAD PUSH2 0xA79 SWAP1 PUSH2 0x5B9A JUMP JUMPDEST DUP1 ISZERO PUSH2 0xAC6 JUMPI DUP1 PUSH1 0x1F LT PUSH2 0xA9B JUMPI PUSH2 0x100 DUP1 DUP4 SLOAD DIV MUL DUP4 MSTORE SWAP2 PUSH1 0x20 ADD SWAP2 PUSH2 0xAC6 JUMP JUMPDEST DUP3 ADD SWAP2 SWAP1 PUSH1 0x0 MSTORE PUSH1 0x20 PUSH1 0x0 KECCAK256 SWAP1 JUMPDEST DUP2 SLOAD DUP2 MSTORE SWAP1 PUSH1 0x1 ADD SWAP1 PUSH1 0x20 ADD DUP1 DUP4 GT PUSH2 0xAA9 JUMPI DUP3 SWAP1 SUB PUSH1 0x1F AND DUP3 ADD SWAP2 JUMPDEST POP POP POP POP POP DUP2 MSTORE PUSH1 0x20 ADD PUSH1 0x9 DUP3 ADD PUSH1 0x0 SWAP1 SLOAD SWAP1 PUSH2 0x100 EXP SWAP1 DIV PUSH1 0xFF AND PUSH1 0x5 DUP2 GT ISZERO PUSH2 0xAF4 JUMPI PUSH2 0xAF3 PUSH2 0x5CA4 JUMP JUMPDEST JUMPDEST PUSH1 0x5 DUP2 GT ISZERO PUSH2 0xB06 JUMPI PUSH2 0xB05 PUSH2 0x5CA4 JUMP JUMPDEST JUMPDEST DUP2 MSTORE PUSH1 0x20 ADD PUSH1 0xA DUP3 ADD SLOAD DUP2 MSTORE POP POP DUP2 MSTORE PUSH1 0x20 ADD SWAP1 PUSH1 0x1 ADD SWAP1 PUSH2 0x8A6 JUMP JUMPDEST POP POP POP POP DUP2 MSTORE PUSH1 0x20 ADD PUSH1 0xD DUP3 ADD DUP1 SLOAD DUP1 PUSH1 0x20 MUL PUSH1 0x20 ADD PUSH1 0x40 MLOAD SWAP1 DUP2 ADD PUSH1 0x40 MSTORE DUP1 SWAP3 SWAP2 SWAP1 DUP2 DUP2 MSTORE PUSH1 0x20 ADD PUSH1 0x0 SWAP1 JUMPDEST DUP3 DUP3 LT ISZERO PUSH2 0xD96 JUMPI DUP4 DUP3 SWAP1 PUSH1 0x0 MSTORE PUSH1 0x20 PUSH1 0x0 KECCAK256 SWAP1 PUSH1 0x4 MUL ADD PUSH1 0x40 MLOAD DUP1 PUSH1 0x80 ADD PUSH1 0x40 MSTORE SWAP1 DUP2 PUSH1 0x0 DUP3 ADD PUSH1 0x0 SWAP1 SLOAD SWAP1 PUSH2 0x100 EXP SWAP1 DIV PUSH20 0xFFFFFFFFFFFFFFFFFFFFFFFFFFFFFFFFFFFFFFFF AND PUSH20 0xFFFFFFFFFFFFFFFFFFFFFFFFFFFFFFFFFFFFFFFF AND PUSH20 0xFFFFFFFFFFFFFFFFFFFFFFFFFFFFFFFFFFFFFFFF AND DUP2 MSTORE PUSH1 0x20 ADD PUSH1 0x1 DUP3 ADD DUP1 SLOAD DUP1 PUSH1 0x20 MUL PUSH1 0x20 ADD PUSH1 0x40 MLOAD SWAP1 DUP2 ADD PUSH1 0x40 MSTORE DUP1 SWAP3 SWAP2 SWAP1 DUP2 DUP2 MSTORE PUSH1 0x20 ADD DUP3 DUP1 SLOAD DUP1 ISZERO PUSH2 0xC18 JUMPI PUSH1 0x20 MUL DUP3 ADD SWAP2 SWAP1 PUSH1 0x0 MSTORE PUSH1 0x20 PUSH1 0x0 KECCAK256 SWAP1 JUMPDEST DUP2 SLOAD DUP2 MSTORE PUSH1 0x20 ADD SWAP1 PUSH1 0x1 ADD SWAP1 DUP1 DUP4 GT PUSH2 0xC04 JUMPI JUMPDEST POP POP POP POP POP DUP2 MSTORE PUSH1 0x20 ADD PUSH1 0x2 DUP3 ADD DUP1 SLOAD DUP1 PUSH1 0x20 MUL PUSH1 0x20 ADD PUSH1 0x40 MLOAD SWAP1 DUP2 ADD PUSH1 0x40 MSTORE DUP1 SWAP3 SWAP2 SWAP1 DUP2 DUP2 MSTORE PUSH1 0x20 ADD DUP3 DUP1 SLOAD DUP1 ISZERO PUSH2 0xCA5 JUMPI PUSH1 0x20 MUL DUP3 ADD SWAP2 SWAP1 PUSH1 0x0 MSTORE PUSH1 0x20 PUSH1 0x0 KECCAK256 SWAP1 PUSH1 0x0 SWAP1 JUMPDEST DUP3 DUP3 SWAP1 SLOAD SWAP1 PUSH2 0x100 EXP SWAP1 DIV PUSH1 0xFF AND PUSH1 0x7 DUP2 GT ISZERO PUSH2 0xC7F JUMPI PUSH2 0xC7E PUSH2 0x5CA4 JUMP JUMPDEST JUMPDEST DUP2 MSTORE PUSH1 0x20 ADD SWAP1 PUSH1 0x1 ADD SWAP1 PUSH1 0x20 DUP3 PUSH1 0x0 ADD DIV SWAP3 DUP4 ADD SWAP3 PUSH1 0x1 SUB DUP3 MUL SWAP2 POP DUP1 DUP5 GT PUSH2 0xC5F JUMPI SWAP1 POP JUMPDEST POP POP POP POP POP DUP2 MSTORE PUSH1 0x20 ADD PUSH1 0x3 DUP3 ADD DUP1 SLOAD DUP1 PUSH1 0x20 MUL PUSH1 0x20 ADD PUSH1 0x40 MLOAD SWAP1 DUP2 ADD PUSH1 0x40 MSTORE DUP1 SWAP3 SWAP2 SWAP1 DUP2 DUP2 MSTORE PUSH1 0x20 ADD PUSH1 0x0 SWAP1 JUMPDEST DUP3 DUP3 LT ISZERO PUSH2 0xD7F JUMPI DUP4 DUP3 SWAP1 PUSH1 0x0 MSTORE PUSH1 0x20 PUSH1 0x0 KECCAK256 ADD DUP1 SLOAD PUSH2 0xCF2 SWAP1 PUSH2 0x5B9A JUMP JUMPDEST DUP1 PUSH1 0x1F ADD PUSH1 0x20 DUP1 SWAP2 DIV MUL PUSH1 0x20 ADD PUSH1 0x40 MLOAD SWAP1 DUP2 ADD PUSH1 0x40 MSTORE DUP1 SWAP3 SWAP2 SWAP1 DUP2 DUP2 MSTORE PUSH1 0x20 ADD DUP3 DUP1 SLOAD PUSH2 0xD1E SWAP1 PUSH2 0x5B9A JUMP JUMPDEST DUP1 ISZERO PUSH2 0xD6B JUMPI DUP1 PUSH1 0x1F LT PUSH2 0xD40 JUMPI PUSH2 0x100 DUP1 DUP4 SLOAD DIV MUL DUP4 MSTORE SWAP2 PUSH1 0x20 ADD SWAP2 PUSH2 0xD6B JUMP JUMPDEST DUP3 ADD SWAP2 SWAP1 PUSH1 0x0 MSTORE PUSH1 0x20 PUSH1 0x0 KECCAK256 SWAP1 JUMPDEST DUP2 SLOAD DUP2 MSTORE SWAP1 PUSH1 0x1 ADD SWAP1 PUSH1 0x20 ADD DUP1 DUP4 GT PUSH2 0xD4E JUMPI DUP3 SWAP1 SUB PUSH1 0x1F AND DUP3 ADD SWAP2 JUMPDEST POP POP POP POP POP DUP2 MSTORE PUSH1 0x20 ADD SWAP1 PUSH1 0x1 ADD SWAP1 PUSH2 0xCD3 JUMP JUMPDEST POP POP POP POP DUP2 MSTORE POP POP DUP2 MSTORE PUSH1 0x20 ADD SWAP1 PUSH1 0x1 ADD SWAP1 PUSH2 0xB50 JUMP JUMPDEST POP POP POP POP DUP2 MSTORE PUSH1 0x20 ADD PUSH1 0xE DUP3 ADD DUP1 SLOAD DUP1 PUSH1 0x20 MUL PUSH1 0x20 ADD PUSH1 0x40 MLOAD SWAP1 DUP2 ADD PUSH1 0x40 MSTORE DUP1 SWAP3 SWAP2 SWAP1 DUP2 DUP2 MSTORE PUSH1 0x20 ADD PUSH1 0x0 SWAP1 JUMPDEST DUP3 DUP3 LT ISZERO PUSH2 0x1009 JUMPI DUP4 DUP3 SWAP1 PUSH1 0x0 MSTORE PUSH1 0x20 PUSH1 0x0 KECCAK256 SWAP1 PUSH1 0x4 MUL ADD PUSH1 0x40 MLOAD DUP1 PUSH1 0x80 ADD PUSH1 0x40 MSTORE SWAP1 DUP2 PUSH1 0x0 DUP3 ADD PUSH1 0x0 SWAP1 SLOAD SWAP1 PUSH2 0x100 EXP SWAP1 DIV PUSH20 0xFFFFFFFFFFFFFFFFFFFFFFFFFFFFFFFFFFFFFFFF AND PUSH20 0xFFFFFFFFFFFFFFFFFFFFFFFFFFFFFFFFFFFFFFFF AND PUSH20 0xFFFFFFFFFFFFFFFFFFFFFFFFFFFFFFFFFFFFFFFF AND DUP2 MSTORE PUSH1 0x20 ADD PUSH1 0x1 DUP3 ADD DUP1 SLOAD DUP1 PUSH1 0x20 MUL PUSH1 0x20 ADD PUSH1 0x40 MLOAD SWAP1 DUP2 ADD PUSH1 0x40 MSTORE DUP1 SWAP3 SWAP2 SWAP1 DUP2 DUP2 MSTORE PUSH1 0x20 ADD DUP3 DUP1 SLOAD DUP1 ISZERO PUSH2 0xE8B JUMPI PUSH1 0x20 MUL DUP3 ADD SWAP2 SWAP1 PUSH1 0x0 MSTORE PUSH1 0x20 PUSH1 0x0 KECCAK256 SWAP1 JUMPDEST DUP2 SLOAD DUP2 MSTORE PUSH1 0x20 ADD SWAP1 PUSH1 0x1 ADD SWAP1 DUP1 DUP4 GT PUSH2 0xE77 JUMPI JUMPDEST POP POP POP POP POP DUP2 MSTORE PUSH1 0x20 ADD PUSH1 0x2 DUP3 ADD DUP1 SLOAD DUP1 PUSH1 0x20 MUL PUSH1 0x20 ADD PUSH1 0x40 MLOAD SWAP1 DUP2 ADD PUSH1 0x40 MSTORE DUP1 SWAP3 SWAP2 SWAP1 DUP2 DUP2 MSTORE PUSH1 0x20 ADD DUP3 DUP1 SLOAD DUP1 ISZERO PUSH2 0xF18 JUMPI PUSH1 0x20 MUL DUP3 ADD SWAP2 SWAP1 PUSH1 0x0 MSTORE PUSH1 0x20 PUSH1 0x0 KECCAK256 SWAP1 PUSH1 0x0 SWAP1 JUMPDEST DUP3 DUP3 SWAP1 SLOAD SWAP1 PUSH2 0x100 EXP SWAP1 DIV PUSH1 0xFF AND PUSH1 0x7 DUP2 GT ISZERO PUSH2 0xEF2 JUMPI PUSH2 0xEF1 PUSH2 0x5CA4 JUMP JUMPDEST JUMPDEST DUP2 MSTORE PUSH1 0x20 ADD SWAP1 PUSH1 0x1 ADD SWAP1 PUSH1 0x20 DUP3 PUSH1 0x0 ADD DIV SWAP3 DUP4 ADD SWAP3 PUSH1 0x1 SUB DUP3 MUL SWAP2 POP DUP1 DUP5 GT PUSH2 0xED2 JUMPI SWAP1 POP JUMPDEST POP POP POP POP POP DUP2 MSTORE PUSH1 0x20 ADD PUSH1 0x3 DUP3 ADD DUP1 SLOAD DUP1 PUSH1 0x20 MUL PUSH1 0x20 ADD PUSH1 0x40 MLOAD SWAP1 DUP2 ADD PUSH1 0x40 MSTORE DUP1 SWAP3 SWAP2 SWAP1 DUP2 DUP2 MSTORE PUSH1 0x20 ADD PUSH1 0x0 SWAP1 JUMPDEST DUP3 DUP3 LT ISZERO PUSH2 0xFF2 JUMPI DUP4 DUP3 SWAP1 PUSH1 0x0 MSTORE PUSH1 0x20 PUSH1 0x0 KECCAK256 ADD DUP1 SLOAD PUSH2 0xF65 SWAP1 PUSH2 0x5B9A JUMP JUMPDEST DUP1 PUSH1 0x1F ADD PUSH1 0x20 DUP1 SWAP2 DIV MUL PUSH1 0x20 ADD PUSH1 0x40 MLOAD SWAP1 DUP2 ADD PUSH1 0x40 MSTORE DUP1 SWAP3 SWAP2 SWAP1 DUP2 DUP2 MSTORE PUSH1 0x20 ADD DUP3 DUP1 SLOAD PUSH2 0xF91 SWAP1 PUSH2 0x5B9A JUMP JUMPDEST DUP1 ISZERO PUSH2 0xFDE JUMPI DUP1 PUSH1 0x1F LT PUSH2 0xFB3 JUMPI PUSH2 0x100 DUP1 DUP4 SLOAD DIV MUL DUP4 MSTORE SWAP2 PUSH1 0x20 ADD SWAP2 PUSH2 0xFDE JUMP JUMPDEST DUP3 ADD SWAP2 SWAP1 PUSH1 0x0 MSTORE PUSH1 0x20 PUSH1 0x0 KECCAK256 SWAP1 JUMPDEST DUP2 SLOAD DUP2 MSTORE SWAP1 PUSH1 0x1 ADD SWAP1 PUSH1 0x20 ADD DUP1 DUP4 GT PUSH2 0xFC1 JUMPI DUP3 SWAP1 SUB PUSH1 0x1F AND DUP3 ADD SWAP2 JUMPDEST POP POP POP POP POP DUP2 MSTORE PUSH1 0x20 ADD SWAP1 PUSH1 0x1 ADD SWAP1 PUSH2 0xF46 JUMP JUMPDEST POP POP POP POP DUP2 MSTORE POP POP DUP2 MSTORE PUSH1 0x20 ADD SWAP1 PUSH1 0x1 ADD SWAP1 PUSH2 0xDC3 JUMP JUMPDEST POP POP POP POP DUP2 MSTORE PUSH1 0x20 ADD PUSH1 0xF DUP3 ADD SLOAD DUP2 MSTORE PUSH1 0x20 ADD PUSH1 0x10 DUP3 ADD SLOAD DUP2 MSTORE PUSH1 0x20 ADD PUSH1 0x11 DUP3 ADD PUSH1 0x0 SWAP1 SLOAD SWAP1 PUSH2 0x100 EXP SWAP1 DIV PUSH1 0xFF AND ISZERO ISZERO ISZERO ISZERO DUP2 MSTORE PUSH1 0x20 ADD PUSH1 0x11 DUP3 ADD PUSH1 0x1 SWAP1 SLOAD SWAP1 PUSH2 0x100 EXP SWAP1 DIV PUSH1 0xFF AND ISZERO ISZERO ISZERO ISZERO DUP2 MSTORE PUSH1 0x20 ADD PUSH1 0x11 DUP3 ADD PUSH1 0x2 SWAP1 SLOAD SWAP1 PUSH2 0x100 EXP SWAP1 DIV PUSH1 0xFF AND PUSH1 0x5 DUP2 GT ISZERO PUSH2 0x1080 JUMPI PUSH2 0x107F PUSH2 0x5CA4 JUMP JUMPDEST JUMPDEST PUSH1 0x5 DUP2 GT ISZERO PUSH2 0x1092 JUMPI PUSH2 0x1091 PUSH2 0x5CA4 JUMP JUMPDEST JUMPDEST DUP2 MSTORE POP POP SWAP1 POP SWAP2 SWAP1 POP JUMP JUMPDEST DUP4 PUSH1 0x1 ISZERO ISZERO PUSH1 0x3 PUSH1 0x0 DUP4 DUP2 MSTORE PUSH1 0x20 ADD SWAP1 DUP2 MSTORE PUSH1 0x20 ADD PUSH1 0x0 KECCAK256 PUSH1 0x11 ADD PUSH1 0x1 SWAP1 SLOAD SWAP1 PUSH2 0x100 EXP SWAP1 DIV PUSH1 0xFF AND ISZERO ISZERO EQ DUP1 PUSH2 0x10E2 JUMPI POP PUSH1 0x0 ISZERO ISZERO PUSH2 0x10DE DUP3 PUSH1 0x0 PUSH2 0x1302 JUMP JUMPDEST ISZERO ISZERO EQ JUMPDEST ISZERO PUSH2 0x1124 JUMPI DUP1 PUSH1 0x40 MLOAD PUSH32 0xA0F2FA6E00000000000000000000000000000000000000000000000000000000 DUP2 MSTORE PUSH1 0x4 ADD PUSH2 0x111B SWAP2 SWAP1 PUSH2 0x5412 JUMP JUMPDEST PUSH1 0x40 MLOAD DUP1 SWAP2 SUB SWAP1 REVERT JUMPDEST PUSH1 0x0 PUSH1 0x3 PUSH1 0x0 DUP8 DUP2 MSTORE PUSH1 0x20 ADD SWAP1 DUP2 MSTORE PUSH1 0x20 ADD PUSH1 0x0 KECCAK256 PUSH1 0xE ADD DUP5 DUP2 SLOAD DUP2 LT PUSH2 0x114E JUMPI PUSH2 0x114D PUSH2 0x5D02 JUMP JUMPDEST JUMPDEST SWAP1 PUSH1 0x0 MSTORE PUSH1 0x20 PUSH1 0x0 KECCAK256 SWAP1 PUSH1 0x4 MUL ADD SWAP1 POP DUP1 PUSH1 0x1 ADD DUP6 SWAP1 DUP1 PUSH1 0x1 DUP2 SLOAD ADD DUP1 DUP3 SSTORE DUP1 SWAP2 POP POP PUSH1 0x1 SWAP1 SUB SWAP1 PUSH1 0x0 MSTORE PUSH1 0x20 PUSH1 0x0 KECCAK256 ADD PUSH1 0x0 SWAP1 SWAP2 SWAP1 SWAP2 SWAP1 SWAP2 POP SSTORE PUSH32 0x42464F2A0157D4CE4C9F85BF5CB19BFD2F20F71A6BF72E9F0B026828B82D0421 DUP7 DUP7 DUP7 DUP7 PUSH1 0x40 MLOAD PUSH2 0x11BE SWAP5 SWAP4 SWAP3 SWAP2 SWAP1 PUSH2 0x5701 JUMP JUMPDEST PUSH1 0x40 MLOAD DUP1 SWAP2 SUB SWAP1 LOG1 POP POP POP POP POP POP JUMP JUMPDEST PUSH1 0x1 PUSH1 0x3 PUSH1 0x0 DUP4 DUP2 MSTORE PUSH1 0x20 ADD SWAP1 DUP2 MSTORE PUSH1 0x20 ADD PUSH1 0x0 KECCAK256 PUSH1 0x11 ADD PUSH1 0x0 PUSH2 0x100 EXP DUP2 SLOAD DUP2 PUSH1 0xFF MUL NOT AND SWAP1 DUP4 ISZERO ISZERO MUL OR SWAP1 SSTORE POP PUSH32 0xDAB2890E878EF6D9A9F1D69F761D77BF93C6049FCCAA71ABC31BAA20493179A CALLER DUP3 PUSH1 0x1 PUSH1 0x40 MLOAD PUSH2 0x1231 SWAP4 SWAP3 SWAP2 SWAP1 PUSH2 0x52C5 JUMP JUMPDEST PUSH1 0x40 MLOAD DUP1 SWAP2 SUB SWAP1 LOG1 POP JUMP JUMPDEST PUSH1 0x0 PUSH1 0x3 PUSH1 0x0 DUP6 DUP2 MSTORE PUSH1 0x20 ADD SWAP1 DUP2 MSTORE PUSH1 0x20 ADD PUSH1 0x0 KECCAK256 PUSH1 0xC ADD DUP4 DUP2 SLOAD DUP2 LT PUSH2 0x1266 JUMPI PUSH2 0x1265 PUSH2 0x5D02 JUMP JUMPDEST JUMPDEST SWAP1 PUSH1 0x0 MSTORE PUSH1 0x20 PUSH1 0x0 KECCAK256 SWAP1 PUSH1 0xB MUL ADD SWAP1 POP DUP2 DUP2 PUSH1 0x9 ADD PUSH1 0x0 PUSH2 0x100 EXP DUP2 SLOAD DUP2 PUSH1 0xFF MUL NOT AND SWAP1 DUP4 PUSH1 0x5 DUP2 GT ISZERO PUSH2 0x129D JUMPI PUSH2 0x129C PUSH2 0x5CA4 JUMP JUMPDEST JUMPDEST MUL OR SWAP1 SSTORE POP TIMESTAMP DUP2 PUSH1 0xA ADD DUP2 SWAP1 SSTORE POP PUSH32 0x2DAA2B191F7503DB9793A6AC4672F793306E9F14A9E12053446280E0579B141E DUP5 DUP5 CALLER DUP6 PUSH1 0x40 MLOAD PUSH2 0x12E0 SWAP5 SWAP4 SWAP3 SWAP2 SWAP1 PUSH2 0x55F3 JUMP JUMPDEST PUSH1 0x40 MLOAD DUP1 SWAP2 SUB SWAP1 LOG1 POP POP POP POP JUMP JUMPDEST PUSH2 0x12F6 PUSH2 0x38FB JUMP JUMPDEST PUSH2 0x1300 PUSH1 0x0 PUSH2 0x3979 JUMP JUMPDEST JUMP JUMPDEST PUSH1 0x0 DUP1 PUSH1 0x3 PUSH1 0x0 DUP6 DUP2 MSTORE PUSH1 0x20 ADD SWAP1 DUP2 MSTORE PUSH1 0x20 ADD PUSH1 0x0 KECCAK256 PUSH1 0xC ADD DUP1 SLOAD SWAP1 POP SWAP1 POP PUSH1 0x0 DUP4 ISZERO PUSH2 0x1339 JUMPI PUSH2 0x1332 DUP6 PUSH2 0x1FF3 JUMP JUMPDEST SWAP1 POP PUSH2 0x1345 JUMP JUMPDEST PUSH2 0x1342 DUP6 PUSH2 0x346E JUMP JUMPDEST SWAP1 POP JUMPDEST DUP2 DUP2 EQ SWAP3 POP POP POP SWAP3 SWAP2 POP POP JUMP JUMPDEST PUSH1 0x0 DUP1 PUSH1 0x0 SWAP1 SLOAD SWAP1 PUSH2 0x100 EXP SWAP1 DIV PUSH20 0xFFFFFFFFFFFFFFFFFFFFFFFFFFFFFFFFFFFFFFFF AND SWAP1 POP SWAP1 JUMP JUMPDEST DUP1 ISZERO PUSH2 0x140B JUMPI DUP2 PUSH1 0x3 PUSH1 0x0 DUP8 DUP2 MSTORE PUSH1 0x20 ADD SWAP1 DUP2 MSTORE PUSH1 0x20 ADD PUSH1 0x0 KECCAK256 PUSH1 0xD ADD DUP6 DUP2 SLOAD DUP2 LT PUSH2 0x13AA JUMPI PUSH2 0x13A9 PUSH2 0x5D02 JUMP JUMPDEST JUMPDEST SWAP1 PUSH1 0x0 MSTORE PUSH1 0x20 PUSH1 0x0 KECCAK256 SWAP1 PUSH1 0x4 MUL ADD PUSH1 0x2 ADD DUP5 DUP2 SLOAD DUP2 LT PUSH2 0x13CD JUMPI PUSH2 0x13CC PUSH2 0x5D02 JUMP JUMPDEST JUMPDEST SWAP1 PUSH1 0x0 MSTORE PUSH1 0x20 PUSH1 0x0 KECCAK256 SWAP1 PUSH1 0x20 SWAP2 DUP3 DUP3 DIV ADD SWAP2 SWAP1 MOD PUSH2 0x100 EXP DUP2 SLOAD DUP2 PUSH1 0xFF MUL NOT AND SWAP1 DUP4 PUSH1 0x7 DUP2 GT ISZERO PUSH2 0x1401 JUMPI PUSH2 0x1400 PUSH2 0x5CA4 JUMP JUMPDEST JUMPDEST MUL OR SWAP1 SSTORE POP PUSH2 0x1491 JUMP JUMPDEST DUP2 PUSH1 0x3 PUSH1 0x0 DUP8 DUP2 MSTORE PUSH1 0x20 ADD SWAP1 DUP2 MSTORE PUSH1 0x20 ADD PUSH1 0x0 KECCAK256 PUSH1 0xE ADD DUP6 DUP2 SLOAD DUP2 LT PUSH2 0x1434 JUMPI PUSH2 0x1433 PUSH2 0x5D02 JUMP JUMPDEST JUMPDEST SWAP1 PUSH1 0x0 MSTORE PUSH1 0x20 PUSH1 0x0 KECCAK256 SWAP1 PUSH1 0x4 MUL ADD PUSH1 0x2 ADD DUP5 DUP2 SLOAD DUP2 LT PUSH2 0x1457 JUMPI PUSH2 0x1456 PUSH2 0x5D02 JUMP JUMPDEST JUMPDEST SWAP1 PUSH1 0x0 MSTORE PUSH1 0x20 PUSH1 0x0 KECCAK256 SWAP1 PUSH1 0x20 SWAP2 DUP3 DUP3 DIV ADD SWAP2 SWAP1 MOD PUSH2 0x100 EXP DUP2 SLOAD DUP2 PUSH1 0xFF MUL NOT AND SWAP1 DUP4 PUSH1 0x7 DUP2 GT ISZERO PUSH2 0x148B JUMPI PUSH2 0x148A PUSH2 0x5CA4 JUMP JUMPDEST JUMPDEST MUL OR SWAP1 SSTORE POP JUMPDEST PUSH32 0x7A4C6C6D31A8E32B7079ED0A441635F6962895829FF2D261ACFF68A91CC0C9C5 DUP6 DUP6 DUP6 CALLER DUP7 DUP7 PUSH1 0x40 MLOAD PUSH2 0x14CA SWAP7 SWAP6 SWAP5 SWAP4 SWAP3 SWAP2 SWAP1 PUSH2 0x5638 JUMP JUMPDEST PUSH1 0x40 MLOAD DUP1 SWAP2 SUB SWAP1 LOG1 POP POP POP POP POP JUMP JUMPDEST DUP4 PUSH1 0x0 ISZERO ISZERO PUSH1 0x3 PUSH1 0x0 DUP4 DUP2 MSTORE PUSH1 0x20 ADD SWAP1 DUP2 MSTORE PUSH1 0x20 ADD PUSH1 0x0 KECCAK256 PUSH1 0x11 ADD PUSH1 0x0 SWAP1 SLOAD SWAP1 PUSH2 0x100 EXP SWAP1 DIV PUSH1 0xFF AND ISZERO ISZERO EQ DUP1 PUSH2 0x151E JUMPI POP PUSH1 0x1 ISZERO ISZERO PUSH2 0x151A DUP3 PUSH1 0x1 PUSH2 0x1302 JUMP JUMPDEST ISZERO ISZERO EQ JUMPDEST ISZERO PUSH2 0x1560 JUMPI DUP1 PUSH1 0x40 MLOAD PUSH32 0xA0F2FA6E00000000000000000000000000000000000000000000000000000000 DUP2 MSTORE PUSH1 0x4 ADD PUSH2 0x1557 SWAP2 SWAP1 PUSH2 0x5412 JUMP JUMPDEST PUSH1 0x40 MLOAD DUP1 SWAP2 SUB SWAP1 REVERT JUMPDEST PUSH1 0x0 DUP4 EQ ISZERO PUSH2 0x16EB JUMPI PUSH1 0x0 PUSH1 0x3 PUSH1 0x0 DUP8 DUP2 MSTORE PUSH1 0x20 ADD SWAP1 DUP2 MSTORE PUSH1 0x20 ADD PUSH1 0x0 KECCAK256 PUSH1 0xD ADD SWAP1 POP PUSH2 0x158B PUSH2 0x3B45 JUMP JUMPDEST DUP4 DUP2 PUSH1 0x0 ADD SWAP1 PUSH20 0xFFFFFFFFFFFFFFFFFFFFFFFFFFFFFFFFFFFFFFFF AND SWAP1 DUP2 PUSH20 0xFFFFFFFFFFFFFFFFFFFFFFFFFFFFFFFFFFFFFFFF AND DUP2 MSTORE POP POP DUP6 DUP2 PUSH1 0x20 ADD DUP2 SWAP1 MSTORE POP DUP2 DUP2 SWAP1 DUP1 PUSH1 0x1 DUP2 SLOAD ADD DUP1 DUP3 SSTORE DUP1 SWAP2 POP POP PUSH1 0x1 SWAP1 SUB SWAP1 PUSH1 0x0 MSTORE PUSH1 0x20 PUSH1 0x0 KECCAK256 SWAP1 PUSH1 0x4 MUL ADD PUSH1 0x0 SWAP1 SWAP2 SWAP1 SWAP2 SWAP1 SWAP2 POP PUSH1 0x0 DUP3 ADD MLOAD DUP2 PUSH1 0x0 ADD PUSH1 0x0 PUSH2 0x100 EXP DUP2 SLOAD DUP2 PUSH20 0xFFFFFFFFFFFFFFFFFFFFFFFFFFFFFFFFFFFFFFFF MUL NOT AND SWAP1 DUP4 PUSH20 0xFFFFFFFFFFFFFFFFFFFFFFFFFFFFFFFFFFFFFFFF AND MUL OR SWAP1 SSTORE POP PUSH1 0x20 DUP3 ADD MLOAD DUP2 PUSH1 0x1 ADD SWAP1 DUP1 MLOAD SWAP1 PUSH1 0x20 ADD SWAP1 PUSH2 0x165A SWAP3 SWAP2 SWAP1 PUSH2 0x3B83 JUMP JUMPDEST POP PUSH1 0x40 DUP3 ADD MLOAD DUP2 PUSH1 0x2 ADD SWAP1 DUP1 MLOAD SWAP1 PUSH1 0x20 ADD SWAP1 PUSH2 0x1677 SWAP3 SWAP2 SWAP1 PUSH2 0x3BD0 JUMP JUMPDEST POP PUSH1 0x60 DUP3 ADD MLOAD DUP2 PUSH1 0x3 ADD SWAP1 DUP1 MLOAD SWAP1 PUSH1 0x20 ADD SWAP1 PUSH2 0x1694 SWAP3 SWAP2 SWAP1 PUSH2 0x3C86 JUMP JUMPDEST POP POP POP PUSH32 0xE0705E150B28965A46D4BB97481FF88F99B107A8B840F7D14724CD1EE39FD389 DUP8 DUP8 PUSH1 0x1 DUP6 DUP1 SLOAD SWAP1 POP PUSH2 0x16CB SWAP2 SWAP1 PUSH2 0x5A6D JUMP JUMPDEST DUP8 PUSH1 0x40 MLOAD PUSH2 0x16DC SWAP5 SWAP4 SWAP3 SWAP2 SWAP1 PUSH2 0x547D JUMP JUMPDEST PUSH1 0x40 MLOAD DUP1 SWAP2 SUB SWAP1 LOG1 POP POP PUSH2 0x17C9 JUMP JUMPDEST PUSH1 0x0 PUSH1 0x3 PUSH1 0x0 DUP8 DUP2 MSTORE PUSH1 0x20 ADD SWAP1 DUP2 MSTORE PUSH1 0x20 ADD PUSH1 0x0 KECCAK256 PUSH1 0xD ADD DUP5 DUP2 SLOAD DUP2 LT PUSH2 0x1715 JUMPI PUSH2 0x1714 PUSH2 0x5D02 JUMP JUMPDEST JUMPDEST SWAP1 PUSH1 0x0 MSTORE PUSH1 0x20 PUSH1 0x0 KECCAK256 SWAP1 PUSH1 0x4 MUL ADD SWAP1 POP PUSH1 0x0 JUMPDEST DUP6 MLOAD DUP2 LT ISZERO PUSH2 0x1789 JUMPI DUP2 PUSH1 0x1 ADD DUP7 DUP3 DUP2 MLOAD DUP2 LT PUSH2 0x1748 JUMPI PUSH2 0x1747 PUSH2 0x5D02 JUMP JUMPDEST JUMPDEST PUSH1 0x20 MUL PUSH1 0x20 ADD ADD MLOAD SWAP1 DUP1 PUSH1 0x1 DUP2 SLOAD ADD DUP1 DUP3 SSTORE DUP1 SWAP2 POP POP PUSH1 0x1 SWAP1 SUB SWAP1 PUSH1 0x0 MSTORE PUSH1 0x20 PUSH1 0x0 KECCAK256 ADD PUSH1 0x0 SWAP1 SWAP2 SWAP1 SWAP2 SWAP1 SWAP2 POP SSTORE DUP1 DUP1 PUSH2 0x1781 SWAP1 PUSH2 0x5BFD JUMP JUMPDEST SWAP2 POP POP PUSH2 0x1728 JUMP JUMPDEST POP PUSH32 0xE0705E150B28965A46D4BB97481FF88F99B107A8B840F7D14724CD1EE39FD389 DUP7 DUP7 DUP7 DUP7 PUSH1 0x40 MLOAD PUSH2 0x17BF SWAP5 SWAP4 SWAP3 SWAP2 SWAP1 PUSH2 0x553B JUMP JUMPDEST PUSH1 0x40 MLOAD DUP1 SWAP2 SUB SWAP1 LOG1 POP JUMPDEST PUSH2 0x17D4 DUP6 PUSH1 0x1 PUSH2 0x1302 JUMP JUMPDEST ISZERO PUSH2 0x17E3 JUMPI PUSH2 0x17E2 DUP6 PUSH2 0x23B0 JUMP JUMPDEST JUMPDEST POP POP POP POP POP JUMP JUMPDEST DUP2 CALLER PUSH20 0xFFFFFFFFFFFFFFFFFFFFFFFFFFFFFFFFFFFFFFFF AND PUSH2 0x180B DUP3 PUSH2 0x47B JUMP JUMPDEST PUSH1 0x0 ADD MLOAD PUSH20 0xFFFFFFFFFFFFFFFFFFFFFFFFFFFFFFFFFFFFFFFF AND EQ PUSH2 0x1865 JUMPI PUSH1 0x40 MLOAD PUSH32 0x8C379A000000000000000000000000000000000000000000000000000000000 DUP2 MSTORE PUSH1 0x4 ADD PUSH2 0x185C SWAP1 PUSH2 0x53D2 JUMP JUMPDEST PUSH1 0x40 MLOAD DUP1 SWAP2 SUB SWAP1 REVERT JUMPDEST PUSH1 0x0 PUSH1 0x3 PUSH1 0x0 DUP6 DUP2 MSTORE PUSH1 0x20 ADD SWAP1 DUP2 MSTORE PUSH1 0x20 ADD PUSH1 0x0 KECCAK256 SWAP1 POP DUP3 PUSH1 0x0 ADD MLOAD DUP2 PUSH1 0x1 ADD DUP2 SWAP1 SSTORE POP DUP3 PUSH1 0x20 ADD MLOAD DUP2 PUSH1 0x2 ADD SWAP1 DUP1 MLOAD SWAP1 PUSH1 0x20 ADD SWAP1 PUSH2 0x18A5 SWAP3 SWAP2 SWAP1 PUSH2 0x3CE6 JUMP JUMPDEST POP DUP3 PUSH1 0x40 ADD MLOAD DUP2 PUSH1 0x3 ADD SWAP1 DUP1 MLOAD SWAP1 PUSH1 0x20 ADD SWAP1 PUSH2 0x18C2 SWAP3 SWAP2 SWAP1 PUSH2 0x3CE6 JUMP JUMPDEST POP DUP3 PUSH1 0x60 ADD MLOAD DUP2 PUSH1 0x4 ADD DUP2 SWAP1 SSTORE POP DUP3 PUSH1 0x80 ADD MLOAD DUP2 PUSH1 0x5 ADD SWAP1 DUP1 MLOAD SWAP1 PUSH1 0x20 ADD SWAP1 PUSH2 0x18EC SWAP3 SWAP2 SWAP1 PUSH2 0x3CE6 JUMP JUMPDEST POP DUP3 PUSH1 0xA0 ADD MLOAD DUP2 PUSH1 0x6 ADD SWAP1 DUP1 MLOAD SWAP1 PUSH1 0x20 ADD SWAP1 PUSH2 0x1909 SWAP3 SWAP2 SWAP1 PUSH2 0x3CE6 JUMP JUMPDEST POP DUP3 PUSH1 0xC0 ADD MLOAD DUP2 PUSH1 0x7 ADD SWAP1 DUP1 MLOAD SWAP1 PUSH1 0x20 ADD SWAP1 PUSH2 0x1926 SWAP3 SWAP2 SWAP1 PUSH2 0x3C86 JUMP JUMPDEST POP DUP3 PUSH1 0xE0 ADD MLOAD DUP2 PUSH1 0x8 ADD DUP2 SWAP1 SSTORE POP DUP3 PUSH2 0x100 ADD MLOAD DUP2 PUSH1 0x9 ADD DUP2 SWAP1 SSTORE POP DUP3 PUSH2 0x160 ADD MLOAD DUP2 PUSH1 0xB ADD DUP2 SWAP1 SSTORE POP DUP3 PUSH2 0x120 ADD MLOAD DUP2 PUSH1 0xA ADD PUSH1 0x0 PUSH2 0x100 EXP DUP2 SLOAD DUP2 PUSH1 0xFF MUL NOT AND SWAP1 DUP4 ISZERO ISZERO MUL OR SWAP1 SSTORE POP DUP3 PUSH2 0x140 ADD MLOAD DUP2 PUSH1 0xA ADD PUSH1 0x1 PUSH2 0x100 EXP DUP2 SLOAD DUP2 PUSH1 0xFF MUL NOT AND SWAP1 DUP4 ISZERO ISZERO MUL OR SWAP1 SSTORE POP PUSH1 0x0 DUP2 PUSH1 0x11 ADD PUSH1 0x2 PUSH2 0x100 EXP DUP2 SLOAD DUP2 PUSH1 0xFF MUL NOT AND SWAP1 DUP4 PUSH1 0x5 DUP2 GT ISZERO PUSH2 0x19BA JUMPI PUSH2 0x19B9 PUSH2 0x5CA4 JUMP JUMPDEST JUMPDEST MUL OR SWAP1 SSTORE POP DUP3 PUSH2 0x1A0 ADD MLOAD DUP2 PUSH1 0xF ADD DUP2 SWAP1 SSTORE POP DUP3 PUSH2 0x1C0 ADD MLOAD DUP2 PUSH1 0x10 ADD DUP2 SWAP1 SSTORE POP PUSH1 0x1 DUP2 PUSH1 0x11 ADD PUSH1 0x0 PUSH2 0x100 EXP DUP2 SLOAD DUP2 PUSH1 0xFF MUL NOT AND SWAP1 DUP4 ISZERO ISZERO MUL OR SWAP1 SSTORE POP PUSH1 0x0 DUP2 PUSH1 0x11 ADD PUSH1 0x2 PUSH2 0x100 EXP DUP2 SLOAD DUP2 PUSH1 0xFF MUL NOT AND SWAP1 DUP4 PUSH1 0x5 DUP2 GT ISZERO PUSH2 0x1A20 JUMPI PUSH2 0x1A1F PUSH2 0x5CA4 JUMP JUMPDEST JUMPDEST MUL OR SWAP1 SSTORE POP PUSH1 0x0 JUMPDEST DUP4 PUSH2 0x180 ADD MLOAD MLOAD DUP2 LT ISZERO PUSH2 0x1B70 JUMPI DUP2 PUSH1 0xC ADD DUP5 PUSH2 0x180 ADD MLOAD DUP3 DUP2 MLOAD DUP2 LT PUSH2 0x1A52 JUMPI PUSH2 0x1A51 PUSH2 0x5D02 JUMP JUMPDEST JUMPDEST PUSH1 0x20 MUL PUSH1 0x20 ADD ADD MLOAD SWAP1 DUP1 PUSH1 0x1 DUP2 SLOAD ADD DUP1 DUP3 SSTORE DUP1 SWAP2 POP POP PUSH1 0x1 SWAP1 SUB SWAP1 PUSH1 0x0 MSTORE PUSH1 0x20 PUSH1 0x0 KECCAK256 SWAP1 PUSH1 0xB MUL ADD PUSH1 0x0 SWAP1 SWAP2 SWAP1 SWAP2 SWAP1 SWAP2 POP PUSH1 0x0 DUP3 ADD MLOAD DUP2 PUSH1 0x0 ADD PUSH1 0x0 DUP3 ADD MLOAD DUP2 PUSH1 0x0 ADD SWAP1 DUP1 MLOAD SWAP1 PUSH1 0x20 ADD SWAP1 PUSH2 0x1AA8 SWAP3 SWAP2 SWAP1 PUSH2 0x3CE6 JUMP JUMPDEST POP PUSH1 0x20 DUP3 ADD MLOAD DUP2 PUSH1 0x1 ADD SSTORE PUSH1 0x40 DUP3 ADD MLOAD DUP2 PUSH1 0x2 ADD SSTORE PUSH1 0x60 DUP3 ADD MLOAD DUP2 PUSH1 0x3 ADD SSTORE PUSH1 0x80 DUP3 ADD MLOAD DUP2 PUSH1 0x4 ADD SSTORE PUSH1 0xA0 DUP3 ADD MLOAD DUP2 PUSH1 0x5 ADD SSTORE PUSH1 0xC0 DUP3 ADD MLOAD DUP2 PUSH1 0x6 ADD SWAP1 DUP1 MLOAD SWAP1 PUSH1 0x20 ADD SWAP1 PUSH2 0x1AF7 SWAP3 SWAP2 SWAP1 PUSH2 0x3CE6 JUMP JUMPDEST POP POP POP PUSH1 0x20 DUP3 ADD MLOAD DUP2 PUSH1 0x7 ADD SSTORE PUSH1 0x40 DUP3 ADD MLOAD DUP2 PUSH1 0x8 ADD SWAP1 DUP1 MLOAD SWAP1 PUSH1 0x20 ADD SWAP1 PUSH2 0x1B20 SWAP3 SWAP2 SWAP1 PUSH2 0x3CE6 JUMP JUMPDEST POP PUSH1 0x60 DUP3 ADD MLOAD DUP2 PUSH1 0x9 ADD PUSH1 0x0 PUSH2 0x100 EXP DUP2 SLOAD DUP2 PUSH1 0xFF MUL NOT AND SWAP1 DUP4 PUSH1 0x5 DUP2 GT ISZERO PUSH2 0x1B4C JUMPI PUSH2 0x1B4B PUSH2 0x5CA4 JUMP JUMPDEST JUMPDEST MUL OR SWAP1 SSTORE POP PUSH1 0x80 DUP3 ADD MLOAD DUP2 PUSH1 0xA ADD SSTORE POP POP DUP1 DUP1 PUSH2 0x1B68 SWAP1 PUSH2 0x5BFD JUMP JUMPDEST SWAP2 POP POP PUSH2 0x1A28 JUMP JUMPDEST POP PUSH32 0x13BD8EB024979AA1A19E47A1032F4DFFE5037F93B1AE0A9A67952DBD82510830 DUP5 DUP5 PUSH1 0x40 MLOAD PUSH2 0x1BA2 SWAP3 SWAP2 SWAP1 PUSH2 0x55C3 JUMP JUMPDEST PUSH1 0x40 MLOAD DUP1 SWAP2 SUB SWAP1 LOG1 POP POP POP POP JUMP JUMPDEST DUP4 PUSH1 0x1 ISZERO ISZERO PUSH1 0x3 PUSH1 0x0 DUP4 DUP2 MSTORE PUSH1 0x20 ADD SWAP1 DUP2 MSTORE PUSH1 0x20 ADD PUSH1 0x0 KECCAK256 PUSH1 0x11 ADD PUSH1 0x1 SWAP1 SLOAD SWAP1 PUSH2 0x100 EXP SWAP1 DIV PUSH1 0xFF AND ISZERO ISZERO EQ DUP1 PUSH2 0x1BF5 JUMPI POP PUSH1 0x0 ISZERO ISZERO PUSH2 0x1BF1 DUP3 PUSH1 0x0 PUSH2 0x1302 JUMP JUMPDEST ISZERO ISZERO EQ JUMPDEST ISZERO PUSH2 0x1C37 JUMPI DUP1 PUSH1 0x40 MLOAD PUSH32 0xA0F2FA6E00000000000000000000000000000000000000000000000000000000 DUP2 MSTORE PUSH1 0x4 ADD PUSH2 0x1C2E SWAP2 SWAP1 PUSH2 0x5412 JUMP JUMPDEST PUSH1 0x40 MLOAD DUP1 SWAP2 SUB SWAP1 REVERT JUMPDEST PUSH1 0x0 DUP4 EQ ISZERO PUSH2 0x1DC2 JUMPI PUSH1 0x0 PUSH1 0x3 PUSH1 0x0 DUP8 DUP2 MSTORE PUSH1 0x20 ADD SWAP1 DUP2 MSTORE PUSH1 0x20 ADD PUSH1 0x0 KECCAK256 PUSH1 0xE ADD SWAP1 POP PUSH2 0x1C62 PUSH2 0x3B45 JUMP JUMPDEST DUP4 DUP2 PUSH1 0x0 ADD SWAP1 PUSH20 0xFFFFFFFFFFFFFFFFFFFFFFFFFFFFFFFFFFFFFFFF AND SWAP1 DUP2 PUSH20 0xFFFFFFFFFFFFFFFFFFFFFFFFFFFFFFFFFFFFFFFF AND DUP2 MSTORE POP POP DUP6 DUP2 PUSH1 0x20 ADD DUP2 SWAP1 MSTORE POP DUP2 DUP2 SWAP1 DUP1 PUSH1 0x1 DUP2 SLOAD ADD DUP1 DUP3 SSTORE DUP1 SWAP2 POP POP PUSH1 0x1 SWAP1 SUB SWAP1 PUSH1 0x0 MSTORE PUSH1 0x20 PUSH1 0x0 KECCAK256 SWAP1 PUSH1 0x4 MUL ADD PUSH1 0x0 SWAP1 SWAP2 SWAP1 SWAP2 SWAP1 SWAP2 POP PUSH1 0x0 DUP3 ADD MLOAD DUP2 PUSH1 0x0 ADD PUSH1 0x0 PUSH2 0x100 EXP DUP2 SLOAD DUP2 PUSH20 0xFFFFFFFFFFFFFFFFFFFFFFFFFFFFFFFFFFFFFFFF MUL NOT AND SWAP1 DUP4 PUSH20 0xFFFFFFFFFFFFFFFFFFFFFFFFFFFFFFFFFFFFFFFF AND MUL OR SWAP1 SSTORE POP PUSH1 0x20 DUP3 ADD MLOAD DUP2 PUSH1 0x1 ADD SWAP1 DUP1 MLOAD SWAP1 PUSH1 0x20 ADD SWAP1 PUSH2 0x1D31 SWAP3 SWAP2 SWAP1 PUSH2 0x3B83 JUMP JUMPDEST POP PUSH1 0x40 DUP3 ADD MLOAD DUP2 PUSH1 0x2 ADD SWAP1 DUP1 MLOAD SWAP1 PUSH1 0x20 ADD SWAP1 PUSH2 0x1D4E SWAP3 SWAP2 SWAP1 PUSH2 0x3BD0 JUMP JUMPDEST POP PUSH1 0x60 DUP3 ADD MLOAD DUP2 PUSH1 0x3 ADD SWAP1 DUP1 MLOAD SWAP1 PUSH1 0x20 ADD SWAP1 PUSH2 0x1D6B SWAP3 SWAP2 SWAP1 PUSH2 0x3C86 JUMP JUMPDEST POP POP POP PUSH32 0xE0705E150B28965A46D4BB97481FF88F99B107A8B840F7D14724CD1EE39FD389 DUP8 DUP8 PUSH1 0x1 DUP6 DUP1 SLOAD SWAP1 POP PUSH2 0x1DA2 SWAP2 SWAP1 PUSH2 0x5A6D JUMP JUMPDEST DUP8 PUSH1 0x40 MLOAD PUSH2 0x1DB3 SWAP5 SWAP4 SWAP3 SWAP2 SWAP1 PUSH2 0x54DC JUMP JUMPDEST PUSH1 0x40 MLOAD DUP1 SWAP2 SUB SWAP1 LOG1 POP POP PUSH2 0x1EA0 JUMP JUMPDEST PUSH1 0x0 PUSH1 0x3 PUSH1 0x0 DUP8 DUP2 MSTORE PUSH1 0x20 ADD SWAP1 DUP2 MSTORE PUSH1 0x20 ADD PUSH1 0x0 KECCAK256 PUSH1 0xE ADD DUP5 DUP2 SLOAD DUP2 LT PUSH2 0x1DEC JUMPI PUSH2 0x1DEB PUSH2 0x5D02 JUMP JUMPDEST JUMPDEST SWAP1 PUSH1 0x0 MSTORE PUSH1 0x20 PUSH1 0x0 KECCAK256 SWAP1 PUSH1 0x4 MUL ADD SWAP1 POP PUSH1 0x0 JUMPDEST DUP6 MLOAD DUP2 LT ISZERO PUSH2 0x1E60 JUMPI DUP2 PUSH1 0x1 ADD DUP7 DUP3 DUP2 MLOAD DUP2 LT PUSH2 0x1E1F JUMPI PUSH2 0x1E1E PUSH2 0x5D02 JUMP JUMPDEST JUMPDEST PUSH1 0x20 MUL PUSH1 0x20 ADD ADD MLOAD SWAP1 DUP1 PUSH1 0x1 DUP2 SLOAD ADD DUP1 DUP3 SSTORE DUP1 SWAP2 POP POP PUSH1 0x1 SWAP1 SUB SWAP1 PUSH1 0x0 MSTORE PUSH1 0x20 PUSH1 0x0 KECCAK256 ADD PUSH1 0x0 SWAP1 SWAP2 SWAP1 SWAP2 SWAP1 SWAP2 POP SSTORE DUP1 DUP1 PUSH2 0x1E58 SWAP1 PUSH2 0x5BFD JUMP JUMPDEST SWAP2 POP POP PUSH2 0x1DFF JUMP JUMPDEST POP PUSH32 0xE0705E150B28965A46D4BB97481FF88F99B107A8B840F7D14724CD1EE39FD389 DUP7 DUP7 DUP7 DUP7 PUSH1 0x40 MLOAD PUSH2 0x1E96 SWAP5 SWAP4 SWAP3 SWAP2 SWAP1 PUSH2 0x54DC JUMP JUMPDEST PUSH1 0x40 MLOAD DUP1 SWAP2 SUB SWAP1 LOG1 POP JUMPDEST PUSH2 0x1EAB DUP6 PUSH1 0x0 PUSH2 0x1302 JUMP JUMPDEST ISZERO PUSH2 0x1EBA JUMPI PUSH2 0x1EB9 DUP6 PUSH2 0x23B0 JUMP JUMPDEST JUMPDEST POP POP POP POP POP JUMP JUMPDEST PUSH1 0x0 PUSH1 0x4 SLOAD SWAP1 POP SWAP1 JUMP JUMPDEST DUP1 ISZERO PUSH2 0x1F40 JUMPI DUP2 PUSH1 0x3 PUSH1 0x0 DUP8 DUP2 MSTORE PUSH1 0x20 ADD SWAP1 DUP2 MSTORE PUSH1 0x20 ADD PUSH1 0x0 KECCAK256 PUSH1 0xD ADD DUP6 DUP2 SLOAD DUP2 LT PUSH2 0x1EFA JUMPI PUSH2 0x1EF9 PUSH2 0x5D02 JUMP JUMPDEST JUMPDEST SWAP1 PUSH1 0x0 MSTORE PUSH1 0x20 PUSH1 0x0 KECCAK256 SWAP1 PUSH1 0x4 MUL ADD PUSH1 0x3 ADD DUP5 DUP2 SLOAD DUP2 LT PUSH2 0x1F1D JUMPI PUSH2 0x1F1C PUSH2 0x5D02 JUMP JUMPDEST JUMPDEST SWAP1 PUSH1 0x0 MSTORE PUSH1 0x20 PUSH1 0x0 KECCAK256 ADD SWAP1 DUP1 MLOAD SWAP1 PUSH1 0x20 ADD SWAP1 PUSH2 0x1F3A SWAP3 SWAP2 SWAP1 PUSH2 0x3CE6 JUMP JUMPDEST POP PUSH2 0x1FAB JUMP JUMPDEST DUP2 PUSH1 0x3 PUSH1 0x0 DUP8 DUP2 MSTORE PUSH1 0x20 ADD SWAP1 DUP2 MSTORE PUSH1 0x20 ADD PUSH1 0x0 KECCAK256 PUSH1 0xE ADD DUP6 DUP2 SLOAD DUP2 LT PUSH2 0x1F69 JUMPI PUSH2 0x1F68 PUSH2 0x5D02 JUMP JUMPDEST JUMPDEST SWAP1 PUSH1 0x0 MSTORE PUSH1 0x20 PUSH1 0x0 KECCAK256 SWAP1 PUSH1 0x4 MUL ADD PUSH1 0x3 ADD DUP5 DUP2 SLOAD DUP2 LT PUSH2 0x1F8C JUMPI PUSH2 0x1F8B PUSH2 0x5D02 JUMP JUMPDEST JUMPDEST SWAP1 PUSH1 0x0 MSTORE PUSH1 0x20 PUSH1 0x0 KECCAK256 ADD SWAP1 DUP1 MLOAD SWAP1 PUSH1 0x20 ADD SWAP1 PUSH2 0x1FA9 SWAP3 SWAP2 SWAP1 PUSH2 0x3CE6 JUMP JUMPDEST POP JUMPDEST PUSH32 0x3EBF5EF7E115E4166869B39D9F913E067201DB6CED02054116E14E2AB7C4B4A8 DUP6 DUP6 DUP6 CALLER DUP7 DUP7 PUSH1 0x40 MLOAD PUSH2 0x1FE4 SWAP7 SWAP6 SWAP5 SWAP4 SWAP3 SWAP2 SWAP1 PUSH2 0x5699 JUMP JUMPDEST PUSH1 0x40 MLOAD DUP1 SWAP2 SUB SWAP1 LOG1 POP POP POP POP POP JUMP JUMPDEST PUSH1 0x0 DUP1 PUSH1 0x3 PUSH1 0x0 DUP5 DUP2 MSTORE PUSH1 0x20 ADD SWAP1 DUP2 MSTORE PUSH1 0x20 ADD PUSH1 0x0 KECCAK256 PUSH1 0xD ADD DUP1 SLOAD DUP1 PUSH1 0x20 MUL PUSH1 0x20 ADD PUSH1 0x40 MLOAD SWAP1 DUP2 ADD PUSH1 0x40 MSTORE DUP1 SWAP3 SWAP2 SWAP1 DUP2 DUP2 MSTORE PUSH1 0x20 ADD PUSH1 0x0 SWAP1 JUMPDEST DUP3 DUP3 LT ISZERO PUSH2 0x2272 JUMPI DUP4 DUP3 SWAP1 PUSH1 0x0 MSTORE PUSH1 0x20 PUSH1 0x0 KECCAK256 SWAP1 PUSH1 0x4 MUL ADD PUSH1 0x40 MLOAD DUP1 PUSH1 0x80 ADD PUSH1 0x40 MSTORE SWAP1 DUP2 PUSH1 0x0 DUP3 ADD PUSH1 0x0 SWAP1 SLOAD SWAP1 PUSH2 0x100 EXP SWAP1 DIV PUSH20 0xFFFFFFFFFFFFFFFFFFFFFFFFFFFFFFFFFFFFFFFF AND PUSH20 0xFFFFFFFFFFFFFFFFFFFFFFFFFFFFFFFFFFFFFFFF AND PUSH20 0xFFFFFFFFFFFFFFFFFFFFFFFFFFFFFFFFFFFFFFFF AND DUP2 MSTORE PUSH1 0x20 ADD PUSH1 0x1 DUP3 ADD DUP1 SLOAD DUP1 PUSH1 0x20 MUL PUSH1 0x20 ADD PUSH1 0x40 MLOAD SWAP1 DUP2 ADD PUSH1 0x40 MSTORE DUP1 SWAP3 SWAP2 SWAP1 DUP2 DUP2 MSTORE PUSH1 0x20 ADD DUP3 DUP1 SLOAD DUP1 ISZERO PUSH2 0x20F4 JUMPI PUSH1 0x20 MUL DUP3 ADD SWAP2 SWAP1 PUSH1 0x0 MSTORE PUSH1 0x20 PUSH1 0x0 KECCAK256 SWAP1 JUMPDEST DUP2 SLOAD DUP2 MSTORE PUSH1 0x20 ADD SWAP1 PUSH1 0x1 ADD SWAP1 DUP1 DUP4 GT PUSH2 0x20E0 JUMPI JUMPDEST POP POP POP POP POP DUP2 MSTORE PUSH1 0x20 ADD PUSH1 0x2 DUP3 ADD DUP1 SLOAD DUP1 PUSH1 0x20 MUL PUSH1 0x20 ADD PUSH1 0x40 MLOAD SWAP1 DUP2 ADD PUSH1 0x40 MSTORE DUP1 SWAP3 SWAP2 SWAP1 DUP2 DUP2 MSTORE PUSH1 0x20 ADD DUP3 DUP1 SLOAD DUP1 ISZERO PUSH2 0x2181 JUMPI PUSH1 0x20 MUL DUP3 ADD SWAP2 SWAP1 PUSH1 0x0 MSTORE PUSH1 0x20 PUSH1 0x0 KECCAK256 SWAP1 PUSH1 0x0 SWAP1 JUMPDEST DUP3 DUP3 SWAP1 SLOAD SWAP1 PUSH2 0x100 EXP SWAP1 DIV PUSH1 0xFF AND PUSH1 0x7 DUP2 GT ISZERO PUSH2 0x215B JUMPI PUSH2 0x215A PUSH2 0x5CA4 JUMP JUMPDEST JUMPDEST DUP2 MSTORE PUSH1 0x20 ADD SWAP1 PUSH1 0x1 ADD SWAP1 PUSH1 0x20 DUP3 PUSH1 0x0 ADD DIV SWAP3 DUP4 ADD SWAP3 PUSH1 0x1 SUB DUP3 MUL SWAP2 POP DUP1 DUP5 GT PUSH2 0x213B JUMPI SWAP1 POP JUMPDEST POP POP POP POP POP DUP2 MSTORE PUSH1 0x20 ADD PUSH1 0x3 DUP3 ADD DUP1 SLOAD DUP1 PUSH1 0x20 MUL PUSH1 0x20 ADD PUSH1 0x40 MLOAD SWAP1 DUP2 ADD PUSH1 0x40 MSTORE DUP1 SWAP3 SWAP2 SWAP1 DUP2 DUP2 MSTORE PUSH1 0x20 ADD PUSH1 0x0 SWAP1 JUMPDEST DUP3 DUP3 LT ISZERO PUSH2 0x225B JUMPI DUP4 DUP3 SWAP1 PUSH1 0x0 MSTORE PUSH1 0x20 PUSH1 0x0 KECCAK256 ADD DUP1 SLOAD PUSH2 0x21CE SWAP1 PUSH2 0x5B9A JUMP JUMPDEST DUP1 PUSH1 0x1F ADD PUSH1 0x20 DUP1 SWAP2 DIV MUL PUSH1 0x20 ADD PUSH1 0x40 MLOAD SWAP1 DUP2 ADD PUSH1 0x40 MSTORE DUP1 SWAP3 SWAP2 SWAP1 DUP2 DUP2 MSTORE PUSH1 0x20 ADD DUP3 DUP1 SLOAD PUSH2 0x21FA SWAP1 PUSH2 0x5B9A JUMP JUMPDEST DUP1 ISZERO PUSH2 0x2247 JUMPI DUP1 PUSH1 0x1F LT PUSH2 0x221C JUMPI PUSH2 0x100 DUP1 DUP4 SLOAD DIV MUL DUP4 MSTORE SWAP2 PUSH1 0x20 ADD SWAP2 PUSH2 0x2247 JUMP JUMPDEST DUP3 ADD SWAP2 SWAP1 PUSH1 0x0 MSTORE PUSH1 0x20 PUSH1 0x0 KECCAK256 SWAP1 JUMPDEST DUP2 SLOAD DUP2 MSTORE SWAP1 PUSH1 0x1 ADD SWAP1 PUSH1 0x20 ADD DUP1 DUP4 GT PUSH2 0x222A JUMPI DUP3 SWAP1 SUB PUSH1 0x1F AND DUP3 ADD SWAP2 JUMPDEST POP POP POP POP POP DUP2 MSTORE PUSH1 0x20 ADD SWAP1 PUSH1 0x1 ADD SWAP1 PUSH2 0x21AF JUMP JUMPDEST POP POP POP POP DUP2 MSTORE POP POP DUP2 MSTORE PUSH1 0x20 ADD SWAP1 PUSH1 0x1 ADD SWAP1 PUSH2 0x202C JUMP JUMPDEST POP POP POP POP SWAP1 POP PUSH1 0x0 DUP1 PUSH1 0x0 SWAP1 POP JUMPDEST DUP3 MLOAD DUP2 LT ISZERO PUSH2 0x22C9 JUMPI DUP3 DUP2 DUP2 MLOAD DUP2 LT PUSH2 0x229C JUMPI PUSH2 0x229B PUSH2 0x5D02 JUMP JUMPDEST JUMPDEST PUSH1 0x20 MUL PUSH1 0x20 ADD ADD MLOAD PUSH1 0x20 ADD MLOAD MLOAD DUP3 PUSH2 0x22B4 SWAP2 SWAP1 PUSH2 0x59E6 JUMP JUMPDEST SWAP2 POP DUP1 DUP1 PUSH2 0x22C1 SWAP1 PUSH2 0x5BFD JUMP JUMPDEST SWAP2 POP POP PUSH2 0x2280 JUMP JUMPDEST POP DUP1 SWAP3 POP POP POP SWAP2 SWAP1 POP JUMP JUMPDEST PUSH1 0x0 PUSH1 0x3 PUSH1 0x0 DUP4 DUP2 MSTORE PUSH1 0x20 ADD SWAP1 DUP2 MSTORE PUSH1 0x20 ADD PUSH1 0x0 KECCAK256 PUSH1 0x11 ADD PUSH1 0x1 PUSH2 0x100 EXP DUP2 SLOAD DUP2 PUSH1 0xFF MUL NOT AND SWAP1 DUP4 ISZERO ISZERO MUL OR SWAP1 SSTORE POP PUSH32 0xDAB2890E878EF6D9A9F1D69F761D77BF93C6049FCCAA71ABC31BAA20493179A CALLER DUP3 PUSH1 0x0 PUSH1 0x40 MLOAD PUSH2 0x2337 SWAP4 SWAP3 SWAP2 SWAP1 PUSH2 0x530F JUMP JUMPDEST PUSH1 0x40 MLOAD DUP1 SWAP2 SUB SWAP1 LOG1 POP JUMP JUMPDEST PUSH1 0x1 PUSH1 0x3 PUSH1 0x0 DUP4 DUP2 MSTORE PUSH1 0x20 ADD SWAP1 DUP2 MSTORE PUSH1 0x20 ADD PUSH1 0x0 KECCAK256 PUSH1 0x11 ADD PUSH1 0x1 PUSH2 0x100 EXP DUP2 SLOAD DUP2 PUSH1 0xFF MUL NOT AND SWAP1 DUP4 ISZERO ISZERO MUL OR SWAP1 SSTORE POP PUSH32 0xDAB2890E878EF6D9A9F1D69F761D77BF93C6049FCCAA71ABC31BAA20493179A CALLER DUP3 PUSH1 0x1 PUSH1 0x40 MLOAD PUSH2 0x23A5 SWAP4 SWAP3 SWAP2 SWAP1 PUSH2 0x52C5 JUMP JUMPDEST PUSH1 0x40 MLOAD DUP1 SWAP2 SUB SWAP1 LOG1 POP JUMP JUMPDEST PUSH1 0x0 PUSH1 0x3 PUSH1 0x0 DUP4 DUP2 MSTORE PUSH1 0x20 ADD SWAP1 DUP2 MSTORE PUSH1 0x20 ADD PUSH1 0x0 KECCAK256 PUSH1 0x11 ADD PUSH1 0x0 PUSH2 0x100 EXP DUP2 SLOAD DUP2 PUSH1 0xFF MUL NOT AND SWAP1 DUP4 ISZERO ISZERO MUL OR SWAP1 SSTORE POP PUSH32 0xDAB2890E878EF6D9A9F1D69F761D77BF93C6049FCCAA71ABC31BAA20493179A CALLER DUP3 PUSH1 0x0 PUSH1 0x40 MLOAD PUSH2 0x2413 SWAP4 SWAP3 SWAP2 SWAP1 PUSH2 0x52C5 JUMP JUMPDEST PUSH1 0x40 MLOAD DUP1 SWAP2 SUB SWAP1 LOG1 POP JUMP JUMPDEST PUSH2 0x2426 PUSH2 0x3A75 JUMP JUMPDEST PUSH1 0x3 PUSH1 0x0 DUP4 DUP2 MSTORE PUSH1 0x20 ADD SWAP1 DUP2 MSTORE PUSH1 0x20 ADD PUSH1 0x0 KECCAK256 PUSH1 0x40 MLOAD DUP1 PUSH2 0x2A0 ADD PUSH1 0x40 MSTORE SWAP1 DUP2 PUSH1 0x0 DUP3 ADD PUSH1 0x0 SWAP1 SLOAD SWAP1 PUSH2 0x100 EXP SWAP1 DIV PUSH20 0xFFFFFFFFFFFFFFFFFFFFFFFFFFFFFFFFFFFFFFFF AND PUSH20 0xFFFFFFFFFFFFFFFFFFFFFFFFFFFFFFFFFFFFFFFF AND PUSH20 0xFFFFFFFFFFFFFFFFFFFFFFFFFFFFFFFFFFFFFFFF AND DUP2 MSTORE PUSH1 0x20 ADD PUSH1 0x1 DUP3 ADD SLOAD DUP2 MSTORE PUSH1 0x20 ADD PUSH1 0x2 DUP3 ADD DUP1 SLOAD PUSH2 0x24B5 SWAP1 PUSH2 0x5B9A JUMP JUMPDEST DUP1 PUSH1 0x1F ADD PUSH1 0x20 DUP1 SWAP2 DIV MUL PUSH1 0x20 ADD PUSH1 0x40 MLOAD SWAP1 DUP2 ADD PUSH1 0x40 MSTORE DUP1 SWAP3 SWAP2 SWAP1 DUP2 DUP2 MSTORE PUSH1 0x20 ADD DUP3 DUP1 SLOAD PUSH2 0x24E1 SWAP1 PUSH2 0x5B9A JUMP JUMPDEST DUP1 ISZERO PUSH2 0x252E JUMPI DUP1 PUSH1 0x1F LT PUSH2 0x2503 JUMPI PUSH2 0x100 DUP1 DUP4 SLOAD DIV MUL DUP4 MSTORE SWAP2 PUSH1 0x20 ADD SWAP2 PUSH2 0x252E JUMP JUMPDEST DUP3 ADD SWAP2 SWAP1 PUSH1 0x0 MSTORE PUSH1 0x20 PUSH1 0x0 KECCAK256 SWAP1 JUMPDEST DUP2 SLOAD DUP2 MSTORE SWAP1 PUSH1 0x1 ADD SWAP1 PUSH1 0x20 ADD DUP1 DUP4 GT PUSH2 0x2511 JUMPI DUP3 SWAP1 SUB PUSH1 0x1F AND DUP3 ADD SWAP2 JUMPDEST POP POP POP POP POP DUP2 MSTORE PUSH1 0x20 ADD PUSH1 0x3 DUP3 ADD DUP1 SLOAD PUSH2 0x2547 SWAP1 PUSH2 0x5B9A JUMP JUMPDEST DUP1 PUSH1 0x1F ADD PUSH1 0x20 DUP1 SWAP2 DIV MUL PUSH1 0x20 ADD PUSH1 0x40 MLOAD SWAP1 DUP2 ADD PUSH1 0x40 MSTORE DUP1 SWAP3 SWAP2 SWAP1 DUP2 DUP2 MSTORE PUSH1 0x20 ADD DUP3 DUP1 SLOAD PUSH2 0x2573 SWAP1 PUSH2 0x5B9A JUMP JUMPDEST DUP1 ISZERO PUSH2 0x25C0 JUMPI DUP1 PUSH1 0x1F LT PUSH2 0x2595 JUMPI PUSH2 0x100 DUP1 DUP4 SLOAD DIV MUL DUP4 MSTORE SWAP2 PUSH1 0x20 ADD SWAP2 PUSH2 0x25C0 JUMP JUMPDEST DUP3 ADD SWAP2 SWAP1 PUSH1 0x0 MSTORE PUSH1 0x20 PUSH1 0x0 KECCAK256 SWAP1 JUMPDEST DUP2 SLOAD DUP2 MSTORE SWAP1 PUSH1 0x1 ADD SWAP1 PUSH1 0x20 ADD DUP1 DUP4 GT PUSH2 0x25A3 JUMPI DUP3 SWAP1 SUB PUSH1 0x1F AND DUP3 ADD SWAP2 JUMPDEST POP POP POP POP POP DUP2 MSTORE PUSH1 0x20 ADD PUSH1 0x4 DUP3 ADD SLOAD DUP2 MSTORE PUSH1 0x20 ADD PUSH1 0x5 DUP3 ADD DUP1 SLOAD PUSH2 0x25E3 SWAP1 PUSH2 0x5B9A JUMP JUMPDEST DUP1 PUSH1 0x1F ADD PUSH1 0x20 DUP1 SWAP2 DIV MUL PUSH1 0x20 ADD PUSH1 0x40 MLOAD SWAP1 DUP2 ADD PUSH1 0x40 MSTORE DUP1 SWAP3 SWAP2 SWAP1 DUP2 DUP2 MSTORE PUSH1 0x20 ADD DUP3 DUP1 SLOAD PUSH2 0x260F SWAP1 PUSH2 0x5B9A JUMP JUMPDEST DUP1 ISZERO PUSH2 0x265C JUMPI DUP1 PUSH1 0x1F LT PUSH2 0x2631 JUMPI PUSH2 0x100 DUP1 DUP4 SLOAD DIV MUL DUP4 MSTORE SWAP2 PUSH1 0x20 ADD SWAP2 PUSH2 0x265C JUMP JUMPDEST DUP3 ADD SWAP2 SWAP1 PUSH1 0x0 MSTORE PUSH1 0x20 PUSH1 0x0 KECCAK256 SWAP1 JUMPDEST DUP2 SLOAD DUP2 MSTORE SWAP1 PUSH1 0x1 ADD SWAP1 PUSH1 0x20 ADD DUP1 DUP4 GT PUSH2 0x263F JUMPI DUP3 SWAP1 SUB PUSH1 0x1F AND DUP3 ADD SWAP2 JUMPDEST POP POP POP POP POP DUP2 MSTORE PUSH1 0x20 ADD PUSH1 0x6 DUP3 ADD DUP1 SLOAD PUSH2 0x2675 SWAP1 PUSH2 0x5B9A JUMP JUMPDEST DUP1 PUSH1 0x1F ADD PUSH1 0x20 DUP1 SWAP2 DIV MUL PUSH1 0x20 ADD PUSH1 0x40 MLOAD SWAP1 DUP2 ADD PUSH1 0x40 MSTORE DUP1 SWAP3 SWAP2 SWAP1 DUP2 DUP2 MSTORE PUSH1 0x20 ADD DUP3 DUP1 SLOAD PUSH2 0x26A1 SWAP1 PUSH2 0x5B9A JUMP JUMPDEST DUP1 ISZERO PUSH2 0x26EE JUMPI DUP1 PUSH1 0x1F LT PUSH2 0x26C3 JUMPI PUSH2 0x100 DUP1 DUP4 SLOAD DIV MUL DUP4 MSTORE SWAP2 PUSH1 0x20 ADD SWAP2 PUSH2 0x26EE JUMP JUMPDEST DUP3 ADD SWAP2 SWAP1 PUSH1 0x0 MSTORE PUSH1 0x20 PUSH1 0x0 KECCAK256 SWAP1 JUMPDEST DUP2 SLOAD DUP2 MSTORE SWAP1 PUSH1 0x1 ADD SWAP1 PUSH1 0x20 ADD DUP1 DUP4 GT PUSH2 0x26D1 JUMPI DUP3 SWAP1 SUB PUSH1 0x1F AND DUP3 ADD SWAP2 JUMPDEST POP POP POP POP POP DUP2 MSTORE PUSH1 0x20 ADD PUSH1 0x7 DUP3 ADD DUP1 SLOAD DUP1 PUSH1 0x20 MUL PUSH1 0x20 ADD PUSH1 0x40 MLOAD SWAP1 DUP2 ADD PUSH1 0x40 MSTORE DUP1 SWAP3 SWAP2 SWAP1 DUP2 DUP2 MSTORE PUSH1 0x20 ADD PUSH1 0x0 SWAP1 JUMPDEST DUP3 DUP3 LT ISZERO PUSH2 0x27C8 JUMPI DUP4 DUP3 SWAP1 PUSH1 0x0 MSTORE PUSH1 0x20 PUSH1 0x0 KECCAK256 ADD DUP1 SLOAD PUSH2 0x273B SWAP1 PUSH2 0x5B9A JUMP JUMPDEST DUP1 PUSH1 0x1F ADD PUSH1 0x20 DUP1 SWAP2 DIV MUL PUSH1 0x20 ADD PUSH1 0x40 MLOAD SWAP1 DUP2 ADD PUSH1 0x40 MSTORE DUP1 SWAP3 SWAP2 SWAP1 DUP2 DUP2 MSTORE PUSH1 0x20 ADD DUP3 DUP1 SLOAD PUSH2 0x2767 SWAP1 PUSH2 0x5B9A JUMP JUMPDEST DUP1 ISZERO PUSH2 0x27B4 JUMPI DUP1 PUSH1 0x1F LT PUSH2 0x2789 JUMPI PUSH2 0x100 DUP1 DUP4 SLOAD DIV MUL DUP4 MSTORE SWAP2 PUSH1 0x20 ADD SWAP2 PUSH2 0x27B4 JUMP JUMPDEST DUP3 ADD SWAP2 SWAP1 PUSH1 0x0 MSTORE PUSH1 0x20 PUSH1 0x0 KECCAK256 SWAP1 JUMPDEST DUP2 SLOAD DUP2 MSTORE SWAP1 PUSH1 0x1 ADD SWAP1 PUSH1 0x20 ADD DUP1 DUP4 GT PUSH2 0x2797 JUMPI DUP3 SWAP1 SUB PUSH1 0x1F AND DUP3 ADD SWAP2 JUMPDEST POP POP POP POP POP DUP2 MSTORE PUSH1 0x20 ADD SWAP1 PUSH1 0x1 ADD SWAP1 PUSH2 0x271C JUMP JUMPDEST POP POP POP POP DUP2 MSTORE PUSH1 0x20 ADD PUSH1 0x8 DUP3 ADD SLOAD DUP2 MSTORE PUSH1 0x20 ADD PUSH1 0x9 DUP3 ADD SLOAD DUP2 MSTORE PUSH1 0x20 ADD PUSH1 0xA DUP3 ADD PUSH1 0x0 SWAP1 SLOAD SWAP1 PUSH2 0x100 EXP SWAP1 DIV PUSH1 0xFF AND ISZERO ISZERO ISZERO ISZERO DUP2 MSTORE PUSH1 0x20 ADD PUSH1 0xA DUP3 ADD PUSH1 0x1 SWAP1 SLOAD SWAP1 PUSH2 0x100 EXP SWAP1 DIV PUSH1 0xFF AND ISZERO ISZERO ISZERO ISZERO DUP2 MSTORE PUSH1 0x20 ADD PUSH1 0xB DUP3 ADD SLOAD DUP2 MSTORE PUSH1 0x20 ADD PUSH1 0xC DUP3 ADD DUP1 SLOAD DUP1 PUSH1 0x20 MUL PUSH1 0x20 ADD PUSH1 0x40 MLOAD SWAP1 DUP2 ADD PUSH1 0x40 MSTORE DUP1 SWAP3 SWAP2 SWAP1 DUP2 DUP2 MSTORE PUSH1 0x20 ADD PUSH1 0x0 SWAP1 JUMPDEST DUP3 DUP3 LT ISZERO PUSH2 0x2AC6 JUMPI DUP4 DUP3 SWAP1 PUSH1 0x0 MSTORE PUSH1 0x20 PUSH1 0x0 KECCAK256 SWAP1 PUSH1 0xB MUL ADD PUSH1 0x40 MLOAD DUP1 PUSH1 0xA0 ADD PUSH1 0x40 MSTORE SWAP1 DUP2 PUSH1 0x0 DUP3 ADD PUSH1 0x40 MLOAD DUP1 PUSH1 0xE0 ADD PUSH1 0x40 MSTORE SWAP1 DUP2 PUSH1 0x0 DUP3 ADD DUP1 SLOAD PUSH2 0x288C SWAP1 PUSH2 0x5B9A JUMP JUMPDEST DUP1 PUSH1 0x1F ADD PUSH1 0x20 DUP1 SWAP2 DIV MUL PUSH1 0x20 ADD PUSH1 0x40 MLOAD SWAP1 DUP2 ADD PUSH1 0x40 MSTORE DUP1 SWAP3 SWAP2 SWAP1 DUP2 DUP2 MSTORE PUSH1 0x20 ADD DUP3 DUP1 SLOAD PUSH2 0x28B8 SWAP1 PUSH2 0x5B9A JUMP JUMPDEST DUP1 ISZERO PUSH2 0x2905 JUMPI DUP1 PUSH1 0x1F LT PUSH2 0x28DA JUMPI PUSH2 0x100 DUP1 DUP4 SLOAD DIV MUL DUP4 MSTORE SWAP2 PUSH1 0x20 ADD SWAP2 PUSH2 0x2905 JUMP JUMPDEST DUP3 ADD SWAP2 SWAP1 PUSH1 0x0 MSTORE PUSH1 0x20 PUSH1 0x0 KECCAK256 SWAP1 JUMPDEST DUP2 SLOAD DUP2 MSTORE SWAP1 PUSH1 0x1 ADD SWAP1 PUSH1 0x20 ADD DUP1 DUP4 GT PUSH2 0x28E8 JUMPI DUP3 SWAP1 SUB PUSH1 0x1F AND DUP3 ADD SWAP2 JUMPDEST POP POP POP POP POP DUP2 MSTORE PUSH1 0x20 ADD PUSH1 0x1 DUP3 ADD SLOAD DUP2 MSTORE PUSH1 0x20 ADD PUSH1 0x2 DUP3 ADD SLOAD DUP2 MSTORE PUSH1 0x20 ADD PUSH1 0x3 DUP3 ADD SLOAD DUP2 MSTORE PUSH1 0x20 ADD PUSH1 0x4 DUP3 ADD SLOAD DUP2 MSTORE PUSH1 0x20 ADD PUSH1 0x5 DUP3 ADD SLOAD DUP2 MSTORE PUSH1 0x20 ADD PUSH1 0x6 DUP3 ADD DUP1 SLOAD PUSH2 0x2950 SWAP1 PUSH2 0x5B9A JUMP JUMPDEST DUP1 PUSH1 0x1F ADD PUSH1 0x20 DUP1 SWAP2 DIV MUL PUSH1 0x20 ADD PUSH1 0x40 MLOAD SWAP1 DUP2 ADD PUSH1 0x40 MSTORE DUP1 SWAP3 SWAP2 SWAP1 DUP2 DUP2 MSTORE PUSH1 0x20 ADD DUP3 DUP1 SLOAD PUSH2 0x297C SWAP1 PUSH2 0x5B9A JUMP JUMPDEST DUP1 ISZERO PUSH2 0x29C9 JUMPI DUP1 PUSH1 0x1F LT PUSH2 0x299E JUMPI PUSH2 0x100 DUP1 DUP4 SLOAD DIV MUL DUP4 MSTORE SWAP2 PUSH1 0x20 ADD SWAP2 PUSH2 0x29C9 JUMP JUMPDEST DUP3 ADD SWAP2 SWAP1 PUSH1 0x0 MSTORE PUSH1 0x20 PUSH1 0x0 KECCAK256 SWAP1 JUMPDEST DUP2 SLOAD DUP2 MSTORE SWAP1 PUSH1 0x1 ADD SWAP1 PUSH1 0x20 ADD DUP1 DUP4 GT PUSH2 0x29AC JUMPI DUP3 SWAP1 SUB PUSH1 0x1F AND DUP3 ADD SWAP2 JUMPDEST POP POP POP POP POP DUP2 MSTORE POP POP DUP2 MSTORE PUSH1 0x20 ADD PUSH1 0x7 DUP3 ADD SLOAD DUP2 MSTORE PUSH1 0x20 ADD PUSH1 0x8 DUP3 ADD DUP1 SLOAD PUSH2 0x29F0 SWAP1 PUSH2 0x5B9A JUMP JUMPDEST DUP1 PUSH1 0x1F ADD PUSH1 0x20 DUP1 SWAP2 DIV MUL PUSH1 0x20 ADD PUSH1 0x40 MLOAD SWAP1 DUP2 ADD PUSH1 0x40 MSTORE DUP1 SWAP3 SWAP2 SWAP1 DUP2 DUP2 MSTORE PUSH1 0x20 ADD DUP3 DUP1 SLOAD PUSH2 0x2A1C SWAP1 PUSH2 0x5B9A JUMP JUMPDEST DUP1 ISZERO PUSH2 0x2A69 JUMPI DUP1 PUSH1 0x1F LT PUSH2 0x2A3E JUMPI PUSH2 0x100 DUP1 DUP4 SLOAD DIV MUL DUP4 MSTORE SWAP2 PUSH1 0x20 ADD SWAP2 PUSH2 0x2A69 JUMP JUMPDEST DUP3 ADD SWAP2 SWAP1 PUSH1 0x0 MSTORE PUSH1 0x20 PUSH1 0x0 KECCAK256 SWAP1 JUMPDEST DUP2 SLOAD DUP2 MSTORE SWAP1 PUSH1 0x1 ADD SWAP1 PUSH1 0x20 ADD DUP1 DUP4 GT PUSH2 0x2A4C JUMPI DUP3 SWAP1 SUB PUSH1 0x1F AND DUP3 ADD SWAP2 JUMPDEST POP POP POP POP POP DUP2 MSTORE PUSH1 0x20 ADD PUSH1 0x9 DUP3 ADD PUSH1 0x0 SWAP1 SLOAD SWAP1 PUSH2 0x100 EXP SWAP1 DIV PUSH1 0xFF AND PUSH1 0x5 DUP2 GT ISZERO PUSH2 0x2A97 JUMPI PUSH2 0x2A96 PUSH2 0x5CA4 JUMP JUMPDEST JUMPDEST PUSH1 0x5 DUP2 GT ISZERO PUSH2 0x2AA9 JUMPI PUSH2 0x2AA8 PUSH2 0x5CA4 JUMP JUMPDEST JUMPDEST DUP2 MSTORE PUSH1 0x20 ADD PUSH1 0xA DUP3 ADD SLOAD DUP2 MSTORE POP POP DUP2 MSTORE PUSH1 0x20 ADD SWAP1 PUSH1 0x1 ADD SWAP1 PUSH2 0x2849 JUMP JUMPDEST POP POP POP POP DUP2 MSTORE PUSH1 0x20 ADD PUSH1 0xD DUP3 ADD DUP1 SLOAD DUP1 PUSH1 0x20 MUL PUSH1 0x20 ADD PUSH1 0x40 MLOAD SWAP1 DUP2 ADD PUSH1 0x40 MSTORE DUP1 SWAP3 SWAP2 SWAP1 DUP2 DUP2 MSTORE PUSH1 0x20 ADD PUSH1 0x0 SWAP1 JUMPDEST DUP3 DUP3 LT ISZERO PUSH2 0x2D39 JUMPI DUP4 DUP3 SWAP1 PUSH1 0x0 MSTORE PUSH1 0x20 PUSH1 0x0 KECCAK256 SWAP1 PUSH1 0x4 MUL ADD PUSH1 0x40 MLOAD DUP1 PUSH1 0x80 ADD PUSH1 0x40 MSTORE SWAP1 DUP2 PUSH1 0x0 DUP3 ADD PUSH1 0x0 SWAP1 SLOAD SWAP1 PUSH2 0x100 EXP SWAP1 DIV PUSH20 0xFFFFFFFFFFFFFFFFFFFFFFFFFFFFFFFFFFFFFFFF AND PUSH20 0xFFFFFFFFFFFFFFFFFFFFFFFFFFFFFFFFFFFFFFFF AND PUSH20 0xFFFFFFFFFFFFFFFFFFFFFFFFFFFFFFFFFFFFFFFF AND DUP2 MSTORE PUSH1 0x20 ADD PUSH1 0x1 DUP3 ADD DUP1 SLOAD DUP1 PUSH1 0x20 MUL PUSH1 0x20 ADD PUSH1 0x40 MLOAD SWAP1 DUP2 ADD PUSH1 0x40 MSTORE DUP1 SWAP3 SWAP2 SWAP1 DUP2 DUP2 MSTORE PUSH1 0x20 ADD DUP3 DUP1 SLOAD DUP1 ISZERO PUSH2 0x2BBB JUMPI PUSH1 0x20 MUL DUP3 ADD SWAP2 SWAP1 PUSH1 0x0 MSTORE PUSH1 0x20 PUSH1 0x0 KECCAK256 SWAP1 JUMPDEST DUP2 SLOAD DUP2 MSTORE PUSH1 0x20 ADD SWAP1 PUSH1 0x1 ADD SWAP1 DUP1 DUP4 GT PUSH2 0x2BA7 JUMPI JUMPDEST POP POP POP POP POP DUP2 MSTORE PUSH1 0x20 ADD PUSH1 0x2 DUP3 ADD DUP1 SLOAD DUP1 PUSH1 0x20 MUL PUSH1 0x20 ADD PUSH1 0x40 MLOAD SWAP1 DUP2 ADD PUSH1 0x40 MSTORE DUP1 SWAP3 SWAP2 SWAP1 DUP2 DUP2 MSTORE PUSH1 0x20 ADD DUP3 DUP1 SLOAD DUP1 ISZERO PUSH2 0x2C48 JUMPI PUSH1 0x20 MUL DUP3 ADD SWAP2 SWAP1 PUSH1 0x0 MSTORE PUSH1 0x20 PUSH1 0x0 KECCAK256 SWAP1 PUSH1 0x0 SWAP1 JUMPDEST DUP3 DUP3 SWAP1 SLOAD SWAP1 PUSH2 0x100 EXP SWAP1 DIV PUSH1 0xFF AND PUSH1 0x7 DUP2 GT ISZERO PUSH2 0x2C22 JUMPI PUSH2 0x2C21 PUSH2 0x5CA4 JUMP JUMPDEST JUMPDEST DUP2 MSTORE PUSH1 0x20 ADD SWAP1 PUSH1 0x1 ADD SWAP1 PUSH1 0x20 DUP3 PUSH1 0x0 ADD DIV SWAP3 DUP4 ADD SWAP3 PUSH1 0x1 SUB DUP3 MUL SWAP2 POP DUP1 DUP5 GT PUSH2 0x2C02 JUMPI SWAP1 POP JUMPDEST POP POP POP POP POP DUP2 MSTORE PUSH1 0x20 ADD PUSH1 0x3 DUP3 ADD DUP1 SLOAD DUP1 PUSH1 0x20 MUL PUSH1 0x20 ADD PUSH1 0x40 MLOAD SWAP1 DUP2 ADD PUSH1 0x40 MSTORE DUP1 SWAP3 SWAP2 SWAP1 DUP2 DUP2 MSTORE PUSH1 0x20 ADD PUSH1 0x0 SWAP1 JUMPDEST DUP3 DUP3 LT ISZERO PUSH2 0x2D22 JUMPI DUP4 DUP3 SWAP1 PUSH1 0x0 MSTORE PUSH1 0x20 PUSH1 0x0 KECCAK256 ADD DUP1 SLOAD PUSH2 0x2C95 SWAP1 PUSH2 0x5B9A JUMP JUMPDEST DUP1 PUSH1 0x1F ADD PUSH1 0x20 DUP1 SWAP2 DIV MUL PUSH1 0x20 ADD PUSH1 0x40 MLOAD SWAP1 DUP2 ADD PUSH1 0x40 MSTORE DUP1 SWAP3 SWAP2 SWAP1 DUP2 DUP2 MSTORE PUSH1 0x20 ADD DUP3 DUP1 SLOAD PUSH2 0x2CC1 SWAP1 PUSH2 0x5B9A JUMP JUMPDEST DUP1 ISZERO PUSH2 0x2D0E JUMPI DUP1 PUSH1 0x1F LT PUSH2 0x2CE3 JUMPI PUSH2 0x100 DUP1 DUP4 SLOAD DIV MUL DUP4 MSTORE SWAP2 PUSH1 0x20 ADD SWAP2 PUSH2 0x2D0E JUMP JUMPDEST DUP3 ADD SWAP2 SWAP1 PUSH1 0x0 MSTORE PUSH1 0x20 PUSH1 0x0 KECCAK256 SWAP1 JUMPDEST DUP2 SLOAD DUP2 MSTORE SWAP1 PUSH1 0x1 ADD SWAP1 PUSH1 0x20 ADD DUP1 DUP4 GT PUSH2 0x2CF1 JUMPI DUP3 SWAP1 SUB PUSH1 0x1F AND DUP3 ADD SWAP2 JUMPDEST POP POP POP POP POP DUP2 MSTORE PUSH1 0x20 ADD SWAP1 PUSH1 0x1 ADD SWAP1 PUSH2 0x2C76 JUMP JUMPDEST POP POP POP POP DUP2 MSTORE POP POP DUP2 MSTORE PUSH1 0x20 ADD SWAP1 PUSH1 0x1 ADD SWAP1 PUSH2 0x2AF3 JUMP JUMPDEST POP POP POP POP DUP2 MSTORE PUSH1 0x20 ADD PUSH1 0xE DUP3 ADD DUP1 SLOAD DUP1 PUSH1 0x20 MUL PUSH1 0x20 ADD PUSH1 0x40 MLOAD SWAP1 DUP2 ADD PUSH1 0x40 MSTORE DUP1 SWAP3 SWAP2 SWAP1 DUP2 DUP2 MSTORE PUSH1 0x20 ADD PUSH1 0x0 SWAP1 JUMPDEST DUP3 DUP3 LT ISZERO PUSH2 0x2FAC JUMPI DUP4 DUP3 SWAP1 PUSH1 0x0 MSTORE PUSH1 0x20 PUSH1 0x0 KECCAK256 SWAP1 PUSH1 0x4 MUL ADD PUSH1 0x40 MLOAD DUP1 PUSH1 0x80 ADD PUSH1 0x40 MSTORE SWAP1 DUP2 PUSH1 0x0 DUP3 ADD PUSH1 0x0 SWAP1 SLOAD SWAP1 PUSH2 0x100 EXP SWAP1 DIV PUSH20 0xFFFFFFFFFFFFFFFFFFFFFFFFFFFFFFFFFFFFFFFF AND PUSH20 0xFFFFFFFFFFFFFFFFFFFFFFFFFFFFFFFFFFFFFFFF AND PUSH20 0xFFFFFFFFFFFFFFFFFFFFFFFFFFFFFFFFFFFFFFFF AND DUP2 MSTORE PUSH1 0x20 ADD PUSH1 0x1 DUP3 ADD DUP1 SLOAD DUP1 PUSH1 0x20 MUL PUSH1 0x20 ADD PUSH1 0x40 MLOAD SWAP1 DUP2 ADD PUSH1 0x40 MSTORE DUP1 SWAP3 SWAP2 SWAP1 DUP2 DUP2 MSTORE PUSH1 0x20 ADD DUP3 DUP1 SLOAD DUP1 ISZERO PUSH2 0x2E2E JUMPI PUSH1 0x20 MUL DUP3 ADD SWAP2 SWAP1 PUSH1 0x0 MSTORE PUSH1 0x20 PUSH1 0x0 KECCAK256 SWAP1 JUMPDEST DUP2 SLOAD DUP2 MSTORE PUSH1 0x20 ADD SWAP1 PUSH1 0x1 ADD SWAP1 DUP1 DUP4 GT PUSH2 0x2E1A JUMPI JUMPDEST POP POP POP POP POP DUP2 MSTORE PUSH1 0x20 ADD PUSH1 0x2 DUP3 ADD DUP1 SLOAD DUP1 PUSH1 0x20 MUL PUSH1 0x20 ADD PUSH1 0x40 MLOAD SWAP1 DUP2 ADD PUSH1 0x40 MSTORE DUP1 SWAP3 SWAP2 SWAP1 DUP2 DUP2 MSTORE PUSH1 0x20 ADD DUP3 DUP1 SLOAD DUP1 ISZERO PUSH2 0x2EBB JUMPI PUSH1 0x20 MUL DUP3 ADD SWAP2 SWAP1 PUSH1 0x0 MSTORE PUSH1 0x20 PUSH1 0x0 KECCAK256 SWAP1 PUSH1 0x0 SWAP1 JUMPDEST DUP3 DUP3 SWAP1 SLOAD SWAP1 PUSH2 0x100 EXP SWAP1 DIV PUSH1 0xFF AND PUSH1 0x7 DUP2 GT ISZERO PUSH2 0x2E95 JUMPI PUSH2 0x2E94 PUSH2 0x5CA4 JUMP JUMPDEST JUMPDEST DUP2 MSTORE PUSH1 0x20 ADD SWAP1 PUSH1 0x1 ADD SWAP1 PUSH1 0x20 DUP3 PUSH1 0x0 ADD DIV SWAP3 DUP4 ADD SWAP3 PUSH1 0x1 SUB DUP3 MUL SWAP2 POP DUP1 DUP5 GT PUSH2 0x2E75 JUMPI SWAP1 POP JUMPDEST POP POP POP POP POP DUP2 MSTORE PUSH1 0x20 ADD PUSH1 0x3 DUP3 ADD DUP1 SLOAD DUP1 PUSH1 0x20 MUL PUSH1 0x20 ADD PUSH1 0x40 MLOAD SWAP1 DUP2 ADD PUSH1 0x40 MSTORE DUP1 SWAP3 SWAP2 SWAP1 DUP2 DUP2 MSTORE PUSH1 0x20 ADD PUSH1 0x0 SWAP1 JUMPDEST DUP3 DUP3 LT ISZERO PUSH2 0x2F95 JUMPI DUP4 DUP3 SWAP1 PUSH1 0x0 MSTORE PUSH1 0x20 PUSH1 0x0 KECCAK256 ADD DUP1 SLOAD PUSH2 0x2F08 SWAP1 PUSH2 0x5B9A JUMP JUMPDEST DUP1 PUSH1 0x1F ADD PUSH1 0x20 DUP1 SWAP2 DIV MUL PUSH1 0x20 ADD PUSH1 0x40 MLOAD SWAP1 DUP2 ADD PUSH1 0x40 MSTORE DUP1 SWAP3 SWAP2 SWAP1 DUP2 DUP2 MSTORE PUSH1 0x20 ADD DUP3 DUP1 SLOAD PUSH2 0x2F34 SWAP1 PUSH2 0x5B9A JUMP JUMPDEST DUP1 ISZERO PUSH2 0x2F81 JUMPI DUP1 PUSH1 0x1F LT PUSH2 0x2F56 JUMPI PUSH2 0x100 DUP1 DUP4 SLOAD DIV MUL DUP4 MSTORE SWAP2 PUSH1 0x20 ADD SWAP2 PUSH2 0x2F81 JUMP JUMPDEST DUP3 ADD SWAP2 SWAP1 PUSH1 0x0 MSTORE PUSH1 0x20 PUSH1 0x0 KECCAK256 SWAP1 JUMPDEST DUP2 SLOAD DUP2 MSTORE SWAP1 PUSH1 0x1 ADD SWAP1 PUSH1 0x20 ADD DUP1 DUP4 GT PUSH2 0x2F64 JUMPI DUP3 SWAP1 SUB PUSH1 0x1F AND DUP3 ADD SWAP2 JUMPDEST POP POP POP POP POP DUP2 MSTORE PUSH1 0x20 ADD SWAP1 PUSH1 0x1 ADD SWAP1 PUSH2 0x2EE9 JUMP JUMPDEST POP POP POP POP DUP2 MSTORE POP POP DUP2 MSTORE PUSH1 0x20 ADD SWAP1 PUSH1 0x1 ADD SWAP1 PUSH2 0x2D66 JUMP JUMPDEST POP POP POP POP DUP2 MSTORE PUSH1 0x20 ADD PUSH1 0xF DUP3 ADD SLOAD DUP2 MSTORE PUSH1 0x20 ADD PUSH1 0x10 DUP3 ADD SLOAD DUP2 MSTORE PUSH1 0x20 ADD PUSH1 0x11 DUP3 ADD PUSH1 0x0 SWAP1 SLOAD SWAP1 PUSH2 0x100 EXP SWAP1 DIV PUSH1 0xFF AND ISZERO ISZERO ISZERO ISZERO DUP2 MSTORE PUSH1 0x20 ADD PUSH1 0x11 DUP3 ADD PUSH1 0x1 SWAP1 SLOAD SWAP1 PUSH2 0x100 EXP SWAP1 DIV PUSH1 0xFF AND ISZERO ISZERO ISZERO ISZERO DUP2 MSTORE PUSH1 0x20 ADD PUSH1 0x11 DUP3 ADD PUSH1 0x2 SWAP1 SLOAD SWAP1 PUSH2 0x100 EXP SWAP1 DIV PUSH1 0xFF AND PUSH1 0x5 DUP2 GT ISZERO PUSH2 0x3023 JUMPI PUSH2 0x3022 PUSH2 0x5CA4 JUMP JUMPDEST JUMPDEST PUSH1 0x5 DUP2 GT ISZERO PUSH2 0x3035 JUMPI PUSH2 0x3034 PUSH2 0x5CA4 JUMP JUMPDEST JUMPDEST DUP2 MSTORE POP POP SWAP1 POP SWAP2 SWAP1 POP JUMP JUMPDEST PUSH1 0x0 DUP1 PUSH1 0x2 SLOAD DUP4 GT PUSH2 0x3055 JUMPI PUSH1 0x1 SWAP1 POP PUSH2 0x3064 JUMP JUMPDEST PUSH2 0x3061 DUP4 PUSH1 0x2 SLOAD PUSH2 0x3A3D JUMP JUMPDEST SWAP1 POP JUMPDEST DUP1 SWAP2 POP POP SWAP2 SWAP1 POP JUMP JUMPDEST PUSH2 0x3075 PUSH2 0x38FB JUMP JUMPDEST PUSH1 0x0 PUSH20 0xFFFFFFFFFFFFFFFFFFFFFFFFFFFFFFFFFFFFFFFF AND DUP2 PUSH20 0xFFFFFFFFFFFFFFFFFFFFFFFFFFFFFFFFFFFFFFFF AND EQ ISZERO PUSH2 0x30E5 JUMPI PUSH1 0x40 MLOAD PUSH32 0x8C379A000000000000000000000000000000000000000000000000000000000 DUP2 MSTORE PUSH1 0x4 ADD PUSH2 0x30DC SWAP1 PUSH2 0x53B2 JUMP JUMPDEST PUSH1 0x40 MLOAD DUP1 SWAP2 SUB SWAP1 REVERT JUMPDEST PUSH2 0x30EE DUP2 PUSH2 0x3979 JUMP JUMPDEST POP JUMP JUMPDEST PUSH1 0x0 PUSH2 0x30FB PUSH2 0x3A53 JUMP JUMPDEST PUSH1 0x0 PUSH1 0x3 PUSH1 0x0 PUSH1 0x4 SLOAD DUP2 MSTORE PUSH1 0x20 ADD SWAP1 DUP2 MSTORE PUSH1 0x20 ADD PUSH1 0x0 KECCAK256 SWAP1 POP DUP3 PUSH1 0x0 ADD MLOAD DUP2 PUSH1 0x1 ADD DUP2 SWAP1 SSTORE POP DUP3 PUSH1 0x20 ADD MLOAD DUP2 PUSH1 0x2 ADD SWAP1 DUP1 MLOAD SWAP1 PUSH1 0x20 ADD SWAP1 PUSH2 0x313D SWAP3 SWAP2 SWAP1 PUSH2 0x3CE6 JUMP JUMPDEST POP DUP3 PUSH1 0x40 ADD MLOAD DUP2 PUSH1 0x3 ADD SWAP1 DUP1 MLOAD SWAP1 PUSH1 0x20 ADD SWAP1 PUSH2 0x315A SWAP3 SWAP2 SWAP1 PUSH2 0x3CE6 JUMP JUMPDEST POP DUP3 PUSH1 0x60 ADD MLOAD DUP2 PUSH1 0x4 ADD DUP2 SWAP1 SSTORE POP DUP3 PUSH1 0x80 ADD MLOAD DUP2 PUSH1 0x5 ADD SWAP1 DUP1 MLOAD SWAP1 PUSH1 0x20 ADD SWAP1 PUSH2 0x3184 SWAP3 SWAP2 SWAP1 PUSH2 0x3CE6 JUMP JUMPDEST POP DUP3 PUSH1 0xA0 ADD MLOAD DUP2 PUSH1 0x6 ADD SWAP1 DUP1 MLOAD SWAP1 PUSH1 0x20 ADD SWAP1 PUSH2 0x31A1 SWAP3 SWAP2 SWAP1 PUSH2 0x3CE6 JUMP JUMPDEST POP DUP3 PUSH1 0xC0 ADD MLOAD DUP2 PUSH1 0x7 ADD SWAP1 DUP1 MLOAD SWAP1 PUSH1 0x20 ADD SWAP1 PUSH2 0x31BE SWAP3 SWAP2 SWAP1 PUSH2 0x3C86 JUMP JUMPDEST POP DUP3 PUSH1 0xE0 ADD MLOAD DUP2 PUSH1 0x8 ADD DUP2 SWAP1 SSTORE POP DUP3 PUSH2 0x100 ADD MLOAD DUP2 PUSH1 0x9 ADD DUP2 SWAP1 SSTORE POP DUP3 PUSH2 0x160 ADD MLOAD DUP2 PUSH1 0xB ADD DUP2 SWAP1 SSTORE POP DUP3 PUSH2 0x120 ADD MLOAD DUP2 PUSH1 0xA ADD PUSH1 0x0 PUSH2 0x100 EXP DUP2 SLOAD DUP2 PUSH1 0xFF MUL NOT AND SWAP1 DUP4 ISZERO ISZERO MUL OR SWAP1 SSTORE POP DUP3 PUSH2 0x140 ADD MLOAD DUP2 PUSH1 0xA ADD PUSH1 0x1 PUSH2 0x100 EXP DUP2 SLOAD DUP2 PUSH1 0xFF MUL NOT AND SWAP1 DUP4 ISZERO ISZERO MUL OR SWAP1 SSTORE POP PUSH1 0x0 DUP2 PUSH1 0x11 ADD PUSH1 0x2 PUSH2 0x100 EXP DUP2 SLOAD DUP2 PUSH1 0xFF MUL NOT AND SWAP1 DUP4 PUSH1 0x5 DUP2 GT ISZERO PUSH2 0x3252 JUMPI PUSH2 0x3251 PUSH2 0x5CA4 JUMP JUMPDEST JUMPDEST MUL OR SWAP1 SSTORE POP DUP3 PUSH2 0x1A0 ADD MLOAD DUP2 PUSH1 0xF ADD DUP2 SWAP1 SSTORE POP DUP3 PUSH2 0x1C0 ADD MLOAD DUP2 PUSH1 0x10 ADD DUP2 SWAP1 SSTORE POP PUSH1 0x1 DUP2 PUSH1 0x11 ADD PUSH1 0x0 PUSH2 0x100 EXP DUP2 SLOAD DUP2 PUSH1 0xFF MUL NOT AND SWAP1 DUP4 ISZERO ISZERO MUL OR SWAP1 SSTORE POP PUSH1 0x1 DUP2 PUSH1 0x11 ADD PUSH1 0x1 PUSH2 0x100 EXP DUP2 SLOAD DUP2 PUSH1 0xFF MUL NOT AND SWAP1 DUP4 ISZERO ISZERO MUL OR SWAP1 SSTORE POP PUSH1 0x0 DUP2 PUSH1 0x11 ADD PUSH1 0x2 PUSH2 0x100 EXP DUP2 SLOAD DUP2 PUSH1 0xFF MUL NOT AND SWAP1 DUP4 PUSH1 0x5 DUP2 GT ISZERO PUSH2 0x32D5 JUMPI PUSH2 0x32D4 PUSH2 0x5CA4 JUMP JUMPDEST JUMPDEST MUL OR SWAP1 SSTORE POP PUSH1 0x0 JUMPDEST DUP4 PUSH2 0x180 ADD MLOAD MLOAD DUP2 LT ISZERO PUSH2 0x3425 JUMPI DUP2 PUSH1 0xC ADD DUP5 PUSH2 0x180 ADD MLOAD DUP3 DUP2 MLOAD DUP2 LT PUSH2 0x3307 JUMPI PUSH2 0x3306 PUSH2 0x5D02 JUMP JUMPDEST JUMPDEST PUSH1 0x20 MUL PUSH1 0x20 ADD ADD MLOAD SWAP1 DUP1 PUSH1 0x1 DUP2 SLOAD ADD DUP1 DUP3 SSTORE DUP1 SWAP2 POP POP PUSH1 0x1 SWAP1 SUB SWAP1 PUSH1 0x0 MSTORE PUSH1 0x20 PUSH1 0x0 KECCAK256 SWAP1 PUSH1 0xB MUL ADD PUSH1 0x0 SWAP1 SWAP2 SWAP1 SWAP2 SWAP1 SWAP2 POP PUSH1 0x0 DUP3 ADD MLOAD DUP2 PUSH1 0x0 ADD PUSH1 0x0 DUP3 ADD MLOAD DUP2 PUSH1 0x0 ADD SWAP1 DUP1 MLOAD SWAP1 PUSH1 0x20 ADD SWAP1 PUSH2 0x335D SWAP3 SWAP2 SWAP1 PUSH2 0x3CE6 JUMP JUMPDEST POP PUSH1 0x20 DUP3 ADD MLOAD DUP2 PUSH1 0x1 ADD SSTORE PUSH1 0x40 DUP3 ADD MLOAD DUP2 PUSH1 0x2 ADD SSTORE PUSH1 0x60 DUP3 ADD MLOAD DUP2 PUSH1 0x3 ADD SSTORE PUSH1 0x80 DUP3 ADD MLOAD DUP2 PUSH1 0x4 ADD SSTORE PUSH1 0xA0 DUP3 ADD MLOAD DUP2 PUSH1 0x5 ADD SSTORE PUSH1 0xC0 DUP3 ADD MLOAD DUP2 PUSH1 0x6 ADD SWAP1 DUP1 MLOAD SWAP1 PUSH1 0x20 ADD SWAP1 PUSH2 0x33AC SWAP3 SWAP2 SWAP1 PUSH2 0x3CE6 JUMP JUMPDEST POP POP POP PUSH1 0x20 DUP3 ADD MLOAD DUP2 PUSH1 0x7 ADD SSTORE PUSH1 0x40 DUP3 ADD MLOAD DUP2 PUSH1 0x8 ADD SWAP1 DUP1 MLOAD SWAP1 PUSH1 0x20 ADD SWAP1 PUSH2 0x33D5 SWAP3 SWAP2 SWAP1 PUSH2 0x3CE6 JUMP JUMPDEST POP PUSH1 0x60 DUP3 ADD MLOAD DUP2 PUSH1 0x9 ADD PUSH1 0x0 PUSH2 0x100 EXP DUP2 SLOAD DUP2 PUSH1 0xFF MUL NOT AND SWAP1 DUP4 PUSH1 0x5 DUP2 GT ISZERO PUSH2 0x3401 JUMPI PUSH2 0x3400 PUSH2 0x5CA4 JUMP JUMPDEST JUMPDEST MUL OR SWAP1 SSTORE POP PUSH1 0x80 DUP3 ADD MLOAD DUP2 PUSH1 0xA ADD SSTORE POP POP DUP1 DUP1 PUSH2 0x341D SWAP1 PUSH2 0x5BFD JUMP JUMPDEST SWAP2 POP POP PUSH2 0x32DD JUMP JUMPDEST POP PUSH32 0xFD989D3BAABD6A3C76AE101E9A8037EAD1322140A770842A81514F7515E9D81E CALLER PUSH1 0x4 SLOAD DUP6 PUSH1 0x40 MLOAD PUSH2 0x345B SWAP4 SWAP3 SWAP2 SWAP1 PUSH2 0x5359 JUMP JUMPDEST PUSH1 0x40 MLOAD DUP1 SWAP2 SUB SWAP1 LOG1 PUSH1 0x4 SLOAD SWAP2 POP POP SWAP2 SWAP1 POP JUMP JUMPDEST PUSH1 0x0 DUP1 PUSH1 0x3 PUSH1 0x0 DUP5 DUP2 MSTORE PUSH1 0x20 ADD SWAP1 DUP2 MSTORE PUSH1 0x20 ADD PUSH1 0x0 KECCAK256 PUSH1 0xE ADD DUP1 SLOAD DUP1 PUSH1 0x20 MUL PUSH1 0x20 ADD PUSH1 0x40 MLOAD SWAP1 DUP2 ADD PUSH1 0x40 MSTORE DUP1 SWAP3 SWAP2 SWAP1 DUP2 DUP2 MSTORE PUSH1 0x20 ADD PUSH1 0x0 SWAP1 JUMPDEST DUP3 DUP3 LT ISZERO PUSH2 0x36ED JUMPI DUP4 DUP3 SWAP1 PUSH1 0x0 MSTORE PUSH1 0x20 PUSH1 0x0 KECCAK256 SWAP1 PUSH1 0x4 MUL ADD PUSH1 0x40 MLOAD DUP1 PUSH1 0x80 ADD PUSH1 0x40 MSTORE SWAP1 DUP2 PUSH1 0x0 DUP3 ADD PUSH1 0x0 SWAP1 SLOAD SWAP1 PUSH2 0x100 EXP SWAP1 DIV PUSH20 0xFFFFFFFFFFFFFFFFFFFFFFFFFFFFFFFFFFFFFFFF AND PUSH20 0xFFFFFFFFFFFFFFFFFFFFFFFFFFFFFFFFFFFFFFFF AND PUSH20 0xFFFFFFFFFFFFFFFFFFFFFFFFFFFFFFFFFFFFFFFF AND DUP2 MSTORE PUSH1 0x20 ADD PUSH1 0x1 DUP3 ADD DUP1 SLOAD DUP1 PUSH1 0x20 MUL PUSH1 0x20 ADD PUSH1 0x40 MLOAD SWAP1 DUP2 ADD PUSH1 0x40 MSTORE DUP1 SWAP3 SWAP2 SWAP1 DUP2 DUP2 MSTORE PUSH1 0x20 ADD DUP3 DUP1 SLOAD DUP1 ISZERO PUSH2 0x356F JUMPI PUSH1 0x20 MUL DUP3 ADD SWAP2 SWAP1 PUSH1 0x0 MSTORE PUSH1 0x20 PUSH1 0x0 KECCAK256 SWAP1 JUMPDEST DUP2 SLOAD DUP2 MSTORE PUSH1 0x20 ADD SWAP1 PUSH1 0x1 ADD SWAP1 DUP1 DUP4 GT PUSH2 0x355B JUMPI JUMPDEST POP POP POP POP POP DUP2 MSTORE PUSH1 0x20 ADD PUSH1 0x2 DUP3 ADD DUP1 SLOAD DUP1 PUSH1 0x20 MUL PUSH1 0x20 ADD PUSH1 0x40 MLOAD SWAP1 DUP2 ADD PUSH1 0x40 MSTORE DUP1 SWAP3 SWAP2 SWAP1 DUP2 DUP2 MSTORE PUSH1 0x20 ADD DUP3 DUP1 SLOAD DUP1 ISZERO PUSH2 0x35FC JUMPI PUSH1 0x20 MUL DUP3 ADD SWAP2 SWAP1 PUSH1 0x0 MSTORE PUSH1 0x20 PUSH1 0x0 KECCAK256 SWAP1 PUSH1 0x0 SWAP1 JUMPDEST DUP3 DUP3 SWAP1 SLOAD SWAP1 PUSH2 0x100 EXP SWAP1 DIV PUSH1 0xFF AND PUSH1 0x7 DUP2 GT ISZERO PUSH2 0x35D6 JUMPI PUSH2 0x35D5 PUSH2 0x5CA4 JUMP JUMPDEST JUMPDEST DUP2 MSTORE PUSH1 0x20 ADD SWAP1 PUSH1 0x1 ADD SWAP1 PUSH1 0x20 DUP3 PUSH1 0x0 ADD DIV SWAP3 DUP4 ADD SWAP3 PUSH1 0x1 SUB DUP3 MUL SWAP2 POP DUP1 DUP5 GT PUSH2 0x35B6 JUMPI SWAP1 POP JUMPDEST POP POP POP POP POP DUP2 MSTORE PUSH1 0x20 ADD PUSH1 0x3 DUP3 ADD DUP1 SLOAD DUP1 PUSH1 0x20 MUL PUSH1 0x20 ADD PUSH1 0x40 MLOAD SWAP1 DUP2 ADD PUSH1 0x40 MSTORE DUP1 SWAP3 SWAP2 SWAP1 DUP2 DUP2 MSTORE PUSH1 0x20 ADD PUSH1 0x0 SWAP1 JUMPDEST DUP3 DUP3 LT ISZERO PUSH2 0x36D6 JUMPI DUP4 DUP3 SWAP1 PUSH1 0x0 MSTORE PUSH1 0x20 PUSH1 0x0 KECCAK256 ADD DUP1 SLOAD PUSH2 0x3649 SWAP1 PUSH2 0x5B9A JUMP JUMPDEST DUP1 PUSH1 0x1F ADD PUSH1 0x20 DUP1 SWAP2 DIV MUL PUSH1 0x20 ADD PUSH1 0x40 MLOAD SWAP1 DUP2 ADD PUSH1 0x40 MSTORE DUP1 SWAP3 SWAP2 SWAP1 DUP2 DUP2 MSTORE PUSH1 0x20 ADD DUP3 DUP1 SLOAD PUSH2 0x3675 SWAP1 PUSH2 0x5B9A JUMP JUMPDEST DUP1 ISZERO PUSH2 0x36C2 JUMPI DUP1 PUSH1 0x1F LT PUSH2 0x3697 JUMPI PUSH2 0x100 DUP1 DUP4 SLOAD DIV MUL DUP4 MSTORE SWAP2 PUSH1 0x20 ADD SWAP2 PUSH2 0x36C2 JUMP JUMPDEST DUP3 ADD SWAP2 SWAP1 PUSH1 0x0 MSTORE PUSH1 0x20 PUSH1 0x0 KECCAK256 SWAP1 JUMPDEST DUP2 SLOAD DUP2 MSTORE SWAP1 PUSH1 0x1 ADD SWAP1 PUSH1 0x20 ADD DUP1 DUP4 GT PUSH2 0x36A5 JUMPI DUP3 SWAP1 SUB PUSH1 0x1F AND DUP3 ADD SWAP2 JUMPDEST POP POP POP POP POP DUP2 MSTORE PUSH1 0x20 ADD SWAP1 PUSH1 0x1 ADD SWAP1 PUSH2 0x362A JUMP JUMPDEST POP POP POP POP DUP2 MSTORE POP POP DUP2 MSTORE PUSH1 0x20 ADD SWAP1 PUSH1 0x1 ADD SWAP1 PUSH2 0x34A7 JUMP JUMPDEST POP POP POP POP SWAP1 POP PUSH1 0x0 DUP1 PUSH1 0x0 SWAP1 POP JUMPDEST DUP3 MLOAD DUP2 LT ISZERO PUSH2 0x3744 JUMPI DUP3 DUP2 DUP2 MLOAD DUP2 LT PUSH2 0x3717 JUMPI PUSH2 0x3716 PUSH2 0x5D02 JUMP JUMPDEST JUMPDEST PUSH1 0x20 MUL PUSH1 0x20 ADD ADD MLOAD PUSH1 0x20 ADD MLOAD MLOAD DUP3 PUSH2 0x372F SWAP2 SWAP1 PUSH2 0x59E6 JUMP JUMPDEST SWAP2 POP DUP1 DUP1 PUSH2 0x373C SWAP1 PUSH2 0x5BFD JUMP JUMPDEST SWAP2 POP POP PUSH2 0x36FB JUMP JUMPDEST POP DUP1 SWAP3 POP POP POP SWAP2 SWAP1 POP JUMP JUMPDEST DUP4 PUSH1 0x0 ISZERO ISZERO PUSH1 0x3 PUSH1 0x0 DUP4 DUP2 MSTORE PUSH1 0x20 ADD SWAP1 DUP2 MSTORE PUSH1 0x20 ADD PUSH1 0x0 KECCAK256 PUSH1 0x11 ADD PUSH1 0x0 SWAP1 SLOAD SWAP1 PUSH2 0x100 EXP SWAP1 DIV PUSH1 0xFF AND ISZERO ISZERO EQ DUP1 PUSH2 0x3794 JUMPI POP PUSH1 0x1 ISZERO ISZERO PUSH2 0x3790 DUP3 PUSH1 0x1 PUSH2 0x1302 JUMP JUMPDEST ISZERO ISZERO EQ JUMPDEST ISZERO PUSH2 0x37D6 JUMPI DUP1 PUSH1 0x40 MLOAD PUSH32 0xA0F2FA6E00000000000000000000000000000000000000000000000000000000 DUP2 MSTORE PUSH1 0x4 ADD PUSH2 0x37CD SWAP2 SWAP1 PUSH2 0x5412 JUMP JUMPDEST PUSH1 0x40 MLOAD DUP1 SWAP2 SUB SWAP1 REVERT JUMPDEST PUSH1 0x0 PUSH1 0x3 PUSH1 0x0 DUP8 DUP2 MSTORE PUSH1 0x20 ADD SWAP1 DUP2 MSTORE PUSH1 0x20 ADD PUSH1 0x0 KECCAK256 PUSH1 0xD ADD DUP5 DUP2 SLOAD DUP2 LT PUSH2 0x3800 JUMPI PUSH2 0x37FF PUSH2 0x5D02 JUMP JUMPDEST JUMPDEST SWAP1 PUSH1 0x0 MSTORE PUSH1 0x20 PUSH1 0x0 KECCAK256 SWAP1 PUSH1 0x4 MUL ADD SWAP1 POP DUP1 PUSH1 0x1 ADD DUP6 SWAP1 DUP1 PUSH1 0x1 DUP2 SLOAD ADD DUP1 DUP3 SSTORE DUP1 SWAP2 POP POP PUSH1 0x1 SWAP1 SUB SWAP1 PUSH1 0x0 MSTORE PUSH1 0x20 PUSH1 0x0 KECCAK256 ADD PUSH1 0x0 SWAP1 SWAP2 SWAP1 SWAP2 SWAP1 SWAP2 POP SSTORE PUSH32 0x42464F2A0157D4CE4C9F85BF5CB19BFD2F20F71A6BF72E9F0B026828B82D0421 DUP7 DUP7 DUP7 DUP7 PUSH1 0x40 MLOAD PUSH2 0x3870 SWAP5 SWAP4 SWAP3 SWAP2 SWAP1 PUSH2 0x5759 JUMP JUMPDEST PUSH1 0x40 MLOAD DUP1 SWAP2 SUB SWAP1 LOG1 POP POP POP POP POP POP JUMP JUMPDEST DUP1 PUSH1 0x3 PUSH1 0x0 DUP5 DUP2 MSTORE PUSH1 0x20 ADD SWAP1 DUP2 MSTORE PUSH1 0x20 ADD PUSH1 0x0 KECCAK256 PUSH1 0x11 ADD PUSH1 0x2 PUSH2 0x100 EXP DUP2 SLOAD DUP2 PUSH1 0xFF MUL NOT AND SWAP1 DUP4 PUSH1 0x5 DUP2 GT ISZERO PUSH2 0x38B9 JUMPI PUSH2 0x38B8 PUSH2 0x5CA4 JUMP JUMPDEST JUMPDEST MUL OR SWAP1 SSTORE POP PUSH32 0xF05815FDE2BEB683B051C459B8261ED061C1164C5E53F2BE389201D754BB311E DUP3 DUP3 PUSH1 0x40 MLOAD PUSH2 0x38EF SWAP3 SWAP2 SWAP1 PUSH2 0x559A JUMP JUMPDEST PUSH1 0x40 MLOAD DUP1 SWAP2 SUB SWAP1 LOG1 POP POP JUMP JUMPDEST PUSH2 0x3903 PUSH2 0x3A6D JUMP JUMPDEST PUSH20 0xFFFFFFFFFFFFFFFFFFFFFFFFFFFFFFFFFFFFFFFF AND PUSH2 0x3921 PUSH2 0x1352 JUMP JUMPDEST PUSH20 0xFFFFFFFFFFFFFFFFFFFFFFFFFFFFFFFFFFFFFFFF AND EQ PUSH2 0x3977 JUMPI PUSH1 0x40 MLOAD PUSH32 0x8C379A000000000000000000000000000000000000000000000000000000000 DUP2 MSTORE PUSH1 0x4 ADD PUSH2 0x396E SWAP1 PUSH2 0x53F2 JUMP JUMPDEST PUSH1 0x40 MLOAD DUP1 SWAP2 SUB SWAP1 REVERT JUMPDEST JUMP JUMPDEST PUSH1 0x0 DUP1 PUSH1 0x0 SWAP1 SLOAD SWAP1 PUSH2 0x100 EXP SWAP1 DIV PUSH20 0xFFFFFFFFFFFFFFFFFFFFFFFFFFFFFFFFFFFFFFFF AND SWAP1 POP DUP2 PUSH1 0x0 DUP1 PUSH2 0x100 EXP DUP2 SLOAD DUP2 PUSH20 0xFFFFFFFFFFFFFFFFFFFFFFFFFFFFFFFFFFFFFFFF MUL NOT AND SWAP1 DUP4 PUSH20 0xFFFFFFFFFFFFFFFFFFFFFFFFFFFFFFFFFFFFFFFF AND MUL OR SWAP1 SSTORE POP DUP2 PUSH20 0xFFFFFFFFFFFFFFFFFFFFFFFFFFFFFFFFFFFFFFFF AND DUP2 PUSH20 0xFFFFFFFFFFFFFFFFFFFFFFFFFFFFFFFFFFFFFFFF AND PUSH32 0x8BE0079C531659141344CD1FD0A4F28419497F9722A3DAAFE3B4186F6B6457E0 PUSH1 0x40 MLOAD PUSH1 0x40 MLOAD DUP1 SWAP2 SUB SWAP1 LOG3 POP POP JUMP JUMPDEST PUSH1 0x0 DUP2 DUP4 PUSH2 0x3A4B SWAP2 SWAP1 PUSH2 0x5A3C JUMP JUMPDEST SWAP1 POP SWAP3 SWAP2 POP POP JUMP JUMPDEST PUSH1 0x4 PUSH1 0x0 DUP2 SLOAD DUP1 SWAP3 SWAP2 SWAP1 PUSH2 0x3A66 SWAP1 PUSH2 0x5BFD JUMP JUMPDEST SWAP2 SWAP1 POP SSTORE POP JUMP JUMPDEST PUSH1 0x0 CALLER SWAP1 POP SWAP1 JUMP JUMPDEST PUSH1 0x40 MLOAD DUP1 PUSH2 0x2A0 ADD PUSH1 0x40 MSTORE DUP1 PUSH1 0x0 PUSH20 0xFFFFFFFFFFFFFFFFFFFFFFFFFFFFFFFFFFFFFFFF AND DUP2 MSTORE PUSH1 0x20 ADD PUSH1 0x0 DUP2 MSTORE PUSH1 0x20 ADD PUSH1 0x60 DUP2 MSTORE PUSH1 0x20 ADD PUSH1 0x60 DUP2 MSTORE PUSH1 0x20 ADD PUSH1 0x0 DUP2 MSTORE PUSH1 0x20 ADD PUSH1 0x60 DUP2 MSTORE PUSH1 0x20 ADD PUSH1 0x60 DUP2 MSTORE PUSH1 0x20 ADD PUSH1 0x60 DUP2 MSTORE PUSH1 0x20 ADD PUSH1 0x0 DUP2 MSTORE PUSH1 0x20 ADD PUSH1 0x0 DUP2 MSTORE PUSH1 0x20 ADD PUSH1 0x0 ISZERO ISZERO DUP2 MSTORE PUSH1 0x20 ADD PUSH1 0x0 ISZERO ISZERO DUP2 MSTORE PUSH1 0x20 ADD PUSH1 0x0 DUP2 MSTORE PUSH1 0x20 ADD PUSH1 0x60 DUP2 MSTORE PUSH1 0x20 ADD PUSH1 0x60 DUP2 MSTORE PUSH1 0x20 ADD PUSH1 0x60 DUP2 MSTORE PUSH1 0x20 ADD PUSH1 0x0 DUP2 MSTORE PUSH1 0x20 ADD PUSH1 0x0 DUP2 MSTORE PUSH1 0x20 ADD PUSH1 0x0 ISZERO ISZERO DUP2 MSTORE PUSH1 0x20 ADD PUSH1 0x0 ISZERO ISZERO DUP2 MSTORE PUSH1 0x20 ADD PUSH1 0x0 PUSH1 0x5 DUP2 GT ISZERO PUSH2 0x3B3F JUMPI PUSH2 0x3B3E PUSH2 0x5CA4 JUMP JUMPDEST JUMPDEST DUP2 MSTORE POP SWAP1 JUMP JUMPDEST PUSH1 0x40 MLOAD DUP1 PUSH1 0x80 ADD PUSH1 0x40 MSTORE DUP1 PUSH1 0x0 PUSH20 0xFFFFFFFFFFFFFFFFFFFFFFFFFFFFFFFFFFFFFFFF AND DUP2 MSTORE PUSH1 0x20 ADD PUSH1 0x60 DUP2 MSTORE PUSH1 0x20 ADD PUSH1 0x60 DUP2 MSTORE PUSH1 0x20 ADD PUSH1 0x60 DUP2 MSTORE POP SWAP1 JUMP JUMPDEST DUP3 DUP1 SLOAD DUP3 DUP3 SSTORE SWAP1 PUSH1 0x0 MSTORE PUSH1 0x20 PUSH1 0x0 KECCAK256 SWAP1 DUP2 ADD SWAP3 DUP3 ISZERO PUSH2 0x3BBF JUMPI SWAP2 PUSH1 0x20 MUL DUP3 ADD JUMPDEST DUP3 DUP2 GT ISZERO PUSH2 0x3BBE JUMPI DUP3 MLOAD DUP3 SSTORE SWAP2 PUSH1 0x20 ADD SWAP2 SWAP1 PUSH1 0x1 ADD SWAP1 PUSH2 0x3BA3 JUMP JUMPDEST JUMPDEST POP SWAP1 POP PUSH2 0x3BCC SWAP2 SWAP1 PUSH2 0x3D6C JUMP JUMPDEST POP SWAP1 JUMP JUMPDEST DUP3 DUP1 SLOAD DUP3 DUP3 SSTORE SWAP1 PUSH1 0x0 MSTORE PUSH1 0x20 PUSH1 0x0 KECCAK256 SWAP1 PUSH1 0x1F ADD PUSH1 0x20 SWAP1 DIV DUP2 ADD SWAP3 DUP3 ISZERO PUSH2 0x3C75 JUMPI SWAP2 PUSH1 0x20 MUL DUP3 ADD PUSH1 0x0 JUMPDEST DUP4 DUP3 GT ISZERO PUSH2 0x3C46 JUMPI DUP4 MLOAD DUP4 DUP3 PUSH2 0x100 EXP DUP2 SLOAD DUP2 PUSH1 0xFF MUL NOT AND SWAP1 DUP4 PUSH1 0x7 DUP2 GT ISZERO PUSH2 0x3C25 JUMPI PUSH2 0x3C24 PUSH2 0x5CA4 JUMP JUMPDEST JUMPDEST MUL OR SWAP1 SSTORE POP SWAP3 PUSH1 0x20 ADD SWAP3 PUSH1 0x1 ADD PUSH1 0x20 DUP2 PUSH1 0x0 ADD DIV SWAP3 DUP4 ADD SWAP3 PUSH1 0x1 SUB MUL PUSH2 0x3BF9 JUMP JUMPDEST DUP1 ISZERO PUSH2 0x3C73 JUMPI DUP3 DUP2 PUSH2 0x100 EXP DUP2 SLOAD SWAP1 PUSH1 0xFF MUL NOT AND SWAP1 SSTORE PUSH1 0x1 ADD PUSH1 0x20 DUP2 PUSH1 0x0 ADD DIV SWAP3 DUP4 ADD SWAP3 PUSH1 0x1 SUB MUL PUSH2 0x3C46 JUMP JUMPDEST POP JUMPDEST POP SWAP1 POP PUSH2 0x3C82 SWAP2 SWAP1 PUSH2 0x3D6C JUMP JUMPDEST POP SWAP1 JUMP JUMPDEST DUP3 DUP1 SLOAD DUP3 DUP3 SSTORE SWAP1 PUSH1 0x0 MSTORE PUSH1 0x20 PUSH1 0x0 KECCAK256 SWAP1 DUP2 ADD SWAP3 DUP3 ISZERO PUSH2 0x3CD5 JUMPI SWAP2 PUSH1 0x20 MUL DUP3 ADD JUMPDEST DUP3 DUP2 GT ISZERO PUSH2 0x3CD4 JUMPI DUP3 MLOAD DUP3 SWAP1 DUP1 MLOAD SWAP1 PUSH1 0x20 ADD SWAP1 PUSH2 0x3CC4 SWAP3 SWAP2 SWAP1 PUSH2 0x3CE6 JUMP JUMPDEST POP SWAP2 PUSH1 0x20 ADD SWAP2 SWAP1 PUSH1 0x1 ADD SWAP1 PUSH2 0x3CA6 JUMP JUMPDEST JUMPDEST POP SWAP1 POP PUSH2 0x3CE2 SWAP2 SWAP1 PUSH2 0x3D89 JUMP JUMPDEST POP SWAP1 JUMP JUMPDEST DUP3 DUP1 SLOAD PUSH2 0x3CF2 SWAP1 PUSH2 0x5B9A JUMP JUMPDEST SWAP1 PUSH1 0x0 MSTORE PUSH1 0x20 PUSH1 0x0 KECCAK256 SWAP1 PUSH1 0x1F ADD PUSH1 0x20 SWAP1 DIV DUP2 ADD SWAP3 DUP3 PUSH2 0x3D14 JUMPI PUSH1 0x0 DUP6 SSTORE PUSH2 0x3D5B JUMP JUMPDEST DUP3 PUSH1 0x1F LT PUSH2 0x3D2D JUMPI DUP1 MLOAD PUSH1 0xFF NOT AND DUP4 DUP1 ADD OR DUP6 SSTORE PUSH2 0x3D5B JUMP JUMPDEST DUP3 DUP1 ADD PUSH1 0x1 ADD DUP6 SSTORE DUP3 ISZERO PUSH2 0x3D5B JUMPI SWAP2 DUP3 ADD JUMPDEST DUP3 DUP2 GT ISZERO PUSH2 0x3D5A JUMPI DUP3 MLOAD DUP3 SSTORE SWAP2 PUSH1 0x20 ADD SWAP2 SWAP1 PUSH1 0x1 ADD SWAP1 PUSH2 0x3D3F JUMP JUMPDEST JUMPDEST POP SWAP1 POP PUSH2 0x3D68 SWAP2 SWAP1 PUSH2 0x3D6C JUMP JUMPDEST POP SWAP1 JUMP JUMPDEST JUMPDEST DUP1 DUP3 GT ISZERO PUSH2 0x3D85 JUMPI PUSH1 0x0 DUP2 PUSH1 0x0 SWAP1 SSTORE POP PUSH1 0x1 ADD PUSH2 0x3D6D JUMP JUMPDEST POP SWAP1 JUMP JUMPDEST JUMPDEST DUP1 DUP3 GT ISZERO PUSH2 0x3DA9 JUMPI PUSH1 0x0 DUP2 DUP2 PUSH2 0x3DA0 SWAP2 SWAP1 PUSH2 0x3DAD JUMP JUMPDEST POP PUSH1 0x1 ADD PUSH2 0x3D8A JUMP JUMPDEST POP SWAP1 JUMP JUMPDEST POP DUP1 SLOAD PUSH2 0x3DB9 SWAP1 PUSH2 0x5B9A JUMP JUMPDEST PUSH1 0x0 DUP3 SSTORE DUP1 PUSH1 0x1F LT PUSH2 0x3DCB JUMPI POP PUSH2 0x3DEA JUMP JUMPDEST PUSH1 0x1F ADD PUSH1 0x20 SWAP1 DIV SWAP1 PUSH1 0x0 MSTORE PUSH1 0x20 PUSH1 0x0 KECCAK256 SWAP1 DUP2 ADD SWAP1 PUSH2 0x3DE9 SWAP2 SWAP1 PUSH2 0x3D6C JUMP JUMPDEST JUMPDEST POP JUMP JUMPDEST PUSH1 0x0 PUSH2 0x3E00 PUSH2 0x3DFB DUP5 PUSH2 0x57D6 JUMP JUMPDEST PUSH2 0x57B1 JUMP JUMPDEST SWAP1 POP DUP1 DUP4 DUP3 MSTORE PUSH1 0x20 DUP3 ADD SWAP1 POP DUP3 DUP6 PUSH1 0x20 DUP7 MUL DUP3 ADD GT ISZERO PUSH2 0x3E23 JUMPI PUSH2 0x3E22 PUSH2 0x5D6F JUMP JUMPDEST JUMPDEST PUSH1 0x0 JUMPDEST DUP6 DUP2 LT ISZERO PUSH2 0x3E71 JUMPI DUP2 CALLDATALOAD PUSH8 0xFFFFFFFFFFFFFFFF DUP2 GT ISZERO PUSH2 0x3E49 JUMPI PUSH2 0x3E48 PUSH2 0x5D60 JUMP JUMPDEST JUMPDEST DUP1 DUP7 ADD PUSH2 0x3E56 DUP10 DUP3 PUSH2 0x40AE JUMP JUMPDEST DUP6 MSTORE PUSH1 0x20 DUP6 ADD SWAP5 POP PUSH1 0x20 DUP5 ADD SWAP4 POP POP POP PUSH1 0x1 DUP2 ADD SWAP1 POP PUSH2 0x3E26 JUMP JUMPDEST POP POP POP SWAP4 SWAP3 POP POP POP JUMP JUMPDEST PUSH1 0x0 PUSH2 0x3E8E PUSH2 0x3E89 DUP5 PUSH2 0x5802 JUMP JUMPDEST PUSH2 0x57B1 JUMP JUMPDEST SWAP1 POP DUP1 DUP4 DUP3 MSTORE PUSH1 0x20 DUP3 ADD SWAP1 POP DUP3 DUP6 PUSH1 0x20 DUP7 MUL DUP3 ADD GT ISZERO PUSH2 0x3EB1 JUMPI PUSH2 0x3EB0 PUSH2 0x5D6F JUMP JUMPDEST JUMPDEST PUSH1 0x0 JUMPDEST DUP6 DUP2 LT ISZERO PUSH2 0x3EFF JUMPI DUP2 CALLDATALOAD PUSH8 0xFFFFFFFFFFFFFFFF DUP2 GT ISZERO PUSH2 0x3ED7 JUMPI PUSH2 0x3ED6 PUSH2 0x5D60 JUMP JUMPDEST JUMPDEST DUP1 DUP7 ADD PUSH2 0x3EE4 DUP10 DUP3 PUSH2 0x43D4 JUMP JUMPDEST DUP6 MSTORE PUSH1 0x20 DUP6 ADD SWAP5 POP PUSH1 0x20 DUP5 ADD SWAP4 POP POP POP PUSH1 0x1 DUP2 ADD SWAP1 POP PUSH2 0x3EB4 JUMP JUMPDEST POP POP POP SWAP4 SWAP3 POP POP POP JUMP JUMPDEST PUSH1 0x0 PUSH2 0x3F1C PUSH2 0x3F17 DUP5 PUSH2 0x582E JUMP JUMPDEST PUSH2 0x57B1 JUMP JUMPDEST SWAP1 POP DUP1 DUP4 DUP3 MSTORE PUSH1 0x20 DUP3 ADD SWAP1 POP DUP3 DUP6 PUSH1 0x20 DUP7 MUL DUP3 ADD GT ISZERO PUSH2 0x3F3F JUMPI PUSH2 0x3F3E PUSH2 0x5D6F JUMP JUMPDEST JUMPDEST PUSH1 0x0 JUMPDEST DUP6 DUP2 LT ISZERO PUSH2 0x3F6F JUMPI DUP2 PUSH2 0x3F55 DUP9 DUP3 PUSH2 0x4498 JUMP JUMPDEST DUP5 MSTORE PUSH1 0x20 DUP5 ADD SWAP4 POP PUSH1 0x20 DUP4 ADD SWAP3 POP POP PUSH1 0x1 DUP2 ADD SWAP1 POP PUSH2 0x3F42 JUMP JUMPDEST POP POP POP SWAP4 SWAP3 POP POP POP JUMP JUMPDEST PUSH1 0x0 PUSH2 0x3F8C PUSH2 0x3F87 DUP5 PUSH2 0x585A JUMP JUMPDEST PUSH2 0x57B1 JUMP JUMPDEST SWAP1 POP DUP3 DUP2 MSTORE PUSH1 0x20 DUP2 ADD DUP5 DUP5 DUP5 ADD GT ISZERO PUSH2 0x3FA8 JUMPI PUSH2 0x3FA7 PUSH2 0x5D74 JUMP JUMPDEST JUMPDEST PUSH2 0x3FB3 DUP5 DUP3 DUP6 PUSH2 0x5B58 JUMP JUMPDEST POP SWAP4 SWAP3 POP POP POP JUMP JUMPDEST PUSH1 0x0 DUP2 CALLDATALOAD SWAP1 POP PUSH2 0x3FCA DUP2 PUSH2 0x5F8D JUMP JUMPDEST SWAP3 SWAP2 POP POP JUMP JUMPDEST PUSH1 0x0 DUP3 PUSH1 0x1F DUP4 ADD SLT PUSH2 0x3FE5 JUMPI PUSH2 0x3FE4 PUSH2 0x5D60 JUMP JUMPDEST JUMPDEST DUP2 CALLDATALOAD PUSH2 0x3FF5 DUP5 DUP3 PUSH1 0x20 DUP7 ADD PUSH2 0x3DED JUMP JUMPDEST SWAP2 POP POP SWAP3 SWAP2 POP POP JUMP JUMPDEST PUSH1 0x0 DUP3 PUSH1 0x1F DUP4 ADD SLT PUSH2 0x4013 JUMPI PUSH2 0x4012 PUSH2 0x5D60 JUMP JUMPDEST JUMPDEST DUP2 CALLDATALOAD PUSH2 0x4023 DUP5 DUP3 PUSH1 0x20 DUP7 ADD PUSH2 0x3E7B JUMP JUMPDEST SWAP2 POP POP SWAP3 SWAP2 POP POP JUMP JUMPDEST PUSH1 0x0 DUP3 PUSH1 0x1F DUP4 ADD SLT PUSH2 0x4041 JUMPI PUSH2 0x4040 PUSH2 0x5D60 JUMP JUMPDEST JUMPDEST DUP2 CALLDATALOAD PUSH2 0x4051 DUP5 DUP3 PUSH1 0x20 DUP7 ADD PUSH2 0x3F09 JUMP JUMPDEST SWAP2 POP POP SWAP3 SWAP2 POP POP JUMP JUMPDEST PUSH1 0x0 DUP2 CALLDATALOAD SWAP1 POP PUSH2 0x4069 DUP2 PUSH2 0x5FA4 JUMP JUMPDEST SWAP3 SWAP2 POP POP JUMP JUMPDEST PUSH1 0x0 DUP2 CALLDATALOAD SWAP1 POP PUSH2 0x407E DUP2 PUSH2 0x5FBB JUMP JUMPDEST SWAP3 SWAP2 POP POP JUMP JUMPDEST PUSH1 0x0 DUP2 CALLDATALOAD SWAP1 POP PUSH2 0x4093 DUP2 PUSH2 0x5FCB JUMP JUMPDEST SWAP3 SWAP2 POP POP JUMP JUMPDEST PUSH1 0x0 DUP2 CALLDATALOAD SWAP1 POP PUSH2 0x40A8 DUP2 PUSH2 0x5FDB JUMP JUMPDEST SWAP3 SWAP2 POP POP JUMP JUMPDEST PUSH1 0x0 DUP3 PUSH1 0x1F DUP4 ADD SLT PUSH2 0x40C3 JUMPI PUSH2 0x40C2 PUSH2 0x5D60 JUMP JUMPDEST JUMPDEST DUP2 CALLDATALOAD PUSH2 0x40D3 DUP5 DUP3 PUSH1 0x20 DUP7 ADD PUSH2 0x3F79 JUMP JUMPDEST SWAP2 POP POP SWAP3 SWAP2 POP POP JUMP JUMPDEST PUSH1 0x0 PUSH1 0xE0 DUP3 DUP5 SUB SLT ISZERO PUSH2 0x40F2 JUMPI PUSH2 0x40F1 PUSH2 0x5D65 JUMP JUMPDEST JUMPDEST PUSH2 0x40FC PUSH1 0xE0 PUSH2 0x57B1 JUMP JUMPDEST SWAP1 POP PUSH1 0x0 DUP3 ADD CALLDATALOAD PUSH8 0xFFFFFFFFFFFFFFFF DUP2 GT ISZERO PUSH2 0x411C JUMPI PUSH2 0x411B PUSH2 0x5D6A JUMP JUMPDEST JUMPDEST PUSH2 0x4128 DUP5 DUP3 DUP6 ADD PUSH2 0x40AE JUMP JUMPDEST PUSH1 0x0 DUP4 ADD MSTORE POP PUSH1 0x20 PUSH2 0x413C DUP5 DUP3 DUP6 ADD PUSH2 0x4498 JUMP JUMPDEST PUSH1 0x20 DUP4 ADD MSTORE POP PUSH1 0x40 PUSH2 0x4150 DUP5 DUP3 DUP6 ADD PUSH2 0x4498 JUMP JUMPDEST PUSH1 0x40 DUP4 ADD MSTORE POP PUSH1 0x60 PUSH2 0x4164 DUP5 DUP3 DUP6 ADD PUSH2 0x4498 JUMP JUMPDEST PUSH1 0x60 DUP4 ADD MSTORE POP PUSH1 0x80 PUSH2 0x4178 DUP5 DUP3 DUP6 ADD PUSH2 0x4498 JUMP JUMPDEST PUSH1 0x80 DUP4 ADD MSTORE POP PUSH1 0xA0 PUSH2 0x418C DUP5 DUP3 DUP6 ADD PUSH2 0x4498 JUMP JUMPDEST PUSH1 0xA0 DUP4 ADD MSTORE POP PUSH1 0xC0 DUP3 ADD CALLDATALOAD PUSH8 0xFFFFFFFFFFFFFFFF DUP2 GT ISZERO PUSH2 0x41B0 JUMPI PUSH2 0x41AF PUSH2 0x5D6A JUMP JUMPDEST JUMPDEST PUSH2 0x41BC DUP5 DUP3 DUP6 ADD PUSH2 0x40AE JUMP JUMPDEST PUSH1 0xC0 DUP4 ADD MSTORE POP SWAP3 SWAP2 POP POP JUMP JUMPDEST PUSH1 0x0 PUSH2 0x1E0 DUP3 DUP5 SUB SLT ISZERO PUSH2 0x41DF JUMPI PUSH2 0x41DE PUSH2 0x5D65 JUMP JUMPDEST JUMPDEST PUSH2 0x41EA PUSH2 0x1E0 PUSH2 0x57B1 JUMP JUMPDEST SWAP1 POP PUSH1 0x0 PUSH2 0x41FA DUP5 DUP3 DUP6 ADD PUSH2 0x4498 JUMP JUMPDEST PUSH1 0x0 DUP4 ADD MSTORE POP PUSH1 0x20 DUP3 ADD CALLDATALOAD PUSH8 0xFFFFFFFFFFFFFFFF DUP2 GT ISZERO PUSH2 0x421E JUMPI PUSH2 0x421D PUSH2 0x5D6A JUMP JUMPDEST JUMPDEST PUSH2 0x422A DUP5 DUP3 DUP6 ADD PUSH2 0x40AE JUMP JUMPDEST PUSH1 0x20 DUP4 ADD MSTORE POP PUSH1 0x40 DUP3 ADD CALLDATALOAD PUSH8 0xFFFFFFFFFFFFFFFF DUP2 GT ISZERO PUSH2 0x424E JUMPI PUSH2 0x424D PUSH2 0x5D6A JUMP JUMPDEST JUMPDEST PUSH2 0x425A DUP5 DUP3 DUP6 ADD PUSH2 0x40AE JUMP JUMPDEST PUSH1 0x40 DUP4 ADD MSTORE POP PUSH1 0x60 PUSH2 0x426E DUP5 DUP3 DUP6 ADD PUSH2 0x4498 JUMP JUMPDEST PUSH1 0x60 DUP4 ADD MSTORE POP PUSH1 0x80 DUP3 ADD CALLDATALOAD PUSH8 0xFFFFFFFFFFFFFFFF DUP2 GT ISZERO PUSH2 0x4292 JUMPI PUSH2 0x4291 PUSH2 0x5D6A JUMP JUMPDEST JUMPDEST PUSH2 0x429E DUP5 DUP3 DUP6 ADD PUSH2 0x40AE JUMP JUMPDEST PUSH1 0x80 DUP4 ADD MSTORE POP PUSH1 0xA0 DUP3 ADD CALLDATALOAD PUSH8 0xFFFFFFFFFFFFFFFF DUP2 GT ISZERO PUSH2 0x42C2 JUMPI PUSH2 0x42C1 PUSH2 0x5D6A JUMP JUMPDEST JUMPDEST PUSH2 0x42CE DUP5 DUP3 DUP6 ADD PUSH2 0x40AE JUMP JUMPDEST PUSH1 0xA0 DUP4 ADD MSTORE POP PUSH1 0xC0 DUP3 ADD CALLDATALOAD PUSH8 0xFFFFFFFFFFFFFFFF DUP2 GT ISZERO PUSH2 0x42F2 JUMPI PUSH2 0x42F1 PUSH2 0x5D6A JUMP JUMPDEST JUMPDEST PUSH2 0x42FE DUP5 DUP3 DUP6 ADD PUSH2 0x3FD0 JUMP JUMPDEST PUSH1 0xC0 DUP4 ADD MSTORE POP PUSH1 0xE0 PUSH2 0x4312 DUP5 DUP3 DUP6 ADD PUSH2 0x4498 JUMP JUMPDEST PUSH1 0xE0 DUP4 ADD MSTORE POP PUSH2 0x100 PUSH2 0x4327 DUP5 DUP3 DUP6 ADD PUSH2 0x4498 JUMP JUMPDEST PUSH2 0x100 DUP4 ADD MSTORE POP PUSH2 0x120 PUSH2 0x433D DUP5 DUP3 DUP6 ADD PUSH2 0x405A JUMP JUMPDEST PUSH2 0x120 DUP4 ADD MSTORE POP PUSH2 0x140 PUSH2 0x4353 DUP5 DUP3 DUP6 ADD PUSH2 0x405A JUMP JUMPDEST PUSH2 0x140 DUP4 ADD MSTORE POP PUSH2 0x160 PUSH2 0x4369 DUP5 DUP3 DUP6 ADD PUSH2 0x4498 JUMP JUMPDEST PUSH2 0x160 DUP4 ADD MSTORE POP PUSH2 0x180 DUP3 ADD CALLDATALOAD PUSH8 0xFFFFFFFFFFFFFFFF DUP2 GT ISZERO PUSH2 0x438F JUMPI PUSH2 0x438E PUSH2 0x5D6A JUMP JUMPDEST JUMPDEST PUSH2 0x439B DUP5 DUP3 DUP6 ADD PUSH2 0x3FFE JUMP JUMPDEST PUSH2 0x180 DUP4 ADD MSTORE POP PUSH2 0x1A0 PUSH2 0x43B1 DUP5 DUP3 DUP6 ADD PUSH2 0x4498 JUMP JUMPDEST PUSH2 0x1A0 DUP4 ADD MSTORE POP PUSH2 0x1C0 PUSH2 0x43C7 DUP5 DUP3 DUP6 ADD PUSH2 0x4498 JUMP JUMPDEST PUSH2 0x1C0 DUP4 ADD MSTORE POP SWAP3 SWAP2 POP POP JUMP JUMPDEST PUSH1 0x0 PUSH1 0xA0 DUP3 DUP5 SUB SLT ISZERO PUSH2 0x43EA JUMPI PUSH2 0x43E9 PUSH2 0x5D65 JUMP JUMPDEST JUMPDEST PUSH2 0x43F4 PUSH1 0xA0 PUSH2 0x57B1 JUMP JUMPDEST SWAP1 POP PUSH1 0x0 DUP3 ADD CALLDATALOAD PUSH8 0xFFFFFFFFFFFFFFFF DUP2 GT ISZERO PUSH2 0x4414 JUMPI PUSH2 0x4413 PUSH2 0x5D6A JUMP JUMPDEST JUMPDEST PUSH2 0x4420 DUP5 DUP3 DUP6 ADD PUSH2 0x40DC JUMP JUMPDEST PUSH1 0x0 DUP4 ADD MSTORE POP PUSH1 0x20 PUSH2 0x4434 DUP5 DUP3 DUP6 ADD PUSH2 0x4498 JUMP JUMPDEST PUSH1 0x20 DUP4 ADD MSTORE POP PUSH1 0x40 DUP3 ADD CALLDATALOAD PUSH8 0xFFFFFFFFFFFFFFFF DUP2 GT ISZERO PUSH2 0x4458 JUMPI PUSH2 0x4457 PUSH2 0x5D6A JUMP JUMPDEST JUMPDEST PUSH2 0x4464 DUP5 DUP3 DUP6 ADD PUSH2 0x40AE JUMP JUMPDEST PUSH1 0x40 DUP4 ADD MSTORE POP PUSH1 0x60 PUSH2 0x4478 DUP5 DUP3 DUP6 ADD PUSH2 0x406F JUMP JUMPDEST PUSH1 0x60 DUP4 ADD MSTORE POP PUSH1 0x80 PUSH2 0x448C DUP5 DUP3 DUP6 ADD PUSH2 0x4498 JUMP JUMPDEST PUSH1 0x80 DUP4 ADD MSTORE POP SWAP3 SWAP2 POP POP JUMP JUMPDEST PUSH1 0x0 DUP2 CALLDATALOAD SWAP1 POP PUSH2 0x44A7 DUP2 PUSH2 0x5FEB JUMP JUMPDEST SWAP3 SWAP2 POP POP JUMP JUMPDEST PUSH1 0x0 PUSH1 0x20 DUP3 DUP5 SUB SLT ISZERO PUSH2 0x44C3 JUMPI PUSH2 0x44C2 PUSH2 0x5D7E JUMP JUMPDEST JUMPDEST PUSH1 0x0 PUSH2 0x44D1 DUP5 DUP3 DUP6 ADD PUSH2 0x3FBB JUMP JUMPDEST SWAP2 POP POP SWAP3 SWAP2 POP POP JUMP JUMPDEST PUSH1 0x0 PUSH1 0x20 DUP3 DUP5 SUB SLT ISZERO PUSH2 0x44F0 JUMPI PUSH2 0x44EF PUSH2 0x5D7E JUMP JUMPDEST JUMPDEST PUSH1 0x0 DUP3 ADD CALLDATALOAD PUSH8 0xFFFFFFFFFFFFFFFF DUP2 GT ISZERO PUSH2 0x450E JUMPI PUSH2 0x450D PUSH2 0x5D79 JUMP JUMPDEST JUMPDEST PUSH2 0x451A DUP5 DUP3 DUP6 ADD PUSH2 0x41C8 JUMP JUMPDEST SWAP2 POP POP SWAP3 SWAP2 POP POP JUMP JUMPDEST PUSH1 0x0 PUSH1 0x20 DUP3 DUP5 SUB SLT ISZERO PUSH2 0x4539 JUMPI PUSH2 0x4538 PUSH2 0x5D7E JUMP JUMPDEST JUMPDEST PUSH1 0x0 PUSH2 0x4547 DUP5 DUP3 DUP6 ADD PUSH2 0x4498 JUMP JUMPDEST SWAP2 POP POP SWAP3 SWAP2 POP POP JUMP JUMPDEST PUSH1 0x0 DUP1 PUSH1 0x0 DUP1 PUSH1 0x80 DUP6 DUP8 SUB SLT ISZERO PUSH2 0x456A JUMPI PUSH2 0x4569 PUSH2 0x5D7E JUMP JUMPDEST JUMPDEST PUSH1 0x0 PUSH2 0x4578 DUP8 DUP3 DUP9 ADD PUSH2 0x4498 JUMP JUMPDEST SWAP5 POP POP PUSH1 0x20 DUP6 ADD CALLDATALOAD PUSH8 0xFFFFFFFFFFFFFFFF DUP2 GT ISZERO PUSH2 0x4599 JUMPI PUSH2 0x4598 PUSH2 0x5D79 JUMP JUMPDEST JUMPDEST PUSH2 0x45A5 DUP8 DUP3 DUP9 ADD PUSH2 0x402C JUMP JUMPDEST SWAP4 POP POP PUSH1 0x40 PUSH2 0x45B6 DUP8 DUP3 DUP9 ADD PUSH2 0x4498 JUMP JUMPDEST SWAP3 POP POP PUSH1 0x60 PUSH2 0x45C7 DUP8 DUP3 DUP9 ADD PUSH2 0x3FBB JUMP JUMPDEST SWAP2 POP POP SWAP3 SWAP6 SWAP2 SWAP5 POP SWAP3 POP JUMP JUMPDEST PUSH1 0x0 DUP1 PUSH1 0x40 DUP4 DUP6 SUB SLT ISZERO PUSH2 0x45EA JUMPI PUSH2 0x45E9 PUSH2 0x5D7E JUMP JUMPDEST JUMPDEST PUSH1 0x0 PUSH2 0x45F8 DUP6 DUP3 DUP7 ADD PUSH2 0x4498 JUMP JUMPDEST SWAP3 POP POP PUSH1 0x20 PUSH2 0x4609 DUP6 DUP3 DUP7 ADD PUSH2 0x405A JUMP JUMPDEST SWAP2 POP POP SWAP3 POP SWAP3 SWAP1 POP JUMP JUMPDEST PUSH1 0x0 DUP1 PUSH1 0x40 DUP4 DUP6 SUB SLT ISZERO PUSH2 0x462A JUMPI PUSH2 0x4629 PUSH2 0x5D7E JUMP JUMPDEST JUMPDEST PUSH1 0x0 PUSH2 0x4638 DUP6 DUP3 DUP7 ADD PUSH2 0x4498 JUMP JUMPDEST SWAP3 POP POP PUSH1 0x20 PUSH2 0x4649 DUP6 DUP3 DUP7 ADD PUSH2 0x4084 JUMP JUMPDEST SWAP2 POP POP SWAP3 POP SWAP3 SWAP1 POP JUMP JUMPDEST PUSH1 0x0 DUP1 PUSH1 0x40 DUP4 DUP6 SUB SLT ISZERO PUSH2 0x466A JUMPI PUSH2 0x4669 PUSH2 0x5D7E JUMP JUMPDEST JUMPDEST PUSH1 0x0 PUSH2 0x4678 DUP6 DUP3 DUP7 ADD PUSH2 0x4498 JUMP JUMPDEST SWAP3 POP POP PUSH1 0x20 DUP4 ADD CALLDATALOAD PUSH8 0xFFFFFFFFFFFFFFFF DUP2 GT ISZERO PUSH2 0x4699 JUMPI PUSH2 0x4698 PUSH2 0x5D79 JUMP JUMPDEST JUMPDEST PUSH2 0x46A5 DUP6 DUP3 DUP7 ADD PUSH2 0x41C8 JUMP JUMPDEST SWAP2 POP POP SWAP3 POP SWAP3 SWAP1 POP JUMP JUMPDEST PUSH1 0x0 DUP1 PUSH1 0x0 PUSH1 0x60 DUP5 DUP7 SUB SLT ISZERO PUSH2 0x46C8 JUMPI PUSH2 0x46C7 PUSH2 0x5D7E JUMP JUMPDEST JUMPDEST PUSH1 0x0 PUSH2 0x46D6 DUP7 DUP3 DUP8 ADD PUSH2 0x4498 JUMP JUMPDEST SWAP4 POP POP PUSH1 0x20 PUSH2 0x46E7 DUP7 DUP3 DUP8 ADD PUSH2 0x4498 JUMP JUMPDEST SWAP3 POP POP PUSH1 0x40 PUSH2 0x46F8 DUP7 DUP3 DUP8 ADD PUSH2 0x406F JUMP JUMPDEST SWAP2 POP POP SWAP3 POP SWAP3 POP SWAP3 JUMP JUMPDEST PUSH1 0x0 DUP1 PUSH1 0x0 DUP1 PUSH1 0x80 DUP6 DUP8 SUB SLT ISZERO PUSH2 0x471C JUMPI PUSH2 0x471B PUSH2 0x5D7E JUMP JUMPDEST JUMPDEST PUSH1 0x0 PUSH2 0x472A DUP8 DUP3 DUP9 ADD PUSH2 0x4498 JUMP JUMPDEST SWAP5 POP POP PUSH1 0x20 PUSH2 0x473B DUP8 DUP3 DUP9 ADD PUSH2 0x4498 JUMP JUMPDEST SWAP4 POP POP PUSH1 0x40 PUSH2 0x474C DUP8 DUP3 DUP9 ADD PUSH2 0x4498 JUMP JUMPDEST SWAP3 POP POP PUSH1 0x60 PUSH2 0x475D DUP8 DUP3 DUP9 ADD PUSH2 0x3FBB JUMP JUMPDEST SWAP2 POP POP SWAP3 SWAP6 SWAP2 SWAP5 POP SWAP3 POP JUMP JUMPDEST PUSH1 0x0 DUP1 PUSH1 0x0 DUP1 PUSH1 0x0 PUSH1 0xA0 DUP7 DUP9 SUB SLT ISZERO PUSH2 0x4785 JUMPI PUSH2 0x4784 PUSH2 0x5D7E JUMP JUMPDEST JUMPDEST PUSH1 0x0 PUSH2 0x4793 DUP9 DUP3 DUP10 ADD PUSH2 0x4498 JUMP JUMPDEST SWAP6 POP POP PUSH1 0x20 PUSH2 0x47A4 DUP9 DUP3 DUP10 ADD PUSH2 0x4498 JUMP JUMPDEST SWAP5 POP POP PUSH1 0x40 PUSH2 0x47B5 DUP9 DUP3 DUP10 ADD PUSH2 0x4498 JUMP JUMPDEST SWAP4 POP POP PUSH1 0x60 PUSH2 0x47C6 DUP9 DUP3 DUP10 ADD PUSH2 0x4099 JUMP JUMPDEST SWAP3 POP POP PUSH1 0x80 PUSH2 0x47D7 DUP9 DUP3 DUP10 ADD PUSH2 0x405A JUMP JUMPDEST SWAP2 POP POP SWAP3 SWAP6 POP SWAP3 SWAP6 SWAP1 SWAP4 POP JUMP JUMPDEST PUSH1 0x0 DUP1 PUSH1 0x0 DUP1 PUSH1 0x0 PUSH1 0xA0 DUP7 DUP9 SUB SLT ISZERO PUSH2 0x4800 JUMPI PUSH2 0x47FF PUSH2 0x5D7E JUMP JUMPDEST JUMPDEST PUSH1 0x0 PUSH2 0x480E DUP9 DUP3 DUP10 ADD PUSH2 0x4498 JUMP JUMPDEST SWAP6 POP POP PUSH1 0x20 PUSH2 0x481F DUP9 DUP3 DUP10 ADD PUSH2 0x4498 JUMP JUMPDEST SWAP5 POP POP PUSH1 0x40 PUSH2 0x4830 DUP9 DUP3 DUP10 ADD PUSH2 0x4498 JUMP JUMPDEST SWAP4 POP POP PUSH1 0x60 DUP7 ADD CALLDATALOAD PUSH8 0xFFFFFFFFFFFFFFFF DUP2 GT ISZERO PUSH2 0x4851 JUMPI PUSH2 0x4850 PUSH2 0x5D79 JUMP JUMPDEST JUMPDEST PUSH2 0x485D DUP9 DUP3 DUP10 ADD PUSH2 0x40AE JUMP JUMPDEST SWAP3 POP POP PUSH1 0x80 PUSH2 0x486E DUP9 DUP3 DUP10 ADD PUSH2 0x405A JUMP JUMPDEST SWAP2 POP POP SWAP3 SWAP6 POP SWAP3 SWAP6 SWAP1 SWAP4 POP JUMP JUMPDEST PUSH1 0x0 PUSH2 0x4887 DUP4 DUP4 PUSH2 0x4BD8 JUMP JUMPDEST PUSH1 0x20 DUP4 ADD SWAP1 POP SWAP3 SWAP2 POP POP JUMP JUMPDEST PUSH1 0x0 PUSH2 0x489F DUP4 DUP4 PUSH2 0x4BF6 JUMP JUMPDEST SWAP1 POP SWAP3 SWAP2 POP POP JUMP JUMPDEST PUSH1 0x0 PUSH2 0x48B3 DUP4 DUP4 PUSH2 0x4FAC JUMP JUMPDEST SWAP1 POP SWAP3 SWAP2 POP POP JUMP JUMPDEST PUSH1 0x0 PUSH2 0x48C7 DUP4 DUP4 PUSH2 0x5029 JUMP JUMPDEST SWAP1 POP SWAP3 SWAP2 POP POP JUMP JUMPDEST PUSH1 0x0 PUSH2 0x48DB DUP4 DUP4 PUSH2 0x528C JUMP JUMPDEST PUSH1 0x20 DUP4 ADD SWAP1 POP SWAP3 SWAP2 POP POP JUMP JUMPDEST PUSH2 0x48F0 DUP2 PUSH2 0x5AA1 JUMP JUMPDEST DUP3 MSTORE POP POP JUMP JUMPDEST PUSH2 0x48FF DUP2 PUSH2 0x5AA1 JUMP JUMPDEST DUP3 MSTORE POP POP JUMP JUMPDEST PUSH1 0x0 PUSH2 0x4910 DUP3 PUSH2 0x58DB JUMP JUMPDEST PUSH2 0x491A DUP2 DUP6 PUSH2 0x59B3 JUMP JUMPDEST SWAP4 POP PUSH2 0x4925 DUP4 PUSH2 0x588B JUMP JUMPDEST DUP1 PUSH1 0x0 JUMPDEST DUP4 DUP2 LT ISZERO PUSH2 0x4956 JUMPI DUP2 MLOAD PUSH2 0x493D DUP9 DUP3 PUSH2 0x487B JUMP JUMPDEST SWAP8 POP PUSH2 0x4948 DUP4 PUSH2 0x591D JUMP JUMPDEST SWAP3 POP POP PUSH1 0x1 DUP2 ADD SWAP1 POP PUSH2 0x4929 JUMP JUMPDEST POP DUP6 SWAP4 POP POP POP POP SWAP3 SWAP2 POP POP JUMP JUMPDEST PUSH1 0x0 PUSH2 0x496E DUP3 PUSH2 0x58E6 JUMP JUMPDEST PUSH2 0x4978 DUP2 DUP6 PUSH2 0x595E JUMP JUMPDEST SWAP4 POP DUP4 PUSH1 0x20 DUP3 MUL DUP6 ADD PUSH2 0x498A DUP6 PUSH2 0x589B JUMP JUMPDEST DUP1 PUSH1 0x0 JUMPDEST DUP6 DUP2 LT ISZERO PUSH2 0x49C6 JUMPI DUP5 DUP5 SUB DUP10 MSTORE DUP2 MLOAD PUSH2 0x49A7 DUP6 DUP3 PUSH2 0x4893 JUMP JUMPDEST SWAP5 POP PUSH2 0x49B2 DUP4 PUSH2 0x592A JUMP JUMPDEST SWAP3 POP PUSH1 0x20 DUP11 ADD SWAP10 POP POP PUSH1 0x1 DUP2 ADD SWAP1 POP PUSH2 0x498E JUMP JUMPDEST POP DUP3 SWAP8 POP DUP8 SWAP6 POP POP POP POP POP POP SWAP3 SWAP2 POP POP JUMP JUMPDEST PUSH1 0x0 PUSH2 0x49E3 DUP3 PUSH2 0x58F1 JUMP JUMPDEST PUSH2 0x49ED DUP2 DUP6 PUSH2 0x596F JUMP JUMPDEST SWAP4 POP DUP4 PUSH1 0x20 DUP3 MUL DUP6 ADD PUSH2 0x49FF DUP6 PUSH2 0x58AB JUMP JUMPDEST DUP1 PUSH1 0x0 JUMPDEST DUP6 DUP2 LT ISZERO PUSH2 0x4A3B JUMPI DUP5 DUP5 SUB DUP10 MSTORE DUP2 MLOAD PUSH2 0x4A1C DUP6 DUP3 PUSH2 0x48A7 JUMP JUMPDEST SWAP5 POP PUSH2 0x4A27 DUP4 PUSH2 0x5937 JUMP JUMPDEST SWAP3 POP PUSH1 0x20 DUP11 ADD SWAP10 POP POP PUSH1 0x1 DUP2 ADD SWAP1 POP PUSH2 0x4A03 JUMP JUMPDEST POP DUP3 SWAP8 POP DUP8 SWAP6 POP POP POP POP POP POP SWAP3 SWAP2 POP POP JUMP JUMPDEST PUSH1 0x0 PUSH2 0x4A58 DUP3 PUSH2 0x58FC JUMP JUMPDEST PUSH2 0x4A62 DUP2 DUP6 PUSH2 0x5980 JUMP JUMPDEST SWAP4 POP DUP4 PUSH1 0x20 DUP3 MUL DUP6 ADD PUSH2 0x4A74 DUP6 PUSH2 0x58BB JUMP JUMPDEST DUP1 PUSH1 0x0 JUMPDEST DUP6 DUP2 LT ISZERO PUSH2 0x4AB0 JUMPI DUP5 DUP5 SUB DUP10 MSTORE DUP2 MLOAD PUSH2 0x4A91 DUP6 DUP3 PUSH2 0x48BB JUMP JUMPDEST SWAP5 POP PUSH2 0x4A9C DUP4 PUSH2 0x5944 JUMP JUMPDEST SWAP3 POP PUSH1 0x20 DUP11 ADD SWAP10 POP POP PUSH1 0x1 DUP2 ADD SWAP1 POP PUSH2 0x4A78 JUMP JUMPDEST POP DUP3 SWAP8 POP DUP8 SWAP6 POP POP POP POP POP POP SWAP3 SWAP2 POP POP JUMP JUMPDEST PUSH1 0x0 PUSH2 0x4ACD DUP3 PUSH2 0x5907 JUMP JUMPDEST PUSH2 0x4AD7 DUP2 DUP6 PUSH2 0x5991 JUMP JUMPDEST SWAP4 POP PUSH2 0x4AE2 DUP4 PUSH2 0x58CB JUMP JUMPDEST DUP1 PUSH1 0x0 JUMPDEST DUP4 DUP2 LT ISZERO PUSH2 0x4B13 JUMPI DUP2 MLOAD PUSH2 0x4AFA DUP9 DUP3 PUSH2 0x48CF JUMP JUMPDEST SWAP8 POP PUSH2 0x4B05 DUP4 PUSH2 0x5951 JUMP JUMPDEST SWAP3 POP POP PUSH1 0x1 DUP2 ADD SWAP1 POP PUSH2 0x4AE6 JUMP JUMPDEST POP DUP6 SWAP4 POP POP POP POP SWAP3 SWAP2 POP POP JUMP JUMPDEST PUSH1 0x0 PUSH2 0x4B2B DUP3 PUSH2 0x5907 JUMP JUMPDEST PUSH2 0x4B35 DUP2 DUP6 PUSH2 0x59A2 JUMP JUMPDEST SWAP4 POP PUSH2 0x4B40 DUP4 PUSH2 0x58CB JUMP JUMPDEST DUP1 PUSH1 0x0 JUMPDEST DUP4 DUP2 LT ISZERO PUSH2 0x4B71 JUMPI DUP2 MLOAD PUSH2 0x4B58 DUP9 DUP3 PUSH2 0x48CF JUMP JUMPDEST SWAP8 POP PUSH2 0x4B63 DUP4 PUSH2 0x5951 JUMP JUMPDEST SWAP3 POP POP PUSH1 0x1 DUP2 ADD SWAP1 POP PUSH2 0x4B44 JUMP JUMPDEST POP DUP6 SWAP4 POP POP POP POP SWAP3 SWAP2 POP POP JUMP JUMPDEST PUSH2 0x4B87 DUP2 PUSH2 0x5AB3 JUMP JUMPDEST DUP3 MSTORE POP POP JUMP JUMPDEST PUSH2 0x4B96 DUP2 PUSH2 0x5AB3 JUMP JUMPDEST DUP3 MSTORE POP POP JUMP JUMPDEST PUSH2 0x4BA5 DUP2 PUSH2 0x5B22 JUMP JUMPDEST DUP3 MSTORE POP POP JUMP JUMPDEST PUSH2 0x4BB4 DUP2 PUSH2 0x5B22 JUMP JUMPDEST DUP3 MSTORE POP POP JUMP JUMPDEST PUSH2 0x4BC3 DUP2 PUSH2 0x5B34 JUMP JUMPDEST DUP3 MSTORE POP POP JUMP JUMPDEST PUSH2 0x4BD2 DUP2 PUSH2 0x5B34 JUMP JUMPDEST DUP3 MSTORE POP POP JUMP JUMPDEST PUSH2 0x4BE1 DUP2 PUSH2 0x5B46 JUMP JUMPDEST DUP3 MSTORE POP POP JUMP JUMPDEST PUSH2 0x4BF0 DUP2 PUSH2 0x5B46 JUMP JUMPDEST DUP3 MSTORE POP POP JUMP JUMPDEST PUSH1 0x0 PUSH2 0x4C01 DUP3 PUSH2 0x5912 JUMP JUMPDEST PUSH2 0x4C0B DUP2 DUP6 PUSH2 0x59C4 JUMP JUMPDEST SWAP4 POP PUSH2 0x4C1B DUP2 DUP6 PUSH1 0x20 DUP7 ADD PUSH2 0x5B67 JUMP JUMPDEST PUSH2 0x4C24 DUP2 PUSH2 0x5D83 JUMP JUMPDEST DUP5 ADD SWAP2 POP POP SWAP3 SWAP2 POP POP JUMP JUMPDEST PUSH1 0x0 PUSH2 0x4C3A DUP3 PUSH2 0x5912 JUMP JUMPDEST PUSH2 0x4C44 DUP2 DUP6 PUSH2 0x59D5 JUMP JUMPDEST SWAP4 POP PUSH2 0x4C54 DUP2 DUP6 PUSH1 0x20 DUP7 ADD PUSH2 0x5B67 JUMP JUMPDEST PUSH2 0x4C5D DUP2 PUSH2 0x5D83 JUMP JUMPDEST DUP5 ADD SWAP2 POP POP SWAP3 SWAP2 POP POP JUMP JUMPDEST PUSH1 0x0 PUSH2 0x4C75 PUSH1 0x26 DUP4 PUSH2 0x59D5 JUMP JUMPDEST SWAP2 POP PUSH2 0x4C80 DUP3 PUSH2 0x5D94 JUMP JUMPDEST PUSH1 0x40 DUP3 ADD SWAP1 POP SWAP2 SWAP1 POP JUMP JUMPDEST PUSH1 0x0 PUSH2 0x4C98 PUSH1 0xA DUP4 PUSH2 0x59D5 JUMP JUMPDEST SWAP2 POP PUSH2 0x4CA3 DUP3 PUSH2 0x5DE3 JUMP JUMPDEST PUSH1 0x20 DUP3 ADD SWAP1 POP SWAP2 SWAP1 POP JUMP JUMPDEST PUSH1 0x0 PUSH2 0x4CBB PUSH1 0x19 DUP4 PUSH2 0x59D5 JUMP JUMPDEST SWAP2 POP PUSH2 0x4CC6 DUP3 PUSH2 0x5E0C JUMP JUMPDEST PUSH1 0x20 DUP3 ADD SWAP1 POP SWAP2 SWAP1 POP JUMP JUMPDEST PUSH1 0x0 PUSH2 0x4CDE PUSH1 0x9 DUP4 PUSH2 0x59D5 JUMP JUMPDEST SWAP2 POP PUSH2 0x4CE9 DUP3 PUSH2 0x5E35 JUMP JUMPDEST PUSH1 0x20 DUP3 ADD SWAP1 POP SWAP2 SWAP1 POP JUMP JUMPDEST PUSH1 0x0 PUSH2 0x4D01 PUSH1 0x2 DUP4 PUSH2 0x59D5 JUMP JUMPDEST SWAP2 POP PUSH2 0x4D0C DUP3 PUSH2 0x5E5E JUMP JUMPDEST PUSH1 0x20 DUP3 ADD SWAP1 POP SWAP2 SWAP1 POP JUMP JUMPDEST PUSH1 0x0 PUSH2 0x4D24 PUSH1 0xB DUP4 PUSH2 0x59D5 JUMP JUMPDEST SWAP2 POP PUSH2 0x4D2F DUP3 PUSH2 0x5E87 JUMP JUMPDEST PUSH1 0x20 DUP3 ADD SWAP1 POP SWAP2 SWAP1 POP JUMP JUMPDEST PUSH1 0x0 PUSH2 0x4D47 PUSH1 0x20 DUP4 PUSH2 0x59D5 JUMP JUMPDEST SWAP2 POP PUSH2 0x4D52 DUP3 PUSH2 0x5EB0 JUMP JUMPDEST PUSH1 0x20 DUP3 ADD SWAP1 POP SWAP2 SWAP1 POP JUMP JUMPDEST PUSH1 0x0 PUSH2 0x4D6A PUSH1 0x2 DUP4 PUSH2 0x59D5 JUMP JUMPDEST SWAP2 POP PUSH2 0x4D75 DUP3 PUSH2 0x5ED9 JUMP JUMPDEST PUSH1 0x20 DUP3 ADD SWAP1 POP SWAP2 SWAP1 POP JUMP JUMPDEST PUSH1 0x0 PUSH2 0x4D8D PUSH1 0x26 DUP4 PUSH2 0x59D5 JUMP JUMPDEST SWAP2 POP PUSH2 0x4D98 DUP3 PUSH2 0x5F02 JUMP JUMPDEST PUSH1 0x40 DUP3 ADD SWAP1 POP SWAP2 SWAP1 POP JUMP JUMPDEST PUSH1 0x0 PUSH1 0xE0 DUP4 ADD PUSH1 0x0 DUP4 ADD MLOAD DUP5 DUP3 SUB PUSH1 0x0 DUP7 ADD MSTORE PUSH2 0x4DC0 DUP3 DUP3 PUSH2 0x4BF6 JUMP JUMPDEST SWAP2 POP POP PUSH1 0x20 DUP4 ADD MLOAD PUSH2 0x4DD5 PUSH1 0x20 DUP7 ADD DUP3 PUSH2 0x528C JUMP JUMPDEST POP PUSH1 0x40 DUP4 ADD MLOAD PUSH2 0x4DE8 PUSH1 0x40 DUP7 ADD DUP3 PUSH2 0x528C JUMP JUMPDEST POP PUSH1 0x60 DUP4 ADD MLOAD PUSH2 0x4DFB PUSH1 0x60 DUP7 ADD DUP3 PUSH2 0x528C JUMP JUMPDEST POP PUSH1 0x80 DUP4 ADD MLOAD PUSH2 0x4E0E PUSH1 0x80 DUP7 ADD DUP3 PUSH2 0x528C JUMP JUMPDEST POP PUSH1 0xA0 DUP4 ADD MLOAD PUSH2 0x4E21 PUSH1 0xA0 DUP7 ADD DUP3 PUSH2 0x528C JUMP JUMPDEST POP PUSH1 0xC0 DUP4 ADD MLOAD DUP5 DUP3 SUB PUSH1 0xC0 DUP7 ADD MSTORE PUSH2 0x4E39 DUP3 DUP3 PUSH2 0x4BF6 JUMP JUMPDEST SWAP2 POP POP DUP1 SWAP2 POP POP SWAP3 SWAP2 POP POP JUMP JUMPDEST PUSH1 0x0 PUSH2 0x1E0 DUP4 ADD PUSH1 0x0 DUP4 ADD MLOAD PUSH2 0x4E5F PUSH1 0x0 DUP7 ADD DUP3 PUSH2 0x528C JUMP JUMPDEST POP PUSH1 0x20 DUP4 ADD MLOAD DUP5 DUP3 SUB PUSH1 0x20 DUP7 ADD MSTORE PUSH2 0x4E77 DUP3 DUP3 PUSH2 0x4BF6 JUMP JUMPDEST SWAP2 POP POP PUSH1 0x40 DUP4 ADD MLOAD DUP5 DUP3 SUB PUSH1 0x40 DUP7 ADD MSTORE PUSH2 0x4E91 DUP3 DUP3 PUSH2 0x4BF6 JUMP JUMPDEST SWAP2 POP POP PUSH1 0x60 DUP4 ADD MLOAD PUSH2 0x4EA6 PUSH1 0x60 DUP7 ADD DUP3 PUSH2 0x528C JUMP JUMPDEST POP PUSH1 0x80 DUP4 ADD MLOAD DUP5 DUP3 SUB PUSH1 0x80 DUP7 ADD MSTORE PUSH2 0x4EBE DUP3 DUP3 PUSH2 0x4BF6 JUMP JUMPDEST SWAP2 POP POP PUSH1 0xA0 DUP4 ADD MLOAD DUP5 DUP3 SUB PUSH1 0xA0 DUP7 ADD MSTORE PUSH2 0x4ED8 DUP3 DUP3 PUSH2 0x4BF6 JUMP JUMPDEST SWAP2 POP POP PUSH1 0xC0 DUP4 ADD MLOAD DUP5 DUP3 SUB PUSH1 0xC0 DUP7 ADD MSTORE PUSH2 0x4EF2 DUP3 DUP3 PUSH2 0x4963 JUMP JUMPDEST SWAP2 POP POP PUSH1 0xE0 DUP4 ADD MLOAD PUSH2 0x4F07 PUSH1 0xE0 DUP7 ADD DUP3 PUSH2 0x528C JUMP JUMPDEST POP PUSH2 0x100 DUP4 ADD MLOAD PUSH2 0x4F1C PUSH2 0x100 DUP7 ADD DUP3 PUSH2 0x528C JUMP JUMPDEST POP PUSH2 0x120 DUP4 ADD MLOAD PUSH2 0x4F31 PUSH2 0x120 DUP7 ADD DUP3 PUSH2 0x4B7E JUMP JUMPDEST POP PUSH2 0x140 DUP4 ADD MLOAD PUSH2 0x4F46 PUSH2 0x140 DUP7 ADD DUP3 PUSH2 0x4B7E JUMP JUMPDEST POP PUSH2 0x160 DUP4 ADD MLOAD PUSH2 0x4F5B PUSH2 0x160 DUP7 ADD DUP3 PUSH2 0x528C JUMP JUMPDEST POP PUSH2 0x180 DUP4 ADD MLOAD DUP5 DUP3 SUB PUSH2 0x180 DUP7 ADD MSTORE PUSH2 0x4F75 DUP3 DUP3 PUSH2 0x49D8 JUMP JUMPDEST SWAP2 POP POP PUSH2 0x1A0 DUP4 ADD MLOAD PUSH2 0x4F8C PUSH2 0x1A0 DUP7 ADD DUP3 PUSH2 0x528C JUMP JUMPDEST POP PUSH2 0x1C0 DUP4 ADD MLOAD PUSH2 0x4FA1 PUSH2 0x1C0 DUP7 ADD DUP3 PUSH2 0x528C JUMP JUMPDEST POP DUP1 SWAP2 POP POP SWAP3 SWAP2 POP POP JUMP JUMPDEST PUSH1 0x0 PUSH1 0xA0 DUP4 ADD PUSH1 0x0 DUP4 ADD MLOAD DUP5 DUP3 SUB PUSH1 0x0 DUP7 ADD MSTORE PUSH2 0x4FC9 DUP3 DUP3 PUSH2 0x4DA3 JUMP JUMPDEST SWAP2 POP POP PUSH1 0x20 DUP4 ADD MLOAD PUSH2 0x4FDE PUSH1 0x20 DUP7 ADD DUP3 PUSH2 0x528C JUMP JUMPDEST POP PUSH1 0x40 DUP4 ADD MLOAD DUP5 DUP3 SUB PUSH1 0x40 DUP7 ADD MSTORE PUSH2 0x4FF6 DUP3 DUP3 PUSH2 0x4BF6 JUMP JUMPDEST SWAP2 POP POP PUSH1 0x60 DUP4 ADD MLOAD PUSH2 0x500B PUSH1 0x60 DUP7 ADD DUP3 PUSH2 0x4B9C JUMP JUMPDEST POP PUSH1 0x80 DUP4 ADD MLOAD PUSH2 0x501E PUSH1 0x80 DUP7 ADD DUP3 PUSH2 0x528C JUMP JUMPDEST POP DUP1 SWAP2 POP POP SWAP3 SWAP2 POP POP JUMP JUMPDEST PUSH1 0x0 PUSH1 0x80 DUP4 ADD PUSH1 0x0 DUP4 ADD MLOAD PUSH2 0x5041 PUSH1 0x0 DUP7 ADD DUP3 PUSH2 0x48E7 JUMP JUMPDEST POP PUSH1 0x20 DUP4 ADD MLOAD DUP5 DUP3 SUB PUSH1 0x20 DUP7 ADD MSTORE PUSH2 0x5059 DUP3 DUP3 PUSH2 0x4AC2 JUMP JUMPDEST SWAP2 POP POP PUSH1 0x40 DUP4 ADD MLOAD DUP5 DUP3 SUB PUSH1 0x40 DUP7 ADD MSTORE PUSH2 0x5073 DUP3 DUP3 PUSH2 0x4905 JUMP JUMPDEST SWAP2 POP POP PUSH1 0x60 DUP4 ADD MLOAD DUP5 DUP3 SUB PUSH1 0x60 DUP7 ADD MSTORE PUSH2 0x508D DUP3 DUP3 PUSH2 0x4963 JUMP JUMPDEST SWAP2 POP POP DUP1 SWAP2 POP POP SWAP3 SWAP2 POP POP JUMP JUMPDEST PUSH1 0x0 PUSH2 0x2A0 DUP4 ADD PUSH1 0x0 DUP4 ADD MLOAD PUSH2 0x50B3 PUSH1 0x0 DUP7 ADD DUP3 PUSH2 0x48E7 JUMP JUMPDEST POP PUSH1 0x20 DUP4 ADD MLOAD PUSH2 0x50C6 PUSH1 0x20 DUP7 ADD DUP3 PUSH2 0x528C JUMP JUMPDEST POP PUSH1 0x40 DUP4 ADD MLOAD DUP5 DUP3 SUB PUSH1 0x40 DUP7 ADD MSTORE PUSH2 0x50DE DUP3 DUP3 PUSH2 0x4BF6 JUMP JUMPDEST SWAP2 POP POP PUSH1 0x60 DUP4 ADD MLOAD DUP5 DUP3 SUB PUSH1 0x60 DUP7 ADD MSTORE PUSH2 0x50F8 DUP3 DUP3 PUSH2 0x4BF6 JUMP JUMPDEST SWAP2 POP POP PUSH1 0x80 DUP4 ADD MLOAD PUSH2 0x510D PUSH1 0x80 DUP7 ADD DUP3 PUSH2 0x528C JUMP JUMPDEST POP PUSH1 0xA0 DUP4 ADD MLOAD DUP5 DUP3 SUB PUSH1 0xA0 DUP7 ADD MSTORE PUSH2 0x5125 DUP3 DUP3 PUSH2 0x4BF6 JUMP JUMPDEST SWAP2 POP POP PUSH1 0xC0 DUP4 ADD MLOAD DUP5 DUP3 SUB PUSH1 0xC0 DUP7 ADD MSTORE PUSH2 0x513F DUP3 DUP3 PUSH2 0x4BF6 JUMP JUMPDEST SWAP2 POP POP PUSH1 0xE0 DUP4 ADD MLOAD DUP5 DUP3 SUB PUSH1 0xE0 DUP7 ADD MSTORE PUSH2 0x5159 DUP3 DUP3 PUSH2 0x4963 JUMP JUMPDEST SWAP2 POP POP PUSH2 0x100 DUP4 ADD MLOAD PUSH2 0x5170 PUSH2 0x100 DUP7 ADD DUP3 PUSH2 0x528C JUMP JUMPDEST POP PUSH2 0x120 DUP4 ADD MLOAD PUSH2 0x5185 PUSH2 0x120 DUP7 ADD DUP3 PUSH2 0x528C JUMP JUMPDEST POP PUSH2 0x140 DUP4 ADD MLOAD PUSH2 0x519A PUSH2 0x140 DUP7 ADD DUP3 PUSH2 0x4B7E JUMP JUMPDEST POP PUSH2 0x160 DUP4 ADD MLOAD PUSH2 0x51AF PUSH2 0x160 DUP7 ADD DUP3 PUSH2 0x4B7E JUMP JUMPDEST POP PUSH2 0x180 DUP4 ADD MLOAD PUSH2 0x51C4 PUSH2 0x180 DUP7 ADD DUP3 PUSH2 0x528C JUMP JUMPDEST POP PUSH2 0x1A0 DUP4 ADD MLOAD DUP5 DUP3 SUB PUSH2 0x1A0 DUP7 ADD MSTORE PUSH2 0x51DE DUP3 DUP3 PUSH2 0x49D8 JUMP JUMPDEST SWAP2 POP POP PUSH2 0x1C0 DUP4 ADD MLOAD DUP5 DUP3 SUB PUSH2 0x1C0 DUP7 ADD MSTORE PUSH2 0x51FA DUP3 DUP3 PUSH2 0x4A4D JUMP JUMPDEST SWAP2 POP POP PUSH2 0x1E0 DUP4 ADD MLOAD DUP5 DUP3 SUB PUSH2 0x1E0 DUP7 ADD MSTORE PUSH2 0x5216 DUP3 DUP3 PUSH2 0x4A4D JUMP JUMPDEST SWAP2 POP POP PUSH2 0x200 DUP4 ADD MLOAD PUSH2 0x522D PUSH2 0x200 DUP7 ADD DUP3 PUSH2 0x528C JUMP JUMPDEST POP PUSH2 0x220 DUP4 ADD MLOAD PUSH2 0x5242 PUSH2 0x220 DUP7 ADD DUP3 PUSH2 0x528C JUMP JUMPDEST POP PUSH2 0x240 DUP4 ADD MLOAD PUSH2 0x5257 PUSH2 0x240 DUP7 ADD DUP3 PUSH2 0x4B7E JUMP JUMPDEST POP PUSH2 0x260 DUP4 ADD MLOAD PUSH2 0x526C PUSH2 0x260 DUP7 ADD DUP3 PUSH2 0x4B7E JUMP JUMPDEST POP PUSH2 0x280 DUP4 ADD MLOAD PUSH2 0x5281 PUSH2 0x280 DUP7 ADD DUP3 PUSH2 0x4BBA JUMP JUMPDEST POP DUP1 SWAP2 POP POP SWAP3 SWAP2 POP POP JUMP JUMPDEST PUSH2 0x5295 DUP2 PUSH2 0x5B18 JUMP JUMPDEST DUP3 MSTORE POP POP JUMP JUMPDEST PUSH2 0x52A4 DUP2 PUSH2 0x5B18 JUMP JUMPDEST DUP3 MSTORE POP POP JUMP JUMPDEST PUSH1 0x0 PUSH1 0x20 DUP3 ADD SWAP1 POP PUSH2 0x52BF PUSH1 0x0 DUP4 ADD DUP5 PUSH2 0x48F6 JUMP JUMPDEST SWAP3 SWAP2 POP POP JUMP JUMPDEST PUSH1 0x0 PUSH1 0x80 DUP3 ADD SWAP1 POP PUSH2 0x52DA PUSH1 0x0 DUP4 ADD DUP7 PUSH2 0x48F6 JUMP JUMPDEST PUSH2 0x52E7 PUSH1 0x20 DUP4 ADD DUP6 PUSH2 0x529B JUMP JUMPDEST DUP2 DUP2 SUB PUSH1 0x40 DUP4 ADD MSTORE PUSH2 0x52F8 DUP2 PUSH2 0x4CF4 JUMP JUMPDEST SWAP1 POP PUSH2 0x5307 PUSH1 0x60 DUP4 ADD DUP5 PUSH2 0x4B8D JUMP JUMPDEST SWAP5 SWAP4 POP POP POP POP JUMP JUMPDEST PUSH1 0x0 PUSH1 0x80 DUP3 ADD SWAP1 POP PUSH2 0x5324 PUSH1 0x0 DUP4 ADD DUP7 PUSH2 0x48F6 JUMP JUMPDEST PUSH2 0x5331 PUSH1 0x20 DUP4 ADD DUP6 PUSH2 0x529B JUMP JUMPDEST DUP2 DUP2 SUB PUSH1 0x40 DUP4 ADD MSTORE PUSH2 0x5342 DUP2 PUSH2 0x4D5D JUMP JUMPDEST SWAP1 POP PUSH2 0x5351 PUSH1 0x60 DUP4 ADD DUP5 PUSH2 0x4B8D JUMP JUMPDEST SWAP5 SWAP4 POP POP POP POP JUMP JUMPDEST PUSH1 0x0 PUSH1 0x60 DUP3 ADD SWAP1 POP PUSH2 0x536E PUSH1 0x0 DUP4 ADD DUP7 PUSH2 0x48F6 JUMP JUMPDEST PUSH2 0x537B PUSH1 0x20 DUP4 ADD DUP6 PUSH2 0x529B JUMP JUMPDEST DUP2 DUP2 SUB PUSH1 0x40 DUP4 ADD MSTORE PUSH2 0x538D DUP2 DUP5 PUSH2 0x4E46 JUMP JUMPDEST SWAP1 POP SWAP5 SWAP4 POP POP POP POP JUMP JUMPDEST PUSH1 0x0 PUSH1 0x20 DUP3 ADD SWAP1 POP PUSH2 0x53AC PUSH1 0x0 DUP4 ADD DUP5 PUSH2 0x4B8D JUMP JUMPDEST SWAP3 SWAP2 POP POP JUMP JUMPDEST PUSH1 0x0 PUSH1 0x20 DUP3 ADD SWAP1 POP DUP2 DUP2 SUB PUSH1 0x0 DUP4 ADD MSTORE PUSH2 0x53CB DUP2 PUSH2 0x4C68 JUMP JUMPDEST SWAP1 POP SWAP2 SWAP1 POP JUMP JUMPDEST PUSH1 0x0 PUSH1 0x20 DUP3 ADD SWAP1 POP DUP2 DUP2 SUB PUSH1 0x0 DUP4 ADD MSTORE PUSH2 0x53EB DUP2 PUSH2 0x4CAE JUMP JUMPDEST SWAP1 POP SWAP2 SWAP1 POP JUMP JUMPDEST PUSH1 0x0 PUSH1 0x20 DUP3 ADD SWAP1 POP DUP2 DUP2 SUB PUSH1 0x0 DUP4 ADD MSTORE PUSH2 0x540B DUP2 PUSH2 0x4D3A JUMP JUMPDEST SWAP1 POP SWAP2 SWAP1 POP JUMP JUMPDEST PUSH1 0x0 PUSH1 0x40 DUP3 ADD SWAP1 POP DUP2 DUP2 SUB PUSH1 0x0 DUP4 ADD MSTORE PUSH2 0x542B DUP2 PUSH2 0x4D80 JUMP JUMPDEST SWAP1 POP PUSH2 0x543A PUSH1 0x20 DUP4 ADD DUP5 PUSH2 0x529B JUMP JUMPDEST SWAP3 SWAP2 POP POP JUMP JUMPDEST PUSH1 0x0 PUSH1 0x20 DUP3 ADD SWAP1 POP DUP2 DUP2 SUB PUSH1 0x0 DUP4 ADD MSTORE PUSH2 0x545A DUP2 DUP5 PUSH2 0x509A JUMP JUMPDEST SWAP1 POP SWAP3 SWAP2 POP POP JUMP JUMPDEST PUSH1 0x0 PUSH1 0x20 DUP3 ADD SWAP1 POP PUSH2 0x5477 PUSH1 0x0 DUP4 ADD DUP5 PUSH2 0x529B JUMP JUMPDEST SWAP3 SWAP2 POP POP JUMP JUMPDEST PUSH1 0x0 PUSH1 0xA0 DUP3 ADD SWAP1 POP PUSH2 0x5492 PUSH1 0x0 DUP4 ADD DUP8 PUSH2 0x529B JUMP JUMPDEST DUP2 DUP2 SUB PUSH1 0x20 DUP4 ADD MSTORE PUSH2 0x54A4 DUP2 DUP7 PUSH2 0x4B20 JUMP JUMPDEST SWAP1 POP PUSH2 0x54B3 PUSH1 0x40 DUP4 ADD DUP6 PUSH2 0x529B JUMP JUMPDEST PUSH2 0x54C0 PUSH1 0x60 DUP4 ADD DUP5 PUSH2 0x48F6 JUMP JUMPDEST DUP2 DUP2 SUB PUSH1 0x80 DUP4 ADD MSTORE PUSH2 0x54D1 DUP2 PUSH2 0x4C8B JUMP JUMPDEST SWAP1 POP SWAP6 SWAP5 POP POP POP POP POP JUMP JUMPDEST PUSH1 0x0 PUSH1 0xA0 DUP3 ADD SWAP1 POP PUSH2 0x54F1 PUSH1 0x0 DUP4 ADD DUP8 PUSH2 0x529B JUMP JUMPDEST DUP2 DUP2 SUB PUSH1 0x20 DUP4 ADD MSTORE PUSH2 0x5503 DUP2 DUP7 PUSH2 0x4B20 JUMP JUMPDEST SWAP1 POP PUSH2 0x5512 PUSH1 0x40 DUP4 ADD DUP6 PUSH2 0x529B JUMP JUMPDEST PUSH2 0x551F PUSH1 0x60 DUP4 ADD DUP5 PUSH2 0x48F6 JUMP JUMPDEST DUP2 DUP2 SUB PUSH1 0x80 DUP4 ADD MSTORE PUSH2 0x5530 DUP2 PUSH2 0x4CD1 JUMP JUMPDEST SWAP1 POP SWAP6 SWAP5 POP POP POP POP POP JUMP JUMPDEST PUSH1 0x0 PUSH1 0xA0 DUP3 ADD SWAP1 POP PUSH2 0x5550 PUSH1 0x0 DUP4 ADD DUP8 PUSH2 0x529B JUMP JUMPDEST DUP2 DUP2 SUB PUSH1 0x20 DUP4 ADD MSTORE PUSH2 0x5562 DUP2 DUP7 PUSH2 0x4B20 JUMP JUMPDEST SWAP1 POP PUSH2 0x5571 PUSH1 0x40 DUP4 ADD DUP6 PUSH2 0x529B JUMP JUMPDEST PUSH2 0x557E PUSH1 0x60 DUP4 ADD DUP5 PUSH2 0x48F6 JUMP JUMPDEST DUP2 DUP2 SUB PUSH1 0x80 DUP4 ADD MSTORE PUSH2 0x558F DUP2 PUSH2 0x4D17 JUMP JUMPDEST SWAP1 POP SWAP6 SWAP5 POP POP POP POP POP JUMP JUMPDEST PUSH1 0x0 PUSH1 0x40 DUP3 ADD SWAP1 POP PUSH2 0x55AF PUSH1 0x0 DUP4 ADD DUP6 PUSH2 0x529B JUMP JUMPDEST PUSH2 0x55BC PUSH1 0x20 DUP4 ADD DUP5 PUSH2 0x4BC9 JUMP JUMPDEST SWAP4 SWAP3 POP POP POP JUMP JUMPDEST PUSH1 0x0 PUSH1 0x40 DUP3 ADD SWAP1 POP PUSH2 0x55D8 PUSH1 0x0 DUP4 ADD DUP6 PUSH2 0x529B JUMP JUMPDEST DUP2 DUP2 SUB PUSH1 0x20 DUP4 ADD MSTORE PUSH2 0x55EA DUP2 DUP5 PUSH2 0x4E46 JUMP JUMPDEST SWAP1 POP SWAP4 SWAP3 POP POP POP JUMP JUMPDEST PUSH1 0x0 PUSH1 0x80 DUP3 ADD SWAP1 POP PUSH2 0x5608 PUSH1 0x0 DUP4 ADD DUP8 PUSH2 0x529B JUMP JUMPDEST PUSH2 0x5615 PUSH1 0x20 DUP4 ADD DUP7 PUSH2 0x529B JUMP JUMPDEST PUSH2 0x5622 PUSH1 0x40 DUP4 ADD DUP6 PUSH2 0x48F6 JUMP JUMPDEST PUSH2 0x562F PUSH1 0x60 DUP4 ADD DUP5 PUSH2 0x4BAB JUMP JUMPDEST SWAP6 SWAP5 POP POP POP POP POP JUMP JUMPDEST PUSH1 0x0 PUSH1 0xC0 DUP3 ADD SWAP1 POP PUSH2 0x564D PUSH1 0x0 DUP4 ADD DUP10 PUSH2 0x529B JUMP JUMPDEST PUSH2 0x565A PUSH1 0x20 DUP4 ADD DUP9 PUSH2 0x529B JUMP JUMPDEST PUSH2 0x5667 PUSH1 0x40 DUP4 ADD DUP8 PUSH2 0x529B JUMP JUMPDEST PUSH2 0x5674 PUSH1 0x60 DUP4 ADD DUP7 PUSH2 0x48F6 JUMP JUMPDEST PUSH2 0x5681 PUSH1 0x80 DUP4 ADD DUP6 PUSH2 0x4BE7 JUMP JUMPDEST PUSH2 0x568E PUSH1 0xA0 DUP4 ADD DUP5 PUSH2 0x4B8D JUMP JUMPDEST SWAP8 SWAP7 POP POP POP POP POP POP POP JUMP JUMPDEST PUSH1 0x0 PUSH1 0xC0 DUP3 ADD SWAP1 POP PUSH2 0x56AE PUSH1 0x0 DUP4 ADD DUP10 PUSH2 0x529B JUMP JUMPDEST PUSH2 0x56BB PUSH1 0x20 DUP4 ADD DUP9 PUSH2 0x529B JUMP JUMPDEST PUSH2 0x56C8 PUSH1 0x40 DUP4 ADD DUP8 PUSH2 0x529B JUMP JUMPDEST PUSH2 0x56D5 PUSH1 0x60 DUP4 ADD DUP7 PUSH2 0x48F6 JUMP JUMPDEST DUP2 DUP2 SUB PUSH1 0x80 DUP4 ADD MSTORE PUSH2 0x56E7 DUP2 DUP6 PUSH2 0x4C2F JUMP JUMPDEST SWAP1 POP PUSH2 0x56F6 PUSH1 0xA0 DUP4 ADD DUP5 PUSH2 0x4B8D JUMP JUMPDEST SWAP8 SWAP7 POP POP POP POP POP POP POP JUMP JUMPDEST PUSH1 0x0 PUSH1 0xA0 DUP3 ADD SWAP1 POP PUSH2 0x5716 PUSH1 0x0 DUP4 ADD DUP8 PUSH2 0x529B JUMP JUMPDEST PUSH2 0x5723 PUSH1 0x20 DUP4 ADD DUP7 PUSH2 0x529B JUMP JUMPDEST PUSH2 0x5730 PUSH1 0x40 DUP4 ADD DUP6 PUSH2 0x529B JUMP JUMPDEST PUSH2 0x573D PUSH1 0x60 DUP4 ADD DUP5 PUSH2 0x48F6 JUMP JUMPDEST DUP2 DUP2 SUB PUSH1 0x80 DUP4 ADD MSTORE PUSH2 0x574E DUP2 PUSH2 0x4CD1 JUMP JUMPDEST SWAP1 POP SWAP6 SWAP5 POP POP POP POP POP JUMP JUMPDEST PUSH1 0x0 PUSH1 0xA0 DUP3 ADD SWAP1 POP PUSH2 0x576E PUSH1 0x0 DUP4 ADD DUP8 PUSH2 0x529B JUMP JUMPDEST PUSH2 0x577B PUSH1 0x20 DUP4 ADD DUP7 PUSH2 0x529B JUMP JUMPDEST PUSH2 0x5788 PUSH1 0x40 DUP4 ADD DUP6 PUSH2 0x529B JUMP JUMPDEST PUSH2 0x5795 PUSH1 0x60 DUP4 ADD DUP5 PUSH2 0x48F6 JUMP JUMPDEST DUP2 DUP2 SUB PUSH1 0x80 DUP4 ADD MSTORE PUSH2 0x57A6 DUP2 PUSH2 0x4D17 JUMP JUMPDEST SWAP1 POP SWAP6 SWAP5 POP POP POP POP POP JUMP JUMPDEST PUSH1 0x0 PUSH2 0x57BB PUSH2 0x57CC JUMP JUMPDEST SWAP1 POP PUSH2 0x57C7 DUP3 DUP3 PUSH2 0x5BCC JUMP JUMPDEST SWAP2 SWAP1 POP JUMP JUMPDEST PUSH1 0x0 PUSH1 0x40 MLOAD SWAP1 POP SWAP1 JUMP JUMPDEST PUSH1 0x0 PUSH8 0xFFFFFFFFFFFFFFFF DUP3 GT ISZERO PUSH2 0x57F1 JUMPI PUSH2 0x57F0 PUSH2 0x5D31 JUMP JUMPDEST JUMPDEST PUSH1 0x20 DUP3 MUL SWAP1 POP PUSH1 0x20 DUP2 ADD SWAP1 POP SWAP2 SWAP1 POP JUMP JUMPDEST PUSH1 0x0 PUSH8 0xFFFFFFFFFFFFFFFF DUP3 GT ISZERO PUSH2 0x581D JUMPI PUSH2 0x581C PUSH2 0x5D31 JUMP JUMPDEST JUMPDEST PUSH1 0x20 DUP3 MUL SWAP1 POP PUSH1 0x20 DUP2 ADD SWAP1 POP SWAP2 SWAP1 POP JUMP JUMPDEST PUSH1 0x0 PUSH8 0xFFFFFFFFFFFFFFFF DUP3 GT ISZERO PUSH2 0x5849 JUMPI PUSH2 0x5848 PUSH2 0x5D31 JUMP JUMPDEST JUMPDEST PUSH1 0x20 DUP3 MUL SWAP1 POP PUSH1 0x20 DUP2 ADD SWAP1 POP SWAP2 SWAP1 POP JUMP JUMPDEST PUSH1 0x0 PUSH8 0xFFFFFFFFFFFFFFFF DUP3 GT ISZERO PUSH2 0x5875 JUMPI PUSH2 0x5874 PUSH2 0x5D31 JUMP JUMPDEST JUMPDEST PUSH2 0x587E DUP3 PUSH2 0x5D83 JUMP JUMPDEST SWAP1 POP PUSH1 0x20 DUP2 ADD SWAP1 POP SWAP2 SWAP1 POP JUMP JUMPDEST PUSH1 0x0 DUP2 SWAP1 POP PUSH1 0x20 DUP3 ADD SWAP1 POP SWAP2 SWAP1 POP JUMP JUMPDEST PUSH1 0x0 DUP2 SWAP1 POP PUSH1 0x20 DUP3 ADD SWAP1 POP SWAP2 SWAP1 POP JUMP JUMPDEST PUSH1 0x0 DUP2 SWAP1 POP PUSH1 0x20 DUP3 ADD SWAP1 POP SWAP2 SWAP1 POP JUMP JUMPDEST PUSH1 0x0 DUP2 SWAP1 POP PUSH1 0x20 DUP3 ADD SWAP1 POP SWAP2 SWAP1 POP JUMP JUMPDEST PUSH1 0x0 DUP2 SWAP1 POP PUSH1 0x20 DUP3 ADD SWAP1 POP SWAP2 SWAP1 POP JUMP JUMPDEST PUSH1 0x0 DUP2 MLOAD SWAP1 POP SWAP2 SWAP1 POP JUMP JUMPDEST PUSH1 0x0 DUP2 MLOAD SWAP1 POP SWAP2 SWAP1 POP JUMP JUMPDEST PUSH1 0x0 DUP2 MLOAD SWAP1 POP SWAP2 SWAP1 POP JUMP JUMPDEST PUSH1 0x0 DUP2 MLOAD SWAP1 POP SWAP2 SWAP1 POP JUMP JUMPDEST PUSH1 0x0 DUP2 MLOAD SWAP1 POP SWAP2 SWAP1 POP JUMP JUMPDEST PUSH1 0x0 DUP2 MLOAD SWAP1 POP SWAP2 SWAP1 POP JUMP JUMPDEST PUSH1 0x0 PUSH1 0x20 DUP3 ADD SWAP1 POP SWAP2 SWAP1 POP JUMP JUMPDEST PUSH1 0x0 PUSH1 0x20 DUP3 ADD SWAP1 POP SWAP2 SWAP1 POP JUMP JUMPDEST PUSH1 0x0 PUSH1 0x20 DUP3 ADD SWAP1 POP SWAP2 SWAP1 POP JUMP JUMPDEST PUSH1 0x0 PUSH1 0x20 DUP3 ADD SWAP1 POP SWAP2 SWAP1 POP JUMP JUMPDEST PUSH1 0x0 PUSH1 0x20 DUP3 ADD SWAP1 POP SWAP2 SWAP1 POP JUMP JUMPDEST PUSH1 0x0 DUP3 DUP3 MSTORE PUSH1 0x20 DUP3 ADD SWAP1 POP SWAP3 SWAP2 POP POP JUMP JUMPDEST PUSH1 0x0 DUP3 DUP3 MSTORE PUSH1 0x20 DUP3 ADD SWAP1 POP SWAP3 SWAP2 POP POP JUMP JUMPDEST PUSH1 0x0 DUP3 DUP3 MSTORE PUSH1 0x20 DUP3 ADD SWAP1 POP SWAP3 SWAP2 POP POP JUMP JUMPDEST PUSH1 0x0 DUP3 DUP3 MSTORE PUSH1 0x20 DUP3 ADD SWAP1 POP SWAP3 SWAP2 POP POP JUMP JUMPDEST PUSH1 0x0 DUP3 DUP3 MSTORE PUSH1 0x20 DUP3 ADD SWAP1 POP SWAP3 SWAP2 POP POP JUMP JUMPDEST PUSH1 0x0 DUP3 DUP3 MSTORE PUSH1 0x20 DUP3 ADD SWAP1 POP SWAP3 SWAP2 POP POP JUMP JUMPDEST PUSH1 0x0 DUP3 DUP3 MSTORE PUSH1 0x20 DUP3 ADD SWAP1 POP SWAP3 SWAP2 POP POP JUMP JUMPDEST PUSH1 0x0 DUP3 DUP3 MSTORE PUSH1 0x20 DUP3 ADD SWAP1 POP SWAP3 SWAP2 POP POP JUMP JUMPDEST PUSH1 0x0 PUSH2 0x59F1 DUP3 PUSH2 0x5B18 JUMP JUMPDEST SWAP2 POP PUSH2 0x59FC DUP4 PUSH2 0x5B18 JUMP JUMPDEST SWAP3 POP DUP3 PUSH32 0xFFFFFFFFFFFFFFFFFFFFFFFFFFFFFFFFFFFFFFFFFFFFFFFFFFFFFFFFFFFFFFFF SUB DUP3 GT ISZERO PUSH2 0x5A31 JUMPI PUSH2 0x5A30 PUSH2 0x5C46 JUMP JUMPDEST JUMPDEST DUP3 DUP3 ADD SWAP1 POP SWAP3 SWAP2 POP POP JUMP JUMPDEST PUSH1 0x0 PUSH2 0x5A47 DUP3 PUSH2 0x5B18 JUMP JUMPDEST SWAP2 POP PUSH2 0x5A52 DUP4 PUSH2 0x5B18 JUMP JUMPDEST SWAP3 POP DUP3 PUSH2 0x5A62 JUMPI PUSH2 0x5A61 PUSH2 0x5C75 JUMP JUMPDEST JUMPDEST DUP3 DUP3 DIV SWAP1 POP SWAP3 SWAP2 POP POP JUMP JUMPDEST PUSH1 0x0 PUSH2 0x5A78 DUP3 PUSH2 0x5B18 JUMP JUMPDEST SWAP2 POP PUSH2 0x5A83 DUP4 PUSH2 0x5B18 JUMP JUMPDEST SWAP3 POP DUP3 DUP3 LT ISZERO PUSH2 0x5A96 JUMPI PUSH2 0x5A95 PUSH2 0x5C46 JUMP JUMPDEST JUMPDEST DUP3 DUP3 SUB SWAP1 POP SWAP3 SWAP2 POP POP JUMP JUMPDEST PUSH1 0x0 PUSH2 0x5AAC DUP3 PUSH2 0x5AF8 JUMP JUMPDEST SWAP1 POP SWAP2 SWAP1 POP JUMP JUMPDEST PUSH1 0x0 DUP2 ISZERO ISZERO SWAP1 POP SWAP2 SWAP1 POP JUMP JUMPDEST PUSH1 0x0 DUP2 SWAP1 POP PUSH2 0x5ACD DUP3 PUSH2 0x5F51 JUMP JUMPDEST SWAP2 SWAP1 POP JUMP JUMPDEST PUSH1 0x0 DUP2 SWAP1 POP PUSH2 0x5AE0 DUP3 PUSH2 0x5F65 JUMP JUMPDEST SWAP2 SWAP1 POP JUMP JUMPDEST PUSH1 0x0 DUP2 SWAP1 POP PUSH2 0x5AF3 DUP3 PUSH2 0x5F79 JUMP JUMPDEST SWAP2 SWAP1 POP JUMP JUMPDEST PUSH1 0x0 PUSH20 0xFFFFFFFFFFFFFFFFFFFFFFFFFFFFFFFFFFFFFFFF DUP3 AND SWAP1 POP SWAP2 SWAP1 POP JUMP JUMPDEST PUSH1 0x0 DUP2 SWAP1 POP SWAP2 SWAP1 POP JUMP JUMPDEST PUSH1 0x0 PUSH2 0x5B2D DUP3 PUSH2 0x5ABF JUMP JUMPDEST SWAP1 POP SWAP2 SWAP1 POP JUMP JUMPDEST PUSH1 0x0 PUSH2 0x5B3F DUP3 PUSH2 0x5AD2 JUMP JUMPDEST SWAP1 POP SWAP2 SWAP1 POP JUMP JUMPDEST PUSH1 0x0 PUSH2 0x5B51 DUP3 PUSH2 0x5AE5 JUMP JUMPDEST SWAP1 POP SWAP2 SWAP1 POP JUMP JUMPDEST DUP3 DUP2 DUP4 CALLDATACOPY PUSH1 0x0 DUP4 DUP4 ADD MSTORE POP POP POP JUMP JUMPDEST PUSH1 0x0 JUMPDEST DUP4 DUP2 LT ISZERO PUSH2 0x5B85 JUMPI DUP1 DUP3 ADD MLOAD DUP2 DUP5 ADD MSTORE PUSH1 0x20 DUP2 ADD SWAP1 POP PUSH2 0x5B6A JUMP JUMPDEST DUP4 DUP2 GT ISZERO PUSH2 0x5B94 JUMPI PUSH1 0x0 DUP5 DUP5 ADD MSTORE JUMPDEST POP POP POP POP JUMP JUMPDEST PUSH1 0x0 PUSH1 0x2 DUP3 DIV SWAP1 POP PUSH1 0x1 DUP3 AND DUP1 PUSH2 0x5BB2 JUMPI PUSH1 0x7F DUP3 AND SWAP2 POP JUMPDEST PUSH1 0x20 DUP3 LT DUP2 EQ ISZERO PUSH2 0x5BC6 JUMPI PUSH2 0x5BC5 PUSH2 0x5CD3 JUMP JUMPDEST JUMPDEST POP SWAP2 SWAP1 POP JUMP JUMPDEST PUSH2 0x5BD5 DUP3 PUSH2 0x5D83 JUMP JUMPDEST DUP2 ADD DUP2 DUP2 LT PUSH8 0xFFFFFFFFFFFFFFFF DUP3 GT OR ISZERO PUSH2 0x5BF4 JUMPI PUSH2 0x5BF3 PUSH2 0x5D31 JUMP JUMPDEST JUMPDEST DUP1 PUSH1 0x40 MSTORE POP POP POP JUMP JUMPDEST PUSH1 0x0 PUSH2 0x5C08 DUP3 PUSH2 0x5B18 JUMP JUMPDEST SWAP2 POP PUSH32 0xFFFFFFFFFFFFFFFFFFFFFFFFFFFFFFFFFFFFFFFFFFFFFFFFFFFFFFFFFFFFFFFF DUP3 EQ ISZERO PUSH2 0x5C3B JUMPI PUSH2 0x5C3A PUSH2 0x5C46 JUMP JUMPDEST JUMPDEST PUSH1 0x1 DUP3 ADD SWAP1 POP SWAP2 SWAP1 POP JUMP JUMPDEST PUSH32 0x4E487B7100000000000000000000000000000000000000000000000000000000 PUSH1 0x0 MSTORE PUSH1 0x11 PUSH1 0x4 MSTORE PUSH1 0x24 PUSH1 0x0 REVERT JUMPDEST PUSH32 0x4E487B7100000000000000000000000000000000000000000000000000000000 PUSH1 0x0 MSTORE PUSH1 0x12 PUSH1 0x4 MSTORE PUSH1 0x24 PUSH1 0x0 REVERT JUMPDEST PUSH32 0x4E487B7100000000000000000000000000000000000000000000000000000000 PUSH1 0x0 MSTORE PUSH1 0x21 PUSH1 0x4 MSTORE PUSH1 0x24 PUSH1 0x0 REVERT JUMPDEST PUSH32 0x4E487B7100000000000000000000000000000000000000000000000000000000 PUSH1 0x0 MSTORE PUSH1 0x22 PUSH1 0x4 MSTORE PUSH1 0x24 PUSH1 0x0 REVERT JUMPDEST PUSH32 0x4E487B7100000000000000000000000000000000000000000000000000000000 PUSH1 0x0 MSTORE PUSH1 0x32 PUSH1 0x4 MSTORE PUSH1 0x24 PUSH1 0x0 REVERT JUMPDEST PUSH32 0x4E487B7100000000000000000000000000000000000000000000000000000000 PUSH1 0x0 MSTORE PUSH1 0x41 PUSH1 0x4 MSTORE PUSH1 0x24 PUSH1 0x0 REVERT JUMPDEST PUSH1 0x0 DUP1 REVERT JUMPDEST PUSH1 0x0 DUP1 REVERT JUMPDEST PUSH1 0x0 DUP1 REVERT JUMPDEST PUSH1 0x0 DUP1 REVERT JUMPDEST PUSH1 0x0 DUP1 REVERT JUMPDEST PUSH1 0x0 DUP1 REVERT JUMPDEST PUSH1 0x0 DUP1 REVERT JUMPDEST PUSH1 0x0 PUSH1 0x1F NOT PUSH1 0x1F DUP4 ADD AND SWAP1 POP SWAP2 SWAP1 POP JUMP JUMPDEST PUSH32 0x4F776E61626C653A206E6577206F776E657220697320746865207A65726F2061 PUSH1 0x0 DUP3 ADD MSTORE PUSH32 0x6464726573730000000000000000000000000000000000000000000000000000 PUSH1 0x20 DUP3 ADD MSTORE POP JUMP JUMPDEST PUSH32 0x7472616E736C61746F7200000000000000000000000000000000000000000000 PUSH1 0x0 DUP3 ADD MSTORE POP JUMP JUMPDEST PUSH32 0x4F6E6C792062757965722063616E2063616C6C20746869732E00000000000000 PUSH1 0x0 DUP3 ADD MSTORE POP JUMP JUMPDEST PUSH32 0x7665726966696572730000000000000000000000000000000000000000000000 PUSH1 0x0 DUP3 ADD MSTORE POP JUMP JUMPDEST PUSH32 0x7473000000000000000000000000000000000000000000000000000000000000 PUSH1 0x0 DUP3 ADD MSTORE POP JUMP JUMPDEST PUSH32 0x7472616E736C61746F7273000000000000000000000000000000000000000000 PUSH1 0x0 DUP3 ADD MSTORE POP JUMP JUMPDEST PUSH32 0x4F776E61626C653A2063616C6C6572206973206E6F7420746865206F776E6572 PUSH1 0x0 DUP3 ADD MSTORE POP JUMP JUMPDEST PUSH32 0x7666000000000000000000000000000000000000000000000000000000000000 PUSH1 0x0 DUP3 ADD MSTORE POP JUMP JUMPDEST PUSH32 0x4F7065726174696F6E457863657074696F6E3A2043616E277420726563656976 PUSH1 0x0 DUP3 ADD MSTORE PUSH32 0x65207461736B0000000000000000000000000000000000000000000000000000 PUSH1 0x20 DUP3 ADD MSTORE POP JUMP JUMPDEST PUSH1 0x6 DUP2 LT PUSH2 0x5F62 JUMPI PUSH2 0x5F61 PUSH2 0x5CA4 JUMP JUMPDEST JUMPDEST POP JUMP JUMPDEST PUSH1 0x6 DUP2 LT PUSH2 0x5F76 JUMPI PUSH2 0x5F75 PUSH2 0x5CA4 JUMP JUMPDEST JUMPDEST POP JUMP JUMPDEST PUSH1 0x8 DUP2 LT PUSH2 0x5F8A JUMPI PUSH2 0x5F89 PUSH2 0x5CA4 JUMP JUMPDEST JUMPDEST POP JUMP JUMPDEST PUSH2 0x5F96 DUP2 PUSH2 0x5AA1 JUMP JUMPDEST DUP2 EQ PUSH2 0x5FA1 JUMPI PUSH1 0x0 DUP1 REVERT JUMPDEST POP JUMP JUMPDEST PUSH2 0x5FAD DUP2 PUSH2 0x5AB3 JUMP JUMPDEST DUP2 EQ PUSH2 0x5FB8 JUMPI PUSH1 0x0 DUP1 REVERT JUMPDEST POP JUMP JUMPDEST PUSH1 0x6 DUP2 LT PUSH2 0x5FC8 JUMPI PUSH1 0x0 DUP1 REVERT JUMPDEST POP JUMP JUMPDEST PUSH1 0x6 DUP2 LT PUSH2 0x5FD8 JUMPI PUSH1 0x0 DUP1 REVERT JUMPDEST POP JUMP JUMPDEST PUSH1 0x8 DUP2 LT PUSH2 0x5FE8 JUMPI PUSH1 0x0 DUP1 REVERT JUMPDEST POP JUMP JUMPDEST PUSH2 0x5FF4 DUP2 PUSH2 0x5B18 JUMP JUMPDEST DUP2 EQ PUSH2 0x5FFF JUMPI PUSH1 0x0 DUP1 REVERT JUMPDEST POP JUMP INVALID LOG2 PUSH5 0x6970667358 0x22 SLT KECCAK256 0xBC 0xFC 0xB2 LT PUSH18 0xADC78EDE7944CF891219DDD2C750A89509BF PUSH2 0x2EF4 0x21 0x4C 0xDC PUSH32 0x6AA64736F6C6343000807003300000000000000000000000000000000000000 "
		},
		"gasEstimates": {
			"creation": {
				"codeDepositCost": "4926400",
				"executionCost": "infinite",
				"totalCost": "infinite"
			},
			"external": {
				"acceptTrans(uint256,uint256,uint256,address)": "infinite",
				"acceptTrans(uint256,uint256[],uint256,address)": "infinite",
				"acceptVf(uint256,uint256,uint256,address)": "infinite",
				"acceptVf(uint256,uint256[],uint256,address)": "infinite",
				"addProject((uint256,string,string,uint256,string,string,string[],uint256,uint256,bool,bool,uint256,((string,uint256,uint256,uint256,uint256,uint256,string),uint256,string,uint8,uint256)[],uint256,uint256))": "infinite",
				"closeTransAccept(uint256)": "infinite",
				"closeVfAccept(uint256)": "infinite",
				"getCount()": "2570",
				"getMatNumber(uint256)": "infinite",
				"getProject(uint256)": "infinite",
				"getProjectOne(uint256)": "infinite",
				"getTransNumber(uint256)": "infinite",
				"getVfNumber(uint256)": "infinite",
				"isFull(uint256,bool)": "infinite",
				"openTransAccept(uint256)": "infinite",
				"openVfAccept(uint256)": "infinite",
				"owner()": "2545",
				"renounceOwnership()": "30510",
				"transferOwnership(address)": "30791",
				"updateFileInfo(uint256,uint256,uint256,string,bool)": "infinite",
				"updateFileStateAndTime(uint256,uint256,uint8)": "infinite",
				"updateProject(uint256,(uint256,string,string,uint256,string,string,string[],uint256,uint256,bool,bool,uint256,((string,uint256,uint256,uint256,uint256,uint256,string),uint256,string,uint8,uint256)[],uint256,uint256))": "infinite",
				"updateState(uint256,uint8)": "infinite",
				"updateTaskerState(uint256,uint256,uint256,uint8,bool)": "infinite"
			},
			"internal": {
				"_addCount()": "24369"
			}
		},
		"methodIdentifiers": {
			"acceptTrans(uint256,uint256,uint256,address)": "fe4bfa4a",
			"acceptTrans(uint256,uint256[],uint256,address)": "9ec44abc",
			"acceptVf(uint256,uint256,uint256,address)": "311bcedf",
			"acceptVf(uint256,uint256[],uint256,address)": "a7788567",
			"addProject((uint256,string,string,uint256,string,string,string[],uint256,uint256,bool,bool,uint256,((string,uint256,uint256,uint256,uint256,uint256,string),uint256,string,uint8,uint256)[],uint256,uint256))": "f501aa8e",
			"closeTransAccept(uint256)": "ea60f28c",
			"closeVfAccept(uint256)": "df3a726f",
			"getCount()": "a87d942c",
			"getMatNumber(uint256)": "f2e60202",
			"getProject(uint256)": "f0f3f2c8",
			"getProjectOne(uint256)": "25e78e70",
			"getTransNumber(uint256)": "d2fed69c",
			"getVfNumber(uint256)": "f8626ebb",
			"isFull(uint256,bool)": "8a9a9ff3",
			"openTransAccept(uint256)": "4fb36606",
			"openVfAccept(uint256)": "e6cfdf1f",
			"owner()": "8da5cb5b",
			"renounceOwnership()": "715018a6",
			"transferOwnership(address)": "f2fde38b",
			"updateFileInfo(uint256,uint256,uint256,string,bool)": "ae6008e3",
			"updateFileStateAndTime(uint256,uint256,uint8)": "62583a28",
			"updateProject(uint256,(uint256,string,string,uint256,string,string,string[],uint256,uint256,bool,bool,uint256,((string,uint256,uint256,uint256,uint256,uint256,string),uint256,string,uint8,uint256)[],uint256,uint256))": "a43edcbd",
			"updateState(uint256,uint8)": "ffbafdfe",
			"updateTaskerState(uint256,uint256,uint256,uint8,bool)": "8fa49f84"
		}
	},
	"abi": [
		{
			"inputs": [
				{
					"internalType": "string",
					"name": "",
					"type": "string"
				},
				{
					"internalType": "uint256",
					"name": "",
					"type": "uint256"
				}
			],
			"name": "OperationException",
			"type": "error"
		},
		{
			"anonymous": false,
			"inputs": [
				{
					"indexed": true,
					"internalType": "address",
					"name": "previousOwner",
					"type": "address"
				},
				{
					"indexed": true,
					"internalType": "address",
					"name": "newOwner",
					"type": "address"
				}
			],
			"name": "OwnershipTransferred",
			"type": "event"
		},
		{
			"anonymous": false,
			"inputs": [
				{
					"indexed": false,
					"internalType": "uint256",
					"name": "",
					"type": "uint256"
				},
				{
					"indexed": false,
					"internalType": "uint256[]",
					"name": "",
					"type": "uint256[]"
				},
				{
					"indexed": false,
					"internalType": "uint256",
					"name": "",
					"type": "uint256"
				},
				{
					"indexed": false,
					"internalType": "address",
					"name": "",
					"type": "address"
				},
				{
					"indexed": false,
					"internalType": "string",
					"name": "",
					"type": "string"
				}
			],
			"name": "acceptTaskEv",
			"type": "event"
		},
		{
			"anonymous": false,
			"inputs": [
				{
					"indexed": false,
					"internalType": "uint256",
					"name": "",
					"type": "uint256"
				},
				{
					"indexed": false,
					"internalType": "uint256",
					"name": "",
					"type": "uint256"
				},
				{
					"indexed": false,
					"internalType": "uint256",
					"name": "",
					"type": "uint256"
				},
				{
					"indexed": false,
					"internalType": "address",
					"name": "",
					"type": "address"
				},
				{
					"indexed": false,
					"internalType": "string",
					"name": "",
					"type": "string"
				}
			],
			"name": "acceptTaskEv",
			"type": "event"
		},
		{
			"anonymous": false,
			"inputs": [
				{
					"indexed": false,
					"internalType": "address",
					"name": "",
					"type": "address"
				},
				{
					"indexed": false,
					"internalType": "uint256",
					"name": "",
					"type": "uint256"
				},
				{
					"components": [
						{
							"internalType": "uint256",
							"name": "releaseTime",
							"type": "uint256"
						},
						{
							"internalType": "string",
							"name": "introduce",
							"type": "string"
						},
						{
							"internalType": "string",
							"name": "need",
							"type": "string"
						},
						{
							"internalType": "uint256",
							"name": "deadline",
							"type": "uint256"
						},
						{
							"internalType": "string",
							"name": "sourceLanguage",
							"type": "string"
						},
						{
							"internalType": "string",
							"name": "goalLanguage",
							"type": "string"
						},
						{
							"internalType": "string[]",
							"name": "preferList",
							"type": "string[]"
						},
						{
							"internalType": "uint256",
							"name": "translationType",
							"type": "uint256"
						},
						{
							"internalType": "uint256",
							"name": "workLoad",
							"type": "uint256"
						},
						{
							"internalType": "bool",
							"name": "isNonDisclosure",
							"type": "bool"
						},
						{
							"internalType": "bool",
							"name": "isCustomize",
							"type": "bool"
						},
						{
							"internalType": "uint256",
							"name": "bounty",
							"type": "uint256"
						},
						{
							"components": [
								{
									"components": [
										{
											"internalType": "string",
											"name": "name",
											"type": "string"
										},
										{
											"internalType": "uint256",
											"name": "size",
											"type": "uint256"
										},
										{
											"internalType": "uint256",
											"name": "videoLength",
											"type": "uint256"
										},
										{
											"internalType": "uint256",
											"name": "Page",
											"type": "uint256"
										},
										{
											"internalType": "uint256",
											"name": "words",
											"type": "uint256"
										},
										{
											"internalType": "uint256",
											"name": "fileType",
											"type": "uint256"
										},
										{
											"internalType": "string",
											"name": "path",
											"type": "string"
										}
									],
									"internalType": "struct LibProject.FileInfo",
									"name": "file",
									"type": "tuple"
								},
								{
									"internalType": "uint256",
									"name": "bounty",
									"type": "uint256"
								},
								{
									"internalType": "string",
									"name": "info",
									"type": "string"
								},
								{
									"internalType": "enum LibProject.FileState",
									"name": "state",
									"type": "uint8"
								},
								{
									"internalType": "uint256",
									"name": "lastUpload",
									"type": "uint256"
								}
							],
							"internalType": "struct LibProject.TaskInfo[]",
							"name": "tasks",
							"type": "tuple[]"
						},
						{
							"internalType": "uint256",
							"name": "maxT",
							"type": "uint256"
						},
						{
							"internalType": "uint256",
							"name": "maxV",
							"type": "uint256"
						}
					],
					"indexed": false,
					"internalType": "struct LibProject.ProParm",
					"name": "",
					"type": "tuple"
				}
			],
			"name": "addProjectEv",
			"type": "event"
		},
		{
			"anonymous": false,
			"inputs": [
				{
					"indexed": false,
					"internalType": "uint256",
					"name": "",
					"type": "uint256"
				},
				{
					"indexed": false,
					"internalType": "uint256",
					"name": "",
					"type": "uint256"
				},
				{
					"indexed": false,
					"internalType": "uint256",
					"name": "",
					"type": "uint256"
				},
				{
					"indexed": false,
					"internalType": "address",
					"name": "",
					"type": "address"
				},
				{
					"indexed": false,
					"internalType": "string",
					"name": "",
					"type": "string"
				},
				{
					"indexed": false,
					"internalType": "bool",
					"name": "",
					"type": "bool"
				}
			],
			"name": "updateFileInfoEv",
			"type": "event"
		},
		{
			"anonymous": false,
			"inputs": [
				{
					"indexed": false,
					"internalType": "uint256",
					"name": "",
					"type": "uint256"
				},
				{
					"indexed": false,
					"internalType": "uint256",
					"name": "",
					"type": "uint256"
				},
				{
					"indexed": false,
					"internalType": "address",
					"name": "",
					"type": "address"
				},
				{
					"indexed": false,
					"internalType": "enum LibProject.FileState",
					"name": "",
					"type": "uint8"
				}
			],
			"name": "updateFileStateAndTimeEv",
			"type": "event"
		},
		{
			"anonymous": false,
			"inputs": [
				{
					"indexed": false,
					"internalType": "uint256",
					"name": "",
					"type": "uint256"
				},
				{
					"indexed": false,
					"internalType": "enum LibProject.ProjectState",
					"name": "",
					"type": "uint8"
				}
			],
			"name": "updateProSateEv",
			"type": "event"
		},
		{
			"anonymous": false,
			"inputs": [
				{
					"indexed": false,
					"internalType": "uint256",
					"name": "",
					"type": "uint256"
				},
				{
					"components": [
						{
							"internalType": "uint256",
							"name": "releaseTime",
							"type": "uint256"
						},
						{
							"internalType": "string",
							"name": "introduce",
							"type": "string"
						},
						{
							"internalType": "string",
							"name": "need",
							"type": "string"
						},
						{
							"internalType": "uint256",
							"name": "deadline",
							"type": "uint256"
						},
						{
							"internalType": "string",
							"name": "sourceLanguage",
							"type": "string"
						},
						{
							"internalType": "string",
							"name": "goalLanguage",
							"type": "string"
						},
						{
							"internalType": "string[]",
							"name": "preferList",
							"type": "string[]"
						},
						{
							"internalType": "uint256",
							"name": "translationType",
							"type": "uint256"
						},
						{
							"internalType": "uint256",
							"name": "workLoad",
							"type": "uint256"
						},
						{
							"internalType": "bool",
							"name": "isNonDisclosure",
							"type": "bool"
						},
						{
							"internalType": "bool",
							"name": "isCustomize",
							"type": "bool"
						},
						{
							"internalType": "uint256",
							"name": "bounty",
							"type": "uint256"
						},
						{
							"components": [
								{
									"components": [
										{
											"internalType": "string",
											"name": "name",
											"type": "string"
										},
										{
											"internalType": "uint256",
											"name": "size",
											"type": "uint256"
										},
										{
											"internalType": "uint256",
											"name": "videoLength",
											"type": "uint256"
										},
										{
											"internalType": "uint256",
											"name": "Page",
											"type": "uint256"
										},
										{
											"internalType": "uint256",
											"name": "words",
											"type": "uint256"
										},
										{
											"internalType": "uint256",
											"name": "fileType",
											"type": "uint256"
										},
										{
											"internalType": "string",
											"name": "path",
											"type": "string"
										}
									],
									"internalType": "struct LibProject.FileInfo",
									"name": "file",
									"type": "tuple"
								},
								{
									"internalType": "uint256",
									"name": "bounty",
									"type": "uint256"
								},
								{
									"internalType": "string",
									"name": "info",
									"type": "string"
								},
								{
									"internalType": "enum LibProject.FileState",
									"name": "state",
									"type": "uint8"
								},
								{
									"internalType": "uint256",
									"name": "lastUpload",
									"type": "uint256"
								}
							],
							"internalType": "struct LibProject.TaskInfo[]",
							"name": "tasks",
							"type": "tuple[]"
						},
						{
							"internalType": "uint256",
							"name": "maxT",
							"type": "uint256"
						},
						{
							"internalType": "uint256",
							"name": "maxV",
							"type": "uint256"
						}
					],
					"indexed": false,
					"internalType": "struct LibProject.ProParm",
					"name": "",
					"type": "tuple"
				}
			],
			"name": "updateProjectEv",
			"type": "event"
		},
		{
			"anonymous": false,
			"inputs": [
				{
					"indexed": false,
					"internalType": "uint256",
					"name": "",
					"type": "uint256"
				},
				{
					"indexed": false,
					"internalType": "uint256",
					"name": "",
					"type": "uint256"
				},
				{
					"indexed": false,
					"internalType": "uint256",
					"name": "",
					"type": "uint256"
				},
				{
					"indexed": false,
					"internalType": "address",
					"name": "",
					"type": "address"
				},
				{
					"indexed": false,
					"internalType": "enum LibProject.TaskerState",
					"name": "",
					"type": "uint8"
				},
				{
					"indexed": false,
					"internalType": "bool",
					"name": "",
					"type": "bool"
				}
			],
			"name": "updateTaskerStateEv",
			"type": "event"
		},
		{
			"anonymous": false,
			"inputs": [
				{
					"indexed": false,
					"internalType": "address",
					"name": "",
					"type": "address"
				},
				{
					"indexed": false,
					"internalType": "uint256",
					"name": "",
					"type": "uint256"
				},
				{
					"indexed": false,
					"internalType": "string",
					"name": "",
					"type": "string"
				},
				{
					"indexed": false,
					"internalType": "bool",
					"name": "",
					"type": "bool"
				}
			],
			"name": "uploadAcceptStateEv",
			"type": "event"
		},
		{
			"inputs": [
				{
					"internalType": "uint256",
					"name": "_index",
					"type": "uint256"
				},
				{
					"internalType": "uint256[]",
					"name": "_fileIndex",
					"type": "uint256[]"
				},
				{
					"internalType": "uint256",
					"name": "_taskerIndex",
					"type": "uint256"
				},
				{
					"internalType": "address",
					"name": "_tasker",
					"type": "address"
				}
			],
			"name": "acceptTrans",
			"outputs": [],
			"stateMutability": "nonpayable",
			"type": "function"
		},
		{
			"inputs": [
				{
					"internalType": "uint256",
					"name": "_index",
					"type": "uint256"
				},
				{
					"internalType": "uint256",
					"name": "_fileIndex",
					"type": "uint256"
				},
				{
					"internalType": "uint256",
					"name": "_taskerIndex",
					"type": "uint256"
				},
				{
					"internalType": "address",
					"name": "_tasker",
					"type": "address"
				}
			],
			"name": "acceptTrans",
			"outputs": [],
			"stateMutability": "nonpayable",
			"type": "function"
		},
		{
			"inputs": [
				{
					"internalType": "uint256",
					"name": "_index",
					"type": "uint256"
				},
				{
					"internalType": "uint256",
					"name": "_fileIndex",
					"type": "uint256"
				},
				{
					"internalType": "uint256",
					"name": "_taskerIndex",
					"type": "uint256"
				},
				{
					"internalType": "address",
					"name": "_tasker",
					"type": "address"
				}
			],
			"name": "acceptVf",
			"outputs": [],
			"stateMutability": "nonpayable",
			"type": "function"
		},
		{
			"inputs": [
				{
					"internalType": "uint256",
					"name": "_index",
					"type": "uint256"
				},
				{
					"internalType": "uint256[]",
					"name": "_fileIndex",
					"type": "uint256[]"
				},
				{
					"internalType": "uint256",
					"name": "_taskerIndex",
					"type": "uint256"
				},
				{
					"internalType": "address",
					"name": "_tasker",
					"type": "address"
				}
			],
			"name": "acceptVf",
			"outputs": [],
			"stateMutability": "nonpayable",
			"type": "function"
		},
		{
			"inputs": [
				{
					"components": [
						{
							"internalType": "uint256",
							"name": "releaseTime",
							"type": "uint256"
						},
						{
							"internalType": "string",
							"name": "introduce",
							"type": "string"
						},
						{
							"internalType": "string",
							"name": "need",
							"type": "string"
						},
						{
							"internalType": "uint256",
							"name": "deadline",
							"type": "uint256"
						},
						{
							"internalType": "string",
							"name": "sourceLanguage",
							"type": "string"
						},
						{
							"internalType": "string",
							"name": "goalLanguage",
							"type": "string"
						},
						{
							"internalType": "string[]",
							"name": "preferList",
							"type": "string[]"
						},
						{
							"internalType": "uint256",
							"name": "translationType",
							"type": "uint256"
						},
						{
							"internalType": "uint256",
							"name": "workLoad",
							"type": "uint256"
						},
						{
							"internalType": "bool",
							"name": "isNonDisclosure",
							"type": "bool"
						},
						{
							"internalType": "bool",
							"name": "isCustomize",
							"type": "bool"
						},
						{
							"internalType": "uint256",
							"name": "bounty",
							"type": "uint256"
						},
						{
							"components": [
								{
									"components": [
										{
											"internalType": "string",
											"name": "name",
											"type": "string"
										},
										{
											"internalType": "uint256",
											"name": "size",
											"type": "uint256"
										},
										{
											"internalType": "uint256",
											"name": "videoLength",
											"type": "uint256"
										},
										{
											"internalType": "uint256",
											"name": "Page",
											"type": "uint256"
										},
										{
											"internalType": "uint256",
											"name": "words",
											"type": "uint256"
										},
										{
											"internalType": "uint256",
											"name": "fileType",
											"type": "uint256"
										},
										{
											"internalType": "string",
											"name": "path",
											"type": "string"
										}
									],
									"internalType": "struct LibProject.FileInfo",
									"name": "file",
									"type": "tuple"
								},
								{
									"internalType": "uint256",
									"name": "bounty",
									"type": "uint256"
								},
								{
									"internalType": "string",
									"name": "info",
									"type": "string"
								},
								{
									"internalType": "enum LibProject.FileState",
									"name": "state",
									"type": "uint8"
								},
								{
									"internalType": "uint256",
									"name": "lastUpload",
									"type": "uint256"
								}
							],
							"internalType": "struct LibProject.TaskInfo[]",
							"name": "tasks",
							"type": "tuple[]"
						},
						{
							"internalType": "uint256",
							"name": "maxT",
							"type": "uint256"
						},
						{
							"internalType": "uint256",
							"name": "maxV",
							"type": "uint256"
						}
					],
					"internalType": "struct LibProject.ProParm",
					"name": "_t",
					"type": "tuple"
				}
			],
			"name": "addProject",
			"outputs": [
				{
					"internalType": "uint256",
					"name": "",
					"type": "uint256"
				}
			],
			"stateMutability": "nonpayable",
			"type": "function"
		},
		{
			"inputs": [
				{
					"internalType": "uint256",
					"name": "_index",
					"type": "uint256"
				}
			],
			"name": "closeTransAccept",
			"outputs": [],
			"stateMutability": "nonpayable",
			"type": "function"
		},
		{
			"inputs": [
				{
					"internalType": "uint256",
					"name": "_index",
					"type": "uint256"
				}
			],
			"name": "closeVfAccept",
			"outputs": [],
			"stateMutability": "nonpayable",
			"type": "function"
		},
		{
			"inputs": [],
			"name": "getCount",
			"outputs": [
				{
					"internalType": "uint256",
					"name": "",
					"type": "uint256"
				}
			],
			"stateMutability": "view",
			"type": "function"
		},
		{
			"inputs": [
				{
					"internalType": "uint256",
					"name": "_transNumber",
					"type": "uint256"
				}
			],
			"name": "getMatNumber",
			"outputs": [
				{
					"internalType": "uint256",
					"name": "",
					"type": "uint256"
				}
			],
			"stateMutability": "view",
			"type": "function"
		},
		{
			"inputs": [
				{
					"internalType": "uint256",
					"name": "_index",
					"type": "uint256"
				}
			],
			"name": "getProject",
			"outputs": [
				{
					"components": [
						{
							"internalType": "address",
							"name": "buyer",
							"type": "address"
						},
						{
							"internalType": "uint256",
							"name": "releaseTime",
							"type": "uint256"
						},
						{
							"internalType": "string",
							"name": "introduce",
							"type": "string"
						},
						{
							"internalType": "string",
							"name": "need",
							"type": "string"
						},
						{
							"internalType": "uint256",
							"name": "deadline",
							"type": "uint256"
						},
						{
							"internalType": "string",
							"name": "sourceLanguage",
							"type": "string"
						},
						{
							"internalType": "string",
							"name": "goalLanguage",
							"type": "string"
						},
						{
							"internalType": "string[]",
							"name": "preferList",
							"type": "string[]"
						},
						{
							"internalType": "uint256",
							"name": "translationType",
							"type": "uint256"
						},
						{
							"internalType": "uint256",
							"name": "workLoad",
							"type": "uint256"
						},
						{
							"internalType": "bool",
							"name": "isNonDisclosure",
							"type": "bool"
						},
						{
							"internalType": "bool",
							"name": "isCustomize",
							"type": "bool"
						},
						{
							"internalType": "uint256",
							"name": "bounty",
							"type": "uint256"
						},
						{
							"components": [
								{
									"components": [
										{
											"internalType": "string",
											"name": "name",
											"type": "string"
										},
										{
											"internalType": "uint256",
											"name": "size",
											"type": "uint256"
										},
										{
											"internalType": "uint256",
											"name": "videoLength",
											"type": "uint256"
										},
										{
											"internalType": "uint256",
											"name": "Page",
											"type": "uint256"
										},
										{
											"internalType": "uint256",
											"name": "words",
											"type": "uint256"
										},
										{
											"internalType": "uint256",
											"name": "fileType",
											"type": "uint256"
										},
										{
											"internalType": "string",
											"name": "path",
											"type": "string"
										}
									],
									"internalType": "struct LibProject.FileInfo",
									"name": "file",
									"type": "tuple"
								},
								{
									"internalType": "uint256",
									"name": "bounty",
									"type": "uint256"
								},
								{
									"internalType": "string",
									"name": "info",
									"type": "string"
								},
								{
									"internalType": "enum LibProject.FileState",
									"name": "state",
									"type": "uint8"
								},
								{
									"internalType": "uint256",
									"name": "lastUpload",
									"type": "uint256"
								}
							],
							"internalType": "struct LibProject.TaskInfo[]",
							"name": "tasks",
							"type": "tuple[]"
						},
						{
							"components": [
								{
									"internalType": "address",
									"name": "taskerAddress",
									"type": "address"
								},
								{
									"internalType": "uint256[]",
									"name": "taskIndex",
									"type": "uint256[]"
								},
								{
									"internalType": "enum LibProject.TaskerState[]",
									"name": "states",
									"type": "uint8[]"
								},
								{
									"internalType": "string[]",
									"name": "files",
									"type": "string[]"
								}
							],
							"internalType": "struct LibProject.Tasker[]",
							"name": "translators",
							"type": "tuple[]"
						},
						{
							"components": [
								{
									"internalType": "address",
									"name": "taskerAddress",
									"type": "address"
								},
								{
									"internalType": "uint256[]",
									"name": "taskIndex",
									"type": "uint256[]"
								},
								{
									"internalType": "enum LibProject.TaskerState[]",
									"name": "states",
									"type": "uint8[]"
								},
								{
									"internalType": "string[]",
									"name": "files",
									"type": "string[]"
								}
							],
							"internalType": "struct LibProject.Tasker[]",
							"name": "verifiers",
							"type": "tuple[]"
						},
						{
							"internalType": "uint256",
							"name": "maxT",
							"type": "uint256"
						},
						{
							"internalType": "uint256",
							"name": "maxV",
							"type": "uint256"
						},
						{
							"internalType": "bool",
							"name": "isTransActive",
							"type": "bool"
						},
						{
							"internalType": "bool",
							"name": "isVerActive",
							"type": "bool"
						},
						{
							"internalType": "enum LibProject.ProjectState",
							"name": "state",
							"type": "uint8"
						}
					],
					"internalType": "struct LibProject.TranslationPro",
					"name": "",
					"type": "tuple"
				}
			],
			"stateMutability": "view",
			"type": "function"
		},
		{
			"inputs": [
				{
					"internalType": "uint256",
					"name": "_index",
					"type": "uint256"
				}
			],
			"name": "getProjectOne",
			"outputs": [
				{
					"components": [
						{
							"internalType": "address",
							"name": "buyer",
							"type": "address"
						},
						{
							"internalType": "uint256",
							"name": "releaseTime",
							"type": "uint256"
						},
						{
							"internalType": "string",
							"name": "introduce",
							"type": "string"
						},
						{
							"internalType": "string",
							"name": "need",
							"type": "string"
						},
						{
							"internalType": "uint256",
							"name": "deadline",
							"type": "uint256"
						},
						{
							"internalType": "string",
							"name": "sourceLanguage",
							"type": "string"
						},
						{
							"internalType": "string",
							"name": "goalLanguage",
							"type": "string"
						},
						{
							"internalType": "string[]",
							"name": "preferList",
							"type": "string[]"
						},
						{
							"internalType": "uint256",
							"name": "translationType",
							"type": "uint256"
						},
						{
							"internalType": "uint256",
							"name": "workLoad",
							"type": "uint256"
						},
						{
							"internalType": "bool",
							"name": "isNonDisclosure",
							"type": "bool"
						},
						{
							"internalType": "bool",
							"name": "isCustomize",
							"type": "bool"
						},
						{
							"internalType": "uint256",
							"name": "bounty",
							"type": "uint256"
						},
						{
							"components": [
								{
									"components": [
										{
											"internalType": "string",
											"name": "name",
											"type": "string"
										},
										{
											"internalType": "uint256",
											"name": "size",
											"type": "uint256"
										},
										{
											"internalType": "uint256",
											"name": "videoLength",
											"type": "uint256"
										},
										{
											"internalType": "uint256",
											"name": "Page",
											"type": "uint256"
										},
										{
											"internalType": "uint256",
											"name": "words",
											"type": "uint256"
										},
										{
											"internalType": "uint256",
											"name": "fileType",
											"type": "uint256"
										},
										{
											"internalType": "string",
											"name": "path",
											"type": "string"
										}
									],
									"internalType": "struct LibProject.FileInfo",
									"name": "file",
									"type": "tuple"
								},
								{
									"internalType": "uint256",
									"name": "bounty",
									"type": "uint256"
								},
								{
									"internalType": "string",
									"name": "info",
									"type": "string"
								},
								{
									"internalType": "enum LibProject.FileState",
									"name": "state",
									"type": "uint8"
								},
								{
									"internalType": "uint256",
									"name": "lastUpload",
									"type": "uint256"
								}
							],
							"internalType": "struct LibProject.TaskInfo[]",
							"name": "tasks",
							"type": "tuple[]"
						},
						{
							"components": [
								{
									"internalType": "address",
									"name": "taskerAddress",
									"type": "address"
								},
								{
									"internalType": "uint256[]",
									"name": "taskIndex",
									"type": "uint256[]"
								},
								{
									"internalType": "enum LibProject.TaskerState[]",
									"name": "states",
									"type": "uint8[]"
								},
								{
									"internalType": "string[]",
									"name": "files",
									"type": "string[]"
								}
							],
							"internalType": "struct LibProject.Tasker[]",
							"name": "translators",
							"type": "tuple[]"
						},
						{
							"components": [
								{
									"internalType": "address",
									"name": "taskerAddress",
									"type": "address"
								},
								{
									"internalType": "uint256[]",
									"name": "taskIndex",
									"type": "uint256[]"
								},
								{
									"internalType": "enum LibProject.TaskerState[]",
									"name": "states",
									"type": "uint8[]"
								},
								{
									"internalType": "string[]",
									"name": "files",
									"type": "string[]"
								}
							],
							"internalType": "struct LibProject.Tasker[]",
							"name": "verifiers",
							"type": "tuple[]"
						},
						{
							"internalType": "uint256",
							"name": "maxT",
							"type": "uint256"
						},
						{
							"internalType": "uint256",
							"name": "maxV",
							"type": "uint256"
						},
						{
							"internalType": "bool",
							"name": "isTransActive",
							"type": "bool"
						},
						{
							"internalType": "bool",
							"name": "isVerActive",
							"type": "bool"
						},
						{
							"internalType": "enum LibProject.ProjectState",
							"name": "state",
							"type": "uint8"
						}
					],
					"internalType": "struct LibProject.TranslationPro",
					"name": "",
					"type": "tuple"
				}
			],
			"stateMutability": "view",
			"type": "function"
		},
		{
			"inputs": [
				{
					"internalType": "uint256",
					"name": "_index",
					"type": "uint256"
				}
			],
			"name": "getTransNumber",
			"outputs": [
				{
					"internalType": "uint256",
					"name": "",
					"type": "uint256"
				}
			],
			"stateMutability": "view",
			"type": "function"
		},
		{
			"inputs": [
				{
					"internalType": "uint256",
					"name": "_index",
					"type": "uint256"
				}
			],
			"name": "getVfNumber",
			"outputs": [
				{
					"internalType": "uint256",
					"name": "",
					"type": "uint256"
				}
			],
			"stateMutability": "view",
			"type": "function"
		},
		{
			"inputs": [
				{
					"internalType": "uint256",
					"name": "_index",
					"type": "uint256"
				},
				{
					"internalType": "bool",
					"name": "_isTrans",
					"type": "bool"
				}
			],
			"name": "isFull",
			"outputs": [
				{
					"internalType": "bool",
					"name": "",
					"type": "bool"
				}
			],
			"stateMutability": "view",
			"type": "function"
		},
		{
			"inputs": [
				{
					"internalType": "uint256",
					"name": "_index",
					"type": "uint256"
				}
			],
			"name": "openTransAccept",
			"outputs": [],
			"stateMutability": "nonpayable",
			"type": "function"
		},
		{
			"inputs": [
				{
					"internalType": "uint256",
					"name": "_index",
					"type": "uint256"
				}
			],
			"name": "openVfAccept",
			"outputs": [],
			"stateMutability": "nonpayable",
			"type": "function"
		},
		{
			"inputs": [],
			"name": "owner",
			"outputs": [
				{
					"internalType": "address",
					"name": "",
					"type": "address"
				}
			],
			"stateMutability": "view",
			"type": "function"
		},
		{
			"inputs": [],
			"name": "renounceOwnership",
			"outputs": [],
			"stateMutability": "nonpayable",
			"type": "function"
		},
		{
			"inputs": [
				{
					"internalType": "address",
					"name": "newOwner",
					"type": "address"
				}
			],
			"name": "transferOwnership",
			"outputs": [],
			"stateMutability": "nonpayable",
			"type": "function"
		},
		{
			"inputs": [
				{
					"internalType": "uint256",
					"name": "_index",
					"type": "uint256"
				},
				{
					"internalType": "uint256",
					"name": "_taskerIndex",
					"type": "uint256"
				},
				{
					"internalType": "uint256",
					"name": "_fileIndex",
					"type": "uint256"
				},
				{
					"internalType": "string",
					"name": "_fileInfo",
					"type": "string"
				},
				{
					"internalType": "bool",
					"name": "_isTrans",
					"type": "bool"
				}
			],
			"name": "updateFileInfo",
			"outputs": [],
			"stateMutability": "nonpayable",
			"type": "function"
		},
		{
			"inputs": [
				{
					"internalType": "uint256",
					"name": "_index",
					"type": "uint256"
				},
				{
					"internalType": "uint256",
					"name": "_fileIndex",
					"type": "uint256"
				},
				{
					"internalType": "enum LibProject.FileState",
					"name": "_state",
					"type": "uint8"
				}
			],
			"name": "updateFileStateAndTime",
			"outputs": [],
			"stateMutability": "nonpayable",
			"type": "function"
		},
		{
			"inputs": [
				{
					"internalType": "uint256",
					"name": "_index",
					"type": "uint256"
				},
				{
					"components": [
						{
							"internalType": "uint256",
							"name": "releaseTime",
							"type": "uint256"
						},
						{
							"internalType": "string",
							"name": "introduce",
							"type": "string"
						},
						{
							"internalType": "string",
							"name": "need",
							"type": "string"
						},
						{
							"internalType": "uint256",
							"name": "deadline",
							"type": "uint256"
						},
						{
							"internalType": "string",
							"name": "sourceLanguage",
							"type": "string"
						},
						{
							"internalType": "string",
							"name": "goalLanguage",
							"type": "string"
						},
						{
							"internalType": "string[]",
							"name": "preferList",
							"type": "string[]"
						},
						{
							"internalType": "uint256",
							"name": "translationType",
							"type": "uint256"
						},
						{
							"internalType": "uint256",
							"name": "workLoad",
							"type": "uint256"
						},
						{
							"internalType": "bool",
							"name": "isNonDisclosure",
							"type": "bool"
						},
						{
							"internalType": "bool",
							"name": "isCustomize",
							"type": "bool"
						},
						{
							"internalType": "uint256",
							"name": "bounty",
							"type": "uint256"
						},
						{
							"components": [
								{
									"components": [
										{
											"internalType": "string",
											"name": "name",
											"type": "string"
										},
										{
											"internalType": "uint256",
											"name": "size",
											"type": "uint256"
										},
										{
											"internalType": "uint256",
											"name": "videoLength",
											"type": "uint256"
										},
										{
											"internalType": "uint256",
											"name": "Page",
											"type": "uint256"
										},
										{
											"internalType": "uint256",
											"name": "words",
											"type": "uint256"
										},
										{
											"internalType": "uint256",
											"name": "fileType",
											"type": "uint256"
										},
										{
											"internalType": "string",
											"name": "path",
											"type": "string"
										}
									],
									"internalType": "struct LibProject.FileInfo",
									"name": "file",
									"type": "tuple"
								},
								{
									"internalType": "uint256",
									"name": "bounty",
									"type": "uint256"
								},
								{
									"internalType": "string",
									"name": "info",
									"type": "string"
								},
								{
									"internalType": "enum LibProject.FileState",
									"name": "state",
									"type": "uint8"
								},
								{
									"internalType": "uint256",
									"name": "lastUpload",
									"type": "uint256"
								}
							],
							"internalType": "struct LibProject.TaskInfo[]",
							"name": "tasks",
							"type": "tuple[]"
						},
						{
							"internalType": "uint256",
							"name": "maxT",
							"type": "uint256"
						},
						{
							"internalType": "uint256",
							"name": "maxV",
							"type": "uint256"
						}
					],
					"internalType": "struct LibProject.ProParm",
					"name": "_t",
					"type": "tuple"
				}
			],
			"name": "updateProject",
			"outputs": [],
			"stateMutability": "nonpayable",
			"type": "function"
		},
		{
			"inputs": [
				{
					"internalType": "uint256",
					"name": "_index",
					"type": "uint256"
				},
				{
					"internalType": "enum LibProject.ProjectState",
					"name": "_state",
					"type": "uint8"
				}
			],
			"name": "updateState",
			"outputs": [],
			"stateMutability": "nonpayable",
			"type": "function"
		},
		{
			"inputs": [
				{
					"internalType": "uint256",
					"name": "_index",
					"type": "uint256"
				},
				{
					"internalType": "uint256",
					"name": "_taskerIndex",
					"type": "uint256"
				},
				{
					"internalType": "uint256",
					"name": "_stateIndex",
					"type": "uint256"
				},
				{
					"internalType": "enum LibProject.TaskerState",
					"name": "_state",
					"type": "uint8"
				},
				{
					"internalType": "bool",
					"name": "_isTrans",
					"type": "bool"
				}
			],
			"name": "updateTaskerState",
			"outputs": [],
			"stateMutability": "nonpayable",
			"type": "function"
		}
	]
}