{
	"data": {
		"bytecode": {
			"linkReferences": {
				"utils/calculateUtils.sol": {
					"CalculateUtils": [
						{
							"length": 20,
							"start": 1822
						},
						{
							"length": 20,
							"start": 5191
						},
						{
							"length": 20,
							"start": 9117
						},
						{
							"length": 20,
							"start": 9264
						},
						{
							"length": 20,
							"start": 10796
						},
						{
							"length": 20,
							"start": 10943
						}
					]
				}
			},
			"object": "60806040523480156200001157600080fd5b5060405162006cdb38038062006cdb833981810160405281019062000037919062000182565b620000576200004b6200009f60201b60201c565b620000a760201b60201c565b80600160006101000a81548173ffffffffffffffffffffffffffffffffffffffff021916908373ffffffffffffffffffffffffffffffffffffffff1602179055505062000207565b600033905090565b60008060009054906101000a900473ffffffffffffffffffffffffffffffffffffffff169050816000806101000a81548173ffffffffffffffffffffffffffffffffffffffff021916908373ffffffffffffffffffffffffffffffffffffffff1602179055508173ffffffffffffffffffffffffffffffffffffffff168173ffffffffffffffffffffffffffffffffffffffff167f8be0079c531659141344cd1fd0a4f28419497f9722a3daafe3b4186f6b6457e060405160405180910390a35050565b6000815190506200017c81620001ed565b92915050565b6000602082840312156200019b576200019a620001e8565b5b6000620001ab848285016200016b565b91505092915050565b6000620001c182620001c8565b9050919050565b600073ffffffffffffffffffffffffffffffffffffffff82169050919050565b600080fd5b620001f881620001b4565b81146200020457600080fd5b50565b616ac480620002176000396000f3fe6080604052600436106101185760003560e01c8063715018a6116100a0578063ac35cd6111610064578063ac35cd611461032e578063bb0c38c01461035e578063d1a1b99914610387578063f2fde38b146103c4578063fa4c6473146103ed5761011f565b8063715018a61461027157806378a1e6cd146102885780638adc74a5146102b15780638da5cb5b146102da578063a55af701146103055761011f565b806336d61ae0116100e757806336d61ae0146101ad5780633bd14e13146101ea5780633ccfd60b14610213578063460968dd1461022a5780635b0ef140146102345761011f565b806309a02f58146101215780630c11dedd1461013d5780632296888514610159578063243634bf146101845761011f565b3661011f57005b005b61013b600480360381019061013691906151b9565b610416565b005b61015760048036038101906101529190614dbe565b6105f9565b005b34801561016557600080fd5b5061016e610769565b60405161017b9190615f14565b60405180910390f35b34801561019057600080fd5b506101ab60048036038101906101a691906150c6565b610771565b005b3480156101b957600080fd5b506101d460048036038101906101cf919061501f565b61088d565b6040516101e19190615f14565b60405180910390f35b3480156101f657600080fd5b50610211600480360381019061020c919061515d565b610a1a565b005b34801561021f57600080fd5b50610228610c81565b005b610232610c93565b005b34801561024057600080fd5b5061025b6004803603810190610256919061501f565b610d7d565b6040516102689190615f14565b60405180910390f35b34801561027d57600080fd5b50610286610f0a565b005b34801561029457600080fd5b506102af60048036038101906102aa919061505f565b610f1e565b005b3480156102bd57600080fd5b506102d860048036038101906102d39190614fc5565b611014565b005b3480156102e657600080fd5b506102ef611105565b6040516102fc9190615ca4565b60405180910390f35b34801561031157600080fd5b5061032c60048036038101906103279190614fc5565b61112e565b005b61034860048036038101906103439190614f33565b61121f565b6040516103559190615f14565b60405180910390f35b34801561036a57600080fd5b5061038560048036038101906103809190615215565b611322565b005b34801561039357600080fd5b506103ae60048036038101906103a99190614fc5565b611416565b6040516103bb9190615ed7565b60405180910390f35b3480156103d057600080fd5b506103eb60048036038101906103e69190614dbe565b6115b9565b005b3480156103f957600080fd5b50610414600480360381019061040f919061515d565b61163d565b005b81600160009054906101000a900473ffffffffffffffffffffffffffffffffffffffff1673ffffffffffffffffffffffffffffffffffffffff1663a87d942c6040518163ffffffff1660e01b815260040160206040518083038186803b15801561047f57600080fd5b505afa158015610493573d6000803e3d6000fd5b505050506040513d601f19601f820116820180604052508101906104b79190614ff2565b8111156104f9576040517fd1d89b740000000000000000000000000000000000000000000000000000000081526004016104f090615dc7565b60405180910390fd5b61050383836118a4565b600073__$2753dcdd519b03fd573aecec08c92b1fcb$__63f74f3655846101600151601e6040518363ffffffff1660e01b8152600401610544929190616172565b60206040518083038186803b15801561055c57600080fd5b505af4158015610570573d6000803e3d6000fd5b505050506040513d601f19601f820116820180604052508101906105949190614ff2565b9050670de0b6b3a7640000816105aa919061651f565b34146105eb576040517fd1d89b740000000000000000000000000000000000000000000000000000000081526004016105e290615e27565b60405180910390fd5b6105f3610c93565b50505050565b600060149054906101000a900460ff1615610649576040517f08c379a000000000000000000000000000000000000000000000000000000000815260040161064090615e07565b60405180910390fd5b6001600060146101000a81548160ff02191690831515021790555060008173ffffffffffffffffffffffffffffffffffffffff163460405161068a90615c8f565b60006040518083038185875af1925050503d80600081146106c7576040519150601f19603f3d011682016040523d82523d6000602084013e6106cc565b606091505b5050905080610710576040517f08c379a000000000000000000000000000000000000000000000000000000000815260040161070790615da7565b60405180910390fd5b7fb37bd6f3ccfce130859d4569dc432409f423a7928e73eb5c5049a94e40f0c64833833460405161074393929190615cbf565b60405180910390a15060008060146101000a81548160ff02191690831515021790555050565b600047905090565b84600160009054906101000a900473ffffffffffffffffffffffffffffffffffffffff1673ffffffffffffffffffffffffffffffffffffffff1663a87d942c6040518163ffffffff1660e01b815260040160206040518083038186803b1580156107da57600080fd5b505afa1580156107ee573d6000803e3d6000fd5b505050506040513d601f19601f820116820180604052508101906108129190614ff2565b811115610854576040517fd1d89b7400000000000000000000000000000000000000000000000000000000815260040161084b90615dc7565b60405180910390fd5b60006108638787878787611972565b905060008111156108845761087781611c1a565b90506108838682611c2e565b5b50505050505050565b600082600160009054906101000a900473ffffffffffffffffffffffffffffffffffffffff1673ffffffffffffffffffffffffffffffffffffffff1663a87d942c6040518163ffffffff1660e01b815260040160206040518083038186803b1580156108f857600080fd5b505afa15801561090c573d6000803e3d6000fd5b505050506040513d601f19601f820116820180604052508101906109309190614ff2565b811115610972576040517fd1d89b7400000000000000000000000000000000000000000000000000000000815260040161096990615dc7565b60405180910390fd5b600061097e8585611d8a565b9050600160009054906101000a900473ffffffffffffffffffffffffffffffffffffffff1673ffffffffffffffffffffffffffffffffffffffff1663172372c285836040518363ffffffff1660e01b81526004016109dd929190615cf6565b600060405180830381600087803b1580156109f757600080fd5b505af1158015610a0b573d6000803e3d6000fd5b50505050809250505092915050565b81600160009054906101000a900473ffffffffffffffffffffffffffffffffffffffff1673ffffffffffffffffffffffffffffffffffffffff1663a87d942c6040518163ffffffff1660e01b815260040160206040518083038186803b158015610a8357600080fd5b505afa158015610a97573d6000803e3d6000fd5b505050506040513d601f19601f82011682018060405250810190610abb9190614ff2565b811115610afd576040517fd1d89b74000000000000000000000000000000000000000000000000000000008152600401610af490615dc7565b60405180910390fd5b82600160009054906101000a900473ffffffffffffffffffffffffffffffffffffffff1673ffffffffffffffffffffffffffffffffffffffff1663546677aa826040518263ffffffff1660e01b8152600401610b599190615f14565b60206040518083038186803b158015610b7157600080fd5b505afa158015610b85573d6000803e3d6000fd5b505050506040513d601f19601f82011682018060405250810190610ba99190614f06565b610bea57806040517fa0f2fa6e000000000000000000000000000000000000000000000000000000008152600401610be19190615e87565b60405180910390fd5b600160009054906101000a900473ffffffffffffffffffffffffffffffffffffffff1673ffffffffffffffffffffffffffffffffffffffff1663a15d194c8585336040518463ffffffff1660e01b8152600401610c499392919061610b565b600060405180830381600087803b158015610c6357600080fd5b505af1158015610c77573d6000803e3d6000fd5b5050505050505050565b610c896122b1565b610c9161232f565b565b60003073ffffffffffffffffffffffffffffffffffffffff1634604051610cb990615c8f565b60006040518083038185875af1925050503d8060008114610cf6576040519150601f19603f3d011682016040523d82523d6000602084013e610cfb565b606091505b5050905080610d3f576040517f08c379a0000000000000000000000000000000000000000000000000000000008152600401610d3690615da7565b60405180910390fd5b7fb37bd6f3ccfce130859d4569dc432409f423a7928e73eb5c5049a94e40f0c648333034604051610d7293929190615cbf565b60405180910390a150565b600082600160009054906101000a900473ffffffffffffffffffffffffffffffffffffffff1673ffffffffffffffffffffffffffffffffffffffff1663a87d942c6040518163ffffffff1660e01b815260040160206040518083038186803b158015610de857600080fd5b505afa158015610dfc573d6000803e3d6000fd5b505050506040513d601f19601f82011682018060405250810190610e209190614ff2565b811115610e62576040517fd1d89b74000000000000000000000000000000000000000000000000000000008152600401610e5990615dc7565b60405180910390fd5b6000610e6e8585612419565b9050600160009054906101000a900473ffffffffffffffffffffffffffffffffffffffff1673ffffffffffffffffffffffffffffffffffffffff1663172372c285836040518363ffffffff1660e01b8152600401610ecd929190615cf6565b600060405180830381600087803b158015610ee757600080fd5b505af1158015610efb573d6000803e3d6000fd5b50505050809250505092915050565b610f126122b1565b610f1c6000612940565b565b83600160009054906101000a900473ffffffffffffffffffffffffffffffffffffffff1673ffffffffffffffffffffffffffffffffffffffff1663a87d942c6040518163ffffffff1660e01b815260040160206040518083038186803b158015610f8757600080fd5b505afa158015610f9b573d6000803e3d6000fd5b505050506040513d601f19601f82011682018060405250810190610fbf9190614ff2565b811115611001576040517fd1d89b74000000000000000000000000000000000000000000000000000000008152600401610ff890615dc7565b60405180910390fd5b61100d85858585612a04565b5050505050565b80600160009054906101000a900473ffffffffffffffffffffffffffffffffffffffff1673ffffffffffffffffffffffffffffffffffffffff1663a87d942c6040518163ffffffff1660e01b815260040160206040518083038186803b15801561107d57600080fd5b505afa158015611091573d6000803e3d6000fd5b505050506040513d601f19601f820116820180604052508101906110b59190614ff2565b8111156110f7576040517fd1d89b740000000000000000000000000000000000000000000000000000000081526004016110ee90615dc7565b60405180910390fd5b61110082612b3b565b505050565b60008060009054906101000a900473ffffffffffffffffffffffffffffffffffffffff16905090565b80600160009054906101000a900473ffffffffffffffffffffffffffffffffffffffff1673ffffffffffffffffffffffffffffffffffffffff1663a87d942c6040518163ffffffff1660e01b815260040160206040518083038186803b15801561119757600080fd5b505afa1580156111ab573d6000803e3d6000fd5b505050506040513d601f19601f820116820180604052508101906111cf9190614ff2565b811115611211576040517fd1d89b7400000000000000000000000000000000000000000000000000000000815260040161120890615dc7565b60405180910390fd5b61121a8261320f565b505050565b600061122a82613b87565b9050600073__$2753dcdd519b03fd573aecec08c92b1fcb$__63f74f3655846101600151601e6040518363ffffffff1660e01b815260040161126d929190616172565b60206040518083038186803b15801561128557600080fd5b505af4158015611299573d6000803e3d6000fd5b505050506040513d601f19601f820116820180604052508101906112bd9190614ff2565b9050670de0b6b3a7640000816112d3919061651f565b3414611314576040517fd1d89b7400000000000000000000000000000000000000000000000000000000815260040161130b90615e27565b60405180910390fd5b61131c610c93565b50919050565b82600160009054906101000a900473ffffffffffffffffffffffffffffffffffffffff1673ffffffffffffffffffffffffffffffffffffffff1663a87d942c6040518163ffffffff1660e01b815260040160206040518083038186803b15801561138b57600080fd5b505afa15801561139f573d6000803e3d6000fd5b505050506040513d601f19601f820116820180604052508101906113c39190614ff2565b811115611405576040517fd1d89b740000000000000000000000000000000000000000000000000000000081526004016113fc90615dc7565b60405180910390fd5b611410848484613c7d565b50505050565b61141e613d67565b81600160009054906101000a900473ffffffffffffffffffffffffffffffffffffffff1673ffffffffffffffffffffffffffffffffffffffff1663a87d942c6040518163ffffffff1660e01b815260040160206040518083038186803b15801561148757600080fd5b505afa15801561149b573d6000803e3d6000fd5b505050506040513d601f19601f820116820180604052508101906114bf9190614ff2565b811115611501576040517fd1d89b740000000000000000000000000000000000000000000000000000000081526004016114f890615dc7565b60405180910390fd5b600160009054906101000a900473ffffffffffffffffffffffffffffffffffffffff1673ffffffffffffffffffffffffffffffffffffffff166325e78e70846040518263ffffffff1660e01b815260040161155c9190615f14565b60006040518083038186803b15801561157457600080fd5b505afa158015611588573d6000803e3d6000fd5b505050506040513d6000823e3d601f19601f820116820180604052508101906115b19190614f7c565b915050919050565b6115c16122b1565b600073ffffffffffffffffffffffffffffffffffffffff168173ffffffffffffffffffffffffffffffffffffffff161415611631576040517f08c379a000000000000000000000000000000000000000000000000000000000815260040161162890615de7565b60405180910390fd5b61163a81612940565b50565b81600160009054906101000a900473ffffffffffffffffffffffffffffffffffffffff1673ffffffffffffffffffffffffffffffffffffffff1663a87d942c6040518163ffffffff1660e01b815260040160206040518083038186803b1580156116a657600080fd5b505afa1580156116ba573d6000803e3d6000fd5b505050506040513d601f19601f820116820180604052508101906116de9190614ff2565b811115611720576040517fd1d89b7400000000000000000000000000000000000000000000000000000000815260040161171790615dc7565b60405180910390fd5b82600160009054906101000a900473ffffffffffffffffffffffffffffffffffffffff1673ffffffffffffffffffffffffffffffffffffffff16639722f099826040518263ffffffff1660e01b815260040161177c9190615f14565b60206040518083038186803b15801561179457600080fd5b505afa1580156117a8573d6000803e3d6000fd5b505050506040513d601f19601f820116820180604052508101906117cc9190614f06565b61180d57806040517fa0f2fa6e0000000000000000000000000000000000000000000000000000000081526004016118049190615e87565b60405180910390fd5b600160009054906101000a900473ffffffffffffffffffffffffffffffffffffffff1673ffffffffffffffffffffffffffffffffffffffff16634aa86ded8585336040518463ffffffff1660e01b815260040161186c9392919061610b565b600060405180830381600087803b15801561188657600080fd5b505af115801561189a573d6000803e3d6000fd5b5050505050505050565b600160009054906101000a900473ffffffffffffffffffffffffffffffffffffffff1673ffffffffffffffffffffffffffffffffffffffff16631af5fa1683836040518363ffffffff1660e01b815260040161190192919061619b565b600060405180830381600087803b15801561191b57600080fd5b505af115801561192f573d6000803e3d6000fd5b505050507f9096640c11bd5636ced741c9725e5ff774b334455c80e15491f15bb3af0bc26533838360405161196693929190615d69565b60405180910390a15050565b60008215611b7857600160009054906101000a900473ffffffffffffffffffffffffffffffffffffffff1673ffffffffffffffffffffffffffffffffffffffff166338c3b2d687873388876040518663ffffffff1660e01b81526004016119dd959493929190615f58565b600060405180830381600087803b1580156119f757600080fd5b505af1158015611a0b573d6000803e3d6000fd5b505050506000600160009054906101000a900473ffffffffffffffffffffffffffffffffffffffff1673ffffffffffffffffffffffffffffffffffffffff16637c34eb85886040518263ffffffff1660e01b8152600401611a6c9190615f14565b60206040518083038186803b158015611a8457600080fd5b505afa158015611a98573d6000803e3d6000fd5b505050506040513d601f19601f82011682018060405250810190611abc9190614f06565b9050600160009054906101000a900473ffffffffffffffffffffffffffffffffffffffff1673ffffffffffffffffffffffffffffffffffffffff16633533917488888860016040518563ffffffff1660e01b8152600401611b20949392919061607a565b60206040518083038186803b158015611b3857600080fd5b505afa158015611b4c573d6000803e3d6000fd5b505050506040513d601f19601f82011682018060405250810190611b709190614ff2565b915050611c11565b600160009054906101000a900473ffffffffffffffffffffffffffffffffffffffff1673ffffffffffffffffffffffffffffffffffffffff1663960bc83487878760016040518563ffffffff1660e01b8152600401611bda949392919061607a565b600060405180830381600087803b158015611bf457600080fd5b505af1158015611c08573d6000803e3d6000fd5b50505050600090505b95945050505050565b6000611c27826036613d15565b9050919050565b670de0b6b3a764000081611c42919061651f565b611c4a610769565b1015611c8b576040517f08c379a0000000000000000000000000000000000000000000000000000000008152600401611c8290615e67565b60405180910390fd5b60008273ffffffffffffffffffffffffffffffffffffffff16670de0b6b3a764000083611cb8919061651f565b604051611cc490615c8f565b60006040518083038185875af1925050503d8060008114611d01576040519150601f19603f3d011682016040523d82523d6000602084013e611d06565b606091505b5050905080611d4a576040517f08c379a0000000000000000000000000000000000000000000000000000000008152600401611d4190615da7565b60405180910390fd5b7fb37bd6f3ccfce130859d4569dc432409f423a7928e73eb5c5049a94e40f0c648308484604051611d7d93929190615cbf565b60405180910390a1505050565b600060606000600160009054906101000a900473ffffffffffffffffffffffffffffffffffffffff1673ffffffffffffffffffffffffffffffffffffffff16638b3f3a6f868660006040518463ffffffff1660e01b8152600401611df09392919061600c565b60006040518083038186803b158015611e0857600080fd5b505afa158015611e1c573d6000803e3d6000fd5b505050506040513d6000823e3d601f19601f82011682018060405250810190611e459190614eaa565b8092508193505050600082511415611e62576000925050506122ab565b600160009054906101000a900473ffffffffffffffffffffffffffffffffffffffff1673ffffffffffffffffffffffffffffffffffffffff166390977d2b868685600460006040518663ffffffff1660e01b8152600401611ec7959493929190615fb2565b600060405180830381600087803b158015611ee157600080fd5b505af1158015611ef5573d6000803e3d6000fd5b505050506000600160009054906101000a900473ffffffffffffffffffffffffffffffffffffffff1673ffffffffffffffffffffffffffffffffffffffff16637c34eb85876040518263ffffffff1660e01b8152600401611f569190615f14565b60206040518083038186803b158015611f6e57600080fd5b505afa158015611f82573d6000803e3d6000fd5b505050506040513d601f19601f82011682018060405250810190611fa69190614f06565b156120ca5760005b83518110156120c457600160009054906101000a900473ffffffffffffffffffffffffffffffffffffffff1673ffffffffffffffffffffffffffffffffffffffff166325e78e70886040518263ffffffff1660e01b81526004016120129190615f14565b60006040518083038186803b15801561202a57600080fd5b505afa15801561203e573d6000803e3d6000fd5b505050506040513d6000823e3d601f19601f820116820180604052508101906120679190614f7c565b6101c0015184828151811061207f5761207e61678b565b5b6020026020010151815181106120985761209761678b565b5b602002602001015160200151826120af9190616498565b915080806120bc906166b5565b915050611fae565b50612182565b600160009054906101000a900473ffffffffffffffffffffffffffffffffffffffff1673ffffffffffffffffffffffffffffffffffffffff166325e78e70876040518263ffffffff1660e01b81526004016121259190615f14565b60006040518083038186803b15801561213d57600080fd5b505afa158015612151573d6000803e3d6000fd5b505050506040513d6000823e3d601f19601f8201168201806040525081019061217a9190614f7c565b610180015190505b600073__$2753dcdd519b03fd573aecec08c92b1fcb$__634f6ca3ce6121a784613d35565b6040518263ffffffff1660e01b81526004016121c39190615ef9565b60206040518083038186803b1580156121db57600080fd5b505af41580156121ef573d6000803e3d6000fd5b505050506040513d601f19601f820116820180604052508101906122139190614ff2565b9050600073__$2753dcdd519b03fd573aecec08c92b1fcb$__639ce5c4bf85846040518363ffffffff1660e01b81526004016122509291906161cb565b60206040518083038186803b15801561226857600080fd5b505af415801561227c573d6000803e3d6000fd5b505050506040513d601f19601f820116820180604052508101906122a09190614ff2565b905080955050505050505b92915050565b6122b9613d49565b73ffffffffffffffffffffffffffffffffffffffff166122d7611105565b73ffffffffffffffffffffffffffffffffffffffff161461232d576040517f08c379a000000000000000000000000000000000000000000000000000000000815260040161232490615e47565b60405180910390fd5b565b60003373ffffffffffffffffffffffffffffffffffffffff164760405161235590615c8f565b60006040518083038185875af1925050503d8060008114612392576040519150601f19603f3d011682016040523d82523d6000602084013e612397565b606091505b50509050806123db576040517f08c379a00000000000000000000000000000000000000000000000000000000081526004016123d290615da7565b60405180910390fd5b7fb37bd6f3ccfce130859d4569dc432409f423a7928e73eb5c5049a94e40f0c64830334760405161240e93929190615cbf565b60405180910390a150565b600060606000600160009054906101000a900473ffffffffffffffffffffffffffffffffffffffff1673ffffffffffffffffffffffffffffffffffffffff16638b3f3a6f868660016040518463ffffffff1660e01b815260040161247f9392919061600c565b60006040518083038186803b15801561249757600080fd5b505afa1580156124ab573d6000803e3d6000fd5b505050506040513d6000823e3d601f19601f820116820180604052508101906124d49190614eaa565b80925081935050506000825114156124f15760009250505061293a565b600160009054906101000a900473ffffffffffffffffffffffffffffffffffffffff1673ffffffffffffffffffffffffffffffffffffffff166390977d2b868685600460016040518663ffffffff1660e01b8152600401612556959493929190615fb2565b600060405180830381600087803b15801561257057600080fd5b505af1158015612584573d6000803e3d6000fd5b505050506000600160009054906101000a900473ffffffffffffffffffffffffffffffffffffffff1673ffffffffffffffffffffffffffffffffffffffff16637c34eb85876040518263ffffffff1660e01b81526004016125e59190615f14565b60206040518083038186803b1580156125fd57600080fd5b505afa158015612611573d6000803e3d6000fd5b505050506040513d601f19601f820116820180604052508101906126359190614f06565b156127595760005b835181101561275357600160009054906101000a900473ffffffffffffffffffffffffffffffffffffffff1673ffffffffffffffffffffffffffffffffffffffff166325e78e70886040518263ffffffff1660e01b81526004016126a19190615f14565b60006040518083038186803b1580156126b957600080fd5b505afa1580156126cd573d6000803e3d6000fd5b505050506040513d6000823e3d601f19601f820116820180604052508101906126f69190614f7c565b6101c0015184828151811061270e5761270d61678b565b5b6020026020010151815181106127275761272661678b565b5b6020026020010151602001518261273e9190616498565b9150808061274b906166b5565b91505061263d565b50612811565b600160009054906101000a900473ffffffffffffffffffffffffffffffffffffffff1673ffffffffffffffffffffffffffffffffffffffff166325e78e70876040518263ffffffff1660e01b81526004016127b49190615f14565b60006040518083038186803b1580156127cc57600080fd5b505afa1580156127e0573d6000803e3d6000fd5b505050506040513d6000823e3d601f19601f820116820180604052508101906128099190614f7c565b610180015190505b600073__$2753dcdd519b03fd573aecec08c92b1fcb$__634f6ca3ce61283684611c1a565b6040518263ffffffff1660e01b81526004016128529190615ef9565b60206040518083038186803b15801561286a57600080fd5b505af415801561287e573d6000803e3d6000fd5b505050506040513d601f19601f820116820180604052508101906128a29190614ff2565b9050600073__$2753dcdd519b03fd573aecec08c92b1fcb$__639ce5c4bf85846040518363ffffffff1660e01b81526004016128df9291906161cb565b60206040518083038186803b1580156128f757600080fd5b505af415801561290b573d6000803e3d6000fd5b505050506040513d601f19601f8201168201806040525081019061292f9190614ff2565b905080955050505050505b92915050565b60008060009054906101000a900473ffffffffffffffffffffffffffffffffffffffff169050816000806101000a81548173ffffffffffffffffffffffffffffffffffffffff021916908373ffffffffffffffffffffffffffffffffffffffff1602179055508173ffffffffffffffffffffffffffffffffffffffff168173ffffffffffffffffffffffffffffffffffffffff167f8be0079c531659141344cd1fd0a4f28419497f9722a3daafe3b4186f6b6457e060405160405180910390a35050565b8015612aa057600160009054906101000a900473ffffffffffffffffffffffffffffffffffffffff1673ffffffffffffffffffffffffffffffffffffffff1663789fbe318585856040518463ffffffff1660e01b8152600401612a6993929190616043565b600060405180830381600087803b158015612a8357600080fd5b505af1158015612a97573d6000803e3d6000fd5b50505050612b35565b600160009054906101000a900473ffffffffffffffffffffffffffffffffffffffff1673ffffffffffffffffffffffffffffffffffffffff1663960bc83485858560006040518563ffffffff1660e01b8152600401612b02949392919061607a565b600060405180830381600087803b158015612b1c57600080fd5b505af1158015612b30573d6000803e3d6000fd5b505050505b50505050565b600080600160009054906101000a900473ffffffffffffffffffffffffffffffffffffffff1673ffffffffffffffffffffffffffffffffffffffff1663d2fed69c846040518263ffffffff1660e01b8152600401612b999190615f14565b60206040518083038186803b158015612bb157600080fd5b505afa158015612bc5573d6000803e3d6000fd5b505050506040513d601f19601f82011682018060405250810190612be99190614ff2565b90506000600160009054906101000a900473ffffffffffffffffffffffffffffffffffffffff1673ffffffffffffffffffffffffffffffffffffffff1663cf8f4be2856040518263ffffffff1660e01b8152600401612c489190615f14565b60006040518083038186803b158015612c6057600080fd5b505afa158015612c74573d6000803e3d6000fd5b505050506040513d6000823e3d601f19601f82011682018060405250810190612c9d9190614e61565b9050600160009054906101000a900473ffffffffffffffffffffffffffffffffffffffff1673ffffffffffffffffffffffffffffffffffffffff16638a9a9ff38560016040518363ffffffff1660e01b8152600401612cfd929190616149565b60206040518083038186803b158015612d1557600080fd5b505afa158015612d29573d6000803e3d6000fd5b505050506040513d601f19601f82011682018060405250810190612d4d9190614f06565b15612d5d5760019250505061320a565b6000821415612e3a57600160009054906101000a900473ffffffffffffffffffffffffffffffffffffffff1673ffffffffffffffffffffffffffffffffffffffff1663ea60f28c856040518263ffffffff1660e01b8152600401612dc19190615f14565b600060405180830381600087803b158015612ddb57600080fd5b505af1158015612def573d6000803e3d6000fd5b505050507f0dab2890e878ef6d9a9f1d69f761d77bf93c6049fccaa71abc31baa20493179a33856000604051612e2793929190615d1f565b60405180910390a160009250505061320a565b600081519050600083905060008183612e5391906164ee565b90506000600160009054906101000a900473ffffffffffffffffffffffffffffffffffffffff1673ffffffffffffffffffffffffffffffffffffffff1663983a12a8896040518263ffffffff1660e01b8152600401612eb29190615f14565b60006040518083038186803b158015612eca57600080fd5b505afa158015612ede573d6000803e3d6000fd5b505050506040513d6000823e3d601f19601f82011682018060405250810190612f079190614e18565b905060005b85518110156131715760006009811115612f2957612f2861675c565b5b868281518110612f3c57612f3b61678b565b5b6020026020010151606001516009811115612f5a57612f5961675c565b5b141561315e5760005b8781101561315c5783600160009054906101000a900473ffffffffffffffffffffffffffffffffffffffff1673ffffffffffffffffffffffffffffffffffffffff1663193620e78c868581518110612fbe57612fbd61678b565b5b60200260200101516040518363ffffffff1660e01b8152600401612fe3929190615f2f565b60206040518083038186803b158015612ffb57600080fd5b505afa15801561300f573d6000803e3d6000fd5b505050506040513d601f19601f820116820180604052508101906130339190614ff2565b111561303e57613149565b600160009054906101000a900473ffffffffffffffffffffffffffffffffffffffff1673ffffffffffffffffffffffffffffffffffffffff16632731259a8b848685815181106130915761309061678b565b5b602002602001015160016040518563ffffffff1660e01b81526004016130ba94939291906161f4565b600060405180830381600087803b1580156130d457600080fd5b505af11580156130e8573d6000803e3d6000fd5b505050507fad65127436138b4afe97ef23baf28ed14a5fb09500ad117eb196cd3bdb3dbe9f8a838584815181106131225761312161678b565b5b6020026020010151600160405161313c94939291906161f4565b60405180910390a161315c565b8080613154906166b5565b915050612f63565b505b8080613169906166b5565b915050612f0c565b50600160009054906101000a900473ffffffffffffffffffffffffffffffffffffffff1673ffffffffffffffffffffffffffffffffffffffff1663ea60f28c896040518263ffffffff1660e01b81526004016131cd9190615f14565b600060405180830381600087803b1580156131e757600080fd5b505af11580156131fb573d6000803e3d6000fd5b50505050600096505050505050505b919050565b60006132196122b1565b6000600160009054906101000a900473ffffffffffffffffffffffffffffffffffffffff1673ffffffffffffffffffffffffffffffffffffffff1663f8626ebb846040518263ffffffff1660e01b81526004016132769190615f14565b60206040518083038186803b15801561328e57600080fd5b505afa1580156132a2573d6000803e3d6000fd5b505050506040513d601f19601f820116820180604052508101906132c69190614ff2565b90506000600160009054906101000a900473ffffffffffffffffffffffffffffffffffffffff1673ffffffffffffffffffffffffffffffffffffffff1663d2fed69c856040518263ffffffff1660e01b81526004016133259190615f14565b60206040518083038186803b15801561333d57600080fd5b505afa158015613351573d6000803e3d6000fd5b505050506040513d601f19601f820116820180604052508101906133759190614ff2565b90506000600160009054906101000a900473ffffffffffffffffffffffffffffffffffffffff1673ffffffffffffffffffffffffffffffffffffffff1663cf8f4be2866040518263ffffffff1660e01b81526004016133d49190615f14565b60006040518083038186803b1580156133ec57600080fd5b505afa158015613400573d6000803e3d6000fd5b505050506040513d6000823e3d601f19601f820116820180604052508101906134299190614e61565b9050600160009054906101000a900473ffffffffffffffffffffffffffffffffffffffff1673ffffffffffffffffffffffffffffffffffffffff16638a9a9ff38660006040518363ffffffff1660e01b8152600401613489929190616149565b60206040518083038186803b1580156134a157600080fd5b505afa1580156134b5573d6000803e3d6000fd5b505050506040513d601f19601f820116820180604052508101906134d99190614f06565b156134ea5760019350505050613b82565b6000831480156134fb575060008214155b1561359957600160009054906101000a900473ffffffffffffffffffffffffffffffffffffffff1673ffffffffffffffffffffffffffffffffffffffff1663df3a726f866040518263ffffffff1660e01b815260040161355b9190615f14565b600060405180830381600087803b15801561357557600080fd5b505af1158015613589573d6000803e3d6000fd5b5050505060009350505050613b82565b6000831480156135a95750600082145b156137b157600160009054906101000a900473ffffffffffffffffffffffffffffffffffffffff1673ffffffffffffffffffffffffffffffffffffffff16634db61caf866040518263ffffffff1660e01b81526004016136099190615f14565b600060405180830381600087803b15801561362357600080fd5b505af1158015613637573d6000803e3d6000fd5b505050506000600160009054906101000a900473ffffffffffffffffffffffffffffffffffffffff1673ffffffffffffffffffffffffffffffffffffffff16635bf608b8876040518263ffffffff1660e01b81526004016136989190615f14565b60206040518083038186803b1580156136b057600080fd5b505afa1580156136c4573d6000803e3d6000fd5b505050506040513d601f19601f820116820180604052508101906136e89190614deb565b90506000600160009054906101000a900473ffffffffffffffffffffffffffffffffffffffff1673ffffffffffffffffffffffffffffffffffffffff16636e973982886040518263ffffffff1660e01b81526004016137479190615f14565b60206040518083038186803b15801561375f57600080fd5b505afa158015613773573d6000803e3d6000fd5b505050506040513d601f19601f820116820180604052508101906137979190614ff2565b90506137a38282611c2e565b600095505050505050613b82565b6000815190506000849050600081836137ca91906164ee565b90506000600160009054906101000a900473ffffffffffffffffffffffffffffffffffffffff1673ffffffffffffffffffffffffffffffffffffffff1663b647eec38a6040518263ffffffff1660e01b81526004016138299190615f14565b60006040518083038186803b15801561384157600080fd5b505afa158015613855573d6000803e3d6000fd5b505050506040513d6000823e3d601f19601f8201168201806040525081019061387e9190614e18565b905060005b8551811015613ae857600060098111156138a05761389f61675c565b5b8682815181106138b3576138b261678b565b5b60200260200101516060015160098111156138d1576138d061675c565b5b1415613ad55760005b88811015613ad35783600160009054906101000a900473ffffffffffffffffffffffffffffffffffffffff1673ffffffffffffffffffffffffffffffffffffffff1663790485f98d8685815181106139355761393461678b565b5b60200260200101516040518363ffffffff1660e01b815260040161395a929190615f2f565b60206040518083038186803b15801561397257600080fd5b505afa158015613986573d6000803e3d6000fd5b505050506040513d601f19601f820116820180604052508101906139aa9190614ff2565b11156139b557613ac0565b600160009054906101000a900473ffffffffffffffffffffffffffffffffffffffff1673ffffffffffffffffffffffffffffffffffffffff16632731259a8c84868581518110613a0857613a0761678b565b5b602002602001015160006040518563ffffffff1660e01b8152600401613a3194939291906161f4565b600060405180830381600087803b158015613a4b57600080fd5b505af1158015613a5f573d6000803e3d6000fd5b505050507fad65127436138b4afe97ef23baf28ed14a5fb09500ad117eb196cd3bdb3dbe9f8b83858481518110613a9957613a9861678b565b5b60200260200101516000604051613ab394939291906161f4565b60405180910390a1613ad3565b8080613acb906166b5565b9150506138da565b505b8080613ae0906166b5565b915050613883565b50600160009054906101000a900473ffffffffffffffffffffffffffffffffffffffff1673ffffffffffffffffffffffffffffffffffffffff1663df3a726f8a6040518263ffffffff1660e01b8152600401613b449190615f14565b600060405180830381600087803b158015613b5e57600080fd5b505af1158015613b72573d6000803e3d6000fd5b5050505060009750505050505050505b919050565b600080600160009054906101000a900473ffffffffffffffffffffffffffffffffffffffff1673ffffffffffffffffffffffffffffffffffffffff1663752458c5846040518263ffffffff1660e01b8152600401613be59190615eb5565b602060405180830381600087803b158015613bff57600080fd5b505af1158015613c13573d6000803e3d6000fd5b505050506040513d601f19601f82011682018060405250810190613c379190614ff2565b90507f9096640c11bd5636ced741c9725e5ff774b334455c80e15491f15bb3af0bc265338285604051613c6c93929190615d69565b60405180910390a180915050919050565b600160009054906101000a900473ffffffffffffffffffffffffffffffffffffffff1673ffffffffffffffffffffffffffffffffffffffff1663fffb35af843385856040518563ffffffff1660e01b8152600401613cde94939291906160bf565b600060405180830381600087803b158015613cf857600080fd5b505af1158015613d0c573d6000803e3d6000fd5b50505050505050565b60006064613d238484613d51565b613d2d91906164ee565b905092915050565b6000613d42826024613d15565b9050919050565b600033905090565b60008183613d5f919061651f565b905092915050565b604051806103000160405280600073ffffffffffffffffffffffffffffffffffffffff16815260200160008152602001606081526020016060815260200160008152602001600081526020016000815260200160608152602001600081526020016000815260200160001515815260200160001515815260200160008152602001606081526020016060815260200160608152602001606081526020016000815260200160008152602001600081526020016000815260200160001515815260200160001515815260200160006006811115613e4657613e4561675c565b5b81525090565b6000613e5f613e5a8461625e565b616239565b90508083825260208201905082856020860282011115613e8257613e816167f8565b5b60005b85811015613eb25781613e98888261426d565b845260208401935060208301925050600181019050613e85565b5050509392505050565b6000613ecf613eca8461628a565b616239565b90508083825260208201905082856020860282011115613ef257613ef16167f8565b5b60005b85811015613f4057815167ffffffffffffffff811115613f1857613f176167e9565b5b808601613f25898261481e565b85526020850194506020840193505050600181019050613ef5565b5050509392505050565b6000613f5d613f58846162b6565b616239565b90508083825260208201905082856020860282011115613f8057613f7f6167f8565b5b60005b85811015613fce57815167ffffffffffffffff811115613fa657613fa56167e9565b5b808601613fb38982614ba0565b85526020850194506020840193505050600181019050613f83565b5050509392505050565b6000613feb613fe6846162e2565b616239565b9050808382526020820190508285602086028201111561400e5761400d6167f8565b5b60005b8581101561405c57813567ffffffffffffffff811115614034576140336167e9565b5b8086016140418982614c0c565b85526020850194506020840193505050600181019050614011565b5050509392505050565b6000614079614074846162e2565b616239565b9050808382526020820190508285602086028201111561409c5761409b6167f8565b5b60005b858110156140ea57815167ffffffffffffffff8111156140c2576140c16167e9565b5b8086016140cf8982614cd0565b8552602085019450602084019350505060018101905061409f565b5050509392505050565b60006141076141028461630e565b616239565b9050808382526020820190508285602086028201111561412a576141296167f8565b5b60005b8581101561415a57816141408882614d94565b84526020840193506020830192505060018101905061412d565b5050509392505050565b60006141776141728461630e565b616239565b9050808382526020820190508285602086028201111561419a576141996167f8565b5b60005b858110156141ca57816141b08882614da9565b84526020840193506020830192505060018101905061419d565b5050509392505050565b60006141e76141e28461633a565b616239565b905082815260208101848484011115614203576142026167fd565b5b61420e848285616642565b509392505050565b60006142296142248461633a565b616239565b905082815260208101848484011115614245576142446167fd565b5b614250848285616651565b509392505050565b60008135905061426781616a19565b92915050565b60008151905061427c81616a19565b92915050565b600082601f830112614297576142966167e9565b5b81516142a7848260208601613e4c565b91505092915050565b600082601f8301126142c5576142c46167e9565b5b81516142d5848260208601613ebc565b91505092915050565b600082601f8301126142f3576142f26167e9565b5b8151614303848260208601613f4a565b91505092915050565b600082601f830112614321576143206167e9565b5b8135614331848260208601613fd8565b91505092915050565b600082601f83011261434f5761434e6167e9565b5b815161435f848260208601614066565b91505092915050565b600082601f83011261437d5761437c6167e9565b5b813561438d8482602086016140f4565b91505092915050565b600082601f8301126143ab576143aa6167e9565b5b81516143bb848260208601614164565b91505092915050565b6000813590506143d381616a30565b92915050565b6000815190506143e881616a30565b92915050565b6000813590506143fd81616a47565b92915050565b60008151905061441281616a47565b92915050565b60008151905061442781616a57565b92915050565b60008151905061443c81616a67565b92915050565b600082601f830112614457576144566167e9565b5b81356144678482602086016141d4565b91505092915050565b600082601f830112614485576144846167e9565b5b8151614495848260208601614216565b91505092915050565b600060e082840312156144b4576144b36167ee565b5b6144be60e0616239565b9050600082013567ffffffffffffffff8111156144de576144dd6167f3565b5b6144ea84828501614442565b60008301525060206144fe84828501614d94565b602083015250604061451284828501614d94565b604083015250606061452684828501614d94565b606083015250608061453a84828501614d94565b60808301525060a061454e84828501614d94565b60a08301525060c082013567ffffffffffffffff811115614572576145716167f3565b5b61457e84828501614442565b60c08301525092915050565b600060e082840312156145a05761459f6167ee565b5b6145aa60e0616239565b9050600082015167ffffffffffffffff8111156145ca576145c96167f3565b5b6145d684828501614470565b60008301525060206145ea84828501614da9565b60208301525060406145fe84828501614da9565b604083015250606061461284828501614da9565b606083015250608061462684828501614da9565b60808301525060a061463a84828501614da9565b60a08301525060c082015167ffffffffffffffff81111561465e5761465d6167f3565b5b61466a84828501614470565b60c08301525092915050565b60006101a0828403121561468d5761468c6167ee565b5b6146986101a0616239565b905060006146a884828501614d94565b600083015250602082013567ffffffffffffffff8111156146cc576146cb6167f3565b5b6146d884828501614442565b602083015250604082013567ffffffffffffffff8111156146fc576146fb6167f3565b5b61470884828501614442565b604083015250606061471c84828501614d94565b606083015250608061473084828501614d94565b60808301525060a061474484828501614d94565b60a08301525060c082013567ffffffffffffffff811115614768576147676167f3565b5b61477484828501614368565b60c08301525060e061478884828501614d94565b60e08301525061010061479d84828501614d94565b610100830152506101206147b3848285016143c4565b610120830152506101406147c9848285016143c4565b610140830152506101606147df84828501614d94565b6101608301525061018082013567ffffffffffffffff811115614805576148046167f3565b5b6148118482850161430c565b6101808301525092915050565b600060808284031215614834576148336167ee565b5b61483e6080616239565b9050600061484e84828501614da9565b60008301525060206148628482850161442d565b602083015250604082015167ffffffffffffffff811115614886576148856167f3565b5b61489284828501614470565b60408301525060606148a684828501614da9565b60608301525092915050565b600061030082840312156148c9576148c86167ee565b5b6148d4610300616239565b905060006148e48482850161426d565b60008301525060206148f884828501614da9565b602083015250604082015167ffffffffffffffff81111561491c5761491b6167f3565b5b61492884828501614470565b604083015250606082015167ffffffffffffffff81111561494c5761494b6167f3565b5b61495884828501614470565b606083015250608061496c84828501614da9565b60808301525060a061498084828501614da9565b60a08301525060c061499484828501614da9565b60c08301525060e082015167ffffffffffffffff8111156149b8576149b76167f3565b5b6149c484828501614396565b60e0830152506101006149d984828501614da9565b610100830152506101206149ef84828501614da9565b61012083015250610140614a05848285016143d9565b61014083015250610160614a1b848285016143d9565b61016083015250610180614a3184828501614da9565b610180830152506101a082015167ffffffffffffffff811115614a5757614a566167f3565b5b614a63848285016142b0565b6101a0830152506101c082015167ffffffffffffffff811115614a8957614a886167f3565b5b614a958482850161433a565b6101c0830152506101e082015167ffffffffffffffff811115614abb57614aba6167f3565b5b614ac7848285016142de565b6101e08301525061020082015167ffffffffffffffff811115614aed57614aec6167f3565b5b614af9848285016142de565b61020083015250610220614b0f84828501614da9565b61022083015250610240614b2584828501614da9565b61024083015250610260614b3b84828501614da9565b61026083015250610280614b5184828501614da9565b610280830152506102a0614b67848285016143d9565b6102a0830152506102c0614b7d848285016143d9565b6102c0830152506102e0614b9384828501614418565b6102e08301525092915050565b600060408284031215614bb657614bb56167ee565b5b614bc06040616239565b90506000614bd08482850161426d565b600083015250602082015167ffffffffffffffff811115614bf457614bf36167f3565b5b614c00848285016142b0565b60208301525092915050565b600060a08284031215614c2257614c216167ee565b5b614c2c60a0616239565b9050600082013567ffffffffffffffff811115614c4c57614c4b6167f3565b5b614c588482850161449e565b6000830152506020614c6c84828501614d94565b602083015250604082013567ffffffffffffffff811115614c9057614c8f6167f3565b5b614c9c84828501614442565b6040830152506060614cb0848285016143ee565b6060830152506080614cc484828501614d94565b60808301525092915050565b600060a08284031215614ce657614ce56167ee565b5b614cf060a0616239565b9050600082015167ffffffffffffffff811115614d1057614d0f6167f3565b5b614d1c8482850161458a565b6000830152506020614d3084828501614da9565b602083015250604082015167ffffffffffffffff811115614d5457614d536167f3565b5b614d6084828501614470565b6040830152506060614d7484828501614403565b6060830152506080614d8884828501614da9565b60808301525092915050565b600081359050614da381616a77565b92915050565b600081519050614db881616a77565b92915050565b600060208284031215614dd457614dd3616807565b5b6000614de284828501614258565b91505092915050565b600060208284031215614e0157614e00616807565b5b6000614e0f8482850161426d565b91505092915050565b600060208284031215614e2e57614e2d616807565b5b600082015167ffffffffffffffff811115614e4c57614e4b616802565b5b614e5884828501614282565b91505092915050565b600060208284031215614e7757614e76616807565b5b600082015167ffffffffffffffff811115614e9557614e94616802565b5b614ea18482850161433a565b91505092915050565b60008060408385031215614ec157614ec0616807565b5b600083015167ffffffffffffffff811115614edf57614ede616802565b5b614eeb85828601614396565b9250506020614efc85828601614da9565b9150509250929050565b600060208284031215614f1c57614f1b616807565b5b6000614f2a848285016143d9565b91505092915050565b600060208284031215614f4957614f48616807565b5b600082013567ffffffffffffffff811115614f6757614f66616802565b5b614f7384828501614676565b91505092915050565b600060208284031215614f9257614f91616807565b5b600082015167ffffffffffffffff811115614fb057614faf616802565b5b614fbc848285016148b2565b91505092915050565b600060208284031215614fdb57614fda616807565b5b6000614fe984828501614d94565b91505092915050565b60006020828403121561500857615007616807565b5b600061501684828501614da9565b91505092915050565b6000806040838503121561503657615035616807565b5b600061504485828601614d94565b925050602061505585828601614258565b9150509250929050565b6000806000806080858703121561507957615078616807565b5b600061508787828801614d94565b945050602061509887828801614258565b93505060406150a987828801614d94565b92505060606150ba878288016143c4565b91505092959194509250565b600080600080600060a086880312156150e2576150e1616807565b5b60006150f088828901614d94565b955050602061510188828901614258565b945050604061511288828901614d94565b9350506060615123888289016143c4565b925050608086013567ffffffffffffffff81111561514457615143616802565b5b61515088828901614442565b9150509295509295909350565b6000806040838503121561517457615173616807565b5b600061518285828601614d94565b925050602083013567ffffffffffffffff8111156151a3576151a2616802565b5b6151af85828601614368565b9150509250929050565b600080604083850312156151d0576151cf616807565b5b60006151de85828601614d94565b925050602083013567ffffffffffffffff8111156151ff576151fe616802565b5b61520b85828601614676565b9150509250929050565b60008060006060848603121561522e5761522d616807565b5b600061523c86828701614d94565b935050602061524d86828701614d94565b925050604084013567ffffffffffffffff81111561526e5761526d616802565b5b61527a86828701614442565b9150509250925092565b6000615290838361591b565b905092915050565b60006152a48383615ba8565b905092915050565b60006152b88383615be5565b905092915050565b60006152cc8383615c62565b60208301905092915050565b6152e181616579565b82525050565b6152f081616579565b82525050565b6000615301826163ab565b61530b8185616416565b93508360208202850161531d8561636b565b8060005b85811015615359578484038952815161533a8582615284565b9450615345836163e2565b925060208a01995050600181019050615321565b50829750879550505050505092915050565b6000615376826163b6565b6153808185616427565b9350836020820285016153928561637b565b8060005b858110156153ce57848403895281516153af8582615298565b94506153ba836163ef565b925060208a01995050600181019050615396565b50829750879550505050505092915050565b60006153eb826163c1565b6153f58185616438565b9350836020820285016154078561638b565b8060005b85811015615443578484038952815161542485826152ac565b945061542f836163fc565b925060208a0199505060018101905061540b565b50829750879550505050505092915050565b6000615460826163cc565b61546a8185616449565b93506154758361639b565b8060005b838110156154a657815161548d88826152c0565b975061549883616409565b925050600181019050615479565b5085935050505092915050565b60006154be826163cc565b6154c8818561645a565b93506154d38361639b565b8060005b838110156155045781516154eb88826152c0565b97506154f683616409565b9250506001810190506154d7565b5085935050505092915050565b61551a8161658b565b82525050565b6155298161658b565b82525050565b615538816165fa565b82525050565b6155478161660c565b82525050565b6155568161661e565b82525050565b6155658161661e565b82525050565b61557481616630565b82525050565b6000615585826163d7565b61558f8185616476565b935061559f818560208601616651565b6155a88161680c565b840191505092915050565b60006155be826163d7565b6155c88185616487565b93506155d8818560208601616651565b6155e18161680c565b840191505092915050565b60006155f9600b83616487565b91506156048261681d565b602082019050919050565b600061561c601283616487565b915061562782616846565b602082019050919050565b600061563f602683616487565b915061564a8261686f565b604082019050919050565b6000615662601383616487565b915061566d826168be565b602082019050919050565b6000615685601783616487565b9150615690826168e7565b602082019050919050565b60006156a8600283616487565b91506156b382616910565b602082019050919050565b60006156cb602083616487565b91506156d682616939565b602082019050919050565b60006156ee601e83616487565b91506156f982616962565b602082019050919050565b600061571160008361646b565b915061571c8261698b565b600082019050919050565b6000615734602683616487565b915061573f8261698e565b604082019050919050565b600060e0830160008301518482036000860152615767828261557a565b915050602083015161577c6020860182615c62565b50604083015161578f6040860182615c62565b5060608301516157a26060860182615c62565b5060808301516157b56080860182615c62565b5060a08301516157c860a0860182615c62565b5060c083015184820360c08601526157e0828261557a565b9150508091505092915050565b60006101a0830160008301516158066000860182615c62565b506020830151848203602086015261581e828261557a565b91505060408301518482036040860152615838828261557a565b915050606083015161584d6060860182615c62565b5060808301516158606080860182615c62565b5060a083015161587360a0860182615c62565b5060c083015184820360c086015261588b8282615455565b91505060e08301516158a060e0860182615c62565b506101008301516158b5610100860182615c62565b506101208301516158ca610120860182615511565b506101408301516158df610140860182615511565b506101608301516158f4610160860182615c62565b5061018083015184820361018086015261590e82826153e0565b9150508091505092915050565b60006080830160008301516159336000860182615c62565b506020830151615946602086018261554d565b506040830151848203604086015261595e828261557a565b91505060608301516159736060860182615c62565b508091505092915050565b60006103008301600083015161599760008601826152d8565b5060208301516159aa6020860182615c62565b50604083015184820360408601526159c2828261557a565b915050606083015184820360608601526159dc828261557a565b91505060808301516159f16080860182615c62565b5060a0830151615a0460a0860182615c62565b5060c0830151615a1760c0860182615c62565b5060e083015184820360e0860152615a2f8282615455565b915050610100830151615a46610100860182615c62565b50610120830151615a5b610120860182615c62565b50610140830151615a70610140860182615511565b50610160830151615a85610160860182615511565b50610180830151615a9a610180860182615c62565b506101a08301518482036101a0860152615ab482826152f6565b9150506101c08301518482036101c0860152615ad082826153e0565b9150506101e08301518482036101e0860152615aec828261536b565b915050610200830151848203610200860152615b08828261536b565b915050610220830151615b1f610220860182615c62565b50610240830151615b34610240860182615c62565b50610260830151615b49610260860182615c62565b50610280830151615b5e610280860182615c62565b506102a0830151615b736102a0860182615511565b506102c0830151615b886102c0860182615511565b506102e0830151615b9d6102e086018261553e565b508091505092915050565b6000604083016000830151615bc060008601826152d8565b5060208301518482036020860152615bd882826152f6565b9150508091505092915050565b600060a0830160008301518482036000860152615c02828261574a565b9150506020830151615c176020860182615c62565b5060408301518482036040860152615c2f828261557a565b9150506060830151615c44606086018261552f565b506080830151615c576080860182615c62565b508091505092915050565b615c6b816165f0565b82525050565b615c7a816165f0565b82525050565b615c89816165f0565b82525050565b6000615c9a82615704565b9150819050919050565b6000602082019050615cb960008301846152e7565b92915050565b6000606082019050615cd460008301866152e7565b615ce160208301856152e7565b615cee6040830184615c71565b949350505050565b6000604082019050615d0b60008301856152e7565b615d186020830184615c71565b9392505050565b6000608082019050615d3460008301866152e7565b615d416020830185615c71565b8181036040830152615d528161569b565b9050615d616060830184615520565b949350505050565b6000606082019050615d7e60008301866152e7565b615d8b6020830185615c71565b8181036040830152615d9d81846157ed565b9050949350505050565b60006020820190508181036000830152615dc0816155ec565b9050919050565b60006020820190508181036000830152615de08161560f565b9050919050565b60006020820190508181036000830152615e0081615632565b9050919050565b60006020820190508181036000830152615e2081615655565b9050919050565b60006020820190508181036000830152615e4081615678565b9050919050565b60006020820190508181036000830152615e60816156be565b9050919050565b60006020820190508181036000830152615e80816156e1565b9050919050565b60006040820190508181036000830152615ea081615727565b9050615eaf6020830184615c71565b92915050565b60006020820190508181036000830152615ecf81846157ed565b905092915050565b60006020820190508181036000830152615ef1818461597e565b905092915050565b6000602082019050615f0e6000830184615c80565b92915050565b6000602082019050615f296000830184615c71565b92915050565b6000604082019050615f446000830185615c71565b615f5160208301846152e7565b9392505050565b600060a082019050615f6d6000830188615c71565b615f7a60208301876152e7565b615f8760408301866152e7565b615f946060830185615c71565b8181036080830152615fa681846155b3565b90509695505050505050565b600060a082019050615fc76000830188615c71565b615fd460208301876152e7565b8181036040830152615fe681866154b3565b9050615ff5606083018561555c565b6160026080830184615520565b9695505050505050565b60006060820190506160216000830186615c71565b61602e60208301856152e7565b61603b6040830184615520565b949350505050565b60006060820190506160586000830186615c71565b61606560208301856152e7565b6160726040830184615c71565b949350505050565b600060808201905061608f6000830187615c71565b61609c60208301866152e7565b6160a96040830185615c71565b6160b66060830184615520565b95945050505050565b60006080820190506160d46000830187615c71565b6160e160208301866152e7565b6160ee6040830185615c71565b818103606083015261610081846155b3565b905095945050505050565b60006060820190506161206000830186615c71565b818103602083015261613281856154b3565b905061614160408301846152e7565b949350505050565b600060408201905061615e6000830185615c71565b61616b6020830184615520565b9392505050565b60006040820190506161876000830185615c80565b616194602083018461556b565b9392505050565b60006040820190506161b06000830185615c71565b81810360208301526161c281846157ed565b90509392505050565b60006040820190506161e06000830185615c80565b6161ed6020830184615c80565b9392505050565b60006080820190506162096000830187615c71565b6162166020830186615c71565b61622360408301856152e7565b6162306060830184615520565b95945050505050565b6000616243616254565b905061624f8282616684565b919050565b6000604051905090565b600067ffffffffffffffff821115616279576162786167ba565b5b602082029050602081019050919050565b600067ffffffffffffffff8211156162a5576162a46167ba565b5b602082029050602081019050919050565b600067ffffffffffffffff8211156162d1576162d06167ba565b5b602082029050602081019050919050565b600067ffffffffffffffff8211156162fd576162fc6167ba565b5b602082029050602081019050919050565b600067ffffffffffffffff821115616329576163286167ba565b5b602082029050602081019050919050565b600067ffffffffffffffff821115616355576163546167ba565b5b61635e8261680c565b9050602081019050919050565b6000819050602082019050919050565b6000819050602082019050919050565b6000819050602082019050919050565b6000819050602082019050919050565b600081519050919050565b600081519050919050565b600081519050919050565b600081519050919050565b600081519050919050565b6000602082019050919050565b6000602082019050919050565b6000602082019050919050565b6000602082019050919050565b600082825260208201905092915050565b600082825260208201905092915050565b600082825260208201905092915050565b600082825260208201905092915050565b600082825260208201905092915050565b600081905092915050565b600082825260208201905092915050565b600082825260208201905092915050565b60006164a3826165f0565b91506164ae836165f0565b9250827fffffffffffffffffffffffffffffffffffffffffffffffffffffffffffffffff038211156164e3576164e26166fe565b5b828201905092915050565b60006164f9826165f0565b9150616504836165f0565b9250826165145761651361672d565b5b828204905092915050565b600061652a826165f0565b9150616535836165f0565b9250817fffffffffffffffffffffffffffffffffffffffffffffffffffffffffffffffff048311821515161561656e5761656d6166fe565b5b828202905092915050565b6000616584826165d0565b9050919050565b60008115159050919050565b60008190506165a5826169dd565b919050565b60008190506165b8826169f1565b919050565b60008190506165cb82616a05565b919050565b600073ffffffffffffffffffffffffffffffffffffffff82169050919050565b6000819050919050565b600061660582616597565b9050919050565b6000616617826165aa565b9050919050565b6000616629826165bd565b9050919050565b600061663b826165f0565b9050919050565b82818337600083830152505050565b60005b8381101561666f578082015181840152602081019050616654565b8381111561667e576000848401525b50505050565b61668d8261680c565b810181811067ffffffffffffffff821117156166ac576166ab6167ba565b5b80604052505050565b60006166c0826165f0565b91507fffffffffffffffffffffffffffffffffffffffffffffffffffffffffffffffff8214156166f3576166f26166fe565b5b600182019050919050565b7f4e487b7100000000000000000000000000000000000000000000000000000000600052601160045260246000fd5b7f4e487b7100000000000000000000000000000000000000000000000000000000600052601260045260246000fd5b7f4e487b7100000000000000000000000000000000000000000000000000000000600052602160045260246000fd5b7f4e487b7100000000000000000000000000000000000000000000000000000000600052603260045260246000fd5b7f4e487b7100000000000000000000000000000000000000000000000000000000600052604160045260246000fd5b600080fd5b600080fd5b600080fd5b600080fd5b600080fd5b600080fd5b600080fd5b6000601f19601f8301169050919050565b7f43616c6c206661696c6564000000000000000000000000000000000000000000600082015250565b7f57726f6e6720696e6465782076616c7565210000000000000000000000000000600082015250565b7f4f776e61626c653a206e6577206f776e657220697320746865207a65726f206160008201527f6464726573730000000000000000000000000000000000000000000000000000602082015250565b7f546865206c6f636b206973206c6f636b65642e00000000000000000000000000600082015250565b7f6572726f72203a20496e636f72726563742076616c7565000000000000000000600082015250565b7f7473000000000000000000000000000000000000000000000000000000000000600082015250565b7f4f776e61626c653a2063616c6c6572206973206e6f7420746865206f776e6572600082015250565b7f5468652062616c616e6365206973206e6f742073756666696369656e742e0000600082015250565b50565b7f4f7065726174696f6e457863657074696f6e3a2043616e27742072656365697660008201527f65207461736b0000000000000000000000000000000000000000000000000000602082015250565b600a81106169ee576169ed61675c565b5b50565b60078110616a0257616a0161675c565b5b50565b60058110616a1657616a1561675c565b5b50565b616a2281616579565b8114616a2d57600080fd5b50565b616a398161658b565b8114616a4457600080fd5b50565b600a8110616a5457600080fd5b50565b60078110616a6457600080fd5b50565b60058110616a7457600080fd5b50565b616a80816165f0565b8114616a8b57600080fd5b5056fea2646970667358221220648ad5c44b3aaa08487bd3070ec8097ffa99c67f93fdb70ed323cb1c13c734d964736f6c63430008070033",
			"opcodes": "PUSH1 0x80 PUSH1 0x40 MSTORE CALLVALUE DUP1 ISZERO PUSH3 0x11 JUMPI PUSH1 0x0 DUP1 REVERT JUMPDEST POP PUSH1 0x40 MLOAD PUSH3 0x6CDB CODESIZE SUB DUP1 PUSH3 0x6CDB DUP4 CODECOPY DUP2 DUP2 ADD PUSH1 0x40 MSTORE DUP2 ADD SWAP1 PUSH3 0x37 SWAP2 SWAP1 PUSH3 0x182 JUMP JUMPDEST PUSH3 0x57 PUSH3 0x4B PUSH3 0x9F PUSH1 0x20 SHL PUSH1 0x20 SHR JUMP JUMPDEST PUSH3 0xA7 PUSH1 0x20 SHL PUSH1 0x20 SHR JUMP JUMPDEST DUP1 PUSH1 0x1 PUSH1 0x0 PUSH2 0x100 EXP DUP2 SLOAD DUP2 PUSH20 0xFFFFFFFFFFFFFFFFFFFFFFFFFFFFFFFFFFFFFFFF MUL NOT AND SWAP1 DUP4 PUSH20 0xFFFFFFFFFFFFFFFFFFFFFFFFFFFFFFFFFFFFFFFF AND MUL OR SWAP1 SSTORE POP POP PUSH3 0x207 JUMP JUMPDEST PUSH1 0x0 CALLER SWAP1 POP SWAP1 JUMP JUMPDEST PUSH1 0x0 DUP1 PUSH1 0x0 SWAP1 SLOAD SWAP1 PUSH2 0x100 EXP SWAP1 DIV PUSH20 0xFFFFFFFFFFFFFFFFFFFFFFFFFFFFFFFFFFFFFFFF AND SWAP1 POP DUP2 PUSH1 0x0 DUP1 PUSH2 0x100 EXP DUP2 SLOAD DUP2 PUSH20 0xFFFFFFFFFFFFFFFFFFFFFFFFFFFFFFFFFFFFFFFF MUL NOT AND SWAP1 DUP4 PUSH20 0xFFFFFFFFFFFFFFFFFFFFFFFFFFFFFFFFFFFFFFFF AND MUL OR SWAP1 SSTORE POP DUP2 PUSH20 0xFFFFFFFFFFFFFFFFFFFFFFFFFFFFFFFFFFFFFFFF AND DUP2 PUSH20 0xFFFFFFFFFFFFFFFFFFFFFFFFFFFFFFFFFFFFFFFF AND PUSH32 0x8BE0079C531659141344CD1FD0A4F28419497F9722A3DAAFE3B4186F6B6457E0 PUSH1 0x40 MLOAD PUSH1 0x40 MLOAD DUP1 SWAP2 SUB SWAP1 LOG3 POP POP JUMP JUMPDEST PUSH1 0x0 DUP2 MLOAD SWAP1 POP PUSH3 0x17C DUP2 PUSH3 0x1ED JUMP JUMPDEST SWAP3 SWAP2 POP POP JUMP JUMPDEST PUSH1 0x0 PUSH1 0x20 DUP3 DUP5 SUB SLT ISZERO PUSH3 0x19B JUMPI PUSH3 0x19A PUSH3 0x1E8 JUMP JUMPDEST JUMPDEST PUSH1 0x0 PUSH3 0x1AB DUP5 DUP3 DUP6 ADD PUSH3 0x16B JUMP JUMPDEST SWAP2 POP POP SWAP3 SWAP2 POP POP JUMP JUMPDEST PUSH1 0x0 PUSH3 0x1C1 DUP3 PUSH3 0x1C8 JUMP JUMPDEST SWAP1 POP SWAP2 SWAP1 POP JUMP JUMPDEST PUSH1 0x0 PUSH20 0xFFFFFFFFFFFFFFFFFFFFFFFFFFFFFFFFFFFFFFFF DUP3 AND SWAP1 POP SWAP2 SWAP1 POP JUMP JUMPDEST PUSH1 0x0 DUP1 REVERT JUMPDEST PUSH3 0x1F8 DUP2 PUSH3 0x1B4 JUMP JUMPDEST DUP2 EQ PUSH3 0x204 JUMPI PUSH1 0x0 DUP1 REVERT JUMPDEST POP JUMP JUMPDEST PUSH2 0x6AC4 DUP1 PUSH3 0x217 PUSH1 0x0 CODECOPY PUSH1 0x0 RETURN INVALID PUSH1 0x80 PUSH1 0x40 MSTORE PUSH1 0x4 CALLDATASIZE LT PUSH2 0x118 JUMPI PUSH1 0x0 CALLDATALOAD PUSH1 0xE0 SHR DUP1 PUSH4 0x715018A6 GT PUSH2 0xA0 JUMPI DUP1 PUSH4 0xAC35CD61 GT PUSH2 0x64 JUMPI DUP1 PUSH4 0xAC35CD61 EQ PUSH2 0x32E JUMPI DUP1 PUSH4 0xBB0C38C0 EQ PUSH2 0x35E JUMPI DUP1 PUSH4 0xD1A1B999 EQ PUSH2 0x387 JUMPI DUP1 PUSH4 0xF2FDE38B EQ PUSH2 0x3C4 JUMPI DUP1 PUSH4 0xFA4C6473 EQ PUSH2 0x3ED JUMPI PUSH2 0x11F JUMP JUMPDEST DUP1 PUSH4 0x715018A6 EQ PUSH2 0x271 JUMPI DUP1 PUSH4 0x78A1E6CD EQ PUSH2 0x288 JUMPI DUP1 PUSH4 0x8ADC74A5 EQ PUSH2 0x2B1 JUMPI DUP1 PUSH4 0x8DA5CB5B EQ PUSH2 0x2DA JUMPI DUP1 PUSH4 0xA55AF701 EQ PUSH2 0x305 JUMPI PUSH2 0x11F JUMP JUMPDEST DUP1 PUSH4 0x36D61AE0 GT PUSH2 0xE7 JUMPI DUP1 PUSH4 0x36D61AE0 EQ PUSH2 0x1AD JUMPI DUP1 PUSH4 0x3BD14E13 EQ PUSH2 0x1EA JUMPI DUP1 PUSH4 0x3CCFD60B EQ PUSH2 0x213 JUMPI DUP1 PUSH4 0x460968DD EQ PUSH2 0x22A JUMPI DUP1 PUSH4 0x5B0EF140 EQ PUSH2 0x234 JUMPI PUSH2 0x11F JUMP JUMPDEST DUP1 PUSH4 0x9A02F58 EQ PUSH2 0x121 JUMPI DUP1 PUSH4 0xC11DEDD EQ PUSH2 0x13D JUMPI DUP1 PUSH4 0x22968885 EQ PUSH2 0x159 JUMPI DUP1 PUSH4 0x243634BF EQ PUSH2 0x184 JUMPI PUSH2 0x11F JUMP JUMPDEST CALLDATASIZE PUSH2 0x11F JUMPI STOP JUMPDEST STOP JUMPDEST PUSH2 0x13B PUSH1 0x4 DUP1 CALLDATASIZE SUB DUP2 ADD SWAP1 PUSH2 0x136 SWAP2 SWAP1 PUSH2 0x51B9 JUMP JUMPDEST PUSH2 0x416 JUMP JUMPDEST STOP JUMPDEST PUSH2 0x157 PUSH1 0x4 DUP1 CALLDATASIZE SUB DUP2 ADD SWAP1 PUSH2 0x152 SWAP2 SWAP1 PUSH2 0x4DBE JUMP JUMPDEST PUSH2 0x5F9 JUMP JUMPDEST STOP JUMPDEST CALLVALUE DUP1 ISZERO PUSH2 0x165 JUMPI PUSH1 0x0 DUP1 REVERT JUMPDEST POP PUSH2 0x16E PUSH2 0x769 JUMP JUMPDEST PUSH1 0x40 MLOAD PUSH2 0x17B SWAP2 SWAP1 PUSH2 0x5F14 JUMP JUMPDEST PUSH1 0x40 MLOAD DUP1 SWAP2 SUB SWAP1 RETURN JUMPDEST CALLVALUE DUP1 ISZERO PUSH2 0x190 JUMPI PUSH1 0x0 DUP1 REVERT JUMPDEST POP PUSH2 0x1AB PUSH1 0x4 DUP1 CALLDATASIZE SUB DUP2 ADD SWAP1 PUSH2 0x1A6 SWAP2 SWAP1 PUSH2 0x50C6 JUMP JUMPDEST PUSH2 0x771 JUMP JUMPDEST STOP JUMPDEST CALLVALUE DUP1 ISZERO PUSH2 0x1B9 JUMPI PUSH1 0x0 DUP1 REVERT JUMPDEST POP PUSH2 0x1D4 PUSH1 0x4 DUP1 CALLDATASIZE SUB DUP2 ADD SWAP1 PUSH2 0x1CF SWAP2 SWAP1 PUSH2 0x501F JUMP JUMPDEST PUSH2 0x88D JUMP JUMPDEST PUSH1 0x40 MLOAD PUSH2 0x1E1 SWAP2 SWAP1 PUSH2 0x5F14 JUMP JUMPDEST PUSH1 0x40 MLOAD DUP1 SWAP2 SUB SWAP1 RETURN JUMPDEST CALLVALUE DUP1 ISZERO PUSH2 0x1F6 JUMPI PUSH1 0x0 DUP1 REVERT JUMPDEST POP PUSH2 0x211 PUSH1 0x4 DUP1 CALLDATASIZE SUB DUP2 ADD SWAP1 PUSH2 0x20C SWAP2 SWAP1 PUSH2 0x515D JUMP JUMPDEST PUSH2 0xA1A JUMP JUMPDEST STOP JUMPDEST CALLVALUE DUP1 ISZERO PUSH2 0x21F JUMPI PUSH1 0x0 DUP1 REVERT JUMPDEST POP PUSH2 0x228 PUSH2 0xC81 JUMP JUMPDEST STOP JUMPDEST PUSH2 0x232 PUSH2 0xC93 JUMP JUMPDEST STOP JUMPDEST CALLVALUE DUP1 ISZERO PUSH2 0x240 JUMPI PUSH1 0x0 DUP1 REVERT JUMPDEST POP PUSH2 0x25B PUSH1 0x4 DUP1 CALLDATASIZE SUB DUP2 ADD SWAP1 PUSH2 0x256 SWAP2 SWAP1 PUSH2 0x501F JUMP JUMPDEST PUSH2 0xD7D JUMP JUMPDEST PUSH1 0x40 MLOAD PUSH2 0x268 SWAP2 SWAP1 PUSH2 0x5F14 JUMP JUMPDEST PUSH1 0x40 MLOAD DUP1 SWAP2 SUB SWAP1 RETURN JUMPDEST CALLVALUE DUP1 ISZERO PUSH2 0x27D JUMPI PUSH1 0x0 DUP1 REVERT JUMPDEST POP PUSH2 0x286 PUSH2 0xF0A JUMP JUMPDEST STOP JUMPDEST CALLVALUE DUP1 ISZERO PUSH2 0x294 JUMPI PUSH1 0x0 DUP1 REVERT JUMPDEST POP PUSH2 0x2AF PUSH1 0x4 DUP1 CALLDATASIZE SUB DUP2 ADD SWAP1 PUSH2 0x2AA SWAP2 SWAP1 PUSH2 0x505F JUMP JUMPDEST PUSH2 0xF1E JUMP JUMPDEST STOP JUMPDEST CALLVALUE DUP1 ISZERO PUSH2 0x2BD JUMPI PUSH1 0x0 DUP1 REVERT JUMPDEST POP PUSH2 0x2D8 PUSH1 0x4 DUP1 CALLDATASIZE SUB DUP2 ADD SWAP1 PUSH2 0x2D3 SWAP2 SWAP1 PUSH2 0x4FC5 JUMP JUMPDEST PUSH2 0x1014 JUMP JUMPDEST STOP JUMPDEST CALLVALUE DUP1 ISZERO PUSH2 0x2E6 JUMPI PUSH1 0x0 DUP1 REVERT JUMPDEST POP PUSH2 0x2EF PUSH2 0x1105 JUMP JUMPDEST PUSH1 0x40 MLOAD PUSH2 0x2FC SWAP2 SWAP1 PUSH2 0x5CA4 JUMP JUMPDEST PUSH1 0x40 MLOAD DUP1 SWAP2 SUB SWAP1 RETURN JUMPDEST CALLVALUE DUP1 ISZERO PUSH2 0x311 JUMPI PUSH1 0x0 DUP1 REVERT JUMPDEST POP PUSH2 0x32C PUSH1 0x4 DUP1 CALLDATASIZE SUB DUP2 ADD SWAP1 PUSH2 0x327 SWAP2 SWAP1 PUSH2 0x4FC5 JUMP JUMPDEST PUSH2 0x112E JUMP JUMPDEST STOP JUMPDEST PUSH2 0x348 PUSH1 0x4 DUP1 CALLDATASIZE SUB DUP2 ADD SWAP1 PUSH2 0x343 SWAP2 SWAP1 PUSH2 0x4F33 JUMP JUMPDEST PUSH2 0x121F JUMP JUMPDEST PUSH1 0x40 MLOAD PUSH2 0x355 SWAP2 SWAP1 PUSH2 0x5F14 JUMP JUMPDEST PUSH1 0x40 MLOAD DUP1 SWAP2 SUB SWAP1 RETURN JUMPDEST CALLVALUE DUP1 ISZERO PUSH2 0x36A JUMPI PUSH1 0x0 DUP1 REVERT JUMPDEST POP PUSH2 0x385 PUSH1 0x4 DUP1 CALLDATASIZE SUB DUP2 ADD SWAP1 PUSH2 0x380 SWAP2 SWAP1 PUSH2 0x5215 JUMP JUMPDEST PUSH2 0x1322 JUMP JUMPDEST STOP JUMPDEST CALLVALUE DUP1 ISZERO PUSH2 0x393 JUMPI PUSH1 0x0 DUP1 REVERT JUMPDEST POP PUSH2 0x3AE PUSH1 0x4 DUP1 CALLDATASIZE SUB DUP2 ADD SWAP1 PUSH2 0x3A9 SWAP2 SWAP1 PUSH2 0x4FC5 JUMP JUMPDEST PUSH2 0x1416 JUMP JUMPDEST PUSH1 0x40 MLOAD PUSH2 0x3BB SWAP2 SWAP1 PUSH2 0x5ED7 JUMP JUMPDEST PUSH1 0x40 MLOAD DUP1 SWAP2 SUB SWAP1 RETURN JUMPDEST CALLVALUE DUP1 ISZERO PUSH2 0x3D0 JUMPI PUSH1 0x0 DUP1 REVERT JUMPDEST POP PUSH2 0x3EB PUSH1 0x4 DUP1 CALLDATASIZE SUB DUP2 ADD SWAP1 PUSH2 0x3E6 SWAP2 SWAP1 PUSH2 0x4DBE JUMP JUMPDEST PUSH2 0x15B9 JUMP JUMPDEST STOP JUMPDEST CALLVALUE DUP1 ISZERO PUSH2 0x3F9 JUMPI PUSH1 0x0 DUP1 REVERT JUMPDEST POP PUSH2 0x414 PUSH1 0x4 DUP1 CALLDATASIZE SUB DUP2 ADD SWAP1 PUSH2 0x40F SWAP2 SWAP1 PUSH2 0x515D JUMP JUMPDEST PUSH2 0x163D JUMP JUMPDEST STOP JUMPDEST DUP2 PUSH1 0x1 PUSH1 0x0 SWAP1 SLOAD SWAP1 PUSH2 0x100 EXP SWAP1 DIV PUSH20 0xFFFFFFFFFFFFFFFFFFFFFFFFFFFFFFFFFFFFFFFF AND PUSH20 0xFFFFFFFFFFFFFFFFFFFFFFFFFFFFFFFFFFFFFFFF AND PUSH4 0xA87D942C PUSH1 0x40 MLOAD DUP2 PUSH4 0xFFFFFFFF AND PUSH1 0xE0 SHL DUP2 MSTORE PUSH1 0x4 ADD PUSH1 0x20 PUSH1 0x40 MLOAD DUP1 DUP4 SUB DUP2 DUP7 DUP1 EXTCODESIZE ISZERO DUP1 ISZERO PUSH2 0x47F JUMPI PUSH1 0x0 DUP1 REVERT JUMPDEST POP GAS STATICCALL ISZERO DUP1 ISZERO PUSH2 0x493 JUMPI RETURNDATASIZE PUSH1 0x0 DUP1 RETURNDATACOPY RETURNDATASIZE PUSH1 0x0 REVERT JUMPDEST POP POP POP POP PUSH1 0x40 MLOAD RETURNDATASIZE PUSH1 0x1F NOT PUSH1 0x1F DUP3 ADD AND DUP3 ADD DUP1 PUSH1 0x40 MSTORE POP DUP2 ADD SWAP1 PUSH2 0x4B7 SWAP2 SWAP1 PUSH2 0x4FF2 JUMP JUMPDEST DUP2 GT ISZERO PUSH2 0x4F9 JUMPI PUSH1 0x40 MLOAD PUSH32 0xD1D89B7400000000000000000000000000000000000000000000000000000000 DUP2 MSTORE PUSH1 0x4 ADD PUSH2 0x4F0 SWAP1 PUSH2 0x5DC7 JUMP JUMPDEST PUSH1 0x40 MLOAD DUP1 SWAP2 SUB SWAP1 REVERT JUMPDEST PUSH2 0x503 DUP4 DUP4 PUSH2 0x18A4 JUMP JUMPDEST PUSH1 0x0 PUSH20 0x0 PUSH4 0xF74F3655 DUP5 PUSH2 0x160 ADD MLOAD PUSH1 0x1E PUSH1 0x40 MLOAD DUP4 PUSH4 0xFFFFFFFF AND PUSH1 0xE0 SHL DUP2 MSTORE PUSH1 0x4 ADD PUSH2 0x544 SWAP3 SWAP2 SWAP1 PUSH2 0x6172 JUMP JUMPDEST PUSH1 0x20 PUSH1 0x40 MLOAD DUP1 DUP4 SUB DUP2 DUP7 DUP1 EXTCODESIZE ISZERO DUP1 ISZERO PUSH2 0x55C JUMPI PUSH1 0x0 DUP1 REVERT JUMPDEST POP GAS DELEGATECALL ISZERO DUP1 ISZERO PUSH2 0x570 JUMPI RETURNDATASIZE PUSH1 0x0 DUP1 RETURNDATACOPY RETURNDATASIZE PUSH1 0x0 REVERT JUMPDEST POP POP POP POP PUSH1 0x40 MLOAD RETURNDATASIZE PUSH1 0x1F NOT PUSH1 0x1F DUP3 ADD AND DUP3 ADD DUP1 PUSH1 0x40 MSTORE POP DUP2 ADD SWAP1 PUSH2 0x594 SWAP2 SWAP1 PUSH2 0x4FF2 JUMP JUMPDEST SWAP1 POP PUSH8 0xDE0B6B3A7640000 DUP2 PUSH2 0x5AA SWAP2 SWAP1 PUSH2 0x651F JUMP JUMPDEST CALLVALUE EQ PUSH2 0x5EB JUMPI PUSH1 0x40 MLOAD PUSH32 0xD1D89B7400000000000000000000000000000000000000000000000000000000 DUP2 MSTORE PUSH1 0x4 ADD PUSH2 0x5E2 SWAP1 PUSH2 0x5E27 JUMP JUMPDEST PUSH1 0x40 MLOAD DUP1 SWAP2 SUB SWAP1 REVERT JUMPDEST PUSH2 0x5F3 PUSH2 0xC93 JUMP JUMPDEST POP POP POP POP JUMP JUMPDEST PUSH1 0x0 PUSH1 0x14 SWAP1 SLOAD SWAP1 PUSH2 0x100 EXP SWAP1 DIV PUSH1 0xFF AND ISZERO PUSH2 0x649 JUMPI PUSH1 0x40 MLOAD PUSH32 0x8C379A000000000000000000000000000000000000000000000000000000000 DUP2 MSTORE PUSH1 0x4 ADD PUSH2 0x640 SWAP1 PUSH2 0x5E07 JUMP JUMPDEST PUSH1 0x40 MLOAD DUP1 SWAP2 SUB SWAP1 REVERT JUMPDEST PUSH1 0x1 PUSH1 0x0 PUSH1 0x14 PUSH2 0x100 EXP DUP2 SLOAD DUP2 PUSH1 0xFF MUL NOT AND SWAP1 DUP4 ISZERO ISZERO MUL OR SWAP1 SSTORE POP PUSH1 0x0 DUP2 PUSH20 0xFFFFFFFFFFFFFFFFFFFFFFFFFFFFFFFFFFFFFFFF AND CALLVALUE PUSH1 0x40 MLOAD PUSH2 0x68A SWAP1 PUSH2 0x5C8F JUMP JUMPDEST PUSH1 0x0 PUSH1 0x40 MLOAD DUP1 DUP4 SUB DUP2 DUP6 DUP8 GAS CALL SWAP3 POP POP POP RETURNDATASIZE DUP1 PUSH1 0x0 DUP2 EQ PUSH2 0x6C7 JUMPI PUSH1 0x40 MLOAD SWAP2 POP PUSH1 0x1F NOT PUSH1 0x3F RETURNDATASIZE ADD AND DUP3 ADD PUSH1 0x40 MSTORE RETURNDATASIZE DUP3 MSTORE RETURNDATASIZE PUSH1 0x0 PUSH1 0x20 DUP5 ADD RETURNDATACOPY PUSH2 0x6CC JUMP JUMPDEST PUSH1 0x60 SWAP2 POP JUMPDEST POP POP SWAP1 POP DUP1 PUSH2 0x710 JUMPI PUSH1 0x40 MLOAD PUSH32 0x8C379A000000000000000000000000000000000000000000000000000000000 DUP2 MSTORE PUSH1 0x4 ADD PUSH2 0x707 SWAP1 PUSH2 0x5DA7 JUMP JUMPDEST PUSH1 0x40 MLOAD DUP1 SWAP2 SUB SWAP1 REVERT JUMPDEST PUSH32 0xB37BD6F3CCFCE130859D4569DC432409F423A7928E73EB5C5049A94E40F0C648 CALLER DUP4 CALLVALUE PUSH1 0x40 MLOAD PUSH2 0x743 SWAP4 SWAP3 SWAP2 SWAP1 PUSH2 0x5CBF JUMP JUMPDEST PUSH1 0x40 MLOAD DUP1 SWAP2 SUB SWAP1 LOG1 POP PUSH1 0x0 DUP1 PUSH1 0x14 PUSH2 0x100 EXP DUP2 SLOAD DUP2 PUSH1 0xFF MUL NOT AND SWAP1 DUP4 ISZERO ISZERO MUL OR SWAP1 SSTORE POP POP JUMP JUMPDEST PUSH1 0x0 SELFBALANCE SWAP1 POP SWAP1 JUMP JUMPDEST DUP5 PUSH1 0x1 PUSH1 0x0 SWAP1 SLOAD SWAP1 PUSH2 0x100 EXP SWAP1 DIV PUSH20 0xFFFFFFFFFFFFFFFFFFFFFFFFFFFFFFFFFFFFFFFF AND PUSH20 0xFFFFFFFFFFFFFFFFFFFFFFFFFFFFFFFFFFFFFFFF AND PUSH4 0xA87D942C PUSH1 0x40 MLOAD DUP2 PUSH4 0xFFFFFFFF AND PUSH1 0xE0 SHL DUP2 MSTORE PUSH1 0x4 ADD PUSH1 0x20 PUSH1 0x40 MLOAD DUP1 DUP4 SUB DUP2 DUP7 DUP1 EXTCODESIZE ISZERO DUP1 ISZERO PUSH2 0x7DA JUMPI PUSH1 0x0 DUP1 REVERT JUMPDEST POP GAS STATICCALL ISZERO DUP1 ISZERO PUSH2 0x7EE JUMPI RETURNDATASIZE PUSH1 0x0 DUP1 RETURNDATACOPY RETURNDATASIZE PUSH1 0x0 REVERT JUMPDEST POP POP POP POP PUSH1 0x40 MLOAD RETURNDATASIZE PUSH1 0x1F NOT PUSH1 0x1F DUP3 ADD AND DUP3 ADD DUP1 PUSH1 0x40 MSTORE POP DUP2 ADD SWAP1 PUSH2 0x812 SWAP2 SWAP1 PUSH2 0x4FF2 JUMP JUMPDEST DUP2 GT ISZERO PUSH2 0x854 JUMPI PUSH1 0x40 MLOAD PUSH32 0xD1D89B7400000000000000000000000000000000000000000000000000000000 DUP2 MSTORE PUSH1 0x4 ADD PUSH2 0x84B SWAP1 PUSH2 0x5DC7 JUMP JUMPDEST PUSH1 0x40 MLOAD DUP1 SWAP2 SUB SWAP1 REVERT JUMPDEST PUSH1 0x0 PUSH2 0x863 DUP8 DUP8 DUP8 DUP8 DUP8 PUSH2 0x1972 JUMP JUMPDEST SWAP1 POP PUSH1 0x0 DUP2 GT ISZERO PUSH2 0x884 JUMPI PUSH2 0x877 DUP2 PUSH2 0x1C1A JUMP JUMPDEST SWAP1 POP PUSH2 0x883 DUP7 DUP3 PUSH2 0x1C2E JUMP JUMPDEST JUMPDEST POP POP POP POP POP POP POP JUMP JUMPDEST PUSH1 0x0 DUP3 PUSH1 0x1 PUSH1 0x0 SWAP1 SLOAD SWAP1 PUSH2 0x100 EXP SWAP1 DIV PUSH20 0xFFFFFFFFFFFFFFFFFFFFFFFFFFFFFFFFFFFFFFFF AND PUSH20 0xFFFFFFFFFFFFFFFFFFFFFFFFFFFFFFFFFFFFFFFF AND PUSH4 0xA87D942C PUSH1 0x40 MLOAD DUP2 PUSH4 0xFFFFFFFF AND PUSH1 0xE0 SHL DUP2 MSTORE PUSH1 0x4 ADD PUSH1 0x20 PUSH1 0x40 MLOAD DUP1 DUP4 SUB DUP2 DUP7 DUP1 EXTCODESIZE ISZERO DUP1 ISZERO PUSH2 0x8F8 JUMPI PUSH1 0x0 DUP1 REVERT JUMPDEST POP GAS STATICCALL ISZERO DUP1 ISZERO PUSH2 0x90C JUMPI RETURNDATASIZE PUSH1 0x0 DUP1 RETURNDATACOPY RETURNDATASIZE PUSH1 0x0 REVERT JUMPDEST POP POP POP POP PUSH1 0x40 MLOAD RETURNDATASIZE PUSH1 0x1F NOT PUSH1 0x1F DUP3 ADD AND DUP3 ADD DUP1 PUSH1 0x40 MSTORE POP DUP2 ADD SWAP1 PUSH2 0x930 SWAP2 SWAP1 PUSH2 0x4FF2 JUMP JUMPDEST DUP2 GT ISZERO PUSH2 0x972 JUMPI PUSH1 0x40 MLOAD PUSH32 0xD1D89B7400000000000000000000000000000000000000000000000000000000 DUP2 MSTORE PUSH1 0x4 ADD PUSH2 0x969 SWAP1 PUSH2 0x5DC7 JUMP JUMPDEST PUSH1 0x40 MLOAD DUP1 SWAP2 SUB SWAP1 REVERT JUMPDEST PUSH1 0x0 PUSH2 0x97E DUP6 DUP6 PUSH2 0x1D8A JUMP JUMPDEST SWAP1 POP PUSH1 0x1 PUSH1 0x0 SWAP1 SLOAD SWAP1 PUSH2 0x100 EXP SWAP1 DIV PUSH20 0xFFFFFFFFFFFFFFFFFFFFFFFFFFFFFFFFFFFFFFFF AND PUSH20 0xFFFFFFFFFFFFFFFFFFFFFFFFFFFFFFFFFFFFFFFF AND PUSH4 0x172372C2 DUP6 DUP4 PUSH1 0x40 MLOAD DUP4 PUSH4 0xFFFFFFFF AND PUSH1 0xE0 SHL DUP2 MSTORE PUSH1 0x4 ADD PUSH2 0x9DD SWAP3 SWAP2 SWAP1 PUSH2 0x5CF6 JUMP JUMPDEST PUSH1 0x0 PUSH1 0x40 MLOAD DUP1 DUP4 SUB DUP2 PUSH1 0x0 DUP8 DUP1 EXTCODESIZE ISZERO DUP1 ISZERO PUSH2 0x9F7 JUMPI PUSH1 0x0 DUP1 REVERT JUMPDEST POP GAS CALL ISZERO DUP1 ISZERO PUSH2 0xA0B JUMPI RETURNDATASIZE PUSH1 0x0 DUP1 RETURNDATACOPY RETURNDATASIZE PUSH1 0x0 REVERT JUMPDEST POP POP POP POP DUP1 SWAP3 POP POP POP SWAP3 SWAP2 POP POP JUMP JUMPDEST DUP2 PUSH1 0x1 PUSH1 0x0 SWAP1 SLOAD SWAP1 PUSH2 0x100 EXP SWAP1 DIV PUSH20 0xFFFFFFFFFFFFFFFFFFFFFFFFFFFFFFFFFFFFFFFF AND PUSH20 0xFFFFFFFFFFFFFFFFFFFFFFFFFFFFFFFFFFFFFFFF AND PUSH4 0xA87D942C PUSH1 0x40 MLOAD DUP2 PUSH4 0xFFFFFFFF AND PUSH1 0xE0 SHL DUP2 MSTORE PUSH1 0x4 ADD PUSH1 0x20 PUSH1 0x40 MLOAD DUP1 DUP4 SUB DUP2 DUP7 DUP1 EXTCODESIZE ISZERO DUP1 ISZERO PUSH2 0xA83 JUMPI PUSH1 0x0 DUP1 REVERT JUMPDEST POP GAS STATICCALL ISZERO DUP1 ISZERO PUSH2 0xA97 JUMPI RETURNDATASIZE PUSH1 0x0 DUP1 RETURNDATACOPY RETURNDATASIZE PUSH1 0x0 REVERT JUMPDEST POP POP POP POP PUSH1 0x40 MLOAD RETURNDATASIZE PUSH1 0x1F NOT PUSH1 0x1F DUP3 ADD AND DUP3 ADD DUP1 PUSH1 0x40 MSTORE POP DUP2 ADD SWAP1 PUSH2 0xABB SWAP2 SWAP1 PUSH2 0x4FF2 JUMP JUMPDEST DUP2 GT ISZERO PUSH2 0xAFD JUMPI PUSH1 0x40 MLOAD PUSH32 0xD1D89B7400000000000000000000000000000000000000000000000000000000 DUP2 MSTORE PUSH1 0x4 ADD PUSH2 0xAF4 SWAP1 PUSH2 0x5DC7 JUMP JUMPDEST PUSH1 0x40 MLOAD DUP1 SWAP2 SUB SWAP1 REVERT JUMPDEST DUP3 PUSH1 0x1 PUSH1 0x0 SWAP1 SLOAD SWAP1 PUSH2 0x100 EXP SWAP1 DIV PUSH20 0xFFFFFFFFFFFFFFFFFFFFFFFFFFFFFFFFFFFFFFFF AND PUSH20 0xFFFFFFFFFFFFFFFFFFFFFFFFFFFFFFFFFFFFFFFF AND PUSH4 0x546677AA DUP3 PUSH1 0x40 MLOAD DUP3 PUSH4 0xFFFFFFFF AND PUSH1 0xE0 SHL DUP2 MSTORE PUSH1 0x4 ADD PUSH2 0xB59 SWAP2 SWAP1 PUSH2 0x5F14 JUMP JUMPDEST PUSH1 0x20 PUSH1 0x40 MLOAD DUP1 DUP4 SUB DUP2 DUP7 DUP1 EXTCODESIZE ISZERO DUP1 ISZERO PUSH2 0xB71 JUMPI PUSH1 0x0 DUP1 REVERT JUMPDEST POP GAS STATICCALL ISZERO DUP1 ISZERO PUSH2 0xB85 JUMPI RETURNDATASIZE PUSH1 0x0 DUP1 RETURNDATACOPY RETURNDATASIZE PUSH1 0x0 REVERT JUMPDEST POP POP POP POP PUSH1 0x40 MLOAD RETURNDATASIZE PUSH1 0x1F NOT PUSH1 0x1F DUP3 ADD AND DUP3 ADD DUP1 PUSH1 0x40 MSTORE POP DUP2 ADD SWAP1 PUSH2 0xBA9 SWAP2 SWAP1 PUSH2 0x4F06 JUMP JUMPDEST PUSH2 0xBEA JUMPI DUP1 PUSH1 0x40 MLOAD PUSH32 0xA0F2FA6E00000000000000000000000000000000000000000000000000000000 DUP2 MSTORE PUSH1 0x4 ADD PUSH2 0xBE1 SWAP2 SWAP1 PUSH2 0x5E87 JUMP JUMPDEST PUSH1 0x40 MLOAD DUP1 SWAP2 SUB SWAP1 REVERT JUMPDEST PUSH1 0x1 PUSH1 0x0 SWAP1 SLOAD SWAP1 PUSH2 0x100 EXP SWAP1 DIV PUSH20 0xFFFFFFFFFFFFFFFFFFFFFFFFFFFFFFFFFFFFFFFF AND PUSH20 0xFFFFFFFFFFFFFFFFFFFFFFFFFFFFFFFFFFFFFFFF AND PUSH4 0xA15D194C DUP6 DUP6 CALLER PUSH1 0x40 MLOAD DUP5 PUSH4 0xFFFFFFFF AND PUSH1 0xE0 SHL DUP2 MSTORE PUSH1 0x4 ADD PUSH2 0xC49 SWAP4 SWAP3 SWAP2 SWAP1 PUSH2 0x610B JUMP JUMPDEST PUSH1 0x0 PUSH1 0x40 MLOAD DUP1 DUP4 SUB DUP2 PUSH1 0x0 DUP8 DUP1 EXTCODESIZE ISZERO DUP1 ISZERO PUSH2 0xC63 JUMPI PUSH1 0x0 DUP1 REVERT JUMPDEST POP GAS CALL ISZERO DUP1 ISZERO PUSH2 0xC77 JUMPI RETURNDATASIZE PUSH1 0x0 DUP1 RETURNDATACOPY RETURNDATASIZE PUSH1 0x0 REVERT JUMPDEST POP POP POP POP POP POP POP POP JUMP JUMPDEST PUSH2 0xC89 PUSH2 0x22B1 JUMP JUMPDEST PUSH2 0xC91 PUSH2 0x232F JUMP JUMPDEST JUMP JUMPDEST PUSH1 0x0 ADDRESS PUSH20 0xFFFFFFFFFFFFFFFFFFFFFFFFFFFFFFFFFFFFFFFF AND CALLVALUE PUSH1 0x40 MLOAD PUSH2 0xCB9 SWAP1 PUSH2 0x5C8F JUMP JUMPDEST PUSH1 0x0 PUSH1 0x40 MLOAD DUP1 DUP4 SUB DUP2 DUP6 DUP8 GAS CALL SWAP3 POP POP POP RETURNDATASIZE DUP1 PUSH1 0x0 DUP2 EQ PUSH2 0xCF6 JUMPI PUSH1 0x40 MLOAD SWAP2 POP PUSH1 0x1F NOT PUSH1 0x3F RETURNDATASIZE ADD AND DUP3 ADD PUSH1 0x40 MSTORE RETURNDATASIZE DUP3 MSTORE RETURNDATASIZE PUSH1 0x0 PUSH1 0x20 DUP5 ADD RETURNDATACOPY PUSH2 0xCFB JUMP JUMPDEST PUSH1 0x60 SWAP2 POP JUMPDEST POP POP SWAP1 POP DUP1 PUSH2 0xD3F JUMPI PUSH1 0x40 MLOAD PUSH32 0x8C379A000000000000000000000000000000000000000000000000000000000 DUP2 MSTORE PUSH1 0x4 ADD PUSH2 0xD36 SWAP1 PUSH2 0x5DA7 JUMP JUMPDEST PUSH1 0x40 MLOAD DUP1 SWAP2 SUB SWAP1 REVERT JUMPDEST PUSH32 0xB37BD6F3CCFCE130859D4569DC432409F423A7928E73EB5C5049A94E40F0C648 CALLER ADDRESS CALLVALUE PUSH1 0x40 MLOAD PUSH2 0xD72 SWAP4 SWAP3 SWAP2 SWAP1 PUSH2 0x5CBF JUMP JUMPDEST PUSH1 0x40 MLOAD DUP1 SWAP2 SUB SWAP1 LOG1 POP JUMP JUMPDEST PUSH1 0x0 DUP3 PUSH1 0x1 PUSH1 0x0 SWAP1 SLOAD SWAP1 PUSH2 0x100 EXP SWAP1 DIV PUSH20 0xFFFFFFFFFFFFFFFFFFFFFFFFFFFFFFFFFFFFFFFF AND PUSH20 0xFFFFFFFFFFFFFFFFFFFFFFFFFFFFFFFFFFFFFFFF AND PUSH4 0xA87D942C PUSH1 0x40 MLOAD DUP2 PUSH4 0xFFFFFFFF AND PUSH1 0xE0 SHL DUP2 MSTORE PUSH1 0x4 ADD PUSH1 0x20 PUSH1 0x40 MLOAD DUP1 DUP4 SUB DUP2 DUP7 DUP1 EXTCODESIZE ISZERO DUP1 ISZERO PUSH2 0xDE8 JUMPI PUSH1 0x0 DUP1 REVERT JUMPDEST POP GAS STATICCALL ISZERO DUP1 ISZERO PUSH2 0xDFC JUMPI RETURNDATASIZE PUSH1 0x0 DUP1 RETURNDATACOPY RETURNDATASIZE PUSH1 0x0 REVERT JUMPDEST POP POP POP POP PUSH1 0x40 MLOAD RETURNDATASIZE PUSH1 0x1F NOT PUSH1 0x1F DUP3 ADD AND DUP3 ADD DUP1 PUSH1 0x40 MSTORE POP DUP2 ADD SWAP1 PUSH2 0xE20 SWAP2 SWAP1 PUSH2 0x4FF2 JUMP JUMPDEST DUP2 GT ISZERO PUSH2 0xE62 JUMPI PUSH1 0x40 MLOAD PUSH32 0xD1D89B7400000000000000000000000000000000000000000000000000000000 DUP2 MSTORE PUSH1 0x4 ADD PUSH2 0xE59 SWAP1 PUSH2 0x5DC7 JUMP JUMPDEST PUSH1 0x40 MLOAD DUP1 SWAP2 SUB SWAP1 REVERT JUMPDEST PUSH1 0x0 PUSH2 0xE6E DUP6 DUP6 PUSH2 0x2419 JUMP JUMPDEST SWAP1 POP PUSH1 0x1 PUSH1 0x0 SWAP1 SLOAD SWAP1 PUSH2 0x100 EXP SWAP1 DIV PUSH20 0xFFFFFFFFFFFFFFFFFFFFFFFFFFFFFFFFFFFFFFFF AND PUSH20 0xFFFFFFFFFFFFFFFFFFFFFFFFFFFFFFFFFFFFFFFF AND PUSH4 0x172372C2 DUP6 DUP4 PUSH1 0x40 MLOAD DUP4 PUSH4 0xFFFFFFFF AND PUSH1 0xE0 SHL DUP2 MSTORE PUSH1 0x4 ADD PUSH2 0xECD SWAP3 SWAP2 SWAP1 PUSH2 0x5CF6 JUMP JUMPDEST PUSH1 0x0 PUSH1 0x40 MLOAD DUP1 DUP4 SUB DUP2 PUSH1 0x0 DUP8 DUP1 EXTCODESIZE ISZERO DUP1 ISZERO PUSH2 0xEE7 JUMPI PUSH1 0x0 DUP1 REVERT JUMPDEST POP GAS CALL ISZERO DUP1 ISZERO PUSH2 0xEFB JUMPI RETURNDATASIZE PUSH1 0x0 DUP1 RETURNDATACOPY RETURNDATASIZE PUSH1 0x0 REVERT JUMPDEST POP POP POP POP DUP1 SWAP3 POP POP POP SWAP3 SWAP2 POP POP JUMP JUMPDEST PUSH2 0xF12 PUSH2 0x22B1 JUMP JUMPDEST PUSH2 0xF1C PUSH1 0x0 PUSH2 0x2940 JUMP JUMPDEST JUMP JUMPDEST DUP4 PUSH1 0x1 PUSH1 0x0 SWAP1 SLOAD SWAP1 PUSH2 0x100 EXP SWAP1 DIV PUSH20 0xFFFFFFFFFFFFFFFFFFFFFFFFFFFFFFFFFFFFFFFF AND PUSH20 0xFFFFFFFFFFFFFFFFFFFFFFFFFFFFFFFFFFFFFFFF AND PUSH4 0xA87D942C PUSH1 0x40 MLOAD DUP2 PUSH4 0xFFFFFFFF AND PUSH1 0xE0 SHL DUP2 MSTORE PUSH1 0x4 ADD PUSH1 0x20 PUSH1 0x40 MLOAD DUP1 DUP4 SUB DUP2 DUP7 DUP1 EXTCODESIZE ISZERO DUP1 ISZERO PUSH2 0xF87 JUMPI PUSH1 0x0 DUP1 REVERT JUMPDEST POP GAS STATICCALL ISZERO DUP1 ISZERO PUSH2 0xF9B JUMPI RETURNDATASIZE PUSH1 0x0 DUP1 RETURNDATACOPY RETURNDATASIZE PUSH1 0x0 REVERT JUMPDEST POP POP POP POP PUSH1 0x40 MLOAD RETURNDATASIZE PUSH1 0x1F NOT PUSH1 0x1F DUP3 ADD AND DUP3 ADD DUP1 PUSH1 0x40 MSTORE POP DUP2 ADD SWAP1 PUSH2 0xFBF SWAP2 SWAP1 PUSH2 0x4FF2 JUMP JUMPDEST DUP2 GT ISZERO PUSH2 0x1001 JUMPI PUSH1 0x40 MLOAD PUSH32 0xD1D89B7400000000000000000000000000000000000000000000000000000000 DUP2 MSTORE PUSH1 0x4 ADD PUSH2 0xFF8 SWAP1 PUSH2 0x5DC7 JUMP JUMPDEST PUSH1 0x40 MLOAD DUP1 SWAP2 SUB SWAP1 REVERT JUMPDEST PUSH2 0x100D DUP6 DUP6 DUP6 DUP6 PUSH2 0x2A04 JUMP JUMPDEST POP POP POP POP POP JUMP JUMPDEST DUP1 PUSH1 0x1 PUSH1 0x0 SWAP1 SLOAD SWAP1 PUSH2 0x100 EXP SWAP1 DIV PUSH20 0xFFFFFFFFFFFFFFFFFFFFFFFFFFFFFFFFFFFFFFFF AND PUSH20 0xFFFFFFFFFFFFFFFFFFFFFFFFFFFFFFFFFFFFFFFF AND PUSH4 0xA87D942C PUSH1 0x40 MLOAD DUP2 PUSH4 0xFFFFFFFF AND PUSH1 0xE0 SHL DUP2 MSTORE PUSH1 0x4 ADD PUSH1 0x20 PUSH1 0x40 MLOAD DUP1 DUP4 SUB DUP2 DUP7 DUP1 EXTCODESIZE ISZERO DUP1 ISZERO PUSH2 0x107D JUMPI PUSH1 0x0 DUP1 REVERT JUMPDEST POP GAS STATICCALL ISZERO DUP1 ISZERO PUSH2 0x1091 JUMPI RETURNDATASIZE PUSH1 0x0 DUP1 RETURNDATACOPY RETURNDATASIZE PUSH1 0x0 REVERT JUMPDEST POP POP POP POP PUSH1 0x40 MLOAD RETURNDATASIZE PUSH1 0x1F NOT PUSH1 0x1F DUP3 ADD AND DUP3 ADD DUP1 PUSH1 0x40 MSTORE POP DUP2 ADD SWAP1 PUSH2 0x10B5 SWAP2 SWAP1 PUSH2 0x4FF2 JUMP JUMPDEST DUP2 GT ISZERO PUSH2 0x10F7 JUMPI PUSH1 0x40 MLOAD PUSH32 0xD1D89B7400000000000000000000000000000000000000000000000000000000 DUP2 MSTORE PUSH1 0x4 ADD PUSH2 0x10EE SWAP1 PUSH2 0x5DC7 JUMP JUMPDEST PUSH1 0x40 MLOAD DUP1 SWAP2 SUB SWAP1 REVERT JUMPDEST PUSH2 0x1100 DUP3 PUSH2 0x2B3B JUMP JUMPDEST POP POP POP JUMP JUMPDEST PUSH1 0x0 DUP1 PUSH1 0x0 SWAP1 SLOAD SWAP1 PUSH2 0x100 EXP SWAP1 DIV PUSH20 0xFFFFFFFFFFFFFFFFFFFFFFFFFFFFFFFFFFFFFFFF AND SWAP1 POP SWAP1 JUMP JUMPDEST DUP1 PUSH1 0x1 PUSH1 0x0 SWAP1 SLOAD SWAP1 PUSH2 0x100 EXP SWAP1 DIV PUSH20 0xFFFFFFFFFFFFFFFFFFFFFFFFFFFFFFFFFFFFFFFF AND PUSH20 0xFFFFFFFFFFFFFFFFFFFFFFFFFFFFFFFFFFFFFFFF AND PUSH4 0xA87D942C PUSH1 0x40 MLOAD DUP2 PUSH4 0xFFFFFFFF AND PUSH1 0xE0 SHL DUP2 MSTORE PUSH1 0x4 ADD PUSH1 0x20 PUSH1 0x40 MLOAD DUP1 DUP4 SUB DUP2 DUP7 DUP1 EXTCODESIZE ISZERO DUP1 ISZERO PUSH2 0x1197 JUMPI PUSH1 0x0 DUP1 REVERT JUMPDEST POP GAS STATICCALL ISZERO DUP1 ISZERO PUSH2 0x11AB JUMPI RETURNDATASIZE PUSH1 0x0 DUP1 RETURNDATACOPY RETURNDATASIZE PUSH1 0x0 REVERT JUMPDEST POP POP POP POP PUSH1 0x40 MLOAD RETURNDATASIZE PUSH1 0x1F NOT PUSH1 0x1F DUP3 ADD AND DUP3 ADD DUP1 PUSH1 0x40 MSTORE POP DUP2 ADD SWAP1 PUSH2 0x11CF SWAP2 SWAP1 PUSH2 0x4FF2 JUMP JUMPDEST DUP2 GT ISZERO PUSH2 0x1211 JUMPI PUSH1 0x40 MLOAD PUSH32 0xD1D89B7400000000000000000000000000000000000000000000000000000000 DUP2 MSTORE PUSH1 0x4 ADD PUSH2 0x1208 SWAP1 PUSH2 0x5DC7 JUMP JUMPDEST PUSH1 0x40 MLOAD DUP1 SWAP2 SUB SWAP1 REVERT JUMPDEST PUSH2 0x121A DUP3 PUSH2 0x320F JUMP JUMPDEST POP POP POP JUMP JUMPDEST PUSH1 0x0 PUSH2 0x122A DUP3 PUSH2 0x3B87 JUMP JUMPDEST SWAP1 POP PUSH1 0x0 PUSH20 0x0 PUSH4 0xF74F3655 DUP5 PUSH2 0x160 ADD MLOAD PUSH1 0x1E PUSH1 0x40 MLOAD DUP4 PUSH4 0xFFFFFFFF AND PUSH1 0xE0 SHL DUP2 MSTORE PUSH1 0x4 ADD PUSH2 0x126D SWAP3 SWAP2 SWAP1 PUSH2 0x6172 JUMP JUMPDEST PUSH1 0x20 PUSH1 0x40 MLOAD DUP1 DUP4 SUB DUP2 DUP7 DUP1 EXTCODESIZE ISZERO DUP1 ISZERO PUSH2 0x1285 JUMPI PUSH1 0x0 DUP1 REVERT JUMPDEST POP GAS DELEGATECALL ISZERO DUP1 ISZERO PUSH2 0x1299 JUMPI RETURNDATASIZE PUSH1 0x0 DUP1 RETURNDATACOPY RETURNDATASIZE PUSH1 0x0 REVERT JUMPDEST POP POP POP POP PUSH1 0x40 MLOAD RETURNDATASIZE PUSH1 0x1F NOT PUSH1 0x1F DUP3 ADD AND DUP3 ADD DUP1 PUSH1 0x40 MSTORE POP DUP2 ADD SWAP1 PUSH2 0x12BD SWAP2 SWAP1 PUSH2 0x4FF2 JUMP JUMPDEST SWAP1 POP PUSH8 0xDE0B6B3A7640000 DUP2 PUSH2 0x12D3 SWAP2 SWAP1 PUSH2 0x651F JUMP JUMPDEST CALLVALUE EQ PUSH2 0x1314 JUMPI PUSH1 0x40 MLOAD PUSH32 0xD1D89B7400000000000000000000000000000000000000000000000000000000 DUP2 MSTORE PUSH1 0x4 ADD PUSH2 0x130B SWAP1 PUSH2 0x5E27 JUMP JUMPDEST PUSH1 0x40 MLOAD DUP1 SWAP2 SUB SWAP1 REVERT JUMPDEST PUSH2 0x131C PUSH2 0xC93 JUMP JUMPDEST POP SWAP2 SWAP1 POP JUMP JUMPDEST DUP3 PUSH1 0x1 PUSH1 0x0 SWAP1 SLOAD SWAP1 PUSH2 0x100 EXP SWAP1 DIV PUSH20 0xFFFFFFFFFFFFFFFFFFFFFFFFFFFFFFFFFFFFFFFF AND PUSH20 0xFFFFFFFFFFFFFFFFFFFFFFFFFFFFFFFFFFFFFFFF AND PUSH4 0xA87D942C PUSH1 0x40 MLOAD DUP2 PUSH4 0xFFFFFFFF AND PUSH1 0xE0 SHL DUP2 MSTORE PUSH1 0x4 ADD PUSH1 0x20 PUSH1 0x40 MLOAD DUP1 DUP4 SUB DUP2 DUP7 DUP1 EXTCODESIZE ISZERO DUP1 ISZERO PUSH2 0x138B JUMPI PUSH1 0x0 DUP1 REVERT JUMPDEST POP GAS STATICCALL ISZERO DUP1 ISZERO PUSH2 0x139F JUMPI RETURNDATASIZE PUSH1 0x0 DUP1 RETURNDATACOPY RETURNDATASIZE PUSH1 0x0 REVERT JUMPDEST POP POP POP POP PUSH1 0x40 MLOAD RETURNDATASIZE PUSH1 0x1F NOT PUSH1 0x1F DUP3 ADD AND DUP3 ADD DUP1 PUSH1 0x40 MSTORE POP DUP2 ADD SWAP1 PUSH2 0x13C3 SWAP2 SWAP1 PUSH2 0x4FF2 JUMP JUMPDEST DUP2 GT ISZERO PUSH2 0x1405 JUMPI PUSH1 0x40 MLOAD PUSH32 0xD1D89B7400000000000000000000000000000000000000000000000000000000 DUP2 MSTORE PUSH1 0x4 ADD PUSH2 0x13FC SWAP1 PUSH2 0x5DC7 JUMP JUMPDEST PUSH1 0x40 MLOAD DUP1 SWAP2 SUB SWAP1 REVERT JUMPDEST PUSH2 0x1410 DUP5 DUP5 DUP5 PUSH2 0x3C7D JUMP JUMPDEST POP POP POP POP JUMP JUMPDEST PUSH2 0x141E PUSH2 0x3D67 JUMP JUMPDEST DUP2 PUSH1 0x1 PUSH1 0x0 SWAP1 SLOAD SWAP1 PUSH2 0x100 EXP SWAP1 DIV PUSH20 0xFFFFFFFFFFFFFFFFFFFFFFFFFFFFFFFFFFFFFFFF AND PUSH20 0xFFFFFFFFFFFFFFFFFFFFFFFFFFFFFFFFFFFFFFFF AND PUSH4 0xA87D942C PUSH1 0x40 MLOAD DUP2 PUSH4 0xFFFFFFFF AND PUSH1 0xE0 SHL DUP2 MSTORE PUSH1 0x4 ADD PUSH1 0x20 PUSH1 0x40 MLOAD DUP1 DUP4 SUB DUP2 DUP7 DUP1 EXTCODESIZE ISZERO DUP1 ISZERO PUSH2 0x1487 JUMPI PUSH1 0x0 DUP1 REVERT JUMPDEST POP GAS STATICCALL ISZERO DUP1 ISZERO PUSH2 0x149B JUMPI RETURNDATASIZE PUSH1 0x0 DUP1 RETURNDATACOPY RETURNDATASIZE PUSH1 0x0 REVERT JUMPDEST POP POP POP POP PUSH1 0x40 MLOAD RETURNDATASIZE PUSH1 0x1F NOT PUSH1 0x1F DUP3 ADD AND DUP3 ADD DUP1 PUSH1 0x40 MSTORE POP DUP2 ADD SWAP1 PUSH2 0x14BF SWAP2 SWAP1 PUSH2 0x4FF2 JUMP JUMPDEST DUP2 GT ISZERO PUSH2 0x1501 JUMPI PUSH1 0x40 MLOAD PUSH32 0xD1D89B7400000000000000000000000000000000000000000000000000000000 DUP2 MSTORE PUSH1 0x4 ADD PUSH2 0x14F8 SWAP1 PUSH2 0x5DC7 JUMP JUMPDEST PUSH1 0x40 MLOAD DUP1 SWAP2 SUB SWAP1 REVERT JUMPDEST PUSH1 0x1 PUSH1 0x0 SWAP1 SLOAD SWAP1 PUSH2 0x100 EXP SWAP1 DIV PUSH20 0xFFFFFFFFFFFFFFFFFFFFFFFFFFFFFFFFFFFFFFFF AND PUSH20 0xFFFFFFFFFFFFFFFFFFFFFFFFFFFFFFFFFFFFFFFF AND PUSH4 0x25E78E70 DUP5 PUSH1 0x40 MLOAD DUP3 PUSH4 0xFFFFFFFF AND PUSH1 0xE0 SHL DUP2 MSTORE PUSH1 0x4 ADD PUSH2 0x155C SWAP2 SWAP1 PUSH2 0x5F14 JUMP JUMPDEST PUSH1 0x0 PUSH1 0x40 MLOAD DUP1 DUP4 SUB DUP2 DUP7 DUP1 EXTCODESIZE ISZERO DUP1 ISZERO PUSH2 0x1574 JUMPI PUSH1 0x0 DUP1 REVERT JUMPDEST POP GAS STATICCALL ISZERO DUP1 ISZERO PUSH2 0x1588 JUMPI RETURNDATASIZE PUSH1 0x0 DUP1 RETURNDATACOPY RETURNDATASIZE PUSH1 0x0 REVERT JUMPDEST POP POP POP POP PUSH1 0x40 MLOAD RETURNDATASIZE PUSH1 0x0 DUP3 RETURNDATACOPY RETURNDATASIZE PUSH1 0x1F NOT PUSH1 0x1F DUP3 ADD AND DUP3 ADD DUP1 PUSH1 0x40 MSTORE POP DUP2 ADD SWAP1 PUSH2 0x15B1 SWAP2 SWAP1 PUSH2 0x4F7C JUMP JUMPDEST SWAP2 POP POP SWAP2 SWAP1 POP JUMP JUMPDEST PUSH2 0x15C1 PUSH2 0x22B1 JUMP JUMPDEST PUSH1 0x0 PUSH20 0xFFFFFFFFFFFFFFFFFFFFFFFFFFFFFFFFFFFFFFFF AND DUP2 PUSH20 0xFFFFFFFFFFFFFFFFFFFFFFFFFFFFFFFFFFFFFFFF AND EQ ISZERO PUSH2 0x1631 JUMPI PUSH1 0x40 MLOAD PUSH32 0x8C379A000000000000000000000000000000000000000000000000000000000 DUP2 MSTORE PUSH1 0x4 ADD PUSH2 0x1628 SWAP1 PUSH2 0x5DE7 JUMP JUMPDEST PUSH1 0x40 MLOAD DUP1 SWAP2 SUB SWAP1 REVERT JUMPDEST PUSH2 0x163A DUP2 PUSH2 0x2940 JUMP JUMPDEST POP JUMP JUMPDEST DUP2 PUSH1 0x1 PUSH1 0x0 SWAP1 SLOAD SWAP1 PUSH2 0x100 EXP SWAP1 DIV PUSH20 0xFFFFFFFFFFFFFFFFFFFFFFFFFFFFFFFFFFFFFFFF AND PUSH20 0xFFFFFFFFFFFFFFFFFFFFFFFFFFFFFFFFFFFFFFFF AND PUSH4 0xA87D942C PUSH1 0x40 MLOAD DUP2 PUSH4 0xFFFFFFFF AND PUSH1 0xE0 SHL DUP2 MSTORE PUSH1 0x4 ADD PUSH1 0x20 PUSH1 0x40 MLOAD DUP1 DUP4 SUB DUP2 DUP7 DUP1 EXTCODESIZE ISZERO DUP1 ISZERO PUSH2 0x16A6 JUMPI PUSH1 0x0 DUP1 REVERT JUMPDEST POP GAS STATICCALL ISZERO DUP1 ISZERO PUSH2 0x16BA JUMPI RETURNDATASIZE PUSH1 0x0 DUP1 RETURNDATACOPY RETURNDATASIZE PUSH1 0x0 REVERT JUMPDEST POP POP POP POP PUSH1 0x40 MLOAD RETURNDATASIZE PUSH1 0x1F NOT PUSH1 0x1F DUP3 ADD AND DUP3 ADD DUP1 PUSH1 0x40 MSTORE POP DUP2 ADD SWAP1 PUSH2 0x16DE SWAP2 SWAP1 PUSH2 0x4FF2 JUMP JUMPDEST DUP2 GT ISZERO PUSH2 0x1720 JUMPI PUSH1 0x40 MLOAD PUSH32 0xD1D89B7400000000000000000000000000000000000000000000000000000000 DUP2 MSTORE PUSH1 0x4 ADD PUSH2 0x1717 SWAP1 PUSH2 0x5DC7 JUMP JUMPDEST PUSH1 0x40 MLOAD DUP1 SWAP2 SUB SWAP1 REVERT JUMPDEST DUP3 PUSH1 0x1 PUSH1 0x0 SWAP1 SLOAD SWAP1 PUSH2 0x100 EXP SWAP1 DIV PUSH20 0xFFFFFFFFFFFFFFFFFFFFFFFFFFFFFFFFFFFFFFFF AND PUSH20 0xFFFFFFFFFFFFFFFFFFFFFFFFFFFFFFFFFFFFFFFF AND PUSH4 0x9722F099 DUP3 PUSH1 0x40 MLOAD DUP3 PUSH4 0xFFFFFFFF AND PUSH1 0xE0 SHL DUP2 MSTORE PUSH1 0x4 ADD PUSH2 0x177C SWAP2 SWAP1 PUSH2 0x5F14 JUMP JUMPDEST PUSH1 0x20 PUSH1 0x40 MLOAD DUP1 DUP4 SUB DUP2 DUP7 DUP1 EXTCODESIZE ISZERO DUP1 ISZERO PUSH2 0x1794 JUMPI PUSH1 0x0 DUP1 REVERT JUMPDEST POP GAS STATICCALL ISZERO DUP1 ISZERO PUSH2 0x17A8 JUMPI RETURNDATASIZE PUSH1 0x0 DUP1 RETURNDATACOPY RETURNDATASIZE PUSH1 0x0 REVERT JUMPDEST POP POP POP POP PUSH1 0x40 MLOAD RETURNDATASIZE PUSH1 0x1F NOT PUSH1 0x1F DUP3 ADD AND DUP3 ADD DUP1 PUSH1 0x40 MSTORE POP DUP2 ADD SWAP1 PUSH2 0x17CC SWAP2 SWAP1 PUSH2 0x4F06 JUMP JUMPDEST PUSH2 0x180D JUMPI DUP1 PUSH1 0x40 MLOAD PUSH32 0xA0F2FA6E00000000000000000000000000000000000000000000000000000000 DUP2 MSTORE PUSH1 0x4 ADD PUSH2 0x1804 SWAP2 SWAP1 PUSH2 0x5E87 JUMP JUMPDEST PUSH1 0x40 MLOAD DUP1 SWAP2 SUB SWAP1 REVERT JUMPDEST PUSH1 0x1 PUSH1 0x0 SWAP1 SLOAD SWAP1 PUSH2 0x100 EXP SWAP1 DIV PUSH20 0xFFFFFFFFFFFFFFFFFFFFFFFFFFFFFFFFFFFFFFFF AND PUSH20 0xFFFFFFFFFFFFFFFFFFFFFFFFFFFFFFFFFFFFFFFF AND PUSH4 0x4AA86DED DUP6 DUP6 CALLER PUSH1 0x40 MLOAD DUP5 PUSH4 0xFFFFFFFF AND PUSH1 0xE0 SHL DUP2 MSTORE PUSH1 0x4 ADD PUSH2 0x186C SWAP4 SWAP3 SWAP2 SWAP1 PUSH2 0x610B JUMP JUMPDEST PUSH1 0x0 PUSH1 0x40 MLOAD DUP1 DUP4 SUB DUP2 PUSH1 0x0 DUP8 DUP1 EXTCODESIZE ISZERO DUP1 ISZERO PUSH2 0x1886 JUMPI PUSH1 0x0 DUP1 REVERT JUMPDEST POP GAS CALL ISZERO DUP1 ISZERO PUSH2 0x189A JUMPI RETURNDATASIZE PUSH1 0x0 DUP1 RETURNDATACOPY RETURNDATASIZE PUSH1 0x0 REVERT JUMPDEST POP POP POP POP POP POP POP POP JUMP JUMPDEST PUSH1 0x1 PUSH1 0x0 SWAP1 SLOAD SWAP1 PUSH2 0x100 EXP SWAP1 DIV PUSH20 0xFFFFFFFFFFFFFFFFFFFFFFFFFFFFFFFFFFFFFFFF AND PUSH20 0xFFFFFFFFFFFFFFFFFFFFFFFFFFFFFFFFFFFFFFFF AND PUSH4 0x1AF5FA16 DUP4 DUP4 PUSH1 0x40 MLOAD DUP4 PUSH4 0xFFFFFFFF AND PUSH1 0xE0 SHL DUP2 MSTORE PUSH1 0x4 ADD PUSH2 0x1901 SWAP3 SWAP2 SWAP1 PUSH2 0x619B JUMP JUMPDEST PUSH1 0x0 PUSH1 0x40 MLOAD DUP1 DUP4 SUB DUP2 PUSH1 0x0 DUP8 DUP1 EXTCODESIZE ISZERO DUP1 ISZERO PUSH2 0x191B JUMPI PUSH1 0x0 DUP1 REVERT JUMPDEST POP GAS CALL ISZERO DUP1 ISZERO PUSH2 0x192F JUMPI RETURNDATASIZE PUSH1 0x0 DUP1 RETURNDATACOPY RETURNDATASIZE PUSH1 0x0 REVERT JUMPDEST POP POP POP POP PUSH32 0x9096640C11BD5636CED741C9725E5FF774B334455C80E15491F15BB3AF0BC265 CALLER DUP4 DUP4 PUSH1 0x40 MLOAD PUSH2 0x1966 SWAP4 SWAP3 SWAP2 SWAP1 PUSH2 0x5D69 JUMP JUMPDEST PUSH1 0x40 MLOAD DUP1 SWAP2 SUB SWAP1 LOG1 POP POP JUMP JUMPDEST PUSH1 0x0 DUP3 ISZERO PUSH2 0x1B78 JUMPI PUSH1 0x1 PUSH1 0x0 SWAP1 SLOAD SWAP1 PUSH2 0x100 EXP SWAP1 DIV PUSH20 0xFFFFFFFFFFFFFFFFFFFFFFFFFFFFFFFFFFFFFFFF AND PUSH20 0xFFFFFFFFFFFFFFFFFFFFFFFFFFFFFFFFFFFFFFFF AND PUSH4 0x38C3B2D6 DUP8 DUP8 CALLER DUP9 DUP8 PUSH1 0x40 MLOAD DUP7 PUSH4 0xFFFFFFFF AND PUSH1 0xE0 SHL DUP2 MSTORE PUSH1 0x4 ADD PUSH2 0x19DD SWAP6 SWAP5 SWAP4 SWAP3 SWAP2 SWAP1 PUSH2 0x5F58 JUMP JUMPDEST PUSH1 0x0 PUSH1 0x40 MLOAD DUP1 DUP4 SUB DUP2 PUSH1 0x0 DUP8 DUP1 EXTCODESIZE ISZERO DUP1 ISZERO PUSH2 0x19F7 JUMPI PUSH1 0x0 DUP1 REVERT JUMPDEST POP GAS CALL ISZERO DUP1 ISZERO PUSH2 0x1A0B JUMPI RETURNDATASIZE PUSH1 0x0 DUP1 RETURNDATACOPY RETURNDATASIZE PUSH1 0x0 REVERT JUMPDEST POP POP POP POP PUSH1 0x0 PUSH1 0x1 PUSH1 0x0 SWAP1 SLOAD SWAP1 PUSH2 0x100 EXP SWAP1 DIV PUSH20 0xFFFFFFFFFFFFFFFFFFFFFFFFFFFFFFFFFFFFFFFF AND PUSH20 0xFFFFFFFFFFFFFFFFFFFFFFFFFFFFFFFFFFFFFFFF AND PUSH4 0x7C34EB85 DUP9 PUSH1 0x40 MLOAD DUP3 PUSH4 0xFFFFFFFF AND PUSH1 0xE0 SHL DUP2 MSTORE PUSH1 0x4 ADD PUSH2 0x1A6C SWAP2 SWAP1 PUSH2 0x5F14 JUMP JUMPDEST PUSH1 0x20 PUSH1 0x40 MLOAD DUP1 DUP4 SUB DUP2 DUP7 DUP1 EXTCODESIZE ISZERO DUP1 ISZERO PUSH2 0x1A84 JUMPI PUSH1 0x0 DUP1 REVERT JUMPDEST POP GAS STATICCALL ISZERO DUP1 ISZERO PUSH2 0x1A98 JUMPI RETURNDATASIZE PUSH1 0x0 DUP1 RETURNDATACOPY RETURNDATASIZE PUSH1 0x0 REVERT JUMPDEST POP POP POP POP PUSH1 0x40 MLOAD RETURNDATASIZE PUSH1 0x1F NOT PUSH1 0x1F DUP3 ADD AND DUP3 ADD DUP1 PUSH1 0x40 MSTORE POP DUP2 ADD SWAP1 PUSH2 0x1ABC SWAP2 SWAP1 PUSH2 0x4F06 JUMP JUMPDEST SWAP1 POP PUSH1 0x1 PUSH1 0x0 SWAP1 SLOAD SWAP1 PUSH2 0x100 EXP SWAP1 DIV PUSH20 0xFFFFFFFFFFFFFFFFFFFFFFFFFFFFFFFFFFFFFFFF AND PUSH20 0xFFFFFFFFFFFFFFFFFFFFFFFFFFFFFFFFFFFFFFFF AND PUSH4 0x35339174 DUP9 DUP9 DUP9 PUSH1 0x1 PUSH1 0x40 MLOAD DUP6 PUSH4 0xFFFFFFFF AND PUSH1 0xE0 SHL DUP2 MSTORE PUSH1 0x4 ADD PUSH2 0x1B20 SWAP5 SWAP4 SWAP3 SWAP2 SWAP1 PUSH2 0x607A JUMP JUMPDEST PUSH1 0x20 PUSH1 0x40 MLOAD DUP1 DUP4 SUB DUP2 DUP7 DUP1 EXTCODESIZE ISZERO DUP1 ISZERO PUSH2 0x1B38 JUMPI PUSH1 0x0 DUP1 REVERT JUMPDEST POP GAS STATICCALL ISZERO DUP1 ISZERO PUSH2 0x1B4C JUMPI RETURNDATASIZE PUSH1 0x0 DUP1 RETURNDATACOPY RETURNDATASIZE PUSH1 0x0 REVERT JUMPDEST POP POP POP POP PUSH1 0x40 MLOAD RETURNDATASIZE PUSH1 0x1F NOT PUSH1 0x1F DUP3 ADD AND DUP3 ADD DUP1 PUSH1 0x40 MSTORE POP DUP2 ADD SWAP1 PUSH2 0x1B70 SWAP2 SWAP1 PUSH2 0x4FF2 JUMP JUMPDEST SWAP2 POP POP PUSH2 0x1C11 JUMP JUMPDEST PUSH1 0x1 PUSH1 0x0 SWAP1 SLOAD SWAP1 PUSH2 0x100 EXP SWAP1 DIV PUSH20 0xFFFFFFFFFFFFFFFFFFFFFFFFFFFFFFFFFFFFFFFF AND PUSH20 0xFFFFFFFFFFFFFFFFFFFFFFFFFFFFFFFFFFFFFFFF AND PUSH4 0x960BC834 DUP8 DUP8 DUP8 PUSH1 0x1 PUSH1 0x40 MLOAD DUP6 PUSH4 0xFFFFFFFF AND PUSH1 0xE0 SHL DUP2 MSTORE PUSH1 0x4 ADD PUSH2 0x1BDA SWAP5 SWAP4 SWAP3 SWAP2 SWAP1 PUSH2 0x607A JUMP JUMPDEST PUSH1 0x0 PUSH1 0x40 MLOAD DUP1 DUP4 SUB DUP2 PUSH1 0x0 DUP8 DUP1 EXTCODESIZE ISZERO DUP1 ISZERO PUSH2 0x1BF4 JUMPI PUSH1 0x0 DUP1 REVERT JUMPDEST POP GAS CALL ISZERO DUP1 ISZERO PUSH2 0x1C08 JUMPI RETURNDATASIZE PUSH1 0x0 DUP1 RETURNDATACOPY RETURNDATASIZE PUSH1 0x0 REVERT JUMPDEST POP POP POP POP PUSH1 0x0 SWAP1 POP JUMPDEST SWAP6 SWAP5 POP POP POP POP POP JUMP JUMPDEST PUSH1 0x0 PUSH2 0x1C27 DUP3 PUSH1 0x36 PUSH2 0x3D15 JUMP JUMPDEST SWAP1 POP SWAP2 SWAP1 POP JUMP JUMPDEST PUSH8 0xDE0B6B3A7640000 DUP2 PUSH2 0x1C42 SWAP2 SWAP1 PUSH2 0x651F JUMP JUMPDEST PUSH2 0x1C4A PUSH2 0x769 JUMP JUMPDEST LT ISZERO PUSH2 0x1C8B JUMPI PUSH1 0x40 MLOAD PUSH32 0x8C379A000000000000000000000000000000000000000000000000000000000 DUP2 MSTORE PUSH1 0x4 ADD PUSH2 0x1C82 SWAP1 PUSH2 0x5E67 JUMP JUMPDEST PUSH1 0x40 MLOAD DUP1 SWAP2 SUB SWAP1 REVERT JUMPDEST PUSH1 0x0 DUP3 PUSH20 0xFFFFFFFFFFFFFFFFFFFFFFFFFFFFFFFFFFFFFFFF AND PUSH8 0xDE0B6B3A7640000 DUP4 PUSH2 0x1CB8 SWAP2 SWAP1 PUSH2 0x651F JUMP JUMPDEST PUSH1 0x40 MLOAD PUSH2 0x1CC4 SWAP1 PUSH2 0x5C8F JUMP JUMPDEST PUSH1 0x0 PUSH1 0x40 MLOAD DUP1 DUP4 SUB DUP2 DUP6 DUP8 GAS CALL SWAP3 POP POP POP RETURNDATASIZE DUP1 PUSH1 0x0 DUP2 EQ PUSH2 0x1D01 JUMPI PUSH1 0x40 MLOAD SWAP2 POP PUSH1 0x1F NOT PUSH1 0x3F RETURNDATASIZE ADD AND DUP3 ADD PUSH1 0x40 MSTORE RETURNDATASIZE DUP3 MSTORE RETURNDATASIZE PUSH1 0x0 PUSH1 0x20 DUP5 ADD RETURNDATACOPY PUSH2 0x1D06 JUMP JUMPDEST PUSH1 0x60 SWAP2 POP JUMPDEST POP POP SWAP1 POP DUP1 PUSH2 0x1D4A JUMPI PUSH1 0x40 MLOAD PUSH32 0x8C379A000000000000000000000000000000000000000000000000000000000 DUP2 MSTORE PUSH1 0x4 ADD PUSH2 0x1D41 SWAP1 PUSH2 0x5DA7 JUMP JUMPDEST PUSH1 0x40 MLOAD DUP1 SWAP2 SUB SWAP1 REVERT JUMPDEST PUSH32 0xB37BD6F3CCFCE130859D4569DC432409F423A7928E73EB5C5049A94E40F0C648 ADDRESS DUP5 DUP5 PUSH1 0x40 MLOAD PUSH2 0x1D7D SWAP4 SWAP3 SWAP2 SWAP1 PUSH2 0x5CBF JUMP JUMPDEST PUSH1 0x40 MLOAD DUP1 SWAP2 SUB SWAP1 LOG1 POP POP POP JUMP JUMPDEST PUSH1 0x0 PUSH1 0x60 PUSH1 0x0 PUSH1 0x1 PUSH1 0x0 SWAP1 SLOAD SWAP1 PUSH2 0x100 EXP SWAP1 DIV PUSH20 0xFFFFFFFFFFFFFFFFFFFFFFFFFFFFFFFFFFFFFFFF AND PUSH20 0xFFFFFFFFFFFFFFFFFFFFFFFFFFFFFFFFFFFFFFFF AND PUSH4 0x8B3F3A6F DUP7 DUP7 PUSH1 0x0 PUSH1 0x40 MLOAD DUP5 PUSH4 0xFFFFFFFF AND PUSH1 0xE0 SHL DUP2 MSTORE PUSH1 0x4 ADD PUSH2 0x1DF0 SWAP4 SWAP3 SWAP2 SWAP1 PUSH2 0x600C JUMP JUMPDEST PUSH1 0x0 PUSH1 0x40 MLOAD DUP1 DUP4 SUB DUP2 DUP7 DUP1 EXTCODESIZE ISZERO DUP1 ISZERO PUSH2 0x1E08 JUMPI PUSH1 0x0 DUP1 REVERT JUMPDEST POP GAS STATICCALL ISZERO DUP1 ISZERO PUSH2 0x1E1C JUMPI RETURNDATASIZE PUSH1 0x0 DUP1 RETURNDATACOPY RETURNDATASIZE PUSH1 0x0 REVERT JUMPDEST POP POP POP POP PUSH1 0x40 MLOAD RETURNDATASIZE PUSH1 0x0 DUP3 RETURNDATACOPY RETURNDATASIZE PUSH1 0x1F NOT PUSH1 0x1F DUP3 ADD AND DUP3 ADD DUP1 PUSH1 0x40 MSTORE POP DUP2 ADD SWAP1 PUSH2 0x1E45 SWAP2 SWAP1 PUSH2 0x4EAA JUMP JUMPDEST DUP1 SWAP3 POP DUP2 SWAP4 POP POP POP PUSH1 0x0 DUP3 MLOAD EQ ISZERO PUSH2 0x1E62 JUMPI PUSH1 0x0 SWAP3 POP POP POP PUSH2 0x22AB JUMP JUMPDEST PUSH1 0x1 PUSH1 0x0 SWAP1 SLOAD SWAP1 PUSH2 0x100 EXP SWAP1 DIV PUSH20 0xFFFFFFFFFFFFFFFFFFFFFFFFFFFFFFFFFFFFFFFF AND PUSH20 0xFFFFFFFFFFFFFFFFFFFFFFFFFFFFFFFFFFFFFFFF AND PUSH4 0x90977D2B DUP7 DUP7 DUP6 PUSH1 0x4 PUSH1 0x0 PUSH1 0x40 MLOAD DUP7 PUSH4 0xFFFFFFFF AND PUSH1 0xE0 SHL DUP2 MSTORE PUSH1 0x4 ADD PUSH2 0x1EC7 SWAP6 SWAP5 SWAP4 SWAP3 SWAP2 SWAP1 PUSH2 0x5FB2 JUMP JUMPDEST PUSH1 0x0 PUSH1 0x40 MLOAD DUP1 DUP4 SUB DUP2 PUSH1 0x0 DUP8 DUP1 EXTCODESIZE ISZERO DUP1 ISZERO PUSH2 0x1EE1 JUMPI PUSH1 0x0 DUP1 REVERT JUMPDEST POP GAS CALL ISZERO DUP1 ISZERO PUSH2 0x1EF5 JUMPI RETURNDATASIZE PUSH1 0x0 DUP1 RETURNDATACOPY RETURNDATASIZE PUSH1 0x0 REVERT JUMPDEST POP POP POP POP PUSH1 0x0 PUSH1 0x1 PUSH1 0x0 SWAP1 SLOAD SWAP1 PUSH2 0x100 EXP SWAP1 DIV PUSH20 0xFFFFFFFFFFFFFFFFFFFFFFFFFFFFFFFFFFFFFFFF AND PUSH20 0xFFFFFFFFFFFFFFFFFFFFFFFFFFFFFFFFFFFFFFFF AND PUSH4 0x7C34EB85 DUP8 PUSH1 0x40 MLOAD DUP3 PUSH4 0xFFFFFFFF AND PUSH1 0xE0 SHL DUP2 MSTORE PUSH1 0x4 ADD PUSH2 0x1F56 SWAP2 SWAP1 PUSH2 0x5F14 JUMP JUMPDEST PUSH1 0x20 PUSH1 0x40 MLOAD DUP1 DUP4 SUB DUP2 DUP7 DUP1 EXTCODESIZE ISZERO DUP1 ISZERO PUSH2 0x1F6E JUMPI PUSH1 0x0 DUP1 REVERT JUMPDEST POP GAS STATICCALL ISZERO DUP1 ISZERO PUSH2 0x1F82 JUMPI RETURNDATASIZE PUSH1 0x0 DUP1 RETURNDATACOPY RETURNDATASIZE PUSH1 0x0 REVERT JUMPDEST POP POP POP POP PUSH1 0x40 MLOAD RETURNDATASIZE PUSH1 0x1F NOT PUSH1 0x1F DUP3 ADD AND DUP3 ADD DUP1 PUSH1 0x40 MSTORE POP DUP2 ADD SWAP1 PUSH2 0x1FA6 SWAP2 SWAP1 PUSH2 0x4F06 JUMP JUMPDEST ISZERO PUSH2 0x20CA JUMPI PUSH1 0x0 JUMPDEST DUP4 MLOAD DUP2 LT ISZERO PUSH2 0x20C4 JUMPI PUSH1 0x1 PUSH1 0x0 SWAP1 SLOAD SWAP1 PUSH2 0x100 EXP SWAP1 DIV PUSH20 0xFFFFFFFFFFFFFFFFFFFFFFFFFFFFFFFFFFFFFFFF AND PUSH20 0xFFFFFFFFFFFFFFFFFFFFFFFFFFFFFFFFFFFFFFFF AND PUSH4 0x25E78E70 DUP9 PUSH1 0x40 MLOAD DUP3 PUSH4 0xFFFFFFFF AND PUSH1 0xE0 SHL DUP2 MSTORE PUSH1 0x4 ADD PUSH2 0x2012 SWAP2 SWAP1 PUSH2 0x5F14 JUMP JUMPDEST PUSH1 0x0 PUSH1 0x40 MLOAD DUP1 DUP4 SUB DUP2 DUP7 DUP1 EXTCODESIZE ISZERO DUP1 ISZERO PUSH2 0x202A JUMPI PUSH1 0x0 DUP1 REVERT JUMPDEST POP GAS STATICCALL ISZERO DUP1 ISZERO PUSH2 0x203E JUMPI RETURNDATASIZE PUSH1 0x0 DUP1 RETURNDATACOPY RETURNDATASIZE PUSH1 0x0 REVERT JUMPDEST POP POP POP POP PUSH1 0x40 MLOAD RETURNDATASIZE PUSH1 0x0 DUP3 RETURNDATACOPY RETURNDATASIZE PUSH1 0x1F NOT PUSH1 0x1F DUP3 ADD AND DUP3 ADD DUP1 PUSH1 0x40 MSTORE POP DUP2 ADD SWAP1 PUSH2 0x2067 SWAP2 SWAP1 PUSH2 0x4F7C JUMP JUMPDEST PUSH2 0x1C0 ADD MLOAD DUP5 DUP3 DUP2 MLOAD DUP2 LT PUSH2 0x207F JUMPI PUSH2 0x207E PUSH2 0x678B JUMP JUMPDEST JUMPDEST PUSH1 0x20 MUL PUSH1 0x20 ADD ADD MLOAD DUP2 MLOAD DUP2 LT PUSH2 0x2098 JUMPI PUSH2 0x2097 PUSH2 0x678B JUMP JUMPDEST JUMPDEST PUSH1 0x20 MUL PUSH1 0x20 ADD ADD MLOAD PUSH1 0x20 ADD MLOAD DUP3 PUSH2 0x20AF SWAP2 SWAP1 PUSH2 0x6498 JUMP JUMPDEST SWAP2 POP DUP1 DUP1 PUSH2 0x20BC SWAP1 PUSH2 0x66B5 JUMP JUMPDEST SWAP2 POP POP PUSH2 0x1FAE JUMP JUMPDEST POP PUSH2 0x2182 JUMP JUMPDEST PUSH1 0x1 PUSH1 0x0 SWAP1 SLOAD SWAP1 PUSH2 0x100 EXP SWAP1 DIV PUSH20 0xFFFFFFFFFFFFFFFFFFFFFFFFFFFFFFFFFFFFFFFF AND PUSH20 0xFFFFFFFFFFFFFFFFFFFFFFFFFFFFFFFFFFFFFFFF AND PUSH4 0x25E78E70 DUP8 PUSH1 0x40 MLOAD DUP3 PUSH4 0xFFFFFFFF AND PUSH1 0xE0 SHL DUP2 MSTORE PUSH1 0x4 ADD PUSH2 0x2125 SWAP2 SWAP1 PUSH2 0x5F14 JUMP JUMPDEST PUSH1 0x0 PUSH1 0x40 MLOAD DUP1 DUP4 SUB DUP2 DUP7 DUP1 EXTCODESIZE ISZERO DUP1 ISZERO PUSH2 0x213D JUMPI PUSH1 0x0 DUP1 REVERT JUMPDEST POP GAS STATICCALL ISZERO DUP1 ISZERO PUSH2 0x2151 JUMPI RETURNDATASIZE PUSH1 0x0 DUP1 RETURNDATACOPY RETURNDATASIZE PUSH1 0x0 REVERT JUMPDEST POP POP POP POP PUSH1 0x40 MLOAD RETURNDATASIZE PUSH1 0x0 DUP3 RETURNDATACOPY RETURNDATASIZE PUSH1 0x1F NOT PUSH1 0x1F DUP3 ADD AND DUP3 ADD DUP1 PUSH1 0x40 MSTORE POP DUP2 ADD SWAP1 PUSH2 0x217A SWAP2 SWAP1 PUSH2 0x4F7C JUMP JUMPDEST PUSH2 0x180 ADD MLOAD SWAP1 POP JUMPDEST PUSH1 0x0 PUSH20 0x0 PUSH4 0x4F6CA3CE PUSH2 0x21A7 DUP5 PUSH2 0x3D35 JUMP JUMPDEST PUSH1 0x40 MLOAD DUP3 PUSH4 0xFFFFFFFF AND PUSH1 0xE0 SHL DUP2 MSTORE PUSH1 0x4 ADD PUSH2 0x21C3 SWAP2 SWAP1 PUSH2 0x5EF9 JUMP JUMPDEST PUSH1 0x20 PUSH1 0x40 MLOAD DUP1 DUP4 SUB DUP2 DUP7 DUP1 EXTCODESIZE ISZERO DUP1 ISZERO PUSH2 0x21DB JUMPI PUSH1 0x0 DUP1 REVERT JUMPDEST POP GAS DELEGATECALL ISZERO DUP1 ISZERO PUSH2 0x21EF JUMPI RETURNDATASIZE PUSH1 0x0 DUP1 RETURNDATACOPY RETURNDATASIZE PUSH1 0x0 REVERT JUMPDEST POP POP POP POP PUSH1 0x40 MLOAD RETURNDATASIZE PUSH1 0x1F NOT PUSH1 0x1F DUP3 ADD AND DUP3 ADD DUP1 PUSH1 0x40 MSTORE POP DUP2 ADD SWAP1 PUSH2 0x2213 SWAP2 SWAP1 PUSH2 0x4FF2 JUMP JUMPDEST SWAP1 POP PUSH1 0x0 PUSH20 0x0 PUSH4 0x9CE5C4BF DUP6 DUP5 PUSH1 0x40 MLOAD DUP4 PUSH4 0xFFFFFFFF AND PUSH1 0xE0 SHL DUP2 MSTORE PUSH1 0x4 ADD PUSH2 0x2250 SWAP3 SWAP2 SWAP1 PUSH2 0x61CB JUMP JUMPDEST PUSH1 0x20 PUSH1 0x40 MLOAD DUP1 DUP4 SUB DUP2 DUP7 DUP1 EXTCODESIZE ISZERO DUP1 ISZERO PUSH2 0x2268 JUMPI PUSH1 0x0 DUP1 REVERT JUMPDEST POP GAS DELEGATECALL ISZERO DUP1 ISZERO PUSH2 0x227C JUMPI RETURNDATASIZE PUSH1 0x0 DUP1 RETURNDATACOPY RETURNDATASIZE PUSH1 0x0 REVERT JUMPDEST POP POP POP POP PUSH1 0x40 MLOAD RETURNDATASIZE PUSH1 0x1F NOT PUSH1 0x1F DUP3 ADD AND DUP3 ADD DUP1 PUSH1 0x40 MSTORE POP DUP2 ADD SWAP1 PUSH2 0x22A0 SWAP2 SWAP1 PUSH2 0x4FF2 JUMP JUMPDEST SWAP1 POP DUP1 SWAP6 POP POP POP POP POP POP JUMPDEST SWAP3 SWAP2 POP POP JUMP JUMPDEST PUSH2 0x22B9 PUSH2 0x3D49 JUMP JUMPDEST PUSH20 0xFFFFFFFFFFFFFFFFFFFFFFFFFFFFFFFFFFFFFFFF AND PUSH2 0x22D7 PUSH2 0x1105 JUMP JUMPDEST PUSH20 0xFFFFFFFFFFFFFFFFFFFFFFFFFFFFFFFFFFFFFFFF AND EQ PUSH2 0x232D JUMPI PUSH1 0x40 MLOAD PUSH32 0x8C379A000000000000000000000000000000000000000000000000000000000 DUP2 MSTORE PUSH1 0x4 ADD PUSH2 0x2324 SWAP1 PUSH2 0x5E47 JUMP JUMPDEST PUSH1 0x40 MLOAD DUP1 SWAP2 SUB SWAP1 REVERT JUMPDEST JUMP JUMPDEST PUSH1 0x0 CALLER PUSH20 0xFFFFFFFFFFFFFFFFFFFFFFFFFFFFFFFFFFFFFFFF AND SELFBALANCE PUSH1 0x40 MLOAD PUSH2 0x2355 SWAP1 PUSH2 0x5C8F JUMP JUMPDEST PUSH1 0x0 PUSH1 0x40 MLOAD DUP1 DUP4 SUB DUP2 DUP6 DUP8 GAS CALL SWAP3 POP POP POP RETURNDATASIZE DUP1 PUSH1 0x0 DUP2 EQ PUSH2 0x2392 JUMPI PUSH1 0x40 MLOAD SWAP2 POP PUSH1 0x1F NOT PUSH1 0x3F RETURNDATASIZE ADD AND DUP3 ADD PUSH1 0x40 MSTORE RETURNDATASIZE DUP3 MSTORE RETURNDATASIZE PUSH1 0x0 PUSH1 0x20 DUP5 ADD RETURNDATACOPY PUSH2 0x2397 JUMP JUMPDEST PUSH1 0x60 SWAP2 POP JUMPDEST POP POP SWAP1 POP DUP1 PUSH2 0x23DB JUMPI PUSH1 0x40 MLOAD PUSH32 0x8C379A000000000000000000000000000000000000000000000000000000000 DUP2 MSTORE PUSH1 0x4 ADD PUSH2 0x23D2 SWAP1 PUSH2 0x5DA7 JUMP JUMPDEST PUSH1 0x40 MLOAD DUP1 SWAP2 SUB SWAP1 REVERT JUMPDEST PUSH32 0xB37BD6F3CCFCE130859D4569DC432409F423A7928E73EB5C5049A94E40F0C648 ADDRESS CALLER SELFBALANCE PUSH1 0x40 MLOAD PUSH2 0x240E SWAP4 SWAP3 SWAP2 SWAP1 PUSH2 0x5CBF JUMP JUMPDEST PUSH1 0x40 MLOAD DUP1 SWAP2 SUB SWAP1 LOG1 POP JUMP JUMPDEST PUSH1 0x0 PUSH1 0x60 PUSH1 0x0 PUSH1 0x1 PUSH1 0x0 SWAP1 SLOAD SWAP1 PUSH2 0x100 EXP SWAP1 DIV PUSH20 0xFFFFFFFFFFFFFFFFFFFFFFFFFFFFFFFFFFFFFFFF AND PUSH20 0xFFFFFFFFFFFFFFFFFFFFFFFFFFFFFFFFFFFFFFFF AND PUSH4 0x8B3F3A6F DUP7 DUP7 PUSH1 0x1 PUSH1 0x40 MLOAD DUP5 PUSH4 0xFFFFFFFF AND PUSH1 0xE0 SHL DUP2 MSTORE PUSH1 0x4 ADD PUSH2 0x247F SWAP4 SWAP3 SWAP2 SWAP1 PUSH2 0x600C JUMP JUMPDEST PUSH1 0x0 PUSH1 0x40 MLOAD DUP1 DUP4 SUB DUP2 DUP7 DUP1 EXTCODESIZE ISZERO DUP1 ISZERO PUSH2 0x2497 JUMPI PUSH1 0x0 DUP1 REVERT JUMPDEST POP GAS STATICCALL ISZERO DUP1 ISZERO PUSH2 0x24AB JUMPI RETURNDATASIZE PUSH1 0x0 DUP1 RETURNDATACOPY RETURNDATASIZE PUSH1 0x0 REVERT JUMPDEST POP POP POP POP PUSH1 0x40 MLOAD RETURNDATASIZE PUSH1 0x0 DUP3 RETURNDATACOPY RETURNDATASIZE PUSH1 0x1F NOT PUSH1 0x1F DUP3 ADD AND DUP3 ADD DUP1 PUSH1 0x40 MSTORE POP DUP2 ADD SWAP1 PUSH2 0x24D4 SWAP2 SWAP1 PUSH2 0x4EAA JUMP JUMPDEST DUP1 SWAP3 POP DUP2 SWAP4 POP POP POP PUSH1 0x0 DUP3 MLOAD EQ ISZERO PUSH2 0x24F1 JUMPI PUSH1 0x0 SWAP3 POP POP POP PUSH2 0x293A JUMP JUMPDEST PUSH1 0x1 PUSH1 0x0 SWAP1 SLOAD SWAP1 PUSH2 0x100 EXP SWAP1 DIV PUSH20 0xFFFFFFFFFFFFFFFFFFFFFFFFFFFFFFFFFFFFFFFF AND PUSH20 0xFFFFFFFFFFFFFFFFFFFFFFFFFFFFFFFFFFFFFFFF AND PUSH4 0x90977D2B DUP7 DUP7 DUP6 PUSH1 0x4 PUSH1 0x1 PUSH1 0x40 MLOAD DUP7 PUSH4 0xFFFFFFFF AND PUSH1 0xE0 SHL DUP2 MSTORE PUSH1 0x4 ADD PUSH2 0x2556 SWAP6 SWAP5 SWAP4 SWAP3 SWAP2 SWAP1 PUSH2 0x5FB2 JUMP JUMPDEST PUSH1 0x0 PUSH1 0x40 MLOAD DUP1 DUP4 SUB DUP2 PUSH1 0x0 DUP8 DUP1 EXTCODESIZE ISZERO DUP1 ISZERO PUSH2 0x2570 JUMPI PUSH1 0x0 DUP1 REVERT JUMPDEST POP GAS CALL ISZERO DUP1 ISZERO PUSH2 0x2584 JUMPI RETURNDATASIZE PUSH1 0x0 DUP1 RETURNDATACOPY RETURNDATASIZE PUSH1 0x0 REVERT JUMPDEST POP POP POP POP PUSH1 0x0 PUSH1 0x1 PUSH1 0x0 SWAP1 SLOAD SWAP1 PUSH2 0x100 EXP SWAP1 DIV PUSH20 0xFFFFFFFFFFFFFFFFFFFFFFFFFFFFFFFFFFFFFFFF AND PUSH20 0xFFFFFFFFFFFFFFFFFFFFFFFFFFFFFFFFFFFFFFFF AND PUSH4 0x7C34EB85 DUP8 PUSH1 0x40 MLOAD DUP3 PUSH4 0xFFFFFFFF AND PUSH1 0xE0 SHL DUP2 MSTORE PUSH1 0x4 ADD PUSH2 0x25E5 SWAP2 SWAP1 PUSH2 0x5F14 JUMP JUMPDEST PUSH1 0x20 PUSH1 0x40 MLOAD DUP1 DUP4 SUB DUP2 DUP7 DUP1 EXTCODESIZE ISZERO DUP1 ISZERO PUSH2 0x25FD JUMPI PUSH1 0x0 DUP1 REVERT JUMPDEST POP GAS STATICCALL ISZERO DUP1 ISZERO PUSH2 0x2611 JUMPI RETURNDATASIZE PUSH1 0x0 DUP1 RETURNDATACOPY RETURNDATASIZE PUSH1 0x0 REVERT JUMPDEST POP POP POP POP PUSH1 0x40 MLOAD RETURNDATASIZE PUSH1 0x1F NOT PUSH1 0x1F DUP3 ADD AND DUP3 ADD DUP1 PUSH1 0x40 MSTORE POP DUP2 ADD SWAP1 PUSH2 0x2635 SWAP2 SWAP1 PUSH2 0x4F06 JUMP JUMPDEST ISZERO PUSH2 0x2759 JUMPI PUSH1 0x0 JUMPDEST DUP4 MLOAD DUP2 LT ISZERO PUSH2 0x2753 JUMPI PUSH1 0x1 PUSH1 0x0 SWAP1 SLOAD SWAP1 PUSH2 0x100 EXP SWAP1 DIV PUSH20 0xFFFFFFFFFFFFFFFFFFFFFFFFFFFFFFFFFFFFFFFF AND PUSH20 0xFFFFFFFFFFFFFFFFFFFFFFFFFFFFFFFFFFFFFFFF AND PUSH4 0x25E78E70 DUP9 PUSH1 0x40 MLOAD DUP3 PUSH4 0xFFFFFFFF AND PUSH1 0xE0 SHL DUP2 MSTORE PUSH1 0x4 ADD PUSH2 0x26A1 SWAP2 SWAP1 PUSH2 0x5F14 JUMP JUMPDEST PUSH1 0x0 PUSH1 0x40 MLOAD DUP1 DUP4 SUB DUP2 DUP7 DUP1 EXTCODESIZE ISZERO DUP1 ISZERO PUSH2 0x26B9 JUMPI PUSH1 0x0 DUP1 REVERT JUMPDEST POP GAS STATICCALL ISZERO DUP1 ISZERO PUSH2 0x26CD JUMPI RETURNDATASIZE PUSH1 0x0 DUP1 RETURNDATACOPY RETURNDATASIZE PUSH1 0x0 REVERT JUMPDEST POP POP POP POP PUSH1 0x40 MLOAD RETURNDATASIZE PUSH1 0x0 DUP3 RETURNDATACOPY RETURNDATASIZE PUSH1 0x1F NOT PUSH1 0x1F DUP3 ADD AND DUP3 ADD DUP1 PUSH1 0x40 MSTORE POP DUP2 ADD SWAP1 PUSH2 0x26F6 SWAP2 SWAP1 PUSH2 0x4F7C JUMP JUMPDEST PUSH2 0x1C0 ADD MLOAD DUP5 DUP3 DUP2 MLOAD DUP2 LT PUSH2 0x270E JUMPI PUSH2 0x270D PUSH2 0x678B JUMP JUMPDEST JUMPDEST PUSH1 0x20 MUL PUSH1 0x20 ADD ADD MLOAD DUP2 MLOAD DUP2 LT PUSH2 0x2727 JUMPI PUSH2 0x2726 PUSH2 0x678B JUMP JUMPDEST JUMPDEST PUSH1 0x20 MUL PUSH1 0x20 ADD ADD MLOAD PUSH1 0x20 ADD MLOAD DUP3 PUSH2 0x273E SWAP2 SWAP1 PUSH2 0x6498 JUMP JUMPDEST SWAP2 POP DUP1 DUP1 PUSH2 0x274B SWAP1 PUSH2 0x66B5 JUMP JUMPDEST SWAP2 POP POP PUSH2 0x263D JUMP JUMPDEST POP PUSH2 0x2811 JUMP JUMPDEST PUSH1 0x1 PUSH1 0x0 SWAP1 SLOAD SWAP1 PUSH2 0x100 EXP SWAP1 DIV PUSH20 0xFFFFFFFFFFFFFFFFFFFFFFFFFFFFFFFFFFFFFFFF AND PUSH20 0xFFFFFFFFFFFFFFFFFFFFFFFFFFFFFFFFFFFFFFFF AND PUSH4 0x25E78E70 DUP8 PUSH1 0x40 MLOAD DUP3 PUSH4 0xFFFFFFFF AND PUSH1 0xE0 SHL DUP2 MSTORE PUSH1 0x4 ADD PUSH2 0x27B4 SWAP2 SWAP1 PUSH2 0x5F14 JUMP JUMPDEST PUSH1 0x0 PUSH1 0x40 MLOAD DUP1 DUP4 SUB DUP2 DUP7 DUP1 EXTCODESIZE ISZERO DUP1 ISZERO PUSH2 0x27CC JUMPI PUSH1 0x0 DUP1 REVERT JUMPDEST POP GAS STATICCALL ISZERO DUP1 ISZERO PUSH2 0x27E0 JUMPI RETURNDATASIZE PUSH1 0x0 DUP1 RETURNDATACOPY RETURNDATASIZE PUSH1 0x0 REVERT JUMPDEST POP POP POP POP PUSH1 0x40 MLOAD RETURNDATASIZE PUSH1 0x0 DUP3 RETURNDATACOPY RETURNDATASIZE PUSH1 0x1F NOT PUSH1 0x1F DUP3 ADD AND DUP3 ADD DUP1 PUSH1 0x40 MSTORE POP DUP2 ADD SWAP1 PUSH2 0x2809 SWAP2 SWAP1 PUSH2 0x4F7C JUMP JUMPDEST PUSH2 0x180 ADD MLOAD SWAP1 POP JUMPDEST PUSH1 0x0 PUSH20 0x0 PUSH4 0x4F6CA3CE PUSH2 0x2836 DUP5 PUSH2 0x1C1A JUMP JUMPDEST PUSH1 0x40 MLOAD DUP3 PUSH4 0xFFFFFFFF AND PUSH1 0xE0 SHL DUP2 MSTORE PUSH1 0x4 ADD PUSH2 0x2852 SWAP2 SWAP1 PUSH2 0x5EF9 JUMP JUMPDEST PUSH1 0x20 PUSH1 0x40 MLOAD DUP1 DUP4 SUB DUP2 DUP7 DUP1 EXTCODESIZE ISZERO DUP1 ISZERO PUSH2 0x286A JUMPI PUSH1 0x0 DUP1 REVERT JUMPDEST POP GAS DELEGATECALL ISZERO DUP1 ISZERO PUSH2 0x287E JUMPI RETURNDATASIZE PUSH1 0x0 DUP1 RETURNDATACOPY RETURNDATASIZE PUSH1 0x0 REVERT JUMPDEST POP POP POP POP PUSH1 0x40 MLOAD RETURNDATASIZE PUSH1 0x1F NOT PUSH1 0x1F DUP3 ADD AND DUP3 ADD DUP1 PUSH1 0x40 MSTORE POP DUP2 ADD SWAP1 PUSH2 0x28A2 SWAP2 SWAP1 PUSH2 0x4FF2 JUMP JUMPDEST SWAP1 POP PUSH1 0x0 PUSH20 0x0 PUSH4 0x9CE5C4BF DUP6 DUP5 PUSH1 0x40 MLOAD DUP4 PUSH4 0xFFFFFFFF AND PUSH1 0xE0 SHL DUP2 MSTORE PUSH1 0x4 ADD PUSH2 0x28DF SWAP3 SWAP2 SWAP1 PUSH2 0x61CB JUMP JUMPDEST PUSH1 0x20 PUSH1 0x40 MLOAD DUP1 DUP4 SUB DUP2 DUP7 DUP1 EXTCODESIZE ISZERO DUP1 ISZERO PUSH2 0x28F7 JUMPI PUSH1 0x0 DUP1 REVERT JUMPDEST POP GAS DELEGATECALL ISZERO DUP1 ISZERO PUSH2 0x290B JUMPI RETURNDATASIZE PUSH1 0x0 DUP1 RETURNDATACOPY RETURNDATASIZE PUSH1 0x0 REVERT JUMPDEST POP POP POP POP PUSH1 0x40 MLOAD RETURNDATASIZE PUSH1 0x1F NOT PUSH1 0x1F DUP3 ADD AND DUP3 ADD DUP1 PUSH1 0x40 MSTORE POP DUP2 ADD SWAP1 PUSH2 0x292F SWAP2 SWAP1 PUSH2 0x4FF2 JUMP JUMPDEST SWAP1 POP DUP1 SWAP6 POP POP POP POP POP POP JUMPDEST SWAP3 SWAP2 POP POP JUMP JUMPDEST PUSH1 0x0 DUP1 PUSH1 0x0 SWAP1 SLOAD SWAP1 PUSH2 0x100 EXP SWAP1 DIV PUSH20 0xFFFFFFFFFFFFFFFFFFFFFFFFFFFFFFFFFFFFFFFF AND SWAP1 POP DUP2 PUSH1 0x0 DUP1 PUSH2 0x100 EXP DUP2 SLOAD DUP2 PUSH20 0xFFFFFFFFFFFFFFFFFFFFFFFFFFFFFFFFFFFFFFFF MUL NOT AND SWAP1 DUP4 PUSH20 0xFFFFFFFFFFFFFFFFFFFFFFFFFFFFFFFFFFFFFFFF AND MUL OR SWAP1 SSTORE POP DUP2 PUSH20 0xFFFFFFFFFFFFFFFFFFFFFFFFFFFFFFFFFFFFFFFF AND DUP2 PUSH20 0xFFFFFFFFFFFFFFFFFFFFFFFFFFFFFFFFFFFFFFFF AND PUSH32 0x8BE0079C531659141344CD1FD0A4F28419497F9722A3DAAFE3B4186F6B6457E0 PUSH1 0x40 MLOAD PUSH1 0x40 MLOAD DUP1 SWAP2 SUB SWAP1 LOG3 POP POP JUMP JUMPDEST DUP1 ISZERO PUSH2 0x2AA0 JUMPI PUSH1 0x1 PUSH1 0x0 SWAP1 SLOAD SWAP1 PUSH2 0x100 EXP SWAP1 DIV PUSH20 0xFFFFFFFFFFFFFFFFFFFFFFFFFFFFFFFFFFFFFFFF AND PUSH20 0xFFFFFFFFFFFFFFFFFFFFFFFFFFFFFFFFFFFFFFFF AND PUSH4 0x789FBE31 DUP6 DUP6 DUP6 PUSH1 0x40 MLOAD DUP5 PUSH4 0xFFFFFFFF AND PUSH1 0xE0 SHL DUP2 MSTORE PUSH1 0x4 ADD PUSH2 0x2A69 SWAP4 SWAP3 SWAP2 SWAP1 PUSH2 0x6043 JUMP JUMPDEST PUSH1 0x0 PUSH1 0x40 MLOAD DUP1 DUP4 SUB DUP2 PUSH1 0x0 DUP8 DUP1 EXTCODESIZE ISZERO DUP1 ISZERO PUSH2 0x2A83 JUMPI PUSH1 0x0 DUP1 REVERT JUMPDEST POP GAS CALL ISZERO DUP1 ISZERO PUSH2 0x2A97 JUMPI RETURNDATASIZE PUSH1 0x0 DUP1 RETURNDATACOPY RETURNDATASIZE PUSH1 0x0 REVERT JUMPDEST POP POP POP POP PUSH2 0x2B35 JUMP JUMPDEST PUSH1 0x1 PUSH1 0x0 SWAP1 SLOAD SWAP1 PUSH2 0x100 EXP SWAP1 DIV PUSH20 0xFFFFFFFFFFFFFFFFFFFFFFFFFFFFFFFFFFFFFFFF AND PUSH20 0xFFFFFFFFFFFFFFFFFFFFFFFFFFFFFFFFFFFFFFFF AND PUSH4 0x960BC834 DUP6 DUP6 DUP6 PUSH1 0x0 PUSH1 0x40 MLOAD DUP6 PUSH4 0xFFFFFFFF AND PUSH1 0xE0 SHL DUP2 MSTORE PUSH1 0x4 ADD PUSH2 0x2B02 SWAP5 SWAP4 SWAP3 SWAP2 SWAP1 PUSH2 0x607A JUMP JUMPDEST PUSH1 0x0 PUSH1 0x40 MLOAD DUP1 DUP4 SUB DUP2 PUSH1 0x0 DUP8 DUP1 EXTCODESIZE ISZERO DUP1 ISZERO PUSH2 0x2B1C JUMPI PUSH1 0x0 DUP1 REVERT JUMPDEST POP GAS CALL ISZERO DUP1 ISZERO PUSH2 0x2B30 JUMPI RETURNDATASIZE PUSH1 0x0 DUP1 RETURNDATACOPY RETURNDATASIZE PUSH1 0x0 REVERT JUMPDEST POP POP POP POP JUMPDEST POP POP POP POP JUMP JUMPDEST PUSH1 0x0 DUP1 PUSH1 0x1 PUSH1 0x0 SWAP1 SLOAD SWAP1 PUSH2 0x100 EXP SWAP1 DIV PUSH20 0xFFFFFFFFFFFFFFFFFFFFFFFFFFFFFFFFFFFFFFFF AND PUSH20 0xFFFFFFFFFFFFFFFFFFFFFFFFFFFFFFFFFFFFFFFF AND PUSH4 0xD2FED69C DUP5 PUSH1 0x40 MLOAD DUP3 PUSH4 0xFFFFFFFF AND PUSH1 0xE0 SHL DUP2 MSTORE PUSH1 0x4 ADD PUSH2 0x2B99 SWAP2 SWAP1 PUSH2 0x5F14 JUMP JUMPDEST PUSH1 0x20 PUSH1 0x40 MLOAD DUP1 DUP4 SUB DUP2 DUP7 DUP1 EXTCODESIZE ISZERO DUP1 ISZERO PUSH2 0x2BB1 JUMPI PUSH1 0x0 DUP1 REVERT JUMPDEST POP GAS STATICCALL ISZERO DUP1 ISZERO PUSH2 0x2BC5 JUMPI RETURNDATASIZE PUSH1 0x0 DUP1 RETURNDATACOPY RETURNDATASIZE PUSH1 0x0 REVERT JUMPDEST POP POP POP POP PUSH1 0x40 MLOAD RETURNDATASIZE PUSH1 0x1F NOT PUSH1 0x1F DUP3 ADD AND DUP3 ADD DUP1 PUSH1 0x40 MSTORE POP DUP2 ADD SWAP1 PUSH2 0x2BE9 SWAP2 SWAP1 PUSH2 0x4FF2 JUMP JUMPDEST SWAP1 POP PUSH1 0x0 PUSH1 0x1 PUSH1 0x0 SWAP1 SLOAD SWAP1 PUSH2 0x100 EXP SWAP1 DIV PUSH20 0xFFFFFFFFFFFFFFFFFFFFFFFFFFFFFFFFFFFFFFFF AND PUSH20 0xFFFFFFFFFFFFFFFFFFFFFFFFFFFFFFFFFFFFFFFF AND PUSH4 0xCF8F4BE2 DUP6 PUSH1 0x40 MLOAD DUP3 PUSH4 0xFFFFFFFF AND PUSH1 0xE0 SHL DUP2 MSTORE PUSH1 0x4 ADD PUSH2 0x2C48 SWAP2 SWAP1 PUSH2 0x5F14 JUMP JUMPDEST PUSH1 0x0 PUSH1 0x40 MLOAD DUP1 DUP4 SUB DUP2 DUP7 DUP1 EXTCODESIZE ISZERO DUP1 ISZERO PUSH2 0x2C60 JUMPI PUSH1 0x0 DUP1 REVERT JUMPDEST POP GAS STATICCALL ISZERO DUP1 ISZERO PUSH2 0x2C74 JUMPI RETURNDATASIZE PUSH1 0x0 DUP1 RETURNDATACOPY RETURNDATASIZE PUSH1 0x0 REVERT JUMPDEST POP POP POP POP PUSH1 0x40 MLOAD RETURNDATASIZE PUSH1 0x0 DUP3 RETURNDATACOPY RETURNDATASIZE PUSH1 0x1F NOT PUSH1 0x1F DUP3 ADD AND DUP3 ADD DUP1 PUSH1 0x40 MSTORE POP DUP2 ADD SWAP1 PUSH2 0x2C9D SWAP2 SWAP1 PUSH2 0x4E61 JUMP JUMPDEST SWAP1 POP PUSH1 0x1 PUSH1 0x0 SWAP1 SLOAD SWAP1 PUSH2 0x100 EXP SWAP1 DIV PUSH20 0xFFFFFFFFFFFFFFFFFFFFFFFFFFFFFFFFFFFFFFFF AND PUSH20 0xFFFFFFFFFFFFFFFFFFFFFFFFFFFFFFFFFFFFFFFF AND PUSH4 0x8A9A9FF3 DUP6 PUSH1 0x1 PUSH1 0x40 MLOAD DUP4 PUSH4 0xFFFFFFFF AND PUSH1 0xE0 SHL DUP2 MSTORE PUSH1 0x4 ADD PUSH2 0x2CFD SWAP3 SWAP2 SWAP1 PUSH2 0x6149 JUMP JUMPDEST PUSH1 0x20 PUSH1 0x40 MLOAD DUP1 DUP4 SUB DUP2 DUP7 DUP1 EXTCODESIZE ISZERO DUP1 ISZERO PUSH2 0x2D15 JUMPI PUSH1 0x0 DUP1 REVERT JUMPDEST POP GAS STATICCALL ISZERO DUP1 ISZERO PUSH2 0x2D29 JUMPI RETURNDATASIZE PUSH1 0x0 DUP1 RETURNDATACOPY RETURNDATASIZE PUSH1 0x0 REVERT JUMPDEST POP POP POP POP PUSH1 0x40 MLOAD RETURNDATASIZE PUSH1 0x1F NOT PUSH1 0x1F DUP3 ADD AND DUP3 ADD DUP1 PUSH1 0x40 MSTORE POP DUP2 ADD SWAP1 PUSH2 0x2D4D SWAP2 SWAP1 PUSH2 0x4F06 JUMP JUMPDEST ISZERO PUSH2 0x2D5D JUMPI PUSH1 0x1 SWAP3 POP POP POP PUSH2 0x320A JUMP JUMPDEST PUSH1 0x0 DUP3 EQ ISZERO PUSH2 0x2E3A JUMPI PUSH1 0x1 PUSH1 0x0 SWAP1 SLOAD SWAP1 PUSH2 0x100 EXP SWAP1 DIV PUSH20 0xFFFFFFFFFFFFFFFFFFFFFFFFFFFFFFFFFFFFFFFF AND PUSH20 0xFFFFFFFFFFFFFFFFFFFFFFFFFFFFFFFFFFFFFFFF AND PUSH4 0xEA60F28C DUP6 PUSH1 0x40 MLOAD DUP3 PUSH4 0xFFFFFFFF AND PUSH1 0xE0 SHL DUP2 MSTORE PUSH1 0x4 ADD PUSH2 0x2DC1 SWAP2 SWAP1 PUSH2 0x5F14 JUMP JUMPDEST PUSH1 0x0 PUSH1 0x40 MLOAD DUP1 DUP4 SUB DUP2 PUSH1 0x0 DUP8 DUP1 EXTCODESIZE ISZERO DUP1 ISZERO PUSH2 0x2DDB JUMPI PUSH1 0x0 DUP1 REVERT JUMPDEST POP GAS CALL ISZERO DUP1 ISZERO PUSH2 0x2DEF JUMPI RETURNDATASIZE PUSH1 0x0 DUP1 RETURNDATACOPY RETURNDATASIZE PUSH1 0x0 REVERT JUMPDEST POP POP POP POP PUSH32 0xDAB2890E878EF6D9A9F1D69F761D77BF93C6049FCCAA71ABC31BAA20493179A CALLER DUP6 PUSH1 0x0 PUSH1 0x40 MLOAD PUSH2 0x2E27 SWAP4 SWAP3 SWAP2 SWAP1 PUSH2 0x5D1F JUMP JUMPDEST PUSH1 0x40 MLOAD DUP1 SWAP2 SUB SWAP1 LOG1 PUSH1 0x0 SWAP3 POP POP POP PUSH2 0x320A JUMP JUMPDEST PUSH1 0x0 DUP2 MLOAD SWAP1 POP PUSH1 0x0 DUP4 SWAP1 POP PUSH1 0x0 DUP2 DUP4 PUSH2 0x2E53 SWAP2 SWAP1 PUSH2 0x64EE JUMP JUMPDEST SWAP1 POP PUSH1 0x0 PUSH1 0x1 PUSH1 0x0 SWAP1 SLOAD SWAP1 PUSH2 0x100 EXP SWAP1 DIV PUSH20 0xFFFFFFFFFFFFFFFFFFFFFFFFFFFFFFFFFFFFFFFF AND PUSH20 0xFFFFFFFFFFFFFFFFFFFFFFFFFFFFFFFFFFFFFFFF AND PUSH4 0x983A12A8 DUP10 PUSH1 0x40 MLOAD DUP3 PUSH4 0xFFFFFFFF AND PUSH1 0xE0 SHL DUP2 MSTORE PUSH1 0x4 ADD PUSH2 0x2EB2 SWAP2 SWAP1 PUSH2 0x5F14 JUMP JUMPDEST PUSH1 0x0 PUSH1 0x40 MLOAD DUP1 DUP4 SUB DUP2 DUP7 DUP1 EXTCODESIZE ISZERO DUP1 ISZERO PUSH2 0x2ECA JUMPI PUSH1 0x0 DUP1 REVERT JUMPDEST POP GAS STATICCALL ISZERO DUP1 ISZERO PUSH2 0x2EDE JUMPI RETURNDATASIZE PUSH1 0x0 DUP1 RETURNDATACOPY RETURNDATASIZE PUSH1 0x0 REVERT JUMPDEST POP POP POP POP PUSH1 0x40 MLOAD RETURNDATASIZE PUSH1 0x0 DUP3 RETURNDATACOPY RETURNDATASIZE PUSH1 0x1F NOT PUSH1 0x1F DUP3 ADD AND DUP3 ADD DUP1 PUSH1 0x40 MSTORE POP DUP2 ADD SWAP1 PUSH2 0x2F07 SWAP2 SWAP1 PUSH2 0x4E18 JUMP JUMPDEST SWAP1 POP PUSH1 0x0 JUMPDEST DUP6 MLOAD DUP2 LT ISZERO PUSH2 0x3171 JUMPI PUSH1 0x0 PUSH1 0x9 DUP2 GT ISZERO PUSH2 0x2F29 JUMPI PUSH2 0x2F28 PUSH2 0x675C JUMP JUMPDEST JUMPDEST DUP7 DUP3 DUP2 MLOAD DUP2 LT PUSH2 0x2F3C JUMPI PUSH2 0x2F3B PUSH2 0x678B JUMP JUMPDEST JUMPDEST PUSH1 0x20 MUL PUSH1 0x20 ADD ADD MLOAD PUSH1 0x60 ADD MLOAD PUSH1 0x9 DUP2 GT ISZERO PUSH2 0x2F5A JUMPI PUSH2 0x2F59 PUSH2 0x675C JUMP JUMPDEST JUMPDEST EQ ISZERO PUSH2 0x315E JUMPI PUSH1 0x0 JUMPDEST DUP8 DUP2 LT ISZERO PUSH2 0x315C JUMPI DUP4 PUSH1 0x1 PUSH1 0x0 SWAP1 SLOAD SWAP1 PUSH2 0x100 EXP SWAP1 DIV PUSH20 0xFFFFFFFFFFFFFFFFFFFFFFFFFFFFFFFFFFFFFFFF AND PUSH20 0xFFFFFFFFFFFFFFFFFFFFFFFFFFFFFFFFFFFFFFFF AND PUSH4 0x193620E7 DUP13 DUP7 DUP6 DUP2 MLOAD DUP2 LT PUSH2 0x2FBE JUMPI PUSH2 0x2FBD PUSH2 0x678B JUMP JUMPDEST JUMPDEST PUSH1 0x20 MUL PUSH1 0x20 ADD ADD MLOAD PUSH1 0x40 MLOAD DUP4 PUSH4 0xFFFFFFFF AND PUSH1 0xE0 SHL DUP2 MSTORE PUSH1 0x4 ADD PUSH2 0x2FE3 SWAP3 SWAP2 SWAP1 PUSH2 0x5F2F JUMP JUMPDEST PUSH1 0x20 PUSH1 0x40 MLOAD DUP1 DUP4 SUB DUP2 DUP7 DUP1 EXTCODESIZE ISZERO DUP1 ISZERO PUSH2 0x2FFB JUMPI PUSH1 0x0 DUP1 REVERT JUMPDEST POP GAS STATICCALL ISZERO DUP1 ISZERO PUSH2 0x300F JUMPI RETURNDATASIZE PUSH1 0x0 DUP1 RETURNDATACOPY RETURNDATASIZE PUSH1 0x0 REVERT JUMPDEST POP POP POP POP PUSH1 0x40 MLOAD RETURNDATASIZE PUSH1 0x1F NOT PUSH1 0x1F DUP3 ADD AND DUP3 ADD DUP1 PUSH1 0x40 MSTORE POP DUP2 ADD SWAP1 PUSH2 0x3033 SWAP2 SWAP1 PUSH2 0x4FF2 JUMP JUMPDEST GT ISZERO PUSH2 0x303E JUMPI PUSH2 0x3149 JUMP JUMPDEST PUSH1 0x1 PUSH1 0x0 SWAP1 SLOAD SWAP1 PUSH2 0x100 EXP SWAP1 DIV PUSH20 0xFFFFFFFFFFFFFFFFFFFFFFFFFFFFFFFFFFFFFFFF AND PUSH20 0xFFFFFFFFFFFFFFFFFFFFFFFFFFFFFFFFFFFFFFFF AND PUSH4 0x2731259A DUP12 DUP5 DUP7 DUP6 DUP2 MLOAD DUP2 LT PUSH2 0x3091 JUMPI PUSH2 0x3090 PUSH2 0x678B JUMP JUMPDEST JUMPDEST PUSH1 0x20 MUL PUSH1 0x20 ADD ADD MLOAD PUSH1 0x1 PUSH1 0x40 MLOAD DUP6 PUSH4 0xFFFFFFFF AND PUSH1 0xE0 SHL DUP2 MSTORE PUSH1 0x4 ADD PUSH2 0x30BA SWAP5 SWAP4 SWAP3 SWAP2 SWAP1 PUSH2 0x61F4 JUMP JUMPDEST PUSH1 0x0 PUSH1 0x40 MLOAD DUP1 DUP4 SUB DUP2 PUSH1 0x0 DUP8 DUP1 EXTCODESIZE ISZERO DUP1 ISZERO PUSH2 0x30D4 JUMPI PUSH1 0x0 DUP1 REVERT JUMPDEST POP GAS CALL ISZERO DUP1 ISZERO PUSH2 0x30E8 JUMPI RETURNDATASIZE PUSH1 0x0 DUP1 RETURNDATACOPY RETURNDATASIZE PUSH1 0x0 REVERT JUMPDEST POP POP POP POP PUSH32 0xAD65127436138B4AFE97EF23BAF28ED14A5FB09500AD117EB196CD3BDB3DBE9F DUP11 DUP4 DUP6 DUP5 DUP2 MLOAD DUP2 LT PUSH2 0x3122 JUMPI PUSH2 0x3121 PUSH2 0x678B JUMP JUMPDEST JUMPDEST PUSH1 0x20 MUL PUSH1 0x20 ADD ADD MLOAD PUSH1 0x1 PUSH1 0x40 MLOAD PUSH2 0x313C SWAP5 SWAP4 SWAP3 SWAP2 SWAP1 PUSH2 0x61F4 JUMP JUMPDEST PUSH1 0x40 MLOAD DUP1 SWAP2 SUB SWAP1 LOG1 PUSH2 0x315C JUMP JUMPDEST DUP1 DUP1 PUSH2 0x3154 SWAP1 PUSH2 0x66B5 JUMP JUMPDEST SWAP2 POP POP PUSH2 0x2F63 JUMP JUMPDEST POP JUMPDEST DUP1 DUP1 PUSH2 0x3169 SWAP1 PUSH2 0x66B5 JUMP JUMPDEST SWAP2 POP POP PUSH2 0x2F0C JUMP JUMPDEST POP PUSH1 0x1 PUSH1 0x0 SWAP1 SLOAD SWAP1 PUSH2 0x100 EXP SWAP1 DIV PUSH20 0xFFFFFFFFFFFFFFFFFFFFFFFFFFFFFFFFFFFFFFFF AND PUSH20 0xFFFFFFFFFFFFFFFFFFFFFFFFFFFFFFFFFFFFFFFF AND PUSH4 0xEA60F28C DUP10 PUSH1 0x40 MLOAD DUP3 PUSH4 0xFFFFFFFF AND PUSH1 0xE0 SHL DUP2 MSTORE PUSH1 0x4 ADD PUSH2 0x31CD SWAP2 SWAP1 PUSH2 0x5F14 JUMP JUMPDEST PUSH1 0x0 PUSH1 0x40 MLOAD DUP1 DUP4 SUB DUP2 PUSH1 0x0 DUP8 DUP1 EXTCODESIZE ISZERO DUP1 ISZERO PUSH2 0x31E7 JUMPI PUSH1 0x0 DUP1 REVERT JUMPDEST POP GAS CALL ISZERO DUP1 ISZERO PUSH2 0x31FB JUMPI RETURNDATASIZE PUSH1 0x0 DUP1 RETURNDATACOPY RETURNDATASIZE PUSH1 0x0 REVERT JUMPDEST POP POP POP POP PUSH1 0x0 SWAP7 POP POP POP POP POP POP POP JUMPDEST SWAP2 SWAP1 POP JUMP JUMPDEST PUSH1 0x0 PUSH2 0x3219 PUSH2 0x22B1 JUMP JUMPDEST PUSH1 0x0 PUSH1 0x1 PUSH1 0x0 SWAP1 SLOAD SWAP1 PUSH2 0x100 EXP SWAP1 DIV PUSH20 0xFFFFFFFFFFFFFFFFFFFFFFFFFFFFFFFFFFFFFFFF AND PUSH20 0xFFFFFFFFFFFFFFFFFFFFFFFFFFFFFFFFFFFFFFFF AND PUSH4 0xF8626EBB DUP5 PUSH1 0x40 MLOAD DUP3 PUSH4 0xFFFFFFFF AND PUSH1 0xE0 SHL DUP2 MSTORE PUSH1 0x4 ADD PUSH2 0x3276 SWAP2 SWAP1 PUSH2 0x5F14 JUMP JUMPDEST PUSH1 0x20 PUSH1 0x40 MLOAD DUP1 DUP4 SUB DUP2 DUP7 DUP1 EXTCODESIZE ISZERO DUP1 ISZERO PUSH2 0x328E JUMPI PUSH1 0x0 DUP1 REVERT JUMPDEST POP GAS STATICCALL ISZERO DUP1 ISZERO PUSH2 0x32A2 JUMPI RETURNDATASIZE PUSH1 0x0 DUP1 RETURNDATACOPY RETURNDATASIZE PUSH1 0x0 REVERT JUMPDEST POP POP POP POP PUSH1 0x40 MLOAD RETURNDATASIZE PUSH1 0x1F NOT PUSH1 0x1F DUP3 ADD AND DUP3 ADD DUP1 PUSH1 0x40 MSTORE POP DUP2 ADD SWAP1 PUSH2 0x32C6 SWAP2 SWAP1 PUSH2 0x4FF2 JUMP JUMPDEST SWAP1 POP PUSH1 0x0 PUSH1 0x1 PUSH1 0x0 SWAP1 SLOAD SWAP1 PUSH2 0x100 EXP SWAP1 DIV PUSH20 0xFFFFFFFFFFFFFFFFFFFFFFFFFFFFFFFFFFFFFFFF AND PUSH20 0xFFFFFFFFFFFFFFFFFFFFFFFFFFFFFFFFFFFFFFFF AND PUSH4 0xD2FED69C DUP6 PUSH1 0x40 MLOAD DUP3 PUSH4 0xFFFFFFFF AND PUSH1 0xE0 SHL DUP2 MSTORE PUSH1 0x4 ADD PUSH2 0x3325 SWAP2 SWAP1 PUSH2 0x5F14 JUMP JUMPDEST PUSH1 0x20 PUSH1 0x40 MLOAD DUP1 DUP4 SUB DUP2 DUP7 DUP1 EXTCODESIZE ISZERO DUP1 ISZERO PUSH2 0x333D JUMPI PUSH1 0x0 DUP1 REVERT JUMPDEST POP GAS STATICCALL ISZERO DUP1 ISZERO PUSH2 0x3351 JUMPI RETURNDATASIZE PUSH1 0x0 DUP1 RETURNDATACOPY RETURNDATASIZE PUSH1 0x0 REVERT JUMPDEST POP POP POP POP PUSH1 0x40 MLOAD RETURNDATASIZE PUSH1 0x1F NOT PUSH1 0x1F DUP3 ADD AND DUP3 ADD DUP1 PUSH1 0x40 MSTORE POP DUP2 ADD SWAP1 PUSH2 0x3375 SWAP2 SWAP1 PUSH2 0x4FF2 JUMP JUMPDEST SWAP1 POP PUSH1 0x0 PUSH1 0x1 PUSH1 0x0 SWAP1 SLOAD SWAP1 PUSH2 0x100 EXP SWAP1 DIV PUSH20 0xFFFFFFFFFFFFFFFFFFFFFFFFFFFFFFFFFFFFFFFF AND PUSH20 0xFFFFFFFFFFFFFFFFFFFFFFFFFFFFFFFFFFFFFFFF AND PUSH4 0xCF8F4BE2 DUP7 PUSH1 0x40 MLOAD DUP3 PUSH4 0xFFFFFFFF AND PUSH1 0xE0 SHL DUP2 MSTORE PUSH1 0x4 ADD PUSH2 0x33D4 SWAP2 SWAP1 PUSH2 0x5F14 JUMP JUMPDEST PUSH1 0x0 PUSH1 0x40 MLOAD DUP1 DUP4 SUB DUP2 DUP7 DUP1 EXTCODESIZE ISZERO DUP1 ISZERO PUSH2 0x33EC JUMPI PUSH1 0x0 DUP1 REVERT JUMPDEST POP GAS STATICCALL ISZERO DUP1 ISZERO PUSH2 0x3400 JUMPI RETURNDATASIZE PUSH1 0x0 DUP1 RETURNDATACOPY RETURNDATASIZE PUSH1 0x0 REVERT JUMPDEST POP POP POP POP PUSH1 0x40 MLOAD RETURNDATASIZE PUSH1 0x0 DUP3 RETURNDATACOPY RETURNDATASIZE PUSH1 0x1F NOT PUSH1 0x1F DUP3 ADD AND DUP3 ADD DUP1 PUSH1 0x40 MSTORE POP DUP2 ADD SWAP1 PUSH2 0x3429 SWAP2 SWAP1 PUSH2 0x4E61 JUMP JUMPDEST SWAP1 POP PUSH1 0x1 PUSH1 0x0 SWAP1 SLOAD SWAP1 PUSH2 0x100 EXP SWAP1 DIV PUSH20 0xFFFFFFFFFFFFFFFFFFFFFFFFFFFFFFFFFFFFFFFF AND PUSH20 0xFFFFFFFFFFFFFFFFFFFFFFFFFFFFFFFFFFFFFFFF AND PUSH4 0x8A9A9FF3 DUP7 PUSH1 0x0 PUSH1 0x40 MLOAD DUP4 PUSH4 0xFFFFFFFF AND PUSH1 0xE0 SHL DUP2 MSTORE PUSH1 0x4 ADD PUSH2 0x3489 SWAP3 SWAP2 SWAP1 PUSH2 0x6149 JUMP JUMPDEST PUSH1 0x20 PUSH1 0x40 MLOAD DUP1 DUP4 SUB DUP2 DUP7 DUP1 EXTCODESIZE ISZERO DUP1 ISZERO PUSH2 0x34A1 JUMPI PUSH1 0x0 DUP1 REVERT JUMPDEST POP GAS STATICCALL ISZERO DUP1 ISZERO PUSH2 0x34B5 JUMPI RETURNDATASIZE PUSH1 0x0 DUP1 RETURNDATACOPY RETURNDATASIZE PUSH1 0x0 REVERT JUMPDEST POP POP POP POP PUSH1 0x40 MLOAD RETURNDATASIZE PUSH1 0x1F NOT PUSH1 0x1F DUP3 ADD AND DUP3 ADD DUP1 PUSH1 0x40 MSTORE POP DUP2 ADD SWAP1 PUSH2 0x34D9 SWAP2 SWAP1 PUSH2 0x4F06 JUMP JUMPDEST ISZERO PUSH2 0x34EA JUMPI PUSH1 0x1 SWAP4 POP POP POP POP PUSH2 0x3B82 JUMP JUMPDEST PUSH1 0x0 DUP4 EQ DUP1 ISZERO PUSH2 0x34FB JUMPI POP PUSH1 0x0 DUP3 EQ ISZERO JUMPDEST ISZERO PUSH2 0x3599 JUMPI PUSH1 0x1 PUSH1 0x0 SWAP1 SLOAD SWAP1 PUSH2 0x100 EXP SWAP1 DIV PUSH20 0xFFFFFFFFFFFFFFFFFFFFFFFFFFFFFFFFFFFFFFFF AND PUSH20 0xFFFFFFFFFFFFFFFFFFFFFFFFFFFFFFFFFFFFFFFF AND PUSH4 0xDF3A726F DUP7 PUSH1 0x40 MLOAD DUP3 PUSH4 0xFFFFFFFF AND PUSH1 0xE0 SHL DUP2 MSTORE PUSH1 0x4 ADD PUSH2 0x355B SWAP2 SWAP1 PUSH2 0x5F14 JUMP JUMPDEST PUSH1 0x0 PUSH1 0x40 MLOAD DUP1 DUP4 SUB DUP2 PUSH1 0x0 DUP8 DUP1 EXTCODESIZE ISZERO DUP1 ISZERO PUSH2 0x3575 JUMPI PUSH1 0x0 DUP1 REVERT JUMPDEST POP GAS CALL ISZERO DUP1 ISZERO PUSH2 0x3589 JUMPI RETURNDATASIZE PUSH1 0x0 DUP1 RETURNDATACOPY RETURNDATASIZE PUSH1 0x0 REVERT JUMPDEST POP POP POP POP PUSH1 0x0 SWAP4 POP POP POP POP PUSH2 0x3B82 JUMP JUMPDEST PUSH1 0x0 DUP4 EQ DUP1 ISZERO PUSH2 0x35A9 JUMPI POP PUSH1 0x0 DUP3 EQ JUMPDEST ISZERO PUSH2 0x37B1 JUMPI PUSH1 0x1 PUSH1 0x0 SWAP1 SLOAD SWAP1 PUSH2 0x100 EXP SWAP1 DIV PUSH20 0xFFFFFFFFFFFFFFFFFFFFFFFFFFFFFFFFFFFFFFFF AND PUSH20 0xFFFFFFFFFFFFFFFFFFFFFFFFFFFFFFFFFFFFFFFF AND PUSH4 0x4DB61CAF DUP7 PUSH1 0x40 MLOAD DUP3 PUSH4 0xFFFFFFFF AND PUSH1 0xE0 SHL DUP2 MSTORE PUSH1 0x4 ADD PUSH2 0x3609 SWAP2 SWAP1 PUSH2 0x5F14 JUMP JUMPDEST PUSH1 0x0 PUSH1 0x40 MLOAD DUP1 DUP4 SUB DUP2 PUSH1 0x0 DUP8 DUP1 EXTCODESIZE ISZERO DUP1 ISZERO PUSH2 0x3623 JUMPI PUSH1 0x0 DUP1 REVERT JUMPDEST POP GAS CALL ISZERO DUP1 ISZERO PUSH2 0x3637 JUMPI RETURNDATASIZE PUSH1 0x0 DUP1 RETURNDATACOPY RETURNDATASIZE PUSH1 0x0 REVERT JUMPDEST POP POP POP POP PUSH1 0x0 PUSH1 0x1 PUSH1 0x0 SWAP1 SLOAD SWAP1 PUSH2 0x100 EXP SWAP1 DIV PUSH20 0xFFFFFFFFFFFFFFFFFFFFFFFFFFFFFFFFFFFFFFFF AND PUSH20 0xFFFFFFFFFFFFFFFFFFFFFFFFFFFFFFFFFFFFFFFF AND PUSH4 0x5BF608B8 DUP8 PUSH1 0x40 MLOAD DUP3 PUSH4 0xFFFFFFFF AND PUSH1 0xE0 SHL DUP2 MSTORE PUSH1 0x4 ADD PUSH2 0x3698 SWAP2 SWAP1 PUSH2 0x5F14 JUMP JUMPDEST PUSH1 0x20 PUSH1 0x40 MLOAD DUP1 DUP4 SUB DUP2 DUP7 DUP1 EXTCODESIZE ISZERO DUP1 ISZERO PUSH2 0x36B0 JUMPI PUSH1 0x0 DUP1 REVERT JUMPDEST POP GAS STATICCALL ISZERO DUP1 ISZERO PUSH2 0x36C4 JUMPI RETURNDATASIZE PUSH1 0x0 DUP1 RETURNDATACOPY RETURNDATASIZE PUSH1 0x0 REVERT JUMPDEST POP POP POP POP PUSH1 0x40 MLOAD RETURNDATASIZE PUSH1 0x1F NOT PUSH1 0x1F DUP3 ADD AND DUP3 ADD DUP1 PUSH1 0x40 MSTORE POP DUP2 ADD SWAP1 PUSH2 0x36E8 SWAP2 SWAP1 PUSH2 0x4DEB JUMP JUMPDEST SWAP1 POP PUSH1 0x0 PUSH1 0x1 PUSH1 0x0 SWAP1 SLOAD SWAP1 PUSH2 0x100 EXP SWAP1 DIV PUSH20 0xFFFFFFFFFFFFFFFFFFFFFFFFFFFFFFFFFFFFFFFF AND PUSH20 0xFFFFFFFFFFFFFFFFFFFFFFFFFFFFFFFFFFFFFFFF AND PUSH4 0x6E973982 DUP9 PUSH1 0x40 MLOAD DUP3 PUSH4 0xFFFFFFFF AND PUSH1 0xE0 SHL DUP2 MSTORE PUSH1 0x4 ADD PUSH2 0x3747 SWAP2 SWAP1 PUSH2 0x5F14 JUMP JUMPDEST PUSH1 0x20 PUSH1 0x40 MLOAD DUP1 DUP4 SUB DUP2 DUP7 DUP1 EXTCODESIZE ISZERO DUP1 ISZERO PUSH2 0x375F JUMPI PUSH1 0x0 DUP1 REVERT JUMPDEST POP GAS STATICCALL ISZERO DUP1 ISZERO PUSH2 0x3773 JUMPI RETURNDATASIZE PUSH1 0x0 DUP1 RETURNDATACOPY RETURNDATASIZE PUSH1 0x0 REVERT JUMPDEST POP POP POP POP PUSH1 0x40 MLOAD RETURNDATASIZE PUSH1 0x1F NOT PUSH1 0x1F DUP3 ADD AND DUP3 ADD DUP1 PUSH1 0x40 MSTORE POP DUP2 ADD SWAP1 PUSH2 0x3797 SWAP2 SWAP1 PUSH2 0x4FF2 JUMP JUMPDEST SWAP1 POP PUSH2 0x37A3 DUP3 DUP3 PUSH2 0x1C2E JUMP JUMPDEST PUSH1 0x0 SWAP6 POP POP POP POP POP POP PUSH2 0x3B82 JUMP JUMPDEST PUSH1 0x0 DUP2 MLOAD SWAP1 POP PUSH1 0x0 DUP5 SWAP1 POP PUSH1 0x0 DUP2 DUP4 PUSH2 0x37CA SWAP2 SWAP1 PUSH2 0x64EE JUMP JUMPDEST SWAP1 POP PUSH1 0x0 PUSH1 0x1 PUSH1 0x0 SWAP1 SLOAD SWAP1 PUSH2 0x100 EXP SWAP1 DIV PUSH20 0xFFFFFFFFFFFFFFFFFFFFFFFFFFFFFFFFFFFFFFFF AND PUSH20 0xFFFFFFFFFFFFFFFFFFFFFFFFFFFFFFFFFFFFFFFF AND PUSH4 0xB647EEC3 DUP11 PUSH1 0x40 MLOAD DUP3 PUSH4 0xFFFFFFFF AND PUSH1 0xE0 SHL DUP2 MSTORE PUSH1 0x4 ADD PUSH2 0x3829 SWAP2 SWAP1 PUSH2 0x5F14 JUMP JUMPDEST PUSH1 0x0 PUSH1 0x40 MLOAD DUP1 DUP4 SUB DUP2 DUP7 DUP1 EXTCODESIZE ISZERO DUP1 ISZERO PUSH2 0x3841 JUMPI PUSH1 0x0 DUP1 REVERT JUMPDEST POP GAS STATICCALL ISZERO DUP1 ISZERO PUSH2 0x3855 JUMPI RETURNDATASIZE PUSH1 0x0 DUP1 RETURNDATACOPY RETURNDATASIZE PUSH1 0x0 REVERT JUMPDEST POP POP POP POP PUSH1 0x40 MLOAD RETURNDATASIZE PUSH1 0x0 DUP3 RETURNDATACOPY RETURNDATASIZE PUSH1 0x1F NOT PUSH1 0x1F DUP3 ADD AND DUP3 ADD DUP1 PUSH1 0x40 MSTORE POP DUP2 ADD SWAP1 PUSH2 0x387E SWAP2 SWAP1 PUSH2 0x4E18 JUMP JUMPDEST SWAP1 POP PUSH1 0x0 JUMPDEST DUP6 MLOAD DUP2 LT ISZERO PUSH2 0x3AE8 JUMPI PUSH1 0x0 PUSH1 0x9 DUP2 GT ISZERO PUSH2 0x38A0 JUMPI PUSH2 0x389F PUSH2 0x675C JUMP JUMPDEST JUMPDEST DUP7 DUP3 DUP2 MLOAD DUP2 LT PUSH2 0x38B3 JUMPI PUSH2 0x38B2 PUSH2 0x678B JUMP JUMPDEST JUMPDEST PUSH1 0x20 MUL PUSH1 0x20 ADD ADD MLOAD PUSH1 0x60 ADD MLOAD PUSH1 0x9 DUP2 GT ISZERO PUSH2 0x38D1 JUMPI PUSH2 0x38D0 PUSH2 0x675C JUMP JUMPDEST JUMPDEST EQ ISZERO PUSH2 0x3AD5 JUMPI PUSH1 0x0 JUMPDEST DUP9 DUP2 LT ISZERO PUSH2 0x3AD3 JUMPI DUP4 PUSH1 0x1 PUSH1 0x0 SWAP1 SLOAD SWAP1 PUSH2 0x100 EXP SWAP1 DIV PUSH20 0xFFFFFFFFFFFFFFFFFFFFFFFFFFFFFFFFFFFFFFFF AND PUSH20 0xFFFFFFFFFFFFFFFFFFFFFFFFFFFFFFFFFFFFFFFF AND PUSH4 0x790485F9 DUP14 DUP7 DUP6 DUP2 MLOAD DUP2 LT PUSH2 0x3935 JUMPI PUSH2 0x3934 PUSH2 0x678B JUMP JUMPDEST JUMPDEST PUSH1 0x20 MUL PUSH1 0x20 ADD ADD MLOAD PUSH1 0x40 MLOAD DUP4 PUSH4 0xFFFFFFFF AND PUSH1 0xE0 SHL DUP2 MSTORE PUSH1 0x4 ADD PUSH2 0x395A SWAP3 SWAP2 SWAP1 PUSH2 0x5F2F JUMP JUMPDEST PUSH1 0x20 PUSH1 0x40 MLOAD DUP1 DUP4 SUB DUP2 DUP7 DUP1 EXTCODESIZE ISZERO DUP1 ISZERO PUSH2 0x3972 JUMPI PUSH1 0x0 DUP1 REVERT JUMPDEST POP GAS STATICCALL ISZERO DUP1 ISZERO PUSH2 0x3986 JUMPI RETURNDATASIZE PUSH1 0x0 DUP1 RETURNDATACOPY RETURNDATASIZE PUSH1 0x0 REVERT JUMPDEST POP POP POP POP PUSH1 0x40 MLOAD RETURNDATASIZE PUSH1 0x1F NOT PUSH1 0x1F DUP3 ADD AND DUP3 ADD DUP1 PUSH1 0x40 MSTORE POP DUP2 ADD SWAP1 PUSH2 0x39AA SWAP2 SWAP1 PUSH2 0x4FF2 JUMP JUMPDEST GT ISZERO PUSH2 0x39B5 JUMPI PUSH2 0x3AC0 JUMP JUMPDEST PUSH1 0x1 PUSH1 0x0 SWAP1 SLOAD SWAP1 PUSH2 0x100 EXP SWAP1 DIV PUSH20 0xFFFFFFFFFFFFFFFFFFFFFFFFFFFFFFFFFFFFFFFF AND PUSH20 0xFFFFFFFFFFFFFFFFFFFFFFFFFFFFFFFFFFFFFFFF AND PUSH4 0x2731259A DUP13 DUP5 DUP7 DUP6 DUP2 MLOAD DUP2 LT PUSH2 0x3A08 JUMPI PUSH2 0x3A07 PUSH2 0x678B JUMP JUMPDEST JUMPDEST PUSH1 0x20 MUL PUSH1 0x20 ADD ADD MLOAD PUSH1 0x0 PUSH1 0x40 MLOAD DUP6 PUSH4 0xFFFFFFFF AND PUSH1 0xE0 SHL DUP2 MSTORE PUSH1 0x4 ADD PUSH2 0x3A31 SWAP5 SWAP4 SWAP3 SWAP2 SWAP1 PUSH2 0x61F4 JUMP JUMPDEST PUSH1 0x0 PUSH1 0x40 MLOAD DUP1 DUP4 SUB DUP2 PUSH1 0x0 DUP8 DUP1 EXTCODESIZE ISZERO DUP1 ISZERO PUSH2 0x3A4B JUMPI PUSH1 0x0 DUP1 REVERT JUMPDEST POP GAS CALL ISZERO DUP1 ISZERO PUSH2 0x3A5F JUMPI RETURNDATASIZE PUSH1 0x0 DUP1 RETURNDATACOPY RETURNDATASIZE PUSH1 0x0 REVERT JUMPDEST POP POP POP POP PUSH32 0xAD65127436138B4AFE97EF23BAF28ED14A5FB09500AD117EB196CD3BDB3DBE9F DUP12 DUP4 DUP6 DUP5 DUP2 MLOAD DUP2 LT PUSH2 0x3A99 JUMPI PUSH2 0x3A98 PUSH2 0x678B JUMP JUMPDEST JUMPDEST PUSH1 0x20 MUL PUSH1 0x20 ADD ADD MLOAD PUSH1 0x0 PUSH1 0x40 MLOAD PUSH2 0x3AB3 SWAP5 SWAP4 SWAP3 SWAP2 SWAP1 PUSH2 0x61F4 JUMP JUMPDEST PUSH1 0x40 MLOAD DUP1 SWAP2 SUB SWAP1 LOG1 PUSH2 0x3AD3 JUMP JUMPDEST DUP1 DUP1 PUSH2 0x3ACB SWAP1 PUSH2 0x66B5 JUMP JUMPDEST SWAP2 POP POP PUSH2 0x38DA JUMP JUMPDEST POP JUMPDEST DUP1 DUP1 PUSH2 0x3AE0 SWAP1 PUSH2 0x66B5 JUMP JUMPDEST SWAP2 POP POP PUSH2 0x3883 JUMP JUMPDEST POP PUSH1 0x1 PUSH1 0x0 SWAP1 SLOAD SWAP1 PUSH2 0x100 EXP SWAP1 DIV PUSH20 0xFFFFFFFFFFFFFFFFFFFFFFFFFFFFFFFFFFFFFFFF AND PUSH20 0xFFFFFFFFFFFFFFFFFFFFFFFFFFFFFFFFFFFFFFFF AND PUSH4 0xDF3A726F DUP11 PUSH1 0x40 MLOAD DUP3 PUSH4 0xFFFFFFFF AND PUSH1 0xE0 SHL DUP2 MSTORE PUSH1 0x4 ADD PUSH2 0x3B44 SWAP2 SWAP1 PUSH2 0x5F14 JUMP JUMPDEST PUSH1 0x0 PUSH1 0x40 MLOAD DUP1 DUP4 SUB DUP2 PUSH1 0x0 DUP8 DUP1 EXTCODESIZE ISZERO DUP1 ISZERO PUSH2 0x3B5E JUMPI PUSH1 0x0 DUP1 REVERT JUMPDEST POP GAS CALL ISZERO DUP1 ISZERO PUSH2 0x3B72 JUMPI RETURNDATASIZE PUSH1 0x0 DUP1 RETURNDATACOPY RETURNDATASIZE PUSH1 0x0 REVERT JUMPDEST POP POP POP POP PUSH1 0x0 SWAP8 POP POP POP POP POP POP POP POP JUMPDEST SWAP2 SWAP1 POP JUMP JUMPDEST PUSH1 0x0 DUP1 PUSH1 0x1 PUSH1 0x0 SWAP1 SLOAD SWAP1 PUSH2 0x100 EXP SWAP1 DIV PUSH20 0xFFFFFFFFFFFFFFFFFFFFFFFFFFFFFFFFFFFFFFFF AND PUSH20 0xFFFFFFFFFFFFFFFFFFFFFFFFFFFFFFFFFFFFFFFF AND PUSH4 0x752458C5 DUP5 PUSH1 0x40 MLOAD DUP3 PUSH4 0xFFFFFFFF AND PUSH1 0xE0 SHL DUP2 MSTORE PUSH1 0x4 ADD PUSH2 0x3BE5 SWAP2 SWAP1 PUSH2 0x5EB5 JUMP JUMPDEST PUSH1 0x20 PUSH1 0x40 MLOAD DUP1 DUP4 SUB DUP2 PUSH1 0x0 DUP8 DUP1 EXTCODESIZE ISZERO DUP1 ISZERO PUSH2 0x3BFF JUMPI PUSH1 0x0 DUP1 REVERT JUMPDEST POP GAS CALL ISZERO DUP1 ISZERO PUSH2 0x3C13 JUMPI RETURNDATASIZE PUSH1 0x0 DUP1 RETURNDATACOPY RETURNDATASIZE PUSH1 0x0 REVERT JUMPDEST POP POP POP POP PUSH1 0x40 MLOAD RETURNDATASIZE PUSH1 0x1F NOT PUSH1 0x1F DUP3 ADD AND DUP3 ADD DUP1 PUSH1 0x40 MSTORE POP DUP2 ADD SWAP1 PUSH2 0x3C37 SWAP2 SWAP1 PUSH2 0x4FF2 JUMP JUMPDEST SWAP1 POP PUSH32 0x9096640C11BD5636CED741C9725E5FF774B334455C80E15491F15BB3AF0BC265 CALLER DUP3 DUP6 PUSH1 0x40 MLOAD PUSH2 0x3C6C SWAP4 SWAP3 SWAP2 SWAP1 PUSH2 0x5D69 JUMP JUMPDEST PUSH1 0x40 MLOAD DUP1 SWAP2 SUB SWAP1 LOG1 DUP1 SWAP2 POP POP SWAP2 SWAP1 POP JUMP JUMPDEST PUSH1 0x1 PUSH1 0x0 SWAP1 SLOAD SWAP1 PUSH2 0x100 EXP SWAP1 DIV PUSH20 0xFFFFFFFFFFFFFFFFFFFFFFFFFFFFFFFFFFFFFFFF AND PUSH20 0xFFFFFFFFFFFFFFFFFFFFFFFFFFFFFFFFFFFFFFFF AND PUSH4 0xFFFB35AF DUP5 CALLER DUP6 DUP6 PUSH1 0x40 MLOAD DUP6 PUSH4 0xFFFFFFFF AND PUSH1 0xE0 SHL DUP2 MSTORE PUSH1 0x4 ADD PUSH2 0x3CDE SWAP5 SWAP4 SWAP3 SWAP2 SWAP1 PUSH2 0x60BF JUMP JUMPDEST PUSH1 0x0 PUSH1 0x40 MLOAD DUP1 DUP4 SUB DUP2 PUSH1 0x0 DUP8 DUP1 EXTCODESIZE ISZERO DUP1 ISZERO PUSH2 0x3CF8 JUMPI PUSH1 0x0 DUP1 REVERT JUMPDEST POP GAS CALL ISZERO DUP1 ISZERO PUSH2 0x3D0C JUMPI RETURNDATASIZE PUSH1 0x0 DUP1 RETURNDATACOPY RETURNDATASIZE PUSH1 0x0 REVERT JUMPDEST POP POP POP POP POP POP POP JUMP JUMPDEST PUSH1 0x0 PUSH1 0x64 PUSH2 0x3D23 DUP5 DUP5 PUSH2 0x3D51 JUMP JUMPDEST PUSH2 0x3D2D SWAP2 SWAP1 PUSH2 0x64EE JUMP JUMPDEST SWAP1 POP SWAP3 SWAP2 POP POP JUMP JUMPDEST PUSH1 0x0 PUSH2 0x3D42 DUP3 PUSH1 0x24 PUSH2 0x3D15 JUMP JUMPDEST SWAP1 POP SWAP2 SWAP1 POP JUMP JUMPDEST PUSH1 0x0 CALLER SWAP1 POP SWAP1 JUMP JUMPDEST PUSH1 0x0 DUP2 DUP4 PUSH2 0x3D5F SWAP2 SWAP1 PUSH2 0x651F JUMP JUMPDEST SWAP1 POP SWAP3 SWAP2 POP POP JUMP JUMPDEST PUSH1 0x40 MLOAD DUP1 PUSH2 0x300 ADD PUSH1 0x40 MSTORE DUP1 PUSH1 0x0 PUSH20 0xFFFFFFFFFFFFFFFFFFFFFFFFFFFFFFFFFFFFFFFF AND DUP2 MSTORE PUSH1 0x20 ADD PUSH1 0x0 DUP2 MSTORE PUSH1 0x20 ADD PUSH1 0x60 DUP2 MSTORE PUSH1 0x20 ADD PUSH1 0x60 DUP2 MSTORE PUSH1 0x20 ADD PUSH1 0x0 DUP2 MSTORE PUSH1 0x20 ADD PUSH1 0x0 DUP2 MSTORE PUSH1 0x20 ADD PUSH1 0x0 DUP2 MSTORE PUSH1 0x20 ADD PUSH1 0x60 DUP2 MSTORE PUSH1 0x20 ADD PUSH1 0x0 DUP2 MSTORE PUSH1 0x20 ADD PUSH1 0x0 DUP2 MSTORE PUSH1 0x20 ADD PUSH1 0x0 ISZERO ISZERO DUP2 MSTORE PUSH1 0x20 ADD PUSH1 0x0 ISZERO ISZERO DUP2 MSTORE PUSH1 0x20 ADD PUSH1 0x0 DUP2 MSTORE PUSH1 0x20 ADD PUSH1 0x60 DUP2 MSTORE PUSH1 0x20 ADD PUSH1 0x60 DUP2 MSTORE PUSH1 0x20 ADD PUSH1 0x60 DUP2 MSTORE PUSH1 0x20 ADD PUSH1 0x60 DUP2 MSTORE PUSH1 0x20 ADD PUSH1 0x0 DUP2 MSTORE PUSH1 0x20 ADD PUSH1 0x0 DUP2 MSTORE PUSH1 0x20 ADD PUSH1 0x0 DUP2 MSTORE PUSH1 0x20 ADD PUSH1 0x0 DUP2 MSTORE PUSH1 0x20 ADD PUSH1 0x0 ISZERO ISZERO DUP2 MSTORE PUSH1 0x20 ADD PUSH1 0x0 ISZERO ISZERO DUP2 MSTORE PUSH1 0x20 ADD PUSH1 0x0 PUSH1 0x6 DUP2 GT ISZERO PUSH2 0x3E46 JUMPI PUSH2 0x3E45 PUSH2 0x675C JUMP JUMPDEST JUMPDEST DUP2 MSTORE POP SWAP1 JUMP JUMPDEST PUSH1 0x0 PUSH2 0x3E5F PUSH2 0x3E5A DUP5 PUSH2 0x625E JUMP JUMPDEST PUSH2 0x6239 JUMP JUMPDEST SWAP1 POP DUP1 DUP4 DUP3 MSTORE PUSH1 0x20 DUP3 ADD SWAP1 POP DUP3 DUP6 PUSH1 0x20 DUP7 MUL DUP3 ADD GT ISZERO PUSH2 0x3E82 JUMPI PUSH2 0x3E81 PUSH2 0x67F8 JUMP JUMPDEST JUMPDEST PUSH1 0x0 JUMPDEST DUP6 DUP2 LT ISZERO PUSH2 0x3EB2 JUMPI DUP2 PUSH2 0x3E98 DUP9 DUP3 PUSH2 0x426D JUMP JUMPDEST DUP5 MSTORE PUSH1 0x20 DUP5 ADD SWAP4 POP PUSH1 0x20 DUP4 ADD SWAP3 POP POP PUSH1 0x1 DUP2 ADD SWAP1 POP PUSH2 0x3E85 JUMP JUMPDEST POP POP POP SWAP4 SWAP3 POP POP POP JUMP JUMPDEST PUSH1 0x0 PUSH2 0x3ECF PUSH2 0x3ECA DUP5 PUSH2 0x628A JUMP JUMPDEST PUSH2 0x6239 JUMP JUMPDEST SWAP1 POP DUP1 DUP4 DUP3 MSTORE PUSH1 0x20 DUP3 ADD SWAP1 POP DUP3 DUP6 PUSH1 0x20 DUP7 MUL DUP3 ADD GT ISZERO PUSH2 0x3EF2 JUMPI PUSH2 0x3EF1 PUSH2 0x67F8 JUMP JUMPDEST JUMPDEST PUSH1 0x0 JUMPDEST DUP6 DUP2 LT ISZERO PUSH2 0x3F40 JUMPI DUP2 MLOAD PUSH8 0xFFFFFFFFFFFFFFFF DUP2 GT ISZERO PUSH2 0x3F18 JUMPI PUSH2 0x3F17 PUSH2 0x67E9 JUMP JUMPDEST JUMPDEST DUP1 DUP7 ADD PUSH2 0x3F25 DUP10 DUP3 PUSH2 0x481E JUMP JUMPDEST DUP6 MSTORE PUSH1 0x20 DUP6 ADD SWAP5 POP PUSH1 0x20 DUP5 ADD SWAP4 POP POP POP PUSH1 0x1 DUP2 ADD SWAP1 POP PUSH2 0x3EF5 JUMP JUMPDEST POP POP POP SWAP4 SWAP3 POP POP POP JUMP JUMPDEST PUSH1 0x0 PUSH2 0x3F5D PUSH2 0x3F58 DUP5 PUSH2 0x62B6 JUMP JUMPDEST PUSH2 0x6239 JUMP JUMPDEST SWAP1 POP DUP1 DUP4 DUP3 MSTORE PUSH1 0x20 DUP3 ADD SWAP1 POP DUP3 DUP6 PUSH1 0x20 DUP7 MUL DUP3 ADD GT ISZERO PUSH2 0x3F80 JUMPI PUSH2 0x3F7F PUSH2 0x67F8 JUMP JUMPDEST JUMPDEST PUSH1 0x0 JUMPDEST DUP6 DUP2 LT ISZERO PUSH2 0x3FCE JUMPI DUP2 MLOAD PUSH8 0xFFFFFFFFFFFFFFFF DUP2 GT ISZERO PUSH2 0x3FA6 JUMPI PUSH2 0x3FA5 PUSH2 0x67E9 JUMP JUMPDEST JUMPDEST DUP1 DUP7 ADD PUSH2 0x3FB3 DUP10 DUP3 PUSH2 0x4BA0 JUMP JUMPDEST DUP6 MSTORE PUSH1 0x20 DUP6 ADD SWAP5 POP PUSH1 0x20 DUP5 ADD SWAP4 POP POP POP PUSH1 0x1 DUP2 ADD SWAP1 POP PUSH2 0x3F83 JUMP JUMPDEST POP POP POP SWAP4 SWAP3 POP POP POP JUMP JUMPDEST PUSH1 0x0 PUSH2 0x3FEB PUSH2 0x3FE6 DUP5 PUSH2 0x62E2 JUMP JUMPDEST PUSH2 0x6239 JUMP JUMPDEST SWAP1 POP DUP1 DUP4 DUP3 MSTORE PUSH1 0x20 DUP3 ADD SWAP1 POP DUP3 DUP6 PUSH1 0x20 DUP7 MUL DUP3 ADD GT ISZERO PUSH2 0x400E JUMPI PUSH2 0x400D PUSH2 0x67F8 JUMP JUMPDEST JUMPDEST PUSH1 0x0 JUMPDEST DUP6 DUP2 LT ISZERO PUSH2 0x405C JUMPI DUP2 CALLDATALOAD PUSH8 0xFFFFFFFFFFFFFFFF DUP2 GT ISZERO PUSH2 0x4034 JUMPI PUSH2 0x4033 PUSH2 0x67E9 JUMP JUMPDEST JUMPDEST DUP1 DUP7 ADD PUSH2 0x4041 DUP10 DUP3 PUSH2 0x4C0C JUMP JUMPDEST DUP6 MSTORE PUSH1 0x20 DUP6 ADD SWAP5 POP PUSH1 0x20 DUP5 ADD SWAP4 POP POP POP PUSH1 0x1 DUP2 ADD SWAP1 POP PUSH2 0x4011 JUMP JUMPDEST POP POP POP SWAP4 SWAP3 POP POP POP JUMP JUMPDEST PUSH1 0x0 PUSH2 0x4079 PUSH2 0x4074 DUP5 PUSH2 0x62E2 JUMP JUMPDEST PUSH2 0x6239 JUMP JUMPDEST SWAP1 POP DUP1 DUP4 DUP3 MSTORE PUSH1 0x20 DUP3 ADD SWAP1 POP DUP3 DUP6 PUSH1 0x20 DUP7 MUL DUP3 ADD GT ISZERO PUSH2 0x409C JUMPI PUSH2 0x409B PUSH2 0x67F8 JUMP JUMPDEST JUMPDEST PUSH1 0x0 JUMPDEST DUP6 DUP2 LT ISZERO PUSH2 0x40EA JUMPI DUP2 MLOAD PUSH8 0xFFFFFFFFFFFFFFFF DUP2 GT ISZERO PUSH2 0x40C2 JUMPI PUSH2 0x40C1 PUSH2 0x67E9 JUMP JUMPDEST JUMPDEST DUP1 DUP7 ADD PUSH2 0x40CF DUP10 DUP3 PUSH2 0x4CD0 JUMP JUMPDEST DUP6 MSTORE PUSH1 0x20 DUP6 ADD SWAP5 POP PUSH1 0x20 DUP5 ADD SWAP4 POP POP POP PUSH1 0x1 DUP2 ADD SWAP1 POP PUSH2 0x409F JUMP JUMPDEST POP POP POP SWAP4 SWAP3 POP POP POP JUMP JUMPDEST PUSH1 0x0 PUSH2 0x4107 PUSH2 0x4102 DUP5 PUSH2 0x630E JUMP JUMPDEST PUSH2 0x6239 JUMP JUMPDEST SWAP1 POP DUP1 DUP4 DUP3 MSTORE PUSH1 0x20 DUP3 ADD SWAP1 POP DUP3 DUP6 PUSH1 0x20 DUP7 MUL DUP3 ADD GT ISZERO PUSH2 0x412A JUMPI PUSH2 0x4129 PUSH2 0x67F8 JUMP JUMPDEST JUMPDEST PUSH1 0x0 JUMPDEST DUP6 DUP2 LT ISZERO PUSH2 0x415A JUMPI DUP2 PUSH2 0x4140 DUP9 DUP3 PUSH2 0x4D94 JUMP JUMPDEST DUP5 MSTORE PUSH1 0x20 DUP5 ADD SWAP4 POP PUSH1 0x20 DUP4 ADD SWAP3 POP POP PUSH1 0x1 DUP2 ADD SWAP1 POP PUSH2 0x412D JUMP JUMPDEST POP POP POP SWAP4 SWAP3 POP POP POP JUMP JUMPDEST PUSH1 0x0 PUSH2 0x4177 PUSH2 0x4172 DUP5 PUSH2 0x630E JUMP JUMPDEST PUSH2 0x6239 JUMP JUMPDEST SWAP1 POP DUP1 DUP4 DUP3 MSTORE PUSH1 0x20 DUP3 ADD SWAP1 POP DUP3 DUP6 PUSH1 0x20 DUP7 MUL DUP3 ADD GT ISZERO PUSH2 0x419A JUMPI PUSH2 0x4199 PUSH2 0x67F8 JUMP JUMPDEST JUMPDEST PUSH1 0x0 JUMPDEST DUP6 DUP2 LT ISZERO PUSH2 0x41CA JUMPI DUP2 PUSH2 0x41B0 DUP9 DUP3 PUSH2 0x4DA9 JUMP JUMPDEST DUP5 MSTORE PUSH1 0x20 DUP5 ADD SWAP4 POP PUSH1 0x20 DUP4 ADD SWAP3 POP POP PUSH1 0x1 DUP2 ADD SWAP1 POP PUSH2 0x419D JUMP JUMPDEST POP POP POP SWAP4 SWAP3 POP POP POP JUMP JUMPDEST PUSH1 0x0 PUSH2 0x41E7 PUSH2 0x41E2 DUP5 PUSH2 0x633A JUMP JUMPDEST PUSH2 0x6239 JUMP JUMPDEST SWAP1 POP DUP3 DUP2 MSTORE PUSH1 0x20 DUP2 ADD DUP5 DUP5 DUP5 ADD GT ISZERO PUSH2 0x4203 JUMPI PUSH2 0x4202 PUSH2 0x67FD JUMP JUMPDEST JUMPDEST PUSH2 0x420E DUP5 DUP3 DUP6 PUSH2 0x6642 JUMP JUMPDEST POP SWAP4 SWAP3 POP POP POP JUMP JUMPDEST PUSH1 0x0 PUSH2 0x4229 PUSH2 0x4224 DUP5 PUSH2 0x633A JUMP JUMPDEST PUSH2 0x6239 JUMP JUMPDEST SWAP1 POP DUP3 DUP2 MSTORE PUSH1 0x20 DUP2 ADD DUP5 DUP5 DUP5 ADD GT ISZERO PUSH2 0x4245 JUMPI PUSH2 0x4244 PUSH2 0x67FD JUMP JUMPDEST JUMPDEST PUSH2 0x4250 DUP5 DUP3 DUP6 PUSH2 0x6651 JUMP JUMPDEST POP SWAP4 SWAP3 POP POP POP JUMP JUMPDEST PUSH1 0x0 DUP2 CALLDATALOAD SWAP1 POP PUSH2 0x4267 DUP2 PUSH2 0x6A19 JUMP JUMPDEST SWAP3 SWAP2 POP POP JUMP JUMPDEST PUSH1 0x0 DUP2 MLOAD SWAP1 POP PUSH2 0x427C DUP2 PUSH2 0x6A19 JUMP JUMPDEST SWAP3 SWAP2 POP POP JUMP JUMPDEST PUSH1 0x0 DUP3 PUSH1 0x1F DUP4 ADD SLT PUSH2 0x4297 JUMPI PUSH2 0x4296 PUSH2 0x67E9 JUMP JUMPDEST JUMPDEST DUP2 MLOAD PUSH2 0x42A7 DUP5 DUP3 PUSH1 0x20 DUP7 ADD PUSH2 0x3E4C JUMP JUMPDEST SWAP2 POP POP SWAP3 SWAP2 POP POP JUMP JUMPDEST PUSH1 0x0 DUP3 PUSH1 0x1F DUP4 ADD SLT PUSH2 0x42C5 JUMPI PUSH2 0x42C4 PUSH2 0x67E9 JUMP JUMPDEST JUMPDEST DUP2 MLOAD PUSH2 0x42D5 DUP5 DUP3 PUSH1 0x20 DUP7 ADD PUSH2 0x3EBC JUMP JUMPDEST SWAP2 POP POP SWAP3 SWAP2 POP POP JUMP JUMPDEST PUSH1 0x0 DUP3 PUSH1 0x1F DUP4 ADD SLT PUSH2 0x42F3 JUMPI PUSH2 0x42F2 PUSH2 0x67E9 JUMP JUMPDEST JUMPDEST DUP2 MLOAD PUSH2 0x4303 DUP5 DUP3 PUSH1 0x20 DUP7 ADD PUSH2 0x3F4A JUMP JUMPDEST SWAP2 POP POP SWAP3 SWAP2 POP POP JUMP JUMPDEST PUSH1 0x0 DUP3 PUSH1 0x1F DUP4 ADD SLT PUSH2 0x4321 JUMPI PUSH2 0x4320 PUSH2 0x67E9 JUMP JUMPDEST JUMPDEST DUP2 CALLDATALOAD PUSH2 0x4331 DUP5 DUP3 PUSH1 0x20 DUP7 ADD PUSH2 0x3FD8 JUMP JUMPDEST SWAP2 POP POP SWAP3 SWAP2 POP POP JUMP JUMPDEST PUSH1 0x0 DUP3 PUSH1 0x1F DUP4 ADD SLT PUSH2 0x434F JUMPI PUSH2 0x434E PUSH2 0x67E9 JUMP JUMPDEST JUMPDEST DUP2 MLOAD PUSH2 0x435F DUP5 DUP3 PUSH1 0x20 DUP7 ADD PUSH2 0x4066 JUMP JUMPDEST SWAP2 POP POP SWAP3 SWAP2 POP POP JUMP JUMPDEST PUSH1 0x0 DUP3 PUSH1 0x1F DUP4 ADD SLT PUSH2 0x437D JUMPI PUSH2 0x437C PUSH2 0x67E9 JUMP JUMPDEST JUMPDEST DUP2 CALLDATALOAD PUSH2 0x438D DUP5 DUP3 PUSH1 0x20 DUP7 ADD PUSH2 0x40F4 JUMP JUMPDEST SWAP2 POP POP SWAP3 SWAP2 POP POP JUMP JUMPDEST PUSH1 0x0 DUP3 PUSH1 0x1F DUP4 ADD SLT PUSH2 0x43AB JUMPI PUSH2 0x43AA PUSH2 0x67E9 JUMP JUMPDEST JUMPDEST DUP2 MLOAD PUSH2 0x43BB DUP5 DUP3 PUSH1 0x20 DUP7 ADD PUSH2 0x4164 JUMP JUMPDEST SWAP2 POP POP SWAP3 SWAP2 POP POP JUMP JUMPDEST PUSH1 0x0 DUP2 CALLDATALOAD SWAP1 POP PUSH2 0x43D3 DUP2 PUSH2 0x6A30 JUMP JUMPDEST SWAP3 SWAP2 POP POP JUMP JUMPDEST PUSH1 0x0 DUP2 MLOAD SWAP1 POP PUSH2 0x43E8 DUP2 PUSH2 0x6A30 JUMP JUMPDEST SWAP3 SWAP2 POP POP JUMP JUMPDEST PUSH1 0x0 DUP2 CALLDATALOAD SWAP1 POP PUSH2 0x43FD DUP2 PUSH2 0x6A47 JUMP JUMPDEST SWAP3 SWAP2 POP POP JUMP JUMPDEST PUSH1 0x0 DUP2 MLOAD SWAP1 POP PUSH2 0x4412 DUP2 PUSH2 0x6A47 JUMP JUMPDEST SWAP3 SWAP2 POP POP JUMP JUMPDEST PUSH1 0x0 DUP2 MLOAD SWAP1 POP PUSH2 0x4427 DUP2 PUSH2 0x6A57 JUMP JUMPDEST SWAP3 SWAP2 POP POP JUMP JUMPDEST PUSH1 0x0 DUP2 MLOAD SWAP1 POP PUSH2 0x443C DUP2 PUSH2 0x6A67 JUMP JUMPDEST SWAP3 SWAP2 POP POP JUMP JUMPDEST PUSH1 0x0 DUP3 PUSH1 0x1F DUP4 ADD SLT PUSH2 0x4457 JUMPI PUSH2 0x4456 PUSH2 0x67E9 JUMP JUMPDEST JUMPDEST DUP2 CALLDATALOAD PUSH2 0x4467 DUP5 DUP3 PUSH1 0x20 DUP7 ADD PUSH2 0x41D4 JUMP JUMPDEST SWAP2 POP POP SWAP3 SWAP2 POP POP JUMP JUMPDEST PUSH1 0x0 DUP3 PUSH1 0x1F DUP4 ADD SLT PUSH2 0x4485 JUMPI PUSH2 0x4484 PUSH2 0x67E9 JUMP JUMPDEST JUMPDEST DUP2 MLOAD PUSH2 0x4495 DUP5 DUP3 PUSH1 0x20 DUP7 ADD PUSH2 0x4216 JUMP JUMPDEST SWAP2 POP POP SWAP3 SWAP2 POP POP JUMP JUMPDEST PUSH1 0x0 PUSH1 0xE0 DUP3 DUP5 SUB SLT ISZERO PUSH2 0x44B4 JUMPI PUSH2 0x44B3 PUSH2 0x67EE JUMP JUMPDEST JUMPDEST PUSH2 0x44BE PUSH1 0xE0 PUSH2 0x6239 JUMP JUMPDEST SWAP1 POP PUSH1 0x0 DUP3 ADD CALLDATALOAD PUSH8 0xFFFFFFFFFFFFFFFF DUP2 GT ISZERO PUSH2 0x44DE JUMPI PUSH2 0x44DD PUSH2 0x67F3 JUMP JUMPDEST JUMPDEST PUSH2 0x44EA DUP5 DUP3 DUP6 ADD PUSH2 0x4442 JUMP JUMPDEST PUSH1 0x0 DUP4 ADD MSTORE POP PUSH1 0x20 PUSH2 0x44FE DUP5 DUP3 DUP6 ADD PUSH2 0x4D94 JUMP JUMPDEST PUSH1 0x20 DUP4 ADD MSTORE POP PUSH1 0x40 PUSH2 0x4512 DUP5 DUP3 DUP6 ADD PUSH2 0x4D94 JUMP JUMPDEST PUSH1 0x40 DUP4 ADD MSTORE POP PUSH1 0x60 PUSH2 0x4526 DUP5 DUP3 DUP6 ADD PUSH2 0x4D94 JUMP JUMPDEST PUSH1 0x60 DUP4 ADD MSTORE POP PUSH1 0x80 PUSH2 0x453A DUP5 DUP3 DUP6 ADD PUSH2 0x4D94 JUMP JUMPDEST PUSH1 0x80 DUP4 ADD MSTORE POP PUSH1 0xA0 PUSH2 0x454E DUP5 DUP3 DUP6 ADD PUSH2 0x4D94 JUMP JUMPDEST PUSH1 0xA0 DUP4 ADD MSTORE POP PUSH1 0xC0 DUP3 ADD CALLDATALOAD PUSH8 0xFFFFFFFFFFFFFFFF DUP2 GT ISZERO PUSH2 0x4572 JUMPI PUSH2 0x4571 PUSH2 0x67F3 JUMP JUMPDEST JUMPDEST PUSH2 0x457E DUP5 DUP3 DUP6 ADD PUSH2 0x4442 JUMP JUMPDEST PUSH1 0xC0 DUP4 ADD MSTORE POP SWAP3 SWAP2 POP POP JUMP JUMPDEST PUSH1 0x0 PUSH1 0xE0 DUP3 DUP5 SUB SLT ISZERO PUSH2 0x45A0 JUMPI PUSH2 0x459F PUSH2 0x67EE JUMP JUMPDEST JUMPDEST PUSH2 0x45AA PUSH1 0xE0 PUSH2 0x6239 JUMP JUMPDEST SWAP1 POP PUSH1 0x0 DUP3 ADD MLOAD PUSH8 0xFFFFFFFFFFFFFFFF DUP2 GT ISZERO PUSH2 0x45CA JUMPI PUSH2 0x45C9 PUSH2 0x67F3 JUMP JUMPDEST JUMPDEST PUSH2 0x45D6 DUP5 DUP3 DUP6 ADD PUSH2 0x4470 JUMP JUMPDEST PUSH1 0x0 DUP4 ADD MSTORE POP PUSH1 0x20 PUSH2 0x45EA DUP5 DUP3 DUP6 ADD PUSH2 0x4DA9 JUMP JUMPDEST PUSH1 0x20 DUP4 ADD MSTORE POP PUSH1 0x40 PUSH2 0x45FE DUP5 DUP3 DUP6 ADD PUSH2 0x4DA9 JUMP JUMPDEST PUSH1 0x40 DUP4 ADD MSTORE POP PUSH1 0x60 PUSH2 0x4612 DUP5 DUP3 DUP6 ADD PUSH2 0x4DA9 JUMP JUMPDEST PUSH1 0x60 DUP4 ADD MSTORE POP PUSH1 0x80 PUSH2 0x4626 DUP5 DUP3 DUP6 ADD PUSH2 0x4DA9 JUMP JUMPDEST PUSH1 0x80 DUP4 ADD MSTORE POP PUSH1 0xA0 PUSH2 0x463A DUP5 DUP3 DUP6 ADD PUSH2 0x4DA9 JUMP JUMPDEST PUSH1 0xA0 DUP4 ADD MSTORE POP PUSH1 0xC0 DUP3 ADD MLOAD PUSH8 0xFFFFFFFFFFFFFFFF DUP2 GT ISZERO PUSH2 0x465E JUMPI PUSH2 0x465D PUSH2 0x67F3 JUMP JUMPDEST JUMPDEST PUSH2 0x466A DUP5 DUP3 DUP6 ADD PUSH2 0x4470 JUMP JUMPDEST PUSH1 0xC0 DUP4 ADD MSTORE POP SWAP3 SWAP2 POP POP JUMP JUMPDEST PUSH1 0x0 PUSH2 0x1A0 DUP3 DUP5 SUB SLT ISZERO PUSH2 0x468D JUMPI PUSH2 0x468C PUSH2 0x67EE JUMP JUMPDEST JUMPDEST PUSH2 0x4698 PUSH2 0x1A0 PUSH2 0x6239 JUMP JUMPDEST SWAP1 POP PUSH1 0x0 PUSH2 0x46A8 DUP5 DUP3 DUP6 ADD PUSH2 0x4D94 JUMP JUMPDEST PUSH1 0x0 DUP4 ADD MSTORE POP PUSH1 0x20 DUP3 ADD CALLDATALOAD PUSH8 0xFFFFFFFFFFFFFFFF DUP2 GT ISZERO PUSH2 0x46CC JUMPI PUSH2 0x46CB PUSH2 0x67F3 JUMP JUMPDEST JUMPDEST PUSH2 0x46D8 DUP5 DUP3 DUP6 ADD PUSH2 0x4442 JUMP JUMPDEST PUSH1 0x20 DUP4 ADD MSTORE POP PUSH1 0x40 DUP3 ADD CALLDATALOAD PUSH8 0xFFFFFFFFFFFFFFFF DUP2 GT ISZERO PUSH2 0x46FC JUMPI PUSH2 0x46FB PUSH2 0x67F3 JUMP JUMPDEST JUMPDEST PUSH2 0x4708 DUP5 DUP3 DUP6 ADD PUSH2 0x4442 JUMP JUMPDEST PUSH1 0x40 DUP4 ADD MSTORE POP PUSH1 0x60 PUSH2 0x471C DUP5 DUP3 DUP6 ADD PUSH2 0x4D94 JUMP JUMPDEST PUSH1 0x60 DUP4 ADD MSTORE POP PUSH1 0x80 PUSH2 0x4730 DUP5 DUP3 DUP6 ADD PUSH2 0x4D94 JUMP JUMPDEST PUSH1 0x80 DUP4 ADD MSTORE POP PUSH1 0xA0 PUSH2 0x4744 DUP5 DUP3 DUP6 ADD PUSH2 0x4D94 JUMP JUMPDEST PUSH1 0xA0 DUP4 ADD MSTORE POP PUSH1 0xC0 DUP3 ADD CALLDATALOAD PUSH8 0xFFFFFFFFFFFFFFFF DUP2 GT ISZERO PUSH2 0x4768 JUMPI PUSH2 0x4767 PUSH2 0x67F3 JUMP JUMPDEST JUMPDEST PUSH2 0x4774 DUP5 DUP3 DUP6 ADD PUSH2 0x4368 JUMP JUMPDEST PUSH1 0xC0 DUP4 ADD MSTORE POP PUSH1 0xE0 PUSH2 0x4788 DUP5 DUP3 DUP6 ADD PUSH2 0x4D94 JUMP JUMPDEST PUSH1 0xE0 DUP4 ADD MSTORE POP PUSH2 0x100 PUSH2 0x479D DUP5 DUP3 DUP6 ADD PUSH2 0x4D94 JUMP JUMPDEST PUSH2 0x100 DUP4 ADD MSTORE POP PUSH2 0x120 PUSH2 0x47B3 DUP5 DUP3 DUP6 ADD PUSH2 0x43C4 JUMP JUMPDEST PUSH2 0x120 DUP4 ADD MSTORE POP PUSH2 0x140 PUSH2 0x47C9 DUP5 DUP3 DUP6 ADD PUSH2 0x43C4 JUMP JUMPDEST PUSH2 0x140 DUP4 ADD MSTORE POP PUSH2 0x160 PUSH2 0x47DF DUP5 DUP3 DUP6 ADD PUSH2 0x4D94 JUMP JUMPDEST PUSH2 0x160 DUP4 ADD MSTORE POP PUSH2 0x180 DUP3 ADD CALLDATALOAD PUSH8 0xFFFFFFFFFFFFFFFF DUP2 GT ISZERO PUSH2 0x4805 JUMPI PUSH2 0x4804 PUSH2 0x67F3 JUMP JUMPDEST JUMPDEST PUSH2 0x4811 DUP5 DUP3 DUP6 ADD PUSH2 0x430C JUMP JUMPDEST PUSH2 0x180 DUP4 ADD MSTORE POP SWAP3 SWAP2 POP POP JUMP JUMPDEST PUSH1 0x0 PUSH1 0x80 DUP3 DUP5 SUB SLT ISZERO PUSH2 0x4834 JUMPI PUSH2 0x4833 PUSH2 0x67EE JUMP JUMPDEST JUMPDEST PUSH2 0x483E PUSH1 0x80 PUSH2 0x6239 JUMP JUMPDEST SWAP1 POP PUSH1 0x0 PUSH2 0x484E DUP5 DUP3 DUP6 ADD PUSH2 0x4DA9 JUMP JUMPDEST PUSH1 0x0 DUP4 ADD MSTORE POP PUSH1 0x20 PUSH2 0x4862 DUP5 DUP3 DUP6 ADD PUSH2 0x442D JUMP JUMPDEST PUSH1 0x20 DUP4 ADD MSTORE POP PUSH1 0x40 DUP3 ADD MLOAD PUSH8 0xFFFFFFFFFFFFFFFF DUP2 GT ISZERO PUSH2 0x4886 JUMPI PUSH2 0x4885 PUSH2 0x67F3 JUMP JUMPDEST JUMPDEST PUSH2 0x4892 DUP5 DUP3 DUP6 ADD PUSH2 0x4470 JUMP JUMPDEST PUSH1 0x40 DUP4 ADD MSTORE POP PUSH1 0x60 PUSH2 0x48A6 DUP5 DUP3 DUP6 ADD PUSH2 0x4DA9 JUMP JUMPDEST PUSH1 0x60 DUP4 ADD MSTORE POP SWAP3 SWAP2 POP POP JUMP JUMPDEST PUSH1 0x0 PUSH2 0x300 DUP3 DUP5 SUB SLT ISZERO PUSH2 0x48C9 JUMPI PUSH2 0x48C8 PUSH2 0x67EE JUMP JUMPDEST JUMPDEST PUSH2 0x48D4 PUSH2 0x300 PUSH2 0x6239 JUMP JUMPDEST SWAP1 POP PUSH1 0x0 PUSH2 0x48E4 DUP5 DUP3 DUP6 ADD PUSH2 0x426D JUMP JUMPDEST PUSH1 0x0 DUP4 ADD MSTORE POP PUSH1 0x20 PUSH2 0x48F8 DUP5 DUP3 DUP6 ADD PUSH2 0x4DA9 JUMP JUMPDEST PUSH1 0x20 DUP4 ADD MSTORE POP PUSH1 0x40 DUP3 ADD MLOAD PUSH8 0xFFFFFFFFFFFFFFFF DUP2 GT ISZERO PUSH2 0x491C JUMPI PUSH2 0x491B PUSH2 0x67F3 JUMP JUMPDEST JUMPDEST PUSH2 0x4928 DUP5 DUP3 DUP6 ADD PUSH2 0x4470 JUMP JUMPDEST PUSH1 0x40 DUP4 ADD MSTORE POP PUSH1 0x60 DUP3 ADD MLOAD PUSH8 0xFFFFFFFFFFFFFFFF DUP2 GT ISZERO PUSH2 0x494C JUMPI PUSH2 0x494B PUSH2 0x67F3 JUMP JUMPDEST JUMPDEST PUSH2 0x4958 DUP5 DUP3 DUP6 ADD PUSH2 0x4470 JUMP JUMPDEST PUSH1 0x60 DUP4 ADD MSTORE POP PUSH1 0x80 PUSH2 0x496C DUP5 DUP3 DUP6 ADD PUSH2 0x4DA9 JUMP JUMPDEST PUSH1 0x80 DUP4 ADD MSTORE POP PUSH1 0xA0 PUSH2 0x4980 DUP5 DUP3 DUP6 ADD PUSH2 0x4DA9 JUMP JUMPDEST PUSH1 0xA0 DUP4 ADD MSTORE POP PUSH1 0xC0 PUSH2 0x4994 DUP5 DUP3 DUP6 ADD PUSH2 0x4DA9 JUMP JUMPDEST PUSH1 0xC0 DUP4 ADD MSTORE POP PUSH1 0xE0 DUP3 ADD MLOAD PUSH8 0xFFFFFFFFFFFFFFFF DUP2 GT ISZERO PUSH2 0x49B8 JUMPI PUSH2 0x49B7 PUSH2 0x67F3 JUMP JUMPDEST JUMPDEST PUSH2 0x49C4 DUP5 DUP3 DUP6 ADD PUSH2 0x4396 JUMP JUMPDEST PUSH1 0xE0 DUP4 ADD MSTORE POP PUSH2 0x100 PUSH2 0x49D9 DUP5 DUP3 DUP6 ADD PUSH2 0x4DA9 JUMP JUMPDEST PUSH2 0x100 DUP4 ADD MSTORE POP PUSH2 0x120 PUSH2 0x49EF DUP5 DUP3 DUP6 ADD PUSH2 0x4DA9 JUMP JUMPDEST PUSH2 0x120 DUP4 ADD MSTORE POP PUSH2 0x140 PUSH2 0x4A05 DUP5 DUP3 DUP6 ADD PUSH2 0x43D9 JUMP JUMPDEST PUSH2 0x140 DUP4 ADD MSTORE POP PUSH2 0x160 PUSH2 0x4A1B DUP5 DUP3 DUP6 ADD PUSH2 0x43D9 JUMP JUMPDEST PUSH2 0x160 DUP4 ADD MSTORE POP PUSH2 0x180 PUSH2 0x4A31 DUP5 DUP3 DUP6 ADD PUSH2 0x4DA9 JUMP JUMPDEST PUSH2 0x180 DUP4 ADD MSTORE POP PUSH2 0x1A0 DUP3 ADD MLOAD PUSH8 0xFFFFFFFFFFFFFFFF DUP2 GT ISZERO PUSH2 0x4A57 JUMPI PUSH2 0x4A56 PUSH2 0x67F3 JUMP JUMPDEST JUMPDEST PUSH2 0x4A63 DUP5 DUP3 DUP6 ADD PUSH2 0x42B0 JUMP JUMPDEST PUSH2 0x1A0 DUP4 ADD MSTORE POP PUSH2 0x1C0 DUP3 ADD MLOAD PUSH8 0xFFFFFFFFFFFFFFFF DUP2 GT ISZERO PUSH2 0x4A89 JUMPI PUSH2 0x4A88 PUSH2 0x67F3 JUMP JUMPDEST JUMPDEST PUSH2 0x4A95 DUP5 DUP3 DUP6 ADD PUSH2 0x433A JUMP JUMPDEST PUSH2 0x1C0 DUP4 ADD MSTORE POP PUSH2 0x1E0 DUP3 ADD MLOAD PUSH8 0xFFFFFFFFFFFFFFFF DUP2 GT ISZERO PUSH2 0x4ABB JUMPI PUSH2 0x4ABA PUSH2 0x67F3 JUMP JUMPDEST JUMPDEST PUSH2 0x4AC7 DUP5 DUP3 DUP6 ADD PUSH2 0x42DE JUMP JUMPDEST PUSH2 0x1E0 DUP4 ADD MSTORE POP PUSH2 0x200 DUP3 ADD MLOAD PUSH8 0xFFFFFFFFFFFFFFFF DUP2 GT ISZERO PUSH2 0x4AED JUMPI PUSH2 0x4AEC PUSH2 0x67F3 JUMP JUMPDEST JUMPDEST PUSH2 0x4AF9 DUP5 DUP3 DUP6 ADD PUSH2 0x42DE JUMP JUMPDEST PUSH2 0x200 DUP4 ADD MSTORE POP PUSH2 0x220 PUSH2 0x4B0F DUP5 DUP3 DUP6 ADD PUSH2 0x4DA9 JUMP JUMPDEST PUSH2 0x220 DUP4 ADD MSTORE POP PUSH2 0x240 PUSH2 0x4B25 DUP5 DUP3 DUP6 ADD PUSH2 0x4DA9 JUMP JUMPDEST PUSH2 0x240 DUP4 ADD MSTORE POP PUSH2 0x260 PUSH2 0x4B3B DUP5 DUP3 DUP6 ADD PUSH2 0x4DA9 JUMP JUMPDEST PUSH2 0x260 DUP4 ADD MSTORE POP PUSH2 0x280 PUSH2 0x4B51 DUP5 DUP3 DUP6 ADD PUSH2 0x4DA9 JUMP JUMPDEST PUSH2 0x280 DUP4 ADD MSTORE POP PUSH2 0x2A0 PUSH2 0x4B67 DUP5 DUP3 DUP6 ADD PUSH2 0x43D9 JUMP JUMPDEST PUSH2 0x2A0 DUP4 ADD MSTORE POP PUSH2 0x2C0 PUSH2 0x4B7D DUP5 DUP3 DUP6 ADD PUSH2 0x43D9 JUMP JUMPDEST PUSH2 0x2C0 DUP4 ADD MSTORE POP PUSH2 0x2E0 PUSH2 0x4B93 DUP5 DUP3 DUP6 ADD PUSH2 0x4418 JUMP JUMPDEST PUSH2 0x2E0 DUP4 ADD MSTORE POP SWAP3 SWAP2 POP POP JUMP JUMPDEST PUSH1 0x0 PUSH1 0x40 DUP3 DUP5 SUB SLT ISZERO PUSH2 0x4BB6 JUMPI PUSH2 0x4BB5 PUSH2 0x67EE JUMP JUMPDEST JUMPDEST PUSH2 0x4BC0 PUSH1 0x40 PUSH2 0x6239 JUMP JUMPDEST SWAP1 POP PUSH1 0x0 PUSH2 0x4BD0 DUP5 DUP3 DUP6 ADD PUSH2 0x426D JUMP JUMPDEST PUSH1 0x0 DUP4 ADD MSTORE POP PUSH1 0x20 DUP3 ADD MLOAD PUSH8 0xFFFFFFFFFFFFFFFF DUP2 GT ISZERO PUSH2 0x4BF4 JUMPI PUSH2 0x4BF3 PUSH2 0x67F3 JUMP JUMPDEST JUMPDEST PUSH2 0x4C00 DUP5 DUP3 DUP6 ADD PUSH2 0x42B0 JUMP JUMPDEST PUSH1 0x20 DUP4 ADD MSTORE POP SWAP3 SWAP2 POP POP JUMP JUMPDEST PUSH1 0x0 PUSH1 0xA0 DUP3 DUP5 SUB SLT ISZERO PUSH2 0x4C22 JUMPI PUSH2 0x4C21 PUSH2 0x67EE JUMP JUMPDEST JUMPDEST PUSH2 0x4C2C PUSH1 0xA0 PUSH2 0x6239 JUMP JUMPDEST SWAP1 POP PUSH1 0x0 DUP3 ADD CALLDATALOAD PUSH8 0xFFFFFFFFFFFFFFFF DUP2 GT ISZERO PUSH2 0x4C4C JUMPI PUSH2 0x4C4B PUSH2 0x67F3 JUMP JUMPDEST JUMPDEST PUSH2 0x4C58 DUP5 DUP3 DUP6 ADD PUSH2 0x449E JUMP JUMPDEST PUSH1 0x0 DUP4 ADD MSTORE POP PUSH1 0x20 PUSH2 0x4C6C DUP5 DUP3 DUP6 ADD PUSH2 0x4D94 JUMP JUMPDEST PUSH1 0x20 DUP4 ADD MSTORE POP PUSH1 0x40 DUP3 ADD CALLDATALOAD PUSH8 0xFFFFFFFFFFFFFFFF DUP2 GT ISZERO PUSH2 0x4C90 JUMPI PUSH2 0x4C8F PUSH2 0x67F3 JUMP JUMPDEST JUMPDEST PUSH2 0x4C9C DUP5 DUP3 DUP6 ADD PUSH2 0x4442 JUMP JUMPDEST PUSH1 0x40 DUP4 ADD MSTORE POP PUSH1 0x60 PUSH2 0x4CB0 DUP5 DUP3 DUP6 ADD PUSH2 0x43EE JUMP JUMPDEST PUSH1 0x60 DUP4 ADD MSTORE POP PUSH1 0x80 PUSH2 0x4CC4 DUP5 DUP3 DUP6 ADD PUSH2 0x4D94 JUMP JUMPDEST PUSH1 0x80 DUP4 ADD MSTORE POP SWAP3 SWAP2 POP POP JUMP JUMPDEST PUSH1 0x0 PUSH1 0xA0 DUP3 DUP5 SUB SLT ISZERO PUSH2 0x4CE6 JUMPI PUSH2 0x4CE5 PUSH2 0x67EE JUMP JUMPDEST JUMPDEST PUSH2 0x4CF0 PUSH1 0xA0 PUSH2 0x6239 JUMP JUMPDEST SWAP1 POP PUSH1 0x0 DUP3 ADD MLOAD PUSH8 0xFFFFFFFFFFFFFFFF DUP2 GT ISZERO PUSH2 0x4D10 JUMPI PUSH2 0x4D0F PUSH2 0x67F3 JUMP JUMPDEST JUMPDEST PUSH2 0x4D1C DUP5 DUP3 DUP6 ADD PUSH2 0x458A JUMP JUMPDEST PUSH1 0x0 DUP4 ADD MSTORE POP PUSH1 0x20 PUSH2 0x4D30 DUP5 DUP3 DUP6 ADD PUSH2 0x4DA9 JUMP JUMPDEST PUSH1 0x20 DUP4 ADD MSTORE POP PUSH1 0x40 DUP3 ADD MLOAD PUSH8 0xFFFFFFFFFFFFFFFF DUP2 GT ISZERO PUSH2 0x4D54 JUMPI PUSH2 0x4D53 PUSH2 0x67F3 JUMP JUMPDEST JUMPDEST PUSH2 0x4D60 DUP5 DUP3 DUP6 ADD PUSH2 0x4470 JUMP JUMPDEST PUSH1 0x40 DUP4 ADD MSTORE POP PUSH1 0x60 PUSH2 0x4D74 DUP5 DUP3 DUP6 ADD PUSH2 0x4403 JUMP JUMPDEST PUSH1 0x60 DUP4 ADD MSTORE POP PUSH1 0x80 PUSH2 0x4D88 DUP5 DUP3 DUP6 ADD PUSH2 0x4DA9 JUMP JUMPDEST PUSH1 0x80 DUP4 ADD MSTORE POP SWAP3 SWAP2 POP POP JUMP JUMPDEST PUSH1 0x0 DUP2 CALLDATALOAD SWAP1 POP PUSH2 0x4DA3 DUP2 PUSH2 0x6A77 JUMP JUMPDEST SWAP3 SWAP2 POP POP JUMP JUMPDEST PUSH1 0x0 DUP2 MLOAD SWAP1 POP PUSH2 0x4DB8 DUP2 PUSH2 0x6A77 JUMP JUMPDEST SWAP3 SWAP2 POP POP JUMP JUMPDEST PUSH1 0x0 PUSH1 0x20 DUP3 DUP5 SUB SLT ISZERO PUSH2 0x4DD4 JUMPI PUSH2 0x4DD3 PUSH2 0x6807 JUMP JUMPDEST JUMPDEST PUSH1 0x0 PUSH2 0x4DE2 DUP5 DUP3 DUP6 ADD PUSH2 0x4258 JUMP JUMPDEST SWAP2 POP POP SWAP3 SWAP2 POP POP JUMP JUMPDEST PUSH1 0x0 PUSH1 0x20 DUP3 DUP5 SUB SLT ISZERO PUSH2 0x4E01 JUMPI PUSH2 0x4E00 PUSH2 0x6807 JUMP JUMPDEST JUMPDEST PUSH1 0x0 PUSH2 0x4E0F DUP5 DUP3 DUP6 ADD PUSH2 0x426D JUMP JUMPDEST SWAP2 POP POP SWAP3 SWAP2 POP POP JUMP JUMPDEST PUSH1 0x0 PUSH1 0x20 DUP3 DUP5 SUB SLT ISZERO PUSH2 0x4E2E JUMPI PUSH2 0x4E2D PUSH2 0x6807 JUMP JUMPDEST JUMPDEST PUSH1 0x0 DUP3 ADD MLOAD PUSH8 0xFFFFFFFFFFFFFFFF DUP2 GT ISZERO PUSH2 0x4E4C JUMPI PUSH2 0x4E4B PUSH2 0x6802 JUMP JUMPDEST JUMPDEST PUSH2 0x4E58 DUP5 DUP3 DUP6 ADD PUSH2 0x4282 JUMP JUMPDEST SWAP2 POP POP SWAP3 SWAP2 POP POP JUMP JUMPDEST PUSH1 0x0 PUSH1 0x20 DUP3 DUP5 SUB SLT ISZERO PUSH2 0x4E77 JUMPI PUSH2 0x4E76 PUSH2 0x6807 JUMP JUMPDEST JUMPDEST PUSH1 0x0 DUP3 ADD MLOAD PUSH8 0xFFFFFFFFFFFFFFFF DUP2 GT ISZERO PUSH2 0x4E95 JUMPI PUSH2 0x4E94 PUSH2 0x6802 JUMP JUMPDEST JUMPDEST PUSH2 0x4EA1 DUP5 DUP3 DUP6 ADD PUSH2 0x433A JUMP JUMPDEST SWAP2 POP POP SWAP3 SWAP2 POP POP JUMP JUMPDEST PUSH1 0x0 DUP1 PUSH1 0x40 DUP4 DUP6 SUB SLT ISZERO PUSH2 0x4EC1 JUMPI PUSH2 0x4EC0 PUSH2 0x6807 JUMP JUMPDEST JUMPDEST PUSH1 0x0 DUP4 ADD MLOAD PUSH8 0xFFFFFFFFFFFFFFFF DUP2 GT ISZERO PUSH2 0x4EDF JUMPI PUSH2 0x4EDE PUSH2 0x6802 JUMP JUMPDEST JUMPDEST PUSH2 0x4EEB DUP6 DUP3 DUP7 ADD PUSH2 0x4396 JUMP JUMPDEST SWAP3 POP POP PUSH1 0x20 PUSH2 0x4EFC DUP6 DUP3 DUP7 ADD PUSH2 0x4DA9 JUMP JUMPDEST SWAP2 POP POP SWAP3 POP SWAP3 SWAP1 POP JUMP JUMPDEST PUSH1 0x0 PUSH1 0x20 DUP3 DUP5 SUB SLT ISZERO PUSH2 0x4F1C JUMPI PUSH2 0x4F1B PUSH2 0x6807 JUMP JUMPDEST JUMPDEST PUSH1 0x0 PUSH2 0x4F2A DUP5 DUP3 DUP6 ADD PUSH2 0x43D9 JUMP JUMPDEST SWAP2 POP POP SWAP3 SWAP2 POP POP JUMP JUMPDEST PUSH1 0x0 PUSH1 0x20 DUP3 DUP5 SUB SLT ISZERO PUSH2 0x4F49 JUMPI PUSH2 0x4F48 PUSH2 0x6807 JUMP JUMPDEST JUMPDEST PUSH1 0x0 DUP3 ADD CALLDATALOAD PUSH8 0xFFFFFFFFFFFFFFFF DUP2 GT ISZERO PUSH2 0x4F67 JUMPI PUSH2 0x4F66 PUSH2 0x6802 JUMP JUMPDEST JUMPDEST PUSH2 0x4F73 DUP5 DUP3 DUP6 ADD PUSH2 0x4676 JUMP JUMPDEST SWAP2 POP POP SWAP3 SWAP2 POP POP JUMP JUMPDEST PUSH1 0x0 PUSH1 0x20 DUP3 DUP5 SUB SLT ISZERO PUSH2 0x4F92 JUMPI PUSH2 0x4F91 PUSH2 0x6807 JUMP JUMPDEST JUMPDEST PUSH1 0x0 DUP3 ADD MLOAD PUSH8 0xFFFFFFFFFFFFFFFF DUP2 GT ISZERO PUSH2 0x4FB0 JUMPI PUSH2 0x4FAF PUSH2 0x6802 JUMP JUMPDEST JUMPDEST PUSH2 0x4FBC DUP5 DUP3 DUP6 ADD PUSH2 0x48B2 JUMP JUMPDEST SWAP2 POP POP SWAP3 SWAP2 POP POP JUMP JUMPDEST PUSH1 0x0 PUSH1 0x20 DUP3 DUP5 SUB SLT ISZERO PUSH2 0x4FDB JUMPI PUSH2 0x4FDA PUSH2 0x6807 JUMP JUMPDEST JUMPDEST PUSH1 0x0 PUSH2 0x4FE9 DUP5 DUP3 DUP6 ADD PUSH2 0x4D94 JUMP JUMPDEST SWAP2 POP POP SWAP3 SWAP2 POP POP JUMP JUMPDEST PUSH1 0x0 PUSH1 0x20 DUP3 DUP5 SUB SLT ISZERO PUSH2 0x5008 JUMPI PUSH2 0x5007 PUSH2 0x6807 JUMP JUMPDEST JUMPDEST PUSH1 0x0 PUSH2 0x5016 DUP5 DUP3 DUP6 ADD PUSH2 0x4DA9 JUMP JUMPDEST SWAP2 POP POP SWAP3 SWAP2 POP POP JUMP JUMPDEST PUSH1 0x0 DUP1 PUSH1 0x40 DUP4 DUP6 SUB SLT ISZERO PUSH2 0x5036 JUMPI PUSH2 0x5035 PUSH2 0x6807 JUMP JUMPDEST JUMPDEST PUSH1 0x0 PUSH2 0x5044 DUP6 DUP3 DUP7 ADD PUSH2 0x4D94 JUMP JUMPDEST SWAP3 POP POP PUSH1 0x20 PUSH2 0x5055 DUP6 DUP3 DUP7 ADD PUSH2 0x4258 JUMP JUMPDEST SWAP2 POP POP SWAP3 POP SWAP3 SWAP1 POP JUMP JUMPDEST PUSH1 0x0 DUP1 PUSH1 0x0 DUP1 PUSH1 0x80 DUP6 DUP8 SUB SLT ISZERO PUSH2 0x5079 JUMPI PUSH2 0x5078 PUSH2 0x6807 JUMP JUMPDEST JUMPDEST PUSH1 0x0 PUSH2 0x5087 DUP8 DUP3 DUP9 ADD PUSH2 0x4D94 JUMP JUMPDEST SWAP5 POP POP PUSH1 0x20 PUSH2 0x5098 DUP8 DUP3 DUP9 ADD PUSH2 0x4258 JUMP JUMPDEST SWAP4 POP POP PUSH1 0x40 PUSH2 0x50A9 DUP8 DUP3 DUP9 ADD PUSH2 0x4D94 JUMP JUMPDEST SWAP3 POP POP PUSH1 0x60 PUSH2 0x50BA DUP8 DUP3 DUP9 ADD PUSH2 0x43C4 JUMP JUMPDEST SWAP2 POP POP SWAP3 SWAP6 SWAP2 SWAP5 POP SWAP3 POP JUMP JUMPDEST PUSH1 0x0 DUP1 PUSH1 0x0 DUP1 PUSH1 0x0 PUSH1 0xA0 DUP7 DUP9 SUB SLT ISZERO PUSH2 0x50E2 JUMPI PUSH2 0x50E1 PUSH2 0x6807 JUMP JUMPDEST JUMPDEST PUSH1 0x0 PUSH2 0x50F0 DUP9 DUP3 DUP10 ADD PUSH2 0x4D94 JUMP JUMPDEST SWAP6 POP POP PUSH1 0x20 PUSH2 0x5101 DUP9 DUP3 DUP10 ADD PUSH2 0x4258 JUMP JUMPDEST SWAP5 POP POP PUSH1 0x40 PUSH2 0x5112 DUP9 DUP3 DUP10 ADD PUSH2 0x4D94 JUMP JUMPDEST SWAP4 POP POP PUSH1 0x60 PUSH2 0x5123 DUP9 DUP3 DUP10 ADD PUSH2 0x43C4 JUMP JUMPDEST SWAP3 POP POP PUSH1 0x80 DUP7 ADD CALLDATALOAD PUSH8 0xFFFFFFFFFFFFFFFF DUP2 GT ISZERO PUSH2 0x5144 JUMPI PUSH2 0x5143 PUSH2 0x6802 JUMP JUMPDEST JUMPDEST PUSH2 0x5150 DUP9 DUP3 DUP10 ADD PUSH2 0x4442 JUMP JUMPDEST SWAP2 POP POP SWAP3 SWAP6 POP SWAP3 SWAP6 SWAP1 SWAP4 POP JUMP JUMPDEST PUSH1 0x0 DUP1 PUSH1 0x40 DUP4 DUP6 SUB SLT ISZERO PUSH2 0x5174 JUMPI PUSH2 0x5173 PUSH2 0x6807 JUMP JUMPDEST JUMPDEST PUSH1 0x0 PUSH2 0x5182 DUP6 DUP3 DUP7 ADD PUSH2 0x4D94 JUMP JUMPDEST SWAP3 POP POP PUSH1 0x20 DUP4 ADD CALLDATALOAD PUSH8 0xFFFFFFFFFFFFFFFF DUP2 GT ISZERO PUSH2 0x51A3 JUMPI PUSH2 0x51A2 PUSH2 0x6802 JUMP JUMPDEST JUMPDEST PUSH2 0x51AF DUP6 DUP3 DUP7 ADD PUSH2 0x4368 JUMP JUMPDEST SWAP2 POP POP SWAP3 POP SWAP3 SWAP1 POP JUMP JUMPDEST PUSH1 0x0 DUP1 PUSH1 0x40 DUP4 DUP6 SUB SLT ISZERO PUSH2 0x51D0 JUMPI PUSH2 0x51CF PUSH2 0x6807 JUMP JUMPDEST JUMPDEST PUSH1 0x0 PUSH2 0x51DE DUP6 DUP3 DUP7 ADD PUSH2 0x4D94 JUMP JUMPDEST SWAP3 POP POP PUSH1 0x20 DUP4 ADD CALLDATALOAD PUSH8 0xFFFFFFFFFFFFFFFF DUP2 GT ISZERO PUSH2 0x51FF JUMPI PUSH2 0x51FE PUSH2 0x6802 JUMP JUMPDEST JUMPDEST PUSH2 0x520B DUP6 DUP3 DUP7 ADD PUSH2 0x4676 JUMP JUMPDEST SWAP2 POP POP SWAP3 POP SWAP3 SWAP1 POP JUMP JUMPDEST PUSH1 0x0 DUP1 PUSH1 0x0 PUSH1 0x60 DUP5 DUP7 SUB SLT ISZERO PUSH2 0x522E JUMPI PUSH2 0x522D PUSH2 0x6807 JUMP JUMPDEST JUMPDEST PUSH1 0x0 PUSH2 0x523C DUP7 DUP3 DUP8 ADD PUSH2 0x4D94 JUMP JUMPDEST SWAP4 POP POP PUSH1 0x20 PUSH2 0x524D DUP7 DUP3 DUP8 ADD PUSH2 0x4D94 JUMP JUMPDEST SWAP3 POP POP PUSH1 0x40 DUP5 ADD CALLDATALOAD PUSH8 0xFFFFFFFFFFFFFFFF DUP2 GT ISZERO PUSH2 0x526E JUMPI PUSH2 0x526D PUSH2 0x6802 JUMP JUMPDEST JUMPDEST PUSH2 0x527A DUP7 DUP3 DUP8 ADD PUSH2 0x4442 JUMP JUMPDEST SWAP2 POP POP SWAP3 POP SWAP3 POP SWAP3 JUMP JUMPDEST PUSH1 0x0 PUSH2 0x5290 DUP4 DUP4 PUSH2 0x591B JUMP JUMPDEST SWAP1 POP SWAP3 SWAP2 POP POP JUMP JUMPDEST PUSH1 0x0 PUSH2 0x52A4 DUP4 DUP4 PUSH2 0x5BA8 JUMP JUMPDEST SWAP1 POP SWAP3 SWAP2 POP POP JUMP JUMPDEST PUSH1 0x0 PUSH2 0x52B8 DUP4 DUP4 PUSH2 0x5BE5 JUMP JUMPDEST SWAP1 POP SWAP3 SWAP2 POP POP JUMP JUMPDEST PUSH1 0x0 PUSH2 0x52CC DUP4 DUP4 PUSH2 0x5C62 JUMP JUMPDEST PUSH1 0x20 DUP4 ADD SWAP1 POP SWAP3 SWAP2 POP POP JUMP JUMPDEST PUSH2 0x52E1 DUP2 PUSH2 0x6579 JUMP JUMPDEST DUP3 MSTORE POP POP JUMP JUMPDEST PUSH2 0x52F0 DUP2 PUSH2 0x6579 JUMP JUMPDEST DUP3 MSTORE POP POP JUMP JUMPDEST PUSH1 0x0 PUSH2 0x5301 DUP3 PUSH2 0x63AB JUMP JUMPDEST PUSH2 0x530B DUP2 DUP6 PUSH2 0x6416 JUMP JUMPDEST SWAP4 POP DUP4 PUSH1 0x20 DUP3 MUL DUP6 ADD PUSH2 0x531D DUP6 PUSH2 0x636B JUMP JUMPDEST DUP1 PUSH1 0x0 JUMPDEST DUP6 DUP2 LT ISZERO PUSH2 0x5359 JUMPI DUP5 DUP5 SUB DUP10 MSTORE DUP2 MLOAD PUSH2 0x533A DUP6 DUP3 PUSH2 0x5284 JUMP JUMPDEST SWAP5 POP PUSH2 0x5345 DUP4 PUSH2 0x63E2 JUMP JUMPDEST SWAP3 POP PUSH1 0x20 DUP11 ADD SWAP10 POP POP PUSH1 0x1 DUP2 ADD SWAP1 POP PUSH2 0x5321 JUMP JUMPDEST POP DUP3 SWAP8 POP DUP8 SWAP6 POP POP POP POP POP POP SWAP3 SWAP2 POP POP JUMP JUMPDEST PUSH1 0x0 PUSH2 0x5376 DUP3 PUSH2 0x63B6 JUMP JUMPDEST PUSH2 0x5380 DUP2 DUP6 PUSH2 0x6427 JUMP JUMPDEST SWAP4 POP DUP4 PUSH1 0x20 DUP3 MUL DUP6 ADD PUSH2 0x5392 DUP6 PUSH2 0x637B JUMP JUMPDEST DUP1 PUSH1 0x0 JUMPDEST DUP6 DUP2 LT ISZERO PUSH2 0x53CE JUMPI DUP5 DUP5 SUB DUP10 MSTORE DUP2 MLOAD PUSH2 0x53AF DUP6 DUP3 PUSH2 0x5298 JUMP JUMPDEST SWAP5 POP PUSH2 0x53BA DUP4 PUSH2 0x63EF JUMP JUMPDEST SWAP3 POP PUSH1 0x20 DUP11 ADD SWAP10 POP POP PUSH1 0x1 DUP2 ADD SWAP1 POP PUSH2 0x5396 JUMP JUMPDEST POP DUP3 SWAP8 POP DUP8 SWAP6 POP POP POP POP POP POP SWAP3 SWAP2 POP POP JUMP JUMPDEST PUSH1 0x0 PUSH2 0x53EB DUP3 PUSH2 0x63C1 JUMP JUMPDEST PUSH2 0x53F5 DUP2 DUP6 PUSH2 0x6438 JUMP JUMPDEST SWAP4 POP DUP4 PUSH1 0x20 DUP3 MUL DUP6 ADD PUSH2 0x5407 DUP6 PUSH2 0x638B JUMP JUMPDEST DUP1 PUSH1 0x0 JUMPDEST DUP6 DUP2 LT ISZERO PUSH2 0x5443 JUMPI DUP5 DUP5 SUB DUP10 MSTORE DUP2 MLOAD PUSH2 0x5424 DUP6 DUP3 PUSH2 0x52AC JUMP JUMPDEST SWAP5 POP PUSH2 0x542F DUP4 PUSH2 0x63FC JUMP JUMPDEST SWAP3 POP PUSH1 0x20 DUP11 ADD SWAP10 POP POP PUSH1 0x1 DUP2 ADD SWAP1 POP PUSH2 0x540B JUMP JUMPDEST POP DUP3 SWAP8 POP DUP8 SWAP6 POP POP POP POP POP POP SWAP3 SWAP2 POP POP JUMP JUMPDEST PUSH1 0x0 PUSH2 0x5460 DUP3 PUSH2 0x63CC JUMP JUMPDEST PUSH2 0x546A DUP2 DUP6 PUSH2 0x6449 JUMP JUMPDEST SWAP4 POP PUSH2 0x5475 DUP4 PUSH2 0x639B JUMP JUMPDEST DUP1 PUSH1 0x0 JUMPDEST DUP4 DUP2 LT ISZERO PUSH2 0x54A6 JUMPI DUP2 MLOAD PUSH2 0x548D DUP9 DUP3 PUSH2 0x52C0 JUMP JUMPDEST SWAP8 POP PUSH2 0x5498 DUP4 PUSH2 0x6409 JUMP JUMPDEST SWAP3 POP POP PUSH1 0x1 DUP2 ADD SWAP1 POP PUSH2 0x5479 JUMP JUMPDEST POP DUP6 SWAP4 POP POP POP POP SWAP3 SWAP2 POP POP JUMP JUMPDEST PUSH1 0x0 PUSH2 0x54BE DUP3 PUSH2 0x63CC JUMP JUMPDEST PUSH2 0x54C8 DUP2 DUP6 PUSH2 0x645A JUMP JUMPDEST SWAP4 POP PUSH2 0x54D3 DUP4 PUSH2 0x639B JUMP JUMPDEST DUP1 PUSH1 0x0 JUMPDEST DUP4 DUP2 LT ISZERO PUSH2 0x5504 JUMPI DUP2 MLOAD PUSH2 0x54EB DUP9 DUP3 PUSH2 0x52C0 JUMP JUMPDEST SWAP8 POP PUSH2 0x54F6 DUP4 PUSH2 0x6409 JUMP JUMPDEST SWAP3 POP POP PUSH1 0x1 DUP2 ADD SWAP1 POP PUSH2 0x54D7 JUMP JUMPDEST POP DUP6 SWAP4 POP POP POP POP SWAP3 SWAP2 POP POP JUMP JUMPDEST PUSH2 0x551A DUP2 PUSH2 0x658B JUMP JUMPDEST DUP3 MSTORE POP POP JUMP JUMPDEST PUSH2 0x5529 DUP2 PUSH2 0x658B JUMP JUMPDEST DUP3 MSTORE POP POP JUMP JUMPDEST PUSH2 0x5538 DUP2 PUSH2 0x65FA JUMP JUMPDEST DUP3 MSTORE POP POP JUMP JUMPDEST PUSH2 0x5547 DUP2 PUSH2 0x660C JUMP JUMPDEST DUP3 MSTORE POP POP JUMP JUMPDEST PUSH2 0x5556 DUP2 PUSH2 0x661E JUMP JUMPDEST DUP3 MSTORE POP POP JUMP JUMPDEST PUSH2 0x5565 DUP2 PUSH2 0x661E JUMP JUMPDEST DUP3 MSTORE POP POP JUMP JUMPDEST PUSH2 0x5574 DUP2 PUSH2 0x6630 JUMP JUMPDEST DUP3 MSTORE POP POP JUMP JUMPDEST PUSH1 0x0 PUSH2 0x5585 DUP3 PUSH2 0x63D7 JUMP JUMPDEST PUSH2 0x558F DUP2 DUP6 PUSH2 0x6476 JUMP JUMPDEST SWAP4 POP PUSH2 0x559F DUP2 DUP6 PUSH1 0x20 DUP7 ADD PUSH2 0x6651 JUMP JUMPDEST PUSH2 0x55A8 DUP2 PUSH2 0x680C JUMP JUMPDEST DUP5 ADD SWAP2 POP POP SWAP3 SWAP2 POP POP JUMP JUMPDEST PUSH1 0x0 PUSH2 0x55BE DUP3 PUSH2 0x63D7 JUMP JUMPDEST PUSH2 0x55C8 DUP2 DUP6 PUSH2 0x6487 JUMP JUMPDEST SWAP4 POP PUSH2 0x55D8 DUP2 DUP6 PUSH1 0x20 DUP7 ADD PUSH2 0x6651 JUMP JUMPDEST PUSH2 0x55E1 DUP2 PUSH2 0x680C JUMP JUMPDEST DUP5 ADD SWAP2 POP POP SWAP3 SWAP2 POP POP JUMP JUMPDEST PUSH1 0x0 PUSH2 0x55F9 PUSH1 0xB DUP4 PUSH2 0x6487 JUMP JUMPDEST SWAP2 POP PUSH2 0x5604 DUP3 PUSH2 0x681D JUMP JUMPDEST PUSH1 0x20 DUP3 ADD SWAP1 POP SWAP2 SWAP1 POP JUMP JUMPDEST PUSH1 0x0 PUSH2 0x561C PUSH1 0x12 DUP4 PUSH2 0x6487 JUMP JUMPDEST SWAP2 POP PUSH2 0x5627 DUP3 PUSH2 0x6846 JUMP JUMPDEST PUSH1 0x20 DUP3 ADD SWAP1 POP SWAP2 SWAP1 POP JUMP JUMPDEST PUSH1 0x0 PUSH2 0x563F PUSH1 0x26 DUP4 PUSH2 0x6487 JUMP JUMPDEST SWAP2 POP PUSH2 0x564A DUP3 PUSH2 0x686F JUMP JUMPDEST PUSH1 0x40 DUP3 ADD SWAP1 POP SWAP2 SWAP1 POP JUMP JUMPDEST PUSH1 0x0 PUSH2 0x5662 PUSH1 0x13 DUP4 PUSH2 0x6487 JUMP JUMPDEST SWAP2 POP PUSH2 0x566D DUP3 PUSH2 0x68BE JUMP JUMPDEST PUSH1 0x20 DUP3 ADD SWAP1 POP SWAP2 SWAP1 POP JUMP JUMPDEST PUSH1 0x0 PUSH2 0x5685 PUSH1 0x17 DUP4 PUSH2 0x6487 JUMP JUMPDEST SWAP2 POP PUSH2 0x5690 DUP3 PUSH2 0x68E7 JUMP JUMPDEST PUSH1 0x20 DUP3 ADD SWAP1 POP SWAP2 SWAP1 POP JUMP JUMPDEST PUSH1 0x0 PUSH2 0x56A8 PUSH1 0x2 DUP4 PUSH2 0x6487 JUMP JUMPDEST SWAP2 POP PUSH2 0x56B3 DUP3 PUSH2 0x6910 JUMP JUMPDEST PUSH1 0x20 DUP3 ADD SWAP1 POP SWAP2 SWAP1 POP JUMP JUMPDEST PUSH1 0x0 PUSH2 0x56CB PUSH1 0x20 DUP4 PUSH2 0x6487 JUMP JUMPDEST SWAP2 POP PUSH2 0x56D6 DUP3 PUSH2 0x6939 JUMP JUMPDEST PUSH1 0x20 DUP3 ADD SWAP1 POP SWAP2 SWAP1 POP JUMP JUMPDEST PUSH1 0x0 PUSH2 0x56EE PUSH1 0x1E DUP4 PUSH2 0x6487 JUMP JUMPDEST SWAP2 POP PUSH2 0x56F9 DUP3 PUSH2 0x6962 JUMP JUMPDEST PUSH1 0x20 DUP3 ADD SWAP1 POP SWAP2 SWAP1 POP JUMP JUMPDEST PUSH1 0x0 PUSH2 0x5711 PUSH1 0x0 DUP4 PUSH2 0x646B JUMP JUMPDEST SWAP2 POP PUSH2 0x571C DUP3 PUSH2 0x698B JUMP JUMPDEST PUSH1 0x0 DUP3 ADD SWAP1 POP SWAP2 SWAP1 POP JUMP JUMPDEST PUSH1 0x0 PUSH2 0x5734 PUSH1 0x26 DUP4 PUSH2 0x6487 JUMP JUMPDEST SWAP2 POP PUSH2 0x573F DUP3 PUSH2 0x698E JUMP JUMPDEST PUSH1 0x40 DUP3 ADD SWAP1 POP SWAP2 SWAP1 POP JUMP JUMPDEST PUSH1 0x0 PUSH1 0xE0 DUP4 ADD PUSH1 0x0 DUP4 ADD MLOAD DUP5 DUP3 SUB PUSH1 0x0 DUP7 ADD MSTORE PUSH2 0x5767 DUP3 DUP3 PUSH2 0x557A JUMP JUMPDEST SWAP2 POP POP PUSH1 0x20 DUP4 ADD MLOAD PUSH2 0x577C PUSH1 0x20 DUP7 ADD DUP3 PUSH2 0x5C62 JUMP JUMPDEST POP PUSH1 0x40 DUP4 ADD MLOAD PUSH2 0x578F PUSH1 0x40 DUP7 ADD DUP3 PUSH2 0x5C62 JUMP JUMPDEST POP PUSH1 0x60 DUP4 ADD MLOAD PUSH2 0x57A2 PUSH1 0x60 DUP7 ADD DUP3 PUSH2 0x5C62 JUMP JUMPDEST POP PUSH1 0x80 DUP4 ADD MLOAD PUSH2 0x57B5 PUSH1 0x80 DUP7 ADD DUP3 PUSH2 0x5C62 JUMP JUMPDEST POP PUSH1 0xA0 DUP4 ADD MLOAD PUSH2 0x57C8 PUSH1 0xA0 DUP7 ADD DUP3 PUSH2 0x5C62 JUMP JUMPDEST POP PUSH1 0xC0 DUP4 ADD MLOAD DUP5 DUP3 SUB PUSH1 0xC0 DUP7 ADD MSTORE PUSH2 0x57E0 DUP3 DUP3 PUSH2 0x557A JUMP JUMPDEST SWAP2 POP POP DUP1 SWAP2 POP POP SWAP3 SWAP2 POP POP JUMP JUMPDEST PUSH1 0x0 PUSH2 0x1A0 DUP4 ADD PUSH1 0x0 DUP4 ADD MLOAD PUSH2 0x5806 PUSH1 0x0 DUP7 ADD DUP3 PUSH2 0x5C62 JUMP JUMPDEST POP PUSH1 0x20 DUP4 ADD MLOAD DUP5 DUP3 SUB PUSH1 0x20 DUP7 ADD MSTORE PUSH2 0x581E DUP3 DUP3 PUSH2 0x557A JUMP JUMPDEST SWAP2 POP POP PUSH1 0x40 DUP4 ADD MLOAD DUP5 DUP3 SUB PUSH1 0x40 DUP7 ADD MSTORE PUSH2 0x5838 DUP3 DUP3 PUSH2 0x557A JUMP JUMPDEST SWAP2 POP POP PUSH1 0x60 DUP4 ADD MLOAD PUSH2 0x584D PUSH1 0x60 DUP7 ADD DUP3 PUSH2 0x5C62 JUMP JUMPDEST POP PUSH1 0x80 DUP4 ADD MLOAD PUSH2 0x5860 PUSH1 0x80 DUP7 ADD DUP3 PUSH2 0x5C62 JUMP JUMPDEST POP PUSH1 0xA0 DUP4 ADD MLOAD PUSH2 0x5873 PUSH1 0xA0 DUP7 ADD DUP3 PUSH2 0x5C62 JUMP JUMPDEST POP PUSH1 0xC0 DUP4 ADD MLOAD DUP5 DUP3 SUB PUSH1 0xC0 DUP7 ADD MSTORE PUSH2 0x588B DUP3 DUP3 PUSH2 0x5455 JUMP JUMPDEST SWAP2 POP POP PUSH1 0xE0 DUP4 ADD MLOAD PUSH2 0x58A0 PUSH1 0xE0 DUP7 ADD DUP3 PUSH2 0x5C62 JUMP JUMPDEST POP PUSH2 0x100 DUP4 ADD MLOAD PUSH2 0x58B5 PUSH2 0x100 DUP7 ADD DUP3 PUSH2 0x5C62 JUMP JUMPDEST POP PUSH2 0x120 DUP4 ADD MLOAD PUSH2 0x58CA PUSH2 0x120 DUP7 ADD DUP3 PUSH2 0x5511 JUMP JUMPDEST POP PUSH2 0x140 DUP4 ADD MLOAD PUSH2 0x58DF PUSH2 0x140 DUP7 ADD DUP3 PUSH2 0x5511 JUMP JUMPDEST POP PUSH2 0x160 DUP4 ADD MLOAD PUSH2 0x58F4 PUSH2 0x160 DUP7 ADD DUP3 PUSH2 0x5C62 JUMP JUMPDEST POP PUSH2 0x180 DUP4 ADD MLOAD DUP5 DUP3 SUB PUSH2 0x180 DUP7 ADD MSTORE PUSH2 0x590E DUP3 DUP3 PUSH2 0x53E0 JUMP JUMPDEST SWAP2 POP POP DUP1 SWAP2 POP POP SWAP3 SWAP2 POP POP JUMP JUMPDEST PUSH1 0x0 PUSH1 0x80 DUP4 ADD PUSH1 0x0 DUP4 ADD MLOAD PUSH2 0x5933 PUSH1 0x0 DUP7 ADD DUP3 PUSH2 0x5C62 JUMP JUMPDEST POP PUSH1 0x20 DUP4 ADD MLOAD PUSH2 0x5946 PUSH1 0x20 DUP7 ADD DUP3 PUSH2 0x554D JUMP JUMPDEST POP PUSH1 0x40 DUP4 ADD MLOAD DUP5 DUP3 SUB PUSH1 0x40 DUP7 ADD MSTORE PUSH2 0x595E DUP3 DUP3 PUSH2 0x557A JUMP JUMPDEST SWAP2 POP POP PUSH1 0x60 DUP4 ADD MLOAD PUSH2 0x5973 PUSH1 0x60 DUP7 ADD DUP3 PUSH2 0x5C62 JUMP JUMPDEST POP DUP1 SWAP2 POP POP SWAP3 SWAP2 POP POP JUMP JUMPDEST PUSH1 0x0 PUSH2 0x300 DUP4 ADD PUSH1 0x0 DUP4 ADD MLOAD PUSH2 0x5997 PUSH1 0x0 DUP7 ADD DUP3 PUSH2 0x52D8 JUMP JUMPDEST POP PUSH1 0x20 DUP4 ADD MLOAD PUSH2 0x59AA PUSH1 0x20 DUP7 ADD DUP3 PUSH2 0x5C62 JUMP JUMPDEST POP PUSH1 0x40 DUP4 ADD MLOAD DUP5 DUP3 SUB PUSH1 0x40 DUP7 ADD MSTORE PUSH2 0x59C2 DUP3 DUP3 PUSH2 0x557A JUMP JUMPDEST SWAP2 POP POP PUSH1 0x60 DUP4 ADD MLOAD DUP5 DUP3 SUB PUSH1 0x60 DUP7 ADD MSTORE PUSH2 0x59DC DUP3 DUP3 PUSH2 0x557A JUMP JUMPDEST SWAP2 POP POP PUSH1 0x80 DUP4 ADD MLOAD PUSH2 0x59F1 PUSH1 0x80 DUP7 ADD DUP3 PUSH2 0x5C62 JUMP JUMPDEST POP PUSH1 0xA0 DUP4 ADD MLOAD PUSH2 0x5A04 PUSH1 0xA0 DUP7 ADD DUP3 PUSH2 0x5C62 JUMP JUMPDEST POP PUSH1 0xC0 DUP4 ADD MLOAD PUSH2 0x5A17 PUSH1 0xC0 DUP7 ADD DUP3 PUSH2 0x5C62 JUMP JUMPDEST POP PUSH1 0xE0 DUP4 ADD MLOAD DUP5 DUP3 SUB PUSH1 0xE0 DUP7 ADD MSTORE PUSH2 0x5A2F DUP3 DUP3 PUSH2 0x5455 JUMP JUMPDEST SWAP2 POP POP PUSH2 0x100 DUP4 ADD MLOAD PUSH2 0x5A46 PUSH2 0x100 DUP7 ADD DUP3 PUSH2 0x5C62 JUMP JUMPDEST POP PUSH2 0x120 DUP4 ADD MLOAD PUSH2 0x5A5B PUSH2 0x120 DUP7 ADD DUP3 PUSH2 0x5C62 JUMP JUMPDEST POP PUSH2 0x140 DUP4 ADD MLOAD PUSH2 0x5A70 PUSH2 0x140 DUP7 ADD DUP3 PUSH2 0x5511 JUMP JUMPDEST POP PUSH2 0x160 DUP4 ADD MLOAD PUSH2 0x5A85 PUSH2 0x160 DUP7 ADD DUP3 PUSH2 0x5511 JUMP JUMPDEST POP PUSH2 0x180 DUP4 ADD MLOAD PUSH2 0x5A9A PUSH2 0x180 DUP7 ADD DUP3 PUSH2 0x5C62 JUMP JUMPDEST POP PUSH2 0x1A0 DUP4 ADD MLOAD DUP5 DUP3 SUB PUSH2 0x1A0 DUP7 ADD MSTORE PUSH2 0x5AB4 DUP3 DUP3 PUSH2 0x52F6 JUMP JUMPDEST SWAP2 POP POP PUSH2 0x1C0 DUP4 ADD MLOAD DUP5 DUP3 SUB PUSH2 0x1C0 DUP7 ADD MSTORE PUSH2 0x5AD0 DUP3 DUP3 PUSH2 0x53E0 JUMP JUMPDEST SWAP2 POP POP PUSH2 0x1E0 DUP4 ADD MLOAD DUP5 DUP3 SUB PUSH2 0x1E0 DUP7 ADD MSTORE PUSH2 0x5AEC DUP3 DUP3 PUSH2 0x536B JUMP JUMPDEST SWAP2 POP POP PUSH2 0x200 DUP4 ADD MLOAD DUP5 DUP3 SUB PUSH2 0x200 DUP7 ADD MSTORE PUSH2 0x5B08 DUP3 DUP3 PUSH2 0x536B JUMP JUMPDEST SWAP2 POP POP PUSH2 0x220 DUP4 ADD MLOAD PUSH2 0x5B1F PUSH2 0x220 DUP7 ADD DUP3 PUSH2 0x5C62 JUMP JUMPDEST POP PUSH2 0x240 DUP4 ADD MLOAD PUSH2 0x5B34 PUSH2 0x240 DUP7 ADD DUP3 PUSH2 0x5C62 JUMP JUMPDEST POP PUSH2 0x260 DUP4 ADD MLOAD PUSH2 0x5B49 PUSH2 0x260 DUP7 ADD DUP3 PUSH2 0x5C62 JUMP JUMPDEST POP PUSH2 0x280 DUP4 ADD MLOAD PUSH2 0x5B5E PUSH2 0x280 DUP7 ADD DUP3 PUSH2 0x5C62 JUMP JUMPDEST POP PUSH2 0x2A0 DUP4 ADD MLOAD PUSH2 0x5B73 PUSH2 0x2A0 DUP7 ADD DUP3 PUSH2 0x5511 JUMP JUMPDEST POP PUSH2 0x2C0 DUP4 ADD MLOAD PUSH2 0x5B88 PUSH2 0x2C0 DUP7 ADD DUP3 PUSH2 0x5511 JUMP JUMPDEST POP PUSH2 0x2E0 DUP4 ADD MLOAD PUSH2 0x5B9D PUSH2 0x2E0 DUP7 ADD DUP3 PUSH2 0x553E JUMP JUMPDEST POP DUP1 SWAP2 POP POP SWAP3 SWAP2 POP POP JUMP JUMPDEST PUSH1 0x0 PUSH1 0x40 DUP4 ADD PUSH1 0x0 DUP4 ADD MLOAD PUSH2 0x5BC0 PUSH1 0x0 DUP7 ADD DUP3 PUSH2 0x52D8 JUMP JUMPDEST POP PUSH1 0x20 DUP4 ADD MLOAD DUP5 DUP3 SUB PUSH1 0x20 DUP7 ADD MSTORE PUSH2 0x5BD8 DUP3 DUP3 PUSH2 0x52F6 JUMP JUMPDEST SWAP2 POP POP DUP1 SWAP2 POP POP SWAP3 SWAP2 POP POP JUMP JUMPDEST PUSH1 0x0 PUSH1 0xA0 DUP4 ADD PUSH1 0x0 DUP4 ADD MLOAD DUP5 DUP3 SUB PUSH1 0x0 DUP7 ADD MSTORE PUSH2 0x5C02 DUP3 DUP3 PUSH2 0x574A JUMP JUMPDEST SWAP2 POP POP PUSH1 0x20 DUP4 ADD MLOAD PUSH2 0x5C17 PUSH1 0x20 DUP7 ADD DUP3 PUSH2 0x5C62 JUMP JUMPDEST POP PUSH1 0x40 DUP4 ADD MLOAD DUP5 DUP3 SUB PUSH1 0x40 DUP7 ADD MSTORE PUSH2 0x5C2F DUP3 DUP3 PUSH2 0x557A JUMP JUMPDEST SWAP2 POP POP PUSH1 0x60 DUP4 ADD MLOAD PUSH2 0x5C44 PUSH1 0x60 DUP7 ADD DUP3 PUSH2 0x552F JUMP JUMPDEST POP PUSH1 0x80 DUP4 ADD MLOAD PUSH2 0x5C57 PUSH1 0x80 DUP7 ADD DUP3 PUSH2 0x5C62 JUMP JUMPDEST POP DUP1 SWAP2 POP POP SWAP3 SWAP2 POP POP JUMP JUMPDEST PUSH2 0x5C6B DUP2 PUSH2 0x65F0 JUMP JUMPDEST DUP3 MSTORE POP POP JUMP JUMPDEST PUSH2 0x5C7A DUP2 PUSH2 0x65F0 JUMP JUMPDEST DUP3 MSTORE POP POP JUMP JUMPDEST PUSH2 0x5C89 DUP2 PUSH2 0x65F0 JUMP JUMPDEST DUP3 MSTORE POP POP JUMP JUMPDEST PUSH1 0x0 PUSH2 0x5C9A DUP3 PUSH2 0x5704 JUMP JUMPDEST SWAP2 POP DUP2 SWAP1 POP SWAP2 SWAP1 POP JUMP JUMPDEST PUSH1 0x0 PUSH1 0x20 DUP3 ADD SWAP1 POP PUSH2 0x5CB9 PUSH1 0x0 DUP4 ADD DUP5 PUSH2 0x52E7 JUMP JUMPDEST SWAP3 SWAP2 POP POP JUMP JUMPDEST PUSH1 0x0 PUSH1 0x60 DUP3 ADD SWAP1 POP PUSH2 0x5CD4 PUSH1 0x0 DUP4 ADD DUP7 PUSH2 0x52E7 JUMP JUMPDEST PUSH2 0x5CE1 PUSH1 0x20 DUP4 ADD DUP6 PUSH2 0x52E7 JUMP JUMPDEST PUSH2 0x5CEE PUSH1 0x40 DUP4 ADD DUP5 PUSH2 0x5C71 JUMP JUMPDEST SWAP5 SWAP4 POP POP POP POP JUMP JUMPDEST PUSH1 0x0 PUSH1 0x40 DUP3 ADD SWAP1 POP PUSH2 0x5D0B PUSH1 0x0 DUP4 ADD DUP6 PUSH2 0x52E7 JUMP JUMPDEST PUSH2 0x5D18 PUSH1 0x20 DUP4 ADD DUP5 PUSH2 0x5C71 JUMP JUMPDEST SWAP4 SWAP3 POP POP POP JUMP JUMPDEST PUSH1 0x0 PUSH1 0x80 DUP3 ADD SWAP1 POP PUSH2 0x5D34 PUSH1 0x0 DUP4 ADD DUP7 PUSH2 0x52E7 JUMP JUMPDEST PUSH2 0x5D41 PUSH1 0x20 DUP4 ADD DUP6 PUSH2 0x5C71 JUMP JUMPDEST DUP2 DUP2 SUB PUSH1 0x40 DUP4 ADD MSTORE PUSH2 0x5D52 DUP2 PUSH2 0x569B JUMP JUMPDEST SWAP1 POP PUSH2 0x5D61 PUSH1 0x60 DUP4 ADD DUP5 PUSH2 0x5520 JUMP JUMPDEST SWAP5 SWAP4 POP POP POP POP JUMP JUMPDEST PUSH1 0x0 PUSH1 0x60 DUP3 ADD SWAP1 POP PUSH2 0x5D7E PUSH1 0x0 DUP4 ADD DUP7 PUSH2 0x52E7 JUMP JUMPDEST PUSH2 0x5D8B PUSH1 0x20 DUP4 ADD DUP6 PUSH2 0x5C71 JUMP JUMPDEST DUP2 DUP2 SUB PUSH1 0x40 DUP4 ADD MSTORE PUSH2 0x5D9D DUP2 DUP5 PUSH2 0x57ED JUMP JUMPDEST SWAP1 POP SWAP5 SWAP4 POP POP POP POP JUMP JUMPDEST PUSH1 0x0 PUSH1 0x20 DUP3 ADD SWAP1 POP DUP2 DUP2 SUB PUSH1 0x0 DUP4 ADD MSTORE PUSH2 0x5DC0 DUP2 PUSH2 0x55EC JUMP JUMPDEST SWAP1 POP SWAP2 SWAP1 POP JUMP JUMPDEST PUSH1 0x0 PUSH1 0x20 DUP3 ADD SWAP1 POP DUP2 DUP2 SUB PUSH1 0x0 DUP4 ADD MSTORE PUSH2 0x5DE0 DUP2 PUSH2 0x560F JUMP JUMPDEST SWAP1 POP SWAP2 SWAP1 POP JUMP JUMPDEST PUSH1 0x0 PUSH1 0x20 DUP3 ADD SWAP1 POP DUP2 DUP2 SUB PUSH1 0x0 DUP4 ADD MSTORE PUSH2 0x5E00 DUP2 PUSH2 0x5632 JUMP JUMPDEST SWAP1 POP SWAP2 SWAP1 POP JUMP JUMPDEST PUSH1 0x0 PUSH1 0x20 DUP3 ADD SWAP1 POP DUP2 DUP2 SUB PUSH1 0x0 DUP4 ADD MSTORE PUSH2 0x5E20 DUP2 PUSH2 0x5655 JUMP JUMPDEST SWAP1 POP SWAP2 SWAP1 POP JUMP JUMPDEST PUSH1 0x0 PUSH1 0x20 DUP3 ADD SWAP1 POP DUP2 DUP2 SUB PUSH1 0x0 DUP4 ADD MSTORE PUSH2 0x5E40 DUP2 PUSH2 0x5678 JUMP JUMPDEST SWAP1 POP SWAP2 SWAP1 POP JUMP JUMPDEST PUSH1 0x0 PUSH1 0x20 DUP3 ADD SWAP1 POP DUP2 DUP2 SUB PUSH1 0x0 DUP4 ADD MSTORE PUSH2 0x5E60 DUP2 PUSH2 0x56BE JUMP JUMPDEST SWAP1 POP SWAP2 SWAP1 POP JUMP JUMPDEST PUSH1 0x0 PUSH1 0x20 DUP3 ADD SWAP1 POP DUP2 DUP2 SUB PUSH1 0x0 DUP4 ADD MSTORE PUSH2 0x5E80 DUP2 PUSH2 0x56E1 JUMP JUMPDEST SWAP1 POP SWAP2 SWAP1 POP JUMP JUMPDEST PUSH1 0x0 PUSH1 0x40 DUP3 ADD SWAP1 POP DUP2 DUP2 SUB PUSH1 0x0 DUP4 ADD MSTORE PUSH2 0x5EA0 DUP2 PUSH2 0x5727 JUMP JUMPDEST SWAP1 POP PUSH2 0x5EAF PUSH1 0x20 DUP4 ADD DUP5 PUSH2 0x5C71 JUMP JUMPDEST SWAP3 SWAP2 POP POP JUMP JUMPDEST PUSH1 0x0 PUSH1 0x20 DUP3 ADD SWAP1 POP DUP2 DUP2 SUB PUSH1 0x0 DUP4 ADD MSTORE PUSH2 0x5ECF DUP2 DUP5 PUSH2 0x57ED JUMP JUMPDEST SWAP1 POP SWAP3 SWAP2 POP POP JUMP JUMPDEST PUSH1 0x0 PUSH1 0x20 DUP3 ADD SWAP1 POP DUP2 DUP2 SUB PUSH1 0x0 DUP4 ADD MSTORE PUSH2 0x5EF1 DUP2 DUP5 PUSH2 0x597E JUMP JUMPDEST SWAP1 POP SWAP3 SWAP2 POP POP JUMP JUMPDEST PUSH1 0x0 PUSH1 0x20 DUP3 ADD SWAP1 POP PUSH2 0x5F0E PUSH1 0x0 DUP4 ADD DUP5 PUSH2 0x5C80 JUMP JUMPDEST SWAP3 SWAP2 POP POP JUMP JUMPDEST PUSH1 0x0 PUSH1 0x20 DUP3 ADD SWAP1 POP PUSH2 0x5F29 PUSH1 0x0 DUP4 ADD DUP5 PUSH2 0x5C71 JUMP JUMPDEST SWAP3 SWAP2 POP POP JUMP JUMPDEST PUSH1 0x0 PUSH1 0x40 DUP3 ADD SWAP1 POP PUSH2 0x5F44 PUSH1 0x0 DUP4 ADD DUP6 PUSH2 0x5C71 JUMP JUMPDEST PUSH2 0x5F51 PUSH1 0x20 DUP4 ADD DUP5 PUSH2 0x52E7 JUMP JUMPDEST SWAP4 SWAP3 POP POP POP JUMP JUMPDEST PUSH1 0x0 PUSH1 0xA0 DUP3 ADD SWAP1 POP PUSH2 0x5F6D PUSH1 0x0 DUP4 ADD DUP9 PUSH2 0x5C71 JUMP JUMPDEST PUSH2 0x5F7A PUSH1 0x20 DUP4 ADD DUP8 PUSH2 0x52E7 JUMP JUMPDEST PUSH2 0x5F87 PUSH1 0x40 DUP4 ADD DUP7 PUSH2 0x52E7 JUMP JUMPDEST PUSH2 0x5F94 PUSH1 0x60 DUP4 ADD DUP6 PUSH2 0x5C71 JUMP JUMPDEST DUP2 DUP2 SUB PUSH1 0x80 DUP4 ADD MSTORE PUSH2 0x5FA6 DUP2 DUP5 PUSH2 0x55B3 JUMP JUMPDEST SWAP1 POP SWAP7 SWAP6 POP POP POP POP POP POP JUMP JUMPDEST PUSH1 0x0 PUSH1 0xA0 DUP3 ADD SWAP1 POP PUSH2 0x5FC7 PUSH1 0x0 DUP4 ADD DUP9 PUSH2 0x5C71 JUMP JUMPDEST PUSH2 0x5FD4 PUSH1 0x20 DUP4 ADD DUP8 PUSH2 0x52E7 JUMP JUMPDEST DUP2 DUP2 SUB PUSH1 0x40 DUP4 ADD MSTORE PUSH2 0x5FE6 DUP2 DUP7 PUSH2 0x54B3 JUMP JUMPDEST SWAP1 POP PUSH2 0x5FF5 PUSH1 0x60 DUP4 ADD DUP6 PUSH2 0x555C JUMP JUMPDEST PUSH2 0x6002 PUSH1 0x80 DUP4 ADD DUP5 PUSH2 0x5520 JUMP JUMPDEST SWAP7 SWAP6 POP POP POP POP POP POP JUMP JUMPDEST PUSH1 0x0 PUSH1 0x60 DUP3 ADD SWAP1 POP PUSH2 0x6021 PUSH1 0x0 DUP4 ADD DUP7 PUSH2 0x5C71 JUMP JUMPDEST PUSH2 0x602E PUSH1 0x20 DUP4 ADD DUP6 PUSH2 0x52E7 JUMP JUMPDEST PUSH2 0x603B PUSH1 0x40 DUP4 ADD DUP5 PUSH2 0x5520 JUMP JUMPDEST SWAP5 SWAP4 POP POP POP POP JUMP JUMPDEST PUSH1 0x0 PUSH1 0x60 DUP3 ADD SWAP1 POP PUSH2 0x6058 PUSH1 0x0 DUP4 ADD DUP7 PUSH2 0x5C71 JUMP JUMPDEST PUSH2 0x6065 PUSH1 0x20 DUP4 ADD DUP6 PUSH2 0x52E7 JUMP JUMPDEST PUSH2 0x6072 PUSH1 0x40 DUP4 ADD DUP5 PUSH2 0x5C71 JUMP JUMPDEST SWAP5 SWAP4 POP POP POP POP JUMP JUMPDEST PUSH1 0x0 PUSH1 0x80 DUP3 ADD SWAP1 POP PUSH2 0x608F PUSH1 0x0 DUP4 ADD DUP8 PUSH2 0x5C71 JUMP JUMPDEST PUSH2 0x609C PUSH1 0x20 DUP4 ADD DUP7 PUSH2 0x52E7 JUMP JUMPDEST PUSH2 0x60A9 PUSH1 0x40 DUP4 ADD DUP6 PUSH2 0x5C71 JUMP JUMPDEST PUSH2 0x60B6 PUSH1 0x60 DUP4 ADD DUP5 PUSH2 0x5520 JUMP JUMPDEST SWAP6 SWAP5 POP POP POP POP POP JUMP JUMPDEST PUSH1 0x0 PUSH1 0x80 DUP3 ADD SWAP1 POP PUSH2 0x60D4 PUSH1 0x0 DUP4 ADD DUP8 PUSH2 0x5C71 JUMP JUMPDEST PUSH2 0x60E1 PUSH1 0x20 DUP4 ADD DUP7 PUSH2 0x52E7 JUMP JUMPDEST PUSH2 0x60EE PUSH1 0x40 DUP4 ADD DUP6 PUSH2 0x5C71 JUMP JUMPDEST DUP2 DUP2 SUB PUSH1 0x60 DUP4 ADD MSTORE PUSH2 0x6100 DUP2 DUP5 PUSH2 0x55B3 JUMP JUMPDEST SWAP1 POP SWAP6 SWAP5 POP POP POP POP POP JUMP JUMPDEST PUSH1 0x0 PUSH1 0x60 DUP3 ADD SWAP1 POP PUSH2 0x6120 PUSH1 0x0 DUP4 ADD DUP7 PUSH2 0x5C71 JUMP JUMPDEST DUP2 DUP2 SUB PUSH1 0x20 DUP4 ADD MSTORE PUSH2 0x6132 DUP2 DUP6 PUSH2 0x54B3 JUMP JUMPDEST SWAP1 POP PUSH2 0x6141 PUSH1 0x40 DUP4 ADD DUP5 PUSH2 0x52E7 JUMP JUMPDEST SWAP5 SWAP4 POP POP POP POP JUMP JUMPDEST PUSH1 0x0 PUSH1 0x40 DUP3 ADD SWAP1 POP PUSH2 0x615E PUSH1 0x0 DUP4 ADD DUP6 PUSH2 0x5C71 JUMP JUMPDEST PUSH2 0x616B PUSH1 0x20 DUP4 ADD DUP5 PUSH2 0x5520 JUMP JUMPDEST SWAP4 SWAP3 POP POP POP JUMP JUMPDEST PUSH1 0x0 PUSH1 0x40 DUP3 ADD SWAP1 POP PUSH2 0x6187 PUSH1 0x0 DUP4 ADD DUP6 PUSH2 0x5C80 JUMP JUMPDEST PUSH2 0x6194 PUSH1 0x20 DUP4 ADD DUP5 PUSH2 0x556B JUMP JUMPDEST SWAP4 SWAP3 POP POP POP JUMP JUMPDEST PUSH1 0x0 PUSH1 0x40 DUP3 ADD SWAP1 POP PUSH2 0x61B0 PUSH1 0x0 DUP4 ADD DUP6 PUSH2 0x5C71 JUMP JUMPDEST DUP2 DUP2 SUB PUSH1 0x20 DUP4 ADD MSTORE PUSH2 0x61C2 DUP2 DUP5 PUSH2 0x57ED JUMP JUMPDEST SWAP1 POP SWAP4 SWAP3 POP POP POP JUMP JUMPDEST PUSH1 0x0 PUSH1 0x40 DUP3 ADD SWAP1 POP PUSH2 0x61E0 PUSH1 0x0 DUP4 ADD DUP6 PUSH2 0x5C80 JUMP JUMPDEST PUSH2 0x61ED PUSH1 0x20 DUP4 ADD DUP5 PUSH2 0x5C80 JUMP JUMPDEST SWAP4 SWAP3 POP POP POP JUMP JUMPDEST PUSH1 0x0 PUSH1 0x80 DUP3 ADD SWAP1 POP PUSH2 0x6209 PUSH1 0x0 DUP4 ADD DUP8 PUSH2 0x5C71 JUMP JUMPDEST PUSH2 0x6216 PUSH1 0x20 DUP4 ADD DUP7 PUSH2 0x5C71 JUMP JUMPDEST PUSH2 0x6223 PUSH1 0x40 DUP4 ADD DUP6 PUSH2 0x52E7 JUMP JUMPDEST PUSH2 0x6230 PUSH1 0x60 DUP4 ADD DUP5 PUSH2 0x5520 JUMP JUMPDEST SWAP6 SWAP5 POP POP POP POP POP JUMP JUMPDEST PUSH1 0x0 PUSH2 0x6243 PUSH2 0x6254 JUMP JUMPDEST SWAP1 POP PUSH2 0x624F DUP3 DUP3 PUSH2 0x6684 JUMP JUMPDEST SWAP2 SWAP1 POP JUMP JUMPDEST PUSH1 0x0 PUSH1 0x40 MLOAD SWAP1 POP SWAP1 JUMP JUMPDEST PUSH1 0x0 PUSH8 0xFFFFFFFFFFFFFFFF DUP3 GT ISZERO PUSH2 0x6279 JUMPI PUSH2 0x6278 PUSH2 0x67BA JUMP JUMPDEST JUMPDEST PUSH1 0x20 DUP3 MUL SWAP1 POP PUSH1 0x20 DUP2 ADD SWAP1 POP SWAP2 SWAP1 POP JUMP JUMPDEST PUSH1 0x0 PUSH8 0xFFFFFFFFFFFFFFFF DUP3 GT ISZERO PUSH2 0x62A5 JUMPI PUSH2 0x62A4 PUSH2 0x67BA JUMP JUMPDEST JUMPDEST PUSH1 0x20 DUP3 MUL SWAP1 POP PUSH1 0x20 DUP2 ADD SWAP1 POP SWAP2 SWAP1 POP JUMP JUMPDEST PUSH1 0x0 PUSH8 0xFFFFFFFFFFFFFFFF DUP3 GT ISZERO PUSH2 0x62D1 JUMPI PUSH2 0x62D0 PUSH2 0x67BA JUMP JUMPDEST JUMPDEST PUSH1 0x20 DUP3 MUL SWAP1 POP PUSH1 0x20 DUP2 ADD SWAP1 POP SWAP2 SWAP1 POP JUMP JUMPDEST PUSH1 0x0 PUSH8 0xFFFFFFFFFFFFFFFF DUP3 GT ISZERO PUSH2 0x62FD JUMPI PUSH2 0x62FC PUSH2 0x67BA JUMP JUMPDEST JUMPDEST PUSH1 0x20 DUP3 MUL SWAP1 POP PUSH1 0x20 DUP2 ADD SWAP1 POP SWAP2 SWAP1 POP JUMP JUMPDEST PUSH1 0x0 PUSH8 0xFFFFFFFFFFFFFFFF DUP3 GT ISZERO PUSH2 0x6329 JUMPI PUSH2 0x6328 PUSH2 0x67BA JUMP JUMPDEST JUMPDEST PUSH1 0x20 DUP3 MUL SWAP1 POP PUSH1 0x20 DUP2 ADD SWAP1 POP SWAP2 SWAP1 POP JUMP JUMPDEST PUSH1 0x0 PUSH8 0xFFFFFFFFFFFFFFFF DUP3 GT ISZERO PUSH2 0x6355 JUMPI PUSH2 0x6354 PUSH2 0x67BA JUMP JUMPDEST JUMPDEST PUSH2 0x635E DUP3 PUSH2 0x680C JUMP JUMPDEST SWAP1 POP PUSH1 0x20 DUP2 ADD SWAP1 POP SWAP2 SWAP1 POP JUMP JUMPDEST PUSH1 0x0 DUP2 SWAP1 POP PUSH1 0x20 DUP3 ADD SWAP1 POP SWAP2 SWAP1 POP JUMP JUMPDEST PUSH1 0x0 DUP2 SWAP1 POP PUSH1 0x20 DUP3 ADD SWAP1 POP SWAP2 SWAP1 POP JUMP JUMPDEST PUSH1 0x0 DUP2 SWAP1 POP PUSH1 0x20 DUP3 ADD SWAP1 POP SWAP2 SWAP1 POP JUMP JUMPDEST PUSH1 0x0 DUP2 SWAP1 POP PUSH1 0x20 DUP3 ADD SWAP1 POP SWAP2 SWAP1 POP JUMP JUMPDEST PUSH1 0x0 DUP2 MLOAD SWAP1 POP SWAP2 SWAP1 POP JUMP JUMPDEST PUSH1 0x0 DUP2 MLOAD SWAP1 POP SWAP2 SWAP1 POP JUMP JUMPDEST PUSH1 0x0 DUP2 MLOAD SWAP1 POP SWAP2 SWAP1 POP JUMP JUMPDEST PUSH1 0x0 DUP2 MLOAD SWAP1 POP SWAP2 SWAP1 POP JUMP JUMPDEST PUSH1 0x0 DUP2 MLOAD SWAP1 POP SWAP2 SWAP1 POP JUMP JUMPDEST PUSH1 0x0 PUSH1 0x20 DUP3 ADD SWAP1 POP SWAP2 SWAP1 POP JUMP JUMPDEST PUSH1 0x0 PUSH1 0x20 DUP3 ADD SWAP1 POP SWAP2 SWAP1 POP JUMP JUMPDEST PUSH1 0x0 PUSH1 0x20 DUP3 ADD SWAP1 POP SWAP2 SWAP1 POP JUMP JUMPDEST PUSH1 0x0 PUSH1 0x20 DUP3 ADD SWAP1 POP SWAP2 SWAP1 POP JUMP JUMPDEST PUSH1 0x0 DUP3 DUP3 MSTORE PUSH1 0x20 DUP3 ADD SWAP1 POP SWAP3 SWAP2 POP POP JUMP JUMPDEST PUSH1 0x0 DUP3 DUP3 MSTORE PUSH1 0x20 DUP3 ADD SWAP1 POP SWAP3 SWAP2 POP POP JUMP JUMPDEST PUSH1 0x0 DUP3 DUP3 MSTORE PUSH1 0x20 DUP3 ADD SWAP1 POP SWAP3 SWAP2 POP POP JUMP JUMPDEST PUSH1 0x0 DUP3 DUP3 MSTORE PUSH1 0x20 DUP3 ADD SWAP1 POP SWAP3 SWAP2 POP POP JUMP JUMPDEST PUSH1 0x0 DUP3 DUP3 MSTORE PUSH1 0x20 DUP3 ADD SWAP1 POP SWAP3 SWAP2 POP POP JUMP JUMPDEST PUSH1 0x0 DUP2 SWAP1 POP SWAP3 SWAP2 POP POP JUMP JUMPDEST PUSH1 0x0 DUP3 DUP3 MSTORE PUSH1 0x20 DUP3 ADD SWAP1 POP SWAP3 SWAP2 POP POP JUMP JUMPDEST PUSH1 0x0 DUP3 DUP3 MSTORE PUSH1 0x20 DUP3 ADD SWAP1 POP SWAP3 SWAP2 POP POP JUMP JUMPDEST PUSH1 0x0 PUSH2 0x64A3 DUP3 PUSH2 0x65F0 JUMP JUMPDEST SWAP2 POP PUSH2 0x64AE DUP4 PUSH2 0x65F0 JUMP JUMPDEST SWAP3 POP DUP3 PUSH32 0xFFFFFFFFFFFFFFFFFFFFFFFFFFFFFFFFFFFFFFFFFFFFFFFFFFFFFFFFFFFFFFFF SUB DUP3 GT ISZERO PUSH2 0x64E3 JUMPI PUSH2 0x64E2 PUSH2 0x66FE JUMP JUMPDEST JUMPDEST DUP3 DUP3 ADD SWAP1 POP SWAP3 SWAP2 POP POP JUMP JUMPDEST PUSH1 0x0 PUSH2 0x64F9 DUP3 PUSH2 0x65F0 JUMP JUMPDEST SWAP2 POP PUSH2 0x6504 DUP4 PUSH2 0x65F0 JUMP JUMPDEST SWAP3 POP DUP3 PUSH2 0x6514 JUMPI PUSH2 0x6513 PUSH2 0x672D JUMP JUMPDEST JUMPDEST DUP3 DUP3 DIV SWAP1 POP SWAP3 SWAP2 POP POP JUMP JUMPDEST PUSH1 0x0 PUSH2 0x652A DUP3 PUSH2 0x65F0 JUMP JUMPDEST SWAP2 POP PUSH2 0x6535 DUP4 PUSH2 0x65F0 JUMP JUMPDEST SWAP3 POP DUP2 PUSH32 0xFFFFFFFFFFFFFFFFFFFFFFFFFFFFFFFFFFFFFFFFFFFFFFFFFFFFFFFFFFFFFFFF DIV DUP4 GT DUP3 ISZERO ISZERO AND ISZERO PUSH2 0x656E JUMPI PUSH2 0x656D PUSH2 0x66FE JUMP JUMPDEST JUMPDEST DUP3 DUP3 MUL SWAP1 POP SWAP3 SWAP2 POP POP JUMP JUMPDEST PUSH1 0x0 PUSH2 0x6584 DUP3 PUSH2 0x65D0 JUMP JUMPDEST SWAP1 POP SWAP2 SWAP1 POP JUMP JUMPDEST PUSH1 0x0 DUP2 ISZERO ISZERO SWAP1 POP SWAP2 SWAP1 POP JUMP JUMPDEST PUSH1 0x0 DUP2 SWAP1 POP PUSH2 0x65A5 DUP3 PUSH2 0x69DD JUMP JUMPDEST SWAP2 SWAP1 POP JUMP JUMPDEST PUSH1 0x0 DUP2 SWAP1 POP PUSH2 0x65B8 DUP3 PUSH2 0x69F1 JUMP JUMPDEST SWAP2 SWAP1 POP JUMP JUMPDEST PUSH1 0x0 DUP2 SWAP1 POP PUSH2 0x65CB DUP3 PUSH2 0x6A05 JUMP JUMPDEST SWAP2 SWAP1 POP JUMP JUMPDEST PUSH1 0x0 PUSH20 0xFFFFFFFFFFFFFFFFFFFFFFFFFFFFFFFFFFFFFFFF DUP3 AND SWAP1 POP SWAP2 SWAP1 POP JUMP JUMPDEST PUSH1 0x0 DUP2 SWAP1 POP SWAP2 SWAP1 POP JUMP JUMPDEST PUSH1 0x0 PUSH2 0x6605 DUP3 PUSH2 0x6597 JUMP JUMPDEST SWAP1 POP SWAP2 SWAP1 POP JUMP JUMPDEST PUSH1 0x0 PUSH2 0x6617 DUP3 PUSH2 0x65AA JUMP JUMPDEST SWAP1 POP SWAP2 SWAP1 POP JUMP JUMPDEST PUSH1 0x0 PUSH2 0x6629 DUP3 PUSH2 0x65BD JUMP JUMPDEST SWAP1 POP SWAP2 SWAP1 POP JUMP JUMPDEST PUSH1 0x0 PUSH2 0x663B DUP3 PUSH2 0x65F0 JUMP JUMPDEST SWAP1 POP SWAP2 SWAP1 POP JUMP JUMPDEST DUP3 DUP2 DUP4 CALLDATACOPY PUSH1 0x0 DUP4 DUP4 ADD MSTORE POP POP POP JUMP JUMPDEST PUSH1 0x0 JUMPDEST DUP4 DUP2 LT ISZERO PUSH2 0x666F JUMPI DUP1 DUP3 ADD MLOAD DUP2 DUP5 ADD MSTORE PUSH1 0x20 DUP2 ADD SWAP1 POP PUSH2 0x6654 JUMP JUMPDEST DUP4 DUP2 GT ISZERO PUSH2 0x667E JUMPI PUSH1 0x0 DUP5 DUP5 ADD MSTORE JUMPDEST POP POP POP POP JUMP JUMPDEST PUSH2 0x668D DUP3 PUSH2 0x680C JUMP JUMPDEST DUP2 ADD DUP2 DUP2 LT PUSH8 0xFFFFFFFFFFFFFFFF DUP3 GT OR ISZERO PUSH2 0x66AC JUMPI PUSH2 0x66AB PUSH2 0x67BA JUMP JUMPDEST JUMPDEST DUP1 PUSH1 0x40 MSTORE POP POP POP JUMP JUMPDEST PUSH1 0x0 PUSH2 0x66C0 DUP3 PUSH2 0x65F0 JUMP JUMPDEST SWAP2 POP PUSH32 0xFFFFFFFFFFFFFFFFFFFFFFFFFFFFFFFFFFFFFFFFFFFFFFFFFFFFFFFFFFFFFFFF DUP3 EQ ISZERO PUSH2 0x66F3 JUMPI PUSH2 0x66F2 PUSH2 0x66FE JUMP JUMPDEST JUMPDEST PUSH1 0x1 DUP3 ADD SWAP1 POP SWAP2 SWAP1 POP JUMP JUMPDEST PUSH32 0x4E487B7100000000000000000000000000000000000000000000000000000000 PUSH1 0x0 MSTORE PUSH1 0x11 PUSH1 0x4 MSTORE PUSH1 0x24 PUSH1 0x0 REVERT JUMPDEST PUSH32 0x4E487B7100000000000000000000000000000000000000000000000000000000 PUSH1 0x0 MSTORE PUSH1 0x12 PUSH1 0x4 MSTORE PUSH1 0x24 PUSH1 0x0 REVERT JUMPDEST PUSH32 0x4E487B7100000000000000000000000000000000000000000000000000000000 PUSH1 0x0 MSTORE PUSH1 0x21 PUSH1 0x4 MSTORE PUSH1 0x24 PUSH1 0x0 REVERT JUMPDEST PUSH32 0x4E487B7100000000000000000000000000000000000000000000000000000000 PUSH1 0x0 MSTORE PUSH1 0x32 PUSH1 0x4 MSTORE PUSH1 0x24 PUSH1 0x0 REVERT JUMPDEST PUSH32 0x4E487B7100000000000000000000000000000000000000000000000000000000 PUSH1 0x0 MSTORE PUSH1 0x41 PUSH1 0x4 MSTORE PUSH1 0x24 PUSH1 0x0 REVERT JUMPDEST PUSH1 0x0 DUP1 REVERT JUMPDEST PUSH1 0x0 DUP1 REVERT JUMPDEST PUSH1 0x0 DUP1 REVERT JUMPDEST PUSH1 0x0 DUP1 REVERT JUMPDEST PUSH1 0x0 DUP1 REVERT JUMPDEST PUSH1 0x0 DUP1 REVERT JUMPDEST PUSH1 0x0 DUP1 REVERT JUMPDEST PUSH1 0x0 PUSH1 0x1F NOT PUSH1 0x1F DUP4 ADD AND SWAP1 POP SWAP2 SWAP1 POP JUMP JUMPDEST PUSH32 0x43616C6C206661696C6564000000000000000000000000000000000000000000 PUSH1 0x0 DUP3 ADD MSTORE POP JUMP JUMPDEST PUSH32 0x57726F6E6720696E6465782076616C7565210000000000000000000000000000 PUSH1 0x0 DUP3 ADD MSTORE POP JUMP JUMPDEST PUSH32 0x4F776E61626C653A206E6577206F776E657220697320746865207A65726F2061 PUSH1 0x0 DUP3 ADD MSTORE PUSH32 0x6464726573730000000000000000000000000000000000000000000000000000 PUSH1 0x20 DUP3 ADD MSTORE POP JUMP JUMPDEST PUSH32 0x546865206C6F636B206973206C6F636B65642E00000000000000000000000000 PUSH1 0x0 DUP3 ADD MSTORE POP JUMP JUMPDEST PUSH32 0x6572726F72203A20496E636F72726563742076616C7565000000000000000000 PUSH1 0x0 DUP3 ADD MSTORE POP JUMP JUMPDEST PUSH32 0x7473000000000000000000000000000000000000000000000000000000000000 PUSH1 0x0 DUP3 ADD MSTORE POP JUMP JUMPDEST PUSH32 0x4F776E61626C653A2063616C6C6572206973206E6F7420746865206F776E6572 PUSH1 0x0 DUP3 ADD MSTORE POP JUMP JUMPDEST PUSH32 0x5468652062616C616E6365206973206E6F742073756666696369656E742E0000 PUSH1 0x0 DUP3 ADD MSTORE POP JUMP JUMPDEST POP JUMP JUMPDEST PUSH32 0x4F7065726174696F6E457863657074696F6E3A2043616E277420726563656976 PUSH1 0x0 DUP3 ADD MSTORE PUSH32 0x65207461736B0000000000000000000000000000000000000000000000000000 PUSH1 0x20 DUP3 ADD MSTORE POP JUMP JUMPDEST PUSH1 0xA DUP2 LT PUSH2 0x69EE JUMPI PUSH2 0x69ED PUSH2 0x675C JUMP JUMPDEST JUMPDEST POP JUMP JUMPDEST PUSH1 0x7 DUP2 LT PUSH2 0x6A02 JUMPI PUSH2 0x6A01 PUSH2 0x675C JUMP JUMPDEST JUMPDEST POP JUMP JUMPDEST PUSH1 0x5 DUP2 LT PUSH2 0x6A16 JUMPI PUSH2 0x6A15 PUSH2 0x675C JUMP JUMPDEST JUMPDEST POP JUMP JUMPDEST PUSH2 0x6A22 DUP2 PUSH2 0x6579 JUMP JUMPDEST DUP2 EQ PUSH2 0x6A2D JUMPI PUSH1 0x0 DUP1 REVERT JUMPDEST POP JUMP JUMPDEST PUSH2 0x6A39 DUP2 PUSH2 0x658B JUMP JUMPDEST DUP2 EQ PUSH2 0x6A44 JUMPI PUSH1 0x0 DUP1 REVERT JUMPDEST POP JUMP JUMPDEST PUSH1 0xA DUP2 LT PUSH2 0x6A54 JUMPI PUSH1 0x0 DUP1 REVERT JUMPDEST POP JUMP JUMPDEST PUSH1 0x7 DUP2 LT PUSH2 0x6A64 JUMPI PUSH1 0x0 DUP1 REVERT JUMPDEST POP JUMP JUMPDEST PUSH1 0x5 DUP2 LT PUSH2 0x6A74 JUMPI PUSH1 0x0 DUP1 REVERT JUMPDEST POP JUMP JUMPDEST PUSH2 0x6A80 DUP2 PUSH2 0x65F0 JUMP JUMPDEST DUP2 EQ PUSH2 0x6A8B JUMPI PUSH1 0x0 DUP1 REVERT JUMPDEST POP JUMP INVALID LOG2 PUSH5 0x6970667358 0x22 SLT KECCAK256 PUSH5 0x8AD5C44B3A 0xAA ADDMOD BASEFEE PUSH28 0xD3070EC8097FFA99C67F93FDB70ED323CB1C13C734D964736F6C6343 STOP ADDMOD SMOD STOP CALLER "
		},
		"gasEstimates": {
			"creation": {
				"codeDepositCost": "5466400",
				"executionCost": "infinite",
				"totalCost": "infinite"
			},
			"external": {
				"": "197",
				"acceptForTranslator(uint256,uint256[])": "infinite",
				"acceptForVerifer(uint256,uint256[])": "infinite",
				"endTransAccept(uint256)": "infinite",
				"endTransVf(uint256)": "infinite",
				"getBalanceOfContract()": "407",
				"getTaskInfo(uint256)": "infinite",
				"overTimeTrans(uint256,address)": "infinite",
				"overTimeVf(uint256,address)": "infinite",
				"owner()": "2611",
				"pay(address)": "infinite",
				"postTask((uint256,string,string,uint256,uint256,uint256,uint256[],uint256,uint256,bool,bool,uint256,((string,uint256,uint256,uint256,uint256,uint256,string),uint256,string,uint8,uint256)[]))": "infinite",
				"receiveTask(uint256,address,uint256,bool)": "infinite",
				"renounceOwnership()": "30421",
				"sumbitTaskTrans(uint256,uint256,string)": "infinite",
				"transderToContract()": "infinite",
				"transferOwnership(address)": "30835",
				"updateTask(uint256,(uint256,string,string,uint256,uint256,uint256,uint256[],uint256,uint256,bool,bool,uint256,((string,uint256,uint256,uint256,uint256,uint256,string),uint256,string,uint8,uint256)[]))": "infinite",
				"validate(uint256,address,uint256,bool,string)": "infinite",
				"withdraw()": "infinite"
			},
			"internal": {
				"_deduct(uint256,address,uint256,uint256,bool)": "infinite",
				"_endTransAccept(uint256)": "infinite",
				"_endTransVf(uint256)": "infinite",
				"_overTimeTrans(uint256,address)": "infinite",
				"_overTimeVf(uint256,address)": "infinite",
				"_postTask(struct LibProject.ProParm memory)": "infinite",
				"_receiveTask(uint256,address,uint256,bool)": "infinite",
				"_sumbitTaskTrans(uint256,uint256,string memory)": "infinite",
				"_updateTask(uint256,struct LibProject.ProParm memory)": "infinite",
				"_validate(uint256,address,uint256,bool,string memory)": "infinite"
			}
		},
		"methodIdentifiers": {
			"acceptForTranslator(uint256,uint256[])": "fa4c6473",
			"acceptForVerifer(uint256,uint256[])": "3bd14e13",
			"endTransAccept(uint256)": "8adc74a5",
			"endTransVf(uint256)": "a55af701",
			"getBalanceOfContract()": "22968885",
			"getTaskInfo(uint256)": "d1a1b999",
			"overTimeTrans(uint256,address)": "5b0ef140",
			"overTimeVf(uint256,address)": "36d61ae0",
			"owner()": "8da5cb5b",
			"pay(address)": "0c11dedd",
			"postTask((uint256,string,string,uint256,uint256,uint256,uint256[],uint256,uint256,bool,bool,uint256,((string,uint256,uint256,uint256,uint256,uint256,string),uint256,string,uint8,uint256)[]))": "ac35cd61",
			"receiveTask(uint256,address,uint256,bool)": "78a1e6cd",
			"renounceOwnership()": "715018a6",
			"sumbitTaskTrans(uint256,uint256,string)": "bb0c38c0",
			"transderToContract()": "460968dd",
			"transferOwnership(address)": "f2fde38b",
			"updateTask(uint256,(uint256,string,string,uint256,uint256,uint256,uint256[],uint256,uint256,bool,bool,uint256,((string,uint256,uint256,uint256,uint256,uint256,string),uint256,string,uint8,uint256)[]))": "09a02f58",
			"validate(uint256,address,uint256,bool,string)": "243634bf",
			"withdraw()": "3ccfd60b"
		}
	},
	"abi": [
		{
			"inputs": [
				{
					"internalType": "address",
					"name": "_serAddress",
					"type": "address"
				}
			],
			"stateMutability": "nonpayable",
			"type": "constructor"
		},
		{
			"inputs": [
				{
					"internalType": "string",
					"name": "",
					"type": "string"
				},
				{
					"internalType": "uint256",
					"name": "",
					"type": "uint256"
				}
			],
			"name": "OperationException",
			"type": "error"
		},
		{
			"inputs": [
				{
					"internalType": "string",
					"name": "",
					"type": "string"
				}
			],
			"name": "ParameterException",
			"type": "error"
		},
		{
			"anonymous": false,
			"inputs": [
				{
					"indexed": true,
					"internalType": "address",
					"name": "previousOwner",
					"type": "address"
				},
				{
					"indexed": true,
					"internalType": "address",
					"name": "newOwner",
					"type": "address"
				}
			],
			"name": "OwnershipTransferred",
			"type": "event"
		},
		{
			"anonymous": false,
			"inputs": [
				{
					"indexed": false,
					"internalType": "uint256",
					"name": "",
					"type": "uint256"
				},
				{
					"indexed": false,
					"internalType": "uint256[]",
					"name": "",
					"type": "uint256[]"
				},
				{
					"indexed": false,
					"internalType": "uint256",
					"name": "",
					"type": "uint256"
				},
				{
					"indexed": false,
					"internalType": "address",
					"name": "",
					"type": "address"
				},
				{
					"indexed": false,
					"internalType": "string",
					"name": "",
					"type": "string"
				}
			],
			"name": "acceptTaskEv",
			"type": "event"
		},
		{
			"anonymous": false,
			"inputs": [
				{
					"indexed": false,
					"internalType": "uint256",
					"name": "",
					"type": "uint256"
				},
				{
					"indexed": false,
					"internalType": "uint256",
					"name": "",
					"type": "uint256"
				},
				{
					"indexed": false,
					"internalType": "address",
					"name": "",
					"type": "address"
				},
				{
					"indexed": false,
					"internalType": "bool",
					"name": "",
					"type": "bool"
				}
			],
			"name": "acceptTaskEv",
			"type": "event"
		},
		{
			"anonymous": false,
			"inputs": [
				{
					"indexed": false,
					"internalType": "address",
					"name": "",
					"type": "address"
				},
				{
					"indexed": false,
					"internalType": "address",
					"name": "",
					"type": "address"
				},
				{
					"indexed": false,
					"internalType": "uint256",
					"name": "",
					"type": "uint256"
				}
			],
			"name": "payEv",
			"type": "event"
		},
		{
			"anonymous": false,
			"inputs": [
				{
					"indexed": false,
					"internalType": "address",
					"name": "",
					"type": "address"
				},
				{
					"indexed": false,
					"internalType": "uint256",
					"name": "",
					"type": "uint256"
				},
				{
					"components": [
						{
							"internalType": "uint256",
							"name": "releaseTime",
							"type": "uint256"
						},
						{
							"internalType": "string",
							"name": "introduce",
							"type": "string"
						},
						{
							"internalType": "string",
							"name": "need",
							"type": "string"
						},
						{
							"internalType": "uint256",
							"name": "deadline",
							"type": "uint256"
						},
						{
							"internalType": "uint256",
							"name": "sourceLanguage",
							"type": "uint256"
						},
						{
							"internalType": "uint256",
							"name": "goalLanguage",
							"type": "uint256"
						},
						{
							"internalType": "uint256[]",
							"name": "preferList",
							"type": "uint256[]"
						},
						{
							"internalType": "uint256",
							"name": "translationType",
							"type": "uint256"
						},
						{
							"internalType": "uint256",
							"name": "workLoad",
							"type": "uint256"
						},
						{
							"internalType": "bool",
							"name": "isNonDisclosure",
							"type": "bool"
						},
						{
							"internalType": "bool",
							"name": "isCustomize",
							"type": "bool"
						},
						{
							"internalType": "uint256",
							"name": "bounty",
							"type": "uint256"
						},
						{
							"components": [
								{
									"components": [
										{
											"internalType": "string",
											"name": "name",
											"type": "string"
										},
										{
											"internalType": "uint256",
											"name": "size",
											"type": "uint256"
										},
										{
											"internalType": "uint256",
											"name": "videoLength",
											"type": "uint256"
										},
										{
											"internalType": "uint256",
											"name": "Page",
											"type": "uint256"
										},
										{
											"internalType": "uint256",
											"name": "words",
											"type": "uint256"
										},
										{
											"internalType": "uint256",
											"name": "fileType",
											"type": "uint256"
										},
										{
											"internalType": "string",
											"name": "path",
											"type": "string"
										}
									],
									"internalType": "struct LibProject.FileInfo",
									"name": "file",
									"type": "tuple"
								},
								{
									"internalType": "uint256",
									"name": "bounty",
									"type": "uint256"
								},
								{
									"internalType": "string",
									"name": "info",
									"type": "string"
								},
								{
									"internalType": "enum LibProject.FileState",
									"name": "state",
									"type": "uint8"
								},
								{
									"internalType": "uint256",
									"name": "lastUpload",
									"type": "uint256"
								}
							],
							"internalType": "struct LibProject.TaskInfo[]",
							"name": "tasks",
							"type": "tuple[]"
						}
					],
					"indexed": false,
					"internalType": "struct LibProject.ProParm",
					"name": "",
					"type": "tuple"
				}
			],
			"name": "postProjectEv",
			"type": "event"
		},
		{
			"anonymous": false,
			"inputs": [
				{
					"indexed": false,
					"internalType": "address",
					"name": "",
					"type": "address"
				},
				{
					"indexed": false,
					"internalType": "uint256",
					"name": "",
					"type": "uint256"
				},
				{
					"indexed": false,
					"internalType": "string",
					"name": "",
					"type": "string"
				},
				{
					"indexed": false,
					"internalType": "bool",
					"name": "",
					"type": "bool"
				}
			],
			"name": "uploadAcceptStateEv",
			"type": "event"
		},
		{
			"stateMutability": "payable",
			"type": "fallback"
		},
		{
			"inputs": [
				{
					"internalType": "uint256",
					"name": "_index",
					"type": "uint256"
				},
				{
					"internalType": "uint256[]",
					"name": "_fileIndex",
					"type": "uint256[]"
				}
			],
			"name": "acceptForTranslator",
			"outputs": [],
			"stateMutability": "nonpayable",
			"type": "function"
		},
		{
			"inputs": [
				{
					"internalType": "uint256",
					"name": "_index",
					"type": "uint256"
				},
				{
					"internalType": "uint256[]",
					"name": "_fileIndex",
					"type": "uint256[]"
				}
			],
			"name": "acceptForVerifer",
			"outputs": [],
			"stateMutability": "nonpayable",
			"type": "function"
		},
		{
			"inputs": [
				{
					"internalType": "uint256",
					"name": "_index",
					"type": "uint256"
				}
			],
			"name": "endTransAccept",
			"outputs": [],
			"stateMutability": "nonpayable",
			"type": "function"
		},
		{
			"inputs": [
				{
					"internalType": "uint256",
					"name": "_index",
					"type": "uint256"
				}
			],
			"name": "endTransVf",
			"outputs": [],
			"stateMutability": "nonpayable",
			"type": "function"
		},
		{
			"inputs": [],
			"name": "getBalanceOfContract",
			"outputs": [
				{
					"internalType": "uint256",
					"name": "",
					"type": "uint256"
				}
			],
			"stateMutability": "view",
			"type": "function"
		},
		{
			"inputs": [
				{
					"internalType": "uint256",
					"name": "_index",
					"type": "uint256"
				}
			],
			"name": "getTaskInfo",
			"outputs": [
				{
					"components": [
						{
							"internalType": "address",
							"name": "buyer",
							"type": "address"
						},
						{
							"internalType": "uint256",
							"name": "releaseTime",
							"type": "uint256"
						},
						{
							"internalType": "string",
							"name": "introduce",
							"type": "string"
						},
						{
							"internalType": "string",
							"name": "need",
							"type": "string"
						},
						{
							"internalType": "uint256",
							"name": "deadline",
							"type": "uint256"
						},
						{
							"internalType": "uint256",
							"name": "sourceLanguage",
							"type": "uint256"
						},
						{
							"internalType": "uint256",
							"name": "goalLanguage",
							"type": "uint256"
						},
						{
							"internalType": "uint256[]",
							"name": "preferList",
							"type": "uint256[]"
						},
						{
							"internalType": "uint256",
							"name": "translationType",
							"type": "uint256"
						},
						{
							"internalType": "uint256",
							"name": "workLoad",
							"type": "uint256"
						},
						{
							"internalType": "bool",
							"name": "isNonDisclosure",
							"type": "bool"
						},
						{
							"internalType": "bool",
							"name": "isCustomize",
							"type": "bool"
						},
						{
							"internalType": "uint256",
							"name": "bounty",
							"type": "uint256"
						},
						{
							"components": [
								{
									"internalType": "uint256",
									"name": "taskIndex",
									"type": "uint256"
								},
								{
									"internalType": "enum LibProject.TaskerState",
									"name": "state",
									"type": "uint8"
								},
								{
									"internalType": "string",
									"name": "file",
									"type": "string"
								},
								{
									"internalType": "uint256",
									"name": "bounty",
									"type": "uint256"
								}
							],
							"internalType": "struct LibProject.ReturnFileInfo[]",
							"name": "fileInfo",
							"type": "tuple[]"
						},
						{
							"components": [
								{
									"components": [
										{
											"internalType": "string",
											"name": "name",
											"type": "string"
										},
										{
											"internalType": "uint256",
											"name": "size",
											"type": "uint256"
										},
										{
											"internalType": "uint256",
											"name": "videoLength",
											"type": "uint256"
										},
										{
											"internalType": "uint256",
											"name": "Page",
											"type": "uint256"
										},
										{
											"internalType": "uint256",
											"name": "words",
											"type": "uint256"
										},
										{
											"internalType": "uint256",
											"name": "fileType",
											"type": "uint256"
										},
										{
											"internalType": "string",
											"name": "path",
											"type": "string"
										}
									],
									"internalType": "struct LibProject.FileInfo",
									"name": "file",
									"type": "tuple"
								},
								{
									"internalType": "uint256",
									"name": "bounty",
									"type": "uint256"
								},
								{
									"internalType": "string",
									"name": "info",
									"type": "string"
								},
								{
									"internalType": "enum LibProject.FileState",
									"name": "state",
									"type": "uint8"
								},
								{
									"internalType": "uint256",
									"name": "lastUpload",
									"type": "uint256"
								}
							],
							"internalType": "struct LibProject.TaskInfo[]",
							"name": "tasks",
							"type": "tuple[]"
						},
						{
							"components": [
								{
									"internalType": "address",
									"name": "taskerAddress",
									"type": "address"
								},
								{
									"components": [
										{
											"internalType": "uint256",
											"name": "taskIndex",
											"type": "uint256"
										},
										{
											"internalType": "enum LibProject.TaskerState",
											"name": "state",
											"type": "uint8"
										},
										{
											"internalType": "string",
											"name": "file",
											"type": "string"
										},
										{
											"internalType": "uint256",
											"name": "bounty",
											"type": "uint256"
										}
									],
									"internalType": "struct LibProject.ReturnFileInfo[]",
									"name": "taskerinfo",
									"type": "tuple[]"
								}
							],
							"internalType": "struct LibProject.ReturnTasker[]",
							"name": "translators",
							"type": "tuple[]"
						},
						{
							"components": [
								{
									"internalType": "address",
									"name": "taskerAddress",
									"type": "address"
								},
								{
									"components": [
										{
											"internalType": "uint256",
											"name": "taskIndex",
											"type": "uint256"
										},
										{
											"internalType": "enum LibProject.TaskerState",
											"name": "state",
											"type": "uint8"
										},
										{
											"internalType": "string",
											"name": "file",
											"type": "string"
										},
										{
											"internalType": "uint256",
											"name": "bounty",
											"type": "uint256"
										}
									],
									"internalType": "struct LibProject.ReturnFileInfo[]",
									"name": "taskerinfo",
									"type": "tuple[]"
								}
							],
							"internalType": "struct LibProject.ReturnTasker[]",
							"name": "verifiers",
							"type": "tuple[]"
						},
						{
							"internalType": "uint256",
							"name": "maxT",
							"type": "uint256"
						},
						{
							"internalType": "uint256",
							"name": "maxV",
							"type": "uint256"
						},
						{
							"internalType": "uint256",
							"name": "numberT",
							"type": "uint256"
						},
						{
							"internalType": "uint256",
							"name": "numberV",
							"type": "uint256"
						},
						{
							"internalType": "bool",
							"name": "isTransActive",
							"type": "bool"
						},
						{
							"internalType": "bool",
							"name": "isVerActive",
							"type": "bool"
						},
						{
							"internalType": "enum LibProject.ProjectState",
							"name": "state",
							"type": "uint8"
						}
					],
					"internalType": "struct LibProject.ReturnTask",
					"name": "",
					"type": "tuple"
				}
			],
			"stateMutability": "view",
			"type": "function"
		},
		{
			"inputs": [
				{
					"internalType": "uint256",
					"name": "_index",
					"type": "uint256"
				},
				{
					"internalType": "address",
					"name": "_tasker",
					"type": "address"
				}
			],
			"name": "overTimeTrans",
			"outputs": [
				{
					"internalType": "uint256",
					"name": "",
					"type": "uint256"
				}
			],
			"stateMutability": "nonpayable",
			"type": "function"
		},
		{
			"inputs": [
				{
					"internalType": "uint256",
					"name": "_index",
					"type": "uint256"
				},
				{
					"internalType": "address",
					"name": "_tasker",
					"type": "address"
				}
			],
			"name": "overTimeVf",
			"outputs": [
				{
					"internalType": "uint256",
					"name": "",
					"type": "uint256"
				}
			],
			"stateMutability": "nonpayable",
			"type": "function"
		},
		{
			"inputs": [],
			"name": "owner",
			"outputs": [
				{
					"internalType": "address",
					"name": "",
					"type": "address"
				}
			],
			"stateMutability": "view",
			"type": "function"
		},
		{
			"inputs": [
				{
					"internalType": "address",
					"name": "_to",
					"type": "address"
				}
			],
			"name": "pay",
			"outputs": [],
			"stateMutability": "payable",
			"type": "function"
		},
		{
			"inputs": [
				{
					"components": [
						{
							"internalType": "uint256",
							"name": "releaseTime",
							"type": "uint256"
						},
						{
							"internalType": "string",
							"name": "introduce",
							"type": "string"
						},
						{
							"internalType": "string",
							"name": "need",
							"type": "string"
						},
						{
							"internalType": "uint256",
							"name": "deadline",
							"type": "uint256"
						},
						{
							"internalType": "uint256",
							"name": "sourceLanguage",
							"type": "uint256"
						},
						{
							"internalType": "uint256",
							"name": "goalLanguage",
							"type": "uint256"
						},
						{
							"internalType": "uint256[]",
							"name": "preferList",
							"type": "uint256[]"
						},
						{
							"internalType": "uint256",
							"name": "translationType",
							"type": "uint256"
						},
						{
							"internalType": "uint256",
							"name": "workLoad",
							"type": "uint256"
						},
						{
							"internalType": "bool",
							"name": "isNonDisclosure",
							"type": "bool"
						},
						{
							"internalType": "bool",
							"name": "isCustomize",
							"type": "bool"
						},
						{
							"internalType": "uint256",
							"name": "bounty",
							"type": "uint256"
						},
						{
							"components": [
								{
									"components": [
										{
											"internalType": "string",
											"name": "name",
											"type": "string"
										},
										{
											"internalType": "uint256",
											"name": "size",
											"type": "uint256"
										},
										{
											"internalType": "uint256",
											"name": "videoLength",
											"type": "uint256"
										},
										{
											"internalType": "uint256",
											"name": "Page",
											"type": "uint256"
										},
										{
											"internalType": "uint256",
											"name": "words",
											"type": "uint256"
										},
										{
											"internalType": "uint256",
											"name": "fileType",
											"type": "uint256"
										},
										{
											"internalType": "string",
											"name": "path",
											"type": "string"
										}
									],
									"internalType": "struct LibProject.FileInfo",
									"name": "file",
									"type": "tuple"
								},
								{
									"internalType": "uint256",
									"name": "bounty",
									"type": "uint256"
								},
								{
									"internalType": "string",
									"name": "info",
									"type": "string"
								},
								{
									"internalType": "enum LibProject.FileState",
									"name": "state",
									"type": "uint8"
								},
								{
									"internalType": "uint256",
									"name": "lastUpload",
									"type": "uint256"
								}
							],
							"internalType": "struct LibProject.TaskInfo[]",
							"name": "tasks",
							"type": "tuple[]"
						}
					],
					"internalType": "struct LibProject.ProParm",
					"name": "_t",
					"type": "tuple"
				}
			],
			"name": "postTask",
			"outputs": [
				{
					"internalType": "uint256",
					"name": "_index",
					"type": "uint256"
				}
			],
			"stateMutability": "payable",
			"type": "function"
		},
		{
			"inputs": [
				{
					"internalType": "uint256",
					"name": "_index",
					"type": "uint256"
				},
				{
					"internalType": "address",
					"name": "_taskerIndex",
					"type": "address"
				},
				{
					"internalType": "uint256",
					"name": "_fileIndex",
					"type": "uint256"
				},
				{
					"internalType": "bool",
					"name": "_isPass",
					"type": "bool"
				}
			],
			"name": "receiveTask",
			"outputs": [],
			"stateMutability": "nonpayable",
			"type": "function"
		},
		{
			"inputs": [],
			"name": "renounceOwnership",
			"outputs": [],
			"stateMutability": "nonpayable",
			"type": "function"
		},
		{
			"inputs": [
				{
					"internalType": "uint256",
					"name": "_index",
					"type": "uint256"
				},
				{
					"internalType": "uint256",
					"name": "_fileIndex",
					"type": "uint256"
				},
				{
					"internalType": "string",
					"name": "_file",
					"type": "string"
				}
			],
			"name": "sumbitTaskTrans",
			"outputs": [],
			"stateMutability": "nonpayable",
			"type": "function"
		},
		{
			"inputs": [],
			"name": "transderToContract",
			"outputs": [],
			"stateMutability": "payable",
			"type": "function"
		},
		{
			"inputs": [
				{
					"internalType": "address",
					"name": "newOwner",
					"type": "address"
				}
			],
			"name": "transferOwnership",
			"outputs": [],
			"stateMutability": "nonpayable",
			"type": "function"
		},
		{
			"inputs": [
				{
					"internalType": "uint256",
					"name": "_index",
					"type": "uint256"
				},
				{
					"components": [
						{
							"internalType": "uint256",
							"name": "releaseTime",
							"type": "uint256"
						},
						{
							"internalType": "string",
							"name": "introduce",
							"type": "string"
						},
						{
							"internalType": "string",
							"name": "need",
							"type": "string"
						},
						{
							"internalType": "uint256",
							"name": "deadline",
							"type": "uint256"
						},
						{
							"internalType": "uint256",
							"name": "sourceLanguage",
							"type": "uint256"
						},
						{
							"internalType": "uint256",
							"name": "goalLanguage",
							"type": "uint256"
						},
						{
							"internalType": "uint256[]",
							"name": "preferList",
							"type": "uint256[]"
						},
						{
							"internalType": "uint256",
							"name": "translationType",
							"type": "uint256"
						},
						{
							"internalType": "uint256",
							"name": "workLoad",
							"type": "uint256"
						},
						{
							"internalType": "bool",
							"name": "isNonDisclosure",
							"type": "bool"
						},
						{
							"internalType": "bool",
							"name": "isCustomize",
							"type": "bool"
						},
						{
							"internalType": "uint256",
							"name": "bounty",
							"type": "uint256"
						},
						{
							"components": [
								{
									"components": [
										{
											"internalType": "string",
											"name": "name",
											"type": "string"
										},
										{
											"internalType": "uint256",
											"name": "size",
											"type": "uint256"
										},
										{
											"internalType": "uint256",
											"name": "videoLength",
											"type": "uint256"
										},
										{
											"internalType": "uint256",
											"name": "Page",
											"type": "uint256"
										},
										{
											"internalType": "uint256",
											"name": "words",
											"type": "uint256"
										},
										{
											"internalType": "uint256",
											"name": "fileType",
											"type": "uint256"
										},
										{
											"internalType": "string",
											"name": "path",
											"type": "string"
										}
									],
									"internalType": "struct LibProject.FileInfo",
									"name": "file",
									"type": "tuple"
								},
								{
									"internalType": "uint256",
									"name": "bounty",
									"type": "uint256"
								},
								{
									"internalType": "string",
									"name": "info",
									"type": "string"
								},
								{
									"internalType": "enum LibProject.FileState",
									"name": "state",
									"type": "uint8"
								},
								{
									"internalType": "uint256",
									"name": "lastUpload",
									"type": "uint256"
								}
							],
							"internalType": "struct LibProject.TaskInfo[]",
							"name": "tasks",
							"type": "tuple[]"
						}
					],
					"internalType": "struct LibProject.ProParm",
					"name": "_t",
					"type": "tuple"
				}
			],
			"name": "updateTask",
			"outputs": [],
			"stateMutability": "payable",
			"type": "function"
		},
		{
			"inputs": [
				{
					"internalType": "uint256",
					"name": "_index",
					"type": "uint256"
				},
				{
					"internalType": "address",
					"name": "_transIndex",
					"type": "address"
				},
				{
					"internalType": "uint256",
					"name": "_fileIndex",
					"type": "uint256"
				},
				{
					"internalType": "bool",
					"name": "_isPass",
					"type": "bool"
				},
				{
					"internalType": "string",
					"name": "_file",
					"type": "string"
				}
			],
			"name": "validate",
			"outputs": [],
			"stateMutability": "nonpayable",
			"type": "function"
		},
		{
			"inputs": [],
			"name": "withdraw",
			"outputs": [],
			"stateMutability": "nonpayable",
			"type": "function"
		},
		{
			"stateMutability": "payable",
			"type": "receive"
		}
	]
}