{
	"data": {
		"bytecode": {
			"linkReferences": {
				"utils/calculateUtils.sol": {
					"CalculateUtils": [
						{
							"length": 20,
							"start": 8788
						},
						{
							"length": 20,
							"start": 8951
						},
						{
							"length": 20,
							"start": 10743
						}
					]
				}
			},
			"object": "60806040523480156200001157600080fd5b506200001d3362000023565b62000073565b600080546001600160a01b038381166001600160a01b0319831681178455604051919092169283917f8be0079c531659141344cd1fd0a4f28419497f9722a3daafe3b4186f6b6457e09190a35050565b615dc780620000836000396000f3fe60806040526004361061026f5760003560e01c80638a9a9ff311610152578063b647eec3116100bd578063d3d7bc3b11610084578063f8626ebb11610061578063f8626ebb14610849578063fa4c647314610879578063ffcce7761461089957005b8063d3d7bc3b146107c6578063dc9f29cb146107fc578063f2fde38b1461082957005b8063b647eec3146106fc578063bb0c38c01461071c578063cf8f4be21461073c578063d1a1b99914610769578063d2fed69c1461079657005b806397601efb11610119578063a87d942c116100f6578063a87d942c146106a7578063ac35cd61146106bc578063ad607c72146106cf57005b806397601efb1461063a578063983a12a81461065a578063a55af7011461068757005b80638a9a9ff31461057b5780638adc74a51461059b5780638b3f3a6f146105bb5780638da5cb5b146105e95780639722f0991461060757005b8063546677aa116101f257806364a1ed07116101b9578063790485f911610196578063790485f9146104e75780637c34eb851461052e578063853828b61461056657005b806364a1ed07146104825780636e973982146104a2578063715018a6146104d257005b8063546677aa1461038c5780635b0ef140146103d45780635bf608b8146103f45780635fed5eb214610442578063627a62f31461046f57005b80632e1a7d4d116102365780632e1a7d4d1461031157806336d61ae0146103315780633bd14e13146103515780633edfa22914610371578063460968dd1461038457005b806309a02f58146102785780631201dfc61461028b578063193620e7146102ab57806322968885146102de578063243634bf146102f157005b3661027657005b005b610276610286366004614fef565b6108df565b34801561029757600080fd5b506102766102a6366004615036565b6109fe565b3480156102b757600080fd5b506102cb6102c6366004615066565b610a0a565b6040519081526020015b60405180910390f35b3480156102ea57600080fd5b50476102cb565b3480156102fd57600080fd5b5061027661030c366004615092565b610a37565b34801561031d57600080fd5b5061027661032c366004615036565b610af0565b34801561033d57600080fd5b506102cb61034c366004615066565b610b01565b34801561035d57600080fd5b5061027661036c366004615104565b610b4d565b61027661037f366004615141565b610c60565b610276610ceb565b34801561039857600080fd5b506103c46103a7366004615036565b600090815260016020526040902060150154610100900460ff1690565b60405190151581526020016102d5565b3480156103e057600080fd5b506102cb6103ef366004615066565b610da5565b34801561040057600080fd5b5061042a61040f366004615036565b6000908152600160205260409020546001600160a01b031690565b6040516001600160a01b0390911681526020016102d5565b34801561044e57600080fd5b5061046261045d366004615066565b610ddd565b6040516102d591906152ba565b61027661047d3660046152cd565b610f82565b34801561048e57600080fd5b506102cb61049d366004615324565b6110da565b3480156104ae57600080fd5b506102cb6104bd366004615036565b6000908152600160205260409020600b015490565b3480156104de57600080fd5b50610276611117565b3480156104f357600080fd5b506102cb610502366004615066565b60008281526001602090815260408083206001600160a01b038516845260100190915290205492915050565b34801561053a57600080fd5b506103c4610549366004615036565b6000908152600160205260409020600a0154610100900460ff1690565b34801561057257600080fd5b5061027661112b565b34801561058757600080fd5b506103c4610596366004615346565b61113b565b3480156105a757600080fd5b506102766105b6366004615036565b611185565b3480156105c757600080fd5b506105db6105d6366004615369565b6111bd565b6040516102d59291906153a5565b3480156105f557600080fd5b506000546001600160a01b031661042a565b34801561061357600080fd5b506103c4610622366004615036565b60009081526001602052604090206015015460ff1690565b34801561064657600080fd5b50610276610655366004615324565b6114ef565b34801561066657600080fd5b5061067a610675366004615036565b6114fd565b6040516102d59190615400565b34801561069357600080fd5b506102766106a2366004615036565b61156c565b3480156106b357600080fd5b506003546102cb565b6102cb6106ca366004615413565b61159f565b3480156106db57600080fd5b506106ef6106ea366004615324565b611696565b6040516102d59190615458565b34801561070857600080fd5b5061067a610717366004615036565b6116d7565b34801561072857600080fd5b50610276610737366004615466565b611744565b34801561074857600080fd5b5061075c610757366004615036565b6117e4565b6040516102d591906155bf565b34801561077557600080fd5b50610789610784366004615036565b611a95565b6040516102d5919061562a565b3480156107a257600080fd5b506102cb6107b1366004615036565b6000908152600160205260409020600d015490565b3480156107d257600080fd5b506102cb6107e1366004615141565b6001600160a01b031660009081526002602052604090205490565b34801561080857600080fd5b5061081c61081736600461582c565b611ad9565b6040516102d59190615861565b34801561083557600080fd5b50610276610844366004615141565b611bef565b34801561085557600080fd5b506102cb610864366004615036565b6000908152600160205260409020600e015490565b34801561088557600080fd5b50610276610894366004615104565b611c65565b3480156108a557600080fd5b506108d26108b4366004615036565b60009081526001602052604090206015015462010000900460ff1690565b6040516102d59190615874565b33600081815260026020526040902054801561094357604051630934f2c360e01b815260206004820152601b60248201527f546865726520697320616e20756e706169642070656e616c747921000000000060448201526064015b60405180910390fd5b8361094d60035490565b81111561096d5760405163347626dd60e21b815260040161093a90615882565b6109778585611d63565b6000610989856101600151601e611dac565b905061099d81670de0b6b3a76400006158c4565b34146109ee57604080516379d3124b60e01b8152600481019190915260176044820152766572726f72203a20496e636f72726563742076616c756560481b606482015234602482015260840161093a565b6109f6610ceb565b505050505050565b610a0781611dcb565b50565b60008281526001602090815260408083206001600160a01b0385168452600f019091529020545b92915050565b84610a4160035490565b811115610a615760405163347626dd60e21b815260040161093a90615882565b6000610a6d8786611696565b9050600781600b811115610a8357610a83615197565b1115610ac55760405163b4644dd960e01b815260206004820152601060248201526f1d5b98589b19481d1bc81cdd589b5a5d60821b604482015260640161093a565b6000610ad48888888888611e0e565b90508015610ae657610ae68782611ea0565b5050505050505050565b610af8611fbe565b610a0781612018565b600082610b0d60035490565b811115610b2d5760405163347626dd60e21b815260040161093a90615882565b6000610b3985856120ee565b9050610b4584826122de565b949350505050565b81610b5760035490565b811115610b775760405163347626dd60e21b815260040161093a90615882565b6000838152600160205260409020601501548390610100900460ff16610bb05760405163b4644dd960e01b815260040161093a906158db565b336000818152600260205260409020548015610c0f57604051630934f2c360e01b815260206004820152601b60248201527f546865726520697320616e20756e706169642070656e616c7479210000000000604482015260640161093a565b610c1a86863361230f565b7f8e913351aa76002e572cc432b46556976f6e10285b52f94909124ea8ebd0b7958686336000604051610c509493929190615921565b60405180910390a1505050505050565b6001600160a01b038116600090815260026020526040902054610c8b90670de0b6b3a76400006158c4565b341115610cd757604080516379d3124b60e01b8152600481019190915260116044820152700ecc2d8eaca40d2e640e8dede40d0d2ced607b1b606482015234602482015260840161093a565b610ce18134612731565b610a078134612759565b604051600090309034908381818185875af1925050503d8060008114610d2d576040519150601f19603f3d011682016040523d82523d6000602084013e610d32565b606091505b5050905080610d715760405162461bcd60e51b815260206004820152600b60248201526a10d85b1b0819985a5b195960aa1b604482015260640161093a565b604080513381523060208201523491810191909152600080516020615d52833981519152906060015b60405180910390a150565b600082610db160035490565b811115610dd15760405163347626dd60e21b815260040161093a90615882565b6000610b398585612891565b610e0a604051806060016040528060006001600160a01b0316815260200160608152602001606081525090565b610e37604051806060016040528060006001600160a01b0316815260200160608152602001606081525090565b60008481526001602090815260408083206001600160a01b0387168452600f0182529182902080548351818402810184019094528084529091830182828015610e9f57602002820191906000526020600020905b815481526020019060010190808311610e8b575b5050505060208301829052505160009067ffffffffffffffff811115610ec757610ec7614b5f565b604051908082528060200260200182016040528015610f0d57816020015b604080518082019091526000815260606020820152815260200190600190039081610ee55790505b50905060005b826020015151811015610f7857610f48868685602001518481518110610f3b57610f3b61595b565b6020026020010151611ad9565b828281518110610f5a57610f5a61595b565b60200260200101819052508080610f7090615971565b915050610f13565b5090949350505050565b84610f8c60035490565b811115610fac5760405163347626dd60e21b815260040161093a90615882565b6000868152600160205260408120600a0154610100900460ff1615610fdc57610fd587866110da565b9050610ff0565b506000868152600160205260409020600b01545b610ffc87878787612995565b83156110d157600061102061101983670de0b6b3a76400006158c4565b6046611dac565b90508034101561107557604080516379d3124b60e01b8152600481019190915260176044820152766572726f72203a20496e636f72726563742076616c756560481b606482015234602482015260840161093a565b61107d610ceb565b600061109961109484670de0b6b3a76400006158c4565b6129be565b905060006110b76110b285670de0b6b3a76400006158c4565b6129cb565b90506110c38983611ea0565b6110cd8682611ea0565b5050505b50505050505050565b6000828152600160205260408120600c018054839081106110fd576110fd61595b565b90600052602060002090600b020160070154905092915050565b61111f611fbe565b61112960006129d8565b565b611133611fbe565b611129612a28565b600081156111645750600082815260016020526040902060138101546011909101541115610a31565b50600082815260016020526040902060148101546012909101541115610a31565b8061118f60035490565b8111156111af5760405163347626dd60e21b815260040161093a90615882565b6111b882612aef565b505050565b6060600060608060008086156112415760008981526001602090815260408083206001600160a01b038c168452600f018252918290208054835181840281018401909452808452909183018282801561123557602002820191906000526020600020905b815481526020019060010190808311611221575b505050505093506112b1565b60008981526001602090815260408083206001600160a01b038c168452601001825291829020805483518184028101840190945280845290918301828280156112a957602002820191906000526020600020905b815481526020019060010190808311611295575b505050505093505b60408051808201909152600081526060602082015260005b85518110156114de5760008b81526001602081815260408084206001600160a01b038f168552600f01909152822088519101919088908490811061130f5761130f61595b565b602002602001015181526020019081526020016000206040518060400160405290816000820160009054906101000a900460ff16600481111561135457611354615197565b600481111561136557611365615197565b81526020016001820180546113799061598a565b80601f01602080910402602001604051908101604052809291908181526020018280546113a59061598a565b80156113f25780601f106113c7576101008083540402835291602001916113f2565b820191906000526020600020905b8154815290600101906020018083116113d557829003601f168201915b50505050508152505091506000600481111561141057611410615197565b8251600481111561142357611423615197565b036114cc5785818151811061143a5761143a61595b565b60200260200101518584815181106114545761145461595b565b60209081029190910101528261146981615971565b935050600160008c8152602001908152602001600020600c018682815181106114945761149461595b565b6020026020010151815481106114ac576114ac61595b565b90600052602060002090600b020160070154846114c991906159be565b93505b806114d681615971565b9150506112c9565b509299919850909650505050505050565b6114f98282612ce3565b5050565b600081815260016020908152604091829020600d0180548351818402810184019094528084526060939283018282801561156057602002820191906000526020600020905b81546001600160a01b03168152600190910190602001808311611542575b50505050509050919050565b8061157660035490565b8111156115965760405163347626dd60e21b815260040161093a90615882565b6111b882612d65565b33600081815260026020526040812054909190801561160157604051630934f2c360e01b815260206004820152601b60248201527f546865726520697320616e20756e706169642070656e616c7479210000000000604482015260640161093a565b61160a84612fff565b92506000611631856101600151670de0b6b3a764000061162a91906158c4565b601e611dac565b90508034101561168657604080516379d3124b60e01b8152600481019190915260176044820152766572726f72203a20496e636f72726563742076616c756560481b606482015234602482015260840161093a565b61168e610ceb565b505050919050565b6000828152600160205260408120600c018054839081106116b9576116b961595b565b60009182526020909120600b909102016009015460ff169392505050565b600081815260016020908152604091829020600e01805483518184028101840190945280845260609392830182828015611560576020028201919060005260206000209081546001600160a01b031681526001909101906020018083116115425750505050509050919050565b8261174e60035490565b81111561176e5760405163347626dd60e21b815260040161093a90615882565b600061177a8585611696565b9050600681600b81111561179057611790615197565b11156117d25760405163b4644dd960e01b815260206004820152601060248201526f1d5b98589b19481d1bc81cdd589b5a5d60821b604482015260640161093a565b6117dd85858561304e565b5050505050565b606060016000838152602001908152602001600020600c01805480602002602001604051908101604052809291908181526020016000905b82821015611a8a57600084815260209020604080516101808101909152600b84029091018054829060a08201908390829082906118589061598a565b80601f01602080910402602001604051908101604052809291908181526020018280546118849061598a565b80156118d15780601f106118a6576101008083540402835291602001916118d1565b820191906000526020600020905b8154815290600101906020018083116118b457829003601f168201915b50505050508152602001600182015481526020016002820154815260200160038201548152602001600482015481526020016005820154815260200160068201805461191c9061598a565b80601f01602080910402602001604051908101604052809291908181526020018280546119489061598a565b80156119955780601f1061196a57610100808354040283529160200191611995565b820191906000526020600020905b81548152906001019060200180831161197857829003601f168201915b5050505050815250508152602001600782015481526020016008820180546119bc9061598a565b80601f01602080910402602001604051908101604052809291908181526020018280546119e89061598a565b8015611a355780601f10611a0a57610100808354040283529160200191611a35565b820191906000526020600020905b815481529060010190602001808311611a1857829003601f168201915b5050509183525050600982015460209091019060ff16600b811115611a5c57611a5c615197565b600b811115611a6d57611a6d615197565b8152602001600a820154815250508152602001906001019061181c565b505050509050919050565b611a9d614a22565b81611aa760035490565b811115611ac75760405163347626dd60e21b815260040161093a90615882565b611ad08361305a565b91505b50919050565b60408051808201909152600081526060602082015260008481526001602081815260408084206001600160a01b0388168552600f01825280842086855290920190529081902081518083019092528054829060ff166004811115611b3f57611b3f615197565b6004811115611b5057611b50615197565b8152602001600182018054611b649061598a565b80601f0160208091040260200160405190810160405280929190818152602001828054611b909061598a565b8015611bdd5780601f10611bb257610100808354040283529160200191611bdd565b820191906000526020600020905b815481529060010190602001808311611bc057829003601f168201915b50505050508152505090509392505050565b611bf7611fbe565b6001600160a01b038116611c5c5760405162461bcd60e51b815260206004820152602660248201527f4f776e61626c653a206e6577206f776e657220697320746865207a65726f206160448201526564647265737360d01b606482015260840161093a565b610a07816129d8565b81611c6f60035490565b811115611c8f5760405163347626dd60e21b815260040161093a90615882565b600083815260016020526040902060150154839060ff16611cc35760405163b4644dd960e01b815260040161093a906158db565b336000818152600260205260409020548015611d2257604051630934f2c360e01b815260206004820152601b60248201527f546865726520697320616e20756e706169642070656e616c7479210000000000604482015260640161093a565b611d2d868633613768565b7f8e913351aa76002e572cc432b46556976f6e10285b52f94909124ea8ebd0b7958686336001604051610c509493929190615921565b611d6d8282613b2b565b7f9096640c11bd5636ced741c9725e5ff774b334455c80e15491f15bb3af0bc265338383604051611da0939291906159d1565b60405180910390a15050565b60006064611dba8484613d3a565b611dc49190615ae2565b9392505050565b60008181526001602052604090819020601501805462ff000019166206000017905551600080516020615d3283398151915290610d9a9083906006903390615b04565b60008215611e8657611e238686338786613d46565b6000868152600160205260409020600a0154610100900460ff168015611e5457611e4d87866110da565b9150611e69565b6000878152600160205260409020600b015491505b611e7e61162a83670de0b6b3a76400006158c4565b915050611e97565b611e938686866001613ee5565b5060005b95945050505050565b80471015611ef05760405162461bcd60e51b815260206004820152601e60248201527f5468652062616c616e6365206973206e6f742073756666696369656e742e0000604482015260640161093a565b6000826001600160a01b03168260405160006040518083038185875af1925050503d8060008114611f3d576040519150601f19603f3d011682016040523d82523d6000602084013e611f42565b606091505b5050905080611f815760405162461bcd60e51b815260206004820152600b60248201526a10d85b1b0819985a5b195960aa1b604482015260640161093a565b604080513081526001600160a01b0385166020820152908101839052600080516020615d52833981519152906060015b60405180910390a1505050565b6000546001600160a01b031633146111295760405162461bcd60e51b815260206004820181905260248201527f4f776e61626c653a2063616c6c6572206973206e6f7420746865206f776e6572604482015260640161093a565b6000736ca0189baf54f88684ed158193021e45745f810e61204183670de0b6b3a76400006158c4565b604051600081818185875af1925050503d806000811461207d576040519150601f19603f3d011682016040523d82523d6000602084013e612082565b606091505b50509050806120c15760405162461bcd60e51b815260206004820152600b60248201526a10d85b1b0819985a5b195960aa1b604482015260640161093a565b604080513081523360208201524791810191909152600080516020615d5283398151915290606001611da0565b600060606000612100858560006111bd565b8151919350915060000361211957600092505050610a31565b612128858584600460006140e0565b6000858152600160205260408120600a0154610100900460ff16156121bc5760005b83518110156121b65761215c8761305a565b6101a001518482815181106121735761217361595b565b60200260200101518151811061218b5761218b61595b565b602002602001015160200151826121a291906159be565b9150806121ae81615971565b91505061214a565b506121cd565b6121c58661305a565b610180015190505b600073__$2753dcdd519b03fd573aecec08c92b1fcb$__634f6ca3ce6121f2846129be565b6040518263ffffffff1660e01b815260040161221091815260200190565b602060405180830381865af415801561222d573d6000803e3d6000fd5b505050506040513d601f19601f820116820180604052508101906122519190615b2f565b604051639ce5c4bf60e01b8152600481018590526024810182905290915060009073__$2753dcdd519b03fd573aecec08c92b1fcb$__90639ce5c4bf90604401602060405180830381865af41580156122ae573d6000803e3d6000fd5b505050506040513d601f19601f820116820180604052508101906122d29190615b2f565b98975050505050505050565b6001600160a01b038216600090815260026020526040812080548392906123069084906159be565b90915550505050565b60008381526001602090815260408083206001600160a01b0385168452601001909152812080549091036123775760008481526001602081815260408320600e018054928301815583529091200180546001600160a01b0319166001600160a01b0384161790555b6000805b84518110156125e65760016000878152602001908152602001600020600c018582815181106123ac576123ac61595b565b6020026020010151815481106123c4576123c461595b565b6000918252602082206009600b90920201015460ff16925082600b8111156123ee576123ee615197565b036124b5576001806000888152602001908152602001600020600c0186838151811061241c5761241c61595b565b6020026020010151815481106124345761243461595b565b90600052602060002090600b020160090160006101000a81548160ff0219169083600b81111561246657612466615197565b0217905550600080516020615d128339815191528686838151811061248d5761248d61595b565b60200260200101516001336040516124a89493929190615b48565b60405180910390a161259f565b600282600b8111156124c9576124c9615197565b0361258457600360016000888152602001908152602001600020600c018683815181106124f8576124f861595b565b6020026020010151815481106125105761251061595b565b90600052602060002090600b020160090160006101000a81548160ff0219169083600b81111561254257612542615197565b0217905550600080516020615d12833981519152868683815181106125695761256961595b565b60200260200101516003336040516124a89493929190615b48565b816040516366f643a560e11b815260040161093a9190615b7b565b826000018582815181106125b5576125b561595b565b60209081029190910181015182546001810184556000938452919092200155806125de81615971565b91505061237b565b50600085815260016020526040812060140180549161260483615971565b919050555061261485600061113b565b156117dd576000858152600160209081526040808320601501805461ff0019169055805188815291820192909252338183015290517f89bb035780742b4fe520972847d93db0618abd46516af218e10fd3479347b7e49181900360600190a161267e85600161113b565b156126da57600085815260016020526040902060150180546003919062ff0000191662010000835b0217905550600080516020615d32833981519152856003336040516126cd93929190615b04565b60405180910390a16117dd565b6000858152600160208190526040909120601501805462ff0000191662010000830217905550600080516020615d328339815191528560013360405161272293929190615b04565b60405180910390a15050505050565b6001600160a01b03821660009081526002602052604081208054839290612306908490615bb0565b600054600160a01b900460ff16156127a95760405162461bcd60e51b81526020600482015260136024820152722a3432903637b1b59034b9903637b1b5b2b21760691b604482015260640161093a565b6000805460ff60a01b1916600160a01b1781556040516001600160a01b0384169083908381818185875af1925050503d8060008114612804576040519150601f19603f3d011682016040523d82523d6000602084013e612809565b606091505b50509050806128485760405162461bcd60e51b815260206004820152600b60248201526a10d85b1b0819985a5b195960aa1b604482015260640161093a565b604080513381526001600160a01b0385166020820152908101839052600080516020615d528339815191529060600160405180910390a150506000805460ff60a01b1916905550565b6000606060006128a3858560016111bd565b815191935091506000036128bc57600092505050610a31565b6128cb858584600460016140e0565b6000858152600160205260408120600a0154610100900460ff161561295f5760005b8351811015612959576128ff8761305a565b6101a001518482815181106129165761291661595b565b60200260200101518151811061292e5761292e61595b565b6020026020010151602001518261294591906159be565b91508061295181615971565b9150506128ed565b50612970565b6129688661305a565b610180015190505b600073__$2753dcdd519b03fd573aecec08c92b1fcb$__634f6ca3ce6121f2846142ac565b80156129ab576129a68484846142b9565b6129b8565b6129b88484846000613ee5565b50505050565b6000610a31826024611dac565b6000610a31826018611dac565b600080546001600160a01b038381166001600160a01b0319831681178455604051919092169283917f8be0079c531659141344cd1fd0a4f28419497f9722a3daafe3b4186f6b6457e09190a35050565b604051600090736ca0189baf54f88684ed158193021e45745f810e9047908381818185875af1925050503d8060008114612a7e576040519150601f19603f3d011682016040523d82523d6000602084013e612a83565b606091505b5050905080612ac25760405162461bcd60e51b815260206004820152600b60248201526a10d85b1b0819985a5b195960aa1b604482015260640161093a565b604080513081523360208201524791810191909152600080516020615d5283398151915290606001610d9a565b6000818152600160205260408120600d01546000612b0c846117e4565b9050612b1984600161113b565b15612b28575060019392505050565b81600003612b4357612b39846143a5565b5060009392505050565b8051826000612b528284615ae2565b90506000612b5f886114fd565b905060005b8551811015612ca0576000868281518110612b8157612b8161595b565b602002602001015160600151600b811115612b9e57612b9e615197565b03612c8e5760005b87811015612c8c5783612bd28b858481518110612bc557612bc561595b565b6020026020010151610a0a565b11612c7a57612bfd8a83858481518110612bee57612bee61595b565b602002602001015160016143ff565b7fad65127436138b4afe97ef23baf28ed14a5fb09500ad117eb196cd3bdb3dbe9f8a83858481518110612c3257612c3261595b565b60200260200101516001604051612c6d949392919093845260208401929092526001600160a01b031660408301521515606082015260800190565b60405180910390a1612c8c565b80612c8481615971565b915050612ba6565b505b80612c9881615971565b915050612b64565b50612caa886143a5565b612cb588600061113b565b15612cca57612cc58860036144e2565b612cd5565b612cd58860026144e2565b506000979650505050505050565b6000828152600160205260409020600c018054600b919083908110612d0a57612d0a61595b565b90600052602060002090600b020160090160006101000a81548160ff0219169083600b811115612d3c57612d3c615197565b0217905550600080516020615d128339815191528282600b33604051611da09493929190615b48565b6000612d6f611fbe565b6000828152600160205260408120600e810154600d909101549091612d93856117e4565b9050612da085600061113b565b15612db057506001949350505050565b82158015612dbd57508115155b15612dd657612dcb8561453a565b506000949350505050565b82158015612de2575081155b15612e3557612df085614595565b60008581526001602052604081208054600b909101546001600160a01b039091169190612e1c9061162a565b9050612e288282611ea0565b5060009695505050505050565b8051836000612e448284615ae2565b90506000612e51896116d7565b905060005b8551811015612fb9576000868281518110612e7357612e7361595b565b602002602001015160600151600b811115612e9057612e90615197565b03612fa75760005b88811015612fa55783612eeb8c858481518110612eb757612eb761595b565b602002602001015160008281526001602090815260408083206001600160a01b038516845260100190915290205492915050565b11612f9357612f168b83858481518110612f0757612f0761595b565b602002602001015160006143ff565b7fad65127436138b4afe97ef23baf28ed14a5fb09500ad117eb196cd3bdb3dbe9f8b83858481518110612f4b57612f4b61595b565b60200260200101516000604051612f86949392919093845260208401929092526001600160a01b031660408301521515606082015260800190565b60405180910390a1612fa5565b80612f9d81615971565b915050612e98565b505b80612fb181615971565b915050612e56565b50612fc38961453a565b612fce89600161113b565b15612fe357612fde8960036144e2565b612fee565b612fee8960016144e2565b50505050600093505050505b919050565b60008061300b8361463b565b90507f9096640c11bd5636ced741c9725e5ff774b334455c80e15491f15bb3af0bc265338285604051613040939291906159d1565b60405180910390a192915050565b6111b8833384846148db565b613062614a22565b61306a614a22565b6000838152600160208181526040832080546001600160a01b031685528083015485830152928690525260020180546130a29061598a565b80601f01602080910402602001604051908101604052809291908181526020018280546130ce9061598a565b801561311b5780601f106130f05761010080835404028352916020019161311b565b820191906000526020600020905b8154815290600101906020018083116130fe57829003601f168201915b5050505060408084019290925250600084815260016020522060030180546131429061598a565b80601f016020809104026020016040519081016040528092919081815260200182805461316e9061598a565b80156131bb5780601f10613190576101008083540402835291602001916131bb565b820191906000526020600020905b81548152906001019060200180831161319e57829003601f168201915b50505050506060820152600083815260016020818152604080842060048101546080870152600581015460a0870152600681015460c08701529387905291815260079092018054825181850281018501909352808352919290919083018282801561324557602002820191906000526020600020905b815481526020019060010190808311613231575b505050505060e0820152600083815260016020818152604083206008810154610100808701919091526009820154610120870152600a82015460ff80821615156101408901529082900481161515610160880152600b83015461018088015260118301546102408801526012830154610260880152601383015461028088015260148301546102a088015260159092015480831615156102c0880152908104821615156102e08701529387905291905261030083019162010000900416600781111561331357613313615197565b9081600781111561332657613326615197565b9052506000838152600160209081526040808320600c0180548251818502810185019093528083529193909284015b828210156135c357600084815260209020604080516101808101909152600b84029091018054829060a08201908390829082906133919061598a565b80601f01602080910402602001604051908101604052809291908181526020018280546133bd9061598a565b801561340a5780601f106133df5761010080835404028352916020019161340a565b820191906000526020600020905b8154815290600101906020018083116133ed57829003601f168201915b5050505050815260200160018201548152602001600282015481526020016003820154815260200160048201548152602001600582015481526020016006820180546134559061598a565b80601f01602080910402602001604051908101604052809291908181526020018280546134819061598a565b80156134ce5780601f106134a3576101008083540402835291602001916134ce565b820191906000526020600020905b8154815290600101906020018083116134b157829003601f168201915b5050505050815250508152602001600782015481526020016008820180546134f59061598a565b80601f01602080910402602001604051908101604052809291908181526020018280546135219061598a565b801561356e5780601f106135435761010080835404028352916020019161356e565b820191906000526020600020905b81548152906001019060200180831161355157829003601f168201915b5050509183525050600982015460209091019060ff16600b81111561359557613595615197565b600b8111156135a6576135a6615197565b8152602001600a8201548152505081526020019060010190613355565b505050506101a08201526000838152600160205260408120600d810154600e9091015490918267ffffffffffffffff81111561360157613601614b5f565b60405190808252806020026020018201604052801561365f57816020015b61364c604051806060016040528060006001600160a01b0316815260200160608152602001606081525090565b81526020019060019003908161361f5790505b50905060008267ffffffffffffffff81111561367d5761367d614b5f565b6040519080825280602002602001820160405280156136db57816020015b6136c8604051806060016040528060006001600160a01b0316815260200160608152602001606081525090565b81526020019060019003908161369b5790505b50905060005b8481101561375c576000888152600160205260409020600d01805461372c918a91849081106137125761371261595b565b6000918252602090912001546001600160a01b0316610ddd565b83828151811061373e5761373e61595b565b6020026020010181905250808061375490615971565b9150506136e1565b50939695505050505050565b60008381526001602090815260408083206001600160a01b0385168452600f01909152812080549091036137d05760008481526001602081815260408320600d018054928301815583529091200180546001600160a01b0319166001600160a01b0384161790555b6000805b8451811015613a255760016000878152602001908152602001600020600c018582815181106138055761380561595b565b60200260200101518154811061381d5761381d61595b565b6000918252602082206009600b90920201015460ff16925082600b81111561384757613847615197565b0361390f57600260016000888152602001908152602001600020600c018683815181106138765761387661595b565b60200260200101518154811061388e5761388e61595b565b90600052602060002090600b020160090160006101000a81548160ff0219169083600b8111156138c0576138c0615197565b0217905550600080516020615d12833981519152868683815181106138e7576138e761595b565b60200260200101516002336040516139029493929190615b48565b60405180910390a16139de565b600182600b81111561392357613923615197565b0361258457600360016000888152602001908152602001600020600c018683815181106139525761395261595b565b60200260200101518154811061396a5761396a61595b565b90600052602060002090600b020160090160006101000a81548160ff0219169083600b81111561399c5761399c615197565b0217905550600080516020615d12833981519152868683815181106139c3576139c361595b565b60200260200101516003336040516139029493929190615b48565b826000018582815181106139f4576139f461595b565b6020908102919091018101518254600181018455600093845291909220015580613a1d81615971565b9150506137d4565b506000858152600160205260408120601301805491613a4383615971565b9190505550613a5385600161113b565b156117dd576000858152600160209081526040808320601501805460ff19169055805188815291820192909252338183015290517f0398fd552105b0090d73611ad526d12979f19b77a7f923343a85d8fd14a13a679181900360600190a1613abc85600061113b565b15613ae857600085815260016020526040902060150180546003919062ff0000191662010000836126a6565b60008581526001602052604090819020601501805462ff000019166202000017905551600080516020615d32833981519152906127229087906002903390615b04565b6000828152600160208181526040909220835191810191909155908201516002820190613b589082615c09565b5060408201516003820190613b6d9082615c09565b50606082015160048201556080820151600582015560a0820151600682015560c08201518051613ba7916007840191602090910190614aff565b5060e08201516008820155610100808301516009830155610160830151600b830155610120830151600a8301805461014086015115801590940261ff00199315159390931661ffff1990911617919091179055613c0f57610180820151516011820155613c17565b600160118201555b60158101805460ff1916600117905560005b826101800151518110156129b85781600c018361018001518281518110613c5257613c5261595b565b602090810291909101810151825460018101845560009384529190922082518051600b9093029091019182908190613c8a9082615c09565b506020820151600182015560408201516002820155606082015160038201556080820151600482015560a0820151600582015560c08201516006820190613cd19082615c09565b5050506020820151600782015560408201516008820190613cf29082615c09565b50606082015160098201805460ff1916600183600b811115613d1657613d16615197565b0217905550608082015181600a015550508080613d3290615971565b915050613c29565b6000611dc482846158c4565b60008581526001602081815260408084206001600160a01b0389168552600f81018352818520878652840190925292839020805460ff1916600390811790915592519092600080516020615d7283398151915292613dab928a928a9289923390615cc9565b60405180910390a1600681600c018481548110613dca57613dca61595b565b90600052602060002090600b020160090160006101000a81548160ff0219169083600b811115613dfc57613dfc615197565b0217905550600080516020615d128339815191528684600633604051613e259493929190615b48565b60405180910390a14281600c018481548110613e4357613e4361595b565b60009182526020808320600a600b9093020191909101929092556001600160a01b038616815260108301825260408082208683526001908101909352902001613e8c8382615c09565b506001600160a01b038416600090815260108201602090815260408083208684526001908101909252808320805460ff19168317905551600080516020615d7283398151915292610c50928a9289928992913390615cc9565b8015613fe65760008481526001602081815260408084206001600160a01b0388168552600f018252808420868552830190915291829020805460ff191660029081179091559151600080516020615d7283398151915292613f4f9288928892889290913390615cc9565b60405180910390a16000848152600160205260409020600c0180546005919084908110613f7e57613f7e61595b565b90600052602060002090600b020160090160006101000a81548160ff0219169083600b811115613fb057613fb0615197565b0217905550600080516020615d128339815191528483600533604051613fd99493929190615b48565b60405180910390a16129b8565b60008481526001602081815260408084206001600160a01b038816855260100182528084208685529092019052808220805460ff191660029081179091559051600080516020615d728339815191529261404892889288928892913390615cc9565b60405180910390a16000848152600160205260409020600c01805460079190849081106140775761407761595b565b90600052602060002090600b020160090160006101000a81548160ff0219169083600b8111156140a9576140a9615197565b0217905550600080516020615d1283398151915284836007336040516140d29493929190615b48565b60405180910390a150505050565b80156141cc5760005b83518110156141c65760008681526001602081815260408084206001600160a01b038a168552600f0190915282208651869391909201918790859081106141325761413261595b565b6020908102919091018101518252810191909152604001600020805460ff1916600183600481111561416657614166615197565b0217905550600080516020615d72833981519152868686848151811061418e5761418e61595b565b6020026020010151866001336040516141ac96959493929190615cc9565b60405180910390a1806141be81615971565b9150506140e9565b506117dd565b60005b83518110156109f65760008681526001602081815260408084206001600160a01b038a16855260100190915282208651869391909201918790859081106142185761421861595b565b6020908102919091018101518252810191909152604001600020805460ff1916600183600481111561424c5761424c615197565b0217905550600080516020615d7283398151915286868684815181106142745761427461595b565b60200260200101518660003360405161429296959493929190615cc9565b60405180910390a1806142a481615971565b9150506141cf565b6000610a31826036611dac565b60008381526001602081815260408084206001600160a01b038716855260100182528084208585529092019052808220805460ff191660039081179091559051600080516020615d728339815191529261431b92879287928792913390615cc9565b60405180910390a16000838152600160205260409020600c018054600891908390811061434a5761434a61595b565b90600052602060002090600b020160090160006101000a81548160ff0219169083600b81111561437c5761437c615197565b0217905550600080516020615d128339815191528382600833604051611fb19493929190615b48565b6000818152600160209081526040808320601501805460ff1916905580518481529182019290925233918101919091527f0398fd552105b0090d73611ad526d12979f19b77a7f923343a85d8fd14a13a6790606001610d9a565b60008115614459575060008481526001602081815260408084206001600160a01b0387168552600f8101835281852088865284018352908420888552929091526013018054919261444f83615971565b91905055506144a7565b5060008481526001602081815260408084206001600160a01b03871685526010810183528185208886528401835290842088855292909152601401805491926144a183615971565b91905055505b505060009283526001602081815260408086206001600160a01b039094168652600f9093018152918420805491820181558452922090910155565b6000828152600160205260409020601501805482919062ff000019166201000083600781111561451457614514615197565b0217905550600080516020615d32833981519152828233604051611da093929190615b04565b6000818152600160209081526040808320601501805461ff001916905580518481529182019290925233918101919091527f89bb035780742b4fe520972847d93db0618abd46516af218e10fd3479347b7e490606001610d9a565b60008181526001602052604090819020601501805462ff000019166205000017905551600080516020615d32833981519152906145d89083906005903390615b04565b60405180910390a16000818152600160209081526040808320601501805461ff001916905580518481529182019290925233918101919091527f0398fd552105b0090d73611ad526d12979f19b77a7f923343a85d8fd14a13a6790606001610d9a565b600380546000918261464c83615971565b9091555050600354600090815260016020818152604090922080546001600160a01b031916331781558451918101919091559083015160028201906146919082615c09565b50604083015160038201906146a69082615c09565b50606083015160048201556080830151600582015560a0830151600682015560c083015180516146e0916007840191602090910190614aff565b5060e08301516008820155610100808401516009830155610160840151600b830155610120840151600a8301805461014087015115801590940261ff00199315159390931661ffff199091161791909117905561474f576101808301515160118201819055601282015561475e565b60016011820181905560128201555b60158101805461ffff191661010117905560005b836101800151518110156148d057600084610180015182815181106147995761479961595b565b602002602001015160600190600b8111156147b6576147b6615197565b9081600b8111156147c9576147c9615197565b8152505081600c0184610180015182815181106147e8576147e861595b565b602090810291909101810151825460018101845560009384529190922082518051600b90930290910191829081906148209082615c09565b506020820151600182015560408201516002820155606082015160038201556080820151600482015560a0820151600582015560c082015160068201906148679082615c09565b50505060208201516007820155604082015160088201906148889082615c09565b50606082015160098201805460ff1916600183600b8111156148ac576148ac615197565b0217905550608082015181600a0155505080806148c890615971565b915050614772565b505060035492915050565b6000848152600160205260409020600c8101805460049190859081106149035761490361595b565b90600052602060002090600b020160090160006101000a81548160ff0219169083600b81111561493557614935615197565b0217905550600080516020615d12833981519152858460043360405161495e9493929190615b48565b60405180910390a14281600c01848154811061497c5761497c61595b565b60009182526020808320600a600b9093020191909101929092556001600160a01b0386168152600f83018252604080822086835260019081019093529020016149c58382615c09565b506001600160a01b0384166000908152600f820160209081526040808320868452600190810190925291829020805460ff1916821790559051600080516020615d7283398151915291612722918891889188919081903390615cc9565b60405180610320016040528060006001600160a01b031681526020016000815260200160608152602001606081526020016000815260200160008152602001600081526020016060815260200160008152602001600081526020016000151581526020016000151581526020016000815260200160608152602001606081526020016060815260200160608152602001606081526020016000815260200160008152602001600081526020016000815260200160001515815260200160001515815260200160006007811115614afa57614afa615197565b905290565b828054828255906000526020600020908101928215614b3a579160200282015b82811115614b3a578251825591602001919060010190614b1f565b50614b46929150614b4a565b5090565b5b80821115614b465760008155600101614b4b565b634e487b7160e01b600052604160045260246000fd5b60405160a0810167ffffffffffffffff81118282101715614b9857614b98614b5f565b60405290565b60405160e0810167ffffffffffffffff81118282101715614b9857614b98614b5f565b6040516101a0810167ffffffffffffffff81118282101715614b9857614b98614b5f565b604051601f8201601f1916810167ffffffffffffffff81118282101715614c0e57614c0e614b5f565b604052919050565b600082601f830112614c2757600080fd5b813567ffffffffffffffff811115614c4157614c41614b5f565b614c54601f8201601f1916602001614be5565b818152846020838601011115614c6957600080fd5b816020850160208301376000918101602001919091529392505050565b600067ffffffffffffffff821115614ca057614ca0614b5f565b5060051b60200190565b600082601f830112614cbb57600080fd5b81356020614cd0614ccb83614c86565b614be5565b82815260059290921b84018101918181019086841115614cef57600080fd5b8286015b84811015614d0a5780358352918301918301614cf3565b509695505050505050565b80358015158114612ffa57600080fd5b8035600c8110612ffa57600080fd5b600082601f830112614d4557600080fd5b81356020614d55614ccb83614c86565b82815260059290921b84018101918181019086841115614d7457600080fd5b8286015b84811015614d0a57803567ffffffffffffffff80821115614d9857600080fd5b90880190601f1960a0838c0382011215614db157600080fd5b614db9614b75565b8784013583811115614dca57600080fd5b840160e0818e0384011215614dde57600080fd5b614de6614b9e565b92508881013584811115614df957600080fd5b614e078e8b83850101614c16565b84525060408101358984015260608101356040840152608080820135606085015260a08201358185015260c082013560a085015260e082013585811115614e4d57600080fd5b614e5b8f8c83860101614c16565b60c08601525092825260408501358983015260608501359284841115614e8057600080fd5b614e8e8e8b86890101614c16565b6040840152614e9e818701614d25565b606084015260a09590950135948201949094528652505050918301918301614d78565b60006101a08284031215614ed457600080fd5b614edc614bc1565b905081358152602082013567ffffffffffffffff80821115614efd57600080fd5b614f0985838601614c16565b60208401526040840135915080821115614f2257600080fd5b614f2e85838601614c16565b6040840152606084013560608401526080840135608084015260a084013560a084015260c0840135915080821115614f6557600080fd5b614f7185838601614caa565b60c084015260e0848101359084015261010080850135908401526101209150614f9b828501614d15565b828401526101409150614faf828501614d15565b828401526101609150818401358284015261018091508184013581811115614fd657600080fd5b614fe286828701614d34565b8385015250505092915050565b6000806040838503121561500257600080fd5b82359150602083013567ffffffffffffffff81111561502057600080fd5b61502c85828601614ec1565b9150509250929050565b60006020828403121561504857600080fd5b5035919050565b80356001600160a01b0381168114612ffa57600080fd5b6000806040838503121561507957600080fd5b823591506150896020840161504f565b90509250929050565b600080600080600060a086880312156150aa57600080fd5b853594506150ba6020870161504f565b9350604086013592506150cf60608701614d15565b9150608086013567ffffffffffffffff8111156150eb57600080fd5b6150f788828901614c16565b9150509295509295909350565b6000806040838503121561511757600080fd5b82359150602083013567ffffffffffffffff81111561513557600080fd5b61502c85828601614caa565b60006020828403121561515357600080fd5b611dc48261504f565b600081518084526020808501945080840160005b8381101561518c57815187529582019590820190600101615170565b509495945050505050565b634e487b7160e01b600052602160045260246000fd5b600581106151bd576151bd615197565b9052565b6000815180845260005b818110156151e7576020818501810151868301820152016151cb565b506000602082860101526020601f19601f83011685010191505092915050565b6152128282516151ad565b6000602082015160406020850152610b4560408501826151c1565b6001600160a01b0381511682526000602080830151606082860152615255606086018261515c565b9050604084015185820360408701528181518084528484019150848160051b850101858401935060005b828110156152ad57601f1986830301845261529b828651615207565b9487019493870193915060010161527f565b5098975050505050505050565b602081526000611dc4602083018461522d565b600080600080600060a086880312156152e557600080fd5b853594506152f56020870161504f565b93506040860135925061530a60608701614d15565b91506153186080870161504f565b90509295509295909350565b6000806040838503121561533757600080fd5b50508035926020909101359150565b6000806040838503121561535957600080fd5b8235915061508960208401614d15565b60008060006060848603121561537e57600080fd5b8335925061538e6020850161504f565b915061539c60408501614d15565b90509250925092565b6040815260006153b8604083018561515c565b90508260208301529392505050565b600081518084526020808501945080840160005b8381101561518c5781516001600160a01b0316875295820195908201906001016153db565b602081526000611dc460208301846153c7565b60006020828403121561542557600080fd5b813567ffffffffffffffff81111561543c57600080fd5b610b4584828501614ec1565b600c81106151bd576151bd615197565b60208101610a318284615448565b60008060006060848603121561547b57600080fd5b8335925060208401359150604084013567ffffffffffffffff8111156154a057600080fd5b6154ac86828701614c16565b9150509250925092565b600081518084526020808501808196508360051b8101915082860160005b858110156155b2578284038952815160a08151818752805160e080848a01526155016101808a01836151c1565b91508983015160c081818c01526040915081850151838c015260609250828501516101008c01526080808601516101208d0152868601516101408d0152818601519650609f198c8603016101608d015261555b85886151c1565b96508c8801518d8d01528288015195508b8703838d015261557c87876151c1565b9650838801519550615590848d0187615448565b968701519a9096019990995250505099860199945050908401906001016154d4565b5091979650505050505050565b602081526000611dc460208301846154b6565b600081518084526020808501808196508360051b8101915082860160005b858110156155b257828403895261560884835161522d565b988501989350908401906001016155f0565b600881106151bd576151bd615197565b602081526156446020820183516001600160a01b03169052565b602082015160408201526000604083015161032080606085015261566c6103408501836151c1565b91506060850151601f198086850301608087015261568a84836151c1565b9350608087015160a087015260a087015160c087015260c087015160e087015260e087015191506101008187860301818801526156c7858461515c565b90880151610120888101919091528801516101408089019190915288015190945091506101606156fa8188018415159052565b870151915061018061570f8782018415159052565b808801519250506101a08281880152808801519250506101c081878603018188015261573b85846154b6565b9450808801519250506101e081878603018188015261575a85846153c7565b94508088015192505061020081878603018188015261577985846153c7565b94508088015192505061022081878603018188015261579885846155d2565b9450808801519250506102408187860301818801526157b785846155d2565b9088015161026088810191909152880151610280808901919091528801516102a0808901919091528801516102c08089019190915288015190945091506102e090506158068187018315159052565b860151905061030061581b8682018315159052565b8601519050610f788583018261561a565b60008060006060848603121561584157600080fd5b833592506158516020850161504f565b9150604084013590509250925092565b602081526000611dc46020830184615207565b60208101610a31828461561a565b60208082526012908201527157726f6e6720696e6465782076616c75652160701b604082015260600190565b634e487b7160e01b600052601160045260246000fd5b8082028115828204841417610a3157610a316158ae565b60208082526026908201527f4f7065726174696f6e457863657074696f6e3a2043616e27742072656365697660408201526565207461736b60d01b606082015260800190565b84815260806020820152600061593a608083018661515c565b6001600160a01b039490941660408301525090151560609091015292915050565b634e487b7160e01b600052603260045260246000fd5b600060018201615983576159836158ae565b5060010190565b600181811c9082168061599e57607f821691505b602082108103611ad357634e487b7160e01b600052602260045260246000fd5b80820180821115610a3157610a316158ae565b6001600160a01b03841681528260208201526060604082015281516060820152600060208301516101a0806080850152615a0f6102008501836151c1565b91506040850151605f19808685030160a0870152615a2d84836151c1565b9350606087015160c0870152608087015160e087015260a08701519150610100828188015260c08801519250610120828887030181890152615a6f868561515c565b60e08a01516101408a810191909152928a0151610160808b0191909152918a015190965093509061018090615aa7828a018615159052565b8901511515948801949094528701516101c0870152918601518584039092016101e086015250615ad782826154b6565b979650505050505050565b600082615aff57634e487b7160e01b600052601260045260246000fd5b500490565b83815260608101615b18602083018561561a565b6001600160a01b0383166040830152949350505050565b600060208284031215615b4157600080fd5b5051919050565b8481526020810184905260808101615b636040830185615448565b6001600160a01b038316606083015295945050505050565b60408082526010908201526f4572726f722066696c6520737461746560801b606082015260808101610a316020830184615448565b81810381811115610a3157610a316158ae565b601f8211156111b857600081815260208120601f850160051c81016020861015615bea5750805b601f850160051c820191505b818110156109f657828155600101615bf6565b815167ffffffffffffffff811115615c2357615c23614b5f565b615c3781615c31845461598a565b84615bc3565b602080601f831160018114615c6c5760008415615c545750858301515b600019600386901b1c1916600185901b1785556109f6565b600085815260208120601f198616915b82811015615c9b57888601518255948401946001909101908401615c7c565b5085821015615cb95787850151600019600388901b60f8161c191681555b5050505050600190811b01905550565b8681526001600160a01b0386811660208301526040820186905260c0820190615cf560608401876151ad565b841515608084015280841660a08401525097965050505050505056fe188fff7234f3bb35c4f436313ec14267725515e4ca367843cd416621a72fb8a3dea20a6d822b68d598b7ab4fd45418a7ca7b103f12d300bcc3b56a7b94d9ed33b37bd6f3ccfce130859d4569dc432409f423a7928e73eb5c5049a94e40f0c6484b906571b20f3dcdf826b53f3c66528e252b2eb87de3cb812f18e6859e119344a26469706673582212204f7ebc8e24131fdfbf13a9b25f7759615f0b9edbac73741aed618c12163f753664736f6c63430008110033",
			"opcodes": "PUSH1 0x80 PUSH1 0x40 MSTORE CALLVALUE DUP1 ISZERO PUSH3 0x11 JUMPI PUSH1 0x0 DUP1 REVERT JUMPDEST POP PUSH3 0x1D CALLER PUSH3 0x23 JUMP JUMPDEST PUSH3 0x73 JUMP JUMPDEST PUSH1 0x0 DUP1 SLOAD PUSH1 0x1 PUSH1 0x1 PUSH1 0xA0 SHL SUB DUP4 DUP2 AND PUSH1 0x1 PUSH1 0x1 PUSH1 0xA0 SHL SUB NOT DUP4 AND DUP2 OR DUP5 SSTORE PUSH1 0x40 MLOAD SWAP2 SWAP1 SWAP3 AND SWAP3 DUP4 SWAP2 PUSH32 0x8BE0079C531659141344CD1FD0A4F28419497F9722A3DAAFE3B4186F6B6457E0 SWAP2 SWAP1 LOG3 POP POP JUMP JUMPDEST PUSH2 0x5DC7 DUP1 PUSH3 0x83 PUSH1 0x0 CODECOPY PUSH1 0x0 RETURN INVALID PUSH1 0x80 PUSH1 0x40 MSTORE PUSH1 0x4 CALLDATASIZE LT PUSH2 0x26F JUMPI PUSH1 0x0 CALLDATALOAD PUSH1 0xE0 SHR DUP1 PUSH4 0x8A9A9FF3 GT PUSH2 0x152 JUMPI DUP1 PUSH4 0xB647EEC3 GT PUSH2 0xBD JUMPI DUP1 PUSH4 0xD3D7BC3B GT PUSH2 0x84 JUMPI DUP1 PUSH4 0xF8626EBB GT PUSH2 0x61 JUMPI DUP1 PUSH4 0xF8626EBB EQ PUSH2 0x849 JUMPI DUP1 PUSH4 0xFA4C6473 EQ PUSH2 0x879 JUMPI DUP1 PUSH4 0xFFCCE776 EQ PUSH2 0x899 JUMPI STOP JUMPDEST DUP1 PUSH4 0xD3D7BC3B EQ PUSH2 0x7C6 JUMPI DUP1 PUSH4 0xDC9F29CB EQ PUSH2 0x7FC JUMPI DUP1 PUSH4 0xF2FDE38B EQ PUSH2 0x829 JUMPI STOP JUMPDEST DUP1 PUSH4 0xB647EEC3 EQ PUSH2 0x6FC JUMPI DUP1 PUSH4 0xBB0C38C0 EQ PUSH2 0x71C JUMPI DUP1 PUSH4 0xCF8F4BE2 EQ PUSH2 0x73C JUMPI DUP1 PUSH4 0xD1A1B999 EQ PUSH2 0x769 JUMPI DUP1 PUSH4 0xD2FED69C EQ PUSH2 0x796 JUMPI STOP JUMPDEST DUP1 PUSH4 0x97601EFB GT PUSH2 0x119 JUMPI DUP1 PUSH4 0xA87D942C GT PUSH2 0xF6 JUMPI DUP1 PUSH4 0xA87D942C EQ PUSH2 0x6A7 JUMPI DUP1 PUSH4 0xAC35CD61 EQ PUSH2 0x6BC JUMPI DUP1 PUSH4 0xAD607C72 EQ PUSH2 0x6CF JUMPI STOP JUMPDEST DUP1 PUSH4 0x97601EFB EQ PUSH2 0x63A JUMPI DUP1 PUSH4 0x983A12A8 EQ PUSH2 0x65A JUMPI DUP1 PUSH4 0xA55AF701 EQ PUSH2 0x687 JUMPI STOP JUMPDEST DUP1 PUSH4 0x8A9A9FF3 EQ PUSH2 0x57B JUMPI DUP1 PUSH4 0x8ADC74A5 EQ PUSH2 0x59B JUMPI DUP1 PUSH4 0x8B3F3A6F EQ PUSH2 0x5BB JUMPI DUP1 PUSH4 0x8DA5CB5B EQ PUSH2 0x5E9 JUMPI DUP1 PUSH4 0x9722F099 EQ PUSH2 0x607 JUMPI STOP JUMPDEST DUP1 PUSH4 0x546677AA GT PUSH2 0x1F2 JUMPI DUP1 PUSH4 0x64A1ED07 GT PUSH2 0x1B9 JUMPI DUP1 PUSH4 0x790485F9 GT PUSH2 0x196 JUMPI DUP1 PUSH4 0x790485F9 EQ PUSH2 0x4E7 JUMPI DUP1 PUSH4 0x7C34EB85 EQ PUSH2 0x52E JUMPI DUP1 PUSH4 0x853828B6 EQ PUSH2 0x566 JUMPI STOP JUMPDEST DUP1 PUSH4 0x64A1ED07 EQ PUSH2 0x482 JUMPI DUP1 PUSH4 0x6E973982 EQ PUSH2 0x4A2 JUMPI DUP1 PUSH4 0x715018A6 EQ PUSH2 0x4D2 JUMPI STOP JUMPDEST DUP1 PUSH4 0x546677AA EQ PUSH2 0x38C JUMPI DUP1 PUSH4 0x5B0EF140 EQ PUSH2 0x3D4 JUMPI DUP1 PUSH4 0x5BF608B8 EQ PUSH2 0x3F4 JUMPI DUP1 PUSH4 0x5FED5EB2 EQ PUSH2 0x442 JUMPI DUP1 PUSH4 0x627A62F3 EQ PUSH2 0x46F JUMPI STOP JUMPDEST DUP1 PUSH4 0x2E1A7D4D GT PUSH2 0x236 JUMPI DUP1 PUSH4 0x2E1A7D4D EQ PUSH2 0x311 JUMPI DUP1 PUSH4 0x36D61AE0 EQ PUSH2 0x331 JUMPI DUP1 PUSH4 0x3BD14E13 EQ PUSH2 0x351 JUMPI DUP1 PUSH4 0x3EDFA229 EQ PUSH2 0x371 JUMPI DUP1 PUSH4 0x460968DD EQ PUSH2 0x384 JUMPI STOP JUMPDEST DUP1 PUSH4 0x9A02F58 EQ PUSH2 0x278 JUMPI DUP1 PUSH4 0x1201DFC6 EQ PUSH2 0x28B JUMPI DUP1 PUSH4 0x193620E7 EQ PUSH2 0x2AB JUMPI DUP1 PUSH4 0x22968885 EQ PUSH2 0x2DE JUMPI DUP1 PUSH4 0x243634BF EQ PUSH2 0x2F1 JUMPI STOP JUMPDEST CALLDATASIZE PUSH2 0x276 JUMPI STOP JUMPDEST STOP JUMPDEST PUSH2 0x276 PUSH2 0x286 CALLDATASIZE PUSH1 0x4 PUSH2 0x4FEF JUMP JUMPDEST PUSH2 0x8DF JUMP JUMPDEST CALLVALUE DUP1 ISZERO PUSH2 0x297 JUMPI PUSH1 0x0 DUP1 REVERT JUMPDEST POP PUSH2 0x276 PUSH2 0x2A6 CALLDATASIZE PUSH1 0x4 PUSH2 0x5036 JUMP JUMPDEST PUSH2 0x9FE JUMP JUMPDEST CALLVALUE DUP1 ISZERO PUSH2 0x2B7 JUMPI PUSH1 0x0 DUP1 REVERT JUMPDEST POP PUSH2 0x2CB PUSH2 0x2C6 CALLDATASIZE PUSH1 0x4 PUSH2 0x5066 JUMP JUMPDEST PUSH2 0xA0A JUMP JUMPDEST PUSH1 0x40 MLOAD SWAP1 DUP2 MSTORE PUSH1 0x20 ADD JUMPDEST PUSH1 0x40 MLOAD DUP1 SWAP2 SUB SWAP1 RETURN JUMPDEST CALLVALUE DUP1 ISZERO PUSH2 0x2EA JUMPI PUSH1 0x0 DUP1 REVERT JUMPDEST POP SELFBALANCE PUSH2 0x2CB JUMP JUMPDEST CALLVALUE DUP1 ISZERO PUSH2 0x2FD JUMPI PUSH1 0x0 DUP1 REVERT JUMPDEST POP PUSH2 0x276 PUSH2 0x30C CALLDATASIZE PUSH1 0x4 PUSH2 0x5092 JUMP JUMPDEST PUSH2 0xA37 JUMP JUMPDEST CALLVALUE DUP1 ISZERO PUSH2 0x31D JUMPI PUSH1 0x0 DUP1 REVERT JUMPDEST POP PUSH2 0x276 PUSH2 0x32C CALLDATASIZE PUSH1 0x4 PUSH2 0x5036 JUMP JUMPDEST PUSH2 0xAF0 JUMP JUMPDEST CALLVALUE DUP1 ISZERO PUSH2 0x33D JUMPI PUSH1 0x0 DUP1 REVERT JUMPDEST POP PUSH2 0x2CB PUSH2 0x34C CALLDATASIZE PUSH1 0x4 PUSH2 0x5066 JUMP JUMPDEST PUSH2 0xB01 JUMP JUMPDEST CALLVALUE DUP1 ISZERO PUSH2 0x35D JUMPI PUSH1 0x0 DUP1 REVERT JUMPDEST POP PUSH2 0x276 PUSH2 0x36C CALLDATASIZE PUSH1 0x4 PUSH2 0x5104 JUMP JUMPDEST PUSH2 0xB4D JUMP JUMPDEST PUSH2 0x276 PUSH2 0x37F CALLDATASIZE PUSH1 0x4 PUSH2 0x5141 JUMP JUMPDEST PUSH2 0xC60 JUMP JUMPDEST PUSH2 0x276 PUSH2 0xCEB JUMP JUMPDEST CALLVALUE DUP1 ISZERO PUSH2 0x398 JUMPI PUSH1 0x0 DUP1 REVERT JUMPDEST POP PUSH2 0x3C4 PUSH2 0x3A7 CALLDATASIZE PUSH1 0x4 PUSH2 0x5036 JUMP JUMPDEST PUSH1 0x0 SWAP1 DUP2 MSTORE PUSH1 0x1 PUSH1 0x20 MSTORE PUSH1 0x40 SWAP1 KECCAK256 PUSH1 0x15 ADD SLOAD PUSH2 0x100 SWAP1 DIV PUSH1 0xFF AND SWAP1 JUMP JUMPDEST PUSH1 0x40 MLOAD SWAP1 ISZERO ISZERO DUP2 MSTORE PUSH1 0x20 ADD PUSH2 0x2D5 JUMP JUMPDEST CALLVALUE DUP1 ISZERO PUSH2 0x3E0 JUMPI PUSH1 0x0 DUP1 REVERT JUMPDEST POP PUSH2 0x2CB PUSH2 0x3EF CALLDATASIZE PUSH1 0x4 PUSH2 0x5066 JUMP JUMPDEST PUSH2 0xDA5 JUMP JUMPDEST CALLVALUE DUP1 ISZERO PUSH2 0x400 JUMPI PUSH1 0x0 DUP1 REVERT JUMPDEST POP PUSH2 0x42A PUSH2 0x40F CALLDATASIZE PUSH1 0x4 PUSH2 0x5036 JUMP JUMPDEST PUSH1 0x0 SWAP1 DUP2 MSTORE PUSH1 0x1 PUSH1 0x20 MSTORE PUSH1 0x40 SWAP1 KECCAK256 SLOAD PUSH1 0x1 PUSH1 0x1 PUSH1 0xA0 SHL SUB AND SWAP1 JUMP JUMPDEST PUSH1 0x40 MLOAD PUSH1 0x1 PUSH1 0x1 PUSH1 0xA0 SHL SUB SWAP1 SWAP2 AND DUP2 MSTORE PUSH1 0x20 ADD PUSH2 0x2D5 JUMP JUMPDEST CALLVALUE DUP1 ISZERO PUSH2 0x44E JUMPI PUSH1 0x0 DUP1 REVERT JUMPDEST POP PUSH2 0x462 PUSH2 0x45D CALLDATASIZE PUSH1 0x4 PUSH2 0x5066 JUMP JUMPDEST PUSH2 0xDDD JUMP JUMPDEST PUSH1 0x40 MLOAD PUSH2 0x2D5 SWAP2 SWAP1 PUSH2 0x52BA JUMP JUMPDEST PUSH2 0x276 PUSH2 0x47D CALLDATASIZE PUSH1 0x4 PUSH2 0x52CD JUMP JUMPDEST PUSH2 0xF82 JUMP JUMPDEST CALLVALUE DUP1 ISZERO PUSH2 0x48E JUMPI PUSH1 0x0 DUP1 REVERT JUMPDEST POP PUSH2 0x2CB PUSH2 0x49D CALLDATASIZE PUSH1 0x4 PUSH2 0x5324 JUMP JUMPDEST PUSH2 0x10DA JUMP JUMPDEST CALLVALUE DUP1 ISZERO PUSH2 0x4AE JUMPI PUSH1 0x0 DUP1 REVERT JUMPDEST POP PUSH2 0x2CB PUSH2 0x4BD CALLDATASIZE PUSH1 0x4 PUSH2 0x5036 JUMP JUMPDEST PUSH1 0x0 SWAP1 DUP2 MSTORE PUSH1 0x1 PUSH1 0x20 MSTORE PUSH1 0x40 SWAP1 KECCAK256 PUSH1 0xB ADD SLOAD SWAP1 JUMP JUMPDEST CALLVALUE DUP1 ISZERO PUSH2 0x4DE JUMPI PUSH1 0x0 DUP1 REVERT JUMPDEST POP PUSH2 0x276 PUSH2 0x1117 JUMP JUMPDEST CALLVALUE DUP1 ISZERO PUSH2 0x4F3 JUMPI PUSH1 0x0 DUP1 REVERT JUMPDEST POP PUSH2 0x2CB PUSH2 0x502 CALLDATASIZE PUSH1 0x4 PUSH2 0x5066 JUMP JUMPDEST PUSH1 0x0 DUP3 DUP2 MSTORE PUSH1 0x1 PUSH1 0x20 SWAP1 DUP2 MSTORE PUSH1 0x40 DUP1 DUP4 KECCAK256 PUSH1 0x1 PUSH1 0x1 PUSH1 0xA0 SHL SUB DUP6 AND DUP5 MSTORE PUSH1 0x10 ADD SWAP1 SWAP2 MSTORE SWAP1 KECCAK256 SLOAD SWAP3 SWAP2 POP POP JUMP JUMPDEST CALLVALUE DUP1 ISZERO PUSH2 0x53A JUMPI PUSH1 0x0 DUP1 REVERT JUMPDEST POP PUSH2 0x3C4 PUSH2 0x549 CALLDATASIZE PUSH1 0x4 PUSH2 0x5036 JUMP JUMPDEST PUSH1 0x0 SWAP1 DUP2 MSTORE PUSH1 0x1 PUSH1 0x20 MSTORE PUSH1 0x40 SWAP1 KECCAK256 PUSH1 0xA ADD SLOAD PUSH2 0x100 SWAP1 DIV PUSH1 0xFF AND SWAP1 JUMP JUMPDEST CALLVALUE DUP1 ISZERO PUSH2 0x572 JUMPI PUSH1 0x0 DUP1 REVERT JUMPDEST POP PUSH2 0x276 PUSH2 0x112B JUMP JUMPDEST CALLVALUE DUP1 ISZERO PUSH2 0x587 JUMPI PUSH1 0x0 DUP1 REVERT JUMPDEST POP PUSH2 0x3C4 PUSH2 0x596 CALLDATASIZE PUSH1 0x4 PUSH2 0x5346 JUMP JUMPDEST PUSH2 0x113B JUMP JUMPDEST CALLVALUE DUP1 ISZERO PUSH2 0x5A7 JUMPI PUSH1 0x0 DUP1 REVERT JUMPDEST POP PUSH2 0x276 PUSH2 0x5B6 CALLDATASIZE PUSH1 0x4 PUSH2 0x5036 JUMP JUMPDEST PUSH2 0x1185 JUMP JUMPDEST CALLVALUE DUP1 ISZERO PUSH2 0x5C7 JUMPI PUSH1 0x0 DUP1 REVERT JUMPDEST POP PUSH2 0x5DB PUSH2 0x5D6 CALLDATASIZE PUSH1 0x4 PUSH2 0x5369 JUMP JUMPDEST PUSH2 0x11BD JUMP JUMPDEST PUSH1 0x40 MLOAD PUSH2 0x2D5 SWAP3 SWAP2 SWAP1 PUSH2 0x53A5 JUMP JUMPDEST CALLVALUE DUP1 ISZERO PUSH2 0x5F5 JUMPI PUSH1 0x0 DUP1 REVERT JUMPDEST POP PUSH1 0x0 SLOAD PUSH1 0x1 PUSH1 0x1 PUSH1 0xA0 SHL SUB AND PUSH2 0x42A JUMP JUMPDEST CALLVALUE DUP1 ISZERO PUSH2 0x613 JUMPI PUSH1 0x0 DUP1 REVERT JUMPDEST POP PUSH2 0x3C4 PUSH2 0x622 CALLDATASIZE PUSH1 0x4 PUSH2 0x5036 JUMP JUMPDEST PUSH1 0x0 SWAP1 DUP2 MSTORE PUSH1 0x1 PUSH1 0x20 MSTORE PUSH1 0x40 SWAP1 KECCAK256 PUSH1 0x15 ADD SLOAD PUSH1 0xFF AND SWAP1 JUMP JUMPDEST CALLVALUE DUP1 ISZERO PUSH2 0x646 JUMPI PUSH1 0x0 DUP1 REVERT JUMPDEST POP PUSH2 0x276 PUSH2 0x655 CALLDATASIZE PUSH1 0x4 PUSH2 0x5324 JUMP JUMPDEST PUSH2 0x14EF JUMP JUMPDEST CALLVALUE DUP1 ISZERO PUSH2 0x666 JUMPI PUSH1 0x0 DUP1 REVERT JUMPDEST POP PUSH2 0x67A PUSH2 0x675 CALLDATASIZE PUSH1 0x4 PUSH2 0x5036 JUMP JUMPDEST PUSH2 0x14FD JUMP JUMPDEST PUSH1 0x40 MLOAD PUSH2 0x2D5 SWAP2 SWAP1 PUSH2 0x5400 JUMP JUMPDEST CALLVALUE DUP1 ISZERO PUSH2 0x693 JUMPI PUSH1 0x0 DUP1 REVERT JUMPDEST POP PUSH2 0x276 PUSH2 0x6A2 CALLDATASIZE PUSH1 0x4 PUSH2 0x5036 JUMP JUMPDEST PUSH2 0x156C JUMP JUMPDEST CALLVALUE DUP1 ISZERO PUSH2 0x6B3 JUMPI PUSH1 0x0 DUP1 REVERT JUMPDEST POP PUSH1 0x3 SLOAD PUSH2 0x2CB JUMP JUMPDEST PUSH2 0x2CB PUSH2 0x6CA CALLDATASIZE PUSH1 0x4 PUSH2 0x5413 JUMP JUMPDEST PUSH2 0x159F JUMP JUMPDEST CALLVALUE DUP1 ISZERO PUSH2 0x6DB JUMPI PUSH1 0x0 DUP1 REVERT JUMPDEST POP PUSH2 0x6EF PUSH2 0x6EA CALLDATASIZE PUSH1 0x4 PUSH2 0x5324 JUMP JUMPDEST PUSH2 0x1696 JUMP JUMPDEST PUSH1 0x40 MLOAD PUSH2 0x2D5 SWAP2 SWAP1 PUSH2 0x5458 JUMP JUMPDEST CALLVALUE DUP1 ISZERO PUSH2 0x708 JUMPI PUSH1 0x0 DUP1 REVERT JUMPDEST POP PUSH2 0x67A PUSH2 0x717 CALLDATASIZE PUSH1 0x4 PUSH2 0x5036 JUMP JUMPDEST PUSH2 0x16D7 JUMP JUMPDEST CALLVALUE DUP1 ISZERO PUSH2 0x728 JUMPI PUSH1 0x0 DUP1 REVERT JUMPDEST POP PUSH2 0x276 PUSH2 0x737 CALLDATASIZE PUSH1 0x4 PUSH2 0x5466 JUMP JUMPDEST PUSH2 0x1744 JUMP JUMPDEST CALLVALUE DUP1 ISZERO PUSH2 0x748 JUMPI PUSH1 0x0 DUP1 REVERT JUMPDEST POP PUSH2 0x75C PUSH2 0x757 CALLDATASIZE PUSH1 0x4 PUSH2 0x5036 JUMP JUMPDEST PUSH2 0x17E4 JUMP JUMPDEST PUSH1 0x40 MLOAD PUSH2 0x2D5 SWAP2 SWAP1 PUSH2 0x55BF JUMP JUMPDEST CALLVALUE DUP1 ISZERO PUSH2 0x775 JUMPI PUSH1 0x0 DUP1 REVERT JUMPDEST POP PUSH2 0x789 PUSH2 0x784 CALLDATASIZE PUSH1 0x4 PUSH2 0x5036 JUMP JUMPDEST PUSH2 0x1A95 JUMP JUMPDEST PUSH1 0x40 MLOAD PUSH2 0x2D5 SWAP2 SWAP1 PUSH2 0x562A JUMP JUMPDEST CALLVALUE DUP1 ISZERO PUSH2 0x7A2 JUMPI PUSH1 0x0 DUP1 REVERT JUMPDEST POP PUSH2 0x2CB PUSH2 0x7B1 CALLDATASIZE PUSH1 0x4 PUSH2 0x5036 JUMP JUMPDEST PUSH1 0x0 SWAP1 DUP2 MSTORE PUSH1 0x1 PUSH1 0x20 MSTORE PUSH1 0x40 SWAP1 KECCAK256 PUSH1 0xD ADD SLOAD SWAP1 JUMP JUMPDEST CALLVALUE DUP1 ISZERO PUSH2 0x7D2 JUMPI PUSH1 0x0 DUP1 REVERT JUMPDEST POP PUSH2 0x2CB PUSH2 0x7E1 CALLDATASIZE PUSH1 0x4 PUSH2 0x5141 JUMP JUMPDEST PUSH1 0x1 PUSH1 0x1 PUSH1 0xA0 SHL SUB AND PUSH1 0x0 SWAP1 DUP2 MSTORE PUSH1 0x2 PUSH1 0x20 MSTORE PUSH1 0x40 SWAP1 KECCAK256 SLOAD SWAP1 JUMP JUMPDEST CALLVALUE DUP1 ISZERO PUSH2 0x808 JUMPI PUSH1 0x0 DUP1 REVERT JUMPDEST POP PUSH2 0x81C PUSH2 0x817 CALLDATASIZE PUSH1 0x4 PUSH2 0x582C JUMP JUMPDEST PUSH2 0x1AD9 JUMP JUMPDEST PUSH1 0x40 MLOAD PUSH2 0x2D5 SWAP2 SWAP1 PUSH2 0x5861 JUMP JUMPDEST CALLVALUE DUP1 ISZERO PUSH2 0x835 JUMPI PUSH1 0x0 DUP1 REVERT JUMPDEST POP PUSH2 0x276 PUSH2 0x844 CALLDATASIZE PUSH1 0x4 PUSH2 0x5141 JUMP JUMPDEST PUSH2 0x1BEF JUMP JUMPDEST CALLVALUE DUP1 ISZERO PUSH2 0x855 JUMPI PUSH1 0x0 DUP1 REVERT JUMPDEST POP PUSH2 0x2CB PUSH2 0x864 CALLDATASIZE PUSH1 0x4 PUSH2 0x5036 JUMP JUMPDEST PUSH1 0x0 SWAP1 DUP2 MSTORE PUSH1 0x1 PUSH1 0x20 MSTORE PUSH1 0x40 SWAP1 KECCAK256 PUSH1 0xE ADD SLOAD SWAP1 JUMP JUMPDEST CALLVALUE DUP1 ISZERO PUSH2 0x885 JUMPI PUSH1 0x0 DUP1 REVERT JUMPDEST POP PUSH2 0x276 PUSH2 0x894 CALLDATASIZE PUSH1 0x4 PUSH2 0x5104 JUMP JUMPDEST PUSH2 0x1C65 JUMP JUMPDEST CALLVALUE DUP1 ISZERO PUSH2 0x8A5 JUMPI PUSH1 0x0 DUP1 REVERT JUMPDEST POP PUSH2 0x8D2 PUSH2 0x8B4 CALLDATASIZE PUSH1 0x4 PUSH2 0x5036 JUMP JUMPDEST PUSH1 0x0 SWAP1 DUP2 MSTORE PUSH1 0x1 PUSH1 0x20 MSTORE PUSH1 0x40 SWAP1 KECCAK256 PUSH1 0x15 ADD SLOAD PUSH3 0x10000 SWAP1 DIV PUSH1 0xFF AND SWAP1 JUMP JUMPDEST PUSH1 0x40 MLOAD PUSH2 0x2D5 SWAP2 SWAP1 PUSH2 0x5874 JUMP JUMPDEST CALLER PUSH1 0x0 DUP2 DUP2 MSTORE PUSH1 0x2 PUSH1 0x20 MSTORE PUSH1 0x40 SWAP1 KECCAK256 SLOAD DUP1 ISZERO PUSH2 0x943 JUMPI PUSH1 0x40 MLOAD PUSH4 0x934F2C3 PUSH1 0xE0 SHL DUP2 MSTORE PUSH1 0x20 PUSH1 0x4 DUP3 ADD MSTORE PUSH1 0x1B PUSH1 0x24 DUP3 ADD MSTORE PUSH32 0x546865726520697320616E20756E706169642070656E616C7479210000000000 PUSH1 0x44 DUP3 ADD MSTORE PUSH1 0x64 ADD JUMPDEST PUSH1 0x40 MLOAD DUP1 SWAP2 SUB SWAP1 REVERT JUMPDEST DUP4 PUSH2 0x94D PUSH1 0x3 SLOAD SWAP1 JUMP JUMPDEST DUP2 GT ISZERO PUSH2 0x96D JUMPI PUSH1 0x40 MLOAD PUSH4 0x347626DD PUSH1 0xE2 SHL DUP2 MSTORE PUSH1 0x4 ADD PUSH2 0x93A SWAP1 PUSH2 0x5882 JUMP JUMPDEST PUSH2 0x977 DUP6 DUP6 PUSH2 0x1D63 JUMP JUMPDEST PUSH1 0x0 PUSH2 0x989 DUP6 PUSH2 0x160 ADD MLOAD PUSH1 0x1E PUSH2 0x1DAC JUMP JUMPDEST SWAP1 POP PUSH2 0x99D DUP2 PUSH8 0xDE0B6B3A7640000 PUSH2 0x58C4 JUMP JUMPDEST CALLVALUE EQ PUSH2 0x9EE JUMPI PUSH1 0x40 DUP1 MLOAD PUSH4 0x79D3124B PUSH1 0xE0 SHL DUP2 MSTORE PUSH1 0x4 DUP2 ADD SWAP2 SWAP1 SWAP2 MSTORE PUSH1 0x17 PUSH1 0x44 DUP3 ADD MSTORE PUSH23 0x6572726F72203A20496E636F72726563742076616C7565 PUSH1 0x48 SHL PUSH1 0x64 DUP3 ADD MSTORE CALLVALUE PUSH1 0x24 DUP3 ADD MSTORE PUSH1 0x84 ADD PUSH2 0x93A JUMP JUMPDEST PUSH2 0x9F6 PUSH2 0xCEB JUMP JUMPDEST POP POP POP POP POP POP JUMP JUMPDEST PUSH2 0xA07 DUP2 PUSH2 0x1DCB JUMP JUMPDEST POP JUMP JUMPDEST PUSH1 0x0 DUP3 DUP2 MSTORE PUSH1 0x1 PUSH1 0x20 SWAP1 DUP2 MSTORE PUSH1 0x40 DUP1 DUP4 KECCAK256 PUSH1 0x1 PUSH1 0x1 PUSH1 0xA0 SHL SUB DUP6 AND DUP5 MSTORE PUSH1 0xF ADD SWAP1 SWAP2 MSTORE SWAP1 KECCAK256 SLOAD JUMPDEST SWAP3 SWAP2 POP POP JUMP JUMPDEST DUP5 PUSH2 0xA41 PUSH1 0x3 SLOAD SWAP1 JUMP JUMPDEST DUP2 GT ISZERO PUSH2 0xA61 JUMPI PUSH1 0x40 MLOAD PUSH4 0x347626DD PUSH1 0xE2 SHL DUP2 MSTORE PUSH1 0x4 ADD PUSH2 0x93A SWAP1 PUSH2 0x5882 JUMP JUMPDEST PUSH1 0x0 PUSH2 0xA6D DUP8 DUP7 PUSH2 0x1696 JUMP JUMPDEST SWAP1 POP PUSH1 0x7 DUP2 PUSH1 0xB DUP2 GT ISZERO PUSH2 0xA83 JUMPI PUSH2 0xA83 PUSH2 0x5197 JUMP JUMPDEST GT ISZERO PUSH2 0xAC5 JUMPI PUSH1 0x40 MLOAD PUSH4 0xB4644DD9 PUSH1 0xE0 SHL DUP2 MSTORE PUSH1 0x20 PUSH1 0x4 DUP3 ADD MSTORE PUSH1 0x10 PUSH1 0x24 DUP3 ADD MSTORE PUSH16 0x1D5B98589B19481D1BC81CDD589B5A5D PUSH1 0x82 SHL PUSH1 0x44 DUP3 ADD MSTORE PUSH1 0x64 ADD PUSH2 0x93A JUMP JUMPDEST PUSH1 0x0 PUSH2 0xAD4 DUP9 DUP9 DUP9 DUP9 DUP9 PUSH2 0x1E0E JUMP JUMPDEST SWAP1 POP DUP1 ISZERO PUSH2 0xAE6 JUMPI PUSH2 0xAE6 DUP8 DUP3 PUSH2 0x1EA0 JUMP JUMPDEST POP POP POP POP POP POP POP POP JUMP JUMPDEST PUSH2 0xAF8 PUSH2 0x1FBE JUMP JUMPDEST PUSH2 0xA07 DUP2 PUSH2 0x2018 JUMP JUMPDEST PUSH1 0x0 DUP3 PUSH2 0xB0D PUSH1 0x3 SLOAD SWAP1 JUMP JUMPDEST DUP2 GT ISZERO PUSH2 0xB2D JUMPI PUSH1 0x40 MLOAD PUSH4 0x347626DD PUSH1 0xE2 SHL DUP2 MSTORE PUSH1 0x4 ADD PUSH2 0x93A SWAP1 PUSH2 0x5882 JUMP JUMPDEST PUSH1 0x0 PUSH2 0xB39 DUP6 DUP6 PUSH2 0x20EE JUMP JUMPDEST SWAP1 POP PUSH2 0xB45 DUP5 DUP3 PUSH2 0x22DE JUMP JUMPDEST SWAP5 SWAP4 POP POP POP POP JUMP JUMPDEST DUP2 PUSH2 0xB57 PUSH1 0x3 SLOAD SWAP1 JUMP JUMPDEST DUP2 GT ISZERO PUSH2 0xB77 JUMPI PUSH1 0x40 MLOAD PUSH4 0x347626DD PUSH1 0xE2 SHL DUP2 MSTORE PUSH1 0x4 ADD PUSH2 0x93A SWAP1 PUSH2 0x5882 JUMP JUMPDEST PUSH1 0x0 DUP4 DUP2 MSTORE PUSH1 0x1 PUSH1 0x20 MSTORE PUSH1 0x40 SWAP1 KECCAK256 PUSH1 0x15 ADD SLOAD DUP4 SWAP1 PUSH2 0x100 SWAP1 DIV PUSH1 0xFF AND PUSH2 0xBB0 JUMPI PUSH1 0x40 MLOAD PUSH4 0xB4644DD9 PUSH1 0xE0 SHL DUP2 MSTORE PUSH1 0x4 ADD PUSH2 0x93A SWAP1 PUSH2 0x58DB JUMP JUMPDEST CALLER PUSH1 0x0 DUP2 DUP2 MSTORE PUSH1 0x2 PUSH1 0x20 MSTORE PUSH1 0x40 SWAP1 KECCAK256 SLOAD DUP1 ISZERO PUSH2 0xC0F JUMPI PUSH1 0x40 MLOAD PUSH4 0x934F2C3 PUSH1 0xE0 SHL DUP2 MSTORE PUSH1 0x20 PUSH1 0x4 DUP3 ADD MSTORE PUSH1 0x1B PUSH1 0x24 DUP3 ADD MSTORE PUSH32 0x546865726520697320616E20756E706169642070656E616C7479210000000000 PUSH1 0x44 DUP3 ADD MSTORE PUSH1 0x64 ADD PUSH2 0x93A JUMP JUMPDEST PUSH2 0xC1A DUP7 DUP7 CALLER PUSH2 0x230F JUMP JUMPDEST PUSH32 0x8E913351AA76002E572CC432B46556976F6E10285B52F94909124EA8EBD0B795 DUP7 DUP7 CALLER PUSH1 0x0 PUSH1 0x40 MLOAD PUSH2 0xC50 SWAP5 SWAP4 SWAP3 SWAP2 SWAP1 PUSH2 0x5921 JUMP JUMPDEST PUSH1 0x40 MLOAD DUP1 SWAP2 SUB SWAP1 LOG1 POP POP POP POP POP POP JUMP JUMPDEST PUSH1 0x1 PUSH1 0x1 PUSH1 0xA0 SHL SUB DUP2 AND PUSH1 0x0 SWAP1 DUP2 MSTORE PUSH1 0x2 PUSH1 0x20 MSTORE PUSH1 0x40 SWAP1 KECCAK256 SLOAD PUSH2 0xC8B SWAP1 PUSH8 0xDE0B6B3A7640000 PUSH2 0x58C4 JUMP JUMPDEST CALLVALUE GT ISZERO PUSH2 0xCD7 JUMPI PUSH1 0x40 DUP1 MLOAD PUSH4 0x79D3124B PUSH1 0xE0 SHL DUP2 MSTORE PUSH1 0x4 DUP2 ADD SWAP2 SWAP1 SWAP2 MSTORE PUSH1 0x11 PUSH1 0x44 DUP3 ADD MSTORE PUSH17 0xECC2D8EACA40D2E640E8DEDE40D0D2CED PUSH1 0x7B SHL PUSH1 0x64 DUP3 ADD MSTORE CALLVALUE PUSH1 0x24 DUP3 ADD MSTORE PUSH1 0x84 ADD PUSH2 0x93A JUMP JUMPDEST PUSH2 0xCE1 DUP2 CALLVALUE PUSH2 0x2731 JUMP JUMPDEST PUSH2 0xA07 DUP2 CALLVALUE PUSH2 0x2759 JUMP JUMPDEST PUSH1 0x40 MLOAD PUSH1 0x0 SWAP1 ADDRESS SWAP1 CALLVALUE SWAP1 DUP4 DUP2 DUP2 DUP2 DUP6 DUP8 GAS CALL SWAP3 POP POP POP RETURNDATASIZE DUP1 PUSH1 0x0 DUP2 EQ PUSH2 0xD2D JUMPI PUSH1 0x40 MLOAD SWAP2 POP PUSH1 0x1F NOT PUSH1 0x3F RETURNDATASIZE ADD AND DUP3 ADD PUSH1 0x40 MSTORE RETURNDATASIZE DUP3 MSTORE RETURNDATASIZE PUSH1 0x0 PUSH1 0x20 DUP5 ADD RETURNDATACOPY PUSH2 0xD32 JUMP JUMPDEST PUSH1 0x60 SWAP2 POP JUMPDEST POP POP SWAP1 POP DUP1 PUSH2 0xD71 JUMPI PUSH1 0x40 MLOAD PUSH3 0x461BCD PUSH1 0xE5 SHL DUP2 MSTORE PUSH1 0x20 PUSH1 0x4 DUP3 ADD MSTORE PUSH1 0xB PUSH1 0x24 DUP3 ADD MSTORE PUSH11 0x10D85B1B0819985A5B1959 PUSH1 0xAA SHL PUSH1 0x44 DUP3 ADD MSTORE PUSH1 0x64 ADD PUSH2 0x93A JUMP JUMPDEST PUSH1 0x40 DUP1 MLOAD CALLER DUP2 MSTORE ADDRESS PUSH1 0x20 DUP3 ADD MSTORE CALLVALUE SWAP2 DUP2 ADD SWAP2 SWAP1 SWAP2 MSTORE PUSH1 0x0 DUP1 MLOAD PUSH1 0x20 PUSH2 0x5D52 DUP4 CODECOPY DUP2 MLOAD SWAP2 MSTORE SWAP1 PUSH1 0x60 ADD JUMPDEST PUSH1 0x40 MLOAD DUP1 SWAP2 SUB SWAP1 LOG1 POP JUMP JUMPDEST PUSH1 0x0 DUP3 PUSH2 0xDB1 PUSH1 0x3 SLOAD SWAP1 JUMP JUMPDEST DUP2 GT ISZERO PUSH2 0xDD1 JUMPI PUSH1 0x40 MLOAD PUSH4 0x347626DD PUSH1 0xE2 SHL DUP2 MSTORE PUSH1 0x4 ADD PUSH2 0x93A SWAP1 PUSH2 0x5882 JUMP JUMPDEST PUSH1 0x0 PUSH2 0xB39 DUP6 DUP6 PUSH2 0x2891 JUMP JUMPDEST PUSH2 0xE0A PUSH1 0x40 MLOAD DUP1 PUSH1 0x60 ADD PUSH1 0x40 MSTORE DUP1 PUSH1 0x0 PUSH1 0x1 PUSH1 0x1 PUSH1 0xA0 SHL SUB AND DUP2 MSTORE PUSH1 0x20 ADD PUSH1 0x60 DUP2 MSTORE PUSH1 0x20 ADD PUSH1 0x60 DUP2 MSTORE POP SWAP1 JUMP JUMPDEST PUSH2 0xE37 PUSH1 0x40 MLOAD DUP1 PUSH1 0x60 ADD PUSH1 0x40 MSTORE DUP1 PUSH1 0x0 PUSH1 0x1 PUSH1 0x1 PUSH1 0xA0 SHL SUB AND DUP2 MSTORE PUSH1 0x20 ADD PUSH1 0x60 DUP2 MSTORE PUSH1 0x20 ADD PUSH1 0x60 DUP2 MSTORE POP SWAP1 JUMP JUMPDEST PUSH1 0x0 DUP5 DUP2 MSTORE PUSH1 0x1 PUSH1 0x20 SWAP1 DUP2 MSTORE PUSH1 0x40 DUP1 DUP4 KECCAK256 PUSH1 0x1 PUSH1 0x1 PUSH1 0xA0 SHL SUB DUP8 AND DUP5 MSTORE PUSH1 0xF ADD DUP3 MSTORE SWAP2 DUP3 SWAP1 KECCAK256 DUP1 SLOAD DUP4 MLOAD DUP2 DUP5 MUL DUP2 ADD DUP5 ADD SWAP1 SWAP5 MSTORE DUP1 DUP5 MSTORE SWAP1 SWAP2 DUP4 ADD DUP3 DUP3 DUP1 ISZERO PUSH2 0xE9F JUMPI PUSH1 0x20 MUL DUP3 ADD SWAP2 SWAP1 PUSH1 0x0 MSTORE PUSH1 0x20 PUSH1 0x0 KECCAK256 SWAP1 JUMPDEST DUP2 SLOAD DUP2 MSTORE PUSH1 0x20 ADD SWAP1 PUSH1 0x1 ADD SWAP1 DUP1 DUP4 GT PUSH2 0xE8B JUMPI JUMPDEST POP POP POP POP PUSH1 0x20 DUP4 ADD DUP3 SWAP1 MSTORE POP MLOAD PUSH1 0x0 SWAP1 PUSH8 0xFFFFFFFFFFFFFFFF DUP2 GT ISZERO PUSH2 0xEC7 JUMPI PUSH2 0xEC7 PUSH2 0x4B5F JUMP JUMPDEST PUSH1 0x40 MLOAD SWAP1 DUP1 DUP3 MSTORE DUP1 PUSH1 0x20 MUL PUSH1 0x20 ADD DUP3 ADD PUSH1 0x40 MSTORE DUP1 ISZERO PUSH2 0xF0D JUMPI DUP2 PUSH1 0x20 ADD JUMPDEST PUSH1 0x40 DUP1 MLOAD DUP1 DUP3 ADD SWAP1 SWAP2 MSTORE PUSH1 0x0 DUP2 MSTORE PUSH1 0x60 PUSH1 0x20 DUP3 ADD MSTORE DUP2 MSTORE PUSH1 0x20 ADD SWAP1 PUSH1 0x1 SWAP1 SUB SWAP1 DUP2 PUSH2 0xEE5 JUMPI SWAP1 POP JUMPDEST POP SWAP1 POP PUSH1 0x0 JUMPDEST DUP3 PUSH1 0x20 ADD MLOAD MLOAD DUP2 LT ISZERO PUSH2 0xF78 JUMPI PUSH2 0xF48 DUP7 DUP7 DUP6 PUSH1 0x20 ADD MLOAD DUP5 DUP2 MLOAD DUP2 LT PUSH2 0xF3B JUMPI PUSH2 0xF3B PUSH2 0x595B JUMP JUMPDEST PUSH1 0x20 MUL PUSH1 0x20 ADD ADD MLOAD PUSH2 0x1AD9 JUMP JUMPDEST DUP3 DUP3 DUP2 MLOAD DUP2 LT PUSH2 0xF5A JUMPI PUSH2 0xF5A PUSH2 0x595B JUMP JUMPDEST PUSH1 0x20 MUL PUSH1 0x20 ADD ADD DUP2 SWAP1 MSTORE POP DUP1 DUP1 PUSH2 0xF70 SWAP1 PUSH2 0x5971 JUMP JUMPDEST SWAP2 POP POP PUSH2 0xF13 JUMP JUMPDEST POP SWAP1 SWAP5 SWAP4 POP POP POP POP JUMP JUMPDEST DUP5 PUSH2 0xF8C PUSH1 0x3 SLOAD SWAP1 JUMP JUMPDEST DUP2 GT ISZERO PUSH2 0xFAC JUMPI PUSH1 0x40 MLOAD PUSH4 0x347626DD PUSH1 0xE2 SHL DUP2 MSTORE PUSH1 0x4 ADD PUSH2 0x93A SWAP1 PUSH2 0x5882 JUMP JUMPDEST PUSH1 0x0 DUP7 DUP2 MSTORE PUSH1 0x1 PUSH1 0x20 MSTORE PUSH1 0x40 DUP2 KECCAK256 PUSH1 0xA ADD SLOAD PUSH2 0x100 SWAP1 DIV PUSH1 0xFF AND ISZERO PUSH2 0xFDC JUMPI PUSH2 0xFD5 DUP8 DUP7 PUSH2 0x10DA JUMP JUMPDEST SWAP1 POP PUSH2 0xFF0 JUMP JUMPDEST POP PUSH1 0x0 DUP7 DUP2 MSTORE PUSH1 0x1 PUSH1 0x20 MSTORE PUSH1 0x40 SWAP1 KECCAK256 PUSH1 0xB ADD SLOAD JUMPDEST PUSH2 0xFFC DUP8 DUP8 DUP8 DUP8 PUSH2 0x2995 JUMP JUMPDEST DUP4 ISZERO PUSH2 0x10D1 JUMPI PUSH1 0x0 PUSH2 0x1020 PUSH2 0x1019 DUP4 PUSH8 0xDE0B6B3A7640000 PUSH2 0x58C4 JUMP JUMPDEST PUSH1 0x46 PUSH2 0x1DAC JUMP JUMPDEST SWAP1 POP DUP1 CALLVALUE LT ISZERO PUSH2 0x1075 JUMPI PUSH1 0x40 DUP1 MLOAD PUSH4 0x79D3124B PUSH1 0xE0 SHL DUP2 MSTORE PUSH1 0x4 DUP2 ADD SWAP2 SWAP1 SWAP2 MSTORE PUSH1 0x17 PUSH1 0x44 DUP3 ADD MSTORE PUSH23 0x6572726F72203A20496E636F72726563742076616C7565 PUSH1 0x48 SHL PUSH1 0x64 DUP3 ADD MSTORE CALLVALUE PUSH1 0x24 DUP3 ADD MSTORE PUSH1 0x84 ADD PUSH2 0x93A JUMP JUMPDEST PUSH2 0x107D PUSH2 0xCEB JUMP JUMPDEST PUSH1 0x0 PUSH2 0x1099 PUSH2 0x1094 DUP5 PUSH8 0xDE0B6B3A7640000 PUSH2 0x58C4 JUMP JUMPDEST PUSH2 0x29BE JUMP JUMPDEST SWAP1 POP PUSH1 0x0 PUSH2 0x10B7 PUSH2 0x10B2 DUP6 PUSH8 0xDE0B6B3A7640000 PUSH2 0x58C4 JUMP JUMPDEST PUSH2 0x29CB JUMP JUMPDEST SWAP1 POP PUSH2 0x10C3 DUP10 DUP4 PUSH2 0x1EA0 JUMP JUMPDEST PUSH2 0x10CD DUP7 DUP3 PUSH2 0x1EA0 JUMP JUMPDEST POP POP POP JUMPDEST POP POP POP POP POP POP POP JUMP JUMPDEST PUSH1 0x0 DUP3 DUP2 MSTORE PUSH1 0x1 PUSH1 0x20 MSTORE PUSH1 0x40 DUP2 KECCAK256 PUSH1 0xC ADD DUP1 SLOAD DUP4 SWAP1 DUP2 LT PUSH2 0x10FD JUMPI PUSH2 0x10FD PUSH2 0x595B JUMP JUMPDEST SWAP1 PUSH1 0x0 MSTORE PUSH1 0x20 PUSH1 0x0 KECCAK256 SWAP1 PUSH1 0xB MUL ADD PUSH1 0x7 ADD SLOAD SWAP1 POP SWAP3 SWAP2 POP POP JUMP JUMPDEST PUSH2 0x111F PUSH2 0x1FBE JUMP JUMPDEST PUSH2 0x1129 PUSH1 0x0 PUSH2 0x29D8 JUMP JUMPDEST JUMP JUMPDEST PUSH2 0x1133 PUSH2 0x1FBE JUMP JUMPDEST PUSH2 0x1129 PUSH2 0x2A28 JUMP JUMPDEST PUSH1 0x0 DUP2 ISZERO PUSH2 0x1164 JUMPI POP PUSH1 0x0 DUP3 DUP2 MSTORE PUSH1 0x1 PUSH1 0x20 MSTORE PUSH1 0x40 SWAP1 KECCAK256 PUSH1 0x13 DUP2 ADD SLOAD PUSH1 0x11 SWAP1 SWAP2 ADD SLOAD GT ISZERO PUSH2 0xA31 JUMP JUMPDEST POP PUSH1 0x0 DUP3 DUP2 MSTORE PUSH1 0x1 PUSH1 0x20 MSTORE PUSH1 0x40 SWAP1 KECCAK256 PUSH1 0x14 DUP2 ADD SLOAD PUSH1 0x12 SWAP1 SWAP2 ADD SLOAD GT ISZERO PUSH2 0xA31 JUMP JUMPDEST DUP1 PUSH2 0x118F PUSH1 0x3 SLOAD SWAP1 JUMP JUMPDEST DUP2 GT ISZERO PUSH2 0x11AF JUMPI PUSH1 0x40 MLOAD PUSH4 0x347626DD PUSH1 0xE2 SHL DUP2 MSTORE PUSH1 0x4 ADD PUSH2 0x93A SWAP1 PUSH2 0x5882 JUMP JUMPDEST PUSH2 0x11B8 DUP3 PUSH2 0x2AEF JUMP JUMPDEST POP POP POP JUMP JUMPDEST PUSH1 0x60 PUSH1 0x0 PUSH1 0x60 DUP1 PUSH1 0x0 DUP1 DUP7 ISZERO PUSH2 0x1241 JUMPI PUSH1 0x0 DUP10 DUP2 MSTORE PUSH1 0x1 PUSH1 0x20 SWAP1 DUP2 MSTORE PUSH1 0x40 DUP1 DUP4 KECCAK256 PUSH1 0x1 PUSH1 0x1 PUSH1 0xA0 SHL SUB DUP13 AND DUP5 MSTORE PUSH1 0xF ADD DUP3 MSTORE SWAP2 DUP3 SWAP1 KECCAK256 DUP1 SLOAD DUP4 MLOAD DUP2 DUP5 MUL DUP2 ADD DUP5 ADD SWAP1 SWAP5 MSTORE DUP1 DUP5 MSTORE SWAP1 SWAP2 DUP4 ADD DUP3 DUP3 DUP1 ISZERO PUSH2 0x1235 JUMPI PUSH1 0x20 MUL DUP3 ADD SWAP2 SWAP1 PUSH1 0x0 MSTORE PUSH1 0x20 PUSH1 0x0 KECCAK256 SWAP1 JUMPDEST DUP2 SLOAD DUP2 MSTORE PUSH1 0x20 ADD SWAP1 PUSH1 0x1 ADD SWAP1 DUP1 DUP4 GT PUSH2 0x1221 JUMPI JUMPDEST POP POP POP POP POP SWAP4 POP PUSH2 0x12B1 JUMP JUMPDEST PUSH1 0x0 DUP10 DUP2 MSTORE PUSH1 0x1 PUSH1 0x20 SWAP1 DUP2 MSTORE PUSH1 0x40 DUP1 DUP4 KECCAK256 PUSH1 0x1 PUSH1 0x1 PUSH1 0xA0 SHL SUB DUP13 AND DUP5 MSTORE PUSH1 0x10 ADD DUP3 MSTORE SWAP2 DUP3 SWAP1 KECCAK256 DUP1 SLOAD DUP4 MLOAD DUP2 DUP5 MUL DUP2 ADD DUP5 ADD SWAP1 SWAP5 MSTORE DUP1 DUP5 MSTORE SWAP1 SWAP2 DUP4 ADD DUP3 DUP3 DUP1 ISZERO PUSH2 0x12A9 JUMPI PUSH1 0x20 MUL DUP3 ADD SWAP2 SWAP1 PUSH1 0x0 MSTORE PUSH1 0x20 PUSH1 0x0 KECCAK256 SWAP1 JUMPDEST DUP2 SLOAD DUP2 MSTORE PUSH1 0x20 ADD SWAP1 PUSH1 0x1 ADD SWAP1 DUP1 DUP4 GT PUSH2 0x1295 JUMPI JUMPDEST POP POP POP POP POP SWAP4 POP JUMPDEST PUSH1 0x40 DUP1 MLOAD DUP1 DUP3 ADD SWAP1 SWAP2 MSTORE PUSH1 0x0 DUP2 MSTORE PUSH1 0x60 PUSH1 0x20 DUP3 ADD MSTORE PUSH1 0x0 JUMPDEST DUP6 MLOAD DUP2 LT ISZERO PUSH2 0x14DE JUMPI PUSH1 0x0 DUP12 DUP2 MSTORE PUSH1 0x1 PUSH1 0x20 DUP2 DUP2 MSTORE PUSH1 0x40 DUP1 DUP5 KECCAK256 PUSH1 0x1 PUSH1 0x1 PUSH1 0xA0 SHL SUB DUP16 AND DUP6 MSTORE PUSH1 0xF ADD SWAP1 SWAP2 MSTORE DUP3 KECCAK256 DUP9 MLOAD SWAP2 ADD SWAP2 SWAP1 DUP9 SWAP1 DUP5 SWAP1 DUP2 LT PUSH2 0x130F JUMPI PUSH2 0x130F PUSH2 0x595B JUMP JUMPDEST PUSH1 0x20 MUL PUSH1 0x20 ADD ADD MLOAD DUP2 MSTORE PUSH1 0x20 ADD SWAP1 DUP2 MSTORE PUSH1 0x20 ADD PUSH1 0x0 KECCAK256 PUSH1 0x40 MLOAD DUP1 PUSH1 0x40 ADD PUSH1 0x40 MSTORE SWAP1 DUP2 PUSH1 0x0 DUP3 ADD PUSH1 0x0 SWAP1 SLOAD SWAP1 PUSH2 0x100 EXP SWAP1 DIV PUSH1 0xFF AND PUSH1 0x4 DUP2 GT ISZERO PUSH2 0x1354 JUMPI PUSH2 0x1354 PUSH2 0x5197 JUMP JUMPDEST PUSH1 0x4 DUP2 GT ISZERO PUSH2 0x1365 JUMPI PUSH2 0x1365 PUSH2 0x5197 JUMP JUMPDEST DUP2 MSTORE PUSH1 0x20 ADD PUSH1 0x1 DUP3 ADD DUP1 SLOAD PUSH2 0x1379 SWAP1 PUSH2 0x598A JUMP JUMPDEST DUP1 PUSH1 0x1F ADD PUSH1 0x20 DUP1 SWAP2 DIV MUL PUSH1 0x20 ADD PUSH1 0x40 MLOAD SWAP1 DUP2 ADD PUSH1 0x40 MSTORE DUP1 SWAP3 SWAP2 SWAP1 DUP2 DUP2 MSTORE PUSH1 0x20 ADD DUP3 DUP1 SLOAD PUSH2 0x13A5 SWAP1 PUSH2 0x598A JUMP JUMPDEST DUP1 ISZERO PUSH2 0x13F2 JUMPI DUP1 PUSH1 0x1F LT PUSH2 0x13C7 JUMPI PUSH2 0x100 DUP1 DUP4 SLOAD DIV MUL DUP4 MSTORE SWAP2 PUSH1 0x20 ADD SWAP2 PUSH2 0x13F2 JUMP JUMPDEST DUP3 ADD SWAP2 SWAP1 PUSH1 0x0 MSTORE PUSH1 0x20 PUSH1 0x0 KECCAK256 SWAP1 JUMPDEST DUP2 SLOAD DUP2 MSTORE SWAP1 PUSH1 0x1 ADD SWAP1 PUSH1 0x20 ADD DUP1 DUP4 GT PUSH2 0x13D5 JUMPI DUP3 SWAP1 SUB PUSH1 0x1F AND DUP3 ADD SWAP2 JUMPDEST POP POP POP POP POP DUP2 MSTORE POP POP SWAP2 POP PUSH1 0x0 PUSH1 0x4 DUP2 GT ISZERO PUSH2 0x1410 JUMPI PUSH2 0x1410 PUSH2 0x5197 JUMP JUMPDEST DUP3 MLOAD PUSH1 0x4 DUP2 GT ISZERO PUSH2 0x1423 JUMPI PUSH2 0x1423 PUSH2 0x5197 JUMP JUMPDEST SUB PUSH2 0x14CC JUMPI DUP6 DUP2 DUP2 MLOAD DUP2 LT PUSH2 0x143A JUMPI PUSH2 0x143A PUSH2 0x595B JUMP JUMPDEST PUSH1 0x20 MUL PUSH1 0x20 ADD ADD MLOAD DUP6 DUP5 DUP2 MLOAD DUP2 LT PUSH2 0x1454 JUMPI PUSH2 0x1454 PUSH2 0x595B JUMP JUMPDEST PUSH1 0x20 SWAP1 DUP2 MUL SWAP2 SWAP1 SWAP2 ADD ADD MSTORE DUP3 PUSH2 0x1469 DUP2 PUSH2 0x5971 JUMP JUMPDEST SWAP4 POP POP PUSH1 0x1 PUSH1 0x0 DUP13 DUP2 MSTORE PUSH1 0x20 ADD SWAP1 DUP2 MSTORE PUSH1 0x20 ADD PUSH1 0x0 KECCAK256 PUSH1 0xC ADD DUP7 DUP3 DUP2 MLOAD DUP2 LT PUSH2 0x1494 JUMPI PUSH2 0x1494 PUSH2 0x595B JUMP JUMPDEST PUSH1 0x20 MUL PUSH1 0x20 ADD ADD MLOAD DUP2 SLOAD DUP2 LT PUSH2 0x14AC JUMPI PUSH2 0x14AC PUSH2 0x595B JUMP JUMPDEST SWAP1 PUSH1 0x0 MSTORE PUSH1 0x20 PUSH1 0x0 KECCAK256 SWAP1 PUSH1 0xB MUL ADD PUSH1 0x7 ADD SLOAD DUP5 PUSH2 0x14C9 SWAP2 SWAP1 PUSH2 0x59BE JUMP JUMPDEST SWAP4 POP JUMPDEST DUP1 PUSH2 0x14D6 DUP2 PUSH2 0x5971 JUMP JUMPDEST SWAP2 POP POP PUSH2 0x12C9 JUMP JUMPDEST POP SWAP3 SWAP10 SWAP2 SWAP9 POP SWAP1 SWAP7 POP POP POP POP POP POP POP JUMP JUMPDEST PUSH2 0x14F9 DUP3 DUP3 PUSH2 0x2CE3 JUMP JUMPDEST POP POP JUMP JUMPDEST PUSH1 0x0 DUP2 DUP2 MSTORE PUSH1 0x1 PUSH1 0x20 SWAP1 DUP2 MSTORE PUSH1 0x40 SWAP2 DUP3 SWAP1 KECCAK256 PUSH1 0xD ADD DUP1 SLOAD DUP4 MLOAD DUP2 DUP5 MUL DUP2 ADD DUP5 ADD SWAP1 SWAP5 MSTORE DUP1 DUP5 MSTORE PUSH1 0x60 SWAP4 SWAP3 DUP4 ADD DUP3 DUP3 DUP1 ISZERO PUSH2 0x1560 JUMPI PUSH1 0x20 MUL DUP3 ADD SWAP2 SWAP1 PUSH1 0x0 MSTORE PUSH1 0x20 PUSH1 0x0 KECCAK256 SWAP1 JUMPDEST DUP2 SLOAD PUSH1 0x1 PUSH1 0x1 PUSH1 0xA0 SHL SUB AND DUP2 MSTORE PUSH1 0x1 SWAP1 SWAP2 ADD SWAP1 PUSH1 0x20 ADD DUP1 DUP4 GT PUSH2 0x1542 JUMPI JUMPDEST POP POP POP POP POP SWAP1 POP SWAP2 SWAP1 POP JUMP JUMPDEST DUP1 PUSH2 0x1576 PUSH1 0x3 SLOAD SWAP1 JUMP JUMPDEST DUP2 GT ISZERO PUSH2 0x1596 JUMPI PUSH1 0x40 MLOAD PUSH4 0x347626DD PUSH1 0xE2 SHL DUP2 MSTORE PUSH1 0x4 ADD PUSH2 0x93A SWAP1 PUSH2 0x5882 JUMP JUMPDEST PUSH2 0x11B8 DUP3 PUSH2 0x2D65 JUMP JUMPDEST CALLER PUSH1 0x0 DUP2 DUP2 MSTORE PUSH1 0x2 PUSH1 0x20 MSTORE PUSH1 0x40 DUP2 KECCAK256 SLOAD SWAP1 SWAP2 SWAP1 DUP1 ISZERO PUSH2 0x1601 JUMPI PUSH1 0x40 MLOAD PUSH4 0x934F2C3 PUSH1 0xE0 SHL DUP2 MSTORE PUSH1 0x20 PUSH1 0x4 DUP3 ADD MSTORE PUSH1 0x1B PUSH1 0x24 DUP3 ADD MSTORE PUSH32 0x546865726520697320616E20756E706169642070656E616C7479210000000000 PUSH1 0x44 DUP3 ADD MSTORE PUSH1 0x64 ADD PUSH2 0x93A JUMP JUMPDEST PUSH2 0x160A DUP5 PUSH2 0x2FFF JUMP JUMPDEST SWAP3 POP PUSH1 0x0 PUSH2 0x1631 DUP6 PUSH2 0x160 ADD MLOAD PUSH8 0xDE0B6B3A7640000 PUSH2 0x162A SWAP2 SWAP1 PUSH2 0x58C4 JUMP JUMPDEST PUSH1 0x1E PUSH2 0x1DAC JUMP JUMPDEST SWAP1 POP DUP1 CALLVALUE LT ISZERO PUSH2 0x1686 JUMPI PUSH1 0x40 DUP1 MLOAD PUSH4 0x79D3124B PUSH1 0xE0 SHL DUP2 MSTORE PUSH1 0x4 DUP2 ADD SWAP2 SWAP1 SWAP2 MSTORE PUSH1 0x17 PUSH1 0x44 DUP3 ADD MSTORE PUSH23 0x6572726F72203A20496E636F72726563742076616C7565 PUSH1 0x48 SHL PUSH1 0x64 DUP3 ADD MSTORE CALLVALUE PUSH1 0x24 DUP3 ADD MSTORE PUSH1 0x84 ADD PUSH2 0x93A JUMP JUMPDEST PUSH2 0x168E PUSH2 0xCEB JUMP JUMPDEST POP POP POP SWAP2 SWAP1 POP JUMP JUMPDEST PUSH1 0x0 DUP3 DUP2 MSTORE PUSH1 0x1 PUSH1 0x20 MSTORE PUSH1 0x40 DUP2 KECCAK256 PUSH1 0xC ADD DUP1 SLOAD DUP4 SWAP1 DUP2 LT PUSH2 0x16B9 JUMPI PUSH2 0x16B9 PUSH2 0x595B JUMP JUMPDEST PUSH1 0x0 SWAP2 DUP3 MSTORE PUSH1 0x20 SWAP1 SWAP2 KECCAK256 PUSH1 0xB SWAP1 SWAP2 MUL ADD PUSH1 0x9 ADD SLOAD PUSH1 0xFF AND SWAP4 SWAP3 POP POP POP JUMP JUMPDEST PUSH1 0x0 DUP2 DUP2 MSTORE PUSH1 0x1 PUSH1 0x20 SWAP1 DUP2 MSTORE PUSH1 0x40 SWAP2 DUP3 SWAP1 KECCAK256 PUSH1 0xE ADD DUP1 SLOAD DUP4 MLOAD DUP2 DUP5 MUL DUP2 ADD DUP5 ADD SWAP1 SWAP5 MSTORE DUP1 DUP5 MSTORE PUSH1 0x60 SWAP4 SWAP3 DUP4 ADD DUP3 DUP3 DUP1 ISZERO PUSH2 0x1560 JUMPI PUSH1 0x20 MUL DUP3 ADD SWAP2 SWAP1 PUSH1 0x0 MSTORE PUSH1 0x20 PUSH1 0x0 KECCAK256 SWAP1 DUP2 SLOAD PUSH1 0x1 PUSH1 0x1 PUSH1 0xA0 SHL SUB AND DUP2 MSTORE PUSH1 0x1 SWAP1 SWAP2 ADD SWAP1 PUSH1 0x20 ADD DUP1 DUP4 GT PUSH2 0x1542 JUMPI POP POP POP POP POP SWAP1 POP SWAP2 SWAP1 POP JUMP JUMPDEST DUP3 PUSH2 0x174E PUSH1 0x3 SLOAD SWAP1 JUMP JUMPDEST DUP2 GT ISZERO PUSH2 0x176E JUMPI PUSH1 0x40 MLOAD PUSH4 0x347626DD PUSH1 0xE2 SHL DUP2 MSTORE PUSH1 0x4 ADD PUSH2 0x93A SWAP1 PUSH2 0x5882 JUMP JUMPDEST PUSH1 0x0 PUSH2 0x177A DUP6 DUP6 PUSH2 0x1696 JUMP JUMPDEST SWAP1 POP PUSH1 0x6 DUP2 PUSH1 0xB DUP2 GT ISZERO PUSH2 0x1790 JUMPI PUSH2 0x1790 PUSH2 0x5197 JUMP JUMPDEST GT ISZERO PUSH2 0x17D2 JUMPI PUSH1 0x40 MLOAD PUSH4 0xB4644DD9 PUSH1 0xE0 SHL DUP2 MSTORE PUSH1 0x20 PUSH1 0x4 DUP3 ADD MSTORE PUSH1 0x10 PUSH1 0x24 DUP3 ADD MSTORE PUSH16 0x1D5B98589B19481D1BC81CDD589B5A5D PUSH1 0x82 SHL PUSH1 0x44 DUP3 ADD MSTORE PUSH1 0x64 ADD PUSH2 0x93A JUMP JUMPDEST PUSH2 0x17DD DUP6 DUP6 DUP6 PUSH2 0x304E JUMP JUMPDEST POP POP POP POP POP JUMP JUMPDEST PUSH1 0x60 PUSH1 0x1 PUSH1 0x0 DUP4 DUP2 MSTORE PUSH1 0x20 ADD SWAP1 DUP2 MSTORE PUSH1 0x20 ADD PUSH1 0x0 KECCAK256 PUSH1 0xC ADD DUP1 SLOAD DUP1 PUSH1 0x20 MUL PUSH1 0x20 ADD PUSH1 0x40 MLOAD SWAP1 DUP2 ADD PUSH1 0x40 MSTORE DUP1 SWAP3 SWAP2 SWAP1 DUP2 DUP2 MSTORE PUSH1 0x20 ADD PUSH1 0x0 SWAP1 JUMPDEST DUP3 DUP3 LT ISZERO PUSH2 0x1A8A JUMPI PUSH1 0x0 DUP5 DUP2 MSTORE PUSH1 0x20 SWAP1 KECCAK256 PUSH1 0x40 DUP1 MLOAD PUSH2 0x180 DUP2 ADD SWAP1 SWAP2 MSTORE PUSH1 0xB DUP5 MUL SWAP1 SWAP2 ADD DUP1 SLOAD DUP3 SWAP1 PUSH1 0xA0 DUP3 ADD SWAP1 DUP4 SWAP1 DUP3 SWAP1 DUP3 SWAP1 PUSH2 0x1858 SWAP1 PUSH2 0x598A JUMP JUMPDEST DUP1 PUSH1 0x1F ADD PUSH1 0x20 DUP1 SWAP2 DIV MUL PUSH1 0x20 ADD PUSH1 0x40 MLOAD SWAP1 DUP2 ADD PUSH1 0x40 MSTORE DUP1 SWAP3 SWAP2 SWAP1 DUP2 DUP2 MSTORE PUSH1 0x20 ADD DUP3 DUP1 SLOAD PUSH2 0x1884 SWAP1 PUSH2 0x598A JUMP JUMPDEST DUP1 ISZERO PUSH2 0x18D1 JUMPI DUP1 PUSH1 0x1F LT PUSH2 0x18A6 JUMPI PUSH2 0x100 DUP1 DUP4 SLOAD DIV MUL DUP4 MSTORE SWAP2 PUSH1 0x20 ADD SWAP2 PUSH2 0x18D1 JUMP JUMPDEST DUP3 ADD SWAP2 SWAP1 PUSH1 0x0 MSTORE PUSH1 0x20 PUSH1 0x0 KECCAK256 SWAP1 JUMPDEST DUP2 SLOAD DUP2 MSTORE SWAP1 PUSH1 0x1 ADD SWAP1 PUSH1 0x20 ADD DUP1 DUP4 GT PUSH2 0x18B4 JUMPI DUP3 SWAP1 SUB PUSH1 0x1F AND DUP3 ADD SWAP2 JUMPDEST POP POP POP POP POP DUP2 MSTORE PUSH1 0x20 ADD PUSH1 0x1 DUP3 ADD SLOAD DUP2 MSTORE PUSH1 0x20 ADD PUSH1 0x2 DUP3 ADD SLOAD DUP2 MSTORE PUSH1 0x20 ADD PUSH1 0x3 DUP3 ADD SLOAD DUP2 MSTORE PUSH1 0x20 ADD PUSH1 0x4 DUP3 ADD SLOAD DUP2 MSTORE PUSH1 0x20 ADD PUSH1 0x5 DUP3 ADD SLOAD DUP2 MSTORE PUSH1 0x20 ADD PUSH1 0x6 DUP3 ADD DUP1 SLOAD PUSH2 0x191C SWAP1 PUSH2 0x598A JUMP JUMPDEST DUP1 PUSH1 0x1F ADD PUSH1 0x20 DUP1 SWAP2 DIV MUL PUSH1 0x20 ADD PUSH1 0x40 MLOAD SWAP1 DUP2 ADD PUSH1 0x40 MSTORE DUP1 SWAP3 SWAP2 SWAP1 DUP2 DUP2 MSTORE PUSH1 0x20 ADD DUP3 DUP1 SLOAD PUSH2 0x1948 SWAP1 PUSH2 0x598A JUMP JUMPDEST DUP1 ISZERO PUSH2 0x1995 JUMPI DUP1 PUSH1 0x1F LT PUSH2 0x196A JUMPI PUSH2 0x100 DUP1 DUP4 SLOAD DIV MUL DUP4 MSTORE SWAP2 PUSH1 0x20 ADD SWAP2 PUSH2 0x1995 JUMP JUMPDEST DUP3 ADD SWAP2 SWAP1 PUSH1 0x0 MSTORE PUSH1 0x20 PUSH1 0x0 KECCAK256 SWAP1 JUMPDEST DUP2 SLOAD DUP2 MSTORE SWAP1 PUSH1 0x1 ADD SWAP1 PUSH1 0x20 ADD DUP1 DUP4 GT PUSH2 0x1978 JUMPI DUP3 SWAP1 SUB PUSH1 0x1F AND DUP3 ADD SWAP2 JUMPDEST POP POP POP POP POP DUP2 MSTORE POP POP DUP2 MSTORE PUSH1 0x20 ADD PUSH1 0x7 DUP3 ADD SLOAD DUP2 MSTORE PUSH1 0x20 ADD PUSH1 0x8 DUP3 ADD DUP1 SLOAD PUSH2 0x19BC SWAP1 PUSH2 0x598A JUMP JUMPDEST DUP1 PUSH1 0x1F ADD PUSH1 0x20 DUP1 SWAP2 DIV MUL PUSH1 0x20 ADD PUSH1 0x40 MLOAD SWAP1 DUP2 ADD PUSH1 0x40 MSTORE DUP1 SWAP3 SWAP2 SWAP1 DUP2 DUP2 MSTORE PUSH1 0x20 ADD DUP3 DUP1 SLOAD PUSH2 0x19E8 SWAP1 PUSH2 0x598A JUMP JUMPDEST DUP1 ISZERO PUSH2 0x1A35 JUMPI DUP1 PUSH1 0x1F LT PUSH2 0x1A0A JUMPI PUSH2 0x100 DUP1 DUP4 SLOAD DIV MUL DUP4 MSTORE SWAP2 PUSH1 0x20 ADD SWAP2 PUSH2 0x1A35 JUMP JUMPDEST DUP3 ADD SWAP2 SWAP1 PUSH1 0x0 MSTORE PUSH1 0x20 PUSH1 0x0 KECCAK256 SWAP1 JUMPDEST DUP2 SLOAD DUP2 MSTORE SWAP1 PUSH1 0x1 ADD SWAP1 PUSH1 0x20 ADD DUP1 DUP4 GT PUSH2 0x1A18 JUMPI DUP3 SWAP1 SUB PUSH1 0x1F AND DUP3 ADD SWAP2 JUMPDEST POP POP POP SWAP2 DUP4 MSTORE POP POP PUSH1 0x9 DUP3 ADD SLOAD PUSH1 0x20 SWAP1 SWAP2 ADD SWAP1 PUSH1 0xFF AND PUSH1 0xB DUP2 GT ISZERO PUSH2 0x1A5C JUMPI PUSH2 0x1A5C PUSH2 0x5197 JUMP JUMPDEST PUSH1 0xB DUP2 GT ISZERO PUSH2 0x1A6D JUMPI PUSH2 0x1A6D PUSH2 0x5197 JUMP JUMPDEST DUP2 MSTORE PUSH1 0x20 ADD PUSH1 0xA DUP3 ADD SLOAD DUP2 MSTORE POP POP DUP2 MSTORE PUSH1 0x20 ADD SWAP1 PUSH1 0x1 ADD SWAP1 PUSH2 0x181C JUMP JUMPDEST POP POP POP POP SWAP1 POP SWAP2 SWAP1 POP JUMP JUMPDEST PUSH2 0x1A9D PUSH2 0x4A22 JUMP JUMPDEST DUP2 PUSH2 0x1AA7 PUSH1 0x3 SLOAD SWAP1 JUMP JUMPDEST DUP2 GT ISZERO PUSH2 0x1AC7 JUMPI PUSH1 0x40 MLOAD PUSH4 0x347626DD PUSH1 0xE2 SHL DUP2 MSTORE PUSH1 0x4 ADD PUSH2 0x93A SWAP1 PUSH2 0x5882 JUMP JUMPDEST PUSH2 0x1AD0 DUP4 PUSH2 0x305A JUMP JUMPDEST SWAP2 POP JUMPDEST POP SWAP2 SWAP1 POP JUMP JUMPDEST PUSH1 0x40 DUP1 MLOAD DUP1 DUP3 ADD SWAP1 SWAP2 MSTORE PUSH1 0x0 DUP2 MSTORE PUSH1 0x60 PUSH1 0x20 DUP3 ADD MSTORE PUSH1 0x0 DUP5 DUP2 MSTORE PUSH1 0x1 PUSH1 0x20 DUP2 DUP2 MSTORE PUSH1 0x40 DUP1 DUP5 KECCAK256 PUSH1 0x1 PUSH1 0x1 PUSH1 0xA0 SHL SUB DUP9 AND DUP6 MSTORE PUSH1 0xF ADD DUP3 MSTORE DUP1 DUP5 KECCAK256 DUP7 DUP6 MSTORE SWAP1 SWAP3 ADD SWAP1 MSTORE SWAP1 DUP2 SWAP1 KECCAK256 DUP2 MLOAD DUP1 DUP4 ADD SWAP1 SWAP3 MSTORE DUP1 SLOAD DUP3 SWAP1 PUSH1 0xFF AND PUSH1 0x4 DUP2 GT ISZERO PUSH2 0x1B3F JUMPI PUSH2 0x1B3F PUSH2 0x5197 JUMP JUMPDEST PUSH1 0x4 DUP2 GT ISZERO PUSH2 0x1B50 JUMPI PUSH2 0x1B50 PUSH2 0x5197 JUMP JUMPDEST DUP2 MSTORE PUSH1 0x20 ADD PUSH1 0x1 DUP3 ADD DUP1 SLOAD PUSH2 0x1B64 SWAP1 PUSH2 0x598A JUMP JUMPDEST DUP1 PUSH1 0x1F ADD PUSH1 0x20 DUP1 SWAP2 DIV MUL PUSH1 0x20 ADD PUSH1 0x40 MLOAD SWAP1 DUP2 ADD PUSH1 0x40 MSTORE DUP1 SWAP3 SWAP2 SWAP1 DUP2 DUP2 MSTORE PUSH1 0x20 ADD DUP3 DUP1 SLOAD PUSH2 0x1B90 SWAP1 PUSH2 0x598A JUMP JUMPDEST DUP1 ISZERO PUSH2 0x1BDD JUMPI DUP1 PUSH1 0x1F LT PUSH2 0x1BB2 JUMPI PUSH2 0x100 DUP1 DUP4 SLOAD DIV MUL DUP4 MSTORE SWAP2 PUSH1 0x20 ADD SWAP2 PUSH2 0x1BDD JUMP JUMPDEST DUP3 ADD SWAP2 SWAP1 PUSH1 0x0 MSTORE PUSH1 0x20 PUSH1 0x0 KECCAK256 SWAP1 JUMPDEST DUP2 SLOAD DUP2 MSTORE SWAP1 PUSH1 0x1 ADD SWAP1 PUSH1 0x20 ADD DUP1 DUP4 GT PUSH2 0x1BC0 JUMPI DUP3 SWAP1 SUB PUSH1 0x1F AND DUP3 ADD SWAP2 JUMPDEST POP POP POP POP POP DUP2 MSTORE POP POP SWAP1 POP SWAP4 SWAP3 POP POP POP JUMP JUMPDEST PUSH2 0x1BF7 PUSH2 0x1FBE JUMP JUMPDEST PUSH1 0x1 PUSH1 0x1 PUSH1 0xA0 SHL SUB DUP2 AND PUSH2 0x1C5C JUMPI PUSH1 0x40 MLOAD PUSH3 0x461BCD PUSH1 0xE5 SHL DUP2 MSTORE PUSH1 0x20 PUSH1 0x4 DUP3 ADD MSTORE PUSH1 0x26 PUSH1 0x24 DUP3 ADD MSTORE PUSH32 0x4F776E61626C653A206E6577206F776E657220697320746865207A65726F2061 PUSH1 0x44 DUP3 ADD MSTORE PUSH6 0x646472657373 PUSH1 0xD0 SHL PUSH1 0x64 DUP3 ADD MSTORE PUSH1 0x84 ADD PUSH2 0x93A JUMP JUMPDEST PUSH2 0xA07 DUP2 PUSH2 0x29D8 JUMP JUMPDEST DUP2 PUSH2 0x1C6F PUSH1 0x3 SLOAD SWAP1 JUMP JUMPDEST DUP2 GT ISZERO PUSH2 0x1C8F JUMPI PUSH1 0x40 MLOAD PUSH4 0x347626DD PUSH1 0xE2 SHL DUP2 MSTORE PUSH1 0x4 ADD PUSH2 0x93A SWAP1 PUSH2 0x5882 JUMP JUMPDEST PUSH1 0x0 DUP4 DUP2 MSTORE PUSH1 0x1 PUSH1 0x20 MSTORE PUSH1 0x40 SWAP1 KECCAK256 PUSH1 0x15 ADD SLOAD DUP4 SWAP1 PUSH1 0xFF AND PUSH2 0x1CC3 JUMPI PUSH1 0x40 MLOAD PUSH4 0xB4644DD9 PUSH1 0xE0 SHL DUP2 MSTORE PUSH1 0x4 ADD PUSH2 0x93A SWAP1 PUSH2 0x58DB JUMP JUMPDEST CALLER PUSH1 0x0 DUP2 DUP2 MSTORE PUSH1 0x2 PUSH1 0x20 MSTORE PUSH1 0x40 SWAP1 KECCAK256 SLOAD DUP1 ISZERO PUSH2 0x1D22 JUMPI PUSH1 0x40 MLOAD PUSH4 0x934F2C3 PUSH1 0xE0 SHL DUP2 MSTORE PUSH1 0x20 PUSH1 0x4 DUP3 ADD MSTORE PUSH1 0x1B PUSH1 0x24 DUP3 ADD MSTORE PUSH32 0x546865726520697320616E20756E706169642070656E616C7479210000000000 PUSH1 0x44 DUP3 ADD MSTORE PUSH1 0x64 ADD PUSH2 0x93A JUMP JUMPDEST PUSH2 0x1D2D DUP7 DUP7 CALLER PUSH2 0x3768 JUMP JUMPDEST PUSH32 0x8E913351AA76002E572CC432B46556976F6E10285B52F94909124EA8EBD0B795 DUP7 DUP7 CALLER PUSH1 0x1 PUSH1 0x40 MLOAD PUSH2 0xC50 SWAP5 SWAP4 SWAP3 SWAP2 SWAP1 PUSH2 0x5921 JUMP JUMPDEST PUSH2 0x1D6D DUP3 DUP3 PUSH2 0x3B2B JUMP JUMPDEST PUSH32 0x9096640C11BD5636CED741C9725E5FF774B334455C80E15491F15BB3AF0BC265 CALLER DUP4 DUP4 PUSH1 0x40 MLOAD PUSH2 0x1DA0 SWAP4 SWAP3 SWAP2 SWAP1 PUSH2 0x59D1 JUMP JUMPDEST PUSH1 0x40 MLOAD DUP1 SWAP2 SUB SWAP1 LOG1 POP POP JUMP JUMPDEST PUSH1 0x0 PUSH1 0x64 PUSH2 0x1DBA DUP5 DUP5 PUSH2 0x3D3A JUMP JUMPDEST PUSH2 0x1DC4 SWAP2 SWAP1 PUSH2 0x5AE2 JUMP JUMPDEST SWAP4 SWAP3 POP POP POP JUMP JUMPDEST PUSH1 0x0 DUP2 DUP2 MSTORE PUSH1 0x1 PUSH1 0x20 MSTORE PUSH1 0x40 SWAP1 DUP2 SWAP1 KECCAK256 PUSH1 0x15 ADD DUP1 SLOAD PUSH3 0xFF0000 NOT AND PUSH3 0x60000 OR SWAP1 SSTORE MLOAD PUSH1 0x0 DUP1 MLOAD PUSH1 0x20 PUSH2 0x5D32 DUP4 CODECOPY DUP2 MLOAD SWAP2 MSTORE SWAP1 PUSH2 0xD9A SWAP1 DUP4 SWAP1 PUSH1 0x6 SWAP1 CALLER SWAP1 PUSH2 0x5B04 JUMP JUMPDEST PUSH1 0x0 DUP3 ISZERO PUSH2 0x1E86 JUMPI PUSH2 0x1E23 DUP7 DUP7 CALLER DUP8 DUP7 PUSH2 0x3D46 JUMP JUMPDEST PUSH1 0x0 DUP7 DUP2 MSTORE PUSH1 0x1 PUSH1 0x20 MSTORE PUSH1 0x40 SWAP1 KECCAK256 PUSH1 0xA ADD SLOAD PUSH2 0x100 SWAP1 DIV PUSH1 0xFF AND DUP1 ISZERO PUSH2 0x1E54 JUMPI PUSH2 0x1E4D DUP8 DUP7 PUSH2 0x10DA JUMP JUMPDEST SWAP2 POP PUSH2 0x1E69 JUMP JUMPDEST PUSH1 0x0 DUP8 DUP2 MSTORE PUSH1 0x1 PUSH1 0x20 MSTORE PUSH1 0x40 SWAP1 KECCAK256 PUSH1 0xB ADD SLOAD SWAP2 POP JUMPDEST PUSH2 0x1E7E PUSH2 0x162A DUP4 PUSH8 0xDE0B6B3A7640000 PUSH2 0x58C4 JUMP JUMPDEST SWAP2 POP POP PUSH2 0x1E97 JUMP JUMPDEST PUSH2 0x1E93 DUP7 DUP7 DUP7 PUSH1 0x1 PUSH2 0x3EE5 JUMP JUMPDEST POP PUSH1 0x0 JUMPDEST SWAP6 SWAP5 POP POP POP POP POP JUMP JUMPDEST DUP1 SELFBALANCE LT ISZERO PUSH2 0x1EF0 JUMPI PUSH1 0x40 MLOAD PUSH3 0x461BCD PUSH1 0xE5 SHL DUP2 MSTORE PUSH1 0x20 PUSH1 0x4 DUP3 ADD MSTORE PUSH1 0x1E PUSH1 0x24 DUP3 ADD MSTORE PUSH32 0x5468652062616C616E6365206973206E6F742073756666696369656E742E0000 PUSH1 0x44 DUP3 ADD MSTORE PUSH1 0x64 ADD PUSH2 0x93A JUMP JUMPDEST PUSH1 0x0 DUP3 PUSH1 0x1 PUSH1 0x1 PUSH1 0xA0 SHL SUB AND DUP3 PUSH1 0x40 MLOAD PUSH1 0x0 PUSH1 0x40 MLOAD DUP1 DUP4 SUB DUP2 DUP6 DUP8 GAS CALL SWAP3 POP POP POP RETURNDATASIZE DUP1 PUSH1 0x0 DUP2 EQ PUSH2 0x1F3D JUMPI PUSH1 0x40 MLOAD SWAP2 POP PUSH1 0x1F NOT PUSH1 0x3F RETURNDATASIZE ADD AND DUP3 ADD PUSH1 0x40 MSTORE RETURNDATASIZE DUP3 MSTORE RETURNDATASIZE PUSH1 0x0 PUSH1 0x20 DUP5 ADD RETURNDATACOPY PUSH2 0x1F42 JUMP JUMPDEST PUSH1 0x60 SWAP2 POP JUMPDEST POP POP SWAP1 POP DUP1 PUSH2 0x1F81 JUMPI PUSH1 0x40 MLOAD PUSH3 0x461BCD PUSH1 0xE5 SHL DUP2 MSTORE PUSH1 0x20 PUSH1 0x4 DUP3 ADD MSTORE PUSH1 0xB PUSH1 0x24 DUP3 ADD MSTORE PUSH11 0x10D85B1B0819985A5B1959 PUSH1 0xAA SHL PUSH1 0x44 DUP3 ADD MSTORE PUSH1 0x64 ADD PUSH2 0x93A JUMP JUMPDEST PUSH1 0x40 DUP1 MLOAD ADDRESS DUP2 MSTORE PUSH1 0x1 PUSH1 0x1 PUSH1 0xA0 SHL SUB DUP6 AND PUSH1 0x20 DUP3 ADD MSTORE SWAP1 DUP2 ADD DUP4 SWAP1 MSTORE PUSH1 0x0 DUP1 MLOAD PUSH1 0x20 PUSH2 0x5D52 DUP4 CODECOPY DUP2 MLOAD SWAP2 MSTORE SWAP1 PUSH1 0x60 ADD JUMPDEST PUSH1 0x40 MLOAD DUP1 SWAP2 SUB SWAP1 LOG1 POP POP POP JUMP JUMPDEST PUSH1 0x0 SLOAD PUSH1 0x1 PUSH1 0x1 PUSH1 0xA0 SHL SUB AND CALLER EQ PUSH2 0x1129 JUMPI PUSH1 0x40 MLOAD PUSH3 0x461BCD PUSH1 0xE5 SHL DUP2 MSTORE PUSH1 0x20 PUSH1 0x4 DUP3 ADD DUP2 SWAP1 MSTORE PUSH1 0x24 DUP3 ADD MSTORE PUSH32 0x4F776E61626C653A2063616C6C6572206973206E6F7420746865206F776E6572 PUSH1 0x44 DUP3 ADD MSTORE PUSH1 0x64 ADD PUSH2 0x93A JUMP JUMPDEST PUSH1 0x0 PUSH20 0x6CA0189BAF54F88684ED158193021E45745F810E PUSH2 0x2041 DUP4 PUSH8 0xDE0B6B3A7640000 PUSH2 0x58C4 JUMP JUMPDEST PUSH1 0x40 MLOAD PUSH1 0x0 DUP2 DUP2 DUP2 DUP6 DUP8 GAS CALL SWAP3 POP POP POP RETURNDATASIZE DUP1 PUSH1 0x0 DUP2 EQ PUSH2 0x207D JUMPI PUSH1 0x40 MLOAD SWAP2 POP PUSH1 0x1F NOT PUSH1 0x3F RETURNDATASIZE ADD AND DUP3 ADD PUSH1 0x40 MSTORE RETURNDATASIZE DUP3 MSTORE RETURNDATASIZE PUSH1 0x0 PUSH1 0x20 DUP5 ADD RETURNDATACOPY PUSH2 0x2082 JUMP JUMPDEST PUSH1 0x60 SWAP2 POP JUMPDEST POP POP SWAP1 POP DUP1 PUSH2 0x20C1 JUMPI PUSH1 0x40 MLOAD PUSH3 0x461BCD PUSH1 0xE5 SHL DUP2 MSTORE PUSH1 0x20 PUSH1 0x4 DUP3 ADD MSTORE PUSH1 0xB PUSH1 0x24 DUP3 ADD MSTORE PUSH11 0x10D85B1B0819985A5B1959 PUSH1 0xAA SHL PUSH1 0x44 DUP3 ADD MSTORE PUSH1 0x64 ADD PUSH2 0x93A JUMP JUMPDEST PUSH1 0x40 DUP1 MLOAD ADDRESS DUP2 MSTORE CALLER PUSH1 0x20 DUP3 ADD MSTORE SELFBALANCE SWAP2 DUP2 ADD SWAP2 SWAP1 SWAP2 MSTORE PUSH1 0x0 DUP1 MLOAD PUSH1 0x20 PUSH2 0x5D52 DUP4 CODECOPY DUP2 MLOAD SWAP2 MSTORE SWAP1 PUSH1 0x60 ADD PUSH2 0x1DA0 JUMP JUMPDEST PUSH1 0x0 PUSH1 0x60 PUSH1 0x0 PUSH2 0x2100 DUP6 DUP6 PUSH1 0x0 PUSH2 0x11BD JUMP JUMPDEST DUP2 MLOAD SWAP2 SWAP4 POP SWAP2 POP PUSH1 0x0 SUB PUSH2 0x2119 JUMPI PUSH1 0x0 SWAP3 POP POP POP PUSH2 0xA31 JUMP JUMPDEST PUSH2 0x2128 DUP6 DUP6 DUP5 PUSH1 0x4 PUSH1 0x0 PUSH2 0x40E0 JUMP JUMPDEST PUSH1 0x0 DUP6 DUP2 MSTORE PUSH1 0x1 PUSH1 0x20 MSTORE PUSH1 0x40 DUP2 KECCAK256 PUSH1 0xA ADD SLOAD PUSH2 0x100 SWAP1 DIV PUSH1 0xFF AND ISZERO PUSH2 0x21BC JUMPI PUSH1 0x0 JUMPDEST DUP4 MLOAD DUP2 LT ISZERO PUSH2 0x21B6 JUMPI PUSH2 0x215C DUP8 PUSH2 0x305A JUMP JUMPDEST PUSH2 0x1A0 ADD MLOAD DUP5 DUP3 DUP2 MLOAD DUP2 LT PUSH2 0x2173 JUMPI PUSH2 0x2173 PUSH2 0x595B JUMP JUMPDEST PUSH1 0x20 MUL PUSH1 0x20 ADD ADD MLOAD DUP2 MLOAD DUP2 LT PUSH2 0x218B JUMPI PUSH2 0x218B PUSH2 0x595B JUMP JUMPDEST PUSH1 0x20 MUL PUSH1 0x20 ADD ADD MLOAD PUSH1 0x20 ADD MLOAD DUP3 PUSH2 0x21A2 SWAP2 SWAP1 PUSH2 0x59BE JUMP JUMPDEST SWAP2 POP DUP1 PUSH2 0x21AE DUP2 PUSH2 0x5971 JUMP JUMPDEST SWAP2 POP POP PUSH2 0x214A JUMP JUMPDEST POP PUSH2 0x21CD JUMP JUMPDEST PUSH2 0x21C5 DUP7 PUSH2 0x305A JUMP JUMPDEST PUSH2 0x180 ADD MLOAD SWAP1 POP JUMPDEST PUSH1 0x0 PUSH20 0x0 PUSH4 0x4F6CA3CE PUSH2 0x21F2 DUP5 PUSH2 0x29BE JUMP JUMPDEST PUSH1 0x40 MLOAD DUP3 PUSH4 0xFFFFFFFF AND PUSH1 0xE0 SHL DUP2 MSTORE PUSH1 0x4 ADD PUSH2 0x2210 SWAP2 DUP2 MSTORE PUSH1 0x20 ADD SWAP1 JUMP JUMPDEST PUSH1 0x20 PUSH1 0x40 MLOAD DUP1 DUP4 SUB DUP2 DUP7 GAS DELEGATECALL ISZERO DUP1 ISZERO PUSH2 0x222D JUMPI RETURNDATASIZE PUSH1 0x0 DUP1 RETURNDATACOPY RETURNDATASIZE PUSH1 0x0 REVERT JUMPDEST POP POP POP POP PUSH1 0x40 MLOAD RETURNDATASIZE PUSH1 0x1F NOT PUSH1 0x1F DUP3 ADD AND DUP3 ADD DUP1 PUSH1 0x40 MSTORE POP DUP2 ADD SWAP1 PUSH2 0x2251 SWAP2 SWAP1 PUSH2 0x5B2F JUMP JUMPDEST PUSH1 0x40 MLOAD PUSH4 0x9CE5C4BF PUSH1 0xE0 SHL DUP2 MSTORE PUSH1 0x4 DUP2 ADD DUP6 SWAP1 MSTORE PUSH1 0x24 DUP2 ADD DUP3 SWAP1 MSTORE SWAP1 SWAP2 POP PUSH1 0x0 SWAP1 PUSH20 0x0 SWAP1 PUSH4 0x9CE5C4BF SWAP1 PUSH1 0x44 ADD PUSH1 0x20 PUSH1 0x40 MLOAD DUP1 DUP4 SUB DUP2 DUP7 GAS DELEGATECALL ISZERO DUP1 ISZERO PUSH2 0x22AE JUMPI RETURNDATASIZE PUSH1 0x0 DUP1 RETURNDATACOPY RETURNDATASIZE PUSH1 0x0 REVERT JUMPDEST POP POP POP POP PUSH1 0x40 MLOAD RETURNDATASIZE PUSH1 0x1F NOT PUSH1 0x1F DUP3 ADD AND DUP3 ADD DUP1 PUSH1 0x40 MSTORE POP DUP2 ADD SWAP1 PUSH2 0x22D2 SWAP2 SWAP1 PUSH2 0x5B2F JUMP JUMPDEST SWAP9 SWAP8 POP POP POP POP POP POP POP POP JUMP JUMPDEST PUSH1 0x1 PUSH1 0x1 PUSH1 0xA0 SHL SUB DUP3 AND PUSH1 0x0 SWAP1 DUP2 MSTORE PUSH1 0x2 PUSH1 0x20 MSTORE PUSH1 0x40 DUP2 KECCAK256 DUP1 SLOAD DUP4 SWAP3 SWAP1 PUSH2 0x2306 SWAP1 DUP5 SWAP1 PUSH2 0x59BE JUMP JUMPDEST SWAP1 SWAP2 SSTORE POP POP POP POP JUMP JUMPDEST PUSH1 0x0 DUP4 DUP2 MSTORE PUSH1 0x1 PUSH1 0x20 SWAP1 DUP2 MSTORE PUSH1 0x40 DUP1 DUP4 KECCAK256 PUSH1 0x1 PUSH1 0x1 PUSH1 0xA0 SHL SUB DUP6 AND DUP5 MSTORE PUSH1 0x10 ADD SWAP1 SWAP2 MSTORE DUP2 KECCAK256 DUP1 SLOAD SWAP1 SWAP2 SUB PUSH2 0x2377 JUMPI PUSH1 0x0 DUP5 DUP2 MSTORE PUSH1 0x1 PUSH1 0x20 DUP2 DUP2 MSTORE PUSH1 0x40 DUP4 KECCAK256 PUSH1 0xE ADD DUP1 SLOAD SWAP3 DUP4 ADD DUP2 SSTORE DUP4 MSTORE SWAP1 SWAP2 KECCAK256 ADD DUP1 SLOAD PUSH1 0x1 PUSH1 0x1 PUSH1 0xA0 SHL SUB NOT AND PUSH1 0x1 PUSH1 0x1 PUSH1 0xA0 SHL SUB DUP5 AND OR SWAP1 SSTORE JUMPDEST PUSH1 0x0 DUP1 JUMPDEST DUP5 MLOAD DUP2 LT ISZERO PUSH2 0x25E6 JUMPI PUSH1 0x1 PUSH1 0x0 DUP8 DUP2 MSTORE PUSH1 0x20 ADD SWAP1 DUP2 MSTORE PUSH1 0x20 ADD PUSH1 0x0 KECCAK256 PUSH1 0xC ADD DUP6 DUP3 DUP2 MLOAD DUP2 LT PUSH2 0x23AC JUMPI PUSH2 0x23AC PUSH2 0x595B JUMP JUMPDEST PUSH1 0x20 MUL PUSH1 0x20 ADD ADD MLOAD DUP2 SLOAD DUP2 LT PUSH2 0x23C4 JUMPI PUSH2 0x23C4 PUSH2 0x595B JUMP JUMPDEST PUSH1 0x0 SWAP2 DUP3 MSTORE PUSH1 0x20 DUP3 KECCAK256 PUSH1 0x9 PUSH1 0xB SWAP1 SWAP3 MUL ADD ADD SLOAD PUSH1 0xFF AND SWAP3 POP DUP3 PUSH1 0xB DUP2 GT ISZERO PUSH2 0x23EE JUMPI PUSH2 0x23EE PUSH2 0x5197 JUMP JUMPDEST SUB PUSH2 0x24B5 JUMPI PUSH1 0x1 DUP1 PUSH1 0x0 DUP9 DUP2 MSTORE PUSH1 0x20 ADD SWAP1 DUP2 MSTORE PUSH1 0x20 ADD PUSH1 0x0 KECCAK256 PUSH1 0xC ADD DUP7 DUP4 DUP2 MLOAD DUP2 LT PUSH2 0x241C JUMPI PUSH2 0x241C PUSH2 0x595B JUMP JUMPDEST PUSH1 0x20 MUL PUSH1 0x20 ADD ADD MLOAD DUP2 SLOAD DUP2 LT PUSH2 0x2434 JUMPI PUSH2 0x2434 PUSH2 0x595B JUMP JUMPDEST SWAP1 PUSH1 0x0 MSTORE PUSH1 0x20 PUSH1 0x0 KECCAK256 SWAP1 PUSH1 0xB MUL ADD PUSH1 0x9 ADD PUSH1 0x0 PUSH2 0x100 EXP DUP2 SLOAD DUP2 PUSH1 0xFF MUL NOT AND SWAP1 DUP4 PUSH1 0xB DUP2 GT ISZERO PUSH2 0x2466 JUMPI PUSH2 0x2466 PUSH2 0x5197 JUMP JUMPDEST MUL OR SWAP1 SSTORE POP PUSH1 0x0 DUP1 MLOAD PUSH1 0x20 PUSH2 0x5D12 DUP4 CODECOPY DUP2 MLOAD SWAP2 MSTORE DUP7 DUP7 DUP4 DUP2 MLOAD DUP2 LT PUSH2 0x248D JUMPI PUSH2 0x248D PUSH2 0x595B JUMP JUMPDEST PUSH1 0x20 MUL PUSH1 0x20 ADD ADD MLOAD PUSH1 0x1 CALLER PUSH1 0x40 MLOAD PUSH2 0x24A8 SWAP5 SWAP4 SWAP3 SWAP2 SWAP1 PUSH2 0x5B48 JUMP JUMPDEST PUSH1 0x40 MLOAD DUP1 SWAP2 SUB SWAP1 LOG1 PUSH2 0x259F JUMP JUMPDEST PUSH1 0x2 DUP3 PUSH1 0xB DUP2 GT ISZERO PUSH2 0x24C9 JUMPI PUSH2 0x24C9 PUSH2 0x5197 JUMP JUMPDEST SUB PUSH2 0x2584 JUMPI PUSH1 0x3 PUSH1 0x1 PUSH1 0x0 DUP9 DUP2 MSTORE PUSH1 0x20 ADD SWAP1 DUP2 MSTORE PUSH1 0x20 ADD PUSH1 0x0 KECCAK256 PUSH1 0xC ADD DUP7 DUP4 DUP2 MLOAD DUP2 LT PUSH2 0x24F8 JUMPI PUSH2 0x24F8 PUSH2 0x595B JUMP JUMPDEST PUSH1 0x20 MUL PUSH1 0x20 ADD ADD MLOAD DUP2 SLOAD DUP2 LT PUSH2 0x2510 JUMPI PUSH2 0x2510 PUSH2 0x595B JUMP JUMPDEST SWAP1 PUSH1 0x0 MSTORE PUSH1 0x20 PUSH1 0x0 KECCAK256 SWAP1 PUSH1 0xB MUL ADD PUSH1 0x9 ADD PUSH1 0x0 PUSH2 0x100 EXP DUP2 SLOAD DUP2 PUSH1 0xFF MUL NOT AND SWAP1 DUP4 PUSH1 0xB DUP2 GT ISZERO PUSH2 0x2542 JUMPI PUSH2 0x2542 PUSH2 0x5197 JUMP JUMPDEST MUL OR SWAP1 SSTORE POP PUSH1 0x0 DUP1 MLOAD PUSH1 0x20 PUSH2 0x5D12 DUP4 CODECOPY DUP2 MLOAD SWAP2 MSTORE DUP7 DUP7 DUP4 DUP2 MLOAD DUP2 LT PUSH2 0x2569 JUMPI PUSH2 0x2569 PUSH2 0x595B JUMP JUMPDEST PUSH1 0x20 MUL PUSH1 0x20 ADD ADD MLOAD PUSH1 0x3 CALLER PUSH1 0x40 MLOAD PUSH2 0x24A8 SWAP5 SWAP4 SWAP3 SWAP2 SWAP1 PUSH2 0x5B48 JUMP JUMPDEST DUP2 PUSH1 0x40 MLOAD PUSH4 0x66F643A5 PUSH1 0xE1 SHL DUP2 MSTORE PUSH1 0x4 ADD PUSH2 0x93A SWAP2 SWAP1 PUSH2 0x5B7B JUMP JUMPDEST DUP3 PUSH1 0x0 ADD DUP6 DUP3 DUP2 MLOAD DUP2 LT PUSH2 0x25B5 JUMPI PUSH2 0x25B5 PUSH2 0x595B JUMP JUMPDEST PUSH1 0x20 SWAP1 DUP2 MUL SWAP2 SWAP1 SWAP2 ADD DUP2 ADD MLOAD DUP3 SLOAD PUSH1 0x1 DUP2 ADD DUP5 SSTORE PUSH1 0x0 SWAP4 DUP5 MSTORE SWAP2 SWAP1 SWAP3 KECCAK256 ADD SSTORE DUP1 PUSH2 0x25DE DUP2 PUSH2 0x5971 JUMP JUMPDEST SWAP2 POP POP PUSH2 0x237B JUMP JUMPDEST POP PUSH1 0x0 DUP6 DUP2 MSTORE PUSH1 0x1 PUSH1 0x20 MSTORE PUSH1 0x40 DUP2 KECCAK256 PUSH1 0x14 ADD DUP1 SLOAD SWAP2 PUSH2 0x2604 DUP4 PUSH2 0x5971 JUMP JUMPDEST SWAP2 SWAP1 POP SSTORE POP PUSH2 0x2614 DUP6 PUSH1 0x0 PUSH2 0x113B JUMP JUMPDEST ISZERO PUSH2 0x17DD JUMPI PUSH1 0x0 DUP6 DUP2 MSTORE PUSH1 0x1 PUSH1 0x20 SWAP1 DUP2 MSTORE PUSH1 0x40 DUP1 DUP4 KECCAK256 PUSH1 0x15 ADD DUP1 SLOAD PUSH2 0xFF00 NOT AND SWAP1 SSTORE DUP1 MLOAD DUP9 DUP2 MSTORE SWAP2 DUP3 ADD SWAP3 SWAP1 SWAP3 MSTORE CALLER DUP2 DUP4 ADD MSTORE SWAP1 MLOAD PUSH32 0x89BB035780742B4FE520972847D93DB0618ABD46516AF218E10FD3479347B7E4 SWAP2 DUP2 SWAP1 SUB PUSH1 0x60 ADD SWAP1 LOG1 PUSH2 0x267E DUP6 PUSH1 0x1 PUSH2 0x113B JUMP JUMPDEST ISZERO PUSH2 0x26DA JUMPI PUSH1 0x0 DUP6 DUP2 MSTORE PUSH1 0x1 PUSH1 0x20 MSTORE PUSH1 0x40 SWAP1 KECCAK256 PUSH1 0x15 ADD DUP1 SLOAD PUSH1 0x3 SWAP2 SWAP1 PUSH3 0xFF0000 NOT AND PUSH3 0x10000 DUP4 JUMPDEST MUL OR SWAP1 SSTORE POP PUSH1 0x0 DUP1 MLOAD PUSH1 0x20 PUSH2 0x5D32 DUP4 CODECOPY DUP2 MLOAD SWAP2 MSTORE DUP6 PUSH1 0x3 CALLER PUSH1 0x40 MLOAD PUSH2 0x26CD SWAP4 SWAP3 SWAP2 SWAP1 PUSH2 0x5B04 JUMP JUMPDEST PUSH1 0x40 MLOAD DUP1 SWAP2 SUB SWAP1 LOG1 PUSH2 0x17DD JUMP JUMPDEST PUSH1 0x0 DUP6 DUP2 MSTORE PUSH1 0x1 PUSH1 0x20 DUP2 SWAP1 MSTORE PUSH1 0x40 SWAP1 SWAP2 KECCAK256 PUSH1 0x15 ADD DUP1 SLOAD PUSH3 0xFF0000 NOT AND PUSH3 0x10000 DUP4 MUL OR SWAP1 SSTORE POP PUSH1 0x0 DUP1 MLOAD PUSH1 0x20 PUSH2 0x5D32 DUP4 CODECOPY DUP2 MLOAD SWAP2 MSTORE DUP6 PUSH1 0x1 CALLER PUSH1 0x40 MLOAD PUSH2 0x2722 SWAP4 SWAP3 SWAP2 SWAP1 PUSH2 0x5B04 JUMP JUMPDEST PUSH1 0x40 MLOAD DUP1 SWAP2 SUB SWAP1 LOG1 POP POP POP POP POP JUMP JUMPDEST PUSH1 0x1 PUSH1 0x1 PUSH1 0xA0 SHL SUB DUP3 AND PUSH1 0x0 SWAP1 DUP2 MSTORE PUSH1 0x2 PUSH1 0x20 MSTORE PUSH1 0x40 DUP2 KECCAK256 DUP1 SLOAD DUP4 SWAP3 SWAP1 PUSH2 0x2306 SWAP1 DUP5 SWAP1 PUSH2 0x5BB0 JUMP JUMPDEST PUSH1 0x0 SLOAD PUSH1 0x1 PUSH1 0xA0 SHL SWAP1 DIV PUSH1 0xFF AND ISZERO PUSH2 0x27A9 JUMPI PUSH1 0x40 MLOAD PUSH3 0x461BCD PUSH1 0xE5 SHL DUP2 MSTORE PUSH1 0x20 PUSH1 0x4 DUP3 ADD MSTORE PUSH1 0x13 PUSH1 0x24 DUP3 ADD MSTORE PUSH19 0x2A3432903637B1B59034B9903637B1B5B2B217 PUSH1 0x69 SHL PUSH1 0x44 DUP3 ADD MSTORE PUSH1 0x64 ADD PUSH2 0x93A JUMP JUMPDEST PUSH1 0x0 DUP1 SLOAD PUSH1 0xFF PUSH1 0xA0 SHL NOT AND PUSH1 0x1 PUSH1 0xA0 SHL OR DUP2 SSTORE PUSH1 0x40 MLOAD PUSH1 0x1 PUSH1 0x1 PUSH1 0xA0 SHL SUB DUP5 AND SWAP1 DUP4 SWAP1 DUP4 DUP2 DUP2 DUP2 DUP6 DUP8 GAS CALL SWAP3 POP POP POP RETURNDATASIZE DUP1 PUSH1 0x0 DUP2 EQ PUSH2 0x2804 JUMPI PUSH1 0x40 MLOAD SWAP2 POP PUSH1 0x1F NOT PUSH1 0x3F RETURNDATASIZE ADD AND DUP3 ADD PUSH1 0x40 MSTORE RETURNDATASIZE DUP3 MSTORE RETURNDATASIZE PUSH1 0x0 PUSH1 0x20 DUP5 ADD RETURNDATACOPY PUSH2 0x2809 JUMP JUMPDEST PUSH1 0x60 SWAP2 POP JUMPDEST POP POP SWAP1 POP DUP1 PUSH2 0x2848 JUMPI PUSH1 0x40 MLOAD PUSH3 0x461BCD PUSH1 0xE5 SHL DUP2 MSTORE PUSH1 0x20 PUSH1 0x4 DUP3 ADD MSTORE PUSH1 0xB PUSH1 0x24 DUP3 ADD MSTORE PUSH11 0x10D85B1B0819985A5B1959 PUSH1 0xAA SHL PUSH1 0x44 DUP3 ADD MSTORE PUSH1 0x64 ADD PUSH2 0x93A JUMP JUMPDEST PUSH1 0x40 DUP1 MLOAD CALLER DUP2 MSTORE PUSH1 0x1 PUSH1 0x1 PUSH1 0xA0 SHL SUB DUP6 AND PUSH1 0x20 DUP3 ADD MSTORE SWAP1 DUP2 ADD DUP4 SWAP1 MSTORE PUSH1 0x0 DUP1 MLOAD PUSH1 0x20 PUSH2 0x5D52 DUP4 CODECOPY DUP2 MLOAD SWAP2 MSTORE SWAP1 PUSH1 0x60 ADD PUSH1 0x40 MLOAD DUP1 SWAP2 SUB SWAP1 LOG1 POP POP PUSH1 0x0 DUP1 SLOAD PUSH1 0xFF PUSH1 0xA0 SHL NOT AND SWAP1 SSTORE POP JUMP JUMPDEST PUSH1 0x0 PUSH1 0x60 PUSH1 0x0 PUSH2 0x28A3 DUP6 DUP6 PUSH1 0x1 PUSH2 0x11BD JUMP JUMPDEST DUP2 MLOAD SWAP2 SWAP4 POP SWAP2 POP PUSH1 0x0 SUB PUSH2 0x28BC JUMPI PUSH1 0x0 SWAP3 POP POP POP PUSH2 0xA31 JUMP JUMPDEST PUSH2 0x28CB DUP6 DUP6 DUP5 PUSH1 0x4 PUSH1 0x1 PUSH2 0x40E0 JUMP JUMPDEST PUSH1 0x0 DUP6 DUP2 MSTORE PUSH1 0x1 PUSH1 0x20 MSTORE PUSH1 0x40 DUP2 KECCAK256 PUSH1 0xA ADD SLOAD PUSH2 0x100 SWAP1 DIV PUSH1 0xFF AND ISZERO PUSH2 0x295F JUMPI PUSH1 0x0 JUMPDEST DUP4 MLOAD DUP2 LT ISZERO PUSH2 0x2959 JUMPI PUSH2 0x28FF DUP8 PUSH2 0x305A JUMP JUMPDEST PUSH2 0x1A0 ADD MLOAD DUP5 DUP3 DUP2 MLOAD DUP2 LT PUSH2 0x2916 JUMPI PUSH2 0x2916 PUSH2 0x595B JUMP JUMPDEST PUSH1 0x20 MUL PUSH1 0x20 ADD ADD MLOAD DUP2 MLOAD DUP2 LT PUSH2 0x292E JUMPI PUSH2 0x292E PUSH2 0x595B JUMP JUMPDEST PUSH1 0x20 MUL PUSH1 0x20 ADD ADD MLOAD PUSH1 0x20 ADD MLOAD DUP3 PUSH2 0x2945 SWAP2 SWAP1 PUSH2 0x59BE JUMP JUMPDEST SWAP2 POP DUP1 PUSH2 0x2951 DUP2 PUSH2 0x5971 JUMP JUMPDEST SWAP2 POP POP PUSH2 0x28ED JUMP JUMPDEST POP PUSH2 0x2970 JUMP JUMPDEST PUSH2 0x2968 DUP7 PUSH2 0x305A JUMP JUMPDEST PUSH2 0x180 ADD MLOAD SWAP1 POP JUMPDEST PUSH1 0x0 PUSH20 0x0 PUSH4 0x4F6CA3CE PUSH2 0x21F2 DUP5 PUSH2 0x42AC JUMP JUMPDEST DUP1 ISZERO PUSH2 0x29AB JUMPI PUSH2 0x29A6 DUP5 DUP5 DUP5 PUSH2 0x42B9 JUMP JUMPDEST PUSH2 0x29B8 JUMP JUMPDEST PUSH2 0x29B8 DUP5 DUP5 DUP5 PUSH1 0x0 PUSH2 0x3EE5 JUMP JUMPDEST POP POP POP POP JUMP JUMPDEST PUSH1 0x0 PUSH2 0xA31 DUP3 PUSH1 0x24 PUSH2 0x1DAC JUMP JUMPDEST PUSH1 0x0 PUSH2 0xA31 DUP3 PUSH1 0x18 PUSH2 0x1DAC JUMP JUMPDEST PUSH1 0x0 DUP1 SLOAD PUSH1 0x1 PUSH1 0x1 PUSH1 0xA0 SHL SUB DUP4 DUP2 AND PUSH1 0x1 PUSH1 0x1 PUSH1 0xA0 SHL SUB NOT DUP4 AND DUP2 OR DUP5 SSTORE PUSH1 0x40 MLOAD SWAP2 SWAP1 SWAP3 AND SWAP3 DUP4 SWAP2 PUSH32 0x8BE0079C531659141344CD1FD0A4F28419497F9722A3DAAFE3B4186F6B6457E0 SWAP2 SWAP1 LOG3 POP POP JUMP JUMPDEST PUSH1 0x40 MLOAD PUSH1 0x0 SWAP1 PUSH20 0x6CA0189BAF54F88684ED158193021E45745F810E SWAP1 SELFBALANCE SWAP1 DUP4 DUP2 DUP2 DUP2 DUP6 DUP8 GAS CALL SWAP3 POP POP POP RETURNDATASIZE DUP1 PUSH1 0x0 DUP2 EQ PUSH2 0x2A7E JUMPI PUSH1 0x40 MLOAD SWAP2 POP PUSH1 0x1F NOT PUSH1 0x3F RETURNDATASIZE ADD AND DUP3 ADD PUSH1 0x40 MSTORE RETURNDATASIZE DUP3 MSTORE RETURNDATASIZE PUSH1 0x0 PUSH1 0x20 DUP5 ADD RETURNDATACOPY PUSH2 0x2A83 JUMP JUMPDEST PUSH1 0x60 SWAP2 POP JUMPDEST POP POP SWAP1 POP DUP1 PUSH2 0x2AC2 JUMPI PUSH1 0x40 MLOAD PUSH3 0x461BCD PUSH1 0xE5 SHL DUP2 MSTORE PUSH1 0x20 PUSH1 0x4 DUP3 ADD MSTORE PUSH1 0xB PUSH1 0x24 DUP3 ADD MSTORE PUSH11 0x10D85B1B0819985A5B1959 PUSH1 0xAA SHL PUSH1 0x44 DUP3 ADD MSTORE PUSH1 0x64 ADD PUSH2 0x93A JUMP JUMPDEST PUSH1 0x40 DUP1 MLOAD ADDRESS DUP2 MSTORE CALLER PUSH1 0x20 DUP3 ADD MSTORE SELFBALANCE SWAP2 DUP2 ADD SWAP2 SWAP1 SWAP2 MSTORE PUSH1 0x0 DUP1 MLOAD PUSH1 0x20 PUSH2 0x5D52 DUP4 CODECOPY DUP2 MLOAD SWAP2 MSTORE SWAP1 PUSH1 0x60 ADD PUSH2 0xD9A JUMP JUMPDEST PUSH1 0x0 DUP2 DUP2 MSTORE PUSH1 0x1 PUSH1 0x20 MSTORE PUSH1 0x40 DUP2 KECCAK256 PUSH1 0xD ADD SLOAD PUSH1 0x0 PUSH2 0x2B0C DUP5 PUSH2 0x17E4 JUMP JUMPDEST SWAP1 POP PUSH2 0x2B19 DUP5 PUSH1 0x1 PUSH2 0x113B JUMP JUMPDEST ISZERO PUSH2 0x2B28 JUMPI POP PUSH1 0x1 SWAP4 SWAP3 POP POP POP JUMP JUMPDEST DUP2 PUSH1 0x0 SUB PUSH2 0x2B43 JUMPI PUSH2 0x2B39 DUP5 PUSH2 0x43A5 JUMP JUMPDEST POP PUSH1 0x0 SWAP4 SWAP3 POP POP POP JUMP JUMPDEST DUP1 MLOAD DUP3 PUSH1 0x0 PUSH2 0x2B52 DUP3 DUP5 PUSH2 0x5AE2 JUMP JUMPDEST SWAP1 POP PUSH1 0x0 PUSH2 0x2B5F DUP9 PUSH2 0x14FD JUMP JUMPDEST SWAP1 POP PUSH1 0x0 JUMPDEST DUP6 MLOAD DUP2 LT ISZERO PUSH2 0x2CA0 JUMPI PUSH1 0x0 DUP7 DUP3 DUP2 MLOAD DUP2 LT PUSH2 0x2B81 JUMPI PUSH2 0x2B81 PUSH2 0x595B JUMP JUMPDEST PUSH1 0x20 MUL PUSH1 0x20 ADD ADD MLOAD PUSH1 0x60 ADD MLOAD PUSH1 0xB DUP2 GT ISZERO PUSH2 0x2B9E JUMPI PUSH2 0x2B9E PUSH2 0x5197 JUMP JUMPDEST SUB PUSH2 0x2C8E JUMPI PUSH1 0x0 JUMPDEST DUP8 DUP2 LT ISZERO PUSH2 0x2C8C JUMPI DUP4 PUSH2 0x2BD2 DUP12 DUP6 DUP5 DUP2 MLOAD DUP2 LT PUSH2 0x2BC5 JUMPI PUSH2 0x2BC5 PUSH2 0x595B JUMP JUMPDEST PUSH1 0x20 MUL PUSH1 0x20 ADD ADD MLOAD PUSH2 0xA0A JUMP JUMPDEST GT PUSH2 0x2C7A JUMPI PUSH2 0x2BFD DUP11 DUP4 DUP6 DUP5 DUP2 MLOAD DUP2 LT PUSH2 0x2BEE JUMPI PUSH2 0x2BEE PUSH2 0x595B JUMP JUMPDEST PUSH1 0x20 MUL PUSH1 0x20 ADD ADD MLOAD PUSH1 0x1 PUSH2 0x43FF JUMP JUMPDEST PUSH32 0xAD65127436138B4AFE97EF23BAF28ED14A5FB09500AD117EB196CD3BDB3DBE9F DUP11 DUP4 DUP6 DUP5 DUP2 MLOAD DUP2 LT PUSH2 0x2C32 JUMPI PUSH2 0x2C32 PUSH2 0x595B JUMP JUMPDEST PUSH1 0x20 MUL PUSH1 0x20 ADD ADD MLOAD PUSH1 0x1 PUSH1 0x40 MLOAD PUSH2 0x2C6D SWAP5 SWAP4 SWAP3 SWAP2 SWAP1 SWAP4 DUP5 MSTORE PUSH1 0x20 DUP5 ADD SWAP3 SWAP1 SWAP3 MSTORE PUSH1 0x1 PUSH1 0x1 PUSH1 0xA0 SHL SUB AND PUSH1 0x40 DUP4 ADD MSTORE ISZERO ISZERO PUSH1 0x60 DUP3 ADD MSTORE PUSH1 0x80 ADD SWAP1 JUMP JUMPDEST PUSH1 0x40 MLOAD DUP1 SWAP2 SUB SWAP1 LOG1 PUSH2 0x2C8C JUMP JUMPDEST DUP1 PUSH2 0x2C84 DUP2 PUSH2 0x5971 JUMP JUMPDEST SWAP2 POP POP PUSH2 0x2BA6 JUMP JUMPDEST POP JUMPDEST DUP1 PUSH2 0x2C98 DUP2 PUSH2 0x5971 JUMP JUMPDEST SWAP2 POP POP PUSH2 0x2B64 JUMP JUMPDEST POP PUSH2 0x2CAA DUP9 PUSH2 0x43A5 JUMP JUMPDEST PUSH2 0x2CB5 DUP9 PUSH1 0x0 PUSH2 0x113B JUMP JUMPDEST ISZERO PUSH2 0x2CCA JUMPI PUSH2 0x2CC5 DUP9 PUSH1 0x3 PUSH2 0x44E2 JUMP JUMPDEST PUSH2 0x2CD5 JUMP JUMPDEST PUSH2 0x2CD5 DUP9 PUSH1 0x2 PUSH2 0x44E2 JUMP JUMPDEST POP PUSH1 0x0 SWAP8 SWAP7 POP POP POP POP POP POP POP JUMP JUMPDEST PUSH1 0x0 DUP3 DUP2 MSTORE PUSH1 0x1 PUSH1 0x20 MSTORE PUSH1 0x40 SWAP1 KECCAK256 PUSH1 0xC ADD DUP1 SLOAD PUSH1 0xB SWAP2 SWAP1 DUP4 SWAP1 DUP2 LT PUSH2 0x2D0A JUMPI PUSH2 0x2D0A PUSH2 0x595B JUMP JUMPDEST SWAP1 PUSH1 0x0 MSTORE PUSH1 0x20 PUSH1 0x0 KECCAK256 SWAP1 PUSH1 0xB MUL ADD PUSH1 0x9 ADD PUSH1 0x0 PUSH2 0x100 EXP DUP2 SLOAD DUP2 PUSH1 0xFF MUL NOT AND SWAP1 DUP4 PUSH1 0xB DUP2 GT ISZERO PUSH2 0x2D3C JUMPI PUSH2 0x2D3C PUSH2 0x5197 JUMP JUMPDEST MUL OR SWAP1 SSTORE POP PUSH1 0x0 DUP1 MLOAD PUSH1 0x20 PUSH2 0x5D12 DUP4 CODECOPY DUP2 MLOAD SWAP2 MSTORE DUP3 DUP3 PUSH1 0xB CALLER PUSH1 0x40 MLOAD PUSH2 0x1DA0 SWAP5 SWAP4 SWAP3 SWAP2 SWAP1 PUSH2 0x5B48 JUMP JUMPDEST PUSH1 0x0 PUSH2 0x2D6F PUSH2 0x1FBE JUMP JUMPDEST PUSH1 0x0 DUP3 DUP2 MSTORE PUSH1 0x1 PUSH1 0x20 MSTORE PUSH1 0x40 DUP2 KECCAK256 PUSH1 0xE DUP2 ADD SLOAD PUSH1 0xD SWAP1 SWAP2 ADD SLOAD SWAP1 SWAP2 PUSH2 0x2D93 DUP6 PUSH2 0x17E4 JUMP JUMPDEST SWAP1 POP PUSH2 0x2DA0 DUP6 PUSH1 0x0 PUSH2 0x113B JUMP JUMPDEST ISZERO PUSH2 0x2DB0 JUMPI POP PUSH1 0x1 SWAP5 SWAP4 POP POP POP POP JUMP JUMPDEST DUP3 ISZERO DUP1 ISZERO PUSH2 0x2DBD JUMPI POP DUP2 ISZERO ISZERO JUMPDEST ISZERO PUSH2 0x2DD6 JUMPI PUSH2 0x2DCB DUP6 PUSH2 0x453A JUMP JUMPDEST POP PUSH1 0x0 SWAP5 SWAP4 POP POP POP POP JUMP JUMPDEST DUP3 ISZERO DUP1 ISZERO PUSH2 0x2DE2 JUMPI POP DUP2 ISZERO JUMPDEST ISZERO PUSH2 0x2E35 JUMPI PUSH2 0x2DF0 DUP6 PUSH2 0x4595 JUMP JUMPDEST PUSH1 0x0 DUP6 DUP2 MSTORE PUSH1 0x1 PUSH1 0x20 MSTORE PUSH1 0x40 DUP2 KECCAK256 DUP1 SLOAD PUSH1 0xB SWAP1 SWAP2 ADD SLOAD PUSH1 0x1 PUSH1 0x1 PUSH1 0xA0 SHL SUB SWAP1 SWAP2 AND SWAP2 SWAP1 PUSH2 0x2E1C SWAP1 PUSH2 0x162A JUMP JUMPDEST SWAP1 POP PUSH2 0x2E28 DUP3 DUP3 PUSH2 0x1EA0 JUMP JUMPDEST POP PUSH1 0x0 SWAP7 SWAP6 POP POP POP POP POP POP JUMP JUMPDEST DUP1 MLOAD DUP4 PUSH1 0x0 PUSH2 0x2E44 DUP3 DUP5 PUSH2 0x5AE2 JUMP JUMPDEST SWAP1 POP PUSH1 0x0 PUSH2 0x2E51 DUP10 PUSH2 0x16D7 JUMP JUMPDEST SWAP1 POP PUSH1 0x0 JUMPDEST DUP6 MLOAD DUP2 LT ISZERO PUSH2 0x2FB9 JUMPI PUSH1 0x0 DUP7 DUP3 DUP2 MLOAD DUP2 LT PUSH2 0x2E73 JUMPI PUSH2 0x2E73 PUSH2 0x595B JUMP JUMPDEST PUSH1 0x20 MUL PUSH1 0x20 ADD ADD MLOAD PUSH1 0x60 ADD MLOAD PUSH1 0xB DUP2 GT ISZERO PUSH2 0x2E90 JUMPI PUSH2 0x2E90 PUSH2 0x5197 JUMP JUMPDEST SUB PUSH2 0x2FA7 JUMPI PUSH1 0x0 JUMPDEST DUP9 DUP2 LT ISZERO PUSH2 0x2FA5 JUMPI DUP4 PUSH2 0x2EEB DUP13 DUP6 DUP5 DUP2 MLOAD DUP2 LT PUSH2 0x2EB7 JUMPI PUSH2 0x2EB7 PUSH2 0x595B JUMP JUMPDEST PUSH1 0x20 MUL PUSH1 0x20 ADD ADD MLOAD PUSH1 0x0 DUP3 DUP2 MSTORE PUSH1 0x1 PUSH1 0x20 SWAP1 DUP2 MSTORE PUSH1 0x40 DUP1 DUP4 KECCAK256 PUSH1 0x1 PUSH1 0x1 PUSH1 0xA0 SHL SUB DUP6 AND DUP5 MSTORE PUSH1 0x10 ADD SWAP1 SWAP2 MSTORE SWAP1 KECCAK256 SLOAD SWAP3 SWAP2 POP POP JUMP JUMPDEST GT PUSH2 0x2F93 JUMPI PUSH2 0x2F16 DUP12 DUP4 DUP6 DUP5 DUP2 MLOAD DUP2 LT PUSH2 0x2F07 JUMPI PUSH2 0x2F07 PUSH2 0x595B JUMP JUMPDEST PUSH1 0x20 MUL PUSH1 0x20 ADD ADD MLOAD PUSH1 0x0 PUSH2 0x43FF JUMP JUMPDEST PUSH32 0xAD65127436138B4AFE97EF23BAF28ED14A5FB09500AD117EB196CD3BDB3DBE9F DUP12 DUP4 DUP6 DUP5 DUP2 MLOAD DUP2 LT PUSH2 0x2F4B JUMPI PUSH2 0x2F4B PUSH2 0x595B JUMP JUMPDEST PUSH1 0x20 MUL PUSH1 0x20 ADD ADD MLOAD PUSH1 0x0 PUSH1 0x40 MLOAD PUSH2 0x2F86 SWAP5 SWAP4 SWAP3 SWAP2 SWAP1 SWAP4 DUP5 MSTORE PUSH1 0x20 DUP5 ADD SWAP3 SWAP1 SWAP3 MSTORE PUSH1 0x1 PUSH1 0x1 PUSH1 0xA0 SHL SUB AND PUSH1 0x40 DUP4 ADD MSTORE ISZERO ISZERO PUSH1 0x60 DUP3 ADD MSTORE PUSH1 0x80 ADD SWAP1 JUMP JUMPDEST PUSH1 0x40 MLOAD DUP1 SWAP2 SUB SWAP1 LOG1 PUSH2 0x2FA5 JUMP JUMPDEST DUP1 PUSH2 0x2F9D DUP2 PUSH2 0x5971 JUMP JUMPDEST SWAP2 POP POP PUSH2 0x2E98 JUMP JUMPDEST POP JUMPDEST DUP1 PUSH2 0x2FB1 DUP2 PUSH2 0x5971 JUMP JUMPDEST SWAP2 POP POP PUSH2 0x2E56 JUMP JUMPDEST POP PUSH2 0x2FC3 DUP10 PUSH2 0x453A JUMP JUMPDEST PUSH2 0x2FCE DUP10 PUSH1 0x1 PUSH2 0x113B JUMP JUMPDEST ISZERO PUSH2 0x2FE3 JUMPI PUSH2 0x2FDE DUP10 PUSH1 0x3 PUSH2 0x44E2 JUMP JUMPDEST PUSH2 0x2FEE JUMP JUMPDEST PUSH2 0x2FEE DUP10 PUSH1 0x1 PUSH2 0x44E2 JUMP JUMPDEST POP POP POP POP PUSH1 0x0 SWAP4 POP POP POP POP JUMPDEST SWAP2 SWAP1 POP JUMP JUMPDEST PUSH1 0x0 DUP1 PUSH2 0x300B DUP4 PUSH2 0x463B JUMP JUMPDEST SWAP1 POP PUSH32 0x9096640C11BD5636CED741C9725E5FF774B334455C80E15491F15BB3AF0BC265 CALLER DUP3 DUP6 PUSH1 0x40 MLOAD PUSH2 0x3040 SWAP4 SWAP3 SWAP2 SWAP1 PUSH2 0x59D1 JUMP JUMPDEST PUSH1 0x40 MLOAD DUP1 SWAP2 SUB SWAP1 LOG1 SWAP3 SWAP2 POP POP JUMP JUMPDEST PUSH2 0x11B8 DUP4 CALLER DUP5 DUP5 PUSH2 0x48DB JUMP JUMPDEST PUSH2 0x3062 PUSH2 0x4A22 JUMP JUMPDEST PUSH2 0x306A PUSH2 0x4A22 JUMP JUMPDEST PUSH1 0x0 DUP4 DUP2 MSTORE PUSH1 0x1 PUSH1 0x20 DUP2 DUP2 MSTORE PUSH1 0x40 DUP4 KECCAK256 DUP1 SLOAD PUSH1 0x1 PUSH1 0x1 PUSH1 0xA0 SHL SUB AND DUP6 MSTORE DUP1 DUP4 ADD SLOAD DUP6 DUP4 ADD MSTORE SWAP3 DUP7 SWAP1 MSTORE MSTORE PUSH1 0x2 ADD DUP1 SLOAD PUSH2 0x30A2 SWAP1 PUSH2 0x598A JUMP JUMPDEST DUP1 PUSH1 0x1F ADD PUSH1 0x20 DUP1 SWAP2 DIV MUL PUSH1 0x20 ADD PUSH1 0x40 MLOAD SWAP1 DUP2 ADD PUSH1 0x40 MSTORE DUP1 SWAP3 SWAP2 SWAP1 DUP2 DUP2 MSTORE PUSH1 0x20 ADD DUP3 DUP1 SLOAD PUSH2 0x30CE SWAP1 PUSH2 0x598A JUMP JUMPDEST DUP1 ISZERO PUSH2 0x311B JUMPI DUP1 PUSH1 0x1F LT PUSH2 0x30F0 JUMPI PUSH2 0x100 DUP1 DUP4 SLOAD DIV MUL DUP4 MSTORE SWAP2 PUSH1 0x20 ADD SWAP2 PUSH2 0x311B JUMP JUMPDEST DUP3 ADD SWAP2 SWAP1 PUSH1 0x0 MSTORE PUSH1 0x20 PUSH1 0x0 KECCAK256 SWAP1 JUMPDEST DUP2 SLOAD DUP2 MSTORE SWAP1 PUSH1 0x1 ADD SWAP1 PUSH1 0x20 ADD DUP1 DUP4 GT PUSH2 0x30FE JUMPI DUP3 SWAP1 SUB PUSH1 0x1F AND DUP3 ADD SWAP2 JUMPDEST POP POP POP POP PUSH1 0x40 DUP1 DUP5 ADD SWAP3 SWAP1 SWAP3 MSTORE POP PUSH1 0x0 DUP5 DUP2 MSTORE PUSH1 0x1 PUSH1 0x20 MSTORE KECCAK256 PUSH1 0x3 ADD DUP1 SLOAD PUSH2 0x3142 SWAP1 PUSH2 0x598A JUMP JUMPDEST DUP1 PUSH1 0x1F ADD PUSH1 0x20 DUP1 SWAP2 DIV MUL PUSH1 0x20 ADD PUSH1 0x40 MLOAD SWAP1 DUP2 ADD PUSH1 0x40 MSTORE DUP1 SWAP3 SWAP2 SWAP1 DUP2 DUP2 MSTORE PUSH1 0x20 ADD DUP3 DUP1 SLOAD PUSH2 0x316E SWAP1 PUSH2 0x598A JUMP JUMPDEST DUP1 ISZERO PUSH2 0x31BB JUMPI DUP1 PUSH1 0x1F LT PUSH2 0x3190 JUMPI PUSH2 0x100 DUP1 DUP4 SLOAD DIV MUL DUP4 MSTORE SWAP2 PUSH1 0x20 ADD SWAP2 PUSH2 0x31BB JUMP JUMPDEST DUP3 ADD SWAP2 SWAP1 PUSH1 0x0 MSTORE PUSH1 0x20 PUSH1 0x0 KECCAK256 SWAP1 JUMPDEST DUP2 SLOAD DUP2 MSTORE SWAP1 PUSH1 0x1 ADD SWAP1 PUSH1 0x20 ADD DUP1 DUP4 GT PUSH2 0x319E JUMPI DUP3 SWAP1 SUB PUSH1 0x1F AND DUP3 ADD SWAP2 JUMPDEST POP POP POP POP POP PUSH1 0x60 DUP3 ADD MSTORE PUSH1 0x0 DUP4 DUP2 MSTORE PUSH1 0x1 PUSH1 0x20 DUP2 DUP2 MSTORE PUSH1 0x40 DUP1 DUP5 KECCAK256 PUSH1 0x4 DUP2 ADD SLOAD PUSH1 0x80 DUP8 ADD MSTORE PUSH1 0x5 DUP2 ADD SLOAD PUSH1 0xA0 DUP8 ADD MSTORE PUSH1 0x6 DUP2 ADD SLOAD PUSH1 0xC0 DUP8 ADD MSTORE SWAP4 DUP8 SWAP1 MSTORE SWAP2 DUP2 MSTORE PUSH1 0x7 SWAP1 SWAP3 ADD DUP1 SLOAD DUP3 MLOAD DUP2 DUP6 MUL DUP2 ADD DUP6 ADD SWAP1 SWAP4 MSTORE DUP1 DUP4 MSTORE SWAP2 SWAP3 SWAP1 SWAP2 SWAP1 DUP4 ADD DUP3 DUP3 DUP1 ISZERO PUSH2 0x3245 JUMPI PUSH1 0x20 MUL DUP3 ADD SWAP2 SWAP1 PUSH1 0x0 MSTORE PUSH1 0x20 PUSH1 0x0 KECCAK256 SWAP1 JUMPDEST DUP2 SLOAD DUP2 MSTORE PUSH1 0x20 ADD SWAP1 PUSH1 0x1 ADD SWAP1 DUP1 DUP4 GT PUSH2 0x3231 JUMPI JUMPDEST POP POP POP POP POP PUSH1 0xE0 DUP3 ADD MSTORE PUSH1 0x0 DUP4 DUP2 MSTORE PUSH1 0x1 PUSH1 0x20 DUP2 DUP2 MSTORE PUSH1 0x40 DUP4 KECCAK256 PUSH1 0x8 DUP2 ADD SLOAD PUSH2 0x100 DUP1 DUP8 ADD SWAP2 SWAP1 SWAP2 MSTORE PUSH1 0x9 DUP3 ADD SLOAD PUSH2 0x120 DUP8 ADD MSTORE PUSH1 0xA DUP3 ADD SLOAD PUSH1 0xFF DUP1 DUP3 AND ISZERO ISZERO PUSH2 0x140 DUP10 ADD MSTORE SWAP1 DUP3 SWAP1 DIV DUP2 AND ISZERO ISZERO PUSH2 0x160 DUP9 ADD MSTORE PUSH1 0xB DUP4 ADD SLOAD PUSH2 0x180 DUP9 ADD MSTORE PUSH1 0x11 DUP4 ADD SLOAD PUSH2 0x240 DUP9 ADD MSTORE PUSH1 0x12 DUP4 ADD SLOAD PUSH2 0x260 DUP9 ADD MSTORE PUSH1 0x13 DUP4 ADD SLOAD PUSH2 0x280 DUP9 ADD MSTORE PUSH1 0x14 DUP4 ADD SLOAD PUSH2 0x2A0 DUP9 ADD MSTORE PUSH1 0x15 SWAP1 SWAP3 ADD SLOAD DUP1 DUP4 AND ISZERO ISZERO PUSH2 0x2C0 DUP9 ADD MSTORE SWAP1 DUP2 DIV DUP3 AND ISZERO ISZERO PUSH2 0x2E0 DUP8 ADD MSTORE SWAP4 DUP8 SWAP1 MSTORE SWAP2 SWAP1 MSTORE PUSH2 0x300 DUP4 ADD SWAP2 PUSH3 0x10000 SWAP1 DIV AND PUSH1 0x7 DUP2 GT ISZERO PUSH2 0x3313 JUMPI PUSH2 0x3313 PUSH2 0x5197 JUMP JUMPDEST SWAP1 DUP2 PUSH1 0x7 DUP2 GT ISZERO PUSH2 0x3326 JUMPI PUSH2 0x3326 PUSH2 0x5197 JUMP JUMPDEST SWAP1 MSTORE POP PUSH1 0x0 DUP4 DUP2 MSTORE PUSH1 0x1 PUSH1 0x20 SWAP1 DUP2 MSTORE PUSH1 0x40 DUP1 DUP4 KECCAK256 PUSH1 0xC ADD DUP1 SLOAD DUP3 MLOAD DUP2 DUP6 MUL DUP2 ADD DUP6 ADD SWAP1 SWAP4 MSTORE DUP1 DUP4 MSTORE SWAP2 SWAP4 SWAP1 SWAP3 DUP5 ADD JUMPDEST DUP3 DUP3 LT ISZERO PUSH2 0x35C3 JUMPI PUSH1 0x0 DUP5 DUP2 MSTORE PUSH1 0x20 SWAP1 KECCAK256 PUSH1 0x40 DUP1 MLOAD PUSH2 0x180 DUP2 ADD SWAP1 SWAP2 MSTORE PUSH1 0xB DUP5 MUL SWAP1 SWAP2 ADD DUP1 SLOAD DUP3 SWAP1 PUSH1 0xA0 DUP3 ADD SWAP1 DUP4 SWAP1 DUP3 SWAP1 DUP3 SWAP1 PUSH2 0x3391 SWAP1 PUSH2 0x598A JUMP JUMPDEST DUP1 PUSH1 0x1F ADD PUSH1 0x20 DUP1 SWAP2 DIV MUL PUSH1 0x20 ADD PUSH1 0x40 MLOAD SWAP1 DUP2 ADD PUSH1 0x40 MSTORE DUP1 SWAP3 SWAP2 SWAP1 DUP2 DUP2 MSTORE PUSH1 0x20 ADD DUP3 DUP1 SLOAD PUSH2 0x33BD SWAP1 PUSH2 0x598A JUMP JUMPDEST DUP1 ISZERO PUSH2 0x340A JUMPI DUP1 PUSH1 0x1F LT PUSH2 0x33DF JUMPI PUSH2 0x100 DUP1 DUP4 SLOAD DIV MUL DUP4 MSTORE SWAP2 PUSH1 0x20 ADD SWAP2 PUSH2 0x340A JUMP JUMPDEST DUP3 ADD SWAP2 SWAP1 PUSH1 0x0 MSTORE PUSH1 0x20 PUSH1 0x0 KECCAK256 SWAP1 JUMPDEST DUP2 SLOAD DUP2 MSTORE SWAP1 PUSH1 0x1 ADD SWAP1 PUSH1 0x20 ADD DUP1 DUP4 GT PUSH2 0x33ED JUMPI DUP3 SWAP1 SUB PUSH1 0x1F AND DUP3 ADD SWAP2 JUMPDEST POP POP POP POP POP DUP2 MSTORE PUSH1 0x20 ADD PUSH1 0x1 DUP3 ADD SLOAD DUP2 MSTORE PUSH1 0x20 ADD PUSH1 0x2 DUP3 ADD SLOAD DUP2 MSTORE PUSH1 0x20 ADD PUSH1 0x3 DUP3 ADD SLOAD DUP2 MSTORE PUSH1 0x20 ADD PUSH1 0x4 DUP3 ADD SLOAD DUP2 MSTORE PUSH1 0x20 ADD PUSH1 0x5 DUP3 ADD SLOAD DUP2 MSTORE PUSH1 0x20 ADD PUSH1 0x6 DUP3 ADD DUP1 SLOAD PUSH2 0x3455 SWAP1 PUSH2 0x598A JUMP JUMPDEST DUP1 PUSH1 0x1F ADD PUSH1 0x20 DUP1 SWAP2 DIV MUL PUSH1 0x20 ADD PUSH1 0x40 MLOAD SWAP1 DUP2 ADD PUSH1 0x40 MSTORE DUP1 SWAP3 SWAP2 SWAP1 DUP2 DUP2 MSTORE PUSH1 0x20 ADD DUP3 DUP1 SLOAD PUSH2 0x3481 SWAP1 PUSH2 0x598A JUMP JUMPDEST DUP1 ISZERO PUSH2 0x34CE JUMPI DUP1 PUSH1 0x1F LT PUSH2 0x34A3 JUMPI PUSH2 0x100 DUP1 DUP4 SLOAD DIV MUL DUP4 MSTORE SWAP2 PUSH1 0x20 ADD SWAP2 PUSH2 0x34CE JUMP JUMPDEST DUP3 ADD SWAP2 SWAP1 PUSH1 0x0 MSTORE PUSH1 0x20 PUSH1 0x0 KECCAK256 SWAP1 JUMPDEST DUP2 SLOAD DUP2 MSTORE SWAP1 PUSH1 0x1 ADD SWAP1 PUSH1 0x20 ADD DUP1 DUP4 GT PUSH2 0x34B1 JUMPI DUP3 SWAP1 SUB PUSH1 0x1F AND DUP3 ADD SWAP2 JUMPDEST POP POP POP POP POP DUP2 MSTORE POP POP DUP2 MSTORE PUSH1 0x20 ADD PUSH1 0x7 DUP3 ADD SLOAD DUP2 MSTORE PUSH1 0x20 ADD PUSH1 0x8 DUP3 ADD DUP1 SLOAD PUSH2 0x34F5 SWAP1 PUSH2 0x598A JUMP JUMPDEST DUP1 PUSH1 0x1F ADD PUSH1 0x20 DUP1 SWAP2 DIV MUL PUSH1 0x20 ADD PUSH1 0x40 MLOAD SWAP1 DUP2 ADD PUSH1 0x40 MSTORE DUP1 SWAP3 SWAP2 SWAP1 DUP2 DUP2 MSTORE PUSH1 0x20 ADD DUP3 DUP1 SLOAD PUSH2 0x3521 SWAP1 PUSH2 0x598A JUMP JUMPDEST DUP1 ISZERO PUSH2 0x356E JUMPI DUP1 PUSH1 0x1F LT PUSH2 0x3543 JUMPI PUSH2 0x100 DUP1 DUP4 SLOAD DIV MUL DUP4 MSTORE SWAP2 PUSH1 0x20 ADD SWAP2 PUSH2 0x356E JUMP JUMPDEST DUP3 ADD SWAP2 SWAP1 PUSH1 0x0 MSTORE PUSH1 0x20 PUSH1 0x0 KECCAK256 SWAP1 JUMPDEST DUP2 SLOAD DUP2 MSTORE SWAP1 PUSH1 0x1 ADD SWAP1 PUSH1 0x20 ADD DUP1 DUP4 GT PUSH2 0x3551 JUMPI DUP3 SWAP1 SUB PUSH1 0x1F AND DUP3 ADD SWAP2 JUMPDEST POP POP POP SWAP2 DUP4 MSTORE POP POP PUSH1 0x9 DUP3 ADD SLOAD PUSH1 0x20 SWAP1 SWAP2 ADD SWAP1 PUSH1 0xFF AND PUSH1 0xB DUP2 GT ISZERO PUSH2 0x3595 JUMPI PUSH2 0x3595 PUSH2 0x5197 JUMP JUMPDEST PUSH1 0xB DUP2 GT ISZERO PUSH2 0x35A6 JUMPI PUSH2 0x35A6 PUSH2 0x5197 JUMP JUMPDEST DUP2 MSTORE PUSH1 0x20 ADD PUSH1 0xA DUP3 ADD SLOAD DUP2 MSTORE POP POP DUP2 MSTORE PUSH1 0x20 ADD SWAP1 PUSH1 0x1 ADD SWAP1 PUSH2 0x3355 JUMP JUMPDEST POP POP POP POP PUSH2 0x1A0 DUP3 ADD MSTORE PUSH1 0x0 DUP4 DUP2 MSTORE PUSH1 0x1 PUSH1 0x20 MSTORE PUSH1 0x40 DUP2 KECCAK256 PUSH1 0xD DUP2 ADD SLOAD PUSH1 0xE SWAP1 SWAP2 ADD SLOAD SWAP1 SWAP2 DUP3 PUSH8 0xFFFFFFFFFFFFFFFF DUP2 GT ISZERO PUSH2 0x3601 JUMPI PUSH2 0x3601 PUSH2 0x4B5F JUMP JUMPDEST PUSH1 0x40 MLOAD SWAP1 DUP1 DUP3 MSTORE DUP1 PUSH1 0x20 MUL PUSH1 0x20 ADD DUP3 ADD PUSH1 0x40 MSTORE DUP1 ISZERO PUSH2 0x365F JUMPI DUP2 PUSH1 0x20 ADD JUMPDEST PUSH2 0x364C PUSH1 0x40 MLOAD DUP1 PUSH1 0x60 ADD PUSH1 0x40 MSTORE DUP1 PUSH1 0x0 PUSH1 0x1 PUSH1 0x1 PUSH1 0xA0 SHL SUB AND DUP2 MSTORE PUSH1 0x20 ADD PUSH1 0x60 DUP2 MSTORE PUSH1 0x20 ADD PUSH1 0x60 DUP2 MSTORE POP SWAP1 JUMP JUMPDEST DUP2 MSTORE PUSH1 0x20 ADD SWAP1 PUSH1 0x1 SWAP1 SUB SWAP1 DUP2 PUSH2 0x361F JUMPI SWAP1 POP JUMPDEST POP SWAP1 POP PUSH1 0x0 DUP3 PUSH8 0xFFFFFFFFFFFFFFFF DUP2 GT ISZERO PUSH2 0x367D JUMPI PUSH2 0x367D PUSH2 0x4B5F JUMP JUMPDEST PUSH1 0x40 MLOAD SWAP1 DUP1 DUP3 MSTORE DUP1 PUSH1 0x20 MUL PUSH1 0x20 ADD DUP3 ADD PUSH1 0x40 MSTORE DUP1 ISZERO PUSH2 0x36DB JUMPI DUP2 PUSH1 0x20 ADD JUMPDEST PUSH2 0x36C8 PUSH1 0x40 MLOAD DUP1 PUSH1 0x60 ADD PUSH1 0x40 MSTORE DUP1 PUSH1 0x0 PUSH1 0x1 PUSH1 0x1 PUSH1 0xA0 SHL SUB AND DUP2 MSTORE PUSH1 0x20 ADD PUSH1 0x60 DUP2 MSTORE PUSH1 0x20 ADD PUSH1 0x60 DUP2 MSTORE POP SWAP1 JUMP JUMPDEST DUP2 MSTORE PUSH1 0x20 ADD SWAP1 PUSH1 0x1 SWAP1 SUB SWAP1 DUP2 PUSH2 0x369B JUMPI SWAP1 POP JUMPDEST POP SWAP1 POP PUSH1 0x0 JUMPDEST DUP5 DUP2 LT ISZERO PUSH2 0x375C JUMPI PUSH1 0x0 DUP9 DUP2 MSTORE PUSH1 0x1 PUSH1 0x20 MSTORE PUSH1 0x40 SWAP1 KECCAK256 PUSH1 0xD ADD DUP1 SLOAD PUSH2 0x372C SWAP2 DUP11 SWAP2 DUP5 SWAP1 DUP2 LT PUSH2 0x3712 JUMPI PUSH2 0x3712 PUSH2 0x595B JUMP JUMPDEST PUSH1 0x0 SWAP2 DUP3 MSTORE PUSH1 0x20 SWAP1 SWAP2 KECCAK256 ADD SLOAD PUSH1 0x1 PUSH1 0x1 PUSH1 0xA0 SHL SUB AND PUSH2 0xDDD JUMP JUMPDEST DUP4 DUP3 DUP2 MLOAD DUP2 LT PUSH2 0x373E JUMPI PUSH2 0x373E PUSH2 0x595B JUMP JUMPDEST PUSH1 0x20 MUL PUSH1 0x20 ADD ADD DUP2 SWAP1 MSTORE POP DUP1 DUP1 PUSH2 0x3754 SWAP1 PUSH2 0x5971 JUMP JUMPDEST SWAP2 POP POP PUSH2 0x36E1 JUMP JUMPDEST POP SWAP4 SWAP7 SWAP6 POP POP POP POP POP POP JUMP JUMPDEST PUSH1 0x0 DUP4 DUP2 MSTORE PUSH1 0x1 PUSH1 0x20 SWAP1 DUP2 MSTORE PUSH1 0x40 DUP1 DUP4 KECCAK256 PUSH1 0x1 PUSH1 0x1 PUSH1 0xA0 SHL SUB DUP6 AND DUP5 MSTORE PUSH1 0xF ADD SWAP1 SWAP2 MSTORE DUP2 KECCAK256 DUP1 SLOAD SWAP1 SWAP2 SUB PUSH2 0x37D0 JUMPI PUSH1 0x0 DUP5 DUP2 MSTORE PUSH1 0x1 PUSH1 0x20 DUP2 DUP2 MSTORE PUSH1 0x40 DUP4 KECCAK256 PUSH1 0xD ADD DUP1 SLOAD SWAP3 DUP4 ADD DUP2 SSTORE DUP4 MSTORE SWAP1 SWAP2 KECCAK256 ADD DUP1 SLOAD PUSH1 0x1 PUSH1 0x1 PUSH1 0xA0 SHL SUB NOT AND PUSH1 0x1 PUSH1 0x1 PUSH1 0xA0 SHL SUB DUP5 AND OR SWAP1 SSTORE JUMPDEST PUSH1 0x0 DUP1 JUMPDEST DUP5 MLOAD DUP2 LT ISZERO PUSH2 0x3A25 JUMPI PUSH1 0x1 PUSH1 0x0 DUP8 DUP2 MSTORE PUSH1 0x20 ADD SWAP1 DUP2 MSTORE PUSH1 0x20 ADD PUSH1 0x0 KECCAK256 PUSH1 0xC ADD DUP6 DUP3 DUP2 MLOAD DUP2 LT PUSH2 0x3805 JUMPI PUSH2 0x3805 PUSH2 0x595B JUMP JUMPDEST PUSH1 0x20 MUL PUSH1 0x20 ADD ADD MLOAD DUP2 SLOAD DUP2 LT PUSH2 0x381D JUMPI PUSH2 0x381D PUSH2 0x595B JUMP JUMPDEST PUSH1 0x0 SWAP2 DUP3 MSTORE PUSH1 0x20 DUP3 KECCAK256 PUSH1 0x9 PUSH1 0xB SWAP1 SWAP3 MUL ADD ADD SLOAD PUSH1 0xFF AND SWAP3 POP DUP3 PUSH1 0xB DUP2 GT ISZERO PUSH2 0x3847 JUMPI PUSH2 0x3847 PUSH2 0x5197 JUMP JUMPDEST SUB PUSH2 0x390F JUMPI PUSH1 0x2 PUSH1 0x1 PUSH1 0x0 DUP9 DUP2 MSTORE PUSH1 0x20 ADD SWAP1 DUP2 MSTORE PUSH1 0x20 ADD PUSH1 0x0 KECCAK256 PUSH1 0xC ADD DUP7 DUP4 DUP2 MLOAD DUP2 LT PUSH2 0x3876 JUMPI PUSH2 0x3876 PUSH2 0x595B JUMP JUMPDEST PUSH1 0x20 MUL PUSH1 0x20 ADD ADD MLOAD DUP2 SLOAD DUP2 LT PUSH2 0x388E JUMPI PUSH2 0x388E PUSH2 0x595B JUMP JUMPDEST SWAP1 PUSH1 0x0 MSTORE PUSH1 0x20 PUSH1 0x0 KECCAK256 SWAP1 PUSH1 0xB MUL ADD PUSH1 0x9 ADD PUSH1 0x0 PUSH2 0x100 EXP DUP2 SLOAD DUP2 PUSH1 0xFF MUL NOT AND SWAP1 DUP4 PUSH1 0xB DUP2 GT ISZERO PUSH2 0x38C0 JUMPI PUSH2 0x38C0 PUSH2 0x5197 JUMP JUMPDEST MUL OR SWAP1 SSTORE POP PUSH1 0x0 DUP1 MLOAD PUSH1 0x20 PUSH2 0x5D12 DUP4 CODECOPY DUP2 MLOAD SWAP2 MSTORE DUP7 DUP7 DUP4 DUP2 MLOAD DUP2 LT PUSH2 0x38E7 JUMPI PUSH2 0x38E7 PUSH2 0x595B JUMP JUMPDEST PUSH1 0x20 MUL PUSH1 0x20 ADD ADD MLOAD PUSH1 0x2 CALLER PUSH1 0x40 MLOAD PUSH2 0x3902 SWAP5 SWAP4 SWAP3 SWAP2 SWAP1 PUSH2 0x5B48 JUMP JUMPDEST PUSH1 0x40 MLOAD DUP1 SWAP2 SUB SWAP1 LOG1 PUSH2 0x39DE JUMP JUMPDEST PUSH1 0x1 DUP3 PUSH1 0xB DUP2 GT ISZERO PUSH2 0x3923 JUMPI PUSH2 0x3923 PUSH2 0x5197 JUMP JUMPDEST SUB PUSH2 0x2584 JUMPI PUSH1 0x3 PUSH1 0x1 PUSH1 0x0 DUP9 DUP2 MSTORE PUSH1 0x20 ADD SWAP1 DUP2 MSTORE PUSH1 0x20 ADD PUSH1 0x0 KECCAK256 PUSH1 0xC ADD DUP7 DUP4 DUP2 MLOAD DUP2 LT PUSH2 0x3952 JUMPI PUSH2 0x3952 PUSH2 0x595B JUMP JUMPDEST PUSH1 0x20 MUL PUSH1 0x20 ADD ADD MLOAD DUP2 SLOAD DUP2 LT PUSH2 0x396A JUMPI PUSH2 0x396A PUSH2 0x595B JUMP JUMPDEST SWAP1 PUSH1 0x0 MSTORE PUSH1 0x20 PUSH1 0x0 KECCAK256 SWAP1 PUSH1 0xB MUL ADD PUSH1 0x9 ADD PUSH1 0x0 PUSH2 0x100 EXP DUP2 SLOAD DUP2 PUSH1 0xFF MUL NOT AND SWAP1 DUP4 PUSH1 0xB DUP2 GT ISZERO PUSH2 0x399C JUMPI PUSH2 0x399C PUSH2 0x5197 JUMP JUMPDEST MUL OR SWAP1 SSTORE POP PUSH1 0x0 DUP1 MLOAD PUSH1 0x20 PUSH2 0x5D12 DUP4 CODECOPY DUP2 MLOAD SWAP2 MSTORE DUP7 DUP7 DUP4 DUP2 MLOAD DUP2 LT PUSH2 0x39C3 JUMPI PUSH2 0x39C3 PUSH2 0x595B JUMP JUMPDEST PUSH1 0x20 MUL PUSH1 0x20 ADD ADD MLOAD PUSH1 0x3 CALLER PUSH1 0x40 MLOAD PUSH2 0x3902 SWAP5 SWAP4 SWAP3 SWAP2 SWAP1 PUSH2 0x5B48 JUMP JUMPDEST DUP3 PUSH1 0x0 ADD DUP6 DUP3 DUP2 MLOAD DUP2 LT PUSH2 0x39F4 JUMPI PUSH2 0x39F4 PUSH2 0x595B JUMP JUMPDEST PUSH1 0x20 SWAP1 DUP2 MUL SWAP2 SWAP1 SWAP2 ADD DUP2 ADD MLOAD DUP3 SLOAD PUSH1 0x1 DUP2 ADD DUP5 SSTORE PUSH1 0x0 SWAP4 DUP5 MSTORE SWAP2 SWAP1 SWAP3 KECCAK256 ADD SSTORE DUP1 PUSH2 0x3A1D DUP2 PUSH2 0x5971 JUMP JUMPDEST SWAP2 POP POP PUSH2 0x37D4 JUMP JUMPDEST POP PUSH1 0x0 DUP6 DUP2 MSTORE PUSH1 0x1 PUSH1 0x20 MSTORE PUSH1 0x40 DUP2 KECCAK256 PUSH1 0x13 ADD DUP1 SLOAD SWAP2 PUSH2 0x3A43 DUP4 PUSH2 0x5971 JUMP JUMPDEST SWAP2 SWAP1 POP SSTORE POP PUSH2 0x3A53 DUP6 PUSH1 0x1 PUSH2 0x113B JUMP JUMPDEST ISZERO PUSH2 0x17DD JUMPI PUSH1 0x0 DUP6 DUP2 MSTORE PUSH1 0x1 PUSH1 0x20 SWAP1 DUP2 MSTORE PUSH1 0x40 DUP1 DUP4 KECCAK256 PUSH1 0x15 ADD DUP1 SLOAD PUSH1 0xFF NOT AND SWAP1 SSTORE DUP1 MLOAD DUP9 DUP2 MSTORE SWAP2 DUP3 ADD SWAP3 SWAP1 SWAP3 MSTORE CALLER DUP2 DUP4 ADD MSTORE SWAP1 MLOAD PUSH32 0x398FD552105B0090D73611AD526D12979F19B77A7F923343A85D8FD14A13A67 SWAP2 DUP2 SWAP1 SUB PUSH1 0x60 ADD SWAP1 LOG1 PUSH2 0x3ABC DUP6 PUSH1 0x0 PUSH2 0x113B JUMP JUMPDEST ISZERO PUSH2 0x3AE8 JUMPI PUSH1 0x0 DUP6 DUP2 MSTORE PUSH1 0x1 PUSH1 0x20 MSTORE PUSH1 0x40 SWAP1 KECCAK256 PUSH1 0x15 ADD DUP1 SLOAD PUSH1 0x3 SWAP2 SWAP1 PUSH3 0xFF0000 NOT AND PUSH3 0x10000 DUP4 PUSH2 0x26A6 JUMP JUMPDEST PUSH1 0x0 DUP6 DUP2 MSTORE PUSH1 0x1 PUSH1 0x20 MSTORE PUSH1 0x40 SWAP1 DUP2 SWAP1 KECCAK256 PUSH1 0x15 ADD DUP1 SLOAD PUSH3 0xFF0000 NOT AND PUSH3 0x20000 OR SWAP1 SSTORE MLOAD PUSH1 0x0 DUP1 MLOAD PUSH1 0x20 PUSH2 0x5D32 DUP4 CODECOPY DUP2 MLOAD SWAP2 MSTORE SWAP1 PUSH2 0x2722 SWAP1 DUP8 SWAP1 PUSH1 0x2 SWAP1 CALLER SWAP1 PUSH2 0x5B04 JUMP JUMPDEST PUSH1 0x0 DUP3 DUP2 MSTORE PUSH1 0x1 PUSH1 0x20 DUP2 DUP2 MSTORE PUSH1 0x40 SWAP1 SWAP3 KECCAK256 DUP4 MLOAD SWAP2 DUP2 ADD SWAP2 SWAP1 SWAP2 SSTORE SWAP1 DUP3 ADD MLOAD PUSH1 0x2 DUP3 ADD SWAP1 PUSH2 0x3B58 SWAP1 DUP3 PUSH2 0x5C09 JUMP JUMPDEST POP PUSH1 0x40 DUP3 ADD MLOAD PUSH1 0x3 DUP3 ADD SWAP1 PUSH2 0x3B6D SWAP1 DUP3 PUSH2 0x5C09 JUMP JUMPDEST POP PUSH1 0x60 DUP3 ADD MLOAD PUSH1 0x4 DUP3 ADD SSTORE PUSH1 0x80 DUP3 ADD MLOAD PUSH1 0x5 DUP3 ADD SSTORE PUSH1 0xA0 DUP3 ADD MLOAD PUSH1 0x6 DUP3 ADD SSTORE PUSH1 0xC0 DUP3 ADD MLOAD DUP1 MLOAD PUSH2 0x3BA7 SWAP2 PUSH1 0x7 DUP5 ADD SWAP2 PUSH1 0x20 SWAP1 SWAP2 ADD SWAP1 PUSH2 0x4AFF JUMP JUMPDEST POP PUSH1 0xE0 DUP3 ADD MLOAD PUSH1 0x8 DUP3 ADD SSTORE PUSH2 0x100 DUP1 DUP4 ADD MLOAD PUSH1 0x9 DUP4 ADD SSTORE PUSH2 0x160 DUP4 ADD MLOAD PUSH1 0xB DUP4 ADD SSTORE PUSH2 0x120 DUP4 ADD MLOAD PUSH1 0xA DUP4 ADD DUP1 SLOAD PUSH2 0x140 DUP7 ADD MLOAD ISZERO DUP1 ISZERO SWAP1 SWAP5 MUL PUSH2 0xFF00 NOT SWAP4 ISZERO ISZERO SWAP4 SWAP1 SWAP4 AND PUSH2 0xFFFF NOT SWAP1 SWAP2 AND OR SWAP2 SWAP1 SWAP2 OR SWAP1 SSTORE PUSH2 0x3C0F JUMPI PUSH2 0x180 DUP3 ADD MLOAD MLOAD PUSH1 0x11 DUP3 ADD SSTORE PUSH2 0x3C17 JUMP JUMPDEST PUSH1 0x1 PUSH1 0x11 DUP3 ADD SSTORE JUMPDEST PUSH1 0x15 DUP2 ADD DUP1 SLOAD PUSH1 0xFF NOT AND PUSH1 0x1 OR SWAP1 SSTORE PUSH1 0x0 JUMPDEST DUP3 PUSH2 0x180 ADD MLOAD MLOAD DUP2 LT ISZERO PUSH2 0x29B8 JUMPI DUP2 PUSH1 0xC ADD DUP4 PUSH2 0x180 ADD MLOAD DUP3 DUP2 MLOAD DUP2 LT PUSH2 0x3C52 JUMPI PUSH2 0x3C52 PUSH2 0x595B JUMP JUMPDEST PUSH1 0x20 SWAP1 DUP2 MUL SWAP2 SWAP1 SWAP2 ADD DUP2 ADD MLOAD DUP3 SLOAD PUSH1 0x1 DUP2 ADD DUP5 SSTORE PUSH1 0x0 SWAP4 DUP5 MSTORE SWAP2 SWAP1 SWAP3 KECCAK256 DUP3 MLOAD DUP1 MLOAD PUSH1 0xB SWAP1 SWAP4 MUL SWAP1 SWAP2 ADD SWAP2 DUP3 SWAP1 DUP2 SWAP1 PUSH2 0x3C8A SWAP1 DUP3 PUSH2 0x5C09 JUMP JUMPDEST POP PUSH1 0x20 DUP3 ADD MLOAD PUSH1 0x1 DUP3 ADD SSTORE PUSH1 0x40 DUP3 ADD MLOAD PUSH1 0x2 DUP3 ADD SSTORE PUSH1 0x60 DUP3 ADD MLOAD PUSH1 0x3 DUP3 ADD SSTORE PUSH1 0x80 DUP3 ADD MLOAD PUSH1 0x4 DUP3 ADD SSTORE PUSH1 0xA0 DUP3 ADD MLOAD PUSH1 0x5 DUP3 ADD SSTORE PUSH1 0xC0 DUP3 ADD MLOAD PUSH1 0x6 DUP3 ADD SWAP1 PUSH2 0x3CD1 SWAP1 DUP3 PUSH2 0x5C09 JUMP JUMPDEST POP POP POP PUSH1 0x20 DUP3 ADD MLOAD PUSH1 0x7 DUP3 ADD SSTORE PUSH1 0x40 DUP3 ADD MLOAD PUSH1 0x8 DUP3 ADD SWAP1 PUSH2 0x3CF2 SWAP1 DUP3 PUSH2 0x5C09 JUMP JUMPDEST POP PUSH1 0x60 DUP3 ADD MLOAD PUSH1 0x9 DUP3 ADD DUP1 SLOAD PUSH1 0xFF NOT AND PUSH1 0x1 DUP4 PUSH1 0xB DUP2 GT ISZERO PUSH2 0x3D16 JUMPI PUSH2 0x3D16 PUSH2 0x5197 JUMP JUMPDEST MUL OR SWAP1 SSTORE POP PUSH1 0x80 DUP3 ADD MLOAD DUP2 PUSH1 0xA ADD SSTORE POP POP DUP1 DUP1 PUSH2 0x3D32 SWAP1 PUSH2 0x5971 JUMP JUMPDEST SWAP2 POP POP PUSH2 0x3C29 JUMP JUMPDEST PUSH1 0x0 PUSH2 0x1DC4 DUP3 DUP5 PUSH2 0x58C4 JUMP JUMPDEST PUSH1 0x0 DUP6 DUP2 MSTORE PUSH1 0x1 PUSH1 0x20 DUP2 DUP2 MSTORE PUSH1 0x40 DUP1 DUP5 KECCAK256 PUSH1 0x1 PUSH1 0x1 PUSH1 0xA0 SHL SUB DUP10 AND DUP6 MSTORE PUSH1 0xF DUP2 ADD DUP4 MSTORE DUP2 DUP6 KECCAK256 DUP8 DUP7 MSTORE DUP5 ADD SWAP1 SWAP3 MSTORE SWAP3 DUP4 SWAP1 KECCAK256 DUP1 SLOAD PUSH1 0xFF NOT AND PUSH1 0x3 SWAP1 DUP2 OR SWAP1 SWAP2 SSTORE SWAP3 MLOAD SWAP1 SWAP3 PUSH1 0x0 DUP1 MLOAD PUSH1 0x20 PUSH2 0x5D72 DUP4 CODECOPY DUP2 MLOAD SWAP2 MSTORE SWAP3 PUSH2 0x3DAB SWAP3 DUP11 SWAP3 DUP11 SWAP3 DUP10 SWAP3 CALLER SWAP1 PUSH2 0x5CC9 JUMP JUMPDEST PUSH1 0x40 MLOAD DUP1 SWAP2 SUB SWAP1 LOG1 PUSH1 0x6 DUP2 PUSH1 0xC ADD DUP5 DUP2 SLOAD DUP2 LT PUSH2 0x3DCA JUMPI PUSH2 0x3DCA PUSH2 0x595B JUMP JUMPDEST SWAP1 PUSH1 0x0 MSTORE PUSH1 0x20 PUSH1 0x0 KECCAK256 SWAP1 PUSH1 0xB MUL ADD PUSH1 0x9 ADD PUSH1 0x0 PUSH2 0x100 EXP DUP2 SLOAD DUP2 PUSH1 0xFF MUL NOT AND SWAP1 DUP4 PUSH1 0xB DUP2 GT ISZERO PUSH2 0x3DFC JUMPI PUSH2 0x3DFC PUSH2 0x5197 JUMP JUMPDEST MUL OR SWAP1 SSTORE POP PUSH1 0x0 DUP1 MLOAD PUSH1 0x20 PUSH2 0x5D12 DUP4 CODECOPY DUP2 MLOAD SWAP2 MSTORE DUP7 DUP5 PUSH1 0x6 CALLER PUSH1 0x40 MLOAD PUSH2 0x3E25 SWAP5 SWAP4 SWAP3 SWAP2 SWAP1 PUSH2 0x5B48 JUMP JUMPDEST PUSH1 0x40 MLOAD DUP1 SWAP2 SUB SWAP1 LOG1 TIMESTAMP DUP2 PUSH1 0xC ADD DUP5 DUP2 SLOAD DUP2 LT PUSH2 0x3E43 JUMPI PUSH2 0x3E43 PUSH2 0x595B JUMP JUMPDEST PUSH1 0x0 SWAP2 DUP3 MSTORE PUSH1 0x20 DUP1 DUP4 KECCAK256 PUSH1 0xA PUSH1 0xB SWAP1 SWAP4 MUL ADD SWAP2 SWAP1 SWAP2 ADD SWAP3 SWAP1 SWAP3 SSTORE PUSH1 0x1 PUSH1 0x1 PUSH1 0xA0 SHL SUB DUP7 AND DUP2 MSTORE PUSH1 0x10 DUP4 ADD DUP3 MSTORE PUSH1 0x40 DUP1 DUP3 KECCAK256 DUP7 DUP4 MSTORE PUSH1 0x1 SWAP1 DUP2 ADD SWAP1 SWAP4 MSTORE SWAP1 KECCAK256 ADD PUSH2 0x3E8C DUP4 DUP3 PUSH2 0x5C09 JUMP JUMPDEST POP PUSH1 0x1 PUSH1 0x1 PUSH1 0xA0 SHL SUB DUP5 AND PUSH1 0x0 SWAP1 DUP2 MSTORE PUSH1 0x10 DUP3 ADD PUSH1 0x20 SWAP1 DUP2 MSTORE PUSH1 0x40 DUP1 DUP4 KECCAK256 DUP7 DUP5 MSTORE PUSH1 0x1 SWAP1 DUP2 ADD SWAP1 SWAP3 MSTORE DUP1 DUP4 KECCAK256 DUP1 SLOAD PUSH1 0xFF NOT AND DUP4 OR SWAP1 SSTORE MLOAD PUSH1 0x0 DUP1 MLOAD PUSH1 0x20 PUSH2 0x5D72 DUP4 CODECOPY DUP2 MLOAD SWAP2 MSTORE SWAP3 PUSH2 0xC50 SWAP3 DUP11 SWAP3 DUP10 SWAP3 DUP10 SWAP3 SWAP2 CALLER SWAP1 PUSH2 0x5CC9 JUMP JUMPDEST DUP1 ISZERO PUSH2 0x3FE6 JUMPI PUSH1 0x0 DUP5 DUP2 MSTORE PUSH1 0x1 PUSH1 0x20 DUP2 DUP2 MSTORE PUSH1 0x40 DUP1 DUP5 KECCAK256 PUSH1 0x1 PUSH1 0x1 PUSH1 0xA0 SHL SUB DUP9 AND DUP6 MSTORE PUSH1 0xF ADD DUP3 MSTORE DUP1 DUP5 KECCAK256 DUP7 DUP6 MSTORE DUP4 ADD SWAP1 SWAP2 MSTORE SWAP2 DUP3 SWAP1 KECCAK256 DUP1 SLOAD PUSH1 0xFF NOT AND PUSH1 0x2 SWAP1 DUP2 OR SWAP1 SWAP2 SSTORE SWAP2 MLOAD PUSH1 0x0 DUP1 MLOAD PUSH1 0x20 PUSH2 0x5D72 DUP4 CODECOPY DUP2 MLOAD SWAP2 MSTORE SWAP3 PUSH2 0x3F4F SWAP3 DUP9 SWAP3 DUP9 SWAP3 DUP9 SWAP3 SWAP1 SWAP2 CALLER SWAP1 PUSH2 0x5CC9 JUMP JUMPDEST PUSH1 0x40 MLOAD DUP1 SWAP2 SUB SWAP1 LOG1 PUSH1 0x0 DUP5 DUP2 MSTORE PUSH1 0x1 PUSH1 0x20 MSTORE PUSH1 0x40 SWAP1 KECCAK256 PUSH1 0xC ADD DUP1 SLOAD PUSH1 0x5 SWAP2 SWAP1 DUP5 SWAP1 DUP2 LT PUSH2 0x3F7E JUMPI PUSH2 0x3F7E PUSH2 0x595B JUMP JUMPDEST SWAP1 PUSH1 0x0 MSTORE PUSH1 0x20 PUSH1 0x0 KECCAK256 SWAP1 PUSH1 0xB MUL ADD PUSH1 0x9 ADD PUSH1 0x0 PUSH2 0x100 EXP DUP2 SLOAD DUP2 PUSH1 0xFF MUL NOT AND SWAP1 DUP4 PUSH1 0xB DUP2 GT ISZERO PUSH2 0x3FB0 JUMPI PUSH2 0x3FB0 PUSH2 0x5197 JUMP JUMPDEST MUL OR SWAP1 SSTORE POP PUSH1 0x0 DUP1 MLOAD PUSH1 0x20 PUSH2 0x5D12 DUP4 CODECOPY DUP2 MLOAD SWAP2 MSTORE DUP5 DUP4 PUSH1 0x5 CALLER PUSH1 0x40 MLOAD PUSH2 0x3FD9 SWAP5 SWAP4 SWAP3 SWAP2 SWAP1 PUSH2 0x5B48 JUMP JUMPDEST PUSH1 0x40 MLOAD DUP1 SWAP2 SUB SWAP1 LOG1 PUSH2 0x29B8 JUMP JUMPDEST PUSH1 0x0 DUP5 DUP2 MSTORE PUSH1 0x1 PUSH1 0x20 DUP2 DUP2 MSTORE PUSH1 0x40 DUP1 DUP5 KECCAK256 PUSH1 0x1 PUSH1 0x1 PUSH1 0xA0 SHL SUB DUP9 AND DUP6 MSTORE PUSH1 0x10 ADD DUP3 MSTORE DUP1 DUP5 KECCAK256 DUP7 DUP6 MSTORE SWAP1 SWAP3 ADD SWAP1 MSTORE DUP1 DUP3 KECCAK256 DUP1 SLOAD PUSH1 0xFF NOT AND PUSH1 0x2 SWAP1 DUP2 OR SWAP1 SWAP2 SSTORE SWAP1 MLOAD PUSH1 0x0 DUP1 MLOAD PUSH1 0x20 PUSH2 0x5D72 DUP4 CODECOPY DUP2 MLOAD SWAP2 MSTORE SWAP3 PUSH2 0x4048 SWAP3 DUP9 SWAP3 DUP9 SWAP3 DUP9 SWAP3 SWAP2 CALLER SWAP1 PUSH2 0x5CC9 JUMP JUMPDEST PUSH1 0x40 MLOAD DUP1 SWAP2 SUB SWAP1 LOG1 PUSH1 0x0 DUP5 DUP2 MSTORE PUSH1 0x1 PUSH1 0x20 MSTORE PUSH1 0x40 SWAP1 KECCAK256 PUSH1 0xC ADD DUP1 SLOAD PUSH1 0x7 SWAP2 SWAP1 DUP5 SWAP1 DUP2 LT PUSH2 0x4077 JUMPI PUSH2 0x4077 PUSH2 0x595B JUMP JUMPDEST SWAP1 PUSH1 0x0 MSTORE PUSH1 0x20 PUSH1 0x0 KECCAK256 SWAP1 PUSH1 0xB MUL ADD PUSH1 0x9 ADD PUSH1 0x0 PUSH2 0x100 EXP DUP2 SLOAD DUP2 PUSH1 0xFF MUL NOT AND SWAP1 DUP4 PUSH1 0xB DUP2 GT ISZERO PUSH2 0x40A9 JUMPI PUSH2 0x40A9 PUSH2 0x5197 JUMP JUMPDEST MUL OR SWAP1 SSTORE POP PUSH1 0x0 DUP1 MLOAD PUSH1 0x20 PUSH2 0x5D12 DUP4 CODECOPY DUP2 MLOAD SWAP2 MSTORE DUP5 DUP4 PUSH1 0x7 CALLER PUSH1 0x40 MLOAD PUSH2 0x40D2 SWAP5 SWAP4 SWAP3 SWAP2 SWAP1 PUSH2 0x5B48 JUMP JUMPDEST PUSH1 0x40 MLOAD DUP1 SWAP2 SUB SWAP1 LOG1 POP POP POP POP JUMP JUMPDEST DUP1 ISZERO PUSH2 0x41CC JUMPI PUSH1 0x0 JUMPDEST DUP4 MLOAD DUP2 LT ISZERO PUSH2 0x41C6 JUMPI PUSH1 0x0 DUP7 DUP2 MSTORE PUSH1 0x1 PUSH1 0x20 DUP2 DUP2 MSTORE PUSH1 0x40 DUP1 DUP5 KECCAK256 PUSH1 0x1 PUSH1 0x1 PUSH1 0xA0 SHL SUB DUP11 AND DUP6 MSTORE PUSH1 0xF ADD SWAP1 SWAP2 MSTORE DUP3 KECCAK256 DUP7 MLOAD DUP7 SWAP4 SWAP2 SWAP1 SWAP3 ADD SWAP2 DUP8 SWAP1 DUP6 SWAP1 DUP2 LT PUSH2 0x4132 JUMPI PUSH2 0x4132 PUSH2 0x595B JUMP JUMPDEST PUSH1 0x20 SWAP1 DUP2 MUL SWAP2 SWAP1 SWAP2 ADD DUP2 ADD MLOAD DUP3 MSTORE DUP2 ADD SWAP2 SWAP1 SWAP2 MSTORE PUSH1 0x40 ADD PUSH1 0x0 KECCAK256 DUP1 SLOAD PUSH1 0xFF NOT AND PUSH1 0x1 DUP4 PUSH1 0x4 DUP2 GT ISZERO PUSH2 0x4166 JUMPI PUSH2 0x4166 PUSH2 0x5197 JUMP JUMPDEST MUL OR SWAP1 SSTORE POP PUSH1 0x0 DUP1 MLOAD PUSH1 0x20 PUSH2 0x5D72 DUP4 CODECOPY DUP2 MLOAD SWAP2 MSTORE DUP7 DUP7 DUP7 DUP5 DUP2 MLOAD DUP2 LT PUSH2 0x418E JUMPI PUSH2 0x418E PUSH2 0x595B JUMP JUMPDEST PUSH1 0x20 MUL PUSH1 0x20 ADD ADD MLOAD DUP7 PUSH1 0x1 CALLER PUSH1 0x40 MLOAD PUSH2 0x41AC SWAP7 SWAP6 SWAP5 SWAP4 SWAP3 SWAP2 SWAP1 PUSH2 0x5CC9 JUMP JUMPDEST PUSH1 0x40 MLOAD DUP1 SWAP2 SUB SWAP1 LOG1 DUP1 PUSH2 0x41BE DUP2 PUSH2 0x5971 JUMP JUMPDEST SWAP2 POP POP PUSH2 0x40E9 JUMP JUMPDEST POP PUSH2 0x17DD JUMP JUMPDEST PUSH1 0x0 JUMPDEST DUP4 MLOAD DUP2 LT ISZERO PUSH2 0x9F6 JUMPI PUSH1 0x0 DUP7 DUP2 MSTORE PUSH1 0x1 PUSH1 0x20 DUP2 DUP2 MSTORE PUSH1 0x40 DUP1 DUP5 KECCAK256 PUSH1 0x1 PUSH1 0x1 PUSH1 0xA0 SHL SUB DUP11 AND DUP6 MSTORE PUSH1 0x10 ADD SWAP1 SWAP2 MSTORE DUP3 KECCAK256 DUP7 MLOAD DUP7 SWAP4 SWAP2 SWAP1 SWAP3 ADD SWAP2 DUP8 SWAP1 DUP6 SWAP1 DUP2 LT PUSH2 0x4218 JUMPI PUSH2 0x4218 PUSH2 0x595B JUMP JUMPDEST PUSH1 0x20 SWAP1 DUP2 MUL SWAP2 SWAP1 SWAP2 ADD DUP2 ADD MLOAD DUP3 MSTORE DUP2 ADD SWAP2 SWAP1 SWAP2 MSTORE PUSH1 0x40 ADD PUSH1 0x0 KECCAK256 DUP1 SLOAD PUSH1 0xFF NOT AND PUSH1 0x1 DUP4 PUSH1 0x4 DUP2 GT ISZERO PUSH2 0x424C JUMPI PUSH2 0x424C PUSH2 0x5197 JUMP JUMPDEST MUL OR SWAP1 SSTORE POP PUSH1 0x0 DUP1 MLOAD PUSH1 0x20 PUSH2 0x5D72 DUP4 CODECOPY DUP2 MLOAD SWAP2 MSTORE DUP7 DUP7 DUP7 DUP5 DUP2 MLOAD DUP2 LT PUSH2 0x4274 JUMPI PUSH2 0x4274 PUSH2 0x595B JUMP JUMPDEST PUSH1 0x20 MUL PUSH1 0x20 ADD ADD MLOAD DUP7 PUSH1 0x0 CALLER PUSH1 0x40 MLOAD PUSH2 0x4292 SWAP7 SWAP6 SWAP5 SWAP4 SWAP3 SWAP2 SWAP1 PUSH2 0x5CC9 JUMP JUMPDEST PUSH1 0x40 MLOAD DUP1 SWAP2 SUB SWAP1 LOG1 DUP1 PUSH2 0x42A4 DUP2 PUSH2 0x5971 JUMP JUMPDEST SWAP2 POP POP PUSH2 0x41CF JUMP JUMPDEST PUSH1 0x0 PUSH2 0xA31 DUP3 PUSH1 0x36 PUSH2 0x1DAC JUMP JUMPDEST PUSH1 0x0 DUP4 DUP2 MSTORE PUSH1 0x1 PUSH1 0x20 DUP2 DUP2 MSTORE PUSH1 0x40 DUP1 DUP5 KECCAK256 PUSH1 0x1 PUSH1 0x1 PUSH1 0xA0 SHL SUB DUP8 AND DUP6 MSTORE PUSH1 0x10 ADD DUP3 MSTORE DUP1 DUP5 KECCAK256 DUP6 DUP6 MSTORE SWAP1 SWAP3 ADD SWAP1 MSTORE DUP1 DUP3 KECCAK256 DUP1 SLOAD PUSH1 0xFF NOT AND PUSH1 0x3 SWAP1 DUP2 OR SWAP1 SWAP2 SSTORE SWAP1 MLOAD PUSH1 0x0 DUP1 MLOAD PUSH1 0x20 PUSH2 0x5D72 DUP4 CODECOPY DUP2 MLOAD SWAP2 MSTORE SWAP3 PUSH2 0x431B SWAP3 DUP8 SWAP3 DUP8 SWAP3 DUP8 SWAP3 SWAP2 CALLER SWAP1 PUSH2 0x5CC9 JUMP JUMPDEST PUSH1 0x40 MLOAD DUP1 SWAP2 SUB SWAP1 LOG1 PUSH1 0x0 DUP4 DUP2 MSTORE PUSH1 0x1 PUSH1 0x20 MSTORE PUSH1 0x40 SWAP1 KECCAK256 PUSH1 0xC ADD DUP1 SLOAD PUSH1 0x8 SWAP2 SWAP1 DUP4 SWAP1 DUP2 LT PUSH2 0x434A JUMPI PUSH2 0x434A PUSH2 0x595B JUMP JUMPDEST SWAP1 PUSH1 0x0 MSTORE PUSH1 0x20 PUSH1 0x0 KECCAK256 SWAP1 PUSH1 0xB MUL ADD PUSH1 0x9 ADD PUSH1 0x0 PUSH2 0x100 EXP DUP2 SLOAD DUP2 PUSH1 0xFF MUL NOT AND SWAP1 DUP4 PUSH1 0xB DUP2 GT ISZERO PUSH2 0x437C JUMPI PUSH2 0x437C PUSH2 0x5197 JUMP JUMPDEST MUL OR SWAP1 SSTORE POP PUSH1 0x0 DUP1 MLOAD PUSH1 0x20 PUSH2 0x5D12 DUP4 CODECOPY DUP2 MLOAD SWAP2 MSTORE DUP4 DUP3 PUSH1 0x8 CALLER PUSH1 0x40 MLOAD PUSH2 0x1FB1 SWAP5 SWAP4 SWAP3 SWAP2 SWAP1 PUSH2 0x5B48 JUMP JUMPDEST PUSH1 0x0 DUP2 DUP2 MSTORE PUSH1 0x1 PUSH1 0x20 SWAP1 DUP2 MSTORE PUSH1 0x40 DUP1 DUP4 KECCAK256 PUSH1 0x15 ADD DUP1 SLOAD PUSH1 0xFF NOT AND SWAP1 SSTORE DUP1 MLOAD DUP5 DUP2 MSTORE SWAP2 DUP3 ADD SWAP3 SWAP1 SWAP3 MSTORE CALLER SWAP2 DUP2 ADD SWAP2 SWAP1 SWAP2 MSTORE PUSH32 0x398FD552105B0090D73611AD526D12979F19B77A7F923343A85D8FD14A13A67 SWAP1 PUSH1 0x60 ADD PUSH2 0xD9A JUMP JUMPDEST PUSH1 0x0 DUP2 ISZERO PUSH2 0x4459 JUMPI POP PUSH1 0x0 DUP5 DUP2 MSTORE PUSH1 0x1 PUSH1 0x20 DUP2 DUP2 MSTORE PUSH1 0x40 DUP1 DUP5 KECCAK256 PUSH1 0x1 PUSH1 0x1 PUSH1 0xA0 SHL SUB DUP8 AND DUP6 MSTORE PUSH1 0xF DUP2 ADD DUP4 MSTORE DUP2 DUP6 KECCAK256 DUP9 DUP7 MSTORE DUP5 ADD DUP4 MSTORE SWAP1 DUP5 KECCAK256 DUP9 DUP6 MSTORE SWAP3 SWAP1 SWAP2 MSTORE PUSH1 0x13 ADD DUP1 SLOAD SWAP2 SWAP3 PUSH2 0x444F DUP4 PUSH2 0x5971 JUMP JUMPDEST SWAP2 SWAP1 POP SSTORE POP PUSH2 0x44A7 JUMP JUMPDEST POP PUSH1 0x0 DUP5 DUP2 MSTORE PUSH1 0x1 PUSH1 0x20 DUP2 DUP2 MSTORE PUSH1 0x40 DUP1 DUP5 KECCAK256 PUSH1 0x1 PUSH1 0x1 PUSH1 0xA0 SHL SUB DUP8 AND DUP6 MSTORE PUSH1 0x10 DUP2 ADD DUP4 MSTORE DUP2 DUP6 KECCAK256 DUP9 DUP7 MSTORE DUP5 ADD DUP4 MSTORE SWAP1 DUP5 KECCAK256 DUP9 DUP6 MSTORE SWAP3 SWAP1 SWAP2 MSTORE PUSH1 0x14 ADD DUP1 SLOAD SWAP2 SWAP3 PUSH2 0x44A1 DUP4 PUSH2 0x5971 JUMP JUMPDEST SWAP2 SWAP1 POP SSTORE POP JUMPDEST POP POP PUSH1 0x0 SWAP3 DUP4 MSTORE PUSH1 0x1 PUSH1 0x20 DUP2 DUP2 MSTORE PUSH1 0x40 DUP1 DUP7 KECCAK256 PUSH1 0x1 PUSH1 0x1 PUSH1 0xA0 SHL SUB SWAP1 SWAP5 AND DUP7 MSTORE PUSH1 0xF SWAP1 SWAP4 ADD DUP2 MSTORE SWAP2 DUP5 KECCAK256 DUP1 SLOAD SWAP2 DUP3 ADD DUP2 SSTORE DUP5 MSTORE SWAP3 KECCAK256 SWAP1 SWAP2 ADD SSTORE JUMP JUMPDEST PUSH1 0x0 DUP3 DUP2 MSTORE PUSH1 0x1 PUSH1 0x20 MSTORE PUSH1 0x40 SWAP1 KECCAK256 PUSH1 0x15 ADD DUP1 SLOAD DUP3 SWAP2 SWAP1 PUSH3 0xFF0000 NOT AND PUSH3 0x10000 DUP4 PUSH1 0x7 DUP2 GT ISZERO PUSH2 0x4514 JUMPI PUSH2 0x4514 PUSH2 0x5197 JUMP JUMPDEST MUL OR SWAP1 SSTORE POP PUSH1 0x0 DUP1 MLOAD PUSH1 0x20 PUSH2 0x5D32 DUP4 CODECOPY DUP2 MLOAD SWAP2 MSTORE DUP3 DUP3 CALLER PUSH1 0x40 MLOAD PUSH2 0x1DA0 SWAP4 SWAP3 SWAP2 SWAP1 PUSH2 0x5B04 JUMP JUMPDEST PUSH1 0x0 DUP2 DUP2 MSTORE PUSH1 0x1 PUSH1 0x20 SWAP1 DUP2 MSTORE PUSH1 0x40 DUP1 DUP4 KECCAK256 PUSH1 0x15 ADD DUP1 SLOAD PUSH2 0xFF00 NOT AND SWAP1 SSTORE DUP1 MLOAD DUP5 DUP2 MSTORE SWAP2 DUP3 ADD SWAP3 SWAP1 SWAP3 MSTORE CALLER SWAP2 DUP2 ADD SWAP2 SWAP1 SWAP2 MSTORE PUSH32 0x89BB035780742B4FE520972847D93DB0618ABD46516AF218E10FD3479347B7E4 SWAP1 PUSH1 0x60 ADD PUSH2 0xD9A JUMP JUMPDEST PUSH1 0x0 DUP2 DUP2 MSTORE PUSH1 0x1 PUSH1 0x20 MSTORE PUSH1 0x40 SWAP1 DUP2 SWAP1 KECCAK256 PUSH1 0x15 ADD DUP1 SLOAD PUSH3 0xFF0000 NOT AND PUSH3 0x50000 OR SWAP1 SSTORE MLOAD PUSH1 0x0 DUP1 MLOAD PUSH1 0x20 PUSH2 0x5D32 DUP4 CODECOPY DUP2 MLOAD SWAP2 MSTORE SWAP1 PUSH2 0x45D8 SWAP1 DUP4 SWAP1 PUSH1 0x5 SWAP1 CALLER SWAP1 PUSH2 0x5B04 JUMP JUMPDEST PUSH1 0x40 MLOAD DUP1 SWAP2 SUB SWAP1 LOG1 PUSH1 0x0 DUP2 DUP2 MSTORE PUSH1 0x1 PUSH1 0x20 SWAP1 DUP2 MSTORE PUSH1 0x40 DUP1 DUP4 KECCAK256 PUSH1 0x15 ADD DUP1 SLOAD PUSH2 0xFF00 NOT AND SWAP1 SSTORE DUP1 MLOAD DUP5 DUP2 MSTORE SWAP2 DUP3 ADD SWAP3 SWAP1 SWAP3 MSTORE CALLER SWAP2 DUP2 ADD SWAP2 SWAP1 SWAP2 MSTORE PUSH32 0x398FD552105B0090D73611AD526D12979F19B77A7F923343A85D8FD14A13A67 SWAP1 PUSH1 0x60 ADD PUSH2 0xD9A JUMP JUMPDEST PUSH1 0x3 DUP1 SLOAD PUSH1 0x0 SWAP2 DUP3 PUSH2 0x464C DUP4 PUSH2 0x5971 JUMP JUMPDEST SWAP1 SWAP2 SSTORE POP POP PUSH1 0x3 SLOAD PUSH1 0x0 SWAP1 DUP2 MSTORE PUSH1 0x1 PUSH1 0x20 DUP2 DUP2 MSTORE PUSH1 0x40 SWAP1 SWAP3 KECCAK256 DUP1 SLOAD PUSH1 0x1 PUSH1 0x1 PUSH1 0xA0 SHL SUB NOT AND CALLER OR DUP2 SSTORE DUP5 MLOAD SWAP2 DUP2 ADD SWAP2 SWAP1 SWAP2 SSTORE SWAP1 DUP4 ADD MLOAD PUSH1 0x2 DUP3 ADD SWAP1 PUSH2 0x4691 SWAP1 DUP3 PUSH2 0x5C09 JUMP JUMPDEST POP PUSH1 0x40 DUP4 ADD MLOAD PUSH1 0x3 DUP3 ADD SWAP1 PUSH2 0x46A6 SWAP1 DUP3 PUSH2 0x5C09 JUMP JUMPDEST POP PUSH1 0x60 DUP4 ADD MLOAD PUSH1 0x4 DUP3 ADD SSTORE PUSH1 0x80 DUP4 ADD MLOAD PUSH1 0x5 DUP3 ADD SSTORE PUSH1 0xA0 DUP4 ADD MLOAD PUSH1 0x6 DUP3 ADD SSTORE PUSH1 0xC0 DUP4 ADD MLOAD DUP1 MLOAD PUSH2 0x46E0 SWAP2 PUSH1 0x7 DUP5 ADD SWAP2 PUSH1 0x20 SWAP1 SWAP2 ADD SWAP1 PUSH2 0x4AFF JUMP JUMPDEST POP PUSH1 0xE0 DUP4 ADD MLOAD PUSH1 0x8 DUP3 ADD SSTORE PUSH2 0x100 DUP1 DUP5 ADD MLOAD PUSH1 0x9 DUP4 ADD SSTORE PUSH2 0x160 DUP5 ADD MLOAD PUSH1 0xB DUP4 ADD SSTORE PUSH2 0x120 DUP5 ADD MLOAD PUSH1 0xA DUP4 ADD DUP1 SLOAD PUSH2 0x140 DUP8 ADD MLOAD ISZERO DUP1 ISZERO SWAP1 SWAP5 MUL PUSH2 0xFF00 NOT SWAP4 ISZERO ISZERO SWAP4 SWAP1 SWAP4 AND PUSH2 0xFFFF NOT SWAP1 SWAP2 AND OR SWAP2 SWAP1 SWAP2 OR SWAP1 SSTORE PUSH2 0x474F JUMPI PUSH2 0x180 DUP4 ADD MLOAD MLOAD PUSH1 0x11 DUP3 ADD DUP2 SWAP1 SSTORE PUSH1 0x12 DUP3 ADD SSTORE PUSH2 0x475E JUMP JUMPDEST PUSH1 0x1 PUSH1 0x11 DUP3 ADD DUP2 SWAP1 SSTORE PUSH1 0x12 DUP3 ADD SSTORE JUMPDEST PUSH1 0x15 DUP2 ADD DUP1 SLOAD PUSH2 0xFFFF NOT AND PUSH2 0x101 OR SWAP1 SSTORE PUSH1 0x0 JUMPDEST DUP4 PUSH2 0x180 ADD MLOAD MLOAD DUP2 LT ISZERO PUSH2 0x48D0 JUMPI PUSH1 0x0 DUP5 PUSH2 0x180 ADD MLOAD DUP3 DUP2 MLOAD DUP2 LT PUSH2 0x4799 JUMPI PUSH2 0x4799 PUSH2 0x595B JUMP JUMPDEST PUSH1 0x20 MUL PUSH1 0x20 ADD ADD MLOAD PUSH1 0x60 ADD SWAP1 PUSH1 0xB DUP2 GT ISZERO PUSH2 0x47B6 JUMPI PUSH2 0x47B6 PUSH2 0x5197 JUMP JUMPDEST SWAP1 DUP2 PUSH1 0xB DUP2 GT ISZERO PUSH2 0x47C9 JUMPI PUSH2 0x47C9 PUSH2 0x5197 JUMP JUMPDEST DUP2 MSTORE POP POP DUP2 PUSH1 0xC ADD DUP5 PUSH2 0x180 ADD MLOAD DUP3 DUP2 MLOAD DUP2 LT PUSH2 0x47E8 JUMPI PUSH2 0x47E8 PUSH2 0x595B JUMP JUMPDEST PUSH1 0x20 SWAP1 DUP2 MUL SWAP2 SWAP1 SWAP2 ADD DUP2 ADD MLOAD DUP3 SLOAD PUSH1 0x1 DUP2 ADD DUP5 SSTORE PUSH1 0x0 SWAP4 DUP5 MSTORE SWAP2 SWAP1 SWAP3 KECCAK256 DUP3 MLOAD DUP1 MLOAD PUSH1 0xB SWAP1 SWAP4 MUL SWAP1 SWAP2 ADD SWAP2 DUP3 SWAP1 DUP2 SWAP1 PUSH2 0x4820 SWAP1 DUP3 PUSH2 0x5C09 JUMP JUMPDEST POP PUSH1 0x20 DUP3 ADD MLOAD PUSH1 0x1 DUP3 ADD SSTORE PUSH1 0x40 DUP3 ADD MLOAD PUSH1 0x2 DUP3 ADD SSTORE PUSH1 0x60 DUP3 ADD MLOAD PUSH1 0x3 DUP3 ADD SSTORE PUSH1 0x80 DUP3 ADD MLOAD PUSH1 0x4 DUP3 ADD SSTORE PUSH1 0xA0 DUP3 ADD MLOAD PUSH1 0x5 DUP3 ADD SSTORE PUSH1 0xC0 DUP3 ADD MLOAD PUSH1 0x6 DUP3 ADD SWAP1 PUSH2 0x4867 SWAP1 DUP3 PUSH2 0x5C09 JUMP JUMPDEST POP POP POP PUSH1 0x20 DUP3 ADD MLOAD PUSH1 0x7 DUP3 ADD SSTORE PUSH1 0x40 DUP3 ADD MLOAD PUSH1 0x8 DUP3 ADD SWAP1 PUSH2 0x4888 SWAP1 DUP3 PUSH2 0x5C09 JUMP JUMPDEST POP PUSH1 0x60 DUP3 ADD MLOAD PUSH1 0x9 DUP3 ADD DUP1 SLOAD PUSH1 0xFF NOT AND PUSH1 0x1 DUP4 PUSH1 0xB DUP2 GT ISZERO PUSH2 0x48AC JUMPI PUSH2 0x48AC PUSH2 0x5197 JUMP JUMPDEST MUL OR SWAP1 SSTORE POP PUSH1 0x80 DUP3 ADD MLOAD DUP2 PUSH1 0xA ADD SSTORE POP POP DUP1 DUP1 PUSH2 0x48C8 SWAP1 PUSH2 0x5971 JUMP JUMPDEST SWAP2 POP POP PUSH2 0x4772 JUMP JUMPDEST POP POP PUSH1 0x3 SLOAD SWAP3 SWAP2 POP POP JUMP JUMPDEST PUSH1 0x0 DUP5 DUP2 MSTORE PUSH1 0x1 PUSH1 0x20 MSTORE PUSH1 0x40 SWAP1 KECCAK256 PUSH1 0xC DUP2 ADD DUP1 SLOAD PUSH1 0x4 SWAP2 SWAP1 DUP6 SWAP1 DUP2 LT PUSH2 0x4903 JUMPI PUSH2 0x4903 PUSH2 0x595B JUMP JUMPDEST SWAP1 PUSH1 0x0 MSTORE PUSH1 0x20 PUSH1 0x0 KECCAK256 SWAP1 PUSH1 0xB MUL ADD PUSH1 0x9 ADD PUSH1 0x0 PUSH2 0x100 EXP DUP2 SLOAD DUP2 PUSH1 0xFF MUL NOT AND SWAP1 DUP4 PUSH1 0xB DUP2 GT ISZERO PUSH2 0x4935 JUMPI PUSH2 0x4935 PUSH2 0x5197 JUMP JUMPDEST MUL OR SWAP1 SSTORE POP PUSH1 0x0 DUP1 MLOAD PUSH1 0x20 PUSH2 0x5D12 DUP4 CODECOPY DUP2 MLOAD SWAP2 MSTORE DUP6 DUP5 PUSH1 0x4 CALLER PUSH1 0x40 MLOAD PUSH2 0x495E SWAP5 SWAP4 SWAP3 SWAP2 SWAP1 PUSH2 0x5B48 JUMP JUMPDEST PUSH1 0x40 MLOAD DUP1 SWAP2 SUB SWAP1 LOG1 TIMESTAMP DUP2 PUSH1 0xC ADD DUP5 DUP2 SLOAD DUP2 LT PUSH2 0x497C JUMPI PUSH2 0x497C PUSH2 0x595B JUMP JUMPDEST PUSH1 0x0 SWAP2 DUP3 MSTORE PUSH1 0x20 DUP1 DUP4 KECCAK256 PUSH1 0xA PUSH1 0xB SWAP1 SWAP4 MUL ADD SWAP2 SWAP1 SWAP2 ADD SWAP3 SWAP1 SWAP3 SSTORE PUSH1 0x1 PUSH1 0x1 PUSH1 0xA0 SHL SUB DUP7 AND DUP2 MSTORE PUSH1 0xF DUP4 ADD DUP3 MSTORE PUSH1 0x40 DUP1 DUP3 KECCAK256 DUP7 DUP4 MSTORE PUSH1 0x1 SWAP1 DUP2 ADD SWAP1 SWAP4 MSTORE SWAP1 KECCAK256 ADD PUSH2 0x49C5 DUP4 DUP3 PUSH2 0x5C09 JUMP JUMPDEST POP PUSH1 0x1 PUSH1 0x1 PUSH1 0xA0 SHL SUB DUP5 AND PUSH1 0x0 SWAP1 DUP2 MSTORE PUSH1 0xF DUP3 ADD PUSH1 0x20 SWAP1 DUP2 MSTORE PUSH1 0x40 DUP1 DUP4 KECCAK256 DUP7 DUP5 MSTORE PUSH1 0x1 SWAP1 DUP2 ADD SWAP1 SWAP3 MSTORE SWAP2 DUP3 SWAP1 KECCAK256 DUP1 SLOAD PUSH1 0xFF NOT AND DUP3 OR SWAP1 SSTORE SWAP1 MLOAD PUSH1 0x0 DUP1 MLOAD PUSH1 0x20 PUSH2 0x5D72 DUP4 CODECOPY DUP2 MLOAD SWAP2 MSTORE SWAP2 PUSH2 0x2722 SWAP2 DUP9 SWAP2 DUP9 SWAP2 DUP9 SWAP2 SWAP1 DUP2 SWAP1 CALLER SWAP1 PUSH2 0x5CC9 JUMP JUMPDEST PUSH1 0x40 MLOAD DUP1 PUSH2 0x320 ADD PUSH1 0x40 MSTORE DUP1 PUSH1 0x0 PUSH1 0x1 PUSH1 0x1 PUSH1 0xA0 SHL SUB AND DUP2 MSTORE PUSH1 0x20 ADD PUSH1 0x0 DUP2 MSTORE PUSH1 0x20 ADD PUSH1 0x60 DUP2 MSTORE PUSH1 0x20 ADD PUSH1 0x60 DUP2 MSTORE PUSH1 0x20 ADD PUSH1 0x0 DUP2 MSTORE PUSH1 0x20 ADD PUSH1 0x0 DUP2 MSTORE PUSH1 0x20 ADD PUSH1 0x0 DUP2 MSTORE PUSH1 0x20 ADD PUSH1 0x60 DUP2 MSTORE PUSH1 0x20 ADD PUSH1 0x0 DUP2 MSTORE PUSH1 0x20 ADD PUSH1 0x0 DUP2 MSTORE PUSH1 0x20 ADD PUSH1 0x0 ISZERO ISZERO DUP2 MSTORE PUSH1 0x20 ADD PUSH1 0x0 ISZERO ISZERO DUP2 MSTORE PUSH1 0x20 ADD PUSH1 0x0 DUP2 MSTORE PUSH1 0x20 ADD PUSH1 0x60 DUP2 MSTORE PUSH1 0x20 ADD PUSH1 0x60 DUP2 MSTORE PUSH1 0x20 ADD PUSH1 0x60 DUP2 MSTORE PUSH1 0x20 ADD PUSH1 0x60 DUP2 MSTORE PUSH1 0x20 ADD PUSH1 0x60 DUP2 MSTORE PUSH1 0x20 ADD PUSH1 0x0 DUP2 MSTORE PUSH1 0x20 ADD PUSH1 0x0 DUP2 MSTORE PUSH1 0x20 ADD PUSH1 0x0 DUP2 MSTORE PUSH1 0x20 ADD PUSH1 0x0 DUP2 MSTORE PUSH1 0x20 ADD PUSH1 0x0 ISZERO ISZERO DUP2 MSTORE PUSH1 0x20 ADD PUSH1 0x0 ISZERO ISZERO DUP2 MSTORE PUSH1 0x20 ADD PUSH1 0x0 PUSH1 0x7 DUP2 GT ISZERO PUSH2 0x4AFA JUMPI PUSH2 0x4AFA PUSH2 0x5197 JUMP JUMPDEST SWAP1 MSTORE SWAP1 JUMP JUMPDEST DUP3 DUP1 SLOAD DUP3 DUP3 SSTORE SWAP1 PUSH1 0x0 MSTORE PUSH1 0x20 PUSH1 0x0 KECCAK256 SWAP1 DUP2 ADD SWAP3 DUP3 ISZERO PUSH2 0x4B3A JUMPI SWAP2 PUSH1 0x20 MUL DUP3 ADD JUMPDEST DUP3 DUP2 GT ISZERO PUSH2 0x4B3A JUMPI DUP3 MLOAD DUP3 SSTORE SWAP2 PUSH1 0x20 ADD SWAP2 SWAP1 PUSH1 0x1 ADD SWAP1 PUSH2 0x4B1F JUMP JUMPDEST POP PUSH2 0x4B46 SWAP3 SWAP2 POP PUSH2 0x4B4A JUMP JUMPDEST POP SWAP1 JUMP JUMPDEST JUMPDEST DUP1 DUP3 GT ISZERO PUSH2 0x4B46 JUMPI PUSH1 0x0 DUP2 SSTORE PUSH1 0x1 ADD PUSH2 0x4B4B JUMP JUMPDEST PUSH4 0x4E487B71 PUSH1 0xE0 SHL PUSH1 0x0 MSTORE PUSH1 0x41 PUSH1 0x4 MSTORE PUSH1 0x24 PUSH1 0x0 REVERT JUMPDEST PUSH1 0x40 MLOAD PUSH1 0xA0 DUP2 ADD PUSH8 0xFFFFFFFFFFFFFFFF DUP2 GT DUP3 DUP3 LT OR ISZERO PUSH2 0x4B98 JUMPI PUSH2 0x4B98 PUSH2 0x4B5F JUMP JUMPDEST PUSH1 0x40 MSTORE SWAP1 JUMP JUMPDEST PUSH1 0x40 MLOAD PUSH1 0xE0 DUP2 ADD PUSH8 0xFFFFFFFFFFFFFFFF DUP2 GT DUP3 DUP3 LT OR ISZERO PUSH2 0x4B98 JUMPI PUSH2 0x4B98 PUSH2 0x4B5F JUMP JUMPDEST PUSH1 0x40 MLOAD PUSH2 0x1A0 DUP2 ADD PUSH8 0xFFFFFFFFFFFFFFFF DUP2 GT DUP3 DUP3 LT OR ISZERO PUSH2 0x4B98 JUMPI PUSH2 0x4B98 PUSH2 0x4B5F JUMP JUMPDEST PUSH1 0x40 MLOAD PUSH1 0x1F DUP3 ADD PUSH1 0x1F NOT AND DUP2 ADD PUSH8 0xFFFFFFFFFFFFFFFF DUP2 GT DUP3 DUP3 LT OR ISZERO PUSH2 0x4C0E JUMPI PUSH2 0x4C0E PUSH2 0x4B5F JUMP JUMPDEST PUSH1 0x40 MSTORE SWAP2 SWAP1 POP JUMP JUMPDEST PUSH1 0x0 DUP3 PUSH1 0x1F DUP4 ADD SLT PUSH2 0x4C27 JUMPI PUSH1 0x0 DUP1 REVERT JUMPDEST DUP2 CALLDATALOAD PUSH8 0xFFFFFFFFFFFFFFFF DUP2 GT ISZERO PUSH2 0x4C41 JUMPI PUSH2 0x4C41 PUSH2 0x4B5F JUMP JUMPDEST PUSH2 0x4C54 PUSH1 0x1F DUP3 ADD PUSH1 0x1F NOT AND PUSH1 0x20 ADD PUSH2 0x4BE5 JUMP JUMPDEST DUP2 DUP2 MSTORE DUP5 PUSH1 0x20 DUP4 DUP7 ADD ADD GT ISZERO PUSH2 0x4C69 JUMPI PUSH1 0x0 DUP1 REVERT JUMPDEST DUP2 PUSH1 0x20 DUP6 ADD PUSH1 0x20 DUP4 ADD CALLDATACOPY PUSH1 0x0 SWAP2 DUP2 ADD PUSH1 0x20 ADD SWAP2 SWAP1 SWAP2 MSTORE SWAP4 SWAP3 POP POP POP JUMP JUMPDEST PUSH1 0x0 PUSH8 0xFFFFFFFFFFFFFFFF DUP3 GT ISZERO PUSH2 0x4CA0 JUMPI PUSH2 0x4CA0 PUSH2 0x4B5F JUMP JUMPDEST POP PUSH1 0x5 SHL PUSH1 0x20 ADD SWAP1 JUMP JUMPDEST PUSH1 0x0 DUP3 PUSH1 0x1F DUP4 ADD SLT PUSH2 0x4CBB JUMPI PUSH1 0x0 DUP1 REVERT JUMPDEST DUP2 CALLDATALOAD PUSH1 0x20 PUSH2 0x4CD0 PUSH2 0x4CCB DUP4 PUSH2 0x4C86 JUMP JUMPDEST PUSH2 0x4BE5 JUMP JUMPDEST DUP3 DUP2 MSTORE PUSH1 0x5 SWAP3 SWAP1 SWAP3 SHL DUP5 ADD DUP2 ADD SWAP2 DUP2 DUP2 ADD SWAP1 DUP7 DUP5 GT ISZERO PUSH2 0x4CEF JUMPI PUSH1 0x0 DUP1 REVERT JUMPDEST DUP3 DUP7 ADD JUMPDEST DUP5 DUP2 LT ISZERO PUSH2 0x4D0A JUMPI DUP1 CALLDATALOAD DUP4 MSTORE SWAP2 DUP4 ADD SWAP2 DUP4 ADD PUSH2 0x4CF3 JUMP JUMPDEST POP SWAP7 SWAP6 POP POP POP POP POP POP JUMP JUMPDEST DUP1 CALLDATALOAD DUP1 ISZERO ISZERO DUP2 EQ PUSH2 0x2FFA JUMPI PUSH1 0x0 DUP1 REVERT JUMPDEST DUP1 CALLDATALOAD PUSH1 0xC DUP2 LT PUSH2 0x2FFA JUMPI PUSH1 0x0 DUP1 REVERT JUMPDEST PUSH1 0x0 DUP3 PUSH1 0x1F DUP4 ADD SLT PUSH2 0x4D45 JUMPI PUSH1 0x0 DUP1 REVERT JUMPDEST DUP2 CALLDATALOAD PUSH1 0x20 PUSH2 0x4D55 PUSH2 0x4CCB DUP4 PUSH2 0x4C86 JUMP JUMPDEST DUP3 DUP2 MSTORE PUSH1 0x5 SWAP3 SWAP1 SWAP3 SHL DUP5 ADD DUP2 ADD SWAP2 DUP2 DUP2 ADD SWAP1 DUP7 DUP5 GT ISZERO PUSH2 0x4D74 JUMPI PUSH1 0x0 DUP1 REVERT JUMPDEST DUP3 DUP7 ADD JUMPDEST DUP5 DUP2 LT ISZERO PUSH2 0x4D0A JUMPI DUP1 CALLDATALOAD PUSH8 0xFFFFFFFFFFFFFFFF DUP1 DUP3 GT ISZERO PUSH2 0x4D98 JUMPI PUSH1 0x0 DUP1 REVERT JUMPDEST SWAP1 DUP9 ADD SWAP1 PUSH1 0x1F NOT PUSH1 0xA0 DUP4 DUP13 SUB DUP3 ADD SLT ISZERO PUSH2 0x4DB1 JUMPI PUSH1 0x0 DUP1 REVERT JUMPDEST PUSH2 0x4DB9 PUSH2 0x4B75 JUMP JUMPDEST DUP8 DUP5 ADD CALLDATALOAD DUP4 DUP2 GT ISZERO PUSH2 0x4DCA JUMPI PUSH1 0x0 DUP1 REVERT JUMPDEST DUP5 ADD PUSH1 0xE0 DUP2 DUP15 SUB DUP5 ADD SLT ISZERO PUSH2 0x4DDE JUMPI PUSH1 0x0 DUP1 REVERT JUMPDEST PUSH2 0x4DE6 PUSH2 0x4B9E JUMP JUMPDEST SWAP3 POP DUP9 DUP2 ADD CALLDATALOAD DUP5 DUP2 GT ISZERO PUSH2 0x4DF9 JUMPI PUSH1 0x0 DUP1 REVERT JUMPDEST PUSH2 0x4E07 DUP15 DUP12 DUP4 DUP6 ADD ADD PUSH2 0x4C16 JUMP JUMPDEST DUP5 MSTORE POP PUSH1 0x40 DUP2 ADD CALLDATALOAD DUP10 DUP5 ADD MSTORE PUSH1 0x60 DUP2 ADD CALLDATALOAD PUSH1 0x40 DUP5 ADD MSTORE PUSH1 0x80 DUP1 DUP3 ADD CALLDATALOAD PUSH1 0x60 DUP6 ADD MSTORE PUSH1 0xA0 DUP3 ADD CALLDATALOAD DUP2 DUP6 ADD MSTORE PUSH1 0xC0 DUP3 ADD CALLDATALOAD PUSH1 0xA0 DUP6 ADD MSTORE PUSH1 0xE0 DUP3 ADD CALLDATALOAD DUP6 DUP2 GT ISZERO PUSH2 0x4E4D JUMPI PUSH1 0x0 DUP1 REVERT JUMPDEST PUSH2 0x4E5B DUP16 DUP13 DUP4 DUP7 ADD ADD PUSH2 0x4C16 JUMP JUMPDEST PUSH1 0xC0 DUP7 ADD MSTORE POP SWAP3 DUP3 MSTORE PUSH1 0x40 DUP6 ADD CALLDATALOAD DUP10 DUP4 ADD MSTORE PUSH1 0x60 DUP6 ADD CALLDATALOAD SWAP3 DUP5 DUP5 GT ISZERO PUSH2 0x4E80 JUMPI PUSH1 0x0 DUP1 REVERT JUMPDEST PUSH2 0x4E8E DUP15 DUP12 DUP7 DUP10 ADD ADD PUSH2 0x4C16 JUMP JUMPDEST PUSH1 0x40 DUP5 ADD MSTORE PUSH2 0x4E9E DUP2 DUP8 ADD PUSH2 0x4D25 JUMP JUMPDEST PUSH1 0x60 DUP5 ADD MSTORE PUSH1 0xA0 SWAP6 SWAP1 SWAP6 ADD CALLDATALOAD SWAP5 DUP3 ADD SWAP5 SWAP1 SWAP5 MSTORE DUP7 MSTORE POP POP POP SWAP2 DUP4 ADD SWAP2 DUP4 ADD PUSH2 0x4D78 JUMP JUMPDEST PUSH1 0x0 PUSH2 0x1A0 DUP3 DUP5 SUB SLT ISZERO PUSH2 0x4ED4 JUMPI PUSH1 0x0 DUP1 REVERT JUMPDEST PUSH2 0x4EDC PUSH2 0x4BC1 JUMP JUMPDEST SWAP1 POP DUP2 CALLDATALOAD DUP2 MSTORE PUSH1 0x20 DUP3 ADD CALLDATALOAD PUSH8 0xFFFFFFFFFFFFFFFF DUP1 DUP3 GT ISZERO PUSH2 0x4EFD JUMPI PUSH1 0x0 DUP1 REVERT JUMPDEST PUSH2 0x4F09 DUP6 DUP4 DUP7 ADD PUSH2 0x4C16 JUMP JUMPDEST PUSH1 0x20 DUP5 ADD MSTORE PUSH1 0x40 DUP5 ADD CALLDATALOAD SWAP2 POP DUP1 DUP3 GT ISZERO PUSH2 0x4F22 JUMPI PUSH1 0x0 DUP1 REVERT JUMPDEST PUSH2 0x4F2E DUP6 DUP4 DUP7 ADD PUSH2 0x4C16 JUMP JUMPDEST PUSH1 0x40 DUP5 ADD MSTORE PUSH1 0x60 DUP5 ADD CALLDATALOAD PUSH1 0x60 DUP5 ADD MSTORE PUSH1 0x80 DUP5 ADD CALLDATALOAD PUSH1 0x80 DUP5 ADD MSTORE PUSH1 0xA0 DUP5 ADD CALLDATALOAD PUSH1 0xA0 DUP5 ADD MSTORE PUSH1 0xC0 DUP5 ADD CALLDATALOAD SWAP2 POP DUP1 DUP3 GT ISZERO PUSH2 0x4F65 JUMPI PUSH1 0x0 DUP1 REVERT JUMPDEST PUSH2 0x4F71 DUP6 DUP4 DUP7 ADD PUSH2 0x4CAA JUMP JUMPDEST PUSH1 0xC0 DUP5 ADD MSTORE PUSH1 0xE0 DUP5 DUP2 ADD CALLDATALOAD SWAP1 DUP5 ADD MSTORE PUSH2 0x100 DUP1 DUP6 ADD CALLDATALOAD SWAP1 DUP5 ADD MSTORE PUSH2 0x120 SWAP2 POP PUSH2 0x4F9B DUP3 DUP6 ADD PUSH2 0x4D15 JUMP JUMPDEST DUP3 DUP5 ADD MSTORE PUSH2 0x140 SWAP2 POP PUSH2 0x4FAF DUP3 DUP6 ADD PUSH2 0x4D15 JUMP JUMPDEST DUP3 DUP5 ADD MSTORE PUSH2 0x160 SWAP2 POP DUP2 DUP5 ADD CALLDATALOAD DUP3 DUP5 ADD MSTORE PUSH2 0x180 SWAP2 POP DUP2 DUP5 ADD CALLDATALOAD DUP2 DUP2 GT ISZERO PUSH2 0x4FD6 JUMPI PUSH1 0x0 DUP1 REVERT JUMPDEST PUSH2 0x4FE2 DUP7 DUP3 DUP8 ADD PUSH2 0x4D34 JUMP JUMPDEST DUP4 DUP6 ADD MSTORE POP POP POP SWAP3 SWAP2 POP POP JUMP JUMPDEST PUSH1 0x0 DUP1 PUSH1 0x40 DUP4 DUP6 SUB SLT ISZERO PUSH2 0x5002 JUMPI PUSH1 0x0 DUP1 REVERT JUMPDEST DUP3 CALLDATALOAD SWAP2 POP PUSH1 0x20 DUP4 ADD CALLDATALOAD PUSH8 0xFFFFFFFFFFFFFFFF DUP2 GT ISZERO PUSH2 0x5020 JUMPI PUSH1 0x0 DUP1 REVERT JUMPDEST PUSH2 0x502C DUP6 DUP3 DUP7 ADD PUSH2 0x4EC1 JUMP JUMPDEST SWAP2 POP POP SWAP3 POP SWAP3 SWAP1 POP JUMP JUMPDEST PUSH1 0x0 PUSH1 0x20 DUP3 DUP5 SUB SLT ISZERO PUSH2 0x5048 JUMPI PUSH1 0x0 DUP1 REVERT JUMPDEST POP CALLDATALOAD SWAP2 SWAP1 POP JUMP JUMPDEST DUP1 CALLDATALOAD PUSH1 0x1 PUSH1 0x1 PUSH1 0xA0 SHL SUB DUP2 AND DUP2 EQ PUSH2 0x2FFA JUMPI PUSH1 0x0 DUP1 REVERT JUMPDEST PUSH1 0x0 DUP1 PUSH1 0x40 DUP4 DUP6 SUB SLT ISZERO PUSH2 0x5079 JUMPI PUSH1 0x0 DUP1 REVERT JUMPDEST DUP3 CALLDATALOAD SWAP2 POP PUSH2 0x5089 PUSH1 0x20 DUP5 ADD PUSH2 0x504F JUMP JUMPDEST SWAP1 POP SWAP3 POP SWAP3 SWAP1 POP JUMP JUMPDEST PUSH1 0x0 DUP1 PUSH1 0x0 DUP1 PUSH1 0x0 PUSH1 0xA0 DUP7 DUP9 SUB SLT ISZERO PUSH2 0x50AA JUMPI PUSH1 0x0 DUP1 REVERT JUMPDEST DUP6 CALLDATALOAD SWAP5 POP PUSH2 0x50BA PUSH1 0x20 DUP8 ADD PUSH2 0x504F JUMP JUMPDEST SWAP4 POP PUSH1 0x40 DUP7 ADD CALLDATALOAD SWAP3 POP PUSH2 0x50CF PUSH1 0x60 DUP8 ADD PUSH2 0x4D15 JUMP JUMPDEST SWAP2 POP PUSH1 0x80 DUP7 ADD CALLDATALOAD PUSH8 0xFFFFFFFFFFFFFFFF DUP2 GT ISZERO PUSH2 0x50EB JUMPI PUSH1 0x0 DUP1 REVERT JUMPDEST PUSH2 0x50F7 DUP9 DUP3 DUP10 ADD PUSH2 0x4C16 JUMP JUMPDEST SWAP2 POP POP SWAP3 SWAP6 POP SWAP3 SWAP6 SWAP1 SWAP4 POP JUMP JUMPDEST PUSH1 0x0 DUP1 PUSH1 0x40 DUP4 DUP6 SUB SLT ISZERO PUSH2 0x5117 JUMPI PUSH1 0x0 DUP1 REVERT JUMPDEST DUP3 CALLDATALOAD SWAP2 POP PUSH1 0x20 DUP4 ADD CALLDATALOAD PUSH8 0xFFFFFFFFFFFFFFFF DUP2 GT ISZERO PUSH2 0x5135 JUMPI PUSH1 0x0 DUP1 REVERT JUMPDEST PUSH2 0x502C DUP6 DUP3 DUP7 ADD PUSH2 0x4CAA JUMP JUMPDEST PUSH1 0x0 PUSH1 0x20 DUP3 DUP5 SUB SLT ISZERO PUSH2 0x5153 JUMPI PUSH1 0x0 DUP1 REVERT JUMPDEST PUSH2 0x1DC4 DUP3 PUSH2 0x504F JUMP JUMPDEST PUSH1 0x0 DUP2 MLOAD DUP1 DUP5 MSTORE PUSH1 0x20 DUP1 DUP6 ADD SWAP5 POP DUP1 DUP5 ADD PUSH1 0x0 JUMPDEST DUP4 DUP2 LT ISZERO PUSH2 0x518C JUMPI DUP2 MLOAD DUP8 MSTORE SWAP6 DUP3 ADD SWAP6 SWAP1 DUP3 ADD SWAP1 PUSH1 0x1 ADD PUSH2 0x5170 JUMP JUMPDEST POP SWAP5 SWAP6 SWAP5 POP POP POP POP POP JUMP JUMPDEST PUSH4 0x4E487B71 PUSH1 0xE0 SHL PUSH1 0x0 MSTORE PUSH1 0x21 PUSH1 0x4 MSTORE PUSH1 0x24 PUSH1 0x0 REVERT JUMPDEST PUSH1 0x5 DUP2 LT PUSH2 0x51BD JUMPI PUSH2 0x51BD PUSH2 0x5197 JUMP JUMPDEST SWAP1 MSTORE JUMP JUMPDEST PUSH1 0x0 DUP2 MLOAD DUP1 DUP5 MSTORE PUSH1 0x0 JUMPDEST DUP2 DUP2 LT ISZERO PUSH2 0x51E7 JUMPI PUSH1 0x20 DUP2 DUP6 ADD DUP2 ADD MLOAD DUP7 DUP4 ADD DUP3 ADD MSTORE ADD PUSH2 0x51CB JUMP JUMPDEST POP PUSH1 0x0 PUSH1 0x20 DUP3 DUP7 ADD ADD MSTORE PUSH1 0x20 PUSH1 0x1F NOT PUSH1 0x1F DUP4 ADD AND DUP6 ADD ADD SWAP2 POP POP SWAP3 SWAP2 POP POP JUMP JUMPDEST PUSH2 0x5212 DUP3 DUP3 MLOAD PUSH2 0x51AD JUMP JUMPDEST PUSH1 0x0 PUSH1 0x20 DUP3 ADD MLOAD PUSH1 0x40 PUSH1 0x20 DUP6 ADD MSTORE PUSH2 0xB45 PUSH1 0x40 DUP6 ADD DUP3 PUSH2 0x51C1 JUMP JUMPDEST PUSH1 0x1 PUSH1 0x1 PUSH1 0xA0 SHL SUB DUP2 MLOAD AND DUP3 MSTORE PUSH1 0x0 PUSH1 0x20 DUP1 DUP4 ADD MLOAD PUSH1 0x60 DUP3 DUP7 ADD MSTORE PUSH2 0x5255 PUSH1 0x60 DUP7 ADD DUP3 PUSH2 0x515C JUMP JUMPDEST SWAP1 POP PUSH1 0x40 DUP5 ADD MLOAD DUP6 DUP3 SUB PUSH1 0x40 DUP8 ADD MSTORE DUP2 DUP2 MLOAD DUP1 DUP5 MSTORE DUP5 DUP5 ADD SWAP2 POP DUP5 DUP2 PUSH1 0x5 SHL DUP6 ADD ADD DUP6 DUP5 ADD SWAP4 POP PUSH1 0x0 JUMPDEST DUP3 DUP2 LT ISZERO PUSH2 0x52AD JUMPI PUSH1 0x1F NOT DUP7 DUP4 SUB ADD DUP5 MSTORE PUSH2 0x529B DUP3 DUP7 MLOAD PUSH2 0x5207 JUMP JUMPDEST SWAP5 DUP8 ADD SWAP5 SWAP4 DUP8 ADD SWAP4 SWAP2 POP PUSH1 0x1 ADD PUSH2 0x527F JUMP JUMPDEST POP SWAP9 SWAP8 POP POP POP POP POP POP POP POP JUMP JUMPDEST PUSH1 0x20 DUP2 MSTORE PUSH1 0x0 PUSH2 0x1DC4 PUSH1 0x20 DUP4 ADD DUP5 PUSH2 0x522D JUMP JUMPDEST PUSH1 0x0 DUP1 PUSH1 0x0 DUP1 PUSH1 0x0 PUSH1 0xA0 DUP7 DUP9 SUB SLT ISZERO PUSH2 0x52E5 JUMPI PUSH1 0x0 DUP1 REVERT JUMPDEST DUP6 CALLDATALOAD SWAP5 POP PUSH2 0x52F5 PUSH1 0x20 DUP8 ADD PUSH2 0x504F JUMP JUMPDEST SWAP4 POP PUSH1 0x40 DUP7 ADD CALLDATALOAD SWAP3 POP PUSH2 0x530A PUSH1 0x60 DUP8 ADD PUSH2 0x4D15 JUMP JUMPDEST SWAP2 POP PUSH2 0x5318 PUSH1 0x80 DUP8 ADD PUSH2 0x504F JUMP JUMPDEST SWAP1 POP SWAP3 SWAP6 POP SWAP3 SWAP6 SWAP1 SWAP4 POP JUMP JUMPDEST PUSH1 0x0 DUP1 PUSH1 0x40 DUP4 DUP6 SUB SLT ISZERO PUSH2 0x5337 JUMPI PUSH1 0x0 DUP1 REVERT JUMPDEST POP POP DUP1 CALLDATALOAD SWAP3 PUSH1 0x20 SWAP1 SWAP2 ADD CALLDATALOAD SWAP2 POP JUMP JUMPDEST PUSH1 0x0 DUP1 PUSH1 0x40 DUP4 DUP6 SUB SLT ISZERO PUSH2 0x5359 JUMPI PUSH1 0x0 DUP1 REVERT JUMPDEST DUP3 CALLDATALOAD SWAP2 POP PUSH2 0x5089 PUSH1 0x20 DUP5 ADD PUSH2 0x4D15 JUMP JUMPDEST PUSH1 0x0 DUP1 PUSH1 0x0 PUSH1 0x60 DUP5 DUP7 SUB SLT ISZERO PUSH2 0x537E JUMPI PUSH1 0x0 DUP1 REVERT JUMPDEST DUP4 CALLDATALOAD SWAP3 POP PUSH2 0x538E PUSH1 0x20 DUP6 ADD PUSH2 0x504F JUMP JUMPDEST SWAP2 POP PUSH2 0x539C PUSH1 0x40 DUP6 ADD PUSH2 0x4D15 JUMP JUMPDEST SWAP1 POP SWAP3 POP SWAP3 POP SWAP3 JUMP JUMPDEST PUSH1 0x40 DUP2 MSTORE PUSH1 0x0 PUSH2 0x53B8 PUSH1 0x40 DUP4 ADD DUP6 PUSH2 0x515C JUMP JUMPDEST SWAP1 POP DUP3 PUSH1 0x20 DUP4 ADD MSTORE SWAP4 SWAP3 POP POP POP JUMP JUMPDEST PUSH1 0x0 DUP2 MLOAD DUP1 DUP5 MSTORE PUSH1 0x20 DUP1 DUP6 ADD SWAP5 POP DUP1 DUP5 ADD PUSH1 0x0 JUMPDEST DUP4 DUP2 LT ISZERO PUSH2 0x518C JUMPI DUP2 MLOAD PUSH1 0x1 PUSH1 0x1 PUSH1 0xA0 SHL SUB AND DUP8 MSTORE SWAP6 DUP3 ADD SWAP6 SWAP1 DUP3 ADD SWAP1 PUSH1 0x1 ADD PUSH2 0x53DB JUMP JUMPDEST PUSH1 0x20 DUP2 MSTORE PUSH1 0x0 PUSH2 0x1DC4 PUSH1 0x20 DUP4 ADD DUP5 PUSH2 0x53C7 JUMP JUMPDEST PUSH1 0x0 PUSH1 0x20 DUP3 DUP5 SUB SLT ISZERO PUSH2 0x5425 JUMPI PUSH1 0x0 DUP1 REVERT JUMPDEST DUP2 CALLDATALOAD PUSH8 0xFFFFFFFFFFFFFFFF DUP2 GT ISZERO PUSH2 0x543C JUMPI PUSH1 0x0 DUP1 REVERT JUMPDEST PUSH2 0xB45 DUP5 DUP3 DUP6 ADD PUSH2 0x4EC1 JUMP JUMPDEST PUSH1 0xC DUP2 LT PUSH2 0x51BD JUMPI PUSH2 0x51BD PUSH2 0x5197 JUMP JUMPDEST PUSH1 0x20 DUP2 ADD PUSH2 0xA31 DUP3 DUP5 PUSH2 0x5448 JUMP JUMPDEST PUSH1 0x0 DUP1 PUSH1 0x0 PUSH1 0x60 DUP5 DUP7 SUB SLT ISZERO PUSH2 0x547B JUMPI PUSH1 0x0 DUP1 REVERT JUMPDEST DUP4 CALLDATALOAD SWAP3 POP PUSH1 0x20 DUP5 ADD CALLDATALOAD SWAP2 POP PUSH1 0x40 DUP5 ADD CALLDATALOAD PUSH8 0xFFFFFFFFFFFFFFFF DUP2 GT ISZERO PUSH2 0x54A0 JUMPI PUSH1 0x0 DUP1 REVERT JUMPDEST PUSH2 0x54AC DUP7 DUP3 DUP8 ADD PUSH2 0x4C16 JUMP JUMPDEST SWAP2 POP POP SWAP3 POP SWAP3 POP SWAP3 JUMP JUMPDEST PUSH1 0x0 DUP2 MLOAD DUP1 DUP5 MSTORE PUSH1 0x20 DUP1 DUP6 ADD DUP1 DUP2 SWAP7 POP DUP4 PUSH1 0x5 SHL DUP2 ADD SWAP2 POP DUP3 DUP7 ADD PUSH1 0x0 JUMPDEST DUP6 DUP2 LT ISZERO PUSH2 0x55B2 JUMPI DUP3 DUP5 SUB DUP10 MSTORE DUP2 MLOAD PUSH1 0xA0 DUP2 MLOAD DUP2 DUP8 MSTORE DUP1 MLOAD PUSH1 0xE0 DUP1 DUP5 DUP11 ADD MSTORE PUSH2 0x5501 PUSH2 0x180 DUP11 ADD DUP4 PUSH2 0x51C1 JUMP JUMPDEST SWAP2 POP DUP10 DUP4 ADD MLOAD PUSH1 0xC0 DUP2 DUP2 DUP13 ADD MSTORE PUSH1 0x40 SWAP2 POP DUP2 DUP6 ADD MLOAD DUP4 DUP13 ADD MSTORE PUSH1 0x60 SWAP3 POP DUP3 DUP6 ADD MLOAD PUSH2 0x100 DUP13 ADD MSTORE PUSH1 0x80 DUP1 DUP7 ADD MLOAD PUSH2 0x120 DUP14 ADD MSTORE DUP7 DUP7 ADD MLOAD PUSH2 0x140 DUP14 ADD MSTORE DUP2 DUP7 ADD MLOAD SWAP7 POP PUSH1 0x9F NOT DUP13 DUP7 SUB ADD PUSH2 0x160 DUP14 ADD MSTORE PUSH2 0x555B DUP6 DUP9 PUSH2 0x51C1 JUMP JUMPDEST SWAP7 POP DUP13 DUP9 ADD MLOAD DUP14 DUP14 ADD MSTORE DUP3 DUP9 ADD MLOAD SWAP6 POP DUP12 DUP8 SUB DUP4 DUP14 ADD MSTORE PUSH2 0x557C DUP8 DUP8 PUSH2 0x51C1 JUMP JUMPDEST SWAP7 POP DUP4 DUP9 ADD MLOAD SWAP6 POP PUSH2 0x5590 DUP5 DUP14 ADD DUP8 PUSH2 0x5448 JUMP JUMPDEST SWAP7 DUP8 ADD MLOAD SWAP11 SWAP1 SWAP7 ADD SWAP10 SWAP1 SWAP10 MSTORE POP POP POP SWAP10 DUP7 ADD SWAP10 SWAP5 POP POP SWAP1 DUP5 ADD SWAP1 PUSH1 0x1 ADD PUSH2 0x54D4 JUMP JUMPDEST POP SWAP2 SWAP8 SWAP7 POP POP POP POP POP POP POP JUMP JUMPDEST PUSH1 0x20 DUP2 MSTORE PUSH1 0x0 PUSH2 0x1DC4 PUSH1 0x20 DUP4 ADD DUP5 PUSH2 0x54B6 JUMP JUMPDEST PUSH1 0x0 DUP2 MLOAD DUP1 DUP5 MSTORE PUSH1 0x20 DUP1 DUP6 ADD DUP1 DUP2 SWAP7 POP DUP4 PUSH1 0x5 SHL DUP2 ADD SWAP2 POP DUP3 DUP7 ADD PUSH1 0x0 JUMPDEST DUP6 DUP2 LT ISZERO PUSH2 0x55B2 JUMPI DUP3 DUP5 SUB DUP10 MSTORE PUSH2 0x5608 DUP5 DUP4 MLOAD PUSH2 0x522D JUMP JUMPDEST SWAP9 DUP6 ADD SWAP9 SWAP4 POP SWAP1 DUP5 ADD SWAP1 PUSH1 0x1 ADD PUSH2 0x55F0 JUMP JUMPDEST PUSH1 0x8 DUP2 LT PUSH2 0x51BD JUMPI PUSH2 0x51BD PUSH2 0x5197 JUMP JUMPDEST PUSH1 0x20 DUP2 MSTORE PUSH2 0x5644 PUSH1 0x20 DUP3 ADD DUP4 MLOAD PUSH1 0x1 PUSH1 0x1 PUSH1 0xA0 SHL SUB AND SWAP1 MSTORE JUMP JUMPDEST PUSH1 0x20 DUP3 ADD MLOAD PUSH1 0x40 DUP3 ADD MSTORE PUSH1 0x0 PUSH1 0x40 DUP4 ADD MLOAD PUSH2 0x320 DUP1 PUSH1 0x60 DUP6 ADD MSTORE PUSH2 0x566C PUSH2 0x340 DUP6 ADD DUP4 PUSH2 0x51C1 JUMP JUMPDEST SWAP2 POP PUSH1 0x60 DUP6 ADD MLOAD PUSH1 0x1F NOT DUP1 DUP7 DUP6 SUB ADD PUSH1 0x80 DUP8 ADD MSTORE PUSH2 0x568A DUP5 DUP4 PUSH2 0x51C1 JUMP JUMPDEST SWAP4 POP PUSH1 0x80 DUP8 ADD MLOAD PUSH1 0xA0 DUP8 ADD MSTORE PUSH1 0xA0 DUP8 ADD MLOAD PUSH1 0xC0 DUP8 ADD MSTORE PUSH1 0xC0 DUP8 ADD MLOAD PUSH1 0xE0 DUP8 ADD MSTORE PUSH1 0xE0 DUP8 ADD MLOAD SWAP2 POP PUSH2 0x100 DUP2 DUP8 DUP7 SUB ADD DUP2 DUP9 ADD MSTORE PUSH2 0x56C7 DUP6 DUP5 PUSH2 0x515C JUMP JUMPDEST SWAP1 DUP9 ADD MLOAD PUSH2 0x120 DUP9 DUP2 ADD SWAP2 SWAP1 SWAP2 MSTORE DUP9 ADD MLOAD PUSH2 0x140 DUP1 DUP10 ADD SWAP2 SWAP1 SWAP2 MSTORE DUP9 ADD MLOAD SWAP1 SWAP5 POP SWAP2 POP PUSH2 0x160 PUSH2 0x56FA DUP2 DUP9 ADD DUP5 ISZERO ISZERO SWAP1 MSTORE JUMP JUMPDEST DUP8 ADD MLOAD SWAP2 POP PUSH2 0x180 PUSH2 0x570F DUP8 DUP3 ADD DUP5 ISZERO ISZERO SWAP1 MSTORE JUMP JUMPDEST DUP1 DUP9 ADD MLOAD SWAP3 POP POP PUSH2 0x1A0 DUP3 DUP2 DUP9 ADD MSTORE DUP1 DUP9 ADD MLOAD SWAP3 POP POP PUSH2 0x1C0 DUP2 DUP8 DUP7 SUB ADD DUP2 DUP9 ADD MSTORE PUSH2 0x573B DUP6 DUP5 PUSH2 0x54B6 JUMP JUMPDEST SWAP5 POP DUP1 DUP9 ADD MLOAD SWAP3 POP POP PUSH2 0x1E0 DUP2 DUP8 DUP7 SUB ADD DUP2 DUP9 ADD MSTORE PUSH2 0x575A DUP6 DUP5 PUSH2 0x53C7 JUMP JUMPDEST SWAP5 POP DUP1 DUP9 ADD MLOAD SWAP3 POP POP PUSH2 0x200 DUP2 DUP8 DUP7 SUB ADD DUP2 DUP9 ADD MSTORE PUSH2 0x5779 DUP6 DUP5 PUSH2 0x53C7 JUMP JUMPDEST SWAP5 POP DUP1 DUP9 ADD MLOAD SWAP3 POP POP PUSH2 0x220 DUP2 DUP8 DUP7 SUB ADD DUP2 DUP9 ADD MSTORE PUSH2 0x5798 DUP6 DUP5 PUSH2 0x55D2 JUMP JUMPDEST SWAP5 POP DUP1 DUP9 ADD MLOAD SWAP3 POP POP PUSH2 0x240 DUP2 DUP8 DUP7 SUB ADD DUP2 DUP9 ADD MSTORE PUSH2 0x57B7 DUP6 DUP5 PUSH2 0x55D2 JUMP JUMPDEST SWAP1 DUP9 ADD MLOAD PUSH2 0x260 DUP9 DUP2 ADD SWAP2 SWAP1 SWAP2 MSTORE DUP9 ADD MLOAD PUSH2 0x280 DUP1 DUP10 ADD SWAP2 SWAP1 SWAP2 MSTORE DUP9 ADD MLOAD PUSH2 0x2A0 DUP1 DUP10 ADD SWAP2 SWAP1 SWAP2 MSTORE DUP9 ADD MLOAD PUSH2 0x2C0 DUP1 DUP10 ADD SWAP2 SWAP1 SWAP2 MSTORE DUP9 ADD MLOAD SWAP1 SWAP5 POP SWAP2 POP PUSH2 0x2E0 SWAP1 POP PUSH2 0x5806 DUP2 DUP8 ADD DUP4 ISZERO ISZERO SWAP1 MSTORE JUMP JUMPDEST DUP7 ADD MLOAD SWAP1 POP PUSH2 0x300 PUSH2 0x581B DUP7 DUP3 ADD DUP4 ISZERO ISZERO SWAP1 MSTORE JUMP JUMPDEST DUP7 ADD MLOAD SWAP1 POP PUSH2 0xF78 DUP6 DUP4 ADD DUP3 PUSH2 0x561A JUMP JUMPDEST PUSH1 0x0 DUP1 PUSH1 0x0 PUSH1 0x60 DUP5 DUP7 SUB SLT ISZERO PUSH2 0x5841 JUMPI PUSH1 0x0 DUP1 REVERT JUMPDEST DUP4 CALLDATALOAD SWAP3 POP PUSH2 0x5851 PUSH1 0x20 DUP6 ADD PUSH2 0x504F JUMP JUMPDEST SWAP2 POP PUSH1 0x40 DUP5 ADD CALLDATALOAD SWAP1 POP SWAP3 POP SWAP3 POP SWAP3 JUMP JUMPDEST PUSH1 0x20 DUP2 MSTORE PUSH1 0x0 PUSH2 0x1DC4 PUSH1 0x20 DUP4 ADD DUP5 PUSH2 0x5207 JUMP JUMPDEST PUSH1 0x20 DUP2 ADD PUSH2 0xA31 DUP3 DUP5 PUSH2 0x561A JUMP JUMPDEST PUSH1 0x20 DUP1 DUP3 MSTORE PUSH1 0x12 SWAP1 DUP3 ADD MSTORE PUSH18 0x57726F6E6720696E6465782076616C756521 PUSH1 0x70 SHL PUSH1 0x40 DUP3 ADD MSTORE PUSH1 0x60 ADD SWAP1 JUMP JUMPDEST PUSH4 0x4E487B71 PUSH1 0xE0 SHL PUSH1 0x0 MSTORE PUSH1 0x11 PUSH1 0x4 MSTORE PUSH1 0x24 PUSH1 0x0 REVERT JUMPDEST DUP1 DUP3 MUL DUP2 ISZERO DUP3 DUP3 DIV DUP5 EQ OR PUSH2 0xA31 JUMPI PUSH2 0xA31 PUSH2 0x58AE JUMP JUMPDEST PUSH1 0x20 DUP1 DUP3 MSTORE PUSH1 0x26 SWAP1 DUP3 ADD MSTORE PUSH32 0x4F7065726174696F6E457863657074696F6E3A2043616E277420726563656976 PUSH1 0x40 DUP3 ADD MSTORE PUSH6 0x65207461736B PUSH1 0xD0 SHL PUSH1 0x60 DUP3 ADD MSTORE PUSH1 0x80 ADD SWAP1 JUMP JUMPDEST DUP5 DUP2 MSTORE PUSH1 0x80 PUSH1 0x20 DUP3 ADD MSTORE PUSH1 0x0 PUSH2 0x593A PUSH1 0x80 DUP4 ADD DUP7 PUSH2 0x515C JUMP JUMPDEST PUSH1 0x1 PUSH1 0x1 PUSH1 0xA0 SHL SUB SWAP5 SWAP1 SWAP5 AND PUSH1 0x40 DUP4 ADD MSTORE POP SWAP1 ISZERO ISZERO PUSH1 0x60 SWAP1 SWAP2 ADD MSTORE SWAP3 SWAP2 POP POP JUMP JUMPDEST PUSH4 0x4E487B71 PUSH1 0xE0 SHL PUSH1 0x0 MSTORE PUSH1 0x32 PUSH1 0x4 MSTORE PUSH1 0x24 PUSH1 0x0 REVERT JUMPDEST PUSH1 0x0 PUSH1 0x1 DUP3 ADD PUSH2 0x5983 JUMPI PUSH2 0x5983 PUSH2 0x58AE JUMP JUMPDEST POP PUSH1 0x1 ADD SWAP1 JUMP JUMPDEST PUSH1 0x1 DUP2 DUP2 SHR SWAP1 DUP3 AND DUP1 PUSH2 0x599E JUMPI PUSH1 0x7F DUP3 AND SWAP2 POP JUMPDEST PUSH1 0x20 DUP3 LT DUP2 SUB PUSH2 0x1AD3 JUMPI PUSH4 0x4E487B71 PUSH1 0xE0 SHL PUSH1 0x0 MSTORE PUSH1 0x22 PUSH1 0x4 MSTORE PUSH1 0x24 PUSH1 0x0 REVERT JUMPDEST DUP1 DUP3 ADD DUP1 DUP3 GT ISZERO PUSH2 0xA31 JUMPI PUSH2 0xA31 PUSH2 0x58AE JUMP JUMPDEST PUSH1 0x1 PUSH1 0x1 PUSH1 0xA0 SHL SUB DUP5 AND DUP2 MSTORE DUP3 PUSH1 0x20 DUP3 ADD MSTORE PUSH1 0x60 PUSH1 0x40 DUP3 ADD MSTORE DUP2 MLOAD PUSH1 0x60 DUP3 ADD MSTORE PUSH1 0x0 PUSH1 0x20 DUP4 ADD MLOAD PUSH2 0x1A0 DUP1 PUSH1 0x80 DUP6 ADD MSTORE PUSH2 0x5A0F PUSH2 0x200 DUP6 ADD DUP4 PUSH2 0x51C1 JUMP JUMPDEST SWAP2 POP PUSH1 0x40 DUP6 ADD MLOAD PUSH1 0x5F NOT DUP1 DUP7 DUP6 SUB ADD PUSH1 0xA0 DUP8 ADD MSTORE PUSH2 0x5A2D DUP5 DUP4 PUSH2 0x51C1 JUMP JUMPDEST SWAP4 POP PUSH1 0x60 DUP8 ADD MLOAD PUSH1 0xC0 DUP8 ADD MSTORE PUSH1 0x80 DUP8 ADD MLOAD PUSH1 0xE0 DUP8 ADD MSTORE PUSH1 0xA0 DUP8 ADD MLOAD SWAP2 POP PUSH2 0x100 DUP3 DUP2 DUP9 ADD MSTORE PUSH1 0xC0 DUP9 ADD MLOAD SWAP3 POP PUSH2 0x120 DUP3 DUP9 DUP8 SUB ADD DUP2 DUP10 ADD MSTORE PUSH2 0x5A6F DUP7 DUP6 PUSH2 0x515C JUMP JUMPDEST PUSH1 0xE0 DUP11 ADD MLOAD PUSH2 0x140 DUP11 DUP2 ADD SWAP2 SWAP1 SWAP2 MSTORE SWAP3 DUP11 ADD MLOAD PUSH2 0x160 DUP1 DUP12 ADD SWAP2 SWAP1 SWAP2 MSTORE SWAP2 DUP11 ADD MLOAD SWAP1 SWAP7 POP SWAP4 POP SWAP1 PUSH2 0x180 SWAP1 PUSH2 0x5AA7 DUP3 DUP11 ADD DUP7 ISZERO ISZERO SWAP1 MSTORE JUMP JUMPDEST DUP10 ADD MLOAD ISZERO ISZERO SWAP5 DUP9 ADD SWAP5 SWAP1 SWAP5 MSTORE DUP8 ADD MLOAD PUSH2 0x1C0 DUP8 ADD MSTORE SWAP2 DUP7 ADD MLOAD DUP6 DUP5 SUB SWAP1 SWAP3 ADD PUSH2 0x1E0 DUP7 ADD MSTORE POP PUSH2 0x5AD7 DUP3 DUP3 PUSH2 0x54B6 JUMP JUMPDEST SWAP8 SWAP7 POP POP POP POP POP POP POP JUMP JUMPDEST PUSH1 0x0 DUP3 PUSH2 0x5AFF JUMPI PUSH4 0x4E487B71 PUSH1 0xE0 SHL PUSH1 0x0 MSTORE PUSH1 0x12 PUSH1 0x4 MSTORE PUSH1 0x24 PUSH1 0x0 REVERT JUMPDEST POP DIV SWAP1 JUMP JUMPDEST DUP4 DUP2 MSTORE PUSH1 0x60 DUP2 ADD PUSH2 0x5B18 PUSH1 0x20 DUP4 ADD DUP6 PUSH2 0x561A JUMP JUMPDEST PUSH1 0x1 PUSH1 0x1 PUSH1 0xA0 SHL SUB DUP4 AND PUSH1 0x40 DUP4 ADD MSTORE SWAP5 SWAP4 POP POP POP POP JUMP JUMPDEST PUSH1 0x0 PUSH1 0x20 DUP3 DUP5 SUB SLT ISZERO PUSH2 0x5B41 JUMPI PUSH1 0x0 DUP1 REVERT JUMPDEST POP MLOAD SWAP2 SWAP1 POP JUMP JUMPDEST DUP5 DUP2 MSTORE PUSH1 0x20 DUP2 ADD DUP5 SWAP1 MSTORE PUSH1 0x80 DUP2 ADD PUSH2 0x5B63 PUSH1 0x40 DUP4 ADD DUP6 PUSH2 0x5448 JUMP JUMPDEST PUSH1 0x1 PUSH1 0x1 PUSH1 0xA0 SHL SUB DUP4 AND PUSH1 0x60 DUP4 ADD MSTORE SWAP6 SWAP5 POP POP POP POP POP JUMP JUMPDEST PUSH1 0x40 DUP1 DUP3 MSTORE PUSH1 0x10 SWAP1 DUP3 ADD MSTORE PUSH16 0x4572726F722066696C65207374617465 PUSH1 0x80 SHL PUSH1 0x60 DUP3 ADD MSTORE PUSH1 0x80 DUP2 ADD PUSH2 0xA31 PUSH1 0x20 DUP4 ADD DUP5 PUSH2 0x5448 JUMP JUMPDEST DUP2 DUP2 SUB DUP2 DUP2 GT ISZERO PUSH2 0xA31 JUMPI PUSH2 0xA31 PUSH2 0x58AE JUMP JUMPDEST PUSH1 0x1F DUP3 GT ISZERO PUSH2 0x11B8 JUMPI PUSH1 0x0 DUP2 DUP2 MSTORE PUSH1 0x20 DUP2 KECCAK256 PUSH1 0x1F DUP6 ADD PUSH1 0x5 SHR DUP2 ADD PUSH1 0x20 DUP7 LT ISZERO PUSH2 0x5BEA JUMPI POP DUP1 JUMPDEST PUSH1 0x1F DUP6 ADD PUSH1 0x5 SHR DUP3 ADD SWAP2 POP JUMPDEST DUP2 DUP2 LT ISZERO PUSH2 0x9F6 JUMPI DUP3 DUP2 SSTORE PUSH1 0x1 ADD PUSH2 0x5BF6 JUMP JUMPDEST DUP2 MLOAD PUSH8 0xFFFFFFFFFFFFFFFF DUP2 GT ISZERO PUSH2 0x5C23 JUMPI PUSH2 0x5C23 PUSH2 0x4B5F JUMP JUMPDEST PUSH2 0x5C37 DUP2 PUSH2 0x5C31 DUP5 SLOAD PUSH2 0x598A JUMP JUMPDEST DUP5 PUSH2 0x5BC3 JUMP JUMPDEST PUSH1 0x20 DUP1 PUSH1 0x1F DUP4 GT PUSH1 0x1 DUP2 EQ PUSH2 0x5C6C JUMPI PUSH1 0x0 DUP5 ISZERO PUSH2 0x5C54 JUMPI POP DUP6 DUP4 ADD MLOAD JUMPDEST PUSH1 0x0 NOT PUSH1 0x3 DUP7 SWAP1 SHL SHR NOT AND PUSH1 0x1 DUP6 SWAP1 SHL OR DUP6 SSTORE PUSH2 0x9F6 JUMP JUMPDEST PUSH1 0x0 DUP6 DUP2 MSTORE PUSH1 0x20 DUP2 KECCAK256 PUSH1 0x1F NOT DUP7 AND SWAP2 JUMPDEST DUP3 DUP2 LT ISZERO PUSH2 0x5C9B JUMPI DUP9 DUP7 ADD MLOAD DUP3 SSTORE SWAP5 DUP5 ADD SWAP5 PUSH1 0x1 SWAP1 SWAP2 ADD SWAP1 DUP5 ADD PUSH2 0x5C7C JUMP JUMPDEST POP DUP6 DUP3 LT ISZERO PUSH2 0x5CB9 JUMPI DUP8 DUP6 ADD MLOAD PUSH1 0x0 NOT PUSH1 0x3 DUP9 SWAP1 SHL PUSH1 0xF8 AND SHR NOT AND DUP2 SSTORE JUMPDEST POP POP POP POP POP PUSH1 0x1 SWAP1 DUP2 SHL ADD SWAP1 SSTORE POP JUMP JUMPDEST DUP7 DUP2 MSTORE PUSH1 0x1 PUSH1 0x1 PUSH1 0xA0 SHL SUB DUP7 DUP2 AND PUSH1 0x20 DUP4 ADD MSTORE PUSH1 0x40 DUP3 ADD DUP7 SWAP1 MSTORE PUSH1 0xC0 DUP3 ADD SWAP1 PUSH2 0x5CF5 PUSH1 0x60 DUP5 ADD DUP8 PUSH2 0x51AD JUMP JUMPDEST DUP5 ISZERO ISZERO PUSH1 0x80 DUP5 ADD MSTORE DUP1 DUP5 AND PUSH1 0xA0 DUP5 ADD MSTORE POP SWAP8 SWAP7 POP POP POP POP POP POP POP JUMP INVALID XOR DUP16 SELFDESTRUCT PUSH19 0x34F3BB35C4F436313EC14267725515E4CA3678 NUMBER 0xCD COINBASE PUSH7 0x21A72FB8A3DEA2 EXP PUSH14 0x822B68D598B7AB4FD45418A7CA7B LT EXTCODEHASH SLT 0xD3 STOP 0xBC 0xC3 0xB5 PUSH11 0x7B94D9ED33B37BD6F3CCFC 0xE1 ADDRESS DUP6 SWAP14 GASLIMIT PUSH10 0xDC432409F423A7928E73 0xEB 0x5C POP 0x49 0xA9 0x4E BLOCKHASH CREATE 0xC6 BASEFEE 0x4B SWAP1 PUSH6 0x71B20F3DCDF8 0x26 0xB5 EXTCODEHASH EXTCODECOPY PUSH7 0x528E252B2EB87D 0xE3 0xCB DUP2 0x2F XOR 0xE6 DUP6 SWAP15 GT SWAP4 DIFFICULTY LOG2 PUSH5 0x6970667358 0x22 SLT KECCAK256 0x4F PUSH31 0xBC8E24131FDFBF13A9B25F7759615F0B9EDBAC73741AED618C12163F753664 PUSH20 0x6F6C634300081100330000000000000000000000 "
		},
		"gasEstimates": {
			"creation": {
				"codeDepositCost": "4801400",
				"executionCost": "31499",
				"totalCost": "4832899"
			},
			"external": {
				"": "230",
				"acceptForTranslator(uint256,uint256[])": "infinite",
				"acceptForVerifer(uint256,uint256[])": "infinite",
				"closeFileState(uint256,uint256)": "infinite",
				"closeTask(uint256)": "infinite",
				"endTransAccept(uint256)": "infinite",
				"endTransVf(uint256)": "infinite",
				"getAcceptTransNumber(uint256,address)": "2741",
				"getAcceptVfNumber(uint256,address)": "2704",
				"getBalanceOfContract()": "296",
				"getBuyer(uint256)": "2567",
				"getCount()": "2348",
				"getFileIndexInfo(uint256,address,uint256)": "infinite",
				"getFileState(uint256,uint256)": "4895",
				"getPay(address)": "2593",
				"getTaskBounty(uint256)": "2523",
				"getTaskBounty(uint256,uint256)": "4748",
				"getTaskInfo(uint256)": "infinite",
				"getTaskState(uint256)": "2652",
				"getTaskStateTrans(uint256)": "2590",
				"getTaskStateVf(uint256)": "2513",
				"getTasks(uint256)": "infinite",
				"getTransNumber(uint256)": "2566",
				"getTransTaskInfo(uint256,address)": "infinite",
				"getTranslatorsList(uint256)": "infinite",
				"getVfList(uint256)": "infinite",
				"getVfNumber(uint256)": "2499",
				"isCustomizeState(uint256)": "2556",
				"isFull(uint256,bool)": "4768",
				"overTimeTasker(uint256,address,bool)": "infinite",
				"overTimeTrans(uint256,address)": "infinite",
				"overTimeVf(uint256,address)": "infinite",
				"owner()": "2443",
				"payFine(address)": "infinite",
				"postTask((uint256,string,string,uint256,uint256,uint256,uint256[],uint256,uint256,bool,bool,uint256,((string,uint256,uint256,uint256,uint256,uint256,string),uint256,string,uint8,uint256)[]))": "infinite",
				"receiveTask(uint256,address,uint256,bool,address)": "infinite",
				"renounceOwnership()": "infinite",
				"sumbitTaskTrans(uint256,uint256,string)": "infinite",
				"transderToContract()": "infinite",
				"transferOwnership(address)": "28444",
				"updateTask(uint256,(uint256,string,string,uint256,uint256,uint256,uint256[],uint256,uint256,bool,bool,uint256,((string,uint256,uint256,uint256,uint256,uint256,string),uint256,string,uint8,uint256)[]))": "infinite",
				"validate(uint256,address,uint256,bool,string)": "infinite",
				"withdraw(uint256)": "infinite",
				"withdrawAll()": "infinite"
			},
			"internal": {
				"_endTransAccept(uint256)": "infinite",
				"_endTransVf(uint256)": "infinite",
				"_overTimeTrans(uint256,address)": "infinite",
				"_overTimeVf(uint256,address)": "infinite",
				"_postTask(struct LibProject.ProParm memory)": "infinite",
				"_receiveTask(uint256,address,uint256,bool)": "infinite",
				"_sumbitTaskTrans(uint256,uint256,string memory)": "infinite",
				"_updateTask(uint256,struct LibProject.ProParm memory)": "infinite",
				"_validate(uint256,address,uint256,bool,string memory)": "infinite"
			}
		},
		"methodIdentifiers": {
			"acceptForTranslator(uint256,uint256[])": "fa4c6473",
			"acceptForVerifer(uint256,uint256[])": "3bd14e13",
			"closeFileState(uint256,uint256)": "97601efb",
			"closeTask(uint256)": "1201dfc6",
			"endTransAccept(uint256)": "8adc74a5",
			"endTransVf(uint256)": "a55af701",
			"getAcceptTransNumber(uint256,address)": "193620e7",
			"getAcceptVfNumber(uint256,address)": "790485f9",
			"getBalanceOfContract()": "22968885",
			"getBuyer(uint256)": "5bf608b8",
			"getCount()": "a87d942c",
			"getFileIndexInfo(uint256,address,uint256)": "dc9f29cb",
			"getFileState(uint256,uint256)": "ad607c72",
			"getPay(address)": "d3d7bc3b",
			"getTaskBounty(uint256)": "6e973982",
			"getTaskBounty(uint256,uint256)": "64a1ed07",
			"getTaskInfo(uint256)": "d1a1b999",
			"getTaskState(uint256)": "ffcce776",
			"getTaskStateTrans(uint256)": "9722f099",
			"getTaskStateVf(uint256)": "546677aa",
			"getTasks(uint256)": "cf8f4be2",
			"getTransNumber(uint256)": "d2fed69c",
			"getTransTaskInfo(uint256,address)": "5fed5eb2",
			"getTranslatorsList(uint256)": "983a12a8",
			"getVfList(uint256)": "b647eec3",
			"getVfNumber(uint256)": "f8626ebb",
			"isCustomizeState(uint256)": "7c34eb85",
			"isFull(uint256,bool)": "8a9a9ff3",
			"overTimeTasker(uint256,address,bool)": "8b3f3a6f",
			"overTimeTrans(uint256,address)": "5b0ef140",
			"overTimeVf(uint256,address)": "36d61ae0",
			"owner()": "8da5cb5b",
			"payFine(address)": "3edfa229",
			"postTask((uint256,string,string,uint256,uint256,uint256,uint256[],uint256,uint256,bool,bool,uint256,((string,uint256,uint256,uint256,uint256,uint256,string),uint256,string,uint8,uint256)[]))": "ac35cd61",
			"receiveTask(uint256,address,uint256,bool,address)": "627a62f3",
			"renounceOwnership()": "715018a6",
			"sumbitTaskTrans(uint256,uint256,string)": "bb0c38c0",
			"transderToContract()": "460968dd",
			"transferOwnership(address)": "f2fde38b",
			"updateTask(uint256,(uint256,string,string,uint256,uint256,uint256,uint256[],uint256,uint256,bool,bool,uint256,((string,uint256,uint256,uint256,uint256,uint256,string),uint256,string,uint8,uint256)[]))": "09a02f58",
			"validate(uint256,address,uint256,bool,string)": "243634bf",
			"withdraw(uint256)": "2e1a7d4d",
			"withdrawAll()": "853828b6"
		}
	},
	"abi": [
		{
			"inputs": [
				{
					"internalType": "string",
					"name": "",
					"type": "string"
				},
				{
					"internalType": "uint256",
					"name": "",
					"type": "uint256"
				}
			],
			"name": "ErrorValue",
			"type": "error"
		},
		{
			"inputs": [
				{
					"internalType": "string",
					"name": "",
					"type": "string"
				},
				{
					"internalType": "enum LibProject.FileState",
					"name": "",
					"type": "uint8"
				}
			],
			"name": "FileException",
			"type": "error"
		},
		{
			"inputs": [
				{
					"internalType": "string",
					"name": "",
					"type": "string"
				}
			],
			"name": "OperationException",
			"type": "error"
		},
		{
			"inputs": [
				{
					"internalType": "string",
					"name": "",
					"type": "string"
				}
			],
			"name": "ParameterException",
			"type": "error"
		},
		{
			"inputs": [
				{
					"internalType": "string",
					"name": "",
					"type": "string"
				}
			],
			"name": "Permissions",
			"type": "error"
		},
		{
			"anonymous": false,
			"inputs": [
				{
					"indexed": true,
					"internalType": "address",
					"name": "previousOwner",
					"type": "address"
				},
				{
					"indexed": true,
					"internalType": "address",
					"name": "newOwner",
					"type": "address"
				}
			],
			"name": "OwnershipTransferred",
			"type": "event"
		},
		{
			"anonymous": false,
			"inputs": [
				{
					"indexed": false,
					"internalType": "uint256",
					"name": "",
					"type": "uint256"
				},
				{
					"indexed": false,
					"internalType": "uint256[]",
					"name": "",
					"type": "uint256[]"
				},
				{
					"indexed": false,
					"internalType": "address",
					"name": "",
					"type": "address"
				},
				{
					"indexed": false,
					"internalType": "bool",
					"name": "",
					"type": "bool"
				}
			],
			"name": "acceptTaskEv",
			"type": "event"
		},
		{
			"anonymous": false,
			"inputs": [
				{
					"indexed": false,
					"internalType": "uint256",
					"name": "",
					"type": "uint256"
				},
				{
					"indexed": false,
					"internalType": "uint256",
					"name": "",
					"type": "uint256"
				},
				{
					"indexed": false,
					"internalType": "address",
					"name": "",
					"type": "address"
				},
				{
					"indexed": false,
					"internalType": "bool",
					"name": "",
					"type": "bool"
				}
			],
			"name": "acceptTaskEv",
			"type": "event"
		},
		{
			"anonymous": false,
			"inputs": [
				{
					"indexed": false,
					"internalType": "uint256",
					"name": "",
					"type": "uint256"
				},
				{
					"indexed": false,
					"internalType": "uint256",
					"name": "",
					"type": "uint256"
				},
				{
					"indexed": false,
					"internalType": "enum LibProject.FileState",
					"name": "",
					"type": "uint8"
				},
				{
					"indexed": false,
					"internalType": "address",
					"name": "",
					"type": "address"
				}
			],
			"name": "changeFileStateEv",
			"type": "event"
		},
		{
			"anonymous": false,
			"inputs": [
				{
					"indexed": false,
					"internalType": "uint256",
					"name": "",
					"type": "uint256"
				},
				{
					"indexed": false,
					"internalType": "enum LibProject.ProjectState",
					"name": "",
					"type": "uint8"
				},
				{
					"indexed": false,
					"internalType": "address",
					"name": "",
					"type": "address"
				}
			],
			"name": "changeProjectStateEv",
			"type": "event"
		},
		{
			"anonymous": false,
			"inputs": [
				{
					"indexed": false,
					"internalType": "uint256",
					"name": "",
					"type": "uint256"
				},
				{
					"indexed": false,
					"internalType": "address",
					"name": "",
					"type": "address"
				},
				{
					"indexed": false,
					"internalType": "uint256",
					"name": "",
					"type": "uint256"
				},
				{
					"indexed": false,
					"internalType": "enum LibProject.TaskerState",
					"name": "",
					"type": "uint8"
				},
				{
					"indexed": false,
					"internalType": "bool",
					"name": "",
					"type": "bool"
				},
				{
					"indexed": false,
					"internalType": "address",
					"name": "",
					"type": "address"
				}
			],
			"name": "changeTaskerStateEv",
			"type": "event"
		},
		{
			"anonymous": false,
			"inputs": [
				{
					"indexed": false,
					"internalType": "uint256",
					"name": "",
					"type": "uint256"
				},
				{
					"indexed": false,
					"internalType": "bool",
					"name": "",
					"type": "bool"
				},
				{
					"indexed": false,
					"internalType": "address",
					"name": "",
					"type": "address"
				}
			],
			"name": "changeTransActive",
			"type": "event"
		},
		{
			"anonymous": false,
			"inputs": [
				{
					"indexed": false,
					"internalType": "uint256",
					"name": "",
					"type": "uint256"
				},
				{
					"indexed": false,
					"internalType": "bool",
					"name": "",
					"type": "bool"
				},
				{
					"indexed": false,
					"internalType": "address",
					"name": "",
					"type": "address"
				}
			],
			"name": "changeVerActive",
			"type": "event"
		},
		{
			"anonymous": false,
			"inputs": [
				{
					"indexed": false,
					"internalType": "address",
					"name": "",
					"type": "address"
				},
				{
					"indexed": false,
					"internalType": "address",
					"name": "",
					"type": "address"
				},
				{
					"indexed": false,
					"internalType": "uint256",
					"name": "",
					"type": "uint256"
				}
			],
			"name": "payEv",
			"type": "event"
		},
		{
			"anonymous": false,
			"inputs": [
				{
					"indexed": false,
					"internalType": "address",
					"name": "",
					"type": "address"
				},
				{
					"indexed": false,
					"internalType": "uint256",
					"name": "",
					"type": "uint256"
				},
				{
					"components": [
						{
							"internalType": "uint256",
							"name": "releaseTime",
							"type": "uint256"
						},
						{
							"internalType": "string",
							"name": "introduce",
							"type": "string"
						},
						{
							"internalType": "string",
							"name": "need",
							"type": "string"
						},
						{
							"internalType": "uint256",
							"name": "deadline",
							"type": "uint256"
						},
						{
							"internalType": "uint256",
							"name": "sourceLanguage",
							"type": "uint256"
						},
						{
							"internalType": "uint256",
							"name": "goalLanguage",
							"type": "uint256"
						},
						{
							"internalType": "uint256[]",
							"name": "preferList",
							"type": "uint256[]"
						},
						{
							"internalType": "uint256",
							"name": "translationType",
							"type": "uint256"
						},
						{
							"internalType": "uint256",
							"name": "workLoad",
							"type": "uint256"
						},
						{
							"internalType": "bool",
							"name": "isNonDisclosure",
							"type": "bool"
						},
						{
							"internalType": "bool",
							"name": "isCustomize",
							"type": "bool"
						},
						{
							"internalType": "uint256",
							"name": "bounty",
							"type": "uint256"
						},
						{
							"components": [
								{
									"components": [
										{
											"internalType": "string",
											"name": "name",
											"type": "string"
										},
										{
											"internalType": "uint256",
											"name": "size",
											"type": "uint256"
										},
										{
											"internalType": "uint256",
											"name": "videoLength",
											"type": "uint256"
										},
										{
											"internalType": "uint256",
											"name": "Page",
											"type": "uint256"
										},
										{
											"internalType": "uint256",
											"name": "words",
											"type": "uint256"
										},
										{
											"internalType": "uint256",
											"name": "fileType",
											"type": "uint256"
										},
										{
											"internalType": "string",
											"name": "path",
											"type": "string"
										}
									],
									"internalType": "struct LibProject.FileInfo",
									"name": "file",
									"type": "tuple"
								},
								{
									"internalType": "uint256",
									"name": "bounty",
									"type": "uint256"
								},
								{
									"internalType": "string",
									"name": "info",
									"type": "string"
								},
								{
									"internalType": "enum LibProject.FileState",
									"name": "state",
									"type": "uint8"
								},
								{
									"internalType": "uint256",
									"name": "lastUpload",
									"type": "uint256"
								}
							],
							"internalType": "struct LibProject.TaskInfo[]",
							"name": "tasks",
							"type": "tuple[]"
						}
					],
					"indexed": false,
					"internalType": "struct LibProject.ProParm",
					"name": "",
					"type": "tuple"
				}
			],
			"name": "postProjectEv",
			"type": "event"
		},
		{
			"stateMutability": "payable",
			"type": "fallback"
		},
		{
			"inputs": [
				{
					"internalType": "uint256",
					"name": "_index",
					"type": "uint256"
				},
				{
					"internalType": "uint256[]",
					"name": "_fileIndex",
					"type": "uint256[]"
				}
			],
			"name": "acceptForTranslator",
			"outputs": [],
			"stateMutability": "nonpayable",
			"type": "function"
		},
		{
			"inputs": [
				{
					"internalType": "uint256",
					"name": "_index",
					"type": "uint256"
				},
				{
					"internalType": "uint256[]",
					"name": "_fileIndex",
					"type": "uint256[]"
				}
			],
			"name": "acceptForVerifer",
			"outputs": [],
			"stateMutability": "nonpayable",
			"type": "function"
		},
		{
			"inputs": [
				{
					"internalType": "uint256",
					"name": "_index",
					"type": "uint256"
				},
				{
					"internalType": "uint256",
					"name": "_fileIndex",
					"type": "uint256"
				}
			],
			"name": "closeFileState",
			"outputs": [],
			"stateMutability": "nonpayable",
			"type": "function"
		},
		{
			"inputs": [
				{
					"internalType": "uint256",
					"name": "_index",
					"type": "uint256"
				}
			],
			"name": "closeTask",
			"outputs": [],
			"stateMutability": "nonpayable",
			"type": "function"
		},
		{
			"inputs": [
				{
					"internalType": "uint256",
					"name": "_index",
					"type": "uint256"
				}
			],
			"name": "endTransAccept",
			"outputs": [],
			"stateMutability": "nonpayable",
			"type": "function"
		},
		{
			"inputs": [
				{
					"internalType": "uint256",
					"name": "_index",
					"type": "uint256"
				}
			],
			"name": "endTransVf",
			"outputs": [],
			"stateMutability": "nonpayable",
			"type": "function"
		},
		{
			"inputs": [
				{
					"internalType": "uint256",
					"name": "_index",
					"type": "uint256"
				},
				{
					"internalType": "address",
					"name": "_taskerIndex",
					"type": "address"
				}
			],
			"name": "getAcceptTransNumber",
			"outputs": [
				{
					"internalType": "uint256",
					"name": "",
					"type": "uint256"
				}
			],
			"stateMutability": "view",
			"type": "function"
		},
		{
			"inputs": [
				{
					"internalType": "uint256",
					"name": "_index",
					"type": "uint256"
				},
				{
					"internalType": "address",
					"name": "_taskerIndex",
					"type": "address"
				}
			],
			"name": "getAcceptVfNumber",
			"outputs": [
				{
					"internalType": "uint256",
					"name": "",
					"type": "uint256"
				}
			],
			"stateMutability": "view",
			"type": "function"
		},
		{
			"inputs": [],
			"name": "getBalanceOfContract",
			"outputs": [
				{
					"internalType": "uint256",
					"name": "",
					"type": "uint256"
				}
			],
			"stateMutability": "view",
			"type": "function"
		},
		{
			"inputs": [
				{
					"internalType": "uint256",
					"name": "_index",
					"type": "uint256"
				}
			],
			"name": "getBuyer",
			"outputs": [
				{
					"internalType": "address",
					"name": "",
					"type": "address"
				}
			],
			"stateMutability": "view",
			"type": "function"
		},
		{
			"inputs": [],
			"name": "getCount",
			"outputs": [
				{
					"internalType": "uint256",
					"name": "",
					"type": "uint256"
				}
			],
			"stateMutability": "view",
			"type": "function"
		},
		{
			"inputs": [
				{
					"internalType": "uint256",
					"name": "_index",
					"type": "uint256"
				},
				{
					"internalType": "address",
					"name": "_address",
					"type": "address"
				},
				{
					"internalType": "uint256",
					"name": "_fileIndex",
					"type": "uint256"
				}
			],
			"name": "getFileIndexInfo",
			"outputs": [
				{
					"components": [
						{
							"internalType": "enum LibProject.TaskerState",
							"name": "state",
							"type": "uint8"
						},
						{
							"internalType": "string",
							"name": "file",
							"type": "string"
						}
					],
					"internalType": "struct LibProject.FileIndexInfo",
					"name": "",
					"type": "tuple"
				}
			],
			"stateMutability": "view",
			"type": "function"
		},
		{
			"inputs": [
				{
					"internalType": "uint256",
					"name": "_index",
					"type": "uint256"
				},
				{
					"internalType": "uint256",
					"name": "_fileIndex",
					"type": "uint256"
				}
			],
			"name": "getFileState",
			"outputs": [
				{
					"internalType": "enum LibProject.FileState",
					"name": "",
					"type": "uint8"
				}
			],
			"stateMutability": "view",
			"type": "function"
		},
		{
			"inputs": [
				{
					"internalType": "address",
					"name": "_tasker",
					"type": "address"
				}
			],
			"name": "getPay",
			"outputs": [
				{
					"internalType": "uint256",
					"name": "",
					"type": "uint256"
				}
			],
			"stateMutability": "view",
			"type": "function"
		},
		{
			"inputs": [
				{
					"internalType": "uint256",
					"name": "_index",
					"type": "uint256"
				},
				{
					"internalType": "uint256",
					"name": "_fileIndex",
					"type": "uint256"
				}
			],
			"name": "getTaskBounty",
			"outputs": [
				{
					"internalType": "uint256",
					"name": "",
					"type": "uint256"
				}
			],
			"stateMutability": "view",
			"type": "function"
		},
		{
			"inputs": [
				{
					"internalType": "uint256",
					"name": "_index",
					"type": "uint256"
				}
			],
			"name": "getTaskBounty",
			"outputs": [
				{
					"internalType": "uint256",
					"name": "",
					"type": "uint256"
				}
			],
			"stateMutability": "view",
			"type": "function"
		},
		{
			"inputs": [
				{
					"internalType": "uint256",
					"name": "_index",
					"type": "uint256"
				}
			],
			"name": "getTaskInfo",
			"outputs": [
				{
					"components": [
						{
							"internalType": "address",
							"name": "buyer",
							"type": "address"
						},
						{
							"internalType": "uint256",
							"name": "releaseTime",
							"type": "uint256"
						},
						{
							"internalType": "string",
							"name": "introduce",
							"type": "string"
						},
						{
							"internalType": "string",
							"name": "need",
							"type": "string"
						},
						{
							"internalType": "uint256",
							"name": "deadline",
							"type": "uint256"
						},
						{
							"internalType": "uint256",
							"name": "sourceLanguage",
							"type": "uint256"
						},
						{
							"internalType": "uint256",
							"name": "goalLanguage",
							"type": "uint256"
						},
						{
							"internalType": "uint256[]",
							"name": "preferList",
							"type": "uint256[]"
						},
						{
							"internalType": "uint256",
							"name": "translationType",
							"type": "uint256"
						},
						{
							"internalType": "uint256",
							"name": "workLoad",
							"type": "uint256"
						},
						{
							"internalType": "bool",
							"name": "isNonDisclosure",
							"type": "bool"
						},
						{
							"internalType": "bool",
							"name": "isCustomize",
							"type": "bool"
						},
						{
							"internalType": "uint256",
							"name": "bounty",
							"type": "uint256"
						},
						{
							"components": [
								{
									"components": [
										{
											"internalType": "string",
											"name": "name",
											"type": "string"
										},
										{
											"internalType": "uint256",
											"name": "size",
											"type": "uint256"
										},
										{
											"internalType": "uint256",
											"name": "videoLength",
											"type": "uint256"
										},
										{
											"internalType": "uint256",
											"name": "Page",
											"type": "uint256"
										},
										{
											"internalType": "uint256",
											"name": "words",
											"type": "uint256"
										},
										{
											"internalType": "uint256",
											"name": "fileType",
											"type": "uint256"
										},
										{
											"internalType": "string",
											"name": "path",
											"type": "string"
										}
									],
									"internalType": "struct LibProject.FileInfo",
									"name": "file",
									"type": "tuple"
								},
								{
									"internalType": "uint256",
									"name": "bounty",
									"type": "uint256"
								},
								{
									"internalType": "string",
									"name": "info",
									"type": "string"
								},
								{
									"internalType": "enum LibProject.FileState",
									"name": "state",
									"type": "uint8"
								},
								{
									"internalType": "uint256",
									"name": "lastUpload",
									"type": "uint256"
								}
							],
							"internalType": "struct LibProject.TaskInfo[]",
							"name": "tasks",
							"type": "tuple[]"
						},
						{
							"internalType": "address[]",
							"name": "translators",
							"type": "address[]"
						},
						{
							"internalType": "address[]",
							"name": "verifiers",
							"type": "address[]"
						},
						{
							"components": [
								{
									"internalType": "address",
									"name": "taskerAddress",
									"type": "address"
								},
								{
									"internalType": "uint256[]",
									"name": "taskIndex",
									"type": "uint256[]"
								},
								{
									"components": [
										{
											"internalType": "enum LibProject.TaskerState",
											"name": "state",
											"type": "uint8"
										},
										{
											"internalType": "string",
											"name": "file",
											"type": "string"
										}
									],
									"internalType": "struct LibProject.FileIndexInfo[]",
									"name": "taskerinfo",
									"type": "tuple[]"
								}
							],
							"internalType": "struct LibProject.ReturnTasker[]",
							"name": "transInfo",
							"type": "tuple[]"
						},
						{
							"components": [
								{
									"internalType": "address",
									"name": "taskerAddress",
									"type": "address"
								},
								{
									"internalType": "uint256[]",
									"name": "taskIndex",
									"type": "uint256[]"
								},
								{
									"components": [
										{
											"internalType": "enum LibProject.TaskerState",
											"name": "state",
											"type": "uint8"
										},
										{
											"internalType": "string",
											"name": "file",
											"type": "string"
										}
									],
									"internalType": "struct LibProject.FileIndexInfo[]",
									"name": "taskerinfo",
									"type": "tuple[]"
								}
							],
							"internalType": "struct LibProject.ReturnTasker[]",
							"name": "vfInfo",
							"type": "tuple[]"
						},
						{
							"internalType": "uint256",
							"name": "maxT",
							"type": "uint256"
						},
						{
							"internalType": "uint256",
							"name": "maxV",
							"type": "uint256"
						},
						{
							"internalType": "uint256",
							"name": "numberT",
							"type": "uint256"
						},
						{
							"internalType": "uint256",
							"name": "numberV",
							"type": "uint256"
						},
						{
							"internalType": "bool",
							"name": "isTransActive",
							"type": "bool"
						},
						{
							"internalType": "bool",
							"name": "isVerActive",
							"type": "bool"
						},
						{
							"internalType": "enum LibProject.ProjectState",
							"name": "state",
							"type": "uint8"
						}
					],
					"internalType": "struct LibProject.ReturnTask",
					"name": "",
					"type": "tuple"
				}
			],
			"stateMutability": "view",
			"type": "function"
		},
		{
			"inputs": [
				{
					"internalType": "uint256",
					"name": "_index",
					"type": "uint256"
				}
			],
			"name": "getTaskState",
			"outputs": [
				{
					"internalType": "enum LibProject.ProjectState",
					"name": "",
					"type": "uint8"
				}
			],
			"stateMutability": "view",
			"type": "function"
		},
		{
			"inputs": [
				{
					"internalType": "uint256",
					"name": "_index",
					"type": "uint256"
				}
			],
			"name": "getTaskStateTrans",
			"outputs": [
				{
					"internalType": "bool",
					"name": "",
					"type": "bool"
				}
			],
			"stateMutability": "view",
			"type": "function"
		},
		{
			"inputs": [
				{
					"internalType": "uint256",
					"name": "_index",
					"type": "uint256"
				}
			],
			"name": "getTaskStateVf",
			"outputs": [
				{
					"internalType": "bool",
					"name": "",
					"type": "bool"
				}
			],
			"stateMutability": "view",
			"type": "function"
		},
		{
			"inputs": [
				{
					"internalType": "uint256",
					"name": "_index",
					"type": "uint256"
				}
			],
			"name": "getTasks",
			"outputs": [
				{
					"components": [
						{
							"components": [
								{
									"internalType": "string",
									"name": "name",
									"type": "string"
								},
								{
									"internalType": "uint256",
									"name": "size",
									"type": "uint256"
								},
								{
									"internalType": "uint256",
									"name": "videoLength",
									"type": "uint256"
								},
								{
									"internalType": "uint256",
									"name": "Page",
									"type": "uint256"
								},
								{
									"internalType": "uint256",
									"name": "words",
									"type": "uint256"
								},
								{
									"internalType": "uint256",
									"name": "fileType",
									"type": "uint256"
								},
								{
									"internalType": "string",
									"name": "path",
									"type": "string"
								}
							],
							"internalType": "struct LibProject.FileInfo",
							"name": "file",
							"type": "tuple"
						},
						{
							"internalType": "uint256",
							"name": "bounty",
							"type": "uint256"
						},
						{
							"internalType": "string",
							"name": "info",
							"type": "string"
						},
						{
							"internalType": "enum LibProject.FileState",
							"name": "state",
							"type": "uint8"
						},
						{
							"internalType": "uint256",
							"name": "lastUpload",
							"type": "uint256"
						}
					],
					"internalType": "struct LibProject.TaskInfo[]",
					"name": "",
					"type": "tuple[]"
				}
			],
			"stateMutability": "view",
			"type": "function"
		},
		{
			"inputs": [
				{
					"internalType": "uint256",
					"name": "_index",
					"type": "uint256"
				}
			],
			"name": "getTransNumber",
			"outputs": [
				{
					"internalType": "uint256",
					"name": "",
					"type": "uint256"
				}
			],
			"stateMutability": "view",
			"type": "function"
		},
		{
			"inputs": [
				{
					"internalType": "uint256",
					"name": "_index",
					"type": "uint256"
				},
				{
					"internalType": "address",
					"name": "_address",
					"type": "address"
				}
			],
			"name": "getTransTaskInfo",
			"outputs": [
				{
					"components": [
						{
							"internalType": "address",
							"name": "taskerAddress",
							"type": "address"
						},
						{
							"internalType": "uint256[]",
							"name": "taskIndex",
							"type": "uint256[]"
						},
						{
							"components": [
								{
									"internalType": "enum LibProject.TaskerState",
									"name": "state",
									"type": "uint8"
								},
								{
									"internalType": "string",
									"name": "file",
									"type": "string"
								}
							],
							"internalType": "struct LibProject.FileIndexInfo[]",
							"name": "taskerinfo",
							"type": "tuple[]"
						}
					],
					"internalType": "struct LibProject.ReturnTasker",
					"name": "",
					"type": "tuple"
				}
			],
			"stateMutability": "view",
			"type": "function"
		},
		{
			"inputs": [
				{
					"internalType": "uint256",
					"name": "_index",
					"type": "uint256"
				}
			],
			"name": "getTranslatorsList",
			"outputs": [
				{
					"internalType": "address[]",
					"name": "",
					"type": "address[]"
				}
			],
			"stateMutability": "view",
			"type": "function"
		},
		{
			"inputs": [
				{
					"internalType": "uint256",
					"name": "_index",
					"type": "uint256"
				}
			],
			"name": "getVfList",
			"outputs": [
				{
					"internalType": "address[]",
					"name": "",
					"type": "address[]"
				}
			],
			"stateMutability": "view",
			"type": "function"
		},
		{
			"inputs": [
				{
					"internalType": "uint256",
					"name": "_index",
					"type": "uint256"
				}
			],
			"name": "getVfNumber",
			"outputs": [
				{
					"internalType": "uint256",
					"name": "",
					"type": "uint256"
				}
			],
			"stateMutability": "view",
			"type": "function"
		},
		{
			"inputs": [
				{
					"internalType": "uint256",
					"name": "_index",
					"type": "uint256"
				}
			],
			"name": "isCustomizeState",
			"outputs": [
				{
					"internalType": "bool",
					"name": "",
					"type": "bool"
				}
			],
			"stateMutability": "view",
			"type": "function"
		},
		{
			"inputs": [
				{
					"internalType": "uint256",
					"name": "_index",
					"type": "uint256"
				},
				{
					"internalType": "bool",
					"name": "_isTrans",
					"type": "bool"
				}
			],
			"name": "isFull",
			"outputs": [
				{
					"internalType": "bool",
					"name": "",
					"type": "bool"
				}
			],
			"stateMutability": "view",
			"type": "function"
		},
		{
			"inputs": [
				{
					"internalType": "uint256",
					"name": "_index",
					"type": "uint256"
				},
				{
					"internalType": "address",
					"name": "_taskerIndex",
					"type": "address"
				},
				{
					"internalType": "bool",
					"name": "_isTrans",
					"type": "bool"
				}
			],
			"name": "overTimeTasker",
			"outputs": [
				{
					"internalType": "uint256[]",
					"name": "",
					"type": "uint256[]"
				},
				{
					"internalType": "uint256",
					"name": "",
					"type": "uint256"
				}
			],
			"stateMutability": "view",
			"type": "function"
		},
		{
			"inputs": [
				{
					"internalType": "uint256",
					"name": "_index",
					"type": "uint256"
				},
				{
					"internalType": "address",
					"name": "_tasker",
					"type": "address"
				}
			],
			"name": "overTimeTrans",
			"outputs": [
				{
					"internalType": "uint256",
					"name": "",
					"type": "uint256"
				}
			],
			"stateMutability": "nonpayable",
			"type": "function"
		},
		{
			"inputs": [
				{
					"internalType": "uint256",
					"name": "_index",
					"type": "uint256"
				},
				{
					"internalType": "address",
					"name": "_tasker",
					"type": "address"
				}
			],
			"name": "overTimeVf",
			"outputs": [
				{
					"internalType": "uint256",
					"name": "",
					"type": "uint256"
				}
			],
			"stateMutability": "nonpayable",
			"type": "function"
		},
		{
			"inputs": [],
			"name": "owner",
			"outputs": [
				{
					"internalType": "address",
					"name": "",
					"type": "address"
				}
			],
			"stateMutability": "view",
			"type": "function"
		},
		{
			"inputs": [
				{
					"internalType": "address",
					"name": "_to",
					"type": "address"
				}
			],
			"name": "payFine",
			"outputs": [],
			"stateMutability": "payable",
			"type": "function"
		},
		{
			"inputs": [
				{
					"components": [
						{
							"internalType": "uint256",
							"name": "releaseTime",
							"type": "uint256"
						},
						{
							"internalType": "string",
							"name": "introduce",
							"type": "string"
						},
						{
							"internalType": "string",
							"name": "need",
							"type": "string"
						},
						{
							"internalType": "uint256",
							"name": "deadline",
							"type": "uint256"
						},
						{
							"internalType": "uint256",
							"name": "sourceLanguage",
							"type": "uint256"
						},
						{
							"internalType": "uint256",
							"name": "goalLanguage",
							"type": "uint256"
						},
						{
							"internalType": "uint256[]",
							"name": "preferList",
							"type": "uint256[]"
						},
						{
							"internalType": "uint256",
							"name": "translationType",
							"type": "uint256"
						},
						{
							"internalType": "uint256",
							"name": "workLoad",
							"type": "uint256"
						},
						{
							"internalType": "bool",
							"name": "isNonDisclosure",
							"type": "bool"
						},
						{
							"internalType": "bool",
							"name": "isCustomize",
							"type": "bool"
						},
						{
							"internalType": "uint256",
							"name": "bounty",
							"type": "uint256"
						},
						{
							"components": [
								{
									"components": [
										{
											"internalType": "string",
											"name": "name",
											"type": "string"
										},
										{
											"internalType": "uint256",
											"name": "size",
											"type": "uint256"
										},
										{
											"internalType": "uint256",
											"name": "videoLength",
											"type": "uint256"
										},
										{
											"internalType": "uint256",
											"name": "Page",
											"type": "uint256"
										},
										{
											"internalType": "uint256",
											"name": "words",
											"type": "uint256"
										},
										{
											"internalType": "uint256",
											"name": "fileType",
											"type": "uint256"
										},
										{
											"internalType": "string",
											"name": "path",
											"type": "string"
										}
									],
									"internalType": "struct LibProject.FileInfo",
									"name": "file",
									"type": "tuple"
								},
								{
									"internalType": "uint256",
									"name": "bounty",
									"type": "uint256"
								},
								{
									"internalType": "string",
									"name": "info",
									"type": "string"
								},
								{
									"internalType": "enum LibProject.FileState",
									"name": "state",
									"type": "uint8"
								},
								{
									"internalType": "uint256",
									"name": "lastUpload",
									"type": "uint256"
								}
							],
							"internalType": "struct LibProject.TaskInfo[]",
							"name": "tasks",
							"type": "tuple[]"
						}
					],
					"internalType": "struct LibProject.ProParm",
					"name": "_t",
					"type": "tuple"
				}
			],
			"name": "postTask",
			"outputs": [
				{
					"internalType": "uint256",
					"name": "_index",
					"type": "uint256"
				}
			],
			"stateMutability": "payable",
			"type": "function"
		},
		{
			"inputs": [
				{
					"internalType": "uint256",
					"name": "_index",
					"type": "uint256"
				},
				{
					"internalType": "address",
					"name": "_taskerIndex",
					"type": "address"
				},
				{
					"internalType": "uint256",
					"name": "_fileIndex",
					"type": "uint256"
				},
				{
					"internalType": "bool",
					"name": "_isPass",
					"type": "bool"
				},
				{
					"internalType": "address",
					"name": "_transAddress",
					"type": "address"
				}
			],
			"name": "receiveTask",
			"outputs": [],
			"stateMutability": "payable",
			"type": "function"
		},
		{
			"inputs": [],
			"name": "renounceOwnership",
			"outputs": [],
			"stateMutability": "nonpayable",
			"type": "function"
		},
		{
			"inputs": [
				{
					"internalType": "uint256",
					"name": "_index",
					"type": "uint256"
				},
				{
					"internalType": "uint256",
					"name": "_fileIndex",
					"type": "uint256"
				},
				{
					"internalType": "string",
					"name": "_file",
					"type": "string"
				}
			],
			"name": "sumbitTaskTrans",
			"outputs": [],
			"stateMutability": "nonpayable",
			"type": "function"
		},
		{
			"inputs": [],
			"name": "transderToContract",
			"outputs": [],
			"stateMutability": "payable",
			"type": "function"
		},
		{
			"inputs": [
				{
					"internalType": "address",
					"name": "newOwner",
					"type": "address"
				}
			],
			"name": "transferOwnership",
			"outputs": [],
			"stateMutability": "nonpayable",
			"type": "function"
		},
		{
			"inputs": [
				{
					"internalType": "uint256",
					"name": "_index",
					"type": "uint256"
				},
				{
					"components": [
						{
							"internalType": "uint256",
							"name": "releaseTime",
							"type": "uint256"
						},
						{
							"internalType": "string",
							"name": "introduce",
							"type": "string"
						},
						{
							"internalType": "string",
							"name": "need",
							"type": "string"
						},
						{
							"internalType": "uint256",
							"name": "deadline",
							"type": "uint256"
						},
						{
							"internalType": "uint256",
							"name": "sourceLanguage",
							"type": "uint256"
						},
						{
							"internalType": "uint256",
							"name": "goalLanguage",
							"type": "uint256"
						},
						{
							"internalType": "uint256[]",
							"name": "preferList",
							"type": "uint256[]"
						},
						{
							"internalType": "uint256",
							"name": "translationType",
							"type": "uint256"
						},
						{
							"internalType": "uint256",
							"name": "workLoad",
							"type": "uint256"
						},
						{
							"internalType": "bool",
							"name": "isNonDisclosure",
							"type": "bool"
						},
						{
							"internalType": "bool",
							"name": "isCustomize",
							"type": "bool"
						},
						{
							"internalType": "uint256",
							"name": "bounty",
							"type": "uint256"
						},
						{
							"components": [
								{
									"components": [
										{
											"internalType": "string",
											"name": "name",
											"type": "string"
										},
										{
											"internalType": "uint256",
											"name": "size",
											"type": "uint256"
										},
										{
											"internalType": "uint256",
											"name": "videoLength",
											"type": "uint256"
										},
										{
											"internalType": "uint256",
											"name": "Page",
											"type": "uint256"
										},
										{
											"internalType": "uint256",
											"name": "words",
											"type": "uint256"
										},
										{
											"internalType": "uint256",
											"name": "fileType",
											"type": "uint256"
										},
										{
											"internalType": "string",
											"name": "path",
											"type": "string"
										}
									],
									"internalType": "struct LibProject.FileInfo",
									"name": "file",
									"type": "tuple"
								},
								{
									"internalType": "uint256",
									"name": "bounty",
									"type": "uint256"
								},
								{
									"internalType": "string",
									"name": "info",
									"type": "string"
								},
								{
									"internalType": "enum LibProject.FileState",
									"name": "state",
									"type": "uint8"
								},
								{
									"internalType": "uint256",
									"name": "lastUpload",
									"type": "uint256"
								}
							],
							"internalType": "struct LibProject.TaskInfo[]",
							"name": "tasks",
							"type": "tuple[]"
						}
					],
					"internalType": "struct LibProject.ProParm",
					"name": "_t",
					"type": "tuple"
				}
			],
			"name": "updateTask",
			"outputs": [],
			"stateMutability": "payable",
			"type": "function"
		},
		{
			"inputs": [
				{
					"internalType": "uint256",
					"name": "_index",
					"type": "uint256"
				},
				{
					"internalType": "address",
					"name": "_traner",
					"type": "address"
				},
				{
					"internalType": "uint256",
					"name": "_fileIndex",
					"type": "uint256"
				},
				{
					"internalType": "bool",
					"name": "_isPass",
					"type": "bool"
				},
				{
					"internalType": "string",
					"name": "_file",
					"type": "string"
				}
			],
			"name": "validate",
			"outputs": [],
			"stateMutability": "nonpayable",
			"type": "function"
		},
		{
			"inputs": [
				{
					"internalType": "uint256",
					"name": "_money",
					"type": "uint256"
				}
			],
			"name": "withdraw",
			"outputs": [],
			"stateMutability": "nonpayable",
			"type": "function"
		},
		{
			"inputs": [],
			"name": "withdrawAll",
			"outputs": [],
			"stateMutability": "nonpayable",
			"type": "function"
		},
		{
			"stateMutability": "payable",
			"type": "receive"
		}
	]
}