{
	"data": {
		"bytecode": {
			"linkReferences": {
				"TransImpl_flat.sol": {
					"CalculateUtils": [
						{
							"length": 20,
							"start": 9331
						},
						{
							"length": 20,
							"start": 9494
						},
						{
							"length": 20,
							"start": 11236
						}
					]
				}
			},
			"object": "6080604052600180546001600160a01b0319167325cb30acd1786e49177429318f26959681f9aabd1790553480156200003757600080fd5b50620000433362000049565b62000099565b600080546001600160a01b038381166001600160a01b0319831681178455604051919092169283917f8be0079c531659141344cd1fd0a4f28419497f9722a3daafe3b4186f6b6457e09190a35050565b615f4080620000a96000396000f3fe6080604052600436106102535760003560e01c8063853828b611610138578063ad607c72116100b0578063d2fed69c11610077578063d2fed69c146107ba578063d3d7bc3b146107ea578063f2fde38b14610820578063f8626ebb14610840578063fa4c647314610870578063ffcce7761461089057005b8063ad607c72146106f3578063b647eec314610720578063bb0c38c014610740578063cf8f4be214610760578063d1a1b9991461078d57005b80639722f099116100ff5780639722f0991461062b57806397601efb1461065e578063983a12a81461067e578063a55af701146106ab578063a87d942c146106cb578063ac35cd61146106e057005b8063853828b61461058a5780638a9a9ff31461059f5780638adc74a5146105bf5780638b3f3a6f146105df5780638da5cb5b1461060d57005b8063546677aa116101cb57806364a1ed071161019257806364a1ed07146104865780636e973982146104a6578063715018a6146104d6578063790485f9146104eb5780637c34eb85146105325780637c35beb71461056a57005b8063546677aa146103905780635b0ef140146103d85780635bf608b8146103f85780635fed5eb214610446578063627a62f31461047357005b8063243634bf1161021a578063243634bf146102f55780632e1a7d4d1461031557806336d61ae0146103355780633bd14e13146103555780633edfa22914610375578063460968dd1461038857005b806309a02f581461025c5780630ca234381461026f5780631201dfc61461028f578063193620e7146102af57806322968885146102e257005b3661025a57005b005b61025a61026a3660046151a9565b6108d6565b34801561027b57600080fd5b5061025a61028a366004615206565b6109c1565b34801561029b57600080fd5b5061025a6102aa366004615221565b6109eb565b3480156102bb57600080fd5b506102cf6102ca36600461523a565b6109f7565b6040519081526020015b60405180910390f35b3480156102ee57600080fd5b50476102cf565b34801561030157600080fd5b5061025a610310366004615266565b610a24565b34801561032157600080fd5b5061025a610330366004615221565b610add565b34801561034157600080fd5b506102cf61035036600461523a565b610aee565b34801561036157600080fd5b5061025a6103703660046152d7565b610b3a565b61025a610383366004615206565b610c42565b61025a610ccd565b34801561039c57600080fd5b506103c86103ab366004615221565b600090815260026020526040902060150154610100900460ff1690565b60405190151581526020016102d9565b3480156103e457600080fd5b506102cf6103f336600461523a565b610d61565b34801561040457600080fd5b5061042e610413366004615221565b6000908152600260205260409020546001600160a01b031690565b6040516001600160a01b0390911681526020016102d9565b34801561045257600080fd5b5061046661046136600461523a565b610d99565b6040516102d99190615463565b61025a610481366004615476565b611068565b34801561049257600080fd5b506102cf6104a13660046154cd565b6111c6565b3480156104b257600080fd5b506102cf6104c1366004615221565b6000908152600260205260409020600b015490565b3480156104e257600080fd5b5061025a611203565b3480156104f757600080fd5b506102cf61050636600461523a565b60008281526002602090815260408083206001600160a01b038516845260100190915290205492915050565b34801561053e57600080fd5b506103c861054d366004615221565b6000908152600260205260409020600a0154610100900460ff1690565b34801561057657600080fd5b5061046661058536600461523a565b611217565b34801561059657600080fd5b5061025a6114d9565b3480156105ab57600080fd5b506103c86105ba3660046154ef565b6114e9565b3480156105cb57600080fd5b5061025a6105da366004615221565b611533565b3480156105eb57600080fd5b506105ff6105fa366004615512565b61156b565b6040516102d992919061554e565b34801561061957600080fd5b506000546001600160a01b031661042e565b34801561063757600080fd5b506103c8610646366004615221565b60009081526002602052604090206015015460ff1690565b34801561066a57600080fd5b5061025a6106793660046154cd565b6118a0565b34801561068a57600080fd5b5061069e610699366004615221565b6118ae565b6040516102d99190615570565b3480156106b757600080fd5b5061025a6106c6366004615221565b61191d565b3480156106d757600080fd5b506004546102cf565b6102cf6106ee3660046155bd565b611950565b3480156106ff57600080fd5b5061071361070e3660046154cd565b611a0f565b6040516102d99190615601565b34801561072c57600080fd5b5061069e61073b366004615221565b611a50565b34801561074c57600080fd5b5061025a61075b36600461560f565b611abd565b34801561076c57600080fd5b5061078061077b366004615221565b611b5d565b6040516102d99190615767565b34801561079957600080fd5b506107ad6107a8366004615221565b611e0e565b6040516102d991906157d2565b3480156107c657600080fd5b506102cf6107d5366004615221565b6000908152600260205260409020600d015490565b3480156107f657600080fd5b506102cf610805366004615206565b6001600160a01b031660009081526003602052604090205490565b34801561082c57600080fd5b5061025a61083b366004615206565b611e52565b34801561084c57600080fd5b506102cf61085b366004615221565b6000908152600260205260409020600e015490565b34801561087c57600080fd5b5061025a61088b3660046152d7565b611ec8565b34801561089c57600080fd5b506108c96108ab366004615221565b60009081526002602052604090206015015462010000900460ff1690565b6040516102d991906159a0565b33600081815260036020526040902054801561090e57604051630934f2c360e01b8152600401610905906159ae565b60405180910390fd5b8361091860045490565b8111156109385760405163347626dd60e21b8152600401610905906159d7565b6109428585611fbb565b6000610954856101600151601e612004565b905061096881670de0b6b3a7640000615a19565b34146109b157604080516379d3124b60e01b81526004810191909152600f60448201526e496e636f72726563742076616c756560881b6064820152346024820152608401610905565b6109b9610ccd565b505050505050565b6109c9612023565b600180546001600160a01b0319166001600160a01b0392909216919091179055565b6109f48161207d565b50565b60008281526002602090815260408083206001600160a01b0385168452600f019091529020545b92915050565b84610a2e60045490565b811115610a4e5760405163347626dd60e21b8152600401610905906159d7565b6000610a5a8786611a0f565b9050600781600b811115610a7057610a7061534e565b1115610ab25760405163b4644dd960e01b815260206004820152601060248201526f1d5b98589b19481d1bc81cdd589b5a5d60821b6044820152606401610905565b6000610ac188888888886120c0565b90508015610ad357610ad38782612152565b5050505050505050565b610ae5612023565b6109f481612243565b600082610afa60045490565b811115610b1a5760405163347626dd60e21b8152600401610905906159d7565b6000610b2685856122e7565b9050610b3284826124d7565b949350505050565b81610b4460045490565b811115610b645760405163347626dd60e21b8152600401610905906159d7565b6000838152600260205260409020601501548390610100900460ff16610bc25760405163b4644dd960e01b815260206004820152601260248201527143616e27742072656365697665207461736b60701b6044820152606401610905565b336000818152600360205260409020548015610bf157604051630934f2c360e01b8152600401610905906159ae565b610bfc868633612508565b7f8e913351aa76002e572cc432b46556976f6e10285b52f94909124ea8ebd0b7958686336000604051610c329493929190615a30565b60405180910390a1505050505050565b6001600160a01b038116600090815260036020526040902054610c6d90670de0b6b3a7640000615a19565b341115610cb957604080516379d3124b60e01b8152600481019190915260116044820152700ecc2d8eaca40d2e640e8dede40d0d2ced607b1b6064820152346024820152608401610905565b610cc38134612921565b6109f48134612949565b604051600090309034908381818185875af1925050503d8060008114610d0f576040519150601f19603f3d011682016040523d82523d6000602084013e610d14565b606091505b5050905080610d355760405162461bcd60e51b815260040161090590615a6a565b600080516020615ecb833981519152333034604051610d5693929190615a8f565b60405180910390a150565b600082610d6d60045490565b811115610d8d5760405163347626dd60e21b8152600401610905906159d7565b6000610b268585612a58565b610da1614bc8565b610da9614bc8565b6001600160a01b0383168082526000858152600260209081526040808320938352600f90930181529082902080548351818402810184019094528084529091830182828015610e1757602002820191906000526020600020905b815481526020019060010190808311610e03575b505050506020830182905250516000906001600160401b03811115610e3e57610e3e614d21565b604051908082528060200260200182016040528015610e8457816020015b604080518082019091526000815260606020820152815260200190600190039081610e5c5790505b50905060005b82602001515181101561105b5760008681526002602090815260408083206001600160a01b0389168452600f01825282209085015180516001909201929184908110610ed857610ed8615ab3565b6020026020010151815260200190815260200160002060000160009054906101000a900460ff16828281518110610f1157610f11615ab3565b6020026020010151600001906004811115610f2e57610f2e61534e565b90816004811115610f4157610f4161534e565b90525060008681526002602090815260408083206001600160a01b0389168452600f01825282209085015180516001909201929184908110610f8557610f85615ab3565b602002602001015181526020019081526020016000206001018054610fa990615ac9565b80601f0160208091040260200160405190810160405280929190818152602001828054610fd590615ac9565b80156110225780601f10610ff757610100808354040283529160200191611022565b820191906000526020600020905b81548152906001019060200180831161100557829003601f168201915b505050505082828151811061103957611039615ab3565b602002602001015160200181905250808061105390615afd565b915050610e8a565b5060408201529392505050565b8461107260045490565b8111156110925760405163347626dd60e21b8152600401610905906159d7565b6000868152600260205260408120600a0154610100900460ff16156110c2576110bb87866111c6565b90506110d6565b506000868152600260205260409020600b01545b6110e287878787612b5c565b83156111bd5760006111066110ff83670de0b6b3a7640000615a19565b6046612004565b90508034101561116157604080516379d3124b60e01b81526004810191909152601760448201527f6572726f72203a20496e636f72726563742076616c75650000000000000000006064820152346024820152608401610905565b611169610ccd565b600061118561118084670de0b6b3a7640000615a19565b612b85565b905060006111a361119e85670de0b6b3a7640000615a19565b612b92565b90506111af8983612152565b6111b98682612152565b5050505b50505050505050565b6000828152600260205260408120600c018054839081106111e9576111e9615ab3565b90600052602060002090600b020160070154905092915050565b61120b612023565b6112156000612b9f565b565b61121f614bc8565b611227614bc8565b6001600160a01b038316808252600085815260026020908152604080832093835260109093018152908290208054835181840281018401909452808452909183018282801561129557602002820191906000526020600020905b815481526020019060010190808311611281575b505050506020830182905250516000906001600160401b038111156112bc576112bc614d21565b60405190808252806020026020018201604052801561130257816020015b6040805180820190915260008152606060208201528152602001906001900390816112da5790505b50905060005b82602001515181101561105b5760008681526002602090815260408083206001600160a01b038916845260100182528220908501518051600190920192918490811061135657611356615ab3565b6020026020010151815260200190815260200160002060000160009054906101000a900460ff1682828151811061138f5761138f615ab3565b60200260200101516000019060048111156113ac576113ac61534e565b908160048111156113bf576113bf61534e565b90525060008681526002602090815260408083206001600160a01b038916845260100182528220908501518051600190920192918490811061140357611403615ab3565b60200260200101518152602001908152602001600020600101805461142790615ac9565b80601f016020809104026020016040519081016040528092919081815260200182805461145390615ac9565b80156114a05780601f10611475576101008083540402835291602001916114a0565b820191906000526020600020905b81548152906001019060200180831161148357829003601f168201915b50505050508282815181106114b7576114b7615ab3565b60200260200101516020018190525080806114d190615afd565b915050611308565b6114e1612023565b611215612bef565b600081156115125750600082815260026020526040902060138101546011909101541115610a1e565b50600082815260026020526040902060148101546012909101541115610a1e565b8061153d60045490565b81111561155d5760405163347626dd60e21b8152600401610905906159d7565b61156682612c83565b505050565b6060600060608060008086156115ef5760008981526002602090815260408083206001600160a01b038c168452600f01825291829020805483518184028101840190945280845290918301828280156115e357602002820191906000526020600020905b8154815260200190600101908083116115cf575b5050505050935061165f565b60008981526002602090815260408083206001600160a01b038c1684526010018252918290208054835181840281018401909452808452909183018282801561165757602002820191906000526020600020905b815481526020019060010190808311611643575b505050505093505b60408051808201909152600081526060602082015260005b855181101561188f5760008b81526002602090815260408083206001600160a01b038e168452600f0190915281208751600190910191908890849081106116c0576116c0615ab3565b602002602001015181526020019081526020016000206040518060400160405290816000820160009054906101000a900460ff1660048111156117055761170561534e565b60048111156117165761171661534e565b815260200160018201805461172a90615ac9565b80601f016020809104026020016040519081016040528092919081815260200182805461175690615ac9565b80156117a35780601f10611778576101008083540402835291602001916117a3565b820191906000526020600020905b81548152906001019060200180831161178657829003601f168201915b5050505050815250509150600060048111156117c1576117c161534e565b825160048111156117d4576117d461534e565b0361187d578581815181106117eb576117eb615ab3565b602002602001015185848151811061180557611805615ab3565b60209081029190910101528261181a81615afd565b935050600260008c8152602001908152602001600020600c0186828151811061184557611845615ab3565b60200260200101518154811061185d5761185d615ab3565b90600052602060002090600b0201600701548461187a9190615b16565b93505b8061188781615afd565b915050611677565b509299919850909650505050505050565b6118aa8282612e77565b5050565b600081815260026020908152604091829020600d0180548351818402810184019094528084526060939283018282801561191157602002820191906000526020600020905b81546001600160a01b031681526001909101906020018083116118f3575b50505050509050919050565b8061192760045490565b8111156119475760405163347626dd60e21b8152600401610905906159d7565b61156682612ef9565b33600081815260036020526040812054909190801561198257604051630934f2c360e01b8152600401610905906159ae565b61198b84613193565b925060006119b2856101600151670de0b6b3a76400006119ab9190615a19565b601e612004565b9050803410156119ff57604080516379d3124b60e01b81526004810191909152600f60448201526e496e636f72726563742076616c756560881b6064820152346024820152608401610905565b611a07610ccd565b505050919050565b6000828152600260205260408120600c01805483908110611a3257611a32615ab3565b60009182526020909120600b909102016009015460ff169392505050565b600081815260026020908152604091829020600e01805483518184028101840190945280845260609392830182828015611911576020028201919060005260206000209081546001600160a01b031681526001909101906020018083116118f35750505050509050919050565b82611ac760045490565b811115611ae75760405163347626dd60e21b8152600401610905906159d7565b6000611af38585611a0f565b9050600681600b811115611b0957611b0961534e565b1115611b4b5760405163b4644dd960e01b815260206004820152601060248201526f1d5b98589b19481d1bc81cdd589b5a5d60821b6044820152606401610905565b611b568585856131e2565b5050505050565b606060026000838152602001908152602001600020600c01805480602002602001604051908101604052809291908181526020016000905b82821015611e0357600084815260209020604080516101808101909152600b84029091018054829060a0820190839082908290611bd190615ac9565b80601f0160208091040260200160405190810160405280929190818152602001828054611bfd90615ac9565b8015611c4a5780601f10611c1f57610100808354040283529160200191611c4a565b820191906000526020600020905b815481529060010190602001808311611c2d57829003601f168201915b505050505081526020016001820154815260200160028201548152602001600382015481526020016004820154815260200160058201548152602001600682018054611c9590615ac9565b80601f0160208091040260200160405190810160405280929190818152602001828054611cc190615ac9565b8015611d0e5780601f10611ce357610100808354040283529160200191611d0e565b820191906000526020600020905b815481529060010190602001808311611cf157829003601f168201915b505050505081525050815260200160078201548152602001600882018054611d3590615ac9565b80601f0160208091040260200160405190810160405280929190818152602001828054611d6190615ac9565b8015611dae5780601f10611d8357610100808354040283529160200191611dae565b820191906000526020600020905b815481529060010190602001808311611d9157829003601f168201915b5050509183525050600982015460209091019060ff16600b811115611dd557611dd561534e565b600b811115611de657611de661534e565b8152602001600a8201548152505081526020019060010190611b95565b505050509050919050565b611e16614bf2565b81611e2060045490565b811115611e405760405163347626dd60e21b8152600401610905906159d7565b611e49836131ee565b91505b50919050565b611e5a612023565b6001600160a01b038116611ebf5760405162461bcd60e51b815260206004820152602660248201527f4f776e61626c653a206e6577206f776e657220697320746865207a65726f206160448201526564647265737360d01b6064820152608401610905565b6109f481612b9f565b81611ed260045490565b811115611ef25760405163347626dd60e21b8152600401610905906159d7565b600083815260026020526040902060150154839060ff16611f4b5760405163b4644dd960e01b815260206004820152601260248201527143616e27742072656365697665207461736b60701b6044820152606401610905565b336000818152600360205260409020548015611f7a57604051630934f2c360e01b8152600401610905906159ae565b611f8586863361393d565b7f8e913351aa76002e572cc432b46556976f6e10285b52f94909124ea8ebd0b7958686336001604051610c329493929190615a30565b611fc58282613cff565b7f9096640c11bd5636ced741c9725e5ff774b334455c80e15491f15bb3af0bc265338383604051611ff893929190615b29565b60405180910390a15050565b600060646120128484613f0b565b61201c9190615c39565b9392505050565b6000546001600160a01b031633146112155760405162461bcd60e51b815260206004820181905260248201527f4f776e61626c653a2063616c6c6572206973206e6f7420746865206f776e65726044820152606401610905565b60008181526002602052604090819020601501805462ff000019166206000017905551600080516020615eab83398151915290610d569083906006903390615c5b565b60008215612138576120d58686338786613f17565b6000868152600260205260409020600a0154610100900460ff168015612106576120ff87866111c6565b915061211b565b6000878152600260205260409020600b015491505b6121306119ab83670de0b6b3a7640000615a19565b915050612149565b61214586868660016140b8565b5060005b95945050505050565b804710156121a25760405162461bcd60e51b815260206004820152601e60248201527f5468652062616c616e6365206973206e6f742073756666696369656e742e00006044820152606401610905565b6000826001600160a01b03168260405160006040518083038185875af1925050503d80600081146121ef576040519150601f19603f3d011682016040523d82523d6000602084013e6121f4565b606091505b50509050806122155760405162461bcd60e51b815260040161090590615a6a565b600080516020615ecb83398151915230848460405161223693929190615a8f565b60405180910390a1505050565b6001546000906001600160a01b031661226483670de0b6b3a7640000615a19565b604051600081818185875af1925050503d80600081146122a0576040519150601f19603f3d011682016040523d82523d6000602084013e6122a5565b606091505b50509050806122c65760405162461bcd60e51b815260040161090590615a6a565b600080516020615ecb833981519152303347604051611ff893929190615a8f565b6000606060006122f98585600061156b565b8151919350915060000361231257600092505050610a1e565b612321858584600460006142ad565b6000858152600260205260408120600a0154610100900460ff16156123b55760005b83518110156123af57612355876131ee565b6101a0015184828151811061236c5761236c615ab3565b60200260200101518151811061238457612384615ab3565b6020026020010151602001518261239b9190615b16565b9150806123a781615afd565b915050612343565b506123c6565b6123be866131ee565b610180015190505b600073__$8469f371857cf64c5ca01bf5592dff173e$__634f6ca3ce6123eb84612b85565b6040518263ffffffff1660e01b815260040161240991815260200190565b602060405180830381865af4158015612426573d6000803e3d6000fd5b505050506040513d601f19601f8201168201806040525081019061244a9190615c88565b604051639ce5c4bf60e01b8152600481018590526024810182905290915060009073__$8469f371857cf64c5ca01bf5592dff173e$__90639ce5c4bf90604401602060405180830381865af41580156124a7573d6000803e3d6000fd5b505050506040513d601f19601f820116820180604052508101906124cb9190615c88565b98975050505050505050565b6001600160a01b038216600090815260036020526040812080548392906124ff908490615b16565b90915550505050565b60008381526002602090815260408083206001600160a01b0385168452601001909152812080549091036125715760008481526002602090815260408220600e01805460018101825590835291200180546001600160a01b0319166001600160a01b0384161790555b6000805b84518110156127e15760026000878152602001908152602001600020600c018582815181106125a6576125a6615ab3565b6020026020010151815481106125be576125be615ab3565b6000918252602082206009600b90920201015460ff16925082600b8111156125e8576125e861534e565b036126b057600160026000888152602001908152602001600020600c0186838151811061261757612617615ab3565b60200260200101518154811061262f5761262f615ab3565b90600052602060002090600b020160090160006101000a81548160ff0219169083600b8111156126615761266161534e565b0217905550600080516020615e8b8339815191528686838151811061268857612688615ab3565b60200260200101516001336040516126a39493929190615ca1565b60405180910390a161279a565b600282600b8111156126c4576126c461534e565b0361277f57600360026000888152602001908152602001600020600c018683815181106126f3576126f3615ab3565b60200260200101518154811061270b5761270b615ab3565b90600052602060002090600b020160090160006101000a81548160ff0219169083600b81111561273d5761273d61534e565b0217905550600080516020615e8b8339815191528686838151811061276457612764615ab3565b60200260200101516003336040516126a39493929190615ca1565b816040516366f643a560e11b81526004016109059190615cd6565b826000018582815181106127b0576127b0615ab3565b60209081029190910181015182546001810184556000938452919092200155806127d981615afd565b915050612575565b5060008581526002602052604081206014018054916127ff83615afd565b919050555061280f8560006114e9565b15611b5657600085815260026020526040808220601501805461ff0019169055517f89bb035780742b4fe520972847d93db0618abd46516af218e10fd3479347b7e491612860918891903390615d0b565b60405180910390a16128738560016114e9565b156128cf57600085815260026020526040902060150180546003919062ff0000191662010000835b0217905550600080516020615eab833981519152856003336040516128c293929190615c5b565b60405180910390a1611b56565b60008581526002602052604090819020601501805462ff000019166201000017905551600080516020615eab833981519152906129129087906001903390615c5b565b60405180910390a15050505050565b6001600160a01b038216600090815260036020526040812080548392906124ff908490615d2a565b600154600160a01b900460ff16156129995760405162461bcd60e51b81526020600482015260136024820152722a3432903637b1b59034b9903637b1b5b2b21760691b6044820152606401610905565b6001805460ff60a01b1916600160a01b1790556040516000906001600160a01b0384169083908381818185875af1925050503d80600081146129f7576040519150601f19603f3d011682016040523d82523d6000602084013e6129fc565b606091505b5050905080612a1d5760405162461bcd60e51b815260040161090590615a6a565b600080516020615ecb833981519152338484604051612a3e93929190615a8f565b60405180910390a150506001805460ff60a01b1916905550565b600060606000612a6a8585600161156b565b81519193509150600003612a8357600092505050610a1e565b612a92858584600460016142ad565b6000858152600260205260408120600a0154610100900460ff1615612b265760005b8351811015612b2057612ac6876131ee565b6101a00151848281518110612add57612add615ab3565b602002602001015181518110612af557612af5615ab3565b60200260200101516020015182612b0c9190615b16565b915080612b1881615afd565b915050612ab4565b50612b37565b612b2f866131ee565b610180015190505b600073__$8469f371857cf64c5ca01bf5592dff173e$__634f6ca3ce6123eb8461447d565b8015612b7257612b6d84848461448a565b612b7f565b612b7f84848460006140b8565b50505050565b6000610a1e826024612004565b6000610a1e826018612004565b600080546001600160a01b038381166001600160a01b0319831681178455604051919092169283917f8be0079c531659141344cd1fd0a4f28419497f9722a3daafe3b4186f6b6457e09190a35050565b6001546040516000916001600160a01b03169047908381818185875af1925050503d8060008114612c3c576040519150601f19603f3d011682016040523d82523d6000602084013e612c41565b606091505b5050905080612c625760405162461bcd60e51b815260040161090590615a6a565b600080516020615ecb833981519152303347604051610d5693929190615a8f565b6000818152600260205260408120600d01546000612ca084611b5d565b9050612cad8460016114e9565b15612cbc575060019392505050565b81600003612cd757612ccd84614577565b5060009392505050565b8051826000612ce68284615c39565b90506000612cf3886118ae565b905060005b8551811015612e34576000868281518110612d1557612d15615ab3565b602002602001015160600151600b811115612d3257612d3261534e565b03612e225760005b87811015612e205783612d668b858481518110612d5957612d59615ab3565b60200260200101516109f7565b11612e0e57612d918a83858481518110612d8257612d82615ab3565b602002602001015160016145c2565b7fad65127436138b4afe97ef23baf28ed14a5fb09500ad117eb196cd3bdb3dbe9f8a83858481518110612dc657612dc6615ab3565b60200260200101516001604051612e01949392919093845260208401929092526001600160a01b031660408301521515606082015260800190565b60405180910390a1612e20565b80612e1881615afd565b915050612d3a565b505b80612e2c81615afd565b915050612cf8565b50612e3e88614577565b612e498860006114e9565b15612e5e57612e598860036146a9565b612e69565b612e698860026146a9565b506000979650505050505050565b6000828152600260205260409020600c018054600b919083908110612e9e57612e9e615ab3565b90600052602060002090600b020160090160006101000a81548160ff0219169083600b811115612ed057612ed061534e565b0217905550600080516020615e8b8339815191528282600b33604051611ff89493929190615ca1565b6000612f03612023565b6000828152600260205260408120600e810154600d909101549091612f2785611b5d565b9050612f348560006114e9565b15612f4457506001949350505050565b82158015612f5157508115155b15612f6a57612f5f85614701565b506000949350505050565b82158015612f76575081155b15612fc957612f848561474d565b60008581526002602052604081208054600b909101546001600160a01b039091169190612fb0906119ab565b9050612fbc8282612152565b5060009695505050505050565b8051836000612fd88284615c39565b90506000612fe589611a50565b905060005b855181101561314d57600086828151811061300757613007615ab3565b602002602001015160600151600b8111156130245761302461534e565b0361313b5760005b88811015613139578361307f8c85848151811061304b5761304b615ab3565b602002602001015160008281526002602090815260408083206001600160a01b038516845260100190915290205492915050565b11613127576130aa8b8385848151811061309b5761309b615ab3565b602002602001015160006145c2565b7fad65127436138b4afe97ef23baf28ed14a5fb09500ad117eb196cd3bdb3dbe9f8b838584815181106130df576130df615ab3565b6020026020010151600060405161311a949392919093845260208401929092526001600160a01b031660408301521515606082015260800190565b60405180910390a1613139565b8061313181615afd565b91505061302c565b505b8061314581615afd565b915050612fea565b5061315789614701565b6131628960016114e9565b15613177576131728960036146a9565b613182565b6131828960016146a9565b50505050600093505050505b919050565b60008061319f836147e4565b90507f9096640c11bd5636ced741c9725e5ff774b334455c80e15491f15bb3af0bc2653382856040516131d493929190615b29565b60405180910390a192915050565b61156683338484614a81565b6131f6614bf2565b6131fe614bf2565b6000838152600260208181526040832080546001600160a01b031685526001810154858301529286905281905201805461323790615ac9565b80601f016020809104026020016040519081016040528092919081815260200182805461326390615ac9565b80156132b05780601f10613285576101008083540402835291602001916132b0565b820191906000526020600020905b81548152906001019060200180831161329357829003601f168201915b5050505060408084019290925250600084815260026020522060030180546132d790615ac9565b80601f016020809104026020016040519081016040528092919081815260200182805461330390615ac9565b80156133505780601f1061332557610100808354040283529160200191613350565b820191906000526020600020905b81548152906001019060200180831161333357829003601f168201915b50505050506060820152600083815260026020818152604080842060048101546080870152600581015460a0870152600681015460c0870152938790529181526007909201805482518185028101850190935280835291929091908301828280156133da57602002820191906000526020600020905b8154815260200190600101908083116133c6575b505050505060e0820152600083815260026020818152604083206008810154610100808701919091526009820154610120870152600a82015460ff80821615156101408901529082900481161515610160880152600b83015461018088015260118301546102008801526012830154610220880152601383015461024088015260148301546102608801526015909201548083161515610280880152908104821615156102a0870152938790529190526102c08301916201000090041660078111156134a8576134a861534e565b908160078111156134bb576134bb61534e565b9052506000838152600260209081526040808320600c0180548251818502810185019093528083529193909284015b8282101561375857600084815260209020604080516101808101909152600b84029091018054829060a082019083908290829061352690615ac9565b80601f016020809104026020016040519081016040528092919081815260200182805461355290615ac9565b801561359f5780601f106135745761010080835404028352916020019161359f565b820191906000526020600020905b81548152906001019060200180831161358257829003601f168201915b5050505050815260200160018201548152602001600282015481526020016003820154815260200160048201548152602001600582015481526020016006820180546135ea90615ac9565b80601f016020809104026020016040519081016040528092919081815260200182805461361690615ac9565b80156136635780601f1061363857610100808354040283529160200191613663565b820191906000526020600020905b81548152906001019060200180831161364657829003601f168201915b50505050508152505081526020016007820154815260200160088201805461368a90615ac9565b80601f01602080910402602001604051908101604052809291908181526020018280546136b690615ac9565b80156137035780601f106136d857610100808354040283529160200191613703565b820191906000526020600020905b8154815290600101906020018083116136e657829003601f168201915b5050509183525050600982015460209091019060ff16600b81111561372a5761372a61534e565b600b81111561373b5761373b61534e565b8152602001600a82015481525050815260200190600101906134ea565b505050506101a08201526000838152600260205260408120600d810154600e909101549091826001600160401b0381111561379557613795614d21565b6040519080825280602002602001820160405280156137ce57816020015b6137bb614bc8565b8152602001906001900390816137b35790505b5090506000826001600160401b038111156137eb576137eb614d21565b60405190808252806020026020018201604052801561382457816020015b613811614bc8565b8152602001906001900390816138095790505b50905060005b848110156138a5576000888152600260205260409020600d018054613875918a918490811061385b5761385b615ab3565b6000918252602090912001546001600160a01b0316610d99565b83828151811061388757613887615ab3565b6020026020010181905250808061389d90615afd565b91505061382a565b5060005b83811015613924576000888152600260205260409020600e0180546138f4918a91849081106138da576138da615ab3565b6000918252602090912001546001600160a01b0316611217565b82828151811061390657613906615ab3565b6020026020010181905250808061391c90615afd565b9150506138a9565b506101c08501919091526101e084015250909392505050565b60008381526002602090815260408083206001600160a01b0385168452600f01909152812080549091036139a65760008481526002602090815260408220600d01805460018101825590835291200180546001600160a01b0319166001600160a01b0384161790555b6000805b8451811015613bfa5760026000878152602001908152602001600020600c018582815181106139db576139db615ab3565b6020026020010151815481106139f3576139f3615ab3565b6000918252602082206009600b90920201015460ff16925082600b811115613a1d57613a1d61534e565b03613ae4576002806000888152602001908152602001600020600c01868381518110613a4b57613a4b615ab3565b602002602001015181548110613a6357613a63615ab3565b90600052602060002090600b020160090160006101000a81548160ff0219169083600b811115613a9557613a9561534e565b0217905550600080516020615e8b83398151915286868381518110613abc57613abc615ab3565b6020026020010151600233604051613ad79493929190615ca1565b60405180910390a1613bb3565b600182600b811115613af857613af861534e565b0361277f57600360026000888152602001908152602001600020600c01868381518110613b2757613b27615ab3565b602002602001015181548110613b3f57613b3f615ab3565b90600052602060002090600b020160090160006101000a81548160ff0219169083600b811115613b7157613b7161534e565b0217905550600080516020615e8b83398151915286868381518110613b9857613b98615ab3565b6020026020010151600333604051613ad79493929190615ca1565b82600001858281518110613bc957613bc9615ab3565b6020908102919091018101518254600181018455600093845291909220015580613bf281615afd565b9150506139aa565b506000858152600260205260408120601301805491613c1883615afd565b9190505550613c288560016114e9565b15611b5657600085815260026020526040808220601501805460ff19169055517f0398fd552105b0090d73611ad526d12979f19b77a7f923343a85d8fd14a13a6791613c78918891903390615d0b565b60405180910390a1613c8b8560006114e9565b15613cb757600085815260026020526040902060150180546003919062ff00001916620100008361289b565b6000858152600260208190526040909120601501805462ff0000191662010000830217905550600080516020615eab8339815191528560023360405161291293929190615c5b565b6000828152600260208181526040909220835160018201559183015190820190613d299082615d83565b5060408201516003820190613d3e9082615d83565b50606082015160048201556080820151600582015560a0820151600682015560c08201518051613d78916007840191602090910190614cc1565b5060e08201516008820155610100808301516009830155610160830151600b830155610120830151600a8301805461014086015115801590940261ff00199315159390931661ffff1990911617919091179055613de057610180820151516011820155613de8565b600160118201555b60158101805460ff1916600117905560005b82610180015151811015612b7f5781600c018361018001518281518110613e2357613e23615ab3565b602090810291909101810151825460018101845560009384529190922082518051600b9093029091019182908190613e5b9082615d83565b506020820151600182015560408201516002820155606082015160038201556080820151600482015560a0820151600582015560c08201516006820190613ea29082615d83565b5050506020820151600782015560408201516008820190613ec39082615d83565b50606082015160098201805460ff1916600183600b811115613ee757613ee761534e565b0217905550608082015181600a015550508080613f0390615afd565b915050613dfa565b600061201c8284615a19565b60008581526002602090815260408083206001600160a01b0388168452600f81018352818420868552600190810190935292819020805460ff191660039081179091559051600080516020615eeb83398151915292613f7e928a928a928992913390615e42565b60405180910390a1600681600c018481548110613f9d57613f9d615ab3565b90600052602060002090600b020160090160006101000a81548160ff0219169083600b811115613fcf57613fcf61534e565b0217905550600080516020615e8b8339815191528684600633604051613ff89493929190615ca1565b60405180910390a14281600c01848154811061401657614016615ab3565b60009182526020808320600a600b9093020191909101929092556001600160a01b03861681526010830182526040808220868352600190810190935290200161405f8382615d83565b506001600160a01b038416600090815260108201602090815260408083208684526001908101909252808320805460ff19168317905551600080516020615eeb83398151915292610c32928a9289928992913390615e42565b80156141b75760008481526002602081815260408084206001600160a01b0388168552600f018252808420868552600190810190925292839020805460ff1916831790559151600080516020615eeb8339815191529261412092889288928892913390615e42565b60405180910390a16000848152600260205260409020600c018054600591908490811061414f5761414f615ab3565b90600052602060002090600b020160090160006101000a81548160ff0219169083600b8111156141815761418161534e565b0217905550600080516020615e8b83398151915284836005336040516141aa9493929190615ca1565b60405180910390a1612b7f565b60008481526002602081815260408084206001600160a01b03881685526010018252808420868552600101909152808320805460ff19168317905551600080516020615eeb8339815191529261421592889288928892913390615e42565b60405180910390a16000848152600260205260409020600c018054600791908490811061424457614244615ab3565b90600052602060002090600b020160090160006101000a81548160ff0219169083600b8111156142765761427661534e565b0217905550600080516020615e8b833981519152848360073360405161429f9493929190615ca1565b60405180910390a150505050565b801561439b5760005b83518110156143955760008681526002602090815260408083206001600160a01b0389168452600f019091528120855185926001909201919087908590811061430157614301615ab3565b6020908102919091018101518252810191909152604001600020805460ff191660018360048111156143355761433561534e565b0217905550600080516020615eeb833981519152868686848151811061435d5761435d615ab3565b60200260200101518660013360405161437b96959493929190615e42565b60405180910390a18061438d81615afd565b9150506142b6565b50611b56565b60005b83518110156109b95760008681526002602090815260408083206001600160a01b0389168452601001909152812085518592600190920191908790859081106143e9576143e9615ab3565b6020908102919091018101518252810191909152604001600020805460ff1916600183600481111561441d5761441d61534e565b0217905550600080516020615eeb833981519152868686848151811061444557614445615ab3565b60200260200101518660003360405161446396959493929190615e42565b60405180910390a18061447581615afd565b91505061439e565b6000610a1e826036612004565b60008381526002602090815260408083206001600160a01b03861684526010018252808320848452600101909152808220805460ff191660039081179091559051600080516020615eeb833981519152926144ed92879287928792913390615e42565b60405180910390a16000838152600260205260409020600c018054600891908390811061451c5761451c615ab3565b90600052602060002090600b020160090160006101000a81548160ff0219169083600b81111561454e5761454e61534e565b0217905550600080516020615e8b83398151915283826008336040516122369493929190615ca1565b600081815260026020526040808220601501805460ff19169055517f0398fd552105b0090d73611ad526d12979f19b77a7f923343a85d8fd14a13a6791610d56918491903390615d0b565b6000811561461d575060008481526002602081815260408084206001600160a01b0387168552600f810183528185208886526001018352908420888552929091526013018054919261461383615afd565b919050555061466c565b5060008481526002602081815260408084206001600160a01b03871685526010810183528185208886526001018352908420888552929091526014018054919261466683615afd565b91905055505b505060009283526002602090815260408085206001600160a01b039093168552600f90920181529083208054600181018255908452922090910155565b6000828152600260205260409020601501805482919062ff00001916620100008360078111156146db576146db61534e565b0217905550600080516020615eab833981519152828233604051611ff893929190615c5b565b600081815260026020526040808220601501805461ff0019169055517f89bb035780742b4fe520972847d93db0618abd46516af218e10fd3479347b7e491610d56918491903390615d0b565b60008181526002602052604090819020601501805462ff000019166205000017905551600080516020615eab833981519152906147909083906005903390615c5b565b60405180910390a1600081815260026020526040808220601501805461ff0019169055517f0398fd552105b0090d73611ad526d12979f19b77a7f923343a85d8fd14a13a6791610d56918491903390615d0b565b60048054600091826147f583615afd565b9091555050600454600090815260026020818152604090922080546001600160a01b031916331781558451600182015591840151908201906148379082615d83565b506040830151600382019061484c9082615d83565b50606083015160048201556080830151600582015560a0830151600682015560c08301518051614886916007840191602090910190614cc1565b5060e08301516008820155610100808401516009830155610160840151600b830155610120840151600a8301805461014087015115801590940261ff00199315159390931661ffff19909116179190911790556148f55761018083015151601182018190556012820155614904565b60016011820181905560128201555b60158101805461ffff191661010117905560005b83610180015151811015614a76576000846101800151828151811061493f5761493f615ab3565b602002602001015160600190600b81111561495c5761495c61534e565b9081600b81111561496f5761496f61534e565b8152505081600c01846101800151828151811061498e5761498e615ab3565b602090810291909101810151825460018101845560009384529190922082518051600b90930290910191829081906149c69082615d83565b506020820151600182015560408201516002820155606082015160038201556080820151600482015560a0820151600582015560c08201516006820190614a0d9082615d83565b5050506020820151600782015560408201516008820190614a2e9082615d83565b50606082015160098201805460ff1916600183600b811115614a5257614a5261534e565b0217905550608082015181600a015550508080614a6e90615afd565b915050614918565b505060045492915050565b6000848152600260205260409020600c810180546004919085908110614aa957614aa9615ab3565b90600052602060002090600b020160090160006101000a81548160ff0219169083600b811115614adb57614adb61534e565b0217905550600080516020615e8b8339815191528584600433604051614b049493929190615ca1565b60405180910390a14281600c018481548110614b2257614b22615ab3565b60009182526020808320600a600b9093020191909101929092556001600160a01b0386168152600f8301825260408082208683526001908101909352902001614b6b8382615d83565b506001600160a01b0384166000908152600f820160209081526040808320868452600190810190925291829020805460ff1916821790559051600080516020615eeb83398151915291612912918891889188919081903390615e42565b604051806060016040528060006001600160a01b0316815260200160608152602001606081525090565b604051806102e0016040528060006001600160a01b03168152602001600081526020016060815260200160608152602001600081526020016000815260200160008152602001606081526020016000815260200160008152602001600015158152602001600015158152602001600081526020016060815260200160608152602001606081526020016000815260200160008152602001600081526020016000815260200160001515815260200160001515815260200160006007811115614cbc57614cbc61534e565b905290565b828054828255906000526020600020908101928215614cfc579160200282015b82811115614cfc578251825591602001919060010190614ce1565b50614d08929150614d0c565b5090565b5b80821115614d085760008155600101614d0d565b634e487b7160e01b600052604160045260246000fd5b60405160a081016001600160401b0381118282101715614d5957614d59614d21565b60405290565b60405160e081016001600160401b0381118282101715614d5957614d59614d21565b6040516101a081016001600160401b0381118282101715614d5957614d59614d21565b604051601f8201601f191681016001600160401b0381118282101715614dcc57614dcc614d21565b604052919050565b600082601f830112614de557600080fd5b81356001600160401b03811115614dfe57614dfe614d21565b614e11601f8201601f1916602001614da4565b818152846020838601011115614e2657600080fd5b816020850160208301376000918101602001919091529392505050565b60006001600160401b03821115614e5c57614e5c614d21565b5060051b60200190565b600082601f830112614e7757600080fd5b81356020614e8c614e8783614e43565b614da4565b82815260059290921b84018101918181019086841115614eab57600080fd5b8286015b84811015614ec65780358352918301918301614eaf565b509695505050505050565b8035801515811461318e57600080fd5b8035600c811061318e57600080fd5b600082601f830112614f0157600080fd5b81356020614f11614e8783614e43565b82815260059290921b84018101918181019086841115614f3057600080fd5b8286015b84811015614ec65780356001600160401b0380821115614f5357600080fd5b90880190601f1960a0838c0382011215614f6c57600080fd5b614f74614d37565b8784013583811115614f8557600080fd5b840160e0818e0384011215614f9957600080fd5b614fa1614d5f565b92508881013584811115614fb457600080fd5b614fc28e8b83850101614dd4565b84525060408101358984015260608101356040840152608080820135606085015260a08201358185015260c082013560a085015260e08201358581111561500857600080fd5b6150168f8c83860101614dd4565b60c0860152509282526040850135898301526060850135928484111561503b57600080fd5b6150498e8b86890101614dd4565b6040840152615059818701614ee1565b606084015260a09590950135948201949094528652505050918301918301614f34565b60006101a0828403121561508f57600080fd5b615097614d81565b90508135815260208201356001600160401b03808211156150b757600080fd5b6150c385838601614dd4565b602084015260408401359150808211156150dc57600080fd5b6150e885838601614dd4565b6040840152606084013560608401526080840135608084015260a084013560a084015260c084013591508082111561511f57600080fd5b61512b85838601614e66565b60c084015260e0848101359084015261010080850135908401526101209150615155828501614ed1565b828401526101409150615169828501614ed1565b82840152610160915081840135828401526101809150818401358181111561519057600080fd5b61519c86828701614ef0565b8385015250505092915050565b600080604083850312156151bc57600080fd5b8235915060208301356001600160401b038111156151d957600080fd5b6151e58582860161507c565b9150509250929050565b80356001600160a01b038116811461318e57600080fd5b60006020828403121561521857600080fd5b61201c826151ef565b60006020828403121561523357600080fd5b5035919050565b6000806040838503121561524d57600080fd5b8235915061525d602084016151ef565b90509250929050565b600080600080600060a0868803121561527e57600080fd5b8535945061528e602087016151ef565b9350604086013592506152a360608701614ed1565b915060808601356001600160401b038111156152be57600080fd5b6152ca88828901614dd4565b9150509295509295909350565b600080604083850312156152ea57600080fd5b8235915060208301356001600160401b0381111561530757600080fd5b6151e585828601614e66565b600081518084526020808501945080840160005b8381101561534357815187529582019590820190600101615327565b509495945050505050565b634e487b7160e01b600052602160045260246000fd5b600581106153745761537461534e565b9052565b6000815180845260005b8181101561539e57602081850181015186830182015201615382565b506000602082860101526020601f19601f83011685010191505092915050565b60018060a01b03815116825260006020808301516060828601526153e56060860182615313565b9050604080850151868303828801528281518085528585019150858160051b860101868401935060005b8281101561545557601f19878303018452845161542d838251615364565b88015182890187905261544283880182615378565b958901959489019492505060010161540f565b509998505050505050505050565b60208152600061201c60208301846153be565b600080600080600060a0868803121561548e57600080fd5b8535945061549e602087016151ef565b9350604086013592506154b360608701614ed1565b91506154c1608087016151ef565b90509295509295909350565b600080604083850312156154e057600080fd5b50508035926020909101359150565b6000806040838503121561550257600080fd5b8235915061525d60208401614ed1565b60008060006060848603121561552757600080fd5b83359250615537602085016151ef565b915061554560408501614ed1565b90509250925092565b6040815260006155616040830185615313565b90508260208301529392505050565b6020808252825182820181905260009190848201906040850190845b818110156155b15783516001600160a01b03168352928401929184019160010161558c565b50909695505050505050565b6000602082840312156155cf57600080fd5b81356001600160401b038111156155e557600080fd5b610b328482850161507c565b600c81106153745761537461534e565b60208101610a1e82846155f1565b60008060006060848603121561562457600080fd5b833592506020840135915060408401356001600160401b0381111561564857600080fd5b61565486828701614dd4565b9150509250925092565b600081518084526020808501808196508360051b8101915082860160005b8581101561575a578284038952815160a08151818752805160e080848a01526156a96101808a0183615378565b91508983015160c081818c01526040915081850151838c015260609250828501516101008c01526080808601516101208d0152868601516101408d0152818601519650609f198c8603016101608d01526157038588615378565b96508c8801518d8d01528288015195508b8703838d01526157248787615378565b9650838801519550615738848d01876155f1565b968701519a90960199909952505050998601999450509084019060010161567c565b5091979650505050505050565b60208152600061201c602083018461565e565b600081518084526020808501808196508360051b8101915082860160005b8581101561575a5782840389526157b08483516153be565b98850198935090840190600101615798565b600881106153745761537461534e565b602081526157ec6020820183516001600160a01b03169052565b60208201516040820152600060408301516102e0806060850152615814610300850183615378565b91506060850151601f19808685030160808701526158328483615378565b9350608087015160a087015260a087015160c087015260c087015160e087015260e0870151915061010081878603018188015261586f8584615313565b90880151610120888101919091528801516101408089019190915288015190945091506101606158a28188018415159052565b87015191506101806158b78782018415159052565b808801519250506101a08281880152808801519250506101c08187860301818801526158e3858461565e565b9450808801519250506101e0818786030181880152615902858461577a565b945080880151925050610200818786030181880152615921858461577a565b908801516102208881019190915288015161024080890191909152880151610260808901919091528801516102808089019190915288015190945091506102a090506159708187018315159052565b86015190506102c06159858682018315159052565b8601519050615996858301826157c2565b5090949350505050565b60208101610a1e82846157c2565b6020808252600f908201526e756e706169642070656e616c74792160881b604082015260600190565b60208082526012908201527157726f6e6720696e6465782076616c75652160701b604082015260600190565b634e487b7160e01b600052601160045260246000fd5b8082028115828204841417610a1e57610a1e615a03565b848152608060208201526000615a496080830186615313565b6001600160a01b039490941660408301525090151560609091015292915050565b6020808252600b908201526a10d85b1b0819985a5b195960aa1b604082015260600190565b6001600160a01b039384168152919092166020820152604081019190915260600190565b634e487b7160e01b600052603260045260246000fd5b600181811c90821680615add57607f821691505b602082108103611e4c57634e487b7160e01b600052602260045260246000fd5b600060018201615b0f57615b0f615a03565b5060010190565b80820180821115610a1e57610a1e615a03565b60018060a01b03841681528260208201526060604082015281516060820152600060208301516101a0806080850152615b66610200850183615378565b91506040850151605f19808685030160a0870152615b848483615378565b9350606087015160c0870152608087015160e087015260a08701519150610100828188015260c08801519250610120828887030181890152615bc68685615313565b60e08a01516101408a810191909152928a0151610160808b0191909152918a015190965093509061018090615bfe828a018615159052565b8901511515948801949094528701516101c0870152918601518584039092016101e086015250615c2e828261565e565b979650505050505050565b600082615c5657634e487b7160e01b600052601260045260246000fd5b500490565b83815260608101615c6f60208301856157c2565b6001600160a01b03929092166040919091015292915050565b600060208284031215615c9a57600080fd5b5051919050565b8481526020810184905260808101615cbc60408301856155f1565b6001600160a01b0392909216606091909101529392505050565b60408082526010908201526f4572726f722066696c6520737461746560801b606082015260808101610a1e60208301846155f1565b92835290151560208301526001600160a01b0316604082015260600190565b81810381811115610a1e57610a1e615a03565b601f82111561156657600081815260208120601f850160051c81016020861015615d645750805b601f850160051c820191505b818110156109b957828155600101615d70565b81516001600160401b03811115615d9c57615d9c614d21565b615db081615daa8454615ac9565b84615d3d565b602080601f831160018114615de55760008415615dcd5750858301515b600019600386901b1c1916600185901b1785556109b9565b600085815260208120601f198616915b82811015615e1457888601518255948401946001909101908401615df5565b5085821015615e325787850151600019600388901b60f8161c191681555b5050505050600190811b01905550565b8681526001600160a01b0386811660208301526040820186905260c0820190615e6e6060840187615364565b841515608084015280841660a08401525097965050505050505056fe188fff7234f3bb35c4f436313ec14267725515e4ca367843cd416621a72fb8a3dea20a6d822b68d598b7ab4fd45418a7ca7b103f12d300bcc3b56a7b94d9ed33b37bd6f3ccfce130859d4569dc432409f423a7928e73eb5c5049a94e40f0c6484b906571b20f3dcdf826b53f3c66528e252b2eb87de3cb812f18e6859e119344a26469706673582212207e4325c67b5a47532e5cafa6d36f348ce5808c473bf454d2ae119e07e79c3dc564736f6c63430008110033",
			"opcodes": "PUSH1 0x80 PUSH1 0x40 MSTORE PUSH1 0x1 DUP1 SLOAD PUSH1 0x1 PUSH1 0x1 PUSH1 0xA0 SHL SUB NOT AND PUSH20 0x25CB30ACD1786E49177429318F26959681F9AABD OR SWAP1 SSTORE CALLVALUE DUP1 ISZERO PUSH3 0x37 JUMPI PUSH1 0x0 DUP1 REVERT JUMPDEST POP PUSH3 0x43 CALLER PUSH3 0x49 JUMP JUMPDEST PUSH3 0x99 JUMP JUMPDEST PUSH1 0x0 DUP1 SLOAD PUSH1 0x1 PUSH1 0x1 PUSH1 0xA0 SHL SUB DUP4 DUP2 AND PUSH1 0x1 PUSH1 0x1 PUSH1 0xA0 SHL SUB NOT DUP4 AND DUP2 OR DUP5 SSTORE PUSH1 0x40 MLOAD SWAP2 SWAP1 SWAP3 AND SWAP3 DUP4 SWAP2 PUSH32 0x8BE0079C531659141344CD1FD0A4F28419497F9722A3DAAFE3B4186F6B6457E0 SWAP2 SWAP1 LOG3 POP POP JUMP JUMPDEST PUSH2 0x5F40 DUP1 PUSH3 0xA9 PUSH1 0x0 CODECOPY PUSH1 0x0 RETURN INVALID PUSH1 0x80 PUSH1 0x40 MSTORE PUSH1 0x4 CALLDATASIZE LT PUSH2 0x253 JUMPI PUSH1 0x0 CALLDATALOAD PUSH1 0xE0 SHR DUP1 PUSH4 0x853828B6 GT PUSH2 0x138 JUMPI DUP1 PUSH4 0xAD607C72 GT PUSH2 0xB0 JUMPI DUP1 PUSH4 0xD2FED69C GT PUSH2 0x77 JUMPI DUP1 PUSH4 0xD2FED69C EQ PUSH2 0x7BA JUMPI DUP1 PUSH4 0xD3D7BC3B EQ PUSH2 0x7EA JUMPI DUP1 PUSH4 0xF2FDE38B EQ PUSH2 0x820 JUMPI DUP1 PUSH4 0xF8626EBB EQ PUSH2 0x840 JUMPI DUP1 PUSH4 0xFA4C6473 EQ PUSH2 0x870 JUMPI DUP1 PUSH4 0xFFCCE776 EQ PUSH2 0x890 JUMPI STOP JUMPDEST DUP1 PUSH4 0xAD607C72 EQ PUSH2 0x6F3 JUMPI DUP1 PUSH4 0xB647EEC3 EQ PUSH2 0x720 JUMPI DUP1 PUSH4 0xBB0C38C0 EQ PUSH2 0x740 JUMPI DUP1 PUSH4 0xCF8F4BE2 EQ PUSH2 0x760 JUMPI DUP1 PUSH4 0xD1A1B999 EQ PUSH2 0x78D JUMPI STOP JUMPDEST DUP1 PUSH4 0x9722F099 GT PUSH2 0xFF JUMPI DUP1 PUSH4 0x9722F099 EQ PUSH2 0x62B JUMPI DUP1 PUSH4 0x97601EFB EQ PUSH2 0x65E JUMPI DUP1 PUSH4 0x983A12A8 EQ PUSH2 0x67E JUMPI DUP1 PUSH4 0xA55AF701 EQ PUSH2 0x6AB JUMPI DUP1 PUSH4 0xA87D942C EQ PUSH2 0x6CB JUMPI DUP1 PUSH4 0xAC35CD61 EQ PUSH2 0x6E0 JUMPI STOP JUMPDEST DUP1 PUSH4 0x853828B6 EQ PUSH2 0x58A JUMPI DUP1 PUSH4 0x8A9A9FF3 EQ PUSH2 0x59F JUMPI DUP1 PUSH4 0x8ADC74A5 EQ PUSH2 0x5BF JUMPI DUP1 PUSH4 0x8B3F3A6F EQ PUSH2 0x5DF JUMPI DUP1 PUSH4 0x8DA5CB5B EQ PUSH2 0x60D JUMPI STOP JUMPDEST DUP1 PUSH4 0x546677AA GT PUSH2 0x1CB JUMPI DUP1 PUSH4 0x64A1ED07 GT PUSH2 0x192 JUMPI DUP1 PUSH4 0x64A1ED07 EQ PUSH2 0x486 JUMPI DUP1 PUSH4 0x6E973982 EQ PUSH2 0x4A6 JUMPI DUP1 PUSH4 0x715018A6 EQ PUSH2 0x4D6 JUMPI DUP1 PUSH4 0x790485F9 EQ PUSH2 0x4EB JUMPI DUP1 PUSH4 0x7C34EB85 EQ PUSH2 0x532 JUMPI DUP1 PUSH4 0x7C35BEB7 EQ PUSH2 0x56A JUMPI STOP JUMPDEST DUP1 PUSH4 0x546677AA EQ PUSH2 0x390 JUMPI DUP1 PUSH4 0x5B0EF140 EQ PUSH2 0x3D8 JUMPI DUP1 PUSH4 0x5BF608B8 EQ PUSH2 0x3F8 JUMPI DUP1 PUSH4 0x5FED5EB2 EQ PUSH2 0x446 JUMPI DUP1 PUSH4 0x627A62F3 EQ PUSH2 0x473 JUMPI STOP JUMPDEST DUP1 PUSH4 0x243634BF GT PUSH2 0x21A JUMPI DUP1 PUSH4 0x243634BF EQ PUSH2 0x2F5 JUMPI DUP1 PUSH4 0x2E1A7D4D EQ PUSH2 0x315 JUMPI DUP1 PUSH4 0x36D61AE0 EQ PUSH2 0x335 JUMPI DUP1 PUSH4 0x3BD14E13 EQ PUSH2 0x355 JUMPI DUP1 PUSH4 0x3EDFA229 EQ PUSH2 0x375 JUMPI DUP1 PUSH4 0x460968DD EQ PUSH2 0x388 JUMPI STOP JUMPDEST DUP1 PUSH4 0x9A02F58 EQ PUSH2 0x25C JUMPI DUP1 PUSH4 0xCA23438 EQ PUSH2 0x26F JUMPI DUP1 PUSH4 0x1201DFC6 EQ PUSH2 0x28F JUMPI DUP1 PUSH4 0x193620E7 EQ PUSH2 0x2AF JUMPI DUP1 PUSH4 0x22968885 EQ PUSH2 0x2E2 JUMPI STOP JUMPDEST CALLDATASIZE PUSH2 0x25A JUMPI STOP JUMPDEST STOP JUMPDEST PUSH2 0x25A PUSH2 0x26A CALLDATASIZE PUSH1 0x4 PUSH2 0x51A9 JUMP JUMPDEST PUSH2 0x8D6 JUMP JUMPDEST CALLVALUE DUP1 ISZERO PUSH2 0x27B JUMPI PUSH1 0x0 DUP1 REVERT JUMPDEST POP PUSH2 0x25A PUSH2 0x28A CALLDATASIZE PUSH1 0x4 PUSH2 0x5206 JUMP JUMPDEST PUSH2 0x9C1 JUMP JUMPDEST CALLVALUE DUP1 ISZERO PUSH2 0x29B JUMPI PUSH1 0x0 DUP1 REVERT JUMPDEST POP PUSH2 0x25A PUSH2 0x2AA CALLDATASIZE PUSH1 0x4 PUSH2 0x5221 JUMP JUMPDEST PUSH2 0x9EB JUMP JUMPDEST CALLVALUE DUP1 ISZERO PUSH2 0x2BB JUMPI PUSH1 0x0 DUP1 REVERT JUMPDEST POP PUSH2 0x2CF PUSH2 0x2CA CALLDATASIZE PUSH1 0x4 PUSH2 0x523A JUMP JUMPDEST PUSH2 0x9F7 JUMP JUMPDEST PUSH1 0x40 MLOAD SWAP1 DUP2 MSTORE PUSH1 0x20 ADD JUMPDEST PUSH1 0x40 MLOAD DUP1 SWAP2 SUB SWAP1 RETURN JUMPDEST CALLVALUE DUP1 ISZERO PUSH2 0x2EE JUMPI PUSH1 0x0 DUP1 REVERT JUMPDEST POP SELFBALANCE PUSH2 0x2CF JUMP JUMPDEST CALLVALUE DUP1 ISZERO PUSH2 0x301 JUMPI PUSH1 0x0 DUP1 REVERT JUMPDEST POP PUSH2 0x25A PUSH2 0x310 CALLDATASIZE PUSH1 0x4 PUSH2 0x5266 JUMP JUMPDEST PUSH2 0xA24 JUMP JUMPDEST CALLVALUE DUP1 ISZERO PUSH2 0x321 JUMPI PUSH1 0x0 DUP1 REVERT JUMPDEST POP PUSH2 0x25A PUSH2 0x330 CALLDATASIZE PUSH1 0x4 PUSH2 0x5221 JUMP JUMPDEST PUSH2 0xADD JUMP JUMPDEST CALLVALUE DUP1 ISZERO PUSH2 0x341 JUMPI PUSH1 0x0 DUP1 REVERT JUMPDEST POP PUSH2 0x2CF PUSH2 0x350 CALLDATASIZE PUSH1 0x4 PUSH2 0x523A JUMP JUMPDEST PUSH2 0xAEE JUMP JUMPDEST CALLVALUE DUP1 ISZERO PUSH2 0x361 JUMPI PUSH1 0x0 DUP1 REVERT JUMPDEST POP PUSH2 0x25A PUSH2 0x370 CALLDATASIZE PUSH1 0x4 PUSH2 0x52D7 JUMP JUMPDEST PUSH2 0xB3A JUMP JUMPDEST PUSH2 0x25A PUSH2 0x383 CALLDATASIZE PUSH1 0x4 PUSH2 0x5206 JUMP JUMPDEST PUSH2 0xC42 JUMP JUMPDEST PUSH2 0x25A PUSH2 0xCCD JUMP JUMPDEST CALLVALUE DUP1 ISZERO PUSH2 0x39C JUMPI PUSH1 0x0 DUP1 REVERT JUMPDEST POP PUSH2 0x3C8 PUSH2 0x3AB CALLDATASIZE PUSH1 0x4 PUSH2 0x5221 JUMP JUMPDEST PUSH1 0x0 SWAP1 DUP2 MSTORE PUSH1 0x2 PUSH1 0x20 MSTORE PUSH1 0x40 SWAP1 KECCAK256 PUSH1 0x15 ADD SLOAD PUSH2 0x100 SWAP1 DIV PUSH1 0xFF AND SWAP1 JUMP JUMPDEST PUSH1 0x40 MLOAD SWAP1 ISZERO ISZERO DUP2 MSTORE PUSH1 0x20 ADD PUSH2 0x2D9 JUMP JUMPDEST CALLVALUE DUP1 ISZERO PUSH2 0x3E4 JUMPI PUSH1 0x0 DUP1 REVERT JUMPDEST POP PUSH2 0x2CF PUSH2 0x3F3 CALLDATASIZE PUSH1 0x4 PUSH2 0x523A JUMP JUMPDEST PUSH2 0xD61 JUMP JUMPDEST CALLVALUE DUP1 ISZERO PUSH2 0x404 JUMPI PUSH1 0x0 DUP1 REVERT JUMPDEST POP PUSH2 0x42E PUSH2 0x413 CALLDATASIZE PUSH1 0x4 PUSH2 0x5221 JUMP JUMPDEST PUSH1 0x0 SWAP1 DUP2 MSTORE PUSH1 0x2 PUSH1 0x20 MSTORE PUSH1 0x40 SWAP1 KECCAK256 SLOAD PUSH1 0x1 PUSH1 0x1 PUSH1 0xA0 SHL SUB AND SWAP1 JUMP JUMPDEST PUSH1 0x40 MLOAD PUSH1 0x1 PUSH1 0x1 PUSH1 0xA0 SHL SUB SWAP1 SWAP2 AND DUP2 MSTORE PUSH1 0x20 ADD PUSH2 0x2D9 JUMP JUMPDEST CALLVALUE DUP1 ISZERO PUSH2 0x452 JUMPI PUSH1 0x0 DUP1 REVERT JUMPDEST POP PUSH2 0x466 PUSH2 0x461 CALLDATASIZE PUSH1 0x4 PUSH2 0x523A JUMP JUMPDEST PUSH2 0xD99 JUMP JUMPDEST PUSH1 0x40 MLOAD PUSH2 0x2D9 SWAP2 SWAP1 PUSH2 0x5463 JUMP JUMPDEST PUSH2 0x25A PUSH2 0x481 CALLDATASIZE PUSH1 0x4 PUSH2 0x5476 JUMP JUMPDEST PUSH2 0x1068 JUMP JUMPDEST CALLVALUE DUP1 ISZERO PUSH2 0x492 JUMPI PUSH1 0x0 DUP1 REVERT JUMPDEST POP PUSH2 0x2CF PUSH2 0x4A1 CALLDATASIZE PUSH1 0x4 PUSH2 0x54CD JUMP JUMPDEST PUSH2 0x11C6 JUMP JUMPDEST CALLVALUE DUP1 ISZERO PUSH2 0x4B2 JUMPI PUSH1 0x0 DUP1 REVERT JUMPDEST POP PUSH2 0x2CF PUSH2 0x4C1 CALLDATASIZE PUSH1 0x4 PUSH2 0x5221 JUMP JUMPDEST PUSH1 0x0 SWAP1 DUP2 MSTORE PUSH1 0x2 PUSH1 0x20 MSTORE PUSH1 0x40 SWAP1 KECCAK256 PUSH1 0xB ADD SLOAD SWAP1 JUMP JUMPDEST CALLVALUE DUP1 ISZERO PUSH2 0x4E2 JUMPI PUSH1 0x0 DUP1 REVERT JUMPDEST POP PUSH2 0x25A PUSH2 0x1203 JUMP JUMPDEST CALLVALUE DUP1 ISZERO PUSH2 0x4F7 JUMPI PUSH1 0x0 DUP1 REVERT JUMPDEST POP PUSH2 0x2CF PUSH2 0x506 CALLDATASIZE PUSH1 0x4 PUSH2 0x523A JUMP JUMPDEST PUSH1 0x0 DUP3 DUP2 MSTORE PUSH1 0x2 PUSH1 0x20 SWAP1 DUP2 MSTORE PUSH1 0x40 DUP1 DUP4 KECCAK256 PUSH1 0x1 PUSH1 0x1 PUSH1 0xA0 SHL SUB DUP6 AND DUP5 MSTORE PUSH1 0x10 ADD SWAP1 SWAP2 MSTORE SWAP1 KECCAK256 SLOAD SWAP3 SWAP2 POP POP JUMP JUMPDEST CALLVALUE DUP1 ISZERO PUSH2 0x53E JUMPI PUSH1 0x0 DUP1 REVERT JUMPDEST POP PUSH2 0x3C8 PUSH2 0x54D CALLDATASIZE PUSH1 0x4 PUSH2 0x5221 JUMP JUMPDEST PUSH1 0x0 SWAP1 DUP2 MSTORE PUSH1 0x2 PUSH1 0x20 MSTORE PUSH1 0x40 SWAP1 KECCAK256 PUSH1 0xA ADD SLOAD PUSH2 0x100 SWAP1 DIV PUSH1 0xFF AND SWAP1 JUMP JUMPDEST CALLVALUE DUP1 ISZERO PUSH2 0x576 JUMPI PUSH1 0x0 DUP1 REVERT JUMPDEST POP PUSH2 0x466 PUSH2 0x585 CALLDATASIZE PUSH1 0x4 PUSH2 0x523A JUMP JUMPDEST PUSH2 0x1217 JUMP JUMPDEST CALLVALUE DUP1 ISZERO PUSH2 0x596 JUMPI PUSH1 0x0 DUP1 REVERT JUMPDEST POP PUSH2 0x25A PUSH2 0x14D9 JUMP JUMPDEST CALLVALUE DUP1 ISZERO PUSH2 0x5AB JUMPI PUSH1 0x0 DUP1 REVERT JUMPDEST POP PUSH2 0x3C8 PUSH2 0x5BA CALLDATASIZE PUSH1 0x4 PUSH2 0x54EF JUMP JUMPDEST PUSH2 0x14E9 JUMP JUMPDEST CALLVALUE DUP1 ISZERO PUSH2 0x5CB JUMPI PUSH1 0x0 DUP1 REVERT JUMPDEST POP PUSH2 0x25A PUSH2 0x5DA CALLDATASIZE PUSH1 0x4 PUSH2 0x5221 JUMP JUMPDEST PUSH2 0x1533 JUMP JUMPDEST CALLVALUE DUP1 ISZERO PUSH2 0x5EB JUMPI PUSH1 0x0 DUP1 REVERT JUMPDEST POP PUSH2 0x5FF PUSH2 0x5FA CALLDATASIZE PUSH1 0x4 PUSH2 0x5512 JUMP JUMPDEST PUSH2 0x156B JUMP JUMPDEST PUSH1 0x40 MLOAD PUSH2 0x2D9 SWAP3 SWAP2 SWAP1 PUSH2 0x554E JUMP JUMPDEST CALLVALUE DUP1 ISZERO PUSH2 0x619 JUMPI PUSH1 0x0 DUP1 REVERT JUMPDEST POP PUSH1 0x0 SLOAD PUSH1 0x1 PUSH1 0x1 PUSH1 0xA0 SHL SUB AND PUSH2 0x42E JUMP JUMPDEST CALLVALUE DUP1 ISZERO PUSH2 0x637 JUMPI PUSH1 0x0 DUP1 REVERT JUMPDEST POP PUSH2 0x3C8 PUSH2 0x646 CALLDATASIZE PUSH1 0x4 PUSH2 0x5221 JUMP JUMPDEST PUSH1 0x0 SWAP1 DUP2 MSTORE PUSH1 0x2 PUSH1 0x20 MSTORE PUSH1 0x40 SWAP1 KECCAK256 PUSH1 0x15 ADD SLOAD PUSH1 0xFF AND SWAP1 JUMP JUMPDEST CALLVALUE DUP1 ISZERO PUSH2 0x66A JUMPI PUSH1 0x0 DUP1 REVERT JUMPDEST POP PUSH2 0x25A PUSH2 0x679 CALLDATASIZE PUSH1 0x4 PUSH2 0x54CD JUMP JUMPDEST PUSH2 0x18A0 JUMP JUMPDEST CALLVALUE DUP1 ISZERO PUSH2 0x68A JUMPI PUSH1 0x0 DUP1 REVERT JUMPDEST POP PUSH2 0x69E PUSH2 0x699 CALLDATASIZE PUSH1 0x4 PUSH2 0x5221 JUMP JUMPDEST PUSH2 0x18AE JUMP JUMPDEST PUSH1 0x40 MLOAD PUSH2 0x2D9 SWAP2 SWAP1 PUSH2 0x5570 JUMP JUMPDEST CALLVALUE DUP1 ISZERO PUSH2 0x6B7 JUMPI PUSH1 0x0 DUP1 REVERT JUMPDEST POP PUSH2 0x25A PUSH2 0x6C6 CALLDATASIZE PUSH1 0x4 PUSH2 0x5221 JUMP JUMPDEST PUSH2 0x191D JUMP JUMPDEST CALLVALUE DUP1 ISZERO PUSH2 0x6D7 JUMPI PUSH1 0x0 DUP1 REVERT JUMPDEST POP PUSH1 0x4 SLOAD PUSH2 0x2CF JUMP JUMPDEST PUSH2 0x2CF PUSH2 0x6EE CALLDATASIZE PUSH1 0x4 PUSH2 0x55BD JUMP JUMPDEST PUSH2 0x1950 JUMP JUMPDEST CALLVALUE DUP1 ISZERO PUSH2 0x6FF JUMPI PUSH1 0x0 DUP1 REVERT JUMPDEST POP PUSH2 0x713 PUSH2 0x70E CALLDATASIZE PUSH1 0x4 PUSH2 0x54CD JUMP JUMPDEST PUSH2 0x1A0F JUMP JUMPDEST PUSH1 0x40 MLOAD PUSH2 0x2D9 SWAP2 SWAP1 PUSH2 0x5601 JUMP JUMPDEST CALLVALUE DUP1 ISZERO PUSH2 0x72C JUMPI PUSH1 0x0 DUP1 REVERT JUMPDEST POP PUSH2 0x69E PUSH2 0x73B CALLDATASIZE PUSH1 0x4 PUSH2 0x5221 JUMP JUMPDEST PUSH2 0x1A50 JUMP JUMPDEST CALLVALUE DUP1 ISZERO PUSH2 0x74C JUMPI PUSH1 0x0 DUP1 REVERT JUMPDEST POP PUSH2 0x25A PUSH2 0x75B CALLDATASIZE PUSH1 0x4 PUSH2 0x560F JUMP JUMPDEST PUSH2 0x1ABD JUMP JUMPDEST CALLVALUE DUP1 ISZERO PUSH2 0x76C JUMPI PUSH1 0x0 DUP1 REVERT JUMPDEST POP PUSH2 0x780 PUSH2 0x77B CALLDATASIZE PUSH1 0x4 PUSH2 0x5221 JUMP JUMPDEST PUSH2 0x1B5D JUMP JUMPDEST PUSH1 0x40 MLOAD PUSH2 0x2D9 SWAP2 SWAP1 PUSH2 0x5767 JUMP JUMPDEST CALLVALUE DUP1 ISZERO PUSH2 0x799 JUMPI PUSH1 0x0 DUP1 REVERT JUMPDEST POP PUSH2 0x7AD PUSH2 0x7A8 CALLDATASIZE PUSH1 0x4 PUSH2 0x5221 JUMP JUMPDEST PUSH2 0x1E0E JUMP JUMPDEST PUSH1 0x40 MLOAD PUSH2 0x2D9 SWAP2 SWAP1 PUSH2 0x57D2 JUMP JUMPDEST CALLVALUE DUP1 ISZERO PUSH2 0x7C6 JUMPI PUSH1 0x0 DUP1 REVERT JUMPDEST POP PUSH2 0x2CF PUSH2 0x7D5 CALLDATASIZE PUSH1 0x4 PUSH2 0x5221 JUMP JUMPDEST PUSH1 0x0 SWAP1 DUP2 MSTORE PUSH1 0x2 PUSH1 0x20 MSTORE PUSH1 0x40 SWAP1 KECCAK256 PUSH1 0xD ADD SLOAD SWAP1 JUMP JUMPDEST CALLVALUE DUP1 ISZERO PUSH2 0x7F6 JUMPI PUSH1 0x0 DUP1 REVERT JUMPDEST POP PUSH2 0x2CF PUSH2 0x805 CALLDATASIZE PUSH1 0x4 PUSH2 0x5206 JUMP JUMPDEST PUSH1 0x1 PUSH1 0x1 PUSH1 0xA0 SHL SUB AND PUSH1 0x0 SWAP1 DUP2 MSTORE PUSH1 0x3 PUSH1 0x20 MSTORE PUSH1 0x40 SWAP1 KECCAK256 SLOAD SWAP1 JUMP JUMPDEST CALLVALUE DUP1 ISZERO PUSH2 0x82C JUMPI PUSH1 0x0 DUP1 REVERT JUMPDEST POP PUSH2 0x25A PUSH2 0x83B CALLDATASIZE PUSH1 0x4 PUSH2 0x5206 JUMP JUMPDEST PUSH2 0x1E52 JUMP JUMPDEST CALLVALUE DUP1 ISZERO PUSH2 0x84C JUMPI PUSH1 0x0 DUP1 REVERT JUMPDEST POP PUSH2 0x2CF PUSH2 0x85B CALLDATASIZE PUSH1 0x4 PUSH2 0x5221 JUMP JUMPDEST PUSH1 0x0 SWAP1 DUP2 MSTORE PUSH1 0x2 PUSH1 0x20 MSTORE PUSH1 0x40 SWAP1 KECCAK256 PUSH1 0xE ADD SLOAD SWAP1 JUMP JUMPDEST CALLVALUE DUP1 ISZERO PUSH2 0x87C JUMPI PUSH1 0x0 DUP1 REVERT JUMPDEST POP PUSH2 0x25A PUSH2 0x88B CALLDATASIZE PUSH1 0x4 PUSH2 0x52D7 JUMP JUMPDEST PUSH2 0x1EC8 JUMP JUMPDEST CALLVALUE DUP1 ISZERO PUSH2 0x89C JUMPI PUSH1 0x0 DUP1 REVERT JUMPDEST POP PUSH2 0x8C9 PUSH2 0x8AB CALLDATASIZE PUSH1 0x4 PUSH2 0x5221 JUMP JUMPDEST PUSH1 0x0 SWAP1 DUP2 MSTORE PUSH1 0x2 PUSH1 0x20 MSTORE PUSH1 0x40 SWAP1 KECCAK256 PUSH1 0x15 ADD SLOAD PUSH3 0x10000 SWAP1 DIV PUSH1 0xFF AND SWAP1 JUMP JUMPDEST PUSH1 0x40 MLOAD PUSH2 0x2D9 SWAP2 SWAP1 PUSH2 0x59A0 JUMP JUMPDEST CALLER PUSH1 0x0 DUP2 DUP2 MSTORE PUSH1 0x3 PUSH1 0x20 MSTORE PUSH1 0x40 SWAP1 KECCAK256 SLOAD DUP1 ISZERO PUSH2 0x90E JUMPI PUSH1 0x40 MLOAD PUSH4 0x934F2C3 PUSH1 0xE0 SHL DUP2 MSTORE PUSH1 0x4 ADD PUSH2 0x905 SWAP1 PUSH2 0x59AE JUMP JUMPDEST PUSH1 0x40 MLOAD DUP1 SWAP2 SUB SWAP1 REVERT JUMPDEST DUP4 PUSH2 0x918 PUSH1 0x4 SLOAD SWAP1 JUMP JUMPDEST DUP2 GT ISZERO PUSH2 0x938 JUMPI PUSH1 0x40 MLOAD PUSH4 0x347626DD PUSH1 0xE2 SHL DUP2 MSTORE PUSH1 0x4 ADD PUSH2 0x905 SWAP1 PUSH2 0x59D7 JUMP JUMPDEST PUSH2 0x942 DUP6 DUP6 PUSH2 0x1FBB JUMP JUMPDEST PUSH1 0x0 PUSH2 0x954 DUP6 PUSH2 0x160 ADD MLOAD PUSH1 0x1E PUSH2 0x2004 JUMP JUMPDEST SWAP1 POP PUSH2 0x968 DUP2 PUSH8 0xDE0B6B3A7640000 PUSH2 0x5A19 JUMP JUMPDEST CALLVALUE EQ PUSH2 0x9B1 JUMPI PUSH1 0x40 DUP1 MLOAD PUSH4 0x79D3124B PUSH1 0xE0 SHL DUP2 MSTORE PUSH1 0x4 DUP2 ADD SWAP2 SWAP1 SWAP2 MSTORE PUSH1 0xF PUSH1 0x44 DUP3 ADD MSTORE PUSH15 0x496E636F72726563742076616C7565 PUSH1 0x88 SHL PUSH1 0x64 DUP3 ADD MSTORE CALLVALUE PUSH1 0x24 DUP3 ADD MSTORE PUSH1 0x84 ADD PUSH2 0x905 JUMP JUMPDEST PUSH2 0x9B9 PUSH2 0xCCD JUMP JUMPDEST POP POP POP POP POP POP JUMP JUMPDEST PUSH2 0x9C9 PUSH2 0x2023 JUMP JUMPDEST PUSH1 0x1 DUP1 SLOAD PUSH1 0x1 PUSH1 0x1 PUSH1 0xA0 SHL SUB NOT AND PUSH1 0x1 PUSH1 0x1 PUSH1 0xA0 SHL SUB SWAP3 SWAP1 SWAP3 AND SWAP2 SWAP1 SWAP2 OR SWAP1 SSTORE JUMP JUMPDEST PUSH2 0x9F4 DUP2 PUSH2 0x207D JUMP JUMPDEST POP JUMP JUMPDEST PUSH1 0x0 DUP3 DUP2 MSTORE PUSH1 0x2 PUSH1 0x20 SWAP1 DUP2 MSTORE PUSH1 0x40 DUP1 DUP4 KECCAK256 PUSH1 0x1 PUSH1 0x1 PUSH1 0xA0 SHL SUB DUP6 AND DUP5 MSTORE PUSH1 0xF ADD SWAP1 SWAP2 MSTORE SWAP1 KECCAK256 SLOAD JUMPDEST SWAP3 SWAP2 POP POP JUMP JUMPDEST DUP5 PUSH2 0xA2E PUSH1 0x4 SLOAD SWAP1 JUMP JUMPDEST DUP2 GT ISZERO PUSH2 0xA4E JUMPI PUSH1 0x40 MLOAD PUSH4 0x347626DD PUSH1 0xE2 SHL DUP2 MSTORE PUSH1 0x4 ADD PUSH2 0x905 SWAP1 PUSH2 0x59D7 JUMP JUMPDEST PUSH1 0x0 PUSH2 0xA5A DUP8 DUP7 PUSH2 0x1A0F JUMP JUMPDEST SWAP1 POP PUSH1 0x7 DUP2 PUSH1 0xB DUP2 GT ISZERO PUSH2 0xA70 JUMPI PUSH2 0xA70 PUSH2 0x534E JUMP JUMPDEST GT ISZERO PUSH2 0xAB2 JUMPI PUSH1 0x40 MLOAD PUSH4 0xB4644DD9 PUSH1 0xE0 SHL DUP2 MSTORE PUSH1 0x20 PUSH1 0x4 DUP3 ADD MSTORE PUSH1 0x10 PUSH1 0x24 DUP3 ADD MSTORE PUSH16 0x1D5B98589B19481D1BC81CDD589B5A5D PUSH1 0x82 SHL PUSH1 0x44 DUP3 ADD MSTORE PUSH1 0x64 ADD PUSH2 0x905 JUMP JUMPDEST PUSH1 0x0 PUSH2 0xAC1 DUP9 DUP9 DUP9 DUP9 DUP9 PUSH2 0x20C0 JUMP JUMPDEST SWAP1 POP DUP1 ISZERO PUSH2 0xAD3 JUMPI PUSH2 0xAD3 DUP8 DUP3 PUSH2 0x2152 JUMP JUMPDEST POP POP POP POP POP POP POP POP JUMP JUMPDEST PUSH2 0xAE5 PUSH2 0x2023 JUMP JUMPDEST PUSH2 0x9F4 DUP2 PUSH2 0x2243 JUMP JUMPDEST PUSH1 0x0 DUP3 PUSH2 0xAFA PUSH1 0x4 SLOAD SWAP1 JUMP JUMPDEST DUP2 GT ISZERO PUSH2 0xB1A JUMPI PUSH1 0x40 MLOAD PUSH4 0x347626DD PUSH1 0xE2 SHL DUP2 MSTORE PUSH1 0x4 ADD PUSH2 0x905 SWAP1 PUSH2 0x59D7 JUMP JUMPDEST PUSH1 0x0 PUSH2 0xB26 DUP6 DUP6 PUSH2 0x22E7 JUMP JUMPDEST SWAP1 POP PUSH2 0xB32 DUP5 DUP3 PUSH2 0x24D7 JUMP JUMPDEST SWAP5 SWAP4 POP POP POP POP JUMP JUMPDEST DUP2 PUSH2 0xB44 PUSH1 0x4 SLOAD SWAP1 JUMP JUMPDEST DUP2 GT ISZERO PUSH2 0xB64 JUMPI PUSH1 0x40 MLOAD PUSH4 0x347626DD PUSH1 0xE2 SHL DUP2 MSTORE PUSH1 0x4 ADD PUSH2 0x905 SWAP1 PUSH2 0x59D7 JUMP JUMPDEST PUSH1 0x0 DUP4 DUP2 MSTORE PUSH1 0x2 PUSH1 0x20 MSTORE PUSH1 0x40 SWAP1 KECCAK256 PUSH1 0x15 ADD SLOAD DUP4 SWAP1 PUSH2 0x100 SWAP1 DIV PUSH1 0xFF AND PUSH2 0xBC2 JUMPI PUSH1 0x40 MLOAD PUSH4 0xB4644DD9 PUSH1 0xE0 SHL DUP2 MSTORE PUSH1 0x20 PUSH1 0x4 DUP3 ADD MSTORE PUSH1 0x12 PUSH1 0x24 DUP3 ADD MSTORE PUSH18 0x43616E27742072656365697665207461736B PUSH1 0x70 SHL PUSH1 0x44 DUP3 ADD MSTORE PUSH1 0x64 ADD PUSH2 0x905 JUMP JUMPDEST CALLER PUSH1 0x0 DUP2 DUP2 MSTORE PUSH1 0x3 PUSH1 0x20 MSTORE PUSH1 0x40 SWAP1 KECCAK256 SLOAD DUP1 ISZERO PUSH2 0xBF1 JUMPI PUSH1 0x40 MLOAD PUSH4 0x934F2C3 PUSH1 0xE0 SHL DUP2 MSTORE PUSH1 0x4 ADD PUSH2 0x905 SWAP1 PUSH2 0x59AE JUMP JUMPDEST PUSH2 0xBFC DUP7 DUP7 CALLER PUSH2 0x2508 JUMP JUMPDEST PUSH32 0x8E913351AA76002E572CC432B46556976F6E10285B52F94909124EA8EBD0B795 DUP7 DUP7 CALLER PUSH1 0x0 PUSH1 0x40 MLOAD PUSH2 0xC32 SWAP5 SWAP4 SWAP3 SWAP2 SWAP1 PUSH2 0x5A30 JUMP JUMPDEST PUSH1 0x40 MLOAD DUP1 SWAP2 SUB SWAP1 LOG1 POP POP POP POP POP POP JUMP JUMPDEST PUSH1 0x1 PUSH1 0x1 PUSH1 0xA0 SHL SUB DUP2 AND PUSH1 0x0 SWAP1 DUP2 MSTORE PUSH1 0x3 PUSH1 0x20 MSTORE PUSH1 0x40 SWAP1 KECCAK256 SLOAD PUSH2 0xC6D SWAP1 PUSH8 0xDE0B6B3A7640000 PUSH2 0x5A19 JUMP JUMPDEST CALLVALUE GT ISZERO PUSH2 0xCB9 JUMPI PUSH1 0x40 DUP1 MLOAD PUSH4 0x79D3124B PUSH1 0xE0 SHL DUP2 MSTORE PUSH1 0x4 DUP2 ADD SWAP2 SWAP1 SWAP2 MSTORE PUSH1 0x11 PUSH1 0x44 DUP3 ADD MSTORE PUSH17 0xECC2D8EACA40D2E640E8DEDE40D0D2CED PUSH1 0x7B SHL PUSH1 0x64 DUP3 ADD MSTORE CALLVALUE PUSH1 0x24 DUP3 ADD MSTORE PUSH1 0x84 ADD PUSH2 0x905 JUMP JUMPDEST PUSH2 0xCC3 DUP2 CALLVALUE PUSH2 0x2921 JUMP JUMPDEST PUSH2 0x9F4 DUP2 CALLVALUE PUSH2 0x2949 JUMP JUMPDEST PUSH1 0x40 MLOAD PUSH1 0x0 SWAP1 ADDRESS SWAP1 CALLVALUE SWAP1 DUP4 DUP2 DUP2 DUP2 DUP6 DUP8 GAS CALL SWAP3 POP POP POP RETURNDATASIZE DUP1 PUSH1 0x0 DUP2 EQ PUSH2 0xD0F JUMPI PUSH1 0x40 MLOAD SWAP2 POP PUSH1 0x1F NOT PUSH1 0x3F RETURNDATASIZE ADD AND DUP3 ADD PUSH1 0x40 MSTORE RETURNDATASIZE DUP3 MSTORE RETURNDATASIZE PUSH1 0x0 PUSH1 0x20 DUP5 ADD RETURNDATACOPY PUSH2 0xD14 JUMP JUMPDEST PUSH1 0x60 SWAP2 POP JUMPDEST POP POP SWAP1 POP DUP1 PUSH2 0xD35 JUMPI PUSH1 0x40 MLOAD PUSH3 0x461BCD PUSH1 0xE5 SHL DUP2 MSTORE PUSH1 0x4 ADD PUSH2 0x905 SWAP1 PUSH2 0x5A6A JUMP JUMPDEST PUSH1 0x0 DUP1 MLOAD PUSH1 0x20 PUSH2 0x5ECB DUP4 CODECOPY DUP2 MLOAD SWAP2 MSTORE CALLER ADDRESS CALLVALUE PUSH1 0x40 MLOAD PUSH2 0xD56 SWAP4 SWAP3 SWAP2 SWAP1 PUSH2 0x5A8F JUMP JUMPDEST PUSH1 0x40 MLOAD DUP1 SWAP2 SUB SWAP1 LOG1 POP JUMP JUMPDEST PUSH1 0x0 DUP3 PUSH2 0xD6D PUSH1 0x4 SLOAD SWAP1 JUMP JUMPDEST DUP2 GT ISZERO PUSH2 0xD8D JUMPI PUSH1 0x40 MLOAD PUSH4 0x347626DD PUSH1 0xE2 SHL DUP2 MSTORE PUSH1 0x4 ADD PUSH2 0x905 SWAP1 PUSH2 0x59D7 JUMP JUMPDEST PUSH1 0x0 PUSH2 0xB26 DUP6 DUP6 PUSH2 0x2A58 JUMP JUMPDEST PUSH2 0xDA1 PUSH2 0x4BC8 JUMP JUMPDEST PUSH2 0xDA9 PUSH2 0x4BC8 JUMP JUMPDEST PUSH1 0x1 PUSH1 0x1 PUSH1 0xA0 SHL SUB DUP4 AND DUP1 DUP3 MSTORE PUSH1 0x0 DUP6 DUP2 MSTORE PUSH1 0x2 PUSH1 0x20 SWAP1 DUP2 MSTORE PUSH1 0x40 DUP1 DUP4 KECCAK256 SWAP4 DUP4 MSTORE PUSH1 0xF SWAP1 SWAP4 ADD DUP2 MSTORE SWAP1 DUP3 SWAP1 KECCAK256 DUP1 SLOAD DUP4 MLOAD DUP2 DUP5 MUL DUP2 ADD DUP5 ADD SWAP1 SWAP5 MSTORE DUP1 DUP5 MSTORE SWAP1 SWAP2 DUP4 ADD DUP3 DUP3 DUP1 ISZERO PUSH2 0xE17 JUMPI PUSH1 0x20 MUL DUP3 ADD SWAP2 SWAP1 PUSH1 0x0 MSTORE PUSH1 0x20 PUSH1 0x0 KECCAK256 SWAP1 JUMPDEST DUP2 SLOAD DUP2 MSTORE PUSH1 0x20 ADD SWAP1 PUSH1 0x1 ADD SWAP1 DUP1 DUP4 GT PUSH2 0xE03 JUMPI JUMPDEST POP POP POP POP PUSH1 0x20 DUP4 ADD DUP3 SWAP1 MSTORE POP MLOAD PUSH1 0x0 SWAP1 PUSH1 0x1 PUSH1 0x1 PUSH1 0x40 SHL SUB DUP2 GT ISZERO PUSH2 0xE3E JUMPI PUSH2 0xE3E PUSH2 0x4D21 JUMP JUMPDEST PUSH1 0x40 MLOAD SWAP1 DUP1 DUP3 MSTORE DUP1 PUSH1 0x20 MUL PUSH1 0x20 ADD DUP3 ADD PUSH1 0x40 MSTORE DUP1 ISZERO PUSH2 0xE84 JUMPI DUP2 PUSH1 0x20 ADD JUMPDEST PUSH1 0x40 DUP1 MLOAD DUP1 DUP3 ADD SWAP1 SWAP2 MSTORE PUSH1 0x0 DUP2 MSTORE PUSH1 0x60 PUSH1 0x20 DUP3 ADD MSTORE DUP2 MSTORE PUSH1 0x20 ADD SWAP1 PUSH1 0x1 SWAP1 SUB SWAP1 DUP2 PUSH2 0xE5C JUMPI SWAP1 POP JUMPDEST POP SWAP1 POP PUSH1 0x0 JUMPDEST DUP3 PUSH1 0x20 ADD MLOAD MLOAD DUP2 LT ISZERO PUSH2 0x105B JUMPI PUSH1 0x0 DUP7 DUP2 MSTORE PUSH1 0x2 PUSH1 0x20 SWAP1 DUP2 MSTORE PUSH1 0x40 DUP1 DUP4 KECCAK256 PUSH1 0x1 PUSH1 0x1 PUSH1 0xA0 SHL SUB DUP10 AND DUP5 MSTORE PUSH1 0xF ADD DUP3 MSTORE DUP3 KECCAK256 SWAP1 DUP6 ADD MLOAD DUP1 MLOAD PUSH1 0x1 SWAP1 SWAP3 ADD SWAP3 SWAP2 DUP5 SWAP1 DUP2 LT PUSH2 0xED8 JUMPI PUSH2 0xED8 PUSH2 0x5AB3 JUMP JUMPDEST PUSH1 0x20 MUL PUSH1 0x20 ADD ADD MLOAD DUP2 MSTORE PUSH1 0x20 ADD SWAP1 DUP2 MSTORE PUSH1 0x20 ADD PUSH1 0x0 KECCAK256 PUSH1 0x0 ADD PUSH1 0x0 SWAP1 SLOAD SWAP1 PUSH2 0x100 EXP SWAP1 DIV PUSH1 0xFF AND DUP3 DUP3 DUP2 MLOAD DUP2 LT PUSH2 0xF11 JUMPI PUSH2 0xF11 PUSH2 0x5AB3 JUMP JUMPDEST PUSH1 0x20 MUL PUSH1 0x20 ADD ADD MLOAD PUSH1 0x0 ADD SWAP1 PUSH1 0x4 DUP2 GT ISZERO PUSH2 0xF2E JUMPI PUSH2 0xF2E PUSH2 0x534E JUMP JUMPDEST SWAP1 DUP2 PUSH1 0x4 DUP2 GT ISZERO PUSH2 0xF41 JUMPI PUSH2 0xF41 PUSH2 0x534E JUMP JUMPDEST SWAP1 MSTORE POP PUSH1 0x0 DUP7 DUP2 MSTORE PUSH1 0x2 PUSH1 0x20 SWAP1 DUP2 MSTORE PUSH1 0x40 DUP1 DUP4 KECCAK256 PUSH1 0x1 PUSH1 0x1 PUSH1 0xA0 SHL SUB DUP10 AND DUP5 MSTORE PUSH1 0xF ADD DUP3 MSTORE DUP3 KECCAK256 SWAP1 DUP6 ADD MLOAD DUP1 MLOAD PUSH1 0x1 SWAP1 SWAP3 ADD SWAP3 SWAP2 DUP5 SWAP1 DUP2 LT PUSH2 0xF85 JUMPI PUSH2 0xF85 PUSH2 0x5AB3 JUMP JUMPDEST PUSH1 0x20 MUL PUSH1 0x20 ADD ADD MLOAD DUP2 MSTORE PUSH1 0x20 ADD SWAP1 DUP2 MSTORE PUSH1 0x20 ADD PUSH1 0x0 KECCAK256 PUSH1 0x1 ADD DUP1 SLOAD PUSH2 0xFA9 SWAP1 PUSH2 0x5AC9 JUMP JUMPDEST DUP1 PUSH1 0x1F ADD PUSH1 0x20 DUP1 SWAP2 DIV MUL PUSH1 0x20 ADD PUSH1 0x40 MLOAD SWAP1 DUP2 ADD PUSH1 0x40 MSTORE DUP1 SWAP3 SWAP2 SWAP1 DUP2 DUP2 MSTORE PUSH1 0x20 ADD DUP3 DUP1 SLOAD PUSH2 0xFD5 SWAP1 PUSH2 0x5AC9 JUMP JUMPDEST DUP1 ISZERO PUSH2 0x1022 JUMPI DUP1 PUSH1 0x1F LT PUSH2 0xFF7 JUMPI PUSH2 0x100 DUP1 DUP4 SLOAD DIV MUL DUP4 MSTORE SWAP2 PUSH1 0x20 ADD SWAP2 PUSH2 0x1022 JUMP JUMPDEST DUP3 ADD SWAP2 SWAP1 PUSH1 0x0 MSTORE PUSH1 0x20 PUSH1 0x0 KECCAK256 SWAP1 JUMPDEST DUP2 SLOAD DUP2 MSTORE SWAP1 PUSH1 0x1 ADD SWAP1 PUSH1 0x20 ADD DUP1 DUP4 GT PUSH2 0x1005 JUMPI DUP3 SWAP1 SUB PUSH1 0x1F AND DUP3 ADD SWAP2 JUMPDEST POP POP POP POP POP DUP3 DUP3 DUP2 MLOAD DUP2 LT PUSH2 0x1039 JUMPI PUSH2 0x1039 PUSH2 0x5AB3 JUMP JUMPDEST PUSH1 0x20 MUL PUSH1 0x20 ADD ADD MLOAD PUSH1 0x20 ADD DUP2 SWAP1 MSTORE POP DUP1 DUP1 PUSH2 0x1053 SWAP1 PUSH2 0x5AFD JUMP JUMPDEST SWAP2 POP POP PUSH2 0xE8A JUMP JUMPDEST POP PUSH1 0x40 DUP3 ADD MSTORE SWAP4 SWAP3 POP POP POP JUMP JUMPDEST DUP5 PUSH2 0x1072 PUSH1 0x4 SLOAD SWAP1 JUMP JUMPDEST DUP2 GT ISZERO PUSH2 0x1092 JUMPI PUSH1 0x40 MLOAD PUSH4 0x347626DD PUSH1 0xE2 SHL DUP2 MSTORE PUSH1 0x4 ADD PUSH2 0x905 SWAP1 PUSH2 0x59D7 JUMP JUMPDEST PUSH1 0x0 DUP7 DUP2 MSTORE PUSH1 0x2 PUSH1 0x20 MSTORE PUSH1 0x40 DUP2 KECCAK256 PUSH1 0xA ADD SLOAD PUSH2 0x100 SWAP1 DIV PUSH1 0xFF AND ISZERO PUSH2 0x10C2 JUMPI PUSH2 0x10BB DUP8 DUP7 PUSH2 0x11C6 JUMP JUMPDEST SWAP1 POP PUSH2 0x10D6 JUMP JUMPDEST POP PUSH1 0x0 DUP7 DUP2 MSTORE PUSH1 0x2 PUSH1 0x20 MSTORE PUSH1 0x40 SWAP1 KECCAK256 PUSH1 0xB ADD SLOAD JUMPDEST PUSH2 0x10E2 DUP8 DUP8 DUP8 DUP8 PUSH2 0x2B5C JUMP JUMPDEST DUP4 ISZERO PUSH2 0x11BD JUMPI PUSH1 0x0 PUSH2 0x1106 PUSH2 0x10FF DUP4 PUSH8 0xDE0B6B3A7640000 PUSH2 0x5A19 JUMP JUMPDEST PUSH1 0x46 PUSH2 0x2004 JUMP JUMPDEST SWAP1 POP DUP1 CALLVALUE LT ISZERO PUSH2 0x1161 JUMPI PUSH1 0x40 DUP1 MLOAD PUSH4 0x79D3124B PUSH1 0xE0 SHL DUP2 MSTORE PUSH1 0x4 DUP2 ADD SWAP2 SWAP1 SWAP2 MSTORE PUSH1 0x17 PUSH1 0x44 DUP3 ADD MSTORE PUSH32 0x6572726F72203A20496E636F72726563742076616C7565000000000000000000 PUSH1 0x64 DUP3 ADD MSTORE CALLVALUE PUSH1 0x24 DUP3 ADD MSTORE PUSH1 0x84 ADD PUSH2 0x905 JUMP JUMPDEST PUSH2 0x1169 PUSH2 0xCCD JUMP JUMPDEST PUSH1 0x0 PUSH2 0x1185 PUSH2 0x1180 DUP5 PUSH8 0xDE0B6B3A7640000 PUSH2 0x5A19 JUMP JUMPDEST PUSH2 0x2B85 JUMP JUMPDEST SWAP1 POP PUSH1 0x0 PUSH2 0x11A3 PUSH2 0x119E DUP6 PUSH8 0xDE0B6B3A7640000 PUSH2 0x5A19 JUMP JUMPDEST PUSH2 0x2B92 JUMP JUMPDEST SWAP1 POP PUSH2 0x11AF DUP10 DUP4 PUSH2 0x2152 JUMP JUMPDEST PUSH2 0x11B9 DUP7 DUP3 PUSH2 0x2152 JUMP JUMPDEST POP POP POP JUMPDEST POP POP POP POP POP POP POP JUMP JUMPDEST PUSH1 0x0 DUP3 DUP2 MSTORE PUSH1 0x2 PUSH1 0x20 MSTORE PUSH1 0x40 DUP2 KECCAK256 PUSH1 0xC ADD DUP1 SLOAD DUP4 SWAP1 DUP2 LT PUSH2 0x11E9 JUMPI PUSH2 0x11E9 PUSH2 0x5AB3 JUMP JUMPDEST SWAP1 PUSH1 0x0 MSTORE PUSH1 0x20 PUSH1 0x0 KECCAK256 SWAP1 PUSH1 0xB MUL ADD PUSH1 0x7 ADD SLOAD SWAP1 POP SWAP3 SWAP2 POP POP JUMP JUMPDEST PUSH2 0x120B PUSH2 0x2023 JUMP JUMPDEST PUSH2 0x1215 PUSH1 0x0 PUSH2 0x2B9F JUMP JUMPDEST JUMP JUMPDEST PUSH2 0x121F PUSH2 0x4BC8 JUMP JUMPDEST PUSH2 0x1227 PUSH2 0x4BC8 JUMP JUMPDEST PUSH1 0x1 PUSH1 0x1 PUSH1 0xA0 SHL SUB DUP4 AND DUP1 DUP3 MSTORE PUSH1 0x0 DUP6 DUP2 MSTORE PUSH1 0x2 PUSH1 0x20 SWAP1 DUP2 MSTORE PUSH1 0x40 DUP1 DUP4 KECCAK256 SWAP4 DUP4 MSTORE PUSH1 0x10 SWAP1 SWAP4 ADD DUP2 MSTORE SWAP1 DUP3 SWAP1 KECCAK256 DUP1 SLOAD DUP4 MLOAD DUP2 DUP5 MUL DUP2 ADD DUP5 ADD SWAP1 SWAP5 MSTORE DUP1 DUP5 MSTORE SWAP1 SWAP2 DUP4 ADD DUP3 DUP3 DUP1 ISZERO PUSH2 0x1295 JUMPI PUSH1 0x20 MUL DUP3 ADD SWAP2 SWAP1 PUSH1 0x0 MSTORE PUSH1 0x20 PUSH1 0x0 KECCAK256 SWAP1 JUMPDEST DUP2 SLOAD DUP2 MSTORE PUSH1 0x20 ADD SWAP1 PUSH1 0x1 ADD SWAP1 DUP1 DUP4 GT PUSH2 0x1281 JUMPI JUMPDEST POP POP POP POP PUSH1 0x20 DUP4 ADD DUP3 SWAP1 MSTORE POP MLOAD PUSH1 0x0 SWAP1 PUSH1 0x1 PUSH1 0x1 PUSH1 0x40 SHL SUB DUP2 GT ISZERO PUSH2 0x12BC JUMPI PUSH2 0x12BC PUSH2 0x4D21 JUMP JUMPDEST PUSH1 0x40 MLOAD SWAP1 DUP1 DUP3 MSTORE DUP1 PUSH1 0x20 MUL PUSH1 0x20 ADD DUP3 ADD PUSH1 0x40 MSTORE DUP1 ISZERO PUSH2 0x1302 JUMPI DUP2 PUSH1 0x20 ADD JUMPDEST PUSH1 0x40 DUP1 MLOAD DUP1 DUP3 ADD SWAP1 SWAP2 MSTORE PUSH1 0x0 DUP2 MSTORE PUSH1 0x60 PUSH1 0x20 DUP3 ADD MSTORE DUP2 MSTORE PUSH1 0x20 ADD SWAP1 PUSH1 0x1 SWAP1 SUB SWAP1 DUP2 PUSH2 0x12DA JUMPI SWAP1 POP JUMPDEST POP SWAP1 POP PUSH1 0x0 JUMPDEST DUP3 PUSH1 0x20 ADD MLOAD MLOAD DUP2 LT ISZERO PUSH2 0x105B JUMPI PUSH1 0x0 DUP7 DUP2 MSTORE PUSH1 0x2 PUSH1 0x20 SWAP1 DUP2 MSTORE PUSH1 0x40 DUP1 DUP4 KECCAK256 PUSH1 0x1 PUSH1 0x1 PUSH1 0xA0 SHL SUB DUP10 AND DUP5 MSTORE PUSH1 0x10 ADD DUP3 MSTORE DUP3 KECCAK256 SWAP1 DUP6 ADD MLOAD DUP1 MLOAD PUSH1 0x1 SWAP1 SWAP3 ADD SWAP3 SWAP2 DUP5 SWAP1 DUP2 LT PUSH2 0x1356 JUMPI PUSH2 0x1356 PUSH2 0x5AB3 JUMP JUMPDEST PUSH1 0x20 MUL PUSH1 0x20 ADD ADD MLOAD DUP2 MSTORE PUSH1 0x20 ADD SWAP1 DUP2 MSTORE PUSH1 0x20 ADD PUSH1 0x0 KECCAK256 PUSH1 0x0 ADD PUSH1 0x0 SWAP1 SLOAD SWAP1 PUSH2 0x100 EXP SWAP1 DIV PUSH1 0xFF AND DUP3 DUP3 DUP2 MLOAD DUP2 LT PUSH2 0x138F JUMPI PUSH2 0x138F PUSH2 0x5AB3 JUMP JUMPDEST PUSH1 0x20 MUL PUSH1 0x20 ADD ADD MLOAD PUSH1 0x0 ADD SWAP1 PUSH1 0x4 DUP2 GT ISZERO PUSH2 0x13AC JUMPI PUSH2 0x13AC PUSH2 0x534E JUMP JUMPDEST SWAP1 DUP2 PUSH1 0x4 DUP2 GT ISZERO PUSH2 0x13BF JUMPI PUSH2 0x13BF PUSH2 0x534E JUMP JUMPDEST SWAP1 MSTORE POP PUSH1 0x0 DUP7 DUP2 MSTORE PUSH1 0x2 PUSH1 0x20 SWAP1 DUP2 MSTORE PUSH1 0x40 DUP1 DUP4 KECCAK256 PUSH1 0x1 PUSH1 0x1 PUSH1 0xA0 SHL SUB DUP10 AND DUP5 MSTORE PUSH1 0x10 ADD DUP3 MSTORE DUP3 KECCAK256 SWAP1 DUP6 ADD MLOAD DUP1 MLOAD PUSH1 0x1 SWAP1 SWAP3 ADD SWAP3 SWAP2 DUP5 SWAP1 DUP2 LT PUSH2 0x1403 JUMPI PUSH2 0x1403 PUSH2 0x5AB3 JUMP JUMPDEST PUSH1 0x20 MUL PUSH1 0x20 ADD ADD MLOAD DUP2 MSTORE PUSH1 0x20 ADD SWAP1 DUP2 MSTORE PUSH1 0x20 ADD PUSH1 0x0 KECCAK256 PUSH1 0x1 ADD DUP1 SLOAD PUSH2 0x1427 SWAP1 PUSH2 0x5AC9 JUMP JUMPDEST DUP1 PUSH1 0x1F ADD PUSH1 0x20 DUP1 SWAP2 DIV MUL PUSH1 0x20 ADD PUSH1 0x40 MLOAD SWAP1 DUP2 ADD PUSH1 0x40 MSTORE DUP1 SWAP3 SWAP2 SWAP1 DUP2 DUP2 MSTORE PUSH1 0x20 ADD DUP3 DUP1 SLOAD PUSH2 0x1453 SWAP1 PUSH2 0x5AC9 JUMP JUMPDEST DUP1 ISZERO PUSH2 0x14A0 JUMPI DUP1 PUSH1 0x1F LT PUSH2 0x1475 JUMPI PUSH2 0x100 DUP1 DUP4 SLOAD DIV MUL DUP4 MSTORE SWAP2 PUSH1 0x20 ADD SWAP2 PUSH2 0x14A0 JUMP JUMPDEST DUP3 ADD SWAP2 SWAP1 PUSH1 0x0 MSTORE PUSH1 0x20 PUSH1 0x0 KECCAK256 SWAP1 JUMPDEST DUP2 SLOAD DUP2 MSTORE SWAP1 PUSH1 0x1 ADD SWAP1 PUSH1 0x20 ADD DUP1 DUP4 GT PUSH2 0x1483 JUMPI DUP3 SWAP1 SUB PUSH1 0x1F AND DUP3 ADD SWAP2 JUMPDEST POP POP POP POP POP DUP3 DUP3 DUP2 MLOAD DUP2 LT PUSH2 0x14B7 JUMPI PUSH2 0x14B7 PUSH2 0x5AB3 JUMP JUMPDEST PUSH1 0x20 MUL PUSH1 0x20 ADD ADD MLOAD PUSH1 0x20 ADD DUP2 SWAP1 MSTORE POP DUP1 DUP1 PUSH2 0x14D1 SWAP1 PUSH2 0x5AFD JUMP JUMPDEST SWAP2 POP POP PUSH2 0x1308 JUMP JUMPDEST PUSH2 0x14E1 PUSH2 0x2023 JUMP JUMPDEST PUSH2 0x1215 PUSH2 0x2BEF JUMP JUMPDEST PUSH1 0x0 DUP2 ISZERO PUSH2 0x1512 JUMPI POP PUSH1 0x0 DUP3 DUP2 MSTORE PUSH1 0x2 PUSH1 0x20 MSTORE PUSH1 0x40 SWAP1 KECCAK256 PUSH1 0x13 DUP2 ADD SLOAD PUSH1 0x11 SWAP1 SWAP2 ADD SLOAD GT ISZERO PUSH2 0xA1E JUMP JUMPDEST POP PUSH1 0x0 DUP3 DUP2 MSTORE PUSH1 0x2 PUSH1 0x20 MSTORE PUSH1 0x40 SWAP1 KECCAK256 PUSH1 0x14 DUP2 ADD SLOAD PUSH1 0x12 SWAP1 SWAP2 ADD SLOAD GT ISZERO PUSH2 0xA1E JUMP JUMPDEST DUP1 PUSH2 0x153D PUSH1 0x4 SLOAD SWAP1 JUMP JUMPDEST DUP2 GT ISZERO PUSH2 0x155D JUMPI PUSH1 0x40 MLOAD PUSH4 0x347626DD PUSH1 0xE2 SHL DUP2 MSTORE PUSH1 0x4 ADD PUSH2 0x905 SWAP1 PUSH2 0x59D7 JUMP JUMPDEST PUSH2 0x1566 DUP3 PUSH2 0x2C83 JUMP JUMPDEST POP POP POP JUMP JUMPDEST PUSH1 0x60 PUSH1 0x0 PUSH1 0x60 DUP1 PUSH1 0x0 DUP1 DUP7 ISZERO PUSH2 0x15EF JUMPI PUSH1 0x0 DUP10 DUP2 MSTORE PUSH1 0x2 PUSH1 0x20 SWAP1 DUP2 MSTORE PUSH1 0x40 DUP1 DUP4 KECCAK256 PUSH1 0x1 PUSH1 0x1 PUSH1 0xA0 SHL SUB DUP13 AND DUP5 MSTORE PUSH1 0xF ADD DUP3 MSTORE SWAP2 DUP3 SWAP1 KECCAK256 DUP1 SLOAD DUP4 MLOAD DUP2 DUP5 MUL DUP2 ADD DUP5 ADD SWAP1 SWAP5 MSTORE DUP1 DUP5 MSTORE SWAP1 SWAP2 DUP4 ADD DUP3 DUP3 DUP1 ISZERO PUSH2 0x15E3 JUMPI PUSH1 0x20 MUL DUP3 ADD SWAP2 SWAP1 PUSH1 0x0 MSTORE PUSH1 0x20 PUSH1 0x0 KECCAK256 SWAP1 JUMPDEST DUP2 SLOAD DUP2 MSTORE PUSH1 0x20 ADD SWAP1 PUSH1 0x1 ADD SWAP1 DUP1 DUP4 GT PUSH2 0x15CF JUMPI JUMPDEST POP POP POP POP POP SWAP4 POP PUSH2 0x165F JUMP JUMPDEST PUSH1 0x0 DUP10 DUP2 MSTORE PUSH1 0x2 PUSH1 0x20 SWAP1 DUP2 MSTORE PUSH1 0x40 DUP1 DUP4 KECCAK256 PUSH1 0x1 PUSH1 0x1 PUSH1 0xA0 SHL SUB DUP13 AND DUP5 MSTORE PUSH1 0x10 ADD DUP3 MSTORE SWAP2 DUP3 SWAP1 KECCAK256 DUP1 SLOAD DUP4 MLOAD DUP2 DUP5 MUL DUP2 ADD DUP5 ADD SWAP1 SWAP5 MSTORE DUP1 DUP5 MSTORE SWAP1 SWAP2 DUP4 ADD DUP3 DUP3 DUP1 ISZERO PUSH2 0x1657 JUMPI PUSH1 0x20 MUL DUP3 ADD SWAP2 SWAP1 PUSH1 0x0 MSTORE PUSH1 0x20 PUSH1 0x0 KECCAK256 SWAP1 JUMPDEST DUP2 SLOAD DUP2 MSTORE PUSH1 0x20 ADD SWAP1 PUSH1 0x1 ADD SWAP1 DUP1 DUP4 GT PUSH2 0x1643 JUMPI JUMPDEST POP POP POP POP POP SWAP4 POP JUMPDEST PUSH1 0x40 DUP1 MLOAD DUP1 DUP3 ADD SWAP1 SWAP2 MSTORE PUSH1 0x0 DUP2 MSTORE PUSH1 0x60 PUSH1 0x20 DUP3 ADD MSTORE PUSH1 0x0 JUMPDEST DUP6 MLOAD DUP2 LT ISZERO PUSH2 0x188F JUMPI PUSH1 0x0 DUP12 DUP2 MSTORE PUSH1 0x2 PUSH1 0x20 SWAP1 DUP2 MSTORE PUSH1 0x40 DUP1 DUP4 KECCAK256 PUSH1 0x1 PUSH1 0x1 PUSH1 0xA0 SHL SUB DUP15 AND DUP5 MSTORE PUSH1 0xF ADD SWAP1 SWAP2 MSTORE DUP2 KECCAK256 DUP8 MLOAD PUSH1 0x1 SWAP1 SWAP2 ADD SWAP2 SWAP1 DUP9 SWAP1 DUP5 SWAP1 DUP2 LT PUSH2 0x16C0 JUMPI PUSH2 0x16C0 PUSH2 0x5AB3 JUMP JUMPDEST PUSH1 0x20 MUL PUSH1 0x20 ADD ADD MLOAD DUP2 MSTORE PUSH1 0x20 ADD SWAP1 DUP2 MSTORE PUSH1 0x20 ADD PUSH1 0x0 KECCAK256 PUSH1 0x40 MLOAD DUP1 PUSH1 0x40 ADD PUSH1 0x40 MSTORE SWAP1 DUP2 PUSH1 0x0 DUP3 ADD PUSH1 0x0 SWAP1 SLOAD SWAP1 PUSH2 0x100 EXP SWAP1 DIV PUSH1 0xFF AND PUSH1 0x4 DUP2 GT ISZERO PUSH2 0x1705 JUMPI PUSH2 0x1705 PUSH2 0x534E JUMP JUMPDEST PUSH1 0x4 DUP2 GT ISZERO PUSH2 0x1716 JUMPI PUSH2 0x1716 PUSH2 0x534E JUMP JUMPDEST DUP2 MSTORE PUSH1 0x20 ADD PUSH1 0x1 DUP3 ADD DUP1 SLOAD PUSH2 0x172A SWAP1 PUSH2 0x5AC9 JUMP JUMPDEST DUP1 PUSH1 0x1F ADD PUSH1 0x20 DUP1 SWAP2 DIV MUL PUSH1 0x20 ADD PUSH1 0x40 MLOAD SWAP1 DUP2 ADD PUSH1 0x40 MSTORE DUP1 SWAP3 SWAP2 SWAP1 DUP2 DUP2 MSTORE PUSH1 0x20 ADD DUP3 DUP1 SLOAD PUSH2 0x1756 SWAP1 PUSH2 0x5AC9 JUMP JUMPDEST DUP1 ISZERO PUSH2 0x17A3 JUMPI DUP1 PUSH1 0x1F LT PUSH2 0x1778 JUMPI PUSH2 0x100 DUP1 DUP4 SLOAD DIV MUL DUP4 MSTORE SWAP2 PUSH1 0x20 ADD SWAP2 PUSH2 0x17A3 JUMP JUMPDEST DUP3 ADD SWAP2 SWAP1 PUSH1 0x0 MSTORE PUSH1 0x20 PUSH1 0x0 KECCAK256 SWAP1 JUMPDEST DUP2 SLOAD DUP2 MSTORE SWAP1 PUSH1 0x1 ADD SWAP1 PUSH1 0x20 ADD DUP1 DUP4 GT PUSH2 0x1786 JUMPI DUP3 SWAP1 SUB PUSH1 0x1F AND DUP3 ADD SWAP2 JUMPDEST POP POP POP POP POP DUP2 MSTORE POP POP SWAP2 POP PUSH1 0x0 PUSH1 0x4 DUP2 GT ISZERO PUSH2 0x17C1 JUMPI PUSH2 0x17C1 PUSH2 0x534E JUMP JUMPDEST DUP3 MLOAD PUSH1 0x4 DUP2 GT ISZERO PUSH2 0x17D4 JUMPI PUSH2 0x17D4 PUSH2 0x534E JUMP JUMPDEST SUB PUSH2 0x187D JUMPI DUP6 DUP2 DUP2 MLOAD DUP2 LT PUSH2 0x17EB JUMPI PUSH2 0x17EB PUSH2 0x5AB3 JUMP JUMPDEST PUSH1 0x20 MUL PUSH1 0x20 ADD ADD MLOAD DUP6 DUP5 DUP2 MLOAD DUP2 LT PUSH2 0x1805 JUMPI PUSH2 0x1805 PUSH2 0x5AB3 JUMP JUMPDEST PUSH1 0x20 SWAP1 DUP2 MUL SWAP2 SWAP1 SWAP2 ADD ADD MSTORE DUP3 PUSH2 0x181A DUP2 PUSH2 0x5AFD JUMP JUMPDEST SWAP4 POP POP PUSH1 0x2 PUSH1 0x0 DUP13 DUP2 MSTORE PUSH1 0x20 ADD SWAP1 DUP2 MSTORE PUSH1 0x20 ADD PUSH1 0x0 KECCAK256 PUSH1 0xC ADD DUP7 DUP3 DUP2 MLOAD DUP2 LT PUSH2 0x1845 JUMPI PUSH2 0x1845 PUSH2 0x5AB3 JUMP JUMPDEST PUSH1 0x20 MUL PUSH1 0x20 ADD ADD MLOAD DUP2 SLOAD DUP2 LT PUSH2 0x185D JUMPI PUSH2 0x185D PUSH2 0x5AB3 JUMP JUMPDEST SWAP1 PUSH1 0x0 MSTORE PUSH1 0x20 PUSH1 0x0 KECCAK256 SWAP1 PUSH1 0xB MUL ADD PUSH1 0x7 ADD SLOAD DUP5 PUSH2 0x187A SWAP2 SWAP1 PUSH2 0x5B16 JUMP JUMPDEST SWAP4 POP JUMPDEST DUP1 PUSH2 0x1887 DUP2 PUSH2 0x5AFD JUMP JUMPDEST SWAP2 POP POP PUSH2 0x1677 JUMP JUMPDEST POP SWAP3 SWAP10 SWAP2 SWAP9 POP SWAP1 SWAP7 POP POP POP POP POP POP POP JUMP JUMPDEST PUSH2 0x18AA DUP3 DUP3 PUSH2 0x2E77 JUMP JUMPDEST POP POP JUMP JUMPDEST PUSH1 0x0 DUP2 DUP2 MSTORE PUSH1 0x2 PUSH1 0x20 SWAP1 DUP2 MSTORE PUSH1 0x40 SWAP2 DUP3 SWAP1 KECCAK256 PUSH1 0xD ADD DUP1 SLOAD DUP4 MLOAD DUP2 DUP5 MUL DUP2 ADD DUP5 ADD SWAP1 SWAP5 MSTORE DUP1 DUP5 MSTORE PUSH1 0x60 SWAP4 SWAP3 DUP4 ADD DUP3 DUP3 DUP1 ISZERO PUSH2 0x1911 JUMPI PUSH1 0x20 MUL DUP3 ADD SWAP2 SWAP1 PUSH1 0x0 MSTORE PUSH1 0x20 PUSH1 0x0 KECCAK256 SWAP1 JUMPDEST DUP2 SLOAD PUSH1 0x1 PUSH1 0x1 PUSH1 0xA0 SHL SUB AND DUP2 MSTORE PUSH1 0x1 SWAP1 SWAP2 ADD SWAP1 PUSH1 0x20 ADD DUP1 DUP4 GT PUSH2 0x18F3 JUMPI JUMPDEST POP POP POP POP POP SWAP1 POP SWAP2 SWAP1 POP JUMP JUMPDEST DUP1 PUSH2 0x1927 PUSH1 0x4 SLOAD SWAP1 JUMP JUMPDEST DUP2 GT ISZERO PUSH2 0x1947 JUMPI PUSH1 0x40 MLOAD PUSH4 0x347626DD PUSH1 0xE2 SHL DUP2 MSTORE PUSH1 0x4 ADD PUSH2 0x905 SWAP1 PUSH2 0x59D7 JUMP JUMPDEST PUSH2 0x1566 DUP3 PUSH2 0x2EF9 JUMP JUMPDEST CALLER PUSH1 0x0 DUP2 DUP2 MSTORE PUSH1 0x3 PUSH1 0x20 MSTORE PUSH1 0x40 DUP2 KECCAK256 SLOAD SWAP1 SWAP2 SWAP1 DUP1 ISZERO PUSH2 0x1982 JUMPI PUSH1 0x40 MLOAD PUSH4 0x934F2C3 PUSH1 0xE0 SHL DUP2 MSTORE PUSH1 0x4 ADD PUSH2 0x905 SWAP1 PUSH2 0x59AE JUMP JUMPDEST PUSH2 0x198B DUP5 PUSH2 0x3193 JUMP JUMPDEST SWAP3 POP PUSH1 0x0 PUSH2 0x19B2 DUP6 PUSH2 0x160 ADD MLOAD PUSH8 0xDE0B6B3A7640000 PUSH2 0x19AB SWAP2 SWAP1 PUSH2 0x5A19 JUMP JUMPDEST PUSH1 0x1E PUSH2 0x2004 JUMP JUMPDEST SWAP1 POP DUP1 CALLVALUE LT ISZERO PUSH2 0x19FF JUMPI PUSH1 0x40 DUP1 MLOAD PUSH4 0x79D3124B PUSH1 0xE0 SHL DUP2 MSTORE PUSH1 0x4 DUP2 ADD SWAP2 SWAP1 SWAP2 MSTORE PUSH1 0xF PUSH1 0x44 DUP3 ADD MSTORE PUSH15 0x496E636F72726563742076616C7565 PUSH1 0x88 SHL PUSH1 0x64 DUP3 ADD MSTORE CALLVALUE PUSH1 0x24 DUP3 ADD MSTORE PUSH1 0x84 ADD PUSH2 0x905 JUMP JUMPDEST PUSH2 0x1A07 PUSH2 0xCCD JUMP JUMPDEST POP POP POP SWAP2 SWAP1 POP JUMP JUMPDEST PUSH1 0x0 DUP3 DUP2 MSTORE PUSH1 0x2 PUSH1 0x20 MSTORE PUSH1 0x40 DUP2 KECCAK256 PUSH1 0xC ADD DUP1 SLOAD DUP4 SWAP1 DUP2 LT PUSH2 0x1A32 JUMPI PUSH2 0x1A32 PUSH2 0x5AB3 JUMP JUMPDEST PUSH1 0x0 SWAP2 DUP3 MSTORE PUSH1 0x20 SWAP1 SWAP2 KECCAK256 PUSH1 0xB SWAP1 SWAP2 MUL ADD PUSH1 0x9 ADD SLOAD PUSH1 0xFF AND SWAP4 SWAP3 POP POP POP JUMP JUMPDEST PUSH1 0x0 DUP2 DUP2 MSTORE PUSH1 0x2 PUSH1 0x20 SWAP1 DUP2 MSTORE PUSH1 0x40 SWAP2 DUP3 SWAP1 KECCAK256 PUSH1 0xE ADD DUP1 SLOAD DUP4 MLOAD DUP2 DUP5 MUL DUP2 ADD DUP5 ADD SWAP1 SWAP5 MSTORE DUP1 DUP5 MSTORE PUSH1 0x60 SWAP4 SWAP3 DUP4 ADD DUP3 DUP3 DUP1 ISZERO PUSH2 0x1911 JUMPI PUSH1 0x20 MUL DUP3 ADD SWAP2 SWAP1 PUSH1 0x0 MSTORE PUSH1 0x20 PUSH1 0x0 KECCAK256 SWAP1 DUP2 SLOAD PUSH1 0x1 PUSH1 0x1 PUSH1 0xA0 SHL SUB AND DUP2 MSTORE PUSH1 0x1 SWAP1 SWAP2 ADD SWAP1 PUSH1 0x20 ADD DUP1 DUP4 GT PUSH2 0x18F3 JUMPI POP POP POP POP POP SWAP1 POP SWAP2 SWAP1 POP JUMP JUMPDEST DUP3 PUSH2 0x1AC7 PUSH1 0x4 SLOAD SWAP1 JUMP JUMPDEST DUP2 GT ISZERO PUSH2 0x1AE7 JUMPI PUSH1 0x40 MLOAD PUSH4 0x347626DD PUSH1 0xE2 SHL DUP2 MSTORE PUSH1 0x4 ADD PUSH2 0x905 SWAP1 PUSH2 0x59D7 JUMP JUMPDEST PUSH1 0x0 PUSH2 0x1AF3 DUP6 DUP6 PUSH2 0x1A0F JUMP JUMPDEST SWAP1 POP PUSH1 0x6 DUP2 PUSH1 0xB DUP2 GT ISZERO PUSH2 0x1B09 JUMPI PUSH2 0x1B09 PUSH2 0x534E JUMP JUMPDEST GT ISZERO PUSH2 0x1B4B JUMPI PUSH1 0x40 MLOAD PUSH4 0xB4644DD9 PUSH1 0xE0 SHL DUP2 MSTORE PUSH1 0x20 PUSH1 0x4 DUP3 ADD MSTORE PUSH1 0x10 PUSH1 0x24 DUP3 ADD MSTORE PUSH16 0x1D5B98589B19481D1BC81CDD589B5A5D PUSH1 0x82 SHL PUSH1 0x44 DUP3 ADD MSTORE PUSH1 0x64 ADD PUSH2 0x905 JUMP JUMPDEST PUSH2 0x1B56 DUP6 DUP6 DUP6 PUSH2 0x31E2 JUMP JUMPDEST POP POP POP POP POP JUMP JUMPDEST PUSH1 0x60 PUSH1 0x2 PUSH1 0x0 DUP4 DUP2 MSTORE PUSH1 0x20 ADD SWAP1 DUP2 MSTORE PUSH1 0x20 ADD PUSH1 0x0 KECCAK256 PUSH1 0xC ADD DUP1 SLOAD DUP1 PUSH1 0x20 MUL PUSH1 0x20 ADD PUSH1 0x40 MLOAD SWAP1 DUP2 ADD PUSH1 0x40 MSTORE DUP1 SWAP3 SWAP2 SWAP1 DUP2 DUP2 MSTORE PUSH1 0x20 ADD PUSH1 0x0 SWAP1 JUMPDEST DUP3 DUP3 LT ISZERO PUSH2 0x1E03 JUMPI PUSH1 0x0 DUP5 DUP2 MSTORE PUSH1 0x20 SWAP1 KECCAK256 PUSH1 0x40 DUP1 MLOAD PUSH2 0x180 DUP2 ADD SWAP1 SWAP2 MSTORE PUSH1 0xB DUP5 MUL SWAP1 SWAP2 ADD DUP1 SLOAD DUP3 SWAP1 PUSH1 0xA0 DUP3 ADD SWAP1 DUP4 SWAP1 DUP3 SWAP1 DUP3 SWAP1 PUSH2 0x1BD1 SWAP1 PUSH2 0x5AC9 JUMP JUMPDEST DUP1 PUSH1 0x1F ADD PUSH1 0x20 DUP1 SWAP2 DIV MUL PUSH1 0x20 ADD PUSH1 0x40 MLOAD SWAP1 DUP2 ADD PUSH1 0x40 MSTORE DUP1 SWAP3 SWAP2 SWAP1 DUP2 DUP2 MSTORE PUSH1 0x20 ADD DUP3 DUP1 SLOAD PUSH2 0x1BFD SWAP1 PUSH2 0x5AC9 JUMP JUMPDEST DUP1 ISZERO PUSH2 0x1C4A JUMPI DUP1 PUSH1 0x1F LT PUSH2 0x1C1F JUMPI PUSH2 0x100 DUP1 DUP4 SLOAD DIV MUL DUP4 MSTORE SWAP2 PUSH1 0x20 ADD SWAP2 PUSH2 0x1C4A JUMP JUMPDEST DUP3 ADD SWAP2 SWAP1 PUSH1 0x0 MSTORE PUSH1 0x20 PUSH1 0x0 KECCAK256 SWAP1 JUMPDEST DUP2 SLOAD DUP2 MSTORE SWAP1 PUSH1 0x1 ADD SWAP1 PUSH1 0x20 ADD DUP1 DUP4 GT PUSH2 0x1C2D JUMPI DUP3 SWAP1 SUB PUSH1 0x1F AND DUP3 ADD SWAP2 JUMPDEST POP POP POP POP POP DUP2 MSTORE PUSH1 0x20 ADD PUSH1 0x1 DUP3 ADD SLOAD DUP2 MSTORE PUSH1 0x20 ADD PUSH1 0x2 DUP3 ADD SLOAD DUP2 MSTORE PUSH1 0x20 ADD PUSH1 0x3 DUP3 ADD SLOAD DUP2 MSTORE PUSH1 0x20 ADD PUSH1 0x4 DUP3 ADD SLOAD DUP2 MSTORE PUSH1 0x20 ADD PUSH1 0x5 DUP3 ADD SLOAD DUP2 MSTORE PUSH1 0x20 ADD PUSH1 0x6 DUP3 ADD DUP1 SLOAD PUSH2 0x1C95 SWAP1 PUSH2 0x5AC9 JUMP JUMPDEST DUP1 PUSH1 0x1F ADD PUSH1 0x20 DUP1 SWAP2 DIV MUL PUSH1 0x20 ADD PUSH1 0x40 MLOAD SWAP1 DUP2 ADD PUSH1 0x40 MSTORE DUP1 SWAP3 SWAP2 SWAP1 DUP2 DUP2 MSTORE PUSH1 0x20 ADD DUP3 DUP1 SLOAD PUSH2 0x1CC1 SWAP1 PUSH2 0x5AC9 JUMP JUMPDEST DUP1 ISZERO PUSH2 0x1D0E JUMPI DUP1 PUSH1 0x1F LT PUSH2 0x1CE3 JUMPI PUSH2 0x100 DUP1 DUP4 SLOAD DIV MUL DUP4 MSTORE SWAP2 PUSH1 0x20 ADD SWAP2 PUSH2 0x1D0E JUMP JUMPDEST DUP3 ADD SWAP2 SWAP1 PUSH1 0x0 MSTORE PUSH1 0x20 PUSH1 0x0 KECCAK256 SWAP1 JUMPDEST DUP2 SLOAD DUP2 MSTORE SWAP1 PUSH1 0x1 ADD SWAP1 PUSH1 0x20 ADD DUP1 DUP4 GT PUSH2 0x1CF1 JUMPI DUP3 SWAP1 SUB PUSH1 0x1F AND DUP3 ADD SWAP2 JUMPDEST POP POP POP POP POP DUP2 MSTORE POP POP DUP2 MSTORE PUSH1 0x20 ADD PUSH1 0x7 DUP3 ADD SLOAD DUP2 MSTORE PUSH1 0x20 ADD PUSH1 0x8 DUP3 ADD DUP1 SLOAD PUSH2 0x1D35 SWAP1 PUSH2 0x5AC9 JUMP JUMPDEST DUP1 PUSH1 0x1F ADD PUSH1 0x20 DUP1 SWAP2 DIV MUL PUSH1 0x20 ADD PUSH1 0x40 MLOAD SWAP1 DUP2 ADD PUSH1 0x40 MSTORE DUP1 SWAP3 SWAP2 SWAP1 DUP2 DUP2 MSTORE PUSH1 0x20 ADD DUP3 DUP1 SLOAD PUSH2 0x1D61 SWAP1 PUSH2 0x5AC9 JUMP JUMPDEST DUP1 ISZERO PUSH2 0x1DAE JUMPI DUP1 PUSH1 0x1F LT PUSH2 0x1D83 JUMPI PUSH2 0x100 DUP1 DUP4 SLOAD DIV MUL DUP4 MSTORE SWAP2 PUSH1 0x20 ADD SWAP2 PUSH2 0x1DAE JUMP JUMPDEST DUP3 ADD SWAP2 SWAP1 PUSH1 0x0 MSTORE PUSH1 0x20 PUSH1 0x0 KECCAK256 SWAP1 JUMPDEST DUP2 SLOAD DUP2 MSTORE SWAP1 PUSH1 0x1 ADD SWAP1 PUSH1 0x20 ADD DUP1 DUP4 GT PUSH2 0x1D91 JUMPI DUP3 SWAP1 SUB PUSH1 0x1F AND DUP3 ADD SWAP2 JUMPDEST POP POP POP SWAP2 DUP4 MSTORE POP POP PUSH1 0x9 DUP3 ADD SLOAD PUSH1 0x20 SWAP1 SWAP2 ADD SWAP1 PUSH1 0xFF AND PUSH1 0xB DUP2 GT ISZERO PUSH2 0x1DD5 JUMPI PUSH2 0x1DD5 PUSH2 0x534E JUMP JUMPDEST PUSH1 0xB DUP2 GT ISZERO PUSH2 0x1DE6 JUMPI PUSH2 0x1DE6 PUSH2 0x534E JUMP JUMPDEST DUP2 MSTORE PUSH1 0x20 ADD PUSH1 0xA DUP3 ADD SLOAD DUP2 MSTORE POP POP DUP2 MSTORE PUSH1 0x20 ADD SWAP1 PUSH1 0x1 ADD SWAP1 PUSH2 0x1B95 JUMP JUMPDEST POP POP POP POP SWAP1 POP SWAP2 SWAP1 POP JUMP JUMPDEST PUSH2 0x1E16 PUSH2 0x4BF2 JUMP JUMPDEST DUP2 PUSH2 0x1E20 PUSH1 0x4 SLOAD SWAP1 JUMP JUMPDEST DUP2 GT ISZERO PUSH2 0x1E40 JUMPI PUSH1 0x40 MLOAD PUSH4 0x347626DD PUSH1 0xE2 SHL DUP2 MSTORE PUSH1 0x4 ADD PUSH2 0x905 SWAP1 PUSH2 0x59D7 JUMP JUMPDEST PUSH2 0x1E49 DUP4 PUSH2 0x31EE JUMP JUMPDEST SWAP2 POP JUMPDEST POP SWAP2 SWAP1 POP JUMP JUMPDEST PUSH2 0x1E5A PUSH2 0x2023 JUMP JUMPDEST PUSH1 0x1 PUSH1 0x1 PUSH1 0xA0 SHL SUB DUP2 AND PUSH2 0x1EBF JUMPI PUSH1 0x40 MLOAD PUSH3 0x461BCD PUSH1 0xE5 SHL DUP2 MSTORE PUSH1 0x20 PUSH1 0x4 DUP3 ADD MSTORE PUSH1 0x26 PUSH1 0x24 DUP3 ADD MSTORE PUSH32 0x4F776E61626C653A206E6577206F776E657220697320746865207A65726F2061 PUSH1 0x44 DUP3 ADD MSTORE PUSH6 0x646472657373 PUSH1 0xD0 SHL PUSH1 0x64 DUP3 ADD MSTORE PUSH1 0x84 ADD PUSH2 0x905 JUMP JUMPDEST PUSH2 0x9F4 DUP2 PUSH2 0x2B9F JUMP JUMPDEST DUP2 PUSH2 0x1ED2 PUSH1 0x4 SLOAD SWAP1 JUMP JUMPDEST DUP2 GT ISZERO PUSH2 0x1EF2 JUMPI PUSH1 0x40 MLOAD PUSH4 0x347626DD PUSH1 0xE2 SHL DUP2 MSTORE PUSH1 0x4 ADD PUSH2 0x905 SWAP1 PUSH2 0x59D7 JUMP JUMPDEST PUSH1 0x0 DUP4 DUP2 MSTORE PUSH1 0x2 PUSH1 0x20 MSTORE PUSH1 0x40 SWAP1 KECCAK256 PUSH1 0x15 ADD SLOAD DUP4 SWAP1 PUSH1 0xFF AND PUSH2 0x1F4B JUMPI PUSH1 0x40 MLOAD PUSH4 0xB4644DD9 PUSH1 0xE0 SHL DUP2 MSTORE PUSH1 0x20 PUSH1 0x4 DUP3 ADD MSTORE PUSH1 0x12 PUSH1 0x24 DUP3 ADD MSTORE PUSH18 0x43616E27742072656365697665207461736B PUSH1 0x70 SHL PUSH1 0x44 DUP3 ADD MSTORE PUSH1 0x64 ADD PUSH2 0x905 JUMP JUMPDEST CALLER PUSH1 0x0 DUP2 DUP2 MSTORE PUSH1 0x3 PUSH1 0x20 MSTORE PUSH1 0x40 SWAP1 KECCAK256 SLOAD DUP1 ISZERO PUSH2 0x1F7A JUMPI PUSH1 0x40 MLOAD PUSH4 0x934F2C3 PUSH1 0xE0 SHL DUP2 MSTORE PUSH1 0x4 ADD PUSH2 0x905 SWAP1 PUSH2 0x59AE JUMP JUMPDEST PUSH2 0x1F85 DUP7 DUP7 CALLER PUSH2 0x393D JUMP JUMPDEST PUSH32 0x8E913351AA76002E572CC432B46556976F6E10285B52F94909124EA8EBD0B795 DUP7 DUP7 CALLER PUSH1 0x1 PUSH1 0x40 MLOAD PUSH2 0xC32 SWAP5 SWAP4 SWAP3 SWAP2 SWAP1 PUSH2 0x5A30 JUMP JUMPDEST PUSH2 0x1FC5 DUP3 DUP3 PUSH2 0x3CFF JUMP JUMPDEST PUSH32 0x9096640C11BD5636CED741C9725E5FF774B334455C80E15491F15BB3AF0BC265 CALLER DUP4 DUP4 PUSH1 0x40 MLOAD PUSH2 0x1FF8 SWAP4 SWAP3 SWAP2 SWAP1 PUSH2 0x5B29 JUMP JUMPDEST PUSH1 0x40 MLOAD DUP1 SWAP2 SUB SWAP1 LOG1 POP POP JUMP JUMPDEST PUSH1 0x0 PUSH1 0x64 PUSH2 0x2012 DUP5 DUP5 PUSH2 0x3F0B JUMP JUMPDEST PUSH2 0x201C SWAP2 SWAP1 PUSH2 0x5C39 JUMP JUMPDEST SWAP4 SWAP3 POP POP POP JUMP JUMPDEST PUSH1 0x0 SLOAD PUSH1 0x1 PUSH1 0x1 PUSH1 0xA0 SHL SUB AND CALLER EQ PUSH2 0x1215 JUMPI PUSH1 0x40 MLOAD PUSH3 0x461BCD PUSH1 0xE5 SHL DUP2 MSTORE PUSH1 0x20 PUSH1 0x4 DUP3 ADD DUP2 SWAP1 MSTORE PUSH1 0x24 DUP3 ADD MSTORE PUSH32 0x4F776E61626C653A2063616C6C6572206973206E6F7420746865206F776E6572 PUSH1 0x44 DUP3 ADD MSTORE PUSH1 0x64 ADD PUSH2 0x905 JUMP JUMPDEST PUSH1 0x0 DUP2 DUP2 MSTORE PUSH1 0x2 PUSH1 0x20 MSTORE PUSH1 0x40 SWAP1 DUP2 SWAP1 KECCAK256 PUSH1 0x15 ADD DUP1 SLOAD PUSH3 0xFF0000 NOT AND PUSH3 0x60000 OR SWAP1 SSTORE MLOAD PUSH1 0x0 DUP1 MLOAD PUSH1 0x20 PUSH2 0x5EAB DUP4 CODECOPY DUP2 MLOAD SWAP2 MSTORE SWAP1 PUSH2 0xD56 SWAP1 DUP4 SWAP1 PUSH1 0x6 SWAP1 CALLER SWAP1 PUSH2 0x5C5B JUMP JUMPDEST PUSH1 0x0 DUP3 ISZERO PUSH2 0x2138 JUMPI PUSH2 0x20D5 DUP7 DUP7 CALLER DUP8 DUP7 PUSH2 0x3F17 JUMP JUMPDEST PUSH1 0x0 DUP7 DUP2 MSTORE PUSH1 0x2 PUSH1 0x20 MSTORE PUSH1 0x40 SWAP1 KECCAK256 PUSH1 0xA ADD SLOAD PUSH2 0x100 SWAP1 DIV PUSH1 0xFF AND DUP1 ISZERO PUSH2 0x2106 JUMPI PUSH2 0x20FF DUP8 DUP7 PUSH2 0x11C6 JUMP JUMPDEST SWAP2 POP PUSH2 0x211B JUMP JUMPDEST PUSH1 0x0 DUP8 DUP2 MSTORE PUSH1 0x2 PUSH1 0x20 MSTORE PUSH1 0x40 SWAP1 KECCAK256 PUSH1 0xB ADD SLOAD SWAP2 POP JUMPDEST PUSH2 0x2130 PUSH2 0x19AB DUP4 PUSH8 0xDE0B6B3A7640000 PUSH2 0x5A19 JUMP JUMPDEST SWAP2 POP POP PUSH2 0x2149 JUMP JUMPDEST PUSH2 0x2145 DUP7 DUP7 DUP7 PUSH1 0x1 PUSH2 0x40B8 JUMP JUMPDEST POP PUSH1 0x0 JUMPDEST SWAP6 SWAP5 POP POP POP POP POP JUMP JUMPDEST DUP1 SELFBALANCE LT ISZERO PUSH2 0x21A2 JUMPI PUSH1 0x40 MLOAD PUSH3 0x461BCD PUSH1 0xE5 SHL DUP2 MSTORE PUSH1 0x20 PUSH1 0x4 DUP3 ADD MSTORE PUSH1 0x1E PUSH1 0x24 DUP3 ADD MSTORE PUSH32 0x5468652062616C616E6365206973206E6F742073756666696369656E742E0000 PUSH1 0x44 DUP3 ADD MSTORE PUSH1 0x64 ADD PUSH2 0x905 JUMP JUMPDEST PUSH1 0x0 DUP3 PUSH1 0x1 PUSH1 0x1 PUSH1 0xA0 SHL SUB AND DUP3 PUSH1 0x40 MLOAD PUSH1 0x0 PUSH1 0x40 MLOAD DUP1 DUP4 SUB DUP2 DUP6 DUP8 GAS CALL SWAP3 POP POP POP RETURNDATASIZE DUP1 PUSH1 0x0 DUP2 EQ PUSH2 0x21EF JUMPI PUSH1 0x40 MLOAD SWAP2 POP PUSH1 0x1F NOT PUSH1 0x3F RETURNDATASIZE ADD AND DUP3 ADD PUSH1 0x40 MSTORE RETURNDATASIZE DUP3 MSTORE RETURNDATASIZE PUSH1 0x0 PUSH1 0x20 DUP5 ADD RETURNDATACOPY PUSH2 0x21F4 JUMP JUMPDEST PUSH1 0x60 SWAP2 POP JUMPDEST POP POP SWAP1 POP DUP1 PUSH2 0x2215 JUMPI PUSH1 0x40 MLOAD PUSH3 0x461BCD PUSH1 0xE5 SHL DUP2 MSTORE PUSH1 0x4 ADD PUSH2 0x905 SWAP1 PUSH2 0x5A6A JUMP JUMPDEST PUSH1 0x0 DUP1 MLOAD PUSH1 0x20 PUSH2 0x5ECB DUP4 CODECOPY DUP2 MLOAD SWAP2 MSTORE ADDRESS DUP5 DUP5 PUSH1 0x40 MLOAD PUSH2 0x2236 SWAP4 SWAP3 SWAP2 SWAP1 PUSH2 0x5A8F JUMP JUMPDEST PUSH1 0x40 MLOAD DUP1 SWAP2 SUB SWAP1 LOG1 POP POP POP JUMP JUMPDEST PUSH1 0x1 SLOAD PUSH1 0x0 SWAP1 PUSH1 0x1 PUSH1 0x1 PUSH1 0xA0 SHL SUB AND PUSH2 0x2264 DUP4 PUSH8 0xDE0B6B3A7640000 PUSH2 0x5A19 JUMP JUMPDEST PUSH1 0x40 MLOAD PUSH1 0x0 DUP2 DUP2 DUP2 DUP6 DUP8 GAS CALL SWAP3 POP POP POP RETURNDATASIZE DUP1 PUSH1 0x0 DUP2 EQ PUSH2 0x22A0 JUMPI PUSH1 0x40 MLOAD SWAP2 POP PUSH1 0x1F NOT PUSH1 0x3F RETURNDATASIZE ADD AND DUP3 ADD PUSH1 0x40 MSTORE RETURNDATASIZE DUP3 MSTORE RETURNDATASIZE PUSH1 0x0 PUSH1 0x20 DUP5 ADD RETURNDATACOPY PUSH2 0x22A5 JUMP JUMPDEST PUSH1 0x60 SWAP2 POP JUMPDEST POP POP SWAP1 POP DUP1 PUSH2 0x22C6 JUMPI PUSH1 0x40 MLOAD PUSH3 0x461BCD PUSH1 0xE5 SHL DUP2 MSTORE PUSH1 0x4 ADD PUSH2 0x905 SWAP1 PUSH2 0x5A6A JUMP JUMPDEST PUSH1 0x0 DUP1 MLOAD PUSH1 0x20 PUSH2 0x5ECB DUP4 CODECOPY DUP2 MLOAD SWAP2 MSTORE ADDRESS CALLER SELFBALANCE PUSH1 0x40 MLOAD PUSH2 0x1FF8 SWAP4 SWAP3 SWAP2 SWAP1 PUSH2 0x5A8F JUMP JUMPDEST PUSH1 0x0 PUSH1 0x60 PUSH1 0x0 PUSH2 0x22F9 DUP6 DUP6 PUSH1 0x0 PUSH2 0x156B JUMP JUMPDEST DUP2 MLOAD SWAP2 SWAP4 POP SWAP2 POP PUSH1 0x0 SUB PUSH2 0x2312 JUMPI PUSH1 0x0 SWAP3 POP POP POP PUSH2 0xA1E JUMP JUMPDEST PUSH2 0x2321 DUP6 DUP6 DUP5 PUSH1 0x4 PUSH1 0x0 PUSH2 0x42AD JUMP JUMPDEST PUSH1 0x0 DUP6 DUP2 MSTORE PUSH1 0x2 PUSH1 0x20 MSTORE PUSH1 0x40 DUP2 KECCAK256 PUSH1 0xA ADD SLOAD PUSH2 0x100 SWAP1 DIV PUSH1 0xFF AND ISZERO PUSH2 0x23B5 JUMPI PUSH1 0x0 JUMPDEST DUP4 MLOAD DUP2 LT ISZERO PUSH2 0x23AF JUMPI PUSH2 0x2355 DUP8 PUSH2 0x31EE JUMP JUMPDEST PUSH2 0x1A0 ADD MLOAD DUP5 DUP3 DUP2 MLOAD DUP2 LT PUSH2 0x236C JUMPI PUSH2 0x236C PUSH2 0x5AB3 JUMP JUMPDEST PUSH1 0x20 MUL PUSH1 0x20 ADD ADD MLOAD DUP2 MLOAD DUP2 LT PUSH2 0x2384 JUMPI PUSH2 0x2384 PUSH2 0x5AB3 JUMP JUMPDEST PUSH1 0x20 MUL PUSH1 0x20 ADD ADD MLOAD PUSH1 0x20 ADD MLOAD DUP3 PUSH2 0x239B SWAP2 SWAP1 PUSH2 0x5B16 JUMP JUMPDEST SWAP2 POP DUP1 PUSH2 0x23A7 DUP2 PUSH2 0x5AFD JUMP JUMPDEST SWAP2 POP POP PUSH2 0x2343 JUMP JUMPDEST POP PUSH2 0x23C6 JUMP JUMPDEST PUSH2 0x23BE DUP7 PUSH2 0x31EE JUMP JUMPDEST PUSH2 0x180 ADD MLOAD SWAP1 POP JUMPDEST PUSH1 0x0 PUSH20 0x0 PUSH4 0x4F6CA3CE PUSH2 0x23EB DUP5 PUSH2 0x2B85 JUMP JUMPDEST PUSH1 0x40 MLOAD DUP3 PUSH4 0xFFFFFFFF AND PUSH1 0xE0 SHL DUP2 MSTORE PUSH1 0x4 ADD PUSH2 0x2409 SWAP2 DUP2 MSTORE PUSH1 0x20 ADD SWAP1 JUMP JUMPDEST PUSH1 0x20 PUSH1 0x40 MLOAD DUP1 DUP4 SUB DUP2 DUP7 GAS DELEGATECALL ISZERO DUP1 ISZERO PUSH2 0x2426 JUMPI RETURNDATASIZE PUSH1 0x0 DUP1 RETURNDATACOPY RETURNDATASIZE PUSH1 0x0 REVERT JUMPDEST POP POP POP POP PUSH1 0x40 MLOAD RETURNDATASIZE PUSH1 0x1F NOT PUSH1 0x1F DUP3 ADD AND DUP3 ADD DUP1 PUSH1 0x40 MSTORE POP DUP2 ADD SWAP1 PUSH2 0x244A SWAP2 SWAP1 PUSH2 0x5C88 JUMP JUMPDEST PUSH1 0x40 MLOAD PUSH4 0x9CE5C4BF PUSH1 0xE0 SHL DUP2 MSTORE PUSH1 0x4 DUP2 ADD DUP6 SWAP1 MSTORE PUSH1 0x24 DUP2 ADD DUP3 SWAP1 MSTORE SWAP1 SWAP2 POP PUSH1 0x0 SWAP1 PUSH20 0x0 SWAP1 PUSH4 0x9CE5C4BF SWAP1 PUSH1 0x44 ADD PUSH1 0x20 PUSH1 0x40 MLOAD DUP1 DUP4 SUB DUP2 DUP7 GAS DELEGATECALL ISZERO DUP1 ISZERO PUSH2 0x24A7 JUMPI RETURNDATASIZE PUSH1 0x0 DUP1 RETURNDATACOPY RETURNDATASIZE PUSH1 0x0 REVERT JUMPDEST POP POP POP POP PUSH1 0x40 MLOAD RETURNDATASIZE PUSH1 0x1F NOT PUSH1 0x1F DUP3 ADD AND DUP3 ADD DUP1 PUSH1 0x40 MSTORE POP DUP2 ADD SWAP1 PUSH2 0x24CB SWAP2 SWAP1 PUSH2 0x5C88 JUMP JUMPDEST SWAP9 SWAP8 POP POP POP POP POP POP POP POP JUMP JUMPDEST PUSH1 0x1 PUSH1 0x1 PUSH1 0xA0 SHL SUB DUP3 AND PUSH1 0x0 SWAP1 DUP2 MSTORE PUSH1 0x3 PUSH1 0x20 MSTORE PUSH1 0x40 DUP2 KECCAK256 DUP1 SLOAD DUP4 SWAP3 SWAP1 PUSH2 0x24FF SWAP1 DUP5 SWAP1 PUSH2 0x5B16 JUMP JUMPDEST SWAP1 SWAP2 SSTORE POP POP POP POP JUMP JUMPDEST PUSH1 0x0 DUP4 DUP2 MSTORE PUSH1 0x2 PUSH1 0x20 SWAP1 DUP2 MSTORE PUSH1 0x40 DUP1 DUP4 KECCAK256 PUSH1 0x1 PUSH1 0x1 PUSH1 0xA0 SHL SUB DUP6 AND DUP5 MSTORE PUSH1 0x10 ADD SWAP1 SWAP2 MSTORE DUP2 KECCAK256 DUP1 SLOAD SWAP1 SWAP2 SUB PUSH2 0x2571 JUMPI PUSH1 0x0 DUP5 DUP2 MSTORE PUSH1 0x2 PUSH1 0x20 SWAP1 DUP2 MSTORE PUSH1 0x40 DUP3 KECCAK256 PUSH1 0xE ADD DUP1 SLOAD PUSH1 0x1 DUP2 ADD DUP3 SSTORE SWAP1 DUP4 MSTORE SWAP2 KECCAK256 ADD DUP1 SLOAD PUSH1 0x1 PUSH1 0x1 PUSH1 0xA0 SHL SUB NOT AND PUSH1 0x1 PUSH1 0x1 PUSH1 0xA0 SHL SUB DUP5 AND OR SWAP1 SSTORE JUMPDEST PUSH1 0x0 DUP1 JUMPDEST DUP5 MLOAD DUP2 LT ISZERO PUSH2 0x27E1 JUMPI PUSH1 0x2 PUSH1 0x0 DUP8 DUP2 MSTORE PUSH1 0x20 ADD SWAP1 DUP2 MSTORE PUSH1 0x20 ADD PUSH1 0x0 KECCAK256 PUSH1 0xC ADD DUP6 DUP3 DUP2 MLOAD DUP2 LT PUSH2 0x25A6 JUMPI PUSH2 0x25A6 PUSH2 0x5AB3 JUMP JUMPDEST PUSH1 0x20 MUL PUSH1 0x20 ADD ADD MLOAD DUP2 SLOAD DUP2 LT PUSH2 0x25BE JUMPI PUSH2 0x25BE PUSH2 0x5AB3 JUMP JUMPDEST PUSH1 0x0 SWAP2 DUP3 MSTORE PUSH1 0x20 DUP3 KECCAK256 PUSH1 0x9 PUSH1 0xB SWAP1 SWAP3 MUL ADD ADD SLOAD PUSH1 0xFF AND SWAP3 POP DUP3 PUSH1 0xB DUP2 GT ISZERO PUSH2 0x25E8 JUMPI PUSH2 0x25E8 PUSH2 0x534E JUMP JUMPDEST SUB PUSH2 0x26B0 JUMPI PUSH1 0x1 PUSH1 0x2 PUSH1 0x0 DUP9 DUP2 MSTORE PUSH1 0x20 ADD SWAP1 DUP2 MSTORE PUSH1 0x20 ADD PUSH1 0x0 KECCAK256 PUSH1 0xC ADD DUP7 DUP4 DUP2 MLOAD DUP2 LT PUSH2 0x2617 JUMPI PUSH2 0x2617 PUSH2 0x5AB3 JUMP JUMPDEST PUSH1 0x20 MUL PUSH1 0x20 ADD ADD MLOAD DUP2 SLOAD DUP2 LT PUSH2 0x262F JUMPI PUSH2 0x262F PUSH2 0x5AB3 JUMP JUMPDEST SWAP1 PUSH1 0x0 MSTORE PUSH1 0x20 PUSH1 0x0 KECCAK256 SWAP1 PUSH1 0xB MUL ADD PUSH1 0x9 ADD PUSH1 0x0 PUSH2 0x100 EXP DUP2 SLOAD DUP2 PUSH1 0xFF MUL NOT AND SWAP1 DUP4 PUSH1 0xB DUP2 GT ISZERO PUSH2 0x2661 JUMPI PUSH2 0x2661 PUSH2 0x534E JUMP JUMPDEST MUL OR SWAP1 SSTORE POP PUSH1 0x0 DUP1 MLOAD PUSH1 0x20 PUSH2 0x5E8B DUP4 CODECOPY DUP2 MLOAD SWAP2 MSTORE DUP7 DUP7 DUP4 DUP2 MLOAD DUP2 LT PUSH2 0x2688 JUMPI PUSH2 0x2688 PUSH2 0x5AB3 JUMP JUMPDEST PUSH1 0x20 MUL PUSH1 0x20 ADD ADD MLOAD PUSH1 0x1 CALLER PUSH1 0x40 MLOAD PUSH2 0x26A3 SWAP5 SWAP4 SWAP3 SWAP2 SWAP1 PUSH2 0x5CA1 JUMP JUMPDEST PUSH1 0x40 MLOAD DUP1 SWAP2 SUB SWAP1 LOG1 PUSH2 0x279A JUMP JUMPDEST PUSH1 0x2 DUP3 PUSH1 0xB DUP2 GT ISZERO PUSH2 0x26C4 JUMPI PUSH2 0x26C4 PUSH2 0x534E JUMP JUMPDEST SUB PUSH2 0x277F JUMPI PUSH1 0x3 PUSH1 0x2 PUSH1 0x0 DUP9 DUP2 MSTORE PUSH1 0x20 ADD SWAP1 DUP2 MSTORE PUSH1 0x20 ADD PUSH1 0x0 KECCAK256 PUSH1 0xC ADD DUP7 DUP4 DUP2 MLOAD DUP2 LT PUSH2 0x26F3 JUMPI PUSH2 0x26F3 PUSH2 0x5AB3 JUMP JUMPDEST PUSH1 0x20 MUL PUSH1 0x20 ADD ADD MLOAD DUP2 SLOAD DUP2 LT PUSH2 0x270B JUMPI PUSH2 0x270B PUSH2 0x5AB3 JUMP JUMPDEST SWAP1 PUSH1 0x0 MSTORE PUSH1 0x20 PUSH1 0x0 KECCAK256 SWAP1 PUSH1 0xB MUL ADD PUSH1 0x9 ADD PUSH1 0x0 PUSH2 0x100 EXP DUP2 SLOAD DUP2 PUSH1 0xFF MUL NOT AND SWAP1 DUP4 PUSH1 0xB DUP2 GT ISZERO PUSH2 0x273D JUMPI PUSH2 0x273D PUSH2 0x534E JUMP JUMPDEST MUL OR SWAP1 SSTORE POP PUSH1 0x0 DUP1 MLOAD PUSH1 0x20 PUSH2 0x5E8B DUP4 CODECOPY DUP2 MLOAD SWAP2 MSTORE DUP7 DUP7 DUP4 DUP2 MLOAD DUP2 LT PUSH2 0x2764 JUMPI PUSH2 0x2764 PUSH2 0x5AB3 JUMP JUMPDEST PUSH1 0x20 MUL PUSH1 0x20 ADD ADD MLOAD PUSH1 0x3 CALLER PUSH1 0x40 MLOAD PUSH2 0x26A3 SWAP5 SWAP4 SWAP3 SWAP2 SWAP1 PUSH2 0x5CA1 JUMP JUMPDEST DUP2 PUSH1 0x40 MLOAD PUSH4 0x66F643A5 PUSH1 0xE1 SHL DUP2 MSTORE PUSH1 0x4 ADD PUSH2 0x905 SWAP2 SWAP1 PUSH2 0x5CD6 JUMP JUMPDEST DUP3 PUSH1 0x0 ADD DUP6 DUP3 DUP2 MLOAD DUP2 LT PUSH2 0x27B0 JUMPI PUSH2 0x27B0 PUSH2 0x5AB3 JUMP JUMPDEST PUSH1 0x20 SWAP1 DUP2 MUL SWAP2 SWAP1 SWAP2 ADD DUP2 ADD MLOAD DUP3 SLOAD PUSH1 0x1 DUP2 ADD DUP5 SSTORE PUSH1 0x0 SWAP4 DUP5 MSTORE SWAP2 SWAP1 SWAP3 KECCAK256 ADD SSTORE DUP1 PUSH2 0x27D9 DUP2 PUSH2 0x5AFD JUMP JUMPDEST SWAP2 POP POP PUSH2 0x2575 JUMP JUMPDEST POP PUSH1 0x0 DUP6 DUP2 MSTORE PUSH1 0x2 PUSH1 0x20 MSTORE PUSH1 0x40 DUP2 KECCAK256 PUSH1 0x14 ADD DUP1 SLOAD SWAP2 PUSH2 0x27FF DUP4 PUSH2 0x5AFD JUMP JUMPDEST SWAP2 SWAP1 POP SSTORE POP PUSH2 0x280F DUP6 PUSH1 0x0 PUSH2 0x14E9 JUMP JUMPDEST ISZERO PUSH2 0x1B56 JUMPI PUSH1 0x0 DUP6 DUP2 MSTORE PUSH1 0x2 PUSH1 0x20 MSTORE PUSH1 0x40 DUP1 DUP3 KECCAK256 PUSH1 0x15 ADD DUP1 SLOAD PUSH2 0xFF00 NOT AND SWAP1 SSTORE MLOAD PUSH32 0x89BB035780742B4FE520972847D93DB0618ABD46516AF218E10FD3479347B7E4 SWAP2 PUSH2 0x2860 SWAP2 DUP9 SWAP2 SWAP1 CALLER SWAP1 PUSH2 0x5D0B JUMP JUMPDEST PUSH1 0x40 MLOAD DUP1 SWAP2 SUB SWAP1 LOG1 PUSH2 0x2873 DUP6 PUSH1 0x1 PUSH2 0x14E9 JUMP JUMPDEST ISZERO PUSH2 0x28CF JUMPI PUSH1 0x0 DUP6 DUP2 MSTORE PUSH1 0x2 PUSH1 0x20 MSTORE PUSH1 0x40 SWAP1 KECCAK256 PUSH1 0x15 ADD DUP1 SLOAD PUSH1 0x3 SWAP2 SWAP1 PUSH3 0xFF0000 NOT AND PUSH3 0x10000 DUP4 JUMPDEST MUL OR SWAP1 SSTORE POP PUSH1 0x0 DUP1 MLOAD PUSH1 0x20 PUSH2 0x5EAB DUP4 CODECOPY DUP2 MLOAD SWAP2 MSTORE DUP6 PUSH1 0x3 CALLER PUSH1 0x40 MLOAD PUSH2 0x28C2 SWAP4 SWAP3 SWAP2 SWAP1 PUSH2 0x5C5B JUMP JUMPDEST PUSH1 0x40 MLOAD DUP1 SWAP2 SUB SWAP1 LOG1 PUSH2 0x1B56 JUMP JUMPDEST PUSH1 0x0 DUP6 DUP2 MSTORE PUSH1 0x2 PUSH1 0x20 MSTORE PUSH1 0x40 SWAP1 DUP2 SWAP1 KECCAK256 PUSH1 0x15 ADD DUP1 SLOAD PUSH3 0xFF0000 NOT AND PUSH3 0x10000 OR SWAP1 SSTORE MLOAD PUSH1 0x0 DUP1 MLOAD PUSH1 0x20 PUSH2 0x5EAB DUP4 CODECOPY DUP2 MLOAD SWAP2 MSTORE SWAP1 PUSH2 0x2912 SWAP1 DUP8 SWAP1 PUSH1 0x1 SWAP1 CALLER SWAP1 PUSH2 0x5C5B JUMP JUMPDEST PUSH1 0x40 MLOAD DUP1 SWAP2 SUB SWAP1 LOG1 POP POP POP POP POP JUMP JUMPDEST PUSH1 0x1 PUSH1 0x1 PUSH1 0xA0 SHL SUB DUP3 AND PUSH1 0x0 SWAP1 DUP2 MSTORE PUSH1 0x3 PUSH1 0x20 MSTORE PUSH1 0x40 DUP2 KECCAK256 DUP1 SLOAD DUP4 SWAP3 SWAP1 PUSH2 0x24FF SWAP1 DUP5 SWAP1 PUSH2 0x5D2A JUMP JUMPDEST PUSH1 0x1 SLOAD PUSH1 0x1 PUSH1 0xA0 SHL SWAP1 DIV PUSH1 0xFF AND ISZERO PUSH2 0x2999 JUMPI PUSH1 0x40 MLOAD PUSH3 0x461BCD PUSH1 0xE5 SHL DUP2 MSTORE PUSH1 0x20 PUSH1 0x4 DUP3 ADD MSTORE PUSH1 0x13 PUSH1 0x24 DUP3 ADD MSTORE PUSH19 0x2A3432903637B1B59034B9903637B1B5B2B217 PUSH1 0x69 SHL PUSH1 0x44 DUP3 ADD MSTORE PUSH1 0x64 ADD PUSH2 0x905 JUMP JUMPDEST PUSH1 0x1 DUP1 SLOAD PUSH1 0xFF PUSH1 0xA0 SHL NOT AND PUSH1 0x1 PUSH1 0xA0 SHL OR SWAP1 SSTORE PUSH1 0x40 MLOAD PUSH1 0x0 SWAP1 PUSH1 0x1 PUSH1 0x1 PUSH1 0xA0 SHL SUB DUP5 AND SWAP1 DUP4 SWAP1 DUP4 DUP2 DUP2 DUP2 DUP6 DUP8 GAS CALL SWAP3 POP POP POP RETURNDATASIZE DUP1 PUSH1 0x0 DUP2 EQ PUSH2 0x29F7 JUMPI PUSH1 0x40 MLOAD SWAP2 POP PUSH1 0x1F NOT PUSH1 0x3F RETURNDATASIZE ADD AND DUP3 ADD PUSH1 0x40 MSTORE RETURNDATASIZE DUP3 MSTORE RETURNDATASIZE PUSH1 0x0 PUSH1 0x20 DUP5 ADD RETURNDATACOPY PUSH2 0x29FC JUMP JUMPDEST PUSH1 0x60 SWAP2 POP JUMPDEST POP POP SWAP1 POP DUP1 PUSH2 0x2A1D JUMPI PUSH1 0x40 MLOAD PUSH3 0x461BCD PUSH1 0xE5 SHL DUP2 MSTORE PUSH1 0x4 ADD PUSH2 0x905 SWAP1 PUSH2 0x5A6A JUMP JUMPDEST PUSH1 0x0 DUP1 MLOAD PUSH1 0x20 PUSH2 0x5ECB DUP4 CODECOPY DUP2 MLOAD SWAP2 MSTORE CALLER DUP5 DUP5 PUSH1 0x40 MLOAD PUSH2 0x2A3E SWAP4 SWAP3 SWAP2 SWAP1 PUSH2 0x5A8F JUMP JUMPDEST PUSH1 0x40 MLOAD DUP1 SWAP2 SUB SWAP1 LOG1 POP POP PUSH1 0x1 DUP1 SLOAD PUSH1 0xFF PUSH1 0xA0 SHL NOT AND SWAP1 SSTORE POP JUMP JUMPDEST PUSH1 0x0 PUSH1 0x60 PUSH1 0x0 PUSH2 0x2A6A DUP6 DUP6 PUSH1 0x1 PUSH2 0x156B JUMP JUMPDEST DUP2 MLOAD SWAP2 SWAP4 POP SWAP2 POP PUSH1 0x0 SUB PUSH2 0x2A83 JUMPI PUSH1 0x0 SWAP3 POP POP POP PUSH2 0xA1E JUMP JUMPDEST PUSH2 0x2A92 DUP6 DUP6 DUP5 PUSH1 0x4 PUSH1 0x1 PUSH2 0x42AD JUMP JUMPDEST PUSH1 0x0 DUP6 DUP2 MSTORE PUSH1 0x2 PUSH1 0x20 MSTORE PUSH1 0x40 DUP2 KECCAK256 PUSH1 0xA ADD SLOAD PUSH2 0x100 SWAP1 DIV PUSH1 0xFF AND ISZERO PUSH2 0x2B26 JUMPI PUSH1 0x0 JUMPDEST DUP4 MLOAD DUP2 LT ISZERO PUSH2 0x2B20 JUMPI PUSH2 0x2AC6 DUP8 PUSH2 0x31EE JUMP JUMPDEST PUSH2 0x1A0 ADD MLOAD DUP5 DUP3 DUP2 MLOAD DUP2 LT PUSH2 0x2ADD JUMPI PUSH2 0x2ADD PUSH2 0x5AB3 JUMP JUMPDEST PUSH1 0x20 MUL PUSH1 0x20 ADD ADD MLOAD DUP2 MLOAD DUP2 LT PUSH2 0x2AF5 JUMPI PUSH2 0x2AF5 PUSH2 0x5AB3 JUMP JUMPDEST PUSH1 0x20 MUL PUSH1 0x20 ADD ADD MLOAD PUSH1 0x20 ADD MLOAD DUP3 PUSH2 0x2B0C SWAP2 SWAP1 PUSH2 0x5B16 JUMP JUMPDEST SWAP2 POP DUP1 PUSH2 0x2B18 DUP2 PUSH2 0x5AFD JUMP JUMPDEST SWAP2 POP POP PUSH2 0x2AB4 JUMP JUMPDEST POP PUSH2 0x2B37 JUMP JUMPDEST PUSH2 0x2B2F DUP7 PUSH2 0x31EE JUMP JUMPDEST PUSH2 0x180 ADD MLOAD SWAP1 POP JUMPDEST PUSH1 0x0 PUSH20 0x0 PUSH4 0x4F6CA3CE PUSH2 0x23EB DUP5 PUSH2 0x447D JUMP JUMPDEST DUP1 ISZERO PUSH2 0x2B72 JUMPI PUSH2 0x2B6D DUP5 DUP5 DUP5 PUSH2 0x448A JUMP JUMPDEST PUSH2 0x2B7F JUMP JUMPDEST PUSH2 0x2B7F DUP5 DUP5 DUP5 PUSH1 0x0 PUSH2 0x40B8 JUMP JUMPDEST POP POP POP POP JUMP JUMPDEST PUSH1 0x0 PUSH2 0xA1E DUP3 PUSH1 0x24 PUSH2 0x2004 JUMP JUMPDEST PUSH1 0x0 PUSH2 0xA1E DUP3 PUSH1 0x18 PUSH2 0x2004 JUMP JUMPDEST PUSH1 0x0 DUP1 SLOAD PUSH1 0x1 PUSH1 0x1 PUSH1 0xA0 SHL SUB DUP4 DUP2 AND PUSH1 0x1 PUSH1 0x1 PUSH1 0xA0 SHL SUB NOT DUP4 AND DUP2 OR DUP5 SSTORE PUSH1 0x40 MLOAD SWAP2 SWAP1 SWAP3 AND SWAP3 DUP4 SWAP2 PUSH32 0x8BE0079C531659141344CD1FD0A4F28419497F9722A3DAAFE3B4186F6B6457E0 SWAP2 SWAP1 LOG3 POP POP JUMP JUMPDEST PUSH1 0x1 SLOAD PUSH1 0x40 MLOAD PUSH1 0x0 SWAP2 PUSH1 0x1 PUSH1 0x1 PUSH1 0xA0 SHL SUB AND SWAP1 SELFBALANCE SWAP1 DUP4 DUP2 DUP2 DUP2 DUP6 DUP8 GAS CALL SWAP3 POP POP POP RETURNDATASIZE DUP1 PUSH1 0x0 DUP2 EQ PUSH2 0x2C3C JUMPI PUSH1 0x40 MLOAD SWAP2 POP PUSH1 0x1F NOT PUSH1 0x3F RETURNDATASIZE ADD AND DUP3 ADD PUSH1 0x40 MSTORE RETURNDATASIZE DUP3 MSTORE RETURNDATASIZE PUSH1 0x0 PUSH1 0x20 DUP5 ADD RETURNDATACOPY PUSH2 0x2C41 JUMP JUMPDEST PUSH1 0x60 SWAP2 POP JUMPDEST POP POP SWAP1 POP DUP1 PUSH2 0x2C62 JUMPI PUSH1 0x40 MLOAD PUSH3 0x461BCD PUSH1 0xE5 SHL DUP2 MSTORE PUSH1 0x4 ADD PUSH2 0x905 SWAP1 PUSH2 0x5A6A JUMP JUMPDEST PUSH1 0x0 DUP1 MLOAD PUSH1 0x20 PUSH2 0x5ECB DUP4 CODECOPY DUP2 MLOAD SWAP2 MSTORE ADDRESS CALLER SELFBALANCE PUSH1 0x40 MLOAD PUSH2 0xD56 SWAP4 SWAP3 SWAP2 SWAP1 PUSH2 0x5A8F JUMP JUMPDEST PUSH1 0x0 DUP2 DUP2 MSTORE PUSH1 0x2 PUSH1 0x20 MSTORE PUSH1 0x40 DUP2 KECCAK256 PUSH1 0xD ADD SLOAD PUSH1 0x0 PUSH2 0x2CA0 DUP5 PUSH2 0x1B5D JUMP JUMPDEST SWAP1 POP PUSH2 0x2CAD DUP5 PUSH1 0x1 PUSH2 0x14E9 JUMP JUMPDEST ISZERO PUSH2 0x2CBC JUMPI POP PUSH1 0x1 SWAP4 SWAP3 POP POP POP JUMP JUMPDEST DUP2 PUSH1 0x0 SUB PUSH2 0x2CD7 JUMPI PUSH2 0x2CCD DUP5 PUSH2 0x4577 JUMP JUMPDEST POP PUSH1 0x0 SWAP4 SWAP3 POP POP POP JUMP JUMPDEST DUP1 MLOAD DUP3 PUSH1 0x0 PUSH2 0x2CE6 DUP3 DUP5 PUSH2 0x5C39 JUMP JUMPDEST SWAP1 POP PUSH1 0x0 PUSH2 0x2CF3 DUP9 PUSH2 0x18AE JUMP JUMPDEST SWAP1 POP PUSH1 0x0 JUMPDEST DUP6 MLOAD DUP2 LT ISZERO PUSH2 0x2E34 JUMPI PUSH1 0x0 DUP7 DUP3 DUP2 MLOAD DUP2 LT PUSH2 0x2D15 JUMPI PUSH2 0x2D15 PUSH2 0x5AB3 JUMP JUMPDEST PUSH1 0x20 MUL PUSH1 0x20 ADD ADD MLOAD PUSH1 0x60 ADD MLOAD PUSH1 0xB DUP2 GT ISZERO PUSH2 0x2D32 JUMPI PUSH2 0x2D32 PUSH2 0x534E JUMP JUMPDEST SUB PUSH2 0x2E22 JUMPI PUSH1 0x0 JUMPDEST DUP8 DUP2 LT ISZERO PUSH2 0x2E20 JUMPI DUP4 PUSH2 0x2D66 DUP12 DUP6 DUP5 DUP2 MLOAD DUP2 LT PUSH2 0x2D59 JUMPI PUSH2 0x2D59 PUSH2 0x5AB3 JUMP JUMPDEST PUSH1 0x20 MUL PUSH1 0x20 ADD ADD MLOAD PUSH2 0x9F7 JUMP JUMPDEST GT PUSH2 0x2E0E JUMPI PUSH2 0x2D91 DUP11 DUP4 DUP6 DUP5 DUP2 MLOAD DUP2 LT PUSH2 0x2D82 JUMPI PUSH2 0x2D82 PUSH2 0x5AB3 JUMP JUMPDEST PUSH1 0x20 MUL PUSH1 0x20 ADD ADD MLOAD PUSH1 0x1 PUSH2 0x45C2 JUMP JUMPDEST PUSH32 0xAD65127436138B4AFE97EF23BAF28ED14A5FB09500AD117EB196CD3BDB3DBE9F DUP11 DUP4 DUP6 DUP5 DUP2 MLOAD DUP2 LT PUSH2 0x2DC6 JUMPI PUSH2 0x2DC6 PUSH2 0x5AB3 JUMP JUMPDEST PUSH1 0x20 MUL PUSH1 0x20 ADD ADD MLOAD PUSH1 0x1 PUSH1 0x40 MLOAD PUSH2 0x2E01 SWAP5 SWAP4 SWAP3 SWAP2 SWAP1 SWAP4 DUP5 MSTORE PUSH1 0x20 DUP5 ADD SWAP3 SWAP1 SWAP3 MSTORE PUSH1 0x1 PUSH1 0x1 PUSH1 0xA0 SHL SUB AND PUSH1 0x40 DUP4 ADD MSTORE ISZERO ISZERO PUSH1 0x60 DUP3 ADD MSTORE PUSH1 0x80 ADD SWAP1 JUMP JUMPDEST PUSH1 0x40 MLOAD DUP1 SWAP2 SUB SWAP1 LOG1 PUSH2 0x2E20 JUMP JUMPDEST DUP1 PUSH2 0x2E18 DUP2 PUSH2 0x5AFD JUMP JUMPDEST SWAP2 POP POP PUSH2 0x2D3A JUMP JUMPDEST POP JUMPDEST DUP1 PUSH2 0x2E2C DUP2 PUSH2 0x5AFD JUMP JUMPDEST SWAP2 POP POP PUSH2 0x2CF8 JUMP JUMPDEST POP PUSH2 0x2E3E DUP9 PUSH2 0x4577 JUMP JUMPDEST PUSH2 0x2E49 DUP9 PUSH1 0x0 PUSH2 0x14E9 JUMP JUMPDEST ISZERO PUSH2 0x2E5E JUMPI PUSH2 0x2E59 DUP9 PUSH1 0x3 PUSH2 0x46A9 JUMP JUMPDEST PUSH2 0x2E69 JUMP JUMPDEST PUSH2 0x2E69 DUP9 PUSH1 0x2 PUSH2 0x46A9 JUMP JUMPDEST POP PUSH1 0x0 SWAP8 SWAP7 POP POP POP POP POP POP POP JUMP JUMPDEST PUSH1 0x0 DUP3 DUP2 MSTORE PUSH1 0x2 PUSH1 0x20 MSTORE PUSH1 0x40 SWAP1 KECCAK256 PUSH1 0xC ADD DUP1 SLOAD PUSH1 0xB SWAP2 SWAP1 DUP4 SWAP1 DUP2 LT PUSH2 0x2E9E JUMPI PUSH2 0x2E9E PUSH2 0x5AB3 JUMP JUMPDEST SWAP1 PUSH1 0x0 MSTORE PUSH1 0x20 PUSH1 0x0 KECCAK256 SWAP1 PUSH1 0xB MUL ADD PUSH1 0x9 ADD PUSH1 0x0 PUSH2 0x100 EXP DUP2 SLOAD DUP2 PUSH1 0xFF MUL NOT AND SWAP1 DUP4 PUSH1 0xB DUP2 GT ISZERO PUSH2 0x2ED0 JUMPI PUSH2 0x2ED0 PUSH2 0x534E JUMP JUMPDEST MUL OR SWAP1 SSTORE POP PUSH1 0x0 DUP1 MLOAD PUSH1 0x20 PUSH2 0x5E8B DUP4 CODECOPY DUP2 MLOAD SWAP2 MSTORE DUP3 DUP3 PUSH1 0xB CALLER PUSH1 0x40 MLOAD PUSH2 0x1FF8 SWAP5 SWAP4 SWAP3 SWAP2 SWAP1 PUSH2 0x5CA1 JUMP JUMPDEST PUSH1 0x0 PUSH2 0x2F03 PUSH2 0x2023 JUMP JUMPDEST PUSH1 0x0 DUP3 DUP2 MSTORE PUSH1 0x2 PUSH1 0x20 MSTORE PUSH1 0x40 DUP2 KECCAK256 PUSH1 0xE DUP2 ADD SLOAD PUSH1 0xD SWAP1 SWAP2 ADD SLOAD SWAP1 SWAP2 PUSH2 0x2F27 DUP6 PUSH2 0x1B5D JUMP JUMPDEST SWAP1 POP PUSH2 0x2F34 DUP6 PUSH1 0x0 PUSH2 0x14E9 JUMP JUMPDEST ISZERO PUSH2 0x2F44 JUMPI POP PUSH1 0x1 SWAP5 SWAP4 POP POP POP POP JUMP JUMPDEST DUP3 ISZERO DUP1 ISZERO PUSH2 0x2F51 JUMPI POP DUP2 ISZERO ISZERO JUMPDEST ISZERO PUSH2 0x2F6A JUMPI PUSH2 0x2F5F DUP6 PUSH2 0x4701 JUMP JUMPDEST POP PUSH1 0x0 SWAP5 SWAP4 POP POP POP POP JUMP JUMPDEST DUP3 ISZERO DUP1 ISZERO PUSH2 0x2F76 JUMPI POP DUP2 ISZERO JUMPDEST ISZERO PUSH2 0x2FC9 JUMPI PUSH2 0x2F84 DUP6 PUSH2 0x474D JUMP JUMPDEST PUSH1 0x0 DUP6 DUP2 MSTORE PUSH1 0x2 PUSH1 0x20 MSTORE PUSH1 0x40 DUP2 KECCAK256 DUP1 SLOAD PUSH1 0xB SWAP1 SWAP2 ADD SLOAD PUSH1 0x1 PUSH1 0x1 PUSH1 0xA0 SHL SUB SWAP1 SWAP2 AND SWAP2 SWAP1 PUSH2 0x2FB0 SWAP1 PUSH2 0x19AB JUMP JUMPDEST SWAP1 POP PUSH2 0x2FBC DUP3 DUP3 PUSH2 0x2152 JUMP JUMPDEST POP PUSH1 0x0 SWAP7 SWAP6 POP POP POP POP POP POP JUMP JUMPDEST DUP1 MLOAD DUP4 PUSH1 0x0 PUSH2 0x2FD8 DUP3 DUP5 PUSH2 0x5C39 JUMP JUMPDEST SWAP1 POP PUSH1 0x0 PUSH2 0x2FE5 DUP10 PUSH2 0x1A50 JUMP JUMPDEST SWAP1 POP PUSH1 0x0 JUMPDEST DUP6 MLOAD DUP2 LT ISZERO PUSH2 0x314D JUMPI PUSH1 0x0 DUP7 DUP3 DUP2 MLOAD DUP2 LT PUSH2 0x3007 JUMPI PUSH2 0x3007 PUSH2 0x5AB3 JUMP JUMPDEST PUSH1 0x20 MUL PUSH1 0x20 ADD ADD MLOAD PUSH1 0x60 ADD MLOAD PUSH1 0xB DUP2 GT ISZERO PUSH2 0x3024 JUMPI PUSH2 0x3024 PUSH2 0x534E JUMP JUMPDEST SUB PUSH2 0x313B JUMPI PUSH1 0x0 JUMPDEST DUP9 DUP2 LT ISZERO PUSH2 0x3139 JUMPI DUP4 PUSH2 0x307F DUP13 DUP6 DUP5 DUP2 MLOAD DUP2 LT PUSH2 0x304B JUMPI PUSH2 0x304B PUSH2 0x5AB3 JUMP JUMPDEST PUSH1 0x20 MUL PUSH1 0x20 ADD ADD MLOAD PUSH1 0x0 DUP3 DUP2 MSTORE PUSH1 0x2 PUSH1 0x20 SWAP1 DUP2 MSTORE PUSH1 0x40 DUP1 DUP4 KECCAK256 PUSH1 0x1 PUSH1 0x1 PUSH1 0xA0 SHL SUB DUP6 AND DUP5 MSTORE PUSH1 0x10 ADD SWAP1 SWAP2 MSTORE SWAP1 KECCAK256 SLOAD SWAP3 SWAP2 POP POP JUMP JUMPDEST GT PUSH2 0x3127 JUMPI PUSH2 0x30AA DUP12 DUP4 DUP6 DUP5 DUP2 MLOAD DUP2 LT PUSH2 0x309B JUMPI PUSH2 0x309B PUSH2 0x5AB3 JUMP JUMPDEST PUSH1 0x20 MUL PUSH1 0x20 ADD ADD MLOAD PUSH1 0x0 PUSH2 0x45C2 JUMP JUMPDEST PUSH32 0xAD65127436138B4AFE97EF23BAF28ED14A5FB09500AD117EB196CD3BDB3DBE9F DUP12 DUP4 DUP6 DUP5 DUP2 MLOAD DUP2 LT PUSH2 0x30DF JUMPI PUSH2 0x30DF PUSH2 0x5AB3 JUMP JUMPDEST PUSH1 0x20 MUL PUSH1 0x20 ADD ADD MLOAD PUSH1 0x0 PUSH1 0x40 MLOAD PUSH2 0x311A SWAP5 SWAP4 SWAP3 SWAP2 SWAP1 SWAP4 DUP5 MSTORE PUSH1 0x20 DUP5 ADD SWAP3 SWAP1 SWAP3 MSTORE PUSH1 0x1 PUSH1 0x1 PUSH1 0xA0 SHL SUB AND PUSH1 0x40 DUP4 ADD MSTORE ISZERO ISZERO PUSH1 0x60 DUP3 ADD MSTORE PUSH1 0x80 ADD SWAP1 JUMP JUMPDEST PUSH1 0x40 MLOAD DUP1 SWAP2 SUB SWAP1 LOG1 PUSH2 0x3139 JUMP JUMPDEST DUP1 PUSH2 0x3131 DUP2 PUSH2 0x5AFD JUMP JUMPDEST SWAP2 POP POP PUSH2 0x302C JUMP JUMPDEST POP JUMPDEST DUP1 PUSH2 0x3145 DUP2 PUSH2 0x5AFD JUMP JUMPDEST SWAP2 POP POP PUSH2 0x2FEA JUMP JUMPDEST POP PUSH2 0x3157 DUP10 PUSH2 0x4701 JUMP JUMPDEST PUSH2 0x3162 DUP10 PUSH1 0x1 PUSH2 0x14E9 JUMP JUMPDEST ISZERO PUSH2 0x3177 JUMPI PUSH2 0x3172 DUP10 PUSH1 0x3 PUSH2 0x46A9 JUMP JUMPDEST PUSH2 0x3182 JUMP JUMPDEST PUSH2 0x3182 DUP10 PUSH1 0x1 PUSH2 0x46A9 JUMP JUMPDEST POP POP POP POP PUSH1 0x0 SWAP4 POP POP POP POP JUMPDEST SWAP2 SWAP1 POP JUMP JUMPDEST PUSH1 0x0 DUP1 PUSH2 0x319F DUP4 PUSH2 0x47E4 JUMP JUMPDEST SWAP1 POP PUSH32 0x9096640C11BD5636CED741C9725E5FF774B334455C80E15491F15BB3AF0BC265 CALLER DUP3 DUP6 PUSH1 0x40 MLOAD PUSH2 0x31D4 SWAP4 SWAP3 SWAP2 SWAP1 PUSH2 0x5B29 JUMP JUMPDEST PUSH1 0x40 MLOAD DUP1 SWAP2 SUB SWAP1 LOG1 SWAP3 SWAP2 POP POP JUMP JUMPDEST PUSH2 0x1566 DUP4 CALLER DUP5 DUP5 PUSH2 0x4A81 JUMP JUMPDEST PUSH2 0x31F6 PUSH2 0x4BF2 JUMP JUMPDEST PUSH2 0x31FE PUSH2 0x4BF2 JUMP JUMPDEST PUSH1 0x0 DUP4 DUP2 MSTORE PUSH1 0x2 PUSH1 0x20 DUP2 DUP2 MSTORE PUSH1 0x40 DUP4 KECCAK256 DUP1 SLOAD PUSH1 0x1 PUSH1 0x1 PUSH1 0xA0 SHL SUB AND DUP6 MSTORE PUSH1 0x1 DUP2 ADD SLOAD DUP6 DUP4 ADD MSTORE SWAP3 DUP7 SWAP1 MSTORE DUP2 SWAP1 MSTORE ADD DUP1 SLOAD PUSH2 0x3237 SWAP1 PUSH2 0x5AC9 JUMP JUMPDEST DUP1 PUSH1 0x1F ADD PUSH1 0x20 DUP1 SWAP2 DIV MUL PUSH1 0x20 ADD PUSH1 0x40 MLOAD SWAP1 DUP2 ADD PUSH1 0x40 MSTORE DUP1 SWAP3 SWAP2 SWAP1 DUP2 DUP2 MSTORE PUSH1 0x20 ADD DUP3 DUP1 SLOAD PUSH2 0x3263 SWAP1 PUSH2 0x5AC9 JUMP JUMPDEST DUP1 ISZERO PUSH2 0x32B0 JUMPI DUP1 PUSH1 0x1F LT PUSH2 0x3285 JUMPI PUSH2 0x100 DUP1 DUP4 SLOAD DIV MUL DUP4 MSTORE SWAP2 PUSH1 0x20 ADD SWAP2 PUSH2 0x32B0 JUMP JUMPDEST DUP3 ADD SWAP2 SWAP1 PUSH1 0x0 MSTORE PUSH1 0x20 PUSH1 0x0 KECCAK256 SWAP1 JUMPDEST DUP2 SLOAD DUP2 MSTORE SWAP1 PUSH1 0x1 ADD SWAP1 PUSH1 0x20 ADD DUP1 DUP4 GT PUSH2 0x3293 JUMPI DUP3 SWAP1 SUB PUSH1 0x1F AND DUP3 ADD SWAP2 JUMPDEST POP POP POP POP PUSH1 0x40 DUP1 DUP5 ADD SWAP3 SWAP1 SWAP3 MSTORE POP PUSH1 0x0 DUP5 DUP2 MSTORE PUSH1 0x2 PUSH1 0x20 MSTORE KECCAK256 PUSH1 0x3 ADD DUP1 SLOAD PUSH2 0x32D7 SWAP1 PUSH2 0x5AC9 JUMP JUMPDEST DUP1 PUSH1 0x1F ADD PUSH1 0x20 DUP1 SWAP2 DIV MUL PUSH1 0x20 ADD PUSH1 0x40 MLOAD SWAP1 DUP2 ADD PUSH1 0x40 MSTORE DUP1 SWAP3 SWAP2 SWAP1 DUP2 DUP2 MSTORE PUSH1 0x20 ADD DUP3 DUP1 SLOAD PUSH2 0x3303 SWAP1 PUSH2 0x5AC9 JUMP JUMPDEST DUP1 ISZERO PUSH2 0x3350 JUMPI DUP1 PUSH1 0x1F LT PUSH2 0x3325 JUMPI PUSH2 0x100 DUP1 DUP4 SLOAD DIV MUL DUP4 MSTORE SWAP2 PUSH1 0x20 ADD SWAP2 PUSH2 0x3350 JUMP JUMPDEST DUP3 ADD SWAP2 SWAP1 PUSH1 0x0 MSTORE PUSH1 0x20 PUSH1 0x0 KECCAK256 SWAP1 JUMPDEST DUP2 SLOAD DUP2 MSTORE SWAP1 PUSH1 0x1 ADD SWAP1 PUSH1 0x20 ADD DUP1 DUP4 GT PUSH2 0x3333 JUMPI DUP3 SWAP1 SUB PUSH1 0x1F AND DUP3 ADD SWAP2 JUMPDEST POP POP POP POP POP PUSH1 0x60 DUP3 ADD MSTORE PUSH1 0x0 DUP4 DUP2 MSTORE PUSH1 0x2 PUSH1 0x20 DUP2 DUP2 MSTORE PUSH1 0x40 DUP1 DUP5 KECCAK256 PUSH1 0x4 DUP2 ADD SLOAD PUSH1 0x80 DUP8 ADD MSTORE PUSH1 0x5 DUP2 ADD SLOAD PUSH1 0xA0 DUP8 ADD MSTORE PUSH1 0x6 DUP2 ADD SLOAD PUSH1 0xC0 DUP8 ADD MSTORE SWAP4 DUP8 SWAP1 MSTORE SWAP2 DUP2 MSTORE PUSH1 0x7 SWAP1 SWAP3 ADD DUP1 SLOAD DUP3 MLOAD DUP2 DUP6 MUL DUP2 ADD DUP6 ADD SWAP1 SWAP4 MSTORE DUP1 DUP4 MSTORE SWAP2 SWAP3 SWAP1 SWAP2 SWAP1 DUP4 ADD DUP3 DUP3 DUP1 ISZERO PUSH2 0x33DA JUMPI PUSH1 0x20 MUL DUP3 ADD SWAP2 SWAP1 PUSH1 0x0 MSTORE PUSH1 0x20 PUSH1 0x0 KECCAK256 SWAP1 JUMPDEST DUP2 SLOAD DUP2 MSTORE PUSH1 0x20 ADD SWAP1 PUSH1 0x1 ADD SWAP1 DUP1 DUP4 GT PUSH2 0x33C6 JUMPI JUMPDEST POP POP POP POP POP PUSH1 0xE0 DUP3 ADD MSTORE PUSH1 0x0 DUP4 DUP2 MSTORE PUSH1 0x2 PUSH1 0x20 DUP2 DUP2 MSTORE PUSH1 0x40 DUP4 KECCAK256 PUSH1 0x8 DUP2 ADD SLOAD PUSH2 0x100 DUP1 DUP8 ADD SWAP2 SWAP1 SWAP2 MSTORE PUSH1 0x9 DUP3 ADD SLOAD PUSH2 0x120 DUP8 ADD MSTORE PUSH1 0xA DUP3 ADD SLOAD PUSH1 0xFF DUP1 DUP3 AND ISZERO ISZERO PUSH2 0x140 DUP10 ADD MSTORE SWAP1 DUP3 SWAP1 DIV DUP2 AND ISZERO ISZERO PUSH2 0x160 DUP9 ADD MSTORE PUSH1 0xB DUP4 ADD SLOAD PUSH2 0x180 DUP9 ADD MSTORE PUSH1 0x11 DUP4 ADD SLOAD PUSH2 0x200 DUP9 ADD MSTORE PUSH1 0x12 DUP4 ADD SLOAD PUSH2 0x220 DUP9 ADD MSTORE PUSH1 0x13 DUP4 ADD SLOAD PUSH2 0x240 DUP9 ADD MSTORE PUSH1 0x14 DUP4 ADD SLOAD PUSH2 0x260 DUP9 ADD MSTORE PUSH1 0x15 SWAP1 SWAP3 ADD SLOAD DUP1 DUP4 AND ISZERO ISZERO PUSH2 0x280 DUP9 ADD MSTORE SWAP1 DUP2 DIV DUP3 AND ISZERO ISZERO PUSH2 0x2A0 DUP8 ADD MSTORE SWAP4 DUP8 SWAP1 MSTORE SWAP2 SWAP1 MSTORE PUSH2 0x2C0 DUP4 ADD SWAP2 PUSH3 0x10000 SWAP1 DIV AND PUSH1 0x7 DUP2 GT ISZERO PUSH2 0x34A8 JUMPI PUSH2 0x34A8 PUSH2 0x534E JUMP JUMPDEST SWAP1 DUP2 PUSH1 0x7 DUP2 GT ISZERO PUSH2 0x34BB JUMPI PUSH2 0x34BB PUSH2 0x534E JUMP JUMPDEST SWAP1 MSTORE POP PUSH1 0x0 DUP4 DUP2 MSTORE PUSH1 0x2 PUSH1 0x20 SWAP1 DUP2 MSTORE PUSH1 0x40 DUP1 DUP4 KECCAK256 PUSH1 0xC ADD DUP1 SLOAD DUP3 MLOAD DUP2 DUP6 MUL DUP2 ADD DUP6 ADD SWAP1 SWAP4 MSTORE DUP1 DUP4 MSTORE SWAP2 SWAP4 SWAP1 SWAP3 DUP5 ADD JUMPDEST DUP3 DUP3 LT ISZERO PUSH2 0x3758 JUMPI PUSH1 0x0 DUP5 DUP2 MSTORE PUSH1 0x20 SWAP1 KECCAK256 PUSH1 0x40 DUP1 MLOAD PUSH2 0x180 DUP2 ADD SWAP1 SWAP2 MSTORE PUSH1 0xB DUP5 MUL SWAP1 SWAP2 ADD DUP1 SLOAD DUP3 SWAP1 PUSH1 0xA0 DUP3 ADD SWAP1 DUP4 SWAP1 DUP3 SWAP1 DUP3 SWAP1 PUSH2 0x3526 SWAP1 PUSH2 0x5AC9 JUMP JUMPDEST DUP1 PUSH1 0x1F ADD PUSH1 0x20 DUP1 SWAP2 DIV MUL PUSH1 0x20 ADD PUSH1 0x40 MLOAD SWAP1 DUP2 ADD PUSH1 0x40 MSTORE DUP1 SWAP3 SWAP2 SWAP1 DUP2 DUP2 MSTORE PUSH1 0x20 ADD DUP3 DUP1 SLOAD PUSH2 0x3552 SWAP1 PUSH2 0x5AC9 JUMP JUMPDEST DUP1 ISZERO PUSH2 0x359F JUMPI DUP1 PUSH1 0x1F LT PUSH2 0x3574 JUMPI PUSH2 0x100 DUP1 DUP4 SLOAD DIV MUL DUP4 MSTORE SWAP2 PUSH1 0x20 ADD SWAP2 PUSH2 0x359F JUMP JUMPDEST DUP3 ADD SWAP2 SWAP1 PUSH1 0x0 MSTORE PUSH1 0x20 PUSH1 0x0 KECCAK256 SWAP1 JUMPDEST DUP2 SLOAD DUP2 MSTORE SWAP1 PUSH1 0x1 ADD SWAP1 PUSH1 0x20 ADD DUP1 DUP4 GT PUSH2 0x3582 JUMPI DUP3 SWAP1 SUB PUSH1 0x1F AND DUP3 ADD SWAP2 JUMPDEST POP POP POP POP POP DUP2 MSTORE PUSH1 0x20 ADD PUSH1 0x1 DUP3 ADD SLOAD DUP2 MSTORE PUSH1 0x20 ADD PUSH1 0x2 DUP3 ADD SLOAD DUP2 MSTORE PUSH1 0x20 ADD PUSH1 0x3 DUP3 ADD SLOAD DUP2 MSTORE PUSH1 0x20 ADD PUSH1 0x4 DUP3 ADD SLOAD DUP2 MSTORE PUSH1 0x20 ADD PUSH1 0x5 DUP3 ADD SLOAD DUP2 MSTORE PUSH1 0x20 ADD PUSH1 0x6 DUP3 ADD DUP1 SLOAD PUSH2 0x35EA SWAP1 PUSH2 0x5AC9 JUMP JUMPDEST DUP1 PUSH1 0x1F ADD PUSH1 0x20 DUP1 SWAP2 DIV MUL PUSH1 0x20 ADD PUSH1 0x40 MLOAD SWAP1 DUP2 ADD PUSH1 0x40 MSTORE DUP1 SWAP3 SWAP2 SWAP1 DUP2 DUP2 MSTORE PUSH1 0x20 ADD DUP3 DUP1 SLOAD PUSH2 0x3616 SWAP1 PUSH2 0x5AC9 JUMP JUMPDEST DUP1 ISZERO PUSH2 0x3663 JUMPI DUP1 PUSH1 0x1F LT PUSH2 0x3638 JUMPI PUSH2 0x100 DUP1 DUP4 SLOAD DIV MUL DUP4 MSTORE SWAP2 PUSH1 0x20 ADD SWAP2 PUSH2 0x3663 JUMP JUMPDEST DUP3 ADD SWAP2 SWAP1 PUSH1 0x0 MSTORE PUSH1 0x20 PUSH1 0x0 KECCAK256 SWAP1 JUMPDEST DUP2 SLOAD DUP2 MSTORE SWAP1 PUSH1 0x1 ADD SWAP1 PUSH1 0x20 ADD DUP1 DUP4 GT PUSH2 0x3646 JUMPI DUP3 SWAP1 SUB PUSH1 0x1F AND DUP3 ADD SWAP2 JUMPDEST POP POP POP POP POP DUP2 MSTORE POP POP DUP2 MSTORE PUSH1 0x20 ADD PUSH1 0x7 DUP3 ADD SLOAD DUP2 MSTORE PUSH1 0x20 ADD PUSH1 0x8 DUP3 ADD DUP1 SLOAD PUSH2 0x368A SWAP1 PUSH2 0x5AC9 JUMP JUMPDEST DUP1 PUSH1 0x1F ADD PUSH1 0x20 DUP1 SWAP2 DIV MUL PUSH1 0x20 ADD PUSH1 0x40 MLOAD SWAP1 DUP2 ADD PUSH1 0x40 MSTORE DUP1 SWAP3 SWAP2 SWAP1 DUP2 DUP2 MSTORE PUSH1 0x20 ADD DUP3 DUP1 SLOAD PUSH2 0x36B6 SWAP1 PUSH2 0x5AC9 JUMP JUMPDEST DUP1 ISZERO PUSH2 0x3703 JUMPI DUP1 PUSH1 0x1F LT PUSH2 0x36D8 JUMPI PUSH2 0x100 DUP1 DUP4 SLOAD DIV MUL DUP4 MSTORE SWAP2 PUSH1 0x20 ADD SWAP2 PUSH2 0x3703 JUMP JUMPDEST DUP3 ADD SWAP2 SWAP1 PUSH1 0x0 MSTORE PUSH1 0x20 PUSH1 0x0 KECCAK256 SWAP1 JUMPDEST DUP2 SLOAD DUP2 MSTORE SWAP1 PUSH1 0x1 ADD SWAP1 PUSH1 0x20 ADD DUP1 DUP4 GT PUSH2 0x36E6 JUMPI DUP3 SWAP1 SUB PUSH1 0x1F AND DUP3 ADD SWAP2 JUMPDEST POP POP POP SWAP2 DUP4 MSTORE POP POP PUSH1 0x9 DUP3 ADD SLOAD PUSH1 0x20 SWAP1 SWAP2 ADD SWAP1 PUSH1 0xFF AND PUSH1 0xB DUP2 GT ISZERO PUSH2 0x372A JUMPI PUSH2 0x372A PUSH2 0x534E JUMP JUMPDEST PUSH1 0xB DUP2 GT ISZERO PUSH2 0x373B JUMPI PUSH2 0x373B PUSH2 0x534E JUMP JUMPDEST DUP2 MSTORE PUSH1 0x20 ADD PUSH1 0xA DUP3 ADD SLOAD DUP2 MSTORE POP POP DUP2 MSTORE PUSH1 0x20 ADD SWAP1 PUSH1 0x1 ADD SWAP1 PUSH2 0x34EA JUMP JUMPDEST POP POP POP POP PUSH2 0x1A0 DUP3 ADD MSTORE PUSH1 0x0 DUP4 DUP2 MSTORE PUSH1 0x2 PUSH1 0x20 MSTORE PUSH1 0x40 DUP2 KECCAK256 PUSH1 0xD DUP2 ADD SLOAD PUSH1 0xE SWAP1 SWAP2 ADD SLOAD SWAP1 SWAP2 DUP3 PUSH1 0x1 PUSH1 0x1 PUSH1 0x40 SHL SUB DUP2 GT ISZERO PUSH2 0x3795 JUMPI PUSH2 0x3795 PUSH2 0x4D21 JUMP JUMPDEST PUSH1 0x40 MLOAD SWAP1 DUP1 DUP3 MSTORE DUP1 PUSH1 0x20 MUL PUSH1 0x20 ADD DUP3 ADD PUSH1 0x40 MSTORE DUP1 ISZERO PUSH2 0x37CE JUMPI DUP2 PUSH1 0x20 ADD JUMPDEST PUSH2 0x37BB PUSH2 0x4BC8 JUMP JUMPDEST DUP2 MSTORE PUSH1 0x20 ADD SWAP1 PUSH1 0x1 SWAP1 SUB SWAP1 DUP2 PUSH2 0x37B3 JUMPI SWAP1 POP JUMPDEST POP SWAP1 POP PUSH1 0x0 DUP3 PUSH1 0x1 PUSH1 0x1 PUSH1 0x40 SHL SUB DUP2 GT ISZERO PUSH2 0x37EB JUMPI PUSH2 0x37EB PUSH2 0x4D21 JUMP JUMPDEST PUSH1 0x40 MLOAD SWAP1 DUP1 DUP3 MSTORE DUP1 PUSH1 0x20 MUL PUSH1 0x20 ADD DUP3 ADD PUSH1 0x40 MSTORE DUP1 ISZERO PUSH2 0x3824 JUMPI DUP2 PUSH1 0x20 ADD JUMPDEST PUSH2 0x3811 PUSH2 0x4BC8 JUMP JUMPDEST DUP2 MSTORE PUSH1 0x20 ADD SWAP1 PUSH1 0x1 SWAP1 SUB SWAP1 DUP2 PUSH2 0x3809 JUMPI SWAP1 POP JUMPDEST POP SWAP1 POP PUSH1 0x0 JUMPDEST DUP5 DUP2 LT ISZERO PUSH2 0x38A5 JUMPI PUSH1 0x0 DUP9 DUP2 MSTORE PUSH1 0x2 PUSH1 0x20 MSTORE PUSH1 0x40 SWAP1 KECCAK256 PUSH1 0xD ADD DUP1 SLOAD PUSH2 0x3875 SWAP2 DUP11 SWAP2 DUP5 SWAP1 DUP2 LT PUSH2 0x385B JUMPI PUSH2 0x385B PUSH2 0x5AB3 JUMP JUMPDEST PUSH1 0x0 SWAP2 DUP3 MSTORE PUSH1 0x20 SWAP1 SWAP2 KECCAK256 ADD SLOAD PUSH1 0x1 PUSH1 0x1 PUSH1 0xA0 SHL SUB AND PUSH2 0xD99 JUMP JUMPDEST DUP4 DUP3 DUP2 MLOAD DUP2 LT PUSH2 0x3887 JUMPI PUSH2 0x3887 PUSH2 0x5AB3 JUMP JUMPDEST PUSH1 0x20 MUL PUSH1 0x20 ADD ADD DUP2 SWAP1 MSTORE POP DUP1 DUP1 PUSH2 0x389D SWAP1 PUSH2 0x5AFD JUMP JUMPDEST SWAP2 POP POP PUSH2 0x382A JUMP JUMPDEST POP PUSH1 0x0 JUMPDEST DUP4 DUP2 LT ISZERO PUSH2 0x3924 JUMPI PUSH1 0x0 DUP9 DUP2 MSTORE PUSH1 0x2 PUSH1 0x20 MSTORE PUSH1 0x40 SWAP1 KECCAK256 PUSH1 0xE ADD DUP1 SLOAD PUSH2 0x38F4 SWAP2 DUP11 SWAP2 DUP5 SWAP1 DUP2 LT PUSH2 0x38DA JUMPI PUSH2 0x38DA PUSH2 0x5AB3 JUMP JUMPDEST PUSH1 0x0 SWAP2 DUP3 MSTORE PUSH1 0x20 SWAP1 SWAP2 KECCAK256 ADD SLOAD PUSH1 0x1 PUSH1 0x1 PUSH1 0xA0 SHL SUB AND PUSH2 0x1217 JUMP JUMPDEST DUP3 DUP3 DUP2 MLOAD DUP2 LT PUSH2 0x3906 JUMPI PUSH2 0x3906 PUSH2 0x5AB3 JUMP JUMPDEST PUSH1 0x20 MUL PUSH1 0x20 ADD ADD DUP2 SWAP1 MSTORE POP DUP1 DUP1 PUSH2 0x391C SWAP1 PUSH2 0x5AFD JUMP JUMPDEST SWAP2 POP POP PUSH2 0x38A9 JUMP JUMPDEST POP PUSH2 0x1C0 DUP6 ADD SWAP2 SWAP1 SWAP2 MSTORE PUSH2 0x1E0 DUP5 ADD MSTORE POP SWAP1 SWAP4 SWAP3 POP POP POP JUMP JUMPDEST PUSH1 0x0 DUP4 DUP2 MSTORE PUSH1 0x2 PUSH1 0x20 SWAP1 DUP2 MSTORE PUSH1 0x40 DUP1 DUP4 KECCAK256 PUSH1 0x1 PUSH1 0x1 PUSH1 0xA0 SHL SUB DUP6 AND DUP5 MSTORE PUSH1 0xF ADD SWAP1 SWAP2 MSTORE DUP2 KECCAK256 DUP1 SLOAD SWAP1 SWAP2 SUB PUSH2 0x39A6 JUMPI PUSH1 0x0 DUP5 DUP2 MSTORE PUSH1 0x2 PUSH1 0x20 SWAP1 DUP2 MSTORE PUSH1 0x40 DUP3 KECCAK256 PUSH1 0xD ADD DUP1 SLOAD PUSH1 0x1 DUP2 ADD DUP3 SSTORE SWAP1 DUP4 MSTORE SWAP2 KECCAK256 ADD DUP1 SLOAD PUSH1 0x1 PUSH1 0x1 PUSH1 0xA0 SHL SUB NOT AND PUSH1 0x1 PUSH1 0x1 PUSH1 0xA0 SHL SUB DUP5 AND OR SWAP1 SSTORE JUMPDEST PUSH1 0x0 DUP1 JUMPDEST DUP5 MLOAD DUP2 LT ISZERO PUSH2 0x3BFA JUMPI PUSH1 0x2 PUSH1 0x0 DUP8 DUP2 MSTORE PUSH1 0x20 ADD SWAP1 DUP2 MSTORE PUSH1 0x20 ADD PUSH1 0x0 KECCAK256 PUSH1 0xC ADD DUP6 DUP3 DUP2 MLOAD DUP2 LT PUSH2 0x39DB JUMPI PUSH2 0x39DB PUSH2 0x5AB3 JUMP JUMPDEST PUSH1 0x20 MUL PUSH1 0x20 ADD ADD MLOAD DUP2 SLOAD DUP2 LT PUSH2 0x39F3 JUMPI PUSH2 0x39F3 PUSH2 0x5AB3 JUMP JUMPDEST PUSH1 0x0 SWAP2 DUP3 MSTORE PUSH1 0x20 DUP3 KECCAK256 PUSH1 0x9 PUSH1 0xB SWAP1 SWAP3 MUL ADD ADD SLOAD PUSH1 0xFF AND SWAP3 POP DUP3 PUSH1 0xB DUP2 GT ISZERO PUSH2 0x3A1D JUMPI PUSH2 0x3A1D PUSH2 0x534E JUMP JUMPDEST SUB PUSH2 0x3AE4 JUMPI PUSH1 0x2 DUP1 PUSH1 0x0 DUP9 DUP2 MSTORE PUSH1 0x20 ADD SWAP1 DUP2 MSTORE PUSH1 0x20 ADD PUSH1 0x0 KECCAK256 PUSH1 0xC ADD DUP7 DUP4 DUP2 MLOAD DUP2 LT PUSH2 0x3A4B JUMPI PUSH2 0x3A4B PUSH2 0x5AB3 JUMP JUMPDEST PUSH1 0x20 MUL PUSH1 0x20 ADD ADD MLOAD DUP2 SLOAD DUP2 LT PUSH2 0x3A63 JUMPI PUSH2 0x3A63 PUSH2 0x5AB3 JUMP JUMPDEST SWAP1 PUSH1 0x0 MSTORE PUSH1 0x20 PUSH1 0x0 KECCAK256 SWAP1 PUSH1 0xB MUL ADD PUSH1 0x9 ADD PUSH1 0x0 PUSH2 0x100 EXP DUP2 SLOAD DUP2 PUSH1 0xFF MUL NOT AND SWAP1 DUP4 PUSH1 0xB DUP2 GT ISZERO PUSH2 0x3A95 JUMPI PUSH2 0x3A95 PUSH2 0x534E JUMP JUMPDEST MUL OR SWAP1 SSTORE POP PUSH1 0x0 DUP1 MLOAD PUSH1 0x20 PUSH2 0x5E8B DUP4 CODECOPY DUP2 MLOAD SWAP2 MSTORE DUP7 DUP7 DUP4 DUP2 MLOAD DUP2 LT PUSH2 0x3ABC JUMPI PUSH2 0x3ABC PUSH2 0x5AB3 JUMP JUMPDEST PUSH1 0x20 MUL PUSH1 0x20 ADD ADD MLOAD PUSH1 0x2 CALLER PUSH1 0x40 MLOAD PUSH2 0x3AD7 SWAP5 SWAP4 SWAP3 SWAP2 SWAP1 PUSH2 0x5CA1 JUMP JUMPDEST PUSH1 0x40 MLOAD DUP1 SWAP2 SUB SWAP1 LOG1 PUSH2 0x3BB3 JUMP JUMPDEST PUSH1 0x1 DUP3 PUSH1 0xB DUP2 GT ISZERO PUSH2 0x3AF8 JUMPI PUSH2 0x3AF8 PUSH2 0x534E JUMP JUMPDEST SUB PUSH2 0x277F JUMPI PUSH1 0x3 PUSH1 0x2 PUSH1 0x0 DUP9 DUP2 MSTORE PUSH1 0x20 ADD SWAP1 DUP2 MSTORE PUSH1 0x20 ADD PUSH1 0x0 KECCAK256 PUSH1 0xC ADD DUP7 DUP4 DUP2 MLOAD DUP2 LT PUSH2 0x3B27 JUMPI PUSH2 0x3B27 PUSH2 0x5AB3 JUMP JUMPDEST PUSH1 0x20 MUL PUSH1 0x20 ADD ADD MLOAD DUP2 SLOAD DUP2 LT PUSH2 0x3B3F JUMPI PUSH2 0x3B3F PUSH2 0x5AB3 JUMP JUMPDEST SWAP1 PUSH1 0x0 MSTORE PUSH1 0x20 PUSH1 0x0 KECCAK256 SWAP1 PUSH1 0xB MUL ADD PUSH1 0x9 ADD PUSH1 0x0 PUSH2 0x100 EXP DUP2 SLOAD DUP2 PUSH1 0xFF MUL NOT AND SWAP1 DUP4 PUSH1 0xB DUP2 GT ISZERO PUSH2 0x3B71 JUMPI PUSH2 0x3B71 PUSH2 0x534E JUMP JUMPDEST MUL OR SWAP1 SSTORE POP PUSH1 0x0 DUP1 MLOAD PUSH1 0x20 PUSH2 0x5E8B DUP4 CODECOPY DUP2 MLOAD SWAP2 MSTORE DUP7 DUP7 DUP4 DUP2 MLOAD DUP2 LT PUSH2 0x3B98 JUMPI PUSH2 0x3B98 PUSH2 0x5AB3 JUMP JUMPDEST PUSH1 0x20 MUL PUSH1 0x20 ADD ADD MLOAD PUSH1 0x3 CALLER PUSH1 0x40 MLOAD PUSH2 0x3AD7 SWAP5 SWAP4 SWAP3 SWAP2 SWAP1 PUSH2 0x5CA1 JUMP JUMPDEST DUP3 PUSH1 0x0 ADD DUP6 DUP3 DUP2 MLOAD DUP2 LT PUSH2 0x3BC9 JUMPI PUSH2 0x3BC9 PUSH2 0x5AB3 JUMP JUMPDEST PUSH1 0x20 SWAP1 DUP2 MUL SWAP2 SWAP1 SWAP2 ADD DUP2 ADD MLOAD DUP3 SLOAD PUSH1 0x1 DUP2 ADD DUP5 SSTORE PUSH1 0x0 SWAP4 DUP5 MSTORE SWAP2 SWAP1 SWAP3 KECCAK256 ADD SSTORE DUP1 PUSH2 0x3BF2 DUP2 PUSH2 0x5AFD JUMP JUMPDEST SWAP2 POP POP PUSH2 0x39AA JUMP JUMPDEST POP PUSH1 0x0 DUP6 DUP2 MSTORE PUSH1 0x2 PUSH1 0x20 MSTORE PUSH1 0x40 DUP2 KECCAK256 PUSH1 0x13 ADD DUP1 SLOAD SWAP2 PUSH2 0x3C18 DUP4 PUSH2 0x5AFD JUMP JUMPDEST SWAP2 SWAP1 POP SSTORE POP PUSH2 0x3C28 DUP6 PUSH1 0x1 PUSH2 0x14E9 JUMP JUMPDEST ISZERO PUSH2 0x1B56 JUMPI PUSH1 0x0 DUP6 DUP2 MSTORE PUSH1 0x2 PUSH1 0x20 MSTORE PUSH1 0x40 DUP1 DUP3 KECCAK256 PUSH1 0x15 ADD DUP1 SLOAD PUSH1 0xFF NOT AND SWAP1 SSTORE MLOAD PUSH32 0x398FD552105B0090D73611AD526D12979F19B77A7F923343A85D8FD14A13A67 SWAP2 PUSH2 0x3C78 SWAP2 DUP9 SWAP2 SWAP1 CALLER SWAP1 PUSH2 0x5D0B JUMP JUMPDEST PUSH1 0x40 MLOAD DUP1 SWAP2 SUB SWAP1 LOG1 PUSH2 0x3C8B DUP6 PUSH1 0x0 PUSH2 0x14E9 JUMP JUMPDEST ISZERO PUSH2 0x3CB7 JUMPI PUSH1 0x0 DUP6 DUP2 MSTORE PUSH1 0x2 PUSH1 0x20 MSTORE PUSH1 0x40 SWAP1 KECCAK256 PUSH1 0x15 ADD DUP1 SLOAD PUSH1 0x3 SWAP2 SWAP1 PUSH3 0xFF0000 NOT AND PUSH3 0x10000 DUP4 PUSH2 0x289B JUMP JUMPDEST PUSH1 0x0 DUP6 DUP2 MSTORE PUSH1 0x2 PUSH1 0x20 DUP2 SWAP1 MSTORE PUSH1 0x40 SWAP1 SWAP2 KECCAK256 PUSH1 0x15 ADD DUP1 SLOAD PUSH3 0xFF0000 NOT AND PUSH3 0x10000 DUP4 MUL OR SWAP1 SSTORE POP PUSH1 0x0 DUP1 MLOAD PUSH1 0x20 PUSH2 0x5EAB DUP4 CODECOPY DUP2 MLOAD SWAP2 MSTORE DUP6 PUSH1 0x2 CALLER PUSH1 0x40 MLOAD PUSH2 0x2912 SWAP4 SWAP3 SWAP2 SWAP1 PUSH2 0x5C5B JUMP JUMPDEST PUSH1 0x0 DUP3 DUP2 MSTORE PUSH1 0x2 PUSH1 0x20 DUP2 DUP2 MSTORE PUSH1 0x40 SWAP1 SWAP3 KECCAK256 DUP4 MLOAD PUSH1 0x1 DUP3 ADD SSTORE SWAP2 DUP4 ADD MLOAD SWAP1 DUP3 ADD SWAP1 PUSH2 0x3D29 SWAP1 DUP3 PUSH2 0x5D83 JUMP JUMPDEST POP PUSH1 0x40 DUP3 ADD MLOAD PUSH1 0x3 DUP3 ADD SWAP1 PUSH2 0x3D3E SWAP1 DUP3 PUSH2 0x5D83 JUMP JUMPDEST POP PUSH1 0x60 DUP3 ADD MLOAD PUSH1 0x4 DUP3 ADD SSTORE PUSH1 0x80 DUP3 ADD MLOAD PUSH1 0x5 DUP3 ADD SSTORE PUSH1 0xA0 DUP3 ADD MLOAD PUSH1 0x6 DUP3 ADD SSTORE PUSH1 0xC0 DUP3 ADD MLOAD DUP1 MLOAD PUSH2 0x3D78 SWAP2 PUSH1 0x7 DUP5 ADD SWAP2 PUSH1 0x20 SWAP1 SWAP2 ADD SWAP1 PUSH2 0x4CC1 JUMP JUMPDEST POP PUSH1 0xE0 DUP3 ADD MLOAD PUSH1 0x8 DUP3 ADD SSTORE PUSH2 0x100 DUP1 DUP4 ADD MLOAD PUSH1 0x9 DUP4 ADD SSTORE PUSH2 0x160 DUP4 ADD MLOAD PUSH1 0xB DUP4 ADD SSTORE PUSH2 0x120 DUP4 ADD MLOAD PUSH1 0xA DUP4 ADD DUP1 SLOAD PUSH2 0x140 DUP7 ADD MLOAD ISZERO DUP1 ISZERO SWAP1 SWAP5 MUL PUSH2 0xFF00 NOT SWAP4 ISZERO ISZERO SWAP4 SWAP1 SWAP4 AND PUSH2 0xFFFF NOT SWAP1 SWAP2 AND OR SWAP2 SWAP1 SWAP2 OR SWAP1 SSTORE PUSH2 0x3DE0 JUMPI PUSH2 0x180 DUP3 ADD MLOAD MLOAD PUSH1 0x11 DUP3 ADD SSTORE PUSH2 0x3DE8 JUMP JUMPDEST PUSH1 0x1 PUSH1 0x11 DUP3 ADD SSTORE JUMPDEST PUSH1 0x15 DUP2 ADD DUP1 SLOAD PUSH1 0xFF NOT AND PUSH1 0x1 OR SWAP1 SSTORE PUSH1 0x0 JUMPDEST DUP3 PUSH2 0x180 ADD MLOAD MLOAD DUP2 LT ISZERO PUSH2 0x2B7F JUMPI DUP2 PUSH1 0xC ADD DUP4 PUSH2 0x180 ADD MLOAD DUP3 DUP2 MLOAD DUP2 LT PUSH2 0x3E23 JUMPI PUSH2 0x3E23 PUSH2 0x5AB3 JUMP JUMPDEST PUSH1 0x20 SWAP1 DUP2 MUL SWAP2 SWAP1 SWAP2 ADD DUP2 ADD MLOAD DUP3 SLOAD PUSH1 0x1 DUP2 ADD DUP5 SSTORE PUSH1 0x0 SWAP4 DUP5 MSTORE SWAP2 SWAP1 SWAP3 KECCAK256 DUP3 MLOAD DUP1 MLOAD PUSH1 0xB SWAP1 SWAP4 MUL SWAP1 SWAP2 ADD SWAP2 DUP3 SWAP1 DUP2 SWAP1 PUSH2 0x3E5B SWAP1 DUP3 PUSH2 0x5D83 JUMP JUMPDEST POP PUSH1 0x20 DUP3 ADD MLOAD PUSH1 0x1 DUP3 ADD SSTORE PUSH1 0x40 DUP3 ADD MLOAD PUSH1 0x2 DUP3 ADD SSTORE PUSH1 0x60 DUP3 ADD MLOAD PUSH1 0x3 DUP3 ADD SSTORE PUSH1 0x80 DUP3 ADD MLOAD PUSH1 0x4 DUP3 ADD SSTORE PUSH1 0xA0 DUP3 ADD MLOAD PUSH1 0x5 DUP3 ADD SSTORE PUSH1 0xC0 DUP3 ADD MLOAD PUSH1 0x6 DUP3 ADD SWAP1 PUSH2 0x3EA2 SWAP1 DUP3 PUSH2 0x5D83 JUMP JUMPDEST POP POP POP PUSH1 0x20 DUP3 ADD MLOAD PUSH1 0x7 DUP3 ADD SSTORE PUSH1 0x40 DUP3 ADD MLOAD PUSH1 0x8 DUP3 ADD SWAP1 PUSH2 0x3EC3 SWAP1 DUP3 PUSH2 0x5D83 JUMP JUMPDEST POP PUSH1 0x60 DUP3 ADD MLOAD PUSH1 0x9 DUP3 ADD DUP1 SLOAD PUSH1 0xFF NOT AND PUSH1 0x1 DUP4 PUSH1 0xB DUP2 GT ISZERO PUSH2 0x3EE7 JUMPI PUSH2 0x3EE7 PUSH2 0x534E JUMP JUMPDEST MUL OR SWAP1 SSTORE POP PUSH1 0x80 DUP3 ADD MLOAD DUP2 PUSH1 0xA ADD SSTORE POP POP DUP1 DUP1 PUSH2 0x3F03 SWAP1 PUSH2 0x5AFD JUMP JUMPDEST SWAP2 POP POP PUSH2 0x3DFA JUMP JUMPDEST PUSH1 0x0 PUSH2 0x201C DUP3 DUP5 PUSH2 0x5A19 JUMP JUMPDEST PUSH1 0x0 DUP6 DUP2 MSTORE PUSH1 0x2 PUSH1 0x20 SWAP1 DUP2 MSTORE PUSH1 0x40 DUP1 DUP4 KECCAK256 PUSH1 0x1 PUSH1 0x1 PUSH1 0xA0 SHL SUB DUP9 AND DUP5 MSTORE PUSH1 0xF DUP2 ADD DUP4 MSTORE DUP2 DUP5 KECCAK256 DUP7 DUP6 MSTORE PUSH1 0x1 SWAP1 DUP2 ADD SWAP1 SWAP4 MSTORE SWAP3 DUP2 SWAP1 KECCAK256 DUP1 SLOAD PUSH1 0xFF NOT AND PUSH1 0x3 SWAP1 DUP2 OR SWAP1 SWAP2 SSTORE SWAP1 MLOAD PUSH1 0x0 DUP1 MLOAD PUSH1 0x20 PUSH2 0x5EEB DUP4 CODECOPY DUP2 MLOAD SWAP2 MSTORE SWAP3 PUSH2 0x3F7E SWAP3 DUP11 SWAP3 DUP11 SWAP3 DUP10 SWAP3 SWAP2 CALLER SWAP1 PUSH2 0x5E42 JUMP JUMPDEST PUSH1 0x40 MLOAD DUP1 SWAP2 SUB SWAP1 LOG1 PUSH1 0x6 DUP2 PUSH1 0xC ADD DUP5 DUP2 SLOAD DUP2 LT PUSH2 0x3F9D JUMPI PUSH2 0x3F9D PUSH2 0x5AB3 JUMP JUMPDEST SWAP1 PUSH1 0x0 MSTORE PUSH1 0x20 PUSH1 0x0 KECCAK256 SWAP1 PUSH1 0xB MUL ADD PUSH1 0x9 ADD PUSH1 0x0 PUSH2 0x100 EXP DUP2 SLOAD DUP2 PUSH1 0xFF MUL NOT AND SWAP1 DUP4 PUSH1 0xB DUP2 GT ISZERO PUSH2 0x3FCF JUMPI PUSH2 0x3FCF PUSH2 0x534E JUMP JUMPDEST MUL OR SWAP1 SSTORE POP PUSH1 0x0 DUP1 MLOAD PUSH1 0x20 PUSH2 0x5E8B DUP4 CODECOPY DUP2 MLOAD SWAP2 MSTORE DUP7 DUP5 PUSH1 0x6 CALLER PUSH1 0x40 MLOAD PUSH2 0x3FF8 SWAP5 SWAP4 SWAP3 SWAP2 SWAP1 PUSH2 0x5CA1 JUMP JUMPDEST PUSH1 0x40 MLOAD DUP1 SWAP2 SUB SWAP1 LOG1 TIMESTAMP DUP2 PUSH1 0xC ADD DUP5 DUP2 SLOAD DUP2 LT PUSH2 0x4016 JUMPI PUSH2 0x4016 PUSH2 0x5AB3 JUMP JUMPDEST PUSH1 0x0 SWAP2 DUP3 MSTORE PUSH1 0x20 DUP1 DUP4 KECCAK256 PUSH1 0xA PUSH1 0xB SWAP1 SWAP4 MUL ADD SWAP2 SWAP1 SWAP2 ADD SWAP3 SWAP1 SWAP3 SSTORE PUSH1 0x1 PUSH1 0x1 PUSH1 0xA0 SHL SUB DUP7 AND DUP2 MSTORE PUSH1 0x10 DUP4 ADD DUP3 MSTORE PUSH1 0x40 DUP1 DUP3 KECCAK256 DUP7 DUP4 MSTORE PUSH1 0x1 SWAP1 DUP2 ADD SWAP1 SWAP4 MSTORE SWAP1 KECCAK256 ADD PUSH2 0x405F DUP4 DUP3 PUSH2 0x5D83 JUMP JUMPDEST POP PUSH1 0x1 PUSH1 0x1 PUSH1 0xA0 SHL SUB DUP5 AND PUSH1 0x0 SWAP1 DUP2 MSTORE PUSH1 0x10 DUP3 ADD PUSH1 0x20 SWAP1 DUP2 MSTORE PUSH1 0x40 DUP1 DUP4 KECCAK256 DUP7 DUP5 MSTORE PUSH1 0x1 SWAP1 DUP2 ADD SWAP1 SWAP3 MSTORE DUP1 DUP4 KECCAK256 DUP1 SLOAD PUSH1 0xFF NOT AND DUP4 OR SWAP1 SSTORE MLOAD PUSH1 0x0 DUP1 MLOAD PUSH1 0x20 PUSH2 0x5EEB DUP4 CODECOPY DUP2 MLOAD SWAP2 MSTORE SWAP3 PUSH2 0xC32 SWAP3 DUP11 SWAP3 DUP10 SWAP3 DUP10 SWAP3 SWAP2 CALLER SWAP1 PUSH2 0x5E42 JUMP JUMPDEST DUP1 ISZERO PUSH2 0x41B7 JUMPI PUSH1 0x0 DUP5 DUP2 MSTORE PUSH1 0x2 PUSH1 0x20 DUP2 DUP2 MSTORE PUSH1 0x40 DUP1 DUP5 KECCAK256 PUSH1 0x1 PUSH1 0x1 PUSH1 0xA0 SHL SUB DUP9 AND DUP6 MSTORE PUSH1 0xF ADD DUP3 MSTORE DUP1 DUP5 KECCAK256 DUP7 DUP6 MSTORE PUSH1 0x1 SWAP1 DUP2 ADD SWAP1 SWAP3 MSTORE SWAP3 DUP4 SWAP1 KECCAK256 DUP1 SLOAD PUSH1 0xFF NOT AND DUP4 OR SWAP1 SSTORE SWAP2 MLOAD PUSH1 0x0 DUP1 MLOAD PUSH1 0x20 PUSH2 0x5EEB DUP4 CODECOPY DUP2 MLOAD SWAP2 MSTORE SWAP3 PUSH2 0x4120 SWAP3 DUP9 SWAP3 DUP9 SWAP3 DUP9 SWAP3 SWAP2 CALLER SWAP1 PUSH2 0x5E42 JUMP JUMPDEST PUSH1 0x40 MLOAD DUP1 SWAP2 SUB SWAP1 LOG1 PUSH1 0x0 DUP5 DUP2 MSTORE PUSH1 0x2 PUSH1 0x20 MSTORE PUSH1 0x40 SWAP1 KECCAK256 PUSH1 0xC ADD DUP1 SLOAD PUSH1 0x5 SWAP2 SWAP1 DUP5 SWAP1 DUP2 LT PUSH2 0x414F JUMPI PUSH2 0x414F PUSH2 0x5AB3 JUMP JUMPDEST SWAP1 PUSH1 0x0 MSTORE PUSH1 0x20 PUSH1 0x0 KECCAK256 SWAP1 PUSH1 0xB MUL ADD PUSH1 0x9 ADD PUSH1 0x0 PUSH2 0x100 EXP DUP2 SLOAD DUP2 PUSH1 0xFF MUL NOT AND SWAP1 DUP4 PUSH1 0xB DUP2 GT ISZERO PUSH2 0x4181 JUMPI PUSH2 0x4181 PUSH2 0x534E JUMP JUMPDEST MUL OR SWAP1 SSTORE POP PUSH1 0x0 DUP1 MLOAD PUSH1 0x20 PUSH2 0x5E8B DUP4 CODECOPY DUP2 MLOAD SWAP2 MSTORE DUP5 DUP4 PUSH1 0x5 CALLER PUSH1 0x40 MLOAD PUSH2 0x41AA SWAP5 SWAP4 SWAP3 SWAP2 SWAP1 PUSH2 0x5CA1 JUMP JUMPDEST PUSH1 0x40 MLOAD DUP1 SWAP2 SUB SWAP1 LOG1 PUSH2 0x2B7F JUMP JUMPDEST PUSH1 0x0 DUP5 DUP2 MSTORE PUSH1 0x2 PUSH1 0x20 DUP2 DUP2 MSTORE PUSH1 0x40 DUP1 DUP5 KECCAK256 PUSH1 0x1 PUSH1 0x1 PUSH1 0xA0 SHL SUB DUP9 AND DUP6 MSTORE PUSH1 0x10 ADD DUP3 MSTORE DUP1 DUP5 KECCAK256 DUP7 DUP6 MSTORE PUSH1 0x1 ADD SWAP1 SWAP2 MSTORE DUP1 DUP4 KECCAK256 DUP1 SLOAD PUSH1 0xFF NOT AND DUP4 OR SWAP1 SSTORE MLOAD PUSH1 0x0 DUP1 MLOAD PUSH1 0x20 PUSH2 0x5EEB DUP4 CODECOPY DUP2 MLOAD SWAP2 MSTORE SWAP3 PUSH2 0x4215 SWAP3 DUP9 SWAP3 DUP9 SWAP3 DUP9 SWAP3 SWAP2 CALLER SWAP1 PUSH2 0x5E42 JUMP JUMPDEST PUSH1 0x40 MLOAD DUP1 SWAP2 SUB SWAP1 LOG1 PUSH1 0x0 DUP5 DUP2 MSTORE PUSH1 0x2 PUSH1 0x20 MSTORE PUSH1 0x40 SWAP1 KECCAK256 PUSH1 0xC ADD DUP1 SLOAD PUSH1 0x7 SWAP2 SWAP1 DUP5 SWAP1 DUP2 LT PUSH2 0x4244 JUMPI PUSH2 0x4244 PUSH2 0x5AB3 JUMP JUMPDEST SWAP1 PUSH1 0x0 MSTORE PUSH1 0x20 PUSH1 0x0 KECCAK256 SWAP1 PUSH1 0xB MUL ADD PUSH1 0x9 ADD PUSH1 0x0 PUSH2 0x100 EXP DUP2 SLOAD DUP2 PUSH1 0xFF MUL NOT AND SWAP1 DUP4 PUSH1 0xB DUP2 GT ISZERO PUSH2 0x4276 JUMPI PUSH2 0x4276 PUSH2 0x534E JUMP JUMPDEST MUL OR SWAP1 SSTORE POP PUSH1 0x0 DUP1 MLOAD PUSH1 0x20 PUSH2 0x5E8B DUP4 CODECOPY DUP2 MLOAD SWAP2 MSTORE DUP5 DUP4 PUSH1 0x7 CALLER PUSH1 0x40 MLOAD PUSH2 0x429F SWAP5 SWAP4 SWAP3 SWAP2 SWAP1 PUSH2 0x5CA1 JUMP JUMPDEST PUSH1 0x40 MLOAD DUP1 SWAP2 SUB SWAP1 LOG1 POP POP POP POP JUMP JUMPDEST DUP1 ISZERO PUSH2 0x439B JUMPI PUSH1 0x0 JUMPDEST DUP4 MLOAD DUP2 LT ISZERO PUSH2 0x4395 JUMPI PUSH1 0x0 DUP7 DUP2 MSTORE PUSH1 0x2 PUSH1 0x20 SWAP1 DUP2 MSTORE PUSH1 0x40 DUP1 DUP4 KECCAK256 PUSH1 0x1 PUSH1 0x1 PUSH1 0xA0 SHL SUB DUP10 AND DUP5 MSTORE PUSH1 0xF ADD SWAP1 SWAP2 MSTORE DUP2 KECCAK256 DUP6 MLOAD DUP6 SWAP3 PUSH1 0x1 SWAP1 SWAP3 ADD SWAP2 SWAP1 DUP8 SWAP1 DUP6 SWAP1 DUP2 LT PUSH2 0x4301 JUMPI PUSH2 0x4301 PUSH2 0x5AB3 JUMP JUMPDEST PUSH1 0x20 SWAP1 DUP2 MUL SWAP2 SWAP1 SWAP2 ADD DUP2 ADD MLOAD DUP3 MSTORE DUP2 ADD SWAP2 SWAP1 SWAP2 MSTORE PUSH1 0x40 ADD PUSH1 0x0 KECCAK256 DUP1 SLOAD PUSH1 0xFF NOT AND PUSH1 0x1 DUP4 PUSH1 0x4 DUP2 GT ISZERO PUSH2 0x4335 JUMPI PUSH2 0x4335 PUSH2 0x534E JUMP JUMPDEST MUL OR SWAP1 SSTORE POP PUSH1 0x0 DUP1 MLOAD PUSH1 0x20 PUSH2 0x5EEB DUP4 CODECOPY DUP2 MLOAD SWAP2 MSTORE DUP7 DUP7 DUP7 DUP5 DUP2 MLOAD DUP2 LT PUSH2 0x435D JUMPI PUSH2 0x435D PUSH2 0x5AB3 JUMP JUMPDEST PUSH1 0x20 MUL PUSH1 0x20 ADD ADD MLOAD DUP7 PUSH1 0x1 CALLER PUSH1 0x40 MLOAD PUSH2 0x437B SWAP7 SWAP6 SWAP5 SWAP4 SWAP3 SWAP2 SWAP1 PUSH2 0x5E42 JUMP JUMPDEST PUSH1 0x40 MLOAD DUP1 SWAP2 SUB SWAP1 LOG1 DUP1 PUSH2 0x438D DUP2 PUSH2 0x5AFD JUMP JUMPDEST SWAP2 POP POP PUSH2 0x42B6 JUMP JUMPDEST POP PUSH2 0x1B56 JUMP JUMPDEST PUSH1 0x0 JUMPDEST DUP4 MLOAD DUP2 LT ISZERO PUSH2 0x9B9 JUMPI PUSH1 0x0 DUP7 DUP2 MSTORE PUSH1 0x2 PUSH1 0x20 SWAP1 DUP2 MSTORE PUSH1 0x40 DUP1 DUP4 KECCAK256 PUSH1 0x1 PUSH1 0x1 PUSH1 0xA0 SHL SUB DUP10 AND DUP5 MSTORE PUSH1 0x10 ADD SWAP1 SWAP2 MSTORE DUP2 KECCAK256 DUP6 MLOAD DUP6 SWAP3 PUSH1 0x1 SWAP1 SWAP3 ADD SWAP2 SWAP1 DUP8 SWAP1 DUP6 SWAP1 DUP2 LT PUSH2 0x43E9 JUMPI PUSH2 0x43E9 PUSH2 0x5AB3 JUMP JUMPDEST PUSH1 0x20 SWAP1 DUP2 MUL SWAP2 SWAP1 SWAP2 ADD DUP2 ADD MLOAD DUP3 MSTORE DUP2 ADD SWAP2 SWAP1 SWAP2 MSTORE PUSH1 0x40 ADD PUSH1 0x0 KECCAK256 DUP1 SLOAD PUSH1 0xFF NOT AND PUSH1 0x1 DUP4 PUSH1 0x4 DUP2 GT ISZERO PUSH2 0x441D JUMPI PUSH2 0x441D PUSH2 0x534E JUMP JUMPDEST MUL OR SWAP1 SSTORE POP PUSH1 0x0 DUP1 MLOAD PUSH1 0x20 PUSH2 0x5EEB DUP4 CODECOPY DUP2 MLOAD SWAP2 MSTORE DUP7 DUP7 DUP7 DUP5 DUP2 MLOAD DUP2 LT PUSH2 0x4445 JUMPI PUSH2 0x4445 PUSH2 0x5AB3 JUMP JUMPDEST PUSH1 0x20 MUL PUSH1 0x20 ADD ADD MLOAD DUP7 PUSH1 0x0 CALLER PUSH1 0x40 MLOAD PUSH2 0x4463 SWAP7 SWAP6 SWAP5 SWAP4 SWAP3 SWAP2 SWAP1 PUSH2 0x5E42 JUMP JUMPDEST PUSH1 0x40 MLOAD DUP1 SWAP2 SUB SWAP1 LOG1 DUP1 PUSH2 0x4475 DUP2 PUSH2 0x5AFD JUMP JUMPDEST SWAP2 POP POP PUSH2 0x439E JUMP JUMPDEST PUSH1 0x0 PUSH2 0xA1E DUP3 PUSH1 0x36 PUSH2 0x2004 JUMP JUMPDEST PUSH1 0x0 DUP4 DUP2 MSTORE PUSH1 0x2 PUSH1 0x20 SWAP1 DUP2 MSTORE PUSH1 0x40 DUP1 DUP4 KECCAK256 PUSH1 0x1 PUSH1 0x1 PUSH1 0xA0 SHL SUB DUP7 AND DUP5 MSTORE PUSH1 0x10 ADD DUP3 MSTORE DUP1 DUP4 KECCAK256 DUP5 DUP5 MSTORE PUSH1 0x1 ADD SWAP1 SWAP2 MSTORE DUP1 DUP3 KECCAK256 DUP1 SLOAD PUSH1 0xFF NOT AND PUSH1 0x3 SWAP1 DUP2 OR SWAP1 SWAP2 SSTORE SWAP1 MLOAD PUSH1 0x0 DUP1 MLOAD PUSH1 0x20 PUSH2 0x5EEB DUP4 CODECOPY DUP2 MLOAD SWAP2 MSTORE SWAP3 PUSH2 0x44ED SWAP3 DUP8 SWAP3 DUP8 SWAP3 DUP8 SWAP3 SWAP2 CALLER SWAP1 PUSH2 0x5E42 JUMP JUMPDEST PUSH1 0x40 MLOAD DUP1 SWAP2 SUB SWAP1 LOG1 PUSH1 0x0 DUP4 DUP2 MSTORE PUSH1 0x2 PUSH1 0x20 MSTORE PUSH1 0x40 SWAP1 KECCAK256 PUSH1 0xC ADD DUP1 SLOAD PUSH1 0x8 SWAP2 SWAP1 DUP4 SWAP1 DUP2 LT PUSH2 0x451C JUMPI PUSH2 0x451C PUSH2 0x5AB3 JUMP JUMPDEST SWAP1 PUSH1 0x0 MSTORE PUSH1 0x20 PUSH1 0x0 KECCAK256 SWAP1 PUSH1 0xB MUL ADD PUSH1 0x9 ADD PUSH1 0x0 PUSH2 0x100 EXP DUP2 SLOAD DUP2 PUSH1 0xFF MUL NOT AND SWAP1 DUP4 PUSH1 0xB DUP2 GT ISZERO PUSH2 0x454E JUMPI PUSH2 0x454E PUSH2 0x534E JUMP JUMPDEST MUL OR SWAP1 SSTORE POP PUSH1 0x0 DUP1 MLOAD PUSH1 0x20 PUSH2 0x5E8B DUP4 CODECOPY DUP2 MLOAD SWAP2 MSTORE DUP4 DUP3 PUSH1 0x8 CALLER PUSH1 0x40 MLOAD PUSH2 0x2236 SWAP5 SWAP4 SWAP3 SWAP2 SWAP1 PUSH2 0x5CA1 JUMP JUMPDEST PUSH1 0x0 DUP2 DUP2 MSTORE PUSH1 0x2 PUSH1 0x20 MSTORE PUSH1 0x40 DUP1 DUP3 KECCAK256 PUSH1 0x15 ADD DUP1 SLOAD PUSH1 0xFF NOT AND SWAP1 SSTORE MLOAD PUSH32 0x398FD552105B0090D73611AD526D12979F19B77A7F923343A85D8FD14A13A67 SWAP2 PUSH2 0xD56 SWAP2 DUP5 SWAP2 SWAP1 CALLER SWAP1 PUSH2 0x5D0B JUMP JUMPDEST PUSH1 0x0 DUP2 ISZERO PUSH2 0x461D JUMPI POP PUSH1 0x0 DUP5 DUP2 MSTORE PUSH1 0x2 PUSH1 0x20 DUP2 DUP2 MSTORE PUSH1 0x40 DUP1 DUP5 KECCAK256 PUSH1 0x1 PUSH1 0x1 PUSH1 0xA0 SHL SUB DUP8 AND DUP6 MSTORE PUSH1 0xF DUP2 ADD DUP4 MSTORE DUP2 DUP6 KECCAK256 DUP9 DUP7 MSTORE PUSH1 0x1 ADD DUP4 MSTORE SWAP1 DUP5 KECCAK256 DUP9 DUP6 MSTORE SWAP3 SWAP1 SWAP2 MSTORE PUSH1 0x13 ADD DUP1 SLOAD SWAP2 SWAP3 PUSH2 0x4613 DUP4 PUSH2 0x5AFD JUMP JUMPDEST SWAP2 SWAP1 POP SSTORE POP PUSH2 0x466C JUMP JUMPDEST POP PUSH1 0x0 DUP5 DUP2 MSTORE PUSH1 0x2 PUSH1 0x20 DUP2 DUP2 MSTORE PUSH1 0x40 DUP1 DUP5 KECCAK256 PUSH1 0x1 PUSH1 0x1 PUSH1 0xA0 SHL SUB DUP8 AND DUP6 MSTORE PUSH1 0x10 DUP2 ADD DUP4 MSTORE DUP2 DUP6 KECCAK256 DUP9 DUP7 MSTORE PUSH1 0x1 ADD DUP4 MSTORE SWAP1 DUP5 KECCAK256 DUP9 DUP6 MSTORE SWAP3 SWAP1 SWAP2 MSTORE PUSH1 0x14 ADD DUP1 SLOAD SWAP2 SWAP3 PUSH2 0x4666 DUP4 PUSH2 0x5AFD JUMP JUMPDEST SWAP2 SWAP1 POP SSTORE POP JUMPDEST POP POP PUSH1 0x0 SWAP3 DUP4 MSTORE PUSH1 0x2 PUSH1 0x20 SWAP1 DUP2 MSTORE PUSH1 0x40 DUP1 DUP6 KECCAK256 PUSH1 0x1 PUSH1 0x1 PUSH1 0xA0 SHL SUB SWAP1 SWAP4 AND DUP6 MSTORE PUSH1 0xF SWAP1 SWAP3 ADD DUP2 MSTORE SWAP1 DUP4 KECCAK256 DUP1 SLOAD PUSH1 0x1 DUP2 ADD DUP3 SSTORE SWAP1 DUP5 MSTORE SWAP3 KECCAK256 SWAP1 SWAP2 ADD SSTORE JUMP JUMPDEST PUSH1 0x0 DUP3 DUP2 MSTORE PUSH1 0x2 PUSH1 0x20 MSTORE PUSH1 0x40 SWAP1 KECCAK256 PUSH1 0x15 ADD DUP1 SLOAD DUP3 SWAP2 SWAP1 PUSH3 0xFF0000 NOT AND PUSH3 0x10000 DUP4 PUSH1 0x7 DUP2 GT ISZERO PUSH2 0x46DB JUMPI PUSH2 0x46DB PUSH2 0x534E JUMP JUMPDEST MUL OR SWAP1 SSTORE POP PUSH1 0x0 DUP1 MLOAD PUSH1 0x20 PUSH2 0x5EAB DUP4 CODECOPY DUP2 MLOAD SWAP2 MSTORE DUP3 DUP3 CALLER PUSH1 0x40 MLOAD PUSH2 0x1FF8 SWAP4 SWAP3 SWAP2 SWAP1 PUSH2 0x5C5B JUMP JUMPDEST PUSH1 0x0 DUP2 DUP2 MSTORE PUSH1 0x2 PUSH1 0x20 MSTORE PUSH1 0x40 DUP1 DUP3 KECCAK256 PUSH1 0x15 ADD DUP1 SLOAD PUSH2 0xFF00 NOT AND SWAP1 SSTORE MLOAD PUSH32 0x89BB035780742B4FE520972847D93DB0618ABD46516AF218E10FD3479347B7E4 SWAP2 PUSH2 0xD56 SWAP2 DUP5 SWAP2 SWAP1 CALLER SWAP1 PUSH2 0x5D0B JUMP JUMPDEST PUSH1 0x0 DUP2 DUP2 MSTORE PUSH1 0x2 PUSH1 0x20 MSTORE PUSH1 0x40 SWAP1 DUP2 SWAP1 KECCAK256 PUSH1 0x15 ADD DUP1 SLOAD PUSH3 0xFF0000 NOT AND PUSH3 0x50000 OR SWAP1 SSTORE MLOAD PUSH1 0x0 DUP1 MLOAD PUSH1 0x20 PUSH2 0x5EAB DUP4 CODECOPY DUP2 MLOAD SWAP2 MSTORE SWAP1 PUSH2 0x4790 SWAP1 DUP4 SWAP1 PUSH1 0x5 SWAP1 CALLER SWAP1 PUSH2 0x5C5B JUMP JUMPDEST PUSH1 0x40 MLOAD DUP1 SWAP2 SUB SWAP1 LOG1 PUSH1 0x0 DUP2 DUP2 MSTORE PUSH1 0x2 PUSH1 0x20 MSTORE PUSH1 0x40 DUP1 DUP3 KECCAK256 PUSH1 0x15 ADD DUP1 SLOAD PUSH2 0xFF00 NOT AND SWAP1 SSTORE MLOAD PUSH32 0x398FD552105B0090D73611AD526D12979F19B77A7F923343A85D8FD14A13A67 SWAP2 PUSH2 0xD56 SWAP2 DUP5 SWAP2 SWAP1 CALLER SWAP1 PUSH2 0x5D0B JUMP JUMPDEST PUSH1 0x4 DUP1 SLOAD PUSH1 0x0 SWAP2 DUP3 PUSH2 0x47F5 DUP4 PUSH2 0x5AFD JUMP JUMPDEST SWAP1 SWAP2 SSTORE POP POP PUSH1 0x4 SLOAD PUSH1 0x0 SWAP1 DUP2 MSTORE PUSH1 0x2 PUSH1 0x20 DUP2 DUP2 MSTORE PUSH1 0x40 SWAP1 SWAP3 KECCAK256 DUP1 SLOAD PUSH1 0x1 PUSH1 0x1 PUSH1 0xA0 SHL SUB NOT AND CALLER OR DUP2 SSTORE DUP5 MLOAD PUSH1 0x1 DUP3 ADD SSTORE SWAP2 DUP5 ADD MLOAD SWAP1 DUP3 ADD SWAP1 PUSH2 0x4837 SWAP1 DUP3 PUSH2 0x5D83 JUMP JUMPDEST POP PUSH1 0x40 DUP4 ADD MLOAD PUSH1 0x3 DUP3 ADD SWAP1 PUSH2 0x484C SWAP1 DUP3 PUSH2 0x5D83 JUMP JUMPDEST POP PUSH1 0x60 DUP4 ADD MLOAD PUSH1 0x4 DUP3 ADD SSTORE PUSH1 0x80 DUP4 ADD MLOAD PUSH1 0x5 DUP3 ADD SSTORE PUSH1 0xA0 DUP4 ADD MLOAD PUSH1 0x6 DUP3 ADD SSTORE PUSH1 0xC0 DUP4 ADD MLOAD DUP1 MLOAD PUSH2 0x4886 SWAP2 PUSH1 0x7 DUP5 ADD SWAP2 PUSH1 0x20 SWAP1 SWAP2 ADD SWAP1 PUSH2 0x4CC1 JUMP JUMPDEST POP PUSH1 0xE0 DUP4 ADD MLOAD PUSH1 0x8 DUP3 ADD SSTORE PUSH2 0x100 DUP1 DUP5 ADD MLOAD PUSH1 0x9 DUP4 ADD SSTORE PUSH2 0x160 DUP5 ADD MLOAD PUSH1 0xB DUP4 ADD SSTORE PUSH2 0x120 DUP5 ADD MLOAD PUSH1 0xA DUP4 ADD DUP1 SLOAD PUSH2 0x140 DUP8 ADD MLOAD ISZERO DUP1 ISZERO SWAP1 SWAP5 MUL PUSH2 0xFF00 NOT SWAP4 ISZERO ISZERO SWAP4 SWAP1 SWAP4 AND PUSH2 0xFFFF NOT SWAP1 SWAP2 AND OR SWAP2 SWAP1 SWAP2 OR SWAP1 SSTORE PUSH2 0x48F5 JUMPI PUSH2 0x180 DUP4 ADD MLOAD MLOAD PUSH1 0x11 DUP3 ADD DUP2 SWAP1 SSTORE PUSH1 0x12 DUP3 ADD SSTORE PUSH2 0x4904 JUMP JUMPDEST PUSH1 0x1 PUSH1 0x11 DUP3 ADD DUP2 SWAP1 SSTORE PUSH1 0x12 DUP3 ADD SSTORE JUMPDEST PUSH1 0x15 DUP2 ADD DUP1 SLOAD PUSH2 0xFFFF NOT AND PUSH2 0x101 OR SWAP1 SSTORE PUSH1 0x0 JUMPDEST DUP4 PUSH2 0x180 ADD MLOAD MLOAD DUP2 LT ISZERO PUSH2 0x4A76 JUMPI PUSH1 0x0 DUP5 PUSH2 0x180 ADD MLOAD DUP3 DUP2 MLOAD DUP2 LT PUSH2 0x493F JUMPI PUSH2 0x493F PUSH2 0x5AB3 JUMP JUMPDEST PUSH1 0x20 MUL PUSH1 0x20 ADD ADD MLOAD PUSH1 0x60 ADD SWAP1 PUSH1 0xB DUP2 GT ISZERO PUSH2 0x495C JUMPI PUSH2 0x495C PUSH2 0x534E JUMP JUMPDEST SWAP1 DUP2 PUSH1 0xB DUP2 GT ISZERO PUSH2 0x496F JUMPI PUSH2 0x496F PUSH2 0x534E JUMP JUMPDEST DUP2 MSTORE POP POP DUP2 PUSH1 0xC ADD DUP5 PUSH2 0x180 ADD MLOAD DUP3 DUP2 MLOAD DUP2 LT PUSH2 0x498E JUMPI PUSH2 0x498E PUSH2 0x5AB3 JUMP JUMPDEST PUSH1 0x20 SWAP1 DUP2 MUL SWAP2 SWAP1 SWAP2 ADD DUP2 ADD MLOAD DUP3 SLOAD PUSH1 0x1 DUP2 ADD DUP5 SSTORE PUSH1 0x0 SWAP4 DUP5 MSTORE SWAP2 SWAP1 SWAP3 KECCAK256 DUP3 MLOAD DUP1 MLOAD PUSH1 0xB SWAP1 SWAP4 MUL SWAP1 SWAP2 ADD SWAP2 DUP3 SWAP1 DUP2 SWAP1 PUSH2 0x49C6 SWAP1 DUP3 PUSH2 0x5D83 JUMP JUMPDEST POP PUSH1 0x20 DUP3 ADD MLOAD PUSH1 0x1 DUP3 ADD SSTORE PUSH1 0x40 DUP3 ADD MLOAD PUSH1 0x2 DUP3 ADD SSTORE PUSH1 0x60 DUP3 ADD MLOAD PUSH1 0x3 DUP3 ADD SSTORE PUSH1 0x80 DUP3 ADD MLOAD PUSH1 0x4 DUP3 ADD SSTORE PUSH1 0xA0 DUP3 ADD MLOAD PUSH1 0x5 DUP3 ADD SSTORE PUSH1 0xC0 DUP3 ADD MLOAD PUSH1 0x6 DUP3 ADD SWAP1 PUSH2 0x4A0D SWAP1 DUP3 PUSH2 0x5D83 JUMP JUMPDEST POP POP POP PUSH1 0x20 DUP3 ADD MLOAD PUSH1 0x7 DUP3 ADD SSTORE PUSH1 0x40 DUP3 ADD MLOAD PUSH1 0x8 DUP3 ADD SWAP1 PUSH2 0x4A2E SWAP1 DUP3 PUSH2 0x5D83 JUMP JUMPDEST POP PUSH1 0x60 DUP3 ADD MLOAD PUSH1 0x9 DUP3 ADD DUP1 SLOAD PUSH1 0xFF NOT AND PUSH1 0x1 DUP4 PUSH1 0xB DUP2 GT ISZERO PUSH2 0x4A52 JUMPI PUSH2 0x4A52 PUSH2 0x534E JUMP JUMPDEST MUL OR SWAP1 SSTORE POP PUSH1 0x80 DUP3 ADD MLOAD DUP2 PUSH1 0xA ADD SSTORE POP POP DUP1 DUP1 PUSH2 0x4A6E SWAP1 PUSH2 0x5AFD JUMP JUMPDEST SWAP2 POP POP PUSH2 0x4918 JUMP JUMPDEST POP POP PUSH1 0x4 SLOAD SWAP3 SWAP2 POP POP JUMP JUMPDEST PUSH1 0x0 DUP5 DUP2 MSTORE PUSH1 0x2 PUSH1 0x20 MSTORE PUSH1 0x40 SWAP1 KECCAK256 PUSH1 0xC DUP2 ADD DUP1 SLOAD PUSH1 0x4 SWAP2 SWAP1 DUP6 SWAP1 DUP2 LT PUSH2 0x4AA9 JUMPI PUSH2 0x4AA9 PUSH2 0x5AB3 JUMP JUMPDEST SWAP1 PUSH1 0x0 MSTORE PUSH1 0x20 PUSH1 0x0 KECCAK256 SWAP1 PUSH1 0xB MUL ADD PUSH1 0x9 ADD PUSH1 0x0 PUSH2 0x100 EXP DUP2 SLOAD DUP2 PUSH1 0xFF MUL NOT AND SWAP1 DUP4 PUSH1 0xB DUP2 GT ISZERO PUSH2 0x4ADB JUMPI PUSH2 0x4ADB PUSH2 0x534E JUMP JUMPDEST MUL OR SWAP1 SSTORE POP PUSH1 0x0 DUP1 MLOAD PUSH1 0x20 PUSH2 0x5E8B DUP4 CODECOPY DUP2 MLOAD SWAP2 MSTORE DUP6 DUP5 PUSH1 0x4 CALLER PUSH1 0x40 MLOAD PUSH2 0x4B04 SWAP5 SWAP4 SWAP3 SWAP2 SWAP1 PUSH2 0x5CA1 JUMP JUMPDEST PUSH1 0x40 MLOAD DUP1 SWAP2 SUB SWAP1 LOG1 TIMESTAMP DUP2 PUSH1 0xC ADD DUP5 DUP2 SLOAD DUP2 LT PUSH2 0x4B22 JUMPI PUSH2 0x4B22 PUSH2 0x5AB3 JUMP JUMPDEST PUSH1 0x0 SWAP2 DUP3 MSTORE PUSH1 0x20 DUP1 DUP4 KECCAK256 PUSH1 0xA PUSH1 0xB SWAP1 SWAP4 MUL ADD SWAP2 SWAP1 SWAP2 ADD SWAP3 SWAP1 SWAP3 SSTORE PUSH1 0x1 PUSH1 0x1 PUSH1 0xA0 SHL SUB DUP7 AND DUP2 MSTORE PUSH1 0xF DUP4 ADD DUP3 MSTORE PUSH1 0x40 DUP1 DUP3 KECCAK256 DUP7 DUP4 MSTORE PUSH1 0x1 SWAP1 DUP2 ADD SWAP1 SWAP4 MSTORE SWAP1 KECCAK256 ADD PUSH2 0x4B6B DUP4 DUP3 PUSH2 0x5D83 JUMP JUMPDEST POP PUSH1 0x1 PUSH1 0x1 PUSH1 0xA0 SHL SUB DUP5 AND PUSH1 0x0 SWAP1 DUP2 MSTORE PUSH1 0xF DUP3 ADD PUSH1 0x20 SWAP1 DUP2 MSTORE PUSH1 0x40 DUP1 DUP4 KECCAK256 DUP7 DUP5 MSTORE PUSH1 0x1 SWAP1 DUP2 ADD SWAP1 SWAP3 MSTORE SWAP2 DUP3 SWAP1 KECCAK256 DUP1 SLOAD PUSH1 0xFF NOT AND DUP3 OR SWAP1 SSTORE SWAP1 MLOAD PUSH1 0x0 DUP1 MLOAD PUSH1 0x20 PUSH2 0x5EEB DUP4 CODECOPY DUP2 MLOAD SWAP2 MSTORE SWAP2 PUSH2 0x2912 SWAP2 DUP9 SWAP2 DUP9 SWAP2 DUP9 SWAP2 SWAP1 DUP2 SWAP1 CALLER SWAP1 PUSH2 0x5E42 JUMP JUMPDEST PUSH1 0x40 MLOAD DUP1 PUSH1 0x60 ADD PUSH1 0x40 MSTORE DUP1 PUSH1 0x0 PUSH1 0x1 PUSH1 0x1 PUSH1 0xA0 SHL SUB AND DUP2 MSTORE PUSH1 0x20 ADD PUSH1 0x60 DUP2 MSTORE PUSH1 0x20 ADD PUSH1 0x60 DUP2 MSTORE POP SWAP1 JUMP JUMPDEST PUSH1 0x40 MLOAD DUP1 PUSH2 0x2E0 ADD PUSH1 0x40 MSTORE DUP1 PUSH1 0x0 PUSH1 0x1 PUSH1 0x1 PUSH1 0xA0 SHL SUB AND DUP2 MSTORE PUSH1 0x20 ADD PUSH1 0x0 DUP2 MSTORE PUSH1 0x20 ADD PUSH1 0x60 DUP2 MSTORE PUSH1 0x20 ADD PUSH1 0x60 DUP2 MSTORE PUSH1 0x20 ADD PUSH1 0x0 DUP2 MSTORE PUSH1 0x20 ADD PUSH1 0x0 DUP2 MSTORE PUSH1 0x20 ADD PUSH1 0x0 DUP2 MSTORE PUSH1 0x20 ADD PUSH1 0x60 DUP2 MSTORE PUSH1 0x20 ADD PUSH1 0x0 DUP2 MSTORE PUSH1 0x20 ADD PUSH1 0x0 DUP2 MSTORE PUSH1 0x20 ADD PUSH1 0x0 ISZERO ISZERO DUP2 MSTORE PUSH1 0x20 ADD PUSH1 0x0 ISZERO ISZERO DUP2 MSTORE PUSH1 0x20 ADD PUSH1 0x0 DUP2 MSTORE PUSH1 0x20 ADD PUSH1 0x60 DUP2 MSTORE PUSH1 0x20 ADD PUSH1 0x60 DUP2 MSTORE PUSH1 0x20 ADD PUSH1 0x60 DUP2 MSTORE PUSH1 0x20 ADD PUSH1 0x0 DUP2 MSTORE PUSH1 0x20 ADD PUSH1 0x0 DUP2 MSTORE PUSH1 0x20 ADD PUSH1 0x0 DUP2 MSTORE PUSH1 0x20 ADD PUSH1 0x0 DUP2 MSTORE PUSH1 0x20 ADD PUSH1 0x0 ISZERO ISZERO DUP2 MSTORE PUSH1 0x20 ADD PUSH1 0x0 ISZERO ISZERO DUP2 MSTORE PUSH1 0x20 ADD PUSH1 0x0 PUSH1 0x7 DUP2 GT ISZERO PUSH2 0x4CBC JUMPI PUSH2 0x4CBC PUSH2 0x534E JUMP JUMPDEST SWAP1 MSTORE SWAP1 JUMP JUMPDEST DUP3 DUP1 SLOAD DUP3 DUP3 SSTORE SWAP1 PUSH1 0x0 MSTORE PUSH1 0x20 PUSH1 0x0 KECCAK256 SWAP1 DUP2 ADD SWAP3 DUP3 ISZERO PUSH2 0x4CFC JUMPI SWAP2 PUSH1 0x20 MUL DUP3 ADD JUMPDEST DUP3 DUP2 GT ISZERO PUSH2 0x4CFC JUMPI DUP3 MLOAD DUP3 SSTORE SWAP2 PUSH1 0x20 ADD SWAP2 SWAP1 PUSH1 0x1 ADD SWAP1 PUSH2 0x4CE1 JUMP JUMPDEST POP PUSH2 0x4D08 SWAP3 SWAP2 POP PUSH2 0x4D0C JUMP JUMPDEST POP SWAP1 JUMP JUMPDEST JUMPDEST DUP1 DUP3 GT ISZERO PUSH2 0x4D08 JUMPI PUSH1 0x0 DUP2 SSTORE PUSH1 0x1 ADD PUSH2 0x4D0D JUMP JUMPDEST PUSH4 0x4E487B71 PUSH1 0xE0 SHL PUSH1 0x0 MSTORE PUSH1 0x41 PUSH1 0x4 MSTORE PUSH1 0x24 PUSH1 0x0 REVERT JUMPDEST PUSH1 0x40 MLOAD PUSH1 0xA0 DUP2 ADD PUSH1 0x1 PUSH1 0x1 PUSH1 0x40 SHL SUB DUP2 GT DUP3 DUP3 LT OR ISZERO PUSH2 0x4D59 JUMPI PUSH2 0x4D59 PUSH2 0x4D21 JUMP JUMPDEST PUSH1 0x40 MSTORE SWAP1 JUMP JUMPDEST PUSH1 0x40 MLOAD PUSH1 0xE0 DUP2 ADD PUSH1 0x1 PUSH1 0x1 PUSH1 0x40 SHL SUB DUP2 GT DUP3 DUP3 LT OR ISZERO PUSH2 0x4D59 JUMPI PUSH2 0x4D59 PUSH2 0x4D21 JUMP JUMPDEST PUSH1 0x40 MLOAD PUSH2 0x1A0 DUP2 ADD PUSH1 0x1 PUSH1 0x1 PUSH1 0x40 SHL SUB DUP2 GT DUP3 DUP3 LT OR ISZERO PUSH2 0x4D59 JUMPI PUSH2 0x4D59 PUSH2 0x4D21 JUMP JUMPDEST PUSH1 0x40 MLOAD PUSH1 0x1F DUP3 ADD PUSH1 0x1F NOT AND DUP2 ADD PUSH1 0x1 PUSH1 0x1 PUSH1 0x40 SHL SUB DUP2 GT DUP3 DUP3 LT OR ISZERO PUSH2 0x4DCC JUMPI PUSH2 0x4DCC PUSH2 0x4D21 JUMP JUMPDEST PUSH1 0x40 MSTORE SWAP2 SWAP1 POP JUMP JUMPDEST PUSH1 0x0 DUP3 PUSH1 0x1F DUP4 ADD SLT PUSH2 0x4DE5 JUMPI PUSH1 0x0 DUP1 REVERT JUMPDEST DUP2 CALLDATALOAD PUSH1 0x1 PUSH1 0x1 PUSH1 0x40 SHL SUB DUP2 GT ISZERO PUSH2 0x4DFE JUMPI PUSH2 0x4DFE PUSH2 0x4D21 JUMP JUMPDEST PUSH2 0x4E11 PUSH1 0x1F DUP3 ADD PUSH1 0x1F NOT AND PUSH1 0x20 ADD PUSH2 0x4DA4 JUMP JUMPDEST DUP2 DUP2 MSTORE DUP5 PUSH1 0x20 DUP4 DUP7 ADD ADD GT ISZERO PUSH2 0x4E26 JUMPI PUSH1 0x0 DUP1 REVERT JUMPDEST DUP2 PUSH1 0x20 DUP6 ADD PUSH1 0x20 DUP4 ADD CALLDATACOPY PUSH1 0x0 SWAP2 DUP2 ADD PUSH1 0x20 ADD SWAP2 SWAP1 SWAP2 MSTORE SWAP4 SWAP3 POP POP POP JUMP JUMPDEST PUSH1 0x0 PUSH1 0x1 PUSH1 0x1 PUSH1 0x40 SHL SUB DUP3 GT ISZERO PUSH2 0x4E5C JUMPI PUSH2 0x4E5C PUSH2 0x4D21 JUMP JUMPDEST POP PUSH1 0x5 SHL PUSH1 0x20 ADD SWAP1 JUMP JUMPDEST PUSH1 0x0 DUP3 PUSH1 0x1F DUP4 ADD SLT PUSH2 0x4E77 JUMPI PUSH1 0x0 DUP1 REVERT JUMPDEST DUP2 CALLDATALOAD PUSH1 0x20 PUSH2 0x4E8C PUSH2 0x4E87 DUP4 PUSH2 0x4E43 JUMP JUMPDEST PUSH2 0x4DA4 JUMP JUMPDEST DUP3 DUP2 MSTORE PUSH1 0x5 SWAP3 SWAP1 SWAP3 SHL DUP5 ADD DUP2 ADD SWAP2 DUP2 DUP2 ADD SWAP1 DUP7 DUP5 GT ISZERO PUSH2 0x4EAB JUMPI PUSH1 0x0 DUP1 REVERT JUMPDEST DUP3 DUP7 ADD JUMPDEST DUP5 DUP2 LT ISZERO PUSH2 0x4EC6 JUMPI DUP1 CALLDATALOAD DUP4 MSTORE SWAP2 DUP4 ADD SWAP2 DUP4 ADD PUSH2 0x4EAF JUMP JUMPDEST POP SWAP7 SWAP6 POP POP POP POP POP POP JUMP JUMPDEST DUP1 CALLDATALOAD DUP1 ISZERO ISZERO DUP2 EQ PUSH2 0x318E JUMPI PUSH1 0x0 DUP1 REVERT JUMPDEST DUP1 CALLDATALOAD PUSH1 0xC DUP2 LT PUSH2 0x318E JUMPI PUSH1 0x0 DUP1 REVERT JUMPDEST PUSH1 0x0 DUP3 PUSH1 0x1F DUP4 ADD SLT PUSH2 0x4F01 JUMPI PUSH1 0x0 DUP1 REVERT JUMPDEST DUP2 CALLDATALOAD PUSH1 0x20 PUSH2 0x4F11 PUSH2 0x4E87 DUP4 PUSH2 0x4E43 JUMP JUMPDEST DUP3 DUP2 MSTORE PUSH1 0x5 SWAP3 SWAP1 SWAP3 SHL DUP5 ADD DUP2 ADD SWAP2 DUP2 DUP2 ADD SWAP1 DUP7 DUP5 GT ISZERO PUSH2 0x4F30 JUMPI PUSH1 0x0 DUP1 REVERT JUMPDEST DUP3 DUP7 ADD JUMPDEST DUP5 DUP2 LT ISZERO PUSH2 0x4EC6 JUMPI DUP1 CALLDATALOAD PUSH1 0x1 PUSH1 0x1 PUSH1 0x40 SHL SUB DUP1 DUP3 GT ISZERO PUSH2 0x4F53 JUMPI PUSH1 0x0 DUP1 REVERT JUMPDEST SWAP1 DUP9 ADD SWAP1 PUSH1 0x1F NOT PUSH1 0xA0 DUP4 DUP13 SUB DUP3 ADD SLT ISZERO PUSH2 0x4F6C JUMPI PUSH1 0x0 DUP1 REVERT JUMPDEST PUSH2 0x4F74 PUSH2 0x4D37 JUMP JUMPDEST DUP8 DUP5 ADD CALLDATALOAD DUP4 DUP2 GT ISZERO PUSH2 0x4F85 JUMPI PUSH1 0x0 DUP1 REVERT JUMPDEST DUP5 ADD PUSH1 0xE0 DUP2 DUP15 SUB DUP5 ADD SLT ISZERO PUSH2 0x4F99 JUMPI PUSH1 0x0 DUP1 REVERT JUMPDEST PUSH2 0x4FA1 PUSH2 0x4D5F JUMP JUMPDEST SWAP3 POP DUP9 DUP2 ADD CALLDATALOAD DUP5 DUP2 GT ISZERO PUSH2 0x4FB4 JUMPI PUSH1 0x0 DUP1 REVERT JUMPDEST PUSH2 0x4FC2 DUP15 DUP12 DUP4 DUP6 ADD ADD PUSH2 0x4DD4 JUMP JUMPDEST DUP5 MSTORE POP PUSH1 0x40 DUP2 ADD CALLDATALOAD DUP10 DUP5 ADD MSTORE PUSH1 0x60 DUP2 ADD CALLDATALOAD PUSH1 0x40 DUP5 ADD MSTORE PUSH1 0x80 DUP1 DUP3 ADD CALLDATALOAD PUSH1 0x60 DUP6 ADD MSTORE PUSH1 0xA0 DUP3 ADD CALLDATALOAD DUP2 DUP6 ADD MSTORE PUSH1 0xC0 DUP3 ADD CALLDATALOAD PUSH1 0xA0 DUP6 ADD MSTORE PUSH1 0xE0 DUP3 ADD CALLDATALOAD DUP6 DUP2 GT ISZERO PUSH2 0x5008 JUMPI PUSH1 0x0 DUP1 REVERT JUMPDEST PUSH2 0x5016 DUP16 DUP13 DUP4 DUP7 ADD ADD PUSH2 0x4DD4 JUMP JUMPDEST PUSH1 0xC0 DUP7 ADD MSTORE POP SWAP3 DUP3 MSTORE PUSH1 0x40 DUP6 ADD CALLDATALOAD DUP10 DUP4 ADD MSTORE PUSH1 0x60 DUP6 ADD CALLDATALOAD SWAP3 DUP5 DUP5 GT ISZERO PUSH2 0x503B JUMPI PUSH1 0x0 DUP1 REVERT JUMPDEST PUSH2 0x5049 DUP15 DUP12 DUP7 DUP10 ADD ADD PUSH2 0x4DD4 JUMP JUMPDEST PUSH1 0x40 DUP5 ADD MSTORE PUSH2 0x5059 DUP2 DUP8 ADD PUSH2 0x4EE1 JUMP JUMPDEST PUSH1 0x60 DUP5 ADD MSTORE PUSH1 0xA0 SWAP6 SWAP1 SWAP6 ADD CALLDATALOAD SWAP5 DUP3 ADD SWAP5 SWAP1 SWAP5 MSTORE DUP7 MSTORE POP POP POP SWAP2 DUP4 ADD SWAP2 DUP4 ADD PUSH2 0x4F34 JUMP JUMPDEST PUSH1 0x0 PUSH2 0x1A0 DUP3 DUP5 SUB SLT ISZERO PUSH2 0x508F JUMPI PUSH1 0x0 DUP1 REVERT JUMPDEST PUSH2 0x5097 PUSH2 0x4D81 JUMP JUMPDEST SWAP1 POP DUP2 CALLDATALOAD DUP2 MSTORE PUSH1 0x20 DUP3 ADD CALLDATALOAD PUSH1 0x1 PUSH1 0x1 PUSH1 0x40 SHL SUB DUP1 DUP3 GT ISZERO PUSH2 0x50B7 JUMPI PUSH1 0x0 DUP1 REVERT JUMPDEST PUSH2 0x50C3 DUP6 DUP4 DUP7 ADD PUSH2 0x4DD4 JUMP JUMPDEST PUSH1 0x20 DUP5 ADD MSTORE PUSH1 0x40 DUP5 ADD CALLDATALOAD SWAP2 POP DUP1 DUP3 GT ISZERO PUSH2 0x50DC JUMPI PUSH1 0x0 DUP1 REVERT JUMPDEST PUSH2 0x50E8 DUP6 DUP4 DUP7 ADD PUSH2 0x4DD4 JUMP JUMPDEST PUSH1 0x40 DUP5 ADD MSTORE PUSH1 0x60 DUP5 ADD CALLDATALOAD PUSH1 0x60 DUP5 ADD MSTORE PUSH1 0x80 DUP5 ADD CALLDATALOAD PUSH1 0x80 DUP5 ADD MSTORE PUSH1 0xA0 DUP5 ADD CALLDATALOAD PUSH1 0xA0 DUP5 ADD MSTORE PUSH1 0xC0 DUP5 ADD CALLDATALOAD SWAP2 POP DUP1 DUP3 GT ISZERO PUSH2 0x511F JUMPI PUSH1 0x0 DUP1 REVERT JUMPDEST PUSH2 0x512B DUP6 DUP4 DUP7 ADD PUSH2 0x4E66 JUMP JUMPDEST PUSH1 0xC0 DUP5 ADD MSTORE PUSH1 0xE0 DUP5 DUP2 ADD CALLDATALOAD SWAP1 DUP5 ADD MSTORE PUSH2 0x100 DUP1 DUP6 ADD CALLDATALOAD SWAP1 DUP5 ADD MSTORE PUSH2 0x120 SWAP2 POP PUSH2 0x5155 DUP3 DUP6 ADD PUSH2 0x4ED1 JUMP JUMPDEST DUP3 DUP5 ADD MSTORE PUSH2 0x140 SWAP2 POP PUSH2 0x5169 DUP3 DUP6 ADD PUSH2 0x4ED1 JUMP JUMPDEST DUP3 DUP5 ADD MSTORE PUSH2 0x160 SWAP2 POP DUP2 DUP5 ADD CALLDATALOAD DUP3 DUP5 ADD MSTORE PUSH2 0x180 SWAP2 POP DUP2 DUP5 ADD CALLDATALOAD DUP2 DUP2 GT ISZERO PUSH2 0x5190 JUMPI PUSH1 0x0 DUP1 REVERT JUMPDEST PUSH2 0x519C DUP7 DUP3 DUP8 ADD PUSH2 0x4EF0 JUMP JUMPDEST DUP4 DUP6 ADD MSTORE POP POP POP SWAP3 SWAP2 POP POP JUMP JUMPDEST PUSH1 0x0 DUP1 PUSH1 0x40 DUP4 DUP6 SUB SLT ISZERO PUSH2 0x51BC JUMPI PUSH1 0x0 DUP1 REVERT JUMPDEST DUP3 CALLDATALOAD SWAP2 POP PUSH1 0x20 DUP4 ADD CALLDATALOAD PUSH1 0x1 PUSH1 0x1 PUSH1 0x40 SHL SUB DUP2 GT ISZERO PUSH2 0x51D9 JUMPI PUSH1 0x0 DUP1 REVERT JUMPDEST PUSH2 0x51E5 DUP6 DUP3 DUP7 ADD PUSH2 0x507C JUMP JUMPDEST SWAP2 POP POP SWAP3 POP SWAP3 SWAP1 POP JUMP JUMPDEST DUP1 CALLDATALOAD PUSH1 0x1 PUSH1 0x1 PUSH1 0xA0 SHL SUB DUP2 AND DUP2 EQ PUSH2 0x318E JUMPI PUSH1 0x0 DUP1 REVERT JUMPDEST PUSH1 0x0 PUSH1 0x20 DUP3 DUP5 SUB SLT ISZERO PUSH2 0x5218 JUMPI PUSH1 0x0 DUP1 REVERT JUMPDEST PUSH2 0x201C DUP3 PUSH2 0x51EF JUMP JUMPDEST PUSH1 0x0 PUSH1 0x20 DUP3 DUP5 SUB SLT ISZERO PUSH2 0x5233 JUMPI PUSH1 0x0 DUP1 REVERT JUMPDEST POP CALLDATALOAD SWAP2 SWAP1 POP JUMP JUMPDEST PUSH1 0x0 DUP1 PUSH1 0x40 DUP4 DUP6 SUB SLT ISZERO PUSH2 0x524D JUMPI PUSH1 0x0 DUP1 REVERT JUMPDEST DUP3 CALLDATALOAD SWAP2 POP PUSH2 0x525D PUSH1 0x20 DUP5 ADD PUSH2 0x51EF JUMP JUMPDEST SWAP1 POP SWAP3 POP SWAP3 SWAP1 POP JUMP JUMPDEST PUSH1 0x0 DUP1 PUSH1 0x0 DUP1 PUSH1 0x0 PUSH1 0xA0 DUP7 DUP9 SUB SLT ISZERO PUSH2 0x527E JUMPI PUSH1 0x0 DUP1 REVERT JUMPDEST DUP6 CALLDATALOAD SWAP5 POP PUSH2 0x528E PUSH1 0x20 DUP8 ADD PUSH2 0x51EF JUMP JUMPDEST SWAP4 POP PUSH1 0x40 DUP7 ADD CALLDATALOAD SWAP3 POP PUSH2 0x52A3 PUSH1 0x60 DUP8 ADD PUSH2 0x4ED1 JUMP JUMPDEST SWAP2 POP PUSH1 0x80 DUP7 ADD CALLDATALOAD PUSH1 0x1 PUSH1 0x1 PUSH1 0x40 SHL SUB DUP2 GT ISZERO PUSH2 0x52BE JUMPI PUSH1 0x0 DUP1 REVERT JUMPDEST PUSH2 0x52CA DUP9 DUP3 DUP10 ADD PUSH2 0x4DD4 JUMP JUMPDEST SWAP2 POP POP SWAP3 SWAP6 POP SWAP3 SWAP6 SWAP1 SWAP4 POP JUMP JUMPDEST PUSH1 0x0 DUP1 PUSH1 0x40 DUP4 DUP6 SUB SLT ISZERO PUSH2 0x52EA JUMPI PUSH1 0x0 DUP1 REVERT JUMPDEST DUP3 CALLDATALOAD SWAP2 POP PUSH1 0x20 DUP4 ADD CALLDATALOAD PUSH1 0x1 PUSH1 0x1 PUSH1 0x40 SHL SUB DUP2 GT ISZERO PUSH2 0x5307 JUMPI PUSH1 0x0 DUP1 REVERT JUMPDEST PUSH2 0x51E5 DUP6 DUP3 DUP7 ADD PUSH2 0x4E66 JUMP JUMPDEST PUSH1 0x0 DUP2 MLOAD DUP1 DUP5 MSTORE PUSH1 0x20 DUP1 DUP6 ADD SWAP5 POP DUP1 DUP5 ADD PUSH1 0x0 JUMPDEST DUP4 DUP2 LT ISZERO PUSH2 0x5343 JUMPI DUP2 MLOAD DUP8 MSTORE SWAP6 DUP3 ADD SWAP6 SWAP1 DUP3 ADD SWAP1 PUSH1 0x1 ADD PUSH2 0x5327 JUMP JUMPDEST POP SWAP5 SWAP6 SWAP5 POP POP POP POP POP JUMP JUMPDEST PUSH4 0x4E487B71 PUSH1 0xE0 SHL PUSH1 0x0 MSTORE PUSH1 0x21 PUSH1 0x4 MSTORE PUSH1 0x24 PUSH1 0x0 REVERT JUMPDEST PUSH1 0x5 DUP2 LT PUSH2 0x5374 JUMPI PUSH2 0x5374 PUSH2 0x534E JUMP JUMPDEST SWAP1 MSTORE JUMP JUMPDEST PUSH1 0x0 DUP2 MLOAD DUP1 DUP5 MSTORE PUSH1 0x0 JUMPDEST DUP2 DUP2 LT ISZERO PUSH2 0x539E JUMPI PUSH1 0x20 DUP2 DUP6 ADD DUP2 ADD MLOAD DUP7 DUP4 ADD DUP3 ADD MSTORE ADD PUSH2 0x5382 JUMP JUMPDEST POP PUSH1 0x0 PUSH1 0x20 DUP3 DUP7 ADD ADD MSTORE PUSH1 0x20 PUSH1 0x1F NOT PUSH1 0x1F DUP4 ADD AND DUP6 ADD ADD SWAP2 POP POP SWAP3 SWAP2 POP POP JUMP JUMPDEST PUSH1 0x1 DUP1 PUSH1 0xA0 SHL SUB DUP2 MLOAD AND DUP3 MSTORE PUSH1 0x0 PUSH1 0x20 DUP1 DUP4 ADD MLOAD PUSH1 0x60 DUP3 DUP7 ADD MSTORE PUSH2 0x53E5 PUSH1 0x60 DUP7 ADD DUP3 PUSH2 0x5313 JUMP JUMPDEST SWAP1 POP PUSH1 0x40 DUP1 DUP6 ADD MLOAD DUP7 DUP4 SUB DUP3 DUP9 ADD MSTORE DUP3 DUP2 MLOAD DUP1 DUP6 MSTORE DUP6 DUP6 ADD SWAP2 POP DUP6 DUP2 PUSH1 0x5 SHL DUP7 ADD ADD DUP7 DUP5 ADD SWAP4 POP PUSH1 0x0 JUMPDEST DUP3 DUP2 LT ISZERO PUSH2 0x5455 JUMPI PUSH1 0x1F NOT DUP8 DUP4 SUB ADD DUP5 MSTORE DUP5 MLOAD PUSH2 0x542D DUP4 DUP3 MLOAD PUSH2 0x5364 JUMP JUMPDEST DUP9 ADD MLOAD DUP3 DUP10 ADD DUP8 SWAP1 MSTORE PUSH2 0x5442 DUP4 DUP9 ADD DUP3 PUSH2 0x5378 JUMP JUMPDEST SWAP6 DUP10 ADD SWAP6 SWAP5 DUP10 ADD SWAP5 SWAP3 POP POP PUSH1 0x1 ADD PUSH2 0x540F JUMP JUMPDEST POP SWAP10 SWAP9 POP POP POP POP POP POP POP POP POP JUMP JUMPDEST PUSH1 0x20 DUP2 MSTORE PUSH1 0x0 PUSH2 0x201C PUSH1 0x20 DUP4 ADD DUP5 PUSH2 0x53BE JUMP JUMPDEST PUSH1 0x0 DUP1 PUSH1 0x0 DUP1 PUSH1 0x0 PUSH1 0xA0 DUP7 DUP9 SUB SLT ISZERO PUSH2 0x548E JUMPI PUSH1 0x0 DUP1 REVERT JUMPDEST DUP6 CALLDATALOAD SWAP5 POP PUSH2 0x549E PUSH1 0x20 DUP8 ADD PUSH2 0x51EF JUMP JUMPDEST SWAP4 POP PUSH1 0x40 DUP7 ADD CALLDATALOAD SWAP3 POP PUSH2 0x54B3 PUSH1 0x60 DUP8 ADD PUSH2 0x4ED1 JUMP JUMPDEST SWAP2 POP PUSH2 0x54C1 PUSH1 0x80 DUP8 ADD PUSH2 0x51EF JUMP JUMPDEST SWAP1 POP SWAP3 SWAP6 POP SWAP3 SWAP6 SWAP1 SWAP4 POP JUMP JUMPDEST PUSH1 0x0 DUP1 PUSH1 0x40 DUP4 DUP6 SUB SLT ISZERO PUSH2 0x54E0 JUMPI PUSH1 0x0 DUP1 REVERT JUMPDEST POP POP DUP1 CALLDATALOAD SWAP3 PUSH1 0x20 SWAP1 SWAP2 ADD CALLDATALOAD SWAP2 POP JUMP JUMPDEST PUSH1 0x0 DUP1 PUSH1 0x40 DUP4 DUP6 SUB SLT ISZERO PUSH2 0x5502 JUMPI PUSH1 0x0 DUP1 REVERT JUMPDEST DUP3 CALLDATALOAD SWAP2 POP PUSH2 0x525D PUSH1 0x20 DUP5 ADD PUSH2 0x4ED1 JUMP JUMPDEST PUSH1 0x0 DUP1 PUSH1 0x0 PUSH1 0x60 DUP5 DUP7 SUB SLT ISZERO PUSH2 0x5527 JUMPI PUSH1 0x0 DUP1 REVERT JUMPDEST DUP4 CALLDATALOAD SWAP3 POP PUSH2 0x5537 PUSH1 0x20 DUP6 ADD PUSH2 0x51EF JUMP JUMPDEST SWAP2 POP PUSH2 0x5545 PUSH1 0x40 DUP6 ADD PUSH2 0x4ED1 JUMP JUMPDEST SWAP1 POP SWAP3 POP SWAP3 POP SWAP3 JUMP JUMPDEST PUSH1 0x40 DUP2 MSTORE PUSH1 0x0 PUSH2 0x5561 PUSH1 0x40 DUP4 ADD DUP6 PUSH2 0x5313 JUMP JUMPDEST SWAP1 POP DUP3 PUSH1 0x20 DUP4 ADD MSTORE SWAP4 SWAP3 POP POP POP JUMP JUMPDEST PUSH1 0x20 DUP1 DUP3 MSTORE DUP3 MLOAD DUP3 DUP3 ADD DUP2 SWAP1 MSTORE PUSH1 0x0 SWAP2 SWAP1 DUP5 DUP3 ADD SWAP1 PUSH1 0x40 DUP6 ADD SWAP1 DUP5 JUMPDEST DUP2 DUP2 LT ISZERO PUSH2 0x55B1 JUMPI DUP4 MLOAD PUSH1 0x1 PUSH1 0x1 PUSH1 0xA0 SHL SUB AND DUP4 MSTORE SWAP3 DUP5 ADD SWAP3 SWAP2 DUP5 ADD SWAP2 PUSH1 0x1 ADD PUSH2 0x558C JUMP JUMPDEST POP SWAP1 SWAP7 SWAP6 POP POP POP POP POP POP JUMP JUMPDEST PUSH1 0x0 PUSH1 0x20 DUP3 DUP5 SUB SLT ISZERO PUSH2 0x55CF JUMPI PUSH1 0x0 DUP1 REVERT JUMPDEST DUP2 CALLDATALOAD PUSH1 0x1 PUSH1 0x1 PUSH1 0x40 SHL SUB DUP2 GT ISZERO PUSH2 0x55E5 JUMPI PUSH1 0x0 DUP1 REVERT JUMPDEST PUSH2 0xB32 DUP5 DUP3 DUP6 ADD PUSH2 0x507C JUMP JUMPDEST PUSH1 0xC DUP2 LT PUSH2 0x5374 JUMPI PUSH2 0x5374 PUSH2 0x534E JUMP JUMPDEST PUSH1 0x20 DUP2 ADD PUSH2 0xA1E DUP3 DUP5 PUSH2 0x55F1 JUMP JUMPDEST PUSH1 0x0 DUP1 PUSH1 0x0 PUSH1 0x60 DUP5 DUP7 SUB SLT ISZERO PUSH2 0x5624 JUMPI PUSH1 0x0 DUP1 REVERT JUMPDEST DUP4 CALLDATALOAD SWAP3 POP PUSH1 0x20 DUP5 ADD CALLDATALOAD SWAP2 POP PUSH1 0x40 DUP5 ADD CALLDATALOAD PUSH1 0x1 PUSH1 0x1 PUSH1 0x40 SHL SUB DUP2 GT ISZERO PUSH2 0x5648 JUMPI PUSH1 0x0 DUP1 REVERT JUMPDEST PUSH2 0x5654 DUP7 DUP3 DUP8 ADD PUSH2 0x4DD4 JUMP JUMPDEST SWAP2 POP POP SWAP3 POP SWAP3 POP SWAP3 JUMP JUMPDEST PUSH1 0x0 DUP2 MLOAD DUP1 DUP5 MSTORE PUSH1 0x20 DUP1 DUP6 ADD DUP1 DUP2 SWAP7 POP DUP4 PUSH1 0x5 SHL DUP2 ADD SWAP2 POP DUP3 DUP7 ADD PUSH1 0x0 JUMPDEST DUP6 DUP2 LT ISZERO PUSH2 0x575A JUMPI DUP3 DUP5 SUB DUP10 MSTORE DUP2 MLOAD PUSH1 0xA0 DUP2 MLOAD DUP2 DUP8 MSTORE DUP1 MLOAD PUSH1 0xE0 DUP1 DUP5 DUP11 ADD MSTORE PUSH2 0x56A9 PUSH2 0x180 DUP11 ADD DUP4 PUSH2 0x5378 JUMP JUMPDEST SWAP2 POP DUP10 DUP4 ADD MLOAD PUSH1 0xC0 DUP2 DUP2 DUP13 ADD MSTORE PUSH1 0x40 SWAP2 POP DUP2 DUP6 ADD MLOAD DUP4 DUP13 ADD MSTORE PUSH1 0x60 SWAP3 POP DUP3 DUP6 ADD MLOAD PUSH2 0x100 DUP13 ADD MSTORE PUSH1 0x80 DUP1 DUP7 ADD MLOAD PUSH2 0x120 DUP14 ADD MSTORE DUP7 DUP7 ADD MLOAD PUSH2 0x140 DUP14 ADD MSTORE DUP2 DUP7 ADD MLOAD SWAP7 POP PUSH1 0x9F NOT DUP13 DUP7 SUB ADD PUSH2 0x160 DUP14 ADD MSTORE PUSH2 0x5703 DUP6 DUP9 PUSH2 0x5378 JUMP JUMPDEST SWAP7 POP DUP13 DUP9 ADD MLOAD DUP14 DUP14 ADD MSTORE DUP3 DUP9 ADD MLOAD SWAP6 POP DUP12 DUP8 SUB DUP4 DUP14 ADD MSTORE PUSH2 0x5724 DUP8 DUP8 PUSH2 0x5378 JUMP JUMPDEST SWAP7 POP DUP4 DUP9 ADD MLOAD SWAP6 POP PUSH2 0x5738 DUP5 DUP14 ADD DUP8 PUSH2 0x55F1 JUMP JUMPDEST SWAP7 DUP8 ADD MLOAD SWAP11 SWAP1 SWAP7 ADD SWAP10 SWAP1 SWAP10 MSTORE POP POP POP SWAP10 DUP7 ADD SWAP10 SWAP5 POP POP SWAP1 DUP5 ADD SWAP1 PUSH1 0x1 ADD PUSH2 0x567C JUMP JUMPDEST POP SWAP2 SWAP8 SWAP7 POP POP POP POP POP POP POP JUMP JUMPDEST PUSH1 0x20 DUP2 MSTORE PUSH1 0x0 PUSH2 0x201C PUSH1 0x20 DUP4 ADD DUP5 PUSH2 0x565E JUMP JUMPDEST PUSH1 0x0 DUP2 MLOAD DUP1 DUP5 MSTORE PUSH1 0x20 DUP1 DUP6 ADD DUP1 DUP2 SWAP7 POP DUP4 PUSH1 0x5 SHL DUP2 ADD SWAP2 POP DUP3 DUP7 ADD PUSH1 0x0 JUMPDEST DUP6 DUP2 LT ISZERO PUSH2 0x575A JUMPI DUP3 DUP5 SUB DUP10 MSTORE PUSH2 0x57B0 DUP5 DUP4 MLOAD PUSH2 0x53BE JUMP JUMPDEST SWAP9 DUP6 ADD SWAP9 SWAP4 POP SWAP1 DUP5 ADD SWAP1 PUSH1 0x1 ADD PUSH2 0x5798 JUMP JUMPDEST PUSH1 0x8 DUP2 LT PUSH2 0x5374 JUMPI PUSH2 0x5374 PUSH2 0x534E JUMP JUMPDEST PUSH1 0x20 DUP2 MSTORE PUSH2 0x57EC PUSH1 0x20 DUP3 ADD DUP4 MLOAD PUSH1 0x1 PUSH1 0x1 PUSH1 0xA0 SHL SUB AND SWAP1 MSTORE JUMP JUMPDEST PUSH1 0x20 DUP3 ADD MLOAD PUSH1 0x40 DUP3 ADD MSTORE PUSH1 0x0 PUSH1 0x40 DUP4 ADD MLOAD PUSH2 0x2E0 DUP1 PUSH1 0x60 DUP6 ADD MSTORE PUSH2 0x5814 PUSH2 0x300 DUP6 ADD DUP4 PUSH2 0x5378 JUMP JUMPDEST SWAP2 POP PUSH1 0x60 DUP6 ADD MLOAD PUSH1 0x1F NOT DUP1 DUP7 DUP6 SUB ADD PUSH1 0x80 DUP8 ADD MSTORE PUSH2 0x5832 DUP5 DUP4 PUSH2 0x5378 JUMP JUMPDEST SWAP4 POP PUSH1 0x80 DUP8 ADD MLOAD PUSH1 0xA0 DUP8 ADD MSTORE PUSH1 0xA0 DUP8 ADD MLOAD PUSH1 0xC0 DUP8 ADD MSTORE PUSH1 0xC0 DUP8 ADD MLOAD PUSH1 0xE0 DUP8 ADD MSTORE PUSH1 0xE0 DUP8 ADD MLOAD SWAP2 POP PUSH2 0x100 DUP2 DUP8 DUP7 SUB ADD DUP2 DUP9 ADD MSTORE PUSH2 0x586F DUP6 DUP5 PUSH2 0x5313 JUMP JUMPDEST SWAP1 DUP9 ADD MLOAD PUSH2 0x120 DUP9 DUP2 ADD SWAP2 SWAP1 SWAP2 MSTORE DUP9 ADD MLOAD PUSH2 0x140 DUP1 DUP10 ADD SWAP2 SWAP1 SWAP2 MSTORE DUP9 ADD MLOAD SWAP1 SWAP5 POP SWAP2 POP PUSH2 0x160 PUSH2 0x58A2 DUP2 DUP9 ADD DUP5 ISZERO ISZERO SWAP1 MSTORE JUMP JUMPDEST DUP8 ADD MLOAD SWAP2 POP PUSH2 0x180 PUSH2 0x58B7 DUP8 DUP3 ADD DUP5 ISZERO ISZERO SWAP1 MSTORE JUMP JUMPDEST DUP1 DUP9 ADD MLOAD SWAP3 POP POP PUSH2 0x1A0 DUP3 DUP2 DUP9 ADD MSTORE DUP1 DUP9 ADD MLOAD SWAP3 POP POP PUSH2 0x1C0 DUP2 DUP8 DUP7 SUB ADD DUP2 DUP9 ADD MSTORE PUSH2 0x58E3 DUP6 DUP5 PUSH2 0x565E JUMP JUMPDEST SWAP5 POP DUP1 DUP9 ADD MLOAD SWAP3 POP POP PUSH2 0x1E0 DUP2 DUP8 DUP7 SUB ADD DUP2 DUP9 ADD MSTORE PUSH2 0x5902 DUP6 DUP5 PUSH2 0x577A JUMP JUMPDEST SWAP5 POP DUP1 DUP9 ADD MLOAD SWAP3 POP POP PUSH2 0x200 DUP2 DUP8 DUP7 SUB ADD DUP2 DUP9 ADD MSTORE PUSH2 0x5921 DUP6 DUP5 PUSH2 0x577A JUMP JUMPDEST SWAP1 DUP9 ADD MLOAD PUSH2 0x220 DUP9 DUP2 ADD SWAP2 SWAP1 SWAP2 MSTORE DUP9 ADD MLOAD PUSH2 0x240 DUP1 DUP10 ADD SWAP2 SWAP1 SWAP2 MSTORE DUP9 ADD MLOAD PUSH2 0x260 DUP1 DUP10 ADD SWAP2 SWAP1 SWAP2 MSTORE DUP9 ADD MLOAD PUSH2 0x280 DUP1 DUP10 ADD SWAP2 SWAP1 SWAP2 MSTORE DUP9 ADD MLOAD SWAP1 SWAP5 POP SWAP2 POP PUSH2 0x2A0 SWAP1 POP PUSH2 0x5970 DUP2 DUP8 ADD DUP4 ISZERO ISZERO SWAP1 MSTORE JUMP JUMPDEST DUP7 ADD MLOAD SWAP1 POP PUSH2 0x2C0 PUSH2 0x5985 DUP7 DUP3 ADD DUP4 ISZERO ISZERO SWAP1 MSTORE JUMP JUMPDEST DUP7 ADD MLOAD SWAP1 POP PUSH2 0x5996 DUP6 DUP4 ADD DUP3 PUSH2 0x57C2 JUMP JUMPDEST POP SWAP1 SWAP5 SWAP4 POP POP POP POP JUMP JUMPDEST PUSH1 0x20 DUP2 ADD PUSH2 0xA1E DUP3 DUP5 PUSH2 0x57C2 JUMP JUMPDEST PUSH1 0x20 DUP1 DUP3 MSTORE PUSH1 0xF SWAP1 DUP3 ADD MSTORE PUSH15 0x756E706169642070656E616C747921 PUSH1 0x88 SHL PUSH1 0x40 DUP3 ADD MSTORE PUSH1 0x60 ADD SWAP1 JUMP JUMPDEST PUSH1 0x20 DUP1 DUP3 MSTORE PUSH1 0x12 SWAP1 DUP3 ADD MSTORE PUSH18 0x57726F6E6720696E6465782076616C756521 PUSH1 0x70 SHL PUSH1 0x40 DUP3 ADD MSTORE PUSH1 0x60 ADD SWAP1 JUMP JUMPDEST PUSH4 0x4E487B71 PUSH1 0xE0 SHL PUSH1 0x0 MSTORE PUSH1 0x11 PUSH1 0x4 MSTORE PUSH1 0x24 PUSH1 0x0 REVERT JUMPDEST DUP1 DUP3 MUL DUP2 ISZERO DUP3 DUP3 DIV DUP5 EQ OR PUSH2 0xA1E JUMPI PUSH2 0xA1E PUSH2 0x5A03 JUMP JUMPDEST DUP5 DUP2 MSTORE PUSH1 0x80 PUSH1 0x20 DUP3 ADD MSTORE PUSH1 0x0 PUSH2 0x5A49 PUSH1 0x80 DUP4 ADD DUP7 PUSH2 0x5313 JUMP JUMPDEST PUSH1 0x1 PUSH1 0x1 PUSH1 0xA0 SHL SUB SWAP5 SWAP1 SWAP5 AND PUSH1 0x40 DUP4 ADD MSTORE POP SWAP1 ISZERO ISZERO PUSH1 0x60 SWAP1 SWAP2 ADD MSTORE SWAP3 SWAP2 POP POP JUMP JUMPDEST PUSH1 0x20 DUP1 DUP3 MSTORE PUSH1 0xB SWAP1 DUP3 ADD MSTORE PUSH11 0x10D85B1B0819985A5B1959 PUSH1 0xAA SHL PUSH1 0x40 DUP3 ADD MSTORE PUSH1 0x60 ADD SWAP1 JUMP JUMPDEST PUSH1 0x1 PUSH1 0x1 PUSH1 0xA0 SHL SUB SWAP4 DUP5 AND DUP2 MSTORE SWAP2 SWAP1 SWAP3 AND PUSH1 0x20 DUP3 ADD MSTORE PUSH1 0x40 DUP2 ADD SWAP2 SWAP1 SWAP2 MSTORE PUSH1 0x60 ADD SWAP1 JUMP JUMPDEST PUSH4 0x4E487B71 PUSH1 0xE0 SHL PUSH1 0x0 MSTORE PUSH1 0x32 PUSH1 0x4 MSTORE PUSH1 0x24 PUSH1 0x0 REVERT JUMPDEST PUSH1 0x1 DUP2 DUP2 SHR SWAP1 DUP3 AND DUP1 PUSH2 0x5ADD JUMPI PUSH1 0x7F DUP3 AND SWAP2 POP JUMPDEST PUSH1 0x20 DUP3 LT DUP2 SUB PUSH2 0x1E4C JUMPI PUSH4 0x4E487B71 PUSH1 0xE0 SHL PUSH1 0x0 MSTORE PUSH1 0x22 PUSH1 0x4 MSTORE PUSH1 0x24 PUSH1 0x0 REVERT JUMPDEST PUSH1 0x0 PUSH1 0x1 DUP3 ADD PUSH2 0x5B0F JUMPI PUSH2 0x5B0F PUSH2 0x5A03 JUMP JUMPDEST POP PUSH1 0x1 ADD SWAP1 JUMP JUMPDEST DUP1 DUP3 ADD DUP1 DUP3 GT ISZERO PUSH2 0xA1E JUMPI PUSH2 0xA1E PUSH2 0x5A03 JUMP JUMPDEST PUSH1 0x1 DUP1 PUSH1 0xA0 SHL SUB DUP5 AND DUP2 MSTORE DUP3 PUSH1 0x20 DUP3 ADD MSTORE PUSH1 0x60 PUSH1 0x40 DUP3 ADD MSTORE DUP2 MLOAD PUSH1 0x60 DUP3 ADD MSTORE PUSH1 0x0 PUSH1 0x20 DUP4 ADD MLOAD PUSH2 0x1A0 DUP1 PUSH1 0x80 DUP6 ADD MSTORE PUSH2 0x5B66 PUSH2 0x200 DUP6 ADD DUP4 PUSH2 0x5378 JUMP JUMPDEST SWAP2 POP PUSH1 0x40 DUP6 ADD MLOAD PUSH1 0x5F NOT DUP1 DUP7 DUP6 SUB ADD PUSH1 0xA0 DUP8 ADD MSTORE PUSH2 0x5B84 DUP5 DUP4 PUSH2 0x5378 JUMP JUMPDEST SWAP4 POP PUSH1 0x60 DUP8 ADD MLOAD PUSH1 0xC0 DUP8 ADD MSTORE PUSH1 0x80 DUP8 ADD MLOAD PUSH1 0xE0 DUP8 ADD MSTORE PUSH1 0xA0 DUP8 ADD MLOAD SWAP2 POP PUSH2 0x100 DUP3 DUP2 DUP9 ADD MSTORE PUSH1 0xC0 DUP9 ADD MLOAD SWAP3 POP PUSH2 0x120 DUP3 DUP9 DUP8 SUB ADD DUP2 DUP10 ADD MSTORE PUSH2 0x5BC6 DUP7 DUP6 PUSH2 0x5313 JUMP JUMPDEST PUSH1 0xE0 DUP11 ADD MLOAD PUSH2 0x140 DUP11 DUP2 ADD SWAP2 SWAP1 SWAP2 MSTORE SWAP3 DUP11 ADD MLOAD PUSH2 0x160 DUP1 DUP12 ADD SWAP2 SWAP1 SWAP2 MSTORE SWAP2 DUP11 ADD MLOAD SWAP1 SWAP7 POP SWAP4 POP SWAP1 PUSH2 0x180 SWAP1 PUSH2 0x5BFE DUP3 DUP11 ADD DUP7 ISZERO ISZERO SWAP1 MSTORE JUMP JUMPDEST DUP10 ADD MLOAD ISZERO ISZERO SWAP5 DUP9 ADD SWAP5 SWAP1 SWAP5 MSTORE DUP8 ADD MLOAD PUSH2 0x1C0 DUP8 ADD MSTORE SWAP2 DUP7 ADD MLOAD DUP6 DUP5 SUB SWAP1 SWAP3 ADD PUSH2 0x1E0 DUP7 ADD MSTORE POP PUSH2 0x5C2E DUP3 DUP3 PUSH2 0x565E JUMP JUMPDEST SWAP8 SWAP7 POP POP POP POP POP POP POP JUMP JUMPDEST PUSH1 0x0 DUP3 PUSH2 0x5C56 JUMPI PUSH4 0x4E487B71 PUSH1 0xE0 SHL PUSH1 0x0 MSTORE PUSH1 0x12 PUSH1 0x4 MSTORE PUSH1 0x24 PUSH1 0x0 REVERT JUMPDEST POP DIV SWAP1 JUMP JUMPDEST DUP4 DUP2 MSTORE PUSH1 0x60 DUP2 ADD PUSH2 0x5C6F PUSH1 0x20 DUP4 ADD DUP6 PUSH2 0x57C2 JUMP JUMPDEST PUSH1 0x1 PUSH1 0x1 PUSH1 0xA0 SHL SUB SWAP3 SWAP1 SWAP3 AND PUSH1 0x40 SWAP2 SWAP1 SWAP2 ADD MSTORE SWAP3 SWAP2 POP POP JUMP JUMPDEST PUSH1 0x0 PUSH1 0x20 DUP3 DUP5 SUB SLT ISZERO PUSH2 0x5C9A JUMPI PUSH1 0x0 DUP1 REVERT JUMPDEST POP MLOAD SWAP2 SWAP1 POP JUMP JUMPDEST DUP5 DUP2 MSTORE PUSH1 0x20 DUP2 ADD DUP5 SWAP1 MSTORE PUSH1 0x80 DUP2 ADD PUSH2 0x5CBC PUSH1 0x40 DUP4 ADD DUP6 PUSH2 0x55F1 JUMP JUMPDEST PUSH1 0x1 PUSH1 0x1 PUSH1 0xA0 SHL SUB SWAP3 SWAP1 SWAP3 AND PUSH1 0x60 SWAP2 SWAP1 SWAP2 ADD MSTORE SWAP4 SWAP3 POP POP POP JUMP JUMPDEST PUSH1 0x40 DUP1 DUP3 MSTORE PUSH1 0x10 SWAP1 DUP3 ADD MSTORE PUSH16 0x4572726F722066696C65207374617465 PUSH1 0x80 SHL PUSH1 0x60 DUP3 ADD MSTORE PUSH1 0x80 DUP2 ADD PUSH2 0xA1E PUSH1 0x20 DUP4 ADD DUP5 PUSH2 0x55F1 JUMP JUMPDEST SWAP3 DUP4 MSTORE SWAP1 ISZERO ISZERO PUSH1 0x20 DUP4 ADD MSTORE PUSH1 0x1 PUSH1 0x1 PUSH1 0xA0 SHL SUB AND PUSH1 0x40 DUP3 ADD MSTORE PUSH1 0x60 ADD SWAP1 JUMP JUMPDEST DUP2 DUP2 SUB DUP2 DUP2 GT ISZERO PUSH2 0xA1E JUMPI PUSH2 0xA1E PUSH2 0x5A03 JUMP JUMPDEST PUSH1 0x1F DUP3 GT ISZERO PUSH2 0x1566 JUMPI PUSH1 0x0 DUP2 DUP2 MSTORE PUSH1 0x20 DUP2 KECCAK256 PUSH1 0x1F DUP6 ADD PUSH1 0x5 SHR DUP2 ADD PUSH1 0x20 DUP7 LT ISZERO PUSH2 0x5D64 JUMPI POP DUP1 JUMPDEST PUSH1 0x1F DUP6 ADD PUSH1 0x5 SHR DUP3 ADD SWAP2 POP JUMPDEST DUP2 DUP2 LT ISZERO PUSH2 0x9B9 JUMPI DUP3 DUP2 SSTORE PUSH1 0x1 ADD PUSH2 0x5D70 JUMP JUMPDEST DUP2 MLOAD PUSH1 0x1 PUSH1 0x1 PUSH1 0x40 SHL SUB DUP2 GT ISZERO PUSH2 0x5D9C JUMPI PUSH2 0x5D9C PUSH2 0x4D21 JUMP JUMPDEST PUSH2 0x5DB0 DUP2 PUSH2 0x5DAA DUP5 SLOAD PUSH2 0x5AC9 JUMP JUMPDEST DUP5 PUSH2 0x5D3D JUMP JUMPDEST PUSH1 0x20 DUP1 PUSH1 0x1F DUP4 GT PUSH1 0x1 DUP2 EQ PUSH2 0x5DE5 JUMPI PUSH1 0x0 DUP5 ISZERO PUSH2 0x5DCD JUMPI POP DUP6 DUP4 ADD MLOAD JUMPDEST PUSH1 0x0 NOT PUSH1 0x3 DUP7 SWAP1 SHL SHR NOT AND PUSH1 0x1 DUP6 SWAP1 SHL OR DUP6 SSTORE PUSH2 0x9B9 JUMP JUMPDEST PUSH1 0x0 DUP6 DUP2 MSTORE PUSH1 0x20 DUP2 KECCAK256 PUSH1 0x1F NOT DUP7 AND SWAP2 JUMPDEST DUP3 DUP2 LT ISZERO PUSH2 0x5E14 JUMPI DUP9 DUP7 ADD MLOAD DUP3 SSTORE SWAP5 DUP5 ADD SWAP5 PUSH1 0x1 SWAP1 SWAP2 ADD SWAP1 DUP5 ADD PUSH2 0x5DF5 JUMP JUMPDEST POP DUP6 DUP3 LT ISZERO PUSH2 0x5E32 JUMPI DUP8 DUP6 ADD MLOAD PUSH1 0x0 NOT PUSH1 0x3 DUP9 SWAP1 SHL PUSH1 0xF8 AND SHR NOT AND DUP2 SSTORE JUMPDEST POP POP POP POP POP PUSH1 0x1 SWAP1 DUP2 SHL ADD SWAP1 SSTORE POP JUMP JUMPDEST DUP7 DUP2 MSTORE PUSH1 0x1 PUSH1 0x1 PUSH1 0xA0 SHL SUB DUP7 DUP2 AND PUSH1 0x20 DUP4 ADD MSTORE PUSH1 0x40 DUP3 ADD DUP7 SWAP1 MSTORE PUSH1 0xC0 DUP3 ADD SWAP1 PUSH2 0x5E6E PUSH1 0x60 DUP5 ADD DUP8 PUSH2 0x5364 JUMP JUMPDEST DUP5 ISZERO ISZERO PUSH1 0x80 DUP5 ADD MSTORE DUP1 DUP5 AND PUSH1 0xA0 DUP5 ADD MSTORE POP SWAP8 SWAP7 POP POP POP POP POP POP POP JUMP INVALID XOR DUP16 SELFDESTRUCT PUSH19 0x34F3BB35C4F436313EC14267725515E4CA3678 NUMBER 0xCD COINBASE PUSH7 0x21A72FB8A3DEA2 EXP PUSH14 0x822B68D598B7AB4FD45418A7CA7B LT EXTCODEHASH SLT 0xD3 STOP 0xBC 0xC3 0xB5 PUSH11 0x7B94D9ED33B37BD6F3CCFC 0xE1 ADDRESS DUP6 SWAP14 GASLIMIT PUSH10 0xDC432409F423A7928E73 0xEB 0x5C POP 0x49 0xA9 0x4E BLOCKHASH CREATE 0xC6 BASEFEE 0x4B SWAP1 PUSH6 0x71B20F3DCDF8 0x26 0xB5 EXTCODEHASH EXTCODECOPY PUSH7 0x528E252B2EB87D 0xE3 0xCB DUP2 0x2F XOR 0xE6 DUP6 SWAP15 GT SWAP4 DIFFICULTY LOG2 PUSH5 0x6970667358 0x22 SLT KECCAK256 PUSH31 0x4325C67B5A47532E5CAFA6D36F348CE5808C473BF454D2AE119E07E79C3DC5 PUSH5 0x736F6C6343 STOP ADDMOD GT STOP CALLER "
		},
		"gasEstimates": {
			"creation": {
				"codeDepositCost": "4876800",
				"executionCost": "55834",
				"totalCost": "4932634"
			},
			"external": {
				"": "230",
				"acceptForTranslator(uint256,uint256[])": "infinite",
				"acceptForVerifer(uint256,uint256[])": "infinite",
				"closeFileState(uint256,uint256)": "infinite",
				"closeTask(uint256)": "infinite",
				"endTransAccept(uint256)": "infinite",
				"endTransVf(uint256)": "infinite",
				"getAcceptTransNumber(uint256,address)": "2763",
				"getAcceptVfNumber(uint256,address)": "2748",
				"getBalanceOfContract()": "318",
				"getBuyer(uint256)": "2567",
				"getCount()": "2414",
				"getFileState(uint256,uint256)": "4829",
				"getPay(address)": "2592",
				"getTaskBounty(uint256)": "2500",
				"getTaskBounty(uint256,uint256)": "4725",
				"getTaskInfo(uint256)": "infinite",
				"getTaskState(uint256)": "2696",
				"getTaskStateTrans(uint256)": "2501",
				"getTaskStateVf(uint256)": "2513",
				"getTasks(uint256)": "infinite",
				"getTransNumber(uint256)": "2477",
				"getTransTaskInfo(uint256,address)": "infinite",
				"getTranslatorsList(uint256)": "infinite",
				"getVfList(uint256)": "infinite",
				"getVfNumber(uint256)": "2543",
				"getVfTaskInfo(uint256,address)": "infinite",
				"isCustomizeState(uint256)": "2600",
				"isFull(uint256,bool)": "4790",
				"newAmphiAddess(address)": "26804",
				"overTimeTasker(uint256,address,bool)": "infinite",
				"overTimeTrans(uint256,address)": "infinite",
				"overTimeVf(uint256,address)": "infinite",
				"owner()": "2465",
				"payFine(address)": "infinite",
				"postTask((uint256,string,string,uint256,uint256,uint256,uint256[],uint256,uint256,bool,bool,uint256,((string,uint256,uint256,uint256,uint256,uint256,string),uint256,string,uint8,uint256)[]))": "infinite",
				"receiveTask(uint256,address,uint256,bool,address)": "infinite",
				"renounceOwnership()": "infinite",
				"sumbitTaskTrans(uint256,uint256,string)": "infinite",
				"transderToContract()": "infinite",
				"transferOwnership(address)": "28421",
				"updateTask(uint256,(uint256,string,string,uint256,uint256,uint256,uint256[],uint256,uint256,bool,bool,uint256,((string,uint256,uint256,uint256,uint256,uint256,string),uint256,string,uint8,uint256)[]))": "infinite",
				"validate(uint256,address,uint256,bool,string)": "infinite",
				"withdraw(uint256)": "infinite",
				"withdrawAll()": "infinite"
			},
			"internal": {
				"_endTransAccept(uint256)": "infinite",
				"_endTransVf(uint256)": "infinite",
				"_overTimeTrans(uint256,address)": "infinite",
				"_overTimeVf(uint256,address)": "infinite",
				"_postTask(struct LibProject.ProParm memory)": "infinite",
				"_receiveTask(uint256,address,uint256,bool)": "infinite",
				"_sumbitTaskTrans(uint256,uint256,string memory)": "infinite",
				"_updateTask(uint256,struct LibProject.ProParm memory)": "infinite",
				"_validate(uint256,address,uint256,bool,string memory)": "infinite"
			}
		},
		"methodIdentifiers": {
			"acceptForTranslator(uint256,uint256[])": "fa4c6473",
			"acceptForVerifer(uint256,uint256[])": "3bd14e13",
			"closeFileState(uint256,uint256)": "97601efb",
			"closeTask(uint256)": "1201dfc6",
			"endTransAccept(uint256)": "8adc74a5",
			"endTransVf(uint256)": "a55af701",
			"getAcceptTransNumber(uint256,address)": "193620e7",
			"getAcceptVfNumber(uint256,address)": "790485f9",
			"getBalanceOfContract()": "22968885",
			"getBuyer(uint256)": "5bf608b8",
			"getCount()": "a87d942c",
			"getFileState(uint256,uint256)": "ad607c72",
			"getPay(address)": "d3d7bc3b",
			"getTaskBounty(uint256)": "6e973982",
			"getTaskBounty(uint256,uint256)": "64a1ed07",
			"getTaskInfo(uint256)": "d1a1b999",
			"getTaskState(uint256)": "ffcce776",
			"getTaskStateTrans(uint256)": "9722f099",
			"getTaskStateVf(uint256)": "546677aa",
			"getTasks(uint256)": "cf8f4be2",
			"getTransNumber(uint256)": "d2fed69c",
			"getTransTaskInfo(uint256,address)": "5fed5eb2",
			"getTranslatorsList(uint256)": "983a12a8",
			"getVfList(uint256)": "b647eec3",
			"getVfNumber(uint256)": "f8626ebb",
			"getVfTaskInfo(uint256,address)": "7c35beb7",
			"isCustomizeState(uint256)": "7c34eb85",
			"isFull(uint256,bool)": "8a9a9ff3",
			"newAmphiAddess(address)": "0ca23438",
			"overTimeTasker(uint256,address,bool)": "8b3f3a6f",
			"overTimeTrans(uint256,address)": "5b0ef140",
			"overTimeVf(uint256,address)": "36d61ae0",
			"owner()": "8da5cb5b",
			"payFine(address)": "3edfa229",
			"postTask((uint256,string,string,uint256,uint256,uint256,uint256[],uint256,uint256,bool,bool,uint256,((string,uint256,uint256,uint256,uint256,uint256,string),uint256,string,uint8,uint256)[]))": "ac35cd61",
			"receiveTask(uint256,address,uint256,bool,address)": "627a62f3",
			"renounceOwnership()": "715018a6",
			"sumbitTaskTrans(uint256,uint256,string)": "bb0c38c0",
			"transderToContract()": "460968dd",
			"transferOwnership(address)": "f2fde38b",
			"updateTask(uint256,(uint256,string,string,uint256,uint256,uint256,uint256[],uint256,uint256,bool,bool,uint256,((string,uint256,uint256,uint256,uint256,uint256,string),uint256,string,uint8,uint256)[]))": "09a02f58",
			"validate(uint256,address,uint256,bool,string)": "243634bf",
			"withdraw(uint256)": "2e1a7d4d",
			"withdrawAll()": "853828b6"
		}
	},
	"abi": [
		{
			"inputs": [
				{
					"internalType": "string",
					"name": "",
					"type": "string"
				},
				{
					"internalType": "uint256",
					"name": "",
					"type": "uint256"
				}
			],
			"name": "ErrorValue",
			"type": "error"
		},
		{
			"inputs": [
				{
					"internalType": "string",
					"name": "",
					"type": "string"
				},
				{
					"internalType": "enum LibProject.FileState",
					"name": "",
					"type": "uint8"
				}
			],
			"name": "FileException",
			"type": "error"
		},
		{
			"inputs": [
				{
					"internalType": "string",
					"name": "",
					"type": "string"
				}
			],
			"name": "OperationException",
			"type": "error"
		},
		{
			"inputs": [
				{
					"internalType": "string",
					"name": "",
					"type": "string"
				}
			],
			"name": "ParameterException",
			"type": "error"
		},
		{
			"inputs": [
				{
					"internalType": "string",
					"name": "",
					"type": "string"
				}
			],
			"name": "Permissions",
			"type": "error"
		},
		{
			"anonymous": false,
			"inputs": [
				{
					"indexed": true,
					"internalType": "address",
					"name": "previousOwner",
					"type": "address"
				},
				{
					"indexed": true,
					"internalType": "address",
					"name": "newOwner",
					"type": "address"
				}
			],
			"name": "OwnershipTransferred",
			"type": "event"
		},
		{
			"anonymous": false,
			"inputs": [
				{
					"indexed": false,
					"internalType": "uint256",
					"name": "",
					"type": "uint256"
				},
				{
					"indexed": false,
					"internalType": "uint256[]",
					"name": "",
					"type": "uint256[]"
				},
				{
					"indexed": false,
					"internalType": "address",
					"name": "",
					"type": "address"
				},
				{
					"indexed": false,
					"internalType": "bool",
					"name": "",
					"type": "bool"
				}
			],
			"name": "acceptTaskEv",
			"type": "event"
		},
		{
			"anonymous": false,
			"inputs": [
				{
					"indexed": false,
					"internalType": "uint256",
					"name": "",
					"type": "uint256"
				},
				{
					"indexed": false,
					"internalType": "uint256",
					"name": "",
					"type": "uint256"
				},
				{
					"indexed": false,
					"internalType": "address",
					"name": "",
					"type": "address"
				},
				{
					"indexed": false,
					"internalType": "bool",
					"name": "",
					"type": "bool"
				}
			],
			"name": "acceptTaskEv",
			"type": "event"
		},
		{
			"anonymous": false,
			"inputs": [
				{
					"indexed": false,
					"internalType": "uint256",
					"name": "",
					"type": "uint256"
				},
				{
					"indexed": false,
					"internalType": "uint256",
					"name": "",
					"type": "uint256"
				},
				{
					"indexed": false,
					"internalType": "enum LibProject.FileState",
					"name": "",
					"type": "uint8"
				},
				{
					"indexed": false,
					"internalType": "address",
					"name": "",
					"type": "address"
				}
			],
			"name": "changeFileStateEv",
			"type": "event"
		},
		{
			"anonymous": false,
			"inputs": [
				{
					"indexed": false,
					"internalType": "uint256",
					"name": "",
					"type": "uint256"
				},
				{
					"indexed": false,
					"internalType": "enum LibProject.ProjectState",
					"name": "",
					"type": "uint8"
				},
				{
					"indexed": false,
					"internalType": "address",
					"name": "",
					"type": "address"
				}
			],
			"name": "changeProjectStateEv",
			"type": "event"
		},
		{
			"anonymous": false,
			"inputs": [
				{
					"indexed": false,
					"internalType": "uint256",
					"name": "",
					"type": "uint256"
				},
				{
					"indexed": false,
					"internalType": "address",
					"name": "",
					"type": "address"
				},
				{
					"indexed": false,
					"internalType": "uint256",
					"name": "",
					"type": "uint256"
				},
				{
					"indexed": false,
					"internalType": "enum LibProject.TaskerState",
					"name": "",
					"type": "uint8"
				},
				{
					"indexed": false,
					"internalType": "bool",
					"name": "",
					"type": "bool"
				},
				{
					"indexed": false,
					"internalType": "address",
					"name": "",
					"type": "address"
				}
			],
			"name": "changeTaskerStateEv",
			"type": "event"
		},
		{
			"anonymous": false,
			"inputs": [
				{
					"indexed": false,
					"internalType": "uint256",
					"name": "",
					"type": "uint256"
				},
				{
					"indexed": false,
					"internalType": "bool",
					"name": "",
					"type": "bool"
				},
				{
					"indexed": false,
					"internalType": "address",
					"name": "",
					"type": "address"
				}
			],
			"name": "changeTransActive",
			"type": "event"
		},
		{
			"anonymous": false,
			"inputs": [
				{
					"indexed": false,
					"internalType": "uint256",
					"name": "",
					"type": "uint256"
				},
				{
					"indexed": false,
					"internalType": "bool",
					"name": "",
					"type": "bool"
				},
				{
					"indexed": false,
					"internalType": "address",
					"name": "",
					"type": "address"
				}
			],
			"name": "changeVerActive",
			"type": "event"
		},
		{
			"anonymous": false,
			"inputs": [
				{
					"indexed": false,
					"internalType": "address",
					"name": "",
					"type": "address"
				},
				{
					"indexed": false,
					"internalType": "address",
					"name": "",
					"type": "address"
				},
				{
					"indexed": false,
					"internalType": "uint256",
					"name": "",
					"type": "uint256"
				}
			],
			"name": "payEv",
			"type": "event"
		},
		{
			"anonymous": false,
			"inputs": [
				{
					"indexed": false,
					"internalType": "address",
					"name": "",
					"type": "address"
				},
				{
					"indexed": false,
					"internalType": "uint256",
					"name": "",
					"type": "uint256"
				},
				{
					"components": [
						{
							"internalType": "uint256",
							"name": "releaseTime",
							"type": "uint256"
						},
						{
							"internalType": "string",
							"name": "introduce",
							"type": "string"
						},
						{
							"internalType": "string",
							"name": "need",
							"type": "string"
						},
						{
							"internalType": "uint256",
							"name": "deadline",
							"type": "uint256"
						},
						{
							"internalType": "uint256",
							"name": "sourceLanguage",
							"type": "uint256"
						},
						{
							"internalType": "uint256",
							"name": "goalLanguage",
							"type": "uint256"
						},
						{
							"internalType": "uint256[]",
							"name": "preferList",
							"type": "uint256[]"
						},
						{
							"internalType": "uint256",
							"name": "translationType",
							"type": "uint256"
						},
						{
							"internalType": "uint256",
							"name": "workLoad",
							"type": "uint256"
						},
						{
							"internalType": "bool",
							"name": "isNonDisclosure",
							"type": "bool"
						},
						{
							"internalType": "bool",
							"name": "isCustomize",
							"type": "bool"
						},
						{
							"internalType": "uint256",
							"name": "bounty",
							"type": "uint256"
						},
						{
							"components": [
								{
									"components": [
										{
											"internalType": "string",
											"name": "name",
											"type": "string"
										},
										{
											"internalType": "uint256",
											"name": "size",
											"type": "uint256"
										},
										{
											"internalType": "uint256",
											"name": "videoLength",
											"type": "uint256"
										},
										{
											"internalType": "uint256",
											"name": "Page",
											"type": "uint256"
										},
										{
											"internalType": "uint256",
											"name": "words",
											"type": "uint256"
										},
										{
											"internalType": "uint256",
											"name": "fileType",
											"type": "uint256"
										},
										{
											"internalType": "string",
											"name": "path",
											"type": "string"
										}
									],
									"internalType": "struct LibProject.FileInfo",
									"name": "file",
									"type": "tuple"
								},
								{
									"internalType": "uint256",
									"name": "bounty",
									"type": "uint256"
								},
								{
									"internalType": "string",
									"name": "info",
									"type": "string"
								},
								{
									"internalType": "enum LibProject.FileState",
									"name": "state",
									"type": "uint8"
								},
								{
									"internalType": "uint256",
									"name": "lastUpload",
									"type": "uint256"
								}
							],
							"internalType": "struct LibProject.TaskInfo[]",
							"name": "tasks",
							"type": "tuple[]"
						}
					],
					"indexed": false,
					"internalType": "struct LibProject.ProParm",
					"name": "",
					"type": "tuple"
				}
			],
			"name": "postProjectEv",
			"type": "event"
		},
		{
			"stateMutability": "payable",
			"type": "fallback"
		},
		{
			"inputs": [
				{
					"internalType": "uint256",
					"name": "_index",
					"type": "uint256"
				},
				{
					"internalType": "uint256[]",
					"name": "_fileIndex",
					"type": "uint256[]"
				}
			],
			"name": "acceptForTranslator",
			"outputs": [],
			"stateMutability": "nonpayable",
			"type": "function"
		},
		{
			"inputs": [
				{
					"internalType": "uint256",
					"name": "_index",
					"type": "uint256"
				},
				{
					"internalType": "uint256[]",
					"name": "_fileIndex",
					"type": "uint256[]"
				}
			],
			"name": "acceptForVerifer",
			"outputs": [],
			"stateMutability": "nonpayable",
			"type": "function"
		},
		{
			"inputs": [
				{
					"internalType": "uint256",
					"name": "_index",
					"type": "uint256"
				},
				{
					"internalType": "uint256",
					"name": "_fileIndex",
					"type": "uint256"
				}
			],
			"name": "closeFileState",
			"outputs": [],
			"stateMutability": "nonpayable",
			"type": "function"
		},
		{
			"inputs": [
				{
					"internalType": "uint256",
					"name": "_index",
					"type": "uint256"
				}
			],
			"name": "closeTask",
			"outputs": [],
			"stateMutability": "nonpayable",
			"type": "function"
		},
		{
			"inputs": [
				{
					"internalType": "uint256",
					"name": "_index",
					"type": "uint256"
				}
			],
			"name": "endTransAccept",
			"outputs": [],
			"stateMutability": "nonpayable",
			"type": "function"
		},
		{
			"inputs": [
				{
					"internalType": "uint256",
					"name": "_index",
					"type": "uint256"
				}
			],
			"name": "endTransVf",
			"outputs": [],
			"stateMutability": "nonpayable",
			"type": "function"
		},
		{
			"inputs": [
				{
					"internalType": "uint256",
					"name": "_index",
					"type": "uint256"
				},
				{
					"internalType": "address",
					"name": "_taskerIndex",
					"type": "address"
				}
			],
			"name": "getAcceptTransNumber",
			"outputs": [
				{
					"internalType": "uint256",
					"name": "",
					"type": "uint256"
				}
			],
			"stateMutability": "view",
			"type": "function"
		},
		{
			"inputs": [
				{
					"internalType": "uint256",
					"name": "_index",
					"type": "uint256"
				},
				{
					"internalType": "address",
					"name": "_taskerIndex",
					"type": "address"
				}
			],
			"name": "getAcceptVfNumber",
			"outputs": [
				{
					"internalType": "uint256",
					"name": "",
					"type": "uint256"
				}
			],
			"stateMutability": "view",
			"type": "function"
		},
		{
			"inputs": [],
			"name": "getBalanceOfContract",
			"outputs": [
				{
					"internalType": "uint256",
					"name": "",
					"type": "uint256"
				}
			],
			"stateMutability": "view",
			"type": "function"
		},
		{
			"inputs": [
				{
					"internalType": "uint256",
					"name": "_index",
					"type": "uint256"
				}
			],
			"name": "getBuyer",
			"outputs": [
				{
					"internalType": "address",
					"name": "",
					"type": "address"
				}
			],
			"stateMutability": "view",
			"type": "function"
		},
		{
			"inputs": [],
			"name": "getCount",
			"outputs": [
				{
					"internalType": "uint256",
					"name": "",
					"type": "uint256"
				}
			],
			"stateMutability": "view",
			"type": "function"
		},
		{
			"inputs": [
				{
					"internalType": "uint256",
					"name": "_index",
					"type": "uint256"
				},
				{
					"internalType": "uint256",
					"name": "_fileIndex",
					"type": "uint256"
				}
			],
			"name": "getFileState",
			"outputs": [
				{
					"internalType": "enum LibProject.FileState",
					"name": "",
					"type": "uint8"
				}
			],
			"stateMutability": "view",
			"type": "function"
		},
		{
			"inputs": [
				{
					"internalType": "address",
					"name": "_tasker",
					"type": "address"
				}
			],
			"name": "getPay",
			"outputs": [
				{
					"internalType": "uint256",
					"name": "",
					"type": "uint256"
				}
			],
			"stateMutability": "view",
			"type": "function"
		},
		{
			"inputs": [
				{
					"internalType": "uint256",
					"name": "_index",
					"type": "uint256"
				},
				{
					"internalType": "uint256",
					"name": "_fileIndex",
					"type": "uint256"
				}
			],
			"name": "getTaskBounty",
			"outputs": [
				{
					"internalType": "uint256",
					"name": "",
					"type": "uint256"
				}
			],
			"stateMutability": "view",
			"type": "function"
		},
		{
			"inputs": [
				{
					"internalType": "uint256",
					"name": "_index",
					"type": "uint256"
				}
			],
			"name": "getTaskBounty",
			"outputs": [
				{
					"internalType": "uint256",
					"name": "",
					"type": "uint256"
				}
			],
			"stateMutability": "view",
			"type": "function"
		},
		{
			"inputs": [
				{
					"internalType": "uint256",
					"name": "_index",
					"type": "uint256"
				}
			],
			"name": "getTaskInfo",
			"outputs": [
				{
					"components": [
						{
							"internalType": "address",
							"name": "buyer",
							"type": "address"
						},
						{
							"internalType": "uint256",
							"name": "releaseTime",
							"type": "uint256"
						},
						{
							"internalType": "string",
							"name": "introduce",
							"type": "string"
						},
						{
							"internalType": "string",
							"name": "need",
							"type": "string"
						},
						{
							"internalType": "uint256",
							"name": "deadline",
							"type": "uint256"
						},
						{
							"internalType": "uint256",
							"name": "sourceLanguage",
							"type": "uint256"
						},
						{
							"internalType": "uint256",
							"name": "goalLanguage",
							"type": "uint256"
						},
						{
							"internalType": "uint256[]",
							"name": "preferList",
							"type": "uint256[]"
						},
						{
							"internalType": "uint256",
							"name": "translationType",
							"type": "uint256"
						},
						{
							"internalType": "uint256",
							"name": "workLoad",
							"type": "uint256"
						},
						{
							"internalType": "bool",
							"name": "isNonDisclosure",
							"type": "bool"
						},
						{
							"internalType": "bool",
							"name": "isCustomize",
							"type": "bool"
						},
						{
							"internalType": "uint256",
							"name": "bounty",
							"type": "uint256"
						},
						{
							"components": [
								{
									"components": [
										{
											"internalType": "string",
											"name": "name",
											"type": "string"
										},
										{
											"internalType": "uint256",
											"name": "size",
											"type": "uint256"
										},
										{
											"internalType": "uint256",
											"name": "videoLength",
											"type": "uint256"
										},
										{
											"internalType": "uint256",
											"name": "Page",
											"type": "uint256"
										},
										{
											"internalType": "uint256",
											"name": "words",
											"type": "uint256"
										},
										{
											"internalType": "uint256",
											"name": "fileType",
											"type": "uint256"
										},
										{
											"internalType": "string",
											"name": "path",
											"type": "string"
										}
									],
									"internalType": "struct LibProject.FileInfo",
									"name": "file",
									"type": "tuple"
								},
								{
									"internalType": "uint256",
									"name": "bounty",
									"type": "uint256"
								},
								{
									"internalType": "string",
									"name": "info",
									"type": "string"
								},
								{
									"internalType": "enum LibProject.FileState",
									"name": "state",
									"type": "uint8"
								},
								{
									"internalType": "uint256",
									"name": "lastUpload",
									"type": "uint256"
								}
							],
							"internalType": "struct LibProject.TaskInfo[]",
							"name": "tasks",
							"type": "tuple[]"
						},
						{
							"components": [
								{
									"internalType": "address",
									"name": "taskerAddress",
									"type": "address"
								},
								{
									"internalType": "uint256[]",
									"name": "taskIndex",
									"type": "uint256[]"
								},
								{
									"components": [
										{
											"internalType": "enum LibProject.TaskerState",
											"name": "state",
											"type": "uint8"
										},
										{
											"internalType": "string",
											"name": "file",
											"type": "string"
										}
									],
									"internalType": "struct LibProject.FileIndexInfo[]",
									"name": "taskerinfo",
									"type": "tuple[]"
								}
							],
							"internalType": "struct LibProject.ReturnTasker[]",
							"name": "transInfo",
							"type": "tuple[]"
						},
						{
							"components": [
								{
									"internalType": "address",
									"name": "taskerAddress",
									"type": "address"
								},
								{
									"internalType": "uint256[]",
									"name": "taskIndex",
									"type": "uint256[]"
								},
								{
									"components": [
										{
											"internalType": "enum LibProject.TaskerState",
											"name": "state",
											"type": "uint8"
										},
										{
											"internalType": "string",
											"name": "file",
											"type": "string"
										}
									],
									"internalType": "struct LibProject.FileIndexInfo[]",
									"name": "taskerinfo",
									"type": "tuple[]"
								}
							],
							"internalType": "struct LibProject.ReturnTasker[]",
							"name": "vfInfo",
							"type": "tuple[]"
						},
						{
							"internalType": "uint256",
							"name": "maxT",
							"type": "uint256"
						},
						{
							"internalType": "uint256",
							"name": "maxV",
							"type": "uint256"
						},
						{
							"internalType": "uint256",
							"name": "numberT",
							"type": "uint256"
						},
						{
							"internalType": "uint256",
							"name": "numberV",
							"type": "uint256"
						},
						{
							"internalType": "bool",
							"name": "isTransActive",
							"type": "bool"
						},
						{
							"internalType": "bool",
							"name": "isVerActive",
							"type": "bool"
						},
						{
							"internalType": "enum LibProject.ProjectState",
							"name": "state",
							"type": "uint8"
						}
					],
					"internalType": "struct LibProject.ReturnTask",
					"name": "",
					"type": "tuple"
				}
			],
			"stateMutability": "view",
			"type": "function"
		},
		{
			"inputs": [
				{
					"internalType": "uint256",
					"name": "_index",
					"type": "uint256"
				}
			],
			"name": "getTaskState",
			"outputs": [
				{
					"internalType": "enum LibProject.ProjectState",
					"name": "",
					"type": "uint8"
				}
			],
			"stateMutability": "view",
			"type": "function"
		},
		{
			"inputs": [
				{
					"internalType": "uint256",
					"name": "_index",
					"type": "uint256"
				}
			],
			"name": "getTaskStateTrans",
			"outputs": [
				{
					"internalType": "bool",
					"name": "",
					"type": "bool"
				}
			],
			"stateMutability": "view",
			"type": "function"
		},
		{
			"inputs": [
				{
					"internalType": "uint256",
					"name": "_index",
					"type": "uint256"
				}
			],
			"name": "getTaskStateVf",
			"outputs": [
				{
					"internalType": "bool",
					"name": "",
					"type": "bool"
				}
			],
			"stateMutability": "view",
			"type": "function"
		},
		{
			"inputs": [
				{
					"internalType": "uint256",
					"name": "_index",
					"type": "uint256"
				}
			],
			"name": "getTasks",
			"outputs": [
				{
					"components": [
						{
							"components": [
								{
									"internalType": "string",
									"name": "name",
									"type": "string"
								},
								{
									"internalType": "uint256",
									"name": "size",
									"type": "uint256"
								},
								{
									"internalType": "uint256",
									"name": "videoLength",
									"type": "uint256"
								},
								{
									"internalType": "uint256",
									"name": "Page",
									"type": "uint256"
								},
								{
									"internalType": "uint256",
									"name": "words",
									"type": "uint256"
								},
								{
									"internalType": "uint256",
									"name": "fileType",
									"type": "uint256"
								},
								{
									"internalType": "string",
									"name": "path",
									"type": "string"
								}
							],
							"internalType": "struct LibProject.FileInfo",
							"name": "file",
							"type": "tuple"
						},
						{
							"internalType": "uint256",
							"name": "bounty",
							"type": "uint256"
						},
						{
							"internalType": "string",
							"name": "info",
							"type": "string"
						},
						{
							"internalType": "enum LibProject.FileState",
							"name": "state",
							"type": "uint8"
						},
						{
							"internalType": "uint256",
							"name": "lastUpload",
							"type": "uint256"
						}
					],
					"internalType": "struct LibProject.TaskInfo[]",
					"name": "",
					"type": "tuple[]"
				}
			],
			"stateMutability": "view",
			"type": "function"
		},
		{
			"inputs": [
				{
					"internalType": "uint256",
					"name": "_index",
					"type": "uint256"
				}
			],
			"name": "getTransNumber",
			"outputs": [
				{
					"internalType": "uint256",
					"name": "",
					"type": "uint256"
				}
			],
			"stateMutability": "view",
			"type": "function"
		},
		{
			"inputs": [
				{
					"internalType": "uint256",
					"name": "_index",
					"type": "uint256"
				},
				{
					"internalType": "address",
					"name": "_address",
					"type": "address"
				}
			],
			"name": "getTransTaskInfo",
			"outputs": [
				{
					"components": [
						{
							"internalType": "address",
							"name": "taskerAddress",
							"type": "address"
						},
						{
							"internalType": "uint256[]",
							"name": "taskIndex",
							"type": "uint256[]"
						},
						{
							"components": [
								{
									"internalType": "enum LibProject.TaskerState",
									"name": "state",
									"type": "uint8"
								},
								{
									"internalType": "string",
									"name": "file",
									"type": "string"
								}
							],
							"internalType": "struct LibProject.FileIndexInfo[]",
							"name": "taskerinfo",
							"type": "tuple[]"
						}
					],
					"internalType": "struct LibProject.ReturnTasker",
					"name": "",
					"type": "tuple"
				}
			],
			"stateMutability": "view",
			"type": "function"
		},
		{
			"inputs": [
				{
					"internalType": "uint256",
					"name": "_index",
					"type": "uint256"
				}
			],
			"name": "getTranslatorsList",
			"outputs": [
				{
					"internalType": "address[]",
					"name": "",
					"type": "address[]"
				}
			],
			"stateMutability": "view",
			"type": "function"
		},
		{
			"inputs": [
				{
					"internalType": "uint256",
					"name": "_index",
					"type": "uint256"
				}
			],
			"name": "getVfList",
			"outputs": [
				{
					"internalType": "address[]",
					"name": "",
					"type": "address[]"
				}
			],
			"stateMutability": "view",
			"type": "function"
		},
		{
			"inputs": [
				{
					"internalType": "uint256",
					"name": "_index",
					"type": "uint256"
				}
			],
			"name": "getVfNumber",
			"outputs": [
				{
					"internalType": "uint256",
					"name": "",
					"type": "uint256"
				}
			],
			"stateMutability": "view",
			"type": "function"
		},
		{
			"inputs": [
				{
					"internalType": "uint256",
					"name": "_index",
					"type": "uint256"
				},
				{
					"internalType": "address",
					"name": "_address",
					"type": "address"
				}
			],
			"name": "getVfTaskInfo",
			"outputs": [
				{
					"components": [
						{
							"internalType": "address",
							"name": "taskerAddress",
							"type": "address"
						},
						{
							"internalType": "uint256[]",
							"name": "taskIndex",
							"type": "uint256[]"
						},
						{
							"components": [
								{
									"internalType": "enum LibProject.TaskerState",
									"name": "state",
									"type": "uint8"
								},
								{
									"internalType": "string",
									"name": "file",
									"type": "string"
								}
							],
							"internalType": "struct LibProject.FileIndexInfo[]",
							"name": "taskerinfo",
							"type": "tuple[]"
						}
					],
					"internalType": "struct LibProject.ReturnTasker",
					"name": "",
					"type": "tuple"
				}
			],
			"stateMutability": "view",
			"type": "function"
		},
		{
			"inputs": [
				{
					"internalType": "uint256",
					"name": "_index",
					"type": "uint256"
				}
			],
			"name": "isCustomizeState",
			"outputs": [
				{
					"internalType": "bool",
					"name": "",
					"type": "bool"
				}
			],
			"stateMutability": "view",
			"type": "function"
		},
		{
			"inputs": [
				{
					"internalType": "uint256",
					"name": "_index",
					"type": "uint256"
				},
				{
					"internalType": "bool",
					"name": "_isTrans",
					"type": "bool"
				}
			],
			"name": "isFull",
			"outputs": [
				{
					"internalType": "bool",
					"name": "",
					"type": "bool"
				}
			],
			"stateMutability": "view",
			"type": "function"
		},
		{
			"inputs": [
				{
					"internalType": "address",
					"name": "_newAddress",
					"type": "address"
				}
			],
			"name": "newAmphiAddess",
			"outputs": [],
			"stateMutability": "nonpayable",
			"type": "function"
		},
		{
			"inputs": [
				{
					"internalType": "uint256",
					"name": "_index",
					"type": "uint256"
				},
				{
					"internalType": "address",
					"name": "_taskerIndex",
					"type": "address"
				},
				{
					"internalType": "bool",
					"name": "_isTrans",
					"type": "bool"
				}
			],
			"name": "overTimeTasker",
			"outputs": [
				{
					"internalType": "uint256[]",
					"name": "",
					"type": "uint256[]"
				},
				{
					"internalType": "uint256",
					"name": "",
					"type": "uint256"
				}
			],
			"stateMutability": "view",
			"type": "function"
		},
		{
			"inputs": [
				{
					"internalType": "uint256",
					"name": "_index",
					"type": "uint256"
				},
				{
					"internalType": "address",
					"name": "_tasker",
					"type": "address"
				}
			],
			"name": "overTimeTrans",
			"outputs": [
				{
					"internalType": "uint256",
					"name": "",
					"type": "uint256"
				}
			],
			"stateMutability": "nonpayable",
			"type": "function"
		},
		{
			"inputs": [
				{
					"internalType": "uint256",
					"name": "_index",
					"type": "uint256"
				},
				{
					"internalType": "address",
					"name": "_tasker",
					"type": "address"
				}
			],
			"name": "overTimeVf",
			"outputs": [
				{
					"internalType": "uint256",
					"name": "",
					"type": "uint256"
				}
			],
			"stateMutability": "nonpayable",
			"type": "function"
		},
		{
			"inputs": [],
			"name": "owner",
			"outputs": [
				{
					"internalType": "address",
					"name": "",
					"type": "address"
				}
			],
			"stateMutability": "view",
			"type": "function"
		},
		{
			"inputs": [
				{
					"internalType": "address",
					"name": "_to",
					"type": "address"
				}
			],
			"name": "payFine",
			"outputs": [],
			"stateMutability": "payable",
			"type": "function"
		},
		{
			"inputs": [
				{
					"components": [
						{
							"internalType": "uint256",
							"name": "releaseTime",
							"type": "uint256"
						},
						{
							"internalType": "string",
							"name": "introduce",
							"type": "string"
						},
						{
							"internalType": "string",
							"name": "need",
							"type": "string"
						},
						{
							"internalType": "uint256",
							"name": "deadline",
							"type": "uint256"
						},
						{
							"internalType": "uint256",
							"name": "sourceLanguage",
							"type": "uint256"
						},
						{
							"internalType": "uint256",
							"name": "goalLanguage",
							"type": "uint256"
						},
						{
							"internalType": "uint256[]",
							"name": "preferList",
							"type": "uint256[]"
						},
						{
							"internalType": "uint256",
							"name": "translationType",
							"type": "uint256"
						},
						{
							"internalType": "uint256",
							"name": "workLoad",
							"type": "uint256"
						},
						{
							"internalType": "bool",
							"name": "isNonDisclosure",
							"type": "bool"
						},
						{
							"internalType": "bool",
							"name": "isCustomize",
							"type": "bool"
						},
						{
							"internalType": "uint256",
							"name": "bounty",
							"type": "uint256"
						},
						{
							"components": [
								{
									"components": [
										{
											"internalType": "string",
											"name": "name",
											"type": "string"
										},
										{
											"internalType": "uint256",
											"name": "size",
											"type": "uint256"
										},
										{
											"internalType": "uint256",
											"name": "videoLength",
											"type": "uint256"
										},
										{
											"internalType": "uint256",
											"name": "Page",
											"type": "uint256"
										},
										{
											"internalType": "uint256",
											"name": "words",
											"type": "uint256"
										},
										{
											"internalType": "uint256",
											"name": "fileType",
											"type": "uint256"
										},
										{
											"internalType": "string",
											"name": "path",
											"type": "string"
										}
									],
									"internalType": "struct LibProject.FileInfo",
									"name": "file",
									"type": "tuple"
								},
								{
									"internalType": "uint256",
									"name": "bounty",
									"type": "uint256"
								},
								{
									"internalType": "string",
									"name": "info",
									"type": "string"
								},
								{
									"internalType": "enum LibProject.FileState",
									"name": "state",
									"type": "uint8"
								},
								{
									"internalType": "uint256",
									"name": "lastUpload",
									"type": "uint256"
								}
							],
							"internalType": "struct LibProject.TaskInfo[]",
							"name": "tasks",
							"type": "tuple[]"
						}
					],
					"internalType": "struct LibProject.ProParm",
					"name": "_t",
					"type": "tuple"
				}
			],
			"name": "postTask",
			"outputs": [
				{
					"internalType": "uint256",
					"name": "_index",
					"type": "uint256"
				}
			],
			"stateMutability": "payable",
			"type": "function"
		},
		{
			"inputs": [
				{
					"internalType": "uint256",
					"name": "_index",
					"type": "uint256"
				},
				{
					"internalType": "address",
					"name": "_taskerIndex",
					"type": "address"
				},
				{
					"internalType": "uint256",
					"name": "_fileIndex",
					"type": "uint256"
				},
				{
					"internalType": "bool",
					"name": "_isPass",
					"type": "bool"
				},
				{
					"internalType": "address",
					"name": "_transAddress",
					"type": "address"
				}
			],
			"name": "receiveTask",
			"outputs": [],
			"stateMutability": "payable",
			"type": "function"
		},
		{
			"inputs": [],
			"name": "renounceOwnership",
			"outputs": [],
			"stateMutability": "nonpayable",
			"type": "function"
		},
		{
			"inputs": [
				{
					"internalType": "uint256",
					"name": "_index",
					"type": "uint256"
				},
				{
					"internalType": "uint256",
					"name": "_fileIndex",
					"type": "uint256"
				},
				{
					"internalType": "string",
					"name": "_file",
					"type": "string"
				}
			],
			"name": "sumbitTaskTrans",
			"outputs": [],
			"stateMutability": "nonpayable",
			"type": "function"
		},
		{
			"inputs": [],
			"name": "transderToContract",
			"outputs": [],
			"stateMutability": "payable",
			"type": "function"
		},
		{
			"inputs": [
				{
					"internalType": "address",
					"name": "newOwner",
					"type": "address"
				}
			],
			"name": "transferOwnership",
			"outputs": [],
			"stateMutability": "nonpayable",
			"type": "function"
		},
		{
			"inputs": [
				{
					"internalType": "uint256",
					"name": "_index",
					"type": "uint256"
				},
				{
					"components": [
						{
							"internalType": "uint256",
							"name": "releaseTime",
							"type": "uint256"
						},
						{
							"internalType": "string",
							"name": "introduce",
							"type": "string"
						},
						{
							"internalType": "string",
							"name": "need",
							"type": "string"
						},
						{
							"internalType": "uint256",
							"name": "deadline",
							"type": "uint256"
						},
						{
							"internalType": "uint256",
							"name": "sourceLanguage",
							"type": "uint256"
						},
						{
							"internalType": "uint256",
							"name": "goalLanguage",
							"type": "uint256"
						},
						{
							"internalType": "uint256[]",
							"name": "preferList",
							"type": "uint256[]"
						},
						{
							"internalType": "uint256",
							"name": "translationType",
							"type": "uint256"
						},
						{
							"internalType": "uint256",
							"name": "workLoad",
							"type": "uint256"
						},
						{
							"internalType": "bool",
							"name": "isNonDisclosure",
							"type": "bool"
						},
						{
							"internalType": "bool",
							"name": "isCustomize",
							"type": "bool"
						},
						{
							"internalType": "uint256",
							"name": "bounty",
							"type": "uint256"
						},
						{
							"components": [
								{
									"components": [
										{
											"internalType": "string",
											"name": "name",
											"type": "string"
										},
										{
											"internalType": "uint256",
											"name": "size",
											"type": "uint256"
										},
										{
											"internalType": "uint256",
											"name": "videoLength",
											"type": "uint256"
										},
										{
											"internalType": "uint256",
											"name": "Page",
											"type": "uint256"
										},
										{
											"internalType": "uint256",
											"name": "words",
											"type": "uint256"
										},
										{
											"internalType": "uint256",
											"name": "fileType",
											"type": "uint256"
										},
										{
											"internalType": "string",
											"name": "path",
											"type": "string"
										}
									],
									"internalType": "struct LibProject.FileInfo",
									"name": "file",
									"type": "tuple"
								},
								{
									"internalType": "uint256",
									"name": "bounty",
									"type": "uint256"
								},
								{
									"internalType": "string",
									"name": "info",
									"type": "string"
								},
								{
									"internalType": "enum LibProject.FileState",
									"name": "state",
									"type": "uint8"
								},
								{
									"internalType": "uint256",
									"name": "lastUpload",
									"type": "uint256"
								}
							],
							"internalType": "struct LibProject.TaskInfo[]",
							"name": "tasks",
							"type": "tuple[]"
						}
					],
					"internalType": "struct LibProject.ProParm",
					"name": "_t",
					"type": "tuple"
				}
			],
			"name": "updateTask",
			"outputs": [],
			"stateMutability": "payable",
			"type": "function"
		},
		{
			"inputs": [
				{
					"internalType": "uint256",
					"name": "_index",
					"type": "uint256"
				},
				{
					"internalType": "address",
					"name": "_traner",
					"type": "address"
				},
				{
					"internalType": "uint256",
					"name": "_fileIndex",
					"type": "uint256"
				},
				{
					"internalType": "bool",
					"name": "_isPass",
					"type": "bool"
				},
				{
					"internalType": "string",
					"name": "_file",
					"type": "string"
				}
			],
			"name": "validate",
			"outputs": [],
			"stateMutability": "nonpayable",
			"type": "function"
		},
		{
			"inputs": [
				{
					"internalType": "uint256",
					"name": "_money",
					"type": "uint256"
				}
			],
			"name": "withdraw",
			"outputs": [],
			"stateMutability": "nonpayable",
			"type": "function"
		},
		{
			"inputs": [],
			"name": "withdrawAll",
			"outputs": [],
			"stateMutability": "nonpayable",
			"type": "function"
		},
		{
			"stateMutability": "payable",
			"type": "receive"
		}
	]
}