{
	"data": {
		"bytecode": {
			"linkReferences": {
				"utils/calculateUtils.sol": {
					"CalculateUtils": [
						{
							"length": 20,
							"start": 10133
						},
						{
							"length": 20,
							"start": 10280
						},
						{
							"length": 20,
							"start": 12388
						},
						{
							"length": 20,
							"start": 12535
						}
					]
				}
			},
			"object": "60806040523480156200001157600080fd5b5062000032620000266200003860201b60201c565b6200004060201b60201c565b62000104565b600033905090565b60008060009054906101000a900473ffffffffffffffffffffffffffffffffffffffff169050816000806101000a81548173ffffffffffffffffffffffffffffffffffffffff021916908373ffffffffffffffffffffffffffffffffffffffff1602179055508173ffffffffffffffffffffffffffffffffffffffff168173ffffffffffffffffffffffffffffffffffffffff167f8be0079c531659141344cd1fd0a4f28419497f9722a3daafe3b4186f6b6457e060405160405180910390a35050565b61873c80620001146000396000f3fe60806040526004361061024a5760003560e01c80638a9a9ff311610139578063ad607c72116100b6578063d2fed69c1161007a578063d2fed69c146108e6578063d3d7bc3b14610923578063f2fde38b14610960578063f8626ebb14610989578063fa4c6473146109c6578063ffcce776146109ef57610251565b8063ad607c72146107c9578063b647eec314610806578063bb0c38c014610843578063cf8f4be21461086c578063d1a1b999146108a957610251565b806397601efb116100fd57806397601efb146106df578063983a12a814610708578063a55af70114610745578063a87d942c1461076e578063ac35cd611461079957610251565b80638a9a9ff3146105d35780638adc74a5146106105780638b3f3a6f146106395780638da5cb5b146106775780639722f099146106a257610251565b8063546677aa116101c75780636e9739821161018b5780636e973982146104ee578063715018a61461052b578063790485f9146105425780637c34eb851461057f578063853828b6146105bc57610251565b8063546677aa146103de5780635b0ef1401461041b5780635bf608b814610458578063627a62f31461049557806364a1ed07146104b157610251565b80632e1a7d4d1161020e5780632e1a7d4d1461032957806336d61ae0146103525780633bd14e131461038f5780633edfa229146103b8578063460968dd146103d457610251565b806309a02f58146102535780631201dfc61461026f578063193620e71461029857806322968885146102d5578063243634bf1461030057610251565b3661025157005b005b61026d60048036038101906102689190616ca6565b610a2c565b005b34801561027b57600080fd5b5061029660048036038101906102919190616a0b565b610b4e565b005b3480156102a457600080fd5b506102bf60048036038101906102ba9190616a65565b610b5a565b6040516102cc9190617c24565b60405180910390f35b3480156102e157600080fd5b506102ea610bbe565b6040516102f79190617c24565b60405180910390f35b34801561030c57600080fd5b5061032760048036038101906103229190616b73565b610bc6565b005b34801561033557600080fd5b50610350600480360381019061034b9190616a0b565b610cb6565b005b34801561035e57600080fd5b5061037960048036038101906103749190616a65565b610cca565b6040516103869190617c24565b60405180910390f35b34801561039b57600080fd5b506103b660048036038101906103b19190616c0a565b610d3a565b005b6103d260048036038101906103cd9190616995565b610e71565b005b6103dc610ee8565b005b3480156103ea57600080fd5b5061040560048036038101906104009190616a0b565b610fd2565b60405161041291906179ec565b60405180910390f35b34801561042757600080fd5b50610442600480360381019061043d9190616a65565b610fff565b60405161044f9190617c24565b60405180910390f35b34801561046457600080fd5b5061047f600480360381019061047a9190616a0b565b61106f565b60405161048c91906178e8565b60405180910390f35b6104af60048036038101906104aa9190616af8565b6110af565b005b3480156104bd57600080fd5b506104d860048036038101906104d39190616d02565b611209565b6040516104e59190617c24565b60405180910390f35b3480156104fa57600080fd5b5061051560048036038101906105109190616a0b565b61124d565b6040516105229190617c24565b60405180910390f35b34801561053757600080fd5b5061054061126d565b005b34801561054e57600080fd5b5061056960048036038101906105649190616a65565b611281565b6040516105769190617c24565b60405180910390f35b34801561058b57600080fd5b506105a660048036038101906105a19190616a0b565b6112e5565b6040516105b391906179ec565b60405180910390f35b3480156105c857600080fd5b506105d1611312565b005b3480156105df57600080fd5b506105fa60048036038101906105f59190616c66565b611324565b60405161060791906179ec565b60405180910390f35b34801561061c57600080fd5b5061063760048036038101906106329190616a0b565b61139c565b005b34801561064557600080fd5b50610660600480360381019061065b9190616aa5565b6113f5565b60405161066e9291906179bc565b60405180910390f35b34801561068357600080fd5b5061068c6117ca565b60405161069991906178e8565b60405180910390f35b3480156106ae57600080fd5b506106c960048036038101906106c49190616a0b565b6117f3565b6040516106d691906179ec565b60405180910390f35b3480156106eb57600080fd5b5061070660048036038101906107019190616d02565b611820565b005b34801561071457600080fd5b5061072f600480360381019061072a9190616a0b565b61182e565b60405161073c9190617978565b60405180910390f35b34801561075157600080fd5b5061076c60048036038101906107679190616a0b565b6118d2565b005b34801561077a57600080fd5b5061078361192b565b6040516107909190617c24565b60405180910390f35b6107b360048036038101906107ae91906169c2565b611935565b6040516107c09190617c24565b60405180910390f35b3480156107d557600080fd5b506107f060048036038101906107eb9190616d02565b611a10565b6040516107fd9190617a07565b60405180910390f35b34801561081257600080fd5b5061082d60048036038101906108289190616a0b565b611a61565b60405161083a9190617978565b60405180910390f35b34801561084f57600080fd5b5061086a60048036038101906108659190616d42565b611b05565b005b34801561087857600080fd5b50610893600480360381019061088e9190616a0b565b611bd8565b6040516108a0919061799a565b60405180910390f35b3480156108b557600080fd5b506108d060048036038101906108cb9190616a0b565b611e98565b6040516108dd9190617be7565b60405180910390f35b3480156108f257600080fd5b5061090d60048036038101906109089190616a0b565b611efc565b60405161091a9190617c24565b60405180910390f35b34801561092f57600080fd5b5061094a60048036038101906109459190616995565b611f1f565b6040516109579190617c24565b60405180910390f35b34801561096c57600080fd5b5061098760048036038101906109829190616995565b611f68565b005b34801561099557600080fd5b506109b060048036038101906109ab9190616a0b565b611fec565b6040516109bd9190617c24565b60405180910390f35b3480156109d257600080fd5b506109ed60048036038101906109e89190616c0a565b61200f565b005b3480156109fb57600080fd5b50610a166004803603810190610a119190616a0b565b612146565b604051610a239190617a22565b60405180910390f35b336000610a3882611f1f565b90506000811115610a7e576040517f0934f2c3000000000000000000000000000000000000000000000000000000008152600401610a7590617b19565b60405180910390fd5b83610a8761192b565b811115610ac9576040517fd1d89b74000000000000000000000000000000000000000000000000000000008152600401610ac090617a5d565b60405180910390fd5b610ad38585612173565b6000610ae5856101600151601e6121bc565b9050670de0b6b3a764000081610afb91906180b9565b3414610b3e57346040517f79d3124b000000000000000000000000000000000000000000000000000000008152600401610b359190617abd565b60405180910390fd5b610b46610ee8565b505050505050565b610b57816121dc565b50565b600060016000848152602001908152602001600020600f0160008373ffffffffffffffffffffffffffffffffffffffff1673ffffffffffffffffffffffffffffffffffffffff16815260200190815260200160002060000180549050905092915050565b600047905090565b84610bcf61192b565b811115610c11576040517fd1d89b74000000000000000000000000000000000000000000000000000000008152600401610c0890617a5d565b60405180910390fd5b6000610c1d8786611a10565b90506007600b811115610c3357610c3261834a565b5b81600b811115610c4657610c4561834a565b5b1115610c87576040517fb4644dd9000000000000000000000000000000000000000000000000000000008152600401610c7e90617bc7565b60405180910390fd5b6000610c96888888888861225a565b90506000811115610cac57610cab87826122e0565b5b5050505050505050565b610cbe612416565b610cc781612494565b50565b600082610cd561192b565b811115610d17576040517fd1d89b74000000000000000000000000000000000000000000000000000000008152600401610d0e90617a5d565b60405180910390fd5b6000610d2385856125a6565b9050610d2f84826127ac565b809250505092915050565b81610d4361192b565b811115610d85576040517fd1d89b74000000000000000000000000000000000000000000000000000000008152600401610d7c90617a5d565b60405180910390fd5b82610d8f81610fd2565b610dce576040517fb4644dd9000000000000000000000000000000000000000000000000000000008152600401610dc590617b79565b60405180910390fd5b336000610dda82611f1f565b90506000811115610e20576040517f0934f2c3000000000000000000000000000000000000000000000000000000008152600401610e1790617b19565b60405180910390fd5b610e2b868633612806565b7f8e913351aa76002e572cc432b46556976f6e10285b52f94909124ea8ebd0b7958686336000604051610e619493929190617ca0565b60405180910390a1505050505050565b670de0b6b3a7640000610e8382611f1f565b610e8d91906180b9565b341115610ed157346040517f79d3124b000000000000000000000000000000000000000000000000000000008152600401610ec89190617aeb565b60405180910390fd5b610edb8134612caa565b610ee58134612d04565b50565b60003073ffffffffffffffffffffffffffffffffffffffff1634604051610f0e906178d3565b60006040518083038185875af1925050503d8060008114610f4b576040519150601f19603f3d011682016040523d82523d6000602084013e610f50565b606091505b5050905080610f94576040517f08c379a0000000000000000000000000000000000000000000000000000000008152600401610f8b90617a3d565b60405180910390fd5b7fb37bd6f3ccfce130859d4569dc432409f423a7928e73eb5c5049a94e40f0c648333034604051610fc793929190617903565b60405180910390a150565b60006001600083815260200190815260200160002060150160019054906101000a900460ff169050919050565b60008261100a61192b565b81111561104c576040517fd1d89b7400000000000000000000000000000000000000000000000000000000815260040161104390617a5d565b60405180910390fd5b60006110588585612e75565b905061106484826127ac565b809250505092915050565b60006001600083815260200190815260200160002060000160009054906101000a900473ffffffffffffffffffffffffffffffffffffffff169050919050565b846110b861192b565b8111156110fa576040517fd1d89b740000000000000000000000000000000000000000000000000000000081526004016110f190617a5d565b60405180910390fd5b6000611105876112e5565b1561111b576111148786611209565b9050611127565b6111248761124d565b90505b6111338787878761307b565b8315611200576000611159670de0b6b3a76400008361115291906180b9565b60466121bc565b9050803410156111a057346040517f79d3124b0000000000000000000000000000000000000000000000000000000081526004016111979190617abd565b60405180910390fd5b6111a8610ee8565b60006111c6670de0b6b3a7640000846111c191906180b9565b6130a5565b905060006111e6670de0b6b3a7640000856111e191906180b9565b6130b9565b90506111f289836122e0565b6111fc86826122e0565b5050505b50505050505050565b600060016000848152602001908152602001600020600c018281548110611233576112326183a8565b5b90600052602060002090600b020160070154905092915050565b600060016000838152602001908152602001600020600b01549050919050565b611275612416565b61127f60006130cd565b565b60006001600084815260200190815260200160002060100160008373ffffffffffffffffffffffffffffffffffffffff1673ffffffffffffffffffffffffffffffffffffffff16815260200190815260200160002060000180549050905092915050565b600060016000838152602001908152602001600020600a0160019054906101000a900460ff169050919050565b61131a612416565b611322613191565b565b60008115611363576001600084815260200190815260200160002060130154600160008581526020019081526020016000206011015411159050611396565b60016000848152602001908152602001600020601401546001600085815260200190815260200160002060120154111590505b92915050565b806113a561192b565b8111156113e7576040517fd1d89b740000000000000000000000000000000000000000000000000000000081526004016113de90617a5d565b60405180910390fd5b6113f08261328f565b505050565b6060600060608060008086156114b157600160008a8152602001908152602001600020600f0160008973ffffffffffffffffffffffffffffffffffffffff1673ffffffffffffffffffffffffffffffffffffffff1681526020019081526020016000206000018054806020026020016040519081016040528092919081815260200182805480156114a557602002820191906000526020600020905b815481526020019060010190808311611491575b50505050509350611559565b600160008a815260200190815260200160002060100160008973ffffffffffffffffffffffffffffffffffffffff1673ffffffffffffffffffffffffffffffffffffffff16815260200190815260200160002060000180548060200260200160405190810160405280929190818152602001828054801561155157602002820191906000526020600020905b81548152602001906001019080831161153d575b505050505093505b6115616161a6565b60005b85518110156117b657600160008c8152602001908152602001600020600f0160008b73ffffffffffffffffffffffffffffffffffffffff1673ffffffffffffffffffffffffffffffffffffffff16815260200190815260200160002060010160008783815181106115d8576115d76183a8565b5b602002602001015181526020019081526020016000206040518060400160405290816000820160009054906101000a900460ff16600481111561161e5761161d61834a565b5b60048111156116305761162f61834a565b5b815260200160018201805461164490618240565b80601f016020809104026020016040519081016040528092919081815260200182805461167090618240565b80156116bd5780601f10611692576101008083540402835291602001916116bd565b820191906000526020600020905b8154815290600101906020018083116116a057829003601f168201915b5050505050815250509150600060048111156116dc576116db61834a565b5b826000015160048111156116f3576116f261834a565b5b14156117a35785818151811061170c5761170b6183a8565b5b6020026020010151858481518110611727576117266183a8565b5b602002602001018181525050828061173e906182a3565b935050600160008c8152602001908152602001600020600c0186828151811061176a576117696183a8565b5b602002602001015181548110611783576117826183a8565b5b90600052602060002090600b020160070154846117a09190618032565b93505b80806117ae906182a3565b915050611564565b508383965096505050505050935093915050565b60008060009054906101000a900473ffffffffffffffffffffffffffffffffffffffff16905090565b60006001600083815260200190815260200160002060150160009054906101000a900460ff169050919050565b61182a8282613462565b5050565b606060016000838152602001908152602001600020600d018054806020026020016040519081016040528092919081815260200182805480156118c657602002820191906000526020600020905b8160009054906101000a900473ffffffffffffffffffffffffffffffffffffffff1673ffffffffffffffffffffffffffffffffffffffff168152602001906001019080831161187c575b50505050509050919050565b806118db61192b565b81111561191d576040517fd1d89b7400000000000000000000000000000000000000000000000000000000815260040161191490617a5d565b60405180910390fd5b61192682613506565b505050565b6000600354905090565b600033600061194382611f1f565b90506000811115611989576040517f0934f2c300000000000000000000000000000000000000000000000000000000815260040161198090617b19565b60405180910390fd5b61199284613759565b925060006119b9670de0b6b3a76400008661016001516119b291906180b9565b601e6121bc565b905080341015611a0057346040517f79d3124b0000000000000000000000000000000000000000000000000000000081526004016119f79190617abd565b60405180910390fd5b611a08610ee8565b505050919050565b600060016000848152602001908152602001600020600c018281548110611a3a57611a396183a8565b5b90600052602060002090600b020160090160009054906101000a900460ff16905092915050565b606060016000838152602001908152602001600020600e01805480602002602001604051908101604052809291908181526020018280548015611af957602002820191906000526020600020905b8160009054906101000a900473ffffffffffffffffffffffffffffffffffffffff1673ffffffffffffffffffffffffffffffffffffffff1681526020019060010190808311611aaf575b50505050509050919050565b82611b0e61192b565b811115611b50576040517fd1d89b74000000000000000000000000000000000000000000000000000000008152600401611b4790617a5d565b60405180910390fd5b6000611b5c8585611a10565b90506006600b811115611b7257611b7161834a565b5b81600b811115611b8557611b8461834a565b5b1115611bc6576040517fb4644dd9000000000000000000000000000000000000000000000000000000008152600401611bbd90617bc7565b60405180910390fd5b611bd18585856137ab565b5050505050565b606060016000838152602001908152602001600020600c01805480602002602001604051908101604052809291908181526020016000905b82821015611e8d57838290600052602060002090600b02016040518060a0016040529081600082016040518060e0016040529081600082018054611c5390618240565b80601f0160208091040260200160405190810160405280929190818152602001828054611c7f90618240565b8015611ccc5780601f10611ca157610100808354040283529160200191611ccc565b820191906000526020600020905b815481529060010190602001808311611caf57829003601f168201915b505050505081526020016001820154815260200160028201548152602001600382015481526020016004820154815260200160058201548152602001600682018054611d1790618240565b80601f0160208091040260200160405190810160405280929190818152602001828054611d4390618240565b8015611d905780601f10611d6557610100808354040283529160200191611d90565b820191906000526020600020905b815481529060010190602001808311611d7357829003601f168201915b505050505081525050815260200160078201548152602001600882018054611db790618240565b80601f0160208091040260200160405190810160405280929190818152602001828054611de390618240565b8015611e305780601f10611e0557610100808354040283529160200191611e30565b820191906000526020600020905b815481529060010190602001808311611e1357829003601f168201915b505050505081526020016009820160009054906101000a900460ff16600b811115611e5e57611e5d61834a565b5b600b811115611e7057611e6f61834a565b5b8152602001600a8201548152505081526020019060010190611c10565b505050509050919050565b611ea06161d2565b81611ea961192b565b811115611eeb576040517fd1d89b74000000000000000000000000000000000000000000000000000000008152600401611ee290617a5d565b60405180910390fd5b611ef4836137bc565b915050919050565b600060016000838152602001908152602001600020600d01805490509050919050565b6000600260008373ffffffffffffffffffffffffffffffffffffffff1673ffffffffffffffffffffffffffffffffffffffff168152602001908152602001600020549050919050565b611f70612416565b600073ffffffffffffffffffffffffffffffffffffffff168173ffffffffffffffffffffffffffffffffffffffff161415611fe0576040517f08c379a0000000000000000000000000000000000000000000000000000000008152600401611fd790617a7d565b60405180910390fd5b611fe9816130cd565b50565b600060016000838152602001908152602001600020600e01805490509050919050565b8161201861192b565b81111561205a576040517fd1d89b7400000000000000000000000000000000000000000000000000000000815260040161205190617a5d565b60405180910390fd5b82612064816117f3565b6120a3576040517fb4644dd900000000000000000000000000000000000000000000000000000000815260040161209a90617b79565b60405180910390fd5b3360006120af82611f1f565b905060008111156120f5576040517f0934f2c30000000000000000000000000000000000000000000000000000000081526004016120ec90617b19565b60405180910390fd5b6121008686336146c7565b7f8e913351aa76002e572cc432b46556976f6e10285b52f94909124ea8ebd0b79586863360016040516121369493929190617ca0565b60405180910390a1505050505050565b60006001600083815260200190815260200160002060150160029054906101000a900460ff169050919050565b61217d8282614b6c565b7f9096640c11bd5636ced741c9725e5ff774b334455c80e15491f15bb3af0bc2653383836040516121b09392919061793a565b60405180910390a15050565b600060646121ca8484614e84565b6121d49190618088565b905092915050565b60056001600083815260200190815260200160002060150160026101000a81548160ff021916908360068111156122165761221561834a565b5b02179055507fdea20a6d822b68d598b7ab4fd45418a7ca7b103f12d300bcc3b56a7b94d9ed338160053360405161224f93929190617d23565b60405180910390a150565b600082156122c55761226f8686338786614e9a565b600061227a876112e5565b905080156122935761228c8786611209565b915061229f565b61229c8761124d565b91505b6122bd670de0b6b3a7640000836122b691906180b9565b601e6121bc565b9150506122d7565b6122d28686866001615168565b600090505b95945050505050565b806122e9610bbe565b101561232a576040517f08c379a000000000000000000000000000000000000000000000000000000000815260040161232190617b59565b60405180910390fd5b60008273ffffffffffffffffffffffffffffffffffffffff1682604051612350906178d3565b60006040518083038185875af1925050503d806000811461238d576040519150601f19603f3d011682016040523d82523d6000602084013e612392565b606091505b50509050806123d6576040517f08c379a00000000000000000000000000000000000000000000000000000000081526004016123cd90617a3d565b60405180910390fd5b7fb37bd6f3ccfce130859d4569dc432409f423a7928e73eb5c5049a94e40f0c64830848460405161240993929190617903565b60405180910390a1505050565b61241e615466565b73ffffffffffffffffffffffffffffffffffffffff1661243c6117ca565b73ffffffffffffffffffffffffffffffffffffffff1614612492576040517f08c379a000000000000000000000000000000000000000000000000000000000815260040161248990617b39565b60405180910390fd5b565b6000736ca0189baf54f88684ed158193021e45745f810e73ffffffffffffffffffffffffffffffffffffffff16670de0b6b3a7640000836124d591906180b9565b6040516124e1906178d3565b60006040518083038185875af1925050503d806000811461251e576040519150601f19603f3d011682016040523d82523d6000602084013e612523565b606091505b5050905080612567576040517f08c379a000000000000000000000000000000000000000000000000000000000815260040161255e90617a3d565b60405180910390fd5b7fb37bd6f3ccfce130859d4569dc432409f423a7928e73eb5c5049a94e40f0c64830334760405161259a93929190617903565b60405180910390a15050565b6000606060006125b8858560006113f5565b80925081935050506000825114156125d5576000925050506127a6565b6125e48585846004600061546e565b60006125ef866112e5565b1561266c5760005b835181101561266657612609876137bc565b6101c00151848281518110612621576126206183a8565b5b60200260200101518151811061263a576126396183a8565b5b602002602001015160200151826126519190618032565b9150808061265e906182a3565b9150506125f7565b5061267d565b612675866137bc565b610180015190505b600073__$2753dcdd519b03fd573aecec08c92b1fcb$__634f6ca3ce6126a2846130a5565b6040518263ffffffff1660e01b81526004016126be9190617c09565b60206040518083038186803b1580156126d657600080fd5b505af41580156126ea573d6000803e3d6000fd5b505050506040513d601f19601f8201168201806040525081019061270e9190616a38565b9050600073__$2753dcdd519b03fd573aecec08c92b1fcb$__639ce5c4bf85846040518363ffffffff1660e01b815260040161274b929190617d5a565b60206040518083038186803b15801561276357600080fd5b505af4158015612777573d6000803e3d6000fd5b505050506040513d601f19601f8201168201806040525081019061279b9190616a38565b905080955050505050505b92915050565b80600260008473ffffffffffffffffffffffffffffffffffffffff1673ffffffffffffffffffffffffffffffffffffffff16815260200190815260200160002060008282546127fb9190618032565b925050819055505050565b60006001600085815260200190815260200160002060100160008373ffffffffffffffffffffffffffffffffffffffff1673ffffffffffffffffffffffffffffffffffffffff16815260200190815260200160002090506000816000018054905014156128e55760016000858152602001908152602001600020600e01829080600181540180825580915050600190039060005260206000200160009091909190916101000a81548173ffffffffffffffffffffffffffffffffffffffff021916908373ffffffffffffffffffffffffffffffffffffffff1602179055505b600080600090505b8451811015612bfa5760016000878152602001908152602001600020600c0185828151811061291f5761291e6183a8565b5b602002602001015181548110612938576129376183a8565b5b90600052602060002090600b020160090160009054906101000a900460ff1691506000600b81111561296d5761296c61834a565b5b82600b8111156129805761297f61834a565b5b1415612a5e576001806000888152602001908152602001600020600c018683815181106129b0576129af6183a8565b5b6020026020010151815481106129c9576129c86183a8565b5b90600052602060002090600b020160090160006101000a81548160ff0219169083600b8111156129fc576129fb61834a565b5b02179055507f188fff7234f3bb35c4f436313ec14267725515e4ca367843cd416621a72fb8a386868381518110612a3657612a356183a8565b5b6020026020010151600133604051612a519493929190617dc8565b60405180910390a1612ba2565b6002600b811115612a7257612a7161834a565b5b82600b811115612a8557612a8461834a565b5b1415612b6457600360016000888152602001908152602001600020600c01868381518110612ab657612ab56183a8565b5b602002602001015181548110612acf57612ace6183a8565b5b90600052602060002090600b020160090160006101000a81548160ff0219169083600b811115612b0257612b0161834a565b5b02179055507f188fff7234f3bb35c4f436313ec14267725515e4ca367843cd416621a72fb8a386868381518110612b3c57612b3b6183a8565b5b6020026020010151600333604051612b579493929190617dc8565b60405180910390a1612ba1565b816040517fcdec874a000000000000000000000000000000000000000000000000000000008152600401612b989190617b99565b60405180910390fd5b5b82600001858281518110612bb957612bb86183a8565b5b602002602001015190806001815401808255809150506001900390600052602060002001600090919091909150558080612bf2906182a3565b9150506128ed565b50600160008681526020019081526020016000206014016000815480929190612c22906182a3565b9190505550612c32856000611324565b15612ca35760006001600087815260200190815260200160002060150160016101000a81548160ff0219169083151502179055507f89bb035780742b4fe520972847d93db0618abd46516af218e10fd3479347b7e485600033604051612c9a93929190617cec565b60405180910390a15b5050505050565b80600260008473ffffffffffffffffffffffffffffffffffffffff1673ffffffffffffffffffffffffffffffffffffffff1681526020019081526020016000206000828254612cf99190618113565b925050819055505050565b600060149054906101000a900460ff1615612d54576040517f08c379a0000000000000000000000000000000000000000000000000000000008152600401612d4b90617a9d565b60405180910390fd5b6001600060146101000a81548160ff02191690831515021790555060008273ffffffffffffffffffffffffffffffffffffffff1682604051612d95906178d3565b60006040518083038185875af1925050503d8060008114612dd2576040519150601f19603f3d011682016040523d82523d6000602084013e612dd7565b606091505b5050905080612e1b576040517f08c379a0000000000000000000000000000000000000000000000000000000008152600401612e1290617a3d565b60405180910390fd5b7fb37bd6f3ccfce130859d4569dc432409f423a7928e73eb5c5049a94e40f0c648338484604051612e4e93929190617903565b60405180910390a15060008060146101000a81548160ff0219169083151502179055505050565b600060606000612e87858560016113f5565b8092508193505050600082511415612ea457600092505050613075565b612eb38585846004600161546e565b6000612ebe866112e5565b15612f3b5760005b8351811015612f3557612ed8876137bc565b6101c00151848281518110612ef057612eef6183a8565b5b602002602001015181518110612f0957612f086183a8565b5b60200260200101516020015182612f209190618032565b91508080612f2d906182a3565b915050612ec6565b50612f4c565b612f44866137bc565b610180015190505b600073__$2753dcdd519b03fd573aecec08c92b1fcb$__634f6ca3ce612f71846156d1565b6040518263ffffffff1660e01b8152600401612f8d9190617c09565b60206040518083038186803b158015612fa557600080fd5b505af4158015612fb9573d6000803e3d6000fd5b505050506040513d601f19601f82011682018060405250810190612fdd9190616a38565b9050600073__$2753dcdd519b03fd573aecec08c92b1fcb$__639ce5c4bf85846040518363ffffffff1660e01b815260040161301a929190617d5a565b60206040518083038186803b15801561303257600080fd5b505af4158015613046573d6000803e3d6000fd5b505050506040513d601f19601f8201168201806040525081019061306a9190616a38565b905080955050505050505b92915050565b80156130915761308c8484846156e5565b61309f565b61309e8484846000615168565b5b50505050565b60006130b28260246121bc565b9050919050565b60006130c68260186121bc565b9050919050565b60008060009054906101000a900473ffffffffffffffffffffffffffffffffffffffff169050816000806101000a81548173ffffffffffffffffffffffffffffffffffffffff021916908373ffffffffffffffffffffffffffffffffffffffff1602179055508173ffffffffffffffffffffffffffffffffffffffff168173ffffffffffffffffffffffffffffffffffffffff167f8be0079c531659141344cd1fd0a4f28419497f9722a3daafe3b4186f6b6457e060405160405180910390a35050565b6000736ca0189baf54f88684ed158193021e45745f810e73ffffffffffffffffffffffffffffffffffffffff16476040516131cb906178d3565b60006040518083038185875af1925050503d8060008114613208576040519150601f19603f3d011682016040523d82523d6000602084013e61320d565b606091505b5050905080613251576040517f08c379a000000000000000000000000000000000000000000000000000000000815260040161324890617a3d565b60405180910390fd5b7fb37bd6f3ccfce130859d4569dc432409f423a7928e73eb5c5049a94e40f0c64830334760405161328493929190617903565b60405180910390a150565b60008061329b83611efc565b905060006132a884611bd8565b90506132b5846001611324565b156132c55760019250505061345d565b60008214156132e2576132d784615860565b60009250505061345d565b6000815190506000839050600081836132fb9190618088565b905060006133088861182e565b905060005b8551811015613448576000600b81111561332a5761332961834a565b5b86828151811061333d5761333c6183a8565b5b602002602001015160600151600b81111561335b5761335a61834a565b5b14156134355760005b8781101561343357836133918b858481518110613384576133836183a8565b5b6020026020010151610b5a565b111561339c57613420565b6133c38a838584815181106133b4576133b36183a8565b5b602002602001015160016158ce565b7fad65127436138b4afe97ef23baf28ed14a5fb09500ad117eb196cd3bdb3dbe9f8a838584815181106133f9576133f86183a8565b5b602002602001015160016040516134139493929190617d83565b60405180910390a1613433565b808061342b906182a3565b915050613364565b505b8080613440906182a3565b91505061330d565b5061345288615860565b600096505050505050505b919050565b600b60016000848152602001908152602001600020600c01828154811061348c5761348b6183a8565b5b90600052602060002090600b020160090160006101000a81548160ff0219169083600b8111156134bf576134be61834a565b5b02179055507f188fff7234f3bb35c4f436313ec14267725515e4ca367843cd416621a72fb8a38282600b336040516134fa9493929190617dc8565b60405180910390a15050565b6000613510612416565b600061351b83611fec565b9050600061352884611efc565b9050600061353585611bd8565b9050613542856000611324565b156135535760019350505050613754565b600083148015613564575060008214155b1561357e5761357285615a8a565b60009350505050613754565b60008314801561358e5750600082145b156135d85761359c85615af8565b60006135a78661106f565b905060006135be6135b78861124d565b601e6121bc565b90506135ca82826122e0565b600095505050505050613754565b6000815190506000849050600081836135f19190618088565b905060006135fe89611a61565b905060005b855181101561373e576000600b8111156136205761361f61834a565b5b868281518110613633576136326183a8565b5b602002602001015160600151600b8111156136515761365061834a565b5b141561372b5760005b8881101561372957836136878c85848151811061367a576136796183a8565b5b6020026020010151611281565b111561369257613716565b6136b98b838584815181106136aa576136a96183a8565b5b602002602001015160006158ce565b7fad65127436138b4afe97ef23baf28ed14a5fb09500ad117eb196cd3bdb3dbe9f8b838584815181106136ef576136ee6183a8565b5b602002602001015160006040516137099493929190617d83565b60405180910390a1613729565b8080613721906182a3565b91505061365a565b505b8080613736906182a3565b915050613603565b5061374889615a8a565b60009750505050505050505b919050565b60008061376583615be1565b90507f9096640c11bd5636ced741c9725e5ff774b334455c80e15491f15bb3af0bc26533828560405161379a9392919061793a565b60405180910390a180915050919050565b6137b783338484615f9e565b505050565b6137c46161d2565b6137cc6161d2565b6001600084815260200190815260200160002060000160009054906101000a900473ffffffffffffffffffffffffffffffffffffffff16816000019073ffffffffffffffffffffffffffffffffffffffff16908173ffffffffffffffffffffffffffffffffffffffff1681525050600160008481526020019081526020016000206001015481602001818152505060016000848152602001908152602001600020600201805461387b90618240565b80601f01602080910402602001604051908101604052809291908181526020018280546138a790618240565b80156138f45780601f106138c9576101008083540402835291602001916138f4565b820191906000526020600020905b8154815290600101906020018083116138d757829003601f168201915b5050505050816040018190525060016000848152602001908152602001600020600301805461392290618240565b80601f016020809104026020016040519081016040528092919081815260200182805461394e90618240565b801561399b5780601f106139705761010080835404028352916020019161399b565b820191906000526020600020905b81548152906001019060200180831161397e57829003601f168201915b50505050508160600181905250600160008481526020019081526020016000206004015481608001818152505060016000848152602001908152602001600020600501548160a001818152505060016000848152602001908152602001600020600601548160c001818152505060016000848152602001908152602001600020600701805480602002602001604051908101604052809291908181526020018280548015613a6857602002820191906000526020600020905b815481526020019060010190808311613a54575b50505050508160e0018190525060016000848152602001908152602001600020600801548161010001818152505060016000848152602001908152602001600020600901548161012001818152505060016000848152602001908152602001600020600a0160009054906101000a900460ff168161014001901515908115158152505060016000848152602001908152602001600020600a0160019054906101000a900460ff168161016001901515908115158152505060016000848152602001908152602001600020600b0154816101800181815250506001600084815260200190815260200160002060110154816102200181815250506001600084815260200190815260200160002060120154816102400181815250506001600084815260200190815260200160002060130154816102600181815250506001600084815260200190815260200160002060140154816102800181815250506001600084815260200190815260200160002060150160009054906101000a900460ff16816102a00190151590811515815250506001600084815260200190815260200160002060150160019054906101000a900460ff16816102c00190151590811515815250506001600084815260200190815260200160002060150160029054906101000a900460ff16816102e001906006811115613c6857613c6761834a565b5b90816006811115613c7c57613c7b61834a565b5b8152505060016000848152602001908152602001600020600c01805480602002602001604051908101604052809291908181526020016000905b82821015613f3357838290600052602060002090600b02016040518060a0016040529081600082016040518060e0016040529081600082018054613cf990618240565b80601f0160208091040260200160405190810160405280929190818152602001828054613d2590618240565b8015613d725780601f10613d4757610100808354040283529160200191613d72565b820191906000526020600020905b815481529060010190602001808311613d5557829003601f168201915b505050505081526020016001820154815260200160028201548152602001600382015481526020016004820154815260200160058201548152602001600682018054613dbd90618240565b80601f0160208091040260200160405190810160405280929190818152602001828054613de990618240565b8015613e365780601f10613e0b57610100808354040283529160200191613e36565b820191906000526020600020905b815481529060010190602001808311613e1957829003601f168201915b505050505081525050815260200160078201548152602001600882018054613e5d90618240565b80601f0160208091040260200160405190810160405280929190818152602001828054613e8990618240565b8015613ed65780601f10613eab57610100808354040283529160200191613ed6565b820191906000526020600020905b815481529060010190602001808311613eb957829003601f168201915b505050505081526020016009820160009054906101000a900460ff16600b811115613f0457613f0361834a565b5b600b811115613f1657613f1561834a565b5b8152602001600a8201548152505081526020019060010190613cb6565b50505050816101c0018190525060005b60016000858152602001908152602001600020600d01805490508110156142fe57613f6c6162b7565b600060016000878152602001908152602001600020600d018381548110613f9657613f956183a8565b5b9060005260206000200160009054906101000a900473ffffffffffffffffffffffffffffffffffffffff16905080826000019073ffffffffffffffffffffffffffffffffffffffff16908173ffffffffffffffffffffffffffffffffffffffff168152505060005b60016000888152602001908152602001600020600f0160008373ffffffffffffffffffffffffffffffffffffffff1673ffffffffffffffffffffffffffffffffffffffff168152602001908152602001600020600001805490508410156142c4576140676162e7565b60016000898152602001908152602001600020600f0160008473ffffffffffffffffffffffffffffffffffffffff1673ffffffffffffffffffffffffffffffffffffffff16815260200190815260200160002060000182815481106140cf576140ce6183a8565b5b906000526020600020015481600001818152505060016000898152602001908152602001600020600f0160008473ffffffffffffffffffffffffffffffffffffffff1673ffffffffffffffffffffffffffffffffffffffff16815260200190815260200160002060010160008260000151815260200190815260200160002060000160009054906101000a900460ff16816020019060048111156141765761417561834a565b5b9081600481111561418a5761418961834a565b5b8152505060016000898152602001908152602001600020600f0160008473ffffffffffffffffffffffffffffffffffffffff1673ffffffffffffffffffffffffffffffffffffffff168152602001908152602001600020600101600082600001518152602001908152602001600020600101805461420790618240565b80601f016020809104026020016040519081016040528092919081815260200182805461423390618240565b80156142805780601f1061425557610100808354040283529160200191614280565b820191906000526020600020905b81548152906001019060200180831161426357829003601f168201915b5050505050816040018190525080846020015183815181106142a5576142a46183a8565b5b60200260200101819052505080806142bc906182a3565b915050613ffe565b5081846101e0015184815181106142de576142dd6183a8565b5b6020026020010181905250505080806142f6906182a3565b915050613f43565b5060005b60016000858152602001908152602001600020600e01805490508110156146bd5761432b6162b7565b600060016000878152602001908152602001600020600e018381548110614355576143546183a8565b5b9060005260206000200160009054906101000a900473ffffffffffffffffffffffffffffffffffffffff16905080826000019073ffffffffffffffffffffffffffffffffffffffff16908173ffffffffffffffffffffffffffffffffffffffff168152505060005b6001600088815260200190815260200160002060100160008373ffffffffffffffffffffffffffffffffffffffff1673ffffffffffffffffffffffffffffffffffffffff16815260200190815260200160002060000180549050841015614683576144266162e7565b6001600089815260200190815260200160002060100160008473ffffffffffffffffffffffffffffffffffffffff1673ffffffffffffffffffffffffffffffffffffffff168152602001908152602001600020600001828154811061448e5761448d6183a8565b5b90600052602060002001548160000181815250506001600089815260200190815260200160002060100160008473ffffffffffffffffffffffffffffffffffffffff1673ffffffffffffffffffffffffffffffffffffffff16815260200190815260200160002060010160008260000151815260200190815260200160002060000160009054906101000a900460ff16816020019060048111156145355761453461834a565b5b908160048111156145495761454861834a565b5b815250506001600089815260200190815260200160002060100160008473ffffffffffffffffffffffffffffffffffffffff1673ffffffffffffffffffffffffffffffffffffffff16815260200190815260200160002060010160008260000151815260200190815260200160002060010180546145c690618240565b80601f01602080910402602001604051908101604052809291908181526020018280546145f290618240565b801561463f5780601f106146145761010080835404028352916020019161463f565b820191906000526020600020905b81548152906001019060200180831161462257829003601f168201915b505050505081604001819052508084602001518381518110614664576146636183a8565b5b602002602001018190525050808061467b906182a3565b9150506143bd565b5081846102000151848151811061469d5761469c6183a8565b5b6020026020010181905250505080806146b5906182a3565b915050614302565b5080915050919050565b600060016000858152602001908152602001600020600f0160008373ffffffffffffffffffffffffffffffffffffffff1673ffffffffffffffffffffffffffffffffffffffff16815260200190815260200160002090506000816000018054905014156147a65760016000858152602001908152602001600020600d01829080600181540180825580915050600190039060005260206000200160009091909190916101000a81548173ffffffffffffffffffffffffffffffffffffffff021916908373ffffffffffffffffffffffffffffffffffffffff1602179055505b600080600090505b8451811015614abc5760016000878152602001908152602001600020600c018582815181106147e0576147df6183a8565b5b6020026020010151815481106147f9576147f86183a8565b5b90600052602060002090600b020160090160009054906101000a900460ff1691506000600b81111561482e5761482d61834a565b5b82600b8111156148415761484061834a565b5b141561492057600260016000888152602001908152602001600020600c01868381518110614872576148716183a8565b5b60200260200101518154811061488b5761488a6183a8565b5b90600052602060002090600b020160090160006101000a81548160ff0219169083600b8111156148be576148bd61834a565b5b02179055507f188fff7234f3bb35c4f436313ec14267725515e4ca367843cd416621a72fb8a3868683815181106148f8576148f76183a8565b5b60200260200101516002336040516149139493929190617dc8565b60405180910390a1614a64565b6001600b8111156149345761493361834a565b5b82600b8111156149475761494661834a565b5b1415614a2657600360016000888152602001908152602001600020600c01868381518110614978576149776183a8565b5b602002602001015181548110614991576149906183a8565b5b90600052602060002090600b020160090160006101000a81548160ff0219169083600b8111156149c4576149c361834a565b5b02179055507f188fff7234f3bb35c4f436313ec14267725515e4ca367843cd416621a72fb8a3868683815181106149fe576149fd6183a8565b5b6020026020010151600333604051614a199493929190617dc8565b60405180910390a1614a63565b816040517fcdec874a000000000000000000000000000000000000000000000000000000008152600401614a5a9190617b99565b60405180910390fd5b5b82600001858281518110614a7b57614a7a6183a8565b5b602002602001015190806001815401808255809150506001900390600052602060002001600090919091909150558080614ab4906182a3565b9150506147ae565b50600160008681526020019081526020016000206013016000815480929190614ae4906182a3565b9190505550614af4856001611324565b15614b655760006001600087815260200190815260200160002060150160006101000a81548160ff0219169083151502179055507f0398fd552105b0090d73611ad526d12979f19b77a7f923343a85d8fd14a13a6785600033604051614b5c93929190617cec565b60405180910390a15b5050505050565b6000600160008481526020019081526020016000209050816000015181600101819055508160200151816002019080519060200190614bac92919061631a565b508160400151816003019080519060200190614bc992919061631a565b5081606001518160040181905550816080015181600501819055508160a0015181600601819055508160c00151816007019080519060200190614c0d9291906163a0565b508160e001518160080181905550816101000151816009018190555081610160015181600b018190555081610120015181600a0160006101000a81548160ff02191690831515021790555081610140015181600a0160016101000a81548160ff02191690831515021790555060018160150160026101000a81548160ff02191690836006811115614ca157614ca061834a565b5b021790555081610140015115614cd457816101800151518160110181905550816101800151518160110181905550614ce9565b60018160110181905550600181601101819055505b60018160150160006101000a81548160ff02191690831515021790555060018160150160026101000a81548160ff02191690836006811115614d2e57614d2d61834a565b5b021790555060005b82610180015151811015614e7e5781600c018361018001518281518110614d6057614d5f6183a8565b5b602002602001015190806001815401808255809150506001900390600052602060002090600b02016000909190919091506000820151816000016000820151816000019080519060200190614db692919061631a565b506020820151816001015560408201518160020155606082015181600301556080820151816004015560a0820151816005015560c0820151816006019080519060200190614e0592919061631a565b505050602082015181600701556040820151816008019080519060200190614e2e92919061631a565b5060608201518160090160006101000a81548160ff0219169083600b811115614e5a57614e5961834a565b5b0217905550608082015181600a015550508080614e76906182a3565b915050614d36565b50505050565b60008183614e9291906180b9565b905092915050565b6000600160008781526020019081526020016000209050600381600f0160008773ffffffffffffffffffffffffffffffffffffffff1673ffffffffffffffffffffffffffffffffffffffff168152602001908152602001600020600101600085815260200190815260200160002060000160006101000a81548160ff02191690836004811115614f2d57614f2c61834a565b5b02179055507f4b906571b20f3dcdf826b53f3c66528e252b2eb87de3cb812f18e6859e1193448686856003600133604051614f6d96959493929190617c3f565b60405180910390a1600681600c018481548110614f8d57614f8c6183a8565b5b90600052602060002090600b020160090160006101000a81548160ff0219169083600b811115614fc057614fbf61834a565b5b02179055507f188fff7234f3bb35c4f436313ec14267725515e4ca367843cd416621a72fb8a38684600633604051614ffb9493929190617dc8565b60405180910390a14281600c01848154811061501a576150196183a8565b5b90600052602060002090600b0201600a0181905550818160100160008673ffffffffffffffffffffffffffffffffffffffff1673ffffffffffffffffffffffffffffffffffffffff1681526020019081526020016000206001016000858152602001908152602001600020600101908051906020019061509b92919061631a565b5060018160100160008673ffffffffffffffffffffffffffffffffffffffff1673ffffffffffffffffffffffffffffffffffffffff168152602001908152602001600020600101600085815260200190815260200160002060000160006101000a81548160ff021916908360048111156151185761511761834a565b5b02179055507f4b906571b20f3dcdf826b53f3c66528e252b2eb87de3cb812f18e6859e119344868585600160003360405161515896959493929190617c3f565b60405180910390a1505050505050565b80156152e957600260016000868152602001908152602001600020600f0160008573ffffffffffffffffffffffffffffffffffffffff1673ffffffffffffffffffffffffffffffffffffffff168152602001908152602001600020600101600084815260200190815260200160002060000160006101000a81548160ff021916908360048111156151fc576151fb61834a565b5b02179055507f4b906571b20f3dcdf826b53f3c66528e252b2eb87de3cb812f18e6859e119344848484600260013360405161523c96959493929190617c3f565b60405180910390a1600560016000868152602001908152602001600020600c01838154811061526e5761526d6183a8565b5b90600052602060002090600b020160090160006101000a81548160ff0219169083600b8111156152a1576152a061834a565b5b02179055507f188fff7234f3bb35c4f436313ec14267725515e4ca367843cd416621a72fb8a384836005336040516152dc9493929190617dc8565b60405180910390a1615460565b60026001600086815260200190815260200160002060100160008573ffffffffffffffffffffffffffffffffffffffff1673ffffffffffffffffffffffffffffffffffffffff168152602001908152602001600020600101600084815260200190815260200160002060000160006101000a81548160ff021916908360048111156153775761537661834a565b5b02179055507f4b906571b20f3dcdf826b53f3c66528e252b2eb87de3cb812f18e6859e11934484848460026000336040516153b796959493929190617c3f565b60405180910390a1600760016000868152602001908152602001600020600c0183815481106153e9576153e86183a8565b5b90600052602060002090600b020160090160006101000a81548160ff0219169083600b81111561541c5761541b61834a565b5b02179055507f188fff7234f3bb35c4f436313ec14267725515e4ca367843cd416621a72fb8a384836007336040516154579493929190617dc8565b60405180910390a15b50505050565b600033905090565b80156155a15760005b835181101561559b578260016000888152602001908152602001600020600f0160008773ffffffffffffffffffffffffffffffffffffffff1673ffffffffffffffffffffffffffffffffffffffff16815260200190815260200160002060010160008684815181106154ec576154eb6183a8565b5b6020026020010151815260200190815260200160002060000160006101000a81548160ff021916908360048111156155275761552661834a565b5b02179055507f4b906571b20f3dcdf826b53f3c66528e252b2eb87de3cb812f18e6859e1193448686868481518110615562576155616183a8565b5b60200260200101518660013360405161558096959493929190617c3f565b60405180910390a18080615593906182a3565b915050615477565b506156ca565b60005b83518110156156c857826001600088815260200190815260200160002060100160008773ffffffffffffffffffffffffffffffffffffffff1673ffffffffffffffffffffffffffffffffffffffff1681526020019081526020016000206001016000868481518110615619576156186183a8565b5b6020026020010151815260200190815260200160002060000160006101000a81548160ff021916908360048111156156545761565361834a565b5b02179055507f4b906571b20f3dcdf826b53f3c66528e252b2eb87de3cb812f18e6859e119344868686848151811061568f5761568e6183a8565b5b6020026020010151866000336040516156ad96959493929190617c3f565b60405180910390a180806156c0906182a3565b9150506155a4565b505b5050505050565b60006156de8260366121bc565b9050919050565b60036001600085815260200190815260200160002060100160008473ffffffffffffffffffffffffffffffffffffffff1673ffffffffffffffffffffffffffffffffffffffff168152602001908152602001600020600101600083815260200190815260200160002060000160006101000a81548160ff021916908360048111156157735761577261834a565b5b02179055507f4b906571b20f3dcdf826b53f3c66528e252b2eb87de3cb812f18e6859e11934483838360036000336040516157b396959493929190617c3f565b60405180910390a1600860016000858152602001908152602001600020600c0182815481106157e5576157e46183a8565b5b90600052602060002090600b020160090160006101000a81548160ff0219169083600b8111156158185761581761834a565b5b02179055507f188fff7234f3bb35c4f436313ec14267725515e4ca367843cd416621a72fb8a383826008336040516158539493929190617dc8565b60405180910390a1505050565b60006001600083815260200190815260200160002060150160006101000a81548160ff0219169083151502179055507f0398fd552105b0090d73611ad526d12979f19b77a7f923343a85d8fd14a13a67816000336040516158c393929190617cec565b60405180910390a150565b600081156159705760016000868152602001908152602001600020600f0160008473ffffffffffffffffffffffffffffffffffffffff1673ffffffffffffffffffffffffffffffffffffffff16815260200190815260200160002060010160008581526020019081526020016000209050600160008681526020019081526020016000206013016000815480929190615966906182a3565b9190505550615a06565b6001600086815260200190815260200160002060100160008473ffffffffffffffffffffffffffffffffffffffff1673ffffffffffffffffffffffffffffffffffffffff16815260200190815260200160002060010160008581526020019081526020016000209050600160008681526020019081526020016000206014016000815480929190615a00906182a3565b91905055505b60016000868152602001908152602001600020600f0160008473ffffffffffffffffffffffffffffffffffffffff1673ffffffffffffffffffffffffffffffffffffffff1681526020019081526020016000206000018490806001815401808255809150506001900390600052602060002001600090919091909150555050505050565b60006001600083815260200190815260200160002060150160016101000a81548160ff0219169083151502179055507f89bb035780742b4fe520972847d93db0618abd46516af218e10fd3479347b7e481600033604051615aed93929190617cec565b60405180910390a150565b60046001600083815260200190815260200160002060150160026101000a81548160ff02191690836006811115615b3257615b3161834a565b5b02179055507fdea20a6d822b68d598b7ab4fd45418a7ca7b103f12d300bcc3b56a7b94d9ed3381600433604051615b6b93929190617d23565b60405180910390a160006001600083815260200190815260200160002060150160016101000a81548160ff0219169083151502179055507f0398fd552105b0090d73611ad526d12979f19b77a7f923343a85d8fd14a13a6781600033604051615bd693929190617cec565b60405180910390a150565b600060036000815480929190615bf6906182a3565b919050555060006001600060035481526020019081526020016000209050338160000160006101000a81548173ffffffffffffffffffffffffffffffffffffffff021916908373ffffffffffffffffffffffffffffffffffffffff160217905550826000015181600101819055508260200151816002019080519060200190615c8092919061631a565b508260400151816003019080519060200190615c9d92919061631a565b5082606001518160040181905550826080015181600501819055508260a0015181600601819055508260c00151816007019080519060200190615ce19291906163a0565b508260e001518160080181905550826101000151816009018190555082610160015181600b018190555082610120015181600a0160006101000a81548160ff02191690831515021790555082610140015181600a0160016101000a81548160ff02191690831515021790555082610140015115615d7b57826101800151518160110181905550826101800151518160120181905550615d90565b60018160110181905550600181601201819055505b60018160150160026101000a81548160ff02191690836006811115615db857615db761834a565b5b021790555060018160150160006101000a81548160ff02191690831515021790555060018160150160016101000a81548160ff02191690831515021790555060005b83610180015151811015615f925760008461018001518281518110615e2257615e216183a8565b5b602002602001015160600190600b811115615e4057615e3f61834a565b5b9081600b811115615e5457615e5361834a565b5b8152505081600c018461018001518281518110615e7457615e736183a8565b5b602002602001015190806001815401808255809150506001900390600052602060002090600b02016000909190919091506000820151816000016000820151816000019080519060200190615eca92919061631a565b506020820151816001015560408201518160020155606082015181600301556080820151816004015560a0820151816005015560c0820151816006019080519060200190615f1992919061631a565b505050602082015181600701556040820151816008019080519060200190615f4292919061631a565b5060608201518160090160006101000a81548160ff0219169083600b811115615f6e57615f6d61834a565b5b0217905550608082015181600a015550508080615f8a906182a3565b915050615dfa565b50600354915050919050565b6000600160008681526020019081526020016000209050600481600c018481548110615fcd57615fcc6183a8565b5b90600052602060002090600b020160090160006101000a81548160ff0219169083600b81111561600057615fff61834a565b5b02179055507f188fff7234f3bb35c4f436313ec14267725515e4ca367843cd416621a72fb8a3858460043360405161603b9493929190617dc8565b60405180910390a14281600c01848154811061605a576160596183a8565b5b90600052602060002090600b0201600a01819055508181600f0160008673ffffffffffffffffffffffffffffffffffffffff1673ffffffffffffffffffffffffffffffffffffffff168152602001908152602001600020600101600085815260200190815260200160002060010190805190602001906160db92919061631a565b50600181600f0160008673ffffffffffffffffffffffffffffffffffffffff1673ffffffffffffffffffffffffffffffffffffffff168152602001908152602001600020600101600085815260200190815260200160002060000160006101000a81548160ff021916908360048111156161585761615761834a565b5b02179055507f4b906571b20f3dcdf826b53f3c66528e252b2eb87de3cb812f18e6859e1193448585856001803360405161619796959493929190617c3f565b60405180910390a15050505050565b6040518060400160405280600060048111156161c5576161c461834a565b5b8152602001606081525090565b604051806103000160405280600073ffffffffffffffffffffffffffffffffffffffff168152602001600081526020016060815260200160608152602001600081526020016000815260200160008152602001606081526020016000815260200160008152602001600015158152602001600015158152602001600081526020016060815260200160608152602001606081526020016060815260200160008152602001600081526020016000815260200160008152602001600015158152602001600015158152602001600060068111156162b1576162b061834a565b5b81525090565b6040518060400160405280600073ffffffffffffffffffffffffffffffffffffffff168152602001606081525090565b6040518060600160405280600081526020016000600481111561630d5761630c61834a565b5b8152602001606081525090565b82805461632690618240565b90600052602060002090601f016020900481019282616348576000855561638f565b82601f1061636157805160ff191683800117855561638f565b8280016001018555821561638f579182015b8281111561638e578251825591602001919060010190616373565b5b50905061639c91906163ed565b5090565b8280548282559060005260206000209081019282156163dc579160200282015b828111156163db5782518255916020019190600101906163c0565b5b5090506163e991906163ed565b5090565b5b808211156164065760008160009055506001016163ee565b5090565b600061641d61641884617e32565b617e0d565b905080838252602082019050828560208602820111156164405761643f618415565b5b60005b8581101561648e57813567ffffffffffffffff81111561646657616465618406565b5b80860161647389826168a7565b85526020850194506020840193505050600181019050616443565b5050509392505050565b60006164ab6164a684617e5e565b617e0d565b905080838252602082019050828560208602820111156164ce576164cd618415565b5b60005b858110156164fe57816164e4888261696b565b8452602084019350602083019250506001810190506164d1565b5050509392505050565b600061651b61651684617e8a565b617e0d565b9050828152602081018484840111156165375761653661841a565b5b6165428482856181fe565b509392505050565b600081359050616559816186b1565b92915050565b600082601f83011261657457616573618406565b5b813561658484826020860161640a565b91505092915050565b600082601f8301126165a2576165a1618406565b5b81356165b2848260208601616498565b91505092915050565b6000813590506165ca816186c8565b92915050565b6000813590506165df816186df565b92915050565b600082601f8301126165fa576165f9618406565b5b813561660a848260208601616508565b91505092915050565b600060e082840312156166295761662861840b565b5b61663360e0617e0d565b9050600082013567ffffffffffffffff81111561665357616652618410565b5b61665f848285016165e5565b60008301525060206166738482850161696b565b60208301525060406166878482850161696b565b604083015250606061669b8482850161696b565b60608301525060806166af8482850161696b565b60808301525060a06166c38482850161696b565b60a08301525060c082013567ffffffffffffffff8111156166e7576166e6618410565b5b6166f3848285016165e5565b60c08301525092915050565b60006101a082840312156167165761671561840b565b5b6167216101a0617e0d565b905060006167318482850161696b565b600083015250602082013567ffffffffffffffff81111561675557616754618410565b5b616761848285016165e5565b602083015250604082013567ffffffffffffffff81111561678557616784618410565b5b616791848285016165e5565b60408301525060606167a58482850161696b565b60608301525060806167b98482850161696b565b60808301525060a06167cd8482850161696b565b60a08301525060c082013567ffffffffffffffff8111156167f1576167f0618410565b5b6167fd8482850161658d565b60c08301525060e06168118482850161696b565b60e0830152506101006168268482850161696b565b6101008301525061012061683c848285016165bb565b61012083015250610140616852848285016165bb565b610140830152506101606168688482850161696b565b6101608301525061018082013567ffffffffffffffff81111561688e5761688d618410565b5b61689a8482850161655f565b6101808301525092915050565b600060a082840312156168bd576168bc61840b565b5b6168c760a0617e0d565b9050600082013567ffffffffffffffff8111156168e7576168e6618410565b5b6168f384828501616613565b60008301525060206169078482850161696b565b602083015250604082013567ffffffffffffffff81111561692b5761692a618410565b5b616937848285016165e5565b604083015250606061694b848285016165d0565b606083015250608061695f8482850161696b565b60808301525092915050565b60008135905061697a816186ef565b92915050565b60008151905061698f816186ef565b92915050565b6000602082840312156169ab576169aa618424565b5b60006169b98482850161654a565b91505092915050565b6000602082840312156169d8576169d7618424565b5b600082013567ffffffffffffffff8111156169f6576169f561841f565b5b616a02848285016166ff565b91505092915050565b600060208284031215616a2157616a20618424565b5b6000616a2f8482850161696b565b91505092915050565b600060208284031215616a4e57616a4d618424565b5b6000616a5c84828501616980565b91505092915050565b60008060408385031215616a7c57616a7b618424565b5b6000616a8a8582860161696b565b9250506020616a9b8582860161654a565b9150509250929050565b600080600060608486031215616abe57616abd618424565b5b6000616acc8682870161696b565b9350506020616add8682870161654a565b9250506040616aee868287016165bb565b9150509250925092565b600080600080600060a08688031215616b1457616b13618424565b5b6000616b228882890161696b565b9550506020616b338882890161654a565b9450506040616b448882890161696b565b9350506060616b55888289016165bb565b9250506080616b668882890161654a565b9150509295509295909350565b600080600080600060a08688031215616b8f57616b8e618424565b5b6000616b9d8882890161696b565b9550506020616bae8882890161654a565b9450506040616bbf8882890161696b565b9350506060616bd0888289016165bb565b925050608086013567ffffffffffffffff811115616bf157616bf061841f565b5b616bfd888289016165e5565b9150509295509295909350565b60008060408385031215616c2157616c20618424565b5b6000616c2f8582860161696b565b925050602083013567ffffffffffffffff811115616c5057616c4f61841f565b5b616c5c8582860161658d565b9150509250929050565b60008060408385031215616c7d57616c7c618424565b5b6000616c8b8582860161696b565b9250506020616c9c858286016165bb565b9150509250929050565b60008060408385031215616cbd57616cbc618424565b5b6000616ccb8582860161696b565b925050602083013567ffffffffffffffff811115616cec57616ceb61841f565b5b616cf8858286016166ff565b9150509250929050565b60008060408385031215616d1957616d18618424565b5b6000616d278582860161696b565b9250506020616d388582860161696b565b9150509250929050565b600080600060608486031215616d5b57616d5a618424565b5b6000616d698682870161696b565b9350506020616d7a8682870161696b565b925050604084013567ffffffffffffffff811115616d9b57616d9a61841f565b5b616da7868287016165e5565b9150509250925092565b6000616dbd8383616e1d565b60208301905092915050565b6000616dd58383617572565b905092915050565b6000616de983836177ec565b905092915050565b6000616dfd8383617829565b905092915050565b6000616e1183836178a6565b60208301905092915050565b616e2681618147565b82525050565b616e3581618147565b82525050565b6000616e4682617f0b565b616e508185617f8e565b9350616e5b83617ebb565b8060005b83811015616e8c578151616e738882616db1565b9750616e7e83617f4d565b925050600181019050616e5f565b5085935050505092915050565b6000616ea482617f16565b616eae8185617f9f565b935083602082028501616ec085617ecb565b8060005b85811015616efc5784840389528151616edd8582616dc9565b9450616ee883617f5a565b925060208a01995050600181019050616ec4565b50829750879550505050505092915050565b6000616f1982617f21565b616f238185617fb0565b935083602082028501616f3585617edb565b8060005b85811015616f715784840389528151616f528582616ddd565b9450616f5d83617f67565b925060208a01995050600181019050616f39565b50829750879550505050505092915050565b6000616f8e82617f2c565b616f988185617fc1565b935083602082028501616faa85617eeb565b8060005b85811015616fe65784840389528151616fc78582616df1565b9450616fd283617f74565b925060208a01995050600181019050616fae565b50829750879550505050505092915050565b600061700382617f2c565b61700d8185617fd2565b93508360208202850161701f85617eeb565b8060005b8581101561705b578484038952815161703c8582616df1565b945061704783617f74565b925060208a01995050600181019050617023565b50829750879550505050505092915050565b600061707882617f37565b6170828185617fe3565b935061708d83617efb565b8060005b838110156170be5781516170a58882616e05565b97506170b083617f81565b925050600181019050617091565b5085935050505092915050565b60006170d682617f37565b6170e08185617ff4565b93506170eb83617efb565b8060005b8381101561711c5781516171038882616e05565b975061710e83617f81565b9250506001810190506170ef565b5085935050505092915050565b61713281618159565b82525050565b61714181618159565b82525050565b617150816181c8565b82525050565b61715f816181c8565b82525050565b61716e816181da565b82525050565b61717d816181da565b82525050565b61718c816181ec565b82525050565b61719b816181ec565b82525050565b60006171ac82617f42565b6171b68185618010565b93506171c681856020860161820d565b6171cf81618429565b840191505092915050565b60006171e7600b83618021565b91506171f28261843a565b602082019050919050565b600061720a601283618021565b915061721582618463565b602082019050919050565b600061722d602683618021565b91506172388261848c565b604082019050919050565b6000617250601383618021565b915061725b826184db565b602082019050919050565b6000617273601783618021565b915061727e82618504565b602082019050919050565b6000617296601183618021565b91506172a18261852d565b602082019050919050565b60006172b9601b83618021565b91506172c482618556565b602082019050919050565b60006172dc602083618021565b91506172e78261857f565b602082019050919050565b60006172ff601e83618021565b915061730a826185a8565b602082019050919050565b6000617322600083618005565b915061732d826185d1565b600082019050919050565b6000617345602683618021565b9150617350826185d4565b604082019050919050565b6000617368601083618021565b915061737382618623565b602082019050919050565b600061738b601083618021565b91506173968261864c565b602082019050919050565b600060e08301600083015184820360008601526173be82826171a1565b91505060208301516173d360208601826178a6565b5060408301516173e660408601826178a6565b5060608301516173f960608601826178a6565b50608083015161740c60808601826178a6565b5060a083015161741f60a08601826178a6565b5060c083015184820360c086015261743782826171a1565b9150508091505092915050565b60006101a08301600083015161745d60008601826178a6565b506020830151848203602086015261747582826171a1565b9150506040830151848203604086015261748f82826171a1565b91505060608301516174a460608601826178a6565b5060808301516174b760808601826178a6565b5060a08301516174ca60a08601826178a6565b5060c083015184820360c08601526174e2828261706d565b91505060e08301516174f760e08601826178a6565b5061010083015161750c6101008601826178a6565b50610120830151617521610120860182617129565b50610140830151617536610140860182617129565b5061016083015161754b6101608601826178a6565b506101808301518482036101808601526175658282616f83565b9150508091505092915050565b600060608301600083015161758a60008601826178a6565b50602083015161759d6020860182617183565b50604083015184820360408601526175b582826171a1565b9150508091505092915050565b6000610300830160008301516175db6000860182616e1d565b5060208301516175ee60208601826178a6565b506040830151848203604086015261760682826171a1565b9150506060830151848203606086015261762082826171a1565b915050608083015161763560808601826178a6565b5060a083015161764860a08601826178a6565b5060c083015161765b60c08601826178a6565b5060e083015184820360e0860152617673828261706d565b91505061010083015161768a6101008601826178a6565b5061012083015161769f6101208601826178a6565b506101408301516176b4610140860182617129565b506101608301516176c9610160860182617129565b506101808301516176de6101808601826178a6565b506101a08301518482036101a08601526176f88282616e99565b9150506101c08301518482036101c08601526177148282616f83565b9150506101e08301518482036101e08601526177308282616f0e565b91505061020083015184820361020086015261774c8282616f0e565b9150506102208301516177636102208601826178a6565b506102408301516177786102408601826178a6565b5061026083015161778d6102608601826178a6565b506102808301516177a26102808601826178a6565b506102a08301516177b76102a0860182617129565b506102c08301516177cc6102c0860182617129565b506102e08301516177e16102e0860182617165565b508091505092915050565b60006040830160008301516178046000860182616e1d565b506020830151848203602086015261781c8282616e99565b9150508091505092915050565b600060a083016000830151848203600086015261784682826173a1565b915050602083015161785b60208601826178a6565b506040830151848203604086015261787382826171a1565b91505060608301516178886060860182617147565b50608083015161789b60808601826178a6565b508091505092915050565b6178af816181be565b82525050565b6178be816181be565b82525050565b6178cd816181be565b82525050565b60006178de82617315565b9150819050919050565b60006020820190506178fd6000830184616e2c565b92915050565b60006060820190506179186000830186616e2c565b6179256020830185616e2c565b61793260408301846178b5565b949350505050565b600060608201905061794f6000830186616e2c565b61795c60208301856178b5565b818103604083015261796e8184617444565b9050949350505050565b600060208201905081810360008301526179928184616e3b565b905092915050565b600060208201905081810360008301526179b48184616ff8565b905092915050565b600060408201905081810360008301526179d681856170cb565b90506179e560208301846178b5565b9392505050565b6000602082019050617a016000830184617138565b92915050565b6000602082019050617a1c6000830184617156565b92915050565b6000602082019050617a376000830184617174565b92915050565b60006020820190508181036000830152617a56816171da565b9050919050565b60006020820190508181036000830152617a76816171fd565b9050919050565b60006020820190508181036000830152617a9681617220565b9050919050565b60006020820190508181036000830152617ab681617243565b9050919050565b60006040820190508181036000830152617ad681617266565b9050617ae560208301846178b5565b92915050565b60006040820190508181036000830152617b0481617289565b9050617b1360208301846178b5565b92915050565b60006020820190508181036000830152617b32816172ac565b9050919050565b60006020820190508181036000830152617b52816172cf565b9050919050565b60006020820190508181036000830152617b72816172f2565b9050919050565b60006020820190508181036000830152617b9281617338565b9050919050565b60006040820190508181036000830152617bb28161735b565b9050617bc16020830184617156565b92915050565b60006020820190508181036000830152617be08161737e565b9050919050565b60006020820190508181036000830152617c0181846175c2565b905092915050565b6000602082019050617c1e60008301846178c4565b92915050565b6000602082019050617c3960008301846178b5565b92915050565b600060c082019050617c5460008301896178b5565b617c616020830188616e2c565b617c6e60408301876178b5565b617c7b6060830186617192565b617c886080830185617138565b617c9560a0830184616e2c565b979650505050505050565b6000608082019050617cb560008301876178b5565b8181036020830152617cc781866170cb565b9050617cd66040830185616e2c565b617ce36060830184617138565b95945050505050565b6000606082019050617d0160008301866178b5565b617d0e6020830185617138565b617d1b6040830184616e2c565b949350505050565b6000606082019050617d3860008301866178b5565b617d456020830185617174565b617d526040830184616e2c565b949350505050565b6000604082019050617d6f60008301856178c4565b617d7c60208301846178c4565b9392505050565b6000608082019050617d9860008301876178b5565b617da560208301866178b5565b617db26040830185616e2c565b617dbf6060830184617138565b95945050505050565b6000608082019050617ddd60008301876178b5565b617dea60208301866178b5565b617df76040830185617156565b617e046060830184616e2c565b95945050505050565b6000617e17617e28565b9050617e238282618272565b919050565b6000604051905090565b600067ffffffffffffffff821115617e4d57617e4c6183d7565b5b602082029050602081019050919050565b600067ffffffffffffffff821115617e7957617e786183d7565b5b602082029050602081019050919050565b600067ffffffffffffffff821115617ea557617ea46183d7565b5b617eae82618429565b9050602081019050919050565b6000819050602082019050919050565b6000819050602082019050919050565b6000819050602082019050919050565b6000819050602082019050919050565b6000819050602082019050919050565b600081519050919050565b600081519050919050565b600081519050919050565b600081519050919050565b600081519050919050565b600081519050919050565b6000602082019050919050565b6000602082019050919050565b6000602082019050919050565b6000602082019050919050565b6000602082019050919050565b600082825260208201905092915050565b600082825260208201905092915050565b600082825260208201905092915050565b600082825260208201905092915050565b600082825260208201905092915050565b600082825260208201905092915050565b600082825260208201905092915050565b600081905092915050565b600082825260208201905092915050565b600082825260208201905092915050565b600061803d826181be565b9150618048836181be565b9250827fffffffffffffffffffffffffffffffffffffffffffffffffffffffffffffffff0382111561807d5761807c6182ec565b5b828201905092915050565b6000618093826181be565b915061809e836181be565b9250826180ae576180ad61831b565b5b828204905092915050565b60006180c4826181be565b91506180cf836181be565b9250817fffffffffffffffffffffffffffffffffffffffffffffffffffffffffffffffff0483118215151615618108576181076182ec565b5b828202905092915050565b600061811e826181be565b9150618129836181be565b92508282101561813c5761813b6182ec565b5b828203905092915050565b60006181528261819e565b9050919050565b60008115159050919050565b600081905061817382618675565b919050565b600081905061818682618689565b919050565b60008190506181998261869d565b919050565b600073ffffffffffffffffffffffffffffffffffffffff82169050919050565b6000819050919050565b60006181d382618165565b9050919050565b60006181e582618178565b9050919050565b60006181f78261818b565b9050919050565b82818337600083830152505050565b60005b8381101561822b578082015181840152602081019050618210565b8381111561823a576000848401525b50505050565b6000600282049050600182168061825857607f821691505b6020821081141561826c5761826b618379565b5b50919050565b61827b82618429565b810181811067ffffffffffffffff8211171561829a576182996183d7565b5b80604052505050565b60006182ae826181be565b91507fffffffffffffffffffffffffffffffffffffffffffffffffffffffffffffffff8214156182e1576182e06182ec565b5b600182019050919050565b7f4e487b7100000000000000000000000000000000000000000000000000000000600052601160045260246000fd5b7f4e487b7100000000000000000000000000000000000000000000000000000000600052601260045260246000fd5b7f4e487b7100000000000000000000000000000000000000000000000000000000600052602160045260246000fd5b7f4e487b7100000000000000000000000000000000000000000000000000000000600052602260045260246000fd5b7f4e487b7100000000000000000000000000000000000000000000000000000000600052603260045260246000fd5b7f4e487b7100000000000000000000000000000000000000000000000000000000600052604160045260246000fd5b600080fd5b600080fd5b600080fd5b600080fd5b600080fd5b600080fd5b600080fd5b6000601f19601f8301169050919050565b7f43616c6c206661696c6564000000000000000000000000000000000000000000600082015250565b7f57726f6e6720696e6465782076616c7565210000000000000000000000000000600082015250565b7f4f776e61626c653a206e6577206f776e657220697320746865207a65726f206160008201527f6464726573730000000000000000000000000000000000000000000000000000602082015250565b7f546865206c6f636b206973206c6f636b65642e00000000000000000000000000600082015250565b7f6572726f72203a20496e636f72726563742076616c7565000000000000000000600082015250565b7f76616c756520697320746f6f2068696768000000000000000000000000000000600082015250565b7f546865726520697320616e20756e706169642070656e616c7479210000000000600082015250565b7f4f776e61626c653a2063616c6c6572206973206e6f7420746865206f776e6572600082015250565b7f5468652062616c616e6365206973206e6f742073756666696369656e742e0000600082015250565b50565b7f4f7065726174696f6e457863657074696f6e3a2043616e27742072656365697660008201527f65207461736b0000000000000000000000000000000000000000000000000000602082015250565b7f4572726f722066696c6520737461746500000000000000000000000000000000600082015250565b7f756e61626c6520746f207375626d697400000000000000000000000000000000600082015250565b600c81106186865761868561834a565b5b50565b6007811061869a5761869961834a565b5b50565b600581106186ae576186ad61834a565b5b50565b6186ba81618147565b81146186c557600080fd5b50565b6186d181618159565b81146186dc57600080fd5b50565b600c81106186ec57600080fd5b50565b6186f8816181be565b811461870357600080fd5b5056fea2646970667358221220b8949f5199d83202598cc0e610686c15383ddff43990faa2eb0c05977aaa6c7364736f6c63430008070033",
			"opcodes": "PUSH1 0x80 PUSH1 0x40 MSTORE CALLVALUE DUP1 ISZERO PUSH3 0x11 JUMPI PUSH1 0x0 DUP1 REVERT JUMPDEST POP PUSH3 0x32 PUSH3 0x26 PUSH3 0x38 PUSH1 0x20 SHL PUSH1 0x20 SHR JUMP JUMPDEST PUSH3 0x40 PUSH1 0x20 SHL PUSH1 0x20 SHR JUMP JUMPDEST PUSH3 0x104 JUMP JUMPDEST PUSH1 0x0 CALLER SWAP1 POP SWAP1 JUMP JUMPDEST PUSH1 0x0 DUP1 PUSH1 0x0 SWAP1 SLOAD SWAP1 PUSH2 0x100 EXP SWAP1 DIV PUSH20 0xFFFFFFFFFFFFFFFFFFFFFFFFFFFFFFFFFFFFFFFF AND SWAP1 POP DUP2 PUSH1 0x0 DUP1 PUSH2 0x100 EXP DUP2 SLOAD DUP2 PUSH20 0xFFFFFFFFFFFFFFFFFFFFFFFFFFFFFFFFFFFFFFFF MUL NOT AND SWAP1 DUP4 PUSH20 0xFFFFFFFFFFFFFFFFFFFFFFFFFFFFFFFFFFFFFFFF AND MUL OR SWAP1 SSTORE POP DUP2 PUSH20 0xFFFFFFFFFFFFFFFFFFFFFFFFFFFFFFFFFFFFFFFF AND DUP2 PUSH20 0xFFFFFFFFFFFFFFFFFFFFFFFFFFFFFFFFFFFFFFFF AND PUSH32 0x8BE0079C531659141344CD1FD0A4F28419497F9722A3DAAFE3B4186F6B6457E0 PUSH1 0x40 MLOAD PUSH1 0x40 MLOAD DUP1 SWAP2 SUB SWAP1 LOG3 POP POP JUMP JUMPDEST PUSH2 0x873C DUP1 PUSH3 0x114 PUSH1 0x0 CODECOPY PUSH1 0x0 RETURN INVALID PUSH1 0x80 PUSH1 0x40 MSTORE PUSH1 0x4 CALLDATASIZE LT PUSH2 0x24A JUMPI PUSH1 0x0 CALLDATALOAD PUSH1 0xE0 SHR DUP1 PUSH4 0x8A9A9FF3 GT PUSH2 0x139 JUMPI DUP1 PUSH4 0xAD607C72 GT PUSH2 0xB6 JUMPI DUP1 PUSH4 0xD2FED69C GT PUSH2 0x7A JUMPI DUP1 PUSH4 0xD2FED69C EQ PUSH2 0x8E6 JUMPI DUP1 PUSH4 0xD3D7BC3B EQ PUSH2 0x923 JUMPI DUP1 PUSH4 0xF2FDE38B EQ PUSH2 0x960 JUMPI DUP1 PUSH4 0xF8626EBB EQ PUSH2 0x989 JUMPI DUP1 PUSH4 0xFA4C6473 EQ PUSH2 0x9C6 JUMPI DUP1 PUSH4 0xFFCCE776 EQ PUSH2 0x9EF JUMPI PUSH2 0x251 JUMP JUMPDEST DUP1 PUSH4 0xAD607C72 EQ PUSH2 0x7C9 JUMPI DUP1 PUSH4 0xB647EEC3 EQ PUSH2 0x806 JUMPI DUP1 PUSH4 0xBB0C38C0 EQ PUSH2 0x843 JUMPI DUP1 PUSH4 0xCF8F4BE2 EQ PUSH2 0x86C JUMPI DUP1 PUSH4 0xD1A1B999 EQ PUSH2 0x8A9 JUMPI PUSH2 0x251 JUMP JUMPDEST DUP1 PUSH4 0x97601EFB GT PUSH2 0xFD JUMPI DUP1 PUSH4 0x97601EFB EQ PUSH2 0x6DF JUMPI DUP1 PUSH4 0x983A12A8 EQ PUSH2 0x708 JUMPI DUP1 PUSH4 0xA55AF701 EQ PUSH2 0x745 JUMPI DUP1 PUSH4 0xA87D942C EQ PUSH2 0x76E JUMPI DUP1 PUSH4 0xAC35CD61 EQ PUSH2 0x799 JUMPI PUSH2 0x251 JUMP JUMPDEST DUP1 PUSH4 0x8A9A9FF3 EQ PUSH2 0x5D3 JUMPI DUP1 PUSH4 0x8ADC74A5 EQ PUSH2 0x610 JUMPI DUP1 PUSH4 0x8B3F3A6F EQ PUSH2 0x639 JUMPI DUP1 PUSH4 0x8DA5CB5B EQ PUSH2 0x677 JUMPI DUP1 PUSH4 0x9722F099 EQ PUSH2 0x6A2 JUMPI PUSH2 0x251 JUMP JUMPDEST DUP1 PUSH4 0x546677AA GT PUSH2 0x1C7 JUMPI DUP1 PUSH4 0x6E973982 GT PUSH2 0x18B JUMPI DUP1 PUSH4 0x6E973982 EQ PUSH2 0x4EE JUMPI DUP1 PUSH4 0x715018A6 EQ PUSH2 0x52B JUMPI DUP1 PUSH4 0x790485F9 EQ PUSH2 0x542 JUMPI DUP1 PUSH4 0x7C34EB85 EQ PUSH2 0x57F JUMPI DUP1 PUSH4 0x853828B6 EQ PUSH2 0x5BC JUMPI PUSH2 0x251 JUMP JUMPDEST DUP1 PUSH4 0x546677AA EQ PUSH2 0x3DE JUMPI DUP1 PUSH4 0x5B0EF140 EQ PUSH2 0x41B JUMPI DUP1 PUSH4 0x5BF608B8 EQ PUSH2 0x458 JUMPI DUP1 PUSH4 0x627A62F3 EQ PUSH2 0x495 JUMPI DUP1 PUSH4 0x64A1ED07 EQ PUSH2 0x4B1 JUMPI PUSH2 0x251 JUMP JUMPDEST DUP1 PUSH4 0x2E1A7D4D GT PUSH2 0x20E JUMPI DUP1 PUSH4 0x2E1A7D4D EQ PUSH2 0x329 JUMPI DUP1 PUSH4 0x36D61AE0 EQ PUSH2 0x352 JUMPI DUP1 PUSH4 0x3BD14E13 EQ PUSH2 0x38F JUMPI DUP1 PUSH4 0x3EDFA229 EQ PUSH2 0x3B8 JUMPI DUP1 PUSH4 0x460968DD EQ PUSH2 0x3D4 JUMPI PUSH2 0x251 JUMP JUMPDEST DUP1 PUSH4 0x9A02F58 EQ PUSH2 0x253 JUMPI DUP1 PUSH4 0x1201DFC6 EQ PUSH2 0x26F JUMPI DUP1 PUSH4 0x193620E7 EQ PUSH2 0x298 JUMPI DUP1 PUSH4 0x22968885 EQ PUSH2 0x2D5 JUMPI DUP1 PUSH4 0x243634BF EQ PUSH2 0x300 JUMPI PUSH2 0x251 JUMP JUMPDEST CALLDATASIZE PUSH2 0x251 JUMPI STOP JUMPDEST STOP JUMPDEST PUSH2 0x26D PUSH1 0x4 DUP1 CALLDATASIZE SUB DUP2 ADD SWAP1 PUSH2 0x268 SWAP2 SWAP1 PUSH2 0x6CA6 JUMP JUMPDEST PUSH2 0xA2C JUMP JUMPDEST STOP JUMPDEST CALLVALUE DUP1 ISZERO PUSH2 0x27B JUMPI PUSH1 0x0 DUP1 REVERT JUMPDEST POP PUSH2 0x296 PUSH1 0x4 DUP1 CALLDATASIZE SUB DUP2 ADD SWAP1 PUSH2 0x291 SWAP2 SWAP1 PUSH2 0x6A0B JUMP JUMPDEST PUSH2 0xB4E JUMP JUMPDEST STOP JUMPDEST CALLVALUE DUP1 ISZERO PUSH2 0x2A4 JUMPI PUSH1 0x0 DUP1 REVERT JUMPDEST POP PUSH2 0x2BF PUSH1 0x4 DUP1 CALLDATASIZE SUB DUP2 ADD SWAP1 PUSH2 0x2BA SWAP2 SWAP1 PUSH2 0x6A65 JUMP JUMPDEST PUSH2 0xB5A JUMP JUMPDEST PUSH1 0x40 MLOAD PUSH2 0x2CC SWAP2 SWAP1 PUSH2 0x7C24 JUMP JUMPDEST PUSH1 0x40 MLOAD DUP1 SWAP2 SUB SWAP1 RETURN JUMPDEST CALLVALUE DUP1 ISZERO PUSH2 0x2E1 JUMPI PUSH1 0x0 DUP1 REVERT JUMPDEST POP PUSH2 0x2EA PUSH2 0xBBE JUMP JUMPDEST PUSH1 0x40 MLOAD PUSH2 0x2F7 SWAP2 SWAP1 PUSH2 0x7C24 JUMP JUMPDEST PUSH1 0x40 MLOAD DUP1 SWAP2 SUB SWAP1 RETURN JUMPDEST CALLVALUE DUP1 ISZERO PUSH2 0x30C JUMPI PUSH1 0x0 DUP1 REVERT JUMPDEST POP PUSH2 0x327 PUSH1 0x4 DUP1 CALLDATASIZE SUB DUP2 ADD SWAP1 PUSH2 0x322 SWAP2 SWAP1 PUSH2 0x6B73 JUMP JUMPDEST PUSH2 0xBC6 JUMP JUMPDEST STOP JUMPDEST CALLVALUE DUP1 ISZERO PUSH2 0x335 JUMPI PUSH1 0x0 DUP1 REVERT JUMPDEST POP PUSH2 0x350 PUSH1 0x4 DUP1 CALLDATASIZE SUB DUP2 ADD SWAP1 PUSH2 0x34B SWAP2 SWAP1 PUSH2 0x6A0B JUMP JUMPDEST PUSH2 0xCB6 JUMP JUMPDEST STOP JUMPDEST CALLVALUE DUP1 ISZERO PUSH2 0x35E JUMPI PUSH1 0x0 DUP1 REVERT JUMPDEST POP PUSH2 0x379 PUSH1 0x4 DUP1 CALLDATASIZE SUB DUP2 ADD SWAP1 PUSH2 0x374 SWAP2 SWAP1 PUSH2 0x6A65 JUMP JUMPDEST PUSH2 0xCCA JUMP JUMPDEST PUSH1 0x40 MLOAD PUSH2 0x386 SWAP2 SWAP1 PUSH2 0x7C24 JUMP JUMPDEST PUSH1 0x40 MLOAD DUP1 SWAP2 SUB SWAP1 RETURN JUMPDEST CALLVALUE DUP1 ISZERO PUSH2 0x39B JUMPI PUSH1 0x0 DUP1 REVERT JUMPDEST POP PUSH2 0x3B6 PUSH1 0x4 DUP1 CALLDATASIZE SUB DUP2 ADD SWAP1 PUSH2 0x3B1 SWAP2 SWAP1 PUSH2 0x6C0A JUMP JUMPDEST PUSH2 0xD3A JUMP JUMPDEST STOP JUMPDEST PUSH2 0x3D2 PUSH1 0x4 DUP1 CALLDATASIZE SUB DUP2 ADD SWAP1 PUSH2 0x3CD SWAP2 SWAP1 PUSH2 0x6995 JUMP JUMPDEST PUSH2 0xE71 JUMP JUMPDEST STOP JUMPDEST PUSH2 0x3DC PUSH2 0xEE8 JUMP JUMPDEST STOP JUMPDEST CALLVALUE DUP1 ISZERO PUSH2 0x3EA JUMPI PUSH1 0x0 DUP1 REVERT JUMPDEST POP PUSH2 0x405 PUSH1 0x4 DUP1 CALLDATASIZE SUB DUP2 ADD SWAP1 PUSH2 0x400 SWAP2 SWAP1 PUSH2 0x6A0B JUMP JUMPDEST PUSH2 0xFD2 JUMP JUMPDEST PUSH1 0x40 MLOAD PUSH2 0x412 SWAP2 SWAP1 PUSH2 0x79EC JUMP JUMPDEST PUSH1 0x40 MLOAD DUP1 SWAP2 SUB SWAP1 RETURN JUMPDEST CALLVALUE DUP1 ISZERO PUSH2 0x427 JUMPI PUSH1 0x0 DUP1 REVERT JUMPDEST POP PUSH2 0x442 PUSH1 0x4 DUP1 CALLDATASIZE SUB DUP2 ADD SWAP1 PUSH2 0x43D SWAP2 SWAP1 PUSH2 0x6A65 JUMP JUMPDEST PUSH2 0xFFF JUMP JUMPDEST PUSH1 0x40 MLOAD PUSH2 0x44F SWAP2 SWAP1 PUSH2 0x7C24 JUMP JUMPDEST PUSH1 0x40 MLOAD DUP1 SWAP2 SUB SWAP1 RETURN JUMPDEST CALLVALUE DUP1 ISZERO PUSH2 0x464 JUMPI PUSH1 0x0 DUP1 REVERT JUMPDEST POP PUSH2 0x47F PUSH1 0x4 DUP1 CALLDATASIZE SUB DUP2 ADD SWAP1 PUSH2 0x47A SWAP2 SWAP1 PUSH2 0x6A0B JUMP JUMPDEST PUSH2 0x106F JUMP JUMPDEST PUSH1 0x40 MLOAD PUSH2 0x48C SWAP2 SWAP1 PUSH2 0x78E8 JUMP JUMPDEST PUSH1 0x40 MLOAD DUP1 SWAP2 SUB SWAP1 RETURN JUMPDEST PUSH2 0x4AF PUSH1 0x4 DUP1 CALLDATASIZE SUB DUP2 ADD SWAP1 PUSH2 0x4AA SWAP2 SWAP1 PUSH2 0x6AF8 JUMP JUMPDEST PUSH2 0x10AF JUMP JUMPDEST STOP JUMPDEST CALLVALUE DUP1 ISZERO PUSH2 0x4BD JUMPI PUSH1 0x0 DUP1 REVERT JUMPDEST POP PUSH2 0x4D8 PUSH1 0x4 DUP1 CALLDATASIZE SUB DUP2 ADD SWAP1 PUSH2 0x4D3 SWAP2 SWAP1 PUSH2 0x6D02 JUMP JUMPDEST PUSH2 0x1209 JUMP JUMPDEST PUSH1 0x40 MLOAD PUSH2 0x4E5 SWAP2 SWAP1 PUSH2 0x7C24 JUMP JUMPDEST PUSH1 0x40 MLOAD DUP1 SWAP2 SUB SWAP1 RETURN JUMPDEST CALLVALUE DUP1 ISZERO PUSH2 0x4FA JUMPI PUSH1 0x0 DUP1 REVERT JUMPDEST POP PUSH2 0x515 PUSH1 0x4 DUP1 CALLDATASIZE SUB DUP2 ADD SWAP1 PUSH2 0x510 SWAP2 SWAP1 PUSH2 0x6A0B JUMP JUMPDEST PUSH2 0x124D JUMP JUMPDEST PUSH1 0x40 MLOAD PUSH2 0x522 SWAP2 SWAP1 PUSH2 0x7C24 JUMP JUMPDEST PUSH1 0x40 MLOAD DUP1 SWAP2 SUB SWAP1 RETURN JUMPDEST CALLVALUE DUP1 ISZERO PUSH2 0x537 JUMPI PUSH1 0x0 DUP1 REVERT JUMPDEST POP PUSH2 0x540 PUSH2 0x126D JUMP JUMPDEST STOP JUMPDEST CALLVALUE DUP1 ISZERO PUSH2 0x54E JUMPI PUSH1 0x0 DUP1 REVERT JUMPDEST POP PUSH2 0x569 PUSH1 0x4 DUP1 CALLDATASIZE SUB DUP2 ADD SWAP1 PUSH2 0x564 SWAP2 SWAP1 PUSH2 0x6A65 JUMP JUMPDEST PUSH2 0x1281 JUMP JUMPDEST PUSH1 0x40 MLOAD PUSH2 0x576 SWAP2 SWAP1 PUSH2 0x7C24 JUMP JUMPDEST PUSH1 0x40 MLOAD DUP1 SWAP2 SUB SWAP1 RETURN JUMPDEST CALLVALUE DUP1 ISZERO PUSH2 0x58B JUMPI PUSH1 0x0 DUP1 REVERT JUMPDEST POP PUSH2 0x5A6 PUSH1 0x4 DUP1 CALLDATASIZE SUB DUP2 ADD SWAP1 PUSH2 0x5A1 SWAP2 SWAP1 PUSH2 0x6A0B JUMP JUMPDEST PUSH2 0x12E5 JUMP JUMPDEST PUSH1 0x40 MLOAD PUSH2 0x5B3 SWAP2 SWAP1 PUSH2 0x79EC JUMP JUMPDEST PUSH1 0x40 MLOAD DUP1 SWAP2 SUB SWAP1 RETURN JUMPDEST CALLVALUE DUP1 ISZERO PUSH2 0x5C8 JUMPI PUSH1 0x0 DUP1 REVERT JUMPDEST POP PUSH2 0x5D1 PUSH2 0x1312 JUMP JUMPDEST STOP JUMPDEST CALLVALUE DUP1 ISZERO PUSH2 0x5DF JUMPI PUSH1 0x0 DUP1 REVERT JUMPDEST POP PUSH2 0x5FA PUSH1 0x4 DUP1 CALLDATASIZE SUB DUP2 ADD SWAP1 PUSH2 0x5F5 SWAP2 SWAP1 PUSH2 0x6C66 JUMP JUMPDEST PUSH2 0x1324 JUMP JUMPDEST PUSH1 0x40 MLOAD PUSH2 0x607 SWAP2 SWAP1 PUSH2 0x79EC JUMP JUMPDEST PUSH1 0x40 MLOAD DUP1 SWAP2 SUB SWAP1 RETURN JUMPDEST CALLVALUE DUP1 ISZERO PUSH2 0x61C JUMPI PUSH1 0x0 DUP1 REVERT JUMPDEST POP PUSH2 0x637 PUSH1 0x4 DUP1 CALLDATASIZE SUB DUP2 ADD SWAP1 PUSH2 0x632 SWAP2 SWAP1 PUSH2 0x6A0B JUMP JUMPDEST PUSH2 0x139C JUMP JUMPDEST STOP JUMPDEST CALLVALUE DUP1 ISZERO PUSH2 0x645 JUMPI PUSH1 0x0 DUP1 REVERT JUMPDEST POP PUSH2 0x660 PUSH1 0x4 DUP1 CALLDATASIZE SUB DUP2 ADD SWAP1 PUSH2 0x65B SWAP2 SWAP1 PUSH2 0x6AA5 JUMP JUMPDEST PUSH2 0x13F5 JUMP JUMPDEST PUSH1 0x40 MLOAD PUSH2 0x66E SWAP3 SWAP2 SWAP1 PUSH2 0x79BC JUMP JUMPDEST PUSH1 0x40 MLOAD DUP1 SWAP2 SUB SWAP1 RETURN JUMPDEST CALLVALUE DUP1 ISZERO PUSH2 0x683 JUMPI PUSH1 0x0 DUP1 REVERT JUMPDEST POP PUSH2 0x68C PUSH2 0x17CA JUMP JUMPDEST PUSH1 0x40 MLOAD PUSH2 0x699 SWAP2 SWAP1 PUSH2 0x78E8 JUMP JUMPDEST PUSH1 0x40 MLOAD DUP1 SWAP2 SUB SWAP1 RETURN JUMPDEST CALLVALUE DUP1 ISZERO PUSH2 0x6AE JUMPI PUSH1 0x0 DUP1 REVERT JUMPDEST POP PUSH2 0x6C9 PUSH1 0x4 DUP1 CALLDATASIZE SUB DUP2 ADD SWAP1 PUSH2 0x6C4 SWAP2 SWAP1 PUSH2 0x6A0B JUMP JUMPDEST PUSH2 0x17F3 JUMP JUMPDEST PUSH1 0x40 MLOAD PUSH2 0x6D6 SWAP2 SWAP1 PUSH2 0x79EC JUMP JUMPDEST PUSH1 0x40 MLOAD DUP1 SWAP2 SUB SWAP1 RETURN JUMPDEST CALLVALUE DUP1 ISZERO PUSH2 0x6EB JUMPI PUSH1 0x0 DUP1 REVERT JUMPDEST POP PUSH2 0x706 PUSH1 0x4 DUP1 CALLDATASIZE SUB DUP2 ADD SWAP1 PUSH2 0x701 SWAP2 SWAP1 PUSH2 0x6D02 JUMP JUMPDEST PUSH2 0x1820 JUMP JUMPDEST STOP JUMPDEST CALLVALUE DUP1 ISZERO PUSH2 0x714 JUMPI PUSH1 0x0 DUP1 REVERT JUMPDEST POP PUSH2 0x72F PUSH1 0x4 DUP1 CALLDATASIZE SUB DUP2 ADD SWAP1 PUSH2 0x72A SWAP2 SWAP1 PUSH2 0x6A0B JUMP JUMPDEST PUSH2 0x182E JUMP JUMPDEST PUSH1 0x40 MLOAD PUSH2 0x73C SWAP2 SWAP1 PUSH2 0x7978 JUMP JUMPDEST PUSH1 0x40 MLOAD DUP1 SWAP2 SUB SWAP1 RETURN JUMPDEST CALLVALUE DUP1 ISZERO PUSH2 0x751 JUMPI PUSH1 0x0 DUP1 REVERT JUMPDEST POP PUSH2 0x76C PUSH1 0x4 DUP1 CALLDATASIZE SUB DUP2 ADD SWAP1 PUSH2 0x767 SWAP2 SWAP1 PUSH2 0x6A0B JUMP JUMPDEST PUSH2 0x18D2 JUMP JUMPDEST STOP JUMPDEST CALLVALUE DUP1 ISZERO PUSH2 0x77A JUMPI PUSH1 0x0 DUP1 REVERT JUMPDEST POP PUSH2 0x783 PUSH2 0x192B JUMP JUMPDEST PUSH1 0x40 MLOAD PUSH2 0x790 SWAP2 SWAP1 PUSH2 0x7C24 JUMP JUMPDEST PUSH1 0x40 MLOAD DUP1 SWAP2 SUB SWAP1 RETURN JUMPDEST PUSH2 0x7B3 PUSH1 0x4 DUP1 CALLDATASIZE SUB DUP2 ADD SWAP1 PUSH2 0x7AE SWAP2 SWAP1 PUSH2 0x69C2 JUMP JUMPDEST PUSH2 0x1935 JUMP JUMPDEST PUSH1 0x40 MLOAD PUSH2 0x7C0 SWAP2 SWAP1 PUSH2 0x7C24 JUMP JUMPDEST PUSH1 0x40 MLOAD DUP1 SWAP2 SUB SWAP1 RETURN JUMPDEST CALLVALUE DUP1 ISZERO PUSH2 0x7D5 JUMPI PUSH1 0x0 DUP1 REVERT JUMPDEST POP PUSH2 0x7F0 PUSH1 0x4 DUP1 CALLDATASIZE SUB DUP2 ADD SWAP1 PUSH2 0x7EB SWAP2 SWAP1 PUSH2 0x6D02 JUMP JUMPDEST PUSH2 0x1A10 JUMP JUMPDEST PUSH1 0x40 MLOAD PUSH2 0x7FD SWAP2 SWAP1 PUSH2 0x7A07 JUMP JUMPDEST PUSH1 0x40 MLOAD DUP1 SWAP2 SUB SWAP1 RETURN JUMPDEST CALLVALUE DUP1 ISZERO PUSH2 0x812 JUMPI PUSH1 0x0 DUP1 REVERT JUMPDEST POP PUSH2 0x82D PUSH1 0x4 DUP1 CALLDATASIZE SUB DUP2 ADD SWAP1 PUSH2 0x828 SWAP2 SWAP1 PUSH2 0x6A0B JUMP JUMPDEST PUSH2 0x1A61 JUMP JUMPDEST PUSH1 0x40 MLOAD PUSH2 0x83A SWAP2 SWAP1 PUSH2 0x7978 JUMP JUMPDEST PUSH1 0x40 MLOAD DUP1 SWAP2 SUB SWAP1 RETURN JUMPDEST CALLVALUE DUP1 ISZERO PUSH2 0x84F JUMPI PUSH1 0x0 DUP1 REVERT JUMPDEST POP PUSH2 0x86A PUSH1 0x4 DUP1 CALLDATASIZE SUB DUP2 ADD SWAP1 PUSH2 0x865 SWAP2 SWAP1 PUSH2 0x6D42 JUMP JUMPDEST PUSH2 0x1B05 JUMP JUMPDEST STOP JUMPDEST CALLVALUE DUP1 ISZERO PUSH2 0x878 JUMPI PUSH1 0x0 DUP1 REVERT JUMPDEST POP PUSH2 0x893 PUSH1 0x4 DUP1 CALLDATASIZE SUB DUP2 ADD SWAP1 PUSH2 0x88E SWAP2 SWAP1 PUSH2 0x6A0B JUMP JUMPDEST PUSH2 0x1BD8 JUMP JUMPDEST PUSH1 0x40 MLOAD PUSH2 0x8A0 SWAP2 SWAP1 PUSH2 0x799A JUMP JUMPDEST PUSH1 0x40 MLOAD DUP1 SWAP2 SUB SWAP1 RETURN JUMPDEST CALLVALUE DUP1 ISZERO PUSH2 0x8B5 JUMPI PUSH1 0x0 DUP1 REVERT JUMPDEST POP PUSH2 0x8D0 PUSH1 0x4 DUP1 CALLDATASIZE SUB DUP2 ADD SWAP1 PUSH2 0x8CB SWAP2 SWAP1 PUSH2 0x6A0B JUMP JUMPDEST PUSH2 0x1E98 JUMP JUMPDEST PUSH1 0x40 MLOAD PUSH2 0x8DD SWAP2 SWAP1 PUSH2 0x7BE7 JUMP JUMPDEST PUSH1 0x40 MLOAD DUP1 SWAP2 SUB SWAP1 RETURN JUMPDEST CALLVALUE DUP1 ISZERO PUSH2 0x8F2 JUMPI PUSH1 0x0 DUP1 REVERT JUMPDEST POP PUSH2 0x90D PUSH1 0x4 DUP1 CALLDATASIZE SUB DUP2 ADD SWAP1 PUSH2 0x908 SWAP2 SWAP1 PUSH2 0x6A0B JUMP JUMPDEST PUSH2 0x1EFC JUMP JUMPDEST PUSH1 0x40 MLOAD PUSH2 0x91A SWAP2 SWAP1 PUSH2 0x7C24 JUMP JUMPDEST PUSH1 0x40 MLOAD DUP1 SWAP2 SUB SWAP1 RETURN JUMPDEST CALLVALUE DUP1 ISZERO PUSH2 0x92F JUMPI PUSH1 0x0 DUP1 REVERT JUMPDEST POP PUSH2 0x94A PUSH1 0x4 DUP1 CALLDATASIZE SUB DUP2 ADD SWAP1 PUSH2 0x945 SWAP2 SWAP1 PUSH2 0x6995 JUMP JUMPDEST PUSH2 0x1F1F JUMP JUMPDEST PUSH1 0x40 MLOAD PUSH2 0x957 SWAP2 SWAP1 PUSH2 0x7C24 JUMP JUMPDEST PUSH1 0x40 MLOAD DUP1 SWAP2 SUB SWAP1 RETURN JUMPDEST CALLVALUE DUP1 ISZERO PUSH2 0x96C JUMPI PUSH1 0x0 DUP1 REVERT JUMPDEST POP PUSH2 0x987 PUSH1 0x4 DUP1 CALLDATASIZE SUB DUP2 ADD SWAP1 PUSH2 0x982 SWAP2 SWAP1 PUSH2 0x6995 JUMP JUMPDEST PUSH2 0x1F68 JUMP JUMPDEST STOP JUMPDEST CALLVALUE DUP1 ISZERO PUSH2 0x995 JUMPI PUSH1 0x0 DUP1 REVERT JUMPDEST POP PUSH2 0x9B0 PUSH1 0x4 DUP1 CALLDATASIZE SUB DUP2 ADD SWAP1 PUSH2 0x9AB SWAP2 SWAP1 PUSH2 0x6A0B JUMP JUMPDEST PUSH2 0x1FEC JUMP JUMPDEST PUSH1 0x40 MLOAD PUSH2 0x9BD SWAP2 SWAP1 PUSH2 0x7C24 JUMP JUMPDEST PUSH1 0x40 MLOAD DUP1 SWAP2 SUB SWAP1 RETURN JUMPDEST CALLVALUE DUP1 ISZERO PUSH2 0x9D2 JUMPI PUSH1 0x0 DUP1 REVERT JUMPDEST POP PUSH2 0x9ED PUSH1 0x4 DUP1 CALLDATASIZE SUB DUP2 ADD SWAP1 PUSH2 0x9E8 SWAP2 SWAP1 PUSH2 0x6C0A JUMP JUMPDEST PUSH2 0x200F JUMP JUMPDEST STOP JUMPDEST CALLVALUE DUP1 ISZERO PUSH2 0x9FB JUMPI PUSH1 0x0 DUP1 REVERT JUMPDEST POP PUSH2 0xA16 PUSH1 0x4 DUP1 CALLDATASIZE SUB DUP2 ADD SWAP1 PUSH2 0xA11 SWAP2 SWAP1 PUSH2 0x6A0B JUMP JUMPDEST PUSH2 0x2146 JUMP JUMPDEST PUSH1 0x40 MLOAD PUSH2 0xA23 SWAP2 SWAP1 PUSH2 0x7A22 JUMP JUMPDEST PUSH1 0x40 MLOAD DUP1 SWAP2 SUB SWAP1 RETURN JUMPDEST CALLER PUSH1 0x0 PUSH2 0xA38 DUP3 PUSH2 0x1F1F JUMP JUMPDEST SWAP1 POP PUSH1 0x0 DUP2 GT ISZERO PUSH2 0xA7E JUMPI PUSH1 0x40 MLOAD PUSH32 0x934F2C300000000000000000000000000000000000000000000000000000000 DUP2 MSTORE PUSH1 0x4 ADD PUSH2 0xA75 SWAP1 PUSH2 0x7B19 JUMP JUMPDEST PUSH1 0x40 MLOAD DUP1 SWAP2 SUB SWAP1 REVERT JUMPDEST DUP4 PUSH2 0xA87 PUSH2 0x192B JUMP JUMPDEST DUP2 GT ISZERO PUSH2 0xAC9 JUMPI PUSH1 0x40 MLOAD PUSH32 0xD1D89B7400000000000000000000000000000000000000000000000000000000 DUP2 MSTORE PUSH1 0x4 ADD PUSH2 0xAC0 SWAP1 PUSH2 0x7A5D JUMP JUMPDEST PUSH1 0x40 MLOAD DUP1 SWAP2 SUB SWAP1 REVERT JUMPDEST PUSH2 0xAD3 DUP6 DUP6 PUSH2 0x2173 JUMP JUMPDEST PUSH1 0x0 PUSH2 0xAE5 DUP6 PUSH2 0x160 ADD MLOAD PUSH1 0x1E PUSH2 0x21BC JUMP JUMPDEST SWAP1 POP PUSH8 0xDE0B6B3A7640000 DUP2 PUSH2 0xAFB SWAP2 SWAP1 PUSH2 0x80B9 JUMP JUMPDEST CALLVALUE EQ PUSH2 0xB3E JUMPI CALLVALUE PUSH1 0x40 MLOAD PUSH32 0x79D3124B00000000000000000000000000000000000000000000000000000000 DUP2 MSTORE PUSH1 0x4 ADD PUSH2 0xB35 SWAP2 SWAP1 PUSH2 0x7ABD JUMP JUMPDEST PUSH1 0x40 MLOAD DUP1 SWAP2 SUB SWAP1 REVERT JUMPDEST PUSH2 0xB46 PUSH2 0xEE8 JUMP JUMPDEST POP POP POP POP POP POP JUMP JUMPDEST PUSH2 0xB57 DUP2 PUSH2 0x21DC JUMP JUMPDEST POP JUMP JUMPDEST PUSH1 0x0 PUSH1 0x1 PUSH1 0x0 DUP5 DUP2 MSTORE PUSH1 0x20 ADD SWAP1 DUP2 MSTORE PUSH1 0x20 ADD PUSH1 0x0 KECCAK256 PUSH1 0xF ADD PUSH1 0x0 DUP4 PUSH20 0xFFFFFFFFFFFFFFFFFFFFFFFFFFFFFFFFFFFFFFFF AND PUSH20 0xFFFFFFFFFFFFFFFFFFFFFFFFFFFFFFFFFFFFFFFF AND DUP2 MSTORE PUSH1 0x20 ADD SWAP1 DUP2 MSTORE PUSH1 0x20 ADD PUSH1 0x0 KECCAK256 PUSH1 0x0 ADD DUP1 SLOAD SWAP1 POP SWAP1 POP SWAP3 SWAP2 POP POP JUMP JUMPDEST PUSH1 0x0 SELFBALANCE SWAP1 POP SWAP1 JUMP JUMPDEST DUP5 PUSH2 0xBCF PUSH2 0x192B JUMP JUMPDEST DUP2 GT ISZERO PUSH2 0xC11 JUMPI PUSH1 0x40 MLOAD PUSH32 0xD1D89B7400000000000000000000000000000000000000000000000000000000 DUP2 MSTORE PUSH1 0x4 ADD PUSH2 0xC08 SWAP1 PUSH2 0x7A5D JUMP JUMPDEST PUSH1 0x40 MLOAD DUP1 SWAP2 SUB SWAP1 REVERT JUMPDEST PUSH1 0x0 PUSH2 0xC1D DUP8 DUP7 PUSH2 0x1A10 JUMP JUMPDEST SWAP1 POP PUSH1 0x7 PUSH1 0xB DUP2 GT ISZERO PUSH2 0xC33 JUMPI PUSH2 0xC32 PUSH2 0x834A JUMP JUMPDEST JUMPDEST DUP2 PUSH1 0xB DUP2 GT ISZERO PUSH2 0xC46 JUMPI PUSH2 0xC45 PUSH2 0x834A JUMP JUMPDEST JUMPDEST GT ISZERO PUSH2 0xC87 JUMPI PUSH1 0x40 MLOAD PUSH32 0xB4644DD900000000000000000000000000000000000000000000000000000000 DUP2 MSTORE PUSH1 0x4 ADD PUSH2 0xC7E SWAP1 PUSH2 0x7BC7 JUMP JUMPDEST PUSH1 0x40 MLOAD DUP1 SWAP2 SUB SWAP1 REVERT JUMPDEST PUSH1 0x0 PUSH2 0xC96 DUP9 DUP9 DUP9 DUP9 DUP9 PUSH2 0x225A JUMP JUMPDEST SWAP1 POP PUSH1 0x0 DUP2 GT ISZERO PUSH2 0xCAC JUMPI PUSH2 0xCAB DUP8 DUP3 PUSH2 0x22E0 JUMP JUMPDEST JUMPDEST POP POP POP POP POP POP POP POP JUMP JUMPDEST PUSH2 0xCBE PUSH2 0x2416 JUMP JUMPDEST PUSH2 0xCC7 DUP2 PUSH2 0x2494 JUMP JUMPDEST POP JUMP JUMPDEST PUSH1 0x0 DUP3 PUSH2 0xCD5 PUSH2 0x192B JUMP JUMPDEST DUP2 GT ISZERO PUSH2 0xD17 JUMPI PUSH1 0x40 MLOAD PUSH32 0xD1D89B7400000000000000000000000000000000000000000000000000000000 DUP2 MSTORE PUSH1 0x4 ADD PUSH2 0xD0E SWAP1 PUSH2 0x7A5D JUMP JUMPDEST PUSH1 0x40 MLOAD DUP1 SWAP2 SUB SWAP1 REVERT JUMPDEST PUSH1 0x0 PUSH2 0xD23 DUP6 DUP6 PUSH2 0x25A6 JUMP JUMPDEST SWAP1 POP PUSH2 0xD2F DUP5 DUP3 PUSH2 0x27AC JUMP JUMPDEST DUP1 SWAP3 POP POP POP SWAP3 SWAP2 POP POP JUMP JUMPDEST DUP2 PUSH2 0xD43 PUSH2 0x192B JUMP JUMPDEST DUP2 GT ISZERO PUSH2 0xD85 JUMPI PUSH1 0x40 MLOAD PUSH32 0xD1D89B7400000000000000000000000000000000000000000000000000000000 DUP2 MSTORE PUSH1 0x4 ADD PUSH2 0xD7C SWAP1 PUSH2 0x7A5D JUMP JUMPDEST PUSH1 0x40 MLOAD DUP1 SWAP2 SUB SWAP1 REVERT JUMPDEST DUP3 PUSH2 0xD8F DUP2 PUSH2 0xFD2 JUMP JUMPDEST PUSH2 0xDCE JUMPI PUSH1 0x40 MLOAD PUSH32 0xB4644DD900000000000000000000000000000000000000000000000000000000 DUP2 MSTORE PUSH1 0x4 ADD PUSH2 0xDC5 SWAP1 PUSH2 0x7B79 JUMP JUMPDEST PUSH1 0x40 MLOAD DUP1 SWAP2 SUB SWAP1 REVERT JUMPDEST CALLER PUSH1 0x0 PUSH2 0xDDA DUP3 PUSH2 0x1F1F JUMP JUMPDEST SWAP1 POP PUSH1 0x0 DUP2 GT ISZERO PUSH2 0xE20 JUMPI PUSH1 0x40 MLOAD PUSH32 0x934F2C300000000000000000000000000000000000000000000000000000000 DUP2 MSTORE PUSH1 0x4 ADD PUSH2 0xE17 SWAP1 PUSH2 0x7B19 JUMP JUMPDEST PUSH1 0x40 MLOAD DUP1 SWAP2 SUB SWAP1 REVERT JUMPDEST PUSH2 0xE2B DUP7 DUP7 CALLER PUSH2 0x2806 JUMP JUMPDEST PUSH32 0x8E913351AA76002E572CC432B46556976F6E10285B52F94909124EA8EBD0B795 DUP7 DUP7 CALLER PUSH1 0x0 PUSH1 0x40 MLOAD PUSH2 0xE61 SWAP5 SWAP4 SWAP3 SWAP2 SWAP1 PUSH2 0x7CA0 JUMP JUMPDEST PUSH1 0x40 MLOAD DUP1 SWAP2 SUB SWAP1 LOG1 POP POP POP POP POP POP JUMP JUMPDEST PUSH8 0xDE0B6B3A7640000 PUSH2 0xE83 DUP3 PUSH2 0x1F1F JUMP JUMPDEST PUSH2 0xE8D SWAP2 SWAP1 PUSH2 0x80B9 JUMP JUMPDEST CALLVALUE GT ISZERO PUSH2 0xED1 JUMPI CALLVALUE PUSH1 0x40 MLOAD PUSH32 0x79D3124B00000000000000000000000000000000000000000000000000000000 DUP2 MSTORE PUSH1 0x4 ADD PUSH2 0xEC8 SWAP2 SWAP1 PUSH2 0x7AEB JUMP JUMPDEST PUSH1 0x40 MLOAD DUP1 SWAP2 SUB SWAP1 REVERT JUMPDEST PUSH2 0xEDB DUP2 CALLVALUE PUSH2 0x2CAA JUMP JUMPDEST PUSH2 0xEE5 DUP2 CALLVALUE PUSH2 0x2D04 JUMP JUMPDEST POP JUMP JUMPDEST PUSH1 0x0 ADDRESS PUSH20 0xFFFFFFFFFFFFFFFFFFFFFFFFFFFFFFFFFFFFFFFF AND CALLVALUE PUSH1 0x40 MLOAD PUSH2 0xF0E SWAP1 PUSH2 0x78D3 JUMP JUMPDEST PUSH1 0x0 PUSH1 0x40 MLOAD DUP1 DUP4 SUB DUP2 DUP6 DUP8 GAS CALL SWAP3 POP POP POP RETURNDATASIZE DUP1 PUSH1 0x0 DUP2 EQ PUSH2 0xF4B JUMPI PUSH1 0x40 MLOAD SWAP2 POP PUSH1 0x1F NOT PUSH1 0x3F RETURNDATASIZE ADD AND DUP3 ADD PUSH1 0x40 MSTORE RETURNDATASIZE DUP3 MSTORE RETURNDATASIZE PUSH1 0x0 PUSH1 0x20 DUP5 ADD RETURNDATACOPY PUSH2 0xF50 JUMP JUMPDEST PUSH1 0x60 SWAP2 POP JUMPDEST POP POP SWAP1 POP DUP1 PUSH2 0xF94 JUMPI PUSH1 0x40 MLOAD PUSH32 0x8C379A000000000000000000000000000000000000000000000000000000000 DUP2 MSTORE PUSH1 0x4 ADD PUSH2 0xF8B SWAP1 PUSH2 0x7A3D JUMP JUMPDEST PUSH1 0x40 MLOAD DUP1 SWAP2 SUB SWAP1 REVERT JUMPDEST PUSH32 0xB37BD6F3CCFCE130859D4569DC432409F423A7928E73EB5C5049A94E40F0C648 CALLER ADDRESS CALLVALUE PUSH1 0x40 MLOAD PUSH2 0xFC7 SWAP4 SWAP3 SWAP2 SWAP1 PUSH2 0x7903 JUMP JUMPDEST PUSH1 0x40 MLOAD DUP1 SWAP2 SUB SWAP1 LOG1 POP JUMP JUMPDEST PUSH1 0x0 PUSH1 0x1 PUSH1 0x0 DUP4 DUP2 MSTORE PUSH1 0x20 ADD SWAP1 DUP2 MSTORE PUSH1 0x20 ADD PUSH1 0x0 KECCAK256 PUSH1 0x15 ADD PUSH1 0x1 SWAP1 SLOAD SWAP1 PUSH2 0x100 EXP SWAP1 DIV PUSH1 0xFF AND SWAP1 POP SWAP2 SWAP1 POP JUMP JUMPDEST PUSH1 0x0 DUP3 PUSH2 0x100A PUSH2 0x192B JUMP JUMPDEST DUP2 GT ISZERO PUSH2 0x104C JUMPI PUSH1 0x40 MLOAD PUSH32 0xD1D89B7400000000000000000000000000000000000000000000000000000000 DUP2 MSTORE PUSH1 0x4 ADD PUSH2 0x1043 SWAP1 PUSH2 0x7A5D JUMP JUMPDEST PUSH1 0x40 MLOAD DUP1 SWAP2 SUB SWAP1 REVERT JUMPDEST PUSH1 0x0 PUSH2 0x1058 DUP6 DUP6 PUSH2 0x2E75 JUMP JUMPDEST SWAP1 POP PUSH2 0x1064 DUP5 DUP3 PUSH2 0x27AC JUMP JUMPDEST DUP1 SWAP3 POP POP POP SWAP3 SWAP2 POP POP JUMP JUMPDEST PUSH1 0x0 PUSH1 0x1 PUSH1 0x0 DUP4 DUP2 MSTORE PUSH1 0x20 ADD SWAP1 DUP2 MSTORE PUSH1 0x20 ADD PUSH1 0x0 KECCAK256 PUSH1 0x0 ADD PUSH1 0x0 SWAP1 SLOAD SWAP1 PUSH2 0x100 EXP SWAP1 DIV PUSH20 0xFFFFFFFFFFFFFFFFFFFFFFFFFFFFFFFFFFFFFFFF AND SWAP1 POP SWAP2 SWAP1 POP JUMP JUMPDEST DUP5 PUSH2 0x10B8 PUSH2 0x192B JUMP JUMPDEST DUP2 GT ISZERO PUSH2 0x10FA JUMPI PUSH1 0x40 MLOAD PUSH32 0xD1D89B7400000000000000000000000000000000000000000000000000000000 DUP2 MSTORE PUSH1 0x4 ADD PUSH2 0x10F1 SWAP1 PUSH2 0x7A5D JUMP JUMPDEST PUSH1 0x40 MLOAD DUP1 SWAP2 SUB SWAP1 REVERT JUMPDEST PUSH1 0x0 PUSH2 0x1105 DUP8 PUSH2 0x12E5 JUMP JUMPDEST ISZERO PUSH2 0x111B JUMPI PUSH2 0x1114 DUP8 DUP7 PUSH2 0x1209 JUMP JUMPDEST SWAP1 POP PUSH2 0x1127 JUMP JUMPDEST PUSH2 0x1124 DUP8 PUSH2 0x124D JUMP JUMPDEST SWAP1 POP JUMPDEST PUSH2 0x1133 DUP8 DUP8 DUP8 DUP8 PUSH2 0x307B JUMP JUMPDEST DUP4 ISZERO PUSH2 0x1200 JUMPI PUSH1 0x0 PUSH2 0x1159 PUSH8 0xDE0B6B3A7640000 DUP4 PUSH2 0x1152 SWAP2 SWAP1 PUSH2 0x80B9 JUMP JUMPDEST PUSH1 0x46 PUSH2 0x21BC JUMP JUMPDEST SWAP1 POP DUP1 CALLVALUE LT ISZERO PUSH2 0x11A0 JUMPI CALLVALUE PUSH1 0x40 MLOAD PUSH32 0x79D3124B00000000000000000000000000000000000000000000000000000000 DUP2 MSTORE PUSH1 0x4 ADD PUSH2 0x1197 SWAP2 SWAP1 PUSH2 0x7ABD JUMP JUMPDEST PUSH1 0x40 MLOAD DUP1 SWAP2 SUB SWAP1 REVERT JUMPDEST PUSH2 0x11A8 PUSH2 0xEE8 JUMP JUMPDEST PUSH1 0x0 PUSH2 0x11C6 PUSH8 0xDE0B6B3A7640000 DUP5 PUSH2 0x11C1 SWAP2 SWAP1 PUSH2 0x80B9 JUMP JUMPDEST PUSH2 0x30A5 JUMP JUMPDEST SWAP1 POP PUSH1 0x0 PUSH2 0x11E6 PUSH8 0xDE0B6B3A7640000 DUP6 PUSH2 0x11E1 SWAP2 SWAP1 PUSH2 0x80B9 JUMP JUMPDEST PUSH2 0x30B9 JUMP JUMPDEST SWAP1 POP PUSH2 0x11F2 DUP10 DUP4 PUSH2 0x22E0 JUMP JUMPDEST PUSH2 0x11FC DUP7 DUP3 PUSH2 0x22E0 JUMP JUMPDEST POP POP POP JUMPDEST POP POP POP POP POP POP POP JUMP JUMPDEST PUSH1 0x0 PUSH1 0x1 PUSH1 0x0 DUP5 DUP2 MSTORE PUSH1 0x20 ADD SWAP1 DUP2 MSTORE PUSH1 0x20 ADD PUSH1 0x0 KECCAK256 PUSH1 0xC ADD DUP3 DUP2 SLOAD DUP2 LT PUSH2 0x1233 JUMPI PUSH2 0x1232 PUSH2 0x83A8 JUMP JUMPDEST JUMPDEST SWAP1 PUSH1 0x0 MSTORE PUSH1 0x20 PUSH1 0x0 KECCAK256 SWAP1 PUSH1 0xB MUL ADD PUSH1 0x7 ADD SLOAD SWAP1 POP SWAP3 SWAP2 POP POP JUMP JUMPDEST PUSH1 0x0 PUSH1 0x1 PUSH1 0x0 DUP4 DUP2 MSTORE PUSH1 0x20 ADD SWAP1 DUP2 MSTORE PUSH1 0x20 ADD PUSH1 0x0 KECCAK256 PUSH1 0xB ADD SLOAD SWAP1 POP SWAP2 SWAP1 POP JUMP JUMPDEST PUSH2 0x1275 PUSH2 0x2416 JUMP JUMPDEST PUSH2 0x127F PUSH1 0x0 PUSH2 0x30CD JUMP JUMPDEST JUMP JUMPDEST PUSH1 0x0 PUSH1 0x1 PUSH1 0x0 DUP5 DUP2 MSTORE PUSH1 0x20 ADD SWAP1 DUP2 MSTORE PUSH1 0x20 ADD PUSH1 0x0 KECCAK256 PUSH1 0x10 ADD PUSH1 0x0 DUP4 PUSH20 0xFFFFFFFFFFFFFFFFFFFFFFFFFFFFFFFFFFFFFFFF AND PUSH20 0xFFFFFFFFFFFFFFFFFFFFFFFFFFFFFFFFFFFFFFFF AND DUP2 MSTORE PUSH1 0x20 ADD SWAP1 DUP2 MSTORE PUSH1 0x20 ADD PUSH1 0x0 KECCAK256 PUSH1 0x0 ADD DUP1 SLOAD SWAP1 POP SWAP1 POP SWAP3 SWAP2 POP POP JUMP JUMPDEST PUSH1 0x0 PUSH1 0x1 PUSH1 0x0 DUP4 DUP2 MSTORE PUSH1 0x20 ADD SWAP1 DUP2 MSTORE PUSH1 0x20 ADD PUSH1 0x0 KECCAK256 PUSH1 0xA ADD PUSH1 0x1 SWAP1 SLOAD SWAP1 PUSH2 0x100 EXP SWAP1 DIV PUSH1 0xFF AND SWAP1 POP SWAP2 SWAP1 POP JUMP JUMPDEST PUSH2 0x131A PUSH2 0x2416 JUMP JUMPDEST PUSH2 0x1322 PUSH2 0x3191 JUMP JUMPDEST JUMP JUMPDEST PUSH1 0x0 DUP2 ISZERO PUSH2 0x1363 JUMPI PUSH1 0x1 PUSH1 0x0 DUP5 DUP2 MSTORE PUSH1 0x20 ADD SWAP1 DUP2 MSTORE PUSH1 0x20 ADD PUSH1 0x0 KECCAK256 PUSH1 0x13 ADD SLOAD PUSH1 0x1 PUSH1 0x0 DUP6 DUP2 MSTORE PUSH1 0x20 ADD SWAP1 DUP2 MSTORE PUSH1 0x20 ADD PUSH1 0x0 KECCAK256 PUSH1 0x11 ADD SLOAD GT ISZERO SWAP1 POP PUSH2 0x1396 JUMP JUMPDEST PUSH1 0x1 PUSH1 0x0 DUP5 DUP2 MSTORE PUSH1 0x20 ADD SWAP1 DUP2 MSTORE PUSH1 0x20 ADD PUSH1 0x0 KECCAK256 PUSH1 0x14 ADD SLOAD PUSH1 0x1 PUSH1 0x0 DUP6 DUP2 MSTORE PUSH1 0x20 ADD SWAP1 DUP2 MSTORE PUSH1 0x20 ADD PUSH1 0x0 KECCAK256 PUSH1 0x12 ADD SLOAD GT ISZERO SWAP1 POP JUMPDEST SWAP3 SWAP2 POP POP JUMP JUMPDEST DUP1 PUSH2 0x13A5 PUSH2 0x192B JUMP JUMPDEST DUP2 GT ISZERO PUSH2 0x13E7 JUMPI PUSH1 0x40 MLOAD PUSH32 0xD1D89B7400000000000000000000000000000000000000000000000000000000 DUP2 MSTORE PUSH1 0x4 ADD PUSH2 0x13DE SWAP1 PUSH2 0x7A5D JUMP JUMPDEST PUSH1 0x40 MLOAD DUP1 SWAP2 SUB SWAP1 REVERT JUMPDEST PUSH2 0x13F0 DUP3 PUSH2 0x328F JUMP JUMPDEST POP POP POP JUMP JUMPDEST PUSH1 0x60 PUSH1 0x0 PUSH1 0x60 DUP1 PUSH1 0x0 DUP1 DUP7 ISZERO PUSH2 0x14B1 JUMPI PUSH1 0x1 PUSH1 0x0 DUP11 DUP2 MSTORE PUSH1 0x20 ADD SWAP1 DUP2 MSTORE PUSH1 0x20 ADD PUSH1 0x0 KECCAK256 PUSH1 0xF ADD PUSH1 0x0 DUP10 PUSH20 0xFFFFFFFFFFFFFFFFFFFFFFFFFFFFFFFFFFFFFFFF AND PUSH20 0xFFFFFFFFFFFFFFFFFFFFFFFFFFFFFFFFFFFFFFFF AND DUP2 MSTORE PUSH1 0x20 ADD SWAP1 DUP2 MSTORE PUSH1 0x20 ADD PUSH1 0x0 KECCAK256 PUSH1 0x0 ADD DUP1 SLOAD DUP1 PUSH1 0x20 MUL PUSH1 0x20 ADD PUSH1 0x40 MLOAD SWAP1 DUP2 ADD PUSH1 0x40 MSTORE DUP1 SWAP3 SWAP2 SWAP1 DUP2 DUP2 MSTORE PUSH1 0x20 ADD DUP3 DUP1 SLOAD DUP1 ISZERO PUSH2 0x14A5 JUMPI PUSH1 0x20 MUL DUP3 ADD SWAP2 SWAP1 PUSH1 0x0 MSTORE PUSH1 0x20 PUSH1 0x0 KECCAK256 SWAP1 JUMPDEST DUP2 SLOAD DUP2 MSTORE PUSH1 0x20 ADD SWAP1 PUSH1 0x1 ADD SWAP1 DUP1 DUP4 GT PUSH2 0x1491 JUMPI JUMPDEST POP POP POP POP POP SWAP4 POP PUSH2 0x1559 JUMP JUMPDEST PUSH1 0x1 PUSH1 0x0 DUP11 DUP2 MSTORE PUSH1 0x20 ADD SWAP1 DUP2 MSTORE PUSH1 0x20 ADD PUSH1 0x0 KECCAK256 PUSH1 0x10 ADD PUSH1 0x0 DUP10 PUSH20 0xFFFFFFFFFFFFFFFFFFFFFFFFFFFFFFFFFFFFFFFF AND PUSH20 0xFFFFFFFFFFFFFFFFFFFFFFFFFFFFFFFFFFFFFFFF AND DUP2 MSTORE PUSH1 0x20 ADD SWAP1 DUP2 MSTORE PUSH1 0x20 ADD PUSH1 0x0 KECCAK256 PUSH1 0x0 ADD DUP1 SLOAD DUP1 PUSH1 0x20 MUL PUSH1 0x20 ADD PUSH1 0x40 MLOAD SWAP1 DUP2 ADD PUSH1 0x40 MSTORE DUP1 SWAP3 SWAP2 SWAP1 DUP2 DUP2 MSTORE PUSH1 0x20 ADD DUP3 DUP1 SLOAD DUP1 ISZERO PUSH2 0x1551 JUMPI PUSH1 0x20 MUL DUP3 ADD SWAP2 SWAP1 PUSH1 0x0 MSTORE PUSH1 0x20 PUSH1 0x0 KECCAK256 SWAP1 JUMPDEST DUP2 SLOAD DUP2 MSTORE PUSH1 0x20 ADD SWAP1 PUSH1 0x1 ADD SWAP1 DUP1 DUP4 GT PUSH2 0x153D JUMPI JUMPDEST POP POP POP POP POP SWAP4 POP JUMPDEST PUSH2 0x1561 PUSH2 0x61A6 JUMP JUMPDEST PUSH1 0x0 JUMPDEST DUP6 MLOAD DUP2 LT ISZERO PUSH2 0x17B6 JUMPI PUSH1 0x1 PUSH1 0x0 DUP13 DUP2 MSTORE PUSH1 0x20 ADD SWAP1 DUP2 MSTORE PUSH1 0x20 ADD PUSH1 0x0 KECCAK256 PUSH1 0xF ADD PUSH1 0x0 DUP12 PUSH20 0xFFFFFFFFFFFFFFFFFFFFFFFFFFFFFFFFFFFFFFFF AND PUSH20 0xFFFFFFFFFFFFFFFFFFFFFFFFFFFFFFFFFFFFFFFF AND DUP2 MSTORE PUSH1 0x20 ADD SWAP1 DUP2 MSTORE PUSH1 0x20 ADD PUSH1 0x0 KECCAK256 PUSH1 0x1 ADD PUSH1 0x0 DUP8 DUP4 DUP2 MLOAD DUP2 LT PUSH2 0x15D8 JUMPI PUSH2 0x15D7 PUSH2 0x83A8 JUMP JUMPDEST JUMPDEST PUSH1 0x20 MUL PUSH1 0x20 ADD ADD MLOAD DUP2 MSTORE PUSH1 0x20 ADD SWAP1 DUP2 MSTORE PUSH1 0x20 ADD PUSH1 0x0 KECCAK256 PUSH1 0x40 MLOAD DUP1 PUSH1 0x40 ADD PUSH1 0x40 MSTORE SWAP1 DUP2 PUSH1 0x0 DUP3 ADD PUSH1 0x0 SWAP1 SLOAD SWAP1 PUSH2 0x100 EXP SWAP1 DIV PUSH1 0xFF AND PUSH1 0x4 DUP2 GT ISZERO PUSH2 0x161E JUMPI PUSH2 0x161D PUSH2 0x834A JUMP JUMPDEST JUMPDEST PUSH1 0x4 DUP2 GT ISZERO PUSH2 0x1630 JUMPI PUSH2 0x162F PUSH2 0x834A JUMP JUMPDEST JUMPDEST DUP2 MSTORE PUSH1 0x20 ADD PUSH1 0x1 DUP3 ADD DUP1 SLOAD PUSH2 0x1644 SWAP1 PUSH2 0x8240 JUMP JUMPDEST DUP1 PUSH1 0x1F ADD PUSH1 0x20 DUP1 SWAP2 DIV MUL PUSH1 0x20 ADD PUSH1 0x40 MLOAD SWAP1 DUP2 ADD PUSH1 0x40 MSTORE DUP1 SWAP3 SWAP2 SWAP1 DUP2 DUP2 MSTORE PUSH1 0x20 ADD DUP3 DUP1 SLOAD PUSH2 0x1670 SWAP1 PUSH2 0x8240 JUMP JUMPDEST DUP1 ISZERO PUSH2 0x16BD JUMPI DUP1 PUSH1 0x1F LT PUSH2 0x1692 JUMPI PUSH2 0x100 DUP1 DUP4 SLOAD DIV MUL DUP4 MSTORE SWAP2 PUSH1 0x20 ADD SWAP2 PUSH2 0x16BD JUMP JUMPDEST DUP3 ADD SWAP2 SWAP1 PUSH1 0x0 MSTORE PUSH1 0x20 PUSH1 0x0 KECCAK256 SWAP1 JUMPDEST DUP2 SLOAD DUP2 MSTORE SWAP1 PUSH1 0x1 ADD SWAP1 PUSH1 0x20 ADD DUP1 DUP4 GT PUSH2 0x16A0 JUMPI DUP3 SWAP1 SUB PUSH1 0x1F AND DUP3 ADD SWAP2 JUMPDEST POP POP POP POP POP DUP2 MSTORE POP POP SWAP2 POP PUSH1 0x0 PUSH1 0x4 DUP2 GT ISZERO PUSH2 0x16DC JUMPI PUSH2 0x16DB PUSH2 0x834A JUMP JUMPDEST JUMPDEST DUP3 PUSH1 0x0 ADD MLOAD PUSH1 0x4 DUP2 GT ISZERO PUSH2 0x16F3 JUMPI PUSH2 0x16F2 PUSH2 0x834A JUMP JUMPDEST JUMPDEST EQ ISZERO PUSH2 0x17A3 JUMPI DUP6 DUP2 DUP2 MLOAD DUP2 LT PUSH2 0x170C JUMPI PUSH2 0x170B PUSH2 0x83A8 JUMP JUMPDEST JUMPDEST PUSH1 0x20 MUL PUSH1 0x20 ADD ADD MLOAD DUP6 DUP5 DUP2 MLOAD DUP2 LT PUSH2 0x1727 JUMPI PUSH2 0x1726 PUSH2 0x83A8 JUMP JUMPDEST JUMPDEST PUSH1 0x20 MUL PUSH1 0x20 ADD ADD DUP2 DUP2 MSTORE POP POP DUP3 DUP1 PUSH2 0x173E SWAP1 PUSH2 0x82A3 JUMP JUMPDEST SWAP4 POP POP PUSH1 0x1 PUSH1 0x0 DUP13 DUP2 MSTORE PUSH1 0x20 ADD SWAP1 DUP2 MSTORE PUSH1 0x20 ADD PUSH1 0x0 KECCAK256 PUSH1 0xC ADD DUP7 DUP3 DUP2 MLOAD DUP2 LT PUSH2 0x176A JUMPI PUSH2 0x1769 PUSH2 0x83A8 JUMP JUMPDEST JUMPDEST PUSH1 0x20 MUL PUSH1 0x20 ADD ADD MLOAD DUP2 SLOAD DUP2 LT PUSH2 0x1783 JUMPI PUSH2 0x1782 PUSH2 0x83A8 JUMP JUMPDEST JUMPDEST SWAP1 PUSH1 0x0 MSTORE PUSH1 0x20 PUSH1 0x0 KECCAK256 SWAP1 PUSH1 0xB MUL ADD PUSH1 0x7 ADD SLOAD DUP5 PUSH2 0x17A0 SWAP2 SWAP1 PUSH2 0x8032 JUMP JUMPDEST SWAP4 POP JUMPDEST DUP1 DUP1 PUSH2 0x17AE SWAP1 PUSH2 0x82A3 JUMP JUMPDEST SWAP2 POP POP PUSH2 0x1564 JUMP JUMPDEST POP DUP4 DUP4 SWAP7 POP SWAP7 POP POP POP POP POP POP SWAP4 POP SWAP4 SWAP2 POP POP JUMP JUMPDEST PUSH1 0x0 DUP1 PUSH1 0x0 SWAP1 SLOAD SWAP1 PUSH2 0x100 EXP SWAP1 DIV PUSH20 0xFFFFFFFFFFFFFFFFFFFFFFFFFFFFFFFFFFFFFFFF AND SWAP1 POP SWAP1 JUMP JUMPDEST PUSH1 0x0 PUSH1 0x1 PUSH1 0x0 DUP4 DUP2 MSTORE PUSH1 0x20 ADD SWAP1 DUP2 MSTORE PUSH1 0x20 ADD PUSH1 0x0 KECCAK256 PUSH1 0x15 ADD PUSH1 0x0 SWAP1 SLOAD SWAP1 PUSH2 0x100 EXP SWAP1 DIV PUSH1 0xFF AND SWAP1 POP SWAP2 SWAP1 POP JUMP JUMPDEST PUSH2 0x182A DUP3 DUP3 PUSH2 0x3462 JUMP JUMPDEST POP POP JUMP JUMPDEST PUSH1 0x60 PUSH1 0x1 PUSH1 0x0 DUP4 DUP2 MSTORE PUSH1 0x20 ADD SWAP1 DUP2 MSTORE PUSH1 0x20 ADD PUSH1 0x0 KECCAK256 PUSH1 0xD ADD DUP1 SLOAD DUP1 PUSH1 0x20 MUL PUSH1 0x20 ADD PUSH1 0x40 MLOAD SWAP1 DUP2 ADD PUSH1 0x40 MSTORE DUP1 SWAP3 SWAP2 SWAP1 DUP2 DUP2 MSTORE PUSH1 0x20 ADD DUP3 DUP1 SLOAD DUP1 ISZERO PUSH2 0x18C6 JUMPI PUSH1 0x20 MUL DUP3 ADD SWAP2 SWAP1 PUSH1 0x0 MSTORE PUSH1 0x20 PUSH1 0x0 KECCAK256 SWAP1 JUMPDEST DUP2 PUSH1 0x0 SWAP1 SLOAD SWAP1 PUSH2 0x100 EXP SWAP1 DIV PUSH20 0xFFFFFFFFFFFFFFFFFFFFFFFFFFFFFFFFFFFFFFFF AND PUSH20 0xFFFFFFFFFFFFFFFFFFFFFFFFFFFFFFFFFFFFFFFF AND DUP2 MSTORE PUSH1 0x20 ADD SWAP1 PUSH1 0x1 ADD SWAP1 DUP1 DUP4 GT PUSH2 0x187C JUMPI JUMPDEST POP POP POP POP POP SWAP1 POP SWAP2 SWAP1 POP JUMP JUMPDEST DUP1 PUSH2 0x18DB PUSH2 0x192B JUMP JUMPDEST DUP2 GT ISZERO PUSH2 0x191D JUMPI PUSH1 0x40 MLOAD PUSH32 0xD1D89B7400000000000000000000000000000000000000000000000000000000 DUP2 MSTORE PUSH1 0x4 ADD PUSH2 0x1914 SWAP1 PUSH2 0x7A5D JUMP JUMPDEST PUSH1 0x40 MLOAD DUP1 SWAP2 SUB SWAP1 REVERT JUMPDEST PUSH2 0x1926 DUP3 PUSH2 0x3506 JUMP JUMPDEST POP POP POP JUMP JUMPDEST PUSH1 0x0 PUSH1 0x3 SLOAD SWAP1 POP SWAP1 JUMP JUMPDEST PUSH1 0x0 CALLER PUSH1 0x0 PUSH2 0x1943 DUP3 PUSH2 0x1F1F JUMP JUMPDEST SWAP1 POP PUSH1 0x0 DUP2 GT ISZERO PUSH2 0x1989 JUMPI PUSH1 0x40 MLOAD PUSH32 0x934F2C300000000000000000000000000000000000000000000000000000000 DUP2 MSTORE PUSH1 0x4 ADD PUSH2 0x1980 SWAP1 PUSH2 0x7B19 JUMP JUMPDEST PUSH1 0x40 MLOAD DUP1 SWAP2 SUB SWAP1 REVERT JUMPDEST PUSH2 0x1992 DUP5 PUSH2 0x3759 JUMP JUMPDEST SWAP3 POP PUSH1 0x0 PUSH2 0x19B9 PUSH8 0xDE0B6B3A7640000 DUP7 PUSH2 0x160 ADD MLOAD PUSH2 0x19B2 SWAP2 SWAP1 PUSH2 0x80B9 JUMP JUMPDEST PUSH1 0x1E PUSH2 0x21BC JUMP JUMPDEST SWAP1 POP DUP1 CALLVALUE LT ISZERO PUSH2 0x1A00 JUMPI CALLVALUE PUSH1 0x40 MLOAD PUSH32 0x79D3124B00000000000000000000000000000000000000000000000000000000 DUP2 MSTORE PUSH1 0x4 ADD PUSH2 0x19F7 SWAP2 SWAP1 PUSH2 0x7ABD JUMP JUMPDEST PUSH1 0x40 MLOAD DUP1 SWAP2 SUB SWAP1 REVERT JUMPDEST PUSH2 0x1A08 PUSH2 0xEE8 JUMP JUMPDEST POP POP POP SWAP2 SWAP1 POP JUMP JUMPDEST PUSH1 0x0 PUSH1 0x1 PUSH1 0x0 DUP5 DUP2 MSTORE PUSH1 0x20 ADD SWAP1 DUP2 MSTORE PUSH1 0x20 ADD PUSH1 0x0 KECCAK256 PUSH1 0xC ADD DUP3 DUP2 SLOAD DUP2 LT PUSH2 0x1A3A JUMPI PUSH2 0x1A39 PUSH2 0x83A8 JUMP JUMPDEST JUMPDEST SWAP1 PUSH1 0x0 MSTORE PUSH1 0x20 PUSH1 0x0 KECCAK256 SWAP1 PUSH1 0xB MUL ADD PUSH1 0x9 ADD PUSH1 0x0 SWAP1 SLOAD SWAP1 PUSH2 0x100 EXP SWAP1 DIV PUSH1 0xFF AND SWAP1 POP SWAP3 SWAP2 POP POP JUMP JUMPDEST PUSH1 0x60 PUSH1 0x1 PUSH1 0x0 DUP4 DUP2 MSTORE PUSH1 0x20 ADD SWAP1 DUP2 MSTORE PUSH1 0x20 ADD PUSH1 0x0 KECCAK256 PUSH1 0xE ADD DUP1 SLOAD DUP1 PUSH1 0x20 MUL PUSH1 0x20 ADD PUSH1 0x40 MLOAD SWAP1 DUP2 ADD PUSH1 0x40 MSTORE DUP1 SWAP3 SWAP2 SWAP1 DUP2 DUP2 MSTORE PUSH1 0x20 ADD DUP3 DUP1 SLOAD DUP1 ISZERO PUSH2 0x1AF9 JUMPI PUSH1 0x20 MUL DUP3 ADD SWAP2 SWAP1 PUSH1 0x0 MSTORE PUSH1 0x20 PUSH1 0x0 KECCAK256 SWAP1 JUMPDEST DUP2 PUSH1 0x0 SWAP1 SLOAD SWAP1 PUSH2 0x100 EXP SWAP1 DIV PUSH20 0xFFFFFFFFFFFFFFFFFFFFFFFFFFFFFFFFFFFFFFFF AND PUSH20 0xFFFFFFFFFFFFFFFFFFFFFFFFFFFFFFFFFFFFFFFF AND DUP2 MSTORE PUSH1 0x20 ADD SWAP1 PUSH1 0x1 ADD SWAP1 DUP1 DUP4 GT PUSH2 0x1AAF JUMPI JUMPDEST POP POP POP POP POP SWAP1 POP SWAP2 SWAP1 POP JUMP JUMPDEST DUP3 PUSH2 0x1B0E PUSH2 0x192B JUMP JUMPDEST DUP2 GT ISZERO PUSH2 0x1B50 JUMPI PUSH1 0x40 MLOAD PUSH32 0xD1D89B7400000000000000000000000000000000000000000000000000000000 DUP2 MSTORE PUSH1 0x4 ADD PUSH2 0x1B47 SWAP1 PUSH2 0x7A5D JUMP JUMPDEST PUSH1 0x40 MLOAD DUP1 SWAP2 SUB SWAP1 REVERT JUMPDEST PUSH1 0x0 PUSH2 0x1B5C DUP6 DUP6 PUSH2 0x1A10 JUMP JUMPDEST SWAP1 POP PUSH1 0x6 PUSH1 0xB DUP2 GT ISZERO PUSH2 0x1B72 JUMPI PUSH2 0x1B71 PUSH2 0x834A JUMP JUMPDEST JUMPDEST DUP2 PUSH1 0xB DUP2 GT ISZERO PUSH2 0x1B85 JUMPI PUSH2 0x1B84 PUSH2 0x834A JUMP JUMPDEST JUMPDEST GT ISZERO PUSH2 0x1BC6 JUMPI PUSH1 0x40 MLOAD PUSH32 0xB4644DD900000000000000000000000000000000000000000000000000000000 DUP2 MSTORE PUSH1 0x4 ADD PUSH2 0x1BBD SWAP1 PUSH2 0x7BC7 JUMP JUMPDEST PUSH1 0x40 MLOAD DUP1 SWAP2 SUB SWAP1 REVERT JUMPDEST PUSH2 0x1BD1 DUP6 DUP6 DUP6 PUSH2 0x37AB JUMP JUMPDEST POP POP POP POP POP JUMP JUMPDEST PUSH1 0x60 PUSH1 0x1 PUSH1 0x0 DUP4 DUP2 MSTORE PUSH1 0x20 ADD SWAP1 DUP2 MSTORE PUSH1 0x20 ADD PUSH1 0x0 KECCAK256 PUSH1 0xC ADD DUP1 SLOAD DUP1 PUSH1 0x20 MUL PUSH1 0x20 ADD PUSH1 0x40 MLOAD SWAP1 DUP2 ADD PUSH1 0x40 MSTORE DUP1 SWAP3 SWAP2 SWAP1 DUP2 DUP2 MSTORE PUSH1 0x20 ADD PUSH1 0x0 SWAP1 JUMPDEST DUP3 DUP3 LT ISZERO PUSH2 0x1E8D JUMPI DUP4 DUP3 SWAP1 PUSH1 0x0 MSTORE PUSH1 0x20 PUSH1 0x0 KECCAK256 SWAP1 PUSH1 0xB MUL ADD PUSH1 0x40 MLOAD DUP1 PUSH1 0xA0 ADD PUSH1 0x40 MSTORE SWAP1 DUP2 PUSH1 0x0 DUP3 ADD PUSH1 0x40 MLOAD DUP1 PUSH1 0xE0 ADD PUSH1 0x40 MSTORE SWAP1 DUP2 PUSH1 0x0 DUP3 ADD DUP1 SLOAD PUSH2 0x1C53 SWAP1 PUSH2 0x8240 JUMP JUMPDEST DUP1 PUSH1 0x1F ADD PUSH1 0x20 DUP1 SWAP2 DIV MUL PUSH1 0x20 ADD PUSH1 0x40 MLOAD SWAP1 DUP2 ADD PUSH1 0x40 MSTORE DUP1 SWAP3 SWAP2 SWAP1 DUP2 DUP2 MSTORE PUSH1 0x20 ADD DUP3 DUP1 SLOAD PUSH2 0x1C7F SWAP1 PUSH2 0x8240 JUMP JUMPDEST DUP1 ISZERO PUSH2 0x1CCC JUMPI DUP1 PUSH1 0x1F LT PUSH2 0x1CA1 JUMPI PUSH2 0x100 DUP1 DUP4 SLOAD DIV MUL DUP4 MSTORE SWAP2 PUSH1 0x20 ADD SWAP2 PUSH2 0x1CCC JUMP JUMPDEST DUP3 ADD SWAP2 SWAP1 PUSH1 0x0 MSTORE PUSH1 0x20 PUSH1 0x0 KECCAK256 SWAP1 JUMPDEST DUP2 SLOAD DUP2 MSTORE SWAP1 PUSH1 0x1 ADD SWAP1 PUSH1 0x20 ADD DUP1 DUP4 GT PUSH2 0x1CAF JUMPI DUP3 SWAP1 SUB PUSH1 0x1F AND DUP3 ADD SWAP2 JUMPDEST POP POP POP POP POP DUP2 MSTORE PUSH1 0x20 ADD PUSH1 0x1 DUP3 ADD SLOAD DUP2 MSTORE PUSH1 0x20 ADD PUSH1 0x2 DUP3 ADD SLOAD DUP2 MSTORE PUSH1 0x20 ADD PUSH1 0x3 DUP3 ADD SLOAD DUP2 MSTORE PUSH1 0x20 ADD PUSH1 0x4 DUP3 ADD SLOAD DUP2 MSTORE PUSH1 0x20 ADD PUSH1 0x5 DUP3 ADD SLOAD DUP2 MSTORE PUSH1 0x20 ADD PUSH1 0x6 DUP3 ADD DUP1 SLOAD PUSH2 0x1D17 SWAP1 PUSH2 0x8240 JUMP JUMPDEST DUP1 PUSH1 0x1F ADD PUSH1 0x20 DUP1 SWAP2 DIV MUL PUSH1 0x20 ADD PUSH1 0x40 MLOAD SWAP1 DUP2 ADD PUSH1 0x40 MSTORE DUP1 SWAP3 SWAP2 SWAP1 DUP2 DUP2 MSTORE PUSH1 0x20 ADD DUP3 DUP1 SLOAD PUSH2 0x1D43 SWAP1 PUSH2 0x8240 JUMP JUMPDEST DUP1 ISZERO PUSH2 0x1D90 JUMPI DUP1 PUSH1 0x1F LT PUSH2 0x1D65 JUMPI PUSH2 0x100 DUP1 DUP4 SLOAD DIV MUL DUP4 MSTORE SWAP2 PUSH1 0x20 ADD SWAP2 PUSH2 0x1D90 JUMP JUMPDEST DUP3 ADD SWAP2 SWAP1 PUSH1 0x0 MSTORE PUSH1 0x20 PUSH1 0x0 KECCAK256 SWAP1 JUMPDEST DUP2 SLOAD DUP2 MSTORE SWAP1 PUSH1 0x1 ADD SWAP1 PUSH1 0x20 ADD DUP1 DUP4 GT PUSH2 0x1D73 JUMPI DUP3 SWAP1 SUB PUSH1 0x1F AND DUP3 ADD SWAP2 JUMPDEST POP POP POP POP POP DUP2 MSTORE POP POP DUP2 MSTORE PUSH1 0x20 ADD PUSH1 0x7 DUP3 ADD SLOAD DUP2 MSTORE PUSH1 0x20 ADD PUSH1 0x8 DUP3 ADD DUP1 SLOAD PUSH2 0x1DB7 SWAP1 PUSH2 0x8240 JUMP JUMPDEST DUP1 PUSH1 0x1F ADD PUSH1 0x20 DUP1 SWAP2 DIV MUL PUSH1 0x20 ADD PUSH1 0x40 MLOAD SWAP1 DUP2 ADD PUSH1 0x40 MSTORE DUP1 SWAP3 SWAP2 SWAP1 DUP2 DUP2 MSTORE PUSH1 0x20 ADD DUP3 DUP1 SLOAD PUSH2 0x1DE3 SWAP1 PUSH2 0x8240 JUMP JUMPDEST DUP1 ISZERO PUSH2 0x1E30 JUMPI DUP1 PUSH1 0x1F LT PUSH2 0x1E05 JUMPI PUSH2 0x100 DUP1 DUP4 SLOAD DIV MUL DUP4 MSTORE SWAP2 PUSH1 0x20 ADD SWAP2 PUSH2 0x1E30 JUMP JUMPDEST DUP3 ADD SWAP2 SWAP1 PUSH1 0x0 MSTORE PUSH1 0x20 PUSH1 0x0 KECCAK256 SWAP1 JUMPDEST DUP2 SLOAD DUP2 MSTORE SWAP1 PUSH1 0x1 ADD SWAP1 PUSH1 0x20 ADD DUP1 DUP4 GT PUSH2 0x1E13 JUMPI DUP3 SWAP1 SUB PUSH1 0x1F AND DUP3 ADD SWAP2 JUMPDEST POP POP POP POP POP DUP2 MSTORE PUSH1 0x20 ADD PUSH1 0x9 DUP3 ADD PUSH1 0x0 SWAP1 SLOAD SWAP1 PUSH2 0x100 EXP SWAP1 DIV PUSH1 0xFF AND PUSH1 0xB DUP2 GT ISZERO PUSH2 0x1E5E JUMPI PUSH2 0x1E5D PUSH2 0x834A JUMP JUMPDEST JUMPDEST PUSH1 0xB DUP2 GT ISZERO PUSH2 0x1E70 JUMPI PUSH2 0x1E6F PUSH2 0x834A JUMP JUMPDEST JUMPDEST DUP2 MSTORE PUSH1 0x20 ADD PUSH1 0xA DUP3 ADD SLOAD DUP2 MSTORE POP POP DUP2 MSTORE PUSH1 0x20 ADD SWAP1 PUSH1 0x1 ADD SWAP1 PUSH2 0x1C10 JUMP JUMPDEST POP POP POP POP SWAP1 POP SWAP2 SWAP1 POP JUMP JUMPDEST PUSH2 0x1EA0 PUSH2 0x61D2 JUMP JUMPDEST DUP2 PUSH2 0x1EA9 PUSH2 0x192B JUMP JUMPDEST DUP2 GT ISZERO PUSH2 0x1EEB JUMPI PUSH1 0x40 MLOAD PUSH32 0xD1D89B7400000000000000000000000000000000000000000000000000000000 DUP2 MSTORE PUSH1 0x4 ADD PUSH2 0x1EE2 SWAP1 PUSH2 0x7A5D JUMP JUMPDEST PUSH1 0x40 MLOAD DUP1 SWAP2 SUB SWAP1 REVERT JUMPDEST PUSH2 0x1EF4 DUP4 PUSH2 0x37BC JUMP JUMPDEST SWAP2 POP POP SWAP2 SWAP1 POP JUMP JUMPDEST PUSH1 0x0 PUSH1 0x1 PUSH1 0x0 DUP4 DUP2 MSTORE PUSH1 0x20 ADD SWAP1 DUP2 MSTORE PUSH1 0x20 ADD PUSH1 0x0 KECCAK256 PUSH1 0xD ADD DUP1 SLOAD SWAP1 POP SWAP1 POP SWAP2 SWAP1 POP JUMP JUMPDEST PUSH1 0x0 PUSH1 0x2 PUSH1 0x0 DUP4 PUSH20 0xFFFFFFFFFFFFFFFFFFFFFFFFFFFFFFFFFFFFFFFF AND PUSH20 0xFFFFFFFFFFFFFFFFFFFFFFFFFFFFFFFFFFFFFFFF AND DUP2 MSTORE PUSH1 0x20 ADD SWAP1 DUP2 MSTORE PUSH1 0x20 ADD PUSH1 0x0 KECCAK256 SLOAD SWAP1 POP SWAP2 SWAP1 POP JUMP JUMPDEST PUSH2 0x1F70 PUSH2 0x2416 JUMP JUMPDEST PUSH1 0x0 PUSH20 0xFFFFFFFFFFFFFFFFFFFFFFFFFFFFFFFFFFFFFFFF AND DUP2 PUSH20 0xFFFFFFFFFFFFFFFFFFFFFFFFFFFFFFFFFFFFFFFF AND EQ ISZERO PUSH2 0x1FE0 JUMPI PUSH1 0x40 MLOAD PUSH32 0x8C379A000000000000000000000000000000000000000000000000000000000 DUP2 MSTORE PUSH1 0x4 ADD PUSH2 0x1FD7 SWAP1 PUSH2 0x7A7D JUMP JUMPDEST PUSH1 0x40 MLOAD DUP1 SWAP2 SUB SWAP1 REVERT JUMPDEST PUSH2 0x1FE9 DUP2 PUSH2 0x30CD JUMP JUMPDEST POP JUMP JUMPDEST PUSH1 0x0 PUSH1 0x1 PUSH1 0x0 DUP4 DUP2 MSTORE PUSH1 0x20 ADD SWAP1 DUP2 MSTORE PUSH1 0x20 ADD PUSH1 0x0 KECCAK256 PUSH1 0xE ADD DUP1 SLOAD SWAP1 POP SWAP1 POP SWAP2 SWAP1 POP JUMP JUMPDEST DUP2 PUSH2 0x2018 PUSH2 0x192B JUMP JUMPDEST DUP2 GT ISZERO PUSH2 0x205A JUMPI PUSH1 0x40 MLOAD PUSH32 0xD1D89B7400000000000000000000000000000000000000000000000000000000 DUP2 MSTORE PUSH1 0x4 ADD PUSH2 0x2051 SWAP1 PUSH2 0x7A5D JUMP JUMPDEST PUSH1 0x40 MLOAD DUP1 SWAP2 SUB SWAP1 REVERT JUMPDEST DUP3 PUSH2 0x2064 DUP2 PUSH2 0x17F3 JUMP JUMPDEST PUSH2 0x20A3 JUMPI PUSH1 0x40 MLOAD PUSH32 0xB4644DD900000000000000000000000000000000000000000000000000000000 DUP2 MSTORE PUSH1 0x4 ADD PUSH2 0x209A SWAP1 PUSH2 0x7B79 JUMP JUMPDEST PUSH1 0x40 MLOAD DUP1 SWAP2 SUB SWAP1 REVERT JUMPDEST CALLER PUSH1 0x0 PUSH2 0x20AF DUP3 PUSH2 0x1F1F JUMP JUMPDEST SWAP1 POP PUSH1 0x0 DUP2 GT ISZERO PUSH2 0x20F5 JUMPI PUSH1 0x40 MLOAD PUSH32 0x934F2C300000000000000000000000000000000000000000000000000000000 DUP2 MSTORE PUSH1 0x4 ADD PUSH2 0x20EC SWAP1 PUSH2 0x7B19 JUMP JUMPDEST PUSH1 0x40 MLOAD DUP1 SWAP2 SUB SWAP1 REVERT JUMPDEST PUSH2 0x2100 DUP7 DUP7 CALLER PUSH2 0x46C7 JUMP JUMPDEST PUSH32 0x8E913351AA76002E572CC432B46556976F6E10285B52F94909124EA8EBD0B795 DUP7 DUP7 CALLER PUSH1 0x1 PUSH1 0x40 MLOAD PUSH2 0x2136 SWAP5 SWAP4 SWAP3 SWAP2 SWAP1 PUSH2 0x7CA0 JUMP JUMPDEST PUSH1 0x40 MLOAD DUP1 SWAP2 SUB SWAP1 LOG1 POP POP POP POP POP POP JUMP JUMPDEST PUSH1 0x0 PUSH1 0x1 PUSH1 0x0 DUP4 DUP2 MSTORE PUSH1 0x20 ADD SWAP1 DUP2 MSTORE PUSH1 0x20 ADD PUSH1 0x0 KECCAK256 PUSH1 0x15 ADD PUSH1 0x2 SWAP1 SLOAD SWAP1 PUSH2 0x100 EXP SWAP1 DIV PUSH1 0xFF AND SWAP1 POP SWAP2 SWAP1 POP JUMP JUMPDEST PUSH2 0x217D DUP3 DUP3 PUSH2 0x4B6C JUMP JUMPDEST PUSH32 0x9096640C11BD5636CED741C9725E5FF774B334455C80E15491F15BB3AF0BC265 CALLER DUP4 DUP4 PUSH1 0x40 MLOAD PUSH2 0x21B0 SWAP4 SWAP3 SWAP2 SWAP1 PUSH2 0x793A JUMP JUMPDEST PUSH1 0x40 MLOAD DUP1 SWAP2 SUB SWAP1 LOG1 POP POP JUMP JUMPDEST PUSH1 0x0 PUSH1 0x64 PUSH2 0x21CA DUP5 DUP5 PUSH2 0x4E84 JUMP JUMPDEST PUSH2 0x21D4 SWAP2 SWAP1 PUSH2 0x8088 JUMP JUMPDEST SWAP1 POP SWAP3 SWAP2 POP POP JUMP JUMPDEST PUSH1 0x5 PUSH1 0x1 PUSH1 0x0 DUP4 DUP2 MSTORE PUSH1 0x20 ADD SWAP1 DUP2 MSTORE PUSH1 0x20 ADD PUSH1 0x0 KECCAK256 PUSH1 0x15 ADD PUSH1 0x2 PUSH2 0x100 EXP DUP2 SLOAD DUP2 PUSH1 0xFF MUL NOT AND SWAP1 DUP4 PUSH1 0x6 DUP2 GT ISZERO PUSH2 0x2216 JUMPI PUSH2 0x2215 PUSH2 0x834A JUMP JUMPDEST JUMPDEST MUL OR SWAP1 SSTORE POP PUSH32 0xDEA20A6D822B68D598B7AB4FD45418A7CA7B103F12D300BCC3B56A7B94D9ED33 DUP2 PUSH1 0x5 CALLER PUSH1 0x40 MLOAD PUSH2 0x224F SWAP4 SWAP3 SWAP2 SWAP1 PUSH2 0x7D23 JUMP JUMPDEST PUSH1 0x40 MLOAD DUP1 SWAP2 SUB SWAP1 LOG1 POP JUMP JUMPDEST PUSH1 0x0 DUP3 ISZERO PUSH2 0x22C5 JUMPI PUSH2 0x226F DUP7 DUP7 CALLER DUP8 DUP7 PUSH2 0x4E9A JUMP JUMPDEST PUSH1 0x0 PUSH2 0x227A DUP8 PUSH2 0x12E5 JUMP JUMPDEST SWAP1 POP DUP1 ISZERO PUSH2 0x2293 JUMPI PUSH2 0x228C DUP8 DUP7 PUSH2 0x1209 JUMP JUMPDEST SWAP2 POP PUSH2 0x229F JUMP JUMPDEST PUSH2 0x229C DUP8 PUSH2 0x124D JUMP JUMPDEST SWAP2 POP JUMPDEST PUSH2 0x22BD PUSH8 0xDE0B6B3A7640000 DUP4 PUSH2 0x22B6 SWAP2 SWAP1 PUSH2 0x80B9 JUMP JUMPDEST PUSH1 0x1E PUSH2 0x21BC JUMP JUMPDEST SWAP2 POP POP PUSH2 0x22D7 JUMP JUMPDEST PUSH2 0x22D2 DUP7 DUP7 DUP7 PUSH1 0x1 PUSH2 0x5168 JUMP JUMPDEST PUSH1 0x0 SWAP1 POP JUMPDEST SWAP6 SWAP5 POP POP POP POP POP JUMP JUMPDEST DUP1 PUSH2 0x22E9 PUSH2 0xBBE JUMP JUMPDEST LT ISZERO PUSH2 0x232A JUMPI PUSH1 0x40 MLOAD PUSH32 0x8C379A000000000000000000000000000000000000000000000000000000000 DUP2 MSTORE PUSH1 0x4 ADD PUSH2 0x2321 SWAP1 PUSH2 0x7B59 JUMP JUMPDEST PUSH1 0x40 MLOAD DUP1 SWAP2 SUB SWAP1 REVERT JUMPDEST PUSH1 0x0 DUP3 PUSH20 0xFFFFFFFFFFFFFFFFFFFFFFFFFFFFFFFFFFFFFFFF AND DUP3 PUSH1 0x40 MLOAD PUSH2 0x2350 SWAP1 PUSH2 0x78D3 JUMP JUMPDEST PUSH1 0x0 PUSH1 0x40 MLOAD DUP1 DUP4 SUB DUP2 DUP6 DUP8 GAS CALL SWAP3 POP POP POP RETURNDATASIZE DUP1 PUSH1 0x0 DUP2 EQ PUSH2 0x238D JUMPI PUSH1 0x40 MLOAD SWAP2 POP PUSH1 0x1F NOT PUSH1 0x3F RETURNDATASIZE ADD AND DUP3 ADD PUSH1 0x40 MSTORE RETURNDATASIZE DUP3 MSTORE RETURNDATASIZE PUSH1 0x0 PUSH1 0x20 DUP5 ADD RETURNDATACOPY PUSH2 0x2392 JUMP JUMPDEST PUSH1 0x60 SWAP2 POP JUMPDEST POP POP SWAP1 POP DUP1 PUSH2 0x23D6 JUMPI PUSH1 0x40 MLOAD PUSH32 0x8C379A000000000000000000000000000000000000000000000000000000000 DUP2 MSTORE PUSH1 0x4 ADD PUSH2 0x23CD SWAP1 PUSH2 0x7A3D JUMP JUMPDEST PUSH1 0x40 MLOAD DUP1 SWAP2 SUB SWAP1 REVERT JUMPDEST PUSH32 0xB37BD6F3CCFCE130859D4569DC432409F423A7928E73EB5C5049A94E40F0C648 ADDRESS DUP5 DUP5 PUSH1 0x40 MLOAD PUSH2 0x2409 SWAP4 SWAP3 SWAP2 SWAP1 PUSH2 0x7903 JUMP JUMPDEST PUSH1 0x40 MLOAD DUP1 SWAP2 SUB SWAP1 LOG1 POP POP POP JUMP JUMPDEST PUSH2 0x241E PUSH2 0x5466 JUMP JUMPDEST PUSH20 0xFFFFFFFFFFFFFFFFFFFFFFFFFFFFFFFFFFFFFFFF AND PUSH2 0x243C PUSH2 0x17CA JUMP JUMPDEST PUSH20 0xFFFFFFFFFFFFFFFFFFFFFFFFFFFFFFFFFFFFFFFF AND EQ PUSH2 0x2492 JUMPI PUSH1 0x40 MLOAD PUSH32 0x8C379A000000000000000000000000000000000000000000000000000000000 DUP2 MSTORE PUSH1 0x4 ADD PUSH2 0x2489 SWAP1 PUSH2 0x7B39 JUMP JUMPDEST PUSH1 0x40 MLOAD DUP1 SWAP2 SUB SWAP1 REVERT JUMPDEST JUMP JUMPDEST PUSH1 0x0 PUSH20 0x6CA0189BAF54F88684ED158193021E45745F810E PUSH20 0xFFFFFFFFFFFFFFFFFFFFFFFFFFFFFFFFFFFFFFFF AND PUSH8 0xDE0B6B3A7640000 DUP4 PUSH2 0x24D5 SWAP2 SWAP1 PUSH2 0x80B9 JUMP JUMPDEST PUSH1 0x40 MLOAD PUSH2 0x24E1 SWAP1 PUSH2 0x78D3 JUMP JUMPDEST PUSH1 0x0 PUSH1 0x40 MLOAD DUP1 DUP4 SUB DUP2 DUP6 DUP8 GAS CALL SWAP3 POP POP POP RETURNDATASIZE DUP1 PUSH1 0x0 DUP2 EQ PUSH2 0x251E JUMPI PUSH1 0x40 MLOAD SWAP2 POP PUSH1 0x1F NOT PUSH1 0x3F RETURNDATASIZE ADD AND DUP3 ADD PUSH1 0x40 MSTORE RETURNDATASIZE DUP3 MSTORE RETURNDATASIZE PUSH1 0x0 PUSH1 0x20 DUP5 ADD RETURNDATACOPY PUSH2 0x2523 JUMP JUMPDEST PUSH1 0x60 SWAP2 POP JUMPDEST POP POP SWAP1 POP DUP1 PUSH2 0x2567 JUMPI PUSH1 0x40 MLOAD PUSH32 0x8C379A000000000000000000000000000000000000000000000000000000000 DUP2 MSTORE PUSH1 0x4 ADD PUSH2 0x255E SWAP1 PUSH2 0x7A3D JUMP JUMPDEST PUSH1 0x40 MLOAD DUP1 SWAP2 SUB SWAP1 REVERT JUMPDEST PUSH32 0xB37BD6F3CCFCE130859D4569DC432409F423A7928E73EB5C5049A94E40F0C648 ADDRESS CALLER SELFBALANCE PUSH1 0x40 MLOAD PUSH2 0x259A SWAP4 SWAP3 SWAP2 SWAP1 PUSH2 0x7903 JUMP JUMPDEST PUSH1 0x40 MLOAD DUP1 SWAP2 SUB SWAP1 LOG1 POP POP JUMP JUMPDEST PUSH1 0x0 PUSH1 0x60 PUSH1 0x0 PUSH2 0x25B8 DUP6 DUP6 PUSH1 0x0 PUSH2 0x13F5 JUMP JUMPDEST DUP1 SWAP3 POP DUP2 SWAP4 POP POP POP PUSH1 0x0 DUP3 MLOAD EQ ISZERO PUSH2 0x25D5 JUMPI PUSH1 0x0 SWAP3 POP POP POP PUSH2 0x27A6 JUMP JUMPDEST PUSH2 0x25E4 DUP6 DUP6 DUP5 PUSH1 0x4 PUSH1 0x0 PUSH2 0x546E JUMP JUMPDEST PUSH1 0x0 PUSH2 0x25EF DUP7 PUSH2 0x12E5 JUMP JUMPDEST ISZERO PUSH2 0x266C JUMPI PUSH1 0x0 JUMPDEST DUP4 MLOAD DUP2 LT ISZERO PUSH2 0x2666 JUMPI PUSH2 0x2609 DUP8 PUSH2 0x37BC JUMP JUMPDEST PUSH2 0x1C0 ADD MLOAD DUP5 DUP3 DUP2 MLOAD DUP2 LT PUSH2 0x2621 JUMPI PUSH2 0x2620 PUSH2 0x83A8 JUMP JUMPDEST JUMPDEST PUSH1 0x20 MUL PUSH1 0x20 ADD ADD MLOAD DUP2 MLOAD DUP2 LT PUSH2 0x263A JUMPI PUSH2 0x2639 PUSH2 0x83A8 JUMP JUMPDEST JUMPDEST PUSH1 0x20 MUL PUSH1 0x20 ADD ADD MLOAD PUSH1 0x20 ADD MLOAD DUP3 PUSH2 0x2651 SWAP2 SWAP1 PUSH2 0x8032 JUMP JUMPDEST SWAP2 POP DUP1 DUP1 PUSH2 0x265E SWAP1 PUSH2 0x82A3 JUMP JUMPDEST SWAP2 POP POP PUSH2 0x25F7 JUMP JUMPDEST POP PUSH2 0x267D JUMP JUMPDEST PUSH2 0x2675 DUP7 PUSH2 0x37BC JUMP JUMPDEST PUSH2 0x180 ADD MLOAD SWAP1 POP JUMPDEST PUSH1 0x0 PUSH20 0x0 PUSH4 0x4F6CA3CE PUSH2 0x26A2 DUP5 PUSH2 0x30A5 JUMP JUMPDEST PUSH1 0x40 MLOAD DUP3 PUSH4 0xFFFFFFFF AND PUSH1 0xE0 SHL DUP2 MSTORE PUSH1 0x4 ADD PUSH2 0x26BE SWAP2 SWAP1 PUSH2 0x7C09 JUMP JUMPDEST PUSH1 0x20 PUSH1 0x40 MLOAD DUP1 DUP4 SUB DUP2 DUP7 DUP1 EXTCODESIZE ISZERO DUP1 ISZERO PUSH2 0x26D6 JUMPI PUSH1 0x0 DUP1 REVERT JUMPDEST POP GAS DELEGATECALL ISZERO DUP1 ISZERO PUSH2 0x26EA JUMPI RETURNDATASIZE PUSH1 0x0 DUP1 RETURNDATACOPY RETURNDATASIZE PUSH1 0x0 REVERT JUMPDEST POP POP POP POP PUSH1 0x40 MLOAD RETURNDATASIZE PUSH1 0x1F NOT PUSH1 0x1F DUP3 ADD AND DUP3 ADD DUP1 PUSH1 0x40 MSTORE POP DUP2 ADD SWAP1 PUSH2 0x270E SWAP2 SWAP1 PUSH2 0x6A38 JUMP JUMPDEST SWAP1 POP PUSH1 0x0 PUSH20 0x0 PUSH4 0x9CE5C4BF DUP6 DUP5 PUSH1 0x40 MLOAD DUP4 PUSH4 0xFFFFFFFF AND PUSH1 0xE0 SHL DUP2 MSTORE PUSH1 0x4 ADD PUSH2 0x274B SWAP3 SWAP2 SWAP1 PUSH2 0x7D5A JUMP JUMPDEST PUSH1 0x20 PUSH1 0x40 MLOAD DUP1 DUP4 SUB DUP2 DUP7 DUP1 EXTCODESIZE ISZERO DUP1 ISZERO PUSH2 0x2763 JUMPI PUSH1 0x0 DUP1 REVERT JUMPDEST POP GAS DELEGATECALL ISZERO DUP1 ISZERO PUSH2 0x2777 JUMPI RETURNDATASIZE PUSH1 0x0 DUP1 RETURNDATACOPY RETURNDATASIZE PUSH1 0x0 REVERT JUMPDEST POP POP POP POP PUSH1 0x40 MLOAD RETURNDATASIZE PUSH1 0x1F NOT PUSH1 0x1F DUP3 ADD AND DUP3 ADD DUP1 PUSH1 0x40 MSTORE POP DUP2 ADD SWAP1 PUSH2 0x279B SWAP2 SWAP1 PUSH2 0x6A38 JUMP JUMPDEST SWAP1 POP DUP1 SWAP6 POP POP POP POP POP POP JUMPDEST SWAP3 SWAP2 POP POP JUMP JUMPDEST DUP1 PUSH1 0x2 PUSH1 0x0 DUP5 PUSH20 0xFFFFFFFFFFFFFFFFFFFFFFFFFFFFFFFFFFFFFFFF AND PUSH20 0xFFFFFFFFFFFFFFFFFFFFFFFFFFFFFFFFFFFFFFFF AND DUP2 MSTORE PUSH1 0x20 ADD SWAP1 DUP2 MSTORE PUSH1 0x20 ADD PUSH1 0x0 KECCAK256 PUSH1 0x0 DUP3 DUP3 SLOAD PUSH2 0x27FB SWAP2 SWAP1 PUSH2 0x8032 JUMP JUMPDEST SWAP3 POP POP DUP2 SWAP1 SSTORE POP POP POP JUMP JUMPDEST PUSH1 0x0 PUSH1 0x1 PUSH1 0x0 DUP6 DUP2 MSTORE PUSH1 0x20 ADD SWAP1 DUP2 MSTORE PUSH1 0x20 ADD PUSH1 0x0 KECCAK256 PUSH1 0x10 ADD PUSH1 0x0 DUP4 PUSH20 0xFFFFFFFFFFFFFFFFFFFFFFFFFFFFFFFFFFFFFFFF AND PUSH20 0xFFFFFFFFFFFFFFFFFFFFFFFFFFFFFFFFFFFFFFFF AND DUP2 MSTORE PUSH1 0x20 ADD SWAP1 DUP2 MSTORE PUSH1 0x20 ADD PUSH1 0x0 KECCAK256 SWAP1 POP PUSH1 0x0 DUP2 PUSH1 0x0 ADD DUP1 SLOAD SWAP1 POP EQ ISZERO PUSH2 0x28E5 JUMPI PUSH1 0x1 PUSH1 0x0 DUP6 DUP2 MSTORE PUSH1 0x20 ADD SWAP1 DUP2 MSTORE PUSH1 0x20 ADD PUSH1 0x0 KECCAK256 PUSH1 0xE ADD DUP3 SWAP1 DUP1 PUSH1 0x1 DUP2 SLOAD ADD DUP1 DUP3 SSTORE DUP1 SWAP2 POP POP PUSH1 0x1 SWAP1 SUB SWAP1 PUSH1 0x0 MSTORE PUSH1 0x20 PUSH1 0x0 KECCAK256 ADD PUSH1 0x0 SWAP1 SWAP2 SWAP1 SWAP2 SWAP1 SWAP2 PUSH2 0x100 EXP DUP2 SLOAD DUP2 PUSH20 0xFFFFFFFFFFFFFFFFFFFFFFFFFFFFFFFFFFFFFFFF MUL NOT AND SWAP1 DUP4 PUSH20 0xFFFFFFFFFFFFFFFFFFFFFFFFFFFFFFFFFFFFFFFF AND MUL OR SWAP1 SSTORE POP JUMPDEST PUSH1 0x0 DUP1 PUSH1 0x0 SWAP1 POP JUMPDEST DUP5 MLOAD DUP2 LT ISZERO PUSH2 0x2BFA JUMPI PUSH1 0x1 PUSH1 0x0 DUP8 DUP2 MSTORE PUSH1 0x20 ADD SWAP1 DUP2 MSTORE PUSH1 0x20 ADD PUSH1 0x0 KECCAK256 PUSH1 0xC ADD DUP6 DUP3 DUP2 MLOAD DUP2 LT PUSH2 0x291F JUMPI PUSH2 0x291E PUSH2 0x83A8 JUMP JUMPDEST JUMPDEST PUSH1 0x20 MUL PUSH1 0x20 ADD ADD MLOAD DUP2 SLOAD DUP2 LT PUSH2 0x2938 JUMPI PUSH2 0x2937 PUSH2 0x83A8 JUMP JUMPDEST JUMPDEST SWAP1 PUSH1 0x0 MSTORE PUSH1 0x20 PUSH1 0x0 KECCAK256 SWAP1 PUSH1 0xB MUL ADD PUSH1 0x9 ADD PUSH1 0x0 SWAP1 SLOAD SWAP1 PUSH2 0x100 EXP SWAP1 DIV PUSH1 0xFF AND SWAP2 POP PUSH1 0x0 PUSH1 0xB DUP2 GT ISZERO PUSH2 0x296D JUMPI PUSH2 0x296C PUSH2 0x834A JUMP JUMPDEST JUMPDEST DUP3 PUSH1 0xB DUP2 GT ISZERO PUSH2 0x2980 JUMPI PUSH2 0x297F PUSH2 0x834A JUMP JUMPDEST JUMPDEST EQ ISZERO PUSH2 0x2A5E JUMPI PUSH1 0x1 DUP1 PUSH1 0x0 DUP9 DUP2 MSTORE PUSH1 0x20 ADD SWAP1 DUP2 MSTORE PUSH1 0x20 ADD PUSH1 0x0 KECCAK256 PUSH1 0xC ADD DUP7 DUP4 DUP2 MLOAD DUP2 LT PUSH2 0x29B0 JUMPI PUSH2 0x29AF PUSH2 0x83A8 JUMP JUMPDEST JUMPDEST PUSH1 0x20 MUL PUSH1 0x20 ADD ADD MLOAD DUP2 SLOAD DUP2 LT PUSH2 0x29C9 JUMPI PUSH2 0x29C8 PUSH2 0x83A8 JUMP JUMPDEST JUMPDEST SWAP1 PUSH1 0x0 MSTORE PUSH1 0x20 PUSH1 0x0 KECCAK256 SWAP1 PUSH1 0xB MUL ADD PUSH1 0x9 ADD PUSH1 0x0 PUSH2 0x100 EXP DUP2 SLOAD DUP2 PUSH1 0xFF MUL NOT AND SWAP1 DUP4 PUSH1 0xB DUP2 GT ISZERO PUSH2 0x29FC JUMPI PUSH2 0x29FB PUSH2 0x834A JUMP JUMPDEST JUMPDEST MUL OR SWAP1 SSTORE POP PUSH32 0x188FFF7234F3BB35C4F436313EC14267725515E4CA367843CD416621A72FB8A3 DUP7 DUP7 DUP4 DUP2 MLOAD DUP2 LT PUSH2 0x2A36 JUMPI PUSH2 0x2A35 PUSH2 0x83A8 JUMP JUMPDEST JUMPDEST PUSH1 0x20 MUL PUSH1 0x20 ADD ADD MLOAD PUSH1 0x1 CALLER PUSH1 0x40 MLOAD PUSH2 0x2A51 SWAP5 SWAP4 SWAP3 SWAP2 SWAP1 PUSH2 0x7DC8 JUMP JUMPDEST PUSH1 0x40 MLOAD DUP1 SWAP2 SUB SWAP1 LOG1 PUSH2 0x2BA2 JUMP JUMPDEST PUSH1 0x2 PUSH1 0xB DUP2 GT ISZERO PUSH2 0x2A72 JUMPI PUSH2 0x2A71 PUSH2 0x834A JUMP JUMPDEST JUMPDEST DUP3 PUSH1 0xB DUP2 GT ISZERO PUSH2 0x2A85 JUMPI PUSH2 0x2A84 PUSH2 0x834A JUMP JUMPDEST JUMPDEST EQ ISZERO PUSH2 0x2B64 JUMPI PUSH1 0x3 PUSH1 0x1 PUSH1 0x0 DUP9 DUP2 MSTORE PUSH1 0x20 ADD SWAP1 DUP2 MSTORE PUSH1 0x20 ADD PUSH1 0x0 KECCAK256 PUSH1 0xC ADD DUP7 DUP4 DUP2 MLOAD DUP2 LT PUSH2 0x2AB6 JUMPI PUSH2 0x2AB5 PUSH2 0x83A8 JUMP JUMPDEST JUMPDEST PUSH1 0x20 MUL PUSH1 0x20 ADD ADD MLOAD DUP2 SLOAD DUP2 LT PUSH2 0x2ACF JUMPI PUSH2 0x2ACE PUSH2 0x83A8 JUMP JUMPDEST JUMPDEST SWAP1 PUSH1 0x0 MSTORE PUSH1 0x20 PUSH1 0x0 KECCAK256 SWAP1 PUSH1 0xB MUL ADD PUSH1 0x9 ADD PUSH1 0x0 PUSH2 0x100 EXP DUP2 SLOAD DUP2 PUSH1 0xFF MUL NOT AND SWAP1 DUP4 PUSH1 0xB DUP2 GT ISZERO PUSH2 0x2B02 JUMPI PUSH2 0x2B01 PUSH2 0x834A JUMP JUMPDEST JUMPDEST MUL OR SWAP1 SSTORE POP PUSH32 0x188FFF7234F3BB35C4F436313EC14267725515E4CA367843CD416621A72FB8A3 DUP7 DUP7 DUP4 DUP2 MLOAD DUP2 LT PUSH2 0x2B3C JUMPI PUSH2 0x2B3B PUSH2 0x83A8 JUMP JUMPDEST JUMPDEST PUSH1 0x20 MUL PUSH1 0x20 ADD ADD MLOAD PUSH1 0x3 CALLER PUSH1 0x40 MLOAD PUSH2 0x2B57 SWAP5 SWAP4 SWAP3 SWAP2 SWAP1 PUSH2 0x7DC8 JUMP JUMPDEST PUSH1 0x40 MLOAD DUP1 SWAP2 SUB SWAP1 LOG1 PUSH2 0x2BA1 JUMP JUMPDEST DUP2 PUSH1 0x40 MLOAD PUSH32 0xCDEC874A00000000000000000000000000000000000000000000000000000000 DUP2 MSTORE PUSH1 0x4 ADD PUSH2 0x2B98 SWAP2 SWAP1 PUSH2 0x7B99 JUMP JUMPDEST PUSH1 0x40 MLOAD DUP1 SWAP2 SUB SWAP1 REVERT JUMPDEST JUMPDEST DUP3 PUSH1 0x0 ADD DUP6 DUP3 DUP2 MLOAD DUP2 LT PUSH2 0x2BB9 JUMPI PUSH2 0x2BB8 PUSH2 0x83A8 JUMP JUMPDEST JUMPDEST PUSH1 0x20 MUL PUSH1 0x20 ADD ADD MLOAD SWAP1 DUP1 PUSH1 0x1 DUP2 SLOAD ADD DUP1 DUP3 SSTORE DUP1 SWAP2 POP POP PUSH1 0x1 SWAP1 SUB SWAP1 PUSH1 0x0 MSTORE PUSH1 0x20 PUSH1 0x0 KECCAK256 ADD PUSH1 0x0 SWAP1 SWAP2 SWAP1 SWAP2 SWAP1 SWAP2 POP SSTORE DUP1 DUP1 PUSH2 0x2BF2 SWAP1 PUSH2 0x82A3 JUMP JUMPDEST SWAP2 POP POP PUSH2 0x28ED JUMP JUMPDEST POP PUSH1 0x1 PUSH1 0x0 DUP7 DUP2 MSTORE PUSH1 0x20 ADD SWAP1 DUP2 MSTORE PUSH1 0x20 ADD PUSH1 0x0 KECCAK256 PUSH1 0x14 ADD PUSH1 0x0 DUP2 SLOAD DUP1 SWAP3 SWAP2 SWAP1 PUSH2 0x2C22 SWAP1 PUSH2 0x82A3 JUMP JUMPDEST SWAP2 SWAP1 POP SSTORE POP PUSH2 0x2C32 DUP6 PUSH1 0x0 PUSH2 0x1324 JUMP JUMPDEST ISZERO PUSH2 0x2CA3 JUMPI PUSH1 0x0 PUSH1 0x1 PUSH1 0x0 DUP8 DUP2 MSTORE PUSH1 0x20 ADD SWAP1 DUP2 MSTORE PUSH1 0x20 ADD PUSH1 0x0 KECCAK256 PUSH1 0x15 ADD PUSH1 0x1 PUSH2 0x100 EXP DUP2 SLOAD DUP2 PUSH1 0xFF MUL NOT AND SWAP1 DUP4 ISZERO ISZERO MUL OR SWAP1 SSTORE POP PUSH32 0x89BB035780742B4FE520972847D93DB0618ABD46516AF218E10FD3479347B7E4 DUP6 PUSH1 0x0 CALLER PUSH1 0x40 MLOAD PUSH2 0x2C9A SWAP4 SWAP3 SWAP2 SWAP1 PUSH2 0x7CEC JUMP JUMPDEST PUSH1 0x40 MLOAD DUP1 SWAP2 SUB SWAP1 LOG1 JUMPDEST POP POP POP POP POP JUMP JUMPDEST DUP1 PUSH1 0x2 PUSH1 0x0 DUP5 PUSH20 0xFFFFFFFFFFFFFFFFFFFFFFFFFFFFFFFFFFFFFFFF AND PUSH20 0xFFFFFFFFFFFFFFFFFFFFFFFFFFFFFFFFFFFFFFFF AND DUP2 MSTORE PUSH1 0x20 ADD SWAP1 DUP2 MSTORE PUSH1 0x20 ADD PUSH1 0x0 KECCAK256 PUSH1 0x0 DUP3 DUP3 SLOAD PUSH2 0x2CF9 SWAP2 SWAP1 PUSH2 0x8113 JUMP JUMPDEST SWAP3 POP POP DUP2 SWAP1 SSTORE POP POP POP JUMP JUMPDEST PUSH1 0x0 PUSH1 0x14 SWAP1 SLOAD SWAP1 PUSH2 0x100 EXP SWAP1 DIV PUSH1 0xFF AND ISZERO PUSH2 0x2D54 JUMPI PUSH1 0x40 MLOAD PUSH32 0x8C379A000000000000000000000000000000000000000000000000000000000 DUP2 MSTORE PUSH1 0x4 ADD PUSH2 0x2D4B SWAP1 PUSH2 0x7A9D JUMP JUMPDEST PUSH1 0x40 MLOAD DUP1 SWAP2 SUB SWAP1 REVERT JUMPDEST PUSH1 0x1 PUSH1 0x0 PUSH1 0x14 PUSH2 0x100 EXP DUP2 SLOAD DUP2 PUSH1 0xFF MUL NOT AND SWAP1 DUP4 ISZERO ISZERO MUL OR SWAP1 SSTORE POP PUSH1 0x0 DUP3 PUSH20 0xFFFFFFFFFFFFFFFFFFFFFFFFFFFFFFFFFFFFFFFF AND DUP3 PUSH1 0x40 MLOAD PUSH2 0x2D95 SWAP1 PUSH2 0x78D3 JUMP JUMPDEST PUSH1 0x0 PUSH1 0x40 MLOAD DUP1 DUP4 SUB DUP2 DUP6 DUP8 GAS CALL SWAP3 POP POP POP RETURNDATASIZE DUP1 PUSH1 0x0 DUP2 EQ PUSH2 0x2DD2 JUMPI PUSH1 0x40 MLOAD SWAP2 POP PUSH1 0x1F NOT PUSH1 0x3F RETURNDATASIZE ADD AND DUP3 ADD PUSH1 0x40 MSTORE RETURNDATASIZE DUP3 MSTORE RETURNDATASIZE PUSH1 0x0 PUSH1 0x20 DUP5 ADD RETURNDATACOPY PUSH2 0x2DD7 JUMP JUMPDEST PUSH1 0x60 SWAP2 POP JUMPDEST POP POP SWAP1 POP DUP1 PUSH2 0x2E1B JUMPI PUSH1 0x40 MLOAD PUSH32 0x8C379A000000000000000000000000000000000000000000000000000000000 DUP2 MSTORE PUSH1 0x4 ADD PUSH2 0x2E12 SWAP1 PUSH2 0x7A3D JUMP JUMPDEST PUSH1 0x40 MLOAD DUP1 SWAP2 SUB SWAP1 REVERT JUMPDEST PUSH32 0xB37BD6F3CCFCE130859D4569DC432409F423A7928E73EB5C5049A94E40F0C648 CALLER DUP5 DUP5 PUSH1 0x40 MLOAD PUSH2 0x2E4E SWAP4 SWAP3 SWAP2 SWAP1 PUSH2 0x7903 JUMP JUMPDEST PUSH1 0x40 MLOAD DUP1 SWAP2 SUB SWAP1 LOG1 POP PUSH1 0x0 DUP1 PUSH1 0x14 PUSH2 0x100 EXP DUP2 SLOAD DUP2 PUSH1 0xFF MUL NOT AND SWAP1 DUP4 ISZERO ISZERO MUL OR SWAP1 SSTORE POP POP POP JUMP JUMPDEST PUSH1 0x0 PUSH1 0x60 PUSH1 0x0 PUSH2 0x2E87 DUP6 DUP6 PUSH1 0x1 PUSH2 0x13F5 JUMP JUMPDEST DUP1 SWAP3 POP DUP2 SWAP4 POP POP POP PUSH1 0x0 DUP3 MLOAD EQ ISZERO PUSH2 0x2EA4 JUMPI PUSH1 0x0 SWAP3 POP POP POP PUSH2 0x3075 JUMP JUMPDEST PUSH2 0x2EB3 DUP6 DUP6 DUP5 PUSH1 0x4 PUSH1 0x1 PUSH2 0x546E JUMP JUMPDEST PUSH1 0x0 PUSH2 0x2EBE DUP7 PUSH2 0x12E5 JUMP JUMPDEST ISZERO PUSH2 0x2F3B JUMPI PUSH1 0x0 JUMPDEST DUP4 MLOAD DUP2 LT ISZERO PUSH2 0x2F35 JUMPI PUSH2 0x2ED8 DUP8 PUSH2 0x37BC JUMP JUMPDEST PUSH2 0x1C0 ADD MLOAD DUP5 DUP3 DUP2 MLOAD DUP2 LT PUSH2 0x2EF0 JUMPI PUSH2 0x2EEF PUSH2 0x83A8 JUMP JUMPDEST JUMPDEST PUSH1 0x20 MUL PUSH1 0x20 ADD ADD MLOAD DUP2 MLOAD DUP2 LT PUSH2 0x2F09 JUMPI PUSH2 0x2F08 PUSH2 0x83A8 JUMP JUMPDEST JUMPDEST PUSH1 0x20 MUL PUSH1 0x20 ADD ADD MLOAD PUSH1 0x20 ADD MLOAD DUP3 PUSH2 0x2F20 SWAP2 SWAP1 PUSH2 0x8032 JUMP JUMPDEST SWAP2 POP DUP1 DUP1 PUSH2 0x2F2D SWAP1 PUSH2 0x82A3 JUMP JUMPDEST SWAP2 POP POP PUSH2 0x2EC6 JUMP JUMPDEST POP PUSH2 0x2F4C JUMP JUMPDEST PUSH2 0x2F44 DUP7 PUSH2 0x37BC JUMP JUMPDEST PUSH2 0x180 ADD MLOAD SWAP1 POP JUMPDEST PUSH1 0x0 PUSH20 0x0 PUSH4 0x4F6CA3CE PUSH2 0x2F71 DUP5 PUSH2 0x56D1 JUMP JUMPDEST PUSH1 0x40 MLOAD DUP3 PUSH4 0xFFFFFFFF AND PUSH1 0xE0 SHL DUP2 MSTORE PUSH1 0x4 ADD PUSH2 0x2F8D SWAP2 SWAP1 PUSH2 0x7C09 JUMP JUMPDEST PUSH1 0x20 PUSH1 0x40 MLOAD DUP1 DUP4 SUB DUP2 DUP7 DUP1 EXTCODESIZE ISZERO DUP1 ISZERO PUSH2 0x2FA5 JUMPI PUSH1 0x0 DUP1 REVERT JUMPDEST POP GAS DELEGATECALL ISZERO DUP1 ISZERO PUSH2 0x2FB9 JUMPI RETURNDATASIZE PUSH1 0x0 DUP1 RETURNDATACOPY RETURNDATASIZE PUSH1 0x0 REVERT JUMPDEST POP POP POP POP PUSH1 0x40 MLOAD RETURNDATASIZE PUSH1 0x1F NOT PUSH1 0x1F DUP3 ADD AND DUP3 ADD DUP1 PUSH1 0x40 MSTORE POP DUP2 ADD SWAP1 PUSH2 0x2FDD SWAP2 SWAP1 PUSH2 0x6A38 JUMP JUMPDEST SWAP1 POP PUSH1 0x0 PUSH20 0x0 PUSH4 0x9CE5C4BF DUP6 DUP5 PUSH1 0x40 MLOAD DUP4 PUSH4 0xFFFFFFFF AND PUSH1 0xE0 SHL DUP2 MSTORE PUSH1 0x4 ADD PUSH2 0x301A SWAP3 SWAP2 SWAP1 PUSH2 0x7D5A JUMP JUMPDEST PUSH1 0x20 PUSH1 0x40 MLOAD DUP1 DUP4 SUB DUP2 DUP7 DUP1 EXTCODESIZE ISZERO DUP1 ISZERO PUSH2 0x3032 JUMPI PUSH1 0x0 DUP1 REVERT JUMPDEST POP GAS DELEGATECALL ISZERO DUP1 ISZERO PUSH2 0x3046 JUMPI RETURNDATASIZE PUSH1 0x0 DUP1 RETURNDATACOPY RETURNDATASIZE PUSH1 0x0 REVERT JUMPDEST POP POP POP POP PUSH1 0x40 MLOAD RETURNDATASIZE PUSH1 0x1F NOT PUSH1 0x1F DUP3 ADD AND DUP3 ADD DUP1 PUSH1 0x40 MSTORE POP DUP2 ADD SWAP1 PUSH2 0x306A SWAP2 SWAP1 PUSH2 0x6A38 JUMP JUMPDEST SWAP1 POP DUP1 SWAP6 POP POP POP POP POP POP JUMPDEST SWAP3 SWAP2 POP POP JUMP JUMPDEST DUP1 ISZERO PUSH2 0x3091 JUMPI PUSH2 0x308C DUP5 DUP5 DUP5 PUSH2 0x56E5 JUMP JUMPDEST PUSH2 0x309F JUMP JUMPDEST PUSH2 0x309E DUP5 DUP5 DUP5 PUSH1 0x0 PUSH2 0x5168 JUMP JUMPDEST JUMPDEST POP POP POP POP JUMP JUMPDEST PUSH1 0x0 PUSH2 0x30B2 DUP3 PUSH1 0x24 PUSH2 0x21BC JUMP JUMPDEST SWAP1 POP SWAP2 SWAP1 POP JUMP JUMPDEST PUSH1 0x0 PUSH2 0x30C6 DUP3 PUSH1 0x18 PUSH2 0x21BC JUMP JUMPDEST SWAP1 POP SWAP2 SWAP1 POP JUMP JUMPDEST PUSH1 0x0 DUP1 PUSH1 0x0 SWAP1 SLOAD SWAP1 PUSH2 0x100 EXP SWAP1 DIV PUSH20 0xFFFFFFFFFFFFFFFFFFFFFFFFFFFFFFFFFFFFFFFF AND SWAP1 POP DUP2 PUSH1 0x0 DUP1 PUSH2 0x100 EXP DUP2 SLOAD DUP2 PUSH20 0xFFFFFFFFFFFFFFFFFFFFFFFFFFFFFFFFFFFFFFFF MUL NOT AND SWAP1 DUP4 PUSH20 0xFFFFFFFFFFFFFFFFFFFFFFFFFFFFFFFFFFFFFFFF AND MUL OR SWAP1 SSTORE POP DUP2 PUSH20 0xFFFFFFFFFFFFFFFFFFFFFFFFFFFFFFFFFFFFFFFF AND DUP2 PUSH20 0xFFFFFFFFFFFFFFFFFFFFFFFFFFFFFFFFFFFFFFFF AND PUSH32 0x8BE0079C531659141344CD1FD0A4F28419497F9722A3DAAFE3B4186F6B6457E0 PUSH1 0x40 MLOAD PUSH1 0x40 MLOAD DUP1 SWAP2 SUB SWAP1 LOG3 POP POP JUMP JUMPDEST PUSH1 0x0 PUSH20 0x6CA0189BAF54F88684ED158193021E45745F810E PUSH20 0xFFFFFFFFFFFFFFFFFFFFFFFFFFFFFFFFFFFFFFFF AND SELFBALANCE PUSH1 0x40 MLOAD PUSH2 0x31CB SWAP1 PUSH2 0x78D3 JUMP JUMPDEST PUSH1 0x0 PUSH1 0x40 MLOAD DUP1 DUP4 SUB DUP2 DUP6 DUP8 GAS CALL SWAP3 POP POP POP RETURNDATASIZE DUP1 PUSH1 0x0 DUP2 EQ PUSH2 0x3208 JUMPI PUSH1 0x40 MLOAD SWAP2 POP PUSH1 0x1F NOT PUSH1 0x3F RETURNDATASIZE ADD AND DUP3 ADD PUSH1 0x40 MSTORE RETURNDATASIZE DUP3 MSTORE RETURNDATASIZE PUSH1 0x0 PUSH1 0x20 DUP5 ADD RETURNDATACOPY PUSH2 0x320D JUMP JUMPDEST PUSH1 0x60 SWAP2 POP JUMPDEST POP POP SWAP1 POP DUP1 PUSH2 0x3251 JUMPI PUSH1 0x40 MLOAD PUSH32 0x8C379A000000000000000000000000000000000000000000000000000000000 DUP2 MSTORE PUSH1 0x4 ADD PUSH2 0x3248 SWAP1 PUSH2 0x7A3D JUMP JUMPDEST PUSH1 0x40 MLOAD DUP1 SWAP2 SUB SWAP1 REVERT JUMPDEST PUSH32 0xB37BD6F3CCFCE130859D4569DC432409F423A7928E73EB5C5049A94E40F0C648 ADDRESS CALLER SELFBALANCE PUSH1 0x40 MLOAD PUSH2 0x3284 SWAP4 SWAP3 SWAP2 SWAP1 PUSH2 0x7903 JUMP JUMPDEST PUSH1 0x40 MLOAD DUP1 SWAP2 SUB SWAP1 LOG1 POP JUMP JUMPDEST PUSH1 0x0 DUP1 PUSH2 0x329B DUP4 PUSH2 0x1EFC JUMP JUMPDEST SWAP1 POP PUSH1 0x0 PUSH2 0x32A8 DUP5 PUSH2 0x1BD8 JUMP JUMPDEST SWAP1 POP PUSH2 0x32B5 DUP5 PUSH1 0x1 PUSH2 0x1324 JUMP JUMPDEST ISZERO PUSH2 0x32C5 JUMPI PUSH1 0x1 SWAP3 POP POP POP PUSH2 0x345D JUMP JUMPDEST PUSH1 0x0 DUP3 EQ ISZERO PUSH2 0x32E2 JUMPI PUSH2 0x32D7 DUP5 PUSH2 0x5860 JUMP JUMPDEST PUSH1 0x0 SWAP3 POP POP POP PUSH2 0x345D JUMP JUMPDEST PUSH1 0x0 DUP2 MLOAD SWAP1 POP PUSH1 0x0 DUP4 SWAP1 POP PUSH1 0x0 DUP2 DUP4 PUSH2 0x32FB SWAP2 SWAP1 PUSH2 0x8088 JUMP JUMPDEST SWAP1 POP PUSH1 0x0 PUSH2 0x3308 DUP9 PUSH2 0x182E JUMP JUMPDEST SWAP1 POP PUSH1 0x0 JUMPDEST DUP6 MLOAD DUP2 LT ISZERO PUSH2 0x3448 JUMPI PUSH1 0x0 PUSH1 0xB DUP2 GT ISZERO PUSH2 0x332A JUMPI PUSH2 0x3329 PUSH2 0x834A JUMP JUMPDEST JUMPDEST DUP7 DUP3 DUP2 MLOAD DUP2 LT PUSH2 0x333D JUMPI PUSH2 0x333C PUSH2 0x83A8 JUMP JUMPDEST JUMPDEST PUSH1 0x20 MUL PUSH1 0x20 ADD ADD MLOAD PUSH1 0x60 ADD MLOAD PUSH1 0xB DUP2 GT ISZERO PUSH2 0x335B JUMPI PUSH2 0x335A PUSH2 0x834A JUMP JUMPDEST JUMPDEST EQ ISZERO PUSH2 0x3435 JUMPI PUSH1 0x0 JUMPDEST DUP8 DUP2 LT ISZERO PUSH2 0x3433 JUMPI DUP4 PUSH2 0x3391 DUP12 DUP6 DUP5 DUP2 MLOAD DUP2 LT PUSH2 0x3384 JUMPI PUSH2 0x3383 PUSH2 0x83A8 JUMP JUMPDEST JUMPDEST PUSH1 0x20 MUL PUSH1 0x20 ADD ADD MLOAD PUSH2 0xB5A JUMP JUMPDEST GT ISZERO PUSH2 0x339C JUMPI PUSH2 0x3420 JUMP JUMPDEST PUSH2 0x33C3 DUP11 DUP4 DUP6 DUP5 DUP2 MLOAD DUP2 LT PUSH2 0x33B4 JUMPI PUSH2 0x33B3 PUSH2 0x83A8 JUMP JUMPDEST JUMPDEST PUSH1 0x20 MUL PUSH1 0x20 ADD ADD MLOAD PUSH1 0x1 PUSH2 0x58CE JUMP JUMPDEST PUSH32 0xAD65127436138B4AFE97EF23BAF28ED14A5FB09500AD117EB196CD3BDB3DBE9F DUP11 DUP4 DUP6 DUP5 DUP2 MLOAD DUP2 LT PUSH2 0x33F9 JUMPI PUSH2 0x33F8 PUSH2 0x83A8 JUMP JUMPDEST JUMPDEST PUSH1 0x20 MUL PUSH1 0x20 ADD ADD MLOAD PUSH1 0x1 PUSH1 0x40 MLOAD PUSH2 0x3413 SWAP5 SWAP4 SWAP3 SWAP2 SWAP1 PUSH2 0x7D83 JUMP JUMPDEST PUSH1 0x40 MLOAD DUP1 SWAP2 SUB SWAP1 LOG1 PUSH2 0x3433 JUMP JUMPDEST DUP1 DUP1 PUSH2 0x342B SWAP1 PUSH2 0x82A3 JUMP JUMPDEST SWAP2 POP POP PUSH2 0x3364 JUMP JUMPDEST POP JUMPDEST DUP1 DUP1 PUSH2 0x3440 SWAP1 PUSH2 0x82A3 JUMP JUMPDEST SWAP2 POP POP PUSH2 0x330D JUMP JUMPDEST POP PUSH2 0x3452 DUP9 PUSH2 0x5860 JUMP JUMPDEST PUSH1 0x0 SWAP7 POP POP POP POP POP POP POP JUMPDEST SWAP2 SWAP1 POP JUMP JUMPDEST PUSH1 0xB PUSH1 0x1 PUSH1 0x0 DUP5 DUP2 MSTORE PUSH1 0x20 ADD SWAP1 DUP2 MSTORE PUSH1 0x20 ADD PUSH1 0x0 KECCAK256 PUSH1 0xC ADD DUP3 DUP2 SLOAD DUP2 LT PUSH2 0x348C JUMPI PUSH2 0x348B PUSH2 0x83A8 JUMP JUMPDEST JUMPDEST SWAP1 PUSH1 0x0 MSTORE PUSH1 0x20 PUSH1 0x0 KECCAK256 SWAP1 PUSH1 0xB MUL ADD PUSH1 0x9 ADD PUSH1 0x0 PUSH2 0x100 EXP DUP2 SLOAD DUP2 PUSH1 0xFF MUL NOT AND SWAP1 DUP4 PUSH1 0xB DUP2 GT ISZERO PUSH2 0x34BF JUMPI PUSH2 0x34BE PUSH2 0x834A JUMP JUMPDEST JUMPDEST MUL OR SWAP1 SSTORE POP PUSH32 0x188FFF7234F3BB35C4F436313EC14267725515E4CA367843CD416621A72FB8A3 DUP3 DUP3 PUSH1 0xB CALLER PUSH1 0x40 MLOAD PUSH2 0x34FA SWAP5 SWAP4 SWAP3 SWAP2 SWAP1 PUSH2 0x7DC8 JUMP JUMPDEST PUSH1 0x40 MLOAD DUP1 SWAP2 SUB SWAP1 LOG1 POP POP JUMP JUMPDEST PUSH1 0x0 PUSH2 0x3510 PUSH2 0x2416 JUMP JUMPDEST PUSH1 0x0 PUSH2 0x351B DUP4 PUSH2 0x1FEC JUMP JUMPDEST SWAP1 POP PUSH1 0x0 PUSH2 0x3528 DUP5 PUSH2 0x1EFC JUMP JUMPDEST SWAP1 POP PUSH1 0x0 PUSH2 0x3535 DUP6 PUSH2 0x1BD8 JUMP JUMPDEST SWAP1 POP PUSH2 0x3542 DUP6 PUSH1 0x0 PUSH2 0x1324 JUMP JUMPDEST ISZERO PUSH2 0x3553 JUMPI PUSH1 0x1 SWAP4 POP POP POP POP PUSH2 0x3754 JUMP JUMPDEST PUSH1 0x0 DUP4 EQ DUP1 ISZERO PUSH2 0x3564 JUMPI POP PUSH1 0x0 DUP3 EQ ISZERO JUMPDEST ISZERO PUSH2 0x357E JUMPI PUSH2 0x3572 DUP6 PUSH2 0x5A8A JUMP JUMPDEST PUSH1 0x0 SWAP4 POP POP POP POP PUSH2 0x3754 JUMP JUMPDEST PUSH1 0x0 DUP4 EQ DUP1 ISZERO PUSH2 0x358E JUMPI POP PUSH1 0x0 DUP3 EQ JUMPDEST ISZERO PUSH2 0x35D8 JUMPI PUSH2 0x359C DUP6 PUSH2 0x5AF8 JUMP JUMPDEST PUSH1 0x0 PUSH2 0x35A7 DUP7 PUSH2 0x106F JUMP JUMPDEST SWAP1 POP PUSH1 0x0 PUSH2 0x35BE PUSH2 0x35B7 DUP9 PUSH2 0x124D JUMP JUMPDEST PUSH1 0x1E PUSH2 0x21BC JUMP JUMPDEST SWAP1 POP PUSH2 0x35CA DUP3 DUP3 PUSH2 0x22E0 JUMP JUMPDEST PUSH1 0x0 SWAP6 POP POP POP POP POP POP PUSH2 0x3754 JUMP JUMPDEST PUSH1 0x0 DUP2 MLOAD SWAP1 POP PUSH1 0x0 DUP5 SWAP1 POP PUSH1 0x0 DUP2 DUP4 PUSH2 0x35F1 SWAP2 SWAP1 PUSH2 0x8088 JUMP JUMPDEST SWAP1 POP PUSH1 0x0 PUSH2 0x35FE DUP10 PUSH2 0x1A61 JUMP JUMPDEST SWAP1 POP PUSH1 0x0 JUMPDEST DUP6 MLOAD DUP2 LT ISZERO PUSH2 0x373E JUMPI PUSH1 0x0 PUSH1 0xB DUP2 GT ISZERO PUSH2 0x3620 JUMPI PUSH2 0x361F PUSH2 0x834A JUMP JUMPDEST JUMPDEST DUP7 DUP3 DUP2 MLOAD DUP2 LT PUSH2 0x3633 JUMPI PUSH2 0x3632 PUSH2 0x83A8 JUMP JUMPDEST JUMPDEST PUSH1 0x20 MUL PUSH1 0x20 ADD ADD MLOAD PUSH1 0x60 ADD MLOAD PUSH1 0xB DUP2 GT ISZERO PUSH2 0x3651 JUMPI PUSH2 0x3650 PUSH2 0x834A JUMP JUMPDEST JUMPDEST EQ ISZERO PUSH2 0x372B JUMPI PUSH1 0x0 JUMPDEST DUP9 DUP2 LT ISZERO PUSH2 0x3729 JUMPI DUP4 PUSH2 0x3687 DUP13 DUP6 DUP5 DUP2 MLOAD DUP2 LT PUSH2 0x367A JUMPI PUSH2 0x3679 PUSH2 0x83A8 JUMP JUMPDEST JUMPDEST PUSH1 0x20 MUL PUSH1 0x20 ADD ADD MLOAD PUSH2 0x1281 JUMP JUMPDEST GT ISZERO PUSH2 0x3692 JUMPI PUSH2 0x3716 JUMP JUMPDEST PUSH2 0x36B9 DUP12 DUP4 DUP6 DUP5 DUP2 MLOAD DUP2 LT PUSH2 0x36AA JUMPI PUSH2 0x36A9 PUSH2 0x83A8 JUMP JUMPDEST JUMPDEST PUSH1 0x20 MUL PUSH1 0x20 ADD ADD MLOAD PUSH1 0x0 PUSH2 0x58CE JUMP JUMPDEST PUSH32 0xAD65127436138B4AFE97EF23BAF28ED14A5FB09500AD117EB196CD3BDB3DBE9F DUP12 DUP4 DUP6 DUP5 DUP2 MLOAD DUP2 LT PUSH2 0x36EF JUMPI PUSH2 0x36EE PUSH2 0x83A8 JUMP JUMPDEST JUMPDEST PUSH1 0x20 MUL PUSH1 0x20 ADD ADD MLOAD PUSH1 0x0 PUSH1 0x40 MLOAD PUSH2 0x3709 SWAP5 SWAP4 SWAP3 SWAP2 SWAP1 PUSH2 0x7D83 JUMP JUMPDEST PUSH1 0x40 MLOAD DUP1 SWAP2 SUB SWAP1 LOG1 PUSH2 0x3729 JUMP JUMPDEST DUP1 DUP1 PUSH2 0x3721 SWAP1 PUSH2 0x82A3 JUMP JUMPDEST SWAP2 POP POP PUSH2 0x365A JUMP JUMPDEST POP JUMPDEST DUP1 DUP1 PUSH2 0x3736 SWAP1 PUSH2 0x82A3 JUMP JUMPDEST SWAP2 POP POP PUSH2 0x3603 JUMP JUMPDEST POP PUSH2 0x3748 DUP10 PUSH2 0x5A8A JUMP JUMPDEST PUSH1 0x0 SWAP8 POP POP POP POP POP POP POP POP JUMPDEST SWAP2 SWAP1 POP JUMP JUMPDEST PUSH1 0x0 DUP1 PUSH2 0x3765 DUP4 PUSH2 0x5BE1 JUMP JUMPDEST SWAP1 POP PUSH32 0x9096640C11BD5636CED741C9725E5FF774B334455C80E15491F15BB3AF0BC265 CALLER DUP3 DUP6 PUSH1 0x40 MLOAD PUSH2 0x379A SWAP4 SWAP3 SWAP2 SWAP1 PUSH2 0x793A JUMP JUMPDEST PUSH1 0x40 MLOAD DUP1 SWAP2 SUB SWAP1 LOG1 DUP1 SWAP2 POP POP SWAP2 SWAP1 POP JUMP JUMPDEST PUSH2 0x37B7 DUP4 CALLER DUP5 DUP5 PUSH2 0x5F9E JUMP JUMPDEST POP POP POP JUMP JUMPDEST PUSH2 0x37C4 PUSH2 0x61D2 JUMP JUMPDEST PUSH2 0x37CC PUSH2 0x61D2 JUMP JUMPDEST PUSH1 0x1 PUSH1 0x0 DUP5 DUP2 MSTORE PUSH1 0x20 ADD SWAP1 DUP2 MSTORE PUSH1 0x20 ADD PUSH1 0x0 KECCAK256 PUSH1 0x0 ADD PUSH1 0x0 SWAP1 SLOAD SWAP1 PUSH2 0x100 EXP SWAP1 DIV PUSH20 0xFFFFFFFFFFFFFFFFFFFFFFFFFFFFFFFFFFFFFFFF AND DUP2 PUSH1 0x0 ADD SWAP1 PUSH20 0xFFFFFFFFFFFFFFFFFFFFFFFFFFFFFFFFFFFFFFFF AND SWAP1 DUP2 PUSH20 0xFFFFFFFFFFFFFFFFFFFFFFFFFFFFFFFFFFFFFFFF AND DUP2 MSTORE POP POP PUSH1 0x1 PUSH1 0x0 DUP5 DUP2 MSTORE PUSH1 0x20 ADD SWAP1 DUP2 MSTORE PUSH1 0x20 ADD PUSH1 0x0 KECCAK256 PUSH1 0x1 ADD SLOAD DUP2 PUSH1 0x20 ADD DUP2 DUP2 MSTORE POP POP PUSH1 0x1 PUSH1 0x0 DUP5 DUP2 MSTORE PUSH1 0x20 ADD SWAP1 DUP2 MSTORE PUSH1 0x20 ADD PUSH1 0x0 KECCAK256 PUSH1 0x2 ADD DUP1 SLOAD PUSH2 0x387B SWAP1 PUSH2 0x8240 JUMP JUMPDEST DUP1 PUSH1 0x1F ADD PUSH1 0x20 DUP1 SWAP2 DIV MUL PUSH1 0x20 ADD PUSH1 0x40 MLOAD SWAP1 DUP2 ADD PUSH1 0x40 MSTORE DUP1 SWAP3 SWAP2 SWAP1 DUP2 DUP2 MSTORE PUSH1 0x20 ADD DUP3 DUP1 SLOAD PUSH2 0x38A7 SWAP1 PUSH2 0x8240 JUMP JUMPDEST DUP1 ISZERO PUSH2 0x38F4 JUMPI DUP1 PUSH1 0x1F LT PUSH2 0x38C9 JUMPI PUSH2 0x100 DUP1 DUP4 SLOAD DIV MUL DUP4 MSTORE SWAP2 PUSH1 0x20 ADD SWAP2 PUSH2 0x38F4 JUMP JUMPDEST DUP3 ADD SWAP2 SWAP1 PUSH1 0x0 MSTORE PUSH1 0x20 PUSH1 0x0 KECCAK256 SWAP1 JUMPDEST DUP2 SLOAD DUP2 MSTORE SWAP1 PUSH1 0x1 ADD SWAP1 PUSH1 0x20 ADD DUP1 DUP4 GT PUSH2 0x38D7 JUMPI DUP3 SWAP1 SUB PUSH1 0x1F AND DUP3 ADD SWAP2 JUMPDEST POP POP POP POP POP DUP2 PUSH1 0x40 ADD DUP2 SWAP1 MSTORE POP PUSH1 0x1 PUSH1 0x0 DUP5 DUP2 MSTORE PUSH1 0x20 ADD SWAP1 DUP2 MSTORE PUSH1 0x20 ADD PUSH1 0x0 KECCAK256 PUSH1 0x3 ADD DUP1 SLOAD PUSH2 0x3922 SWAP1 PUSH2 0x8240 JUMP JUMPDEST DUP1 PUSH1 0x1F ADD PUSH1 0x20 DUP1 SWAP2 DIV MUL PUSH1 0x20 ADD PUSH1 0x40 MLOAD SWAP1 DUP2 ADD PUSH1 0x40 MSTORE DUP1 SWAP3 SWAP2 SWAP1 DUP2 DUP2 MSTORE PUSH1 0x20 ADD DUP3 DUP1 SLOAD PUSH2 0x394E SWAP1 PUSH2 0x8240 JUMP JUMPDEST DUP1 ISZERO PUSH2 0x399B JUMPI DUP1 PUSH1 0x1F LT PUSH2 0x3970 JUMPI PUSH2 0x100 DUP1 DUP4 SLOAD DIV MUL DUP4 MSTORE SWAP2 PUSH1 0x20 ADD SWAP2 PUSH2 0x399B JUMP JUMPDEST DUP3 ADD SWAP2 SWAP1 PUSH1 0x0 MSTORE PUSH1 0x20 PUSH1 0x0 KECCAK256 SWAP1 JUMPDEST DUP2 SLOAD DUP2 MSTORE SWAP1 PUSH1 0x1 ADD SWAP1 PUSH1 0x20 ADD DUP1 DUP4 GT PUSH2 0x397E JUMPI DUP3 SWAP1 SUB PUSH1 0x1F AND DUP3 ADD SWAP2 JUMPDEST POP POP POP POP POP DUP2 PUSH1 0x60 ADD DUP2 SWAP1 MSTORE POP PUSH1 0x1 PUSH1 0x0 DUP5 DUP2 MSTORE PUSH1 0x20 ADD SWAP1 DUP2 MSTORE PUSH1 0x20 ADD PUSH1 0x0 KECCAK256 PUSH1 0x4 ADD SLOAD DUP2 PUSH1 0x80 ADD DUP2 DUP2 MSTORE POP POP PUSH1 0x1 PUSH1 0x0 DUP5 DUP2 MSTORE PUSH1 0x20 ADD SWAP1 DUP2 MSTORE PUSH1 0x20 ADD PUSH1 0x0 KECCAK256 PUSH1 0x5 ADD SLOAD DUP2 PUSH1 0xA0 ADD DUP2 DUP2 MSTORE POP POP PUSH1 0x1 PUSH1 0x0 DUP5 DUP2 MSTORE PUSH1 0x20 ADD SWAP1 DUP2 MSTORE PUSH1 0x20 ADD PUSH1 0x0 KECCAK256 PUSH1 0x6 ADD SLOAD DUP2 PUSH1 0xC0 ADD DUP2 DUP2 MSTORE POP POP PUSH1 0x1 PUSH1 0x0 DUP5 DUP2 MSTORE PUSH1 0x20 ADD SWAP1 DUP2 MSTORE PUSH1 0x20 ADD PUSH1 0x0 KECCAK256 PUSH1 0x7 ADD DUP1 SLOAD DUP1 PUSH1 0x20 MUL PUSH1 0x20 ADD PUSH1 0x40 MLOAD SWAP1 DUP2 ADD PUSH1 0x40 MSTORE DUP1 SWAP3 SWAP2 SWAP1 DUP2 DUP2 MSTORE PUSH1 0x20 ADD DUP3 DUP1 SLOAD DUP1 ISZERO PUSH2 0x3A68 JUMPI PUSH1 0x20 MUL DUP3 ADD SWAP2 SWAP1 PUSH1 0x0 MSTORE PUSH1 0x20 PUSH1 0x0 KECCAK256 SWAP1 JUMPDEST DUP2 SLOAD DUP2 MSTORE PUSH1 0x20 ADD SWAP1 PUSH1 0x1 ADD SWAP1 DUP1 DUP4 GT PUSH2 0x3A54 JUMPI JUMPDEST POP POP POP POP POP DUP2 PUSH1 0xE0 ADD DUP2 SWAP1 MSTORE POP PUSH1 0x1 PUSH1 0x0 DUP5 DUP2 MSTORE PUSH1 0x20 ADD SWAP1 DUP2 MSTORE PUSH1 0x20 ADD PUSH1 0x0 KECCAK256 PUSH1 0x8 ADD SLOAD DUP2 PUSH2 0x100 ADD DUP2 DUP2 MSTORE POP POP PUSH1 0x1 PUSH1 0x0 DUP5 DUP2 MSTORE PUSH1 0x20 ADD SWAP1 DUP2 MSTORE PUSH1 0x20 ADD PUSH1 0x0 KECCAK256 PUSH1 0x9 ADD SLOAD DUP2 PUSH2 0x120 ADD DUP2 DUP2 MSTORE POP POP PUSH1 0x1 PUSH1 0x0 DUP5 DUP2 MSTORE PUSH1 0x20 ADD SWAP1 DUP2 MSTORE PUSH1 0x20 ADD PUSH1 0x0 KECCAK256 PUSH1 0xA ADD PUSH1 0x0 SWAP1 SLOAD SWAP1 PUSH2 0x100 EXP SWAP1 DIV PUSH1 0xFF AND DUP2 PUSH2 0x140 ADD SWAP1 ISZERO ISZERO SWAP1 DUP2 ISZERO ISZERO DUP2 MSTORE POP POP PUSH1 0x1 PUSH1 0x0 DUP5 DUP2 MSTORE PUSH1 0x20 ADD SWAP1 DUP2 MSTORE PUSH1 0x20 ADD PUSH1 0x0 KECCAK256 PUSH1 0xA ADD PUSH1 0x1 SWAP1 SLOAD SWAP1 PUSH2 0x100 EXP SWAP1 DIV PUSH1 0xFF AND DUP2 PUSH2 0x160 ADD SWAP1 ISZERO ISZERO SWAP1 DUP2 ISZERO ISZERO DUP2 MSTORE POP POP PUSH1 0x1 PUSH1 0x0 DUP5 DUP2 MSTORE PUSH1 0x20 ADD SWAP1 DUP2 MSTORE PUSH1 0x20 ADD PUSH1 0x0 KECCAK256 PUSH1 0xB ADD SLOAD DUP2 PUSH2 0x180 ADD DUP2 DUP2 MSTORE POP POP PUSH1 0x1 PUSH1 0x0 DUP5 DUP2 MSTORE PUSH1 0x20 ADD SWAP1 DUP2 MSTORE PUSH1 0x20 ADD PUSH1 0x0 KECCAK256 PUSH1 0x11 ADD SLOAD DUP2 PUSH2 0x220 ADD DUP2 DUP2 MSTORE POP POP PUSH1 0x1 PUSH1 0x0 DUP5 DUP2 MSTORE PUSH1 0x20 ADD SWAP1 DUP2 MSTORE PUSH1 0x20 ADD PUSH1 0x0 KECCAK256 PUSH1 0x12 ADD SLOAD DUP2 PUSH2 0x240 ADD DUP2 DUP2 MSTORE POP POP PUSH1 0x1 PUSH1 0x0 DUP5 DUP2 MSTORE PUSH1 0x20 ADD SWAP1 DUP2 MSTORE PUSH1 0x20 ADD PUSH1 0x0 KECCAK256 PUSH1 0x13 ADD SLOAD DUP2 PUSH2 0x260 ADD DUP2 DUP2 MSTORE POP POP PUSH1 0x1 PUSH1 0x0 DUP5 DUP2 MSTORE PUSH1 0x20 ADD SWAP1 DUP2 MSTORE PUSH1 0x20 ADD PUSH1 0x0 KECCAK256 PUSH1 0x14 ADD SLOAD DUP2 PUSH2 0x280 ADD DUP2 DUP2 MSTORE POP POP PUSH1 0x1 PUSH1 0x0 DUP5 DUP2 MSTORE PUSH1 0x20 ADD SWAP1 DUP2 MSTORE PUSH1 0x20 ADD PUSH1 0x0 KECCAK256 PUSH1 0x15 ADD PUSH1 0x0 SWAP1 SLOAD SWAP1 PUSH2 0x100 EXP SWAP1 DIV PUSH1 0xFF AND DUP2 PUSH2 0x2A0 ADD SWAP1 ISZERO ISZERO SWAP1 DUP2 ISZERO ISZERO DUP2 MSTORE POP POP PUSH1 0x1 PUSH1 0x0 DUP5 DUP2 MSTORE PUSH1 0x20 ADD SWAP1 DUP2 MSTORE PUSH1 0x20 ADD PUSH1 0x0 KECCAK256 PUSH1 0x15 ADD PUSH1 0x1 SWAP1 SLOAD SWAP1 PUSH2 0x100 EXP SWAP1 DIV PUSH1 0xFF AND DUP2 PUSH2 0x2C0 ADD SWAP1 ISZERO ISZERO SWAP1 DUP2 ISZERO ISZERO DUP2 MSTORE POP POP PUSH1 0x1 PUSH1 0x0 DUP5 DUP2 MSTORE PUSH1 0x20 ADD SWAP1 DUP2 MSTORE PUSH1 0x20 ADD PUSH1 0x0 KECCAK256 PUSH1 0x15 ADD PUSH1 0x2 SWAP1 SLOAD SWAP1 PUSH2 0x100 EXP SWAP1 DIV PUSH1 0xFF AND DUP2 PUSH2 0x2E0 ADD SWAP1 PUSH1 0x6 DUP2 GT ISZERO PUSH2 0x3C68 JUMPI PUSH2 0x3C67 PUSH2 0x834A JUMP JUMPDEST JUMPDEST SWAP1 DUP2 PUSH1 0x6 DUP2 GT ISZERO PUSH2 0x3C7C JUMPI PUSH2 0x3C7B PUSH2 0x834A JUMP JUMPDEST JUMPDEST DUP2 MSTORE POP POP PUSH1 0x1 PUSH1 0x0 DUP5 DUP2 MSTORE PUSH1 0x20 ADD SWAP1 DUP2 MSTORE PUSH1 0x20 ADD PUSH1 0x0 KECCAK256 PUSH1 0xC ADD DUP1 SLOAD DUP1 PUSH1 0x20 MUL PUSH1 0x20 ADD PUSH1 0x40 MLOAD SWAP1 DUP2 ADD PUSH1 0x40 MSTORE DUP1 SWAP3 SWAP2 SWAP1 DUP2 DUP2 MSTORE PUSH1 0x20 ADD PUSH1 0x0 SWAP1 JUMPDEST DUP3 DUP3 LT ISZERO PUSH2 0x3F33 JUMPI DUP4 DUP3 SWAP1 PUSH1 0x0 MSTORE PUSH1 0x20 PUSH1 0x0 KECCAK256 SWAP1 PUSH1 0xB MUL ADD PUSH1 0x40 MLOAD DUP1 PUSH1 0xA0 ADD PUSH1 0x40 MSTORE SWAP1 DUP2 PUSH1 0x0 DUP3 ADD PUSH1 0x40 MLOAD DUP1 PUSH1 0xE0 ADD PUSH1 0x40 MSTORE SWAP1 DUP2 PUSH1 0x0 DUP3 ADD DUP1 SLOAD PUSH2 0x3CF9 SWAP1 PUSH2 0x8240 JUMP JUMPDEST DUP1 PUSH1 0x1F ADD PUSH1 0x20 DUP1 SWAP2 DIV MUL PUSH1 0x20 ADD PUSH1 0x40 MLOAD SWAP1 DUP2 ADD PUSH1 0x40 MSTORE DUP1 SWAP3 SWAP2 SWAP1 DUP2 DUP2 MSTORE PUSH1 0x20 ADD DUP3 DUP1 SLOAD PUSH2 0x3D25 SWAP1 PUSH2 0x8240 JUMP JUMPDEST DUP1 ISZERO PUSH2 0x3D72 JUMPI DUP1 PUSH1 0x1F LT PUSH2 0x3D47 JUMPI PUSH2 0x100 DUP1 DUP4 SLOAD DIV MUL DUP4 MSTORE SWAP2 PUSH1 0x20 ADD SWAP2 PUSH2 0x3D72 JUMP JUMPDEST DUP3 ADD SWAP2 SWAP1 PUSH1 0x0 MSTORE PUSH1 0x20 PUSH1 0x0 KECCAK256 SWAP1 JUMPDEST DUP2 SLOAD DUP2 MSTORE SWAP1 PUSH1 0x1 ADD SWAP1 PUSH1 0x20 ADD DUP1 DUP4 GT PUSH2 0x3D55 JUMPI DUP3 SWAP1 SUB PUSH1 0x1F AND DUP3 ADD SWAP2 JUMPDEST POP POP POP POP POP DUP2 MSTORE PUSH1 0x20 ADD PUSH1 0x1 DUP3 ADD SLOAD DUP2 MSTORE PUSH1 0x20 ADD PUSH1 0x2 DUP3 ADD SLOAD DUP2 MSTORE PUSH1 0x20 ADD PUSH1 0x3 DUP3 ADD SLOAD DUP2 MSTORE PUSH1 0x20 ADD PUSH1 0x4 DUP3 ADD SLOAD DUP2 MSTORE PUSH1 0x20 ADD PUSH1 0x5 DUP3 ADD SLOAD DUP2 MSTORE PUSH1 0x20 ADD PUSH1 0x6 DUP3 ADD DUP1 SLOAD PUSH2 0x3DBD SWAP1 PUSH2 0x8240 JUMP JUMPDEST DUP1 PUSH1 0x1F ADD PUSH1 0x20 DUP1 SWAP2 DIV MUL PUSH1 0x20 ADD PUSH1 0x40 MLOAD SWAP1 DUP2 ADD PUSH1 0x40 MSTORE DUP1 SWAP3 SWAP2 SWAP1 DUP2 DUP2 MSTORE PUSH1 0x20 ADD DUP3 DUP1 SLOAD PUSH2 0x3DE9 SWAP1 PUSH2 0x8240 JUMP JUMPDEST DUP1 ISZERO PUSH2 0x3E36 JUMPI DUP1 PUSH1 0x1F LT PUSH2 0x3E0B JUMPI PUSH2 0x100 DUP1 DUP4 SLOAD DIV MUL DUP4 MSTORE SWAP2 PUSH1 0x20 ADD SWAP2 PUSH2 0x3E36 JUMP JUMPDEST DUP3 ADD SWAP2 SWAP1 PUSH1 0x0 MSTORE PUSH1 0x20 PUSH1 0x0 KECCAK256 SWAP1 JUMPDEST DUP2 SLOAD DUP2 MSTORE SWAP1 PUSH1 0x1 ADD SWAP1 PUSH1 0x20 ADD DUP1 DUP4 GT PUSH2 0x3E19 JUMPI DUP3 SWAP1 SUB PUSH1 0x1F AND DUP3 ADD SWAP2 JUMPDEST POP POP POP POP POP DUP2 MSTORE POP POP DUP2 MSTORE PUSH1 0x20 ADD PUSH1 0x7 DUP3 ADD SLOAD DUP2 MSTORE PUSH1 0x20 ADD PUSH1 0x8 DUP3 ADD DUP1 SLOAD PUSH2 0x3E5D SWAP1 PUSH2 0x8240 JUMP JUMPDEST DUP1 PUSH1 0x1F ADD PUSH1 0x20 DUP1 SWAP2 DIV MUL PUSH1 0x20 ADD PUSH1 0x40 MLOAD SWAP1 DUP2 ADD PUSH1 0x40 MSTORE DUP1 SWAP3 SWAP2 SWAP1 DUP2 DUP2 MSTORE PUSH1 0x20 ADD DUP3 DUP1 SLOAD PUSH2 0x3E89 SWAP1 PUSH2 0x8240 JUMP JUMPDEST DUP1 ISZERO PUSH2 0x3ED6 JUMPI DUP1 PUSH1 0x1F LT PUSH2 0x3EAB JUMPI PUSH2 0x100 DUP1 DUP4 SLOAD DIV MUL DUP4 MSTORE SWAP2 PUSH1 0x20 ADD SWAP2 PUSH2 0x3ED6 JUMP JUMPDEST DUP3 ADD SWAP2 SWAP1 PUSH1 0x0 MSTORE PUSH1 0x20 PUSH1 0x0 KECCAK256 SWAP1 JUMPDEST DUP2 SLOAD DUP2 MSTORE SWAP1 PUSH1 0x1 ADD SWAP1 PUSH1 0x20 ADD DUP1 DUP4 GT PUSH2 0x3EB9 JUMPI DUP3 SWAP1 SUB PUSH1 0x1F AND DUP3 ADD SWAP2 JUMPDEST POP POP POP POP POP DUP2 MSTORE PUSH1 0x20 ADD PUSH1 0x9 DUP3 ADD PUSH1 0x0 SWAP1 SLOAD SWAP1 PUSH2 0x100 EXP SWAP1 DIV PUSH1 0xFF AND PUSH1 0xB DUP2 GT ISZERO PUSH2 0x3F04 JUMPI PUSH2 0x3F03 PUSH2 0x834A JUMP JUMPDEST JUMPDEST PUSH1 0xB DUP2 GT ISZERO PUSH2 0x3F16 JUMPI PUSH2 0x3F15 PUSH2 0x834A JUMP JUMPDEST JUMPDEST DUP2 MSTORE PUSH1 0x20 ADD PUSH1 0xA DUP3 ADD SLOAD DUP2 MSTORE POP POP DUP2 MSTORE PUSH1 0x20 ADD SWAP1 PUSH1 0x1 ADD SWAP1 PUSH2 0x3CB6 JUMP JUMPDEST POP POP POP POP DUP2 PUSH2 0x1C0 ADD DUP2 SWAP1 MSTORE POP PUSH1 0x0 JUMPDEST PUSH1 0x1 PUSH1 0x0 DUP6 DUP2 MSTORE PUSH1 0x20 ADD SWAP1 DUP2 MSTORE PUSH1 0x20 ADD PUSH1 0x0 KECCAK256 PUSH1 0xD ADD DUP1 SLOAD SWAP1 POP DUP2 LT ISZERO PUSH2 0x42FE JUMPI PUSH2 0x3F6C PUSH2 0x62B7 JUMP JUMPDEST PUSH1 0x0 PUSH1 0x1 PUSH1 0x0 DUP8 DUP2 MSTORE PUSH1 0x20 ADD SWAP1 DUP2 MSTORE PUSH1 0x20 ADD PUSH1 0x0 KECCAK256 PUSH1 0xD ADD DUP4 DUP2 SLOAD DUP2 LT PUSH2 0x3F96 JUMPI PUSH2 0x3F95 PUSH2 0x83A8 JUMP JUMPDEST JUMPDEST SWAP1 PUSH1 0x0 MSTORE PUSH1 0x20 PUSH1 0x0 KECCAK256 ADD PUSH1 0x0 SWAP1 SLOAD SWAP1 PUSH2 0x100 EXP SWAP1 DIV PUSH20 0xFFFFFFFFFFFFFFFFFFFFFFFFFFFFFFFFFFFFFFFF AND SWAP1 POP DUP1 DUP3 PUSH1 0x0 ADD SWAP1 PUSH20 0xFFFFFFFFFFFFFFFFFFFFFFFFFFFFFFFFFFFFFFFF AND SWAP1 DUP2 PUSH20 0xFFFFFFFFFFFFFFFFFFFFFFFFFFFFFFFFFFFFFFFF AND DUP2 MSTORE POP POP PUSH1 0x0 JUMPDEST PUSH1 0x1 PUSH1 0x0 DUP9 DUP2 MSTORE PUSH1 0x20 ADD SWAP1 DUP2 MSTORE PUSH1 0x20 ADD PUSH1 0x0 KECCAK256 PUSH1 0xF ADD PUSH1 0x0 DUP4 PUSH20 0xFFFFFFFFFFFFFFFFFFFFFFFFFFFFFFFFFFFFFFFF AND PUSH20 0xFFFFFFFFFFFFFFFFFFFFFFFFFFFFFFFFFFFFFFFF AND DUP2 MSTORE PUSH1 0x20 ADD SWAP1 DUP2 MSTORE PUSH1 0x20 ADD PUSH1 0x0 KECCAK256 PUSH1 0x0 ADD DUP1 SLOAD SWAP1 POP DUP5 LT ISZERO PUSH2 0x42C4 JUMPI PUSH2 0x4067 PUSH2 0x62E7 JUMP JUMPDEST PUSH1 0x1 PUSH1 0x0 DUP10 DUP2 MSTORE PUSH1 0x20 ADD SWAP1 DUP2 MSTORE PUSH1 0x20 ADD PUSH1 0x0 KECCAK256 PUSH1 0xF ADD PUSH1 0x0 DUP5 PUSH20 0xFFFFFFFFFFFFFFFFFFFFFFFFFFFFFFFFFFFFFFFF AND PUSH20 0xFFFFFFFFFFFFFFFFFFFFFFFFFFFFFFFFFFFFFFFF AND DUP2 MSTORE PUSH1 0x20 ADD SWAP1 DUP2 MSTORE PUSH1 0x20 ADD PUSH1 0x0 KECCAK256 PUSH1 0x0 ADD DUP3 DUP2 SLOAD DUP2 LT PUSH2 0x40CF JUMPI PUSH2 0x40CE PUSH2 0x83A8 JUMP JUMPDEST JUMPDEST SWAP1 PUSH1 0x0 MSTORE PUSH1 0x20 PUSH1 0x0 KECCAK256 ADD SLOAD DUP2 PUSH1 0x0 ADD DUP2 DUP2 MSTORE POP POP PUSH1 0x1 PUSH1 0x0 DUP10 DUP2 MSTORE PUSH1 0x20 ADD SWAP1 DUP2 MSTORE PUSH1 0x20 ADD PUSH1 0x0 KECCAK256 PUSH1 0xF ADD PUSH1 0x0 DUP5 PUSH20 0xFFFFFFFFFFFFFFFFFFFFFFFFFFFFFFFFFFFFFFFF AND PUSH20 0xFFFFFFFFFFFFFFFFFFFFFFFFFFFFFFFFFFFFFFFF AND DUP2 MSTORE PUSH1 0x20 ADD SWAP1 DUP2 MSTORE PUSH1 0x20 ADD PUSH1 0x0 KECCAK256 PUSH1 0x1 ADD PUSH1 0x0 DUP3 PUSH1 0x0 ADD MLOAD DUP2 MSTORE PUSH1 0x20 ADD SWAP1 DUP2 MSTORE PUSH1 0x20 ADD PUSH1 0x0 KECCAK256 PUSH1 0x0 ADD PUSH1 0x0 SWAP1 SLOAD SWAP1 PUSH2 0x100 EXP SWAP1 DIV PUSH1 0xFF AND DUP2 PUSH1 0x20 ADD SWAP1 PUSH1 0x4 DUP2 GT ISZERO PUSH2 0x4176 JUMPI PUSH2 0x4175 PUSH2 0x834A JUMP JUMPDEST JUMPDEST SWAP1 DUP2 PUSH1 0x4 DUP2 GT ISZERO PUSH2 0x418A JUMPI PUSH2 0x4189 PUSH2 0x834A JUMP JUMPDEST JUMPDEST DUP2 MSTORE POP POP PUSH1 0x1 PUSH1 0x0 DUP10 DUP2 MSTORE PUSH1 0x20 ADD SWAP1 DUP2 MSTORE PUSH1 0x20 ADD PUSH1 0x0 KECCAK256 PUSH1 0xF ADD PUSH1 0x0 DUP5 PUSH20 0xFFFFFFFFFFFFFFFFFFFFFFFFFFFFFFFFFFFFFFFF AND PUSH20 0xFFFFFFFFFFFFFFFFFFFFFFFFFFFFFFFFFFFFFFFF AND DUP2 MSTORE PUSH1 0x20 ADD SWAP1 DUP2 MSTORE PUSH1 0x20 ADD PUSH1 0x0 KECCAK256 PUSH1 0x1 ADD PUSH1 0x0 DUP3 PUSH1 0x0 ADD MLOAD DUP2 MSTORE PUSH1 0x20 ADD SWAP1 DUP2 MSTORE PUSH1 0x20 ADD PUSH1 0x0 KECCAK256 PUSH1 0x1 ADD DUP1 SLOAD PUSH2 0x4207 SWAP1 PUSH2 0x8240 JUMP JUMPDEST DUP1 PUSH1 0x1F ADD PUSH1 0x20 DUP1 SWAP2 DIV MUL PUSH1 0x20 ADD PUSH1 0x40 MLOAD SWAP1 DUP2 ADD PUSH1 0x40 MSTORE DUP1 SWAP3 SWAP2 SWAP1 DUP2 DUP2 MSTORE PUSH1 0x20 ADD DUP3 DUP1 SLOAD PUSH2 0x4233 SWAP1 PUSH2 0x8240 JUMP JUMPDEST DUP1 ISZERO PUSH2 0x4280 JUMPI DUP1 PUSH1 0x1F LT PUSH2 0x4255 JUMPI PUSH2 0x100 DUP1 DUP4 SLOAD DIV MUL DUP4 MSTORE SWAP2 PUSH1 0x20 ADD SWAP2 PUSH2 0x4280 JUMP JUMPDEST DUP3 ADD SWAP2 SWAP1 PUSH1 0x0 MSTORE PUSH1 0x20 PUSH1 0x0 KECCAK256 SWAP1 JUMPDEST DUP2 SLOAD DUP2 MSTORE SWAP1 PUSH1 0x1 ADD SWAP1 PUSH1 0x20 ADD DUP1 DUP4 GT PUSH2 0x4263 JUMPI DUP3 SWAP1 SUB PUSH1 0x1F AND DUP3 ADD SWAP2 JUMPDEST POP POP POP POP POP DUP2 PUSH1 0x40 ADD DUP2 SWAP1 MSTORE POP DUP1 DUP5 PUSH1 0x20 ADD MLOAD DUP4 DUP2 MLOAD DUP2 LT PUSH2 0x42A5 JUMPI PUSH2 0x42A4 PUSH2 0x83A8 JUMP JUMPDEST JUMPDEST PUSH1 0x20 MUL PUSH1 0x20 ADD ADD DUP2 SWAP1 MSTORE POP POP DUP1 DUP1 PUSH2 0x42BC SWAP1 PUSH2 0x82A3 JUMP JUMPDEST SWAP2 POP POP PUSH2 0x3FFE JUMP JUMPDEST POP DUP2 DUP5 PUSH2 0x1E0 ADD MLOAD DUP5 DUP2 MLOAD DUP2 LT PUSH2 0x42DE JUMPI PUSH2 0x42DD PUSH2 0x83A8 JUMP JUMPDEST JUMPDEST PUSH1 0x20 MUL PUSH1 0x20 ADD ADD DUP2 SWAP1 MSTORE POP POP POP DUP1 DUP1 PUSH2 0x42F6 SWAP1 PUSH2 0x82A3 JUMP JUMPDEST SWAP2 POP POP PUSH2 0x3F43 JUMP JUMPDEST POP PUSH1 0x0 JUMPDEST PUSH1 0x1 PUSH1 0x0 DUP6 DUP2 MSTORE PUSH1 0x20 ADD SWAP1 DUP2 MSTORE PUSH1 0x20 ADD PUSH1 0x0 KECCAK256 PUSH1 0xE ADD DUP1 SLOAD SWAP1 POP DUP2 LT ISZERO PUSH2 0x46BD JUMPI PUSH2 0x432B PUSH2 0x62B7 JUMP JUMPDEST PUSH1 0x0 PUSH1 0x1 PUSH1 0x0 DUP8 DUP2 MSTORE PUSH1 0x20 ADD SWAP1 DUP2 MSTORE PUSH1 0x20 ADD PUSH1 0x0 KECCAK256 PUSH1 0xE ADD DUP4 DUP2 SLOAD DUP2 LT PUSH2 0x4355 JUMPI PUSH2 0x4354 PUSH2 0x83A8 JUMP JUMPDEST JUMPDEST SWAP1 PUSH1 0x0 MSTORE PUSH1 0x20 PUSH1 0x0 KECCAK256 ADD PUSH1 0x0 SWAP1 SLOAD SWAP1 PUSH2 0x100 EXP SWAP1 DIV PUSH20 0xFFFFFFFFFFFFFFFFFFFFFFFFFFFFFFFFFFFFFFFF AND SWAP1 POP DUP1 DUP3 PUSH1 0x0 ADD SWAP1 PUSH20 0xFFFFFFFFFFFFFFFFFFFFFFFFFFFFFFFFFFFFFFFF AND SWAP1 DUP2 PUSH20 0xFFFFFFFFFFFFFFFFFFFFFFFFFFFFFFFFFFFFFFFF AND DUP2 MSTORE POP POP PUSH1 0x0 JUMPDEST PUSH1 0x1 PUSH1 0x0 DUP9 DUP2 MSTORE PUSH1 0x20 ADD SWAP1 DUP2 MSTORE PUSH1 0x20 ADD PUSH1 0x0 KECCAK256 PUSH1 0x10 ADD PUSH1 0x0 DUP4 PUSH20 0xFFFFFFFFFFFFFFFFFFFFFFFFFFFFFFFFFFFFFFFF AND PUSH20 0xFFFFFFFFFFFFFFFFFFFFFFFFFFFFFFFFFFFFFFFF AND DUP2 MSTORE PUSH1 0x20 ADD SWAP1 DUP2 MSTORE PUSH1 0x20 ADD PUSH1 0x0 KECCAK256 PUSH1 0x0 ADD DUP1 SLOAD SWAP1 POP DUP5 LT ISZERO PUSH2 0x4683 JUMPI PUSH2 0x4426 PUSH2 0x62E7 JUMP JUMPDEST PUSH1 0x1 PUSH1 0x0 DUP10 DUP2 MSTORE PUSH1 0x20 ADD SWAP1 DUP2 MSTORE PUSH1 0x20 ADD PUSH1 0x0 KECCAK256 PUSH1 0x10 ADD PUSH1 0x0 DUP5 PUSH20 0xFFFFFFFFFFFFFFFFFFFFFFFFFFFFFFFFFFFFFFFF AND PUSH20 0xFFFFFFFFFFFFFFFFFFFFFFFFFFFFFFFFFFFFFFFF AND DUP2 MSTORE PUSH1 0x20 ADD SWAP1 DUP2 MSTORE PUSH1 0x20 ADD PUSH1 0x0 KECCAK256 PUSH1 0x0 ADD DUP3 DUP2 SLOAD DUP2 LT PUSH2 0x448E JUMPI PUSH2 0x448D PUSH2 0x83A8 JUMP JUMPDEST JUMPDEST SWAP1 PUSH1 0x0 MSTORE PUSH1 0x20 PUSH1 0x0 KECCAK256 ADD SLOAD DUP2 PUSH1 0x0 ADD DUP2 DUP2 MSTORE POP POP PUSH1 0x1 PUSH1 0x0 DUP10 DUP2 MSTORE PUSH1 0x20 ADD SWAP1 DUP2 MSTORE PUSH1 0x20 ADD PUSH1 0x0 KECCAK256 PUSH1 0x10 ADD PUSH1 0x0 DUP5 PUSH20 0xFFFFFFFFFFFFFFFFFFFFFFFFFFFFFFFFFFFFFFFF AND PUSH20 0xFFFFFFFFFFFFFFFFFFFFFFFFFFFFFFFFFFFFFFFF AND DUP2 MSTORE PUSH1 0x20 ADD SWAP1 DUP2 MSTORE PUSH1 0x20 ADD PUSH1 0x0 KECCAK256 PUSH1 0x1 ADD PUSH1 0x0 DUP3 PUSH1 0x0 ADD MLOAD DUP2 MSTORE PUSH1 0x20 ADD SWAP1 DUP2 MSTORE PUSH1 0x20 ADD PUSH1 0x0 KECCAK256 PUSH1 0x0 ADD PUSH1 0x0 SWAP1 SLOAD SWAP1 PUSH2 0x100 EXP SWAP1 DIV PUSH1 0xFF AND DUP2 PUSH1 0x20 ADD SWAP1 PUSH1 0x4 DUP2 GT ISZERO PUSH2 0x4535 JUMPI PUSH2 0x4534 PUSH2 0x834A JUMP JUMPDEST JUMPDEST SWAP1 DUP2 PUSH1 0x4 DUP2 GT ISZERO PUSH2 0x4549 JUMPI PUSH2 0x4548 PUSH2 0x834A JUMP JUMPDEST JUMPDEST DUP2 MSTORE POP POP PUSH1 0x1 PUSH1 0x0 DUP10 DUP2 MSTORE PUSH1 0x20 ADD SWAP1 DUP2 MSTORE PUSH1 0x20 ADD PUSH1 0x0 KECCAK256 PUSH1 0x10 ADD PUSH1 0x0 DUP5 PUSH20 0xFFFFFFFFFFFFFFFFFFFFFFFFFFFFFFFFFFFFFFFF AND PUSH20 0xFFFFFFFFFFFFFFFFFFFFFFFFFFFFFFFFFFFFFFFF AND DUP2 MSTORE PUSH1 0x20 ADD SWAP1 DUP2 MSTORE PUSH1 0x20 ADD PUSH1 0x0 KECCAK256 PUSH1 0x1 ADD PUSH1 0x0 DUP3 PUSH1 0x0 ADD MLOAD DUP2 MSTORE PUSH1 0x20 ADD SWAP1 DUP2 MSTORE PUSH1 0x20 ADD PUSH1 0x0 KECCAK256 PUSH1 0x1 ADD DUP1 SLOAD PUSH2 0x45C6 SWAP1 PUSH2 0x8240 JUMP JUMPDEST DUP1 PUSH1 0x1F ADD PUSH1 0x20 DUP1 SWAP2 DIV MUL PUSH1 0x20 ADD PUSH1 0x40 MLOAD SWAP1 DUP2 ADD PUSH1 0x40 MSTORE DUP1 SWAP3 SWAP2 SWAP1 DUP2 DUP2 MSTORE PUSH1 0x20 ADD DUP3 DUP1 SLOAD PUSH2 0x45F2 SWAP1 PUSH2 0x8240 JUMP JUMPDEST DUP1 ISZERO PUSH2 0x463F JUMPI DUP1 PUSH1 0x1F LT PUSH2 0x4614 JUMPI PUSH2 0x100 DUP1 DUP4 SLOAD DIV MUL DUP4 MSTORE SWAP2 PUSH1 0x20 ADD SWAP2 PUSH2 0x463F JUMP JUMPDEST DUP3 ADD SWAP2 SWAP1 PUSH1 0x0 MSTORE PUSH1 0x20 PUSH1 0x0 KECCAK256 SWAP1 JUMPDEST DUP2 SLOAD DUP2 MSTORE SWAP1 PUSH1 0x1 ADD SWAP1 PUSH1 0x20 ADD DUP1 DUP4 GT PUSH2 0x4622 JUMPI DUP3 SWAP1 SUB PUSH1 0x1F AND DUP3 ADD SWAP2 JUMPDEST POP POP POP POP POP DUP2 PUSH1 0x40 ADD DUP2 SWAP1 MSTORE POP DUP1 DUP5 PUSH1 0x20 ADD MLOAD DUP4 DUP2 MLOAD DUP2 LT PUSH2 0x4664 JUMPI PUSH2 0x4663 PUSH2 0x83A8 JUMP JUMPDEST JUMPDEST PUSH1 0x20 MUL PUSH1 0x20 ADD ADD DUP2 SWAP1 MSTORE POP POP DUP1 DUP1 PUSH2 0x467B SWAP1 PUSH2 0x82A3 JUMP JUMPDEST SWAP2 POP POP PUSH2 0x43BD JUMP JUMPDEST POP DUP2 DUP5 PUSH2 0x200 ADD MLOAD DUP5 DUP2 MLOAD DUP2 LT PUSH2 0x469D JUMPI PUSH2 0x469C PUSH2 0x83A8 JUMP JUMPDEST JUMPDEST PUSH1 0x20 MUL PUSH1 0x20 ADD ADD DUP2 SWAP1 MSTORE POP POP POP DUP1 DUP1 PUSH2 0x46B5 SWAP1 PUSH2 0x82A3 JUMP JUMPDEST SWAP2 POP POP PUSH2 0x4302 JUMP JUMPDEST POP DUP1 SWAP2 POP POP SWAP2 SWAP1 POP JUMP JUMPDEST PUSH1 0x0 PUSH1 0x1 PUSH1 0x0 DUP6 DUP2 MSTORE PUSH1 0x20 ADD SWAP1 DUP2 MSTORE PUSH1 0x20 ADD PUSH1 0x0 KECCAK256 PUSH1 0xF ADD PUSH1 0x0 DUP4 PUSH20 0xFFFFFFFFFFFFFFFFFFFFFFFFFFFFFFFFFFFFFFFF AND PUSH20 0xFFFFFFFFFFFFFFFFFFFFFFFFFFFFFFFFFFFFFFFF AND DUP2 MSTORE PUSH1 0x20 ADD SWAP1 DUP2 MSTORE PUSH1 0x20 ADD PUSH1 0x0 KECCAK256 SWAP1 POP PUSH1 0x0 DUP2 PUSH1 0x0 ADD DUP1 SLOAD SWAP1 POP EQ ISZERO PUSH2 0x47A6 JUMPI PUSH1 0x1 PUSH1 0x0 DUP6 DUP2 MSTORE PUSH1 0x20 ADD SWAP1 DUP2 MSTORE PUSH1 0x20 ADD PUSH1 0x0 KECCAK256 PUSH1 0xD ADD DUP3 SWAP1 DUP1 PUSH1 0x1 DUP2 SLOAD ADD DUP1 DUP3 SSTORE DUP1 SWAP2 POP POP PUSH1 0x1 SWAP1 SUB SWAP1 PUSH1 0x0 MSTORE PUSH1 0x20 PUSH1 0x0 KECCAK256 ADD PUSH1 0x0 SWAP1 SWAP2 SWAP1 SWAP2 SWAP1 SWAP2 PUSH2 0x100 EXP DUP2 SLOAD DUP2 PUSH20 0xFFFFFFFFFFFFFFFFFFFFFFFFFFFFFFFFFFFFFFFF MUL NOT AND SWAP1 DUP4 PUSH20 0xFFFFFFFFFFFFFFFFFFFFFFFFFFFFFFFFFFFFFFFF AND MUL OR SWAP1 SSTORE POP JUMPDEST PUSH1 0x0 DUP1 PUSH1 0x0 SWAP1 POP JUMPDEST DUP5 MLOAD DUP2 LT ISZERO PUSH2 0x4ABC JUMPI PUSH1 0x1 PUSH1 0x0 DUP8 DUP2 MSTORE PUSH1 0x20 ADD SWAP1 DUP2 MSTORE PUSH1 0x20 ADD PUSH1 0x0 KECCAK256 PUSH1 0xC ADD DUP6 DUP3 DUP2 MLOAD DUP2 LT PUSH2 0x47E0 JUMPI PUSH2 0x47DF PUSH2 0x83A8 JUMP JUMPDEST JUMPDEST PUSH1 0x20 MUL PUSH1 0x20 ADD ADD MLOAD DUP2 SLOAD DUP2 LT PUSH2 0x47F9 JUMPI PUSH2 0x47F8 PUSH2 0x83A8 JUMP JUMPDEST JUMPDEST SWAP1 PUSH1 0x0 MSTORE PUSH1 0x20 PUSH1 0x0 KECCAK256 SWAP1 PUSH1 0xB MUL ADD PUSH1 0x9 ADD PUSH1 0x0 SWAP1 SLOAD SWAP1 PUSH2 0x100 EXP SWAP1 DIV PUSH1 0xFF AND SWAP2 POP PUSH1 0x0 PUSH1 0xB DUP2 GT ISZERO PUSH2 0x482E JUMPI PUSH2 0x482D PUSH2 0x834A JUMP JUMPDEST JUMPDEST DUP3 PUSH1 0xB DUP2 GT ISZERO PUSH2 0x4841 JUMPI PUSH2 0x4840 PUSH2 0x834A JUMP JUMPDEST JUMPDEST EQ ISZERO PUSH2 0x4920 JUMPI PUSH1 0x2 PUSH1 0x1 PUSH1 0x0 DUP9 DUP2 MSTORE PUSH1 0x20 ADD SWAP1 DUP2 MSTORE PUSH1 0x20 ADD PUSH1 0x0 KECCAK256 PUSH1 0xC ADD DUP7 DUP4 DUP2 MLOAD DUP2 LT PUSH2 0x4872 JUMPI PUSH2 0x4871 PUSH2 0x83A8 JUMP JUMPDEST JUMPDEST PUSH1 0x20 MUL PUSH1 0x20 ADD ADD MLOAD DUP2 SLOAD DUP2 LT PUSH2 0x488B JUMPI PUSH2 0x488A PUSH2 0x83A8 JUMP JUMPDEST JUMPDEST SWAP1 PUSH1 0x0 MSTORE PUSH1 0x20 PUSH1 0x0 KECCAK256 SWAP1 PUSH1 0xB MUL ADD PUSH1 0x9 ADD PUSH1 0x0 PUSH2 0x100 EXP DUP2 SLOAD DUP2 PUSH1 0xFF MUL NOT AND SWAP1 DUP4 PUSH1 0xB DUP2 GT ISZERO PUSH2 0x48BE JUMPI PUSH2 0x48BD PUSH2 0x834A JUMP JUMPDEST JUMPDEST MUL OR SWAP1 SSTORE POP PUSH32 0x188FFF7234F3BB35C4F436313EC14267725515E4CA367843CD416621A72FB8A3 DUP7 DUP7 DUP4 DUP2 MLOAD DUP2 LT PUSH2 0x48F8 JUMPI PUSH2 0x48F7 PUSH2 0x83A8 JUMP JUMPDEST JUMPDEST PUSH1 0x20 MUL PUSH1 0x20 ADD ADD MLOAD PUSH1 0x2 CALLER PUSH1 0x40 MLOAD PUSH2 0x4913 SWAP5 SWAP4 SWAP3 SWAP2 SWAP1 PUSH2 0x7DC8 JUMP JUMPDEST PUSH1 0x40 MLOAD DUP1 SWAP2 SUB SWAP1 LOG1 PUSH2 0x4A64 JUMP JUMPDEST PUSH1 0x1 PUSH1 0xB DUP2 GT ISZERO PUSH2 0x4934 JUMPI PUSH2 0x4933 PUSH2 0x834A JUMP JUMPDEST JUMPDEST DUP3 PUSH1 0xB DUP2 GT ISZERO PUSH2 0x4947 JUMPI PUSH2 0x4946 PUSH2 0x834A JUMP JUMPDEST JUMPDEST EQ ISZERO PUSH2 0x4A26 JUMPI PUSH1 0x3 PUSH1 0x1 PUSH1 0x0 DUP9 DUP2 MSTORE PUSH1 0x20 ADD SWAP1 DUP2 MSTORE PUSH1 0x20 ADD PUSH1 0x0 KECCAK256 PUSH1 0xC ADD DUP7 DUP4 DUP2 MLOAD DUP2 LT PUSH2 0x4978 JUMPI PUSH2 0x4977 PUSH2 0x83A8 JUMP JUMPDEST JUMPDEST PUSH1 0x20 MUL PUSH1 0x20 ADD ADD MLOAD DUP2 SLOAD DUP2 LT PUSH2 0x4991 JUMPI PUSH2 0x4990 PUSH2 0x83A8 JUMP JUMPDEST JUMPDEST SWAP1 PUSH1 0x0 MSTORE PUSH1 0x20 PUSH1 0x0 KECCAK256 SWAP1 PUSH1 0xB MUL ADD PUSH1 0x9 ADD PUSH1 0x0 PUSH2 0x100 EXP DUP2 SLOAD DUP2 PUSH1 0xFF MUL NOT AND SWAP1 DUP4 PUSH1 0xB DUP2 GT ISZERO PUSH2 0x49C4 JUMPI PUSH2 0x49C3 PUSH2 0x834A JUMP JUMPDEST JUMPDEST MUL OR SWAP1 SSTORE POP PUSH32 0x188FFF7234F3BB35C4F436313EC14267725515E4CA367843CD416621A72FB8A3 DUP7 DUP7 DUP4 DUP2 MLOAD DUP2 LT PUSH2 0x49FE JUMPI PUSH2 0x49FD PUSH2 0x83A8 JUMP JUMPDEST JUMPDEST PUSH1 0x20 MUL PUSH1 0x20 ADD ADD MLOAD PUSH1 0x3 CALLER PUSH1 0x40 MLOAD PUSH2 0x4A19 SWAP5 SWAP4 SWAP3 SWAP2 SWAP1 PUSH2 0x7DC8 JUMP JUMPDEST PUSH1 0x40 MLOAD DUP1 SWAP2 SUB SWAP1 LOG1 PUSH2 0x4A63 JUMP JUMPDEST DUP2 PUSH1 0x40 MLOAD PUSH32 0xCDEC874A00000000000000000000000000000000000000000000000000000000 DUP2 MSTORE PUSH1 0x4 ADD PUSH2 0x4A5A SWAP2 SWAP1 PUSH2 0x7B99 JUMP JUMPDEST PUSH1 0x40 MLOAD DUP1 SWAP2 SUB SWAP1 REVERT JUMPDEST JUMPDEST DUP3 PUSH1 0x0 ADD DUP6 DUP3 DUP2 MLOAD DUP2 LT PUSH2 0x4A7B JUMPI PUSH2 0x4A7A PUSH2 0x83A8 JUMP JUMPDEST JUMPDEST PUSH1 0x20 MUL PUSH1 0x20 ADD ADD MLOAD SWAP1 DUP1 PUSH1 0x1 DUP2 SLOAD ADD DUP1 DUP3 SSTORE DUP1 SWAP2 POP POP PUSH1 0x1 SWAP1 SUB SWAP1 PUSH1 0x0 MSTORE PUSH1 0x20 PUSH1 0x0 KECCAK256 ADD PUSH1 0x0 SWAP1 SWAP2 SWAP1 SWAP2 SWAP1 SWAP2 POP SSTORE DUP1 DUP1 PUSH2 0x4AB4 SWAP1 PUSH2 0x82A3 JUMP JUMPDEST SWAP2 POP POP PUSH2 0x47AE JUMP JUMPDEST POP PUSH1 0x1 PUSH1 0x0 DUP7 DUP2 MSTORE PUSH1 0x20 ADD SWAP1 DUP2 MSTORE PUSH1 0x20 ADD PUSH1 0x0 KECCAK256 PUSH1 0x13 ADD PUSH1 0x0 DUP2 SLOAD DUP1 SWAP3 SWAP2 SWAP1 PUSH2 0x4AE4 SWAP1 PUSH2 0x82A3 JUMP JUMPDEST SWAP2 SWAP1 POP SSTORE POP PUSH2 0x4AF4 DUP6 PUSH1 0x1 PUSH2 0x1324 JUMP JUMPDEST ISZERO PUSH2 0x4B65 JUMPI PUSH1 0x0 PUSH1 0x1 PUSH1 0x0 DUP8 DUP2 MSTORE PUSH1 0x20 ADD SWAP1 DUP2 MSTORE PUSH1 0x20 ADD PUSH1 0x0 KECCAK256 PUSH1 0x15 ADD PUSH1 0x0 PUSH2 0x100 EXP DUP2 SLOAD DUP2 PUSH1 0xFF MUL NOT AND SWAP1 DUP4 ISZERO ISZERO MUL OR SWAP1 SSTORE POP PUSH32 0x398FD552105B0090D73611AD526D12979F19B77A7F923343A85D8FD14A13A67 DUP6 PUSH1 0x0 CALLER PUSH1 0x40 MLOAD PUSH2 0x4B5C SWAP4 SWAP3 SWAP2 SWAP1 PUSH2 0x7CEC JUMP JUMPDEST PUSH1 0x40 MLOAD DUP1 SWAP2 SUB SWAP1 LOG1 JUMPDEST POP POP POP POP POP JUMP JUMPDEST PUSH1 0x0 PUSH1 0x1 PUSH1 0x0 DUP5 DUP2 MSTORE PUSH1 0x20 ADD SWAP1 DUP2 MSTORE PUSH1 0x20 ADD PUSH1 0x0 KECCAK256 SWAP1 POP DUP2 PUSH1 0x0 ADD MLOAD DUP2 PUSH1 0x1 ADD DUP2 SWAP1 SSTORE POP DUP2 PUSH1 0x20 ADD MLOAD DUP2 PUSH1 0x2 ADD SWAP1 DUP1 MLOAD SWAP1 PUSH1 0x20 ADD SWAP1 PUSH2 0x4BAC SWAP3 SWAP2 SWAP1 PUSH2 0x631A JUMP JUMPDEST POP DUP2 PUSH1 0x40 ADD MLOAD DUP2 PUSH1 0x3 ADD SWAP1 DUP1 MLOAD SWAP1 PUSH1 0x20 ADD SWAP1 PUSH2 0x4BC9 SWAP3 SWAP2 SWAP1 PUSH2 0x631A JUMP JUMPDEST POP DUP2 PUSH1 0x60 ADD MLOAD DUP2 PUSH1 0x4 ADD DUP2 SWAP1 SSTORE POP DUP2 PUSH1 0x80 ADD MLOAD DUP2 PUSH1 0x5 ADD DUP2 SWAP1 SSTORE POP DUP2 PUSH1 0xA0 ADD MLOAD DUP2 PUSH1 0x6 ADD DUP2 SWAP1 SSTORE POP DUP2 PUSH1 0xC0 ADD MLOAD DUP2 PUSH1 0x7 ADD SWAP1 DUP1 MLOAD SWAP1 PUSH1 0x20 ADD SWAP1 PUSH2 0x4C0D SWAP3 SWAP2 SWAP1 PUSH2 0x63A0 JUMP JUMPDEST POP DUP2 PUSH1 0xE0 ADD MLOAD DUP2 PUSH1 0x8 ADD DUP2 SWAP1 SSTORE POP DUP2 PUSH2 0x100 ADD MLOAD DUP2 PUSH1 0x9 ADD DUP2 SWAP1 SSTORE POP DUP2 PUSH2 0x160 ADD MLOAD DUP2 PUSH1 0xB ADD DUP2 SWAP1 SSTORE POP DUP2 PUSH2 0x120 ADD MLOAD DUP2 PUSH1 0xA ADD PUSH1 0x0 PUSH2 0x100 EXP DUP2 SLOAD DUP2 PUSH1 0xFF MUL NOT AND SWAP1 DUP4 ISZERO ISZERO MUL OR SWAP1 SSTORE POP DUP2 PUSH2 0x140 ADD MLOAD DUP2 PUSH1 0xA ADD PUSH1 0x1 PUSH2 0x100 EXP DUP2 SLOAD DUP2 PUSH1 0xFF MUL NOT AND SWAP1 DUP4 ISZERO ISZERO MUL OR SWAP1 SSTORE POP PUSH1 0x1 DUP2 PUSH1 0x15 ADD PUSH1 0x2 PUSH2 0x100 EXP DUP2 SLOAD DUP2 PUSH1 0xFF MUL NOT AND SWAP1 DUP4 PUSH1 0x6 DUP2 GT ISZERO PUSH2 0x4CA1 JUMPI PUSH2 0x4CA0 PUSH2 0x834A JUMP JUMPDEST JUMPDEST MUL OR SWAP1 SSTORE POP DUP2 PUSH2 0x140 ADD MLOAD ISZERO PUSH2 0x4CD4 JUMPI DUP2 PUSH2 0x180 ADD MLOAD MLOAD DUP2 PUSH1 0x11 ADD DUP2 SWAP1 SSTORE POP DUP2 PUSH2 0x180 ADD MLOAD MLOAD DUP2 PUSH1 0x11 ADD DUP2 SWAP1 SSTORE POP PUSH2 0x4CE9 JUMP JUMPDEST PUSH1 0x1 DUP2 PUSH1 0x11 ADD DUP2 SWAP1 SSTORE POP PUSH1 0x1 DUP2 PUSH1 0x11 ADD DUP2 SWAP1 SSTORE POP JUMPDEST PUSH1 0x1 DUP2 PUSH1 0x15 ADD PUSH1 0x0 PUSH2 0x100 EXP DUP2 SLOAD DUP2 PUSH1 0xFF MUL NOT AND SWAP1 DUP4 ISZERO ISZERO MUL OR SWAP1 SSTORE POP PUSH1 0x1 DUP2 PUSH1 0x15 ADD PUSH1 0x2 PUSH2 0x100 EXP DUP2 SLOAD DUP2 PUSH1 0xFF MUL NOT AND SWAP1 DUP4 PUSH1 0x6 DUP2 GT ISZERO PUSH2 0x4D2E JUMPI PUSH2 0x4D2D PUSH2 0x834A JUMP JUMPDEST JUMPDEST MUL OR SWAP1 SSTORE POP PUSH1 0x0 JUMPDEST DUP3 PUSH2 0x180 ADD MLOAD MLOAD DUP2 LT ISZERO PUSH2 0x4E7E JUMPI DUP2 PUSH1 0xC ADD DUP4 PUSH2 0x180 ADD MLOAD DUP3 DUP2 MLOAD DUP2 LT PUSH2 0x4D60 JUMPI PUSH2 0x4D5F PUSH2 0x83A8 JUMP JUMPDEST JUMPDEST PUSH1 0x20 MUL PUSH1 0x20 ADD ADD MLOAD SWAP1 DUP1 PUSH1 0x1 DUP2 SLOAD ADD DUP1 DUP3 SSTORE DUP1 SWAP2 POP POP PUSH1 0x1 SWAP1 SUB SWAP1 PUSH1 0x0 MSTORE PUSH1 0x20 PUSH1 0x0 KECCAK256 SWAP1 PUSH1 0xB MUL ADD PUSH1 0x0 SWAP1 SWAP2 SWAP1 SWAP2 SWAP1 SWAP2 POP PUSH1 0x0 DUP3 ADD MLOAD DUP2 PUSH1 0x0 ADD PUSH1 0x0 DUP3 ADD MLOAD DUP2 PUSH1 0x0 ADD SWAP1 DUP1 MLOAD SWAP1 PUSH1 0x20 ADD SWAP1 PUSH2 0x4DB6 SWAP3 SWAP2 SWAP1 PUSH2 0x631A JUMP JUMPDEST POP PUSH1 0x20 DUP3 ADD MLOAD DUP2 PUSH1 0x1 ADD SSTORE PUSH1 0x40 DUP3 ADD MLOAD DUP2 PUSH1 0x2 ADD SSTORE PUSH1 0x60 DUP3 ADD MLOAD DUP2 PUSH1 0x3 ADD SSTORE PUSH1 0x80 DUP3 ADD MLOAD DUP2 PUSH1 0x4 ADD SSTORE PUSH1 0xA0 DUP3 ADD MLOAD DUP2 PUSH1 0x5 ADD SSTORE PUSH1 0xC0 DUP3 ADD MLOAD DUP2 PUSH1 0x6 ADD SWAP1 DUP1 MLOAD SWAP1 PUSH1 0x20 ADD SWAP1 PUSH2 0x4E05 SWAP3 SWAP2 SWAP1 PUSH2 0x631A JUMP JUMPDEST POP POP POP PUSH1 0x20 DUP3 ADD MLOAD DUP2 PUSH1 0x7 ADD SSTORE PUSH1 0x40 DUP3 ADD MLOAD DUP2 PUSH1 0x8 ADD SWAP1 DUP1 MLOAD SWAP1 PUSH1 0x20 ADD SWAP1 PUSH2 0x4E2E SWAP3 SWAP2 SWAP1 PUSH2 0x631A JUMP JUMPDEST POP PUSH1 0x60 DUP3 ADD MLOAD DUP2 PUSH1 0x9 ADD PUSH1 0x0 PUSH2 0x100 EXP DUP2 SLOAD DUP2 PUSH1 0xFF MUL NOT AND SWAP1 DUP4 PUSH1 0xB DUP2 GT ISZERO PUSH2 0x4E5A JUMPI PUSH2 0x4E59 PUSH2 0x834A JUMP JUMPDEST JUMPDEST MUL OR SWAP1 SSTORE POP PUSH1 0x80 DUP3 ADD MLOAD DUP2 PUSH1 0xA ADD SSTORE POP POP DUP1 DUP1 PUSH2 0x4E76 SWAP1 PUSH2 0x82A3 JUMP JUMPDEST SWAP2 POP POP PUSH2 0x4D36 JUMP JUMPDEST POP POP POP POP JUMP JUMPDEST PUSH1 0x0 DUP2 DUP4 PUSH2 0x4E92 SWAP2 SWAP1 PUSH2 0x80B9 JUMP JUMPDEST SWAP1 POP SWAP3 SWAP2 POP POP JUMP JUMPDEST PUSH1 0x0 PUSH1 0x1 PUSH1 0x0 DUP8 DUP2 MSTORE PUSH1 0x20 ADD SWAP1 DUP2 MSTORE PUSH1 0x20 ADD PUSH1 0x0 KECCAK256 SWAP1 POP PUSH1 0x3 DUP2 PUSH1 0xF ADD PUSH1 0x0 DUP8 PUSH20 0xFFFFFFFFFFFFFFFFFFFFFFFFFFFFFFFFFFFFFFFF AND PUSH20 0xFFFFFFFFFFFFFFFFFFFFFFFFFFFFFFFFFFFFFFFF AND DUP2 MSTORE PUSH1 0x20 ADD SWAP1 DUP2 MSTORE PUSH1 0x20 ADD PUSH1 0x0 KECCAK256 PUSH1 0x1 ADD PUSH1 0x0 DUP6 DUP2 MSTORE PUSH1 0x20 ADD SWAP1 DUP2 MSTORE PUSH1 0x20 ADD PUSH1 0x0 KECCAK256 PUSH1 0x0 ADD PUSH1 0x0 PUSH2 0x100 EXP DUP2 SLOAD DUP2 PUSH1 0xFF MUL NOT AND SWAP1 DUP4 PUSH1 0x4 DUP2 GT ISZERO PUSH2 0x4F2D JUMPI PUSH2 0x4F2C PUSH2 0x834A JUMP JUMPDEST JUMPDEST MUL OR SWAP1 SSTORE POP PUSH32 0x4B906571B20F3DCDF826B53F3C66528E252B2EB87DE3CB812F18E6859E119344 DUP7 DUP7 DUP6 PUSH1 0x3 PUSH1 0x1 CALLER PUSH1 0x40 MLOAD PUSH2 0x4F6D SWAP7 SWAP6 SWAP5 SWAP4 SWAP3 SWAP2 SWAP1 PUSH2 0x7C3F JUMP JUMPDEST PUSH1 0x40 MLOAD DUP1 SWAP2 SUB SWAP1 LOG1 PUSH1 0x6 DUP2 PUSH1 0xC ADD DUP5 DUP2 SLOAD DUP2 LT PUSH2 0x4F8D JUMPI PUSH2 0x4F8C PUSH2 0x83A8 JUMP JUMPDEST JUMPDEST SWAP1 PUSH1 0x0 MSTORE PUSH1 0x20 PUSH1 0x0 KECCAK256 SWAP1 PUSH1 0xB MUL ADD PUSH1 0x9 ADD PUSH1 0x0 PUSH2 0x100 EXP DUP2 SLOAD DUP2 PUSH1 0xFF MUL NOT AND SWAP1 DUP4 PUSH1 0xB DUP2 GT ISZERO PUSH2 0x4FC0 JUMPI PUSH2 0x4FBF PUSH2 0x834A JUMP JUMPDEST JUMPDEST MUL OR SWAP1 SSTORE POP PUSH32 0x188FFF7234F3BB35C4F436313EC14267725515E4CA367843CD416621A72FB8A3 DUP7 DUP5 PUSH1 0x6 CALLER PUSH1 0x40 MLOAD PUSH2 0x4FFB SWAP5 SWAP4 SWAP3 SWAP2 SWAP1 PUSH2 0x7DC8 JUMP JUMPDEST PUSH1 0x40 MLOAD DUP1 SWAP2 SUB SWAP1 LOG1 TIMESTAMP DUP2 PUSH1 0xC ADD DUP5 DUP2 SLOAD DUP2 LT PUSH2 0x501A JUMPI PUSH2 0x5019 PUSH2 0x83A8 JUMP JUMPDEST JUMPDEST SWAP1 PUSH1 0x0 MSTORE PUSH1 0x20 PUSH1 0x0 KECCAK256 SWAP1 PUSH1 0xB MUL ADD PUSH1 0xA ADD DUP2 SWAP1 SSTORE POP DUP2 DUP2 PUSH1 0x10 ADD PUSH1 0x0 DUP7 PUSH20 0xFFFFFFFFFFFFFFFFFFFFFFFFFFFFFFFFFFFFFFFF AND PUSH20 0xFFFFFFFFFFFFFFFFFFFFFFFFFFFFFFFFFFFFFFFF AND DUP2 MSTORE PUSH1 0x20 ADD SWAP1 DUP2 MSTORE PUSH1 0x20 ADD PUSH1 0x0 KECCAK256 PUSH1 0x1 ADD PUSH1 0x0 DUP6 DUP2 MSTORE PUSH1 0x20 ADD SWAP1 DUP2 MSTORE PUSH1 0x20 ADD PUSH1 0x0 KECCAK256 PUSH1 0x1 ADD SWAP1 DUP1 MLOAD SWAP1 PUSH1 0x20 ADD SWAP1 PUSH2 0x509B SWAP3 SWAP2 SWAP1 PUSH2 0x631A JUMP JUMPDEST POP PUSH1 0x1 DUP2 PUSH1 0x10 ADD PUSH1 0x0 DUP7 PUSH20 0xFFFFFFFFFFFFFFFFFFFFFFFFFFFFFFFFFFFFFFFF AND PUSH20 0xFFFFFFFFFFFFFFFFFFFFFFFFFFFFFFFFFFFFFFFF AND DUP2 MSTORE PUSH1 0x20 ADD SWAP1 DUP2 MSTORE PUSH1 0x20 ADD PUSH1 0x0 KECCAK256 PUSH1 0x1 ADD PUSH1 0x0 DUP6 DUP2 MSTORE PUSH1 0x20 ADD SWAP1 DUP2 MSTORE PUSH1 0x20 ADD PUSH1 0x0 KECCAK256 PUSH1 0x0 ADD PUSH1 0x0 PUSH2 0x100 EXP DUP2 SLOAD DUP2 PUSH1 0xFF MUL NOT AND SWAP1 DUP4 PUSH1 0x4 DUP2 GT ISZERO PUSH2 0x5118 JUMPI PUSH2 0x5117 PUSH2 0x834A JUMP JUMPDEST JUMPDEST MUL OR SWAP1 SSTORE POP PUSH32 0x4B906571B20F3DCDF826B53F3C66528E252B2EB87DE3CB812F18E6859E119344 DUP7 DUP6 DUP6 PUSH1 0x1 PUSH1 0x0 CALLER PUSH1 0x40 MLOAD PUSH2 0x5158 SWAP7 SWAP6 SWAP5 SWAP4 SWAP3 SWAP2 SWAP1 PUSH2 0x7C3F JUMP JUMPDEST PUSH1 0x40 MLOAD DUP1 SWAP2 SUB SWAP1 LOG1 POP POP POP POP POP POP JUMP JUMPDEST DUP1 ISZERO PUSH2 0x52E9 JUMPI PUSH1 0x2 PUSH1 0x1 PUSH1 0x0 DUP7 DUP2 MSTORE PUSH1 0x20 ADD SWAP1 DUP2 MSTORE PUSH1 0x20 ADD PUSH1 0x0 KECCAK256 PUSH1 0xF ADD PUSH1 0x0 DUP6 PUSH20 0xFFFFFFFFFFFFFFFFFFFFFFFFFFFFFFFFFFFFFFFF AND PUSH20 0xFFFFFFFFFFFFFFFFFFFFFFFFFFFFFFFFFFFFFFFF AND DUP2 MSTORE PUSH1 0x20 ADD SWAP1 DUP2 MSTORE PUSH1 0x20 ADD PUSH1 0x0 KECCAK256 PUSH1 0x1 ADD PUSH1 0x0 DUP5 DUP2 MSTORE PUSH1 0x20 ADD SWAP1 DUP2 MSTORE PUSH1 0x20 ADD PUSH1 0x0 KECCAK256 PUSH1 0x0 ADD PUSH1 0x0 PUSH2 0x100 EXP DUP2 SLOAD DUP2 PUSH1 0xFF MUL NOT AND SWAP1 DUP4 PUSH1 0x4 DUP2 GT ISZERO PUSH2 0x51FC JUMPI PUSH2 0x51FB PUSH2 0x834A JUMP JUMPDEST JUMPDEST MUL OR SWAP1 SSTORE POP PUSH32 0x4B906571B20F3DCDF826B53F3C66528E252B2EB87DE3CB812F18E6859E119344 DUP5 DUP5 DUP5 PUSH1 0x2 PUSH1 0x1 CALLER PUSH1 0x40 MLOAD PUSH2 0x523C SWAP7 SWAP6 SWAP5 SWAP4 SWAP3 SWAP2 SWAP1 PUSH2 0x7C3F JUMP JUMPDEST PUSH1 0x40 MLOAD DUP1 SWAP2 SUB SWAP1 LOG1 PUSH1 0x5 PUSH1 0x1 PUSH1 0x0 DUP7 DUP2 MSTORE PUSH1 0x20 ADD SWAP1 DUP2 MSTORE PUSH1 0x20 ADD PUSH1 0x0 KECCAK256 PUSH1 0xC ADD DUP4 DUP2 SLOAD DUP2 LT PUSH2 0x526E JUMPI PUSH2 0x526D PUSH2 0x83A8 JUMP JUMPDEST JUMPDEST SWAP1 PUSH1 0x0 MSTORE PUSH1 0x20 PUSH1 0x0 KECCAK256 SWAP1 PUSH1 0xB MUL ADD PUSH1 0x9 ADD PUSH1 0x0 PUSH2 0x100 EXP DUP2 SLOAD DUP2 PUSH1 0xFF MUL NOT AND SWAP1 DUP4 PUSH1 0xB DUP2 GT ISZERO PUSH2 0x52A1 JUMPI PUSH2 0x52A0 PUSH2 0x834A JUMP JUMPDEST JUMPDEST MUL OR SWAP1 SSTORE POP PUSH32 0x188FFF7234F3BB35C4F436313EC14267725515E4CA367843CD416621A72FB8A3 DUP5 DUP4 PUSH1 0x5 CALLER PUSH1 0x40 MLOAD PUSH2 0x52DC SWAP5 SWAP4 SWAP3 SWAP2 SWAP1 PUSH2 0x7DC8 JUMP JUMPDEST PUSH1 0x40 MLOAD DUP1 SWAP2 SUB SWAP1 LOG1 PUSH2 0x5460 JUMP JUMPDEST PUSH1 0x2 PUSH1 0x1 PUSH1 0x0 DUP7 DUP2 MSTORE PUSH1 0x20 ADD SWAP1 DUP2 MSTORE PUSH1 0x20 ADD PUSH1 0x0 KECCAK256 PUSH1 0x10 ADD PUSH1 0x0 DUP6 PUSH20 0xFFFFFFFFFFFFFFFFFFFFFFFFFFFFFFFFFFFFFFFF AND PUSH20 0xFFFFFFFFFFFFFFFFFFFFFFFFFFFFFFFFFFFFFFFF AND DUP2 MSTORE PUSH1 0x20 ADD SWAP1 DUP2 MSTORE PUSH1 0x20 ADD PUSH1 0x0 KECCAK256 PUSH1 0x1 ADD PUSH1 0x0 DUP5 DUP2 MSTORE PUSH1 0x20 ADD SWAP1 DUP2 MSTORE PUSH1 0x20 ADD PUSH1 0x0 KECCAK256 PUSH1 0x0 ADD PUSH1 0x0 PUSH2 0x100 EXP DUP2 SLOAD DUP2 PUSH1 0xFF MUL NOT AND SWAP1 DUP4 PUSH1 0x4 DUP2 GT ISZERO PUSH2 0x5377 JUMPI PUSH2 0x5376 PUSH2 0x834A JUMP JUMPDEST JUMPDEST MUL OR SWAP1 SSTORE POP PUSH32 0x4B906571B20F3DCDF826B53F3C66528E252B2EB87DE3CB812F18E6859E119344 DUP5 DUP5 DUP5 PUSH1 0x2 PUSH1 0x0 CALLER PUSH1 0x40 MLOAD PUSH2 0x53B7 SWAP7 SWAP6 SWAP5 SWAP4 SWAP3 SWAP2 SWAP1 PUSH2 0x7C3F JUMP JUMPDEST PUSH1 0x40 MLOAD DUP1 SWAP2 SUB SWAP1 LOG1 PUSH1 0x7 PUSH1 0x1 PUSH1 0x0 DUP7 DUP2 MSTORE PUSH1 0x20 ADD SWAP1 DUP2 MSTORE PUSH1 0x20 ADD PUSH1 0x0 KECCAK256 PUSH1 0xC ADD DUP4 DUP2 SLOAD DUP2 LT PUSH2 0x53E9 JUMPI PUSH2 0x53E8 PUSH2 0x83A8 JUMP JUMPDEST JUMPDEST SWAP1 PUSH1 0x0 MSTORE PUSH1 0x20 PUSH1 0x0 KECCAK256 SWAP1 PUSH1 0xB MUL ADD PUSH1 0x9 ADD PUSH1 0x0 PUSH2 0x100 EXP DUP2 SLOAD DUP2 PUSH1 0xFF MUL NOT AND SWAP1 DUP4 PUSH1 0xB DUP2 GT ISZERO PUSH2 0x541C JUMPI PUSH2 0x541B PUSH2 0x834A JUMP JUMPDEST JUMPDEST MUL OR SWAP1 SSTORE POP PUSH32 0x188FFF7234F3BB35C4F436313EC14267725515E4CA367843CD416621A72FB8A3 DUP5 DUP4 PUSH1 0x7 CALLER PUSH1 0x40 MLOAD PUSH2 0x5457 SWAP5 SWAP4 SWAP3 SWAP2 SWAP1 PUSH2 0x7DC8 JUMP JUMPDEST PUSH1 0x40 MLOAD DUP1 SWAP2 SUB SWAP1 LOG1 JUMPDEST POP POP POP POP JUMP JUMPDEST PUSH1 0x0 CALLER SWAP1 POP SWAP1 JUMP JUMPDEST DUP1 ISZERO PUSH2 0x55A1 JUMPI PUSH1 0x0 JUMPDEST DUP4 MLOAD DUP2 LT ISZERO PUSH2 0x559B JUMPI DUP3 PUSH1 0x1 PUSH1 0x0 DUP9 DUP2 MSTORE PUSH1 0x20 ADD SWAP1 DUP2 MSTORE PUSH1 0x20 ADD PUSH1 0x0 KECCAK256 PUSH1 0xF ADD PUSH1 0x0 DUP8 PUSH20 0xFFFFFFFFFFFFFFFFFFFFFFFFFFFFFFFFFFFFFFFF AND PUSH20 0xFFFFFFFFFFFFFFFFFFFFFFFFFFFFFFFFFFFFFFFF AND DUP2 MSTORE PUSH1 0x20 ADD SWAP1 DUP2 MSTORE PUSH1 0x20 ADD PUSH1 0x0 KECCAK256 PUSH1 0x1 ADD PUSH1 0x0 DUP7 DUP5 DUP2 MLOAD DUP2 LT PUSH2 0x54EC JUMPI PUSH2 0x54EB PUSH2 0x83A8 JUMP JUMPDEST JUMPDEST PUSH1 0x20 MUL PUSH1 0x20 ADD ADD MLOAD DUP2 MSTORE PUSH1 0x20 ADD SWAP1 DUP2 MSTORE PUSH1 0x20 ADD PUSH1 0x0 KECCAK256 PUSH1 0x0 ADD PUSH1 0x0 PUSH2 0x100 EXP DUP2 SLOAD DUP2 PUSH1 0xFF MUL NOT AND SWAP1 DUP4 PUSH1 0x4 DUP2 GT ISZERO PUSH2 0x5527 JUMPI PUSH2 0x5526 PUSH2 0x834A JUMP JUMPDEST JUMPDEST MUL OR SWAP1 SSTORE POP PUSH32 0x4B906571B20F3DCDF826B53F3C66528E252B2EB87DE3CB812F18E6859E119344 DUP7 DUP7 DUP7 DUP5 DUP2 MLOAD DUP2 LT PUSH2 0x5562 JUMPI PUSH2 0x5561 PUSH2 0x83A8 JUMP JUMPDEST JUMPDEST PUSH1 0x20 MUL PUSH1 0x20 ADD ADD MLOAD DUP7 PUSH1 0x1 CALLER PUSH1 0x40 MLOAD PUSH2 0x5580 SWAP7 SWAP6 SWAP5 SWAP4 SWAP3 SWAP2 SWAP1 PUSH2 0x7C3F JUMP JUMPDEST PUSH1 0x40 MLOAD DUP1 SWAP2 SUB SWAP1 LOG1 DUP1 DUP1 PUSH2 0x5593 SWAP1 PUSH2 0x82A3 JUMP JUMPDEST SWAP2 POP POP PUSH2 0x5477 JUMP JUMPDEST POP PUSH2 0x56CA JUMP JUMPDEST PUSH1 0x0 JUMPDEST DUP4 MLOAD DUP2 LT ISZERO PUSH2 0x56C8 JUMPI DUP3 PUSH1 0x1 PUSH1 0x0 DUP9 DUP2 MSTORE PUSH1 0x20 ADD SWAP1 DUP2 MSTORE PUSH1 0x20 ADD PUSH1 0x0 KECCAK256 PUSH1 0x10 ADD PUSH1 0x0 DUP8 PUSH20 0xFFFFFFFFFFFFFFFFFFFFFFFFFFFFFFFFFFFFFFFF AND PUSH20 0xFFFFFFFFFFFFFFFFFFFFFFFFFFFFFFFFFFFFFFFF AND DUP2 MSTORE PUSH1 0x20 ADD SWAP1 DUP2 MSTORE PUSH1 0x20 ADD PUSH1 0x0 KECCAK256 PUSH1 0x1 ADD PUSH1 0x0 DUP7 DUP5 DUP2 MLOAD DUP2 LT PUSH2 0x5619 JUMPI PUSH2 0x5618 PUSH2 0x83A8 JUMP JUMPDEST JUMPDEST PUSH1 0x20 MUL PUSH1 0x20 ADD ADD MLOAD DUP2 MSTORE PUSH1 0x20 ADD SWAP1 DUP2 MSTORE PUSH1 0x20 ADD PUSH1 0x0 KECCAK256 PUSH1 0x0 ADD PUSH1 0x0 PUSH2 0x100 EXP DUP2 SLOAD DUP2 PUSH1 0xFF MUL NOT AND SWAP1 DUP4 PUSH1 0x4 DUP2 GT ISZERO PUSH2 0x5654 JUMPI PUSH2 0x5653 PUSH2 0x834A JUMP JUMPDEST JUMPDEST MUL OR SWAP1 SSTORE POP PUSH32 0x4B906571B20F3DCDF826B53F3C66528E252B2EB87DE3CB812F18E6859E119344 DUP7 DUP7 DUP7 DUP5 DUP2 MLOAD DUP2 LT PUSH2 0x568F JUMPI PUSH2 0x568E PUSH2 0x83A8 JUMP JUMPDEST JUMPDEST PUSH1 0x20 MUL PUSH1 0x20 ADD ADD MLOAD DUP7 PUSH1 0x0 CALLER PUSH1 0x40 MLOAD PUSH2 0x56AD SWAP7 SWAP6 SWAP5 SWAP4 SWAP3 SWAP2 SWAP1 PUSH2 0x7C3F JUMP JUMPDEST PUSH1 0x40 MLOAD DUP1 SWAP2 SUB SWAP1 LOG1 DUP1 DUP1 PUSH2 0x56C0 SWAP1 PUSH2 0x82A3 JUMP JUMPDEST SWAP2 POP POP PUSH2 0x55A4 JUMP JUMPDEST POP JUMPDEST POP POP POP POP POP JUMP JUMPDEST PUSH1 0x0 PUSH2 0x56DE DUP3 PUSH1 0x36 PUSH2 0x21BC JUMP JUMPDEST SWAP1 POP SWAP2 SWAP1 POP JUMP JUMPDEST PUSH1 0x3 PUSH1 0x1 PUSH1 0x0 DUP6 DUP2 MSTORE PUSH1 0x20 ADD SWAP1 DUP2 MSTORE PUSH1 0x20 ADD PUSH1 0x0 KECCAK256 PUSH1 0x10 ADD PUSH1 0x0 DUP5 PUSH20 0xFFFFFFFFFFFFFFFFFFFFFFFFFFFFFFFFFFFFFFFF AND PUSH20 0xFFFFFFFFFFFFFFFFFFFFFFFFFFFFFFFFFFFFFFFF AND DUP2 MSTORE PUSH1 0x20 ADD SWAP1 DUP2 MSTORE PUSH1 0x20 ADD PUSH1 0x0 KECCAK256 PUSH1 0x1 ADD PUSH1 0x0 DUP4 DUP2 MSTORE PUSH1 0x20 ADD SWAP1 DUP2 MSTORE PUSH1 0x20 ADD PUSH1 0x0 KECCAK256 PUSH1 0x0 ADD PUSH1 0x0 PUSH2 0x100 EXP DUP2 SLOAD DUP2 PUSH1 0xFF MUL NOT AND SWAP1 DUP4 PUSH1 0x4 DUP2 GT ISZERO PUSH2 0x5773 JUMPI PUSH2 0x5772 PUSH2 0x834A JUMP JUMPDEST JUMPDEST MUL OR SWAP1 SSTORE POP PUSH32 0x4B906571B20F3DCDF826B53F3C66528E252B2EB87DE3CB812F18E6859E119344 DUP4 DUP4 DUP4 PUSH1 0x3 PUSH1 0x0 CALLER PUSH1 0x40 MLOAD PUSH2 0x57B3 SWAP7 SWAP6 SWAP5 SWAP4 SWAP3 SWAP2 SWAP1 PUSH2 0x7C3F JUMP JUMPDEST PUSH1 0x40 MLOAD DUP1 SWAP2 SUB SWAP1 LOG1 PUSH1 0x8 PUSH1 0x1 PUSH1 0x0 DUP6 DUP2 MSTORE PUSH1 0x20 ADD SWAP1 DUP2 MSTORE PUSH1 0x20 ADD PUSH1 0x0 KECCAK256 PUSH1 0xC ADD DUP3 DUP2 SLOAD DUP2 LT PUSH2 0x57E5 JUMPI PUSH2 0x57E4 PUSH2 0x83A8 JUMP JUMPDEST JUMPDEST SWAP1 PUSH1 0x0 MSTORE PUSH1 0x20 PUSH1 0x0 KECCAK256 SWAP1 PUSH1 0xB MUL ADD PUSH1 0x9 ADD PUSH1 0x0 PUSH2 0x100 EXP DUP2 SLOAD DUP2 PUSH1 0xFF MUL NOT AND SWAP1 DUP4 PUSH1 0xB DUP2 GT ISZERO PUSH2 0x5818 JUMPI PUSH2 0x5817 PUSH2 0x834A JUMP JUMPDEST JUMPDEST MUL OR SWAP1 SSTORE POP PUSH32 0x188FFF7234F3BB35C4F436313EC14267725515E4CA367843CD416621A72FB8A3 DUP4 DUP3 PUSH1 0x8 CALLER PUSH1 0x40 MLOAD PUSH2 0x5853 SWAP5 SWAP4 SWAP3 SWAP2 SWAP1 PUSH2 0x7DC8 JUMP JUMPDEST PUSH1 0x40 MLOAD DUP1 SWAP2 SUB SWAP1 LOG1 POP POP POP JUMP JUMPDEST PUSH1 0x0 PUSH1 0x1 PUSH1 0x0 DUP4 DUP2 MSTORE PUSH1 0x20 ADD SWAP1 DUP2 MSTORE PUSH1 0x20 ADD PUSH1 0x0 KECCAK256 PUSH1 0x15 ADD PUSH1 0x0 PUSH2 0x100 EXP DUP2 SLOAD DUP2 PUSH1 0xFF MUL NOT AND SWAP1 DUP4 ISZERO ISZERO MUL OR SWAP1 SSTORE POP PUSH32 0x398FD552105B0090D73611AD526D12979F19B77A7F923343A85D8FD14A13A67 DUP2 PUSH1 0x0 CALLER PUSH1 0x40 MLOAD PUSH2 0x58C3 SWAP4 SWAP3 SWAP2 SWAP1 PUSH2 0x7CEC JUMP JUMPDEST PUSH1 0x40 MLOAD DUP1 SWAP2 SUB SWAP1 LOG1 POP JUMP JUMPDEST PUSH1 0x0 DUP2 ISZERO PUSH2 0x5970 JUMPI PUSH1 0x1 PUSH1 0x0 DUP7 DUP2 MSTORE PUSH1 0x20 ADD SWAP1 DUP2 MSTORE PUSH1 0x20 ADD PUSH1 0x0 KECCAK256 PUSH1 0xF ADD PUSH1 0x0 DUP5 PUSH20 0xFFFFFFFFFFFFFFFFFFFFFFFFFFFFFFFFFFFFFFFF AND PUSH20 0xFFFFFFFFFFFFFFFFFFFFFFFFFFFFFFFFFFFFFFFF AND DUP2 MSTORE PUSH1 0x20 ADD SWAP1 DUP2 MSTORE PUSH1 0x20 ADD PUSH1 0x0 KECCAK256 PUSH1 0x1 ADD PUSH1 0x0 DUP6 DUP2 MSTORE PUSH1 0x20 ADD SWAP1 DUP2 MSTORE PUSH1 0x20 ADD PUSH1 0x0 KECCAK256 SWAP1 POP PUSH1 0x1 PUSH1 0x0 DUP7 DUP2 MSTORE PUSH1 0x20 ADD SWAP1 DUP2 MSTORE PUSH1 0x20 ADD PUSH1 0x0 KECCAK256 PUSH1 0x13 ADD PUSH1 0x0 DUP2 SLOAD DUP1 SWAP3 SWAP2 SWAP1 PUSH2 0x5966 SWAP1 PUSH2 0x82A3 JUMP JUMPDEST SWAP2 SWAP1 POP SSTORE POP PUSH2 0x5A06 JUMP JUMPDEST PUSH1 0x1 PUSH1 0x0 DUP7 DUP2 MSTORE PUSH1 0x20 ADD SWAP1 DUP2 MSTORE PUSH1 0x20 ADD PUSH1 0x0 KECCAK256 PUSH1 0x10 ADD PUSH1 0x0 DUP5 PUSH20 0xFFFFFFFFFFFFFFFFFFFFFFFFFFFFFFFFFFFFFFFF AND PUSH20 0xFFFFFFFFFFFFFFFFFFFFFFFFFFFFFFFFFFFFFFFF AND DUP2 MSTORE PUSH1 0x20 ADD SWAP1 DUP2 MSTORE PUSH1 0x20 ADD PUSH1 0x0 KECCAK256 PUSH1 0x1 ADD PUSH1 0x0 DUP6 DUP2 MSTORE PUSH1 0x20 ADD SWAP1 DUP2 MSTORE PUSH1 0x20 ADD PUSH1 0x0 KECCAK256 SWAP1 POP PUSH1 0x1 PUSH1 0x0 DUP7 DUP2 MSTORE PUSH1 0x20 ADD SWAP1 DUP2 MSTORE PUSH1 0x20 ADD PUSH1 0x0 KECCAK256 PUSH1 0x14 ADD PUSH1 0x0 DUP2 SLOAD DUP1 SWAP3 SWAP2 SWAP1 PUSH2 0x5A00 SWAP1 PUSH2 0x82A3 JUMP JUMPDEST SWAP2 SWAP1 POP SSTORE POP JUMPDEST PUSH1 0x1 PUSH1 0x0 DUP7 DUP2 MSTORE PUSH1 0x20 ADD SWAP1 DUP2 MSTORE PUSH1 0x20 ADD PUSH1 0x0 KECCAK256 PUSH1 0xF ADD PUSH1 0x0 DUP5 PUSH20 0xFFFFFFFFFFFFFFFFFFFFFFFFFFFFFFFFFFFFFFFF AND PUSH20 0xFFFFFFFFFFFFFFFFFFFFFFFFFFFFFFFFFFFFFFFF AND DUP2 MSTORE PUSH1 0x20 ADD SWAP1 DUP2 MSTORE PUSH1 0x20 ADD PUSH1 0x0 KECCAK256 PUSH1 0x0 ADD DUP5 SWAP1 DUP1 PUSH1 0x1 DUP2 SLOAD ADD DUP1 DUP3 SSTORE DUP1 SWAP2 POP POP PUSH1 0x1 SWAP1 SUB SWAP1 PUSH1 0x0 MSTORE PUSH1 0x20 PUSH1 0x0 KECCAK256 ADD PUSH1 0x0 SWAP1 SWAP2 SWAP1 SWAP2 SWAP1 SWAP2 POP SSTORE POP POP POP POP POP JUMP JUMPDEST PUSH1 0x0 PUSH1 0x1 PUSH1 0x0 DUP4 DUP2 MSTORE PUSH1 0x20 ADD SWAP1 DUP2 MSTORE PUSH1 0x20 ADD PUSH1 0x0 KECCAK256 PUSH1 0x15 ADD PUSH1 0x1 PUSH2 0x100 EXP DUP2 SLOAD DUP2 PUSH1 0xFF MUL NOT AND SWAP1 DUP4 ISZERO ISZERO MUL OR SWAP1 SSTORE POP PUSH32 0x89BB035780742B4FE520972847D93DB0618ABD46516AF218E10FD3479347B7E4 DUP2 PUSH1 0x0 CALLER PUSH1 0x40 MLOAD PUSH2 0x5AED SWAP4 SWAP3 SWAP2 SWAP1 PUSH2 0x7CEC JUMP JUMPDEST PUSH1 0x40 MLOAD DUP1 SWAP2 SUB SWAP1 LOG1 POP JUMP JUMPDEST PUSH1 0x4 PUSH1 0x1 PUSH1 0x0 DUP4 DUP2 MSTORE PUSH1 0x20 ADD SWAP1 DUP2 MSTORE PUSH1 0x20 ADD PUSH1 0x0 KECCAK256 PUSH1 0x15 ADD PUSH1 0x2 PUSH2 0x100 EXP DUP2 SLOAD DUP2 PUSH1 0xFF MUL NOT AND SWAP1 DUP4 PUSH1 0x6 DUP2 GT ISZERO PUSH2 0x5B32 JUMPI PUSH2 0x5B31 PUSH2 0x834A JUMP JUMPDEST JUMPDEST MUL OR SWAP1 SSTORE POP PUSH32 0xDEA20A6D822B68D598B7AB4FD45418A7CA7B103F12D300BCC3B56A7B94D9ED33 DUP2 PUSH1 0x4 CALLER PUSH1 0x40 MLOAD PUSH2 0x5B6B SWAP4 SWAP3 SWAP2 SWAP1 PUSH2 0x7D23 JUMP JUMPDEST PUSH1 0x40 MLOAD DUP1 SWAP2 SUB SWAP1 LOG1 PUSH1 0x0 PUSH1 0x1 PUSH1 0x0 DUP4 DUP2 MSTORE PUSH1 0x20 ADD SWAP1 DUP2 MSTORE PUSH1 0x20 ADD PUSH1 0x0 KECCAK256 PUSH1 0x15 ADD PUSH1 0x1 PUSH2 0x100 EXP DUP2 SLOAD DUP2 PUSH1 0xFF MUL NOT AND SWAP1 DUP4 ISZERO ISZERO MUL OR SWAP1 SSTORE POP PUSH32 0x398FD552105B0090D73611AD526D12979F19B77A7F923343A85D8FD14A13A67 DUP2 PUSH1 0x0 CALLER PUSH1 0x40 MLOAD PUSH2 0x5BD6 SWAP4 SWAP3 SWAP2 SWAP1 PUSH2 0x7CEC JUMP JUMPDEST PUSH1 0x40 MLOAD DUP1 SWAP2 SUB SWAP1 LOG1 POP JUMP JUMPDEST PUSH1 0x0 PUSH1 0x3 PUSH1 0x0 DUP2 SLOAD DUP1 SWAP3 SWAP2 SWAP1 PUSH2 0x5BF6 SWAP1 PUSH2 0x82A3 JUMP JUMPDEST SWAP2 SWAP1 POP SSTORE POP PUSH1 0x0 PUSH1 0x1 PUSH1 0x0 PUSH1 0x3 SLOAD DUP2 MSTORE PUSH1 0x20 ADD SWAP1 DUP2 MSTORE PUSH1 0x20 ADD PUSH1 0x0 KECCAK256 SWAP1 POP CALLER DUP2 PUSH1 0x0 ADD PUSH1 0x0 PUSH2 0x100 EXP DUP2 SLOAD DUP2 PUSH20 0xFFFFFFFFFFFFFFFFFFFFFFFFFFFFFFFFFFFFFFFF MUL NOT AND SWAP1 DUP4 PUSH20 0xFFFFFFFFFFFFFFFFFFFFFFFFFFFFFFFFFFFFFFFF AND MUL OR SWAP1 SSTORE POP DUP3 PUSH1 0x0 ADD MLOAD DUP2 PUSH1 0x1 ADD DUP2 SWAP1 SSTORE POP DUP3 PUSH1 0x20 ADD MLOAD DUP2 PUSH1 0x2 ADD SWAP1 DUP1 MLOAD SWAP1 PUSH1 0x20 ADD SWAP1 PUSH2 0x5C80 SWAP3 SWAP2 SWAP1 PUSH2 0x631A JUMP JUMPDEST POP DUP3 PUSH1 0x40 ADD MLOAD DUP2 PUSH1 0x3 ADD SWAP1 DUP1 MLOAD SWAP1 PUSH1 0x20 ADD SWAP1 PUSH2 0x5C9D SWAP3 SWAP2 SWAP1 PUSH2 0x631A JUMP JUMPDEST POP DUP3 PUSH1 0x60 ADD MLOAD DUP2 PUSH1 0x4 ADD DUP2 SWAP1 SSTORE POP DUP3 PUSH1 0x80 ADD MLOAD DUP2 PUSH1 0x5 ADD DUP2 SWAP1 SSTORE POP DUP3 PUSH1 0xA0 ADD MLOAD DUP2 PUSH1 0x6 ADD DUP2 SWAP1 SSTORE POP DUP3 PUSH1 0xC0 ADD MLOAD DUP2 PUSH1 0x7 ADD SWAP1 DUP1 MLOAD SWAP1 PUSH1 0x20 ADD SWAP1 PUSH2 0x5CE1 SWAP3 SWAP2 SWAP1 PUSH2 0x63A0 JUMP JUMPDEST POP DUP3 PUSH1 0xE0 ADD MLOAD DUP2 PUSH1 0x8 ADD DUP2 SWAP1 SSTORE POP DUP3 PUSH2 0x100 ADD MLOAD DUP2 PUSH1 0x9 ADD DUP2 SWAP1 SSTORE POP DUP3 PUSH2 0x160 ADD MLOAD DUP2 PUSH1 0xB ADD DUP2 SWAP1 SSTORE POP DUP3 PUSH2 0x120 ADD MLOAD DUP2 PUSH1 0xA ADD PUSH1 0x0 PUSH2 0x100 EXP DUP2 SLOAD DUP2 PUSH1 0xFF MUL NOT AND SWAP1 DUP4 ISZERO ISZERO MUL OR SWAP1 SSTORE POP DUP3 PUSH2 0x140 ADD MLOAD DUP2 PUSH1 0xA ADD PUSH1 0x1 PUSH2 0x100 EXP DUP2 SLOAD DUP2 PUSH1 0xFF MUL NOT AND SWAP1 DUP4 ISZERO ISZERO MUL OR SWAP1 SSTORE POP DUP3 PUSH2 0x140 ADD MLOAD ISZERO PUSH2 0x5D7B JUMPI DUP3 PUSH2 0x180 ADD MLOAD MLOAD DUP2 PUSH1 0x11 ADD DUP2 SWAP1 SSTORE POP DUP3 PUSH2 0x180 ADD MLOAD MLOAD DUP2 PUSH1 0x12 ADD DUP2 SWAP1 SSTORE POP PUSH2 0x5D90 JUMP JUMPDEST PUSH1 0x1 DUP2 PUSH1 0x11 ADD DUP2 SWAP1 SSTORE POP PUSH1 0x1 DUP2 PUSH1 0x12 ADD DUP2 SWAP1 SSTORE POP JUMPDEST PUSH1 0x1 DUP2 PUSH1 0x15 ADD PUSH1 0x2 PUSH2 0x100 EXP DUP2 SLOAD DUP2 PUSH1 0xFF MUL NOT AND SWAP1 DUP4 PUSH1 0x6 DUP2 GT ISZERO PUSH2 0x5DB8 JUMPI PUSH2 0x5DB7 PUSH2 0x834A JUMP JUMPDEST JUMPDEST MUL OR SWAP1 SSTORE POP PUSH1 0x1 DUP2 PUSH1 0x15 ADD PUSH1 0x0 PUSH2 0x100 EXP DUP2 SLOAD DUP2 PUSH1 0xFF MUL NOT AND SWAP1 DUP4 ISZERO ISZERO MUL OR SWAP1 SSTORE POP PUSH1 0x1 DUP2 PUSH1 0x15 ADD PUSH1 0x1 PUSH2 0x100 EXP DUP2 SLOAD DUP2 PUSH1 0xFF MUL NOT AND SWAP1 DUP4 ISZERO ISZERO MUL OR SWAP1 SSTORE POP PUSH1 0x0 JUMPDEST DUP4 PUSH2 0x180 ADD MLOAD MLOAD DUP2 LT ISZERO PUSH2 0x5F92 JUMPI PUSH1 0x0 DUP5 PUSH2 0x180 ADD MLOAD DUP3 DUP2 MLOAD DUP2 LT PUSH2 0x5E22 JUMPI PUSH2 0x5E21 PUSH2 0x83A8 JUMP JUMPDEST JUMPDEST PUSH1 0x20 MUL PUSH1 0x20 ADD ADD MLOAD PUSH1 0x60 ADD SWAP1 PUSH1 0xB DUP2 GT ISZERO PUSH2 0x5E40 JUMPI PUSH2 0x5E3F PUSH2 0x834A JUMP JUMPDEST JUMPDEST SWAP1 DUP2 PUSH1 0xB DUP2 GT ISZERO PUSH2 0x5E54 JUMPI PUSH2 0x5E53 PUSH2 0x834A JUMP JUMPDEST JUMPDEST DUP2 MSTORE POP POP DUP2 PUSH1 0xC ADD DUP5 PUSH2 0x180 ADD MLOAD DUP3 DUP2 MLOAD DUP2 LT PUSH2 0x5E74 JUMPI PUSH2 0x5E73 PUSH2 0x83A8 JUMP JUMPDEST JUMPDEST PUSH1 0x20 MUL PUSH1 0x20 ADD ADD MLOAD SWAP1 DUP1 PUSH1 0x1 DUP2 SLOAD ADD DUP1 DUP3 SSTORE DUP1 SWAP2 POP POP PUSH1 0x1 SWAP1 SUB SWAP1 PUSH1 0x0 MSTORE PUSH1 0x20 PUSH1 0x0 KECCAK256 SWAP1 PUSH1 0xB MUL ADD PUSH1 0x0 SWAP1 SWAP2 SWAP1 SWAP2 SWAP1 SWAP2 POP PUSH1 0x0 DUP3 ADD MLOAD DUP2 PUSH1 0x0 ADD PUSH1 0x0 DUP3 ADD MLOAD DUP2 PUSH1 0x0 ADD SWAP1 DUP1 MLOAD SWAP1 PUSH1 0x20 ADD SWAP1 PUSH2 0x5ECA SWAP3 SWAP2 SWAP1 PUSH2 0x631A JUMP JUMPDEST POP PUSH1 0x20 DUP3 ADD MLOAD DUP2 PUSH1 0x1 ADD SSTORE PUSH1 0x40 DUP3 ADD MLOAD DUP2 PUSH1 0x2 ADD SSTORE PUSH1 0x60 DUP3 ADD MLOAD DUP2 PUSH1 0x3 ADD SSTORE PUSH1 0x80 DUP3 ADD MLOAD DUP2 PUSH1 0x4 ADD SSTORE PUSH1 0xA0 DUP3 ADD MLOAD DUP2 PUSH1 0x5 ADD SSTORE PUSH1 0xC0 DUP3 ADD MLOAD DUP2 PUSH1 0x6 ADD SWAP1 DUP1 MLOAD SWAP1 PUSH1 0x20 ADD SWAP1 PUSH2 0x5F19 SWAP3 SWAP2 SWAP1 PUSH2 0x631A JUMP JUMPDEST POP POP POP PUSH1 0x20 DUP3 ADD MLOAD DUP2 PUSH1 0x7 ADD SSTORE PUSH1 0x40 DUP3 ADD MLOAD DUP2 PUSH1 0x8 ADD SWAP1 DUP1 MLOAD SWAP1 PUSH1 0x20 ADD SWAP1 PUSH2 0x5F42 SWAP3 SWAP2 SWAP1 PUSH2 0x631A JUMP JUMPDEST POP PUSH1 0x60 DUP3 ADD MLOAD DUP2 PUSH1 0x9 ADD PUSH1 0x0 PUSH2 0x100 EXP DUP2 SLOAD DUP2 PUSH1 0xFF MUL NOT AND SWAP1 DUP4 PUSH1 0xB DUP2 GT ISZERO PUSH2 0x5F6E JUMPI PUSH2 0x5F6D PUSH2 0x834A JUMP JUMPDEST JUMPDEST MUL OR SWAP1 SSTORE POP PUSH1 0x80 DUP3 ADD MLOAD DUP2 PUSH1 0xA ADD SSTORE POP POP DUP1 DUP1 PUSH2 0x5F8A SWAP1 PUSH2 0x82A3 JUMP JUMPDEST SWAP2 POP POP PUSH2 0x5DFA JUMP JUMPDEST POP PUSH1 0x3 SLOAD SWAP2 POP POP SWAP2 SWAP1 POP JUMP JUMPDEST PUSH1 0x0 PUSH1 0x1 PUSH1 0x0 DUP7 DUP2 MSTORE PUSH1 0x20 ADD SWAP1 DUP2 MSTORE PUSH1 0x20 ADD PUSH1 0x0 KECCAK256 SWAP1 POP PUSH1 0x4 DUP2 PUSH1 0xC ADD DUP5 DUP2 SLOAD DUP2 LT PUSH2 0x5FCD JUMPI PUSH2 0x5FCC PUSH2 0x83A8 JUMP JUMPDEST JUMPDEST SWAP1 PUSH1 0x0 MSTORE PUSH1 0x20 PUSH1 0x0 KECCAK256 SWAP1 PUSH1 0xB MUL ADD PUSH1 0x9 ADD PUSH1 0x0 PUSH2 0x100 EXP DUP2 SLOAD DUP2 PUSH1 0xFF MUL NOT AND SWAP1 DUP4 PUSH1 0xB DUP2 GT ISZERO PUSH2 0x6000 JUMPI PUSH2 0x5FFF PUSH2 0x834A JUMP JUMPDEST JUMPDEST MUL OR SWAP1 SSTORE POP PUSH32 0x188FFF7234F3BB35C4F436313EC14267725515E4CA367843CD416621A72FB8A3 DUP6 DUP5 PUSH1 0x4 CALLER PUSH1 0x40 MLOAD PUSH2 0x603B SWAP5 SWAP4 SWAP3 SWAP2 SWAP1 PUSH2 0x7DC8 JUMP JUMPDEST PUSH1 0x40 MLOAD DUP1 SWAP2 SUB SWAP1 LOG1 TIMESTAMP DUP2 PUSH1 0xC ADD DUP5 DUP2 SLOAD DUP2 LT PUSH2 0x605A JUMPI PUSH2 0x6059 PUSH2 0x83A8 JUMP JUMPDEST JUMPDEST SWAP1 PUSH1 0x0 MSTORE PUSH1 0x20 PUSH1 0x0 KECCAK256 SWAP1 PUSH1 0xB MUL ADD PUSH1 0xA ADD DUP2 SWAP1 SSTORE POP DUP2 DUP2 PUSH1 0xF ADD PUSH1 0x0 DUP7 PUSH20 0xFFFFFFFFFFFFFFFFFFFFFFFFFFFFFFFFFFFFFFFF AND PUSH20 0xFFFFFFFFFFFFFFFFFFFFFFFFFFFFFFFFFFFFFFFF AND DUP2 MSTORE PUSH1 0x20 ADD SWAP1 DUP2 MSTORE PUSH1 0x20 ADD PUSH1 0x0 KECCAK256 PUSH1 0x1 ADD PUSH1 0x0 DUP6 DUP2 MSTORE PUSH1 0x20 ADD SWAP1 DUP2 MSTORE PUSH1 0x20 ADD PUSH1 0x0 KECCAK256 PUSH1 0x1 ADD SWAP1 DUP1 MLOAD SWAP1 PUSH1 0x20 ADD SWAP1 PUSH2 0x60DB SWAP3 SWAP2 SWAP1 PUSH2 0x631A JUMP JUMPDEST POP PUSH1 0x1 DUP2 PUSH1 0xF ADD PUSH1 0x0 DUP7 PUSH20 0xFFFFFFFFFFFFFFFFFFFFFFFFFFFFFFFFFFFFFFFF AND PUSH20 0xFFFFFFFFFFFFFFFFFFFFFFFFFFFFFFFFFFFFFFFF AND DUP2 MSTORE PUSH1 0x20 ADD SWAP1 DUP2 MSTORE PUSH1 0x20 ADD PUSH1 0x0 KECCAK256 PUSH1 0x1 ADD PUSH1 0x0 DUP6 DUP2 MSTORE PUSH1 0x20 ADD SWAP1 DUP2 MSTORE PUSH1 0x20 ADD PUSH1 0x0 KECCAK256 PUSH1 0x0 ADD PUSH1 0x0 PUSH2 0x100 EXP DUP2 SLOAD DUP2 PUSH1 0xFF MUL NOT AND SWAP1 DUP4 PUSH1 0x4 DUP2 GT ISZERO PUSH2 0x6158 JUMPI PUSH2 0x6157 PUSH2 0x834A JUMP JUMPDEST JUMPDEST MUL OR SWAP1 SSTORE POP PUSH32 0x4B906571B20F3DCDF826B53F3C66528E252B2EB87DE3CB812F18E6859E119344 DUP6 DUP6 DUP6 PUSH1 0x1 DUP1 CALLER PUSH1 0x40 MLOAD PUSH2 0x6197 SWAP7 SWAP6 SWAP5 SWAP4 SWAP3 SWAP2 SWAP1 PUSH2 0x7C3F JUMP JUMPDEST PUSH1 0x40 MLOAD DUP1 SWAP2 SUB SWAP1 LOG1 POP POP POP POP POP JUMP JUMPDEST PUSH1 0x40 MLOAD DUP1 PUSH1 0x40 ADD PUSH1 0x40 MSTORE DUP1 PUSH1 0x0 PUSH1 0x4 DUP2 GT ISZERO PUSH2 0x61C5 JUMPI PUSH2 0x61C4 PUSH2 0x834A JUMP JUMPDEST JUMPDEST DUP2 MSTORE PUSH1 0x20 ADD PUSH1 0x60 DUP2 MSTORE POP SWAP1 JUMP JUMPDEST PUSH1 0x40 MLOAD DUP1 PUSH2 0x300 ADD PUSH1 0x40 MSTORE DUP1 PUSH1 0x0 PUSH20 0xFFFFFFFFFFFFFFFFFFFFFFFFFFFFFFFFFFFFFFFF AND DUP2 MSTORE PUSH1 0x20 ADD PUSH1 0x0 DUP2 MSTORE PUSH1 0x20 ADD PUSH1 0x60 DUP2 MSTORE PUSH1 0x20 ADD PUSH1 0x60 DUP2 MSTORE PUSH1 0x20 ADD PUSH1 0x0 DUP2 MSTORE PUSH1 0x20 ADD PUSH1 0x0 DUP2 MSTORE PUSH1 0x20 ADD PUSH1 0x0 DUP2 MSTORE PUSH1 0x20 ADD PUSH1 0x60 DUP2 MSTORE PUSH1 0x20 ADD PUSH1 0x0 DUP2 MSTORE PUSH1 0x20 ADD PUSH1 0x0 DUP2 MSTORE PUSH1 0x20 ADD PUSH1 0x0 ISZERO ISZERO DUP2 MSTORE PUSH1 0x20 ADD PUSH1 0x0 ISZERO ISZERO DUP2 MSTORE PUSH1 0x20 ADD PUSH1 0x0 DUP2 MSTORE PUSH1 0x20 ADD PUSH1 0x60 DUP2 MSTORE PUSH1 0x20 ADD PUSH1 0x60 DUP2 MSTORE PUSH1 0x20 ADD PUSH1 0x60 DUP2 MSTORE PUSH1 0x20 ADD PUSH1 0x60 DUP2 MSTORE PUSH1 0x20 ADD PUSH1 0x0 DUP2 MSTORE PUSH1 0x20 ADD PUSH1 0x0 DUP2 MSTORE PUSH1 0x20 ADD PUSH1 0x0 DUP2 MSTORE PUSH1 0x20 ADD PUSH1 0x0 DUP2 MSTORE PUSH1 0x20 ADD PUSH1 0x0 ISZERO ISZERO DUP2 MSTORE PUSH1 0x20 ADD PUSH1 0x0 ISZERO ISZERO DUP2 MSTORE PUSH1 0x20 ADD PUSH1 0x0 PUSH1 0x6 DUP2 GT ISZERO PUSH2 0x62B1 JUMPI PUSH2 0x62B0 PUSH2 0x834A JUMP JUMPDEST JUMPDEST DUP2 MSTORE POP SWAP1 JUMP JUMPDEST PUSH1 0x40 MLOAD DUP1 PUSH1 0x40 ADD PUSH1 0x40 MSTORE DUP1 PUSH1 0x0 PUSH20 0xFFFFFFFFFFFFFFFFFFFFFFFFFFFFFFFFFFFFFFFF AND DUP2 MSTORE PUSH1 0x20 ADD PUSH1 0x60 DUP2 MSTORE POP SWAP1 JUMP JUMPDEST PUSH1 0x40 MLOAD DUP1 PUSH1 0x60 ADD PUSH1 0x40 MSTORE DUP1 PUSH1 0x0 DUP2 MSTORE PUSH1 0x20 ADD PUSH1 0x0 PUSH1 0x4 DUP2 GT ISZERO PUSH2 0x630D JUMPI PUSH2 0x630C PUSH2 0x834A JUMP JUMPDEST JUMPDEST DUP2 MSTORE PUSH1 0x20 ADD PUSH1 0x60 DUP2 MSTORE POP SWAP1 JUMP JUMPDEST DUP3 DUP1 SLOAD PUSH2 0x6326 SWAP1 PUSH2 0x8240 JUMP JUMPDEST SWAP1 PUSH1 0x0 MSTORE PUSH1 0x20 PUSH1 0x0 KECCAK256 SWAP1 PUSH1 0x1F ADD PUSH1 0x20 SWAP1 DIV DUP2 ADD SWAP3 DUP3 PUSH2 0x6348 JUMPI PUSH1 0x0 DUP6 SSTORE PUSH2 0x638F JUMP JUMPDEST DUP3 PUSH1 0x1F LT PUSH2 0x6361 JUMPI DUP1 MLOAD PUSH1 0xFF NOT AND DUP4 DUP1 ADD OR DUP6 SSTORE PUSH2 0x638F JUMP JUMPDEST DUP3 DUP1 ADD PUSH1 0x1 ADD DUP6 SSTORE DUP3 ISZERO PUSH2 0x638F JUMPI SWAP2 DUP3 ADD JUMPDEST DUP3 DUP2 GT ISZERO PUSH2 0x638E JUMPI DUP3 MLOAD DUP3 SSTORE SWAP2 PUSH1 0x20 ADD SWAP2 SWAP1 PUSH1 0x1 ADD SWAP1 PUSH2 0x6373 JUMP JUMPDEST JUMPDEST POP SWAP1 POP PUSH2 0x639C SWAP2 SWAP1 PUSH2 0x63ED JUMP JUMPDEST POP SWAP1 JUMP JUMPDEST DUP3 DUP1 SLOAD DUP3 DUP3 SSTORE SWAP1 PUSH1 0x0 MSTORE PUSH1 0x20 PUSH1 0x0 KECCAK256 SWAP1 DUP2 ADD SWAP3 DUP3 ISZERO PUSH2 0x63DC JUMPI SWAP2 PUSH1 0x20 MUL DUP3 ADD JUMPDEST DUP3 DUP2 GT ISZERO PUSH2 0x63DB JUMPI DUP3 MLOAD DUP3 SSTORE SWAP2 PUSH1 0x20 ADD SWAP2 SWAP1 PUSH1 0x1 ADD SWAP1 PUSH2 0x63C0 JUMP JUMPDEST JUMPDEST POP SWAP1 POP PUSH2 0x63E9 SWAP2 SWAP1 PUSH2 0x63ED JUMP JUMPDEST POP SWAP1 JUMP JUMPDEST JUMPDEST DUP1 DUP3 GT ISZERO PUSH2 0x6406 JUMPI PUSH1 0x0 DUP2 PUSH1 0x0 SWAP1 SSTORE POP PUSH1 0x1 ADD PUSH2 0x63EE JUMP JUMPDEST POP SWAP1 JUMP JUMPDEST PUSH1 0x0 PUSH2 0x641D PUSH2 0x6418 DUP5 PUSH2 0x7E32 JUMP JUMPDEST PUSH2 0x7E0D JUMP JUMPDEST SWAP1 POP DUP1 DUP4 DUP3 MSTORE PUSH1 0x20 DUP3 ADD SWAP1 POP DUP3 DUP6 PUSH1 0x20 DUP7 MUL DUP3 ADD GT ISZERO PUSH2 0x6440 JUMPI PUSH2 0x643F PUSH2 0x8415 JUMP JUMPDEST JUMPDEST PUSH1 0x0 JUMPDEST DUP6 DUP2 LT ISZERO PUSH2 0x648E JUMPI DUP2 CALLDATALOAD PUSH8 0xFFFFFFFFFFFFFFFF DUP2 GT ISZERO PUSH2 0x6466 JUMPI PUSH2 0x6465 PUSH2 0x8406 JUMP JUMPDEST JUMPDEST DUP1 DUP7 ADD PUSH2 0x6473 DUP10 DUP3 PUSH2 0x68A7 JUMP JUMPDEST DUP6 MSTORE PUSH1 0x20 DUP6 ADD SWAP5 POP PUSH1 0x20 DUP5 ADD SWAP4 POP POP POP PUSH1 0x1 DUP2 ADD SWAP1 POP PUSH2 0x6443 JUMP JUMPDEST POP POP POP SWAP4 SWAP3 POP POP POP JUMP JUMPDEST PUSH1 0x0 PUSH2 0x64AB PUSH2 0x64A6 DUP5 PUSH2 0x7E5E JUMP JUMPDEST PUSH2 0x7E0D JUMP JUMPDEST SWAP1 POP DUP1 DUP4 DUP3 MSTORE PUSH1 0x20 DUP3 ADD SWAP1 POP DUP3 DUP6 PUSH1 0x20 DUP7 MUL DUP3 ADD GT ISZERO PUSH2 0x64CE JUMPI PUSH2 0x64CD PUSH2 0x8415 JUMP JUMPDEST JUMPDEST PUSH1 0x0 JUMPDEST DUP6 DUP2 LT ISZERO PUSH2 0x64FE JUMPI DUP2 PUSH2 0x64E4 DUP9 DUP3 PUSH2 0x696B JUMP JUMPDEST DUP5 MSTORE PUSH1 0x20 DUP5 ADD SWAP4 POP PUSH1 0x20 DUP4 ADD SWAP3 POP POP PUSH1 0x1 DUP2 ADD SWAP1 POP PUSH2 0x64D1 JUMP JUMPDEST POP POP POP SWAP4 SWAP3 POP POP POP JUMP JUMPDEST PUSH1 0x0 PUSH2 0x651B PUSH2 0x6516 DUP5 PUSH2 0x7E8A JUMP JUMPDEST PUSH2 0x7E0D JUMP JUMPDEST SWAP1 POP DUP3 DUP2 MSTORE PUSH1 0x20 DUP2 ADD DUP5 DUP5 DUP5 ADD GT ISZERO PUSH2 0x6537 JUMPI PUSH2 0x6536 PUSH2 0x841A JUMP JUMPDEST JUMPDEST PUSH2 0x6542 DUP5 DUP3 DUP6 PUSH2 0x81FE JUMP JUMPDEST POP SWAP4 SWAP3 POP POP POP JUMP JUMPDEST PUSH1 0x0 DUP2 CALLDATALOAD SWAP1 POP PUSH2 0x6559 DUP2 PUSH2 0x86B1 JUMP JUMPDEST SWAP3 SWAP2 POP POP JUMP JUMPDEST PUSH1 0x0 DUP3 PUSH1 0x1F DUP4 ADD SLT PUSH2 0x6574 JUMPI PUSH2 0x6573 PUSH2 0x8406 JUMP JUMPDEST JUMPDEST DUP2 CALLDATALOAD PUSH2 0x6584 DUP5 DUP3 PUSH1 0x20 DUP7 ADD PUSH2 0x640A JUMP JUMPDEST SWAP2 POP POP SWAP3 SWAP2 POP POP JUMP JUMPDEST PUSH1 0x0 DUP3 PUSH1 0x1F DUP4 ADD SLT PUSH2 0x65A2 JUMPI PUSH2 0x65A1 PUSH2 0x8406 JUMP JUMPDEST JUMPDEST DUP2 CALLDATALOAD PUSH2 0x65B2 DUP5 DUP3 PUSH1 0x20 DUP7 ADD PUSH2 0x6498 JUMP JUMPDEST SWAP2 POP POP SWAP3 SWAP2 POP POP JUMP JUMPDEST PUSH1 0x0 DUP2 CALLDATALOAD SWAP1 POP PUSH2 0x65CA DUP2 PUSH2 0x86C8 JUMP JUMPDEST SWAP3 SWAP2 POP POP JUMP JUMPDEST PUSH1 0x0 DUP2 CALLDATALOAD SWAP1 POP PUSH2 0x65DF DUP2 PUSH2 0x86DF JUMP JUMPDEST SWAP3 SWAP2 POP POP JUMP JUMPDEST PUSH1 0x0 DUP3 PUSH1 0x1F DUP4 ADD SLT PUSH2 0x65FA JUMPI PUSH2 0x65F9 PUSH2 0x8406 JUMP JUMPDEST JUMPDEST DUP2 CALLDATALOAD PUSH2 0x660A DUP5 DUP3 PUSH1 0x20 DUP7 ADD PUSH2 0x6508 JUMP JUMPDEST SWAP2 POP POP SWAP3 SWAP2 POP POP JUMP JUMPDEST PUSH1 0x0 PUSH1 0xE0 DUP3 DUP5 SUB SLT ISZERO PUSH2 0x6629 JUMPI PUSH2 0x6628 PUSH2 0x840B JUMP JUMPDEST JUMPDEST PUSH2 0x6633 PUSH1 0xE0 PUSH2 0x7E0D JUMP JUMPDEST SWAP1 POP PUSH1 0x0 DUP3 ADD CALLDATALOAD PUSH8 0xFFFFFFFFFFFFFFFF DUP2 GT ISZERO PUSH2 0x6653 JUMPI PUSH2 0x6652 PUSH2 0x8410 JUMP JUMPDEST JUMPDEST PUSH2 0x665F DUP5 DUP3 DUP6 ADD PUSH2 0x65E5 JUMP JUMPDEST PUSH1 0x0 DUP4 ADD MSTORE POP PUSH1 0x20 PUSH2 0x6673 DUP5 DUP3 DUP6 ADD PUSH2 0x696B JUMP JUMPDEST PUSH1 0x20 DUP4 ADD MSTORE POP PUSH1 0x40 PUSH2 0x6687 DUP5 DUP3 DUP6 ADD PUSH2 0x696B JUMP JUMPDEST PUSH1 0x40 DUP4 ADD MSTORE POP PUSH1 0x60 PUSH2 0x669B DUP5 DUP3 DUP6 ADD PUSH2 0x696B JUMP JUMPDEST PUSH1 0x60 DUP4 ADD MSTORE POP PUSH1 0x80 PUSH2 0x66AF DUP5 DUP3 DUP6 ADD PUSH2 0x696B JUMP JUMPDEST PUSH1 0x80 DUP4 ADD MSTORE POP PUSH1 0xA0 PUSH2 0x66C3 DUP5 DUP3 DUP6 ADD PUSH2 0x696B JUMP JUMPDEST PUSH1 0xA0 DUP4 ADD MSTORE POP PUSH1 0xC0 DUP3 ADD CALLDATALOAD PUSH8 0xFFFFFFFFFFFFFFFF DUP2 GT ISZERO PUSH2 0x66E7 JUMPI PUSH2 0x66E6 PUSH2 0x8410 JUMP JUMPDEST JUMPDEST PUSH2 0x66F3 DUP5 DUP3 DUP6 ADD PUSH2 0x65E5 JUMP JUMPDEST PUSH1 0xC0 DUP4 ADD MSTORE POP SWAP3 SWAP2 POP POP JUMP JUMPDEST PUSH1 0x0 PUSH2 0x1A0 DUP3 DUP5 SUB SLT ISZERO PUSH2 0x6716 JUMPI PUSH2 0x6715 PUSH2 0x840B JUMP JUMPDEST JUMPDEST PUSH2 0x6721 PUSH2 0x1A0 PUSH2 0x7E0D JUMP JUMPDEST SWAP1 POP PUSH1 0x0 PUSH2 0x6731 DUP5 DUP3 DUP6 ADD PUSH2 0x696B JUMP JUMPDEST PUSH1 0x0 DUP4 ADD MSTORE POP PUSH1 0x20 DUP3 ADD CALLDATALOAD PUSH8 0xFFFFFFFFFFFFFFFF DUP2 GT ISZERO PUSH2 0x6755 JUMPI PUSH2 0x6754 PUSH2 0x8410 JUMP JUMPDEST JUMPDEST PUSH2 0x6761 DUP5 DUP3 DUP6 ADD PUSH2 0x65E5 JUMP JUMPDEST PUSH1 0x20 DUP4 ADD MSTORE POP PUSH1 0x40 DUP3 ADD CALLDATALOAD PUSH8 0xFFFFFFFFFFFFFFFF DUP2 GT ISZERO PUSH2 0x6785 JUMPI PUSH2 0x6784 PUSH2 0x8410 JUMP JUMPDEST JUMPDEST PUSH2 0x6791 DUP5 DUP3 DUP6 ADD PUSH2 0x65E5 JUMP JUMPDEST PUSH1 0x40 DUP4 ADD MSTORE POP PUSH1 0x60 PUSH2 0x67A5 DUP5 DUP3 DUP6 ADD PUSH2 0x696B JUMP JUMPDEST PUSH1 0x60 DUP4 ADD MSTORE POP PUSH1 0x80 PUSH2 0x67B9 DUP5 DUP3 DUP6 ADD PUSH2 0x696B JUMP JUMPDEST PUSH1 0x80 DUP4 ADD MSTORE POP PUSH1 0xA0 PUSH2 0x67CD DUP5 DUP3 DUP6 ADD PUSH2 0x696B JUMP JUMPDEST PUSH1 0xA0 DUP4 ADD MSTORE POP PUSH1 0xC0 DUP3 ADD CALLDATALOAD PUSH8 0xFFFFFFFFFFFFFFFF DUP2 GT ISZERO PUSH2 0x67F1 JUMPI PUSH2 0x67F0 PUSH2 0x8410 JUMP JUMPDEST JUMPDEST PUSH2 0x67FD DUP5 DUP3 DUP6 ADD PUSH2 0x658D JUMP JUMPDEST PUSH1 0xC0 DUP4 ADD MSTORE POP PUSH1 0xE0 PUSH2 0x6811 DUP5 DUP3 DUP6 ADD PUSH2 0x696B JUMP JUMPDEST PUSH1 0xE0 DUP4 ADD MSTORE POP PUSH2 0x100 PUSH2 0x6826 DUP5 DUP3 DUP6 ADD PUSH2 0x696B JUMP JUMPDEST PUSH2 0x100 DUP4 ADD MSTORE POP PUSH2 0x120 PUSH2 0x683C DUP5 DUP3 DUP6 ADD PUSH2 0x65BB JUMP JUMPDEST PUSH2 0x120 DUP4 ADD MSTORE POP PUSH2 0x140 PUSH2 0x6852 DUP5 DUP3 DUP6 ADD PUSH2 0x65BB JUMP JUMPDEST PUSH2 0x140 DUP4 ADD MSTORE POP PUSH2 0x160 PUSH2 0x6868 DUP5 DUP3 DUP6 ADD PUSH2 0x696B JUMP JUMPDEST PUSH2 0x160 DUP4 ADD MSTORE POP PUSH2 0x180 DUP3 ADD CALLDATALOAD PUSH8 0xFFFFFFFFFFFFFFFF DUP2 GT ISZERO PUSH2 0x688E JUMPI PUSH2 0x688D PUSH2 0x8410 JUMP JUMPDEST JUMPDEST PUSH2 0x689A DUP5 DUP3 DUP6 ADD PUSH2 0x655F JUMP JUMPDEST PUSH2 0x180 DUP4 ADD MSTORE POP SWAP3 SWAP2 POP POP JUMP JUMPDEST PUSH1 0x0 PUSH1 0xA0 DUP3 DUP5 SUB SLT ISZERO PUSH2 0x68BD JUMPI PUSH2 0x68BC PUSH2 0x840B JUMP JUMPDEST JUMPDEST PUSH2 0x68C7 PUSH1 0xA0 PUSH2 0x7E0D JUMP JUMPDEST SWAP1 POP PUSH1 0x0 DUP3 ADD CALLDATALOAD PUSH8 0xFFFFFFFFFFFFFFFF DUP2 GT ISZERO PUSH2 0x68E7 JUMPI PUSH2 0x68E6 PUSH2 0x8410 JUMP JUMPDEST JUMPDEST PUSH2 0x68F3 DUP5 DUP3 DUP6 ADD PUSH2 0x6613 JUMP JUMPDEST PUSH1 0x0 DUP4 ADD MSTORE POP PUSH1 0x20 PUSH2 0x6907 DUP5 DUP3 DUP6 ADD PUSH2 0x696B JUMP JUMPDEST PUSH1 0x20 DUP4 ADD MSTORE POP PUSH1 0x40 DUP3 ADD CALLDATALOAD PUSH8 0xFFFFFFFFFFFFFFFF DUP2 GT ISZERO PUSH2 0x692B JUMPI PUSH2 0x692A PUSH2 0x8410 JUMP JUMPDEST JUMPDEST PUSH2 0x6937 DUP5 DUP3 DUP6 ADD PUSH2 0x65E5 JUMP JUMPDEST PUSH1 0x40 DUP4 ADD MSTORE POP PUSH1 0x60 PUSH2 0x694B DUP5 DUP3 DUP6 ADD PUSH2 0x65D0 JUMP JUMPDEST PUSH1 0x60 DUP4 ADD MSTORE POP PUSH1 0x80 PUSH2 0x695F DUP5 DUP3 DUP6 ADD PUSH2 0x696B JUMP JUMPDEST PUSH1 0x80 DUP4 ADD MSTORE POP SWAP3 SWAP2 POP POP JUMP JUMPDEST PUSH1 0x0 DUP2 CALLDATALOAD SWAP1 POP PUSH2 0x697A DUP2 PUSH2 0x86EF JUMP JUMPDEST SWAP3 SWAP2 POP POP JUMP JUMPDEST PUSH1 0x0 DUP2 MLOAD SWAP1 POP PUSH2 0x698F DUP2 PUSH2 0x86EF JUMP JUMPDEST SWAP3 SWAP2 POP POP JUMP JUMPDEST PUSH1 0x0 PUSH1 0x20 DUP3 DUP5 SUB SLT ISZERO PUSH2 0x69AB JUMPI PUSH2 0x69AA PUSH2 0x8424 JUMP JUMPDEST JUMPDEST PUSH1 0x0 PUSH2 0x69B9 DUP5 DUP3 DUP6 ADD PUSH2 0x654A JUMP JUMPDEST SWAP2 POP POP SWAP3 SWAP2 POP POP JUMP JUMPDEST PUSH1 0x0 PUSH1 0x20 DUP3 DUP5 SUB SLT ISZERO PUSH2 0x69D8 JUMPI PUSH2 0x69D7 PUSH2 0x8424 JUMP JUMPDEST JUMPDEST PUSH1 0x0 DUP3 ADD CALLDATALOAD PUSH8 0xFFFFFFFFFFFFFFFF DUP2 GT ISZERO PUSH2 0x69F6 JUMPI PUSH2 0x69F5 PUSH2 0x841F JUMP JUMPDEST JUMPDEST PUSH2 0x6A02 DUP5 DUP3 DUP6 ADD PUSH2 0x66FF JUMP JUMPDEST SWAP2 POP POP SWAP3 SWAP2 POP POP JUMP JUMPDEST PUSH1 0x0 PUSH1 0x20 DUP3 DUP5 SUB SLT ISZERO PUSH2 0x6A21 JUMPI PUSH2 0x6A20 PUSH2 0x8424 JUMP JUMPDEST JUMPDEST PUSH1 0x0 PUSH2 0x6A2F DUP5 DUP3 DUP6 ADD PUSH2 0x696B JUMP JUMPDEST SWAP2 POP POP SWAP3 SWAP2 POP POP JUMP JUMPDEST PUSH1 0x0 PUSH1 0x20 DUP3 DUP5 SUB SLT ISZERO PUSH2 0x6A4E JUMPI PUSH2 0x6A4D PUSH2 0x8424 JUMP JUMPDEST JUMPDEST PUSH1 0x0 PUSH2 0x6A5C DUP5 DUP3 DUP6 ADD PUSH2 0x6980 JUMP JUMPDEST SWAP2 POP POP SWAP3 SWAP2 POP POP JUMP JUMPDEST PUSH1 0x0 DUP1 PUSH1 0x40 DUP4 DUP6 SUB SLT ISZERO PUSH2 0x6A7C JUMPI PUSH2 0x6A7B PUSH2 0x8424 JUMP JUMPDEST JUMPDEST PUSH1 0x0 PUSH2 0x6A8A DUP6 DUP3 DUP7 ADD PUSH2 0x696B JUMP JUMPDEST SWAP3 POP POP PUSH1 0x20 PUSH2 0x6A9B DUP6 DUP3 DUP7 ADD PUSH2 0x654A JUMP JUMPDEST SWAP2 POP POP SWAP3 POP SWAP3 SWAP1 POP JUMP JUMPDEST PUSH1 0x0 DUP1 PUSH1 0x0 PUSH1 0x60 DUP5 DUP7 SUB SLT ISZERO PUSH2 0x6ABE JUMPI PUSH2 0x6ABD PUSH2 0x8424 JUMP JUMPDEST JUMPDEST PUSH1 0x0 PUSH2 0x6ACC DUP7 DUP3 DUP8 ADD PUSH2 0x696B JUMP JUMPDEST SWAP4 POP POP PUSH1 0x20 PUSH2 0x6ADD DUP7 DUP3 DUP8 ADD PUSH2 0x654A JUMP JUMPDEST SWAP3 POP POP PUSH1 0x40 PUSH2 0x6AEE DUP7 DUP3 DUP8 ADD PUSH2 0x65BB JUMP JUMPDEST SWAP2 POP POP SWAP3 POP SWAP3 POP SWAP3 JUMP JUMPDEST PUSH1 0x0 DUP1 PUSH1 0x0 DUP1 PUSH1 0x0 PUSH1 0xA0 DUP7 DUP9 SUB SLT ISZERO PUSH2 0x6B14 JUMPI PUSH2 0x6B13 PUSH2 0x8424 JUMP JUMPDEST JUMPDEST PUSH1 0x0 PUSH2 0x6B22 DUP9 DUP3 DUP10 ADD PUSH2 0x696B JUMP JUMPDEST SWAP6 POP POP PUSH1 0x20 PUSH2 0x6B33 DUP9 DUP3 DUP10 ADD PUSH2 0x654A JUMP JUMPDEST SWAP5 POP POP PUSH1 0x40 PUSH2 0x6B44 DUP9 DUP3 DUP10 ADD PUSH2 0x696B JUMP JUMPDEST SWAP4 POP POP PUSH1 0x60 PUSH2 0x6B55 DUP9 DUP3 DUP10 ADD PUSH2 0x65BB JUMP JUMPDEST SWAP3 POP POP PUSH1 0x80 PUSH2 0x6B66 DUP9 DUP3 DUP10 ADD PUSH2 0x654A JUMP JUMPDEST SWAP2 POP POP SWAP3 SWAP6 POP SWAP3 SWAP6 SWAP1 SWAP4 POP JUMP JUMPDEST PUSH1 0x0 DUP1 PUSH1 0x0 DUP1 PUSH1 0x0 PUSH1 0xA0 DUP7 DUP9 SUB SLT ISZERO PUSH2 0x6B8F JUMPI PUSH2 0x6B8E PUSH2 0x8424 JUMP JUMPDEST JUMPDEST PUSH1 0x0 PUSH2 0x6B9D DUP9 DUP3 DUP10 ADD PUSH2 0x696B JUMP JUMPDEST SWAP6 POP POP PUSH1 0x20 PUSH2 0x6BAE DUP9 DUP3 DUP10 ADD PUSH2 0x654A JUMP JUMPDEST SWAP5 POP POP PUSH1 0x40 PUSH2 0x6BBF DUP9 DUP3 DUP10 ADD PUSH2 0x696B JUMP JUMPDEST SWAP4 POP POP PUSH1 0x60 PUSH2 0x6BD0 DUP9 DUP3 DUP10 ADD PUSH2 0x65BB JUMP JUMPDEST SWAP3 POP POP PUSH1 0x80 DUP7 ADD CALLDATALOAD PUSH8 0xFFFFFFFFFFFFFFFF DUP2 GT ISZERO PUSH2 0x6BF1 JUMPI PUSH2 0x6BF0 PUSH2 0x841F JUMP JUMPDEST JUMPDEST PUSH2 0x6BFD DUP9 DUP3 DUP10 ADD PUSH2 0x65E5 JUMP JUMPDEST SWAP2 POP POP SWAP3 SWAP6 POP SWAP3 SWAP6 SWAP1 SWAP4 POP JUMP JUMPDEST PUSH1 0x0 DUP1 PUSH1 0x40 DUP4 DUP6 SUB SLT ISZERO PUSH2 0x6C21 JUMPI PUSH2 0x6C20 PUSH2 0x8424 JUMP JUMPDEST JUMPDEST PUSH1 0x0 PUSH2 0x6C2F DUP6 DUP3 DUP7 ADD PUSH2 0x696B JUMP JUMPDEST SWAP3 POP POP PUSH1 0x20 DUP4 ADD CALLDATALOAD PUSH8 0xFFFFFFFFFFFFFFFF DUP2 GT ISZERO PUSH2 0x6C50 JUMPI PUSH2 0x6C4F PUSH2 0x841F JUMP JUMPDEST JUMPDEST PUSH2 0x6C5C DUP6 DUP3 DUP7 ADD PUSH2 0x658D JUMP JUMPDEST SWAP2 POP POP SWAP3 POP SWAP3 SWAP1 POP JUMP JUMPDEST PUSH1 0x0 DUP1 PUSH1 0x40 DUP4 DUP6 SUB SLT ISZERO PUSH2 0x6C7D JUMPI PUSH2 0x6C7C PUSH2 0x8424 JUMP JUMPDEST JUMPDEST PUSH1 0x0 PUSH2 0x6C8B DUP6 DUP3 DUP7 ADD PUSH2 0x696B JUMP JUMPDEST SWAP3 POP POP PUSH1 0x20 PUSH2 0x6C9C DUP6 DUP3 DUP7 ADD PUSH2 0x65BB JUMP JUMPDEST SWAP2 POP POP SWAP3 POP SWAP3 SWAP1 POP JUMP JUMPDEST PUSH1 0x0 DUP1 PUSH1 0x40 DUP4 DUP6 SUB SLT ISZERO PUSH2 0x6CBD JUMPI PUSH2 0x6CBC PUSH2 0x8424 JUMP JUMPDEST JUMPDEST PUSH1 0x0 PUSH2 0x6CCB DUP6 DUP3 DUP7 ADD PUSH2 0x696B JUMP JUMPDEST SWAP3 POP POP PUSH1 0x20 DUP4 ADD CALLDATALOAD PUSH8 0xFFFFFFFFFFFFFFFF DUP2 GT ISZERO PUSH2 0x6CEC JUMPI PUSH2 0x6CEB PUSH2 0x841F JUMP JUMPDEST JUMPDEST PUSH2 0x6CF8 DUP6 DUP3 DUP7 ADD PUSH2 0x66FF JUMP JUMPDEST SWAP2 POP POP SWAP3 POP SWAP3 SWAP1 POP JUMP JUMPDEST PUSH1 0x0 DUP1 PUSH1 0x40 DUP4 DUP6 SUB SLT ISZERO PUSH2 0x6D19 JUMPI PUSH2 0x6D18 PUSH2 0x8424 JUMP JUMPDEST JUMPDEST PUSH1 0x0 PUSH2 0x6D27 DUP6 DUP3 DUP7 ADD PUSH2 0x696B JUMP JUMPDEST SWAP3 POP POP PUSH1 0x20 PUSH2 0x6D38 DUP6 DUP3 DUP7 ADD PUSH2 0x696B JUMP JUMPDEST SWAP2 POP POP SWAP3 POP SWAP3 SWAP1 POP JUMP JUMPDEST PUSH1 0x0 DUP1 PUSH1 0x0 PUSH1 0x60 DUP5 DUP7 SUB SLT ISZERO PUSH2 0x6D5B JUMPI PUSH2 0x6D5A PUSH2 0x8424 JUMP JUMPDEST JUMPDEST PUSH1 0x0 PUSH2 0x6D69 DUP7 DUP3 DUP8 ADD PUSH2 0x696B JUMP JUMPDEST SWAP4 POP POP PUSH1 0x20 PUSH2 0x6D7A DUP7 DUP3 DUP8 ADD PUSH2 0x696B JUMP JUMPDEST SWAP3 POP POP PUSH1 0x40 DUP5 ADD CALLDATALOAD PUSH8 0xFFFFFFFFFFFFFFFF DUP2 GT ISZERO PUSH2 0x6D9B JUMPI PUSH2 0x6D9A PUSH2 0x841F JUMP JUMPDEST JUMPDEST PUSH2 0x6DA7 DUP7 DUP3 DUP8 ADD PUSH2 0x65E5 JUMP JUMPDEST SWAP2 POP POP SWAP3 POP SWAP3 POP SWAP3 JUMP JUMPDEST PUSH1 0x0 PUSH2 0x6DBD DUP4 DUP4 PUSH2 0x6E1D JUMP JUMPDEST PUSH1 0x20 DUP4 ADD SWAP1 POP SWAP3 SWAP2 POP POP JUMP JUMPDEST PUSH1 0x0 PUSH2 0x6DD5 DUP4 DUP4 PUSH2 0x7572 JUMP JUMPDEST SWAP1 POP SWAP3 SWAP2 POP POP JUMP JUMPDEST PUSH1 0x0 PUSH2 0x6DE9 DUP4 DUP4 PUSH2 0x77EC JUMP JUMPDEST SWAP1 POP SWAP3 SWAP2 POP POP JUMP JUMPDEST PUSH1 0x0 PUSH2 0x6DFD DUP4 DUP4 PUSH2 0x7829 JUMP JUMPDEST SWAP1 POP SWAP3 SWAP2 POP POP JUMP JUMPDEST PUSH1 0x0 PUSH2 0x6E11 DUP4 DUP4 PUSH2 0x78A6 JUMP JUMPDEST PUSH1 0x20 DUP4 ADD SWAP1 POP SWAP3 SWAP2 POP POP JUMP JUMPDEST PUSH2 0x6E26 DUP2 PUSH2 0x8147 JUMP JUMPDEST DUP3 MSTORE POP POP JUMP JUMPDEST PUSH2 0x6E35 DUP2 PUSH2 0x8147 JUMP JUMPDEST DUP3 MSTORE POP POP JUMP JUMPDEST PUSH1 0x0 PUSH2 0x6E46 DUP3 PUSH2 0x7F0B JUMP JUMPDEST PUSH2 0x6E50 DUP2 DUP6 PUSH2 0x7F8E JUMP JUMPDEST SWAP4 POP PUSH2 0x6E5B DUP4 PUSH2 0x7EBB JUMP JUMPDEST DUP1 PUSH1 0x0 JUMPDEST DUP4 DUP2 LT ISZERO PUSH2 0x6E8C JUMPI DUP2 MLOAD PUSH2 0x6E73 DUP9 DUP3 PUSH2 0x6DB1 JUMP JUMPDEST SWAP8 POP PUSH2 0x6E7E DUP4 PUSH2 0x7F4D JUMP JUMPDEST SWAP3 POP POP PUSH1 0x1 DUP2 ADD SWAP1 POP PUSH2 0x6E5F JUMP JUMPDEST POP DUP6 SWAP4 POP POP POP POP SWAP3 SWAP2 POP POP JUMP JUMPDEST PUSH1 0x0 PUSH2 0x6EA4 DUP3 PUSH2 0x7F16 JUMP JUMPDEST PUSH2 0x6EAE DUP2 DUP6 PUSH2 0x7F9F JUMP JUMPDEST SWAP4 POP DUP4 PUSH1 0x20 DUP3 MUL DUP6 ADD PUSH2 0x6EC0 DUP6 PUSH2 0x7ECB JUMP JUMPDEST DUP1 PUSH1 0x0 JUMPDEST DUP6 DUP2 LT ISZERO PUSH2 0x6EFC JUMPI DUP5 DUP5 SUB DUP10 MSTORE DUP2 MLOAD PUSH2 0x6EDD DUP6 DUP3 PUSH2 0x6DC9 JUMP JUMPDEST SWAP5 POP PUSH2 0x6EE8 DUP4 PUSH2 0x7F5A JUMP JUMPDEST SWAP3 POP PUSH1 0x20 DUP11 ADD SWAP10 POP POP PUSH1 0x1 DUP2 ADD SWAP1 POP PUSH2 0x6EC4 JUMP JUMPDEST POP DUP3 SWAP8 POP DUP8 SWAP6 POP POP POP POP POP POP SWAP3 SWAP2 POP POP JUMP JUMPDEST PUSH1 0x0 PUSH2 0x6F19 DUP3 PUSH2 0x7F21 JUMP JUMPDEST PUSH2 0x6F23 DUP2 DUP6 PUSH2 0x7FB0 JUMP JUMPDEST SWAP4 POP DUP4 PUSH1 0x20 DUP3 MUL DUP6 ADD PUSH2 0x6F35 DUP6 PUSH2 0x7EDB JUMP JUMPDEST DUP1 PUSH1 0x0 JUMPDEST DUP6 DUP2 LT ISZERO PUSH2 0x6F71 JUMPI DUP5 DUP5 SUB DUP10 MSTORE DUP2 MLOAD PUSH2 0x6F52 DUP6 DUP3 PUSH2 0x6DDD JUMP JUMPDEST SWAP5 POP PUSH2 0x6F5D DUP4 PUSH2 0x7F67 JUMP JUMPDEST SWAP3 POP PUSH1 0x20 DUP11 ADD SWAP10 POP POP PUSH1 0x1 DUP2 ADD SWAP1 POP PUSH2 0x6F39 JUMP JUMPDEST POP DUP3 SWAP8 POP DUP8 SWAP6 POP POP POP POP POP POP SWAP3 SWAP2 POP POP JUMP JUMPDEST PUSH1 0x0 PUSH2 0x6F8E DUP3 PUSH2 0x7F2C JUMP JUMPDEST PUSH2 0x6F98 DUP2 DUP6 PUSH2 0x7FC1 JUMP JUMPDEST SWAP4 POP DUP4 PUSH1 0x20 DUP3 MUL DUP6 ADD PUSH2 0x6FAA DUP6 PUSH2 0x7EEB JUMP JUMPDEST DUP1 PUSH1 0x0 JUMPDEST DUP6 DUP2 LT ISZERO PUSH2 0x6FE6 JUMPI DUP5 DUP5 SUB DUP10 MSTORE DUP2 MLOAD PUSH2 0x6FC7 DUP6 DUP3 PUSH2 0x6DF1 JUMP JUMPDEST SWAP5 POP PUSH2 0x6FD2 DUP4 PUSH2 0x7F74 JUMP JUMPDEST SWAP3 POP PUSH1 0x20 DUP11 ADD SWAP10 POP POP PUSH1 0x1 DUP2 ADD SWAP1 POP PUSH2 0x6FAE JUMP JUMPDEST POP DUP3 SWAP8 POP DUP8 SWAP6 POP POP POP POP POP POP SWAP3 SWAP2 POP POP JUMP JUMPDEST PUSH1 0x0 PUSH2 0x7003 DUP3 PUSH2 0x7F2C JUMP JUMPDEST PUSH2 0x700D DUP2 DUP6 PUSH2 0x7FD2 JUMP JUMPDEST SWAP4 POP DUP4 PUSH1 0x20 DUP3 MUL DUP6 ADD PUSH2 0x701F DUP6 PUSH2 0x7EEB JUMP JUMPDEST DUP1 PUSH1 0x0 JUMPDEST DUP6 DUP2 LT ISZERO PUSH2 0x705B JUMPI DUP5 DUP5 SUB DUP10 MSTORE DUP2 MLOAD PUSH2 0x703C DUP6 DUP3 PUSH2 0x6DF1 JUMP JUMPDEST SWAP5 POP PUSH2 0x7047 DUP4 PUSH2 0x7F74 JUMP JUMPDEST SWAP3 POP PUSH1 0x20 DUP11 ADD SWAP10 POP POP PUSH1 0x1 DUP2 ADD SWAP1 POP PUSH2 0x7023 JUMP JUMPDEST POP DUP3 SWAP8 POP DUP8 SWAP6 POP POP POP POP POP POP SWAP3 SWAP2 POP POP JUMP JUMPDEST PUSH1 0x0 PUSH2 0x7078 DUP3 PUSH2 0x7F37 JUMP JUMPDEST PUSH2 0x7082 DUP2 DUP6 PUSH2 0x7FE3 JUMP JUMPDEST SWAP4 POP PUSH2 0x708D DUP4 PUSH2 0x7EFB JUMP JUMPDEST DUP1 PUSH1 0x0 JUMPDEST DUP4 DUP2 LT ISZERO PUSH2 0x70BE JUMPI DUP2 MLOAD PUSH2 0x70A5 DUP9 DUP3 PUSH2 0x6E05 JUMP JUMPDEST SWAP8 POP PUSH2 0x70B0 DUP4 PUSH2 0x7F81 JUMP JUMPDEST SWAP3 POP POP PUSH1 0x1 DUP2 ADD SWAP1 POP PUSH2 0x7091 JUMP JUMPDEST POP DUP6 SWAP4 POP POP POP POP SWAP3 SWAP2 POP POP JUMP JUMPDEST PUSH1 0x0 PUSH2 0x70D6 DUP3 PUSH2 0x7F37 JUMP JUMPDEST PUSH2 0x70E0 DUP2 DUP6 PUSH2 0x7FF4 JUMP JUMPDEST SWAP4 POP PUSH2 0x70EB DUP4 PUSH2 0x7EFB JUMP JUMPDEST DUP1 PUSH1 0x0 JUMPDEST DUP4 DUP2 LT ISZERO PUSH2 0x711C JUMPI DUP2 MLOAD PUSH2 0x7103 DUP9 DUP3 PUSH2 0x6E05 JUMP JUMPDEST SWAP8 POP PUSH2 0x710E DUP4 PUSH2 0x7F81 JUMP JUMPDEST SWAP3 POP POP PUSH1 0x1 DUP2 ADD SWAP1 POP PUSH2 0x70EF JUMP JUMPDEST POP DUP6 SWAP4 POP POP POP POP SWAP3 SWAP2 POP POP JUMP JUMPDEST PUSH2 0x7132 DUP2 PUSH2 0x8159 JUMP JUMPDEST DUP3 MSTORE POP POP JUMP JUMPDEST PUSH2 0x7141 DUP2 PUSH2 0x8159 JUMP JUMPDEST DUP3 MSTORE POP POP JUMP JUMPDEST PUSH2 0x7150 DUP2 PUSH2 0x81C8 JUMP JUMPDEST DUP3 MSTORE POP POP JUMP JUMPDEST PUSH2 0x715F DUP2 PUSH2 0x81C8 JUMP JUMPDEST DUP3 MSTORE POP POP JUMP JUMPDEST PUSH2 0x716E DUP2 PUSH2 0x81DA JUMP JUMPDEST DUP3 MSTORE POP POP JUMP JUMPDEST PUSH2 0x717D DUP2 PUSH2 0x81DA JUMP JUMPDEST DUP3 MSTORE POP POP JUMP JUMPDEST PUSH2 0x718C DUP2 PUSH2 0x81EC JUMP JUMPDEST DUP3 MSTORE POP POP JUMP JUMPDEST PUSH2 0x719B DUP2 PUSH2 0x81EC JUMP JUMPDEST DUP3 MSTORE POP POP JUMP JUMPDEST PUSH1 0x0 PUSH2 0x71AC DUP3 PUSH2 0x7F42 JUMP JUMPDEST PUSH2 0x71B6 DUP2 DUP6 PUSH2 0x8010 JUMP JUMPDEST SWAP4 POP PUSH2 0x71C6 DUP2 DUP6 PUSH1 0x20 DUP7 ADD PUSH2 0x820D JUMP JUMPDEST PUSH2 0x71CF DUP2 PUSH2 0x8429 JUMP JUMPDEST DUP5 ADD SWAP2 POP POP SWAP3 SWAP2 POP POP JUMP JUMPDEST PUSH1 0x0 PUSH2 0x71E7 PUSH1 0xB DUP4 PUSH2 0x8021 JUMP JUMPDEST SWAP2 POP PUSH2 0x71F2 DUP3 PUSH2 0x843A JUMP JUMPDEST PUSH1 0x20 DUP3 ADD SWAP1 POP SWAP2 SWAP1 POP JUMP JUMPDEST PUSH1 0x0 PUSH2 0x720A PUSH1 0x12 DUP4 PUSH2 0x8021 JUMP JUMPDEST SWAP2 POP PUSH2 0x7215 DUP3 PUSH2 0x8463 JUMP JUMPDEST PUSH1 0x20 DUP3 ADD SWAP1 POP SWAP2 SWAP1 POP JUMP JUMPDEST PUSH1 0x0 PUSH2 0x722D PUSH1 0x26 DUP4 PUSH2 0x8021 JUMP JUMPDEST SWAP2 POP PUSH2 0x7238 DUP3 PUSH2 0x848C JUMP JUMPDEST PUSH1 0x40 DUP3 ADD SWAP1 POP SWAP2 SWAP1 POP JUMP JUMPDEST PUSH1 0x0 PUSH2 0x7250 PUSH1 0x13 DUP4 PUSH2 0x8021 JUMP JUMPDEST SWAP2 POP PUSH2 0x725B DUP3 PUSH2 0x84DB JUMP JUMPDEST PUSH1 0x20 DUP3 ADD SWAP1 POP SWAP2 SWAP1 POP JUMP JUMPDEST PUSH1 0x0 PUSH2 0x7273 PUSH1 0x17 DUP4 PUSH2 0x8021 JUMP JUMPDEST SWAP2 POP PUSH2 0x727E DUP3 PUSH2 0x8504 JUMP JUMPDEST PUSH1 0x20 DUP3 ADD SWAP1 POP SWAP2 SWAP1 POP JUMP JUMPDEST PUSH1 0x0 PUSH2 0x7296 PUSH1 0x11 DUP4 PUSH2 0x8021 JUMP JUMPDEST SWAP2 POP PUSH2 0x72A1 DUP3 PUSH2 0x852D JUMP JUMPDEST PUSH1 0x20 DUP3 ADD SWAP1 POP SWAP2 SWAP1 POP JUMP JUMPDEST PUSH1 0x0 PUSH2 0x72B9 PUSH1 0x1B DUP4 PUSH2 0x8021 JUMP JUMPDEST SWAP2 POP PUSH2 0x72C4 DUP3 PUSH2 0x8556 JUMP JUMPDEST PUSH1 0x20 DUP3 ADD SWAP1 POP SWAP2 SWAP1 POP JUMP JUMPDEST PUSH1 0x0 PUSH2 0x72DC PUSH1 0x20 DUP4 PUSH2 0x8021 JUMP JUMPDEST SWAP2 POP PUSH2 0x72E7 DUP3 PUSH2 0x857F JUMP JUMPDEST PUSH1 0x20 DUP3 ADD SWAP1 POP SWAP2 SWAP1 POP JUMP JUMPDEST PUSH1 0x0 PUSH2 0x72FF PUSH1 0x1E DUP4 PUSH2 0x8021 JUMP JUMPDEST SWAP2 POP PUSH2 0x730A DUP3 PUSH2 0x85A8 JUMP JUMPDEST PUSH1 0x20 DUP3 ADD SWAP1 POP SWAP2 SWAP1 POP JUMP JUMPDEST PUSH1 0x0 PUSH2 0x7322 PUSH1 0x0 DUP4 PUSH2 0x8005 JUMP JUMPDEST SWAP2 POP PUSH2 0x732D DUP3 PUSH2 0x85D1 JUMP JUMPDEST PUSH1 0x0 DUP3 ADD SWAP1 POP SWAP2 SWAP1 POP JUMP JUMPDEST PUSH1 0x0 PUSH2 0x7345 PUSH1 0x26 DUP4 PUSH2 0x8021 JUMP JUMPDEST SWAP2 POP PUSH2 0x7350 DUP3 PUSH2 0x85D4 JUMP JUMPDEST PUSH1 0x40 DUP3 ADD SWAP1 POP SWAP2 SWAP1 POP JUMP JUMPDEST PUSH1 0x0 PUSH2 0x7368 PUSH1 0x10 DUP4 PUSH2 0x8021 JUMP JUMPDEST SWAP2 POP PUSH2 0x7373 DUP3 PUSH2 0x8623 JUMP JUMPDEST PUSH1 0x20 DUP3 ADD SWAP1 POP SWAP2 SWAP1 POP JUMP JUMPDEST PUSH1 0x0 PUSH2 0x738B PUSH1 0x10 DUP4 PUSH2 0x8021 JUMP JUMPDEST SWAP2 POP PUSH2 0x7396 DUP3 PUSH2 0x864C JUMP JUMPDEST PUSH1 0x20 DUP3 ADD SWAP1 POP SWAP2 SWAP1 POP JUMP JUMPDEST PUSH1 0x0 PUSH1 0xE0 DUP4 ADD PUSH1 0x0 DUP4 ADD MLOAD DUP5 DUP3 SUB PUSH1 0x0 DUP7 ADD MSTORE PUSH2 0x73BE DUP3 DUP3 PUSH2 0x71A1 JUMP JUMPDEST SWAP2 POP POP PUSH1 0x20 DUP4 ADD MLOAD PUSH2 0x73D3 PUSH1 0x20 DUP7 ADD DUP3 PUSH2 0x78A6 JUMP JUMPDEST POP PUSH1 0x40 DUP4 ADD MLOAD PUSH2 0x73E6 PUSH1 0x40 DUP7 ADD DUP3 PUSH2 0x78A6 JUMP JUMPDEST POP PUSH1 0x60 DUP4 ADD MLOAD PUSH2 0x73F9 PUSH1 0x60 DUP7 ADD DUP3 PUSH2 0x78A6 JUMP JUMPDEST POP PUSH1 0x80 DUP4 ADD MLOAD PUSH2 0x740C PUSH1 0x80 DUP7 ADD DUP3 PUSH2 0x78A6 JUMP JUMPDEST POP PUSH1 0xA0 DUP4 ADD MLOAD PUSH2 0x741F PUSH1 0xA0 DUP7 ADD DUP3 PUSH2 0x78A6 JUMP JUMPDEST POP PUSH1 0xC0 DUP4 ADD MLOAD DUP5 DUP3 SUB PUSH1 0xC0 DUP7 ADD MSTORE PUSH2 0x7437 DUP3 DUP3 PUSH2 0x71A1 JUMP JUMPDEST SWAP2 POP POP DUP1 SWAP2 POP POP SWAP3 SWAP2 POP POP JUMP JUMPDEST PUSH1 0x0 PUSH2 0x1A0 DUP4 ADD PUSH1 0x0 DUP4 ADD MLOAD PUSH2 0x745D PUSH1 0x0 DUP7 ADD DUP3 PUSH2 0x78A6 JUMP JUMPDEST POP PUSH1 0x20 DUP4 ADD MLOAD DUP5 DUP3 SUB PUSH1 0x20 DUP7 ADD MSTORE PUSH2 0x7475 DUP3 DUP3 PUSH2 0x71A1 JUMP JUMPDEST SWAP2 POP POP PUSH1 0x40 DUP4 ADD MLOAD DUP5 DUP3 SUB PUSH1 0x40 DUP7 ADD MSTORE PUSH2 0x748F DUP3 DUP3 PUSH2 0x71A1 JUMP JUMPDEST SWAP2 POP POP PUSH1 0x60 DUP4 ADD MLOAD PUSH2 0x74A4 PUSH1 0x60 DUP7 ADD DUP3 PUSH2 0x78A6 JUMP JUMPDEST POP PUSH1 0x80 DUP4 ADD MLOAD PUSH2 0x74B7 PUSH1 0x80 DUP7 ADD DUP3 PUSH2 0x78A6 JUMP JUMPDEST POP PUSH1 0xA0 DUP4 ADD MLOAD PUSH2 0x74CA PUSH1 0xA0 DUP7 ADD DUP3 PUSH2 0x78A6 JUMP JUMPDEST POP PUSH1 0xC0 DUP4 ADD MLOAD DUP5 DUP3 SUB PUSH1 0xC0 DUP7 ADD MSTORE PUSH2 0x74E2 DUP3 DUP3 PUSH2 0x706D JUMP JUMPDEST SWAP2 POP POP PUSH1 0xE0 DUP4 ADD MLOAD PUSH2 0x74F7 PUSH1 0xE0 DUP7 ADD DUP3 PUSH2 0x78A6 JUMP JUMPDEST POP PUSH2 0x100 DUP4 ADD MLOAD PUSH2 0x750C PUSH2 0x100 DUP7 ADD DUP3 PUSH2 0x78A6 JUMP JUMPDEST POP PUSH2 0x120 DUP4 ADD MLOAD PUSH2 0x7521 PUSH2 0x120 DUP7 ADD DUP3 PUSH2 0x7129 JUMP JUMPDEST POP PUSH2 0x140 DUP4 ADD MLOAD PUSH2 0x7536 PUSH2 0x140 DUP7 ADD DUP3 PUSH2 0x7129 JUMP JUMPDEST POP PUSH2 0x160 DUP4 ADD MLOAD PUSH2 0x754B PUSH2 0x160 DUP7 ADD DUP3 PUSH2 0x78A6 JUMP JUMPDEST POP PUSH2 0x180 DUP4 ADD MLOAD DUP5 DUP3 SUB PUSH2 0x180 DUP7 ADD MSTORE PUSH2 0x7565 DUP3 DUP3 PUSH2 0x6F83 JUMP JUMPDEST SWAP2 POP POP DUP1 SWAP2 POP POP SWAP3 SWAP2 POP POP JUMP JUMPDEST PUSH1 0x0 PUSH1 0x60 DUP4 ADD PUSH1 0x0 DUP4 ADD MLOAD PUSH2 0x758A PUSH1 0x0 DUP7 ADD DUP3 PUSH2 0x78A6 JUMP JUMPDEST POP PUSH1 0x20 DUP4 ADD MLOAD PUSH2 0x759D PUSH1 0x20 DUP7 ADD DUP3 PUSH2 0x7183 JUMP JUMPDEST POP PUSH1 0x40 DUP4 ADD MLOAD DUP5 DUP3 SUB PUSH1 0x40 DUP7 ADD MSTORE PUSH2 0x75B5 DUP3 DUP3 PUSH2 0x71A1 JUMP JUMPDEST SWAP2 POP POP DUP1 SWAP2 POP POP SWAP3 SWAP2 POP POP JUMP JUMPDEST PUSH1 0x0 PUSH2 0x300 DUP4 ADD PUSH1 0x0 DUP4 ADD MLOAD PUSH2 0x75DB PUSH1 0x0 DUP7 ADD DUP3 PUSH2 0x6E1D JUMP JUMPDEST POP PUSH1 0x20 DUP4 ADD MLOAD PUSH2 0x75EE PUSH1 0x20 DUP7 ADD DUP3 PUSH2 0x78A6 JUMP JUMPDEST POP PUSH1 0x40 DUP4 ADD MLOAD DUP5 DUP3 SUB PUSH1 0x40 DUP7 ADD MSTORE PUSH2 0x7606 DUP3 DUP3 PUSH2 0x71A1 JUMP JUMPDEST SWAP2 POP POP PUSH1 0x60 DUP4 ADD MLOAD DUP5 DUP3 SUB PUSH1 0x60 DUP7 ADD MSTORE PUSH2 0x7620 DUP3 DUP3 PUSH2 0x71A1 JUMP JUMPDEST SWAP2 POP POP PUSH1 0x80 DUP4 ADD MLOAD PUSH2 0x7635 PUSH1 0x80 DUP7 ADD DUP3 PUSH2 0x78A6 JUMP JUMPDEST POP PUSH1 0xA0 DUP4 ADD MLOAD PUSH2 0x7648 PUSH1 0xA0 DUP7 ADD DUP3 PUSH2 0x78A6 JUMP JUMPDEST POP PUSH1 0xC0 DUP4 ADD MLOAD PUSH2 0x765B PUSH1 0xC0 DUP7 ADD DUP3 PUSH2 0x78A6 JUMP JUMPDEST POP PUSH1 0xE0 DUP4 ADD MLOAD DUP5 DUP3 SUB PUSH1 0xE0 DUP7 ADD MSTORE PUSH2 0x7673 DUP3 DUP3 PUSH2 0x706D JUMP JUMPDEST SWAP2 POP POP PUSH2 0x100 DUP4 ADD MLOAD PUSH2 0x768A PUSH2 0x100 DUP7 ADD DUP3 PUSH2 0x78A6 JUMP JUMPDEST POP PUSH2 0x120 DUP4 ADD MLOAD PUSH2 0x769F PUSH2 0x120 DUP7 ADD DUP3 PUSH2 0x78A6 JUMP JUMPDEST POP PUSH2 0x140 DUP4 ADD MLOAD PUSH2 0x76B4 PUSH2 0x140 DUP7 ADD DUP3 PUSH2 0x7129 JUMP JUMPDEST POP PUSH2 0x160 DUP4 ADD MLOAD PUSH2 0x76C9 PUSH2 0x160 DUP7 ADD DUP3 PUSH2 0x7129 JUMP JUMPDEST POP PUSH2 0x180 DUP4 ADD MLOAD PUSH2 0x76DE PUSH2 0x180 DUP7 ADD DUP3 PUSH2 0x78A6 JUMP JUMPDEST POP PUSH2 0x1A0 DUP4 ADD MLOAD DUP5 DUP3 SUB PUSH2 0x1A0 DUP7 ADD MSTORE PUSH2 0x76F8 DUP3 DUP3 PUSH2 0x6E99 JUMP JUMPDEST SWAP2 POP POP PUSH2 0x1C0 DUP4 ADD MLOAD DUP5 DUP3 SUB PUSH2 0x1C0 DUP7 ADD MSTORE PUSH2 0x7714 DUP3 DUP3 PUSH2 0x6F83 JUMP JUMPDEST SWAP2 POP POP PUSH2 0x1E0 DUP4 ADD MLOAD DUP5 DUP3 SUB PUSH2 0x1E0 DUP7 ADD MSTORE PUSH2 0x7730 DUP3 DUP3 PUSH2 0x6F0E JUMP JUMPDEST SWAP2 POP POP PUSH2 0x200 DUP4 ADD MLOAD DUP5 DUP3 SUB PUSH2 0x200 DUP7 ADD MSTORE PUSH2 0x774C DUP3 DUP3 PUSH2 0x6F0E JUMP JUMPDEST SWAP2 POP POP PUSH2 0x220 DUP4 ADD MLOAD PUSH2 0x7763 PUSH2 0x220 DUP7 ADD DUP3 PUSH2 0x78A6 JUMP JUMPDEST POP PUSH2 0x240 DUP4 ADD MLOAD PUSH2 0x7778 PUSH2 0x240 DUP7 ADD DUP3 PUSH2 0x78A6 JUMP JUMPDEST POP PUSH2 0x260 DUP4 ADD MLOAD PUSH2 0x778D PUSH2 0x260 DUP7 ADD DUP3 PUSH2 0x78A6 JUMP JUMPDEST POP PUSH2 0x280 DUP4 ADD MLOAD PUSH2 0x77A2 PUSH2 0x280 DUP7 ADD DUP3 PUSH2 0x78A6 JUMP JUMPDEST POP PUSH2 0x2A0 DUP4 ADD MLOAD PUSH2 0x77B7 PUSH2 0x2A0 DUP7 ADD DUP3 PUSH2 0x7129 JUMP JUMPDEST POP PUSH2 0x2C0 DUP4 ADD MLOAD PUSH2 0x77CC PUSH2 0x2C0 DUP7 ADD DUP3 PUSH2 0x7129 JUMP JUMPDEST POP PUSH2 0x2E0 DUP4 ADD MLOAD PUSH2 0x77E1 PUSH2 0x2E0 DUP7 ADD DUP3 PUSH2 0x7165 JUMP JUMPDEST POP DUP1 SWAP2 POP POP SWAP3 SWAP2 POP POP JUMP JUMPDEST PUSH1 0x0 PUSH1 0x40 DUP4 ADD PUSH1 0x0 DUP4 ADD MLOAD PUSH2 0x7804 PUSH1 0x0 DUP7 ADD DUP3 PUSH2 0x6E1D JUMP JUMPDEST POP PUSH1 0x20 DUP4 ADD MLOAD DUP5 DUP3 SUB PUSH1 0x20 DUP7 ADD MSTORE PUSH2 0x781C DUP3 DUP3 PUSH2 0x6E99 JUMP JUMPDEST SWAP2 POP POP DUP1 SWAP2 POP POP SWAP3 SWAP2 POP POP JUMP JUMPDEST PUSH1 0x0 PUSH1 0xA0 DUP4 ADD PUSH1 0x0 DUP4 ADD MLOAD DUP5 DUP3 SUB PUSH1 0x0 DUP7 ADD MSTORE PUSH2 0x7846 DUP3 DUP3 PUSH2 0x73A1 JUMP JUMPDEST SWAP2 POP POP PUSH1 0x20 DUP4 ADD MLOAD PUSH2 0x785B PUSH1 0x20 DUP7 ADD DUP3 PUSH2 0x78A6 JUMP JUMPDEST POP PUSH1 0x40 DUP4 ADD MLOAD DUP5 DUP3 SUB PUSH1 0x40 DUP7 ADD MSTORE PUSH2 0x7873 DUP3 DUP3 PUSH2 0x71A1 JUMP JUMPDEST SWAP2 POP POP PUSH1 0x60 DUP4 ADD MLOAD PUSH2 0x7888 PUSH1 0x60 DUP7 ADD DUP3 PUSH2 0x7147 JUMP JUMPDEST POP PUSH1 0x80 DUP4 ADD MLOAD PUSH2 0x789B PUSH1 0x80 DUP7 ADD DUP3 PUSH2 0x78A6 JUMP JUMPDEST POP DUP1 SWAP2 POP POP SWAP3 SWAP2 POP POP JUMP JUMPDEST PUSH2 0x78AF DUP2 PUSH2 0x81BE JUMP JUMPDEST DUP3 MSTORE POP POP JUMP JUMPDEST PUSH2 0x78BE DUP2 PUSH2 0x81BE JUMP JUMPDEST DUP3 MSTORE POP POP JUMP JUMPDEST PUSH2 0x78CD DUP2 PUSH2 0x81BE JUMP JUMPDEST DUP3 MSTORE POP POP JUMP JUMPDEST PUSH1 0x0 PUSH2 0x78DE DUP3 PUSH2 0x7315 JUMP JUMPDEST SWAP2 POP DUP2 SWAP1 POP SWAP2 SWAP1 POP JUMP JUMPDEST PUSH1 0x0 PUSH1 0x20 DUP3 ADD SWAP1 POP PUSH2 0x78FD PUSH1 0x0 DUP4 ADD DUP5 PUSH2 0x6E2C JUMP JUMPDEST SWAP3 SWAP2 POP POP JUMP JUMPDEST PUSH1 0x0 PUSH1 0x60 DUP3 ADD SWAP1 POP PUSH2 0x7918 PUSH1 0x0 DUP4 ADD DUP7 PUSH2 0x6E2C JUMP JUMPDEST PUSH2 0x7925 PUSH1 0x20 DUP4 ADD DUP6 PUSH2 0x6E2C JUMP JUMPDEST PUSH2 0x7932 PUSH1 0x40 DUP4 ADD DUP5 PUSH2 0x78B5 JUMP JUMPDEST SWAP5 SWAP4 POP POP POP POP JUMP JUMPDEST PUSH1 0x0 PUSH1 0x60 DUP3 ADD SWAP1 POP PUSH2 0x794F PUSH1 0x0 DUP4 ADD DUP7 PUSH2 0x6E2C JUMP JUMPDEST PUSH2 0x795C PUSH1 0x20 DUP4 ADD DUP6 PUSH2 0x78B5 JUMP JUMPDEST DUP2 DUP2 SUB PUSH1 0x40 DUP4 ADD MSTORE PUSH2 0x796E DUP2 DUP5 PUSH2 0x7444 JUMP JUMPDEST SWAP1 POP SWAP5 SWAP4 POP POP POP POP JUMP JUMPDEST PUSH1 0x0 PUSH1 0x20 DUP3 ADD SWAP1 POP DUP2 DUP2 SUB PUSH1 0x0 DUP4 ADD MSTORE PUSH2 0x7992 DUP2 DUP5 PUSH2 0x6E3B JUMP JUMPDEST SWAP1 POP SWAP3 SWAP2 POP POP JUMP JUMPDEST PUSH1 0x0 PUSH1 0x20 DUP3 ADD SWAP1 POP DUP2 DUP2 SUB PUSH1 0x0 DUP4 ADD MSTORE PUSH2 0x79B4 DUP2 DUP5 PUSH2 0x6FF8 JUMP JUMPDEST SWAP1 POP SWAP3 SWAP2 POP POP JUMP JUMPDEST PUSH1 0x0 PUSH1 0x40 DUP3 ADD SWAP1 POP DUP2 DUP2 SUB PUSH1 0x0 DUP4 ADD MSTORE PUSH2 0x79D6 DUP2 DUP6 PUSH2 0x70CB JUMP JUMPDEST SWAP1 POP PUSH2 0x79E5 PUSH1 0x20 DUP4 ADD DUP5 PUSH2 0x78B5 JUMP JUMPDEST SWAP4 SWAP3 POP POP POP JUMP JUMPDEST PUSH1 0x0 PUSH1 0x20 DUP3 ADD SWAP1 POP PUSH2 0x7A01 PUSH1 0x0 DUP4 ADD DUP5 PUSH2 0x7138 JUMP JUMPDEST SWAP3 SWAP2 POP POP JUMP JUMPDEST PUSH1 0x0 PUSH1 0x20 DUP3 ADD SWAP1 POP PUSH2 0x7A1C PUSH1 0x0 DUP4 ADD DUP5 PUSH2 0x7156 JUMP JUMPDEST SWAP3 SWAP2 POP POP JUMP JUMPDEST PUSH1 0x0 PUSH1 0x20 DUP3 ADD SWAP1 POP PUSH2 0x7A37 PUSH1 0x0 DUP4 ADD DUP5 PUSH2 0x7174 JUMP JUMPDEST SWAP3 SWAP2 POP POP JUMP JUMPDEST PUSH1 0x0 PUSH1 0x20 DUP3 ADD SWAP1 POP DUP2 DUP2 SUB PUSH1 0x0 DUP4 ADD MSTORE PUSH2 0x7A56 DUP2 PUSH2 0x71DA JUMP JUMPDEST SWAP1 POP SWAP2 SWAP1 POP JUMP JUMPDEST PUSH1 0x0 PUSH1 0x20 DUP3 ADD SWAP1 POP DUP2 DUP2 SUB PUSH1 0x0 DUP4 ADD MSTORE PUSH2 0x7A76 DUP2 PUSH2 0x71FD JUMP JUMPDEST SWAP1 POP SWAP2 SWAP1 POP JUMP JUMPDEST PUSH1 0x0 PUSH1 0x20 DUP3 ADD SWAP1 POP DUP2 DUP2 SUB PUSH1 0x0 DUP4 ADD MSTORE PUSH2 0x7A96 DUP2 PUSH2 0x7220 JUMP JUMPDEST SWAP1 POP SWAP2 SWAP1 POP JUMP JUMPDEST PUSH1 0x0 PUSH1 0x20 DUP3 ADD SWAP1 POP DUP2 DUP2 SUB PUSH1 0x0 DUP4 ADD MSTORE PUSH2 0x7AB6 DUP2 PUSH2 0x7243 JUMP JUMPDEST SWAP1 POP SWAP2 SWAP1 POP JUMP JUMPDEST PUSH1 0x0 PUSH1 0x40 DUP3 ADD SWAP1 POP DUP2 DUP2 SUB PUSH1 0x0 DUP4 ADD MSTORE PUSH2 0x7AD6 DUP2 PUSH2 0x7266 JUMP JUMPDEST SWAP1 POP PUSH2 0x7AE5 PUSH1 0x20 DUP4 ADD DUP5 PUSH2 0x78B5 JUMP JUMPDEST SWAP3 SWAP2 POP POP JUMP JUMPDEST PUSH1 0x0 PUSH1 0x40 DUP3 ADD SWAP1 POP DUP2 DUP2 SUB PUSH1 0x0 DUP4 ADD MSTORE PUSH2 0x7B04 DUP2 PUSH2 0x7289 JUMP JUMPDEST SWAP1 POP PUSH2 0x7B13 PUSH1 0x20 DUP4 ADD DUP5 PUSH2 0x78B5 JUMP JUMPDEST SWAP3 SWAP2 POP POP JUMP JUMPDEST PUSH1 0x0 PUSH1 0x20 DUP3 ADD SWAP1 POP DUP2 DUP2 SUB PUSH1 0x0 DUP4 ADD MSTORE PUSH2 0x7B32 DUP2 PUSH2 0x72AC JUMP JUMPDEST SWAP1 POP SWAP2 SWAP1 POP JUMP JUMPDEST PUSH1 0x0 PUSH1 0x20 DUP3 ADD SWAP1 POP DUP2 DUP2 SUB PUSH1 0x0 DUP4 ADD MSTORE PUSH2 0x7B52 DUP2 PUSH2 0x72CF JUMP JUMPDEST SWAP1 POP SWAP2 SWAP1 POP JUMP JUMPDEST PUSH1 0x0 PUSH1 0x20 DUP3 ADD SWAP1 POP DUP2 DUP2 SUB PUSH1 0x0 DUP4 ADD MSTORE PUSH2 0x7B72 DUP2 PUSH2 0x72F2 JUMP JUMPDEST SWAP1 POP SWAP2 SWAP1 POP JUMP JUMPDEST PUSH1 0x0 PUSH1 0x20 DUP3 ADD SWAP1 POP DUP2 DUP2 SUB PUSH1 0x0 DUP4 ADD MSTORE PUSH2 0x7B92 DUP2 PUSH2 0x7338 JUMP JUMPDEST SWAP1 POP SWAP2 SWAP1 POP JUMP JUMPDEST PUSH1 0x0 PUSH1 0x40 DUP3 ADD SWAP1 POP DUP2 DUP2 SUB PUSH1 0x0 DUP4 ADD MSTORE PUSH2 0x7BB2 DUP2 PUSH2 0x735B JUMP JUMPDEST SWAP1 POP PUSH2 0x7BC1 PUSH1 0x20 DUP4 ADD DUP5 PUSH2 0x7156 JUMP JUMPDEST SWAP3 SWAP2 POP POP JUMP JUMPDEST PUSH1 0x0 PUSH1 0x20 DUP3 ADD SWAP1 POP DUP2 DUP2 SUB PUSH1 0x0 DUP4 ADD MSTORE PUSH2 0x7BE0 DUP2 PUSH2 0x737E JUMP JUMPDEST SWAP1 POP SWAP2 SWAP1 POP JUMP JUMPDEST PUSH1 0x0 PUSH1 0x20 DUP3 ADD SWAP1 POP DUP2 DUP2 SUB PUSH1 0x0 DUP4 ADD MSTORE PUSH2 0x7C01 DUP2 DUP5 PUSH2 0x75C2 JUMP JUMPDEST SWAP1 POP SWAP3 SWAP2 POP POP JUMP JUMPDEST PUSH1 0x0 PUSH1 0x20 DUP3 ADD SWAP1 POP PUSH2 0x7C1E PUSH1 0x0 DUP4 ADD DUP5 PUSH2 0x78C4 JUMP JUMPDEST SWAP3 SWAP2 POP POP JUMP JUMPDEST PUSH1 0x0 PUSH1 0x20 DUP3 ADD SWAP1 POP PUSH2 0x7C39 PUSH1 0x0 DUP4 ADD DUP5 PUSH2 0x78B5 JUMP JUMPDEST SWAP3 SWAP2 POP POP JUMP JUMPDEST PUSH1 0x0 PUSH1 0xC0 DUP3 ADD SWAP1 POP PUSH2 0x7C54 PUSH1 0x0 DUP4 ADD DUP10 PUSH2 0x78B5 JUMP JUMPDEST PUSH2 0x7C61 PUSH1 0x20 DUP4 ADD DUP9 PUSH2 0x6E2C JUMP JUMPDEST PUSH2 0x7C6E PUSH1 0x40 DUP4 ADD DUP8 PUSH2 0x78B5 JUMP JUMPDEST PUSH2 0x7C7B PUSH1 0x60 DUP4 ADD DUP7 PUSH2 0x7192 JUMP JUMPDEST PUSH2 0x7C88 PUSH1 0x80 DUP4 ADD DUP6 PUSH2 0x7138 JUMP JUMPDEST PUSH2 0x7C95 PUSH1 0xA0 DUP4 ADD DUP5 PUSH2 0x6E2C JUMP JUMPDEST SWAP8 SWAP7 POP POP POP POP POP POP POP JUMP JUMPDEST PUSH1 0x0 PUSH1 0x80 DUP3 ADD SWAP1 POP PUSH2 0x7CB5 PUSH1 0x0 DUP4 ADD DUP8 PUSH2 0x78B5 JUMP JUMPDEST DUP2 DUP2 SUB PUSH1 0x20 DUP4 ADD MSTORE PUSH2 0x7CC7 DUP2 DUP7 PUSH2 0x70CB JUMP JUMPDEST SWAP1 POP PUSH2 0x7CD6 PUSH1 0x40 DUP4 ADD DUP6 PUSH2 0x6E2C JUMP JUMPDEST PUSH2 0x7CE3 PUSH1 0x60 DUP4 ADD DUP5 PUSH2 0x7138 JUMP JUMPDEST SWAP6 SWAP5 POP POP POP POP POP JUMP JUMPDEST PUSH1 0x0 PUSH1 0x60 DUP3 ADD SWAP1 POP PUSH2 0x7D01 PUSH1 0x0 DUP4 ADD DUP7 PUSH2 0x78B5 JUMP JUMPDEST PUSH2 0x7D0E PUSH1 0x20 DUP4 ADD DUP6 PUSH2 0x7138 JUMP JUMPDEST PUSH2 0x7D1B PUSH1 0x40 DUP4 ADD DUP5 PUSH2 0x6E2C JUMP JUMPDEST SWAP5 SWAP4 POP POP POP POP JUMP JUMPDEST PUSH1 0x0 PUSH1 0x60 DUP3 ADD SWAP1 POP PUSH2 0x7D38 PUSH1 0x0 DUP4 ADD DUP7 PUSH2 0x78B5 JUMP JUMPDEST PUSH2 0x7D45 PUSH1 0x20 DUP4 ADD DUP6 PUSH2 0x7174 JUMP JUMPDEST PUSH2 0x7D52 PUSH1 0x40 DUP4 ADD DUP5 PUSH2 0x6E2C JUMP JUMPDEST SWAP5 SWAP4 POP POP POP POP JUMP JUMPDEST PUSH1 0x0 PUSH1 0x40 DUP3 ADD SWAP1 POP PUSH2 0x7D6F PUSH1 0x0 DUP4 ADD DUP6 PUSH2 0x78C4 JUMP JUMPDEST PUSH2 0x7D7C PUSH1 0x20 DUP4 ADD DUP5 PUSH2 0x78C4 JUMP JUMPDEST SWAP4 SWAP3 POP POP POP JUMP JUMPDEST PUSH1 0x0 PUSH1 0x80 DUP3 ADD SWAP1 POP PUSH2 0x7D98 PUSH1 0x0 DUP4 ADD DUP8 PUSH2 0x78B5 JUMP JUMPDEST PUSH2 0x7DA5 PUSH1 0x20 DUP4 ADD DUP7 PUSH2 0x78B5 JUMP JUMPDEST PUSH2 0x7DB2 PUSH1 0x40 DUP4 ADD DUP6 PUSH2 0x6E2C JUMP JUMPDEST PUSH2 0x7DBF PUSH1 0x60 DUP4 ADD DUP5 PUSH2 0x7138 JUMP JUMPDEST SWAP6 SWAP5 POP POP POP POP POP JUMP JUMPDEST PUSH1 0x0 PUSH1 0x80 DUP3 ADD SWAP1 POP PUSH2 0x7DDD PUSH1 0x0 DUP4 ADD DUP8 PUSH2 0x78B5 JUMP JUMPDEST PUSH2 0x7DEA PUSH1 0x20 DUP4 ADD DUP7 PUSH2 0x78B5 JUMP JUMPDEST PUSH2 0x7DF7 PUSH1 0x40 DUP4 ADD DUP6 PUSH2 0x7156 JUMP JUMPDEST PUSH2 0x7E04 PUSH1 0x60 DUP4 ADD DUP5 PUSH2 0x6E2C JUMP JUMPDEST SWAP6 SWAP5 POP POP POP POP POP JUMP JUMPDEST PUSH1 0x0 PUSH2 0x7E17 PUSH2 0x7E28 JUMP JUMPDEST SWAP1 POP PUSH2 0x7E23 DUP3 DUP3 PUSH2 0x8272 JUMP JUMPDEST SWAP2 SWAP1 POP JUMP JUMPDEST PUSH1 0x0 PUSH1 0x40 MLOAD SWAP1 POP SWAP1 JUMP JUMPDEST PUSH1 0x0 PUSH8 0xFFFFFFFFFFFFFFFF DUP3 GT ISZERO PUSH2 0x7E4D JUMPI PUSH2 0x7E4C PUSH2 0x83D7 JUMP JUMPDEST JUMPDEST PUSH1 0x20 DUP3 MUL SWAP1 POP PUSH1 0x20 DUP2 ADD SWAP1 POP SWAP2 SWAP1 POP JUMP JUMPDEST PUSH1 0x0 PUSH8 0xFFFFFFFFFFFFFFFF DUP3 GT ISZERO PUSH2 0x7E79 JUMPI PUSH2 0x7E78 PUSH2 0x83D7 JUMP JUMPDEST JUMPDEST PUSH1 0x20 DUP3 MUL SWAP1 POP PUSH1 0x20 DUP2 ADD SWAP1 POP SWAP2 SWAP1 POP JUMP JUMPDEST PUSH1 0x0 PUSH8 0xFFFFFFFFFFFFFFFF DUP3 GT ISZERO PUSH2 0x7EA5 JUMPI PUSH2 0x7EA4 PUSH2 0x83D7 JUMP JUMPDEST JUMPDEST PUSH2 0x7EAE DUP3 PUSH2 0x8429 JUMP JUMPDEST SWAP1 POP PUSH1 0x20 DUP2 ADD SWAP1 POP SWAP2 SWAP1 POP JUMP JUMPDEST PUSH1 0x0 DUP2 SWAP1 POP PUSH1 0x20 DUP3 ADD SWAP1 POP SWAP2 SWAP1 POP JUMP JUMPDEST PUSH1 0x0 DUP2 SWAP1 POP PUSH1 0x20 DUP3 ADD SWAP1 POP SWAP2 SWAP1 POP JUMP JUMPDEST PUSH1 0x0 DUP2 SWAP1 POP PUSH1 0x20 DUP3 ADD SWAP1 POP SWAP2 SWAP1 POP JUMP JUMPDEST PUSH1 0x0 DUP2 SWAP1 POP PUSH1 0x20 DUP3 ADD SWAP1 POP SWAP2 SWAP1 POP JUMP JUMPDEST PUSH1 0x0 DUP2 SWAP1 POP PUSH1 0x20 DUP3 ADD SWAP1 POP SWAP2 SWAP1 POP JUMP JUMPDEST PUSH1 0x0 DUP2 MLOAD SWAP1 POP SWAP2 SWAP1 POP JUMP JUMPDEST PUSH1 0x0 DUP2 MLOAD SWAP1 POP SWAP2 SWAP1 POP JUMP JUMPDEST PUSH1 0x0 DUP2 MLOAD SWAP1 POP SWAP2 SWAP1 POP JUMP JUMPDEST PUSH1 0x0 DUP2 MLOAD SWAP1 POP SWAP2 SWAP1 POP JUMP JUMPDEST PUSH1 0x0 DUP2 MLOAD SWAP1 POP SWAP2 SWAP1 POP JUMP JUMPDEST PUSH1 0x0 DUP2 MLOAD SWAP1 POP SWAP2 SWAP1 POP JUMP JUMPDEST PUSH1 0x0 PUSH1 0x20 DUP3 ADD SWAP1 POP SWAP2 SWAP1 POP JUMP JUMPDEST PUSH1 0x0 PUSH1 0x20 DUP3 ADD SWAP1 POP SWAP2 SWAP1 POP JUMP JUMPDEST PUSH1 0x0 PUSH1 0x20 DUP3 ADD SWAP1 POP SWAP2 SWAP1 POP JUMP JUMPDEST PUSH1 0x0 PUSH1 0x20 DUP3 ADD SWAP1 POP SWAP2 SWAP1 POP JUMP JUMPDEST PUSH1 0x0 PUSH1 0x20 DUP3 ADD SWAP1 POP SWAP2 SWAP1 POP JUMP JUMPDEST PUSH1 0x0 DUP3 DUP3 MSTORE PUSH1 0x20 DUP3 ADD SWAP1 POP SWAP3 SWAP2 POP POP JUMP JUMPDEST PUSH1 0x0 DUP3 DUP3 MSTORE PUSH1 0x20 DUP3 ADD SWAP1 POP SWAP3 SWAP2 POP POP JUMP JUMPDEST PUSH1 0x0 DUP3 DUP3 MSTORE PUSH1 0x20 DUP3 ADD SWAP1 POP SWAP3 SWAP2 POP POP JUMP JUMPDEST PUSH1 0x0 DUP3 DUP3 MSTORE PUSH1 0x20 DUP3 ADD SWAP1 POP SWAP3 SWAP2 POP POP JUMP JUMPDEST PUSH1 0x0 DUP3 DUP3 MSTORE PUSH1 0x20 DUP3 ADD SWAP1 POP SWAP3 SWAP2 POP POP JUMP JUMPDEST PUSH1 0x0 DUP3 DUP3 MSTORE PUSH1 0x20 DUP3 ADD SWAP1 POP SWAP3 SWAP2 POP POP JUMP JUMPDEST PUSH1 0x0 DUP3 DUP3 MSTORE PUSH1 0x20 DUP3 ADD SWAP1 POP SWAP3 SWAP2 POP POP JUMP JUMPDEST PUSH1 0x0 DUP2 SWAP1 POP SWAP3 SWAP2 POP POP JUMP JUMPDEST PUSH1 0x0 DUP3 DUP3 MSTORE PUSH1 0x20 DUP3 ADD SWAP1 POP SWAP3 SWAP2 POP POP JUMP JUMPDEST PUSH1 0x0 DUP3 DUP3 MSTORE PUSH1 0x20 DUP3 ADD SWAP1 POP SWAP3 SWAP2 POP POP JUMP JUMPDEST PUSH1 0x0 PUSH2 0x803D DUP3 PUSH2 0x81BE JUMP JUMPDEST SWAP2 POP PUSH2 0x8048 DUP4 PUSH2 0x81BE JUMP JUMPDEST SWAP3 POP DUP3 PUSH32 0xFFFFFFFFFFFFFFFFFFFFFFFFFFFFFFFFFFFFFFFFFFFFFFFFFFFFFFFFFFFFFFFF SUB DUP3 GT ISZERO PUSH2 0x807D JUMPI PUSH2 0x807C PUSH2 0x82EC JUMP JUMPDEST JUMPDEST DUP3 DUP3 ADD SWAP1 POP SWAP3 SWAP2 POP POP JUMP JUMPDEST PUSH1 0x0 PUSH2 0x8093 DUP3 PUSH2 0x81BE JUMP JUMPDEST SWAP2 POP PUSH2 0x809E DUP4 PUSH2 0x81BE JUMP JUMPDEST SWAP3 POP DUP3 PUSH2 0x80AE JUMPI PUSH2 0x80AD PUSH2 0x831B JUMP JUMPDEST JUMPDEST DUP3 DUP3 DIV SWAP1 POP SWAP3 SWAP2 POP POP JUMP JUMPDEST PUSH1 0x0 PUSH2 0x80C4 DUP3 PUSH2 0x81BE JUMP JUMPDEST SWAP2 POP PUSH2 0x80CF DUP4 PUSH2 0x81BE JUMP JUMPDEST SWAP3 POP DUP2 PUSH32 0xFFFFFFFFFFFFFFFFFFFFFFFFFFFFFFFFFFFFFFFFFFFFFFFFFFFFFFFFFFFFFFFF DIV DUP4 GT DUP3 ISZERO ISZERO AND ISZERO PUSH2 0x8108 JUMPI PUSH2 0x8107 PUSH2 0x82EC JUMP JUMPDEST JUMPDEST DUP3 DUP3 MUL SWAP1 POP SWAP3 SWAP2 POP POP JUMP JUMPDEST PUSH1 0x0 PUSH2 0x811E DUP3 PUSH2 0x81BE JUMP JUMPDEST SWAP2 POP PUSH2 0x8129 DUP4 PUSH2 0x81BE JUMP JUMPDEST SWAP3 POP DUP3 DUP3 LT ISZERO PUSH2 0x813C JUMPI PUSH2 0x813B PUSH2 0x82EC JUMP JUMPDEST JUMPDEST DUP3 DUP3 SUB SWAP1 POP SWAP3 SWAP2 POP POP JUMP JUMPDEST PUSH1 0x0 PUSH2 0x8152 DUP3 PUSH2 0x819E JUMP JUMPDEST SWAP1 POP SWAP2 SWAP1 POP JUMP JUMPDEST PUSH1 0x0 DUP2 ISZERO ISZERO SWAP1 POP SWAP2 SWAP1 POP JUMP JUMPDEST PUSH1 0x0 DUP2 SWAP1 POP PUSH2 0x8173 DUP3 PUSH2 0x8675 JUMP JUMPDEST SWAP2 SWAP1 POP JUMP JUMPDEST PUSH1 0x0 DUP2 SWAP1 POP PUSH2 0x8186 DUP3 PUSH2 0x8689 JUMP JUMPDEST SWAP2 SWAP1 POP JUMP JUMPDEST PUSH1 0x0 DUP2 SWAP1 POP PUSH2 0x8199 DUP3 PUSH2 0x869D JUMP JUMPDEST SWAP2 SWAP1 POP JUMP JUMPDEST PUSH1 0x0 PUSH20 0xFFFFFFFFFFFFFFFFFFFFFFFFFFFFFFFFFFFFFFFF DUP3 AND SWAP1 POP SWAP2 SWAP1 POP JUMP JUMPDEST PUSH1 0x0 DUP2 SWAP1 POP SWAP2 SWAP1 POP JUMP JUMPDEST PUSH1 0x0 PUSH2 0x81D3 DUP3 PUSH2 0x8165 JUMP JUMPDEST SWAP1 POP SWAP2 SWAP1 POP JUMP JUMPDEST PUSH1 0x0 PUSH2 0x81E5 DUP3 PUSH2 0x8178 JUMP JUMPDEST SWAP1 POP SWAP2 SWAP1 POP JUMP JUMPDEST PUSH1 0x0 PUSH2 0x81F7 DUP3 PUSH2 0x818B JUMP JUMPDEST SWAP1 POP SWAP2 SWAP1 POP JUMP JUMPDEST DUP3 DUP2 DUP4 CALLDATACOPY PUSH1 0x0 DUP4 DUP4 ADD MSTORE POP POP POP JUMP JUMPDEST PUSH1 0x0 JUMPDEST DUP4 DUP2 LT ISZERO PUSH2 0x822B JUMPI DUP1 DUP3 ADD MLOAD DUP2 DUP5 ADD MSTORE PUSH1 0x20 DUP2 ADD SWAP1 POP PUSH2 0x8210 JUMP JUMPDEST DUP4 DUP2 GT ISZERO PUSH2 0x823A JUMPI PUSH1 0x0 DUP5 DUP5 ADD MSTORE JUMPDEST POP POP POP POP JUMP JUMPDEST PUSH1 0x0 PUSH1 0x2 DUP3 DIV SWAP1 POP PUSH1 0x1 DUP3 AND DUP1 PUSH2 0x8258 JUMPI PUSH1 0x7F DUP3 AND SWAP2 POP JUMPDEST PUSH1 0x20 DUP3 LT DUP2 EQ ISZERO PUSH2 0x826C JUMPI PUSH2 0x826B PUSH2 0x8379 JUMP JUMPDEST JUMPDEST POP SWAP2 SWAP1 POP JUMP JUMPDEST PUSH2 0x827B DUP3 PUSH2 0x8429 JUMP JUMPDEST DUP2 ADD DUP2 DUP2 LT PUSH8 0xFFFFFFFFFFFFFFFF DUP3 GT OR ISZERO PUSH2 0x829A JUMPI PUSH2 0x8299 PUSH2 0x83D7 JUMP JUMPDEST JUMPDEST DUP1 PUSH1 0x40 MSTORE POP POP POP JUMP JUMPDEST PUSH1 0x0 PUSH2 0x82AE DUP3 PUSH2 0x81BE JUMP JUMPDEST SWAP2 POP PUSH32 0xFFFFFFFFFFFFFFFFFFFFFFFFFFFFFFFFFFFFFFFFFFFFFFFFFFFFFFFFFFFFFFFF DUP3 EQ ISZERO PUSH2 0x82E1 JUMPI PUSH2 0x82E0 PUSH2 0x82EC JUMP JUMPDEST JUMPDEST PUSH1 0x1 DUP3 ADD SWAP1 POP SWAP2 SWAP1 POP JUMP JUMPDEST PUSH32 0x4E487B7100000000000000000000000000000000000000000000000000000000 PUSH1 0x0 MSTORE PUSH1 0x11 PUSH1 0x4 MSTORE PUSH1 0x24 PUSH1 0x0 REVERT JUMPDEST PUSH32 0x4E487B7100000000000000000000000000000000000000000000000000000000 PUSH1 0x0 MSTORE PUSH1 0x12 PUSH1 0x4 MSTORE PUSH1 0x24 PUSH1 0x0 REVERT JUMPDEST PUSH32 0x4E487B7100000000000000000000000000000000000000000000000000000000 PUSH1 0x0 MSTORE PUSH1 0x21 PUSH1 0x4 MSTORE PUSH1 0x24 PUSH1 0x0 REVERT JUMPDEST PUSH32 0x4E487B7100000000000000000000000000000000000000000000000000000000 PUSH1 0x0 MSTORE PUSH1 0x22 PUSH1 0x4 MSTORE PUSH1 0x24 PUSH1 0x0 REVERT JUMPDEST PUSH32 0x4E487B7100000000000000000000000000000000000000000000000000000000 PUSH1 0x0 MSTORE PUSH1 0x32 PUSH1 0x4 MSTORE PUSH1 0x24 PUSH1 0x0 REVERT JUMPDEST PUSH32 0x4E487B7100000000000000000000000000000000000000000000000000000000 PUSH1 0x0 MSTORE PUSH1 0x41 PUSH1 0x4 MSTORE PUSH1 0x24 PUSH1 0x0 REVERT JUMPDEST PUSH1 0x0 DUP1 REVERT JUMPDEST PUSH1 0x0 DUP1 REVERT JUMPDEST PUSH1 0x0 DUP1 REVERT JUMPDEST PUSH1 0x0 DUP1 REVERT JUMPDEST PUSH1 0x0 DUP1 REVERT JUMPDEST PUSH1 0x0 DUP1 REVERT JUMPDEST PUSH1 0x0 DUP1 REVERT JUMPDEST PUSH1 0x0 PUSH1 0x1F NOT PUSH1 0x1F DUP4 ADD AND SWAP1 POP SWAP2 SWAP1 POP JUMP JUMPDEST PUSH32 0x43616C6C206661696C6564000000000000000000000000000000000000000000 PUSH1 0x0 DUP3 ADD MSTORE POP JUMP JUMPDEST PUSH32 0x57726F6E6720696E6465782076616C7565210000000000000000000000000000 PUSH1 0x0 DUP3 ADD MSTORE POP JUMP JUMPDEST PUSH32 0x4F776E61626C653A206E6577206F776E657220697320746865207A65726F2061 PUSH1 0x0 DUP3 ADD MSTORE PUSH32 0x6464726573730000000000000000000000000000000000000000000000000000 PUSH1 0x20 DUP3 ADD MSTORE POP JUMP JUMPDEST PUSH32 0x546865206C6F636B206973206C6F636B65642E00000000000000000000000000 PUSH1 0x0 DUP3 ADD MSTORE POP JUMP JUMPDEST PUSH32 0x6572726F72203A20496E636F72726563742076616C7565000000000000000000 PUSH1 0x0 DUP3 ADD MSTORE POP JUMP JUMPDEST PUSH32 0x76616C756520697320746F6F2068696768000000000000000000000000000000 PUSH1 0x0 DUP3 ADD MSTORE POP JUMP JUMPDEST PUSH32 0x546865726520697320616E20756E706169642070656E616C7479210000000000 PUSH1 0x0 DUP3 ADD MSTORE POP JUMP JUMPDEST PUSH32 0x4F776E61626C653A2063616C6C6572206973206E6F7420746865206F776E6572 PUSH1 0x0 DUP3 ADD MSTORE POP JUMP JUMPDEST PUSH32 0x5468652062616C616E6365206973206E6F742073756666696369656E742E0000 PUSH1 0x0 DUP3 ADD MSTORE POP JUMP JUMPDEST POP JUMP JUMPDEST PUSH32 0x4F7065726174696F6E457863657074696F6E3A2043616E277420726563656976 PUSH1 0x0 DUP3 ADD MSTORE PUSH32 0x65207461736B0000000000000000000000000000000000000000000000000000 PUSH1 0x20 DUP3 ADD MSTORE POP JUMP JUMPDEST PUSH32 0x4572726F722066696C6520737461746500000000000000000000000000000000 PUSH1 0x0 DUP3 ADD MSTORE POP JUMP JUMPDEST PUSH32 0x756E61626C6520746F207375626D697400000000000000000000000000000000 PUSH1 0x0 DUP3 ADD MSTORE POP JUMP JUMPDEST PUSH1 0xC DUP2 LT PUSH2 0x8686 JUMPI PUSH2 0x8685 PUSH2 0x834A JUMP JUMPDEST JUMPDEST POP JUMP JUMPDEST PUSH1 0x7 DUP2 LT PUSH2 0x869A JUMPI PUSH2 0x8699 PUSH2 0x834A JUMP JUMPDEST JUMPDEST POP JUMP JUMPDEST PUSH1 0x5 DUP2 LT PUSH2 0x86AE JUMPI PUSH2 0x86AD PUSH2 0x834A JUMP JUMPDEST JUMPDEST POP JUMP JUMPDEST PUSH2 0x86BA DUP2 PUSH2 0x8147 JUMP JUMPDEST DUP2 EQ PUSH2 0x86C5 JUMPI PUSH1 0x0 DUP1 REVERT JUMPDEST POP JUMP JUMPDEST PUSH2 0x86D1 DUP2 PUSH2 0x8159 JUMP JUMPDEST DUP2 EQ PUSH2 0x86DC JUMPI PUSH1 0x0 DUP1 REVERT JUMPDEST POP JUMP JUMPDEST PUSH1 0xC DUP2 LT PUSH2 0x86EC JUMPI PUSH1 0x0 DUP1 REVERT JUMPDEST POP JUMP JUMPDEST PUSH2 0x86F8 DUP2 PUSH2 0x81BE JUMP JUMPDEST DUP2 EQ PUSH2 0x8703 JUMPI PUSH1 0x0 DUP1 REVERT JUMPDEST POP JUMP INVALID LOG2 PUSH5 0x6970667358 0x22 SLT KECCAK256 0xB8 SWAP5 SWAP16 MLOAD SWAP10 0xD8 ORIGIN MUL MSIZE DUP13 0xC0 0xE6 LT PUSH9 0x6C15383DDFF43990FA LOG2 0xEB 0xC SDIV SWAP8 PUSH27 0xAA6C7364736F6C6343000807003300000000000000000000000000 "
		},
		"gasEstimates": {
			"creation": {
				"codeDepositCost": "6924000",
				"executionCost": "infinite",
				"totalCost": "infinite"
			},
			"external": {
				"": "242",
				"acceptForTranslator(uint256,uint256[])": "infinite",
				"acceptForVerifer(uint256,uint256[])": "infinite",
				"closeFileState(uint256,uint256)": "infinite",
				"closeTask(uint256)": "infinite",
				"endTransAccept(uint256)": "infinite",
				"endTransVf(uint256)": "infinite",
				"getAcceptTransNumber(uint256,address)": "infinite",
				"getAcceptVfNumber(uint256,address)": "infinite",
				"getBalanceOfContract()": "452",
				"getBuyer(uint256)": "2961",
				"getCount()": "2548",
				"getFileState(uint256,uint256)": "infinite",
				"getPay(address)": "2907",
				"getTaskBounty(uint256)": "infinite",
				"getTaskBounty(uint256,uint256)": "infinite",
				"getTaskInfo(uint256)": "infinite",
				"getTaskState(uint256)": "3121",
				"getTaskStateTrans(uint256)": "2962",
				"getTaskStateVf(uint256)": "2924",
				"getTasks(uint256)": "infinite",
				"getTransNumber(uint256)": "infinite",
				"getTranslatorsList(uint256)": "infinite",
				"getVfList(uint256)": "infinite",
				"getVfNumber(uint256)": "infinite",
				"isCustomizeState(uint256)": "2989",
				"isFull(uint256,bool)": "infinite",
				"overTimeTasker(uint256,address,bool)": "infinite",
				"overTimeTrans(uint256,address)": "infinite",
				"overTimeVf(uint256,address)": "infinite",
				"owner()": "2634",
				"payFine(address)": "infinite",
				"postTask((uint256,string,string,uint256,uint256,uint256,uint256[],uint256,uint256,bool,bool,uint256,((string,uint256,uint256,uint256,uint256,uint256,string),uint256,string,uint8,uint256)[]))": "infinite",
				"receiveTask(uint256,address,uint256,bool,address)": "infinite",
				"renounceOwnership()": "30465",
				"sumbitTaskTrans(uint256,uint256,string)": "infinite",
				"transderToContract()": "infinite",
				"transferOwnership(address)": "30835",
				"updateTask(uint256,(uint256,string,string,uint256,uint256,uint256,uint256[],uint256,uint256,bool,bool,uint256,((string,uint256,uint256,uint256,uint256,uint256,string),uint256,string,uint8,uint256)[]))": "infinite",
				"validate(uint256,address,uint256,bool,string)": "infinite",
				"withdraw(uint256)": "infinite",
				"withdrawAll()": "infinite"
			},
			"internal": {
				"_endTransAccept(uint256)": "infinite",
				"_endTransVf(uint256)": "infinite",
				"_overTimeTrans(uint256,address)": "infinite",
				"_overTimeVf(uint256,address)": "infinite",
				"_postTask(struct LibProject.ProParm memory)": "infinite",
				"_receiveTask(uint256,address,uint256,bool)": "infinite",
				"_sumbitTaskTrans(uint256,uint256,string memory)": "infinite",
				"_updateTask(uint256,struct LibProject.ProParm memory)": "infinite",
				"_validate(uint256,address,uint256,bool,string memory)": "infinite"
			}
		},
		"methodIdentifiers": {
			"acceptForTranslator(uint256,uint256[])": "fa4c6473",
			"acceptForVerifer(uint256,uint256[])": "3bd14e13",
			"closeFileState(uint256,uint256)": "97601efb",
			"closeTask(uint256)": "1201dfc6",
			"endTransAccept(uint256)": "8adc74a5",
			"endTransVf(uint256)": "a55af701",
			"getAcceptTransNumber(uint256,address)": "193620e7",
			"getAcceptVfNumber(uint256,address)": "790485f9",
			"getBalanceOfContract()": "22968885",
			"getBuyer(uint256)": "5bf608b8",
			"getCount()": "a87d942c",
			"getFileState(uint256,uint256)": "ad607c72",
			"getPay(address)": "d3d7bc3b",
			"getTaskBounty(uint256)": "6e973982",
			"getTaskBounty(uint256,uint256)": "64a1ed07",
			"getTaskInfo(uint256)": "d1a1b999",
			"getTaskState(uint256)": "ffcce776",
			"getTaskStateTrans(uint256)": "9722f099",
			"getTaskStateVf(uint256)": "546677aa",
			"getTasks(uint256)": "cf8f4be2",
			"getTransNumber(uint256)": "d2fed69c",
			"getTranslatorsList(uint256)": "983a12a8",
			"getVfList(uint256)": "b647eec3",
			"getVfNumber(uint256)": "f8626ebb",
			"isCustomizeState(uint256)": "7c34eb85",
			"isFull(uint256,bool)": "8a9a9ff3",
			"overTimeTasker(uint256,address,bool)": "8b3f3a6f",
			"overTimeTrans(uint256,address)": "5b0ef140",
			"overTimeVf(uint256,address)": "36d61ae0",
			"owner()": "8da5cb5b",
			"payFine(address)": "3edfa229",
			"postTask((uint256,string,string,uint256,uint256,uint256,uint256[],uint256,uint256,bool,bool,uint256,((string,uint256,uint256,uint256,uint256,uint256,string),uint256,string,uint8,uint256)[]))": "ac35cd61",
			"receiveTask(uint256,address,uint256,bool,address)": "627a62f3",
			"renounceOwnership()": "715018a6",
			"sumbitTaskTrans(uint256,uint256,string)": "bb0c38c0",
			"transderToContract()": "460968dd",
			"transferOwnership(address)": "f2fde38b",
			"updateTask(uint256,(uint256,string,string,uint256,uint256,uint256,uint256[],uint256,uint256,bool,bool,uint256,((string,uint256,uint256,uint256,uint256,uint256,string),uint256,string,uint8,uint256)[]))": "09a02f58",
			"validate(uint256,address,uint256,bool,string)": "243634bf",
			"withdraw(uint256)": "2e1a7d4d",
			"withdrawAll()": "853828b6"
		}
	},
	"abi": [
		{
			"inputs": [
				{
					"internalType": "string",
					"name": "",
					"type": "string"
				},
				{
					"internalType": "uint256",
					"name": "",
					"type": "uint256"
				}
			],
			"name": "ErrorValue",
			"type": "error"
		},
		{
			"inputs": [
				{
					"internalType": "string",
					"name": "",
					"type": "string"
				},
				{
					"internalType": "enum LibProject.FileState",
					"name": "",
					"type": "uint8"
				}
			],
			"name": "FileException",
			"type": "error"
		},
		{
			"inputs": [
				{
					"internalType": "string",
					"name": "",
					"type": "string"
				}
			],
			"name": "OperationException",
			"type": "error"
		},
		{
			"inputs": [
				{
					"internalType": "string",
					"name": "",
					"type": "string"
				}
			],
			"name": "ParameterException",
			"type": "error"
		},
		{
			"inputs": [
				{
					"internalType": "string",
					"name": "",
					"type": "string"
				}
			],
			"name": "Permissions",
			"type": "error"
		},
		{
			"anonymous": false,
			"inputs": [
				{
					"indexed": true,
					"internalType": "address",
					"name": "previousOwner",
					"type": "address"
				},
				{
					"indexed": true,
					"internalType": "address",
					"name": "newOwner",
					"type": "address"
				}
			],
			"name": "OwnershipTransferred",
			"type": "event"
		},
		{
			"anonymous": false,
			"inputs": [
				{
					"indexed": false,
					"internalType": "uint256",
					"name": "",
					"type": "uint256"
				},
				{
					"indexed": false,
					"internalType": "uint256[]",
					"name": "",
					"type": "uint256[]"
				},
				{
					"indexed": false,
					"internalType": "address",
					"name": "",
					"type": "address"
				},
				{
					"indexed": false,
					"internalType": "bool",
					"name": "",
					"type": "bool"
				}
			],
			"name": "acceptTaskEv",
			"type": "event"
		},
		{
			"anonymous": false,
			"inputs": [
				{
					"indexed": false,
					"internalType": "uint256",
					"name": "",
					"type": "uint256"
				},
				{
					"indexed": false,
					"internalType": "uint256",
					"name": "",
					"type": "uint256"
				},
				{
					"indexed": false,
					"internalType": "address",
					"name": "",
					"type": "address"
				},
				{
					"indexed": false,
					"internalType": "bool",
					"name": "",
					"type": "bool"
				}
			],
			"name": "acceptTaskEv",
			"type": "event"
		},
		{
			"anonymous": false,
			"inputs": [
				{
					"indexed": false,
					"internalType": "uint256",
					"name": "",
					"type": "uint256"
				},
				{
					"indexed": false,
					"internalType": "uint256",
					"name": "",
					"type": "uint256"
				},
				{
					"indexed": false,
					"internalType": "enum LibProject.FileState",
					"name": "",
					"type": "uint8"
				},
				{
					"indexed": false,
					"internalType": "address",
					"name": "",
					"type": "address"
				}
			],
			"name": "changeFileStateEv",
			"type": "event"
		},
		{
			"anonymous": false,
			"inputs": [
				{
					"indexed": false,
					"internalType": "uint256",
					"name": "",
					"type": "uint256"
				},
				{
					"indexed": false,
					"internalType": "enum LibProject.ProjectState",
					"name": "",
					"type": "uint8"
				},
				{
					"indexed": false,
					"internalType": "address",
					"name": "",
					"type": "address"
				}
			],
			"name": "changeProjectStateEv",
			"type": "event"
		},
		{
			"anonymous": false,
			"inputs": [
				{
					"indexed": false,
					"internalType": "uint256",
					"name": "",
					"type": "uint256"
				},
				{
					"indexed": false,
					"internalType": "address",
					"name": "",
					"type": "address"
				},
				{
					"indexed": false,
					"internalType": "uint256",
					"name": "",
					"type": "uint256"
				},
				{
					"indexed": false,
					"internalType": "enum LibProject.TaskerState",
					"name": "",
					"type": "uint8"
				},
				{
					"indexed": false,
					"internalType": "bool",
					"name": "",
					"type": "bool"
				},
				{
					"indexed": false,
					"internalType": "address",
					"name": "",
					"type": "address"
				}
			],
			"name": "changeTaskerStateEv",
			"type": "event"
		},
		{
			"anonymous": false,
			"inputs": [
				{
					"indexed": false,
					"internalType": "uint256",
					"name": "",
					"type": "uint256"
				},
				{
					"indexed": false,
					"internalType": "bool",
					"name": "",
					"type": "bool"
				},
				{
					"indexed": false,
					"internalType": "address",
					"name": "",
					"type": "address"
				}
			],
			"name": "changeTransActive",
			"type": "event"
		},
		{
			"anonymous": false,
			"inputs": [
				{
					"indexed": false,
					"internalType": "uint256",
					"name": "",
					"type": "uint256"
				},
				{
					"indexed": false,
					"internalType": "bool",
					"name": "",
					"type": "bool"
				},
				{
					"indexed": false,
					"internalType": "address",
					"name": "",
					"type": "address"
				}
			],
			"name": "changeVerActive",
			"type": "event"
		},
		{
			"anonymous": false,
			"inputs": [
				{
					"indexed": false,
					"internalType": "address",
					"name": "",
					"type": "address"
				},
				{
					"indexed": false,
					"internalType": "address",
					"name": "",
					"type": "address"
				},
				{
					"indexed": false,
					"internalType": "uint256",
					"name": "",
					"type": "uint256"
				}
			],
			"name": "payEv",
			"type": "event"
		},
		{
			"anonymous": false,
			"inputs": [
				{
					"indexed": false,
					"internalType": "address",
					"name": "",
					"type": "address"
				},
				{
					"indexed": false,
					"internalType": "uint256",
					"name": "",
					"type": "uint256"
				},
				{
					"components": [
						{
							"internalType": "uint256",
							"name": "releaseTime",
							"type": "uint256"
						},
						{
							"internalType": "string",
							"name": "introduce",
							"type": "string"
						},
						{
							"internalType": "string",
							"name": "need",
							"type": "string"
						},
						{
							"internalType": "uint256",
							"name": "deadline",
							"type": "uint256"
						},
						{
							"internalType": "uint256",
							"name": "sourceLanguage",
							"type": "uint256"
						},
						{
							"internalType": "uint256",
							"name": "goalLanguage",
							"type": "uint256"
						},
						{
							"internalType": "uint256[]",
							"name": "preferList",
							"type": "uint256[]"
						},
						{
							"internalType": "uint256",
							"name": "translationType",
							"type": "uint256"
						},
						{
							"internalType": "uint256",
							"name": "workLoad",
							"type": "uint256"
						},
						{
							"internalType": "bool",
							"name": "isNonDisclosure",
							"type": "bool"
						},
						{
							"internalType": "bool",
							"name": "isCustomize",
							"type": "bool"
						},
						{
							"internalType": "uint256",
							"name": "bounty",
							"type": "uint256"
						},
						{
							"components": [
								{
									"components": [
										{
											"internalType": "string",
											"name": "name",
											"type": "string"
										},
										{
											"internalType": "uint256",
											"name": "size",
											"type": "uint256"
										},
										{
											"internalType": "uint256",
											"name": "videoLength",
											"type": "uint256"
										},
										{
											"internalType": "uint256",
											"name": "Page",
											"type": "uint256"
										},
										{
											"internalType": "uint256",
											"name": "words",
											"type": "uint256"
										},
										{
											"internalType": "uint256",
											"name": "fileType",
											"type": "uint256"
										},
										{
											"internalType": "string",
											"name": "path",
											"type": "string"
										}
									],
									"internalType": "struct LibProject.FileInfo",
									"name": "file",
									"type": "tuple"
								},
								{
									"internalType": "uint256",
									"name": "bounty",
									"type": "uint256"
								},
								{
									"internalType": "string",
									"name": "info",
									"type": "string"
								},
								{
									"internalType": "enum LibProject.FileState",
									"name": "state",
									"type": "uint8"
								},
								{
									"internalType": "uint256",
									"name": "lastUpload",
									"type": "uint256"
								}
							],
							"internalType": "struct LibProject.TaskInfo[]",
							"name": "tasks",
							"type": "tuple[]"
						}
					],
					"indexed": false,
					"internalType": "struct LibProject.ProParm",
					"name": "",
					"type": "tuple"
				}
			],
			"name": "postProjectEv",
			"type": "event"
		},
		{
			"stateMutability": "payable",
			"type": "fallback"
		},
		{
			"inputs": [
				{
					"internalType": "uint256",
					"name": "_index",
					"type": "uint256"
				},
				{
					"internalType": "uint256[]",
					"name": "_fileIndex",
					"type": "uint256[]"
				}
			],
			"name": "acceptForTranslator",
			"outputs": [],
			"stateMutability": "nonpayable",
			"type": "function"
		},
		{
			"inputs": [
				{
					"internalType": "uint256",
					"name": "_index",
					"type": "uint256"
				},
				{
					"internalType": "uint256[]",
					"name": "_fileIndex",
					"type": "uint256[]"
				}
			],
			"name": "acceptForVerifer",
			"outputs": [],
			"stateMutability": "nonpayable",
			"type": "function"
		},
		{
			"inputs": [
				{
					"internalType": "uint256",
					"name": "_index",
					"type": "uint256"
				},
				{
					"internalType": "uint256",
					"name": "_fileIndex",
					"type": "uint256"
				}
			],
			"name": "closeFileState",
			"outputs": [],
			"stateMutability": "nonpayable",
			"type": "function"
		},
		{
			"inputs": [
				{
					"internalType": "uint256",
					"name": "_index",
					"type": "uint256"
				}
			],
			"name": "closeTask",
			"outputs": [],
			"stateMutability": "nonpayable",
			"type": "function"
		},
		{
			"inputs": [
				{
					"internalType": "uint256",
					"name": "_index",
					"type": "uint256"
				}
			],
			"name": "endTransAccept",
			"outputs": [],
			"stateMutability": "nonpayable",
			"type": "function"
		},
		{
			"inputs": [
				{
					"internalType": "uint256",
					"name": "_index",
					"type": "uint256"
				}
			],
			"name": "endTransVf",
			"outputs": [],
			"stateMutability": "nonpayable",
			"type": "function"
		},
		{
			"inputs": [
				{
					"internalType": "uint256",
					"name": "_index",
					"type": "uint256"
				},
				{
					"internalType": "address",
					"name": "_taskerIndex",
					"type": "address"
				}
			],
			"name": "getAcceptTransNumber",
			"outputs": [
				{
					"internalType": "uint256",
					"name": "",
					"type": "uint256"
				}
			],
			"stateMutability": "view",
			"type": "function"
		},
		{
			"inputs": [
				{
					"internalType": "uint256",
					"name": "_index",
					"type": "uint256"
				},
				{
					"internalType": "address",
					"name": "_taskerIndex",
					"type": "address"
				}
			],
			"name": "getAcceptVfNumber",
			"outputs": [
				{
					"internalType": "uint256",
					"name": "",
					"type": "uint256"
				}
			],
			"stateMutability": "view",
			"type": "function"
		},
		{
			"inputs": [],
			"name": "getBalanceOfContract",
			"outputs": [
				{
					"internalType": "uint256",
					"name": "",
					"type": "uint256"
				}
			],
			"stateMutability": "view",
			"type": "function"
		},
		{
			"inputs": [
				{
					"internalType": "uint256",
					"name": "_index",
					"type": "uint256"
				}
			],
			"name": "getBuyer",
			"outputs": [
				{
					"internalType": "address",
					"name": "",
					"type": "address"
				}
			],
			"stateMutability": "view",
			"type": "function"
		},
		{
			"inputs": [],
			"name": "getCount",
			"outputs": [
				{
					"internalType": "uint256",
					"name": "",
					"type": "uint256"
				}
			],
			"stateMutability": "view",
			"type": "function"
		},
		{
			"inputs": [
				{
					"internalType": "uint256",
					"name": "_index",
					"type": "uint256"
				},
				{
					"internalType": "uint256",
					"name": "_fileIndex",
					"type": "uint256"
				}
			],
			"name": "getFileState",
			"outputs": [
				{
					"internalType": "enum LibProject.FileState",
					"name": "",
					"type": "uint8"
				}
			],
			"stateMutability": "view",
			"type": "function"
		},
		{
			"inputs": [
				{
					"internalType": "address",
					"name": "_tasker",
					"type": "address"
				}
			],
			"name": "getPay",
			"outputs": [
				{
					"internalType": "uint256",
					"name": "",
					"type": "uint256"
				}
			],
			"stateMutability": "view",
			"type": "function"
		},
		{
			"inputs": [
				{
					"internalType": "uint256",
					"name": "_index",
					"type": "uint256"
				},
				{
					"internalType": "uint256",
					"name": "_fileIndex",
					"type": "uint256"
				}
			],
			"name": "getTaskBounty",
			"outputs": [
				{
					"internalType": "uint256",
					"name": "",
					"type": "uint256"
				}
			],
			"stateMutability": "view",
			"type": "function"
		},
		{
			"inputs": [
				{
					"internalType": "uint256",
					"name": "_index",
					"type": "uint256"
				}
			],
			"name": "getTaskBounty",
			"outputs": [
				{
					"internalType": "uint256",
					"name": "",
					"type": "uint256"
				}
			],
			"stateMutability": "view",
			"type": "function"
		},
		{
			"inputs": [
				{
					"internalType": "uint256",
					"name": "_index",
					"type": "uint256"
				}
			],
			"name": "getTaskInfo",
			"outputs": [
				{
					"components": [
						{
							"internalType": "address",
							"name": "buyer",
							"type": "address"
						},
						{
							"internalType": "uint256",
							"name": "releaseTime",
							"type": "uint256"
						},
						{
							"internalType": "string",
							"name": "introduce",
							"type": "string"
						},
						{
							"internalType": "string",
							"name": "need",
							"type": "string"
						},
						{
							"internalType": "uint256",
							"name": "deadline",
							"type": "uint256"
						},
						{
							"internalType": "uint256",
							"name": "sourceLanguage",
							"type": "uint256"
						},
						{
							"internalType": "uint256",
							"name": "goalLanguage",
							"type": "uint256"
						},
						{
							"internalType": "uint256[]",
							"name": "preferList",
							"type": "uint256[]"
						},
						{
							"internalType": "uint256",
							"name": "translationType",
							"type": "uint256"
						},
						{
							"internalType": "uint256",
							"name": "workLoad",
							"type": "uint256"
						},
						{
							"internalType": "bool",
							"name": "isNonDisclosure",
							"type": "bool"
						},
						{
							"internalType": "bool",
							"name": "isCustomize",
							"type": "bool"
						},
						{
							"internalType": "uint256",
							"name": "bounty",
							"type": "uint256"
						},
						{
							"components": [
								{
									"internalType": "uint256",
									"name": "taskIndex",
									"type": "uint256"
								},
								{
									"internalType": "enum LibProject.TaskerState",
									"name": "state",
									"type": "uint8"
								},
								{
									"internalType": "string",
									"name": "file",
									"type": "string"
								}
							],
							"internalType": "struct LibProject.ReturnFileInfo[]",
							"name": "fileInfo",
							"type": "tuple[]"
						},
						{
							"components": [
								{
									"components": [
										{
											"internalType": "string",
											"name": "name",
											"type": "string"
										},
										{
											"internalType": "uint256",
											"name": "size",
											"type": "uint256"
										},
										{
											"internalType": "uint256",
											"name": "videoLength",
											"type": "uint256"
										},
										{
											"internalType": "uint256",
											"name": "Page",
											"type": "uint256"
										},
										{
											"internalType": "uint256",
											"name": "words",
											"type": "uint256"
										},
										{
											"internalType": "uint256",
											"name": "fileType",
											"type": "uint256"
										},
										{
											"internalType": "string",
											"name": "path",
											"type": "string"
										}
									],
									"internalType": "struct LibProject.FileInfo",
									"name": "file",
									"type": "tuple"
								},
								{
									"internalType": "uint256",
									"name": "bounty",
									"type": "uint256"
								},
								{
									"internalType": "string",
									"name": "info",
									"type": "string"
								},
								{
									"internalType": "enum LibProject.FileState",
									"name": "state",
									"type": "uint8"
								},
								{
									"internalType": "uint256",
									"name": "lastUpload",
									"type": "uint256"
								}
							],
							"internalType": "struct LibProject.TaskInfo[]",
							"name": "tasks",
							"type": "tuple[]"
						},
						{
							"components": [
								{
									"internalType": "address",
									"name": "taskerAddress",
									"type": "address"
								},
								{
									"components": [
										{
											"internalType": "uint256",
											"name": "taskIndex",
											"type": "uint256"
										},
										{
											"internalType": "enum LibProject.TaskerState",
											"name": "state",
											"type": "uint8"
										},
										{
											"internalType": "string",
											"name": "file",
											"type": "string"
										}
									],
									"internalType": "struct LibProject.ReturnFileInfo[]",
									"name": "taskerinfo",
									"type": "tuple[]"
								}
							],
							"internalType": "struct LibProject.ReturnTasker[]",
							"name": "translators",
							"type": "tuple[]"
						},
						{
							"components": [
								{
									"internalType": "address",
									"name": "taskerAddress",
									"type": "address"
								},
								{
									"components": [
										{
											"internalType": "uint256",
											"name": "taskIndex",
											"type": "uint256"
										},
										{
											"internalType": "enum LibProject.TaskerState",
											"name": "state",
											"type": "uint8"
										},
										{
											"internalType": "string",
											"name": "file",
											"type": "string"
										}
									],
									"internalType": "struct LibProject.ReturnFileInfo[]",
									"name": "taskerinfo",
									"type": "tuple[]"
								}
							],
							"internalType": "struct LibProject.ReturnTasker[]",
							"name": "verifiers",
							"type": "tuple[]"
						},
						{
							"internalType": "uint256",
							"name": "maxT",
							"type": "uint256"
						},
						{
							"internalType": "uint256",
							"name": "maxV",
							"type": "uint256"
						},
						{
							"internalType": "uint256",
							"name": "numberT",
							"type": "uint256"
						},
						{
							"internalType": "uint256",
							"name": "numberV",
							"type": "uint256"
						},
						{
							"internalType": "bool",
							"name": "isTransActive",
							"type": "bool"
						},
						{
							"internalType": "bool",
							"name": "isVerActive",
							"type": "bool"
						},
						{
							"internalType": "enum LibProject.ProjectState",
							"name": "state",
							"type": "uint8"
						}
					],
					"internalType": "struct LibProject.ReturnTask",
					"name": "",
					"type": "tuple"
				}
			],
			"stateMutability": "view",
			"type": "function"
		},
		{
			"inputs": [
				{
					"internalType": "uint256",
					"name": "_index",
					"type": "uint256"
				}
			],
			"name": "getTaskState",
			"outputs": [
				{
					"internalType": "enum LibProject.ProjectState",
					"name": "",
					"type": "uint8"
				}
			],
			"stateMutability": "view",
			"type": "function"
		},
		{
			"inputs": [
				{
					"internalType": "uint256",
					"name": "_index",
					"type": "uint256"
				}
			],
			"name": "getTaskStateTrans",
			"outputs": [
				{
					"internalType": "bool",
					"name": "",
					"type": "bool"
				}
			],
			"stateMutability": "view",
			"type": "function"
		},
		{
			"inputs": [
				{
					"internalType": "uint256",
					"name": "_index",
					"type": "uint256"
				}
			],
			"name": "getTaskStateVf",
			"outputs": [
				{
					"internalType": "bool",
					"name": "",
					"type": "bool"
				}
			],
			"stateMutability": "view",
			"type": "function"
		},
		{
			"inputs": [
				{
					"internalType": "uint256",
					"name": "_index",
					"type": "uint256"
				}
			],
			"name": "getTasks",
			"outputs": [
				{
					"components": [
						{
							"components": [
								{
									"internalType": "string",
									"name": "name",
									"type": "string"
								},
								{
									"internalType": "uint256",
									"name": "size",
									"type": "uint256"
								},
								{
									"internalType": "uint256",
									"name": "videoLength",
									"type": "uint256"
								},
								{
									"internalType": "uint256",
									"name": "Page",
									"type": "uint256"
								},
								{
									"internalType": "uint256",
									"name": "words",
									"type": "uint256"
								},
								{
									"internalType": "uint256",
									"name": "fileType",
									"type": "uint256"
								},
								{
									"internalType": "string",
									"name": "path",
									"type": "string"
								}
							],
							"internalType": "struct LibProject.FileInfo",
							"name": "file",
							"type": "tuple"
						},
						{
							"internalType": "uint256",
							"name": "bounty",
							"type": "uint256"
						},
						{
							"internalType": "string",
							"name": "info",
							"type": "string"
						},
						{
							"internalType": "enum LibProject.FileState",
							"name": "state",
							"type": "uint8"
						},
						{
							"internalType": "uint256",
							"name": "lastUpload",
							"type": "uint256"
						}
					],
					"internalType": "struct LibProject.TaskInfo[]",
					"name": "",
					"type": "tuple[]"
				}
			],
			"stateMutability": "view",
			"type": "function"
		},
		{
			"inputs": [
				{
					"internalType": "uint256",
					"name": "_index",
					"type": "uint256"
				}
			],
			"name": "getTransNumber",
			"outputs": [
				{
					"internalType": "uint256",
					"name": "",
					"type": "uint256"
				}
			],
			"stateMutability": "view",
			"type": "function"
		},
		{
			"inputs": [
				{
					"internalType": "uint256",
					"name": "_index",
					"type": "uint256"
				}
			],
			"name": "getTranslatorsList",
			"outputs": [
				{
					"internalType": "address[]",
					"name": "",
					"type": "address[]"
				}
			],
			"stateMutability": "view",
			"type": "function"
		},
		{
			"inputs": [
				{
					"internalType": "uint256",
					"name": "_index",
					"type": "uint256"
				}
			],
			"name": "getVfList",
			"outputs": [
				{
					"internalType": "address[]",
					"name": "",
					"type": "address[]"
				}
			],
			"stateMutability": "view",
			"type": "function"
		},
		{
			"inputs": [
				{
					"internalType": "uint256",
					"name": "_index",
					"type": "uint256"
				}
			],
			"name": "getVfNumber",
			"outputs": [
				{
					"internalType": "uint256",
					"name": "",
					"type": "uint256"
				}
			],
			"stateMutability": "view",
			"type": "function"
		},
		{
			"inputs": [
				{
					"internalType": "uint256",
					"name": "_index",
					"type": "uint256"
				}
			],
			"name": "isCustomizeState",
			"outputs": [
				{
					"internalType": "bool",
					"name": "",
					"type": "bool"
				}
			],
			"stateMutability": "view",
			"type": "function"
		},
		{
			"inputs": [
				{
					"internalType": "uint256",
					"name": "_index",
					"type": "uint256"
				},
				{
					"internalType": "bool",
					"name": "_isTrans",
					"type": "bool"
				}
			],
			"name": "isFull",
			"outputs": [
				{
					"internalType": "bool",
					"name": "",
					"type": "bool"
				}
			],
			"stateMutability": "view",
			"type": "function"
		},
		{
			"inputs": [
				{
					"internalType": "uint256",
					"name": "_index",
					"type": "uint256"
				},
				{
					"internalType": "address",
					"name": "_taskerIndex",
					"type": "address"
				},
				{
					"internalType": "bool",
					"name": "_isTrans",
					"type": "bool"
				}
			],
			"name": "overTimeTasker",
			"outputs": [
				{
					"internalType": "uint256[]",
					"name": "",
					"type": "uint256[]"
				},
				{
					"internalType": "uint256",
					"name": "",
					"type": "uint256"
				}
			],
			"stateMutability": "view",
			"type": "function"
		},
		{
			"inputs": [
				{
					"internalType": "uint256",
					"name": "_index",
					"type": "uint256"
				},
				{
					"internalType": "address",
					"name": "_tasker",
					"type": "address"
				}
			],
			"name": "overTimeTrans",
			"outputs": [
				{
					"internalType": "uint256",
					"name": "",
					"type": "uint256"
				}
			],
			"stateMutability": "nonpayable",
			"type": "function"
		},
		{
			"inputs": [
				{
					"internalType": "uint256",
					"name": "_index",
					"type": "uint256"
				},
				{
					"internalType": "address",
					"name": "_tasker",
					"type": "address"
				}
			],
			"name": "overTimeVf",
			"outputs": [
				{
					"internalType": "uint256",
					"name": "",
					"type": "uint256"
				}
			],
			"stateMutability": "nonpayable",
			"type": "function"
		},
		{
			"inputs": [],
			"name": "owner",
			"outputs": [
				{
					"internalType": "address",
					"name": "",
					"type": "address"
				}
			],
			"stateMutability": "view",
			"type": "function"
		},
		{
			"inputs": [
				{
					"internalType": "address",
					"name": "_to",
					"type": "address"
				}
			],
			"name": "payFine",
			"outputs": [],
			"stateMutability": "payable",
			"type": "function"
		},
		{
			"inputs": [
				{
					"components": [
						{
							"internalType": "uint256",
							"name": "releaseTime",
							"type": "uint256"
						},
						{
							"internalType": "string",
							"name": "introduce",
							"type": "string"
						},
						{
							"internalType": "string",
							"name": "need",
							"type": "string"
						},
						{
							"internalType": "uint256",
							"name": "deadline",
							"type": "uint256"
						},
						{
							"internalType": "uint256",
							"name": "sourceLanguage",
							"type": "uint256"
						},
						{
							"internalType": "uint256",
							"name": "goalLanguage",
							"type": "uint256"
						},
						{
							"internalType": "uint256[]",
							"name": "preferList",
							"type": "uint256[]"
						},
						{
							"internalType": "uint256",
							"name": "translationType",
							"type": "uint256"
						},
						{
							"internalType": "uint256",
							"name": "workLoad",
							"type": "uint256"
						},
						{
							"internalType": "bool",
							"name": "isNonDisclosure",
							"type": "bool"
						},
						{
							"internalType": "bool",
							"name": "isCustomize",
							"type": "bool"
						},
						{
							"internalType": "uint256",
							"name": "bounty",
							"type": "uint256"
						},
						{
							"components": [
								{
									"components": [
										{
											"internalType": "string",
											"name": "name",
											"type": "string"
										},
										{
											"internalType": "uint256",
											"name": "size",
											"type": "uint256"
										},
										{
											"internalType": "uint256",
											"name": "videoLength",
											"type": "uint256"
										},
										{
											"internalType": "uint256",
											"name": "Page",
											"type": "uint256"
										},
										{
											"internalType": "uint256",
											"name": "words",
											"type": "uint256"
										},
										{
											"internalType": "uint256",
											"name": "fileType",
											"type": "uint256"
										},
										{
											"internalType": "string",
											"name": "path",
											"type": "string"
										}
									],
									"internalType": "struct LibProject.FileInfo",
									"name": "file",
									"type": "tuple"
								},
								{
									"internalType": "uint256",
									"name": "bounty",
									"type": "uint256"
								},
								{
									"internalType": "string",
									"name": "info",
									"type": "string"
								},
								{
									"internalType": "enum LibProject.FileState",
									"name": "state",
									"type": "uint8"
								},
								{
									"internalType": "uint256",
									"name": "lastUpload",
									"type": "uint256"
								}
							],
							"internalType": "struct LibProject.TaskInfo[]",
							"name": "tasks",
							"type": "tuple[]"
						}
					],
					"internalType": "struct LibProject.ProParm",
					"name": "_t",
					"type": "tuple"
				}
			],
			"name": "postTask",
			"outputs": [
				{
					"internalType": "uint256",
					"name": "_index",
					"type": "uint256"
				}
			],
			"stateMutability": "payable",
			"type": "function"
		},
		{
			"inputs": [
				{
					"internalType": "uint256",
					"name": "_index",
					"type": "uint256"
				},
				{
					"internalType": "address",
					"name": "_taskerIndex",
					"type": "address"
				},
				{
					"internalType": "uint256",
					"name": "_fileIndex",
					"type": "uint256"
				},
				{
					"internalType": "bool",
					"name": "_isPass",
					"type": "bool"
				},
				{
					"internalType": "address",
					"name": "_transAddress",
					"type": "address"
				}
			],
			"name": "receiveTask",
			"outputs": [],
			"stateMutability": "payable",
			"type": "function"
		},
		{
			"inputs": [],
			"name": "renounceOwnership",
			"outputs": [],
			"stateMutability": "nonpayable",
			"type": "function"
		},
		{
			"inputs": [
				{
					"internalType": "uint256",
					"name": "_index",
					"type": "uint256"
				},
				{
					"internalType": "uint256",
					"name": "_fileIndex",
					"type": "uint256"
				},
				{
					"internalType": "string",
					"name": "_file",
					"type": "string"
				}
			],
			"name": "sumbitTaskTrans",
			"outputs": [],
			"stateMutability": "nonpayable",
			"type": "function"
		},
		{
			"inputs": [],
			"name": "transderToContract",
			"outputs": [],
			"stateMutability": "payable",
			"type": "function"
		},
		{
			"inputs": [
				{
					"internalType": "address",
					"name": "newOwner",
					"type": "address"
				}
			],
			"name": "transferOwnership",
			"outputs": [],
			"stateMutability": "nonpayable",
			"type": "function"
		},
		{
			"inputs": [
				{
					"internalType": "uint256",
					"name": "_index",
					"type": "uint256"
				},
				{
					"components": [
						{
							"internalType": "uint256",
							"name": "releaseTime",
							"type": "uint256"
						},
						{
							"internalType": "string",
							"name": "introduce",
							"type": "string"
						},
						{
							"internalType": "string",
							"name": "need",
							"type": "string"
						},
						{
							"internalType": "uint256",
							"name": "deadline",
							"type": "uint256"
						},
						{
							"internalType": "uint256",
							"name": "sourceLanguage",
							"type": "uint256"
						},
						{
							"internalType": "uint256",
							"name": "goalLanguage",
							"type": "uint256"
						},
						{
							"internalType": "uint256[]",
							"name": "preferList",
							"type": "uint256[]"
						},
						{
							"internalType": "uint256",
							"name": "translationType",
							"type": "uint256"
						},
						{
							"internalType": "uint256",
							"name": "workLoad",
							"type": "uint256"
						},
						{
							"internalType": "bool",
							"name": "isNonDisclosure",
							"type": "bool"
						},
						{
							"internalType": "bool",
							"name": "isCustomize",
							"type": "bool"
						},
						{
							"internalType": "uint256",
							"name": "bounty",
							"type": "uint256"
						},
						{
							"components": [
								{
									"components": [
										{
											"internalType": "string",
											"name": "name",
											"type": "string"
										},
										{
											"internalType": "uint256",
											"name": "size",
											"type": "uint256"
										},
										{
											"internalType": "uint256",
											"name": "videoLength",
											"type": "uint256"
										},
										{
											"internalType": "uint256",
											"name": "Page",
											"type": "uint256"
										},
										{
											"internalType": "uint256",
											"name": "words",
											"type": "uint256"
										},
										{
											"internalType": "uint256",
											"name": "fileType",
											"type": "uint256"
										},
										{
											"internalType": "string",
											"name": "path",
											"type": "string"
										}
									],
									"internalType": "struct LibProject.FileInfo",
									"name": "file",
									"type": "tuple"
								},
								{
									"internalType": "uint256",
									"name": "bounty",
									"type": "uint256"
								},
								{
									"internalType": "string",
									"name": "info",
									"type": "string"
								},
								{
									"internalType": "enum LibProject.FileState",
									"name": "state",
									"type": "uint8"
								},
								{
									"internalType": "uint256",
									"name": "lastUpload",
									"type": "uint256"
								}
							],
							"internalType": "struct LibProject.TaskInfo[]",
							"name": "tasks",
							"type": "tuple[]"
						}
					],
					"internalType": "struct LibProject.ProParm",
					"name": "_t",
					"type": "tuple"
				}
			],
			"name": "updateTask",
			"outputs": [],
			"stateMutability": "payable",
			"type": "function"
		},
		{
			"inputs": [
				{
					"internalType": "uint256",
					"name": "_index",
					"type": "uint256"
				},
				{
					"internalType": "address",
					"name": "_traner",
					"type": "address"
				},
				{
					"internalType": "uint256",
					"name": "_fileIndex",
					"type": "uint256"
				},
				{
					"internalType": "bool",
					"name": "_isPass",
					"type": "bool"
				},
				{
					"internalType": "string",
					"name": "_file",
					"type": "string"
				}
			],
			"name": "validate",
			"outputs": [],
			"stateMutability": "nonpayable",
			"type": "function"
		},
		{
			"inputs": [
				{
					"internalType": "uint256",
					"name": "_money",
					"type": "uint256"
				}
			],
			"name": "withdraw",
			"outputs": [],
			"stateMutability": "nonpayable",
			"type": "function"
		},
		{
			"inputs": [],
			"name": "withdrawAll",
			"outputs": [],
			"stateMutability": "nonpayable",
			"type": "function"
		},
		{
			"stateMutability": "payable",
			"type": "receive"
		}
	]
}