{
	"data": {
		"bytecode": {
			"linkReferences": {},
			"object": "60806040523480156200001157600080fd5b5060405162002e9538038062002e95833981810160405281019062000037919062000095565b806000806101000a81548173ffffffffffffffffffffffffffffffffffffffff021916908373ffffffffffffffffffffffffffffffffffffffff160217905550506200011a565b6000815190506200008f8162000100565b92915050565b600060208284031215620000ae57620000ad620000fb565b5b6000620000be848285016200007e565b91505092915050565b6000620000d482620000db565b9050919050565b600073ffffffffffffffffffffffffffffffffffffffff82169050919050565b600080fd5b6200010b81620000c7565b81146200011757600080fd5b50565b612d6b806200012a6000396000f3fe608060405234801561001057600080fd5b506004361061007d5760003560e01c80638adc74a51161005b5780638adc74a5146100ea5780639d55097e14610106578063a43edcbd14610122578063a55af7011461013e5761007d565b8063264b450214610082578063361e4705146100b25780633990877a146100ce575b600080fd5b61009c60048036038101906100979190611ff7565b61015a565b6040516100a991906126d3565b60405180910390f35b6100cc60048036038101906100c791906120e3565b61016c565b005b6100e860048036038101906100e391906121ae565b610202565b005b61010460048036038101906100ff9190612089565b610207565b005b610120600480360381019061011b91906120e3565b610214565b005b61013c60048036038101906101379190612152565b6102aa565b005b61015860048036038101906101539190612089565b6102b8565b005b6000610165826102c5565b9050919050565b60008054906101000a900473ffffffffffffffffffffffffffffffffffffffff1673ffffffffffffffffffffffffffffffffffffffff16639ec44abc848484336040518563ffffffff1660e01b81526004016101cb94939291906126ee565b600060405180830381600087803b1580156101e557600080fd5b505af11580156101f9573d6000803e3d6000fd5b50505050505050565b505050565b6102108161046f565b5050565b60008054906101000a900473ffffffffffffffffffffffffffffffffffffffff1673ffffffffffffffffffffffffffffffffffffffff1663a7788567848484336040518563ffffffff1660e01b815260040161027394939291906126ee565b600060405180830381600087803b15801561028d57600080fd5b505af11580156102a1573d6000803e3d6000fd5b50505050505050565b6102b4828261094a565b5050565b6102c181610acc565b5050565b6000808261014001516102ef576001836101a00181815250506001836101c00181815250506103b9565b82610180015151836101a001818152505060008054906101000a900473ffffffffffffffffffffffffffffffffffffffff1673ffffffffffffffffffffffffffffffffffffffff1663f2e60202846101a001516040518263ffffffff1660e01b815260040161035e91906126d3565b60206040518083038186803b15801561037657600080fd5b505afa15801561038a573d6000803e3d6000fd5b505050506040513d601f19601f820116820180604052508101906103ae91906120b6565b836101c00181815250505b60008054906101000a900473ffffffffffffffffffffffffffffffffffffffff1673ffffffffffffffffffffffffffffffffffffffff1663f501aa8e846040518263ffffffff1660e01b815260040161041291906126b1565b602060405180830381600087803b15801561042c57600080fd5b505af1158015610440573d6000803e3d6000fd5b505050506040513d601f19601f8201168201806040525081019061046491906120b6565b905080915050919050565b60008060008054906101000a900473ffffffffffffffffffffffffffffffffffffffff1673ffffffffffffffffffffffffffffffffffffffff1663f0f3f2c8846040518263ffffffff1660e01b81526004016104cb91906126d3565b60006040518083038186803b1580156104e357600080fd5b505afa1580156104f7573d6000803e3d6000fd5b505050506040513d6000823e3d601f19601f820116820180604052508101906105209190612040565b90506000816101c0015190506000826101a00151905060008054906101000a900473ffffffffffffffffffffffffffffffffffffffff1673ffffffffffffffffffffffffffffffffffffffff16638a9a9ff38660016040518363ffffffff1660e01b815260040161059292919061273a565b60206040518083038186803b1580156105aa57600080fd5b505afa1580156105be573d6000803e3d6000fd5b505050506040513d601f19601f820116820180604052508101906105e29190611fca565b156105f35760019350505050610945565b6000825114156107225760008054906101000a900473ffffffffffffffffffffffffffffffffffffffff1673ffffffffffffffffffffffffffffffffffffffff1663ffbafdfe8660036040518363ffffffff1660e01b8152600401610659929190612763565b600060405180830381600087803b15801561067357600080fd5b505af1158015610687573d6000803e3d6000fd5b5050505060008054906101000a900473ffffffffffffffffffffffffffffffffffffffff1673ffffffffffffffffffffffffffffffffffffffff1663ea60f28c866040518263ffffffff1660e01b81526004016106e491906126d3565b600060405180830381600087803b1580156106fe57600080fd5b505af1158015610712573d6000803e3d6000fd5b5050505060009350505050610945565b6000836101a001515190506000835190506000818361074191906129fa565b905060005b84518110156108ae576000600581111561076357610762612bd7565b5b85828151811061077657610775612c06565b5b602002602001015160600151600581111561079457610793612bd7565b5b141561089b5760005b865181101561089957828782815181106107ba576107b9612c06565b5b6020026020010151602001515111156107d257610886565b60008054906101000a900473ffffffffffffffffffffffffffffffffffffffff1673ffffffffffffffffffffffffffffffffffffffff1663fe4bfa4a8b84848b868151811061082457610823612c06565b5b6020026020010151600001516040518563ffffffff1660e01b815260040161084f94939291906127bc565b600060405180830381600087803b15801561086957600080fd5b505af115801561087d573d6000803e3d6000fd5b50505050610899565b808061089190612b30565b91505061079d565b505b80806108a690612b30565b915050610746565b5060008054906101000a900473ffffffffffffffffffffffffffffffffffffffff1673ffffffffffffffffffffffffffffffffffffffff1663ea60f28c896040518263ffffffff1660e01b815260040161090891906126d3565b600060405180830381600087803b15801561092257600080fd5b505af1158015610936573d6000803e3d6000fd5b50505050600096505050505050505b919050565b806101400151610971576001816101a00181815250506001816101c0018181525050610a3b565b80610180015151816101a001818152505060008054906101000a900473ffffffffffffffffffffffffffffffffffffffff1673ffffffffffffffffffffffffffffffffffffffff1663f2e60202826101a001516040518263ffffffff1660e01b81526004016109e091906126d3565b60206040518083038186803b1580156109f857600080fd5b505afa158015610a0c573d6000803e3d6000fd5b505050506040513d601f19601f82011682018060405250810190610a3091906120b6565b816101c00181815250505b60008054906101000a900473ffffffffffffffffffffffffffffffffffffffff1673ffffffffffffffffffffffffffffffffffffffff1663a43edcbd83836040518363ffffffff1660e01b8152600401610a9692919061278c565b600060405180830381600087803b158015610ab057600080fd5b505af1158015610ac4573d6000803e3d6000fd5b505050505050565b60008060008054906101000a900473ffffffffffffffffffffffffffffffffffffffff1673ffffffffffffffffffffffffffffffffffffffff1663f0f3f2c8846040518263ffffffff1660e01b8152600401610b2891906126d3565b60006040518083038186803b158015610b4057600080fd5b505afa158015610b54573d6000803e3d6000fd5b505050506040513d6000823e3d601f19601f82011682018060405250810190610b7d9190612040565b90506000816101e0015190506000826101a00151905060008054906101000a900473ffffffffffffffffffffffffffffffffffffffff1673ffffffffffffffffffffffffffffffffffffffff16638a9a9ff38660006040518363ffffffff1660e01b8152600401610bef92919061273a565b60206040518083038186803b158015610c0757600080fd5b505afa158015610c1b573d6000803e3d6000fd5b505050506040513d601f19601f82011682018060405250810190610c3f9190611fca565b15610c505760019350505050610fa2565b600082511415610d7f5760008054906101000a900473ffffffffffffffffffffffffffffffffffffffff1673ffffffffffffffffffffffffffffffffffffffff1663ffbafdfe8660036040518363ffffffff1660e01b8152600401610cb6929190612763565b600060405180830381600087803b158015610cd057600080fd5b505af1158015610ce4573d6000803e3d6000fd5b5050505060008054906101000a900473ffffffffffffffffffffffffffffffffffffffff1673ffffffffffffffffffffffffffffffffffffffff1663df3a726f866040518263ffffffff1660e01b8152600401610d4191906126d3565b600060405180830381600087803b158015610d5b57600080fd5b505af1158015610d6f573d6000803e3d6000fd5b5050505060009350505050610fa2565b6000836101a0015151905060008351905060008183610d9e91906129fa565b905060005b8451811015610f0b5760006005811115610dc057610dbf612bd7565b5b858281518110610dd357610dd2612c06565b5b6020026020010151606001516005811115610df157610df0612bd7565b5b1415610ef85760005b8651811015610ef65782878281518110610e1757610e16612c06565b5b602002602001015160200151511115610e2f57610ee3565b60008054906101000a900473ffffffffffffffffffffffffffffffffffffffff1673ffffffffffffffffffffffffffffffffffffffff1663fe4bfa4a8b84848b8681518110610e8157610e80612c06565b5b6020026020010151600001516040518563ffffffff1660e01b8152600401610eac94939291906127bc565b600060405180830381600087803b158015610ec657600080fd5b505af1158015610eda573d6000803e3d6000fd5b50505050610ef6565b8080610eee90612b30565b915050610dfa565b505b8080610f0390612b30565b915050610da3565b5060008054906101000a900473ffffffffffffffffffffffffffffffffffffffff1673ffffffffffffffffffffffffffffffffffffffff1663df3a726f896040518263ffffffff1660e01b8152600401610f6591906126d3565b600060405180830381600087803b158015610f7f57600080fd5b505af1158015610f93573d6000803e3d6000fd5b50505050600096505050505050505b919050565b6000610fba610fb584612826565b612801565b90508083825260208201905082856020860282011115610fdd57610fdc612c73565b5b60005b8581101561100d5781610ff3888261162f565b845260208401935060208301925050600181019050610fe0565b5050509392505050565b600061102a61102584612852565b612801565b9050808382526020820190508285602086028201111561104d5761104c612c73565b5b60005b8581101561109b57813567ffffffffffffffff81111561107357611072612c64565b5b8086016110808982611644565b85526020850194506020840193505050600181019050611050565b5050509392505050565b60006110b86110b384612852565b612801565b905080838252602082019050828560208602820111156110db576110da612c73565b5b60005b8581101561112957815167ffffffffffffffff81111561110157611100612c64565b5b80860161110e8982611672565b855260208501945060208401935050506001810190506110de565b5050509392505050565b60006111466111418461287e565b612801565b9050808382526020820190508285602086028201111561116957611168612c73565b5b60005b858110156111b757813567ffffffffffffffff81111561118f5761118e612c64565b5b80860161119c8982611a84565b8552602085019450602084019350505060018101905061116c565b5050509392505050565b60006111d46111cf8461287e565b612801565b905080838252602082019050828560208602820111156111f7576111f6612c73565b5b60005b8581101561124557815167ffffffffffffffff81111561121d5761121c612c64565b5b80860161122a8982611b48565b855260208501945060208401935050506001810190506111fa565b5050509392505050565b600061126261125d846128aa565b612801565b9050808382526020820190508285602086028201111561128557611284612c73565b5b60005b858110156112d357815167ffffffffffffffff8111156112ab576112aa612c64565b5b8086016112b88982611c0c565b85526020850194506020840193505050600181019050611288565b5050509392505050565b60006112f06112eb846128d6565b612801565b9050808382526020820190508285602086028201111561131357611312612c73565b5b60005b8581101561134357816113298882611fa0565b845260208401935060208301925050600181019050611316565b5050509392505050565b600061136061135b846128d6565b612801565b9050808382526020820190508285602086028201111561138357611382612c73565b5b60005b858110156113b357816113998882611fb5565b845260208401935060208301925050600181019050611386565b5050509392505050565b60006113d06113cb84612902565b612801565b9050828152602081018484840111156113ec576113eb612c78565b5b6113f7848285612abd565b509392505050565b600061141261140d84612902565b612801565b90508281526020810184848401111561142e5761142d612c78565b5b611439848285612acc565b509392505050565b60008151905061145081612cc0565b92915050565b600082601f83011261146b5761146a612c64565b5b815161147b848260208601610fa7565b91505092915050565b600082601f83011261149957611498612c64565b5b81356114a9848260208601611017565b91505092915050565b600082601f8301126114c7576114c6612c64565b5b81516114d78482602086016110a5565b91505092915050565b600082601f8301126114f5576114f4612c64565b5b8135611505848260208601611133565b91505092915050565b600082601f83011261152357611522612c64565b5b81516115338482602086016111c1565b91505092915050565b600082601f83011261155157611550612c64565b5b815161156184826020860161124f565b91505092915050565b600082601f83011261157f5761157e612c64565b5b813561158f8482602086016112dd565b91505092915050565b600082601f8301126115ad576115ac612c64565b5b81516115bd84826020860161134d565b91505092915050565b6000813590506115d581612cd7565b92915050565b6000815190506115ea81612cd7565b92915050565b6000813590506115ff81612cee565b92915050565b60008151905061161481612cee565b92915050565b60008151905061162981612cfe565b92915050565b60008151905061163e81612d0e565b92915050565b600082601f83011261165957611658612c64565b5b81356116698482602086016113bd565b91505092915050565b600082601f83011261168757611686612c64565b5b81516116978482602086016113ff565b91505092915050565b600060e082840312156116b6576116b5612c69565b5b6116c060e0612801565b9050600082013567ffffffffffffffff8111156116e0576116df612c6e565b5b6116ec84828501611644565b600083015250602061170084828501611fa0565b602083015250604061171484828501611fa0565b604083015250606061172884828501611fa0565b606083015250608061173c84828501611fa0565b60808301525060a061175084828501611fa0565b60a08301525060c082013567ffffffffffffffff81111561177457611773612c6e565b5b61178084828501611644565b60c08301525092915050565b600060e082840312156117a2576117a1612c69565b5b6117ac60e0612801565b9050600082015167ffffffffffffffff8111156117cc576117cb612c6e565b5b6117d884828501611672565b60008301525060206117ec84828501611fb5565b602083015250604061180084828501611fb5565b604083015250606061181484828501611fb5565b606083015250608061182884828501611fb5565b60808301525060a061183c84828501611fb5565b60a08301525060c082015167ffffffffffffffff8111156118605761185f612c6e565b5b61186c84828501611672565b60c08301525092915050565b60006101e0828403121561188f5761188e612c69565b5b61189a6101e0612801565b905060006118aa84828501611fa0565b600083015250602082013567ffffffffffffffff8111156118ce576118cd612c6e565b5b6118da84828501611644565b602083015250604082013567ffffffffffffffff8111156118fe576118fd612c6e565b5b61190a84828501611644565b604083015250606061191e84828501611fa0565b606083015250608082013567ffffffffffffffff81111561194257611941612c6e565b5b61194e84828501611644565b60808301525060a082013567ffffffffffffffff81111561197257611971612c6e565b5b61197e84828501611644565b60a08301525060c082013567ffffffffffffffff8111156119a2576119a1612c6e565b5b6119ae84828501611484565b60c08301525060e06119c284828501611fa0565b60e0830152506101006119d784828501611fa0565b610100830152506101206119ed848285016115c6565b61012083015250610140611a03848285016115c6565b61014083015250610160611a1984828501611fa0565b6101608301525061018082013567ffffffffffffffff811115611a3f57611a3e612c6e565b5b611a4b848285016114e0565b610180830152506101a0611a6184828501611fa0565b6101a0830152506101c0611a7784828501611fa0565b6101c08301525092915050565b600060a08284031215611a9a57611a99612c69565b5b611aa460a0612801565b9050600082013567ffffffffffffffff811115611ac457611ac3612c6e565b5b611ad0848285016116a0565b6000830152506020611ae484828501611fa0565b602083015250604082013567ffffffffffffffff811115611b0857611b07612c6e565b5b611b1484828501611644565b6040830152506060611b28848285016115f0565b6060830152506080611b3c84828501611fa0565b60808301525092915050565b600060a08284031215611b5e57611b5d612c69565b5b611b6860a0612801565b9050600082015167ffffffffffffffff811115611b8857611b87612c6e565b5b611b948482850161178c565b6000830152506020611ba884828501611fb5565b602083015250604082015167ffffffffffffffff811115611bcc57611bcb612c6e565b5b611bd884828501611672565b6040830152506060611bec84828501611605565b6060830152506080611c0084828501611fb5565b60808301525092915050565b600060808284031215611c2257611c21612c69565b5b611c2c6080612801565b90506000611c3c84828501611441565b600083015250602082015167ffffffffffffffff811115611c6057611c5f612c6e565b5b611c6c84828501611598565b602083015250604082015167ffffffffffffffff811115611c9057611c8f612c6e565b5b611c9c84828501611456565b604083015250606082015167ffffffffffffffff811115611cc057611cbf612c6e565b5b611ccc848285016114b2565b60608301525092915050565b60006102a08284031215611cef57611cee612c69565b5b611cfa6102a0612801565b90506000611d0a84828501611441565b6000830152506020611d1e84828501611fb5565b602083015250604082015167ffffffffffffffff811115611d4257611d41612c6e565b5b611d4e84828501611672565b604083015250606082015167ffffffffffffffff811115611d7257611d71612c6e565b5b611d7e84828501611672565b6060830152506080611d9284828501611fb5565b60808301525060a082015167ffffffffffffffff811115611db657611db5612c6e565b5b611dc284828501611672565b60a08301525060c082015167ffffffffffffffff811115611de657611de5612c6e565b5b611df284828501611672565b60c08301525060e082015167ffffffffffffffff811115611e1657611e15612c6e565b5b611e22848285016114b2565b60e083015250610100611e3784828501611fb5565b61010083015250610120611e4d84828501611fb5565b61012083015250610140611e63848285016115db565b61014083015250610160611e79848285016115db565b61016083015250610180611e8f84828501611fb5565b610180830152506101a082015167ffffffffffffffff811115611eb557611eb4612c6e565b5b611ec18482850161150e565b6101a0830152506101c082015167ffffffffffffffff811115611ee757611ee6612c6e565b5b611ef38482850161153c565b6101c0830152506101e082015167ffffffffffffffff811115611f1957611f18612c6e565b5b611f258482850161153c565b6101e083015250610200611f3b84828501611fb5565b61020083015250610220611f5184828501611fb5565b61022083015250610240611f67848285016115db565b61024083015250610260611f7d848285016115db565b61026083015250610280611f938482850161161a565b6102808301525092915050565b600081359050611faf81612d1e565b92915050565b600081519050611fc481612d1e565b92915050565b600060208284031215611fe057611fdf612c82565b5b6000611fee848285016115db565b91505092915050565b60006020828403121561200d5761200c612c82565b5b600082013567ffffffffffffffff81111561202b5761202a612c7d565b5b61203784828501611878565b91505092915050565b60006020828403121561205657612055612c82565b5b600082015167ffffffffffffffff81111561207457612073612c7d565b5b61208084828501611cd8565b91505092915050565b60006020828403121561209f5761209e612c82565b5b60006120ad84828501611fa0565b91505092915050565b6000602082840312156120cc576120cb612c82565b5b60006120da84828501611fb5565b91505092915050565b6000806000606084860312156120fc576120fb612c82565b5b600061210a86828701611fa0565b935050602084013567ffffffffffffffff81111561212b5761212a612c7d565b5b6121378682870161156a565b925050604061214886828701611fa0565b9150509250925092565b6000806040838503121561216957612168612c82565b5b600061217785828601611fa0565b925050602083013567ffffffffffffffff81111561219857612197612c7d565b5b6121a485828601611878565b9150509250929050565b6000806000606084860312156121c7576121c6612c82565b5b60006121d586828701611fa0565b93505060206121e686828701611fa0565b92505060406121f786828701611fa0565b9150509250925092565b600061220d83836123d4565b905092915050565b60006122218383612616565b905092915050565b60006122358383612693565b60208301905092915050565b61224a81612a2b565b82525050565b600061225b82612963565b61226581856129b6565b93508360208202850161227785612933565b8060005b858110156122b357848403895281516122948582612201565b945061229f8361298f565b925060208a0199505060018101905061227b565b50829750879550505050505092915050565b60006122d08261296e565b6122da81856129c7565b9350836020820285016122ec85612943565b8060005b8581101561232857848403895281516123098582612215565b94506123148361299c565b925060208a019950506001810190506122f0565b50829750879550505050505092915050565b600061234582612979565b61234f81856129d8565b935061235a83612953565b8060005b8381101561238b5781516123728882612229565b975061237d836129a9565b92505060018101905061235e565b5085935050505092915050565b6123a181612a3d565b82525050565b6123b081612a3d565b82525050565b6123bf81612a99565b82525050565b6123ce81612aab565b82525050565b60006123df82612984565b6123e981856129e9565b93506123f9818560208601612acc565b61240281612c87565b840191505092915050565b600060e083016000830151848203600086015261242a82826123d4565b915050602083015161243f6020860182612693565b5060408301516124526040860182612693565b5060608301516124656060860182612693565b5060808301516124786080860182612693565b5060a083015161248b60a0860182612693565b5060c083015184820360c08601526124a382826123d4565b9150508091505092915050565b60006101e0830160008301516124c96000860182612693565b50602083015184820360208601526124e182826123d4565b915050604083015184820360408601526124fb82826123d4565b91505060608301516125106060860182612693565b506080830151848203608086015261252882826123d4565b91505060a083015184820360a086015261254282826123d4565b91505060c083015184820360c086015261255c8282612250565b91505060e083015161257160e0860182612693565b50610100830151612586610100860182612693565b5061012083015161259b610120860182612398565b506101408301516125b0610140860182612398565b506101608301516125c5610160860182612693565b506101808301518482036101808601526125df82826122c5565b9150506101a08301516125f66101a0860182612693565b506101c083015161260b6101c0860182612693565b508091505092915050565b600060a0830160008301518482036000860152612633828261240d565b91505060208301516126486020860182612693565b506040830151848203604086015261266082826123d4565b915050606083015161267560608601826123b6565b5060808301516126886080860182612693565b508091505092915050565b61269c81612a8f565b82525050565b6126ab81612a8f565b82525050565b600060208201905081810360008301526126cb81846124b0565b905092915050565b60006020820190506126e860008301846126a2565b92915050565b600060808201905061270360008301876126a2565b8181036020830152612715818661233a565b905061272460408301856126a2565b6127316060830184612241565b95945050505050565b600060408201905061274f60008301856126a2565b61275c60208301846123a7565b9392505050565b600060408201905061277860008301856126a2565b61278560208301846123c5565b9392505050565b60006040820190506127a160008301856126a2565b81810360208301526127b381846124b0565b90509392505050565b60006080820190506127d160008301876126a2565b6127de60208301866126a2565b6127eb60408301856126a2565b6127f86060830184612241565b95945050505050565b600061280b61281c565b90506128178282612aff565b919050565b6000604051905090565b600067ffffffffffffffff82111561284157612840612c35565b5b602082029050602081019050919050565b600067ffffffffffffffff82111561286d5761286c612c35565b5b602082029050602081019050919050565b600067ffffffffffffffff82111561289957612898612c35565b5b602082029050602081019050919050565b600067ffffffffffffffff8211156128c5576128c4612c35565b5b602082029050602081019050919050565b600067ffffffffffffffff8211156128f1576128f0612c35565b5b602082029050602081019050919050565b600067ffffffffffffffff82111561291d5761291c612c35565b5b61292682612c87565b9050602081019050919050565b6000819050602082019050919050565b6000819050602082019050919050565b6000819050602082019050919050565b600081519050919050565b600081519050919050565b600081519050919050565b600081519050919050565b6000602082019050919050565b6000602082019050919050565b6000602082019050919050565b600082825260208201905092915050565b600082825260208201905092915050565b600082825260208201905092915050565b600082825260208201905092915050565b6000612a0582612a8f565b9150612a1083612a8f565b925082612a2057612a1f612ba8565b5b828204905092915050565b6000612a3682612a6f565b9050919050565b60008115159050919050565b6000819050612a5782612c98565b919050565b6000819050612a6a82612cac565b919050565b600073ffffffffffffffffffffffffffffffffffffffff82169050919050565b6000819050919050565b6000612aa482612a49565b9050919050565b6000612ab682612a5c565b9050919050565b82818337600083830152505050565b60005b83811015612aea578082015181840152602081019050612acf565b83811115612af9576000848401525b50505050565b612b0882612c87565b810181811067ffffffffffffffff82111715612b2757612b26612c35565b5b80604052505050565b6000612b3b82612a8f565b91507fffffffffffffffffffffffffffffffffffffffffffffffffffffffffffffffff821415612b6e57612b6d612b79565b5b600182019050919050565b7f4e487b7100000000000000000000000000000000000000000000000000000000600052601160045260246000fd5b7f4e487b7100000000000000000000000000000000000000000000000000000000600052601260045260246000fd5b7f4e487b7100000000000000000000000000000000000000000000000000000000600052602160045260246000fd5b7f4e487b7100000000000000000000000000000000000000000000000000000000600052603260045260246000fd5b7f4e487b7100000000000000000000000000000000000000000000000000000000600052604160045260246000fd5b600080fd5b600080fd5b600080fd5b600080fd5b600080fd5b600080fd5b600080fd5b6000601f19601f8301169050919050565b60068110612ca957612ca8612bd7565b5b50565b60068110612cbd57612cbc612bd7565b5b50565b612cc981612a2b565b8114612cd457600080fd5b50565b612ce081612a3d565b8114612ceb57600080fd5b50565b60068110612cfb57600080fd5b50565b60068110612d0b57600080fd5b50565b60088110612d1b57600080fd5b50565b612d2781612a8f565b8114612d3257600080fd5b5056fea26469706673582212205c733df13575bf694ce84cd54f24bc88db9b495ee6f382d8f9cadabf1187083c64736f6c63430008070033",
			"opcodes": "PUSH1 0x80 PUSH1 0x40 MSTORE CALLVALUE DUP1 ISZERO PUSH3 0x11 JUMPI PUSH1 0x0 DUP1 REVERT JUMPDEST POP PUSH1 0x40 MLOAD PUSH3 0x2E95 CODESIZE SUB DUP1 PUSH3 0x2E95 DUP4 CODECOPY DUP2 DUP2 ADD PUSH1 0x40 MSTORE DUP2 ADD SWAP1 PUSH3 0x37 SWAP2 SWAP1 PUSH3 0x95 JUMP JUMPDEST DUP1 PUSH1 0x0 DUP1 PUSH2 0x100 EXP DUP2 SLOAD DUP2 PUSH20 0xFFFFFFFFFFFFFFFFFFFFFFFFFFFFFFFFFFFFFFFF MUL NOT AND SWAP1 DUP4 PUSH20 0xFFFFFFFFFFFFFFFFFFFFFFFFFFFFFFFFFFFFFFFF AND MUL OR SWAP1 SSTORE POP POP PUSH3 0x11A JUMP JUMPDEST PUSH1 0x0 DUP2 MLOAD SWAP1 POP PUSH3 0x8F DUP2 PUSH3 0x100 JUMP JUMPDEST SWAP3 SWAP2 POP POP JUMP JUMPDEST PUSH1 0x0 PUSH1 0x20 DUP3 DUP5 SUB SLT ISZERO PUSH3 0xAE JUMPI PUSH3 0xAD PUSH3 0xFB JUMP JUMPDEST JUMPDEST PUSH1 0x0 PUSH3 0xBE DUP5 DUP3 DUP6 ADD PUSH3 0x7E JUMP JUMPDEST SWAP2 POP POP SWAP3 SWAP2 POP POP JUMP JUMPDEST PUSH1 0x0 PUSH3 0xD4 DUP3 PUSH3 0xDB JUMP JUMPDEST SWAP1 POP SWAP2 SWAP1 POP JUMP JUMPDEST PUSH1 0x0 PUSH20 0xFFFFFFFFFFFFFFFFFFFFFFFFFFFFFFFFFFFFFFFF DUP3 AND SWAP1 POP SWAP2 SWAP1 POP JUMP JUMPDEST PUSH1 0x0 DUP1 REVERT JUMPDEST PUSH3 0x10B DUP2 PUSH3 0xC7 JUMP JUMPDEST DUP2 EQ PUSH3 0x117 JUMPI PUSH1 0x0 DUP1 REVERT JUMPDEST POP JUMP JUMPDEST PUSH2 0x2D6B DUP1 PUSH3 0x12A PUSH1 0x0 CODECOPY PUSH1 0x0 RETURN INVALID PUSH1 0x80 PUSH1 0x40 MSTORE CALLVALUE DUP1 ISZERO PUSH2 0x10 JUMPI PUSH1 0x0 DUP1 REVERT JUMPDEST POP PUSH1 0x4 CALLDATASIZE LT PUSH2 0x7D JUMPI PUSH1 0x0 CALLDATALOAD PUSH1 0xE0 SHR DUP1 PUSH4 0x8ADC74A5 GT PUSH2 0x5B JUMPI DUP1 PUSH4 0x8ADC74A5 EQ PUSH2 0xEA JUMPI DUP1 PUSH4 0x9D55097E EQ PUSH2 0x106 JUMPI DUP1 PUSH4 0xA43EDCBD EQ PUSH2 0x122 JUMPI DUP1 PUSH4 0xA55AF701 EQ PUSH2 0x13E JUMPI PUSH2 0x7D JUMP JUMPDEST DUP1 PUSH4 0x264B4502 EQ PUSH2 0x82 JUMPI DUP1 PUSH4 0x361E4705 EQ PUSH2 0xB2 JUMPI DUP1 PUSH4 0x3990877A EQ PUSH2 0xCE JUMPI JUMPDEST PUSH1 0x0 DUP1 REVERT JUMPDEST PUSH2 0x9C PUSH1 0x4 DUP1 CALLDATASIZE SUB DUP2 ADD SWAP1 PUSH2 0x97 SWAP2 SWAP1 PUSH2 0x1FF7 JUMP JUMPDEST PUSH2 0x15A JUMP JUMPDEST PUSH1 0x40 MLOAD PUSH2 0xA9 SWAP2 SWAP1 PUSH2 0x26D3 JUMP JUMPDEST PUSH1 0x40 MLOAD DUP1 SWAP2 SUB SWAP1 RETURN JUMPDEST PUSH2 0xCC PUSH1 0x4 DUP1 CALLDATASIZE SUB DUP2 ADD SWAP1 PUSH2 0xC7 SWAP2 SWAP1 PUSH2 0x20E3 JUMP JUMPDEST PUSH2 0x16C JUMP JUMPDEST STOP JUMPDEST PUSH2 0xE8 PUSH1 0x4 DUP1 CALLDATASIZE SUB DUP2 ADD SWAP1 PUSH2 0xE3 SWAP2 SWAP1 PUSH2 0x21AE JUMP JUMPDEST PUSH2 0x202 JUMP JUMPDEST STOP JUMPDEST PUSH2 0x104 PUSH1 0x4 DUP1 CALLDATASIZE SUB DUP2 ADD SWAP1 PUSH2 0xFF SWAP2 SWAP1 PUSH2 0x2089 JUMP JUMPDEST PUSH2 0x207 JUMP JUMPDEST STOP JUMPDEST PUSH2 0x120 PUSH1 0x4 DUP1 CALLDATASIZE SUB DUP2 ADD SWAP1 PUSH2 0x11B SWAP2 SWAP1 PUSH2 0x20E3 JUMP JUMPDEST PUSH2 0x214 JUMP JUMPDEST STOP JUMPDEST PUSH2 0x13C PUSH1 0x4 DUP1 CALLDATASIZE SUB DUP2 ADD SWAP1 PUSH2 0x137 SWAP2 SWAP1 PUSH2 0x2152 JUMP JUMPDEST PUSH2 0x2AA JUMP JUMPDEST STOP JUMPDEST PUSH2 0x158 PUSH1 0x4 DUP1 CALLDATASIZE SUB DUP2 ADD SWAP1 PUSH2 0x153 SWAP2 SWAP1 PUSH2 0x2089 JUMP JUMPDEST PUSH2 0x2B8 JUMP JUMPDEST STOP JUMPDEST PUSH1 0x0 PUSH2 0x165 DUP3 PUSH2 0x2C5 JUMP JUMPDEST SWAP1 POP SWAP2 SWAP1 POP JUMP JUMPDEST PUSH1 0x0 DUP1 SLOAD SWAP1 PUSH2 0x100 EXP SWAP1 DIV PUSH20 0xFFFFFFFFFFFFFFFFFFFFFFFFFFFFFFFFFFFFFFFF AND PUSH20 0xFFFFFFFFFFFFFFFFFFFFFFFFFFFFFFFFFFFFFFFF AND PUSH4 0x9EC44ABC DUP5 DUP5 DUP5 CALLER PUSH1 0x40 MLOAD DUP6 PUSH4 0xFFFFFFFF AND PUSH1 0xE0 SHL DUP2 MSTORE PUSH1 0x4 ADD PUSH2 0x1CB SWAP5 SWAP4 SWAP3 SWAP2 SWAP1 PUSH2 0x26EE JUMP JUMPDEST PUSH1 0x0 PUSH1 0x40 MLOAD DUP1 DUP4 SUB DUP2 PUSH1 0x0 DUP8 DUP1 EXTCODESIZE ISZERO DUP1 ISZERO PUSH2 0x1E5 JUMPI PUSH1 0x0 DUP1 REVERT JUMPDEST POP GAS CALL ISZERO DUP1 ISZERO PUSH2 0x1F9 JUMPI RETURNDATASIZE PUSH1 0x0 DUP1 RETURNDATACOPY RETURNDATASIZE PUSH1 0x0 REVERT JUMPDEST POP POP POP POP POP POP POP JUMP JUMPDEST POP POP POP JUMP JUMPDEST PUSH2 0x210 DUP2 PUSH2 0x46F JUMP JUMPDEST POP POP JUMP JUMPDEST PUSH1 0x0 DUP1 SLOAD SWAP1 PUSH2 0x100 EXP SWAP1 DIV PUSH20 0xFFFFFFFFFFFFFFFFFFFFFFFFFFFFFFFFFFFFFFFF AND PUSH20 0xFFFFFFFFFFFFFFFFFFFFFFFFFFFFFFFFFFFFFFFF AND PUSH4 0xA7788567 DUP5 DUP5 DUP5 CALLER PUSH1 0x40 MLOAD DUP6 PUSH4 0xFFFFFFFF AND PUSH1 0xE0 SHL DUP2 MSTORE PUSH1 0x4 ADD PUSH2 0x273 SWAP5 SWAP4 SWAP3 SWAP2 SWAP1 PUSH2 0x26EE JUMP JUMPDEST PUSH1 0x0 PUSH1 0x40 MLOAD DUP1 DUP4 SUB DUP2 PUSH1 0x0 DUP8 DUP1 EXTCODESIZE ISZERO DUP1 ISZERO PUSH2 0x28D JUMPI PUSH1 0x0 DUP1 REVERT JUMPDEST POP GAS CALL ISZERO DUP1 ISZERO PUSH2 0x2A1 JUMPI RETURNDATASIZE PUSH1 0x0 DUP1 RETURNDATACOPY RETURNDATASIZE PUSH1 0x0 REVERT JUMPDEST POP POP POP POP POP POP POP JUMP JUMPDEST PUSH2 0x2B4 DUP3 DUP3 PUSH2 0x94A JUMP JUMPDEST POP POP JUMP JUMPDEST PUSH2 0x2C1 DUP2 PUSH2 0xACC JUMP JUMPDEST POP POP JUMP JUMPDEST PUSH1 0x0 DUP1 DUP3 PUSH2 0x140 ADD MLOAD PUSH2 0x2EF JUMPI PUSH1 0x1 DUP4 PUSH2 0x1A0 ADD DUP2 DUP2 MSTORE POP POP PUSH1 0x1 DUP4 PUSH2 0x1C0 ADD DUP2 DUP2 MSTORE POP POP PUSH2 0x3B9 JUMP JUMPDEST DUP3 PUSH2 0x180 ADD MLOAD MLOAD DUP4 PUSH2 0x1A0 ADD DUP2 DUP2 MSTORE POP POP PUSH1 0x0 DUP1 SLOAD SWAP1 PUSH2 0x100 EXP SWAP1 DIV PUSH20 0xFFFFFFFFFFFFFFFFFFFFFFFFFFFFFFFFFFFFFFFF AND PUSH20 0xFFFFFFFFFFFFFFFFFFFFFFFFFFFFFFFFFFFFFFFF AND PUSH4 0xF2E60202 DUP5 PUSH2 0x1A0 ADD MLOAD PUSH1 0x40 MLOAD DUP3 PUSH4 0xFFFFFFFF AND PUSH1 0xE0 SHL DUP2 MSTORE PUSH1 0x4 ADD PUSH2 0x35E SWAP2 SWAP1 PUSH2 0x26D3 JUMP JUMPDEST PUSH1 0x20 PUSH1 0x40 MLOAD DUP1 DUP4 SUB DUP2 DUP7 DUP1 EXTCODESIZE ISZERO DUP1 ISZERO PUSH2 0x376 JUMPI PUSH1 0x0 DUP1 REVERT JUMPDEST POP GAS STATICCALL ISZERO DUP1 ISZERO PUSH2 0x38A JUMPI RETURNDATASIZE PUSH1 0x0 DUP1 RETURNDATACOPY RETURNDATASIZE PUSH1 0x0 REVERT JUMPDEST POP POP POP POP PUSH1 0x40 MLOAD RETURNDATASIZE PUSH1 0x1F NOT PUSH1 0x1F DUP3 ADD AND DUP3 ADD DUP1 PUSH1 0x40 MSTORE POP DUP2 ADD SWAP1 PUSH2 0x3AE SWAP2 SWAP1 PUSH2 0x20B6 JUMP JUMPDEST DUP4 PUSH2 0x1C0 ADD DUP2 DUP2 MSTORE POP POP JUMPDEST PUSH1 0x0 DUP1 SLOAD SWAP1 PUSH2 0x100 EXP SWAP1 DIV PUSH20 0xFFFFFFFFFFFFFFFFFFFFFFFFFFFFFFFFFFFFFFFF AND PUSH20 0xFFFFFFFFFFFFFFFFFFFFFFFFFFFFFFFFFFFFFFFF AND PUSH4 0xF501AA8E DUP5 PUSH1 0x40 MLOAD DUP3 PUSH4 0xFFFFFFFF AND PUSH1 0xE0 SHL DUP2 MSTORE PUSH1 0x4 ADD PUSH2 0x412 SWAP2 SWAP1 PUSH2 0x26B1 JUMP JUMPDEST PUSH1 0x20 PUSH1 0x40 MLOAD DUP1 DUP4 SUB DUP2 PUSH1 0x0 DUP8 DUP1 EXTCODESIZE ISZERO DUP1 ISZERO PUSH2 0x42C JUMPI PUSH1 0x0 DUP1 REVERT JUMPDEST POP GAS CALL ISZERO DUP1 ISZERO PUSH2 0x440 JUMPI RETURNDATASIZE PUSH1 0x0 DUP1 RETURNDATACOPY RETURNDATASIZE PUSH1 0x0 REVERT JUMPDEST POP POP POP POP PUSH1 0x40 MLOAD RETURNDATASIZE PUSH1 0x1F NOT PUSH1 0x1F DUP3 ADD AND DUP3 ADD DUP1 PUSH1 0x40 MSTORE POP DUP2 ADD SWAP1 PUSH2 0x464 SWAP2 SWAP1 PUSH2 0x20B6 JUMP JUMPDEST SWAP1 POP DUP1 SWAP2 POP POP SWAP2 SWAP1 POP JUMP JUMPDEST PUSH1 0x0 DUP1 PUSH1 0x0 DUP1 SLOAD SWAP1 PUSH2 0x100 EXP SWAP1 DIV PUSH20 0xFFFFFFFFFFFFFFFFFFFFFFFFFFFFFFFFFFFFFFFF AND PUSH20 0xFFFFFFFFFFFFFFFFFFFFFFFFFFFFFFFFFFFFFFFF AND PUSH4 0xF0F3F2C8 DUP5 PUSH1 0x40 MLOAD DUP3 PUSH4 0xFFFFFFFF AND PUSH1 0xE0 SHL DUP2 MSTORE PUSH1 0x4 ADD PUSH2 0x4CB SWAP2 SWAP1 PUSH2 0x26D3 JUMP JUMPDEST PUSH1 0x0 PUSH1 0x40 MLOAD DUP1 DUP4 SUB DUP2 DUP7 DUP1 EXTCODESIZE ISZERO DUP1 ISZERO PUSH2 0x4E3 JUMPI PUSH1 0x0 DUP1 REVERT JUMPDEST POP GAS STATICCALL ISZERO DUP1 ISZERO PUSH2 0x4F7 JUMPI RETURNDATASIZE PUSH1 0x0 DUP1 RETURNDATACOPY RETURNDATASIZE PUSH1 0x0 REVERT JUMPDEST POP POP POP POP PUSH1 0x40 MLOAD RETURNDATASIZE PUSH1 0x0 DUP3 RETURNDATACOPY RETURNDATASIZE PUSH1 0x1F NOT PUSH1 0x1F DUP3 ADD AND DUP3 ADD DUP1 PUSH1 0x40 MSTORE POP DUP2 ADD SWAP1 PUSH2 0x520 SWAP2 SWAP1 PUSH2 0x2040 JUMP JUMPDEST SWAP1 POP PUSH1 0x0 DUP2 PUSH2 0x1C0 ADD MLOAD SWAP1 POP PUSH1 0x0 DUP3 PUSH2 0x1A0 ADD MLOAD SWAP1 POP PUSH1 0x0 DUP1 SLOAD SWAP1 PUSH2 0x100 EXP SWAP1 DIV PUSH20 0xFFFFFFFFFFFFFFFFFFFFFFFFFFFFFFFFFFFFFFFF AND PUSH20 0xFFFFFFFFFFFFFFFFFFFFFFFFFFFFFFFFFFFFFFFF AND PUSH4 0x8A9A9FF3 DUP7 PUSH1 0x1 PUSH1 0x40 MLOAD DUP4 PUSH4 0xFFFFFFFF AND PUSH1 0xE0 SHL DUP2 MSTORE PUSH1 0x4 ADD PUSH2 0x592 SWAP3 SWAP2 SWAP1 PUSH2 0x273A JUMP JUMPDEST PUSH1 0x20 PUSH1 0x40 MLOAD DUP1 DUP4 SUB DUP2 DUP7 DUP1 EXTCODESIZE ISZERO DUP1 ISZERO PUSH2 0x5AA JUMPI PUSH1 0x0 DUP1 REVERT JUMPDEST POP GAS STATICCALL ISZERO DUP1 ISZERO PUSH2 0x5BE JUMPI RETURNDATASIZE PUSH1 0x0 DUP1 RETURNDATACOPY RETURNDATASIZE PUSH1 0x0 REVERT JUMPDEST POP POP POP POP PUSH1 0x40 MLOAD RETURNDATASIZE PUSH1 0x1F NOT PUSH1 0x1F DUP3 ADD AND DUP3 ADD DUP1 PUSH1 0x40 MSTORE POP DUP2 ADD SWAP1 PUSH2 0x5E2 SWAP2 SWAP1 PUSH2 0x1FCA JUMP JUMPDEST ISZERO PUSH2 0x5F3 JUMPI PUSH1 0x1 SWAP4 POP POP POP POP PUSH2 0x945 JUMP JUMPDEST PUSH1 0x0 DUP3 MLOAD EQ ISZERO PUSH2 0x722 JUMPI PUSH1 0x0 DUP1 SLOAD SWAP1 PUSH2 0x100 EXP SWAP1 DIV PUSH20 0xFFFFFFFFFFFFFFFFFFFFFFFFFFFFFFFFFFFFFFFF AND PUSH20 0xFFFFFFFFFFFFFFFFFFFFFFFFFFFFFFFFFFFFFFFF AND PUSH4 0xFFBAFDFE DUP7 PUSH1 0x3 PUSH1 0x40 MLOAD DUP4 PUSH4 0xFFFFFFFF AND PUSH1 0xE0 SHL DUP2 MSTORE PUSH1 0x4 ADD PUSH2 0x659 SWAP3 SWAP2 SWAP1 PUSH2 0x2763 JUMP JUMPDEST PUSH1 0x0 PUSH1 0x40 MLOAD DUP1 DUP4 SUB DUP2 PUSH1 0x0 DUP8 DUP1 EXTCODESIZE ISZERO DUP1 ISZERO PUSH2 0x673 JUMPI PUSH1 0x0 DUP1 REVERT JUMPDEST POP GAS CALL ISZERO DUP1 ISZERO PUSH2 0x687 JUMPI RETURNDATASIZE PUSH1 0x0 DUP1 RETURNDATACOPY RETURNDATASIZE PUSH1 0x0 REVERT JUMPDEST POP POP POP POP PUSH1 0x0 DUP1 SLOAD SWAP1 PUSH2 0x100 EXP SWAP1 DIV PUSH20 0xFFFFFFFFFFFFFFFFFFFFFFFFFFFFFFFFFFFFFFFF AND PUSH20 0xFFFFFFFFFFFFFFFFFFFFFFFFFFFFFFFFFFFFFFFF AND PUSH4 0xEA60F28C DUP7 PUSH1 0x40 MLOAD DUP3 PUSH4 0xFFFFFFFF AND PUSH1 0xE0 SHL DUP2 MSTORE PUSH1 0x4 ADD PUSH2 0x6E4 SWAP2 SWAP1 PUSH2 0x26D3 JUMP JUMPDEST PUSH1 0x0 PUSH1 0x40 MLOAD DUP1 DUP4 SUB DUP2 PUSH1 0x0 DUP8 DUP1 EXTCODESIZE ISZERO DUP1 ISZERO PUSH2 0x6FE JUMPI PUSH1 0x0 DUP1 REVERT JUMPDEST POP GAS CALL ISZERO DUP1 ISZERO PUSH2 0x712 JUMPI RETURNDATASIZE PUSH1 0x0 DUP1 RETURNDATACOPY RETURNDATASIZE PUSH1 0x0 REVERT JUMPDEST POP POP POP POP PUSH1 0x0 SWAP4 POP POP POP POP PUSH2 0x945 JUMP JUMPDEST PUSH1 0x0 DUP4 PUSH2 0x1A0 ADD MLOAD MLOAD SWAP1 POP PUSH1 0x0 DUP4 MLOAD SWAP1 POP PUSH1 0x0 DUP2 DUP4 PUSH2 0x741 SWAP2 SWAP1 PUSH2 0x29FA JUMP JUMPDEST SWAP1 POP PUSH1 0x0 JUMPDEST DUP5 MLOAD DUP2 LT ISZERO PUSH2 0x8AE JUMPI PUSH1 0x0 PUSH1 0x5 DUP2 GT ISZERO PUSH2 0x763 JUMPI PUSH2 0x762 PUSH2 0x2BD7 JUMP JUMPDEST JUMPDEST DUP6 DUP3 DUP2 MLOAD DUP2 LT PUSH2 0x776 JUMPI PUSH2 0x775 PUSH2 0x2C06 JUMP JUMPDEST JUMPDEST PUSH1 0x20 MUL PUSH1 0x20 ADD ADD MLOAD PUSH1 0x60 ADD MLOAD PUSH1 0x5 DUP2 GT ISZERO PUSH2 0x794 JUMPI PUSH2 0x793 PUSH2 0x2BD7 JUMP JUMPDEST JUMPDEST EQ ISZERO PUSH2 0x89B JUMPI PUSH1 0x0 JUMPDEST DUP7 MLOAD DUP2 LT ISZERO PUSH2 0x899 JUMPI DUP3 DUP8 DUP3 DUP2 MLOAD DUP2 LT PUSH2 0x7BA JUMPI PUSH2 0x7B9 PUSH2 0x2C06 JUMP JUMPDEST JUMPDEST PUSH1 0x20 MUL PUSH1 0x20 ADD ADD MLOAD PUSH1 0x20 ADD MLOAD MLOAD GT ISZERO PUSH2 0x7D2 JUMPI PUSH2 0x886 JUMP JUMPDEST PUSH1 0x0 DUP1 SLOAD SWAP1 PUSH2 0x100 EXP SWAP1 DIV PUSH20 0xFFFFFFFFFFFFFFFFFFFFFFFFFFFFFFFFFFFFFFFF AND PUSH20 0xFFFFFFFFFFFFFFFFFFFFFFFFFFFFFFFFFFFFFFFF AND PUSH4 0xFE4BFA4A DUP12 DUP5 DUP5 DUP12 DUP7 DUP2 MLOAD DUP2 LT PUSH2 0x824 JUMPI PUSH2 0x823 PUSH2 0x2C06 JUMP JUMPDEST JUMPDEST PUSH1 0x20 MUL PUSH1 0x20 ADD ADD MLOAD PUSH1 0x0 ADD MLOAD PUSH1 0x40 MLOAD DUP6 PUSH4 0xFFFFFFFF AND PUSH1 0xE0 SHL DUP2 MSTORE PUSH1 0x4 ADD PUSH2 0x84F SWAP5 SWAP4 SWAP3 SWAP2 SWAP1 PUSH2 0x27BC JUMP JUMPDEST PUSH1 0x0 PUSH1 0x40 MLOAD DUP1 DUP4 SUB DUP2 PUSH1 0x0 DUP8 DUP1 EXTCODESIZE ISZERO DUP1 ISZERO PUSH2 0x869 JUMPI PUSH1 0x0 DUP1 REVERT JUMPDEST POP GAS CALL ISZERO DUP1 ISZERO PUSH2 0x87D JUMPI RETURNDATASIZE PUSH1 0x0 DUP1 RETURNDATACOPY RETURNDATASIZE PUSH1 0x0 REVERT JUMPDEST POP POP POP POP PUSH2 0x899 JUMP JUMPDEST DUP1 DUP1 PUSH2 0x891 SWAP1 PUSH2 0x2B30 JUMP JUMPDEST SWAP2 POP POP PUSH2 0x79D JUMP JUMPDEST POP JUMPDEST DUP1 DUP1 PUSH2 0x8A6 SWAP1 PUSH2 0x2B30 JUMP JUMPDEST SWAP2 POP POP PUSH2 0x746 JUMP JUMPDEST POP PUSH1 0x0 DUP1 SLOAD SWAP1 PUSH2 0x100 EXP SWAP1 DIV PUSH20 0xFFFFFFFFFFFFFFFFFFFFFFFFFFFFFFFFFFFFFFFF AND PUSH20 0xFFFFFFFFFFFFFFFFFFFFFFFFFFFFFFFFFFFFFFFF AND PUSH4 0xEA60F28C DUP10 PUSH1 0x40 MLOAD DUP3 PUSH4 0xFFFFFFFF AND PUSH1 0xE0 SHL DUP2 MSTORE PUSH1 0x4 ADD PUSH2 0x908 SWAP2 SWAP1 PUSH2 0x26D3 JUMP JUMPDEST PUSH1 0x0 PUSH1 0x40 MLOAD DUP1 DUP4 SUB DUP2 PUSH1 0x0 DUP8 DUP1 EXTCODESIZE ISZERO DUP1 ISZERO PUSH2 0x922 JUMPI PUSH1 0x0 DUP1 REVERT JUMPDEST POP GAS CALL ISZERO DUP1 ISZERO PUSH2 0x936 JUMPI RETURNDATASIZE PUSH1 0x0 DUP1 RETURNDATACOPY RETURNDATASIZE PUSH1 0x0 REVERT JUMPDEST POP POP POP POP PUSH1 0x0 SWAP7 POP POP POP POP POP POP POP JUMPDEST SWAP2 SWAP1 POP JUMP JUMPDEST DUP1 PUSH2 0x140 ADD MLOAD PUSH2 0x971 JUMPI PUSH1 0x1 DUP2 PUSH2 0x1A0 ADD DUP2 DUP2 MSTORE POP POP PUSH1 0x1 DUP2 PUSH2 0x1C0 ADD DUP2 DUP2 MSTORE POP POP PUSH2 0xA3B JUMP JUMPDEST DUP1 PUSH2 0x180 ADD MLOAD MLOAD DUP2 PUSH2 0x1A0 ADD DUP2 DUP2 MSTORE POP POP PUSH1 0x0 DUP1 SLOAD SWAP1 PUSH2 0x100 EXP SWAP1 DIV PUSH20 0xFFFFFFFFFFFFFFFFFFFFFFFFFFFFFFFFFFFFFFFF AND PUSH20 0xFFFFFFFFFFFFFFFFFFFFFFFFFFFFFFFFFFFFFFFF AND PUSH4 0xF2E60202 DUP3 PUSH2 0x1A0 ADD MLOAD PUSH1 0x40 MLOAD DUP3 PUSH4 0xFFFFFFFF AND PUSH1 0xE0 SHL DUP2 MSTORE PUSH1 0x4 ADD PUSH2 0x9E0 SWAP2 SWAP1 PUSH2 0x26D3 JUMP JUMPDEST PUSH1 0x20 PUSH1 0x40 MLOAD DUP1 DUP4 SUB DUP2 DUP7 DUP1 EXTCODESIZE ISZERO DUP1 ISZERO PUSH2 0x9F8 JUMPI PUSH1 0x0 DUP1 REVERT JUMPDEST POP GAS STATICCALL ISZERO DUP1 ISZERO PUSH2 0xA0C JUMPI RETURNDATASIZE PUSH1 0x0 DUP1 RETURNDATACOPY RETURNDATASIZE PUSH1 0x0 REVERT JUMPDEST POP POP POP POP PUSH1 0x40 MLOAD RETURNDATASIZE PUSH1 0x1F NOT PUSH1 0x1F DUP3 ADD AND DUP3 ADD DUP1 PUSH1 0x40 MSTORE POP DUP2 ADD SWAP1 PUSH2 0xA30 SWAP2 SWAP1 PUSH2 0x20B6 JUMP JUMPDEST DUP2 PUSH2 0x1C0 ADD DUP2 DUP2 MSTORE POP POP JUMPDEST PUSH1 0x0 DUP1 SLOAD SWAP1 PUSH2 0x100 EXP SWAP1 DIV PUSH20 0xFFFFFFFFFFFFFFFFFFFFFFFFFFFFFFFFFFFFFFFF AND PUSH20 0xFFFFFFFFFFFFFFFFFFFFFFFFFFFFFFFFFFFFFFFF AND PUSH4 0xA43EDCBD DUP4 DUP4 PUSH1 0x40 MLOAD DUP4 PUSH4 0xFFFFFFFF AND PUSH1 0xE0 SHL DUP2 MSTORE PUSH1 0x4 ADD PUSH2 0xA96 SWAP3 SWAP2 SWAP1 PUSH2 0x278C JUMP JUMPDEST PUSH1 0x0 PUSH1 0x40 MLOAD DUP1 DUP4 SUB DUP2 PUSH1 0x0 DUP8 DUP1 EXTCODESIZE ISZERO DUP1 ISZERO PUSH2 0xAB0 JUMPI PUSH1 0x0 DUP1 REVERT JUMPDEST POP GAS CALL ISZERO DUP1 ISZERO PUSH2 0xAC4 JUMPI RETURNDATASIZE PUSH1 0x0 DUP1 RETURNDATACOPY RETURNDATASIZE PUSH1 0x0 REVERT JUMPDEST POP POP POP POP POP POP JUMP JUMPDEST PUSH1 0x0 DUP1 PUSH1 0x0 DUP1 SLOAD SWAP1 PUSH2 0x100 EXP SWAP1 DIV PUSH20 0xFFFFFFFFFFFFFFFFFFFFFFFFFFFFFFFFFFFFFFFF AND PUSH20 0xFFFFFFFFFFFFFFFFFFFFFFFFFFFFFFFFFFFFFFFF AND PUSH4 0xF0F3F2C8 DUP5 PUSH1 0x40 MLOAD DUP3 PUSH4 0xFFFFFFFF AND PUSH1 0xE0 SHL DUP2 MSTORE PUSH1 0x4 ADD PUSH2 0xB28 SWAP2 SWAP1 PUSH2 0x26D3 JUMP JUMPDEST PUSH1 0x0 PUSH1 0x40 MLOAD DUP1 DUP4 SUB DUP2 DUP7 DUP1 EXTCODESIZE ISZERO DUP1 ISZERO PUSH2 0xB40 JUMPI PUSH1 0x0 DUP1 REVERT JUMPDEST POP GAS STATICCALL ISZERO DUP1 ISZERO PUSH2 0xB54 JUMPI RETURNDATASIZE PUSH1 0x0 DUP1 RETURNDATACOPY RETURNDATASIZE PUSH1 0x0 REVERT JUMPDEST POP POP POP POP PUSH1 0x40 MLOAD RETURNDATASIZE PUSH1 0x0 DUP3 RETURNDATACOPY RETURNDATASIZE PUSH1 0x1F NOT PUSH1 0x1F DUP3 ADD AND DUP3 ADD DUP1 PUSH1 0x40 MSTORE POP DUP2 ADD SWAP1 PUSH2 0xB7D SWAP2 SWAP1 PUSH2 0x2040 JUMP JUMPDEST SWAP1 POP PUSH1 0x0 DUP2 PUSH2 0x1E0 ADD MLOAD SWAP1 POP PUSH1 0x0 DUP3 PUSH2 0x1A0 ADD MLOAD SWAP1 POP PUSH1 0x0 DUP1 SLOAD SWAP1 PUSH2 0x100 EXP SWAP1 DIV PUSH20 0xFFFFFFFFFFFFFFFFFFFFFFFFFFFFFFFFFFFFFFFF AND PUSH20 0xFFFFFFFFFFFFFFFFFFFFFFFFFFFFFFFFFFFFFFFF AND PUSH4 0x8A9A9FF3 DUP7 PUSH1 0x0 PUSH1 0x40 MLOAD DUP4 PUSH4 0xFFFFFFFF AND PUSH1 0xE0 SHL DUP2 MSTORE PUSH1 0x4 ADD PUSH2 0xBEF SWAP3 SWAP2 SWAP1 PUSH2 0x273A JUMP JUMPDEST PUSH1 0x20 PUSH1 0x40 MLOAD DUP1 DUP4 SUB DUP2 DUP7 DUP1 EXTCODESIZE ISZERO DUP1 ISZERO PUSH2 0xC07 JUMPI PUSH1 0x0 DUP1 REVERT JUMPDEST POP GAS STATICCALL ISZERO DUP1 ISZERO PUSH2 0xC1B JUMPI RETURNDATASIZE PUSH1 0x0 DUP1 RETURNDATACOPY RETURNDATASIZE PUSH1 0x0 REVERT JUMPDEST POP POP POP POP PUSH1 0x40 MLOAD RETURNDATASIZE PUSH1 0x1F NOT PUSH1 0x1F DUP3 ADD AND DUP3 ADD DUP1 PUSH1 0x40 MSTORE POP DUP2 ADD SWAP1 PUSH2 0xC3F SWAP2 SWAP1 PUSH2 0x1FCA JUMP JUMPDEST ISZERO PUSH2 0xC50 JUMPI PUSH1 0x1 SWAP4 POP POP POP POP PUSH2 0xFA2 JUMP JUMPDEST PUSH1 0x0 DUP3 MLOAD EQ ISZERO PUSH2 0xD7F JUMPI PUSH1 0x0 DUP1 SLOAD SWAP1 PUSH2 0x100 EXP SWAP1 DIV PUSH20 0xFFFFFFFFFFFFFFFFFFFFFFFFFFFFFFFFFFFFFFFF AND PUSH20 0xFFFFFFFFFFFFFFFFFFFFFFFFFFFFFFFFFFFFFFFF AND PUSH4 0xFFBAFDFE DUP7 PUSH1 0x3 PUSH1 0x40 MLOAD DUP4 PUSH4 0xFFFFFFFF AND PUSH1 0xE0 SHL DUP2 MSTORE PUSH1 0x4 ADD PUSH2 0xCB6 SWAP3 SWAP2 SWAP1 PUSH2 0x2763 JUMP JUMPDEST PUSH1 0x0 PUSH1 0x40 MLOAD DUP1 DUP4 SUB DUP2 PUSH1 0x0 DUP8 DUP1 EXTCODESIZE ISZERO DUP1 ISZERO PUSH2 0xCD0 JUMPI PUSH1 0x0 DUP1 REVERT JUMPDEST POP GAS CALL ISZERO DUP1 ISZERO PUSH2 0xCE4 JUMPI RETURNDATASIZE PUSH1 0x0 DUP1 RETURNDATACOPY RETURNDATASIZE PUSH1 0x0 REVERT JUMPDEST POP POP POP POP PUSH1 0x0 DUP1 SLOAD SWAP1 PUSH2 0x100 EXP SWAP1 DIV PUSH20 0xFFFFFFFFFFFFFFFFFFFFFFFFFFFFFFFFFFFFFFFF AND PUSH20 0xFFFFFFFFFFFFFFFFFFFFFFFFFFFFFFFFFFFFFFFF AND PUSH4 0xDF3A726F DUP7 PUSH1 0x40 MLOAD DUP3 PUSH4 0xFFFFFFFF AND PUSH1 0xE0 SHL DUP2 MSTORE PUSH1 0x4 ADD PUSH2 0xD41 SWAP2 SWAP1 PUSH2 0x26D3 JUMP JUMPDEST PUSH1 0x0 PUSH1 0x40 MLOAD DUP1 DUP4 SUB DUP2 PUSH1 0x0 DUP8 DUP1 EXTCODESIZE ISZERO DUP1 ISZERO PUSH2 0xD5B JUMPI PUSH1 0x0 DUP1 REVERT JUMPDEST POP GAS CALL ISZERO DUP1 ISZERO PUSH2 0xD6F JUMPI RETURNDATASIZE PUSH1 0x0 DUP1 RETURNDATACOPY RETURNDATASIZE PUSH1 0x0 REVERT JUMPDEST POP POP POP POP PUSH1 0x0 SWAP4 POP POP POP POP PUSH2 0xFA2 JUMP JUMPDEST PUSH1 0x0 DUP4 PUSH2 0x1A0 ADD MLOAD MLOAD SWAP1 POP PUSH1 0x0 DUP4 MLOAD SWAP1 POP PUSH1 0x0 DUP2 DUP4 PUSH2 0xD9E SWAP2 SWAP1 PUSH2 0x29FA JUMP JUMPDEST SWAP1 POP PUSH1 0x0 JUMPDEST DUP5 MLOAD DUP2 LT ISZERO PUSH2 0xF0B JUMPI PUSH1 0x0 PUSH1 0x5 DUP2 GT ISZERO PUSH2 0xDC0 JUMPI PUSH2 0xDBF PUSH2 0x2BD7 JUMP JUMPDEST JUMPDEST DUP6 DUP3 DUP2 MLOAD DUP2 LT PUSH2 0xDD3 JUMPI PUSH2 0xDD2 PUSH2 0x2C06 JUMP JUMPDEST JUMPDEST PUSH1 0x20 MUL PUSH1 0x20 ADD ADD MLOAD PUSH1 0x60 ADD MLOAD PUSH1 0x5 DUP2 GT ISZERO PUSH2 0xDF1 JUMPI PUSH2 0xDF0 PUSH2 0x2BD7 JUMP JUMPDEST JUMPDEST EQ ISZERO PUSH2 0xEF8 JUMPI PUSH1 0x0 JUMPDEST DUP7 MLOAD DUP2 LT ISZERO PUSH2 0xEF6 JUMPI DUP3 DUP8 DUP3 DUP2 MLOAD DUP2 LT PUSH2 0xE17 JUMPI PUSH2 0xE16 PUSH2 0x2C06 JUMP JUMPDEST JUMPDEST PUSH1 0x20 MUL PUSH1 0x20 ADD ADD MLOAD PUSH1 0x20 ADD MLOAD MLOAD GT ISZERO PUSH2 0xE2F JUMPI PUSH2 0xEE3 JUMP JUMPDEST PUSH1 0x0 DUP1 SLOAD SWAP1 PUSH2 0x100 EXP SWAP1 DIV PUSH20 0xFFFFFFFFFFFFFFFFFFFFFFFFFFFFFFFFFFFFFFFF AND PUSH20 0xFFFFFFFFFFFFFFFFFFFFFFFFFFFFFFFFFFFFFFFF AND PUSH4 0xFE4BFA4A DUP12 DUP5 DUP5 DUP12 DUP7 DUP2 MLOAD DUP2 LT PUSH2 0xE81 JUMPI PUSH2 0xE80 PUSH2 0x2C06 JUMP JUMPDEST JUMPDEST PUSH1 0x20 MUL PUSH1 0x20 ADD ADD MLOAD PUSH1 0x0 ADD MLOAD PUSH1 0x40 MLOAD DUP6 PUSH4 0xFFFFFFFF AND PUSH1 0xE0 SHL DUP2 MSTORE PUSH1 0x4 ADD PUSH2 0xEAC SWAP5 SWAP4 SWAP3 SWAP2 SWAP1 PUSH2 0x27BC JUMP JUMPDEST PUSH1 0x0 PUSH1 0x40 MLOAD DUP1 DUP4 SUB DUP2 PUSH1 0x0 DUP8 DUP1 EXTCODESIZE ISZERO DUP1 ISZERO PUSH2 0xEC6 JUMPI PUSH1 0x0 DUP1 REVERT JUMPDEST POP GAS CALL ISZERO DUP1 ISZERO PUSH2 0xEDA JUMPI RETURNDATASIZE PUSH1 0x0 DUP1 RETURNDATACOPY RETURNDATASIZE PUSH1 0x0 REVERT JUMPDEST POP POP POP POP PUSH2 0xEF6 JUMP JUMPDEST DUP1 DUP1 PUSH2 0xEEE SWAP1 PUSH2 0x2B30 JUMP JUMPDEST SWAP2 POP POP PUSH2 0xDFA JUMP JUMPDEST POP JUMPDEST DUP1 DUP1 PUSH2 0xF03 SWAP1 PUSH2 0x2B30 JUMP JUMPDEST SWAP2 POP POP PUSH2 0xDA3 JUMP JUMPDEST POP PUSH1 0x0 DUP1 SLOAD SWAP1 PUSH2 0x100 EXP SWAP1 DIV PUSH20 0xFFFFFFFFFFFFFFFFFFFFFFFFFFFFFFFFFFFFFFFF AND PUSH20 0xFFFFFFFFFFFFFFFFFFFFFFFFFFFFFFFFFFFFFFFF AND PUSH4 0xDF3A726F DUP10 PUSH1 0x40 MLOAD DUP3 PUSH4 0xFFFFFFFF AND PUSH1 0xE0 SHL DUP2 MSTORE PUSH1 0x4 ADD PUSH2 0xF65 SWAP2 SWAP1 PUSH2 0x26D3 JUMP JUMPDEST PUSH1 0x0 PUSH1 0x40 MLOAD DUP1 DUP4 SUB DUP2 PUSH1 0x0 DUP8 DUP1 EXTCODESIZE ISZERO DUP1 ISZERO PUSH2 0xF7F JUMPI PUSH1 0x0 DUP1 REVERT JUMPDEST POP GAS CALL ISZERO DUP1 ISZERO PUSH2 0xF93 JUMPI RETURNDATASIZE PUSH1 0x0 DUP1 RETURNDATACOPY RETURNDATASIZE PUSH1 0x0 REVERT JUMPDEST POP POP POP POP PUSH1 0x0 SWAP7 POP POP POP POP POP POP POP JUMPDEST SWAP2 SWAP1 POP JUMP JUMPDEST PUSH1 0x0 PUSH2 0xFBA PUSH2 0xFB5 DUP5 PUSH2 0x2826 JUMP JUMPDEST PUSH2 0x2801 JUMP JUMPDEST SWAP1 POP DUP1 DUP4 DUP3 MSTORE PUSH1 0x20 DUP3 ADD SWAP1 POP DUP3 DUP6 PUSH1 0x20 DUP7 MUL DUP3 ADD GT ISZERO PUSH2 0xFDD JUMPI PUSH2 0xFDC PUSH2 0x2C73 JUMP JUMPDEST JUMPDEST PUSH1 0x0 JUMPDEST DUP6 DUP2 LT ISZERO PUSH2 0x100D JUMPI DUP2 PUSH2 0xFF3 DUP9 DUP3 PUSH2 0x162F JUMP JUMPDEST DUP5 MSTORE PUSH1 0x20 DUP5 ADD SWAP4 POP PUSH1 0x20 DUP4 ADD SWAP3 POP POP PUSH1 0x1 DUP2 ADD SWAP1 POP PUSH2 0xFE0 JUMP JUMPDEST POP POP POP SWAP4 SWAP3 POP POP POP JUMP JUMPDEST PUSH1 0x0 PUSH2 0x102A PUSH2 0x1025 DUP5 PUSH2 0x2852 JUMP JUMPDEST PUSH2 0x2801 JUMP JUMPDEST SWAP1 POP DUP1 DUP4 DUP3 MSTORE PUSH1 0x20 DUP3 ADD SWAP1 POP DUP3 DUP6 PUSH1 0x20 DUP7 MUL DUP3 ADD GT ISZERO PUSH2 0x104D JUMPI PUSH2 0x104C PUSH2 0x2C73 JUMP JUMPDEST JUMPDEST PUSH1 0x0 JUMPDEST DUP6 DUP2 LT ISZERO PUSH2 0x109B JUMPI DUP2 CALLDATALOAD PUSH8 0xFFFFFFFFFFFFFFFF DUP2 GT ISZERO PUSH2 0x1073 JUMPI PUSH2 0x1072 PUSH2 0x2C64 JUMP JUMPDEST JUMPDEST DUP1 DUP7 ADD PUSH2 0x1080 DUP10 DUP3 PUSH2 0x1644 JUMP JUMPDEST DUP6 MSTORE PUSH1 0x20 DUP6 ADD SWAP5 POP PUSH1 0x20 DUP5 ADD SWAP4 POP POP POP PUSH1 0x1 DUP2 ADD SWAP1 POP PUSH2 0x1050 JUMP JUMPDEST POP POP POP SWAP4 SWAP3 POP POP POP JUMP JUMPDEST PUSH1 0x0 PUSH2 0x10B8 PUSH2 0x10B3 DUP5 PUSH2 0x2852 JUMP JUMPDEST PUSH2 0x2801 JUMP JUMPDEST SWAP1 POP DUP1 DUP4 DUP3 MSTORE PUSH1 0x20 DUP3 ADD SWAP1 POP DUP3 DUP6 PUSH1 0x20 DUP7 MUL DUP3 ADD GT ISZERO PUSH2 0x10DB JUMPI PUSH2 0x10DA PUSH2 0x2C73 JUMP JUMPDEST JUMPDEST PUSH1 0x0 JUMPDEST DUP6 DUP2 LT ISZERO PUSH2 0x1129 JUMPI DUP2 MLOAD PUSH8 0xFFFFFFFFFFFFFFFF DUP2 GT ISZERO PUSH2 0x1101 JUMPI PUSH2 0x1100 PUSH2 0x2C64 JUMP JUMPDEST JUMPDEST DUP1 DUP7 ADD PUSH2 0x110E DUP10 DUP3 PUSH2 0x1672 JUMP JUMPDEST DUP6 MSTORE PUSH1 0x20 DUP6 ADD SWAP5 POP PUSH1 0x20 DUP5 ADD SWAP4 POP POP POP PUSH1 0x1 DUP2 ADD SWAP1 POP PUSH2 0x10DE JUMP JUMPDEST POP POP POP SWAP4 SWAP3 POP POP POP JUMP JUMPDEST PUSH1 0x0 PUSH2 0x1146 PUSH2 0x1141 DUP5 PUSH2 0x287E JUMP JUMPDEST PUSH2 0x2801 JUMP JUMPDEST SWAP1 POP DUP1 DUP4 DUP3 MSTORE PUSH1 0x20 DUP3 ADD SWAP1 POP DUP3 DUP6 PUSH1 0x20 DUP7 MUL DUP3 ADD GT ISZERO PUSH2 0x1169 JUMPI PUSH2 0x1168 PUSH2 0x2C73 JUMP JUMPDEST JUMPDEST PUSH1 0x0 JUMPDEST DUP6 DUP2 LT ISZERO PUSH2 0x11B7 JUMPI DUP2 CALLDATALOAD PUSH8 0xFFFFFFFFFFFFFFFF DUP2 GT ISZERO PUSH2 0x118F JUMPI PUSH2 0x118E PUSH2 0x2C64 JUMP JUMPDEST JUMPDEST DUP1 DUP7 ADD PUSH2 0x119C DUP10 DUP3 PUSH2 0x1A84 JUMP JUMPDEST DUP6 MSTORE PUSH1 0x20 DUP6 ADD SWAP5 POP PUSH1 0x20 DUP5 ADD SWAP4 POP POP POP PUSH1 0x1 DUP2 ADD SWAP1 POP PUSH2 0x116C JUMP JUMPDEST POP POP POP SWAP4 SWAP3 POP POP POP JUMP JUMPDEST PUSH1 0x0 PUSH2 0x11D4 PUSH2 0x11CF DUP5 PUSH2 0x287E JUMP JUMPDEST PUSH2 0x2801 JUMP JUMPDEST SWAP1 POP DUP1 DUP4 DUP3 MSTORE PUSH1 0x20 DUP3 ADD SWAP1 POP DUP3 DUP6 PUSH1 0x20 DUP7 MUL DUP3 ADD GT ISZERO PUSH2 0x11F7 JUMPI PUSH2 0x11F6 PUSH2 0x2C73 JUMP JUMPDEST JUMPDEST PUSH1 0x0 JUMPDEST DUP6 DUP2 LT ISZERO PUSH2 0x1245 JUMPI DUP2 MLOAD PUSH8 0xFFFFFFFFFFFFFFFF DUP2 GT ISZERO PUSH2 0x121D JUMPI PUSH2 0x121C PUSH2 0x2C64 JUMP JUMPDEST JUMPDEST DUP1 DUP7 ADD PUSH2 0x122A DUP10 DUP3 PUSH2 0x1B48 JUMP JUMPDEST DUP6 MSTORE PUSH1 0x20 DUP6 ADD SWAP5 POP PUSH1 0x20 DUP5 ADD SWAP4 POP POP POP PUSH1 0x1 DUP2 ADD SWAP1 POP PUSH2 0x11FA JUMP JUMPDEST POP POP POP SWAP4 SWAP3 POP POP POP JUMP JUMPDEST PUSH1 0x0 PUSH2 0x1262 PUSH2 0x125D DUP5 PUSH2 0x28AA JUMP JUMPDEST PUSH2 0x2801 JUMP JUMPDEST SWAP1 POP DUP1 DUP4 DUP3 MSTORE PUSH1 0x20 DUP3 ADD SWAP1 POP DUP3 DUP6 PUSH1 0x20 DUP7 MUL DUP3 ADD GT ISZERO PUSH2 0x1285 JUMPI PUSH2 0x1284 PUSH2 0x2C73 JUMP JUMPDEST JUMPDEST PUSH1 0x0 JUMPDEST DUP6 DUP2 LT ISZERO PUSH2 0x12D3 JUMPI DUP2 MLOAD PUSH8 0xFFFFFFFFFFFFFFFF DUP2 GT ISZERO PUSH2 0x12AB JUMPI PUSH2 0x12AA PUSH2 0x2C64 JUMP JUMPDEST JUMPDEST DUP1 DUP7 ADD PUSH2 0x12B8 DUP10 DUP3 PUSH2 0x1C0C JUMP JUMPDEST DUP6 MSTORE PUSH1 0x20 DUP6 ADD SWAP5 POP PUSH1 0x20 DUP5 ADD SWAP4 POP POP POP PUSH1 0x1 DUP2 ADD SWAP1 POP PUSH2 0x1288 JUMP JUMPDEST POP POP POP SWAP4 SWAP3 POP POP POP JUMP JUMPDEST PUSH1 0x0 PUSH2 0x12F0 PUSH2 0x12EB DUP5 PUSH2 0x28D6 JUMP JUMPDEST PUSH2 0x2801 JUMP JUMPDEST SWAP1 POP DUP1 DUP4 DUP3 MSTORE PUSH1 0x20 DUP3 ADD SWAP1 POP DUP3 DUP6 PUSH1 0x20 DUP7 MUL DUP3 ADD GT ISZERO PUSH2 0x1313 JUMPI PUSH2 0x1312 PUSH2 0x2C73 JUMP JUMPDEST JUMPDEST PUSH1 0x0 JUMPDEST DUP6 DUP2 LT ISZERO PUSH2 0x1343 JUMPI DUP2 PUSH2 0x1329 DUP9 DUP3 PUSH2 0x1FA0 JUMP JUMPDEST DUP5 MSTORE PUSH1 0x20 DUP5 ADD SWAP4 POP PUSH1 0x20 DUP4 ADD SWAP3 POP POP PUSH1 0x1 DUP2 ADD SWAP1 POP PUSH2 0x1316 JUMP JUMPDEST POP POP POP SWAP4 SWAP3 POP POP POP JUMP JUMPDEST PUSH1 0x0 PUSH2 0x1360 PUSH2 0x135B DUP5 PUSH2 0x28D6 JUMP JUMPDEST PUSH2 0x2801 JUMP JUMPDEST SWAP1 POP DUP1 DUP4 DUP3 MSTORE PUSH1 0x20 DUP3 ADD SWAP1 POP DUP3 DUP6 PUSH1 0x20 DUP7 MUL DUP3 ADD GT ISZERO PUSH2 0x1383 JUMPI PUSH2 0x1382 PUSH2 0x2C73 JUMP JUMPDEST JUMPDEST PUSH1 0x0 JUMPDEST DUP6 DUP2 LT ISZERO PUSH2 0x13B3 JUMPI DUP2 PUSH2 0x1399 DUP9 DUP3 PUSH2 0x1FB5 JUMP JUMPDEST DUP5 MSTORE PUSH1 0x20 DUP5 ADD SWAP4 POP PUSH1 0x20 DUP4 ADD SWAP3 POP POP PUSH1 0x1 DUP2 ADD SWAP1 POP PUSH2 0x1386 JUMP JUMPDEST POP POP POP SWAP4 SWAP3 POP POP POP JUMP JUMPDEST PUSH1 0x0 PUSH2 0x13D0 PUSH2 0x13CB DUP5 PUSH2 0x2902 JUMP JUMPDEST PUSH2 0x2801 JUMP JUMPDEST SWAP1 POP DUP3 DUP2 MSTORE PUSH1 0x20 DUP2 ADD DUP5 DUP5 DUP5 ADD GT ISZERO PUSH2 0x13EC JUMPI PUSH2 0x13EB PUSH2 0x2C78 JUMP JUMPDEST JUMPDEST PUSH2 0x13F7 DUP5 DUP3 DUP6 PUSH2 0x2ABD JUMP JUMPDEST POP SWAP4 SWAP3 POP POP POP JUMP JUMPDEST PUSH1 0x0 PUSH2 0x1412 PUSH2 0x140D DUP5 PUSH2 0x2902 JUMP JUMPDEST PUSH2 0x2801 JUMP JUMPDEST SWAP1 POP DUP3 DUP2 MSTORE PUSH1 0x20 DUP2 ADD DUP5 DUP5 DUP5 ADD GT ISZERO PUSH2 0x142E JUMPI PUSH2 0x142D PUSH2 0x2C78 JUMP JUMPDEST JUMPDEST PUSH2 0x1439 DUP5 DUP3 DUP6 PUSH2 0x2ACC JUMP JUMPDEST POP SWAP4 SWAP3 POP POP POP JUMP JUMPDEST PUSH1 0x0 DUP2 MLOAD SWAP1 POP PUSH2 0x1450 DUP2 PUSH2 0x2CC0 JUMP JUMPDEST SWAP3 SWAP2 POP POP JUMP JUMPDEST PUSH1 0x0 DUP3 PUSH1 0x1F DUP4 ADD SLT PUSH2 0x146B JUMPI PUSH2 0x146A PUSH2 0x2C64 JUMP JUMPDEST JUMPDEST DUP2 MLOAD PUSH2 0x147B DUP5 DUP3 PUSH1 0x20 DUP7 ADD PUSH2 0xFA7 JUMP JUMPDEST SWAP2 POP POP SWAP3 SWAP2 POP POP JUMP JUMPDEST PUSH1 0x0 DUP3 PUSH1 0x1F DUP4 ADD SLT PUSH2 0x1499 JUMPI PUSH2 0x1498 PUSH2 0x2C64 JUMP JUMPDEST JUMPDEST DUP2 CALLDATALOAD PUSH2 0x14A9 DUP5 DUP3 PUSH1 0x20 DUP7 ADD PUSH2 0x1017 JUMP JUMPDEST SWAP2 POP POP SWAP3 SWAP2 POP POP JUMP JUMPDEST PUSH1 0x0 DUP3 PUSH1 0x1F DUP4 ADD SLT PUSH2 0x14C7 JUMPI PUSH2 0x14C6 PUSH2 0x2C64 JUMP JUMPDEST JUMPDEST DUP2 MLOAD PUSH2 0x14D7 DUP5 DUP3 PUSH1 0x20 DUP7 ADD PUSH2 0x10A5 JUMP JUMPDEST SWAP2 POP POP SWAP3 SWAP2 POP POP JUMP JUMPDEST PUSH1 0x0 DUP3 PUSH1 0x1F DUP4 ADD SLT PUSH2 0x14F5 JUMPI PUSH2 0x14F4 PUSH2 0x2C64 JUMP JUMPDEST JUMPDEST DUP2 CALLDATALOAD PUSH2 0x1505 DUP5 DUP3 PUSH1 0x20 DUP7 ADD PUSH2 0x1133 JUMP JUMPDEST SWAP2 POP POP SWAP3 SWAP2 POP POP JUMP JUMPDEST PUSH1 0x0 DUP3 PUSH1 0x1F DUP4 ADD SLT PUSH2 0x1523 JUMPI PUSH2 0x1522 PUSH2 0x2C64 JUMP JUMPDEST JUMPDEST DUP2 MLOAD PUSH2 0x1533 DUP5 DUP3 PUSH1 0x20 DUP7 ADD PUSH2 0x11C1 JUMP JUMPDEST SWAP2 POP POP SWAP3 SWAP2 POP POP JUMP JUMPDEST PUSH1 0x0 DUP3 PUSH1 0x1F DUP4 ADD SLT PUSH2 0x1551 JUMPI PUSH2 0x1550 PUSH2 0x2C64 JUMP JUMPDEST JUMPDEST DUP2 MLOAD PUSH2 0x1561 DUP5 DUP3 PUSH1 0x20 DUP7 ADD PUSH2 0x124F JUMP JUMPDEST SWAP2 POP POP SWAP3 SWAP2 POP POP JUMP JUMPDEST PUSH1 0x0 DUP3 PUSH1 0x1F DUP4 ADD SLT PUSH2 0x157F JUMPI PUSH2 0x157E PUSH2 0x2C64 JUMP JUMPDEST JUMPDEST DUP2 CALLDATALOAD PUSH2 0x158F DUP5 DUP3 PUSH1 0x20 DUP7 ADD PUSH2 0x12DD JUMP JUMPDEST SWAP2 POP POP SWAP3 SWAP2 POP POP JUMP JUMPDEST PUSH1 0x0 DUP3 PUSH1 0x1F DUP4 ADD SLT PUSH2 0x15AD JUMPI PUSH2 0x15AC PUSH2 0x2C64 JUMP JUMPDEST JUMPDEST DUP2 MLOAD PUSH2 0x15BD DUP5 DUP3 PUSH1 0x20 DUP7 ADD PUSH2 0x134D JUMP JUMPDEST SWAP2 POP POP SWAP3 SWAP2 POP POP JUMP JUMPDEST PUSH1 0x0 DUP2 CALLDATALOAD SWAP1 POP PUSH2 0x15D5 DUP2 PUSH2 0x2CD7 JUMP JUMPDEST SWAP3 SWAP2 POP POP JUMP JUMPDEST PUSH1 0x0 DUP2 MLOAD SWAP1 POP PUSH2 0x15EA DUP2 PUSH2 0x2CD7 JUMP JUMPDEST SWAP3 SWAP2 POP POP JUMP JUMPDEST PUSH1 0x0 DUP2 CALLDATALOAD SWAP1 POP PUSH2 0x15FF DUP2 PUSH2 0x2CEE JUMP JUMPDEST SWAP3 SWAP2 POP POP JUMP JUMPDEST PUSH1 0x0 DUP2 MLOAD SWAP1 POP PUSH2 0x1614 DUP2 PUSH2 0x2CEE JUMP JUMPDEST SWAP3 SWAP2 POP POP JUMP JUMPDEST PUSH1 0x0 DUP2 MLOAD SWAP1 POP PUSH2 0x1629 DUP2 PUSH2 0x2CFE JUMP JUMPDEST SWAP3 SWAP2 POP POP JUMP JUMPDEST PUSH1 0x0 DUP2 MLOAD SWAP1 POP PUSH2 0x163E DUP2 PUSH2 0x2D0E JUMP JUMPDEST SWAP3 SWAP2 POP POP JUMP JUMPDEST PUSH1 0x0 DUP3 PUSH1 0x1F DUP4 ADD SLT PUSH2 0x1659 JUMPI PUSH2 0x1658 PUSH2 0x2C64 JUMP JUMPDEST JUMPDEST DUP2 CALLDATALOAD PUSH2 0x1669 DUP5 DUP3 PUSH1 0x20 DUP7 ADD PUSH2 0x13BD JUMP JUMPDEST SWAP2 POP POP SWAP3 SWAP2 POP POP JUMP JUMPDEST PUSH1 0x0 DUP3 PUSH1 0x1F DUP4 ADD SLT PUSH2 0x1687 JUMPI PUSH2 0x1686 PUSH2 0x2C64 JUMP JUMPDEST JUMPDEST DUP2 MLOAD PUSH2 0x1697 DUP5 DUP3 PUSH1 0x20 DUP7 ADD PUSH2 0x13FF JUMP JUMPDEST SWAP2 POP POP SWAP3 SWAP2 POP POP JUMP JUMPDEST PUSH1 0x0 PUSH1 0xE0 DUP3 DUP5 SUB SLT ISZERO PUSH2 0x16B6 JUMPI PUSH2 0x16B5 PUSH2 0x2C69 JUMP JUMPDEST JUMPDEST PUSH2 0x16C0 PUSH1 0xE0 PUSH2 0x2801 JUMP JUMPDEST SWAP1 POP PUSH1 0x0 DUP3 ADD CALLDATALOAD PUSH8 0xFFFFFFFFFFFFFFFF DUP2 GT ISZERO PUSH2 0x16E0 JUMPI PUSH2 0x16DF PUSH2 0x2C6E JUMP JUMPDEST JUMPDEST PUSH2 0x16EC DUP5 DUP3 DUP6 ADD PUSH2 0x1644 JUMP JUMPDEST PUSH1 0x0 DUP4 ADD MSTORE POP PUSH1 0x20 PUSH2 0x1700 DUP5 DUP3 DUP6 ADD PUSH2 0x1FA0 JUMP JUMPDEST PUSH1 0x20 DUP4 ADD MSTORE POP PUSH1 0x40 PUSH2 0x1714 DUP5 DUP3 DUP6 ADD PUSH2 0x1FA0 JUMP JUMPDEST PUSH1 0x40 DUP4 ADD MSTORE POP PUSH1 0x60 PUSH2 0x1728 DUP5 DUP3 DUP6 ADD PUSH2 0x1FA0 JUMP JUMPDEST PUSH1 0x60 DUP4 ADD MSTORE POP PUSH1 0x80 PUSH2 0x173C DUP5 DUP3 DUP6 ADD PUSH2 0x1FA0 JUMP JUMPDEST PUSH1 0x80 DUP4 ADD MSTORE POP PUSH1 0xA0 PUSH2 0x1750 DUP5 DUP3 DUP6 ADD PUSH2 0x1FA0 JUMP JUMPDEST PUSH1 0xA0 DUP4 ADD MSTORE POP PUSH1 0xC0 DUP3 ADD CALLDATALOAD PUSH8 0xFFFFFFFFFFFFFFFF DUP2 GT ISZERO PUSH2 0x1774 JUMPI PUSH2 0x1773 PUSH2 0x2C6E JUMP JUMPDEST JUMPDEST PUSH2 0x1780 DUP5 DUP3 DUP6 ADD PUSH2 0x1644 JUMP JUMPDEST PUSH1 0xC0 DUP4 ADD MSTORE POP SWAP3 SWAP2 POP POP JUMP JUMPDEST PUSH1 0x0 PUSH1 0xE0 DUP3 DUP5 SUB SLT ISZERO PUSH2 0x17A2 JUMPI PUSH2 0x17A1 PUSH2 0x2C69 JUMP JUMPDEST JUMPDEST PUSH2 0x17AC PUSH1 0xE0 PUSH2 0x2801 JUMP JUMPDEST SWAP1 POP PUSH1 0x0 DUP3 ADD MLOAD PUSH8 0xFFFFFFFFFFFFFFFF DUP2 GT ISZERO PUSH2 0x17CC JUMPI PUSH2 0x17CB PUSH2 0x2C6E JUMP JUMPDEST JUMPDEST PUSH2 0x17D8 DUP5 DUP3 DUP6 ADD PUSH2 0x1672 JUMP JUMPDEST PUSH1 0x0 DUP4 ADD MSTORE POP PUSH1 0x20 PUSH2 0x17EC DUP5 DUP3 DUP6 ADD PUSH2 0x1FB5 JUMP JUMPDEST PUSH1 0x20 DUP4 ADD MSTORE POP PUSH1 0x40 PUSH2 0x1800 DUP5 DUP3 DUP6 ADD PUSH2 0x1FB5 JUMP JUMPDEST PUSH1 0x40 DUP4 ADD MSTORE POP PUSH1 0x60 PUSH2 0x1814 DUP5 DUP3 DUP6 ADD PUSH2 0x1FB5 JUMP JUMPDEST PUSH1 0x60 DUP4 ADD MSTORE POP PUSH1 0x80 PUSH2 0x1828 DUP5 DUP3 DUP6 ADD PUSH2 0x1FB5 JUMP JUMPDEST PUSH1 0x80 DUP4 ADD MSTORE POP PUSH1 0xA0 PUSH2 0x183C DUP5 DUP3 DUP6 ADD PUSH2 0x1FB5 JUMP JUMPDEST PUSH1 0xA0 DUP4 ADD MSTORE POP PUSH1 0xC0 DUP3 ADD MLOAD PUSH8 0xFFFFFFFFFFFFFFFF DUP2 GT ISZERO PUSH2 0x1860 JUMPI PUSH2 0x185F PUSH2 0x2C6E JUMP JUMPDEST JUMPDEST PUSH2 0x186C DUP5 DUP3 DUP6 ADD PUSH2 0x1672 JUMP JUMPDEST PUSH1 0xC0 DUP4 ADD MSTORE POP SWAP3 SWAP2 POP POP JUMP JUMPDEST PUSH1 0x0 PUSH2 0x1E0 DUP3 DUP5 SUB SLT ISZERO PUSH2 0x188F JUMPI PUSH2 0x188E PUSH2 0x2C69 JUMP JUMPDEST JUMPDEST PUSH2 0x189A PUSH2 0x1E0 PUSH2 0x2801 JUMP JUMPDEST SWAP1 POP PUSH1 0x0 PUSH2 0x18AA DUP5 DUP3 DUP6 ADD PUSH2 0x1FA0 JUMP JUMPDEST PUSH1 0x0 DUP4 ADD MSTORE POP PUSH1 0x20 DUP3 ADD CALLDATALOAD PUSH8 0xFFFFFFFFFFFFFFFF DUP2 GT ISZERO PUSH2 0x18CE JUMPI PUSH2 0x18CD PUSH2 0x2C6E JUMP JUMPDEST JUMPDEST PUSH2 0x18DA DUP5 DUP3 DUP6 ADD PUSH2 0x1644 JUMP JUMPDEST PUSH1 0x20 DUP4 ADD MSTORE POP PUSH1 0x40 DUP3 ADD CALLDATALOAD PUSH8 0xFFFFFFFFFFFFFFFF DUP2 GT ISZERO PUSH2 0x18FE JUMPI PUSH2 0x18FD PUSH2 0x2C6E JUMP JUMPDEST JUMPDEST PUSH2 0x190A DUP5 DUP3 DUP6 ADD PUSH2 0x1644 JUMP JUMPDEST PUSH1 0x40 DUP4 ADD MSTORE POP PUSH1 0x60 PUSH2 0x191E DUP5 DUP3 DUP6 ADD PUSH2 0x1FA0 JUMP JUMPDEST PUSH1 0x60 DUP4 ADD MSTORE POP PUSH1 0x80 DUP3 ADD CALLDATALOAD PUSH8 0xFFFFFFFFFFFFFFFF DUP2 GT ISZERO PUSH2 0x1942 JUMPI PUSH2 0x1941 PUSH2 0x2C6E JUMP JUMPDEST JUMPDEST PUSH2 0x194E DUP5 DUP3 DUP6 ADD PUSH2 0x1644 JUMP JUMPDEST PUSH1 0x80 DUP4 ADD MSTORE POP PUSH1 0xA0 DUP3 ADD CALLDATALOAD PUSH8 0xFFFFFFFFFFFFFFFF DUP2 GT ISZERO PUSH2 0x1972 JUMPI PUSH2 0x1971 PUSH2 0x2C6E JUMP JUMPDEST JUMPDEST PUSH2 0x197E DUP5 DUP3 DUP6 ADD PUSH2 0x1644 JUMP JUMPDEST PUSH1 0xA0 DUP4 ADD MSTORE POP PUSH1 0xC0 DUP3 ADD CALLDATALOAD PUSH8 0xFFFFFFFFFFFFFFFF DUP2 GT ISZERO PUSH2 0x19A2 JUMPI PUSH2 0x19A1 PUSH2 0x2C6E JUMP JUMPDEST JUMPDEST PUSH2 0x19AE DUP5 DUP3 DUP6 ADD PUSH2 0x1484 JUMP JUMPDEST PUSH1 0xC0 DUP4 ADD MSTORE POP PUSH1 0xE0 PUSH2 0x19C2 DUP5 DUP3 DUP6 ADD PUSH2 0x1FA0 JUMP JUMPDEST PUSH1 0xE0 DUP4 ADD MSTORE POP PUSH2 0x100 PUSH2 0x19D7 DUP5 DUP3 DUP6 ADD PUSH2 0x1FA0 JUMP JUMPDEST PUSH2 0x100 DUP4 ADD MSTORE POP PUSH2 0x120 PUSH2 0x19ED DUP5 DUP3 DUP6 ADD PUSH2 0x15C6 JUMP JUMPDEST PUSH2 0x120 DUP4 ADD MSTORE POP PUSH2 0x140 PUSH2 0x1A03 DUP5 DUP3 DUP6 ADD PUSH2 0x15C6 JUMP JUMPDEST PUSH2 0x140 DUP4 ADD MSTORE POP PUSH2 0x160 PUSH2 0x1A19 DUP5 DUP3 DUP6 ADD PUSH2 0x1FA0 JUMP JUMPDEST PUSH2 0x160 DUP4 ADD MSTORE POP PUSH2 0x180 DUP3 ADD CALLDATALOAD PUSH8 0xFFFFFFFFFFFFFFFF DUP2 GT ISZERO PUSH2 0x1A3F JUMPI PUSH2 0x1A3E PUSH2 0x2C6E JUMP JUMPDEST JUMPDEST PUSH2 0x1A4B DUP5 DUP3 DUP6 ADD PUSH2 0x14E0 JUMP JUMPDEST PUSH2 0x180 DUP4 ADD MSTORE POP PUSH2 0x1A0 PUSH2 0x1A61 DUP5 DUP3 DUP6 ADD PUSH2 0x1FA0 JUMP JUMPDEST PUSH2 0x1A0 DUP4 ADD MSTORE POP PUSH2 0x1C0 PUSH2 0x1A77 DUP5 DUP3 DUP6 ADD PUSH2 0x1FA0 JUMP JUMPDEST PUSH2 0x1C0 DUP4 ADD MSTORE POP SWAP3 SWAP2 POP POP JUMP JUMPDEST PUSH1 0x0 PUSH1 0xA0 DUP3 DUP5 SUB SLT ISZERO PUSH2 0x1A9A JUMPI PUSH2 0x1A99 PUSH2 0x2C69 JUMP JUMPDEST JUMPDEST PUSH2 0x1AA4 PUSH1 0xA0 PUSH2 0x2801 JUMP JUMPDEST SWAP1 POP PUSH1 0x0 DUP3 ADD CALLDATALOAD PUSH8 0xFFFFFFFFFFFFFFFF DUP2 GT ISZERO PUSH2 0x1AC4 JUMPI PUSH2 0x1AC3 PUSH2 0x2C6E JUMP JUMPDEST JUMPDEST PUSH2 0x1AD0 DUP5 DUP3 DUP6 ADD PUSH2 0x16A0 JUMP JUMPDEST PUSH1 0x0 DUP4 ADD MSTORE POP PUSH1 0x20 PUSH2 0x1AE4 DUP5 DUP3 DUP6 ADD PUSH2 0x1FA0 JUMP JUMPDEST PUSH1 0x20 DUP4 ADD MSTORE POP PUSH1 0x40 DUP3 ADD CALLDATALOAD PUSH8 0xFFFFFFFFFFFFFFFF DUP2 GT ISZERO PUSH2 0x1B08 JUMPI PUSH2 0x1B07 PUSH2 0x2C6E JUMP JUMPDEST JUMPDEST PUSH2 0x1B14 DUP5 DUP3 DUP6 ADD PUSH2 0x1644 JUMP JUMPDEST PUSH1 0x40 DUP4 ADD MSTORE POP PUSH1 0x60 PUSH2 0x1B28 DUP5 DUP3 DUP6 ADD PUSH2 0x15F0 JUMP JUMPDEST PUSH1 0x60 DUP4 ADD MSTORE POP PUSH1 0x80 PUSH2 0x1B3C DUP5 DUP3 DUP6 ADD PUSH2 0x1FA0 JUMP JUMPDEST PUSH1 0x80 DUP4 ADD MSTORE POP SWAP3 SWAP2 POP POP JUMP JUMPDEST PUSH1 0x0 PUSH1 0xA0 DUP3 DUP5 SUB SLT ISZERO PUSH2 0x1B5E JUMPI PUSH2 0x1B5D PUSH2 0x2C69 JUMP JUMPDEST JUMPDEST PUSH2 0x1B68 PUSH1 0xA0 PUSH2 0x2801 JUMP JUMPDEST SWAP1 POP PUSH1 0x0 DUP3 ADD MLOAD PUSH8 0xFFFFFFFFFFFFFFFF DUP2 GT ISZERO PUSH2 0x1B88 JUMPI PUSH2 0x1B87 PUSH2 0x2C6E JUMP JUMPDEST JUMPDEST PUSH2 0x1B94 DUP5 DUP3 DUP6 ADD PUSH2 0x178C JUMP JUMPDEST PUSH1 0x0 DUP4 ADD MSTORE POP PUSH1 0x20 PUSH2 0x1BA8 DUP5 DUP3 DUP6 ADD PUSH2 0x1FB5 JUMP JUMPDEST PUSH1 0x20 DUP4 ADD MSTORE POP PUSH1 0x40 DUP3 ADD MLOAD PUSH8 0xFFFFFFFFFFFFFFFF DUP2 GT ISZERO PUSH2 0x1BCC JUMPI PUSH2 0x1BCB PUSH2 0x2C6E JUMP JUMPDEST JUMPDEST PUSH2 0x1BD8 DUP5 DUP3 DUP6 ADD PUSH2 0x1672 JUMP JUMPDEST PUSH1 0x40 DUP4 ADD MSTORE POP PUSH1 0x60 PUSH2 0x1BEC DUP5 DUP3 DUP6 ADD PUSH2 0x1605 JUMP JUMPDEST PUSH1 0x60 DUP4 ADD MSTORE POP PUSH1 0x80 PUSH2 0x1C00 DUP5 DUP3 DUP6 ADD PUSH2 0x1FB5 JUMP JUMPDEST PUSH1 0x80 DUP4 ADD MSTORE POP SWAP3 SWAP2 POP POP JUMP JUMPDEST PUSH1 0x0 PUSH1 0x80 DUP3 DUP5 SUB SLT ISZERO PUSH2 0x1C22 JUMPI PUSH2 0x1C21 PUSH2 0x2C69 JUMP JUMPDEST JUMPDEST PUSH2 0x1C2C PUSH1 0x80 PUSH2 0x2801 JUMP JUMPDEST SWAP1 POP PUSH1 0x0 PUSH2 0x1C3C DUP5 DUP3 DUP6 ADD PUSH2 0x1441 JUMP JUMPDEST PUSH1 0x0 DUP4 ADD MSTORE POP PUSH1 0x20 DUP3 ADD MLOAD PUSH8 0xFFFFFFFFFFFFFFFF DUP2 GT ISZERO PUSH2 0x1C60 JUMPI PUSH2 0x1C5F PUSH2 0x2C6E JUMP JUMPDEST JUMPDEST PUSH2 0x1C6C DUP5 DUP3 DUP6 ADD PUSH2 0x1598 JUMP JUMPDEST PUSH1 0x20 DUP4 ADD MSTORE POP PUSH1 0x40 DUP3 ADD MLOAD PUSH8 0xFFFFFFFFFFFFFFFF DUP2 GT ISZERO PUSH2 0x1C90 JUMPI PUSH2 0x1C8F PUSH2 0x2C6E JUMP JUMPDEST JUMPDEST PUSH2 0x1C9C DUP5 DUP3 DUP6 ADD PUSH2 0x1456 JUMP JUMPDEST PUSH1 0x40 DUP4 ADD MSTORE POP PUSH1 0x60 DUP3 ADD MLOAD PUSH8 0xFFFFFFFFFFFFFFFF DUP2 GT ISZERO PUSH2 0x1CC0 JUMPI PUSH2 0x1CBF PUSH2 0x2C6E JUMP JUMPDEST JUMPDEST PUSH2 0x1CCC DUP5 DUP3 DUP6 ADD PUSH2 0x14B2 JUMP JUMPDEST PUSH1 0x60 DUP4 ADD MSTORE POP SWAP3 SWAP2 POP POP JUMP JUMPDEST PUSH1 0x0 PUSH2 0x2A0 DUP3 DUP5 SUB SLT ISZERO PUSH2 0x1CEF JUMPI PUSH2 0x1CEE PUSH2 0x2C69 JUMP JUMPDEST JUMPDEST PUSH2 0x1CFA PUSH2 0x2A0 PUSH2 0x2801 JUMP JUMPDEST SWAP1 POP PUSH1 0x0 PUSH2 0x1D0A DUP5 DUP3 DUP6 ADD PUSH2 0x1441 JUMP JUMPDEST PUSH1 0x0 DUP4 ADD MSTORE POP PUSH1 0x20 PUSH2 0x1D1E DUP5 DUP3 DUP6 ADD PUSH2 0x1FB5 JUMP JUMPDEST PUSH1 0x20 DUP4 ADD MSTORE POP PUSH1 0x40 DUP3 ADD MLOAD PUSH8 0xFFFFFFFFFFFFFFFF DUP2 GT ISZERO PUSH2 0x1D42 JUMPI PUSH2 0x1D41 PUSH2 0x2C6E JUMP JUMPDEST JUMPDEST PUSH2 0x1D4E DUP5 DUP3 DUP6 ADD PUSH2 0x1672 JUMP JUMPDEST PUSH1 0x40 DUP4 ADD MSTORE POP PUSH1 0x60 DUP3 ADD MLOAD PUSH8 0xFFFFFFFFFFFFFFFF DUP2 GT ISZERO PUSH2 0x1D72 JUMPI PUSH2 0x1D71 PUSH2 0x2C6E JUMP JUMPDEST JUMPDEST PUSH2 0x1D7E DUP5 DUP3 DUP6 ADD PUSH2 0x1672 JUMP JUMPDEST PUSH1 0x60 DUP4 ADD MSTORE POP PUSH1 0x80 PUSH2 0x1D92 DUP5 DUP3 DUP6 ADD PUSH2 0x1FB5 JUMP JUMPDEST PUSH1 0x80 DUP4 ADD MSTORE POP PUSH1 0xA0 DUP3 ADD MLOAD PUSH8 0xFFFFFFFFFFFFFFFF DUP2 GT ISZERO PUSH2 0x1DB6 JUMPI PUSH2 0x1DB5 PUSH2 0x2C6E JUMP JUMPDEST JUMPDEST PUSH2 0x1DC2 DUP5 DUP3 DUP6 ADD PUSH2 0x1672 JUMP JUMPDEST PUSH1 0xA0 DUP4 ADD MSTORE POP PUSH1 0xC0 DUP3 ADD MLOAD PUSH8 0xFFFFFFFFFFFFFFFF DUP2 GT ISZERO PUSH2 0x1DE6 JUMPI PUSH2 0x1DE5 PUSH2 0x2C6E JUMP JUMPDEST JUMPDEST PUSH2 0x1DF2 DUP5 DUP3 DUP6 ADD PUSH2 0x1672 JUMP JUMPDEST PUSH1 0xC0 DUP4 ADD MSTORE POP PUSH1 0xE0 DUP3 ADD MLOAD PUSH8 0xFFFFFFFFFFFFFFFF DUP2 GT ISZERO PUSH2 0x1E16 JUMPI PUSH2 0x1E15 PUSH2 0x2C6E JUMP JUMPDEST JUMPDEST PUSH2 0x1E22 DUP5 DUP3 DUP6 ADD PUSH2 0x14B2 JUMP JUMPDEST PUSH1 0xE0 DUP4 ADD MSTORE POP PUSH2 0x100 PUSH2 0x1E37 DUP5 DUP3 DUP6 ADD PUSH2 0x1FB5 JUMP JUMPDEST PUSH2 0x100 DUP4 ADD MSTORE POP PUSH2 0x120 PUSH2 0x1E4D DUP5 DUP3 DUP6 ADD PUSH2 0x1FB5 JUMP JUMPDEST PUSH2 0x120 DUP4 ADD MSTORE POP PUSH2 0x140 PUSH2 0x1E63 DUP5 DUP3 DUP6 ADD PUSH2 0x15DB JUMP JUMPDEST PUSH2 0x140 DUP4 ADD MSTORE POP PUSH2 0x160 PUSH2 0x1E79 DUP5 DUP3 DUP6 ADD PUSH2 0x15DB JUMP JUMPDEST PUSH2 0x160 DUP4 ADD MSTORE POP PUSH2 0x180 PUSH2 0x1E8F DUP5 DUP3 DUP6 ADD PUSH2 0x1FB5 JUMP JUMPDEST PUSH2 0x180 DUP4 ADD MSTORE POP PUSH2 0x1A0 DUP3 ADD MLOAD PUSH8 0xFFFFFFFFFFFFFFFF DUP2 GT ISZERO PUSH2 0x1EB5 JUMPI PUSH2 0x1EB4 PUSH2 0x2C6E JUMP JUMPDEST JUMPDEST PUSH2 0x1EC1 DUP5 DUP3 DUP6 ADD PUSH2 0x150E JUMP JUMPDEST PUSH2 0x1A0 DUP4 ADD MSTORE POP PUSH2 0x1C0 DUP3 ADD MLOAD PUSH8 0xFFFFFFFFFFFFFFFF DUP2 GT ISZERO PUSH2 0x1EE7 JUMPI PUSH2 0x1EE6 PUSH2 0x2C6E JUMP JUMPDEST JUMPDEST PUSH2 0x1EF3 DUP5 DUP3 DUP6 ADD PUSH2 0x153C JUMP JUMPDEST PUSH2 0x1C0 DUP4 ADD MSTORE POP PUSH2 0x1E0 DUP3 ADD MLOAD PUSH8 0xFFFFFFFFFFFFFFFF DUP2 GT ISZERO PUSH2 0x1F19 JUMPI PUSH2 0x1F18 PUSH2 0x2C6E JUMP JUMPDEST JUMPDEST PUSH2 0x1F25 DUP5 DUP3 DUP6 ADD PUSH2 0x153C JUMP JUMPDEST PUSH2 0x1E0 DUP4 ADD MSTORE POP PUSH2 0x200 PUSH2 0x1F3B DUP5 DUP3 DUP6 ADD PUSH2 0x1FB5 JUMP JUMPDEST PUSH2 0x200 DUP4 ADD MSTORE POP PUSH2 0x220 PUSH2 0x1F51 DUP5 DUP3 DUP6 ADD PUSH2 0x1FB5 JUMP JUMPDEST PUSH2 0x220 DUP4 ADD MSTORE POP PUSH2 0x240 PUSH2 0x1F67 DUP5 DUP3 DUP6 ADD PUSH2 0x15DB JUMP JUMPDEST PUSH2 0x240 DUP4 ADD MSTORE POP PUSH2 0x260 PUSH2 0x1F7D DUP5 DUP3 DUP6 ADD PUSH2 0x15DB JUMP JUMPDEST PUSH2 0x260 DUP4 ADD MSTORE POP PUSH2 0x280 PUSH2 0x1F93 DUP5 DUP3 DUP6 ADD PUSH2 0x161A JUMP JUMPDEST PUSH2 0x280 DUP4 ADD MSTORE POP SWAP3 SWAP2 POP POP JUMP JUMPDEST PUSH1 0x0 DUP2 CALLDATALOAD SWAP1 POP PUSH2 0x1FAF DUP2 PUSH2 0x2D1E JUMP JUMPDEST SWAP3 SWAP2 POP POP JUMP JUMPDEST PUSH1 0x0 DUP2 MLOAD SWAP1 POP PUSH2 0x1FC4 DUP2 PUSH2 0x2D1E JUMP JUMPDEST SWAP3 SWAP2 POP POP JUMP JUMPDEST PUSH1 0x0 PUSH1 0x20 DUP3 DUP5 SUB SLT ISZERO PUSH2 0x1FE0 JUMPI PUSH2 0x1FDF PUSH2 0x2C82 JUMP JUMPDEST JUMPDEST PUSH1 0x0 PUSH2 0x1FEE DUP5 DUP3 DUP6 ADD PUSH2 0x15DB JUMP JUMPDEST SWAP2 POP POP SWAP3 SWAP2 POP POP JUMP JUMPDEST PUSH1 0x0 PUSH1 0x20 DUP3 DUP5 SUB SLT ISZERO PUSH2 0x200D JUMPI PUSH2 0x200C PUSH2 0x2C82 JUMP JUMPDEST JUMPDEST PUSH1 0x0 DUP3 ADD CALLDATALOAD PUSH8 0xFFFFFFFFFFFFFFFF DUP2 GT ISZERO PUSH2 0x202B JUMPI PUSH2 0x202A PUSH2 0x2C7D JUMP JUMPDEST JUMPDEST PUSH2 0x2037 DUP5 DUP3 DUP6 ADD PUSH2 0x1878 JUMP JUMPDEST SWAP2 POP POP SWAP3 SWAP2 POP POP JUMP JUMPDEST PUSH1 0x0 PUSH1 0x20 DUP3 DUP5 SUB SLT ISZERO PUSH2 0x2056 JUMPI PUSH2 0x2055 PUSH2 0x2C82 JUMP JUMPDEST JUMPDEST PUSH1 0x0 DUP3 ADD MLOAD PUSH8 0xFFFFFFFFFFFFFFFF DUP2 GT ISZERO PUSH2 0x2074 JUMPI PUSH2 0x2073 PUSH2 0x2C7D JUMP JUMPDEST JUMPDEST PUSH2 0x2080 DUP5 DUP3 DUP6 ADD PUSH2 0x1CD8 JUMP JUMPDEST SWAP2 POP POP SWAP3 SWAP2 POP POP JUMP JUMPDEST PUSH1 0x0 PUSH1 0x20 DUP3 DUP5 SUB SLT ISZERO PUSH2 0x209F JUMPI PUSH2 0x209E PUSH2 0x2C82 JUMP JUMPDEST JUMPDEST PUSH1 0x0 PUSH2 0x20AD DUP5 DUP3 DUP6 ADD PUSH2 0x1FA0 JUMP JUMPDEST SWAP2 POP POP SWAP3 SWAP2 POP POP JUMP JUMPDEST PUSH1 0x0 PUSH1 0x20 DUP3 DUP5 SUB SLT ISZERO PUSH2 0x20CC JUMPI PUSH2 0x20CB PUSH2 0x2C82 JUMP JUMPDEST JUMPDEST PUSH1 0x0 PUSH2 0x20DA DUP5 DUP3 DUP6 ADD PUSH2 0x1FB5 JUMP JUMPDEST SWAP2 POP POP SWAP3 SWAP2 POP POP JUMP JUMPDEST PUSH1 0x0 DUP1 PUSH1 0x0 PUSH1 0x60 DUP5 DUP7 SUB SLT ISZERO PUSH2 0x20FC JUMPI PUSH2 0x20FB PUSH2 0x2C82 JUMP JUMPDEST JUMPDEST PUSH1 0x0 PUSH2 0x210A DUP7 DUP3 DUP8 ADD PUSH2 0x1FA0 JUMP JUMPDEST SWAP4 POP POP PUSH1 0x20 DUP5 ADD CALLDATALOAD PUSH8 0xFFFFFFFFFFFFFFFF DUP2 GT ISZERO PUSH2 0x212B JUMPI PUSH2 0x212A PUSH2 0x2C7D JUMP JUMPDEST JUMPDEST PUSH2 0x2137 DUP7 DUP3 DUP8 ADD PUSH2 0x156A JUMP JUMPDEST SWAP3 POP POP PUSH1 0x40 PUSH2 0x2148 DUP7 DUP3 DUP8 ADD PUSH2 0x1FA0 JUMP JUMPDEST SWAP2 POP POP SWAP3 POP SWAP3 POP SWAP3 JUMP JUMPDEST PUSH1 0x0 DUP1 PUSH1 0x40 DUP4 DUP6 SUB SLT ISZERO PUSH2 0x2169 JUMPI PUSH2 0x2168 PUSH2 0x2C82 JUMP JUMPDEST JUMPDEST PUSH1 0x0 PUSH2 0x2177 DUP6 DUP3 DUP7 ADD PUSH2 0x1FA0 JUMP JUMPDEST SWAP3 POP POP PUSH1 0x20 DUP4 ADD CALLDATALOAD PUSH8 0xFFFFFFFFFFFFFFFF DUP2 GT ISZERO PUSH2 0x2198 JUMPI PUSH2 0x2197 PUSH2 0x2C7D JUMP JUMPDEST JUMPDEST PUSH2 0x21A4 DUP6 DUP3 DUP7 ADD PUSH2 0x1878 JUMP JUMPDEST SWAP2 POP POP SWAP3 POP SWAP3 SWAP1 POP JUMP JUMPDEST PUSH1 0x0 DUP1 PUSH1 0x0 PUSH1 0x60 DUP5 DUP7 SUB SLT ISZERO PUSH2 0x21C7 JUMPI PUSH2 0x21C6 PUSH2 0x2C82 JUMP JUMPDEST JUMPDEST PUSH1 0x0 PUSH2 0x21D5 DUP7 DUP3 DUP8 ADD PUSH2 0x1FA0 JUMP JUMPDEST SWAP4 POP POP PUSH1 0x20 PUSH2 0x21E6 DUP7 DUP3 DUP8 ADD PUSH2 0x1FA0 JUMP JUMPDEST SWAP3 POP POP PUSH1 0x40 PUSH2 0x21F7 DUP7 DUP3 DUP8 ADD PUSH2 0x1FA0 JUMP JUMPDEST SWAP2 POP POP SWAP3 POP SWAP3 POP SWAP3 JUMP JUMPDEST PUSH1 0x0 PUSH2 0x220D DUP4 DUP4 PUSH2 0x23D4 JUMP JUMPDEST SWAP1 POP SWAP3 SWAP2 POP POP JUMP JUMPDEST PUSH1 0x0 PUSH2 0x2221 DUP4 DUP4 PUSH2 0x2616 JUMP JUMPDEST SWAP1 POP SWAP3 SWAP2 POP POP JUMP JUMPDEST PUSH1 0x0 PUSH2 0x2235 DUP4 DUP4 PUSH2 0x2693 JUMP JUMPDEST PUSH1 0x20 DUP4 ADD SWAP1 POP SWAP3 SWAP2 POP POP JUMP JUMPDEST PUSH2 0x224A DUP2 PUSH2 0x2A2B JUMP JUMPDEST DUP3 MSTORE POP POP JUMP JUMPDEST PUSH1 0x0 PUSH2 0x225B DUP3 PUSH2 0x2963 JUMP JUMPDEST PUSH2 0x2265 DUP2 DUP6 PUSH2 0x29B6 JUMP JUMPDEST SWAP4 POP DUP4 PUSH1 0x20 DUP3 MUL DUP6 ADD PUSH2 0x2277 DUP6 PUSH2 0x2933 JUMP JUMPDEST DUP1 PUSH1 0x0 JUMPDEST DUP6 DUP2 LT ISZERO PUSH2 0x22B3 JUMPI DUP5 DUP5 SUB DUP10 MSTORE DUP2 MLOAD PUSH2 0x2294 DUP6 DUP3 PUSH2 0x2201 JUMP JUMPDEST SWAP5 POP PUSH2 0x229F DUP4 PUSH2 0x298F JUMP JUMPDEST SWAP3 POP PUSH1 0x20 DUP11 ADD SWAP10 POP POP PUSH1 0x1 DUP2 ADD SWAP1 POP PUSH2 0x227B JUMP JUMPDEST POP DUP3 SWAP8 POP DUP8 SWAP6 POP POP POP POP POP POP SWAP3 SWAP2 POP POP JUMP JUMPDEST PUSH1 0x0 PUSH2 0x22D0 DUP3 PUSH2 0x296E JUMP JUMPDEST PUSH2 0x22DA DUP2 DUP6 PUSH2 0x29C7 JUMP JUMPDEST SWAP4 POP DUP4 PUSH1 0x20 DUP3 MUL DUP6 ADD PUSH2 0x22EC DUP6 PUSH2 0x2943 JUMP JUMPDEST DUP1 PUSH1 0x0 JUMPDEST DUP6 DUP2 LT ISZERO PUSH2 0x2328 JUMPI DUP5 DUP5 SUB DUP10 MSTORE DUP2 MLOAD PUSH2 0x2309 DUP6 DUP3 PUSH2 0x2215 JUMP JUMPDEST SWAP5 POP PUSH2 0x2314 DUP4 PUSH2 0x299C JUMP JUMPDEST SWAP3 POP PUSH1 0x20 DUP11 ADD SWAP10 POP POP PUSH1 0x1 DUP2 ADD SWAP1 POP PUSH2 0x22F0 JUMP JUMPDEST POP DUP3 SWAP8 POP DUP8 SWAP6 POP POP POP POP POP POP SWAP3 SWAP2 POP POP JUMP JUMPDEST PUSH1 0x0 PUSH2 0x2345 DUP3 PUSH2 0x2979 JUMP JUMPDEST PUSH2 0x234F DUP2 DUP6 PUSH2 0x29D8 JUMP JUMPDEST SWAP4 POP PUSH2 0x235A DUP4 PUSH2 0x2953 JUMP JUMPDEST DUP1 PUSH1 0x0 JUMPDEST DUP4 DUP2 LT ISZERO PUSH2 0x238B JUMPI DUP2 MLOAD PUSH2 0x2372 DUP9 DUP3 PUSH2 0x2229 JUMP JUMPDEST SWAP8 POP PUSH2 0x237D DUP4 PUSH2 0x29A9 JUMP JUMPDEST SWAP3 POP POP PUSH1 0x1 DUP2 ADD SWAP1 POP PUSH2 0x235E JUMP JUMPDEST POP DUP6 SWAP4 POP POP POP POP SWAP3 SWAP2 POP POP JUMP JUMPDEST PUSH2 0x23A1 DUP2 PUSH2 0x2A3D JUMP JUMPDEST DUP3 MSTORE POP POP JUMP JUMPDEST PUSH2 0x23B0 DUP2 PUSH2 0x2A3D JUMP JUMPDEST DUP3 MSTORE POP POP JUMP JUMPDEST PUSH2 0x23BF DUP2 PUSH2 0x2A99 JUMP JUMPDEST DUP3 MSTORE POP POP JUMP JUMPDEST PUSH2 0x23CE DUP2 PUSH2 0x2AAB JUMP JUMPDEST DUP3 MSTORE POP POP JUMP JUMPDEST PUSH1 0x0 PUSH2 0x23DF DUP3 PUSH2 0x2984 JUMP JUMPDEST PUSH2 0x23E9 DUP2 DUP6 PUSH2 0x29E9 JUMP JUMPDEST SWAP4 POP PUSH2 0x23F9 DUP2 DUP6 PUSH1 0x20 DUP7 ADD PUSH2 0x2ACC JUMP JUMPDEST PUSH2 0x2402 DUP2 PUSH2 0x2C87 JUMP JUMPDEST DUP5 ADD SWAP2 POP POP SWAP3 SWAP2 POP POP JUMP JUMPDEST PUSH1 0x0 PUSH1 0xE0 DUP4 ADD PUSH1 0x0 DUP4 ADD MLOAD DUP5 DUP3 SUB PUSH1 0x0 DUP7 ADD MSTORE PUSH2 0x242A DUP3 DUP3 PUSH2 0x23D4 JUMP JUMPDEST SWAP2 POP POP PUSH1 0x20 DUP4 ADD MLOAD PUSH2 0x243F PUSH1 0x20 DUP7 ADD DUP3 PUSH2 0x2693 JUMP JUMPDEST POP PUSH1 0x40 DUP4 ADD MLOAD PUSH2 0x2452 PUSH1 0x40 DUP7 ADD DUP3 PUSH2 0x2693 JUMP JUMPDEST POP PUSH1 0x60 DUP4 ADD MLOAD PUSH2 0x2465 PUSH1 0x60 DUP7 ADD DUP3 PUSH2 0x2693 JUMP JUMPDEST POP PUSH1 0x80 DUP4 ADD MLOAD PUSH2 0x2478 PUSH1 0x80 DUP7 ADD DUP3 PUSH2 0x2693 JUMP JUMPDEST POP PUSH1 0xA0 DUP4 ADD MLOAD PUSH2 0x248B PUSH1 0xA0 DUP7 ADD DUP3 PUSH2 0x2693 JUMP JUMPDEST POP PUSH1 0xC0 DUP4 ADD MLOAD DUP5 DUP3 SUB PUSH1 0xC0 DUP7 ADD MSTORE PUSH2 0x24A3 DUP3 DUP3 PUSH2 0x23D4 JUMP JUMPDEST SWAP2 POP POP DUP1 SWAP2 POP POP SWAP3 SWAP2 POP POP JUMP JUMPDEST PUSH1 0x0 PUSH2 0x1E0 DUP4 ADD PUSH1 0x0 DUP4 ADD MLOAD PUSH2 0x24C9 PUSH1 0x0 DUP7 ADD DUP3 PUSH2 0x2693 JUMP JUMPDEST POP PUSH1 0x20 DUP4 ADD MLOAD DUP5 DUP3 SUB PUSH1 0x20 DUP7 ADD MSTORE PUSH2 0x24E1 DUP3 DUP3 PUSH2 0x23D4 JUMP JUMPDEST SWAP2 POP POP PUSH1 0x40 DUP4 ADD MLOAD DUP5 DUP3 SUB PUSH1 0x40 DUP7 ADD MSTORE PUSH2 0x24FB DUP3 DUP3 PUSH2 0x23D4 JUMP JUMPDEST SWAP2 POP POP PUSH1 0x60 DUP4 ADD MLOAD PUSH2 0x2510 PUSH1 0x60 DUP7 ADD DUP3 PUSH2 0x2693 JUMP JUMPDEST POP PUSH1 0x80 DUP4 ADD MLOAD DUP5 DUP3 SUB PUSH1 0x80 DUP7 ADD MSTORE PUSH2 0x2528 DUP3 DUP3 PUSH2 0x23D4 JUMP JUMPDEST SWAP2 POP POP PUSH1 0xA0 DUP4 ADD MLOAD DUP5 DUP3 SUB PUSH1 0xA0 DUP7 ADD MSTORE PUSH2 0x2542 DUP3 DUP3 PUSH2 0x23D4 JUMP JUMPDEST SWAP2 POP POP PUSH1 0xC0 DUP4 ADD MLOAD DUP5 DUP3 SUB PUSH1 0xC0 DUP7 ADD MSTORE PUSH2 0x255C DUP3 DUP3 PUSH2 0x2250 JUMP JUMPDEST SWAP2 POP POP PUSH1 0xE0 DUP4 ADD MLOAD PUSH2 0x2571 PUSH1 0xE0 DUP7 ADD DUP3 PUSH2 0x2693 JUMP JUMPDEST POP PUSH2 0x100 DUP4 ADD MLOAD PUSH2 0x2586 PUSH2 0x100 DUP7 ADD DUP3 PUSH2 0x2693 JUMP JUMPDEST POP PUSH2 0x120 DUP4 ADD MLOAD PUSH2 0x259B PUSH2 0x120 DUP7 ADD DUP3 PUSH2 0x2398 JUMP JUMPDEST POP PUSH2 0x140 DUP4 ADD MLOAD PUSH2 0x25B0 PUSH2 0x140 DUP7 ADD DUP3 PUSH2 0x2398 JUMP JUMPDEST POP PUSH2 0x160 DUP4 ADD MLOAD PUSH2 0x25C5 PUSH2 0x160 DUP7 ADD DUP3 PUSH2 0x2693 JUMP JUMPDEST POP PUSH2 0x180 DUP4 ADD MLOAD DUP5 DUP3 SUB PUSH2 0x180 DUP7 ADD MSTORE PUSH2 0x25DF DUP3 DUP3 PUSH2 0x22C5 JUMP JUMPDEST SWAP2 POP POP PUSH2 0x1A0 DUP4 ADD MLOAD PUSH2 0x25F6 PUSH2 0x1A0 DUP7 ADD DUP3 PUSH2 0x2693 JUMP JUMPDEST POP PUSH2 0x1C0 DUP4 ADD MLOAD PUSH2 0x260B PUSH2 0x1C0 DUP7 ADD DUP3 PUSH2 0x2693 JUMP JUMPDEST POP DUP1 SWAP2 POP POP SWAP3 SWAP2 POP POP JUMP JUMPDEST PUSH1 0x0 PUSH1 0xA0 DUP4 ADD PUSH1 0x0 DUP4 ADD MLOAD DUP5 DUP3 SUB PUSH1 0x0 DUP7 ADD MSTORE PUSH2 0x2633 DUP3 DUP3 PUSH2 0x240D JUMP JUMPDEST SWAP2 POP POP PUSH1 0x20 DUP4 ADD MLOAD PUSH2 0x2648 PUSH1 0x20 DUP7 ADD DUP3 PUSH2 0x2693 JUMP JUMPDEST POP PUSH1 0x40 DUP4 ADD MLOAD DUP5 DUP3 SUB PUSH1 0x40 DUP7 ADD MSTORE PUSH2 0x2660 DUP3 DUP3 PUSH2 0x23D4 JUMP JUMPDEST SWAP2 POP POP PUSH1 0x60 DUP4 ADD MLOAD PUSH2 0x2675 PUSH1 0x60 DUP7 ADD DUP3 PUSH2 0x23B6 JUMP JUMPDEST POP PUSH1 0x80 DUP4 ADD MLOAD PUSH2 0x2688 PUSH1 0x80 DUP7 ADD DUP3 PUSH2 0x2693 JUMP JUMPDEST POP DUP1 SWAP2 POP POP SWAP3 SWAP2 POP POP JUMP JUMPDEST PUSH2 0x269C DUP2 PUSH2 0x2A8F JUMP JUMPDEST DUP3 MSTORE POP POP JUMP JUMPDEST PUSH2 0x26AB DUP2 PUSH2 0x2A8F JUMP JUMPDEST DUP3 MSTORE POP POP JUMP JUMPDEST PUSH1 0x0 PUSH1 0x20 DUP3 ADD SWAP1 POP DUP2 DUP2 SUB PUSH1 0x0 DUP4 ADD MSTORE PUSH2 0x26CB DUP2 DUP5 PUSH2 0x24B0 JUMP JUMPDEST SWAP1 POP SWAP3 SWAP2 POP POP JUMP JUMPDEST PUSH1 0x0 PUSH1 0x20 DUP3 ADD SWAP1 POP PUSH2 0x26E8 PUSH1 0x0 DUP4 ADD DUP5 PUSH2 0x26A2 JUMP JUMPDEST SWAP3 SWAP2 POP POP JUMP JUMPDEST PUSH1 0x0 PUSH1 0x80 DUP3 ADD SWAP1 POP PUSH2 0x2703 PUSH1 0x0 DUP4 ADD DUP8 PUSH2 0x26A2 JUMP JUMPDEST DUP2 DUP2 SUB PUSH1 0x20 DUP4 ADD MSTORE PUSH2 0x2715 DUP2 DUP7 PUSH2 0x233A JUMP JUMPDEST SWAP1 POP PUSH2 0x2724 PUSH1 0x40 DUP4 ADD DUP6 PUSH2 0x26A2 JUMP JUMPDEST PUSH2 0x2731 PUSH1 0x60 DUP4 ADD DUP5 PUSH2 0x2241 JUMP JUMPDEST SWAP6 SWAP5 POP POP POP POP POP JUMP JUMPDEST PUSH1 0x0 PUSH1 0x40 DUP3 ADD SWAP1 POP PUSH2 0x274F PUSH1 0x0 DUP4 ADD DUP6 PUSH2 0x26A2 JUMP JUMPDEST PUSH2 0x275C PUSH1 0x20 DUP4 ADD DUP5 PUSH2 0x23A7 JUMP JUMPDEST SWAP4 SWAP3 POP POP POP JUMP JUMPDEST PUSH1 0x0 PUSH1 0x40 DUP3 ADD SWAP1 POP PUSH2 0x2778 PUSH1 0x0 DUP4 ADD DUP6 PUSH2 0x26A2 JUMP JUMPDEST PUSH2 0x2785 PUSH1 0x20 DUP4 ADD DUP5 PUSH2 0x23C5 JUMP JUMPDEST SWAP4 SWAP3 POP POP POP JUMP JUMPDEST PUSH1 0x0 PUSH1 0x40 DUP3 ADD SWAP1 POP PUSH2 0x27A1 PUSH1 0x0 DUP4 ADD DUP6 PUSH2 0x26A2 JUMP JUMPDEST DUP2 DUP2 SUB PUSH1 0x20 DUP4 ADD MSTORE PUSH2 0x27B3 DUP2 DUP5 PUSH2 0x24B0 JUMP JUMPDEST SWAP1 POP SWAP4 SWAP3 POP POP POP JUMP JUMPDEST PUSH1 0x0 PUSH1 0x80 DUP3 ADD SWAP1 POP PUSH2 0x27D1 PUSH1 0x0 DUP4 ADD DUP8 PUSH2 0x26A2 JUMP JUMPDEST PUSH2 0x27DE PUSH1 0x20 DUP4 ADD DUP7 PUSH2 0x26A2 JUMP JUMPDEST PUSH2 0x27EB PUSH1 0x40 DUP4 ADD DUP6 PUSH2 0x26A2 JUMP JUMPDEST PUSH2 0x27F8 PUSH1 0x60 DUP4 ADD DUP5 PUSH2 0x2241 JUMP JUMPDEST SWAP6 SWAP5 POP POP POP POP POP JUMP JUMPDEST PUSH1 0x0 PUSH2 0x280B PUSH2 0x281C JUMP JUMPDEST SWAP1 POP PUSH2 0x2817 DUP3 DUP3 PUSH2 0x2AFF JUMP JUMPDEST SWAP2 SWAP1 POP JUMP JUMPDEST PUSH1 0x0 PUSH1 0x40 MLOAD SWAP1 POP SWAP1 JUMP JUMPDEST PUSH1 0x0 PUSH8 0xFFFFFFFFFFFFFFFF DUP3 GT ISZERO PUSH2 0x2841 JUMPI PUSH2 0x2840 PUSH2 0x2C35 JUMP JUMPDEST JUMPDEST PUSH1 0x20 DUP3 MUL SWAP1 POP PUSH1 0x20 DUP2 ADD SWAP1 POP SWAP2 SWAP1 POP JUMP JUMPDEST PUSH1 0x0 PUSH8 0xFFFFFFFFFFFFFFFF DUP3 GT ISZERO PUSH2 0x286D JUMPI PUSH2 0x286C PUSH2 0x2C35 JUMP JUMPDEST JUMPDEST PUSH1 0x20 DUP3 MUL SWAP1 POP PUSH1 0x20 DUP2 ADD SWAP1 POP SWAP2 SWAP1 POP JUMP JUMPDEST PUSH1 0x0 PUSH8 0xFFFFFFFFFFFFFFFF DUP3 GT ISZERO PUSH2 0x2899 JUMPI PUSH2 0x2898 PUSH2 0x2C35 JUMP JUMPDEST JUMPDEST PUSH1 0x20 DUP3 MUL SWAP1 POP PUSH1 0x20 DUP2 ADD SWAP1 POP SWAP2 SWAP1 POP JUMP JUMPDEST PUSH1 0x0 PUSH8 0xFFFFFFFFFFFFFFFF DUP3 GT ISZERO PUSH2 0x28C5 JUMPI PUSH2 0x28C4 PUSH2 0x2C35 JUMP JUMPDEST JUMPDEST PUSH1 0x20 DUP3 MUL SWAP1 POP PUSH1 0x20 DUP2 ADD SWAP1 POP SWAP2 SWAP1 POP JUMP JUMPDEST PUSH1 0x0 PUSH8 0xFFFFFFFFFFFFFFFF DUP3 GT ISZERO PUSH2 0x28F1 JUMPI PUSH2 0x28F0 PUSH2 0x2C35 JUMP JUMPDEST JUMPDEST PUSH1 0x20 DUP3 MUL SWAP1 POP PUSH1 0x20 DUP2 ADD SWAP1 POP SWAP2 SWAP1 POP JUMP JUMPDEST PUSH1 0x0 PUSH8 0xFFFFFFFFFFFFFFFF DUP3 GT ISZERO PUSH2 0x291D JUMPI PUSH2 0x291C PUSH2 0x2C35 JUMP JUMPDEST JUMPDEST PUSH2 0x2926 DUP3 PUSH2 0x2C87 JUMP JUMPDEST SWAP1 POP PUSH1 0x20 DUP2 ADD SWAP1 POP SWAP2 SWAP1 POP JUMP JUMPDEST PUSH1 0x0 DUP2 SWAP1 POP PUSH1 0x20 DUP3 ADD SWAP1 POP SWAP2 SWAP1 POP JUMP JUMPDEST PUSH1 0x0 DUP2 SWAP1 POP PUSH1 0x20 DUP3 ADD SWAP1 POP SWAP2 SWAP1 POP JUMP JUMPDEST PUSH1 0x0 DUP2 SWAP1 POP PUSH1 0x20 DUP3 ADD SWAP1 POP SWAP2 SWAP1 POP JUMP JUMPDEST PUSH1 0x0 DUP2 MLOAD SWAP1 POP SWAP2 SWAP1 POP JUMP JUMPDEST PUSH1 0x0 DUP2 MLOAD SWAP1 POP SWAP2 SWAP1 POP JUMP JUMPDEST PUSH1 0x0 DUP2 MLOAD SWAP1 POP SWAP2 SWAP1 POP JUMP JUMPDEST PUSH1 0x0 DUP2 MLOAD SWAP1 POP SWAP2 SWAP1 POP JUMP JUMPDEST PUSH1 0x0 PUSH1 0x20 DUP3 ADD SWAP1 POP SWAP2 SWAP1 POP JUMP JUMPDEST PUSH1 0x0 PUSH1 0x20 DUP3 ADD SWAP1 POP SWAP2 SWAP1 POP JUMP JUMPDEST PUSH1 0x0 PUSH1 0x20 DUP3 ADD SWAP1 POP SWAP2 SWAP1 POP JUMP JUMPDEST PUSH1 0x0 DUP3 DUP3 MSTORE PUSH1 0x20 DUP3 ADD SWAP1 POP SWAP3 SWAP2 POP POP JUMP JUMPDEST PUSH1 0x0 DUP3 DUP3 MSTORE PUSH1 0x20 DUP3 ADD SWAP1 POP SWAP3 SWAP2 POP POP JUMP JUMPDEST PUSH1 0x0 DUP3 DUP3 MSTORE PUSH1 0x20 DUP3 ADD SWAP1 POP SWAP3 SWAP2 POP POP JUMP JUMPDEST PUSH1 0x0 DUP3 DUP3 MSTORE PUSH1 0x20 DUP3 ADD SWAP1 POP SWAP3 SWAP2 POP POP JUMP JUMPDEST PUSH1 0x0 PUSH2 0x2A05 DUP3 PUSH2 0x2A8F JUMP JUMPDEST SWAP2 POP PUSH2 0x2A10 DUP4 PUSH2 0x2A8F JUMP JUMPDEST SWAP3 POP DUP3 PUSH2 0x2A20 JUMPI PUSH2 0x2A1F PUSH2 0x2BA8 JUMP JUMPDEST JUMPDEST DUP3 DUP3 DIV SWAP1 POP SWAP3 SWAP2 POP POP JUMP JUMPDEST PUSH1 0x0 PUSH2 0x2A36 DUP3 PUSH2 0x2A6F JUMP JUMPDEST SWAP1 POP SWAP2 SWAP1 POP JUMP JUMPDEST PUSH1 0x0 DUP2 ISZERO ISZERO SWAP1 POP SWAP2 SWAP1 POP JUMP JUMPDEST PUSH1 0x0 DUP2 SWAP1 POP PUSH2 0x2A57 DUP3 PUSH2 0x2C98 JUMP JUMPDEST SWAP2 SWAP1 POP JUMP JUMPDEST PUSH1 0x0 DUP2 SWAP1 POP PUSH2 0x2A6A DUP3 PUSH2 0x2CAC JUMP JUMPDEST SWAP2 SWAP1 POP JUMP JUMPDEST PUSH1 0x0 PUSH20 0xFFFFFFFFFFFFFFFFFFFFFFFFFFFFFFFFFFFFFFFF DUP3 AND SWAP1 POP SWAP2 SWAP1 POP JUMP JUMPDEST PUSH1 0x0 DUP2 SWAP1 POP SWAP2 SWAP1 POP JUMP JUMPDEST PUSH1 0x0 PUSH2 0x2AA4 DUP3 PUSH2 0x2A49 JUMP JUMPDEST SWAP1 POP SWAP2 SWAP1 POP JUMP JUMPDEST PUSH1 0x0 PUSH2 0x2AB6 DUP3 PUSH2 0x2A5C JUMP JUMPDEST SWAP1 POP SWAP2 SWAP1 POP JUMP JUMPDEST DUP3 DUP2 DUP4 CALLDATACOPY PUSH1 0x0 DUP4 DUP4 ADD MSTORE POP POP POP JUMP JUMPDEST PUSH1 0x0 JUMPDEST DUP4 DUP2 LT ISZERO PUSH2 0x2AEA JUMPI DUP1 DUP3 ADD MLOAD DUP2 DUP5 ADD MSTORE PUSH1 0x20 DUP2 ADD SWAP1 POP PUSH2 0x2ACF JUMP JUMPDEST DUP4 DUP2 GT ISZERO PUSH2 0x2AF9 JUMPI PUSH1 0x0 DUP5 DUP5 ADD MSTORE JUMPDEST POP POP POP POP JUMP JUMPDEST PUSH2 0x2B08 DUP3 PUSH2 0x2C87 JUMP JUMPDEST DUP2 ADD DUP2 DUP2 LT PUSH8 0xFFFFFFFFFFFFFFFF DUP3 GT OR ISZERO PUSH2 0x2B27 JUMPI PUSH2 0x2B26 PUSH2 0x2C35 JUMP JUMPDEST JUMPDEST DUP1 PUSH1 0x40 MSTORE POP POP POP JUMP JUMPDEST PUSH1 0x0 PUSH2 0x2B3B DUP3 PUSH2 0x2A8F JUMP JUMPDEST SWAP2 POP PUSH32 0xFFFFFFFFFFFFFFFFFFFFFFFFFFFFFFFFFFFFFFFFFFFFFFFFFFFFFFFFFFFFFFFF DUP3 EQ ISZERO PUSH2 0x2B6E JUMPI PUSH2 0x2B6D PUSH2 0x2B79 JUMP JUMPDEST JUMPDEST PUSH1 0x1 DUP3 ADD SWAP1 POP SWAP2 SWAP1 POP JUMP JUMPDEST PUSH32 0x4E487B7100000000000000000000000000000000000000000000000000000000 PUSH1 0x0 MSTORE PUSH1 0x11 PUSH1 0x4 MSTORE PUSH1 0x24 PUSH1 0x0 REVERT JUMPDEST PUSH32 0x4E487B7100000000000000000000000000000000000000000000000000000000 PUSH1 0x0 MSTORE PUSH1 0x12 PUSH1 0x4 MSTORE PUSH1 0x24 PUSH1 0x0 REVERT JUMPDEST PUSH32 0x4E487B7100000000000000000000000000000000000000000000000000000000 PUSH1 0x0 MSTORE PUSH1 0x21 PUSH1 0x4 MSTORE PUSH1 0x24 PUSH1 0x0 REVERT JUMPDEST PUSH32 0x4E487B7100000000000000000000000000000000000000000000000000000000 PUSH1 0x0 MSTORE PUSH1 0x32 PUSH1 0x4 MSTORE PUSH1 0x24 PUSH1 0x0 REVERT JUMPDEST PUSH32 0x4E487B7100000000000000000000000000000000000000000000000000000000 PUSH1 0x0 MSTORE PUSH1 0x41 PUSH1 0x4 MSTORE PUSH1 0x24 PUSH1 0x0 REVERT JUMPDEST PUSH1 0x0 DUP1 REVERT JUMPDEST PUSH1 0x0 DUP1 REVERT JUMPDEST PUSH1 0x0 DUP1 REVERT JUMPDEST PUSH1 0x0 DUP1 REVERT JUMPDEST PUSH1 0x0 DUP1 REVERT JUMPDEST PUSH1 0x0 DUP1 REVERT JUMPDEST PUSH1 0x0 DUP1 REVERT JUMPDEST PUSH1 0x0 PUSH1 0x1F NOT PUSH1 0x1F DUP4 ADD AND SWAP1 POP SWAP2 SWAP1 POP JUMP JUMPDEST PUSH1 0x6 DUP2 LT PUSH2 0x2CA9 JUMPI PUSH2 0x2CA8 PUSH2 0x2BD7 JUMP JUMPDEST JUMPDEST POP JUMP JUMPDEST PUSH1 0x6 DUP2 LT PUSH2 0x2CBD JUMPI PUSH2 0x2CBC PUSH2 0x2BD7 JUMP JUMPDEST JUMPDEST POP JUMP JUMPDEST PUSH2 0x2CC9 DUP2 PUSH2 0x2A2B JUMP JUMPDEST DUP2 EQ PUSH2 0x2CD4 JUMPI PUSH1 0x0 DUP1 REVERT JUMPDEST POP JUMP JUMPDEST PUSH2 0x2CE0 DUP2 PUSH2 0x2A3D JUMP JUMPDEST DUP2 EQ PUSH2 0x2CEB JUMPI PUSH1 0x0 DUP1 REVERT JUMPDEST POP JUMP JUMPDEST PUSH1 0x6 DUP2 LT PUSH2 0x2CFB JUMPI PUSH1 0x0 DUP1 REVERT JUMPDEST POP JUMP JUMPDEST PUSH1 0x6 DUP2 LT PUSH2 0x2D0B JUMPI PUSH1 0x0 DUP1 REVERT JUMPDEST POP JUMP JUMPDEST PUSH1 0x8 DUP2 LT PUSH2 0x2D1B JUMPI PUSH1 0x0 DUP1 REVERT JUMPDEST POP JUMP JUMPDEST PUSH2 0x2D27 DUP2 PUSH2 0x2A8F JUMP JUMPDEST DUP2 EQ PUSH2 0x2D32 JUMPI PUSH1 0x0 DUP1 REVERT JUMPDEST POP JUMP INVALID LOG2 PUSH5 0x6970667358 0x22 SLT KECCAK256 0x5C PUSH20 0x3DF13575BF694CE84CD54F24BC88DB9B495EE6F3 DUP3 0xD8 0xF9 0xCA 0xDA 0xBF GT DUP8 ADDMOD EXTCODECOPY PUSH5 0x736F6C6343 STOP ADDMOD SMOD STOP CALLER "
		},
		"gasEstimates": {
			"creation": {
				"codeDepositCost": "2325400",
				"executionCost": "infinite",
				"totalCost": "infinite"
			},
			"external": {
				"acceptForTranslator(uint256,uint256[],uint256)": "infinite",
				"acceptForVerifer(uint256,uint256[],uint256)": "infinite",
				"endTransAccept(uint256)": "infinite",
				"endTransVf(uint256)": "infinite",
				"postProject((uint256,string,string,uint256,string,string,string[],uint256,uint256,bool,bool,uint256,((string,uint256,uint256,uint256,uint256,uint256,string),uint256,string,uint8,uint256)[],uint256,uint256))": "infinite",
				"sumbitTask(uint256,uint256,uint256)": "infinite",
				"updateProject(uint256,(uint256,string,string,uint256,string,string,string[],uint256,uint256,bool,bool,uint256,((string,uint256,uint256,uint256,uint256,uint256,string),uint256,string,uint8,uint256)[],uint256,uint256))": "infinite"
			},
			"internal": {
				"_endTransAccept(uint256)": "infinite",
				"_endTransVf(uint256)": "infinite",
				"_overTimeTrans(uint256,uint256)": "infinite",
				"_postProject(struct LibProject.ProParm memory)": "infinite",
				"_sumbitTaskTrans(uint256,uint256,uint256,string memory)": "infinite",
				"_sumbitTaskVf(uint256,uint256,uint256,string memory)": "infinite",
				"_updateProject(uint256,struct LibProject.ProParm memory)": "infinite"
			}
		},
		"methodIdentifiers": {
			"acceptForTranslator(uint256,uint256[],uint256)": "361e4705",
			"acceptForVerifer(uint256,uint256[],uint256)": "9d55097e",
			"endTransAccept(uint256)": "8adc74a5",
			"endTransVf(uint256)": "a55af701",
			"postProject((uint256,string,string,uint256,string,string,string[],uint256,uint256,bool,bool,uint256,((string,uint256,uint256,uint256,uint256,uint256,string),uint256,string,uint8,uint256)[],uint256,uint256))": "264b4502",
			"sumbitTask(uint256,uint256,uint256)": "3990877a",
			"updateProject(uint256,(uint256,string,string,uint256,string,string,string[],uint256,uint256,bool,bool,uint256,((string,uint256,uint256,uint256,uint256,uint256,string),uint256,string,uint8,uint256)[],uint256,uint256))": "a43edcbd"
		}
	},
	"abi": [
		{
			"inputs": [
				{
					"internalType": "address",
					"name": "_serAddress",
					"type": "address"
				}
			],
			"stateMutability": "nonpayable",
			"type": "constructor"
		},
		{
			"inputs": [
				{
					"internalType": "uint256",
					"name": "_index",
					"type": "uint256"
				},
				{
					"internalType": "uint256[]",
					"name": "_fileIndex",
					"type": "uint256[]"
				},
				{
					"internalType": "uint256",
					"name": "_taskerIndex",
					"type": "uint256"
				}
			],
			"name": "acceptForTranslator",
			"outputs": [],
			"stateMutability": "nonpayable",
			"type": "function"
		},
		{
			"inputs": [
				{
					"internalType": "uint256",
					"name": "_index",
					"type": "uint256"
				},
				{
					"internalType": "uint256[]",
					"name": "_fileIndex",
					"type": "uint256[]"
				},
				{
					"internalType": "uint256",
					"name": "_taskerIndex",
					"type": "uint256"
				}
			],
			"name": "acceptForVerifer",
			"outputs": [],
			"stateMutability": "nonpayable",
			"type": "function"
		},
		{
			"inputs": [
				{
					"internalType": "uint256",
					"name": "_index",
					"type": "uint256"
				}
			],
			"name": "endTransAccept",
			"outputs": [],
			"stateMutability": "nonpayable",
			"type": "function"
		},
		{
			"inputs": [
				{
					"internalType": "uint256",
					"name": "_index",
					"type": "uint256"
				}
			],
			"name": "endTransVf",
			"outputs": [],
			"stateMutability": "nonpayable",
			"type": "function"
		},
		{
			"inputs": [
				{
					"components": [
						{
							"internalType": "uint256",
							"name": "releaseTime",
							"type": "uint256"
						},
						{
							"internalType": "string",
							"name": "introduce",
							"type": "string"
						},
						{
							"internalType": "string",
							"name": "need",
							"type": "string"
						},
						{
							"internalType": "uint256",
							"name": "deadline",
							"type": "uint256"
						},
						{
							"internalType": "string",
							"name": "sourceLanguage",
							"type": "string"
						},
						{
							"internalType": "string",
							"name": "goalLanguage",
							"type": "string"
						},
						{
							"internalType": "string[]",
							"name": "preferList",
							"type": "string[]"
						},
						{
							"internalType": "uint256",
							"name": "translationType",
							"type": "uint256"
						},
						{
							"internalType": "uint256",
							"name": "workLoad",
							"type": "uint256"
						},
						{
							"internalType": "bool",
							"name": "isNonDisclosure",
							"type": "bool"
						},
						{
							"internalType": "bool",
							"name": "isCustomize",
							"type": "bool"
						},
						{
							"internalType": "uint256",
							"name": "bounty",
							"type": "uint256"
						},
						{
							"components": [
								{
									"components": [
										{
											"internalType": "string",
											"name": "name",
											"type": "string"
										},
										{
											"internalType": "uint256",
											"name": "size",
											"type": "uint256"
										},
										{
											"internalType": "uint256",
											"name": "videoLength",
											"type": "uint256"
										},
										{
											"internalType": "uint256",
											"name": "Page",
											"type": "uint256"
										},
										{
											"internalType": "uint256",
											"name": "words",
											"type": "uint256"
										},
										{
											"internalType": "uint256",
											"name": "fileType",
											"type": "uint256"
										},
										{
											"internalType": "string",
											"name": "path",
											"type": "string"
										}
									],
									"internalType": "struct LibProject.FileInfo",
									"name": "file",
									"type": "tuple"
								},
								{
									"internalType": "uint256",
									"name": "bounty",
									"type": "uint256"
								},
								{
									"internalType": "string",
									"name": "info",
									"type": "string"
								},
								{
									"internalType": "enum LibProject.FileState",
									"name": "state",
									"type": "uint8"
								},
								{
									"internalType": "uint256",
									"name": "lastUpload",
									"type": "uint256"
								}
							],
							"internalType": "struct LibProject.TaskInfo[]",
							"name": "tasks",
							"type": "tuple[]"
						},
						{
							"internalType": "uint256",
							"name": "maxT",
							"type": "uint256"
						},
						{
							"internalType": "uint256",
							"name": "maxV",
							"type": "uint256"
						}
					],
					"internalType": "struct LibProject.ProParm",
					"name": "_t",
					"type": "tuple"
				}
			],
			"name": "postProject",
			"outputs": [
				{
					"internalType": "uint256",
					"name": "",
					"type": "uint256"
				}
			],
			"stateMutability": "nonpayable",
			"type": "function"
		},
		{
			"inputs": [
				{
					"internalType": "uint256",
					"name": "_index",
					"type": "uint256"
				},
				{
					"internalType": "uint256",
					"name": "_taskIndex",
					"type": "uint256"
				},
				{
					"internalType": "uint256",
					"name": "_fileIndex",
					"type": "uint256"
				}
			],
			"name": "sumbitTask",
			"outputs": [],
			"stateMutability": "nonpayable",
			"type": "function"
		},
		{
			"inputs": [
				{
					"internalType": "uint256",
					"name": "_index",
					"type": "uint256"
				},
				{
					"components": [
						{
							"internalType": "uint256",
							"name": "releaseTime",
							"type": "uint256"
						},
						{
							"internalType": "string",
							"name": "introduce",
							"type": "string"
						},
						{
							"internalType": "string",
							"name": "need",
							"type": "string"
						},
						{
							"internalType": "uint256",
							"name": "deadline",
							"type": "uint256"
						},
						{
							"internalType": "string",
							"name": "sourceLanguage",
							"type": "string"
						},
						{
							"internalType": "string",
							"name": "goalLanguage",
							"type": "string"
						},
						{
							"internalType": "string[]",
							"name": "preferList",
							"type": "string[]"
						},
						{
							"internalType": "uint256",
							"name": "translationType",
							"type": "uint256"
						},
						{
							"internalType": "uint256",
							"name": "workLoad",
							"type": "uint256"
						},
						{
							"internalType": "bool",
							"name": "isNonDisclosure",
							"type": "bool"
						},
						{
							"internalType": "bool",
							"name": "isCustomize",
							"type": "bool"
						},
						{
							"internalType": "uint256",
							"name": "bounty",
							"type": "uint256"
						},
						{
							"components": [
								{
									"components": [
										{
											"internalType": "string",
											"name": "name",
											"type": "string"
										},
										{
											"internalType": "uint256",
											"name": "size",
											"type": "uint256"
										},
										{
											"internalType": "uint256",
											"name": "videoLength",
											"type": "uint256"
										},
										{
											"internalType": "uint256",
											"name": "Page",
											"type": "uint256"
										},
										{
											"internalType": "uint256",
											"name": "words",
											"type": "uint256"
										},
										{
											"internalType": "uint256",
											"name": "fileType",
											"type": "uint256"
										},
										{
											"internalType": "string",
											"name": "path",
											"type": "string"
										}
									],
									"internalType": "struct LibProject.FileInfo",
									"name": "file",
									"type": "tuple"
								},
								{
									"internalType": "uint256",
									"name": "bounty",
									"type": "uint256"
								},
								{
									"internalType": "string",
									"name": "info",
									"type": "string"
								},
								{
									"internalType": "enum LibProject.FileState",
									"name": "state",
									"type": "uint8"
								},
								{
									"internalType": "uint256",
									"name": "lastUpload",
									"type": "uint256"
								}
							],
							"internalType": "struct LibProject.TaskInfo[]",
							"name": "tasks",
							"type": "tuple[]"
						},
						{
							"internalType": "uint256",
							"name": "maxT",
							"type": "uint256"
						},
						{
							"internalType": "uint256",
							"name": "maxV",
							"type": "uint256"
						}
					],
					"internalType": "struct LibProject.ProParm",
					"name": "_t",
					"type": "tuple"
				}
			],
			"name": "updateProject",
			"outputs": [],
			"stateMutability": "nonpayable",
			"type": "function"
		}
	]
}