{
	"data": {
		"bytecode": {
			"linkReferences": {},
			"object": "60806040523480156200001157600080fd5b5060405162002406380380620024068339818101604052810190620000379190620000e8565b806000806101000a81548173ffffffffffffffffffffffffffffffffffffffff021916908373ffffffffffffffffffffffffffffffffffffffff160217905550506200011a565b600080fd5b600073ffffffffffffffffffffffffffffffffffffffff82169050919050565b6000620000b08262000083565b9050919050565b620000c281620000a3565b8114620000ce57600080fd5b50565b600081519050620000e281620000b7565b92915050565b6000602082840312156200010157620001006200007e565b5b60006200011184828501620000d1565b91505092915050565b6122dc806200012a6000396000f3fe608060405234801561001057600080fd5b50600436106100365760003560e01c80633c3d99dc1461003b5780638e992e3914610057575b600080fd5b61005560048036038101906100509190610641565b610087565b005b610071600480360381019061006c919061105c565b610095565b60405161007e91906110b4565b60405180910390f35b61009182826100a7565b5050565b60006100a08261040b565b9050919050565b60008060009054906101000a900473ffffffffffffffffffffffffffffffffffffffff1673ffffffffffffffffffffffffffffffffffffffff16637256a37a84846040518363ffffffff1660e01b81526004016101059291906110de565b6000604051808303816000875af1158015610124573d6000803e3d6000fd5b505050506040513d6000823e3d601f19601f8201168201806040525081019061014d919061195e565b905060008060009054906101000a900473ffffffffffffffffffffffffffffffffffffffff1673ffffffffffffffffffffffffffffffffffffffff16637256a37a85856040518363ffffffff1660e01b81526004016101ad9291906110de565b6000604051808303816000875af11580156101cc573d6000803e3d6000fd5b505050506040513d6000823e3d601f19601f820116820180604052508101906101f5919061195e565b6101a00151905060008151036103275760008054906101000a900473ffffffffffffffffffffffffffffffffffffffff1673ffffffffffffffffffffffffffffffffffffffff166397792a7f858560036040518463ffffffff1660e01b815260040161026393929190611a1e565b600060405180830381600087803b15801561027d57600080fd5b505af1158015610291573d6000803e3d6000fd5b5050505060008054906101000a900473ffffffffffffffffffffffffffffffffffffffff1673ffffffffffffffffffffffffffffffffffffffff1663f32945b485856040518363ffffffff1660e01b81526004016102f09291906110de565b600060405180830381600087803b15801561030a57600080fd5b505af115801561031e573d6000803e3d6000fd5b50505050610405565b6000826101800151519050600082519050600081836103469190611ab3565b905060005b856101800151518110156104005760005b85518110156103ec578286828151811061037957610378611ae4565b5b6020026020010151602001515110156103d957600060058111156103a05761039f6119a7565b5b87610180015183815181106103b8576103b7611ae4565b5b60200260200101516040015160058111156103d6576103d56119a7565b5b50505b80806103e490611b13565b91505061035c565b5080806103f890611b13565b91505061034b565b505050505b50505050565b600080826101400151610435576001836101e00181815250506001836102000181815250506104f0565b82610180015151836101e001818152505060008054906101000a900473ffffffffffffffffffffffffffffffffffffffff1673ffffffffffffffffffffffffffffffffffffffff1663f2e60202846101e001516040518263ffffffff1660e01b81526004016104a491906110b4565b602060405180830381865afa1580156104c1573d6000803e3d6000fd5b505050506040513d601f19601f820116820180604052508101906104e59190611b5b565b836102000181815250505b60008054906101000a900473ffffffffffffffffffffffffffffffffffffffff1673ffffffffffffffffffffffffffffffffffffffff1663189a7ec033856040518363ffffffff1660e01b815260040161054b929190612276565b6020604051808303816000875af115801561056a573d6000803e3d6000fd5b505050506040513d601f19601f8201168201806040525081019061058e9190611b5b565b905080915050919050565b6000604051905090565b600080fd5b600080fd5b600073ffffffffffffffffffffffffffffffffffffffff82169050919050565b60006105d8826105ad565b9050919050565b6105e8816105cd565b81146105f357600080fd5b50565b600081359050610605816105df565b92915050565b6000819050919050565b61061e8161060b565b811461062957600080fd5b50565b60008135905061063b81610615565b92915050565b60008060408385031215610658576106576105a3565b5b6000610666858286016105f6565b92505060206106778582860161062c565b9150509250929050565b600080fd5b6000601f19601f8301169050919050565b7f4e487b7100000000000000000000000000000000000000000000000000000000600052604160045260246000fd5b6106cf82610686565b810181811067ffffffffffffffff821117156106ee576106ed610697565b5b80604052505050565b6000610701610599565b905061070d82826106c6565b919050565b600080fd5b600080fd5b600080fd5b600067ffffffffffffffff82111561073c5761073b610697565b5b61074582610686565b9050602081019050919050565b82818337600083830152505050565b600061077461076f84610721565b6106f7565b9050828152602081018484840111156107905761078f61071c565b5b61079b848285610752565b509392505050565b600082601f8301126107b8576107b7610717565b5b81356107c8848260208601610761565b91505092915050565b600067ffffffffffffffff8211156107ec576107eb610697565b5b602082029050602081019050919050565b600080fd5b6000610815610810846107d1565b6106f7565b90508083825260208201905060208402830185811115610838576108376107fd565b5b835b8181101561087f57803567ffffffffffffffff81111561085d5761085c610717565b5b80860161086a89826107a3565b8552602085019450505060208101905061083a565b5050509392505050565b600082601f83011261089e5761089d610717565b5b81356108ae848260208601610802565b91505092915050565b60008115159050919050565b6108cc816108b7565b81146108d757600080fd5b50565b6000813590506108e9816108c3565b92915050565b600067ffffffffffffffff82111561090a57610909610697565b5b602082029050602081019050919050565b600060e0828403121561093157610930610681565b5b61093b60e06106f7565b9050600082013567ffffffffffffffff81111561095b5761095a610712565b5b610967848285016107a3565b600083015250602061097b8482850161062c565b602083015250604061098f8482850161062c565b60408301525060606109a38482850161062c565b60608301525060806109b78482850161062c565b60808301525060a06109cb8482850161062c565b60a08301525060c082013567ffffffffffffffff8111156109ef576109ee610712565b5b6109fb848285016107a3565b60c08301525092915050565b60068110610a1457600080fd5b50565b600081359050610a2681610a07565b92915050565b600060808284031215610a4257610a41610681565b5b610a4c60806106f7565b9050600082013567ffffffffffffffff811115610a6c57610a6b610712565b5b610a788482850161091b565b6000830152506020610a8c8482850161062c565b6020830152506040610aa084828501610a17565b6040830152506060610ab48482850161062c565b60608301525092915050565b6000610ad3610ace846108ef565b6106f7565b90508083825260208201905060208402830185811115610af657610af56107fd565b5b835b81811015610b3d57803567ffffffffffffffff811115610b1b57610b1a610717565b5b808601610b288982610a2c565b85526020850194505050602081019050610af8565b5050509392505050565b600082601f830112610b5c57610b5b610717565b5b8135610b6c848260208601610ac0565b91505092915050565b600067ffffffffffffffff821115610b9057610b8f610697565b5b602082029050602081019050919050565b600067ffffffffffffffff821115610bbc57610bbb610697565b5b602082029050602081019050919050565b6000610be0610bdb84610ba1565b6106f7565b90508083825260208201905060208402830185811115610c0357610c026107fd565b5b835b81811015610c2c5780610c18888261062c565b845260208401935050602081019050610c05565b5050509392505050565b600082601f830112610c4b57610c4a610717565b5b8135610c5b848260208601610bcd565b91505092915050565b600060408284031215610c7a57610c79610681565b5b610c8460406106f7565b90506000610c94848285016105f6565b600083015250602082013567ffffffffffffffff811115610cb857610cb7610712565b5b610cc484828501610c36565b60208301525092915050565b6000610ce3610cde84610b75565b6106f7565b90508083825260208201905060208402830185811115610d0657610d056107fd565b5b835b81811015610d4d57803567ffffffffffffffff811115610d2b57610d2a610717565b5b808601610d388982610c64565b85526020850194505050602081019050610d08565b5050509392505050565b600082601f830112610d6c57610d6b610717565b5b8135610d7c848260208601610cd0565b91505092915050565b60068110610d9257600080fd5b50565b600081359050610da481610d85565b92915050565b60006102808284031215610dc157610dc0610681565b5b610dcc6102806106f7565b90506000610ddc8482850161062c565b600083015250602082013567ffffffffffffffff811115610e0057610dff610712565b5b610e0c848285016107a3565b602083015250604082013567ffffffffffffffff811115610e3057610e2f610712565b5b610e3c848285016107a3565b6040830152506060610e508482850161062c565b606083015250608082013567ffffffffffffffff811115610e7457610e73610712565b5b610e80848285016107a3565b60808301525060a082013567ffffffffffffffff811115610ea457610ea3610712565b5b610eb0848285016107a3565b60a08301525060c082013567ffffffffffffffff811115610ed457610ed3610712565b5b610ee084828501610889565b60c08301525060e0610ef48482850161062c565b60e083015250610100610f098482850161062c565b61010083015250610120610f1f848285016108da565b61012083015250610140610f35848285016108da565b61014083015250610160610f4b8482850161062c565b6101608301525061018082013567ffffffffffffffff811115610f7157610f70610712565b5b610f7d84828501610b47565b610180830152506101a082013567ffffffffffffffff811115610fa357610fa2610712565b5b610faf84828501610d57565b6101a0830152506101c082013567ffffffffffffffff811115610fd557610fd4610712565b5b610fe184828501610d57565b6101c0830152506101e0610ff78482850161062c565b6101e08301525061020061100d8482850161062c565b61020083015250610220611023848285016108da565b61022083015250610240611039848285016108da565b6102408301525061026061104f84828501610d95565b6102608301525092915050565b600060208284031215611072576110716105a3565b5b600082013567ffffffffffffffff8111156110905761108f6105a8565b5b61109c84828501610daa565b91505092915050565b6110ae8161060b565b82525050565b60006020820190506110c960008301846110a5565b92915050565b6110d8816105cd565b82525050565b60006040820190506110f360008301856110cf565b61110060208301846110a5565b9392505050565b60008151905061111681610615565b92915050565b60005b8381101561113a57808201518184015260208101905061111f565b60008484015250505050565b600061115961115484610721565b6106f7565b9050828152602081018484840111156111755761117461071c565b5b61118084828561111c565b509392505050565b600082601f83011261119d5761119c610717565b5b81516111ad848260208601611146565b91505092915050565b60006111c96111c4846107d1565b6106f7565b905080838252602082019050602084028301858111156111ec576111eb6107fd565b5b835b8181101561123357805167ffffffffffffffff81111561121157611210610717565b5b80860161121e8982611188565b855260208501945050506020810190506111ee565b5050509392505050565b600082601f83011261125257611251610717565b5b81516112628482602086016111b6565b91505092915050565b60008151905061127a816108c3565b92915050565b600060e0828403121561129657611295610681565b5b6112a060e06106f7565b9050600082015167ffffffffffffffff8111156112c0576112bf610712565b5b6112cc84828501611188565b60008301525060206112e084828501611107565b60208301525060406112f484828501611107565b604083015250606061130884828501611107565b606083015250608061131c84828501611107565b60808301525060a061133084828501611107565b60a08301525060c082015167ffffffffffffffff81111561135457611353610712565b5b61136084828501611188565b60c08301525092915050565b60008151905061137b81610a07565b92915050565b60006080828403121561139757611396610681565b5b6113a160806106f7565b9050600082015167ffffffffffffffff8111156113c1576113c0610712565b5b6113cd84828501611280565b60008301525060206113e184828501611107565b60208301525060406113f58482850161136c565b604083015250606061140984828501611107565b60608301525092915050565b6000611428611423846108ef565b6106f7565b9050808382526020820190506020840283018581111561144b5761144a6107fd565b5b835b8181101561149257805167ffffffffffffffff8111156114705761146f610717565b5b80860161147d8982611381565b8552602085019450505060208101905061144d565b5050509392505050565b600082601f8301126114b1576114b0610717565b5b81516114c1848260208601611415565b91505092915050565b6000815190506114d9816105df565b92915050565b60006114f26114ed84610ba1565b6106f7565b90508083825260208201905060208402830185811115611515576115146107fd565b5b835b8181101561153e578061152a8882611107565b845260208401935050602081019050611517565b5050509392505050565b600082601f83011261155d5761155c610717565b5b815161156d8482602086016114df565b91505092915050565b60006040828403121561158c5761158b610681565b5b61159660406106f7565b905060006115a6848285016114ca565b600083015250602082015167ffffffffffffffff8111156115ca576115c9610712565b5b6115d684828501611548565b60208301525092915050565b60006115f56115f084610b75565b6106f7565b90508083825260208201905060208402830185811115611618576116176107fd565b5b835b8181101561165f57805167ffffffffffffffff81111561163d5761163c610717565b5b80860161164a8982611576565b8552602085019450505060208101905061161a565b5050509392505050565b600082601f83011261167e5761167d610717565b5b815161168e8482602086016115e2565b91505092915050565b6000815190506116a681610d85565b92915050565b600061028082840312156116c3576116c2610681565b5b6116ce6102806106f7565b905060006116de84828501611107565b600083015250602082015167ffffffffffffffff81111561170257611701610712565b5b61170e84828501611188565b602083015250604082015167ffffffffffffffff81111561173257611731610712565b5b61173e84828501611188565b604083015250606061175284828501611107565b606083015250608082015167ffffffffffffffff81111561177657611775610712565b5b61178284828501611188565b60808301525060a082015167ffffffffffffffff8111156117a6576117a5610712565b5b6117b284828501611188565b60a08301525060c082015167ffffffffffffffff8111156117d6576117d5610712565b5b6117e28482850161123d565b60c08301525060e06117f684828501611107565b60e08301525061010061180b84828501611107565b610100830152506101206118218482850161126b565b610120830152506101406118378482850161126b565b6101408301525061016061184d84828501611107565b6101608301525061018082015167ffffffffffffffff81111561187357611872610712565b5b61187f8482850161149c565b610180830152506101a082015167ffffffffffffffff8111156118a5576118a4610712565b5b6118b184828501611669565b6101a0830152506101c082015167ffffffffffffffff8111156118d7576118d6610712565b5b6118e384828501611669565b6101c0830152506101e06118f984828501611107565b6101e08301525061020061190f84828501611107565b610200830152506102206119258482850161126b565b6102208301525061024061193b8482850161126b565b6102408301525061026061195184828501611697565b6102608301525092915050565b600060208284031215611974576119736105a3565b5b600082015167ffffffffffffffff811115611992576119916105a8565b5b61199e848285016116ac565b91505092915050565b7f4e487b7100000000000000000000000000000000000000000000000000000000600052602160045260246000fd5b600681106119e7576119e66119a7565b5b50565b60008190506119f8826119d6565b919050565b6000611a08826119ea565b9050919050565b611a18816119fd565b82525050565b6000606082019050611a3360008301866110cf565b611a4060208301856110a5565b611a4d6040830184611a0f565b949350505050565b7f4e487b7100000000000000000000000000000000000000000000000000000000600052601260045260246000fd5b7f4e487b7100000000000000000000000000000000000000000000000000000000600052601160045260246000fd5b6000611abe8261060b565b9150611ac98361060b565b925082611ad957611ad8611a55565b5b828204905092915050565b7f4e487b7100000000000000000000000000000000000000000000000000000000600052603260045260246000fd5b6000611b1e8261060b565b91507fffffffffffffffffffffffffffffffffffffffffffffffffffffffffffffffff8203611b5057611b4f611a84565b5b600182019050919050565b600060208284031215611b7157611b706105a3565b5b6000611b7f84828501611107565b91505092915050565b611b918161060b565b82525050565b600081519050919050565b600082825260208201905092915050565b6000611bbe82611b97565b611bc88185611ba2565b9350611bd881856020860161111c565b611be181610686565b840191505092915050565b600081519050919050565b600082825260208201905092915050565b6000819050602082019050919050565b6000611c248383611bb3565b905092915050565b6000602082019050919050565b6000611c4482611bec565b611c4e8185611bf7565b935083602082028501611c6085611c08565b8060005b85811015611c9c5784840389528151611c7d8582611c18565b9450611c8883611c2c565b925060208a01995050600181019050611c64565b50829750879550505050505092915050565b611cb7816108b7565b82525050565b600081519050919050565b600082825260208201905092915050565b6000819050602082019050919050565b600060e0830160008301518482036000860152611d068282611bb3565b9150506020830151611d1b6020860182611b88565b506040830151611d2e6040860182611b88565b506060830151611d416060860182611b88565b506080830151611d546080860182611b88565b5060a0830151611d6760a0860182611b88565b5060c083015184820360c0860152611d7f8282611bb3565b9150508091505092915050565b60068110611d9d57611d9c6119a7565b5b50565b6000819050611dae82611d8c565b919050565b6000611dbe82611da0565b9050919050565b611dce81611db3565b82525050565b60006080830160008301518482036000860152611df18282611ce9565b9150506020830151611e066020860182611b88565b506040830151611e196040860182611dc5565b506060830151611e2c6060860182611b88565b508091505092915050565b6000611e438383611dd4565b905092915050565b6000602082019050919050565b6000611e6382611cbd565b611e6d8185611cc8565b935083602082028501611e7f85611cd9565b8060005b85811015611ebb5784840389528151611e9c8582611e37565b9450611ea783611e4b565b925060208a01995050600181019050611e83565b50829750879550505050505092915050565b600081519050919050565b600082825260208201905092915050565b6000819050602082019050919050565b611f02816105cd565b82525050565b600081519050919050565b600082825260208201905092915050565b6000819050602082019050919050565b6000611f408383611b88565b60208301905092915050565b6000602082019050919050565b6000611f6482611f08565b611f6e8185611f13565b9350611f7983611f24565b8060005b83811015611faa578151611f918882611f34565b9750611f9c83611f4c565b925050600181019050611f7d565b5085935050505092915050565b6000604083016000830151611fcf6000860182611ef9565b5060208301518482036020860152611fe78282611f59565b9150508091505092915050565b60006120008383611fb7565b905092915050565b6000602082019050919050565b600061202082611ecd565b61202a8185611ed8565b93508360208202850161203c85611ee9565b8060005b8581101561207857848403895281516120598582611ff4565b945061206483612008565b925060208a01995050600181019050612040565b50829750879550505050505092915050565b612093816119fd565b82525050565b6000610280830160008301516120b26000860182611b88565b50602083015184820360208601526120ca8282611bb3565b915050604083015184820360408601526120e48282611bb3565b91505060608301516120f96060860182611b88565b50608083015184820360808601526121118282611bb3565b91505060a083015184820360a086015261212b8282611bb3565b91505060c083015184820360c08601526121458282611c39565b91505060e083015161215a60e0860182611b88565b5061010083015161216f610100860182611b88565b50610120830151612184610120860182611cae565b50610140830151612199610140860182611cae565b506101608301516121ae610160860182611b88565b506101808301518482036101808601526121c88282611e58565b9150506101a08301518482036101a08601526121e48282612015565b9150506101c08301518482036101c08601526122008282612015565b9150506101e08301516122176101e0860182611b88565b5061020083015161222c610200860182611b88565b50610220830151612241610220860182611cae565b50610240830151612256610240860182611cae565b5061026083015161226b61026086018261208a565b508091505092915050565b600060408201905061228b60008301856110cf565b818103602083015261229d8184612099565b9050939250505056fea2646970667358221220e2c65737771f3f32aa8b6b2257bb6f4f266b12648ddbe2b45db4ce2d79db13f864736f6c63430008110033",
			"opcodes": "PUSH1 0x80 PUSH1 0x40 MSTORE CALLVALUE DUP1 ISZERO PUSH3 0x11 JUMPI PUSH1 0x0 DUP1 REVERT JUMPDEST POP PUSH1 0x40 MLOAD PUSH3 0x2406 CODESIZE SUB DUP1 PUSH3 0x2406 DUP4 CODECOPY DUP2 DUP2 ADD PUSH1 0x40 MSTORE DUP2 ADD SWAP1 PUSH3 0x37 SWAP2 SWAP1 PUSH3 0xE8 JUMP JUMPDEST DUP1 PUSH1 0x0 DUP1 PUSH2 0x100 EXP DUP2 SLOAD DUP2 PUSH20 0xFFFFFFFFFFFFFFFFFFFFFFFFFFFFFFFFFFFFFFFF MUL NOT AND SWAP1 DUP4 PUSH20 0xFFFFFFFFFFFFFFFFFFFFFFFFFFFFFFFFFFFFFFFF AND MUL OR SWAP1 SSTORE POP POP PUSH3 0x11A JUMP JUMPDEST PUSH1 0x0 DUP1 REVERT JUMPDEST PUSH1 0x0 PUSH20 0xFFFFFFFFFFFFFFFFFFFFFFFFFFFFFFFFFFFFFFFF DUP3 AND SWAP1 POP SWAP2 SWAP1 POP JUMP JUMPDEST PUSH1 0x0 PUSH3 0xB0 DUP3 PUSH3 0x83 JUMP JUMPDEST SWAP1 POP SWAP2 SWAP1 POP JUMP JUMPDEST PUSH3 0xC2 DUP2 PUSH3 0xA3 JUMP JUMPDEST DUP2 EQ PUSH3 0xCE JUMPI PUSH1 0x0 DUP1 REVERT JUMPDEST POP JUMP JUMPDEST PUSH1 0x0 DUP2 MLOAD SWAP1 POP PUSH3 0xE2 DUP2 PUSH3 0xB7 JUMP JUMPDEST SWAP3 SWAP2 POP POP JUMP JUMPDEST PUSH1 0x0 PUSH1 0x20 DUP3 DUP5 SUB SLT ISZERO PUSH3 0x101 JUMPI PUSH3 0x100 PUSH3 0x7E JUMP JUMPDEST JUMPDEST PUSH1 0x0 PUSH3 0x111 DUP5 DUP3 DUP6 ADD PUSH3 0xD1 JUMP JUMPDEST SWAP2 POP POP SWAP3 SWAP2 POP POP JUMP JUMPDEST PUSH2 0x22DC DUP1 PUSH3 0x12A PUSH1 0x0 CODECOPY PUSH1 0x0 RETURN INVALID PUSH1 0x80 PUSH1 0x40 MSTORE CALLVALUE DUP1 ISZERO PUSH2 0x10 JUMPI PUSH1 0x0 DUP1 REVERT JUMPDEST POP PUSH1 0x4 CALLDATASIZE LT PUSH2 0x36 JUMPI PUSH1 0x0 CALLDATALOAD PUSH1 0xE0 SHR DUP1 PUSH4 0x3C3D99DC EQ PUSH2 0x3B JUMPI DUP1 PUSH4 0x8E992E39 EQ PUSH2 0x57 JUMPI JUMPDEST PUSH1 0x0 DUP1 REVERT JUMPDEST PUSH2 0x55 PUSH1 0x4 DUP1 CALLDATASIZE SUB DUP2 ADD SWAP1 PUSH2 0x50 SWAP2 SWAP1 PUSH2 0x641 JUMP JUMPDEST PUSH2 0x87 JUMP JUMPDEST STOP JUMPDEST PUSH2 0x71 PUSH1 0x4 DUP1 CALLDATASIZE SUB DUP2 ADD SWAP1 PUSH2 0x6C SWAP2 SWAP1 PUSH2 0x105C JUMP JUMPDEST PUSH2 0x95 JUMP JUMPDEST PUSH1 0x40 MLOAD PUSH2 0x7E SWAP2 SWAP1 PUSH2 0x10B4 JUMP JUMPDEST PUSH1 0x40 MLOAD DUP1 SWAP2 SUB SWAP1 RETURN JUMPDEST PUSH2 0x91 DUP3 DUP3 PUSH2 0xA7 JUMP JUMPDEST POP POP JUMP JUMPDEST PUSH1 0x0 PUSH2 0xA0 DUP3 PUSH2 0x40B JUMP JUMPDEST SWAP1 POP SWAP2 SWAP1 POP JUMP JUMPDEST PUSH1 0x0 DUP1 PUSH1 0x0 SWAP1 SLOAD SWAP1 PUSH2 0x100 EXP SWAP1 DIV PUSH20 0xFFFFFFFFFFFFFFFFFFFFFFFFFFFFFFFFFFFFFFFF AND PUSH20 0xFFFFFFFFFFFFFFFFFFFFFFFFFFFFFFFFFFFFFFFF AND PUSH4 0x7256A37A DUP5 DUP5 PUSH1 0x40 MLOAD DUP4 PUSH4 0xFFFFFFFF AND PUSH1 0xE0 SHL DUP2 MSTORE PUSH1 0x4 ADD PUSH2 0x105 SWAP3 SWAP2 SWAP1 PUSH2 0x10DE JUMP JUMPDEST PUSH1 0x0 PUSH1 0x40 MLOAD DUP1 DUP4 SUB DUP2 PUSH1 0x0 DUP8 GAS CALL ISZERO DUP1 ISZERO PUSH2 0x124 JUMPI RETURNDATASIZE PUSH1 0x0 DUP1 RETURNDATACOPY RETURNDATASIZE PUSH1 0x0 REVERT JUMPDEST POP POP POP POP PUSH1 0x40 MLOAD RETURNDATASIZE PUSH1 0x0 DUP3 RETURNDATACOPY RETURNDATASIZE PUSH1 0x1F NOT PUSH1 0x1F DUP3 ADD AND DUP3 ADD DUP1 PUSH1 0x40 MSTORE POP DUP2 ADD SWAP1 PUSH2 0x14D SWAP2 SWAP1 PUSH2 0x195E JUMP JUMPDEST SWAP1 POP PUSH1 0x0 DUP1 PUSH1 0x0 SWAP1 SLOAD SWAP1 PUSH2 0x100 EXP SWAP1 DIV PUSH20 0xFFFFFFFFFFFFFFFFFFFFFFFFFFFFFFFFFFFFFFFF AND PUSH20 0xFFFFFFFFFFFFFFFFFFFFFFFFFFFFFFFFFFFFFFFF AND PUSH4 0x7256A37A DUP6 DUP6 PUSH1 0x40 MLOAD DUP4 PUSH4 0xFFFFFFFF AND PUSH1 0xE0 SHL DUP2 MSTORE PUSH1 0x4 ADD PUSH2 0x1AD SWAP3 SWAP2 SWAP1 PUSH2 0x10DE JUMP JUMPDEST PUSH1 0x0 PUSH1 0x40 MLOAD DUP1 DUP4 SUB DUP2 PUSH1 0x0 DUP8 GAS CALL ISZERO DUP1 ISZERO PUSH2 0x1CC JUMPI RETURNDATASIZE PUSH1 0x0 DUP1 RETURNDATACOPY RETURNDATASIZE PUSH1 0x0 REVERT JUMPDEST POP POP POP POP PUSH1 0x40 MLOAD RETURNDATASIZE PUSH1 0x0 DUP3 RETURNDATACOPY RETURNDATASIZE PUSH1 0x1F NOT PUSH1 0x1F DUP3 ADD AND DUP3 ADD DUP1 PUSH1 0x40 MSTORE POP DUP2 ADD SWAP1 PUSH2 0x1F5 SWAP2 SWAP1 PUSH2 0x195E JUMP JUMPDEST PUSH2 0x1A0 ADD MLOAD SWAP1 POP PUSH1 0x0 DUP2 MLOAD SUB PUSH2 0x327 JUMPI PUSH1 0x0 DUP1 SLOAD SWAP1 PUSH2 0x100 EXP SWAP1 DIV PUSH20 0xFFFFFFFFFFFFFFFFFFFFFFFFFFFFFFFFFFFFFFFF AND PUSH20 0xFFFFFFFFFFFFFFFFFFFFFFFFFFFFFFFFFFFFFFFF AND PUSH4 0x97792A7F DUP6 DUP6 PUSH1 0x3 PUSH1 0x40 MLOAD DUP5 PUSH4 0xFFFFFFFF AND PUSH1 0xE0 SHL DUP2 MSTORE PUSH1 0x4 ADD PUSH2 0x263 SWAP4 SWAP3 SWAP2 SWAP1 PUSH2 0x1A1E JUMP JUMPDEST PUSH1 0x0 PUSH1 0x40 MLOAD DUP1 DUP4 SUB DUP2 PUSH1 0x0 DUP8 DUP1 EXTCODESIZE ISZERO DUP1 ISZERO PUSH2 0x27D JUMPI PUSH1 0x0 DUP1 REVERT JUMPDEST POP GAS CALL ISZERO DUP1 ISZERO PUSH2 0x291 JUMPI RETURNDATASIZE PUSH1 0x0 DUP1 RETURNDATACOPY RETURNDATASIZE PUSH1 0x0 REVERT JUMPDEST POP POP POP POP PUSH1 0x0 DUP1 SLOAD SWAP1 PUSH2 0x100 EXP SWAP1 DIV PUSH20 0xFFFFFFFFFFFFFFFFFFFFFFFFFFFFFFFFFFFFFFFF AND PUSH20 0xFFFFFFFFFFFFFFFFFFFFFFFFFFFFFFFFFFFFFFFF AND PUSH4 0xF32945B4 DUP6 DUP6 PUSH1 0x40 MLOAD DUP4 PUSH4 0xFFFFFFFF AND PUSH1 0xE0 SHL DUP2 MSTORE PUSH1 0x4 ADD PUSH2 0x2F0 SWAP3 SWAP2 SWAP1 PUSH2 0x10DE JUMP JUMPDEST PUSH1 0x0 PUSH1 0x40 MLOAD DUP1 DUP4 SUB DUP2 PUSH1 0x0 DUP8 DUP1 EXTCODESIZE ISZERO DUP1 ISZERO PUSH2 0x30A JUMPI PUSH1 0x0 DUP1 REVERT JUMPDEST POP GAS CALL ISZERO DUP1 ISZERO PUSH2 0x31E JUMPI RETURNDATASIZE PUSH1 0x0 DUP1 RETURNDATACOPY RETURNDATASIZE PUSH1 0x0 REVERT JUMPDEST POP POP POP POP PUSH2 0x405 JUMP JUMPDEST PUSH1 0x0 DUP3 PUSH2 0x180 ADD MLOAD MLOAD SWAP1 POP PUSH1 0x0 DUP3 MLOAD SWAP1 POP PUSH1 0x0 DUP2 DUP4 PUSH2 0x346 SWAP2 SWAP1 PUSH2 0x1AB3 JUMP JUMPDEST SWAP1 POP PUSH1 0x0 JUMPDEST DUP6 PUSH2 0x180 ADD MLOAD MLOAD DUP2 LT ISZERO PUSH2 0x400 JUMPI PUSH1 0x0 JUMPDEST DUP6 MLOAD DUP2 LT ISZERO PUSH2 0x3EC JUMPI DUP3 DUP7 DUP3 DUP2 MLOAD DUP2 LT PUSH2 0x379 JUMPI PUSH2 0x378 PUSH2 0x1AE4 JUMP JUMPDEST JUMPDEST PUSH1 0x20 MUL PUSH1 0x20 ADD ADD MLOAD PUSH1 0x20 ADD MLOAD MLOAD LT ISZERO PUSH2 0x3D9 JUMPI PUSH1 0x0 PUSH1 0x5 DUP2 GT ISZERO PUSH2 0x3A0 JUMPI PUSH2 0x39F PUSH2 0x19A7 JUMP JUMPDEST JUMPDEST DUP8 PUSH2 0x180 ADD MLOAD DUP4 DUP2 MLOAD DUP2 LT PUSH2 0x3B8 JUMPI PUSH2 0x3B7 PUSH2 0x1AE4 JUMP JUMPDEST JUMPDEST PUSH1 0x20 MUL PUSH1 0x20 ADD ADD MLOAD PUSH1 0x40 ADD MLOAD PUSH1 0x5 DUP2 GT ISZERO PUSH2 0x3D6 JUMPI PUSH2 0x3D5 PUSH2 0x19A7 JUMP JUMPDEST JUMPDEST POP POP JUMPDEST DUP1 DUP1 PUSH2 0x3E4 SWAP1 PUSH2 0x1B13 JUMP JUMPDEST SWAP2 POP POP PUSH2 0x35C JUMP JUMPDEST POP DUP1 DUP1 PUSH2 0x3F8 SWAP1 PUSH2 0x1B13 JUMP JUMPDEST SWAP2 POP POP PUSH2 0x34B JUMP JUMPDEST POP POP POP POP JUMPDEST POP POP POP POP JUMP JUMPDEST PUSH1 0x0 DUP1 DUP3 PUSH2 0x140 ADD MLOAD PUSH2 0x435 JUMPI PUSH1 0x1 DUP4 PUSH2 0x1E0 ADD DUP2 DUP2 MSTORE POP POP PUSH1 0x1 DUP4 PUSH2 0x200 ADD DUP2 DUP2 MSTORE POP POP PUSH2 0x4F0 JUMP JUMPDEST DUP3 PUSH2 0x180 ADD MLOAD MLOAD DUP4 PUSH2 0x1E0 ADD DUP2 DUP2 MSTORE POP POP PUSH1 0x0 DUP1 SLOAD SWAP1 PUSH2 0x100 EXP SWAP1 DIV PUSH20 0xFFFFFFFFFFFFFFFFFFFFFFFFFFFFFFFFFFFFFFFF AND PUSH20 0xFFFFFFFFFFFFFFFFFFFFFFFFFFFFFFFFFFFFFFFF AND PUSH4 0xF2E60202 DUP5 PUSH2 0x1E0 ADD MLOAD PUSH1 0x40 MLOAD DUP3 PUSH4 0xFFFFFFFF AND PUSH1 0xE0 SHL DUP2 MSTORE PUSH1 0x4 ADD PUSH2 0x4A4 SWAP2 SWAP1 PUSH2 0x10B4 JUMP JUMPDEST PUSH1 0x20 PUSH1 0x40 MLOAD DUP1 DUP4 SUB DUP2 DUP7 GAS STATICCALL ISZERO DUP1 ISZERO PUSH2 0x4C1 JUMPI RETURNDATASIZE PUSH1 0x0 DUP1 RETURNDATACOPY RETURNDATASIZE PUSH1 0x0 REVERT JUMPDEST POP POP POP POP PUSH1 0x40 MLOAD RETURNDATASIZE PUSH1 0x1F NOT PUSH1 0x1F DUP3 ADD AND DUP3 ADD DUP1 PUSH1 0x40 MSTORE POP DUP2 ADD SWAP1 PUSH2 0x4E5 SWAP2 SWAP1 PUSH2 0x1B5B JUMP JUMPDEST DUP4 PUSH2 0x200 ADD DUP2 DUP2 MSTORE POP POP JUMPDEST PUSH1 0x0 DUP1 SLOAD SWAP1 PUSH2 0x100 EXP SWAP1 DIV PUSH20 0xFFFFFFFFFFFFFFFFFFFFFFFFFFFFFFFFFFFFFFFF AND PUSH20 0xFFFFFFFFFFFFFFFFFFFFFFFFFFFFFFFFFFFFFFFF AND PUSH4 0x189A7EC0 CALLER DUP6 PUSH1 0x40 MLOAD DUP4 PUSH4 0xFFFFFFFF AND PUSH1 0xE0 SHL DUP2 MSTORE PUSH1 0x4 ADD PUSH2 0x54B SWAP3 SWAP2 SWAP1 PUSH2 0x2276 JUMP JUMPDEST PUSH1 0x20 PUSH1 0x40 MLOAD DUP1 DUP4 SUB DUP2 PUSH1 0x0 DUP8 GAS CALL ISZERO DUP1 ISZERO PUSH2 0x56A JUMPI RETURNDATASIZE PUSH1 0x0 DUP1 RETURNDATACOPY RETURNDATASIZE PUSH1 0x0 REVERT JUMPDEST POP POP POP POP PUSH1 0x40 MLOAD RETURNDATASIZE PUSH1 0x1F NOT PUSH1 0x1F DUP3 ADD AND DUP3 ADD DUP1 PUSH1 0x40 MSTORE POP DUP2 ADD SWAP1 PUSH2 0x58E SWAP2 SWAP1 PUSH2 0x1B5B JUMP JUMPDEST SWAP1 POP DUP1 SWAP2 POP POP SWAP2 SWAP1 POP JUMP JUMPDEST PUSH1 0x0 PUSH1 0x40 MLOAD SWAP1 POP SWAP1 JUMP JUMPDEST PUSH1 0x0 DUP1 REVERT JUMPDEST PUSH1 0x0 DUP1 REVERT JUMPDEST PUSH1 0x0 PUSH20 0xFFFFFFFFFFFFFFFFFFFFFFFFFFFFFFFFFFFFFFFF DUP3 AND SWAP1 POP SWAP2 SWAP1 POP JUMP JUMPDEST PUSH1 0x0 PUSH2 0x5D8 DUP3 PUSH2 0x5AD JUMP JUMPDEST SWAP1 POP SWAP2 SWAP1 POP JUMP JUMPDEST PUSH2 0x5E8 DUP2 PUSH2 0x5CD JUMP JUMPDEST DUP2 EQ PUSH2 0x5F3 JUMPI PUSH1 0x0 DUP1 REVERT JUMPDEST POP JUMP JUMPDEST PUSH1 0x0 DUP2 CALLDATALOAD SWAP1 POP PUSH2 0x605 DUP2 PUSH2 0x5DF JUMP JUMPDEST SWAP3 SWAP2 POP POP JUMP JUMPDEST PUSH1 0x0 DUP2 SWAP1 POP SWAP2 SWAP1 POP JUMP JUMPDEST PUSH2 0x61E DUP2 PUSH2 0x60B JUMP JUMPDEST DUP2 EQ PUSH2 0x629 JUMPI PUSH1 0x0 DUP1 REVERT JUMPDEST POP JUMP JUMPDEST PUSH1 0x0 DUP2 CALLDATALOAD SWAP1 POP PUSH2 0x63B DUP2 PUSH2 0x615 JUMP JUMPDEST SWAP3 SWAP2 POP POP JUMP JUMPDEST PUSH1 0x0 DUP1 PUSH1 0x40 DUP4 DUP6 SUB SLT ISZERO PUSH2 0x658 JUMPI PUSH2 0x657 PUSH2 0x5A3 JUMP JUMPDEST JUMPDEST PUSH1 0x0 PUSH2 0x666 DUP6 DUP3 DUP7 ADD PUSH2 0x5F6 JUMP JUMPDEST SWAP3 POP POP PUSH1 0x20 PUSH2 0x677 DUP6 DUP3 DUP7 ADD PUSH2 0x62C JUMP JUMPDEST SWAP2 POP POP SWAP3 POP SWAP3 SWAP1 POP JUMP JUMPDEST PUSH1 0x0 DUP1 REVERT JUMPDEST PUSH1 0x0 PUSH1 0x1F NOT PUSH1 0x1F DUP4 ADD AND SWAP1 POP SWAP2 SWAP1 POP JUMP JUMPDEST PUSH32 0x4E487B7100000000000000000000000000000000000000000000000000000000 PUSH1 0x0 MSTORE PUSH1 0x41 PUSH1 0x4 MSTORE PUSH1 0x24 PUSH1 0x0 REVERT JUMPDEST PUSH2 0x6CF DUP3 PUSH2 0x686 JUMP JUMPDEST DUP2 ADD DUP2 DUP2 LT PUSH8 0xFFFFFFFFFFFFFFFF DUP3 GT OR ISZERO PUSH2 0x6EE JUMPI PUSH2 0x6ED PUSH2 0x697 JUMP JUMPDEST JUMPDEST DUP1 PUSH1 0x40 MSTORE POP POP POP JUMP JUMPDEST PUSH1 0x0 PUSH2 0x701 PUSH2 0x599 JUMP JUMPDEST SWAP1 POP PUSH2 0x70D DUP3 DUP3 PUSH2 0x6C6 JUMP JUMPDEST SWAP2 SWAP1 POP JUMP JUMPDEST PUSH1 0x0 DUP1 REVERT JUMPDEST PUSH1 0x0 DUP1 REVERT JUMPDEST PUSH1 0x0 DUP1 REVERT JUMPDEST PUSH1 0x0 PUSH8 0xFFFFFFFFFFFFFFFF DUP3 GT ISZERO PUSH2 0x73C JUMPI PUSH2 0x73B PUSH2 0x697 JUMP JUMPDEST JUMPDEST PUSH2 0x745 DUP3 PUSH2 0x686 JUMP JUMPDEST SWAP1 POP PUSH1 0x20 DUP2 ADD SWAP1 POP SWAP2 SWAP1 POP JUMP JUMPDEST DUP3 DUP2 DUP4 CALLDATACOPY PUSH1 0x0 DUP4 DUP4 ADD MSTORE POP POP POP JUMP JUMPDEST PUSH1 0x0 PUSH2 0x774 PUSH2 0x76F DUP5 PUSH2 0x721 JUMP JUMPDEST PUSH2 0x6F7 JUMP JUMPDEST SWAP1 POP DUP3 DUP2 MSTORE PUSH1 0x20 DUP2 ADD DUP5 DUP5 DUP5 ADD GT ISZERO PUSH2 0x790 JUMPI PUSH2 0x78F PUSH2 0x71C JUMP JUMPDEST JUMPDEST PUSH2 0x79B DUP5 DUP3 DUP6 PUSH2 0x752 JUMP JUMPDEST POP SWAP4 SWAP3 POP POP POP JUMP JUMPDEST PUSH1 0x0 DUP3 PUSH1 0x1F DUP4 ADD SLT PUSH2 0x7B8 JUMPI PUSH2 0x7B7 PUSH2 0x717 JUMP JUMPDEST JUMPDEST DUP2 CALLDATALOAD PUSH2 0x7C8 DUP5 DUP3 PUSH1 0x20 DUP7 ADD PUSH2 0x761 JUMP JUMPDEST SWAP2 POP POP SWAP3 SWAP2 POP POP JUMP JUMPDEST PUSH1 0x0 PUSH8 0xFFFFFFFFFFFFFFFF DUP3 GT ISZERO PUSH2 0x7EC JUMPI PUSH2 0x7EB PUSH2 0x697 JUMP JUMPDEST JUMPDEST PUSH1 0x20 DUP3 MUL SWAP1 POP PUSH1 0x20 DUP2 ADD SWAP1 POP SWAP2 SWAP1 POP JUMP JUMPDEST PUSH1 0x0 DUP1 REVERT JUMPDEST PUSH1 0x0 PUSH2 0x815 PUSH2 0x810 DUP5 PUSH2 0x7D1 JUMP JUMPDEST PUSH2 0x6F7 JUMP JUMPDEST SWAP1 POP DUP1 DUP4 DUP3 MSTORE PUSH1 0x20 DUP3 ADD SWAP1 POP PUSH1 0x20 DUP5 MUL DUP4 ADD DUP6 DUP2 GT ISZERO PUSH2 0x838 JUMPI PUSH2 0x837 PUSH2 0x7FD JUMP JUMPDEST JUMPDEST DUP4 JUMPDEST DUP2 DUP2 LT ISZERO PUSH2 0x87F JUMPI DUP1 CALLDATALOAD PUSH8 0xFFFFFFFFFFFFFFFF DUP2 GT ISZERO PUSH2 0x85D JUMPI PUSH2 0x85C PUSH2 0x717 JUMP JUMPDEST JUMPDEST DUP1 DUP7 ADD PUSH2 0x86A DUP10 DUP3 PUSH2 0x7A3 JUMP JUMPDEST DUP6 MSTORE PUSH1 0x20 DUP6 ADD SWAP5 POP POP POP PUSH1 0x20 DUP2 ADD SWAP1 POP PUSH2 0x83A JUMP JUMPDEST POP POP POP SWAP4 SWAP3 POP POP POP JUMP JUMPDEST PUSH1 0x0 DUP3 PUSH1 0x1F DUP4 ADD SLT PUSH2 0x89E JUMPI PUSH2 0x89D PUSH2 0x717 JUMP JUMPDEST JUMPDEST DUP2 CALLDATALOAD PUSH2 0x8AE DUP5 DUP3 PUSH1 0x20 DUP7 ADD PUSH2 0x802 JUMP JUMPDEST SWAP2 POP POP SWAP3 SWAP2 POP POP JUMP JUMPDEST PUSH1 0x0 DUP2 ISZERO ISZERO SWAP1 POP SWAP2 SWAP1 POP JUMP JUMPDEST PUSH2 0x8CC DUP2 PUSH2 0x8B7 JUMP JUMPDEST DUP2 EQ PUSH2 0x8D7 JUMPI PUSH1 0x0 DUP1 REVERT JUMPDEST POP JUMP JUMPDEST PUSH1 0x0 DUP2 CALLDATALOAD SWAP1 POP PUSH2 0x8E9 DUP2 PUSH2 0x8C3 JUMP JUMPDEST SWAP3 SWAP2 POP POP JUMP JUMPDEST PUSH1 0x0 PUSH8 0xFFFFFFFFFFFFFFFF DUP3 GT ISZERO PUSH2 0x90A JUMPI PUSH2 0x909 PUSH2 0x697 JUMP JUMPDEST JUMPDEST PUSH1 0x20 DUP3 MUL SWAP1 POP PUSH1 0x20 DUP2 ADD SWAP1 POP SWAP2 SWAP1 POP JUMP JUMPDEST PUSH1 0x0 PUSH1 0xE0 DUP3 DUP5 SUB SLT ISZERO PUSH2 0x931 JUMPI PUSH2 0x930 PUSH2 0x681 JUMP JUMPDEST JUMPDEST PUSH2 0x93B PUSH1 0xE0 PUSH2 0x6F7 JUMP JUMPDEST SWAP1 POP PUSH1 0x0 DUP3 ADD CALLDATALOAD PUSH8 0xFFFFFFFFFFFFFFFF DUP2 GT ISZERO PUSH2 0x95B JUMPI PUSH2 0x95A PUSH2 0x712 JUMP JUMPDEST JUMPDEST PUSH2 0x967 DUP5 DUP3 DUP6 ADD PUSH2 0x7A3 JUMP JUMPDEST PUSH1 0x0 DUP4 ADD MSTORE POP PUSH1 0x20 PUSH2 0x97B DUP5 DUP3 DUP6 ADD PUSH2 0x62C JUMP JUMPDEST PUSH1 0x20 DUP4 ADD MSTORE POP PUSH1 0x40 PUSH2 0x98F DUP5 DUP3 DUP6 ADD PUSH2 0x62C JUMP JUMPDEST PUSH1 0x40 DUP4 ADD MSTORE POP PUSH1 0x60 PUSH2 0x9A3 DUP5 DUP3 DUP6 ADD PUSH2 0x62C JUMP JUMPDEST PUSH1 0x60 DUP4 ADD MSTORE POP PUSH1 0x80 PUSH2 0x9B7 DUP5 DUP3 DUP6 ADD PUSH2 0x62C JUMP JUMPDEST PUSH1 0x80 DUP4 ADD MSTORE POP PUSH1 0xA0 PUSH2 0x9CB DUP5 DUP3 DUP6 ADD PUSH2 0x62C JUMP JUMPDEST PUSH1 0xA0 DUP4 ADD MSTORE POP PUSH1 0xC0 DUP3 ADD CALLDATALOAD PUSH8 0xFFFFFFFFFFFFFFFF DUP2 GT ISZERO PUSH2 0x9EF JUMPI PUSH2 0x9EE PUSH2 0x712 JUMP JUMPDEST JUMPDEST PUSH2 0x9FB DUP5 DUP3 DUP6 ADD PUSH2 0x7A3 JUMP JUMPDEST PUSH1 0xC0 DUP4 ADD MSTORE POP SWAP3 SWAP2 POP POP JUMP JUMPDEST PUSH1 0x6 DUP2 LT PUSH2 0xA14 JUMPI PUSH1 0x0 DUP1 REVERT JUMPDEST POP JUMP JUMPDEST PUSH1 0x0 DUP2 CALLDATALOAD SWAP1 POP PUSH2 0xA26 DUP2 PUSH2 0xA07 JUMP JUMPDEST SWAP3 SWAP2 POP POP JUMP JUMPDEST PUSH1 0x0 PUSH1 0x80 DUP3 DUP5 SUB SLT ISZERO PUSH2 0xA42 JUMPI PUSH2 0xA41 PUSH2 0x681 JUMP JUMPDEST JUMPDEST PUSH2 0xA4C PUSH1 0x80 PUSH2 0x6F7 JUMP JUMPDEST SWAP1 POP PUSH1 0x0 DUP3 ADD CALLDATALOAD PUSH8 0xFFFFFFFFFFFFFFFF DUP2 GT ISZERO PUSH2 0xA6C JUMPI PUSH2 0xA6B PUSH2 0x712 JUMP JUMPDEST JUMPDEST PUSH2 0xA78 DUP5 DUP3 DUP6 ADD PUSH2 0x91B JUMP JUMPDEST PUSH1 0x0 DUP4 ADD MSTORE POP PUSH1 0x20 PUSH2 0xA8C DUP5 DUP3 DUP6 ADD PUSH2 0x62C JUMP JUMPDEST PUSH1 0x20 DUP4 ADD MSTORE POP PUSH1 0x40 PUSH2 0xAA0 DUP5 DUP3 DUP6 ADD PUSH2 0xA17 JUMP JUMPDEST PUSH1 0x40 DUP4 ADD MSTORE POP PUSH1 0x60 PUSH2 0xAB4 DUP5 DUP3 DUP6 ADD PUSH2 0x62C JUMP JUMPDEST PUSH1 0x60 DUP4 ADD MSTORE POP SWAP3 SWAP2 POP POP JUMP JUMPDEST PUSH1 0x0 PUSH2 0xAD3 PUSH2 0xACE DUP5 PUSH2 0x8EF JUMP JUMPDEST PUSH2 0x6F7 JUMP JUMPDEST SWAP1 POP DUP1 DUP4 DUP3 MSTORE PUSH1 0x20 DUP3 ADD SWAP1 POP PUSH1 0x20 DUP5 MUL DUP4 ADD DUP6 DUP2 GT ISZERO PUSH2 0xAF6 JUMPI PUSH2 0xAF5 PUSH2 0x7FD JUMP JUMPDEST JUMPDEST DUP4 JUMPDEST DUP2 DUP2 LT ISZERO PUSH2 0xB3D JUMPI DUP1 CALLDATALOAD PUSH8 0xFFFFFFFFFFFFFFFF DUP2 GT ISZERO PUSH2 0xB1B JUMPI PUSH2 0xB1A PUSH2 0x717 JUMP JUMPDEST JUMPDEST DUP1 DUP7 ADD PUSH2 0xB28 DUP10 DUP3 PUSH2 0xA2C JUMP JUMPDEST DUP6 MSTORE PUSH1 0x20 DUP6 ADD SWAP5 POP POP POP PUSH1 0x20 DUP2 ADD SWAP1 POP PUSH2 0xAF8 JUMP JUMPDEST POP POP POP SWAP4 SWAP3 POP POP POP JUMP JUMPDEST PUSH1 0x0 DUP3 PUSH1 0x1F DUP4 ADD SLT PUSH2 0xB5C JUMPI PUSH2 0xB5B PUSH2 0x717 JUMP JUMPDEST JUMPDEST DUP2 CALLDATALOAD PUSH2 0xB6C DUP5 DUP3 PUSH1 0x20 DUP7 ADD PUSH2 0xAC0 JUMP JUMPDEST SWAP2 POP POP SWAP3 SWAP2 POP POP JUMP JUMPDEST PUSH1 0x0 PUSH8 0xFFFFFFFFFFFFFFFF DUP3 GT ISZERO PUSH2 0xB90 JUMPI PUSH2 0xB8F PUSH2 0x697 JUMP JUMPDEST JUMPDEST PUSH1 0x20 DUP3 MUL SWAP1 POP PUSH1 0x20 DUP2 ADD SWAP1 POP SWAP2 SWAP1 POP JUMP JUMPDEST PUSH1 0x0 PUSH8 0xFFFFFFFFFFFFFFFF DUP3 GT ISZERO PUSH2 0xBBC JUMPI PUSH2 0xBBB PUSH2 0x697 JUMP JUMPDEST JUMPDEST PUSH1 0x20 DUP3 MUL SWAP1 POP PUSH1 0x20 DUP2 ADD SWAP1 POP SWAP2 SWAP1 POP JUMP JUMPDEST PUSH1 0x0 PUSH2 0xBE0 PUSH2 0xBDB DUP5 PUSH2 0xBA1 JUMP JUMPDEST PUSH2 0x6F7 JUMP JUMPDEST SWAP1 POP DUP1 DUP4 DUP3 MSTORE PUSH1 0x20 DUP3 ADD SWAP1 POP PUSH1 0x20 DUP5 MUL DUP4 ADD DUP6 DUP2 GT ISZERO PUSH2 0xC03 JUMPI PUSH2 0xC02 PUSH2 0x7FD JUMP JUMPDEST JUMPDEST DUP4 JUMPDEST DUP2 DUP2 LT ISZERO PUSH2 0xC2C JUMPI DUP1 PUSH2 0xC18 DUP9 DUP3 PUSH2 0x62C JUMP JUMPDEST DUP5 MSTORE PUSH1 0x20 DUP5 ADD SWAP4 POP POP PUSH1 0x20 DUP2 ADD SWAP1 POP PUSH2 0xC05 JUMP JUMPDEST POP POP POP SWAP4 SWAP3 POP POP POP JUMP JUMPDEST PUSH1 0x0 DUP3 PUSH1 0x1F DUP4 ADD SLT PUSH2 0xC4B JUMPI PUSH2 0xC4A PUSH2 0x717 JUMP JUMPDEST JUMPDEST DUP2 CALLDATALOAD PUSH2 0xC5B DUP5 DUP3 PUSH1 0x20 DUP7 ADD PUSH2 0xBCD JUMP JUMPDEST SWAP2 POP POP SWAP3 SWAP2 POP POP JUMP JUMPDEST PUSH1 0x0 PUSH1 0x40 DUP3 DUP5 SUB SLT ISZERO PUSH2 0xC7A JUMPI PUSH2 0xC79 PUSH2 0x681 JUMP JUMPDEST JUMPDEST PUSH2 0xC84 PUSH1 0x40 PUSH2 0x6F7 JUMP JUMPDEST SWAP1 POP PUSH1 0x0 PUSH2 0xC94 DUP5 DUP3 DUP6 ADD PUSH2 0x5F6 JUMP JUMPDEST PUSH1 0x0 DUP4 ADD MSTORE POP PUSH1 0x20 DUP3 ADD CALLDATALOAD PUSH8 0xFFFFFFFFFFFFFFFF DUP2 GT ISZERO PUSH2 0xCB8 JUMPI PUSH2 0xCB7 PUSH2 0x712 JUMP JUMPDEST JUMPDEST PUSH2 0xCC4 DUP5 DUP3 DUP6 ADD PUSH2 0xC36 JUMP JUMPDEST PUSH1 0x20 DUP4 ADD MSTORE POP SWAP3 SWAP2 POP POP JUMP JUMPDEST PUSH1 0x0 PUSH2 0xCE3 PUSH2 0xCDE DUP5 PUSH2 0xB75 JUMP JUMPDEST PUSH2 0x6F7 JUMP JUMPDEST SWAP1 POP DUP1 DUP4 DUP3 MSTORE PUSH1 0x20 DUP3 ADD SWAP1 POP PUSH1 0x20 DUP5 MUL DUP4 ADD DUP6 DUP2 GT ISZERO PUSH2 0xD06 JUMPI PUSH2 0xD05 PUSH2 0x7FD JUMP JUMPDEST JUMPDEST DUP4 JUMPDEST DUP2 DUP2 LT ISZERO PUSH2 0xD4D JUMPI DUP1 CALLDATALOAD PUSH8 0xFFFFFFFFFFFFFFFF DUP2 GT ISZERO PUSH2 0xD2B JUMPI PUSH2 0xD2A PUSH2 0x717 JUMP JUMPDEST JUMPDEST DUP1 DUP7 ADD PUSH2 0xD38 DUP10 DUP3 PUSH2 0xC64 JUMP JUMPDEST DUP6 MSTORE PUSH1 0x20 DUP6 ADD SWAP5 POP POP POP PUSH1 0x20 DUP2 ADD SWAP1 POP PUSH2 0xD08 JUMP JUMPDEST POP POP POP SWAP4 SWAP3 POP POP POP JUMP JUMPDEST PUSH1 0x0 DUP3 PUSH1 0x1F DUP4 ADD SLT PUSH2 0xD6C JUMPI PUSH2 0xD6B PUSH2 0x717 JUMP JUMPDEST JUMPDEST DUP2 CALLDATALOAD PUSH2 0xD7C DUP5 DUP3 PUSH1 0x20 DUP7 ADD PUSH2 0xCD0 JUMP JUMPDEST SWAP2 POP POP SWAP3 SWAP2 POP POP JUMP JUMPDEST PUSH1 0x6 DUP2 LT PUSH2 0xD92 JUMPI PUSH1 0x0 DUP1 REVERT JUMPDEST POP JUMP JUMPDEST PUSH1 0x0 DUP2 CALLDATALOAD SWAP1 POP PUSH2 0xDA4 DUP2 PUSH2 0xD85 JUMP JUMPDEST SWAP3 SWAP2 POP POP JUMP JUMPDEST PUSH1 0x0 PUSH2 0x280 DUP3 DUP5 SUB SLT ISZERO PUSH2 0xDC1 JUMPI PUSH2 0xDC0 PUSH2 0x681 JUMP JUMPDEST JUMPDEST PUSH2 0xDCC PUSH2 0x280 PUSH2 0x6F7 JUMP JUMPDEST SWAP1 POP PUSH1 0x0 PUSH2 0xDDC DUP5 DUP3 DUP6 ADD PUSH2 0x62C JUMP JUMPDEST PUSH1 0x0 DUP4 ADD MSTORE POP PUSH1 0x20 DUP3 ADD CALLDATALOAD PUSH8 0xFFFFFFFFFFFFFFFF DUP2 GT ISZERO PUSH2 0xE00 JUMPI PUSH2 0xDFF PUSH2 0x712 JUMP JUMPDEST JUMPDEST PUSH2 0xE0C DUP5 DUP3 DUP6 ADD PUSH2 0x7A3 JUMP JUMPDEST PUSH1 0x20 DUP4 ADD MSTORE POP PUSH1 0x40 DUP3 ADD CALLDATALOAD PUSH8 0xFFFFFFFFFFFFFFFF DUP2 GT ISZERO PUSH2 0xE30 JUMPI PUSH2 0xE2F PUSH2 0x712 JUMP JUMPDEST JUMPDEST PUSH2 0xE3C DUP5 DUP3 DUP6 ADD PUSH2 0x7A3 JUMP JUMPDEST PUSH1 0x40 DUP4 ADD MSTORE POP PUSH1 0x60 PUSH2 0xE50 DUP5 DUP3 DUP6 ADD PUSH2 0x62C JUMP JUMPDEST PUSH1 0x60 DUP4 ADD MSTORE POP PUSH1 0x80 DUP3 ADD CALLDATALOAD PUSH8 0xFFFFFFFFFFFFFFFF DUP2 GT ISZERO PUSH2 0xE74 JUMPI PUSH2 0xE73 PUSH2 0x712 JUMP JUMPDEST JUMPDEST PUSH2 0xE80 DUP5 DUP3 DUP6 ADD PUSH2 0x7A3 JUMP JUMPDEST PUSH1 0x80 DUP4 ADD MSTORE POP PUSH1 0xA0 DUP3 ADD CALLDATALOAD PUSH8 0xFFFFFFFFFFFFFFFF DUP2 GT ISZERO PUSH2 0xEA4 JUMPI PUSH2 0xEA3 PUSH2 0x712 JUMP JUMPDEST JUMPDEST PUSH2 0xEB0 DUP5 DUP3 DUP6 ADD PUSH2 0x7A3 JUMP JUMPDEST PUSH1 0xA0 DUP4 ADD MSTORE POP PUSH1 0xC0 DUP3 ADD CALLDATALOAD PUSH8 0xFFFFFFFFFFFFFFFF DUP2 GT ISZERO PUSH2 0xED4 JUMPI PUSH2 0xED3 PUSH2 0x712 JUMP JUMPDEST JUMPDEST PUSH2 0xEE0 DUP5 DUP3 DUP6 ADD PUSH2 0x889 JUMP JUMPDEST PUSH1 0xC0 DUP4 ADD MSTORE POP PUSH1 0xE0 PUSH2 0xEF4 DUP5 DUP3 DUP6 ADD PUSH2 0x62C JUMP JUMPDEST PUSH1 0xE0 DUP4 ADD MSTORE POP PUSH2 0x100 PUSH2 0xF09 DUP5 DUP3 DUP6 ADD PUSH2 0x62C JUMP JUMPDEST PUSH2 0x100 DUP4 ADD MSTORE POP PUSH2 0x120 PUSH2 0xF1F DUP5 DUP3 DUP6 ADD PUSH2 0x8DA JUMP JUMPDEST PUSH2 0x120 DUP4 ADD MSTORE POP PUSH2 0x140 PUSH2 0xF35 DUP5 DUP3 DUP6 ADD PUSH2 0x8DA JUMP JUMPDEST PUSH2 0x140 DUP4 ADD MSTORE POP PUSH2 0x160 PUSH2 0xF4B DUP5 DUP3 DUP6 ADD PUSH2 0x62C JUMP JUMPDEST PUSH2 0x160 DUP4 ADD MSTORE POP PUSH2 0x180 DUP3 ADD CALLDATALOAD PUSH8 0xFFFFFFFFFFFFFFFF DUP2 GT ISZERO PUSH2 0xF71 JUMPI PUSH2 0xF70 PUSH2 0x712 JUMP JUMPDEST JUMPDEST PUSH2 0xF7D DUP5 DUP3 DUP6 ADD PUSH2 0xB47 JUMP JUMPDEST PUSH2 0x180 DUP4 ADD MSTORE POP PUSH2 0x1A0 DUP3 ADD CALLDATALOAD PUSH8 0xFFFFFFFFFFFFFFFF DUP2 GT ISZERO PUSH2 0xFA3 JUMPI PUSH2 0xFA2 PUSH2 0x712 JUMP JUMPDEST JUMPDEST PUSH2 0xFAF DUP5 DUP3 DUP6 ADD PUSH2 0xD57 JUMP JUMPDEST PUSH2 0x1A0 DUP4 ADD MSTORE POP PUSH2 0x1C0 DUP3 ADD CALLDATALOAD PUSH8 0xFFFFFFFFFFFFFFFF DUP2 GT ISZERO PUSH2 0xFD5 JUMPI PUSH2 0xFD4 PUSH2 0x712 JUMP JUMPDEST JUMPDEST PUSH2 0xFE1 DUP5 DUP3 DUP6 ADD PUSH2 0xD57 JUMP JUMPDEST PUSH2 0x1C0 DUP4 ADD MSTORE POP PUSH2 0x1E0 PUSH2 0xFF7 DUP5 DUP3 DUP6 ADD PUSH2 0x62C JUMP JUMPDEST PUSH2 0x1E0 DUP4 ADD MSTORE POP PUSH2 0x200 PUSH2 0x100D DUP5 DUP3 DUP6 ADD PUSH2 0x62C JUMP JUMPDEST PUSH2 0x200 DUP4 ADD MSTORE POP PUSH2 0x220 PUSH2 0x1023 DUP5 DUP3 DUP6 ADD PUSH2 0x8DA JUMP JUMPDEST PUSH2 0x220 DUP4 ADD MSTORE POP PUSH2 0x240 PUSH2 0x1039 DUP5 DUP3 DUP6 ADD PUSH2 0x8DA JUMP JUMPDEST PUSH2 0x240 DUP4 ADD MSTORE POP PUSH2 0x260 PUSH2 0x104F DUP5 DUP3 DUP6 ADD PUSH2 0xD95 JUMP JUMPDEST PUSH2 0x260 DUP4 ADD MSTORE POP SWAP3 SWAP2 POP POP JUMP JUMPDEST PUSH1 0x0 PUSH1 0x20 DUP3 DUP5 SUB SLT ISZERO PUSH2 0x1072 JUMPI PUSH2 0x1071 PUSH2 0x5A3 JUMP JUMPDEST JUMPDEST PUSH1 0x0 DUP3 ADD CALLDATALOAD PUSH8 0xFFFFFFFFFFFFFFFF DUP2 GT ISZERO PUSH2 0x1090 JUMPI PUSH2 0x108F PUSH2 0x5A8 JUMP JUMPDEST JUMPDEST PUSH2 0x109C DUP5 DUP3 DUP6 ADD PUSH2 0xDAA JUMP JUMPDEST SWAP2 POP POP SWAP3 SWAP2 POP POP JUMP JUMPDEST PUSH2 0x10AE DUP2 PUSH2 0x60B JUMP JUMPDEST DUP3 MSTORE POP POP JUMP JUMPDEST PUSH1 0x0 PUSH1 0x20 DUP3 ADD SWAP1 POP PUSH2 0x10C9 PUSH1 0x0 DUP4 ADD DUP5 PUSH2 0x10A5 JUMP JUMPDEST SWAP3 SWAP2 POP POP JUMP JUMPDEST PUSH2 0x10D8 DUP2 PUSH2 0x5CD JUMP JUMPDEST DUP3 MSTORE POP POP JUMP JUMPDEST PUSH1 0x0 PUSH1 0x40 DUP3 ADD SWAP1 POP PUSH2 0x10F3 PUSH1 0x0 DUP4 ADD DUP6 PUSH2 0x10CF JUMP JUMPDEST PUSH2 0x1100 PUSH1 0x20 DUP4 ADD DUP5 PUSH2 0x10A5 JUMP JUMPDEST SWAP4 SWAP3 POP POP POP JUMP JUMPDEST PUSH1 0x0 DUP2 MLOAD SWAP1 POP PUSH2 0x1116 DUP2 PUSH2 0x615 JUMP JUMPDEST SWAP3 SWAP2 POP POP JUMP JUMPDEST PUSH1 0x0 JUMPDEST DUP4 DUP2 LT ISZERO PUSH2 0x113A JUMPI DUP1 DUP3 ADD MLOAD DUP2 DUP5 ADD MSTORE PUSH1 0x20 DUP2 ADD SWAP1 POP PUSH2 0x111F JUMP JUMPDEST PUSH1 0x0 DUP5 DUP5 ADD MSTORE POP POP POP POP JUMP JUMPDEST PUSH1 0x0 PUSH2 0x1159 PUSH2 0x1154 DUP5 PUSH2 0x721 JUMP JUMPDEST PUSH2 0x6F7 JUMP JUMPDEST SWAP1 POP DUP3 DUP2 MSTORE PUSH1 0x20 DUP2 ADD DUP5 DUP5 DUP5 ADD GT ISZERO PUSH2 0x1175 JUMPI PUSH2 0x1174 PUSH2 0x71C JUMP JUMPDEST JUMPDEST PUSH2 0x1180 DUP5 DUP3 DUP6 PUSH2 0x111C JUMP JUMPDEST POP SWAP4 SWAP3 POP POP POP JUMP JUMPDEST PUSH1 0x0 DUP3 PUSH1 0x1F DUP4 ADD SLT PUSH2 0x119D JUMPI PUSH2 0x119C PUSH2 0x717 JUMP JUMPDEST JUMPDEST DUP2 MLOAD PUSH2 0x11AD DUP5 DUP3 PUSH1 0x20 DUP7 ADD PUSH2 0x1146 JUMP JUMPDEST SWAP2 POP POP SWAP3 SWAP2 POP POP JUMP JUMPDEST PUSH1 0x0 PUSH2 0x11C9 PUSH2 0x11C4 DUP5 PUSH2 0x7D1 JUMP JUMPDEST PUSH2 0x6F7 JUMP JUMPDEST SWAP1 POP DUP1 DUP4 DUP3 MSTORE PUSH1 0x20 DUP3 ADD SWAP1 POP PUSH1 0x20 DUP5 MUL DUP4 ADD DUP6 DUP2 GT ISZERO PUSH2 0x11EC JUMPI PUSH2 0x11EB PUSH2 0x7FD JUMP JUMPDEST JUMPDEST DUP4 JUMPDEST DUP2 DUP2 LT ISZERO PUSH2 0x1233 JUMPI DUP1 MLOAD PUSH8 0xFFFFFFFFFFFFFFFF DUP2 GT ISZERO PUSH2 0x1211 JUMPI PUSH2 0x1210 PUSH2 0x717 JUMP JUMPDEST JUMPDEST DUP1 DUP7 ADD PUSH2 0x121E DUP10 DUP3 PUSH2 0x1188 JUMP JUMPDEST DUP6 MSTORE PUSH1 0x20 DUP6 ADD SWAP5 POP POP POP PUSH1 0x20 DUP2 ADD SWAP1 POP PUSH2 0x11EE JUMP JUMPDEST POP POP POP SWAP4 SWAP3 POP POP POP JUMP JUMPDEST PUSH1 0x0 DUP3 PUSH1 0x1F DUP4 ADD SLT PUSH2 0x1252 JUMPI PUSH2 0x1251 PUSH2 0x717 JUMP JUMPDEST JUMPDEST DUP2 MLOAD PUSH2 0x1262 DUP5 DUP3 PUSH1 0x20 DUP7 ADD PUSH2 0x11B6 JUMP JUMPDEST SWAP2 POP POP SWAP3 SWAP2 POP POP JUMP JUMPDEST PUSH1 0x0 DUP2 MLOAD SWAP1 POP PUSH2 0x127A DUP2 PUSH2 0x8C3 JUMP JUMPDEST SWAP3 SWAP2 POP POP JUMP JUMPDEST PUSH1 0x0 PUSH1 0xE0 DUP3 DUP5 SUB SLT ISZERO PUSH2 0x1296 JUMPI PUSH2 0x1295 PUSH2 0x681 JUMP JUMPDEST JUMPDEST PUSH2 0x12A0 PUSH1 0xE0 PUSH2 0x6F7 JUMP JUMPDEST SWAP1 POP PUSH1 0x0 DUP3 ADD MLOAD PUSH8 0xFFFFFFFFFFFFFFFF DUP2 GT ISZERO PUSH2 0x12C0 JUMPI PUSH2 0x12BF PUSH2 0x712 JUMP JUMPDEST JUMPDEST PUSH2 0x12CC DUP5 DUP3 DUP6 ADD PUSH2 0x1188 JUMP JUMPDEST PUSH1 0x0 DUP4 ADD MSTORE POP PUSH1 0x20 PUSH2 0x12E0 DUP5 DUP3 DUP6 ADD PUSH2 0x1107 JUMP JUMPDEST PUSH1 0x20 DUP4 ADD MSTORE POP PUSH1 0x40 PUSH2 0x12F4 DUP5 DUP3 DUP6 ADD PUSH2 0x1107 JUMP JUMPDEST PUSH1 0x40 DUP4 ADD MSTORE POP PUSH1 0x60 PUSH2 0x1308 DUP5 DUP3 DUP6 ADD PUSH2 0x1107 JUMP JUMPDEST PUSH1 0x60 DUP4 ADD MSTORE POP PUSH1 0x80 PUSH2 0x131C DUP5 DUP3 DUP6 ADD PUSH2 0x1107 JUMP JUMPDEST PUSH1 0x80 DUP4 ADD MSTORE POP PUSH1 0xA0 PUSH2 0x1330 DUP5 DUP3 DUP6 ADD PUSH2 0x1107 JUMP JUMPDEST PUSH1 0xA0 DUP4 ADD MSTORE POP PUSH1 0xC0 DUP3 ADD MLOAD PUSH8 0xFFFFFFFFFFFFFFFF DUP2 GT ISZERO PUSH2 0x1354 JUMPI PUSH2 0x1353 PUSH2 0x712 JUMP JUMPDEST JUMPDEST PUSH2 0x1360 DUP5 DUP3 DUP6 ADD PUSH2 0x1188 JUMP JUMPDEST PUSH1 0xC0 DUP4 ADD MSTORE POP SWAP3 SWAP2 POP POP JUMP JUMPDEST PUSH1 0x0 DUP2 MLOAD SWAP1 POP PUSH2 0x137B DUP2 PUSH2 0xA07 JUMP JUMPDEST SWAP3 SWAP2 POP POP JUMP JUMPDEST PUSH1 0x0 PUSH1 0x80 DUP3 DUP5 SUB SLT ISZERO PUSH2 0x1397 JUMPI PUSH2 0x1396 PUSH2 0x681 JUMP JUMPDEST JUMPDEST PUSH2 0x13A1 PUSH1 0x80 PUSH2 0x6F7 JUMP JUMPDEST SWAP1 POP PUSH1 0x0 DUP3 ADD MLOAD PUSH8 0xFFFFFFFFFFFFFFFF DUP2 GT ISZERO PUSH2 0x13C1 JUMPI PUSH2 0x13C0 PUSH2 0x712 JUMP JUMPDEST JUMPDEST PUSH2 0x13CD DUP5 DUP3 DUP6 ADD PUSH2 0x1280 JUMP JUMPDEST PUSH1 0x0 DUP4 ADD MSTORE POP PUSH1 0x20 PUSH2 0x13E1 DUP5 DUP3 DUP6 ADD PUSH2 0x1107 JUMP JUMPDEST PUSH1 0x20 DUP4 ADD MSTORE POP PUSH1 0x40 PUSH2 0x13F5 DUP5 DUP3 DUP6 ADD PUSH2 0x136C JUMP JUMPDEST PUSH1 0x40 DUP4 ADD MSTORE POP PUSH1 0x60 PUSH2 0x1409 DUP5 DUP3 DUP6 ADD PUSH2 0x1107 JUMP JUMPDEST PUSH1 0x60 DUP4 ADD MSTORE POP SWAP3 SWAP2 POP POP JUMP JUMPDEST PUSH1 0x0 PUSH2 0x1428 PUSH2 0x1423 DUP5 PUSH2 0x8EF JUMP JUMPDEST PUSH2 0x6F7 JUMP JUMPDEST SWAP1 POP DUP1 DUP4 DUP3 MSTORE PUSH1 0x20 DUP3 ADD SWAP1 POP PUSH1 0x20 DUP5 MUL DUP4 ADD DUP6 DUP2 GT ISZERO PUSH2 0x144B JUMPI PUSH2 0x144A PUSH2 0x7FD JUMP JUMPDEST JUMPDEST DUP4 JUMPDEST DUP2 DUP2 LT ISZERO PUSH2 0x1492 JUMPI DUP1 MLOAD PUSH8 0xFFFFFFFFFFFFFFFF DUP2 GT ISZERO PUSH2 0x1470 JUMPI PUSH2 0x146F PUSH2 0x717 JUMP JUMPDEST JUMPDEST DUP1 DUP7 ADD PUSH2 0x147D DUP10 DUP3 PUSH2 0x1381 JUMP JUMPDEST DUP6 MSTORE PUSH1 0x20 DUP6 ADD SWAP5 POP POP POP PUSH1 0x20 DUP2 ADD SWAP1 POP PUSH2 0x144D JUMP JUMPDEST POP POP POP SWAP4 SWAP3 POP POP POP JUMP JUMPDEST PUSH1 0x0 DUP3 PUSH1 0x1F DUP4 ADD SLT PUSH2 0x14B1 JUMPI PUSH2 0x14B0 PUSH2 0x717 JUMP JUMPDEST JUMPDEST DUP2 MLOAD PUSH2 0x14C1 DUP5 DUP3 PUSH1 0x20 DUP7 ADD PUSH2 0x1415 JUMP JUMPDEST SWAP2 POP POP SWAP3 SWAP2 POP POP JUMP JUMPDEST PUSH1 0x0 DUP2 MLOAD SWAP1 POP PUSH2 0x14D9 DUP2 PUSH2 0x5DF JUMP JUMPDEST SWAP3 SWAP2 POP POP JUMP JUMPDEST PUSH1 0x0 PUSH2 0x14F2 PUSH2 0x14ED DUP5 PUSH2 0xBA1 JUMP JUMPDEST PUSH2 0x6F7 JUMP JUMPDEST SWAP1 POP DUP1 DUP4 DUP3 MSTORE PUSH1 0x20 DUP3 ADD SWAP1 POP PUSH1 0x20 DUP5 MUL DUP4 ADD DUP6 DUP2 GT ISZERO PUSH2 0x1515 JUMPI PUSH2 0x1514 PUSH2 0x7FD JUMP JUMPDEST JUMPDEST DUP4 JUMPDEST DUP2 DUP2 LT ISZERO PUSH2 0x153E JUMPI DUP1 PUSH2 0x152A DUP9 DUP3 PUSH2 0x1107 JUMP JUMPDEST DUP5 MSTORE PUSH1 0x20 DUP5 ADD SWAP4 POP POP PUSH1 0x20 DUP2 ADD SWAP1 POP PUSH2 0x1517 JUMP JUMPDEST POP POP POP SWAP4 SWAP3 POP POP POP JUMP JUMPDEST PUSH1 0x0 DUP3 PUSH1 0x1F DUP4 ADD SLT PUSH2 0x155D JUMPI PUSH2 0x155C PUSH2 0x717 JUMP JUMPDEST JUMPDEST DUP2 MLOAD PUSH2 0x156D DUP5 DUP3 PUSH1 0x20 DUP7 ADD PUSH2 0x14DF JUMP JUMPDEST SWAP2 POP POP SWAP3 SWAP2 POP POP JUMP JUMPDEST PUSH1 0x0 PUSH1 0x40 DUP3 DUP5 SUB SLT ISZERO PUSH2 0x158C JUMPI PUSH2 0x158B PUSH2 0x681 JUMP JUMPDEST JUMPDEST PUSH2 0x1596 PUSH1 0x40 PUSH2 0x6F7 JUMP JUMPDEST SWAP1 POP PUSH1 0x0 PUSH2 0x15A6 DUP5 DUP3 DUP6 ADD PUSH2 0x14CA JUMP JUMPDEST PUSH1 0x0 DUP4 ADD MSTORE POP PUSH1 0x20 DUP3 ADD MLOAD PUSH8 0xFFFFFFFFFFFFFFFF DUP2 GT ISZERO PUSH2 0x15CA JUMPI PUSH2 0x15C9 PUSH2 0x712 JUMP JUMPDEST JUMPDEST PUSH2 0x15D6 DUP5 DUP3 DUP6 ADD PUSH2 0x1548 JUMP JUMPDEST PUSH1 0x20 DUP4 ADD MSTORE POP SWAP3 SWAP2 POP POP JUMP JUMPDEST PUSH1 0x0 PUSH2 0x15F5 PUSH2 0x15F0 DUP5 PUSH2 0xB75 JUMP JUMPDEST PUSH2 0x6F7 JUMP JUMPDEST SWAP1 POP DUP1 DUP4 DUP3 MSTORE PUSH1 0x20 DUP3 ADD SWAP1 POP PUSH1 0x20 DUP5 MUL DUP4 ADD DUP6 DUP2 GT ISZERO PUSH2 0x1618 JUMPI PUSH2 0x1617 PUSH2 0x7FD JUMP JUMPDEST JUMPDEST DUP4 JUMPDEST DUP2 DUP2 LT ISZERO PUSH2 0x165F JUMPI DUP1 MLOAD PUSH8 0xFFFFFFFFFFFFFFFF DUP2 GT ISZERO PUSH2 0x163D JUMPI PUSH2 0x163C PUSH2 0x717 JUMP JUMPDEST JUMPDEST DUP1 DUP7 ADD PUSH2 0x164A DUP10 DUP3 PUSH2 0x1576 JUMP JUMPDEST DUP6 MSTORE PUSH1 0x20 DUP6 ADD SWAP5 POP POP POP PUSH1 0x20 DUP2 ADD SWAP1 POP PUSH2 0x161A JUMP JUMPDEST POP POP POP SWAP4 SWAP3 POP POP POP JUMP JUMPDEST PUSH1 0x0 DUP3 PUSH1 0x1F DUP4 ADD SLT PUSH2 0x167E JUMPI PUSH2 0x167D PUSH2 0x717 JUMP JUMPDEST JUMPDEST DUP2 MLOAD PUSH2 0x168E DUP5 DUP3 PUSH1 0x20 DUP7 ADD PUSH2 0x15E2 JUMP JUMPDEST SWAP2 POP POP SWAP3 SWAP2 POP POP JUMP JUMPDEST PUSH1 0x0 DUP2 MLOAD SWAP1 POP PUSH2 0x16A6 DUP2 PUSH2 0xD85 JUMP JUMPDEST SWAP3 SWAP2 POP POP JUMP JUMPDEST PUSH1 0x0 PUSH2 0x280 DUP3 DUP5 SUB SLT ISZERO PUSH2 0x16C3 JUMPI PUSH2 0x16C2 PUSH2 0x681 JUMP JUMPDEST JUMPDEST PUSH2 0x16CE PUSH2 0x280 PUSH2 0x6F7 JUMP JUMPDEST SWAP1 POP PUSH1 0x0 PUSH2 0x16DE DUP5 DUP3 DUP6 ADD PUSH2 0x1107 JUMP JUMPDEST PUSH1 0x0 DUP4 ADD MSTORE POP PUSH1 0x20 DUP3 ADD MLOAD PUSH8 0xFFFFFFFFFFFFFFFF DUP2 GT ISZERO PUSH2 0x1702 JUMPI PUSH2 0x1701 PUSH2 0x712 JUMP JUMPDEST JUMPDEST PUSH2 0x170E DUP5 DUP3 DUP6 ADD PUSH2 0x1188 JUMP JUMPDEST PUSH1 0x20 DUP4 ADD MSTORE POP PUSH1 0x40 DUP3 ADD MLOAD PUSH8 0xFFFFFFFFFFFFFFFF DUP2 GT ISZERO PUSH2 0x1732 JUMPI PUSH2 0x1731 PUSH2 0x712 JUMP JUMPDEST JUMPDEST PUSH2 0x173E DUP5 DUP3 DUP6 ADD PUSH2 0x1188 JUMP JUMPDEST PUSH1 0x40 DUP4 ADD MSTORE POP PUSH1 0x60 PUSH2 0x1752 DUP5 DUP3 DUP6 ADD PUSH2 0x1107 JUMP JUMPDEST PUSH1 0x60 DUP4 ADD MSTORE POP PUSH1 0x80 DUP3 ADD MLOAD PUSH8 0xFFFFFFFFFFFFFFFF DUP2 GT ISZERO PUSH2 0x1776 JUMPI PUSH2 0x1775 PUSH2 0x712 JUMP JUMPDEST JUMPDEST PUSH2 0x1782 DUP5 DUP3 DUP6 ADD PUSH2 0x1188 JUMP JUMPDEST PUSH1 0x80 DUP4 ADD MSTORE POP PUSH1 0xA0 DUP3 ADD MLOAD PUSH8 0xFFFFFFFFFFFFFFFF DUP2 GT ISZERO PUSH2 0x17A6 JUMPI PUSH2 0x17A5 PUSH2 0x712 JUMP JUMPDEST JUMPDEST PUSH2 0x17B2 DUP5 DUP3 DUP6 ADD PUSH2 0x1188 JUMP JUMPDEST PUSH1 0xA0 DUP4 ADD MSTORE POP PUSH1 0xC0 DUP3 ADD MLOAD PUSH8 0xFFFFFFFFFFFFFFFF DUP2 GT ISZERO PUSH2 0x17D6 JUMPI PUSH2 0x17D5 PUSH2 0x712 JUMP JUMPDEST JUMPDEST PUSH2 0x17E2 DUP5 DUP3 DUP6 ADD PUSH2 0x123D JUMP JUMPDEST PUSH1 0xC0 DUP4 ADD MSTORE POP PUSH1 0xE0 PUSH2 0x17F6 DUP5 DUP3 DUP6 ADD PUSH2 0x1107 JUMP JUMPDEST PUSH1 0xE0 DUP4 ADD MSTORE POP PUSH2 0x100 PUSH2 0x180B DUP5 DUP3 DUP6 ADD PUSH2 0x1107 JUMP JUMPDEST PUSH2 0x100 DUP4 ADD MSTORE POP PUSH2 0x120 PUSH2 0x1821 DUP5 DUP3 DUP6 ADD PUSH2 0x126B JUMP JUMPDEST PUSH2 0x120 DUP4 ADD MSTORE POP PUSH2 0x140 PUSH2 0x1837 DUP5 DUP3 DUP6 ADD PUSH2 0x126B JUMP JUMPDEST PUSH2 0x140 DUP4 ADD MSTORE POP PUSH2 0x160 PUSH2 0x184D DUP5 DUP3 DUP6 ADD PUSH2 0x1107 JUMP JUMPDEST PUSH2 0x160 DUP4 ADD MSTORE POP PUSH2 0x180 DUP3 ADD MLOAD PUSH8 0xFFFFFFFFFFFFFFFF DUP2 GT ISZERO PUSH2 0x1873 JUMPI PUSH2 0x1872 PUSH2 0x712 JUMP JUMPDEST JUMPDEST PUSH2 0x187F DUP5 DUP3 DUP6 ADD PUSH2 0x149C JUMP JUMPDEST PUSH2 0x180 DUP4 ADD MSTORE POP PUSH2 0x1A0 DUP3 ADD MLOAD PUSH8 0xFFFFFFFFFFFFFFFF DUP2 GT ISZERO PUSH2 0x18A5 JUMPI PUSH2 0x18A4 PUSH2 0x712 JUMP JUMPDEST JUMPDEST PUSH2 0x18B1 DUP5 DUP3 DUP6 ADD PUSH2 0x1669 JUMP JUMPDEST PUSH2 0x1A0 DUP4 ADD MSTORE POP PUSH2 0x1C0 DUP3 ADD MLOAD PUSH8 0xFFFFFFFFFFFFFFFF DUP2 GT ISZERO PUSH2 0x18D7 JUMPI PUSH2 0x18D6 PUSH2 0x712 JUMP JUMPDEST JUMPDEST PUSH2 0x18E3 DUP5 DUP3 DUP6 ADD PUSH2 0x1669 JUMP JUMPDEST PUSH2 0x1C0 DUP4 ADD MSTORE POP PUSH2 0x1E0 PUSH2 0x18F9 DUP5 DUP3 DUP6 ADD PUSH2 0x1107 JUMP JUMPDEST PUSH2 0x1E0 DUP4 ADD MSTORE POP PUSH2 0x200 PUSH2 0x190F DUP5 DUP3 DUP6 ADD PUSH2 0x1107 JUMP JUMPDEST PUSH2 0x200 DUP4 ADD MSTORE POP PUSH2 0x220 PUSH2 0x1925 DUP5 DUP3 DUP6 ADD PUSH2 0x126B JUMP JUMPDEST PUSH2 0x220 DUP4 ADD MSTORE POP PUSH2 0x240 PUSH2 0x193B DUP5 DUP3 DUP6 ADD PUSH2 0x126B JUMP JUMPDEST PUSH2 0x240 DUP4 ADD MSTORE POP PUSH2 0x260 PUSH2 0x1951 DUP5 DUP3 DUP6 ADD PUSH2 0x1697 JUMP JUMPDEST PUSH2 0x260 DUP4 ADD MSTORE POP SWAP3 SWAP2 POP POP JUMP JUMPDEST PUSH1 0x0 PUSH1 0x20 DUP3 DUP5 SUB SLT ISZERO PUSH2 0x1974 JUMPI PUSH2 0x1973 PUSH2 0x5A3 JUMP JUMPDEST JUMPDEST PUSH1 0x0 DUP3 ADD MLOAD PUSH8 0xFFFFFFFFFFFFFFFF DUP2 GT ISZERO PUSH2 0x1992 JUMPI PUSH2 0x1991 PUSH2 0x5A8 JUMP JUMPDEST JUMPDEST PUSH2 0x199E DUP5 DUP3 DUP6 ADD PUSH2 0x16AC JUMP JUMPDEST SWAP2 POP POP SWAP3 SWAP2 POP POP JUMP JUMPDEST PUSH32 0x4E487B7100000000000000000000000000000000000000000000000000000000 PUSH1 0x0 MSTORE PUSH1 0x21 PUSH1 0x4 MSTORE PUSH1 0x24 PUSH1 0x0 REVERT JUMPDEST PUSH1 0x6 DUP2 LT PUSH2 0x19E7 JUMPI PUSH2 0x19E6 PUSH2 0x19A7 JUMP JUMPDEST JUMPDEST POP JUMP JUMPDEST PUSH1 0x0 DUP2 SWAP1 POP PUSH2 0x19F8 DUP3 PUSH2 0x19D6 JUMP JUMPDEST SWAP2 SWAP1 POP JUMP JUMPDEST PUSH1 0x0 PUSH2 0x1A08 DUP3 PUSH2 0x19EA JUMP JUMPDEST SWAP1 POP SWAP2 SWAP1 POP JUMP JUMPDEST PUSH2 0x1A18 DUP2 PUSH2 0x19FD JUMP JUMPDEST DUP3 MSTORE POP POP JUMP JUMPDEST PUSH1 0x0 PUSH1 0x60 DUP3 ADD SWAP1 POP PUSH2 0x1A33 PUSH1 0x0 DUP4 ADD DUP7 PUSH2 0x10CF JUMP JUMPDEST PUSH2 0x1A40 PUSH1 0x20 DUP4 ADD DUP6 PUSH2 0x10A5 JUMP JUMPDEST PUSH2 0x1A4D PUSH1 0x40 DUP4 ADD DUP5 PUSH2 0x1A0F JUMP JUMPDEST SWAP5 SWAP4 POP POP POP POP JUMP JUMPDEST PUSH32 0x4E487B7100000000000000000000000000000000000000000000000000000000 PUSH1 0x0 MSTORE PUSH1 0x12 PUSH1 0x4 MSTORE PUSH1 0x24 PUSH1 0x0 REVERT JUMPDEST PUSH32 0x4E487B7100000000000000000000000000000000000000000000000000000000 PUSH1 0x0 MSTORE PUSH1 0x11 PUSH1 0x4 MSTORE PUSH1 0x24 PUSH1 0x0 REVERT JUMPDEST PUSH1 0x0 PUSH2 0x1ABE DUP3 PUSH2 0x60B JUMP JUMPDEST SWAP2 POP PUSH2 0x1AC9 DUP4 PUSH2 0x60B JUMP JUMPDEST SWAP3 POP DUP3 PUSH2 0x1AD9 JUMPI PUSH2 0x1AD8 PUSH2 0x1A55 JUMP JUMPDEST JUMPDEST DUP3 DUP3 DIV SWAP1 POP SWAP3 SWAP2 POP POP JUMP JUMPDEST PUSH32 0x4E487B7100000000000000000000000000000000000000000000000000000000 PUSH1 0x0 MSTORE PUSH1 0x32 PUSH1 0x4 MSTORE PUSH1 0x24 PUSH1 0x0 REVERT JUMPDEST PUSH1 0x0 PUSH2 0x1B1E DUP3 PUSH2 0x60B JUMP JUMPDEST SWAP2 POP PUSH32 0xFFFFFFFFFFFFFFFFFFFFFFFFFFFFFFFFFFFFFFFFFFFFFFFFFFFFFFFFFFFFFFFF DUP3 SUB PUSH2 0x1B50 JUMPI PUSH2 0x1B4F PUSH2 0x1A84 JUMP JUMPDEST JUMPDEST PUSH1 0x1 DUP3 ADD SWAP1 POP SWAP2 SWAP1 POP JUMP JUMPDEST PUSH1 0x0 PUSH1 0x20 DUP3 DUP5 SUB SLT ISZERO PUSH2 0x1B71 JUMPI PUSH2 0x1B70 PUSH2 0x5A3 JUMP JUMPDEST JUMPDEST PUSH1 0x0 PUSH2 0x1B7F DUP5 DUP3 DUP6 ADD PUSH2 0x1107 JUMP JUMPDEST SWAP2 POP POP SWAP3 SWAP2 POP POP JUMP JUMPDEST PUSH2 0x1B91 DUP2 PUSH2 0x60B JUMP JUMPDEST DUP3 MSTORE POP POP JUMP JUMPDEST PUSH1 0x0 DUP2 MLOAD SWAP1 POP SWAP2 SWAP1 POP JUMP JUMPDEST PUSH1 0x0 DUP3 DUP3 MSTORE PUSH1 0x20 DUP3 ADD SWAP1 POP SWAP3 SWAP2 POP POP JUMP JUMPDEST PUSH1 0x0 PUSH2 0x1BBE DUP3 PUSH2 0x1B97 JUMP JUMPDEST PUSH2 0x1BC8 DUP2 DUP6 PUSH2 0x1BA2 JUMP JUMPDEST SWAP4 POP PUSH2 0x1BD8 DUP2 DUP6 PUSH1 0x20 DUP7 ADD PUSH2 0x111C JUMP JUMPDEST PUSH2 0x1BE1 DUP2 PUSH2 0x686 JUMP JUMPDEST DUP5 ADD SWAP2 POP POP SWAP3 SWAP2 POP POP JUMP JUMPDEST PUSH1 0x0 DUP2 MLOAD SWAP1 POP SWAP2 SWAP1 POP JUMP JUMPDEST PUSH1 0x0 DUP3 DUP3 MSTORE PUSH1 0x20 DUP3 ADD SWAP1 POP SWAP3 SWAP2 POP POP JUMP JUMPDEST PUSH1 0x0 DUP2 SWAP1 POP PUSH1 0x20 DUP3 ADD SWAP1 POP SWAP2 SWAP1 POP JUMP JUMPDEST PUSH1 0x0 PUSH2 0x1C24 DUP4 DUP4 PUSH2 0x1BB3 JUMP JUMPDEST SWAP1 POP SWAP3 SWAP2 POP POP JUMP JUMPDEST PUSH1 0x0 PUSH1 0x20 DUP3 ADD SWAP1 POP SWAP2 SWAP1 POP JUMP JUMPDEST PUSH1 0x0 PUSH2 0x1C44 DUP3 PUSH2 0x1BEC JUMP JUMPDEST PUSH2 0x1C4E DUP2 DUP6 PUSH2 0x1BF7 JUMP JUMPDEST SWAP4 POP DUP4 PUSH1 0x20 DUP3 MUL DUP6 ADD PUSH2 0x1C60 DUP6 PUSH2 0x1C08 JUMP JUMPDEST DUP1 PUSH1 0x0 JUMPDEST DUP6 DUP2 LT ISZERO PUSH2 0x1C9C JUMPI DUP5 DUP5 SUB DUP10 MSTORE DUP2 MLOAD PUSH2 0x1C7D DUP6 DUP3 PUSH2 0x1C18 JUMP JUMPDEST SWAP5 POP PUSH2 0x1C88 DUP4 PUSH2 0x1C2C JUMP JUMPDEST SWAP3 POP PUSH1 0x20 DUP11 ADD SWAP10 POP POP PUSH1 0x1 DUP2 ADD SWAP1 POP PUSH2 0x1C64 JUMP JUMPDEST POP DUP3 SWAP8 POP DUP8 SWAP6 POP POP POP POP POP POP SWAP3 SWAP2 POP POP JUMP JUMPDEST PUSH2 0x1CB7 DUP2 PUSH2 0x8B7 JUMP JUMPDEST DUP3 MSTORE POP POP JUMP JUMPDEST PUSH1 0x0 DUP2 MLOAD SWAP1 POP SWAP2 SWAP1 POP JUMP JUMPDEST PUSH1 0x0 DUP3 DUP3 MSTORE PUSH1 0x20 DUP3 ADD SWAP1 POP SWAP3 SWAP2 POP POP JUMP JUMPDEST PUSH1 0x0 DUP2 SWAP1 POP PUSH1 0x20 DUP3 ADD SWAP1 POP SWAP2 SWAP1 POP JUMP JUMPDEST PUSH1 0x0 PUSH1 0xE0 DUP4 ADD PUSH1 0x0 DUP4 ADD MLOAD DUP5 DUP3 SUB PUSH1 0x0 DUP7 ADD MSTORE PUSH2 0x1D06 DUP3 DUP3 PUSH2 0x1BB3 JUMP JUMPDEST SWAP2 POP POP PUSH1 0x20 DUP4 ADD MLOAD PUSH2 0x1D1B PUSH1 0x20 DUP7 ADD DUP3 PUSH2 0x1B88 JUMP JUMPDEST POP PUSH1 0x40 DUP4 ADD MLOAD PUSH2 0x1D2E PUSH1 0x40 DUP7 ADD DUP3 PUSH2 0x1B88 JUMP JUMPDEST POP PUSH1 0x60 DUP4 ADD MLOAD PUSH2 0x1D41 PUSH1 0x60 DUP7 ADD DUP3 PUSH2 0x1B88 JUMP JUMPDEST POP PUSH1 0x80 DUP4 ADD MLOAD PUSH2 0x1D54 PUSH1 0x80 DUP7 ADD DUP3 PUSH2 0x1B88 JUMP JUMPDEST POP PUSH1 0xA0 DUP4 ADD MLOAD PUSH2 0x1D67 PUSH1 0xA0 DUP7 ADD DUP3 PUSH2 0x1B88 JUMP JUMPDEST POP PUSH1 0xC0 DUP4 ADD MLOAD DUP5 DUP3 SUB PUSH1 0xC0 DUP7 ADD MSTORE PUSH2 0x1D7F DUP3 DUP3 PUSH2 0x1BB3 JUMP JUMPDEST SWAP2 POP POP DUP1 SWAP2 POP POP SWAP3 SWAP2 POP POP JUMP JUMPDEST PUSH1 0x6 DUP2 LT PUSH2 0x1D9D JUMPI PUSH2 0x1D9C PUSH2 0x19A7 JUMP JUMPDEST JUMPDEST POP JUMP JUMPDEST PUSH1 0x0 DUP2 SWAP1 POP PUSH2 0x1DAE DUP3 PUSH2 0x1D8C JUMP JUMPDEST SWAP2 SWAP1 POP JUMP JUMPDEST PUSH1 0x0 PUSH2 0x1DBE DUP3 PUSH2 0x1DA0 JUMP JUMPDEST SWAP1 POP SWAP2 SWAP1 POP JUMP JUMPDEST PUSH2 0x1DCE DUP2 PUSH2 0x1DB3 JUMP JUMPDEST DUP3 MSTORE POP POP JUMP JUMPDEST PUSH1 0x0 PUSH1 0x80 DUP4 ADD PUSH1 0x0 DUP4 ADD MLOAD DUP5 DUP3 SUB PUSH1 0x0 DUP7 ADD MSTORE PUSH2 0x1DF1 DUP3 DUP3 PUSH2 0x1CE9 JUMP JUMPDEST SWAP2 POP POP PUSH1 0x20 DUP4 ADD MLOAD PUSH2 0x1E06 PUSH1 0x20 DUP7 ADD DUP3 PUSH2 0x1B88 JUMP JUMPDEST POP PUSH1 0x40 DUP4 ADD MLOAD PUSH2 0x1E19 PUSH1 0x40 DUP7 ADD DUP3 PUSH2 0x1DC5 JUMP JUMPDEST POP PUSH1 0x60 DUP4 ADD MLOAD PUSH2 0x1E2C PUSH1 0x60 DUP7 ADD DUP3 PUSH2 0x1B88 JUMP JUMPDEST POP DUP1 SWAP2 POP POP SWAP3 SWAP2 POP POP JUMP JUMPDEST PUSH1 0x0 PUSH2 0x1E43 DUP4 DUP4 PUSH2 0x1DD4 JUMP JUMPDEST SWAP1 POP SWAP3 SWAP2 POP POP JUMP JUMPDEST PUSH1 0x0 PUSH1 0x20 DUP3 ADD SWAP1 POP SWAP2 SWAP1 POP JUMP JUMPDEST PUSH1 0x0 PUSH2 0x1E63 DUP3 PUSH2 0x1CBD JUMP JUMPDEST PUSH2 0x1E6D DUP2 DUP6 PUSH2 0x1CC8 JUMP JUMPDEST SWAP4 POP DUP4 PUSH1 0x20 DUP3 MUL DUP6 ADD PUSH2 0x1E7F DUP6 PUSH2 0x1CD9 JUMP JUMPDEST DUP1 PUSH1 0x0 JUMPDEST DUP6 DUP2 LT ISZERO PUSH2 0x1EBB JUMPI DUP5 DUP5 SUB DUP10 MSTORE DUP2 MLOAD PUSH2 0x1E9C DUP6 DUP3 PUSH2 0x1E37 JUMP JUMPDEST SWAP5 POP PUSH2 0x1EA7 DUP4 PUSH2 0x1E4B JUMP JUMPDEST SWAP3 POP PUSH1 0x20 DUP11 ADD SWAP10 POP POP PUSH1 0x1 DUP2 ADD SWAP1 POP PUSH2 0x1E83 JUMP JUMPDEST POP DUP3 SWAP8 POP DUP8 SWAP6 POP POP POP POP POP POP SWAP3 SWAP2 POP POP JUMP JUMPDEST PUSH1 0x0 DUP2 MLOAD SWAP1 POP SWAP2 SWAP1 POP JUMP JUMPDEST PUSH1 0x0 DUP3 DUP3 MSTORE PUSH1 0x20 DUP3 ADD SWAP1 POP SWAP3 SWAP2 POP POP JUMP JUMPDEST PUSH1 0x0 DUP2 SWAP1 POP PUSH1 0x20 DUP3 ADD SWAP1 POP SWAP2 SWAP1 POP JUMP JUMPDEST PUSH2 0x1F02 DUP2 PUSH2 0x5CD JUMP JUMPDEST DUP3 MSTORE POP POP JUMP JUMPDEST PUSH1 0x0 DUP2 MLOAD SWAP1 POP SWAP2 SWAP1 POP JUMP JUMPDEST PUSH1 0x0 DUP3 DUP3 MSTORE PUSH1 0x20 DUP3 ADD SWAP1 POP SWAP3 SWAP2 POP POP JUMP JUMPDEST PUSH1 0x0 DUP2 SWAP1 POP PUSH1 0x20 DUP3 ADD SWAP1 POP SWAP2 SWAP1 POP JUMP JUMPDEST PUSH1 0x0 PUSH2 0x1F40 DUP4 DUP4 PUSH2 0x1B88 JUMP JUMPDEST PUSH1 0x20 DUP4 ADD SWAP1 POP SWAP3 SWAP2 POP POP JUMP JUMPDEST PUSH1 0x0 PUSH1 0x20 DUP3 ADD SWAP1 POP SWAP2 SWAP1 POP JUMP JUMPDEST PUSH1 0x0 PUSH2 0x1F64 DUP3 PUSH2 0x1F08 JUMP JUMPDEST PUSH2 0x1F6E DUP2 DUP6 PUSH2 0x1F13 JUMP JUMPDEST SWAP4 POP PUSH2 0x1F79 DUP4 PUSH2 0x1F24 JUMP JUMPDEST DUP1 PUSH1 0x0 JUMPDEST DUP4 DUP2 LT ISZERO PUSH2 0x1FAA JUMPI DUP2 MLOAD PUSH2 0x1F91 DUP9 DUP3 PUSH2 0x1F34 JUMP JUMPDEST SWAP8 POP PUSH2 0x1F9C DUP4 PUSH2 0x1F4C JUMP JUMPDEST SWAP3 POP POP PUSH1 0x1 DUP2 ADD SWAP1 POP PUSH2 0x1F7D JUMP JUMPDEST POP DUP6 SWAP4 POP POP POP POP SWAP3 SWAP2 POP POP JUMP JUMPDEST PUSH1 0x0 PUSH1 0x40 DUP4 ADD PUSH1 0x0 DUP4 ADD MLOAD PUSH2 0x1FCF PUSH1 0x0 DUP7 ADD DUP3 PUSH2 0x1EF9 JUMP JUMPDEST POP PUSH1 0x20 DUP4 ADD MLOAD DUP5 DUP3 SUB PUSH1 0x20 DUP7 ADD MSTORE PUSH2 0x1FE7 DUP3 DUP3 PUSH2 0x1F59 JUMP JUMPDEST SWAP2 POP POP DUP1 SWAP2 POP POP SWAP3 SWAP2 POP POP JUMP JUMPDEST PUSH1 0x0 PUSH2 0x2000 DUP4 DUP4 PUSH2 0x1FB7 JUMP JUMPDEST SWAP1 POP SWAP3 SWAP2 POP POP JUMP JUMPDEST PUSH1 0x0 PUSH1 0x20 DUP3 ADD SWAP1 POP SWAP2 SWAP1 POP JUMP JUMPDEST PUSH1 0x0 PUSH2 0x2020 DUP3 PUSH2 0x1ECD JUMP JUMPDEST PUSH2 0x202A DUP2 DUP6 PUSH2 0x1ED8 JUMP JUMPDEST SWAP4 POP DUP4 PUSH1 0x20 DUP3 MUL DUP6 ADD PUSH2 0x203C DUP6 PUSH2 0x1EE9 JUMP JUMPDEST DUP1 PUSH1 0x0 JUMPDEST DUP6 DUP2 LT ISZERO PUSH2 0x2078 JUMPI DUP5 DUP5 SUB DUP10 MSTORE DUP2 MLOAD PUSH2 0x2059 DUP6 DUP3 PUSH2 0x1FF4 JUMP JUMPDEST SWAP5 POP PUSH2 0x2064 DUP4 PUSH2 0x2008 JUMP JUMPDEST SWAP3 POP PUSH1 0x20 DUP11 ADD SWAP10 POP POP PUSH1 0x1 DUP2 ADD SWAP1 POP PUSH2 0x2040 JUMP JUMPDEST POP DUP3 SWAP8 POP DUP8 SWAP6 POP POP POP POP POP POP SWAP3 SWAP2 POP POP JUMP JUMPDEST PUSH2 0x2093 DUP2 PUSH2 0x19FD JUMP JUMPDEST DUP3 MSTORE POP POP JUMP JUMPDEST PUSH1 0x0 PUSH2 0x280 DUP4 ADD PUSH1 0x0 DUP4 ADD MLOAD PUSH2 0x20B2 PUSH1 0x0 DUP7 ADD DUP3 PUSH2 0x1B88 JUMP JUMPDEST POP PUSH1 0x20 DUP4 ADD MLOAD DUP5 DUP3 SUB PUSH1 0x20 DUP7 ADD MSTORE PUSH2 0x20CA DUP3 DUP3 PUSH2 0x1BB3 JUMP JUMPDEST SWAP2 POP POP PUSH1 0x40 DUP4 ADD MLOAD DUP5 DUP3 SUB PUSH1 0x40 DUP7 ADD MSTORE PUSH2 0x20E4 DUP3 DUP3 PUSH2 0x1BB3 JUMP JUMPDEST SWAP2 POP POP PUSH1 0x60 DUP4 ADD MLOAD PUSH2 0x20F9 PUSH1 0x60 DUP7 ADD DUP3 PUSH2 0x1B88 JUMP JUMPDEST POP PUSH1 0x80 DUP4 ADD MLOAD DUP5 DUP3 SUB PUSH1 0x80 DUP7 ADD MSTORE PUSH2 0x2111 DUP3 DUP3 PUSH2 0x1BB3 JUMP JUMPDEST SWAP2 POP POP PUSH1 0xA0 DUP4 ADD MLOAD DUP5 DUP3 SUB PUSH1 0xA0 DUP7 ADD MSTORE PUSH2 0x212B DUP3 DUP3 PUSH2 0x1BB3 JUMP JUMPDEST SWAP2 POP POP PUSH1 0xC0 DUP4 ADD MLOAD DUP5 DUP3 SUB PUSH1 0xC0 DUP7 ADD MSTORE PUSH2 0x2145 DUP3 DUP3 PUSH2 0x1C39 JUMP JUMPDEST SWAP2 POP POP PUSH1 0xE0 DUP4 ADD MLOAD PUSH2 0x215A PUSH1 0xE0 DUP7 ADD DUP3 PUSH2 0x1B88 JUMP JUMPDEST POP PUSH2 0x100 DUP4 ADD MLOAD PUSH2 0x216F PUSH2 0x100 DUP7 ADD DUP3 PUSH2 0x1B88 JUMP JUMPDEST POP PUSH2 0x120 DUP4 ADD MLOAD PUSH2 0x2184 PUSH2 0x120 DUP7 ADD DUP3 PUSH2 0x1CAE JUMP JUMPDEST POP PUSH2 0x140 DUP4 ADD MLOAD PUSH2 0x2199 PUSH2 0x140 DUP7 ADD DUP3 PUSH2 0x1CAE JUMP JUMPDEST POP PUSH2 0x160 DUP4 ADD MLOAD PUSH2 0x21AE PUSH2 0x160 DUP7 ADD DUP3 PUSH2 0x1B88 JUMP JUMPDEST POP PUSH2 0x180 DUP4 ADD MLOAD DUP5 DUP3 SUB PUSH2 0x180 DUP7 ADD MSTORE PUSH2 0x21C8 DUP3 DUP3 PUSH2 0x1E58 JUMP JUMPDEST SWAP2 POP POP PUSH2 0x1A0 DUP4 ADD MLOAD DUP5 DUP3 SUB PUSH2 0x1A0 DUP7 ADD MSTORE PUSH2 0x21E4 DUP3 DUP3 PUSH2 0x2015 JUMP JUMPDEST SWAP2 POP POP PUSH2 0x1C0 DUP4 ADD MLOAD DUP5 DUP3 SUB PUSH2 0x1C0 DUP7 ADD MSTORE PUSH2 0x2200 DUP3 DUP3 PUSH2 0x2015 JUMP JUMPDEST SWAP2 POP POP PUSH2 0x1E0 DUP4 ADD MLOAD PUSH2 0x2217 PUSH2 0x1E0 DUP7 ADD DUP3 PUSH2 0x1B88 JUMP JUMPDEST POP PUSH2 0x200 DUP4 ADD MLOAD PUSH2 0x222C PUSH2 0x200 DUP7 ADD DUP3 PUSH2 0x1B88 JUMP JUMPDEST POP PUSH2 0x220 DUP4 ADD MLOAD PUSH2 0x2241 PUSH2 0x220 DUP7 ADD DUP3 PUSH2 0x1CAE JUMP JUMPDEST POP PUSH2 0x240 DUP4 ADD MLOAD PUSH2 0x2256 PUSH2 0x240 DUP7 ADD DUP3 PUSH2 0x1CAE JUMP JUMPDEST POP PUSH2 0x260 DUP4 ADD MLOAD PUSH2 0x226B PUSH2 0x260 DUP7 ADD DUP3 PUSH2 0x208A JUMP JUMPDEST POP DUP1 SWAP2 POP POP SWAP3 SWAP2 POP POP JUMP JUMPDEST PUSH1 0x0 PUSH1 0x40 DUP3 ADD SWAP1 POP PUSH2 0x228B PUSH1 0x0 DUP4 ADD DUP6 PUSH2 0x10CF JUMP JUMPDEST DUP2 DUP2 SUB PUSH1 0x20 DUP4 ADD MSTORE PUSH2 0x229D DUP2 DUP5 PUSH2 0x2099 JUMP JUMPDEST SWAP1 POP SWAP4 SWAP3 POP POP POP JUMP INVALID LOG2 PUSH5 0x6970667358 0x22 SLT KECCAK256 0xE2 0xC6 JUMPI CALLDATACOPY PUSH24 0x1F3F32AA8B6B2257BB6F4F266B12648DDBE2B45DB4CE2D79 0xDB SGT 0xF8 PUSH5 0x736F6C6343 STOP ADDMOD GT STOP CALLER "
		},
		"gasEstimates": {
			"creation": {
				"codeDepositCost": "1784800",
				"executionCost": "infinite",
				"totalCost": "infinite"
			},
			"external": {
				"endTransAccept(address,uint256)": "infinite",
				"postProject((uint256,string,string,uint256,string,string,string[],uint256,uint256,bool,bool,uint256,((string,uint256,uint256,uint256,uint256,uint256,string),uint256,uint8,uint256)[],(address,uint256[])[],(address,uint256[])[],uint256,uint256,bool,bool,uint8))": "infinite"
			},
			"internal": {
				"_endTransAccept(address,uint256)": "infinite",
				"_postProject(struct LibProject.TranslationPro memory)": "infinite"
			}
		},
		"methodIdentifiers": {
			"endTransAccept(address,uint256)": "3c3d99dc",
			"postProject((uint256,string,string,uint256,string,string,string[],uint256,uint256,bool,bool,uint256,((string,uint256,uint256,uint256,uint256,uint256,string),uint256,uint8,uint256)[],(address,uint256[])[],(address,uint256[])[],uint256,uint256,bool,bool,uint8))": "8e992e39"
		}
	},
	"abi": [
		{
			"inputs": [
				{
					"internalType": "address",
					"name": "_serAddress",
					"type": "address"
				}
			],
			"stateMutability": "nonpayable",
			"type": "constructor"
		},
		{
			"inputs": [
				{
					"internalType": "address",
					"name": "_buyer",
					"type": "address"
				},
				{
					"internalType": "uint256",
					"name": "_index",
					"type": "uint256"
				}
			],
			"name": "endTransAccept",
			"outputs": [],
			"stateMutability": "nonpayable",
			"type": "function"
		},
		{
			"inputs": [
				{
					"components": [
						{
							"internalType": "uint256",
							"name": "releaseTime",
							"type": "uint256"
						},
						{
							"internalType": "string",
							"name": "introduce",
							"type": "string"
						},
						{
							"internalType": "string",
							"name": "need",
							"type": "string"
						},
						{
							"internalType": "uint256",
							"name": "deadline",
							"type": "uint256"
						},
						{
							"internalType": "string",
							"name": "sourceLanguage",
							"type": "string"
						},
						{
							"internalType": "string",
							"name": "goalLanguage",
							"type": "string"
						},
						{
							"internalType": "string[]",
							"name": "preferList",
							"type": "string[]"
						},
						{
							"internalType": "uint256",
							"name": "translationType",
							"type": "uint256"
						},
						{
							"internalType": "uint256",
							"name": "workLoad",
							"type": "uint256"
						},
						{
							"internalType": "bool",
							"name": "isNonDisclosure",
							"type": "bool"
						},
						{
							"internalType": "bool",
							"name": "isCustomize",
							"type": "bool"
						},
						{
							"internalType": "uint256",
							"name": "bounty",
							"type": "uint256"
						},
						{
							"components": [
								{
									"components": [
										{
											"internalType": "string",
											"name": "name",
											"type": "string"
										},
										{
											"internalType": "uint256",
											"name": "size",
											"type": "uint256"
										},
										{
											"internalType": "uint256",
											"name": "videoLength",
											"type": "uint256"
										},
										{
											"internalType": "uint256",
											"name": "Page",
											"type": "uint256"
										},
										{
											"internalType": "uint256",
											"name": "words",
											"type": "uint256"
										},
										{
											"internalType": "uint256",
											"name": "fileType",
											"type": "uint256"
										},
										{
											"internalType": "string",
											"name": "path",
											"type": "string"
										}
									],
									"internalType": "struct LibProject.FileInfo",
									"name": "file",
									"type": "tuple"
								},
								{
									"internalType": "uint256",
									"name": "bounty",
									"type": "uint256"
								},
								{
									"internalType": "enum LibProject.FileState",
									"name": "state",
									"type": "uint8"
								},
								{
									"internalType": "uint256",
									"name": "lastUpload",
									"type": "uint256"
								}
							],
							"internalType": "struct LibProject.TaskInfo[]",
							"name": "tasks",
							"type": "tuple[]"
						},
						{
							"components": [
								{
									"internalType": "address",
									"name": "taskerAddress",
									"type": "address"
								},
								{
									"internalType": "uint256[]",
									"name": "taskIndex",
									"type": "uint256[]"
								}
							],
							"internalType": "struct LibProject.Tasker[]",
							"name": "translators",
							"type": "tuple[]"
						},
						{
							"components": [
								{
									"internalType": "address",
									"name": "taskerAddress",
									"type": "address"
								},
								{
									"internalType": "uint256[]",
									"name": "taskIndex",
									"type": "uint256[]"
								}
							],
							"internalType": "struct LibProject.Tasker[]",
							"name": "verifiers",
							"type": "tuple[]"
						},
						{
							"internalType": "uint256",
							"name": "maxT",
							"type": "uint256"
						},
						{
							"internalType": "uint256",
							"name": "maxV",
							"type": "uint256"
						},
						{
							"internalType": "bool",
							"name": "isTransActive",
							"type": "bool"
						},
						{
							"internalType": "bool",
							"name": "isVerActive",
							"type": "bool"
						},
						{
							"internalType": "enum LibProject.ProjectState",
							"name": "state",
							"type": "uint8"
						}
					],
					"internalType": "struct LibProject.TranslationPro",
					"name": "_t",
					"type": "tuple"
				}
			],
			"name": "postProject",
			"outputs": [
				{
					"internalType": "uint256",
					"name": "",
					"type": "uint256"
				}
			],
			"stateMutability": "nonpayable",
			"type": "function"
		}
	]
}