{
	"data": {
		"bytecode": {
			"linkReferences": {},
			"object": "608060405234801561001057600080fd5b5061674d80620000216000396000f3fe608060405234801561001057600080fd5b50600436106101585760003560e01c8063ae6008e3116100c3578063eef10ae61161007c578063eef10ae6146103cf578063f0f3f2c814610400578063f501aa8e14610430578063f8626ebb14610460578063fe4bfa4a14610490578063ffbafdfe146104ac57610158565b8063ae6008e3146102ff578063be7603c71461031b578063d2fed69c1461034b578063df3a726f1461037b578063e6cfdf1f14610397578063ea60f28c146103b357610158565b80638a9a9ff3116101155780638a9a9ff3146102415780638fa49f84146102715780639ec44abc1461028d578063a43edcbd146102a9578063a7788567146102c5578063a87d942c146102e157610158565b806325e78e701461015d578063311bcedf1461018d5780634fb36606146101a957806362583a28146101c55780637c34eb85146101e15780638480037014610211575b600080fd5b61017760048036038101906101729190614b7b565b6104c8565b6040516101849190615b73565b60405180910390f35b6101a760048036038101906101a29190614ded565b6110fd565b005b6101c360048036038101906101be9190614b7b565b611280565b005b6101df60048036038101906101da9190614d9a565b6112ed565b005b6101fb60048036038101906101f69190614b7b565b61139e565b6040516102089190615ae8565b60405180910390f35b61022b60048036038101906102269190614d07565b6113ca565b6040516102389190615b51565b60405180910390f35b61025b60048036038101906102569190614c2b565b611638565b6040516102689190615ae8565b60405180910390f35b61028b60048036038101906102869190614e54565b611687565b005b6102a760048036038101906102a29190614ba8565b6117e3565b005b6102c360048036038101906102be9190614cab565b611b6d565b005b6102df60048036038101906102da9190614ba8565b611f32565b005b6102e96122bc565b6040516102f69190615b95565b60405180910390f35b61031960048036038101906103149190614ecf565b6122c6565b005b61033560048036038101906103309190614d07565b6123ec565b6040516103429190615b51565b60405180910390f35b61036560048036038101906103609190614b7b565b61265a565b6040516103729190615b95565b60405180910390f35b61039560048036038101906103909190614b7b565b612944565b005b6103b160048036038101906103ac9190614b7b565b6129b1565b005b6103cd60048036038101906103c89190614b7b565b612a1e565b005b6103e960048036038101906103e49190614d47565b612a8b565b6040516103f7929190615ab8565b60405180910390f35b61041a60048036038101906104159190614b7b565b612bc5565b6040516104279190615b73565b60405180910390f35b61044a60048036038101906104459190614b32565b6137fa565b6040516104579190615b95565b60405180910390f35b61047a60048036038101906104759190614b7b565b613b76565b6040516104879190615b95565b60405180910390f35b6104aa60048036038101906104a59190614ded565b613e60565b005b6104c660048036038101906104c19190614c6b565b613fe3565b005b6104d06140f3565b600080838152602001908152602001600020604051806102a00160405290816000820160009054906101000a900473ffffffffffffffffffffffffffffffffffffffff1673ffffffffffffffffffffffffffffffffffffffff1673ffffffffffffffffffffffffffffffffffffffff1681526020016001820154815260200160028201805461055e90616327565b80601f016020809104026020016040519081016040528092919081815260200182805461058a90616327565b80156105d75780601f106105ac576101008083540402835291602001916105d7565b820191906000526020600020905b8154815290600101906020018083116105ba57829003601f168201915b505050505081526020016003820180546105f090616327565b80601f016020809104026020016040519081016040528092919081815260200182805461061c90616327565b80156106695780601f1061063e57610100808354040283529160200191610669565b820191906000526020600020905b81548152906001019060200180831161064c57829003601f168201915b505050505081526020016004820154815260200160058201805461068c90616327565b80601f01602080910402602001604051908101604052809291908181526020018280546106b890616327565b80156107055780601f106106da57610100808354040283529160200191610705565b820191906000526020600020905b8154815290600101906020018083116106e857829003601f168201915b5050505050815260200160068201805461071e90616327565b80601f016020809104026020016040519081016040528092919081815260200182805461074a90616327565b80156107975780601f1061076c57610100808354040283529160200191610797565b820191906000526020600020905b81548152906001019060200180831161077a57829003601f168201915b5050505050815260200160078201805480602002602001604051908101604052809291908181526020016000905b828210156108715783829060005260206000200180546107e490616327565b80601f016020809104026020016040519081016040528092919081815260200182805461081090616327565b801561085d5780601f106108325761010080835404028352916020019161085d565b820191906000526020600020905b81548152906001019060200180831161084057829003601f168201915b5050505050815260200190600101906107c5565b5050505081526020016008820154815260200160098201548152602001600a820160009054906101000a900460ff16151515158152602001600a820160019054906101000a900460ff16151515158152602001600b8201548152602001600c8201805480602002602001604051908101604052809291908181526020016000905b82821015610b6f57838290600052602060002090600b02016040518060a0016040529081600082016040518060e001604052908160008201805461093590616327565b80601f016020809104026020016040519081016040528092919081815260200182805461096190616327565b80156109ae5780601f10610983576101008083540402835291602001916109ae565b820191906000526020600020905b81548152906001019060200180831161099157829003601f168201915b5050505050815260200160018201548152602001600282015481526020016003820154815260200160048201548152602001600582015481526020016006820180546109f990616327565b80601f0160208091040260200160405190810160405280929190818152602001828054610a2590616327565b8015610a725780601f10610a4757610100808354040283529160200191610a72565b820191906000526020600020905b815481529060010190602001808311610a5557829003601f168201915b505050505081525050815260200160078201548152602001600882018054610a9990616327565b80601f0160208091040260200160405190810160405280929190818152602001828054610ac590616327565b8015610b125780601f10610ae757610100808354040283529160200191610b12565b820191906000526020600020905b815481529060010190602001808311610af557829003601f168201915b505050505081526020016009820160009054906101000a900460ff166005811115610b4057610b3f616431565b5b6005811115610b5257610b51616431565b5b8152602001600a82015481525050815260200190600101906108f2565b505050508152602001600d8201805480602002602001604051908101604052809291908181526020016000905b82821015610dec57838290600052602060002090600502016040518060a00160405290816000820160009054906101000a900473ffffffffffffffffffffffffffffffffffffffff1673ffffffffffffffffffffffffffffffffffffffff1673ffffffffffffffffffffffffffffffffffffffff16815260200160018201805480602002602001604051908101604052809291908181526020018280548015610c6457602002820191906000526020600020905b815481526020019060010190808311610c50575b5050505050815260200160028201805480602002602001604051908101604052809291908181526020018280548015610cf157602002820191906000526020600020906000905b82829054906101000a900460ff166005811115610ccb57610cca616431565b5b81526020019060010190602082600001049283019260010382029150808411610cab5790505b5050505050815260200160038201805480602002602001604051908101604052809291908181526020016000905b82821015610dcb578382906000526020600020018054610d3e90616327565b80601f0160208091040260200160405190810160405280929190818152602001828054610d6a90616327565b8015610db75780601f10610d8c57610100808354040283529160200191610db7565b820191906000526020600020905b815481529060010190602001808311610d9a57829003601f168201915b505050505081526020019060010190610d1f565b50505050815260200160048201548152505081526020019060010190610b9c565b505050508152602001600e8201805480602002602001604051908101604052809291908181526020016000905b8282101561106957838290600052602060002090600502016040518060a00160405290816000820160009054906101000a900473ffffffffffffffffffffffffffffffffffffffff1673ffffffffffffffffffffffffffffffffffffffff1673ffffffffffffffffffffffffffffffffffffffff16815260200160018201805480602002602001604051908101604052809291908181526020018280548015610ee157602002820191906000526020600020905b815481526020019060010190808311610ecd575b5050505050815260200160028201805480602002602001604051908101604052809291908181526020018280548015610f6e57602002820191906000526020600020906000905b82829054906101000a900460ff166005811115610f4857610f47616431565b5b81526020019060010190602082600001049283019260010382029150808411610f285790505b5050505050815260200160038201805480602002602001604051908101604052809291908181526020016000905b82821015611048578382906000526020600020018054610fbb90616327565b80601f0160208091040260200160405190810160405280929190818152602001828054610fe790616327565b80156110345780601f1061100957610100808354040283529160200191611034565b820191906000526020600020905b81548152906001019060200180831161101757829003601f168201915b505050505081526020019060010190610f9c565b50505050815260200160048201548152505081526020019060010190610e19565b505050508152602001600f8201548152602001601082015481526020016011820160009054906101000a900460ff161515151581526020016011820160019054906101000a900460ff161515151581526020016011820160029054906101000a900460ff1660058111156110e0576110df616431565b5b60058111156110f2576110f1616431565b5b815250509050919050565b836001151560008083815260200190815260200160002060110160019054906101000a900460ff161515148061114157506000151561113d826000611638565b1515145b1561118357806040517fa0f2fa6e00000000000000000000000000000000000000000000000000000000815260040161117a9190615b23565b60405180910390fd5b6000806000878152602001908152602001600020600e0184815481106111ac576111ab61648f565b5b906000526020600020906005020190508060010185908060018154018082558091505060019003906000526020600020016000909190919091505560006111f2876104c8565b6101a0015186815181106112095761120861648f565b5b60200260200101516020015190506112208161405d565b8260040160008282546112339190616119565b925050819055507f42464f2a0157d4ce4c9f85bf5cb19bfd2f20f71a6bf72e9f0b026828b82d04218787878760405161126f9493929190615e34565b60405180910390a150505050505050565b600160008083815260200190815260200160002060110160006101000a81548160ff0219169083151502179055507f0dab2890e878ef6d9a9f1d69f761d77bf93c6049fccaa71abc31baa20493179a338260016040516112e2939291906159e6565b60405180910390a150565b6000806000858152602001908152602001600020600c0183815481106113165761131561648f565b5b90600052602060002090600b02019050818160090160006101000a81548160ff0219169083600581111561134d5761134c616431565b5b02179055504281600a01819055507f2daa2b191f7503db9793a6ac4672f793306e9f14a9e12053446280e0579b141e848433856040516113909493929190615d26565b60405180910390a150505050565b6000806000838152602001908152602001600020600a0160019054906101000a900460ff169050919050565b6113d26141c3565b600080848152602001908152602001600020600d0182815481106113f9576113f861648f565b5b90600052602060002090600502016040518060a00160405290816000820160009054906101000a900473ffffffffffffffffffffffffffffffffffffffff1673ffffffffffffffffffffffffffffffffffffffff1673ffffffffffffffffffffffffffffffffffffffff168152602001600182018054806020026020016040519081016040528092919081815260200182805480156114b757602002820191906000526020600020905b8154815260200190600101908083116114a3575b505050505081526020016002820180548060200260200160405190810160405280929190818152602001828054801561154457602002820191906000526020600020906000905b82829054906101000a900460ff16600581111561151e5761151d616431565b5b815260200190600101906020826000010492830192600103820291508084116114fe5790505b5050505050815260200160038201805480602002602001604051908101604052809291908181526020016000905b8282101561161e57838290600052602060002001805461159190616327565b80601f01602080910402602001604051908101604052809291908181526020018280546115bd90616327565b801561160a5780601f106115df5761010080835404028352916020019161160a565b820191906000526020600020905b8154815290600101906020018083116115ed57829003601f168201915b505050505081526020019060010190611572565b505050508152602001600482015481525050905092915050565b600080600080858152602001908152602001600020600c018054905090506000831561166e576116678561265a565b905061167a565b61167785613b76565b90505b8181149250505092915050565b80156117165781600080878152602001908152602001600020600d0185815481106116b5576116b461648f565b5b906000526020600020906005020160020184815481106116d8576116d761648f565b5b90600052602060002090602091828204019190066101000a81548160ff0219169083600581111561170c5761170b616431565b5b021790555061179b565b81600080878152602001908152602001600020600e01858154811061173e5761173d61648f565b5b906000526020600020906005020160020184815481106117615761176061648f565b5b90600052602060002090602091828204019190066101000a81548160ff0219169083600581111561179557611794616431565b5b02179055505b7f7a4c6c6d31a8e32b7079ed0a441635f6962895829ff2d261acff68a91cc0c9c58585853386866040516117d496959493929190615d6b565b60405180910390a15050505050565b836000151560008083815260200190815260200160002060110160009054906101000a900460ff1615151480611827575060011515611823826001611638565b1515145b1561186957806040517fa0f2fa6e0000000000000000000000000000000000000000000000000000000081526004016118609190615b23565b60405180910390fd5b6000831415611a6f576000806000878152602001908152602001600020600d0190506118936141c3565b83816000019073ffffffffffffffffffffffffffffffffffffffff16908173ffffffffffffffffffffffffffffffffffffffff168152505085816020018190525060005b86518110156119455760006118eb896104c8565b6101a0015182815181106119025761190161648f565b5b602002602001015160200151905061191981614080565b8360800181815161192a9190616119565b9150818152505050808061193d9061638a565b9150506118d7565b508181908060018154018082558091505060019003906000526020600020906005020160009091909190915060008201518160000160006101000a81548173ffffffffffffffffffffffffffffffffffffffff021916908373ffffffffffffffffffffffffffffffffffffffff16021790555060208201518160010190805190602001906119d4929190614208565b5060408201518160020190805190602001906119f1929190614255565b506060820151816003019080519060200190611a0e92919061430b565b506080820151816004015550507fe0705e150b28965a46d4bb97481ff88f99b107a8b840f7d14724cd1ee39fd389878760018580549050611a4f91906161fa565b87604051611a609493929190615bb0565b60405180910390a15050611b4c565b6000806000878152602001908152602001600020600d018481548110611a9857611a9761648f565b5b9060005260206000209060050201905060005b8551811015611b0c5781600101868281518110611acb57611aca61648f565b5b602002602001015190806001815401808255809150506001900390600052602060002001600090919091909150558080611b049061638a565b915050611aab565b507fe0705e150b28965a46d4bb97481ff88f99b107a8b840f7d14724cd1ee39fd38986868686604051611b429493929190615c6e565b60405180910390a1505b611b57856001611638565b15611b6657611b6585612a1e565b5b5050505050565b813373ffffffffffffffffffffffffffffffffffffffff16611b8e826104c8565b6000015173ffffffffffffffffffffffffffffffffffffffff1614611be8576040517f08c379a0000000000000000000000000000000000000000000000000000000008152600401611bdf90615b03565b60405180910390fd5b60008060008581526020019081526020016000209050826000015181600101819055508260200151816002019080519060200190611c2792919061436b565b508260400151816003019080519060200190611c4492919061436b565b50826060015181600401819055508260800151816005019080519060200190611c6e92919061436b565b508260a00151816006019080519060200190611c8b92919061436b565b508260c00151816007019080519060200190611ca892919061430b565b508260e001518160080181905550826101000151816009018190555082610160015181600b018190555082610120015181600a0160006101000a81548160ff02191690831515021790555082610140015181600a0160016101000a81548160ff02191690831515021790555060008160110160026101000a81548160ff02191690836005811115611d3c57611d3b616431565b5b0217905550826101a0015181600f0181905550826101c00151816010018190555060018160110160006101000a81548160ff02191690831515021790555060008160110160026101000a81548160ff02191690836005811115611da257611da1616431565b5b021790555060005b83610180015151811015611ef25781600c018461018001518281518110611dd457611dd361648f565b5b602002602001015190806001815401808255809150506001900390600052602060002090600b02016000909190919091506000820151816000016000820151816000019080519060200190611e2a92919061436b565b506020820151816001015560408201518160020155606082015181600301556080820151816004015560a0820151816005015560c0820151816006019080519060200190611e7992919061436b565b505050602082015181600701556040820151816008019080519060200190611ea292919061436b565b5060608201518160090160006101000a81548160ff02191690836005811115611ece57611ecd616431565b5b0217905550608082015181600a015550508080611eea9061638a565b915050611daa565b507f13bd8eb024979aa1a19e47a1032f4dffe5037f93b1ae0a9a67952dbd825108308484604051611f24929190615cf6565b60405180910390a150505050565b836001151560008083815260200190815260200160002060110160019054906101000a900460ff1615151480611f76575060001515611f72826000611638565b1515145b15611fb857806040517fa0f2fa6e000000000000000000000000000000000000000000000000000000008152600401611faf9190615b23565b60405180910390fd5b60008314156121be576000806000878152602001908152602001600020600e019050611fe26141c3565b83816000019073ffffffffffffffffffffffffffffffffffffffff16908173ffffffffffffffffffffffffffffffffffffffff168152505085816020018190525060005b865181101561209457600061203a896104c8565b6101a0015182815181106120515761205061648f565b5b60200260200101516020015190506120688161405d565b836080018181516120799190616119565b9150818152505050808061208c9061638a565b915050612026565b508181908060018154018082558091505060019003906000526020600020906005020160009091909190915060008201518160000160006101000a81548173ffffffffffffffffffffffffffffffffffffffff021916908373ffffffffffffffffffffffffffffffffffffffff1602179055506020820151816001019080519060200190612123929190614208565b506040820151816002019080519060200190612140929190614255565b50606082015181600301908051906020019061215d92919061430b565b506080820151816004015550507fe0705e150b28965a46d4bb97481ff88f99b107a8b840f7d14724cd1ee39fd38987876001858054905061219e91906161fa565b876040516121af9493929190615c0f565b60405180910390a1505061229b565b6000806000878152602001908152602001600020600e0184815481106121e7576121e661648f565b5b9060005260206000209060050201905060005b855181101561225b578160010186828151811061221a5761221961648f565b5b6020026020010151908060018154018082558091505060019003906000526020600020016000909190919091505580806122539061638a565b9150506121fa565b507fe0705e150b28965a46d4bb97481ff88f99b107a8b840f7d14724cd1ee39fd389868686866040516122919493929190615c0f565b60405180910390a1505b6122a6856000611638565b156122b5576122b485612a1e565b5b5050505050565b6000600154905090565b801561233a5781600080878152602001908152602001600020600d0185815481106122f4576122f361648f565b5b906000526020600020906005020160030184815481106123175761231661648f565b5b90600052602060002001908051906020019061233492919061436b565b506123a4565b81600080878152602001908152602001600020600e0185815481106123625761236161648f565b5b906000526020600020906005020160030184815481106123855761238461648f565b5b9060005260206000200190805190602001906123a292919061436b565b505b7f3ebf5ef7e115e4166869b39d9f913e067201db6ced02054116e14e2ab7c4b4a88585853386866040516123dd96959493929190615dcc565b60405180910390a15050505050565b6123f46141c3565b600080848152602001908152602001600020600e01828154811061241b5761241a61648f565b5b90600052602060002090600502016040518060a00160405290816000820160009054906101000a900473ffffffffffffffffffffffffffffffffffffffff1673ffffffffffffffffffffffffffffffffffffffff1673ffffffffffffffffffffffffffffffffffffffff168152602001600182018054806020026020016040519081016040528092919081815260200182805480156124d957602002820191906000526020600020905b8154815260200190600101908083116124c5575b505050505081526020016002820180548060200260200160405190810160405280929190818152602001828054801561256657602002820191906000526020600020906000905b82829054906101000a900460ff1660058111156125405761253f616431565b5b815260200190600101906020826000010492830192600103820291508084116125205790505b5050505050815260200160038201805480602002602001604051908101604052809291908181526020016000905b828210156126405783829060005260206000200180546125b390616327565b80601f01602080910402602001604051908101604052809291908181526020018280546125df90616327565b801561262c5780601f106126015761010080835404028352916020019161262c565b820191906000526020600020905b81548152906001019060200180831161260f57829003601f168201915b505050505081526020019060010190612594565b505050508152602001600482015481525050905092915050565b600080600080848152602001908152602001600020600d01805480602002602001604051908101604052809291908181526020016000905b828210156128e257838290600052602060002090600502016040518060a00160405290816000820160009054906101000a900473ffffffffffffffffffffffffffffffffffffffff1673ffffffffffffffffffffffffffffffffffffffff1673ffffffffffffffffffffffffffffffffffffffff1681526020016001820180548060200260200160405190810160405280929190818152602001828054801561275a57602002820191906000526020600020905b815481526020019060010190808311612746575b50505050508152602001600282018054806020026020016040519081016040528092919081815260200182805480156127e757602002820191906000526020600020906000905b82829054906101000a900460ff1660058111156127c1576127c0616431565b5b815260200190600101906020826000010492830192600103820291508084116127a15790505b5050505050815260200160038201805480602002602001604051908101604052809291908181526020016000905b828210156128c157838290600052602060002001805461283490616327565b80601f016020809104026020016040519081016040528092919081815260200182805461286090616327565b80156128ad5780601f10612882576101008083540402835291602001916128ad565b820191906000526020600020905b81548152906001019060200180831161289057829003601f168201915b505050505081526020019060010190612815565b50505050815260200160048201548152505081526020019060010190612692565b505050509050600080600090505b82518110156129395782818151811061290c5761290b61648f565b5b60200260200101516020015151826129249190616119565b915080806129319061638a565b9150506128f0565b508092505050919050565b600080600083815260200190815260200160002060110160016101000a81548160ff0219169083151502179055507f0dab2890e878ef6d9a9f1d69f761d77bf93c6049fccaa71abc31baa20493179a338260006040516129a693929190615a30565b60405180910390a150565b600160008083815260200190815260200160002060110160016101000a81548160ff0219169083151502179055507f0dab2890e878ef6d9a9f1d69f761d77bf93c6049fccaa71abc31baa20493179a33826001604051612a13939291906159e6565b60405180910390a150565b600080600083815260200190815260200160002060110160006101000a81548160ff0219169083151502179055507f0dab2890e878ef6d9a9f1d69f761d77bf93c6049fccaa71abc31baa20493179a33826000604051612a80939291906159e6565b60405180910390a150565b6060600080612a9986612bc5565b9050606060008515612ad057826101c001518781518110612abd57612abc61648f565b5b6020026020010151604001519150612af7565b826101e001518781518110612ae857612ae761648f565b5b60200260200101516040015191505b606060005b8351811015612bb25760026005811115612b1957612b18616431565b5b848281518110612b2c57612b2b61648f565b5b60200260200101516005811115612b4657612b45616431565b5b1015612b6e578082835181518110612b6157612b6061648f565b5b6020026020010181815250505b846101a001518181518110612b8657612b8561648f565b5b60200260200101516020015183612b9d9190616119565b92508080612baa9061638a565b915050612afc565b5080829550955050505050935093915050565b612bcd6140f3565b600080838152602001908152602001600020604051806102a00160405290816000820160009054906101000a900473ffffffffffffffffffffffffffffffffffffffff1673ffffffffffffffffffffffffffffffffffffffff1673ffffffffffffffffffffffffffffffffffffffff16815260200160018201548152602001600282018054612c5b90616327565b80601f0160208091040260200160405190810160405280929190818152602001828054612c8790616327565b8015612cd45780601f10612ca957610100808354040283529160200191612cd4565b820191906000526020600020905b815481529060010190602001808311612cb757829003601f168201915b50505050508152602001600382018054612ced90616327565b80601f0160208091040260200160405190810160405280929190818152602001828054612d1990616327565b8015612d665780601f10612d3b57610100808354040283529160200191612d66565b820191906000526020600020905b815481529060010190602001808311612d4957829003601f168201915b5050505050815260200160048201548152602001600582018054612d8990616327565b80601f0160208091040260200160405190810160405280929190818152602001828054612db590616327565b8015612e025780601f10612dd757610100808354040283529160200191612e02565b820191906000526020600020905b815481529060010190602001808311612de557829003601f168201915b50505050508152602001600682018054612e1b90616327565b80601f0160208091040260200160405190810160405280929190818152602001828054612e4790616327565b8015612e945780601f10612e6957610100808354040283529160200191612e94565b820191906000526020600020905b815481529060010190602001808311612e7757829003601f168201915b5050505050815260200160078201805480602002602001604051908101604052809291908181526020016000905b82821015612f6e578382906000526020600020018054612ee190616327565b80601f0160208091040260200160405190810160405280929190818152602001828054612f0d90616327565b8015612f5a5780601f10612f2f57610100808354040283529160200191612f5a565b820191906000526020600020905b815481529060010190602001808311612f3d57829003601f168201915b505050505081526020019060010190612ec2565b5050505081526020016008820154815260200160098201548152602001600a820160009054906101000a900460ff16151515158152602001600a820160019054906101000a900460ff16151515158152602001600b8201548152602001600c8201805480602002602001604051908101604052809291908181526020016000905b8282101561326c57838290600052602060002090600b02016040518060a0016040529081600082016040518060e001604052908160008201805461303290616327565b80601f016020809104026020016040519081016040528092919081815260200182805461305e90616327565b80156130ab5780601f10613080576101008083540402835291602001916130ab565b820191906000526020600020905b81548152906001019060200180831161308e57829003601f168201915b5050505050815260200160018201548152602001600282015481526020016003820154815260200160048201548152602001600582015481526020016006820180546130f690616327565b80601f016020809104026020016040519081016040528092919081815260200182805461312290616327565b801561316f5780601f106131445761010080835404028352916020019161316f565b820191906000526020600020905b81548152906001019060200180831161315257829003601f168201915b50505050508152505081526020016007820154815260200160088201805461319690616327565b80601f01602080910402602001604051908101604052809291908181526020018280546131c290616327565b801561320f5780601f106131e45761010080835404028352916020019161320f565b820191906000526020600020905b8154815290600101906020018083116131f257829003601f168201915b505050505081526020016009820160009054906101000a900460ff16600581111561323d5761323c616431565b5b600581111561324f5761324e616431565b5b8152602001600a8201548152505081526020019060010190612fef565b505050508152602001600d8201805480602002602001604051908101604052809291908181526020016000905b828210156134e957838290600052602060002090600502016040518060a00160405290816000820160009054906101000a900473ffffffffffffffffffffffffffffffffffffffff1673ffffffffffffffffffffffffffffffffffffffff1673ffffffffffffffffffffffffffffffffffffffff1681526020016001820180548060200260200160405190810160405280929190818152602001828054801561336157602002820191906000526020600020905b81548152602001906001019080831161334d575b50505050508152602001600282018054806020026020016040519081016040528092919081815260200182805480156133ee57602002820191906000526020600020906000905b82829054906101000a900460ff1660058111156133c8576133c7616431565b5b815260200190600101906020826000010492830192600103820291508084116133a85790505b5050505050815260200160038201805480602002602001604051908101604052809291908181526020016000905b828210156134c857838290600052602060002001805461343b90616327565b80601f016020809104026020016040519081016040528092919081815260200182805461346790616327565b80156134b45780601f10613489576101008083540402835291602001916134b4565b820191906000526020600020905b81548152906001019060200180831161349757829003601f168201915b50505050508152602001906001019061341c565b50505050815260200160048201548152505081526020019060010190613299565b505050508152602001600e8201805480602002602001604051908101604052809291908181526020016000905b8282101561376657838290600052602060002090600502016040518060a00160405290816000820160009054906101000a900473ffffffffffffffffffffffffffffffffffffffff1673ffffffffffffffffffffffffffffffffffffffff1673ffffffffffffffffffffffffffffffffffffffff168152602001600182018054806020026020016040519081016040528092919081815260200182805480156135de57602002820191906000526020600020905b8154815260200190600101908083116135ca575b505050505081526020016002820180548060200260200160405190810160405280929190818152602001828054801561366b57602002820191906000526020600020906000905b82829054906101000a900460ff16600581111561364557613644616431565b5b815260200190600101906020826000010492830192600103820291508084116136255790505b5050505050815260200160038201805480602002602001604051908101604052809291908181526020016000905b828210156137455783829060005260206000200180546136b890616327565b80601f01602080910402602001604051908101604052809291908181526020018280546136e490616327565b80156137315780601f1061370657610100808354040283529160200191613731565b820191906000526020600020905b81548152906001019060200180831161371457829003601f168201915b505050505081526020019060010190613699565b50505050815260200160048201548152505081526020019060010190613516565b505050508152602001600f8201548152602001601082015481526020016011820160009054906101000a900460ff161515151581526020016011820160019054906101000a900460ff161515151581526020016011820160029054906101000a900460ff1660058111156137dd576137dc616431565b5b60058111156137ef576137ee616431565b5b815250509050919050565b60006138046140a3565b60008060006001548152602001908152602001600020905082600001518160010181905550826020015181600201908051906020019061384592919061436b565b50826040015181600301908051906020019061386292919061436b565b5082606001518160040181905550826080015181600501908051906020019061388c92919061436b565b508260a001518160060190805190602001906138a992919061436b565b508260c001518160070190805190602001906138c692919061430b565b508260e001518160080181905550826101000151816009018190555082610160015181600b018190555082610120015181600a0160006101000a81548160ff02191690831515021790555082610140015181600a0160016101000a81548160ff02191690831515021790555060008160110160026101000a81548160ff0219169083600581111561395a57613959616431565b5b0217905550826101a0015181600f0181905550826101c00151816010018190555060018160110160006101000a81548160ff02191690831515021790555060018160110160016101000a81548160ff02191690831515021790555060008160110160026101000a81548160ff021916908360058111156139dd576139dc616431565b5b021790555060005b83610180015151811015613b2d5781600c018461018001518281518110613a0f57613a0e61648f565b5b602002602001015190806001815401808255809150506001900390600052602060002090600b02016000909190919091506000820151816000016000820151816000019080519060200190613a6592919061436b565b506020820151816001015560408201518160020155606082015181600301556080820151816004015560a0820151816005015560c0820151816006019080519060200190613ab492919061436b565b505050602082015181600701556040820151816008019080519060200190613add92919061436b565b5060608201518160090160006101000a81548160ff02191690836005811115613b0957613b08616431565b5b0217905550608082015181600a015550508080613b259061638a565b9150506139e5565b507ffd989d3baabd6a3c76ae101e9a8037ead1322140a770842a81514f7515e9d81e3360015485604051613b6393929190615a7a565b60405180910390a1600154915050919050565b600080600080848152602001908152602001600020600e01805480602002602001604051908101604052809291908181526020016000905b82821015613dfe57838290600052602060002090600502016040518060a00160405290816000820160009054906101000a900473ffffffffffffffffffffffffffffffffffffffff1673ffffffffffffffffffffffffffffffffffffffff1673ffffffffffffffffffffffffffffffffffffffff16815260200160018201805480602002602001604051908101604052809291908181526020018280548015613c7657602002820191906000526020600020905b815481526020019060010190808311613c62575b5050505050815260200160028201805480602002602001604051908101604052809291908181526020018280548015613d0357602002820191906000526020600020906000905b82829054906101000a900460ff166005811115613cdd57613cdc616431565b5b81526020019060010190602082600001049283019260010382029150808411613cbd5790505b5050505050815260200160038201805480602002602001604051908101604052809291908181526020016000905b82821015613ddd578382906000526020600020018054613d5090616327565b80601f0160208091040260200160405190810160405280929190818152602001828054613d7c90616327565b8015613dc95780601f10613d9e57610100808354040283529160200191613dc9565b820191906000526020600020905b815481529060010190602001808311613dac57829003601f168201915b505050505081526020019060010190613d31565b50505050815260200160048201548152505081526020019060010190613bae565b505050509050600080600090505b8251811015613e5557828181518110613e2857613e2761648f565b5b6020026020010151602001515182613e409190616119565b91508080613e4d9061638a565b915050613e0c565b508092505050919050565b836000151560008083815260200190815260200160002060110160009054906101000a900460ff1615151480613ea4575060011515613ea0826001611638565b1515145b15613ee657806040517fa0f2fa6e000000000000000000000000000000000000000000000000000000008152600401613edd9190615b23565b60405180910390fd5b6000806000878152602001908152602001600020600d018481548110613f0f57613f0e61648f565b5b90600052602060002090600502019050806001018590806001815401808255809150506001900390600052602060002001600090919091909150556000613f55876104c8565b6101a001518681518110613f6c57613f6b61648f565b5b6020026020010151602001519050613f8381614080565b826004016000828254613f969190616119565b925050819055507f42464f2a0157d4ce4c9f85bf5cb19bfd2f20f71a6bf72e9f0b026828b82d042187878787604051613fd29493929190615e8c565b60405180910390a150505050505050565b8060008084815260200190815260200160002060110160026101000a81548160ff0219169083600581111561401b5761401a616431565b5b02179055507ff05815fde2beb683b051c459b8261ed061c1164c5e53f2be389201d754bb311e8282604051614051929190615ccd565b60405180910390a15050565b60008061406b83605a6140bd565b90506140788160286140bd565b915050919050565b60008061408e83605a6140bd565b905061409b81603c6140bd565b915050919050565b600160008154809291906140b69061638a565b9190505550565b600060646140cb84846140dd565b6140d5919061616f565b905092915050565b600081836140eb91906161a0565b905092915050565b604051806102a00160405280600073ffffffffffffffffffffffffffffffffffffffff168152602001600081526020016060815260200160608152602001600081526020016060815260200160608152602001606081526020016000815260200160008152602001600015158152602001600015158152602001600081526020016060815260200160608152602001606081526020016000815260200160008152602001600015158152602001600015158152602001600060058111156141bd576141bc616431565b5b81525090565b6040518060a00160405280600073ffffffffffffffffffffffffffffffffffffffff168152602001606081526020016060815260200160608152602001600081525090565b828054828255906000526020600020908101928215614244579160200282015b82811115614243578251825591602001919060010190614228565b5b50905061425191906143f1565b5090565b82805482825590600052602060002090601f016020900481019282156142fa5791602002820160005b838211156142cb57835183826101000a81548160ff021916908360058111156142aa576142a9616431565b5b0217905550926020019260010160208160000104928301926001030261427e565b80156142f85782816101000a81549060ff02191690556001016020816000010492830192600103026142cb565b505b50905061430791906143f1565b5090565b82805482825590600052602060002090810192821561435a579160200282015b8281111561435957825182908051906020019061434992919061436b565b509160200191906001019061432b565b5b509050614367919061440e565b5090565b82805461437790616327565b90600052602060002090601f01602090048101928261439957600085556143e0565b82601f106143b257805160ff19168380011785556143e0565b828001600101855582156143e0579182015b828111156143df5782518255916020019190600101906143c4565b5b5090506143ed91906143f1565b5090565b5b8082111561440a5760008160009055506001016143f2565b5090565b5b8082111561442e57600081816144259190614432565b5060010161440f565b5090565b50805461443e90616327565b6000825580601f10614450575061446f565b601f01602090049060005260206000209081019061446e91906143f1565b5b50565b600061448561448084615f09565b615ee4565b905080838252602082019050828560208602820111156144a8576144a76164fc565b5b60005b858110156144f657813567ffffffffffffffff8111156144ce576144cd6164ed565b5b8086016144db8982614733565b855260208501945060208401935050506001810190506144ab565b5050509392505050565b600061451361450e84615f35565b615ee4565b90508083825260208201905082856020860282011115614536576145356164fc565b5b60005b8581101561458457813567ffffffffffffffff81111561455c5761455b6164ed565b5b8086016145698982614a59565b85526020850194506020840193505050600181019050614539565b5050509392505050565b60006145a161459c84615f61565b615ee4565b905080838252602082019050828560208602820111156145c4576145c36164fc565b5b60005b858110156145f457816145da8882614b1d565b8452602084019350602083019250506001810190506145c7565b5050509392505050565b600061461161460c84615f8d565b615ee4565b90508281526020810184848401111561462d5761462c616501565b5b6146388482856162e5565b509392505050565b60008135905061464f816166a2565b92915050565b600082601f83011261466a576146696164ed565b5b813561467a848260208601614472565b91505092915050565b600082601f830112614698576146976164ed565b5b81356146a8848260208601614500565b91505092915050565b600082601f8301126146c6576146c56164ed565b5b81356146d684826020860161458e565b91505092915050565b6000813590506146ee816166b9565b92915050565b600081359050614703816166d0565b92915050565b600081359050614718816166e0565b92915050565b60008135905061472d816166f0565b92915050565b600082601f830112614748576147476164ed565b5b81356147588482602086016145fe565b91505092915050565b600060e08284031215614777576147766164f2565b5b61478160e0615ee4565b9050600082013567ffffffffffffffff8111156147a1576147a06164f7565b5b6147ad84828501614733565b60008301525060206147c184828501614b1d565b60208301525060406147d584828501614b1d565b60408301525060606147e984828501614b1d565b60608301525060806147fd84828501614b1d565b60808301525060a061481184828501614b1d565b60a08301525060c082013567ffffffffffffffff811115614835576148346164f7565b5b61484184828501614733565b60c08301525092915050565b60006101e08284031215614864576148636164f2565b5b61486f6101e0615ee4565b9050600061487f84828501614b1d565b600083015250602082013567ffffffffffffffff8111156148a3576148a26164f7565b5b6148af84828501614733565b602083015250604082013567ffffffffffffffff8111156148d3576148d26164f7565b5b6148df84828501614733565b60408301525060606148f384828501614b1d565b606083015250608082013567ffffffffffffffff811115614917576149166164f7565b5b61492384828501614733565b60808301525060a082013567ffffffffffffffff811115614947576149466164f7565b5b61495384828501614733565b60a08301525060c082013567ffffffffffffffff811115614977576149766164f7565b5b61498384828501614655565b60c08301525060e061499784828501614b1d565b60e0830152506101006149ac84828501614b1d565b610100830152506101206149c2848285016146df565b610120830152506101406149d8848285016146df565b610140830152506101606149ee84828501614b1d565b6101608301525061018082013567ffffffffffffffff811115614a1457614a136164f7565b5b614a2084828501614683565b610180830152506101a0614a3684828501614b1d565b6101a0830152506101c0614a4c84828501614b1d565b6101c08301525092915050565b600060a08284031215614a6f57614a6e6164f2565b5b614a7960a0615ee4565b9050600082013567ffffffffffffffff811115614a9957614a986164f7565b5b614aa584828501614761565b6000830152506020614ab984828501614b1d565b602083015250604082013567ffffffffffffffff811115614add57614adc6164f7565b5b614ae984828501614733565b6040830152506060614afd848285016146f4565b6060830152506080614b1184828501614b1d565b60808301525092915050565b600081359050614b2c81616700565b92915050565b600060208284031215614b4857614b4761650b565b5b600082013567ffffffffffffffff811115614b6657614b65616506565b5b614b728482850161484d565b91505092915050565b600060208284031215614b9157614b9061650b565b5b6000614b9f84828501614b1d565b91505092915050565b60008060008060808587031215614bc257614bc161650b565b5b6000614bd087828801614b1d565b945050602085013567ffffffffffffffff811115614bf157614bf0616506565b5b614bfd878288016146b1565b9350506040614c0e87828801614b1d565b9250506060614c1f87828801614640565b91505092959194509250565b60008060408385031215614c4257614c4161650b565b5b6000614c5085828601614b1d565b9250506020614c61858286016146df565b9150509250929050565b60008060408385031215614c8257614c8161650b565b5b6000614c9085828601614b1d565b9250506020614ca185828601614709565b9150509250929050565b60008060408385031215614cc257614cc161650b565b5b6000614cd085828601614b1d565b925050602083013567ffffffffffffffff811115614cf157614cf0616506565b5b614cfd8582860161484d565b9150509250929050565b60008060408385031215614d1e57614d1d61650b565b5b6000614d2c85828601614b1d565b9250506020614d3d85828601614b1d565b9150509250929050565b600080600060608486031215614d6057614d5f61650b565b5b6000614d6e86828701614b1d565b9350506020614d7f86828701614b1d565b9250506040614d90868287016146df565b9150509250925092565b600080600060608486031215614db357614db261650b565b5b6000614dc186828701614b1d565b9350506020614dd286828701614b1d565b9250506040614de3868287016146f4565b9150509250925092565b60008060008060808587031215614e0757614e0661650b565b5b6000614e1587828801614b1d565b9450506020614e2687828801614b1d565b9350506040614e3787828801614b1d565b9250506060614e4887828801614640565b91505092959194509250565b600080600080600060a08688031215614e7057614e6f61650b565b5b6000614e7e88828901614b1d565b9550506020614e8f88828901614b1d565b9450506040614ea088828901614b1d565b9350506060614eb18882890161471e565b9250506080614ec2888289016146df565b9150509295509295909350565b600080600080600060a08688031215614eeb57614eea61650b565b5b6000614ef988828901614b1d565b9550506020614f0a88828901614b1d565b9450506040614f1b88828901614b1d565b935050606086013567ffffffffffffffff811115614f3c57614f3b616506565b5b614f4888828901614733565b9250506080614f59888289016146df565b9150509295509295909350565b6000614f7283836152c3565b60208301905092915050565b6000614f8a83836152e1565b905092915050565b6000614f9e8383615651565b905092915050565b6000614fb283836156ce565b905092915050565b6000614fc683836159c8565b60208301905092915050565b614fdb8161622e565b82525050565b614fea8161622e565b82525050565b6000614ffb8261600e565b61500581856160e6565b935061501083615fbe565b8060005b838110156150415781516150288882614f66565b975061503383616050565b925050600181019050615014565b5085935050505092915050565b600061505982616019565b6150638185616091565b93508360208202850161507585615fce565b8060005b858110156150b157848403895281516150928582614f7e565b945061509d8361605d565b925060208a01995050600181019050615079565b50829750879550505050505092915050565b60006150ce82616024565b6150d881856160a2565b9350836020820285016150ea85615fde565b8060005b8581101561512657848403895281516151078582614f92565b94506151128361606a565b925060208a019950506001810190506150ee565b50829750879550505050505092915050565b60006151438261602f565b61514d81856160b3565b93508360208202850161515f85615fee565b8060005b8581101561519b578484038952815161517c8582614fa6565b945061518783616077565b925060208a01995050600181019050615163565b50829750879550505050505092915050565b60006151b88261603a565b6151c281856160c4565b93506151cd83615ffe565b8060005b838110156151fe5781516151e58882614fba565b97506151f083616084565b9250506001810190506151d1565b5085935050505092915050565b60006152168261603a565b61522081856160d5565b935061522b83615ffe565b8060005b8381101561525c5781516152438882614fba565b975061524e83616084565b92505060018101905061522f565b5085935050505092915050565b61527281616240565b82525050565b61528181616240565b82525050565b615290816162af565b82525050565b61529f816162af565b82525050565b6152ae816162c1565b82525050565b6152bd816162c1565b82525050565b6152cc816162d3565b82525050565b6152db816162d3565b82525050565b60006152ec82616045565b6152f681856160f7565b93506153068185602086016162f4565b61530f81616510565b840191505092915050565b600061532582616045565b61532f8185616108565b935061533f8185602086016162f4565b61534881616510565b840191505092915050565b6000615360600a83616108565b915061536b82616521565b602082019050919050565b6000615383601983616108565b915061538e8261654a565b602082019050919050565b60006153a6600983616108565b91506153b182616573565b602082019050919050565b60006153c9600283616108565b91506153d48261659c565b602082019050919050565b60006153ec600b83616108565b91506153f7826165c5565b602082019050919050565b600061540f600283616108565b915061541a826165ee565b602082019050919050565b6000615432602683616108565b915061543d82616617565b604082019050919050565b600060e083016000830151848203600086015261546582826152e1565b915050602083015161547a60208601826159c8565b50604083015161548d60408601826159c8565b5060608301516154a060608601826159c8565b5060808301516154b360808601826159c8565b5060a08301516154c660a08601826159c8565b5060c083015184820360c08601526154de82826152e1565b9150508091505092915050565b60006101e08301600083015161550460008601826159c8565b506020830151848203602086015261551c82826152e1565b9150506040830151848203604086015261553682826152e1565b915050606083015161554b60608601826159c8565b506080830151848203608086015261556382826152e1565b91505060a083015184820360a086015261557d82826152e1565b91505060c083015184820360c0860152615597828261504e565b91505060e08301516155ac60e08601826159c8565b506101008301516155c16101008601826159c8565b506101208301516155d6610120860182615269565b506101408301516155eb610140860182615269565b506101608301516156006101608601826159c8565b5061018083015184820361018086015261561a82826150c3565b9150506101a08301516156316101a08601826159c8565b506101c08301516156466101c08601826159c8565b508091505092915050565b600060a083016000830151848203600086015261566e8282615448565b915050602083015161568360208601826159c8565b506040830151848203604086015261569b82826152e1565b91505060608301516156b06060860182615287565b5060808301516156c360808601826159c8565b508091505092915050565b600060a0830160008301516156e66000860182614fd2565b50602083015184820360208601526156fe82826151ad565b915050604083015184820360408601526157188282614ff0565b91505060608301518482036060860152615732828261504e565b915050608083015161574760808601826159c8565b508091505092915050565b600060a08301600083015161576a6000860182614fd2565b506020830151848203602086015261578282826151ad565b9150506040830151848203604086015261579c8282614ff0565b915050606083015184820360608601526157b6828261504e565b91505060808301516157cb60808601826159c8565b508091505092915050565b60006102a0830160008301516157ef6000860182614fd2565b50602083015161580260208601826159c8565b506040830151848203604086015261581a82826152e1565b9150506060830151848203606086015261583482826152e1565b915050608083015161584960808601826159c8565b5060a083015184820360a086015261586182826152e1565b91505060c083015184820360c086015261587b82826152e1565b91505060e083015184820360e0860152615895828261504e565b9150506101008301516158ac6101008601826159c8565b506101208301516158c16101208601826159c8565b506101408301516158d6610140860182615269565b506101608301516158eb610160860182615269565b506101808301516159006101808601826159c8565b506101a08301518482036101a086015261591a82826150c3565b9150506101c08301518482036101c08601526159368282615138565b9150506101e08301518482036101e08601526159528282615138565b9150506102008301516159696102008601826159c8565b5061022083015161597e6102208601826159c8565b50610240830151615993610240860182615269565b506102608301516159a8610260860182615269565b506102808301516159bd6102808601826152a5565b508091505092915050565b6159d1816162a5565b82525050565b6159e0816162a5565b82525050565b60006080820190506159fb6000830186614fe1565b615a0860208301856159d7565b8181036040830152615a19816153bc565b9050615a286060830184615278565b949350505050565b6000608082019050615a456000830186614fe1565b615a5260208301856159d7565b8181036040830152615a6381615402565b9050615a726060830184615278565b949350505050565b6000606082019050615a8f6000830186614fe1565b615a9c60208301856159d7565b8181036040830152615aae81846154eb565b9050949350505050565b60006040820190508181036000830152615ad2818561520b565b9050615ae160208301846159d7565b9392505050565b6000602082019050615afd6000830184615278565b92915050565b60006020820190508181036000830152615b1c81615376565b9050919050565b60006040820190508181036000830152615b3c81615425565b9050615b4b60208301846159d7565b92915050565b60006020820190508181036000830152615b6b8184615752565b905092915050565b60006020820190508181036000830152615b8d81846157d6565b905092915050565b6000602082019050615baa60008301846159d7565b92915050565b600060a082019050615bc560008301876159d7565b8181036020830152615bd7818661520b565b9050615be660408301856159d7565b615bf36060830184614fe1565b8181036080830152615c0481615353565b905095945050505050565b600060a082019050615c2460008301876159d7565b8181036020830152615c36818661520b565b9050615c4560408301856159d7565b615c526060830184614fe1565b8181036080830152615c6381615399565b905095945050505050565b600060a082019050615c8360008301876159d7565b8181036020830152615c95818661520b565b9050615ca460408301856159d7565b615cb16060830184614fe1565b8181036080830152615cc2816153df565b905095945050505050565b6000604082019050615ce260008301856159d7565b615cef60208301846152b4565b9392505050565b6000604082019050615d0b60008301856159d7565b8181036020830152615d1d81846154eb565b90509392505050565b6000608082019050615d3b60008301876159d7565b615d4860208301866159d7565b615d556040830185614fe1565b615d626060830184615296565b95945050505050565b600060c082019050615d8060008301896159d7565b615d8d60208301886159d7565b615d9a60408301876159d7565b615da76060830186614fe1565b615db460808301856152d2565b615dc160a0830184615278565b979650505050505050565b600060c082019050615de160008301896159d7565b615dee60208301886159d7565b615dfb60408301876159d7565b615e086060830186614fe1565b8181036080830152615e1a818561531a565b9050615e2960a0830184615278565b979650505050505050565b600060a082019050615e4960008301876159d7565b615e5660208301866159d7565b615e6360408301856159d7565b615e706060830184614fe1565b8181036080830152615e8181615399565b905095945050505050565b600060a082019050615ea160008301876159d7565b615eae60208301866159d7565b615ebb60408301856159d7565b615ec86060830184614fe1565b8181036080830152615ed9816153df565b905095945050505050565b6000615eee615eff565b9050615efa8282616359565b919050565b6000604051905090565b600067ffffffffffffffff821115615f2457615f236164be565b5b602082029050602081019050919050565b600067ffffffffffffffff821115615f5057615f4f6164be565b5b602082029050602081019050919050565b600067ffffffffffffffff821115615f7c57615f7b6164be565b5b602082029050602081019050919050565b600067ffffffffffffffff821115615fa857615fa76164be565b5b615fb182616510565b9050602081019050919050565b6000819050602082019050919050565b6000819050602082019050919050565b6000819050602082019050919050565b6000819050602082019050919050565b6000819050602082019050919050565b600081519050919050565b600081519050919050565b600081519050919050565b600081519050919050565b600081519050919050565b600081519050919050565b6000602082019050919050565b6000602082019050919050565b6000602082019050919050565b6000602082019050919050565b6000602082019050919050565b600082825260208201905092915050565b600082825260208201905092915050565b600082825260208201905092915050565b600082825260208201905092915050565b600082825260208201905092915050565b600082825260208201905092915050565b600082825260208201905092915050565b600082825260208201905092915050565b6000616124826162a5565b915061612f836162a5565b9250827fffffffffffffffffffffffffffffffffffffffffffffffffffffffffffffffff03821115616164576161636163d3565b5b828201905092915050565b600061617a826162a5565b9150616185836162a5565b92508261619557616194616402565b5b828204905092915050565b60006161ab826162a5565b91506161b6836162a5565b9250817fffffffffffffffffffffffffffffffffffffffffffffffffffffffffffffffff04831182151516156161ef576161ee6163d3565b5b828202905092915050565b6000616205826162a5565b9150616210836162a5565b925082821015616223576162226163d3565b5b828203905092915050565b600061623982616285565b9050919050565b60008115159050919050565b600081905061625a82616666565b919050565b600081905061626d8261667a565b919050565b60008190506162808261668e565b919050565b600073ffffffffffffffffffffffffffffffffffffffff82169050919050565b6000819050919050565b60006162ba8261624c565b9050919050565b60006162cc8261625f565b9050919050565b60006162de82616272565b9050919050565b82818337600083830152505050565b60005b838110156163125780820151818401526020810190506162f7565b83811115616321576000848401525b50505050565b6000600282049050600182168061633f57607f821691505b6020821081141561635357616352616460565b5b50919050565b61636282616510565b810181811067ffffffffffffffff82111715616381576163806164be565b5b80604052505050565b6000616395826162a5565b91507fffffffffffffffffffffffffffffffffffffffffffffffffffffffffffffffff8214156163c8576163c76163d3565b5b600182019050919050565b7f4e487b7100000000000000000000000000000000000000000000000000000000600052601160045260246000fd5b7f4e487b7100000000000000000000000000000000000000000000000000000000600052601260045260246000fd5b7f4e487b7100000000000000000000000000000000000000000000000000000000600052602160045260246000fd5b7f4e487b7100000000000000000000000000000000000000000000000000000000600052602260045260246000fd5b7f4e487b7100000000000000000000000000000000000000000000000000000000600052603260045260246000fd5b7f4e487b7100000000000000000000000000000000000000000000000000000000600052604160045260246000fd5b600080fd5b600080fd5b600080fd5b600080fd5b600080fd5b600080fd5b600080fd5b6000601f19601f8301169050919050565b7f7472616e736c61746f7200000000000000000000000000000000000000000000600082015250565b7f4f6e6c792062757965722063616e2063616c6c20746869732e00000000000000600082015250565b7f7665726966696572730000000000000000000000000000000000000000000000600082015250565b7f7473000000000000000000000000000000000000000000000000000000000000600082015250565b7f7472616e736c61746f7273000000000000000000000000000000000000000000600082015250565b7f7666000000000000000000000000000000000000000000000000000000000000600082015250565b7f4f7065726174696f6e457863657074696f6e3a2043616e27742072656365697660008201527f65207461736b0000000000000000000000000000000000000000000000000000602082015250565b6006811061667757616676616431565b5b50565b6006811061668b5761668a616431565b5b50565b6006811061669f5761669e616431565b5b50565b6166ab8161622e565b81146166b657600080fd5b50565b6166c281616240565b81146166cd57600080fd5b50565b600681106166dd57600080fd5b50565b600681106166ed57600080fd5b50565b600681106166fd57600080fd5b50565b616709816162a5565b811461671457600080fd5b5056fea2646970667358221220113c85af8c2caf9687601c48a4d76f8f5d0777fe41ba1d33ed9f9aac11ed35db64736f6c63430008070033",
			"opcodes": "PUSH1 0x80 PUSH1 0x40 MSTORE CALLVALUE DUP1 ISZERO PUSH2 0x10 JUMPI PUSH1 0x0 DUP1 REVERT JUMPDEST POP PUSH2 0x674D DUP1 PUSH3 0x21 PUSH1 0x0 CODECOPY PUSH1 0x0 RETURN INVALID PUSH1 0x80 PUSH1 0x40 MSTORE CALLVALUE DUP1 ISZERO PUSH2 0x10 JUMPI PUSH1 0x0 DUP1 REVERT JUMPDEST POP PUSH1 0x4 CALLDATASIZE LT PUSH2 0x158 JUMPI PUSH1 0x0 CALLDATALOAD PUSH1 0xE0 SHR DUP1 PUSH4 0xAE6008E3 GT PUSH2 0xC3 JUMPI DUP1 PUSH4 0xEEF10AE6 GT PUSH2 0x7C JUMPI DUP1 PUSH4 0xEEF10AE6 EQ PUSH2 0x3CF JUMPI DUP1 PUSH4 0xF0F3F2C8 EQ PUSH2 0x400 JUMPI DUP1 PUSH4 0xF501AA8E EQ PUSH2 0x430 JUMPI DUP1 PUSH4 0xF8626EBB EQ PUSH2 0x460 JUMPI DUP1 PUSH4 0xFE4BFA4A EQ PUSH2 0x490 JUMPI DUP1 PUSH4 0xFFBAFDFE EQ PUSH2 0x4AC JUMPI PUSH2 0x158 JUMP JUMPDEST DUP1 PUSH4 0xAE6008E3 EQ PUSH2 0x2FF JUMPI DUP1 PUSH4 0xBE7603C7 EQ PUSH2 0x31B JUMPI DUP1 PUSH4 0xD2FED69C EQ PUSH2 0x34B JUMPI DUP1 PUSH4 0xDF3A726F EQ PUSH2 0x37B JUMPI DUP1 PUSH4 0xE6CFDF1F EQ PUSH2 0x397 JUMPI DUP1 PUSH4 0xEA60F28C EQ PUSH2 0x3B3 JUMPI PUSH2 0x158 JUMP JUMPDEST DUP1 PUSH4 0x8A9A9FF3 GT PUSH2 0x115 JUMPI DUP1 PUSH4 0x8A9A9FF3 EQ PUSH2 0x241 JUMPI DUP1 PUSH4 0x8FA49F84 EQ PUSH2 0x271 JUMPI DUP1 PUSH4 0x9EC44ABC EQ PUSH2 0x28D JUMPI DUP1 PUSH4 0xA43EDCBD EQ PUSH2 0x2A9 JUMPI DUP1 PUSH4 0xA7788567 EQ PUSH2 0x2C5 JUMPI DUP1 PUSH4 0xA87D942C EQ PUSH2 0x2E1 JUMPI PUSH2 0x158 JUMP JUMPDEST DUP1 PUSH4 0x25E78E70 EQ PUSH2 0x15D JUMPI DUP1 PUSH4 0x311BCEDF EQ PUSH2 0x18D JUMPI DUP1 PUSH4 0x4FB36606 EQ PUSH2 0x1A9 JUMPI DUP1 PUSH4 0x62583A28 EQ PUSH2 0x1C5 JUMPI DUP1 PUSH4 0x7C34EB85 EQ PUSH2 0x1E1 JUMPI DUP1 PUSH4 0x84800370 EQ PUSH2 0x211 JUMPI JUMPDEST PUSH1 0x0 DUP1 REVERT JUMPDEST PUSH2 0x177 PUSH1 0x4 DUP1 CALLDATASIZE SUB DUP2 ADD SWAP1 PUSH2 0x172 SWAP2 SWAP1 PUSH2 0x4B7B JUMP JUMPDEST PUSH2 0x4C8 JUMP JUMPDEST PUSH1 0x40 MLOAD PUSH2 0x184 SWAP2 SWAP1 PUSH2 0x5B73 JUMP JUMPDEST PUSH1 0x40 MLOAD DUP1 SWAP2 SUB SWAP1 RETURN JUMPDEST PUSH2 0x1A7 PUSH1 0x4 DUP1 CALLDATASIZE SUB DUP2 ADD SWAP1 PUSH2 0x1A2 SWAP2 SWAP1 PUSH2 0x4DED JUMP JUMPDEST PUSH2 0x10FD JUMP JUMPDEST STOP JUMPDEST PUSH2 0x1C3 PUSH1 0x4 DUP1 CALLDATASIZE SUB DUP2 ADD SWAP1 PUSH2 0x1BE SWAP2 SWAP1 PUSH2 0x4B7B JUMP JUMPDEST PUSH2 0x1280 JUMP JUMPDEST STOP JUMPDEST PUSH2 0x1DF PUSH1 0x4 DUP1 CALLDATASIZE SUB DUP2 ADD SWAP1 PUSH2 0x1DA SWAP2 SWAP1 PUSH2 0x4D9A JUMP JUMPDEST PUSH2 0x12ED JUMP JUMPDEST STOP JUMPDEST PUSH2 0x1FB PUSH1 0x4 DUP1 CALLDATASIZE SUB DUP2 ADD SWAP1 PUSH2 0x1F6 SWAP2 SWAP1 PUSH2 0x4B7B JUMP JUMPDEST PUSH2 0x139E JUMP JUMPDEST PUSH1 0x40 MLOAD PUSH2 0x208 SWAP2 SWAP1 PUSH2 0x5AE8 JUMP JUMPDEST PUSH1 0x40 MLOAD DUP1 SWAP2 SUB SWAP1 RETURN JUMPDEST PUSH2 0x22B PUSH1 0x4 DUP1 CALLDATASIZE SUB DUP2 ADD SWAP1 PUSH2 0x226 SWAP2 SWAP1 PUSH2 0x4D07 JUMP JUMPDEST PUSH2 0x13CA JUMP JUMPDEST PUSH1 0x40 MLOAD PUSH2 0x238 SWAP2 SWAP1 PUSH2 0x5B51 JUMP JUMPDEST PUSH1 0x40 MLOAD DUP1 SWAP2 SUB SWAP1 RETURN JUMPDEST PUSH2 0x25B PUSH1 0x4 DUP1 CALLDATASIZE SUB DUP2 ADD SWAP1 PUSH2 0x256 SWAP2 SWAP1 PUSH2 0x4C2B JUMP JUMPDEST PUSH2 0x1638 JUMP JUMPDEST PUSH1 0x40 MLOAD PUSH2 0x268 SWAP2 SWAP1 PUSH2 0x5AE8 JUMP JUMPDEST PUSH1 0x40 MLOAD DUP1 SWAP2 SUB SWAP1 RETURN JUMPDEST PUSH2 0x28B PUSH1 0x4 DUP1 CALLDATASIZE SUB DUP2 ADD SWAP1 PUSH2 0x286 SWAP2 SWAP1 PUSH2 0x4E54 JUMP JUMPDEST PUSH2 0x1687 JUMP JUMPDEST STOP JUMPDEST PUSH2 0x2A7 PUSH1 0x4 DUP1 CALLDATASIZE SUB DUP2 ADD SWAP1 PUSH2 0x2A2 SWAP2 SWAP1 PUSH2 0x4BA8 JUMP JUMPDEST PUSH2 0x17E3 JUMP JUMPDEST STOP JUMPDEST PUSH2 0x2C3 PUSH1 0x4 DUP1 CALLDATASIZE SUB DUP2 ADD SWAP1 PUSH2 0x2BE SWAP2 SWAP1 PUSH2 0x4CAB JUMP JUMPDEST PUSH2 0x1B6D JUMP JUMPDEST STOP JUMPDEST PUSH2 0x2DF PUSH1 0x4 DUP1 CALLDATASIZE SUB DUP2 ADD SWAP1 PUSH2 0x2DA SWAP2 SWAP1 PUSH2 0x4BA8 JUMP JUMPDEST PUSH2 0x1F32 JUMP JUMPDEST STOP JUMPDEST PUSH2 0x2E9 PUSH2 0x22BC JUMP JUMPDEST PUSH1 0x40 MLOAD PUSH2 0x2F6 SWAP2 SWAP1 PUSH2 0x5B95 JUMP JUMPDEST PUSH1 0x40 MLOAD DUP1 SWAP2 SUB SWAP1 RETURN JUMPDEST PUSH2 0x319 PUSH1 0x4 DUP1 CALLDATASIZE SUB DUP2 ADD SWAP1 PUSH2 0x314 SWAP2 SWAP1 PUSH2 0x4ECF JUMP JUMPDEST PUSH2 0x22C6 JUMP JUMPDEST STOP JUMPDEST PUSH2 0x335 PUSH1 0x4 DUP1 CALLDATASIZE SUB DUP2 ADD SWAP1 PUSH2 0x330 SWAP2 SWAP1 PUSH2 0x4D07 JUMP JUMPDEST PUSH2 0x23EC JUMP JUMPDEST PUSH1 0x40 MLOAD PUSH2 0x342 SWAP2 SWAP1 PUSH2 0x5B51 JUMP JUMPDEST PUSH1 0x40 MLOAD DUP1 SWAP2 SUB SWAP1 RETURN JUMPDEST PUSH2 0x365 PUSH1 0x4 DUP1 CALLDATASIZE SUB DUP2 ADD SWAP1 PUSH2 0x360 SWAP2 SWAP1 PUSH2 0x4B7B JUMP JUMPDEST PUSH2 0x265A JUMP JUMPDEST PUSH1 0x40 MLOAD PUSH2 0x372 SWAP2 SWAP1 PUSH2 0x5B95 JUMP JUMPDEST PUSH1 0x40 MLOAD DUP1 SWAP2 SUB SWAP1 RETURN JUMPDEST PUSH2 0x395 PUSH1 0x4 DUP1 CALLDATASIZE SUB DUP2 ADD SWAP1 PUSH2 0x390 SWAP2 SWAP1 PUSH2 0x4B7B JUMP JUMPDEST PUSH2 0x2944 JUMP JUMPDEST STOP JUMPDEST PUSH2 0x3B1 PUSH1 0x4 DUP1 CALLDATASIZE SUB DUP2 ADD SWAP1 PUSH2 0x3AC SWAP2 SWAP1 PUSH2 0x4B7B JUMP JUMPDEST PUSH2 0x29B1 JUMP JUMPDEST STOP JUMPDEST PUSH2 0x3CD PUSH1 0x4 DUP1 CALLDATASIZE SUB DUP2 ADD SWAP1 PUSH2 0x3C8 SWAP2 SWAP1 PUSH2 0x4B7B JUMP JUMPDEST PUSH2 0x2A1E JUMP JUMPDEST STOP JUMPDEST PUSH2 0x3E9 PUSH1 0x4 DUP1 CALLDATASIZE SUB DUP2 ADD SWAP1 PUSH2 0x3E4 SWAP2 SWAP1 PUSH2 0x4D47 JUMP JUMPDEST PUSH2 0x2A8B JUMP JUMPDEST PUSH1 0x40 MLOAD PUSH2 0x3F7 SWAP3 SWAP2 SWAP1 PUSH2 0x5AB8 JUMP JUMPDEST PUSH1 0x40 MLOAD DUP1 SWAP2 SUB SWAP1 RETURN JUMPDEST PUSH2 0x41A PUSH1 0x4 DUP1 CALLDATASIZE SUB DUP2 ADD SWAP1 PUSH2 0x415 SWAP2 SWAP1 PUSH2 0x4B7B JUMP JUMPDEST PUSH2 0x2BC5 JUMP JUMPDEST PUSH1 0x40 MLOAD PUSH2 0x427 SWAP2 SWAP1 PUSH2 0x5B73 JUMP JUMPDEST PUSH1 0x40 MLOAD DUP1 SWAP2 SUB SWAP1 RETURN JUMPDEST PUSH2 0x44A PUSH1 0x4 DUP1 CALLDATASIZE SUB DUP2 ADD SWAP1 PUSH2 0x445 SWAP2 SWAP1 PUSH2 0x4B32 JUMP JUMPDEST PUSH2 0x37FA JUMP JUMPDEST PUSH1 0x40 MLOAD PUSH2 0x457 SWAP2 SWAP1 PUSH2 0x5B95 JUMP JUMPDEST PUSH1 0x40 MLOAD DUP1 SWAP2 SUB SWAP1 RETURN JUMPDEST PUSH2 0x47A PUSH1 0x4 DUP1 CALLDATASIZE SUB DUP2 ADD SWAP1 PUSH2 0x475 SWAP2 SWAP1 PUSH2 0x4B7B JUMP JUMPDEST PUSH2 0x3B76 JUMP JUMPDEST PUSH1 0x40 MLOAD PUSH2 0x487 SWAP2 SWAP1 PUSH2 0x5B95 JUMP JUMPDEST PUSH1 0x40 MLOAD DUP1 SWAP2 SUB SWAP1 RETURN JUMPDEST PUSH2 0x4AA PUSH1 0x4 DUP1 CALLDATASIZE SUB DUP2 ADD SWAP1 PUSH2 0x4A5 SWAP2 SWAP1 PUSH2 0x4DED JUMP JUMPDEST PUSH2 0x3E60 JUMP JUMPDEST STOP JUMPDEST PUSH2 0x4C6 PUSH1 0x4 DUP1 CALLDATASIZE SUB DUP2 ADD SWAP1 PUSH2 0x4C1 SWAP2 SWAP1 PUSH2 0x4C6B JUMP JUMPDEST PUSH2 0x3FE3 JUMP JUMPDEST STOP JUMPDEST PUSH2 0x4D0 PUSH2 0x40F3 JUMP JUMPDEST PUSH1 0x0 DUP1 DUP4 DUP2 MSTORE PUSH1 0x20 ADD SWAP1 DUP2 MSTORE PUSH1 0x20 ADD PUSH1 0x0 KECCAK256 PUSH1 0x40 MLOAD DUP1 PUSH2 0x2A0 ADD PUSH1 0x40 MSTORE SWAP1 DUP2 PUSH1 0x0 DUP3 ADD PUSH1 0x0 SWAP1 SLOAD SWAP1 PUSH2 0x100 EXP SWAP1 DIV PUSH20 0xFFFFFFFFFFFFFFFFFFFFFFFFFFFFFFFFFFFFFFFF AND PUSH20 0xFFFFFFFFFFFFFFFFFFFFFFFFFFFFFFFFFFFFFFFF AND PUSH20 0xFFFFFFFFFFFFFFFFFFFFFFFFFFFFFFFFFFFFFFFF AND DUP2 MSTORE PUSH1 0x20 ADD PUSH1 0x1 DUP3 ADD SLOAD DUP2 MSTORE PUSH1 0x20 ADD PUSH1 0x2 DUP3 ADD DUP1 SLOAD PUSH2 0x55E SWAP1 PUSH2 0x6327 JUMP JUMPDEST DUP1 PUSH1 0x1F ADD PUSH1 0x20 DUP1 SWAP2 DIV MUL PUSH1 0x20 ADD PUSH1 0x40 MLOAD SWAP1 DUP2 ADD PUSH1 0x40 MSTORE DUP1 SWAP3 SWAP2 SWAP1 DUP2 DUP2 MSTORE PUSH1 0x20 ADD DUP3 DUP1 SLOAD PUSH2 0x58A SWAP1 PUSH2 0x6327 JUMP JUMPDEST DUP1 ISZERO PUSH2 0x5D7 JUMPI DUP1 PUSH1 0x1F LT PUSH2 0x5AC JUMPI PUSH2 0x100 DUP1 DUP4 SLOAD DIV MUL DUP4 MSTORE SWAP2 PUSH1 0x20 ADD SWAP2 PUSH2 0x5D7 JUMP JUMPDEST DUP3 ADD SWAP2 SWAP1 PUSH1 0x0 MSTORE PUSH1 0x20 PUSH1 0x0 KECCAK256 SWAP1 JUMPDEST DUP2 SLOAD DUP2 MSTORE SWAP1 PUSH1 0x1 ADD SWAP1 PUSH1 0x20 ADD DUP1 DUP4 GT PUSH2 0x5BA JUMPI DUP3 SWAP1 SUB PUSH1 0x1F AND DUP3 ADD SWAP2 JUMPDEST POP POP POP POP POP DUP2 MSTORE PUSH1 0x20 ADD PUSH1 0x3 DUP3 ADD DUP1 SLOAD PUSH2 0x5F0 SWAP1 PUSH2 0x6327 JUMP JUMPDEST DUP1 PUSH1 0x1F ADD PUSH1 0x20 DUP1 SWAP2 DIV MUL PUSH1 0x20 ADD PUSH1 0x40 MLOAD SWAP1 DUP2 ADD PUSH1 0x40 MSTORE DUP1 SWAP3 SWAP2 SWAP1 DUP2 DUP2 MSTORE PUSH1 0x20 ADD DUP3 DUP1 SLOAD PUSH2 0x61C SWAP1 PUSH2 0x6327 JUMP JUMPDEST DUP1 ISZERO PUSH2 0x669 JUMPI DUP1 PUSH1 0x1F LT PUSH2 0x63E JUMPI PUSH2 0x100 DUP1 DUP4 SLOAD DIV MUL DUP4 MSTORE SWAP2 PUSH1 0x20 ADD SWAP2 PUSH2 0x669 JUMP JUMPDEST DUP3 ADD SWAP2 SWAP1 PUSH1 0x0 MSTORE PUSH1 0x20 PUSH1 0x0 KECCAK256 SWAP1 JUMPDEST DUP2 SLOAD DUP2 MSTORE SWAP1 PUSH1 0x1 ADD SWAP1 PUSH1 0x20 ADD DUP1 DUP4 GT PUSH2 0x64C JUMPI DUP3 SWAP1 SUB PUSH1 0x1F AND DUP3 ADD SWAP2 JUMPDEST POP POP POP POP POP DUP2 MSTORE PUSH1 0x20 ADD PUSH1 0x4 DUP3 ADD SLOAD DUP2 MSTORE PUSH1 0x20 ADD PUSH1 0x5 DUP3 ADD DUP1 SLOAD PUSH2 0x68C SWAP1 PUSH2 0x6327 JUMP JUMPDEST DUP1 PUSH1 0x1F ADD PUSH1 0x20 DUP1 SWAP2 DIV MUL PUSH1 0x20 ADD PUSH1 0x40 MLOAD SWAP1 DUP2 ADD PUSH1 0x40 MSTORE DUP1 SWAP3 SWAP2 SWAP1 DUP2 DUP2 MSTORE PUSH1 0x20 ADD DUP3 DUP1 SLOAD PUSH2 0x6B8 SWAP1 PUSH2 0x6327 JUMP JUMPDEST DUP1 ISZERO PUSH2 0x705 JUMPI DUP1 PUSH1 0x1F LT PUSH2 0x6DA JUMPI PUSH2 0x100 DUP1 DUP4 SLOAD DIV MUL DUP4 MSTORE SWAP2 PUSH1 0x20 ADD SWAP2 PUSH2 0x705 JUMP JUMPDEST DUP3 ADD SWAP2 SWAP1 PUSH1 0x0 MSTORE PUSH1 0x20 PUSH1 0x0 KECCAK256 SWAP1 JUMPDEST DUP2 SLOAD DUP2 MSTORE SWAP1 PUSH1 0x1 ADD SWAP1 PUSH1 0x20 ADD DUP1 DUP4 GT PUSH2 0x6E8 JUMPI DUP3 SWAP1 SUB PUSH1 0x1F AND DUP3 ADD SWAP2 JUMPDEST POP POP POP POP POP DUP2 MSTORE PUSH1 0x20 ADD PUSH1 0x6 DUP3 ADD DUP1 SLOAD PUSH2 0x71E SWAP1 PUSH2 0x6327 JUMP JUMPDEST DUP1 PUSH1 0x1F ADD PUSH1 0x20 DUP1 SWAP2 DIV MUL PUSH1 0x20 ADD PUSH1 0x40 MLOAD SWAP1 DUP2 ADD PUSH1 0x40 MSTORE DUP1 SWAP3 SWAP2 SWAP1 DUP2 DUP2 MSTORE PUSH1 0x20 ADD DUP3 DUP1 SLOAD PUSH2 0x74A SWAP1 PUSH2 0x6327 JUMP JUMPDEST DUP1 ISZERO PUSH2 0x797 JUMPI DUP1 PUSH1 0x1F LT PUSH2 0x76C JUMPI PUSH2 0x100 DUP1 DUP4 SLOAD DIV MUL DUP4 MSTORE SWAP2 PUSH1 0x20 ADD SWAP2 PUSH2 0x797 JUMP JUMPDEST DUP3 ADD SWAP2 SWAP1 PUSH1 0x0 MSTORE PUSH1 0x20 PUSH1 0x0 KECCAK256 SWAP1 JUMPDEST DUP2 SLOAD DUP2 MSTORE SWAP1 PUSH1 0x1 ADD SWAP1 PUSH1 0x20 ADD DUP1 DUP4 GT PUSH2 0x77A JUMPI DUP3 SWAP1 SUB PUSH1 0x1F AND DUP3 ADD SWAP2 JUMPDEST POP POP POP POP POP DUP2 MSTORE PUSH1 0x20 ADD PUSH1 0x7 DUP3 ADD DUP1 SLOAD DUP1 PUSH1 0x20 MUL PUSH1 0x20 ADD PUSH1 0x40 MLOAD SWAP1 DUP2 ADD PUSH1 0x40 MSTORE DUP1 SWAP3 SWAP2 SWAP1 DUP2 DUP2 MSTORE PUSH1 0x20 ADD PUSH1 0x0 SWAP1 JUMPDEST DUP3 DUP3 LT ISZERO PUSH2 0x871 JUMPI DUP4 DUP3 SWAP1 PUSH1 0x0 MSTORE PUSH1 0x20 PUSH1 0x0 KECCAK256 ADD DUP1 SLOAD PUSH2 0x7E4 SWAP1 PUSH2 0x6327 JUMP JUMPDEST DUP1 PUSH1 0x1F ADD PUSH1 0x20 DUP1 SWAP2 DIV MUL PUSH1 0x20 ADD PUSH1 0x40 MLOAD SWAP1 DUP2 ADD PUSH1 0x40 MSTORE DUP1 SWAP3 SWAP2 SWAP1 DUP2 DUP2 MSTORE PUSH1 0x20 ADD DUP3 DUP1 SLOAD PUSH2 0x810 SWAP1 PUSH2 0x6327 JUMP JUMPDEST DUP1 ISZERO PUSH2 0x85D JUMPI DUP1 PUSH1 0x1F LT PUSH2 0x832 JUMPI PUSH2 0x100 DUP1 DUP4 SLOAD DIV MUL DUP4 MSTORE SWAP2 PUSH1 0x20 ADD SWAP2 PUSH2 0x85D JUMP JUMPDEST DUP3 ADD SWAP2 SWAP1 PUSH1 0x0 MSTORE PUSH1 0x20 PUSH1 0x0 KECCAK256 SWAP1 JUMPDEST DUP2 SLOAD DUP2 MSTORE SWAP1 PUSH1 0x1 ADD SWAP1 PUSH1 0x20 ADD DUP1 DUP4 GT PUSH2 0x840 JUMPI DUP3 SWAP1 SUB PUSH1 0x1F AND DUP3 ADD SWAP2 JUMPDEST POP POP POP POP POP DUP2 MSTORE PUSH1 0x20 ADD SWAP1 PUSH1 0x1 ADD SWAP1 PUSH2 0x7C5 JUMP JUMPDEST POP POP POP POP DUP2 MSTORE PUSH1 0x20 ADD PUSH1 0x8 DUP3 ADD SLOAD DUP2 MSTORE PUSH1 0x20 ADD PUSH1 0x9 DUP3 ADD SLOAD DUP2 MSTORE PUSH1 0x20 ADD PUSH1 0xA DUP3 ADD PUSH1 0x0 SWAP1 SLOAD SWAP1 PUSH2 0x100 EXP SWAP1 DIV PUSH1 0xFF AND ISZERO ISZERO ISZERO ISZERO DUP2 MSTORE PUSH1 0x20 ADD PUSH1 0xA DUP3 ADD PUSH1 0x1 SWAP1 SLOAD SWAP1 PUSH2 0x100 EXP SWAP1 DIV PUSH1 0xFF AND ISZERO ISZERO ISZERO ISZERO DUP2 MSTORE PUSH1 0x20 ADD PUSH1 0xB DUP3 ADD SLOAD DUP2 MSTORE PUSH1 0x20 ADD PUSH1 0xC DUP3 ADD DUP1 SLOAD DUP1 PUSH1 0x20 MUL PUSH1 0x20 ADD PUSH1 0x40 MLOAD SWAP1 DUP2 ADD PUSH1 0x40 MSTORE DUP1 SWAP3 SWAP2 SWAP1 DUP2 DUP2 MSTORE PUSH1 0x20 ADD PUSH1 0x0 SWAP1 JUMPDEST DUP3 DUP3 LT ISZERO PUSH2 0xB6F JUMPI DUP4 DUP3 SWAP1 PUSH1 0x0 MSTORE PUSH1 0x20 PUSH1 0x0 KECCAK256 SWAP1 PUSH1 0xB MUL ADD PUSH1 0x40 MLOAD DUP1 PUSH1 0xA0 ADD PUSH1 0x40 MSTORE SWAP1 DUP2 PUSH1 0x0 DUP3 ADD PUSH1 0x40 MLOAD DUP1 PUSH1 0xE0 ADD PUSH1 0x40 MSTORE SWAP1 DUP2 PUSH1 0x0 DUP3 ADD DUP1 SLOAD PUSH2 0x935 SWAP1 PUSH2 0x6327 JUMP JUMPDEST DUP1 PUSH1 0x1F ADD PUSH1 0x20 DUP1 SWAP2 DIV MUL PUSH1 0x20 ADD PUSH1 0x40 MLOAD SWAP1 DUP2 ADD PUSH1 0x40 MSTORE DUP1 SWAP3 SWAP2 SWAP1 DUP2 DUP2 MSTORE PUSH1 0x20 ADD DUP3 DUP1 SLOAD PUSH2 0x961 SWAP1 PUSH2 0x6327 JUMP JUMPDEST DUP1 ISZERO PUSH2 0x9AE JUMPI DUP1 PUSH1 0x1F LT PUSH2 0x983 JUMPI PUSH2 0x100 DUP1 DUP4 SLOAD DIV MUL DUP4 MSTORE SWAP2 PUSH1 0x20 ADD SWAP2 PUSH2 0x9AE JUMP JUMPDEST DUP3 ADD SWAP2 SWAP1 PUSH1 0x0 MSTORE PUSH1 0x20 PUSH1 0x0 KECCAK256 SWAP1 JUMPDEST DUP2 SLOAD DUP2 MSTORE SWAP1 PUSH1 0x1 ADD SWAP1 PUSH1 0x20 ADD DUP1 DUP4 GT PUSH2 0x991 JUMPI DUP3 SWAP1 SUB PUSH1 0x1F AND DUP3 ADD SWAP2 JUMPDEST POP POP POP POP POP DUP2 MSTORE PUSH1 0x20 ADD PUSH1 0x1 DUP3 ADD SLOAD DUP2 MSTORE PUSH1 0x20 ADD PUSH1 0x2 DUP3 ADD SLOAD DUP2 MSTORE PUSH1 0x20 ADD PUSH1 0x3 DUP3 ADD SLOAD DUP2 MSTORE PUSH1 0x20 ADD PUSH1 0x4 DUP3 ADD SLOAD DUP2 MSTORE PUSH1 0x20 ADD PUSH1 0x5 DUP3 ADD SLOAD DUP2 MSTORE PUSH1 0x20 ADD PUSH1 0x6 DUP3 ADD DUP1 SLOAD PUSH2 0x9F9 SWAP1 PUSH2 0x6327 JUMP JUMPDEST DUP1 PUSH1 0x1F ADD PUSH1 0x20 DUP1 SWAP2 DIV MUL PUSH1 0x20 ADD PUSH1 0x40 MLOAD SWAP1 DUP2 ADD PUSH1 0x40 MSTORE DUP1 SWAP3 SWAP2 SWAP1 DUP2 DUP2 MSTORE PUSH1 0x20 ADD DUP3 DUP1 SLOAD PUSH2 0xA25 SWAP1 PUSH2 0x6327 JUMP JUMPDEST DUP1 ISZERO PUSH2 0xA72 JUMPI DUP1 PUSH1 0x1F LT PUSH2 0xA47 JUMPI PUSH2 0x100 DUP1 DUP4 SLOAD DIV MUL DUP4 MSTORE SWAP2 PUSH1 0x20 ADD SWAP2 PUSH2 0xA72 JUMP JUMPDEST DUP3 ADD SWAP2 SWAP1 PUSH1 0x0 MSTORE PUSH1 0x20 PUSH1 0x0 KECCAK256 SWAP1 JUMPDEST DUP2 SLOAD DUP2 MSTORE SWAP1 PUSH1 0x1 ADD SWAP1 PUSH1 0x20 ADD DUP1 DUP4 GT PUSH2 0xA55 JUMPI DUP3 SWAP1 SUB PUSH1 0x1F AND DUP3 ADD SWAP2 JUMPDEST POP POP POP POP POP DUP2 MSTORE POP POP DUP2 MSTORE PUSH1 0x20 ADD PUSH1 0x7 DUP3 ADD SLOAD DUP2 MSTORE PUSH1 0x20 ADD PUSH1 0x8 DUP3 ADD DUP1 SLOAD PUSH2 0xA99 SWAP1 PUSH2 0x6327 JUMP JUMPDEST DUP1 PUSH1 0x1F ADD PUSH1 0x20 DUP1 SWAP2 DIV MUL PUSH1 0x20 ADD PUSH1 0x40 MLOAD SWAP1 DUP2 ADD PUSH1 0x40 MSTORE DUP1 SWAP3 SWAP2 SWAP1 DUP2 DUP2 MSTORE PUSH1 0x20 ADD DUP3 DUP1 SLOAD PUSH2 0xAC5 SWAP1 PUSH2 0x6327 JUMP JUMPDEST DUP1 ISZERO PUSH2 0xB12 JUMPI DUP1 PUSH1 0x1F LT PUSH2 0xAE7 JUMPI PUSH2 0x100 DUP1 DUP4 SLOAD DIV MUL DUP4 MSTORE SWAP2 PUSH1 0x20 ADD SWAP2 PUSH2 0xB12 JUMP JUMPDEST DUP3 ADD SWAP2 SWAP1 PUSH1 0x0 MSTORE PUSH1 0x20 PUSH1 0x0 KECCAK256 SWAP1 JUMPDEST DUP2 SLOAD DUP2 MSTORE SWAP1 PUSH1 0x1 ADD SWAP1 PUSH1 0x20 ADD DUP1 DUP4 GT PUSH2 0xAF5 JUMPI DUP3 SWAP1 SUB PUSH1 0x1F AND DUP3 ADD SWAP2 JUMPDEST POP POP POP POP POP DUP2 MSTORE PUSH1 0x20 ADD PUSH1 0x9 DUP3 ADD PUSH1 0x0 SWAP1 SLOAD SWAP1 PUSH2 0x100 EXP SWAP1 DIV PUSH1 0xFF AND PUSH1 0x5 DUP2 GT ISZERO PUSH2 0xB40 JUMPI PUSH2 0xB3F PUSH2 0x6431 JUMP JUMPDEST JUMPDEST PUSH1 0x5 DUP2 GT ISZERO PUSH2 0xB52 JUMPI PUSH2 0xB51 PUSH2 0x6431 JUMP JUMPDEST JUMPDEST DUP2 MSTORE PUSH1 0x20 ADD PUSH1 0xA DUP3 ADD SLOAD DUP2 MSTORE POP POP DUP2 MSTORE PUSH1 0x20 ADD SWAP1 PUSH1 0x1 ADD SWAP1 PUSH2 0x8F2 JUMP JUMPDEST POP POP POP POP DUP2 MSTORE PUSH1 0x20 ADD PUSH1 0xD DUP3 ADD DUP1 SLOAD DUP1 PUSH1 0x20 MUL PUSH1 0x20 ADD PUSH1 0x40 MLOAD SWAP1 DUP2 ADD PUSH1 0x40 MSTORE DUP1 SWAP3 SWAP2 SWAP1 DUP2 DUP2 MSTORE PUSH1 0x20 ADD PUSH1 0x0 SWAP1 JUMPDEST DUP3 DUP3 LT ISZERO PUSH2 0xDEC JUMPI DUP4 DUP3 SWAP1 PUSH1 0x0 MSTORE PUSH1 0x20 PUSH1 0x0 KECCAK256 SWAP1 PUSH1 0x5 MUL ADD PUSH1 0x40 MLOAD DUP1 PUSH1 0xA0 ADD PUSH1 0x40 MSTORE SWAP1 DUP2 PUSH1 0x0 DUP3 ADD PUSH1 0x0 SWAP1 SLOAD SWAP1 PUSH2 0x100 EXP SWAP1 DIV PUSH20 0xFFFFFFFFFFFFFFFFFFFFFFFFFFFFFFFFFFFFFFFF AND PUSH20 0xFFFFFFFFFFFFFFFFFFFFFFFFFFFFFFFFFFFFFFFF AND PUSH20 0xFFFFFFFFFFFFFFFFFFFFFFFFFFFFFFFFFFFFFFFF AND DUP2 MSTORE PUSH1 0x20 ADD PUSH1 0x1 DUP3 ADD DUP1 SLOAD DUP1 PUSH1 0x20 MUL PUSH1 0x20 ADD PUSH1 0x40 MLOAD SWAP1 DUP2 ADD PUSH1 0x40 MSTORE DUP1 SWAP3 SWAP2 SWAP1 DUP2 DUP2 MSTORE PUSH1 0x20 ADD DUP3 DUP1 SLOAD DUP1 ISZERO PUSH2 0xC64 JUMPI PUSH1 0x20 MUL DUP3 ADD SWAP2 SWAP1 PUSH1 0x0 MSTORE PUSH1 0x20 PUSH1 0x0 KECCAK256 SWAP1 JUMPDEST DUP2 SLOAD DUP2 MSTORE PUSH1 0x20 ADD SWAP1 PUSH1 0x1 ADD SWAP1 DUP1 DUP4 GT PUSH2 0xC50 JUMPI JUMPDEST POP POP POP POP POP DUP2 MSTORE PUSH1 0x20 ADD PUSH1 0x2 DUP3 ADD DUP1 SLOAD DUP1 PUSH1 0x20 MUL PUSH1 0x20 ADD PUSH1 0x40 MLOAD SWAP1 DUP2 ADD PUSH1 0x40 MSTORE DUP1 SWAP3 SWAP2 SWAP1 DUP2 DUP2 MSTORE PUSH1 0x20 ADD DUP3 DUP1 SLOAD DUP1 ISZERO PUSH2 0xCF1 JUMPI PUSH1 0x20 MUL DUP3 ADD SWAP2 SWAP1 PUSH1 0x0 MSTORE PUSH1 0x20 PUSH1 0x0 KECCAK256 SWAP1 PUSH1 0x0 SWAP1 JUMPDEST DUP3 DUP3 SWAP1 SLOAD SWAP1 PUSH2 0x100 EXP SWAP1 DIV PUSH1 0xFF AND PUSH1 0x5 DUP2 GT ISZERO PUSH2 0xCCB JUMPI PUSH2 0xCCA PUSH2 0x6431 JUMP JUMPDEST JUMPDEST DUP2 MSTORE PUSH1 0x20 ADD SWAP1 PUSH1 0x1 ADD SWAP1 PUSH1 0x20 DUP3 PUSH1 0x0 ADD DIV SWAP3 DUP4 ADD SWAP3 PUSH1 0x1 SUB DUP3 MUL SWAP2 POP DUP1 DUP5 GT PUSH2 0xCAB JUMPI SWAP1 POP JUMPDEST POP POP POP POP POP DUP2 MSTORE PUSH1 0x20 ADD PUSH1 0x3 DUP3 ADD DUP1 SLOAD DUP1 PUSH1 0x20 MUL PUSH1 0x20 ADD PUSH1 0x40 MLOAD SWAP1 DUP2 ADD PUSH1 0x40 MSTORE DUP1 SWAP3 SWAP2 SWAP1 DUP2 DUP2 MSTORE PUSH1 0x20 ADD PUSH1 0x0 SWAP1 JUMPDEST DUP3 DUP3 LT ISZERO PUSH2 0xDCB JUMPI DUP4 DUP3 SWAP1 PUSH1 0x0 MSTORE PUSH1 0x20 PUSH1 0x0 KECCAK256 ADD DUP1 SLOAD PUSH2 0xD3E SWAP1 PUSH2 0x6327 JUMP JUMPDEST DUP1 PUSH1 0x1F ADD PUSH1 0x20 DUP1 SWAP2 DIV MUL PUSH1 0x20 ADD PUSH1 0x40 MLOAD SWAP1 DUP2 ADD PUSH1 0x40 MSTORE DUP1 SWAP3 SWAP2 SWAP1 DUP2 DUP2 MSTORE PUSH1 0x20 ADD DUP3 DUP1 SLOAD PUSH2 0xD6A SWAP1 PUSH2 0x6327 JUMP JUMPDEST DUP1 ISZERO PUSH2 0xDB7 JUMPI DUP1 PUSH1 0x1F LT PUSH2 0xD8C JUMPI PUSH2 0x100 DUP1 DUP4 SLOAD DIV MUL DUP4 MSTORE SWAP2 PUSH1 0x20 ADD SWAP2 PUSH2 0xDB7 JUMP JUMPDEST DUP3 ADD SWAP2 SWAP1 PUSH1 0x0 MSTORE PUSH1 0x20 PUSH1 0x0 KECCAK256 SWAP1 JUMPDEST DUP2 SLOAD DUP2 MSTORE SWAP1 PUSH1 0x1 ADD SWAP1 PUSH1 0x20 ADD DUP1 DUP4 GT PUSH2 0xD9A JUMPI DUP3 SWAP1 SUB PUSH1 0x1F AND DUP3 ADD SWAP2 JUMPDEST POP POP POP POP POP DUP2 MSTORE PUSH1 0x20 ADD SWAP1 PUSH1 0x1 ADD SWAP1 PUSH2 0xD1F JUMP JUMPDEST POP POP POP POP DUP2 MSTORE PUSH1 0x20 ADD PUSH1 0x4 DUP3 ADD SLOAD DUP2 MSTORE POP POP DUP2 MSTORE PUSH1 0x20 ADD SWAP1 PUSH1 0x1 ADD SWAP1 PUSH2 0xB9C JUMP JUMPDEST POP POP POP POP DUP2 MSTORE PUSH1 0x20 ADD PUSH1 0xE DUP3 ADD DUP1 SLOAD DUP1 PUSH1 0x20 MUL PUSH1 0x20 ADD PUSH1 0x40 MLOAD SWAP1 DUP2 ADD PUSH1 0x40 MSTORE DUP1 SWAP3 SWAP2 SWAP1 DUP2 DUP2 MSTORE PUSH1 0x20 ADD PUSH1 0x0 SWAP1 JUMPDEST DUP3 DUP3 LT ISZERO PUSH2 0x1069 JUMPI DUP4 DUP3 SWAP1 PUSH1 0x0 MSTORE PUSH1 0x20 PUSH1 0x0 KECCAK256 SWAP1 PUSH1 0x5 MUL ADD PUSH1 0x40 MLOAD DUP1 PUSH1 0xA0 ADD PUSH1 0x40 MSTORE SWAP1 DUP2 PUSH1 0x0 DUP3 ADD PUSH1 0x0 SWAP1 SLOAD SWAP1 PUSH2 0x100 EXP SWAP1 DIV PUSH20 0xFFFFFFFFFFFFFFFFFFFFFFFFFFFFFFFFFFFFFFFF AND PUSH20 0xFFFFFFFFFFFFFFFFFFFFFFFFFFFFFFFFFFFFFFFF AND PUSH20 0xFFFFFFFFFFFFFFFFFFFFFFFFFFFFFFFFFFFFFFFF AND DUP2 MSTORE PUSH1 0x20 ADD PUSH1 0x1 DUP3 ADD DUP1 SLOAD DUP1 PUSH1 0x20 MUL PUSH1 0x20 ADD PUSH1 0x40 MLOAD SWAP1 DUP2 ADD PUSH1 0x40 MSTORE DUP1 SWAP3 SWAP2 SWAP1 DUP2 DUP2 MSTORE PUSH1 0x20 ADD DUP3 DUP1 SLOAD DUP1 ISZERO PUSH2 0xEE1 JUMPI PUSH1 0x20 MUL DUP3 ADD SWAP2 SWAP1 PUSH1 0x0 MSTORE PUSH1 0x20 PUSH1 0x0 KECCAK256 SWAP1 JUMPDEST DUP2 SLOAD DUP2 MSTORE PUSH1 0x20 ADD SWAP1 PUSH1 0x1 ADD SWAP1 DUP1 DUP4 GT PUSH2 0xECD JUMPI JUMPDEST POP POP POP POP POP DUP2 MSTORE PUSH1 0x20 ADD PUSH1 0x2 DUP3 ADD DUP1 SLOAD DUP1 PUSH1 0x20 MUL PUSH1 0x20 ADD PUSH1 0x40 MLOAD SWAP1 DUP2 ADD PUSH1 0x40 MSTORE DUP1 SWAP3 SWAP2 SWAP1 DUP2 DUP2 MSTORE PUSH1 0x20 ADD DUP3 DUP1 SLOAD DUP1 ISZERO PUSH2 0xF6E JUMPI PUSH1 0x20 MUL DUP3 ADD SWAP2 SWAP1 PUSH1 0x0 MSTORE PUSH1 0x20 PUSH1 0x0 KECCAK256 SWAP1 PUSH1 0x0 SWAP1 JUMPDEST DUP3 DUP3 SWAP1 SLOAD SWAP1 PUSH2 0x100 EXP SWAP1 DIV PUSH1 0xFF AND PUSH1 0x5 DUP2 GT ISZERO PUSH2 0xF48 JUMPI PUSH2 0xF47 PUSH2 0x6431 JUMP JUMPDEST JUMPDEST DUP2 MSTORE PUSH1 0x20 ADD SWAP1 PUSH1 0x1 ADD SWAP1 PUSH1 0x20 DUP3 PUSH1 0x0 ADD DIV SWAP3 DUP4 ADD SWAP3 PUSH1 0x1 SUB DUP3 MUL SWAP2 POP DUP1 DUP5 GT PUSH2 0xF28 JUMPI SWAP1 POP JUMPDEST POP POP POP POP POP DUP2 MSTORE PUSH1 0x20 ADD PUSH1 0x3 DUP3 ADD DUP1 SLOAD DUP1 PUSH1 0x20 MUL PUSH1 0x20 ADD PUSH1 0x40 MLOAD SWAP1 DUP2 ADD PUSH1 0x40 MSTORE DUP1 SWAP3 SWAP2 SWAP1 DUP2 DUP2 MSTORE PUSH1 0x20 ADD PUSH1 0x0 SWAP1 JUMPDEST DUP3 DUP3 LT ISZERO PUSH2 0x1048 JUMPI DUP4 DUP3 SWAP1 PUSH1 0x0 MSTORE PUSH1 0x20 PUSH1 0x0 KECCAK256 ADD DUP1 SLOAD PUSH2 0xFBB SWAP1 PUSH2 0x6327 JUMP JUMPDEST DUP1 PUSH1 0x1F ADD PUSH1 0x20 DUP1 SWAP2 DIV MUL PUSH1 0x20 ADD PUSH1 0x40 MLOAD SWAP1 DUP2 ADD PUSH1 0x40 MSTORE DUP1 SWAP3 SWAP2 SWAP1 DUP2 DUP2 MSTORE PUSH1 0x20 ADD DUP3 DUP1 SLOAD PUSH2 0xFE7 SWAP1 PUSH2 0x6327 JUMP JUMPDEST DUP1 ISZERO PUSH2 0x1034 JUMPI DUP1 PUSH1 0x1F LT PUSH2 0x1009 JUMPI PUSH2 0x100 DUP1 DUP4 SLOAD DIV MUL DUP4 MSTORE SWAP2 PUSH1 0x20 ADD SWAP2 PUSH2 0x1034 JUMP JUMPDEST DUP3 ADD SWAP2 SWAP1 PUSH1 0x0 MSTORE PUSH1 0x20 PUSH1 0x0 KECCAK256 SWAP1 JUMPDEST DUP2 SLOAD DUP2 MSTORE SWAP1 PUSH1 0x1 ADD SWAP1 PUSH1 0x20 ADD DUP1 DUP4 GT PUSH2 0x1017 JUMPI DUP3 SWAP1 SUB PUSH1 0x1F AND DUP3 ADD SWAP2 JUMPDEST POP POP POP POP POP DUP2 MSTORE PUSH1 0x20 ADD SWAP1 PUSH1 0x1 ADD SWAP1 PUSH2 0xF9C JUMP JUMPDEST POP POP POP POP DUP2 MSTORE PUSH1 0x20 ADD PUSH1 0x4 DUP3 ADD SLOAD DUP2 MSTORE POP POP DUP2 MSTORE PUSH1 0x20 ADD SWAP1 PUSH1 0x1 ADD SWAP1 PUSH2 0xE19 JUMP JUMPDEST POP POP POP POP DUP2 MSTORE PUSH1 0x20 ADD PUSH1 0xF DUP3 ADD SLOAD DUP2 MSTORE PUSH1 0x20 ADD PUSH1 0x10 DUP3 ADD SLOAD DUP2 MSTORE PUSH1 0x20 ADD PUSH1 0x11 DUP3 ADD PUSH1 0x0 SWAP1 SLOAD SWAP1 PUSH2 0x100 EXP SWAP1 DIV PUSH1 0xFF AND ISZERO ISZERO ISZERO ISZERO DUP2 MSTORE PUSH1 0x20 ADD PUSH1 0x11 DUP3 ADD PUSH1 0x1 SWAP1 SLOAD SWAP1 PUSH2 0x100 EXP SWAP1 DIV PUSH1 0xFF AND ISZERO ISZERO ISZERO ISZERO DUP2 MSTORE PUSH1 0x20 ADD PUSH1 0x11 DUP3 ADD PUSH1 0x2 SWAP1 SLOAD SWAP1 PUSH2 0x100 EXP SWAP1 DIV PUSH1 0xFF AND PUSH1 0x5 DUP2 GT ISZERO PUSH2 0x10E0 JUMPI PUSH2 0x10DF PUSH2 0x6431 JUMP JUMPDEST JUMPDEST PUSH1 0x5 DUP2 GT ISZERO PUSH2 0x10F2 JUMPI PUSH2 0x10F1 PUSH2 0x6431 JUMP JUMPDEST JUMPDEST DUP2 MSTORE POP POP SWAP1 POP SWAP2 SWAP1 POP JUMP JUMPDEST DUP4 PUSH1 0x1 ISZERO ISZERO PUSH1 0x0 DUP1 DUP4 DUP2 MSTORE PUSH1 0x20 ADD SWAP1 DUP2 MSTORE PUSH1 0x20 ADD PUSH1 0x0 KECCAK256 PUSH1 0x11 ADD PUSH1 0x1 SWAP1 SLOAD SWAP1 PUSH2 0x100 EXP SWAP1 DIV PUSH1 0xFF AND ISZERO ISZERO EQ DUP1 PUSH2 0x1141 JUMPI POP PUSH1 0x0 ISZERO ISZERO PUSH2 0x113D DUP3 PUSH1 0x0 PUSH2 0x1638 JUMP JUMPDEST ISZERO ISZERO EQ JUMPDEST ISZERO PUSH2 0x1183 JUMPI DUP1 PUSH1 0x40 MLOAD PUSH32 0xA0F2FA6E00000000000000000000000000000000000000000000000000000000 DUP2 MSTORE PUSH1 0x4 ADD PUSH2 0x117A SWAP2 SWAP1 PUSH2 0x5B23 JUMP JUMPDEST PUSH1 0x40 MLOAD DUP1 SWAP2 SUB SWAP1 REVERT JUMPDEST PUSH1 0x0 DUP1 PUSH1 0x0 DUP8 DUP2 MSTORE PUSH1 0x20 ADD SWAP1 DUP2 MSTORE PUSH1 0x20 ADD PUSH1 0x0 KECCAK256 PUSH1 0xE ADD DUP5 DUP2 SLOAD DUP2 LT PUSH2 0x11AC JUMPI PUSH2 0x11AB PUSH2 0x648F JUMP JUMPDEST JUMPDEST SWAP1 PUSH1 0x0 MSTORE PUSH1 0x20 PUSH1 0x0 KECCAK256 SWAP1 PUSH1 0x5 MUL ADD SWAP1 POP DUP1 PUSH1 0x1 ADD DUP6 SWAP1 DUP1 PUSH1 0x1 DUP2 SLOAD ADD DUP1 DUP3 SSTORE DUP1 SWAP2 POP POP PUSH1 0x1 SWAP1 SUB SWAP1 PUSH1 0x0 MSTORE PUSH1 0x20 PUSH1 0x0 KECCAK256 ADD PUSH1 0x0 SWAP1 SWAP2 SWAP1 SWAP2 SWAP1 SWAP2 POP SSTORE PUSH1 0x0 PUSH2 0x11F2 DUP8 PUSH2 0x4C8 JUMP JUMPDEST PUSH2 0x1A0 ADD MLOAD DUP7 DUP2 MLOAD DUP2 LT PUSH2 0x1209 JUMPI PUSH2 0x1208 PUSH2 0x648F JUMP JUMPDEST JUMPDEST PUSH1 0x20 MUL PUSH1 0x20 ADD ADD MLOAD PUSH1 0x20 ADD MLOAD SWAP1 POP PUSH2 0x1220 DUP2 PUSH2 0x405D JUMP JUMPDEST DUP3 PUSH1 0x4 ADD PUSH1 0x0 DUP3 DUP3 SLOAD PUSH2 0x1233 SWAP2 SWAP1 PUSH2 0x6119 JUMP JUMPDEST SWAP3 POP POP DUP2 SWAP1 SSTORE POP PUSH32 0x42464F2A0157D4CE4C9F85BF5CB19BFD2F20F71A6BF72E9F0B026828B82D0421 DUP8 DUP8 DUP8 DUP8 PUSH1 0x40 MLOAD PUSH2 0x126F SWAP5 SWAP4 SWAP3 SWAP2 SWAP1 PUSH2 0x5E34 JUMP JUMPDEST PUSH1 0x40 MLOAD DUP1 SWAP2 SUB SWAP1 LOG1 POP POP POP POP POP POP POP JUMP JUMPDEST PUSH1 0x1 PUSH1 0x0 DUP1 DUP4 DUP2 MSTORE PUSH1 0x20 ADD SWAP1 DUP2 MSTORE PUSH1 0x20 ADD PUSH1 0x0 KECCAK256 PUSH1 0x11 ADD PUSH1 0x0 PUSH2 0x100 EXP DUP2 SLOAD DUP2 PUSH1 0xFF MUL NOT AND SWAP1 DUP4 ISZERO ISZERO MUL OR SWAP1 SSTORE POP PUSH32 0xDAB2890E878EF6D9A9F1D69F761D77BF93C6049FCCAA71ABC31BAA20493179A CALLER DUP3 PUSH1 0x1 PUSH1 0x40 MLOAD PUSH2 0x12E2 SWAP4 SWAP3 SWAP2 SWAP1 PUSH2 0x59E6 JUMP JUMPDEST PUSH1 0x40 MLOAD DUP1 SWAP2 SUB SWAP1 LOG1 POP JUMP JUMPDEST PUSH1 0x0 DUP1 PUSH1 0x0 DUP6 DUP2 MSTORE PUSH1 0x20 ADD SWAP1 DUP2 MSTORE PUSH1 0x20 ADD PUSH1 0x0 KECCAK256 PUSH1 0xC ADD DUP4 DUP2 SLOAD DUP2 LT PUSH2 0x1316 JUMPI PUSH2 0x1315 PUSH2 0x648F JUMP JUMPDEST JUMPDEST SWAP1 PUSH1 0x0 MSTORE PUSH1 0x20 PUSH1 0x0 KECCAK256 SWAP1 PUSH1 0xB MUL ADD SWAP1 POP DUP2 DUP2 PUSH1 0x9 ADD PUSH1 0x0 PUSH2 0x100 EXP DUP2 SLOAD DUP2 PUSH1 0xFF MUL NOT AND SWAP1 DUP4 PUSH1 0x5 DUP2 GT ISZERO PUSH2 0x134D JUMPI PUSH2 0x134C PUSH2 0x6431 JUMP JUMPDEST JUMPDEST MUL OR SWAP1 SSTORE POP TIMESTAMP DUP2 PUSH1 0xA ADD DUP2 SWAP1 SSTORE POP PUSH32 0x2DAA2B191F7503DB9793A6AC4672F793306E9F14A9E12053446280E0579B141E DUP5 DUP5 CALLER DUP6 PUSH1 0x40 MLOAD PUSH2 0x1390 SWAP5 SWAP4 SWAP3 SWAP2 SWAP1 PUSH2 0x5D26 JUMP JUMPDEST PUSH1 0x40 MLOAD DUP1 SWAP2 SUB SWAP1 LOG1 POP POP POP POP JUMP JUMPDEST PUSH1 0x0 DUP1 PUSH1 0x0 DUP4 DUP2 MSTORE PUSH1 0x20 ADD SWAP1 DUP2 MSTORE PUSH1 0x20 ADD PUSH1 0x0 KECCAK256 PUSH1 0xA ADD PUSH1 0x1 SWAP1 SLOAD SWAP1 PUSH2 0x100 EXP SWAP1 DIV PUSH1 0xFF AND SWAP1 POP SWAP2 SWAP1 POP JUMP JUMPDEST PUSH2 0x13D2 PUSH2 0x41C3 JUMP JUMPDEST PUSH1 0x0 DUP1 DUP5 DUP2 MSTORE PUSH1 0x20 ADD SWAP1 DUP2 MSTORE PUSH1 0x20 ADD PUSH1 0x0 KECCAK256 PUSH1 0xD ADD DUP3 DUP2 SLOAD DUP2 LT PUSH2 0x13F9 JUMPI PUSH2 0x13F8 PUSH2 0x648F JUMP JUMPDEST JUMPDEST SWAP1 PUSH1 0x0 MSTORE PUSH1 0x20 PUSH1 0x0 KECCAK256 SWAP1 PUSH1 0x5 MUL ADD PUSH1 0x40 MLOAD DUP1 PUSH1 0xA0 ADD PUSH1 0x40 MSTORE SWAP1 DUP2 PUSH1 0x0 DUP3 ADD PUSH1 0x0 SWAP1 SLOAD SWAP1 PUSH2 0x100 EXP SWAP1 DIV PUSH20 0xFFFFFFFFFFFFFFFFFFFFFFFFFFFFFFFFFFFFFFFF AND PUSH20 0xFFFFFFFFFFFFFFFFFFFFFFFFFFFFFFFFFFFFFFFF AND PUSH20 0xFFFFFFFFFFFFFFFFFFFFFFFFFFFFFFFFFFFFFFFF AND DUP2 MSTORE PUSH1 0x20 ADD PUSH1 0x1 DUP3 ADD DUP1 SLOAD DUP1 PUSH1 0x20 MUL PUSH1 0x20 ADD PUSH1 0x40 MLOAD SWAP1 DUP2 ADD PUSH1 0x40 MSTORE DUP1 SWAP3 SWAP2 SWAP1 DUP2 DUP2 MSTORE PUSH1 0x20 ADD DUP3 DUP1 SLOAD DUP1 ISZERO PUSH2 0x14B7 JUMPI PUSH1 0x20 MUL DUP3 ADD SWAP2 SWAP1 PUSH1 0x0 MSTORE PUSH1 0x20 PUSH1 0x0 KECCAK256 SWAP1 JUMPDEST DUP2 SLOAD DUP2 MSTORE PUSH1 0x20 ADD SWAP1 PUSH1 0x1 ADD SWAP1 DUP1 DUP4 GT PUSH2 0x14A3 JUMPI JUMPDEST POP POP POP POP POP DUP2 MSTORE PUSH1 0x20 ADD PUSH1 0x2 DUP3 ADD DUP1 SLOAD DUP1 PUSH1 0x20 MUL PUSH1 0x20 ADD PUSH1 0x40 MLOAD SWAP1 DUP2 ADD PUSH1 0x40 MSTORE DUP1 SWAP3 SWAP2 SWAP1 DUP2 DUP2 MSTORE PUSH1 0x20 ADD DUP3 DUP1 SLOAD DUP1 ISZERO PUSH2 0x1544 JUMPI PUSH1 0x20 MUL DUP3 ADD SWAP2 SWAP1 PUSH1 0x0 MSTORE PUSH1 0x20 PUSH1 0x0 KECCAK256 SWAP1 PUSH1 0x0 SWAP1 JUMPDEST DUP3 DUP3 SWAP1 SLOAD SWAP1 PUSH2 0x100 EXP SWAP1 DIV PUSH1 0xFF AND PUSH1 0x5 DUP2 GT ISZERO PUSH2 0x151E JUMPI PUSH2 0x151D PUSH2 0x6431 JUMP JUMPDEST JUMPDEST DUP2 MSTORE PUSH1 0x20 ADD SWAP1 PUSH1 0x1 ADD SWAP1 PUSH1 0x20 DUP3 PUSH1 0x0 ADD DIV SWAP3 DUP4 ADD SWAP3 PUSH1 0x1 SUB DUP3 MUL SWAP2 POP DUP1 DUP5 GT PUSH2 0x14FE JUMPI SWAP1 POP JUMPDEST POP POP POP POP POP DUP2 MSTORE PUSH1 0x20 ADD PUSH1 0x3 DUP3 ADD DUP1 SLOAD DUP1 PUSH1 0x20 MUL PUSH1 0x20 ADD PUSH1 0x40 MLOAD SWAP1 DUP2 ADD PUSH1 0x40 MSTORE DUP1 SWAP3 SWAP2 SWAP1 DUP2 DUP2 MSTORE PUSH1 0x20 ADD PUSH1 0x0 SWAP1 JUMPDEST DUP3 DUP3 LT ISZERO PUSH2 0x161E JUMPI DUP4 DUP3 SWAP1 PUSH1 0x0 MSTORE PUSH1 0x20 PUSH1 0x0 KECCAK256 ADD DUP1 SLOAD PUSH2 0x1591 SWAP1 PUSH2 0x6327 JUMP JUMPDEST DUP1 PUSH1 0x1F ADD PUSH1 0x20 DUP1 SWAP2 DIV MUL PUSH1 0x20 ADD PUSH1 0x40 MLOAD SWAP1 DUP2 ADD PUSH1 0x40 MSTORE DUP1 SWAP3 SWAP2 SWAP1 DUP2 DUP2 MSTORE PUSH1 0x20 ADD DUP3 DUP1 SLOAD PUSH2 0x15BD SWAP1 PUSH2 0x6327 JUMP JUMPDEST DUP1 ISZERO PUSH2 0x160A JUMPI DUP1 PUSH1 0x1F LT PUSH2 0x15DF JUMPI PUSH2 0x100 DUP1 DUP4 SLOAD DIV MUL DUP4 MSTORE SWAP2 PUSH1 0x20 ADD SWAP2 PUSH2 0x160A JUMP JUMPDEST DUP3 ADD SWAP2 SWAP1 PUSH1 0x0 MSTORE PUSH1 0x20 PUSH1 0x0 KECCAK256 SWAP1 JUMPDEST DUP2 SLOAD DUP2 MSTORE SWAP1 PUSH1 0x1 ADD SWAP1 PUSH1 0x20 ADD DUP1 DUP4 GT PUSH2 0x15ED JUMPI DUP3 SWAP1 SUB PUSH1 0x1F AND DUP3 ADD SWAP2 JUMPDEST POP POP POP POP POP DUP2 MSTORE PUSH1 0x20 ADD SWAP1 PUSH1 0x1 ADD SWAP1 PUSH2 0x1572 JUMP JUMPDEST POP POP POP POP DUP2 MSTORE PUSH1 0x20 ADD PUSH1 0x4 DUP3 ADD SLOAD DUP2 MSTORE POP POP SWAP1 POP SWAP3 SWAP2 POP POP JUMP JUMPDEST PUSH1 0x0 DUP1 PUSH1 0x0 DUP1 DUP6 DUP2 MSTORE PUSH1 0x20 ADD SWAP1 DUP2 MSTORE PUSH1 0x20 ADD PUSH1 0x0 KECCAK256 PUSH1 0xC ADD DUP1 SLOAD SWAP1 POP SWAP1 POP PUSH1 0x0 DUP4 ISZERO PUSH2 0x166E JUMPI PUSH2 0x1667 DUP6 PUSH2 0x265A JUMP JUMPDEST SWAP1 POP PUSH2 0x167A JUMP JUMPDEST PUSH2 0x1677 DUP6 PUSH2 0x3B76 JUMP JUMPDEST SWAP1 POP JUMPDEST DUP2 DUP2 EQ SWAP3 POP POP POP SWAP3 SWAP2 POP POP JUMP JUMPDEST DUP1 ISZERO PUSH2 0x1716 JUMPI DUP2 PUSH1 0x0 DUP1 DUP8 DUP2 MSTORE PUSH1 0x20 ADD SWAP1 DUP2 MSTORE PUSH1 0x20 ADD PUSH1 0x0 KECCAK256 PUSH1 0xD ADD DUP6 DUP2 SLOAD DUP2 LT PUSH2 0x16B5 JUMPI PUSH2 0x16B4 PUSH2 0x648F JUMP JUMPDEST JUMPDEST SWAP1 PUSH1 0x0 MSTORE PUSH1 0x20 PUSH1 0x0 KECCAK256 SWAP1 PUSH1 0x5 MUL ADD PUSH1 0x2 ADD DUP5 DUP2 SLOAD DUP2 LT PUSH2 0x16D8 JUMPI PUSH2 0x16D7 PUSH2 0x648F JUMP JUMPDEST JUMPDEST SWAP1 PUSH1 0x0 MSTORE PUSH1 0x20 PUSH1 0x0 KECCAK256 SWAP1 PUSH1 0x20 SWAP2 DUP3 DUP3 DIV ADD SWAP2 SWAP1 MOD PUSH2 0x100 EXP DUP2 SLOAD DUP2 PUSH1 0xFF MUL NOT AND SWAP1 DUP4 PUSH1 0x5 DUP2 GT ISZERO PUSH2 0x170C JUMPI PUSH2 0x170B PUSH2 0x6431 JUMP JUMPDEST JUMPDEST MUL OR SWAP1 SSTORE POP PUSH2 0x179B JUMP JUMPDEST DUP2 PUSH1 0x0 DUP1 DUP8 DUP2 MSTORE PUSH1 0x20 ADD SWAP1 DUP2 MSTORE PUSH1 0x20 ADD PUSH1 0x0 KECCAK256 PUSH1 0xE ADD DUP6 DUP2 SLOAD DUP2 LT PUSH2 0x173E JUMPI PUSH2 0x173D PUSH2 0x648F JUMP JUMPDEST JUMPDEST SWAP1 PUSH1 0x0 MSTORE PUSH1 0x20 PUSH1 0x0 KECCAK256 SWAP1 PUSH1 0x5 MUL ADD PUSH1 0x2 ADD DUP5 DUP2 SLOAD DUP2 LT PUSH2 0x1761 JUMPI PUSH2 0x1760 PUSH2 0x648F JUMP JUMPDEST JUMPDEST SWAP1 PUSH1 0x0 MSTORE PUSH1 0x20 PUSH1 0x0 KECCAK256 SWAP1 PUSH1 0x20 SWAP2 DUP3 DUP3 DIV ADD SWAP2 SWAP1 MOD PUSH2 0x100 EXP DUP2 SLOAD DUP2 PUSH1 0xFF MUL NOT AND SWAP1 DUP4 PUSH1 0x5 DUP2 GT ISZERO PUSH2 0x1795 JUMPI PUSH2 0x1794 PUSH2 0x6431 JUMP JUMPDEST JUMPDEST MUL OR SWAP1 SSTORE POP JUMPDEST PUSH32 0x7A4C6C6D31A8E32B7079ED0A441635F6962895829FF2D261ACFF68A91CC0C9C5 DUP6 DUP6 DUP6 CALLER DUP7 DUP7 PUSH1 0x40 MLOAD PUSH2 0x17D4 SWAP7 SWAP6 SWAP5 SWAP4 SWAP3 SWAP2 SWAP1 PUSH2 0x5D6B JUMP JUMPDEST PUSH1 0x40 MLOAD DUP1 SWAP2 SUB SWAP1 LOG1 POP POP POP POP POP JUMP JUMPDEST DUP4 PUSH1 0x0 ISZERO ISZERO PUSH1 0x0 DUP1 DUP4 DUP2 MSTORE PUSH1 0x20 ADD SWAP1 DUP2 MSTORE PUSH1 0x20 ADD PUSH1 0x0 KECCAK256 PUSH1 0x11 ADD PUSH1 0x0 SWAP1 SLOAD SWAP1 PUSH2 0x100 EXP SWAP1 DIV PUSH1 0xFF AND ISZERO ISZERO EQ DUP1 PUSH2 0x1827 JUMPI POP PUSH1 0x1 ISZERO ISZERO PUSH2 0x1823 DUP3 PUSH1 0x1 PUSH2 0x1638 JUMP JUMPDEST ISZERO ISZERO EQ JUMPDEST ISZERO PUSH2 0x1869 JUMPI DUP1 PUSH1 0x40 MLOAD PUSH32 0xA0F2FA6E00000000000000000000000000000000000000000000000000000000 DUP2 MSTORE PUSH1 0x4 ADD PUSH2 0x1860 SWAP2 SWAP1 PUSH2 0x5B23 JUMP JUMPDEST PUSH1 0x40 MLOAD DUP1 SWAP2 SUB SWAP1 REVERT JUMPDEST PUSH1 0x0 DUP4 EQ ISZERO PUSH2 0x1A6F JUMPI PUSH1 0x0 DUP1 PUSH1 0x0 DUP8 DUP2 MSTORE PUSH1 0x20 ADD SWAP1 DUP2 MSTORE PUSH1 0x20 ADD PUSH1 0x0 KECCAK256 PUSH1 0xD ADD SWAP1 POP PUSH2 0x1893 PUSH2 0x41C3 JUMP JUMPDEST DUP4 DUP2 PUSH1 0x0 ADD SWAP1 PUSH20 0xFFFFFFFFFFFFFFFFFFFFFFFFFFFFFFFFFFFFFFFF AND SWAP1 DUP2 PUSH20 0xFFFFFFFFFFFFFFFFFFFFFFFFFFFFFFFFFFFFFFFF AND DUP2 MSTORE POP POP DUP6 DUP2 PUSH1 0x20 ADD DUP2 SWAP1 MSTORE POP PUSH1 0x0 JUMPDEST DUP7 MLOAD DUP2 LT ISZERO PUSH2 0x1945 JUMPI PUSH1 0x0 PUSH2 0x18EB DUP10 PUSH2 0x4C8 JUMP JUMPDEST PUSH2 0x1A0 ADD MLOAD DUP3 DUP2 MLOAD DUP2 LT PUSH2 0x1902 JUMPI PUSH2 0x1901 PUSH2 0x648F JUMP JUMPDEST JUMPDEST PUSH1 0x20 MUL PUSH1 0x20 ADD ADD MLOAD PUSH1 0x20 ADD MLOAD SWAP1 POP PUSH2 0x1919 DUP2 PUSH2 0x4080 JUMP JUMPDEST DUP4 PUSH1 0x80 ADD DUP2 DUP2 MLOAD PUSH2 0x192A SWAP2 SWAP1 PUSH2 0x6119 JUMP JUMPDEST SWAP2 POP DUP2 DUP2 MSTORE POP POP POP DUP1 DUP1 PUSH2 0x193D SWAP1 PUSH2 0x638A JUMP JUMPDEST SWAP2 POP POP PUSH2 0x18D7 JUMP JUMPDEST POP DUP2 DUP2 SWAP1 DUP1 PUSH1 0x1 DUP2 SLOAD ADD DUP1 DUP3 SSTORE DUP1 SWAP2 POP POP PUSH1 0x1 SWAP1 SUB SWAP1 PUSH1 0x0 MSTORE PUSH1 0x20 PUSH1 0x0 KECCAK256 SWAP1 PUSH1 0x5 MUL ADD PUSH1 0x0 SWAP1 SWAP2 SWAP1 SWAP2 SWAP1 SWAP2 POP PUSH1 0x0 DUP3 ADD MLOAD DUP2 PUSH1 0x0 ADD PUSH1 0x0 PUSH2 0x100 EXP DUP2 SLOAD DUP2 PUSH20 0xFFFFFFFFFFFFFFFFFFFFFFFFFFFFFFFFFFFFFFFF MUL NOT AND SWAP1 DUP4 PUSH20 0xFFFFFFFFFFFFFFFFFFFFFFFFFFFFFFFFFFFFFFFF AND MUL OR SWAP1 SSTORE POP PUSH1 0x20 DUP3 ADD MLOAD DUP2 PUSH1 0x1 ADD SWAP1 DUP1 MLOAD SWAP1 PUSH1 0x20 ADD SWAP1 PUSH2 0x19D4 SWAP3 SWAP2 SWAP1 PUSH2 0x4208 JUMP JUMPDEST POP PUSH1 0x40 DUP3 ADD MLOAD DUP2 PUSH1 0x2 ADD SWAP1 DUP1 MLOAD SWAP1 PUSH1 0x20 ADD SWAP1 PUSH2 0x19F1 SWAP3 SWAP2 SWAP1 PUSH2 0x4255 JUMP JUMPDEST POP PUSH1 0x60 DUP3 ADD MLOAD DUP2 PUSH1 0x3 ADD SWAP1 DUP1 MLOAD SWAP1 PUSH1 0x20 ADD SWAP1 PUSH2 0x1A0E SWAP3 SWAP2 SWAP1 PUSH2 0x430B JUMP JUMPDEST POP PUSH1 0x80 DUP3 ADD MLOAD DUP2 PUSH1 0x4 ADD SSTORE POP POP PUSH32 0xE0705E150B28965A46D4BB97481FF88F99B107A8B840F7D14724CD1EE39FD389 DUP8 DUP8 PUSH1 0x1 DUP6 DUP1 SLOAD SWAP1 POP PUSH2 0x1A4F SWAP2 SWAP1 PUSH2 0x61FA JUMP JUMPDEST DUP8 PUSH1 0x40 MLOAD PUSH2 0x1A60 SWAP5 SWAP4 SWAP3 SWAP2 SWAP1 PUSH2 0x5BB0 JUMP JUMPDEST PUSH1 0x40 MLOAD DUP1 SWAP2 SUB SWAP1 LOG1 POP POP PUSH2 0x1B4C JUMP JUMPDEST PUSH1 0x0 DUP1 PUSH1 0x0 DUP8 DUP2 MSTORE PUSH1 0x20 ADD SWAP1 DUP2 MSTORE PUSH1 0x20 ADD PUSH1 0x0 KECCAK256 PUSH1 0xD ADD DUP5 DUP2 SLOAD DUP2 LT PUSH2 0x1A98 JUMPI PUSH2 0x1A97 PUSH2 0x648F JUMP JUMPDEST JUMPDEST SWAP1 PUSH1 0x0 MSTORE PUSH1 0x20 PUSH1 0x0 KECCAK256 SWAP1 PUSH1 0x5 MUL ADD SWAP1 POP PUSH1 0x0 JUMPDEST DUP6 MLOAD DUP2 LT ISZERO PUSH2 0x1B0C JUMPI DUP2 PUSH1 0x1 ADD DUP7 DUP3 DUP2 MLOAD DUP2 LT PUSH2 0x1ACB JUMPI PUSH2 0x1ACA PUSH2 0x648F JUMP JUMPDEST JUMPDEST PUSH1 0x20 MUL PUSH1 0x20 ADD ADD MLOAD SWAP1 DUP1 PUSH1 0x1 DUP2 SLOAD ADD DUP1 DUP3 SSTORE DUP1 SWAP2 POP POP PUSH1 0x1 SWAP1 SUB SWAP1 PUSH1 0x0 MSTORE PUSH1 0x20 PUSH1 0x0 KECCAK256 ADD PUSH1 0x0 SWAP1 SWAP2 SWAP1 SWAP2 SWAP1 SWAP2 POP SSTORE DUP1 DUP1 PUSH2 0x1B04 SWAP1 PUSH2 0x638A JUMP JUMPDEST SWAP2 POP POP PUSH2 0x1AAB JUMP JUMPDEST POP PUSH32 0xE0705E150B28965A46D4BB97481FF88F99B107A8B840F7D14724CD1EE39FD389 DUP7 DUP7 DUP7 DUP7 PUSH1 0x40 MLOAD PUSH2 0x1B42 SWAP5 SWAP4 SWAP3 SWAP2 SWAP1 PUSH2 0x5C6E JUMP JUMPDEST PUSH1 0x40 MLOAD DUP1 SWAP2 SUB SWAP1 LOG1 POP JUMPDEST PUSH2 0x1B57 DUP6 PUSH1 0x1 PUSH2 0x1638 JUMP JUMPDEST ISZERO PUSH2 0x1B66 JUMPI PUSH2 0x1B65 DUP6 PUSH2 0x2A1E JUMP JUMPDEST JUMPDEST POP POP POP POP POP JUMP JUMPDEST DUP2 CALLER PUSH20 0xFFFFFFFFFFFFFFFFFFFFFFFFFFFFFFFFFFFFFFFF AND PUSH2 0x1B8E DUP3 PUSH2 0x4C8 JUMP JUMPDEST PUSH1 0x0 ADD MLOAD PUSH20 0xFFFFFFFFFFFFFFFFFFFFFFFFFFFFFFFFFFFFFFFF AND EQ PUSH2 0x1BE8 JUMPI PUSH1 0x40 MLOAD PUSH32 0x8C379A000000000000000000000000000000000000000000000000000000000 DUP2 MSTORE PUSH1 0x4 ADD PUSH2 0x1BDF SWAP1 PUSH2 0x5B03 JUMP JUMPDEST PUSH1 0x40 MLOAD DUP1 SWAP2 SUB SWAP1 REVERT JUMPDEST PUSH1 0x0 DUP1 PUSH1 0x0 DUP6 DUP2 MSTORE PUSH1 0x20 ADD SWAP1 DUP2 MSTORE PUSH1 0x20 ADD PUSH1 0x0 KECCAK256 SWAP1 POP DUP3 PUSH1 0x0 ADD MLOAD DUP2 PUSH1 0x1 ADD DUP2 SWAP1 SSTORE POP DUP3 PUSH1 0x20 ADD MLOAD DUP2 PUSH1 0x2 ADD SWAP1 DUP1 MLOAD SWAP1 PUSH1 0x20 ADD SWAP1 PUSH2 0x1C27 SWAP3 SWAP2 SWAP1 PUSH2 0x436B JUMP JUMPDEST POP DUP3 PUSH1 0x40 ADD MLOAD DUP2 PUSH1 0x3 ADD SWAP1 DUP1 MLOAD SWAP1 PUSH1 0x20 ADD SWAP1 PUSH2 0x1C44 SWAP3 SWAP2 SWAP1 PUSH2 0x436B JUMP JUMPDEST POP DUP3 PUSH1 0x60 ADD MLOAD DUP2 PUSH1 0x4 ADD DUP2 SWAP1 SSTORE POP DUP3 PUSH1 0x80 ADD MLOAD DUP2 PUSH1 0x5 ADD SWAP1 DUP1 MLOAD SWAP1 PUSH1 0x20 ADD SWAP1 PUSH2 0x1C6E SWAP3 SWAP2 SWAP1 PUSH2 0x436B JUMP JUMPDEST POP DUP3 PUSH1 0xA0 ADD MLOAD DUP2 PUSH1 0x6 ADD SWAP1 DUP1 MLOAD SWAP1 PUSH1 0x20 ADD SWAP1 PUSH2 0x1C8B SWAP3 SWAP2 SWAP1 PUSH2 0x436B JUMP JUMPDEST POP DUP3 PUSH1 0xC0 ADD MLOAD DUP2 PUSH1 0x7 ADD SWAP1 DUP1 MLOAD SWAP1 PUSH1 0x20 ADD SWAP1 PUSH2 0x1CA8 SWAP3 SWAP2 SWAP1 PUSH2 0x430B JUMP JUMPDEST POP DUP3 PUSH1 0xE0 ADD MLOAD DUP2 PUSH1 0x8 ADD DUP2 SWAP1 SSTORE POP DUP3 PUSH2 0x100 ADD MLOAD DUP2 PUSH1 0x9 ADD DUP2 SWAP1 SSTORE POP DUP3 PUSH2 0x160 ADD MLOAD DUP2 PUSH1 0xB ADD DUP2 SWAP1 SSTORE POP DUP3 PUSH2 0x120 ADD MLOAD DUP2 PUSH1 0xA ADD PUSH1 0x0 PUSH2 0x100 EXP DUP2 SLOAD DUP2 PUSH1 0xFF MUL NOT AND SWAP1 DUP4 ISZERO ISZERO MUL OR SWAP1 SSTORE POP DUP3 PUSH2 0x140 ADD MLOAD DUP2 PUSH1 0xA ADD PUSH1 0x1 PUSH2 0x100 EXP DUP2 SLOAD DUP2 PUSH1 0xFF MUL NOT AND SWAP1 DUP4 ISZERO ISZERO MUL OR SWAP1 SSTORE POP PUSH1 0x0 DUP2 PUSH1 0x11 ADD PUSH1 0x2 PUSH2 0x100 EXP DUP2 SLOAD DUP2 PUSH1 0xFF MUL NOT AND SWAP1 DUP4 PUSH1 0x5 DUP2 GT ISZERO PUSH2 0x1D3C JUMPI PUSH2 0x1D3B PUSH2 0x6431 JUMP JUMPDEST JUMPDEST MUL OR SWAP1 SSTORE POP DUP3 PUSH2 0x1A0 ADD MLOAD DUP2 PUSH1 0xF ADD DUP2 SWAP1 SSTORE POP DUP3 PUSH2 0x1C0 ADD MLOAD DUP2 PUSH1 0x10 ADD DUP2 SWAP1 SSTORE POP PUSH1 0x1 DUP2 PUSH1 0x11 ADD PUSH1 0x0 PUSH2 0x100 EXP DUP2 SLOAD DUP2 PUSH1 0xFF MUL NOT AND SWAP1 DUP4 ISZERO ISZERO MUL OR SWAP1 SSTORE POP PUSH1 0x0 DUP2 PUSH1 0x11 ADD PUSH1 0x2 PUSH2 0x100 EXP DUP2 SLOAD DUP2 PUSH1 0xFF MUL NOT AND SWAP1 DUP4 PUSH1 0x5 DUP2 GT ISZERO PUSH2 0x1DA2 JUMPI PUSH2 0x1DA1 PUSH2 0x6431 JUMP JUMPDEST JUMPDEST MUL OR SWAP1 SSTORE POP PUSH1 0x0 JUMPDEST DUP4 PUSH2 0x180 ADD MLOAD MLOAD DUP2 LT ISZERO PUSH2 0x1EF2 JUMPI DUP2 PUSH1 0xC ADD DUP5 PUSH2 0x180 ADD MLOAD DUP3 DUP2 MLOAD DUP2 LT PUSH2 0x1DD4 JUMPI PUSH2 0x1DD3 PUSH2 0x648F JUMP JUMPDEST JUMPDEST PUSH1 0x20 MUL PUSH1 0x20 ADD ADD MLOAD SWAP1 DUP1 PUSH1 0x1 DUP2 SLOAD ADD DUP1 DUP3 SSTORE DUP1 SWAP2 POP POP PUSH1 0x1 SWAP1 SUB SWAP1 PUSH1 0x0 MSTORE PUSH1 0x20 PUSH1 0x0 KECCAK256 SWAP1 PUSH1 0xB MUL ADD PUSH1 0x0 SWAP1 SWAP2 SWAP1 SWAP2 SWAP1 SWAP2 POP PUSH1 0x0 DUP3 ADD MLOAD DUP2 PUSH1 0x0 ADD PUSH1 0x0 DUP3 ADD MLOAD DUP2 PUSH1 0x0 ADD SWAP1 DUP1 MLOAD SWAP1 PUSH1 0x20 ADD SWAP1 PUSH2 0x1E2A SWAP3 SWAP2 SWAP1 PUSH2 0x436B JUMP JUMPDEST POP PUSH1 0x20 DUP3 ADD MLOAD DUP2 PUSH1 0x1 ADD SSTORE PUSH1 0x40 DUP3 ADD MLOAD DUP2 PUSH1 0x2 ADD SSTORE PUSH1 0x60 DUP3 ADD MLOAD DUP2 PUSH1 0x3 ADD SSTORE PUSH1 0x80 DUP3 ADD MLOAD DUP2 PUSH1 0x4 ADD SSTORE PUSH1 0xA0 DUP3 ADD MLOAD DUP2 PUSH1 0x5 ADD SSTORE PUSH1 0xC0 DUP3 ADD MLOAD DUP2 PUSH1 0x6 ADD SWAP1 DUP1 MLOAD SWAP1 PUSH1 0x20 ADD SWAP1 PUSH2 0x1E79 SWAP3 SWAP2 SWAP1 PUSH2 0x436B JUMP JUMPDEST POP POP POP PUSH1 0x20 DUP3 ADD MLOAD DUP2 PUSH1 0x7 ADD SSTORE PUSH1 0x40 DUP3 ADD MLOAD DUP2 PUSH1 0x8 ADD SWAP1 DUP1 MLOAD SWAP1 PUSH1 0x20 ADD SWAP1 PUSH2 0x1EA2 SWAP3 SWAP2 SWAP1 PUSH2 0x436B JUMP JUMPDEST POP PUSH1 0x60 DUP3 ADD MLOAD DUP2 PUSH1 0x9 ADD PUSH1 0x0 PUSH2 0x100 EXP DUP2 SLOAD DUP2 PUSH1 0xFF MUL NOT AND SWAP1 DUP4 PUSH1 0x5 DUP2 GT ISZERO PUSH2 0x1ECE JUMPI PUSH2 0x1ECD PUSH2 0x6431 JUMP JUMPDEST JUMPDEST MUL OR SWAP1 SSTORE POP PUSH1 0x80 DUP3 ADD MLOAD DUP2 PUSH1 0xA ADD SSTORE POP POP DUP1 DUP1 PUSH2 0x1EEA SWAP1 PUSH2 0x638A JUMP JUMPDEST SWAP2 POP POP PUSH2 0x1DAA JUMP JUMPDEST POP PUSH32 0x13BD8EB024979AA1A19E47A1032F4DFFE5037F93B1AE0A9A67952DBD82510830 DUP5 DUP5 PUSH1 0x40 MLOAD PUSH2 0x1F24 SWAP3 SWAP2 SWAP1 PUSH2 0x5CF6 JUMP JUMPDEST PUSH1 0x40 MLOAD DUP1 SWAP2 SUB SWAP1 LOG1 POP POP POP POP JUMP JUMPDEST DUP4 PUSH1 0x1 ISZERO ISZERO PUSH1 0x0 DUP1 DUP4 DUP2 MSTORE PUSH1 0x20 ADD SWAP1 DUP2 MSTORE PUSH1 0x20 ADD PUSH1 0x0 KECCAK256 PUSH1 0x11 ADD PUSH1 0x1 SWAP1 SLOAD SWAP1 PUSH2 0x100 EXP SWAP1 DIV PUSH1 0xFF AND ISZERO ISZERO EQ DUP1 PUSH2 0x1F76 JUMPI POP PUSH1 0x0 ISZERO ISZERO PUSH2 0x1F72 DUP3 PUSH1 0x0 PUSH2 0x1638 JUMP JUMPDEST ISZERO ISZERO EQ JUMPDEST ISZERO PUSH2 0x1FB8 JUMPI DUP1 PUSH1 0x40 MLOAD PUSH32 0xA0F2FA6E00000000000000000000000000000000000000000000000000000000 DUP2 MSTORE PUSH1 0x4 ADD PUSH2 0x1FAF SWAP2 SWAP1 PUSH2 0x5B23 JUMP JUMPDEST PUSH1 0x40 MLOAD DUP1 SWAP2 SUB SWAP1 REVERT JUMPDEST PUSH1 0x0 DUP4 EQ ISZERO PUSH2 0x21BE JUMPI PUSH1 0x0 DUP1 PUSH1 0x0 DUP8 DUP2 MSTORE PUSH1 0x20 ADD SWAP1 DUP2 MSTORE PUSH1 0x20 ADD PUSH1 0x0 KECCAK256 PUSH1 0xE ADD SWAP1 POP PUSH2 0x1FE2 PUSH2 0x41C3 JUMP JUMPDEST DUP4 DUP2 PUSH1 0x0 ADD SWAP1 PUSH20 0xFFFFFFFFFFFFFFFFFFFFFFFFFFFFFFFFFFFFFFFF AND SWAP1 DUP2 PUSH20 0xFFFFFFFFFFFFFFFFFFFFFFFFFFFFFFFFFFFFFFFF AND DUP2 MSTORE POP POP DUP6 DUP2 PUSH1 0x20 ADD DUP2 SWAP1 MSTORE POP PUSH1 0x0 JUMPDEST DUP7 MLOAD DUP2 LT ISZERO PUSH2 0x2094 JUMPI PUSH1 0x0 PUSH2 0x203A DUP10 PUSH2 0x4C8 JUMP JUMPDEST PUSH2 0x1A0 ADD MLOAD DUP3 DUP2 MLOAD DUP2 LT PUSH2 0x2051 JUMPI PUSH2 0x2050 PUSH2 0x648F JUMP JUMPDEST JUMPDEST PUSH1 0x20 MUL PUSH1 0x20 ADD ADD MLOAD PUSH1 0x20 ADD MLOAD SWAP1 POP PUSH2 0x2068 DUP2 PUSH2 0x405D JUMP JUMPDEST DUP4 PUSH1 0x80 ADD DUP2 DUP2 MLOAD PUSH2 0x2079 SWAP2 SWAP1 PUSH2 0x6119 JUMP JUMPDEST SWAP2 POP DUP2 DUP2 MSTORE POP POP POP DUP1 DUP1 PUSH2 0x208C SWAP1 PUSH2 0x638A JUMP JUMPDEST SWAP2 POP POP PUSH2 0x2026 JUMP JUMPDEST POP DUP2 DUP2 SWAP1 DUP1 PUSH1 0x1 DUP2 SLOAD ADD DUP1 DUP3 SSTORE DUP1 SWAP2 POP POP PUSH1 0x1 SWAP1 SUB SWAP1 PUSH1 0x0 MSTORE PUSH1 0x20 PUSH1 0x0 KECCAK256 SWAP1 PUSH1 0x5 MUL ADD PUSH1 0x0 SWAP1 SWAP2 SWAP1 SWAP2 SWAP1 SWAP2 POP PUSH1 0x0 DUP3 ADD MLOAD DUP2 PUSH1 0x0 ADD PUSH1 0x0 PUSH2 0x100 EXP DUP2 SLOAD DUP2 PUSH20 0xFFFFFFFFFFFFFFFFFFFFFFFFFFFFFFFFFFFFFFFF MUL NOT AND SWAP1 DUP4 PUSH20 0xFFFFFFFFFFFFFFFFFFFFFFFFFFFFFFFFFFFFFFFF AND MUL OR SWAP1 SSTORE POP PUSH1 0x20 DUP3 ADD MLOAD DUP2 PUSH1 0x1 ADD SWAP1 DUP1 MLOAD SWAP1 PUSH1 0x20 ADD SWAP1 PUSH2 0x2123 SWAP3 SWAP2 SWAP1 PUSH2 0x4208 JUMP JUMPDEST POP PUSH1 0x40 DUP3 ADD MLOAD DUP2 PUSH1 0x2 ADD SWAP1 DUP1 MLOAD SWAP1 PUSH1 0x20 ADD SWAP1 PUSH2 0x2140 SWAP3 SWAP2 SWAP1 PUSH2 0x4255 JUMP JUMPDEST POP PUSH1 0x60 DUP3 ADD MLOAD DUP2 PUSH1 0x3 ADD SWAP1 DUP1 MLOAD SWAP1 PUSH1 0x20 ADD SWAP1 PUSH2 0x215D SWAP3 SWAP2 SWAP1 PUSH2 0x430B JUMP JUMPDEST POP PUSH1 0x80 DUP3 ADD MLOAD DUP2 PUSH1 0x4 ADD SSTORE POP POP PUSH32 0xE0705E150B28965A46D4BB97481FF88F99B107A8B840F7D14724CD1EE39FD389 DUP8 DUP8 PUSH1 0x1 DUP6 DUP1 SLOAD SWAP1 POP PUSH2 0x219E SWAP2 SWAP1 PUSH2 0x61FA JUMP JUMPDEST DUP8 PUSH1 0x40 MLOAD PUSH2 0x21AF SWAP5 SWAP4 SWAP3 SWAP2 SWAP1 PUSH2 0x5C0F JUMP JUMPDEST PUSH1 0x40 MLOAD DUP1 SWAP2 SUB SWAP1 LOG1 POP POP PUSH2 0x229B JUMP JUMPDEST PUSH1 0x0 DUP1 PUSH1 0x0 DUP8 DUP2 MSTORE PUSH1 0x20 ADD SWAP1 DUP2 MSTORE PUSH1 0x20 ADD PUSH1 0x0 KECCAK256 PUSH1 0xE ADD DUP5 DUP2 SLOAD DUP2 LT PUSH2 0x21E7 JUMPI PUSH2 0x21E6 PUSH2 0x648F JUMP JUMPDEST JUMPDEST SWAP1 PUSH1 0x0 MSTORE PUSH1 0x20 PUSH1 0x0 KECCAK256 SWAP1 PUSH1 0x5 MUL ADD SWAP1 POP PUSH1 0x0 JUMPDEST DUP6 MLOAD DUP2 LT ISZERO PUSH2 0x225B JUMPI DUP2 PUSH1 0x1 ADD DUP7 DUP3 DUP2 MLOAD DUP2 LT PUSH2 0x221A JUMPI PUSH2 0x2219 PUSH2 0x648F JUMP JUMPDEST JUMPDEST PUSH1 0x20 MUL PUSH1 0x20 ADD ADD MLOAD SWAP1 DUP1 PUSH1 0x1 DUP2 SLOAD ADD DUP1 DUP3 SSTORE DUP1 SWAP2 POP POP PUSH1 0x1 SWAP1 SUB SWAP1 PUSH1 0x0 MSTORE PUSH1 0x20 PUSH1 0x0 KECCAK256 ADD PUSH1 0x0 SWAP1 SWAP2 SWAP1 SWAP2 SWAP1 SWAP2 POP SSTORE DUP1 DUP1 PUSH2 0x2253 SWAP1 PUSH2 0x638A JUMP JUMPDEST SWAP2 POP POP PUSH2 0x21FA JUMP JUMPDEST POP PUSH32 0xE0705E150B28965A46D4BB97481FF88F99B107A8B840F7D14724CD1EE39FD389 DUP7 DUP7 DUP7 DUP7 PUSH1 0x40 MLOAD PUSH2 0x2291 SWAP5 SWAP4 SWAP3 SWAP2 SWAP1 PUSH2 0x5C0F JUMP JUMPDEST PUSH1 0x40 MLOAD DUP1 SWAP2 SUB SWAP1 LOG1 POP JUMPDEST PUSH2 0x22A6 DUP6 PUSH1 0x0 PUSH2 0x1638 JUMP JUMPDEST ISZERO PUSH2 0x22B5 JUMPI PUSH2 0x22B4 DUP6 PUSH2 0x2A1E JUMP JUMPDEST JUMPDEST POP POP POP POP POP JUMP JUMPDEST PUSH1 0x0 PUSH1 0x1 SLOAD SWAP1 POP SWAP1 JUMP JUMPDEST DUP1 ISZERO PUSH2 0x233A JUMPI DUP2 PUSH1 0x0 DUP1 DUP8 DUP2 MSTORE PUSH1 0x20 ADD SWAP1 DUP2 MSTORE PUSH1 0x20 ADD PUSH1 0x0 KECCAK256 PUSH1 0xD ADD DUP6 DUP2 SLOAD DUP2 LT PUSH2 0x22F4 JUMPI PUSH2 0x22F3 PUSH2 0x648F JUMP JUMPDEST JUMPDEST SWAP1 PUSH1 0x0 MSTORE PUSH1 0x20 PUSH1 0x0 KECCAK256 SWAP1 PUSH1 0x5 MUL ADD PUSH1 0x3 ADD DUP5 DUP2 SLOAD DUP2 LT PUSH2 0x2317 JUMPI PUSH2 0x2316 PUSH2 0x648F JUMP JUMPDEST JUMPDEST SWAP1 PUSH1 0x0 MSTORE PUSH1 0x20 PUSH1 0x0 KECCAK256 ADD SWAP1 DUP1 MLOAD SWAP1 PUSH1 0x20 ADD SWAP1 PUSH2 0x2334 SWAP3 SWAP2 SWAP1 PUSH2 0x436B JUMP JUMPDEST POP PUSH2 0x23A4 JUMP JUMPDEST DUP2 PUSH1 0x0 DUP1 DUP8 DUP2 MSTORE PUSH1 0x20 ADD SWAP1 DUP2 MSTORE PUSH1 0x20 ADD PUSH1 0x0 KECCAK256 PUSH1 0xE ADD DUP6 DUP2 SLOAD DUP2 LT PUSH2 0x2362 JUMPI PUSH2 0x2361 PUSH2 0x648F JUMP JUMPDEST JUMPDEST SWAP1 PUSH1 0x0 MSTORE PUSH1 0x20 PUSH1 0x0 KECCAK256 SWAP1 PUSH1 0x5 MUL ADD PUSH1 0x3 ADD DUP5 DUP2 SLOAD DUP2 LT PUSH2 0x2385 JUMPI PUSH2 0x2384 PUSH2 0x648F JUMP JUMPDEST JUMPDEST SWAP1 PUSH1 0x0 MSTORE PUSH1 0x20 PUSH1 0x0 KECCAK256 ADD SWAP1 DUP1 MLOAD SWAP1 PUSH1 0x20 ADD SWAP1 PUSH2 0x23A2 SWAP3 SWAP2 SWAP1 PUSH2 0x436B JUMP JUMPDEST POP JUMPDEST PUSH32 0x3EBF5EF7E115E4166869B39D9F913E067201DB6CED02054116E14E2AB7C4B4A8 DUP6 DUP6 DUP6 CALLER DUP7 DUP7 PUSH1 0x40 MLOAD PUSH2 0x23DD SWAP7 SWAP6 SWAP5 SWAP4 SWAP3 SWAP2 SWAP1 PUSH2 0x5DCC JUMP JUMPDEST PUSH1 0x40 MLOAD DUP1 SWAP2 SUB SWAP1 LOG1 POP POP POP POP POP JUMP JUMPDEST PUSH2 0x23F4 PUSH2 0x41C3 JUMP JUMPDEST PUSH1 0x0 DUP1 DUP5 DUP2 MSTORE PUSH1 0x20 ADD SWAP1 DUP2 MSTORE PUSH1 0x20 ADD PUSH1 0x0 KECCAK256 PUSH1 0xE ADD DUP3 DUP2 SLOAD DUP2 LT PUSH2 0x241B JUMPI PUSH2 0x241A PUSH2 0x648F JUMP JUMPDEST JUMPDEST SWAP1 PUSH1 0x0 MSTORE PUSH1 0x20 PUSH1 0x0 KECCAK256 SWAP1 PUSH1 0x5 MUL ADD PUSH1 0x40 MLOAD DUP1 PUSH1 0xA0 ADD PUSH1 0x40 MSTORE SWAP1 DUP2 PUSH1 0x0 DUP3 ADD PUSH1 0x0 SWAP1 SLOAD SWAP1 PUSH2 0x100 EXP SWAP1 DIV PUSH20 0xFFFFFFFFFFFFFFFFFFFFFFFFFFFFFFFFFFFFFFFF AND PUSH20 0xFFFFFFFFFFFFFFFFFFFFFFFFFFFFFFFFFFFFFFFF AND PUSH20 0xFFFFFFFFFFFFFFFFFFFFFFFFFFFFFFFFFFFFFFFF AND DUP2 MSTORE PUSH1 0x20 ADD PUSH1 0x1 DUP3 ADD DUP1 SLOAD DUP1 PUSH1 0x20 MUL PUSH1 0x20 ADD PUSH1 0x40 MLOAD SWAP1 DUP2 ADD PUSH1 0x40 MSTORE DUP1 SWAP3 SWAP2 SWAP1 DUP2 DUP2 MSTORE PUSH1 0x20 ADD DUP3 DUP1 SLOAD DUP1 ISZERO PUSH2 0x24D9 JUMPI PUSH1 0x20 MUL DUP3 ADD SWAP2 SWAP1 PUSH1 0x0 MSTORE PUSH1 0x20 PUSH1 0x0 KECCAK256 SWAP1 JUMPDEST DUP2 SLOAD DUP2 MSTORE PUSH1 0x20 ADD SWAP1 PUSH1 0x1 ADD SWAP1 DUP1 DUP4 GT PUSH2 0x24C5 JUMPI JUMPDEST POP POP POP POP POP DUP2 MSTORE PUSH1 0x20 ADD PUSH1 0x2 DUP3 ADD DUP1 SLOAD DUP1 PUSH1 0x20 MUL PUSH1 0x20 ADD PUSH1 0x40 MLOAD SWAP1 DUP2 ADD PUSH1 0x40 MSTORE DUP1 SWAP3 SWAP2 SWAP1 DUP2 DUP2 MSTORE PUSH1 0x20 ADD DUP3 DUP1 SLOAD DUP1 ISZERO PUSH2 0x2566 JUMPI PUSH1 0x20 MUL DUP3 ADD SWAP2 SWAP1 PUSH1 0x0 MSTORE PUSH1 0x20 PUSH1 0x0 KECCAK256 SWAP1 PUSH1 0x0 SWAP1 JUMPDEST DUP3 DUP3 SWAP1 SLOAD SWAP1 PUSH2 0x100 EXP SWAP1 DIV PUSH1 0xFF AND PUSH1 0x5 DUP2 GT ISZERO PUSH2 0x2540 JUMPI PUSH2 0x253F PUSH2 0x6431 JUMP JUMPDEST JUMPDEST DUP2 MSTORE PUSH1 0x20 ADD SWAP1 PUSH1 0x1 ADD SWAP1 PUSH1 0x20 DUP3 PUSH1 0x0 ADD DIV SWAP3 DUP4 ADD SWAP3 PUSH1 0x1 SUB DUP3 MUL SWAP2 POP DUP1 DUP5 GT PUSH2 0x2520 JUMPI SWAP1 POP JUMPDEST POP POP POP POP POP DUP2 MSTORE PUSH1 0x20 ADD PUSH1 0x3 DUP3 ADD DUP1 SLOAD DUP1 PUSH1 0x20 MUL PUSH1 0x20 ADD PUSH1 0x40 MLOAD SWAP1 DUP2 ADD PUSH1 0x40 MSTORE DUP1 SWAP3 SWAP2 SWAP1 DUP2 DUP2 MSTORE PUSH1 0x20 ADD PUSH1 0x0 SWAP1 JUMPDEST DUP3 DUP3 LT ISZERO PUSH2 0x2640 JUMPI DUP4 DUP3 SWAP1 PUSH1 0x0 MSTORE PUSH1 0x20 PUSH1 0x0 KECCAK256 ADD DUP1 SLOAD PUSH2 0x25B3 SWAP1 PUSH2 0x6327 JUMP JUMPDEST DUP1 PUSH1 0x1F ADD PUSH1 0x20 DUP1 SWAP2 DIV MUL PUSH1 0x20 ADD PUSH1 0x40 MLOAD SWAP1 DUP2 ADD PUSH1 0x40 MSTORE DUP1 SWAP3 SWAP2 SWAP1 DUP2 DUP2 MSTORE PUSH1 0x20 ADD DUP3 DUP1 SLOAD PUSH2 0x25DF SWAP1 PUSH2 0x6327 JUMP JUMPDEST DUP1 ISZERO PUSH2 0x262C JUMPI DUP1 PUSH1 0x1F LT PUSH2 0x2601 JUMPI PUSH2 0x100 DUP1 DUP4 SLOAD DIV MUL DUP4 MSTORE SWAP2 PUSH1 0x20 ADD SWAP2 PUSH2 0x262C JUMP JUMPDEST DUP3 ADD SWAP2 SWAP1 PUSH1 0x0 MSTORE PUSH1 0x20 PUSH1 0x0 KECCAK256 SWAP1 JUMPDEST DUP2 SLOAD DUP2 MSTORE SWAP1 PUSH1 0x1 ADD SWAP1 PUSH1 0x20 ADD DUP1 DUP4 GT PUSH2 0x260F JUMPI DUP3 SWAP1 SUB PUSH1 0x1F AND DUP3 ADD SWAP2 JUMPDEST POP POP POP POP POP DUP2 MSTORE PUSH1 0x20 ADD SWAP1 PUSH1 0x1 ADD SWAP1 PUSH2 0x2594 JUMP JUMPDEST POP POP POP POP DUP2 MSTORE PUSH1 0x20 ADD PUSH1 0x4 DUP3 ADD SLOAD DUP2 MSTORE POP POP SWAP1 POP SWAP3 SWAP2 POP POP JUMP JUMPDEST PUSH1 0x0 DUP1 PUSH1 0x0 DUP1 DUP5 DUP2 MSTORE PUSH1 0x20 ADD SWAP1 DUP2 MSTORE PUSH1 0x20 ADD PUSH1 0x0 KECCAK256 PUSH1 0xD ADD DUP1 SLOAD DUP1 PUSH1 0x20 MUL PUSH1 0x20 ADD PUSH1 0x40 MLOAD SWAP1 DUP2 ADD PUSH1 0x40 MSTORE DUP1 SWAP3 SWAP2 SWAP1 DUP2 DUP2 MSTORE PUSH1 0x20 ADD PUSH1 0x0 SWAP1 JUMPDEST DUP3 DUP3 LT ISZERO PUSH2 0x28E2 JUMPI DUP4 DUP3 SWAP1 PUSH1 0x0 MSTORE PUSH1 0x20 PUSH1 0x0 KECCAK256 SWAP1 PUSH1 0x5 MUL ADD PUSH1 0x40 MLOAD DUP1 PUSH1 0xA0 ADD PUSH1 0x40 MSTORE SWAP1 DUP2 PUSH1 0x0 DUP3 ADD PUSH1 0x0 SWAP1 SLOAD SWAP1 PUSH2 0x100 EXP SWAP1 DIV PUSH20 0xFFFFFFFFFFFFFFFFFFFFFFFFFFFFFFFFFFFFFFFF AND PUSH20 0xFFFFFFFFFFFFFFFFFFFFFFFFFFFFFFFFFFFFFFFF AND PUSH20 0xFFFFFFFFFFFFFFFFFFFFFFFFFFFFFFFFFFFFFFFF AND DUP2 MSTORE PUSH1 0x20 ADD PUSH1 0x1 DUP3 ADD DUP1 SLOAD DUP1 PUSH1 0x20 MUL PUSH1 0x20 ADD PUSH1 0x40 MLOAD SWAP1 DUP2 ADD PUSH1 0x40 MSTORE DUP1 SWAP3 SWAP2 SWAP1 DUP2 DUP2 MSTORE PUSH1 0x20 ADD DUP3 DUP1 SLOAD DUP1 ISZERO PUSH2 0x275A JUMPI PUSH1 0x20 MUL DUP3 ADD SWAP2 SWAP1 PUSH1 0x0 MSTORE PUSH1 0x20 PUSH1 0x0 KECCAK256 SWAP1 JUMPDEST DUP2 SLOAD DUP2 MSTORE PUSH1 0x20 ADD SWAP1 PUSH1 0x1 ADD SWAP1 DUP1 DUP4 GT PUSH2 0x2746 JUMPI JUMPDEST POP POP POP POP POP DUP2 MSTORE PUSH1 0x20 ADD PUSH1 0x2 DUP3 ADD DUP1 SLOAD DUP1 PUSH1 0x20 MUL PUSH1 0x20 ADD PUSH1 0x40 MLOAD SWAP1 DUP2 ADD PUSH1 0x40 MSTORE DUP1 SWAP3 SWAP2 SWAP1 DUP2 DUP2 MSTORE PUSH1 0x20 ADD DUP3 DUP1 SLOAD DUP1 ISZERO PUSH2 0x27E7 JUMPI PUSH1 0x20 MUL DUP3 ADD SWAP2 SWAP1 PUSH1 0x0 MSTORE PUSH1 0x20 PUSH1 0x0 KECCAK256 SWAP1 PUSH1 0x0 SWAP1 JUMPDEST DUP3 DUP3 SWAP1 SLOAD SWAP1 PUSH2 0x100 EXP SWAP1 DIV PUSH1 0xFF AND PUSH1 0x5 DUP2 GT ISZERO PUSH2 0x27C1 JUMPI PUSH2 0x27C0 PUSH2 0x6431 JUMP JUMPDEST JUMPDEST DUP2 MSTORE PUSH1 0x20 ADD SWAP1 PUSH1 0x1 ADD SWAP1 PUSH1 0x20 DUP3 PUSH1 0x0 ADD DIV SWAP3 DUP4 ADD SWAP3 PUSH1 0x1 SUB DUP3 MUL SWAP2 POP DUP1 DUP5 GT PUSH2 0x27A1 JUMPI SWAP1 POP JUMPDEST POP POP POP POP POP DUP2 MSTORE PUSH1 0x20 ADD PUSH1 0x3 DUP3 ADD DUP1 SLOAD DUP1 PUSH1 0x20 MUL PUSH1 0x20 ADD PUSH1 0x40 MLOAD SWAP1 DUP2 ADD PUSH1 0x40 MSTORE DUP1 SWAP3 SWAP2 SWAP1 DUP2 DUP2 MSTORE PUSH1 0x20 ADD PUSH1 0x0 SWAP1 JUMPDEST DUP3 DUP3 LT ISZERO PUSH2 0x28C1 JUMPI DUP4 DUP3 SWAP1 PUSH1 0x0 MSTORE PUSH1 0x20 PUSH1 0x0 KECCAK256 ADD DUP1 SLOAD PUSH2 0x2834 SWAP1 PUSH2 0x6327 JUMP JUMPDEST DUP1 PUSH1 0x1F ADD PUSH1 0x20 DUP1 SWAP2 DIV MUL PUSH1 0x20 ADD PUSH1 0x40 MLOAD SWAP1 DUP2 ADD PUSH1 0x40 MSTORE DUP1 SWAP3 SWAP2 SWAP1 DUP2 DUP2 MSTORE PUSH1 0x20 ADD DUP3 DUP1 SLOAD PUSH2 0x2860 SWAP1 PUSH2 0x6327 JUMP JUMPDEST DUP1 ISZERO PUSH2 0x28AD JUMPI DUP1 PUSH1 0x1F LT PUSH2 0x2882 JUMPI PUSH2 0x100 DUP1 DUP4 SLOAD DIV MUL DUP4 MSTORE SWAP2 PUSH1 0x20 ADD SWAP2 PUSH2 0x28AD JUMP JUMPDEST DUP3 ADD SWAP2 SWAP1 PUSH1 0x0 MSTORE PUSH1 0x20 PUSH1 0x0 KECCAK256 SWAP1 JUMPDEST DUP2 SLOAD DUP2 MSTORE SWAP1 PUSH1 0x1 ADD SWAP1 PUSH1 0x20 ADD DUP1 DUP4 GT PUSH2 0x2890 JUMPI DUP3 SWAP1 SUB PUSH1 0x1F AND DUP3 ADD SWAP2 JUMPDEST POP POP POP POP POP DUP2 MSTORE PUSH1 0x20 ADD SWAP1 PUSH1 0x1 ADD SWAP1 PUSH2 0x2815 JUMP JUMPDEST POP POP POP POP DUP2 MSTORE PUSH1 0x20 ADD PUSH1 0x4 DUP3 ADD SLOAD DUP2 MSTORE POP POP DUP2 MSTORE PUSH1 0x20 ADD SWAP1 PUSH1 0x1 ADD SWAP1 PUSH2 0x2692 JUMP JUMPDEST POP POP POP POP SWAP1 POP PUSH1 0x0 DUP1 PUSH1 0x0 SWAP1 POP JUMPDEST DUP3 MLOAD DUP2 LT ISZERO PUSH2 0x2939 JUMPI DUP3 DUP2 DUP2 MLOAD DUP2 LT PUSH2 0x290C JUMPI PUSH2 0x290B PUSH2 0x648F JUMP JUMPDEST JUMPDEST PUSH1 0x20 MUL PUSH1 0x20 ADD ADD MLOAD PUSH1 0x20 ADD MLOAD MLOAD DUP3 PUSH2 0x2924 SWAP2 SWAP1 PUSH2 0x6119 JUMP JUMPDEST SWAP2 POP DUP1 DUP1 PUSH2 0x2931 SWAP1 PUSH2 0x638A JUMP JUMPDEST SWAP2 POP POP PUSH2 0x28F0 JUMP JUMPDEST POP DUP1 SWAP3 POP POP POP SWAP2 SWAP1 POP JUMP JUMPDEST PUSH1 0x0 DUP1 PUSH1 0x0 DUP4 DUP2 MSTORE PUSH1 0x20 ADD SWAP1 DUP2 MSTORE PUSH1 0x20 ADD PUSH1 0x0 KECCAK256 PUSH1 0x11 ADD PUSH1 0x1 PUSH2 0x100 EXP DUP2 SLOAD DUP2 PUSH1 0xFF MUL NOT AND SWAP1 DUP4 ISZERO ISZERO MUL OR SWAP1 SSTORE POP PUSH32 0xDAB2890E878EF6D9A9F1D69F761D77BF93C6049FCCAA71ABC31BAA20493179A CALLER DUP3 PUSH1 0x0 PUSH1 0x40 MLOAD PUSH2 0x29A6 SWAP4 SWAP3 SWAP2 SWAP1 PUSH2 0x5A30 JUMP JUMPDEST PUSH1 0x40 MLOAD DUP1 SWAP2 SUB SWAP1 LOG1 POP JUMP JUMPDEST PUSH1 0x1 PUSH1 0x0 DUP1 DUP4 DUP2 MSTORE PUSH1 0x20 ADD SWAP1 DUP2 MSTORE PUSH1 0x20 ADD PUSH1 0x0 KECCAK256 PUSH1 0x11 ADD PUSH1 0x1 PUSH2 0x100 EXP DUP2 SLOAD DUP2 PUSH1 0xFF MUL NOT AND SWAP1 DUP4 ISZERO ISZERO MUL OR SWAP1 SSTORE POP PUSH32 0xDAB2890E878EF6D9A9F1D69F761D77BF93C6049FCCAA71ABC31BAA20493179A CALLER DUP3 PUSH1 0x1 PUSH1 0x40 MLOAD PUSH2 0x2A13 SWAP4 SWAP3 SWAP2 SWAP1 PUSH2 0x59E6 JUMP JUMPDEST PUSH1 0x40 MLOAD DUP1 SWAP2 SUB SWAP1 LOG1 POP JUMP JUMPDEST PUSH1 0x0 DUP1 PUSH1 0x0 DUP4 DUP2 MSTORE PUSH1 0x20 ADD SWAP1 DUP2 MSTORE PUSH1 0x20 ADD PUSH1 0x0 KECCAK256 PUSH1 0x11 ADD PUSH1 0x0 PUSH2 0x100 EXP DUP2 SLOAD DUP2 PUSH1 0xFF MUL NOT AND SWAP1 DUP4 ISZERO ISZERO MUL OR SWAP1 SSTORE POP PUSH32 0xDAB2890E878EF6D9A9F1D69F761D77BF93C6049FCCAA71ABC31BAA20493179A CALLER DUP3 PUSH1 0x0 PUSH1 0x40 MLOAD PUSH2 0x2A80 SWAP4 SWAP3 SWAP2 SWAP1 PUSH2 0x59E6 JUMP JUMPDEST PUSH1 0x40 MLOAD DUP1 SWAP2 SUB SWAP1 LOG1 POP JUMP JUMPDEST PUSH1 0x60 PUSH1 0x0 DUP1 PUSH2 0x2A99 DUP7 PUSH2 0x2BC5 JUMP JUMPDEST SWAP1 POP PUSH1 0x60 PUSH1 0x0 DUP6 ISZERO PUSH2 0x2AD0 JUMPI DUP3 PUSH2 0x1C0 ADD MLOAD DUP8 DUP2 MLOAD DUP2 LT PUSH2 0x2ABD JUMPI PUSH2 0x2ABC PUSH2 0x648F JUMP JUMPDEST JUMPDEST PUSH1 0x20 MUL PUSH1 0x20 ADD ADD MLOAD PUSH1 0x40 ADD MLOAD SWAP2 POP PUSH2 0x2AF7 JUMP JUMPDEST DUP3 PUSH2 0x1E0 ADD MLOAD DUP8 DUP2 MLOAD DUP2 LT PUSH2 0x2AE8 JUMPI PUSH2 0x2AE7 PUSH2 0x648F JUMP JUMPDEST JUMPDEST PUSH1 0x20 MUL PUSH1 0x20 ADD ADD MLOAD PUSH1 0x40 ADD MLOAD SWAP2 POP JUMPDEST PUSH1 0x60 PUSH1 0x0 JUMPDEST DUP4 MLOAD DUP2 LT ISZERO PUSH2 0x2BB2 JUMPI PUSH1 0x2 PUSH1 0x5 DUP2 GT ISZERO PUSH2 0x2B19 JUMPI PUSH2 0x2B18 PUSH2 0x6431 JUMP JUMPDEST JUMPDEST DUP5 DUP3 DUP2 MLOAD DUP2 LT PUSH2 0x2B2C JUMPI PUSH2 0x2B2B PUSH2 0x648F JUMP JUMPDEST JUMPDEST PUSH1 0x20 MUL PUSH1 0x20 ADD ADD MLOAD PUSH1 0x5 DUP2 GT ISZERO PUSH2 0x2B46 JUMPI PUSH2 0x2B45 PUSH2 0x6431 JUMP JUMPDEST JUMPDEST LT ISZERO PUSH2 0x2B6E JUMPI DUP1 DUP3 DUP4 MLOAD DUP2 MLOAD DUP2 LT PUSH2 0x2B61 JUMPI PUSH2 0x2B60 PUSH2 0x648F JUMP JUMPDEST JUMPDEST PUSH1 0x20 MUL PUSH1 0x20 ADD ADD DUP2 DUP2 MSTORE POP POP JUMPDEST DUP5 PUSH2 0x1A0 ADD MLOAD DUP2 DUP2 MLOAD DUP2 LT PUSH2 0x2B86 JUMPI PUSH2 0x2B85 PUSH2 0x648F JUMP JUMPDEST JUMPDEST PUSH1 0x20 MUL PUSH1 0x20 ADD ADD MLOAD PUSH1 0x20 ADD MLOAD DUP4 PUSH2 0x2B9D SWAP2 SWAP1 PUSH2 0x6119 JUMP JUMPDEST SWAP3 POP DUP1 DUP1 PUSH2 0x2BAA SWAP1 PUSH2 0x638A JUMP JUMPDEST SWAP2 POP POP PUSH2 0x2AFC JUMP JUMPDEST POP DUP1 DUP3 SWAP6 POP SWAP6 POP POP POP POP POP SWAP4 POP SWAP4 SWAP2 POP POP JUMP JUMPDEST PUSH2 0x2BCD PUSH2 0x40F3 JUMP JUMPDEST PUSH1 0x0 DUP1 DUP4 DUP2 MSTORE PUSH1 0x20 ADD SWAP1 DUP2 MSTORE PUSH1 0x20 ADD PUSH1 0x0 KECCAK256 PUSH1 0x40 MLOAD DUP1 PUSH2 0x2A0 ADD PUSH1 0x40 MSTORE SWAP1 DUP2 PUSH1 0x0 DUP3 ADD PUSH1 0x0 SWAP1 SLOAD SWAP1 PUSH2 0x100 EXP SWAP1 DIV PUSH20 0xFFFFFFFFFFFFFFFFFFFFFFFFFFFFFFFFFFFFFFFF AND PUSH20 0xFFFFFFFFFFFFFFFFFFFFFFFFFFFFFFFFFFFFFFFF AND PUSH20 0xFFFFFFFFFFFFFFFFFFFFFFFFFFFFFFFFFFFFFFFF AND DUP2 MSTORE PUSH1 0x20 ADD PUSH1 0x1 DUP3 ADD SLOAD DUP2 MSTORE PUSH1 0x20 ADD PUSH1 0x2 DUP3 ADD DUP1 SLOAD PUSH2 0x2C5B SWAP1 PUSH2 0x6327 JUMP JUMPDEST DUP1 PUSH1 0x1F ADD PUSH1 0x20 DUP1 SWAP2 DIV MUL PUSH1 0x20 ADD PUSH1 0x40 MLOAD SWAP1 DUP2 ADD PUSH1 0x40 MSTORE DUP1 SWAP3 SWAP2 SWAP1 DUP2 DUP2 MSTORE PUSH1 0x20 ADD DUP3 DUP1 SLOAD PUSH2 0x2C87 SWAP1 PUSH2 0x6327 JUMP JUMPDEST DUP1 ISZERO PUSH2 0x2CD4 JUMPI DUP1 PUSH1 0x1F LT PUSH2 0x2CA9 JUMPI PUSH2 0x100 DUP1 DUP4 SLOAD DIV MUL DUP4 MSTORE SWAP2 PUSH1 0x20 ADD SWAP2 PUSH2 0x2CD4 JUMP JUMPDEST DUP3 ADD SWAP2 SWAP1 PUSH1 0x0 MSTORE PUSH1 0x20 PUSH1 0x0 KECCAK256 SWAP1 JUMPDEST DUP2 SLOAD DUP2 MSTORE SWAP1 PUSH1 0x1 ADD SWAP1 PUSH1 0x20 ADD DUP1 DUP4 GT PUSH2 0x2CB7 JUMPI DUP3 SWAP1 SUB PUSH1 0x1F AND DUP3 ADD SWAP2 JUMPDEST POP POP POP POP POP DUP2 MSTORE PUSH1 0x20 ADD PUSH1 0x3 DUP3 ADD DUP1 SLOAD PUSH2 0x2CED SWAP1 PUSH2 0x6327 JUMP JUMPDEST DUP1 PUSH1 0x1F ADD PUSH1 0x20 DUP1 SWAP2 DIV MUL PUSH1 0x20 ADD PUSH1 0x40 MLOAD SWAP1 DUP2 ADD PUSH1 0x40 MSTORE DUP1 SWAP3 SWAP2 SWAP1 DUP2 DUP2 MSTORE PUSH1 0x20 ADD DUP3 DUP1 SLOAD PUSH2 0x2D19 SWAP1 PUSH2 0x6327 JUMP JUMPDEST DUP1 ISZERO PUSH2 0x2D66 JUMPI DUP1 PUSH1 0x1F LT PUSH2 0x2D3B JUMPI PUSH2 0x100 DUP1 DUP4 SLOAD DIV MUL DUP4 MSTORE SWAP2 PUSH1 0x20 ADD SWAP2 PUSH2 0x2D66 JUMP JUMPDEST DUP3 ADD SWAP2 SWAP1 PUSH1 0x0 MSTORE PUSH1 0x20 PUSH1 0x0 KECCAK256 SWAP1 JUMPDEST DUP2 SLOAD DUP2 MSTORE SWAP1 PUSH1 0x1 ADD SWAP1 PUSH1 0x20 ADD DUP1 DUP4 GT PUSH2 0x2D49 JUMPI DUP3 SWAP1 SUB PUSH1 0x1F AND DUP3 ADD SWAP2 JUMPDEST POP POP POP POP POP DUP2 MSTORE PUSH1 0x20 ADD PUSH1 0x4 DUP3 ADD SLOAD DUP2 MSTORE PUSH1 0x20 ADD PUSH1 0x5 DUP3 ADD DUP1 SLOAD PUSH2 0x2D89 SWAP1 PUSH2 0x6327 JUMP JUMPDEST DUP1 PUSH1 0x1F ADD PUSH1 0x20 DUP1 SWAP2 DIV MUL PUSH1 0x20 ADD PUSH1 0x40 MLOAD SWAP1 DUP2 ADD PUSH1 0x40 MSTORE DUP1 SWAP3 SWAP2 SWAP1 DUP2 DUP2 MSTORE PUSH1 0x20 ADD DUP3 DUP1 SLOAD PUSH2 0x2DB5 SWAP1 PUSH2 0x6327 JUMP JUMPDEST DUP1 ISZERO PUSH2 0x2E02 JUMPI DUP1 PUSH1 0x1F LT PUSH2 0x2DD7 JUMPI PUSH2 0x100 DUP1 DUP4 SLOAD DIV MUL DUP4 MSTORE SWAP2 PUSH1 0x20 ADD SWAP2 PUSH2 0x2E02 JUMP JUMPDEST DUP3 ADD SWAP2 SWAP1 PUSH1 0x0 MSTORE PUSH1 0x20 PUSH1 0x0 KECCAK256 SWAP1 JUMPDEST DUP2 SLOAD DUP2 MSTORE SWAP1 PUSH1 0x1 ADD SWAP1 PUSH1 0x20 ADD DUP1 DUP4 GT PUSH2 0x2DE5 JUMPI DUP3 SWAP1 SUB PUSH1 0x1F AND DUP3 ADD SWAP2 JUMPDEST POP POP POP POP POP DUP2 MSTORE PUSH1 0x20 ADD PUSH1 0x6 DUP3 ADD DUP1 SLOAD PUSH2 0x2E1B SWAP1 PUSH2 0x6327 JUMP JUMPDEST DUP1 PUSH1 0x1F ADD PUSH1 0x20 DUP1 SWAP2 DIV MUL PUSH1 0x20 ADD PUSH1 0x40 MLOAD SWAP1 DUP2 ADD PUSH1 0x40 MSTORE DUP1 SWAP3 SWAP2 SWAP1 DUP2 DUP2 MSTORE PUSH1 0x20 ADD DUP3 DUP1 SLOAD PUSH2 0x2E47 SWAP1 PUSH2 0x6327 JUMP JUMPDEST DUP1 ISZERO PUSH2 0x2E94 JUMPI DUP1 PUSH1 0x1F LT PUSH2 0x2E69 JUMPI PUSH2 0x100 DUP1 DUP4 SLOAD DIV MUL DUP4 MSTORE SWAP2 PUSH1 0x20 ADD SWAP2 PUSH2 0x2E94 JUMP JUMPDEST DUP3 ADD SWAP2 SWAP1 PUSH1 0x0 MSTORE PUSH1 0x20 PUSH1 0x0 KECCAK256 SWAP1 JUMPDEST DUP2 SLOAD DUP2 MSTORE SWAP1 PUSH1 0x1 ADD SWAP1 PUSH1 0x20 ADD DUP1 DUP4 GT PUSH2 0x2E77 JUMPI DUP3 SWAP1 SUB PUSH1 0x1F AND DUP3 ADD SWAP2 JUMPDEST POP POP POP POP POP DUP2 MSTORE PUSH1 0x20 ADD PUSH1 0x7 DUP3 ADD DUP1 SLOAD DUP1 PUSH1 0x20 MUL PUSH1 0x20 ADD PUSH1 0x40 MLOAD SWAP1 DUP2 ADD PUSH1 0x40 MSTORE DUP1 SWAP3 SWAP2 SWAP1 DUP2 DUP2 MSTORE PUSH1 0x20 ADD PUSH1 0x0 SWAP1 JUMPDEST DUP3 DUP3 LT ISZERO PUSH2 0x2F6E JUMPI DUP4 DUP3 SWAP1 PUSH1 0x0 MSTORE PUSH1 0x20 PUSH1 0x0 KECCAK256 ADD DUP1 SLOAD PUSH2 0x2EE1 SWAP1 PUSH2 0x6327 JUMP JUMPDEST DUP1 PUSH1 0x1F ADD PUSH1 0x20 DUP1 SWAP2 DIV MUL PUSH1 0x20 ADD PUSH1 0x40 MLOAD SWAP1 DUP2 ADD PUSH1 0x40 MSTORE DUP1 SWAP3 SWAP2 SWAP1 DUP2 DUP2 MSTORE PUSH1 0x20 ADD DUP3 DUP1 SLOAD PUSH2 0x2F0D SWAP1 PUSH2 0x6327 JUMP JUMPDEST DUP1 ISZERO PUSH2 0x2F5A JUMPI DUP1 PUSH1 0x1F LT PUSH2 0x2F2F JUMPI PUSH2 0x100 DUP1 DUP4 SLOAD DIV MUL DUP4 MSTORE SWAP2 PUSH1 0x20 ADD SWAP2 PUSH2 0x2F5A JUMP JUMPDEST DUP3 ADD SWAP2 SWAP1 PUSH1 0x0 MSTORE PUSH1 0x20 PUSH1 0x0 KECCAK256 SWAP1 JUMPDEST DUP2 SLOAD DUP2 MSTORE SWAP1 PUSH1 0x1 ADD SWAP1 PUSH1 0x20 ADD DUP1 DUP4 GT PUSH2 0x2F3D JUMPI DUP3 SWAP1 SUB PUSH1 0x1F AND DUP3 ADD SWAP2 JUMPDEST POP POP POP POP POP DUP2 MSTORE PUSH1 0x20 ADD SWAP1 PUSH1 0x1 ADD SWAP1 PUSH2 0x2EC2 JUMP JUMPDEST POP POP POP POP DUP2 MSTORE PUSH1 0x20 ADD PUSH1 0x8 DUP3 ADD SLOAD DUP2 MSTORE PUSH1 0x20 ADD PUSH1 0x9 DUP3 ADD SLOAD DUP2 MSTORE PUSH1 0x20 ADD PUSH1 0xA DUP3 ADD PUSH1 0x0 SWAP1 SLOAD SWAP1 PUSH2 0x100 EXP SWAP1 DIV PUSH1 0xFF AND ISZERO ISZERO ISZERO ISZERO DUP2 MSTORE PUSH1 0x20 ADD PUSH1 0xA DUP3 ADD PUSH1 0x1 SWAP1 SLOAD SWAP1 PUSH2 0x100 EXP SWAP1 DIV PUSH1 0xFF AND ISZERO ISZERO ISZERO ISZERO DUP2 MSTORE PUSH1 0x20 ADD PUSH1 0xB DUP3 ADD SLOAD DUP2 MSTORE PUSH1 0x20 ADD PUSH1 0xC DUP3 ADD DUP1 SLOAD DUP1 PUSH1 0x20 MUL PUSH1 0x20 ADD PUSH1 0x40 MLOAD SWAP1 DUP2 ADD PUSH1 0x40 MSTORE DUP1 SWAP3 SWAP2 SWAP1 DUP2 DUP2 MSTORE PUSH1 0x20 ADD PUSH1 0x0 SWAP1 JUMPDEST DUP3 DUP3 LT ISZERO PUSH2 0x326C JUMPI DUP4 DUP3 SWAP1 PUSH1 0x0 MSTORE PUSH1 0x20 PUSH1 0x0 KECCAK256 SWAP1 PUSH1 0xB MUL ADD PUSH1 0x40 MLOAD DUP1 PUSH1 0xA0 ADD PUSH1 0x40 MSTORE SWAP1 DUP2 PUSH1 0x0 DUP3 ADD PUSH1 0x40 MLOAD DUP1 PUSH1 0xE0 ADD PUSH1 0x40 MSTORE SWAP1 DUP2 PUSH1 0x0 DUP3 ADD DUP1 SLOAD PUSH2 0x3032 SWAP1 PUSH2 0x6327 JUMP JUMPDEST DUP1 PUSH1 0x1F ADD PUSH1 0x20 DUP1 SWAP2 DIV MUL PUSH1 0x20 ADD PUSH1 0x40 MLOAD SWAP1 DUP2 ADD PUSH1 0x40 MSTORE DUP1 SWAP3 SWAP2 SWAP1 DUP2 DUP2 MSTORE PUSH1 0x20 ADD DUP3 DUP1 SLOAD PUSH2 0x305E SWAP1 PUSH2 0x6327 JUMP JUMPDEST DUP1 ISZERO PUSH2 0x30AB JUMPI DUP1 PUSH1 0x1F LT PUSH2 0x3080 JUMPI PUSH2 0x100 DUP1 DUP4 SLOAD DIV MUL DUP4 MSTORE SWAP2 PUSH1 0x20 ADD SWAP2 PUSH2 0x30AB JUMP JUMPDEST DUP3 ADD SWAP2 SWAP1 PUSH1 0x0 MSTORE PUSH1 0x20 PUSH1 0x0 KECCAK256 SWAP1 JUMPDEST DUP2 SLOAD DUP2 MSTORE SWAP1 PUSH1 0x1 ADD SWAP1 PUSH1 0x20 ADD DUP1 DUP4 GT PUSH2 0x308E JUMPI DUP3 SWAP1 SUB PUSH1 0x1F AND DUP3 ADD SWAP2 JUMPDEST POP POP POP POP POP DUP2 MSTORE PUSH1 0x20 ADD PUSH1 0x1 DUP3 ADD SLOAD DUP2 MSTORE PUSH1 0x20 ADD PUSH1 0x2 DUP3 ADD SLOAD DUP2 MSTORE PUSH1 0x20 ADD PUSH1 0x3 DUP3 ADD SLOAD DUP2 MSTORE PUSH1 0x20 ADD PUSH1 0x4 DUP3 ADD SLOAD DUP2 MSTORE PUSH1 0x20 ADD PUSH1 0x5 DUP3 ADD SLOAD DUP2 MSTORE PUSH1 0x20 ADD PUSH1 0x6 DUP3 ADD DUP1 SLOAD PUSH2 0x30F6 SWAP1 PUSH2 0x6327 JUMP JUMPDEST DUP1 PUSH1 0x1F ADD PUSH1 0x20 DUP1 SWAP2 DIV MUL PUSH1 0x20 ADD PUSH1 0x40 MLOAD SWAP1 DUP2 ADD PUSH1 0x40 MSTORE DUP1 SWAP3 SWAP2 SWAP1 DUP2 DUP2 MSTORE PUSH1 0x20 ADD DUP3 DUP1 SLOAD PUSH2 0x3122 SWAP1 PUSH2 0x6327 JUMP JUMPDEST DUP1 ISZERO PUSH2 0x316F JUMPI DUP1 PUSH1 0x1F LT PUSH2 0x3144 JUMPI PUSH2 0x100 DUP1 DUP4 SLOAD DIV MUL DUP4 MSTORE SWAP2 PUSH1 0x20 ADD SWAP2 PUSH2 0x316F JUMP JUMPDEST DUP3 ADD SWAP2 SWAP1 PUSH1 0x0 MSTORE PUSH1 0x20 PUSH1 0x0 KECCAK256 SWAP1 JUMPDEST DUP2 SLOAD DUP2 MSTORE SWAP1 PUSH1 0x1 ADD SWAP1 PUSH1 0x20 ADD DUP1 DUP4 GT PUSH2 0x3152 JUMPI DUP3 SWAP1 SUB PUSH1 0x1F AND DUP3 ADD SWAP2 JUMPDEST POP POP POP POP POP DUP2 MSTORE POP POP DUP2 MSTORE PUSH1 0x20 ADD PUSH1 0x7 DUP3 ADD SLOAD DUP2 MSTORE PUSH1 0x20 ADD PUSH1 0x8 DUP3 ADD DUP1 SLOAD PUSH2 0x3196 SWAP1 PUSH2 0x6327 JUMP JUMPDEST DUP1 PUSH1 0x1F ADD PUSH1 0x20 DUP1 SWAP2 DIV MUL PUSH1 0x20 ADD PUSH1 0x40 MLOAD SWAP1 DUP2 ADD PUSH1 0x40 MSTORE DUP1 SWAP3 SWAP2 SWAP1 DUP2 DUP2 MSTORE PUSH1 0x20 ADD DUP3 DUP1 SLOAD PUSH2 0x31C2 SWAP1 PUSH2 0x6327 JUMP JUMPDEST DUP1 ISZERO PUSH2 0x320F JUMPI DUP1 PUSH1 0x1F LT PUSH2 0x31E4 JUMPI PUSH2 0x100 DUP1 DUP4 SLOAD DIV MUL DUP4 MSTORE SWAP2 PUSH1 0x20 ADD SWAP2 PUSH2 0x320F JUMP JUMPDEST DUP3 ADD SWAP2 SWAP1 PUSH1 0x0 MSTORE PUSH1 0x20 PUSH1 0x0 KECCAK256 SWAP1 JUMPDEST DUP2 SLOAD DUP2 MSTORE SWAP1 PUSH1 0x1 ADD SWAP1 PUSH1 0x20 ADD DUP1 DUP4 GT PUSH2 0x31F2 JUMPI DUP3 SWAP1 SUB PUSH1 0x1F AND DUP3 ADD SWAP2 JUMPDEST POP POP POP POP POP DUP2 MSTORE PUSH1 0x20 ADD PUSH1 0x9 DUP3 ADD PUSH1 0x0 SWAP1 SLOAD SWAP1 PUSH2 0x100 EXP SWAP1 DIV PUSH1 0xFF AND PUSH1 0x5 DUP2 GT ISZERO PUSH2 0x323D JUMPI PUSH2 0x323C PUSH2 0x6431 JUMP JUMPDEST JUMPDEST PUSH1 0x5 DUP2 GT ISZERO PUSH2 0x324F JUMPI PUSH2 0x324E PUSH2 0x6431 JUMP JUMPDEST JUMPDEST DUP2 MSTORE PUSH1 0x20 ADD PUSH1 0xA DUP3 ADD SLOAD DUP2 MSTORE POP POP DUP2 MSTORE PUSH1 0x20 ADD SWAP1 PUSH1 0x1 ADD SWAP1 PUSH2 0x2FEF JUMP JUMPDEST POP POP POP POP DUP2 MSTORE PUSH1 0x20 ADD PUSH1 0xD DUP3 ADD DUP1 SLOAD DUP1 PUSH1 0x20 MUL PUSH1 0x20 ADD PUSH1 0x40 MLOAD SWAP1 DUP2 ADD PUSH1 0x40 MSTORE DUP1 SWAP3 SWAP2 SWAP1 DUP2 DUP2 MSTORE PUSH1 0x20 ADD PUSH1 0x0 SWAP1 JUMPDEST DUP3 DUP3 LT ISZERO PUSH2 0x34E9 JUMPI DUP4 DUP3 SWAP1 PUSH1 0x0 MSTORE PUSH1 0x20 PUSH1 0x0 KECCAK256 SWAP1 PUSH1 0x5 MUL ADD PUSH1 0x40 MLOAD DUP1 PUSH1 0xA0 ADD PUSH1 0x40 MSTORE SWAP1 DUP2 PUSH1 0x0 DUP3 ADD PUSH1 0x0 SWAP1 SLOAD SWAP1 PUSH2 0x100 EXP SWAP1 DIV PUSH20 0xFFFFFFFFFFFFFFFFFFFFFFFFFFFFFFFFFFFFFFFF AND PUSH20 0xFFFFFFFFFFFFFFFFFFFFFFFFFFFFFFFFFFFFFFFF AND PUSH20 0xFFFFFFFFFFFFFFFFFFFFFFFFFFFFFFFFFFFFFFFF AND DUP2 MSTORE PUSH1 0x20 ADD PUSH1 0x1 DUP3 ADD DUP1 SLOAD DUP1 PUSH1 0x20 MUL PUSH1 0x20 ADD PUSH1 0x40 MLOAD SWAP1 DUP2 ADD PUSH1 0x40 MSTORE DUP1 SWAP3 SWAP2 SWAP1 DUP2 DUP2 MSTORE PUSH1 0x20 ADD DUP3 DUP1 SLOAD DUP1 ISZERO PUSH2 0x3361 JUMPI PUSH1 0x20 MUL DUP3 ADD SWAP2 SWAP1 PUSH1 0x0 MSTORE PUSH1 0x20 PUSH1 0x0 KECCAK256 SWAP1 JUMPDEST DUP2 SLOAD DUP2 MSTORE PUSH1 0x20 ADD SWAP1 PUSH1 0x1 ADD SWAP1 DUP1 DUP4 GT PUSH2 0x334D JUMPI JUMPDEST POP POP POP POP POP DUP2 MSTORE PUSH1 0x20 ADD PUSH1 0x2 DUP3 ADD DUP1 SLOAD DUP1 PUSH1 0x20 MUL PUSH1 0x20 ADD PUSH1 0x40 MLOAD SWAP1 DUP2 ADD PUSH1 0x40 MSTORE DUP1 SWAP3 SWAP2 SWAP1 DUP2 DUP2 MSTORE PUSH1 0x20 ADD DUP3 DUP1 SLOAD DUP1 ISZERO PUSH2 0x33EE JUMPI PUSH1 0x20 MUL DUP3 ADD SWAP2 SWAP1 PUSH1 0x0 MSTORE PUSH1 0x20 PUSH1 0x0 KECCAK256 SWAP1 PUSH1 0x0 SWAP1 JUMPDEST DUP3 DUP3 SWAP1 SLOAD SWAP1 PUSH2 0x100 EXP SWAP1 DIV PUSH1 0xFF AND PUSH1 0x5 DUP2 GT ISZERO PUSH2 0x33C8 JUMPI PUSH2 0x33C7 PUSH2 0x6431 JUMP JUMPDEST JUMPDEST DUP2 MSTORE PUSH1 0x20 ADD SWAP1 PUSH1 0x1 ADD SWAP1 PUSH1 0x20 DUP3 PUSH1 0x0 ADD DIV SWAP3 DUP4 ADD SWAP3 PUSH1 0x1 SUB DUP3 MUL SWAP2 POP DUP1 DUP5 GT PUSH2 0x33A8 JUMPI SWAP1 POP JUMPDEST POP POP POP POP POP DUP2 MSTORE PUSH1 0x20 ADD PUSH1 0x3 DUP3 ADD DUP1 SLOAD DUP1 PUSH1 0x20 MUL PUSH1 0x20 ADD PUSH1 0x40 MLOAD SWAP1 DUP2 ADD PUSH1 0x40 MSTORE DUP1 SWAP3 SWAP2 SWAP1 DUP2 DUP2 MSTORE PUSH1 0x20 ADD PUSH1 0x0 SWAP1 JUMPDEST DUP3 DUP3 LT ISZERO PUSH2 0x34C8 JUMPI DUP4 DUP3 SWAP1 PUSH1 0x0 MSTORE PUSH1 0x20 PUSH1 0x0 KECCAK256 ADD DUP1 SLOAD PUSH2 0x343B SWAP1 PUSH2 0x6327 JUMP JUMPDEST DUP1 PUSH1 0x1F ADD PUSH1 0x20 DUP1 SWAP2 DIV MUL PUSH1 0x20 ADD PUSH1 0x40 MLOAD SWAP1 DUP2 ADD PUSH1 0x40 MSTORE DUP1 SWAP3 SWAP2 SWAP1 DUP2 DUP2 MSTORE PUSH1 0x20 ADD DUP3 DUP1 SLOAD PUSH2 0x3467 SWAP1 PUSH2 0x6327 JUMP JUMPDEST DUP1 ISZERO PUSH2 0x34B4 JUMPI DUP1 PUSH1 0x1F LT PUSH2 0x3489 JUMPI PUSH2 0x100 DUP1 DUP4 SLOAD DIV MUL DUP4 MSTORE SWAP2 PUSH1 0x20 ADD SWAP2 PUSH2 0x34B4 JUMP JUMPDEST DUP3 ADD SWAP2 SWAP1 PUSH1 0x0 MSTORE PUSH1 0x20 PUSH1 0x0 KECCAK256 SWAP1 JUMPDEST DUP2 SLOAD DUP2 MSTORE SWAP1 PUSH1 0x1 ADD SWAP1 PUSH1 0x20 ADD DUP1 DUP4 GT PUSH2 0x3497 JUMPI DUP3 SWAP1 SUB PUSH1 0x1F AND DUP3 ADD SWAP2 JUMPDEST POP POP POP POP POP DUP2 MSTORE PUSH1 0x20 ADD SWAP1 PUSH1 0x1 ADD SWAP1 PUSH2 0x341C JUMP JUMPDEST POP POP POP POP DUP2 MSTORE PUSH1 0x20 ADD PUSH1 0x4 DUP3 ADD SLOAD DUP2 MSTORE POP POP DUP2 MSTORE PUSH1 0x20 ADD SWAP1 PUSH1 0x1 ADD SWAP1 PUSH2 0x3299 JUMP JUMPDEST POP POP POP POP DUP2 MSTORE PUSH1 0x20 ADD PUSH1 0xE DUP3 ADD DUP1 SLOAD DUP1 PUSH1 0x20 MUL PUSH1 0x20 ADD PUSH1 0x40 MLOAD SWAP1 DUP2 ADD PUSH1 0x40 MSTORE DUP1 SWAP3 SWAP2 SWAP1 DUP2 DUP2 MSTORE PUSH1 0x20 ADD PUSH1 0x0 SWAP1 JUMPDEST DUP3 DUP3 LT ISZERO PUSH2 0x3766 JUMPI DUP4 DUP3 SWAP1 PUSH1 0x0 MSTORE PUSH1 0x20 PUSH1 0x0 KECCAK256 SWAP1 PUSH1 0x5 MUL ADD PUSH1 0x40 MLOAD DUP1 PUSH1 0xA0 ADD PUSH1 0x40 MSTORE SWAP1 DUP2 PUSH1 0x0 DUP3 ADD PUSH1 0x0 SWAP1 SLOAD SWAP1 PUSH2 0x100 EXP SWAP1 DIV PUSH20 0xFFFFFFFFFFFFFFFFFFFFFFFFFFFFFFFFFFFFFFFF AND PUSH20 0xFFFFFFFFFFFFFFFFFFFFFFFFFFFFFFFFFFFFFFFF AND PUSH20 0xFFFFFFFFFFFFFFFFFFFFFFFFFFFFFFFFFFFFFFFF AND DUP2 MSTORE PUSH1 0x20 ADD PUSH1 0x1 DUP3 ADD DUP1 SLOAD DUP1 PUSH1 0x20 MUL PUSH1 0x20 ADD PUSH1 0x40 MLOAD SWAP1 DUP2 ADD PUSH1 0x40 MSTORE DUP1 SWAP3 SWAP2 SWAP1 DUP2 DUP2 MSTORE PUSH1 0x20 ADD DUP3 DUP1 SLOAD DUP1 ISZERO PUSH2 0x35DE JUMPI PUSH1 0x20 MUL DUP3 ADD SWAP2 SWAP1 PUSH1 0x0 MSTORE PUSH1 0x20 PUSH1 0x0 KECCAK256 SWAP1 JUMPDEST DUP2 SLOAD DUP2 MSTORE PUSH1 0x20 ADD SWAP1 PUSH1 0x1 ADD SWAP1 DUP1 DUP4 GT PUSH2 0x35CA JUMPI JUMPDEST POP POP POP POP POP DUP2 MSTORE PUSH1 0x20 ADD PUSH1 0x2 DUP3 ADD DUP1 SLOAD DUP1 PUSH1 0x20 MUL PUSH1 0x20 ADD PUSH1 0x40 MLOAD SWAP1 DUP2 ADD PUSH1 0x40 MSTORE DUP1 SWAP3 SWAP2 SWAP1 DUP2 DUP2 MSTORE PUSH1 0x20 ADD DUP3 DUP1 SLOAD DUP1 ISZERO PUSH2 0x366B JUMPI PUSH1 0x20 MUL DUP3 ADD SWAP2 SWAP1 PUSH1 0x0 MSTORE PUSH1 0x20 PUSH1 0x0 KECCAK256 SWAP1 PUSH1 0x0 SWAP1 JUMPDEST DUP3 DUP3 SWAP1 SLOAD SWAP1 PUSH2 0x100 EXP SWAP1 DIV PUSH1 0xFF AND PUSH1 0x5 DUP2 GT ISZERO PUSH2 0x3645 JUMPI PUSH2 0x3644 PUSH2 0x6431 JUMP JUMPDEST JUMPDEST DUP2 MSTORE PUSH1 0x20 ADD SWAP1 PUSH1 0x1 ADD SWAP1 PUSH1 0x20 DUP3 PUSH1 0x0 ADD DIV SWAP3 DUP4 ADD SWAP3 PUSH1 0x1 SUB DUP3 MUL SWAP2 POP DUP1 DUP5 GT PUSH2 0x3625 JUMPI SWAP1 POP JUMPDEST POP POP POP POP POP DUP2 MSTORE PUSH1 0x20 ADD PUSH1 0x3 DUP3 ADD DUP1 SLOAD DUP1 PUSH1 0x20 MUL PUSH1 0x20 ADD PUSH1 0x40 MLOAD SWAP1 DUP2 ADD PUSH1 0x40 MSTORE DUP1 SWAP3 SWAP2 SWAP1 DUP2 DUP2 MSTORE PUSH1 0x20 ADD PUSH1 0x0 SWAP1 JUMPDEST DUP3 DUP3 LT ISZERO PUSH2 0x3745 JUMPI DUP4 DUP3 SWAP1 PUSH1 0x0 MSTORE PUSH1 0x20 PUSH1 0x0 KECCAK256 ADD DUP1 SLOAD PUSH2 0x36B8 SWAP1 PUSH2 0x6327 JUMP JUMPDEST DUP1 PUSH1 0x1F ADD PUSH1 0x20 DUP1 SWAP2 DIV MUL PUSH1 0x20 ADD PUSH1 0x40 MLOAD SWAP1 DUP2 ADD PUSH1 0x40 MSTORE DUP1 SWAP3 SWAP2 SWAP1 DUP2 DUP2 MSTORE PUSH1 0x20 ADD DUP3 DUP1 SLOAD PUSH2 0x36E4 SWAP1 PUSH2 0x6327 JUMP JUMPDEST DUP1 ISZERO PUSH2 0x3731 JUMPI DUP1 PUSH1 0x1F LT PUSH2 0x3706 JUMPI PUSH2 0x100 DUP1 DUP4 SLOAD DIV MUL DUP4 MSTORE SWAP2 PUSH1 0x20 ADD SWAP2 PUSH2 0x3731 JUMP JUMPDEST DUP3 ADD SWAP2 SWAP1 PUSH1 0x0 MSTORE PUSH1 0x20 PUSH1 0x0 KECCAK256 SWAP1 JUMPDEST DUP2 SLOAD DUP2 MSTORE SWAP1 PUSH1 0x1 ADD SWAP1 PUSH1 0x20 ADD DUP1 DUP4 GT PUSH2 0x3714 JUMPI DUP3 SWAP1 SUB PUSH1 0x1F AND DUP3 ADD SWAP2 JUMPDEST POP POP POP POP POP DUP2 MSTORE PUSH1 0x20 ADD SWAP1 PUSH1 0x1 ADD SWAP1 PUSH2 0x3699 JUMP JUMPDEST POP POP POP POP DUP2 MSTORE PUSH1 0x20 ADD PUSH1 0x4 DUP3 ADD SLOAD DUP2 MSTORE POP POP DUP2 MSTORE PUSH1 0x20 ADD SWAP1 PUSH1 0x1 ADD SWAP1 PUSH2 0x3516 JUMP JUMPDEST POP POP POP POP DUP2 MSTORE PUSH1 0x20 ADD PUSH1 0xF DUP3 ADD SLOAD DUP2 MSTORE PUSH1 0x20 ADD PUSH1 0x10 DUP3 ADD SLOAD DUP2 MSTORE PUSH1 0x20 ADD PUSH1 0x11 DUP3 ADD PUSH1 0x0 SWAP1 SLOAD SWAP1 PUSH2 0x100 EXP SWAP1 DIV PUSH1 0xFF AND ISZERO ISZERO ISZERO ISZERO DUP2 MSTORE PUSH1 0x20 ADD PUSH1 0x11 DUP3 ADD PUSH1 0x1 SWAP1 SLOAD SWAP1 PUSH2 0x100 EXP SWAP1 DIV PUSH1 0xFF AND ISZERO ISZERO ISZERO ISZERO DUP2 MSTORE PUSH1 0x20 ADD PUSH1 0x11 DUP3 ADD PUSH1 0x2 SWAP1 SLOAD SWAP1 PUSH2 0x100 EXP SWAP1 DIV PUSH1 0xFF AND PUSH1 0x5 DUP2 GT ISZERO PUSH2 0x37DD JUMPI PUSH2 0x37DC PUSH2 0x6431 JUMP JUMPDEST JUMPDEST PUSH1 0x5 DUP2 GT ISZERO PUSH2 0x37EF JUMPI PUSH2 0x37EE PUSH2 0x6431 JUMP JUMPDEST JUMPDEST DUP2 MSTORE POP POP SWAP1 POP SWAP2 SWAP1 POP JUMP JUMPDEST PUSH1 0x0 PUSH2 0x3804 PUSH2 0x40A3 JUMP JUMPDEST PUSH1 0x0 DUP1 PUSH1 0x0 PUSH1 0x1 SLOAD DUP2 MSTORE PUSH1 0x20 ADD SWAP1 DUP2 MSTORE PUSH1 0x20 ADD PUSH1 0x0 KECCAK256 SWAP1 POP DUP3 PUSH1 0x0 ADD MLOAD DUP2 PUSH1 0x1 ADD DUP2 SWAP1 SSTORE POP DUP3 PUSH1 0x20 ADD MLOAD DUP2 PUSH1 0x2 ADD SWAP1 DUP1 MLOAD SWAP1 PUSH1 0x20 ADD SWAP1 PUSH2 0x3845 SWAP3 SWAP2 SWAP1 PUSH2 0x436B JUMP JUMPDEST POP DUP3 PUSH1 0x40 ADD MLOAD DUP2 PUSH1 0x3 ADD SWAP1 DUP1 MLOAD SWAP1 PUSH1 0x20 ADD SWAP1 PUSH2 0x3862 SWAP3 SWAP2 SWAP1 PUSH2 0x436B JUMP JUMPDEST POP DUP3 PUSH1 0x60 ADD MLOAD DUP2 PUSH1 0x4 ADD DUP2 SWAP1 SSTORE POP DUP3 PUSH1 0x80 ADD MLOAD DUP2 PUSH1 0x5 ADD SWAP1 DUP1 MLOAD SWAP1 PUSH1 0x20 ADD SWAP1 PUSH2 0x388C SWAP3 SWAP2 SWAP1 PUSH2 0x436B JUMP JUMPDEST POP DUP3 PUSH1 0xA0 ADD MLOAD DUP2 PUSH1 0x6 ADD SWAP1 DUP1 MLOAD SWAP1 PUSH1 0x20 ADD SWAP1 PUSH2 0x38A9 SWAP3 SWAP2 SWAP1 PUSH2 0x436B JUMP JUMPDEST POP DUP3 PUSH1 0xC0 ADD MLOAD DUP2 PUSH1 0x7 ADD SWAP1 DUP1 MLOAD SWAP1 PUSH1 0x20 ADD SWAP1 PUSH2 0x38C6 SWAP3 SWAP2 SWAP1 PUSH2 0x430B JUMP JUMPDEST POP DUP3 PUSH1 0xE0 ADD MLOAD DUP2 PUSH1 0x8 ADD DUP2 SWAP1 SSTORE POP DUP3 PUSH2 0x100 ADD MLOAD DUP2 PUSH1 0x9 ADD DUP2 SWAP1 SSTORE POP DUP3 PUSH2 0x160 ADD MLOAD DUP2 PUSH1 0xB ADD DUP2 SWAP1 SSTORE POP DUP3 PUSH2 0x120 ADD MLOAD DUP2 PUSH1 0xA ADD PUSH1 0x0 PUSH2 0x100 EXP DUP2 SLOAD DUP2 PUSH1 0xFF MUL NOT AND SWAP1 DUP4 ISZERO ISZERO MUL OR SWAP1 SSTORE POP DUP3 PUSH2 0x140 ADD MLOAD DUP2 PUSH1 0xA ADD PUSH1 0x1 PUSH2 0x100 EXP DUP2 SLOAD DUP2 PUSH1 0xFF MUL NOT AND SWAP1 DUP4 ISZERO ISZERO MUL OR SWAP1 SSTORE POP PUSH1 0x0 DUP2 PUSH1 0x11 ADD PUSH1 0x2 PUSH2 0x100 EXP DUP2 SLOAD DUP2 PUSH1 0xFF MUL NOT AND SWAP1 DUP4 PUSH1 0x5 DUP2 GT ISZERO PUSH2 0x395A JUMPI PUSH2 0x3959 PUSH2 0x6431 JUMP JUMPDEST JUMPDEST MUL OR SWAP1 SSTORE POP DUP3 PUSH2 0x1A0 ADD MLOAD DUP2 PUSH1 0xF ADD DUP2 SWAP1 SSTORE POP DUP3 PUSH2 0x1C0 ADD MLOAD DUP2 PUSH1 0x10 ADD DUP2 SWAP1 SSTORE POP PUSH1 0x1 DUP2 PUSH1 0x11 ADD PUSH1 0x0 PUSH2 0x100 EXP DUP2 SLOAD DUP2 PUSH1 0xFF MUL NOT AND SWAP1 DUP4 ISZERO ISZERO MUL OR SWAP1 SSTORE POP PUSH1 0x1 DUP2 PUSH1 0x11 ADD PUSH1 0x1 PUSH2 0x100 EXP DUP2 SLOAD DUP2 PUSH1 0xFF MUL NOT AND SWAP1 DUP4 ISZERO ISZERO MUL OR SWAP1 SSTORE POP PUSH1 0x0 DUP2 PUSH1 0x11 ADD PUSH1 0x2 PUSH2 0x100 EXP DUP2 SLOAD DUP2 PUSH1 0xFF MUL NOT AND SWAP1 DUP4 PUSH1 0x5 DUP2 GT ISZERO PUSH2 0x39DD JUMPI PUSH2 0x39DC PUSH2 0x6431 JUMP JUMPDEST JUMPDEST MUL OR SWAP1 SSTORE POP PUSH1 0x0 JUMPDEST DUP4 PUSH2 0x180 ADD MLOAD MLOAD DUP2 LT ISZERO PUSH2 0x3B2D JUMPI DUP2 PUSH1 0xC ADD DUP5 PUSH2 0x180 ADD MLOAD DUP3 DUP2 MLOAD DUP2 LT PUSH2 0x3A0F JUMPI PUSH2 0x3A0E PUSH2 0x648F JUMP JUMPDEST JUMPDEST PUSH1 0x20 MUL PUSH1 0x20 ADD ADD MLOAD SWAP1 DUP1 PUSH1 0x1 DUP2 SLOAD ADD DUP1 DUP3 SSTORE DUP1 SWAP2 POP POP PUSH1 0x1 SWAP1 SUB SWAP1 PUSH1 0x0 MSTORE PUSH1 0x20 PUSH1 0x0 KECCAK256 SWAP1 PUSH1 0xB MUL ADD PUSH1 0x0 SWAP1 SWAP2 SWAP1 SWAP2 SWAP1 SWAP2 POP PUSH1 0x0 DUP3 ADD MLOAD DUP2 PUSH1 0x0 ADD PUSH1 0x0 DUP3 ADD MLOAD DUP2 PUSH1 0x0 ADD SWAP1 DUP1 MLOAD SWAP1 PUSH1 0x20 ADD SWAP1 PUSH2 0x3A65 SWAP3 SWAP2 SWAP1 PUSH2 0x436B JUMP JUMPDEST POP PUSH1 0x20 DUP3 ADD MLOAD DUP2 PUSH1 0x1 ADD SSTORE PUSH1 0x40 DUP3 ADD MLOAD DUP2 PUSH1 0x2 ADD SSTORE PUSH1 0x60 DUP3 ADD MLOAD DUP2 PUSH1 0x3 ADD SSTORE PUSH1 0x80 DUP3 ADD MLOAD DUP2 PUSH1 0x4 ADD SSTORE PUSH1 0xA0 DUP3 ADD MLOAD DUP2 PUSH1 0x5 ADD SSTORE PUSH1 0xC0 DUP3 ADD MLOAD DUP2 PUSH1 0x6 ADD SWAP1 DUP1 MLOAD SWAP1 PUSH1 0x20 ADD SWAP1 PUSH2 0x3AB4 SWAP3 SWAP2 SWAP1 PUSH2 0x436B JUMP JUMPDEST POP POP POP PUSH1 0x20 DUP3 ADD MLOAD DUP2 PUSH1 0x7 ADD SSTORE PUSH1 0x40 DUP3 ADD MLOAD DUP2 PUSH1 0x8 ADD SWAP1 DUP1 MLOAD SWAP1 PUSH1 0x20 ADD SWAP1 PUSH2 0x3ADD SWAP3 SWAP2 SWAP1 PUSH2 0x436B JUMP JUMPDEST POP PUSH1 0x60 DUP3 ADD MLOAD DUP2 PUSH1 0x9 ADD PUSH1 0x0 PUSH2 0x100 EXP DUP2 SLOAD DUP2 PUSH1 0xFF MUL NOT AND SWAP1 DUP4 PUSH1 0x5 DUP2 GT ISZERO PUSH2 0x3B09 JUMPI PUSH2 0x3B08 PUSH2 0x6431 JUMP JUMPDEST JUMPDEST MUL OR SWAP1 SSTORE POP PUSH1 0x80 DUP3 ADD MLOAD DUP2 PUSH1 0xA ADD SSTORE POP POP DUP1 DUP1 PUSH2 0x3B25 SWAP1 PUSH2 0x638A JUMP JUMPDEST SWAP2 POP POP PUSH2 0x39E5 JUMP JUMPDEST POP PUSH32 0xFD989D3BAABD6A3C76AE101E9A8037EAD1322140A770842A81514F7515E9D81E CALLER PUSH1 0x1 SLOAD DUP6 PUSH1 0x40 MLOAD PUSH2 0x3B63 SWAP4 SWAP3 SWAP2 SWAP1 PUSH2 0x5A7A JUMP JUMPDEST PUSH1 0x40 MLOAD DUP1 SWAP2 SUB SWAP1 LOG1 PUSH1 0x1 SLOAD SWAP2 POP POP SWAP2 SWAP1 POP JUMP JUMPDEST PUSH1 0x0 DUP1 PUSH1 0x0 DUP1 DUP5 DUP2 MSTORE PUSH1 0x20 ADD SWAP1 DUP2 MSTORE PUSH1 0x20 ADD PUSH1 0x0 KECCAK256 PUSH1 0xE ADD DUP1 SLOAD DUP1 PUSH1 0x20 MUL PUSH1 0x20 ADD PUSH1 0x40 MLOAD SWAP1 DUP2 ADD PUSH1 0x40 MSTORE DUP1 SWAP3 SWAP2 SWAP1 DUP2 DUP2 MSTORE PUSH1 0x20 ADD PUSH1 0x0 SWAP1 JUMPDEST DUP3 DUP3 LT ISZERO PUSH2 0x3DFE JUMPI DUP4 DUP3 SWAP1 PUSH1 0x0 MSTORE PUSH1 0x20 PUSH1 0x0 KECCAK256 SWAP1 PUSH1 0x5 MUL ADD PUSH1 0x40 MLOAD DUP1 PUSH1 0xA0 ADD PUSH1 0x40 MSTORE SWAP1 DUP2 PUSH1 0x0 DUP3 ADD PUSH1 0x0 SWAP1 SLOAD SWAP1 PUSH2 0x100 EXP SWAP1 DIV PUSH20 0xFFFFFFFFFFFFFFFFFFFFFFFFFFFFFFFFFFFFFFFF AND PUSH20 0xFFFFFFFFFFFFFFFFFFFFFFFFFFFFFFFFFFFFFFFF AND PUSH20 0xFFFFFFFFFFFFFFFFFFFFFFFFFFFFFFFFFFFFFFFF AND DUP2 MSTORE PUSH1 0x20 ADD PUSH1 0x1 DUP3 ADD DUP1 SLOAD DUP1 PUSH1 0x20 MUL PUSH1 0x20 ADD PUSH1 0x40 MLOAD SWAP1 DUP2 ADD PUSH1 0x40 MSTORE DUP1 SWAP3 SWAP2 SWAP1 DUP2 DUP2 MSTORE PUSH1 0x20 ADD DUP3 DUP1 SLOAD DUP1 ISZERO PUSH2 0x3C76 JUMPI PUSH1 0x20 MUL DUP3 ADD SWAP2 SWAP1 PUSH1 0x0 MSTORE PUSH1 0x20 PUSH1 0x0 KECCAK256 SWAP1 JUMPDEST DUP2 SLOAD DUP2 MSTORE PUSH1 0x20 ADD SWAP1 PUSH1 0x1 ADD SWAP1 DUP1 DUP4 GT PUSH2 0x3C62 JUMPI JUMPDEST POP POP POP POP POP DUP2 MSTORE PUSH1 0x20 ADD PUSH1 0x2 DUP3 ADD DUP1 SLOAD DUP1 PUSH1 0x20 MUL PUSH1 0x20 ADD PUSH1 0x40 MLOAD SWAP1 DUP2 ADD PUSH1 0x40 MSTORE DUP1 SWAP3 SWAP2 SWAP1 DUP2 DUP2 MSTORE PUSH1 0x20 ADD DUP3 DUP1 SLOAD DUP1 ISZERO PUSH2 0x3D03 JUMPI PUSH1 0x20 MUL DUP3 ADD SWAP2 SWAP1 PUSH1 0x0 MSTORE PUSH1 0x20 PUSH1 0x0 KECCAK256 SWAP1 PUSH1 0x0 SWAP1 JUMPDEST DUP3 DUP3 SWAP1 SLOAD SWAP1 PUSH2 0x100 EXP SWAP1 DIV PUSH1 0xFF AND PUSH1 0x5 DUP2 GT ISZERO PUSH2 0x3CDD JUMPI PUSH2 0x3CDC PUSH2 0x6431 JUMP JUMPDEST JUMPDEST DUP2 MSTORE PUSH1 0x20 ADD SWAP1 PUSH1 0x1 ADD SWAP1 PUSH1 0x20 DUP3 PUSH1 0x0 ADD DIV SWAP3 DUP4 ADD SWAP3 PUSH1 0x1 SUB DUP3 MUL SWAP2 POP DUP1 DUP5 GT PUSH2 0x3CBD JUMPI SWAP1 POP JUMPDEST POP POP POP POP POP DUP2 MSTORE PUSH1 0x20 ADD PUSH1 0x3 DUP3 ADD DUP1 SLOAD DUP1 PUSH1 0x20 MUL PUSH1 0x20 ADD PUSH1 0x40 MLOAD SWAP1 DUP2 ADD PUSH1 0x40 MSTORE DUP1 SWAP3 SWAP2 SWAP1 DUP2 DUP2 MSTORE PUSH1 0x20 ADD PUSH1 0x0 SWAP1 JUMPDEST DUP3 DUP3 LT ISZERO PUSH2 0x3DDD JUMPI DUP4 DUP3 SWAP1 PUSH1 0x0 MSTORE PUSH1 0x20 PUSH1 0x0 KECCAK256 ADD DUP1 SLOAD PUSH2 0x3D50 SWAP1 PUSH2 0x6327 JUMP JUMPDEST DUP1 PUSH1 0x1F ADD PUSH1 0x20 DUP1 SWAP2 DIV MUL PUSH1 0x20 ADD PUSH1 0x40 MLOAD SWAP1 DUP2 ADD PUSH1 0x40 MSTORE DUP1 SWAP3 SWAP2 SWAP1 DUP2 DUP2 MSTORE PUSH1 0x20 ADD DUP3 DUP1 SLOAD PUSH2 0x3D7C SWAP1 PUSH2 0x6327 JUMP JUMPDEST DUP1 ISZERO PUSH2 0x3DC9 JUMPI DUP1 PUSH1 0x1F LT PUSH2 0x3D9E JUMPI PUSH2 0x100 DUP1 DUP4 SLOAD DIV MUL DUP4 MSTORE SWAP2 PUSH1 0x20 ADD SWAP2 PUSH2 0x3DC9 JUMP JUMPDEST DUP3 ADD SWAP2 SWAP1 PUSH1 0x0 MSTORE PUSH1 0x20 PUSH1 0x0 KECCAK256 SWAP1 JUMPDEST DUP2 SLOAD DUP2 MSTORE SWAP1 PUSH1 0x1 ADD SWAP1 PUSH1 0x20 ADD DUP1 DUP4 GT PUSH2 0x3DAC JUMPI DUP3 SWAP1 SUB PUSH1 0x1F AND DUP3 ADD SWAP2 JUMPDEST POP POP POP POP POP DUP2 MSTORE PUSH1 0x20 ADD SWAP1 PUSH1 0x1 ADD SWAP1 PUSH2 0x3D31 JUMP JUMPDEST POP POP POP POP DUP2 MSTORE PUSH1 0x20 ADD PUSH1 0x4 DUP3 ADD SLOAD DUP2 MSTORE POP POP DUP2 MSTORE PUSH1 0x20 ADD SWAP1 PUSH1 0x1 ADD SWAP1 PUSH2 0x3BAE JUMP JUMPDEST POP POP POP POP SWAP1 POP PUSH1 0x0 DUP1 PUSH1 0x0 SWAP1 POP JUMPDEST DUP3 MLOAD DUP2 LT ISZERO PUSH2 0x3E55 JUMPI DUP3 DUP2 DUP2 MLOAD DUP2 LT PUSH2 0x3E28 JUMPI PUSH2 0x3E27 PUSH2 0x648F JUMP JUMPDEST JUMPDEST PUSH1 0x20 MUL PUSH1 0x20 ADD ADD MLOAD PUSH1 0x20 ADD MLOAD MLOAD DUP3 PUSH2 0x3E40 SWAP2 SWAP1 PUSH2 0x6119 JUMP JUMPDEST SWAP2 POP DUP1 DUP1 PUSH2 0x3E4D SWAP1 PUSH2 0x638A JUMP JUMPDEST SWAP2 POP POP PUSH2 0x3E0C JUMP JUMPDEST POP DUP1 SWAP3 POP POP POP SWAP2 SWAP1 POP JUMP JUMPDEST DUP4 PUSH1 0x0 ISZERO ISZERO PUSH1 0x0 DUP1 DUP4 DUP2 MSTORE PUSH1 0x20 ADD SWAP1 DUP2 MSTORE PUSH1 0x20 ADD PUSH1 0x0 KECCAK256 PUSH1 0x11 ADD PUSH1 0x0 SWAP1 SLOAD SWAP1 PUSH2 0x100 EXP SWAP1 DIV PUSH1 0xFF AND ISZERO ISZERO EQ DUP1 PUSH2 0x3EA4 JUMPI POP PUSH1 0x1 ISZERO ISZERO PUSH2 0x3EA0 DUP3 PUSH1 0x1 PUSH2 0x1638 JUMP JUMPDEST ISZERO ISZERO EQ JUMPDEST ISZERO PUSH2 0x3EE6 JUMPI DUP1 PUSH1 0x40 MLOAD PUSH32 0xA0F2FA6E00000000000000000000000000000000000000000000000000000000 DUP2 MSTORE PUSH1 0x4 ADD PUSH2 0x3EDD SWAP2 SWAP1 PUSH2 0x5B23 JUMP JUMPDEST PUSH1 0x40 MLOAD DUP1 SWAP2 SUB SWAP1 REVERT JUMPDEST PUSH1 0x0 DUP1 PUSH1 0x0 DUP8 DUP2 MSTORE PUSH1 0x20 ADD SWAP1 DUP2 MSTORE PUSH1 0x20 ADD PUSH1 0x0 KECCAK256 PUSH1 0xD ADD DUP5 DUP2 SLOAD DUP2 LT PUSH2 0x3F0F JUMPI PUSH2 0x3F0E PUSH2 0x648F JUMP JUMPDEST JUMPDEST SWAP1 PUSH1 0x0 MSTORE PUSH1 0x20 PUSH1 0x0 KECCAK256 SWAP1 PUSH1 0x5 MUL ADD SWAP1 POP DUP1 PUSH1 0x1 ADD DUP6 SWAP1 DUP1 PUSH1 0x1 DUP2 SLOAD ADD DUP1 DUP3 SSTORE DUP1 SWAP2 POP POP PUSH1 0x1 SWAP1 SUB SWAP1 PUSH1 0x0 MSTORE PUSH1 0x20 PUSH1 0x0 KECCAK256 ADD PUSH1 0x0 SWAP1 SWAP2 SWAP1 SWAP2 SWAP1 SWAP2 POP SSTORE PUSH1 0x0 PUSH2 0x3F55 DUP8 PUSH2 0x4C8 JUMP JUMPDEST PUSH2 0x1A0 ADD MLOAD DUP7 DUP2 MLOAD DUP2 LT PUSH2 0x3F6C JUMPI PUSH2 0x3F6B PUSH2 0x648F JUMP JUMPDEST JUMPDEST PUSH1 0x20 MUL PUSH1 0x20 ADD ADD MLOAD PUSH1 0x20 ADD MLOAD SWAP1 POP PUSH2 0x3F83 DUP2 PUSH2 0x4080 JUMP JUMPDEST DUP3 PUSH1 0x4 ADD PUSH1 0x0 DUP3 DUP3 SLOAD PUSH2 0x3F96 SWAP2 SWAP1 PUSH2 0x6119 JUMP JUMPDEST SWAP3 POP POP DUP2 SWAP1 SSTORE POP PUSH32 0x42464F2A0157D4CE4C9F85BF5CB19BFD2F20F71A6BF72E9F0B026828B82D0421 DUP8 DUP8 DUP8 DUP8 PUSH1 0x40 MLOAD PUSH2 0x3FD2 SWAP5 SWAP4 SWAP3 SWAP2 SWAP1 PUSH2 0x5E8C JUMP JUMPDEST PUSH1 0x40 MLOAD DUP1 SWAP2 SUB SWAP1 LOG1 POP POP POP POP POP POP POP JUMP JUMPDEST DUP1 PUSH1 0x0 DUP1 DUP5 DUP2 MSTORE PUSH1 0x20 ADD SWAP1 DUP2 MSTORE PUSH1 0x20 ADD PUSH1 0x0 KECCAK256 PUSH1 0x11 ADD PUSH1 0x2 PUSH2 0x100 EXP DUP2 SLOAD DUP2 PUSH1 0xFF MUL NOT AND SWAP1 DUP4 PUSH1 0x5 DUP2 GT ISZERO PUSH2 0x401B JUMPI PUSH2 0x401A PUSH2 0x6431 JUMP JUMPDEST JUMPDEST MUL OR SWAP1 SSTORE POP PUSH32 0xF05815FDE2BEB683B051C459B8261ED061C1164C5E53F2BE389201D754BB311E DUP3 DUP3 PUSH1 0x40 MLOAD PUSH2 0x4051 SWAP3 SWAP2 SWAP1 PUSH2 0x5CCD JUMP JUMPDEST PUSH1 0x40 MLOAD DUP1 SWAP2 SUB SWAP1 LOG1 POP POP JUMP JUMPDEST PUSH1 0x0 DUP1 PUSH2 0x406B DUP4 PUSH1 0x5A PUSH2 0x40BD JUMP JUMPDEST SWAP1 POP PUSH2 0x4078 DUP2 PUSH1 0x28 PUSH2 0x40BD JUMP JUMPDEST SWAP2 POP POP SWAP2 SWAP1 POP JUMP JUMPDEST PUSH1 0x0 DUP1 PUSH2 0x408E DUP4 PUSH1 0x5A PUSH2 0x40BD JUMP JUMPDEST SWAP1 POP PUSH2 0x409B DUP2 PUSH1 0x3C PUSH2 0x40BD JUMP JUMPDEST SWAP2 POP POP SWAP2 SWAP1 POP JUMP JUMPDEST PUSH1 0x1 PUSH1 0x0 DUP2 SLOAD DUP1 SWAP3 SWAP2 SWAP1 PUSH2 0x40B6 SWAP1 PUSH2 0x638A JUMP JUMPDEST SWAP2 SWAP1 POP SSTORE POP JUMP JUMPDEST PUSH1 0x0 PUSH1 0x64 PUSH2 0x40CB DUP5 DUP5 PUSH2 0x40DD JUMP JUMPDEST PUSH2 0x40D5 SWAP2 SWAP1 PUSH2 0x616F JUMP JUMPDEST SWAP1 POP SWAP3 SWAP2 POP POP JUMP JUMPDEST PUSH1 0x0 DUP2 DUP4 PUSH2 0x40EB SWAP2 SWAP1 PUSH2 0x61A0 JUMP JUMPDEST SWAP1 POP SWAP3 SWAP2 POP POP JUMP JUMPDEST PUSH1 0x40 MLOAD DUP1 PUSH2 0x2A0 ADD PUSH1 0x40 MSTORE DUP1 PUSH1 0x0 PUSH20 0xFFFFFFFFFFFFFFFFFFFFFFFFFFFFFFFFFFFFFFFF AND DUP2 MSTORE PUSH1 0x20 ADD PUSH1 0x0 DUP2 MSTORE PUSH1 0x20 ADD PUSH1 0x60 DUP2 MSTORE PUSH1 0x20 ADD PUSH1 0x60 DUP2 MSTORE PUSH1 0x20 ADD PUSH1 0x0 DUP2 MSTORE PUSH1 0x20 ADD PUSH1 0x60 DUP2 MSTORE PUSH1 0x20 ADD PUSH1 0x60 DUP2 MSTORE PUSH1 0x20 ADD PUSH1 0x60 DUP2 MSTORE PUSH1 0x20 ADD PUSH1 0x0 DUP2 MSTORE PUSH1 0x20 ADD PUSH1 0x0 DUP2 MSTORE PUSH1 0x20 ADD PUSH1 0x0 ISZERO ISZERO DUP2 MSTORE PUSH1 0x20 ADD PUSH1 0x0 ISZERO ISZERO DUP2 MSTORE PUSH1 0x20 ADD PUSH1 0x0 DUP2 MSTORE PUSH1 0x20 ADD PUSH1 0x60 DUP2 MSTORE PUSH1 0x20 ADD PUSH1 0x60 DUP2 MSTORE PUSH1 0x20 ADD PUSH1 0x60 DUP2 MSTORE PUSH1 0x20 ADD PUSH1 0x0 DUP2 MSTORE PUSH1 0x20 ADD PUSH1 0x0 DUP2 MSTORE PUSH1 0x20 ADD PUSH1 0x0 ISZERO ISZERO DUP2 MSTORE PUSH1 0x20 ADD PUSH1 0x0 ISZERO ISZERO DUP2 MSTORE PUSH1 0x20 ADD PUSH1 0x0 PUSH1 0x5 DUP2 GT ISZERO PUSH2 0x41BD JUMPI PUSH2 0x41BC PUSH2 0x6431 JUMP JUMPDEST JUMPDEST DUP2 MSTORE POP SWAP1 JUMP JUMPDEST PUSH1 0x40 MLOAD DUP1 PUSH1 0xA0 ADD PUSH1 0x40 MSTORE DUP1 PUSH1 0x0 PUSH20 0xFFFFFFFFFFFFFFFFFFFFFFFFFFFFFFFFFFFFFFFF AND DUP2 MSTORE PUSH1 0x20 ADD PUSH1 0x60 DUP2 MSTORE PUSH1 0x20 ADD PUSH1 0x60 DUP2 MSTORE PUSH1 0x20 ADD PUSH1 0x60 DUP2 MSTORE PUSH1 0x20 ADD PUSH1 0x0 DUP2 MSTORE POP SWAP1 JUMP JUMPDEST DUP3 DUP1 SLOAD DUP3 DUP3 SSTORE SWAP1 PUSH1 0x0 MSTORE PUSH1 0x20 PUSH1 0x0 KECCAK256 SWAP1 DUP2 ADD SWAP3 DUP3 ISZERO PUSH2 0x4244 JUMPI SWAP2 PUSH1 0x20 MUL DUP3 ADD JUMPDEST DUP3 DUP2 GT ISZERO PUSH2 0x4243 JUMPI DUP3 MLOAD DUP3 SSTORE SWAP2 PUSH1 0x20 ADD SWAP2 SWAP1 PUSH1 0x1 ADD SWAP1 PUSH2 0x4228 JUMP JUMPDEST JUMPDEST POP SWAP1 POP PUSH2 0x4251 SWAP2 SWAP1 PUSH2 0x43F1 JUMP JUMPDEST POP SWAP1 JUMP JUMPDEST DUP3 DUP1 SLOAD DUP3 DUP3 SSTORE SWAP1 PUSH1 0x0 MSTORE PUSH1 0x20 PUSH1 0x0 KECCAK256 SWAP1 PUSH1 0x1F ADD PUSH1 0x20 SWAP1 DIV DUP2 ADD SWAP3 DUP3 ISZERO PUSH2 0x42FA JUMPI SWAP2 PUSH1 0x20 MUL DUP3 ADD PUSH1 0x0 JUMPDEST DUP4 DUP3 GT ISZERO PUSH2 0x42CB JUMPI DUP4 MLOAD DUP4 DUP3 PUSH2 0x100 EXP DUP2 SLOAD DUP2 PUSH1 0xFF MUL NOT AND SWAP1 DUP4 PUSH1 0x5 DUP2 GT ISZERO PUSH2 0x42AA JUMPI PUSH2 0x42A9 PUSH2 0x6431 JUMP JUMPDEST JUMPDEST MUL OR SWAP1 SSTORE POP SWAP3 PUSH1 0x20 ADD SWAP3 PUSH1 0x1 ADD PUSH1 0x20 DUP2 PUSH1 0x0 ADD DIV SWAP3 DUP4 ADD SWAP3 PUSH1 0x1 SUB MUL PUSH2 0x427E JUMP JUMPDEST DUP1 ISZERO PUSH2 0x42F8 JUMPI DUP3 DUP2 PUSH2 0x100 EXP DUP2 SLOAD SWAP1 PUSH1 0xFF MUL NOT AND SWAP1 SSTORE PUSH1 0x1 ADD PUSH1 0x20 DUP2 PUSH1 0x0 ADD DIV SWAP3 DUP4 ADD SWAP3 PUSH1 0x1 SUB MUL PUSH2 0x42CB JUMP JUMPDEST POP JUMPDEST POP SWAP1 POP PUSH2 0x4307 SWAP2 SWAP1 PUSH2 0x43F1 JUMP JUMPDEST POP SWAP1 JUMP JUMPDEST DUP3 DUP1 SLOAD DUP3 DUP3 SSTORE SWAP1 PUSH1 0x0 MSTORE PUSH1 0x20 PUSH1 0x0 KECCAK256 SWAP1 DUP2 ADD SWAP3 DUP3 ISZERO PUSH2 0x435A JUMPI SWAP2 PUSH1 0x20 MUL DUP3 ADD JUMPDEST DUP3 DUP2 GT ISZERO PUSH2 0x4359 JUMPI DUP3 MLOAD DUP3 SWAP1 DUP1 MLOAD SWAP1 PUSH1 0x20 ADD SWAP1 PUSH2 0x4349 SWAP3 SWAP2 SWAP1 PUSH2 0x436B JUMP JUMPDEST POP SWAP2 PUSH1 0x20 ADD SWAP2 SWAP1 PUSH1 0x1 ADD SWAP1 PUSH2 0x432B JUMP JUMPDEST JUMPDEST POP SWAP1 POP PUSH2 0x4367 SWAP2 SWAP1 PUSH2 0x440E JUMP JUMPDEST POP SWAP1 JUMP JUMPDEST DUP3 DUP1 SLOAD PUSH2 0x4377 SWAP1 PUSH2 0x6327 JUMP JUMPDEST SWAP1 PUSH1 0x0 MSTORE PUSH1 0x20 PUSH1 0x0 KECCAK256 SWAP1 PUSH1 0x1F ADD PUSH1 0x20 SWAP1 DIV DUP2 ADD SWAP3 DUP3 PUSH2 0x4399 JUMPI PUSH1 0x0 DUP6 SSTORE PUSH2 0x43E0 JUMP JUMPDEST DUP3 PUSH1 0x1F LT PUSH2 0x43B2 JUMPI DUP1 MLOAD PUSH1 0xFF NOT AND DUP4 DUP1 ADD OR DUP6 SSTORE PUSH2 0x43E0 JUMP JUMPDEST DUP3 DUP1 ADD PUSH1 0x1 ADD DUP6 SSTORE DUP3 ISZERO PUSH2 0x43E0 JUMPI SWAP2 DUP3 ADD JUMPDEST DUP3 DUP2 GT ISZERO PUSH2 0x43DF JUMPI DUP3 MLOAD DUP3 SSTORE SWAP2 PUSH1 0x20 ADD SWAP2 SWAP1 PUSH1 0x1 ADD SWAP1 PUSH2 0x43C4 JUMP JUMPDEST JUMPDEST POP SWAP1 POP PUSH2 0x43ED SWAP2 SWAP1 PUSH2 0x43F1 JUMP JUMPDEST POP SWAP1 JUMP JUMPDEST JUMPDEST DUP1 DUP3 GT ISZERO PUSH2 0x440A JUMPI PUSH1 0x0 DUP2 PUSH1 0x0 SWAP1 SSTORE POP PUSH1 0x1 ADD PUSH2 0x43F2 JUMP JUMPDEST POP SWAP1 JUMP JUMPDEST JUMPDEST DUP1 DUP3 GT ISZERO PUSH2 0x442E JUMPI PUSH1 0x0 DUP2 DUP2 PUSH2 0x4425 SWAP2 SWAP1 PUSH2 0x4432 JUMP JUMPDEST POP PUSH1 0x1 ADD PUSH2 0x440F JUMP JUMPDEST POP SWAP1 JUMP JUMPDEST POP DUP1 SLOAD PUSH2 0x443E SWAP1 PUSH2 0x6327 JUMP JUMPDEST PUSH1 0x0 DUP3 SSTORE DUP1 PUSH1 0x1F LT PUSH2 0x4450 JUMPI POP PUSH2 0x446F JUMP JUMPDEST PUSH1 0x1F ADD PUSH1 0x20 SWAP1 DIV SWAP1 PUSH1 0x0 MSTORE PUSH1 0x20 PUSH1 0x0 KECCAK256 SWAP1 DUP2 ADD SWAP1 PUSH2 0x446E SWAP2 SWAP1 PUSH2 0x43F1 JUMP JUMPDEST JUMPDEST POP JUMP JUMPDEST PUSH1 0x0 PUSH2 0x4485 PUSH2 0x4480 DUP5 PUSH2 0x5F09 JUMP JUMPDEST PUSH2 0x5EE4 JUMP JUMPDEST SWAP1 POP DUP1 DUP4 DUP3 MSTORE PUSH1 0x20 DUP3 ADD SWAP1 POP DUP3 DUP6 PUSH1 0x20 DUP7 MUL DUP3 ADD GT ISZERO PUSH2 0x44A8 JUMPI PUSH2 0x44A7 PUSH2 0x64FC JUMP JUMPDEST JUMPDEST PUSH1 0x0 JUMPDEST DUP6 DUP2 LT ISZERO PUSH2 0x44F6 JUMPI DUP2 CALLDATALOAD PUSH8 0xFFFFFFFFFFFFFFFF DUP2 GT ISZERO PUSH2 0x44CE JUMPI PUSH2 0x44CD PUSH2 0x64ED JUMP JUMPDEST JUMPDEST DUP1 DUP7 ADD PUSH2 0x44DB DUP10 DUP3 PUSH2 0x4733 JUMP JUMPDEST DUP6 MSTORE PUSH1 0x20 DUP6 ADD SWAP5 POP PUSH1 0x20 DUP5 ADD SWAP4 POP POP POP PUSH1 0x1 DUP2 ADD SWAP1 POP PUSH2 0x44AB JUMP JUMPDEST POP POP POP SWAP4 SWAP3 POP POP POP JUMP JUMPDEST PUSH1 0x0 PUSH2 0x4513 PUSH2 0x450E DUP5 PUSH2 0x5F35 JUMP JUMPDEST PUSH2 0x5EE4 JUMP JUMPDEST SWAP1 POP DUP1 DUP4 DUP3 MSTORE PUSH1 0x20 DUP3 ADD SWAP1 POP DUP3 DUP6 PUSH1 0x20 DUP7 MUL DUP3 ADD GT ISZERO PUSH2 0x4536 JUMPI PUSH2 0x4535 PUSH2 0x64FC JUMP JUMPDEST JUMPDEST PUSH1 0x0 JUMPDEST DUP6 DUP2 LT ISZERO PUSH2 0x4584 JUMPI DUP2 CALLDATALOAD PUSH8 0xFFFFFFFFFFFFFFFF DUP2 GT ISZERO PUSH2 0x455C JUMPI PUSH2 0x455B PUSH2 0x64ED JUMP JUMPDEST JUMPDEST DUP1 DUP7 ADD PUSH2 0x4569 DUP10 DUP3 PUSH2 0x4A59 JUMP JUMPDEST DUP6 MSTORE PUSH1 0x20 DUP6 ADD SWAP5 POP PUSH1 0x20 DUP5 ADD SWAP4 POP POP POP PUSH1 0x1 DUP2 ADD SWAP1 POP PUSH2 0x4539 JUMP JUMPDEST POP POP POP SWAP4 SWAP3 POP POP POP JUMP JUMPDEST PUSH1 0x0 PUSH2 0x45A1 PUSH2 0x459C DUP5 PUSH2 0x5F61 JUMP JUMPDEST PUSH2 0x5EE4 JUMP JUMPDEST SWAP1 POP DUP1 DUP4 DUP3 MSTORE PUSH1 0x20 DUP3 ADD SWAP1 POP DUP3 DUP6 PUSH1 0x20 DUP7 MUL DUP3 ADD GT ISZERO PUSH2 0x45C4 JUMPI PUSH2 0x45C3 PUSH2 0x64FC JUMP JUMPDEST JUMPDEST PUSH1 0x0 JUMPDEST DUP6 DUP2 LT ISZERO PUSH2 0x45F4 JUMPI DUP2 PUSH2 0x45DA DUP9 DUP3 PUSH2 0x4B1D JUMP JUMPDEST DUP5 MSTORE PUSH1 0x20 DUP5 ADD SWAP4 POP PUSH1 0x20 DUP4 ADD SWAP3 POP POP PUSH1 0x1 DUP2 ADD SWAP1 POP PUSH2 0x45C7 JUMP JUMPDEST POP POP POP SWAP4 SWAP3 POP POP POP JUMP JUMPDEST PUSH1 0x0 PUSH2 0x4611 PUSH2 0x460C DUP5 PUSH2 0x5F8D JUMP JUMPDEST PUSH2 0x5EE4 JUMP JUMPDEST SWAP1 POP DUP3 DUP2 MSTORE PUSH1 0x20 DUP2 ADD DUP5 DUP5 DUP5 ADD GT ISZERO PUSH2 0x462D JUMPI PUSH2 0x462C PUSH2 0x6501 JUMP JUMPDEST JUMPDEST PUSH2 0x4638 DUP5 DUP3 DUP6 PUSH2 0x62E5 JUMP JUMPDEST POP SWAP4 SWAP3 POP POP POP JUMP JUMPDEST PUSH1 0x0 DUP2 CALLDATALOAD SWAP1 POP PUSH2 0x464F DUP2 PUSH2 0x66A2 JUMP JUMPDEST SWAP3 SWAP2 POP POP JUMP JUMPDEST PUSH1 0x0 DUP3 PUSH1 0x1F DUP4 ADD SLT PUSH2 0x466A JUMPI PUSH2 0x4669 PUSH2 0x64ED JUMP JUMPDEST JUMPDEST DUP2 CALLDATALOAD PUSH2 0x467A DUP5 DUP3 PUSH1 0x20 DUP7 ADD PUSH2 0x4472 JUMP JUMPDEST SWAP2 POP POP SWAP3 SWAP2 POP POP JUMP JUMPDEST PUSH1 0x0 DUP3 PUSH1 0x1F DUP4 ADD SLT PUSH2 0x4698 JUMPI PUSH2 0x4697 PUSH2 0x64ED JUMP JUMPDEST JUMPDEST DUP2 CALLDATALOAD PUSH2 0x46A8 DUP5 DUP3 PUSH1 0x20 DUP7 ADD PUSH2 0x4500 JUMP JUMPDEST SWAP2 POP POP SWAP3 SWAP2 POP POP JUMP JUMPDEST PUSH1 0x0 DUP3 PUSH1 0x1F DUP4 ADD SLT PUSH2 0x46C6 JUMPI PUSH2 0x46C5 PUSH2 0x64ED JUMP JUMPDEST JUMPDEST DUP2 CALLDATALOAD PUSH2 0x46D6 DUP5 DUP3 PUSH1 0x20 DUP7 ADD PUSH2 0x458E JUMP JUMPDEST SWAP2 POP POP SWAP3 SWAP2 POP POP JUMP JUMPDEST PUSH1 0x0 DUP2 CALLDATALOAD SWAP1 POP PUSH2 0x46EE DUP2 PUSH2 0x66B9 JUMP JUMPDEST SWAP3 SWAP2 POP POP JUMP JUMPDEST PUSH1 0x0 DUP2 CALLDATALOAD SWAP1 POP PUSH2 0x4703 DUP2 PUSH2 0x66D0 JUMP JUMPDEST SWAP3 SWAP2 POP POP JUMP JUMPDEST PUSH1 0x0 DUP2 CALLDATALOAD SWAP1 POP PUSH2 0x4718 DUP2 PUSH2 0x66E0 JUMP JUMPDEST SWAP3 SWAP2 POP POP JUMP JUMPDEST PUSH1 0x0 DUP2 CALLDATALOAD SWAP1 POP PUSH2 0x472D DUP2 PUSH2 0x66F0 JUMP JUMPDEST SWAP3 SWAP2 POP POP JUMP JUMPDEST PUSH1 0x0 DUP3 PUSH1 0x1F DUP4 ADD SLT PUSH2 0x4748 JUMPI PUSH2 0x4747 PUSH2 0x64ED JUMP JUMPDEST JUMPDEST DUP2 CALLDATALOAD PUSH2 0x4758 DUP5 DUP3 PUSH1 0x20 DUP7 ADD PUSH2 0x45FE JUMP JUMPDEST SWAP2 POP POP SWAP3 SWAP2 POP POP JUMP JUMPDEST PUSH1 0x0 PUSH1 0xE0 DUP3 DUP5 SUB SLT ISZERO PUSH2 0x4777 JUMPI PUSH2 0x4776 PUSH2 0x64F2 JUMP JUMPDEST JUMPDEST PUSH2 0x4781 PUSH1 0xE0 PUSH2 0x5EE4 JUMP JUMPDEST SWAP1 POP PUSH1 0x0 DUP3 ADD CALLDATALOAD PUSH8 0xFFFFFFFFFFFFFFFF DUP2 GT ISZERO PUSH2 0x47A1 JUMPI PUSH2 0x47A0 PUSH2 0x64F7 JUMP JUMPDEST JUMPDEST PUSH2 0x47AD DUP5 DUP3 DUP6 ADD PUSH2 0x4733 JUMP JUMPDEST PUSH1 0x0 DUP4 ADD MSTORE POP PUSH1 0x20 PUSH2 0x47C1 DUP5 DUP3 DUP6 ADD PUSH2 0x4B1D JUMP JUMPDEST PUSH1 0x20 DUP4 ADD MSTORE POP PUSH1 0x40 PUSH2 0x47D5 DUP5 DUP3 DUP6 ADD PUSH2 0x4B1D JUMP JUMPDEST PUSH1 0x40 DUP4 ADD MSTORE POP PUSH1 0x60 PUSH2 0x47E9 DUP5 DUP3 DUP6 ADD PUSH2 0x4B1D JUMP JUMPDEST PUSH1 0x60 DUP4 ADD MSTORE POP PUSH1 0x80 PUSH2 0x47FD DUP5 DUP3 DUP6 ADD PUSH2 0x4B1D JUMP JUMPDEST PUSH1 0x80 DUP4 ADD MSTORE POP PUSH1 0xA0 PUSH2 0x4811 DUP5 DUP3 DUP6 ADD PUSH2 0x4B1D JUMP JUMPDEST PUSH1 0xA0 DUP4 ADD MSTORE POP PUSH1 0xC0 DUP3 ADD CALLDATALOAD PUSH8 0xFFFFFFFFFFFFFFFF DUP2 GT ISZERO PUSH2 0x4835 JUMPI PUSH2 0x4834 PUSH2 0x64F7 JUMP JUMPDEST JUMPDEST PUSH2 0x4841 DUP5 DUP3 DUP6 ADD PUSH2 0x4733 JUMP JUMPDEST PUSH1 0xC0 DUP4 ADD MSTORE POP SWAP3 SWAP2 POP POP JUMP JUMPDEST PUSH1 0x0 PUSH2 0x1E0 DUP3 DUP5 SUB SLT ISZERO PUSH2 0x4864 JUMPI PUSH2 0x4863 PUSH2 0x64F2 JUMP JUMPDEST JUMPDEST PUSH2 0x486F PUSH2 0x1E0 PUSH2 0x5EE4 JUMP JUMPDEST SWAP1 POP PUSH1 0x0 PUSH2 0x487F DUP5 DUP3 DUP6 ADD PUSH2 0x4B1D JUMP JUMPDEST PUSH1 0x0 DUP4 ADD MSTORE POP PUSH1 0x20 DUP3 ADD CALLDATALOAD PUSH8 0xFFFFFFFFFFFFFFFF DUP2 GT ISZERO PUSH2 0x48A3 JUMPI PUSH2 0x48A2 PUSH2 0x64F7 JUMP JUMPDEST JUMPDEST PUSH2 0x48AF DUP5 DUP3 DUP6 ADD PUSH2 0x4733 JUMP JUMPDEST PUSH1 0x20 DUP4 ADD MSTORE POP PUSH1 0x40 DUP3 ADD CALLDATALOAD PUSH8 0xFFFFFFFFFFFFFFFF DUP2 GT ISZERO PUSH2 0x48D3 JUMPI PUSH2 0x48D2 PUSH2 0x64F7 JUMP JUMPDEST JUMPDEST PUSH2 0x48DF DUP5 DUP3 DUP6 ADD PUSH2 0x4733 JUMP JUMPDEST PUSH1 0x40 DUP4 ADD MSTORE POP PUSH1 0x60 PUSH2 0x48F3 DUP5 DUP3 DUP6 ADD PUSH2 0x4B1D JUMP JUMPDEST PUSH1 0x60 DUP4 ADD MSTORE POP PUSH1 0x80 DUP3 ADD CALLDATALOAD PUSH8 0xFFFFFFFFFFFFFFFF DUP2 GT ISZERO PUSH2 0x4917 JUMPI PUSH2 0x4916 PUSH2 0x64F7 JUMP JUMPDEST JUMPDEST PUSH2 0x4923 DUP5 DUP3 DUP6 ADD PUSH2 0x4733 JUMP JUMPDEST PUSH1 0x80 DUP4 ADD MSTORE POP PUSH1 0xA0 DUP3 ADD CALLDATALOAD PUSH8 0xFFFFFFFFFFFFFFFF DUP2 GT ISZERO PUSH2 0x4947 JUMPI PUSH2 0x4946 PUSH2 0x64F7 JUMP JUMPDEST JUMPDEST PUSH2 0x4953 DUP5 DUP3 DUP6 ADD PUSH2 0x4733 JUMP JUMPDEST PUSH1 0xA0 DUP4 ADD MSTORE POP PUSH1 0xC0 DUP3 ADD CALLDATALOAD PUSH8 0xFFFFFFFFFFFFFFFF DUP2 GT ISZERO PUSH2 0x4977 JUMPI PUSH2 0x4976 PUSH2 0x64F7 JUMP JUMPDEST JUMPDEST PUSH2 0x4983 DUP5 DUP3 DUP6 ADD PUSH2 0x4655 JUMP JUMPDEST PUSH1 0xC0 DUP4 ADD MSTORE POP PUSH1 0xE0 PUSH2 0x4997 DUP5 DUP3 DUP6 ADD PUSH2 0x4B1D JUMP JUMPDEST PUSH1 0xE0 DUP4 ADD MSTORE POP PUSH2 0x100 PUSH2 0x49AC DUP5 DUP3 DUP6 ADD PUSH2 0x4B1D JUMP JUMPDEST PUSH2 0x100 DUP4 ADD MSTORE POP PUSH2 0x120 PUSH2 0x49C2 DUP5 DUP3 DUP6 ADD PUSH2 0x46DF JUMP JUMPDEST PUSH2 0x120 DUP4 ADD MSTORE POP PUSH2 0x140 PUSH2 0x49D8 DUP5 DUP3 DUP6 ADD PUSH2 0x46DF JUMP JUMPDEST PUSH2 0x140 DUP4 ADD MSTORE POP PUSH2 0x160 PUSH2 0x49EE DUP5 DUP3 DUP6 ADD PUSH2 0x4B1D JUMP JUMPDEST PUSH2 0x160 DUP4 ADD MSTORE POP PUSH2 0x180 DUP3 ADD CALLDATALOAD PUSH8 0xFFFFFFFFFFFFFFFF DUP2 GT ISZERO PUSH2 0x4A14 JUMPI PUSH2 0x4A13 PUSH2 0x64F7 JUMP JUMPDEST JUMPDEST PUSH2 0x4A20 DUP5 DUP3 DUP6 ADD PUSH2 0x4683 JUMP JUMPDEST PUSH2 0x180 DUP4 ADD MSTORE POP PUSH2 0x1A0 PUSH2 0x4A36 DUP5 DUP3 DUP6 ADD PUSH2 0x4B1D JUMP JUMPDEST PUSH2 0x1A0 DUP4 ADD MSTORE POP PUSH2 0x1C0 PUSH2 0x4A4C DUP5 DUP3 DUP6 ADD PUSH2 0x4B1D JUMP JUMPDEST PUSH2 0x1C0 DUP4 ADD MSTORE POP SWAP3 SWAP2 POP POP JUMP JUMPDEST PUSH1 0x0 PUSH1 0xA0 DUP3 DUP5 SUB SLT ISZERO PUSH2 0x4A6F JUMPI PUSH2 0x4A6E PUSH2 0x64F2 JUMP JUMPDEST JUMPDEST PUSH2 0x4A79 PUSH1 0xA0 PUSH2 0x5EE4 JUMP JUMPDEST SWAP1 POP PUSH1 0x0 DUP3 ADD CALLDATALOAD PUSH8 0xFFFFFFFFFFFFFFFF DUP2 GT ISZERO PUSH2 0x4A99 JUMPI PUSH2 0x4A98 PUSH2 0x64F7 JUMP JUMPDEST JUMPDEST PUSH2 0x4AA5 DUP5 DUP3 DUP6 ADD PUSH2 0x4761 JUMP JUMPDEST PUSH1 0x0 DUP4 ADD MSTORE POP PUSH1 0x20 PUSH2 0x4AB9 DUP5 DUP3 DUP6 ADD PUSH2 0x4B1D JUMP JUMPDEST PUSH1 0x20 DUP4 ADD MSTORE POP PUSH1 0x40 DUP3 ADD CALLDATALOAD PUSH8 0xFFFFFFFFFFFFFFFF DUP2 GT ISZERO PUSH2 0x4ADD JUMPI PUSH2 0x4ADC PUSH2 0x64F7 JUMP JUMPDEST JUMPDEST PUSH2 0x4AE9 DUP5 DUP3 DUP6 ADD PUSH2 0x4733 JUMP JUMPDEST PUSH1 0x40 DUP4 ADD MSTORE POP PUSH1 0x60 PUSH2 0x4AFD DUP5 DUP3 DUP6 ADD PUSH2 0x46F4 JUMP JUMPDEST PUSH1 0x60 DUP4 ADD MSTORE POP PUSH1 0x80 PUSH2 0x4B11 DUP5 DUP3 DUP6 ADD PUSH2 0x4B1D JUMP JUMPDEST PUSH1 0x80 DUP4 ADD MSTORE POP SWAP3 SWAP2 POP POP JUMP JUMPDEST PUSH1 0x0 DUP2 CALLDATALOAD SWAP1 POP PUSH2 0x4B2C DUP2 PUSH2 0x6700 JUMP JUMPDEST SWAP3 SWAP2 POP POP JUMP JUMPDEST PUSH1 0x0 PUSH1 0x20 DUP3 DUP5 SUB SLT ISZERO PUSH2 0x4B48 JUMPI PUSH2 0x4B47 PUSH2 0x650B JUMP JUMPDEST JUMPDEST PUSH1 0x0 DUP3 ADD CALLDATALOAD PUSH8 0xFFFFFFFFFFFFFFFF DUP2 GT ISZERO PUSH2 0x4B66 JUMPI PUSH2 0x4B65 PUSH2 0x6506 JUMP JUMPDEST JUMPDEST PUSH2 0x4B72 DUP5 DUP3 DUP6 ADD PUSH2 0x484D JUMP JUMPDEST SWAP2 POP POP SWAP3 SWAP2 POP POP JUMP JUMPDEST PUSH1 0x0 PUSH1 0x20 DUP3 DUP5 SUB SLT ISZERO PUSH2 0x4B91 JUMPI PUSH2 0x4B90 PUSH2 0x650B JUMP JUMPDEST JUMPDEST PUSH1 0x0 PUSH2 0x4B9F DUP5 DUP3 DUP6 ADD PUSH2 0x4B1D JUMP JUMPDEST SWAP2 POP POP SWAP3 SWAP2 POP POP JUMP JUMPDEST PUSH1 0x0 DUP1 PUSH1 0x0 DUP1 PUSH1 0x80 DUP6 DUP8 SUB SLT ISZERO PUSH2 0x4BC2 JUMPI PUSH2 0x4BC1 PUSH2 0x650B JUMP JUMPDEST JUMPDEST PUSH1 0x0 PUSH2 0x4BD0 DUP8 DUP3 DUP9 ADD PUSH2 0x4B1D JUMP JUMPDEST SWAP5 POP POP PUSH1 0x20 DUP6 ADD CALLDATALOAD PUSH8 0xFFFFFFFFFFFFFFFF DUP2 GT ISZERO PUSH2 0x4BF1 JUMPI PUSH2 0x4BF0 PUSH2 0x6506 JUMP JUMPDEST JUMPDEST PUSH2 0x4BFD DUP8 DUP3 DUP9 ADD PUSH2 0x46B1 JUMP JUMPDEST SWAP4 POP POP PUSH1 0x40 PUSH2 0x4C0E DUP8 DUP3 DUP9 ADD PUSH2 0x4B1D JUMP JUMPDEST SWAP3 POP POP PUSH1 0x60 PUSH2 0x4C1F DUP8 DUP3 DUP9 ADD PUSH2 0x4640 JUMP JUMPDEST SWAP2 POP POP SWAP3 SWAP6 SWAP2 SWAP5 POP SWAP3 POP JUMP JUMPDEST PUSH1 0x0 DUP1 PUSH1 0x40 DUP4 DUP6 SUB SLT ISZERO PUSH2 0x4C42 JUMPI PUSH2 0x4C41 PUSH2 0x650B JUMP JUMPDEST JUMPDEST PUSH1 0x0 PUSH2 0x4C50 DUP6 DUP3 DUP7 ADD PUSH2 0x4B1D JUMP JUMPDEST SWAP3 POP POP PUSH1 0x20 PUSH2 0x4C61 DUP6 DUP3 DUP7 ADD PUSH2 0x46DF JUMP JUMPDEST SWAP2 POP POP SWAP3 POP SWAP3 SWAP1 POP JUMP JUMPDEST PUSH1 0x0 DUP1 PUSH1 0x40 DUP4 DUP6 SUB SLT ISZERO PUSH2 0x4C82 JUMPI PUSH2 0x4C81 PUSH2 0x650B JUMP JUMPDEST JUMPDEST PUSH1 0x0 PUSH2 0x4C90 DUP6 DUP3 DUP7 ADD PUSH2 0x4B1D JUMP JUMPDEST SWAP3 POP POP PUSH1 0x20 PUSH2 0x4CA1 DUP6 DUP3 DUP7 ADD PUSH2 0x4709 JUMP JUMPDEST SWAP2 POP POP SWAP3 POP SWAP3 SWAP1 POP JUMP JUMPDEST PUSH1 0x0 DUP1 PUSH1 0x40 DUP4 DUP6 SUB SLT ISZERO PUSH2 0x4CC2 JUMPI PUSH2 0x4CC1 PUSH2 0x650B JUMP JUMPDEST JUMPDEST PUSH1 0x0 PUSH2 0x4CD0 DUP6 DUP3 DUP7 ADD PUSH2 0x4B1D JUMP JUMPDEST SWAP3 POP POP PUSH1 0x20 DUP4 ADD CALLDATALOAD PUSH8 0xFFFFFFFFFFFFFFFF DUP2 GT ISZERO PUSH2 0x4CF1 JUMPI PUSH2 0x4CF0 PUSH2 0x6506 JUMP JUMPDEST JUMPDEST PUSH2 0x4CFD DUP6 DUP3 DUP7 ADD PUSH2 0x484D JUMP JUMPDEST SWAP2 POP POP SWAP3 POP SWAP3 SWAP1 POP JUMP JUMPDEST PUSH1 0x0 DUP1 PUSH1 0x40 DUP4 DUP6 SUB SLT ISZERO PUSH2 0x4D1E JUMPI PUSH2 0x4D1D PUSH2 0x650B JUMP JUMPDEST JUMPDEST PUSH1 0x0 PUSH2 0x4D2C DUP6 DUP3 DUP7 ADD PUSH2 0x4B1D JUMP JUMPDEST SWAP3 POP POP PUSH1 0x20 PUSH2 0x4D3D DUP6 DUP3 DUP7 ADD PUSH2 0x4B1D JUMP JUMPDEST SWAP2 POP POP SWAP3 POP SWAP3 SWAP1 POP JUMP JUMPDEST PUSH1 0x0 DUP1 PUSH1 0x0 PUSH1 0x60 DUP5 DUP7 SUB SLT ISZERO PUSH2 0x4D60 JUMPI PUSH2 0x4D5F PUSH2 0x650B JUMP JUMPDEST JUMPDEST PUSH1 0x0 PUSH2 0x4D6E DUP7 DUP3 DUP8 ADD PUSH2 0x4B1D JUMP JUMPDEST SWAP4 POP POP PUSH1 0x20 PUSH2 0x4D7F DUP7 DUP3 DUP8 ADD PUSH2 0x4B1D JUMP JUMPDEST SWAP3 POP POP PUSH1 0x40 PUSH2 0x4D90 DUP7 DUP3 DUP8 ADD PUSH2 0x46DF JUMP JUMPDEST SWAP2 POP POP SWAP3 POP SWAP3 POP SWAP3 JUMP JUMPDEST PUSH1 0x0 DUP1 PUSH1 0x0 PUSH1 0x60 DUP5 DUP7 SUB SLT ISZERO PUSH2 0x4DB3 JUMPI PUSH2 0x4DB2 PUSH2 0x650B JUMP JUMPDEST JUMPDEST PUSH1 0x0 PUSH2 0x4DC1 DUP7 DUP3 DUP8 ADD PUSH2 0x4B1D JUMP JUMPDEST SWAP4 POP POP PUSH1 0x20 PUSH2 0x4DD2 DUP7 DUP3 DUP8 ADD PUSH2 0x4B1D JUMP JUMPDEST SWAP3 POP POP PUSH1 0x40 PUSH2 0x4DE3 DUP7 DUP3 DUP8 ADD PUSH2 0x46F4 JUMP JUMPDEST SWAP2 POP POP SWAP3 POP SWAP3 POP SWAP3 JUMP JUMPDEST PUSH1 0x0 DUP1 PUSH1 0x0 DUP1 PUSH1 0x80 DUP6 DUP8 SUB SLT ISZERO PUSH2 0x4E07 JUMPI PUSH2 0x4E06 PUSH2 0x650B JUMP JUMPDEST JUMPDEST PUSH1 0x0 PUSH2 0x4E15 DUP8 DUP3 DUP9 ADD PUSH2 0x4B1D JUMP JUMPDEST SWAP5 POP POP PUSH1 0x20 PUSH2 0x4E26 DUP8 DUP3 DUP9 ADD PUSH2 0x4B1D JUMP JUMPDEST SWAP4 POP POP PUSH1 0x40 PUSH2 0x4E37 DUP8 DUP3 DUP9 ADD PUSH2 0x4B1D JUMP JUMPDEST SWAP3 POP POP PUSH1 0x60 PUSH2 0x4E48 DUP8 DUP3 DUP9 ADD PUSH2 0x4640 JUMP JUMPDEST SWAP2 POP POP SWAP3 SWAP6 SWAP2 SWAP5 POP SWAP3 POP JUMP JUMPDEST PUSH1 0x0 DUP1 PUSH1 0x0 DUP1 PUSH1 0x0 PUSH1 0xA0 DUP7 DUP9 SUB SLT ISZERO PUSH2 0x4E70 JUMPI PUSH2 0x4E6F PUSH2 0x650B JUMP JUMPDEST JUMPDEST PUSH1 0x0 PUSH2 0x4E7E DUP9 DUP3 DUP10 ADD PUSH2 0x4B1D JUMP JUMPDEST SWAP6 POP POP PUSH1 0x20 PUSH2 0x4E8F DUP9 DUP3 DUP10 ADD PUSH2 0x4B1D JUMP JUMPDEST SWAP5 POP POP PUSH1 0x40 PUSH2 0x4EA0 DUP9 DUP3 DUP10 ADD PUSH2 0x4B1D JUMP JUMPDEST SWAP4 POP POP PUSH1 0x60 PUSH2 0x4EB1 DUP9 DUP3 DUP10 ADD PUSH2 0x471E JUMP JUMPDEST SWAP3 POP POP PUSH1 0x80 PUSH2 0x4EC2 DUP9 DUP3 DUP10 ADD PUSH2 0x46DF JUMP JUMPDEST SWAP2 POP POP SWAP3 SWAP6 POP SWAP3 SWAP6 SWAP1 SWAP4 POP JUMP JUMPDEST PUSH1 0x0 DUP1 PUSH1 0x0 DUP1 PUSH1 0x0 PUSH1 0xA0 DUP7 DUP9 SUB SLT ISZERO PUSH2 0x4EEB JUMPI PUSH2 0x4EEA PUSH2 0x650B JUMP JUMPDEST JUMPDEST PUSH1 0x0 PUSH2 0x4EF9 DUP9 DUP3 DUP10 ADD PUSH2 0x4B1D JUMP JUMPDEST SWAP6 POP POP PUSH1 0x20 PUSH2 0x4F0A DUP9 DUP3 DUP10 ADD PUSH2 0x4B1D JUMP JUMPDEST SWAP5 POP POP PUSH1 0x40 PUSH2 0x4F1B DUP9 DUP3 DUP10 ADD PUSH2 0x4B1D JUMP JUMPDEST SWAP4 POP POP PUSH1 0x60 DUP7 ADD CALLDATALOAD PUSH8 0xFFFFFFFFFFFFFFFF DUP2 GT ISZERO PUSH2 0x4F3C JUMPI PUSH2 0x4F3B PUSH2 0x6506 JUMP JUMPDEST JUMPDEST PUSH2 0x4F48 DUP9 DUP3 DUP10 ADD PUSH2 0x4733 JUMP JUMPDEST SWAP3 POP POP PUSH1 0x80 PUSH2 0x4F59 DUP9 DUP3 DUP10 ADD PUSH2 0x46DF JUMP JUMPDEST SWAP2 POP POP SWAP3 SWAP6 POP SWAP3 SWAP6 SWAP1 SWAP4 POP JUMP JUMPDEST PUSH1 0x0 PUSH2 0x4F72 DUP4 DUP4 PUSH2 0x52C3 JUMP JUMPDEST PUSH1 0x20 DUP4 ADD SWAP1 POP SWAP3 SWAP2 POP POP JUMP JUMPDEST PUSH1 0x0 PUSH2 0x4F8A DUP4 DUP4 PUSH2 0x52E1 JUMP JUMPDEST SWAP1 POP SWAP3 SWAP2 POP POP JUMP JUMPDEST PUSH1 0x0 PUSH2 0x4F9E DUP4 DUP4 PUSH2 0x5651 JUMP JUMPDEST SWAP1 POP SWAP3 SWAP2 POP POP JUMP JUMPDEST PUSH1 0x0 PUSH2 0x4FB2 DUP4 DUP4 PUSH2 0x56CE JUMP JUMPDEST SWAP1 POP SWAP3 SWAP2 POP POP JUMP JUMPDEST PUSH1 0x0 PUSH2 0x4FC6 DUP4 DUP4 PUSH2 0x59C8 JUMP JUMPDEST PUSH1 0x20 DUP4 ADD SWAP1 POP SWAP3 SWAP2 POP POP JUMP JUMPDEST PUSH2 0x4FDB DUP2 PUSH2 0x622E JUMP JUMPDEST DUP3 MSTORE POP POP JUMP JUMPDEST PUSH2 0x4FEA DUP2 PUSH2 0x622E JUMP JUMPDEST DUP3 MSTORE POP POP JUMP JUMPDEST PUSH1 0x0 PUSH2 0x4FFB DUP3 PUSH2 0x600E JUMP JUMPDEST PUSH2 0x5005 DUP2 DUP6 PUSH2 0x60E6 JUMP JUMPDEST SWAP4 POP PUSH2 0x5010 DUP4 PUSH2 0x5FBE JUMP JUMPDEST DUP1 PUSH1 0x0 JUMPDEST DUP4 DUP2 LT ISZERO PUSH2 0x5041 JUMPI DUP2 MLOAD PUSH2 0x5028 DUP9 DUP3 PUSH2 0x4F66 JUMP JUMPDEST SWAP8 POP PUSH2 0x5033 DUP4 PUSH2 0x6050 JUMP JUMPDEST SWAP3 POP POP PUSH1 0x1 DUP2 ADD SWAP1 POP PUSH2 0x5014 JUMP JUMPDEST POP DUP6 SWAP4 POP POP POP POP SWAP3 SWAP2 POP POP JUMP JUMPDEST PUSH1 0x0 PUSH2 0x5059 DUP3 PUSH2 0x6019 JUMP JUMPDEST PUSH2 0x5063 DUP2 DUP6 PUSH2 0x6091 JUMP JUMPDEST SWAP4 POP DUP4 PUSH1 0x20 DUP3 MUL DUP6 ADD PUSH2 0x5075 DUP6 PUSH2 0x5FCE JUMP JUMPDEST DUP1 PUSH1 0x0 JUMPDEST DUP6 DUP2 LT ISZERO PUSH2 0x50B1 JUMPI DUP5 DUP5 SUB DUP10 MSTORE DUP2 MLOAD PUSH2 0x5092 DUP6 DUP3 PUSH2 0x4F7E JUMP JUMPDEST SWAP5 POP PUSH2 0x509D DUP4 PUSH2 0x605D JUMP JUMPDEST SWAP3 POP PUSH1 0x20 DUP11 ADD SWAP10 POP POP PUSH1 0x1 DUP2 ADD SWAP1 POP PUSH2 0x5079 JUMP JUMPDEST POP DUP3 SWAP8 POP DUP8 SWAP6 POP POP POP POP POP POP SWAP3 SWAP2 POP POP JUMP JUMPDEST PUSH1 0x0 PUSH2 0x50CE DUP3 PUSH2 0x6024 JUMP JUMPDEST PUSH2 0x50D8 DUP2 DUP6 PUSH2 0x60A2 JUMP JUMPDEST SWAP4 POP DUP4 PUSH1 0x20 DUP3 MUL DUP6 ADD PUSH2 0x50EA DUP6 PUSH2 0x5FDE JUMP JUMPDEST DUP1 PUSH1 0x0 JUMPDEST DUP6 DUP2 LT ISZERO PUSH2 0x5126 JUMPI DUP5 DUP5 SUB DUP10 MSTORE DUP2 MLOAD PUSH2 0x5107 DUP6 DUP3 PUSH2 0x4F92 JUMP JUMPDEST SWAP5 POP PUSH2 0x5112 DUP4 PUSH2 0x606A JUMP JUMPDEST SWAP3 POP PUSH1 0x20 DUP11 ADD SWAP10 POP POP PUSH1 0x1 DUP2 ADD SWAP1 POP PUSH2 0x50EE JUMP JUMPDEST POP DUP3 SWAP8 POP DUP8 SWAP6 POP POP POP POP POP POP SWAP3 SWAP2 POP POP JUMP JUMPDEST PUSH1 0x0 PUSH2 0x5143 DUP3 PUSH2 0x602F JUMP JUMPDEST PUSH2 0x514D DUP2 DUP6 PUSH2 0x60B3 JUMP JUMPDEST SWAP4 POP DUP4 PUSH1 0x20 DUP3 MUL DUP6 ADD PUSH2 0x515F DUP6 PUSH2 0x5FEE JUMP JUMPDEST DUP1 PUSH1 0x0 JUMPDEST DUP6 DUP2 LT ISZERO PUSH2 0x519B JUMPI DUP5 DUP5 SUB DUP10 MSTORE DUP2 MLOAD PUSH2 0x517C DUP6 DUP3 PUSH2 0x4FA6 JUMP JUMPDEST SWAP5 POP PUSH2 0x5187 DUP4 PUSH2 0x6077 JUMP JUMPDEST SWAP3 POP PUSH1 0x20 DUP11 ADD SWAP10 POP POP PUSH1 0x1 DUP2 ADD SWAP1 POP PUSH2 0x5163 JUMP JUMPDEST POP DUP3 SWAP8 POP DUP8 SWAP6 POP POP POP POP POP POP SWAP3 SWAP2 POP POP JUMP JUMPDEST PUSH1 0x0 PUSH2 0x51B8 DUP3 PUSH2 0x603A JUMP JUMPDEST PUSH2 0x51C2 DUP2 DUP6 PUSH2 0x60C4 JUMP JUMPDEST SWAP4 POP PUSH2 0x51CD DUP4 PUSH2 0x5FFE JUMP JUMPDEST DUP1 PUSH1 0x0 JUMPDEST DUP4 DUP2 LT ISZERO PUSH2 0x51FE JUMPI DUP2 MLOAD PUSH2 0x51E5 DUP9 DUP3 PUSH2 0x4FBA JUMP JUMPDEST SWAP8 POP PUSH2 0x51F0 DUP4 PUSH2 0x6084 JUMP JUMPDEST SWAP3 POP POP PUSH1 0x1 DUP2 ADD SWAP1 POP PUSH2 0x51D1 JUMP JUMPDEST POP DUP6 SWAP4 POP POP POP POP SWAP3 SWAP2 POP POP JUMP JUMPDEST PUSH1 0x0 PUSH2 0x5216 DUP3 PUSH2 0x603A JUMP JUMPDEST PUSH2 0x5220 DUP2 DUP6 PUSH2 0x60D5 JUMP JUMPDEST SWAP4 POP PUSH2 0x522B DUP4 PUSH2 0x5FFE JUMP JUMPDEST DUP1 PUSH1 0x0 JUMPDEST DUP4 DUP2 LT ISZERO PUSH2 0x525C JUMPI DUP2 MLOAD PUSH2 0x5243 DUP9 DUP3 PUSH2 0x4FBA JUMP JUMPDEST SWAP8 POP PUSH2 0x524E DUP4 PUSH2 0x6084 JUMP JUMPDEST SWAP3 POP POP PUSH1 0x1 DUP2 ADD SWAP1 POP PUSH2 0x522F JUMP JUMPDEST POP DUP6 SWAP4 POP POP POP POP SWAP3 SWAP2 POP POP JUMP JUMPDEST PUSH2 0x5272 DUP2 PUSH2 0x6240 JUMP JUMPDEST DUP3 MSTORE POP POP JUMP JUMPDEST PUSH2 0x5281 DUP2 PUSH2 0x6240 JUMP JUMPDEST DUP3 MSTORE POP POP JUMP JUMPDEST PUSH2 0x5290 DUP2 PUSH2 0x62AF JUMP JUMPDEST DUP3 MSTORE POP POP JUMP JUMPDEST PUSH2 0x529F DUP2 PUSH2 0x62AF JUMP JUMPDEST DUP3 MSTORE POP POP JUMP JUMPDEST PUSH2 0x52AE DUP2 PUSH2 0x62C1 JUMP JUMPDEST DUP3 MSTORE POP POP JUMP JUMPDEST PUSH2 0x52BD DUP2 PUSH2 0x62C1 JUMP JUMPDEST DUP3 MSTORE POP POP JUMP JUMPDEST PUSH2 0x52CC DUP2 PUSH2 0x62D3 JUMP JUMPDEST DUP3 MSTORE POP POP JUMP JUMPDEST PUSH2 0x52DB DUP2 PUSH2 0x62D3 JUMP JUMPDEST DUP3 MSTORE POP POP JUMP JUMPDEST PUSH1 0x0 PUSH2 0x52EC DUP3 PUSH2 0x6045 JUMP JUMPDEST PUSH2 0x52F6 DUP2 DUP6 PUSH2 0x60F7 JUMP JUMPDEST SWAP4 POP PUSH2 0x5306 DUP2 DUP6 PUSH1 0x20 DUP7 ADD PUSH2 0x62F4 JUMP JUMPDEST PUSH2 0x530F DUP2 PUSH2 0x6510 JUMP JUMPDEST DUP5 ADD SWAP2 POP POP SWAP3 SWAP2 POP POP JUMP JUMPDEST PUSH1 0x0 PUSH2 0x5325 DUP3 PUSH2 0x6045 JUMP JUMPDEST PUSH2 0x532F DUP2 DUP6 PUSH2 0x6108 JUMP JUMPDEST SWAP4 POP PUSH2 0x533F DUP2 DUP6 PUSH1 0x20 DUP7 ADD PUSH2 0x62F4 JUMP JUMPDEST PUSH2 0x5348 DUP2 PUSH2 0x6510 JUMP JUMPDEST DUP5 ADD SWAP2 POP POP SWAP3 SWAP2 POP POP JUMP JUMPDEST PUSH1 0x0 PUSH2 0x5360 PUSH1 0xA DUP4 PUSH2 0x6108 JUMP JUMPDEST SWAP2 POP PUSH2 0x536B DUP3 PUSH2 0x6521 JUMP JUMPDEST PUSH1 0x20 DUP3 ADD SWAP1 POP SWAP2 SWAP1 POP JUMP JUMPDEST PUSH1 0x0 PUSH2 0x5383 PUSH1 0x19 DUP4 PUSH2 0x6108 JUMP JUMPDEST SWAP2 POP PUSH2 0x538E DUP3 PUSH2 0x654A JUMP JUMPDEST PUSH1 0x20 DUP3 ADD SWAP1 POP SWAP2 SWAP1 POP JUMP JUMPDEST PUSH1 0x0 PUSH2 0x53A6 PUSH1 0x9 DUP4 PUSH2 0x6108 JUMP JUMPDEST SWAP2 POP PUSH2 0x53B1 DUP3 PUSH2 0x6573 JUMP JUMPDEST PUSH1 0x20 DUP3 ADD SWAP1 POP SWAP2 SWAP1 POP JUMP JUMPDEST PUSH1 0x0 PUSH2 0x53C9 PUSH1 0x2 DUP4 PUSH2 0x6108 JUMP JUMPDEST SWAP2 POP PUSH2 0x53D4 DUP3 PUSH2 0x659C JUMP JUMPDEST PUSH1 0x20 DUP3 ADD SWAP1 POP SWAP2 SWAP1 POP JUMP JUMPDEST PUSH1 0x0 PUSH2 0x53EC PUSH1 0xB DUP4 PUSH2 0x6108 JUMP JUMPDEST SWAP2 POP PUSH2 0x53F7 DUP3 PUSH2 0x65C5 JUMP JUMPDEST PUSH1 0x20 DUP3 ADD SWAP1 POP SWAP2 SWAP1 POP JUMP JUMPDEST PUSH1 0x0 PUSH2 0x540F PUSH1 0x2 DUP4 PUSH2 0x6108 JUMP JUMPDEST SWAP2 POP PUSH2 0x541A DUP3 PUSH2 0x65EE JUMP JUMPDEST PUSH1 0x20 DUP3 ADD SWAP1 POP SWAP2 SWAP1 POP JUMP JUMPDEST PUSH1 0x0 PUSH2 0x5432 PUSH1 0x26 DUP4 PUSH2 0x6108 JUMP JUMPDEST SWAP2 POP PUSH2 0x543D DUP3 PUSH2 0x6617 JUMP JUMPDEST PUSH1 0x40 DUP3 ADD SWAP1 POP SWAP2 SWAP1 POP JUMP JUMPDEST PUSH1 0x0 PUSH1 0xE0 DUP4 ADD PUSH1 0x0 DUP4 ADD MLOAD DUP5 DUP3 SUB PUSH1 0x0 DUP7 ADD MSTORE PUSH2 0x5465 DUP3 DUP3 PUSH2 0x52E1 JUMP JUMPDEST SWAP2 POP POP PUSH1 0x20 DUP4 ADD MLOAD PUSH2 0x547A PUSH1 0x20 DUP7 ADD DUP3 PUSH2 0x59C8 JUMP JUMPDEST POP PUSH1 0x40 DUP4 ADD MLOAD PUSH2 0x548D PUSH1 0x40 DUP7 ADD DUP3 PUSH2 0x59C8 JUMP JUMPDEST POP PUSH1 0x60 DUP4 ADD MLOAD PUSH2 0x54A0 PUSH1 0x60 DUP7 ADD DUP3 PUSH2 0x59C8 JUMP JUMPDEST POP PUSH1 0x80 DUP4 ADD MLOAD PUSH2 0x54B3 PUSH1 0x80 DUP7 ADD DUP3 PUSH2 0x59C8 JUMP JUMPDEST POP PUSH1 0xA0 DUP4 ADD MLOAD PUSH2 0x54C6 PUSH1 0xA0 DUP7 ADD DUP3 PUSH2 0x59C8 JUMP JUMPDEST POP PUSH1 0xC0 DUP4 ADD MLOAD DUP5 DUP3 SUB PUSH1 0xC0 DUP7 ADD MSTORE PUSH2 0x54DE DUP3 DUP3 PUSH2 0x52E1 JUMP JUMPDEST SWAP2 POP POP DUP1 SWAP2 POP POP SWAP3 SWAP2 POP POP JUMP JUMPDEST PUSH1 0x0 PUSH2 0x1E0 DUP4 ADD PUSH1 0x0 DUP4 ADD MLOAD PUSH2 0x5504 PUSH1 0x0 DUP7 ADD DUP3 PUSH2 0x59C8 JUMP JUMPDEST POP PUSH1 0x20 DUP4 ADD MLOAD DUP5 DUP3 SUB PUSH1 0x20 DUP7 ADD MSTORE PUSH2 0x551C DUP3 DUP3 PUSH2 0x52E1 JUMP JUMPDEST SWAP2 POP POP PUSH1 0x40 DUP4 ADD MLOAD DUP5 DUP3 SUB PUSH1 0x40 DUP7 ADD MSTORE PUSH2 0x5536 DUP3 DUP3 PUSH2 0x52E1 JUMP JUMPDEST SWAP2 POP POP PUSH1 0x60 DUP4 ADD MLOAD PUSH2 0x554B PUSH1 0x60 DUP7 ADD DUP3 PUSH2 0x59C8 JUMP JUMPDEST POP PUSH1 0x80 DUP4 ADD MLOAD DUP5 DUP3 SUB PUSH1 0x80 DUP7 ADD MSTORE PUSH2 0x5563 DUP3 DUP3 PUSH2 0x52E1 JUMP JUMPDEST SWAP2 POP POP PUSH1 0xA0 DUP4 ADD MLOAD DUP5 DUP3 SUB PUSH1 0xA0 DUP7 ADD MSTORE PUSH2 0x557D DUP3 DUP3 PUSH2 0x52E1 JUMP JUMPDEST SWAP2 POP POP PUSH1 0xC0 DUP4 ADD MLOAD DUP5 DUP3 SUB PUSH1 0xC0 DUP7 ADD MSTORE PUSH2 0x5597 DUP3 DUP3 PUSH2 0x504E JUMP JUMPDEST SWAP2 POP POP PUSH1 0xE0 DUP4 ADD MLOAD PUSH2 0x55AC PUSH1 0xE0 DUP7 ADD DUP3 PUSH2 0x59C8 JUMP JUMPDEST POP PUSH2 0x100 DUP4 ADD MLOAD PUSH2 0x55C1 PUSH2 0x100 DUP7 ADD DUP3 PUSH2 0x59C8 JUMP JUMPDEST POP PUSH2 0x120 DUP4 ADD MLOAD PUSH2 0x55D6 PUSH2 0x120 DUP7 ADD DUP3 PUSH2 0x5269 JUMP JUMPDEST POP PUSH2 0x140 DUP4 ADD MLOAD PUSH2 0x55EB PUSH2 0x140 DUP7 ADD DUP3 PUSH2 0x5269 JUMP JUMPDEST POP PUSH2 0x160 DUP4 ADD MLOAD PUSH2 0x5600 PUSH2 0x160 DUP7 ADD DUP3 PUSH2 0x59C8 JUMP JUMPDEST POP PUSH2 0x180 DUP4 ADD MLOAD DUP5 DUP3 SUB PUSH2 0x180 DUP7 ADD MSTORE PUSH2 0x561A DUP3 DUP3 PUSH2 0x50C3 JUMP JUMPDEST SWAP2 POP POP PUSH2 0x1A0 DUP4 ADD MLOAD PUSH2 0x5631 PUSH2 0x1A0 DUP7 ADD DUP3 PUSH2 0x59C8 JUMP JUMPDEST POP PUSH2 0x1C0 DUP4 ADD MLOAD PUSH2 0x5646 PUSH2 0x1C0 DUP7 ADD DUP3 PUSH2 0x59C8 JUMP JUMPDEST POP DUP1 SWAP2 POP POP SWAP3 SWAP2 POP POP JUMP JUMPDEST PUSH1 0x0 PUSH1 0xA0 DUP4 ADD PUSH1 0x0 DUP4 ADD MLOAD DUP5 DUP3 SUB PUSH1 0x0 DUP7 ADD MSTORE PUSH2 0x566E DUP3 DUP3 PUSH2 0x5448 JUMP JUMPDEST SWAP2 POP POP PUSH1 0x20 DUP4 ADD MLOAD PUSH2 0x5683 PUSH1 0x20 DUP7 ADD DUP3 PUSH2 0x59C8 JUMP JUMPDEST POP PUSH1 0x40 DUP4 ADD MLOAD DUP5 DUP3 SUB PUSH1 0x40 DUP7 ADD MSTORE PUSH2 0x569B DUP3 DUP3 PUSH2 0x52E1 JUMP JUMPDEST SWAP2 POP POP PUSH1 0x60 DUP4 ADD MLOAD PUSH2 0x56B0 PUSH1 0x60 DUP7 ADD DUP3 PUSH2 0x5287 JUMP JUMPDEST POP PUSH1 0x80 DUP4 ADD MLOAD PUSH2 0x56C3 PUSH1 0x80 DUP7 ADD DUP3 PUSH2 0x59C8 JUMP JUMPDEST POP DUP1 SWAP2 POP POP SWAP3 SWAP2 POP POP JUMP JUMPDEST PUSH1 0x0 PUSH1 0xA0 DUP4 ADD PUSH1 0x0 DUP4 ADD MLOAD PUSH2 0x56E6 PUSH1 0x0 DUP7 ADD DUP3 PUSH2 0x4FD2 JUMP JUMPDEST POP PUSH1 0x20 DUP4 ADD MLOAD DUP5 DUP3 SUB PUSH1 0x20 DUP7 ADD MSTORE PUSH2 0x56FE DUP3 DUP3 PUSH2 0x51AD JUMP JUMPDEST SWAP2 POP POP PUSH1 0x40 DUP4 ADD MLOAD DUP5 DUP3 SUB PUSH1 0x40 DUP7 ADD MSTORE PUSH2 0x5718 DUP3 DUP3 PUSH2 0x4FF0 JUMP JUMPDEST SWAP2 POP POP PUSH1 0x60 DUP4 ADD MLOAD DUP5 DUP3 SUB PUSH1 0x60 DUP7 ADD MSTORE PUSH2 0x5732 DUP3 DUP3 PUSH2 0x504E JUMP JUMPDEST SWAP2 POP POP PUSH1 0x80 DUP4 ADD MLOAD PUSH2 0x5747 PUSH1 0x80 DUP7 ADD DUP3 PUSH2 0x59C8 JUMP JUMPDEST POP DUP1 SWAP2 POP POP SWAP3 SWAP2 POP POP JUMP JUMPDEST PUSH1 0x0 PUSH1 0xA0 DUP4 ADD PUSH1 0x0 DUP4 ADD MLOAD PUSH2 0x576A PUSH1 0x0 DUP7 ADD DUP3 PUSH2 0x4FD2 JUMP JUMPDEST POP PUSH1 0x20 DUP4 ADD MLOAD DUP5 DUP3 SUB PUSH1 0x20 DUP7 ADD MSTORE PUSH2 0x5782 DUP3 DUP3 PUSH2 0x51AD JUMP JUMPDEST SWAP2 POP POP PUSH1 0x40 DUP4 ADD MLOAD DUP5 DUP3 SUB PUSH1 0x40 DUP7 ADD MSTORE PUSH2 0x579C DUP3 DUP3 PUSH2 0x4FF0 JUMP JUMPDEST SWAP2 POP POP PUSH1 0x60 DUP4 ADD MLOAD DUP5 DUP3 SUB PUSH1 0x60 DUP7 ADD MSTORE PUSH2 0x57B6 DUP3 DUP3 PUSH2 0x504E JUMP JUMPDEST SWAP2 POP POP PUSH1 0x80 DUP4 ADD MLOAD PUSH2 0x57CB PUSH1 0x80 DUP7 ADD DUP3 PUSH2 0x59C8 JUMP JUMPDEST POP DUP1 SWAP2 POP POP SWAP3 SWAP2 POP POP JUMP JUMPDEST PUSH1 0x0 PUSH2 0x2A0 DUP4 ADD PUSH1 0x0 DUP4 ADD MLOAD PUSH2 0x57EF PUSH1 0x0 DUP7 ADD DUP3 PUSH2 0x4FD2 JUMP JUMPDEST POP PUSH1 0x20 DUP4 ADD MLOAD PUSH2 0x5802 PUSH1 0x20 DUP7 ADD DUP3 PUSH2 0x59C8 JUMP JUMPDEST POP PUSH1 0x40 DUP4 ADD MLOAD DUP5 DUP3 SUB PUSH1 0x40 DUP7 ADD MSTORE PUSH2 0x581A DUP3 DUP3 PUSH2 0x52E1 JUMP JUMPDEST SWAP2 POP POP PUSH1 0x60 DUP4 ADD MLOAD DUP5 DUP3 SUB PUSH1 0x60 DUP7 ADD MSTORE PUSH2 0x5834 DUP3 DUP3 PUSH2 0x52E1 JUMP JUMPDEST SWAP2 POP POP PUSH1 0x80 DUP4 ADD MLOAD PUSH2 0x5849 PUSH1 0x80 DUP7 ADD DUP3 PUSH2 0x59C8 JUMP JUMPDEST POP PUSH1 0xA0 DUP4 ADD MLOAD DUP5 DUP3 SUB PUSH1 0xA0 DUP7 ADD MSTORE PUSH2 0x5861 DUP3 DUP3 PUSH2 0x52E1 JUMP JUMPDEST SWAP2 POP POP PUSH1 0xC0 DUP4 ADD MLOAD DUP5 DUP3 SUB PUSH1 0xC0 DUP7 ADD MSTORE PUSH2 0x587B DUP3 DUP3 PUSH2 0x52E1 JUMP JUMPDEST SWAP2 POP POP PUSH1 0xE0 DUP4 ADD MLOAD DUP5 DUP3 SUB PUSH1 0xE0 DUP7 ADD MSTORE PUSH2 0x5895 DUP3 DUP3 PUSH2 0x504E JUMP JUMPDEST SWAP2 POP POP PUSH2 0x100 DUP4 ADD MLOAD PUSH2 0x58AC PUSH2 0x100 DUP7 ADD DUP3 PUSH2 0x59C8 JUMP JUMPDEST POP PUSH2 0x120 DUP4 ADD MLOAD PUSH2 0x58C1 PUSH2 0x120 DUP7 ADD DUP3 PUSH2 0x59C8 JUMP JUMPDEST POP PUSH2 0x140 DUP4 ADD MLOAD PUSH2 0x58D6 PUSH2 0x140 DUP7 ADD DUP3 PUSH2 0x5269 JUMP JUMPDEST POP PUSH2 0x160 DUP4 ADD MLOAD PUSH2 0x58EB PUSH2 0x160 DUP7 ADD DUP3 PUSH2 0x5269 JUMP JUMPDEST POP PUSH2 0x180 DUP4 ADD MLOAD PUSH2 0x5900 PUSH2 0x180 DUP7 ADD DUP3 PUSH2 0x59C8 JUMP JUMPDEST POP PUSH2 0x1A0 DUP4 ADD MLOAD DUP5 DUP3 SUB PUSH2 0x1A0 DUP7 ADD MSTORE PUSH2 0x591A DUP3 DUP3 PUSH2 0x50C3 JUMP JUMPDEST SWAP2 POP POP PUSH2 0x1C0 DUP4 ADD MLOAD DUP5 DUP3 SUB PUSH2 0x1C0 DUP7 ADD MSTORE PUSH2 0x5936 DUP3 DUP3 PUSH2 0x5138 JUMP JUMPDEST SWAP2 POP POP PUSH2 0x1E0 DUP4 ADD MLOAD DUP5 DUP3 SUB PUSH2 0x1E0 DUP7 ADD MSTORE PUSH2 0x5952 DUP3 DUP3 PUSH2 0x5138 JUMP JUMPDEST SWAP2 POP POP PUSH2 0x200 DUP4 ADD MLOAD PUSH2 0x5969 PUSH2 0x200 DUP7 ADD DUP3 PUSH2 0x59C8 JUMP JUMPDEST POP PUSH2 0x220 DUP4 ADD MLOAD PUSH2 0x597E PUSH2 0x220 DUP7 ADD DUP3 PUSH2 0x59C8 JUMP JUMPDEST POP PUSH2 0x240 DUP4 ADD MLOAD PUSH2 0x5993 PUSH2 0x240 DUP7 ADD DUP3 PUSH2 0x5269 JUMP JUMPDEST POP PUSH2 0x260 DUP4 ADD MLOAD PUSH2 0x59A8 PUSH2 0x260 DUP7 ADD DUP3 PUSH2 0x5269 JUMP JUMPDEST POP PUSH2 0x280 DUP4 ADD MLOAD PUSH2 0x59BD PUSH2 0x280 DUP7 ADD DUP3 PUSH2 0x52A5 JUMP JUMPDEST POP DUP1 SWAP2 POP POP SWAP3 SWAP2 POP POP JUMP JUMPDEST PUSH2 0x59D1 DUP2 PUSH2 0x62A5 JUMP JUMPDEST DUP3 MSTORE POP POP JUMP JUMPDEST PUSH2 0x59E0 DUP2 PUSH2 0x62A5 JUMP JUMPDEST DUP3 MSTORE POP POP JUMP JUMPDEST PUSH1 0x0 PUSH1 0x80 DUP3 ADD SWAP1 POP PUSH2 0x59FB PUSH1 0x0 DUP4 ADD DUP7 PUSH2 0x4FE1 JUMP JUMPDEST PUSH2 0x5A08 PUSH1 0x20 DUP4 ADD DUP6 PUSH2 0x59D7 JUMP JUMPDEST DUP2 DUP2 SUB PUSH1 0x40 DUP4 ADD MSTORE PUSH2 0x5A19 DUP2 PUSH2 0x53BC JUMP JUMPDEST SWAP1 POP PUSH2 0x5A28 PUSH1 0x60 DUP4 ADD DUP5 PUSH2 0x5278 JUMP JUMPDEST SWAP5 SWAP4 POP POP POP POP JUMP JUMPDEST PUSH1 0x0 PUSH1 0x80 DUP3 ADD SWAP1 POP PUSH2 0x5A45 PUSH1 0x0 DUP4 ADD DUP7 PUSH2 0x4FE1 JUMP JUMPDEST PUSH2 0x5A52 PUSH1 0x20 DUP4 ADD DUP6 PUSH2 0x59D7 JUMP JUMPDEST DUP2 DUP2 SUB PUSH1 0x40 DUP4 ADD MSTORE PUSH2 0x5A63 DUP2 PUSH2 0x5402 JUMP JUMPDEST SWAP1 POP PUSH2 0x5A72 PUSH1 0x60 DUP4 ADD DUP5 PUSH2 0x5278 JUMP JUMPDEST SWAP5 SWAP4 POP POP POP POP JUMP JUMPDEST PUSH1 0x0 PUSH1 0x60 DUP3 ADD SWAP1 POP PUSH2 0x5A8F PUSH1 0x0 DUP4 ADD DUP7 PUSH2 0x4FE1 JUMP JUMPDEST PUSH2 0x5A9C PUSH1 0x20 DUP4 ADD DUP6 PUSH2 0x59D7 JUMP JUMPDEST DUP2 DUP2 SUB PUSH1 0x40 DUP4 ADD MSTORE PUSH2 0x5AAE DUP2 DUP5 PUSH2 0x54EB JUMP JUMPDEST SWAP1 POP SWAP5 SWAP4 POP POP POP POP JUMP JUMPDEST PUSH1 0x0 PUSH1 0x40 DUP3 ADD SWAP1 POP DUP2 DUP2 SUB PUSH1 0x0 DUP4 ADD MSTORE PUSH2 0x5AD2 DUP2 DUP6 PUSH2 0x520B JUMP JUMPDEST SWAP1 POP PUSH2 0x5AE1 PUSH1 0x20 DUP4 ADD DUP5 PUSH2 0x59D7 JUMP JUMPDEST SWAP4 SWAP3 POP POP POP JUMP JUMPDEST PUSH1 0x0 PUSH1 0x20 DUP3 ADD SWAP1 POP PUSH2 0x5AFD PUSH1 0x0 DUP4 ADD DUP5 PUSH2 0x5278 JUMP JUMPDEST SWAP3 SWAP2 POP POP JUMP JUMPDEST PUSH1 0x0 PUSH1 0x20 DUP3 ADD SWAP1 POP DUP2 DUP2 SUB PUSH1 0x0 DUP4 ADD MSTORE PUSH2 0x5B1C DUP2 PUSH2 0x5376 JUMP JUMPDEST SWAP1 POP SWAP2 SWAP1 POP JUMP JUMPDEST PUSH1 0x0 PUSH1 0x40 DUP3 ADD SWAP1 POP DUP2 DUP2 SUB PUSH1 0x0 DUP4 ADD MSTORE PUSH2 0x5B3C DUP2 PUSH2 0x5425 JUMP JUMPDEST SWAP1 POP PUSH2 0x5B4B PUSH1 0x20 DUP4 ADD DUP5 PUSH2 0x59D7 JUMP JUMPDEST SWAP3 SWAP2 POP POP JUMP JUMPDEST PUSH1 0x0 PUSH1 0x20 DUP3 ADD SWAP1 POP DUP2 DUP2 SUB PUSH1 0x0 DUP4 ADD MSTORE PUSH2 0x5B6B DUP2 DUP5 PUSH2 0x5752 JUMP JUMPDEST SWAP1 POP SWAP3 SWAP2 POP POP JUMP JUMPDEST PUSH1 0x0 PUSH1 0x20 DUP3 ADD SWAP1 POP DUP2 DUP2 SUB PUSH1 0x0 DUP4 ADD MSTORE PUSH2 0x5B8D DUP2 DUP5 PUSH2 0x57D6 JUMP JUMPDEST SWAP1 POP SWAP3 SWAP2 POP POP JUMP JUMPDEST PUSH1 0x0 PUSH1 0x20 DUP3 ADD SWAP1 POP PUSH2 0x5BAA PUSH1 0x0 DUP4 ADD DUP5 PUSH2 0x59D7 JUMP JUMPDEST SWAP3 SWAP2 POP POP JUMP JUMPDEST PUSH1 0x0 PUSH1 0xA0 DUP3 ADD SWAP1 POP PUSH2 0x5BC5 PUSH1 0x0 DUP4 ADD DUP8 PUSH2 0x59D7 JUMP JUMPDEST DUP2 DUP2 SUB PUSH1 0x20 DUP4 ADD MSTORE PUSH2 0x5BD7 DUP2 DUP7 PUSH2 0x520B JUMP JUMPDEST SWAP1 POP PUSH2 0x5BE6 PUSH1 0x40 DUP4 ADD DUP6 PUSH2 0x59D7 JUMP JUMPDEST PUSH2 0x5BF3 PUSH1 0x60 DUP4 ADD DUP5 PUSH2 0x4FE1 JUMP JUMPDEST DUP2 DUP2 SUB PUSH1 0x80 DUP4 ADD MSTORE PUSH2 0x5C04 DUP2 PUSH2 0x5353 JUMP JUMPDEST SWAP1 POP SWAP6 SWAP5 POP POP POP POP POP JUMP JUMPDEST PUSH1 0x0 PUSH1 0xA0 DUP3 ADD SWAP1 POP PUSH2 0x5C24 PUSH1 0x0 DUP4 ADD DUP8 PUSH2 0x59D7 JUMP JUMPDEST DUP2 DUP2 SUB PUSH1 0x20 DUP4 ADD MSTORE PUSH2 0x5C36 DUP2 DUP7 PUSH2 0x520B JUMP JUMPDEST SWAP1 POP PUSH2 0x5C45 PUSH1 0x40 DUP4 ADD DUP6 PUSH2 0x59D7 JUMP JUMPDEST PUSH2 0x5C52 PUSH1 0x60 DUP4 ADD DUP5 PUSH2 0x4FE1 JUMP JUMPDEST DUP2 DUP2 SUB PUSH1 0x80 DUP4 ADD MSTORE PUSH2 0x5C63 DUP2 PUSH2 0x5399 JUMP JUMPDEST SWAP1 POP SWAP6 SWAP5 POP POP POP POP POP JUMP JUMPDEST PUSH1 0x0 PUSH1 0xA0 DUP3 ADD SWAP1 POP PUSH2 0x5C83 PUSH1 0x0 DUP4 ADD DUP8 PUSH2 0x59D7 JUMP JUMPDEST DUP2 DUP2 SUB PUSH1 0x20 DUP4 ADD MSTORE PUSH2 0x5C95 DUP2 DUP7 PUSH2 0x520B JUMP JUMPDEST SWAP1 POP PUSH2 0x5CA4 PUSH1 0x40 DUP4 ADD DUP6 PUSH2 0x59D7 JUMP JUMPDEST PUSH2 0x5CB1 PUSH1 0x60 DUP4 ADD DUP5 PUSH2 0x4FE1 JUMP JUMPDEST DUP2 DUP2 SUB PUSH1 0x80 DUP4 ADD MSTORE PUSH2 0x5CC2 DUP2 PUSH2 0x53DF JUMP JUMPDEST SWAP1 POP SWAP6 SWAP5 POP POP POP POP POP JUMP JUMPDEST PUSH1 0x0 PUSH1 0x40 DUP3 ADD SWAP1 POP PUSH2 0x5CE2 PUSH1 0x0 DUP4 ADD DUP6 PUSH2 0x59D7 JUMP JUMPDEST PUSH2 0x5CEF PUSH1 0x20 DUP4 ADD DUP5 PUSH2 0x52B4 JUMP JUMPDEST SWAP4 SWAP3 POP POP POP JUMP JUMPDEST PUSH1 0x0 PUSH1 0x40 DUP3 ADD SWAP1 POP PUSH2 0x5D0B PUSH1 0x0 DUP4 ADD DUP6 PUSH2 0x59D7 JUMP JUMPDEST DUP2 DUP2 SUB PUSH1 0x20 DUP4 ADD MSTORE PUSH2 0x5D1D DUP2 DUP5 PUSH2 0x54EB JUMP JUMPDEST SWAP1 POP SWAP4 SWAP3 POP POP POP JUMP JUMPDEST PUSH1 0x0 PUSH1 0x80 DUP3 ADD SWAP1 POP PUSH2 0x5D3B PUSH1 0x0 DUP4 ADD DUP8 PUSH2 0x59D7 JUMP JUMPDEST PUSH2 0x5D48 PUSH1 0x20 DUP4 ADD DUP7 PUSH2 0x59D7 JUMP JUMPDEST PUSH2 0x5D55 PUSH1 0x40 DUP4 ADD DUP6 PUSH2 0x4FE1 JUMP JUMPDEST PUSH2 0x5D62 PUSH1 0x60 DUP4 ADD DUP5 PUSH2 0x5296 JUMP JUMPDEST SWAP6 SWAP5 POP POP POP POP POP JUMP JUMPDEST PUSH1 0x0 PUSH1 0xC0 DUP3 ADD SWAP1 POP PUSH2 0x5D80 PUSH1 0x0 DUP4 ADD DUP10 PUSH2 0x59D7 JUMP JUMPDEST PUSH2 0x5D8D PUSH1 0x20 DUP4 ADD DUP9 PUSH2 0x59D7 JUMP JUMPDEST PUSH2 0x5D9A PUSH1 0x40 DUP4 ADD DUP8 PUSH2 0x59D7 JUMP JUMPDEST PUSH2 0x5DA7 PUSH1 0x60 DUP4 ADD DUP7 PUSH2 0x4FE1 JUMP JUMPDEST PUSH2 0x5DB4 PUSH1 0x80 DUP4 ADD DUP6 PUSH2 0x52D2 JUMP JUMPDEST PUSH2 0x5DC1 PUSH1 0xA0 DUP4 ADD DUP5 PUSH2 0x5278 JUMP JUMPDEST SWAP8 SWAP7 POP POP POP POP POP POP POP JUMP JUMPDEST PUSH1 0x0 PUSH1 0xC0 DUP3 ADD SWAP1 POP PUSH2 0x5DE1 PUSH1 0x0 DUP4 ADD DUP10 PUSH2 0x59D7 JUMP JUMPDEST PUSH2 0x5DEE PUSH1 0x20 DUP4 ADD DUP9 PUSH2 0x59D7 JUMP JUMPDEST PUSH2 0x5DFB PUSH1 0x40 DUP4 ADD DUP8 PUSH2 0x59D7 JUMP JUMPDEST PUSH2 0x5E08 PUSH1 0x60 DUP4 ADD DUP7 PUSH2 0x4FE1 JUMP JUMPDEST DUP2 DUP2 SUB PUSH1 0x80 DUP4 ADD MSTORE PUSH2 0x5E1A DUP2 DUP6 PUSH2 0x531A JUMP JUMPDEST SWAP1 POP PUSH2 0x5E29 PUSH1 0xA0 DUP4 ADD DUP5 PUSH2 0x5278 JUMP JUMPDEST SWAP8 SWAP7 POP POP POP POP POP POP POP JUMP JUMPDEST PUSH1 0x0 PUSH1 0xA0 DUP3 ADD SWAP1 POP PUSH2 0x5E49 PUSH1 0x0 DUP4 ADD DUP8 PUSH2 0x59D7 JUMP JUMPDEST PUSH2 0x5E56 PUSH1 0x20 DUP4 ADD DUP7 PUSH2 0x59D7 JUMP JUMPDEST PUSH2 0x5E63 PUSH1 0x40 DUP4 ADD DUP6 PUSH2 0x59D7 JUMP JUMPDEST PUSH2 0x5E70 PUSH1 0x60 DUP4 ADD DUP5 PUSH2 0x4FE1 JUMP JUMPDEST DUP2 DUP2 SUB PUSH1 0x80 DUP4 ADD MSTORE PUSH2 0x5E81 DUP2 PUSH2 0x5399 JUMP JUMPDEST SWAP1 POP SWAP6 SWAP5 POP POP POP POP POP JUMP JUMPDEST PUSH1 0x0 PUSH1 0xA0 DUP3 ADD SWAP1 POP PUSH2 0x5EA1 PUSH1 0x0 DUP4 ADD DUP8 PUSH2 0x59D7 JUMP JUMPDEST PUSH2 0x5EAE PUSH1 0x20 DUP4 ADD DUP7 PUSH2 0x59D7 JUMP JUMPDEST PUSH2 0x5EBB PUSH1 0x40 DUP4 ADD DUP6 PUSH2 0x59D7 JUMP JUMPDEST PUSH2 0x5EC8 PUSH1 0x60 DUP4 ADD DUP5 PUSH2 0x4FE1 JUMP JUMPDEST DUP2 DUP2 SUB PUSH1 0x80 DUP4 ADD MSTORE PUSH2 0x5ED9 DUP2 PUSH2 0x53DF JUMP JUMPDEST SWAP1 POP SWAP6 SWAP5 POP POP POP POP POP JUMP JUMPDEST PUSH1 0x0 PUSH2 0x5EEE PUSH2 0x5EFF JUMP JUMPDEST SWAP1 POP PUSH2 0x5EFA DUP3 DUP3 PUSH2 0x6359 JUMP JUMPDEST SWAP2 SWAP1 POP JUMP JUMPDEST PUSH1 0x0 PUSH1 0x40 MLOAD SWAP1 POP SWAP1 JUMP JUMPDEST PUSH1 0x0 PUSH8 0xFFFFFFFFFFFFFFFF DUP3 GT ISZERO PUSH2 0x5F24 JUMPI PUSH2 0x5F23 PUSH2 0x64BE JUMP JUMPDEST JUMPDEST PUSH1 0x20 DUP3 MUL SWAP1 POP PUSH1 0x20 DUP2 ADD SWAP1 POP SWAP2 SWAP1 POP JUMP JUMPDEST PUSH1 0x0 PUSH8 0xFFFFFFFFFFFFFFFF DUP3 GT ISZERO PUSH2 0x5F50 JUMPI PUSH2 0x5F4F PUSH2 0x64BE JUMP JUMPDEST JUMPDEST PUSH1 0x20 DUP3 MUL SWAP1 POP PUSH1 0x20 DUP2 ADD SWAP1 POP SWAP2 SWAP1 POP JUMP JUMPDEST PUSH1 0x0 PUSH8 0xFFFFFFFFFFFFFFFF DUP3 GT ISZERO PUSH2 0x5F7C JUMPI PUSH2 0x5F7B PUSH2 0x64BE JUMP JUMPDEST JUMPDEST PUSH1 0x20 DUP3 MUL SWAP1 POP PUSH1 0x20 DUP2 ADD SWAP1 POP SWAP2 SWAP1 POP JUMP JUMPDEST PUSH1 0x0 PUSH8 0xFFFFFFFFFFFFFFFF DUP3 GT ISZERO PUSH2 0x5FA8 JUMPI PUSH2 0x5FA7 PUSH2 0x64BE JUMP JUMPDEST JUMPDEST PUSH2 0x5FB1 DUP3 PUSH2 0x6510 JUMP JUMPDEST SWAP1 POP PUSH1 0x20 DUP2 ADD SWAP1 POP SWAP2 SWAP1 POP JUMP JUMPDEST PUSH1 0x0 DUP2 SWAP1 POP PUSH1 0x20 DUP3 ADD SWAP1 POP SWAP2 SWAP1 POP JUMP JUMPDEST PUSH1 0x0 DUP2 SWAP1 POP PUSH1 0x20 DUP3 ADD SWAP1 POP SWAP2 SWAP1 POP JUMP JUMPDEST PUSH1 0x0 DUP2 SWAP1 POP PUSH1 0x20 DUP3 ADD SWAP1 POP SWAP2 SWAP1 POP JUMP JUMPDEST PUSH1 0x0 DUP2 SWAP1 POP PUSH1 0x20 DUP3 ADD SWAP1 POP SWAP2 SWAP1 POP JUMP JUMPDEST PUSH1 0x0 DUP2 SWAP1 POP PUSH1 0x20 DUP3 ADD SWAP1 POP SWAP2 SWAP1 POP JUMP JUMPDEST PUSH1 0x0 DUP2 MLOAD SWAP1 POP SWAP2 SWAP1 POP JUMP JUMPDEST PUSH1 0x0 DUP2 MLOAD SWAP1 POP SWAP2 SWAP1 POP JUMP JUMPDEST PUSH1 0x0 DUP2 MLOAD SWAP1 POP SWAP2 SWAP1 POP JUMP JUMPDEST PUSH1 0x0 DUP2 MLOAD SWAP1 POP SWAP2 SWAP1 POP JUMP JUMPDEST PUSH1 0x0 DUP2 MLOAD SWAP1 POP SWAP2 SWAP1 POP JUMP JUMPDEST PUSH1 0x0 DUP2 MLOAD SWAP1 POP SWAP2 SWAP1 POP JUMP JUMPDEST PUSH1 0x0 PUSH1 0x20 DUP3 ADD SWAP1 POP SWAP2 SWAP1 POP JUMP JUMPDEST PUSH1 0x0 PUSH1 0x20 DUP3 ADD SWAP1 POP SWAP2 SWAP1 POP JUMP JUMPDEST PUSH1 0x0 PUSH1 0x20 DUP3 ADD SWAP1 POP SWAP2 SWAP1 POP JUMP JUMPDEST PUSH1 0x0 PUSH1 0x20 DUP3 ADD SWAP1 POP SWAP2 SWAP1 POP JUMP JUMPDEST PUSH1 0x0 PUSH1 0x20 DUP3 ADD SWAP1 POP SWAP2 SWAP1 POP JUMP JUMPDEST PUSH1 0x0 DUP3 DUP3 MSTORE PUSH1 0x20 DUP3 ADD SWAP1 POP SWAP3 SWAP2 POP POP JUMP JUMPDEST PUSH1 0x0 DUP3 DUP3 MSTORE PUSH1 0x20 DUP3 ADD SWAP1 POP SWAP3 SWAP2 POP POP JUMP JUMPDEST PUSH1 0x0 DUP3 DUP3 MSTORE PUSH1 0x20 DUP3 ADD SWAP1 POP SWAP3 SWAP2 POP POP JUMP JUMPDEST PUSH1 0x0 DUP3 DUP3 MSTORE PUSH1 0x20 DUP3 ADD SWAP1 POP SWAP3 SWAP2 POP POP JUMP JUMPDEST PUSH1 0x0 DUP3 DUP3 MSTORE PUSH1 0x20 DUP3 ADD SWAP1 POP SWAP3 SWAP2 POP POP JUMP JUMPDEST PUSH1 0x0 DUP3 DUP3 MSTORE PUSH1 0x20 DUP3 ADD SWAP1 POP SWAP3 SWAP2 POP POP JUMP JUMPDEST PUSH1 0x0 DUP3 DUP3 MSTORE PUSH1 0x20 DUP3 ADD SWAP1 POP SWAP3 SWAP2 POP POP JUMP JUMPDEST PUSH1 0x0 DUP3 DUP3 MSTORE PUSH1 0x20 DUP3 ADD SWAP1 POP SWAP3 SWAP2 POP POP JUMP JUMPDEST PUSH1 0x0 PUSH2 0x6124 DUP3 PUSH2 0x62A5 JUMP JUMPDEST SWAP2 POP PUSH2 0x612F DUP4 PUSH2 0x62A5 JUMP JUMPDEST SWAP3 POP DUP3 PUSH32 0xFFFFFFFFFFFFFFFFFFFFFFFFFFFFFFFFFFFFFFFFFFFFFFFFFFFFFFFFFFFFFFFF SUB DUP3 GT ISZERO PUSH2 0x6164 JUMPI PUSH2 0x6163 PUSH2 0x63D3 JUMP JUMPDEST JUMPDEST DUP3 DUP3 ADD SWAP1 POP SWAP3 SWAP2 POP POP JUMP JUMPDEST PUSH1 0x0 PUSH2 0x617A DUP3 PUSH2 0x62A5 JUMP JUMPDEST SWAP2 POP PUSH2 0x6185 DUP4 PUSH2 0x62A5 JUMP JUMPDEST SWAP3 POP DUP3 PUSH2 0x6195 JUMPI PUSH2 0x6194 PUSH2 0x6402 JUMP JUMPDEST JUMPDEST DUP3 DUP3 DIV SWAP1 POP SWAP3 SWAP2 POP POP JUMP JUMPDEST PUSH1 0x0 PUSH2 0x61AB DUP3 PUSH2 0x62A5 JUMP JUMPDEST SWAP2 POP PUSH2 0x61B6 DUP4 PUSH2 0x62A5 JUMP JUMPDEST SWAP3 POP DUP2 PUSH32 0xFFFFFFFFFFFFFFFFFFFFFFFFFFFFFFFFFFFFFFFFFFFFFFFFFFFFFFFFFFFFFFFF DIV DUP4 GT DUP3 ISZERO ISZERO AND ISZERO PUSH2 0x61EF JUMPI PUSH2 0x61EE PUSH2 0x63D3 JUMP JUMPDEST JUMPDEST DUP3 DUP3 MUL SWAP1 POP SWAP3 SWAP2 POP POP JUMP JUMPDEST PUSH1 0x0 PUSH2 0x6205 DUP3 PUSH2 0x62A5 JUMP JUMPDEST SWAP2 POP PUSH2 0x6210 DUP4 PUSH2 0x62A5 JUMP JUMPDEST SWAP3 POP DUP3 DUP3 LT ISZERO PUSH2 0x6223 JUMPI PUSH2 0x6222 PUSH2 0x63D3 JUMP JUMPDEST JUMPDEST DUP3 DUP3 SUB SWAP1 POP SWAP3 SWAP2 POP POP JUMP JUMPDEST PUSH1 0x0 PUSH2 0x6239 DUP3 PUSH2 0x6285 JUMP JUMPDEST SWAP1 POP SWAP2 SWAP1 POP JUMP JUMPDEST PUSH1 0x0 DUP2 ISZERO ISZERO SWAP1 POP SWAP2 SWAP1 POP JUMP JUMPDEST PUSH1 0x0 DUP2 SWAP1 POP PUSH2 0x625A DUP3 PUSH2 0x6666 JUMP JUMPDEST SWAP2 SWAP1 POP JUMP JUMPDEST PUSH1 0x0 DUP2 SWAP1 POP PUSH2 0x626D DUP3 PUSH2 0x667A JUMP JUMPDEST SWAP2 SWAP1 POP JUMP JUMPDEST PUSH1 0x0 DUP2 SWAP1 POP PUSH2 0x6280 DUP3 PUSH2 0x668E JUMP JUMPDEST SWAP2 SWAP1 POP JUMP JUMPDEST PUSH1 0x0 PUSH20 0xFFFFFFFFFFFFFFFFFFFFFFFFFFFFFFFFFFFFFFFF DUP3 AND SWAP1 POP SWAP2 SWAP1 POP JUMP JUMPDEST PUSH1 0x0 DUP2 SWAP1 POP SWAP2 SWAP1 POP JUMP JUMPDEST PUSH1 0x0 PUSH2 0x62BA DUP3 PUSH2 0x624C JUMP JUMPDEST SWAP1 POP SWAP2 SWAP1 POP JUMP JUMPDEST PUSH1 0x0 PUSH2 0x62CC DUP3 PUSH2 0x625F JUMP JUMPDEST SWAP1 POP SWAP2 SWAP1 POP JUMP JUMPDEST PUSH1 0x0 PUSH2 0x62DE DUP3 PUSH2 0x6272 JUMP JUMPDEST SWAP1 POP SWAP2 SWAP1 POP JUMP JUMPDEST DUP3 DUP2 DUP4 CALLDATACOPY PUSH1 0x0 DUP4 DUP4 ADD MSTORE POP POP POP JUMP JUMPDEST PUSH1 0x0 JUMPDEST DUP4 DUP2 LT ISZERO PUSH2 0x6312 JUMPI DUP1 DUP3 ADD MLOAD DUP2 DUP5 ADD MSTORE PUSH1 0x20 DUP2 ADD SWAP1 POP PUSH2 0x62F7 JUMP JUMPDEST DUP4 DUP2 GT ISZERO PUSH2 0x6321 JUMPI PUSH1 0x0 DUP5 DUP5 ADD MSTORE JUMPDEST POP POP POP POP JUMP JUMPDEST PUSH1 0x0 PUSH1 0x2 DUP3 DIV SWAP1 POP PUSH1 0x1 DUP3 AND DUP1 PUSH2 0x633F JUMPI PUSH1 0x7F DUP3 AND SWAP2 POP JUMPDEST PUSH1 0x20 DUP3 LT DUP2 EQ ISZERO PUSH2 0x6353 JUMPI PUSH2 0x6352 PUSH2 0x6460 JUMP JUMPDEST JUMPDEST POP SWAP2 SWAP1 POP JUMP JUMPDEST PUSH2 0x6362 DUP3 PUSH2 0x6510 JUMP JUMPDEST DUP2 ADD DUP2 DUP2 LT PUSH8 0xFFFFFFFFFFFFFFFF DUP3 GT OR ISZERO PUSH2 0x6381 JUMPI PUSH2 0x6380 PUSH2 0x64BE JUMP JUMPDEST JUMPDEST DUP1 PUSH1 0x40 MSTORE POP POP POP JUMP JUMPDEST PUSH1 0x0 PUSH2 0x6395 DUP3 PUSH2 0x62A5 JUMP JUMPDEST SWAP2 POP PUSH32 0xFFFFFFFFFFFFFFFFFFFFFFFFFFFFFFFFFFFFFFFFFFFFFFFFFFFFFFFFFFFFFFFF DUP3 EQ ISZERO PUSH2 0x63C8 JUMPI PUSH2 0x63C7 PUSH2 0x63D3 JUMP JUMPDEST JUMPDEST PUSH1 0x1 DUP3 ADD SWAP1 POP SWAP2 SWAP1 POP JUMP JUMPDEST PUSH32 0x4E487B7100000000000000000000000000000000000000000000000000000000 PUSH1 0x0 MSTORE PUSH1 0x11 PUSH1 0x4 MSTORE PUSH1 0x24 PUSH1 0x0 REVERT JUMPDEST PUSH32 0x4E487B7100000000000000000000000000000000000000000000000000000000 PUSH1 0x0 MSTORE PUSH1 0x12 PUSH1 0x4 MSTORE PUSH1 0x24 PUSH1 0x0 REVERT JUMPDEST PUSH32 0x4E487B7100000000000000000000000000000000000000000000000000000000 PUSH1 0x0 MSTORE PUSH1 0x21 PUSH1 0x4 MSTORE PUSH1 0x24 PUSH1 0x0 REVERT JUMPDEST PUSH32 0x4E487B7100000000000000000000000000000000000000000000000000000000 PUSH1 0x0 MSTORE PUSH1 0x22 PUSH1 0x4 MSTORE PUSH1 0x24 PUSH1 0x0 REVERT JUMPDEST PUSH32 0x4E487B7100000000000000000000000000000000000000000000000000000000 PUSH1 0x0 MSTORE PUSH1 0x32 PUSH1 0x4 MSTORE PUSH1 0x24 PUSH1 0x0 REVERT JUMPDEST PUSH32 0x4E487B7100000000000000000000000000000000000000000000000000000000 PUSH1 0x0 MSTORE PUSH1 0x41 PUSH1 0x4 MSTORE PUSH1 0x24 PUSH1 0x0 REVERT JUMPDEST PUSH1 0x0 DUP1 REVERT JUMPDEST PUSH1 0x0 DUP1 REVERT JUMPDEST PUSH1 0x0 DUP1 REVERT JUMPDEST PUSH1 0x0 DUP1 REVERT JUMPDEST PUSH1 0x0 DUP1 REVERT JUMPDEST PUSH1 0x0 DUP1 REVERT JUMPDEST PUSH1 0x0 DUP1 REVERT JUMPDEST PUSH1 0x0 PUSH1 0x1F NOT PUSH1 0x1F DUP4 ADD AND SWAP1 POP SWAP2 SWAP1 POP JUMP JUMPDEST PUSH32 0x7472616E736C61746F7200000000000000000000000000000000000000000000 PUSH1 0x0 DUP3 ADD MSTORE POP JUMP JUMPDEST PUSH32 0x4F6E6C792062757965722063616E2063616C6C20746869732E00000000000000 PUSH1 0x0 DUP3 ADD MSTORE POP JUMP JUMPDEST PUSH32 0x7665726966696572730000000000000000000000000000000000000000000000 PUSH1 0x0 DUP3 ADD MSTORE POP JUMP JUMPDEST PUSH32 0x7473000000000000000000000000000000000000000000000000000000000000 PUSH1 0x0 DUP3 ADD MSTORE POP JUMP JUMPDEST PUSH32 0x7472616E736C61746F7273000000000000000000000000000000000000000000 PUSH1 0x0 DUP3 ADD MSTORE POP JUMP JUMPDEST PUSH32 0x7666000000000000000000000000000000000000000000000000000000000000 PUSH1 0x0 DUP3 ADD MSTORE POP JUMP JUMPDEST PUSH32 0x4F7065726174696F6E457863657074696F6E3A2043616E277420726563656976 PUSH1 0x0 DUP3 ADD MSTORE PUSH32 0x65207461736B0000000000000000000000000000000000000000000000000000 PUSH1 0x20 DUP3 ADD MSTORE POP JUMP JUMPDEST PUSH1 0x6 DUP2 LT PUSH2 0x6677 JUMPI PUSH2 0x6676 PUSH2 0x6431 JUMP JUMPDEST JUMPDEST POP JUMP JUMPDEST PUSH1 0x6 DUP2 LT PUSH2 0x668B JUMPI PUSH2 0x668A PUSH2 0x6431 JUMP JUMPDEST JUMPDEST POP JUMP JUMPDEST PUSH1 0x6 DUP2 LT PUSH2 0x669F JUMPI PUSH2 0x669E PUSH2 0x6431 JUMP JUMPDEST JUMPDEST POP JUMP JUMPDEST PUSH2 0x66AB DUP2 PUSH2 0x622E JUMP JUMPDEST DUP2 EQ PUSH2 0x66B6 JUMPI PUSH1 0x0 DUP1 REVERT JUMPDEST POP JUMP JUMPDEST PUSH2 0x66C2 DUP2 PUSH2 0x6240 JUMP JUMPDEST DUP2 EQ PUSH2 0x66CD JUMPI PUSH1 0x0 DUP1 REVERT JUMPDEST POP JUMP JUMPDEST PUSH1 0x6 DUP2 LT PUSH2 0x66DD JUMPI PUSH1 0x0 DUP1 REVERT JUMPDEST POP JUMP JUMPDEST PUSH1 0x6 DUP2 LT PUSH2 0x66ED JUMPI PUSH1 0x0 DUP1 REVERT JUMPDEST POP JUMP JUMPDEST PUSH1 0x6 DUP2 LT PUSH2 0x66FD JUMPI PUSH1 0x0 DUP1 REVERT JUMPDEST POP JUMP JUMPDEST PUSH2 0x6709 DUP2 PUSH2 0x62A5 JUMP JUMPDEST DUP2 EQ PUSH2 0x6714 JUMPI PUSH1 0x0 DUP1 REVERT JUMPDEST POP JUMP INVALID LOG2 PUSH5 0x6970667358 0x22 SLT KECCAK256 GT EXTCODECOPY DUP6 0xAF DUP13 0x2C 0xAF SWAP7 DUP8 PUSH1 0x1C BASEFEE LOG4 0xD7 PUSH16 0x8F5D0777FE41BA1D33ED9F9AAC11ED35 0xDB PUSH5 0x736F6C6343 STOP ADDMOD SMOD STOP CALLER "
		},
		"gasEstimates": {
			"creation": {
				"codeDepositCost": "5289000",
				"executionCost": "6348",
				"totalCost": "5295348"
			},
			"external": {
				"acceptTrans(uint256,uint256,uint256,address)": "infinite",
				"acceptTrans(uint256,uint256[],uint256,address)": "infinite",
				"acceptVf(uint256,uint256,uint256,address)": "infinite",
				"acceptVf(uint256,uint256[],uint256,address)": "infinite",
				"addProject((uint256,string,string,uint256,string,string,string[],uint256,uint256,bool,bool,uint256,((string,uint256,uint256,uint256,uint256,uint256,string),uint256,string,uint8,uint256)[],uint256,uint256))": "infinite",
				"closeTransAccept(uint256)": "infinite",
				"closeVfAccept(uint256)": "infinite",
				"getCount()": "2570",
				"getProject(uint256)": "infinite",
				"getProjectOne(uint256)": "infinite",
				"getTransNumber(uint256)": "infinite",
				"getTranslators(uint256,uint256)": "infinite",
				"getVerifiers(uint256,uint256)": "infinite",
				"getVfNumber(uint256)": "infinite",
				"isCustomizeState(uint256)": "2990",
				"isFull(uint256,bool)": "infinite",
				"openTransAccept(uint256)": "infinite",
				"openVfAccept(uint256)": "infinite",
				"overTimeTasker(uint256,uint256,bool)": "infinite",
				"updateFileInfo(uint256,uint256,uint256,string,bool)": "infinite",
				"updateFileStateAndTime(uint256,uint256,uint8)": "infinite",
				"updateProject(uint256,(uint256,string,string,uint256,string,string,string[],uint256,uint256,bool,bool,uint256,((string,uint256,uint256,uint256,uint256,uint256,string),uint256,string,uint8,uint256)[],uint256,uint256))": "infinite",
				"updateState(uint256,uint8)": "infinite",
				"updateTaskerState(uint256,uint256,uint256,uint8,bool)": "infinite"
			},
			"internal": {
				"_addCount()": "24369"
			}
		},
		"methodIdentifiers": {
			"acceptTrans(uint256,uint256,uint256,address)": "fe4bfa4a",
			"acceptTrans(uint256,uint256[],uint256,address)": "9ec44abc",
			"acceptVf(uint256,uint256,uint256,address)": "311bcedf",
			"acceptVf(uint256,uint256[],uint256,address)": "a7788567",
			"addProject((uint256,string,string,uint256,string,string,string[],uint256,uint256,bool,bool,uint256,((string,uint256,uint256,uint256,uint256,uint256,string),uint256,string,uint8,uint256)[],uint256,uint256))": "f501aa8e",
			"closeTransAccept(uint256)": "ea60f28c",
			"closeVfAccept(uint256)": "df3a726f",
			"getCount()": "a87d942c",
			"getProject(uint256)": "f0f3f2c8",
			"getProjectOne(uint256)": "25e78e70",
			"getTransNumber(uint256)": "d2fed69c",
			"getTranslators(uint256,uint256)": "84800370",
			"getVerifiers(uint256,uint256)": "be7603c7",
			"getVfNumber(uint256)": "f8626ebb",
			"isCustomizeState(uint256)": "7c34eb85",
			"isFull(uint256,bool)": "8a9a9ff3",
			"openTransAccept(uint256)": "4fb36606",
			"openVfAccept(uint256)": "e6cfdf1f",
			"overTimeTasker(uint256,uint256,bool)": "eef10ae6",
			"updateFileInfo(uint256,uint256,uint256,string,bool)": "ae6008e3",
			"updateFileStateAndTime(uint256,uint256,uint8)": "62583a28",
			"updateProject(uint256,(uint256,string,string,uint256,string,string,string[],uint256,uint256,bool,bool,uint256,((string,uint256,uint256,uint256,uint256,uint256,string),uint256,string,uint8,uint256)[],uint256,uint256))": "a43edcbd",
			"updateState(uint256,uint8)": "ffbafdfe",
			"updateTaskerState(uint256,uint256,uint256,uint8,bool)": "8fa49f84"
		}
	},
	"abi": [
		{
			"inputs": [
				{
					"internalType": "string",
					"name": "",
					"type": "string"
				},
				{
					"internalType": "uint256",
					"name": "",
					"type": "uint256"
				}
			],
			"name": "OperationException",
			"type": "error"
		},
		{
			"anonymous": false,
			"inputs": [
				{
					"indexed": false,
					"internalType": "uint256",
					"name": "",
					"type": "uint256"
				},
				{
					"indexed": false,
					"internalType": "uint256[]",
					"name": "",
					"type": "uint256[]"
				},
				{
					"indexed": false,
					"internalType": "uint256",
					"name": "",
					"type": "uint256"
				},
				{
					"indexed": false,
					"internalType": "address",
					"name": "",
					"type": "address"
				},
				{
					"indexed": false,
					"internalType": "string",
					"name": "",
					"type": "string"
				}
			],
			"name": "acceptTaskEv",
			"type": "event"
		},
		{
			"anonymous": false,
			"inputs": [
				{
					"indexed": false,
					"internalType": "uint256",
					"name": "",
					"type": "uint256"
				},
				{
					"indexed": false,
					"internalType": "uint256",
					"name": "",
					"type": "uint256"
				},
				{
					"indexed": false,
					"internalType": "uint256",
					"name": "",
					"type": "uint256"
				},
				{
					"indexed": false,
					"internalType": "address",
					"name": "",
					"type": "address"
				},
				{
					"indexed": false,
					"internalType": "string",
					"name": "",
					"type": "string"
				}
			],
			"name": "acceptTaskEv",
			"type": "event"
		},
		{
			"anonymous": false,
			"inputs": [
				{
					"indexed": false,
					"internalType": "address",
					"name": "",
					"type": "address"
				},
				{
					"indexed": false,
					"internalType": "uint256",
					"name": "",
					"type": "uint256"
				},
				{
					"components": [
						{
							"internalType": "uint256",
							"name": "releaseTime",
							"type": "uint256"
						},
						{
							"internalType": "string",
							"name": "introduce",
							"type": "string"
						},
						{
							"internalType": "string",
							"name": "need",
							"type": "string"
						},
						{
							"internalType": "uint256",
							"name": "deadline",
							"type": "uint256"
						},
						{
							"internalType": "string",
							"name": "sourceLanguage",
							"type": "string"
						},
						{
							"internalType": "string",
							"name": "goalLanguage",
							"type": "string"
						},
						{
							"internalType": "string[]",
							"name": "preferList",
							"type": "string[]"
						},
						{
							"internalType": "uint256",
							"name": "translationType",
							"type": "uint256"
						},
						{
							"internalType": "uint256",
							"name": "workLoad",
							"type": "uint256"
						},
						{
							"internalType": "bool",
							"name": "isNonDisclosure",
							"type": "bool"
						},
						{
							"internalType": "bool",
							"name": "isCustomize",
							"type": "bool"
						},
						{
							"internalType": "uint256",
							"name": "bounty",
							"type": "uint256"
						},
						{
							"components": [
								{
									"components": [
										{
											"internalType": "string",
											"name": "name",
											"type": "string"
										},
										{
											"internalType": "uint256",
											"name": "size",
											"type": "uint256"
										},
										{
											"internalType": "uint256",
											"name": "videoLength",
											"type": "uint256"
										},
										{
											"internalType": "uint256",
											"name": "Page",
											"type": "uint256"
										},
										{
											"internalType": "uint256",
											"name": "words",
											"type": "uint256"
										},
										{
											"internalType": "uint256",
											"name": "fileType",
											"type": "uint256"
										},
										{
											"internalType": "string",
											"name": "path",
											"type": "string"
										}
									],
									"internalType": "struct LibProject.FileInfo",
									"name": "file",
									"type": "tuple"
								},
								{
									"internalType": "uint256",
									"name": "bounty",
									"type": "uint256"
								},
								{
									"internalType": "string",
									"name": "info",
									"type": "string"
								},
								{
									"internalType": "enum LibProject.FileState",
									"name": "state",
									"type": "uint8"
								},
								{
									"internalType": "uint256",
									"name": "lastUpload",
									"type": "uint256"
								}
							],
							"internalType": "struct LibProject.TaskInfo[]",
							"name": "tasks",
							"type": "tuple[]"
						},
						{
							"internalType": "uint256",
							"name": "maxT",
							"type": "uint256"
						},
						{
							"internalType": "uint256",
							"name": "maxV",
							"type": "uint256"
						}
					],
					"indexed": false,
					"internalType": "struct LibProject.ProParm",
					"name": "",
					"type": "tuple"
				}
			],
			"name": "addProjectEv",
			"type": "event"
		},
		{
			"anonymous": false,
			"inputs": [
				{
					"indexed": false,
					"internalType": "uint256",
					"name": "",
					"type": "uint256"
				},
				{
					"indexed": false,
					"internalType": "uint256",
					"name": "",
					"type": "uint256"
				},
				{
					"indexed": false,
					"internalType": "uint256",
					"name": "",
					"type": "uint256"
				},
				{
					"indexed": false,
					"internalType": "address",
					"name": "",
					"type": "address"
				},
				{
					"indexed": false,
					"internalType": "string",
					"name": "",
					"type": "string"
				},
				{
					"indexed": false,
					"internalType": "bool",
					"name": "",
					"type": "bool"
				}
			],
			"name": "updateFileInfoEv",
			"type": "event"
		},
		{
			"anonymous": false,
			"inputs": [
				{
					"indexed": false,
					"internalType": "uint256",
					"name": "",
					"type": "uint256"
				},
				{
					"indexed": false,
					"internalType": "uint256",
					"name": "",
					"type": "uint256"
				},
				{
					"indexed": false,
					"internalType": "address",
					"name": "",
					"type": "address"
				},
				{
					"indexed": false,
					"internalType": "enum LibProject.FileState",
					"name": "",
					"type": "uint8"
				}
			],
			"name": "updateFileStateAndTimeEv",
			"type": "event"
		},
		{
			"anonymous": false,
			"inputs": [
				{
					"indexed": false,
					"internalType": "uint256",
					"name": "",
					"type": "uint256"
				},
				{
					"indexed": false,
					"internalType": "enum LibProject.ProjectState",
					"name": "",
					"type": "uint8"
				}
			],
			"name": "updateProSateEv",
			"type": "event"
		},
		{
			"anonymous": false,
			"inputs": [
				{
					"indexed": false,
					"internalType": "uint256",
					"name": "",
					"type": "uint256"
				},
				{
					"components": [
						{
							"internalType": "uint256",
							"name": "releaseTime",
							"type": "uint256"
						},
						{
							"internalType": "string",
							"name": "introduce",
							"type": "string"
						},
						{
							"internalType": "string",
							"name": "need",
							"type": "string"
						},
						{
							"internalType": "uint256",
							"name": "deadline",
							"type": "uint256"
						},
						{
							"internalType": "string",
							"name": "sourceLanguage",
							"type": "string"
						},
						{
							"internalType": "string",
							"name": "goalLanguage",
							"type": "string"
						},
						{
							"internalType": "string[]",
							"name": "preferList",
							"type": "string[]"
						},
						{
							"internalType": "uint256",
							"name": "translationType",
							"type": "uint256"
						},
						{
							"internalType": "uint256",
							"name": "workLoad",
							"type": "uint256"
						},
						{
							"internalType": "bool",
							"name": "isNonDisclosure",
							"type": "bool"
						},
						{
							"internalType": "bool",
							"name": "isCustomize",
							"type": "bool"
						},
						{
							"internalType": "uint256",
							"name": "bounty",
							"type": "uint256"
						},
						{
							"components": [
								{
									"components": [
										{
											"internalType": "string",
											"name": "name",
											"type": "string"
										},
										{
											"internalType": "uint256",
											"name": "size",
											"type": "uint256"
										},
										{
											"internalType": "uint256",
											"name": "videoLength",
											"type": "uint256"
										},
										{
											"internalType": "uint256",
											"name": "Page",
											"type": "uint256"
										},
										{
											"internalType": "uint256",
											"name": "words",
											"type": "uint256"
										},
										{
											"internalType": "uint256",
											"name": "fileType",
											"type": "uint256"
										},
										{
											"internalType": "string",
											"name": "path",
											"type": "string"
										}
									],
									"internalType": "struct LibProject.FileInfo",
									"name": "file",
									"type": "tuple"
								},
								{
									"internalType": "uint256",
									"name": "bounty",
									"type": "uint256"
								},
								{
									"internalType": "string",
									"name": "info",
									"type": "string"
								},
								{
									"internalType": "enum LibProject.FileState",
									"name": "state",
									"type": "uint8"
								},
								{
									"internalType": "uint256",
									"name": "lastUpload",
									"type": "uint256"
								}
							],
							"internalType": "struct LibProject.TaskInfo[]",
							"name": "tasks",
							"type": "tuple[]"
						},
						{
							"internalType": "uint256",
							"name": "maxT",
							"type": "uint256"
						},
						{
							"internalType": "uint256",
							"name": "maxV",
							"type": "uint256"
						}
					],
					"indexed": false,
					"internalType": "struct LibProject.ProParm",
					"name": "",
					"type": "tuple"
				}
			],
			"name": "updateProjectEv",
			"type": "event"
		},
		{
			"anonymous": false,
			"inputs": [
				{
					"indexed": false,
					"internalType": "uint256",
					"name": "",
					"type": "uint256"
				},
				{
					"indexed": false,
					"internalType": "uint256",
					"name": "",
					"type": "uint256"
				},
				{
					"indexed": false,
					"internalType": "uint256",
					"name": "",
					"type": "uint256"
				},
				{
					"indexed": false,
					"internalType": "address",
					"name": "",
					"type": "address"
				},
				{
					"indexed": false,
					"internalType": "enum LibProject.TaskerState",
					"name": "",
					"type": "uint8"
				},
				{
					"indexed": false,
					"internalType": "bool",
					"name": "",
					"type": "bool"
				}
			],
			"name": "updateTaskerStateEv",
			"type": "event"
		},
		{
			"anonymous": false,
			"inputs": [
				{
					"indexed": false,
					"internalType": "address",
					"name": "",
					"type": "address"
				},
				{
					"indexed": false,
					"internalType": "uint256",
					"name": "",
					"type": "uint256"
				},
				{
					"indexed": false,
					"internalType": "string",
					"name": "",
					"type": "string"
				},
				{
					"indexed": false,
					"internalType": "bool",
					"name": "",
					"type": "bool"
				}
			],
			"name": "uploadAcceptStateEv",
			"type": "event"
		},
		{
			"inputs": [
				{
					"internalType": "uint256",
					"name": "_index",
					"type": "uint256"
				},
				{
					"internalType": "uint256[]",
					"name": "_fileIndex",
					"type": "uint256[]"
				},
				{
					"internalType": "uint256",
					"name": "_taskerIndex",
					"type": "uint256"
				},
				{
					"internalType": "address",
					"name": "_tasker",
					"type": "address"
				}
			],
			"name": "acceptTrans",
			"outputs": [],
			"stateMutability": "nonpayable",
			"type": "function"
		},
		{
			"inputs": [
				{
					"internalType": "uint256",
					"name": "_index",
					"type": "uint256"
				},
				{
					"internalType": "uint256",
					"name": "_fileIndex",
					"type": "uint256"
				},
				{
					"internalType": "uint256",
					"name": "_taskerIndex",
					"type": "uint256"
				},
				{
					"internalType": "address",
					"name": "_tasker",
					"type": "address"
				}
			],
			"name": "acceptTrans",
			"outputs": [],
			"stateMutability": "nonpayable",
			"type": "function"
		},
		{
			"inputs": [
				{
					"internalType": "uint256",
					"name": "_index",
					"type": "uint256"
				},
				{
					"internalType": "uint256",
					"name": "_fileIndex",
					"type": "uint256"
				},
				{
					"internalType": "uint256",
					"name": "_taskerIndex",
					"type": "uint256"
				},
				{
					"internalType": "address",
					"name": "_tasker",
					"type": "address"
				}
			],
			"name": "acceptVf",
			"outputs": [],
			"stateMutability": "nonpayable",
			"type": "function"
		},
		{
			"inputs": [
				{
					"internalType": "uint256",
					"name": "_index",
					"type": "uint256"
				},
				{
					"internalType": "uint256[]",
					"name": "_fileIndex",
					"type": "uint256[]"
				},
				{
					"internalType": "uint256",
					"name": "_taskerIndex",
					"type": "uint256"
				},
				{
					"internalType": "address",
					"name": "_tasker",
					"type": "address"
				}
			],
			"name": "acceptVf",
			"outputs": [],
			"stateMutability": "nonpayable",
			"type": "function"
		},
		{
			"inputs": [
				{
					"components": [
						{
							"internalType": "uint256",
							"name": "releaseTime",
							"type": "uint256"
						},
						{
							"internalType": "string",
							"name": "introduce",
							"type": "string"
						},
						{
							"internalType": "string",
							"name": "need",
							"type": "string"
						},
						{
							"internalType": "uint256",
							"name": "deadline",
							"type": "uint256"
						},
						{
							"internalType": "string",
							"name": "sourceLanguage",
							"type": "string"
						},
						{
							"internalType": "string",
							"name": "goalLanguage",
							"type": "string"
						},
						{
							"internalType": "string[]",
							"name": "preferList",
							"type": "string[]"
						},
						{
							"internalType": "uint256",
							"name": "translationType",
							"type": "uint256"
						},
						{
							"internalType": "uint256",
							"name": "workLoad",
							"type": "uint256"
						},
						{
							"internalType": "bool",
							"name": "isNonDisclosure",
							"type": "bool"
						},
						{
							"internalType": "bool",
							"name": "isCustomize",
							"type": "bool"
						},
						{
							"internalType": "uint256",
							"name": "bounty",
							"type": "uint256"
						},
						{
							"components": [
								{
									"components": [
										{
											"internalType": "string",
											"name": "name",
											"type": "string"
										},
										{
											"internalType": "uint256",
											"name": "size",
											"type": "uint256"
										},
										{
											"internalType": "uint256",
											"name": "videoLength",
											"type": "uint256"
										},
										{
											"internalType": "uint256",
											"name": "Page",
											"type": "uint256"
										},
										{
											"internalType": "uint256",
											"name": "words",
											"type": "uint256"
										},
										{
											"internalType": "uint256",
											"name": "fileType",
											"type": "uint256"
										},
										{
											"internalType": "string",
											"name": "path",
											"type": "string"
										}
									],
									"internalType": "struct LibProject.FileInfo",
									"name": "file",
									"type": "tuple"
								},
								{
									"internalType": "uint256",
									"name": "bounty",
									"type": "uint256"
								},
								{
									"internalType": "string",
									"name": "info",
									"type": "string"
								},
								{
									"internalType": "enum LibProject.FileState",
									"name": "state",
									"type": "uint8"
								},
								{
									"internalType": "uint256",
									"name": "lastUpload",
									"type": "uint256"
								}
							],
							"internalType": "struct LibProject.TaskInfo[]",
							"name": "tasks",
							"type": "tuple[]"
						},
						{
							"internalType": "uint256",
							"name": "maxT",
							"type": "uint256"
						},
						{
							"internalType": "uint256",
							"name": "maxV",
							"type": "uint256"
						}
					],
					"internalType": "struct LibProject.ProParm",
					"name": "_t",
					"type": "tuple"
				}
			],
			"name": "addProject",
			"outputs": [
				{
					"internalType": "uint256",
					"name": "",
					"type": "uint256"
				}
			],
			"stateMutability": "nonpayable",
			"type": "function"
		},
		{
			"inputs": [
				{
					"internalType": "uint256",
					"name": "_index",
					"type": "uint256"
				}
			],
			"name": "closeTransAccept",
			"outputs": [],
			"stateMutability": "nonpayable",
			"type": "function"
		},
		{
			"inputs": [
				{
					"internalType": "uint256",
					"name": "_index",
					"type": "uint256"
				}
			],
			"name": "closeVfAccept",
			"outputs": [],
			"stateMutability": "nonpayable",
			"type": "function"
		},
		{
			"inputs": [],
			"name": "getCount",
			"outputs": [
				{
					"internalType": "uint256",
					"name": "",
					"type": "uint256"
				}
			],
			"stateMutability": "view",
			"type": "function"
		},
		{
			"inputs": [
				{
					"internalType": "uint256",
					"name": "_index",
					"type": "uint256"
				}
			],
			"name": "getProject",
			"outputs": [
				{
					"components": [
						{
							"internalType": "address",
							"name": "buyer",
							"type": "address"
						},
						{
							"internalType": "uint256",
							"name": "releaseTime",
							"type": "uint256"
						},
						{
							"internalType": "string",
							"name": "introduce",
							"type": "string"
						},
						{
							"internalType": "string",
							"name": "need",
							"type": "string"
						},
						{
							"internalType": "uint256",
							"name": "deadline",
							"type": "uint256"
						},
						{
							"internalType": "string",
							"name": "sourceLanguage",
							"type": "string"
						},
						{
							"internalType": "string",
							"name": "goalLanguage",
							"type": "string"
						},
						{
							"internalType": "string[]",
							"name": "preferList",
							"type": "string[]"
						},
						{
							"internalType": "uint256",
							"name": "translationType",
							"type": "uint256"
						},
						{
							"internalType": "uint256",
							"name": "workLoad",
							"type": "uint256"
						},
						{
							"internalType": "bool",
							"name": "isNonDisclosure",
							"type": "bool"
						},
						{
							"internalType": "bool",
							"name": "isCustomize",
							"type": "bool"
						},
						{
							"internalType": "uint256",
							"name": "bounty",
							"type": "uint256"
						},
						{
							"components": [
								{
									"components": [
										{
											"internalType": "string",
											"name": "name",
											"type": "string"
										},
										{
											"internalType": "uint256",
											"name": "size",
											"type": "uint256"
										},
										{
											"internalType": "uint256",
											"name": "videoLength",
											"type": "uint256"
										},
										{
											"internalType": "uint256",
											"name": "Page",
											"type": "uint256"
										},
										{
											"internalType": "uint256",
											"name": "words",
											"type": "uint256"
										},
										{
											"internalType": "uint256",
											"name": "fileType",
											"type": "uint256"
										},
										{
											"internalType": "string",
											"name": "path",
											"type": "string"
										}
									],
									"internalType": "struct LibProject.FileInfo",
									"name": "file",
									"type": "tuple"
								},
								{
									"internalType": "uint256",
									"name": "bounty",
									"type": "uint256"
								},
								{
									"internalType": "string",
									"name": "info",
									"type": "string"
								},
								{
									"internalType": "enum LibProject.FileState",
									"name": "state",
									"type": "uint8"
								},
								{
									"internalType": "uint256",
									"name": "lastUpload",
									"type": "uint256"
								}
							],
							"internalType": "struct LibProject.TaskInfo[]",
							"name": "tasks",
							"type": "tuple[]"
						},
						{
							"components": [
								{
									"internalType": "address",
									"name": "taskerAddress",
									"type": "address"
								},
								{
									"internalType": "uint256[]",
									"name": "taskIndex",
									"type": "uint256[]"
								},
								{
									"internalType": "enum LibProject.TaskerState[]",
									"name": "states",
									"type": "uint8[]"
								},
								{
									"internalType": "string[]",
									"name": "files",
									"type": "string[]"
								},
								{
									"internalType": "uint256",
									"name": "bounty",
									"type": "uint256"
								}
							],
							"internalType": "struct LibProject.Tasker[]",
							"name": "translators",
							"type": "tuple[]"
						},
						{
							"components": [
								{
									"internalType": "address",
									"name": "taskerAddress",
									"type": "address"
								},
								{
									"internalType": "uint256[]",
									"name": "taskIndex",
									"type": "uint256[]"
								},
								{
									"internalType": "enum LibProject.TaskerState[]",
									"name": "states",
									"type": "uint8[]"
								},
								{
									"internalType": "string[]",
									"name": "files",
									"type": "string[]"
								},
								{
									"internalType": "uint256",
									"name": "bounty",
									"type": "uint256"
								}
							],
							"internalType": "struct LibProject.Tasker[]",
							"name": "verifiers",
							"type": "tuple[]"
						},
						{
							"internalType": "uint256",
							"name": "maxT",
							"type": "uint256"
						},
						{
							"internalType": "uint256",
							"name": "maxV",
							"type": "uint256"
						},
						{
							"internalType": "bool",
							"name": "isTransActive",
							"type": "bool"
						},
						{
							"internalType": "bool",
							"name": "isVerActive",
							"type": "bool"
						},
						{
							"internalType": "enum LibProject.ProjectState",
							"name": "state",
							"type": "uint8"
						}
					],
					"internalType": "struct LibProject.TranslationPro",
					"name": "",
					"type": "tuple"
				}
			],
			"stateMutability": "view",
			"type": "function"
		},
		{
			"inputs": [
				{
					"internalType": "uint256",
					"name": "_index",
					"type": "uint256"
				}
			],
			"name": "getProjectOne",
			"outputs": [
				{
					"components": [
						{
							"internalType": "address",
							"name": "buyer",
							"type": "address"
						},
						{
							"internalType": "uint256",
							"name": "releaseTime",
							"type": "uint256"
						},
						{
							"internalType": "string",
							"name": "introduce",
							"type": "string"
						},
						{
							"internalType": "string",
							"name": "need",
							"type": "string"
						},
						{
							"internalType": "uint256",
							"name": "deadline",
							"type": "uint256"
						},
						{
							"internalType": "string",
							"name": "sourceLanguage",
							"type": "string"
						},
						{
							"internalType": "string",
							"name": "goalLanguage",
							"type": "string"
						},
						{
							"internalType": "string[]",
							"name": "preferList",
							"type": "string[]"
						},
						{
							"internalType": "uint256",
							"name": "translationType",
							"type": "uint256"
						},
						{
							"internalType": "uint256",
							"name": "workLoad",
							"type": "uint256"
						},
						{
							"internalType": "bool",
							"name": "isNonDisclosure",
							"type": "bool"
						},
						{
							"internalType": "bool",
							"name": "isCustomize",
							"type": "bool"
						},
						{
							"internalType": "uint256",
							"name": "bounty",
							"type": "uint256"
						},
						{
							"components": [
								{
									"components": [
										{
											"internalType": "string",
											"name": "name",
											"type": "string"
										},
										{
											"internalType": "uint256",
											"name": "size",
											"type": "uint256"
										},
										{
											"internalType": "uint256",
											"name": "videoLength",
											"type": "uint256"
										},
										{
											"internalType": "uint256",
											"name": "Page",
											"type": "uint256"
										},
										{
											"internalType": "uint256",
											"name": "words",
											"type": "uint256"
										},
										{
											"internalType": "uint256",
											"name": "fileType",
											"type": "uint256"
										},
										{
											"internalType": "string",
											"name": "path",
											"type": "string"
										}
									],
									"internalType": "struct LibProject.FileInfo",
									"name": "file",
									"type": "tuple"
								},
								{
									"internalType": "uint256",
									"name": "bounty",
									"type": "uint256"
								},
								{
									"internalType": "string",
									"name": "info",
									"type": "string"
								},
								{
									"internalType": "enum LibProject.FileState",
									"name": "state",
									"type": "uint8"
								},
								{
									"internalType": "uint256",
									"name": "lastUpload",
									"type": "uint256"
								}
							],
							"internalType": "struct LibProject.TaskInfo[]",
							"name": "tasks",
							"type": "tuple[]"
						},
						{
							"components": [
								{
									"internalType": "address",
									"name": "taskerAddress",
									"type": "address"
								},
								{
									"internalType": "uint256[]",
									"name": "taskIndex",
									"type": "uint256[]"
								},
								{
									"internalType": "enum LibProject.TaskerState[]",
									"name": "states",
									"type": "uint8[]"
								},
								{
									"internalType": "string[]",
									"name": "files",
									"type": "string[]"
								},
								{
									"internalType": "uint256",
									"name": "bounty",
									"type": "uint256"
								}
							],
							"internalType": "struct LibProject.Tasker[]",
							"name": "translators",
							"type": "tuple[]"
						},
						{
							"components": [
								{
									"internalType": "address",
									"name": "taskerAddress",
									"type": "address"
								},
								{
									"internalType": "uint256[]",
									"name": "taskIndex",
									"type": "uint256[]"
								},
								{
									"internalType": "enum LibProject.TaskerState[]",
									"name": "states",
									"type": "uint8[]"
								},
								{
									"internalType": "string[]",
									"name": "files",
									"type": "string[]"
								},
								{
									"internalType": "uint256",
									"name": "bounty",
									"type": "uint256"
								}
							],
							"internalType": "struct LibProject.Tasker[]",
							"name": "verifiers",
							"type": "tuple[]"
						},
						{
							"internalType": "uint256",
							"name": "maxT",
							"type": "uint256"
						},
						{
							"internalType": "uint256",
							"name": "maxV",
							"type": "uint256"
						},
						{
							"internalType": "bool",
							"name": "isTransActive",
							"type": "bool"
						},
						{
							"internalType": "bool",
							"name": "isVerActive",
							"type": "bool"
						},
						{
							"internalType": "enum LibProject.ProjectState",
							"name": "state",
							"type": "uint8"
						}
					],
					"internalType": "struct LibProject.TranslationPro",
					"name": "",
					"type": "tuple"
				}
			],
			"stateMutability": "view",
			"type": "function"
		},
		{
			"inputs": [
				{
					"internalType": "uint256",
					"name": "_index",
					"type": "uint256"
				}
			],
			"name": "getTransNumber",
			"outputs": [
				{
					"internalType": "uint256",
					"name": "",
					"type": "uint256"
				}
			],
			"stateMutability": "view",
			"type": "function"
		},
		{
			"inputs": [
				{
					"internalType": "uint256",
					"name": "_index",
					"type": "uint256"
				},
				{
					"internalType": "uint256",
					"name": "_taskerIndex",
					"type": "uint256"
				}
			],
			"name": "getTranslators",
			"outputs": [
				{
					"components": [
						{
							"internalType": "address",
							"name": "taskerAddress",
							"type": "address"
						},
						{
							"internalType": "uint256[]",
							"name": "taskIndex",
							"type": "uint256[]"
						},
						{
							"internalType": "enum LibProject.TaskerState[]",
							"name": "states",
							"type": "uint8[]"
						},
						{
							"internalType": "string[]",
							"name": "files",
							"type": "string[]"
						},
						{
							"internalType": "uint256",
							"name": "bounty",
							"type": "uint256"
						}
					],
					"internalType": "struct LibProject.Tasker",
					"name": "",
					"type": "tuple"
				}
			],
			"stateMutability": "view",
			"type": "function"
		},
		{
			"inputs": [
				{
					"internalType": "uint256",
					"name": "_index",
					"type": "uint256"
				},
				{
					"internalType": "uint256",
					"name": "_taskerIndex",
					"type": "uint256"
				}
			],
			"name": "getVerifiers",
			"outputs": [
				{
					"components": [
						{
							"internalType": "address",
							"name": "taskerAddress",
							"type": "address"
						},
						{
							"internalType": "uint256[]",
							"name": "taskIndex",
							"type": "uint256[]"
						},
						{
							"internalType": "enum LibProject.TaskerState[]",
							"name": "states",
							"type": "uint8[]"
						},
						{
							"internalType": "string[]",
							"name": "files",
							"type": "string[]"
						},
						{
							"internalType": "uint256",
							"name": "bounty",
							"type": "uint256"
						}
					],
					"internalType": "struct LibProject.Tasker",
					"name": "",
					"type": "tuple"
				}
			],
			"stateMutability": "view",
			"type": "function"
		},
		{
			"inputs": [
				{
					"internalType": "uint256",
					"name": "_index",
					"type": "uint256"
				}
			],
			"name": "getVfNumber",
			"outputs": [
				{
					"internalType": "uint256",
					"name": "",
					"type": "uint256"
				}
			],
			"stateMutability": "view",
			"type": "function"
		},
		{
			"inputs": [
				{
					"internalType": "uint256",
					"name": "_index",
					"type": "uint256"
				}
			],
			"name": "isCustomizeState",
			"outputs": [
				{
					"internalType": "bool",
					"name": "",
					"type": "bool"
				}
			],
			"stateMutability": "view",
			"type": "function"
		},
		{
			"inputs": [
				{
					"internalType": "uint256",
					"name": "_index",
					"type": "uint256"
				},
				{
					"internalType": "bool",
					"name": "_isTrans",
					"type": "bool"
				}
			],
			"name": "isFull",
			"outputs": [
				{
					"internalType": "bool",
					"name": "",
					"type": "bool"
				}
			],
			"stateMutability": "view",
			"type": "function"
		},
		{
			"inputs": [
				{
					"internalType": "uint256",
					"name": "_index",
					"type": "uint256"
				}
			],
			"name": "openTransAccept",
			"outputs": [],
			"stateMutability": "nonpayable",
			"type": "function"
		},
		{
			"inputs": [
				{
					"internalType": "uint256",
					"name": "_index",
					"type": "uint256"
				}
			],
			"name": "openVfAccept",
			"outputs": [],
			"stateMutability": "nonpayable",
			"type": "function"
		},
		{
			"inputs": [
				{
					"internalType": "uint256",
					"name": "_index",
					"type": "uint256"
				},
				{
					"internalType": "uint256",
					"name": "_taskerIndex",
					"type": "uint256"
				},
				{
					"internalType": "bool",
					"name": "_isTrans",
					"type": "bool"
				}
			],
			"name": "overTimeTasker",
			"outputs": [
				{
					"internalType": "uint256[]",
					"name": "",
					"type": "uint256[]"
				},
				{
					"internalType": "uint256",
					"name": "",
					"type": "uint256"
				}
			],
			"stateMutability": "view",
			"type": "function"
		},
		{
			"inputs": [
				{
					"internalType": "uint256",
					"name": "_index",
					"type": "uint256"
				},
				{
					"internalType": "uint256",
					"name": "_taskerIndex",
					"type": "uint256"
				},
				{
					"internalType": "uint256",
					"name": "_fileIndex",
					"type": "uint256"
				},
				{
					"internalType": "string",
					"name": "_fileInfo",
					"type": "string"
				},
				{
					"internalType": "bool",
					"name": "_isTrans",
					"type": "bool"
				}
			],
			"name": "updateFileInfo",
			"outputs": [],
			"stateMutability": "nonpayable",
			"type": "function"
		},
		{
			"inputs": [
				{
					"internalType": "uint256",
					"name": "_index",
					"type": "uint256"
				},
				{
					"internalType": "uint256",
					"name": "_fileIndex",
					"type": "uint256"
				},
				{
					"internalType": "enum LibProject.FileState",
					"name": "_state",
					"type": "uint8"
				}
			],
			"name": "updateFileStateAndTime",
			"outputs": [],
			"stateMutability": "nonpayable",
			"type": "function"
		},
		{
			"inputs": [
				{
					"internalType": "uint256",
					"name": "_index",
					"type": "uint256"
				},
				{
					"components": [
						{
							"internalType": "uint256",
							"name": "releaseTime",
							"type": "uint256"
						},
						{
							"internalType": "string",
							"name": "introduce",
							"type": "string"
						},
						{
							"internalType": "string",
							"name": "need",
							"type": "string"
						},
						{
							"internalType": "uint256",
							"name": "deadline",
							"type": "uint256"
						},
						{
							"internalType": "string",
							"name": "sourceLanguage",
							"type": "string"
						},
						{
							"internalType": "string",
							"name": "goalLanguage",
							"type": "string"
						},
						{
							"internalType": "string[]",
							"name": "preferList",
							"type": "string[]"
						},
						{
							"internalType": "uint256",
							"name": "translationType",
							"type": "uint256"
						},
						{
							"internalType": "uint256",
							"name": "workLoad",
							"type": "uint256"
						},
						{
							"internalType": "bool",
							"name": "isNonDisclosure",
							"type": "bool"
						},
						{
							"internalType": "bool",
							"name": "isCustomize",
							"type": "bool"
						},
						{
							"internalType": "uint256",
							"name": "bounty",
							"type": "uint256"
						},
						{
							"components": [
								{
									"components": [
										{
											"internalType": "string",
											"name": "name",
											"type": "string"
										},
										{
											"internalType": "uint256",
											"name": "size",
											"type": "uint256"
										},
										{
											"internalType": "uint256",
											"name": "videoLength",
											"type": "uint256"
										},
										{
											"internalType": "uint256",
											"name": "Page",
											"type": "uint256"
										},
										{
											"internalType": "uint256",
											"name": "words",
											"type": "uint256"
										},
										{
											"internalType": "uint256",
											"name": "fileType",
											"type": "uint256"
										},
										{
											"internalType": "string",
											"name": "path",
											"type": "string"
										}
									],
									"internalType": "struct LibProject.FileInfo",
									"name": "file",
									"type": "tuple"
								},
								{
									"internalType": "uint256",
									"name": "bounty",
									"type": "uint256"
								},
								{
									"internalType": "string",
									"name": "info",
									"type": "string"
								},
								{
									"internalType": "enum LibProject.FileState",
									"name": "state",
									"type": "uint8"
								},
								{
									"internalType": "uint256",
									"name": "lastUpload",
									"type": "uint256"
								}
							],
							"internalType": "struct LibProject.TaskInfo[]",
							"name": "tasks",
							"type": "tuple[]"
						},
						{
							"internalType": "uint256",
							"name": "maxT",
							"type": "uint256"
						},
						{
							"internalType": "uint256",
							"name": "maxV",
							"type": "uint256"
						}
					],
					"internalType": "struct LibProject.ProParm",
					"name": "_t",
					"type": "tuple"
				}
			],
			"name": "updateProject",
			"outputs": [],
			"stateMutability": "nonpayable",
			"type": "function"
		},
		{
			"inputs": [
				{
					"internalType": "uint256",
					"name": "_index",
					"type": "uint256"
				},
				{
					"internalType": "enum LibProject.ProjectState",
					"name": "_state",
					"type": "uint8"
				}
			],
			"name": "updateState",
			"outputs": [],
			"stateMutability": "nonpayable",
			"type": "function"
		},
		{
			"inputs": [
				{
					"internalType": "uint256",
					"name": "_index",
					"type": "uint256"
				},
				{
					"internalType": "uint256",
					"name": "_taskerIndex",
					"type": "uint256"
				},
				{
					"internalType": "uint256",
					"name": "_stateIndex",
					"type": "uint256"
				},
				{
					"internalType": "enum LibProject.TaskerState",
					"name": "_state",
					"type": "uint8"
				},
				{
					"internalType": "bool",
					"name": "_isTrans",
					"type": "bool"
				}
			],
			"name": "updateTaskerState",
			"outputs": [],
			"stateMutability": "nonpayable",
			"type": "function"
		}
	]
}