{
	"data": {
		"bytecode": {
			"linkReferences": {
				"utils/calculateUtils.sol": {
					"CalculateUtils": [
						{
							"length": 20,
							"start": 13141
						},
						{
							"length": 20,
							"start": 13344
						},
						{
							"length": 20,
							"start": 15373
						}
					]
				}
			},
			"object": "6080604052600180546001600160a01b0319167325cb30acd1786e49177429318f26959681f9aabd1790553480156200003757600080fd5b5060405162006a7638038062006a768339810160408190526200005a91620000db565b62000065336200008b565b600580546001600160a01b0319166001600160a01b03929092169190911790556200010d565b600080546001600160a01b038381166001600160a01b0319831681178455604051919092169283917f8be0079c531659141344cd1fd0a4f28419497f9722a3daafe3b4186f6b6457e09190a35050565b600060208284031215620000ee57600080fd5b81516001600160a01b03811681146200010657600080fd5b9392505050565b616959806200011d6000396000f3fe6080604052600436106102c65760003560e01c8063853828b611610177578063ad607c72116100d5578063d2fed69c11610084578063f8626ebb11610061578063f8626ebb146108d3578063fa4c647314610903578063ffcce7761461092357005b8063d2fed69c1461084d578063d3d7bc3b1461087d578063f2fde38b146108b357005b8063bb0c38c0116100b2578063bb0c38c0146107d3578063cf8f4be2146107f3578063d1a1b9991461082057005b8063ad607c7214610766578063b4e068f214610793578063b647eec3146107b357005b80639722f09911610131578063a55af7011161010e578063a55af7011461071e578063a87d942c1461073e578063ac35cd611461075357005b80639722f0991461069e57806397601efb146106d1578063983a12a8146106f157005b80638adc74a51161015f5780638adc74a5146106325780638b3f3a6f146106525780638da5cb5b1461068057005b8063853828b6146105fd5780638a9a9ff31461061257005b8063546677aa1161022457806364a1ed07116101de578063790485f9116101bb578063790485f91461055e5780637c34eb85146105a55780637c35beb7146105dd57005b806364a1ed07146104f95780636e97398214610519578063715018a61461054957005b80635bf608b81161020c5780635bf608b81461046b5780635fed5eb2146104b9578063627a62f3146104e657005b8063546677aa146104035780635b0ef1401461044b57005b8063243634bf116102805780633bd14e131161025d5780633bd14e13146103c85780633edfa229146103e8578063460968dd146103fb57005b8063243634bf146103685780632e1a7d4d1461038857806336d61ae0146103a857005b80631201dfc6116102ae5780631201dfc614610302578063193620e714610322578063229688851461035557005b806309a02f58146102cf5780630ca23438146102e257005b366102cd57005b005b6102cd6102dd366004615eb9565b610969565b3480156102ee57600080fd5b506102cd6102fd366004615c04565b610ab5565b34801561030e57600080fd5b506102cd61031d366004615cec565b610aec565b34801561032e57600080fd5b5061034261033d366004615d1e565b610af8565b6040519081526020015b60405180910390f35b34801561036157600080fd5b5047610342565b34801561037457600080fd5b506102cd610383366004615ddd565b610b25565b34801561039457600080fd5b506102cd6103a3366004615cec565b610c10565b3480156103b457600080fd5b506103426103c3366004615d1e565b610c21565b3480156103d457600080fd5b506102cd6103e3366004615e4f565b610c92565b6102cd6103f6366004615c04565b610e50565b6102cd610ee7565b34801561040f57600080fd5b5061043b61041e366004615cec565b600090815260026020526040902060150154610100900460ff1690565b604051901515815260200161034c565b34801561045757600080fd5b50610342610466366004615d1e565b610fb3565b34801561047757600080fd5b506104a1610486366004615cec565b6000908152600260205260409020546001600160a01b031690565b6040516001600160a01b03909116815260200161034c565b3480156104c557600080fd5b506104d96104d4366004615d1e565b611010565b60405161034c9190616653565b6102cd6104f4366004615d86565b61132a565b34801561050557600080fd5b50610342610514366004615ef6565b61150f565b34801561052557600080fd5b50610342610534366004615cec565b6000908152600260205260409020600b015490565b34801561055557600080fd5b506102cd61154c565b34801561056a57600080fd5b50610342610579366004615d1e565b60008281526002602090815260408083206001600160a01b038516845260100190915290205492915050565b3480156105b157600080fd5b5061043b6105c0366004615cec565b6000908152600260205260409020600a0154610100900460ff1690565b3480156105e957600080fd5b506104d96105f8366004615d1e565b611560565b34801561060957600080fd5b506102cd61186d565b34801561061e57600080fd5b5061043b61062d366004615e96565b61187d565b34801561063e57600080fd5b506102cd61064d366004615cec565b6118c7565b34801561065e57600080fd5b5061067261066d366004615d4a565b611924565b60405161034c9291906163c7565b34801561068c57600080fd5b506000546001600160a01b03166104a1565b3480156106aa57600080fd5b5061043b6106b9366004615cec565b60009081526002602052604090206015015460ff1690565b3480156106dd57600080fd5b506102cd6106ec366004615ef6565b611c5a565b3480156106fd57600080fd5b5061071161070c366004615cec565b611c68565b60405161034c91906163a1565b34801561072a57600080fd5b506102cd610739366004615cec565b611cd7565b34801561074a57600080fd5b50600454610342565b610342610761366004615cb7565b611d2f565b34801561077257600080fd5b50610786610781366004615ef6565b611e81565b60405161034c91906163e9565b34801561079f57600080fd5b5061043b6107ae366004615c04565b611ec2565b3480156107bf57600080fd5b506107116107ce366004615cec565b611f7c565b3480156107df57600080fd5b506102cd6107ee366004615f18565b611fe9565b3480156107ff57600080fd5b5061081361080e366004615cec565b6120b4565b60405161034c91906163b4565b34801561082c57600080fd5b5061084061083b366004615cec565b612365565b60405161034c9190616447565b34801561085957600080fd5b50610342610868366004615cec565b6000908152600260205260409020600d015490565b34801561088957600080fd5b50610342610898366004615c04565b6001600160a01b031660009081526003602052604090205490565b3480156108bf57600080fd5b506102cd6108ce366004615c04565b6123ce565b3480156108df57600080fd5b506103426108ee366004615cec565b6000908152600260205260409020600e015490565b34801561090f57600080fd5b506102cd61091e366004615e4f565b61245b565b34801561092f57600080fd5b5061095c61093e366004615cec565b60009081526002602052604090206015015462010000900460ff1690565b60405161034c91906163f7565b8161097360045490565b8111156109bd5760405163347626dd60e21b815260206004820152601260248201527157726f6e6720696e6465782076616c75652160701b60448201526064015b60405180910390fd5b82336109c882612604565b516001600160a01b031614610a1f5760405162461bcd60e51b815260206004820152600a60248201527f4f6e6c792062757965720000000000000000000000000000000000000000000060448201526064016109b4565b610a298484612d9f565b6000610a3b846101600151601e612de8565b9050610a4f81670de0b6b3a7640000616845565b3414610aa657604080516379d3124b60e01b81526004810191909152600f60448201527f496e636f72726563742076616c7565000000000000000000000000000000000060648201523460248201526084016109b4565b610aae610ee7565b5050505050565b610abd612e07565b6001805473ffffffffffffffffffffffffffffffffffffffff19166001600160a01b0392909216919091179055565b610af581612e61565b50565b60008281526002602090815260408083206001600160a01b0385168452600f019091529020545b92915050565b84610b2f60045490565b811115610b745760405163347626dd60e21b815260206004820152601260248201527157726f6e6720696e6465782076616c75652160701b60448201526064016109b4565b6000610b808786611e81565b9050600781600b811115610b9657610b966168e1565b1115610be55760405163b4644dd960e01b815260206004820152601060248201527f756e61626c6520746f207375626d69740000000000000000000000000000000060448201526064016109b4565b6000610bf48888888888612eb6565b90508015610c0657610c068782612f48565b5050505050505050565b610c18612e07565b610af581613078565b600082610c2d60045490565b811115610c725760405163347626dd60e21b815260206004820152601260248201527157726f6e6720696e6465782076616c75652160701b60448201526064016109b4565b6000610c7e8585613158565b9050610c8a848261337c565b949350505050565b610c9b33611ec2565b610ce857604051630934f2c360e01b815260206004820152601260248201527f4e6f7420486176652050617373204e465421000000000000000000000000000060448201526064016109b4565b81610cf260045490565b811115610d375760405163347626dd60e21b815260206004820152601260248201527157726f6e6720696e6465782076616c75652160701b60448201526064016109b4565b6000838152600260205260409020601501548390610100900460ff16610da05760405163b4644dd960e01b815260206004820152601260248201527f43616e27742072656365697665207461736b000000000000000000000000000060448201526064016109b4565b336000818152600360205260409020548015610dff57604051630934f2c360e01b815260206004820152600f60248201527f756e706169642070656e616c747921000000000000000000000000000000000060448201526064016109b4565b610e0a8686336133ad565b7f8e913351aa76002e572cc432b46556976f6e10285b52f94909124ea8ebd0b7958686336000604051610e4094939291906166ae565b60405180910390a1505050505050565b6001600160a01b038116600090815260036020526040902054610e7b90670de0b6b3a7640000616845565b341115610ed357604080516379d3124b60e01b81526004810191909152601160448201527f76616c756520697320746f6f206869676800000000000000000000000000000060648201523460248201526084016109b4565b610edd8134613839565b610af58134613861565b604051600090309034908381818185875af1925050503d8060008114610f29576040519150601f19603f3d011682016040523d82523d6000602084013e610f2e565b606091505b5050905080610f6d5760405162461bcd60e51b815260206004820152600b60248201526a10d85b1b0819985a5b195960aa1b60448201526064016109b4565b6040805133815230602082015234918101919091527fb37bd6f3ccfce130859d4569dc432409f423a7928e73eb5c5049a94e40f0c648906060015b60405180910390a150565b600082610fbf60045490565b8111156110045760405163347626dd60e21b815260206004820152601260248201527157726f6e6720696e6465782076616c75652160701b60448201526064016109b4565b6000610c7e8585613a10565b61103d604051806060016040528060006001600160a01b0316815260200160608152602001606081525090565b61106a604051806060016040528060006001600160a01b0316815260200160608152602001606081525090565b6001600160a01b0383168082526000858152600260209081526040808320938352600f909301815290829020805483518184028101840190945280845290918301828280156110d857602002820191906000526020600020905b8154815260200190600101908083116110c4575b5050505060208301829052505160009067ffffffffffffffff8111156111005761110061690d565b60405190808252806020026020018201604052801561114657816020015b60408051808201909152600081526060602082015281526020019060019003908161111e5790505b50905060005b82602001515181101561131d5760008681526002602090815260408083206001600160a01b0389168452600f0182528220908501518051600190920192918490811061119a5761119a6168f7565b6020026020010151815260200190815260200160002060000160009054906101000a900460ff168282815181106111d3576111d36168f7565b60200260200101516000019060048111156111f0576111f06168e1565b90816004811115611203576112036168e1565b90525060008681526002602090815260408083206001600160a01b0389168452600f01825282209085015180516001909201929184908110611247576112476168f7565b60200260200101518152602001908152602001600020600101805461126b9061687b565b80601f01602080910402602001604051908101604052809291908181526020018280546112979061687b565b80156112e45780601f106112b9576101008083540402835291602001916112e4565b820191906000526020600020905b8154815290600101906020018083116112c757829003601f168201915b50505050508282815181106112fb576112fb6168f7565b6020026020010151602001819052508080611315906168b0565b91505061114c565b5060408201529392505050565b8461133460045490565b8111156113795760405163347626dd60e21b815260206004820152601260248201527157726f6e6720696e6465782076616c75652160701b60448201526064016109b4565b853361138482612604565b516001600160a01b0316146113db5760405162461bcd60e51b815260206004820152600a60248201527f4f6e6c792062757965720000000000000000000000000000000000000000000060448201526064016109b4565b6000878152600260205260408120600a0154610100900460ff161561140b57611404888761150f565b905061141f565b506000878152600260205260409020600b01545b61142b88888888613b11565b8415610c0657600061144f61144883670de0b6b3a7640000616845565b6046612de8565b9050803410156114aa57604080516379d3124b60e01b81526004810191909152601760448201527f6572726f72203a20496e636f72726563742076616c756500000000000000000060648201523460248201526084016109b4565b6114b2610ee7565b60006114ce6114c984670de0b6b3a7640000616845565b613b3a565b905060006114ec6114e785670de0b6b3a7640000616845565b613b47565b90506114f88a83612f48565b6115028782612f48565b5050505050505050505050565b6000828152600260205260408120600c01805483908110611532576115326168f7565b90600052602060002090600b020160070154905092915050565b611554612e07565b61155e6000613b54565b565b61158d604051806060016040528060006001600160a01b0316815260200160608152602001606081525090565b6115ba604051806060016040528060006001600160a01b0316815260200160608152602001606081525090565b6001600160a01b038316808252600085815260026020908152604080832093835260109093018152908290208054835181840281018401909452808452909183018282801561162857602002820191906000526020600020905b815481526020019060010190808311611614575b5050505060208301829052505160009067ffffffffffffffff8111156116505761165061690d565b60405190808252806020026020018201604052801561169657816020015b60408051808201909152600081526060602082015281526020019060019003908161166e5790505b50905060005b82602001515181101561131d5760008681526002602090815260408083206001600160a01b03891684526010018252822090850151805160019092019291849081106116ea576116ea6168f7565b6020026020010151815260200190815260200160002060000160009054906101000a900460ff16828281518110611723576117236168f7565b6020026020010151600001906004811115611740576117406168e1565b90816004811115611753576117536168e1565b90525060008681526002602090815260408083206001600160a01b0389168452601001825282209085015180516001909201929184908110611797576117976168f7565b6020026020010151815260200190815260200160002060010180546117bb9061687b565b80601f01602080910402602001604051908101604052809291908181526020018280546117e79061687b565b80156118345780601f1061180957610100808354040283529160200191611834565b820191906000526020600020905b81548152906001019060200180831161181757829003601f168201915b505050505082828151811061184b5761184b6168f7565b6020026020010151602001819052508080611865906168b0565b91505061169c565b611875612e07565b61155e613bb1565b600081156118a65750600082815260026020526040902060138101546011909101541115610b1f565b50600082815260026020526040902060148101546012909101541115610b1f565b806118d160045490565b8111156119165760405163347626dd60e21b815260206004820152601260248201527157726f6e6720696e6465782076616c75652160701b60448201526064016109b4565b61191f82613c81565b505050565b6060600060608060008086156119a85760008981526002602090815260408083206001600160a01b038c168452600f018252918290208054835181840281018401909452808452909183018282801561199c57602002820191906000526020600020905b815481526020019060010190808311611988575b50505050509350611a18565b60008981526002602090815260408083206001600160a01b038c16845260100182529182902080548351818402810184019094528084529091830182828015611a1057602002820191906000526020600020905b8154815260200190600101908083116119fc575b505050505093505b60408051808201909152600081526060602082015260005b8551811015611c495760008b81526002602090815260408083206001600160a01b038e168452600f019091528120875160019091019190889084908110611a7957611a796168f7565b602002602001015181526020019081526020016000206040518060400160405290816000820160009054906101000a900460ff166004811115611abe57611abe6168e1565b6004811115611acf57611acf6168e1565b8152602001600182018054611ae39061687b565b80601f0160208091040260200160405190810160405280929190818152602001828054611b0f9061687b565b8015611b5c5780601f10611b3157610100808354040283529160200191611b5c565b820191906000526020600020905b815481529060010190602001808311611b3f57829003601f168201915b505050505081525050915060006004811115611b7a57611b7a6168e1565b82516004811115611b8d57611b8d6168e1565b1415611c3757858181518110611ba557611ba56168f7565b6020026020010151858481518110611bbf57611bbf6168f7565b602090810291909101015282611bd4816168b0565b935050600260008c8152602001908152602001600020600c01868281518110611bff57611bff6168f7565b602002602001015181548110611c1757611c176168f7565b90600052602060002090600b02016007015484611c34919061680b565b93505b80611c41816168b0565b915050611a30565b509299919850909650505050505050565b611c648282613e79565b5050565b600081815260026020908152604091829020600d01805483518184028101840190945280845260609392830182828015611ccb57602002820191906000526020600020905b81546001600160a01b03168152600190910190602001808311611cad575b50505050509050919050565b80611ce160045490565b811115611d265760405163347626dd60e21b815260206004820152601260248201527157726f6e6720696e6465782076616c75652160701b60448201526064016109b4565b61191f82613f0d565b6000611d3a33611ec2565b611d8757604051630934f2c360e01b815260206004820152601260248201527f4e6f7420486176652050617373204e465421000000000000000000000000000060448201526064016109b4565b336000818152600360205260409020548015611de657604051630934f2c360e01b815260206004820152600f60248201527f756e706169642070656e616c747921000000000000000000000000000000000060448201526064016109b4565b611def846141ae565b92506000611e16856101600151670de0b6b3a7640000611e0f9190616845565b601e612de8565b905080341015611e7157604080516379d3124b60e01b81526004810191909152600f60448201527f496e636f72726563742076616c7565000000000000000000000000000000000060648201523460248201526084016109b4565b611e79610ee7565b505050919050565b6000828152600260205260408120600c01805483908110611ea457611ea46168f7565b60009182526020909120600b909102016009015460ff169392505050565b6005546040517f438b63000000000000000000000000000000000000000000000000000000000081526001600160a01b038381166004830152600092839291169063438b63009060240160006040518083038186803b158015611f2457600080fd5b505afa158015611f38573d6000803e3d6000fd5b505050506040513d6000823e601f3d908101601f19168201604052611f609190810190615c1f565b805190915015611f735750600192915050565b50600092915050565b600081815260026020908152604091829020600e01805483518184028101840190945280845260609392830182828015611ccb576020028201919060005260206000209081546001600160a01b03168152600190910190602001808311611cad5750505050509050919050565b82611ff360045490565b8111156120385760405163347626dd60e21b815260206004820152601260248201527157726f6e6720696e6465782076616c75652160701b60448201526064016109b4565b60006120448585611e81565b9050600681600b81111561205a5761205a6168e1565b11156120a95760405163b4644dd960e01b815260206004820152601060248201527f756e61626c6520746f207375626d69740000000000000000000000000000000060448201526064016109b4565b610aae8585856141fd565b606060026000838152602001908152602001600020600c01805480602002602001604051908101604052809291908181526020016000905b8282101561235a57600084815260209020604080516101808101909152600b84029091018054829060a08201908390829082906121289061687b565b80601f01602080910402602001604051908101604052809291908181526020018280546121549061687b565b80156121a15780601f10612176576101008083540402835291602001916121a1565b820191906000526020600020905b81548152906001019060200180831161218457829003601f168201915b5050505050815260200160018201548152602001600282015481526020016003820154815260200160048201548152602001600582015481526020016006820180546121ec9061687b565b80601f01602080910402602001604051908101604052809291908181526020018280546122189061687b565b80156122655780601f1061223a57610100808354040283529160200191612265565b820191906000526020600020905b81548152906001019060200180831161224857829003601f168201915b50505050508152505081526020016007820154815260200160088201805461228c9061687b565b80601f01602080910402602001604051908101604052809291908181526020018280546122b89061687b565b80156123055780601f106122da57610100808354040283529160200191612305565b820191906000526020600020905b8154815290600101906020018083116122e857829003601f168201915b5050509183525050600982015460209091019060ff16600b81111561232c5761232c6168e1565b600b81111561233d5761233d6168e1565b8152602001600a82015481525050815260200190600101906120ec565b505050509050919050565b61236d615670565b8161237760045490565b8111156123bc5760405163347626dd60e21b815260206004820152601260248201527157726f6e6720696e6465782076616c75652160701b60448201526064016109b4565b6123c583612604565b91505b50919050565b6123d6612e07565b6001600160a01b0381166124525760405162461bcd60e51b815260206004820152602660248201527f4f776e61626c653a206e6577206f776e657220697320746865207a65726f206160448201527f646472657373000000000000000000000000000000000000000000000000000060648201526084016109b4565b610af581613b54565b61246433611ec2565b6124b157604051630934f2c360e01b815260206004820152601260248201527f4e6f7420486176652050617373204e465421000000000000000000000000000060448201526064016109b4565b816124bb60045490565b8111156125005760405163347626dd60e21b815260206004820152601260248201527157726f6e6720696e6465782076616c75652160701b60448201526064016109b4565b600083815260026020526040902060150154839060ff166125645760405163b4644dd960e01b815260206004820152601260248201527f43616e27742072656365697665207461736b000000000000000000000000000060448201526064016109b4565b3360008181526003602052604090205480156125c357604051630934f2c360e01b815260206004820152600f60248201527f756e706169642070656e616c747921000000000000000000000000000000000060448201526064016109b4565b6125ce868633614209565b7f8e913351aa76002e572cc432b46556976f6e10285b52f94909124ea8ebd0b7958686336001604051610e4094939291906166ae565b61260c615670565b612614615670565b6000838152600260208181526040832080546001600160a01b031685526001810154858301529286905281905201805461264d9061687b565b80601f01602080910402602001604051908101604052809291908181526020018280546126799061687b565b80156126c65780601f1061269b576101008083540402835291602001916126c6565b820191906000526020600020905b8154815290600101906020018083116126a957829003601f168201915b5050505060408084019290925250600084815260026020522060030180546126ed9061687b565b80601f01602080910402602001604051908101604052809291908181526020018280546127199061687b565b80156127665780601f1061273b57610100808354040283529160200191612766565b820191906000526020600020905b81548152906001019060200180831161274957829003601f168201915b50505050506060820152600083815260026020818152604080842060048101546080870152600581015460a0870152600681015460c0870152938790529181526007909201805482518185028101850190935280835291929091908301828280156127f057602002820191906000526020600020905b8154815260200190600101908083116127dc575b505050505060e0820152600083815260026020818152604083206008810154610100808701919091526009820154610120870152600a82015460ff80821615156101408901529082900481161515610160880152600b83015461018088015260118301546102408801526012830154610260880152601383015461028088015260148301546102a088015260159092015480831615156102c0880152908104821615156102e0870152938790529190526103008301916201000090041660078111156128be576128be6168e1565b908160078111156128d1576128d16168e1565b9052506000838152600260209081526040808320600c0180548251818502810185019093528083529193909284015b82821015612b6e57600084815260209020604080516101808101909152600b84029091018054829060a082019083908290829061293c9061687b565b80601f01602080910402602001604051908101604052809291908181526020018280546129689061687b565b80156129b55780601f1061298a576101008083540402835291602001916129b5565b820191906000526020600020905b81548152906001019060200180831161299857829003601f168201915b505050505081526020016001820154815260200160028201548152602001600382015481526020016004820154815260200160058201548152602001600682018054612a009061687b565b80601f0160208091040260200160405190810160405280929190818152602001828054612a2c9061687b565b8015612a795780601f10612a4e57610100808354040283529160200191612a79565b820191906000526020600020905b815481529060010190602001808311612a5c57829003601f168201915b505050505081525050815260200160078201548152602001600882018054612aa09061687b565b80601f0160208091040260200160405190810160405280929190818152602001828054612acc9061687b565b8015612b195780601f10612aee57610100808354040283529160200191612b19565b820191906000526020600020905b815481529060010190602001808311612afc57829003601f168201915b5050509183525050600982015460209091019060ff16600b811115612b4057612b406168e1565b600b811115612b5157612b516168e1565b8152602001600a8201548152505081526020019060010190612900565b505050506101a08201526000838152600260205260408120600d810154600e9091015490918267ffffffffffffffff811115612bac57612bac61690d565b604051908082528060200260200182016040528015612c0a57816020015b612bf7604051806060016040528060006001600160a01b0316815260200160608152602001606081525090565b815260200190600190039081612bca5790505b50905060008267ffffffffffffffff811115612c2857612c2861690d565b604051908082528060200260200182016040528015612c8657816020015b612c73604051806060016040528060006001600160a01b0316815260200160608152602001606081525090565b815260200190600190039081612c465790505b50905060005b84811015612d07576000888152600260205260409020600d018054612cd7918a9184908110612cbd57612cbd6168f7565b6000918252602090912001546001600160a01b0316611010565b838281518110612ce957612ce96168f7565b60200260200101819052508080612cff906168b0565b915050612c8c565b5060005b83811015612d86576000888152600260205260409020600e018054612d56918a9184908110612d3c57612d3c6168f7565b6000918252602090912001546001600160a01b0316611560565b828281518110612d6857612d686168f7565b60200260200101819052508080612d7e906168b0565b915050612d0b565b5061020085019190915261022084015250909392505050565b612da98282614613565b7f9096640c11bd5636ced741c9725e5ff774b334455c80e15491f15bb3af0bc265338383604051612ddc93929190616272565b60405180910390a15050565b60006064612df68484614839565b612e009190616823565b9392505050565b6000546001600160a01b0316331461155e5760405162461bcd60e51b815260206004820181905260248201527f4f776e61626c653a2063616c6c6572206973206e6f7420746865206f776e657260448201526064016109b4565b60008181526002602052604090819020601501805462ff0000191662060000179055517fdea20a6d822b68d598b7ab4fd45418a7ca7b103f12d300bcc3b56a7b94d9ed3390610fa890839060069033906166e8565b60008215612f2e57612ecb8686338786614845565b6000868152600260205260409020600a0154610100900460ff168015612efc57612ef5878661150f565b9150612f11565b6000878152600260205260409020600b015491505b612f26611e0f83670de0b6b3a7640000616845565b915050612f3f565b612f3b8686866001614a24565b5060005b95945050505050565b80471015612f985760405162461bcd60e51b815260206004820152601e60248201527f5468652062616c616e6365206973206e6f742073756666696369656e742e000060448201526064016109b4565b6000826001600160a01b03168260405160006040518083038185875af1925050503d8060008114612fe5576040519150601f19603f3d011682016040523d82523d6000602084013e612fea565b606091505b50509050806130295760405162461bcd60e51b815260206004820152600b60248201526a10d85b1b0819985a5b195960aa1b60448201526064016109b4565b604080513081526001600160a01b03851660208201529081018390527fb37bd6f3ccfce130859d4569dc432409f423a7928e73eb5c5049a94e40f0c648906060015b60405180910390a1505050565b6001546000906001600160a01b031661309983670de0b6b3a7640000616845565b604051600081818185875af1925050503d80600081146130d5576040519150601f19603f3d011682016040523d82523d6000602084013e6130da565b606091505b50509050806131195760405162461bcd60e51b815260206004820152600b60248201526a10d85b1b0819985a5b195960aa1b60448201526064016109b4565b6040805130815233602082015247918101919091527fb37bd6f3ccfce130859d4569dc432409f423a7928e73eb5c5049a94e40f0c64890606001612ddc565b60006060600061316a85856000611924565b8151919350915061318057600092505050610b1f565b61318f85858460046000614c61565b6000858152600260205260408120600a0154610100900460ff16156132235760005b835181101561321d576131c387612604565b6101a001518482815181106131da576131da6168f7565b6020026020010151815181106131f2576131f26168f7565b60200260200101516020015182613209919061680b565b915080613215816168b0565b9150506131b1565b50613234565b61322c86612604565b610180015190505b600073__$2753dcdd519b03fd573aecec08c92b1fcb$__634f6ca3ce61325984613b3a565b6040518263ffffffff1660e01b815260040161327791815260200190565b60206040518083038186803b15801561328f57600080fd5b505af41580156132a3573d6000803e3d6000fd5b505050506040513d601f19601f820116820180604052508101906132c79190615d05565b6040517f9ce5c4bf000000000000000000000000000000000000000000000000000000008152600481018590526024810182905290915060009073__$2753dcdd519b03fd573aecec08c92b1fcb$__90639ce5c4bf9060440160206040518083038186803b15801561333857600080fd5b505af415801561334c573d6000803e3d6000fd5b505050506040513d601f19601f820116820180604052508101906133709190615d05565b98975050505050505050565b6001600160a01b038216600090815260036020526040812080548392906133a490849061680b565b90915550505050565b60008381526002602090815260408083206001600160a01b0385168452601001909152902080546134205760008481526002602090815260408220600e018054600181018255908352912001805473ffffffffffffffffffffffffffffffffffffffff19166001600160a01b0384161790555b6000805b84518110156136cf5760026000878152602001908152602001600020600c01858281518110613455576134556168f7565b60200260200101518154811061346d5761346d6168f7565b6000918252602082206009600b90920201015460ff16925082600b811115613497576134976168e1565b141561357257600160026000888152602001908152602001600020600c018683815181106134c7576134c76168f7565b6020026020010151815481106134df576134df6168f7565b90600052602060002090600b020160090160006101000a81548160ff0219169083600b811115613511576135116168e1565b02179055507f188fff7234f3bb35c4f436313ec14267725515e4ca367843cd416621a72fb8a38686838151811061354a5761354a6168f7565b60200260200101516001336040516135659493929190616713565b60405180910390a1613688565b600282600b811115613586576135866168e1565b141561365457600360026000888152602001908152602001600020600c018683815181106135b6576135b66168f7565b6020026020010151815481106135ce576135ce6168f7565b90600052602060002090600b020160090160006101000a81548160ff0219169083600b811115613600576136006168e1565b02179055507f188fff7234f3bb35c4f436313ec14267725515e4ca367843cd416621a72fb8a386868381518110613639576136396168f7565b60200260200101516003336040516135659493929190616713565b816040517fcdec874a0000000000000000000000000000000000000000000000000000000081526004016109b49190616405565b8260000185828151811061369e5761369e6168f7565b60209081029190910181015182546001810184556000938452919092200155806136c7816168b0565b915050613424565b5060008581526002602052604081206014018054916136ed836168b0565b91905055506136fd85600061187d565b15610aae576000858152600260209081526040808320601501805461ff0019169055805188815291820192909252338183015290517f89bb035780742b4fe520972847d93db0618abd46516af218e10fd3479347b7e49181900360600190a161376785600161187d565b156137d557600085815260026020526040902060150180546003919062ff0000191662010000835b02179055507fdea20a6d822b68d598b7ab4fd45418a7ca7b103f12d300bcc3b56a7b94d9ed33856003336040516137c8939291906166e8565b60405180910390a1610aae565b60008581526002602052604090819020601501805462ff0000191662010000179055517fdea20a6d822b68d598b7ab4fd45418a7ca7b103f12d300bcc3b56a7b94d9ed339061382a90879060019033906166e8565b60405180910390a15050505050565b6001600160a01b038216600090815260036020526040812080548392906133a4908490616864565b60015474010000000000000000000000000000000000000000900460ff16156138cc5760405162461bcd60e51b815260206004820152601360248201527f546865206c6f636b206973206c6f636b65642e0000000000000000000000000060448201526064016109b4565b600180547fffffffffffffffffffffff00ffffffffffffffffffffffffffffffffffffffff16740100000000000000000000000000000000000000001790556040516000906001600160a01b0384169083908381818185875af1925050503d8060008114613956576040519150601f19603f3d011682016040523d82523d6000602084013e61395b565b606091505b505090508061399a5760405162461bcd60e51b815260206004820152600b60248201526a10d85b1b0819985a5b195960aa1b60448201526064016109b4565b604080513381526001600160a01b03851660208201529081018390527fb37bd6f3ccfce130859d4569dc432409f423a7928e73eb5c5049a94e40f0c6489060600160405180910390a15050600180547fffffffffffffffffffffff00ffffffffffffffffffffffffffffffffffffffff16905550565b600060606000613a2285856001611924565b81519193509150613a3857600092505050610b1f565b613a4785858460046001614c61565b6000858152600260205260408120600a0154610100900460ff1615613adb5760005b8351811015613ad557613a7b87612604565b6101a00151848281518110613a9257613a926168f7565b602002602001015181518110613aaa57613aaa6168f7565b60200260200101516020015182613ac1919061680b565b915080613acd816168b0565b915050613a69565b50613aec565b613ae486612604565b610180015190505b600073__$2753dcdd519b03fd573aecec08c92b1fcb$__634f6ca3ce61325984614e5d565b8015613b2757613b22848484614e6a565b613b34565b613b348484846000614a24565b50505050565b6000610b1f826024612de8565b6000610b1f826018612de8565b600080546001600160a01b0383811673ffffffffffffffffffffffffffffffffffffffff19831681178455604051919092169283917f8be0079c531659141344cd1fd0a4f28419497f9722a3daafe3b4186f6b6457e09190a35050565b6001546040516000916001600160a01b03169047908381818185875af1925050503d8060008114613bfe576040519150601f19603f3d011682016040523d82523d6000602084013e613c03565b606091505b5050905080613c425760405162461bcd60e51b815260206004820152600b60248201526a10d85b1b0819985a5b195960aa1b60448201526064016109b4565b6040805130815233602082015247918101919091527fb37bd6f3ccfce130859d4569dc432409f423a7928e73eb5c5049a94e40f0c64890606001610fa8565b6000818152600260205260408120600d01546000613c9e846120b4565b9050613cab84600161187d565b15613cba575060019392505050565b81613cd257613cc884614f7b565b5060009392505050565b8051826000613ce18284616823565b90506000613cee88611c68565b905060005b8551811015613e36576000868281518110613d1057613d106168f7565b602002602001015160600151600b811115613d2d57613d2d6168e1565b1415613e245760005b87811015613e225783613d628b858481518110613d5557613d556168f7565b6020026020010151610af8565b1115613d6d57613e10565b613d938a83858481518110613d8457613d846168f7565b60200260200101516001614fd5565b7fad65127436138b4afe97ef23baf28ed14a5fb09500ad117eb196cd3bdb3dbe9f8a83858481518110613dc857613dc86168f7565b60200260200101516001604051613e03949392919093845260208401929092526001600160a01b031660408301521515606082015260800190565b60405180910390a1613e22565b80613e1a816168b0565b915050613d36565b505b80613e2e816168b0565b915050613cf3565b50613e4088614f7b565b613e4b88600061187d565b15613e6057613e5b8860036150bc565b613e6b565b613e6b8860026150bc565b506000979650505050505050565b6000828152600260205260409020600c018054600b919083908110613ea057613ea06168f7565b90600052602060002090600b020160090160006101000a81548160ff0219169083600b811115613ed257613ed26168e1565b02179055507f188fff7234f3bb35c4f436313ec14267725515e4ca367843cd416621a72fb8a38282600b33604051612ddc9493929190616713565b6000613f17612e07565b6000828152600260205260408120600e810154600d909101549091613f3b856120b4565b9050613f4885600061187d565b15613f5857506001949350505050565b82158015613f6557508115155b15613f7e57613f7385615126565b506000949350505050565b82158015613f8a575081155b15613fdd57613f9885615181565b60008581526002602052604081208054600b909101546001600160a01b039091169190613fc490611e0f565b9050613fd08282612f48565b5060009695505050505050565b8051836000613fec8284616823565b90506000613ff989611f7c565b905060005b855181101561416857600086828151811061401b5761401b6168f7565b602002602001015160600151600b811115614038576140386168e1565b14156141565760005b8881101561415457836140948c858481518110614060576140606168f7565b602002602001015160008281526002602090815260408083206001600160a01b038516845260100190915290205492915050565b111561409f57614142565b6140c58b838584815181106140b6576140b66168f7565b60200260200101516000614fd5565b7fad65127436138b4afe97ef23baf28ed14a5fb09500ad117eb196cd3bdb3dbe9f8b838584815181106140fa576140fa6168f7565b60200260200101516000604051614135949392919093845260208401929092526001600160a01b031660408301521515606082015260800190565b60405180910390a1614154565b8061414c816168b0565b915050614041565b505b80614160816168b0565b915050613ffe565b5061417289615126565b61417d89600161187d565b156141925761418d8960036150bc565b61419d565b61419d8960016150bc565b50505050600093505050505b919050565b6000806141ba83615239565b90507f9096640c11bd5636ced741c9725e5ff774b334455c80e15491f15bb3af0bc2653382856040516141ef93929190616272565b60405180910390a192915050565b61191f833384846154fd565b60008381526002602090815260408083206001600160a01b0385168452600f019091529020805461427c5760008481526002602090815260408220600d018054600181018255908352912001805473ffffffffffffffffffffffffffffffffffffffff19166001600160a01b0384161790555b6000805b84518110156144f65760026000878152602001908152602001600020600c018582815181106142b1576142b16168f7565b6020026020010151815481106142c9576142c96168f7565b6000918252602082206009600b90920201015460ff16925082600b8111156142f3576142f36168e1565b14156143cd576002806000888152602001908152602001600020600c01868381518110614322576143226168f7565b60200260200101518154811061433a5761433a6168f7565b90600052602060002090600b020160090160006101000a81548160ff0219169083600b81111561436c5761436c6168e1565b02179055507f188fff7234f3bb35c4f436313ec14267725515e4ca367843cd416621a72fb8a3868683815181106143a5576143a56168f7565b60200260200101516002336040516143c09493929190616713565b60405180910390a16144af565b600182600b8111156143e1576143e16168e1565b141561365457600360026000888152602001908152602001600020600c01868381518110614411576144116168f7565b602002602001015181548110614429576144296168f7565b90600052602060002090600b020160090160006101000a81548160ff0219169083600b81111561445b5761445b6168e1565b02179055507f188fff7234f3bb35c4f436313ec14267725515e4ca367843cd416621a72fb8a386868381518110614494576144946168f7565b60200260200101516003336040516143c09493929190616713565b826000018582815181106144c5576144c56168f7565b60209081029190910181015182546001810184556000938452919092200155806144ee816168b0565b915050614280565b506000858152600260205260408120601301805491614514836168b0565b919050555061452485600161187d565b15610aae576000858152600260209081526040808320601501805460ff19169055805188815291820192909252338183015290517f0398fd552105b0090d73611ad526d12979f19b77a7f923343a85d8fd14a13a679181900360600190a161458d85600061187d565b156145b957600085815260026020526040902060150180546003919062ff00001916620100008361378f565b6000858152600260208190526040909120601501805462ff00001916620100008302179055507fdea20a6d822b68d598b7ab4fd45418a7ca7b103f12d300bcc3b56a7b94d9ed338560023360405161382a939291906166e8565b60008281526002602081815260409092208351600182015583830151805191936146429385019291019061574d565b506040820151805161465e91600384019160209091019061574d565b50606082015160048201556080820151600582015560a0820151600682015560c082015180516146989160078401916020909101906157d1565b5060e08201516008820155610100808301516009830155610160830151600b830155610120830151600a8301805461014086015115801590940261ff00199315159390931661ffff199091161791909117905561470057610180820151516011820155614708565b600160118201555b60158101805460ff1916600117905560005b82610180015151811015613b345781600c018361018001518281518110614743576147436168f7565b60209081029190910181015182546001810184556000938452928290208151805180519395600b02909201939092849261478192849291019061574d565b50602082810151600183015560408301516002830155606083015160038301556080830151600483015560a0830151600583015560c083015180516147cc926006850192019061574d565b5050506020828101516007830155604083015180516147f1926008850192019061574d565b50606082015160098201805460ff1916600183600b811115614815576148156168e1565b0217905550608082015181600a015550508080614831906168b0565b91505061471a565b6000612e008284616845565b60008581526002602090815260408083206001600160a01b0388168452600f81018352818420868552600190810190935292819020805460ff1916600390811790915590517f4b906571b20f3dcdf826b53f3c66528e252b2eb87de3cb812f18e6859e119344926148be928a928a928992913390616666565b60405180910390a1600681600c0184815481106148dd576148dd6168f7565b90600052602060002090600b020160090160006101000a81548160ff0219169083600b81111561490f5761490f6168e1565b02179055507f188fff7234f3bb35c4f436313ec14267725515e4ca367843cd416621a72fb8a3868460063360405161494a9493929190616713565b60405180910390a14281600c018481548110614968576149686168f7565b60009182526020808320600a600b9093020191909101929092556001600160a01b0386168152601083018252604080822086835260019081018452912084516149b99391909201919085019061574d565b506001600160a01b038416600090815260108201602090815260408083208684526001908101909252808320805460ff191683179055517f4b906571b20f3dcdf826b53f3c66528e252b2eb87de3cb812f18e6859e11934492610e40928a9289928992913390616666565b8015614b475760008481526002602081815260408084206001600160a01b0388168552600f018252808420868552600190810190925292839020805460ff19168317905591517f4b906571b20f3dcdf826b53f3c66528e252b2eb87de3cb812f18e6859e11934492614a9e92889288928892913390616666565b60405180910390a16000848152600260205260409020600c0180546005919084908110614acd57614acd6168f7565b90600052602060002090600b020160090160006101000a81548160ff0219169083600b811115614aff57614aff6168e1565b02179055507f188fff7234f3bb35c4f436313ec14267725515e4ca367843cd416621a72fb8a38483600533604051614b3a9493929190616713565b60405180910390a1613b34565b60008481526002602081815260408084206001600160a01b03881685526010018252808420868552600101909152808320805460ff191683179055517f4b906571b20f3dcdf826b53f3c66528e252b2eb87de3cb812f18e6859e11934492614bb792889288928892913390616666565b60405180910390a16000848152600260205260409020600c0180546007919084908110614be657614be66168f7565b90600052602060002090600b020160090160006101000a81548160ff0219169083600b811115614c1857614c186168e1565b02179055507f188fff7234f3bb35c4f436313ec14267725515e4ca367843cd416621a72fb8a38483600733604051614c539493929190616713565b60405180910390a150505050565b8015614d615760005b8351811015614d5b5760008681526002602090815260408083206001600160a01b0389168452600f0190915281208551859260019092019190879085908110614cb557614cb56168f7565b6020908102919091018101518252810191909152604001600020805460ff19166001836004811115614ce957614ce96168e1565b02179055507f4b906571b20f3dcdf826b53f3c66528e252b2eb87de3cb812f18e6859e1193448686868481518110614d2357614d236168f7565b602002602001015186600133604051614d4196959493929190616666565b60405180910390a180614d53816168b0565b915050614c6a565b50610aae565b60005b8351811015614e555760008681526002602090815260408083206001600160a01b038916845260100190915281208551859260019092019190879085908110614daf57614daf6168f7565b6020908102919091018101518252810191909152604001600020805460ff19166001836004811115614de357614de36168e1565b02179055507f4b906571b20f3dcdf826b53f3c66528e252b2eb87de3cb812f18e6859e1193448686868481518110614e1d57614e1d6168f7565b602002602001015186600033604051614e3b96959493929190616666565b60405180910390a180614e4d816168b0565b915050614d64565b505050505050565b6000610b1f826036612de8565b60008381526002602090815260408083206001600160a01b03861684526010018252808320848452600101909152808220805460ff1916600390811790915590517f4b906571b20f3dcdf826b53f3c66528e252b2eb87de3cb812f18e6859e11934492614edf92879287928792913390616666565b60405180910390a16000838152600260205260409020600c0180546008919083908110614f0e57614f0e6168f7565b90600052602060002090600b020160090160006101000a81548160ff0219169083600b811115614f4057614f406168e1565b02179055507f188fff7234f3bb35c4f436313ec14267725515e4ca367843cd416621a72fb8a3838260083360405161306b9493929190616713565b6000818152600260209081526040808320601501805460ff1916905580518481529182019290925233918101919091527f0398fd552105b0090d73611ad526d12979f19b77a7f923343a85d8fd14a13a6790606001610fa8565b60008115615030575060008481526002602081815260408084206001600160a01b0387168552600f8101835281852088865260010183529084208885529290915260130180549192615026836168b0565b919050555061507f565b5060008481526002602081815260408084206001600160a01b038716855260108101835281852088865260010183529084208885529290915260140180549192615079836168b0565b91905055505b505060009283526002602090815260408085206001600160a01b039093168552600f90920181529083208054600181018255908452922090910155565b6000828152600260205260409020601501805482919062ff00001916620100008360078111156150ee576150ee6168e1565b02179055507fdea20a6d822b68d598b7ab4fd45418a7ca7b103f12d300bcc3b56a7b94d9ed33828233604051612ddc939291906166e8565b6000818152600260209081526040808320601501805461ff001916905580518481529182019290925233918101919091527f89bb035780742b4fe520972847d93db0618abd46516af218e10fd3479347b7e490606001610fa8565b60008181526002602052604090819020601501805462ff0000191662050000179055517fdea20a6d822b68d598b7ab4fd45418a7ca7b103f12d300bcc3b56a7b94d9ed33906151d690839060059033906166e8565b60405180910390a16000818152600260209081526040808320601501805461ff001916905580518481529182019290925233918101919091527f0398fd552105b0090d73611ad526d12979f19b77a7f923343a85d8fd14a13a6790606001610fa8565b600480546000918261524a836168b0565b90915550506004546000908152600260208181526040909220805473ffffffffffffffffffffffffffffffffffffffff19163317815584516001820155848301518051919361529e9385019291019061574d565b50604083015180516152ba91600384019160209091019061574d565b50606083015160048201556080830151600582015560a0830151600682015560c083015180516152f49160078401916020909101906157d1565b5060e08301516008820155610100808401516009830155610160840151600b830155610120840151600a8301805461014087015115801590940261ff00199315159390931661ffff19909116179190911790556153635761018083015151601182018190556012820155615372565b60016011820181905560128201555b60158101805461ffff191661010117905560005b836101800151518110156154f257600084610180015182815181106153ad576153ad6168f7565b602002602001015160600190600b8111156153ca576153ca6168e1565b9081600b8111156153dd576153dd6168e1565b8152505081600c0184610180015182815181106153fc576153fc6168f7565b60209081029190910181015182546001810184556000938452928290208151805180519395600b02909201939092849261543a92849291019061574d565b50602082810151600183015560408301516002830155606083015160038301556080830151600483015560a0830151600583015560c08301518051615485926006850192019061574d565b5050506020828101516007830155604083015180516154aa926008850192019061574d565b50606082015160098201805460ff1916600183600b8111156154ce576154ce6168e1565b0217905550608082015181600a0155505080806154ea906168b0565b915050615386565b505060045492915050565b6000848152600260205260409020600c810180546004919085908110615525576155256168f7565b90600052602060002090600b020160090160006101000a81548160ff0219169083600b811115615557576155576168e1565b02179055507f188fff7234f3bb35c4f436313ec14267725515e4ca367843cd416621a72fb8a385846004336040516155929493929190616713565b60405180910390a14281600c0184815481106155b0576155b06168f7565b60009182526020808320600a600b9093020191909101929092556001600160a01b0386168152600f83018252604080822086835260019081018452912084516156019391909201919085019061574d565b506001600160a01b0384166000908152600f820160209081526040808320868452600190810190925291829020805460ff19168217905590517f4b906571b20f3dcdf826b53f3c66528e252b2eb87de3cb812f18e6859e1193449161382a918891889188919081903390616666565b60405180610320016040528060006001600160a01b031681526020016000815260200160608152602001606081526020016000815260200160008152602001600081526020016060815260200160008152602001600081526020016000151581526020016000151581526020016000815260200160608152602001606081526020016060815260200160608152602001606081526020016000815260200160008152602001600081526020016000815260200160001515815260200160001515815260200160006007811115615748576157486168e1565b905290565b8280546157599061687b565b90600052602060002090601f01602090048101928261577b57600085556157c1565b82601f1061579457805160ff19168380011785556157c1565b828001600101855582156157c1579182015b828111156157c15782518255916020019190600101906157a6565b506157cd92915061580b565b5090565b8280548282559060005260206000209081019282156157c157916020028201828111156157c15782518255916020019190600101906157a6565b5b808211156157cd576000815560010161580c565b80356001600160a01b03811681146141a957600080fd5b600082601f83011261584857600080fd5b602061585c61585784356167e7565b6167b6565b808435825282820191508285018684873560051b880101111561587e57600080fd5b60005b86358110156159ce5767ffffffffffffffff80833511156158a157600080fd5b82358801601f1960a081838d030112156158ba57600080fd5b6158c2616746565b88830135848111156158d357600080fd5b830160e0818e03840112156158e757600080fd5b6158ef61676f565b9250898101358581111561590257600080fd5b6159108e8c83850101615a66565b84525060408101358a840152606081013560408401526080810135606084015260a0810135608084015260c081013560a084015260e08101358581111561595657600080fd5b6159648e8c83850101615a66565b60c085015250509081526040820135888201526060820135908382111561598a57600080fd5b6159988c8a84860101615a66565b60408201526159a960808401615a57565b606082015260a092909201356080830152508552509284019290840190600101615881565b50909695505050505050565b600082601f8301126159eb57600080fd5b813560206159fb615857836167e7565b80838252828201915082860187848660051b8901011115615a1b57600080fd5b60005b85811015615a3a57813584529284019290840190600101615a1e565b5090979650505050505050565b803580151581146141a957600080fd5b8035600c81106141a957600080fd5b600082601f830112615a7757600080fd5b813567ffffffffffffffff811115615a9157615a9161690d565b615aa46020601f19601f840116016167b6565b818152846020838601011115615ab957600080fd5b816020850160208301376000918101602001919091529392505050565b60006101a08284031215615ae957600080fd5b615af1616792565b905081358152602082013567ffffffffffffffff80821115615b1257600080fd5b615b1e85838601615a66565b60208401526040840135915080821115615b3757600080fd5b615b4385838601615a66565b6040840152606084013560608401526080840135608084015260a084013560a084015260c0840135915080821115615b7a57600080fd5b615b86858386016159da565b60c084015260e0848101359084015261010080850135908401526101209150615bb0828501615a47565b828401526101409150615bc4828501615a47565b828401526101609150818401358284015261018091508184013581811115615beb57600080fd5b615bf786828701615837565b8385015250505092915050565b600060208284031215615c1657600080fd5b612e0082615820565b60006020808385031215615c3257600080fd5b825167ffffffffffffffff811115615c4957600080fd5b8301601f81018513615c5a57600080fd5b8051615c68615857826167e7565b80828252848201915084840188868560051b8701011115615c8857600080fd5b600094505b83851015615cab578051835260019490940193918501918501615c8d565b50979650505050505050565b600060208284031215615cc957600080fd5b813567ffffffffffffffff811115615ce057600080fd5b610c8a84828501615ad6565b600060208284031215615cfe57600080fd5b5035919050565b600060208284031215615d1757600080fd5b5051919050565b60008060408385031215615d3157600080fd5b82359150615d4160208401615820565b90509250929050565b600080600060608486031215615d5f57600080fd5b83359250615d6f60208501615820565b9150615d7d60408501615a47565b90509250925092565b600080600080600060a08688031215615d9e57600080fd5b85359450615dae60208701615820565b935060408601359250615dc360608701615a47565b9150615dd160808701615820565b90509295509295909350565b600080600080600060a08688031215615df557600080fd5b85359450615e0560208701615820565b935060408601359250615e1a60608701615a47565b9150608086013567ffffffffffffffff811115615e3657600080fd5b615e4288828901615a66565b9150509295509295909350565b60008060408385031215615e6257600080fd5b82359150602083013567ffffffffffffffff811115615e8057600080fd5b615e8c858286016159da565b9150509250929050565b60008060408385031215615ea957600080fd5b82359150615d4160208401615a47565b60008060408385031215615ecc57600080fd5b82359150602083013567ffffffffffffffff811115615eea57600080fd5b615e8c85828601615ad6565b60008060408385031215615f0957600080fd5b50508035926020909101359150565b600080600060608486031215615f2d57600080fd5b8335925060208401359150604084013567ffffffffffffffff811115615f5257600080fd5b615f5e86828701615a66565b9150509250925092565b600081518084526020808501945080840160005b83811015615fa15781516001600160a01b031687529582019590820190600101615f7c565b509495945050505050565b600081518084526020808501808196508360051b8101915082860160005b85811015615ff4578284038952615fe28483516161cc565b98850198935090840190600101615fca565b5091979650505050505050565b600081518084526020808501808196508360051b8101915082860160005b85811015615ff4578284038952815160a08151818752805160e080848a015261604c6101808a018361617f565b91508983015160c081818c01526040915081850151838c015260609250828501516101008c01526080808601516101208d0152868601516101408d01528186015196507fffffffffffffffffffffffffffffffffffffffffffffffffffffffffffffff608c8603016101608d01526160c4858861617f565b96508c8801518d8d01528288015195508b8703838d01526160e5878761617f565b96508388015195506160f9848d018761614b565b968701519a90960199909952505050998601999450509084019060010161601f565b600081518084526020808501945080840160005b83811015615fa15781518752958201959082019060010161612f565b600c811061615b5761615b6168e1565b9052565b6008811061615b5761615b6168e1565b6005811061615b5761615b6168e1565b6000815180845260005b818110156161a557602081850181015186830182015201616189565b818111156161b7576000602083870101525b50601f01601f19169290920160200192915050565b6001600160a01b03815116825260006020808301516060828601526161f4606086018261611b565b9050604080850151868303828801528281518085528585019150858160051b860101868401935060005b8281101561626457601f19878303018452845161623c83825161616f565b8801518289018790526162518388018261617f565b958901959489019492505060010161621e565b509998505050505050505050565b6001600160a01b03841681528260208201526060604082015281516060820152600060208301516101a08060808501526162b061020085018361617f565b915060408501517fffffffffffffffffffffffffffffffffffffffffffffffffffffffffffffffa0808685030160a08701526162ec848361617f565b9350606087015160c0870152608087015160e087015260a08701519150610100828188015260c0880151925061012082888703018189015261632e868561611b565b60e08a01516101408a810191909152928a0151610160808b0191909152918a015190965093509061018090616366828a018615159052565b8901511515948801949094528701516101c0870152918601518584039092016101e0860152506163968282616001565b979650505050505050565b602081526000612e006020830184615f68565b602081526000612e006020830184616001565b6040815260006163da604083018561611b565b90508260208301529392505050565b60208101610b1f828461614b565b60208101610b1f828461615f565b60408082526010908201527f4572726f722066696c6520737461746500000000000000000000000000000000606082015260808101610b1f602083018461614b565b602081526164616020820183516001600160a01b03169052565b602082015160408201526000604083015161032080606085015261648961034085018361617f565b91506060850151601f19808685030160808701526164a7848361617f565b9350608087015160a087015260a087015160c087015260c087015160e087015260e087015191506101008187860301818801526164e4858461611b565b90880151610120888101919091528801516101408089019190915288015190945091506101606165178188018415159052565b870151915061018061652c8782018415159052565b808801519250506101a08281880152808801519250506101c08187860301818801526165588584616001565b9450808801519250506101e08187860301818801526165778584615f68565b9450808801519250506102008187860301818801526165968584615f68565b9450808801519250506102208187860301818801526165b58584615fac565b9450808801519250506102408187860301818801526165d48584615fac565b9088015161026088810191909152880151610280808901919091528801516102a0808901919091528801516102c08089019190915288015190945091506102e090506166238187018315159052565b86015190506103006166388682018315159052565b86015190506166498583018261615f565b5090949350505050565b602081526000612e0060208301846161cc565b8681526001600160a01b0386811660208301526040820186905260c0820190616692606084018761616f565b841515608084015280841660a084015250979650505050505050565b8481526080602082015260006166c7608083018661611b565b6001600160a01b039490941660408301525090151560609091015292915050565b838152606081016166fc602083018561615f565b6001600160a01b0383166040830152949350505050565b848152602081018490526080810161672e604083018561614b565b6001600160a01b038316606083015295945050505050565b60405160a0810167ffffffffffffffff811182821017156167695761676961690d565b60405290565b60405160e0810167ffffffffffffffff811182821017156167695761676961690d565b6040516101a0810167ffffffffffffffff811182821017156167695761676961690d565b604051601f8201601f1916810167ffffffffffffffff811182821017156167df576167df61690d565b604052919050565b600067ffffffffffffffff8211156168015761680161690d565b5060051b60200190565b6000821982111561681e5761681e6168cb565b500190565b60008261684057634e487b7160e01b600052601260045260246000fd5b500490565b600081600019048311821515161561685f5761685f6168cb565b500290565b600082821015616876576168766168cb565b500390565b600181811c9082168061688f57607f821691505b602082108114156123c857634e487b7160e01b600052602260045260246000fd5b60006000198214156168c4576168c46168cb565b5060010190565b634e487b7160e01b600052601160045260246000fd5b634e487b7160e01b600052602160045260246000fd5b634e487b7160e01b600052603260045260246000fd5b634e487b7160e01b600052604160045260246000fdfea2646970667358221220ffe0bbc466d9ddf35c799acc24418582f82d3aba670f8aa944045e0d901d655a64736f6c63430008070033",
			"opcodes": "PUSH1 0x80 PUSH1 0x40 MSTORE PUSH1 0x1 DUP1 SLOAD PUSH1 0x1 PUSH1 0x1 PUSH1 0xA0 SHL SUB NOT AND PUSH20 0x25CB30ACD1786E49177429318F26959681F9AABD OR SWAP1 SSTORE CALLVALUE DUP1 ISZERO PUSH3 0x37 JUMPI PUSH1 0x0 DUP1 REVERT JUMPDEST POP PUSH1 0x40 MLOAD PUSH3 0x6A76 CODESIZE SUB DUP1 PUSH3 0x6A76 DUP4 CODECOPY DUP2 ADD PUSH1 0x40 DUP2 SWAP1 MSTORE PUSH3 0x5A SWAP2 PUSH3 0xDB JUMP JUMPDEST PUSH3 0x65 CALLER PUSH3 0x8B JUMP JUMPDEST PUSH1 0x5 DUP1 SLOAD PUSH1 0x1 PUSH1 0x1 PUSH1 0xA0 SHL SUB NOT AND PUSH1 0x1 PUSH1 0x1 PUSH1 0xA0 SHL SUB SWAP3 SWAP1 SWAP3 AND SWAP2 SWAP1 SWAP2 OR SWAP1 SSTORE PUSH3 0x10D JUMP JUMPDEST PUSH1 0x0 DUP1 SLOAD PUSH1 0x1 PUSH1 0x1 PUSH1 0xA0 SHL SUB DUP4 DUP2 AND PUSH1 0x1 PUSH1 0x1 PUSH1 0xA0 SHL SUB NOT DUP4 AND DUP2 OR DUP5 SSTORE PUSH1 0x40 MLOAD SWAP2 SWAP1 SWAP3 AND SWAP3 DUP4 SWAP2 PUSH32 0x8BE0079C531659141344CD1FD0A4F28419497F9722A3DAAFE3B4186F6B6457E0 SWAP2 SWAP1 LOG3 POP POP JUMP JUMPDEST PUSH1 0x0 PUSH1 0x20 DUP3 DUP5 SUB SLT ISZERO PUSH3 0xEE JUMPI PUSH1 0x0 DUP1 REVERT JUMPDEST DUP2 MLOAD PUSH1 0x1 PUSH1 0x1 PUSH1 0xA0 SHL SUB DUP2 AND DUP2 EQ PUSH3 0x106 JUMPI PUSH1 0x0 DUP1 REVERT JUMPDEST SWAP4 SWAP3 POP POP POP JUMP JUMPDEST PUSH2 0x6959 DUP1 PUSH3 0x11D PUSH1 0x0 CODECOPY PUSH1 0x0 RETURN INVALID PUSH1 0x80 PUSH1 0x40 MSTORE PUSH1 0x4 CALLDATASIZE LT PUSH2 0x2C6 JUMPI PUSH1 0x0 CALLDATALOAD PUSH1 0xE0 SHR DUP1 PUSH4 0x853828B6 GT PUSH2 0x177 JUMPI DUP1 PUSH4 0xAD607C72 GT PUSH2 0xD5 JUMPI DUP1 PUSH4 0xD2FED69C GT PUSH2 0x84 JUMPI DUP1 PUSH4 0xF8626EBB GT PUSH2 0x61 JUMPI DUP1 PUSH4 0xF8626EBB EQ PUSH2 0x8D3 JUMPI DUP1 PUSH4 0xFA4C6473 EQ PUSH2 0x903 JUMPI DUP1 PUSH4 0xFFCCE776 EQ PUSH2 0x923 JUMPI STOP JUMPDEST DUP1 PUSH4 0xD2FED69C EQ PUSH2 0x84D JUMPI DUP1 PUSH4 0xD3D7BC3B EQ PUSH2 0x87D JUMPI DUP1 PUSH4 0xF2FDE38B EQ PUSH2 0x8B3 JUMPI STOP JUMPDEST DUP1 PUSH4 0xBB0C38C0 GT PUSH2 0xB2 JUMPI DUP1 PUSH4 0xBB0C38C0 EQ PUSH2 0x7D3 JUMPI DUP1 PUSH4 0xCF8F4BE2 EQ PUSH2 0x7F3 JUMPI DUP1 PUSH4 0xD1A1B999 EQ PUSH2 0x820 JUMPI STOP JUMPDEST DUP1 PUSH4 0xAD607C72 EQ PUSH2 0x766 JUMPI DUP1 PUSH4 0xB4E068F2 EQ PUSH2 0x793 JUMPI DUP1 PUSH4 0xB647EEC3 EQ PUSH2 0x7B3 JUMPI STOP JUMPDEST DUP1 PUSH4 0x9722F099 GT PUSH2 0x131 JUMPI DUP1 PUSH4 0xA55AF701 GT PUSH2 0x10E JUMPI DUP1 PUSH4 0xA55AF701 EQ PUSH2 0x71E JUMPI DUP1 PUSH4 0xA87D942C EQ PUSH2 0x73E JUMPI DUP1 PUSH4 0xAC35CD61 EQ PUSH2 0x753 JUMPI STOP JUMPDEST DUP1 PUSH4 0x9722F099 EQ PUSH2 0x69E JUMPI DUP1 PUSH4 0x97601EFB EQ PUSH2 0x6D1 JUMPI DUP1 PUSH4 0x983A12A8 EQ PUSH2 0x6F1 JUMPI STOP JUMPDEST DUP1 PUSH4 0x8ADC74A5 GT PUSH2 0x15F JUMPI DUP1 PUSH4 0x8ADC74A5 EQ PUSH2 0x632 JUMPI DUP1 PUSH4 0x8B3F3A6F EQ PUSH2 0x652 JUMPI DUP1 PUSH4 0x8DA5CB5B EQ PUSH2 0x680 JUMPI STOP JUMPDEST DUP1 PUSH4 0x853828B6 EQ PUSH2 0x5FD JUMPI DUP1 PUSH4 0x8A9A9FF3 EQ PUSH2 0x612 JUMPI STOP JUMPDEST DUP1 PUSH4 0x546677AA GT PUSH2 0x224 JUMPI DUP1 PUSH4 0x64A1ED07 GT PUSH2 0x1DE JUMPI DUP1 PUSH4 0x790485F9 GT PUSH2 0x1BB JUMPI DUP1 PUSH4 0x790485F9 EQ PUSH2 0x55E JUMPI DUP1 PUSH4 0x7C34EB85 EQ PUSH2 0x5A5 JUMPI DUP1 PUSH4 0x7C35BEB7 EQ PUSH2 0x5DD JUMPI STOP JUMPDEST DUP1 PUSH4 0x64A1ED07 EQ PUSH2 0x4F9 JUMPI DUP1 PUSH4 0x6E973982 EQ PUSH2 0x519 JUMPI DUP1 PUSH4 0x715018A6 EQ PUSH2 0x549 JUMPI STOP JUMPDEST DUP1 PUSH4 0x5BF608B8 GT PUSH2 0x20C JUMPI DUP1 PUSH4 0x5BF608B8 EQ PUSH2 0x46B JUMPI DUP1 PUSH4 0x5FED5EB2 EQ PUSH2 0x4B9 JUMPI DUP1 PUSH4 0x627A62F3 EQ PUSH2 0x4E6 JUMPI STOP JUMPDEST DUP1 PUSH4 0x546677AA EQ PUSH2 0x403 JUMPI DUP1 PUSH4 0x5B0EF140 EQ PUSH2 0x44B JUMPI STOP JUMPDEST DUP1 PUSH4 0x243634BF GT PUSH2 0x280 JUMPI DUP1 PUSH4 0x3BD14E13 GT PUSH2 0x25D JUMPI DUP1 PUSH4 0x3BD14E13 EQ PUSH2 0x3C8 JUMPI DUP1 PUSH4 0x3EDFA229 EQ PUSH2 0x3E8 JUMPI DUP1 PUSH4 0x460968DD EQ PUSH2 0x3FB JUMPI STOP JUMPDEST DUP1 PUSH4 0x243634BF EQ PUSH2 0x368 JUMPI DUP1 PUSH4 0x2E1A7D4D EQ PUSH2 0x388 JUMPI DUP1 PUSH4 0x36D61AE0 EQ PUSH2 0x3A8 JUMPI STOP JUMPDEST DUP1 PUSH4 0x1201DFC6 GT PUSH2 0x2AE JUMPI DUP1 PUSH4 0x1201DFC6 EQ PUSH2 0x302 JUMPI DUP1 PUSH4 0x193620E7 EQ PUSH2 0x322 JUMPI DUP1 PUSH4 0x22968885 EQ PUSH2 0x355 JUMPI STOP JUMPDEST DUP1 PUSH4 0x9A02F58 EQ PUSH2 0x2CF JUMPI DUP1 PUSH4 0xCA23438 EQ PUSH2 0x2E2 JUMPI STOP JUMPDEST CALLDATASIZE PUSH2 0x2CD JUMPI STOP JUMPDEST STOP JUMPDEST PUSH2 0x2CD PUSH2 0x2DD CALLDATASIZE PUSH1 0x4 PUSH2 0x5EB9 JUMP JUMPDEST PUSH2 0x969 JUMP JUMPDEST CALLVALUE DUP1 ISZERO PUSH2 0x2EE JUMPI PUSH1 0x0 DUP1 REVERT JUMPDEST POP PUSH2 0x2CD PUSH2 0x2FD CALLDATASIZE PUSH1 0x4 PUSH2 0x5C04 JUMP JUMPDEST PUSH2 0xAB5 JUMP JUMPDEST CALLVALUE DUP1 ISZERO PUSH2 0x30E JUMPI PUSH1 0x0 DUP1 REVERT JUMPDEST POP PUSH2 0x2CD PUSH2 0x31D CALLDATASIZE PUSH1 0x4 PUSH2 0x5CEC JUMP JUMPDEST PUSH2 0xAEC JUMP JUMPDEST CALLVALUE DUP1 ISZERO PUSH2 0x32E JUMPI PUSH1 0x0 DUP1 REVERT JUMPDEST POP PUSH2 0x342 PUSH2 0x33D CALLDATASIZE PUSH1 0x4 PUSH2 0x5D1E JUMP JUMPDEST PUSH2 0xAF8 JUMP JUMPDEST PUSH1 0x40 MLOAD SWAP1 DUP2 MSTORE PUSH1 0x20 ADD JUMPDEST PUSH1 0x40 MLOAD DUP1 SWAP2 SUB SWAP1 RETURN JUMPDEST CALLVALUE DUP1 ISZERO PUSH2 0x361 JUMPI PUSH1 0x0 DUP1 REVERT JUMPDEST POP SELFBALANCE PUSH2 0x342 JUMP JUMPDEST CALLVALUE DUP1 ISZERO PUSH2 0x374 JUMPI PUSH1 0x0 DUP1 REVERT JUMPDEST POP PUSH2 0x2CD PUSH2 0x383 CALLDATASIZE PUSH1 0x4 PUSH2 0x5DDD JUMP JUMPDEST PUSH2 0xB25 JUMP JUMPDEST CALLVALUE DUP1 ISZERO PUSH2 0x394 JUMPI PUSH1 0x0 DUP1 REVERT JUMPDEST POP PUSH2 0x2CD PUSH2 0x3A3 CALLDATASIZE PUSH1 0x4 PUSH2 0x5CEC JUMP JUMPDEST PUSH2 0xC10 JUMP JUMPDEST CALLVALUE DUP1 ISZERO PUSH2 0x3B4 JUMPI PUSH1 0x0 DUP1 REVERT JUMPDEST POP PUSH2 0x342 PUSH2 0x3C3 CALLDATASIZE PUSH1 0x4 PUSH2 0x5D1E JUMP JUMPDEST PUSH2 0xC21 JUMP JUMPDEST CALLVALUE DUP1 ISZERO PUSH2 0x3D4 JUMPI PUSH1 0x0 DUP1 REVERT JUMPDEST POP PUSH2 0x2CD PUSH2 0x3E3 CALLDATASIZE PUSH1 0x4 PUSH2 0x5E4F JUMP JUMPDEST PUSH2 0xC92 JUMP JUMPDEST PUSH2 0x2CD PUSH2 0x3F6 CALLDATASIZE PUSH1 0x4 PUSH2 0x5C04 JUMP JUMPDEST PUSH2 0xE50 JUMP JUMPDEST PUSH2 0x2CD PUSH2 0xEE7 JUMP JUMPDEST CALLVALUE DUP1 ISZERO PUSH2 0x40F JUMPI PUSH1 0x0 DUP1 REVERT JUMPDEST POP PUSH2 0x43B PUSH2 0x41E CALLDATASIZE PUSH1 0x4 PUSH2 0x5CEC JUMP JUMPDEST PUSH1 0x0 SWAP1 DUP2 MSTORE PUSH1 0x2 PUSH1 0x20 MSTORE PUSH1 0x40 SWAP1 KECCAK256 PUSH1 0x15 ADD SLOAD PUSH2 0x100 SWAP1 DIV PUSH1 0xFF AND SWAP1 JUMP JUMPDEST PUSH1 0x40 MLOAD SWAP1 ISZERO ISZERO DUP2 MSTORE PUSH1 0x20 ADD PUSH2 0x34C JUMP JUMPDEST CALLVALUE DUP1 ISZERO PUSH2 0x457 JUMPI PUSH1 0x0 DUP1 REVERT JUMPDEST POP PUSH2 0x342 PUSH2 0x466 CALLDATASIZE PUSH1 0x4 PUSH2 0x5D1E JUMP JUMPDEST PUSH2 0xFB3 JUMP JUMPDEST CALLVALUE DUP1 ISZERO PUSH2 0x477 JUMPI PUSH1 0x0 DUP1 REVERT JUMPDEST POP PUSH2 0x4A1 PUSH2 0x486 CALLDATASIZE PUSH1 0x4 PUSH2 0x5CEC JUMP JUMPDEST PUSH1 0x0 SWAP1 DUP2 MSTORE PUSH1 0x2 PUSH1 0x20 MSTORE PUSH1 0x40 SWAP1 KECCAK256 SLOAD PUSH1 0x1 PUSH1 0x1 PUSH1 0xA0 SHL SUB AND SWAP1 JUMP JUMPDEST PUSH1 0x40 MLOAD PUSH1 0x1 PUSH1 0x1 PUSH1 0xA0 SHL SUB SWAP1 SWAP2 AND DUP2 MSTORE PUSH1 0x20 ADD PUSH2 0x34C JUMP JUMPDEST CALLVALUE DUP1 ISZERO PUSH2 0x4C5 JUMPI PUSH1 0x0 DUP1 REVERT JUMPDEST POP PUSH2 0x4D9 PUSH2 0x4D4 CALLDATASIZE PUSH1 0x4 PUSH2 0x5D1E JUMP JUMPDEST PUSH2 0x1010 JUMP JUMPDEST PUSH1 0x40 MLOAD PUSH2 0x34C SWAP2 SWAP1 PUSH2 0x6653 JUMP JUMPDEST PUSH2 0x2CD PUSH2 0x4F4 CALLDATASIZE PUSH1 0x4 PUSH2 0x5D86 JUMP JUMPDEST PUSH2 0x132A JUMP JUMPDEST CALLVALUE DUP1 ISZERO PUSH2 0x505 JUMPI PUSH1 0x0 DUP1 REVERT JUMPDEST POP PUSH2 0x342 PUSH2 0x514 CALLDATASIZE PUSH1 0x4 PUSH2 0x5EF6 JUMP JUMPDEST PUSH2 0x150F JUMP JUMPDEST CALLVALUE DUP1 ISZERO PUSH2 0x525 JUMPI PUSH1 0x0 DUP1 REVERT JUMPDEST POP PUSH2 0x342 PUSH2 0x534 CALLDATASIZE PUSH1 0x4 PUSH2 0x5CEC JUMP JUMPDEST PUSH1 0x0 SWAP1 DUP2 MSTORE PUSH1 0x2 PUSH1 0x20 MSTORE PUSH1 0x40 SWAP1 KECCAK256 PUSH1 0xB ADD SLOAD SWAP1 JUMP JUMPDEST CALLVALUE DUP1 ISZERO PUSH2 0x555 JUMPI PUSH1 0x0 DUP1 REVERT JUMPDEST POP PUSH2 0x2CD PUSH2 0x154C JUMP JUMPDEST CALLVALUE DUP1 ISZERO PUSH2 0x56A JUMPI PUSH1 0x0 DUP1 REVERT JUMPDEST POP PUSH2 0x342 PUSH2 0x579 CALLDATASIZE PUSH1 0x4 PUSH2 0x5D1E JUMP JUMPDEST PUSH1 0x0 DUP3 DUP2 MSTORE PUSH1 0x2 PUSH1 0x20 SWAP1 DUP2 MSTORE PUSH1 0x40 DUP1 DUP4 KECCAK256 PUSH1 0x1 PUSH1 0x1 PUSH1 0xA0 SHL SUB DUP6 AND DUP5 MSTORE PUSH1 0x10 ADD SWAP1 SWAP2 MSTORE SWAP1 KECCAK256 SLOAD SWAP3 SWAP2 POP POP JUMP JUMPDEST CALLVALUE DUP1 ISZERO PUSH2 0x5B1 JUMPI PUSH1 0x0 DUP1 REVERT JUMPDEST POP PUSH2 0x43B PUSH2 0x5C0 CALLDATASIZE PUSH1 0x4 PUSH2 0x5CEC JUMP JUMPDEST PUSH1 0x0 SWAP1 DUP2 MSTORE PUSH1 0x2 PUSH1 0x20 MSTORE PUSH1 0x40 SWAP1 KECCAK256 PUSH1 0xA ADD SLOAD PUSH2 0x100 SWAP1 DIV PUSH1 0xFF AND SWAP1 JUMP JUMPDEST CALLVALUE DUP1 ISZERO PUSH2 0x5E9 JUMPI PUSH1 0x0 DUP1 REVERT JUMPDEST POP PUSH2 0x4D9 PUSH2 0x5F8 CALLDATASIZE PUSH1 0x4 PUSH2 0x5D1E JUMP JUMPDEST PUSH2 0x1560 JUMP JUMPDEST CALLVALUE DUP1 ISZERO PUSH2 0x609 JUMPI PUSH1 0x0 DUP1 REVERT JUMPDEST POP PUSH2 0x2CD PUSH2 0x186D JUMP JUMPDEST CALLVALUE DUP1 ISZERO PUSH2 0x61E JUMPI PUSH1 0x0 DUP1 REVERT JUMPDEST POP PUSH2 0x43B PUSH2 0x62D CALLDATASIZE PUSH1 0x4 PUSH2 0x5E96 JUMP JUMPDEST PUSH2 0x187D JUMP JUMPDEST CALLVALUE DUP1 ISZERO PUSH2 0x63E JUMPI PUSH1 0x0 DUP1 REVERT JUMPDEST POP PUSH2 0x2CD PUSH2 0x64D CALLDATASIZE PUSH1 0x4 PUSH2 0x5CEC JUMP JUMPDEST PUSH2 0x18C7 JUMP JUMPDEST CALLVALUE DUP1 ISZERO PUSH2 0x65E JUMPI PUSH1 0x0 DUP1 REVERT JUMPDEST POP PUSH2 0x672 PUSH2 0x66D CALLDATASIZE PUSH1 0x4 PUSH2 0x5D4A JUMP JUMPDEST PUSH2 0x1924 JUMP JUMPDEST PUSH1 0x40 MLOAD PUSH2 0x34C SWAP3 SWAP2 SWAP1 PUSH2 0x63C7 JUMP JUMPDEST CALLVALUE DUP1 ISZERO PUSH2 0x68C JUMPI PUSH1 0x0 DUP1 REVERT JUMPDEST POP PUSH1 0x0 SLOAD PUSH1 0x1 PUSH1 0x1 PUSH1 0xA0 SHL SUB AND PUSH2 0x4A1 JUMP JUMPDEST CALLVALUE DUP1 ISZERO PUSH2 0x6AA JUMPI PUSH1 0x0 DUP1 REVERT JUMPDEST POP PUSH2 0x43B PUSH2 0x6B9 CALLDATASIZE PUSH1 0x4 PUSH2 0x5CEC JUMP JUMPDEST PUSH1 0x0 SWAP1 DUP2 MSTORE PUSH1 0x2 PUSH1 0x20 MSTORE PUSH1 0x40 SWAP1 KECCAK256 PUSH1 0x15 ADD SLOAD PUSH1 0xFF AND SWAP1 JUMP JUMPDEST CALLVALUE DUP1 ISZERO PUSH2 0x6DD JUMPI PUSH1 0x0 DUP1 REVERT JUMPDEST POP PUSH2 0x2CD PUSH2 0x6EC CALLDATASIZE PUSH1 0x4 PUSH2 0x5EF6 JUMP JUMPDEST PUSH2 0x1C5A JUMP JUMPDEST CALLVALUE DUP1 ISZERO PUSH2 0x6FD JUMPI PUSH1 0x0 DUP1 REVERT JUMPDEST POP PUSH2 0x711 PUSH2 0x70C CALLDATASIZE PUSH1 0x4 PUSH2 0x5CEC JUMP JUMPDEST PUSH2 0x1C68 JUMP JUMPDEST PUSH1 0x40 MLOAD PUSH2 0x34C SWAP2 SWAP1 PUSH2 0x63A1 JUMP JUMPDEST CALLVALUE DUP1 ISZERO PUSH2 0x72A JUMPI PUSH1 0x0 DUP1 REVERT JUMPDEST POP PUSH2 0x2CD PUSH2 0x739 CALLDATASIZE PUSH1 0x4 PUSH2 0x5CEC JUMP JUMPDEST PUSH2 0x1CD7 JUMP JUMPDEST CALLVALUE DUP1 ISZERO PUSH2 0x74A JUMPI PUSH1 0x0 DUP1 REVERT JUMPDEST POP PUSH1 0x4 SLOAD PUSH2 0x342 JUMP JUMPDEST PUSH2 0x342 PUSH2 0x761 CALLDATASIZE PUSH1 0x4 PUSH2 0x5CB7 JUMP JUMPDEST PUSH2 0x1D2F JUMP JUMPDEST CALLVALUE DUP1 ISZERO PUSH2 0x772 JUMPI PUSH1 0x0 DUP1 REVERT JUMPDEST POP PUSH2 0x786 PUSH2 0x781 CALLDATASIZE PUSH1 0x4 PUSH2 0x5EF6 JUMP JUMPDEST PUSH2 0x1E81 JUMP JUMPDEST PUSH1 0x40 MLOAD PUSH2 0x34C SWAP2 SWAP1 PUSH2 0x63E9 JUMP JUMPDEST CALLVALUE DUP1 ISZERO PUSH2 0x79F JUMPI PUSH1 0x0 DUP1 REVERT JUMPDEST POP PUSH2 0x43B PUSH2 0x7AE CALLDATASIZE PUSH1 0x4 PUSH2 0x5C04 JUMP JUMPDEST PUSH2 0x1EC2 JUMP JUMPDEST CALLVALUE DUP1 ISZERO PUSH2 0x7BF JUMPI PUSH1 0x0 DUP1 REVERT JUMPDEST POP PUSH2 0x711 PUSH2 0x7CE CALLDATASIZE PUSH1 0x4 PUSH2 0x5CEC JUMP JUMPDEST PUSH2 0x1F7C JUMP JUMPDEST CALLVALUE DUP1 ISZERO PUSH2 0x7DF JUMPI PUSH1 0x0 DUP1 REVERT JUMPDEST POP PUSH2 0x2CD PUSH2 0x7EE CALLDATASIZE PUSH1 0x4 PUSH2 0x5F18 JUMP JUMPDEST PUSH2 0x1FE9 JUMP JUMPDEST CALLVALUE DUP1 ISZERO PUSH2 0x7FF JUMPI PUSH1 0x0 DUP1 REVERT JUMPDEST POP PUSH2 0x813 PUSH2 0x80E CALLDATASIZE PUSH1 0x4 PUSH2 0x5CEC JUMP JUMPDEST PUSH2 0x20B4 JUMP JUMPDEST PUSH1 0x40 MLOAD PUSH2 0x34C SWAP2 SWAP1 PUSH2 0x63B4 JUMP JUMPDEST CALLVALUE DUP1 ISZERO PUSH2 0x82C JUMPI PUSH1 0x0 DUP1 REVERT JUMPDEST POP PUSH2 0x840 PUSH2 0x83B CALLDATASIZE PUSH1 0x4 PUSH2 0x5CEC JUMP JUMPDEST PUSH2 0x2365 JUMP JUMPDEST PUSH1 0x40 MLOAD PUSH2 0x34C SWAP2 SWAP1 PUSH2 0x6447 JUMP JUMPDEST CALLVALUE DUP1 ISZERO PUSH2 0x859 JUMPI PUSH1 0x0 DUP1 REVERT JUMPDEST POP PUSH2 0x342 PUSH2 0x868 CALLDATASIZE PUSH1 0x4 PUSH2 0x5CEC JUMP JUMPDEST PUSH1 0x0 SWAP1 DUP2 MSTORE PUSH1 0x2 PUSH1 0x20 MSTORE PUSH1 0x40 SWAP1 KECCAK256 PUSH1 0xD ADD SLOAD SWAP1 JUMP JUMPDEST CALLVALUE DUP1 ISZERO PUSH2 0x889 JUMPI PUSH1 0x0 DUP1 REVERT JUMPDEST POP PUSH2 0x342 PUSH2 0x898 CALLDATASIZE PUSH1 0x4 PUSH2 0x5C04 JUMP JUMPDEST PUSH1 0x1 PUSH1 0x1 PUSH1 0xA0 SHL SUB AND PUSH1 0x0 SWAP1 DUP2 MSTORE PUSH1 0x3 PUSH1 0x20 MSTORE PUSH1 0x40 SWAP1 KECCAK256 SLOAD SWAP1 JUMP JUMPDEST CALLVALUE DUP1 ISZERO PUSH2 0x8BF JUMPI PUSH1 0x0 DUP1 REVERT JUMPDEST POP PUSH2 0x2CD PUSH2 0x8CE CALLDATASIZE PUSH1 0x4 PUSH2 0x5C04 JUMP JUMPDEST PUSH2 0x23CE JUMP JUMPDEST CALLVALUE DUP1 ISZERO PUSH2 0x8DF JUMPI PUSH1 0x0 DUP1 REVERT JUMPDEST POP PUSH2 0x342 PUSH2 0x8EE CALLDATASIZE PUSH1 0x4 PUSH2 0x5CEC JUMP JUMPDEST PUSH1 0x0 SWAP1 DUP2 MSTORE PUSH1 0x2 PUSH1 0x20 MSTORE PUSH1 0x40 SWAP1 KECCAK256 PUSH1 0xE ADD SLOAD SWAP1 JUMP JUMPDEST CALLVALUE DUP1 ISZERO PUSH2 0x90F JUMPI PUSH1 0x0 DUP1 REVERT JUMPDEST POP PUSH2 0x2CD PUSH2 0x91E CALLDATASIZE PUSH1 0x4 PUSH2 0x5E4F JUMP JUMPDEST PUSH2 0x245B JUMP JUMPDEST CALLVALUE DUP1 ISZERO PUSH2 0x92F JUMPI PUSH1 0x0 DUP1 REVERT JUMPDEST POP PUSH2 0x95C PUSH2 0x93E CALLDATASIZE PUSH1 0x4 PUSH2 0x5CEC JUMP JUMPDEST PUSH1 0x0 SWAP1 DUP2 MSTORE PUSH1 0x2 PUSH1 0x20 MSTORE PUSH1 0x40 SWAP1 KECCAK256 PUSH1 0x15 ADD SLOAD PUSH3 0x10000 SWAP1 DIV PUSH1 0xFF AND SWAP1 JUMP JUMPDEST PUSH1 0x40 MLOAD PUSH2 0x34C SWAP2 SWAP1 PUSH2 0x63F7 JUMP JUMPDEST DUP2 PUSH2 0x973 PUSH1 0x4 SLOAD SWAP1 JUMP JUMPDEST DUP2 GT ISZERO PUSH2 0x9BD JUMPI PUSH1 0x40 MLOAD PUSH4 0x347626DD PUSH1 0xE2 SHL DUP2 MSTORE PUSH1 0x20 PUSH1 0x4 DUP3 ADD MSTORE PUSH1 0x12 PUSH1 0x24 DUP3 ADD MSTORE PUSH18 0x57726F6E6720696E6465782076616C756521 PUSH1 0x70 SHL PUSH1 0x44 DUP3 ADD MSTORE PUSH1 0x64 ADD JUMPDEST PUSH1 0x40 MLOAD DUP1 SWAP2 SUB SWAP1 REVERT JUMPDEST DUP3 CALLER PUSH2 0x9C8 DUP3 PUSH2 0x2604 JUMP JUMPDEST MLOAD PUSH1 0x1 PUSH1 0x1 PUSH1 0xA0 SHL SUB AND EQ PUSH2 0xA1F JUMPI PUSH1 0x40 MLOAD PUSH3 0x461BCD PUSH1 0xE5 SHL DUP2 MSTORE PUSH1 0x20 PUSH1 0x4 DUP3 ADD MSTORE PUSH1 0xA PUSH1 0x24 DUP3 ADD MSTORE PUSH32 0x4F6E6C7920627579657200000000000000000000000000000000000000000000 PUSH1 0x44 DUP3 ADD MSTORE PUSH1 0x64 ADD PUSH2 0x9B4 JUMP JUMPDEST PUSH2 0xA29 DUP5 DUP5 PUSH2 0x2D9F JUMP JUMPDEST PUSH1 0x0 PUSH2 0xA3B DUP5 PUSH2 0x160 ADD MLOAD PUSH1 0x1E PUSH2 0x2DE8 JUMP JUMPDEST SWAP1 POP PUSH2 0xA4F DUP2 PUSH8 0xDE0B6B3A7640000 PUSH2 0x6845 JUMP JUMPDEST CALLVALUE EQ PUSH2 0xAA6 JUMPI PUSH1 0x40 DUP1 MLOAD PUSH4 0x79D3124B PUSH1 0xE0 SHL DUP2 MSTORE PUSH1 0x4 DUP2 ADD SWAP2 SWAP1 SWAP2 MSTORE PUSH1 0xF PUSH1 0x44 DUP3 ADD MSTORE PUSH32 0x496E636F72726563742076616C75650000000000000000000000000000000000 PUSH1 0x64 DUP3 ADD MSTORE CALLVALUE PUSH1 0x24 DUP3 ADD MSTORE PUSH1 0x84 ADD PUSH2 0x9B4 JUMP JUMPDEST PUSH2 0xAAE PUSH2 0xEE7 JUMP JUMPDEST POP POP POP POP POP JUMP JUMPDEST PUSH2 0xABD PUSH2 0x2E07 JUMP JUMPDEST PUSH1 0x1 DUP1 SLOAD PUSH20 0xFFFFFFFFFFFFFFFFFFFFFFFFFFFFFFFFFFFFFFFF NOT AND PUSH1 0x1 PUSH1 0x1 PUSH1 0xA0 SHL SUB SWAP3 SWAP1 SWAP3 AND SWAP2 SWAP1 SWAP2 OR SWAP1 SSTORE JUMP JUMPDEST PUSH2 0xAF5 DUP2 PUSH2 0x2E61 JUMP JUMPDEST POP JUMP JUMPDEST PUSH1 0x0 DUP3 DUP2 MSTORE PUSH1 0x2 PUSH1 0x20 SWAP1 DUP2 MSTORE PUSH1 0x40 DUP1 DUP4 KECCAK256 PUSH1 0x1 PUSH1 0x1 PUSH1 0xA0 SHL SUB DUP6 AND DUP5 MSTORE PUSH1 0xF ADD SWAP1 SWAP2 MSTORE SWAP1 KECCAK256 SLOAD JUMPDEST SWAP3 SWAP2 POP POP JUMP JUMPDEST DUP5 PUSH2 0xB2F PUSH1 0x4 SLOAD SWAP1 JUMP JUMPDEST DUP2 GT ISZERO PUSH2 0xB74 JUMPI PUSH1 0x40 MLOAD PUSH4 0x347626DD PUSH1 0xE2 SHL DUP2 MSTORE PUSH1 0x20 PUSH1 0x4 DUP3 ADD MSTORE PUSH1 0x12 PUSH1 0x24 DUP3 ADD MSTORE PUSH18 0x57726F6E6720696E6465782076616C756521 PUSH1 0x70 SHL PUSH1 0x44 DUP3 ADD MSTORE PUSH1 0x64 ADD PUSH2 0x9B4 JUMP JUMPDEST PUSH1 0x0 PUSH2 0xB80 DUP8 DUP7 PUSH2 0x1E81 JUMP JUMPDEST SWAP1 POP PUSH1 0x7 DUP2 PUSH1 0xB DUP2 GT ISZERO PUSH2 0xB96 JUMPI PUSH2 0xB96 PUSH2 0x68E1 JUMP JUMPDEST GT ISZERO PUSH2 0xBE5 JUMPI PUSH1 0x40 MLOAD PUSH4 0xB4644DD9 PUSH1 0xE0 SHL DUP2 MSTORE PUSH1 0x20 PUSH1 0x4 DUP3 ADD MSTORE PUSH1 0x10 PUSH1 0x24 DUP3 ADD MSTORE PUSH32 0x756E61626C6520746F207375626D697400000000000000000000000000000000 PUSH1 0x44 DUP3 ADD MSTORE PUSH1 0x64 ADD PUSH2 0x9B4 JUMP JUMPDEST PUSH1 0x0 PUSH2 0xBF4 DUP9 DUP9 DUP9 DUP9 DUP9 PUSH2 0x2EB6 JUMP JUMPDEST SWAP1 POP DUP1 ISZERO PUSH2 0xC06 JUMPI PUSH2 0xC06 DUP8 DUP3 PUSH2 0x2F48 JUMP JUMPDEST POP POP POP POP POP POP POP POP JUMP JUMPDEST PUSH2 0xC18 PUSH2 0x2E07 JUMP JUMPDEST PUSH2 0xAF5 DUP2 PUSH2 0x3078 JUMP JUMPDEST PUSH1 0x0 DUP3 PUSH2 0xC2D PUSH1 0x4 SLOAD SWAP1 JUMP JUMPDEST DUP2 GT ISZERO PUSH2 0xC72 JUMPI PUSH1 0x40 MLOAD PUSH4 0x347626DD PUSH1 0xE2 SHL DUP2 MSTORE PUSH1 0x20 PUSH1 0x4 DUP3 ADD MSTORE PUSH1 0x12 PUSH1 0x24 DUP3 ADD MSTORE PUSH18 0x57726F6E6720696E6465782076616C756521 PUSH1 0x70 SHL PUSH1 0x44 DUP3 ADD MSTORE PUSH1 0x64 ADD PUSH2 0x9B4 JUMP JUMPDEST PUSH1 0x0 PUSH2 0xC7E DUP6 DUP6 PUSH2 0x3158 JUMP JUMPDEST SWAP1 POP PUSH2 0xC8A DUP5 DUP3 PUSH2 0x337C JUMP JUMPDEST SWAP5 SWAP4 POP POP POP POP JUMP JUMPDEST PUSH2 0xC9B CALLER PUSH2 0x1EC2 JUMP JUMPDEST PUSH2 0xCE8 JUMPI PUSH1 0x40 MLOAD PUSH4 0x934F2C3 PUSH1 0xE0 SHL DUP2 MSTORE PUSH1 0x20 PUSH1 0x4 DUP3 ADD MSTORE PUSH1 0x12 PUSH1 0x24 DUP3 ADD MSTORE PUSH32 0x4E6F7420486176652050617373204E4654210000000000000000000000000000 PUSH1 0x44 DUP3 ADD MSTORE PUSH1 0x64 ADD PUSH2 0x9B4 JUMP JUMPDEST DUP2 PUSH2 0xCF2 PUSH1 0x4 SLOAD SWAP1 JUMP JUMPDEST DUP2 GT ISZERO PUSH2 0xD37 JUMPI PUSH1 0x40 MLOAD PUSH4 0x347626DD PUSH1 0xE2 SHL DUP2 MSTORE PUSH1 0x20 PUSH1 0x4 DUP3 ADD MSTORE PUSH1 0x12 PUSH1 0x24 DUP3 ADD MSTORE PUSH18 0x57726F6E6720696E6465782076616C756521 PUSH1 0x70 SHL PUSH1 0x44 DUP3 ADD MSTORE PUSH1 0x64 ADD PUSH2 0x9B4 JUMP JUMPDEST PUSH1 0x0 DUP4 DUP2 MSTORE PUSH1 0x2 PUSH1 0x20 MSTORE PUSH1 0x40 SWAP1 KECCAK256 PUSH1 0x15 ADD SLOAD DUP4 SWAP1 PUSH2 0x100 SWAP1 DIV PUSH1 0xFF AND PUSH2 0xDA0 JUMPI PUSH1 0x40 MLOAD PUSH4 0xB4644DD9 PUSH1 0xE0 SHL DUP2 MSTORE PUSH1 0x20 PUSH1 0x4 DUP3 ADD MSTORE PUSH1 0x12 PUSH1 0x24 DUP3 ADD MSTORE PUSH32 0x43616E27742072656365697665207461736B0000000000000000000000000000 PUSH1 0x44 DUP3 ADD MSTORE PUSH1 0x64 ADD PUSH2 0x9B4 JUMP JUMPDEST CALLER PUSH1 0x0 DUP2 DUP2 MSTORE PUSH1 0x3 PUSH1 0x20 MSTORE PUSH1 0x40 SWAP1 KECCAK256 SLOAD DUP1 ISZERO PUSH2 0xDFF JUMPI PUSH1 0x40 MLOAD PUSH4 0x934F2C3 PUSH1 0xE0 SHL DUP2 MSTORE PUSH1 0x20 PUSH1 0x4 DUP3 ADD MSTORE PUSH1 0xF PUSH1 0x24 DUP3 ADD MSTORE PUSH32 0x756E706169642070656E616C7479210000000000000000000000000000000000 PUSH1 0x44 DUP3 ADD MSTORE PUSH1 0x64 ADD PUSH2 0x9B4 JUMP JUMPDEST PUSH2 0xE0A DUP7 DUP7 CALLER PUSH2 0x33AD JUMP JUMPDEST PUSH32 0x8E913351AA76002E572CC432B46556976F6E10285B52F94909124EA8EBD0B795 DUP7 DUP7 CALLER PUSH1 0x0 PUSH1 0x40 MLOAD PUSH2 0xE40 SWAP5 SWAP4 SWAP3 SWAP2 SWAP1 PUSH2 0x66AE JUMP JUMPDEST PUSH1 0x40 MLOAD DUP1 SWAP2 SUB SWAP1 LOG1 POP POP POP POP POP POP JUMP JUMPDEST PUSH1 0x1 PUSH1 0x1 PUSH1 0xA0 SHL SUB DUP2 AND PUSH1 0x0 SWAP1 DUP2 MSTORE PUSH1 0x3 PUSH1 0x20 MSTORE PUSH1 0x40 SWAP1 KECCAK256 SLOAD PUSH2 0xE7B SWAP1 PUSH8 0xDE0B6B3A7640000 PUSH2 0x6845 JUMP JUMPDEST CALLVALUE GT ISZERO PUSH2 0xED3 JUMPI PUSH1 0x40 DUP1 MLOAD PUSH4 0x79D3124B PUSH1 0xE0 SHL DUP2 MSTORE PUSH1 0x4 DUP2 ADD SWAP2 SWAP1 SWAP2 MSTORE PUSH1 0x11 PUSH1 0x44 DUP3 ADD MSTORE PUSH32 0x76616C756520697320746F6F2068696768000000000000000000000000000000 PUSH1 0x64 DUP3 ADD MSTORE CALLVALUE PUSH1 0x24 DUP3 ADD MSTORE PUSH1 0x84 ADD PUSH2 0x9B4 JUMP JUMPDEST PUSH2 0xEDD DUP2 CALLVALUE PUSH2 0x3839 JUMP JUMPDEST PUSH2 0xAF5 DUP2 CALLVALUE PUSH2 0x3861 JUMP JUMPDEST PUSH1 0x40 MLOAD PUSH1 0x0 SWAP1 ADDRESS SWAP1 CALLVALUE SWAP1 DUP4 DUP2 DUP2 DUP2 DUP6 DUP8 GAS CALL SWAP3 POP POP POP RETURNDATASIZE DUP1 PUSH1 0x0 DUP2 EQ PUSH2 0xF29 JUMPI PUSH1 0x40 MLOAD SWAP2 POP PUSH1 0x1F NOT PUSH1 0x3F RETURNDATASIZE ADD AND DUP3 ADD PUSH1 0x40 MSTORE RETURNDATASIZE DUP3 MSTORE RETURNDATASIZE PUSH1 0x0 PUSH1 0x20 DUP5 ADD RETURNDATACOPY PUSH2 0xF2E JUMP JUMPDEST PUSH1 0x60 SWAP2 POP JUMPDEST POP POP SWAP1 POP DUP1 PUSH2 0xF6D JUMPI PUSH1 0x40 MLOAD PUSH3 0x461BCD PUSH1 0xE5 SHL DUP2 MSTORE PUSH1 0x20 PUSH1 0x4 DUP3 ADD MSTORE PUSH1 0xB PUSH1 0x24 DUP3 ADD MSTORE PUSH11 0x10D85B1B0819985A5B1959 PUSH1 0xAA SHL PUSH1 0x44 DUP3 ADD MSTORE PUSH1 0x64 ADD PUSH2 0x9B4 JUMP JUMPDEST PUSH1 0x40 DUP1 MLOAD CALLER DUP2 MSTORE ADDRESS PUSH1 0x20 DUP3 ADD MSTORE CALLVALUE SWAP2 DUP2 ADD SWAP2 SWAP1 SWAP2 MSTORE PUSH32 0xB37BD6F3CCFCE130859D4569DC432409F423A7928E73EB5C5049A94E40F0C648 SWAP1 PUSH1 0x60 ADD JUMPDEST PUSH1 0x40 MLOAD DUP1 SWAP2 SUB SWAP1 LOG1 POP JUMP JUMPDEST PUSH1 0x0 DUP3 PUSH2 0xFBF PUSH1 0x4 SLOAD SWAP1 JUMP JUMPDEST DUP2 GT ISZERO PUSH2 0x1004 JUMPI PUSH1 0x40 MLOAD PUSH4 0x347626DD PUSH1 0xE2 SHL DUP2 MSTORE PUSH1 0x20 PUSH1 0x4 DUP3 ADD MSTORE PUSH1 0x12 PUSH1 0x24 DUP3 ADD MSTORE PUSH18 0x57726F6E6720696E6465782076616C756521 PUSH1 0x70 SHL PUSH1 0x44 DUP3 ADD MSTORE PUSH1 0x64 ADD PUSH2 0x9B4 JUMP JUMPDEST PUSH1 0x0 PUSH2 0xC7E DUP6 DUP6 PUSH2 0x3A10 JUMP JUMPDEST PUSH2 0x103D PUSH1 0x40 MLOAD DUP1 PUSH1 0x60 ADD PUSH1 0x40 MSTORE DUP1 PUSH1 0x0 PUSH1 0x1 PUSH1 0x1 PUSH1 0xA0 SHL SUB AND DUP2 MSTORE PUSH1 0x20 ADD PUSH1 0x60 DUP2 MSTORE PUSH1 0x20 ADD PUSH1 0x60 DUP2 MSTORE POP SWAP1 JUMP JUMPDEST PUSH2 0x106A PUSH1 0x40 MLOAD DUP1 PUSH1 0x60 ADD PUSH1 0x40 MSTORE DUP1 PUSH1 0x0 PUSH1 0x1 PUSH1 0x1 PUSH1 0xA0 SHL SUB AND DUP2 MSTORE PUSH1 0x20 ADD PUSH1 0x60 DUP2 MSTORE PUSH1 0x20 ADD PUSH1 0x60 DUP2 MSTORE POP SWAP1 JUMP JUMPDEST PUSH1 0x1 PUSH1 0x1 PUSH1 0xA0 SHL SUB DUP4 AND DUP1 DUP3 MSTORE PUSH1 0x0 DUP6 DUP2 MSTORE PUSH1 0x2 PUSH1 0x20 SWAP1 DUP2 MSTORE PUSH1 0x40 DUP1 DUP4 KECCAK256 SWAP4 DUP4 MSTORE PUSH1 0xF SWAP1 SWAP4 ADD DUP2 MSTORE SWAP1 DUP3 SWAP1 KECCAK256 DUP1 SLOAD DUP4 MLOAD DUP2 DUP5 MUL DUP2 ADD DUP5 ADD SWAP1 SWAP5 MSTORE DUP1 DUP5 MSTORE SWAP1 SWAP2 DUP4 ADD DUP3 DUP3 DUP1 ISZERO PUSH2 0x10D8 JUMPI PUSH1 0x20 MUL DUP3 ADD SWAP2 SWAP1 PUSH1 0x0 MSTORE PUSH1 0x20 PUSH1 0x0 KECCAK256 SWAP1 JUMPDEST DUP2 SLOAD DUP2 MSTORE PUSH1 0x20 ADD SWAP1 PUSH1 0x1 ADD SWAP1 DUP1 DUP4 GT PUSH2 0x10C4 JUMPI JUMPDEST POP POP POP POP PUSH1 0x20 DUP4 ADD DUP3 SWAP1 MSTORE POP MLOAD PUSH1 0x0 SWAP1 PUSH8 0xFFFFFFFFFFFFFFFF DUP2 GT ISZERO PUSH2 0x1100 JUMPI PUSH2 0x1100 PUSH2 0x690D JUMP JUMPDEST PUSH1 0x40 MLOAD SWAP1 DUP1 DUP3 MSTORE DUP1 PUSH1 0x20 MUL PUSH1 0x20 ADD DUP3 ADD PUSH1 0x40 MSTORE DUP1 ISZERO PUSH2 0x1146 JUMPI DUP2 PUSH1 0x20 ADD JUMPDEST PUSH1 0x40 DUP1 MLOAD DUP1 DUP3 ADD SWAP1 SWAP2 MSTORE PUSH1 0x0 DUP2 MSTORE PUSH1 0x60 PUSH1 0x20 DUP3 ADD MSTORE DUP2 MSTORE PUSH1 0x20 ADD SWAP1 PUSH1 0x1 SWAP1 SUB SWAP1 DUP2 PUSH2 0x111E JUMPI SWAP1 POP JUMPDEST POP SWAP1 POP PUSH1 0x0 JUMPDEST DUP3 PUSH1 0x20 ADD MLOAD MLOAD DUP2 LT ISZERO PUSH2 0x131D JUMPI PUSH1 0x0 DUP7 DUP2 MSTORE PUSH1 0x2 PUSH1 0x20 SWAP1 DUP2 MSTORE PUSH1 0x40 DUP1 DUP4 KECCAK256 PUSH1 0x1 PUSH1 0x1 PUSH1 0xA0 SHL SUB DUP10 AND DUP5 MSTORE PUSH1 0xF ADD DUP3 MSTORE DUP3 KECCAK256 SWAP1 DUP6 ADD MLOAD DUP1 MLOAD PUSH1 0x1 SWAP1 SWAP3 ADD SWAP3 SWAP2 DUP5 SWAP1 DUP2 LT PUSH2 0x119A JUMPI PUSH2 0x119A PUSH2 0x68F7 JUMP JUMPDEST PUSH1 0x20 MUL PUSH1 0x20 ADD ADD MLOAD DUP2 MSTORE PUSH1 0x20 ADD SWAP1 DUP2 MSTORE PUSH1 0x20 ADD PUSH1 0x0 KECCAK256 PUSH1 0x0 ADD PUSH1 0x0 SWAP1 SLOAD SWAP1 PUSH2 0x100 EXP SWAP1 DIV PUSH1 0xFF AND DUP3 DUP3 DUP2 MLOAD DUP2 LT PUSH2 0x11D3 JUMPI PUSH2 0x11D3 PUSH2 0x68F7 JUMP JUMPDEST PUSH1 0x20 MUL PUSH1 0x20 ADD ADD MLOAD PUSH1 0x0 ADD SWAP1 PUSH1 0x4 DUP2 GT ISZERO PUSH2 0x11F0 JUMPI PUSH2 0x11F0 PUSH2 0x68E1 JUMP JUMPDEST SWAP1 DUP2 PUSH1 0x4 DUP2 GT ISZERO PUSH2 0x1203 JUMPI PUSH2 0x1203 PUSH2 0x68E1 JUMP JUMPDEST SWAP1 MSTORE POP PUSH1 0x0 DUP7 DUP2 MSTORE PUSH1 0x2 PUSH1 0x20 SWAP1 DUP2 MSTORE PUSH1 0x40 DUP1 DUP4 KECCAK256 PUSH1 0x1 PUSH1 0x1 PUSH1 0xA0 SHL SUB DUP10 AND DUP5 MSTORE PUSH1 0xF ADD DUP3 MSTORE DUP3 KECCAK256 SWAP1 DUP6 ADD MLOAD DUP1 MLOAD PUSH1 0x1 SWAP1 SWAP3 ADD SWAP3 SWAP2 DUP5 SWAP1 DUP2 LT PUSH2 0x1247 JUMPI PUSH2 0x1247 PUSH2 0x68F7 JUMP JUMPDEST PUSH1 0x20 MUL PUSH1 0x20 ADD ADD MLOAD DUP2 MSTORE PUSH1 0x20 ADD SWAP1 DUP2 MSTORE PUSH1 0x20 ADD PUSH1 0x0 KECCAK256 PUSH1 0x1 ADD DUP1 SLOAD PUSH2 0x126B SWAP1 PUSH2 0x687B JUMP JUMPDEST DUP1 PUSH1 0x1F ADD PUSH1 0x20 DUP1 SWAP2 DIV MUL PUSH1 0x20 ADD PUSH1 0x40 MLOAD SWAP1 DUP2 ADD PUSH1 0x40 MSTORE DUP1 SWAP3 SWAP2 SWAP1 DUP2 DUP2 MSTORE PUSH1 0x20 ADD DUP3 DUP1 SLOAD PUSH2 0x1297 SWAP1 PUSH2 0x687B JUMP JUMPDEST DUP1 ISZERO PUSH2 0x12E4 JUMPI DUP1 PUSH1 0x1F LT PUSH2 0x12B9 JUMPI PUSH2 0x100 DUP1 DUP4 SLOAD DIV MUL DUP4 MSTORE SWAP2 PUSH1 0x20 ADD SWAP2 PUSH2 0x12E4 JUMP JUMPDEST DUP3 ADD SWAP2 SWAP1 PUSH1 0x0 MSTORE PUSH1 0x20 PUSH1 0x0 KECCAK256 SWAP1 JUMPDEST DUP2 SLOAD DUP2 MSTORE SWAP1 PUSH1 0x1 ADD SWAP1 PUSH1 0x20 ADD DUP1 DUP4 GT PUSH2 0x12C7 JUMPI DUP3 SWAP1 SUB PUSH1 0x1F AND DUP3 ADD SWAP2 JUMPDEST POP POP POP POP POP DUP3 DUP3 DUP2 MLOAD DUP2 LT PUSH2 0x12FB JUMPI PUSH2 0x12FB PUSH2 0x68F7 JUMP JUMPDEST PUSH1 0x20 MUL PUSH1 0x20 ADD ADD MLOAD PUSH1 0x20 ADD DUP2 SWAP1 MSTORE POP DUP1 DUP1 PUSH2 0x1315 SWAP1 PUSH2 0x68B0 JUMP JUMPDEST SWAP2 POP POP PUSH2 0x114C JUMP JUMPDEST POP PUSH1 0x40 DUP3 ADD MSTORE SWAP4 SWAP3 POP POP POP JUMP JUMPDEST DUP5 PUSH2 0x1334 PUSH1 0x4 SLOAD SWAP1 JUMP JUMPDEST DUP2 GT ISZERO PUSH2 0x1379 JUMPI PUSH1 0x40 MLOAD PUSH4 0x347626DD PUSH1 0xE2 SHL DUP2 MSTORE PUSH1 0x20 PUSH1 0x4 DUP3 ADD MSTORE PUSH1 0x12 PUSH1 0x24 DUP3 ADD MSTORE PUSH18 0x57726F6E6720696E6465782076616C756521 PUSH1 0x70 SHL PUSH1 0x44 DUP3 ADD MSTORE PUSH1 0x64 ADD PUSH2 0x9B4 JUMP JUMPDEST DUP6 CALLER PUSH2 0x1384 DUP3 PUSH2 0x2604 JUMP JUMPDEST MLOAD PUSH1 0x1 PUSH1 0x1 PUSH1 0xA0 SHL SUB AND EQ PUSH2 0x13DB JUMPI PUSH1 0x40 MLOAD PUSH3 0x461BCD PUSH1 0xE5 SHL DUP2 MSTORE PUSH1 0x20 PUSH1 0x4 DUP3 ADD MSTORE PUSH1 0xA PUSH1 0x24 DUP3 ADD MSTORE PUSH32 0x4F6E6C7920627579657200000000000000000000000000000000000000000000 PUSH1 0x44 DUP3 ADD MSTORE PUSH1 0x64 ADD PUSH2 0x9B4 JUMP JUMPDEST PUSH1 0x0 DUP8 DUP2 MSTORE PUSH1 0x2 PUSH1 0x20 MSTORE PUSH1 0x40 DUP2 KECCAK256 PUSH1 0xA ADD SLOAD PUSH2 0x100 SWAP1 DIV PUSH1 0xFF AND ISZERO PUSH2 0x140B JUMPI PUSH2 0x1404 DUP9 DUP8 PUSH2 0x150F JUMP JUMPDEST SWAP1 POP PUSH2 0x141F JUMP JUMPDEST POP PUSH1 0x0 DUP8 DUP2 MSTORE PUSH1 0x2 PUSH1 0x20 MSTORE PUSH1 0x40 SWAP1 KECCAK256 PUSH1 0xB ADD SLOAD JUMPDEST PUSH2 0x142B DUP9 DUP9 DUP9 DUP9 PUSH2 0x3B11 JUMP JUMPDEST DUP5 ISZERO PUSH2 0xC06 JUMPI PUSH1 0x0 PUSH2 0x144F PUSH2 0x1448 DUP4 PUSH8 0xDE0B6B3A7640000 PUSH2 0x6845 JUMP JUMPDEST PUSH1 0x46 PUSH2 0x2DE8 JUMP JUMPDEST SWAP1 POP DUP1 CALLVALUE LT ISZERO PUSH2 0x14AA JUMPI PUSH1 0x40 DUP1 MLOAD PUSH4 0x79D3124B PUSH1 0xE0 SHL DUP2 MSTORE PUSH1 0x4 DUP2 ADD SWAP2 SWAP1 SWAP2 MSTORE PUSH1 0x17 PUSH1 0x44 DUP3 ADD MSTORE PUSH32 0x6572726F72203A20496E636F72726563742076616C7565000000000000000000 PUSH1 0x64 DUP3 ADD MSTORE CALLVALUE PUSH1 0x24 DUP3 ADD MSTORE PUSH1 0x84 ADD PUSH2 0x9B4 JUMP JUMPDEST PUSH2 0x14B2 PUSH2 0xEE7 JUMP JUMPDEST PUSH1 0x0 PUSH2 0x14CE PUSH2 0x14C9 DUP5 PUSH8 0xDE0B6B3A7640000 PUSH2 0x6845 JUMP JUMPDEST PUSH2 0x3B3A JUMP JUMPDEST SWAP1 POP PUSH1 0x0 PUSH2 0x14EC PUSH2 0x14E7 DUP6 PUSH8 0xDE0B6B3A7640000 PUSH2 0x6845 JUMP JUMPDEST PUSH2 0x3B47 JUMP JUMPDEST SWAP1 POP PUSH2 0x14F8 DUP11 DUP4 PUSH2 0x2F48 JUMP JUMPDEST PUSH2 0x1502 DUP8 DUP3 PUSH2 0x2F48 JUMP JUMPDEST POP POP POP POP POP POP POP POP POP POP POP JUMP JUMPDEST PUSH1 0x0 DUP3 DUP2 MSTORE PUSH1 0x2 PUSH1 0x20 MSTORE PUSH1 0x40 DUP2 KECCAK256 PUSH1 0xC ADD DUP1 SLOAD DUP4 SWAP1 DUP2 LT PUSH2 0x1532 JUMPI PUSH2 0x1532 PUSH2 0x68F7 JUMP JUMPDEST SWAP1 PUSH1 0x0 MSTORE PUSH1 0x20 PUSH1 0x0 KECCAK256 SWAP1 PUSH1 0xB MUL ADD PUSH1 0x7 ADD SLOAD SWAP1 POP SWAP3 SWAP2 POP POP JUMP JUMPDEST PUSH2 0x1554 PUSH2 0x2E07 JUMP JUMPDEST PUSH2 0x155E PUSH1 0x0 PUSH2 0x3B54 JUMP JUMPDEST JUMP JUMPDEST PUSH2 0x158D PUSH1 0x40 MLOAD DUP1 PUSH1 0x60 ADD PUSH1 0x40 MSTORE DUP1 PUSH1 0x0 PUSH1 0x1 PUSH1 0x1 PUSH1 0xA0 SHL SUB AND DUP2 MSTORE PUSH1 0x20 ADD PUSH1 0x60 DUP2 MSTORE PUSH1 0x20 ADD PUSH1 0x60 DUP2 MSTORE POP SWAP1 JUMP JUMPDEST PUSH2 0x15BA PUSH1 0x40 MLOAD DUP1 PUSH1 0x60 ADD PUSH1 0x40 MSTORE DUP1 PUSH1 0x0 PUSH1 0x1 PUSH1 0x1 PUSH1 0xA0 SHL SUB AND DUP2 MSTORE PUSH1 0x20 ADD PUSH1 0x60 DUP2 MSTORE PUSH1 0x20 ADD PUSH1 0x60 DUP2 MSTORE POP SWAP1 JUMP JUMPDEST PUSH1 0x1 PUSH1 0x1 PUSH1 0xA0 SHL SUB DUP4 AND DUP1 DUP3 MSTORE PUSH1 0x0 DUP6 DUP2 MSTORE PUSH1 0x2 PUSH1 0x20 SWAP1 DUP2 MSTORE PUSH1 0x40 DUP1 DUP4 KECCAK256 SWAP4 DUP4 MSTORE PUSH1 0x10 SWAP1 SWAP4 ADD DUP2 MSTORE SWAP1 DUP3 SWAP1 KECCAK256 DUP1 SLOAD DUP4 MLOAD DUP2 DUP5 MUL DUP2 ADD DUP5 ADD SWAP1 SWAP5 MSTORE DUP1 DUP5 MSTORE SWAP1 SWAP2 DUP4 ADD DUP3 DUP3 DUP1 ISZERO PUSH2 0x1628 JUMPI PUSH1 0x20 MUL DUP3 ADD SWAP2 SWAP1 PUSH1 0x0 MSTORE PUSH1 0x20 PUSH1 0x0 KECCAK256 SWAP1 JUMPDEST DUP2 SLOAD DUP2 MSTORE PUSH1 0x20 ADD SWAP1 PUSH1 0x1 ADD SWAP1 DUP1 DUP4 GT PUSH2 0x1614 JUMPI JUMPDEST POP POP POP POP PUSH1 0x20 DUP4 ADD DUP3 SWAP1 MSTORE POP MLOAD PUSH1 0x0 SWAP1 PUSH8 0xFFFFFFFFFFFFFFFF DUP2 GT ISZERO PUSH2 0x1650 JUMPI PUSH2 0x1650 PUSH2 0x690D JUMP JUMPDEST PUSH1 0x40 MLOAD SWAP1 DUP1 DUP3 MSTORE DUP1 PUSH1 0x20 MUL PUSH1 0x20 ADD DUP3 ADD PUSH1 0x40 MSTORE DUP1 ISZERO PUSH2 0x1696 JUMPI DUP2 PUSH1 0x20 ADD JUMPDEST PUSH1 0x40 DUP1 MLOAD DUP1 DUP3 ADD SWAP1 SWAP2 MSTORE PUSH1 0x0 DUP2 MSTORE PUSH1 0x60 PUSH1 0x20 DUP3 ADD MSTORE DUP2 MSTORE PUSH1 0x20 ADD SWAP1 PUSH1 0x1 SWAP1 SUB SWAP1 DUP2 PUSH2 0x166E JUMPI SWAP1 POP JUMPDEST POP SWAP1 POP PUSH1 0x0 JUMPDEST DUP3 PUSH1 0x20 ADD MLOAD MLOAD DUP2 LT ISZERO PUSH2 0x131D JUMPI PUSH1 0x0 DUP7 DUP2 MSTORE PUSH1 0x2 PUSH1 0x20 SWAP1 DUP2 MSTORE PUSH1 0x40 DUP1 DUP4 KECCAK256 PUSH1 0x1 PUSH1 0x1 PUSH1 0xA0 SHL SUB DUP10 AND DUP5 MSTORE PUSH1 0x10 ADD DUP3 MSTORE DUP3 KECCAK256 SWAP1 DUP6 ADD MLOAD DUP1 MLOAD PUSH1 0x1 SWAP1 SWAP3 ADD SWAP3 SWAP2 DUP5 SWAP1 DUP2 LT PUSH2 0x16EA JUMPI PUSH2 0x16EA PUSH2 0x68F7 JUMP JUMPDEST PUSH1 0x20 MUL PUSH1 0x20 ADD ADD MLOAD DUP2 MSTORE PUSH1 0x20 ADD SWAP1 DUP2 MSTORE PUSH1 0x20 ADD PUSH1 0x0 KECCAK256 PUSH1 0x0 ADD PUSH1 0x0 SWAP1 SLOAD SWAP1 PUSH2 0x100 EXP SWAP1 DIV PUSH1 0xFF AND DUP3 DUP3 DUP2 MLOAD DUP2 LT PUSH2 0x1723 JUMPI PUSH2 0x1723 PUSH2 0x68F7 JUMP JUMPDEST PUSH1 0x20 MUL PUSH1 0x20 ADD ADD MLOAD PUSH1 0x0 ADD SWAP1 PUSH1 0x4 DUP2 GT ISZERO PUSH2 0x1740 JUMPI PUSH2 0x1740 PUSH2 0x68E1 JUMP JUMPDEST SWAP1 DUP2 PUSH1 0x4 DUP2 GT ISZERO PUSH2 0x1753 JUMPI PUSH2 0x1753 PUSH2 0x68E1 JUMP JUMPDEST SWAP1 MSTORE POP PUSH1 0x0 DUP7 DUP2 MSTORE PUSH1 0x2 PUSH1 0x20 SWAP1 DUP2 MSTORE PUSH1 0x40 DUP1 DUP4 KECCAK256 PUSH1 0x1 PUSH1 0x1 PUSH1 0xA0 SHL SUB DUP10 AND DUP5 MSTORE PUSH1 0x10 ADD DUP3 MSTORE DUP3 KECCAK256 SWAP1 DUP6 ADD MLOAD DUP1 MLOAD PUSH1 0x1 SWAP1 SWAP3 ADD SWAP3 SWAP2 DUP5 SWAP1 DUP2 LT PUSH2 0x1797 JUMPI PUSH2 0x1797 PUSH2 0x68F7 JUMP JUMPDEST PUSH1 0x20 MUL PUSH1 0x20 ADD ADD MLOAD DUP2 MSTORE PUSH1 0x20 ADD SWAP1 DUP2 MSTORE PUSH1 0x20 ADD PUSH1 0x0 KECCAK256 PUSH1 0x1 ADD DUP1 SLOAD PUSH2 0x17BB SWAP1 PUSH2 0x687B JUMP JUMPDEST DUP1 PUSH1 0x1F ADD PUSH1 0x20 DUP1 SWAP2 DIV MUL PUSH1 0x20 ADD PUSH1 0x40 MLOAD SWAP1 DUP2 ADD PUSH1 0x40 MSTORE DUP1 SWAP3 SWAP2 SWAP1 DUP2 DUP2 MSTORE PUSH1 0x20 ADD DUP3 DUP1 SLOAD PUSH2 0x17E7 SWAP1 PUSH2 0x687B JUMP JUMPDEST DUP1 ISZERO PUSH2 0x1834 JUMPI DUP1 PUSH1 0x1F LT PUSH2 0x1809 JUMPI PUSH2 0x100 DUP1 DUP4 SLOAD DIV MUL DUP4 MSTORE SWAP2 PUSH1 0x20 ADD SWAP2 PUSH2 0x1834 JUMP JUMPDEST DUP3 ADD SWAP2 SWAP1 PUSH1 0x0 MSTORE PUSH1 0x20 PUSH1 0x0 KECCAK256 SWAP1 JUMPDEST DUP2 SLOAD DUP2 MSTORE SWAP1 PUSH1 0x1 ADD SWAP1 PUSH1 0x20 ADD DUP1 DUP4 GT PUSH2 0x1817 JUMPI DUP3 SWAP1 SUB PUSH1 0x1F AND DUP3 ADD SWAP2 JUMPDEST POP POP POP POP POP DUP3 DUP3 DUP2 MLOAD DUP2 LT PUSH2 0x184B JUMPI PUSH2 0x184B PUSH2 0x68F7 JUMP JUMPDEST PUSH1 0x20 MUL PUSH1 0x20 ADD ADD MLOAD PUSH1 0x20 ADD DUP2 SWAP1 MSTORE POP DUP1 DUP1 PUSH2 0x1865 SWAP1 PUSH2 0x68B0 JUMP JUMPDEST SWAP2 POP POP PUSH2 0x169C JUMP JUMPDEST PUSH2 0x1875 PUSH2 0x2E07 JUMP JUMPDEST PUSH2 0x155E PUSH2 0x3BB1 JUMP JUMPDEST PUSH1 0x0 DUP2 ISZERO PUSH2 0x18A6 JUMPI POP PUSH1 0x0 DUP3 DUP2 MSTORE PUSH1 0x2 PUSH1 0x20 MSTORE PUSH1 0x40 SWAP1 KECCAK256 PUSH1 0x13 DUP2 ADD SLOAD PUSH1 0x11 SWAP1 SWAP2 ADD SLOAD GT ISZERO PUSH2 0xB1F JUMP JUMPDEST POP PUSH1 0x0 DUP3 DUP2 MSTORE PUSH1 0x2 PUSH1 0x20 MSTORE PUSH1 0x40 SWAP1 KECCAK256 PUSH1 0x14 DUP2 ADD SLOAD PUSH1 0x12 SWAP1 SWAP2 ADD SLOAD GT ISZERO PUSH2 0xB1F JUMP JUMPDEST DUP1 PUSH2 0x18D1 PUSH1 0x4 SLOAD SWAP1 JUMP JUMPDEST DUP2 GT ISZERO PUSH2 0x1916 JUMPI PUSH1 0x40 MLOAD PUSH4 0x347626DD PUSH1 0xE2 SHL DUP2 MSTORE PUSH1 0x20 PUSH1 0x4 DUP3 ADD MSTORE PUSH1 0x12 PUSH1 0x24 DUP3 ADD MSTORE PUSH18 0x57726F6E6720696E6465782076616C756521 PUSH1 0x70 SHL PUSH1 0x44 DUP3 ADD MSTORE PUSH1 0x64 ADD PUSH2 0x9B4 JUMP JUMPDEST PUSH2 0x191F DUP3 PUSH2 0x3C81 JUMP JUMPDEST POP POP POP JUMP JUMPDEST PUSH1 0x60 PUSH1 0x0 PUSH1 0x60 DUP1 PUSH1 0x0 DUP1 DUP7 ISZERO PUSH2 0x19A8 JUMPI PUSH1 0x0 DUP10 DUP2 MSTORE PUSH1 0x2 PUSH1 0x20 SWAP1 DUP2 MSTORE PUSH1 0x40 DUP1 DUP4 KECCAK256 PUSH1 0x1 PUSH1 0x1 PUSH1 0xA0 SHL SUB DUP13 AND DUP5 MSTORE PUSH1 0xF ADD DUP3 MSTORE SWAP2 DUP3 SWAP1 KECCAK256 DUP1 SLOAD DUP4 MLOAD DUP2 DUP5 MUL DUP2 ADD DUP5 ADD SWAP1 SWAP5 MSTORE DUP1 DUP5 MSTORE SWAP1 SWAP2 DUP4 ADD DUP3 DUP3 DUP1 ISZERO PUSH2 0x199C JUMPI PUSH1 0x20 MUL DUP3 ADD SWAP2 SWAP1 PUSH1 0x0 MSTORE PUSH1 0x20 PUSH1 0x0 KECCAK256 SWAP1 JUMPDEST DUP2 SLOAD DUP2 MSTORE PUSH1 0x20 ADD SWAP1 PUSH1 0x1 ADD SWAP1 DUP1 DUP4 GT PUSH2 0x1988 JUMPI JUMPDEST POP POP POP POP POP SWAP4 POP PUSH2 0x1A18 JUMP JUMPDEST PUSH1 0x0 DUP10 DUP2 MSTORE PUSH1 0x2 PUSH1 0x20 SWAP1 DUP2 MSTORE PUSH1 0x40 DUP1 DUP4 KECCAK256 PUSH1 0x1 PUSH1 0x1 PUSH1 0xA0 SHL SUB DUP13 AND DUP5 MSTORE PUSH1 0x10 ADD DUP3 MSTORE SWAP2 DUP3 SWAP1 KECCAK256 DUP1 SLOAD DUP4 MLOAD DUP2 DUP5 MUL DUP2 ADD DUP5 ADD SWAP1 SWAP5 MSTORE DUP1 DUP5 MSTORE SWAP1 SWAP2 DUP4 ADD DUP3 DUP3 DUP1 ISZERO PUSH2 0x1A10 JUMPI PUSH1 0x20 MUL DUP3 ADD SWAP2 SWAP1 PUSH1 0x0 MSTORE PUSH1 0x20 PUSH1 0x0 KECCAK256 SWAP1 JUMPDEST DUP2 SLOAD DUP2 MSTORE PUSH1 0x20 ADD SWAP1 PUSH1 0x1 ADD SWAP1 DUP1 DUP4 GT PUSH2 0x19FC JUMPI JUMPDEST POP POP POP POP POP SWAP4 POP JUMPDEST PUSH1 0x40 DUP1 MLOAD DUP1 DUP3 ADD SWAP1 SWAP2 MSTORE PUSH1 0x0 DUP2 MSTORE PUSH1 0x60 PUSH1 0x20 DUP3 ADD MSTORE PUSH1 0x0 JUMPDEST DUP6 MLOAD DUP2 LT ISZERO PUSH2 0x1C49 JUMPI PUSH1 0x0 DUP12 DUP2 MSTORE PUSH1 0x2 PUSH1 0x20 SWAP1 DUP2 MSTORE PUSH1 0x40 DUP1 DUP4 KECCAK256 PUSH1 0x1 PUSH1 0x1 PUSH1 0xA0 SHL SUB DUP15 AND DUP5 MSTORE PUSH1 0xF ADD SWAP1 SWAP2 MSTORE DUP2 KECCAK256 DUP8 MLOAD PUSH1 0x1 SWAP1 SWAP2 ADD SWAP2 SWAP1 DUP9 SWAP1 DUP5 SWAP1 DUP2 LT PUSH2 0x1A79 JUMPI PUSH2 0x1A79 PUSH2 0x68F7 JUMP JUMPDEST PUSH1 0x20 MUL PUSH1 0x20 ADD ADD MLOAD DUP2 MSTORE PUSH1 0x20 ADD SWAP1 DUP2 MSTORE PUSH1 0x20 ADD PUSH1 0x0 KECCAK256 PUSH1 0x40 MLOAD DUP1 PUSH1 0x40 ADD PUSH1 0x40 MSTORE SWAP1 DUP2 PUSH1 0x0 DUP3 ADD PUSH1 0x0 SWAP1 SLOAD SWAP1 PUSH2 0x100 EXP SWAP1 DIV PUSH1 0xFF AND PUSH1 0x4 DUP2 GT ISZERO PUSH2 0x1ABE JUMPI PUSH2 0x1ABE PUSH2 0x68E1 JUMP JUMPDEST PUSH1 0x4 DUP2 GT ISZERO PUSH2 0x1ACF JUMPI PUSH2 0x1ACF PUSH2 0x68E1 JUMP JUMPDEST DUP2 MSTORE PUSH1 0x20 ADD PUSH1 0x1 DUP3 ADD DUP1 SLOAD PUSH2 0x1AE3 SWAP1 PUSH2 0x687B JUMP JUMPDEST DUP1 PUSH1 0x1F ADD PUSH1 0x20 DUP1 SWAP2 DIV MUL PUSH1 0x20 ADD PUSH1 0x40 MLOAD SWAP1 DUP2 ADD PUSH1 0x40 MSTORE DUP1 SWAP3 SWAP2 SWAP1 DUP2 DUP2 MSTORE PUSH1 0x20 ADD DUP3 DUP1 SLOAD PUSH2 0x1B0F SWAP1 PUSH2 0x687B JUMP JUMPDEST DUP1 ISZERO PUSH2 0x1B5C JUMPI DUP1 PUSH1 0x1F LT PUSH2 0x1B31 JUMPI PUSH2 0x100 DUP1 DUP4 SLOAD DIV MUL DUP4 MSTORE SWAP2 PUSH1 0x20 ADD SWAP2 PUSH2 0x1B5C JUMP JUMPDEST DUP3 ADD SWAP2 SWAP1 PUSH1 0x0 MSTORE PUSH1 0x20 PUSH1 0x0 KECCAK256 SWAP1 JUMPDEST DUP2 SLOAD DUP2 MSTORE SWAP1 PUSH1 0x1 ADD SWAP1 PUSH1 0x20 ADD DUP1 DUP4 GT PUSH2 0x1B3F JUMPI DUP3 SWAP1 SUB PUSH1 0x1F AND DUP3 ADD SWAP2 JUMPDEST POP POP POP POP POP DUP2 MSTORE POP POP SWAP2 POP PUSH1 0x0 PUSH1 0x4 DUP2 GT ISZERO PUSH2 0x1B7A JUMPI PUSH2 0x1B7A PUSH2 0x68E1 JUMP JUMPDEST DUP3 MLOAD PUSH1 0x4 DUP2 GT ISZERO PUSH2 0x1B8D JUMPI PUSH2 0x1B8D PUSH2 0x68E1 JUMP JUMPDEST EQ ISZERO PUSH2 0x1C37 JUMPI DUP6 DUP2 DUP2 MLOAD DUP2 LT PUSH2 0x1BA5 JUMPI PUSH2 0x1BA5 PUSH2 0x68F7 JUMP JUMPDEST PUSH1 0x20 MUL PUSH1 0x20 ADD ADD MLOAD DUP6 DUP5 DUP2 MLOAD DUP2 LT PUSH2 0x1BBF JUMPI PUSH2 0x1BBF PUSH2 0x68F7 JUMP JUMPDEST PUSH1 0x20 SWAP1 DUP2 MUL SWAP2 SWAP1 SWAP2 ADD ADD MSTORE DUP3 PUSH2 0x1BD4 DUP2 PUSH2 0x68B0 JUMP JUMPDEST SWAP4 POP POP PUSH1 0x2 PUSH1 0x0 DUP13 DUP2 MSTORE PUSH1 0x20 ADD SWAP1 DUP2 MSTORE PUSH1 0x20 ADD PUSH1 0x0 KECCAK256 PUSH1 0xC ADD DUP7 DUP3 DUP2 MLOAD DUP2 LT PUSH2 0x1BFF JUMPI PUSH2 0x1BFF PUSH2 0x68F7 JUMP JUMPDEST PUSH1 0x20 MUL PUSH1 0x20 ADD ADD MLOAD DUP2 SLOAD DUP2 LT PUSH2 0x1C17 JUMPI PUSH2 0x1C17 PUSH2 0x68F7 JUMP JUMPDEST SWAP1 PUSH1 0x0 MSTORE PUSH1 0x20 PUSH1 0x0 KECCAK256 SWAP1 PUSH1 0xB MUL ADD PUSH1 0x7 ADD SLOAD DUP5 PUSH2 0x1C34 SWAP2 SWAP1 PUSH2 0x680B JUMP JUMPDEST SWAP4 POP JUMPDEST DUP1 PUSH2 0x1C41 DUP2 PUSH2 0x68B0 JUMP JUMPDEST SWAP2 POP POP PUSH2 0x1A30 JUMP JUMPDEST POP SWAP3 SWAP10 SWAP2 SWAP9 POP SWAP1 SWAP7 POP POP POP POP POP POP POP JUMP JUMPDEST PUSH2 0x1C64 DUP3 DUP3 PUSH2 0x3E79 JUMP JUMPDEST POP POP JUMP JUMPDEST PUSH1 0x0 DUP2 DUP2 MSTORE PUSH1 0x2 PUSH1 0x20 SWAP1 DUP2 MSTORE PUSH1 0x40 SWAP2 DUP3 SWAP1 KECCAK256 PUSH1 0xD ADD DUP1 SLOAD DUP4 MLOAD DUP2 DUP5 MUL DUP2 ADD DUP5 ADD SWAP1 SWAP5 MSTORE DUP1 DUP5 MSTORE PUSH1 0x60 SWAP4 SWAP3 DUP4 ADD DUP3 DUP3 DUP1 ISZERO PUSH2 0x1CCB JUMPI PUSH1 0x20 MUL DUP3 ADD SWAP2 SWAP1 PUSH1 0x0 MSTORE PUSH1 0x20 PUSH1 0x0 KECCAK256 SWAP1 JUMPDEST DUP2 SLOAD PUSH1 0x1 PUSH1 0x1 PUSH1 0xA0 SHL SUB AND DUP2 MSTORE PUSH1 0x1 SWAP1 SWAP2 ADD SWAP1 PUSH1 0x20 ADD DUP1 DUP4 GT PUSH2 0x1CAD JUMPI JUMPDEST POP POP POP POP POP SWAP1 POP SWAP2 SWAP1 POP JUMP JUMPDEST DUP1 PUSH2 0x1CE1 PUSH1 0x4 SLOAD SWAP1 JUMP JUMPDEST DUP2 GT ISZERO PUSH2 0x1D26 JUMPI PUSH1 0x40 MLOAD PUSH4 0x347626DD PUSH1 0xE2 SHL DUP2 MSTORE PUSH1 0x20 PUSH1 0x4 DUP3 ADD MSTORE PUSH1 0x12 PUSH1 0x24 DUP3 ADD MSTORE PUSH18 0x57726F6E6720696E6465782076616C756521 PUSH1 0x70 SHL PUSH1 0x44 DUP3 ADD MSTORE PUSH1 0x64 ADD PUSH2 0x9B4 JUMP JUMPDEST PUSH2 0x191F DUP3 PUSH2 0x3F0D JUMP JUMPDEST PUSH1 0x0 PUSH2 0x1D3A CALLER PUSH2 0x1EC2 JUMP JUMPDEST PUSH2 0x1D87 JUMPI PUSH1 0x40 MLOAD PUSH4 0x934F2C3 PUSH1 0xE0 SHL DUP2 MSTORE PUSH1 0x20 PUSH1 0x4 DUP3 ADD MSTORE PUSH1 0x12 PUSH1 0x24 DUP3 ADD MSTORE PUSH32 0x4E6F7420486176652050617373204E4654210000000000000000000000000000 PUSH1 0x44 DUP3 ADD MSTORE PUSH1 0x64 ADD PUSH2 0x9B4 JUMP JUMPDEST CALLER PUSH1 0x0 DUP2 DUP2 MSTORE PUSH1 0x3 PUSH1 0x20 MSTORE PUSH1 0x40 SWAP1 KECCAK256 SLOAD DUP1 ISZERO PUSH2 0x1DE6 JUMPI PUSH1 0x40 MLOAD PUSH4 0x934F2C3 PUSH1 0xE0 SHL DUP2 MSTORE PUSH1 0x20 PUSH1 0x4 DUP3 ADD MSTORE PUSH1 0xF PUSH1 0x24 DUP3 ADD MSTORE PUSH32 0x756E706169642070656E616C7479210000000000000000000000000000000000 PUSH1 0x44 DUP3 ADD MSTORE PUSH1 0x64 ADD PUSH2 0x9B4 JUMP JUMPDEST PUSH2 0x1DEF DUP5 PUSH2 0x41AE JUMP JUMPDEST SWAP3 POP PUSH1 0x0 PUSH2 0x1E16 DUP6 PUSH2 0x160 ADD MLOAD PUSH8 0xDE0B6B3A7640000 PUSH2 0x1E0F SWAP2 SWAP1 PUSH2 0x6845 JUMP JUMPDEST PUSH1 0x1E PUSH2 0x2DE8 JUMP JUMPDEST SWAP1 POP DUP1 CALLVALUE LT ISZERO PUSH2 0x1E71 JUMPI PUSH1 0x40 DUP1 MLOAD PUSH4 0x79D3124B PUSH1 0xE0 SHL DUP2 MSTORE PUSH1 0x4 DUP2 ADD SWAP2 SWAP1 SWAP2 MSTORE PUSH1 0xF PUSH1 0x44 DUP3 ADD MSTORE PUSH32 0x496E636F72726563742076616C75650000000000000000000000000000000000 PUSH1 0x64 DUP3 ADD MSTORE CALLVALUE PUSH1 0x24 DUP3 ADD MSTORE PUSH1 0x84 ADD PUSH2 0x9B4 JUMP JUMPDEST PUSH2 0x1E79 PUSH2 0xEE7 JUMP JUMPDEST POP POP POP SWAP2 SWAP1 POP JUMP JUMPDEST PUSH1 0x0 DUP3 DUP2 MSTORE PUSH1 0x2 PUSH1 0x20 MSTORE PUSH1 0x40 DUP2 KECCAK256 PUSH1 0xC ADD DUP1 SLOAD DUP4 SWAP1 DUP2 LT PUSH2 0x1EA4 JUMPI PUSH2 0x1EA4 PUSH2 0x68F7 JUMP JUMPDEST PUSH1 0x0 SWAP2 DUP3 MSTORE PUSH1 0x20 SWAP1 SWAP2 KECCAK256 PUSH1 0xB SWAP1 SWAP2 MUL ADD PUSH1 0x9 ADD SLOAD PUSH1 0xFF AND SWAP4 SWAP3 POP POP POP JUMP JUMPDEST PUSH1 0x5 SLOAD PUSH1 0x40 MLOAD PUSH32 0x438B630000000000000000000000000000000000000000000000000000000000 DUP2 MSTORE PUSH1 0x1 PUSH1 0x1 PUSH1 0xA0 SHL SUB DUP4 DUP2 AND PUSH1 0x4 DUP4 ADD MSTORE PUSH1 0x0 SWAP3 DUP4 SWAP3 SWAP2 AND SWAP1 PUSH4 0x438B6300 SWAP1 PUSH1 0x24 ADD PUSH1 0x0 PUSH1 0x40 MLOAD DUP1 DUP4 SUB DUP2 DUP7 DUP1 EXTCODESIZE ISZERO DUP1 ISZERO PUSH2 0x1F24 JUMPI PUSH1 0x0 DUP1 REVERT JUMPDEST POP GAS STATICCALL ISZERO DUP1 ISZERO PUSH2 0x1F38 JUMPI RETURNDATASIZE PUSH1 0x0 DUP1 RETURNDATACOPY RETURNDATASIZE PUSH1 0x0 REVERT JUMPDEST POP POP POP POP PUSH1 0x40 MLOAD RETURNDATASIZE PUSH1 0x0 DUP3 RETURNDATACOPY PUSH1 0x1F RETURNDATASIZE SWAP1 DUP2 ADD PUSH1 0x1F NOT AND DUP3 ADD PUSH1 0x40 MSTORE PUSH2 0x1F60 SWAP2 SWAP1 DUP2 ADD SWAP1 PUSH2 0x5C1F JUMP JUMPDEST DUP1 MLOAD SWAP1 SWAP2 POP ISZERO PUSH2 0x1F73 JUMPI POP PUSH1 0x1 SWAP3 SWAP2 POP POP JUMP JUMPDEST POP PUSH1 0x0 SWAP3 SWAP2 POP POP JUMP JUMPDEST PUSH1 0x0 DUP2 DUP2 MSTORE PUSH1 0x2 PUSH1 0x20 SWAP1 DUP2 MSTORE PUSH1 0x40 SWAP2 DUP3 SWAP1 KECCAK256 PUSH1 0xE ADD DUP1 SLOAD DUP4 MLOAD DUP2 DUP5 MUL DUP2 ADD DUP5 ADD SWAP1 SWAP5 MSTORE DUP1 DUP5 MSTORE PUSH1 0x60 SWAP4 SWAP3 DUP4 ADD DUP3 DUP3 DUP1 ISZERO PUSH2 0x1CCB JUMPI PUSH1 0x20 MUL DUP3 ADD SWAP2 SWAP1 PUSH1 0x0 MSTORE PUSH1 0x20 PUSH1 0x0 KECCAK256 SWAP1 DUP2 SLOAD PUSH1 0x1 PUSH1 0x1 PUSH1 0xA0 SHL SUB AND DUP2 MSTORE PUSH1 0x1 SWAP1 SWAP2 ADD SWAP1 PUSH1 0x20 ADD DUP1 DUP4 GT PUSH2 0x1CAD JUMPI POP POP POP POP POP SWAP1 POP SWAP2 SWAP1 POP JUMP JUMPDEST DUP3 PUSH2 0x1FF3 PUSH1 0x4 SLOAD SWAP1 JUMP JUMPDEST DUP2 GT ISZERO PUSH2 0x2038 JUMPI PUSH1 0x40 MLOAD PUSH4 0x347626DD PUSH1 0xE2 SHL DUP2 MSTORE PUSH1 0x20 PUSH1 0x4 DUP3 ADD MSTORE PUSH1 0x12 PUSH1 0x24 DUP3 ADD MSTORE PUSH18 0x57726F6E6720696E6465782076616C756521 PUSH1 0x70 SHL PUSH1 0x44 DUP3 ADD MSTORE PUSH1 0x64 ADD PUSH2 0x9B4 JUMP JUMPDEST PUSH1 0x0 PUSH2 0x2044 DUP6 DUP6 PUSH2 0x1E81 JUMP JUMPDEST SWAP1 POP PUSH1 0x6 DUP2 PUSH1 0xB DUP2 GT ISZERO PUSH2 0x205A JUMPI PUSH2 0x205A PUSH2 0x68E1 JUMP JUMPDEST GT ISZERO PUSH2 0x20A9 JUMPI PUSH1 0x40 MLOAD PUSH4 0xB4644DD9 PUSH1 0xE0 SHL DUP2 MSTORE PUSH1 0x20 PUSH1 0x4 DUP3 ADD MSTORE PUSH1 0x10 PUSH1 0x24 DUP3 ADD MSTORE PUSH32 0x756E61626C6520746F207375626D697400000000000000000000000000000000 PUSH1 0x44 DUP3 ADD MSTORE PUSH1 0x64 ADD PUSH2 0x9B4 JUMP JUMPDEST PUSH2 0xAAE DUP6 DUP6 DUP6 PUSH2 0x41FD JUMP JUMPDEST PUSH1 0x60 PUSH1 0x2 PUSH1 0x0 DUP4 DUP2 MSTORE PUSH1 0x20 ADD SWAP1 DUP2 MSTORE PUSH1 0x20 ADD PUSH1 0x0 KECCAK256 PUSH1 0xC ADD DUP1 SLOAD DUP1 PUSH1 0x20 MUL PUSH1 0x20 ADD PUSH1 0x40 MLOAD SWAP1 DUP2 ADD PUSH1 0x40 MSTORE DUP1 SWAP3 SWAP2 SWAP1 DUP2 DUP2 MSTORE PUSH1 0x20 ADD PUSH1 0x0 SWAP1 JUMPDEST DUP3 DUP3 LT ISZERO PUSH2 0x235A JUMPI PUSH1 0x0 DUP5 DUP2 MSTORE PUSH1 0x20 SWAP1 KECCAK256 PUSH1 0x40 DUP1 MLOAD PUSH2 0x180 DUP2 ADD SWAP1 SWAP2 MSTORE PUSH1 0xB DUP5 MUL SWAP1 SWAP2 ADD DUP1 SLOAD DUP3 SWAP1 PUSH1 0xA0 DUP3 ADD SWAP1 DUP4 SWAP1 DUP3 SWAP1 DUP3 SWAP1 PUSH2 0x2128 SWAP1 PUSH2 0x687B JUMP JUMPDEST DUP1 PUSH1 0x1F ADD PUSH1 0x20 DUP1 SWAP2 DIV MUL PUSH1 0x20 ADD PUSH1 0x40 MLOAD SWAP1 DUP2 ADD PUSH1 0x40 MSTORE DUP1 SWAP3 SWAP2 SWAP1 DUP2 DUP2 MSTORE PUSH1 0x20 ADD DUP3 DUP1 SLOAD PUSH2 0x2154 SWAP1 PUSH2 0x687B JUMP JUMPDEST DUP1 ISZERO PUSH2 0x21A1 JUMPI DUP1 PUSH1 0x1F LT PUSH2 0x2176 JUMPI PUSH2 0x100 DUP1 DUP4 SLOAD DIV MUL DUP4 MSTORE SWAP2 PUSH1 0x20 ADD SWAP2 PUSH2 0x21A1 JUMP JUMPDEST DUP3 ADD SWAP2 SWAP1 PUSH1 0x0 MSTORE PUSH1 0x20 PUSH1 0x0 KECCAK256 SWAP1 JUMPDEST DUP2 SLOAD DUP2 MSTORE SWAP1 PUSH1 0x1 ADD SWAP1 PUSH1 0x20 ADD DUP1 DUP4 GT PUSH2 0x2184 JUMPI DUP3 SWAP1 SUB PUSH1 0x1F AND DUP3 ADD SWAP2 JUMPDEST POP POP POP POP POP DUP2 MSTORE PUSH1 0x20 ADD PUSH1 0x1 DUP3 ADD SLOAD DUP2 MSTORE PUSH1 0x20 ADD PUSH1 0x2 DUP3 ADD SLOAD DUP2 MSTORE PUSH1 0x20 ADD PUSH1 0x3 DUP3 ADD SLOAD DUP2 MSTORE PUSH1 0x20 ADD PUSH1 0x4 DUP3 ADD SLOAD DUP2 MSTORE PUSH1 0x20 ADD PUSH1 0x5 DUP3 ADD SLOAD DUP2 MSTORE PUSH1 0x20 ADD PUSH1 0x6 DUP3 ADD DUP1 SLOAD PUSH2 0x21EC SWAP1 PUSH2 0x687B JUMP JUMPDEST DUP1 PUSH1 0x1F ADD PUSH1 0x20 DUP1 SWAP2 DIV MUL PUSH1 0x20 ADD PUSH1 0x40 MLOAD SWAP1 DUP2 ADD PUSH1 0x40 MSTORE DUP1 SWAP3 SWAP2 SWAP1 DUP2 DUP2 MSTORE PUSH1 0x20 ADD DUP3 DUP1 SLOAD PUSH2 0x2218 SWAP1 PUSH2 0x687B JUMP JUMPDEST DUP1 ISZERO PUSH2 0x2265 JUMPI DUP1 PUSH1 0x1F LT PUSH2 0x223A JUMPI PUSH2 0x100 DUP1 DUP4 SLOAD DIV MUL DUP4 MSTORE SWAP2 PUSH1 0x20 ADD SWAP2 PUSH2 0x2265 JUMP JUMPDEST DUP3 ADD SWAP2 SWAP1 PUSH1 0x0 MSTORE PUSH1 0x20 PUSH1 0x0 KECCAK256 SWAP1 JUMPDEST DUP2 SLOAD DUP2 MSTORE SWAP1 PUSH1 0x1 ADD SWAP1 PUSH1 0x20 ADD DUP1 DUP4 GT PUSH2 0x2248 JUMPI DUP3 SWAP1 SUB PUSH1 0x1F AND DUP3 ADD SWAP2 JUMPDEST POP POP POP POP POP DUP2 MSTORE POP POP DUP2 MSTORE PUSH1 0x20 ADD PUSH1 0x7 DUP3 ADD SLOAD DUP2 MSTORE PUSH1 0x20 ADD PUSH1 0x8 DUP3 ADD DUP1 SLOAD PUSH2 0x228C SWAP1 PUSH2 0x687B JUMP JUMPDEST DUP1 PUSH1 0x1F ADD PUSH1 0x20 DUP1 SWAP2 DIV MUL PUSH1 0x20 ADD PUSH1 0x40 MLOAD SWAP1 DUP2 ADD PUSH1 0x40 MSTORE DUP1 SWAP3 SWAP2 SWAP1 DUP2 DUP2 MSTORE PUSH1 0x20 ADD DUP3 DUP1 SLOAD PUSH2 0x22B8 SWAP1 PUSH2 0x687B JUMP JUMPDEST DUP1 ISZERO PUSH2 0x2305 JUMPI DUP1 PUSH1 0x1F LT PUSH2 0x22DA JUMPI PUSH2 0x100 DUP1 DUP4 SLOAD DIV MUL DUP4 MSTORE SWAP2 PUSH1 0x20 ADD SWAP2 PUSH2 0x2305 JUMP JUMPDEST DUP3 ADD SWAP2 SWAP1 PUSH1 0x0 MSTORE PUSH1 0x20 PUSH1 0x0 KECCAK256 SWAP1 JUMPDEST DUP2 SLOAD DUP2 MSTORE SWAP1 PUSH1 0x1 ADD SWAP1 PUSH1 0x20 ADD DUP1 DUP4 GT PUSH2 0x22E8 JUMPI DUP3 SWAP1 SUB PUSH1 0x1F AND DUP3 ADD SWAP2 JUMPDEST POP POP POP SWAP2 DUP4 MSTORE POP POP PUSH1 0x9 DUP3 ADD SLOAD PUSH1 0x20 SWAP1 SWAP2 ADD SWAP1 PUSH1 0xFF AND PUSH1 0xB DUP2 GT ISZERO PUSH2 0x232C JUMPI PUSH2 0x232C PUSH2 0x68E1 JUMP JUMPDEST PUSH1 0xB DUP2 GT ISZERO PUSH2 0x233D JUMPI PUSH2 0x233D PUSH2 0x68E1 JUMP JUMPDEST DUP2 MSTORE PUSH1 0x20 ADD PUSH1 0xA DUP3 ADD SLOAD DUP2 MSTORE POP POP DUP2 MSTORE PUSH1 0x20 ADD SWAP1 PUSH1 0x1 ADD SWAP1 PUSH2 0x20EC JUMP JUMPDEST POP POP POP POP SWAP1 POP SWAP2 SWAP1 POP JUMP JUMPDEST PUSH2 0x236D PUSH2 0x5670 JUMP JUMPDEST DUP2 PUSH2 0x2377 PUSH1 0x4 SLOAD SWAP1 JUMP JUMPDEST DUP2 GT ISZERO PUSH2 0x23BC JUMPI PUSH1 0x40 MLOAD PUSH4 0x347626DD PUSH1 0xE2 SHL DUP2 MSTORE PUSH1 0x20 PUSH1 0x4 DUP3 ADD MSTORE PUSH1 0x12 PUSH1 0x24 DUP3 ADD MSTORE PUSH18 0x57726F6E6720696E6465782076616C756521 PUSH1 0x70 SHL PUSH1 0x44 DUP3 ADD MSTORE PUSH1 0x64 ADD PUSH2 0x9B4 JUMP JUMPDEST PUSH2 0x23C5 DUP4 PUSH2 0x2604 JUMP JUMPDEST SWAP2 POP JUMPDEST POP SWAP2 SWAP1 POP JUMP JUMPDEST PUSH2 0x23D6 PUSH2 0x2E07 JUMP JUMPDEST PUSH1 0x1 PUSH1 0x1 PUSH1 0xA0 SHL SUB DUP2 AND PUSH2 0x2452 JUMPI PUSH1 0x40 MLOAD PUSH3 0x461BCD PUSH1 0xE5 SHL DUP2 MSTORE PUSH1 0x20 PUSH1 0x4 DUP3 ADD MSTORE PUSH1 0x26 PUSH1 0x24 DUP3 ADD MSTORE PUSH32 0x4F776E61626C653A206E6577206F776E657220697320746865207A65726F2061 PUSH1 0x44 DUP3 ADD MSTORE PUSH32 0x6464726573730000000000000000000000000000000000000000000000000000 PUSH1 0x64 DUP3 ADD MSTORE PUSH1 0x84 ADD PUSH2 0x9B4 JUMP JUMPDEST PUSH2 0xAF5 DUP2 PUSH2 0x3B54 JUMP JUMPDEST PUSH2 0x2464 CALLER PUSH2 0x1EC2 JUMP JUMPDEST PUSH2 0x24B1 JUMPI PUSH1 0x40 MLOAD PUSH4 0x934F2C3 PUSH1 0xE0 SHL DUP2 MSTORE PUSH1 0x20 PUSH1 0x4 DUP3 ADD MSTORE PUSH1 0x12 PUSH1 0x24 DUP3 ADD MSTORE PUSH32 0x4E6F7420486176652050617373204E4654210000000000000000000000000000 PUSH1 0x44 DUP3 ADD MSTORE PUSH1 0x64 ADD PUSH2 0x9B4 JUMP JUMPDEST DUP2 PUSH2 0x24BB PUSH1 0x4 SLOAD SWAP1 JUMP JUMPDEST DUP2 GT ISZERO PUSH2 0x2500 JUMPI PUSH1 0x40 MLOAD PUSH4 0x347626DD PUSH1 0xE2 SHL DUP2 MSTORE PUSH1 0x20 PUSH1 0x4 DUP3 ADD MSTORE PUSH1 0x12 PUSH1 0x24 DUP3 ADD MSTORE PUSH18 0x57726F6E6720696E6465782076616C756521 PUSH1 0x70 SHL PUSH1 0x44 DUP3 ADD MSTORE PUSH1 0x64 ADD PUSH2 0x9B4 JUMP JUMPDEST PUSH1 0x0 DUP4 DUP2 MSTORE PUSH1 0x2 PUSH1 0x20 MSTORE PUSH1 0x40 SWAP1 KECCAK256 PUSH1 0x15 ADD SLOAD DUP4 SWAP1 PUSH1 0xFF AND PUSH2 0x2564 JUMPI PUSH1 0x40 MLOAD PUSH4 0xB4644DD9 PUSH1 0xE0 SHL DUP2 MSTORE PUSH1 0x20 PUSH1 0x4 DUP3 ADD MSTORE PUSH1 0x12 PUSH1 0x24 DUP3 ADD MSTORE PUSH32 0x43616E27742072656365697665207461736B0000000000000000000000000000 PUSH1 0x44 DUP3 ADD MSTORE PUSH1 0x64 ADD PUSH2 0x9B4 JUMP JUMPDEST CALLER PUSH1 0x0 DUP2 DUP2 MSTORE PUSH1 0x3 PUSH1 0x20 MSTORE PUSH1 0x40 SWAP1 KECCAK256 SLOAD DUP1 ISZERO PUSH2 0x25C3 JUMPI PUSH1 0x40 MLOAD PUSH4 0x934F2C3 PUSH1 0xE0 SHL DUP2 MSTORE PUSH1 0x20 PUSH1 0x4 DUP3 ADD MSTORE PUSH1 0xF PUSH1 0x24 DUP3 ADD MSTORE PUSH32 0x756E706169642070656E616C7479210000000000000000000000000000000000 PUSH1 0x44 DUP3 ADD MSTORE PUSH1 0x64 ADD PUSH2 0x9B4 JUMP JUMPDEST PUSH2 0x25CE DUP7 DUP7 CALLER PUSH2 0x4209 JUMP JUMPDEST PUSH32 0x8E913351AA76002E572CC432B46556976F6E10285B52F94909124EA8EBD0B795 DUP7 DUP7 CALLER PUSH1 0x1 PUSH1 0x40 MLOAD PUSH2 0xE40 SWAP5 SWAP4 SWAP3 SWAP2 SWAP1 PUSH2 0x66AE JUMP JUMPDEST PUSH2 0x260C PUSH2 0x5670 JUMP JUMPDEST PUSH2 0x2614 PUSH2 0x5670 JUMP JUMPDEST PUSH1 0x0 DUP4 DUP2 MSTORE PUSH1 0x2 PUSH1 0x20 DUP2 DUP2 MSTORE PUSH1 0x40 DUP4 KECCAK256 DUP1 SLOAD PUSH1 0x1 PUSH1 0x1 PUSH1 0xA0 SHL SUB AND DUP6 MSTORE PUSH1 0x1 DUP2 ADD SLOAD DUP6 DUP4 ADD MSTORE SWAP3 DUP7 SWAP1 MSTORE DUP2 SWAP1 MSTORE ADD DUP1 SLOAD PUSH2 0x264D SWAP1 PUSH2 0x687B JUMP JUMPDEST DUP1 PUSH1 0x1F ADD PUSH1 0x20 DUP1 SWAP2 DIV MUL PUSH1 0x20 ADD PUSH1 0x40 MLOAD SWAP1 DUP2 ADD PUSH1 0x40 MSTORE DUP1 SWAP3 SWAP2 SWAP1 DUP2 DUP2 MSTORE PUSH1 0x20 ADD DUP3 DUP1 SLOAD PUSH2 0x2679 SWAP1 PUSH2 0x687B JUMP JUMPDEST DUP1 ISZERO PUSH2 0x26C6 JUMPI DUP1 PUSH1 0x1F LT PUSH2 0x269B JUMPI PUSH2 0x100 DUP1 DUP4 SLOAD DIV MUL DUP4 MSTORE SWAP2 PUSH1 0x20 ADD SWAP2 PUSH2 0x26C6 JUMP JUMPDEST DUP3 ADD SWAP2 SWAP1 PUSH1 0x0 MSTORE PUSH1 0x20 PUSH1 0x0 KECCAK256 SWAP1 JUMPDEST DUP2 SLOAD DUP2 MSTORE SWAP1 PUSH1 0x1 ADD SWAP1 PUSH1 0x20 ADD DUP1 DUP4 GT PUSH2 0x26A9 JUMPI DUP3 SWAP1 SUB PUSH1 0x1F AND DUP3 ADD SWAP2 JUMPDEST POP POP POP POP PUSH1 0x40 DUP1 DUP5 ADD SWAP3 SWAP1 SWAP3 MSTORE POP PUSH1 0x0 DUP5 DUP2 MSTORE PUSH1 0x2 PUSH1 0x20 MSTORE KECCAK256 PUSH1 0x3 ADD DUP1 SLOAD PUSH2 0x26ED SWAP1 PUSH2 0x687B JUMP JUMPDEST DUP1 PUSH1 0x1F ADD PUSH1 0x20 DUP1 SWAP2 DIV MUL PUSH1 0x20 ADD PUSH1 0x40 MLOAD SWAP1 DUP2 ADD PUSH1 0x40 MSTORE DUP1 SWAP3 SWAP2 SWAP1 DUP2 DUP2 MSTORE PUSH1 0x20 ADD DUP3 DUP1 SLOAD PUSH2 0x2719 SWAP1 PUSH2 0x687B JUMP JUMPDEST DUP1 ISZERO PUSH2 0x2766 JUMPI DUP1 PUSH1 0x1F LT PUSH2 0x273B JUMPI PUSH2 0x100 DUP1 DUP4 SLOAD DIV MUL DUP4 MSTORE SWAP2 PUSH1 0x20 ADD SWAP2 PUSH2 0x2766 JUMP JUMPDEST DUP3 ADD SWAP2 SWAP1 PUSH1 0x0 MSTORE PUSH1 0x20 PUSH1 0x0 KECCAK256 SWAP1 JUMPDEST DUP2 SLOAD DUP2 MSTORE SWAP1 PUSH1 0x1 ADD SWAP1 PUSH1 0x20 ADD DUP1 DUP4 GT PUSH2 0x2749 JUMPI DUP3 SWAP1 SUB PUSH1 0x1F AND DUP3 ADD SWAP2 JUMPDEST POP POP POP POP POP PUSH1 0x60 DUP3 ADD MSTORE PUSH1 0x0 DUP4 DUP2 MSTORE PUSH1 0x2 PUSH1 0x20 DUP2 DUP2 MSTORE PUSH1 0x40 DUP1 DUP5 KECCAK256 PUSH1 0x4 DUP2 ADD SLOAD PUSH1 0x80 DUP8 ADD MSTORE PUSH1 0x5 DUP2 ADD SLOAD PUSH1 0xA0 DUP8 ADD MSTORE PUSH1 0x6 DUP2 ADD SLOAD PUSH1 0xC0 DUP8 ADD MSTORE SWAP4 DUP8 SWAP1 MSTORE SWAP2 DUP2 MSTORE PUSH1 0x7 SWAP1 SWAP3 ADD DUP1 SLOAD DUP3 MLOAD DUP2 DUP6 MUL DUP2 ADD DUP6 ADD SWAP1 SWAP4 MSTORE DUP1 DUP4 MSTORE SWAP2 SWAP3 SWAP1 SWAP2 SWAP1 DUP4 ADD DUP3 DUP3 DUP1 ISZERO PUSH2 0x27F0 JUMPI PUSH1 0x20 MUL DUP3 ADD SWAP2 SWAP1 PUSH1 0x0 MSTORE PUSH1 0x20 PUSH1 0x0 KECCAK256 SWAP1 JUMPDEST DUP2 SLOAD DUP2 MSTORE PUSH1 0x20 ADD SWAP1 PUSH1 0x1 ADD SWAP1 DUP1 DUP4 GT PUSH2 0x27DC JUMPI JUMPDEST POP POP POP POP POP PUSH1 0xE0 DUP3 ADD MSTORE PUSH1 0x0 DUP4 DUP2 MSTORE PUSH1 0x2 PUSH1 0x20 DUP2 DUP2 MSTORE PUSH1 0x40 DUP4 KECCAK256 PUSH1 0x8 DUP2 ADD SLOAD PUSH2 0x100 DUP1 DUP8 ADD SWAP2 SWAP1 SWAP2 MSTORE PUSH1 0x9 DUP3 ADD SLOAD PUSH2 0x120 DUP8 ADD MSTORE PUSH1 0xA DUP3 ADD SLOAD PUSH1 0xFF DUP1 DUP3 AND ISZERO ISZERO PUSH2 0x140 DUP10 ADD MSTORE SWAP1 DUP3 SWAP1 DIV DUP2 AND ISZERO ISZERO PUSH2 0x160 DUP9 ADD MSTORE PUSH1 0xB DUP4 ADD SLOAD PUSH2 0x180 DUP9 ADD MSTORE PUSH1 0x11 DUP4 ADD SLOAD PUSH2 0x240 DUP9 ADD MSTORE PUSH1 0x12 DUP4 ADD SLOAD PUSH2 0x260 DUP9 ADD MSTORE PUSH1 0x13 DUP4 ADD SLOAD PUSH2 0x280 DUP9 ADD MSTORE PUSH1 0x14 DUP4 ADD SLOAD PUSH2 0x2A0 DUP9 ADD MSTORE PUSH1 0x15 SWAP1 SWAP3 ADD SLOAD DUP1 DUP4 AND ISZERO ISZERO PUSH2 0x2C0 DUP9 ADD MSTORE SWAP1 DUP2 DIV DUP3 AND ISZERO ISZERO PUSH2 0x2E0 DUP8 ADD MSTORE SWAP4 DUP8 SWAP1 MSTORE SWAP2 SWAP1 MSTORE PUSH2 0x300 DUP4 ADD SWAP2 PUSH3 0x10000 SWAP1 DIV AND PUSH1 0x7 DUP2 GT ISZERO PUSH2 0x28BE JUMPI PUSH2 0x28BE PUSH2 0x68E1 JUMP JUMPDEST SWAP1 DUP2 PUSH1 0x7 DUP2 GT ISZERO PUSH2 0x28D1 JUMPI PUSH2 0x28D1 PUSH2 0x68E1 JUMP JUMPDEST SWAP1 MSTORE POP PUSH1 0x0 DUP4 DUP2 MSTORE PUSH1 0x2 PUSH1 0x20 SWAP1 DUP2 MSTORE PUSH1 0x40 DUP1 DUP4 KECCAK256 PUSH1 0xC ADD DUP1 SLOAD DUP3 MLOAD DUP2 DUP6 MUL DUP2 ADD DUP6 ADD SWAP1 SWAP4 MSTORE DUP1 DUP4 MSTORE SWAP2 SWAP4 SWAP1 SWAP3 DUP5 ADD JUMPDEST DUP3 DUP3 LT ISZERO PUSH2 0x2B6E JUMPI PUSH1 0x0 DUP5 DUP2 MSTORE PUSH1 0x20 SWAP1 KECCAK256 PUSH1 0x40 DUP1 MLOAD PUSH2 0x180 DUP2 ADD SWAP1 SWAP2 MSTORE PUSH1 0xB DUP5 MUL SWAP1 SWAP2 ADD DUP1 SLOAD DUP3 SWAP1 PUSH1 0xA0 DUP3 ADD SWAP1 DUP4 SWAP1 DUP3 SWAP1 DUP3 SWAP1 PUSH2 0x293C SWAP1 PUSH2 0x687B JUMP JUMPDEST DUP1 PUSH1 0x1F ADD PUSH1 0x20 DUP1 SWAP2 DIV MUL PUSH1 0x20 ADD PUSH1 0x40 MLOAD SWAP1 DUP2 ADD PUSH1 0x40 MSTORE DUP1 SWAP3 SWAP2 SWAP1 DUP2 DUP2 MSTORE PUSH1 0x20 ADD DUP3 DUP1 SLOAD PUSH2 0x2968 SWAP1 PUSH2 0x687B JUMP JUMPDEST DUP1 ISZERO PUSH2 0x29B5 JUMPI DUP1 PUSH1 0x1F LT PUSH2 0x298A JUMPI PUSH2 0x100 DUP1 DUP4 SLOAD DIV MUL DUP4 MSTORE SWAP2 PUSH1 0x20 ADD SWAP2 PUSH2 0x29B5 JUMP JUMPDEST DUP3 ADD SWAP2 SWAP1 PUSH1 0x0 MSTORE PUSH1 0x20 PUSH1 0x0 KECCAK256 SWAP1 JUMPDEST DUP2 SLOAD DUP2 MSTORE SWAP1 PUSH1 0x1 ADD SWAP1 PUSH1 0x20 ADD DUP1 DUP4 GT PUSH2 0x2998 JUMPI DUP3 SWAP1 SUB PUSH1 0x1F AND DUP3 ADD SWAP2 JUMPDEST POP POP POP POP POP DUP2 MSTORE PUSH1 0x20 ADD PUSH1 0x1 DUP3 ADD SLOAD DUP2 MSTORE PUSH1 0x20 ADD PUSH1 0x2 DUP3 ADD SLOAD DUP2 MSTORE PUSH1 0x20 ADD PUSH1 0x3 DUP3 ADD SLOAD DUP2 MSTORE PUSH1 0x20 ADD PUSH1 0x4 DUP3 ADD SLOAD DUP2 MSTORE PUSH1 0x20 ADD PUSH1 0x5 DUP3 ADD SLOAD DUP2 MSTORE PUSH1 0x20 ADD PUSH1 0x6 DUP3 ADD DUP1 SLOAD PUSH2 0x2A00 SWAP1 PUSH2 0x687B JUMP JUMPDEST DUP1 PUSH1 0x1F ADD PUSH1 0x20 DUP1 SWAP2 DIV MUL PUSH1 0x20 ADD PUSH1 0x40 MLOAD SWAP1 DUP2 ADD PUSH1 0x40 MSTORE DUP1 SWAP3 SWAP2 SWAP1 DUP2 DUP2 MSTORE PUSH1 0x20 ADD DUP3 DUP1 SLOAD PUSH2 0x2A2C SWAP1 PUSH2 0x687B JUMP JUMPDEST DUP1 ISZERO PUSH2 0x2A79 JUMPI DUP1 PUSH1 0x1F LT PUSH2 0x2A4E JUMPI PUSH2 0x100 DUP1 DUP4 SLOAD DIV MUL DUP4 MSTORE SWAP2 PUSH1 0x20 ADD SWAP2 PUSH2 0x2A79 JUMP JUMPDEST DUP3 ADD SWAP2 SWAP1 PUSH1 0x0 MSTORE PUSH1 0x20 PUSH1 0x0 KECCAK256 SWAP1 JUMPDEST DUP2 SLOAD DUP2 MSTORE SWAP1 PUSH1 0x1 ADD SWAP1 PUSH1 0x20 ADD DUP1 DUP4 GT PUSH2 0x2A5C JUMPI DUP3 SWAP1 SUB PUSH1 0x1F AND DUP3 ADD SWAP2 JUMPDEST POP POP POP POP POP DUP2 MSTORE POP POP DUP2 MSTORE PUSH1 0x20 ADD PUSH1 0x7 DUP3 ADD SLOAD DUP2 MSTORE PUSH1 0x20 ADD PUSH1 0x8 DUP3 ADD DUP1 SLOAD PUSH2 0x2AA0 SWAP1 PUSH2 0x687B JUMP JUMPDEST DUP1 PUSH1 0x1F ADD PUSH1 0x20 DUP1 SWAP2 DIV MUL PUSH1 0x20 ADD PUSH1 0x40 MLOAD SWAP1 DUP2 ADD PUSH1 0x40 MSTORE DUP1 SWAP3 SWAP2 SWAP1 DUP2 DUP2 MSTORE PUSH1 0x20 ADD DUP3 DUP1 SLOAD PUSH2 0x2ACC SWAP1 PUSH2 0x687B JUMP JUMPDEST DUP1 ISZERO PUSH2 0x2B19 JUMPI DUP1 PUSH1 0x1F LT PUSH2 0x2AEE JUMPI PUSH2 0x100 DUP1 DUP4 SLOAD DIV MUL DUP4 MSTORE SWAP2 PUSH1 0x20 ADD SWAP2 PUSH2 0x2B19 JUMP JUMPDEST DUP3 ADD SWAP2 SWAP1 PUSH1 0x0 MSTORE PUSH1 0x20 PUSH1 0x0 KECCAK256 SWAP1 JUMPDEST DUP2 SLOAD DUP2 MSTORE SWAP1 PUSH1 0x1 ADD SWAP1 PUSH1 0x20 ADD DUP1 DUP4 GT PUSH2 0x2AFC JUMPI DUP3 SWAP1 SUB PUSH1 0x1F AND DUP3 ADD SWAP2 JUMPDEST POP POP POP SWAP2 DUP4 MSTORE POP POP PUSH1 0x9 DUP3 ADD SLOAD PUSH1 0x20 SWAP1 SWAP2 ADD SWAP1 PUSH1 0xFF AND PUSH1 0xB DUP2 GT ISZERO PUSH2 0x2B40 JUMPI PUSH2 0x2B40 PUSH2 0x68E1 JUMP JUMPDEST PUSH1 0xB DUP2 GT ISZERO PUSH2 0x2B51 JUMPI PUSH2 0x2B51 PUSH2 0x68E1 JUMP JUMPDEST DUP2 MSTORE PUSH1 0x20 ADD PUSH1 0xA DUP3 ADD SLOAD DUP2 MSTORE POP POP DUP2 MSTORE PUSH1 0x20 ADD SWAP1 PUSH1 0x1 ADD SWAP1 PUSH2 0x2900 JUMP JUMPDEST POP POP POP POP PUSH2 0x1A0 DUP3 ADD MSTORE PUSH1 0x0 DUP4 DUP2 MSTORE PUSH1 0x2 PUSH1 0x20 MSTORE PUSH1 0x40 DUP2 KECCAK256 PUSH1 0xD DUP2 ADD SLOAD PUSH1 0xE SWAP1 SWAP2 ADD SLOAD SWAP1 SWAP2 DUP3 PUSH8 0xFFFFFFFFFFFFFFFF DUP2 GT ISZERO PUSH2 0x2BAC JUMPI PUSH2 0x2BAC PUSH2 0x690D JUMP JUMPDEST PUSH1 0x40 MLOAD SWAP1 DUP1 DUP3 MSTORE DUP1 PUSH1 0x20 MUL PUSH1 0x20 ADD DUP3 ADD PUSH1 0x40 MSTORE DUP1 ISZERO PUSH2 0x2C0A JUMPI DUP2 PUSH1 0x20 ADD JUMPDEST PUSH2 0x2BF7 PUSH1 0x40 MLOAD DUP1 PUSH1 0x60 ADD PUSH1 0x40 MSTORE DUP1 PUSH1 0x0 PUSH1 0x1 PUSH1 0x1 PUSH1 0xA0 SHL SUB AND DUP2 MSTORE PUSH1 0x20 ADD PUSH1 0x60 DUP2 MSTORE PUSH1 0x20 ADD PUSH1 0x60 DUP2 MSTORE POP SWAP1 JUMP JUMPDEST DUP2 MSTORE PUSH1 0x20 ADD SWAP1 PUSH1 0x1 SWAP1 SUB SWAP1 DUP2 PUSH2 0x2BCA JUMPI SWAP1 POP JUMPDEST POP SWAP1 POP PUSH1 0x0 DUP3 PUSH8 0xFFFFFFFFFFFFFFFF DUP2 GT ISZERO PUSH2 0x2C28 JUMPI PUSH2 0x2C28 PUSH2 0x690D JUMP JUMPDEST PUSH1 0x40 MLOAD SWAP1 DUP1 DUP3 MSTORE DUP1 PUSH1 0x20 MUL PUSH1 0x20 ADD DUP3 ADD PUSH1 0x40 MSTORE DUP1 ISZERO PUSH2 0x2C86 JUMPI DUP2 PUSH1 0x20 ADD JUMPDEST PUSH2 0x2C73 PUSH1 0x40 MLOAD DUP1 PUSH1 0x60 ADD PUSH1 0x40 MSTORE DUP1 PUSH1 0x0 PUSH1 0x1 PUSH1 0x1 PUSH1 0xA0 SHL SUB AND DUP2 MSTORE PUSH1 0x20 ADD PUSH1 0x60 DUP2 MSTORE PUSH1 0x20 ADD PUSH1 0x60 DUP2 MSTORE POP SWAP1 JUMP JUMPDEST DUP2 MSTORE PUSH1 0x20 ADD SWAP1 PUSH1 0x1 SWAP1 SUB SWAP1 DUP2 PUSH2 0x2C46 JUMPI SWAP1 POP JUMPDEST POP SWAP1 POP PUSH1 0x0 JUMPDEST DUP5 DUP2 LT ISZERO PUSH2 0x2D07 JUMPI PUSH1 0x0 DUP9 DUP2 MSTORE PUSH1 0x2 PUSH1 0x20 MSTORE PUSH1 0x40 SWAP1 KECCAK256 PUSH1 0xD ADD DUP1 SLOAD PUSH2 0x2CD7 SWAP2 DUP11 SWAP2 DUP5 SWAP1 DUP2 LT PUSH2 0x2CBD JUMPI PUSH2 0x2CBD PUSH2 0x68F7 JUMP JUMPDEST PUSH1 0x0 SWAP2 DUP3 MSTORE PUSH1 0x20 SWAP1 SWAP2 KECCAK256 ADD SLOAD PUSH1 0x1 PUSH1 0x1 PUSH1 0xA0 SHL SUB AND PUSH2 0x1010 JUMP JUMPDEST DUP4 DUP3 DUP2 MLOAD DUP2 LT PUSH2 0x2CE9 JUMPI PUSH2 0x2CE9 PUSH2 0x68F7 JUMP JUMPDEST PUSH1 0x20 MUL PUSH1 0x20 ADD ADD DUP2 SWAP1 MSTORE POP DUP1 DUP1 PUSH2 0x2CFF SWAP1 PUSH2 0x68B0 JUMP JUMPDEST SWAP2 POP POP PUSH2 0x2C8C JUMP JUMPDEST POP PUSH1 0x0 JUMPDEST DUP4 DUP2 LT ISZERO PUSH2 0x2D86 JUMPI PUSH1 0x0 DUP9 DUP2 MSTORE PUSH1 0x2 PUSH1 0x20 MSTORE PUSH1 0x40 SWAP1 KECCAK256 PUSH1 0xE ADD DUP1 SLOAD PUSH2 0x2D56 SWAP2 DUP11 SWAP2 DUP5 SWAP1 DUP2 LT PUSH2 0x2D3C JUMPI PUSH2 0x2D3C PUSH2 0x68F7 JUMP JUMPDEST PUSH1 0x0 SWAP2 DUP3 MSTORE PUSH1 0x20 SWAP1 SWAP2 KECCAK256 ADD SLOAD PUSH1 0x1 PUSH1 0x1 PUSH1 0xA0 SHL SUB AND PUSH2 0x1560 JUMP JUMPDEST DUP3 DUP3 DUP2 MLOAD DUP2 LT PUSH2 0x2D68 JUMPI PUSH2 0x2D68 PUSH2 0x68F7 JUMP JUMPDEST PUSH1 0x20 MUL PUSH1 0x20 ADD ADD DUP2 SWAP1 MSTORE POP DUP1 DUP1 PUSH2 0x2D7E SWAP1 PUSH2 0x68B0 JUMP JUMPDEST SWAP2 POP POP PUSH2 0x2D0B JUMP JUMPDEST POP PUSH2 0x200 DUP6 ADD SWAP2 SWAP1 SWAP2 MSTORE PUSH2 0x220 DUP5 ADD MSTORE POP SWAP1 SWAP4 SWAP3 POP POP POP JUMP JUMPDEST PUSH2 0x2DA9 DUP3 DUP3 PUSH2 0x4613 JUMP JUMPDEST PUSH32 0x9096640C11BD5636CED741C9725E5FF774B334455C80E15491F15BB3AF0BC265 CALLER DUP4 DUP4 PUSH1 0x40 MLOAD PUSH2 0x2DDC SWAP4 SWAP3 SWAP2 SWAP1 PUSH2 0x6272 JUMP JUMPDEST PUSH1 0x40 MLOAD DUP1 SWAP2 SUB SWAP1 LOG1 POP POP JUMP JUMPDEST PUSH1 0x0 PUSH1 0x64 PUSH2 0x2DF6 DUP5 DUP5 PUSH2 0x4839 JUMP JUMPDEST PUSH2 0x2E00 SWAP2 SWAP1 PUSH2 0x6823 JUMP JUMPDEST SWAP4 SWAP3 POP POP POP JUMP JUMPDEST PUSH1 0x0 SLOAD PUSH1 0x1 PUSH1 0x1 PUSH1 0xA0 SHL SUB AND CALLER EQ PUSH2 0x155E JUMPI PUSH1 0x40 MLOAD PUSH3 0x461BCD PUSH1 0xE5 SHL DUP2 MSTORE PUSH1 0x20 PUSH1 0x4 DUP3 ADD DUP2 SWAP1 MSTORE PUSH1 0x24 DUP3 ADD MSTORE PUSH32 0x4F776E61626C653A2063616C6C6572206973206E6F7420746865206F776E6572 PUSH1 0x44 DUP3 ADD MSTORE PUSH1 0x64 ADD PUSH2 0x9B4 JUMP JUMPDEST PUSH1 0x0 DUP2 DUP2 MSTORE PUSH1 0x2 PUSH1 0x20 MSTORE PUSH1 0x40 SWAP1 DUP2 SWAP1 KECCAK256 PUSH1 0x15 ADD DUP1 SLOAD PUSH3 0xFF0000 NOT AND PUSH3 0x60000 OR SWAP1 SSTORE MLOAD PUSH32 0xDEA20A6D822B68D598B7AB4FD45418A7CA7B103F12D300BCC3B56A7B94D9ED33 SWAP1 PUSH2 0xFA8 SWAP1 DUP4 SWAP1 PUSH1 0x6 SWAP1 CALLER SWAP1 PUSH2 0x66E8 JUMP JUMPDEST PUSH1 0x0 DUP3 ISZERO PUSH2 0x2F2E JUMPI PUSH2 0x2ECB DUP7 DUP7 CALLER DUP8 DUP7 PUSH2 0x4845 JUMP JUMPDEST PUSH1 0x0 DUP7 DUP2 MSTORE PUSH1 0x2 PUSH1 0x20 MSTORE PUSH1 0x40 SWAP1 KECCAK256 PUSH1 0xA ADD SLOAD PUSH2 0x100 SWAP1 DIV PUSH1 0xFF AND DUP1 ISZERO PUSH2 0x2EFC JUMPI PUSH2 0x2EF5 DUP8 DUP7 PUSH2 0x150F JUMP JUMPDEST SWAP2 POP PUSH2 0x2F11 JUMP JUMPDEST PUSH1 0x0 DUP8 DUP2 MSTORE PUSH1 0x2 PUSH1 0x20 MSTORE PUSH1 0x40 SWAP1 KECCAK256 PUSH1 0xB ADD SLOAD SWAP2 POP JUMPDEST PUSH2 0x2F26 PUSH2 0x1E0F DUP4 PUSH8 0xDE0B6B3A7640000 PUSH2 0x6845 JUMP JUMPDEST SWAP2 POP POP PUSH2 0x2F3F JUMP JUMPDEST PUSH2 0x2F3B DUP7 DUP7 DUP7 PUSH1 0x1 PUSH2 0x4A24 JUMP JUMPDEST POP PUSH1 0x0 JUMPDEST SWAP6 SWAP5 POP POP POP POP POP JUMP JUMPDEST DUP1 SELFBALANCE LT ISZERO PUSH2 0x2F98 JUMPI PUSH1 0x40 MLOAD PUSH3 0x461BCD PUSH1 0xE5 SHL DUP2 MSTORE PUSH1 0x20 PUSH1 0x4 DUP3 ADD MSTORE PUSH1 0x1E PUSH1 0x24 DUP3 ADD MSTORE PUSH32 0x5468652062616C616E6365206973206E6F742073756666696369656E742E0000 PUSH1 0x44 DUP3 ADD MSTORE PUSH1 0x64 ADD PUSH2 0x9B4 JUMP JUMPDEST PUSH1 0x0 DUP3 PUSH1 0x1 PUSH1 0x1 PUSH1 0xA0 SHL SUB AND DUP3 PUSH1 0x40 MLOAD PUSH1 0x0 PUSH1 0x40 MLOAD DUP1 DUP4 SUB DUP2 DUP6 DUP8 GAS CALL SWAP3 POP POP POP RETURNDATASIZE DUP1 PUSH1 0x0 DUP2 EQ PUSH2 0x2FE5 JUMPI PUSH1 0x40 MLOAD SWAP2 POP PUSH1 0x1F NOT PUSH1 0x3F RETURNDATASIZE ADD AND DUP3 ADD PUSH1 0x40 MSTORE RETURNDATASIZE DUP3 MSTORE RETURNDATASIZE PUSH1 0x0 PUSH1 0x20 DUP5 ADD RETURNDATACOPY PUSH2 0x2FEA JUMP JUMPDEST PUSH1 0x60 SWAP2 POP JUMPDEST POP POP SWAP1 POP DUP1 PUSH2 0x3029 JUMPI PUSH1 0x40 MLOAD PUSH3 0x461BCD PUSH1 0xE5 SHL DUP2 MSTORE PUSH1 0x20 PUSH1 0x4 DUP3 ADD MSTORE PUSH1 0xB PUSH1 0x24 DUP3 ADD MSTORE PUSH11 0x10D85B1B0819985A5B1959 PUSH1 0xAA SHL PUSH1 0x44 DUP3 ADD MSTORE PUSH1 0x64 ADD PUSH2 0x9B4 JUMP JUMPDEST PUSH1 0x40 DUP1 MLOAD ADDRESS DUP2 MSTORE PUSH1 0x1 PUSH1 0x1 PUSH1 0xA0 SHL SUB DUP6 AND PUSH1 0x20 DUP3 ADD MSTORE SWAP1 DUP2 ADD DUP4 SWAP1 MSTORE PUSH32 0xB37BD6F3CCFCE130859D4569DC432409F423A7928E73EB5C5049A94E40F0C648 SWAP1 PUSH1 0x60 ADD JUMPDEST PUSH1 0x40 MLOAD DUP1 SWAP2 SUB SWAP1 LOG1 POP POP POP JUMP JUMPDEST PUSH1 0x1 SLOAD PUSH1 0x0 SWAP1 PUSH1 0x1 PUSH1 0x1 PUSH1 0xA0 SHL SUB AND PUSH2 0x3099 DUP4 PUSH8 0xDE0B6B3A7640000 PUSH2 0x6845 JUMP JUMPDEST PUSH1 0x40 MLOAD PUSH1 0x0 DUP2 DUP2 DUP2 DUP6 DUP8 GAS CALL SWAP3 POP POP POP RETURNDATASIZE DUP1 PUSH1 0x0 DUP2 EQ PUSH2 0x30D5 JUMPI PUSH1 0x40 MLOAD SWAP2 POP PUSH1 0x1F NOT PUSH1 0x3F RETURNDATASIZE ADD AND DUP3 ADD PUSH1 0x40 MSTORE RETURNDATASIZE DUP3 MSTORE RETURNDATASIZE PUSH1 0x0 PUSH1 0x20 DUP5 ADD RETURNDATACOPY PUSH2 0x30DA JUMP JUMPDEST PUSH1 0x60 SWAP2 POP JUMPDEST POP POP SWAP1 POP DUP1 PUSH2 0x3119 JUMPI PUSH1 0x40 MLOAD PUSH3 0x461BCD PUSH1 0xE5 SHL DUP2 MSTORE PUSH1 0x20 PUSH1 0x4 DUP3 ADD MSTORE PUSH1 0xB PUSH1 0x24 DUP3 ADD MSTORE PUSH11 0x10D85B1B0819985A5B1959 PUSH1 0xAA SHL PUSH1 0x44 DUP3 ADD MSTORE PUSH1 0x64 ADD PUSH2 0x9B4 JUMP JUMPDEST PUSH1 0x40 DUP1 MLOAD ADDRESS DUP2 MSTORE CALLER PUSH1 0x20 DUP3 ADD MSTORE SELFBALANCE SWAP2 DUP2 ADD SWAP2 SWAP1 SWAP2 MSTORE PUSH32 0xB37BD6F3CCFCE130859D4569DC432409F423A7928E73EB5C5049A94E40F0C648 SWAP1 PUSH1 0x60 ADD PUSH2 0x2DDC JUMP JUMPDEST PUSH1 0x0 PUSH1 0x60 PUSH1 0x0 PUSH2 0x316A DUP6 DUP6 PUSH1 0x0 PUSH2 0x1924 JUMP JUMPDEST DUP2 MLOAD SWAP2 SWAP4 POP SWAP2 POP PUSH2 0x3180 JUMPI PUSH1 0x0 SWAP3 POP POP POP PUSH2 0xB1F JUMP JUMPDEST PUSH2 0x318F DUP6 DUP6 DUP5 PUSH1 0x4 PUSH1 0x0 PUSH2 0x4C61 JUMP JUMPDEST PUSH1 0x0 DUP6 DUP2 MSTORE PUSH1 0x2 PUSH1 0x20 MSTORE PUSH1 0x40 DUP2 KECCAK256 PUSH1 0xA ADD SLOAD PUSH2 0x100 SWAP1 DIV PUSH1 0xFF AND ISZERO PUSH2 0x3223 JUMPI PUSH1 0x0 JUMPDEST DUP4 MLOAD DUP2 LT ISZERO PUSH2 0x321D JUMPI PUSH2 0x31C3 DUP8 PUSH2 0x2604 JUMP JUMPDEST PUSH2 0x1A0 ADD MLOAD DUP5 DUP3 DUP2 MLOAD DUP2 LT PUSH2 0x31DA JUMPI PUSH2 0x31DA PUSH2 0x68F7 JUMP JUMPDEST PUSH1 0x20 MUL PUSH1 0x20 ADD ADD MLOAD DUP2 MLOAD DUP2 LT PUSH2 0x31F2 JUMPI PUSH2 0x31F2 PUSH2 0x68F7 JUMP JUMPDEST PUSH1 0x20 MUL PUSH1 0x20 ADD ADD MLOAD PUSH1 0x20 ADD MLOAD DUP3 PUSH2 0x3209 SWAP2 SWAP1 PUSH2 0x680B JUMP JUMPDEST SWAP2 POP DUP1 PUSH2 0x3215 DUP2 PUSH2 0x68B0 JUMP JUMPDEST SWAP2 POP POP PUSH2 0x31B1 JUMP JUMPDEST POP PUSH2 0x3234 JUMP JUMPDEST PUSH2 0x322C DUP7 PUSH2 0x2604 JUMP JUMPDEST PUSH2 0x180 ADD MLOAD SWAP1 POP JUMPDEST PUSH1 0x0 PUSH20 0x0 PUSH4 0x4F6CA3CE PUSH2 0x3259 DUP5 PUSH2 0x3B3A JUMP JUMPDEST PUSH1 0x40 MLOAD DUP3 PUSH4 0xFFFFFFFF AND PUSH1 0xE0 SHL DUP2 MSTORE PUSH1 0x4 ADD PUSH2 0x3277 SWAP2 DUP2 MSTORE PUSH1 0x20 ADD SWAP1 JUMP JUMPDEST PUSH1 0x20 PUSH1 0x40 MLOAD DUP1 DUP4 SUB DUP2 DUP7 DUP1 EXTCODESIZE ISZERO DUP1 ISZERO PUSH2 0x328F JUMPI PUSH1 0x0 DUP1 REVERT JUMPDEST POP GAS DELEGATECALL ISZERO DUP1 ISZERO PUSH2 0x32A3 JUMPI RETURNDATASIZE PUSH1 0x0 DUP1 RETURNDATACOPY RETURNDATASIZE PUSH1 0x0 REVERT JUMPDEST POP POP POP POP PUSH1 0x40 MLOAD RETURNDATASIZE PUSH1 0x1F NOT PUSH1 0x1F DUP3 ADD AND DUP3 ADD DUP1 PUSH1 0x40 MSTORE POP DUP2 ADD SWAP1 PUSH2 0x32C7 SWAP2 SWAP1 PUSH2 0x5D05 JUMP JUMPDEST PUSH1 0x40 MLOAD PUSH32 0x9CE5C4BF00000000000000000000000000000000000000000000000000000000 DUP2 MSTORE PUSH1 0x4 DUP2 ADD DUP6 SWAP1 MSTORE PUSH1 0x24 DUP2 ADD DUP3 SWAP1 MSTORE SWAP1 SWAP2 POP PUSH1 0x0 SWAP1 PUSH20 0x0 SWAP1 PUSH4 0x9CE5C4BF SWAP1 PUSH1 0x44 ADD PUSH1 0x20 PUSH1 0x40 MLOAD DUP1 DUP4 SUB DUP2 DUP7 DUP1 EXTCODESIZE ISZERO DUP1 ISZERO PUSH2 0x3338 JUMPI PUSH1 0x0 DUP1 REVERT JUMPDEST POP GAS DELEGATECALL ISZERO DUP1 ISZERO PUSH2 0x334C JUMPI RETURNDATASIZE PUSH1 0x0 DUP1 RETURNDATACOPY RETURNDATASIZE PUSH1 0x0 REVERT JUMPDEST POP POP POP POP PUSH1 0x40 MLOAD RETURNDATASIZE PUSH1 0x1F NOT PUSH1 0x1F DUP3 ADD AND DUP3 ADD DUP1 PUSH1 0x40 MSTORE POP DUP2 ADD SWAP1 PUSH2 0x3370 SWAP2 SWAP1 PUSH2 0x5D05 JUMP JUMPDEST SWAP9 SWAP8 POP POP POP POP POP POP POP POP JUMP JUMPDEST PUSH1 0x1 PUSH1 0x1 PUSH1 0xA0 SHL SUB DUP3 AND PUSH1 0x0 SWAP1 DUP2 MSTORE PUSH1 0x3 PUSH1 0x20 MSTORE PUSH1 0x40 DUP2 KECCAK256 DUP1 SLOAD DUP4 SWAP3 SWAP1 PUSH2 0x33A4 SWAP1 DUP5 SWAP1 PUSH2 0x680B JUMP JUMPDEST SWAP1 SWAP2 SSTORE POP POP POP POP JUMP JUMPDEST PUSH1 0x0 DUP4 DUP2 MSTORE PUSH1 0x2 PUSH1 0x20 SWAP1 DUP2 MSTORE PUSH1 0x40 DUP1 DUP4 KECCAK256 PUSH1 0x1 PUSH1 0x1 PUSH1 0xA0 SHL SUB DUP6 AND DUP5 MSTORE PUSH1 0x10 ADD SWAP1 SWAP2 MSTORE SWAP1 KECCAK256 DUP1 SLOAD PUSH2 0x3420 JUMPI PUSH1 0x0 DUP5 DUP2 MSTORE PUSH1 0x2 PUSH1 0x20 SWAP1 DUP2 MSTORE PUSH1 0x40 DUP3 KECCAK256 PUSH1 0xE ADD DUP1 SLOAD PUSH1 0x1 DUP2 ADD DUP3 SSTORE SWAP1 DUP4 MSTORE SWAP2 KECCAK256 ADD DUP1 SLOAD PUSH20 0xFFFFFFFFFFFFFFFFFFFFFFFFFFFFFFFFFFFFFFFF NOT AND PUSH1 0x1 PUSH1 0x1 PUSH1 0xA0 SHL SUB DUP5 AND OR SWAP1 SSTORE JUMPDEST PUSH1 0x0 DUP1 JUMPDEST DUP5 MLOAD DUP2 LT ISZERO PUSH2 0x36CF JUMPI PUSH1 0x2 PUSH1 0x0 DUP8 DUP2 MSTORE PUSH1 0x20 ADD SWAP1 DUP2 MSTORE PUSH1 0x20 ADD PUSH1 0x0 KECCAK256 PUSH1 0xC ADD DUP6 DUP3 DUP2 MLOAD DUP2 LT PUSH2 0x3455 JUMPI PUSH2 0x3455 PUSH2 0x68F7 JUMP JUMPDEST PUSH1 0x20 MUL PUSH1 0x20 ADD ADD MLOAD DUP2 SLOAD DUP2 LT PUSH2 0x346D JUMPI PUSH2 0x346D PUSH2 0x68F7 JUMP JUMPDEST PUSH1 0x0 SWAP2 DUP3 MSTORE PUSH1 0x20 DUP3 KECCAK256 PUSH1 0x9 PUSH1 0xB SWAP1 SWAP3 MUL ADD ADD SLOAD PUSH1 0xFF AND SWAP3 POP DUP3 PUSH1 0xB DUP2 GT ISZERO PUSH2 0x3497 JUMPI PUSH2 0x3497 PUSH2 0x68E1 JUMP JUMPDEST EQ ISZERO PUSH2 0x3572 JUMPI PUSH1 0x1 PUSH1 0x2 PUSH1 0x0 DUP9 DUP2 MSTORE PUSH1 0x20 ADD SWAP1 DUP2 MSTORE PUSH1 0x20 ADD PUSH1 0x0 KECCAK256 PUSH1 0xC ADD DUP7 DUP4 DUP2 MLOAD DUP2 LT PUSH2 0x34C7 JUMPI PUSH2 0x34C7 PUSH2 0x68F7 JUMP JUMPDEST PUSH1 0x20 MUL PUSH1 0x20 ADD ADD MLOAD DUP2 SLOAD DUP2 LT PUSH2 0x34DF JUMPI PUSH2 0x34DF PUSH2 0x68F7 JUMP JUMPDEST SWAP1 PUSH1 0x0 MSTORE PUSH1 0x20 PUSH1 0x0 KECCAK256 SWAP1 PUSH1 0xB MUL ADD PUSH1 0x9 ADD PUSH1 0x0 PUSH2 0x100 EXP DUP2 SLOAD DUP2 PUSH1 0xFF MUL NOT AND SWAP1 DUP4 PUSH1 0xB DUP2 GT ISZERO PUSH2 0x3511 JUMPI PUSH2 0x3511 PUSH2 0x68E1 JUMP JUMPDEST MUL OR SWAP1 SSTORE POP PUSH32 0x188FFF7234F3BB35C4F436313EC14267725515E4CA367843CD416621A72FB8A3 DUP7 DUP7 DUP4 DUP2 MLOAD DUP2 LT PUSH2 0x354A JUMPI PUSH2 0x354A PUSH2 0x68F7 JUMP JUMPDEST PUSH1 0x20 MUL PUSH1 0x20 ADD ADD MLOAD PUSH1 0x1 CALLER PUSH1 0x40 MLOAD PUSH2 0x3565 SWAP5 SWAP4 SWAP3 SWAP2 SWAP1 PUSH2 0x6713 JUMP JUMPDEST PUSH1 0x40 MLOAD DUP1 SWAP2 SUB SWAP1 LOG1 PUSH2 0x3688 JUMP JUMPDEST PUSH1 0x2 DUP3 PUSH1 0xB DUP2 GT ISZERO PUSH2 0x3586 JUMPI PUSH2 0x3586 PUSH2 0x68E1 JUMP JUMPDEST EQ ISZERO PUSH2 0x3654 JUMPI PUSH1 0x3 PUSH1 0x2 PUSH1 0x0 DUP9 DUP2 MSTORE PUSH1 0x20 ADD SWAP1 DUP2 MSTORE PUSH1 0x20 ADD PUSH1 0x0 KECCAK256 PUSH1 0xC ADD DUP7 DUP4 DUP2 MLOAD DUP2 LT PUSH2 0x35B6 JUMPI PUSH2 0x35B6 PUSH2 0x68F7 JUMP JUMPDEST PUSH1 0x20 MUL PUSH1 0x20 ADD ADD MLOAD DUP2 SLOAD DUP2 LT PUSH2 0x35CE JUMPI PUSH2 0x35CE PUSH2 0x68F7 JUMP JUMPDEST SWAP1 PUSH1 0x0 MSTORE PUSH1 0x20 PUSH1 0x0 KECCAK256 SWAP1 PUSH1 0xB MUL ADD PUSH1 0x9 ADD PUSH1 0x0 PUSH2 0x100 EXP DUP2 SLOAD DUP2 PUSH1 0xFF MUL NOT AND SWAP1 DUP4 PUSH1 0xB DUP2 GT ISZERO PUSH2 0x3600 JUMPI PUSH2 0x3600 PUSH2 0x68E1 JUMP JUMPDEST MUL OR SWAP1 SSTORE POP PUSH32 0x188FFF7234F3BB35C4F436313EC14267725515E4CA367843CD416621A72FB8A3 DUP7 DUP7 DUP4 DUP2 MLOAD DUP2 LT PUSH2 0x3639 JUMPI PUSH2 0x3639 PUSH2 0x68F7 JUMP JUMPDEST PUSH1 0x20 MUL PUSH1 0x20 ADD ADD MLOAD PUSH1 0x3 CALLER PUSH1 0x40 MLOAD PUSH2 0x3565 SWAP5 SWAP4 SWAP3 SWAP2 SWAP1 PUSH2 0x6713 JUMP JUMPDEST DUP2 PUSH1 0x40 MLOAD PUSH32 0xCDEC874A00000000000000000000000000000000000000000000000000000000 DUP2 MSTORE PUSH1 0x4 ADD PUSH2 0x9B4 SWAP2 SWAP1 PUSH2 0x6405 JUMP JUMPDEST DUP3 PUSH1 0x0 ADD DUP6 DUP3 DUP2 MLOAD DUP2 LT PUSH2 0x369E JUMPI PUSH2 0x369E PUSH2 0x68F7 JUMP JUMPDEST PUSH1 0x20 SWAP1 DUP2 MUL SWAP2 SWAP1 SWAP2 ADD DUP2 ADD MLOAD DUP3 SLOAD PUSH1 0x1 DUP2 ADD DUP5 SSTORE PUSH1 0x0 SWAP4 DUP5 MSTORE SWAP2 SWAP1 SWAP3 KECCAK256 ADD SSTORE DUP1 PUSH2 0x36C7 DUP2 PUSH2 0x68B0 JUMP JUMPDEST SWAP2 POP POP PUSH2 0x3424 JUMP JUMPDEST POP PUSH1 0x0 DUP6 DUP2 MSTORE PUSH1 0x2 PUSH1 0x20 MSTORE PUSH1 0x40 DUP2 KECCAK256 PUSH1 0x14 ADD DUP1 SLOAD SWAP2 PUSH2 0x36ED DUP4 PUSH2 0x68B0 JUMP JUMPDEST SWAP2 SWAP1 POP SSTORE POP PUSH2 0x36FD DUP6 PUSH1 0x0 PUSH2 0x187D JUMP JUMPDEST ISZERO PUSH2 0xAAE JUMPI PUSH1 0x0 DUP6 DUP2 MSTORE PUSH1 0x2 PUSH1 0x20 SWAP1 DUP2 MSTORE PUSH1 0x40 DUP1 DUP4 KECCAK256 PUSH1 0x15 ADD DUP1 SLOAD PUSH2 0xFF00 NOT AND SWAP1 SSTORE DUP1 MLOAD DUP9 DUP2 MSTORE SWAP2 DUP3 ADD SWAP3 SWAP1 SWAP3 MSTORE CALLER DUP2 DUP4 ADD MSTORE SWAP1 MLOAD PUSH32 0x89BB035780742B4FE520972847D93DB0618ABD46516AF218E10FD3479347B7E4 SWAP2 DUP2 SWAP1 SUB PUSH1 0x60 ADD SWAP1 LOG1 PUSH2 0x3767 DUP6 PUSH1 0x1 PUSH2 0x187D JUMP JUMPDEST ISZERO PUSH2 0x37D5 JUMPI PUSH1 0x0 DUP6 DUP2 MSTORE PUSH1 0x2 PUSH1 0x20 MSTORE PUSH1 0x40 SWAP1 KECCAK256 PUSH1 0x15 ADD DUP1 SLOAD PUSH1 0x3 SWAP2 SWAP1 PUSH3 0xFF0000 NOT AND PUSH3 0x10000 DUP4 JUMPDEST MUL OR SWAP1 SSTORE POP PUSH32 0xDEA20A6D822B68D598B7AB4FD45418A7CA7B103F12D300BCC3B56A7B94D9ED33 DUP6 PUSH1 0x3 CALLER PUSH1 0x40 MLOAD PUSH2 0x37C8 SWAP4 SWAP3 SWAP2 SWAP1 PUSH2 0x66E8 JUMP JUMPDEST PUSH1 0x40 MLOAD DUP1 SWAP2 SUB SWAP1 LOG1 PUSH2 0xAAE JUMP JUMPDEST PUSH1 0x0 DUP6 DUP2 MSTORE PUSH1 0x2 PUSH1 0x20 MSTORE PUSH1 0x40 SWAP1 DUP2 SWAP1 KECCAK256 PUSH1 0x15 ADD DUP1 SLOAD PUSH3 0xFF0000 NOT AND PUSH3 0x10000 OR SWAP1 SSTORE MLOAD PUSH32 0xDEA20A6D822B68D598B7AB4FD45418A7CA7B103F12D300BCC3B56A7B94D9ED33 SWAP1 PUSH2 0x382A SWAP1 DUP8 SWAP1 PUSH1 0x1 SWAP1 CALLER SWAP1 PUSH2 0x66E8 JUMP JUMPDEST PUSH1 0x40 MLOAD DUP1 SWAP2 SUB SWAP1 LOG1 POP POP POP POP POP JUMP JUMPDEST PUSH1 0x1 PUSH1 0x1 PUSH1 0xA0 SHL SUB DUP3 AND PUSH1 0x0 SWAP1 DUP2 MSTORE PUSH1 0x3 PUSH1 0x20 MSTORE PUSH1 0x40 DUP2 KECCAK256 DUP1 SLOAD DUP4 SWAP3 SWAP1 PUSH2 0x33A4 SWAP1 DUP5 SWAP1 PUSH2 0x6864 JUMP JUMPDEST PUSH1 0x1 SLOAD PUSH21 0x10000000000000000000000000000000000000000 SWAP1 DIV PUSH1 0xFF AND ISZERO PUSH2 0x38CC JUMPI PUSH1 0x40 MLOAD PUSH3 0x461BCD PUSH1 0xE5 SHL DUP2 MSTORE PUSH1 0x20 PUSH1 0x4 DUP3 ADD MSTORE PUSH1 0x13 PUSH1 0x24 DUP3 ADD MSTORE PUSH32 0x546865206C6F636B206973206C6F636B65642E00000000000000000000000000 PUSH1 0x44 DUP3 ADD MSTORE PUSH1 0x64 ADD PUSH2 0x9B4 JUMP JUMPDEST PUSH1 0x1 DUP1 SLOAD PUSH32 0xFFFFFFFFFFFFFFFFFFFFFF00FFFFFFFFFFFFFFFFFFFFFFFFFFFFFFFFFFFFFFFF AND PUSH21 0x10000000000000000000000000000000000000000 OR SWAP1 SSTORE PUSH1 0x40 MLOAD PUSH1 0x0 SWAP1 PUSH1 0x1 PUSH1 0x1 PUSH1 0xA0 SHL SUB DUP5 AND SWAP1 DUP4 SWAP1 DUP4 DUP2 DUP2 DUP2 DUP6 DUP8 GAS CALL SWAP3 POP POP POP RETURNDATASIZE DUP1 PUSH1 0x0 DUP2 EQ PUSH2 0x3956 JUMPI PUSH1 0x40 MLOAD SWAP2 POP PUSH1 0x1F NOT PUSH1 0x3F RETURNDATASIZE ADD AND DUP3 ADD PUSH1 0x40 MSTORE RETURNDATASIZE DUP3 MSTORE RETURNDATASIZE PUSH1 0x0 PUSH1 0x20 DUP5 ADD RETURNDATACOPY PUSH2 0x395B JUMP JUMPDEST PUSH1 0x60 SWAP2 POP JUMPDEST POP POP SWAP1 POP DUP1 PUSH2 0x399A JUMPI PUSH1 0x40 MLOAD PUSH3 0x461BCD PUSH1 0xE5 SHL DUP2 MSTORE PUSH1 0x20 PUSH1 0x4 DUP3 ADD MSTORE PUSH1 0xB PUSH1 0x24 DUP3 ADD MSTORE PUSH11 0x10D85B1B0819985A5B1959 PUSH1 0xAA SHL PUSH1 0x44 DUP3 ADD MSTORE PUSH1 0x64 ADD PUSH2 0x9B4 JUMP JUMPDEST PUSH1 0x40 DUP1 MLOAD CALLER DUP2 MSTORE PUSH1 0x1 PUSH1 0x1 PUSH1 0xA0 SHL SUB DUP6 AND PUSH1 0x20 DUP3 ADD MSTORE SWAP1 DUP2 ADD DUP4 SWAP1 MSTORE PUSH32 0xB37BD6F3CCFCE130859D4569DC432409F423A7928E73EB5C5049A94E40F0C648 SWAP1 PUSH1 0x60 ADD PUSH1 0x40 MLOAD DUP1 SWAP2 SUB SWAP1 LOG1 POP POP PUSH1 0x1 DUP1 SLOAD PUSH32 0xFFFFFFFFFFFFFFFFFFFFFF00FFFFFFFFFFFFFFFFFFFFFFFFFFFFFFFFFFFFFFFF AND SWAP1 SSTORE POP JUMP JUMPDEST PUSH1 0x0 PUSH1 0x60 PUSH1 0x0 PUSH2 0x3A22 DUP6 DUP6 PUSH1 0x1 PUSH2 0x1924 JUMP JUMPDEST DUP2 MLOAD SWAP2 SWAP4 POP SWAP2 POP PUSH2 0x3A38 JUMPI PUSH1 0x0 SWAP3 POP POP POP PUSH2 0xB1F JUMP JUMPDEST PUSH2 0x3A47 DUP6 DUP6 DUP5 PUSH1 0x4 PUSH1 0x1 PUSH2 0x4C61 JUMP JUMPDEST PUSH1 0x0 DUP6 DUP2 MSTORE PUSH1 0x2 PUSH1 0x20 MSTORE PUSH1 0x40 DUP2 KECCAK256 PUSH1 0xA ADD SLOAD PUSH2 0x100 SWAP1 DIV PUSH1 0xFF AND ISZERO PUSH2 0x3ADB JUMPI PUSH1 0x0 JUMPDEST DUP4 MLOAD DUP2 LT ISZERO PUSH2 0x3AD5 JUMPI PUSH2 0x3A7B DUP8 PUSH2 0x2604 JUMP JUMPDEST PUSH2 0x1A0 ADD MLOAD DUP5 DUP3 DUP2 MLOAD DUP2 LT PUSH2 0x3A92 JUMPI PUSH2 0x3A92 PUSH2 0x68F7 JUMP JUMPDEST PUSH1 0x20 MUL PUSH1 0x20 ADD ADD MLOAD DUP2 MLOAD DUP2 LT PUSH2 0x3AAA JUMPI PUSH2 0x3AAA PUSH2 0x68F7 JUMP JUMPDEST PUSH1 0x20 MUL PUSH1 0x20 ADD ADD MLOAD PUSH1 0x20 ADD MLOAD DUP3 PUSH2 0x3AC1 SWAP2 SWAP1 PUSH2 0x680B JUMP JUMPDEST SWAP2 POP DUP1 PUSH2 0x3ACD DUP2 PUSH2 0x68B0 JUMP JUMPDEST SWAP2 POP POP PUSH2 0x3A69 JUMP JUMPDEST POP PUSH2 0x3AEC JUMP JUMPDEST PUSH2 0x3AE4 DUP7 PUSH2 0x2604 JUMP JUMPDEST PUSH2 0x180 ADD MLOAD SWAP1 POP JUMPDEST PUSH1 0x0 PUSH20 0x0 PUSH4 0x4F6CA3CE PUSH2 0x3259 DUP5 PUSH2 0x4E5D JUMP JUMPDEST DUP1 ISZERO PUSH2 0x3B27 JUMPI PUSH2 0x3B22 DUP5 DUP5 DUP5 PUSH2 0x4E6A JUMP JUMPDEST PUSH2 0x3B34 JUMP JUMPDEST PUSH2 0x3B34 DUP5 DUP5 DUP5 PUSH1 0x0 PUSH2 0x4A24 JUMP JUMPDEST POP POP POP POP JUMP JUMPDEST PUSH1 0x0 PUSH2 0xB1F DUP3 PUSH1 0x24 PUSH2 0x2DE8 JUMP JUMPDEST PUSH1 0x0 PUSH2 0xB1F DUP3 PUSH1 0x18 PUSH2 0x2DE8 JUMP JUMPDEST PUSH1 0x0 DUP1 SLOAD PUSH1 0x1 PUSH1 0x1 PUSH1 0xA0 SHL SUB DUP4 DUP2 AND PUSH20 0xFFFFFFFFFFFFFFFFFFFFFFFFFFFFFFFFFFFFFFFF NOT DUP4 AND DUP2 OR DUP5 SSTORE PUSH1 0x40 MLOAD SWAP2 SWAP1 SWAP3 AND SWAP3 DUP4 SWAP2 PUSH32 0x8BE0079C531659141344CD1FD0A4F28419497F9722A3DAAFE3B4186F6B6457E0 SWAP2 SWAP1 LOG3 POP POP JUMP JUMPDEST PUSH1 0x1 SLOAD PUSH1 0x40 MLOAD PUSH1 0x0 SWAP2 PUSH1 0x1 PUSH1 0x1 PUSH1 0xA0 SHL SUB AND SWAP1 SELFBALANCE SWAP1 DUP4 DUP2 DUP2 DUP2 DUP6 DUP8 GAS CALL SWAP3 POP POP POP RETURNDATASIZE DUP1 PUSH1 0x0 DUP2 EQ PUSH2 0x3BFE JUMPI PUSH1 0x40 MLOAD SWAP2 POP PUSH1 0x1F NOT PUSH1 0x3F RETURNDATASIZE ADD AND DUP3 ADD PUSH1 0x40 MSTORE RETURNDATASIZE DUP3 MSTORE RETURNDATASIZE PUSH1 0x0 PUSH1 0x20 DUP5 ADD RETURNDATACOPY PUSH2 0x3C03 JUMP JUMPDEST PUSH1 0x60 SWAP2 POP JUMPDEST POP POP SWAP1 POP DUP1 PUSH2 0x3C42 JUMPI PUSH1 0x40 MLOAD PUSH3 0x461BCD PUSH1 0xE5 SHL DUP2 MSTORE PUSH1 0x20 PUSH1 0x4 DUP3 ADD MSTORE PUSH1 0xB PUSH1 0x24 DUP3 ADD MSTORE PUSH11 0x10D85B1B0819985A5B1959 PUSH1 0xAA SHL PUSH1 0x44 DUP3 ADD MSTORE PUSH1 0x64 ADD PUSH2 0x9B4 JUMP JUMPDEST PUSH1 0x40 DUP1 MLOAD ADDRESS DUP2 MSTORE CALLER PUSH1 0x20 DUP3 ADD MSTORE SELFBALANCE SWAP2 DUP2 ADD SWAP2 SWAP1 SWAP2 MSTORE PUSH32 0xB37BD6F3CCFCE130859D4569DC432409F423A7928E73EB5C5049A94E40F0C648 SWAP1 PUSH1 0x60 ADD PUSH2 0xFA8 JUMP JUMPDEST PUSH1 0x0 DUP2 DUP2 MSTORE PUSH1 0x2 PUSH1 0x20 MSTORE PUSH1 0x40 DUP2 KECCAK256 PUSH1 0xD ADD SLOAD PUSH1 0x0 PUSH2 0x3C9E DUP5 PUSH2 0x20B4 JUMP JUMPDEST SWAP1 POP PUSH2 0x3CAB DUP5 PUSH1 0x1 PUSH2 0x187D JUMP JUMPDEST ISZERO PUSH2 0x3CBA JUMPI POP PUSH1 0x1 SWAP4 SWAP3 POP POP POP JUMP JUMPDEST DUP2 PUSH2 0x3CD2 JUMPI PUSH2 0x3CC8 DUP5 PUSH2 0x4F7B JUMP JUMPDEST POP PUSH1 0x0 SWAP4 SWAP3 POP POP POP JUMP JUMPDEST DUP1 MLOAD DUP3 PUSH1 0x0 PUSH2 0x3CE1 DUP3 DUP5 PUSH2 0x6823 JUMP JUMPDEST SWAP1 POP PUSH1 0x0 PUSH2 0x3CEE DUP9 PUSH2 0x1C68 JUMP JUMPDEST SWAP1 POP PUSH1 0x0 JUMPDEST DUP6 MLOAD DUP2 LT ISZERO PUSH2 0x3E36 JUMPI PUSH1 0x0 DUP7 DUP3 DUP2 MLOAD DUP2 LT PUSH2 0x3D10 JUMPI PUSH2 0x3D10 PUSH2 0x68F7 JUMP JUMPDEST PUSH1 0x20 MUL PUSH1 0x20 ADD ADD MLOAD PUSH1 0x60 ADD MLOAD PUSH1 0xB DUP2 GT ISZERO PUSH2 0x3D2D JUMPI PUSH2 0x3D2D PUSH2 0x68E1 JUMP JUMPDEST EQ ISZERO PUSH2 0x3E24 JUMPI PUSH1 0x0 JUMPDEST DUP8 DUP2 LT ISZERO PUSH2 0x3E22 JUMPI DUP4 PUSH2 0x3D62 DUP12 DUP6 DUP5 DUP2 MLOAD DUP2 LT PUSH2 0x3D55 JUMPI PUSH2 0x3D55 PUSH2 0x68F7 JUMP JUMPDEST PUSH1 0x20 MUL PUSH1 0x20 ADD ADD MLOAD PUSH2 0xAF8 JUMP JUMPDEST GT ISZERO PUSH2 0x3D6D JUMPI PUSH2 0x3E10 JUMP JUMPDEST PUSH2 0x3D93 DUP11 DUP4 DUP6 DUP5 DUP2 MLOAD DUP2 LT PUSH2 0x3D84 JUMPI PUSH2 0x3D84 PUSH2 0x68F7 JUMP JUMPDEST PUSH1 0x20 MUL PUSH1 0x20 ADD ADD MLOAD PUSH1 0x1 PUSH2 0x4FD5 JUMP JUMPDEST PUSH32 0xAD65127436138B4AFE97EF23BAF28ED14A5FB09500AD117EB196CD3BDB3DBE9F DUP11 DUP4 DUP6 DUP5 DUP2 MLOAD DUP2 LT PUSH2 0x3DC8 JUMPI PUSH2 0x3DC8 PUSH2 0x68F7 JUMP JUMPDEST PUSH1 0x20 MUL PUSH1 0x20 ADD ADD MLOAD PUSH1 0x1 PUSH1 0x40 MLOAD PUSH2 0x3E03 SWAP5 SWAP4 SWAP3 SWAP2 SWAP1 SWAP4 DUP5 MSTORE PUSH1 0x20 DUP5 ADD SWAP3 SWAP1 SWAP3 MSTORE PUSH1 0x1 PUSH1 0x1 PUSH1 0xA0 SHL SUB AND PUSH1 0x40 DUP4 ADD MSTORE ISZERO ISZERO PUSH1 0x60 DUP3 ADD MSTORE PUSH1 0x80 ADD SWAP1 JUMP JUMPDEST PUSH1 0x40 MLOAD DUP1 SWAP2 SUB SWAP1 LOG1 PUSH2 0x3E22 JUMP JUMPDEST DUP1 PUSH2 0x3E1A DUP2 PUSH2 0x68B0 JUMP JUMPDEST SWAP2 POP POP PUSH2 0x3D36 JUMP JUMPDEST POP JUMPDEST DUP1 PUSH2 0x3E2E DUP2 PUSH2 0x68B0 JUMP JUMPDEST SWAP2 POP POP PUSH2 0x3CF3 JUMP JUMPDEST POP PUSH2 0x3E40 DUP9 PUSH2 0x4F7B JUMP JUMPDEST PUSH2 0x3E4B DUP9 PUSH1 0x0 PUSH2 0x187D JUMP JUMPDEST ISZERO PUSH2 0x3E60 JUMPI PUSH2 0x3E5B DUP9 PUSH1 0x3 PUSH2 0x50BC JUMP JUMPDEST PUSH2 0x3E6B JUMP JUMPDEST PUSH2 0x3E6B DUP9 PUSH1 0x2 PUSH2 0x50BC JUMP JUMPDEST POP PUSH1 0x0 SWAP8 SWAP7 POP POP POP POP POP POP POP JUMP JUMPDEST PUSH1 0x0 DUP3 DUP2 MSTORE PUSH1 0x2 PUSH1 0x20 MSTORE PUSH1 0x40 SWAP1 KECCAK256 PUSH1 0xC ADD DUP1 SLOAD PUSH1 0xB SWAP2 SWAP1 DUP4 SWAP1 DUP2 LT PUSH2 0x3EA0 JUMPI PUSH2 0x3EA0 PUSH2 0x68F7 JUMP JUMPDEST SWAP1 PUSH1 0x0 MSTORE PUSH1 0x20 PUSH1 0x0 KECCAK256 SWAP1 PUSH1 0xB MUL ADD PUSH1 0x9 ADD PUSH1 0x0 PUSH2 0x100 EXP DUP2 SLOAD DUP2 PUSH1 0xFF MUL NOT AND SWAP1 DUP4 PUSH1 0xB DUP2 GT ISZERO PUSH2 0x3ED2 JUMPI PUSH2 0x3ED2 PUSH2 0x68E1 JUMP JUMPDEST MUL OR SWAP1 SSTORE POP PUSH32 0x188FFF7234F3BB35C4F436313EC14267725515E4CA367843CD416621A72FB8A3 DUP3 DUP3 PUSH1 0xB CALLER PUSH1 0x40 MLOAD PUSH2 0x2DDC SWAP5 SWAP4 SWAP3 SWAP2 SWAP1 PUSH2 0x6713 JUMP JUMPDEST PUSH1 0x0 PUSH2 0x3F17 PUSH2 0x2E07 JUMP JUMPDEST PUSH1 0x0 DUP3 DUP2 MSTORE PUSH1 0x2 PUSH1 0x20 MSTORE PUSH1 0x40 DUP2 KECCAK256 PUSH1 0xE DUP2 ADD SLOAD PUSH1 0xD SWAP1 SWAP2 ADD SLOAD SWAP1 SWAP2 PUSH2 0x3F3B DUP6 PUSH2 0x20B4 JUMP JUMPDEST SWAP1 POP PUSH2 0x3F48 DUP6 PUSH1 0x0 PUSH2 0x187D JUMP JUMPDEST ISZERO PUSH2 0x3F58 JUMPI POP PUSH1 0x1 SWAP5 SWAP4 POP POP POP POP JUMP JUMPDEST DUP3 ISZERO DUP1 ISZERO PUSH2 0x3F65 JUMPI POP DUP2 ISZERO ISZERO JUMPDEST ISZERO PUSH2 0x3F7E JUMPI PUSH2 0x3F73 DUP6 PUSH2 0x5126 JUMP JUMPDEST POP PUSH1 0x0 SWAP5 SWAP4 POP POP POP POP JUMP JUMPDEST DUP3 ISZERO DUP1 ISZERO PUSH2 0x3F8A JUMPI POP DUP2 ISZERO JUMPDEST ISZERO PUSH2 0x3FDD JUMPI PUSH2 0x3F98 DUP6 PUSH2 0x5181 JUMP JUMPDEST PUSH1 0x0 DUP6 DUP2 MSTORE PUSH1 0x2 PUSH1 0x20 MSTORE PUSH1 0x40 DUP2 KECCAK256 DUP1 SLOAD PUSH1 0xB SWAP1 SWAP2 ADD SLOAD PUSH1 0x1 PUSH1 0x1 PUSH1 0xA0 SHL SUB SWAP1 SWAP2 AND SWAP2 SWAP1 PUSH2 0x3FC4 SWAP1 PUSH2 0x1E0F JUMP JUMPDEST SWAP1 POP PUSH2 0x3FD0 DUP3 DUP3 PUSH2 0x2F48 JUMP JUMPDEST POP PUSH1 0x0 SWAP7 SWAP6 POP POP POP POP POP POP JUMP JUMPDEST DUP1 MLOAD DUP4 PUSH1 0x0 PUSH2 0x3FEC DUP3 DUP5 PUSH2 0x6823 JUMP JUMPDEST SWAP1 POP PUSH1 0x0 PUSH2 0x3FF9 DUP10 PUSH2 0x1F7C JUMP JUMPDEST SWAP1 POP PUSH1 0x0 JUMPDEST DUP6 MLOAD DUP2 LT ISZERO PUSH2 0x4168 JUMPI PUSH1 0x0 DUP7 DUP3 DUP2 MLOAD DUP2 LT PUSH2 0x401B JUMPI PUSH2 0x401B PUSH2 0x68F7 JUMP JUMPDEST PUSH1 0x20 MUL PUSH1 0x20 ADD ADD MLOAD PUSH1 0x60 ADD MLOAD PUSH1 0xB DUP2 GT ISZERO PUSH2 0x4038 JUMPI PUSH2 0x4038 PUSH2 0x68E1 JUMP JUMPDEST EQ ISZERO PUSH2 0x4156 JUMPI PUSH1 0x0 JUMPDEST DUP9 DUP2 LT ISZERO PUSH2 0x4154 JUMPI DUP4 PUSH2 0x4094 DUP13 DUP6 DUP5 DUP2 MLOAD DUP2 LT PUSH2 0x4060 JUMPI PUSH2 0x4060 PUSH2 0x68F7 JUMP JUMPDEST PUSH1 0x20 MUL PUSH1 0x20 ADD ADD MLOAD PUSH1 0x0 DUP3 DUP2 MSTORE PUSH1 0x2 PUSH1 0x20 SWAP1 DUP2 MSTORE PUSH1 0x40 DUP1 DUP4 KECCAK256 PUSH1 0x1 PUSH1 0x1 PUSH1 0xA0 SHL SUB DUP6 AND DUP5 MSTORE PUSH1 0x10 ADD SWAP1 SWAP2 MSTORE SWAP1 KECCAK256 SLOAD SWAP3 SWAP2 POP POP JUMP JUMPDEST GT ISZERO PUSH2 0x409F JUMPI PUSH2 0x4142 JUMP JUMPDEST PUSH2 0x40C5 DUP12 DUP4 DUP6 DUP5 DUP2 MLOAD DUP2 LT PUSH2 0x40B6 JUMPI PUSH2 0x40B6 PUSH2 0x68F7 JUMP JUMPDEST PUSH1 0x20 MUL PUSH1 0x20 ADD ADD MLOAD PUSH1 0x0 PUSH2 0x4FD5 JUMP JUMPDEST PUSH32 0xAD65127436138B4AFE97EF23BAF28ED14A5FB09500AD117EB196CD3BDB3DBE9F DUP12 DUP4 DUP6 DUP5 DUP2 MLOAD DUP2 LT PUSH2 0x40FA JUMPI PUSH2 0x40FA PUSH2 0x68F7 JUMP JUMPDEST PUSH1 0x20 MUL PUSH1 0x20 ADD ADD MLOAD PUSH1 0x0 PUSH1 0x40 MLOAD PUSH2 0x4135 SWAP5 SWAP4 SWAP3 SWAP2 SWAP1 SWAP4 DUP5 MSTORE PUSH1 0x20 DUP5 ADD SWAP3 SWAP1 SWAP3 MSTORE PUSH1 0x1 PUSH1 0x1 PUSH1 0xA0 SHL SUB AND PUSH1 0x40 DUP4 ADD MSTORE ISZERO ISZERO PUSH1 0x60 DUP3 ADD MSTORE PUSH1 0x80 ADD SWAP1 JUMP JUMPDEST PUSH1 0x40 MLOAD DUP1 SWAP2 SUB SWAP1 LOG1 PUSH2 0x4154 JUMP JUMPDEST DUP1 PUSH2 0x414C DUP2 PUSH2 0x68B0 JUMP JUMPDEST SWAP2 POP POP PUSH2 0x4041 JUMP JUMPDEST POP JUMPDEST DUP1 PUSH2 0x4160 DUP2 PUSH2 0x68B0 JUMP JUMPDEST SWAP2 POP POP PUSH2 0x3FFE JUMP JUMPDEST POP PUSH2 0x4172 DUP10 PUSH2 0x5126 JUMP JUMPDEST PUSH2 0x417D DUP10 PUSH1 0x1 PUSH2 0x187D JUMP JUMPDEST ISZERO PUSH2 0x4192 JUMPI PUSH2 0x418D DUP10 PUSH1 0x3 PUSH2 0x50BC JUMP JUMPDEST PUSH2 0x419D JUMP JUMPDEST PUSH2 0x419D DUP10 PUSH1 0x1 PUSH2 0x50BC JUMP JUMPDEST POP POP POP POP PUSH1 0x0 SWAP4 POP POP POP POP JUMPDEST SWAP2 SWAP1 POP JUMP JUMPDEST PUSH1 0x0 DUP1 PUSH2 0x41BA DUP4 PUSH2 0x5239 JUMP JUMPDEST SWAP1 POP PUSH32 0x9096640C11BD5636CED741C9725E5FF774B334455C80E15491F15BB3AF0BC265 CALLER DUP3 DUP6 PUSH1 0x40 MLOAD PUSH2 0x41EF SWAP4 SWAP3 SWAP2 SWAP1 PUSH2 0x6272 JUMP JUMPDEST PUSH1 0x40 MLOAD DUP1 SWAP2 SUB SWAP1 LOG1 SWAP3 SWAP2 POP POP JUMP JUMPDEST PUSH2 0x191F DUP4 CALLER DUP5 DUP5 PUSH2 0x54FD JUMP JUMPDEST PUSH1 0x0 DUP4 DUP2 MSTORE PUSH1 0x2 PUSH1 0x20 SWAP1 DUP2 MSTORE PUSH1 0x40 DUP1 DUP4 KECCAK256 PUSH1 0x1 PUSH1 0x1 PUSH1 0xA0 SHL SUB DUP6 AND DUP5 MSTORE PUSH1 0xF ADD SWAP1 SWAP2 MSTORE SWAP1 KECCAK256 DUP1 SLOAD PUSH2 0x427C JUMPI PUSH1 0x0 DUP5 DUP2 MSTORE PUSH1 0x2 PUSH1 0x20 SWAP1 DUP2 MSTORE PUSH1 0x40 DUP3 KECCAK256 PUSH1 0xD ADD DUP1 SLOAD PUSH1 0x1 DUP2 ADD DUP3 SSTORE SWAP1 DUP4 MSTORE SWAP2 KECCAK256 ADD DUP1 SLOAD PUSH20 0xFFFFFFFFFFFFFFFFFFFFFFFFFFFFFFFFFFFFFFFF NOT AND PUSH1 0x1 PUSH1 0x1 PUSH1 0xA0 SHL SUB DUP5 AND OR SWAP1 SSTORE JUMPDEST PUSH1 0x0 DUP1 JUMPDEST DUP5 MLOAD DUP2 LT ISZERO PUSH2 0x44F6 JUMPI PUSH1 0x2 PUSH1 0x0 DUP8 DUP2 MSTORE PUSH1 0x20 ADD SWAP1 DUP2 MSTORE PUSH1 0x20 ADD PUSH1 0x0 KECCAK256 PUSH1 0xC ADD DUP6 DUP3 DUP2 MLOAD DUP2 LT PUSH2 0x42B1 JUMPI PUSH2 0x42B1 PUSH2 0x68F7 JUMP JUMPDEST PUSH1 0x20 MUL PUSH1 0x20 ADD ADD MLOAD DUP2 SLOAD DUP2 LT PUSH2 0x42C9 JUMPI PUSH2 0x42C9 PUSH2 0x68F7 JUMP JUMPDEST PUSH1 0x0 SWAP2 DUP3 MSTORE PUSH1 0x20 DUP3 KECCAK256 PUSH1 0x9 PUSH1 0xB SWAP1 SWAP3 MUL ADD ADD SLOAD PUSH1 0xFF AND SWAP3 POP DUP3 PUSH1 0xB DUP2 GT ISZERO PUSH2 0x42F3 JUMPI PUSH2 0x42F3 PUSH2 0x68E1 JUMP JUMPDEST EQ ISZERO PUSH2 0x43CD JUMPI PUSH1 0x2 DUP1 PUSH1 0x0 DUP9 DUP2 MSTORE PUSH1 0x20 ADD SWAP1 DUP2 MSTORE PUSH1 0x20 ADD PUSH1 0x0 KECCAK256 PUSH1 0xC ADD DUP7 DUP4 DUP2 MLOAD DUP2 LT PUSH2 0x4322 JUMPI PUSH2 0x4322 PUSH2 0x68F7 JUMP JUMPDEST PUSH1 0x20 MUL PUSH1 0x20 ADD ADD MLOAD DUP2 SLOAD DUP2 LT PUSH2 0x433A JUMPI PUSH2 0x433A PUSH2 0x68F7 JUMP JUMPDEST SWAP1 PUSH1 0x0 MSTORE PUSH1 0x20 PUSH1 0x0 KECCAK256 SWAP1 PUSH1 0xB MUL ADD PUSH1 0x9 ADD PUSH1 0x0 PUSH2 0x100 EXP DUP2 SLOAD DUP2 PUSH1 0xFF MUL NOT AND SWAP1 DUP4 PUSH1 0xB DUP2 GT ISZERO PUSH2 0x436C JUMPI PUSH2 0x436C PUSH2 0x68E1 JUMP JUMPDEST MUL OR SWAP1 SSTORE POP PUSH32 0x188FFF7234F3BB35C4F436313EC14267725515E4CA367843CD416621A72FB8A3 DUP7 DUP7 DUP4 DUP2 MLOAD DUP2 LT PUSH2 0x43A5 JUMPI PUSH2 0x43A5 PUSH2 0x68F7 JUMP JUMPDEST PUSH1 0x20 MUL PUSH1 0x20 ADD ADD MLOAD PUSH1 0x2 CALLER PUSH1 0x40 MLOAD PUSH2 0x43C0 SWAP5 SWAP4 SWAP3 SWAP2 SWAP1 PUSH2 0x6713 JUMP JUMPDEST PUSH1 0x40 MLOAD DUP1 SWAP2 SUB SWAP1 LOG1 PUSH2 0x44AF JUMP JUMPDEST PUSH1 0x1 DUP3 PUSH1 0xB DUP2 GT ISZERO PUSH2 0x43E1 JUMPI PUSH2 0x43E1 PUSH2 0x68E1 JUMP JUMPDEST EQ ISZERO PUSH2 0x3654 JUMPI PUSH1 0x3 PUSH1 0x2 PUSH1 0x0 DUP9 DUP2 MSTORE PUSH1 0x20 ADD SWAP1 DUP2 MSTORE PUSH1 0x20 ADD PUSH1 0x0 KECCAK256 PUSH1 0xC ADD DUP7 DUP4 DUP2 MLOAD DUP2 LT PUSH2 0x4411 JUMPI PUSH2 0x4411 PUSH2 0x68F7 JUMP JUMPDEST PUSH1 0x20 MUL PUSH1 0x20 ADD ADD MLOAD DUP2 SLOAD DUP2 LT PUSH2 0x4429 JUMPI PUSH2 0x4429 PUSH2 0x68F7 JUMP JUMPDEST SWAP1 PUSH1 0x0 MSTORE PUSH1 0x20 PUSH1 0x0 KECCAK256 SWAP1 PUSH1 0xB MUL ADD PUSH1 0x9 ADD PUSH1 0x0 PUSH2 0x100 EXP DUP2 SLOAD DUP2 PUSH1 0xFF MUL NOT AND SWAP1 DUP4 PUSH1 0xB DUP2 GT ISZERO PUSH2 0x445B JUMPI PUSH2 0x445B PUSH2 0x68E1 JUMP JUMPDEST MUL OR SWAP1 SSTORE POP PUSH32 0x188FFF7234F3BB35C4F436313EC14267725515E4CA367843CD416621A72FB8A3 DUP7 DUP7 DUP4 DUP2 MLOAD DUP2 LT PUSH2 0x4494 JUMPI PUSH2 0x4494 PUSH2 0x68F7 JUMP JUMPDEST PUSH1 0x20 MUL PUSH1 0x20 ADD ADD MLOAD PUSH1 0x3 CALLER PUSH1 0x40 MLOAD PUSH2 0x43C0 SWAP5 SWAP4 SWAP3 SWAP2 SWAP1 PUSH2 0x6713 JUMP JUMPDEST DUP3 PUSH1 0x0 ADD DUP6 DUP3 DUP2 MLOAD DUP2 LT PUSH2 0x44C5 JUMPI PUSH2 0x44C5 PUSH2 0x68F7 JUMP JUMPDEST PUSH1 0x20 SWAP1 DUP2 MUL SWAP2 SWAP1 SWAP2 ADD DUP2 ADD MLOAD DUP3 SLOAD PUSH1 0x1 DUP2 ADD DUP5 SSTORE PUSH1 0x0 SWAP4 DUP5 MSTORE SWAP2 SWAP1 SWAP3 KECCAK256 ADD SSTORE DUP1 PUSH2 0x44EE DUP2 PUSH2 0x68B0 JUMP JUMPDEST SWAP2 POP POP PUSH2 0x4280 JUMP JUMPDEST POP PUSH1 0x0 DUP6 DUP2 MSTORE PUSH1 0x2 PUSH1 0x20 MSTORE PUSH1 0x40 DUP2 KECCAK256 PUSH1 0x13 ADD DUP1 SLOAD SWAP2 PUSH2 0x4514 DUP4 PUSH2 0x68B0 JUMP JUMPDEST SWAP2 SWAP1 POP SSTORE POP PUSH2 0x4524 DUP6 PUSH1 0x1 PUSH2 0x187D JUMP JUMPDEST ISZERO PUSH2 0xAAE JUMPI PUSH1 0x0 DUP6 DUP2 MSTORE PUSH1 0x2 PUSH1 0x20 SWAP1 DUP2 MSTORE PUSH1 0x40 DUP1 DUP4 KECCAK256 PUSH1 0x15 ADD DUP1 SLOAD PUSH1 0xFF NOT AND SWAP1 SSTORE DUP1 MLOAD DUP9 DUP2 MSTORE SWAP2 DUP3 ADD SWAP3 SWAP1 SWAP3 MSTORE CALLER DUP2 DUP4 ADD MSTORE SWAP1 MLOAD PUSH32 0x398FD552105B0090D73611AD526D12979F19B77A7F923343A85D8FD14A13A67 SWAP2 DUP2 SWAP1 SUB PUSH1 0x60 ADD SWAP1 LOG1 PUSH2 0x458D DUP6 PUSH1 0x0 PUSH2 0x187D JUMP JUMPDEST ISZERO PUSH2 0x45B9 JUMPI PUSH1 0x0 DUP6 DUP2 MSTORE PUSH1 0x2 PUSH1 0x20 MSTORE PUSH1 0x40 SWAP1 KECCAK256 PUSH1 0x15 ADD DUP1 SLOAD PUSH1 0x3 SWAP2 SWAP1 PUSH3 0xFF0000 NOT AND PUSH3 0x10000 DUP4 PUSH2 0x378F JUMP JUMPDEST PUSH1 0x0 DUP6 DUP2 MSTORE PUSH1 0x2 PUSH1 0x20 DUP2 SWAP1 MSTORE PUSH1 0x40 SWAP1 SWAP2 KECCAK256 PUSH1 0x15 ADD DUP1 SLOAD PUSH3 0xFF0000 NOT AND PUSH3 0x10000 DUP4 MUL OR SWAP1 SSTORE POP PUSH32 0xDEA20A6D822B68D598B7AB4FD45418A7CA7B103F12D300BCC3B56A7B94D9ED33 DUP6 PUSH1 0x2 CALLER PUSH1 0x40 MLOAD PUSH2 0x382A SWAP4 SWAP3 SWAP2 SWAP1 PUSH2 0x66E8 JUMP JUMPDEST PUSH1 0x0 DUP3 DUP2 MSTORE PUSH1 0x2 PUSH1 0x20 DUP2 DUP2 MSTORE PUSH1 0x40 SWAP1 SWAP3 KECCAK256 DUP4 MLOAD PUSH1 0x1 DUP3 ADD SSTORE DUP4 DUP4 ADD MLOAD DUP1 MLOAD SWAP2 SWAP4 PUSH2 0x4642 SWAP4 DUP6 ADD SWAP3 SWAP2 ADD SWAP1 PUSH2 0x574D JUMP JUMPDEST POP PUSH1 0x40 DUP3 ADD MLOAD DUP1 MLOAD PUSH2 0x465E SWAP2 PUSH1 0x3 DUP5 ADD SWAP2 PUSH1 0x20 SWAP1 SWAP2 ADD SWAP1 PUSH2 0x574D JUMP JUMPDEST POP PUSH1 0x60 DUP3 ADD MLOAD PUSH1 0x4 DUP3 ADD SSTORE PUSH1 0x80 DUP3 ADD MLOAD PUSH1 0x5 DUP3 ADD SSTORE PUSH1 0xA0 DUP3 ADD MLOAD PUSH1 0x6 DUP3 ADD SSTORE PUSH1 0xC0 DUP3 ADD MLOAD DUP1 MLOAD PUSH2 0x4698 SWAP2 PUSH1 0x7 DUP5 ADD SWAP2 PUSH1 0x20 SWAP1 SWAP2 ADD SWAP1 PUSH2 0x57D1 JUMP JUMPDEST POP PUSH1 0xE0 DUP3 ADD MLOAD PUSH1 0x8 DUP3 ADD SSTORE PUSH2 0x100 DUP1 DUP4 ADD MLOAD PUSH1 0x9 DUP4 ADD SSTORE PUSH2 0x160 DUP4 ADD MLOAD PUSH1 0xB DUP4 ADD SSTORE PUSH2 0x120 DUP4 ADD MLOAD PUSH1 0xA DUP4 ADD DUP1 SLOAD PUSH2 0x140 DUP7 ADD MLOAD ISZERO DUP1 ISZERO SWAP1 SWAP5 MUL PUSH2 0xFF00 NOT SWAP4 ISZERO ISZERO SWAP4 SWAP1 SWAP4 AND PUSH2 0xFFFF NOT SWAP1 SWAP2 AND OR SWAP2 SWAP1 SWAP2 OR SWAP1 SSTORE PUSH2 0x4700 JUMPI PUSH2 0x180 DUP3 ADD MLOAD MLOAD PUSH1 0x11 DUP3 ADD SSTORE PUSH2 0x4708 JUMP JUMPDEST PUSH1 0x1 PUSH1 0x11 DUP3 ADD SSTORE JUMPDEST PUSH1 0x15 DUP2 ADD DUP1 SLOAD PUSH1 0xFF NOT AND PUSH1 0x1 OR SWAP1 SSTORE PUSH1 0x0 JUMPDEST DUP3 PUSH2 0x180 ADD MLOAD MLOAD DUP2 LT ISZERO PUSH2 0x3B34 JUMPI DUP2 PUSH1 0xC ADD DUP4 PUSH2 0x180 ADD MLOAD DUP3 DUP2 MLOAD DUP2 LT PUSH2 0x4743 JUMPI PUSH2 0x4743 PUSH2 0x68F7 JUMP JUMPDEST PUSH1 0x20 SWAP1 DUP2 MUL SWAP2 SWAP1 SWAP2 ADD DUP2 ADD MLOAD DUP3 SLOAD PUSH1 0x1 DUP2 ADD DUP5 SSTORE PUSH1 0x0 SWAP4 DUP5 MSTORE SWAP3 DUP3 SWAP1 KECCAK256 DUP2 MLOAD DUP1 MLOAD DUP1 MLOAD SWAP4 SWAP6 PUSH1 0xB MUL SWAP1 SWAP3 ADD SWAP4 SWAP1 SWAP3 DUP5 SWAP3 PUSH2 0x4781 SWAP3 DUP5 SWAP3 SWAP2 ADD SWAP1 PUSH2 0x574D JUMP JUMPDEST POP PUSH1 0x20 DUP3 DUP2 ADD MLOAD PUSH1 0x1 DUP4 ADD SSTORE PUSH1 0x40 DUP4 ADD MLOAD PUSH1 0x2 DUP4 ADD SSTORE PUSH1 0x60 DUP4 ADD MLOAD PUSH1 0x3 DUP4 ADD SSTORE PUSH1 0x80 DUP4 ADD MLOAD PUSH1 0x4 DUP4 ADD SSTORE PUSH1 0xA0 DUP4 ADD MLOAD PUSH1 0x5 DUP4 ADD SSTORE PUSH1 0xC0 DUP4 ADD MLOAD DUP1 MLOAD PUSH2 0x47CC SWAP3 PUSH1 0x6 DUP6 ADD SWAP3 ADD SWAP1 PUSH2 0x574D JUMP JUMPDEST POP POP POP PUSH1 0x20 DUP3 DUP2 ADD MLOAD PUSH1 0x7 DUP4 ADD SSTORE PUSH1 0x40 DUP4 ADD MLOAD DUP1 MLOAD PUSH2 0x47F1 SWAP3 PUSH1 0x8 DUP6 ADD SWAP3 ADD SWAP1 PUSH2 0x574D JUMP JUMPDEST POP PUSH1 0x60 DUP3 ADD MLOAD PUSH1 0x9 DUP3 ADD DUP1 SLOAD PUSH1 0xFF NOT AND PUSH1 0x1 DUP4 PUSH1 0xB DUP2 GT ISZERO PUSH2 0x4815 JUMPI PUSH2 0x4815 PUSH2 0x68E1 JUMP JUMPDEST MUL OR SWAP1 SSTORE POP PUSH1 0x80 DUP3 ADD MLOAD DUP2 PUSH1 0xA ADD SSTORE POP POP DUP1 DUP1 PUSH2 0x4831 SWAP1 PUSH2 0x68B0 JUMP JUMPDEST SWAP2 POP POP PUSH2 0x471A JUMP JUMPDEST PUSH1 0x0 PUSH2 0x2E00 DUP3 DUP5 PUSH2 0x6845 JUMP JUMPDEST PUSH1 0x0 DUP6 DUP2 MSTORE PUSH1 0x2 PUSH1 0x20 SWAP1 DUP2 MSTORE PUSH1 0x40 DUP1 DUP4 KECCAK256 PUSH1 0x1 PUSH1 0x1 PUSH1 0xA0 SHL SUB DUP9 AND DUP5 MSTORE PUSH1 0xF DUP2 ADD DUP4 MSTORE DUP2 DUP5 KECCAK256 DUP7 DUP6 MSTORE PUSH1 0x1 SWAP1 DUP2 ADD SWAP1 SWAP4 MSTORE SWAP3 DUP2 SWAP1 KECCAK256 DUP1 SLOAD PUSH1 0xFF NOT AND PUSH1 0x3 SWAP1 DUP2 OR SWAP1 SWAP2 SSTORE SWAP1 MLOAD PUSH32 0x4B906571B20F3DCDF826B53F3C66528E252B2EB87DE3CB812F18E6859E119344 SWAP3 PUSH2 0x48BE SWAP3 DUP11 SWAP3 DUP11 SWAP3 DUP10 SWAP3 SWAP2 CALLER SWAP1 PUSH2 0x6666 JUMP JUMPDEST PUSH1 0x40 MLOAD DUP1 SWAP2 SUB SWAP1 LOG1 PUSH1 0x6 DUP2 PUSH1 0xC ADD DUP5 DUP2 SLOAD DUP2 LT PUSH2 0x48DD JUMPI PUSH2 0x48DD PUSH2 0x68F7 JUMP JUMPDEST SWAP1 PUSH1 0x0 MSTORE PUSH1 0x20 PUSH1 0x0 KECCAK256 SWAP1 PUSH1 0xB MUL ADD PUSH1 0x9 ADD PUSH1 0x0 PUSH2 0x100 EXP DUP2 SLOAD DUP2 PUSH1 0xFF MUL NOT AND SWAP1 DUP4 PUSH1 0xB DUP2 GT ISZERO PUSH2 0x490F JUMPI PUSH2 0x490F PUSH2 0x68E1 JUMP JUMPDEST MUL OR SWAP1 SSTORE POP PUSH32 0x188FFF7234F3BB35C4F436313EC14267725515E4CA367843CD416621A72FB8A3 DUP7 DUP5 PUSH1 0x6 CALLER PUSH1 0x40 MLOAD PUSH2 0x494A SWAP5 SWAP4 SWAP3 SWAP2 SWAP1 PUSH2 0x6713 JUMP JUMPDEST PUSH1 0x40 MLOAD DUP1 SWAP2 SUB SWAP1 LOG1 TIMESTAMP DUP2 PUSH1 0xC ADD DUP5 DUP2 SLOAD DUP2 LT PUSH2 0x4968 JUMPI PUSH2 0x4968 PUSH2 0x68F7 JUMP JUMPDEST PUSH1 0x0 SWAP2 DUP3 MSTORE PUSH1 0x20 DUP1 DUP4 KECCAK256 PUSH1 0xA PUSH1 0xB SWAP1 SWAP4 MUL ADD SWAP2 SWAP1 SWAP2 ADD SWAP3 SWAP1 SWAP3 SSTORE PUSH1 0x1 PUSH1 0x1 PUSH1 0xA0 SHL SUB DUP7 AND DUP2 MSTORE PUSH1 0x10 DUP4 ADD DUP3 MSTORE PUSH1 0x40 DUP1 DUP3 KECCAK256 DUP7 DUP4 MSTORE PUSH1 0x1 SWAP1 DUP2 ADD DUP5 MSTORE SWAP2 KECCAK256 DUP5 MLOAD PUSH2 0x49B9 SWAP4 SWAP2 SWAP1 SWAP3 ADD SWAP2 SWAP1 DUP6 ADD SWAP1 PUSH2 0x574D JUMP JUMPDEST POP PUSH1 0x1 PUSH1 0x1 PUSH1 0xA0 SHL SUB DUP5 AND PUSH1 0x0 SWAP1 DUP2 MSTORE PUSH1 0x10 DUP3 ADD PUSH1 0x20 SWAP1 DUP2 MSTORE PUSH1 0x40 DUP1 DUP4 KECCAK256 DUP7 DUP5 MSTORE PUSH1 0x1 SWAP1 DUP2 ADD SWAP1 SWAP3 MSTORE DUP1 DUP4 KECCAK256 DUP1 SLOAD PUSH1 0xFF NOT AND DUP4 OR SWAP1 SSTORE MLOAD PUSH32 0x4B906571B20F3DCDF826B53F3C66528E252B2EB87DE3CB812F18E6859E119344 SWAP3 PUSH2 0xE40 SWAP3 DUP11 SWAP3 DUP10 SWAP3 DUP10 SWAP3 SWAP2 CALLER SWAP1 PUSH2 0x6666 JUMP JUMPDEST DUP1 ISZERO PUSH2 0x4B47 JUMPI PUSH1 0x0 DUP5 DUP2 MSTORE PUSH1 0x2 PUSH1 0x20 DUP2 DUP2 MSTORE PUSH1 0x40 DUP1 DUP5 KECCAK256 PUSH1 0x1 PUSH1 0x1 PUSH1 0xA0 SHL SUB DUP9 AND DUP6 MSTORE PUSH1 0xF ADD DUP3 MSTORE DUP1 DUP5 KECCAK256 DUP7 DUP6 MSTORE PUSH1 0x1 SWAP1 DUP2 ADD SWAP1 SWAP3 MSTORE SWAP3 DUP4 SWAP1 KECCAK256 DUP1 SLOAD PUSH1 0xFF NOT AND DUP4 OR SWAP1 SSTORE SWAP2 MLOAD PUSH32 0x4B906571B20F3DCDF826B53F3C66528E252B2EB87DE3CB812F18E6859E119344 SWAP3 PUSH2 0x4A9E SWAP3 DUP9 SWAP3 DUP9 SWAP3 DUP9 SWAP3 SWAP2 CALLER SWAP1 PUSH2 0x6666 JUMP JUMPDEST PUSH1 0x40 MLOAD DUP1 SWAP2 SUB SWAP1 LOG1 PUSH1 0x0 DUP5 DUP2 MSTORE PUSH1 0x2 PUSH1 0x20 MSTORE PUSH1 0x40 SWAP1 KECCAK256 PUSH1 0xC ADD DUP1 SLOAD PUSH1 0x5 SWAP2 SWAP1 DUP5 SWAP1 DUP2 LT PUSH2 0x4ACD JUMPI PUSH2 0x4ACD PUSH2 0x68F7 JUMP JUMPDEST SWAP1 PUSH1 0x0 MSTORE PUSH1 0x20 PUSH1 0x0 KECCAK256 SWAP1 PUSH1 0xB MUL ADD PUSH1 0x9 ADD PUSH1 0x0 PUSH2 0x100 EXP DUP2 SLOAD DUP2 PUSH1 0xFF MUL NOT AND SWAP1 DUP4 PUSH1 0xB DUP2 GT ISZERO PUSH2 0x4AFF JUMPI PUSH2 0x4AFF PUSH2 0x68E1 JUMP JUMPDEST MUL OR SWAP1 SSTORE POP PUSH32 0x188FFF7234F3BB35C4F436313EC14267725515E4CA367843CD416621A72FB8A3 DUP5 DUP4 PUSH1 0x5 CALLER PUSH1 0x40 MLOAD PUSH2 0x4B3A SWAP5 SWAP4 SWAP3 SWAP2 SWAP1 PUSH2 0x6713 JUMP JUMPDEST PUSH1 0x40 MLOAD DUP1 SWAP2 SUB SWAP1 LOG1 PUSH2 0x3B34 JUMP JUMPDEST PUSH1 0x0 DUP5 DUP2 MSTORE PUSH1 0x2 PUSH1 0x20 DUP2 DUP2 MSTORE PUSH1 0x40 DUP1 DUP5 KECCAK256 PUSH1 0x1 PUSH1 0x1 PUSH1 0xA0 SHL SUB DUP9 AND DUP6 MSTORE PUSH1 0x10 ADD DUP3 MSTORE DUP1 DUP5 KECCAK256 DUP7 DUP6 MSTORE PUSH1 0x1 ADD SWAP1 SWAP2 MSTORE DUP1 DUP4 KECCAK256 DUP1 SLOAD PUSH1 0xFF NOT AND DUP4 OR SWAP1 SSTORE MLOAD PUSH32 0x4B906571B20F3DCDF826B53F3C66528E252B2EB87DE3CB812F18E6859E119344 SWAP3 PUSH2 0x4BB7 SWAP3 DUP9 SWAP3 DUP9 SWAP3 DUP9 SWAP3 SWAP2 CALLER SWAP1 PUSH2 0x6666 JUMP JUMPDEST PUSH1 0x40 MLOAD DUP1 SWAP2 SUB SWAP1 LOG1 PUSH1 0x0 DUP5 DUP2 MSTORE PUSH1 0x2 PUSH1 0x20 MSTORE PUSH1 0x40 SWAP1 KECCAK256 PUSH1 0xC ADD DUP1 SLOAD PUSH1 0x7 SWAP2 SWAP1 DUP5 SWAP1 DUP2 LT PUSH2 0x4BE6 JUMPI PUSH2 0x4BE6 PUSH2 0x68F7 JUMP JUMPDEST SWAP1 PUSH1 0x0 MSTORE PUSH1 0x20 PUSH1 0x0 KECCAK256 SWAP1 PUSH1 0xB MUL ADD PUSH1 0x9 ADD PUSH1 0x0 PUSH2 0x100 EXP DUP2 SLOAD DUP2 PUSH1 0xFF MUL NOT AND SWAP1 DUP4 PUSH1 0xB DUP2 GT ISZERO PUSH2 0x4C18 JUMPI PUSH2 0x4C18 PUSH2 0x68E1 JUMP JUMPDEST MUL OR SWAP1 SSTORE POP PUSH32 0x188FFF7234F3BB35C4F436313EC14267725515E4CA367843CD416621A72FB8A3 DUP5 DUP4 PUSH1 0x7 CALLER PUSH1 0x40 MLOAD PUSH2 0x4C53 SWAP5 SWAP4 SWAP3 SWAP2 SWAP1 PUSH2 0x6713 JUMP JUMPDEST PUSH1 0x40 MLOAD DUP1 SWAP2 SUB SWAP1 LOG1 POP POP POP POP JUMP JUMPDEST DUP1 ISZERO PUSH2 0x4D61 JUMPI PUSH1 0x0 JUMPDEST DUP4 MLOAD DUP2 LT ISZERO PUSH2 0x4D5B JUMPI PUSH1 0x0 DUP7 DUP2 MSTORE PUSH1 0x2 PUSH1 0x20 SWAP1 DUP2 MSTORE PUSH1 0x40 DUP1 DUP4 KECCAK256 PUSH1 0x1 PUSH1 0x1 PUSH1 0xA0 SHL SUB DUP10 AND DUP5 MSTORE PUSH1 0xF ADD SWAP1 SWAP2 MSTORE DUP2 KECCAK256 DUP6 MLOAD DUP6 SWAP3 PUSH1 0x1 SWAP1 SWAP3 ADD SWAP2 SWAP1 DUP8 SWAP1 DUP6 SWAP1 DUP2 LT PUSH2 0x4CB5 JUMPI PUSH2 0x4CB5 PUSH2 0x68F7 JUMP JUMPDEST PUSH1 0x20 SWAP1 DUP2 MUL SWAP2 SWAP1 SWAP2 ADD DUP2 ADD MLOAD DUP3 MSTORE DUP2 ADD SWAP2 SWAP1 SWAP2 MSTORE PUSH1 0x40 ADD PUSH1 0x0 KECCAK256 DUP1 SLOAD PUSH1 0xFF NOT AND PUSH1 0x1 DUP4 PUSH1 0x4 DUP2 GT ISZERO PUSH2 0x4CE9 JUMPI PUSH2 0x4CE9 PUSH2 0x68E1 JUMP JUMPDEST MUL OR SWAP1 SSTORE POP PUSH32 0x4B906571B20F3DCDF826B53F3C66528E252B2EB87DE3CB812F18E6859E119344 DUP7 DUP7 DUP7 DUP5 DUP2 MLOAD DUP2 LT PUSH2 0x4D23 JUMPI PUSH2 0x4D23 PUSH2 0x68F7 JUMP JUMPDEST PUSH1 0x20 MUL PUSH1 0x20 ADD ADD MLOAD DUP7 PUSH1 0x1 CALLER PUSH1 0x40 MLOAD PUSH2 0x4D41 SWAP7 SWAP6 SWAP5 SWAP4 SWAP3 SWAP2 SWAP1 PUSH2 0x6666 JUMP JUMPDEST PUSH1 0x40 MLOAD DUP1 SWAP2 SUB SWAP1 LOG1 DUP1 PUSH2 0x4D53 DUP2 PUSH2 0x68B0 JUMP JUMPDEST SWAP2 POP POP PUSH2 0x4C6A JUMP JUMPDEST POP PUSH2 0xAAE JUMP JUMPDEST PUSH1 0x0 JUMPDEST DUP4 MLOAD DUP2 LT ISZERO PUSH2 0x4E55 JUMPI PUSH1 0x0 DUP7 DUP2 MSTORE PUSH1 0x2 PUSH1 0x20 SWAP1 DUP2 MSTORE PUSH1 0x40 DUP1 DUP4 KECCAK256 PUSH1 0x1 PUSH1 0x1 PUSH1 0xA0 SHL SUB DUP10 AND DUP5 MSTORE PUSH1 0x10 ADD SWAP1 SWAP2 MSTORE DUP2 KECCAK256 DUP6 MLOAD DUP6 SWAP3 PUSH1 0x1 SWAP1 SWAP3 ADD SWAP2 SWAP1 DUP8 SWAP1 DUP6 SWAP1 DUP2 LT PUSH2 0x4DAF JUMPI PUSH2 0x4DAF PUSH2 0x68F7 JUMP JUMPDEST PUSH1 0x20 SWAP1 DUP2 MUL SWAP2 SWAP1 SWAP2 ADD DUP2 ADD MLOAD DUP3 MSTORE DUP2 ADD SWAP2 SWAP1 SWAP2 MSTORE PUSH1 0x40 ADD PUSH1 0x0 KECCAK256 DUP1 SLOAD PUSH1 0xFF NOT AND PUSH1 0x1 DUP4 PUSH1 0x4 DUP2 GT ISZERO PUSH2 0x4DE3 JUMPI PUSH2 0x4DE3 PUSH2 0x68E1 JUMP JUMPDEST MUL OR SWAP1 SSTORE POP PUSH32 0x4B906571B20F3DCDF826B53F3C66528E252B2EB87DE3CB812F18E6859E119344 DUP7 DUP7 DUP7 DUP5 DUP2 MLOAD DUP2 LT PUSH2 0x4E1D JUMPI PUSH2 0x4E1D PUSH2 0x68F7 JUMP JUMPDEST PUSH1 0x20 MUL PUSH1 0x20 ADD ADD MLOAD DUP7 PUSH1 0x0 CALLER PUSH1 0x40 MLOAD PUSH2 0x4E3B SWAP7 SWAP6 SWAP5 SWAP4 SWAP3 SWAP2 SWAP1 PUSH2 0x6666 JUMP JUMPDEST PUSH1 0x40 MLOAD DUP1 SWAP2 SUB SWAP1 LOG1 DUP1 PUSH2 0x4E4D DUP2 PUSH2 0x68B0 JUMP JUMPDEST SWAP2 POP POP PUSH2 0x4D64 JUMP JUMPDEST POP POP POP POP POP POP JUMP JUMPDEST PUSH1 0x0 PUSH2 0xB1F DUP3 PUSH1 0x36 PUSH2 0x2DE8 JUMP JUMPDEST PUSH1 0x0 DUP4 DUP2 MSTORE PUSH1 0x2 PUSH1 0x20 SWAP1 DUP2 MSTORE PUSH1 0x40 DUP1 DUP4 KECCAK256 PUSH1 0x1 PUSH1 0x1 PUSH1 0xA0 SHL SUB DUP7 AND DUP5 MSTORE PUSH1 0x10 ADD DUP3 MSTORE DUP1 DUP4 KECCAK256 DUP5 DUP5 MSTORE PUSH1 0x1 ADD SWAP1 SWAP2 MSTORE DUP1 DUP3 KECCAK256 DUP1 SLOAD PUSH1 0xFF NOT AND PUSH1 0x3 SWAP1 DUP2 OR SWAP1 SWAP2 SSTORE SWAP1 MLOAD PUSH32 0x4B906571B20F3DCDF826B53F3C66528E252B2EB87DE3CB812F18E6859E119344 SWAP3 PUSH2 0x4EDF SWAP3 DUP8 SWAP3 DUP8 SWAP3 DUP8 SWAP3 SWAP2 CALLER SWAP1 PUSH2 0x6666 JUMP JUMPDEST PUSH1 0x40 MLOAD DUP1 SWAP2 SUB SWAP1 LOG1 PUSH1 0x0 DUP4 DUP2 MSTORE PUSH1 0x2 PUSH1 0x20 MSTORE PUSH1 0x40 SWAP1 KECCAK256 PUSH1 0xC ADD DUP1 SLOAD PUSH1 0x8 SWAP2 SWAP1 DUP4 SWAP1 DUP2 LT PUSH2 0x4F0E JUMPI PUSH2 0x4F0E PUSH2 0x68F7 JUMP JUMPDEST SWAP1 PUSH1 0x0 MSTORE PUSH1 0x20 PUSH1 0x0 KECCAK256 SWAP1 PUSH1 0xB MUL ADD PUSH1 0x9 ADD PUSH1 0x0 PUSH2 0x100 EXP DUP2 SLOAD DUP2 PUSH1 0xFF MUL NOT AND SWAP1 DUP4 PUSH1 0xB DUP2 GT ISZERO PUSH2 0x4F40 JUMPI PUSH2 0x4F40 PUSH2 0x68E1 JUMP JUMPDEST MUL OR SWAP1 SSTORE POP PUSH32 0x188FFF7234F3BB35C4F436313EC14267725515E4CA367843CD416621A72FB8A3 DUP4 DUP3 PUSH1 0x8 CALLER PUSH1 0x40 MLOAD PUSH2 0x306B SWAP5 SWAP4 SWAP3 SWAP2 SWAP1 PUSH2 0x6713 JUMP JUMPDEST PUSH1 0x0 DUP2 DUP2 MSTORE PUSH1 0x2 PUSH1 0x20 SWAP1 DUP2 MSTORE PUSH1 0x40 DUP1 DUP4 KECCAK256 PUSH1 0x15 ADD DUP1 SLOAD PUSH1 0xFF NOT AND SWAP1 SSTORE DUP1 MLOAD DUP5 DUP2 MSTORE SWAP2 DUP3 ADD SWAP3 SWAP1 SWAP3 MSTORE CALLER SWAP2 DUP2 ADD SWAP2 SWAP1 SWAP2 MSTORE PUSH32 0x398FD552105B0090D73611AD526D12979F19B77A7F923343A85D8FD14A13A67 SWAP1 PUSH1 0x60 ADD PUSH2 0xFA8 JUMP JUMPDEST PUSH1 0x0 DUP2 ISZERO PUSH2 0x5030 JUMPI POP PUSH1 0x0 DUP5 DUP2 MSTORE PUSH1 0x2 PUSH1 0x20 DUP2 DUP2 MSTORE PUSH1 0x40 DUP1 DUP5 KECCAK256 PUSH1 0x1 PUSH1 0x1 PUSH1 0xA0 SHL SUB DUP8 AND DUP6 MSTORE PUSH1 0xF DUP2 ADD DUP4 MSTORE DUP2 DUP6 KECCAK256 DUP9 DUP7 MSTORE PUSH1 0x1 ADD DUP4 MSTORE SWAP1 DUP5 KECCAK256 DUP9 DUP6 MSTORE SWAP3 SWAP1 SWAP2 MSTORE PUSH1 0x13 ADD DUP1 SLOAD SWAP2 SWAP3 PUSH2 0x5026 DUP4 PUSH2 0x68B0 JUMP JUMPDEST SWAP2 SWAP1 POP SSTORE POP PUSH2 0x507F JUMP JUMPDEST POP PUSH1 0x0 DUP5 DUP2 MSTORE PUSH1 0x2 PUSH1 0x20 DUP2 DUP2 MSTORE PUSH1 0x40 DUP1 DUP5 KECCAK256 PUSH1 0x1 PUSH1 0x1 PUSH1 0xA0 SHL SUB DUP8 AND DUP6 MSTORE PUSH1 0x10 DUP2 ADD DUP4 MSTORE DUP2 DUP6 KECCAK256 DUP9 DUP7 MSTORE PUSH1 0x1 ADD DUP4 MSTORE SWAP1 DUP5 KECCAK256 DUP9 DUP6 MSTORE SWAP3 SWAP1 SWAP2 MSTORE PUSH1 0x14 ADD DUP1 SLOAD SWAP2 SWAP3 PUSH2 0x5079 DUP4 PUSH2 0x68B0 JUMP JUMPDEST SWAP2 SWAP1 POP SSTORE POP JUMPDEST POP POP PUSH1 0x0 SWAP3 DUP4 MSTORE PUSH1 0x2 PUSH1 0x20 SWAP1 DUP2 MSTORE PUSH1 0x40 DUP1 DUP6 KECCAK256 PUSH1 0x1 PUSH1 0x1 PUSH1 0xA0 SHL SUB SWAP1 SWAP4 AND DUP6 MSTORE PUSH1 0xF SWAP1 SWAP3 ADD DUP2 MSTORE SWAP1 DUP4 KECCAK256 DUP1 SLOAD PUSH1 0x1 DUP2 ADD DUP3 SSTORE SWAP1 DUP5 MSTORE SWAP3 KECCAK256 SWAP1 SWAP2 ADD SSTORE JUMP JUMPDEST PUSH1 0x0 DUP3 DUP2 MSTORE PUSH1 0x2 PUSH1 0x20 MSTORE PUSH1 0x40 SWAP1 KECCAK256 PUSH1 0x15 ADD DUP1 SLOAD DUP3 SWAP2 SWAP1 PUSH3 0xFF0000 NOT AND PUSH3 0x10000 DUP4 PUSH1 0x7 DUP2 GT ISZERO PUSH2 0x50EE JUMPI PUSH2 0x50EE PUSH2 0x68E1 JUMP JUMPDEST MUL OR SWAP1 SSTORE POP PUSH32 0xDEA20A6D822B68D598B7AB4FD45418A7CA7B103F12D300BCC3B56A7B94D9ED33 DUP3 DUP3 CALLER PUSH1 0x40 MLOAD PUSH2 0x2DDC SWAP4 SWAP3 SWAP2 SWAP1 PUSH2 0x66E8 JUMP JUMPDEST PUSH1 0x0 DUP2 DUP2 MSTORE PUSH1 0x2 PUSH1 0x20 SWAP1 DUP2 MSTORE PUSH1 0x40 DUP1 DUP4 KECCAK256 PUSH1 0x15 ADD DUP1 SLOAD PUSH2 0xFF00 NOT AND SWAP1 SSTORE DUP1 MLOAD DUP5 DUP2 MSTORE SWAP2 DUP3 ADD SWAP3 SWAP1 SWAP3 MSTORE CALLER SWAP2 DUP2 ADD SWAP2 SWAP1 SWAP2 MSTORE PUSH32 0x89BB035780742B4FE520972847D93DB0618ABD46516AF218E10FD3479347B7E4 SWAP1 PUSH1 0x60 ADD PUSH2 0xFA8 JUMP JUMPDEST PUSH1 0x0 DUP2 DUP2 MSTORE PUSH1 0x2 PUSH1 0x20 MSTORE PUSH1 0x40 SWAP1 DUP2 SWAP1 KECCAK256 PUSH1 0x15 ADD DUP1 SLOAD PUSH3 0xFF0000 NOT AND PUSH3 0x50000 OR SWAP1 SSTORE MLOAD PUSH32 0xDEA20A6D822B68D598B7AB4FD45418A7CA7B103F12D300BCC3B56A7B94D9ED33 SWAP1 PUSH2 0x51D6 SWAP1 DUP4 SWAP1 PUSH1 0x5 SWAP1 CALLER SWAP1 PUSH2 0x66E8 JUMP JUMPDEST PUSH1 0x40 MLOAD DUP1 SWAP2 SUB SWAP1 LOG1 PUSH1 0x0 DUP2 DUP2 MSTORE PUSH1 0x2 PUSH1 0x20 SWAP1 DUP2 MSTORE PUSH1 0x40 DUP1 DUP4 KECCAK256 PUSH1 0x15 ADD DUP1 SLOAD PUSH2 0xFF00 NOT AND SWAP1 SSTORE DUP1 MLOAD DUP5 DUP2 MSTORE SWAP2 DUP3 ADD SWAP3 SWAP1 SWAP3 MSTORE CALLER SWAP2 DUP2 ADD SWAP2 SWAP1 SWAP2 MSTORE PUSH32 0x398FD552105B0090D73611AD526D12979F19B77A7F923343A85D8FD14A13A67 SWAP1 PUSH1 0x60 ADD PUSH2 0xFA8 JUMP JUMPDEST PUSH1 0x4 DUP1 SLOAD PUSH1 0x0 SWAP2 DUP3 PUSH2 0x524A DUP4 PUSH2 0x68B0 JUMP JUMPDEST SWAP1 SWAP2 SSTORE POP POP PUSH1 0x4 SLOAD PUSH1 0x0 SWAP1 DUP2 MSTORE PUSH1 0x2 PUSH1 0x20 DUP2 DUP2 MSTORE PUSH1 0x40 SWAP1 SWAP3 KECCAK256 DUP1 SLOAD PUSH20 0xFFFFFFFFFFFFFFFFFFFFFFFFFFFFFFFFFFFFFFFF NOT AND CALLER OR DUP2 SSTORE DUP5 MLOAD PUSH1 0x1 DUP3 ADD SSTORE DUP5 DUP4 ADD MLOAD DUP1 MLOAD SWAP2 SWAP4 PUSH2 0x529E SWAP4 DUP6 ADD SWAP3 SWAP2 ADD SWAP1 PUSH2 0x574D JUMP JUMPDEST POP PUSH1 0x40 DUP4 ADD MLOAD DUP1 MLOAD PUSH2 0x52BA SWAP2 PUSH1 0x3 DUP5 ADD SWAP2 PUSH1 0x20 SWAP1 SWAP2 ADD SWAP1 PUSH2 0x574D JUMP JUMPDEST POP PUSH1 0x60 DUP4 ADD MLOAD PUSH1 0x4 DUP3 ADD SSTORE PUSH1 0x80 DUP4 ADD MLOAD PUSH1 0x5 DUP3 ADD SSTORE PUSH1 0xA0 DUP4 ADD MLOAD PUSH1 0x6 DUP3 ADD SSTORE PUSH1 0xC0 DUP4 ADD MLOAD DUP1 MLOAD PUSH2 0x52F4 SWAP2 PUSH1 0x7 DUP5 ADD SWAP2 PUSH1 0x20 SWAP1 SWAP2 ADD SWAP1 PUSH2 0x57D1 JUMP JUMPDEST POP PUSH1 0xE0 DUP4 ADD MLOAD PUSH1 0x8 DUP3 ADD SSTORE PUSH2 0x100 DUP1 DUP5 ADD MLOAD PUSH1 0x9 DUP4 ADD SSTORE PUSH2 0x160 DUP5 ADD MLOAD PUSH1 0xB DUP4 ADD SSTORE PUSH2 0x120 DUP5 ADD MLOAD PUSH1 0xA DUP4 ADD DUP1 SLOAD PUSH2 0x140 DUP8 ADD MLOAD ISZERO DUP1 ISZERO SWAP1 SWAP5 MUL PUSH2 0xFF00 NOT SWAP4 ISZERO ISZERO SWAP4 SWAP1 SWAP4 AND PUSH2 0xFFFF NOT SWAP1 SWAP2 AND OR SWAP2 SWAP1 SWAP2 OR SWAP1 SSTORE PUSH2 0x5363 JUMPI PUSH2 0x180 DUP4 ADD MLOAD MLOAD PUSH1 0x11 DUP3 ADD DUP2 SWAP1 SSTORE PUSH1 0x12 DUP3 ADD SSTORE PUSH2 0x5372 JUMP JUMPDEST PUSH1 0x1 PUSH1 0x11 DUP3 ADD DUP2 SWAP1 SSTORE PUSH1 0x12 DUP3 ADD SSTORE JUMPDEST PUSH1 0x15 DUP2 ADD DUP1 SLOAD PUSH2 0xFFFF NOT AND PUSH2 0x101 OR SWAP1 SSTORE PUSH1 0x0 JUMPDEST DUP4 PUSH2 0x180 ADD MLOAD MLOAD DUP2 LT ISZERO PUSH2 0x54F2 JUMPI PUSH1 0x0 DUP5 PUSH2 0x180 ADD MLOAD DUP3 DUP2 MLOAD DUP2 LT PUSH2 0x53AD JUMPI PUSH2 0x53AD PUSH2 0x68F7 JUMP JUMPDEST PUSH1 0x20 MUL PUSH1 0x20 ADD ADD MLOAD PUSH1 0x60 ADD SWAP1 PUSH1 0xB DUP2 GT ISZERO PUSH2 0x53CA JUMPI PUSH2 0x53CA PUSH2 0x68E1 JUMP JUMPDEST SWAP1 DUP2 PUSH1 0xB DUP2 GT ISZERO PUSH2 0x53DD JUMPI PUSH2 0x53DD PUSH2 0x68E1 JUMP JUMPDEST DUP2 MSTORE POP POP DUP2 PUSH1 0xC ADD DUP5 PUSH2 0x180 ADD MLOAD DUP3 DUP2 MLOAD DUP2 LT PUSH2 0x53FC JUMPI PUSH2 0x53FC PUSH2 0x68F7 JUMP JUMPDEST PUSH1 0x20 SWAP1 DUP2 MUL SWAP2 SWAP1 SWAP2 ADD DUP2 ADD MLOAD DUP3 SLOAD PUSH1 0x1 DUP2 ADD DUP5 SSTORE PUSH1 0x0 SWAP4 DUP5 MSTORE SWAP3 DUP3 SWAP1 KECCAK256 DUP2 MLOAD DUP1 MLOAD DUP1 MLOAD SWAP4 SWAP6 PUSH1 0xB MUL SWAP1 SWAP3 ADD SWAP4 SWAP1 SWAP3 DUP5 SWAP3 PUSH2 0x543A SWAP3 DUP5 SWAP3 SWAP2 ADD SWAP1 PUSH2 0x574D JUMP JUMPDEST POP PUSH1 0x20 DUP3 DUP2 ADD MLOAD PUSH1 0x1 DUP4 ADD SSTORE PUSH1 0x40 DUP4 ADD MLOAD PUSH1 0x2 DUP4 ADD SSTORE PUSH1 0x60 DUP4 ADD MLOAD PUSH1 0x3 DUP4 ADD SSTORE PUSH1 0x80 DUP4 ADD MLOAD PUSH1 0x4 DUP4 ADD SSTORE PUSH1 0xA0 DUP4 ADD MLOAD PUSH1 0x5 DUP4 ADD SSTORE PUSH1 0xC0 DUP4 ADD MLOAD DUP1 MLOAD PUSH2 0x5485 SWAP3 PUSH1 0x6 DUP6 ADD SWAP3 ADD SWAP1 PUSH2 0x574D JUMP JUMPDEST POP POP POP PUSH1 0x20 DUP3 DUP2 ADD MLOAD PUSH1 0x7 DUP4 ADD SSTORE PUSH1 0x40 DUP4 ADD MLOAD DUP1 MLOAD PUSH2 0x54AA SWAP3 PUSH1 0x8 DUP6 ADD SWAP3 ADD SWAP1 PUSH2 0x574D JUMP JUMPDEST POP PUSH1 0x60 DUP3 ADD MLOAD PUSH1 0x9 DUP3 ADD DUP1 SLOAD PUSH1 0xFF NOT AND PUSH1 0x1 DUP4 PUSH1 0xB DUP2 GT ISZERO PUSH2 0x54CE JUMPI PUSH2 0x54CE PUSH2 0x68E1 JUMP JUMPDEST MUL OR SWAP1 SSTORE POP PUSH1 0x80 DUP3 ADD MLOAD DUP2 PUSH1 0xA ADD SSTORE POP POP DUP1 DUP1 PUSH2 0x54EA SWAP1 PUSH2 0x68B0 JUMP JUMPDEST SWAP2 POP POP PUSH2 0x5386 JUMP JUMPDEST POP POP PUSH1 0x4 SLOAD SWAP3 SWAP2 POP POP JUMP JUMPDEST PUSH1 0x0 DUP5 DUP2 MSTORE PUSH1 0x2 PUSH1 0x20 MSTORE PUSH1 0x40 SWAP1 KECCAK256 PUSH1 0xC DUP2 ADD DUP1 SLOAD PUSH1 0x4 SWAP2 SWAP1 DUP6 SWAP1 DUP2 LT PUSH2 0x5525 JUMPI PUSH2 0x5525 PUSH2 0x68F7 JUMP JUMPDEST SWAP1 PUSH1 0x0 MSTORE PUSH1 0x20 PUSH1 0x0 KECCAK256 SWAP1 PUSH1 0xB MUL ADD PUSH1 0x9 ADD PUSH1 0x0 PUSH2 0x100 EXP DUP2 SLOAD DUP2 PUSH1 0xFF MUL NOT AND SWAP1 DUP4 PUSH1 0xB DUP2 GT ISZERO PUSH2 0x5557 JUMPI PUSH2 0x5557 PUSH2 0x68E1 JUMP JUMPDEST MUL OR SWAP1 SSTORE POP PUSH32 0x188FFF7234F3BB35C4F436313EC14267725515E4CA367843CD416621A72FB8A3 DUP6 DUP5 PUSH1 0x4 CALLER PUSH1 0x40 MLOAD PUSH2 0x5592 SWAP5 SWAP4 SWAP3 SWAP2 SWAP1 PUSH2 0x6713 JUMP JUMPDEST PUSH1 0x40 MLOAD DUP1 SWAP2 SUB SWAP1 LOG1 TIMESTAMP DUP2 PUSH1 0xC ADD DUP5 DUP2 SLOAD DUP2 LT PUSH2 0x55B0 JUMPI PUSH2 0x55B0 PUSH2 0x68F7 JUMP JUMPDEST PUSH1 0x0 SWAP2 DUP3 MSTORE PUSH1 0x20 DUP1 DUP4 KECCAK256 PUSH1 0xA PUSH1 0xB SWAP1 SWAP4 MUL ADD SWAP2 SWAP1 SWAP2 ADD SWAP3 SWAP1 SWAP3 SSTORE PUSH1 0x1 PUSH1 0x1 PUSH1 0xA0 SHL SUB DUP7 AND DUP2 MSTORE PUSH1 0xF DUP4 ADD DUP3 MSTORE PUSH1 0x40 DUP1 DUP3 KECCAK256 DUP7 DUP4 MSTORE PUSH1 0x1 SWAP1 DUP2 ADD DUP5 MSTORE SWAP2 KECCAK256 DUP5 MLOAD PUSH2 0x5601 SWAP4 SWAP2 SWAP1 SWAP3 ADD SWAP2 SWAP1 DUP6 ADD SWAP1 PUSH2 0x574D JUMP JUMPDEST POP PUSH1 0x1 PUSH1 0x1 PUSH1 0xA0 SHL SUB DUP5 AND PUSH1 0x0 SWAP1 DUP2 MSTORE PUSH1 0xF DUP3 ADD PUSH1 0x20 SWAP1 DUP2 MSTORE PUSH1 0x40 DUP1 DUP4 KECCAK256 DUP7 DUP5 MSTORE PUSH1 0x1 SWAP1 DUP2 ADD SWAP1 SWAP3 MSTORE SWAP2 DUP3 SWAP1 KECCAK256 DUP1 SLOAD PUSH1 0xFF NOT AND DUP3 OR SWAP1 SSTORE SWAP1 MLOAD PUSH32 0x4B906571B20F3DCDF826B53F3C66528E252B2EB87DE3CB812F18E6859E119344 SWAP2 PUSH2 0x382A SWAP2 DUP9 SWAP2 DUP9 SWAP2 DUP9 SWAP2 SWAP1 DUP2 SWAP1 CALLER SWAP1 PUSH2 0x6666 JUMP JUMPDEST PUSH1 0x40 MLOAD DUP1 PUSH2 0x320 ADD PUSH1 0x40 MSTORE DUP1 PUSH1 0x0 PUSH1 0x1 PUSH1 0x1 PUSH1 0xA0 SHL SUB AND DUP2 MSTORE PUSH1 0x20 ADD PUSH1 0x0 DUP2 MSTORE PUSH1 0x20 ADD PUSH1 0x60 DUP2 MSTORE PUSH1 0x20 ADD PUSH1 0x60 DUP2 MSTORE PUSH1 0x20 ADD PUSH1 0x0 DUP2 MSTORE PUSH1 0x20 ADD PUSH1 0x0 DUP2 MSTORE PUSH1 0x20 ADD PUSH1 0x0 DUP2 MSTORE PUSH1 0x20 ADD PUSH1 0x60 DUP2 MSTORE PUSH1 0x20 ADD PUSH1 0x0 DUP2 MSTORE PUSH1 0x20 ADD PUSH1 0x0 DUP2 MSTORE PUSH1 0x20 ADD PUSH1 0x0 ISZERO ISZERO DUP2 MSTORE PUSH1 0x20 ADD PUSH1 0x0 ISZERO ISZERO DUP2 MSTORE PUSH1 0x20 ADD PUSH1 0x0 DUP2 MSTORE PUSH1 0x20 ADD PUSH1 0x60 DUP2 MSTORE PUSH1 0x20 ADD PUSH1 0x60 DUP2 MSTORE PUSH1 0x20 ADD PUSH1 0x60 DUP2 MSTORE PUSH1 0x20 ADD PUSH1 0x60 DUP2 MSTORE PUSH1 0x20 ADD PUSH1 0x60 DUP2 MSTORE PUSH1 0x20 ADD PUSH1 0x0 DUP2 MSTORE PUSH1 0x20 ADD PUSH1 0x0 DUP2 MSTORE PUSH1 0x20 ADD PUSH1 0x0 DUP2 MSTORE PUSH1 0x20 ADD PUSH1 0x0 DUP2 MSTORE PUSH1 0x20 ADD PUSH1 0x0 ISZERO ISZERO DUP2 MSTORE PUSH1 0x20 ADD PUSH1 0x0 ISZERO ISZERO DUP2 MSTORE PUSH1 0x20 ADD PUSH1 0x0 PUSH1 0x7 DUP2 GT ISZERO PUSH2 0x5748 JUMPI PUSH2 0x5748 PUSH2 0x68E1 JUMP JUMPDEST SWAP1 MSTORE SWAP1 JUMP JUMPDEST DUP3 DUP1 SLOAD PUSH2 0x5759 SWAP1 PUSH2 0x687B JUMP JUMPDEST SWAP1 PUSH1 0x0 MSTORE PUSH1 0x20 PUSH1 0x0 KECCAK256 SWAP1 PUSH1 0x1F ADD PUSH1 0x20 SWAP1 DIV DUP2 ADD SWAP3 DUP3 PUSH2 0x577B JUMPI PUSH1 0x0 DUP6 SSTORE PUSH2 0x57C1 JUMP JUMPDEST DUP3 PUSH1 0x1F LT PUSH2 0x5794 JUMPI DUP1 MLOAD PUSH1 0xFF NOT AND DUP4 DUP1 ADD OR DUP6 SSTORE PUSH2 0x57C1 JUMP JUMPDEST DUP3 DUP1 ADD PUSH1 0x1 ADD DUP6 SSTORE DUP3 ISZERO PUSH2 0x57C1 JUMPI SWAP2 DUP3 ADD JUMPDEST DUP3 DUP2 GT ISZERO PUSH2 0x57C1 JUMPI DUP3 MLOAD DUP3 SSTORE SWAP2 PUSH1 0x20 ADD SWAP2 SWAP1 PUSH1 0x1 ADD SWAP1 PUSH2 0x57A6 JUMP JUMPDEST POP PUSH2 0x57CD SWAP3 SWAP2 POP PUSH2 0x580B JUMP JUMPDEST POP SWAP1 JUMP JUMPDEST DUP3 DUP1 SLOAD DUP3 DUP3 SSTORE SWAP1 PUSH1 0x0 MSTORE PUSH1 0x20 PUSH1 0x0 KECCAK256 SWAP1 DUP2 ADD SWAP3 DUP3 ISZERO PUSH2 0x57C1 JUMPI SWAP2 PUSH1 0x20 MUL DUP3 ADD DUP3 DUP2 GT ISZERO PUSH2 0x57C1 JUMPI DUP3 MLOAD DUP3 SSTORE SWAP2 PUSH1 0x20 ADD SWAP2 SWAP1 PUSH1 0x1 ADD SWAP1 PUSH2 0x57A6 JUMP JUMPDEST JUMPDEST DUP1 DUP3 GT ISZERO PUSH2 0x57CD JUMPI PUSH1 0x0 DUP2 SSTORE PUSH1 0x1 ADD PUSH2 0x580C JUMP JUMPDEST DUP1 CALLDATALOAD PUSH1 0x1 PUSH1 0x1 PUSH1 0xA0 SHL SUB DUP2 AND DUP2 EQ PUSH2 0x41A9 JUMPI PUSH1 0x0 DUP1 REVERT JUMPDEST PUSH1 0x0 DUP3 PUSH1 0x1F DUP4 ADD SLT PUSH2 0x5848 JUMPI PUSH1 0x0 DUP1 REVERT JUMPDEST PUSH1 0x20 PUSH2 0x585C PUSH2 0x5857 DUP5 CALLDATALOAD PUSH2 0x67E7 JUMP JUMPDEST PUSH2 0x67B6 JUMP JUMPDEST DUP1 DUP5 CALLDATALOAD DUP3 MSTORE DUP3 DUP3 ADD SWAP2 POP DUP3 DUP6 ADD DUP7 DUP5 DUP8 CALLDATALOAD PUSH1 0x5 SHL DUP9 ADD ADD GT ISZERO PUSH2 0x587E JUMPI PUSH1 0x0 DUP1 REVERT JUMPDEST PUSH1 0x0 JUMPDEST DUP7 CALLDATALOAD DUP2 LT ISZERO PUSH2 0x59CE JUMPI PUSH8 0xFFFFFFFFFFFFFFFF DUP1 DUP4 CALLDATALOAD GT ISZERO PUSH2 0x58A1 JUMPI PUSH1 0x0 DUP1 REVERT JUMPDEST DUP3 CALLDATALOAD DUP9 ADD PUSH1 0x1F NOT PUSH1 0xA0 DUP2 DUP4 DUP14 SUB ADD SLT ISZERO PUSH2 0x58BA JUMPI PUSH1 0x0 DUP1 REVERT JUMPDEST PUSH2 0x58C2 PUSH2 0x6746 JUMP JUMPDEST DUP9 DUP4 ADD CALLDATALOAD DUP5 DUP2 GT ISZERO PUSH2 0x58D3 JUMPI PUSH1 0x0 DUP1 REVERT JUMPDEST DUP4 ADD PUSH1 0xE0 DUP2 DUP15 SUB DUP5 ADD SLT ISZERO PUSH2 0x58E7 JUMPI PUSH1 0x0 DUP1 REVERT JUMPDEST PUSH2 0x58EF PUSH2 0x676F JUMP JUMPDEST SWAP3 POP DUP10 DUP2 ADD CALLDATALOAD DUP6 DUP2 GT ISZERO PUSH2 0x5902 JUMPI PUSH1 0x0 DUP1 REVERT JUMPDEST PUSH2 0x5910 DUP15 DUP13 DUP4 DUP6 ADD ADD PUSH2 0x5A66 JUMP JUMPDEST DUP5 MSTORE POP PUSH1 0x40 DUP2 ADD CALLDATALOAD DUP11 DUP5 ADD MSTORE PUSH1 0x60 DUP2 ADD CALLDATALOAD PUSH1 0x40 DUP5 ADD MSTORE PUSH1 0x80 DUP2 ADD CALLDATALOAD PUSH1 0x60 DUP5 ADD MSTORE PUSH1 0xA0 DUP2 ADD CALLDATALOAD PUSH1 0x80 DUP5 ADD MSTORE PUSH1 0xC0 DUP2 ADD CALLDATALOAD PUSH1 0xA0 DUP5 ADD MSTORE PUSH1 0xE0 DUP2 ADD CALLDATALOAD DUP6 DUP2 GT ISZERO PUSH2 0x5956 JUMPI PUSH1 0x0 DUP1 REVERT JUMPDEST PUSH2 0x5964 DUP15 DUP13 DUP4 DUP6 ADD ADD PUSH2 0x5A66 JUMP JUMPDEST PUSH1 0xC0 DUP6 ADD MSTORE POP POP SWAP1 DUP2 MSTORE PUSH1 0x40 DUP3 ADD CALLDATALOAD DUP9 DUP3 ADD MSTORE PUSH1 0x60 DUP3 ADD CALLDATALOAD SWAP1 DUP4 DUP3 GT ISZERO PUSH2 0x598A JUMPI PUSH1 0x0 DUP1 REVERT JUMPDEST PUSH2 0x5998 DUP13 DUP11 DUP5 DUP7 ADD ADD PUSH2 0x5A66 JUMP JUMPDEST PUSH1 0x40 DUP3 ADD MSTORE PUSH2 0x59A9 PUSH1 0x80 DUP5 ADD PUSH2 0x5A57 JUMP JUMPDEST PUSH1 0x60 DUP3 ADD MSTORE PUSH1 0xA0 SWAP3 SWAP1 SWAP3 ADD CALLDATALOAD PUSH1 0x80 DUP4 ADD MSTORE POP DUP6 MSTORE POP SWAP3 DUP5 ADD SWAP3 SWAP1 DUP5 ADD SWAP1 PUSH1 0x1 ADD PUSH2 0x5881 JUMP JUMPDEST POP SWAP1 SWAP7 SWAP6 POP POP POP POP POP POP JUMP JUMPDEST PUSH1 0x0 DUP3 PUSH1 0x1F DUP4 ADD SLT PUSH2 0x59EB JUMPI PUSH1 0x0 DUP1 REVERT JUMPDEST DUP2 CALLDATALOAD PUSH1 0x20 PUSH2 0x59FB PUSH2 0x5857 DUP4 PUSH2 0x67E7 JUMP JUMPDEST DUP1 DUP4 DUP3 MSTORE DUP3 DUP3 ADD SWAP2 POP DUP3 DUP7 ADD DUP8 DUP5 DUP7 PUSH1 0x5 SHL DUP10 ADD ADD GT ISZERO PUSH2 0x5A1B JUMPI PUSH1 0x0 DUP1 REVERT JUMPDEST PUSH1 0x0 JUMPDEST DUP6 DUP2 LT ISZERO PUSH2 0x5A3A JUMPI DUP2 CALLDATALOAD DUP5 MSTORE SWAP3 DUP5 ADD SWAP3 SWAP1 DUP5 ADD SWAP1 PUSH1 0x1 ADD PUSH2 0x5A1E JUMP JUMPDEST POP SWAP1 SWAP8 SWAP7 POP POP POP POP POP POP POP JUMP JUMPDEST DUP1 CALLDATALOAD DUP1 ISZERO ISZERO DUP2 EQ PUSH2 0x41A9 JUMPI PUSH1 0x0 DUP1 REVERT JUMPDEST DUP1 CALLDATALOAD PUSH1 0xC DUP2 LT PUSH2 0x41A9 JUMPI PUSH1 0x0 DUP1 REVERT JUMPDEST PUSH1 0x0 DUP3 PUSH1 0x1F DUP4 ADD SLT PUSH2 0x5A77 JUMPI PUSH1 0x0 DUP1 REVERT JUMPDEST DUP2 CALLDATALOAD PUSH8 0xFFFFFFFFFFFFFFFF DUP2 GT ISZERO PUSH2 0x5A91 JUMPI PUSH2 0x5A91 PUSH2 0x690D JUMP JUMPDEST PUSH2 0x5AA4 PUSH1 0x20 PUSH1 0x1F NOT PUSH1 0x1F DUP5 ADD AND ADD PUSH2 0x67B6 JUMP JUMPDEST DUP2 DUP2 MSTORE DUP5 PUSH1 0x20 DUP4 DUP7 ADD ADD GT ISZERO PUSH2 0x5AB9 JUMPI PUSH1 0x0 DUP1 REVERT JUMPDEST DUP2 PUSH1 0x20 DUP6 ADD PUSH1 0x20 DUP4 ADD CALLDATACOPY PUSH1 0x0 SWAP2 DUP2 ADD PUSH1 0x20 ADD SWAP2 SWAP1 SWAP2 MSTORE SWAP4 SWAP3 POP POP POP JUMP JUMPDEST PUSH1 0x0 PUSH2 0x1A0 DUP3 DUP5 SUB SLT ISZERO PUSH2 0x5AE9 JUMPI PUSH1 0x0 DUP1 REVERT JUMPDEST PUSH2 0x5AF1 PUSH2 0x6792 JUMP JUMPDEST SWAP1 POP DUP2 CALLDATALOAD DUP2 MSTORE PUSH1 0x20 DUP3 ADD CALLDATALOAD PUSH8 0xFFFFFFFFFFFFFFFF DUP1 DUP3 GT ISZERO PUSH2 0x5B12 JUMPI PUSH1 0x0 DUP1 REVERT JUMPDEST PUSH2 0x5B1E DUP6 DUP4 DUP7 ADD PUSH2 0x5A66 JUMP JUMPDEST PUSH1 0x20 DUP5 ADD MSTORE PUSH1 0x40 DUP5 ADD CALLDATALOAD SWAP2 POP DUP1 DUP3 GT ISZERO PUSH2 0x5B37 JUMPI PUSH1 0x0 DUP1 REVERT JUMPDEST PUSH2 0x5B43 DUP6 DUP4 DUP7 ADD PUSH2 0x5A66 JUMP JUMPDEST PUSH1 0x40 DUP5 ADD MSTORE PUSH1 0x60 DUP5 ADD CALLDATALOAD PUSH1 0x60 DUP5 ADD MSTORE PUSH1 0x80 DUP5 ADD CALLDATALOAD PUSH1 0x80 DUP5 ADD MSTORE PUSH1 0xA0 DUP5 ADD CALLDATALOAD PUSH1 0xA0 DUP5 ADD MSTORE PUSH1 0xC0 DUP5 ADD CALLDATALOAD SWAP2 POP DUP1 DUP3 GT ISZERO PUSH2 0x5B7A JUMPI PUSH1 0x0 DUP1 REVERT JUMPDEST PUSH2 0x5B86 DUP6 DUP4 DUP7 ADD PUSH2 0x59DA JUMP JUMPDEST PUSH1 0xC0 DUP5 ADD MSTORE PUSH1 0xE0 DUP5 DUP2 ADD CALLDATALOAD SWAP1 DUP5 ADD MSTORE PUSH2 0x100 DUP1 DUP6 ADD CALLDATALOAD SWAP1 DUP5 ADD MSTORE PUSH2 0x120 SWAP2 POP PUSH2 0x5BB0 DUP3 DUP6 ADD PUSH2 0x5A47 JUMP JUMPDEST DUP3 DUP5 ADD MSTORE PUSH2 0x140 SWAP2 POP PUSH2 0x5BC4 DUP3 DUP6 ADD PUSH2 0x5A47 JUMP JUMPDEST DUP3 DUP5 ADD MSTORE PUSH2 0x160 SWAP2 POP DUP2 DUP5 ADD CALLDATALOAD DUP3 DUP5 ADD MSTORE PUSH2 0x180 SWAP2 POP DUP2 DUP5 ADD CALLDATALOAD DUP2 DUP2 GT ISZERO PUSH2 0x5BEB JUMPI PUSH1 0x0 DUP1 REVERT JUMPDEST PUSH2 0x5BF7 DUP7 DUP3 DUP8 ADD PUSH2 0x5837 JUMP JUMPDEST DUP4 DUP6 ADD MSTORE POP POP POP SWAP3 SWAP2 POP POP JUMP JUMPDEST PUSH1 0x0 PUSH1 0x20 DUP3 DUP5 SUB SLT ISZERO PUSH2 0x5C16 JUMPI PUSH1 0x0 DUP1 REVERT JUMPDEST PUSH2 0x2E00 DUP3 PUSH2 0x5820 JUMP JUMPDEST PUSH1 0x0 PUSH1 0x20 DUP1 DUP4 DUP6 SUB SLT ISZERO PUSH2 0x5C32 JUMPI PUSH1 0x0 DUP1 REVERT JUMPDEST DUP3 MLOAD PUSH8 0xFFFFFFFFFFFFFFFF DUP2 GT ISZERO PUSH2 0x5C49 JUMPI PUSH1 0x0 DUP1 REVERT JUMPDEST DUP4 ADD PUSH1 0x1F DUP2 ADD DUP6 SGT PUSH2 0x5C5A JUMPI PUSH1 0x0 DUP1 REVERT JUMPDEST DUP1 MLOAD PUSH2 0x5C68 PUSH2 0x5857 DUP3 PUSH2 0x67E7 JUMP JUMPDEST DUP1 DUP3 DUP3 MSTORE DUP5 DUP3 ADD SWAP2 POP DUP5 DUP5 ADD DUP9 DUP7 DUP6 PUSH1 0x5 SHL DUP8 ADD ADD GT ISZERO PUSH2 0x5C88 JUMPI PUSH1 0x0 DUP1 REVERT JUMPDEST PUSH1 0x0 SWAP5 POP JUMPDEST DUP4 DUP6 LT ISZERO PUSH2 0x5CAB JUMPI DUP1 MLOAD DUP4 MSTORE PUSH1 0x1 SWAP5 SWAP1 SWAP5 ADD SWAP4 SWAP2 DUP6 ADD SWAP2 DUP6 ADD PUSH2 0x5C8D JUMP JUMPDEST POP SWAP8 SWAP7 POP POP POP POP POP POP POP JUMP JUMPDEST PUSH1 0x0 PUSH1 0x20 DUP3 DUP5 SUB SLT ISZERO PUSH2 0x5CC9 JUMPI PUSH1 0x0 DUP1 REVERT JUMPDEST DUP2 CALLDATALOAD PUSH8 0xFFFFFFFFFFFFFFFF DUP2 GT ISZERO PUSH2 0x5CE0 JUMPI PUSH1 0x0 DUP1 REVERT JUMPDEST PUSH2 0xC8A DUP5 DUP3 DUP6 ADD PUSH2 0x5AD6 JUMP JUMPDEST PUSH1 0x0 PUSH1 0x20 DUP3 DUP5 SUB SLT ISZERO PUSH2 0x5CFE JUMPI PUSH1 0x0 DUP1 REVERT JUMPDEST POP CALLDATALOAD SWAP2 SWAP1 POP JUMP JUMPDEST PUSH1 0x0 PUSH1 0x20 DUP3 DUP5 SUB SLT ISZERO PUSH2 0x5D17 JUMPI PUSH1 0x0 DUP1 REVERT JUMPDEST POP MLOAD SWAP2 SWAP1 POP JUMP JUMPDEST PUSH1 0x0 DUP1 PUSH1 0x40 DUP4 DUP6 SUB SLT ISZERO PUSH2 0x5D31 JUMPI PUSH1 0x0 DUP1 REVERT JUMPDEST DUP3 CALLDATALOAD SWAP2 POP PUSH2 0x5D41 PUSH1 0x20 DUP5 ADD PUSH2 0x5820 JUMP JUMPDEST SWAP1 POP SWAP3 POP SWAP3 SWAP1 POP JUMP JUMPDEST PUSH1 0x0 DUP1 PUSH1 0x0 PUSH1 0x60 DUP5 DUP7 SUB SLT ISZERO PUSH2 0x5D5F JUMPI PUSH1 0x0 DUP1 REVERT JUMPDEST DUP4 CALLDATALOAD SWAP3 POP PUSH2 0x5D6F PUSH1 0x20 DUP6 ADD PUSH2 0x5820 JUMP JUMPDEST SWAP2 POP PUSH2 0x5D7D PUSH1 0x40 DUP6 ADD PUSH2 0x5A47 JUMP JUMPDEST SWAP1 POP SWAP3 POP SWAP3 POP SWAP3 JUMP JUMPDEST PUSH1 0x0 DUP1 PUSH1 0x0 DUP1 PUSH1 0x0 PUSH1 0xA0 DUP7 DUP9 SUB SLT ISZERO PUSH2 0x5D9E JUMPI PUSH1 0x0 DUP1 REVERT JUMPDEST DUP6 CALLDATALOAD SWAP5 POP PUSH2 0x5DAE PUSH1 0x20 DUP8 ADD PUSH2 0x5820 JUMP JUMPDEST SWAP4 POP PUSH1 0x40 DUP7 ADD CALLDATALOAD SWAP3 POP PUSH2 0x5DC3 PUSH1 0x60 DUP8 ADD PUSH2 0x5A47 JUMP JUMPDEST SWAP2 POP PUSH2 0x5DD1 PUSH1 0x80 DUP8 ADD PUSH2 0x5820 JUMP JUMPDEST SWAP1 POP SWAP3 SWAP6 POP SWAP3 SWAP6 SWAP1 SWAP4 POP JUMP JUMPDEST PUSH1 0x0 DUP1 PUSH1 0x0 DUP1 PUSH1 0x0 PUSH1 0xA0 DUP7 DUP9 SUB SLT ISZERO PUSH2 0x5DF5 JUMPI PUSH1 0x0 DUP1 REVERT JUMPDEST DUP6 CALLDATALOAD SWAP5 POP PUSH2 0x5E05 PUSH1 0x20 DUP8 ADD PUSH2 0x5820 JUMP JUMPDEST SWAP4 POP PUSH1 0x40 DUP7 ADD CALLDATALOAD SWAP3 POP PUSH2 0x5E1A PUSH1 0x60 DUP8 ADD PUSH2 0x5A47 JUMP JUMPDEST SWAP2 POP PUSH1 0x80 DUP7 ADD CALLDATALOAD PUSH8 0xFFFFFFFFFFFFFFFF DUP2 GT ISZERO PUSH2 0x5E36 JUMPI PUSH1 0x0 DUP1 REVERT JUMPDEST PUSH2 0x5E42 DUP9 DUP3 DUP10 ADD PUSH2 0x5A66 JUMP JUMPDEST SWAP2 POP POP SWAP3 SWAP6 POP SWAP3 SWAP6 SWAP1 SWAP4 POP JUMP JUMPDEST PUSH1 0x0 DUP1 PUSH1 0x40 DUP4 DUP6 SUB SLT ISZERO PUSH2 0x5E62 JUMPI PUSH1 0x0 DUP1 REVERT JUMPDEST DUP3 CALLDATALOAD SWAP2 POP PUSH1 0x20 DUP4 ADD CALLDATALOAD PUSH8 0xFFFFFFFFFFFFFFFF DUP2 GT ISZERO PUSH2 0x5E80 JUMPI PUSH1 0x0 DUP1 REVERT JUMPDEST PUSH2 0x5E8C DUP6 DUP3 DUP7 ADD PUSH2 0x59DA JUMP JUMPDEST SWAP2 POP POP SWAP3 POP SWAP3 SWAP1 POP JUMP JUMPDEST PUSH1 0x0 DUP1 PUSH1 0x40 DUP4 DUP6 SUB SLT ISZERO PUSH2 0x5EA9 JUMPI PUSH1 0x0 DUP1 REVERT JUMPDEST DUP3 CALLDATALOAD SWAP2 POP PUSH2 0x5D41 PUSH1 0x20 DUP5 ADD PUSH2 0x5A47 JUMP JUMPDEST PUSH1 0x0 DUP1 PUSH1 0x40 DUP4 DUP6 SUB SLT ISZERO PUSH2 0x5ECC JUMPI PUSH1 0x0 DUP1 REVERT JUMPDEST DUP3 CALLDATALOAD SWAP2 POP PUSH1 0x20 DUP4 ADD CALLDATALOAD PUSH8 0xFFFFFFFFFFFFFFFF DUP2 GT ISZERO PUSH2 0x5EEA JUMPI PUSH1 0x0 DUP1 REVERT JUMPDEST PUSH2 0x5E8C DUP6 DUP3 DUP7 ADD PUSH2 0x5AD6 JUMP JUMPDEST PUSH1 0x0 DUP1 PUSH1 0x40 DUP4 DUP6 SUB SLT ISZERO PUSH2 0x5F09 JUMPI PUSH1 0x0 DUP1 REVERT JUMPDEST POP POP DUP1 CALLDATALOAD SWAP3 PUSH1 0x20 SWAP1 SWAP2 ADD CALLDATALOAD SWAP2 POP JUMP JUMPDEST PUSH1 0x0 DUP1 PUSH1 0x0 PUSH1 0x60 DUP5 DUP7 SUB SLT ISZERO PUSH2 0x5F2D JUMPI PUSH1 0x0 DUP1 REVERT JUMPDEST DUP4 CALLDATALOAD SWAP3 POP PUSH1 0x20 DUP5 ADD CALLDATALOAD SWAP2 POP PUSH1 0x40 DUP5 ADD CALLDATALOAD PUSH8 0xFFFFFFFFFFFFFFFF DUP2 GT ISZERO PUSH2 0x5F52 JUMPI PUSH1 0x0 DUP1 REVERT JUMPDEST PUSH2 0x5F5E DUP7 DUP3 DUP8 ADD PUSH2 0x5A66 JUMP JUMPDEST SWAP2 POP POP SWAP3 POP SWAP3 POP SWAP3 JUMP JUMPDEST PUSH1 0x0 DUP2 MLOAD DUP1 DUP5 MSTORE PUSH1 0x20 DUP1 DUP6 ADD SWAP5 POP DUP1 DUP5 ADD PUSH1 0x0 JUMPDEST DUP4 DUP2 LT ISZERO PUSH2 0x5FA1 JUMPI DUP2 MLOAD PUSH1 0x1 PUSH1 0x1 PUSH1 0xA0 SHL SUB AND DUP8 MSTORE SWAP6 DUP3 ADD SWAP6 SWAP1 DUP3 ADD SWAP1 PUSH1 0x1 ADD PUSH2 0x5F7C JUMP JUMPDEST POP SWAP5 SWAP6 SWAP5 POP POP POP POP POP JUMP JUMPDEST PUSH1 0x0 DUP2 MLOAD DUP1 DUP5 MSTORE PUSH1 0x20 DUP1 DUP6 ADD DUP1 DUP2 SWAP7 POP DUP4 PUSH1 0x5 SHL DUP2 ADD SWAP2 POP DUP3 DUP7 ADD PUSH1 0x0 JUMPDEST DUP6 DUP2 LT ISZERO PUSH2 0x5FF4 JUMPI DUP3 DUP5 SUB DUP10 MSTORE PUSH2 0x5FE2 DUP5 DUP4 MLOAD PUSH2 0x61CC JUMP JUMPDEST SWAP9 DUP6 ADD SWAP9 SWAP4 POP SWAP1 DUP5 ADD SWAP1 PUSH1 0x1 ADD PUSH2 0x5FCA JUMP JUMPDEST POP SWAP2 SWAP8 SWAP7 POP POP POP POP POP POP POP JUMP JUMPDEST PUSH1 0x0 DUP2 MLOAD DUP1 DUP5 MSTORE PUSH1 0x20 DUP1 DUP6 ADD DUP1 DUP2 SWAP7 POP DUP4 PUSH1 0x5 SHL DUP2 ADD SWAP2 POP DUP3 DUP7 ADD PUSH1 0x0 JUMPDEST DUP6 DUP2 LT ISZERO PUSH2 0x5FF4 JUMPI DUP3 DUP5 SUB DUP10 MSTORE DUP2 MLOAD PUSH1 0xA0 DUP2 MLOAD DUP2 DUP8 MSTORE DUP1 MLOAD PUSH1 0xE0 DUP1 DUP5 DUP11 ADD MSTORE PUSH2 0x604C PUSH2 0x180 DUP11 ADD DUP4 PUSH2 0x617F JUMP JUMPDEST SWAP2 POP DUP10 DUP4 ADD MLOAD PUSH1 0xC0 DUP2 DUP2 DUP13 ADD MSTORE PUSH1 0x40 SWAP2 POP DUP2 DUP6 ADD MLOAD DUP4 DUP13 ADD MSTORE PUSH1 0x60 SWAP3 POP DUP3 DUP6 ADD MLOAD PUSH2 0x100 DUP13 ADD MSTORE PUSH1 0x80 DUP1 DUP7 ADD MLOAD PUSH2 0x120 DUP14 ADD MSTORE DUP7 DUP7 ADD MLOAD PUSH2 0x140 DUP14 ADD MSTORE DUP2 DUP7 ADD MLOAD SWAP7 POP PUSH32 0xFFFFFFFFFFFFFFFFFFFFFFFFFFFFFFFFFFFFFFFFFFFFFFFFFFFFFFFFFFFFFF60 DUP13 DUP7 SUB ADD PUSH2 0x160 DUP14 ADD MSTORE PUSH2 0x60C4 DUP6 DUP9 PUSH2 0x617F JUMP JUMPDEST SWAP7 POP DUP13 DUP9 ADD MLOAD DUP14 DUP14 ADD MSTORE DUP3 DUP9 ADD MLOAD SWAP6 POP DUP12 DUP8 SUB DUP4 DUP14 ADD MSTORE PUSH2 0x60E5 DUP8 DUP8 PUSH2 0x617F JUMP JUMPDEST SWAP7 POP DUP4 DUP9 ADD MLOAD SWAP6 POP PUSH2 0x60F9 DUP5 DUP14 ADD DUP8 PUSH2 0x614B JUMP JUMPDEST SWAP7 DUP8 ADD MLOAD SWAP11 SWAP1 SWAP7 ADD SWAP10 SWAP1 SWAP10 MSTORE POP POP POP SWAP10 DUP7 ADD SWAP10 SWAP5 POP POP SWAP1 DUP5 ADD SWAP1 PUSH1 0x1 ADD PUSH2 0x601F JUMP JUMPDEST PUSH1 0x0 DUP2 MLOAD DUP1 DUP5 MSTORE PUSH1 0x20 DUP1 DUP6 ADD SWAP5 POP DUP1 DUP5 ADD PUSH1 0x0 JUMPDEST DUP4 DUP2 LT ISZERO PUSH2 0x5FA1 JUMPI DUP2 MLOAD DUP8 MSTORE SWAP6 DUP3 ADD SWAP6 SWAP1 DUP3 ADD SWAP1 PUSH1 0x1 ADD PUSH2 0x612F JUMP JUMPDEST PUSH1 0xC DUP2 LT PUSH2 0x615B JUMPI PUSH2 0x615B PUSH2 0x68E1 JUMP JUMPDEST SWAP1 MSTORE JUMP JUMPDEST PUSH1 0x8 DUP2 LT PUSH2 0x615B JUMPI PUSH2 0x615B PUSH2 0x68E1 JUMP JUMPDEST PUSH1 0x5 DUP2 LT PUSH2 0x615B JUMPI PUSH2 0x615B PUSH2 0x68E1 JUMP JUMPDEST PUSH1 0x0 DUP2 MLOAD DUP1 DUP5 MSTORE PUSH1 0x0 JUMPDEST DUP2 DUP2 LT ISZERO PUSH2 0x61A5 JUMPI PUSH1 0x20 DUP2 DUP6 ADD DUP2 ADD MLOAD DUP7 DUP4 ADD DUP3 ADD MSTORE ADD PUSH2 0x6189 JUMP JUMPDEST DUP2 DUP2 GT ISZERO PUSH2 0x61B7 JUMPI PUSH1 0x0 PUSH1 0x20 DUP4 DUP8 ADD ADD MSTORE JUMPDEST POP PUSH1 0x1F ADD PUSH1 0x1F NOT AND SWAP3 SWAP1 SWAP3 ADD PUSH1 0x20 ADD SWAP3 SWAP2 POP POP JUMP JUMPDEST PUSH1 0x1 PUSH1 0x1 PUSH1 0xA0 SHL SUB DUP2 MLOAD AND DUP3 MSTORE PUSH1 0x0 PUSH1 0x20 DUP1 DUP4 ADD MLOAD PUSH1 0x60 DUP3 DUP7 ADD MSTORE PUSH2 0x61F4 PUSH1 0x60 DUP7 ADD DUP3 PUSH2 0x611B JUMP JUMPDEST SWAP1 POP PUSH1 0x40 DUP1 DUP6 ADD MLOAD DUP7 DUP4 SUB DUP3 DUP9 ADD MSTORE DUP3 DUP2 MLOAD DUP1 DUP6 MSTORE DUP6 DUP6 ADD SWAP2 POP DUP6 DUP2 PUSH1 0x5 SHL DUP7 ADD ADD DUP7 DUP5 ADD SWAP4 POP PUSH1 0x0 JUMPDEST DUP3 DUP2 LT ISZERO PUSH2 0x6264 JUMPI PUSH1 0x1F NOT DUP8 DUP4 SUB ADD DUP5 MSTORE DUP5 MLOAD PUSH2 0x623C DUP4 DUP3 MLOAD PUSH2 0x616F JUMP JUMPDEST DUP9 ADD MLOAD DUP3 DUP10 ADD DUP8 SWAP1 MSTORE PUSH2 0x6251 DUP4 DUP9 ADD DUP3 PUSH2 0x617F JUMP JUMPDEST SWAP6 DUP10 ADD SWAP6 SWAP5 DUP10 ADD SWAP5 SWAP3 POP POP PUSH1 0x1 ADD PUSH2 0x621E JUMP JUMPDEST POP SWAP10 SWAP9 POP POP POP POP POP POP POP POP POP JUMP JUMPDEST PUSH1 0x1 PUSH1 0x1 PUSH1 0xA0 SHL SUB DUP5 AND DUP2 MSTORE DUP3 PUSH1 0x20 DUP3 ADD MSTORE PUSH1 0x60 PUSH1 0x40 DUP3 ADD MSTORE DUP2 MLOAD PUSH1 0x60 DUP3 ADD MSTORE PUSH1 0x0 PUSH1 0x20 DUP4 ADD MLOAD PUSH2 0x1A0 DUP1 PUSH1 0x80 DUP6 ADD MSTORE PUSH2 0x62B0 PUSH2 0x200 DUP6 ADD DUP4 PUSH2 0x617F JUMP JUMPDEST SWAP2 POP PUSH1 0x40 DUP6 ADD MLOAD PUSH32 0xFFFFFFFFFFFFFFFFFFFFFFFFFFFFFFFFFFFFFFFFFFFFFFFFFFFFFFFFFFFFFFA0 DUP1 DUP7 DUP6 SUB ADD PUSH1 0xA0 DUP8 ADD MSTORE PUSH2 0x62EC DUP5 DUP4 PUSH2 0x617F JUMP JUMPDEST SWAP4 POP PUSH1 0x60 DUP8 ADD MLOAD PUSH1 0xC0 DUP8 ADD MSTORE PUSH1 0x80 DUP8 ADD MLOAD PUSH1 0xE0 DUP8 ADD MSTORE PUSH1 0xA0 DUP8 ADD MLOAD SWAP2 POP PUSH2 0x100 DUP3 DUP2 DUP9 ADD MSTORE PUSH1 0xC0 DUP9 ADD MLOAD SWAP3 POP PUSH2 0x120 DUP3 DUP9 DUP8 SUB ADD DUP2 DUP10 ADD MSTORE PUSH2 0x632E DUP7 DUP6 PUSH2 0x611B JUMP JUMPDEST PUSH1 0xE0 DUP11 ADD MLOAD PUSH2 0x140 DUP11 DUP2 ADD SWAP2 SWAP1 SWAP2 MSTORE SWAP3 DUP11 ADD MLOAD PUSH2 0x160 DUP1 DUP12 ADD SWAP2 SWAP1 SWAP2 MSTORE SWAP2 DUP11 ADD MLOAD SWAP1 SWAP7 POP SWAP4 POP SWAP1 PUSH2 0x180 SWAP1 PUSH2 0x6366 DUP3 DUP11 ADD DUP7 ISZERO ISZERO SWAP1 MSTORE JUMP JUMPDEST DUP10 ADD MLOAD ISZERO ISZERO SWAP5 DUP9 ADD SWAP5 SWAP1 SWAP5 MSTORE DUP8 ADD MLOAD PUSH2 0x1C0 DUP8 ADD MSTORE SWAP2 DUP7 ADD MLOAD DUP6 DUP5 SUB SWAP1 SWAP3 ADD PUSH2 0x1E0 DUP7 ADD MSTORE POP PUSH2 0x6396 DUP3 DUP3 PUSH2 0x6001 JUMP JUMPDEST SWAP8 SWAP7 POP POP POP POP POP POP POP JUMP JUMPDEST PUSH1 0x20 DUP2 MSTORE PUSH1 0x0 PUSH2 0x2E00 PUSH1 0x20 DUP4 ADD DUP5 PUSH2 0x5F68 JUMP JUMPDEST PUSH1 0x20 DUP2 MSTORE PUSH1 0x0 PUSH2 0x2E00 PUSH1 0x20 DUP4 ADD DUP5 PUSH2 0x6001 JUMP JUMPDEST PUSH1 0x40 DUP2 MSTORE PUSH1 0x0 PUSH2 0x63DA PUSH1 0x40 DUP4 ADD DUP6 PUSH2 0x611B JUMP JUMPDEST SWAP1 POP DUP3 PUSH1 0x20 DUP4 ADD MSTORE SWAP4 SWAP3 POP POP POP JUMP JUMPDEST PUSH1 0x20 DUP2 ADD PUSH2 0xB1F DUP3 DUP5 PUSH2 0x614B JUMP JUMPDEST PUSH1 0x20 DUP2 ADD PUSH2 0xB1F DUP3 DUP5 PUSH2 0x615F JUMP JUMPDEST PUSH1 0x40 DUP1 DUP3 MSTORE PUSH1 0x10 SWAP1 DUP3 ADD MSTORE PUSH32 0x4572726F722066696C6520737461746500000000000000000000000000000000 PUSH1 0x60 DUP3 ADD MSTORE PUSH1 0x80 DUP2 ADD PUSH2 0xB1F PUSH1 0x20 DUP4 ADD DUP5 PUSH2 0x614B JUMP JUMPDEST PUSH1 0x20 DUP2 MSTORE PUSH2 0x6461 PUSH1 0x20 DUP3 ADD DUP4 MLOAD PUSH1 0x1 PUSH1 0x1 PUSH1 0xA0 SHL SUB AND SWAP1 MSTORE JUMP JUMPDEST PUSH1 0x20 DUP3 ADD MLOAD PUSH1 0x40 DUP3 ADD MSTORE PUSH1 0x0 PUSH1 0x40 DUP4 ADD MLOAD PUSH2 0x320 DUP1 PUSH1 0x60 DUP6 ADD MSTORE PUSH2 0x6489 PUSH2 0x340 DUP6 ADD DUP4 PUSH2 0x617F JUMP JUMPDEST SWAP2 POP PUSH1 0x60 DUP6 ADD MLOAD PUSH1 0x1F NOT DUP1 DUP7 DUP6 SUB ADD PUSH1 0x80 DUP8 ADD MSTORE PUSH2 0x64A7 DUP5 DUP4 PUSH2 0x617F JUMP JUMPDEST SWAP4 POP PUSH1 0x80 DUP8 ADD MLOAD PUSH1 0xA0 DUP8 ADD MSTORE PUSH1 0xA0 DUP8 ADD MLOAD PUSH1 0xC0 DUP8 ADD MSTORE PUSH1 0xC0 DUP8 ADD MLOAD PUSH1 0xE0 DUP8 ADD MSTORE PUSH1 0xE0 DUP8 ADD MLOAD SWAP2 POP PUSH2 0x100 DUP2 DUP8 DUP7 SUB ADD DUP2 DUP9 ADD MSTORE PUSH2 0x64E4 DUP6 DUP5 PUSH2 0x611B JUMP JUMPDEST SWAP1 DUP9 ADD MLOAD PUSH2 0x120 DUP9 DUP2 ADD SWAP2 SWAP1 SWAP2 MSTORE DUP9 ADD MLOAD PUSH2 0x140 DUP1 DUP10 ADD SWAP2 SWAP1 SWAP2 MSTORE DUP9 ADD MLOAD SWAP1 SWAP5 POP SWAP2 POP PUSH2 0x160 PUSH2 0x6517 DUP2 DUP9 ADD DUP5 ISZERO ISZERO SWAP1 MSTORE JUMP JUMPDEST DUP8 ADD MLOAD SWAP2 POP PUSH2 0x180 PUSH2 0x652C DUP8 DUP3 ADD DUP5 ISZERO ISZERO SWAP1 MSTORE JUMP JUMPDEST DUP1 DUP9 ADD MLOAD SWAP3 POP POP PUSH2 0x1A0 DUP3 DUP2 DUP9 ADD MSTORE DUP1 DUP9 ADD MLOAD SWAP3 POP POP PUSH2 0x1C0 DUP2 DUP8 DUP7 SUB ADD DUP2 DUP9 ADD MSTORE PUSH2 0x6558 DUP6 DUP5 PUSH2 0x6001 JUMP JUMPDEST SWAP5 POP DUP1 DUP9 ADD MLOAD SWAP3 POP POP PUSH2 0x1E0 DUP2 DUP8 DUP7 SUB ADD DUP2 DUP9 ADD MSTORE PUSH2 0x6577 DUP6 DUP5 PUSH2 0x5F68 JUMP JUMPDEST SWAP5 POP DUP1 DUP9 ADD MLOAD SWAP3 POP POP PUSH2 0x200 DUP2 DUP8 DUP7 SUB ADD DUP2 DUP9 ADD MSTORE PUSH2 0x6596 DUP6 DUP5 PUSH2 0x5F68 JUMP JUMPDEST SWAP5 POP DUP1 DUP9 ADD MLOAD SWAP3 POP POP PUSH2 0x220 DUP2 DUP8 DUP7 SUB ADD DUP2 DUP9 ADD MSTORE PUSH2 0x65B5 DUP6 DUP5 PUSH2 0x5FAC JUMP JUMPDEST SWAP5 POP DUP1 DUP9 ADD MLOAD SWAP3 POP POP PUSH2 0x240 DUP2 DUP8 DUP7 SUB ADD DUP2 DUP9 ADD MSTORE PUSH2 0x65D4 DUP6 DUP5 PUSH2 0x5FAC JUMP JUMPDEST SWAP1 DUP9 ADD MLOAD PUSH2 0x260 DUP9 DUP2 ADD SWAP2 SWAP1 SWAP2 MSTORE DUP9 ADD MLOAD PUSH2 0x280 DUP1 DUP10 ADD SWAP2 SWAP1 SWAP2 MSTORE DUP9 ADD MLOAD PUSH2 0x2A0 DUP1 DUP10 ADD SWAP2 SWAP1 SWAP2 MSTORE DUP9 ADD MLOAD PUSH2 0x2C0 DUP1 DUP10 ADD SWAP2 SWAP1 SWAP2 MSTORE DUP9 ADD MLOAD SWAP1 SWAP5 POP SWAP2 POP PUSH2 0x2E0 SWAP1 POP PUSH2 0x6623 DUP2 DUP8 ADD DUP4 ISZERO ISZERO SWAP1 MSTORE JUMP JUMPDEST DUP7 ADD MLOAD SWAP1 POP PUSH2 0x300 PUSH2 0x6638 DUP7 DUP3 ADD DUP4 ISZERO ISZERO SWAP1 MSTORE JUMP JUMPDEST DUP7 ADD MLOAD SWAP1 POP PUSH2 0x6649 DUP6 DUP4 ADD DUP3 PUSH2 0x615F JUMP JUMPDEST POP SWAP1 SWAP5 SWAP4 POP POP POP POP JUMP JUMPDEST PUSH1 0x20 DUP2 MSTORE PUSH1 0x0 PUSH2 0x2E00 PUSH1 0x20 DUP4 ADD DUP5 PUSH2 0x61CC JUMP JUMPDEST DUP7 DUP2 MSTORE PUSH1 0x1 PUSH1 0x1 PUSH1 0xA0 SHL SUB DUP7 DUP2 AND PUSH1 0x20 DUP4 ADD MSTORE PUSH1 0x40 DUP3 ADD DUP7 SWAP1 MSTORE PUSH1 0xC0 DUP3 ADD SWAP1 PUSH2 0x6692 PUSH1 0x60 DUP5 ADD DUP8 PUSH2 0x616F JUMP JUMPDEST DUP5 ISZERO ISZERO PUSH1 0x80 DUP5 ADD MSTORE DUP1 DUP5 AND PUSH1 0xA0 DUP5 ADD MSTORE POP SWAP8 SWAP7 POP POP POP POP POP POP POP JUMP JUMPDEST DUP5 DUP2 MSTORE PUSH1 0x80 PUSH1 0x20 DUP3 ADD MSTORE PUSH1 0x0 PUSH2 0x66C7 PUSH1 0x80 DUP4 ADD DUP7 PUSH2 0x611B JUMP JUMPDEST PUSH1 0x1 PUSH1 0x1 PUSH1 0xA0 SHL SUB SWAP5 SWAP1 SWAP5 AND PUSH1 0x40 DUP4 ADD MSTORE POP SWAP1 ISZERO ISZERO PUSH1 0x60 SWAP1 SWAP2 ADD MSTORE SWAP3 SWAP2 POP POP JUMP JUMPDEST DUP4 DUP2 MSTORE PUSH1 0x60 DUP2 ADD PUSH2 0x66FC PUSH1 0x20 DUP4 ADD DUP6 PUSH2 0x615F JUMP JUMPDEST PUSH1 0x1 PUSH1 0x1 PUSH1 0xA0 SHL SUB DUP4 AND PUSH1 0x40 DUP4 ADD MSTORE SWAP5 SWAP4 POP POP POP POP JUMP JUMPDEST DUP5 DUP2 MSTORE PUSH1 0x20 DUP2 ADD DUP5 SWAP1 MSTORE PUSH1 0x80 DUP2 ADD PUSH2 0x672E PUSH1 0x40 DUP4 ADD DUP6 PUSH2 0x614B JUMP JUMPDEST PUSH1 0x1 PUSH1 0x1 PUSH1 0xA0 SHL SUB DUP4 AND PUSH1 0x60 DUP4 ADD MSTORE SWAP6 SWAP5 POP POP POP POP POP JUMP JUMPDEST PUSH1 0x40 MLOAD PUSH1 0xA0 DUP2 ADD PUSH8 0xFFFFFFFFFFFFFFFF DUP2 GT DUP3 DUP3 LT OR ISZERO PUSH2 0x6769 JUMPI PUSH2 0x6769 PUSH2 0x690D JUMP JUMPDEST PUSH1 0x40 MSTORE SWAP1 JUMP JUMPDEST PUSH1 0x40 MLOAD PUSH1 0xE0 DUP2 ADD PUSH8 0xFFFFFFFFFFFFFFFF DUP2 GT DUP3 DUP3 LT OR ISZERO PUSH2 0x6769 JUMPI PUSH2 0x6769 PUSH2 0x690D JUMP JUMPDEST PUSH1 0x40 MLOAD PUSH2 0x1A0 DUP2 ADD PUSH8 0xFFFFFFFFFFFFFFFF DUP2 GT DUP3 DUP3 LT OR ISZERO PUSH2 0x6769 JUMPI PUSH2 0x6769 PUSH2 0x690D JUMP JUMPDEST PUSH1 0x40 MLOAD PUSH1 0x1F DUP3 ADD PUSH1 0x1F NOT AND DUP2 ADD PUSH8 0xFFFFFFFFFFFFFFFF DUP2 GT DUP3 DUP3 LT OR ISZERO PUSH2 0x67DF JUMPI PUSH2 0x67DF PUSH2 0x690D JUMP JUMPDEST PUSH1 0x40 MSTORE SWAP2 SWAP1 POP JUMP JUMPDEST PUSH1 0x0 PUSH8 0xFFFFFFFFFFFFFFFF DUP3 GT ISZERO PUSH2 0x6801 JUMPI PUSH2 0x6801 PUSH2 0x690D JUMP JUMPDEST POP PUSH1 0x5 SHL PUSH1 0x20 ADD SWAP1 JUMP JUMPDEST PUSH1 0x0 DUP3 NOT DUP3 GT ISZERO PUSH2 0x681E JUMPI PUSH2 0x681E PUSH2 0x68CB JUMP JUMPDEST POP ADD SWAP1 JUMP JUMPDEST PUSH1 0x0 DUP3 PUSH2 0x6840 JUMPI PUSH4 0x4E487B71 PUSH1 0xE0 SHL PUSH1 0x0 MSTORE PUSH1 0x12 PUSH1 0x4 MSTORE PUSH1 0x24 PUSH1 0x0 REVERT JUMPDEST POP DIV SWAP1 JUMP JUMPDEST PUSH1 0x0 DUP2 PUSH1 0x0 NOT DIV DUP4 GT DUP3 ISZERO ISZERO AND ISZERO PUSH2 0x685F JUMPI PUSH2 0x685F PUSH2 0x68CB JUMP JUMPDEST POP MUL SWAP1 JUMP JUMPDEST PUSH1 0x0 DUP3 DUP3 LT ISZERO PUSH2 0x6876 JUMPI PUSH2 0x6876 PUSH2 0x68CB JUMP JUMPDEST POP SUB SWAP1 JUMP JUMPDEST PUSH1 0x1 DUP2 DUP2 SHR SWAP1 DUP3 AND DUP1 PUSH2 0x688F JUMPI PUSH1 0x7F DUP3 AND SWAP2 POP JUMPDEST PUSH1 0x20 DUP3 LT DUP2 EQ ISZERO PUSH2 0x23C8 JUMPI PUSH4 0x4E487B71 PUSH1 0xE0 SHL PUSH1 0x0 MSTORE PUSH1 0x22 PUSH1 0x4 MSTORE PUSH1 0x24 PUSH1 0x0 REVERT JUMPDEST PUSH1 0x0 PUSH1 0x0 NOT DUP3 EQ ISZERO PUSH2 0x68C4 JUMPI PUSH2 0x68C4 PUSH2 0x68CB JUMP JUMPDEST POP PUSH1 0x1 ADD SWAP1 JUMP JUMPDEST PUSH4 0x4E487B71 PUSH1 0xE0 SHL PUSH1 0x0 MSTORE PUSH1 0x11 PUSH1 0x4 MSTORE PUSH1 0x24 PUSH1 0x0 REVERT JUMPDEST PUSH4 0x4E487B71 PUSH1 0xE0 SHL PUSH1 0x0 MSTORE PUSH1 0x21 PUSH1 0x4 MSTORE PUSH1 0x24 PUSH1 0x0 REVERT JUMPDEST PUSH4 0x4E487B71 PUSH1 0xE0 SHL PUSH1 0x0 MSTORE PUSH1 0x32 PUSH1 0x4 MSTORE PUSH1 0x24 PUSH1 0x0 REVERT JUMPDEST PUSH4 0x4E487B71 PUSH1 0xE0 SHL PUSH1 0x0 MSTORE PUSH1 0x41 PUSH1 0x4 MSTORE PUSH1 0x24 PUSH1 0x0 REVERT INVALID LOG2 PUSH5 0x6970667358 0x22 SLT KECCAK256 SELFDESTRUCT 0xE0 0xBB 0xC4 PUSH7 0xD9DDF35C799ACC 0x24 COINBASE DUP6 DUP3 0xF8 0x2D GASPRICE 0xBA PUSH8 0xF8AA944045E0D90 SAR PUSH6 0x5A64736F6C63 NUMBER STOP ADDMOD SMOD STOP CALLER "
		},
		"gasEstimates": {
			"creation": {
				"codeDepositCost": "5393800",
				"executionCost": "infinite",
				"totalCost": "infinite"
			},
			"external": {
				"": "187",
				"_isHasNftPass(address)": "infinite",
				"acceptForTranslator(uint256,uint256[])": "infinite",
				"acceptForVerifer(uint256,uint256[])": "infinite",
				"closeFileState(uint256,uint256)": "28953",
				"closeTask(uint256)": "26354",
				"endTransAccept(uint256)": "infinite",
				"endTransVf(uint256)": "infinite",
				"getAcceptTransNumber(uint256,address)": "2741",
				"getAcceptVfNumber(uint256,address)": "2704",
				"getBalanceOfContract()": "296",
				"getBuyer(uint256)": "2545",
				"getCount()": "2370",
				"getFileState(uint256,uint256)": "4852",
				"getPay(address)": "2615",
				"getTaskBounty(uint256)": "2523",
				"getTaskBounty(uint256,uint256)": "4748",
				"getTaskInfo(uint256)": "infinite",
				"getTaskState(uint256)": "2652",
				"getTaskStateTrans(uint256)": "2524",
				"getTaskStateVf(uint256)": "2536",
				"getTasks(uint256)": "infinite",
				"getTransNumber(uint256)": "2500",
				"getTransTaskInfo(uint256,address)": "infinite",
				"getTranslatorsList(uint256)": "infinite",
				"getVfList(uint256)": "infinite",
				"getVfNumber(uint256)": "2499",
				"getVfTaskInfo(uint256,address)": "infinite",
				"isCustomizeState(uint256)": "2556",
				"isFull(uint256,bool)": "4813",
				"newAmphiAddess(address)": "26815",
				"overTimeTasker(uint256,address,bool)": "infinite",
				"overTimeTrans(uint256,address)": "infinite",
				"overTimeVf(uint256,address)": "infinite",
				"owner()": "2443",
				"payFine(address)": "infinite",
				"postTask((uint256,string,string,uint256,uint256,uint256,uint256[],uint256,uint256,bool,bool,uint256,((string,uint256,uint256,uint256,uint256,uint256,string),uint256,string,uint8,uint256)[]))": "infinite",
				"receiveTask(uint256,address,uint256,bool,address)": "infinite",
				"renounceOwnership()": "infinite",
				"sumbitTaskTrans(uint256,uint256,string)": "infinite",
				"transderToContract()": "infinite",
				"transferOwnership(address)": "28432",
				"updateTask(uint256,(uint256,string,string,uint256,uint256,uint256,uint256[],uint256,uint256,bool,bool,uint256,((string,uint256,uint256,uint256,uint256,uint256,string),uint256,string,uint8,uint256)[]))": "infinite",
				"validate(uint256,address,uint256,bool,string)": "infinite",
				"withdraw(uint256)": "infinite",
				"withdrawAll()": "infinite"
			},
			"internal": {
				"_endTransAccept(uint256)": "infinite",
				"_endTransVf(uint256)": "infinite",
				"_overTimeTrans(uint256,address)": "infinite",
				"_overTimeVf(uint256,address)": "infinite",
				"_postTask(struct LibProject.ProParm memory)": "infinite",
				"_receiveTask(uint256,address,uint256,bool)": "infinite",
				"_sumbitTaskTrans(uint256,uint256,string memory)": "infinite",
				"_updateTask(uint256,struct LibProject.ProParm memory)": "infinite",
				"_validate(uint256,address,uint256,bool,string memory)": "infinite"
			}
		},
		"methodIdentifiers": {
			"_isHasNftPass(address)": "b4e068f2",
			"acceptForTranslator(uint256,uint256[])": "fa4c6473",
			"acceptForVerifer(uint256,uint256[])": "3bd14e13",
			"closeFileState(uint256,uint256)": "97601efb",
			"closeTask(uint256)": "1201dfc6",
			"endTransAccept(uint256)": "8adc74a5",
			"endTransVf(uint256)": "a55af701",
			"getAcceptTransNumber(uint256,address)": "193620e7",
			"getAcceptVfNumber(uint256,address)": "790485f9",
			"getBalanceOfContract()": "22968885",
			"getBuyer(uint256)": "5bf608b8",
			"getCount()": "a87d942c",
			"getFileState(uint256,uint256)": "ad607c72",
			"getPay(address)": "d3d7bc3b",
			"getTaskBounty(uint256)": "6e973982",
			"getTaskBounty(uint256,uint256)": "64a1ed07",
			"getTaskInfo(uint256)": "d1a1b999",
			"getTaskState(uint256)": "ffcce776",
			"getTaskStateTrans(uint256)": "9722f099",
			"getTaskStateVf(uint256)": "546677aa",
			"getTasks(uint256)": "cf8f4be2",
			"getTransNumber(uint256)": "d2fed69c",
			"getTransTaskInfo(uint256,address)": "5fed5eb2",
			"getTranslatorsList(uint256)": "983a12a8",
			"getVfList(uint256)": "b647eec3",
			"getVfNumber(uint256)": "f8626ebb",
			"getVfTaskInfo(uint256,address)": "7c35beb7",
			"isCustomizeState(uint256)": "7c34eb85",
			"isFull(uint256,bool)": "8a9a9ff3",
			"newAmphiAddess(address)": "0ca23438",
			"overTimeTasker(uint256,address,bool)": "8b3f3a6f",
			"overTimeTrans(uint256,address)": "5b0ef140",
			"overTimeVf(uint256,address)": "36d61ae0",
			"owner()": "8da5cb5b",
			"payFine(address)": "3edfa229",
			"postTask((uint256,string,string,uint256,uint256,uint256,uint256[],uint256,uint256,bool,bool,uint256,((string,uint256,uint256,uint256,uint256,uint256,string),uint256,string,uint8,uint256)[]))": "ac35cd61",
			"receiveTask(uint256,address,uint256,bool,address)": "627a62f3",
			"renounceOwnership()": "715018a6",
			"sumbitTaskTrans(uint256,uint256,string)": "bb0c38c0",
			"transderToContract()": "460968dd",
			"transferOwnership(address)": "f2fde38b",
			"updateTask(uint256,(uint256,string,string,uint256,uint256,uint256,uint256[],uint256,uint256,bool,bool,uint256,((string,uint256,uint256,uint256,uint256,uint256,string),uint256,string,uint8,uint256)[]))": "09a02f58",
			"validate(uint256,address,uint256,bool,string)": "243634bf",
			"withdraw(uint256)": "2e1a7d4d",
			"withdrawAll()": "853828b6"
		}
	},
	"abi": [
		{
			"inputs": [
				{
					"internalType": "address",
					"name": "_address",
					"type": "address"
				}
			],
			"stateMutability": "nonpayable",
			"type": "constructor"
		},
		{
			"inputs": [
				{
					"internalType": "string",
					"name": "",
					"type": "string"
				},
				{
					"internalType": "uint256",
					"name": "",
					"type": "uint256"
				}
			],
			"name": "ErrorValue",
			"type": "error"
		},
		{
			"inputs": [
				{
					"internalType": "string",
					"name": "",
					"type": "string"
				},
				{
					"internalType": "enum LibProject.FileState",
					"name": "",
					"type": "uint8"
				}
			],
			"name": "FileException",
			"type": "error"
		},
		{
			"inputs": [
				{
					"internalType": "string",
					"name": "",
					"type": "string"
				}
			],
			"name": "OperationException",
			"type": "error"
		},
		{
			"inputs": [
				{
					"internalType": "string",
					"name": "",
					"type": "string"
				}
			],
			"name": "ParameterException",
			"type": "error"
		},
		{
			"inputs": [
				{
					"internalType": "string",
					"name": "",
					"type": "string"
				}
			],
			"name": "Permissions",
			"type": "error"
		},
		{
			"anonymous": false,
			"inputs": [
				{
					"indexed": true,
					"internalType": "address",
					"name": "previousOwner",
					"type": "address"
				},
				{
					"indexed": true,
					"internalType": "address",
					"name": "newOwner",
					"type": "address"
				}
			],
			"name": "OwnershipTransferred",
			"type": "event"
		},
		{
			"anonymous": false,
			"inputs": [
				{
					"indexed": false,
					"internalType": "uint256",
					"name": "taskIndex",
					"type": "uint256"
				},
				{
					"indexed": false,
					"internalType": "uint256[]",
					"name": "fileIndex",
					"type": "uint256[]"
				},
				{
					"indexed": false,
					"internalType": "address",
					"name": "taskerAddress",
					"type": "address"
				},
				{
					"indexed": false,
					"internalType": "bool",
					"name": "isTrans",
					"type": "bool"
				}
			],
			"name": "acceptTaskEv",
			"type": "event"
		},
		{
			"anonymous": false,
			"inputs": [
				{
					"indexed": false,
					"internalType": "uint256",
					"name": "taskIndex",
					"type": "uint256"
				},
				{
					"indexed": false,
					"internalType": "uint256",
					"name": "fileIndex",
					"type": "uint256"
				},
				{
					"indexed": false,
					"internalType": "address",
					"name": "taskerAddress",
					"type": "address"
				},
				{
					"indexed": false,
					"internalType": "bool",
					"name": "isTrans",
					"type": "bool"
				}
			],
			"name": "acceptTaskEv",
			"type": "event"
		},
		{
			"anonymous": false,
			"inputs": [
				{
					"indexed": false,
					"internalType": "uint256",
					"name": "taskIndex",
					"type": "uint256"
				},
				{
					"indexed": false,
					"internalType": "uint256",
					"name": "fileInfo",
					"type": "uint256"
				},
				{
					"indexed": false,
					"internalType": "enum LibProject.FileState",
					"name": "fileSate",
					"type": "uint8"
				},
				{
					"indexed": false,
					"internalType": "address",
					"name": "opSender",
					"type": "address"
				}
			],
			"name": "changeFileStateEv",
			"type": "event"
		},
		{
			"anonymous": false,
			"inputs": [
				{
					"indexed": false,
					"internalType": "uint256",
					"name": "taskIndex",
					"type": "uint256"
				},
				{
					"indexed": false,
					"internalType": "enum LibProject.ProjectState",
					"name": "taskState",
					"type": "uint8"
				},
				{
					"indexed": false,
					"internalType": "address",
					"name": "opSender",
					"type": "address"
				}
			],
			"name": "changeProjectStateEv",
			"type": "event"
		},
		{
			"anonymous": false,
			"inputs": [
				{
					"indexed": false,
					"internalType": "uint256",
					"name": "taskIndex",
					"type": "uint256"
				},
				{
					"indexed": false,
					"internalType": "address",
					"name": "tasker",
					"type": "address"
				},
				{
					"indexed": false,
					"internalType": "uint256",
					"name": "fileIndex",
					"type": "uint256"
				},
				{
					"indexed": false,
					"internalType": "enum LibProject.TaskerState",
					"name": "taskerState",
					"type": "uint8"
				},
				{
					"indexed": false,
					"internalType": "bool",
					"name": "isTrans",
					"type": "bool"
				},
				{
					"indexed": false,
					"internalType": "address",
					"name": "opSender",
					"type": "address"
				}
			],
			"name": "changeTaskerStateEv",
			"type": "event"
		},
		{
			"anonymous": false,
			"inputs": [
				{
					"indexed": false,
					"internalType": "uint256",
					"name": "taskIndex",
					"type": "uint256"
				},
				{
					"indexed": false,
					"internalType": "bool",
					"name": "transActive",
					"type": "bool"
				},
				{
					"indexed": false,
					"internalType": "address",
					"name": "opSender",
					"type": "address"
				}
			],
			"name": "changeTransActive",
			"type": "event"
		},
		{
			"anonymous": false,
			"inputs": [
				{
					"indexed": false,
					"internalType": "uint256",
					"name": "taskIndex",
					"type": "uint256"
				},
				{
					"indexed": false,
					"internalType": "bool",
					"name": "verActive",
					"type": "bool"
				},
				{
					"indexed": false,
					"internalType": "address",
					"name": "opSender",
					"type": "address"
				}
			],
			"name": "changeVerActive",
			"type": "event"
		},
		{
			"anonymous": false,
			"inputs": [
				{
					"indexed": false,
					"internalType": "address",
					"name": "from",
					"type": "address"
				},
				{
					"indexed": false,
					"internalType": "address",
					"name": "to",
					"type": "address"
				},
				{
					"indexed": false,
					"internalType": "uint256",
					"name": "money",
					"type": "uint256"
				}
			],
			"name": "payEv",
			"type": "event"
		},
		{
			"anonymous": false,
			"inputs": [
				{
					"indexed": false,
					"internalType": "address",
					"name": "buyer",
					"type": "address"
				},
				{
					"indexed": false,
					"internalType": "uint256",
					"name": "taskIndex",
					"type": "uint256"
				},
				{
					"components": [
						{
							"internalType": "uint256",
							"name": "releaseTime",
							"type": "uint256"
						},
						{
							"internalType": "string",
							"name": "introduce",
							"type": "string"
						},
						{
							"internalType": "string",
							"name": "need",
							"type": "string"
						},
						{
							"internalType": "uint256",
							"name": "deadline",
							"type": "uint256"
						},
						{
							"internalType": "uint256",
							"name": "sourceLanguage",
							"type": "uint256"
						},
						{
							"internalType": "uint256",
							"name": "goalLanguage",
							"type": "uint256"
						},
						{
							"internalType": "uint256[]",
							"name": "preferList",
							"type": "uint256[]"
						},
						{
							"internalType": "uint256",
							"name": "translationType",
							"type": "uint256"
						},
						{
							"internalType": "uint256",
							"name": "workLoad",
							"type": "uint256"
						},
						{
							"internalType": "bool",
							"name": "isNonDisclosure",
							"type": "bool"
						},
						{
							"internalType": "bool",
							"name": "isCustomize",
							"type": "bool"
						},
						{
							"internalType": "uint256",
							"name": "bounty",
							"type": "uint256"
						},
						{
							"components": [
								{
									"components": [
										{
											"internalType": "string",
											"name": "name",
											"type": "string"
										},
										{
											"internalType": "uint256",
											"name": "size",
											"type": "uint256"
										},
										{
											"internalType": "uint256",
											"name": "videoLength",
											"type": "uint256"
										},
										{
											"internalType": "uint256",
											"name": "Page",
											"type": "uint256"
										},
										{
											"internalType": "uint256",
											"name": "words",
											"type": "uint256"
										},
										{
											"internalType": "uint256",
											"name": "fileType",
											"type": "uint256"
										},
										{
											"internalType": "string",
											"name": "path",
											"type": "string"
										}
									],
									"internalType": "struct LibProject.FileInfo",
									"name": "file",
									"type": "tuple"
								},
								{
									"internalType": "uint256",
									"name": "bounty",
									"type": "uint256"
								},
								{
									"internalType": "string",
									"name": "info",
									"type": "string"
								},
								{
									"internalType": "enum LibProject.FileState",
									"name": "state",
									"type": "uint8"
								},
								{
									"internalType": "uint256",
									"name": "lastUpload",
									"type": "uint256"
								}
							],
							"internalType": "struct LibProject.TaskInfo[]",
							"name": "tasks",
							"type": "tuple[]"
						}
					],
					"indexed": false,
					"internalType": "struct LibProject.ProParm",
					"name": "taskInfo",
					"type": "tuple"
				}
			],
			"name": "postProjectEv",
			"type": "event"
		},
		{
			"stateMutability": "payable",
			"type": "fallback"
		},
		{
			"inputs": [
				{
					"internalType": "address",
					"name": "_address",
					"type": "address"
				}
			],
			"name": "_isHasNftPass",
			"outputs": [
				{
					"internalType": "bool",
					"name": "",
					"type": "bool"
				}
			],
			"stateMutability": "view",
			"type": "function"
		},
		{
			"inputs": [
				{
					"internalType": "uint256",
					"name": "_index",
					"type": "uint256"
				},
				{
					"internalType": "uint256[]",
					"name": "_fileIndex",
					"type": "uint256[]"
				}
			],
			"name": "acceptForTranslator",
			"outputs": [],
			"stateMutability": "nonpayable",
			"type": "function"
		},
		{
			"inputs": [
				{
					"internalType": "uint256",
					"name": "_index",
					"type": "uint256"
				},
				{
					"internalType": "uint256[]",
					"name": "_fileIndex",
					"type": "uint256[]"
				}
			],
			"name": "acceptForVerifer",
			"outputs": [],
			"stateMutability": "nonpayable",
			"type": "function"
		},
		{
			"inputs": [
				{
					"internalType": "uint256",
					"name": "_index",
					"type": "uint256"
				},
				{
					"internalType": "uint256",
					"name": "_fileIndex",
					"type": "uint256"
				}
			],
			"name": "closeFileState",
			"outputs": [],
			"stateMutability": "nonpayable",
			"type": "function"
		},
		{
			"inputs": [
				{
					"internalType": "uint256",
					"name": "_index",
					"type": "uint256"
				}
			],
			"name": "closeTask",
			"outputs": [],
			"stateMutability": "nonpayable",
			"type": "function"
		},
		{
			"inputs": [
				{
					"internalType": "uint256",
					"name": "_index",
					"type": "uint256"
				}
			],
			"name": "endTransAccept",
			"outputs": [],
			"stateMutability": "nonpayable",
			"type": "function"
		},
		{
			"inputs": [
				{
					"internalType": "uint256",
					"name": "_index",
					"type": "uint256"
				}
			],
			"name": "endTransVf",
			"outputs": [],
			"stateMutability": "nonpayable",
			"type": "function"
		},
		{
			"inputs": [
				{
					"internalType": "uint256",
					"name": "_index",
					"type": "uint256"
				},
				{
					"internalType": "address",
					"name": "_taskerIndex",
					"type": "address"
				}
			],
			"name": "getAcceptTransNumber",
			"outputs": [
				{
					"internalType": "uint256",
					"name": "",
					"type": "uint256"
				}
			],
			"stateMutability": "view",
			"type": "function"
		},
		{
			"inputs": [
				{
					"internalType": "uint256",
					"name": "_index",
					"type": "uint256"
				},
				{
					"internalType": "address",
					"name": "_taskerIndex",
					"type": "address"
				}
			],
			"name": "getAcceptVfNumber",
			"outputs": [
				{
					"internalType": "uint256",
					"name": "",
					"type": "uint256"
				}
			],
			"stateMutability": "view",
			"type": "function"
		},
		{
			"inputs": [],
			"name": "getBalanceOfContract",
			"outputs": [
				{
					"internalType": "uint256",
					"name": "",
					"type": "uint256"
				}
			],
			"stateMutability": "view",
			"type": "function"
		},
		{
			"inputs": [
				{
					"internalType": "uint256",
					"name": "_index",
					"type": "uint256"
				}
			],
			"name": "getBuyer",
			"outputs": [
				{
					"internalType": "address",
					"name": "",
					"type": "address"
				}
			],
			"stateMutability": "view",
			"type": "function"
		},
		{
			"inputs": [],
			"name": "getCount",
			"outputs": [
				{
					"internalType": "uint256",
					"name": "",
					"type": "uint256"
				}
			],
			"stateMutability": "view",
			"type": "function"
		},
		{
			"inputs": [
				{
					"internalType": "uint256",
					"name": "_index",
					"type": "uint256"
				},
				{
					"internalType": "uint256",
					"name": "_fileIndex",
					"type": "uint256"
				}
			],
			"name": "getFileState",
			"outputs": [
				{
					"internalType": "enum LibProject.FileState",
					"name": "",
					"type": "uint8"
				}
			],
			"stateMutability": "view",
			"type": "function"
		},
		{
			"inputs": [
				{
					"internalType": "address",
					"name": "_tasker",
					"type": "address"
				}
			],
			"name": "getPay",
			"outputs": [
				{
					"internalType": "uint256",
					"name": "",
					"type": "uint256"
				}
			],
			"stateMutability": "view",
			"type": "function"
		},
		{
			"inputs": [
				{
					"internalType": "uint256",
					"name": "_index",
					"type": "uint256"
				},
				{
					"internalType": "uint256",
					"name": "_fileIndex",
					"type": "uint256"
				}
			],
			"name": "getTaskBounty",
			"outputs": [
				{
					"internalType": "uint256",
					"name": "",
					"type": "uint256"
				}
			],
			"stateMutability": "view",
			"type": "function"
		},
		{
			"inputs": [
				{
					"internalType": "uint256",
					"name": "_index",
					"type": "uint256"
				}
			],
			"name": "getTaskBounty",
			"outputs": [
				{
					"internalType": "uint256",
					"name": "",
					"type": "uint256"
				}
			],
			"stateMutability": "view",
			"type": "function"
		},
		{
			"inputs": [
				{
					"internalType": "uint256",
					"name": "_index",
					"type": "uint256"
				}
			],
			"name": "getTaskInfo",
			"outputs": [
				{
					"components": [
						{
							"internalType": "address",
							"name": "buyer",
							"type": "address"
						},
						{
							"internalType": "uint256",
							"name": "releaseTime",
							"type": "uint256"
						},
						{
							"internalType": "string",
							"name": "introduce",
							"type": "string"
						},
						{
							"internalType": "string",
							"name": "need",
							"type": "string"
						},
						{
							"internalType": "uint256",
							"name": "deadline",
							"type": "uint256"
						},
						{
							"internalType": "uint256",
							"name": "sourceLanguage",
							"type": "uint256"
						},
						{
							"internalType": "uint256",
							"name": "goalLanguage",
							"type": "uint256"
						},
						{
							"internalType": "uint256[]",
							"name": "preferList",
							"type": "uint256[]"
						},
						{
							"internalType": "uint256",
							"name": "translationType",
							"type": "uint256"
						},
						{
							"internalType": "uint256",
							"name": "workLoad",
							"type": "uint256"
						},
						{
							"internalType": "bool",
							"name": "isNonDisclosure",
							"type": "bool"
						},
						{
							"internalType": "bool",
							"name": "isCustomize",
							"type": "bool"
						},
						{
							"internalType": "uint256",
							"name": "bounty",
							"type": "uint256"
						},
						{
							"components": [
								{
									"components": [
										{
											"internalType": "string",
											"name": "name",
											"type": "string"
										},
										{
											"internalType": "uint256",
											"name": "size",
											"type": "uint256"
										},
										{
											"internalType": "uint256",
											"name": "videoLength",
											"type": "uint256"
										},
										{
											"internalType": "uint256",
											"name": "Page",
											"type": "uint256"
										},
										{
											"internalType": "uint256",
											"name": "words",
											"type": "uint256"
										},
										{
											"internalType": "uint256",
											"name": "fileType",
											"type": "uint256"
										},
										{
											"internalType": "string",
											"name": "path",
											"type": "string"
										}
									],
									"internalType": "struct LibProject.FileInfo",
									"name": "file",
									"type": "tuple"
								},
								{
									"internalType": "uint256",
									"name": "bounty",
									"type": "uint256"
								},
								{
									"internalType": "string",
									"name": "info",
									"type": "string"
								},
								{
									"internalType": "enum LibProject.FileState",
									"name": "state",
									"type": "uint8"
								},
								{
									"internalType": "uint256",
									"name": "lastUpload",
									"type": "uint256"
								}
							],
							"internalType": "struct LibProject.TaskInfo[]",
							"name": "tasks",
							"type": "tuple[]"
						},
						{
							"internalType": "address[]",
							"name": "translators",
							"type": "address[]"
						},
						{
							"internalType": "address[]",
							"name": "verifiers",
							"type": "address[]"
						},
						{
							"components": [
								{
									"internalType": "address",
									"name": "taskerAddress",
									"type": "address"
								},
								{
									"internalType": "uint256[]",
									"name": "taskIndex",
									"type": "uint256[]"
								},
								{
									"components": [
										{
											"internalType": "enum LibProject.TaskerState",
											"name": "state",
											"type": "uint8"
										},
										{
											"internalType": "string",
											"name": "file",
											"type": "string"
										}
									],
									"internalType": "struct LibProject.FileIndexInfo[]",
									"name": "taskerinfo",
									"type": "tuple[]"
								}
							],
							"internalType": "struct LibProject.ReturnTasker[]",
							"name": "transInfo",
							"type": "tuple[]"
						},
						{
							"components": [
								{
									"internalType": "address",
									"name": "taskerAddress",
									"type": "address"
								},
								{
									"internalType": "uint256[]",
									"name": "taskIndex",
									"type": "uint256[]"
								},
								{
									"components": [
										{
											"internalType": "enum LibProject.TaskerState",
											"name": "state",
											"type": "uint8"
										},
										{
											"internalType": "string",
											"name": "file",
											"type": "string"
										}
									],
									"internalType": "struct LibProject.FileIndexInfo[]",
									"name": "taskerinfo",
									"type": "tuple[]"
								}
							],
							"internalType": "struct LibProject.ReturnTasker[]",
							"name": "vfInfo",
							"type": "tuple[]"
						},
						{
							"internalType": "uint256",
							"name": "maxT",
							"type": "uint256"
						},
						{
							"internalType": "uint256",
							"name": "maxV",
							"type": "uint256"
						},
						{
							"internalType": "uint256",
							"name": "numberT",
							"type": "uint256"
						},
						{
							"internalType": "uint256",
							"name": "numberV",
							"type": "uint256"
						},
						{
							"internalType": "bool",
							"name": "isTransActive",
							"type": "bool"
						},
						{
							"internalType": "bool",
							"name": "isVerActive",
							"type": "bool"
						},
						{
							"internalType": "enum LibProject.ProjectState",
							"name": "state",
							"type": "uint8"
						}
					],
					"internalType": "struct LibProject.ReturnTask",
					"name": "",
					"type": "tuple"
				}
			],
			"stateMutability": "view",
			"type": "function"
		},
		{
			"inputs": [
				{
					"internalType": "uint256",
					"name": "_index",
					"type": "uint256"
				}
			],
			"name": "getTaskState",
			"outputs": [
				{
					"internalType": "enum LibProject.ProjectState",
					"name": "",
					"type": "uint8"
				}
			],
			"stateMutability": "view",
			"type": "function"
		},
		{
			"inputs": [
				{
					"internalType": "uint256",
					"name": "_index",
					"type": "uint256"
				}
			],
			"name": "getTaskStateTrans",
			"outputs": [
				{
					"internalType": "bool",
					"name": "",
					"type": "bool"
				}
			],
			"stateMutability": "view",
			"type": "function"
		},
		{
			"inputs": [
				{
					"internalType": "uint256",
					"name": "_index",
					"type": "uint256"
				}
			],
			"name": "getTaskStateVf",
			"outputs": [
				{
					"internalType": "bool",
					"name": "",
					"type": "bool"
				}
			],
			"stateMutability": "view",
			"type": "function"
		},
		{
			"inputs": [
				{
					"internalType": "uint256",
					"name": "_index",
					"type": "uint256"
				}
			],
			"name": "getTasks",
			"outputs": [
				{
					"components": [
						{
							"components": [
								{
									"internalType": "string",
									"name": "name",
									"type": "string"
								},
								{
									"internalType": "uint256",
									"name": "size",
									"type": "uint256"
								},
								{
									"internalType": "uint256",
									"name": "videoLength",
									"type": "uint256"
								},
								{
									"internalType": "uint256",
									"name": "Page",
									"type": "uint256"
								},
								{
									"internalType": "uint256",
									"name": "words",
									"type": "uint256"
								},
								{
									"internalType": "uint256",
									"name": "fileType",
									"type": "uint256"
								},
								{
									"internalType": "string",
									"name": "path",
									"type": "string"
								}
							],
							"internalType": "struct LibProject.FileInfo",
							"name": "file",
							"type": "tuple"
						},
						{
							"internalType": "uint256",
							"name": "bounty",
							"type": "uint256"
						},
						{
							"internalType": "string",
							"name": "info",
							"type": "string"
						},
						{
							"internalType": "enum LibProject.FileState",
							"name": "state",
							"type": "uint8"
						},
						{
							"internalType": "uint256",
							"name": "lastUpload",
							"type": "uint256"
						}
					],
					"internalType": "struct LibProject.TaskInfo[]",
					"name": "",
					"type": "tuple[]"
				}
			],
			"stateMutability": "view",
			"type": "function"
		},
		{
			"inputs": [
				{
					"internalType": "uint256",
					"name": "_index",
					"type": "uint256"
				}
			],
			"name": "getTransNumber",
			"outputs": [
				{
					"internalType": "uint256",
					"name": "",
					"type": "uint256"
				}
			],
			"stateMutability": "view",
			"type": "function"
		},
		{
			"inputs": [
				{
					"internalType": "uint256",
					"name": "_index",
					"type": "uint256"
				},
				{
					"internalType": "address",
					"name": "_address",
					"type": "address"
				}
			],
			"name": "getTransTaskInfo",
			"outputs": [
				{
					"components": [
						{
							"internalType": "address",
							"name": "taskerAddress",
							"type": "address"
						},
						{
							"internalType": "uint256[]",
							"name": "taskIndex",
							"type": "uint256[]"
						},
						{
							"components": [
								{
									"internalType": "enum LibProject.TaskerState",
									"name": "state",
									"type": "uint8"
								},
								{
									"internalType": "string",
									"name": "file",
									"type": "string"
								}
							],
							"internalType": "struct LibProject.FileIndexInfo[]",
							"name": "taskerinfo",
							"type": "tuple[]"
						}
					],
					"internalType": "struct LibProject.ReturnTasker",
					"name": "",
					"type": "tuple"
				}
			],
			"stateMutability": "view",
			"type": "function"
		},
		{
			"inputs": [
				{
					"internalType": "uint256",
					"name": "_index",
					"type": "uint256"
				}
			],
			"name": "getTranslatorsList",
			"outputs": [
				{
					"internalType": "address[]",
					"name": "",
					"type": "address[]"
				}
			],
			"stateMutability": "view",
			"type": "function"
		},
		{
			"inputs": [
				{
					"internalType": "uint256",
					"name": "_index",
					"type": "uint256"
				}
			],
			"name": "getVfList",
			"outputs": [
				{
					"internalType": "address[]",
					"name": "",
					"type": "address[]"
				}
			],
			"stateMutability": "view",
			"type": "function"
		},
		{
			"inputs": [
				{
					"internalType": "uint256",
					"name": "_index",
					"type": "uint256"
				}
			],
			"name": "getVfNumber",
			"outputs": [
				{
					"internalType": "uint256",
					"name": "",
					"type": "uint256"
				}
			],
			"stateMutability": "view",
			"type": "function"
		},
		{
			"inputs": [
				{
					"internalType": "uint256",
					"name": "_index",
					"type": "uint256"
				},
				{
					"internalType": "address",
					"name": "_address",
					"type": "address"
				}
			],
			"name": "getVfTaskInfo",
			"outputs": [
				{
					"components": [
						{
							"internalType": "address",
							"name": "taskerAddress",
							"type": "address"
						},
						{
							"internalType": "uint256[]",
							"name": "taskIndex",
							"type": "uint256[]"
						},
						{
							"components": [
								{
									"internalType": "enum LibProject.TaskerState",
									"name": "state",
									"type": "uint8"
								},
								{
									"internalType": "string",
									"name": "file",
									"type": "string"
								}
							],
							"internalType": "struct LibProject.FileIndexInfo[]",
							"name": "taskerinfo",
							"type": "tuple[]"
						}
					],
					"internalType": "struct LibProject.ReturnTasker",
					"name": "",
					"type": "tuple"
				}
			],
			"stateMutability": "view",
			"type": "function"
		},
		{
			"inputs": [
				{
					"internalType": "uint256",
					"name": "_index",
					"type": "uint256"
				}
			],
			"name": "isCustomizeState",
			"outputs": [
				{
					"internalType": "bool",
					"name": "",
					"type": "bool"
				}
			],
			"stateMutability": "view",
			"type": "function"
		},
		{
			"inputs": [
				{
					"internalType": "uint256",
					"name": "_index",
					"type": "uint256"
				},
				{
					"internalType": "bool",
					"name": "_isTrans",
					"type": "bool"
				}
			],
			"name": "isFull",
			"outputs": [
				{
					"internalType": "bool",
					"name": "",
					"type": "bool"
				}
			],
			"stateMutability": "view",
			"type": "function"
		},
		{
			"inputs": [
				{
					"internalType": "address",
					"name": "_newAddress",
					"type": "address"
				}
			],
			"name": "newAmphiAddess",
			"outputs": [],
			"stateMutability": "nonpayable",
			"type": "function"
		},
		{
			"inputs": [
				{
					"internalType": "uint256",
					"name": "_index",
					"type": "uint256"
				},
				{
					"internalType": "address",
					"name": "_taskerIndex",
					"type": "address"
				},
				{
					"internalType": "bool",
					"name": "_isTrans",
					"type": "bool"
				}
			],
			"name": "overTimeTasker",
			"outputs": [
				{
					"internalType": "uint256[]",
					"name": "",
					"type": "uint256[]"
				},
				{
					"internalType": "uint256",
					"name": "",
					"type": "uint256"
				}
			],
			"stateMutability": "view",
			"type": "function"
		},
		{
			"inputs": [
				{
					"internalType": "uint256",
					"name": "_index",
					"type": "uint256"
				},
				{
					"internalType": "address",
					"name": "_tasker",
					"type": "address"
				}
			],
			"name": "overTimeTrans",
			"outputs": [
				{
					"internalType": "uint256",
					"name": "",
					"type": "uint256"
				}
			],
			"stateMutability": "nonpayable",
			"type": "function"
		},
		{
			"inputs": [
				{
					"internalType": "uint256",
					"name": "_index",
					"type": "uint256"
				},
				{
					"internalType": "address",
					"name": "_tasker",
					"type": "address"
				}
			],
			"name": "overTimeVf",
			"outputs": [
				{
					"internalType": "uint256",
					"name": "",
					"type": "uint256"
				}
			],
			"stateMutability": "nonpayable",
			"type": "function"
		},
		{
			"inputs": [],
			"name": "owner",
			"outputs": [
				{
					"internalType": "address",
					"name": "",
					"type": "address"
				}
			],
			"stateMutability": "view",
			"type": "function"
		},
		{
			"inputs": [
				{
					"internalType": "address",
					"name": "_to",
					"type": "address"
				}
			],
			"name": "payFine",
			"outputs": [],
			"stateMutability": "payable",
			"type": "function"
		},
		{
			"inputs": [
				{
					"components": [
						{
							"internalType": "uint256",
							"name": "releaseTime",
							"type": "uint256"
						},
						{
							"internalType": "string",
							"name": "introduce",
							"type": "string"
						},
						{
							"internalType": "string",
							"name": "need",
							"type": "string"
						},
						{
							"internalType": "uint256",
							"name": "deadline",
							"type": "uint256"
						},
						{
							"internalType": "uint256",
							"name": "sourceLanguage",
							"type": "uint256"
						},
						{
							"internalType": "uint256",
							"name": "goalLanguage",
							"type": "uint256"
						},
						{
							"internalType": "uint256[]",
							"name": "preferList",
							"type": "uint256[]"
						},
						{
							"internalType": "uint256",
							"name": "translationType",
							"type": "uint256"
						},
						{
							"internalType": "uint256",
							"name": "workLoad",
							"type": "uint256"
						},
						{
							"internalType": "bool",
							"name": "isNonDisclosure",
							"type": "bool"
						},
						{
							"internalType": "bool",
							"name": "isCustomize",
							"type": "bool"
						},
						{
							"internalType": "uint256",
							"name": "bounty",
							"type": "uint256"
						},
						{
							"components": [
								{
									"components": [
										{
											"internalType": "string",
											"name": "name",
											"type": "string"
										},
										{
											"internalType": "uint256",
											"name": "size",
											"type": "uint256"
										},
										{
											"internalType": "uint256",
											"name": "videoLength",
											"type": "uint256"
										},
										{
											"internalType": "uint256",
											"name": "Page",
											"type": "uint256"
										},
										{
											"internalType": "uint256",
											"name": "words",
											"type": "uint256"
										},
										{
											"internalType": "uint256",
											"name": "fileType",
											"type": "uint256"
										},
										{
											"internalType": "string",
											"name": "path",
											"type": "string"
										}
									],
									"internalType": "struct LibProject.FileInfo",
									"name": "file",
									"type": "tuple"
								},
								{
									"internalType": "uint256",
									"name": "bounty",
									"type": "uint256"
								},
								{
									"internalType": "string",
									"name": "info",
									"type": "string"
								},
								{
									"internalType": "enum LibProject.FileState",
									"name": "state",
									"type": "uint8"
								},
								{
									"internalType": "uint256",
									"name": "lastUpload",
									"type": "uint256"
								}
							],
							"internalType": "struct LibProject.TaskInfo[]",
							"name": "tasks",
							"type": "tuple[]"
						}
					],
					"internalType": "struct LibProject.ProParm",
					"name": "_t",
					"type": "tuple"
				}
			],
			"name": "postTask",
			"outputs": [
				{
					"internalType": "uint256",
					"name": "_index",
					"type": "uint256"
				}
			],
			"stateMutability": "payable",
			"type": "function"
		},
		{
			"inputs": [
				{
					"internalType": "uint256",
					"name": "_index",
					"type": "uint256"
				},
				{
					"internalType": "address",
					"name": "_taskerIndex",
					"type": "address"
				},
				{
					"internalType": "uint256",
					"name": "_fileIndex",
					"type": "uint256"
				},
				{
					"internalType": "bool",
					"name": "_isPass",
					"type": "bool"
				},
				{
					"internalType": "address",
					"name": "_transAddress",
					"type": "address"
				}
			],
			"name": "receiveTask",
			"outputs": [],
			"stateMutability": "payable",
			"type": "function"
		},
		{
			"inputs": [],
			"name": "renounceOwnership",
			"outputs": [],
			"stateMutability": "nonpayable",
			"type": "function"
		},
		{
			"inputs": [
				{
					"internalType": "uint256",
					"name": "_index",
					"type": "uint256"
				},
				{
					"internalType": "uint256",
					"name": "_fileIndex",
					"type": "uint256"
				},
				{
					"internalType": "string",
					"name": "_file",
					"type": "string"
				}
			],
			"name": "sumbitTaskTrans",
			"outputs": [],
			"stateMutability": "nonpayable",
			"type": "function"
		},
		{
			"inputs": [],
			"name": "transderToContract",
			"outputs": [],
			"stateMutability": "payable",
			"type": "function"
		},
		{
			"inputs": [
				{
					"internalType": "address",
					"name": "newOwner",
					"type": "address"
				}
			],
			"name": "transferOwnership",
			"outputs": [],
			"stateMutability": "nonpayable",
			"type": "function"
		},
		{
			"inputs": [
				{
					"internalType": "uint256",
					"name": "_index",
					"type": "uint256"
				},
				{
					"components": [
						{
							"internalType": "uint256",
							"name": "releaseTime",
							"type": "uint256"
						},
						{
							"internalType": "string",
							"name": "introduce",
							"type": "string"
						},
						{
							"internalType": "string",
							"name": "need",
							"type": "string"
						},
						{
							"internalType": "uint256",
							"name": "deadline",
							"type": "uint256"
						},
						{
							"internalType": "uint256",
							"name": "sourceLanguage",
							"type": "uint256"
						},
						{
							"internalType": "uint256",
							"name": "goalLanguage",
							"type": "uint256"
						},
						{
							"internalType": "uint256[]",
							"name": "preferList",
							"type": "uint256[]"
						},
						{
							"internalType": "uint256",
							"name": "translationType",
							"type": "uint256"
						},
						{
							"internalType": "uint256",
							"name": "workLoad",
							"type": "uint256"
						},
						{
							"internalType": "bool",
							"name": "isNonDisclosure",
							"type": "bool"
						},
						{
							"internalType": "bool",
							"name": "isCustomize",
							"type": "bool"
						},
						{
							"internalType": "uint256",
							"name": "bounty",
							"type": "uint256"
						},
						{
							"components": [
								{
									"components": [
										{
											"internalType": "string",
											"name": "name",
											"type": "string"
										},
										{
											"internalType": "uint256",
											"name": "size",
											"type": "uint256"
										},
										{
											"internalType": "uint256",
											"name": "videoLength",
											"type": "uint256"
										},
										{
											"internalType": "uint256",
											"name": "Page",
											"type": "uint256"
										},
										{
											"internalType": "uint256",
											"name": "words",
											"type": "uint256"
										},
										{
											"internalType": "uint256",
											"name": "fileType",
											"type": "uint256"
										},
										{
											"internalType": "string",
											"name": "path",
											"type": "string"
										}
									],
									"internalType": "struct LibProject.FileInfo",
									"name": "file",
									"type": "tuple"
								},
								{
									"internalType": "uint256",
									"name": "bounty",
									"type": "uint256"
								},
								{
									"internalType": "string",
									"name": "info",
									"type": "string"
								},
								{
									"internalType": "enum LibProject.FileState",
									"name": "state",
									"type": "uint8"
								},
								{
									"internalType": "uint256",
									"name": "lastUpload",
									"type": "uint256"
								}
							],
							"internalType": "struct LibProject.TaskInfo[]",
							"name": "tasks",
							"type": "tuple[]"
						}
					],
					"internalType": "struct LibProject.ProParm",
					"name": "_t",
					"type": "tuple"
				}
			],
			"name": "updateTask",
			"outputs": [],
			"stateMutability": "payable",
			"type": "function"
		},
		{
			"inputs": [
				{
					"internalType": "uint256",
					"name": "_index",
					"type": "uint256"
				},
				{
					"internalType": "address",
					"name": "_traner",
					"type": "address"
				},
				{
					"internalType": "uint256",
					"name": "_fileIndex",
					"type": "uint256"
				},
				{
					"internalType": "bool",
					"name": "_isPass",
					"type": "bool"
				},
				{
					"internalType": "string",
					"name": "_file",
					"type": "string"
				}
			],
			"name": "validate",
			"outputs": [],
			"stateMutability": "nonpayable",
			"type": "function"
		},
		{
			"inputs": [
				{
					"internalType": "uint256",
					"name": "_money",
					"type": "uint256"
				}
			],
			"name": "withdraw",
			"outputs": [],
			"stateMutability": "nonpayable",
			"type": "function"
		},
		{
			"inputs": [],
			"name": "withdrawAll",
			"outputs": [],
			"stateMutability": "nonpayable",
			"type": "function"
		},
		{
			"stateMutability": "payable",
			"type": "receive"
		}
	]
}