{
	"data": {
		"bytecode": {
			"linkReferences": {
				"utils/calculateUtils.sol": {
					"CalculateUtils": [
						{
							"length": 20,
							"start": 7954
						},
						{
							"length": 20,
							"start": 8132
						},
						{
							"length": 20,
							"start": 9757
						}
					]
				}
			},
			"object": "60806040523480156200001157600080fd5b506200001d3362000023565b62000073565b600080546001600160a01b038381166001600160a01b0319831681178455604051919092169283917f8be0079c531659141344cd1fd0a4f28419497f9722a3daafe3b4186f6b6457e09190a35050565b615bb280620000836000396000f3fe60806040526004361061023f5760003560e01c80638a9a9ff31161013a578063ad607c72116100bd578063d2fed69c11610084578063f8626ebb11610061578063f8626ebb146107bf578063fa4c6473146107ef578063ffcce7761461080f57005b8063d2fed69c14610739578063d3d7bc3b14610769578063f2fde38b1461079f57005b8063ad607c7214610672578063b647eec31461069f578063bb0c38c0146106bf578063cf8f4be2146106df578063d1a1b9991461070c57005b806397601efb1161010157806397601efb146105dd578063983a12a8146105fd578063a55af7011461062a578063a87d942c1461064a578063ac35cd611461065f57005b80638a9a9ff31461051e5780638adc74a51461053e5780638b3f3a6f1461055e5780638da5cb5b1461058c5780639722f099146105aa57005b8063546677aa116101c25780636e973982116101895780636e97398214610445578063715018a614610475578063790485f91461048a5780637c34eb85146104d1578063853828b61461050957005b8063546677aa1461035c5780635b0ef140146103a45780635bf608b8146103c4578063627a62f31461041257806364a1ed071461042557005b80632e1a7d4d116102065780632e1a7d4d146102e157806336d61ae0146103015780633bd14e13146103215780633edfa22914610341578063460968dd1461035457005b806309a02f58146102485780631201dfc61461025b578063193620e71461027b57806322968885146102ae578063243634bf146102c157005b3661024657005b005b6102466102563660046150df565b610855565b34801561026757600080fd5b50610246610276366004614f12565b610974565b34801561028757600080fd5b5061029b610296366004614f44565b610980565b6040519081526020015b60405180910390f35b3480156102ba57600080fd5b504761029b565b3480156102cd57600080fd5b506102466102dc366004615003565b6109ad565b3480156102ed57600080fd5b506102466102fc366004614f12565b610a66565b34801561030d57600080fd5b5061029b61031c366004614f44565b610a77565b34801561032d57600080fd5b5061024661033c366004615075565b610ac3565b61024661034f366004614ec2565b610bd6565b610246610c61565b34801561036857600080fd5b50610394610377366004614f12565b600090815260016020526040902060150154610100900460ff1690565b60405190151581526020016102a5565b3480156103b057600080fd5b5061029b6103bf366004614f44565b610d1b565b3480156103d057600080fd5b506103fa6103df366004614f12565b6000908152600160205260409020546001600160a01b031690565b6040516001600160a01b0390911681526020016102a5565b610246610420366004614fac565b610d53565b34801561043157600080fd5b5061029b61044036600461511c565b610eab565b34801561045157600080fd5b5061029b610460366004614f12565b6000908152600160205260409020600b015490565b34801561048157600080fd5b50610246610ee8565b34801561049657600080fd5b5061029b6104a5366004614f44565b60008281526001602090815260408083206001600160a01b038516845260100190915290205492915050565b3480156104dd57600080fd5b506103946104ec366004614f12565b6000908152600160205260409020600a0154610100900460ff1690565b34801561051557600080fd5b50610246610efc565b34801561052a57600080fd5b506103946105393660046150bc565b610f0c565b34801561054a57600080fd5b50610246610559366004614f12565b610f56565b34801561056a57600080fd5b5061057e610579366004614f70565b610f8e565b6040516102a592919061558d565b34801561059857600080fd5b506000546001600160a01b03166103fa565b3480156105b657600080fd5b506103946105c5366004614f12565b60009081526001602052604090206015015460ff1690565b3480156105e957600080fd5b506102466105f836600461511c565b6112b4565b34801561060957600080fd5b5061061d610618366004614f12565b6112c2565b6040516102a59190615539565b34801561063657600080fd5b50610246610645366004614f12565b611331565b34801561065657600080fd5b5060035461029b565b61029b61066d366004614edd565b611364565b34801561067e57600080fd5b5061069261068d36600461511c565b61145b565b6040516102a591906155af565b3480156106ab57600080fd5b5061061d6106ba366004614f12565b61149c565b3480156106cb57600080fd5b506102466106da36600461513e565b611509565b3480156106eb57600080fd5b506106ff6106fa366004614f12565b6115a9565b6040516102a5919061557a565b34801561071857600080fd5b5061072c610727366004614f12565b61185a565b6040516102a59190615672565b34801561074557600080fd5b5061029b610754366004614f12565b6000908152600160205260409020600d015490565b34801561077557600080fd5b5061029b610784366004614ec2565b6001600160a01b031660009081526002602052604090205490565b3480156107ab57600080fd5b506102466107ba366004614ec2565b61189e565b3480156107cb57600080fd5b5061029b6107da366004614f12565b6000908152600160205260409020600e015490565b3480156107fb57600080fd5b5061024661080a366004615075565b611914565b34801561081b57600080fd5b5061084861082a366004614f12565b60009081526001602052604090206015015462010000900460ff1690565b6040516102a591906155bd565b3360008181526002602052604090205480156108b957604051630934f2c360e01b815260206004820152601b60248201527f546865726520697320616e20756e706169642070656e616c747921000000000060448201526064015b60405180910390fd5b836108c360035490565b8111156108e35760405163347626dd60e21b81526004016108b0906155cb565b6108ed8585611a12565b60006108ff856101600151601e611a5b565b905061091381670de0b6b3a7640000615a3e565b341461096457604080516379d3124b60e01b8152600481019190915260176044820152766572726f72203a20496e636f72726563742076616c756560481b60648201523460248201526084016108b0565b61096c610c61565b505050505050565b61097d81611a7a565b50565b60008281526001602090815260408083206001600160a01b0385168452600f019091529020545b92915050565b846109b760035490565b8111156109d75760405163347626dd60e21b81526004016108b0906155cb565b60006109e3878661145b565b9050600781600b8111156109f9576109f9615ada565b1115610a3b5760405163b4644dd960e01b815260206004820152601060248201526f1d5b98589b19481d1bc81cdd589b5a5d60821b60448201526064016108b0565b6000610a4a8888888888611acf565b90508015610a5c57610a5c8782611b61565b5050505050505050565b610a6e611c7f565b61097d81611cd9565b600082610a8360035490565b811115610aa35760405163347626dd60e21b81526004016108b0906155cb565b6000610aaf8585611daf565b9050610abb8482611fba565b949350505050565b81610acd60035490565b811115610aed5760405163347626dd60e21b81526004016108b0906155cb565b6000838152600160205260409020601501548390610100900460ff16610b265760405163b4644dd960e01b81526004016108b0906155f7565b336000818152600260205260409020548015610b8557604051630934f2c360e01b815260206004820152601b60248201527f546865726520697320616e20756e706169642070656e616c747921000000000060448201526064016108b0565b610b90868633611feb565b7f8e913351aa76002e572cc432b46556976f6e10285b52f94909124ea8ebd0b7958686336000604051610bc694939291906158a7565b60405180910390a1505050505050565b6001600160a01b038116600090815260026020526040902054610c0190670de0b6b3a7640000615a3e565b341115610c4d57604080516379d3124b60e01b8152600481019190915260116044820152700ecc2d8eaca40d2e640e8dede40d0d2ced607b1b60648201523460248201526084016108b0565b610c57813461235a565b61097d8134612382565b604051600090309034908381818185875af1925050503d8060008114610ca3576040519150601f19603f3d011682016040523d82523d6000602084013e610ca8565b606091505b5050905080610ce75760405162461bcd60e51b815260206004820152600b60248201526a10d85b1b0819985a5b195960aa1b60448201526064016108b0565b604080513381523060208201523491810191909152600080516020615b3d833981519152906060015b60405180910390a150565b600082610d2760035490565b811115610d475760405163347626dd60e21b81526004016108b0906155cb565b6000610aaf85856124ba565b84610d5d60035490565b811115610d7d5760405163347626dd60e21b81526004016108b0906155cb565b6000868152600160205260408120600a0154610100900460ff1615610dad57610da68786610eab565b9050610dc1565b506000868152600160205260409020600b01545b610dcd878787876125bb565b8315610ea2576000610df1610dea83670de0b6b3a7640000615a3e565b6046611a5b565b905080341015610e4657604080516379d3124b60e01b8152600481019190915260176044820152766572726f72203a20496e636f72726563742076616c756560481b60648201523460248201526084016108b0565b610e4e610c61565b6000610e6a610e6584670de0b6b3a7640000615a3e565b6125e4565b90506000610e88610e8385670de0b6b3a7640000615a3e565b6125f1565b9050610e948983611b61565b610e9e8682611b61565b5050505b50505050505050565b6000828152600160205260408120600c01805483908110610ece57610ece615af0565b90600052602060002090600b020160070154905092915050565b610ef0611c7f565b610efa60006125fe565b565b610f04611c7f565b610efa61264e565b60008115610f3557506000828152600160205260409020601381015460119091015411156109a7565b506000828152600160205260409020601481015460129091015411156109a7565b80610f6060035490565b811115610f805760405163347626dd60e21b81526004016108b0906155cb565b610f8982612715565b505050565b6060600060608060008086156110125760008981526001602090815260408083206001600160a01b038c168452600f018252918290208054835181840281018401909452808452909183018282801561100657602002820191906000526020600020905b815481526020019060010190808311610ff2575b50505050509350611082565b60008981526001602090815260408083206001600160a01b038c1684526010018252918290208054835181840281018401909452808452909183018282801561107a57602002820191906000526020600020905b815481526020019060010190808311611066575b505050505093505b61108a6148ff565b60005b85518110156112a35760008b81526001602081815260408084206001600160a01b038f168552600f0190915282208851910191908890849081106110d3576110d3615af0565b602002602001015181526020019081526020016000206040518060400160405290816000820160009054906101000a900460ff16600481111561111857611118615ada565b600481111561112957611129615ada565b815260200160018201805461113d90615a74565b80601f016020809104026020016040519081016040528092919081815260200182805461116990615a74565b80156111b65780601f1061118b576101008083540402835291602001916111b6565b820191906000526020600020905b81548152906001019060200180831161119957829003601f168201915b5050505050815250509150600060048111156111d4576111d4615ada565b825160048111156111e7576111e7615ada565b1415611291578581815181106111ff576111ff615af0565b602002602001015185848151811061121957611219615af0565b60209081029190910101528261122e81615aa9565b935050600160008c8152602001908152602001600020600c0186828151811061125957611259615af0565b60200260200101518154811061127157611271615af0565b90600052602060002090600b0201600701548461128e9190615a04565b93505b8061129b81615aa9565b91505061108d565b509299919850909650505050505050565b6112be82826128e2565b5050565b600081815260016020908152604091829020600d0180548351818402810184019094528084526060939283018282801561132557602002820191906000526020600020905b81546001600160a01b03168152600190910190602001808311611307575b50505050509050919050565b8061133b60035490565b81111561135b5760405163347626dd60e21b81526004016108b0906155cb565b610f8982612964565b3360008181526002602052604081205490919080156113c657604051630934f2c360e01b815260206004820152601b60248201527f546865726520697320616e20756e706169642070656e616c747921000000000060448201526064016108b0565b6113cf84612bdd565b925060006113f6856101600151670de0b6b3a76400006113ef9190615a3e565b601e611a5b565b90508034101561144b57604080516379d3124b60e01b8152600481019190915260176044820152766572726f72203a20496e636f72726563742076616c756560481b60648201523460248201526084016108b0565b611453610c61565b505050919050565b6000828152600160205260408120600c0180548390811061147e5761147e615af0565b60009182526020909120600b909102016009015460ff169392505050565b600081815260016020908152604091829020600e01805483518184028101840190945280845260609392830182828015611325576020028201919060005260206000209081546001600160a01b031681526001909101906020018083116113075750505050509050919050565b8261151360035490565b8111156115335760405163347626dd60e21b81526004016108b0906155cb565b600061153f858561145b565b9050600681600b81111561155557611555615ada565b11156115975760405163b4644dd960e01b815260206004820152601060248201526f1d5b98589b19481d1bc81cdd589b5a5d60821b60448201526064016108b0565b6115a2858585612c2c565b5050505050565b606060016000838152602001908152602001600020600c01805480602002602001604051908101604052809291908181526020016000905b8282101561184f57600084815260209020604080516101808101909152600b84029091018054829060a082019083908290829061161d90615a74565b80601f016020809104026020016040519081016040528092919081815260200182805461164990615a74565b80156116965780601f1061166b57610100808354040283529160200191611696565b820191906000526020600020905b81548152906001019060200180831161167957829003601f168201915b5050505050815260200160018201548152602001600282015481526020016003820154815260200160048201548152602001600582015481526020016006820180546116e190615a74565b80601f016020809104026020016040519081016040528092919081815260200182805461170d90615a74565b801561175a5780601f1061172f5761010080835404028352916020019161175a565b820191906000526020600020905b81548152906001019060200180831161173d57829003601f168201915b50505050508152505081526020016007820154815260200160088201805461178190615a74565b80601f01602080910402602001604051908101604052809291908181526020018280546117ad90615a74565b80156117fa5780601f106117cf576101008083540402835291602001916117fa565b820191906000526020600020905b8154815290600101906020018083116117dd57829003601f168201915b5050509183525050600982015460209091019060ff16600b81111561182157611821615ada565b600b81111561183257611832615ada565b8152602001600a82015481525050815260200190600101906115e1565b505050509050919050565b61186261491a565b8161186c60035490565b81111561188c5760405163347626dd60e21b81526004016108b0906155cb565b61189583612c38565b91505b50919050565b6118a6611c7f565b6001600160a01b03811661190b5760405162461bcd60e51b815260206004820152602660248201527f4f776e61626c653a206e6577206f776e657220697320746865207a65726f206160448201526564647265737360d01b60648201526084016108b0565b61097d816125fe565b8161191e60035490565b81111561193e5760405163347626dd60e21b81526004016108b0906155cb565b600083815260016020526040902060150154839060ff166119725760405163b4644dd960e01b81526004016108b0906155f7565b3360008181526002602052604090205480156119d157604051630934f2c360e01b815260206004820152601b60248201527f546865726520697320616e20756e706169642070656e616c747921000000000060448201526064016108b0565b6119dc8686336136a3565b7f8e913351aa76002e572cc432b46556976f6e10285b52f94909124ea8ebd0b7958686336001604051610bc694939291906158a7565b611a1c82826139ec565b7f9096640c11bd5636ced741c9725e5ff774b334455c80e15491f15bb3af0bc265338383604051611a4f93929190615428565b60405180910390a15050565b60006064611a698484613c2f565b611a739190615a1c565b9392505050565b60008181526001602052604090819020601501805462ff0000191662050000179055517fdea20a6d822b68d598b7ab4fd45418a7ca7b103f12d300bcc3b56a7b94d9ed3390610d1090839060059033906158e1565b60008215611b4757611ae48686338786613c3b565b6000868152600160205260409020600a0154610100900460ff168015611b1557611b0e8786610eab565b9150611b2a565b6000878152600160205260409020600b015491505b611b3f6113ef83670de0b6b3a7640000615a3e565b915050611b58565b611b548686866001613de2565b5060005b95945050505050565b80471015611bb15760405162461bcd60e51b815260206004820152601e60248201527f5468652062616c616e6365206973206e6f742073756666696369656e742e000060448201526064016108b0565b6000826001600160a01b03168260405160006040518083038185875af1925050503d8060008114611bfe576040519150601f19603f3d011682016040523d82523d6000602084013e611c03565b606091505b5050905080611c425760405162461bcd60e51b815260206004820152600b60248201526a10d85b1b0819985a5b195960aa1b60448201526064016108b0565b604080513081526001600160a01b0385166020820152908101839052600080516020615b3d833981519152906060015b60405180910390a1505050565b6000546001600160a01b03163314610efa5760405162461bcd60e51b815260206004820181905260248201527f4f776e61626c653a2063616c6c6572206973206e6f7420746865206f776e657260448201526064016108b0565b6000736ca0189baf54f88684ed158193021e45745f810e611d0283670de0b6b3a7640000615a3e565b604051600081818185875af1925050503d8060008114611d3e576040519150601f19603f3d011682016040523d82523d6000602084013e611d43565b606091505b5050905080611d825760405162461bcd60e51b815260206004820152600b60248201526a10d85b1b0819985a5b195960aa1b60448201526064016108b0565b604080513081523360208201524791810191909152600080516020615b3d83398151915290606001611a4f565b600060606000611dc185856000610f8e565b81519193509150611dd7576000925050506109a7565b611de685858460046000613fdd565b6000858152600160205260408120600a0154610100900460ff1615611e7a5760005b8351811015611e7457611e1a87612c38565b6101c00151848281518110611e3157611e31615af0565b602002602001015181518110611e4957611e49615af0565b60200260200101516020015182611e609190615a04565b915080611e6c81615aa9565b915050611e08565b50611e8b565b611e8386612c38565b610180015190505b600073__$2753dcdd519b03fd573aecec08c92b1fcb$__634f6ca3ce611eb0846125e4565b6040518263ffffffff1660e01b8152600401611ece91815260200190565b60206040518083038186803b158015611ee657600080fd5b505af4158015611efa573d6000803e3d6000fd5b505050506040513d601f19601f82011682018060405250810190611f1e9190614f2b565b604051639ce5c4bf60e01b8152600481018590526024810182905290915060009073__$2753dcdd519b03fd573aecec08c92b1fcb$__90639ce5c4bf9060440160206040518083038186803b158015611f7657600080fd5b505af4158015611f8a573d6000803e3d6000fd5b505050506040513d601f19601f82011682018060405250810190611fae9190614f2b565b98975050505050505050565b6001600160a01b03821660009081526002602052604081208054839290611fe2908490615a04565b90915550505050565b60008381526001602090815260408083206001600160a01b0385168452601001909152902080546120505760008481526001602081815260408320600e018054928301815583529091200180546001600160a01b0319166001600160a01b0384161790555b6000805b84518110156122c15760016000878152602001908152602001600020600c0185828151811061208557612085615af0565b60200260200101518154811061209d5761209d615af0565b6000918252602082206009600b90920201015460ff16925082600b8111156120c7576120c7615ada565b141561218f576001806000888152602001908152602001600020600c018683815181106120f6576120f6615af0565b60200260200101518154811061210e5761210e615af0565b90600052602060002090600b020160090160006101000a81548160ff0219169083600b81111561214057612140615ada565b0217905550600080516020615b1d8339815191528686838151811061216757612167615af0565b6020026020010151600133604051612182949392919061590c565b60405180910390a161227a565b600282600b8111156121a3576121a3615ada565b141561225f57600360016000888152602001908152602001600020600c018683815181106121d3576121d3615af0565b6020026020010151815481106121eb576121eb615af0565b90600052602060002090600b020160090160006101000a81548160ff0219169083600b81111561221d5761221d615ada565b0217905550600080516020615b1d8339815191528686838151811061224457612244615af0565b6020026020010151600333604051612182949392919061590c565b816040516366f643a560e11b81526004016108b0919061563d565b8260000185828151811061229057612290615af0565b60209081029190910181015182546001810184556000938452919092200155806122b981615aa9565b915050612054565b5060008581526001602052604081206014018054916122df83615aa9565b91905055506122ef856000610f0c565b156115a2576000858152600160209081526040808320601501805461ff001916905580518881529182019290925233918101919091527f89bb035780742b4fe520972847d93db0618abd46516af218e10fd3479347b7e4906060015b60405180910390a15050505050565b6001600160a01b03821660009081526002602052604081208054839290611fe2908490615a5d565b600054600160a01b900460ff16156123d25760405162461bcd60e51b81526020600482015260136024820152722a3432903637b1b59034b9903637b1b5b2b21760691b60448201526064016108b0565b6000805460ff60a01b1916600160a01b1781556040516001600160a01b0384169083908381818185875af1925050503d806000811461242d576040519150601f19603f3d011682016040523d82523d6000602084013e612432565b606091505b50509050806124715760405162461bcd60e51b815260206004820152600b60248201526a10d85b1b0819985a5b195960aa1b60448201526064016108b0565b604080513381526001600160a01b0385166020820152908101839052600080516020615b3d8339815191529060600160405180910390a150506000805460ff60a01b1916905550565b6000606060006124cc85856001610f8e565b815191935091506124e2576000925050506109a7565b6124f185858460046001613fdd565b6000858152600160205260408120600a0154610100900460ff16156125855760005b835181101561257f5761252587612c38565b6101c0015184828151811061253c5761253c615af0565b60200260200101518151811061255457612554615af0565b6020026020010151602001518261256b9190615a04565b91508061257781615aa9565b915050612513565b50612596565b61258e86612c38565b610180015190505b600073__$2753dcdd519b03fd573aecec08c92b1fcb$__634f6ca3ce611eb0846141a9565b80156125d1576125cc8484846141b6565b6125de565b6125de8484846000613de2565b50505050565b60006109a7826024611a5b565b60006109a7826018611a5b565b600080546001600160a01b038381166001600160a01b0319831681178455604051919092169283917f8be0079c531659141344cd1fd0a4f28419497f9722a3daafe3b4186f6b6457e09190a35050565b604051600090736ca0189baf54f88684ed158193021e45745f810e9047908381818185875af1925050503d80600081146126a4576040519150601f19603f3d011682016040523d82523d6000602084013e6126a9565b606091505b50509050806126e85760405162461bcd60e51b815260206004820152600b60248201526a10d85b1b0819985a5b195960aa1b60448201526064016108b0565b604080513081523360208201524791810191909152600080516020615b3d83398151915290606001610d10565b6000818152600160205260408120600d01546000612732846115a9565b905061273f846001610f0c565b1561274e575060019392505050565b816127665761275c846142a2565b5060009392505050565b80518260006127758284615a1c565b90506000612782886112c2565b905060005b85518110156128ca5760008682815181106127a4576127a4615af0565b602002602001015160600151600b8111156127c1576127c1615ada565b14156128b85760005b878110156128b657836127f68b8584815181106127e9576127e9615af0565b6020026020010151610980565b1115612801576128a4565b6128278a8385848151811061281857612818615af0565b602002602001015160016142fc565b7fad65127436138b4afe97ef23baf28ed14a5fb09500ad117eb196cd3bdb3dbe9f8a8385848151811061285c5761285c615af0565b60200260200101516001604051612897949392919093845260208401929092526001600160a01b031660408301521515606082015260800190565b60405180910390a16128b6565b806128ae81615aa9565b9150506127ca565b505b806128c281615aa9565b915050612787565b506128d4886142a2565b506000979650505050505050565b6000828152600160205260409020600c018054600b91908390811061290957612909615af0565b90600052602060002090600b020160090160006101000a81548160ff0219169083600b81111561293b5761293b615ada565b0217905550600080516020615b1d8339815191528282600b33604051611a4f949392919061590c565b600061296e611c7f565b6000828152600160205260408120600e810154600d909101549091612992856115a9565b905061299f856000610f0c565b156129af57506001949350505050565b821580156129bc57508115155b156129d5576129ca856143df565b506000949350505050565b821580156129e1575081155b15612a34576129ef8561443a565b60008581526001602052604081208054600b909101546001600160a01b039091169190612a1b906113ef565b9050612a278282611b61565b5060009695505050505050565b8051836000612a438284615a1c565b90506000612a508961149c565b905060005b8551811015612bbf576000868281518110612a7257612a72615af0565b602002602001015160600151600b811115612a8f57612a8f615ada565b1415612bad5760005b88811015612bab5783612aeb8c858481518110612ab757612ab7615af0565b602002602001015160008281526001602090815260408083206001600160a01b038516845260100190915290205492915050565b1115612af657612b99565b612b1c8b83858481518110612b0d57612b0d615af0565b602002602001015160006142fc565b7fad65127436138b4afe97ef23baf28ed14a5fb09500ad117eb196cd3bdb3dbe9f8b83858481518110612b5157612b51615af0565b60200260200101516000604051612b8c949392919093845260208401929092526001600160a01b031660408301521515606082015260800190565b60405180910390a1612bab565b80612ba381615aa9565b915050612a98565b505b80612bb781615aa9565b915050612a55565b50612bc9896143df565b50600098975050505050505050565b919050565b600080612be9836144f2565b90507f9096640c11bd5636ced741c9725e5ff774b334455c80e15491f15bb3af0bc265338285604051612c1e93929190615428565b60405180910390a192915050565b610f89833384846147b0565b612c4061491a565b612c4861491a565b6000838152600160208181526040832080546001600160a01b03168552808301548583015292869052526002018054612c8090615a74565b80601f0160208091040260200160405190810160405280929190818152602001828054612cac90615a74565b8015612cf95780601f10612cce57610100808354040283529160200191612cf9565b820191906000526020600020905b815481529060010190602001808311612cdc57829003601f168201915b505050506040808401929092525060008481526001602052206003018054612d2090615a74565b80601f0160208091040260200160405190810160405280929190818152602001828054612d4c90615a74565b8015612d995780601f10612d6e57610100808354040283529160200191612d99565b820191906000526020600020905b815481529060010190602001808311612d7c57829003601f168201915b50505050506060820152600083815260016020818152604080842060048101546080870152600581015460a0870152600681015460c087015293879052918152600790920180548251818502810185019093528083529192909190830182828015612e2357602002820191906000526020600020905b815481526020019060010190808311612e0f575b505050505060e0820152600083815260016020818152604083206008810154610100808701919091526009820154610120870152600a82015460ff80821615156101408901529082900481161515610160880152600b830154610180880152601183015461022088015260128301546102408801526013830154610260880152601483015461028088015260159092015480831615156102a0880152908104821615156102c0870152938790529190526102e0830191620100009004166006811115612ef157612ef1615ada565b90816006811115612f0457612f04615ada565b9052506000838152600160209081526040808320600c0180548251818502810185019093528083529193909284015b828210156131a157600084815260209020604080516101808101909152600b84029091018054829060a0820190839082908290612f6f90615a74565b80601f0160208091040260200160405190810160405280929190818152602001828054612f9b90615a74565b8015612fe85780601f10612fbd57610100808354040283529160200191612fe8565b820191906000526020600020905b815481529060010190602001808311612fcb57829003601f168201915b50505050508152602001600182015481526020016002820154815260200160038201548152602001600482015481526020016005820154815260200160068201805461303390615a74565b80601f016020809104026020016040519081016040528092919081815260200182805461305f90615a74565b80156130ac5780601f10613081576101008083540402835291602001916130ac565b820191906000526020600020905b81548152906001019060200180831161308f57829003601f168201915b5050505050815250508152602001600782015481526020016008820180546130d390615a74565b80601f01602080910402602001604051908101604052809291908181526020018280546130ff90615a74565b801561314c5780601f106131215761010080835404028352916020019161314c565b820191906000526020600020905b81548152906001019060200180831161312f57829003601f168201915b5050509183525050600982015460209091019060ff16600b81111561317357613173615ada565b600b81111561318457613184615ada565b8152602001600a8201548152505081526020019060010190612f33565b505050506101c082015260005b6000848152600160205260409020600d0154811015613423576040805180820190915260008152606060208201526000858152600160205260408120600d018054849081106131ff576131ff615af0565b60009182526020822001546001600160a01b031680845291505b60008781526001602090815260408083206001600160a01b0386168452600f019091529020548410156133ea5761324e6149f0565b60008881526001602090815260408083206001600160a01b0387168452600f01909152902080548390811061328557613285615af0565b60009182526020808320909101548352898252600180825260408084206001600160a01b0388168552600f018352808420855185529091018252909120549082019060ff1660048111156132db576132db615ada565b908160048111156132ee576132ee615ada565b90525060008881526001602081815260408084206001600160a01b0388168552600f01825280842085518552830190915290912001805461332e90615a74565b80601f016020809104026020016040519081016040528092919081815260200182805461335a90615a74565b80156133a75780601f1061337c576101008083540402835291602001916133a7565b820191906000526020600020905b81548152906001019060200180831161338a57829003601f168201915b5050505050816040018190525080846020015183815181106133cb576133cb615af0565b60200260200101819052505080806133e290615aa9565b915050613219565b5081846101e00151848151811061340357613403615af0565b60200260200101819052505050808061341b90615aa9565b9150506131ae565b5060005b6000848152600160205260409020600e015481101561369c576040805180820190915260008152606060208201526000858152600160205260408120600e0180548490811061347857613478615af0565b60009182526020822001546001600160a01b031680845291505b60008781526001602090815260408083206001600160a01b0386168452601001909152902054841015613663576134c76149f0565b60008881526001602090815260408083206001600160a01b038716845260100190915290208054839081106134fe576134fe615af0565b60009182526020808320909101548352898252600180825260408084206001600160a01b03881685526010018352808420855185529091018252909120549082019060ff16600481111561355457613554615ada565b9081600481111561356757613567615ada565b90525060008881526001602081815260408084206001600160a01b038816855260100182528084208551855283019091529091200180546135a790615a74565b80601f01602080910402602001604051908101604052809291908181526020018280546135d390615a74565b80156136205780601f106135f557610100808354040283529160200191613620565b820191906000526020600020905b81548152906001019060200180831161360357829003601f168201915b50505050508160400181905250808460200151838151811061364457613644615af0565b602002602001018190525050808061365b90615aa9565b915050613492565b5081846102000151848151811061367c5761367c615af0565b60200260200101819052505050808061369490615aa9565b915050613427565b5092915050565b60008381526001602090815260408083206001600160a01b0385168452600f01909152902080546137085760008481526001602081815260408320600d018054928301815583529091200180546001600160a01b0319166001600160a01b0384161790555b6000805b845181101561395f5760016000878152602001908152602001600020600c0185828151811061373d5761373d615af0565b60200260200101518154811061375557613755615af0565b6000918252602082206009600b90920201015460ff16925082600b81111561377f5761377f615ada565b141561384857600260016000888152602001908152602001600020600c018683815181106137af576137af615af0565b6020026020010151815481106137c7576137c7615af0565b90600052602060002090600b020160090160006101000a81548160ff0219169083600b8111156137f9576137f9615ada565b0217905550600080516020615b1d8339815191528686838151811061382057613820615af0565b602002602001015160023360405161383b949392919061590c565b60405180910390a1613918565b600182600b81111561385c5761385c615ada565b141561225f57600360016000888152602001908152602001600020600c0186838151811061388c5761388c615af0565b6020026020010151815481106138a4576138a4615af0565b90600052602060002090600b020160090160006101000a81548160ff0219169083600b8111156138d6576138d6615ada565b0217905550600080516020615b1d833981519152868683815181106138fd576138fd615af0565b602002602001015160033360405161383b949392919061590c565b8260000185828151811061392e5761392e615af0565b602090810291909101810151825460018101845560009384529190922001558061395781615aa9565b91505061370c565b50600085815260016020526040812060130180549161397d83615aa9565b919050555061398d856001610f0c565b156115a2576000858152600160209081526040808320601501805460ff1916905580518881529182019290925233918101919091527f0398fd552105b0090d73611ad526d12979f19b77a7f923343a85d8fd14a13a679060600161234b565b60008281526001602081815260409092208351918101919091558282015180519192613a2092600285019290910190614a0a565b5060408201518051613a3c916003840191602090910190614a0a565b50606082015160048201556080820151600582015560a0820151600682015560c08201518051613a76916007840191602090910190614a8e565b5060e08201516008820155610100808301516009830155610160830151600b830155610120830151600a8301805461014086015161ffff1990911692151561ff001916929092179115801590930291909117905560158201805462ff0000191662010000179055613af257610180820151516011820155613afa565b600160118201555b60158101805462ff00ff19166201000117905560005b826101800151518110156125de5781600c018361018001518281518110613b3957613b39615af0565b60209081029190910181015182546001810184556000938452928290208151805180519395600b029092019390928492613b77928492910190614a0a565b50602082810151600183015560408301516002830155606083015160038301556080830151600483015560a0830151600583015560c08301518051613bc29260068501920190614a0a565b505050602082810151600783015560408301518051613be79260088501920190614a0a565b50606082015160098201805460ff1916600183600b811115613c0b57613c0b615ada565b0217905550608082015181600a015550508080613c2790615aa9565b915050613b10565b6000611a738284615a3e565b60008581526001602081815260408084206001600160a01b0389168552600f81018352818520878652840190925292839020805460ff1916600390811790915592519092600080516020615b5d83398151915292613ca0928a928a928992339061585f565b60405180910390a1600681600c018481548110613cbf57613cbf615af0565b90600052602060002090600b020160090160006101000a81548160ff0219169083600b811115613cf157613cf1615ada565b0217905550600080516020615b1d8339815191528684600633604051613d1a949392919061590c565b60405180910390a14281600c018481548110613d3857613d38615af0565b60009182526020808320600a600b9093020191909101929092556001600160a01b038616815260108301825260408082208683526001908101845291208451613d8993919092019190850190614a0a565b506001600160a01b038416600090815260108201602090815260408083208684526001908101909252808320805460ff19168317905551600080516020615b5d83398151915292610bc6928a928992899291339061585f565b8015613ee35760008481526001602081815260408084206001600160a01b0388168552600f018252808420868552830190915291829020805460ff191660029081179091559151600080516020615b5d83398151915292613e4c928892889288929091339061585f565b60405180910390a16000848152600160205260409020600c0180546005919084908110613e7b57613e7b615af0565b90600052602060002090600b020160090160006101000a81548160ff0219169083600b811115613ead57613ead615ada565b0217905550600080516020615b1d8339815191528483600533604051613ed6949392919061590c565b60405180910390a16125de565b60008481526001602081815260408084206001600160a01b038816855260100182528084208685529092019052808220805460ff191660029081179091559051600080516020615b5d83398151915292613f459288928892889291339061585f565b60405180910390a16000848152600160205260409020600c0180546007919084908110613f7457613f74615af0565b90600052602060002090600b020160090160006101000a81548160ff0219169083600b811115613fa657613fa6615ada565b0217905550600080516020615b1d8339815191528483600733604051613fcf949392919061590c565b60405180910390a150505050565b80156140c95760005b83518110156140c35760008681526001602081815260408084206001600160a01b038a168552600f01909152822086518693919092019187908590811061402f5761402f615af0565b6020908102919091018101518252810191909152604001600020805460ff1916600183600481111561406357614063615ada565b0217905550600080516020615b5d833981519152868686848151811061408b5761408b615af0565b6020026020010151866001336040516140a99695949392919061585f565b60405180910390a1806140bb81615aa9565b915050613fe6565b506115a2565b60005b835181101561096c5760008681526001602081815260408084206001600160a01b038a168552601001909152822086518693919092019187908590811061411557614115615af0565b6020908102919091018101518252810191909152604001600020805460ff1916600183600481111561414957614149615ada565b0217905550600080516020615b5d833981519152868686848151811061417157614171615af0565b60200260200101518660003360405161418f9695949392919061585f565b60405180910390a1806141a181615aa9565b9150506140cc565b60006109a7826036611a5b565b60008381526001602081815260408084206001600160a01b038716855260100182528084208585529092019052808220805460ff191660039081179091559051600080516020615b5d833981519152926142189287928792879291339061585f565b60405180910390a16000838152600160205260409020600c018054600891908390811061424757614247615af0565b90600052602060002090600b020160090160006101000a81548160ff0219169083600b81111561427957614279615ada565b0217905550600080516020615b1d8339815191528382600833604051611c72949392919061590c565b6000818152600160209081526040808320601501805460ff1916905580518481529182019290925233918101919091527f0398fd552105b0090d73611ad526d12979f19b77a7f923343a85d8fd14a13a6790606001610d10565b60008115614356575060008481526001602081815260408084206001600160a01b0387168552600f8101835281852088865284018352908420888552929091526013018054919261434c83615aa9565b91905055506143a4565b5060008481526001602081815260408084206001600160a01b038716855260108101835281852088865284018352908420888552929091526014018054919261439e83615aa9565b91905055505b505060009283526001602081815260408086206001600160a01b039094168652600f9093018152918420805491820181558452922090910155565b6000818152600160209081526040808320601501805461ff001916905580518481529182019290925233918101919091527f89bb035780742b4fe520972847d93db0618abd46516af218e10fd3479347b7e490606001610d10565b60008181526001602052604090819020601501805462ff0000191662040000179055517fdea20a6d822b68d598b7ab4fd45418a7ca7b103f12d300bcc3b56a7b94d9ed339061448f90839060049033906158e1565b60405180910390a16000818152600160209081526040808320601501805461ff001916905580518481529182019290925233918101919091527f0398fd552105b0090d73611ad526d12979f19b77a7f923343a85d8fd14a13a6790606001610d10565b600380546000918261450383615aa9565b9091555050600354600090815260016020818152604090922080546001600160a01b03191633178155845191810191909155838201518051919261454f92600285019290910190614a0a565b506040830151805161456b916003840191602090910190614a0a565b50606083015160048201556080830151600582015560a0830151600682015560c083015180516145a5916007840191602090910190614a8e565b5060e08301516008820155610100808401516009830155610160840151600b830155610120840151600a8301805461014087015115801590940261ff00199315159390931661ffff19909116179190911790556146145761018083015151601182018190556012820155614623565b60016011820181905560128201555b60158101805462ffffff19166201010117905560005b836101800151518110156147a5576000846101800151828151811061466057614660615af0565b602002602001015160600190600b81111561467d5761467d615ada565b9081600b81111561469057614690615ada565b8152505081600c0184610180015182815181106146af576146af615af0565b60209081029190910181015182546001810184556000938452928290208151805180519395600b0290920193909284926146ed928492910190614a0a565b50602082810151600183015560408301516002830155606083015160038301556080830151600483015560a0830151600583015560c083015180516147389260068501920190614a0a565b50505060208281015160078301556040830151805161475d9260088501920190614a0a565b50606082015160098201805460ff1916600183600b81111561478157614781615ada565b0217905550608082015181600a01555050808061479d90615aa9565b915050614639565b505060035492915050565b6000848152600160205260409020600c8101805460049190859081106147d8576147d8615af0565b90600052602060002090600b020160090160006101000a81548160ff0219169083600b81111561480a5761480a615ada565b0217905550600080516020615b1d8339815191528584600433604051614833949392919061590c565b60405180910390a14281600c01848154811061485157614851615af0565b60009182526020808320600a600b9093020191909101929092556001600160a01b0386168152600f83018252604080822086835260019081018452912084516148a293919092019190850190614a0a565b506001600160a01b0384166000908152600f820160209081526040808320868452600190810190925291829020805460ff1916821790559051600080516020615b5d8339815191529161234b91889188918891908190339061585f565b604080518082019091528060005b8152602001606081525090565b60405180610300016040528060006001600160a01b03168152602001600081526020016060815260200160608152602001600081526020016000815260200160008152602001606081526020016000815260200160008152602001600015158152602001600015158152602001600081526020016060815260200160608152602001606081526020016060815260200160008152602001600081526020016000815260200160008152602001600015158152602001600015158152602001600060068111156149eb576149eb615ada565b905290565b60408051606081019091526000808252602082019061490d565b828054614a1690615a74565b90600052602060002090601f016020900481019282614a385760008555614a7e565b82601f10614a5157805160ff1916838001178555614a7e565b82800160010185558215614a7e579182015b82811115614a7e578251825591602001919060010190614a63565b50614a8a929150614ac8565b5090565b828054828255906000526020600020908101928215614a7e5791602002820182811115614a7e578251825591602001919060010190614a63565b5b80821115614a8a5760008155600101614ac9565b80356001600160a01b0381168114612bd857600080fd5b600082601f830112614b0557600080fd5b6020614b19614b1484356159e0565b6159af565b808435825282820191508285018684873560051b8801011115614b3b57600080fd5b60005b8635811015614c8c5767ffffffffffffffff8083351115614b5e57600080fd5b82358801601f1960a0828c0382011215614b7757600080fd5b614b7f61593f565b8883013584811115614b9057600080fd5b830160e0818e0384011215614ba457600080fd5b614bac615968565b9250848a8201351115614bbe57600080fd5b614bcf8d8b8c840135840101614d24565b835260408101358a840152606081013560408401526080810135606084015260a0810135608084015260c081013560a084015260e081013585811115614c1457600080fd5b614c228e8c83850101614d24565b60c0850152505090815260408201358882015260608201359083821115614c4857600080fd5b614c568c8a84860101614d24565b6040820152614c6760808401614d15565b606082015260a092909201356080830152508552509284019290840190600101614b3e565b50909695505050505050565b600082601f830112614ca957600080fd5b81356020614cb9614b14836159e0565b80838252828201915082860187848660051b8901011115614cd957600080fd5b60005b85811015614cf857813584529284019290840190600101614cdc565b5090979650505050505050565b80358015158114612bd857600080fd5b8035600c8110612bd857600080fd5b600082601f830112614d3557600080fd5b813567ffffffffffffffff811115614d4f57614d4f615b06565b614d62601f8201601f19166020016159af565b818152846020838601011115614d7757600080fd5b816020850160208301376000918101602001919091529392505050565b60006101a08284031215614da757600080fd5b614daf61598b565b905081358152602082013567ffffffffffffffff80821115614dd057600080fd5b614ddc85838601614d24565b60208401526040840135915080821115614df557600080fd5b614e0185838601614d24565b6040840152606084013560608401526080840135608084015260a084013560a084015260c0840135915080821115614e3857600080fd5b614e4485838601614c98565b60c084015260e0848101359084015261010080850135908401526101209150614e6e828501614d05565b828401526101409150614e82828501614d05565b828401526101609150818401358284015261018091508184013581811115614ea957600080fd5b614eb586828701614af4565b8385015250505092915050565b600060208284031215614ed457600080fd5b611a7382614add565b600060208284031215614eef57600080fd5b813567ffffffffffffffff811115614f0657600080fd5b610abb84828501614d94565b600060208284031215614f2457600080fd5b5035919050565b600060208284031215614f3d57600080fd5b5051919050565b60008060408385031215614f5757600080fd5b82359150614f6760208401614add565b90509250929050565b600080600060608486031215614f8557600080fd5b83359250614f9560208501614add565b9150614fa360408501614d05565b90509250925092565b600080600080600060a08688031215614fc457600080fd5b85359450614fd460208701614add565b935060408601359250614fe960608701614d05565b9150614ff760808701614add565b90509295509295909350565b600080600080600060a0868803121561501b57600080fd5b8535945061502b60208701614add565b93506040860135925061504060608701614d05565b9150608086013567ffffffffffffffff81111561505c57600080fd5b61506888828901614d24565b9150509295509295909350565b6000806040838503121561508857600080fd5b82359150602083013567ffffffffffffffff8111156150a657600080fd5b6150b285828601614c98565b9150509250929050565b600080604083850312156150cf57600080fd5b82359150614f6760208401614d05565b600080604083850312156150f257600080fd5b82359150602083013567ffffffffffffffff81111561511057600080fd5b6150b285828601614d94565b6000806040838503121561512f57600080fd5b50508035926020909101359150565b60008060006060848603121561515357600080fd5b8335925060208401359150604084013567ffffffffffffffff81111561517857600080fd5b61518486828701614d24565b9150509250925092565b600081518084526020808501808196508360051b8101915082860160005b858110156151fe5782840389528151606081518652868201516151d1888801826153cb565b506040918201519186018190526151ea868201836153db565b9a87019a95505050908401906001016151ac565b5091979650505050505050565b600081518084526020808501808196508360051b8101915082860160005b858110156151fe578284038952815180516001600160a01b03168552850151604086860181905261525c8187018361518e565b9a87019a9550505090840190600101615229565b600081518084526020808501808196508360051b8101915082860160005b858110156151fe578284038952815160a08151818752805160e080848a01526152bb6101808a01836153db565b91508983015160c081818c01526040915081850151838c015260609250828501516101008c01526080808601516101208d0152868601516101408d0152818601519650609f198c8603016101608d015261531585886153db565b96508c8801518d8d01528288015195508b8703838d015261533687876153db565b965083880151955061534a848d01876153a7565b968701519a90960199909952505050998601999450509084019060010161528e565b600081518084526020808501945080840160005b8381101561539c57815187529582019590820190600101615380565b509495945050505050565b600c81106153b7576153b7615ada565b9052565b600781106153b7576153b7615ada565b600581106153b7576153b7615ada565b6000815180845260005b81811015615401576020818501810151868301820152016153e5565b81811115615413576000602083870101525b50601f01601f19169290920160200192915050565b6001600160a01b03841681528260208201526060604082015281516060820152600060208301516101a08060808501526154666102008501836153db565b91506040850151605f19808685030160a087015261548484836153db565b9350606087015160c0870152608087015160e087015260a08701519150610100828188015260c088015192506101208288870301818901526154c6868561536c565b60e08a01516101408a810191909152928a0151610160808b0191909152918a0151909650935090610180906154fe828a018615159052565b8901511515948801949094528701516101c0870152918601518584039092016101e08601525061552e8282615270565b979650505050505050565b6020808252825182820181905260009190848201906040850190845b81811015614c8c5783516001600160a01b031683529284019291840191600101615555565b602081526000611a736020830184615270565b6040815260006155a0604083018561536c565b90508260208301529392505050565b602081016109a782846153a7565b602081016109a782846153bb565b60208082526012908201527157726f6e6720696e6465782076616c75652160701b604082015260600190565b60208082526026908201527f4f7065726174696f6e457863657074696f6e3a2043616e27742072656365697660408201526565207461736b60d01b606082015260800190565b60408082526010908201526f4572726f722066696c6520737461746560801b6060820152608081016109a760208301846153a7565b6020815261568c6020820183516001600160a01b03169052565b60208201516040820152600060408301516103008060608501526156b46103208501836153db565b91506060850151601f19808685030160808701526156d284836153db565b9350608087015160a087015260a087015160c087015260c087015160e087015260e0870151915061010081878603018188015261570f858461536c565b90880151610120888101919091528801516101408089019190915288015190945091506101606157428188018415159052565b87015191506101806157578782018415159052565b808801519250506101a08281880152808801519250506101c0818786030181880152615783858461518e565b9450808801519250506101e08187860301818801526157a28584615270565b9450808801519250506102008187860301818801526157c1858461520b565b9450808801519250506102208187860301818801526157e0858461520b565b908801516102408881019190915288015161026080890191909152880151610280808901919091528801516102a08089019190915288015190945091506102c0905061582f8187018315159052565b86015190506102e06158448682018315159052565b8601519050615855858301826153bb565b5090949350505050565b8681526001600160a01b0386811660208301526040820186905260c082019061588b60608401876153cb565b841515608084015280841660a084015250979650505050505050565b8481526080602082015260006158c0608083018661536c565b6001600160a01b039490941660408301525090151560609091015292915050565b838152606081016158f560208301856153bb565b6001600160a01b0383166040830152949350505050565b848152602081018490526080810161592760408301856153a7565b6001600160a01b038316606083015295945050505050565b60405160a0810167ffffffffffffffff8111828210171561596257615962615b06565b60405290565b60405160e0810167ffffffffffffffff8111828210171561596257615962615b06565b6040516101a0810167ffffffffffffffff8111828210171561596257615962615b06565b604051601f8201601f1916810167ffffffffffffffff811182821017156159d8576159d8615b06565b604052919050565b600067ffffffffffffffff8211156159fa576159fa615b06565b5060051b60200190565b60008219821115615a1757615a17615ac4565b500190565b600082615a3957634e487b7160e01b600052601260045260246000fd5b500490565b6000816000190483118215151615615a5857615a58615ac4565b500290565b600082821015615a6f57615a6f615ac4565b500390565b600181811c90821680615a8857607f821691505b6020821081141561189857634e487b7160e01b600052602260045260246000fd5b6000600019821415615abd57615abd615ac4565b5060010190565b634e487b7160e01b600052601160045260246000fd5b634e487b7160e01b600052602160045260246000fd5b634e487b7160e01b600052603260045260246000fd5b634e487b7160e01b600052604160045260246000fdfe188fff7234f3bb35c4f436313ec14267725515e4ca367843cd416621a72fb8a3b37bd6f3ccfce130859d4569dc432409f423a7928e73eb5c5049a94e40f0c6484b906571b20f3dcdf826b53f3c66528e252b2eb87de3cb812f18e6859e119344a2646970667358221220fedc19b46ce5128f9fabcdbd64fb6bc2b49cdc58079fbae5d3454b6f57890de964736f6c63430008070033",
			"opcodes": "PUSH1 0x80 PUSH1 0x40 MSTORE CALLVALUE DUP1 ISZERO PUSH3 0x11 JUMPI PUSH1 0x0 DUP1 REVERT JUMPDEST POP PUSH3 0x1D CALLER PUSH3 0x23 JUMP JUMPDEST PUSH3 0x73 JUMP JUMPDEST PUSH1 0x0 DUP1 SLOAD PUSH1 0x1 PUSH1 0x1 PUSH1 0xA0 SHL SUB DUP4 DUP2 AND PUSH1 0x1 PUSH1 0x1 PUSH1 0xA0 SHL SUB NOT DUP4 AND DUP2 OR DUP5 SSTORE PUSH1 0x40 MLOAD SWAP2 SWAP1 SWAP3 AND SWAP3 DUP4 SWAP2 PUSH32 0x8BE0079C531659141344CD1FD0A4F28419497F9722A3DAAFE3B4186F6B6457E0 SWAP2 SWAP1 LOG3 POP POP JUMP JUMPDEST PUSH2 0x5BB2 DUP1 PUSH3 0x83 PUSH1 0x0 CODECOPY PUSH1 0x0 RETURN INVALID PUSH1 0x80 PUSH1 0x40 MSTORE PUSH1 0x4 CALLDATASIZE LT PUSH2 0x23F JUMPI PUSH1 0x0 CALLDATALOAD PUSH1 0xE0 SHR DUP1 PUSH4 0x8A9A9FF3 GT PUSH2 0x13A JUMPI DUP1 PUSH4 0xAD607C72 GT PUSH2 0xBD JUMPI DUP1 PUSH4 0xD2FED69C GT PUSH2 0x84 JUMPI DUP1 PUSH4 0xF8626EBB GT PUSH2 0x61 JUMPI DUP1 PUSH4 0xF8626EBB EQ PUSH2 0x7BF JUMPI DUP1 PUSH4 0xFA4C6473 EQ PUSH2 0x7EF JUMPI DUP1 PUSH4 0xFFCCE776 EQ PUSH2 0x80F JUMPI STOP JUMPDEST DUP1 PUSH4 0xD2FED69C EQ PUSH2 0x739 JUMPI DUP1 PUSH4 0xD3D7BC3B EQ PUSH2 0x769 JUMPI DUP1 PUSH4 0xF2FDE38B EQ PUSH2 0x79F JUMPI STOP JUMPDEST DUP1 PUSH4 0xAD607C72 EQ PUSH2 0x672 JUMPI DUP1 PUSH4 0xB647EEC3 EQ PUSH2 0x69F JUMPI DUP1 PUSH4 0xBB0C38C0 EQ PUSH2 0x6BF JUMPI DUP1 PUSH4 0xCF8F4BE2 EQ PUSH2 0x6DF JUMPI DUP1 PUSH4 0xD1A1B999 EQ PUSH2 0x70C JUMPI STOP JUMPDEST DUP1 PUSH4 0x97601EFB GT PUSH2 0x101 JUMPI DUP1 PUSH4 0x97601EFB EQ PUSH2 0x5DD JUMPI DUP1 PUSH4 0x983A12A8 EQ PUSH2 0x5FD JUMPI DUP1 PUSH4 0xA55AF701 EQ PUSH2 0x62A JUMPI DUP1 PUSH4 0xA87D942C EQ PUSH2 0x64A JUMPI DUP1 PUSH4 0xAC35CD61 EQ PUSH2 0x65F JUMPI STOP JUMPDEST DUP1 PUSH4 0x8A9A9FF3 EQ PUSH2 0x51E JUMPI DUP1 PUSH4 0x8ADC74A5 EQ PUSH2 0x53E JUMPI DUP1 PUSH4 0x8B3F3A6F EQ PUSH2 0x55E JUMPI DUP1 PUSH4 0x8DA5CB5B EQ PUSH2 0x58C JUMPI DUP1 PUSH4 0x9722F099 EQ PUSH2 0x5AA JUMPI STOP JUMPDEST DUP1 PUSH4 0x546677AA GT PUSH2 0x1C2 JUMPI DUP1 PUSH4 0x6E973982 GT PUSH2 0x189 JUMPI DUP1 PUSH4 0x6E973982 EQ PUSH2 0x445 JUMPI DUP1 PUSH4 0x715018A6 EQ PUSH2 0x475 JUMPI DUP1 PUSH4 0x790485F9 EQ PUSH2 0x48A JUMPI DUP1 PUSH4 0x7C34EB85 EQ PUSH2 0x4D1 JUMPI DUP1 PUSH4 0x853828B6 EQ PUSH2 0x509 JUMPI STOP JUMPDEST DUP1 PUSH4 0x546677AA EQ PUSH2 0x35C JUMPI DUP1 PUSH4 0x5B0EF140 EQ PUSH2 0x3A4 JUMPI DUP1 PUSH4 0x5BF608B8 EQ PUSH2 0x3C4 JUMPI DUP1 PUSH4 0x627A62F3 EQ PUSH2 0x412 JUMPI DUP1 PUSH4 0x64A1ED07 EQ PUSH2 0x425 JUMPI STOP JUMPDEST DUP1 PUSH4 0x2E1A7D4D GT PUSH2 0x206 JUMPI DUP1 PUSH4 0x2E1A7D4D EQ PUSH2 0x2E1 JUMPI DUP1 PUSH4 0x36D61AE0 EQ PUSH2 0x301 JUMPI DUP1 PUSH4 0x3BD14E13 EQ PUSH2 0x321 JUMPI DUP1 PUSH4 0x3EDFA229 EQ PUSH2 0x341 JUMPI DUP1 PUSH4 0x460968DD EQ PUSH2 0x354 JUMPI STOP JUMPDEST DUP1 PUSH4 0x9A02F58 EQ PUSH2 0x248 JUMPI DUP1 PUSH4 0x1201DFC6 EQ PUSH2 0x25B JUMPI DUP1 PUSH4 0x193620E7 EQ PUSH2 0x27B JUMPI DUP1 PUSH4 0x22968885 EQ PUSH2 0x2AE JUMPI DUP1 PUSH4 0x243634BF EQ PUSH2 0x2C1 JUMPI STOP JUMPDEST CALLDATASIZE PUSH2 0x246 JUMPI STOP JUMPDEST STOP JUMPDEST PUSH2 0x246 PUSH2 0x256 CALLDATASIZE PUSH1 0x4 PUSH2 0x50DF JUMP JUMPDEST PUSH2 0x855 JUMP JUMPDEST CALLVALUE DUP1 ISZERO PUSH2 0x267 JUMPI PUSH1 0x0 DUP1 REVERT JUMPDEST POP PUSH2 0x246 PUSH2 0x276 CALLDATASIZE PUSH1 0x4 PUSH2 0x4F12 JUMP JUMPDEST PUSH2 0x974 JUMP JUMPDEST CALLVALUE DUP1 ISZERO PUSH2 0x287 JUMPI PUSH1 0x0 DUP1 REVERT JUMPDEST POP PUSH2 0x29B PUSH2 0x296 CALLDATASIZE PUSH1 0x4 PUSH2 0x4F44 JUMP JUMPDEST PUSH2 0x980 JUMP JUMPDEST PUSH1 0x40 MLOAD SWAP1 DUP2 MSTORE PUSH1 0x20 ADD JUMPDEST PUSH1 0x40 MLOAD DUP1 SWAP2 SUB SWAP1 RETURN JUMPDEST CALLVALUE DUP1 ISZERO PUSH2 0x2BA JUMPI PUSH1 0x0 DUP1 REVERT JUMPDEST POP SELFBALANCE PUSH2 0x29B JUMP JUMPDEST CALLVALUE DUP1 ISZERO PUSH2 0x2CD JUMPI PUSH1 0x0 DUP1 REVERT JUMPDEST POP PUSH2 0x246 PUSH2 0x2DC CALLDATASIZE PUSH1 0x4 PUSH2 0x5003 JUMP JUMPDEST PUSH2 0x9AD JUMP JUMPDEST CALLVALUE DUP1 ISZERO PUSH2 0x2ED JUMPI PUSH1 0x0 DUP1 REVERT JUMPDEST POP PUSH2 0x246 PUSH2 0x2FC CALLDATASIZE PUSH1 0x4 PUSH2 0x4F12 JUMP JUMPDEST PUSH2 0xA66 JUMP JUMPDEST CALLVALUE DUP1 ISZERO PUSH2 0x30D JUMPI PUSH1 0x0 DUP1 REVERT JUMPDEST POP PUSH2 0x29B PUSH2 0x31C CALLDATASIZE PUSH1 0x4 PUSH2 0x4F44 JUMP JUMPDEST PUSH2 0xA77 JUMP JUMPDEST CALLVALUE DUP1 ISZERO PUSH2 0x32D JUMPI PUSH1 0x0 DUP1 REVERT JUMPDEST POP PUSH2 0x246 PUSH2 0x33C CALLDATASIZE PUSH1 0x4 PUSH2 0x5075 JUMP JUMPDEST PUSH2 0xAC3 JUMP JUMPDEST PUSH2 0x246 PUSH2 0x34F CALLDATASIZE PUSH1 0x4 PUSH2 0x4EC2 JUMP JUMPDEST PUSH2 0xBD6 JUMP JUMPDEST PUSH2 0x246 PUSH2 0xC61 JUMP JUMPDEST CALLVALUE DUP1 ISZERO PUSH2 0x368 JUMPI PUSH1 0x0 DUP1 REVERT JUMPDEST POP PUSH2 0x394 PUSH2 0x377 CALLDATASIZE PUSH1 0x4 PUSH2 0x4F12 JUMP JUMPDEST PUSH1 0x0 SWAP1 DUP2 MSTORE PUSH1 0x1 PUSH1 0x20 MSTORE PUSH1 0x40 SWAP1 KECCAK256 PUSH1 0x15 ADD SLOAD PUSH2 0x100 SWAP1 DIV PUSH1 0xFF AND SWAP1 JUMP JUMPDEST PUSH1 0x40 MLOAD SWAP1 ISZERO ISZERO DUP2 MSTORE PUSH1 0x20 ADD PUSH2 0x2A5 JUMP JUMPDEST CALLVALUE DUP1 ISZERO PUSH2 0x3B0 JUMPI PUSH1 0x0 DUP1 REVERT JUMPDEST POP PUSH2 0x29B PUSH2 0x3BF CALLDATASIZE PUSH1 0x4 PUSH2 0x4F44 JUMP JUMPDEST PUSH2 0xD1B JUMP JUMPDEST CALLVALUE DUP1 ISZERO PUSH2 0x3D0 JUMPI PUSH1 0x0 DUP1 REVERT JUMPDEST POP PUSH2 0x3FA PUSH2 0x3DF CALLDATASIZE PUSH1 0x4 PUSH2 0x4F12 JUMP JUMPDEST PUSH1 0x0 SWAP1 DUP2 MSTORE PUSH1 0x1 PUSH1 0x20 MSTORE PUSH1 0x40 SWAP1 KECCAK256 SLOAD PUSH1 0x1 PUSH1 0x1 PUSH1 0xA0 SHL SUB AND SWAP1 JUMP JUMPDEST PUSH1 0x40 MLOAD PUSH1 0x1 PUSH1 0x1 PUSH1 0xA0 SHL SUB SWAP1 SWAP2 AND DUP2 MSTORE PUSH1 0x20 ADD PUSH2 0x2A5 JUMP JUMPDEST PUSH2 0x246 PUSH2 0x420 CALLDATASIZE PUSH1 0x4 PUSH2 0x4FAC JUMP JUMPDEST PUSH2 0xD53 JUMP JUMPDEST CALLVALUE DUP1 ISZERO PUSH2 0x431 JUMPI PUSH1 0x0 DUP1 REVERT JUMPDEST POP PUSH2 0x29B PUSH2 0x440 CALLDATASIZE PUSH1 0x4 PUSH2 0x511C JUMP JUMPDEST PUSH2 0xEAB JUMP JUMPDEST CALLVALUE DUP1 ISZERO PUSH2 0x451 JUMPI PUSH1 0x0 DUP1 REVERT JUMPDEST POP PUSH2 0x29B PUSH2 0x460 CALLDATASIZE PUSH1 0x4 PUSH2 0x4F12 JUMP JUMPDEST PUSH1 0x0 SWAP1 DUP2 MSTORE PUSH1 0x1 PUSH1 0x20 MSTORE PUSH1 0x40 SWAP1 KECCAK256 PUSH1 0xB ADD SLOAD SWAP1 JUMP JUMPDEST CALLVALUE DUP1 ISZERO PUSH2 0x481 JUMPI PUSH1 0x0 DUP1 REVERT JUMPDEST POP PUSH2 0x246 PUSH2 0xEE8 JUMP JUMPDEST CALLVALUE DUP1 ISZERO PUSH2 0x496 JUMPI PUSH1 0x0 DUP1 REVERT JUMPDEST POP PUSH2 0x29B PUSH2 0x4A5 CALLDATASIZE PUSH1 0x4 PUSH2 0x4F44 JUMP JUMPDEST PUSH1 0x0 DUP3 DUP2 MSTORE PUSH1 0x1 PUSH1 0x20 SWAP1 DUP2 MSTORE PUSH1 0x40 DUP1 DUP4 KECCAK256 PUSH1 0x1 PUSH1 0x1 PUSH1 0xA0 SHL SUB DUP6 AND DUP5 MSTORE PUSH1 0x10 ADD SWAP1 SWAP2 MSTORE SWAP1 KECCAK256 SLOAD SWAP3 SWAP2 POP POP JUMP JUMPDEST CALLVALUE DUP1 ISZERO PUSH2 0x4DD JUMPI PUSH1 0x0 DUP1 REVERT JUMPDEST POP PUSH2 0x394 PUSH2 0x4EC CALLDATASIZE PUSH1 0x4 PUSH2 0x4F12 JUMP JUMPDEST PUSH1 0x0 SWAP1 DUP2 MSTORE PUSH1 0x1 PUSH1 0x20 MSTORE PUSH1 0x40 SWAP1 KECCAK256 PUSH1 0xA ADD SLOAD PUSH2 0x100 SWAP1 DIV PUSH1 0xFF AND SWAP1 JUMP JUMPDEST CALLVALUE DUP1 ISZERO PUSH2 0x515 JUMPI PUSH1 0x0 DUP1 REVERT JUMPDEST POP PUSH2 0x246 PUSH2 0xEFC JUMP JUMPDEST CALLVALUE DUP1 ISZERO PUSH2 0x52A JUMPI PUSH1 0x0 DUP1 REVERT JUMPDEST POP PUSH2 0x394 PUSH2 0x539 CALLDATASIZE PUSH1 0x4 PUSH2 0x50BC JUMP JUMPDEST PUSH2 0xF0C JUMP JUMPDEST CALLVALUE DUP1 ISZERO PUSH2 0x54A JUMPI PUSH1 0x0 DUP1 REVERT JUMPDEST POP PUSH2 0x246 PUSH2 0x559 CALLDATASIZE PUSH1 0x4 PUSH2 0x4F12 JUMP JUMPDEST PUSH2 0xF56 JUMP JUMPDEST CALLVALUE DUP1 ISZERO PUSH2 0x56A JUMPI PUSH1 0x0 DUP1 REVERT JUMPDEST POP PUSH2 0x57E PUSH2 0x579 CALLDATASIZE PUSH1 0x4 PUSH2 0x4F70 JUMP JUMPDEST PUSH2 0xF8E JUMP JUMPDEST PUSH1 0x40 MLOAD PUSH2 0x2A5 SWAP3 SWAP2 SWAP1 PUSH2 0x558D JUMP JUMPDEST CALLVALUE DUP1 ISZERO PUSH2 0x598 JUMPI PUSH1 0x0 DUP1 REVERT JUMPDEST POP PUSH1 0x0 SLOAD PUSH1 0x1 PUSH1 0x1 PUSH1 0xA0 SHL SUB AND PUSH2 0x3FA JUMP JUMPDEST CALLVALUE DUP1 ISZERO PUSH2 0x5B6 JUMPI PUSH1 0x0 DUP1 REVERT JUMPDEST POP PUSH2 0x394 PUSH2 0x5C5 CALLDATASIZE PUSH1 0x4 PUSH2 0x4F12 JUMP JUMPDEST PUSH1 0x0 SWAP1 DUP2 MSTORE PUSH1 0x1 PUSH1 0x20 MSTORE PUSH1 0x40 SWAP1 KECCAK256 PUSH1 0x15 ADD SLOAD PUSH1 0xFF AND SWAP1 JUMP JUMPDEST CALLVALUE DUP1 ISZERO PUSH2 0x5E9 JUMPI PUSH1 0x0 DUP1 REVERT JUMPDEST POP PUSH2 0x246 PUSH2 0x5F8 CALLDATASIZE PUSH1 0x4 PUSH2 0x511C JUMP JUMPDEST PUSH2 0x12B4 JUMP JUMPDEST CALLVALUE DUP1 ISZERO PUSH2 0x609 JUMPI PUSH1 0x0 DUP1 REVERT JUMPDEST POP PUSH2 0x61D PUSH2 0x618 CALLDATASIZE PUSH1 0x4 PUSH2 0x4F12 JUMP JUMPDEST PUSH2 0x12C2 JUMP JUMPDEST PUSH1 0x40 MLOAD PUSH2 0x2A5 SWAP2 SWAP1 PUSH2 0x5539 JUMP JUMPDEST CALLVALUE DUP1 ISZERO PUSH2 0x636 JUMPI PUSH1 0x0 DUP1 REVERT JUMPDEST POP PUSH2 0x246 PUSH2 0x645 CALLDATASIZE PUSH1 0x4 PUSH2 0x4F12 JUMP JUMPDEST PUSH2 0x1331 JUMP JUMPDEST CALLVALUE DUP1 ISZERO PUSH2 0x656 JUMPI PUSH1 0x0 DUP1 REVERT JUMPDEST POP PUSH1 0x3 SLOAD PUSH2 0x29B JUMP JUMPDEST PUSH2 0x29B PUSH2 0x66D CALLDATASIZE PUSH1 0x4 PUSH2 0x4EDD JUMP JUMPDEST PUSH2 0x1364 JUMP JUMPDEST CALLVALUE DUP1 ISZERO PUSH2 0x67E JUMPI PUSH1 0x0 DUP1 REVERT JUMPDEST POP PUSH2 0x692 PUSH2 0x68D CALLDATASIZE PUSH1 0x4 PUSH2 0x511C JUMP JUMPDEST PUSH2 0x145B JUMP JUMPDEST PUSH1 0x40 MLOAD PUSH2 0x2A5 SWAP2 SWAP1 PUSH2 0x55AF JUMP JUMPDEST CALLVALUE DUP1 ISZERO PUSH2 0x6AB JUMPI PUSH1 0x0 DUP1 REVERT JUMPDEST POP PUSH2 0x61D PUSH2 0x6BA CALLDATASIZE PUSH1 0x4 PUSH2 0x4F12 JUMP JUMPDEST PUSH2 0x149C JUMP JUMPDEST CALLVALUE DUP1 ISZERO PUSH2 0x6CB JUMPI PUSH1 0x0 DUP1 REVERT JUMPDEST POP PUSH2 0x246 PUSH2 0x6DA CALLDATASIZE PUSH1 0x4 PUSH2 0x513E JUMP JUMPDEST PUSH2 0x1509 JUMP JUMPDEST CALLVALUE DUP1 ISZERO PUSH2 0x6EB JUMPI PUSH1 0x0 DUP1 REVERT JUMPDEST POP PUSH2 0x6FF PUSH2 0x6FA CALLDATASIZE PUSH1 0x4 PUSH2 0x4F12 JUMP JUMPDEST PUSH2 0x15A9 JUMP JUMPDEST PUSH1 0x40 MLOAD PUSH2 0x2A5 SWAP2 SWAP1 PUSH2 0x557A JUMP JUMPDEST CALLVALUE DUP1 ISZERO PUSH2 0x718 JUMPI PUSH1 0x0 DUP1 REVERT JUMPDEST POP PUSH2 0x72C PUSH2 0x727 CALLDATASIZE PUSH1 0x4 PUSH2 0x4F12 JUMP JUMPDEST PUSH2 0x185A JUMP JUMPDEST PUSH1 0x40 MLOAD PUSH2 0x2A5 SWAP2 SWAP1 PUSH2 0x5672 JUMP JUMPDEST CALLVALUE DUP1 ISZERO PUSH2 0x745 JUMPI PUSH1 0x0 DUP1 REVERT JUMPDEST POP PUSH2 0x29B PUSH2 0x754 CALLDATASIZE PUSH1 0x4 PUSH2 0x4F12 JUMP JUMPDEST PUSH1 0x0 SWAP1 DUP2 MSTORE PUSH1 0x1 PUSH1 0x20 MSTORE PUSH1 0x40 SWAP1 KECCAK256 PUSH1 0xD ADD SLOAD SWAP1 JUMP JUMPDEST CALLVALUE DUP1 ISZERO PUSH2 0x775 JUMPI PUSH1 0x0 DUP1 REVERT JUMPDEST POP PUSH2 0x29B PUSH2 0x784 CALLDATASIZE PUSH1 0x4 PUSH2 0x4EC2 JUMP JUMPDEST PUSH1 0x1 PUSH1 0x1 PUSH1 0xA0 SHL SUB AND PUSH1 0x0 SWAP1 DUP2 MSTORE PUSH1 0x2 PUSH1 0x20 MSTORE PUSH1 0x40 SWAP1 KECCAK256 SLOAD SWAP1 JUMP JUMPDEST CALLVALUE DUP1 ISZERO PUSH2 0x7AB JUMPI PUSH1 0x0 DUP1 REVERT JUMPDEST POP PUSH2 0x246 PUSH2 0x7BA CALLDATASIZE PUSH1 0x4 PUSH2 0x4EC2 JUMP JUMPDEST PUSH2 0x189E JUMP JUMPDEST CALLVALUE DUP1 ISZERO PUSH2 0x7CB JUMPI PUSH1 0x0 DUP1 REVERT JUMPDEST POP PUSH2 0x29B PUSH2 0x7DA CALLDATASIZE PUSH1 0x4 PUSH2 0x4F12 JUMP JUMPDEST PUSH1 0x0 SWAP1 DUP2 MSTORE PUSH1 0x1 PUSH1 0x20 MSTORE PUSH1 0x40 SWAP1 KECCAK256 PUSH1 0xE ADD SLOAD SWAP1 JUMP JUMPDEST CALLVALUE DUP1 ISZERO PUSH2 0x7FB JUMPI PUSH1 0x0 DUP1 REVERT JUMPDEST POP PUSH2 0x246 PUSH2 0x80A CALLDATASIZE PUSH1 0x4 PUSH2 0x5075 JUMP JUMPDEST PUSH2 0x1914 JUMP JUMPDEST CALLVALUE DUP1 ISZERO PUSH2 0x81B JUMPI PUSH1 0x0 DUP1 REVERT JUMPDEST POP PUSH2 0x848 PUSH2 0x82A CALLDATASIZE PUSH1 0x4 PUSH2 0x4F12 JUMP JUMPDEST PUSH1 0x0 SWAP1 DUP2 MSTORE PUSH1 0x1 PUSH1 0x20 MSTORE PUSH1 0x40 SWAP1 KECCAK256 PUSH1 0x15 ADD SLOAD PUSH3 0x10000 SWAP1 DIV PUSH1 0xFF AND SWAP1 JUMP JUMPDEST PUSH1 0x40 MLOAD PUSH2 0x2A5 SWAP2 SWAP1 PUSH2 0x55BD JUMP JUMPDEST CALLER PUSH1 0x0 DUP2 DUP2 MSTORE PUSH1 0x2 PUSH1 0x20 MSTORE PUSH1 0x40 SWAP1 KECCAK256 SLOAD DUP1 ISZERO PUSH2 0x8B9 JUMPI PUSH1 0x40 MLOAD PUSH4 0x934F2C3 PUSH1 0xE0 SHL DUP2 MSTORE PUSH1 0x20 PUSH1 0x4 DUP3 ADD MSTORE PUSH1 0x1B PUSH1 0x24 DUP3 ADD MSTORE PUSH32 0x546865726520697320616E20756E706169642070656E616C7479210000000000 PUSH1 0x44 DUP3 ADD MSTORE PUSH1 0x64 ADD JUMPDEST PUSH1 0x40 MLOAD DUP1 SWAP2 SUB SWAP1 REVERT JUMPDEST DUP4 PUSH2 0x8C3 PUSH1 0x3 SLOAD SWAP1 JUMP JUMPDEST DUP2 GT ISZERO PUSH2 0x8E3 JUMPI PUSH1 0x40 MLOAD PUSH4 0x347626DD PUSH1 0xE2 SHL DUP2 MSTORE PUSH1 0x4 ADD PUSH2 0x8B0 SWAP1 PUSH2 0x55CB JUMP JUMPDEST PUSH2 0x8ED DUP6 DUP6 PUSH2 0x1A12 JUMP JUMPDEST PUSH1 0x0 PUSH2 0x8FF DUP6 PUSH2 0x160 ADD MLOAD PUSH1 0x1E PUSH2 0x1A5B JUMP JUMPDEST SWAP1 POP PUSH2 0x913 DUP2 PUSH8 0xDE0B6B3A7640000 PUSH2 0x5A3E JUMP JUMPDEST CALLVALUE EQ PUSH2 0x964 JUMPI PUSH1 0x40 DUP1 MLOAD PUSH4 0x79D3124B PUSH1 0xE0 SHL DUP2 MSTORE PUSH1 0x4 DUP2 ADD SWAP2 SWAP1 SWAP2 MSTORE PUSH1 0x17 PUSH1 0x44 DUP3 ADD MSTORE PUSH23 0x6572726F72203A20496E636F72726563742076616C7565 PUSH1 0x48 SHL PUSH1 0x64 DUP3 ADD MSTORE CALLVALUE PUSH1 0x24 DUP3 ADD MSTORE PUSH1 0x84 ADD PUSH2 0x8B0 JUMP JUMPDEST PUSH2 0x96C PUSH2 0xC61 JUMP JUMPDEST POP POP POP POP POP POP JUMP JUMPDEST PUSH2 0x97D DUP2 PUSH2 0x1A7A JUMP JUMPDEST POP JUMP JUMPDEST PUSH1 0x0 DUP3 DUP2 MSTORE PUSH1 0x1 PUSH1 0x20 SWAP1 DUP2 MSTORE PUSH1 0x40 DUP1 DUP4 KECCAK256 PUSH1 0x1 PUSH1 0x1 PUSH1 0xA0 SHL SUB DUP6 AND DUP5 MSTORE PUSH1 0xF ADD SWAP1 SWAP2 MSTORE SWAP1 KECCAK256 SLOAD JUMPDEST SWAP3 SWAP2 POP POP JUMP JUMPDEST DUP5 PUSH2 0x9B7 PUSH1 0x3 SLOAD SWAP1 JUMP JUMPDEST DUP2 GT ISZERO PUSH2 0x9D7 JUMPI PUSH1 0x40 MLOAD PUSH4 0x347626DD PUSH1 0xE2 SHL DUP2 MSTORE PUSH1 0x4 ADD PUSH2 0x8B0 SWAP1 PUSH2 0x55CB JUMP JUMPDEST PUSH1 0x0 PUSH2 0x9E3 DUP8 DUP7 PUSH2 0x145B JUMP JUMPDEST SWAP1 POP PUSH1 0x7 DUP2 PUSH1 0xB DUP2 GT ISZERO PUSH2 0x9F9 JUMPI PUSH2 0x9F9 PUSH2 0x5ADA JUMP JUMPDEST GT ISZERO PUSH2 0xA3B JUMPI PUSH1 0x40 MLOAD PUSH4 0xB4644DD9 PUSH1 0xE0 SHL DUP2 MSTORE PUSH1 0x20 PUSH1 0x4 DUP3 ADD MSTORE PUSH1 0x10 PUSH1 0x24 DUP3 ADD MSTORE PUSH16 0x1D5B98589B19481D1BC81CDD589B5A5D PUSH1 0x82 SHL PUSH1 0x44 DUP3 ADD MSTORE PUSH1 0x64 ADD PUSH2 0x8B0 JUMP JUMPDEST PUSH1 0x0 PUSH2 0xA4A DUP9 DUP9 DUP9 DUP9 DUP9 PUSH2 0x1ACF JUMP JUMPDEST SWAP1 POP DUP1 ISZERO PUSH2 0xA5C JUMPI PUSH2 0xA5C DUP8 DUP3 PUSH2 0x1B61 JUMP JUMPDEST POP POP POP POP POP POP POP POP JUMP JUMPDEST PUSH2 0xA6E PUSH2 0x1C7F JUMP JUMPDEST PUSH2 0x97D DUP2 PUSH2 0x1CD9 JUMP JUMPDEST PUSH1 0x0 DUP3 PUSH2 0xA83 PUSH1 0x3 SLOAD SWAP1 JUMP JUMPDEST DUP2 GT ISZERO PUSH2 0xAA3 JUMPI PUSH1 0x40 MLOAD PUSH4 0x347626DD PUSH1 0xE2 SHL DUP2 MSTORE PUSH1 0x4 ADD PUSH2 0x8B0 SWAP1 PUSH2 0x55CB JUMP JUMPDEST PUSH1 0x0 PUSH2 0xAAF DUP6 DUP6 PUSH2 0x1DAF JUMP JUMPDEST SWAP1 POP PUSH2 0xABB DUP5 DUP3 PUSH2 0x1FBA JUMP JUMPDEST SWAP5 SWAP4 POP POP POP POP JUMP JUMPDEST DUP2 PUSH2 0xACD PUSH1 0x3 SLOAD SWAP1 JUMP JUMPDEST DUP2 GT ISZERO PUSH2 0xAED JUMPI PUSH1 0x40 MLOAD PUSH4 0x347626DD PUSH1 0xE2 SHL DUP2 MSTORE PUSH1 0x4 ADD PUSH2 0x8B0 SWAP1 PUSH2 0x55CB JUMP JUMPDEST PUSH1 0x0 DUP4 DUP2 MSTORE PUSH1 0x1 PUSH1 0x20 MSTORE PUSH1 0x40 SWAP1 KECCAK256 PUSH1 0x15 ADD SLOAD DUP4 SWAP1 PUSH2 0x100 SWAP1 DIV PUSH1 0xFF AND PUSH2 0xB26 JUMPI PUSH1 0x40 MLOAD PUSH4 0xB4644DD9 PUSH1 0xE0 SHL DUP2 MSTORE PUSH1 0x4 ADD PUSH2 0x8B0 SWAP1 PUSH2 0x55F7 JUMP JUMPDEST CALLER PUSH1 0x0 DUP2 DUP2 MSTORE PUSH1 0x2 PUSH1 0x20 MSTORE PUSH1 0x40 SWAP1 KECCAK256 SLOAD DUP1 ISZERO PUSH2 0xB85 JUMPI PUSH1 0x40 MLOAD PUSH4 0x934F2C3 PUSH1 0xE0 SHL DUP2 MSTORE PUSH1 0x20 PUSH1 0x4 DUP3 ADD MSTORE PUSH1 0x1B PUSH1 0x24 DUP3 ADD MSTORE PUSH32 0x546865726520697320616E20756E706169642070656E616C7479210000000000 PUSH1 0x44 DUP3 ADD MSTORE PUSH1 0x64 ADD PUSH2 0x8B0 JUMP JUMPDEST PUSH2 0xB90 DUP7 DUP7 CALLER PUSH2 0x1FEB JUMP JUMPDEST PUSH32 0x8E913351AA76002E572CC432B46556976F6E10285B52F94909124EA8EBD0B795 DUP7 DUP7 CALLER PUSH1 0x0 PUSH1 0x40 MLOAD PUSH2 0xBC6 SWAP5 SWAP4 SWAP3 SWAP2 SWAP1 PUSH2 0x58A7 JUMP JUMPDEST PUSH1 0x40 MLOAD DUP1 SWAP2 SUB SWAP1 LOG1 POP POP POP POP POP POP JUMP JUMPDEST PUSH1 0x1 PUSH1 0x1 PUSH1 0xA0 SHL SUB DUP2 AND PUSH1 0x0 SWAP1 DUP2 MSTORE PUSH1 0x2 PUSH1 0x20 MSTORE PUSH1 0x40 SWAP1 KECCAK256 SLOAD PUSH2 0xC01 SWAP1 PUSH8 0xDE0B6B3A7640000 PUSH2 0x5A3E JUMP JUMPDEST CALLVALUE GT ISZERO PUSH2 0xC4D JUMPI PUSH1 0x40 DUP1 MLOAD PUSH4 0x79D3124B PUSH1 0xE0 SHL DUP2 MSTORE PUSH1 0x4 DUP2 ADD SWAP2 SWAP1 SWAP2 MSTORE PUSH1 0x11 PUSH1 0x44 DUP3 ADD MSTORE PUSH17 0xECC2D8EACA40D2E640E8DEDE40D0D2CED PUSH1 0x7B SHL PUSH1 0x64 DUP3 ADD MSTORE CALLVALUE PUSH1 0x24 DUP3 ADD MSTORE PUSH1 0x84 ADD PUSH2 0x8B0 JUMP JUMPDEST PUSH2 0xC57 DUP2 CALLVALUE PUSH2 0x235A JUMP JUMPDEST PUSH2 0x97D DUP2 CALLVALUE PUSH2 0x2382 JUMP JUMPDEST PUSH1 0x40 MLOAD PUSH1 0x0 SWAP1 ADDRESS SWAP1 CALLVALUE SWAP1 DUP4 DUP2 DUP2 DUP2 DUP6 DUP8 GAS CALL SWAP3 POP POP POP RETURNDATASIZE DUP1 PUSH1 0x0 DUP2 EQ PUSH2 0xCA3 JUMPI PUSH1 0x40 MLOAD SWAP2 POP PUSH1 0x1F NOT PUSH1 0x3F RETURNDATASIZE ADD AND DUP3 ADD PUSH1 0x40 MSTORE RETURNDATASIZE DUP3 MSTORE RETURNDATASIZE PUSH1 0x0 PUSH1 0x20 DUP5 ADD RETURNDATACOPY PUSH2 0xCA8 JUMP JUMPDEST PUSH1 0x60 SWAP2 POP JUMPDEST POP POP SWAP1 POP DUP1 PUSH2 0xCE7 JUMPI PUSH1 0x40 MLOAD PUSH3 0x461BCD PUSH1 0xE5 SHL DUP2 MSTORE PUSH1 0x20 PUSH1 0x4 DUP3 ADD MSTORE PUSH1 0xB PUSH1 0x24 DUP3 ADD MSTORE PUSH11 0x10D85B1B0819985A5B1959 PUSH1 0xAA SHL PUSH1 0x44 DUP3 ADD MSTORE PUSH1 0x64 ADD PUSH2 0x8B0 JUMP JUMPDEST PUSH1 0x40 DUP1 MLOAD CALLER DUP2 MSTORE ADDRESS PUSH1 0x20 DUP3 ADD MSTORE CALLVALUE SWAP2 DUP2 ADD SWAP2 SWAP1 SWAP2 MSTORE PUSH1 0x0 DUP1 MLOAD PUSH1 0x20 PUSH2 0x5B3D DUP4 CODECOPY DUP2 MLOAD SWAP2 MSTORE SWAP1 PUSH1 0x60 ADD JUMPDEST PUSH1 0x40 MLOAD DUP1 SWAP2 SUB SWAP1 LOG1 POP JUMP JUMPDEST PUSH1 0x0 DUP3 PUSH2 0xD27 PUSH1 0x3 SLOAD SWAP1 JUMP JUMPDEST DUP2 GT ISZERO PUSH2 0xD47 JUMPI PUSH1 0x40 MLOAD PUSH4 0x347626DD PUSH1 0xE2 SHL DUP2 MSTORE PUSH1 0x4 ADD PUSH2 0x8B0 SWAP1 PUSH2 0x55CB JUMP JUMPDEST PUSH1 0x0 PUSH2 0xAAF DUP6 DUP6 PUSH2 0x24BA JUMP JUMPDEST DUP5 PUSH2 0xD5D PUSH1 0x3 SLOAD SWAP1 JUMP JUMPDEST DUP2 GT ISZERO PUSH2 0xD7D JUMPI PUSH1 0x40 MLOAD PUSH4 0x347626DD PUSH1 0xE2 SHL DUP2 MSTORE PUSH1 0x4 ADD PUSH2 0x8B0 SWAP1 PUSH2 0x55CB JUMP JUMPDEST PUSH1 0x0 DUP7 DUP2 MSTORE PUSH1 0x1 PUSH1 0x20 MSTORE PUSH1 0x40 DUP2 KECCAK256 PUSH1 0xA ADD SLOAD PUSH2 0x100 SWAP1 DIV PUSH1 0xFF AND ISZERO PUSH2 0xDAD JUMPI PUSH2 0xDA6 DUP8 DUP7 PUSH2 0xEAB JUMP JUMPDEST SWAP1 POP PUSH2 0xDC1 JUMP JUMPDEST POP PUSH1 0x0 DUP7 DUP2 MSTORE PUSH1 0x1 PUSH1 0x20 MSTORE PUSH1 0x40 SWAP1 KECCAK256 PUSH1 0xB ADD SLOAD JUMPDEST PUSH2 0xDCD DUP8 DUP8 DUP8 DUP8 PUSH2 0x25BB JUMP JUMPDEST DUP4 ISZERO PUSH2 0xEA2 JUMPI PUSH1 0x0 PUSH2 0xDF1 PUSH2 0xDEA DUP4 PUSH8 0xDE0B6B3A7640000 PUSH2 0x5A3E JUMP JUMPDEST PUSH1 0x46 PUSH2 0x1A5B JUMP JUMPDEST SWAP1 POP DUP1 CALLVALUE LT ISZERO PUSH2 0xE46 JUMPI PUSH1 0x40 DUP1 MLOAD PUSH4 0x79D3124B PUSH1 0xE0 SHL DUP2 MSTORE PUSH1 0x4 DUP2 ADD SWAP2 SWAP1 SWAP2 MSTORE PUSH1 0x17 PUSH1 0x44 DUP3 ADD MSTORE PUSH23 0x6572726F72203A20496E636F72726563742076616C7565 PUSH1 0x48 SHL PUSH1 0x64 DUP3 ADD MSTORE CALLVALUE PUSH1 0x24 DUP3 ADD MSTORE PUSH1 0x84 ADD PUSH2 0x8B0 JUMP JUMPDEST PUSH2 0xE4E PUSH2 0xC61 JUMP JUMPDEST PUSH1 0x0 PUSH2 0xE6A PUSH2 0xE65 DUP5 PUSH8 0xDE0B6B3A7640000 PUSH2 0x5A3E JUMP JUMPDEST PUSH2 0x25E4 JUMP JUMPDEST SWAP1 POP PUSH1 0x0 PUSH2 0xE88 PUSH2 0xE83 DUP6 PUSH8 0xDE0B6B3A7640000 PUSH2 0x5A3E JUMP JUMPDEST PUSH2 0x25F1 JUMP JUMPDEST SWAP1 POP PUSH2 0xE94 DUP10 DUP4 PUSH2 0x1B61 JUMP JUMPDEST PUSH2 0xE9E DUP7 DUP3 PUSH2 0x1B61 JUMP JUMPDEST POP POP POP JUMPDEST POP POP POP POP POP POP POP JUMP JUMPDEST PUSH1 0x0 DUP3 DUP2 MSTORE PUSH1 0x1 PUSH1 0x20 MSTORE PUSH1 0x40 DUP2 KECCAK256 PUSH1 0xC ADD DUP1 SLOAD DUP4 SWAP1 DUP2 LT PUSH2 0xECE JUMPI PUSH2 0xECE PUSH2 0x5AF0 JUMP JUMPDEST SWAP1 PUSH1 0x0 MSTORE PUSH1 0x20 PUSH1 0x0 KECCAK256 SWAP1 PUSH1 0xB MUL ADD PUSH1 0x7 ADD SLOAD SWAP1 POP SWAP3 SWAP2 POP POP JUMP JUMPDEST PUSH2 0xEF0 PUSH2 0x1C7F JUMP JUMPDEST PUSH2 0xEFA PUSH1 0x0 PUSH2 0x25FE JUMP JUMPDEST JUMP JUMPDEST PUSH2 0xF04 PUSH2 0x1C7F JUMP JUMPDEST PUSH2 0xEFA PUSH2 0x264E JUMP JUMPDEST PUSH1 0x0 DUP2 ISZERO PUSH2 0xF35 JUMPI POP PUSH1 0x0 DUP3 DUP2 MSTORE PUSH1 0x1 PUSH1 0x20 MSTORE PUSH1 0x40 SWAP1 KECCAK256 PUSH1 0x13 DUP2 ADD SLOAD PUSH1 0x11 SWAP1 SWAP2 ADD SLOAD GT ISZERO PUSH2 0x9A7 JUMP JUMPDEST POP PUSH1 0x0 DUP3 DUP2 MSTORE PUSH1 0x1 PUSH1 0x20 MSTORE PUSH1 0x40 SWAP1 KECCAK256 PUSH1 0x14 DUP2 ADD SLOAD PUSH1 0x12 SWAP1 SWAP2 ADD SLOAD GT ISZERO PUSH2 0x9A7 JUMP JUMPDEST DUP1 PUSH2 0xF60 PUSH1 0x3 SLOAD SWAP1 JUMP JUMPDEST DUP2 GT ISZERO PUSH2 0xF80 JUMPI PUSH1 0x40 MLOAD PUSH4 0x347626DD PUSH1 0xE2 SHL DUP2 MSTORE PUSH1 0x4 ADD PUSH2 0x8B0 SWAP1 PUSH2 0x55CB JUMP JUMPDEST PUSH2 0xF89 DUP3 PUSH2 0x2715 JUMP JUMPDEST POP POP POP JUMP JUMPDEST PUSH1 0x60 PUSH1 0x0 PUSH1 0x60 DUP1 PUSH1 0x0 DUP1 DUP7 ISZERO PUSH2 0x1012 JUMPI PUSH1 0x0 DUP10 DUP2 MSTORE PUSH1 0x1 PUSH1 0x20 SWAP1 DUP2 MSTORE PUSH1 0x40 DUP1 DUP4 KECCAK256 PUSH1 0x1 PUSH1 0x1 PUSH1 0xA0 SHL SUB DUP13 AND DUP5 MSTORE PUSH1 0xF ADD DUP3 MSTORE SWAP2 DUP3 SWAP1 KECCAK256 DUP1 SLOAD DUP4 MLOAD DUP2 DUP5 MUL DUP2 ADD DUP5 ADD SWAP1 SWAP5 MSTORE DUP1 DUP5 MSTORE SWAP1 SWAP2 DUP4 ADD DUP3 DUP3 DUP1 ISZERO PUSH2 0x1006 JUMPI PUSH1 0x20 MUL DUP3 ADD SWAP2 SWAP1 PUSH1 0x0 MSTORE PUSH1 0x20 PUSH1 0x0 KECCAK256 SWAP1 JUMPDEST DUP2 SLOAD DUP2 MSTORE PUSH1 0x20 ADD SWAP1 PUSH1 0x1 ADD SWAP1 DUP1 DUP4 GT PUSH2 0xFF2 JUMPI JUMPDEST POP POP POP POP POP SWAP4 POP PUSH2 0x1082 JUMP JUMPDEST PUSH1 0x0 DUP10 DUP2 MSTORE PUSH1 0x1 PUSH1 0x20 SWAP1 DUP2 MSTORE PUSH1 0x40 DUP1 DUP4 KECCAK256 PUSH1 0x1 PUSH1 0x1 PUSH1 0xA0 SHL SUB DUP13 AND DUP5 MSTORE PUSH1 0x10 ADD DUP3 MSTORE SWAP2 DUP3 SWAP1 KECCAK256 DUP1 SLOAD DUP4 MLOAD DUP2 DUP5 MUL DUP2 ADD DUP5 ADD SWAP1 SWAP5 MSTORE DUP1 DUP5 MSTORE SWAP1 SWAP2 DUP4 ADD DUP3 DUP3 DUP1 ISZERO PUSH2 0x107A JUMPI PUSH1 0x20 MUL DUP3 ADD SWAP2 SWAP1 PUSH1 0x0 MSTORE PUSH1 0x20 PUSH1 0x0 KECCAK256 SWAP1 JUMPDEST DUP2 SLOAD DUP2 MSTORE PUSH1 0x20 ADD SWAP1 PUSH1 0x1 ADD SWAP1 DUP1 DUP4 GT PUSH2 0x1066 JUMPI JUMPDEST POP POP POP POP POP SWAP4 POP JUMPDEST PUSH2 0x108A PUSH2 0x48FF JUMP JUMPDEST PUSH1 0x0 JUMPDEST DUP6 MLOAD DUP2 LT ISZERO PUSH2 0x12A3 JUMPI PUSH1 0x0 DUP12 DUP2 MSTORE PUSH1 0x1 PUSH1 0x20 DUP2 DUP2 MSTORE PUSH1 0x40 DUP1 DUP5 KECCAK256 PUSH1 0x1 PUSH1 0x1 PUSH1 0xA0 SHL SUB DUP16 AND DUP6 MSTORE PUSH1 0xF ADD SWAP1 SWAP2 MSTORE DUP3 KECCAK256 DUP9 MLOAD SWAP2 ADD SWAP2 SWAP1 DUP9 SWAP1 DUP5 SWAP1 DUP2 LT PUSH2 0x10D3 JUMPI PUSH2 0x10D3 PUSH2 0x5AF0 JUMP JUMPDEST PUSH1 0x20 MUL PUSH1 0x20 ADD ADD MLOAD DUP2 MSTORE PUSH1 0x20 ADD SWAP1 DUP2 MSTORE PUSH1 0x20 ADD PUSH1 0x0 KECCAK256 PUSH1 0x40 MLOAD DUP1 PUSH1 0x40 ADD PUSH1 0x40 MSTORE SWAP1 DUP2 PUSH1 0x0 DUP3 ADD PUSH1 0x0 SWAP1 SLOAD SWAP1 PUSH2 0x100 EXP SWAP1 DIV PUSH1 0xFF AND PUSH1 0x4 DUP2 GT ISZERO PUSH2 0x1118 JUMPI PUSH2 0x1118 PUSH2 0x5ADA JUMP JUMPDEST PUSH1 0x4 DUP2 GT ISZERO PUSH2 0x1129 JUMPI PUSH2 0x1129 PUSH2 0x5ADA JUMP JUMPDEST DUP2 MSTORE PUSH1 0x20 ADD PUSH1 0x1 DUP3 ADD DUP1 SLOAD PUSH2 0x113D SWAP1 PUSH2 0x5A74 JUMP JUMPDEST DUP1 PUSH1 0x1F ADD PUSH1 0x20 DUP1 SWAP2 DIV MUL PUSH1 0x20 ADD PUSH1 0x40 MLOAD SWAP1 DUP2 ADD PUSH1 0x40 MSTORE DUP1 SWAP3 SWAP2 SWAP1 DUP2 DUP2 MSTORE PUSH1 0x20 ADD DUP3 DUP1 SLOAD PUSH2 0x1169 SWAP1 PUSH2 0x5A74 JUMP JUMPDEST DUP1 ISZERO PUSH2 0x11B6 JUMPI DUP1 PUSH1 0x1F LT PUSH2 0x118B JUMPI PUSH2 0x100 DUP1 DUP4 SLOAD DIV MUL DUP4 MSTORE SWAP2 PUSH1 0x20 ADD SWAP2 PUSH2 0x11B6 JUMP JUMPDEST DUP3 ADD SWAP2 SWAP1 PUSH1 0x0 MSTORE PUSH1 0x20 PUSH1 0x0 KECCAK256 SWAP1 JUMPDEST DUP2 SLOAD DUP2 MSTORE SWAP1 PUSH1 0x1 ADD SWAP1 PUSH1 0x20 ADD DUP1 DUP4 GT PUSH2 0x1199 JUMPI DUP3 SWAP1 SUB PUSH1 0x1F AND DUP3 ADD SWAP2 JUMPDEST POP POP POP POP POP DUP2 MSTORE POP POP SWAP2 POP PUSH1 0x0 PUSH1 0x4 DUP2 GT ISZERO PUSH2 0x11D4 JUMPI PUSH2 0x11D4 PUSH2 0x5ADA JUMP JUMPDEST DUP3 MLOAD PUSH1 0x4 DUP2 GT ISZERO PUSH2 0x11E7 JUMPI PUSH2 0x11E7 PUSH2 0x5ADA JUMP JUMPDEST EQ ISZERO PUSH2 0x1291 JUMPI DUP6 DUP2 DUP2 MLOAD DUP2 LT PUSH2 0x11FF JUMPI PUSH2 0x11FF PUSH2 0x5AF0 JUMP JUMPDEST PUSH1 0x20 MUL PUSH1 0x20 ADD ADD MLOAD DUP6 DUP5 DUP2 MLOAD DUP2 LT PUSH2 0x1219 JUMPI PUSH2 0x1219 PUSH2 0x5AF0 JUMP JUMPDEST PUSH1 0x20 SWAP1 DUP2 MUL SWAP2 SWAP1 SWAP2 ADD ADD MSTORE DUP3 PUSH2 0x122E DUP2 PUSH2 0x5AA9 JUMP JUMPDEST SWAP4 POP POP PUSH1 0x1 PUSH1 0x0 DUP13 DUP2 MSTORE PUSH1 0x20 ADD SWAP1 DUP2 MSTORE PUSH1 0x20 ADD PUSH1 0x0 KECCAK256 PUSH1 0xC ADD DUP7 DUP3 DUP2 MLOAD DUP2 LT PUSH2 0x1259 JUMPI PUSH2 0x1259 PUSH2 0x5AF0 JUMP JUMPDEST PUSH1 0x20 MUL PUSH1 0x20 ADD ADD MLOAD DUP2 SLOAD DUP2 LT PUSH2 0x1271 JUMPI PUSH2 0x1271 PUSH2 0x5AF0 JUMP JUMPDEST SWAP1 PUSH1 0x0 MSTORE PUSH1 0x20 PUSH1 0x0 KECCAK256 SWAP1 PUSH1 0xB MUL ADD PUSH1 0x7 ADD SLOAD DUP5 PUSH2 0x128E SWAP2 SWAP1 PUSH2 0x5A04 JUMP JUMPDEST SWAP4 POP JUMPDEST DUP1 PUSH2 0x129B DUP2 PUSH2 0x5AA9 JUMP JUMPDEST SWAP2 POP POP PUSH2 0x108D JUMP JUMPDEST POP SWAP3 SWAP10 SWAP2 SWAP9 POP SWAP1 SWAP7 POP POP POP POP POP POP POP JUMP JUMPDEST PUSH2 0x12BE DUP3 DUP3 PUSH2 0x28E2 JUMP JUMPDEST POP POP JUMP JUMPDEST PUSH1 0x0 DUP2 DUP2 MSTORE PUSH1 0x1 PUSH1 0x20 SWAP1 DUP2 MSTORE PUSH1 0x40 SWAP2 DUP3 SWAP1 KECCAK256 PUSH1 0xD ADD DUP1 SLOAD DUP4 MLOAD DUP2 DUP5 MUL DUP2 ADD DUP5 ADD SWAP1 SWAP5 MSTORE DUP1 DUP5 MSTORE PUSH1 0x60 SWAP4 SWAP3 DUP4 ADD DUP3 DUP3 DUP1 ISZERO PUSH2 0x1325 JUMPI PUSH1 0x20 MUL DUP3 ADD SWAP2 SWAP1 PUSH1 0x0 MSTORE PUSH1 0x20 PUSH1 0x0 KECCAK256 SWAP1 JUMPDEST DUP2 SLOAD PUSH1 0x1 PUSH1 0x1 PUSH1 0xA0 SHL SUB AND DUP2 MSTORE PUSH1 0x1 SWAP1 SWAP2 ADD SWAP1 PUSH1 0x20 ADD DUP1 DUP4 GT PUSH2 0x1307 JUMPI JUMPDEST POP POP POP POP POP SWAP1 POP SWAP2 SWAP1 POP JUMP JUMPDEST DUP1 PUSH2 0x133B PUSH1 0x3 SLOAD SWAP1 JUMP JUMPDEST DUP2 GT ISZERO PUSH2 0x135B JUMPI PUSH1 0x40 MLOAD PUSH4 0x347626DD PUSH1 0xE2 SHL DUP2 MSTORE PUSH1 0x4 ADD PUSH2 0x8B0 SWAP1 PUSH2 0x55CB JUMP JUMPDEST PUSH2 0xF89 DUP3 PUSH2 0x2964 JUMP JUMPDEST CALLER PUSH1 0x0 DUP2 DUP2 MSTORE PUSH1 0x2 PUSH1 0x20 MSTORE PUSH1 0x40 DUP2 KECCAK256 SLOAD SWAP1 SWAP2 SWAP1 DUP1 ISZERO PUSH2 0x13C6 JUMPI PUSH1 0x40 MLOAD PUSH4 0x934F2C3 PUSH1 0xE0 SHL DUP2 MSTORE PUSH1 0x20 PUSH1 0x4 DUP3 ADD MSTORE PUSH1 0x1B PUSH1 0x24 DUP3 ADD MSTORE PUSH32 0x546865726520697320616E20756E706169642070656E616C7479210000000000 PUSH1 0x44 DUP3 ADD MSTORE PUSH1 0x64 ADD PUSH2 0x8B0 JUMP JUMPDEST PUSH2 0x13CF DUP5 PUSH2 0x2BDD JUMP JUMPDEST SWAP3 POP PUSH1 0x0 PUSH2 0x13F6 DUP6 PUSH2 0x160 ADD MLOAD PUSH8 0xDE0B6B3A7640000 PUSH2 0x13EF SWAP2 SWAP1 PUSH2 0x5A3E JUMP JUMPDEST PUSH1 0x1E PUSH2 0x1A5B JUMP JUMPDEST SWAP1 POP DUP1 CALLVALUE LT ISZERO PUSH2 0x144B JUMPI PUSH1 0x40 DUP1 MLOAD PUSH4 0x79D3124B PUSH1 0xE0 SHL DUP2 MSTORE PUSH1 0x4 DUP2 ADD SWAP2 SWAP1 SWAP2 MSTORE PUSH1 0x17 PUSH1 0x44 DUP3 ADD MSTORE PUSH23 0x6572726F72203A20496E636F72726563742076616C7565 PUSH1 0x48 SHL PUSH1 0x64 DUP3 ADD MSTORE CALLVALUE PUSH1 0x24 DUP3 ADD MSTORE PUSH1 0x84 ADD PUSH2 0x8B0 JUMP JUMPDEST PUSH2 0x1453 PUSH2 0xC61 JUMP JUMPDEST POP POP POP SWAP2 SWAP1 POP JUMP JUMPDEST PUSH1 0x0 DUP3 DUP2 MSTORE PUSH1 0x1 PUSH1 0x20 MSTORE PUSH1 0x40 DUP2 KECCAK256 PUSH1 0xC ADD DUP1 SLOAD DUP4 SWAP1 DUP2 LT PUSH2 0x147E JUMPI PUSH2 0x147E PUSH2 0x5AF0 JUMP JUMPDEST PUSH1 0x0 SWAP2 DUP3 MSTORE PUSH1 0x20 SWAP1 SWAP2 KECCAK256 PUSH1 0xB SWAP1 SWAP2 MUL ADD PUSH1 0x9 ADD SLOAD PUSH1 0xFF AND SWAP4 SWAP3 POP POP POP JUMP JUMPDEST PUSH1 0x0 DUP2 DUP2 MSTORE PUSH1 0x1 PUSH1 0x20 SWAP1 DUP2 MSTORE PUSH1 0x40 SWAP2 DUP3 SWAP1 KECCAK256 PUSH1 0xE ADD DUP1 SLOAD DUP4 MLOAD DUP2 DUP5 MUL DUP2 ADD DUP5 ADD SWAP1 SWAP5 MSTORE DUP1 DUP5 MSTORE PUSH1 0x60 SWAP4 SWAP3 DUP4 ADD DUP3 DUP3 DUP1 ISZERO PUSH2 0x1325 JUMPI PUSH1 0x20 MUL DUP3 ADD SWAP2 SWAP1 PUSH1 0x0 MSTORE PUSH1 0x20 PUSH1 0x0 KECCAK256 SWAP1 DUP2 SLOAD PUSH1 0x1 PUSH1 0x1 PUSH1 0xA0 SHL SUB AND DUP2 MSTORE PUSH1 0x1 SWAP1 SWAP2 ADD SWAP1 PUSH1 0x20 ADD DUP1 DUP4 GT PUSH2 0x1307 JUMPI POP POP POP POP POP SWAP1 POP SWAP2 SWAP1 POP JUMP JUMPDEST DUP3 PUSH2 0x1513 PUSH1 0x3 SLOAD SWAP1 JUMP JUMPDEST DUP2 GT ISZERO PUSH2 0x1533 JUMPI PUSH1 0x40 MLOAD PUSH4 0x347626DD PUSH1 0xE2 SHL DUP2 MSTORE PUSH1 0x4 ADD PUSH2 0x8B0 SWAP1 PUSH2 0x55CB JUMP JUMPDEST PUSH1 0x0 PUSH2 0x153F DUP6 DUP6 PUSH2 0x145B JUMP JUMPDEST SWAP1 POP PUSH1 0x6 DUP2 PUSH1 0xB DUP2 GT ISZERO PUSH2 0x1555 JUMPI PUSH2 0x1555 PUSH2 0x5ADA JUMP JUMPDEST GT ISZERO PUSH2 0x1597 JUMPI PUSH1 0x40 MLOAD PUSH4 0xB4644DD9 PUSH1 0xE0 SHL DUP2 MSTORE PUSH1 0x20 PUSH1 0x4 DUP3 ADD MSTORE PUSH1 0x10 PUSH1 0x24 DUP3 ADD MSTORE PUSH16 0x1D5B98589B19481D1BC81CDD589B5A5D PUSH1 0x82 SHL PUSH1 0x44 DUP3 ADD MSTORE PUSH1 0x64 ADD PUSH2 0x8B0 JUMP JUMPDEST PUSH2 0x15A2 DUP6 DUP6 DUP6 PUSH2 0x2C2C JUMP JUMPDEST POP POP POP POP POP JUMP JUMPDEST PUSH1 0x60 PUSH1 0x1 PUSH1 0x0 DUP4 DUP2 MSTORE PUSH1 0x20 ADD SWAP1 DUP2 MSTORE PUSH1 0x20 ADD PUSH1 0x0 KECCAK256 PUSH1 0xC ADD DUP1 SLOAD DUP1 PUSH1 0x20 MUL PUSH1 0x20 ADD PUSH1 0x40 MLOAD SWAP1 DUP2 ADD PUSH1 0x40 MSTORE DUP1 SWAP3 SWAP2 SWAP1 DUP2 DUP2 MSTORE PUSH1 0x20 ADD PUSH1 0x0 SWAP1 JUMPDEST DUP3 DUP3 LT ISZERO PUSH2 0x184F JUMPI PUSH1 0x0 DUP5 DUP2 MSTORE PUSH1 0x20 SWAP1 KECCAK256 PUSH1 0x40 DUP1 MLOAD PUSH2 0x180 DUP2 ADD SWAP1 SWAP2 MSTORE PUSH1 0xB DUP5 MUL SWAP1 SWAP2 ADD DUP1 SLOAD DUP3 SWAP1 PUSH1 0xA0 DUP3 ADD SWAP1 DUP4 SWAP1 DUP3 SWAP1 DUP3 SWAP1 PUSH2 0x161D SWAP1 PUSH2 0x5A74 JUMP JUMPDEST DUP1 PUSH1 0x1F ADD PUSH1 0x20 DUP1 SWAP2 DIV MUL PUSH1 0x20 ADD PUSH1 0x40 MLOAD SWAP1 DUP2 ADD PUSH1 0x40 MSTORE DUP1 SWAP3 SWAP2 SWAP1 DUP2 DUP2 MSTORE PUSH1 0x20 ADD DUP3 DUP1 SLOAD PUSH2 0x1649 SWAP1 PUSH2 0x5A74 JUMP JUMPDEST DUP1 ISZERO PUSH2 0x1696 JUMPI DUP1 PUSH1 0x1F LT PUSH2 0x166B JUMPI PUSH2 0x100 DUP1 DUP4 SLOAD DIV MUL DUP4 MSTORE SWAP2 PUSH1 0x20 ADD SWAP2 PUSH2 0x1696 JUMP JUMPDEST DUP3 ADD SWAP2 SWAP1 PUSH1 0x0 MSTORE PUSH1 0x20 PUSH1 0x0 KECCAK256 SWAP1 JUMPDEST DUP2 SLOAD DUP2 MSTORE SWAP1 PUSH1 0x1 ADD SWAP1 PUSH1 0x20 ADD DUP1 DUP4 GT PUSH2 0x1679 JUMPI DUP3 SWAP1 SUB PUSH1 0x1F AND DUP3 ADD SWAP2 JUMPDEST POP POP POP POP POP DUP2 MSTORE PUSH1 0x20 ADD PUSH1 0x1 DUP3 ADD SLOAD DUP2 MSTORE PUSH1 0x20 ADD PUSH1 0x2 DUP3 ADD SLOAD DUP2 MSTORE PUSH1 0x20 ADD PUSH1 0x3 DUP3 ADD SLOAD DUP2 MSTORE PUSH1 0x20 ADD PUSH1 0x4 DUP3 ADD SLOAD DUP2 MSTORE PUSH1 0x20 ADD PUSH1 0x5 DUP3 ADD SLOAD DUP2 MSTORE PUSH1 0x20 ADD PUSH1 0x6 DUP3 ADD DUP1 SLOAD PUSH2 0x16E1 SWAP1 PUSH2 0x5A74 JUMP JUMPDEST DUP1 PUSH1 0x1F ADD PUSH1 0x20 DUP1 SWAP2 DIV MUL PUSH1 0x20 ADD PUSH1 0x40 MLOAD SWAP1 DUP2 ADD PUSH1 0x40 MSTORE DUP1 SWAP3 SWAP2 SWAP1 DUP2 DUP2 MSTORE PUSH1 0x20 ADD DUP3 DUP1 SLOAD PUSH2 0x170D SWAP1 PUSH2 0x5A74 JUMP JUMPDEST DUP1 ISZERO PUSH2 0x175A JUMPI DUP1 PUSH1 0x1F LT PUSH2 0x172F JUMPI PUSH2 0x100 DUP1 DUP4 SLOAD DIV MUL DUP4 MSTORE SWAP2 PUSH1 0x20 ADD SWAP2 PUSH2 0x175A JUMP JUMPDEST DUP3 ADD SWAP2 SWAP1 PUSH1 0x0 MSTORE PUSH1 0x20 PUSH1 0x0 KECCAK256 SWAP1 JUMPDEST DUP2 SLOAD DUP2 MSTORE SWAP1 PUSH1 0x1 ADD SWAP1 PUSH1 0x20 ADD DUP1 DUP4 GT PUSH2 0x173D JUMPI DUP3 SWAP1 SUB PUSH1 0x1F AND DUP3 ADD SWAP2 JUMPDEST POP POP POP POP POP DUP2 MSTORE POP POP DUP2 MSTORE PUSH1 0x20 ADD PUSH1 0x7 DUP3 ADD SLOAD DUP2 MSTORE PUSH1 0x20 ADD PUSH1 0x8 DUP3 ADD DUP1 SLOAD PUSH2 0x1781 SWAP1 PUSH2 0x5A74 JUMP JUMPDEST DUP1 PUSH1 0x1F ADD PUSH1 0x20 DUP1 SWAP2 DIV MUL PUSH1 0x20 ADD PUSH1 0x40 MLOAD SWAP1 DUP2 ADD PUSH1 0x40 MSTORE DUP1 SWAP3 SWAP2 SWAP1 DUP2 DUP2 MSTORE PUSH1 0x20 ADD DUP3 DUP1 SLOAD PUSH2 0x17AD SWAP1 PUSH2 0x5A74 JUMP JUMPDEST DUP1 ISZERO PUSH2 0x17FA JUMPI DUP1 PUSH1 0x1F LT PUSH2 0x17CF JUMPI PUSH2 0x100 DUP1 DUP4 SLOAD DIV MUL DUP4 MSTORE SWAP2 PUSH1 0x20 ADD SWAP2 PUSH2 0x17FA JUMP JUMPDEST DUP3 ADD SWAP2 SWAP1 PUSH1 0x0 MSTORE PUSH1 0x20 PUSH1 0x0 KECCAK256 SWAP1 JUMPDEST DUP2 SLOAD DUP2 MSTORE SWAP1 PUSH1 0x1 ADD SWAP1 PUSH1 0x20 ADD DUP1 DUP4 GT PUSH2 0x17DD JUMPI DUP3 SWAP1 SUB PUSH1 0x1F AND DUP3 ADD SWAP2 JUMPDEST POP POP POP SWAP2 DUP4 MSTORE POP POP PUSH1 0x9 DUP3 ADD SLOAD PUSH1 0x20 SWAP1 SWAP2 ADD SWAP1 PUSH1 0xFF AND PUSH1 0xB DUP2 GT ISZERO PUSH2 0x1821 JUMPI PUSH2 0x1821 PUSH2 0x5ADA JUMP JUMPDEST PUSH1 0xB DUP2 GT ISZERO PUSH2 0x1832 JUMPI PUSH2 0x1832 PUSH2 0x5ADA JUMP JUMPDEST DUP2 MSTORE PUSH1 0x20 ADD PUSH1 0xA DUP3 ADD SLOAD DUP2 MSTORE POP POP DUP2 MSTORE PUSH1 0x20 ADD SWAP1 PUSH1 0x1 ADD SWAP1 PUSH2 0x15E1 JUMP JUMPDEST POP POP POP POP SWAP1 POP SWAP2 SWAP1 POP JUMP JUMPDEST PUSH2 0x1862 PUSH2 0x491A JUMP JUMPDEST DUP2 PUSH2 0x186C PUSH1 0x3 SLOAD SWAP1 JUMP JUMPDEST DUP2 GT ISZERO PUSH2 0x188C JUMPI PUSH1 0x40 MLOAD PUSH4 0x347626DD PUSH1 0xE2 SHL DUP2 MSTORE PUSH1 0x4 ADD PUSH2 0x8B0 SWAP1 PUSH2 0x55CB JUMP JUMPDEST PUSH2 0x1895 DUP4 PUSH2 0x2C38 JUMP JUMPDEST SWAP2 POP JUMPDEST POP SWAP2 SWAP1 POP JUMP JUMPDEST PUSH2 0x18A6 PUSH2 0x1C7F JUMP JUMPDEST PUSH1 0x1 PUSH1 0x1 PUSH1 0xA0 SHL SUB DUP2 AND PUSH2 0x190B JUMPI PUSH1 0x40 MLOAD PUSH3 0x461BCD PUSH1 0xE5 SHL DUP2 MSTORE PUSH1 0x20 PUSH1 0x4 DUP3 ADD MSTORE PUSH1 0x26 PUSH1 0x24 DUP3 ADD MSTORE PUSH32 0x4F776E61626C653A206E6577206F776E657220697320746865207A65726F2061 PUSH1 0x44 DUP3 ADD MSTORE PUSH6 0x646472657373 PUSH1 0xD0 SHL PUSH1 0x64 DUP3 ADD MSTORE PUSH1 0x84 ADD PUSH2 0x8B0 JUMP JUMPDEST PUSH2 0x97D DUP2 PUSH2 0x25FE JUMP JUMPDEST DUP2 PUSH2 0x191E PUSH1 0x3 SLOAD SWAP1 JUMP JUMPDEST DUP2 GT ISZERO PUSH2 0x193E JUMPI PUSH1 0x40 MLOAD PUSH4 0x347626DD PUSH1 0xE2 SHL DUP2 MSTORE PUSH1 0x4 ADD PUSH2 0x8B0 SWAP1 PUSH2 0x55CB JUMP JUMPDEST PUSH1 0x0 DUP4 DUP2 MSTORE PUSH1 0x1 PUSH1 0x20 MSTORE PUSH1 0x40 SWAP1 KECCAK256 PUSH1 0x15 ADD SLOAD DUP4 SWAP1 PUSH1 0xFF AND PUSH2 0x1972 JUMPI PUSH1 0x40 MLOAD PUSH4 0xB4644DD9 PUSH1 0xE0 SHL DUP2 MSTORE PUSH1 0x4 ADD PUSH2 0x8B0 SWAP1 PUSH2 0x55F7 JUMP JUMPDEST CALLER PUSH1 0x0 DUP2 DUP2 MSTORE PUSH1 0x2 PUSH1 0x20 MSTORE PUSH1 0x40 SWAP1 KECCAK256 SLOAD DUP1 ISZERO PUSH2 0x19D1 JUMPI PUSH1 0x40 MLOAD PUSH4 0x934F2C3 PUSH1 0xE0 SHL DUP2 MSTORE PUSH1 0x20 PUSH1 0x4 DUP3 ADD MSTORE PUSH1 0x1B PUSH1 0x24 DUP3 ADD MSTORE PUSH32 0x546865726520697320616E20756E706169642070656E616C7479210000000000 PUSH1 0x44 DUP3 ADD MSTORE PUSH1 0x64 ADD PUSH2 0x8B0 JUMP JUMPDEST PUSH2 0x19DC DUP7 DUP7 CALLER PUSH2 0x36A3 JUMP JUMPDEST PUSH32 0x8E913351AA76002E572CC432B46556976F6E10285B52F94909124EA8EBD0B795 DUP7 DUP7 CALLER PUSH1 0x1 PUSH1 0x40 MLOAD PUSH2 0xBC6 SWAP5 SWAP4 SWAP3 SWAP2 SWAP1 PUSH2 0x58A7 JUMP JUMPDEST PUSH2 0x1A1C DUP3 DUP3 PUSH2 0x39EC JUMP JUMPDEST PUSH32 0x9096640C11BD5636CED741C9725E5FF774B334455C80E15491F15BB3AF0BC265 CALLER DUP4 DUP4 PUSH1 0x40 MLOAD PUSH2 0x1A4F SWAP4 SWAP3 SWAP2 SWAP1 PUSH2 0x5428 JUMP JUMPDEST PUSH1 0x40 MLOAD DUP1 SWAP2 SUB SWAP1 LOG1 POP POP JUMP JUMPDEST PUSH1 0x0 PUSH1 0x64 PUSH2 0x1A69 DUP5 DUP5 PUSH2 0x3C2F JUMP JUMPDEST PUSH2 0x1A73 SWAP2 SWAP1 PUSH2 0x5A1C JUMP JUMPDEST SWAP4 SWAP3 POP POP POP JUMP JUMPDEST PUSH1 0x0 DUP2 DUP2 MSTORE PUSH1 0x1 PUSH1 0x20 MSTORE PUSH1 0x40 SWAP1 DUP2 SWAP1 KECCAK256 PUSH1 0x15 ADD DUP1 SLOAD PUSH3 0xFF0000 NOT AND PUSH3 0x50000 OR SWAP1 SSTORE MLOAD PUSH32 0xDEA20A6D822B68D598B7AB4FD45418A7CA7B103F12D300BCC3B56A7B94D9ED33 SWAP1 PUSH2 0xD10 SWAP1 DUP4 SWAP1 PUSH1 0x5 SWAP1 CALLER SWAP1 PUSH2 0x58E1 JUMP JUMPDEST PUSH1 0x0 DUP3 ISZERO PUSH2 0x1B47 JUMPI PUSH2 0x1AE4 DUP7 DUP7 CALLER DUP8 DUP7 PUSH2 0x3C3B JUMP JUMPDEST PUSH1 0x0 DUP7 DUP2 MSTORE PUSH1 0x1 PUSH1 0x20 MSTORE PUSH1 0x40 SWAP1 KECCAK256 PUSH1 0xA ADD SLOAD PUSH2 0x100 SWAP1 DIV PUSH1 0xFF AND DUP1 ISZERO PUSH2 0x1B15 JUMPI PUSH2 0x1B0E DUP8 DUP7 PUSH2 0xEAB JUMP JUMPDEST SWAP2 POP PUSH2 0x1B2A JUMP JUMPDEST PUSH1 0x0 DUP8 DUP2 MSTORE PUSH1 0x1 PUSH1 0x20 MSTORE PUSH1 0x40 SWAP1 KECCAK256 PUSH1 0xB ADD SLOAD SWAP2 POP JUMPDEST PUSH2 0x1B3F PUSH2 0x13EF DUP4 PUSH8 0xDE0B6B3A7640000 PUSH2 0x5A3E JUMP JUMPDEST SWAP2 POP POP PUSH2 0x1B58 JUMP JUMPDEST PUSH2 0x1B54 DUP7 DUP7 DUP7 PUSH1 0x1 PUSH2 0x3DE2 JUMP JUMPDEST POP PUSH1 0x0 JUMPDEST SWAP6 SWAP5 POP POP POP POP POP JUMP JUMPDEST DUP1 SELFBALANCE LT ISZERO PUSH2 0x1BB1 JUMPI PUSH1 0x40 MLOAD PUSH3 0x461BCD PUSH1 0xE5 SHL DUP2 MSTORE PUSH1 0x20 PUSH1 0x4 DUP3 ADD MSTORE PUSH1 0x1E PUSH1 0x24 DUP3 ADD MSTORE PUSH32 0x5468652062616C616E6365206973206E6F742073756666696369656E742E0000 PUSH1 0x44 DUP3 ADD MSTORE PUSH1 0x64 ADD PUSH2 0x8B0 JUMP JUMPDEST PUSH1 0x0 DUP3 PUSH1 0x1 PUSH1 0x1 PUSH1 0xA0 SHL SUB AND DUP3 PUSH1 0x40 MLOAD PUSH1 0x0 PUSH1 0x40 MLOAD DUP1 DUP4 SUB DUP2 DUP6 DUP8 GAS CALL SWAP3 POP POP POP RETURNDATASIZE DUP1 PUSH1 0x0 DUP2 EQ PUSH2 0x1BFE JUMPI PUSH1 0x40 MLOAD SWAP2 POP PUSH1 0x1F NOT PUSH1 0x3F RETURNDATASIZE ADD AND DUP3 ADD PUSH1 0x40 MSTORE RETURNDATASIZE DUP3 MSTORE RETURNDATASIZE PUSH1 0x0 PUSH1 0x20 DUP5 ADD RETURNDATACOPY PUSH2 0x1C03 JUMP JUMPDEST PUSH1 0x60 SWAP2 POP JUMPDEST POP POP SWAP1 POP DUP1 PUSH2 0x1C42 JUMPI PUSH1 0x40 MLOAD PUSH3 0x461BCD PUSH1 0xE5 SHL DUP2 MSTORE PUSH1 0x20 PUSH1 0x4 DUP3 ADD MSTORE PUSH1 0xB PUSH1 0x24 DUP3 ADD MSTORE PUSH11 0x10D85B1B0819985A5B1959 PUSH1 0xAA SHL PUSH1 0x44 DUP3 ADD MSTORE PUSH1 0x64 ADD PUSH2 0x8B0 JUMP JUMPDEST PUSH1 0x40 DUP1 MLOAD ADDRESS DUP2 MSTORE PUSH1 0x1 PUSH1 0x1 PUSH1 0xA0 SHL SUB DUP6 AND PUSH1 0x20 DUP3 ADD MSTORE SWAP1 DUP2 ADD DUP4 SWAP1 MSTORE PUSH1 0x0 DUP1 MLOAD PUSH1 0x20 PUSH2 0x5B3D DUP4 CODECOPY DUP2 MLOAD SWAP2 MSTORE SWAP1 PUSH1 0x60 ADD JUMPDEST PUSH1 0x40 MLOAD DUP1 SWAP2 SUB SWAP1 LOG1 POP POP POP JUMP JUMPDEST PUSH1 0x0 SLOAD PUSH1 0x1 PUSH1 0x1 PUSH1 0xA0 SHL SUB AND CALLER EQ PUSH2 0xEFA JUMPI PUSH1 0x40 MLOAD PUSH3 0x461BCD PUSH1 0xE5 SHL DUP2 MSTORE PUSH1 0x20 PUSH1 0x4 DUP3 ADD DUP2 SWAP1 MSTORE PUSH1 0x24 DUP3 ADD MSTORE PUSH32 0x4F776E61626C653A2063616C6C6572206973206E6F7420746865206F776E6572 PUSH1 0x44 DUP3 ADD MSTORE PUSH1 0x64 ADD PUSH2 0x8B0 JUMP JUMPDEST PUSH1 0x0 PUSH20 0x6CA0189BAF54F88684ED158193021E45745F810E PUSH2 0x1D02 DUP4 PUSH8 0xDE0B6B3A7640000 PUSH2 0x5A3E JUMP JUMPDEST PUSH1 0x40 MLOAD PUSH1 0x0 DUP2 DUP2 DUP2 DUP6 DUP8 GAS CALL SWAP3 POP POP POP RETURNDATASIZE DUP1 PUSH1 0x0 DUP2 EQ PUSH2 0x1D3E JUMPI PUSH1 0x40 MLOAD SWAP2 POP PUSH1 0x1F NOT PUSH1 0x3F RETURNDATASIZE ADD AND DUP3 ADD PUSH1 0x40 MSTORE RETURNDATASIZE DUP3 MSTORE RETURNDATASIZE PUSH1 0x0 PUSH1 0x20 DUP5 ADD RETURNDATACOPY PUSH2 0x1D43 JUMP JUMPDEST PUSH1 0x60 SWAP2 POP JUMPDEST POP POP SWAP1 POP DUP1 PUSH2 0x1D82 JUMPI PUSH1 0x40 MLOAD PUSH3 0x461BCD PUSH1 0xE5 SHL DUP2 MSTORE PUSH1 0x20 PUSH1 0x4 DUP3 ADD MSTORE PUSH1 0xB PUSH1 0x24 DUP3 ADD MSTORE PUSH11 0x10D85B1B0819985A5B1959 PUSH1 0xAA SHL PUSH1 0x44 DUP3 ADD MSTORE PUSH1 0x64 ADD PUSH2 0x8B0 JUMP JUMPDEST PUSH1 0x40 DUP1 MLOAD ADDRESS DUP2 MSTORE CALLER PUSH1 0x20 DUP3 ADD MSTORE SELFBALANCE SWAP2 DUP2 ADD SWAP2 SWAP1 SWAP2 MSTORE PUSH1 0x0 DUP1 MLOAD PUSH1 0x20 PUSH2 0x5B3D DUP4 CODECOPY DUP2 MLOAD SWAP2 MSTORE SWAP1 PUSH1 0x60 ADD PUSH2 0x1A4F JUMP JUMPDEST PUSH1 0x0 PUSH1 0x60 PUSH1 0x0 PUSH2 0x1DC1 DUP6 DUP6 PUSH1 0x0 PUSH2 0xF8E JUMP JUMPDEST DUP2 MLOAD SWAP2 SWAP4 POP SWAP2 POP PUSH2 0x1DD7 JUMPI PUSH1 0x0 SWAP3 POP POP POP PUSH2 0x9A7 JUMP JUMPDEST PUSH2 0x1DE6 DUP6 DUP6 DUP5 PUSH1 0x4 PUSH1 0x0 PUSH2 0x3FDD JUMP JUMPDEST PUSH1 0x0 DUP6 DUP2 MSTORE PUSH1 0x1 PUSH1 0x20 MSTORE PUSH1 0x40 DUP2 KECCAK256 PUSH1 0xA ADD SLOAD PUSH2 0x100 SWAP1 DIV PUSH1 0xFF AND ISZERO PUSH2 0x1E7A JUMPI PUSH1 0x0 JUMPDEST DUP4 MLOAD DUP2 LT ISZERO PUSH2 0x1E74 JUMPI PUSH2 0x1E1A DUP8 PUSH2 0x2C38 JUMP JUMPDEST PUSH2 0x1C0 ADD MLOAD DUP5 DUP3 DUP2 MLOAD DUP2 LT PUSH2 0x1E31 JUMPI PUSH2 0x1E31 PUSH2 0x5AF0 JUMP JUMPDEST PUSH1 0x20 MUL PUSH1 0x20 ADD ADD MLOAD DUP2 MLOAD DUP2 LT PUSH2 0x1E49 JUMPI PUSH2 0x1E49 PUSH2 0x5AF0 JUMP JUMPDEST PUSH1 0x20 MUL PUSH1 0x20 ADD ADD MLOAD PUSH1 0x20 ADD MLOAD DUP3 PUSH2 0x1E60 SWAP2 SWAP1 PUSH2 0x5A04 JUMP JUMPDEST SWAP2 POP DUP1 PUSH2 0x1E6C DUP2 PUSH2 0x5AA9 JUMP JUMPDEST SWAP2 POP POP PUSH2 0x1E08 JUMP JUMPDEST POP PUSH2 0x1E8B JUMP JUMPDEST PUSH2 0x1E83 DUP7 PUSH2 0x2C38 JUMP JUMPDEST PUSH2 0x180 ADD MLOAD SWAP1 POP JUMPDEST PUSH1 0x0 PUSH20 0x0 PUSH4 0x4F6CA3CE PUSH2 0x1EB0 DUP5 PUSH2 0x25E4 JUMP JUMPDEST PUSH1 0x40 MLOAD DUP3 PUSH4 0xFFFFFFFF AND PUSH1 0xE0 SHL DUP2 MSTORE PUSH1 0x4 ADD PUSH2 0x1ECE SWAP2 DUP2 MSTORE PUSH1 0x20 ADD SWAP1 JUMP JUMPDEST PUSH1 0x20 PUSH1 0x40 MLOAD DUP1 DUP4 SUB DUP2 DUP7 DUP1 EXTCODESIZE ISZERO DUP1 ISZERO PUSH2 0x1EE6 JUMPI PUSH1 0x0 DUP1 REVERT JUMPDEST POP GAS DELEGATECALL ISZERO DUP1 ISZERO PUSH2 0x1EFA JUMPI RETURNDATASIZE PUSH1 0x0 DUP1 RETURNDATACOPY RETURNDATASIZE PUSH1 0x0 REVERT JUMPDEST POP POP POP POP PUSH1 0x40 MLOAD RETURNDATASIZE PUSH1 0x1F NOT PUSH1 0x1F DUP3 ADD AND DUP3 ADD DUP1 PUSH1 0x40 MSTORE POP DUP2 ADD SWAP1 PUSH2 0x1F1E SWAP2 SWAP1 PUSH2 0x4F2B JUMP JUMPDEST PUSH1 0x40 MLOAD PUSH4 0x9CE5C4BF PUSH1 0xE0 SHL DUP2 MSTORE PUSH1 0x4 DUP2 ADD DUP6 SWAP1 MSTORE PUSH1 0x24 DUP2 ADD DUP3 SWAP1 MSTORE SWAP1 SWAP2 POP PUSH1 0x0 SWAP1 PUSH20 0x0 SWAP1 PUSH4 0x9CE5C4BF SWAP1 PUSH1 0x44 ADD PUSH1 0x20 PUSH1 0x40 MLOAD DUP1 DUP4 SUB DUP2 DUP7 DUP1 EXTCODESIZE ISZERO DUP1 ISZERO PUSH2 0x1F76 JUMPI PUSH1 0x0 DUP1 REVERT JUMPDEST POP GAS DELEGATECALL ISZERO DUP1 ISZERO PUSH2 0x1F8A JUMPI RETURNDATASIZE PUSH1 0x0 DUP1 RETURNDATACOPY RETURNDATASIZE PUSH1 0x0 REVERT JUMPDEST POP POP POP POP PUSH1 0x40 MLOAD RETURNDATASIZE PUSH1 0x1F NOT PUSH1 0x1F DUP3 ADD AND DUP3 ADD DUP1 PUSH1 0x40 MSTORE POP DUP2 ADD SWAP1 PUSH2 0x1FAE SWAP2 SWAP1 PUSH2 0x4F2B JUMP JUMPDEST SWAP9 SWAP8 POP POP POP POP POP POP POP POP JUMP JUMPDEST PUSH1 0x1 PUSH1 0x1 PUSH1 0xA0 SHL SUB DUP3 AND PUSH1 0x0 SWAP1 DUP2 MSTORE PUSH1 0x2 PUSH1 0x20 MSTORE PUSH1 0x40 DUP2 KECCAK256 DUP1 SLOAD DUP4 SWAP3 SWAP1 PUSH2 0x1FE2 SWAP1 DUP5 SWAP1 PUSH2 0x5A04 JUMP JUMPDEST SWAP1 SWAP2 SSTORE POP POP POP POP JUMP JUMPDEST PUSH1 0x0 DUP4 DUP2 MSTORE PUSH1 0x1 PUSH1 0x20 SWAP1 DUP2 MSTORE PUSH1 0x40 DUP1 DUP4 KECCAK256 PUSH1 0x1 PUSH1 0x1 PUSH1 0xA0 SHL SUB DUP6 AND DUP5 MSTORE PUSH1 0x10 ADD SWAP1 SWAP2 MSTORE SWAP1 KECCAK256 DUP1 SLOAD PUSH2 0x2050 JUMPI PUSH1 0x0 DUP5 DUP2 MSTORE PUSH1 0x1 PUSH1 0x20 DUP2 DUP2 MSTORE PUSH1 0x40 DUP4 KECCAK256 PUSH1 0xE ADD DUP1 SLOAD SWAP3 DUP4 ADD DUP2 SSTORE DUP4 MSTORE SWAP1 SWAP2 KECCAK256 ADD DUP1 SLOAD PUSH1 0x1 PUSH1 0x1 PUSH1 0xA0 SHL SUB NOT AND PUSH1 0x1 PUSH1 0x1 PUSH1 0xA0 SHL SUB DUP5 AND OR SWAP1 SSTORE JUMPDEST PUSH1 0x0 DUP1 JUMPDEST DUP5 MLOAD DUP2 LT ISZERO PUSH2 0x22C1 JUMPI PUSH1 0x1 PUSH1 0x0 DUP8 DUP2 MSTORE PUSH1 0x20 ADD SWAP1 DUP2 MSTORE PUSH1 0x20 ADD PUSH1 0x0 KECCAK256 PUSH1 0xC ADD DUP6 DUP3 DUP2 MLOAD DUP2 LT PUSH2 0x2085 JUMPI PUSH2 0x2085 PUSH2 0x5AF0 JUMP JUMPDEST PUSH1 0x20 MUL PUSH1 0x20 ADD ADD MLOAD DUP2 SLOAD DUP2 LT PUSH2 0x209D JUMPI PUSH2 0x209D PUSH2 0x5AF0 JUMP JUMPDEST PUSH1 0x0 SWAP2 DUP3 MSTORE PUSH1 0x20 DUP3 KECCAK256 PUSH1 0x9 PUSH1 0xB SWAP1 SWAP3 MUL ADD ADD SLOAD PUSH1 0xFF AND SWAP3 POP DUP3 PUSH1 0xB DUP2 GT ISZERO PUSH2 0x20C7 JUMPI PUSH2 0x20C7 PUSH2 0x5ADA JUMP JUMPDEST EQ ISZERO PUSH2 0x218F JUMPI PUSH1 0x1 DUP1 PUSH1 0x0 DUP9 DUP2 MSTORE PUSH1 0x20 ADD SWAP1 DUP2 MSTORE PUSH1 0x20 ADD PUSH1 0x0 KECCAK256 PUSH1 0xC ADD DUP7 DUP4 DUP2 MLOAD DUP2 LT PUSH2 0x20F6 JUMPI PUSH2 0x20F6 PUSH2 0x5AF0 JUMP JUMPDEST PUSH1 0x20 MUL PUSH1 0x20 ADD ADD MLOAD DUP2 SLOAD DUP2 LT PUSH2 0x210E JUMPI PUSH2 0x210E PUSH2 0x5AF0 JUMP JUMPDEST SWAP1 PUSH1 0x0 MSTORE PUSH1 0x20 PUSH1 0x0 KECCAK256 SWAP1 PUSH1 0xB MUL ADD PUSH1 0x9 ADD PUSH1 0x0 PUSH2 0x100 EXP DUP2 SLOAD DUP2 PUSH1 0xFF MUL NOT AND SWAP1 DUP4 PUSH1 0xB DUP2 GT ISZERO PUSH2 0x2140 JUMPI PUSH2 0x2140 PUSH2 0x5ADA JUMP JUMPDEST MUL OR SWAP1 SSTORE POP PUSH1 0x0 DUP1 MLOAD PUSH1 0x20 PUSH2 0x5B1D DUP4 CODECOPY DUP2 MLOAD SWAP2 MSTORE DUP7 DUP7 DUP4 DUP2 MLOAD DUP2 LT PUSH2 0x2167 JUMPI PUSH2 0x2167 PUSH2 0x5AF0 JUMP JUMPDEST PUSH1 0x20 MUL PUSH1 0x20 ADD ADD MLOAD PUSH1 0x1 CALLER PUSH1 0x40 MLOAD PUSH2 0x2182 SWAP5 SWAP4 SWAP3 SWAP2 SWAP1 PUSH2 0x590C JUMP JUMPDEST PUSH1 0x40 MLOAD DUP1 SWAP2 SUB SWAP1 LOG1 PUSH2 0x227A JUMP JUMPDEST PUSH1 0x2 DUP3 PUSH1 0xB DUP2 GT ISZERO PUSH2 0x21A3 JUMPI PUSH2 0x21A3 PUSH2 0x5ADA JUMP JUMPDEST EQ ISZERO PUSH2 0x225F JUMPI PUSH1 0x3 PUSH1 0x1 PUSH1 0x0 DUP9 DUP2 MSTORE PUSH1 0x20 ADD SWAP1 DUP2 MSTORE PUSH1 0x20 ADD PUSH1 0x0 KECCAK256 PUSH1 0xC ADD DUP7 DUP4 DUP2 MLOAD DUP2 LT PUSH2 0x21D3 JUMPI PUSH2 0x21D3 PUSH2 0x5AF0 JUMP JUMPDEST PUSH1 0x20 MUL PUSH1 0x20 ADD ADD MLOAD DUP2 SLOAD DUP2 LT PUSH2 0x21EB JUMPI PUSH2 0x21EB PUSH2 0x5AF0 JUMP JUMPDEST SWAP1 PUSH1 0x0 MSTORE PUSH1 0x20 PUSH1 0x0 KECCAK256 SWAP1 PUSH1 0xB MUL ADD PUSH1 0x9 ADD PUSH1 0x0 PUSH2 0x100 EXP DUP2 SLOAD DUP2 PUSH1 0xFF MUL NOT AND SWAP1 DUP4 PUSH1 0xB DUP2 GT ISZERO PUSH2 0x221D JUMPI PUSH2 0x221D PUSH2 0x5ADA JUMP JUMPDEST MUL OR SWAP1 SSTORE POP PUSH1 0x0 DUP1 MLOAD PUSH1 0x20 PUSH2 0x5B1D DUP4 CODECOPY DUP2 MLOAD SWAP2 MSTORE DUP7 DUP7 DUP4 DUP2 MLOAD DUP2 LT PUSH2 0x2244 JUMPI PUSH2 0x2244 PUSH2 0x5AF0 JUMP JUMPDEST PUSH1 0x20 MUL PUSH1 0x20 ADD ADD MLOAD PUSH1 0x3 CALLER PUSH1 0x40 MLOAD PUSH2 0x2182 SWAP5 SWAP4 SWAP3 SWAP2 SWAP1 PUSH2 0x590C JUMP JUMPDEST DUP2 PUSH1 0x40 MLOAD PUSH4 0x66F643A5 PUSH1 0xE1 SHL DUP2 MSTORE PUSH1 0x4 ADD PUSH2 0x8B0 SWAP2 SWAP1 PUSH2 0x563D JUMP JUMPDEST DUP3 PUSH1 0x0 ADD DUP6 DUP3 DUP2 MLOAD DUP2 LT PUSH2 0x2290 JUMPI PUSH2 0x2290 PUSH2 0x5AF0 JUMP JUMPDEST PUSH1 0x20 SWAP1 DUP2 MUL SWAP2 SWAP1 SWAP2 ADD DUP2 ADD MLOAD DUP3 SLOAD PUSH1 0x1 DUP2 ADD DUP5 SSTORE PUSH1 0x0 SWAP4 DUP5 MSTORE SWAP2 SWAP1 SWAP3 KECCAK256 ADD SSTORE DUP1 PUSH2 0x22B9 DUP2 PUSH2 0x5AA9 JUMP JUMPDEST SWAP2 POP POP PUSH2 0x2054 JUMP JUMPDEST POP PUSH1 0x0 DUP6 DUP2 MSTORE PUSH1 0x1 PUSH1 0x20 MSTORE PUSH1 0x40 DUP2 KECCAK256 PUSH1 0x14 ADD DUP1 SLOAD SWAP2 PUSH2 0x22DF DUP4 PUSH2 0x5AA9 JUMP JUMPDEST SWAP2 SWAP1 POP SSTORE POP PUSH2 0x22EF DUP6 PUSH1 0x0 PUSH2 0xF0C JUMP JUMPDEST ISZERO PUSH2 0x15A2 JUMPI PUSH1 0x0 DUP6 DUP2 MSTORE PUSH1 0x1 PUSH1 0x20 SWAP1 DUP2 MSTORE PUSH1 0x40 DUP1 DUP4 KECCAK256 PUSH1 0x15 ADD DUP1 SLOAD PUSH2 0xFF00 NOT AND SWAP1 SSTORE DUP1 MLOAD DUP9 DUP2 MSTORE SWAP2 DUP3 ADD SWAP3 SWAP1 SWAP3 MSTORE CALLER SWAP2 DUP2 ADD SWAP2 SWAP1 SWAP2 MSTORE PUSH32 0x89BB035780742B4FE520972847D93DB0618ABD46516AF218E10FD3479347B7E4 SWAP1 PUSH1 0x60 ADD JUMPDEST PUSH1 0x40 MLOAD DUP1 SWAP2 SUB SWAP1 LOG1 POP POP POP POP POP JUMP JUMPDEST PUSH1 0x1 PUSH1 0x1 PUSH1 0xA0 SHL SUB DUP3 AND PUSH1 0x0 SWAP1 DUP2 MSTORE PUSH1 0x2 PUSH1 0x20 MSTORE PUSH1 0x40 DUP2 KECCAK256 DUP1 SLOAD DUP4 SWAP3 SWAP1 PUSH2 0x1FE2 SWAP1 DUP5 SWAP1 PUSH2 0x5A5D JUMP JUMPDEST PUSH1 0x0 SLOAD PUSH1 0x1 PUSH1 0xA0 SHL SWAP1 DIV PUSH1 0xFF AND ISZERO PUSH2 0x23D2 JUMPI PUSH1 0x40 MLOAD PUSH3 0x461BCD PUSH1 0xE5 SHL DUP2 MSTORE PUSH1 0x20 PUSH1 0x4 DUP3 ADD MSTORE PUSH1 0x13 PUSH1 0x24 DUP3 ADD MSTORE PUSH19 0x2A3432903637B1B59034B9903637B1B5B2B217 PUSH1 0x69 SHL PUSH1 0x44 DUP3 ADD MSTORE PUSH1 0x64 ADD PUSH2 0x8B0 JUMP JUMPDEST PUSH1 0x0 DUP1 SLOAD PUSH1 0xFF PUSH1 0xA0 SHL NOT AND PUSH1 0x1 PUSH1 0xA0 SHL OR DUP2 SSTORE PUSH1 0x40 MLOAD PUSH1 0x1 PUSH1 0x1 PUSH1 0xA0 SHL SUB DUP5 AND SWAP1 DUP4 SWAP1 DUP4 DUP2 DUP2 DUP2 DUP6 DUP8 GAS CALL SWAP3 POP POP POP RETURNDATASIZE DUP1 PUSH1 0x0 DUP2 EQ PUSH2 0x242D JUMPI PUSH1 0x40 MLOAD SWAP2 POP PUSH1 0x1F NOT PUSH1 0x3F RETURNDATASIZE ADD AND DUP3 ADD PUSH1 0x40 MSTORE RETURNDATASIZE DUP3 MSTORE RETURNDATASIZE PUSH1 0x0 PUSH1 0x20 DUP5 ADD RETURNDATACOPY PUSH2 0x2432 JUMP JUMPDEST PUSH1 0x60 SWAP2 POP JUMPDEST POP POP SWAP1 POP DUP1 PUSH2 0x2471 JUMPI PUSH1 0x40 MLOAD PUSH3 0x461BCD PUSH1 0xE5 SHL DUP2 MSTORE PUSH1 0x20 PUSH1 0x4 DUP3 ADD MSTORE PUSH1 0xB PUSH1 0x24 DUP3 ADD MSTORE PUSH11 0x10D85B1B0819985A5B1959 PUSH1 0xAA SHL PUSH1 0x44 DUP3 ADD MSTORE PUSH1 0x64 ADD PUSH2 0x8B0 JUMP JUMPDEST PUSH1 0x40 DUP1 MLOAD CALLER DUP2 MSTORE PUSH1 0x1 PUSH1 0x1 PUSH1 0xA0 SHL SUB DUP6 AND PUSH1 0x20 DUP3 ADD MSTORE SWAP1 DUP2 ADD DUP4 SWAP1 MSTORE PUSH1 0x0 DUP1 MLOAD PUSH1 0x20 PUSH2 0x5B3D DUP4 CODECOPY DUP2 MLOAD SWAP2 MSTORE SWAP1 PUSH1 0x60 ADD PUSH1 0x40 MLOAD DUP1 SWAP2 SUB SWAP1 LOG1 POP POP PUSH1 0x0 DUP1 SLOAD PUSH1 0xFF PUSH1 0xA0 SHL NOT AND SWAP1 SSTORE POP JUMP JUMPDEST PUSH1 0x0 PUSH1 0x60 PUSH1 0x0 PUSH2 0x24CC DUP6 DUP6 PUSH1 0x1 PUSH2 0xF8E JUMP JUMPDEST DUP2 MLOAD SWAP2 SWAP4 POP SWAP2 POP PUSH2 0x24E2 JUMPI PUSH1 0x0 SWAP3 POP POP POP PUSH2 0x9A7 JUMP JUMPDEST PUSH2 0x24F1 DUP6 DUP6 DUP5 PUSH1 0x4 PUSH1 0x1 PUSH2 0x3FDD JUMP JUMPDEST PUSH1 0x0 DUP6 DUP2 MSTORE PUSH1 0x1 PUSH1 0x20 MSTORE PUSH1 0x40 DUP2 KECCAK256 PUSH1 0xA ADD SLOAD PUSH2 0x100 SWAP1 DIV PUSH1 0xFF AND ISZERO PUSH2 0x2585 JUMPI PUSH1 0x0 JUMPDEST DUP4 MLOAD DUP2 LT ISZERO PUSH2 0x257F JUMPI PUSH2 0x2525 DUP8 PUSH2 0x2C38 JUMP JUMPDEST PUSH2 0x1C0 ADD MLOAD DUP5 DUP3 DUP2 MLOAD DUP2 LT PUSH2 0x253C JUMPI PUSH2 0x253C PUSH2 0x5AF0 JUMP JUMPDEST PUSH1 0x20 MUL PUSH1 0x20 ADD ADD MLOAD DUP2 MLOAD DUP2 LT PUSH2 0x2554 JUMPI PUSH2 0x2554 PUSH2 0x5AF0 JUMP JUMPDEST PUSH1 0x20 MUL PUSH1 0x20 ADD ADD MLOAD PUSH1 0x20 ADD MLOAD DUP3 PUSH2 0x256B SWAP2 SWAP1 PUSH2 0x5A04 JUMP JUMPDEST SWAP2 POP DUP1 PUSH2 0x2577 DUP2 PUSH2 0x5AA9 JUMP JUMPDEST SWAP2 POP POP PUSH2 0x2513 JUMP JUMPDEST POP PUSH2 0x2596 JUMP JUMPDEST PUSH2 0x258E DUP7 PUSH2 0x2C38 JUMP JUMPDEST PUSH2 0x180 ADD MLOAD SWAP1 POP JUMPDEST PUSH1 0x0 PUSH20 0x0 PUSH4 0x4F6CA3CE PUSH2 0x1EB0 DUP5 PUSH2 0x41A9 JUMP JUMPDEST DUP1 ISZERO PUSH2 0x25D1 JUMPI PUSH2 0x25CC DUP5 DUP5 DUP5 PUSH2 0x41B6 JUMP JUMPDEST PUSH2 0x25DE JUMP JUMPDEST PUSH2 0x25DE DUP5 DUP5 DUP5 PUSH1 0x0 PUSH2 0x3DE2 JUMP JUMPDEST POP POP POP POP JUMP JUMPDEST PUSH1 0x0 PUSH2 0x9A7 DUP3 PUSH1 0x24 PUSH2 0x1A5B JUMP JUMPDEST PUSH1 0x0 PUSH2 0x9A7 DUP3 PUSH1 0x18 PUSH2 0x1A5B JUMP JUMPDEST PUSH1 0x0 DUP1 SLOAD PUSH1 0x1 PUSH1 0x1 PUSH1 0xA0 SHL SUB DUP4 DUP2 AND PUSH1 0x1 PUSH1 0x1 PUSH1 0xA0 SHL SUB NOT DUP4 AND DUP2 OR DUP5 SSTORE PUSH1 0x40 MLOAD SWAP2 SWAP1 SWAP3 AND SWAP3 DUP4 SWAP2 PUSH32 0x8BE0079C531659141344CD1FD0A4F28419497F9722A3DAAFE3B4186F6B6457E0 SWAP2 SWAP1 LOG3 POP POP JUMP JUMPDEST PUSH1 0x40 MLOAD PUSH1 0x0 SWAP1 PUSH20 0x6CA0189BAF54F88684ED158193021E45745F810E SWAP1 SELFBALANCE SWAP1 DUP4 DUP2 DUP2 DUP2 DUP6 DUP8 GAS CALL SWAP3 POP POP POP RETURNDATASIZE DUP1 PUSH1 0x0 DUP2 EQ PUSH2 0x26A4 JUMPI PUSH1 0x40 MLOAD SWAP2 POP PUSH1 0x1F NOT PUSH1 0x3F RETURNDATASIZE ADD AND DUP3 ADD PUSH1 0x40 MSTORE RETURNDATASIZE DUP3 MSTORE RETURNDATASIZE PUSH1 0x0 PUSH1 0x20 DUP5 ADD RETURNDATACOPY PUSH2 0x26A9 JUMP JUMPDEST PUSH1 0x60 SWAP2 POP JUMPDEST POP POP SWAP1 POP DUP1 PUSH2 0x26E8 JUMPI PUSH1 0x40 MLOAD PUSH3 0x461BCD PUSH1 0xE5 SHL DUP2 MSTORE PUSH1 0x20 PUSH1 0x4 DUP3 ADD MSTORE PUSH1 0xB PUSH1 0x24 DUP3 ADD MSTORE PUSH11 0x10D85B1B0819985A5B1959 PUSH1 0xAA SHL PUSH1 0x44 DUP3 ADD MSTORE PUSH1 0x64 ADD PUSH2 0x8B0 JUMP JUMPDEST PUSH1 0x40 DUP1 MLOAD ADDRESS DUP2 MSTORE CALLER PUSH1 0x20 DUP3 ADD MSTORE SELFBALANCE SWAP2 DUP2 ADD SWAP2 SWAP1 SWAP2 MSTORE PUSH1 0x0 DUP1 MLOAD PUSH1 0x20 PUSH2 0x5B3D DUP4 CODECOPY DUP2 MLOAD SWAP2 MSTORE SWAP1 PUSH1 0x60 ADD PUSH2 0xD10 JUMP JUMPDEST PUSH1 0x0 DUP2 DUP2 MSTORE PUSH1 0x1 PUSH1 0x20 MSTORE PUSH1 0x40 DUP2 KECCAK256 PUSH1 0xD ADD SLOAD PUSH1 0x0 PUSH2 0x2732 DUP5 PUSH2 0x15A9 JUMP JUMPDEST SWAP1 POP PUSH2 0x273F DUP5 PUSH1 0x1 PUSH2 0xF0C JUMP JUMPDEST ISZERO PUSH2 0x274E JUMPI POP PUSH1 0x1 SWAP4 SWAP3 POP POP POP JUMP JUMPDEST DUP2 PUSH2 0x2766 JUMPI PUSH2 0x275C DUP5 PUSH2 0x42A2 JUMP JUMPDEST POP PUSH1 0x0 SWAP4 SWAP3 POP POP POP JUMP JUMPDEST DUP1 MLOAD DUP3 PUSH1 0x0 PUSH2 0x2775 DUP3 DUP5 PUSH2 0x5A1C JUMP JUMPDEST SWAP1 POP PUSH1 0x0 PUSH2 0x2782 DUP9 PUSH2 0x12C2 JUMP JUMPDEST SWAP1 POP PUSH1 0x0 JUMPDEST DUP6 MLOAD DUP2 LT ISZERO PUSH2 0x28CA JUMPI PUSH1 0x0 DUP7 DUP3 DUP2 MLOAD DUP2 LT PUSH2 0x27A4 JUMPI PUSH2 0x27A4 PUSH2 0x5AF0 JUMP JUMPDEST PUSH1 0x20 MUL PUSH1 0x20 ADD ADD MLOAD PUSH1 0x60 ADD MLOAD PUSH1 0xB DUP2 GT ISZERO PUSH2 0x27C1 JUMPI PUSH2 0x27C1 PUSH2 0x5ADA JUMP JUMPDEST EQ ISZERO PUSH2 0x28B8 JUMPI PUSH1 0x0 JUMPDEST DUP8 DUP2 LT ISZERO PUSH2 0x28B6 JUMPI DUP4 PUSH2 0x27F6 DUP12 DUP6 DUP5 DUP2 MLOAD DUP2 LT PUSH2 0x27E9 JUMPI PUSH2 0x27E9 PUSH2 0x5AF0 JUMP JUMPDEST PUSH1 0x20 MUL PUSH1 0x20 ADD ADD MLOAD PUSH2 0x980 JUMP JUMPDEST GT ISZERO PUSH2 0x2801 JUMPI PUSH2 0x28A4 JUMP JUMPDEST PUSH2 0x2827 DUP11 DUP4 DUP6 DUP5 DUP2 MLOAD DUP2 LT PUSH2 0x2818 JUMPI PUSH2 0x2818 PUSH2 0x5AF0 JUMP JUMPDEST PUSH1 0x20 MUL PUSH1 0x20 ADD ADD MLOAD PUSH1 0x1 PUSH2 0x42FC JUMP JUMPDEST PUSH32 0xAD65127436138B4AFE97EF23BAF28ED14A5FB09500AD117EB196CD3BDB3DBE9F DUP11 DUP4 DUP6 DUP5 DUP2 MLOAD DUP2 LT PUSH2 0x285C JUMPI PUSH2 0x285C PUSH2 0x5AF0 JUMP JUMPDEST PUSH1 0x20 MUL PUSH1 0x20 ADD ADD MLOAD PUSH1 0x1 PUSH1 0x40 MLOAD PUSH2 0x2897 SWAP5 SWAP4 SWAP3 SWAP2 SWAP1 SWAP4 DUP5 MSTORE PUSH1 0x20 DUP5 ADD SWAP3 SWAP1 SWAP3 MSTORE PUSH1 0x1 PUSH1 0x1 PUSH1 0xA0 SHL SUB AND PUSH1 0x40 DUP4 ADD MSTORE ISZERO ISZERO PUSH1 0x60 DUP3 ADD MSTORE PUSH1 0x80 ADD SWAP1 JUMP JUMPDEST PUSH1 0x40 MLOAD DUP1 SWAP2 SUB SWAP1 LOG1 PUSH2 0x28B6 JUMP JUMPDEST DUP1 PUSH2 0x28AE DUP2 PUSH2 0x5AA9 JUMP JUMPDEST SWAP2 POP POP PUSH2 0x27CA JUMP JUMPDEST POP JUMPDEST DUP1 PUSH2 0x28C2 DUP2 PUSH2 0x5AA9 JUMP JUMPDEST SWAP2 POP POP PUSH2 0x2787 JUMP JUMPDEST POP PUSH2 0x28D4 DUP9 PUSH2 0x42A2 JUMP JUMPDEST POP PUSH1 0x0 SWAP8 SWAP7 POP POP POP POP POP POP POP JUMP JUMPDEST PUSH1 0x0 DUP3 DUP2 MSTORE PUSH1 0x1 PUSH1 0x20 MSTORE PUSH1 0x40 SWAP1 KECCAK256 PUSH1 0xC ADD DUP1 SLOAD PUSH1 0xB SWAP2 SWAP1 DUP4 SWAP1 DUP2 LT PUSH2 0x2909 JUMPI PUSH2 0x2909 PUSH2 0x5AF0 JUMP JUMPDEST SWAP1 PUSH1 0x0 MSTORE PUSH1 0x20 PUSH1 0x0 KECCAK256 SWAP1 PUSH1 0xB MUL ADD PUSH1 0x9 ADD PUSH1 0x0 PUSH2 0x100 EXP DUP2 SLOAD DUP2 PUSH1 0xFF MUL NOT AND SWAP1 DUP4 PUSH1 0xB DUP2 GT ISZERO PUSH2 0x293B JUMPI PUSH2 0x293B PUSH2 0x5ADA JUMP JUMPDEST MUL OR SWAP1 SSTORE POP PUSH1 0x0 DUP1 MLOAD PUSH1 0x20 PUSH2 0x5B1D DUP4 CODECOPY DUP2 MLOAD SWAP2 MSTORE DUP3 DUP3 PUSH1 0xB CALLER PUSH1 0x40 MLOAD PUSH2 0x1A4F SWAP5 SWAP4 SWAP3 SWAP2 SWAP1 PUSH2 0x590C JUMP JUMPDEST PUSH1 0x0 PUSH2 0x296E PUSH2 0x1C7F JUMP JUMPDEST PUSH1 0x0 DUP3 DUP2 MSTORE PUSH1 0x1 PUSH1 0x20 MSTORE PUSH1 0x40 DUP2 KECCAK256 PUSH1 0xE DUP2 ADD SLOAD PUSH1 0xD SWAP1 SWAP2 ADD SLOAD SWAP1 SWAP2 PUSH2 0x2992 DUP6 PUSH2 0x15A9 JUMP JUMPDEST SWAP1 POP PUSH2 0x299F DUP6 PUSH1 0x0 PUSH2 0xF0C JUMP JUMPDEST ISZERO PUSH2 0x29AF JUMPI POP PUSH1 0x1 SWAP5 SWAP4 POP POP POP POP JUMP JUMPDEST DUP3 ISZERO DUP1 ISZERO PUSH2 0x29BC JUMPI POP DUP2 ISZERO ISZERO JUMPDEST ISZERO PUSH2 0x29D5 JUMPI PUSH2 0x29CA DUP6 PUSH2 0x43DF JUMP JUMPDEST POP PUSH1 0x0 SWAP5 SWAP4 POP POP POP POP JUMP JUMPDEST DUP3 ISZERO DUP1 ISZERO PUSH2 0x29E1 JUMPI POP DUP2 ISZERO JUMPDEST ISZERO PUSH2 0x2A34 JUMPI PUSH2 0x29EF DUP6 PUSH2 0x443A JUMP JUMPDEST PUSH1 0x0 DUP6 DUP2 MSTORE PUSH1 0x1 PUSH1 0x20 MSTORE PUSH1 0x40 DUP2 KECCAK256 DUP1 SLOAD PUSH1 0xB SWAP1 SWAP2 ADD SLOAD PUSH1 0x1 PUSH1 0x1 PUSH1 0xA0 SHL SUB SWAP1 SWAP2 AND SWAP2 SWAP1 PUSH2 0x2A1B SWAP1 PUSH2 0x13EF JUMP JUMPDEST SWAP1 POP PUSH2 0x2A27 DUP3 DUP3 PUSH2 0x1B61 JUMP JUMPDEST POP PUSH1 0x0 SWAP7 SWAP6 POP POP POP POP POP POP JUMP JUMPDEST DUP1 MLOAD DUP4 PUSH1 0x0 PUSH2 0x2A43 DUP3 DUP5 PUSH2 0x5A1C JUMP JUMPDEST SWAP1 POP PUSH1 0x0 PUSH2 0x2A50 DUP10 PUSH2 0x149C JUMP JUMPDEST SWAP1 POP PUSH1 0x0 JUMPDEST DUP6 MLOAD DUP2 LT ISZERO PUSH2 0x2BBF JUMPI PUSH1 0x0 DUP7 DUP3 DUP2 MLOAD DUP2 LT PUSH2 0x2A72 JUMPI PUSH2 0x2A72 PUSH2 0x5AF0 JUMP JUMPDEST PUSH1 0x20 MUL PUSH1 0x20 ADD ADD MLOAD PUSH1 0x60 ADD MLOAD PUSH1 0xB DUP2 GT ISZERO PUSH2 0x2A8F JUMPI PUSH2 0x2A8F PUSH2 0x5ADA JUMP JUMPDEST EQ ISZERO PUSH2 0x2BAD JUMPI PUSH1 0x0 JUMPDEST DUP9 DUP2 LT ISZERO PUSH2 0x2BAB JUMPI DUP4 PUSH2 0x2AEB DUP13 DUP6 DUP5 DUP2 MLOAD DUP2 LT PUSH2 0x2AB7 JUMPI PUSH2 0x2AB7 PUSH2 0x5AF0 JUMP JUMPDEST PUSH1 0x20 MUL PUSH1 0x20 ADD ADD MLOAD PUSH1 0x0 DUP3 DUP2 MSTORE PUSH1 0x1 PUSH1 0x20 SWAP1 DUP2 MSTORE PUSH1 0x40 DUP1 DUP4 KECCAK256 PUSH1 0x1 PUSH1 0x1 PUSH1 0xA0 SHL SUB DUP6 AND DUP5 MSTORE PUSH1 0x10 ADD SWAP1 SWAP2 MSTORE SWAP1 KECCAK256 SLOAD SWAP3 SWAP2 POP POP JUMP JUMPDEST GT ISZERO PUSH2 0x2AF6 JUMPI PUSH2 0x2B99 JUMP JUMPDEST PUSH2 0x2B1C DUP12 DUP4 DUP6 DUP5 DUP2 MLOAD DUP2 LT PUSH2 0x2B0D JUMPI PUSH2 0x2B0D PUSH2 0x5AF0 JUMP JUMPDEST PUSH1 0x20 MUL PUSH1 0x20 ADD ADD MLOAD PUSH1 0x0 PUSH2 0x42FC JUMP JUMPDEST PUSH32 0xAD65127436138B4AFE97EF23BAF28ED14A5FB09500AD117EB196CD3BDB3DBE9F DUP12 DUP4 DUP6 DUP5 DUP2 MLOAD DUP2 LT PUSH2 0x2B51 JUMPI PUSH2 0x2B51 PUSH2 0x5AF0 JUMP JUMPDEST PUSH1 0x20 MUL PUSH1 0x20 ADD ADD MLOAD PUSH1 0x0 PUSH1 0x40 MLOAD PUSH2 0x2B8C SWAP5 SWAP4 SWAP3 SWAP2 SWAP1 SWAP4 DUP5 MSTORE PUSH1 0x20 DUP5 ADD SWAP3 SWAP1 SWAP3 MSTORE PUSH1 0x1 PUSH1 0x1 PUSH1 0xA0 SHL SUB AND PUSH1 0x40 DUP4 ADD MSTORE ISZERO ISZERO PUSH1 0x60 DUP3 ADD MSTORE PUSH1 0x80 ADD SWAP1 JUMP JUMPDEST PUSH1 0x40 MLOAD DUP1 SWAP2 SUB SWAP1 LOG1 PUSH2 0x2BAB JUMP JUMPDEST DUP1 PUSH2 0x2BA3 DUP2 PUSH2 0x5AA9 JUMP JUMPDEST SWAP2 POP POP PUSH2 0x2A98 JUMP JUMPDEST POP JUMPDEST DUP1 PUSH2 0x2BB7 DUP2 PUSH2 0x5AA9 JUMP JUMPDEST SWAP2 POP POP PUSH2 0x2A55 JUMP JUMPDEST POP PUSH2 0x2BC9 DUP10 PUSH2 0x43DF JUMP JUMPDEST POP PUSH1 0x0 SWAP9 SWAP8 POP POP POP POP POP POP POP POP JUMP JUMPDEST SWAP2 SWAP1 POP JUMP JUMPDEST PUSH1 0x0 DUP1 PUSH2 0x2BE9 DUP4 PUSH2 0x44F2 JUMP JUMPDEST SWAP1 POP PUSH32 0x9096640C11BD5636CED741C9725E5FF774B334455C80E15491F15BB3AF0BC265 CALLER DUP3 DUP6 PUSH1 0x40 MLOAD PUSH2 0x2C1E SWAP4 SWAP3 SWAP2 SWAP1 PUSH2 0x5428 JUMP JUMPDEST PUSH1 0x40 MLOAD DUP1 SWAP2 SUB SWAP1 LOG1 SWAP3 SWAP2 POP POP JUMP JUMPDEST PUSH2 0xF89 DUP4 CALLER DUP5 DUP5 PUSH2 0x47B0 JUMP JUMPDEST PUSH2 0x2C40 PUSH2 0x491A JUMP JUMPDEST PUSH2 0x2C48 PUSH2 0x491A JUMP JUMPDEST PUSH1 0x0 DUP4 DUP2 MSTORE PUSH1 0x1 PUSH1 0x20 DUP2 DUP2 MSTORE PUSH1 0x40 DUP4 KECCAK256 DUP1 SLOAD PUSH1 0x1 PUSH1 0x1 PUSH1 0xA0 SHL SUB AND DUP6 MSTORE DUP1 DUP4 ADD SLOAD DUP6 DUP4 ADD MSTORE SWAP3 DUP7 SWAP1 MSTORE MSTORE PUSH1 0x2 ADD DUP1 SLOAD PUSH2 0x2C80 SWAP1 PUSH2 0x5A74 JUMP JUMPDEST DUP1 PUSH1 0x1F ADD PUSH1 0x20 DUP1 SWAP2 DIV MUL PUSH1 0x20 ADD PUSH1 0x40 MLOAD SWAP1 DUP2 ADD PUSH1 0x40 MSTORE DUP1 SWAP3 SWAP2 SWAP1 DUP2 DUP2 MSTORE PUSH1 0x20 ADD DUP3 DUP1 SLOAD PUSH2 0x2CAC SWAP1 PUSH2 0x5A74 JUMP JUMPDEST DUP1 ISZERO PUSH2 0x2CF9 JUMPI DUP1 PUSH1 0x1F LT PUSH2 0x2CCE JUMPI PUSH2 0x100 DUP1 DUP4 SLOAD DIV MUL DUP4 MSTORE SWAP2 PUSH1 0x20 ADD SWAP2 PUSH2 0x2CF9 JUMP JUMPDEST DUP3 ADD SWAP2 SWAP1 PUSH1 0x0 MSTORE PUSH1 0x20 PUSH1 0x0 KECCAK256 SWAP1 JUMPDEST DUP2 SLOAD DUP2 MSTORE SWAP1 PUSH1 0x1 ADD SWAP1 PUSH1 0x20 ADD DUP1 DUP4 GT PUSH2 0x2CDC JUMPI DUP3 SWAP1 SUB PUSH1 0x1F AND DUP3 ADD SWAP2 JUMPDEST POP POP POP POP PUSH1 0x40 DUP1 DUP5 ADD SWAP3 SWAP1 SWAP3 MSTORE POP PUSH1 0x0 DUP5 DUP2 MSTORE PUSH1 0x1 PUSH1 0x20 MSTORE KECCAK256 PUSH1 0x3 ADD DUP1 SLOAD PUSH2 0x2D20 SWAP1 PUSH2 0x5A74 JUMP JUMPDEST DUP1 PUSH1 0x1F ADD PUSH1 0x20 DUP1 SWAP2 DIV MUL PUSH1 0x20 ADD PUSH1 0x40 MLOAD SWAP1 DUP2 ADD PUSH1 0x40 MSTORE DUP1 SWAP3 SWAP2 SWAP1 DUP2 DUP2 MSTORE PUSH1 0x20 ADD DUP3 DUP1 SLOAD PUSH2 0x2D4C SWAP1 PUSH2 0x5A74 JUMP JUMPDEST DUP1 ISZERO PUSH2 0x2D99 JUMPI DUP1 PUSH1 0x1F LT PUSH2 0x2D6E JUMPI PUSH2 0x100 DUP1 DUP4 SLOAD DIV MUL DUP4 MSTORE SWAP2 PUSH1 0x20 ADD SWAP2 PUSH2 0x2D99 JUMP JUMPDEST DUP3 ADD SWAP2 SWAP1 PUSH1 0x0 MSTORE PUSH1 0x20 PUSH1 0x0 KECCAK256 SWAP1 JUMPDEST DUP2 SLOAD DUP2 MSTORE SWAP1 PUSH1 0x1 ADD SWAP1 PUSH1 0x20 ADD DUP1 DUP4 GT PUSH2 0x2D7C JUMPI DUP3 SWAP1 SUB PUSH1 0x1F AND DUP3 ADD SWAP2 JUMPDEST POP POP POP POP POP PUSH1 0x60 DUP3 ADD MSTORE PUSH1 0x0 DUP4 DUP2 MSTORE PUSH1 0x1 PUSH1 0x20 DUP2 DUP2 MSTORE PUSH1 0x40 DUP1 DUP5 KECCAK256 PUSH1 0x4 DUP2 ADD SLOAD PUSH1 0x80 DUP8 ADD MSTORE PUSH1 0x5 DUP2 ADD SLOAD PUSH1 0xA0 DUP8 ADD MSTORE PUSH1 0x6 DUP2 ADD SLOAD PUSH1 0xC0 DUP8 ADD MSTORE SWAP4 DUP8 SWAP1 MSTORE SWAP2 DUP2 MSTORE PUSH1 0x7 SWAP1 SWAP3 ADD DUP1 SLOAD DUP3 MLOAD DUP2 DUP6 MUL DUP2 ADD DUP6 ADD SWAP1 SWAP4 MSTORE DUP1 DUP4 MSTORE SWAP2 SWAP3 SWAP1 SWAP2 SWAP1 DUP4 ADD DUP3 DUP3 DUP1 ISZERO PUSH2 0x2E23 JUMPI PUSH1 0x20 MUL DUP3 ADD SWAP2 SWAP1 PUSH1 0x0 MSTORE PUSH1 0x20 PUSH1 0x0 KECCAK256 SWAP1 JUMPDEST DUP2 SLOAD DUP2 MSTORE PUSH1 0x20 ADD SWAP1 PUSH1 0x1 ADD SWAP1 DUP1 DUP4 GT PUSH2 0x2E0F JUMPI JUMPDEST POP POP POP POP POP PUSH1 0xE0 DUP3 ADD MSTORE PUSH1 0x0 DUP4 DUP2 MSTORE PUSH1 0x1 PUSH1 0x20 DUP2 DUP2 MSTORE PUSH1 0x40 DUP4 KECCAK256 PUSH1 0x8 DUP2 ADD SLOAD PUSH2 0x100 DUP1 DUP8 ADD SWAP2 SWAP1 SWAP2 MSTORE PUSH1 0x9 DUP3 ADD SLOAD PUSH2 0x120 DUP8 ADD MSTORE PUSH1 0xA DUP3 ADD SLOAD PUSH1 0xFF DUP1 DUP3 AND ISZERO ISZERO PUSH2 0x140 DUP10 ADD MSTORE SWAP1 DUP3 SWAP1 DIV DUP2 AND ISZERO ISZERO PUSH2 0x160 DUP9 ADD MSTORE PUSH1 0xB DUP4 ADD SLOAD PUSH2 0x180 DUP9 ADD MSTORE PUSH1 0x11 DUP4 ADD SLOAD PUSH2 0x220 DUP9 ADD MSTORE PUSH1 0x12 DUP4 ADD SLOAD PUSH2 0x240 DUP9 ADD MSTORE PUSH1 0x13 DUP4 ADD SLOAD PUSH2 0x260 DUP9 ADD MSTORE PUSH1 0x14 DUP4 ADD SLOAD PUSH2 0x280 DUP9 ADD MSTORE PUSH1 0x15 SWAP1 SWAP3 ADD SLOAD DUP1 DUP4 AND ISZERO ISZERO PUSH2 0x2A0 DUP9 ADD MSTORE SWAP1 DUP2 DIV DUP3 AND ISZERO ISZERO PUSH2 0x2C0 DUP8 ADD MSTORE SWAP4 DUP8 SWAP1 MSTORE SWAP2 SWAP1 MSTORE PUSH2 0x2E0 DUP4 ADD SWAP2 PUSH3 0x10000 SWAP1 DIV AND PUSH1 0x6 DUP2 GT ISZERO PUSH2 0x2EF1 JUMPI PUSH2 0x2EF1 PUSH2 0x5ADA JUMP JUMPDEST SWAP1 DUP2 PUSH1 0x6 DUP2 GT ISZERO PUSH2 0x2F04 JUMPI PUSH2 0x2F04 PUSH2 0x5ADA JUMP JUMPDEST SWAP1 MSTORE POP PUSH1 0x0 DUP4 DUP2 MSTORE PUSH1 0x1 PUSH1 0x20 SWAP1 DUP2 MSTORE PUSH1 0x40 DUP1 DUP4 KECCAK256 PUSH1 0xC ADD DUP1 SLOAD DUP3 MLOAD DUP2 DUP6 MUL DUP2 ADD DUP6 ADD SWAP1 SWAP4 MSTORE DUP1 DUP4 MSTORE SWAP2 SWAP4 SWAP1 SWAP3 DUP5 ADD JUMPDEST DUP3 DUP3 LT ISZERO PUSH2 0x31A1 JUMPI PUSH1 0x0 DUP5 DUP2 MSTORE PUSH1 0x20 SWAP1 KECCAK256 PUSH1 0x40 DUP1 MLOAD PUSH2 0x180 DUP2 ADD SWAP1 SWAP2 MSTORE PUSH1 0xB DUP5 MUL SWAP1 SWAP2 ADD DUP1 SLOAD DUP3 SWAP1 PUSH1 0xA0 DUP3 ADD SWAP1 DUP4 SWAP1 DUP3 SWAP1 DUP3 SWAP1 PUSH2 0x2F6F SWAP1 PUSH2 0x5A74 JUMP JUMPDEST DUP1 PUSH1 0x1F ADD PUSH1 0x20 DUP1 SWAP2 DIV MUL PUSH1 0x20 ADD PUSH1 0x40 MLOAD SWAP1 DUP2 ADD PUSH1 0x40 MSTORE DUP1 SWAP3 SWAP2 SWAP1 DUP2 DUP2 MSTORE PUSH1 0x20 ADD DUP3 DUP1 SLOAD PUSH2 0x2F9B SWAP1 PUSH2 0x5A74 JUMP JUMPDEST DUP1 ISZERO PUSH2 0x2FE8 JUMPI DUP1 PUSH1 0x1F LT PUSH2 0x2FBD JUMPI PUSH2 0x100 DUP1 DUP4 SLOAD DIV MUL DUP4 MSTORE SWAP2 PUSH1 0x20 ADD SWAP2 PUSH2 0x2FE8 JUMP JUMPDEST DUP3 ADD SWAP2 SWAP1 PUSH1 0x0 MSTORE PUSH1 0x20 PUSH1 0x0 KECCAK256 SWAP1 JUMPDEST DUP2 SLOAD DUP2 MSTORE SWAP1 PUSH1 0x1 ADD SWAP1 PUSH1 0x20 ADD DUP1 DUP4 GT PUSH2 0x2FCB JUMPI DUP3 SWAP1 SUB PUSH1 0x1F AND DUP3 ADD SWAP2 JUMPDEST POP POP POP POP POP DUP2 MSTORE PUSH1 0x20 ADD PUSH1 0x1 DUP3 ADD SLOAD DUP2 MSTORE PUSH1 0x20 ADD PUSH1 0x2 DUP3 ADD SLOAD DUP2 MSTORE PUSH1 0x20 ADD PUSH1 0x3 DUP3 ADD SLOAD DUP2 MSTORE PUSH1 0x20 ADD PUSH1 0x4 DUP3 ADD SLOAD DUP2 MSTORE PUSH1 0x20 ADD PUSH1 0x5 DUP3 ADD SLOAD DUP2 MSTORE PUSH1 0x20 ADD PUSH1 0x6 DUP3 ADD DUP1 SLOAD PUSH2 0x3033 SWAP1 PUSH2 0x5A74 JUMP JUMPDEST DUP1 PUSH1 0x1F ADD PUSH1 0x20 DUP1 SWAP2 DIV MUL PUSH1 0x20 ADD PUSH1 0x40 MLOAD SWAP1 DUP2 ADD PUSH1 0x40 MSTORE DUP1 SWAP3 SWAP2 SWAP1 DUP2 DUP2 MSTORE PUSH1 0x20 ADD DUP3 DUP1 SLOAD PUSH2 0x305F SWAP1 PUSH2 0x5A74 JUMP JUMPDEST DUP1 ISZERO PUSH2 0x30AC JUMPI DUP1 PUSH1 0x1F LT PUSH2 0x3081 JUMPI PUSH2 0x100 DUP1 DUP4 SLOAD DIV MUL DUP4 MSTORE SWAP2 PUSH1 0x20 ADD SWAP2 PUSH2 0x30AC JUMP JUMPDEST DUP3 ADD SWAP2 SWAP1 PUSH1 0x0 MSTORE PUSH1 0x20 PUSH1 0x0 KECCAK256 SWAP1 JUMPDEST DUP2 SLOAD DUP2 MSTORE SWAP1 PUSH1 0x1 ADD SWAP1 PUSH1 0x20 ADD DUP1 DUP4 GT PUSH2 0x308F JUMPI DUP3 SWAP1 SUB PUSH1 0x1F AND DUP3 ADD SWAP2 JUMPDEST POP POP POP POP POP DUP2 MSTORE POP POP DUP2 MSTORE PUSH1 0x20 ADD PUSH1 0x7 DUP3 ADD SLOAD DUP2 MSTORE PUSH1 0x20 ADD PUSH1 0x8 DUP3 ADD DUP1 SLOAD PUSH2 0x30D3 SWAP1 PUSH2 0x5A74 JUMP JUMPDEST DUP1 PUSH1 0x1F ADD PUSH1 0x20 DUP1 SWAP2 DIV MUL PUSH1 0x20 ADD PUSH1 0x40 MLOAD SWAP1 DUP2 ADD PUSH1 0x40 MSTORE DUP1 SWAP3 SWAP2 SWAP1 DUP2 DUP2 MSTORE PUSH1 0x20 ADD DUP3 DUP1 SLOAD PUSH2 0x30FF SWAP1 PUSH2 0x5A74 JUMP JUMPDEST DUP1 ISZERO PUSH2 0x314C JUMPI DUP1 PUSH1 0x1F LT PUSH2 0x3121 JUMPI PUSH2 0x100 DUP1 DUP4 SLOAD DIV MUL DUP4 MSTORE SWAP2 PUSH1 0x20 ADD SWAP2 PUSH2 0x314C JUMP JUMPDEST DUP3 ADD SWAP2 SWAP1 PUSH1 0x0 MSTORE PUSH1 0x20 PUSH1 0x0 KECCAK256 SWAP1 JUMPDEST DUP2 SLOAD DUP2 MSTORE SWAP1 PUSH1 0x1 ADD SWAP1 PUSH1 0x20 ADD DUP1 DUP4 GT PUSH2 0x312F JUMPI DUP3 SWAP1 SUB PUSH1 0x1F AND DUP3 ADD SWAP2 JUMPDEST POP POP POP SWAP2 DUP4 MSTORE POP POP PUSH1 0x9 DUP3 ADD SLOAD PUSH1 0x20 SWAP1 SWAP2 ADD SWAP1 PUSH1 0xFF AND PUSH1 0xB DUP2 GT ISZERO PUSH2 0x3173 JUMPI PUSH2 0x3173 PUSH2 0x5ADA JUMP JUMPDEST PUSH1 0xB DUP2 GT ISZERO PUSH2 0x3184 JUMPI PUSH2 0x3184 PUSH2 0x5ADA JUMP JUMPDEST DUP2 MSTORE PUSH1 0x20 ADD PUSH1 0xA DUP3 ADD SLOAD DUP2 MSTORE POP POP DUP2 MSTORE PUSH1 0x20 ADD SWAP1 PUSH1 0x1 ADD SWAP1 PUSH2 0x2F33 JUMP JUMPDEST POP POP POP POP PUSH2 0x1C0 DUP3 ADD MSTORE PUSH1 0x0 JUMPDEST PUSH1 0x0 DUP5 DUP2 MSTORE PUSH1 0x1 PUSH1 0x20 MSTORE PUSH1 0x40 SWAP1 KECCAK256 PUSH1 0xD ADD SLOAD DUP2 LT ISZERO PUSH2 0x3423 JUMPI PUSH1 0x40 DUP1 MLOAD DUP1 DUP3 ADD SWAP1 SWAP2 MSTORE PUSH1 0x0 DUP2 MSTORE PUSH1 0x60 PUSH1 0x20 DUP3 ADD MSTORE PUSH1 0x0 DUP6 DUP2 MSTORE PUSH1 0x1 PUSH1 0x20 MSTORE PUSH1 0x40 DUP2 KECCAK256 PUSH1 0xD ADD DUP1 SLOAD DUP5 SWAP1 DUP2 LT PUSH2 0x31FF JUMPI PUSH2 0x31FF PUSH2 0x5AF0 JUMP JUMPDEST PUSH1 0x0 SWAP2 DUP3 MSTORE PUSH1 0x20 DUP3 KECCAK256 ADD SLOAD PUSH1 0x1 PUSH1 0x1 PUSH1 0xA0 SHL SUB AND DUP1 DUP5 MSTORE SWAP2 POP JUMPDEST PUSH1 0x0 DUP8 DUP2 MSTORE PUSH1 0x1 PUSH1 0x20 SWAP1 DUP2 MSTORE PUSH1 0x40 DUP1 DUP4 KECCAK256 PUSH1 0x1 PUSH1 0x1 PUSH1 0xA0 SHL SUB DUP7 AND DUP5 MSTORE PUSH1 0xF ADD SWAP1 SWAP2 MSTORE SWAP1 KECCAK256 SLOAD DUP5 LT ISZERO PUSH2 0x33EA JUMPI PUSH2 0x324E PUSH2 0x49F0 JUMP JUMPDEST PUSH1 0x0 DUP9 DUP2 MSTORE PUSH1 0x1 PUSH1 0x20 SWAP1 DUP2 MSTORE PUSH1 0x40 DUP1 DUP4 KECCAK256 PUSH1 0x1 PUSH1 0x1 PUSH1 0xA0 SHL SUB DUP8 AND DUP5 MSTORE PUSH1 0xF ADD SWAP1 SWAP2 MSTORE SWAP1 KECCAK256 DUP1 SLOAD DUP4 SWAP1 DUP2 LT PUSH2 0x3285 JUMPI PUSH2 0x3285 PUSH2 0x5AF0 JUMP JUMPDEST PUSH1 0x0 SWAP2 DUP3 MSTORE PUSH1 0x20 DUP1 DUP4 KECCAK256 SWAP1 SWAP2 ADD SLOAD DUP4 MSTORE DUP10 DUP3 MSTORE PUSH1 0x1 DUP1 DUP3 MSTORE PUSH1 0x40 DUP1 DUP5 KECCAK256 PUSH1 0x1 PUSH1 0x1 PUSH1 0xA0 SHL SUB DUP9 AND DUP6 MSTORE PUSH1 0xF ADD DUP4 MSTORE DUP1 DUP5 KECCAK256 DUP6 MLOAD DUP6 MSTORE SWAP1 SWAP2 ADD DUP3 MSTORE SWAP1 SWAP2 KECCAK256 SLOAD SWAP1 DUP3 ADD SWAP1 PUSH1 0xFF AND PUSH1 0x4 DUP2 GT ISZERO PUSH2 0x32DB JUMPI PUSH2 0x32DB PUSH2 0x5ADA JUMP JUMPDEST SWAP1 DUP2 PUSH1 0x4 DUP2 GT ISZERO PUSH2 0x32EE JUMPI PUSH2 0x32EE PUSH2 0x5ADA JUMP JUMPDEST SWAP1 MSTORE POP PUSH1 0x0 DUP9 DUP2 MSTORE PUSH1 0x1 PUSH1 0x20 DUP2 DUP2 MSTORE PUSH1 0x40 DUP1 DUP5 KECCAK256 PUSH1 0x1 PUSH1 0x1 PUSH1 0xA0 SHL SUB DUP9 AND DUP6 MSTORE PUSH1 0xF ADD DUP3 MSTORE DUP1 DUP5 KECCAK256 DUP6 MLOAD DUP6 MSTORE DUP4 ADD SWAP1 SWAP2 MSTORE SWAP1 SWAP2 KECCAK256 ADD DUP1 SLOAD PUSH2 0x332E SWAP1 PUSH2 0x5A74 JUMP JUMPDEST DUP1 PUSH1 0x1F ADD PUSH1 0x20 DUP1 SWAP2 DIV MUL PUSH1 0x20 ADD PUSH1 0x40 MLOAD SWAP1 DUP2 ADD PUSH1 0x40 MSTORE DUP1 SWAP3 SWAP2 SWAP1 DUP2 DUP2 MSTORE PUSH1 0x20 ADD DUP3 DUP1 SLOAD PUSH2 0x335A SWAP1 PUSH2 0x5A74 JUMP JUMPDEST DUP1 ISZERO PUSH2 0x33A7 JUMPI DUP1 PUSH1 0x1F LT PUSH2 0x337C JUMPI PUSH2 0x100 DUP1 DUP4 SLOAD DIV MUL DUP4 MSTORE SWAP2 PUSH1 0x20 ADD SWAP2 PUSH2 0x33A7 JUMP JUMPDEST DUP3 ADD SWAP2 SWAP1 PUSH1 0x0 MSTORE PUSH1 0x20 PUSH1 0x0 KECCAK256 SWAP1 JUMPDEST DUP2 SLOAD DUP2 MSTORE SWAP1 PUSH1 0x1 ADD SWAP1 PUSH1 0x20 ADD DUP1 DUP4 GT PUSH2 0x338A JUMPI DUP3 SWAP1 SUB PUSH1 0x1F AND DUP3 ADD SWAP2 JUMPDEST POP POP POP POP POP DUP2 PUSH1 0x40 ADD DUP2 SWAP1 MSTORE POP DUP1 DUP5 PUSH1 0x20 ADD MLOAD DUP4 DUP2 MLOAD DUP2 LT PUSH2 0x33CB JUMPI PUSH2 0x33CB PUSH2 0x5AF0 JUMP JUMPDEST PUSH1 0x20 MUL PUSH1 0x20 ADD ADD DUP2 SWAP1 MSTORE POP POP DUP1 DUP1 PUSH2 0x33E2 SWAP1 PUSH2 0x5AA9 JUMP JUMPDEST SWAP2 POP POP PUSH2 0x3219 JUMP JUMPDEST POP DUP2 DUP5 PUSH2 0x1E0 ADD MLOAD DUP5 DUP2 MLOAD DUP2 LT PUSH2 0x3403 JUMPI PUSH2 0x3403 PUSH2 0x5AF0 JUMP JUMPDEST PUSH1 0x20 MUL PUSH1 0x20 ADD ADD DUP2 SWAP1 MSTORE POP POP POP DUP1 DUP1 PUSH2 0x341B SWAP1 PUSH2 0x5AA9 JUMP JUMPDEST SWAP2 POP POP PUSH2 0x31AE JUMP JUMPDEST POP PUSH1 0x0 JUMPDEST PUSH1 0x0 DUP5 DUP2 MSTORE PUSH1 0x1 PUSH1 0x20 MSTORE PUSH1 0x40 SWAP1 KECCAK256 PUSH1 0xE ADD SLOAD DUP2 LT ISZERO PUSH2 0x369C JUMPI PUSH1 0x40 DUP1 MLOAD DUP1 DUP3 ADD SWAP1 SWAP2 MSTORE PUSH1 0x0 DUP2 MSTORE PUSH1 0x60 PUSH1 0x20 DUP3 ADD MSTORE PUSH1 0x0 DUP6 DUP2 MSTORE PUSH1 0x1 PUSH1 0x20 MSTORE PUSH1 0x40 DUP2 KECCAK256 PUSH1 0xE ADD DUP1 SLOAD DUP5 SWAP1 DUP2 LT PUSH2 0x3478 JUMPI PUSH2 0x3478 PUSH2 0x5AF0 JUMP JUMPDEST PUSH1 0x0 SWAP2 DUP3 MSTORE PUSH1 0x20 DUP3 KECCAK256 ADD SLOAD PUSH1 0x1 PUSH1 0x1 PUSH1 0xA0 SHL SUB AND DUP1 DUP5 MSTORE SWAP2 POP JUMPDEST PUSH1 0x0 DUP8 DUP2 MSTORE PUSH1 0x1 PUSH1 0x20 SWAP1 DUP2 MSTORE PUSH1 0x40 DUP1 DUP4 KECCAK256 PUSH1 0x1 PUSH1 0x1 PUSH1 0xA0 SHL SUB DUP7 AND DUP5 MSTORE PUSH1 0x10 ADD SWAP1 SWAP2 MSTORE SWAP1 KECCAK256 SLOAD DUP5 LT ISZERO PUSH2 0x3663 JUMPI PUSH2 0x34C7 PUSH2 0x49F0 JUMP JUMPDEST PUSH1 0x0 DUP9 DUP2 MSTORE PUSH1 0x1 PUSH1 0x20 SWAP1 DUP2 MSTORE PUSH1 0x40 DUP1 DUP4 KECCAK256 PUSH1 0x1 PUSH1 0x1 PUSH1 0xA0 SHL SUB DUP8 AND DUP5 MSTORE PUSH1 0x10 ADD SWAP1 SWAP2 MSTORE SWAP1 KECCAK256 DUP1 SLOAD DUP4 SWAP1 DUP2 LT PUSH2 0x34FE JUMPI PUSH2 0x34FE PUSH2 0x5AF0 JUMP JUMPDEST PUSH1 0x0 SWAP2 DUP3 MSTORE PUSH1 0x20 DUP1 DUP4 KECCAK256 SWAP1 SWAP2 ADD SLOAD DUP4 MSTORE DUP10 DUP3 MSTORE PUSH1 0x1 DUP1 DUP3 MSTORE PUSH1 0x40 DUP1 DUP5 KECCAK256 PUSH1 0x1 PUSH1 0x1 PUSH1 0xA0 SHL SUB DUP9 AND DUP6 MSTORE PUSH1 0x10 ADD DUP4 MSTORE DUP1 DUP5 KECCAK256 DUP6 MLOAD DUP6 MSTORE SWAP1 SWAP2 ADD DUP3 MSTORE SWAP1 SWAP2 KECCAK256 SLOAD SWAP1 DUP3 ADD SWAP1 PUSH1 0xFF AND PUSH1 0x4 DUP2 GT ISZERO PUSH2 0x3554 JUMPI PUSH2 0x3554 PUSH2 0x5ADA JUMP JUMPDEST SWAP1 DUP2 PUSH1 0x4 DUP2 GT ISZERO PUSH2 0x3567 JUMPI PUSH2 0x3567 PUSH2 0x5ADA JUMP JUMPDEST SWAP1 MSTORE POP PUSH1 0x0 DUP9 DUP2 MSTORE PUSH1 0x1 PUSH1 0x20 DUP2 DUP2 MSTORE PUSH1 0x40 DUP1 DUP5 KECCAK256 PUSH1 0x1 PUSH1 0x1 PUSH1 0xA0 SHL SUB DUP9 AND DUP6 MSTORE PUSH1 0x10 ADD DUP3 MSTORE DUP1 DUP5 KECCAK256 DUP6 MLOAD DUP6 MSTORE DUP4 ADD SWAP1 SWAP2 MSTORE SWAP1 SWAP2 KECCAK256 ADD DUP1 SLOAD PUSH2 0x35A7 SWAP1 PUSH2 0x5A74 JUMP JUMPDEST DUP1 PUSH1 0x1F ADD PUSH1 0x20 DUP1 SWAP2 DIV MUL PUSH1 0x20 ADD PUSH1 0x40 MLOAD SWAP1 DUP2 ADD PUSH1 0x40 MSTORE DUP1 SWAP3 SWAP2 SWAP1 DUP2 DUP2 MSTORE PUSH1 0x20 ADD DUP3 DUP1 SLOAD PUSH2 0x35D3 SWAP1 PUSH2 0x5A74 JUMP JUMPDEST DUP1 ISZERO PUSH2 0x3620 JUMPI DUP1 PUSH1 0x1F LT PUSH2 0x35F5 JUMPI PUSH2 0x100 DUP1 DUP4 SLOAD DIV MUL DUP4 MSTORE SWAP2 PUSH1 0x20 ADD SWAP2 PUSH2 0x3620 JUMP JUMPDEST DUP3 ADD SWAP2 SWAP1 PUSH1 0x0 MSTORE PUSH1 0x20 PUSH1 0x0 KECCAK256 SWAP1 JUMPDEST DUP2 SLOAD DUP2 MSTORE SWAP1 PUSH1 0x1 ADD SWAP1 PUSH1 0x20 ADD DUP1 DUP4 GT PUSH2 0x3603 JUMPI DUP3 SWAP1 SUB PUSH1 0x1F AND DUP3 ADD SWAP2 JUMPDEST POP POP POP POP POP DUP2 PUSH1 0x40 ADD DUP2 SWAP1 MSTORE POP DUP1 DUP5 PUSH1 0x20 ADD MLOAD DUP4 DUP2 MLOAD DUP2 LT PUSH2 0x3644 JUMPI PUSH2 0x3644 PUSH2 0x5AF0 JUMP JUMPDEST PUSH1 0x20 MUL PUSH1 0x20 ADD ADD DUP2 SWAP1 MSTORE POP POP DUP1 DUP1 PUSH2 0x365B SWAP1 PUSH2 0x5AA9 JUMP JUMPDEST SWAP2 POP POP PUSH2 0x3492 JUMP JUMPDEST POP DUP2 DUP5 PUSH2 0x200 ADD MLOAD DUP5 DUP2 MLOAD DUP2 LT PUSH2 0x367C JUMPI PUSH2 0x367C PUSH2 0x5AF0 JUMP JUMPDEST PUSH1 0x20 MUL PUSH1 0x20 ADD ADD DUP2 SWAP1 MSTORE POP POP POP DUP1 DUP1 PUSH2 0x3694 SWAP1 PUSH2 0x5AA9 JUMP JUMPDEST SWAP2 POP POP PUSH2 0x3427 JUMP JUMPDEST POP SWAP3 SWAP2 POP POP JUMP JUMPDEST PUSH1 0x0 DUP4 DUP2 MSTORE PUSH1 0x1 PUSH1 0x20 SWAP1 DUP2 MSTORE PUSH1 0x40 DUP1 DUP4 KECCAK256 PUSH1 0x1 PUSH1 0x1 PUSH1 0xA0 SHL SUB DUP6 AND DUP5 MSTORE PUSH1 0xF ADD SWAP1 SWAP2 MSTORE SWAP1 KECCAK256 DUP1 SLOAD PUSH2 0x3708 JUMPI PUSH1 0x0 DUP5 DUP2 MSTORE PUSH1 0x1 PUSH1 0x20 DUP2 DUP2 MSTORE PUSH1 0x40 DUP4 KECCAK256 PUSH1 0xD ADD DUP1 SLOAD SWAP3 DUP4 ADD DUP2 SSTORE DUP4 MSTORE SWAP1 SWAP2 KECCAK256 ADD DUP1 SLOAD PUSH1 0x1 PUSH1 0x1 PUSH1 0xA0 SHL SUB NOT AND PUSH1 0x1 PUSH1 0x1 PUSH1 0xA0 SHL SUB DUP5 AND OR SWAP1 SSTORE JUMPDEST PUSH1 0x0 DUP1 JUMPDEST DUP5 MLOAD DUP2 LT ISZERO PUSH2 0x395F JUMPI PUSH1 0x1 PUSH1 0x0 DUP8 DUP2 MSTORE PUSH1 0x20 ADD SWAP1 DUP2 MSTORE PUSH1 0x20 ADD PUSH1 0x0 KECCAK256 PUSH1 0xC ADD DUP6 DUP3 DUP2 MLOAD DUP2 LT PUSH2 0x373D JUMPI PUSH2 0x373D PUSH2 0x5AF0 JUMP JUMPDEST PUSH1 0x20 MUL PUSH1 0x20 ADD ADD MLOAD DUP2 SLOAD DUP2 LT PUSH2 0x3755 JUMPI PUSH2 0x3755 PUSH2 0x5AF0 JUMP JUMPDEST PUSH1 0x0 SWAP2 DUP3 MSTORE PUSH1 0x20 DUP3 KECCAK256 PUSH1 0x9 PUSH1 0xB SWAP1 SWAP3 MUL ADD ADD SLOAD PUSH1 0xFF AND SWAP3 POP DUP3 PUSH1 0xB DUP2 GT ISZERO PUSH2 0x377F JUMPI PUSH2 0x377F PUSH2 0x5ADA JUMP JUMPDEST EQ ISZERO PUSH2 0x3848 JUMPI PUSH1 0x2 PUSH1 0x1 PUSH1 0x0 DUP9 DUP2 MSTORE PUSH1 0x20 ADD SWAP1 DUP2 MSTORE PUSH1 0x20 ADD PUSH1 0x0 KECCAK256 PUSH1 0xC ADD DUP7 DUP4 DUP2 MLOAD DUP2 LT PUSH2 0x37AF JUMPI PUSH2 0x37AF PUSH2 0x5AF0 JUMP JUMPDEST PUSH1 0x20 MUL PUSH1 0x20 ADD ADD MLOAD DUP2 SLOAD DUP2 LT PUSH2 0x37C7 JUMPI PUSH2 0x37C7 PUSH2 0x5AF0 JUMP JUMPDEST SWAP1 PUSH1 0x0 MSTORE PUSH1 0x20 PUSH1 0x0 KECCAK256 SWAP1 PUSH1 0xB MUL ADD PUSH1 0x9 ADD PUSH1 0x0 PUSH2 0x100 EXP DUP2 SLOAD DUP2 PUSH1 0xFF MUL NOT AND SWAP1 DUP4 PUSH1 0xB DUP2 GT ISZERO PUSH2 0x37F9 JUMPI PUSH2 0x37F9 PUSH2 0x5ADA JUMP JUMPDEST MUL OR SWAP1 SSTORE POP PUSH1 0x0 DUP1 MLOAD PUSH1 0x20 PUSH2 0x5B1D DUP4 CODECOPY DUP2 MLOAD SWAP2 MSTORE DUP7 DUP7 DUP4 DUP2 MLOAD DUP2 LT PUSH2 0x3820 JUMPI PUSH2 0x3820 PUSH2 0x5AF0 JUMP JUMPDEST PUSH1 0x20 MUL PUSH1 0x20 ADD ADD MLOAD PUSH1 0x2 CALLER PUSH1 0x40 MLOAD PUSH2 0x383B SWAP5 SWAP4 SWAP3 SWAP2 SWAP1 PUSH2 0x590C JUMP JUMPDEST PUSH1 0x40 MLOAD DUP1 SWAP2 SUB SWAP1 LOG1 PUSH2 0x3918 JUMP JUMPDEST PUSH1 0x1 DUP3 PUSH1 0xB DUP2 GT ISZERO PUSH2 0x385C JUMPI PUSH2 0x385C PUSH2 0x5ADA JUMP JUMPDEST EQ ISZERO PUSH2 0x225F JUMPI PUSH1 0x3 PUSH1 0x1 PUSH1 0x0 DUP9 DUP2 MSTORE PUSH1 0x20 ADD SWAP1 DUP2 MSTORE PUSH1 0x20 ADD PUSH1 0x0 KECCAK256 PUSH1 0xC ADD DUP7 DUP4 DUP2 MLOAD DUP2 LT PUSH2 0x388C JUMPI PUSH2 0x388C PUSH2 0x5AF0 JUMP JUMPDEST PUSH1 0x20 MUL PUSH1 0x20 ADD ADD MLOAD DUP2 SLOAD DUP2 LT PUSH2 0x38A4 JUMPI PUSH2 0x38A4 PUSH2 0x5AF0 JUMP JUMPDEST SWAP1 PUSH1 0x0 MSTORE PUSH1 0x20 PUSH1 0x0 KECCAK256 SWAP1 PUSH1 0xB MUL ADD PUSH1 0x9 ADD PUSH1 0x0 PUSH2 0x100 EXP DUP2 SLOAD DUP2 PUSH1 0xFF MUL NOT AND SWAP1 DUP4 PUSH1 0xB DUP2 GT ISZERO PUSH2 0x38D6 JUMPI PUSH2 0x38D6 PUSH2 0x5ADA JUMP JUMPDEST MUL OR SWAP1 SSTORE POP PUSH1 0x0 DUP1 MLOAD PUSH1 0x20 PUSH2 0x5B1D DUP4 CODECOPY DUP2 MLOAD SWAP2 MSTORE DUP7 DUP7 DUP4 DUP2 MLOAD DUP2 LT PUSH2 0x38FD JUMPI PUSH2 0x38FD PUSH2 0x5AF0 JUMP JUMPDEST PUSH1 0x20 MUL PUSH1 0x20 ADD ADD MLOAD PUSH1 0x3 CALLER PUSH1 0x40 MLOAD PUSH2 0x383B SWAP5 SWAP4 SWAP3 SWAP2 SWAP1 PUSH2 0x590C JUMP JUMPDEST DUP3 PUSH1 0x0 ADD DUP6 DUP3 DUP2 MLOAD DUP2 LT PUSH2 0x392E JUMPI PUSH2 0x392E PUSH2 0x5AF0 JUMP JUMPDEST PUSH1 0x20 SWAP1 DUP2 MUL SWAP2 SWAP1 SWAP2 ADD DUP2 ADD MLOAD DUP3 SLOAD PUSH1 0x1 DUP2 ADD DUP5 SSTORE PUSH1 0x0 SWAP4 DUP5 MSTORE SWAP2 SWAP1 SWAP3 KECCAK256 ADD SSTORE DUP1 PUSH2 0x3957 DUP2 PUSH2 0x5AA9 JUMP JUMPDEST SWAP2 POP POP PUSH2 0x370C JUMP JUMPDEST POP PUSH1 0x0 DUP6 DUP2 MSTORE PUSH1 0x1 PUSH1 0x20 MSTORE PUSH1 0x40 DUP2 KECCAK256 PUSH1 0x13 ADD DUP1 SLOAD SWAP2 PUSH2 0x397D DUP4 PUSH2 0x5AA9 JUMP JUMPDEST SWAP2 SWAP1 POP SSTORE POP PUSH2 0x398D DUP6 PUSH1 0x1 PUSH2 0xF0C JUMP JUMPDEST ISZERO PUSH2 0x15A2 JUMPI PUSH1 0x0 DUP6 DUP2 MSTORE PUSH1 0x1 PUSH1 0x20 SWAP1 DUP2 MSTORE PUSH1 0x40 DUP1 DUP4 KECCAK256 PUSH1 0x15 ADD DUP1 SLOAD PUSH1 0xFF NOT AND SWAP1 SSTORE DUP1 MLOAD DUP9 DUP2 MSTORE SWAP2 DUP3 ADD SWAP3 SWAP1 SWAP3 MSTORE CALLER SWAP2 DUP2 ADD SWAP2 SWAP1 SWAP2 MSTORE PUSH32 0x398FD552105B0090D73611AD526D12979F19B77A7F923343A85D8FD14A13A67 SWAP1 PUSH1 0x60 ADD PUSH2 0x234B JUMP JUMPDEST PUSH1 0x0 DUP3 DUP2 MSTORE PUSH1 0x1 PUSH1 0x20 DUP2 DUP2 MSTORE PUSH1 0x40 SWAP1 SWAP3 KECCAK256 DUP4 MLOAD SWAP2 DUP2 ADD SWAP2 SWAP1 SWAP2 SSTORE DUP3 DUP3 ADD MLOAD DUP1 MLOAD SWAP2 SWAP3 PUSH2 0x3A20 SWAP3 PUSH1 0x2 DUP6 ADD SWAP3 SWAP1 SWAP2 ADD SWAP1 PUSH2 0x4A0A JUMP JUMPDEST POP PUSH1 0x40 DUP3 ADD MLOAD DUP1 MLOAD PUSH2 0x3A3C SWAP2 PUSH1 0x3 DUP5 ADD SWAP2 PUSH1 0x20 SWAP1 SWAP2 ADD SWAP1 PUSH2 0x4A0A JUMP JUMPDEST POP PUSH1 0x60 DUP3 ADD MLOAD PUSH1 0x4 DUP3 ADD SSTORE PUSH1 0x80 DUP3 ADD MLOAD PUSH1 0x5 DUP3 ADD SSTORE PUSH1 0xA0 DUP3 ADD MLOAD PUSH1 0x6 DUP3 ADD SSTORE PUSH1 0xC0 DUP3 ADD MLOAD DUP1 MLOAD PUSH2 0x3A76 SWAP2 PUSH1 0x7 DUP5 ADD SWAP2 PUSH1 0x20 SWAP1 SWAP2 ADD SWAP1 PUSH2 0x4A8E JUMP JUMPDEST POP PUSH1 0xE0 DUP3 ADD MLOAD PUSH1 0x8 DUP3 ADD SSTORE PUSH2 0x100 DUP1 DUP4 ADD MLOAD PUSH1 0x9 DUP4 ADD SSTORE PUSH2 0x160 DUP4 ADD MLOAD PUSH1 0xB DUP4 ADD SSTORE PUSH2 0x120 DUP4 ADD MLOAD PUSH1 0xA DUP4 ADD DUP1 SLOAD PUSH2 0x140 DUP7 ADD MLOAD PUSH2 0xFFFF NOT SWAP1 SWAP2 AND SWAP3 ISZERO ISZERO PUSH2 0xFF00 NOT AND SWAP3 SWAP1 SWAP3 OR SWAP2 ISZERO DUP1 ISZERO SWAP1 SWAP4 MUL SWAP2 SWAP1 SWAP2 OR SWAP1 SSTORE PUSH1 0x15 DUP3 ADD DUP1 SLOAD PUSH3 0xFF0000 NOT AND PUSH3 0x10000 OR SWAP1 SSTORE PUSH2 0x3AF2 JUMPI PUSH2 0x180 DUP3 ADD MLOAD MLOAD PUSH1 0x11 DUP3 ADD SSTORE PUSH2 0x3AFA JUMP JUMPDEST PUSH1 0x1 PUSH1 0x11 DUP3 ADD SSTORE JUMPDEST PUSH1 0x15 DUP2 ADD DUP1 SLOAD PUSH3 0xFF00FF NOT AND PUSH3 0x10001 OR SWAP1 SSTORE PUSH1 0x0 JUMPDEST DUP3 PUSH2 0x180 ADD MLOAD MLOAD DUP2 LT ISZERO PUSH2 0x25DE JUMPI DUP2 PUSH1 0xC ADD DUP4 PUSH2 0x180 ADD MLOAD DUP3 DUP2 MLOAD DUP2 LT PUSH2 0x3B39 JUMPI PUSH2 0x3B39 PUSH2 0x5AF0 JUMP JUMPDEST PUSH1 0x20 SWAP1 DUP2 MUL SWAP2 SWAP1 SWAP2 ADD DUP2 ADD MLOAD DUP3 SLOAD PUSH1 0x1 DUP2 ADD DUP5 SSTORE PUSH1 0x0 SWAP4 DUP5 MSTORE SWAP3 DUP3 SWAP1 KECCAK256 DUP2 MLOAD DUP1 MLOAD DUP1 MLOAD SWAP4 SWAP6 PUSH1 0xB MUL SWAP1 SWAP3 ADD SWAP4 SWAP1 SWAP3 DUP5 SWAP3 PUSH2 0x3B77 SWAP3 DUP5 SWAP3 SWAP2 ADD SWAP1 PUSH2 0x4A0A JUMP JUMPDEST POP PUSH1 0x20 DUP3 DUP2 ADD MLOAD PUSH1 0x1 DUP4 ADD SSTORE PUSH1 0x40 DUP4 ADD MLOAD PUSH1 0x2 DUP4 ADD SSTORE PUSH1 0x60 DUP4 ADD MLOAD PUSH1 0x3 DUP4 ADD SSTORE PUSH1 0x80 DUP4 ADD MLOAD PUSH1 0x4 DUP4 ADD SSTORE PUSH1 0xA0 DUP4 ADD MLOAD PUSH1 0x5 DUP4 ADD SSTORE PUSH1 0xC0 DUP4 ADD MLOAD DUP1 MLOAD PUSH2 0x3BC2 SWAP3 PUSH1 0x6 DUP6 ADD SWAP3 ADD SWAP1 PUSH2 0x4A0A JUMP JUMPDEST POP POP POP PUSH1 0x20 DUP3 DUP2 ADD MLOAD PUSH1 0x7 DUP4 ADD SSTORE PUSH1 0x40 DUP4 ADD MLOAD DUP1 MLOAD PUSH2 0x3BE7 SWAP3 PUSH1 0x8 DUP6 ADD SWAP3 ADD SWAP1 PUSH2 0x4A0A JUMP JUMPDEST POP PUSH1 0x60 DUP3 ADD MLOAD PUSH1 0x9 DUP3 ADD DUP1 SLOAD PUSH1 0xFF NOT AND PUSH1 0x1 DUP4 PUSH1 0xB DUP2 GT ISZERO PUSH2 0x3C0B JUMPI PUSH2 0x3C0B PUSH2 0x5ADA JUMP JUMPDEST MUL OR SWAP1 SSTORE POP PUSH1 0x80 DUP3 ADD MLOAD DUP2 PUSH1 0xA ADD SSTORE POP POP DUP1 DUP1 PUSH2 0x3C27 SWAP1 PUSH2 0x5AA9 JUMP JUMPDEST SWAP2 POP POP PUSH2 0x3B10 JUMP JUMPDEST PUSH1 0x0 PUSH2 0x1A73 DUP3 DUP5 PUSH2 0x5A3E JUMP JUMPDEST PUSH1 0x0 DUP6 DUP2 MSTORE PUSH1 0x1 PUSH1 0x20 DUP2 DUP2 MSTORE PUSH1 0x40 DUP1 DUP5 KECCAK256 PUSH1 0x1 PUSH1 0x1 PUSH1 0xA0 SHL SUB DUP10 AND DUP6 MSTORE PUSH1 0xF DUP2 ADD DUP4 MSTORE DUP2 DUP6 KECCAK256 DUP8 DUP7 MSTORE DUP5 ADD SWAP1 SWAP3 MSTORE SWAP3 DUP4 SWAP1 KECCAK256 DUP1 SLOAD PUSH1 0xFF NOT AND PUSH1 0x3 SWAP1 DUP2 OR SWAP1 SWAP2 SSTORE SWAP3 MLOAD SWAP1 SWAP3 PUSH1 0x0 DUP1 MLOAD PUSH1 0x20 PUSH2 0x5B5D DUP4 CODECOPY DUP2 MLOAD SWAP2 MSTORE SWAP3 PUSH2 0x3CA0 SWAP3 DUP11 SWAP3 DUP11 SWAP3 DUP10 SWAP3 CALLER SWAP1 PUSH2 0x585F JUMP JUMPDEST PUSH1 0x40 MLOAD DUP1 SWAP2 SUB SWAP1 LOG1 PUSH1 0x6 DUP2 PUSH1 0xC ADD DUP5 DUP2 SLOAD DUP2 LT PUSH2 0x3CBF JUMPI PUSH2 0x3CBF PUSH2 0x5AF0 JUMP JUMPDEST SWAP1 PUSH1 0x0 MSTORE PUSH1 0x20 PUSH1 0x0 KECCAK256 SWAP1 PUSH1 0xB MUL ADD PUSH1 0x9 ADD PUSH1 0x0 PUSH2 0x100 EXP DUP2 SLOAD DUP2 PUSH1 0xFF MUL NOT AND SWAP1 DUP4 PUSH1 0xB DUP2 GT ISZERO PUSH2 0x3CF1 JUMPI PUSH2 0x3CF1 PUSH2 0x5ADA JUMP JUMPDEST MUL OR SWAP1 SSTORE POP PUSH1 0x0 DUP1 MLOAD PUSH1 0x20 PUSH2 0x5B1D DUP4 CODECOPY DUP2 MLOAD SWAP2 MSTORE DUP7 DUP5 PUSH1 0x6 CALLER PUSH1 0x40 MLOAD PUSH2 0x3D1A SWAP5 SWAP4 SWAP3 SWAP2 SWAP1 PUSH2 0x590C JUMP JUMPDEST PUSH1 0x40 MLOAD DUP1 SWAP2 SUB SWAP1 LOG1 TIMESTAMP DUP2 PUSH1 0xC ADD DUP5 DUP2 SLOAD DUP2 LT PUSH2 0x3D38 JUMPI PUSH2 0x3D38 PUSH2 0x5AF0 JUMP JUMPDEST PUSH1 0x0 SWAP2 DUP3 MSTORE PUSH1 0x20 DUP1 DUP4 KECCAK256 PUSH1 0xA PUSH1 0xB SWAP1 SWAP4 MUL ADD SWAP2 SWAP1 SWAP2 ADD SWAP3 SWAP1 SWAP3 SSTORE PUSH1 0x1 PUSH1 0x1 PUSH1 0xA0 SHL SUB DUP7 AND DUP2 MSTORE PUSH1 0x10 DUP4 ADD DUP3 MSTORE PUSH1 0x40 DUP1 DUP3 KECCAK256 DUP7 DUP4 MSTORE PUSH1 0x1 SWAP1 DUP2 ADD DUP5 MSTORE SWAP2 KECCAK256 DUP5 MLOAD PUSH2 0x3D89 SWAP4 SWAP2 SWAP1 SWAP3 ADD SWAP2 SWAP1 DUP6 ADD SWAP1 PUSH2 0x4A0A JUMP JUMPDEST POP PUSH1 0x1 PUSH1 0x1 PUSH1 0xA0 SHL SUB DUP5 AND PUSH1 0x0 SWAP1 DUP2 MSTORE PUSH1 0x10 DUP3 ADD PUSH1 0x20 SWAP1 DUP2 MSTORE PUSH1 0x40 DUP1 DUP4 KECCAK256 DUP7 DUP5 MSTORE PUSH1 0x1 SWAP1 DUP2 ADD SWAP1 SWAP3 MSTORE DUP1 DUP4 KECCAK256 DUP1 SLOAD PUSH1 0xFF NOT AND DUP4 OR SWAP1 SSTORE MLOAD PUSH1 0x0 DUP1 MLOAD PUSH1 0x20 PUSH2 0x5B5D DUP4 CODECOPY DUP2 MLOAD SWAP2 MSTORE SWAP3 PUSH2 0xBC6 SWAP3 DUP11 SWAP3 DUP10 SWAP3 DUP10 SWAP3 SWAP2 CALLER SWAP1 PUSH2 0x585F JUMP JUMPDEST DUP1 ISZERO PUSH2 0x3EE3 JUMPI PUSH1 0x0 DUP5 DUP2 MSTORE PUSH1 0x1 PUSH1 0x20 DUP2 DUP2 MSTORE PUSH1 0x40 DUP1 DUP5 KECCAK256 PUSH1 0x1 PUSH1 0x1 PUSH1 0xA0 SHL SUB DUP9 AND DUP6 MSTORE PUSH1 0xF ADD DUP3 MSTORE DUP1 DUP5 KECCAK256 DUP7 DUP6 MSTORE DUP4 ADD SWAP1 SWAP2 MSTORE SWAP2 DUP3 SWAP1 KECCAK256 DUP1 SLOAD PUSH1 0xFF NOT AND PUSH1 0x2 SWAP1 DUP2 OR SWAP1 SWAP2 SSTORE SWAP2 MLOAD PUSH1 0x0 DUP1 MLOAD PUSH1 0x20 PUSH2 0x5B5D DUP4 CODECOPY DUP2 MLOAD SWAP2 MSTORE SWAP3 PUSH2 0x3E4C SWAP3 DUP9 SWAP3 DUP9 SWAP3 DUP9 SWAP3 SWAP1 SWAP2 CALLER SWAP1 PUSH2 0x585F JUMP JUMPDEST PUSH1 0x40 MLOAD DUP1 SWAP2 SUB SWAP1 LOG1 PUSH1 0x0 DUP5 DUP2 MSTORE PUSH1 0x1 PUSH1 0x20 MSTORE PUSH1 0x40 SWAP1 KECCAK256 PUSH1 0xC ADD DUP1 SLOAD PUSH1 0x5 SWAP2 SWAP1 DUP5 SWAP1 DUP2 LT PUSH2 0x3E7B JUMPI PUSH2 0x3E7B PUSH2 0x5AF0 JUMP JUMPDEST SWAP1 PUSH1 0x0 MSTORE PUSH1 0x20 PUSH1 0x0 KECCAK256 SWAP1 PUSH1 0xB MUL ADD PUSH1 0x9 ADD PUSH1 0x0 PUSH2 0x100 EXP DUP2 SLOAD DUP2 PUSH1 0xFF MUL NOT AND SWAP1 DUP4 PUSH1 0xB DUP2 GT ISZERO PUSH2 0x3EAD JUMPI PUSH2 0x3EAD PUSH2 0x5ADA JUMP JUMPDEST MUL OR SWAP1 SSTORE POP PUSH1 0x0 DUP1 MLOAD PUSH1 0x20 PUSH2 0x5B1D DUP4 CODECOPY DUP2 MLOAD SWAP2 MSTORE DUP5 DUP4 PUSH1 0x5 CALLER PUSH1 0x40 MLOAD PUSH2 0x3ED6 SWAP5 SWAP4 SWAP3 SWAP2 SWAP1 PUSH2 0x590C JUMP JUMPDEST PUSH1 0x40 MLOAD DUP1 SWAP2 SUB SWAP1 LOG1 PUSH2 0x25DE JUMP JUMPDEST PUSH1 0x0 DUP5 DUP2 MSTORE PUSH1 0x1 PUSH1 0x20 DUP2 DUP2 MSTORE PUSH1 0x40 DUP1 DUP5 KECCAK256 PUSH1 0x1 PUSH1 0x1 PUSH1 0xA0 SHL SUB DUP9 AND DUP6 MSTORE PUSH1 0x10 ADD DUP3 MSTORE DUP1 DUP5 KECCAK256 DUP7 DUP6 MSTORE SWAP1 SWAP3 ADD SWAP1 MSTORE DUP1 DUP3 KECCAK256 DUP1 SLOAD PUSH1 0xFF NOT AND PUSH1 0x2 SWAP1 DUP2 OR SWAP1 SWAP2 SSTORE SWAP1 MLOAD PUSH1 0x0 DUP1 MLOAD PUSH1 0x20 PUSH2 0x5B5D DUP4 CODECOPY DUP2 MLOAD SWAP2 MSTORE SWAP3 PUSH2 0x3F45 SWAP3 DUP9 SWAP3 DUP9 SWAP3 DUP9 SWAP3 SWAP2 CALLER SWAP1 PUSH2 0x585F JUMP JUMPDEST PUSH1 0x40 MLOAD DUP1 SWAP2 SUB SWAP1 LOG1 PUSH1 0x0 DUP5 DUP2 MSTORE PUSH1 0x1 PUSH1 0x20 MSTORE PUSH1 0x40 SWAP1 KECCAK256 PUSH1 0xC ADD DUP1 SLOAD PUSH1 0x7 SWAP2 SWAP1 DUP5 SWAP1 DUP2 LT PUSH2 0x3F74 JUMPI PUSH2 0x3F74 PUSH2 0x5AF0 JUMP JUMPDEST SWAP1 PUSH1 0x0 MSTORE PUSH1 0x20 PUSH1 0x0 KECCAK256 SWAP1 PUSH1 0xB MUL ADD PUSH1 0x9 ADD PUSH1 0x0 PUSH2 0x100 EXP DUP2 SLOAD DUP2 PUSH1 0xFF MUL NOT AND SWAP1 DUP4 PUSH1 0xB DUP2 GT ISZERO PUSH2 0x3FA6 JUMPI PUSH2 0x3FA6 PUSH2 0x5ADA JUMP JUMPDEST MUL OR SWAP1 SSTORE POP PUSH1 0x0 DUP1 MLOAD PUSH1 0x20 PUSH2 0x5B1D DUP4 CODECOPY DUP2 MLOAD SWAP2 MSTORE DUP5 DUP4 PUSH1 0x7 CALLER PUSH1 0x40 MLOAD PUSH2 0x3FCF SWAP5 SWAP4 SWAP3 SWAP2 SWAP1 PUSH2 0x590C JUMP JUMPDEST PUSH1 0x40 MLOAD DUP1 SWAP2 SUB SWAP1 LOG1 POP POP POP POP JUMP JUMPDEST DUP1 ISZERO PUSH2 0x40C9 JUMPI PUSH1 0x0 JUMPDEST DUP4 MLOAD DUP2 LT ISZERO PUSH2 0x40C3 JUMPI PUSH1 0x0 DUP7 DUP2 MSTORE PUSH1 0x1 PUSH1 0x20 DUP2 DUP2 MSTORE PUSH1 0x40 DUP1 DUP5 KECCAK256 PUSH1 0x1 PUSH1 0x1 PUSH1 0xA0 SHL SUB DUP11 AND DUP6 MSTORE PUSH1 0xF ADD SWAP1 SWAP2 MSTORE DUP3 KECCAK256 DUP7 MLOAD DUP7 SWAP4 SWAP2 SWAP1 SWAP3 ADD SWAP2 DUP8 SWAP1 DUP6 SWAP1 DUP2 LT PUSH2 0x402F JUMPI PUSH2 0x402F PUSH2 0x5AF0 JUMP JUMPDEST PUSH1 0x20 SWAP1 DUP2 MUL SWAP2 SWAP1 SWAP2 ADD DUP2 ADD MLOAD DUP3 MSTORE DUP2 ADD SWAP2 SWAP1 SWAP2 MSTORE PUSH1 0x40 ADD PUSH1 0x0 KECCAK256 DUP1 SLOAD PUSH1 0xFF NOT AND PUSH1 0x1 DUP4 PUSH1 0x4 DUP2 GT ISZERO PUSH2 0x4063 JUMPI PUSH2 0x4063 PUSH2 0x5ADA JUMP JUMPDEST MUL OR SWAP1 SSTORE POP PUSH1 0x0 DUP1 MLOAD PUSH1 0x20 PUSH2 0x5B5D DUP4 CODECOPY DUP2 MLOAD SWAP2 MSTORE DUP7 DUP7 DUP7 DUP5 DUP2 MLOAD DUP2 LT PUSH2 0x408B JUMPI PUSH2 0x408B PUSH2 0x5AF0 JUMP JUMPDEST PUSH1 0x20 MUL PUSH1 0x20 ADD ADD MLOAD DUP7 PUSH1 0x1 CALLER PUSH1 0x40 MLOAD PUSH2 0x40A9 SWAP7 SWAP6 SWAP5 SWAP4 SWAP3 SWAP2 SWAP1 PUSH2 0x585F JUMP JUMPDEST PUSH1 0x40 MLOAD DUP1 SWAP2 SUB SWAP1 LOG1 DUP1 PUSH2 0x40BB DUP2 PUSH2 0x5AA9 JUMP JUMPDEST SWAP2 POP POP PUSH2 0x3FE6 JUMP JUMPDEST POP PUSH2 0x15A2 JUMP JUMPDEST PUSH1 0x0 JUMPDEST DUP4 MLOAD DUP2 LT ISZERO PUSH2 0x96C JUMPI PUSH1 0x0 DUP7 DUP2 MSTORE PUSH1 0x1 PUSH1 0x20 DUP2 DUP2 MSTORE PUSH1 0x40 DUP1 DUP5 KECCAK256 PUSH1 0x1 PUSH1 0x1 PUSH1 0xA0 SHL SUB DUP11 AND DUP6 MSTORE PUSH1 0x10 ADD SWAP1 SWAP2 MSTORE DUP3 KECCAK256 DUP7 MLOAD DUP7 SWAP4 SWAP2 SWAP1 SWAP3 ADD SWAP2 DUP8 SWAP1 DUP6 SWAP1 DUP2 LT PUSH2 0x4115 JUMPI PUSH2 0x4115 PUSH2 0x5AF0 JUMP JUMPDEST PUSH1 0x20 SWAP1 DUP2 MUL SWAP2 SWAP1 SWAP2 ADD DUP2 ADD MLOAD DUP3 MSTORE DUP2 ADD SWAP2 SWAP1 SWAP2 MSTORE PUSH1 0x40 ADD PUSH1 0x0 KECCAK256 DUP1 SLOAD PUSH1 0xFF NOT AND PUSH1 0x1 DUP4 PUSH1 0x4 DUP2 GT ISZERO PUSH2 0x4149 JUMPI PUSH2 0x4149 PUSH2 0x5ADA JUMP JUMPDEST MUL OR SWAP1 SSTORE POP PUSH1 0x0 DUP1 MLOAD PUSH1 0x20 PUSH2 0x5B5D DUP4 CODECOPY DUP2 MLOAD SWAP2 MSTORE DUP7 DUP7 DUP7 DUP5 DUP2 MLOAD DUP2 LT PUSH2 0x4171 JUMPI PUSH2 0x4171 PUSH2 0x5AF0 JUMP JUMPDEST PUSH1 0x20 MUL PUSH1 0x20 ADD ADD MLOAD DUP7 PUSH1 0x0 CALLER PUSH1 0x40 MLOAD PUSH2 0x418F SWAP7 SWAP6 SWAP5 SWAP4 SWAP3 SWAP2 SWAP1 PUSH2 0x585F JUMP JUMPDEST PUSH1 0x40 MLOAD DUP1 SWAP2 SUB SWAP1 LOG1 DUP1 PUSH2 0x41A1 DUP2 PUSH2 0x5AA9 JUMP JUMPDEST SWAP2 POP POP PUSH2 0x40CC JUMP JUMPDEST PUSH1 0x0 PUSH2 0x9A7 DUP3 PUSH1 0x36 PUSH2 0x1A5B JUMP JUMPDEST PUSH1 0x0 DUP4 DUP2 MSTORE PUSH1 0x1 PUSH1 0x20 DUP2 DUP2 MSTORE PUSH1 0x40 DUP1 DUP5 KECCAK256 PUSH1 0x1 PUSH1 0x1 PUSH1 0xA0 SHL SUB DUP8 AND DUP6 MSTORE PUSH1 0x10 ADD DUP3 MSTORE DUP1 DUP5 KECCAK256 DUP6 DUP6 MSTORE SWAP1 SWAP3 ADD SWAP1 MSTORE DUP1 DUP3 KECCAK256 DUP1 SLOAD PUSH1 0xFF NOT AND PUSH1 0x3 SWAP1 DUP2 OR SWAP1 SWAP2 SSTORE SWAP1 MLOAD PUSH1 0x0 DUP1 MLOAD PUSH1 0x20 PUSH2 0x5B5D DUP4 CODECOPY DUP2 MLOAD SWAP2 MSTORE SWAP3 PUSH2 0x4218 SWAP3 DUP8 SWAP3 DUP8 SWAP3 DUP8 SWAP3 SWAP2 CALLER SWAP1 PUSH2 0x585F JUMP JUMPDEST PUSH1 0x40 MLOAD DUP1 SWAP2 SUB SWAP1 LOG1 PUSH1 0x0 DUP4 DUP2 MSTORE PUSH1 0x1 PUSH1 0x20 MSTORE PUSH1 0x40 SWAP1 KECCAK256 PUSH1 0xC ADD DUP1 SLOAD PUSH1 0x8 SWAP2 SWAP1 DUP4 SWAP1 DUP2 LT PUSH2 0x4247 JUMPI PUSH2 0x4247 PUSH2 0x5AF0 JUMP JUMPDEST SWAP1 PUSH1 0x0 MSTORE PUSH1 0x20 PUSH1 0x0 KECCAK256 SWAP1 PUSH1 0xB MUL ADD PUSH1 0x9 ADD PUSH1 0x0 PUSH2 0x100 EXP DUP2 SLOAD DUP2 PUSH1 0xFF MUL NOT AND SWAP1 DUP4 PUSH1 0xB DUP2 GT ISZERO PUSH2 0x4279 JUMPI PUSH2 0x4279 PUSH2 0x5ADA JUMP JUMPDEST MUL OR SWAP1 SSTORE POP PUSH1 0x0 DUP1 MLOAD PUSH1 0x20 PUSH2 0x5B1D DUP4 CODECOPY DUP2 MLOAD SWAP2 MSTORE DUP4 DUP3 PUSH1 0x8 CALLER PUSH1 0x40 MLOAD PUSH2 0x1C72 SWAP5 SWAP4 SWAP3 SWAP2 SWAP1 PUSH2 0x590C JUMP JUMPDEST PUSH1 0x0 DUP2 DUP2 MSTORE PUSH1 0x1 PUSH1 0x20 SWAP1 DUP2 MSTORE PUSH1 0x40 DUP1 DUP4 KECCAK256 PUSH1 0x15 ADD DUP1 SLOAD PUSH1 0xFF NOT AND SWAP1 SSTORE DUP1 MLOAD DUP5 DUP2 MSTORE SWAP2 DUP3 ADD SWAP3 SWAP1 SWAP3 MSTORE CALLER SWAP2 DUP2 ADD SWAP2 SWAP1 SWAP2 MSTORE PUSH32 0x398FD552105B0090D73611AD526D12979F19B77A7F923343A85D8FD14A13A67 SWAP1 PUSH1 0x60 ADD PUSH2 0xD10 JUMP JUMPDEST PUSH1 0x0 DUP2 ISZERO PUSH2 0x4356 JUMPI POP PUSH1 0x0 DUP5 DUP2 MSTORE PUSH1 0x1 PUSH1 0x20 DUP2 DUP2 MSTORE PUSH1 0x40 DUP1 DUP5 KECCAK256 PUSH1 0x1 PUSH1 0x1 PUSH1 0xA0 SHL SUB DUP8 AND DUP6 MSTORE PUSH1 0xF DUP2 ADD DUP4 MSTORE DUP2 DUP6 KECCAK256 DUP9 DUP7 MSTORE DUP5 ADD DUP4 MSTORE SWAP1 DUP5 KECCAK256 DUP9 DUP6 MSTORE SWAP3 SWAP1 SWAP2 MSTORE PUSH1 0x13 ADD DUP1 SLOAD SWAP2 SWAP3 PUSH2 0x434C DUP4 PUSH2 0x5AA9 JUMP JUMPDEST SWAP2 SWAP1 POP SSTORE POP PUSH2 0x43A4 JUMP JUMPDEST POP PUSH1 0x0 DUP5 DUP2 MSTORE PUSH1 0x1 PUSH1 0x20 DUP2 DUP2 MSTORE PUSH1 0x40 DUP1 DUP5 KECCAK256 PUSH1 0x1 PUSH1 0x1 PUSH1 0xA0 SHL SUB DUP8 AND DUP6 MSTORE PUSH1 0x10 DUP2 ADD DUP4 MSTORE DUP2 DUP6 KECCAK256 DUP9 DUP7 MSTORE DUP5 ADD DUP4 MSTORE SWAP1 DUP5 KECCAK256 DUP9 DUP6 MSTORE SWAP3 SWAP1 SWAP2 MSTORE PUSH1 0x14 ADD DUP1 SLOAD SWAP2 SWAP3 PUSH2 0x439E DUP4 PUSH2 0x5AA9 JUMP JUMPDEST SWAP2 SWAP1 POP SSTORE POP JUMPDEST POP POP PUSH1 0x0 SWAP3 DUP4 MSTORE PUSH1 0x1 PUSH1 0x20 DUP2 DUP2 MSTORE PUSH1 0x40 DUP1 DUP7 KECCAK256 PUSH1 0x1 PUSH1 0x1 PUSH1 0xA0 SHL SUB SWAP1 SWAP5 AND DUP7 MSTORE PUSH1 0xF SWAP1 SWAP4 ADD DUP2 MSTORE SWAP2 DUP5 KECCAK256 DUP1 SLOAD SWAP2 DUP3 ADD DUP2 SSTORE DUP5 MSTORE SWAP3 KECCAK256 SWAP1 SWAP2 ADD SSTORE JUMP JUMPDEST PUSH1 0x0 DUP2 DUP2 MSTORE PUSH1 0x1 PUSH1 0x20 SWAP1 DUP2 MSTORE PUSH1 0x40 DUP1 DUP4 KECCAK256 PUSH1 0x15 ADD DUP1 SLOAD PUSH2 0xFF00 NOT AND SWAP1 SSTORE DUP1 MLOAD DUP5 DUP2 MSTORE SWAP2 DUP3 ADD SWAP3 SWAP1 SWAP3 MSTORE CALLER SWAP2 DUP2 ADD SWAP2 SWAP1 SWAP2 MSTORE PUSH32 0x89BB035780742B4FE520972847D93DB0618ABD46516AF218E10FD3479347B7E4 SWAP1 PUSH1 0x60 ADD PUSH2 0xD10 JUMP JUMPDEST PUSH1 0x0 DUP2 DUP2 MSTORE PUSH1 0x1 PUSH1 0x20 MSTORE PUSH1 0x40 SWAP1 DUP2 SWAP1 KECCAK256 PUSH1 0x15 ADD DUP1 SLOAD PUSH3 0xFF0000 NOT AND PUSH3 0x40000 OR SWAP1 SSTORE MLOAD PUSH32 0xDEA20A6D822B68D598B7AB4FD45418A7CA7B103F12D300BCC3B56A7B94D9ED33 SWAP1 PUSH2 0x448F SWAP1 DUP4 SWAP1 PUSH1 0x4 SWAP1 CALLER SWAP1 PUSH2 0x58E1 JUMP JUMPDEST PUSH1 0x40 MLOAD DUP1 SWAP2 SUB SWAP1 LOG1 PUSH1 0x0 DUP2 DUP2 MSTORE PUSH1 0x1 PUSH1 0x20 SWAP1 DUP2 MSTORE PUSH1 0x40 DUP1 DUP4 KECCAK256 PUSH1 0x15 ADD DUP1 SLOAD PUSH2 0xFF00 NOT AND SWAP1 SSTORE DUP1 MLOAD DUP5 DUP2 MSTORE SWAP2 DUP3 ADD SWAP3 SWAP1 SWAP3 MSTORE CALLER SWAP2 DUP2 ADD SWAP2 SWAP1 SWAP2 MSTORE PUSH32 0x398FD552105B0090D73611AD526D12979F19B77A7F923343A85D8FD14A13A67 SWAP1 PUSH1 0x60 ADD PUSH2 0xD10 JUMP JUMPDEST PUSH1 0x3 DUP1 SLOAD PUSH1 0x0 SWAP2 DUP3 PUSH2 0x4503 DUP4 PUSH2 0x5AA9 JUMP JUMPDEST SWAP1 SWAP2 SSTORE POP POP PUSH1 0x3 SLOAD PUSH1 0x0 SWAP1 DUP2 MSTORE PUSH1 0x1 PUSH1 0x20 DUP2 DUP2 MSTORE PUSH1 0x40 SWAP1 SWAP3 KECCAK256 DUP1 SLOAD PUSH1 0x1 PUSH1 0x1 PUSH1 0xA0 SHL SUB NOT AND CALLER OR DUP2 SSTORE DUP5 MLOAD SWAP2 DUP2 ADD SWAP2 SWAP1 SWAP2 SSTORE DUP4 DUP3 ADD MLOAD DUP1 MLOAD SWAP2 SWAP3 PUSH2 0x454F SWAP3 PUSH1 0x2 DUP6 ADD SWAP3 SWAP1 SWAP2 ADD SWAP1 PUSH2 0x4A0A JUMP JUMPDEST POP PUSH1 0x40 DUP4 ADD MLOAD DUP1 MLOAD PUSH2 0x456B SWAP2 PUSH1 0x3 DUP5 ADD SWAP2 PUSH1 0x20 SWAP1 SWAP2 ADD SWAP1 PUSH2 0x4A0A JUMP JUMPDEST POP PUSH1 0x60 DUP4 ADD MLOAD PUSH1 0x4 DUP3 ADD SSTORE PUSH1 0x80 DUP4 ADD MLOAD PUSH1 0x5 DUP3 ADD SSTORE PUSH1 0xA0 DUP4 ADD MLOAD PUSH1 0x6 DUP3 ADD SSTORE PUSH1 0xC0 DUP4 ADD MLOAD DUP1 MLOAD PUSH2 0x45A5 SWAP2 PUSH1 0x7 DUP5 ADD SWAP2 PUSH1 0x20 SWAP1 SWAP2 ADD SWAP1 PUSH2 0x4A8E JUMP JUMPDEST POP PUSH1 0xE0 DUP4 ADD MLOAD PUSH1 0x8 DUP3 ADD SSTORE PUSH2 0x100 DUP1 DUP5 ADD MLOAD PUSH1 0x9 DUP4 ADD SSTORE PUSH2 0x160 DUP5 ADD MLOAD PUSH1 0xB DUP4 ADD SSTORE PUSH2 0x120 DUP5 ADD MLOAD PUSH1 0xA DUP4 ADD DUP1 SLOAD PUSH2 0x140 DUP8 ADD MLOAD ISZERO DUP1 ISZERO SWAP1 SWAP5 MUL PUSH2 0xFF00 NOT SWAP4 ISZERO ISZERO SWAP4 SWAP1 SWAP4 AND PUSH2 0xFFFF NOT SWAP1 SWAP2 AND OR SWAP2 SWAP1 SWAP2 OR SWAP1 SSTORE PUSH2 0x4614 JUMPI PUSH2 0x180 DUP4 ADD MLOAD MLOAD PUSH1 0x11 DUP3 ADD DUP2 SWAP1 SSTORE PUSH1 0x12 DUP3 ADD SSTORE PUSH2 0x4623 JUMP JUMPDEST PUSH1 0x1 PUSH1 0x11 DUP3 ADD DUP2 SWAP1 SSTORE PUSH1 0x12 DUP3 ADD SSTORE JUMPDEST PUSH1 0x15 DUP2 ADD DUP1 SLOAD PUSH3 0xFFFFFF NOT AND PUSH3 0x10101 OR SWAP1 SSTORE PUSH1 0x0 JUMPDEST DUP4 PUSH2 0x180 ADD MLOAD MLOAD DUP2 LT ISZERO PUSH2 0x47A5 JUMPI PUSH1 0x0 DUP5 PUSH2 0x180 ADD MLOAD DUP3 DUP2 MLOAD DUP2 LT PUSH2 0x4660 JUMPI PUSH2 0x4660 PUSH2 0x5AF0 JUMP JUMPDEST PUSH1 0x20 MUL PUSH1 0x20 ADD ADD MLOAD PUSH1 0x60 ADD SWAP1 PUSH1 0xB DUP2 GT ISZERO PUSH2 0x467D JUMPI PUSH2 0x467D PUSH2 0x5ADA JUMP JUMPDEST SWAP1 DUP2 PUSH1 0xB DUP2 GT ISZERO PUSH2 0x4690 JUMPI PUSH2 0x4690 PUSH2 0x5ADA JUMP JUMPDEST DUP2 MSTORE POP POP DUP2 PUSH1 0xC ADD DUP5 PUSH2 0x180 ADD MLOAD DUP3 DUP2 MLOAD DUP2 LT PUSH2 0x46AF JUMPI PUSH2 0x46AF PUSH2 0x5AF0 JUMP JUMPDEST PUSH1 0x20 SWAP1 DUP2 MUL SWAP2 SWAP1 SWAP2 ADD DUP2 ADD MLOAD DUP3 SLOAD PUSH1 0x1 DUP2 ADD DUP5 SSTORE PUSH1 0x0 SWAP4 DUP5 MSTORE SWAP3 DUP3 SWAP1 KECCAK256 DUP2 MLOAD DUP1 MLOAD DUP1 MLOAD SWAP4 SWAP6 PUSH1 0xB MUL SWAP1 SWAP3 ADD SWAP4 SWAP1 SWAP3 DUP5 SWAP3 PUSH2 0x46ED SWAP3 DUP5 SWAP3 SWAP2 ADD SWAP1 PUSH2 0x4A0A JUMP JUMPDEST POP PUSH1 0x20 DUP3 DUP2 ADD MLOAD PUSH1 0x1 DUP4 ADD SSTORE PUSH1 0x40 DUP4 ADD MLOAD PUSH1 0x2 DUP4 ADD SSTORE PUSH1 0x60 DUP4 ADD MLOAD PUSH1 0x3 DUP4 ADD SSTORE PUSH1 0x80 DUP4 ADD MLOAD PUSH1 0x4 DUP4 ADD SSTORE PUSH1 0xA0 DUP4 ADD MLOAD PUSH1 0x5 DUP4 ADD SSTORE PUSH1 0xC0 DUP4 ADD MLOAD DUP1 MLOAD PUSH2 0x4738 SWAP3 PUSH1 0x6 DUP6 ADD SWAP3 ADD SWAP1 PUSH2 0x4A0A JUMP JUMPDEST POP POP POP PUSH1 0x20 DUP3 DUP2 ADD MLOAD PUSH1 0x7 DUP4 ADD SSTORE PUSH1 0x40 DUP4 ADD MLOAD DUP1 MLOAD PUSH2 0x475D SWAP3 PUSH1 0x8 DUP6 ADD SWAP3 ADD SWAP1 PUSH2 0x4A0A JUMP JUMPDEST POP PUSH1 0x60 DUP3 ADD MLOAD PUSH1 0x9 DUP3 ADD DUP1 SLOAD PUSH1 0xFF NOT AND PUSH1 0x1 DUP4 PUSH1 0xB DUP2 GT ISZERO PUSH2 0x4781 JUMPI PUSH2 0x4781 PUSH2 0x5ADA JUMP JUMPDEST MUL OR SWAP1 SSTORE POP PUSH1 0x80 DUP3 ADD MLOAD DUP2 PUSH1 0xA ADD SSTORE POP POP DUP1 DUP1 PUSH2 0x479D SWAP1 PUSH2 0x5AA9 JUMP JUMPDEST SWAP2 POP POP PUSH2 0x4639 JUMP JUMPDEST POP POP PUSH1 0x3 SLOAD SWAP3 SWAP2 POP POP JUMP JUMPDEST PUSH1 0x0 DUP5 DUP2 MSTORE PUSH1 0x1 PUSH1 0x20 MSTORE PUSH1 0x40 SWAP1 KECCAK256 PUSH1 0xC DUP2 ADD DUP1 SLOAD PUSH1 0x4 SWAP2 SWAP1 DUP6 SWAP1 DUP2 LT PUSH2 0x47D8 JUMPI PUSH2 0x47D8 PUSH2 0x5AF0 JUMP JUMPDEST SWAP1 PUSH1 0x0 MSTORE PUSH1 0x20 PUSH1 0x0 KECCAK256 SWAP1 PUSH1 0xB MUL ADD PUSH1 0x9 ADD PUSH1 0x0 PUSH2 0x100 EXP DUP2 SLOAD DUP2 PUSH1 0xFF MUL NOT AND SWAP1 DUP4 PUSH1 0xB DUP2 GT ISZERO PUSH2 0x480A JUMPI PUSH2 0x480A PUSH2 0x5ADA JUMP JUMPDEST MUL OR SWAP1 SSTORE POP PUSH1 0x0 DUP1 MLOAD PUSH1 0x20 PUSH2 0x5B1D DUP4 CODECOPY DUP2 MLOAD SWAP2 MSTORE DUP6 DUP5 PUSH1 0x4 CALLER PUSH1 0x40 MLOAD PUSH2 0x4833 SWAP5 SWAP4 SWAP3 SWAP2 SWAP1 PUSH2 0x590C JUMP JUMPDEST PUSH1 0x40 MLOAD DUP1 SWAP2 SUB SWAP1 LOG1 TIMESTAMP DUP2 PUSH1 0xC ADD DUP5 DUP2 SLOAD DUP2 LT PUSH2 0x4851 JUMPI PUSH2 0x4851 PUSH2 0x5AF0 JUMP JUMPDEST PUSH1 0x0 SWAP2 DUP3 MSTORE PUSH1 0x20 DUP1 DUP4 KECCAK256 PUSH1 0xA PUSH1 0xB SWAP1 SWAP4 MUL ADD SWAP2 SWAP1 SWAP2 ADD SWAP3 SWAP1 SWAP3 SSTORE PUSH1 0x1 PUSH1 0x1 PUSH1 0xA0 SHL SUB DUP7 AND DUP2 MSTORE PUSH1 0xF DUP4 ADD DUP3 MSTORE PUSH1 0x40 DUP1 DUP3 KECCAK256 DUP7 DUP4 MSTORE PUSH1 0x1 SWAP1 DUP2 ADD DUP5 MSTORE SWAP2 KECCAK256 DUP5 MLOAD PUSH2 0x48A2 SWAP4 SWAP2 SWAP1 SWAP3 ADD SWAP2 SWAP1 DUP6 ADD SWAP1 PUSH2 0x4A0A JUMP JUMPDEST POP PUSH1 0x1 PUSH1 0x1 PUSH1 0xA0 SHL SUB DUP5 AND PUSH1 0x0 SWAP1 DUP2 MSTORE PUSH1 0xF DUP3 ADD PUSH1 0x20 SWAP1 DUP2 MSTORE PUSH1 0x40 DUP1 DUP4 KECCAK256 DUP7 DUP5 MSTORE PUSH1 0x1 SWAP1 DUP2 ADD SWAP1 SWAP3 MSTORE SWAP2 DUP3 SWAP1 KECCAK256 DUP1 SLOAD PUSH1 0xFF NOT AND DUP3 OR SWAP1 SSTORE SWAP1 MLOAD PUSH1 0x0 DUP1 MLOAD PUSH1 0x20 PUSH2 0x5B5D DUP4 CODECOPY DUP2 MLOAD SWAP2 MSTORE SWAP2 PUSH2 0x234B SWAP2 DUP9 SWAP2 DUP9 SWAP2 DUP9 SWAP2 SWAP1 DUP2 SWAP1 CALLER SWAP1 PUSH2 0x585F JUMP JUMPDEST PUSH1 0x40 DUP1 MLOAD DUP1 DUP3 ADD SWAP1 SWAP2 MSTORE DUP1 PUSH1 0x0 JUMPDEST DUP2 MSTORE PUSH1 0x20 ADD PUSH1 0x60 DUP2 MSTORE POP SWAP1 JUMP JUMPDEST PUSH1 0x40 MLOAD DUP1 PUSH2 0x300 ADD PUSH1 0x40 MSTORE DUP1 PUSH1 0x0 PUSH1 0x1 PUSH1 0x1 PUSH1 0xA0 SHL SUB AND DUP2 MSTORE PUSH1 0x20 ADD PUSH1 0x0 DUP2 MSTORE PUSH1 0x20 ADD PUSH1 0x60 DUP2 MSTORE PUSH1 0x20 ADD PUSH1 0x60 DUP2 MSTORE PUSH1 0x20 ADD PUSH1 0x0 DUP2 MSTORE PUSH1 0x20 ADD PUSH1 0x0 DUP2 MSTORE PUSH1 0x20 ADD PUSH1 0x0 DUP2 MSTORE PUSH1 0x20 ADD PUSH1 0x60 DUP2 MSTORE PUSH1 0x20 ADD PUSH1 0x0 DUP2 MSTORE PUSH1 0x20 ADD PUSH1 0x0 DUP2 MSTORE PUSH1 0x20 ADD PUSH1 0x0 ISZERO ISZERO DUP2 MSTORE PUSH1 0x20 ADD PUSH1 0x0 ISZERO ISZERO DUP2 MSTORE PUSH1 0x20 ADD PUSH1 0x0 DUP2 MSTORE PUSH1 0x20 ADD PUSH1 0x60 DUP2 MSTORE PUSH1 0x20 ADD PUSH1 0x60 DUP2 MSTORE PUSH1 0x20 ADD PUSH1 0x60 DUP2 MSTORE PUSH1 0x20 ADD PUSH1 0x60 DUP2 MSTORE PUSH1 0x20 ADD PUSH1 0x0 DUP2 MSTORE PUSH1 0x20 ADD PUSH1 0x0 DUP2 MSTORE PUSH1 0x20 ADD PUSH1 0x0 DUP2 MSTORE PUSH1 0x20 ADD PUSH1 0x0 DUP2 MSTORE PUSH1 0x20 ADD PUSH1 0x0 ISZERO ISZERO DUP2 MSTORE PUSH1 0x20 ADD PUSH1 0x0 ISZERO ISZERO DUP2 MSTORE PUSH1 0x20 ADD PUSH1 0x0 PUSH1 0x6 DUP2 GT ISZERO PUSH2 0x49EB JUMPI PUSH2 0x49EB PUSH2 0x5ADA JUMP JUMPDEST SWAP1 MSTORE SWAP1 JUMP JUMPDEST PUSH1 0x40 DUP1 MLOAD PUSH1 0x60 DUP2 ADD SWAP1 SWAP2 MSTORE PUSH1 0x0 DUP1 DUP3 MSTORE PUSH1 0x20 DUP3 ADD SWAP1 PUSH2 0x490D JUMP JUMPDEST DUP3 DUP1 SLOAD PUSH2 0x4A16 SWAP1 PUSH2 0x5A74 JUMP JUMPDEST SWAP1 PUSH1 0x0 MSTORE PUSH1 0x20 PUSH1 0x0 KECCAK256 SWAP1 PUSH1 0x1F ADD PUSH1 0x20 SWAP1 DIV DUP2 ADD SWAP3 DUP3 PUSH2 0x4A38 JUMPI PUSH1 0x0 DUP6 SSTORE PUSH2 0x4A7E JUMP JUMPDEST DUP3 PUSH1 0x1F LT PUSH2 0x4A51 JUMPI DUP1 MLOAD PUSH1 0xFF NOT AND DUP4 DUP1 ADD OR DUP6 SSTORE PUSH2 0x4A7E JUMP JUMPDEST DUP3 DUP1 ADD PUSH1 0x1 ADD DUP6 SSTORE DUP3 ISZERO PUSH2 0x4A7E JUMPI SWAP2 DUP3 ADD JUMPDEST DUP3 DUP2 GT ISZERO PUSH2 0x4A7E JUMPI DUP3 MLOAD DUP3 SSTORE SWAP2 PUSH1 0x20 ADD SWAP2 SWAP1 PUSH1 0x1 ADD SWAP1 PUSH2 0x4A63 JUMP JUMPDEST POP PUSH2 0x4A8A SWAP3 SWAP2 POP PUSH2 0x4AC8 JUMP JUMPDEST POP SWAP1 JUMP JUMPDEST DUP3 DUP1 SLOAD DUP3 DUP3 SSTORE SWAP1 PUSH1 0x0 MSTORE PUSH1 0x20 PUSH1 0x0 KECCAK256 SWAP1 DUP2 ADD SWAP3 DUP3 ISZERO PUSH2 0x4A7E JUMPI SWAP2 PUSH1 0x20 MUL DUP3 ADD DUP3 DUP2 GT ISZERO PUSH2 0x4A7E JUMPI DUP3 MLOAD DUP3 SSTORE SWAP2 PUSH1 0x20 ADD SWAP2 SWAP1 PUSH1 0x1 ADD SWAP1 PUSH2 0x4A63 JUMP JUMPDEST JUMPDEST DUP1 DUP3 GT ISZERO PUSH2 0x4A8A JUMPI PUSH1 0x0 DUP2 SSTORE PUSH1 0x1 ADD PUSH2 0x4AC9 JUMP JUMPDEST DUP1 CALLDATALOAD PUSH1 0x1 PUSH1 0x1 PUSH1 0xA0 SHL SUB DUP2 AND DUP2 EQ PUSH2 0x2BD8 JUMPI PUSH1 0x0 DUP1 REVERT JUMPDEST PUSH1 0x0 DUP3 PUSH1 0x1F DUP4 ADD SLT PUSH2 0x4B05 JUMPI PUSH1 0x0 DUP1 REVERT JUMPDEST PUSH1 0x20 PUSH2 0x4B19 PUSH2 0x4B14 DUP5 CALLDATALOAD PUSH2 0x59E0 JUMP JUMPDEST PUSH2 0x59AF JUMP JUMPDEST DUP1 DUP5 CALLDATALOAD DUP3 MSTORE DUP3 DUP3 ADD SWAP2 POP DUP3 DUP6 ADD DUP7 DUP5 DUP8 CALLDATALOAD PUSH1 0x5 SHL DUP9 ADD ADD GT ISZERO PUSH2 0x4B3B JUMPI PUSH1 0x0 DUP1 REVERT JUMPDEST PUSH1 0x0 JUMPDEST DUP7 CALLDATALOAD DUP2 LT ISZERO PUSH2 0x4C8C JUMPI PUSH8 0xFFFFFFFFFFFFFFFF DUP1 DUP4 CALLDATALOAD GT ISZERO PUSH2 0x4B5E JUMPI PUSH1 0x0 DUP1 REVERT JUMPDEST DUP3 CALLDATALOAD DUP9 ADD PUSH1 0x1F NOT PUSH1 0xA0 DUP3 DUP13 SUB DUP3 ADD SLT ISZERO PUSH2 0x4B77 JUMPI PUSH1 0x0 DUP1 REVERT JUMPDEST PUSH2 0x4B7F PUSH2 0x593F JUMP JUMPDEST DUP9 DUP4 ADD CALLDATALOAD DUP5 DUP2 GT ISZERO PUSH2 0x4B90 JUMPI PUSH1 0x0 DUP1 REVERT JUMPDEST DUP4 ADD PUSH1 0xE0 DUP2 DUP15 SUB DUP5 ADD SLT ISZERO PUSH2 0x4BA4 JUMPI PUSH1 0x0 DUP1 REVERT JUMPDEST PUSH2 0x4BAC PUSH2 0x5968 JUMP JUMPDEST SWAP3 POP DUP5 DUP11 DUP3 ADD CALLDATALOAD GT ISZERO PUSH2 0x4BBE JUMPI PUSH1 0x0 DUP1 REVERT JUMPDEST PUSH2 0x4BCF DUP14 DUP12 DUP13 DUP5 ADD CALLDATALOAD DUP5 ADD ADD PUSH2 0x4D24 JUMP JUMPDEST DUP4 MSTORE PUSH1 0x40 DUP2 ADD CALLDATALOAD DUP11 DUP5 ADD MSTORE PUSH1 0x60 DUP2 ADD CALLDATALOAD PUSH1 0x40 DUP5 ADD MSTORE PUSH1 0x80 DUP2 ADD CALLDATALOAD PUSH1 0x60 DUP5 ADD MSTORE PUSH1 0xA0 DUP2 ADD CALLDATALOAD PUSH1 0x80 DUP5 ADD MSTORE PUSH1 0xC0 DUP2 ADD CALLDATALOAD PUSH1 0xA0 DUP5 ADD MSTORE PUSH1 0xE0 DUP2 ADD CALLDATALOAD DUP6 DUP2 GT ISZERO PUSH2 0x4C14 JUMPI PUSH1 0x0 DUP1 REVERT JUMPDEST PUSH2 0x4C22 DUP15 DUP13 DUP4 DUP6 ADD ADD PUSH2 0x4D24 JUMP JUMPDEST PUSH1 0xC0 DUP6 ADD MSTORE POP POP SWAP1 DUP2 MSTORE PUSH1 0x40 DUP3 ADD CALLDATALOAD DUP9 DUP3 ADD MSTORE PUSH1 0x60 DUP3 ADD CALLDATALOAD SWAP1 DUP4 DUP3 GT ISZERO PUSH2 0x4C48 JUMPI PUSH1 0x0 DUP1 REVERT JUMPDEST PUSH2 0x4C56 DUP13 DUP11 DUP5 DUP7 ADD ADD PUSH2 0x4D24 JUMP JUMPDEST PUSH1 0x40 DUP3 ADD MSTORE PUSH2 0x4C67 PUSH1 0x80 DUP5 ADD PUSH2 0x4D15 JUMP JUMPDEST PUSH1 0x60 DUP3 ADD MSTORE PUSH1 0xA0 SWAP3 SWAP1 SWAP3 ADD CALLDATALOAD PUSH1 0x80 DUP4 ADD MSTORE POP DUP6 MSTORE POP SWAP3 DUP5 ADD SWAP3 SWAP1 DUP5 ADD SWAP1 PUSH1 0x1 ADD PUSH2 0x4B3E JUMP JUMPDEST POP SWAP1 SWAP7 SWAP6 POP POP POP POP POP POP JUMP JUMPDEST PUSH1 0x0 DUP3 PUSH1 0x1F DUP4 ADD SLT PUSH2 0x4CA9 JUMPI PUSH1 0x0 DUP1 REVERT JUMPDEST DUP2 CALLDATALOAD PUSH1 0x20 PUSH2 0x4CB9 PUSH2 0x4B14 DUP4 PUSH2 0x59E0 JUMP JUMPDEST DUP1 DUP4 DUP3 MSTORE DUP3 DUP3 ADD SWAP2 POP DUP3 DUP7 ADD DUP8 DUP5 DUP7 PUSH1 0x5 SHL DUP10 ADD ADD GT ISZERO PUSH2 0x4CD9 JUMPI PUSH1 0x0 DUP1 REVERT JUMPDEST PUSH1 0x0 JUMPDEST DUP6 DUP2 LT ISZERO PUSH2 0x4CF8 JUMPI DUP2 CALLDATALOAD DUP5 MSTORE SWAP3 DUP5 ADD SWAP3 SWAP1 DUP5 ADD SWAP1 PUSH1 0x1 ADD PUSH2 0x4CDC JUMP JUMPDEST POP SWAP1 SWAP8 SWAP7 POP POP POP POP POP POP POP JUMP JUMPDEST DUP1 CALLDATALOAD DUP1 ISZERO ISZERO DUP2 EQ PUSH2 0x2BD8 JUMPI PUSH1 0x0 DUP1 REVERT JUMPDEST DUP1 CALLDATALOAD PUSH1 0xC DUP2 LT PUSH2 0x2BD8 JUMPI PUSH1 0x0 DUP1 REVERT JUMPDEST PUSH1 0x0 DUP3 PUSH1 0x1F DUP4 ADD SLT PUSH2 0x4D35 JUMPI PUSH1 0x0 DUP1 REVERT JUMPDEST DUP2 CALLDATALOAD PUSH8 0xFFFFFFFFFFFFFFFF DUP2 GT ISZERO PUSH2 0x4D4F JUMPI PUSH2 0x4D4F PUSH2 0x5B06 JUMP JUMPDEST PUSH2 0x4D62 PUSH1 0x1F DUP3 ADD PUSH1 0x1F NOT AND PUSH1 0x20 ADD PUSH2 0x59AF JUMP JUMPDEST DUP2 DUP2 MSTORE DUP5 PUSH1 0x20 DUP4 DUP7 ADD ADD GT ISZERO PUSH2 0x4D77 JUMPI PUSH1 0x0 DUP1 REVERT JUMPDEST DUP2 PUSH1 0x20 DUP6 ADD PUSH1 0x20 DUP4 ADD CALLDATACOPY PUSH1 0x0 SWAP2 DUP2 ADD PUSH1 0x20 ADD SWAP2 SWAP1 SWAP2 MSTORE SWAP4 SWAP3 POP POP POP JUMP JUMPDEST PUSH1 0x0 PUSH2 0x1A0 DUP3 DUP5 SUB SLT ISZERO PUSH2 0x4DA7 JUMPI PUSH1 0x0 DUP1 REVERT JUMPDEST PUSH2 0x4DAF PUSH2 0x598B JUMP JUMPDEST SWAP1 POP DUP2 CALLDATALOAD DUP2 MSTORE PUSH1 0x20 DUP3 ADD CALLDATALOAD PUSH8 0xFFFFFFFFFFFFFFFF DUP1 DUP3 GT ISZERO PUSH2 0x4DD0 JUMPI PUSH1 0x0 DUP1 REVERT JUMPDEST PUSH2 0x4DDC DUP6 DUP4 DUP7 ADD PUSH2 0x4D24 JUMP JUMPDEST PUSH1 0x20 DUP5 ADD MSTORE PUSH1 0x40 DUP5 ADD CALLDATALOAD SWAP2 POP DUP1 DUP3 GT ISZERO PUSH2 0x4DF5 JUMPI PUSH1 0x0 DUP1 REVERT JUMPDEST PUSH2 0x4E01 DUP6 DUP4 DUP7 ADD PUSH2 0x4D24 JUMP JUMPDEST PUSH1 0x40 DUP5 ADD MSTORE PUSH1 0x60 DUP5 ADD CALLDATALOAD PUSH1 0x60 DUP5 ADD MSTORE PUSH1 0x80 DUP5 ADD CALLDATALOAD PUSH1 0x80 DUP5 ADD MSTORE PUSH1 0xA0 DUP5 ADD CALLDATALOAD PUSH1 0xA0 DUP5 ADD MSTORE PUSH1 0xC0 DUP5 ADD CALLDATALOAD SWAP2 POP DUP1 DUP3 GT ISZERO PUSH2 0x4E38 JUMPI PUSH1 0x0 DUP1 REVERT JUMPDEST PUSH2 0x4E44 DUP6 DUP4 DUP7 ADD PUSH2 0x4C98 JUMP JUMPDEST PUSH1 0xC0 DUP5 ADD MSTORE PUSH1 0xE0 DUP5 DUP2 ADD CALLDATALOAD SWAP1 DUP5 ADD MSTORE PUSH2 0x100 DUP1 DUP6 ADD CALLDATALOAD SWAP1 DUP5 ADD MSTORE PUSH2 0x120 SWAP2 POP PUSH2 0x4E6E DUP3 DUP6 ADD PUSH2 0x4D05 JUMP JUMPDEST DUP3 DUP5 ADD MSTORE PUSH2 0x140 SWAP2 POP PUSH2 0x4E82 DUP3 DUP6 ADD PUSH2 0x4D05 JUMP JUMPDEST DUP3 DUP5 ADD MSTORE PUSH2 0x160 SWAP2 POP DUP2 DUP5 ADD CALLDATALOAD DUP3 DUP5 ADD MSTORE PUSH2 0x180 SWAP2 POP DUP2 DUP5 ADD CALLDATALOAD DUP2 DUP2 GT ISZERO PUSH2 0x4EA9 JUMPI PUSH1 0x0 DUP1 REVERT JUMPDEST PUSH2 0x4EB5 DUP7 DUP3 DUP8 ADD PUSH2 0x4AF4 JUMP JUMPDEST DUP4 DUP6 ADD MSTORE POP POP POP SWAP3 SWAP2 POP POP JUMP JUMPDEST PUSH1 0x0 PUSH1 0x20 DUP3 DUP5 SUB SLT ISZERO PUSH2 0x4ED4 JUMPI PUSH1 0x0 DUP1 REVERT JUMPDEST PUSH2 0x1A73 DUP3 PUSH2 0x4ADD JUMP JUMPDEST PUSH1 0x0 PUSH1 0x20 DUP3 DUP5 SUB SLT ISZERO PUSH2 0x4EEF JUMPI PUSH1 0x0 DUP1 REVERT JUMPDEST DUP2 CALLDATALOAD PUSH8 0xFFFFFFFFFFFFFFFF DUP2 GT ISZERO PUSH2 0x4F06 JUMPI PUSH1 0x0 DUP1 REVERT JUMPDEST PUSH2 0xABB DUP5 DUP3 DUP6 ADD PUSH2 0x4D94 JUMP JUMPDEST PUSH1 0x0 PUSH1 0x20 DUP3 DUP5 SUB SLT ISZERO PUSH2 0x4F24 JUMPI PUSH1 0x0 DUP1 REVERT JUMPDEST POP CALLDATALOAD SWAP2 SWAP1 POP JUMP JUMPDEST PUSH1 0x0 PUSH1 0x20 DUP3 DUP5 SUB SLT ISZERO PUSH2 0x4F3D JUMPI PUSH1 0x0 DUP1 REVERT JUMPDEST POP MLOAD SWAP2 SWAP1 POP JUMP JUMPDEST PUSH1 0x0 DUP1 PUSH1 0x40 DUP4 DUP6 SUB SLT ISZERO PUSH2 0x4F57 JUMPI PUSH1 0x0 DUP1 REVERT JUMPDEST DUP3 CALLDATALOAD SWAP2 POP PUSH2 0x4F67 PUSH1 0x20 DUP5 ADD PUSH2 0x4ADD JUMP JUMPDEST SWAP1 POP SWAP3 POP SWAP3 SWAP1 POP JUMP JUMPDEST PUSH1 0x0 DUP1 PUSH1 0x0 PUSH1 0x60 DUP5 DUP7 SUB SLT ISZERO PUSH2 0x4F85 JUMPI PUSH1 0x0 DUP1 REVERT JUMPDEST DUP4 CALLDATALOAD SWAP3 POP PUSH2 0x4F95 PUSH1 0x20 DUP6 ADD PUSH2 0x4ADD JUMP JUMPDEST SWAP2 POP PUSH2 0x4FA3 PUSH1 0x40 DUP6 ADD PUSH2 0x4D05 JUMP JUMPDEST SWAP1 POP SWAP3 POP SWAP3 POP SWAP3 JUMP JUMPDEST PUSH1 0x0 DUP1 PUSH1 0x0 DUP1 PUSH1 0x0 PUSH1 0xA0 DUP7 DUP9 SUB SLT ISZERO PUSH2 0x4FC4 JUMPI PUSH1 0x0 DUP1 REVERT JUMPDEST DUP6 CALLDATALOAD SWAP5 POP PUSH2 0x4FD4 PUSH1 0x20 DUP8 ADD PUSH2 0x4ADD JUMP JUMPDEST SWAP4 POP PUSH1 0x40 DUP7 ADD CALLDATALOAD SWAP3 POP PUSH2 0x4FE9 PUSH1 0x60 DUP8 ADD PUSH2 0x4D05 JUMP JUMPDEST SWAP2 POP PUSH2 0x4FF7 PUSH1 0x80 DUP8 ADD PUSH2 0x4ADD JUMP JUMPDEST SWAP1 POP SWAP3 SWAP6 POP SWAP3 SWAP6 SWAP1 SWAP4 POP JUMP JUMPDEST PUSH1 0x0 DUP1 PUSH1 0x0 DUP1 PUSH1 0x0 PUSH1 0xA0 DUP7 DUP9 SUB SLT ISZERO PUSH2 0x501B JUMPI PUSH1 0x0 DUP1 REVERT JUMPDEST DUP6 CALLDATALOAD SWAP5 POP PUSH2 0x502B PUSH1 0x20 DUP8 ADD PUSH2 0x4ADD JUMP JUMPDEST SWAP4 POP PUSH1 0x40 DUP7 ADD CALLDATALOAD SWAP3 POP PUSH2 0x5040 PUSH1 0x60 DUP8 ADD PUSH2 0x4D05 JUMP JUMPDEST SWAP2 POP PUSH1 0x80 DUP7 ADD CALLDATALOAD PUSH8 0xFFFFFFFFFFFFFFFF DUP2 GT ISZERO PUSH2 0x505C JUMPI PUSH1 0x0 DUP1 REVERT JUMPDEST PUSH2 0x5068 DUP9 DUP3 DUP10 ADD PUSH2 0x4D24 JUMP JUMPDEST SWAP2 POP POP SWAP3 SWAP6 POP SWAP3 SWAP6 SWAP1 SWAP4 POP JUMP JUMPDEST PUSH1 0x0 DUP1 PUSH1 0x40 DUP4 DUP6 SUB SLT ISZERO PUSH2 0x5088 JUMPI PUSH1 0x0 DUP1 REVERT JUMPDEST DUP3 CALLDATALOAD SWAP2 POP PUSH1 0x20 DUP4 ADD CALLDATALOAD PUSH8 0xFFFFFFFFFFFFFFFF DUP2 GT ISZERO PUSH2 0x50A6 JUMPI PUSH1 0x0 DUP1 REVERT JUMPDEST PUSH2 0x50B2 DUP6 DUP3 DUP7 ADD PUSH2 0x4C98 JUMP JUMPDEST SWAP2 POP POP SWAP3 POP SWAP3 SWAP1 POP JUMP JUMPDEST PUSH1 0x0 DUP1 PUSH1 0x40 DUP4 DUP6 SUB SLT ISZERO PUSH2 0x50CF JUMPI PUSH1 0x0 DUP1 REVERT JUMPDEST DUP3 CALLDATALOAD SWAP2 POP PUSH2 0x4F67 PUSH1 0x20 DUP5 ADD PUSH2 0x4D05 JUMP JUMPDEST PUSH1 0x0 DUP1 PUSH1 0x40 DUP4 DUP6 SUB SLT ISZERO PUSH2 0x50F2 JUMPI PUSH1 0x0 DUP1 REVERT JUMPDEST DUP3 CALLDATALOAD SWAP2 POP PUSH1 0x20 DUP4 ADD CALLDATALOAD PUSH8 0xFFFFFFFFFFFFFFFF DUP2 GT ISZERO PUSH2 0x5110 JUMPI PUSH1 0x0 DUP1 REVERT JUMPDEST PUSH2 0x50B2 DUP6 DUP3 DUP7 ADD PUSH2 0x4D94 JUMP JUMPDEST PUSH1 0x0 DUP1 PUSH1 0x40 DUP4 DUP6 SUB SLT ISZERO PUSH2 0x512F JUMPI PUSH1 0x0 DUP1 REVERT JUMPDEST POP POP DUP1 CALLDATALOAD SWAP3 PUSH1 0x20 SWAP1 SWAP2 ADD CALLDATALOAD SWAP2 POP JUMP JUMPDEST PUSH1 0x0 DUP1 PUSH1 0x0 PUSH1 0x60 DUP5 DUP7 SUB SLT ISZERO PUSH2 0x5153 JUMPI PUSH1 0x0 DUP1 REVERT JUMPDEST DUP4 CALLDATALOAD SWAP3 POP PUSH1 0x20 DUP5 ADD CALLDATALOAD SWAP2 POP PUSH1 0x40 DUP5 ADD CALLDATALOAD PUSH8 0xFFFFFFFFFFFFFFFF DUP2 GT ISZERO PUSH2 0x5178 JUMPI PUSH1 0x0 DUP1 REVERT JUMPDEST PUSH2 0x5184 DUP7 DUP3 DUP8 ADD PUSH2 0x4D24 JUMP JUMPDEST SWAP2 POP POP SWAP3 POP SWAP3 POP SWAP3 JUMP JUMPDEST PUSH1 0x0 DUP2 MLOAD DUP1 DUP5 MSTORE PUSH1 0x20 DUP1 DUP6 ADD DUP1 DUP2 SWAP7 POP DUP4 PUSH1 0x5 SHL DUP2 ADD SWAP2 POP DUP3 DUP7 ADD PUSH1 0x0 JUMPDEST DUP6 DUP2 LT ISZERO PUSH2 0x51FE JUMPI DUP3 DUP5 SUB DUP10 MSTORE DUP2 MLOAD PUSH1 0x60 DUP2 MLOAD DUP7 MSTORE DUP7 DUP3 ADD MLOAD PUSH2 0x51D1 DUP9 DUP9 ADD DUP3 PUSH2 0x53CB JUMP JUMPDEST POP PUSH1 0x40 SWAP2 DUP3 ADD MLOAD SWAP2 DUP7 ADD DUP2 SWAP1 MSTORE PUSH2 0x51EA DUP7 DUP3 ADD DUP4 PUSH2 0x53DB JUMP JUMPDEST SWAP11 DUP8 ADD SWAP11 SWAP6 POP POP POP SWAP1 DUP5 ADD SWAP1 PUSH1 0x1 ADD PUSH2 0x51AC JUMP JUMPDEST POP SWAP2 SWAP8 SWAP7 POP POP POP POP POP POP POP JUMP JUMPDEST PUSH1 0x0 DUP2 MLOAD DUP1 DUP5 MSTORE PUSH1 0x20 DUP1 DUP6 ADD DUP1 DUP2 SWAP7 POP DUP4 PUSH1 0x5 SHL DUP2 ADD SWAP2 POP DUP3 DUP7 ADD PUSH1 0x0 JUMPDEST DUP6 DUP2 LT ISZERO PUSH2 0x51FE JUMPI DUP3 DUP5 SUB DUP10 MSTORE DUP2 MLOAD DUP1 MLOAD PUSH1 0x1 PUSH1 0x1 PUSH1 0xA0 SHL SUB AND DUP6 MSTORE DUP6 ADD MLOAD PUSH1 0x40 DUP7 DUP7 ADD DUP2 SWAP1 MSTORE PUSH2 0x525C DUP2 DUP8 ADD DUP4 PUSH2 0x518E JUMP JUMPDEST SWAP11 DUP8 ADD SWAP11 SWAP6 POP POP POP SWAP1 DUP5 ADD SWAP1 PUSH1 0x1 ADD PUSH2 0x5229 JUMP JUMPDEST PUSH1 0x0 DUP2 MLOAD DUP1 DUP5 MSTORE PUSH1 0x20 DUP1 DUP6 ADD DUP1 DUP2 SWAP7 POP DUP4 PUSH1 0x5 SHL DUP2 ADD SWAP2 POP DUP3 DUP7 ADD PUSH1 0x0 JUMPDEST DUP6 DUP2 LT ISZERO PUSH2 0x51FE JUMPI DUP3 DUP5 SUB DUP10 MSTORE DUP2 MLOAD PUSH1 0xA0 DUP2 MLOAD DUP2 DUP8 MSTORE DUP1 MLOAD PUSH1 0xE0 DUP1 DUP5 DUP11 ADD MSTORE PUSH2 0x52BB PUSH2 0x180 DUP11 ADD DUP4 PUSH2 0x53DB JUMP JUMPDEST SWAP2 POP DUP10 DUP4 ADD MLOAD PUSH1 0xC0 DUP2 DUP2 DUP13 ADD MSTORE PUSH1 0x40 SWAP2 POP DUP2 DUP6 ADD MLOAD DUP4 DUP13 ADD MSTORE PUSH1 0x60 SWAP3 POP DUP3 DUP6 ADD MLOAD PUSH2 0x100 DUP13 ADD MSTORE PUSH1 0x80 DUP1 DUP7 ADD MLOAD PUSH2 0x120 DUP14 ADD MSTORE DUP7 DUP7 ADD MLOAD PUSH2 0x140 DUP14 ADD MSTORE DUP2 DUP7 ADD MLOAD SWAP7 POP PUSH1 0x9F NOT DUP13 DUP7 SUB ADD PUSH2 0x160 DUP14 ADD MSTORE PUSH2 0x5315 DUP6 DUP9 PUSH2 0x53DB JUMP JUMPDEST SWAP7 POP DUP13 DUP9 ADD MLOAD DUP14 DUP14 ADD MSTORE DUP3 DUP9 ADD MLOAD SWAP6 POP DUP12 DUP8 SUB DUP4 DUP14 ADD MSTORE PUSH2 0x5336 DUP8 DUP8 PUSH2 0x53DB JUMP JUMPDEST SWAP7 POP DUP4 DUP9 ADD MLOAD SWAP6 POP PUSH2 0x534A DUP5 DUP14 ADD DUP8 PUSH2 0x53A7 JUMP JUMPDEST SWAP7 DUP8 ADD MLOAD SWAP11 SWAP1 SWAP7 ADD SWAP10 SWAP1 SWAP10 MSTORE POP POP POP SWAP10 DUP7 ADD SWAP10 SWAP5 POP POP SWAP1 DUP5 ADD SWAP1 PUSH1 0x1 ADD PUSH2 0x528E JUMP JUMPDEST PUSH1 0x0 DUP2 MLOAD DUP1 DUP5 MSTORE PUSH1 0x20 DUP1 DUP6 ADD SWAP5 POP DUP1 DUP5 ADD PUSH1 0x0 JUMPDEST DUP4 DUP2 LT ISZERO PUSH2 0x539C JUMPI DUP2 MLOAD DUP8 MSTORE SWAP6 DUP3 ADD SWAP6 SWAP1 DUP3 ADD SWAP1 PUSH1 0x1 ADD PUSH2 0x5380 JUMP JUMPDEST POP SWAP5 SWAP6 SWAP5 POP POP POP POP POP JUMP JUMPDEST PUSH1 0xC DUP2 LT PUSH2 0x53B7 JUMPI PUSH2 0x53B7 PUSH2 0x5ADA JUMP JUMPDEST SWAP1 MSTORE JUMP JUMPDEST PUSH1 0x7 DUP2 LT PUSH2 0x53B7 JUMPI PUSH2 0x53B7 PUSH2 0x5ADA JUMP JUMPDEST PUSH1 0x5 DUP2 LT PUSH2 0x53B7 JUMPI PUSH2 0x53B7 PUSH2 0x5ADA JUMP JUMPDEST PUSH1 0x0 DUP2 MLOAD DUP1 DUP5 MSTORE PUSH1 0x0 JUMPDEST DUP2 DUP2 LT ISZERO PUSH2 0x5401 JUMPI PUSH1 0x20 DUP2 DUP6 ADD DUP2 ADD MLOAD DUP7 DUP4 ADD DUP3 ADD MSTORE ADD PUSH2 0x53E5 JUMP JUMPDEST DUP2 DUP2 GT ISZERO PUSH2 0x5413 JUMPI PUSH1 0x0 PUSH1 0x20 DUP4 DUP8 ADD ADD MSTORE JUMPDEST POP PUSH1 0x1F ADD PUSH1 0x1F NOT AND SWAP3 SWAP1 SWAP3 ADD PUSH1 0x20 ADD SWAP3 SWAP2 POP POP JUMP JUMPDEST PUSH1 0x1 PUSH1 0x1 PUSH1 0xA0 SHL SUB DUP5 AND DUP2 MSTORE DUP3 PUSH1 0x20 DUP3 ADD MSTORE PUSH1 0x60 PUSH1 0x40 DUP3 ADD MSTORE DUP2 MLOAD PUSH1 0x60 DUP3 ADD MSTORE PUSH1 0x0 PUSH1 0x20 DUP4 ADD MLOAD PUSH2 0x1A0 DUP1 PUSH1 0x80 DUP6 ADD MSTORE PUSH2 0x5466 PUSH2 0x200 DUP6 ADD DUP4 PUSH2 0x53DB JUMP JUMPDEST SWAP2 POP PUSH1 0x40 DUP6 ADD MLOAD PUSH1 0x5F NOT DUP1 DUP7 DUP6 SUB ADD PUSH1 0xA0 DUP8 ADD MSTORE PUSH2 0x5484 DUP5 DUP4 PUSH2 0x53DB JUMP JUMPDEST SWAP4 POP PUSH1 0x60 DUP8 ADD MLOAD PUSH1 0xC0 DUP8 ADD MSTORE PUSH1 0x80 DUP8 ADD MLOAD PUSH1 0xE0 DUP8 ADD MSTORE PUSH1 0xA0 DUP8 ADD MLOAD SWAP2 POP PUSH2 0x100 DUP3 DUP2 DUP9 ADD MSTORE PUSH1 0xC0 DUP9 ADD MLOAD SWAP3 POP PUSH2 0x120 DUP3 DUP9 DUP8 SUB ADD DUP2 DUP10 ADD MSTORE PUSH2 0x54C6 DUP7 DUP6 PUSH2 0x536C JUMP JUMPDEST PUSH1 0xE0 DUP11 ADD MLOAD PUSH2 0x140 DUP11 DUP2 ADD SWAP2 SWAP1 SWAP2 MSTORE SWAP3 DUP11 ADD MLOAD PUSH2 0x160 DUP1 DUP12 ADD SWAP2 SWAP1 SWAP2 MSTORE SWAP2 DUP11 ADD MLOAD SWAP1 SWAP7 POP SWAP4 POP SWAP1 PUSH2 0x180 SWAP1 PUSH2 0x54FE DUP3 DUP11 ADD DUP7 ISZERO ISZERO SWAP1 MSTORE JUMP JUMPDEST DUP10 ADD MLOAD ISZERO ISZERO SWAP5 DUP9 ADD SWAP5 SWAP1 SWAP5 MSTORE DUP8 ADD MLOAD PUSH2 0x1C0 DUP8 ADD MSTORE SWAP2 DUP7 ADD MLOAD DUP6 DUP5 SUB SWAP1 SWAP3 ADD PUSH2 0x1E0 DUP7 ADD MSTORE POP PUSH2 0x552E DUP3 DUP3 PUSH2 0x5270 JUMP JUMPDEST SWAP8 SWAP7 POP POP POP POP POP POP POP JUMP JUMPDEST PUSH1 0x20 DUP1 DUP3 MSTORE DUP3 MLOAD DUP3 DUP3 ADD DUP2 SWAP1 MSTORE PUSH1 0x0 SWAP2 SWAP1 DUP5 DUP3 ADD SWAP1 PUSH1 0x40 DUP6 ADD SWAP1 DUP5 JUMPDEST DUP2 DUP2 LT ISZERO PUSH2 0x4C8C JUMPI DUP4 MLOAD PUSH1 0x1 PUSH1 0x1 PUSH1 0xA0 SHL SUB AND DUP4 MSTORE SWAP3 DUP5 ADD SWAP3 SWAP2 DUP5 ADD SWAP2 PUSH1 0x1 ADD PUSH2 0x5555 JUMP JUMPDEST PUSH1 0x20 DUP2 MSTORE PUSH1 0x0 PUSH2 0x1A73 PUSH1 0x20 DUP4 ADD DUP5 PUSH2 0x5270 JUMP JUMPDEST PUSH1 0x40 DUP2 MSTORE PUSH1 0x0 PUSH2 0x55A0 PUSH1 0x40 DUP4 ADD DUP6 PUSH2 0x536C JUMP JUMPDEST SWAP1 POP DUP3 PUSH1 0x20 DUP4 ADD MSTORE SWAP4 SWAP3 POP POP POP JUMP JUMPDEST PUSH1 0x20 DUP2 ADD PUSH2 0x9A7 DUP3 DUP5 PUSH2 0x53A7 JUMP JUMPDEST PUSH1 0x20 DUP2 ADD PUSH2 0x9A7 DUP3 DUP5 PUSH2 0x53BB JUMP JUMPDEST PUSH1 0x20 DUP1 DUP3 MSTORE PUSH1 0x12 SWAP1 DUP3 ADD MSTORE PUSH18 0x57726F6E6720696E6465782076616C756521 PUSH1 0x70 SHL PUSH1 0x40 DUP3 ADD MSTORE PUSH1 0x60 ADD SWAP1 JUMP JUMPDEST PUSH1 0x20 DUP1 DUP3 MSTORE PUSH1 0x26 SWAP1 DUP3 ADD MSTORE PUSH32 0x4F7065726174696F6E457863657074696F6E3A2043616E277420726563656976 PUSH1 0x40 DUP3 ADD MSTORE PUSH6 0x65207461736B PUSH1 0xD0 SHL PUSH1 0x60 DUP3 ADD MSTORE PUSH1 0x80 ADD SWAP1 JUMP JUMPDEST PUSH1 0x40 DUP1 DUP3 MSTORE PUSH1 0x10 SWAP1 DUP3 ADD MSTORE PUSH16 0x4572726F722066696C65207374617465 PUSH1 0x80 SHL PUSH1 0x60 DUP3 ADD MSTORE PUSH1 0x80 DUP2 ADD PUSH2 0x9A7 PUSH1 0x20 DUP4 ADD DUP5 PUSH2 0x53A7 JUMP JUMPDEST PUSH1 0x20 DUP2 MSTORE PUSH2 0x568C PUSH1 0x20 DUP3 ADD DUP4 MLOAD PUSH1 0x1 PUSH1 0x1 PUSH1 0xA0 SHL SUB AND SWAP1 MSTORE JUMP JUMPDEST PUSH1 0x20 DUP3 ADD MLOAD PUSH1 0x40 DUP3 ADD MSTORE PUSH1 0x0 PUSH1 0x40 DUP4 ADD MLOAD PUSH2 0x300 DUP1 PUSH1 0x60 DUP6 ADD MSTORE PUSH2 0x56B4 PUSH2 0x320 DUP6 ADD DUP4 PUSH2 0x53DB JUMP JUMPDEST SWAP2 POP PUSH1 0x60 DUP6 ADD MLOAD PUSH1 0x1F NOT DUP1 DUP7 DUP6 SUB ADD PUSH1 0x80 DUP8 ADD MSTORE PUSH2 0x56D2 DUP5 DUP4 PUSH2 0x53DB JUMP JUMPDEST SWAP4 POP PUSH1 0x80 DUP8 ADD MLOAD PUSH1 0xA0 DUP8 ADD MSTORE PUSH1 0xA0 DUP8 ADD MLOAD PUSH1 0xC0 DUP8 ADD MSTORE PUSH1 0xC0 DUP8 ADD MLOAD PUSH1 0xE0 DUP8 ADD MSTORE PUSH1 0xE0 DUP8 ADD MLOAD SWAP2 POP PUSH2 0x100 DUP2 DUP8 DUP7 SUB ADD DUP2 DUP9 ADD MSTORE PUSH2 0x570F DUP6 DUP5 PUSH2 0x536C JUMP JUMPDEST SWAP1 DUP9 ADD MLOAD PUSH2 0x120 DUP9 DUP2 ADD SWAP2 SWAP1 SWAP2 MSTORE DUP9 ADD MLOAD PUSH2 0x140 DUP1 DUP10 ADD SWAP2 SWAP1 SWAP2 MSTORE DUP9 ADD MLOAD SWAP1 SWAP5 POP SWAP2 POP PUSH2 0x160 PUSH2 0x5742 DUP2 DUP9 ADD DUP5 ISZERO ISZERO SWAP1 MSTORE JUMP JUMPDEST DUP8 ADD MLOAD SWAP2 POP PUSH2 0x180 PUSH2 0x5757 DUP8 DUP3 ADD DUP5 ISZERO ISZERO SWAP1 MSTORE JUMP JUMPDEST DUP1 DUP9 ADD MLOAD SWAP3 POP POP PUSH2 0x1A0 DUP3 DUP2 DUP9 ADD MSTORE DUP1 DUP9 ADD MLOAD SWAP3 POP POP PUSH2 0x1C0 DUP2 DUP8 DUP7 SUB ADD DUP2 DUP9 ADD MSTORE PUSH2 0x5783 DUP6 DUP5 PUSH2 0x518E JUMP JUMPDEST SWAP5 POP DUP1 DUP9 ADD MLOAD SWAP3 POP POP PUSH2 0x1E0 DUP2 DUP8 DUP7 SUB ADD DUP2 DUP9 ADD MSTORE PUSH2 0x57A2 DUP6 DUP5 PUSH2 0x5270 JUMP JUMPDEST SWAP5 POP DUP1 DUP9 ADD MLOAD SWAP3 POP POP PUSH2 0x200 DUP2 DUP8 DUP7 SUB ADD DUP2 DUP9 ADD MSTORE PUSH2 0x57C1 DUP6 DUP5 PUSH2 0x520B JUMP JUMPDEST SWAP5 POP DUP1 DUP9 ADD MLOAD SWAP3 POP POP PUSH2 0x220 DUP2 DUP8 DUP7 SUB ADD DUP2 DUP9 ADD MSTORE PUSH2 0x57E0 DUP6 DUP5 PUSH2 0x520B JUMP JUMPDEST SWAP1 DUP9 ADD MLOAD PUSH2 0x240 DUP9 DUP2 ADD SWAP2 SWAP1 SWAP2 MSTORE DUP9 ADD MLOAD PUSH2 0x260 DUP1 DUP10 ADD SWAP2 SWAP1 SWAP2 MSTORE DUP9 ADD MLOAD PUSH2 0x280 DUP1 DUP10 ADD SWAP2 SWAP1 SWAP2 MSTORE DUP9 ADD MLOAD PUSH2 0x2A0 DUP1 DUP10 ADD SWAP2 SWAP1 SWAP2 MSTORE DUP9 ADD MLOAD SWAP1 SWAP5 POP SWAP2 POP PUSH2 0x2C0 SWAP1 POP PUSH2 0x582F DUP2 DUP8 ADD DUP4 ISZERO ISZERO SWAP1 MSTORE JUMP JUMPDEST DUP7 ADD MLOAD SWAP1 POP PUSH2 0x2E0 PUSH2 0x5844 DUP7 DUP3 ADD DUP4 ISZERO ISZERO SWAP1 MSTORE JUMP JUMPDEST DUP7 ADD MLOAD SWAP1 POP PUSH2 0x5855 DUP6 DUP4 ADD DUP3 PUSH2 0x53BB JUMP JUMPDEST POP SWAP1 SWAP5 SWAP4 POP POP POP POP JUMP JUMPDEST DUP7 DUP2 MSTORE PUSH1 0x1 PUSH1 0x1 PUSH1 0xA0 SHL SUB DUP7 DUP2 AND PUSH1 0x20 DUP4 ADD MSTORE PUSH1 0x40 DUP3 ADD DUP7 SWAP1 MSTORE PUSH1 0xC0 DUP3 ADD SWAP1 PUSH2 0x588B PUSH1 0x60 DUP5 ADD DUP8 PUSH2 0x53CB JUMP JUMPDEST DUP5 ISZERO ISZERO PUSH1 0x80 DUP5 ADD MSTORE DUP1 DUP5 AND PUSH1 0xA0 DUP5 ADD MSTORE POP SWAP8 SWAP7 POP POP POP POP POP POP POP JUMP JUMPDEST DUP5 DUP2 MSTORE PUSH1 0x80 PUSH1 0x20 DUP3 ADD MSTORE PUSH1 0x0 PUSH2 0x58C0 PUSH1 0x80 DUP4 ADD DUP7 PUSH2 0x536C JUMP JUMPDEST PUSH1 0x1 PUSH1 0x1 PUSH1 0xA0 SHL SUB SWAP5 SWAP1 SWAP5 AND PUSH1 0x40 DUP4 ADD MSTORE POP SWAP1 ISZERO ISZERO PUSH1 0x60 SWAP1 SWAP2 ADD MSTORE SWAP3 SWAP2 POP POP JUMP JUMPDEST DUP4 DUP2 MSTORE PUSH1 0x60 DUP2 ADD PUSH2 0x58F5 PUSH1 0x20 DUP4 ADD DUP6 PUSH2 0x53BB JUMP JUMPDEST PUSH1 0x1 PUSH1 0x1 PUSH1 0xA0 SHL SUB DUP4 AND PUSH1 0x40 DUP4 ADD MSTORE SWAP5 SWAP4 POP POP POP POP JUMP JUMPDEST DUP5 DUP2 MSTORE PUSH1 0x20 DUP2 ADD DUP5 SWAP1 MSTORE PUSH1 0x80 DUP2 ADD PUSH2 0x5927 PUSH1 0x40 DUP4 ADD DUP6 PUSH2 0x53A7 JUMP JUMPDEST PUSH1 0x1 PUSH1 0x1 PUSH1 0xA0 SHL SUB DUP4 AND PUSH1 0x60 DUP4 ADD MSTORE SWAP6 SWAP5 POP POP POP POP POP JUMP JUMPDEST PUSH1 0x40 MLOAD PUSH1 0xA0 DUP2 ADD PUSH8 0xFFFFFFFFFFFFFFFF DUP2 GT DUP3 DUP3 LT OR ISZERO PUSH2 0x5962 JUMPI PUSH2 0x5962 PUSH2 0x5B06 JUMP JUMPDEST PUSH1 0x40 MSTORE SWAP1 JUMP JUMPDEST PUSH1 0x40 MLOAD PUSH1 0xE0 DUP2 ADD PUSH8 0xFFFFFFFFFFFFFFFF DUP2 GT DUP3 DUP3 LT OR ISZERO PUSH2 0x5962 JUMPI PUSH2 0x5962 PUSH2 0x5B06 JUMP JUMPDEST PUSH1 0x40 MLOAD PUSH2 0x1A0 DUP2 ADD PUSH8 0xFFFFFFFFFFFFFFFF DUP2 GT DUP3 DUP3 LT OR ISZERO PUSH2 0x5962 JUMPI PUSH2 0x5962 PUSH2 0x5B06 JUMP JUMPDEST PUSH1 0x40 MLOAD PUSH1 0x1F DUP3 ADD PUSH1 0x1F NOT AND DUP2 ADD PUSH8 0xFFFFFFFFFFFFFFFF DUP2 GT DUP3 DUP3 LT OR ISZERO PUSH2 0x59D8 JUMPI PUSH2 0x59D8 PUSH2 0x5B06 JUMP JUMPDEST PUSH1 0x40 MSTORE SWAP2 SWAP1 POP JUMP JUMPDEST PUSH1 0x0 PUSH8 0xFFFFFFFFFFFFFFFF DUP3 GT ISZERO PUSH2 0x59FA JUMPI PUSH2 0x59FA PUSH2 0x5B06 JUMP JUMPDEST POP PUSH1 0x5 SHL PUSH1 0x20 ADD SWAP1 JUMP JUMPDEST PUSH1 0x0 DUP3 NOT DUP3 GT ISZERO PUSH2 0x5A17 JUMPI PUSH2 0x5A17 PUSH2 0x5AC4 JUMP JUMPDEST POP ADD SWAP1 JUMP JUMPDEST PUSH1 0x0 DUP3 PUSH2 0x5A39 JUMPI PUSH4 0x4E487B71 PUSH1 0xE0 SHL PUSH1 0x0 MSTORE PUSH1 0x12 PUSH1 0x4 MSTORE PUSH1 0x24 PUSH1 0x0 REVERT JUMPDEST POP DIV SWAP1 JUMP JUMPDEST PUSH1 0x0 DUP2 PUSH1 0x0 NOT DIV DUP4 GT DUP3 ISZERO ISZERO AND ISZERO PUSH2 0x5A58 JUMPI PUSH2 0x5A58 PUSH2 0x5AC4 JUMP JUMPDEST POP MUL SWAP1 JUMP JUMPDEST PUSH1 0x0 DUP3 DUP3 LT ISZERO PUSH2 0x5A6F JUMPI PUSH2 0x5A6F PUSH2 0x5AC4 JUMP JUMPDEST POP SUB SWAP1 JUMP JUMPDEST PUSH1 0x1 DUP2 DUP2 SHR SWAP1 DUP3 AND DUP1 PUSH2 0x5A88 JUMPI PUSH1 0x7F DUP3 AND SWAP2 POP JUMPDEST PUSH1 0x20 DUP3 LT DUP2 EQ ISZERO PUSH2 0x1898 JUMPI PUSH4 0x4E487B71 PUSH1 0xE0 SHL PUSH1 0x0 MSTORE PUSH1 0x22 PUSH1 0x4 MSTORE PUSH1 0x24 PUSH1 0x0 REVERT JUMPDEST PUSH1 0x0 PUSH1 0x0 NOT DUP3 EQ ISZERO PUSH2 0x5ABD JUMPI PUSH2 0x5ABD PUSH2 0x5AC4 JUMP JUMPDEST POP PUSH1 0x1 ADD SWAP1 JUMP JUMPDEST PUSH4 0x4E487B71 PUSH1 0xE0 SHL PUSH1 0x0 MSTORE PUSH1 0x11 PUSH1 0x4 MSTORE PUSH1 0x24 PUSH1 0x0 REVERT JUMPDEST PUSH4 0x4E487B71 PUSH1 0xE0 SHL PUSH1 0x0 MSTORE PUSH1 0x21 PUSH1 0x4 MSTORE PUSH1 0x24 PUSH1 0x0 REVERT JUMPDEST PUSH4 0x4E487B71 PUSH1 0xE0 SHL PUSH1 0x0 MSTORE PUSH1 0x32 PUSH1 0x4 MSTORE PUSH1 0x24 PUSH1 0x0 REVERT JUMPDEST PUSH4 0x4E487B71 PUSH1 0xE0 SHL PUSH1 0x0 MSTORE PUSH1 0x41 PUSH1 0x4 MSTORE PUSH1 0x24 PUSH1 0x0 REVERT INVALID XOR DUP16 SELFDESTRUCT PUSH19 0x34F3BB35C4F436313EC14267725515E4CA3678 NUMBER 0xCD COINBASE PUSH7 0x21A72FB8A3B37B 0xD6 RETURN 0xCC 0xFC 0xE1 ADDRESS DUP6 SWAP14 GASLIMIT PUSH10 0xDC432409F423A7928E73 0xEB 0x5C POP 0x49 0xA9 0x4E BLOCKHASH CREATE 0xC6 BASEFEE 0x4B SWAP1 PUSH6 0x71B20F3DCDF8 0x26 0xB5 EXTCODEHASH EXTCODECOPY PUSH7 0x528E252B2EB87D 0xE3 0xCB DUP2 0x2F XOR 0xE6 DUP6 SWAP15 GT SWAP4 DIFFICULTY LOG2 PUSH5 0x6970667358 0x22 SLT KECCAK256 INVALID 0xDC NOT 0xB4 PUSH13 0xE5128F9FABCDBD64FB6BC2B49C 0xDC PC SMOD SWAP16 0xBA 0xE5 0xD3 GASLIMIT 0x4B PUSH16 0x57890DE964736F6C6343000807003300 "
		},
		"gasEstimates": {
			"creation": {
				"codeDepositCost": "4694800",
				"executionCost": "31348",
				"totalCost": "4726148"
			},
			"external": {
				"": "230",
				"acceptForTranslator(uint256,uint256[])": "infinite",
				"acceptForVerifer(uint256,uint256[])": "infinite",
				"closeFileState(uint256,uint256)": "infinite",
				"closeTask(uint256)": "26354",
				"endTransAccept(uint256)": "infinite",
				"endTransVf(uint256)": "infinite",
				"getAcceptTransNumber(uint256,address)": "2741",
				"getAcceptVfNumber(uint256,address)": "2726",
				"getBalanceOfContract()": "296",
				"getBuyer(uint256)": "2567",
				"getCount()": "2392",
				"getFileState(uint256,uint256)": "4829",
				"getPay(address)": "2615",
				"getTaskBounty(uint256)": "2478",
				"getTaskBounty(uint256,uint256)": "4814",
				"getTaskInfo(uint256)": "infinite",
				"getTaskState(uint256)": "2652",
				"getTaskStateTrans(uint256)": "2590",
				"getTaskStateVf(uint256)": "2513",
				"getTasks(uint256)": "infinite",
				"getTransNumber(uint256)": "2500",
				"getTranslatorsList(uint256)": "infinite",
				"getVfList(uint256)": "infinite",
				"getVfNumber(uint256)": "2499",
				"isCustomizeState(uint256)": "2578",
				"isFull(uint256,bool)": "4768",
				"overTimeTasker(uint256,address,bool)": "infinite",
				"overTimeTrans(uint256,address)": "infinite",
				"overTimeVf(uint256,address)": "infinite",
				"owner()": "2443",
				"payFine(address)": "infinite",
				"postTask((uint256,string,string,uint256,uint256,uint256,uint256[],uint256,uint256,bool,bool,uint256,((string,uint256,uint256,uint256,uint256,uint256,string),uint256,string,uint8,uint256)[]))": "infinite",
				"receiveTask(uint256,address,uint256,bool,address)": "infinite",
				"renounceOwnership()": "infinite",
				"sumbitTaskTrans(uint256,uint256,string)": "infinite",
				"transderToContract()": "infinite",
				"transferOwnership(address)": "28444",
				"updateTask(uint256,(uint256,string,string,uint256,uint256,uint256,uint256[],uint256,uint256,bool,bool,uint256,((string,uint256,uint256,uint256,uint256,uint256,string),uint256,string,uint8,uint256)[]))": "infinite",
				"validate(uint256,address,uint256,bool,string)": "infinite",
				"withdraw(uint256)": "infinite",
				"withdrawAll()": "infinite"
			},
			"internal": {
				"_endTransAccept(uint256)": "infinite",
				"_endTransVf(uint256)": "infinite",
				"_overTimeTrans(uint256,address)": "infinite",
				"_overTimeVf(uint256,address)": "infinite",
				"_postTask(struct LibProject.ProParm memory)": "infinite",
				"_receiveTask(uint256,address,uint256,bool)": "infinite",
				"_sumbitTaskTrans(uint256,uint256,string memory)": "infinite",
				"_updateTask(uint256,struct LibProject.ProParm memory)": "infinite",
				"_validate(uint256,address,uint256,bool,string memory)": "infinite"
			}
		},
		"methodIdentifiers": {
			"acceptForTranslator(uint256,uint256[])": "fa4c6473",
			"acceptForVerifer(uint256,uint256[])": "3bd14e13",
			"closeFileState(uint256,uint256)": "97601efb",
			"closeTask(uint256)": "1201dfc6",
			"endTransAccept(uint256)": "8adc74a5",
			"endTransVf(uint256)": "a55af701",
			"getAcceptTransNumber(uint256,address)": "193620e7",
			"getAcceptVfNumber(uint256,address)": "790485f9",
			"getBalanceOfContract()": "22968885",
			"getBuyer(uint256)": "5bf608b8",
			"getCount()": "a87d942c",
			"getFileState(uint256,uint256)": "ad607c72",
			"getPay(address)": "d3d7bc3b",
			"getTaskBounty(uint256)": "6e973982",
			"getTaskBounty(uint256,uint256)": "64a1ed07",
			"getTaskInfo(uint256)": "d1a1b999",
			"getTaskState(uint256)": "ffcce776",
			"getTaskStateTrans(uint256)": "9722f099",
			"getTaskStateVf(uint256)": "546677aa",
			"getTasks(uint256)": "cf8f4be2",
			"getTransNumber(uint256)": "d2fed69c",
			"getTranslatorsList(uint256)": "983a12a8",
			"getVfList(uint256)": "b647eec3",
			"getVfNumber(uint256)": "f8626ebb",
			"isCustomizeState(uint256)": "7c34eb85",
			"isFull(uint256,bool)": "8a9a9ff3",
			"overTimeTasker(uint256,address,bool)": "8b3f3a6f",
			"overTimeTrans(uint256,address)": "5b0ef140",
			"overTimeVf(uint256,address)": "36d61ae0",
			"owner()": "8da5cb5b",
			"payFine(address)": "3edfa229",
			"postTask((uint256,string,string,uint256,uint256,uint256,uint256[],uint256,uint256,bool,bool,uint256,((string,uint256,uint256,uint256,uint256,uint256,string),uint256,string,uint8,uint256)[]))": "ac35cd61",
			"receiveTask(uint256,address,uint256,bool,address)": "627a62f3",
			"renounceOwnership()": "715018a6",
			"sumbitTaskTrans(uint256,uint256,string)": "bb0c38c0",
			"transderToContract()": "460968dd",
			"transferOwnership(address)": "f2fde38b",
			"updateTask(uint256,(uint256,string,string,uint256,uint256,uint256,uint256[],uint256,uint256,bool,bool,uint256,((string,uint256,uint256,uint256,uint256,uint256,string),uint256,string,uint8,uint256)[]))": "09a02f58",
			"validate(uint256,address,uint256,bool,string)": "243634bf",
			"withdraw(uint256)": "2e1a7d4d",
			"withdrawAll()": "853828b6"
		}
	},
	"abi": [
		{
			"inputs": [
				{
					"internalType": "string",
					"name": "",
					"type": "string"
				},
				{
					"internalType": "uint256",
					"name": "",
					"type": "uint256"
				}
			],
			"name": "ErrorValue",
			"type": "error"
		},
		{
			"inputs": [
				{
					"internalType": "string",
					"name": "",
					"type": "string"
				},
				{
					"internalType": "enum LibProject.FileState",
					"name": "",
					"type": "uint8"
				}
			],
			"name": "FileException",
			"type": "error"
		},
		{
			"inputs": [
				{
					"internalType": "string",
					"name": "",
					"type": "string"
				}
			],
			"name": "OperationException",
			"type": "error"
		},
		{
			"inputs": [
				{
					"internalType": "string",
					"name": "",
					"type": "string"
				}
			],
			"name": "ParameterException",
			"type": "error"
		},
		{
			"inputs": [
				{
					"internalType": "string",
					"name": "",
					"type": "string"
				}
			],
			"name": "Permissions",
			"type": "error"
		},
		{
			"anonymous": false,
			"inputs": [
				{
					"indexed": true,
					"internalType": "address",
					"name": "previousOwner",
					"type": "address"
				},
				{
					"indexed": true,
					"internalType": "address",
					"name": "newOwner",
					"type": "address"
				}
			],
			"name": "OwnershipTransferred",
			"type": "event"
		},
		{
			"anonymous": false,
			"inputs": [
				{
					"indexed": false,
					"internalType": "uint256",
					"name": "",
					"type": "uint256"
				},
				{
					"indexed": false,
					"internalType": "uint256[]",
					"name": "",
					"type": "uint256[]"
				},
				{
					"indexed": false,
					"internalType": "address",
					"name": "",
					"type": "address"
				},
				{
					"indexed": false,
					"internalType": "bool",
					"name": "",
					"type": "bool"
				}
			],
			"name": "acceptTaskEv",
			"type": "event"
		},
		{
			"anonymous": false,
			"inputs": [
				{
					"indexed": false,
					"internalType": "uint256",
					"name": "",
					"type": "uint256"
				},
				{
					"indexed": false,
					"internalType": "uint256",
					"name": "",
					"type": "uint256"
				},
				{
					"indexed": false,
					"internalType": "address",
					"name": "",
					"type": "address"
				},
				{
					"indexed": false,
					"internalType": "bool",
					"name": "",
					"type": "bool"
				}
			],
			"name": "acceptTaskEv",
			"type": "event"
		},
		{
			"anonymous": false,
			"inputs": [
				{
					"indexed": false,
					"internalType": "uint256",
					"name": "",
					"type": "uint256"
				},
				{
					"indexed": false,
					"internalType": "uint256",
					"name": "",
					"type": "uint256"
				},
				{
					"indexed": false,
					"internalType": "enum LibProject.FileState",
					"name": "",
					"type": "uint8"
				},
				{
					"indexed": false,
					"internalType": "address",
					"name": "",
					"type": "address"
				}
			],
			"name": "changeFileStateEv",
			"type": "event"
		},
		{
			"anonymous": false,
			"inputs": [
				{
					"indexed": false,
					"internalType": "uint256",
					"name": "",
					"type": "uint256"
				},
				{
					"indexed": false,
					"internalType": "enum LibProject.ProjectState",
					"name": "",
					"type": "uint8"
				},
				{
					"indexed": false,
					"internalType": "address",
					"name": "",
					"type": "address"
				}
			],
			"name": "changeProjectStateEv",
			"type": "event"
		},
		{
			"anonymous": false,
			"inputs": [
				{
					"indexed": false,
					"internalType": "uint256",
					"name": "",
					"type": "uint256"
				},
				{
					"indexed": false,
					"internalType": "address",
					"name": "",
					"type": "address"
				},
				{
					"indexed": false,
					"internalType": "uint256",
					"name": "",
					"type": "uint256"
				},
				{
					"indexed": false,
					"internalType": "enum LibProject.TaskerState",
					"name": "",
					"type": "uint8"
				},
				{
					"indexed": false,
					"internalType": "bool",
					"name": "",
					"type": "bool"
				},
				{
					"indexed": false,
					"internalType": "address",
					"name": "",
					"type": "address"
				}
			],
			"name": "changeTaskerStateEv",
			"type": "event"
		},
		{
			"anonymous": false,
			"inputs": [
				{
					"indexed": false,
					"internalType": "uint256",
					"name": "",
					"type": "uint256"
				},
				{
					"indexed": false,
					"internalType": "bool",
					"name": "",
					"type": "bool"
				},
				{
					"indexed": false,
					"internalType": "address",
					"name": "",
					"type": "address"
				}
			],
			"name": "changeTransActive",
			"type": "event"
		},
		{
			"anonymous": false,
			"inputs": [
				{
					"indexed": false,
					"internalType": "uint256",
					"name": "",
					"type": "uint256"
				},
				{
					"indexed": false,
					"internalType": "bool",
					"name": "",
					"type": "bool"
				},
				{
					"indexed": false,
					"internalType": "address",
					"name": "",
					"type": "address"
				}
			],
			"name": "changeVerActive",
			"type": "event"
		},
		{
			"anonymous": false,
			"inputs": [
				{
					"indexed": false,
					"internalType": "address",
					"name": "",
					"type": "address"
				},
				{
					"indexed": false,
					"internalType": "address",
					"name": "",
					"type": "address"
				},
				{
					"indexed": false,
					"internalType": "uint256",
					"name": "",
					"type": "uint256"
				}
			],
			"name": "payEv",
			"type": "event"
		},
		{
			"anonymous": false,
			"inputs": [
				{
					"indexed": false,
					"internalType": "address",
					"name": "",
					"type": "address"
				},
				{
					"indexed": false,
					"internalType": "uint256",
					"name": "",
					"type": "uint256"
				},
				{
					"components": [
						{
							"internalType": "uint256",
							"name": "releaseTime",
							"type": "uint256"
						},
						{
							"internalType": "string",
							"name": "introduce",
							"type": "string"
						},
						{
							"internalType": "string",
							"name": "need",
							"type": "string"
						},
						{
							"internalType": "uint256",
							"name": "deadline",
							"type": "uint256"
						},
						{
							"internalType": "uint256",
							"name": "sourceLanguage",
							"type": "uint256"
						},
						{
							"internalType": "uint256",
							"name": "goalLanguage",
							"type": "uint256"
						},
						{
							"internalType": "uint256[]",
							"name": "preferList",
							"type": "uint256[]"
						},
						{
							"internalType": "uint256",
							"name": "translationType",
							"type": "uint256"
						},
						{
							"internalType": "uint256",
							"name": "workLoad",
							"type": "uint256"
						},
						{
							"internalType": "bool",
							"name": "isNonDisclosure",
							"type": "bool"
						},
						{
							"internalType": "bool",
							"name": "isCustomize",
							"type": "bool"
						},
						{
							"internalType": "uint256",
							"name": "bounty",
							"type": "uint256"
						},
						{
							"components": [
								{
									"components": [
										{
											"internalType": "string",
											"name": "name",
											"type": "string"
										},
										{
											"internalType": "uint256",
											"name": "size",
											"type": "uint256"
										},
										{
											"internalType": "uint256",
											"name": "videoLength",
											"type": "uint256"
										},
										{
											"internalType": "uint256",
											"name": "Page",
											"type": "uint256"
										},
										{
											"internalType": "uint256",
											"name": "words",
											"type": "uint256"
										},
										{
											"internalType": "uint256",
											"name": "fileType",
											"type": "uint256"
										},
										{
											"internalType": "string",
											"name": "path",
											"type": "string"
										}
									],
									"internalType": "struct LibProject.FileInfo",
									"name": "file",
									"type": "tuple"
								},
								{
									"internalType": "uint256",
									"name": "bounty",
									"type": "uint256"
								},
								{
									"internalType": "string",
									"name": "info",
									"type": "string"
								},
								{
									"internalType": "enum LibProject.FileState",
									"name": "state",
									"type": "uint8"
								},
								{
									"internalType": "uint256",
									"name": "lastUpload",
									"type": "uint256"
								}
							],
							"internalType": "struct LibProject.TaskInfo[]",
							"name": "tasks",
							"type": "tuple[]"
						}
					],
					"indexed": false,
					"internalType": "struct LibProject.ProParm",
					"name": "",
					"type": "tuple"
				}
			],
			"name": "postProjectEv",
			"type": "event"
		},
		{
			"stateMutability": "payable",
			"type": "fallback"
		},
		{
			"inputs": [
				{
					"internalType": "uint256",
					"name": "_index",
					"type": "uint256"
				},
				{
					"internalType": "uint256[]",
					"name": "_fileIndex",
					"type": "uint256[]"
				}
			],
			"name": "acceptForTranslator",
			"outputs": [],
			"stateMutability": "nonpayable",
			"type": "function"
		},
		{
			"inputs": [
				{
					"internalType": "uint256",
					"name": "_index",
					"type": "uint256"
				},
				{
					"internalType": "uint256[]",
					"name": "_fileIndex",
					"type": "uint256[]"
				}
			],
			"name": "acceptForVerifer",
			"outputs": [],
			"stateMutability": "nonpayable",
			"type": "function"
		},
		{
			"inputs": [
				{
					"internalType": "uint256",
					"name": "_index",
					"type": "uint256"
				},
				{
					"internalType": "uint256",
					"name": "_fileIndex",
					"type": "uint256"
				}
			],
			"name": "closeFileState",
			"outputs": [],
			"stateMutability": "nonpayable",
			"type": "function"
		},
		{
			"inputs": [
				{
					"internalType": "uint256",
					"name": "_index",
					"type": "uint256"
				}
			],
			"name": "closeTask",
			"outputs": [],
			"stateMutability": "nonpayable",
			"type": "function"
		},
		{
			"inputs": [
				{
					"internalType": "uint256",
					"name": "_index",
					"type": "uint256"
				}
			],
			"name": "endTransAccept",
			"outputs": [],
			"stateMutability": "nonpayable",
			"type": "function"
		},
		{
			"inputs": [
				{
					"internalType": "uint256",
					"name": "_index",
					"type": "uint256"
				}
			],
			"name": "endTransVf",
			"outputs": [],
			"stateMutability": "nonpayable",
			"type": "function"
		},
		{
			"inputs": [
				{
					"internalType": "uint256",
					"name": "_index",
					"type": "uint256"
				},
				{
					"internalType": "address",
					"name": "_taskerIndex",
					"type": "address"
				}
			],
			"name": "getAcceptTransNumber",
			"outputs": [
				{
					"internalType": "uint256",
					"name": "",
					"type": "uint256"
				}
			],
			"stateMutability": "view",
			"type": "function"
		},
		{
			"inputs": [
				{
					"internalType": "uint256",
					"name": "_index",
					"type": "uint256"
				},
				{
					"internalType": "address",
					"name": "_taskerIndex",
					"type": "address"
				}
			],
			"name": "getAcceptVfNumber",
			"outputs": [
				{
					"internalType": "uint256",
					"name": "",
					"type": "uint256"
				}
			],
			"stateMutability": "view",
			"type": "function"
		},
		{
			"inputs": [],
			"name": "getBalanceOfContract",
			"outputs": [
				{
					"internalType": "uint256",
					"name": "",
					"type": "uint256"
				}
			],
			"stateMutability": "view",
			"type": "function"
		},
		{
			"inputs": [
				{
					"internalType": "uint256",
					"name": "_index",
					"type": "uint256"
				}
			],
			"name": "getBuyer",
			"outputs": [
				{
					"internalType": "address",
					"name": "",
					"type": "address"
				}
			],
			"stateMutability": "view",
			"type": "function"
		},
		{
			"inputs": [],
			"name": "getCount",
			"outputs": [
				{
					"internalType": "uint256",
					"name": "",
					"type": "uint256"
				}
			],
			"stateMutability": "view",
			"type": "function"
		},
		{
			"inputs": [
				{
					"internalType": "uint256",
					"name": "_index",
					"type": "uint256"
				},
				{
					"internalType": "uint256",
					"name": "_fileIndex",
					"type": "uint256"
				}
			],
			"name": "getFileState",
			"outputs": [
				{
					"internalType": "enum LibProject.FileState",
					"name": "",
					"type": "uint8"
				}
			],
			"stateMutability": "view",
			"type": "function"
		},
		{
			"inputs": [
				{
					"internalType": "address",
					"name": "_tasker",
					"type": "address"
				}
			],
			"name": "getPay",
			"outputs": [
				{
					"internalType": "uint256",
					"name": "",
					"type": "uint256"
				}
			],
			"stateMutability": "view",
			"type": "function"
		},
		{
			"inputs": [
				{
					"internalType": "uint256",
					"name": "_index",
					"type": "uint256"
				},
				{
					"internalType": "uint256",
					"name": "_fileIndex",
					"type": "uint256"
				}
			],
			"name": "getTaskBounty",
			"outputs": [
				{
					"internalType": "uint256",
					"name": "",
					"type": "uint256"
				}
			],
			"stateMutability": "view",
			"type": "function"
		},
		{
			"inputs": [
				{
					"internalType": "uint256",
					"name": "_index",
					"type": "uint256"
				}
			],
			"name": "getTaskBounty",
			"outputs": [
				{
					"internalType": "uint256",
					"name": "",
					"type": "uint256"
				}
			],
			"stateMutability": "view",
			"type": "function"
		},
		{
			"inputs": [
				{
					"internalType": "uint256",
					"name": "_index",
					"type": "uint256"
				}
			],
			"name": "getTaskInfo",
			"outputs": [
				{
					"components": [
						{
							"internalType": "address",
							"name": "buyer",
							"type": "address"
						},
						{
							"internalType": "uint256",
							"name": "releaseTime",
							"type": "uint256"
						},
						{
							"internalType": "string",
							"name": "introduce",
							"type": "string"
						},
						{
							"internalType": "string",
							"name": "need",
							"type": "string"
						},
						{
							"internalType": "uint256",
							"name": "deadline",
							"type": "uint256"
						},
						{
							"internalType": "uint256",
							"name": "sourceLanguage",
							"type": "uint256"
						},
						{
							"internalType": "uint256",
							"name": "goalLanguage",
							"type": "uint256"
						},
						{
							"internalType": "uint256[]",
							"name": "preferList",
							"type": "uint256[]"
						},
						{
							"internalType": "uint256",
							"name": "translationType",
							"type": "uint256"
						},
						{
							"internalType": "uint256",
							"name": "workLoad",
							"type": "uint256"
						},
						{
							"internalType": "bool",
							"name": "isNonDisclosure",
							"type": "bool"
						},
						{
							"internalType": "bool",
							"name": "isCustomize",
							"type": "bool"
						},
						{
							"internalType": "uint256",
							"name": "bounty",
							"type": "uint256"
						},
						{
							"components": [
								{
									"internalType": "uint256",
									"name": "taskIndex",
									"type": "uint256"
								},
								{
									"internalType": "enum LibProject.TaskerState",
									"name": "state",
									"type": "uint8"
								},
								{
									"internalType": "string",
									"name": "file",
									"type": "string"
								}
							],
							"internalType": "struct LibProject.ReturnFileInfo[]",
							"name": "fileInfo",
							"type": "tuple[]"
						},
						{
							"components": [
								{
									"components": [
										{
											"internalType": "string",
											"name": "name",
											"type": "string"
										},
										{
											"internalType": "uint256",
											"name": "size",
											"type": "uint256"
										},
										{
											"internalType": "uint256",
											"name": "videoLength",
											"type": "uint256"
										},
										{
											"internalType": "uint256",
											"name": "Page",
											"type": "uint256"
										},
										{
											"internalType": "uint256",
											"name": "words",
											"type": "uint256"
										},
										{
											"internalType": "uint256",
											"name": "fileType",
											"type": "uint256"
										},
										{
											"internalType": "string",
											"name": "path",
											"type": "string"
										}
									],
									"internalType": "struct LibProject.FileInfo",
									"name": "file",
									"type": "tuple"
								},
								{
									"internalType": "uint256",
									"name": "bounty",
									"type": "uint256"
								},
								{
									"internalType": "string",
									"name": "info",
									"type": "string"
								},
								{
									"internalType": "enum LibProject.FileState",
									"name": "state",
									"type": "uint8"
								},
								{
									"internalType": "uint256",
									"name": "lastUpload",
									"type": "uint256"
								}
							],
							"internalType": "struct LibProject.TaskInfo[]",
							"name": "tasks",
							"type": "tuple[]"
						},
						{
							"components": [
								{
									"internalType": "address",
									"name": "taskerAddress",
									"type": "address"
								},
								{
									"components": [
										{
											"internalType": "uint256",
											"name": "taskIndex",
											"type": "uint256"
										},
										{
											"internalType": "enum LibProject.TaskerState",
											"name": "state",
											"type": "uint8"
										},
										{
											"internalType": "string",
											"name": "file",
											"type": "string"
										}
									],
									"internalType": "struct LibProject.ReturnFileInfo[]",
									"name": "taskerinfo",
									"type": "tuple[]"
								}
							],
							"internalType": "struct LibProject.ReturnTasker[]",
							"name": "translators",
							"type": "tuple[]"
						},
						{
							"components": [
								{
									"internalType": "address",
									"name": "taskerAddress",
									"type": "address"
								},
								{
									"components": [
										{
											"internalType": "uint256",
											"name": "taskIndex",
											"type": "uint256"
										},
										{
											"internalType": "enum LibProject.TaskerState",
											"name": "state",
											"type": "uint8"
										},
										{
											"internalType": "string",
											"name": "file",
											"type": "string"
										}
									],
									"internalType": "struct LibProject.ReturnFileInfo[]",
									"name": "taskerinfo",
									"type": "tuple[]"
								}
							],
							"internalType": "struct LibProject.ReturnTasker[]",
							"name": "verifiers",
							"type": "tuple[]"
						},
						{
							"internalType": "uint256",
							"name": "maxT",
							"type": "uint256"
						},
						{
							"internalType": "uint256",
							"name": "maxV",
							"type": "uint256"
						},
						{
							"internalType": "uint256",
							"name": "numberT",
							"type": "uint256"
						},
						{
							"internalType": "uint256",
							"name": "numberV",
							"type": "uint256"
						},
						{
							"internalType": "bool",
							"name": "isTransActive",
							"type": "bool"
						},
						{
							"internalType": "bool",
							"name": "isVerActive",
							"type": "bool"
						},
						{
							"internalType": "enum LibProject.ProjectState",
							"name": "state",
							"type": "uint8"
						}
					],
					"internalType": "struct LibProject.ReturnTask",
					"name": "",
					"type": "tuple"
				}
			],
			"stateMutability": "view",
			"type": "function"
		},
		{
			"inputs": [
				{
					"internalType": "uint256",
					"name": "_index",
					"type": "uint256"
				}
			],
			"name": "getTaskState",
			"outputs": [
				{
					"internalType": "enum LibProject.ProjectState",
					"name": "",
					"type": "uint8"
				}
			],
			"stateMutability": "view",
			"type": "function"
		},
		{
			"inputs": [
				{
					"internalType": "uint256",
					"name": "_index",
					"type": "uint256"
				}
			],
			"name": "getTaskStateTrans",
			"outputs": [
				{
					"internalType": "bool",
					"name": "",
					"type": "bool"
				}
			],
			"stateMutability": "view",
			"type": "function"
		},
		{
			"inputs": [
				{
					"internalType": "uint256",
					"name": "_index",
					"type": "uint256"
				}
			],
			"name": "getTaskStateVf",
			"outputs": [
				{
					"internalType": "bool",
					"name": "",
					"type": "bool"
				}
			],
			"stateMutability": "view",
			"type": "function"
		},
		{
			"inputs": [
				{
					"internalType": "uint256",
					"name": "_index",
					"type": "uint256"
				}
			],
			"name": "getTasks",
			"outputs": [
				{
					"components": [
						{
							"components": [
								{
									"internalType": "string",
									"name": "name",
									"type": "string"
								},
								{
									"internalType": "uint256",
									"name": "size",
									"type": "uint256"
								},
								{
									"internalType": "uint256",
									"name": "videoLength",
									"type": "uint256"
								},
								{
									"internalType": "uint256",
									"name": "Page",
									"type": "uint256"
								},
								{
									"internalType": "uint256",
									"name": "words",
									"type": "uint256"
								},
								{
									"internalType": "uint256",
									"name": "fileType",
									"type": "uint256"
								},
								{
									"internalType": "string",
									"name": "path",
									"type": "string"
								}
							],
							"internalType": "struct LibProject.FileInfo",
							"name": "file",
							"type": "tuple"
						},
						{
							"internalType": "uint256",
							"name": "bounty",
							"type": "uint256"
						},
						{
							"internalType": "string",
							"name": "info",
							"type": "string"
						},
						{
							"internalType": "enum LibProject.FileState",
							"name": "state",
							"type": "uint8"
						},
						{
							"internalType": "uint256",
							"name": "lastUpload",
							"type": "uint256"
						}
					],
					"internalType": "struct LibProject.TaskInfo[]",
					"name": "",
					"type": "tuple[]"
				}
			],
			"stateMutability": "view",
			"type": "function"
		},
		{
			"inputs": [
				{
					"internalType": "uint256",
					"name": "_index",
					"type": "uint256"
				}
			],
			"name": "getTransNumber",
			"outputs": [
				{
					"internalType": "uint256",
					"name": "",
					"type": "uint256"
				}
			],
			"stateMutability": "view",
			"type": "function"
		},
		{
			"inputs": [
				{
					"internalType": "uint256",
					"name": "_index",
					"type": "uint256"
				}
			],
			"name": "getTranslatorsList",
			"outputs": [
				{
					"internalType": "address[]",
					"name": "",
					"type": "address[]"
				}
			],
			"stateMutability": "view",
			"type": "function"
		},
		{
			"inputs": [
				{
					"internalType": "uint256",
					"name": "_index",
					"type": "uint256"
				}
			],
			"name": "getVfList",
			"outputs": [
				{
					"internalType": "address[]",
					"name": "",
					"type": "address[]"
				}
			],
			"stateMutability": "view",
			"type": "function"
		},
		{
			"inputs": [
				{
					"internalType": "uint256",
					"name": "_index",
					"type": "uint256"
				}
			],
			"name": "getVfNumber",
			"outputs": [
				{
					"internalType": "uint256",
					"name": "",
					"type": "uint256"
				}
			],
			"stateMutability": "view",
			"type": "function"
		},
		{
			"inputs": [
				{
					"internalType": "uint256",
					"name": "_index",
					"type": "uint256"
				}
			],
			"name": "isCustomizeState",
			"outputs": [
				{
					"internalType": "bool",
					"name": "",
					"type": "bool"
				}
			],
			"stateMutability": "view",
			"type": "function"
		},
		{
			"inputs": [
				{
					"internalType": "uint256",
					"name": "_index",
					"type": "uint256"
				},
				{
					"internalType": "bool",
					"name": "_isTrans",
					"type": "bool"
				}
			],
			"name": "isFull",
			"outputs": [
				{
					"internalType": "bool",
					"name": "",
					"type": "bool"
				}
			],
			"stateMutability": "view",
			"type": "function"
		},
		{
			"inputs": [
				{
					"internalType": "uint256",
					"name": "_index",
					"type": "uint256"
				},
				{
					"internalType": "address",
					"name": "_taskerIndex",
					"type": "address"
				},
				{
					"internalType": "bool",
					"name": "_isTrans",
					"type": "bool"
				}
			],
			"name": "overTimeTasker",
			"outputs": [
				{
					"internalType": "uint256[]",
					"name": "",
					"type": "uint256[]"
				},
				{
					"internalType": "uint256",
					"name": "",
					"type": "uint256"
				}
			],
			"stateMutability": "view",
			"type": "function"
		},
		{
			"inputs": [
				{
					"internalType": "uint256",
					"name": "_index",
					"type": "uint256"
				},
				{
					"internalType": "address",
					"name": "_tasker",
					"type": "address"
				}
			],
			"name": "overTimeTrans",
			"outputs": [
				{
					"internalType": "uint256",
					"name": "",
					"type": "uint256"
				}
			],
			"stateMutability": "nonpayable",
			"type": "function"
		},
		{
			"inputs": [
				{
					"internalType": "uint256",
					"name": "_index",
					"type": "uint256"
				},
				{
					"internalType": "address",
					"name": "_tasker",
					"type": "address"
				}
			],
			"name": "overTimeVf",
			"outputs": [
				{
					"internalType": "uint256",
					"name": "",
					"type": "uint256"
				}
			],
			"stateMutability": "nonpayable",
			"type": "function"
		},
		{
			"inputs": [],
			"name": "owner",
			"outputs": [
				{
					"internalType": "address",
					"name": "",
					"type": "address"
				}
			],
			"stateMutability": "view",
			"type": "function"
		},
		{
			"inputs": [
				{
					"internalType": "address",
					"name": "_to",
					"type": "address"
				}
			],
			"name": "payFine",
			"outputs": [],
			"stateMutability": "payable",
			"type": "function"
		},
		{
			"inputs": [
				{
					"components": [
						{
							"internalType": "uint256",
							"name": "releaseTime",
							"type": "uint256"
						},
						{
							"internalType": "string",
							"name": "introduce",
							"type": "string"
						},
						{
							"internalType": "string",
							"name": "need",
							"type": "string"
						},
						{
							"internalType": "uint256",
							"name": "deadline",
							"type": "uint256"
						},
						{
							"internalType": "uint256",
							"name": "sourceLanguage",
							"type": "uint256"
						},
						{
							"internalType": "uint256",
							"name": "goalLanguage",
							"type": "uint256"
						},
						{
							"internalType": "uint256[]",
							"name": "preferList",
							"type": "uint256[]"
						},
						{
							"internalType": "uint256",
							"name": "translationType",
							"type": "uint256"
						},
						{
							"internalType": "uint256",
							"name": "workLoad",
							"type": "uint256"
						},
						{
							"internalType": "bool",
							"name": "isNonDisclosure",
							"type": "bool"
						},
						{
							"internalType": "bool",
							"name": "isCustomize",
							"type": "bool"
						},
						{
							"internalType": "uint256",
							"name": "bounty",
							"type": "uint256"
						},
						{
							"components": [
								{
									"components": [
										{
											"internalType": "string",
											"name": "name",
											"type": "string"
										},
										{
											"internalType": "uint256",
											"name": "size",
											"type": "uint256"
										},
										{
											"internalType": "uint256",
											"name": "videoLength",
											"type": "uint256"
										},
										{
											"internalType": "uint256",
											"name": "Page",
											"type": "uint256"
										},
										{
											"internalType": "uint256",
											"name": "words",
											"type": "uint256"
										},
										{
											"internalType": "uint256",
											"name": "fileType",
											"type": "uint256"
										},
										{
											"internalType": "string",
											"name": "path",
											"type": "string"
										}
									],
									"internalType": "struct LibProject.FileInfo",
									"name": "file",
									"type": "tuple"
								},
								{
									"internalType": "uint256",
									"name": "bounty",
									"type": "uint256"
								},
								{
									"internalType": "string",
									"name": "info",
									"type": "string"
								},
								{
									"internalType": "enum LibProject.FileState",
									"name": "state",
									"type": "uint8"
								},
								{
									"internalType": "uint256",
									"name": "lastUpload",
									"type": "uint256"
								}
							],
							"internalType": "struct LibProject.TaskInfo[]",
							"name": "tasks",
							"type": "tuple[]"
						}
					],
					"internalType": "struct LibProject.ProParm",
					"name": "_t",
					"type": "tuple"
				}
			],
			"name": "postTask",
			"outputs": [
				{
					"internalType": "uint256",
					"name": "_index",
					"type": "uint256"
				}
			],
			"stateMutability": "payable",
			"type": "function"
		},
		{
			"inputs": [
				{
					"internalType": "uint256",
					"name": "_index",
					"type": "uint256"
				},
				{
					"internalType": "address",
					"name": "_taskerIndex",
					"type": "address"
				},
				{
					"internalType": "uint256",
					"name": "_fileIndex",
					"type": "uint256"
				},
				{
					"internalType": "bool",
					"name": "_isPass",
					"type": "bool"
				},
				{
					"internalType": "address",
					"name": "_transAddress",
					"type": "address"
				}
			],
			"name": "receiveTask",
			"outputs": [],
			"stateMutability": "payable",
			"type": "function"
		},
		{
			"inputs": [],
			"name": "renounceOwnership",
			"outputs": [],
			"stateMutability": "nonpayable",
			"type": "function"
		},
		{
			"inputs": [
				{
					"internalType": "uint256",
					"name": "_index",
					"type": "uint256"
				},
				{
					"internalType": "uint256",
					"name": "_fileIndex",
					"type": "uint256"
				},
				{
					"internalType": "string",
					"name": "_file",
					"type": "string"
				}
			],
			"name": "sumbitTaskTrans",
			"outputs": [],
			"stateMutability": "nonpayable",
			"type": "function"
		},
		{
			"inputs": [],
			"name": "transderToContract",
			"outputs": [],
			"stateMutability": "payable",
			"type": "function"
		},
		{
			"inputs": [
				{
					"internalType": "address",
					"name": "newOwner",
					"type": "address"
				}
			],
			"name": "transferOwnership",
			"outputs": [],
			"stateMutability": "nonpayable",
			"type": "function"
		},
		{
			"inputs": [
				{
					"internalType": "uint256",
					"name": "_index",
					"type": "uint256"
				},
				{
					"components": [
						{
							"internalType": "uint256",
							"name": "releaseTime",
							"type": "uint256"
						},
						{
							"internalType": "string",
							"name": "introduce",
							"type": "string"
						},
						{
							"internalType": "string",
							"name": "need",
							"type": "string"
						},
						{
							"internalType": "uint256",
							"name": "deadline",
							"type": "uint256"
						},
						{
							"internalType": "uint256",
							"name": "sourceLanguage",
							"type": "uint256"
						},
						{
							"internalType": "uint256",
							"name": "goalLanguage",
							"type": "uint256"
						},
						{
							"internalType": "uint256[]",
							"name": "preferList",
							"type": "uint256[]"
						},
						{
							"internalType": "uint256",
							"name": "translationType",
							"type": "uint256"
						},
						{
							"internalType": "uint256",
							"name": "workLoad",
							"type": "uint256"
						},
						{
							"internalType": "bool",
							"name": "isNonDisclosure",
							"type": "bool"
						},
						{
							"internalType": "bool",
							"name": "isCustomize",
							"type": "bool"
						},
						{
							"internalType": "uint256",
							"name": "bounty",
							"type": "uint256"
						},
						{
							"components": [
								{
									"components": [
										{
											"internalType": "string",
											"name": "name",
											"type": "string"
										},
										{
											"internalType": "uint256",
											"name": "size",
											"type": "uint256"
										},
										{
											"internalType": "uint256",
											"name": "videoLength",
											"type": "uint256"
										},
										{
											"internalType": "uint256",
											"name": "Page",
											"type": "uint256"
										},
										{
											"internalType": "uint256",
											"name": "words",
											"type": "uint256"
										},
										{
											"internalType": "uint256",
											"name": "fileType",
											"type": "uint256"
										},
										{
											"internalType": "string",
											"name": "path",
											"type": "string"
										}
									],
									"internalType": "struct LibProject.FileInfo",
									"name": "file",
									"type": "tuple"
								},
								{
									"internalType": "uint256",
									"name": "bounty",
									"type": "uint256"
								},
								{
									"internalType": "string",
									"name": "info",
									"type": "string"
								},
								{
									"internalType": "enum LibProject.FileState",
									"name": "state",
									"type": "uint8"
								},
								{
									"internalType": "uint256",
									"name": "lastUpload",
									"type": "uint256"
								}
							],
							"internalType": "struct LibProject.TaskInfo[]",
							"name": "tasks",
							"type": "tuple[]"
						}
					],
					"internalType": "struct LibProject.ProParm",
					"name": "_t",
					"type": "tuple"
				}
			],
			"name": "updateTask",
			"outputs": [],
			"stateMutability": "payable",
			"type": "function"
		},
		{
			"inputs": [
				{
					"internalType": "uint256",
					"name": "_index",
					"type": "uint256"
				},
				{
					"internalType": "address",
					"name": "_traner",
					"type": "address"
				},
				{
					"internalType": "uint256",
					"name": "_fileIndex",
					"type": "uint256"
				},
				{
					"internalType": "bool",
					"name": "_isPass",
					"type": "bool"
				},
				{
					"internalType": "string",
					"name": "_file",
					"type": "string"
				}
			],
			"name": "validate",
			"outputs": [],
			"stateMutability": "nonpayable",
			"type": "function"
		},
		{
			"inputs": [
				{
					"internalType": "uint256",
					"name": "_money",
					"type": "uint256"
				}
			],
			"name": "withdraw",
			"outputs": [],
			"stateMutability": "nonpayable",
			"type": "function"
		},
		{
			"inputs": [],
			"name": "withdrawAll",
			"outputs": [],
			"stateMutability": "nonpayable",
			"type": "function"
		},
		{
			"stateMutability": "payable",
			"type": "receive"
		}
	]
}