{
	"data": {
		"bytecode": {
			"linkReferences": {},
			"object": "608060405234801561001057600080fd5b50613bed806100206000396000f3fe608060405234801561001057600080fd5b50600436106102065760003560e01c80638a9a9ff31161011a578063b647eec3116100ad578063ea60f28c1161007c578063ea60f28c1461056b578063f8626ebb14610594578063ffbafdfe146105b7578063ffcce776146105ca578063fffb35af1461060357600080fd5b8063b647eec3146104eb578063cf8f4be2146104fe578063d2fed69c1461051e578063df3a726f1461054157600080fd5b80639722f099116100e95780639722f0991461048a578063983a12a8146104b0578063a15d194c146104d0578063a87d942c146104e357600080fd5b80638a9a9ff3146104305780638b3f3a6f1461044357806390977d2b14610464578063960bc8341461047757600080fd5b8063546677aa1161019d5780636fa276b81161016c5780636fa276b814610394578063752458c5146103a7578063789fbe31146103ba578063790485f9146103cd5780637c34eb851461040557600080fd5b8063546677aa146102e25780635bf608b81461031d57806364a1ed071461035e5780636e9739821461037157600080fd5b806335339174116101d9578063353391741461027957806338c3b2d61461028c5780634aa86ded1461029f5780634db61caf146102b257600080fd5b8063193620e71461020b5780631af5fa161461023157806325e78e70146102465780632731259a14610266575b600080fd5b61021e6102193660046130f4565b610616565b6040519081526020015b60405180910390f35b61024461023f366004613412565b610641565b005b6102596102543660046130db565b610886565b60405161022891906137e7565b61024461027436600461347b565b61134d565b61021e610287366004613282565b61148e565b61024461029a366004613120565b61150a565b6102446102ad36600461336d565b611637565b6102446102c03660046130db565b6000908152602081905260409020601501805462ffff00191662040000179055565b61030d6102f03660046130db565b600090815260208190526040902060150154610100900460ff1690565b6040519015158152602001610228565b61034661032b3660046130db565b6000908152602081905260409020546001600160a01b031690565b6040516001600160a01b039091168152602001610228565b61021e61036c366004613459565b611931565b61021e61037f3660046130db565b6000908152602081905260409020600b015490565b6102446103a2366004613329565b61196e565b61021e6103b53660046130a6565b611a0d565b6102446103c836600461324d565b611c79565b61021e6103db3660046130f4565b6000828152602081815260408083206001600160a01b038516845260100190915290205492915050565b61030d6104133660046130db565b6000908152602081905260409020600a0154610100900460ff1690565b61030d61043e3660046133bb565b611d09565b610456610451366004613211565b611d53565b6040516102289291906137b7565b610244610472366004613192565b612070565b610244610485366004613282565b6121b2565b61030d6104983660046130db565b60009081526020819052604090206015015460ff1690565b6104c36104be3660046130db565b6122d9565b6040516102289190613763565b6102446104de36600461336d565b612346565b60015461021e565b6104c36104f93660046130db565b612641565b61051161050c3660046130db565b6126ac565b60405161022891906137a4565b61021e61052c3660046130db565b6000908152602081905260409020600d015490565b61024461054f3660046130db565b6000908152602081905260409020601501805461ff0019169055565b6102446105793660046130db565b6000908152602081905260409020601501805460ff19169055565b61021e6105a23660046130db565b6000908152602081905260409020600e015490565b6102446105c53660046133de565b612954565b6105f66105d83660046130db565b60009081526020819052604090206015015462010000900460ff1690565b60405161022891906137d9565b6102446106113660046132c8565b61298f565b6000828152602081815260408083206001600160a01b0385168452600f019091529020545b92915050565b60008281526020818152604090912082516001820155828201518051919261067192600285019290910190612ad4565b506040820151805161068d916003840191602090910190612ad4565b50606082015160048201556080820151600582015560a0820151600682015560c082015180516106c7916007840191602090910190612b58565b5060e08201516008820155610100808301516009830155610160830151600b830155610120830151600a8301805461014086015161ffff1990911692151561ff001916929092179115801590930291909117905560158201805462ff00001916620100001790556107435761018082015151601182015561074b565b600160118201555b60158101805462ff00ff19166201000117905560005b826101800151518110156108805781600c01836101800151828151811061078a5761078a613b8b565b60209081029190910181015182546001810184556000938452928290208151805180519395600b0290920193909284926107c8928492910190612ad4565b50602082810151600183015560408301516002830155606083015160038301556080830151600483015560a0830151600583015560c083015180516108139260068501920190612ad4565b5050506020828101516007830155604083015180516108389260088501920190612ad4565b50606082015160098201805460ff1916600183600781111561085c5761085c613b75565b0217905550608082015181600a01555050808061087890613b44565b915050610761565b50505050565b61088e612b92565b610896612b92565b600083815260208181526040822080546001600160a01b0316845260018101548483015285835291905260020180546108ce90613b09565b80601f01602080910402602001604051908101604052809291908181526020018280546108fa90613b09565b80156109475780601f1061091c57610100808354040283529160200191610947565b820191906000526020600020905b81548152906001019060200180831161092a57829003601f168201915b50505050604080840192909252506000848152602081905220600301805461096e90613b09565b80601f016020809104026020016040519081016040528092919081815260200182805461099a90613b09565b80156109e75780601f106109bc576101008083540402835291602001916109e7565b820191906000526020600020905b8154815290600101906020018083116109ca57829003601f168201915b5050505050606082015260008381526020818152604080832060048101546080860152600581015460a0860152600681015460c0860152868452928252600790920180548351818402810184019094528084529091830182828015610a6b57602002820191906000526020600020905b815481526020019060010190808311610a57575b505050505060e082015260008381526020818152604082206008810154610100808601919091526009820154610120860152600a82015460ff80821615156101408801529082900481161515610160870152600b830154610180870152601183015461022087015260128301546102408701526013830154610260870152601483015461028087015260159092015480831615156102a0870152908104821615156102c0860152868452929091526102e0830191620100009004166006811115610b3757610b37613b75565b90816006811115610b4a57610b4a613b75565b905250600083815260208181526040808320600c0180548251818502810185019093528083529193909284015b82821015610de557600084815260209020604080516101808101909152600b84029091018054829060a0820190839082908290610bb390613b09565b80601f0160208091040260200160405190810160405280929190818152602001828054610bdf90613b09565b8015610c2c5780601f10610c0157610100808354040283529160200191610c2c565b820191906000526020600020905b815481529060010190602001808311610c0f57829003601f168201915b505050505081526020016001820154815260200160028201548152602001600382015481526020016004820154815260200160058201548152602001600682018054610c7790613b09565b80601f0160208091040260200160405190810160405280929190818152602001828054610ca390613b09565b8015610cf05780601f10610cc557610100808354040283529160200191610cf0565b820191906000526020600020905b815481529060010190602001808311610cd357829003601f168201915b505050505081525050815260200160078201548152602001600882018054610d1790613b09565b80601f0160208091040260200160405190810160405280929190818152602001828054610d4390613b09565b8015610d905780601f10610d6557610100808354040283529160200191610d90565b820191906000526020600020905b815481529060010190602001808311610d7357829003601f168201915b5050509183525050600982015460209091019060ff166007811115610db757610db7613b75565b6007811115610dc857610dc8613b75565b8152602001600a8201548152505081526020019060010190610b77565b505050506101c082015260005b6000848152602081905260409020600d015481101561109a576040805180820190915260008152606060208201526000858152602081905260408120600d01805484908110610e4357610e43613b8b565b60009182526020822001546001600160a01b031680845291505b6000878152602081815260408083206001600160a01b0386168452600f0190915290205484101561106157610e90612c68565b6000888152602081815260408083206001600160a01b0387168452600f019091529020805483908110610ec557610ec5613b8b565b6000918252602080832090910154835289825281815260408083206001600160a01b0387168452600f018252808320845184526001018252909120549082019060ff166004811115610f1957610f19613b75565b90816004811115610f2c57610f2c613b75565b9052506000888152602081815260408083206001600160a01b0387168452600f018252808320845184526001908101909252909120018054610f6d90613b09565b80601f0160208091040260200160405190810160405280929190818152602001828054610f9990613b09565b8015610fe65780601f10610fbb57610100808354040283529160200191610fe6565b820191906000526020600020905b815481529060010190602001808311610fc957829003601f168201915b5050505060408084019290925250600089815260208181528282206001600160a01b0387168352600f01815282822084518352600101815291902060020154606083015284015180518291908490811061104257611042613b8b565b602002602001018190525050808061105990613b44565b915050610e5d565b5081846101e00151848151811061107a5761107a613b8b565b60200260200101819052505050808061109290613b44565b915050610df2565b5060005b6000848152602081905260409020600e0154811015611346576040805180820190915260008152606060208201526000858152602081905260408120600e018054849081106110ef576110ef613b8b565b60009182526020822001546001600160a01b031680845291505b6000878152602081815260408083206001600160a01b038616845260100190915290205484101561130d5761113c612c68565b6000888152602081815260408083206001600160a01b0387168452601001909152902080548390811061117157611171613b8b565b6000918252602080832090910154835289825281815260408083206001600160a01b03871684526010018252808320845184526001018252909120549082019060ff1660048111156111c5576111c5613b75565b908160048111156111d8576111d8613b75565b9052506000888152602081815260408083206001600160a01b0387168452601001825280832084518452600190810190925290912001805461121990613b09565b80601f016020809104026020016040519081016040528092919081815260200182805461124590613b09565b80156112925780601f1061126757610100808354040283529160200191611292565b820191906000526020600020905b81548152906001019060200180831161127557829003601f168201915b5050505060408084019290925250600089815260208181528282206001600160a01b038716835260100181528282208451835260010181529190206002015460608301528401518051829190849081106112ee576112ee613b8b565b602002602001018190525050808061130590613b44565b915050611109565b5081846102000151848151811061132657611326613b8b565b60200260200101819052505050808061133e90613b44565b91505061109e565b5092915050565b600081156113a657506000848152602081815260408083206001600160a01b0386168452600f810183528184208785526001018352908320878452918390526013018054919261139c83613b44565b91905055506113f3565b506000848152602081815260408083206001600160a01b0386168452601081018352818420878552600101835290832087845291839052601401805491926113ed83613b44565b91905055505b6000858152602081815260408083206001600160a01b0387168452600f81018352908320805460018101825590845282842001879055878352919052600a0154610100900460ff1615611487576000858152602081905260408120600c0180548690811061146357611463613b8b565b90600052602060002090600b020160070154905061148081612a8e565b6002830155505b5050505050565b600081156114ce57506000848152602081815260408083206001600160a01b0387168452600f018252808320858452600101909152902060020154611502565b506000848152602081815260408083206001600160a01b038716845260100182528083208584526001019091529020600201545b949350505050565b6000858152602081815260408083206001600160a01b0388168452600f81018352818420868552600101909252909120805460ff19166003179055600c81018054600491908590811061155f5761155f613b8b565b600091825260209091206009600b9092020101805460ff1916600183600781111561158c5761158c613b75565b02179055504281600c0184815481106115a7576115a7613b8b565b60009182526020808320600a600b9093020191909101929092556001600160a01b0386168152601083018252604080822086835260019081018452912084516115f893919092019190850190612ad4565b506001600160a01b039390931660009081526010909301602090815260408085209385526001938401909152909220805460ff19169091179055505050565b6000838152602081815260408083206001600160a01b0385168452600f0190915290208054611699576000848152602081815260408220600d01805460018101825590835291200180546001600160a01b0319166001600160a01b0384161790555b6000848152602081905260409020600a0154610100900460ff1615611817576000805b8451811015611810576001600080888152602001908152602001600020600c018683815181106116ee576116ee613b8b565b60200260200101518154811061170657611706613b8b565b600091825260209091206009600b9092020101805460ff1916600183600781111561173357611733613b75565b0217905550600080878152602001908152602001600020600c0185828151811061175f5761175f613b8b565b60200260200101518154811061177757611777613b8b565b90600052602060002090600b020160070154915061179482612a8e565b8360010160008784815181106117ac576117ac613b8b565b6020026020010151815260200190815260200160002060020181905550826000018582815181106117df576117df613b8b565b602090810291909101810151825460018101845560009384529190922001558061180881613b44565b9150506116bc565b50506118e1565b60005b83518110156118df578160000184828151811061183957611839613b8b565b6020908102919091018101518254600181810185556000948552838520909101919091558783529082905260409091208551600c9091019086908490811061188357611883613b8b565b60200260200101518154811061189b5761189b613b8b565b600091825260209091206009600b9092020101805460ff191660018360078111156118c8576118c8613b75565b0217905550806118d781613b44565b91505061181a565b505b60008481526020819052604081206013018054916118fe83613b44565b919050555061190e846001611d09565b15610880575050506000908152602081905260409020601501805460ff19169055565b6000828152602081905260408120600c0180548390811061195457611954613b8b565b90600052602060002090600b020160070154905092915050565b80156119c0576000858152602081815260408083206001600160a01b0388168452600f018252808320868452600101909152812060020180548492906119b5908490613af2565b909155506114879050565b6000858152602081815260408083206001600160a01b0388168452601001825280832086845260010190915281206002018054849290611a01908490613af2565b90915550505050505050565b6001805460009182611a1e83613b44565b90915550506001805460009081526020818152604090912080546001600160a01b03191633178155845192810192909255838101518051611a659260028501920190612ad4565b5060408301518051611a81916003840191602090910190612ad4565b50606083015160048201556080830151600582015560a0830151600682015560c08301518051611abb916007840191602090910190612b58565b5060e08301516008820155610100808401516009830155610160840151600b830155610120840151600a8301805461014087015115801590940261ff00199315159390931661ffff1990911617919091179055611b2a5761018083015151601182018190556012820155611b39565b60016011820181905560128201555b60158101805462ffffff19166201010117905560005b83610180015151811015611c6e5781600c018461018001518281518110611b7857611b78613b8b565b60209081029190910181015182546001810184556000938452928290208151805180519395600b029092019390928492611bb6928492910190612ad4565b50602082810151600183015560408301516002830155606083015160038301556080830151600483015560a0830151600583015560c08301518051611c019260068501920190612ad4565b505050602082810151600783015560408301518051611c269260088501920190612ad4565b50606082015160098201805460ff19166001836007811115611c4a57611c4a613b75565b0217905550608082015181600a015550508080611c6690613b44565b915050611b4f565b505060015492915050565b6000838152602081815260408083206001600160a01b03861684526010810183528184208585526001018352908320805460ff19166003179055858352919052600c0180546006919083908110611cd257611cd2613b8b565b600091825260209091206009600b9092020101805460ff19166001836007811115611cff57611cff613b75565b0217905550505050565b60008115611d32575060008281526020819052604090206013810154601190910154111561063b565b5060008281526020819052604090206014810154601290910154111561063b565b606060006060806000808615611dd5576000898152602081815260408083206001600160a01b038c168452600f0182529182902080548351818402810184019094528084529091830182828015611dc957602002820191906000526020600020905b815481526020019060010190808311611db5575b50505050509350611e43565b6000898152602081815260408083206001600160a01b038c16845260100182529182902080548351818402810184019094528084529091830182828015611e3b57602002820191906000526020600020905b815481526020019060010190808311611e27575b505050505093505b611e4b612c92565b60005b855181101561205f5760008b8152602081815260408083206001600160a01b038e168452600f019091528120875160019091019190889084908110611e9557611e95613b8b565b602002602001015181526020019081526020016000206040518060600160405290816000820160009054906101000a900460ff166004811115611eda57611eda613b75565b6004811115611eeb57611eeb613b75565b8152602001600182018054611eff90613b09565b80601f0160208091040260200160405190810160405280929190818152602001828054611f2b90613b09565b8015611f785780601f10611f4d57610100808354040283529160200191611f78565b820191906000526020600020905b815481529060010190602001808311611f5b57829003601f168201915b5050509183525050600291909101546020909101529150600182516004811115611fa457611fa4613b75565b101561204d57858181518110611fbc57611fbc613b8b565b6020026020010151858481518110611fd657611fd6613b8b565b602090810291909101015282611feb81613b44565b9350506000808c8152602001908152602001600020600c0186828151811061201557612015613b8b565b60200260200101518154811061202d5761202d613b8b565b90600052602060002090600b0201600701548461204a9190613a99565b93505b8061205781613b44565b915050611e4e565b509299919850909650505050505050565b80156121135760005b835181101561210d576000868152602081815260408083206001600160a01b0389168452600f01909152812085518592600190920191908790859081106120c2576120c2613b8b565b6020908102919091018101518252810191909152604001600020805460ff191660018360048111156120f6576120f6613b75565b02179055508061210581613b44565b915050612079565b50611487565b60005b83518110156121aa576000868152602081815260408083206001600160a01b03891684526010019091528120855185926001909201919087908590811061215f5761215f613b8b565b6020908102919091018101518252810191909152604001600020805460ff1916600183600481111561219357612193613b75565b0217905550806121a281613b44565b915050612116565b505050505050565b8015612248576000848152602081815260408083206001600160a01b0387168452600f810183528184208685526001018352908320805460ff19166002179055868352919052600c018054600391908490811061221157612211613b8b565b600091825260209091206009600b9092020101805460ff1916600183600781111561223e5761223e613b75565b0217905550610880565b6000848152602081815260408083206001600160a01b03871684526010810183528184208685526001018352908320805460ff19166002179055868352919052600c01805460059190849081106122a1576122a1613b8b565b600091825260209091206009600b9092020101805460ff191660018360078111156122ce576122ce613b75565b021790555050505050565b60008181526020818152604091829020600d0180548351818402810184019094528084526060939283018282801561233a57602002820191906000526020600020905b81546001600160a01b0316815260019091019060200180831161231c575b50505050509050919050565b6000838152602081815260408083206001600160a01b0385168452601001909152902080546123a8576000848152602081815260408220600e01805460018101825590835291200180546001600160a01b0319166001600160a01b0384161790555b6000848152602081905260409020600a0154610100900460ff1615612526576000805b845181101561251f576001600080888152602001908152602001600020600c018683815181106123fd576123fd613b8b565b60200260200101518154811061241557612415613b8b565b600091825260209091206009600b9092020101805460ff1916600183600781111561244257612442613b75565b0217905550600080878152602001908152602001600020600c0185828151811061246e5761246e613b8b565b60200260200101518154811061248657612486613b8b565b90600052602060002090600b02016007015491506124a382612a8e565b8360010160008784815181106124bb576124bb613b8b565b6020026020010151815260200190815260200160002060020181905550826000018582815181106124ee576124ee613b8b565b602090810291909101810151825460018101845560009384529190922001558061251781613b44565b9150506123cb565b50506125f0565b60005b83518110156125ee578160000184828151811061254857612548613b8b565b6020908102919091018101518254600181810185556000948552838520909101919091558783529082905260409091208551600c9091019086908490811061259257612592613b8b565b6020026020010151815481106125aa576125aa613b8b565b600091825260209091206009600b9092020101805460ff191660018360078111156125d7576125d7613b75565b0217905550806125e681613b44565b915050612529565b505b600084815260208190526040812060140180549161260d83613b44565b919050555061261d846000611d09565b15610880575050506000908152602081905260409020601501805461ff0019169055565b60008181526020818152604091829020600e0180548351818402810184019094528084526060939283018282801561233a576020028201919060005260206000209081546001600160a01b0316815260019091019060200180831161231c5750505050509050919050565b600081815260208181526040808320600c01805482518185028101850190935280835260609492939192909184015b8282101561294957600084815260209020604080516101808101909152600b84029091018054829060a082019083908290829061271790613b09565b80601f016020809104026020016040519081016040528092919081815260200182805461274390613b09565b80156127905780601f1061276557610100808354040283529160200191612790565b820191906000526020600020905b81548152906001019060200180831161277357829003601f168201915b5050505050815260200160018201548152602001600282015481526020016003820154815260200160048201548152602001600582015481526020016006820180546127db90613b09565b80601f016020809104026020016040519081016040528092919081815260200182805461280790613b09565b80156128545780601f1061282957610100808354040283529160200191612854565b820191906000526020600020905b81548152906001019060200180831161283757829003601f168201915b50505050508152505081526020016007820154815260200160088201805461287b90613b09565b80601f01602080910402602001604051908101604052809291908181526020018280546128a790613b09565b80156128f45780601f106128c9576101008083540402835291602001916128f4565b820191906000526020600020905b8154815290600101906020018083116128d757829003601f168201915b5050509183525050600982015460209091019060ff16600781111561291b5761291b613b75565b600781111561292c5761292c613b75565b8152602001600a82015481525050815260200190600101906126db565b505050509050919050565b6000828152602081905260409020601501805482919062ff000019166201000083600681111561298657612986613b75565b02179055505050565b6000848152602081905260409020600c8101805460029190859081106129b7576129b7613b8b565b600091825260209091206009600b9092020101805460ff191660018360078111156129e4576129e4613b75565b02179055504281600c0184815481106129ff576129ff613b8b565b60009182526020808320600a600b9093020191909101929092556001600160a01b0386168152600f8301825260408082208683526001908101845291208451612a5093919092019190850190612ad4565b506001600160a01b03939093166000908152600f909301602090815260408085209385526001938401909152909220805460ff191690911790555050565b600080612a9c83605a612ab0565b9050612aa981603c612ab0565b9392505050565b60006064612abe8484612ac8565b612aa99190613ab1565b6000612aa98284613ad3565b828054612ae090613b09565b90600052602060002090601f016020900481019282612b025760008555612b48565b82601f10612b1b57805160ff1916838001178555612b48565b82800160010185558215612b48579182015b82811115612b48578251825591602001919060010190612b2d565b50612b54929150612ca5565b5090565b828054828255906000526020600020908101928215612b485791602002820182811115612b48578251825591602001919060010190612b2d565b60405180610300016040528060006001600160a01b0316815260200160008152602001606081526020016060815260200160008152602001600081526020016000815260200160608152602001600081526020016000815260200160001515815260200160001515815260200160008152602001606081526020016060815260200160608152602001606081526020016000815260200160008152602001600081526020016000815260200160001515815260200160001515815260200160006006811115612c6357612c63613b75565b905290565b6040805160808101909152600080825260208201905b815260200160608152602001600081525090565b6040805160608101909152806000612c7e565b5b80821115612b545760008155600101612ca6565b80356001600160a01b0381168114612cd157600080fd5b919050565b600082601f830112612ce757600080fd5b6020612cfb612cf68435613a75565b613a44565b808435825282820191508285018684873560051b8801011115612d1d57600080fd5b60005b8635811015612e705767ffffffffffffffff8083351115612d4057600080fd5b82358801601f1960a0828c0382011215612d5957600080fd5b612d616139d4565b83898401351115612d7157600080fd5b88830135830160e083828f03011215612d8957600080fd5b612d916139fd565b92508981013585811115612da457600080fd5b612db28e8c83850101612f08565b84525060408101358a840152606081013560408401526080810135606084015260a0810135608084015260c081013560a084015260e081013585811115612df857600080fd5b612e068e8c83850101612f08565b60c0850152505090815260408201358882015260608201359083821115612e2c57600080fd5b612e3a8c8a84860101612f08565b6040820152612e4b60808401612ef9565b606082015260a092909201356080830152508552509284019290840190600101612d20565b50909695505050505050565b600082601f830112612e8d57600080fd5b81356020612e9d612cf683613a75565b80838252828201915082860187848660051b8901011115612ebd57600080fd5b60005b85811015612edc57813584529284019290840190600101612ec0565b5090979650505050505050565b80358015158114612cd157600080fd5b803560088110612cd157600080fd5b600082601f830112612f1957600080fd5b813567ffffffffffffffff811115612f3357612f33613ba1565b612f46601f8201601f1916602001613a44565b818152846020838601011115612f5b57600080fd5b816020850160208301376000918101602001919091529392505050565b60006101a08284031215612f8b57600080fd5b612f93613a20565b905081358152602082013567ffffffffffffffff80821115612fb457600080fd5b612fc085838601612f08565b60208401526040840135915080821115612fd957600080fd5b612fe585838601612f08565b6040840152606084013560608401526080840135608084015260a084013560a084015260c084013591508082111561301c57600080fd5b61302885838601612e7c565b60c084015260e0848101359084015261010080850135908401526101209150613052828501612ee9565b828401526101409150613066828501612ee9565b82840152610160915081840135828401526101809150818401358181111561308d57600080fd5b61309986828701612cd6565b8385015250505092915050565b6000602082840312156130b857600080fd5b813567ffffffffffffffff8111156130cf57600080fd5b61150284828501612f78565b6000602082840312156130ed57600080fd5b5035919050565b6000806040838503121561310757600080fd5b8235915061311760208401612cba565b90509250929050565b600080600080600060a0868803121561313857600080fd5b8535945061314860208701612cba565b935061315660408701612cba565b925060608601359150608086013567ffffffffffffffff81111561317957600080fd5b61318588828901612f08565b9150509295509295909350565b600080600080600060a086880312156131aa57600080fd5b853594506131ba60208701612cba565b9350604086013567ffffffffffffffff8111156131d657600080fd5b6131e288828901612e7c565b9350506060860135600581106131f757600080fd5b915061320560808701612ee9565b90509295509295909350565b60008060006060848603121561322657600080fd5b8335925061323660208501612cba565b915061324460408501612ee9565b90509250925092565b60008060006060848603121561326257600080fd5b8335925061327260208501612cba565b9150604084013590509250925092565b6000806000806080858703121561329857600080fd5b843593506132a860208601612cba565b9250604085013591506132bd60608601612ee9565b905092959194509250565b600080600080608085870312156132de57600080fd5b843593506132ee60208601612cba565b925060408501359150606085013567ffffffffffffffff81111561331157600080fd5b61331d87828801612f08565b91505092959194509250565b600080600080600060a0868803121561334157600080fd5b8535945061335160208701612cba565b9350604086013592506060860135915061320560808701612ee9565b60008060006060848603121561338257600080fd5b83359250602084013567ffffffffffffffff8111156133a057600080fd5b6133ac86828701612e7c565b92505061324460408501612cba565b600080604083850312156133ce57600080fd5b8235915061311760208401612ee9565b600080604083850312156133f157600080fd5b8235915060208301356007811061340757600080fd5b809150509250929050565b6000806040838503121561342557600080fd5b82359150602083013567ffffffffffffffff81111561344357600080fd5b61344f85828601612f78565b9150509250929050565b6000806040838503121561346c57600080fd5b50508035926020909101359150565b6000806000806080858703121561349157600080fd5b84359350602085013592506134a860408601612cba565b91506132bd60608601612ee9565b600081518084526020808501808196506005915083821b810183870160005b8681101561353b578383038a528151608081518552878201518781106134fd576134fd613b75565b8589015260408281015181870183905261351983880182613716565b60609485015197909401969096525050998601999250908501906001016134d5565b509098975050505050505050565b600081518084526020808501808196508360051b8101915082860160005b858110156135ae578284038952815180516001600160a01b03168552850151604086860181905261359a818701836134b6565b9a87019a9550505090840190600101613567565b5091979650505050505050565b600081518084526020808501808196508360051b8101915082860160005b858110156135ae578284038952815160a08151818752805160e080848a01526136066101808a0183613716565b91508983015160c081818c01526040915081850151838c015260609250828501516101008c01526080808601516101208d0152868601516101408d0152818601519650609f198c8603016101608d01526136608588613716565b96508c8801518d8d01528288015195508b8703838d01526136818787613716565b9650838801519550613695848d01876136f2565b968701519a9096019990995250505099860199945050908401906001016135d9565b600081518084526020808501945080840160005b838110156136e7578151875295820195908201906001016136cb565b509495945050505050565b6008811061370257613702613b75565b9052565b6007811061370257613702613b75565b6000815180845260005b8181101561373c57602081850181015186830182015201613720565b8181111561374e576000602083870101525b50601f01601f19169290920160200192915050565b6020808252825182820181905260009190848201906040850190845b81811015612e705783516001600160a01b03168352928401929184019160010161377f565b602081526000612aa960208301846135bb565b6040815260006137ca60408301856136b7565b90508260208301529392505050565b6020810161063b8284613706565b602081526138016020820183516001600160a01b03169052565b6020820151604082015260006040830151610300806060850152613829610320850183613716565b91506060850151601f19808685030160808701526138478483613716565b9350608087015160a087015260a087015160c087015260c087015160e087015260e0870151915061010081878603018188015261388485846136b7565b90880151610120888101919091528801516101408089019190915288015190945091506101606138b78188018415159052565b87015191506101806138cc8782018415159052565b808801519250506101a08281880152808801519250506101c08187860301818801526138f885846134b6565b9450808801519250506101e081878603018188015261391785846135bb565b9450808801519250506102008187860301818801526139368584613549565b9450808801519250506102208187860301818801526139558584613549565b908801516102408881019190915288015161026080890191909152880151610280808901919091528801516102a08089019190915288015190945091506102c090506139a48187018315159052565b86015190506102e06139b98682018315159052565b86015190506139ca85830182613706565b5090949350505050565b60405160a0810167ffffffffffffffff811182821017156139f7576139f7613ba1565b60405290565b60405160e0810167ffffffffffffffff811182821017156139f7576139f7613ba1565b6040516101a0810167ffffffffffffffff811182821017156139f7576139f7613ba1565b604051601f8201601f1916810167ffffffffffffffff81118282101715613a6d57613a6d613ba1565b604052919050565b600067ffffffffffffffff821115613a8f57613a8f613ba1565b5060051b60200190565b60008219821115613aac57613aac613b5f565b500190565b600082613ace57634e487b7160e01b600052601260045260246000fd5b500490565b6000816000190483118215151615613aed57613aed613b5f565b500290565b600082821015613b0457613b04613b5f565b500390565b600181811c90821680613b1d57607f821691505b60208210811415613b3e57634e487b7160e01b600052602260045260246000fd5b50919050565b6000600019821415613b5857613b58613b5f565b5060010190565b634e487b7160e01b600052601160045260246000fd5b634e487b7160e01b600052602160045260246000fd5b634e487b7160e01b600052603260045260246000fd5b634e487b7160e01b600052604160045260246000fdfea2646970667358221220e5f05da5d259610732e64e008475be23c062e246deda42f507cc013a0ad7f2c464736f6c63430008070033",
			"opcodes": "PUSH1 0x80 PUSH1 0x40 MSTORE CALLVALUE DUP1 ISZERO PUSH2 0x10 JUMPI PUSH1 0x0 DUP1 REVERT JUMPDEST POP PUSH2 0x3BED DUP1 PUSH2 0x20 PUSH1 0x0 CODECOPY PUSH1 0x0 RETURN INVALID PUSH1 0x80 PUSH1 0x40 MSTORE CALLVALUE DUP1 ISZERO PUSH2 0x10 JUMPI PUSH1 0x0 DUP1 REVERT JUMPDEST POP PUSH1 0x4 CALLDATASIZE LT PUSH2 0x206 JUMPI PUSH1 0x0 CALLDATALOAD PUSH1 0xE0 SHR DUP1 PUSH4 0x8A9A9FF3 GT PUSH2 0x11A JUMPI DUP1 PUSH4 0xB647EEC3 GT PUSH2 0xAD JUMPI DUP1 PUSH4 0xEA60F28C GT PUSH2 0x7C JUMPI DUP1 PUSH4 0xEA60F28C EQ PUSH2 0x56B JUMPI DUP1 PUSH4 0xF8626EBB EQ PUSH2 0x594 JUMPI DUP1 PUSH4 0xFFBAFDFE EQ PUSH2 0x5B7 JUMPI DUP1 PUSH4 0xFFCCE776 EQ PUSH2 0x5CA JUMPI DUP1 PUSH4 0xFFFB35AF EQ PUSH2 0x603 JUMPI PUSH1 0x0 DUP1 REVERT JUMPDEST DUP1 PUSH4 0xB647EEC3 EQ PUSH2 0x4EB JUMPI DUP1 PUSH4 0xCF8F4BE2 EQ PUSH2 0x4FE JUMPI DUP1 PUSH4 0xD2FED69C EQ PUSH2 0x51E JUMPI DUP1 PUSH4 0xDF3A726F EQ PUSH2 0x541 JUMPI PUSH1 0x0 DUP1 REVERT JUMPDEST DUP1 PUSH4 0x9722F099 GT PUSH2 0xE9 JUMPI DUP1 PUSH4 0x9722F099 EQ PUSH2 0x48A JUMPI DUP1 PUSH4 0x983A12A8 EQ PUSH2 0x4B0 JUMPI DUP1 PUSH4 0xA15D194C EQ PUSH2 0x4D0 JUMPI DUP1 PUSH4 0xA87D942C EQ PUSH2 0x4E3 JUMPI PUSH1 0x0 DUP1 REVERT JUMPDEST DUP1 PUSH4 0x8A9A9FF3 EQ PUSH2 0x430 JUMPI DUP1 PUSH4 0x8B3F3A6F EQ PUSH2 0x443 JUMPI DUP1 PUSH4 0x90977D2B EQ PUSH2 0x464 JUMPI DUP1 PUSH4 0x960BC834 EQ PUSH2 0x477 JUMPI PUSH1 0x0 DUP1 REVERT JUMPDEST DUP1 PUSH4 0x546677AA GT PUSH2 0x19D JUMPI DUP1 PUSH4 0x6FA276B8 GT PUSH2 0x16C JUMPI DUP1 PUSH4 0x6FA276B8 EQ PUSH2 0x394 JUMPI DUP1 PUSH4 0x752458C5 EQ PUSH2 0x3A7 JUMPI DUP1 PUSH4 0x789FBE31 EQ PUSH2 0x3BA JUMPI DUP1 PUSH4 0x790485F9 EQ PUSH2 0x3CD JUMPI DUP1 PUSH4 0x7C34EB85 EQ PUSH2 0x405 JUMPI PUSH1 0x0 DUP1 REVERT JUMPDEST DUP1 PUSH4 0x546677AA EQ PUSH2 0x2E2 JUMPI DUP1 PUSH4 0x5BF608B8 EQ PUSH2 0x31D JUMPI DUP1 PUSH4 0x64A1ED07 EQ PUSH2 0x35E JUMPI DUP1 PUSH4 0x6E973982 EQ PUSH2 0x371 JUMPI PUSH1 0x0 DUP1 REVERT JUMPDEST DUP1 PUSH4 0x35339174 GT PUSH2 0x1D9 JUMPI DUP1 PUSH4 0x35339174 EQ PUSH2 0x279 JUMPI DUP1 PUSH4 0x38C3B2D6 EQ PUSH2 0x28C JUMPI DUP1 PUSH4 0x4AA86DED EQ PUSH2 0x29F JUMPI DUP1 PUSH4 0x4DB61CAF EQ PUSH2 0x2B2 JUMPI PUSH1 0x0 DUP1 REVERT JUMPDEST DUP1 PUSH4 0x193620E7 EQ PUSH2 0x20B JUMPI DUP1 PUSH4 0x1AF5FA16 EQ PUSH2 0x231 JUMPI DUP1 PUSH4 0x25E78E70 EQ PUSH2 0x246 JUMPI DUP1 PUSH4 0x2731259A EQ PUSH2 0x266 JUMPI JUMPDEST PUSH1 0x0 DUP1 REVERT JUMPDEST PUSH2 0x21E PUSH2 0x219 CALLDATASIZE PUSH1 0x4 PUSH2 0x30F4 JUMP JUMPDEST PUSH2 0x616 JUMP JUMPDEST PUSH1 0x40 MLOAD SWAP1 DUP2 MSTORE PUSH1 0x20 ADD JUMPDEST PUSH1 0x40 MLOAD DUP1 SWAP2 SUB SWAP1 RETURN JUMPDEST PUSH2 0x244 PUSH2 0x23F CALLDATASIZE PUSH1 0x4 PUSH2 0x3412 JUMP JUMPDEST PUSH2 0x641 JUMP JUMPDEST STOP JUMPDEST PUSH2 0x259 PUSH2 0x254 CALLDATASIZE PUSH1 0x4 PUSH2 0x30DB JUMP JUMPDEST PUSH2 0x886 JUMP JUMPDEST PUSH1 0x40 MLOAD PUSH2 0x228 SWAP2 SWAP1 PUSH2 0x37E7 JUMP JUMPDEST PUSH2 0x244 PUSH2 0x274 CALLDATASIZE PUSH1 0x4 PUSH2 0x347B JUMP JUMPDEST PUSH2 0x134D JUMP JUMPDEST PUSH2 0x21E PUSH2 0x287 CALLDATASIZE PUSH1 0x4 PUSH2 0x3282 JUMP JUMPDEST PUSH2 0x148E JUMP JUMPDEST PUSH2 0x244 PUSH2 0x29A CALLDATASIZE PUSH1 0x4 PUSH2 0x3120 JUMP JUMPDEST PUSH2 0x150A JUMP JUMPDEST PUSH2 0x244 PUSH2 0x2AD CALLDATASIZE PUSH1 0x4 PUSH2 0x336D JUMP JUMPDEST PUSH2 0x1637 JUMP JUMPDEST PUSH2 0x244 PUSH2 0x2C0 CALLDATASIZE PUSH1 0x4 PUSH2 0x30DB JUMP JUMPDEST PUSH1 0x0 SWAP1 DUP2 MSTORE PUSH1 0x20 DUP2 SWAP1 MSTORE PUSH1 0x40 SWAP1 KECCAK256 PUSH1 0x15 ADD DUP1 SLOAD PUSH3 0xFFFF00 NOT AND PUSH3 0x40000 OR SWAP1 SSTORE JUMP JUMPDEST PUSH2 0x30D PUSH2 0x2F0 CALLDATASIZE PUSH1 0x4 PUSH2 0x30DB JUMP JUMPDEST PUSH1 0x0 SWAP1 DUP2 MSTORE PUSH1 0x20 DUP2 SWAP1 MSTORE PUSH1 0x40 SWAP1 KECCAK256 PUSH1 0x15 ADD SLOAD PUSH2 0x100 SWAP1 DIV PUSH1 0xFF AND SWAP1 JUMP JUMPDEST PUSH1 0x40 MLOAD SWAP1 ISZERO ISZERO DUP2 MSTORE PUSH1 0x20 ADD PUSH2 0x228 JUMP JUMPDEST PUSH2 0x346 PUSH2 0x32B CALLDATASIZE PUSH1 0x4 PUSH2 0x30DB JUMP JUMPDEST PUSH1 0x0 SWAP1 DUP2 MSTORE PUSH1 0x20 DUP2 SWAP1 MSTORE PUSH1 0x40 SWAP1 KECCAK256 SLOAD PUSH1 0x1 PUSH1 0x1 PUSH1 0xA0 SHL SUB AND SWAP1 JUMP JUMPDEST PUSH1 0x40 MLOAD PUSH1 0x1 PUSH1 0x1 PUSH1 0xA0 SHL SUB SWAP1 SWAP2 AND DUP2 MSTORE PUSH1 0x20 ADD PUSH2 0x228 JUMP JUMPDEST PUSH2 0x21E PUSH2 0x36C CALLDATASIZE PUSH1 0x4 PUSH2 0x3459 JUMP JUMPDEST PUSH2 0x1931 JUMP JUMPDEST PUSH2 0x21E PUSH2 0x37F CALLDATASIZE PUSH1 0x4 PUSH2 0x30DB JUMP JUMPDEST PUSH1 0x0 SWAP1 DUP2 MSTORE PUSH1 0x20 DUP2 SWAP1 MSTORE PUSH1 0x40 SWAP1 KECCAK256 PUSH1 0xB ADD SLOAD SWAP1 JUMP JUMPDEST PUSH2 0x244 PUSH2 0x3A2 CALLDATASIZE PUSH1 0x4 PUSH2 0x3329 JUMP JUMPDEST PUSH2 0x196E JUMP JUMPDEST PUSH2 0x21E PUSH2 0x3B5 CALLDATASIZE PUSH1 0x4 PUSH2 0x30A6 JUMP JUMPDEST PUSH2 0x1A0D JUMP JUMPDEST PUSH2 0x244 PUSH2 0x3C8 CALLDATASIZE PUSH1 0x4 PUSH2 0x324D JUMP JUMPDEST PUSH2 0x1C79 JUMP JUMPDEST PUSH2 0x21E PUSH2 0x3DB CALLDATASIZE PUSH1 0x4 PUSH2 0x30F4 JUMP JUMPDEST PUSH1 0x0 DUP3 DUP2 MSTORE PUSH1 0x20 DUP2 DUP2 MSTORE PUSH1 0x40 DUP1 DUP4 KECCAK256 PUSH1 0x1 PUSH1 0x1 PUSH1 0xA0 SHL SUB DUP6 AND DUP5 MSTORE PUSH1 0x10 ADD SWAP1 SWAP2 MSTORE SWAP1 KECCAK256 SLOAD SWAP3 SWAP2 POP POP JUMP JUMPDEST PUSH2 0x30D PUSH2 0x413 CALLDATASIZE PUSH1 0x4 PUSH2 0x30DB JUMP JUMPDEST PUSH1 0x0 SWAP1 DUP2 MSTORE PUSH1 0x20 DUP2 SWAP1 MSTORE PUSH1 0x40 SWAP1 KECCAK256 PUSH1 0xA ADD SLOAD PUSH2 0x100 SWAP1 DIV PUSH1 0xFF AND SWAP1 JUMP JUMPDEST PUSH2 0x30D PUSH2 0x43E CALLDATASIZE PUSH1 0x4 PUSH2 0x33BB JUMP JUMPDEST PUSH2 0x1D09 JUMP JUMPDEST PUSH2 0x456 PUSH2 0x451 CALLDATASIZE PUSH1 0x4 PUSH2 0x3211 JUMP JUMPDEST PUSH2 0x1D53 JUMP JUMPDEST PUSH1 0x40 MLOAD PUSH2 0x228 SWAP3 SWAP2 SWAP1 PUSH2 0x37B7 JUMP JUMPDEST PUSH2 0x244 PUSH2 0x472 CALLDATASIZE PUSH1 0x4 PUSH2 0x3192 JUMP JUMPDEST PUSH2 0x2070 JUMP JUMPDEST PUSH2 0x244 PUSH2 0x485 CALLDATASIZE PUSH1 0x4 PUSH2 0x3282 JUMP JUMPDEST PUSH2 0x21B2 JUMP JUMPDEST PUSH2 0x30D PUSH2 0x498 CALLDATASIZE PUSH1 0x4 PUSH2 0x30DB JUMP JUMPDEST PUSH1 0x0 SWAP1 DUP2 MSTORE PUSH1 0x20 DUP2 SWAP1 MSTORE PUSH1 0x40 SWAP1 KECCAK256 PUSH1 0x15 ADD SLOAD PUSH1 0xFF AND SWAP1 JUMP JUMPDEST PUSH2 0x4C3 PUSH2 0x4BE CALLDATASIZE PUSH1 0x4 PUSH2 0x30DB JUMP JUMPDEST PUSH2 0x22D9 JUMP JUMPDEST PUSH1 0x40 MLOAD PUSH2 0x228 SWAP2 SWAP1 PUSH2 0x3763 JUMP JUMPDEST PUSH2 0x244 PUSH2 0x4DE CALLDATASIZE PUSH1 0x4 PUSH2 0x336D JUMP JUMPDEST PUSH2 0x2346 JUMP JUMPDEST PUSH1 0x1 SLOAD PUSH2 0x21E JUMP JUMPDEST PUSH2 0x4C3 PUSH2 0x4F9 CALLDATASIZE PUSH1 0x4 PUSH2 0x30DB JUMP JUMPDEST PUSH2 0x2641 JUMP JUMPDEST PUSH2 0x511 PUSH2 0x50C CALLDATASIZE PUSH1 0x4 PUSH2 0x30DB JUMP JUMPDEST PUSH2 0x26AC JUMP JUMPDEST PUSH1 0x40 MLOAD PUSH2 0x228 SWAP2 SWAP1 PUSH2 0x37A4 JUMP JUMPDEST PUSH2 0x21E PUSH2 0x52C CALLDATASIZE PUSH1 0x4 PUSH2 0x30DB JUMP JUMPDEST PUSH1 0x0 SWAP1 DUP2 MSTORE PUSH1 0x20 DUP2 SWAP1 MSTORE PUSH1 0x40 SWAP1 KECCAK256 PUSH1 0xD ADD SLOAD SWAP1 JUMP JUMPDEST PUSH2 0x244 PUSH2 0x54F CALLDATASIZE PUSH1 0x4 PUSH2 0x30DB JUMP JUMPDEST PUSH1 0x0 SWAP1 DUP2 MSTORE PUSH1 0x20 DUP2 SWAP1 MSTORE PUSH1 0x40 SWAP1 KECCAK256 PUSH1 0x15 ADD DUP1 SLOAD PUSH2 0xFF00 NOT AND SWAP1 SSTORE JUMP JUMPDEST PUSH2 0x244 PUSH2 0x579 CALLDATASIZE PUSH1 0x4 PUSH2 0x30DB JUMP JUMPDEST PUSH1 0x0 SWAP1 DUP2 MSTORE PUSH1 0x20 DUP2 SWAP1 MSTORE PUSH1 0x40 SWAP1 KECCAK256 PUSH1 0x15 ADD DUP1 SLOAD PUSH1 0xFF NOT AND SWAP1 SSTORE JUMP JUMPDEST PUSH2 0x21E PUSH2 0x5A2 CALLDATASIZE PUSH1 0x4 PUSH2 0x30DB JUMP JUMPDEST PUSH1 0x0 SWAP1 DUP2 MSTORE PUSH1 0x20 DUP2 SWAP1 MSTORE PUSH1 0x40 SWAP1 KECCAK256 PUSH1 0xE ADD SLOAD SWAP1 JUMP JUMPDEST PUSH2 0x244 PUSH2 0x5C5 CALLDATASIZE PUSH1 0x4 PUSH2 0x33DE JUMP JUMPDEST PUSH2 0x2954 JUMP JUMPDEST PUSH2 0x5F6 PUSH2 0x5D8 CALLDATASIZE PUSH1 0x4 PUSH2 0x30DB JUMP JUMPDEST PUSH1 0x0 SWAP1 DUP2 MSTORE PUSH1 0x20 DUP2 SWAP1 MSTORE PUSH1 0x40 SWAP1 KECCAK256 PUSH1 0x15 ADD SLOAD PUSH3 0x10000 SWAP1 DIV PUSH1 0xFF AND SWAP1 JUMP JUMPDEST PUSH1 0x40 MLOAD PUSH2 0x228 SWAP2 SWAP1 PUSH2 0x37D9 JUMP JUMPDEST PUSH2 0x244 PUSH2 0x611 CALLDATASIZE PUSH1 0x4 PUSH2 0x32C8 JUMP JUMPDEST PUSH2 0x298F JUMP JUMPDEST PUSH1 0x0 DUP3 DUP2 MSTORE PUSH1 0x20 DUP2 DUP2 MSTORE PUSH1 0x40 DUP1 DUP4 KECCAK256 PUSH1 0x1 PUSH1 0x1 PUSH1 0xA0 SHL SUB DUP6 AND DUP5 MSTORE PUSH1 0xF ADD SWAP1 SWAP2 MSTORE SWAP1 KECCAK256 SLOAD JUMPDEST SWAP3 SWAP2 POP POP JUMP JUMPDEST PUSH1 0x0 DUP3 DUP2 MSTORE PUSH1 0x20 DUP2 DUP2 MSTORE PUSH1 0x40 SWAP1 SWAP2 KECCAK256 DUP3 MLOAD PUSH1 0x1 DUP3 ADD SSTORE DUP3 DUP3 ADD MLOAD DUP1 MLOAD SWAP2 SWAP3 PUSH2 0x671 SWAP3 PUSH1 0x2 DUP6 ADD SWAP3 SWAP1 SWAP2 ADD SWAP1 PUSH2 0x2AD4 JUMP JUMPDEST POP PUSH1 0x40 DUP3 ADD MLOAD DUP1 MLOAD PUSH2 0x68D SWAP2 PUSH1 0x3 DUP5 ADD SWAP2 PUSH1 0x20 SWAP1 SWAP2 ADD SWAP1 PUSH2 0x2AD4 JUMP JUMPDEST POP PUSH1 0x60 DUP3 ADD MLOAD PUSH1 0x4 DUP3 ADD SSTORE PUSH1 0x80 DUP3 ADD MLOAD PUSH1 0x5 DUP3 ADD SSTORE PUSH1 0xA0 DUP3 ADD MLOAD PUSH1 0x6 DUP3 ADD SSTORE PUSH1 0xC0 DUP3 ADD MLOAD DUP1 MLOAD PUSH2 0x6C7 SWAP2 PUSH1 0x7 DUP5 ADD SWAP2 PUSH1 0x20 SWAP1 SWAP2 ADD SWAP1 PUSH2 0x2B58 JUMP JUMPDEST POP PUSH1 0xE0 DUP3 ADD MLOAD PUSH1 0x8 DUP3 ADD SSTORE PUSH2 0x100 DUP1 DUP4 ADD MLOAD PUSH1 0x9 DUP4 ADD SSTORE PUSH2 0x160 DUP4 ADD MLOAD PUSH1 0xB DUP4 ADD SSTORE PUSH2 0x120 DUP4 ADD MLOAD PUSH1 0xA DUP4 ADD DUP1 SLOAD PUSH2 0x140 DUP7 ADD MLOAD PUSH2 0xFFFF NOT SWAP1 SWAP2 AND SWAP3 ISZERO ISZERO PUSH2 0xFF00 NOT AND SWAP3 SWAP1 SWAP3 OR SWAP2 ISZERO DUP1 ISZERO SWAP1 SWAP4 MUL SWAP2 SWAP1 SWAP2 OR SWAP1 SSTORE PUSH1 0x15 DUP3 ADD DUP1 SLOAD PUSH3 0xFF0000 NOT AND PUSH3 0x10000 OR SWAP1 SSTORE PUSH2 0x743 JUMPI PUSH2 0x180 DUP3 ADD MLOAD MLOAD PUSH1 0x11 DUP3 ADD SSTORE PUSH2 0x74B JUMP JUMPDEST PUSH1 0x1 PUSH1 0x11 DUP3 ADD SSTORE JUMPDEST PUSH1 0x15 DUP2 ADD DUP1 SLOAD PUSH3 0xFF00FF NOT AND PUSH3 0x10001 OR SWAP1 SSTORE PUSH1 0x0 JUMPDEST DUP3 PUSH2 0x180 ADD MLOAD MLOAD DUP2 LT ISZERO PUSH2 0x880 JUMPI DUP2 PUSH1 0xC ADD DUP4 PUSH2 0x180 ADD MLOAD DUP3 DUP2 MLOAD DUP2 LT PUSH2 0x78A JUMPI PUSH2 0x78A PUSH2 0x3B8B JUMP JUMPDEST PUSH1 0x20 SWAP1 DUP2 MUL SWAP2 SWAP1 SWAP2 ADD DUP2 ADD MLOAD DUP3 SLOAD PUSH1 0x1 DUP2 ADD DUP5 SSTORE PUSH1 0x0 SWAP4 DUP5 MSTORE SWAP3 DUP3 SWAP1 KECCAK256 DUP2 MLOAD DUP1 MLOAD DUP1 MLOAD SWAP4 SWAP6 PUSH1 0xB MUL SWAP1 SWAP3 ADD SWAP4 SWAP1 SWAP3 DUP5 SWAP3 PUSH2 0x7C8 SWAP3 DUP5 SWAP3 SWAP2 ADD SWAP1 PUSH2 0x2AD4 JUMP JUMPDEST POP PUSH1 0x20 DUP3 DUP2 ADD MLOAD PUSH1 0x1 DUP4 ADD SSTORE PUSH1 0x40 DUP4 ADD MLOAD PUSH1 0x2 DUP4 ADD SSTORE PUSH1 0x60 DUP4 ADD MLOAD PUSH1 0x3 DUP4 ADD SSTORE PUSH1 0x80 DUP4 ADD MLOAD PUSH1 0x4 DUP4 ADD SSTORE PUSH1 0xA0 DUP4 ADD MLOAD PUSH1 0x5 DUP4 ADD SSTORE PUSH1 0xC0 DUP4 ADD MLOAD DUP1 MLOAD PUSH2 0x813 SWAP3 PUSH1 0x6 DUP6 ADD SWAP3 ADD SWAP1 PUSH2 0x2AD4 JUMP JUMPDEST POP POP POP PUSH1 0x20 DUP3 DUP2 ADD MLOAD PUSH1 0x7 DUP4 ADD SSTORE PUSH1 0x40 DUP4 ADD MLOAD DUP1 MLOAD PUSH2 0x838 SWAP3 PUSH1 0x8 DUP6 ADD SWAP3 ADD SWAP1 PUSH2 0x2AD4 JUMP JUMPDEST POP PUSH1 0x60 DUP3 ADD MLOAD PUSH1 0x9 DUP3 ADD DUP1 SLOAD PUSH1 0xFF NOT AND PUSH1 0x1 DUP4 PUSH1 0x7 DUP2 GT ISZERO PUSH2 0x85C JUMPI PUSH2 0x85C PUSH2 0x3B75 JUMP JUMPDEST MUL OR SWAP1 SSTORE POP PUSH1 0x80 DUP3 ADD MLOAD DUP2 PUSH1 0xA ADD SSTORE POP POP DUP1 DUP1 PUSH2 0x878 SWAP1 PUSH2 0x3B44 JUMP JUMPDEST SWAP2 POP POP PUSH2 0x761 JUMP JUMPDEST POP POP POP POP JUMP JUMPDEST PUSH2 0x88E PUSH2 0x2B92 JUMP JUMPDEST PUSH2 0x896 PUSH2 0x2B92 JUMP JUMPDEST PUSH1 0x0 DUP4 DUP2 MSTORE PUSH1 0x20 DUP2 DUP2 MSTORE PUSH1 0x40 DUP3 KECCAK256 DUP1 SLOAD PUSH1 0x1 PUSH1 0x1 PUSH1 0xA0 SHL SUB AND DUP5 MSTORE PUSH1 0x1 DUP2 ADD SLOAD DUP5 DUP4 ADD MSTORE DUP6 DUP4 MSTORE SWAP2 SWAP1 MSTORE PUSH1 0x2 ADD DUP1 SLOAD PUSH2 0x8CE SWAP1 PUSH2 0x3B09 JUMP JUMPDEST DUP1 PUSH1 0x1F ADD PUSH1 0x20 DUP1 SWAP2 DIV MUL PUSH1 0x20 ADD PUSH1 0x40 MLOAD SWAP1 DUP2 ADD PUSH1 0x40 MSTORE DUP1 SWAP3 SWAP2 SWAP1 DUP2 DUP2 MSTORE PUSH1 0x20 ADD DUP3 DUP1 SLOAD PUSH2 0x8FA SWAP1 PUSH2 0x3B09 JUMP JUMPDEST DUP1 ISZERO PUSH2 0x947 JUMPI DUP1 PUSH1 0x1F LT PUSH2 0x91C JUMPI PUSH2 0x100 DUP1 DUP4 SLOAD DIV MUL DUP4 MSTORE SWAP2 PUSH1 0x20 ADD SWAP2 PUSH2 0x947 JUMP JUMPDEST DUP3 ADD SWAP2 SWAP1 PUSH1 0x0 MSTORE PUSH1 0x20 PUSH1 0x0 KECCAK256 SWAP1 JUMPDEST DUP2 SLOAD DUP2 MSTORE SWAP1 PUSH1 0x1 ADD SWAP1 PUSH1 0x20 ADD DUP1 DUP4 GT PUSH2 0x92A JUMPI DUP3 SWAP1 SUB PUSH1 0x1F AND DUP3 ADD SWAP2 JUMPDEST POP POP POP POP PUSH1 0x40 DUP1 DUP5 ADD SWAP3 SWAP1 SWAP3 MSTORE POP PUSH1 0x0 DUP5 DUP2 MSTORE PUSH1 0x20 DUP2 SWAP1 MSTORE KECCAK256 PUSH1 0x3 ADD DUP1 SLOAD PUSH2 0x96E SWAP1 PUSH2 0x3B09 JUMP JUMPDEST DUP1 PUSH1 0x1F ADD PUSH1 0x20 DUP1 SWAP2 DIV MUL PUSH1 0x20 ADD PUSH1 0x40 MLOAD SWAP1 DUP2 ADD PUSH1 0x40 MSTORE DUP1 SWAP3 SWAP2 SWAP1 DUP2 DUP2 MSTORE PUSH1 0x20 ADD DUP3 DUP1 SLOAD PUSH2 0x99A SWAP1 PUSH2 0x3B09 JUMP JUMPDEST DUP1 ISZERO PUSH2 0x9E7 JUMPI DUP1 PUSH1 0x1F LT PUSH2 0x9BC JUMPI PUSH2 0x100 DUP1 DUP4 SLOAD DIV MUL DUP4 MSTORE SWAP2 PUSH1 0x20 ADD SWAP2 PUSH2 0x9E7 JUMP JUMPDEST DUP3 ADD SWAP2 SWAP1 PUSH1 0x0 MSTORE PUSH1 0x20 PUSH1 0x0 KECCAK256 SWAP1 JUMPDEST DUP2 SLOAD DUP2 MSTORE SWAP1 PUSH1 0x1 ADD SWAP1 PUSH1 0x20 ADD DUP1 DUP4 GT PUSH2 0x9CA JUMPI DUP3 SWAP1 SUB PUSH1 0x1F AND DUP3 ADD SWAP2 JUMPDEST POP POP POP POP POP PUSH1 0x60 DUP3 ADD MSTORE PUSH1 0x0 DUP4 DUP2 MSTORE PUSH1 0x20 DUP2 DUP2 MSTORE PUSH1 0x40 DUP1 DUP4 KECCAK256 PUSH1 0x4 DUP2 ADD SLOAD PUSH1 0x80 DUP7 ADD MSTORE PUSH1 0x5 DUP2 ADD SLOAD PUSH1 0xA0 DUP7 ADD MSTORE PUSH1 0x6 DUP2 ADD SLOAD PUSH1 0xC0 DUP7 ADD MSTORE DUP7 DUP5 MSTORE SWAP3 DUP3 MSTORE PUSH1 0x7 SWAP1 SWAP3 ADD DUP1 SLOAD DUP4 MLOAD DUP2 DUP5 MUL DUP2 ADD DUP5 ADD SWAP1 SWAP5 MSTORE DUP1 DUP5 MSTORE SWAP1 SWAP2 DUP4 ADD DUP3 DUP3 DUP1 ISZERO PUSH2 0xA6B JUMPI PUSH1 0x20 MUL DUP3 ADD SWAP2 SWAP1 PUSH1 0x0 MSTORE PUSH1 0x20 PUSH1 0x0 KECCAK256 SWAP1 JUMPDEST DUP2 SLOAD DUP2 MSTORE PUSH1 0x20 ADD SWAP1 PUSH1 0x1 ADD SWAP1 DUP1 DUP4 GT PUSH2 0xA57 JUMPI JUMPDEST POP POP POP POP POP PUSH1 0xE0 DUP3 ADD MSTORE PUSH1 0x0 DUP4 DUP2 MSTORE PUSH1 0x20 DUP2 DUP2 MSTORE PUSH1 0x40 DUP3 KECCAK256 PUSH1 0x8 DUP2 ADD SLOAD PUSH2 0x100 DUP1 DUP7 ADD SWAP2 SWAP1 SWAP2 MSTORE PUSH1 0x9 DUP3 ADD SLOAD PUSH2 0x120 DUP7 ADD MSTORE PUSH1 0xA DUP3 ADD SLOAD PUSH1 0xFF DUP1 DUP3 AND ISZERO ISZERO PUSH2 0x140 DUP9 ADD MSTORE SWAP1 DUP3 SWAP1 DIV DUP2 AND ISZERO ISZERO PUSH2 0x160 DUP8 ADD MSTORE PUSH1 0xB DUP4 ADD SLOAD PUSH2 0x180 DUP8 ADD MSTORE PUSH1 0x11 DUP4 ADD SLOAD PUSH2 0x220 DUP8 ADD MSTORE PUSH1 0x12 DUP4 ADD SLOAD PUSH2 0x240 DUP8 ADD MSTORE PUSH1 0x13 DUP4 ADD SLOAD PUSH2 0x260 DUP8 ADD MSTORE PUSH1 0x14 DUP4 ADD SLOAD PUSH2 0x280 DUP8 ADD MSTORE PUSH1 0x15 SWAP1 SWAP3 ADD SLOAD DUP1 DUP4 AND ISZERO ISZERO PUSH2 0x2A0 DUP8 ADD MSTORE SWAP1 DUP2 DIV DUP3 AND ISZERO ISZERO PUSH2 0x2C0 DUP7 ADD MSTORE DUP7 DUP5 MSTORE SWAP3 SWAP1 SWAP2 MSTORE PUSH2 0x2E0 DUP4 ADD SWAP2 PUSH3 0x10000 SWAP1 DIV AND PUSH1 0x6 DUP2 GT ISZERO PUSH2 0xB37 JUMPI PUSH2 0xB37 PUSH2 0x3B75 JUMP JUMPDEST SWAP1 DUP2 PUSH1 0x6 DUP2 GT ISZERO PUSH2 0xB4A JUMPI PUSH2 0xB4A PUSH2 0x3B75 JUMP JUMPDEST SWAP1 MSTORE POP PUSH1 0x0 DUP4 DUP2 MSTORE PUSH1 0x20 DUP2 DUP2 MSTORE PUSH1 0x40 DUP1 DUP4 KECCAK256 PUSH1 0xC ADD DUP1 SLOAD DUP3 MLOAD DUP2 DUP6 MUL DUP2 ADD DUP6 ADD SWAP1 SWAP4 MSTORE DUP1 DUP4 MSTORE SWAP2 SWAP4 SWAP1 SWAP3 DUP5 ADD JUMPDEST DUP3 DUP3 LT ISZERO PUSH2 0xDE5 JUMPI PUSH1 0x0 DUP5 DUP2 MSTORE PUSH1 0x20 SWAP1 KECCAK256 PUSH1 0x40 DUP1 MLOAD PUSH2 0x180 DUP2 ADD SWAP1 SWAP2 MSTORE PUSH1 0xB DUP5 MUL SWAP1 SWAP2 ADD DUP1 SLOAD DUP3 SWAP1 PUSH1 0xA0 DUP3 ADD SWAP1 DUP4 SWAP1 DUP3 SWAP1 DUP3 SWAP1 PUSH2 0xBB3 SWAP1 PUSH2 0x3B09 JUMP JUMPDEST DUP1 PUSH1 0x1F ADD PUSH1 0x20 DUP1 SWAP2 DIV MUL PUSH1 0x20 ADD PUSH1 0x40 MLOAD SWAP1 DUP2 ADD PUSH1 0x40 MSTORE DUP1 SWAP3 SWAP2 SWAP1 DUP2 DUP2 MSTORE PUSH1 0x20 ADD DUP3 DUP1 SLOAD PUSH2 0xBDF SWAP1 PUSH2 0x3B09 JUMP JUMPDEST DUP1 ISZERO PUSH2 0xC2C JUMPI DUP1 PUSH1 0x1F LT PUSH2 0xC01 JUMPI PUSH2 0x100 DUP1 DUP4 SLOAD DIV MUL DUP4 MSTORE SWAP2 PUSH1 0x20 ADD SWAP2 PUSH2 0xC2C JUMP JUMPDEST DUP3 ADD SWAP2 SWAP1 PUSH1 0x0 MSTORE PUSH1 0x20 PUSH1 0x0 KECCAK256 SWAP1 JUMPDEST DUP2 SLOAD DUP2 MSTORE SWAP1 PUSH1 0x1 ADD SWAP1 PUSH1 0x20 ADD DUP1 DUP4 GT PUSH2 0xC0F JUMPI DUP3 SWAP1 SUB PUSH1 0x1F AND DUP3 ADD SWAP2 JUMPDEST POP POP POP POP POP DUP2 MSTORE PUSH1 0x20 ADD PUSH1 0x1 DUP3 ADD SLOAD DUP2 MSTORE PUSH1 0x20 ADD PUSH1 0x2 DUP3 ADD SLOAD DUP2 MSTORE PUSH1 0x20 ADD PUSH1 0x3 DUP3 ADD SLOAD DUP2 MSTORE PUSH1 0x20 ADD PUSH1 0x4 DUP3 ADD SLOAD DUP2 MSTORE PUSH1 0x20 ADD PUSH1 0x5 DUP3 ADD SLOAD DUP2 MSTORE PUSH1 0x20 ADD PUSH1 0x6 DUP3 ADD DUP1 SLOAD PUSH2 0xC77 SWAP1 PUSH2 0x3B09 JUMP JUMPDEST DUP1 PUSH1 0x1F ADD PUSH1 0x20 DUP1 SWAP2 DIV MUL PUSH1 0x20 ADD PUSH1 0x40 MLOAD SWAP1 DUP2 ADD PUSH1 0x40 MSTORE DUP1 SWAP3 SWAP2 SWAP1 DUP2 DUP2 MSTORE PUSH1 0x20 ADD DUP3 DUP1 SLOAD PUSH2 0xCA3 SWAP1 PUSH2 0x3B09 JUMP JUMPDEST DUP1 ISZERO PUSH2 0xCF0 JUMPI DUP1 PUSH1 0x1F LT PUSH2 0xCC5 JUMPI PUSH2 0x100 DUP1 DUP4 SLOAD DIV MUL DUP4 MSTORE SWAP2 PUSH1 0x20 ADD SWAP2 PUSH2 0xCF0 JUMP JUMPDEST DUP3 ADD SWAP2 SWAP1 PUSH1 0x0 MSTORE PUSH1 0x20 PUSH1 0x0 KECCAK256 SWAP1 JUMPDEST DUP2 SLOAD DUP2 MSTORE SWAP1 PUSH1 0x1 ADD SWAP1 PUSH1 0x20 ADD DUP1 DUP4 GT PUSH2 0xCD3 JUMPI DUP3 SWAP1 SUB PUSH1 0x1F AND DUP3 ADD SWAP2 JUMPDEST POP POP POP POP POP DUP2 MSTORE POP POP DUP2 MSTORE PUSH1 0x20 ADD PUSH1 0x7 DUP3 ADD SLOAD DUP2 MSTORE PUSH1 0x20 ADD PUSH1 0x8 DUP3 ADD DUP1 SLOAD PUSH2 0xD17 SWAP1 PUSH2 0x3B09 JUMP JUMPDEST DUP1 PUSH1 0x1F ADD PUSH1 0x20 DUP1 SWAP2 DIV MUL PUSH1 0x20 ADD PUSH1 0x40 MLOAD SWAP1 DUP2 ADD PUSH1 0x40 MSTORE DUP1 SWAP3 SWAP2 SWAP1 DUP2 DUP2 MSTORE PUSH1 0x20 ADD DUP3 DUP1 SLOAD PUSH2 0xD43 SWAP1 PUSH2 0x3B09 JUMP JUMPDEST DUP1 ISZERO PUSH2 0xD90 JUMPI DUP1 PUSH1 0x1F LT PUSH2 0xD65 JUMPI PUSH2 0x100 DUP1 DUP4 SLOAD DIV MUL DUP4 MSTORE SWAP2 PUSH1 0x20 ADD SWAP2 PUSH2 0xD90 JUMP JUMPDEST DUP3 ADD SWAP2 SWAP1 PUSH1 0x0 MSTORE PUSH1 0x20 PUSH1 0x0 KECCAK256 SWAP1 JUMPDEST DUP2 SLOAD DUP2 MSTORE SWAP1 PUSH1 0x1 ADD SWAP1 PUSH1 0x20 ADD DUP1 DUP4 GT PUSH2 0xD73 JUMPI DUP3 SWAP1 SUB PUSH1 0x1F AND DUP3 ADD SWAP2 JUMPDEST POP POP POP SWAP2 DUP4 MSTORE POP POP PUSH1 0x9 DUP3 ADD SLOAD PUSH1 0x20 SWAP1 SWAP2 ADD SWAP1 PUSH1 0xFF AND PUSH1 0x7 DUP2 GT ISZERO PUSH2 0xDB7 JUMPI PUSH2 0xDB7 PUSH2 0x3B75 JUMP JUMPDEST PUSH1 0x7 DUP2 GT ISZERO PUSH2 0xDC8 JUMPI PUSH2 0xDC8 PUSH2 0x3B75 JUMP JUMPDEST DUP2 MSTORE PUSH1 0x20 ADD PUSH1 0xA DUP3 ADD SLOAD DUP2 MSTORE POP POP DUP2 MSTORE PUSH1 0x20 ADD SWAP1 PUSH1 0x1 ADD SWAP1 PUSH2 0xB77 JUMP JUMPDEST POP POP POP POP PUSH2 0x1C0 DUP3 ADD MSTORE PUSH1 0x0 JUMPDEST PUSH1 0x0 DUP5 DUP2 MSTORE PUSH1 0x20 DUP2 SWAP1 MSTORE PUSH1 0x40 SWAP1 KECCAK256 PUSH1 0xD ADD SLOAD DUP2 LT ISZERO PUSH2 0x109A JUMPI PUSH1 0x40 DUP1 MLOAD DUP1 DUP3 ADD SWAP1 SWAP2 MSTORE PUSH1 0x0 DUP2 MSTORE PUSH1 0x60 PUSH1 0x20 DUP3 ADD MSTORE PUSH1 0x0 DUP6 DUP2 MSTORE PUSH1 0x20 DUP2 SWAP1 MSTORE PUSH1 0x40 DUP2 KECCAK256 PUSH1 0xD ADD DUP1 SLOAD DUP5 SWAP1 DUP2 LT PUSH2 0xE43 JUMPI PUSH2 0xE43 PUSH2 0x3B8B JUMP JUMPDEST PUSH1 0x0 SWAP2 DUP3 MSTORE PUSH1 0x20 DUP3 KECCAK256 ADD SLOAD PUSH1 0x1 PUSH1 0x1 PUSH1 0xA0 SHL SUB AND DUP1 DUP5 MSTORE SWAP2 POP JUMPDEST PUSH1 0x0 DUP8 DUP2 MSTORE PUSH1 0x20 DUP2 DUP2 MSTORE PUSH1 0x40 DUP1 DUP4 KECCAK256 PUSH1 0x1 PUSH1 0x1 PUSH1 0xA0 SHL SUB DUP7 AND DUP5 MSTORE PUSH1 0xF ADD SWAP1 SWAP2 MSTORE SWAP1 KECCAK256 SLOAD DUP5 LT ISZERO PUSH2 0x1061 JUMPI PUSH2 0xE90 PUSH2 0x2C68 JUMP JUMPDEST PUSH1 0x0 DUP9 DUP2 MSTORE PUSH1 0x20 DUP2 DUP2 MSTORE PUSH1 0x40 DUP1 DUP4 KECCAK256 PUSH1 0x1 PUSH1 0x1 PUSH1 0xA0 SHL SUB DUP8 AND DUP5 MSTORE PUSH1 0xF ADD SWAP1 SWAP2 MSTORE SWAP1 KECCAK256 DUP1 SLOAD DUP4 SWAP1 DUP2 LT PUSH2 0xEC5 JUMPI PUSH2 0xEC5 PUSH2 0x3B8B JUMP JUMPDEST PUSH1 0x0 SWAP2 DUP3 MSTORE PUSH1 0x20 DUP1 DUP4 KECCAK256 SWAP1 SWAP2 ADD SLOAD DUP4 MSTORE DUP10 DUP3 MSTORE DUP2 DUP2 MSTORE PUSH1 0x40 DUP1 DUP4 KECCAK256 PUSH1 0x1 PUSH1 0x1 PUSH1 0xA0 SHL SUB DUP8 AND DUP5 MSTORE PUSH1 0xF ADD DUP3 MSTORE DUP1 DUP4 KECCAK256 DUP5 MLOAD DUP5 MSTORE PUSH1 0x1 ADD DUP3 MSTORE SWAP1 SWAP2 KECCAK256 SLOAD SWAP1 DUP3 ADD SWAP1 PUSH1 0xFF AND PUSH1 0x4 DUP2 GT ISZERO PUSH2 0xF19 JUMPI PUSH2 0xF19 PUSH2 0x3B75 JUMP JUMPDEST SWAP1 DUP2 PUSH1 0x4 DUP2 GT ISZERO PUSH2 0xF2C JUMPI PUSH2 0xF2C PUSH2 0x3B75 JUMP JUMPDEST SWAP1 MSTORE POP PUSH1 0x0 DUP9 DUP2 MSTORE PUSH1 0x20 DUP2 DUP2 MSTORE PUSH1 0x40 DUP1 DUP4 KECCAK256 PUSH1 0x1 PUSH1 0x1 PUSH1 0xA0 SHL SUB DUP8 AND DUP5 MSTORE PUSH1 0xF ADD DUP3 MSTORE DUP1 DUP4 KECCAK256 DUP5 MLOAD DUP5 MSTORE PUSH1 0x1 SWAP1 DUP2 ADD SWAP1 SWAP3 MSTORE SWAP1 SWAP2 KECCAK256 ADD DUP1 SLOAD PUSH2 0xF6D SWAP1 PUSH2 0x3B09 JUMP JUMPDEST DUP1 PUSH1 0x1F ADD PUSH1 0x20 DUP1 SWAP2 DIV MUL PUSH1 0x20 ADD PUSH1 0x40 MLOAD SWAP1 DUP2 ADD PUSH1 0x40 MSTORE DUP1 SWAP3 SWAP2 SWAP1 DUP2 DUP2 MSTORE PUSH1 0x20 ADD DUP3 DUP1 SLOAD PUSH2 0xF99 SWAP1 PUSH2 0x3B09 JUMP JUMPDEST DUP1 ISZERO PUSH2 0xFE6 JUMPI DUP1 PUSH1 0x1F LT PUSH2 0xFBB JUMPI PUSH2 0x100 DUP1 DUP4 SLOAD DIV MUL DUP4 MSTORE SWAP2 PUSH1 0x20 ADD SWAP2 PUSH2 0xFE6 JUMP JUMPDEST DUP3 ADD SWAP2 SWAP1 PUSH1 0x0 MSTORE PUSH1 0x20 PUSH1 0x0 KECCAK256 SWAP1 JUMPDEST DUP2 SLOAD DUP2 MSTORE SWAP1 PUSH1 0x1 ADD SWAP1 PUSH1 0x20 ADD DUP1 DUP4 GT PUSH2 0xFC9 JUMPI DUP3 SWAP1 SUB PUSH1 0x1F AND DUP3 ADD SWAP2 JUMPDEST POP POP POP POP PUSH1 0x40 DUP1 DUP5 ADD SWAP3 SWAP1 SWAP3 MSTORE POP PUSH1 0x0 DUP10 DUP2 MSTORE PUSH1 0x20 DUP2 DUP2 MSTORE DUP3 DUP3 KECCAK256 PUSH1 0x1 PUSH1 0x1 PUSH1 0xA0 SHL SUB DUP8 AND DUP4 MSTORE PUSH1 0xF ADD DUP2 MSTORE DUP3 DUP3 KECCAK256 DUP5 MLOAD DUP4 MSTORE PUSH1 0x1 ADD DUP2 MSTORE SWAP2 SWAP1 KECCAK256 PUSH1 0x2 ADD SLOAD PUSH1 0x60 DUP4 ADD MSTORE DUP5 ADD MLOAD DUP1 MLOAD DUP3 SWAP2 SWAP1 DUP5 SWAP1 DUP2 LT PUSH2 0x1042 JUMPI PUSH2 0x1042 PUSH2 0x3B8B JUMP JUMPDEST PUSH1 0x20 MUL PUSH1 0x20 ADD ADD DUP2 SWAP1 MSTORE POP POP DUP1 DUP1 PUSH2 0x1059 SWAP1 PUSH2 0x3B44 JUMP JUMPDEST SWAP2 POP POP PUSH2 0xE5D JUMP JUMPDEST POP DUP2 DUP5 PUSH2 0x1E0 ADD MLOAD DUP5 DUP2 MLOAD DUP2 LT PUSH2 0x107A JUMPI PUSH2 0x107A PUSH2 0x3B8B JUMP JUMPDEST PUSH1 0x20 MUL PUSH1 0x20 ADD ADD DUP2 SWAP1 MSTORE POP POP POP DUP1 DUP1 PUSH2 0x1092 SWAP1 PUSH2 0x3B44 JUMP JUMPDEST SWAP2 POP POP PUSH2 0xDF2 JUMP JUMPDEST POP PUSH1 0x0 JUMPDEST PUSH1 0x0 DUP5 DUP2 MSTORE PUSH1 0x20 DUP2 SWAP1 MSTORE PUSH1 0x40 SWAP1 KECCAK256 PUSH1 0xE ADD SLOAD DUP2 LT ISZERO PUSH2 0x1346 JUMPI PUSH1 0x40 DUP1 MLOAD DUP1 DUP3 ADD SWAP1 SWAP2 MSTORE PUSH1 0x0 DUP2 MSTORE PUSH1 0x60 PUSH1 0x20 DUP3 ADD MSTORE PUSH1 0x0 DUP6 DUP2 MSTORE PUSH1 0x20 DUP2 SWAP1 MSTORE PUSH1 0x40 DUP2 KECCAK256 PUSH1 0xE ADD DUP1 SLOAD DUP5 SWAP1 DUP2 LT PUSH2 0x10EF JUMPI PUSH2 0x10EF PUSH2 0x3B8B JUMP JUMPDEST PUSH1 0x0 SWAP2 DUP3 MSTORE PUSH1 0x20 DUP3 KECCAK256 ADD SLOAD PUSH1 0x1 PUSH1 0x1 PUSH1 0xA0 SHL SUB AND DUP1 DUP5 MSTORE SWAP2 POP JUMPDEST PUSH1 0x0 DUP8 DUP2 MSTORE PUSH1 0x20 DUP2 DUP2 MSTORE PUSH1 0x40 DUP1 DUP4 KECCAK256 PUSH1 0x1 PUSH1 0x1 PUSH1 0xA0 SHL SUB DUP7 AND DUP5 MSTORE PUSH1 0x10 ADD SWAP1 SWAP2 MSTORE SWAP1 KECCAK256 SLOAD DUP5 LT ISZERO PUSH2 0x130D JUMPI PUSH2 0x113C PUSH2 0x2C68 JUMP JUMPDEST PUSH1 0x0 DUP9 DUP2 MSTORE PUSH1 0x20 DUP2 DUP2 MSTORE PUSH1 0x40 DUP1 DUP4 KECCAK256 PUSH1 0x1 PUSH1 0x1 PUSH1 0xA0 SHL SUB DUP8 AND DUP5 MSTORE PUSH1 0x10 ADD SWAP1 SWAP2 MSTORE SWAP1 KECCAK256 DUP1 SLOAD DUP4 SWAP1 DUP2 LT PUSH2 0x1171 JUMPI PUSH2 0x1171 PUSH2 0x3B8B JUMP JUMPDEST PUSH1 0x0 SWAP2 DUP3 MSTORE PUSH1 0x20 DUP1 DUP4 KECCAK256 SWAP1 SWAP2 ADD SLOAD DUP4 MSTORE DUP10 DUP3 MSTORE DUP2 DUP2 MSTORE PUSH1 0x40 DUP1 DUP4 KECCAK256 PUSH1 0x1 PUSH1 0x1 PUSH1 0xA0 SHL SUB DUP8 AND DUP5 MSTORE PUSH1 0x10 ADD DUP3 MSTORE DUP1 DUP4 KECCAK256 DUP5 MLOAD DUP5 MSTORE PUSH1 0x1 ADD DUP3 MSTORE SWAP1 SWAP2 KECCAK256 SLOAD SWAP1 DUP3 ADD SWAP1 PUSH1 0xFF AND PUSH1 0x4 DUP2 GT ISZERO PUSH2 0x11C5 JUMPI PUSH2 0x11C5 PUSH2 0x3B75 JUMP JUMPDEST SWAP1 DUP2 PUSH1 0x4 DUP2 GT ISZERO PUSH2 0x11D8 JUMPI PUSH2 0x11D8 PUSH2 0x3B75 JUMP JUMPDEST SWAP1 MSTORE POP PUSH1 0x0 DUP9 DUP2 MSTORE PUSH1 0x20 DUP2 DUP2 MSTORE PUSH1 0x40 DUP1 DUP4 KECCAK256 PUSH1 0x1 PUSH1 0x1 PUSH1 0xA0 SHL SUB DUP8 AND DUP5 MSTORE PUSH1 0x10 ADD DUP3 MSTORE DUP1 DUP4 KECCAK256 DUP5 MLOAD DUP5 MSTORE PUSH1 0x1 SWAP1 DUP2 ADD SWAP1 SWAP3 MSTORE SWAP1 SWAP2 KECCAK256 ADD DUP1 SLOAD PUSH2 0x1219 SWAP1 PUSH2 0x3B09 JUMP JUMPDEST DUP1 PUSH1 0x1F ADD PUSH1 0x20 DUP1 SWAP2 DIV MUL PUSH1 0x20 ADD PUSH1 0x40 MLOAD SWAP1 DUP2 ADD PUSH1 0x40 MSTORE DUP1 SWAP3 SWAP2 SWAP1 DUP2 DUP2 MSTORE PUSH1 0x20 ADD DUP3 DUP1 SLOAD PUSH2 0x1245 SWAP1 PUSH2 0x3B09 JUMP JUMPDEST DUP1 ISZERO PUSH2 0x1292 JUMPI DUP1 PUSH1 0x1F LT PUSH2 0x1267 JUMPI PUSH2 0x100 DUP1 DUP4 SLOAD DIV MUL DUP4 MSTORE SWAP2 PUSH1 0x20 ADD SWAP2 PUSH2 0x1292 JUMP JUMPDEST DUP3 ADD SWAP2 SWAP1 PUSH1 0x0 MSTORE PUSH1 0x20 PUSH1 0x0 KECCAK256 SWAP1 JUMPDEST DUP2 SLOAD DUP2 MSTORE SWAP1 PUSH1 0x1 ADD SWAP1 PUSH1 0x20 ADD DUP1 DUP4 GT PUSH2 0x1275 JUMPI DUP3 SWAP1 SUB PUSH1 0x1F AND DUP3 ADD SWAP2 JUMPDEST POP POP POP POP PUSH1 0x40 DUP1 DUP5 ADD SWAP3 SWAP1 SWAP3 MSTORE POP PUSH1 0x0 DUP10 DUP2 MSTORE PUSH1 0x20 DUP2 DUP2 MSTORE DUP3 DUP3 KECCAK256 PUSH1 0x1 PUSH1 0x1 PUSH1 0xA0 SHL SUB DUP8 AND DUP4 MSTORE PUSH1 0x10 ADD DUP2 MSTORE DUP3 DUP3 KECCAK256 DUP5 MLOAD DUP4 MSTORE PUSH1 0x1 ADD DUP2 MSTORE SWAP2 SWAP1 KECCAK256 PUSH1 0x2 ADD SLOAD PUSH1 0x60 DUP4 ADD MSTORE DUP5 ADD MLOAD DUP1 MLOAD DUP3 SWAP2 SWAP1 DUP5 SWAP1 DUP2 LT PUSH2 0x12EE JUMPI PUSH2 0x12EE PUSH2 0x3B8B JUMP JUMPDEST PUSH1 0x20 MUL PUSH1 0x20 ADD ADD DUP2 SWAP1 MSTORE POP POP DUP1 DUP1 PUSH2 0x1305 SWAP1 PUSH2 0x3B44 JUMP JUMPDEST SWAP2 POP POP PUSH2 0x1109 JUMP JUMPDEST POP DUP2 DUP5 PUSH2 0x200 ADD MLOAD DUP5 DUP2 MLOAD DUP2 LT PUSH2 0x1326 JUMPI PUSH2 0x1326 PUSH2 0x3B8B JUMP JUMPDEST PUSH1 0x20 MUL PUSH1 0x20 ADD ADD DUP2 SWAP1 MSTORE POP POP POP DUP1 DUP1 PUSH2 0x133E SWAP1 PUSH2 0x3B44 JUMP JUMPDEST SWAP2 POP POP PUSH2 0x109E JUMP JUMPDEST POP SWAP3 SWAP2 POP POP JUMP JUMPDEST PUSH1 0x0 DUP2 ISZERO PUSH2 0x13A6 JUMPI POP PUSH1 0x0 DUP5 DUP2 MSTORE PUSH1 0x20 DUP2 DUP2 MSTORE PUSH1 0x40 DUP1 DUP4 KECCAK256 PUSH1 0x1 PUSH1 0x1 PUSH1 0xA0 SHL SUB DUP7 AND DUP5 MSTORE PUSH1 0xF DUP2 ADD DUP4 MSTORE DUP2 DUP5 KECCAK256 DUP8 DUP6 MSTORE PUSH1 0x1 ADD DUP4 MSTORE SWAP1 DUP4 KECCAK256 DUP8 DUP5 MSTORE SWAP2 DUP4 SWAP1 MSTORE PUSH1 0x13 ADD DUP1 SLOAD SWAP2 SWAP3 PUSH2 0x139C DUP4 PUSH2 0x3B44 JUMP JUMPDEST SWAP2 SWAP1 POP SSTORE POP PUSH2 0x13F3 JUMP JUMPDEST POP PUSH1 0x0 DUP5 DUP2 MSTORE PUSH1 0x20 DUP2 DUP2 MSTORE PUSH1 0x40 DUP1 DUP4 KECCAK256 PUSH1 0x1 PUSH1 0x1 PUSH1 0xA0 SHL SUB DUP7 AND DUP5 MSTORE PUSH1 0x10 DUP2 ADD DUP4 MSTORE DUP2 DUP5 KECCAK256 DUP8 DUP6 MSTORE PUSH1 0x1 ADD DUP4 MSTORE SWAP1 DUP4 KECCAK256 DUP8 DUP5 MSTORE SWAP2 DUP4 SWAP1 MSTORE PUSH1 0x14 ADD DUP1 SLOAD SWAP2 SWAP3 PUSH2 0x13ED DUP4 PUSH2 0x3B44 JUMP JUMPDEST SWAP2 SWAP1 POP SSTORE POP JUMPDEST PUSH1 0x0 DUP6 DUP2 MSTORE PUSH1 0x20 DUP2 DUP2 MSTORE PUSH1 0x40 DUP1 DUP4 KECCAK256 PUSH1 0x1 PUSH1 0x1 PUSH1 0xA0 SHL SUB DUP8 AND DUP5 MSTORE PUSH1 0xF DUP2 ADD DUP4 MSTORE SWAP1 DUP4 KECCAK256 DUP1 SLOAD PUSH1 0x1 DUP2 ADD DUP3 SSTORE SWAP1 DUP5 MSTORE DUP3 DUP5 KECCAK256 ADD DUP8 SWAP1 SSTORE DUP8 DUP4 MSTORE SWAP2 SWAP1 MSTORE PUSH1 0xA ADD SLOAD PUSH2 0x100 SWAP1 DIV PUSH1 0xFF AND ISZERO PUSH2 0x1487 JUMPI PUSH1 0x0 DUP6 DUP2 MSTORE PUSH1 0x20 DUP2 SWAP1 MSTORE PUSH1 0x40 DUP2 KECCAK256 PUSH1 0xC ADD DUP1 SLOAD DUP7 SWAP1 DUP2 LT PUSH2 0x1463 JUMPI PUSH2 0x1463 PUSH2 0x3B8B JUMP JUMPDEST SWAP1 PUSH1 0x0 MSTORE PUSH1 0x20 PUSH1 0x0 KECCAK256 SWAP1 PUSH1 0xB MUL ADD PUSH1 0x7 ADD SLOAD SWAP1 POP PUSH2 0x1480 DUP2 PUSH2 0x2A8E JUMP JUMPDEST PUSH1 0x2 DUP4 ADD SSTORE POP JUMPDEST POP POP POP POP POP JUMP JUMPDEST PUSH1 0x0 DUP2 ISZERO PUSH2 0x14CE JUMPI POP PUSH1 0x0 DUP5 DUP2 MSTORE PUSH1 0x20 DUP2 DUP2 MSTORE PUSH1 0x40 DUP1 DUP4 KECCAK256 PUSH1 0x1 PUSH1 0x1 PUSH1 0xA0 SHL SUB DUP8 AND DUP5 MSTORE PUSH1 0xF ADD DUP3 MSTORE DUP1 DUP4 KECCAK256 DUP6 DUP5 MSTORE PUSH1 0x1 ADD SWAP1 SWAP2 MSTORE SWAP1 KECCAK256 PUSH1 0x2 ADD SLOAD PUSH2 0x1502 JUMP JUMPDEST POP PUSH1 0x0 DUP5 DUP2 MSTORE PUSH1 0x20 DUP2 DUP2 MSTORE PUSH1 0x40 DUP1 DUP4 KECCAK256 PUSH1 0x1 PUSH1 0x1 PUSH1 0xA0 SHL SUB DUP8 AND DUP5 MSTORE PUSH1 0x10 ADD DUP3 MSTORE DUP1 DUP4 KECCAK256 DUP6 DUP5 MSTORE PUSH1 0x1 ADD SWAP1 SWAP2 MSTORE SWAP1 KECCAK256 PUSH1 0x2 ADD SLOAD JUMPDEST SWAP5 SWAP4 POP POP POP POP JUMP JUMPDEST PUSH1 0x0 DUP6 DUP2 MSTORE PUSH1 0x20 DUP2 DUP2 MSTORE PUSH1 0x40 DUP1 DUP4 KECCAK256 PUSH1 0x1 PUSH1 0x1 PUSH1 0xA0 SHL SUB DUP9 AND DUP5 MSTORE PUSH1 0xF DUP2 ADD DUP4 MSTORE DUP2 DUP5 KECCAK256 DUP7 DUP6 MSTORE PUSH1 0x1 ADD SWAP1 SWAP3 MSTORE SWAP1 SWAP2 KECCAK256 DUP1 SLOAD PUSH1 0xFF NOT AND PUSH1 0x3 OR SWAP1 SSTORE PUSH1 0xC DUP2 ADD DUP1 SLOAD PUSH1 0x4 SWAP2 SWAP1 DUP6 SWAP1 DUP2 LT PUSH2 0x155F JUMPI PUSH2 0x155F PUSH2 0x3B8B JUMP JUMPDEST PUSH1 0x0 SWAP2 DUP3 MSTORE PUSH1 0x20 SWAP1 SWAP2 KECCAK256 PUSH1 0x9 PUSH1 0xB SWAP1 SWAP3 MUL ADD ADD DUP1 SLOAD PUSH1 0xFF NOT AND PUSH1 0x1 DUP4 PUSH1 0x7 DUP2 GT ISZERO PUSH2 0x158C JUMPI PUSH2 0x158C PUSH2 0x3B75 JUMP JUMPDEST MUL OR SWAP1 SSTORE POP TIMESTAMP DUP2 PUSH1 0xC ADD DUP5 DUP2 SLOAD DUP2 LT PUSH2 0x15A7 JUMPI PUSH2 0x15A7 PUSH2 0x3B8B JUMP JUMPDEST PUSH1 0x0 SWAP2 DUP3 MSTORE PUSH1 0x20 DUP1 DUP4 KECCAK256 PUSH1 0xA PUSH1 0xB SWAP1 SWAP4 MUL ADD SWAP2 SWAP1 SWAP2 ADD SWAP3 SWAP1 SWAP3 SSTORE PUSH1 0x1 PUSH1 0x1 PUSH1 0xA0 SHL SUB DUP7 AND DUP2 MSTORE PUSH1 0x10 DUP4 ADD DUP3 MSTORE PUSH1 0x40 DUP1 DUP3 KECCAK256 DUP7 DUP4 MSTORE PUSH1 0x1 SWAP1 DUP2 ADD DUP5 MSTORE SWAP2 KECCAK256 DUP5 MLOAD PUSH2 0x15F8 SWAP4 SWAP2 SWAP1 SWAP3 ADD SWAP2 SWAP1 DUP6 ADD SWAP1 PUSH2 0x2AD4 JUMP JUMPDEST POP PUSH1 0x1 PUSH1 0x1 PUSH1 0xA0 SHL SUB SWAP4 SWAP1 SWAP4 AND PUSH1 0x0 SWAP1 DUP2 MSTORE PUSH1 0x10 SWAP1 SWAP4 ADD PUSH1 0x20 SWAP1 DUP2 MSTORE PUSH1 0x40 DUP1 DUP6 KECCAK256 SWAP4 DUP6 MSTORE PUSH1 0x1 SWAP4 DUP5 ADD SWAP1 SWAP2 MSTORE SWAP1 SWAP3 KECCAK256 DUP1 SLOAD PUSH1 0xFF NOT AND SWAP1 SWAP2 OR SWAP1 SSTORE POP POP POP JUMP JUMPDEST PUSH1 0x0 DUP4 DUP2 MSTORE PUSH1 0x20 DUP2 DUP2 MSTORE PUSH1 0x40 DUP1 DUP4 KECCAK256 PUSH1 0x1 PUSH1 0x1 PUSH1 0xA0 SHL SUB DUP6 AND DUP5 MSTORE PUSH1 0xF ADD SWAP1 SWAP2 MSTORE SWAP1 KECCAK256 DUP1 SLOAD PUSH2 0x1699 JUMPI PUSH1 0x0 DUP5 DUP2 MSTORE PUSH1 0x20 DUP2 DUP2 MSTORE PUSH1 0x40 DUP3 KECCAK256 PUSH1 0xD ADD DUP1 SLOAD PUSH1 0x1 DUP2 ADD DUP3 SSTORE SWAP1 DUP4 MSTORE SWAP2 KECCAK256 ADD DUP1 SLOAD PUSH1 0x1 PUSH1 0x1 PUSH1 0xA0 SHL SUB NOT AND PUSH1 0x1 PUSH1 0x1 PUSH1 0xA0 SHL SUB DUP5 AND OR SWAP1 SSTORE JUMPDEST PUSH1 0x0 DUP5 DUP2 MSTORE PUSH1 0x20 DUP2 SWAP1 MSTORE PUSH1 0x40 SWAP1 KECCAK256 PUSH1 0xA ADD SLOAD PUSH2 0x100 SWAP1 DIV PUSH1 0xFF AND ISZERO PUSH2 0x1817 JUMPI PUSH1 0x0 DUP1 JUMPDEST DUP5 MLOAD DUP2 LT ISZERO PUSH2 0x1810 JUMPI PUSH1 0x1 PUSH1 0x0 DUP1 DUP9 DUP2 MSTORE PUSH1 0x20 ADD SWAP1 DUP2 MSTORE PUSH1 0x20 ADD PUSH1 0x0 KECCAK256 PUSH1 0xC ADD DUP7 DUP4 DUP2 MLOAD DUP2 LT PUSH2 0x16EE JUMPI PUSH2 0x16EE PUSH2 0x3B8B JUMP JUMPDEST PUSH1 0x20 MUL PUSH1 0x20 ADD ADD MLOAD DUP2 SLOAD DUP2 LT PUSH2 0x1706 JUMPI PUSH2 0x1706 PUSH2 0x3B8B JUMP JUMPDEST PUSH1 0x0 SWAP2 DUP3 MSTORE PUSH1 0x20 SWAP1 SWAP2 KECCAK256 PUSH1 0x9 PUSH1 0xB SWAP1 SWAP3 MUL ADD ADD DUP1 SLOAD PUSH1 0xFF NOT AND PUSH1 0x1 DUP4 PUSH1 0x7 DUP2 GT ISZERO PUSH2 0x1733 JUMPI PUSH2 0x1733 PUSH2 0x3B75 JUMP JUMPDEST MUL OR SWAP1 SSTORE POP PUSH1 0x0 DUP1 DUP8 DUP2 MSTORE PUSH1 0x20 ADD SWAP1 DUP2 MSTORE PUSH1 0x20 ADD PUSH1 0x0 KECCAK256 PUSH1 0xC ADD DUP6 DUP3 DUP2 MLOAD DUP2 LT PUSH2 0x175F JUMPI PUSH2 0x175F PUSH2 0x3B8B JUMP JUMPDEST PUSH1 0x20 MUL PUSH1 0x20 ADD ADD MLOAD DUP2 SLOAD DUP2 LT PUSH2 0x1777 JUMPI PUSH2 0x1777 PUSH2 0x3B8B JUMP JUMPDEST SWAP1 PUSH1 0x0 MSTORE PUSH1 0x20 PUSH1 0x0 KECCAK256 SWAP1 PUSH1 0xB MUL ADD PUSH1 0x7 ADD SLOAD SWAP2 POP PUSH2 0x1794 DUP3 PUSH2 0x2A8E JUMP JUMPDEST DUP4 PUSH1 0x1 ADD PUSH1 0x0 DUP8 DUP5 DUP2 MLOAD DUP2 LT PUSH2 0x17AC JUMPI PUSH2 0x17AC PUSH2 0x3B8B JUMP JUMPDEST PUSH1 0x20 MUL PUSH1 0x20 ADD ADD MLOAD DUP2 MSTORE PUSH1 0x20 ADD SWAP1 DUP2 MSTORE PUSH1 0x20 ADD PUSH1 0x0 KECCAK256 PUSH1 0x2 ADD DUP2 SWAP1 SSTORE POP DUP3 PUSH1 0x0 ADD DUP6 DUP3 DUP2 MLOAD DUP2 LT PUSH2 0x17DF JUMPI PUSH2 0x17DF PUSH2 0x3B8B JUMP JUMPDEST PUSH1 0x20 SWAP1 DUP2 MUL SWAP2 SWAP1 SWAP2 ADD DUP2 ADD MLOAD DUP3 SLOAD PUSH1 0x1 DUP2 ADD DUP5 SSTORE PUSH1 0x0 SWAP4 DUP5 MSTORE SWAP2 SWAP1 SWAP3 KECCAK256 ADD SSTORE DUP1 PUSH2 0x1808 DUP2 PUSH2 0x3B44 JUMP JUMPDEST SWAP2 POP POP PUSH2 0x16BC JUMP JUMPDEST POP POP PUSH2 0x18E1 JUMP JUMPDEST PUSH1 0x0 JUMPDEST DUP4 MLOAD DUP2 LT ISZERO PUSH2 0x18DF JUMPI DUP2 PUSH1 0x0 ADD DUP5 DUP3 DUP2 MLOAD DUP2 LT PUSH2 0x1839 JUMPI PUSH2 0x1839 PUSH2 0x3B8B JUMP JUMPDEST PUSH1 0x20 SWAP1 DUP2 MUL SWAP2 SWAP1 SWAP2 ADD DUP2 ADD MLOAD DUP3 SLOAD PUSH1 0x1 DUP2 DUP2 ADD DUP6 SSTORE PUSH1 0x0 SWAP5 DUP6 MSTORE DUP4 DUP6 KECCAK256 SWAP1 SWAP2 ADD SWAP2 SWAP1 SWAP2 SSTORE DUP8 DUP4 MSTORE SWAP1 DUP3 SWAP1 MSTORE PUSH1 0x40 SWAP1 SWAP2 KECCAK256 DUP6 MLOAD PUSH1 0xC SWAP1 SWAP2 ADD SWAP1 DUP7 SWAP1 DUP5 SWAP1 DUP2 LT PUSH2 0x1883 JUMPI PUSH2 0x1883 PUSH2 0x3B8B JUMP JUMPDEST PUSH1 0x20 MUL PUSH1 0x20 ADD ADD MLOAD DUP2 SLOAD DUP2 LT PUSH2 0x189B JUMPI PUSH2 0x189B PUSH2 0x3B8B JUMP JUMPDEST PUSH1 0x0 SWAP2 DUP3 MSTORE PUSH1 0x20 SWAP1 SWAP2 KECCAK256 PUSH1 0x9 PUSH1 0xB SWAP1 SWAP3 MUL ADD ADD DUP1 SLOAD PUSH1 0xFF NOT AND PUSH1 0x1 DUP4 PUSH1 0x7 DUP2 GT ISZERO PUSH2 0x18C8 JUMPI PUSH2 0x18C8 PUSH2 0x3B75 JUMP JUMPDEST MUL OR SWAP1 SSTORE POP DUP1 PUSH2 0x18D7 DUP2 PUSH2 0x3B44 JUMP JUMPDEST SWAP2 POP POP PUSH2 0x181A JUMP JUMPDEST POP JUMPDEST PUSH1 0x0 DUP5 DUP2 MSTORE PUSH1 0x20 DUP2 SWAP1 MSTORE PUSH1 0x40 DUP2 KECCAK256 PUSH1 0x13 ADD DUP1 SLOAD SWAP2 PUSH2 0x18FE DUP4 PUSH2 0x3B44 JUMP JUMPDEST SWAP2 SWAP1 POP SSTORE POP PUSH2 0x190E DUP5 PUSH1 0x1 PUSH2 0x1D09 JUMP JUMPDEST ISZERO PUSH2 0x880 JUMPI POP POP POP PUSH1 0x0 SWAP1 DUP2 MSTORE PUSH1 0x20 DUP2 SWAP1 MSTORE PUSH1 0x40 SWAP1 KECCAK256 PUSH1 0x15 ADD DUP1 SLOAD PUSH1 0xFF NOT AND SWAP1 SSTORE JUMP JUMPDEST PUSH1 0x0 DUP3 DUP2 MSTORE PUSH1 0x20 DUP2 SWAP1 MSTORE PUSH1 0x40 DUP2 KECCAK256 PUSH1 0xC ADD DUP1 SLOAD DUP4 SWAP1 DUP2 LT PUSH2 0x1954 JUMPI PUSH2 0x1954 PUSH2 0x3B8B JUMP JUMPDEST SWAP1 PUSH1 0x0 MSTORE PUSH1 0x20 PUSH1 0x0 KECCAK256 SWAP1 PUSH1 0xB MUL ADD PUSH1 0x7 ADD SLOAD SWAP1 POP SWAP3 SWAP2 POP POP JUMP JUMPDEST DUP1 ISZERO PUSH2 0x19C0 JUMPI PUSH1 0x0 DUP6 DUP2 MSTORE PUSH1 0x20 DUP2 DUP2 MSTORE PUSH1 0x40 DUP1 DUP4 KECCAK256 PUSH1 0x1 PUSH1 0x1 PUSH1 0xA0 SHL SUB DUP9 AND DUP5 MSTORE PUSH1 0xF ADD DUP3 MSTORE DUP1 DUP4 KECCAK256 DUP7 DUP5 MSTORE PUSH1 0x1 ADD SWAP1 SWAP2 MSTORE DUP2 KECCAK256 PUSH1 0x2 ADD DUP1 SLOAD DUP5 SWAP3 SWAP1 PUSH2 0x19B5 SWAP1 DUP5 SWAP1 PUSH2 0x3AF2 JUMP JUMPDEST SWAP1 SWAP2 SSTORE POP PUSH2 0x1487 SWAP1 POP JUMP JUMPDEST PUSH1 0x0 DUP6 DUP2 MSTORE PUSH1 0x20 DUP2 DUP2 MSTORE PUSH1 0x40 DUP1 DUP4 KECCAK256 PUSH1 0x1 PUSH1 0x1 PUSH1 0xA0 SHL SUB DUP9 AND DUP5 MSTORE PUSH1 0x10 ADD DUP3 MSTORE DUP1 DUP4 KECCAK256 DUP7 DUP5 MSTORE PUSH1 0x1 ADD SWAP1 SWAP2 MSTORE DUP2 KECCAK256 PUSH1 0x2 ADD DUP1 SLOAD DUP5 SWAP3 SWAP1 PUSH2 0x1A01 SWAP1 DUP5 SWAP1 PUSH2 0x3AF2 JUMP JUMPDEST SWAP1 SWAP2 SSTORE POP POP POP POP POP POP POP JUMP JUMPDEST PUSH1 0x1 DUP1 SLOAD PUSH1 0x0 SWAP2 DUP3 PUSH2 0x1A1E DUP4 PUSH2 0x3B44 JUMP JUMPDEST SWAP1 SWAP2 SSTORE POP POP PUSH1 0x1 DUP1 SLOAD PUSH1 0x0 SWAP1 DUP2 MSTORE PUSH1 0x20 DUP2 DUP2 MSTORE PUSH1 0x40 SWAP1 SWAP2 KECCAK256 DUP1 SLOAD PUSH1 0x1 PUSH1 0x1 PUSH1 0xA0 SHL SUB NOT AND CALLER OR DUP2 SSTORE DUP5 MLOAD SWAP3 DUP2 ADD SWAP3 SWAP1 SWAP3 SSTORE DUP4 DUP2 ADD MLOAD DUP1 MLOAD PUSH2 0x1A65 SWAP3 PUSH1 0x2 DUP6 ADD SWAP3 ADD SWAP1 PUSH2 0x2AD4 JUMP JUMPDEST POP PUSH1 0x40 DUP4 ADD MLOAD DUP1 MLOAD PUSH2 0x1A81 SWAP2 PUSH1 0x3 DUP5 ADD SWAP2 PUSH1 0x20 SWAP1 SWAP2 ADD SWAP1 PUSH2 0x2AD4 JUMP JUMPDEST POP PUSH1 0x60 DUP4 ADD MLOAD PUSH1 0x4 DUP3 ADD SSTORE PUSH1 0x80 DUP4 ADD MLOAD PUSH1 0x5 DUP3 ADD SSTORE PUSH1 0xA0 DUP4 ADD MLOAD PUSH1 0x6 DUP3 ADD SSTORE PUSH1 0xC0 DUP4 ADD MLOAD DUP1 MLOAD PUSH2 0x1ABB SWAP2 PUSH1 0x7 DUP5 ADD SWAP2 PUSH1 0x20 SWAP1 SWAP2 ADD SWAP1 PUSH2 0x2B58 JUMP JUMPDEST POP PUSH1 0xE0 DUP4 ADD MLOAD PUSH1 0x8 DUP3 ADD SSTORE PUSH2 0x100 DUP1 DUP5 ADD MLOAD PUSH1 0x9 DUP4 ADD SSTORE PUSH2 0x160 DUP5 ADD MLOAD PUSH1 0xB DUP4 ADD SSTORE PUSH2 0x120 DUP5 ADD MLOAD PUSH1 0xA DUP4 ADD DUP1 SLOAD PUSH2 0x140 DUP8 ADD MLOAD ISZERO DUP1 ISZERO SWAP1 SWAP5 MUL PUSH2 0xFF00 NOT SWAP4 ISZERO ISZERO SWAP4 SWAP1 SWAP4 AND PUSH2 0xFFFF NOT SWAP1 SWAP2 AND OR SWAP2 SWAP1 SWAP2 OR SWAP1 SSTORE PUSH2 0x1B2A JUMPI PUSH2 0x180 DUP4 ADD MLOAD MLOAD PUSH1 0x11 DUP3 ADD DUP2 SWAP1 SSTORE PUSH1 0x12 DUP3 ADD SSTORE PUSH2 0x1B39 JUMP JUMPDEST PUSH1 0x1 PUSH1 0x11 DUP3 ADD DUP2 SWAP1 SSTORE PUSH1 0x12 DUP3 ADD SSTORE JUMPDEST PUSH1 0x15 DUP2 ADD DUP1 SLOAD PUSH3 0xFFFFFF NOT AND PUSH3 0x10101 OR SWAP1 SSTORE PUSH1 0x0 JUMPDEST DUP4 PUSH2 0x180 ADD MLOAD MLOAD DUP2 LT ISZERO PUSH2 0x1C6E JUMPI DUP2 PUSH1 0xC ADD DUP5 PUSH2 0x180 ADD MLOAD DUP3 DUP2 MLOAD DUP2 LT PUSH2 0x1B78 JUMPI PUSH2 0x1B78 PUSH2 0x3B8B JUMP JUMPDEST PUSH1 0x20 SWAP1 DUP2 MUL SWAP2 SWAP1 SWAP2 ADD DUP2 ADD MLOAD DUP3 SLOAD PUSH1 0x1 DUP2 ADD DUP5 SSTORE PUSH1 0x0 SWAP4 DUP5 MSTORE SWAP3 DUP3 SWAP1 KECCAK256 DUP2 MLOAD DUP1 MLOAD DUP1 MLOAD SWAP4 SWAP6 PUSH1 0xB MUL SWAP1 SWAP3 ADD SWAP4 SWAP1 SWAP3 DUP5 SWAP3 PUSH2 0x1BB6 SWAP3 DUP5 SWAP3 SWAP2 ADD SWAP1 PUSH2 0x2AD4 JUMP JUMPDEST POP PUSH1 0x20 DUP3 DUP2 ADD MLOAD PUSH1 0x1 DUP4 ADD SSTORE PUSH1 0x40 DUP4 ADD MLOAD PUSH1 0x2 DUP4 ADD SSTORE PUSH1 0x60 DUP4 ADD MLOAD PUSH1 0x3 DUP4 ADD SSTORE PUSH1 0x80 DUP4 ADD MLOAD PUSH1 0x4 DUP4 ADD SSTORE PUSH1 0xA0 DUP4 ADD MLOAD PUSH1 0x5 DUP4 ADD SSTORE PUSH1 0xC0 DUP4 ADD MLOAD DUP1 MLOAD PUSH2 0x1C01 SWAP3 PUSH1 0x6 DUP6 ADD SWAP3 ADD SWAP1 PUSH2 0x2AD4 JUMP JUMPDEST POP POP POP PUSH1 0x20 DUP3 DUP2 ADD MLOAD PUSH1 0x7 DUP4 ADD SSTORE PUSH1 0x40 DUP4 ADD MLOAD DUP1 MLOAD PUSH2 0x1C26 SWAP3 PUSH1 0x8 DUP6 ADD SWAP3 ADD SWAP1 PUSH2 0x2AD4 JUMP JUMPDEST POP PUSH1 0x60 DUP3 ADD MLOAD PUSH1 0x9 DUP3 ADD DUP1 SLOAD PUSH1 0xFF NOT AND PUSH1 0x1 DUP4 PUSH1 0x7 DUP2 GT ISZERO PUSH2 0x1C4A JUMPI PUSH2 0x1C4A PUSH2 0x3B75 JUMP JUMPDEST MUL OR SWAP1 SSTORE POP PUSH1 0x80 DUP3 ADD MLOAD DUP2 PUSH1 0xA ADD SSTORE POP POP DUP1 DUP1 PUSH2 0x1C66 SWAP1 PUSH2 0x3B44 JUMP JUMPDEST SWAP2 POP POP PUSH2 0x1B4F JUMP JUMPDEST POP POP PUSH1 0x1 SLOAD SWAP3 SWAP2 POP POP JUMP JUMPDEST PUSH1 0x0 DUP4 DUP2 MSTORE PUSH1 0x20 DUP2 DUP2 MSTORE PUSH1 0x40 DUP1 DUP4 KECCAK256 PUSH1 0x1 PUSH1 0x1 PUSH1 0xA0 SHL SUB DUP7 AND DUP5 MSTORE PUSH1 0x10 DUP2 ADD DUP4 MSTORE DUP2 DUP5 KECCAK256 DUP6 DUP6 MSTORE PUSH1 0x1 ADD DUP4 MSTORE SWAP1 DUP4 KECCAK256 DUP1 SLOAD PUSH1 0xFF NOT AND PUSH1 0x3 OR SWAP1 SSTORE DUP6 DUP4 MSTORE SWAP2 SWAP1 MSTORE PUSH1 0xC ADD DUP1 SLOAD PUSH1 0x6 SWAP2 SWAP1 DUP4 SWAP1 DUP2 LT PUSH2 0x1CD2 JUMPI PUSH2 0x1CD2 PUSH2 0x3B8B JUMP JUMPDEST PUSH1 0x0 SWAP2 DUP3 MSTORE PUSH1 0x20 SWAP1 SWAP2 KECCAK256 PUSH1 0x9 PUSH1 0xB SWAP1 SWAP3 MUL ADD ADD DUP1 SLOAD PUSH1 0xFF NOT AND PUSH1 0x1 DUP4 PUSH1 0x7 DUP2 GT ISZERO PUSH2 0x1CFF JUMPI PUSH2 0x1CFF PUSH2 0x3B75 JUMP JUMPDEST MUL OR SWAP1 SSTORE POP POP POP POP JUMP JUMPDEST PUSH1 0x0 DUP2 ISZERO PUSH2 0x1D32 JUMPI POP PUSH1 0x0 DUP3 DUP2 MSTORE PUSH1 0x20 DUP2 SWAP1 MSTORE PUSH1 0x40 SWAP1 KECCAK256 PUSH1 0x13 DUP2 ADD SLOAD PUSH1 0x11 SWAP1 SWAP2 ADD SLOAD GT ISZERO PUSH2 0x63B JUMP JUMPDEST POP PUSH1 0x0 DUP3 DUP2 MSTORE PUSH1 0x20 DUP2 SWAP1 MSTORE PUSH1 0x40 SWAP1 KECCAK256 PUSH1 0x14 DUP2 ADD SLOAD PUSH1 0x12 SWAP1 SWAP2 ADD SLOAD GT ISZERO PUSH2 0x63B JUMP JUMPDEST PUSH1 0x60 PUSH1 0x0 PUSH1 0x60 DUP1 PUSH1 0x0 DUP1 DUP7 ISZERO PUSH2 0x1DD5 JUMPI PUSH1 0x0 DUP10 DUP2 MSTORE PUSH1 0x20 DUP2 DUP2 MSTORE PUSH1 0x40 DUP1 DUP4 KECCAK256 PUSH1 0x1 PUSH1 0x1 PUSH1 0xA0 SHL SUB DUP13 AND DUP5 MSTORE PUSH1 0xF ADD DUP3 MSTORE SWAP2 DUP3 SWAP1 KECCAK256 DUP1 SLOAD DUP4 MLOAD DUP2 DUP5 MUL DUP2 ADD DUP5 ADD SWAP1 SWAP5 MSTORE DUP1 DUP5 MSTORE SWAP1 SWAP2 DUP4 ADD DUP3 DUP3 DUP1 ISZERO PUSH2 0x1DC9 JUMPI PUSH1 0x20 MUL DUP3 ADD SWAP2 SWAP1 PUSH1 0x0 MSTORE PUSH1 0x20 PUSH1 0x0 KECCAK256 SWAP1 JUMPDEST DUP2 SLOAD DUP2 MSTORE PUSH1 0x20 ADD SWAP1 PUSH1 0x1 ADD SWAP1 DUP1 DUP4 GT PUSH2 0x1DB5 JUMPI JUMPDEST POP POP POP POP POP SWAP4 POP PUSH2 0x1E43 JUMP JUMPDEST PUSH1 0x0 DUP10 DUP2 MSTORE PUSH1 0x20 DUP2 DUP2 MSTORE PUSH1 0x40 DUP1 DUP4 KECCAK256 PUSH1 0x1 PUSH1 0x1 PUSH1 0xA0 SHL SUB DUP13 AND DUP5 MSTORE PUSH1 0x10 ADD DUP3 MSTORE SWAP2 DUP3 SWAP1 KECCAK256 DUP1 SLOAD DUP4 MLOAD DUP2 DUP5 MUL DUP2 ADD DUP5 ADD SWAP1 SWAP5 MSTORE DUP1 DUP5 MSTORE SWAP1 SWAP2 DUP4 ADD DUP3 DUP3 DUP1 ISZERO PUSH2 0x1E3B JUMPI PUSH1 0x20 MUL DUP3 ADD SWAP2 SWAP1 PUSH1 0x0 MSTORE PUSH1 0x20 PUSH1 0x0 KECCAK256 SWAP1 JUMPDEST DUP2 SLOAD DUP2 MSTORE PUSH1 0x20 ADD SWAP1 PUSH1 0x1 ADD SWAP1 DUP1 DUP4 GT PUSH2 0x1E27 JUMPI JUMPDEST POP POP POP POP POP SWAP4 POP JUMPDEST PUSH2 0x1E4B PUSH2 0x2C92 JUMP JUMPDEST PUSH1 0x0 JUMPDEST DUP6 MLOAD DUP2 LT ISZERO PUSH2 0x205F JUMPI PUSH1 0x0 DUP12 DUP2 MSTORE PUSH1 0x20 DUP2 DUP2 MSTORE PUSH1 0x40 DUP1 DUP4 KECCAK256 PUSH1 0x1 PUSH1 0x1 PUSH1 0xA0 SHL SUB DUP15 AND DUP5 MSTORE PUSH1 0xF ADD SWAP1 SWAP2 MSTORE DUP2 KECCAK256 DUP8 MLOAD PUSH1 0x1 SWAP1 SWAP2 ADD SWAP2 SWAP1 DUP9 SWAP1 DUP5 SWAP1 DUP2 LT PUSH2 0x1E95 JUMPI PUSH2 0x1E95 PUSH2 0x3B8B JUMP JUMPDEST PUSH1 0x20 MUL PUSH1 0x20 ADD ADD MLOAD DUP2 MSTORE PUSH1 0x20 ADD SWAP1 DUP2 MSTORE PUSH1 0x20 ADD PUSH1 0x0 KECCAK256 PUSH1 0x40 MLOAD DUP1 PUSH1 0x60 ADD PUSH1 0x40 MSTORE SWAP1 DUP2 PUSH1 0x0 DUP3 ADD PUSH1 0x0 SWAP1 SLOAD SWAP1 PUSH2 0x100 EXP SWAP1 DIV PUSH1 0xFF AND PUSH1 0x4 DUP2 GT ISZERO PUSH2 0x1EDA JUMPI PUSH2 0x1EDA PUSH2 0x3B75 JUMP JUMPDEST PUSH1 0x4 DUP2 GT ISZERO PUSH2 0x1EEB JUMPI PUSH2 0x1EEB PUSH2 0x3B75 JUMP JUMPDEST DUP2 MSTORE PUSH1 0x20 ADD PUSH1 0x1 DUP3 ADD DUP1 SLOAD PUSH2 0x1EFF SWAP1 PUSH2 0x3B09 JUMP JUMPDEST DUP1 PUSH1 0x1F ADD PUSH1 0x20 DUP1 SWAP2 DIV MUL PUSH1 0x20 ADD PUSH1 0x40 MLOAD SWAP1 DUP2 ADD PUSH1 0x40 MSTORE DUP1 SWAP3 SWAP2 SWAP1 DUP2 DUP2 MSTORE PUSH1 0x20 ADD DUP3 DUP1 SLOAD PUSH2 0x1F2B SWAP1 PUSH2 0x3B09 JUMP JUMPDEST DUP1 ISZERO PUSH2 0x1F78 JUMPI DUP1 PUSH1 0x1F LT PUSH2 0x1F4D JUMPI PUSH2 0x100 DUP1 DUP4 SLOAD DIV MUL DUP4 MSTORE SWAP2 PUSH1 0x20 ADD SWAP2 PUSH2 0x1F78 JUMP JUMPDEST DUP3 ADD SWAP2 SWAP1 PUSH1 0x0 MSTORE PUSH1 0x20 PUSH1 0x0 KECCAK256 SWAP1 JUMPDEST DUP2 SLOAD DUP2 MSTORE SWAP1 PUSH1 0x1 ADD SWAP1 PUSH1 0x20 ADD DUP1 DUP4 GT PUSH2 0x1F5B JUMPI DUP3 SWAP1 SUB PUSH1 0x1F AND DUP3 ADD SWAP2 JUMPDEST POP POP POP SWAP2 DUP4 MSTORE POP POP PUSH1 0x2 SWAP2 SWAP1 SWAP2 ADD SLOAD PUSH1 0x20 SWAP1 SWAP2 ADD MSTORE SWAP2 POP PUSH1 0x1 DUP3 MLOAD PUSH1 0x4 DUP2 GT ISZERO PUSH2 0x1FA4 JUMPI PUSH2 0x1FA4 PUSH2 0x3B75 JUMP JUMPDEST LT ISZERO PUSH2 0x204D JUMPI DUP6 DUP2 DUP2 MLOAD DUP2 LT PUSH2 0x1FBC JUMPI PUSH2 0x1FBC PUSH2 0x3B8B JUMP JUMPDEST PUSH1 0x20 MUL PUSH1 0x20 ADD ADD MLOAD DUP6 DUP5 DUP2 MLOAD DUP2 LT PUSH2 0x1FD6 JUMPI PUSH2 0x1FD6 PUSH2 0x3B8B JUMP JUMPDEST PUSH1 0x20 SWAP1 DUP2 MUL SWAP2 SWAP1 SWAP2 ADD ADD MSTORE DUP3 PUSH2 0x1FEB DUP2 PUSH2 0x3B44 JUMP JUMPDEST SWAP4 POP POP PUSH1 0x0 DUP1 DUP13 DUP2 MSTORE PUSH1 0x20 ADD SWAP1 DUP2 MSTORE PUSH1 0x20 ADD PUSH1 0x0 KECCAK256 PUSH1 0xC ADD DUP7 DUP3 DUP2 MLOAD DUP2 LT PUSH2 0x2015 JUMPI PUSH2 0x2015 PUSH2 0x3B8B JUMP JUMPDEST PUSH1 0x20 MUL PUSH1 0x20 ADD ADD MLOAD DUP2 SLOAD DUP2 LT PUSH2 0x202D JUMPI PUSH2 0x202D PUSH2 0x3B8B JUMP JUMPDEST SWAP1 PUSH1 0x0 MSTORE PUSH1 0x20 PUSH1 0x0 KECCAK256 SWAP1 PUSH1 0xB MUL ADD PUSH1 0x7 ADD SLOAD DUP5 PUSH2 0x204A SWAP2 SWAP1 PUSH2 0x3A99 JUMP JUMPDEST SWAP4 POP JUMPDEST DUP1 PUSH2 0x2057 DUP2 PUSH2 0x3B44 JUMP JUMPDEST SWAP2 POP POP PUSH2 0x1E4E JUMP JUMPDEST POP SWAP3 SWAP10 SWAP2 SWAP9 POP SWAP1 SWAP7 POP POP POP POP POP POP POP JUMP JUMPDEST DUP1 ISZERO PUSH2 0x2113 JUMPI PUSH1 0x0 JUMPDEST DUP4 MLOAD DUP2 LT ISZERO PUSH2 0x210D JUMPI PUSH1 0x0 DUP7 DUP2 MSTORE PUSH1 0x20 DUP2 DUP2 MSTORE PUSH1 0x40 DUP1 DUP4 KECCAK256 PUSH1 0x1 PUSH1 0x1 PUSH1 0xA0 SHL SUB DUP10 AND DUP5 MSTORE PUSH1 0xF ADD SWAP1 SWAP2 MSTORE DUP2 KECCAK256 DUP6 MLOAD DUP6 SWAP3 PUSH1 0x1 SWAP1 SWAP3 ADD SWAP2 SWAP1 DUP8 SWAP1 DUP6 SWAP1 DUP2 LT PUSH2 0x20C2 JUMPI PUSH2 0x20C2 PUSH2 0x3B8B JUMP JUMPDEST PUSH1 0x20 SWAP1 DUP2 MUL SWAP2 SWAP1 SWAP2 ADD DUP2 ADD MLOAD DUP3 MSTORE DUP2 ADD SWAP2 SWAP1 SWAP2 MSTORE PUSH1 0x40 ADD PUSH1 0x0 KECCAK256 DUP1 SLOAD PUSH1 0xFF NOT AND PUSH1 0x1 DUP4 PUSH1 0x4 DUP2 GT ISZERO PUSH2 0x20F6 JUMPI PUSH2 0x20F6 PUSH2 0x3B75 JUMP JUMPDEST MUL OR SWAP1 SSTORE POP DUP1 PUSH2 0x2105 DUP2 PUSH2 0x3B44 JUMP JUMPDEST SWAP2 POP POP PUSH2 0x2079 JUMP JUMPDEST POP PUSH2 0x1487 JUMP JUMPDEST PUSH1 0x0 JUMPDEST DUP4 MLOAD DUP2 LT ISZERO PUSH2 0x21AA JUMPI PUSH1 0x0 DUP7 DUP2 MSTORE PUSH1 0x20 DUP2 DUP2 MSTORE PUSH1 0x40 DUP1 DUP4 KECCAK256 PUSH1 0x1 PUSH1 0x1 PUSH1 0xA0 SHL SUB DUP10 AND DUP5 MSTORE PUSH1 0x10 ADD SWAP1 SWAP2 MSTORE DUP2 KECCAK256 DUP6 MLOAD DUP6 SWAP3 PUSH1 0x1 SWAP1 SWAP3 ADD SWAP2 SWAP1 DUP8 SWAP1 DUP6 SWAP1 DUP2 LT PUSH2 0x215F JUMPI PUSH2 0x215F PUSH2 0x3B8B JUMP JUMPDEST PUSH1 0x20 SWAP1 DUP2 MUL SWAP2 SWAP1 SWAP2 ADD DUP2 ADD MLOAD DUP3 MSTORE DUP2 ADD SWAP2 SWAP1 SWAP2 MSTORE PUSH1 0x40 ADD PUSH1 0x0 KECCAK256 DUP1 SLOAD PUSH1 0xFF NOT AND PUSH1 0x1 DUP4 PUSH1 0x4 DUP2 GT ISZERO PUSH2 0x2193 JUMPI PUSH2 0x2193 PUSH2 0x3B75 JUMP JUMPDEST MUL OR SWAP1 SSTORE POP DUP1 PUSH2 0x21A2 DUP2 PUSH2 0x3B44 JUMP JUMPDEST SWAP2 POP POP PUSH2 0x2116 JUMP JUMPDEST POP POP POP POP POP POP JUMP JUMPDEST DUP1 ISZERO PUSH2 0x2248 JUMPI PUSH1 0x0 DUP5 DUP2 MSTORE PUSH1 0x20 DUP2 DUP2 MSTORE PUSH1 0x40 DUP1 DUP4 KECCAK256 PUSH1 0x1 PUSH1 0x1 PUSH1 0xA0 SHL SUB DUP8 AND DUP5 MSTORE PUSH1 0xF DUP2 ADD DUP4 MSTORE DUP2 DUP5 KECCAK256 DUP7 DUP6 MSTORE PUSH1 0x1 ADD DUP4 MSTORE SWAP1 DUP4 KECCAK256 DUP1 SLOAD PUSH1 0xFF NOT AND PUSH1 0x2 OR SWAP1 SSTORE DUP7 DUP4 MSTORE SWAP2 SWAP1 MSTORE PUSH1 0xC ADD DUP1 SLOAD PUSH1 0x3 SWAP2 SWAP1 DUP5 SWAP1 DUP2 LT PUSH2 0x2211 JUMPI PUSH2 0x2211 PUSH2 0x3B8B JUMP JUMPDEST PUSH1 0x0 SWAP2 DUP3 MSTORE PUSH1 0x20 SWAP1 SWAP2 KECCAK256 PUSH1 0x9 PUSH1 0xB SWAP1 SWAP3 MUL ADD ADD DUP1 SLOAD PUSH1 0xFF NOT AND PUSH1 0x1 DUP4 PUSH1 0x7 DUP2 GT ISZERO PUSH2 0x223E JUMPI PUSH2 0x223E PUSH2 0x3B75 JUMP JUMPDEST MUL OR SWAP1 SSTORE POP PUSH2 0x880 JUMP JUMPDEST PUSH1 0x0 DUP5 DUP2 MSTORE PUSH1 0x20 DUP2 DUP2 MSTORE PUSH1 0x40 DUP1 DUP4 KECCAK256 PUSH1 0x1 PUSH1 0x1 PUSH1 0xA0 SHL SUB DUP8 AND DUP5 MSTORE PUSH1 0x10 DUP2 ADD DUP4 MSTORE DUP2 DUP5 KECCAK256 DUP7 DUP6 MSTORE PUSH1 0x1 ADD DUP4 MSTORE SWAP1 DUP4 KECCAK256 DUP1 SLOAD PUSH1 0xFF NOT AND PUSH1 0x2 OR SWAP1 SSTORE DUP7 DUP4 MSTORE SWAP2 SWAP1 MSTORE PUSH1 0xC ADD DUP1 SLOAD PUSH1 0x5 SWAP2 SWAP1 DUP5 SWAP1 DUP2 LT PUSH2 0x22A1 JUMPI PUSH2 0x22A1 PUSH2 0x3B8B JUMP JUMPDEST PUSH1 0x0 SWAP2 DUP3 MSTORE PUSH1 0x20 SWAP1 SWAP2 KECCAK256 PUSH1 0x9 PUSH1 0xB SWAP1 SWAP3 MUL ADD ADD DUP1 SLOAD PUSH1 0xFF NOT AND PUSH1 0x1 DUP4 PUSH1 0x7 DUP2 GT ISZERO PUSH2 0x22CE JUMPI PUSH2 0x22CE PUSH2 0x3B75 JUMP JUMPDEST MUL OR SWAP1 SSTORE POP POP POP POP POP JUMP JUMPDEST PUSH1 0x0 DUP2 DUP2 MSTORE PUSH1 0x20 DUP2 DUP2 MSTORE PUSH1 0x40 SWAP2 DUP3 SWAP1 KECCAK256 PUSH1 0xD ADD DUP1 SLOAD DUP4 MLOAD DUP2 DUP5 MUL DUP2 ADD DUP5 ADD SWAP1 SWAP5 MSTORE DUP1 DUP5 MSTORE PUSH1 0x60 SWAP4 SWAP3 DUP4 ADD DUP3 DUP3 DUP1 ISZERO PUSH2 0x233A JUMPI PUSH1 0x20 MUL DUP3 ADD SWAP2 SWAP1 PUSH1 0x0 MSTORE PUSH1 0x20 PUSH1 0x0 KECCAK256 SWAP1 JUMPDEST DUP2 SLOAD PUSH1 0x1 PUSH1 0x1 PUSH1 0xA0 SHL SUB AND DUP2 MSTORE PUSH1 0x1 SWAP1 SWAP2 ADD SWAP1 PUSH1 0x20 ADD DUP1 DUP4 GT PUSH2 0x231C JUMPI JUMPDEST POP POP POP POP POP SWAP1 POP SWAP2 SWAP1 POP JUMP JUMPDEST PUSH1 0x0 DUP4 DUP2 MSTORE PUSH1 0x20 DUP2 DUP2 MSTORE PUSH1 0x40 DUP1 DUP4 KECCAK256 PUSH1 0x1 PUSH1 0x1 PUSH1 0xA0 SHL SUB DUP6 AND DUP5 MSTORE PUSH1 0x10 ADD SWAP1 SWAP2 MSTORE SWAP1 KECCAK256 DUP1 SLOAD PUSH2 0x23A8 JUMPI PUSH1 0x0 DUP5 DUP2 MSTORE PUSH1 0x20 DUP2 DUP2 MSTORE PUSH1 0x40 DUP3 KECCAK256 PUSH1 0xE ADD DUP1 SLOAD PUSH1 0x1 DUP2 ADD DUP3 SSTORE SWAP1 DUP4 MSTORE SWAP2 KECCAK256 ADD DUP1 SLOAD PUSH1 0x1 PUSH1 0x1 PUSH1 0xA0 SHL SUB NOT AND PUSH1 0x1 PUSH1 0x1 PUSH1 0xA0 SHL SUB DUP5 AND OR SWAP1 SSTORE JUMPDEST PUSH1 0x0 DUP5 DUP2 MSTORE PUSH1 0x20 DUP2 SWAP1 MSTORE PUSH1 0x40 SWAP1 KECCAK256 PUSH1 0xA ADD SLOAD PUSH2 0x100 SWAP1 DIV PUSH1 0xFF AND ISZERO PUSH2 0x2526 JUMPI PUSH1 0x0 DUP1 JUMPDEST DUP5 MLOAD DUP2 LT ISZERO PUSH2 0x251F JUMPI PUSH1 0x1 PUSH1 0x0 DUP1 DUP9 DUP2 MSTORE PUSH1 0x20 ADD SWAP1 DUP2 MSTORE PUSH1 0x20 ADD PUSH1 0x0 KECCAK256 PUSH1 0xC ADD DUP7 DUP4 DUP2 MLOAD DUP2 LT PUSH2 0x23FD JUMPI PUSH2 0x23FD PUSH2 0x3B8B JUMP JUMPDEST PUSH1 0x20 MUL PUSH1 0x20 ADD ADD MLOAD DUP2 SLOAD DUP2 LT PUSH2 0x2415 JUMPI PUSH2 0x2415 PUSH2 0x3B8B JUMP JUMPDEST PUSH1 0x0 SWAP2 DUP3 MSTORE PUSH1 0x20 SWAP1 SWAP2 KECCAK256 PUSH1 0x9 PUSH1 0xB SWAP1 SWAP3 MUL ADD ADD DUP1 SLOAD PUSH1 0xFF NOT AND PUSH1 0x1 DUP4 PUSH1 0x7 DUP2 GT ISZERO PUSH2 0x2442 JUMPI PUSH2 0x2442 PUSH2 0x3B75 JUMP JUMPDEST MUL OR SWAP1 SSTORE POP PUSH1 0x0 DUP1 DUP8 DUP2 MSTORE PUSH1 0x20 ADD SWAP1 DUP2 MSTORE PUSH1 0x20 ADD PUSH1 0x0 KECCAK256 PUSH1 0xC ADD DUP6 DUP3 DUP2 MLOAD DUP2 LT PUSH2 0x246E JUMPI PUSH2 0x246E PUSH2 0x3B8B JUMP JUMPDEST PUSH1 0x20 MUL PUSH1 0x20 ADD ADD MLOAD DUP2 SLOAD DUP2 LT PUSH2 0x2486 JUMPI PUSH2 0x2486 PUSH2 0x3B8B JUMP JUMPDEST SWAP1 PUSH1 0x0 MSTORE PUSH1 0x20 PUSH1 0x0 KECCAK256 SWAP1 PUSH1 0xB MUL ADD PUSH1 0x7 ADD SLOAD SWAP2 POP PUSH2 0x24A3 DUP3 PUSH2 0x2A8E JUMP JUMPDEST DUP4 PUSH1 0x1 ADD PUSH1 0x0 DUP8 DUP5 DUP2 MLOAD DUP2 LT PUSH2 0x24BB JUMPI PUSH2 0x24BB PUSH2 0x3B8B JUMP JUMPDEST PUSH1 0x20 MUL PUSH1 0x20 ADD ADD MLOAD DUP2 MSTORE PUSH1 0x20 ADD SWAP1 DUP2 MSTORE PUSH1 0x20 ADD PUSH1 0x0 KECCAK256 PUSH1 0x2 ADD DUP2 SWAP1 SSTORE POP DUP3 PUSH1 0x0 ADD DUP6 DUP3 DUP2 MLOAD DUP2 LT PUSH2 0x24EE JUMPI PUSH2 0x24EE PUSH2 0x3B8B JUMP JUMPDEST PUSH1 0x20 SWAP1 DUP2 MUL SWAP2 SWAP1 SWAP2 ADD DUP2 ADD MLOAD DUP3 SLOAD PUSH1 0x1 DUP2 ADD DUP5 SSTORE PUSH1 0x0 SWAP4 DUP5 MSTORE SWAP2 SWAP1 SWAP3 KECCAK256 ADD SSTORE DUP1 PUSH2 0x2517 DUP2 PUSH2 0x3B44 JUMP JUMPDEST SWAP2 POP POP PUSH2 0x23CB JUMP JUMPDEST POP POP PUSH2 0x25F0 JUMP JUMPDEST PUSH1 0x0 JUMPDEST DUP4 MLOAD DUP2 LT ISZERO PUSH2 0x25EE JUMPI DUP2 PUSH1 0x0 ADD DUP5 DUP3 DUP2 MLOAD DUP2 LT PUSH2 0x2548 JUMPI PUSH2 0x2548 PUSH2 0x3B8B JUMP JUMPDEST PUSH1 0x20 SWAP1 DUP2 MUL SWAP2 SWAP1 SWAP2 ADD DUP2 ADD MLOAD DUP3 SLOAD PUSH1 0x1 DUP2 DUP2 ADD DUP6 SSTORE PUSH1 0x0 SWAP5 DUP6 MSTORE DUP4 DUP6 KECCAK256 SWAP1 SWAP2 ADD SWAP2 SWAP1 SWAP2 SSTORE DUP8 DUP4 MSTORE SWAP1 DUP3 SWAP1 MSTORE PUSH1 0x40 SWAP1 SWAP2 KECCAK256 DUP6 MLOAD PUSH1 0xC SWAP1 SWAP2 ADD SWAP1 DUP7 SWAP1 DUP5 SWAP1 DUP2 LT PUSH2 0x2592 JUMPI PUSH2 0x2592 PUSH2 0x3B8B JUMP JUMPDEST PUSH1 0x20 MUL PUSH1 0x20 ADD ADD MLOAD DUP2 SLOAD DUP2 LT PUSH2 0x25AA JUMPI PUSH2 0x25AA PUSH2 0x3B8B JUMP JUMPDEST PUSH1 0x0 SWAP2 DUP3 MSTORE PUSH1 0x20 SWAP1 SWAP2 KECCAK256 PUSH1 0x9 PUSH1 0xB SWAP1 SWAP3 MUL ADD ADD DUP1 SLOAD PUSH1 0xFF NOT AND PUSH1 0x1 DUP4 PUSH1 0x7 DUP2 GT ISZERO PUSH2 0x25D7 JUMPI PUSH2 0x25D7 PUSH2 0x3B75 JUMP JUMPDEST MUL OR SWAP1 SSTORE POP DUP1 PUSH2 0x25E6 DUP2 PUSH2 0x3B44 JUMP JUMPDEST SWAP2 POP POP PUSH2 0x2529 JUMP JUMPDEST POP JUMPDEST PUSH1 0x0 DUP5 DUP2 MSTORE PUSH1 0x20 DUP2 SWAP1 MSTORE PUSH1 0x40 DUP2 KECCAK256 PUSH1 0x14 ADD DUP1 SLOAD SWAP2 PUSH2 0x260D DUP4 PUSH2 0x3B44 JUMP JUMPDEST SWAP2 SWAP1 POP SSTORE POP PUSH2 0x261D DUP5 PUSH1 0x0 PUSH2 0x1D09 JUMP JUMPDEST ISZERO PUSH2 0x880 JUMPI POP POP POP PUSH1 0x0 SWAP1 DUP2 MSTORE PUSH1 0x20 DUP2 SWAP1 MSTORE PUSH1 0x40 SWAP1 KECCAK256 PUSH1 0x15 ADD DUP1 SLOAD PUSH2 0xFF00 NOT AND SWAP1 SSTORE JUMP JUMPDEST PUSH1 0x0 DUP2 DUP2 MSTORE PUSH1 0x20 DUP2 DUP2 MSTORE PUSH1 0x40 SWAP2 DUP3 SWAP1 KECCAK256 PUSH1 0xE ADD DUP1 SLOAD DUP4 MLOAD DUP2 DUP5 MUL DUP2 ADD DUP5 ADD SWAP1 SWAP5 MSTORE DUP1 DUP5 MSTORE PUSH1 0x60 SWAP4 SWAP3 DUP4 ADD DUP3 DUP3 DUP1 ISZERO PUSH2 0x233A JUMPI PUSH1 0x20 MUL DUP3 ADD SWAP2 SWAP1 PUSH1 0x0 MSTORE PUSH1 0x20 PUSH1 0x0 KECCAK256 SWAP1 DUP2 SLOAD PUSH1 0x1 PUSH1 0x1 PUSH1 0xA0 SHL SUB AND DUP2 MSTORE PUSH1 0x1 SWAP1 SWAP2 ADD SWAP1 PUSH1 0x20 ADD DUP1 DUP4 GT PUSH2 0x231C JUMPI POP POP POP POP POP SWAP1 POP SWAP2 SWAP1 POP JUMP JUMPDEST PUSH1 0x0 DUP2 DUP2 MSTORE PUSH1 0x20 DUP2 DUP2 MSTORE PUSH1 0x40 DUP1 DUP4 KECCAK256 PUSH1 0xC ADD DUP1 SLOAD DUP3 MLOAD DUP2 DUP6 MUL DUP2 ADD DUP6 ADD SWAP1 SWAP4 MSTORE DUP1 DUP4 MSTORE PUSH1 0x60 SWAP5 SWAP3 SWAP4 SWAP2 SWAP3 SWAP1 SWAP2 DUP5 ADD JUMPDEST DUP3 DUP3 LT ISZERO PUSH2 0x2949 JUMPI PUSH1 0x0 DUP5 DUP2 MSTORE PUSH1 0x20 SWAP1 KECCAK256 PUSH1 0x40 DUP1 MLOAD PUSH2 0x180 DUP2 ADD SWAP1 SWAP2 MSTORE PUSH1 0xB DUP5 MUL SWAP1 SWAP2 ADD DUP1 SLOAD DUP3 SWAP1 PUSH1 0xA0 DUP3 ADD SWAP1 DUP4 SWAP1 DUP3 SWAP1 DUP3 SWAP1 PUSH2 0x2717 SWAP1 PUSH2 0x3B09 JUMP JUMPDEST DUP1 PUSH1 0x1F ADD PUSH1 0x20 DUP1 SWAP2 DIV MUL PUSH1 0x20 ADD PUSH1 0x40 MLOAD SWAP1 DUP2 ADD PUSH1 0x40 MSTORE DUP1 SWAP3 SWAP2 SWAP1 DUP2 DUP2 MSTORE PUSH1 0x20 ADD DUP3 DUP1 SLOAD PUSH2 0x2743 SWAP1 PUSH2 0x3B09 JUMP JUMPDEST DUP1 ISZERO PUSH2 0x2790 JUMPI DUP1 PUSH1 0x1F LT PUSH2 0x2765 JUMPI PUSH2 0x100 DUP1 DUP4 SLOAD DIV MUL DUP4 MSTORE SWAP2 PUSH1 0x20 ADD SWAP2 PUSH2 0x2790 JUMP JUMPDEST DUP3 ADD SWAP2 SWAP1 PUSH1 0x0 MSTORE PUSH1 0x20 PUSH1 0x0 KECCAK256 SWAP1 JUMPDEST DUP2 SLOAD DUP2 MSTORE SWAP1 PUSH1 0x1 ADD SWAP1 PUSH1 0x20 ADD DUP1 DUP4 GT PUSH2 0x2773 JUMPI DUP3 SWAP1 SUB PUSH1 0x1F AND DUP3 ADD SWAP2 JUMPDEST POP POP POP POP POP DUP2 MSTORE PUSH1 0x20 ADD PUSH1 0x1 DUP3 ADD SLOAD DUP2 MSTORE PUSH1 0x20 ADD PUSH1 0x2 DUP3 ADD SLOAD DUP2 MSTORE PUSH1 0x20 ADD PUSH1 0x3 DUP3 ADD SLOAD DUP2 MSTORE PUSH1 0x20 ADD PUSH1 0x4 DUP3 ADD SLOAD DUP2 MSTORE PUSH1 0x20 ADD PUSH1 0x5 DUP3 ADD SLOAD DUP2 MSTORE PUSH1 0x20 ADD PUSH1 0x6 DUP3 ADD DUP1 SLOAD PUSH2 0x27DB SWAP1 PUSH2 0x3B09 JUMP JUMPDEST DUP1 PUSH1 0x1F ADD PUSH1 0x20 DUP1 SWAP2 DIV MUL PUSH1 0x20 ADD PUSH1 0x40 MLOAD SWAP1 DUP2 ADD PUSH1 0x40 MSTORE DUP1 SWAP3 SWAP2 SWAP1 DUP2 DUP2 MSTORE PUSH1 0x20 ADD DUP3 DUP1 SLOAD PUSH2 0x2807 SWAP1 PUSH2 0x3B09 JUMP JUMPDEST DUP1 ISZERO PUSH2 0x2854 JUMPI DUP1 PUSH1 0x1F LT PUSH2 0x2829 JUMPI PUSH2 0x100 DUP1 DUP4 SLOAD DIV MUL DUP4 MSTORE SWAP2 PUSH1 0x20 ADD SWAP2 PUSH2 0x2854 JUMP JUMPDEST DUP3 ADD SWAP2 SWAP1 PUSH1 0x0 MSTORE PUSH1 0x20 PUSH1 0x0 KECCAK256 SWAP1 JUMPDEST DUP2 SLOAD DUP2 MSTORE SWAP1 PUSH1 0x1 ADD SWAP1 PUSH1 0x20 ADD DUP1 DUP4 GT PUSH2 0x2837 JUMPI DUP3 SWAP1 SUB PUSH1 0x1F AND DUP3 ADD SWAP2 JUMPDEST POP POP POP POP POP DUP2 MSTORE POP POP DUP2 MSTORE PUSH1 0x20 ADD PUSH1 0x7 DUP3 ADD SLOAD DUP2 MSTORE PUSH1 0x20 ADD PUSH1 0x8 DUP3 ADD DUP1 SLOAD PUSH2 0x287B SWAP1 PUSH2 0x3B09 JUMP JUMPDEST DUP1 PUSH1 0x1F ADD PUSH1 0x20 DUP1 SWAP2 DIV MUL PUSH1 0x20 ADD PUSH1 0x40 MLOAD SWAP1 DUP2 ADD PUSH1 0x40 MSTORE DUP1 SWAP3 SWAP2 SWAP1 DUP2 DUP2 MSTORE PUSH1 0x20 ADD DUP3 DUP1 SLOAD PUSH2 0x28A7 SWAP1 PUSH2 0x3B09 JUMP JUMPDEST DUP1 ISZERO PUSH2 0x28F4 JUMPI DUP1 PUSH1 0x1F LT PUSH2 0x28C9 JUMPI PUSH2 0x100 DUP1 DUP4 SLOAD DIV MUL DUP4 MSTORE SWAP2 PUSH1 0x20 ADD SWAP2 PUSH2 0x28F4 JUMP JUMPDEST DUP3 ADD SWAP2 SWAP1 PUSH1 0x0 MSTORE PUSH1 0x20 PUSH1 0x0 KECCAK256 SWAP1 JUMPDEST DUP2 SLOAD DUP2 MSTORE SWAP1 PUSH1 0x1 ADD SWAP1 PUSH1 0x20 ADD DUP1 DUP4 GT PUSH2 0x28D7 JUMPI DUP3 SWAP1 SUB PUSH1 0x1F AND DUP3 ADD SWAP2 JUMPDEST POP POP POP SWAP2 DUP4 MSTORE POP POP PUSH1 0x9 DUP3 ADD SLOAD PUSH1 0x20 SWAP1 SWAP2 ADD SWAP1 PUSH1 0xFF AND PUSH1 0x7 DUP2 GT ISZERO PUSH2 0x291B JUMPI PUSH2 0x291B PUSH2 0x3B75 JUMP JUMPDEST PUSH1 0x7 DUP2 GT ISZERO PUSH2 0x292C JUMPI PUSH2 0x292C PUSH2 0x3B75 JUMP JUMPDEST DUP2 MSTORE PUSH1 0x20 ADD PUSH1 0xA DUP3 ADD SLOAD DUP2 MSTORE POP POP DUP2 MSTORE PUSH1 0x20 ADD SWAP1 PUSH1 0x1 ADD SWAP1 PUSH2 0x26DB JUMP JUMPDEST POP POP POP POP SWAP1 POP SWAP2 SWAP1 POP JUMP JUMPDEST PUSH1 0x0 DUP3 DUP2 MSTORE PUSH1 0x20 DUP2 SWAP1 MSTORE PUSH1 0x40 SWAP1 KECCAK256 PUSH1 0x15 ADD DUP1 SLOAD DUP3 SWAP2 SWAP1 PUSH3 0xFF0000 NOT AND PUSH3 0x10000 DUP4 PUSH1 0x6 DUP2 GT ISZERO PUSH2 0x2986 JUMPI PUSH2 0x2986 PUSH2 0x3B75 JUMP JUMPDEST MUL OR SWAP1 SSTORE POP POP POP JUMP JUMPDEST PUSH1 0x0 DUP5 DUP2 MSTORE PUSH1 0x20 DUP2 SWAP1 MSTORE PUSH1 0x40 SWAP1 KECCAK256 PUSH1 0xC DUP2 ADD DUP1 SLOAD PUSH1 0x2 SWAP2 SWAP1 DUP6 SWAP1 DUP2 LT PUSH2 0x29B7 JUMPI PUSH2 0x29B7 PUSH2 0x3B8B JUMP JUMPDEST PUSH1 0x0 SWAP2 DUP3 MSTORE PUSH1 0x20 SWAP1 SWAP2 KECCAK256 PUSH1 0x9 PUSH1 0xB SWAP1 SWAP3 MUL ADD ADD DUP1 SLOAD PUSH1 0xFF NOT AND PUSH1 0x1 DUP4 PUSH1 0x7 DUP2 GT ISZERO PUSH2 0x29E4 JUMPI PUSH2 0x29E4 PUSH2 0x3B75 JUMP JUMPDEST MUL OR SWAP1 SSTORE POP TIMESTAMP DUP2 PUSH1 0xC ADD DUP5 DUP2 SLOAD DUP2 LT PUSH2 0x29FF JUMPI PUSH2 0x29FF PUSH2 0x3B8B JUMP JUMPDEST PUSH1 0x0 SWAP2 DUP3 MSTORE PUSH1 0x20 DUP1 DUP4 KECCAK256 PUSH1 0xA PUSH1 0xB SWAP1 SWAP4 MUL ADD SWAP2 SWAP1 SWAP2 ADD SWAP3 SWAP1 SWAP3 SSTORE PUSH1 0x1 PUSH1 0x1 PUSH1 0xA0 SHL SUB DUP7 AND DUP2 MSTORE PUSH1 0xF DUP4 ADD DUP3 MSTORE PUSH1 0x40 DUP1 DUP3 KECCAK256 DUP7 DUP4 MSTORE PUSH1 0x1 SWAP1 DUP2 ADD DUP5 MSTORE SWAP2 KECCAK256 DUP5 MLOAD PUSH2 0x2A50 SWAP4 SWAP2 SWAP1 SWAP3 ADD SWAP2 SWAP1 DUP6 ADD SWAP1 PUSH2 0x2AD4 JUMP JUMPDEST POP PUSH1 0x1 PUSH1 0x1 PUSH1 0xA0 SHL SUB SWAP4 SWAP1 SWAP4 AND PUSH1 0x0 SWAP1 DUP2 MSTORE PUSH1 0xF SWAP1 SWAP4 ADD PUSH1 0x20 SWAP1 DUP2 MSTORE PUSH1 0x40 DUP1 DUP6 KECCAK256 SWAP4 DUP6 MSTORE PUSH1 0x1 SWAP4 DUP5 ADD SWAP1 SWAP2 MSTORE SWAP1 SWAP3 KECCAK256 DUP1 SLOAD PUSH1 0xFF NOT AND SWAP1 SWAP2 OR SWAP1 SSTORE POP POP JUMP JUMPDEST PUSH1 0x0 DUP1 PUSH2 0x2A9C DUP4 PUSH1 0x5A PUSH2 0x2AB0 JUMP JUMPDEST SWAP1 POP PUSH2 0x2AA9 DUP2 PUSH1 0x3C PUSH2 0x2AB0 JUMP JUMPDEST SWAP4 SWAP3 POP POP POP JUMP JUMPDEST PUSH1 0x0 PUSH1 0x64 PUSH2 0x2ABE DUP5 DUP5 PUSH2 0x2AC8 JUMP JUMPDEST PUSH2 0x2AA9 SWAP2 SWAP1 PUSH2 0x3AB1 JUMP JUMPDEST PUSH1 0x0 PUSH2 0x2AA9 DUP3 DUP5 PUSH2 0x3AD3 JUMP JUMPDEST DUP3 DUP1 SLOAD PUSH2 0x2AE0 SWAP1 PUSH2 0x3B09 JUMP JUMPDEST SWAP1 PUSH1 0x0 MSTORE PUSH1 0x20 PUSH1 0x0 KECCAK256 SWAP1 PUSH1 0x1F ADD PUSH1 0x20 SWAP1 DIV DUP2 ADD SWAP3 DUP3 PUSH2 0x2B02 JUMPI PUSH1 0x0 DUP6 SSTORE PUSH2 0x2B48 JUMP JUMPDEST DUP3 PUSH1 0x1F LT PUSH2 0x2B1B JUMPI DUP1 MLOAD PUSH1 0xFF NOT AND DUP4 DUP1 ADD OR DUP6 SSTORE PUSH2 0x2B48 JUMP JUMPDEST DUP3 DUP1 ADD PUSH1 0x1 ADD DUP6 SSTORE DUP3 ISZERO PUSH2 0x2B48 JUMPI SWAP2 DUP3 ADD JUMPDEST DUP3 DUP2 GT ISZERO PUSH2 0x2B48 JUMPI DUP3 MLOAD DUP3 SSTORE SWAP2 PUSH1 0x20 ADD SWAP2 SWAP1 PUSH1 0x1 ADD SWAP1 PUSH2 0x2B2D JUMP JUMPDEST POP PUSH2 0x2B54 SWAP3 SWAP2 POP PUSH2 0x2CA5 JUMP JUMPDEST POP SWAP1 JUMP JUMPDEST DUP3 DUP1 SLOAD DUP3 DUP3 SSTORE SWAP1 PUSH1 0x0 MSTORE PUSH1 0x20 PUSH1 0x0 KECCAK256 SWAP1 DUP2 ADD SWAP3 DUP3 ISZERO PUSH2 0x2B48 JUMPI SWAP2 PUSH1 0x20 MUL DUP3 ADD DUP3 DUP2 GT ISZERO PUSH2 0x2B48 JUMPI DUP3 MLOAD DUP3 SSTORE SWAP2 PUSH1 0x20 ADD SWAP2 SWAP1 PUSH1 0x1 ADD SWAP1 PUSH2 0x2B2D JUMP JUMPDEST PUSH1 0x40 MLOAD DUP1 PUSH2 0x300 ADD PUSH1 0x40 MSTORE DUP1 PUSH1 0x0 PUSH1 0x1 PUSH1 0x1 PUSH1 0xA0 SHL SUB AND DUP2 MSTORE PUSH1 0x20 ADD PUSH1 0x0 DUP2 MSTORE PUSH1 0x20 ADD PUSH1 0x60 DUP2 MSTORE PUSH1 0x20 ADD PUSH1 0x60 DUP2 MSTORE PUSH1 0x20 ADD PUSH1 0x0 DUP2 MSTORE PUSH1 0x20 ADD PUSH1 0x0 DUP2 MSTORE PUSH1 0x20 ADD PUSH1 0x0 DUP2 MSTORE PUSH1 0x20 ADD PUSH1 0x60 DUP2 MSTORE PUSH1 0x20 ADD PUSH1 0x0 DUP2 MSTORE PUSH1 0x20 ADD PUSH1 0x0 DUP2 MSTORE PUSH1 0x20 ADD PUSH1 0x0 ISZERO ISZERO DUP2 MSTORE PUSH1 0x20 ADD PUSH1 0x0 ISZERO ISZERO DUP2 MSTORE PUSH1 0x20 ADD PUSH1 0x0 DUP2 MSTORE PUSH1 0x20 ADD PUSH1 0x60 DUP2 MSTORE PUSH1 0x20 ADD PUSH1 0x60 DUP2 MSTORE PUSH1 0x20 ADD PUSH1 0x60 DUP2 MSTORE PUSH1 0x20 ADD PUSH1 0x60 DUP2 MSTORE PUSH1 0x20 ADD PUSH1 0x0 DUP2 MSTORE PUSH1 0x20 ADD PUSH1 0x0 DUP2 MSTORE PUSH1 0x20 ADD PUSH1 0x0 DUP2 MSTORE PUSH1 0x20 ADD PUSH1 0x0 DUP2 MSTORE PUSH1 0x20 ADD PUSH1 0x0 ISZERO ISZERO DUP2 MSTORE PUSH1 0x20 ADD PUSH1 0x0 ISZERO ISZERO DUP2 MSTORE PUSH1 0x20 ADD PUSH1 0x0 PUSH1 0x6 DUP2 GT ISZERO PUSH2 0x2C63 JUMPI PUSH2 0x2C63 PUSH2 0x3B75 JUMP JUMPDEST SWAP1 MSTORE SWAP1 JUMP JUMPDEST PUSH1 0x40 DUP1 MLOAD PUSH1 0x80 DUP2 ADD SWAP1 SWAP2 MSTORE PUSH1 0x0 DUP1 DUP3 MSTORE PUSH1 0x20 DUP3 ADD SWAP1 JUMPDEST DUP2 MSTORE PUSH1 0x20 ADD PUSH1 0x60 DUP2 MSTORE PUSH1 0x20 ADD PUSH1 0x0 DUP2 MSTORE POP SWAP1 JUMP JUMPDEST PUSH1 0x40 DUP1 MLOAD PUSH1 0x60 DUP2 ADD SWAP1 SWAP2 MSTORE DUP1 PUSH1 0x0 PUSH2 0x2C7E JUMP JUMPDEST JUMPDEST DUP1 DUP3 GT ISZERO PUSH2 0x2B54 JUMPI PUSH1 0x0 DUP2 SSTORE PUSH1 0x1 ADD PUSH2 0x2CA6 JUMP JUMPDEST DUP1 CALLDATALOAD PUSH1 0x1 PUSH1 0x1 PUSH1 0xA0 SHL SUB DUP2 AND DUP2 EQ PUSH2 0x2CD1 JUMPI PUSH1 0x0 DUP1 REVERT JUMPDEST SWAP2 SWAP1 POP JUMP JUMPDEST PUSH1 0x0 DUP3 PUSH1 0x1F DUP4 ADD SLT PUSH2 0x2CE7 JUMPI PUSH1 0x0 DUP1 REVERT JUMPDEST PUSH1 0x20 PUSH2 0x2CFB PUSH2 0x2CF6 DUP5 CALLDATALOAD PUSH2 0x3A75 JUMP JUMPDEST PUSH2 0x3A44 JUMP JUMPDEST DUP1 DUP5 CALLDATALOAD DUP3 MSTORE DUP3 DUP3 ADD SWAP2 POP DUP3 DUP6 ADD DUP7 DUP5 DUP8 CALLDATALOAD PUSH1 0x5 SHL DUP9 ADD ADD GT ISZERO PUSH2 0x2D1D JUMPI PUSH1 0x0 DUP1 REVERT JUMPDEST PUSH1 0x0 JUMPDEST DUP7 CALLDATALOAD DUP2 LT ISZERO PUSH2 0x2E70 JUMPI PUSH8 0xFFFFFFFFFFFFFFFF DUP1 DUP4 CALLDATALOAD GT ISZERO PUSH2 0x2D40 JUMPI PUSH1 0x0 DUP1 REVERT JUMPDEST DUP3 CALLDATALOAD DUP9 ADD PUSH1 0x1F NOT PUSH1 0xA0 DUP3 DUP13 SUB DUP3 ADD SLT ISZERO PUSH2 0x2D59 JUMPI PUSH1 0x0 DUP1 REVERT JUMPDEST PUSH2 0x2D61 PUSH2 0x39D4 JUMP JUMPDEST DUP4 DUP10 DUP5 ADD CALLDATALOAD GT ISZERO PUSH2 0x2D71 JUMPI PUSH1 0x0 DUP1 REVERT JUMPDEST DUP9 DUP4 ADD CALLDATALOAD DUP4 ADD PUSH1 0xE0 DUP4 DUP3 DUP16 SUB ADD SLT ISZERO PUSH2 0x2D89 JUMPI PUSH1 0x0 DUP1 REVERT JUMPDEST PUSH2 0x2D91 PUSH2 0x39FD JUMP JUMPDEST SWAP3 POP DUP10 DUP2 ADD CALLDATALOAD DUP6 DUP2 GT ISZERO PUSH2 0x2DA4 JUMPI PUSH1 0x0 DUP1 REVERT JUMPDEST PUSH2 0x2DB2 DUP15 DUP13 DUP4 DUP6 ADD ADD PUSH2 0x2F08 JUMP JUMPDEST DUP5 MSTORE POP PUSH1 0x40 DUP2 ADD CALLDATALOAD DUP11 DUP5 ADD MSTORE PUSH1 0x60 DUP2 ADD CALLDATALOAD PUSH1 0x40 DUP5 ADD MSTORE PUSH1 0x80 DUP2 ADD CALLDATALOAD PUSH1 0x60 DUP5 ADD MSTORE PUSH1 0xA0 DUP2 ADD CALLDATALOAD PUSH1 0x80 DUP5 ADD MSTORE PUSH1 0xC0 DUP2 ADD CALLDATALOAD PUSH1 0xA0 DUP5 ADD MSTORE PUSH1 0xE0 DUP2 ADD CALLDATALOAD DUP6 DUP2 GT ISZERO PUSH2 0x2DF8 JUMPI PUSH1 0x0 DUP1 REVERT JUMPDEST PUSH2 0x2E06 DUP15 DUP13 DUP4 DUP6 ADD ADD PUSH2 0x2F08 JUMP JUMPDEST PUSH1 0xC0 DUP6 ADD MSTORE POP POP SWAP1 DUP2 MSTORE PUSH1 0x40 DUP3 ADD CALLDATALOAD DUP9 DUP3 ADD MSTORE PUSH1 0x60 DUP3 ADD CALLDATALOAD SWAP1 DUP4 DUP3 GT ISZERO PUSH2 0x2E2C JUMPI PUSH1 0x0 DUP1 REVERT JUMPDEST PUSH2 0x2E3A DUP13 DUP11 DUP5 DUP7 ADD ADD PUSH2 0x2F08 JUMP JUMPDEST PUSH1 0x40 DUP3 ADD MSTORE PUSH2 0x2E4B PUSH1 0x80 DUP5 ADD PUSH2 0x2EF9 JUMP JUMPDEST PUSH1 0x60 DUP3 ADD MSTORE PUSH1 0xA0 SWAP3 SWAP1 SWAP3 ADD CALLDATALOAD PUSH1 0x80 DUP4 ADD MSTORE POP DUP6 MSTORE POP SWAP3 DUP5 ADD SWAP3 SWAP1 DUP5 ADD SWAP1 PUSH1 0x1 ADD PUSH2 0x2D20 JUMP JUMPDEST POP SWAP1 SWAP7 SWAP6 POP POP POP POP POP POP JUMP JUMPDEST PUSH1 0x0 DUP3 PUSH1 0x1F DUP4 ADD SLT PUSH2 0x2E8D JUMPI PUSH1 0x0 DUP1 REVERT JUMPDEST DUP2 CALLDATALOAD PUSH1 0x20 PUSH2 0x2E9D PUSH2 0x2CF6 DUP4 PUSH2 0x3A75 JUMP JUMPDEST DUP1 DUP4 DUP3 MSTORE DUP3 DUP3 ADD SWAP2 POP DUP3 DUP7 ADD DUP8 DUP5 DUP7 PUSH1 0x5 SHL DUP10 ADD ADD GT ISZERO PUSH2 0x2EBD JUMPI PUSH1 0x0 DUP1 REVERT JUMPDEST PUSH1 0x0 JUMPDEST DUP6 DUP2 LT ISZERO PUSH2 0x2EDC JUMPI DUP2 CALLDATALOAD DUP5 MSTORE SWAP3 DUP5 ADD SWAP3 SWAP1 DUP5 ADD SWAP1 PUSH1 0x1 ADD PUSH2 0x2EC0 JUMP JUMPDEST POP SWAP1 SWAP8 SWAP7 POP POP POP POP POP POP POP JUMP JUMPDEST DUP1 CALLDATALOAD DUP1 ISZERO ISZERO DUP2 EQ PUSH2 0x2CD1 JUMPI PUSH1 0x0 DUP1 REVERT JUMPDEST DUP1 CALLDATALOAD PUSH1 0x8 DUP2 LT PUSH2 0x2CD1 JUMPI PUSH1 0x0 DUP1 REVERT JUMPDEST PUSH1 0x0 DUP3 PUSH1 0x1F DUP4 ADD SLT PUSH2 0x2F19 JUMPI PUSH1 0x0 DUP1 REVERT JUMPDEST DUP2 CALLDATALOAD PUSH8 0xFFFFFFFFFFFFFFFF DUP2 GT ISZERO PUSH2 0x2F33 JUMPI PUSH2 0x2F33 PUSH2 0x3BA1 JUMP JUMPDEST PUSH2 0x2F46 PUSH1 0x1F DUP3 ADD PUSH1 0x1F NOT AND PUSH1 0x20 ADD PUSH2 0x3A44 JUMP JUMPDEST DUP2 DUP2 MSTORE DUP5 PUSH1 0x20 DUP4 DUP7 ADD ADD GT ISZERO PUSH2 0x2F5B JUMPI PUSH1 0x0 DUP1 REVERT JUMPDEST DUP2 PUSH1 0x20 DUP6 ADD PUSH1 0x20 DUP4 ADD CALLDATACOPY PUSH1 0x0 SWAP2 DUP2 ADD PUSH1 0x20 ADD SWAP2 SWAP1 SWAP2 MSTORE SWAP4 SWAP3 POP POP POP JUMP JUMPDEST PUSH1 0x0 PUSH2 0x1A0 DUP3 DUP5 SUB SLT ISZERO PUSH2 0x2F8B JUMPI PUSH1 0x0 DUP1 REVERT JUMPDEST PUSH2 0x2F93 PUSH2 0x3A20 JUMP JUMPDEST SWAP1 POP DUP2 CALLDATALOAD DUP2 MSTORE PUSH1 0x20 DUP3 ADD CALLDATALOAD PUSH8 0xFFFFFFFFFFFFFFFF DUP1 DUP3 GT ISZERO PUSH2 0x2FB4 JUMPI PUSH1 0x0 DUP1 REVERT JUMPDEST PUSH2 0x2FC0 DUP6 DUP4 DUP7 ADD PUSH2 0x2F08 JUMP JUMPDEST PUSH1 0x20 DUP5 ADD MSTORE PUSH1 0x40 DUP5 ADD CALLDATALOAD SWAP2 POP DUP1 DUP3 GT ISZERO PUSH2 0x2FD9 JUMPI PUSH1 0x0 DUP1 REVERT JUMPDEST PUSH2 0x2FE5 DUP6 DUP4 DUP7 ADD PUSH2 0x2F08 JUMP JUMPDEST PUSH1 0x40 DUP5 ADD MSTORE PUSH1 0x60 DUP5 ADD CALLDATALOAD PUSH1 0x60 DUP5 ADD MSTORE PUSH1 0x80 DUP5 ADD CALLDATALOAD PUSH1 0x80 DUP5 ADD MSTORE PUSH1 0xA0 DUP5 ADD CALLDATALOAD PUSH1 0xA0 DUP5 ADD MSTORE PUSH1 0xC0 DUP5 ADD CALLDATALOAD SWAP2 POP DUP1 DUP3 GT ISZERO PUSH2 0x301C JUMPI PUSH1 0x0 DUP1 REVERT JUMPDEST PUSH2 0x3028 DUP6 DUP4 DUP7 ADD PUSH2 0x2E7C JUMP JUMPDEST PUSH1 0xC0 DUP5 ADD MSTORE PUSH1 0xE0 DUP5 DUP2 ADD CALLDATALOAD SWAP1 DUP5 ADD MSTORE PUSH2 0x100 DUP1 DUP6 ADD CALLDATALOAD SWAP1 DUP5 ADD MSTORE PUSH2 0x120 SWAP2 POP PUSH2 0x3052 DUP3 DUP6 ADD PUSH2 0x2EE9 JUMP JUMPDEST DUP3 DUP5 ADD MSTORE PUSH2 0x140 SWAP2 POP PUSH2 0x3066 DUP3 DUP6 ADD PUSH2 0x2EE9 JUMP JUMPDEST DUP3 DUP5 ADD MSTORE PUSH2 0x160 SWAP2 POP DUP2 DUP5 ADD CALLDATALOAD DUP3 DUP5 ADD MSTORE PUSH2 0x180 SWAP2 POP DUP2 DUP5 ADD CALLDATALOAD DUP2 DUP2 GT ISZERO PUSH2 0x308D JUMPI PUSH1 0x0 DUP1 REVERT JUMPDEST PUSH2 0x3099 DUP7 DUP3 DUP8 ADD PUSH2 0x2CD6 JUMP JUMPDEST DUP4 DUP6 ADD MSTORE POP POP POP SWAP3 SWAP2 POP POP JUMP JUMPDEST PUSH1 0x0 PUSH1 0x20 DUP3 DUP5 SUB SLT ISZERO PUSH2 0x30B8 JUMPI PUSH1 0x0 DUP1 REVERT JUMPDEST DUP2 CALLDATALOAD PUSH8 0xFFFFFFFFFFFFFFFF DUP2 GT ISZERO PUSH2 0x30CF JUMPI PUSH1 0x0 DUP1 REVERT JUMPDEST PUSH2 0x1502 DUP5 DUP3 DUP6 ADD PUSH2 0x2F78 JUMP JUMPDEST PUSH1 0x0 PUSH1 0x20 DUP3 DUP5 SUB SLT ISZERO PUSH2 0x30ED JUMPI PUSH1 0x0 DUP1 REVERT JUMPDEST POP CALLDATALOAD SWAP2 SWAP1 POP JUMP JUMPDEST PUSH1 0x0 DUP1 PUSH1 0x40 DUP4 DUP6 SUB SLT ISZERO PUSH2 0x3107 JUMPI PUSH1 0x0 DUP1 REVERT JUMPDEST DUP3 CALLDATALOAD SWAP2 POP PUSH2 0x3117 PUSH1 0x20 DUP5 ADD PUSH2 0x2CBA JUMP JUMPDEST SWAP1 POP SWAP3 POP SWAP3 SWAP1 POP JUMP JUMPDEST PUSH1 0x0 DUP1 PUSH1 0x0 DUP1 PUSH1 0x0 PUSH1 0xA0 DUP7 DUP9 SUB SLT ISZERO PUSH2 0x3138 JUMPI PUSH1 0x0 DUP1 REVERT JUMPDEST DUP6 CALLDATALOAD SWAP5 POP PUSH2 0x3148 PUSH1 0x20 DUP8 ADD PUSH2 0x2CBA JUMP JUMPDEST SWAP4 POP PUSH2 0x3156 PUSH1 0x40 DUP8 ADD PUSH2 0x2CBA JUMP JUMPDEST SWAP3 POP PUSH1 0x60 DUP7 ADD CALLDATALOAD SWAP2 POP PUSH1 0x80 DUP7 ADD CALLDATALOAD PUSH8 0xFFFFFFFFFFFFFFFF DUP2 GT ISZERO PUSH2 0x3179 JUMPI PUSH1 0x0 DUP1 REVERT JUMPDEST PUSH2 0x3185 DUP9 DUP3 DUP10 ADD PUSH2 0x2F08 JUMP JUMPDEST SWAP2 POP POP SWAP3 SWAP6 POP SWAP3 SWAP6 SWAP1 SWAP4 POP JUMP JUMPDEST PUSH1 0x0 DUP1 PUSH1 0x0 DUP1 PUSH1 0x0 PUSH1 0xA0 DUP7 DUP9 SUB SLT ISZERO PUSH2 0x31AA JUMPI PUSH1 0x0 DUP1 REVERT JUMPDEST DUP6 CALLDATALOAD SWAP5 POP PUSH2 0x31BA PUSH1 0x20 DUP8 ADD PUSH2 0x2CBA JUMP JUMPDEST SWAP4 POP PUSH1 0x40 DUP7 ADD CALLDATALOAD PUSH8 0xFFFFFFFFFFFFFFFF DUP2 GT ISZERO PUSH2 0x31D6 JUMPI PUSH1 0x0 DUP1 REVERT JUMPDEST PUSH2 0x31E2 DUP9 DUP3 DUP10 ADD PUSH2 0x2E7C JUMP JUMPDEST SWAP4 POP POP PUSH1 0x60 DUP7 ADD CALLDATALOAD PUSH1 0x5 DUP2 LT PUSH2 0x31F7 JUMPI PUSH1 0x0 DUP1 REVERT JUMPDEST SWAP2 POP PUSH2 0x3205 PUSH1 0x80 DUP8 ADD PUSH2 0x2EE9 JUMP JUMPDEST SWAP1 POP SWAP3 SWAP6 POP SWAP3 SWAP6 SWAP1 SWAP4 POP JUMP JUMPDEST PUSH1 0x0 DUP1 PUSH1 0x0 PUSH1 0x60 DUP5 DUP7 SUB SLT ISZERO PUSH2 0x3226 JUMPI PUSH1 0x0 DUP1 REVERT JUMPDEST DUP4 CALLDATALOAD SWAP3 POP PUSH2 0x3236 PUSH1 0x20 DUP6 ADD PUSH2 0x2CBA JUMP JUMPDEST SWAP2 POP PUSH2 0x3244 PUSH1 0x40 DUP6 ADD PUSH2 0x2EE9 JUMP JUMPDEST SWAP1 POP SWAP3 POP SWAP3 POP SWAP3 JUMP JUMPDEST PUSH1 0x0 DUP1 PUSH1 0x0 PUSH1 0x60 DUP5 DUP7 SUB SLT ISZERO PUSH2 0x3262 JUMPI PUSH1 0x0 DUP1 REVERT JUMPDEST DUP4 CALLDATALOAD SWAP3 POP PUSH2 0x3272 PUSH1 0x20 DUP6 ADD PUSH2 0x2CBA JUMP JUMPDEST SWAP2 POP PUSH1 0x40 DUP5 ADD CALLDATALOAD SWAP1 POP SWAP3 POP SWAP3 POP SWAP3 JUMP JUMPDEST PUSH1 0x0 DUP1 PUSH1 0x0 DUP1 PUSH1 0x80 DUP6 DUP8 SUB SLT ISZERO PUSH2 0x3298 JUMPI PUSH1 0x0 DUP1 REVERT JUMPDEST DUP5 CALLDATALOAD SWAP4 POP PUSH2 0x32A8 PUSH1 0x20 DUP7 ADD PUSH2 0x2CBA JUMP JUMPDEST SWAP3 POP PUSH1 0x40 DUP6 ADD CALLDATALOAD SWAP2 POP PUSH2 0x32BD PUSH1 0x60 DUP7 ADD PUSH2 0x2EE9 JUMP JUMPDEST SWAP1 POP SWAP3 SWAP6 SWAP2 SWAP5 POP SWAP3 POP JUMP JUMPDEST PUSH1 0x0 DUP1 PUSH1 0x0 DUP1 PUSH1 0x80 DUP6 DUP8 SUB SLT ISZERO PUSH2 0x32DE JUMPI PUSH1 0x0 DUP1 REVERT JUMPDEST DUP5 CALLDATALOAD SWAP4 POP PUSH2 0x32EE PUSH1 0x20 DUP7 ADD PUSH2 0x2CBA JUMP JUMPDEST SWAP3 POP PUSH1 0x40 DUP6 ADD CALLDATALOAD SWAP2 POP PUSH1 0x60 DUP6 ADD CALLDATALOAD PUSH8 0xFFFFFFFFFFFFFFFF DUP2 GT ISZERO PUSH2 0x3311 JUMPI PUSH1 0x0 DUP1 REVERT JUMPDEST PUSH2 0x331D DUP8 DUP3 DUP9 ADD PUSH2 0x2F08 JUMP JUMPDEST SWAP2 POP POP SWAP3 SWAP6 SWAP2 SWAP5 POP SWAP3 POP JUMP JUMPDEST PUSH1 0x0 DUP1 PUSH1 0x0 DUP1 PUSH1 0x0 PUSH1 0xA0 DUP7 DUP9 SUB SLT ISZERO PUSH2 0x3341 JUMPI PUSH1 0x0 DUP1 REVERT JUMPDEST DUP6 CALLDATALOAD SWAP5 POP PUSH2 0x3351 PUSH1 0x20 DUP8 ADD PUSH2 0x2CBA JUMP JUMPDEST SWAP4 POP PUSH1 0x40 DUP7 ADD CALLDATALOAD SWAP3 POP PUSH1 0x60 DUP7 ADD CALLDATALOAD SWAP2 POP PUSH2 0x3205 PUSH1 0x80 DUP8 ADD PUSH2 0x2EE9 JUMP JUMPDEST PUSH1 0x0 DUP1 PUSH1 0x0 PUSH1 0x60 DUP5 DUP7 SUB SLT ISZERO PUSH2 0x3382 JUMPI PUSH1 0x0 DUP1 REVERT JUMPDEST DUP4 CALLDATALOAD SWAP3 POP PUSH1 0x20 DUP5 ADD CALLDATALOAD PUSH8 0xFFFFFFFFFFFFFFFF DUP2 GT ISZERO PUSH2 0x33A0 JUMPI PUSH1 0x0 DUP1 REVERT JUMPDEST PUSH2 0x33AC DUP7 DUP3 DUP8 ADD PUSH2 0x2E7C JUMP JUMPDEST SWAP3 POP POP PUSH2 0x3244 PUSH1 0x40 DUP6 ADD PUSH2 0x2CBA JUMP JUMPDEST PUSH1 0x0 DUP1 PUSH1 0x40 DUP4 DUP6 SUB SLT ISZERO PUSH2 0x33CE JUMPI PUSH1 0x0 DUP1 REVERT JUMPDEST DUP3 CALLDATALOAD SWAP2 POP PUSH2 0x3117 PUSH1 0x20 DUP5 ADD PUSH2 0x2EE9 JUMP JUMPDEST PUSH1 0x0 DUP1 PUSH1 0x40 DUP4 DUP6 SUB SLT ISZERO PUSH2 0x33F1 JUMPI PUSH1 0x0 DUP1 REVERT JUMPDEST DUP3 CALLDATALOAD SWAP2 POP PUSH1 0x20 DUP4 ADD CALLDATALOAD PUSH1 0x7 DUP2 LT PUSH2 0x3407 JUMPI PUSH1 0x0 DUP1 REVERT JUMPDEST DUP1 SWAP2 POP POP SWAP3 POP SWAP3 SWAP1 POP JUMP JUMPDEST PUSH1 0x0 DUP1 PUSH1 0x40 DUP4 DUP6 SUB SLT ISZERO PUSH2 0x3425 JUMPI PUSH1 0x0 DUP1 REVERT JUMPDEST DUP3 CALLDATALOAD SWAP2 POP PUSH1 0x20 DUP4 ADD CALLDATALOAD PUSH8 0xFFFFFFFFFFFFFFFF DUP2 GT ISZERO PUSH2 0x3443 JUMPI PUSH1 0x0 DUP1 REVERT JUMPDEST PUSH2 0x344F DUP6 DUP3 DUP7 ADD PUSH2 0x2F78 JUMP JUMPDEST SWAP2 POP POP SWAP3 POP SWAP3 SWAP1 POP JUMP JUMPDEST PUSH1 0x0 DUP1 PUSH1 0x40 DUP4 DUP6 SUB SLT ISZERO PUSH2 0x346C JUMPI PUSH1 0x0 DUP1 REVERT JUMPDEST POP POP DUP1 CALLDATALOAD SWAP3 PUSH1 0x20 SWAP1 SWAP2 ADD CALLDATALOAD SWAP2 POP JUMP JUMPDEST PUSH1 0x0 DUP1 PUSH1 0x0 DUP1 PUSH1 0x80 DUP6 DUP8 SUB SLT ISZERO PUSH2 0x3491 JUMPI PUSH1 0x0 DUP1 REVERT JUMPDEST DUP5 CALLDATALOAD SWAP4 POP PUSH1 0x20 DUP6 ADD CALLDATALOAD SWAP3 POP PUSH2 0x34A8 PUSH1 0x40 DUP7 ADD PUSH2 0x2CBA JUMP JUMPDEST SWAP2 POP PUSH2 0x32BD PUSH1 0x60 DUP7 ADD PUSH2 0x2EE9 JUMP JUMPDEST PUSH1 0x0 DUP2 MLOAD DUP1 DUP5 MSTORE PUSH1 0x20 DUP1 DUP6 ADD DUP1 DUP2 SWAP7 POP PUSH1 0x5 SWAP2 POP DUP4 DUP3 SHL DUP2 ADD DUP4 DUP8 ADD PUSH1 0x0 JUMPDEST DUP7 DUP2 LT ISZERO PUSH2 0x353B JUMPI DUP4 DUP4 SUB DUP11 MSTORE DUP2 MLOAD PUSH1 0x80 DUP2 MLOAD DUP6 MSTORE DUP8 DUP3 ADD MLOAD DUP8 DUP2 LT PUSH2 0x34FD JUMPI PUSH2 0x34FD PUSH2 0x3B75 JUMP JUMPDEST DUP6 DUP10 ADD MSTORE PUSH1 0x40 DUP3 DUP2 ADD MLOAD DUP2 DUP8 ADD DUP4 SWAP1 MSTORE PUSH2 0x3519 DUP4 DUP9 ADD DUP3 PUSH2 0x3716 JUMP JUMPDEST PUSH1 0x60 SWAP5 DUP6 ADD MLOAD SWAP8 SWAP1 SWAP5 ADD SWAP7 SWAP1 SWAP7 MSTORE POP POP SWAP10 DUP7 ADD SWAP10 SWAP3 POP SWAP1 DUP6 ADD SWAP1 PUSH1 0x1 ADD PUSH2 0x34D5 JUMP JUMPDEST POP SWAP1 SWAP9 SWAP8 POP POP POP POP POP POP POP POP JUMP JUMPDEST PUSH1 0x0 DUP2 MLOAD DUP1 DUP5 MSTORE PUSH1 0x20 DUP1 DUP6 ADD DUP1 DUP2 SWAP7 POP DUP4 PUSH1 0x5 SHL DUP2 ADD SWAP2 POP DUP3 DUP7 ADD PUSH1 0x0 JUMPDEST DUP6 DUP2 LT ISZERO PUSH2 0x35AE JUMPI DUP3 DUP5 SUB DUP10 MSTORE DUP2 MLOAD DUP1 MLOAD PUSH1 0x1 PUSH1 0x1 PUSH1 0xA0 SHL SUB AND DUP6 MSTORE DUP6 ADD MLOAD PUSH1 0x40 DUP7 DUP7 ADD DUP2 SWAP1 MSTORE PUSH2 0x359A DUP2 DUP8 ADD DUP4 PUSH2 0x34B6 JUMP JUMPDEST SWAP11 DUP8 ADD SWAP11 SWAP6 POP POP POP SWAP1 DUP5 ADD SWAP1 PUSH1 0x1 ADD PUSH2 0x3567 JUMP JUMPDEST POP SWAP2 SWAP8 SWAP7 POP POP POP POP POP POP POP JUMP JUMPDEST PUSH1 0x0 DUP2 MLOAD DUP1 DUP5 MSTORE PUSH1 0x20 DUP1 DUP6 ADD DUP1 DUP2 SWAP7 POP DUP4 PUSH1 0x5 SHL DUP2 ADD SWAP2 POP DUP3 DUP7 ADD PUSH1 0x0 JUMPDEST DUP6 DUP2 LT ISZERO PUSH2 0x35AE JUMPI DUP3 DUP5 SUB DUP10 MSTORE DUP2 MLOAD PUSH1 0xA0 DUP2 MLOAD DUP2 DUP8 MSTORE DUP1 MLOAD PUSH1 0xE0 DUP1 DUP5 DUP11 ADD MSTORE PUSH2 0x3606 PUSH2 0x180 DUP11 ADD DUP4 PUSH2 0x3716 JUMP JUMPDEST SWAP2 POP DUP10 DUP4 ADD MLOAD PUSH1 0xC0 DUP2 DUP2 DUP13 ADD MSTORE PUSH1 0x40 SWAP2 POP DUP2 DUP6 ADD MLOAD DUP4 DUP13 ADD MSTORE PUSH1 0x60 SWAP3 POP DUP3 DUP6 ADD MLOAD PUSH2 0x100 DUP13 ADD MSTORE PUSH1 0x80 DUP1 DUP7 ADD MLOAD PUSH2 0x120 DUP14 ADD MSTORE DUP7 DUP7 ADD MLOAD PUSH2 0x140 DUP14 ADD MSTORE DUP2 DUP7 ADD MLOAD SWAP7 POP PUSH1 0x9F NOT DUP13 DUP7 SUB ADD PUSH2 0x160 DUP14 ADD MSTORE PUSH2 0x3660 DUP6 DUP9 PUSH2 0x3716 JUMP JUMPDEST SWAP7 POP DUP13 DUP9 ADD MLOAD DUP14 DUP14 ADD MSTORE DUP3 DUP9 ADD MLOAD SWAP6 POP DUP12 DUP8 SUB DUP4 DUP14 ADD MSTORE PUSH2 0x3681 DUP8 DUP8 PUSH2 0x3716 JUMP JUMPDEST SWAP7 POP DUP4 DUP9 ADD MLOAD SWAP6 POP PUSH2 0x3695 DUP5 DUP14 ADD DUP8 PUSH2 0x36F2 JUMP JUMPDEST SWAP7 DUP8 ADD MLOAD SWAP11 SWAP1 SWAP7 ADD SWAP10 SWAP1 SWAP10 MSTORE POP POP POP SWAP10 DUP7 ADD SWAP10 SWAP5 POP POP SWAP1 DUP5 ADD SWAP1 PUSH1 0x1 ADD PUSH2 0x35D9 JUMP JUMPDEST PUSH1 0x0 DUP2 MLOAD DUP1 DUP5 MSTORE PUSH1 0x20 DUP1 DUP6 ADD SWAP5 POP DUP1 DUP5 ADD PUSH1 0x0 JUMPDEST DUP4 DUP2 LT ISZERO PUSH2 0x36E7 JUMPI DUP2 MLOAD DUP8 MSTORE SWAP6 DUP3 ADD SWAP6 SWAP1 DUP3 ADD SWAP1 PUSH1 0x1 ADD PUSH2 0x36CB JUMP JUMPDEST POP SWAP5 SWAP6 SWAP5 POP POP POP POP POP JUMP JUMPDEST PUSH1 0x8 DUP2 LT PUSH2 0x3702 JUMPI PUSH2 0x3702 PUSH2 0x3B75 JUMP JUMPDEST SWAP1 MSTORE JUMP JUMPDEST PUSH1 0x7 DUP2 LT PUSH2 0x3702 JUMPI PUSH2 0x3702 PUSH2 0x3B75 JUMP JUMPDEST PUSH1 0x0 DUP2 MLOAD DUP1 DUP5 MSTORE PUSH1 0x0 JUMPDEST DUP2 DUP2 LT ISZERO PUSH2 0x373C JUMPI PUSH1 0x20 DUP2 DUP6 ADD DUP2 ADD MLOAD DUP7 DUP4 ADD DUP3 ADD MSTORE ADD PUSH2 0x3720 JUMP JUMPDEST DUP2 DUP2 GT ISZERO PUSH2 0x374E JUMPI PUSH1 0x0 PUSH1 0x20 DUP4 DUP8 ADD ADD MSTORE JUMPDEST POP PUSH1 0x1F ADD PUSH1 0x1F NOT AND SWAP3 SWAP1 SWAP3 ADD PUSH1 0x20 ADD SWAP3 SWAP2 POP POP JUMP JUMPDEST PUSH1 0x20 DUP1 DUP3 MSTORE DUP3 MLOAD DUP3 DUP3 ADD DUP2 SWAP1 MSTORE PUSH1 0x0 SWAP2 SWAP1 DUP5 DUP3 ADD SWAP1 PUSH1 0x40 DUP6 ADD SWAP1 DUP5 JUMPDEST DUP2 DUP2 LT ISZERO PUSH2 0x2E70 JUMPI DUP4 MLOAD PUSH1 0x1 PUSH1 0x1 PUSH1 0xA0 SHL SUB AND DUP4 MSTORE SWAP3 DUP5 ADD SWAP3 SWAP2 DUP5 ADD SWAP2 PUSH1 0x1 ADD PUSH2 0x377F JUMP JUMPDEST PUSH1 0x20 DUP2 MSTORE PUSH1 0x0 PUSH2 0x2AA9 PUSH1 0x20 DUP4 ADD DUP5 PUSH2 0x35BB JUMP JUMPDEST PUSH1 0x40 DUP2 MSTORE PUSH1 0x0 PUSH2 0x37CA PUSH1 0x40 DUP4 ADD DUP6 PUSH2 0x36B7 JUMP JUMPDEST SWAP1 POP DUP3 PUSH1 0x20 DUP4 ADD MSTORE SWAP4 SWAP3 POP POP POP JUMP JUMPDEST PUSH1 0x20 DUP2 ADD PUSH2 0x63B DUP3 DUP5 PUSH2 0x3706 JUMP JUMPDEST PUSH1 0x20 DUP2 MSTORE PUSH2 0x3801 PUSH1 0x20 DUP3 ADD DUP4 MLOAD PUSH1 0x1 PUSH1 0x1 PUSH1 0xA0 SHL SUB AND SWAP1 MSTORE JUMP JUMPDEST PUSH1 0x20 DUP3 ADD MLOAD PUSH1 0x40 DUP3 ADD MSTORE PUSH1 0x0 PUSH1 0x40 DUP4 ADD MLOAD PUSH2 0x300 DUP1 PUSH1 0x60 DUP6 ADD MSTORE PUSH2 0x3829 PUSH2 0x320 DUP6 ADD DUP4 PUSH2 0x3716 JUMP JUMPDEST SWAP2 POP PUSH1 0x60 DUP6 ADD MLOAD PUSH1 0x1F NOT DUP1 DUP7 DUP6 SUB ADD PUSH1 0x80 DUP8 ADD MSTORE PUSH2 0x3847 DUP5 DUP4 PUSH2 0x3716 JUMP JUMPDEST SWAP4 POP PUSH1 0x80 DUP8 ADD MLOAD PUSH1 0xA0 DUP8 ADD MSTORE PUSH1 0xA0 DUP8 ADD MLOAD PUSH1 0xC0 DUP8 ADD MSTORE PUSH1 0xC0 DUP8 ADD MLOAD PUSH1 0xE0 DUP8 ADD MSTORE PUSH1 0xE0 DUP8 ADD MLOAD SWAP2 POP PUSH2 0x100 DUP2 DUP8 DUP7 SUB ADD DUP2 DUP9 ADD MSTORE PUSH2 0x3884 DUP6 DUP5 PUSH2 0x36B7 JUMP JUMPDEST SWAP1 DUP9 ADD MLOAD PUSH2 0x120 DUP9 DUP2 ADD SWAP2 SWAP1 SWAP2 MSTORE DUP9 ADD MLOAD PUSH2 0x140 DUP1 DUP10 ADD SWAP2 SWAP1 SWAP2 MSTORE DUP9 ADD MLOAD SWAP1 SWAP5 POP SWAP2 POP PUSH2 0x160 PUSH2 0x38B7 DUP2 DUP9 ADD DUP5 ISZERO ISZERO SWAP1 MSTORE JUMP JUMPDEST DUP8 ADD MLOAD SWAP2 POP PUSH2 0x180 PUSH2 0x38CC DUP8 DUP3 ADD DUP5 ISZERO ISZERO SWAP1 MSTORE JUMP JUMPDEST DUP1 DUP9 ADD MLOAD SWAP3 POP POP PUSH2 0x1A0 DUP3 DUP2 DUP9 ADD MSTORE DUP1 DUP9 ADD MLOAD SWAP3 POP POP PUSH2 0x1C0 DUP2 DUP8 DUP7 SUB ADD DUP2 DUP9 ADD MSTORE PUSH2 0x38F8 DUP6 DUP5 PUSH2 0x34B6 JUMP JUMPDEST SWAP5 POP DUP1 DUP9 ADD MLOAD SWAP3 POP POP PUSH2 0x1E0 DUP2 DUP8 DUP7 SUB ADD DUP2 DUP9 ADD MSTORE PUSH2 0x3917 DUP6 DUP5 PUSH2 0x35BB JUMP JUMPDEST SWAP5 POP DUP1 DUP9 ADD MLOAD SWAP3 POP POP PUSH2 0x200 DUP2 DUP8 DUP7 SUB ADD DUP2 DUP9 ADD MSTORE PUSH2 0x3936 DUP6 DUP5 PUSH2 0x3549 JUMP JUMPDEST SWAP5 POP DUP1 DUP9 ADD MLOAD SWAP3 POP POP PUSH2 0x220 DUP2 DUP8 DUP7 SUB ADD DUP2 DUP9 ADD MSTORE PUSH2 0x3955 DUP6 DUP5 PUSH2 0x3549 JUMP JUMPDEST SWAP1 DUP9 ADD MLOAD PUSH2 0x240 DUP9 DUP2 ADD SWAP2 SWAP1 SWAP2 MSTORE DUP9 ADD MLOAD PUSH2 0x260 DUP1 DUP10 ADD SWAP2 SWAP1 SWAP2 MSTORE DUP9 ADD MLOAD PUSH2 0x280 DUP1 DUP10 ADD SWAP2 SWAP1 SWAP2 MSTORE DUP9 ADD MLOAD PUSH2 0x2A0 DUP1 DUP10 ADD SWAP2 SWAP1 SWAP2 MSTORE DUP9 ADD MLOAD SWAP1 SWAP5 POP SWAP2 POP PUSH2 0x2C0 SWAP1 POP PUSH2 0x39A4 DUP2 DUP8 ADD DUP4 ISZERO ISZERO SWAP1 MSTORE JUMP JUMPDEST DUP7 ADD MLOAD SWAP1 POP PUSH2 0x2E0 PUSH2 0x39B9 DUP7 DUP3 ADD DUP4 ISZERO ISZERO SWAP1 MSTORE JUMP JUMPDEST DUP7 ADD MLOAD SWAP1 POP PUSH2 0x39CA DUP6 DUP4 ADD DUP3 PUSH2 0x3706 JUMP JUMPDEST POP SWAP1 SWAP5 SWAP4 POP POP POP POP JUMP JUMPDEST PUSH1 0x40 MLOAD PUSH1 0xA0 DUP2 ADD PUSH8 0xFFFFFFFFFFFFFFFF DUP2 GT DUP3 DUP3 LT OR ISZERO PUSH2 0x39F7 JUMPI PUSH2 0x39F7 PUSH2 0x3BA1 JUMP JUMPDEST PUSH1 0x40 MSTORE SWAP1 JUMP JUMPDEST PUSH1 0x40 MLOAD PUSH1 0xE0 DUP2 ADD PUSH8 0xFFFFFFFFFFFFFFFF DUP2 GT DUP3 DUP3 LT OR ISZERO PUSH2 0x39F7 JUMPI PUSH2 0x39F7 PUSH2 0x3BA1 JUMP JUMPDEST PUSH1 0x40 MLOAD PUSH2 0x1A0 DUP2 ADD PUSH8 0xFFFFFFFFFFFFFFFF DUP2 GT DUP3 DUP3 LT OR ISZERO PUSH2 0x39F7 JUMPI PUSH2 0x39F7 PUSH2 0x3BA1 JUMP JUMPDEST PUSH1 0x40 MLOAD PUSH1 0x1F DUP3 ADD PUSH1 0x1F NOT AND DUP2 ADD PUSH8 0xFFFFFFFFFFFFFFFF DUP2 GT DUP3 DUP3 LT OR ISZERO PUSH2 0x3A6D JUMPI PUSH2 0x3A6D PUSH2 0x3BA1 JUMP JUMPDEST PUSH1 0x40 MSTORE SWAP2 SWAP1 POP JUMP JUMPDEST PUSH1 0x0 PUSH8 0xFFFFFFFFFFFFFFFF DUP3 GT ISZERO PUSH2 0x3A8F JUMPI PUSH2 0x3A8F PUSH2 0x3BA1 JUMP JUMPDEST POP PUSH1 0x5 SHL PUSH1 0x20 ADD SWAP1 JUMP JUMPDEST PUSH1 0x0 DUP3 NOT DUP3 GT ISZERO PUSH2 0x3AAC JUMPI PUSH2 0x3AAC PUSH2 0x3B5F JUMP JUMPDEST POP ADD SWAP1 JUMP JUMPDEST PUSH1 0x0 DUP3 PUSH2 0x3ACE JUMPI PUSH4 0x4E487B71 PUSH1 0xE0 SHL PUSH1 0x0 MSTORE PUSH1 0x12 PUSH1 0x4 MSTORE PUSH1 0x24 PUSH1 0x0 REVERT JUMPDEST POP DIV SWAP1 JUMP JUMPDEST PUSH1 0x0 DUP2 PUSH1 0x0 NOT DIV DUP4 GT DUP3 ISZERO ISZERO AND ISZERO PUSH2 0x3AED JUMPI PUSH2 0x3AED PUSH2 0x3B5F JUMP JUMPDEST POP MUL SWAP1 JUMP JUMPDEST PUSH1 0x0 DUP3 DUP3 LT ISZERO PUSH2 0x3B04 JUMPI PUSH2 0x3B04 PUSH2 0x3B5F JUMP JUMPDEST POP SUB SWAP1 JUMP JUMPDEST PUSH1 0x1 DUP2 DUP2 SHR SWAP1 DUP3 AND DUP1 PUSH2 0x3B1D JUMPI PUSH1 0x7F DUP3 AND SWAP2 POP JUMPDEST PUSH1 0x20 DUP3 LT DUP2 EQ ISZERO PUSH2 0x3B3E JUMPI PUSH4 0x4E487B71 PUSH1 0xE0 SHL PUSH1 0x0 MSTORE PUSH1 0x22 PUSH1 0x4 MSTORE PUSH1 0x24 PUSH1 0x0 REVERT JUMPDEST POP SWAP2 SWAP1 POP JUMP JUMPDEST PUSH1 0x0 PUSH1 0x0 NOT DUP3 EQ ISZERO PUSH2 0x3B58 JUMPI PUSH2 0x3B58 PUSH2 0x3B5F JUMP JUMPDEST POP PUSH1 0x1 ADD SWAP1 JUMP JUMPDEST PUSH4 0x4E487B71 PUSH1 0xE0 SHL PUSH1 0x0 MSTORE PUSH1 0x11 PUSH1 0x4 MSTORE PUSH1 0x24 PUSH1 0x0 REVERT JUMPDEST PUSH4 0x4E487B71 PUSH1 0xE0 SHL PUSH1 0x0 MSTORE PUSH1 0x21 PUSH1 0x4 MSTORE PUSH1 0x24 PUSH1 0x0 REVERT JUMPDEST PUSH4 0x4E487B71 PUSH1 0xE0 SHL PUSH1 0x0 MSTORE PUSH1 0x32 PUSH1 0x4 MSTORE PUSH1 0x24 PUSH1 0x0 REVERT JUMPDEST PUSH4 0x4E487B71 PUSH1 0xE0 SHL PUSH1 0x0 MSTORE PUSH1 0x41 PUSH1 0x4 MSTORE PUSH1 0x24 PUSH1 0x0 REVERT INVALID LOG2 PUSH5 0x6970667358 0x22 SLT KECCAK256 0xE5 CREATE 0x5D 0xA5 0xD2 MSIZE PUSH2 0x732 0xE6 0x4E STOP DUP5 PUSH22 0xBE23C062E246DEDA42F507CC013A0AD7F2C464736F6C PUSH4 0x43000807 STOP CALLER "
		},
		"gasEstimates": {
			"creation": {
				"codeDepositCost": "3068200",
				"executionCost": "3381",
				"totalCost": "3071581"
			},
			"external": {
				"accept(uint256,uint256,address,bool)": "infinite",
				"acceptTrans(uint256,uint256[],address)": "infinite",
				"acceptVf(uint256,uint256[],address)": "infinite",
				"addProject((uint256,string,string,uint256,uint256,uint256,uint256[],uint256,uint256,bool,bool,uint256,((string,uint256,uint256,uint256,uint256,uint256,string),uint256,string,uint8,uint256)[]))": "infinite",
				"closeTransAccept(uint256)": "24546",
				"closeVfAccept(uint256)": "24613",
				"deductBounty(uint256,address,uint256,uint256,bool)": "infinite",
				"getAcceptTransNumber(uint256,address)": "2694",
				"getAcceptVfNumber(uint256,address)": "2745",
				"getBuyer(uint256)": "2548",
				"getCount()": "2392",
				"getProjectOne(uint256)": "infinite",
				"getSubTaskBounty(uint256,address,uint256,bool)": "infinite",
				"getTaskBounty(uint256)": "2548",
				"getTaskBounty(uint256,uint256)": "4773",
				"getTaskState(uint256)": "2655",
				"getTaskStateTrans(uint256)": "2504",
				"getTaskStateVf(uint256)": "2516",
				"getTasks(uint256)": "infinite",
				"getTransNumber(uint256)": "2525",
				"getTranslatorsList(uint256)": "infinite",
				"getVfList(uint256)": "infinite",
				"getVfNumber(uint256)": "2502",
				"isCustomizeState(uint256)": "2603",
				"isFull(uint256,bool)": "4771",
				"onNoOnePink(uint256)": "24620",
				"overTimeTasker(uint256,address,bool)": "infinite",
				"receivePass(uint256,address,uint256)": "51397",
				"returnTasker(uint256,address,uint256,bool)": "infinite",
				"sumbitTransTask(uint256,address,uint256,string)": "infinite",
				"sumbitVfTask(uint256,address,address,uint256,string)": "infinite",
				"updateProject(uint256,(uint256,string,string,uint256,uint256,uint256,uint256[],uint256,uint256,bool,bool,uint256,((string,uint256,uint256,uint256,uint256,uint256,string),uint256,string,uint8,uint256)[]))": "infinite",
				"updateState(uint256,uint8)": "24716",
				"updateTaskerState(uint256,address,uint256[],uint8,bool)": "infinite"
			}
		},
		"methodIdentifiers": {
			"accept(uint256,uint256,address,bool)": "2731259a",
			"acceptTrans(uint256,uint256[],address)": "4aa86ded",
			"acceptVf(uint256,uint256[],address)": "a15d194c",
			"addProject((uint256,string,string,uint256,uint256,uint256,uint256[],uint256,uint256,bool,bool,uint256,((string,uint256,uint256,uint256,uint256,uint256,string),uint256,string,uint8,uint256)[]))": "752458c5",
			"closeTransAccept(uint256)": "ea60f28c",
			"closeVfAccept(uint256)": "df3a726f",
			"deductBounty(uint256,address,uint256,uint256,bool)": "6fa276b8",
			"getAcceptTransNumber(uint256,address)": "193620e7",
			"getAcceptVfNumber(uint256,address)": "790485f9",
			"getBuyer(uint256)": "5bf608b8",
			"getCount()": "a87d942c",
			"getProjectOne(uint256)": "25e78e70",
			"getSubTaskBounty(uint256,address,uint256,bool)": "35339174",
			"getTaskBounty(uint256)": "6e973982",
			"getTaskBounty(uint256,uint256)": "64a1ed07",
			"getTaskState(uint256)": "ffcce776",
			"getTaskStateTrans(uint256)": "9722f099",
			"getTaskStateVf(uint256)": "546677aa",
			"getTasks(uint256)": "cf8f4be2",
			"getTransNumber(uint256)": "d2fed69c",
			"getTranslatorsList(uint256)": "983a12a8",
			"getVfList(uint256)": "b647eec3",
			"getVfNumber(uint256)": "f8626ebb",
			"isCustomizeState(uint256)": "7c34eb85",
			"isFull(uint256,bool)": "8a9a9ff3",
			"onNoOnePink(uint256)": "4db61caf",
			"overTimeTasker(uint256,address,bool)": "8b3f3a6f",
			"receivePass(uint256,address,uint256)": "789fbe31",
			"returnTasker(uint256,address,uint256,bool)": "960bc834",
			"sumbitTransTask(uint256,address,uint256,string)": "fffb35af",
			"sumbitVfTask(uint256,address,address,uint256,string)": "38c3b2d6",
			"updateProject(uint256,(uint256,string,string,uint256,uint256,uint256,uint256[],uint256,uint256,bool,bool,uint256,((string,uint256,uint256,uint256,uint256,uint256,string),uint256,string,uint8,uint256)[]))": "1af5fa16",
			"updateState(uint256,uint8)": "ffbafdfe",
			"updateTaskerState(uint256,address,uint256[],uint8,bool)": "90977d2b"
		}
	},
	"abi": [
		{
			"inputs": [
				{
					"internalType": "uint256",
					"name": "_index",
					"type": "uint256"
				},
				{
					"internalType": "uint256",
					"name": "_fileIndex",
					"type": "uint256"
				},
				{
					"internalType": "address",
					"name": "_taskerIndex",
					"type": "address"
				},
				{
					"internalType": "bool",
					"name": "_isTrans",
					"type": "bool"
				}
			],
			"name": "accept",
			"outputs": [],
			"stateMutability": "nonpayable",
			"type": "function"
		},
		{
			"inputs": [
				{
					"internalType": "uint256",
					"name": "_index",
					"type": "uint256"
				},
				{
					"internalType": "uint256[]",
					"name": "_fileIndex",
					"type": "uint256[]"
				},
				{
					"internalType": "address",
					"name": "_taskerIndex",
					"type": "address"
				}
			],
			"name": "acceptTrans",
			"outputs": [],
			"stateMutability": "nonpayable",
			"type": "function"
		},
		{
			"inputs": [
				{
					"internalType": "uint256",
					"name": "_index",
					"type": "uint256"
				},
				{
					"internalType": "uint256[]",
					"name": "_fileIndex",
					"type": "uint256[]"
				},
				{
					"internalType": "address",
					"name": "_taskerIndex",
					"type": "address"
				}
			],
			"name": "acceptVf",
			"outputs": [],
			"stateMutability": "nonpayable",
			"type": "function"
		},
		{
			"inputs": [
				{
					"components": [
						{
							"internalType": "uint256",
							"name": "releaseTime",
							"type": "uint256"
						},
						{
							"internalType": "string",
							"name": "introduce",
							"type": "string"
						},
						{
							"internalType": "string",
							"name": "need",
							"type": "string"
						},
						{
							"internalType": "uint256",
							"name": "deadline",
							"type": "uint256"
						},
						{
							"internalType": "uint256",
							"name": "sourceLanguage",
							"type": "uint256"
						},
						{
							"internalType": "uint256",
							"name": "goalLanguage",
							"type": "uint256"
						},
						{
							"internalType": "uint256[]",
							"name": "preferList",
							"type": "uint256[]"
						},
						{
							"internalType": "uint256",
							"name": "translationType",
							"type": "uint256"
						},
						{
							"internalType": "uint256",
							"name": "workLoad",
							"type": "uint256"
						},
						{
							"internalType": "bool",
							"name": "isNonDisclosure",
							"type": "bool"
						},
						{
							"internalType": "bool",
							"name": "isCustomize",
							"type": "bool"
						},
						{
							"internalType": "uint256",
							"name": "bounty",
							"type": "uint256"
						},
						{
							"components": [
								{
									"components": [
										{
											"internalType": "string",
											"name": "name",
											"type": "string"
										},
										{
											"internalType": "uint256",
											"name": "size",
											"type": "uint256"
										},
										{
											"internalType": "uint256",
											"name": "videoLength",
											"type": "uint256"
										},
										{
											"internalType": "uint256",
											"name": "Page",
											"type": "uint256"
										},
										{
											"internalType": "uint256",
											"name": "words",
											"type": "uint256"
										},
										{
											"internalType": "uint256",
											"name": "fileType",
											"type": "uint256"
										},
										{
											"internalType": "string",
											"name": "path",
											"type": "string"
										}
									],
									"internalType": "struct LibProject.FileInfo",
									"name": "file",
									"type": "tuple"
								},
								{
									"internalType": "uint256",
									"name": "bounty",
									"type": "uint256"
								},
								{
									"internalType": "string",
									"name": "info",
									"type": "string"
								},
								{
									"internalType": "enum LibProject.FileState",
									"name": "state",
									"type": "uint8"
								},
								{
									"internalType": "uint256",
									"name": "lastUpload",
									"type": "uint256"
								}
							],
							"internalType": "struct LibProject.TaskInfo[]",
							"name": "tasks",
							"type": "tuple[]"
						}
					],
					"internalType": "struct LibProject.ProParm",
					"name": "_t",
					"type": "tuple"
				}
			],
			"name": "addProject",
			"outputs": [
				{
					"internalType": "uint256",
					"name": "",
					"type": "uint256"
				}
			],
			"stateMutability": "nonpayable",
			"type": "function"
		},
		{
			"inputs": [
				{
					"internalType": "uint256",
					"name": "_index",
					"type": "uint256"
				}
			],
			"name": "closeTransAccept",
			"outputs": [],
			"stateMutability": "nonpayable",
			"type": "function"
		},
		{
			"inputs": [
				{
					"internalType": "uint256",
					"name": "_index",
					"type": "uint256"
				}
			],
			"name": "closeVfAccept",
			"outputs": [],
			"stateMutability": "nonpayable",
			"type": "function"
		},
		{
			"inputs": [
				{
					"internalType": "uint256",
					"name": "_index",
					"type": "uint256"
				},
				{
					"internalType": "address",
					"name": "_taskerIndex",
					"type": "address"
				},
				{
					"internalType": "uint256",
					"name": "_fileIndex",
					"type": "uint256"
				},
				{
					"internalType": "uint256",
					"name": "_money",
					"type": "uint256"
				},
				{
					"internalType": "bool",
					"name": "_isTrans",
					"type": "bool"
				}
			],
			"name": "deductBounty",
			"outputs": [],
			"stateMutability": "nonpayable",
			"type": "function"
		},
		{
			"inputs": [
				{
					"internalType": "uint256",
					"name": "_index",
					"type": "uint256"
				},
				{
					"internalType": "address",
					"name": "_taskerIndex",
					"type": "address"
				}
			],
			"name": "getAcceptTransNumber",
			"outputs": [
				{
					"internalType": "uint256",
					"name": "",
					"type": "uint256"
				}
			],
			"stateMutability": "view",
			"type": "function"
		},
		{
			"inputs": [
				{
					"internalType": "uint256",
					"name": "_index",
					"type": "uint256"
				},
				{
					"internalType": "address",
					"name": "_taskerIndex",
					"type": "address"
				}
			],
			"name": "getAcceptVfNumber",
			"outputs": [
				{
					"internalType": "uint256",
					"name": "",
					"type": "uint256"
				}
			],
			"stateMutability": "view",
			"type": "function"
		},
		{
			"inputs": [
				{
					"internalType": "uint256",
					"name": "_index",
					"type": "uint256"
				}
			],
			"name": "getBuyer",
			"outputs": [
				{
					"internalType": "address",
					"name": "",
					"type": "address"
				}
			],
			"stateMutability": "view",
			"type": "function"
		},
		{
			"inputs": [],
			"name": "getCount",
			"outputs": [
				{
					"internalType": "uint256",
					"name": "",
					"type": "uint256"
				}
			],
			"stateMutability": "view",
			"type": "function"
		},
		{
			"inputs": [
				{
					"internalType": "uint256",
					"name": "_index",
					"type": "uint256"
				}
			],
			"name": "getProjectOne",
			"outputs": [
				{
					"components": [
						{
							"internalType": "address",
							"name": "buyer",
							"type": "address"
						},
						{
							"internalType": "uint256",
							"name": "releaseTime",
							"type": "uint256"
						},
						{
							"internalType": "string",
							"name": "introduce",
							"type": "string"
						},
						{
							"internalType": "string",
							"name": "need",
							"type": "string"
						},
						{
							"internalType": "uint256",
							"name": "deadline",
							"type": "uint256"
						},
						{
							"internalType": "uint256",
							"name": "sourceLanguage",
							"type": "uint256"
						},
						{
							"internalType": "uint256",
							"name": "goalLanguage",
							"type": "uint256"
						},
						{
							"internalType": "uint256[]",
							"name": "preferList",
							"type": "uint256[]"
						},
						{
							"internalType": "uint256",
							"name": "translationType",
							"type": "uint256"
						},
						{
							"internalType": "uint256",
							"name": "workLoad",
							"type": "uint256"
						},
						{
							"internalType": "bool",
							"name": "isNonDisclosure",
							"type": "bool"
						},
						{
							"internalType": "bool",
							"name": "isCustomize",
							"type": "bool"
						},
						{
							"internalType": "uint256",
							"name": "bounty",
							"type": "uint256"
						},
						{
							"components": [
								{
									"internalType": "uint256",
									"name": "taskIndex",
									"type": "uint256"
								},
								{
									"internalType": "enum LibProject.TaskerState",
									"name": "state",
									"type": "uint8"
								},
								{
									"internalType": "string",
									"name": "file",
									"type": "string"
								},
								{
									"internalType": "uint256",
									"name": "bounty",
									"type": "uint256"
								}
							],
							"internalType": "struct LibProject.ReturnFileInfo[]",
							"name": "fileInfo",
							"type": "tuple[]"
						},
						{
							"components": [
								{
									"components": [
										{
											"internalType": "string",
											"name": "name",
											"type": "string"
										},
										{
											"internalType": "uint256",
											"name": "size",
											"type": "uint256"
										},
										{
											"internalType": "uint256",
											"name": "videoLength",
											"type": "uint256"
										},
										{
											"internalType": "uint256",
											"name": "Page",
											"type": "uint256"
										},
										{
											"internalType": "uint256",
											"name": "words",
											"type": "uint256"
										},
										{
											"internalType": "uint256",
											"name": "fileType",
											"type": "uint256"
										},
										{
											"internalType": "string",
											"name": "path",
											"type": "string"
										}
									],
									"internalType": "struct LibProject.FileInfo",
									"name": "file",
									"type": "tuple"
								},
								{
									"internalType": "uint256",
									"name": "bounty",
									"type": "uint256"
								},
								{
									"internalType": "string",
									"name": "info",
									"type": "string"
								},
								{
									"internalType": "enum LibProject.FileState",
									"name": "state",
									"type": "uint8"
								},
								{
									"internalType": "uint256",
									"name": "lastUpload",
									"type": "uint256"
								}
							],
							"internalType": "struct LibProject.TaskInfo[]",
							"name": "tasks",
							"type": "tuple[]"
						},
						{
							"components": [
								{
									"internalType": "address",
									"name": "taskerAddress",
									"type": "address"
								},
								{
									"components": [
										{
											"internalType": "uint256",
											"name": "taskIndex",
											"type": "uint256"
										},
										{
											"internalType": "enum LibProject.TaskerState",
											"name": "state",
											"type": "uint8"
										},
										{
											"internalType": "string",
											"name": "file",
											"type": "string"
										},
										{
											"internalType": "uint256",
											"name": "bounty",
											"type": "uint256"
										}
									],
									"internalType": "struct LibProject.ReturnFileInfo[]",
									"name": "taskerinfo",
									"type": "tuple[]"
								}
							],
							"internalType": "struct LibProject.ReturnTasker[]",
							"name": "translators",
							"type": "tuple[]"
						},
						{
							"components": [
								{
									"internalType": "address",
									"name": "taskerAddress",
									"type": "address"
								},
								{
									"components": [
										{
											"internalType": "uint256",
											"name": "taskIndex",
											"type": "uint256"
										},
										{
											"internalType": "enum LibProject.TaskerState",
											"name": "state",
											"type": "uint8"
										},
										{
											"internalType": "string",
											"name": "file",
											"type": "string"
										},
										{
											"internalType": "uint256",
											"name": "bounty",
											"type": "uint256"
										}
									],
									"internalType": "struct LibProject.ReturnFileInfo[]",
									"name": "taskerinfo",
									"type": "tuple[]"
								}
							],
							"internalType": "struct LibProject.ReturnTasker[]",
							"name": "verifiers",
							"type": "tuple[]"
						},
						{
							"internalType": "uint256",
							"name": "maxT",
							"type": "uint256"
						},
						{
							"internalType": "uint256",
							"name": "maxV",
							"type": "uint256"
						},
						{
							"internalType": "uint256",
							"name": "numberT",
							"type": "uint256"
						},
						{
							"internalType": "uint256",
							"name": "numberV",
							"type": "uint256"
						},
						{
							"internalType": "bool",
							"name": "isTransActive",
							"type": "bool"
						},
						{
							"internalType": "bool",
							"name": "isVerActive",
							"type": "bool"
						},
						{
							"internalType": "enum LibProject.ProjectState",
							"name": "state",
							"type": "uint8"
						}
					],
					"internalType": "struct LibProject.ReturnTask",
					"name": "",
					"type": "tuple"
				}
			],
			"stateMutability": "view",
			"type": "function"
		},
		{
			"inputs": [
				{
					"internalType": "uint256",
					"name": "_index",
					"type": "uint256"
				},
				{
					"internalType": "address",
					"name": "_tasker",
					"type": "address"
				},
				{
					"internalType": "uint256",
					"name": "_fileIndex",
					"type": "uint256"
				},
				{
					"internalType": "bool",
					"name": "_isTrans",
					"type": "bool"
				}
			],
			"name": "getSubTaskBounty",
			"outputs": [
				{
					"internalType": "uint256",
					"name": "",
					"type": "uint256"
				}
			],
			"stateMutability": "view",
			"type": "function"
		},
		{
			"inputs": [
				{
					"internalType": "uint256",
					"name": "_index",
					"type": "uint256"
				},
				{
					"internalType": "uint256",
					"name": "_fileIndex",
					"type": "uint256"
				}
			],
			"name": "getTaskBounty",
			"outputs": [
				{
					"internalType": "uint256",
					"name": "",
					"type": "uint256"
				}
			],
			"stateMutability": "view",
			"type": "function"
		},
		{
			"inputs": [
				{
					"internalType": "uint256",
					"name": "_index",
					"type": "uint256"
				}
			],
			"name": "getTaskBounty",
			"outputs": [
				{
					"internalType": "uint256",
					"name": "",
					"type": "uint256"
				}
			],
			"stateMutability": "view",
			"type": "function"
		},
		{
			"inputs": [
				{
					"internalType": "uint256",
					"name": "_index",
					"type": "uint256"
				}
			],
			"name": "getTaskState",
			"outputs": [
				{
					"internalType": "enum LibProject.ProjectState",
					"name": "",
					"type": "uint8"
				}
			],
			"stateMutability": "view",
			"type": "function"
		},
		{
			"inputs": [
				{
					"internalType": "uint256",
					"name": "_index",
					"type": "uint256"
				}
			],
			"name": "getTaskStateTrans",
			"outputs": [
				{
					"internalType": "bool",
					"name": "",
					"type": "bool"
				}
			],
			"stateMutability": "view",
			"type": "function"
		},
		{
			"inputs": [
				{
					"internalType": "uint256",
					"name": "_index",
					"type": "uint256"
				}
			],
			"name": "getTaskStateVf",
			"outputs": [
				{
					"internalType": "bool",
					"name": "",
					"type": "bool"
				}
			],
			"stateMutability": "view",
			"type": "function"
		},
		{
			"inputs": [
				{
					"internalType": "uint256",
					"name": "_index",
					"type": "uint256"
				}
			],
			"name": "getTasks",
			"outputs": [
				{
					"components": [
						{
							"components": [
								{
									"internalType": "string",
									"name": "name",
									"type": "string"
								},
								{
									"internalType": "uint256",
									"name": "size",
									"type": "uint256"
								},
								{
									"internalType": "uint256",
									"name": "videoLength",
									"type": "uint256"
								},
								{
									"internalType": "uint256",
									"name": "Page",
									"type": "uint256"
								},
								{
									"internalType": "uint256",
									"name": "words",
									"type": "uint256"
								},
								{
									"internalType": "uint256",
									"name": "fileType",
									"type": "uint256"
								},
								{
									"internalType": "string",
									"name": "path",
									"type": "string"
								}
							],
							"internalType": "struct LibProject.FileInfo",
							"name": "file",
							"type": "tuple"
						},
						{
							"internalType": "uint256",
							"name": "bounty",
							"type": "uint256"
						},
						{
							"internalType": "string",
							"name": "info",
							"type": "string"
						},
						{
							"internalType": "enum LibProject.FileState",
							"name": "state",
							"type": "uint8"
						},
						{
							"internalType": "uint256",
							"name": "lastUpload",
							"type": "uint256"
						}
					],
					"internalType": "struct LibProject.TaskInfo[]",
					"name": "",
					"type": "tuple[]"
				}
			],
			"stateMutability": "view",
			"type": "function"
		},
		{
			"inputs": [
				{
					"internalType": "uint256",
					"name": "_index",
					"type": "uint256"
				}
			],
			"name": "getTransNumber",
			"outputs": [
				{
					"internalType": "uint256",
					"name": "",
					"type": "uint256"
				}
			],
			"stateMutability": "view",
			"type": "function"
		},
		{
			"inputs": [
				{
					"internalType": "uint256",
					"name": "_index",
					"type": "uint256"
				}
			],
			"name": "getTranslatorsList",
			"outputs": [
				{
					"internalType": "address[]",
					"name": "",
					"type": "address[]"
				}
			],
			"stateMutability": "view",
			"type": "function"
		},
		{
			"inputs": [
				{
					"internalType": "uint256",
					"name": "_index",
					"type": "uint256"
				}
			],
			"name": "getVfList",
			"outputs": [
				{
					"internalType": "address[]",
					"name": "",
					"type": "address[]"
				}
			],
			"stateMutability": "view",
			"type": "function"
		},
		{
			"inputs": [
				{
					"internalType": "uint256",
					"name": "_index",
					"type": "uint256"
				}
			],
			"name": "getVfNumber",
			"outputs": [
				{
					"internalType": "uint256",
					"name": "",
					"type": "uint256"
				}
			],
			"stateMutability": "view",
			"type": "function"
		},
		{
			"inputs": [
				{
					"internalType": "uint256",
					"name": "_index",
					"type": "uint256"
				}
			],
			"name": "isCustomizeState",
			"outputs": [
				{
					"internalType": "bool",
					"name": "",
					"type": "bool"
				}
			],
			"stateMutability": "view",
			"type": "function"
		},
		{
			"inputs": [
				{
					"internalType": "uint256",
					"name": "_index",
					"type": "uint256"
				},
				{
					"internalType": "bool",
					"name": "_isTrans",
					"type": "bool"
				}
			],
			"name": "isFull",
			"outputs": [
				{
					"internalType": "bool",
					"name": "",
					"type": "bool"
				}
			],
			"stateMutability": "view",
			"type": "function"
		},
		{
			"inputs": [
				{
					"internalType": "uint256",
					"name": "_index",
					"type": "uint256"
				}
			],
			"name": "onNoOnePink",
			"outputs": [],
			"stateMutability": "nonpayable",
			"type": "function"
		},
		{
			"inputs": [
				{
					"internalType": "uint256",
					"name": "_index",
					"type": "uint256"
				},
				{
					"internalType": "address",
					"name": "_taskerIndex",
					"type": "address"
				},
				{
					"internalType": "bool",
					"name": "_isTrans",
					"type": "bool"
				}
			],
			"name": "overTimeTasker",
			"outputs": [
				{
					"internalType": "uint256[]",
					"name": "",
					"type": "uint256[]"
				},
				{
					"internalType": "uint256",
					"name": "",
					"type": "uint256"
				}
			],
			"stateMutability": "view",
			"type": "function"
		},
		{
			"inputs": [
				{
					"internalType": "uint256",
					"name": "_index",
					"type": "uint256"
				},
				{
					"internalType": "address",
					"name": "_taskerIndex",
					"type": "address"
				},
				{
					"internalType": "uint256",
					"name": "_fileIndex",
					"type": "uint256"
				}
			],
			"name": "receivePass",
			"outputs": [],
			"stateMutability": "nonpayable",
			"type": "function"
		},
		{
			"inputs": [
				{
					"internalType": "uint256",
					"name": "_index",
					"type": "uint256"
				},
				{
					"internalType": "address",
					"name": "_taskerIndex",
					"type": "address"
				},
				{
					"internalType": "uint256",
					"name": "_fileIndex",
					"type": "uint256"
				},
				{
					"internalType": "bool",
					"name": "_isTrans",
					"type": "bool"
				}
			],
			"name": "returnTasker",
			"outputs": [],
			"stateMutability": "nonpayable",
			"type": "function"
		},
		{
			"inputs": [
				{
					"internalType": "uint256",
					"name": "_index",
					"type": "uint256"
				},
				{
					"internalType": "address",
					"name": "_taskerIndex",
					"type": "address"
				},
				{
					"internalType": "uint256",
					"name": "_fileIndex",
					"type": "uint256"
				},
				{
					"internalType": "string",
					"name": "_file",
					"type": "string"
				}
			],
			"name": "sumbitTransTask",
			"outputs": [],
			"stateMutability": "nonpayable",
			"type": "function"
		},
		{
			"inputs": [
				{
					"internalType": "uint256",
					"name": "_index",
					"type": "uint256"
				},
				{
					"internalType": "address",
					"name": "_transIndex",
					"type": "address"
				},
				{
					"internalType": "address",
					"name": "_vfIndex",
					"type": "address"
				},
				{
					"internalType": "uint256",
					"name": "_fileIndex",
					"type": "uint256"
				},
				{
					"internalType": "string",
					"name": "_file",
					"type": "string"
				}
			],
			"name": "sumbitVfTask",
			"outputs": [],
			"stateMutability": "nonpayable",
			"type": "function"
		},
		{
			"inputs": [
				{
					"internalType": "uint256",
					"name": "_index",
					"type": "uint256"
				},
				{
					"components": [
						{
							"internalType": "uint256",
							"name": "releaseTime",
							"type": "uint256"
						},
						{
							"internalType": "string",
							"name": "introduce",
							"type": "string"
						},
						{
							"internalType": "string",
							"name": "need",
							"type": "string"
						},
						{
							"internalType": "uint256",
							"name": "deadline",
							"type": "uint256"
						},
						{
							"internalType": "uint256",
							"name": "sourceLanguage",
							"type": "uint256"
						},
						{
							"internalType": "uint256",
							"name": "goalLanguage",
							"type": "uint256"
						},
						{
							"internalType": "uint256[]",
							"name": "preferList",
							"type": "uint256[]"
						},
						{
							"internalType": "uint256",
							"name": "translationType",
							"type": "uint256"
						},
						{
							"internalType": "uint256",
							"name": "workLoad",
							"type": "uint256"
						},
						{
							"internalType": "bool",
							"name": "isNonDisclosure",
							"type": "bool"
						},
						{
							"internalType": "bool",
							"name": "isCustomize",
							"type": "bool"
						},
						{
							"internalType": "uint256",
							"name": "bounty",
							"type": "uint256"
						},
						{
							"components": [
								{
									"components": [
										{
											"internalType": "string",
											"name": "name",
											"type": "string"
										},
										{
											"internalType": "uint256",
											"name": "size",
											"type": "uint256"
										},
										{
											"internalType": "uint256",
											"name": "videoLength",
											"type": "uint256"
										},
										{
											"internalType": "uint256",
											"name": "Page",
											"type": "uint256"
										},
										{
											"internalType": "uint256",
											"name": "words",
											"type": "uint256"
										},
										{
											"internalType": "uint256",
											"name": "fileType",
											"type": "uint256"
										},
										{
											"internalType": "string",
											"name": "path",
											"type": "string"
										}
									],
									"internalType": "struct LibProject.FileInfo",
									"name": "file",
									"type": "tuple"
								},
								{
									"internalType": "uint256",
									"name": "bounty",
									"type": "uint256"
								},
								{
									"internalType": "string",
									"name": "info",
									"type": "string"
								},
								{
									"internalType": "enum LibProject.FileState",
									"name": "state",
									"type": "uint8"
								},
								{
									"internalType": "uint256",
									"name": "lastUpload",
									"type": "uint256"
								}
							],
							"internalType": "struct LibProject.TaskInfo[]",
							"name": "tasks",
							"type": "tuple[]"
						}
					],
					"internalType": "struct LibProject.ProParm",
					"name": "_t",
					"type": "tuple"
				}
			],
			"name": "updateProject",
			"outputs": [],
			"stateMutability": "nonpayable",
			"type": "function"
		},
		{
			"inputs": [
				{
					"internalType": "uint256",
					"name": "_index",
					"type": "uint256"
				},
				{
					"internalType": "enum LibProject.ProjectState",
					"name": "_state",
					"type": "uint8"
				}
			],
			"name": "updateState",
			"outputs": [],
			"stateMutability": "nonpayable",
			"type": "function"
		},
		{
			"inputs": [
				{
					"internalType": "uint256",
					"name": "_index",
					"type": "uint256"
				},
				{
					"internalType": "address",
					"name": "_taskerAddress",
					"type": "address"
				},
				{
					"internalType": "uint256[]",
					"name": "_fileIndex",
					"type": "uint256[]"
				},
				{
					"internalType": "enum LibProject.TaskerState",
					"name": "_state",
					"type": "uint8"
				},
				{
					"internalType": "bool",
					"name": "_isTrans",
					"type": "bool"
				}
			],
			"name": "updateTaskerState",
			"outputs": [],
			"stateMutability": "nonpayable",
			"type": "function"
		}
	]
}